{
  "address": "0xf49F899d70Db6518E3d65EAf1c5D742C205eca83",
  "abi": [
    {
      "inputs": [],
      "stateMutability": "nonpayable",
      "type": "constructor"
    },
    {
      "anonymous": false,
      "inputs": [
        {
          "indexed": false,
          "internalType": "address",
          "name": "previousAdmin",
          "type": "address"
        },
        {
          "indexed": false,
          "internalType": "address",
          "name": "newAdmin",
          "type": "address"
        }
      ],
      "name": "AdminChanged",
      "type": "event"
    },
    {
      "anonymous": false,
      "inputs": [
        {
          "indexed": true,
          "internalType": "address",
          "name": "owner",
          "type": "address"
        },
        {
          "indexed": true,
          "internalType": "address",
          "name": "approved",
          "type": "address"
        },
        {
          "indexed": true,
          "internalType": "uint256",
          "name": "tokenId",
          "type": "uint256"
        }
      ],
      "name": "Approval",
      "type": "event"
    },
    {
      "anonymous": false,
      "inputs": [
        {
          "indexed": true,
          "internalType": "address",
          "name": "owner",
          "type": "address"
        },
        {
          "indexed": true,
          "internalType": "address",
          "name": "operator",
          "type": "address"
        },
        {
          "indexed": false,
          "internalType": "bool",
          "name": "approved",
          "type": "bool"
        }
      ],
      "name": "ApprovalForAll",
      "type": "event"
    },
    {
      "anonymous": false,
      "inputs": [
        {
          "indexed": true,
          "internalType": "address",
          "name": "beacon",
          "type": "address"
        }
      ],
      "name": "BeaconUpgraded",
      "type": "event"
    },
    {
      "anonymous": false,
      "inputs": [
        {
          "indexed": true,
          "internalType": "uint256",
          "name": "tokenId",
          "type": "uint256"
        },
        {
          "indexed": false,
          "internalType": "address",
          "name": "oldBeneficiary",
          "type": "address"
        },
        {
          "indexed": false,
          "internalType": "address",
          "name": "newBeneficiary",
          "type": "address"
        }
      ],
      "name": "BeneficiaryUpdated",
      "type": "event"
    },
    {
      "anonymous": false,
      "inputs": [
        {
          "indexed": false,
          "internalType": "uint8",
          "name": "version",
          "type": "uint8"
        }
      ],
      "name": "Initialized",
      "type": "event"
    },
    {
      "anonymous": false,
      "inputs": [
        {
          "indexed": true,
          "internalType": "address",
          "name": "previousOwner",
          "type": "address"
        },
        {
          "indexed": true,
          "internalType": "address",
          "name": "newOwner",
          "type": "address"
        }
      ],
      "name": "OwnershipTransferred",
      "type": "event"
    },
    {
      "anonymous": false,
      "inputs": [
        {
          "indexed": false,
          "internalType": "address",
          "name": "account",
          "type": "address"
        }
      ],
      "name": "Paused",
      "type": "event"
    },
    {
      "anonymous": false,
      "inputs": [
        {
          "indexed": false,
          "internalType": "uint256",
          "name": "tokenId",
          "type": "uint256"
        }
      ],
      "name": "ProjectIdUpdated",
      "type": "event"
    },
    {
      "anonymous": false,
      "inputs": [
        {
          "indexed": false,
          "internalType": "address",
          "name": "receiver",
          "type": "address"
        },
        {
          "indexed": false,
          "internalType": "uint256",
          "name": "tokenId",
          "type": "uint256"
        }
      ],
      "name": "ProjectMinted",
      "type": "event"
    },
    {
      "anonymous": false,
      "inputs": [
        {
          "indexed": false,
          "internalType": "uint256",
          "name": "tokenId",
          "type": "uint256"
        }
      ],
      "name": "ProjectUpdated",
      "type": "event"
    },
    {
      "anonymous": false,
      "inputs": [
        {
          "indexed": true,
          "internalType": "bytes32",
          "name": "role",
          "type": "bytes32"
        },
        {
          "indexed": true,
          "internalType": "bytes32",
          "name": "previousAdminRole",
          "type": "bytes32"
        },
        {
          "indexed": true,
          "internalType": "bytes32",
          "name": "newAdminRole",
          "type": "bytes32"
        }
      ],
      "name": "RoleAdminChanged",
      "type": "event"
    },
    {
      "anonymous": false,
      "inputs": [
        {
          "indexed": true,
          "internalType": "bytes32",
          "name": "role",
          "type": "bytes32"
        },
        {
          "indexed": true,
          "internalType": "address",
          "name": "account",
          "type": "address"
        },
        {
          "indexed": true,
          "internalType": "address",
          "name": "sender",
          "type": "address"
        }
      ],
      "name": "RoleGranted",
      "type": "event"
    },
    {
      "anonymous": false,
      "inputs": [
        {
          "indexed": true,
          "internalType": "bytes32",
          "name": "role",
          "type": "bytes32"
        },
        {
          "indexed": true,
          "internalType": "address",
          "name": "account",
          "type": "address"
        },
        {
          "indexed": true,
          "internalType": "address",
          "name": "sender",
          "type": "address"
        }
      ],
      "name": "RoleRevoked",
      "type": "event"
    },
    {
      "anonymous": false,
      "inputs": [
        {
          "indexed": true,
          "internalType": "address",
          "name": "from",
          "type": "address"
        },
        {
          "indexed": true,
          "internalType": "address",
          "name": "to",
          "type": "address"
        },
        {
          "indexed": true,
          "internalType": "uint256",
          "name": "tokenId",
          "type": "uint256"
        }
      ],
      "name": "Transfer",
      "type": "event"
    },
    {
      "anonymous": false,
      "inputs": [
        {
          "indexed": false,
          "internalType": "address",
          "name": "account",
          "type": "address"
        }
      ],
      "name": "Unpaused",
      "type": "event"
    },
    {
      "anonymous": false,
      "inputs": [
        {
          "indexed": true,
          "internalType": "address",
          "name": "implementation",
          "type": "address"
        }
      ],
      "name": "Upgraded",
      "type": "event"
    },
    {
      "inputs": [],
      "name": "DEFAULT_ADMIN_ROLE",
      "outputs": [
        {
          "internalType": "bytes32",
          "name": "",
          "type": "bytes32"
        }
      ],
      "stateMutability": "view",
      "type": "function"
    },
    {
      "inputs": [],
      "name": "MANAGER_ROLE",
      "outputs": [
        {
          "internalType": "bytes32",
          "name": "",
          "type": "bytes32"
        }
      ],
      "stateMutability": "view",
      "type": "function"
    },
    {
      "inputs": [],
      "name": "VERSION",
      "outputs": [
        {
          "internalType": "string",
          "name": "",
          "type": "string"
        }
      ],
      "stateMutability": "view",
      "type": "function"
    },
    {
      "inputs": [],
      "name": "VERSION_RELEASE_CANDIDATE",
      "outputs": [
        {
          "internalType": "uint256",
          "name": "",
          "type": "uint256"
        }
      ],
      "stateMutability": "view",
      "type": "function"
    },
    {
      "inputs": [
        {
          "internalType": "address",
          "name": "to",
          "type": "address"
        },
        {
          "internalType": "string",
          "name": "projectId",
          "type": "string"
        },
        {
          "internalType": "string",
          "name": "standard",
          "type": "string"
        },
        {
          "internalType": "string",
          "name": "methodology",
          "type": "string"
        },
        {
          "internalType": "string",
          "name": "region",
          "type": "string"
        },
        {
          "internalType": "string",
          "name": "storageMethod",
          "type": "string"
        },
        {
          "internalType": "string",
          "name": "method",
          "type": "string"
        },
        {
          "internalType": "string",
          "name": "emissionType",
          "type": "string"
        },
        {
          "internalType": "string",
          "name": "category",
          "type": "string"
        },
        {
          "internalType": "string",
          "name": "uri",
          "type": "string"
        },
        {
          "internalType": "address",
          "name": "beneficiary",
          "type": "address"
        }
      ],
      "name": "addNewProject",
      "outputs": [
        {
          "internalType": "uint256",
          "name": "",
          "type": "uint256"
        }
      ],
      "stateMutability": "nonpayable",
      "type": "function"
    },
    {
      "inputs": [
        {
          "internalType": "address",
          "name": "to",
          "type": "address"
        },
        {
          "internalType": "uint256",
          "name": "tokenId",
          "type": "uint256"
        }
      ],
      "name": "approve",
      "outputs": [],
      "stateMutability": "nonpayable",
      "type": "function"
    },
    {
      "inputs": [
        {
          "internalType": "address",
          "name": "owner",
          "type": "address"
        }
      ],
      "name": "balanceOf",
      "outputs": [
        {
          "internalType": "uint256",
          "name": "",
          "type": "uint256"
        }
      ],
      "stateMutability": "view",
      "type": "function"
    },
    {
      "inputs": [],
      "name": "baseURI",
      "outputs": [
        {
          "internalType": "string",
          "name": "",
          "type": "string"
        }
      ],
      "stateMutability": "view",
      "type": "function"
    },
    {
      "inputs": [],
      "name": "contractRegistry",
      "outputs": [
        {
          "internalType": "address",
          "name": "",
          "type": "address"
        }
      ],
      "stateMutability": "view",
      "type": "function"
    },
    {
      "inputs": [
        {
          "internalType": "uint256",
          "name": "tokenId",
          "type": "uint256"
        }
      ],
      "name": "getApproved",
      "outputs": [
        {
          "internalType": "address",
          "name": "",
          "type": "address"
        }
      ],
      "stateMutability": "view",
      "type": "function"
    },
    {
      "inputs": [
        {
          "internalType": "uint256",
          "name": "tokenId",
          "type": "uint256"
        }
      ],
      "name": "getProjectDataByTokenId",
      "outputs": [
        {
          "components": [
            {
              "internalType": "string",
              "name": "projectId",
              "type": "string"
            },
            {
              "internalType": "string",
              "name": "standard",
              "type": "string"
            },
            {
              "internalType": "string",
              "name": "methodology",
              "type": "string"
            },
            {
              "internalType": "string",
              "name": "region",
              "type": "string"
            },
            {
              "internalType": "string",
              "name": "storageMethod",
              "type": "string"
            },
            {
              "internalType": "string",
              "name": "method",
              "type": "string"
            },
            {
              "internalType": "string",
              "name": "emissionType",
              "type": "string"
            },
            {
              "internalType": "string",
              "name": "category",
              "type": "string"
            },
            {
              "internalType": "string",
              "name": "uri",
              "type": "string"
            },
            {
              "internalType": "address",
              "name": "beneficiary",
              "type": "address"
            }
          ],
          "internalType": "struct ProjectData",
          "name": "",
          "type": "tuple"
        }
      ],
      "stateMutability": "view",
      "type": "function"
    },
    {
      "inputs": [
        {
          "internalType": "bytes32",
          "name": "role",
          "type": "bytes32"
        }
      ],
      "name": "getRoleAdmin",
      "outputs": [
        {
          "internalType": "bytes32",
          "name": "",
          "type": "bytes32"
        }
      ],
      "stateMutability": "view",
      "type": "function"
    },
    {
      "inputs": [
        {
          "internalType": "bytes32",
          "name": "role",
          "type": "bytes32"
        },
        {
          "internalType": "address",
          "name": "account",
          "type": "address"
        }
      ],
      "name": "grantRole",
      "outputs": [],
      "stateMutability": "nonpayable",
      "type": "function"
    },
    {
      "inputs": [
        {
          "internalType": "bytes32",
          "name": "role",
          "type": "bytes32"
        },
        {
          "internalType": "address",
          "name": "account",
          "type": "address"
        }
      ],
      "name": "hasRole",
      "outputs": [
        {
          "internalType": "bool",
          "name": "",
          "type": "bool"
        }
      ],
      "stateMutability": "view",
      "type": "function"
    },
    {
      "inputs": [],
      "name": "initialize",
      "outputs": [],
      "stateMutability": "nonpayable",
      "type": "function"
    },
    {
      "inputs": [
        {
          "internalType": "address",
          "name": "owner",
          "type": "address"
        },
        {
          "internalType": "address",
          "name": "operator",
          "type": "address"
        }
      ],
      "name": "isApprovedForAll",
      "outputs": [
        {
          "internalType": "bool",
          "name": "",
          "type": "bool"
        }
      ],
      "stateMutability": "view",
      "type": "function"
    },
    {
      "inputs": [
        {
          "internalType": "uint256",
          "name": "projectTokenId",
          "type": "uint256"
        }
      ],
      "name": "isValidProjectTokenId",
      "outputs": [
        {
          "internalType": "bool",
          "name": "",
          "type": "bool"
        }
      ],
      "stateMutability": "view",
      "type": "function"
    },
    {
      "inputs": [],
      "name": "name",
      "outputs": [
        {
          "internalType": "string",
          "name": "",
          "type": "string"
        }
      ],
      "stateMutability": "view",
      "type": "function"
    },
    {
      "inputs": [],
      "name": "owner",
      "outputs": [
        {
          "internalType": "address",
          "name": "",
          "type": "address"
        }
      ],
      "stateMutability": "view",
      "type": "function"
    },
    {
      "inputs": [
        {
          "internalType": "uint256",
          "name": "tokenId",
          "type": "uint256"
        }
      ],
      "name": "ownerOf",
      "outputs": [
        {
          "internalType": "address",
          "name": "",
          "type": "address"
        }
      ],
      "stateMutability": "view",
      "type": "function"
    },
    {
      "inputs": [],
      "name": "pause",
      "outputs": [],
      "stateMutability": "nonpayable",
      "type": "function"
    },
    {
      "inputs": [],
      "name": "paused",
      "outputs": [
        {
          "internalType": "bool",
          "name": "",
          "type": "bool"
        }
      ],
      "stateMutability": "view",
      "type": "function"
    },
    {
      "inputs": [
        {
          "internalType": "string",
          "name": "",
          "type": "string"
        }
      ],
      "name": "pidToTokenId",
      "outputs": [
        {
          "internalType": "uint256",
          "name": "",
          "type": "uint256"
        }
      ],
      "stateMutability": "view",
      "type": "function"
    },
    {
      "inputs": [
        {
          "internalType": "uint256",
          "name": "",
          "type": "uint256"
        }
      ],
      "name": "projectData",
      "outputs": [
        {
          "internalType": "string",
          "name": "projectId",
          "type": "string"
        },
        {
          "internalType": "string",
          "name": "standard",
          "type": "string"
        },
        {
          "internalType": "string",
          "name": "methodology",
          "type": "string"
        },
        {
          "internalType": "string",
          "name": "region",
          "type": "string"
        },
        {
          "internalType": "string",
          "name": "storageMethod",
          "type": "string"
        },
        {
          "internalType": "string",
          "name": "method",
          "type": "string"
        },
        {
          "internalType": "string",
          "name": "emissionType",
          "type": "string"
        },
        {
          "internalType": "string",
          "name": "category",
          "type": "string"
        },
        {
          "internalType": "string",
          "name": "uri",
          "type": "string"
        },
        {
          "internalType": "address",
          "name": "beneficiary",
          "type": "address"
        }
      ],
      "stateMutability": "view",
      "type": "function"
    },
    {
      "inputs": [
        {
          "internalType": "string",
          "name": "",
          "type": "string"
        }
      ],
      "name": "projectIds",
      "outputs": [
        {
          "internalType": "bool",
          "name": "",
          "type": "bool"
        }
      ],
      "stateMutability": "view",
      "type": "function"
    },
    {
      "inputs": [],
      "name": "projectTokenCounter",
      "outputs": [
        {
          "internalType": "uint128",
          "name": "",
          "type": "uint128"
        }
      ],
      "stateMutability": "view",
      "type": "function"
    },
    {
      "inputs": [],
      "name": "proxiableUUID",
      "outputs": [
        {
          "internalType": "bytes32",
          "name": "",
          "type": "bytes32"
        }
      ],
      "stateMutability": "view",
      "type": "function"
    },
    {
      "inputs": [
        {
          "internalType": "uint256",
          "name": "projectTokenId",
          "type": "uint256"
        }
      ],
      "name": "removeProject",
      "outputs": [],
      "stateMutability": "nonpayable",
      "type": "function"
    },
    {
      "inputs": [],
      "name": "renounceOwnership",
      "outputs": [],
      "stateMutability": "nonpayable",
      "type": "function"
    },
    {
      "inputs": [
        {
          "internalType": "bytes32",
          "name": "role",
          "type": "bytes32"
        },
        {
          "internalType": "address",
          "name": "account",
          "type": "address"
        }
      ],
      "name": "renounceRole",
      "outputs": [],
      "stateMutability": "nonpayable",
      "type": "function"
    },
    {
      "inputs": [
        {
          "internalType": "bytes32",
          "name": "role",
          "type": "bytes32"
        },
        {
          "internalType": "address",
          "name": "account",
          "type": "address"
        }
      ],
      "name": "revokeRole",
      "outputs": [],
      "stateMutability": "nonpayable",
      "type": "function"
    },
    {
      "inputs": [
        {
          "internalType": "address",
          "name": "from",
          "type": "address"
        },
        {
          "internalType": "address",
          "name": "to",
          "type": "address"
        },
        {
          "internalType": "uint256",
          "name": "tokenId",
          "type": "uint256"
        }
      ],
      "name": "safeTransferFrom",
      "outputs": [],
      "stateMutability": "nonpayable",
      "type": "function"
    },
    {
      "inputs": [
        {
          "internalType": "address",
          "name": "from",
          "type": "address"
        },
        {
          "internalType": "address",
          "name": "to",
          "type": "address"
        },
        {
          "internalType": "uint256",
          "name": "tokenId",
          "type": "uint256"
        },
        {
          "internalType": "bytes",
          "name": "_data",
          "type": "bytes"
        }
      ],
      "name": "safeTransferFrom",
      "outputs": [],
      "stateMutability": "nonpayable",
      "type": "function"
    },
    {
      "inputs": [
        {
          "internalType": "address",
          "name": "operator",
          "type": "address"
        },
        {
          "internalType": "bool",
          "name": "approved",
          "type": "bool"
        }
      ],
      "name": "setApprovalForAll",
      "outputs": [],
      "stateMutability": "nonpayable",
      "type": "function"
    },
    {
      "inputs": [
        {
          "internalType": "string",
          "name": "gateway",
          "type": "string"
        }
      ],
      "name": "setBaseURI",
      "outputs": [],
      "stateMutability": "nonpayable",
      "type": "function"
    },
    {
      "inputs": [
        {
          "internalType": "address",
          "name": "_address",
          "type": "address"
        }
      ],
      "name": "setToucanContractRegistry",
      "outputs": [],
      "stateMutability": "nonpayable",
      "type": "function"
    },
    {
      "inputs": [
        {
          "internalType": "bytes4",
          "name": "interfaceId",
          "type": "bytes4"
        }
      ],
      "name": "supportsInterface",
      "outputs": [
        {
          "internalType": "bool",
          "name": "",
          "type": "bool"
        }
      ],
      "stateMutability": "view",
      "type": "function"
    },
    {
      "inputs": [],
      "name": "symbol",
      "outputs": [
        {
          "internalType": "string",
          "name": "",
          "type": "string"
        }
      ],
      "stateMutability": "view",
      "type": "function"
    },
    {
      "inputs": [
        {
          "internalType": "uint256",
          "name": "tokenId",
          "type": "uint256"
        }
      ],
      "name": "tokenURI",
      "outputs": [
        {
          "internalType": "string",
          "name": "",
          "type": "string"
        }
      ],
      "stateMutability": "view",
      "type": "function"
    },
    {
      "inputs": [],
      "name": "totalSupply",
      "outputs": [
        {
          "internalType": "uint128",
          "name": "",
          "type": "uint128"
        }
      ],
      "stateMutability": "view",
      "type": "function"
    },
    {
      "inputs": [
        {
          "internalType": "address",
          "name": "from",
          "type": "address"
        },
        {
          "internalType": "address",
          "name": "to",
          "type": "address"
        },
        {
          "internalType": "uint256",
          "name": "tokenId",
          "type": "uint256"
        }
      ],
      "name": "transferFrom",
      "outputs": [],
      "stateMutability": "nonpayable",
      "type": "function"
    },
    {
      "inputs": [
        {
          "internalType": "address",
          "name": "newOwner",
          "type": "address"
        }
      ],
      "name": "transferOwnership",
      "outputs": [],
      "stateMutability": "nonpayable",
      "type": "function"
    },
    {
      "inputs": [],
      "name": "unpause",
      "outputs": [],
      "stateMutability": "nonpayable",
      "type": "function"
    },
    {
      "inputs": [
        {
          "internalType": "uint256",
          "name": "tokenId",
          "type": "uint256"
        },
        {
          "internalType": "address",
          "name": "beneficiary",
          "type": "address"
        }
      ],
      "name": "updateBeneficiary",
      "outputs": [],
      "stateMutability": "nonpayable",
      "type": "function"
    },
    {
      "inputs": [
        {
          "internalType": "uint256",
          "name": "tokenId",
          "type": "uint256"
        },
        {
          "internalType": "string",
          "name": "newStandard",
          "type": "string"
        },
        {
          "internalType": "string",
          "name": "newMethodology",
          "type": "string"
        },
        {
          "internalType": "string",
          "name": "newRegion",
          "type": "string"
        },
        {
          "internalType": "string",
          "name": "newStorageMethod",
          "type": "string"
        },
        {
          "internalType": "string",
          "name": "newMethod",
          "type": "string"
        },
        {
          "internalType": "string",
          "name": "newEmissionType",
          "type": "string"
        },
        {
          "internalType": "string",
          "name": "newCategory",
          "type": "string"
        },
        {
          "internalType": "string",
          "name": "newUri",
          "type": "string"
        },
        {
          "internalType": "address",
          "name": "beneficiary",
          "type": "address"
        }
      ],
      "name": "updateProject",
      "outputs": [],
      "stateMutability": "nonpayable",
      "type": "function"
    },
    {
      "inputs": [
        {
          "internalType": "uint256",
          "name": "tokenId",
          "type": "uint256"
        },
        {
          "internalType": "string",
          "name": "newProjectId",
          "type": "string"
        }
      ],
      "name": "updateProjectId",
      "outputs": [],
      "stateMutability": "nonpayable",
      "type": "function"
    },
    {
      "inputs": [
        {
          "internalType": "address",
          "name": "newImplementation",
          "type": "address"
        }
      ],
      "name": "upgradeTo",
      "outputs": [],
      "stateMutability": "nonpayable",
      "type": "function"
    },
    {
      "inputs": [
        {
          "internalType": "address",
          "name": "newImplementation",
          "type": "address"
        },
        {
          "internalType": "bytes",
          "name": "data",
          "type": "bytes"
        }
      ],
      "name": "upgradeToAndCall",
      "outputs": [],
      "stateMutability": "payable",
      "type": "function"
    },
    {
      "inputs": [
        {
          "internalType": "uint256",
          "name": "",
          "type": "uint256"
        }
      ],
      "name": "validProjectTokenIds",
      "outputs": [
        {
          "internalType": "bool",
          "name": "",
          "type": "bool"
        }
      ],
      "stateMutability": "view",
      "type": "function"
    }
  ],
  "numDeployments": 1,
  "solcInputHash": "3a1da93ad758b1f5ef658ad85e08024f",
  "bytecode": "0x60a0604052306080523480156200001557600080fd5b506200002062000026565b62000156565b6200003260ff62000035565b50565b60008054610100900460ff1615620000ce578160ff1660011480156200006e57506200006c306200014760201b62002bfc1760201c565b155b620000c65760405162461bcd60e51b815260206004820152602e602482015260008051602062004ebd83398151915260448201526d191e481a5b9a5d1a585b1a5e995960921b60648201526084015b60405180910390fd5b506000919050565b60005460ff8084169116106200012d5760405162461bcd60e51b815260206004820152602e602482015260008051602062004ebd83398151915260448201526d191e481a5b9a5d1a585b1a5e995960921b6064820152608401620000bd565b506000805460ff191660ff92909216919091179055600190565b6001600160a01b03163b151590565b608051614d2f6200018e60003960008181611086015281816110c6015281816118aa015281816118ea0152611c3b0152614d2f6000f3fe6080604052600436106102ae5760003560e01c80636352211e11610175578063a22cb465116100dc578063dfe7ce5f11610095578063eb85f4d31161006f578063eb85f4d3146108cc578063ec87621c14610907578063f2fde38b14610929578063ffa1ad741461094957600080fd5b8063dfe7ce5f14610843578063e882e37b14610863578063e985e9c51461088357600080fd5b8063a22cb46514610783578063abf410e5146107a3578063b88d4fde146107c3578063bac0dd35146107e3578063c87b56dd14610803578063d547741f1461082357600080fd5b80638456cb591161012e5780638456cb59146106d05780638903f70c146106e55780638da5cb5b1461071b57806391d148541461073957806395d89b4114610759578063a217fddf1461076e57600080fd5b80636352211e1461063c5780636c0360eb1461065c5780636ca0b0d71461067157806370a0823114610686578063715018a6146106a65780638129fc1c146106bb57600080fd5b8063365fe85d116102195780634f1ef286116101d25780634f1ef2861461059c57806351d8cff6146105af57806352d1902d146105cf57806355f804b3146105e45780635873f998146106045780635c975abb1461062457600080fd5b8063365fe85d146104ba5780633e8eb5a4146104ea5780633f4ba83a1461050a57806342842e0e1461051f57806347e316861461053f5780634957f0e11461056c57600080fd5b806323b872dd1161026b57806323b872dd146103d1578063248a9ca3146103f15780632a31e837146104225780632f2ff15d1461045a57806336568abe1461047a5780633659cfe61461049a57600080fd5b806301ffc9a7146102b357806306fdde03146102e8578063081812fc1461030a578063095ea7b31461034257806310dda6711461036457806318160ddd14610392575b600080fd5b3480156102bf57600080fd5b506102d36102ce366004613ebe565b61097a565b60405190151581526020015b60405180910390f35b3480156102f457600080fd5b506102fd6109a5565b6040516102df9190613f33565b34801561031657600080fd5b5061032a610325366004613f46565b610a37565b6040516001600160a01b0390911681526020016102df565b34801561034e57600080fd5b5061036261035d366004613f76565b610ac4565b005b34801561037057600080fd5b5061038461037f366004614043565b610bd9565b6040519081526020016102df565b34801561039e57600080fd5b506065546103b990600160801b90046001600160801b031681565b6040516001600160801b0390911681526020016102df565b3480156103dd57600080fd5b506103626103ec3660046141d8565b610fa7565b3480156103fd57600080fd5b5061038461040c366004613f46565b6000908152610102602052604090206001015490565b34801561042e57600080fd5b5061038461043d366004614214565b8051602081830181018051606b8252928201919093012091525481565b34801561046657600080fd5b50610362610475366004614249565b610fd8565b34801561048657600080fd5b50610362610495366004614249565b610ffe565b3480156104a657600080fd5b506103626104b5366004614275565b61107c565b3480156104c657600080fd5b506102d36104d5366004613f46565b6000908152606a602052604090205460ff1690565b3480156104f657600080fd5b50610362610505366004614249565b61115b565b34801561051657600080fd5b5061036261126f565b34801561052b57600080fd5b5061036261053a3660046141d8565b6112d0565b34801561054b57600080fd5b5061055f61055a366004613f46565b6112eb565b6040516102df9190614290565b34801561057857600080fd5b506102d3610587366004613f46565b606a6020526000908152604090205460ff1681565b6103626105aa3660046143c4565b6118a0565b3480156105bb57600080fd5b506103626105ca366004614412565b61196c565b3480156105db57600080fd5b50610384611c2e565b3480156105f057600080fd5b506103626105ff366004614214565b611ce1565b34801561061057600080fd5b5061036261061f366004613f46565b611d1e565b34801561063057600080fd5b5060d05460ff166102d3565b34801561064857600080fd5b5061032a610657366004613f46565b611e8f565b34801561066857600080fd5b506102fd611f06565b34801561067d57600080fd5b50610384600181565b34801561069257600080fd5b506103846106a1366004614275565b611f94565b3480156106b257600080fd5b5061036261201b565b3480156106c757600080fd5b50610362612051565b3480156106dc57600080fd5b50610362612150565b3480156106f157600080fd5b50610705610700366004613f46565b6121b1565b6040516102df9a99989796959493929190614443565b34801561072757600080fd5b50609e546001600160a01b031661032a565b34801561074557600080fd5b506102d3610754366004614249565b6126ce565b34801561076557600080fd5b506102fd6126fa565b34801561077a57600080fd5b50610384600081565b34801561078f57600080fd5b5061036261079e366004614511565b612709565b3480156107af57600080fd5b5060665461032a906001600160a01b031681565b3480156107cf57600080fd5b506103626107de36600461454d565b612714565b3480156107ef57600080fd5b506065546103b9906001600160801b031681565b34801561080f57600080fd5b506102fd61081e366004613f46565b61274c565b34801561082f57600080fd5b5061036261083e366004614249565b6128b8565b34801561084f57600080fd5b5061036261085e3660046145b5565b6128de565b34801561086f57600080fd5b5061036261087e366004614275565b612b18565b34801561088f57600080fd5b506102d361089e366004614711565b6001600160a01b03918216600090815260716020908152604080832093909416825291909152205460ff1690565b3480156108d857600080fd5b506102d36108e7366004614214565b805160208183018101805160698252928201919093012091525460ff1681565b34801561091357600080fd5b50610384600080516020614cb383398151915281565b34801561093557600080fd5b50610362610944366004614275565b612b64565b34801561095557600080fd5b506102fd60405180604001604052806005815260200164189718971960d91b81525081565b60006001600160e01b03198216637965db0b60e01b148061099f575061099f82612c0b565b92915050565b6060606c80546109b49061473b565b80601f01602080910402602001604051908101604052809291908181526020018280546109e09061473b565b8015610a2d5780601f10610a0257610100808354040283529160200191610a2d565b820191906000526020600020905b815481529060010190602001808311610a1057829003601f168201915b5050505050905090565b6000610a4282612c5b565b610aa85760405162461bcd60e51b815260206004820152602c60248201527f4552433732313a20617070726f76656420717565727920666f72206e6f6e657860448201526b34b9ba32b73a103a37b5b2b760a11b60648201526084015b60405180910390fd5b506000908152607060205260409020546001600160a01b031690565b6000610acf82611e8f565b9050806001600160a01b0316836001600160a01b031603610b3c5760405162461bcd60e51b815260206004820152602160248201527f4552433732313a20617070726f76616c20746f2063757272656e74206f776e656044820152603960f91b6064820152608401610a9f565b336001600160a01b0382161480610b585750610b58813361089e565b610bca5760405162461bcd60e51b815260206004820152603860248201527f4552433732313a20617070726f76652063616c6c6572206973206e6f74206f7760448201527f6e6572206e6f7220617070726f76656420666f7220616c6c00000000000000006064820152608401610a9f565b610bd48383612c78565b505050565b6000610bf3600080516020614cb3833981519152336126ce565b80610c17575033610c0c609e546001600160a01b031690565b6001600160a01b0316145b610c335760405162461bcd60e51b8152600401610a9f90614775565b60d05460ff1615610c565760405162461bcd60e51b8152600401610a9f906147ac565b8a51600003610ca75760405162461bcd60e51b815260206004820152601960248201527f50726f6a65637449642063616e6e6f7420626520656d707479000000000000006044820152606401610a9f565b60698b604051610cb791906147d6565b9081526040519081900360200190205460ff1615610d105760405162461bcd60e51b815260206004820152601660248201527550726f6a65637420616c72656164792065786973747360501b6044820152606401610a9f565b600160698c604051610d2291906147d6565b90815260408051918290036020908101909220805493151560ff19948516179055606580546001600160801b038082166001908101808316600160801b94859004841683019093169093026fffffffffffffffffffffffffffffffff1916919091179092556000818152606a909452919092208054909316909117909155610daa8d82612ce6565b60008181526068602090815260409091208d51610dc9928f0190613dd9565b5060008181526068602090815260409091208c51610def926001909201918e0190613dd9565b5060008181526068602090815260409091208b51610e15926002909201918d0190613dd9565b5060008181526068602090815260409091208a51610e3b926003909201918c0190613dd9565b5060008181526068602090815260409091208951610e61926004909201918b0190613dd9565b5060008181526068602090815260409091208851610e87926005909201918a0190613dd9565b5060008181526068602090815260409091208751610ead92600690920191890190613dd9565b5060008181526068602090815260409091208651610ed392600790920191880190613dd9565b5060008181526068602090815260409091208551610ef992600890920191870190613dd9565b506000818152606860205260409081902060090180546001600160a01b0386166001600160a01b0319909116179055517fb6c14e0fdc5fdfaea1cc5671e7ec0cee1c83aafdee14c1811fc2837ad4687a8690610f6c908f9084906001600160a01b03929092168252602082015260400190565b60405180910390a180606b8d604051610f8591906147d6565b9081526040519081900360200190205590505b9b9a5050505050505050505050565b610fb13382612e19565b610fcd5760405162461bcd60e51b8152600401610a9f906147f2565b610bd4838383612f02565b60008281526101026020526040902060010154610ff48161309e565b610bd483836130a8565b6001600160a01b038116331461106e5760405162461bcd60e51b815260206004820152602f60248201527f416363657373436f6e74726f6c3a2063616e206f6e6c792072656e6f756e636560448201526e103937b632b9903337b91039b2b63360891b6064820152608401610a9f565b611078828261312f565b5050565b6001600160a01b037f00000000000000000000000000000000000000000000000000000000000000001630036110c45760405162461bcd60e51b8152600401610a9f90614843565b7f00000000000000000000000000000000000000000000000000000000000000006001600160a01b031661110d600080516020614c93833981519152546001600160a01b031690565b6001600160a01b0316146111335760405162461bcd60e51b8152600401610a9f9061488f565b61113c81613197565b60408051600080825260208201909252611158918391906131c1565b50565b611173600080516020614cb3833981519152336126ce565b8061119757503361118c609e546001600160a01b031690565b6001600160a01b0316145b6111b35760405162461bcd60e51b8152600401610a9f90614775565b60d05460ff16156111d65760405162461bcd60e51b8152600401610a9f906147ac565b6111df82612c5b565b6111fb5760405162461bcd60e51b8152600401610a9f906148db565b60008281526068602090815260409182902060090180546001600160a01b031981166001600160a01b0386811691821790935584519290911680835292820152909184917ff585da3452445cd066854ce9c4f3306e8deddd1d571e840b1dddaa1f3d4de53c910160405180910390a2505050565b6066546001600160a01b031661128d609e546001600160a01b031690565b6001600160a01b0382163314806112ac57506001600160a01b03811633145b6112c85760405162461bcd60e51b8152600401610a9f9061490b565b61107861332c565b610bd483838360405180602001604052806000815250612714565b61134a60405180610140016040528060608152602001606081526020016060815260200160608152602001606081526020016060815260200160608152602001606081526020016060815260200160006001600160a01b031681525090565b60008281526068602052604090819020815161014081019092528054829082906113739061473b565b80601f016020809104026020016040519081016040528092919081815260200182805461139f9061473b565b80156113ec5780601f106113c1576101008083540402835291602001916113ec565b820191906000526020600020905b8154815290600101906020018083116113cf57829003601f168201915b505050505081526020016001820180546114059061473b565b80601f01602080910402602001604051908101604052809291908181526020018280546114319061473b565b801561147e5780601f106114535761010080835404028352916020019161147e565b820191906000526020600020905b81548152906001019060200180831161146157829003601f168201915b505050505081526020016002820180546114979061473b565b80601f01602080910402602001604051908101604052809291908181526020018280546114c39061473b565b80156115105780601f106114e557610100808354040283529160200191611510565b820191906000526020600020905b8154815290600101906020018083116114f357829003601f168201915b505050505081526020016003820180546115299061473b565b80601f01602080910402602001604051908101604052809291908181526020018280546115559061473b565b80156115a25780601f10611577576101008083540402835291602001916115a2565b820191906000526020600020905b81548152906001019060200180831161158557829003601f168201915b505050505081526020016004820180546115bb9061473b565b80601f01602080910402602001604051908101604052809291908181526020018280546115e79061473b565b80156116345780601f1061160957610100808354040283529160200191611634565b820191906000526020600020905b81548152906001019060200180831161161757829003601f168201915b5050505050815260200160058201805461164d9061473b565b80601f01602080910402602001604051908101604052809291908181526020018280546116799061473b565b80156116c65780601f1061169b576101008083540402835291602001916116c6565b820191906000526020600020905b8154815290600101906020018083116116a957829003601f168201915b505050505081526020016006820180546116df9061473b565b80601f016020809104026020016040519081016040528092919081815260200182805461170b9061473b565b80156117585780601f1061172d57610100808354040283529160200191611758565b820191906000526020600020905b81548152906001019060200180831161173b57829003601f168201915b505050505081526020016007820180546117719061473b565b80601f016020809104026020016040519081016040528092919081815260200182805461179d9061473b565b80156117ea5780601f106117bf576101008083540402835291602001916117ea565b820191906000526020600020905b8154815290600101906020018083116117cd57829003601f168201915b505050505081526020016008820180546118039061473b565b80601f016020809104026020016040519081016040528092919081815260200182805461182f9061473b565b801561187c5780601f106118515761010080835404028352916020019161187c565b820191906000526020600020905b81548152906001019060200180831161185f57829003601f168201915b5050509183525050600991909101546001600160a01b031660209091015292915050565b6001600160a01b037f00000000000000000000000000000000000000000000000000000000000000001630036118e85760405162461bcd60e51b8152600401610a9f90614843565b7f00000000000000000000000000000000000000000000000000000000000000006001600160a01b0316611931600080516020614c93833981519152546001600160a01b031690565b6001600160a01b0316146119575760405162461bcd60e51b8152600401610a9f9061488f565b61196082613197565b611078828260016131c1565b611984600080516020614cb3833981519152336126ce565b806119a857503361199d609e546001600160a01b031690565b6001600160a01b0316145b6119c45760405162461bcd60e51b8152600401610a9f90614775565b60d05460ff16156119e75760405162461bcd60e51b8152600401610a9f906147ac565b6119f082612c5b565b611a0c5760405162461bcd60e51b8152600401610a9f906148db565b805115611a9c57606981604051611a2391906147d6565b9081526040519081900360200190205460ff1615611a9c5760405162461bcd60e51b815260206004820152603060248201527f43616e74206368616e67652063757272656e742070726f6a656374496420746f60448201526f20616e206578697374696e67206f6e6560801b6064820152608401610a9f565b60008281526068602052604081208054611ab59061473b565b80601f0160208091040260200160405190810160405280929190818152602001828054611ae19061473b565b8015611b2e5780601f10611b0357610100808354040283529160200191611b2e565b820191906000526020600020905b815481529060010190602001808311611b1157829003601f168201915b505050505090506000606982604051611b4791906147d6565b908152604051908190036020018120805492151560ff1990931692909217909155606b90611b769083906147d6565b908152604080516020928190038301902060009081905585815260688352208351611ba392850190613dd9565b506001606983604051611bb691906147d6565b908152604051908190036020018120805492151560ff19909316929092179091558390606b90611be79085906147d6565b90815260405160209181900382018120929092558482527f7ece4c83f6835308c521f2fa1104412ee3c8e72879d4a3ea74f2c9a5223ac99a910160405180910390a1505050565b6000306001600160a01b037f00000000000000000000000000000000000000000000000000000000000000001614611cce5760405162461bcd60e51b815260206004820152603860248201527f555550535570677261646561626c653a206d757374206e6f742062652063616c60448201527f6c6564207468726f7567682064656c656761746563616c6c00000000000000006064820152608401610a9f565b50600080516020614c9383398151915290565b609e546001600160a01b03163314611d0b5760405162461bcd60e51b8152600401610a9f90614950565b8051611078906067906020840190613dd9565b611d36600080516020614cb3833981519152336126ce565b80611d5a575033611d4f609e546001600160a01b031690565b6001600160a01b0316145b611d765760405162461bcd60e51b8152600401610a9f90614775565b60d05460ff1615611d995760405162461bcd60e51b8152600401610a9f906147ac565b600081815260686020526040812090611db28282613e5d565b611dc0600183016000613e5d565b611dce600283016000613e5d565b611ddc600383016000613e5d565b611dea600483016000613e5d565b611df8600583016000613e5d565b611e06600683016000613e5d565b611e14600783016000613e5d565b611e22600883016000613e5d565b5060090180546001600160a01b031916905560658054600160801b90046001600160801b0316906010611e548361499b565b82546001600160801b039182166101009390930a9283029190920219909116179055506000908152606a60205260409020805460ff19169055565b6000818152606e60205260408120546001600160a01b03168061099f5760405162461bcd60e51b815260206004820152602960248201527f4552433732313a206f776e657220717565727920666f72206e6f6e657869737460448201526832b73a103a37b5b2b760b91b6064820152608401610a9f565b60678054611f139061473b565b80601f0160208091040260200160405190810160405280929190818152602001828054611f3f9061473b565b8015611f8c5780601f10611f6157610100808354040283529160200191611f8c565b820191906000526020600020905b815481529060010190602001808311611f6f57829003601f168201915b505050505081565b60006001600160a01b038216611fff5760405162461bcd60e51b815260206004820152602a60248201527f4552433732313a2062616c616e636520717565727920666f7220746865207a65604482015269726f206164647265737360b01b6064820152608401610a9f565b506001600160a01b03166000908152606f602052604090205490565b609e546001600160a01b031633146120455760405162461bcd60e51b8152600401610a9f90614950565b61204f60006133bf565b565b600061205d6001613411565b90508015612075576000805461ff0019166101001790555b61207d61349e565b6120dd6040518060400160405280602081526020017f546f7563616e2050726f746f636f6c3a20436172626f6e2050726f6a65637473815250604051806040016040528060098152602001680544f5543414e2d43560bc1b8152506134c5565b6120e5613513565b6120ed613543565b6120f561349e565b6120fd61349e565b6121086000336130a8565b8015611158576000805461ff0019169055604051600181527f7f26b83ff96e1f2b6a682f133852f6798a09c465da95921460cefb38474024989060200160405180910390a150565b6066546001600160a01b031661216e609e546001600160a01b031690565b6001600160a01b03821633148061218d57506001600160a01b03811633145b6121a95760405162461bcd60e51b8152600401610a9f9061490b565b611078613576565b6068602052600090815260409020805481906121cc9061473b565b80601f01602080910402602001604051908101604052809291908181526020018280546121f89061473b565b80156122455780601f1061221a57610100808354040283529160200191612245565b820191906000526020600020905b81548152906001019060200180831161222857829003601f168201915b50505050509080600101805461225a9061473b565b80601f01602080910402602001604051908101604052809291908181526020018280546122869061473b565b80156122d35780601f106122a8576101008083540402835291602001916122d3565b820191906000526020600020905b8154815290600101906020018083116122b657829003601f168201915b5050505050908060020180546122e89061473b565b80601f01602080910402602001604051908101604052809291908181526020018280546123149061473b565b80156123615780601f1061233657610100808354040283529160200191612361565b820191906000526020600020905b81548152906001019060200180831161234457829003601f168201915b5050505050908060030180546123769061473b565b80601f01602080910402602001604051908101604052809291908181526020018280546123a29061473b565b80156123ef5780601f106123c4576101008083540402835291602001916123ef565b820191906000526020600020905b8154815290600101906020018083116123d257829003601f168201915b5050505050908060040180546124049061473b565b80601f01602080910402602001604051908101604052809291908181526020018280546124309061473b565b801561247d5780601f106124525761010080835404028352916020019161247d565b820191906000526020600020905b81548152906001019060200180831161246057829003601f168201915b5050505050908060050180546124929061473b565b80601f01602080910402602001604051908101604052809291908181526020018280546124be9061473b565b801561250b5780601f106124e05761010080835404028352916020019161250b565b820191906000526020600020905b8154815290600101906020018083116124ee57829003601f168201915b5050505050908060060180546125209061473b565b80601f016020809104026020016040519081016040528092919081815260200182805461254c9061473b565b80156125995780601f1061256e57610100808354040283529160200191612599565b820191906000526020600020905b81548152906001019060200180831161257c57829003601f168201915b5050505050908060070180546125ae9061473b565b80601f01602080910402602001604051908101604052809291908181526020018280546125da9061473b565b80156126275780601f106125fc57610100808354040283529160200191612627565b820191906000526020600020905b81548152906001019060200180831161260a57829003601f168201915b50505050509080600801805461263c9061473b565b80601f01602080910402602001604051908101604052809291908181526020018280546126689061473b565b80156126b55780601f1061268a576101008083540402835291602001916126b5565b820191906000526020600020905b81548152906001019060200180831161269857829003601f168201915b505050600990930154919250506001600160a01b03168a565b6000918252610102602090815260408084206001600160a01b0393909316845291905290205460ff1690565b6060606d80546109b49061473b565b6110783383836135ce565b61271e3383612e19565b61273a5760405162461bcd60e51b8152600401610a9f906147f2565b6127468484848461369c565b50505050565b606061275782612c5b565b6127bd5760405162461bcd60e51b815260206004820152603160248201527f45524337323155524953746f726167653a2055524920717565727920666f72206044820152703737b732bc34b9ba32b73a103a37b5b2b760791b6064820152608401610a9f565b600082815260686020526040812060080180546127d99061473b565b80601f01602080910402602001604051908101604052809291908181526020018280546128059061473b565b80156128525780601f1061282757610100808354040283529160200191612852565b820191906000526020600020905b81548152906001019060200180831161283557829003601f168201915b5050505050905060006128636136cf565b90508051600003612875575092915050565b8151156128a757808260405160200161288f9291906149be565b60405160208183030381529060405292505050919050565b6128b0846136de565b949350505050565b600082815261010260205260409020600101546128d48161309e565b610bd4838361312f565b6128f6600080516020614cb3833981519152336126ce565b8061291a57503361290f609e546001600160a01b031690565b6001600160a01b0316145b6129365760405162461bcd60e51b8152600401610a9f90614775565b60d05460ff16156129595760405162461bcd60e51b8152600401610a9f906147ac565b6129628a612c5b565b61297e5760405162461bcd60e51b8152600401610a9f906148db565b60008a81526068602090815260409091208a516129a3926001909201918c0190613dd9565b5060008a815260686020908152604090912089516129c9926002909201918b0190613dd9565b5060008a815260686020908152604090912088516129ef926003909201918a0190613dd9565b5060008a81526068602090815260409091208751612a1592600490920191890190613dd9565b5060008a81526068602090815260409091208651612a3b92600590920191880190613dd9565b5060008a81526068602090815260409091208551612a6192600690920191870190613dd9565b5060008a81526068602090815260409091208451612a8792600790920191860190613dd9565b5060008a81526068602090815260409091208351612aad92600890920191850190613dd9565b5060008a81526068602090815260409182902060090180546001600160a01b0319166001600160a01b03851617905590518b81527fda124279e8f8c56d142d1f8d79ba312ac54eb788b54f07b8040ff61eaf211009910160405180910390a150505050505050505050565b609e546001600160a01b03163314612b425760405162461bcd60e51b8152600401610a9f90614950565b606680546001600160a01b0319166001600160a01b0392909216919091179055565b609e546001600160a01b03163314612b8e5760405162461bcd60e51b8152600401610a9f90614950565b6001600160a01b038116612bf35760405162461bcd60e51b815260206004820152602660248201527f4f776e61626c653a206e6577206f776e657220697320746865207a65726f206160448201526564647265737360d01b6064820152608401610a9f565b611158816133bf565b6001600160a01b03163b151590565b60006001600160e01b031982166380ac58cd60e01b1480612c3c57506001600160e01b03198216635b5e139f60e01b145b8061099f57506301ffc9a760e01b6001600160e01b031983161461099f565b6000908152606e60205260409020546001600160a01b0316151590565b600081815260706020526040902080546001600160a01b0319166001600160a01b0384169081179091558190612cad82611e8f565b6001600160a01b03167f8c5be1e5ebec7d5bd14f71427d1e84f3dd0314c0f7b2291e5b200ac8c7c3b92560405160405180910390a45050565b6001600160a01b038216612d3c5760405162461bcd60e51b815260206004820181905260248201527f4552433732313a206d696e7420746f20746865207a65726f20616464726573736044820152606401610a9f565b612d4581612c5b565b15612d925760405162461bcd60e51b815260206004820152601c60248201527f4552433732313a20746f6b656e20616c7265616479206d696e746564000000006044820152606401610a9f565b6001600160a01b0382166000908152606f60205260408120805460019290612dbb9084906149ed565b90915550506000818152606e602052604080822080546001600160a01b0319166001600160a01b03861690811790915590518392907fddf252ad1be2c89b69c2b068fc378daa952ba7f163c4a11628f55a4df523b3ef908290a45050565b6000612e2482612c5b565b612e855760405162461bcd60e51b815260206004820152602c60248201527f4552433732313a206f70657261746f7220717565727920666f72206e6f6e657860448201526b34b9ba32b73a103a37b5b2b760a11b6064820152608401610a9f565b6000612e9083611e8f565b9050806001600160a01b0316846001600160a01b03161480612ed757506001600160a01b0380821660009081526071602090815260408083209388168352929052205460ff165b806128b05750836001600160a01b0316612ef084610a37565b6001600160a01b031614949350505050565b826001600160a01b0316612f1582611e8f565b6001600160a01b031614612f795760405162461bcd60e51b815260206004820152602560248201527f4552433732313a207472616e736665722066726f6d20696e636f72726563742060448201526437bbb732b960d91b6064820152608401610a9f565b6001600160a01b038216612fdb5760405162461bcd60e51b8152602060048201526024808201527f4552433732313a207472616e7366657220746f20746865207a65726f206164646044820152637265737360e01b6064820152608401610a9f565b612fe6600082612c78565b6001600160a01b0383166000908152606f6020526040812080546001929061300f908490614a05565b90915550506001600160a01b0382166000908152606f6020526040812080546001929061303d9084906149ed565b90915550506000818152606e602052604080822080546001600160a01b0319166001600160a01b0386811691821790925591518493918716917fddf252ad1be2c89b69c2b068fc378daa952ba7f163c4a11628f55a4df523b3ef91a4505050565b61115881336137a9565b6130b282826126ce565b611078576000828152610102602090815260408083206001600160a01b03851684529091529020805460ff191660011790556130eb3390565b6001600160a01b0316816001600160a01b0316837f2f8788117e7eff1d82e926ec794901d17c78024a50270940304540a733656f0d60405160405180910390a45050565b61313982826126ce565b15611078576000828152610102602090815260408083206001600160a01b0385168085529252808320805460ff1916905551339285917ff6391f5c32d9c69d2a47ea670b442974b53935d1edc7fd64eb21e047a839171b9190a45050565b609e546001600160a01b031633146111585760405162461bcd60e51b8152600401610a9f90614950565b7f4910fdfa16fed3260ed0e7147f7cc6da11a60208b5b9406d12a635614ffd91435460ff16156131f457610bd48361380d565b826001600160a01b03166352d1902d6040518163ffffffff1660e01b8152600401602060405180830381865afa92505050801561324e575060408051601f3d908101601f1916820190925261324b91810190614a1c565b60015b6132b15760405162461bcd60e51b815260206004820152602e60248201527f45524331393637557067726164653a206e657720696d706c656d656e7461746960448201526d6f6e206973206e6f74205555505360901b6064820152608401610a9f565b600080516020614c9383398151915281146133205760405162461bcd60e51b815260206004820152602960248201527f45524331393637557067726164653a20756e737570706f727465642070726f786044820152681a58589b195555525160ba1b6064820152608401610a9f565b50610bd48383836138a9565b60d05460ff166133755760405162461bcd60e51b815260206004820152601460248201527314185d5cd8589b194e881b9bdd081c185d5cd95960621b6044820152606401610a9f565b60d0805460ff191690557f5db9ee0a495bf2e6ff9c91a7834c1ba4fdd244a5e8aa4e537bd38aeae4b073aa335b6040516001600160a01b03909116815260200160405180910390a1565b609e80546001600160a01b038381166001600160a01b0319831681179093556040519116919082907f8be0079c531659141344cd1fd0a4f28419497f9722a3daafe3b4186f6b6457e090600090a35050565b60008054610100900460ff1615613458578160ff1660011480156134345750303b155b6134505760405162461bcd60e51b8152600401610a9f90614a35565b506000919050565b60005460ff80841691161061347f5760405162461bcd60e51b8152600401610a9f90614a35565b506000805460ff191660ff92909216919091179055600190565b919050565b600054610100900460ff1661204f5760405162461bcd60e51b8152600401610a9f90614a83565b600054610100900460ff166134ec5760405162461bcd60e51b8152600401610a9f90614a83565b81516134ff90606c906020850190613dd9565b508051610bd490606d906020840190613dd9565b600054610100900460ff1661353a5760405162461bcd60e51b8152600401610a9f90614a83565b61204f336133bf565b600054610100900460ff1661356a5760405162461bcd60e51b8152600401610a9f90614a83565b60d0805460ff19169055565b60d05460ff16156135995760405162461bcd60e51b8152600401610a9f906147ac565b60d0805460ff191660011790557f62e78cea01bee320cd4e420270b5ea74000d11b0c9f74754ebdbfc544b05a2586133a23390565b816001600160a01b0316836001600160a01b03160361362f5760405162461bcd60e51b815260206004820152601960248201527f4552433732313a20617070726f766520746f2063616c6c6572000000000000006044820152606401610a9f565b6001600160a01b03838116600081815260716020908152604080832094871680845294825291829020805460ff191686151590811790915591519182527f17307eab39ab6107e8899845ad3d59bd9653f200f220920489ca2b5937696c31910160405180910390a3505050565b6136a7848484612f02565b6136b3848484846138ce565b6127465760405162461bcd60e51b8152600401610a9f90614ace565b6060606780546109b49061473b565b60606136e982612c5b565b61374d5760405162461bcd60e51b815260206004820152602f60248201527f4552433732314d657461646174613a2055524920717565727920666f72206e6f60448201526e3732bc34b9ba32b73a103a37b5b2b760891b6064820152608401610a9f565b60006137576136cf565b9050600081511161377757604051806020016040528060008152506137a2565b80613781846139cf565b6040516020016137929291906149be565b6040516020818303038152906040525b9392505050565b6137b382826126ce565b611078576137cb816001600160a01b03166014613ad0565b6137d6836020613ad0565b6040516020016137e7929190614b20565b60408051601f198184030181529082905262461bcd60e51b8252610a9f91600401613f33565b6001600160a01b0381163b61387a5760405162461bcd60e51b815260206004820152602d60248201527f455243313936373a206e657720696d706c656d656e746174696f6e206973206e60448201526c1bdd08184818dbdb9d1c9858dd609a1b6064820152608401610a9f565b600080516020614c9383398151915280546001600160a01b0319166001600160a01b0392909216919091179055565b6138b283613c6c565b6000825111806138bf5750805b15610bd4576127468383613cac565b60006001600160a01b0384163b156139c457604051630a85bd0160e11b81526001600160a01b0385169063150b7a0290613912903390899088908890600401614b95565b6020604051808303816000875af192505050801561394d575060408051601f3d908101601f1916820190925261394a91810190614bd2565b60015b6139aa573d80801561397b576040519150601f19603f3d011682016040523d82523d6000602084013e613980565b606091505b5080516000036139a25760405162461bcd60e51b8152600401610a9f90614ace565b805181602001fd5b6001600160e01b031916630a85bd0160e11b1490506128b0565b506001949350505050565b6060816000036139f65750506040805180820190915260018152600360fc1b602082015290565b8160005b8115613a205780613a0a81614bef565b9150613a199050600a83614c1e565b91506139fa565b60008167ffffffffffffffff811115613a3b57613a3b613fa0565b6040519080825280601f01601f191660200182016040528015613a65576020820181803683370190505b5090505b84156128b057613a7a600183614a05565b9150613a87600a86614c32565b613a929060306149ed565b60f81b818381518110613aa757613aa7614c46565b60200101906001600160f81b031916908160001a905350613ac9600a86614c1e565b9450613a69565b60606000613adf836002614c5c565b613aea9060026149ed565b67ffffffffffffffff811115613b0257613b02613fa0565b6040519080825280601f01601f191660200182016040528015613b2c576020820181803683370190505b509050600360fc1b81600081518110613b4757613b47614c46565b60200101906001600160f81b031916908160001a905350600f60fb1b81600181518110613b7657613b76614c46565b60200101906001600160f81b031916908160001a9053506000613b9a846002614c5c565b613ba59060016149ed565b90505b6001811115613c1d576f181899199a1a9b1b9c1cb0b131b232b360811b85600f1660108110613bd957613bd9614c46565b1a60f81b828281518110613bef57613bef614c46565b60200101906001600160f81b031916908160001a90535060049490941c93613c1681614c7b565b9050613ba8565b5083156137a25760405162461bcd60e51b815260206004820181905260248201527f537472696e67733a20686578206c656e67746820696e73756666696369656e746044820152606401610a9f565b613c758161380d565b6040516001600160a01b038216907fbc7cd75a20ee27fd9adebab32041f755214dbc6bffa90cc0225b39da2e5c2d3b90600090a250565b60606001600160a01b0383163b613d145760405162461bcd60e51b815260206004820152602660248201527f416464726573733a2064656c65676174652063616c6c20746f206e6f6e2d636f6044820152651b9d1c9858dd60d21b6064820152608401610a9f565b600080846001600160a01b031684604051613d2f91906147d6565b600060405180830381855af49150503d8060008114613d6a576040519150601f19603f3d011682016040523d82523d6000602084013e613d6f565b606091505b5091509150613d978282604051806060016040528060278152602001614cd360279139613da0565b95945050505050565b60608315613daf5750816137a2565b825115613dbf5782518084602001fd5b8160405162461bcd60e51b8152600401610a9f9190613f33565b828054613de59061473b565b90600052602060002090601f016020900481019282613e075760008555613e4d565b82601f10613e2057805160ff1916838001178555613e4d565b82800160010185558215613e4d579182015b82811115613e4d578251825591602001919060010190613e32565b50613e59929150613e93565b5090565b508054613e699061473b565b6000825580601f10613e79575050565b601f01602090049060005260206000209081019061115891905b5b80821115613e595760008155600101613e94565b6001600160e01b03198116811461115857600080fd5b600060208284031215613ed057600080fd5b81356137a281613ea8565b60005b83811015613ef6578181015183820152602001613ede565b838111156127465750506000910152565b60008151808452613f1f816020860160208601613edb565b601f01601f19169290920160200192915050565b6020815260006137a26020830184613f07565b600060208284031215613f5857600080fd5b5035919050565b80356001600160a01b038116811461349957600080fd5b60008060408385031215613f8957600080fd5b613f9283613f5f565b946020939093013593505050565b634e487b7160e01b600052604160045260246000fd5b600082601f830112613fc757600080fd5b813567ffffffffffffffff80821115613fe257613fe2613fa0565b604051601f8301601f19908116603f0116810190828211818310171561400a5761400a613fa0565b8160405283815286602085880101111561402357600080fd5b836020870160208301376000602085830101528094505050505092915050565b60008060008060008060008060008060006101608c8e03121561406557600080fd5b61406e8c613f5f565b9a5067ffffffffffffffff8060208e0135111561408a57600080fd5b61409a8e60208f01358f01613fb6565b9a508060408e013511156140ad57600080fd5b6140bd8e60408f01358f01613fb6565b99508060608e013511156140d057600080fd5b6140e08e60608f01358f01613fb6565b98508060808e013511156140f357600080fd5b6141038e60808f01358f01613fb6565b97508060a08e0135111561411657600080fd5b6141268e60a08f01358f01613fb6565b96508060c08e0135111561413957600080fd5b6141498e60c08f01358f01613fb6565b95508060e08e0135111561415c57600080fd5b61416c8e60e08f01358f01613fb6565b9450806101008e0135111561418057600080fd5b6141918e6101008f01358f01613fb6565b9350806101208e013511156141a557600080fd5b506141b78d6101208e01358e01613fb6565b91506141c66101408d01613f5f565b90509295989b509295989b9093969950565b6000806000606084860312156141ed57600080fd5b6141f684613f5f565b925061420460208501613f5f565b9150604084013590509250925092565b60006020828403121561422657600080fd5b813567ffffffffffffffff81111561423d57600080fd5b6128b084828501613fb6565b6000806040838503121561425c57600080fd5b8235915061426c60208401613f5f565b90509250929050565b60006020828403121561428757600080fd5b6137a282613f5f565b60208152600082516101408060208501526142af610160850183613f07565b91506020850151601f19808685030160408701526142cd8483613f07565b935060408701519150808685030160608701526142ea8483613f07565b935060608701519150808685030160808701526143078483613f07565b935060808701519150808685030160a08701526143248483613f07565b935060a08701519150808685030160c08701526143418483613f07565b935060c08701519150808685030160e087015261435e8483613f07565b935060e0870151915061010081878603018188015261437d8584613f07565b94508088015192505061012081878603018188015261439c8584613f07565b945080880151925050506143ba828601826001600160a01b03169052565b5090949350505050565b600080604083850312156143d757600080fd5b6143e083613f5f565b9150602083013567ffffffffffffffff8111156143fc57600080fd5b61440885828601613fb6565b9150509250929050565b6000806040838503121561442557600080fd5b82359150602083013567ffffffffffffffff8111156143fc57600080fd5b60006101408083526144578184018e613f07565b9050828103602084015261446b818d613f07565b9050828103604084015261447f818c613f07565b90508281036060840152614493818b613f07565b905082810360808401526144a7818a613f07565b905082810360a08401526144bb8189613f07565b905082810360c08401526144cf8188613f07565b905082810360e08401526144e38187613f07565b90508281036101008401526144f88186613f07565b915050610f986101208301846001600160a01b03169052565b6000806040838503121561452457600080fd5b61452d83613f5f565b91506020830135801515811461454257600080fd5b809150509250929050565b6000806000806080858703121561456357600080fd5b61456c85613f5f565b935061457a60208601613f5f565b925060408501359150606085013567ffffffffffffffff81111561459d57600080fd5b6145a987828801613fb6565b91505092959194509250565b6000806000806000806000806000806101408b8d0312156145d557600080fd5b8a35995060208b013567ffffffffffffffff808211156145f457600080fd5b6146008e838f01613fb6565b9a5060408d013591508082111561461657600080fd5b6146228e838f01613fb6565b995060608d013591508082111561463857600080fd5b6146448e838f01613fb6565b985060808d013591508082111561465a57600080fd5b6146668e838f01613fb6565b975060a08d013591508082111561467c57600080fd5b6146888e838f01613fb6565b965060c08d013591508082111561469e57600080fd5b6146aa8e838f01613fb6565b955060e08d01359150808211156146c057600080fd5b6146cc8e838f01613fb6565b94506101008d01359150808211156146e357600080fd5b506146f08d828e01613fb6565b9250506147006101208c01613f5f565b90509295989b9194979a5092959850565b6000806040838503121561472457600080fd5b61472d83613f5f565b915061426c60208401613f5f565b600181811c9082168061474f57607f821691505b60208210810361476f57634e487b7160e01b600052602260045260246000fd5b50919050565b60208082526018908201527f43616c6c6572206973206e6f7420617574686f72697a65640000000000000000604082015260600190565b60208082526010908201526f14185d5cd8589b194e881c185d5cd95960821b604082015260600190565b600082516147e8818460208701613edb565b9190910192915050565b60208082526031908201527f4552433732313a207472616e736665722063616c6c6572206973206e6f74206f6040820152701ddb995c881b9bdc88185c1c1c9bdd9959607a1b606082015260800190565b6020808252602c908201527f46756e6374696f6e206d7573742062652063616c6c6564207468726f7567682060408201526b19195b1959d85d1958d85b1b60a21b606082015260800190565b6020808252602c908201527f46756e6374696f6e206d7573742062652063616c6c6564207468726f7567682060408201526b6163746976652070726f787960a01b606082015260800190565b602080825260169082015275141c9bda9958dd081b9bdd081e595d081b5a5b9d195960521b604082015260600190565b60208082526025908201527f43616c6c6572206973206e6f74207468652072656769737472792c206e6f722060408201526437bbb732b960d91b606082015260800190565b6020808252818101527f4f776e61626c653a2063616c6c6572206973206e6f7420746865206f776e6572604082015260600190565b634e487b7160e01b600052601160045260246000fd5b60006001600160801b038216806149b4576149b4614985565b6000190192915050565b600083516149d0818460208801613edb565b8351908301906149e4818360208801613edb565b01949350505050565b60008219821115614a0057614a00614985565b500190565b600082821015614a1757614a17614985565b500390565b600060208284031215614a2e57600080fd5b5051919050565b6020808252602e908201527f496e697469616c697a61626c653a20636f6e747261637420697320616c72656160408201526d191e481a5b9a5d1a585b1a5e995960921b606082015260800190565b6020808252602b908201527f496e697469616c697a61626c653a20636f6e7472616374206973206e6f74206960408201526a6e697469616c697a696e6760a81b606082015260800190565b60208082526032908201527f4552433732313a207472616e7366657220746f206e6f6e20455243373231526560408201527131b2b4bb32b91034b6b83632b6b2b73a32b960711b606082015260800190565b7f416363657373436f6e74726f6c3a206163636f756e7420000000000000000000815260008351614b58816017850160208801613edb565b7001034b99036b4b9b9b4b733903937b6329607d1b6017918401918201528351614b89816028840160208801613edb565b01602801949350505050565b6001600160a01b0385811682528416602082015260408101839052608060608201819052600090614bc890830184613f07565b9695505050505050565b600060208284031215614be457600080fd5b81516137a281613ea8565b600060018201614c0157614c01614985565b5060010190565b634e487b7160e01b600052601260045260246000fd5b600082614c2d57614c2d614c08565b500490565b600082614c4157614c41614c08565b500690565b634e487b7160e01b600052603260045260246000fd5b6000816000190483118215151615614c7657614c76614985565b500290565b600081614c8a57614c8a614985565b50600019019056fe360894a13ba1a3210667c828492db98dca3e2076cc3735a920a3ca505d382bbc241ecf16d79d0f8dbfb92cbc07fe17840425976cf0667f022fe9877caa831b08416464726573733a206c6f772d6c6576656c2064656c65676174652063616c6c206661696c6564a2646970667358221220ac9baec3a91045026851316a162306115c444a3a472ddb176fc2a89dc952030d64736f6c634300080e0033496e697469616c697a61626c653a20636f6e747261637420697320616c726561",
  "devdoc": {
    "details": "Each project can have up to n vintages, with data stored in the `CarbonProjectVintages` contract. `vintageTokenId`s are mapped to `projectTokenId`s via `pvToTokenId` in the vintage contract.",
    "kind": "dev",
    "methods": {
      "addNewProject(address,string,string,string,string,string,string,string,string,string,address)": {
        "details": "Projects can be added by data-managers"
      },
      "approve(address,uint256)": {
        "details": "See {IERC721-approve}."
      },
      "balanceOf(address)": {
        "details": "See {IERC721-balanceOf}."
      },
      "constructor": {
        "custom:oz-upgrades-unsafe-allow": "constructor"
      },
      "getApproved(uint256)": {
        "details": "See {IERC721-getApproved}."
      },
      "getProjectDataByTokenId(uint256)": {
        "details": "retrieve all data from ProjectData struct"
      },
      "getRoleAdmin(bytes32)": {
        "details": "Returns the admin role that controls `role`. See {grantRole} and {revokeRole}. To change a role's admin, use {_setRoleAdmin}."
      },
      "grantRole(bytes32,address)": {
        "details": "Grants `role` to `account`. If `account` had not been already granted `role`, emits a {RoleGranted} event. Requirements: - the caller must have ``role``'s admin role."
      },
      "hasRole(bytes32,address)": {
        "details": "Returns `true` if `account` has been granted `role`."
      },
      "isApprovedForAll(address,address)": {
        "details": "See {IERC721-isApprovedForAll}."
      },
      "isValidProjectTokenId(uint256)": {
        "details": "Function used by the utility function `checkProjectTokenExists`"
      },
      "name()": {
        "details": "See {IERC721Metadata-name}."
      },
      "owner()": {
        "details": "Returns the address of the current owner."
      },
      "ownerOf(uint256)": {
        "details": "See {IERC721-ownerOf}."
      },
      "pause()": {
        "details": "wraps _pause(), only Admin"
      },
      "paused()": {
        "details": "Returns true if the contract is paused, and false otherwise."
      },
      "proxiableUUID()": {
        "details": "Implementation of the ERC1822 {proxiableUUID} function. This returns the storage slot used by the implementation. It is used to validate that the this implementation remains valid after an upgrade. IMPORTANT: A proxy pointing at a proxiable contract should not be considered proxiable itself, because this risks bricking a proxy that upgrades to it, by delegating to itself until out of gas. Thus it is critical that this function revert if invoked through a proxy. This is guaranteed by the `notDelegated` modifier."
      },
      "removeProject(uint256)": {
        "details": "Removes a project and corresponding data, sets projectTokenId invalid"
      },
      "renounceOwnership()": {
        "details": "Leaves the contract without owner. It will not be possible to call `onlyOwner` functions anymore. Can only be called by the current owner. NOTE: Renouncing ownership will leave the contract without an owner, thereby removing any functionality that is only available to the owner."
      },
      "renounceRole(bytes32,address)": {
        "details": "Revokes `role` from the calling account. Roles are often managed via {grantRole} and {revokeRole}: this function's purpose is to provide a mechanism for accounts to lose their privileges if they are compromised (such as when a trusted device is misplaced). If the calling account had been revoked `role`, emits a {RoleRevoked} event. Requirements: - the caller must be `account`."
      },
      "revokeRole(bytes32,address)": {
        "details": "Revokes `role` from `account`. If `account` had been granted `role`, emits a {RoleRevoked} event. Requirements: - the caller must have ``role``'s admin role."
      },
      "safeTransferFrom(address,address,uint256)": {
        "details": "See {IERC721-safeTransferFrom}."
      },
      "safeTransferFrom(address,address,uint256,bytes)": {
        "details": "See {IERC721-safeTransferFrom}."
      },
      "setApprovalForAll(address,bool)": {
        "details": "See {IERC721-setApprovalForAll}."
      },
      "symbol()": {
        "details": "See {IERC721Metadata-symbol}."
      },
      "tokenURI(uint256)": {
        "details": "Returns the Uniform Resource Identifier (URI) for `tokenId` token. based on the ERC721URIStorage implementation"
      },
      "transferFrom(address,address,uint256)": {
        "details": "See {IERC721-transferFrom}."
      },
      "transferOwnership(address)": {
        "details": "Transfers ownership of the contract to a new account (`newOwner`). Can only be called by the current owner."
      },
      "unpause()": {
        "details": "unpause the system, wraps _unpause(), only Admin"
      },
      "updateProject(uint256,string,string,string,string,string,string,string,string,address)": {
        "details": "Projects can be updated by data-managers"
      },
      "updateProjectId(uint256,string)": {
        "details": "Projects and their projectId's must be unique, changing them must be handled carefully"
      },
      "upgradeTo(address)": {
        "details": "Upgrade the implementation of the proxy to `newImplementation`. Calls {_authorizeUpgrade}. Emits an {Upgraded} event."
      },
      "upgradeToAndCall(address,bytes)": {
        "details": "Upgrade the implementation of the proxy to `newImplementation`, and subsequently execute the function call encoded in `data`. Calls {_authorizeUpgrade}. Emits an {Upgraded} event."
      }
    },
    "stateVariables": {
      "MANAGER_ROLE": {
        "details": "All roles related to accessing this contract"
      },
      "VERSION": {
        "details": "Version-related parameters. VERSION keeps track of production releases. VERSION_RELEASE_CANDIDATE keeps track of iterations of a VERSION in our staging environment."
      }
    },
    "version": 1
  },
  "userdoc": {
    "kind": "user",
    "methods": {
      "addNewProject(address,string,string,string,string,string,string,string,string,string,address)": {
        "notice": "Adds a new carbon project along with attributes/data"
      },
      "pause()": {
        "notice": "Emergency function to disable contract's core functionality"
      },
      "updateBeneficiary(uint256,address)": {
        "notice": "Updates the project beneficiary"
      },
      "updateProject(uint256,string,string,string,string,string,string,string,string,address)": {
        "notice": "Updates and existing carbon project"
      }
    },
    "notice": "The CarbonProjects contract stores carbon project-specific data The data is stored in structs via ERC721 tokens Most contracts in the protocol query the data stored here The attributes in the Project-NFTs are constant over all vintages of the project",
    "version": 1
  },
  "storageLayout": {
    "storage": [
      {
        "astId": 2390,
        "contract": "contracts/CarbonProjects.sol:CarbonProjects",
        "label": "_initialized",
        "offset": 0,
        "slot": "0",
        "type": "t_uint8"
      },
      {
        "astId": 2393,
        "contract": "contracts/CarbonProjects.sol:CarbonProjects",
        "label": "_initializing",
        "offset": 1,
        "slot": "0",
        "type": "t_bool"
      },
      {
        "astId": 5494,
        "contract": "contracts/CarbonProjects.sol:CarbonProjects",
        "label": "__gap",
        "offset": 0,
        "slot": "1",
        "type": "t_array(t_uint256)50_storage"
      },
      {
        "astId": 5801,
        "contract": "contracts/CarbonProjects.sol:CarbonProjects",
        "label": "__gap",
        "offset": 0,
        "slot": "51",
        "type": "t_array(t_uint256)50_storage"
      },
      {
        "astId": 11477,
        "contract": "contracts/CarbonProjects.sol:CarbonProjects",
        "label": "projectTokenCounter",
        "offset": 0,
        "slot": "101",
        "type": "t_uint128"
      },
      {
        "astId": 11479,
        "contract": "contracts/CarbonProjects.sol:CarbonProjects",
        "label": "totalSupply",
        "offset": 16,
        "slot": "101",
        "type": "t_uint128"
      },
      {
        "astId": 11481,
        "contract": "contracts/CarbonProjects.sol:CarbonProjects",
        "label": "contractRegistry",
        "offset": 0,
        "slot": "102",
        "type": "t_address"
      },
      {
        "astId": 11483,
        "contract": "contracts/CarbonProjects.sol:CarbonProjects",
        "label": "baseURI",
        "offset": 0,
        "slot": "103",
        "type": "t_string_storage"
      },
      {
        "astId": 11489,
        "contract": "contracts/CarbonProjects.sol:CarbonProjects",
        "label": "projectData",
        "offset": 0,
        "slot": "104",
        "type": "t_mapping(t_uint256,t_struct(ProjectData)10203_storage)"
      },
      {
        "astId": 11494,
        "contract": "contracts/CarbonProjects.sol:CarbonProjects",
        "label": "projectIds",
        "offset": 0,
        "slot": "105",
        "type": "t_mapping(t_string_memory_ptr,t_bool)"
      },
      {
        "astId": 11499,
        "contract": "contracts/CarbonProjects.sol:CarbonProjects",
        "label": "validProjectTokenIds",
        "offset": 0,
        "slot": "106",
        "type": "t_mapping(t_uint256,t_bool)"
      },
      {
        "astId": 11504,
        "contract": "contracts/CarbonProjects.sol:CarbonProjects",
        "label": "pidToTokenId",
        "offset": 0,
        "slot": "107",
        "type": "t_mapping(t_string_memory_ptr,t_uint256)"
      },
      {
        "astId": 3798,
        "contract": "contracts/CarbonProjects.sol:CarbonProjects",
        "label": "_name",
        "offset": 0,
        "slot": "108",
        "type": "t_string_storage"
      },
      {
        "astId": 3800,
        "contract": "contracts/CarbonProjects.sol:CarbonProjects",
        "label": "_symbol",
        "offset": 0,
        "slot": "109",
        "type": "t_string_storage"
      },
      {
        "astId": 3804,
        "contract": "contracts/CarbonProjects.sol:CarbonProjects",
        "label": "_owners",
        "offset": 0,
        "slot": "110",
        "type": "t_mapping(t_uint256,t_address)"
      },
      {
        "astId": 3808,
        "contract": "contracts/CarbonProjects.sol:CarbonProjects",
        "label": "_balances",
        "offset": 0,
        "slot": "111",
        "type": "t_mapping(t_address,t_uint256)"
      },
      {
        "astId": 3812,
        "contract": "contracts/CarbonProjects.sol:CarbonProjects",
        "label": "_tokenApprovals",
        "offset": 0,
        "slot": "112",
        "type": "t_mapping(t_uint256,t_address)"
      },
      {
        "astId": 3818,
        "contract": "contracts/CarbonProjects.sol:CarbonProjects",
        "label": "_operatorApprovals",
        "offset": 0,
        "slot": "113",
        "type": "t_mapping(t_address,t_mapping(t_address,t_bool))"
      },
      {
        "astId": 4659,
        "contract": "contracts/CarbonProjects.sol:CarbonProjects",
        "label": "__gap",
        "offset": 0,
        "slot": "114",
        "type": "t_array(t_uint256)44_storage"
      },
      {
        "astId": 1881,
        "contract": "contracts/CarbonProjects.sol:CarbonProjects",
        "label": "_owner",
        "offset": 0,
        "slot": "158",
        "type": "t_address"
      },
      {
        "astId": 1993,
        "contract": "contracts/CarbonProjects.sol:CarbonProjects",
        "label": "__gap",
        "offset": 0,
        "slot": "159",
        "type": "t_array(t_uint256)49_storage"
      },
      {
        "astId": 2682,
        "contract": "contracts/CarbonProjects.sol:CarbonProjects",
        "label": "_paused",
        "offset": 0,
        "slot": "208",
        "type": "t_bool"
      },
      {
        "astId": 2771,
        "contract": "contracts/CarbonProjects.sol:CarbonProjects",
        "label": "__gap",
        "offset": 0,
        "slot": "209",
        "type": "t_array(t_uint256)49_storage"
      },
      {
        "astId": 1497,
        "contract": "contracts/CarbonProjects.sol:CarbonProjects",
        "label": "_roles",
        "offset": 0,
        "slot": "258",
        "type": "t_mapping(t_bytes32,t_struct(RoleData)1492_storage)"
      },
      {
        "astId": 1796,
        "contract": "contracts/CarbonProjects.sol:CarbonProjects",
        "label": "__gap",
        "offset": 0,
        "slot": "259",
        "type": "t_array(t_uint256)49_storage"
      },
      {
        "astId": 2372,
        "contract": "contracts/CarbonProjects.sol:CarbonProjects",
        "label": "__gap",
        "offset": 0,
        "slot": "308",
        "type": "t_array(t_uint256)50_storage"
      },
      {
        "astId": 2660,
        "contract": "contracts/CarbonProjects.sol:CarbonProjects",
        "label": "__gap",
        "offset": 0,
        "slot": "358",
        "type": "t_array(t_uint256)50_storage"
      }
    ],
    "types": {
      "t_address": {
        "encoding": "inplace",
        "label": "address",
        "numberOfBytes": "20"
      },
      "t_array(t_uint256)44_storage": {
        "base": "t_uint256",
        "encoding": "inplace",
        "label": "uint256[44]",
        "numberOfBytes": "1408"
      },
      "t_array(t_uint256)49_storage": {
        "base": "t_uint256",
        "encoding": "inplace",
        "label": "uint256[49]",
        "numberOfBytes": "1568"
      },
      "t_array(t_uint256)50_storage": {
        "base": "t_uint256",
        "encoding": "inplace",
        "label": "uint256[50]",
        "numberOfBytes": "1600"
      },
      "t_bool": {
        "encoding": "inplace",
        "label": "bool",
        "numberOfBytes": "1"
      },
      "t_bytes32": {
        "encoding": "inplace",
        "label": "bytes32",
        "numberOfBytes": "32"
      },
      "t_mapping(t_address,t_bool)": {
        "encoding": "mapping",
        "key": "t_address",
        "label": "mapping(address => bool)",
        "numberOfBytes": "32",
        "value": "t_bool"
      },
      "t_mapping(t_address,t_mapping(t_address,t_bool))": {
        "encoding": "mapping",
        "key": "t_address",
        "label": "mapping(address => mapping(address => bool))",
        "numberOfBytes": "32",
        "value": "t_mapping(t_address,t_bool)"
      },
      "t_mapping(t_address,t_uint256)": {
        "encoding": "mapping",
        "key": "t_address",
        "label": "mapping(address => uint256)",
        "numberOfBytes": "32",
        "value": "t_uint256"
      },
      "t_mapping(t_bytes32,t_struct(RoleData)1492_storage)": {
        "encoding": "mapping",
        "key": "t_bytes32",
        "label": "mapping(bytes32 => struct AccessControlUpgradeable.RoleData)",
        "numberOfBytes": "32",
        "value": "t_struct(RoleData)1492_storage"
      },
      "t_mapping(t_string_memory_ptr,t_bool)": {
        "encoding": "mapping",
        "key": "t_string_memory_ptr",
        "label": "mapping(string => bool)",
        "numberOfBytes": "32",
        "value": "t_bool"
      },
      "t_mapping(t_string_memory_ptr,t_uint256)": {
        "encoding": "mapping",
        "key": "t_string_memory_ptr",
        "label": "mapping(string => uint256)",
        "numberOfBytes": "32",
        "value": "t_uint256"
      },
      "t_mapping(t_uint256,t_address)": {
        "encoding": "mapping",
        "key": "t_uint256",
        "label": "mapping(uint256 => address)",
        "numberOfBytes": "32",
        "value": "t_address"
      },
      "t_mapping(t_uint256,t_bool)": {
        "encoding": "mapping",
        "key": "t_uint256",
        "label": "mapping(uint256 => bool)",
        "numberOfBytes": "32",
        "value": "t_bool"
      },
      "t_mapping(t_uint256,t_struct(ProjectData)10203_storage)": {
        "encoding": "mapping",
        "key": "t_uint256",
        "label": "mapping(uint256 => struct ProjectData)",
        "numberOfBytes": "32",
        "value": "t_struct(ProjectData)10203_storage"
      },
      "t_string_memory_ptr": {
        "encoding": "bytes",
        "label": "string",
        "numberOfBytes": "32"
      },
      "t_string_storage": {
        "encoding": "bytes",
        "label": "string",
        "numberOfBytes": "32"
      },
      "t_struct(ProjectData)10203_storage": {
        "encoding": "inplace",
        "label": "struct ProjectData",
        "members": [
          {
            "astId": 10184,
            "contract": "contracts/CarbonProjects.sol:CarbonProjects",
            "label": "projectId",
            "offset": 0,
            "slot": "0",
            "type": "t_string_storage"
          },
          {
            "astId": 10186,
            "contract": "contracts/CarbonProjects.sol:CarbonProjects",
            "label": "standard",
            "offset": 0,
            "slot": "1",
            "type": "t_string_storage"
          },
          {
            "astId": 10188,
            "contract": "contracts/CarbonProjects.sol:CarbonProjects",
            "label": "methodology",
            "offset": 0,
            "slot": "2",
            "type": "t_string_storage"
          },
          {
            "astId": 10190,
            "contract": "contracts/CarbonProjects.sol:CarbonProjects",
            "label": "region",
            "offset": 0,
            "slot": "3",
            "type": "t_string_storage"
          },
          {
            "astId": 10192,
            "contract": "contracts/CarbonProjects.sol:CarbonProjects",
            "label": "storageMethod",
            "offset": 0,
            "slot": "4",
            "type": "t_string_storage"
          },
          {
            "astId": 10194,
            "contract": "contracts/CarbonProjects.sol:CarbonProjects",
            "label": "method",
            "offset": 0,
            "slot": "5",
            "type": "t_string_storage"
          },
          {
            "astId": 10196,
            "contract": "contracts/CarbonProjects.sol:CarbonProjects",
            "label": "emissionType",
            "offset": 0,
            "slot": "6",
            "type": "t_string_storage"
          },
          {
            "astId": 10198,
            "contract": "contracts/CarbonProjects.sol:CarbonProjects",
            "label": "category",
            "offset": 0,
            "slot": "7",
            "type": "t_string_storage"
          },
          {
            "astId": 10200,
            "contract": "contracts/CarbonProjects.sol:CarbonProjects",
            "label": "uri",
            "offset": 0,
            "slot": "8",
            "type": "t_string_storage"
          },
          {
            "astId": 10202,
            "contract": "contracts/CarbonProjects.sol:CarbonProjects",
            "label": "beneficiary",
            "offset": 0,
            "slot": "9",
            "type": "t_address"
          }
        ],
        "numberOfBytes": "320"
      },
      "t_struct(RoleData)1492_storage": {
        "encoding": "inplace",
        "label": "struct AccessControlUpgradeable.RoleData",
        "members": [
          {
            "astId": 1489,
            "contract": "contracts/CarbonProjects.sol:CarbonProjects",
            "label": "members",
            "offset": 0,
            "slot": "0",
            "type": "t_mapping(t_address,t_bool)"
          },
          {
            "astId": 1491,
            "contract": "contracts/CarbonProjects.sol:CarbonProjects",
            "label": "adminRole",
            "offset": 0,
            "slot": "1",
            "type": "t_bytes32"
          }
        ],
        "numberOfBytes": "64"
      },
      "t_uint128": {
        "encoding": "inplace",
        "label": "uint128",
        "numberOfBytes": "16"
      },
      "t_uint256": {
        "encoding": "inplace",
        "label": "uint256",
        "numberOfBytes": "32"
      },
      "t_uint8": {
        "encoding": "inplace",
        "label": "uint8",
        "numberOfBytes": "1"
      }
    }
  }
}