{
  "address": "0x5BCb07dB6D3f55Eef03FFDd14a571Da35a9Ca401",
  "abi": [
    {
      "anonymous": false,
      "inputs": [
        {
          "indexed": true,
          "internalType": "address",
          "name": "owner",
          "type": "address"
        },
        {
          "indexed": true,
          "internalType": "address",
          "name": "spender",
          "type": "address"
        },
        {
          "indexed": false,
          "internalType": "uint256",
          "name": "value",
          "type": "uint256"
        }
      ],
      "name": "Approval",
      "type": "event"
    },
    {
      "anonymous": false,
      "inputs": [
        {
          "indexed": false,
          "internalType": "address",
          "name": "bridger",
          "type": "address"
        },
        {
          "indexed": false,
          "internalType": "uint256",
          "name": "fees",
          "type": "uint256"
        }
      ],
      "name": "FeeBurnt",
      "type": "event"
    },
    {
      "anonymous": false,
      "inputs": [
        {
          "indexed": false,
          "internalType": "address",
          "name": "bridger",
          "type": "address"
        },
        {
          "indexed": false,
          "internalType": "uint256",
          "name": "fees",
          "type": "uint256"
        }
      ],
      "name": "FeePaid",
      "type": "event"
    },
    {
      "anonymous": false,
      "inputs": [
        {
          "indexed": false,
          "internalType": "uint8",
          "name": "version",
          "type": "uint8"
        }
      ],
      "name": "Initialized",
      "type": "event"
    },
    {
      "anonymous": false,
      "inputs": [
        {
          "indexed": false,
          "internalType": "address",
          "name": "sender",
          "type": "address"
        },
        {
          "indexed": false,
          "internalType": "uint256",
          "name": "amount",
          "type": "uint256"
        },
        {
          "indexed": false,
          "internalType": "uint256",
          "name": "eventId",
          "type": "uint256"
        }
      ],
      "name": "Retired",
      "type": "event"
    },
    {
      "anonymous": false,
      "inputs": [
        {
          "indexed": true,
          "internalType": "address",
          "name": "from",
          "type": "address"
        },
        {
          "indexed": true,
          "internalType": "address",
          "name": "to",
          "type": "address"
        },
        {
          "indexed": false,
          "internalType": "uint256",
          "name": "value",
          "type": "uint256"
        }
      ],
      "name": "Transfer",
      "type": "event"
    },
    {
      "inputs": [],
      "name": "DETOKENIZER_ROLE",
      "outputs": [
        {
          "internalType": "bytes32",
          "name": "",
          "type": "bytes32"
        }
      ],
      "stateMutability": "view",
      "type": "function"
    },
    {
      "inputs": [],
      "name": "RETIREMENT_ROLE",
      "outputs": [
        {
          "internalType": "bytes32",
          "name": "",
          "type": "bytes32"
        }
      ],
      "stateMutability": "view",
      "type": "function"
    },
    {
      "inputs": [],
      "name": "TOKENIZER_ROLE",
      "outputs": [
        {
          "internalType": "bytes32",
          "name": "",
          "type": "bytes32"
        }
      ],
      "stateMutability": "view",
      "type": "function"
    },
    {
      "inputs": [],
      "name": "VERSION",
      "outputs": [
        {
          "internalType": "string",
          "name": "",
          "type": "string"
        }
      ],
      "stateMutability": "view",
      "type": "function"
    },
    {
      "inputs": [],
      "name": "VERSION_RELEASE_CANDIDATE",
      "outputs": [
        {
          "internalType": "uint256",
          "name": "",
          "type": "uint256"
        }
      ],
      "stateMutability": "view",
      "type": "function"
    },
    {
      "inputs": [
        {
          "internalType": "address",
          "name": "owner",
          "type": "address"
        },
        {
          "internalType": "address",
          "name": "spender",
          "type": "address"
        }
      ],
      "name": "allowance",
      "outputs": [
        {
          "internalType": "uint256",
          "name": "",
          "type": "uint256"
        }
      ],
      "stateMutability": "view",
      "type": "function"
    },
    {
      "inputs": [
        {
          "internalType": "address",
          "name": "spender",
          "type": "address"
        },
        {
          "internalType": "uint256",
          "name": "amount",
          "type": "uint256"
        }
      ],
      "name": "approve",
      "outputs": [
        {
          "internalType": "bool",
          "name": "",
          "type": "bool"
        }
      ],
      "stateMutability": "nonpayable",
      "type": "function"
    },
    {
      "inputs": [
        {
          "internalType": "address",
          "name": "account",
          "type": "address"
        }
      ],
      "name": "balanceOf",
      "outputs": [
        {
          "internalType": "uint256",
          "name": "",
          "type": "uint256"
        }
      ],
      "stateMutability": "view",
      "type": "function"
    },
    {
      "inputs": [
        {
          "internalType": "address",
          "name": "account",
          "type": "address"
        },
        {
          "internalType": "uint256",
          "name": "amount",
          "type": "uint256"
        }
      ],
      "name": "bridgeBurn",
      "outputs": [],
      "stateMutability": "nonpayable",
      "type": "function"
    },
    {
      "inputs": [
        {
          "internalType": "address",
          "name": "account",
          "type": "address"
        },
        {
          "internalType": "uint256",
          "name": "amount",
          "type": "uint256"
        }
      ],
      "name": "bridgeMint",
      "outputs": [],
      "stateMutability": "nonpayable",
      "type": "function"
    },
    {
      "inputs": [
        {
          "internalType": "address",
          "name": "account",
          "type": "address"
        },
        {
          "internalType": "uint256",
          "name": "amount",
          "type": "uint256"
        }
      ],
      "name": "burnFrom",
      "outputs": [],
      "stateMutability": "nonpayable",
      "type": "function"
    },
    {
      "inputs": [],
      "name": "contractRegistry",
      "outputs": [
        {
          "internalType": "address",
          "name": "",
          "type": "address"
        }
      ],
      "stateMutability": "view",
      "type": "function"
    },
    {
      "inputs": [],
      "name": "decimals",
      "outputs": [
        {
          "internalType": "uint8",
          "name": "",
          "type": "uint8"
        }
      ],
      "stateMutability": "view",
      "type": "function"
    },
    {
      "inputs": [
        {
          "internalType": "address",
          "name": "spender",
          "type": "address"
        },
        {
          "internalType": "uint256",
          "name": "subtractedValue",
          "type": "uint256"
        }
      ],
      "name": "decreaseAllowance",
      "outputs": [
        {
          "internalType": "bool",
          "name": "",
          "type": "bool"
        }
      ],
      "stateMutability": "nonpayable",
      "type": "function"
    },
    {
      "inputs": [
        {
          "internalType": "uint256",
          "name": "tokenId",
          "type": "uint256"
        }
      ],
      "name": "defractionalize",
      "outputs": [],
      "stateMutability": "nonpayable",
      "type": "function"
    },
    {
      "inputs": [],
      "name": "getAttributes",
      "outputs": [
        {
          "components": [
            {
              "internalType": "string",
              "name": "projectId",
              "type": "string"
            },
            {
              "internalType": "string",
              "name": "standard",
              "type": "string"
            },
            {
              "internalType": "string",
              "name": "methodology",
              "type": "string"
            },
            {
              "internalType": "string",
              "name": "region",
              "type": "string"
            },
            {
              "internalType": "string",
              "name": "storageMethod",
              "type": "string"
            },
            {
              "internalType": "string",
              "name": "method",
              "type": "string"
            },
            {
              "internalType": "string",
              "name": "emissionType",
              "type": "string"
            },
            {
              "internalType": "string",
              "name": "category",
              "type": "string"
            },
            {
              "internalType": "string",
              "name": "uri",
              "type": "string"
            },
            {
              "internalType": "address",
              "name": "beneficiary",
              "type": "address"
            }
          ],
          "internalType": "struct ProjectData",
          "name": "",
          "type": "tuple"
        },
        {
          "components": [
            {
              "internalType": "string",
              "name": "name",
              "type": "string"
            },
            {
              "internalType": "uint64",
              "name": "startTime",
              "type": "uint64"
            },
            {
              "internalType": "uint64",
              "name": "endTime",
              "type": "uint64"
            },
            {
              "internalType": "uint256",
              "name": "projectTokenId",
              "type": "uint256"
            },
            {
              "internalType": "uint64",
              "name": "totalVintageQuantity",
              "type": "uint64"
            },
            {
              "internalType": "bool",
              "name": "isCorsiaCompliant",
              "type": "bool"
            },
            {
              "internalType": "bool",
              "name": "isCCPcompliant",
              "type": "bool"
            },
            {
              "internalType": "string",
              "name": "coBenefits",
              "type": "string"
            },
            {
              "internalType": "string",
              "name": "correspAdjustment",
              "type": "string"
            },
            {
              "internalType": "string",
              "name": "additionalCertification",
              "type": "string"
            },
            {
              "internalType": "string",
              "name": "uri",
              "type": "string"
            },
            {
              "internalType": "string",
              "name": "registry",
              "type": "string"
            }
          ],
          "internalType": "struct VintageData",
          "name": "",
          "type": "tuple"
        }
      ],
      "stateMutability": "view",
      "type": "function"
    },
    {
      "inputs": [],
      "name": "getDepositCap",
      "outputs": [
        {
          "internalType": "uint256",
          "name": "",
          "type": "uint256"
        }
      ],
      "stateMutability": "view",
      "type": "function"
    },
    {
      "inputs": [],
      "name": "getGlobalProjectVintageIdentifiers",
      "outputs": [
        {
          "internalType": "string",
          "name": "",
          "type": "string"
        },
        {
          "internalType": "string",
          "name": "",
          "type": "string"
        }
      ],
      "stateMutability": "view",
      "type": "function"
    },
    {
      "inputs": [],
      "name": "getRemaining",
      "outputs": [
        {
          "internalType": "uint256",
          "name": "remaining",
          "type": "uint256"
        }
      ],
      "stateMutability": "view",
      "type": "function"
    },
    {
      "inputs": [],
      "name": "getVintageData",
      "outputs": [
        {
          "components": [
            {
              "internalType": "string",
              "name": "name",
              "type": "string"
            },
            {
              "internalType": "uint64",
              "name": "startTime",
              "type": "uint64"
            },
            {
              "internalType": "uint64",
              "name": "endTime",
              "type": "uint64"
            },
            {
              "internalType": "uint256",
              "name": "projectTokenId",
              "type": "uint256"
            },
            {
              "internalType": "uint64",
              "name": "totalVintageQuantity",
              "type": "uint64"
            },
            {
              "internalType": "bool",
              "name": "isCorsiaCompliant",
              "type": "bool"
            },
            {
              "internalType": "bool",
              "name": "isCCPcompliant",
              "type": "bool"
            },
            {
              "internalType": "string",
              "name": "coBenefits",
              "type": "string"
            },
            {
              "internalType": "string",
              "name": "correspAdjustment",
              "type": "string"
            },
            {
              "internalType": "string",
              "name": "additionalCertification",
              "type": "string"
            },
            {
              "internalType": "string",
              "name": "uri",
              "type": "string"
            },
            {
              "internalType": "string",
              "name": "registry",
              "type": "string"
            }
          ],
          "internalType": "struct VintageData",
          "name": "vintageData",
          "type": "tuple"
        }
      ],
      "stateMutability": "view",
      "type": "function"
    },
    {
      "inputs": [
        {
          "internalType": "address",
          "name": "spender",
          "type": "address"
        },
        {
          "internalType": "uint256",
          "name": "addedValue",
          "type": "uint256"
        }
      ],
      "name": "increaseAllowance",
      "outputs": [
        {
          "internalType": "bool",
          "name": "",
          "type": "bool"
        }
      ],
      "stateMutability": "nonpayable",
      "type": "function"
    },
    {
      "inputs": [
        {
          "internalType": "string",
          "name": "name_",
          "type": "string"
        },
        {
          "internalType": "string",
          "name": "symbol_",
          "type": "string"
        },
        {
          "internalType": "uint256",
          "name": "projectVintageTokenId_",
          "type": "uint256"
        },
        {
          "internalType": "address",
          "name": "contractRegistry_",
          "type": "address"
        }
      ],
      "name": "initialize",
      "outputs": [],
      "stateMutability": "nonpayable",
      "type": "function"
    },
    {
      "inputs": [
        {
          "internalType": "string",
          "name": "retiringEntityString",
          "type": "string"
        },
        {
          "internalType": "address",
          "name": "beneficiary",
          "type": "address"
        },
        {
          "internalType": "string",
          "name": "beneficiaryString",
          "type": "string"
        },
        {
          "internalType": "string",
          "name": "retirementMessage",
          "type": "string"
        }
      ],
      "name": "mintCertificateLegacy",
      "outputs": [],
      "stateMutability": "nonpayable",
      "type": "function"
    },
    {
      "inputs": [
        {
          "internalType": "address",
          "name": "",
          "type": "address"
        }
      ],
      "name": "minterToId",
      "outputs": [
        {
          "internalType": "uint256",
          "name": "",
          "type": "uint256"
        }
      ],
      "stateMutability": "view",
      "type": "function"
    },
    {
      "inputs": [],
      "name": "name",
      "outputs": [
        {
          "internalType": "string",
          "name": "",
          "type": "string"
        }
      ],
      "stateMutability": "view",
      "type": "function"
    },
    {
      "inputs": [
        {
          "internalType": "address",
          "name": "",
          "type": "address"
        },
        {
          "internalType": "address",
          "name": "from",
          "type": "address"
        },
        {
          "internalType": "uint256",
          "name": "tokenId",
          "type": "uint256"
        },
        {
          "internalType": "bytes",
          "name": "",
          "type": "bytes"
        }
      ],
      "name": "onERC721Received",
      "outputs": [
        {
          "internalType": "bytes4",
          "name": "",
          "type": "bytes4"
        }
      ],
      "stateMutability": "nonpayable",
      "type": "function"
    },
    {
      "inputs": [],
      "name": "projectVintageTokenId",
      "outputs": [
        {
          "internalType": "uint256",
          "name": "",
          "type": "uint256"
        }
      ],
      "stateMutability": "view",
      "type": "function"
    },
    {
      "inputs": [
        {
          "internalType": "uint256",
          "name": "amount",
          "type": "uint256"
        }
      ],
      "name": "retire",
      "outputs": [
        {
          "internalType": "uint256",
          "name": "retirementEventId",
          "type": "uint256"
        }
      ],
      "stateMutability": "nonpayable",
      "type": "function"
    },
    {
      "inputs": [
        {
          "internalType": "string",
          "name": "retiringEntityString",
          "type": "string"
        },
        {
          "internalType": "address",
          "name": "beneficiary",
          "type": "address"
        },
        {
          "internalType": "string",
          "name": "beneficiaryString",
          "type": "string"
        },
        {
          "internalType": "string",
          "name": "retirementMessage",
          "type": "string"
        },
        {
          "internalType": "uint256",
          "name": "amount",
          "type": "uint256"
        }
      ],
      "name": "retireAndMintCertificate",
      "outputs": [],
      "stateMutability": "nonpayable",
      "type": "function"
    },
    {
      "inputs": [
        {
          "internalType": "address",
          "name": "account",
          "type": "address"
        },
        {
          "internalType": "uint256",
          "name": "amount",
          "type": "uint256"
        }
      ],
      "name": "retireFrom",
      "outputs": [
        {
          "internalType": "uint256",
          "name": "retirementEventId",
          "type": "uint256"
        }
      ],
      "stateMutability": "nonpayable",
      "type": "function"
    },
    {
      "inputs": [],
      "name": "standardRegistry",
      "outputs": [
        {
          "internalType": "string",
          "name": "",
          "type": "string"
        }
      ],
      "stateMutability": "pure",
      "type": "function"
    },
    {
      "inputs": [],
      "name": "standardRegistryDecimals",
      "outputs": [
        {
          "internalType": "uint8",
          "name": "",
          "type": "uint8"
        }
      ],
      "stateMutability": "pure",
      "type": "function"
    },
    {
      "inputs": [],
      "name": "symbol",
      "outputs": [
        {
          "internalType": "string",
          "name": "",
          "type": "string"
        }
      ],
      "stateMutability": "view",
      "type": "function"
    },
    {
      "inputs": [],
      "name": "totalSupply",
      "outputs": [
        {
          "internalType": "uint256",
          "name": "",
          "type": "uint256"
        }
      ],
      "stateMutability": "view",
      "type": "function"
    },
    {
      "inputs": [
        {
          "internalType": "address",
          "name": "recipient",
          "type": "address"
        },
        {
          "internalType": "uint256",
          "name": "amount",
          "type": "uint256"
        }
      ],
      "name": "transfer",
      "outputs": [
        {
          "internalType": "bool",
          "name": "",
          "type": "bool"
        }
      ],
      "stateMutability": "nonpayable",
      "type": "function"
    },
    {
      "inputs": [
        {
          "internalType": "address",
          "name": "sender",
          "type": "address"
        },
        {
          "internalType": "address",
          "name": "recipient",
          "type": "address"
        },
        {
          "internalType": "uint256",
          "name": "amount",
          "type": "uint256"
        }
      ],
      "name": "transferFrom",
      "outputs": [
        {
          "internalType": "bool",
          "name": "",
          "type": "bool"
        }
      ],
      "stateMutability": "nonpayable",
      "type": "function"
    }
  ],
  "numDeployments": 1,
  "solcInputHash": "21ae5f70988e66da4bff33b9b6a2fdaf",
  "bytecode": "0x60806040523480156200001157600080fd5b506200001c62000022565b620000e3565b600054610100900460ff16156200008f5760405162461bcd60e51b815260206004820152602760248201527f496e697469616c697a61626c653a20636f6e747261637420697320696e697469604482015266616c697a696e6760c81b606482015260840160405180910390fd5b60005460ff90811614620000e1576000805460ff191660ff9081179091556040519081527f7f26b83ff96e1f2b6a682f133852f6798a09c465da95921460cefb38474024989060200160405180910390a15b565b613e5880620000f36000396000f3fe608060405234801561001057600080fd5b506004361061021c5760003560e01c80636b24ffd611610125578063a457c2d7116100ad578063d6a022b81161007c578063d6a022b8146104d2578063dd62ed3e146104da578063e819426c146104ed578063e9d5c8d5146104f5578063ffa1ad741461051557600080fd5b8063a457c2d71461046e578063a9059cbb14610481578063abf410e514610494578063bd3a13f6146104bf57600080fd5b80637903c7d0116100f45780637903c7d01461040657806379cc67901461041957806383f2fc3e1461042c5780638c2a993e1461045357806395d89b411461046657600080fd5b80636b24ffd6146103af5780636ca0b0d7146103c257806370a08231146103ca57806374f4f547146103f357600080fd5b80632ef29290116101a8578063395093511161017757806339509351146103575780633c31175e1461036a5780635c6f3a901461037257806364c5a4031461039957806365ec18091461032057600080fd5b80632ef292901461030d578063313ce567146103205780633633f35f1461032f5780633790cf571461034457600080fd5b8063095ea7b3116101ef578063095ea7b31461028d578063150b7a02146102b0578063152583de146102dc57806318160ddd146102f257806323b872dd146102fa57600080fd5b806301a598da146102215780630605a3341461023c57806306fdde0314610263578063077c6f2b14610278575b600080fd5b610229610539565b6040519081526020015b60405180910390f35b6102297fe70d28ebd9d7d9a3dd77d46ae2481f301c80806f395b08de31d8e095b1c46cee81565b61026b610592565b6040516102339190612ee0565b61028b610286366004612f53565b6105cd565b005b6102a061029b366004613001565b61082e565b6040519015158152602001610233565b6102c36102be36600461302d565b610848565b6040516001600160e01b03199091168152602001610233565b6102e4610e12565b6040516102339291906131cb565b603554610229565b6102a061030836600461330a565b61100b565b61028b61031b36600461334b565b61114e565b60405160128152602001610233565b610337611356565b6040516102339190613400565b610229610352366004613413565b61144b565b6102a0610365366004613001565b61156f565b61026b611591565b6102297ffb7778e60e898528875e31f94e3a623d6302be2aa540c7a7f5ae26fe5ee2498d81565b6103a16115b0565b60405161023392919061342c565b6102296103bd366004613001565b6115da565b610229600181565b6102296103d8366004613451565b6001600160a01b031660009081526033602052604090205490565b61028b610401366004613001565b61170a565b61028b610414366004613413565b61193f565b61028b610427366004613001565b611cb8565b6102297ff70ccd5004a2a6f964f044c0095454c529799f8602238d52b5a197af351dd41981565b61028b610461366004613001565b611dd2565b61026b611fff565b6102a061047c366004613001565b612024565b6102a061048f366004613001565b6120aa565b6066546104a7906001600160a01b031681565b6040516001600160a01b039091168152602001610233565b61028b6104cd36600461357d565b6121eb565b610229612322565b6102296104e83660046135fc565b612342565b606554610229565b610229610503366004613451565b60676020526000908152604090205481565b61026b604051806040016040528060058152602001640312e362e360dc1b81525081565b6000610543612d13565b61054b610e12565b6080810151909250905060006105636012600a61372f565b610576906001600160401b03841661373e565b90508060000361058b57600019935050505090565b9392505050565b606080606061059f6115b0565b60405191935091506105b7908390839060200161375d565b6040516020818303038152906040529250505090565b6066546000906001600160a01b03166391148b276105e9611591565b6040518263ffffffff1660e01b81526004016106059190612ee0565b602060405180830381865afa158015610622573d6000803e3d6000fd5b505050506040513d601f19601f8201168201806040525081019061064691906137c6565b90506000816001600160a01b0316635c975abb6040518163ffffffff1660e01b8152600401602060405180830381865afa158015610688573d6000803e3d6000fd5b505050506040513d601f19601f820116820180604052508101906106ac91906137f3565b905080156106d55760405162461bcd60e51b81526004016106cc9061380e565b60405180910390fd5b60006106df61236d565b6040805160018082528183019092529192506000919060208083019080368337019050509050818160008151811061071957610719613833565b6020026020010181815250506000606660009054906101000a90046001600160a01b03166001600160a01b031663376b5dce6040518163ffffffff1660e01b8152600401602060405180830381865afa15801561077a573d6000803e3d6000fd5b505050506040513d601f19601f8201168201806040525081019061079e91906137c6565b9050806001600160a01b031663163c1319338e8e8e8e8e8e8e8b6040518a63ffffffff1660e01b81526004016107dc99989796959493929190613872565b6020604051808303816000875af11580156107fb573d6000803e3d6000fd5b505050506040513d601f19601f8201168201806040525081019061081f9190613910565b50505050505050505050505050565b60003361083c81858561248c565b60019150505b92915050565b60665460009081906001600160a01b03166391148b27610866611591565b6040518263ffffffff1660e01b81526004016108829190612ee0565b602060405180830381865afa15801561089f573d6000803e3d6000fd5b505050506040513d601f19601f820116820180604052508101906108c391906137c6565b90506000816001600160a01b0316635c975abb6040518163ffffffff1660e01b8152600401602060405180830381865afa158015610905573d6000803e3d6000fd5b505050506040513d601f19601f8201168201806040525081019061092991906137f3565b905080156109495760405162461bcd60e51b81526004016106cc9061380e565b610952336125b1565b60405180604001604052806002815260200161068760f31b8152509061098b5760405162461bcd60e51b81526004016106cc9190612ee0565b50600080600061099b338a61264c565b925092509250606554831460405180604001604052806002815260200161343960f01b815250906109df5760405162461bcd60e51b81526004016106cc9190612ee0565b5060038160068111156109f4576109f4613929565b1480610a1157506005816006811115610a0f57610a0f613929565b145b15610a295750630a85bd0160e11b9450610e07915050565b6002816006811115610a3d57610a3d613929565b1460405180604001604052806002815260200161343760f01b81525090610a775760405162461bcd60e51b81526004016106cc9190612ee0565b5081610a81612322565b101560405180604001604052806002815260200161035360f41b81525090610abc5760405162461bcd60e51b81526004016106cc9190612ee0565b506001600160a01b03808b1660009081526067602052604081208b90556066549091166391148b27610aec611591565b6040518263ffffffff1660e01b8152600401610b089190612ee0565b602060405180830381865afa158015610b25573d6000803e3d6000fd5b505050506040513d601f19601f82011682018060405250810190610b4991906137c6565b90506000816001600160a01b03166380e2d3f06040518163ffffffff1660e01b8152600401602060405180830381865afa158015610b8b573d6000803e3d6000fd5b505050506040513d601f19601f82011682018060405250810190610baf91906137c6565b90506001600160a01b038116610bce57610bc98c856126e4565b610df7565b6040516379bcd2d160e11b81526004810185905260009081906001600160a01b0385169063f379a5a2906024016040805180830381865afa158015610c17573d6000803e3d6000fd5b505050506040513d601f19601f82011682018060405250810190610c3b919061393f565b9092509050610c538e610c4e8489613963565b6126e4565b6000846001600160a01b031663581cd1106040518163ffffffff1660e01b8152600401602060405180830381865afa158015610c93573d6000803e3d6000fd5b505050506040513d601f19601f82011682018060405250810190610cb791906137c6565b90506001600160a01b03811615801590610cd15750600082115b15610d9557610ce08284613963565b9250610cec84846126e4565b610cf681836126e4565b7f075a2720282fdf622141dae0b048ef90a21a7e57c134c76912d19d006b3b3f6f8f84604051610d3b9291906001600160a01b03929092168252602082015260400190565b60405180910390a17fa2f0f5180dc62f2d34c8207f1d18178d31bd0de616f83636434ddf48de0ae6fa8f83604051610d889291906001600160a01b03929092168252602082015260400190565b60405180910390a1610df3565b8215610df357610da584846126e4565b7f075a2720282fdf622141dae0b048ef90a21a7e57c134c76912d19d006b3b3f6f8f84604051610dea9291906001600160a01b03929092168252602082015260400190565b60405180910390a15b5050505b50630a85bd0160e11b9650505050505b505095945050505050565b610e1a612d93565b610e22612d13565b606654604080516301157a8360e01b815290516000926001600160a01b0316916301157a839160048083019260209291908290030181865afa158015610e6c573d6000803e3d6000fd5b505050506040513d601f19601f82011682018060405250810190610e9091906137c6565b90506000606660009054906101000a90046001600160a01b03166001600160a01b031663a0af25606040518163ffffffff1660e01b8152600401602060405180830381865afa158015610ee7573d6000803e3d6000fd5b505050506040513d601f19601f82011682018060405250810190610f0b91906137c6565b90506000816001600160a01b03166315bbf0746065546040518263ffffffff1660e01b8152600401610f3f91815260200190565b600060405180830381865afa158015610f5c573d6000803e3d6000fd5b505050506040513d6000823e601f3d908101601f19168201604052610f8491908101906139d6565b90506000836001600160a01b03166347e3168683606001516040518263ffffffff1660e01b8152600401610fba91815260200190565b600060405180830381865afa158015610fd7573d6000803e3d6000fd5b505050506040513d6000823e601f3d908101601f19168201604052610fff9190810190613b60565b96919550909350505050565b6000826001600160a01b03811661102157600080fd5b306001600160a01b0382160361103657600080fd5b6066546000906001600160a01b03166391148b27611052611591565b6040518263ffffffff1660e01b815260040161106e9190612ee0565b602060405180830381865afa15801561108b573d6000803e3d6000fd5b505050506040513d601f19601f820116820180604052508101906110af91906137c6565b90506000816001600160a01b0316635c975abb6040518163ffffffff1660e01b8152600401602060405180830381865afa1580156110f1573d6000803e3d6000fd5b505050506040513d601f19601f8201168201806040525081019061111591906137f3565b905080156111355760405162461bcd60e51b81526004016106cc9061380e565b6111408787876127a5565b506001979650505050505050565b6066546000906001600160a01b03166391148b2761116a611591565b6040518263ffffffff1660e01b81526004016111869190612ee0565b602060405180830381865afa1580156111a3573d6000803e3d6000fd5b505050506040513d601f19601f820116820180604052508101906111c791906137c6565b90506000816001600160a01b0316635c975abb6040518163ffffffff1660e01b8152600401602060405180830381865afa158015611209573d6000803e3d6000fd5b505050506040513d601f19601f8201168201806040525081019061122d91906137f3565b9050801561124d5760405162461bcd60e51b81526004016106cc9061380e565b600061126a338533604051806020016040528060008152506127be565b604080516001808252818301909252919250600091906020808301908036833701905050905081816000815181106112a4576112a4613833565b60209081029190910181019190915260665460408051631bb5aee760e11b815290516001600160a01b039092169263376b5dce926004808401938290030181865afa1580156112f7573d6000803e3d6000fd5b505050506040513d601f19601f8201168201806040525081019061131b91906137c6565b6001600160a01b031663163c1319338e8e8e8e8e8e8e8a6040518a63ffffffff1660e01b81526004016107dc99989796959493929190613872565b61135e612d13565b60665460408051630505792b60e51b815290516000926001600160a01b03169163a0af25609160048083019260209291908290030181865afa1580156113a8573d6000803e3d6000fd5b505050506040513d601f19601f820116820180604052508101906113cc91906137c6565b60655460405163056efc1d60e21b81529192506001600160a01b038316916315bbf074916114009160040190815260200190565b600060405180830381865afa15801561141d573d6000803e3d6000fd5b505050506040513d6000823e601f3d908101601f1916820160405261144591908101906139d6565b91505090565b60665460009081906001600160a01b03166391148b27611469611591565b6040518263ffffffff1660e01b81526004016114859190612ee0565b602060405180830381865afa1580156114a2573d6000803e3d6000fd5b505050506040513d601f19601f820116820180604052508101906114c691906137c6565b90506000816001600160a01b0316635c975abb6040518163ffffffff1660e01b8152600401602060405180830381865afa158015611508573d6000803e3d6000fd5b505050506040513d601f19601f8201168201806040525081019061152c91906137f3565b9050801561154c5760405162461bcd60e51b81526004016106cc9061380e565b611567338533604051806020016040528060008152506127be565b949350505050565b60003361083c8185856115828383612342565b61158c9190613d05565b61248c565b604080518082019091526005815264766572726160d81b602082015290565b6060806115bb612d93565b6115c3612d13565b6115cb610e12565b90519051909590945092505050565b60665460009081906001600160a01b03166391148b276115f8611591565b6040518263ffffffff1660e01b81526004016116149190612ee0565b602060405180830381865afa158015611631573d6000803e3d6000fd5b505050506040513d601f19601f8201168201806040525081019061165591906137c6565b90506000816001600160a01b0316635c975abb6040518163ffffffff1660e01b8152600401602060405180830381865afa158015611697573d6000803e3d6000fd5b505050506040513d601f19601f820116820180604052508101906116bb91906137f3565b905080156116db5760405162461bcd60e51b81526004016106cc9061380e565b6116e685338661290b565b611701858587604051806020016040528060008152506127be565b95945050505050565b6066546000906001600160a01b03166391148b27611726611591565b6040518263ffffffff1660e01b81526004016117429190612ee0565b602060405180830381865afa15801561175f573d6000803e3d6000fd5b505050506040513d601f19601f8201168201806040525081019061178391906137c6565b90506000816001600160a01b0316635c975abb6040518163ffffffff1660e01b8152600401602060405180830381865afa1580156117c5573d6000803e3d6000fd5b505050506040513d601f19601f820116820180604052508101906117e991906137f3565b905080156118095760405162461bcd60e51b81526004016106cc9061380e565b6066546000906001600160a01b03166391148b27611825611591565b6040518263ffffffff1660e01b81526004016118419190612ee0565b602060405180830381865afa15801561185e573d6000803e3d6000fd5b505050506040513d601f19601f8201168201806040525081019061188291906137c6565b6040516311afe75f60e11b81523360048201529091506000906001600160a01b0383169063235fcebe90602401602060405180830381865afa1580156118cc573d6000803e3d6000fd5b505050506040513d601f19601f820116820180604052508101906118f091906137f3565b90508061192d5760405162461bcd60e51b815260206004820152600b60248201526a139bdd08185b1b1bddd95960aa1b60448201526064016106cc565b611937868661297f565b505050505050565b6066546000906001600160a01b03166391148b2761195b611591565b6040518263ffffffff1660e01b81526004016119779190612ee0565b602060405180830381865afa158015611994573d6000803e3d6000fd5b505050506040513d601f19601f820116820180604052508101906119b891906137c6565b90506000816001600160a01b0316635c975abb6040518163ffffffff1660e01b8152600401602060405180830381865afa1580156119fa573d6000803e3d6000fd5b505050506040513d601f19601f82011682018060405250810190611a1e91906137f3565b90508015611a3e5760405162461bcd60e51b81526004016106cc9061380e565b6066546000906001600160a01b03166391148b27611a5a611591565b6040518263ffffffff1660e01b8152600401611a769190612ee0565b602060405180830381865afa158015611a93573d6000803e3d6000fd5b505050506040513d601f19601f82011682018060405250810190611ab791906137c6565b90506000816001600160a01b0316638da5cb5b6040518163ffffffff1660e01b8152600401602060405180830381865afa158015611af9573d6000803e3d6000fd5b505050506040513d601f19601f82011682018060405250810190611b1d91906137c6565b90506001600160a01b0381163314611b6b5760405162461bcd60e51b81526020600482015260116024820152702737ba103330b1ba37b93c9037bbb732b960791b60448201526064016106cc565b60665460408051634be4e3dd60e01b815290516000926001600160a01b031691634be4e3dd9160048083019260209291908290030181865afa158015611bb5573d6000803e3d6000fd5b505050506040513d601f19601f82011682018060405250810190611bd991906137c6565b9050600080611be8838961264c565b909350915060029050816006811115611c0357611c03613929565b1460405180604001604052806002815260200161343760f01b81525090611c3d5760405162461bcd60e51b81526004016106cc9190612ee0565b50611c48338361297f565b6040516323b872dd60e01b8152306004820152336024820152604481018990526001600160a01b038416906323b872dd90606401600060405180830381600087803b158015611c9657600080fd5b505af1158015611caa573d6000803e3d6000fd5b505050505050505050505050565b6066546000906001600160a01b03166391148b27611cd4611591565b6040518263ffffffff1660e01b8152600401611cf09190612ee0565b602060405180830381865afa158015611d0d573d6000803e3d6000fd5b505050506040513d601f19601f82011682018060405250810190611d3191906137c6565b90506000816001600160a01b0316635c975abb6040518163ffffffff1660e01b8152600401602060405180830381865afa158015611d73573d6000803e3d6000fd5b505050506040513d601f19601f82011682018060405250810190611d9791906137f3565b90508015611db75760405162461bcd60e51b81526004016106cc9061380e565b611dc284338561290b565b611dcc848461297f565b50505050565b6066546000906001600160a01b03166391148b27611dee611591565b6040518263ffffffff1660e01b8152600401611e0a9190612ee0565b602060405180830381865afa158015611e27573d6000803e3d6000fd5b505050506040513d601f19601f82011682018060405250810190611e4b91906137c6565b90506000816001600160a01b0316635c975abb6040518163ffffffff1660e01b8152600401602060405180830381865afa158015611e8d573d6000803e3d6000fd5b505050506040513d601f19601f82011682018060405250810190611eb191906137f3565b90508015611ed15760405162461bcd60e51b81526004016106cc9061380e565b6066546000906001600160a01b03166391148b27611eed611591565b6040518263ffffffff1660e01b8152600401611f099190612ee0565b602060405180830381865afa158015611f26573d6000803e3d6000fd5b505050506040513d601f19601f82011682018060405250810190611f4a91906137c6565b6040516311afe75f60e11b81523360048201529091506000906001600160a01b0383169063235fcebe90602401602060405180830381865afa158015611f94573d6000803e3d6000fd5b505050506040513d601f19601f82011682018060405250810190611fb891906137f3565b905080611ff55760405162461bcd60e51b815260206004820152600b60248201526a139bdd08185b1b1bddd95960aa1b60448201526064016106cc565b61193786866126e4565b606080606061200c6115b0565b60405191935091506105b79083908390602001613d1d565b600033816120328286612342565b9050838110156120925760405162461bcd60e51b815260206004820152602560248201527f45524332303a2064656372656173656420616c6c6f77616e63652062656c6f77604482015264207a65726f60d81b60648201526084016106cc565b61209f828686840361248c565b506001949350505050565b6000826001600160a01b0381166120c057600080fd5b306001600160a01b038216036120d557600080fd5b6066546000906001600160a01b03166391148b276120f1611591565b6040518263ffffffff1660e01b815260040161210d9190612ee0565b602060405180830381865afa15801561212a573d6000803e3d6000fd5b505050506040513d601f19601f8201168201806040525081019061214e91906137c6565b90506000816001600160a01b0316635c975abb6040518163ffffffff1660e01b8152600401602060405180830381865afa158015612190573d6000803e3d6000fd5b505050506040513d601f19601f820116820180604052508101906121b491906137f3565b905080156121d45760405162461bcd60e51b81526004016106cc9061380e565b6121de8686612ab0565b5060019695505050505050565b600054610100900460ff161580801561220b5750600054600160ff909116105b806122255750303b158015612225575060005460ff166001145b6122885760405162461bcd60e51b815260206004820152602e60248201527f496e697469616c697a61626c653a20636f6e747261637420697320616c72656160448201526d191e481a5b9a5d1a585b1a5e995960921b60648201526084016106cc565b6000805460ff1916600117905580156122ab576000805461ff0019166101001790555b6122b58585612abe565b6065839055606680546001600160a01b0319166001600160a01b038416179055801561231b576000805461ff0019169055604051600181527f7f26b83ff96e1f2b6a682f133852f6798a09c465da95921460cefb38474024989060200160405180910390a15b5050505050565b60008061232d610539565b905061233860355490565b6114459082613963565b6001600160a01b03918216600090815260346020908152604080832093909416825291909152205490565b3360009081526068602090815260408083208054908490556066548251631bb5aee760e11b81529251919385936001600160a01b039092169263376b5dce9260048082019392918290030181865afa1580156123cd573d6000803e3d6000fd5b505050506040513d601f19601f820116820180604052508101906123f191906137c6565b60655460405163207e1ab560e11b815233600482015260248101919091526044810184905260a06064820152600060a4820152600160848201529091506001600160a01b038216906340fc356a9060c4016020604051808303816000875af1158015612461573d6000803e3d6000fd5b505050506040513d601f19601f820116820180604052508101906124859190613910565b9250505090565b6001600160a01b0383166124ee5760405162461bcd60e51b8152602060048201526024808201527f45524332303a20617070726f76652066726f6d20746865207a65726f206164646044820152637265737360e01b60648201526084016106cc565b6001600160a01b03821661254f5760405162461bcd60e51b815260206004820152602260248201527f45524332303a20617070726f766520746f20746865207a65726f206164647265604482015261737360f01b60648201526084016106cc565b6001600160a01b0383811660008181526034602090815260408083209487168084529482529182902085905590518481527f8c5be1e5ebec7d5bd14f71427d1e84f3dd0314c0f7b2291e5b200ac8c7c3b92591015b60405180910390a3505050565b60665460408051634be4e3dd60e01b815290516000926001600160a01b031691634be4e3dd9160048083019260209291908290030181865afa1580156125fb573d6000803e3d6000fd5b505050506040513d601f19601f8201168201806040525081019061261f91906137c6565b6001600160a01b0316826001600160a01b03160361263f57506001919050565b506000919050565b919050565b600080600080600080876001600160a01b031663dff35e83886040518263ffffffff1660e01b815260040161268391815260200190565b606060405180830381865afa1580156126a0573d6000803e3d6000fd5b505050506040513d601f19601f820116820180604052508101906126c49190613d6a565b925092509250826126d483612b50565b9096509450925050509250925092565b6001600160a01b03821661273a5760405162461bcd60e51b815260206004820152601f60248201527f45524332303a206d696e7420746f20746865207a65726f20616464726573730060448201526064016106cc565b806035600082825461274c9190613d05565b90915550506001600160a01b0382166000818152603360209081526040808320805486019055518481527fddf252ad1be2c89b69c2b068fc378daa952ba7f163c4a11628f55a4df523b3ef910160405180910390a35050565b6000336127b385828561290b565b61209f858585612b68565b60006127ca858561297f565b60665460408051631bb5aee760e11b815290516000926001600160a01b03169163376b5dce9160048083019260209291908290030181865afa158015612814573d6000803e3d6000fd5b505050506040513d601f19601f8201168201806040525081019061283891906137c6565b60655460405163207e1ab560e11b81529192506001600160a01b038316916340fc356a91612872918891908a908990600090600401613da7565b6020604051808303816000875af1158015612891573d6000803e3d6000fd5b505050506040513d601f19601f820116820180604052508101906128b59190613910565b604080516001600160a01b0387168152602081018890529081018290529092507fb3775f672e1adf43bf7834b692675bfee4db72f83e42da8cff694ca295a89eca9060600160405180910390a150949350505050565b60006129178484612342565b90506000198114611dcc57818110156129725760405162461bcd60e51b815260206004820152601d60248201527f45524332303a20696e73756666696369656e7420616c6c6f77616e636500000060448201526064016106cc565b611dcc848484840361248c565b6001600160a01b0382166129df5760405162461bcd60e51b815260206004820152602160248201527f45524332303a206275726e2066726f6d20746865207a65726f206164647265736044820152607360f81b60648201526084016106cc565b6001600160a01b03821660009081526033602052604090205481811015612a535760405162461bcd60e51b815260206004820152602260248201527f45524332303a206275726e20616d6f756e7420657863656564732062616c616e604482015261636560f01b60648201526084016106cc565b6001600160a01b03831660008181526033602090815260408083208686039055603580548790039055518581529192917fddf252ad1be2c89b69c2b068fc378daa952ba7f163c4a11628f55a4df523b3ef91016125a4565b505050565b60003361083c818585612b68565b600054610100900460ff16612b295760405162461bcd60e51b815260206004820152602b60248201527f496e697469616c697a61626c653a20636f6e7472616374206973206e6f74206960448201526a6e697469616c697a696e6760a81b60648201526084016106cc565b8151612b3c906036906020850190612def565b508051612aab906037906020840190612def565b6000612b5e6012600a61372f565b610842908361373e565b6001600160a01b038316612bcc5760405162461bcd60e51b815260206004820152602560248201527f45524332303a207472616e736665722066726f6d20746865207a65726f206164604482015264647265737360d81b60648201526084016106cc565b6001600160a01b038216612c2e5760405162461bcd60e51b815260206004820152602360248201527f45524332303a207472616e7366657220746f20746865207a65726f206164647260448201526265737360e81b60648201526084016106cc565b6001600160a01b03831660009081526033602052604090205481811015612ca65760405162461bcd60e51b815260206004820152602660248201527f45524332303a207472616e7366657220616d6f756e7420657863656564732062604482015265616c616e636560d01b60648201526084016106cc565b6001600160a01b0380851660008181526033602052604080822086860390559286168082529083902080548601905591517fddf252ad1be2c89b69c2b068fc378daa952ba7f163c4a11628f55a4df523b3ef90612d069086815260200190565b60405180910390a3611dcc565b6040518061018001604052806060815260200160006001600160401b0316815260200160006001600160401b031681526020016000815260200160006001600160401b0316815260200160001515815260200160001515815260200160608152602001606081526020016060815260200160608152602001606081525090565b60405180610140016040528060608152602001606081526020016060815260200160608152602001606081526020016060815260200160608152602001606081526020016060815260200160006001600160a01b031681525090565b828054612dfb90613de8565b90600052602060002090601f016020900481019282612e1d5760008555612e63565b82601f10612e3657805160ff1916838001178555612e63565b82800160010185558215612e63579182015b82811115612e63578251825591602001919060010190612e48565b50612e6f929150612e73565b5090565b5b80821115612e6f5760008155600101612e74565b60005b83811015612ea3578181015183820152602001612e8b565b83811115611dcc5750506000910152565b60008151808452612ecc816020860160208601612e88565b601f01601f19169290920160200192915050565b60208152600061058b6020830184612eb4565b60008083601f840112612f0557600080fd5b5081356001600160401b03811115612f1c57600080fd5b602083019150836020828501011115612f3457600080fd5b9250929050565b6001600160a01b0381168114612f5057600080fd5b50565b60008060008060008060006080888a031215612f6e57600080fd5b87356001600160401b0380821115612f8557600080fd5b612f918b838c01612ef3565b909950975060208a01359150612fa682612f3b565b90955060408901359080821115612fbc57600080fd5b612fc88b838c01612ef3565b909650945060608a0135915080821115612fe157600080fd5b50612fee8a828b01612ef3565b989b979a50959850939692959293505050565b6000806040838503121561301457600080fd5b823561301f81612f3b565b946020939093013593505050565b60008060008060006080868803121561304557600080fd5b853561305081612f3b565b9450602086013561306081612f3b565b93506040860135925060608601356001600160401b0381111561308257600080fd5b61308e88828901612ef3565b969995985093965092949392505050565b600061018082518185526130b582860182612eb4565b91505060208301516130d260208601826001600160401b03169052565b5060408301516130ed60408601826001600160401b03169052565b5060608301516060850152608083015161311260808601826001600160401b03169052565b5060a083015161312660a086018215159052565b5060c083015161313a60c086018215159052565b5060e083015184820360e08601526131528282612eb4565b915050610100808401518583038287015261316d8382612eb4565b9250505061012080840151858303828701526131898382612eb4565b9250505061014080840151858303828701526131a58382612eb4565b9250505061016080840151858303828701526131c18382612eb4565b9695505050505050565b60408152600083516101408060408501526131ea610180850183612eb4565b91506020860151603f19808685030160608701526132088483612eb4565b935060408801519150808685030160808701526132258483612eb4565b935060608801519150808685030160a08701526132428483612eb4565b935060808801519150808685030160c087015261325f8483612eb4565b935060a08801519150808685030160e087015261327c8483612eb4565b935060c0880151915061010081878603018188015261329b8584612eb4565b945060e089015192506101208288870301818901526132ba8685612eb4565b9550818a015193508288870301858901526132d58685612eb4565b9550808a01519450505050506132f76101608501826001600160a01b03169052565b508281036020840152611701818561309f565b60008060006060848603121561331f57600080fd5b833561332a81612f3b565b9250602084013561333a81612f3b565b929592945050506040919091013590565b60008060008060008060008060a0898b03121561336757600080fd5b88356001600160401b038082111561337e57600080fd5b61338a8c838d01612ef3565b909a50985060208b0135915061339f82612f3b565b90965060408a013590808211156133b557600080fd5b6133c18c838d01612ef3565b909750955060608b01359150808211156133da57600080fd5b506133e78b828c01612ef3565b999c989b50969995989497949560800135949350505050565b60208152600061058b602083018461309f565b60006020828403121561342557600080fd5b5035919050565b60408152600061343f6040830185612eb4565b82810360208401526117018185612eb4565b60006020828403121561346357600080fd5b813561058b81612f3b565b634e487b7160e01b600052604160045260246000fd5b60405161018081016001600160401b03811182821017156134a7576134a761346e565b60405290565b60405161014081016001600160401b03811182821017156134a7576134a761346e565b604051601f8201601f191681016001600160401b03811182821017156134f8576134f861346e565b604052919050565b60006001600160401b038211156135195761351961346e565b50601f01601f191660200190565b600082601f83011261353857600080fd5b813561354b61354682613500565b6134d0565b81815284602083860101111561356057600080fd5b816020850160208301376000918101602001919091529392505050565b6000806000806080858703121561359357600080fd5b84356001600160401b03808211156135aa57600080fd5b6135b688838901613527565b955060208701359150808211156135cc57600080fd5b506135d987828801613527565b9350506040850135915060608501356135f181612f3b565b939692955090935050565b6000806040838503121561360f57600080fd5b823561361a81612f3b565b9150602083013561362a81612f3b565b809150509250929050565b634e487b7160e01b600052601160045260246000fd5b600181815b8085111561368657816000190482111561366c5761366c613635565b8085161561367957918102915b93841c9390800290613650565b509250929050565b60008261369d57506001610842565b816136aa57506000610842565b81600181146136c057600281146136ca576136e6565b6001915050610842565b60ff8411156136db576136db613635565b50506001821b610842565b5060208310610133831016604e8410600b8410161715613709575081810a610842565b613713838361364b565b806000190482111561372757613727613635565b029392505050565b600061058b60ff84168361368e565b600081600019048311821515161561375857613758613635565b500290565b75546f7563616e2050726f746f636f6c3a2054434f322d60501b81526000835161378e816016850160208801612e88565b602d60f81b60169184019182015283516137af816017840160208801612e88565b01601701949350505050565b805161264781612f3b565b6000602082840312156137d857600080fd5b815161058b81612f3b565b8051801515811461264757600080fd5b60006020828403121561380557600080fd5b61058b826137e3565b6020808252600b908201526a2830bab9b2b2102a21a79960a91b604082015260600190565b634e487b7160e01b600052603260045260246000fd5b81835281816020850137506000828201602090810191909152601f909101601f19169091010190565b600060018060a01b03808c168352602060c08185015261389660c085018c8e613849565b828b16604086015284810360608601526138b1818a8c613849565b92505083820360808501526138c7828789613849565b84810360a0860152855180825282870193509082019060005b818110156138fc578451835293830193918301916001016138e0565b50909e9d5050505050505050505050505050565b60006020828403121561392257600080fd5b5051919050565b634e487b7160e01b600052602160045260246000fd5b6000806040838503121561395257600080fd5b505080516020909101519092909150565b60008282101561397557613975613635565b500390565b600082601f83011261398b57600080fd5b815161399961354682613500565b8181528460208386010111156139ae57600080fd5b611567826020830160208701612e88565b80516001600160401b038116811461264757600080fd5b6000602082840312156139e857600080fd5b81516001600160401b03808211156139ff57600080fd5b908301906101808286031215613a1457600080fd5b613a1c613484565b825182811115613a2b57600080fd5b613a378782860161397a565b825250613a46602084016139bf565b6020820152613a57604084016139bf565b604082015260608301516060820152613a72608084016139bf565b6080820152613a8360a084016137e3565b60a0820152613a9460c084016137e3565b60c082015260e083015182811115613aab57600080fd5b613ab78782860161397a565b60e0830152506101008084015183811115613ad157600080fd5b613add8882870161397a565b8284015250506101208084015183811115613af757600080fd5b613b038882870161397a565b8284015250506101408084015183811115613b1d57600080fd5b613b298882870161397a565b8284015250506101608084015183811115613b4357600080fd5b613b4f8882870161397a565b918301919091525095945050505050565b600060208284031215613b7257600080fd5b81516001600160401b0380821115613b8957600080fd5b908301906101408286031215613b9e57600080fd5b613ba66134ad565b825182811115613bb557600080fd5b613bc18782860161397a565b825250602083015182811115613bd657600080fd5b613be28782860161397a565b602083015250604083015182811115613bfa57600080fd5b613c068782860161397a565b604083015250606083015182811115613c1e57600080fd5b613c2a8782860161397a565b606083015250608083015182811115613c4257600080fd5b613c4e8782860161397a565b60808301525060a083015182811115613c6657600080fd5b613c728782860161397a565b60a08301525060c083015182811115613c8a57600080fd5b613c968782860161397a565b60c08301525060e083015182811115613cae57600080fd5b613cba8782860161397a565b60e0830152506101008084015183811115613cd457600080fd5b613ce08882870161397a565b8284015250506101209150613cf68284016137bb565b91810191909152949350505050565b60008219821115613d1857613d18613635565b500190565b6454434f322d60d81b815260008351613d3d816005850160208801612e88565b602d60f81b6005918401918201528351613d5e816006840160208801612e88565b01600601949350505050565b600080600060608486031215613d7f57600080fd5b8351925060208401519150604084015160078110613d9c57600080fd5b809150509250925092565b60018060a01b038616815284602082015283604082015260a060608201526000613dd460a0830185612eb4565b905082151560808301529695505050505050565b600181811c90821680613dfc57607f821691505b602082108103613e1c57634e487b7160e01b600052602260045260246000fd5b5091905056fea2646970667358221220a3202b30f4b65e5953afb0d95eab672c32e242052068246cb16318ce624075c364736f6c634300080e0033",
  "devdoc": {
    "details": "Each TCO2 contract is deployed via a Beacon Proxy in `ToucanCarbonOffsetsFactory`",
    "kind": "dev",
    "methods": {
      "allowance(address,address)": {
        "details": "See {IERC20-allowance}."
      },
      "approve(address,uint256)": {
        "details": "See {IERC20-approve}. NOTE: If `amount` is the maximum `uint256`, the allowance is not updated on `transferFrom`. This is semantically equivalent to an infinite approval. Requirements: - `spender` cannot be the zero address."
      },
      "balanceOf(address)": {
        "details": "See {IERC20-balanceOf}."
      },
      "bridgeBurn(address,uint256)": {
        "params": {
          "account": "The user for whom to burn TCO2",
          "amount": "The amount to burn."
        }
      },
      "bridgeMint(address,uint256)": {
        "params": {
          "account": "The user for whom to mint TCO2",
          "amount": "The amount to mint."
        }
      },
      "burnFrom(address,uint256)": {
        "params": {
          "account": "The user for whom to burn TCO2",
          "amount": "The amount to burn"
        }
      },
      "decimals()": {
        "details": "Returns the number of decimals used to get its user representation. For example, if `decimals` equals `2`, a balance of `505` tokens should be displayed to a user as `5.05` (`505 / 10 ** 2`). Tokens usually opt for a value of 18, imitating the relationship between Ether and Wei. This is the default value returned by this function, unless it's overridden. NOTE: This information is only used for _display_ purposes: it in no way affects any of the arithmetic of the contract, including {IERC20-balanceOf} and {IERC20-transfer}."
      },
      "decreaseAllowance(address,uint256)": {
        "details": "Atomically decreases the allowance granted to `spender` by the caller. This is an alternative to {approve} that can be used as a mitigation for problems described in {IERC20-approve}. Emits an {Approval} event indicating the updated allowance. Requirements: - `spender` cannot be the zero address. - `spender` must have allowance for the caller of at least `subtractedValue`."
      },
      "defractionalize(uint256)": {
        "params": {
          "tokenId": "The batch NFT to defractionalize from the TCO2"
        }
      },
      "getAttributes()": {
        "details": "Function to get corresponding attributes from the CarbonProjects"
      },
      "getDepositCap()": {
        "details": "Returns the cap for TCO2s based on `totalVintageQuantity` Returns `~unlimited` if the value for the vintage is not set"
      },
      "getGlobalProjectVintageIdentifiers()": {
        "details": "Helper function to retrieve data fragments for `name()` and `symbol()`"
      },
      "getRemaining()": {
        "details": "Returns the remaining space in TCO2 contract before hitting the cap"
      },
      "increaseAllowance(address,uint256)": {
        "details": "Atomically increases the allowance granted to `spender` by the caller. This is an alternative to {approve} that can be used as a mitigation for problems described in {IERC20-approve}. Emits an {Approval} event indicating the updated allowance. Requirements: - `spender` cannot be the zero address."
      },
      "mintCertificateLegacy(string,address,string,string)": {
        "params": {
          "beneficiary": "The address of the beneficiary of the retirement",
          "beneficiaryString": "An identifiable string for the beneficiary, eg. their name",
          "retirementMessage": "A message to be included in the retirement certificate",
          "retiringEntityString": "An identifiable string for the retiring entity, eg. their name"
        }
      },
      "onERC721Received(address,address,uint256,bytes)": {
        "details": "Function is called with `operator` as `msg.sender` in a reference implementation by OZ `from` is the previous owner, not necessarily the same as operator. The hook checks if NFT collection is whitelisted and next if attributes are matching this ERC20 contract"
      },
      "retireAndMintCertificate(string,address,string,string,uint256)": {
        "params": {
          "amount": "The amount to retire and issue an NFT certificate for",
          "beneficiary": "The address of the beneficiary of the retirement",
          "beneficiaryString": "An identifiable string for the beneficiary, eg. their name",
          "retirementMessage": "A message to be included in the retirement certificate",
          "retiringEntityString": "An identifiable string for the retiring entity, eg. their name"
        }
      },
      "retireFrom(address,uint256)": {
        "details": "Allow for pools or third party contracts to retire for the user Requires approval"
      },
      "standardRegistry()": {
        "details": "this must be overridden in the child contract"
      },
      "standardRegistryDecimals()": {
        "details": "this must be overridden in the child contract"
      },
      "totalSupply()": {
        "details": "See {IERC20-totalSupply}."
      }
    },
    "stateVariables": {
      "VERSION": {
        "details": "Version-related parameters. VERSION keeps track of production releases. VERSION_RELEASE_CANDIDATE keeps track of iterations of a VERSION in our staging environment."
      }
    },
    "version": 1
  },
  "userdoc": {
    "kind": "user",
    "methods": {
      "bridgeBurn(address,uint256)": {
        "notice": "Burn TCO2 on behalf of a user. msg.sender does not require approval by the account for the burn to be successfull. This function is exposed so it can be utilized in cross-chain transfers of TCO2 where we want to burn the TCO2 in the source chain but not retire it."
      },
      "bridgeMint(address,uint256)": {
        "notice": "Mint TCO2 on behalf of a user. This function is exposed to be called by authorized message bridge systems and utilized for cross-chain transfers of TCO2 where we want to mint the TCO2 in the source chain."
      },
      "burnFrom(address,uint256)": {
        "notice": "Burn TCO2 on behalf of a user. msg.sender needs to be approved by the account for the burn to be successfull. This function is exposed so it can be utilized to burn credits without retiring them (eg. dispose HFC-23)."
      },
      "defractionalize(uint256)": {
        "notice": "Defractionalize batch NFT by burning the amount of TCO2 from the sender and transfer the batch NFT that was selected to the sender. The only valid sender currently is the TCO2 factory owner."
      },
      "mintCertificateLegacy(string,address,string,string)": {
        "notice": "Mint an NFT showing how many tonnes of CO2 have been retired/cancelled Going forward users should mint NFT directly in the RetirementCertificates contract. Note that this information is publicly written to the blockchain in plaintext."
      },
      "name()": {
        "notice": "Token name getter overriden to return the a name based on the carbon project data"
      },
      "onERC721Received(address,address,uint256,bytes)": {
        "notice": "Receive hook to fractionalize Batch-NFTs into ERC20's"
      },
      "retire(uint256)": {
        "notice": "Retirement/Cancellation of TCO2 tokens (the actual offsetting), which results in the tokens being burnt"
      },
      "retireAndMintCertificate(string,address,string,string,uint256)": {
        "notice": "Retire an amount of TCO2s and mint a RetirementCertificate NFT. Note that this information is publicly written to the blockchain in plaintext."
      },
      "standardRegistry()": {
        "notice": "Return the name of the registry that this factory is enabling to tokenize, eg., verra"
      },
      "standardRegistryDecimals()": {
        "notice": "Return the minimum precision supported by the registry"
      },
      "symbol()": {
        "notice": "Token symbol getter overriden to return the a symbol based on the carbon project data"
      }
    },
    "notice": "Implementation contract of the TCO2 tokens (ERC20) These tokenized carbon offsets are specific to a vintage and its associated attributes In order to mint TCO2s a user must deposit a matching CarbonOffsetBatch",
    "version": 1
  },
  "storageLayout": {
    "storage": [
      {
        "astId": 2373,
        "contract": "contracts/ToucanCarbonOffsets.sol:ToucanCarbonOffsets",
        "label": "_initialized",
        "offset": 0,
        "slot": "0",
        "type": "t_uint8"
      },
      {
        "astId": 2376,
        "contract": "contracts/ToucanCarbonOffsets.sol:ToucanCarbonOffsets",
        "label": "_initializing",
        "offset": 1,
        "slot": "0",
        "type": "t_bool"
      },
      {
        "astId": 7515,
        "contract": "contracts/ToucanCarbonOffsets.sol:ToucanCarbonOffsets",
        "label": "__gap",
        "offset": 0,
        "slot": "1",
        "type": "t_array(t_uint256)50_storage"
      },
      {
        "astId": 4507,
        "contract": "contracts/ToucanCarbonOffsets.sol:ToucanCarbonOffsets",
        "label": "_balances",
        "offset": 0,
        "slot": "51",
        "type": "t_mapping(t_address,t_uint256)"
      },
      {
        "astId": 4513,
        "contract": "contracts/ToucanCarbonOffsets.sol:ToucanCarbonOffsets",
        "label": "_allowances",
        "offset": 0,
        "slot": "52",
        "type": "t_mapping(t_address,t_mapping(t_address,t_uint256))"
      },
      {
        "astId": 4515,
        "contract": "contracts/ToucanCarbonOffsets.sol:ToucanCarbonOffsets",
        "label": "_totalSupply",
        "offset": 0,
        "slot": "53",
        "type": "t_uint256"
      },
      {
        "astId": 4517,
        "contract": "contracts/ToucanCarbonOffsets.sol:ToucanCarbonOffsets",
        "label": "_name",
        "offset": 0,
        "slot": "54",
        "type": "t_string_storage"
      },
      {
        "astId": 4519,
        "contract": "contracts/ToucanCarbonOffsets.sol:ToucanCarbonOffsets",
        "label": "_symbol",
        "offset": 0,
        "slot": "55",
        "type": "t_string_storage"
      },
      {
        "astId": 5099,
        "contract": "contracts/ToucanCarbonOffsets.sol:ToucanCarbonOffsets",
        "label": "__gap",
        "offset": 0,
        "slot": "56",
        "type": "t_array(t_uint256)45_storage"
      },
      {
        "astId": 21088,
        "contract": "contracts/ToucanCarbonOffsets.sol:ToucanCarbonOffsets",
        "label": "_projectVintageTokenId",
        "offset": 0,
        "slot": "101",
        "type": "t_uint256"
      },
      {
        "astId": 21090,
        "contract": "contracts/ToucanCarbonOffsets.sol:ToucanCarbonOffsets",
        "label": "contractRegistry",
        "offset": 0,
        "slot": "102",
        "type": "t_address"
      },
      {
        "astId": 21094,
        "contract": "contracts/ToucanCarbonOffsets.sol:ToucanCarbonOffsets",
        "label": "minterToId",
        "offset": 0,
        "slot": "103",
        "type": "t_mapping(t_address,t_uint256)"
      },
      {
        "astId": 21099,
        "contract": "contracts/ToucanCarbonOffsets.sol:ToucanCarbonOffsets",
        "label": "retiredAmount",
        "offset": 0,
        "slot": "104",
        "type": "t_mapping(t_address,t_uint256)"
      }
    ],
    "types": {
      "t_address": {
        "encoding": "inplace",
        "label": "address",
        "numberOfBytes": "20"
      },
      "t_array(t_uint256)45_storage": {
        "base": "t_uint256",
        "encoding": "inplace",
        "label": "uint256[45]",
        "numberOfBytes": "1440"
      },
      "t_array(t_uint256)50_storage": {
        "base": "t_uint256",
        "encoding": "inplace",
        "label": "uint256[50]",
        "numberOfBytes": "1600"
      },
      "t_bool": {
        "encoding": "inplace",
        "label": "bool",
        "numberOfBytes": "1"
      },
      "t_mapping(t_address,t_mapping(t_address,t_uint256))": {
        "encoding": "mapping",
        "key": "t_address",
        "label": "mapping(address => mapping(address => uint256))",
        "numberOfBytes": "32",
        "value": "t_mapping(t_address,t_uint256)"
      },
      "t_mapping(t_address,t_uint256)": {
        "encoding": "mapping",
        "key": "t_address",
        "label": "mapping(address => uint256)",
        "numberOfBytes": "32",
        "value": "t_uint256"
      },
      "t_string_storage": {
        "encoding": "bytes",
        "label": "string",
        "numberOfBytes": "32"
      },
      "t_uint256": {
        "encoding": "inplace",
        "label": "uint256",
        "numberOfBytes": "32"
      },
      "t_uint8": {
        "encoding": "inplace",
        "label": "uint8",
        "numberOfBytes": "1"
      }
    }
  }
}