{
  "address": "0x374C515f63f25FF460b445EA134364C4F73471F9",
  "abi": [
    {
      "anonymous": false,
      "inputs": [
        {
          "indexed": false,
          "internalType": "address",
          "name": "tco2",
          "type": "address"
        }
      ],
      "name": "AddFeeExemptedTCO2",
      "type": "event"
    },
    {
      "anonymous": false,
      "inputs": [
        {
          "indexed": false,
          "internalType": "address",
          "name": "previousAdmin",
          "type": "address"
        },
        {
          "indexed": false,
          "internalType": "address",
          "name": "newAdmin",
          "type": "address"
        }
      ],
      "name": "AdminChanged",
      "type": "event"
    },
    {
      "anonymous": false,
      "inputs": [
        {
          "indexed": true,
          "internalType": "address",
          "name": "owner",
          "type": "address"
        },
        {
          "indexed": true,
          "internalType": "address",
          "name": "spender",
          "type": "address"
        },
        {
          "indexed": false,
          "internalType": "uint256",
          "name": "value",
          "type": "uint256"
        }
      ],
      "name": "Approval",
      "type": "event"
    },
    {
      "anonymous": false,
      "inputs": [
        {
          "indexed": true,
          "internalType": "address",
          "name": "beacon",
          "type": "address"
        }
      ],
      "name": "BeaconUpgraded",
      "type": "event"
    },
    {
      "anonymous": false,
      "inputs": [
        {
          "indexed": false,
          "internalType": "address",
          "name": "depositor",
          "type": "address"
        },
        {
          "indexed": false,
          "internalType": "uint256",
          "name": "fees",
          "type": "uint256"
        }
      ],
      "name": "DepositFeePaid",
      "type": "event"
    },
    {
      "anonymous": false,
      "inputs": [
        {
          "indexed": false,
          "internalType": "address",
          "name": "erc1155Addr",
          "type": "address"
        },
        {
          "indexed": false,
          "internalType": "uint256",
          "name": "tokenId",
          "type": "uint256"
        },
        {
          "indexed": false,
          "internalType": "uint256",
          "name": "amount",
          "type": "uint256"
        }
      ],
      "name": "ERC1155Deposited",
      "type": "event"
    },
    {
      "anonymous": false,
      "inputs": [
        {
          "indexed": false,
          "internalType": "address",
          "name": "account",
          "type": "address"
        },
        {
          "indexed": false,
          "internalType": "address",
          "name": "erc1155Addr",
          "type": "address"
        },
        {
          "indexed": false,
          "internalType": "uint256",
          "name": "tokenId",
          "type": "uint256"
        },
        {
          "indexed": false,
          "internalType": "uint256",
          "name": "amount",
          "type": "uint256"
        }
      ],
      "name": "ERC1155Redeemed",
      "type": "event"
    },
    {
      "anonymous": false,
      "inputs": [
        {
          "indexed": false,
          "internalType": "address",
          "name": "feeCalculator",
          "type": "address"
        }
      ],
      "name": "FeeCalculatorUpdated",
      "type": "event"
    },
    {
      "anonymous": false,
      "inputs": [
        {
          "indexed": false,
          "internalType": "address",
          "name": "filter",
          "type": "address"
        }
      ],
      "name": "FilterUpdated",
      "type": "event"
    },
    {
      "anonymous": false,
      "inputs": [
        {
          "indexed": false,
          "internalType": "uint8",
          "name": "version",
          "type": "uint8"
        }
      ],
      "name": "Initialized",
      "type": "event"
    },
    {
      "anonymous": false,
      "inputs": [
        {
          "indexed": true,
          "internalType": "address",
          "name": "previousOwner",
          "type": "address"
        },
        {
          "indexed": true,
          "internalType": "address",
          "name": "newOwner",
          "type": "address"
        }
      ],
      "name": "OwnershipTransferred",
      "type": "event"
    },
    {
      "anonymous": false,
      "inputs": [
        {
          "indexed": false,
          "internalType": "address",
          "name": "account",
          "type": "address"
        }
      ],
      "name": "Paused",
      "type": "event"
    },
    {
      "anonymous": false,
      "inputs": [
        {
          "indexed": false,
          "internalType": "uint256",
          "name": "feeBp",
          "type": "uint256"
        }
      ],
      "name": "RedeemBurnFeeUpdated",
      "type": "event"
    },
    {
      "anonymous": false,
      "inputs": [
        {
          "indexed": false,
          "internalType": "address",
          "name": "receiver",
          "type": "address"
        }
      ],
      "name": "RedeemFeeBurnAddressUpdated",
      "type": "event"
    },
    {
      "anonymous": false,
      "inputs": [
        {
          "indexed": false,
          "internalType": "address",
          "name": "redeemer",
          "type": "address"
        },
        {
          "indexed": false,
          "internalType": "uint256",
          "name": "fees",
          "type": "uint256"
        }
      ],
      "name": "RedeemFeeBurnt",
      "type": "event"
    },
    {
      "anonymous": false,
      "inputs": [
        {
          "indexed": false,
          "internalType": "address",
          "name": "exemptedUser",
          "type": "address"
        },
        {
          "indexed": false,
          "internalType": "bool",
          "name": "isExempted",
          "type": "bool"
        }
      ],
      "name": "RedeemFeeExempted",
      "type": "event"
    },
    {
      "anonymous": false,
      "inputs": [
        {
          "indexed": false,
          "internalType": "address",
          "name": "redeemer",
          "type": "address"
        },
        {
          "indexed": false,
          "internalType": "uint256",
          "name": "fees",
          "type": "uint256"
        }
      ],
      "name": "RedeemFeePaid",
      "type": "event"
    },
    {
      "anonymous": false,
      "inputs": [
        {
          "indexed": false,
          "internalType": "address",
          "name": "tco2",
          "type": "address"
        }
      ],
      "name": "RemoveFeeExemptedTCO2",
      "type": "event"
    },
    {
      "anonymous": false,
      "inputs": [
        {
          "indexed": true,
          "internalType": "bytes32",
          "name": "role",
          "type": "bytes32"
        },
        {
          "indexed": true,
          "internalType": "bytes32",
          "name": "previousAdminRole",
          "type": "bytes32"
        },
        {
          "indexed": true,
          "internalType": "bytes32",
          "name": "newAdminRole",
          "type": "bytes32"
        }
      ],
      "name": "RoleAdminChanged",
      "type": "event"
    },
    {
      "anonymous": false,
      "inputs": [
        {
          "indexed": true,
          "internalType": "bytes32",
          "name": "role",
          "type": "bytes32"
        },
        {
          "indexed": true,
          "internalType": "address",
          "name": "account",
          "type": "address"
        },
        {
          "indexed": true,
          "internalType": "address",
          "name": "sender",
          "type": "address"
        }
      ],
      "name": "RoleGranted",
      "type": "event"
    },
    {
      "anonymous": false,
      "inputs": [
        {
          "indexed": true,
          "internalType": "bytes32",
          "name": "role",
          "type": "bytes32"
        },
        {
          "indexed": true,
          "internalType": "address",
          "name": "account",
          "type": "address"
        },
        {
          "indexed": true,
          "internalType": "address",
          "name": "sender",
          "type": "address"
        }
      ],
      "name": "RoleRevoked",
      "type": "event"
    },
    {
      "anonymous": false,
      "inputs": [
        {
          "indexed": false,
          "internalType": "address",
          "name": "erc1155",
          "type": "address"
        },
        {
          "indexed": false,
          "internalType": "uint256",
          "name": "tokenId",
          "type": "uint256"
        },
        {
          "indexed": false,
          "internalType": "uint256",
          "name": "score",
          "type": "uint256"
        }
      ],
      "name": "ScoreUpdated",
      "type": "event"
    },
    {
      "anonymous": false,
      "inputs": [
        {
          "indexed": false,
          "internalType": "uint256",
          "name": "newCap",
          "type": "uint256"
        }
      ],
      "name": "SupplyCapUpdated",
      "type": "event"
    },
    {
      "anonymous": false,
      "inputs": [
        {
          "indexed": true,
          "internalType": "address",
          "name": "from",
          "type": "address"
        },
        {
          "indexed": true,
          "internalType": "address",
          "name": "to",
          "type": "address"
        },
        {
          "indexed": false,
          "internalType": "uint256",
          "name": "value",
          "type": "uint256"
        }
      ],
      "name": "Transfer",
      "type": "event"
    },
    {
      "anonymous": false,
      "inputs": [
        {
          "indexed": false,
          "internalType": "uint8",
          "name": "decimals",
          "type": "uint8"
        }
      ],
      "name": "UnderlyingDecimalsUpdated",
      "type": "event"
    },
    {
      "anonymous": false,
      "inputs": [
        {
          "indexed": false,
          "internalType": "address",
          "name": "account",
          "type": "address"
        }
      ],
      "name": "Unpaused",
      "type": "event"
    },
    {
      "anonymous": false,
      "inputs": [
        {
          "indexed": true,
          "internalType": "address",
          "name": "implementation",
          "type": "address"
        }
      ],
      "name": "Upgraded",
      "type": "event"
    },
    {
      "inputs": [],
      "name": "DEFAULT_ADMIN_ROLE",
      "outputs": [
        {
          "internalType": "bytes32",
          "name": "",
          "type": "bytes32"
        }
      ],
      "stateMutability": "view",
      "type": "function"
    },
    {
      "inputs": [],
      "name": "MANAGER_ROLE",
      "outputs": [
        {
          "internalType": "bytes32",
          "name": "",
          "type": "bytes32"
        }
      ],
      "stateMutability": "view",
      "type": "function"
    },
    {
      "inputs": [],
      "name": "PAUSER_ROLE",
      "outputs": [
        {
          "internalType": "bytes32",
          "name": "",
          "type": "bytes32"
        }
      ],
      "stateMutability": "view",
      "type": "function"
    },
    {
      "inputs": [],
      "name": "VERSION",
      "outputs": [
        {
          "internalType": "string",
          "name": "",
          "type": "string"
        }
      ],
      "stateMutability": "view",
      "type": "function"
    },
    {
      "inputs": [],
      "name": "VERSION_RELEASE_CANDIDATE",
      "outputs": [
        {
          "internalType": "uint256",
          "name": "",
          "type": "uint256"
        }
      ],
      "stateMutability": "view",
      "type": "function"
    },
    {
      "inputs": [
        {
          "internalType": "address",
          "name": "_address",
          "type": "address"
        }
      ],
      "name": "addRedeemFeeExemptedAddress",
      "outputs": [],
      "stateMutability": "nonpayable",
      "type": "function"
    },
    {
      "inputs": [
        {
          "internalType": "address",
          "name": "_tco2",
          "type": "address"
        }
      ],
      "name": "addRedeemFeeExemptedTCO2",
      "outputs": [],
      "stateMutability": "nonpayable",
      "type": "function"
    },
    {
      "inputs": [
        {
          "internalType": "address",
          "name": "owner",
          "type": "address"
        },
        {
          "internalType": "address",
          "name": "spender",
          "type": "address"
        }
      ],
      "name": "allowance",
      "outputs": [
        {
          "internalType": "uint256",
          "name": "",
          "type": "uint256"
        }
      ],
      "stateMutability": "view",
      "type": "function"
    },
    {
      "inputs": [
        {
          "internalType": "address",
          "name": "spender",
          "type": "address"
        },
        {
          "internalType": "uint256",
          "name": "amount",
          "type": "uint256"
        }
      ],
      "name": "approve",
      "outputs": [
        {
          "internalType": "bool",
          "name": "",
          "type": "bool"
        }
      ],
      "stateMutability": "nonpayable",
      "type": "function"
    },
    {
      "inputs": [
        {
          "internalType": "address",
          "name": "account",
          "type": "address"
        }
      ],
      "name": "balanceOf",
      "outputs": [
        {
          "internalType": "uint256",
          "name": "",
          "type": "uint256"
        }
      ],
      "stateMutability": "view",
      "type": "function"
    },
    {
      "inputs": [
        {
          "internalType": "address",
          "name": "erc1155",
          "type": "address"
        },
        {
          "internalType": "uint256",
          "name": "tokenId",
          "type": "uint256"
        },
        {
          "internalType": "uint256",
          "name": "amount",
          "type": "uint256"
        }
      ],
      "name": "calculateDepositAdjustedAmount",
      "outputs": [
        {
          "internalType": "uint256",
          "name": "adjustedAmount",
          "type": "uint256"
        }
      ],
      "stateMutability": "view",
      "type": "function"
    },
    {
      "inputs": [
        {
          "internalType": "address",
          "name": "erc1155",
          "type": "address"
        },
        {
          "internalType": "uint256",
          "name": "tokenId",
          "type": "uint256"
        },
        {
          "internalType": "uint256",
          "name": "amount",
          "type": "uint256"
        }
      ],
      "name": "calculateDepositFees",
      "outputs": [
        {
          "internalType": "uint256",
          "name": "feeDistributionTotal",
          "type": "uint256"
        }
      ],
      "stateMutability": "view",
      "type": "function"
    },
    {
      "inputs": [
        {
          "internalType": "address",
          "name": "erc1155",
          "type": "address"
        },
        {
          "internalType": "uint256",
          "name": "tokenId",
          "type": "uint256"
        },
        {
          "internalType": "uint256",
          "name": "amount",
          "type": "uint256"
        }
      ],
      "name": "calculateRedeemOutAdjustedAmount",
      "outputs": [
        {
          "internalType": "uint256",
          "name": "adjustedAmount",
          "type": "uint256"
        }
      ],
      "stateMutability": "view",
      "type": "function"
    },
    {
      "inputs": [
        {
          "internalType": "address[]",
          "name": "",
          "type": "address[]"
        },
        {
          "internalType": "uint256[]",
          "name": "",
          "type": "uint256[]"
        },
        {
          "internalType": "uint256[]",
          "name": "",
          "type": "uint256[]"
        },
        {
          "internalType": "bool",
          "name": "",
          "type": "bool"
        }
      ],
      "name": "calculateRedemptionInFees",
      "outputs": [
        {
          "internalType": "uint256",
          "name": "",
          "type": "uint256"
        }
      ],
      "stateMutability": "view",
      "type": "function"
    },
    {
      "inputs": [
        {
          "internalType": "address[]",
          "name": "erc1155s",
          "type": "address[]"
        },
        {
          "internalType": "uint256[]",
          "name": "tokenIds",
          "type": "uint256[]"
        },
        {
          "internalType": "uint256[]",
          "name": "amounts",
          "type": "uint256[]"
        },
        {
          "internalType": "bool",
          "name": "toRetire",
          "type": "bool"
        }
      ],
      "name": "calculateRedemptionOutFees",
      "outputs": [
        {
          "internalType": "uint256",
          "name": "feeDistributionTotal",
          "type": "uint256"
        }
      ],
      "stateMutability": "view",
      "type": "function"
    },
    {
      "inputs": [
        {
          "internalType": "address",
          "name": "erc1155",
          "type": "address"
        },
        {
          "internalType": "uint256",
          "name": "tokenId",
          "type": "uint256"
        }
      ],
      "name": "checkEligible",
      "outputs": [
        {
          "internalType": "bool",
          "name": "isEligible",
          "type": "bool"
        }
      ],
      "stateMutability": "view",
      "type": "function"
    },
    {
      "inputs": [],
      "name": "decimals",
      "outputs": [
        {
          "internalType": "uint8",
          "name": "",
          "type": "uint8"
        }
      ],
      "stateMutability": "view",
      "type": "function"
    },
    {
      "inputs": [
        {
          "internalType": "address",
          "name": "spender",
          "type": "address"
        },
        {
          "internalType": "uint256",
          "name": "subtractedValue",
          "type": "uint256"
        }
      ],
      "name": "decreaseAllowance",
      "outputs": [
        {
          "internalType": "bool",
          "name": "",
          "type": "bool"
        }
      ],
      "stateMutability": "nonpayable",
      "type": "function"
    },
    {
      "inputs": [
        {
          "internalType": "address",
          "name": "erc1155",
          "type": "address"
        },
        {
          "internalType": "uint256",
          "name": "tokenId",
          "type": "uint256"
        },
        {
          "internalType": "uint256",
          "name": "amount",
          "type": "uint256"
        },
        {
          "internalType": "uint256",
          "name": "maxFee",
          "type": "uint256"
        }
      ],
      "name": "deposit",
      "outputs": [
        {
          "internalType": "uint256",
          "name": "mintedPoolTokenAmount",
          "type": "uint256"
        }
      ],
      "stateMutability": "nonpayable",
      "type": "function"
    },
    {
      "inputs": [],
      "name": "feeCalculator",
      "outputs": [
        {
          "internalType": "contract IFeeCalculator",
          "name": "",
          "type": "address"
        }
      ],
      "stateMutability": "view",
      "type": "function"
    },
    {
      "inputs": [],
      "name": "feeRedeemDivider",
      "outputs": [
        {
          "internalType": "uint256",
          "name": "",
          "type": "uint256"
        }
      ],
      "stateMutability": "view",
      "type": "function"
    },
    {
      "inputs": [],
      "name": "filter",
      "outputs": [
        {
          "internalType": "address",
          "name": "",
          "type": "address"
        }
      ],
      "stateMutability": "view",
      "type": "function"
    },
    {
      "inputs": [],
      "name": "getRemaining",
      "outputs": [
        {
          "internalType": "uint256",
          "name": "",
          "type": "uint256"
        }
      ],
      "stateMutability": "view",
      "type": "function"
    },
    {
      "inputs": [
        {
          "internalType": "bytes32",
          "name": "role",
          "type": "bytes32"
        }
      ],
      "name": "getRoleAdmin",
      "outputs": [
        {
          "internalType": "bytes32",
          "name": "",
          "type": "bytes32"
        }
      ],
      "stateMutability": "view",
      "type": "function"
    },
    {
      "inputs": [
        {
          "internalType": "bytes32",
          "name": "role",
          "type": "bytes32"
        },
        {
          "internalType": "address",
          "name": "account",
          "type": "address"
        }
      ],
      "name": "grantRole",
      "outputs": [],
      "stateMutability": "nonpayable",
      "type": "function"
    },
    {
      "inputs": [
        {
          "internalType": "bytes32",
          "name": "role",
          "type": "bytes32"
        },
        {
          "internalType": "address",
          "name": "account",
          "type": "address"
        }
      ],
      "name": "hasRole",
      "outputs": [
        {
          "internalType": "bool",
          "name": "",
          "type": "bool"
        }
      ],
      "stateMutability": "view",
      "type": "function"
    },
    {
      "inputs": [
        {
          "internalType": "address",
          "name": "spender",
          "type": "address"
        },
        {
          "internalType": "uint256",
          "name": "addedValue",
          "type": "uint256"
        }
      ],
      "name": "increaseAllowance",
      "outputs": [
        {
          "internalType": "bool",
          "name": "",
          "type": "bool"
        }
      ],
      "stateMutability": "nonpayable",
      "type": "function"
    },
    {
      "inputs": [
        {
          "internalType": "address[]",
          "name": "accounts",
          "type": "address[]"
        },
        {
          "internalType": "bytes32[]",
          "name": "roles",
          "type": "bytes32[]"
        }
      ],
      "name": "initialize",
      "outputs": [],
      "stateMutability": "nonpayable",
      "type": "function"
    },
    {
      "inputs": [
        {
          "internalType": "string",
          "name": "methodology",
          "type": "string"
        }
      ],
      "name": "methodologies",
      "outputs": [
        {
          "internalType": "bool",
          "name": "",
          "type": "bool"
        }
      ],
      "stateMutability": "view",
      "type": "function"
    },
    {
      "inputs": [],
      "name": "minimumVintageStartTime",
      "outputs": [
        {
          "internalType": "uint64",
          "name": "",
          "type": "uint64"
        }
      ],
      "stateMutability": "view",
      "type": "function"
    },
    {
      "inputs": [],
      "name": "name",
      "outputs": [
        {
          "internalType": "string",
          "name": "",
          "type": "string"
        }
      ],
      "stateMutability": "view",
      "type": "function"
    },
    {
      "inputs": [
        {
          "internalType": "address",
          "name": "",
          "type": "address"
        },
        {
          "internalType": "address",
          "name": "",
          "type": "address"
        },
        {
          "internalType": "uint256[]",
          "name": "",
          "type": "uint256[]"
        },
        {
          "internalType": "uint256[]",
          "name": "",
          "type": "uint256[]"
        },
        {
          "internalType": "bytes",
          "name": "",
          "type": "bytes"
        }
      ],
      "name": "onERC1155BatchReceived",
      "outputs": [
        {
          "internalType": "bytes4",
          "name": "",
          "type": "bytes4"
        }
      ],
      "stateMutability": "nonpayable",
      "type": "function"
    },
    {
      "inputs": [
        {
          "internalType": "address",
          "name": "",
          "type": "address"
        },
        {
          "internalType": "address",
          "name": "",
          "type": "address"
        },
        {
          "internalType": "uint256",
          "name": "",
          "type": "uint256"
        },
        {
          "internalType": "uint256",
          "name": "",
          "type": "uint256"
        },
        {
          "internalType": "bytes",
          "name": "",
          "type": "bytes"
        }
      ],
      "name": "onERC1155Received",
      "outputs": [
        {
          "internalType": "bytes4",
          "name": "",
          "type": "bytes4"
        }
      ],
      "stateMutability": "nonpayable",
      "type": "function"
    },
    {
      "inputs": [],
      "name": "owner",
      "outputs": [
        {
          "internalType": "address",
          "name": "",
          "type": "address"
        }
      ],
      "stateMutability": "view",
      "type": "function"
    },
    {
      "inputs": [],
      "name": "pause",
      "outputs": [],
      "stateMutability": "nonpayable",
      "type": "function"
    },
    {
      "inputs": [],
      "name": "paused",
      "outputs": [
        {
          "internalType": "bool",
          "name": "",
          "type": "bool"
        }
      ],
      "stateMutability": "view",
      "type": "function"
    },
    {
      "inputs": [],
      "name": "proxiableUUID",
      "outputs": [
        {
          "internalType": "bytes32",
          "name": "",
          "type": "bytes32"
        }
      ],
      "stateMutability": "view",
      "type": "function"
    },
    {
      "inputs": [
        {
          "internalType": "address",
          "name": "",
          "type": "address"
        }
      ],
      "name": "redeemFeeExemptedAddresses",
      "outputs": [
        {
          "internalType": "bool",
          "name": "",
          "type": "bool"
        }
      ],
      "stateMutability": "view",
      "type": "function"
    },
    {
      "inputs": [
        {
          "internalType": "address",
          "name": "",
          "type": "address"
        }
      ],
      "name": "redeemFeeExemptedTCO2s",
      "outputs": [
        {
          "internalType": "bool",
          "name": "",
          "type": "bool"
        }
      ],
      "stateMutability": "view",
      "type": "function"
    },
    {
      "inputs": [
        {
          "internalType": "address[]",
          "name": "erc1155s",
          "type": "address[]"
        },
        {
          "internalType": "uint256[]",
          "name": "tokenIds",
          "type": "uint256[]"
        },
        {
          "internalType": "uint256[]",
          "name": "amounts",
          "type": "uint256[]"
        },
        {
          "internalType": "uint256",
          "name": "maxFee",
          "type": "uint256"
        }
      ],
      "name": "redeemOutMany",
      "outputs": [
        {
          "internalType": "uint256",
          "name": "poolAmountSpent",
          "type": "uint256"
        }
      ],
      "stateMutability": "nonpayable",
      "type": "function"
    },
    {
      "inputs": [
        {
          "internalType": "string",
          "name": "region",
          "type": "string"
        }
      ],
      "name": "regions",
      "outputs": [
        {
          "internalType": "bool",
          "name": "",
          "type": "bool"
        }
      ],
      "stateMutability": "view",
      "type": "function"
    },
    {
      "inputs": [
        {
          "internalType": "address",
          "name": "_address",
          "type": "address"
        }
      ],
      "name": "removeRedeemFeeExemptedAddress",
      "outputs": [],
      "stateMutability": "nonpayable",
      "type": "function"
    },
    {
      "inputs": [
        {
          "internalType": "address",
          "name": "_tco2",
          "type": "address"
        }
      ],
      "name": "removeRedeemFeeExemptedTCO2",
      "outputs": [],
      "stateMutability": "nonpayable",
      "type": "function"
    },
    {
      "inputs": [],
      "name": "renounceOwnership",
      "outputs": [],
      "stateMutability": "nonpayable",
      "type": "function"
    },
    {
      "inputs": [
        {
          "internalType": "bytes32",
          "name": "role",
          "type": "bytes32"
        },
        {
          "internalType": "address",
          "name": "account",
          "type": "address"
        }
      ],
      "name": "renounceRole",
      "outputs": [],
      "stateMutability": "nonpayable",
      "type": "function"
    },
    {
      "inputs": [
        {
          "internalType": "bytes32",
          "name": "role",
          "type": "bytes32"
        },
        {
          "internalType": "address",
          "name": "account",
          "type": "address"
        }
      ],
      "name": "revokeRole",
      "outputs": [],
      "stateMutability": "nonpayable",
      "type": "function"
    },
    {
      "inputs": [],
      "name": "router",
      "outputs": [
        {
          "internalType": "address",
          "name": "",
          "type": "address"
        }
      ],
      "stateMutability": "view",
      "type": "function"
    },
    {
      "inputs": [
        {
          "internalType": "uint256",
          "name": "",
          "type": "uint256"
        }
      ],
      "name": "scoredTCO2s",
      "outputs": [
        {
          "internalType": "address",
          "name": "",
          "type": "address"
        }
      ],
      "stateMutability": "view",
      "type": "function"
    },
    {
      "inputs": [
        {
          "internalType": "address",
          "name": "erc1155",
          "type": "address"
        },
        {
          "internalType": "uint256",
          "name": "tokenId",
          "type": "uint256"
        }
      ],
      "name": "scores",
      "outputs": [
        {
          "internalType": "uint256",
          "name": "score",
          "type": "uint256"
        }
      ],
      "stateMutability": "view",
      "type": "function"
    },
    {
      "inputs": [
        {
          "internalType": "address",
          "name": "_feeCalculator",
          "type": "address"
        }
      ],
      "name": "setFeeCalculator",
      "outputs": [],
      "stateMutability": "nonpayable",
      "type": "function"
    },
    {
      "inputs": [
        {
          "internalType": "address",
          "name": "feeRedeemBurnAddress_",
          "type": "address"
        }
      ],
      "name": "setFeeRedeemBurnAddress",
      "outputs": [],
      "stateMutability": "nonpayable",
      "type": "function"
    },
    {
      "inputs": [
        {
          "internalType": "uint256",
          "name": "feeRedeemBurnPercentageInBase_",
          "type": "uint256"
        }
      ],
      "name": "setFeeRedeemBurnPercentage",
      "outputs": [],
      "stateMutability": "nonpayable",
      "type": "function"
    },
    {
      "inputs": [
        {
          "internalType": "address",
          "name": "_filter",
          "type": "address"
        }
      ],
      "name": "setFilter",
      "outputs": [],
      "stateMutability": "nonpayable",
      "type": "function"
    },
    {
      "inputs": [
        {
          "internalType": "address[]",
          "name": "erc1155s",
          "type": "address[]"
        },
        {
          "internalType": "uint256[]",
          "name": "tokenIds",
          "type": "uint256[]"
        },
        {
          "internalType": "uint256[]",
          "name": "newScores",
          "type": "uint256[]"
        }
      ],
      "name": "setScores",
      "outputs": [],
      "stateMutability": "nonpayable",
      "type": "function"
    },
    {
      "inputs": [
        {
          "internalType": "uint256",
          "name": "newCap",
          "type": "uint256"
        }
      ],
      "name": "setSupplyCap",
      "outputs": [],
      "stateMutability": "nonpayable",
      "type": "function"
    },
    {
      "inputs": [
        {
          "internalType": "uint8",
          "name": "underlyingDecimals_",
          "type": "uint8"
        }
      ],
      "name": "setUnderlyingDecimals",
      "outputs": [],
      "stateMutability": "nonpayable",
      "type": "function"
    },
    {
      "inputs": [
        {
          "internalType": "string",
          "name": "standard",
          "type": "string"
        }
      ],
      "name": "standards",
      "outputs": [
        {
          "internalType": "bool",
          "name": "",
          "type": "bool"
        }
      ],
      "stateMutability": "view",
      "type": "function"
    },
    {
      "inputs": [],
      "name": "supplyCap",
      "outputs": [
        {
          "internalType": "uint256",
          "name": "",
          "type": "uint256"
        }
      ],
      "stateMutability": "view",
      "type": "function"
    },
    {
      "inputs": [
        {
          "internalType": "bytes4",
          "name": "interfaceId",
          "type": "bytes4"
        }
      ],
      "name": "supportsInterface",
      "outputs": [
        {
          "internalType": "bool",
          "name": "",
          "type": "bool"
        }
      ],
      "stateMutability": "view",
      "type": "function"
    },
    {
      "inputs": [],
      "name": "symbol",
      "outputs": [
        {
          "internalType": "string",
          "name": "",
          "type": "string"
        }
      ],
      "stateMutability": "view",
      "type": "function"
    },
    {
      "inputs": [
        {
          "internalType": "address",
          "name": "erc1155",
          "type": "address"
        },
        {
          "internalType": "uint256",
          "name": "tokenId",
          "type": "uint256"
        }
      ],
      "name": "tokenBalance",
      "outputs": [
        {
          "internalType": "uint256",
          "name": "balance",
          "type": "uint256"
        }
      ],
      "stateMutability": "view",
      "type": "function"
    },
    {
      "inputs": [
        {
          "internalType": "address",
          "name": "erc1155",
          "type": "address"
        },
        {
          "internalType": "uint256",
          "name": "tokenId",
          "type": "uint256"
        }
      ],
      "name": "totalPerProjectSupply",
      "outputs": [
        {
          "internalType": "uint256",
          "name": "",
          "type": "uint256"
        }
      ],
      "stateMutability": "view",
      "type": "function"
    },
    {
      "inputs": [
        {
          "internalType": "uint256",
          "name": "",
          "type": "uint256"
        }
      ],
      "name": "totalProjectSupply",
      "outputs": [
        {
          "internalType": "uint256",
          "name": "",
          "type": "uint256"
        }
      ],
      "stateMutability": "view",
      "type": "function"
    },
    {
      "inputs": [],
      "name": "totalSupply",
      "outputs": [
        {
          "internalType": "uint256",
          "name": "",
          "type": "uint256"
        }
      ],
      "stateMutability": "view",
      "type": "function"
    },
    {
      "inputs": [],
      "name": "totalUnderlyingSupply",
      "outputs": [
        {
          "internalType": "uint256",
          "name": "",
          "type": "uint256"
        }
      ],
      "stateMutability": "view",
      "type": "function"
    },
    {
      "inputs": [
        {
          "internalType": "address",
          "name": "recipient",
          "type": "address"
        },
        {
          "internalType": "uint256",
          "name": "amount",
          "type": "uint256"
        }
      ],
      "name": "transfer",
      "outputs": [
        {
          "internalType": "bool",
          "name": "",
          "type": "bool"
        }
      ],
      "stateMutability": "nonpayable",
      "type": "function"
    },
    {
      "inputs": [
        {
          "internalType": "address",
          "name": "sender",
          "type": "address"
        },
        {
          "internalType": "address",
          "name": "recipient",
          "type": "address"
        },
        {
          "internalType": "uint256",
          "name": "amount",
          "type": "uint256"
        }
      ],
      "name": "transferFrom",
      "outputs": [
        {
          "internalType": "bool",
          "name": "",
          "type": "bool"
        }
      ],
      "stateMutability": "nonpayable",
      "type": "function"
    },
    {
      "inputs": [
        {
          "internalType": "address",
          "name": "newOwner",
          "type": "address"
        }
      ],
      "name": "transferOwnership",
      "outputs": [],
      "stateMutability": "nonpayable",
      "type": "function"
    },
    {
      "inputs": [],
      "name": "underlyingDecimals",
      "outputs": [
        {
          "internalType": "uint8",
          "name": "",
          "type": "uint8"
        }
      ],
      "stateMutability": "view",
      "type": "function"
    },
    {
      "inputs": [],
      "name": "unpause",
      "outputs": [],
      "stateMutability": "nonpayable",
      "type": "function"
    },
    {
      "inputs": [
        {
          "internalType": "address",
          "name": "newImplementation",
          "type": "address"
        }
      ],
      "name": "upgradeTo",
      "outputs": [],
      "stateMutability": "nonpayable",
      "type": "function"
    },
    {
      "inputs": [
        {
          "internalType": "address",
          "name": "newImplementation",
          "type": "address"
        },
        {
          "internalType": "bytes",
          "name": "data",
          "type": "bytes"
        }
      ],
      "name": "upgradeToAndCall",
      "outputs": [],
      "stateMutability": "payable",
      "type": "function"
    }
  ],
  "numDeployments": 2,
  "solcInputHash": "5df3e9a8250ef30a40fa80a22582ca8e",
  "bytecode": "0x60a0604052306080523480156200001557600080fd5b506200002062000026565b62000156565b6200003260ff62000035565b50565b60008054610100900460ff1615620000ce578160ff1660011480156200006e57506200006c306200014760201b620020501760201c565b155b620000c65760405162461bcd60e51b815260206004820152602e60248201526000805160206200548683398151915260448201526d191e481a5b9a5d1a585b1a5e995960921b60648201526084015b60405180910390fd5b506000919050565b60005460ff8084169116106200012d5760405162461bcd60e51b815260206004820152602e60248201526000805160206200548683398151915260448201526d191e481a5b9a5d1a585b1a5e995960921b6064820152608401620000bd565b506000805460ff191660ff92909216919091179055600190565b6001600160a01b03163b151590565b6080516152f86200018e60003960008181610fdd0152818161101d015281816112b0015281816112f0015261137f01526152f86000f3fe60806040526004361061041b5760003560e01c80638662522f1161021e578063ce88b43911610123578063e63ab1e9116100ab578063f2fde38b1161007a578063f2fde38b14610ce6578063f3edb9ec14610d06578063f75991cd14610d26578063f887ea4014610d46578063ffa1ad7414610d6757600080fd5b8063e63ab1e914610c32578063e77be52114610c66578063ec87621c14610c86578063f23a6e6114610cba57600080fd5b8063dd62ed3e116100f2578063dd62ed3e14610bbc578063e07f744c14610bdc578063e0d7cad914610bfc578063e472076b14610c12578063e6085b861461089257600080fd5b8063ce88b43914610b47578063d547741f14610b67578063d6a022b814610b87578063d80e05aa14610b9c57600080fd5b8063a217fddf116101a6578063b00eb9fe11610175578063b00eb9fe14610a81578063b6a3f59a14610aa2578063bab5adc314610ac2578063bc197c8114610ae2578063be46d0d514610b2757600080fd5b8063a217fddf14610a0c578063a457c2d714610a21578063a9059cbb14610a41578063ad17b00f14610a6157600080fd5b806391d14854116101ed57806391d148541461095c57806395d89b411461097c578063963ff55e1461099157806398010565146109b1578063a1631e4b146109df57600080fd5b80638662522f146108e75780638c66d04f146109075780638da5cb5b146109275780638f770ad01461094557600080fd5b8063366d1624116103245780635fadcc1e116102ac57806370a082311161027b57806370a0823114610847578063715018a61461087d5780637332d0361461089257806379255ddd146108b25780638456cb59146108d257600080fd5b80635fadcc1e146107b95780636a55fff5146107f25780636ca0b0d7146108125780636dbb31021461082757600080fd5b80634642547b116102f35780634642547b1461073957806348c21d56146107595780634f1ef2861461077957806352d1902d1461078c5780635c975abb146107a157600080fd5b8063366d1624146106c457806339509351146106e45780633ebc2df1146107045780633f4ba83a1461072457600080fd5b8063248a9ca3116103a75780632cddcdd5116103765780632cddcdd5146106305780632f2ff15d14610650578063313ce5671461067057806336568abe146106845780633659cfe6146106a457600080fd5b8063248a9ca31461056457806325a760c21461059457806327872012146105bb5780632b540f19146105ff57600080fd5b80630b9fbf45116103ee5780630b9fbf45146104b95780630e2d15ab146104d9578063143a08d41461050a57806318160ddd1461052f57806323b872dd1461054457600080fd5b806301ffc9a71461042057806306fdde0314610455578063095ea7b3146104775780630b7d28c714610497575b600080fd5b34801561042c57600080fd5b5061044061043b366004614213565b610d98565b60405190151581526020015b60405180910390f35b34801561046157600080fd5b5061046a610da9565b60405161044c9190614269565b34801561048357600080fd5b506104406104923660046142b1565b610e3b565b3480156104a357600080fd5b506104b76104b23660046142dd565b610e53565b005b3480156104c557600080fd5b506104406104d43660046142b1565b610ebe565b3480156104e557600080fd5b506104406104f43660046142dd565b6101a06020526000908152604090205460ff1681565b34801561051657600080fd5b506105216101a65481565b60405190815260200161044c565b34801561053b57600080fd5b50603554610521565b34801561055057600080fd5b5061044061055f3660046142fa565b610edb565b34801561057057600080fd5b5061052161057f36600461433b565b600090815260fb602052604090206001015490565b3480156105a057600080fd5b506101aa5460ff165b60405160ff909116815260200161044c565b3480156105c757600080fd5b506105216105d63660046142b1565b6001600160a01b039190911660009081526101a860209081526040808320938352929052205490565b34801561060b57600080fd5b5061044061061a3660046142dd565b6101a16020526000908152604090205460ff1681565b34801561063c57600080fd5b5061052161064b3660046142b1565b610efe565b34801561065c57600080fd5b506104b761066b366004614354565b610f26565b34801561067c57600080fd5b5060126105a9565b34801561069057600080fd5b506104b761069f366004614354565b610f50565b3480156106b057600080fd5b506104b76106bf3660046142dd565b610fd3565b3480156106d057600080fd5b506105216106df3660046144e7565b6110b2565b3480156106f057600080fd5b506104406106ff3660046142b1565b6110df565b34801561071057600080fd5b506104b761071f3660046142dd565b611101565b34801561073057600080fd5b506104b7611158565b34801561074557600080fd5b506104b76107543660046142dd565b61118b565b34801561076557600080fd5b50610521610774366004614581565b6111eb565b6104b7610787366004614688565b6112a6565b34801561079857600080fd5b50610521611372565b3480156107ad57600080fd5b5060975460ff16610440565b3480156107c557600080fd5b506101a4546107da906001600160a01b031681565b6040516001600160a01b03909116815260200161044c565b3480156107fe57600080fd5b5061052161080d3660046142b1565b611425565b34801561081e57600080fd5b50610521600281565b34801561083357600080fd5b506104b76108423660046142dd565b611495565b34801561085357600080fd5b506105216108623660046142dd565b6001600160a01b031660009081526033602052604090205490565b34801561088957600080fd5b506104b76114f2565b34801561089e57600080fd5b506105216108ad3660046146d7565b611556565b3480156108be57600080fd5b506104b76108cd36600461433b565b611583565b3480156108de57600080fd5b506104b76115fd565b3480156108f357600080fd5b5061044061090236600461470c565b61162e565b34801561091357600080fd5b506104b76109223660046142dd565b6116a3565b34801561093357600080fd5b506065546001600160a01b03166107da565b34801561095157600080fd5b506105216101915481565b34801561096857600080fd5b50610440610977366004614354565b6116fa565b34801561098857600080fd5b5061046a611725565b34801561099d57600080fd5b506107da6109ac36600461433b565b611734565b3480156109bd57600080fd5b506105216109cc36600461433b565b6101a76020526000908152604090205481565b3480156109eb57600080fd5b506109f461175f565b6040516001600160401b03909116815260200161044c565b348015610a1857600080fd5b50610521600081565b348015610a2d57600080fd5b50610440610a3c3660046142b1565b6117d3565b348015610a4d57600080fd5b50610440610a5c3660046142b1565b611859565b348015610a6d57600080fd5b50610521610a7c3660046146d7565b61186e565b348015610a8d57600080fd5b506101a5546107da906001600160a01b031681565b348015610aae57600080fd5b506104b7610abd36600461433b565b61192a565b348015610ace57600080fd5b506104b7610add3660046147c8565b6119d1565b348015610aee57600080fd5b50610b0e610afd366004614833565b63bc197c8160e01b95945050505050565b6040516001600160e01b0319909116815260200161044c565b348015610b3357600080fd5b506104b7610b423660046148e0565b611a90565b348015610b5357600080fd5b50610521610b62366004614903565b611b18565b348015610b7357600080fd5b506104b7610b82366004614354565b611b91565b348015610b9357600080fd5b50610521611bb6565b348015610ba857600080fd5b506104b7610bb73660046142dd565b611bcf565b348015610bc857600080fd5b50610521610bd736600461493e565b611c29565b348015610be857600080fd5b506104b7610bf73660046142dd565b611c54565b348015610c0857600080fd5b5061052161271081565b348015610c1e57600080fd5b50610521610c2d3660046144e7565b611cec565b348015610c3e57600080fd5b506105217f65d7a28e3265b37a6474929f336521b332c1681b933f6cb9f3376673440d862a81565b348015610c7257600080fd5b506104b7610c8136600461496c565b611d1e565b348015610c9257600080fd5b506105217f241ecf16d79d0f8dbfb92cbc07fe17840425976cf0667f022fe9877caa831b0881565b348015610cc657600080fd5b50610b0e610cd5366004614a05565b63f23a6e6160e01b95945050505050565b348015610cf257600080fd5b506104b7610d013660046142dd565b611f20565b348015610d1257600080fd5b50610440610d2136600461470c565b611fe8565b348015610d3257600080fd5b50610440610d4136600461470c565b61201c565b348015610d5257600080fd5b506101a2546107da906001600160a01b031681565b348015610d7357600080fd5b5061046a604051806040016040528060058152602001640312e302e360dc1b81525081565b6000610da38261205f565b92915050565b606060368054610db890614a6d565b80601f0160208091040260200160405190810160405280929190818152602001828054610de490614a6d565b8015610e315780601f10610e0657610100808354040283529160200191610e31565b820191906000526020600020905b815481529060010190602001808311610e1457829003601f168201915b5050505050905090565b600033610e49818585612094565b5060019392505050565b610e5b6121b8565b6001600160a01b03811660008181526101a06020908152604091829020805460ff191660019081179091558251938452908301527f9243c023afac8831ce7d7574176d51e9cbdff271c07285080839f677ff57a6b491015b60405180910390a150565b6000610ed2610ecd848461220e565b61226e565b50600192915050565b6000610ee683612322565b610ef18484846123a5565b50600190505b9392505050565b60006101a76000610f0f85856123be565b815260200190815260200160002054905092915050565b600082815260fb6020526040902060010154610f41816123fe565b610f4b8383612408565b505050565b6001600160a01b0381163314610fc55760405162461bcd60e51b815260206004820152602f60248201527f416363657373436f6e74726f6c3a2063616e206f6e6c792072656e6f756e636560448201526e103937b632b9903337b91039b2b63360891b60648201526084015b60405180910390fd5b610fcf828261248e565b5050565b6001600160a01b037f000000000000000000000000000000000000000000000000000000000000000016300361101b5760405162461bcd60e51b8152600401610fbc90614aa7565b7f00000000000000000000000000000000000000000000000000000000000000006001600160a01b031661106460008051602061527c833981519152546001600160a01b031690565b6001600160a01b03161461108a5760405162461bcd60e51b8152600401610fbc90614af3565b611093816124f5565b604080516000808252602082019092526110af918391906124fd565b50565b6000806110bf8686612668565b90506110d4816110ce86612765565b85612811565b509695505050505050565b600033610e498185856110f28383611c29565b6110fc9190614b55565b612094565b6111096121b8565b6101a480546001600160a01b0319166001600160a01b0383169081179091556040519081527fcc693712a2055d921e821f24fea7e18faff35a4e741d180badc0b05a0c275e6a90602001610eb3565b6111817f65d7a28e3265b37a6474929f336521b332c1681b933f6cb9f3376673440d862a612ae3565b611189612b49565b565b6111936121b8565b6001600160a01b03811660008181526101a060209081526040808320805460ff191690558051938452908301919091527f9243c023afac8831ce7d7574176d51e9cbdff271c07285080839f677ff57a6b49101610eb3565b6101a5546000906001600160a01b031615611239576040805180820190915260028152611a9960f11b6020820152826112375760405162461bcd60e51b8152600401610fbc9190614269565b505b845160011460405180604001604052806002815260200161353360f01b815250906112775760405162461bcd60e51b8152600401610fbc9190614269565b5060006112848686612668565b905061129b8161129386612765565b856000612bdc565b979650505050505050565b6001600160a01b037f00000000000000000000000000000000000000000000000000000000000000001630036112ee5760405162461bcd60e51b8152600401610fbc90614aa7565b7f00000000000000000000000000000000000000000000000000000000000000006001600160a01b031661133760008051602061527c833981519152546001600160a01b031690565b6001600160a01b03161461135d5760405162461bcd60e51b8152600401610fbc90614af3565b611366826124f5565b610fcf828260016124fd565b6000306001600160a01b037f000000000000000000000000000000000000000000000000000000000000000016146114125760405162461bcd60e51b815260206004820152603860248201527f555550535570677261646561626c653a206d757374206e6f742062652063616c60448201527f6c6564207468726f7567682064656c656761746563616c6c00000000000000006064820152608401610fbc565b5060008051602061527c83398151915290565b604051627eeac760e11b8152306004820152602481018290526000906001600160a01b0384169062fdd58e90604401602060405180830381865afa158015611471573d6000803e3d6000fd5b505050506040513d601f19601f82011682018060405250810190610ef79190614b6d565b61149d6121b8565b6001600160a01b03811660008181526101a16020908152604091829020805460ff1916600117905590519182527fbfe78aa03afab7296923112293cb902a2fe6df5a6d3d81e1933c652c4cf860f49101610eb3565b6065546001600160a01b0316331461154c5760405162461bcd60e51b815260206004820181905260248201527f4f776e61626c653a2063616c6c6572206973206e6f7420746865206f776e65726044820152606401610fbc565b6111896000612d5c565b6000611560612dae565b61157b61156d858561220e565b61157684612dee565b612e1c565b949350505050565b61158b6121b8565b604080518082019091526002815261031360f41b602082015261271082106115c65760405162461bcd60e51b8152600401610fbc9190614269565b5061019e8190556040518181527fb53960c69c6a03b9c2457d50976610ab54438aea64f693512228035729dde0e990602001610eb3565b6116267f65d7a28e3265b37a6474929f336521b332c1681b933f6cb9f3376673440d862a612ae3565b611189612e93565b6101a454604051638662522f60e01b81526000916001600160a01b031690638662522f906116629086908690600401614b86565b602060405180830381865afa15801561167f573d6000803e3d6000fd5b505050506040513d601f19601f82011682018060405250810190610ef79190614bb5565b6116ab6121b8565b6101a580546001600160a01b0319166001600160a01b0383169081179091556040519081527f3e762c7e655633ce63121393b9694f9ca1883d14d18f48f1be55e5dc7a9fb6c190602001610eb3565b600091825260fb602090815260408084206001600160a01b0393909316845291905290205460ff1690565b606060378054610db890614a6d565b610194818154811061174557600080fd5b6000918252602090912001546001600160a01b0316905081565b6101a4546040805163a1631e4b60e01b815290516000926001600160a01b03169163a1631e4b9160048083019260209291908290030181865afa1580156117aa573d6000803e3d6000fd5b505050506040513d601f19601f820116820180604052508101906117ce9190614bd2565b905090565b600033816117e18286611c29565b9050838110156118415760405162461bcd60e51b815260206004820152602560248201527f45524332303a2064656372656173656420616c6c6f77616e63652062656c6f77604482015264207a65726f60d81b6064820152608401610fbc565b61184e8286868403612094565b506001949350505050565b600061186483612322565b610e498383612f0e565b6000611878612dae565b6101a5546001600160a01b031661189157506000610ef7565b6101a5546000906001600160a01b031663927542743087876118b288612dee565b6040518563ffffffff1660e01b81526004016118d19493929190614bfb565b600060405180830381865afa1580156118ee573d6000803e3d6000fd5b505050506040513d6000823e601f3d908101601f191682016040526119169190810190614c7f565b905061192181612f1c565b95945050505050565b6119326121b8565b6101aa546000906119479060ff166012614d6c565b61195290600a614e73565b905061195e8183614e98565b15611993576040805180820182526002815261036360f41b6020820152905162461bcd60e51b8152610fbc9190600401614269565b6101918290556040518281527f4e44c8be34d12f1b7f56b13b4bbe97e64ca37a91916f86c73412da80c21748e2906020015b60405180910390a15050565b60006119dd6001612f7a565b905080156119f5576000805461ff0019166101001790555b611a0185858585612ffa565b611a43604051806040016040528060048152602001631491511160e21b815250604051806040016040528060048152602001631491511160e21b81525061302c565b8015611a89576000805461ff0019169055604051600181527f7f26b83ff96e1f2b6a682f133852f6798a09c465da95921460cefb38474024989060200160405180910390a15b5050505050565b611a986121b8565b601260ff8216811015611ad5576040805180820182526002815261353960f01b6020820152905162461bcd60e51b8152610fbc9190600401614269565b6101aa805460ff191660ff84169081179091556040519081527f28ef430cb4208d917fe1e0206ce3bd7c5a262f04fbcc60b7800af7ac8dce3db0906020016119c5565b6101a5546000906001600160a01b031615611b66576040805180820190915260028152611a9960f11b602082015282611b645760405162461bcd60e51b8152600401610fbc9190614269565b505b6000611b72868661220e565b9050611b8781611b8186612dee565b8561307a565b9695505050505050565b600082815260fb6020526040902060010154611bac816123fe565b610f4b838361248e565b6000611bc160355490565b610191546117ce9190614eac565b611bd76121b8565b6001600160a01b03811660008181526101a16020908152604091829020805460ff1916905590519182527fd1fc9d8986829d0ba9df2bc201a2c76327e0f71567b5a2fb82ba464bf4a03f449101610eb3565b6001600160a01b03918216600090815260346020908152604080832093909416825291909152205490565b611c5c6121b8565b604080518082019091526002815261313160f01b60208201526001600160a01b038216611c9c5760405162461bcd60e51b8152600401610fbc9190614269565b5061019d80546001600160a01b0319166001600160a01b0383169081179091556040519081527fe45e1256d720bfcb8dfcc82308efc5ad34e89a7ca19cc500b5c657fcc3359e5590602001610eb3565b6040805180820182526002815261353360f01b6020820152905162461bcd60e51b8152600091610fbc91600401614269565b611d266121b8565b84611d3181856131fa565b611d3b81836131fa565b60005b81811015611f16576000888883818110611d5a57611d5a614ec3565b9050602002016020810190611d6f91906142dd565b90506000878784818110611d8557611d85614ec3565b9050602002013590506000868685818110611da257611da2614ec3565b6001600160a01b03861660009081526101a9602090815260408083208884528252909120549102929092013592505060ff1615611e215760405162461bcd60e51b815260206004820152601960248201527f76696e7461676520616c7265616479206465706f7369746564000000000000006044820152606401610fbc565b604080518082019091526002815261313160f01b60208201526001600160a01b038416611e615760405162461bcd60e51b8152600401610fbc9190614269565b50604080518082019091526002815261353760f01b60208201526064821115611e9d5760405162461bcd60e51b8152600401610fbc9190614269565b506001600160a01b03831660008181526101a8602090815260408083208684528252918290208490558151928352820184905281018290527f91878448ef87c3db4aeb83e60e7deb1240ecae3fd04975ec93547398514cb4ed9060600160405180910390a150505080611f0f90614ed9565b9050611d3e565b5050505050505050565b6065546001600160a01b03163314611f7a5760405162461bcd60e51b815260206004820181905260248201527f4f776e61626c653a2063616c6c6572206973206e6f7420746865206f776e65726044820152606401610fbc565b6001600160a01b038116611fdf5760405162461bcd60e51b815260206004820152602660248201527f4f776e61626c653a206e6577206f776e657220697320746865207a65726f206160448201526564647265737360d01b6064820152608401610fbc565b6110af81612d5c565b6101a454604051633cfb6e7b60e21b81526000916001600160a01b03169063f3edb9ec906116629086908690600401614b86565b6101a45460405163f75991cd60e01b81526000916001600160a01b03169063f75991cd906116629086908690600401614b86565b6001600160a01b03163b151590565b60006001600160e01b03198216630271189760e51b1480610da357506301ffc9a760e01b6001600160e01b0319831614610da3565b6001600160a01b0383166120f65760405162461bcd60e51b8152602060048201526024808201527f45524332303a20617070726f76652066726f6d20746865207a65726f206164646044820152637265737360e01b6064820152608401610fbc565b6001600160a01b0382166121575760405162461bcd60e51b815260206004820152602260248201527f45524332303a20617070726f766520746f20746865207a65726f206164647265604482015261737360f01b6064820152608401610fbc565b6001600160a01b0383811660008181526034602090815260408083209487168084529482529182902085905590518481527f8c5be1e5ebec7d5bd14f71427d1e84f3dd0314c0f7b2291e5b200ac8c7c3b925910160405180910390a3505050565b336121cb6065546001600160a01b031690565b6001600160a01b03161460405180604001604052806002815260200161062760f31b815250906110af5760405162461bcd60e51b8152600401610fbc9190614269565b61223b604051806060016040528060006001600160a01b0316815260200160008152602001600081525090565b6040518060600160405280846001600160a01b0316815260200183815260200161226585856123be565b90529392505050565b6101a45481516020830151604051635eb2324760e11b81526000936001600160a01b03169263bd64648e926122b9926004016001600160a01b03929092168252602082015260400190565b600060405180830381865afa1580156122d6573d6000803e3d6000fd5b505050506040513d6000823e601f3d908101601f191682016040526122fe9190810190614ef2565b805190915015610fcf578060405162461bcd60e51b8152600401610fbc9190614269565b604080518082019091526002815261313960f01b60208201526001600160a01b0382166123625760405162461bcd60e51b8152600401610fbc9190614269565b50604080518082019091526002815261032360f41b60208201526001600160a01b0382163003610fcf5760405162461bcd60e51b8152600401610fbc9190614269565b6000336123b3858285613231565b61184e8585856132a5565b6000826001600160a01b0316633fafa1276040518163ffffffff1660e01b8152600401602060405180830381865afa158015611471573d6000803e3d6000fd5b6110af813361347e565b61241282826116fa565b610fcf57600082815260fb602090815260408083206001600160a01b03851684529091529020805460ff1916600117905561244a3390565b6001600160a01b0316816001600160a01b0316837f2f8788117e7eff1d82e926ec794901d17c78024a50270940304540a733656f0d60405160405180910390a45050565b61249882826116fa565b15610fcf57600082815260fb602090815260408083206001600160a01b0385168085529252808320805460ff1916905551339285917ff6391f5c32d9c69d2a47ea670b442974b53935d1edc7fd64eb21e047a839171b9190a45050565b6110af6121b8565b7f4910fdfa16fed3260ed0e7147f7cc6da11a60208b5b9406d12a635614ffd91435460ff161561253057610f4b836134e2565b826001600160a01b03166352d1902d6040518163ffffffff1660e01b8152600401602060405180830381865afa92505050801561258a575060408051601f3d908101601f1916820190925261258791810190614b6d565b60015b6125ed5760405162461bcd60e51b815260206004820152602e60248201527f45524331393637557067726164653a206e657720696d706c656d656e7461746960448201526d6f6e206973206e6f74205555505360901b6064820152608401610fbc565b60008051602061527c833981519152811461265c5760405162461bcd60e51b815260206004820152602960248201527f45524331393637557067726164653a20756e737570706f727465642070726f786044820152681a58589b195555525160ba1b6064820152608401610fbc565b50610f4b83838361357e565b8151606090806001600160401b0381111561268557612685614384565b6040519080825280602002602001820160405280156126e357816020015b6126d0604051806060016040528060006001600160a01b0316815260200160008152602001600081525090565b8152602001906001900390816126a35790505b50915060005b8181101561275d5761272d85828151811061270657612706614ec3565b602002602001015185838151811061272057612720614ec3565b602002602001015161220e565b83828151811061273f5761273f614ec3565b6020026020010181905250808061275590614ed9565b9150506126e9565b505092915050565b8051606090806001600160401b0381111561278257612782614384565b6040519080825280602002602001820160405280156127ab578160200160208202803683370190505b50915060005b8181101561280a576127db8482815181106127ce576127ce614ec3565b6020026020010151612dee565b8382815181106127ed576127ed614ec3565b60209081029190910101528061280281614ed9565b9150506127b1565b5050919050565b6000612830604051806040016040528060608152602001606081525090565b612838612dae565b604080518082019091526002815261353360f01b602082015283156128705760405162461bcd60e51b8152600401610fbc9190614269565b508451604080518082019091526002815261353360f01b6020820152600182146128ad5760405162461bcd60e51b8152600401610fbc9190614269565b506128b98186516131fa565b6101a5546001600160a01b031615806128e257503360009081526101a0602052604090205460ff165b1561291957505060408051600081830181815260608301845282528251818152602080820190945292820192909252909150612adb565b6000816001600160401b0381111561293357612933614384565b60405190808252806020026020018201604052801561295c578160200160208202803683370190505b5090506000826001600160401b0381111561297957612979614384565b6040519080825280602002602001820160405280156129a2578160200160208202803683370190505b50905060005b83811015612a4d578881815181106129c2576129c2614ec3565b6020026020010151600001518382815181106129e0576129e0614ec3565b60200260200101906001600160a01b031690816001600160a01b031681525050888181518110612a1257612a12614ec3565b602002602001015160200151828281518110612a3057612a30614ec3565b602090810291909101015280612a4581614ed9565b9150506129a8565b506101a5546040516339089a4b60e11b81526001600160a01b0390911690637211349690612a85903090869086908d90600401614f9a565b600060405180830381865afa158015612aa2573d6000803e3d6000fd5b505050506040513d6000823e601f3d908101601f19168201604052612aca9190810190614c7f565b9350612ad584612f1c565b94505050505b935093915050565b612aed81336116fa565b80612b11575033612b066065546001600160a01b031690565b6001600160a01b0316145b604051806040016040528060018152602001603160f81b81525090610fcf5760405162461bcd60e51b8152600401610fbc9190614269565b60975460ff16612b925760405162461bcd60e51b815260206004820152601460248201527314185d5cd8589b194e881b9bdd081c185d5cd95960621b6044820152606401610fbc565b6097805460ff191690557f5db9ee0a495bf2e6ff9c91a7834c1ba4fdd244a5e8aa4e537bd38aeae4b073aa335b6040516001600160a01b03909116815260200160405180910390a1565b60606000612be8612dae565b85518551612bf79082906131fa565b8315612c4257806001600160401b03811115612c1557612c15614384565b604051908082528060200260200182016040528015612c3e578160200160208202803683370190505b5092505b600080612c50898988612811565b91509150612c5e87836135a3565b612c688285614b55565b93508115612c8257612c82816000015182602001516135e3565b60005b83811015612d4f57612caf8a8281518110612ca257612ca2614ec3565b602002602001015161226e565b6000898281518110612cc357612cc3614ec3565b60200260200101519050612cf08b8381518110612ce257612ce2614ec3565b602002602001015182613713565b612cfa9087614b55565b95508715612d3e57612d1f8b8381518110612d1757612d17614ec3565b506000919050565b878381518110612d3157612d31614ec3565b6020026020010181815250505b50612d4881614ed9565b9050612c85565b5050505094509492505050565b606580546001600160a01b038381166001600160a01b0319831681179093556040519116919082907f8be0079c531659141344cd1fd0a4f28419497f9722a3daafe3b4186f6b6457e090600090a35050565b60975460ff1615604051806040016040528060028152602001610c4d60f21b815250906110af5760405162461bcd60e51b8152600401610fbc9190614269565b6101aa54600090601290612e059060ff1682614d6c565b9050612e1281600a614e73565b610ef79084615013565b81516001600160a01b031660009081526101a8602090815260408083208286015184528252808320548151808301909252600282526106a760f31b9282019290925281612e7c5760405162461bcd60e51b8152600401610fbc9190614269565b506064612e898285615013565b61157b9190615032565b60975460ff1615612ed95760405162461bcd60e51b815260206004820152601060248201526f14185d5cd8589b194e881c185d5cd95960821b6044820152606401610fbc565b6097805460ff191660011790557f62e78cea01bee320cd4e420270b5ea74000d11b0c9f74754ebdbfc544b05a258612bbf3390565b600033610e498185856132a5565b80515160208201515160009190612f349082906131fa565b60005b8181101561280a5783602001518181518110612f5557612f55614ec3565b602002602001015183612f689190614b55565b9250612f7381614ed9565b9050612f37565b60008054610100900460ff1615612fb9578160ff166001148015612f9d5750303b155b612d175760405162461bcd60e51b8152600401610fbc90615046565b60005460ff808416911610612fe05760405162461bcd60e51b8152600401610fbc90615046565b506000805460ff191660ff92909216919091179055600190565b61300261374d565b61300a613774565b6130126137a4565b61301a61374d565b613026848484846137d7565b50505050565b600054610100900460ff166130535760405162461bcd60e51b8152600401610fbc90615094565b815161306690603690602085019061417a565b508051610f4b90603790602084019061417a565b6000613084612dae565b61308d8461226e565b6000613097611bb6565b9050806000036130d05760408051808201825260018152603360f81b6020820152905162461bcd60e51b8152610fbc9190600401614269565b808411156130dc578093505b6101a55484906000906001600160a01b0316156131c25760006130ff88846138f2565b905061310a81612f1c565b915061311686836135a3565b6131208284614eac565b81515190935060005b81811015613185576131758360000151828151811061314a5761314a614ec3565b60200260200101518460200151838151811061316857613168614ec3565b6020026020010151613985565b61317e81614ed9565b9050613129565b5060408051338152602081018590527f4658b473764413b8a15e16e464adf1ee318894b37e86cf2fd44a70bca04f6502910160405180910390a150505b6131ce3383838a613a70565b93506131da8787613af9565b6131e687333089613b0b565b6131f08787613ba4565b5050509392505050565b808214610fcf576040805180820182526002815261189960f11b6020820152905162461bcd60e51b8152610fbc9190600401614269565b600061323d8484611c29565b9050600019811461302657818110156132985760405162461bcd60e51b815260206004820152601d60248201527f45524332303a20696e73756666696369656e7420616c6c6f77616e63650000006044820152606401610fbc565b6130268484848403612094565b6001600160a01b0383166133095760405162461bcd60e51b815260206004820152602560248201527f45524332303a207472616e736665722066726f6d20746865207a65726f206164604482015264647265737360d81b6064820152608401610fbc565b6001600160a01b03821661336b5760405162461bcd60e51b815260206004820152602360248201527f45524332303a207472616e7366657220746f20746865207a65726f206164647260448201526265737360e81b6064820152608401610fbc565b613376838383613bfd565b6001600160a01b038316600090815260336020526040902054818110156133ee5760405162461bcd60e51b815260206004820152602660248201527f45524332303a207472616e7366657220616d6f756e7420657863656564732062604482015265616c616e636560d01b6064820152608401610fbc565b6001600160a01b03808516600090815260336020526040808220858503905591851681529081208054849290613425908490614b55565b92505081905550826001600160a01b0316846001600160a01b03167fddf252ad1be2c89b69c2b068fc378daa952ba7f163c4a11628f55a4df523b3ef8460405161347191815260200190565b60405180910390a3613026565b61348882826116fa565b610fcf576134a0816001600160a01b03166014613c05565b6134ab836020613c05565b6040516020016134bc9291906150df565b60408051601f198184030181529082905262461bcd60e51b8252610fbc91600401614269565b6001600160a01b0381163b61354f5760405162461bcd60e51b815260206004820152602d60248201527f455243313936373a206e657720696d706c656d656e746174696f6e206973206e60448201526c1bdd08184818dbdb9d1c9858dd609a1b6064820152608401610fbc565b60008051602061527c83398151915280546001600160a01b0319166001600160a01b0392909216919091179055565b61358783613da0565b6000825111806135945750805b15610f4b576130268383613de0565b8115610fcf57604080518082019091526002815261353160f01b602082015282821115610f4b5760405162461bcd60e51b8152600401610fbc9190614269565b6000805b83518110156136b657600083828151811061360457613604614ec3565b60200260200101519050600061271061019e54836136229190615013565b61362c9190615032565b90506136388183614eac565b91506136448185614b55565b935061366986848151811061365b5761365b614ec3565b602002602001015183611859565b5060408051338152602081018490527f3f89e1d936a29a8de9ae9040436992721a00bc63bbe3ca55692b95f0311640b2910160405180910390a15050806136af90614ed9565b90506135e7565b508015610f4b5761019d546136d4906001600160a01b031682611859565b5060408051338152602081018390527f932bd968974f0b6fa1cb59bf961f81d2e57b39332d311b413dceae17966387db910160405180910390a1505050565b6000613720338385613ecb565b90506137378361373284600019615154565b613af9565b61374383303385613b0b565b610da38383613efe565b600054610100900460ff166111895760405162461bcd60e51b8152600401610fbc90615094565b600054610100900460ff1661379b5760405162461bcd60e51b8152600401610fbc90615094565b61118933612d5c565b600054610100900460ff166137cb5760405162461bcd60e51b8152600401610fbc90615094565b6097805460ff19169055565b82811461381e5760405162461bcd60e51b8152602060048201526015602482015274082e4e4c2f240d8cadccee8d040dad2e6dac2e8c6d605b1b6044820152606401610fbc565b61382661374d565b6000805b848110156138af5761387a84848381811061384757613847614ec3565b9050602002013587878481811061386057613860614ec3565b905060200201602081019061387591906142dd565b612408565b600084848381811061388e5761388e614ec3565b905060200201350361389f57600191505b6138a881614ed9565b905061382a565b5080611a895760405162461bcd60e51b8152602060048201526012602482015271139bc818591b5a5b881cdc1958da599a595960721b6044820152606401610fbc565b60408051808201909152606080825260208201526101a5548351602085015160405163249d509d60e21b81526001600160a01b03909316926392754274926139409230928890600401614bfb565b600060405180830381865afa15801561395d573d6000803e3d6000fd5b505050506040513d6000823e601f3d908101601f19168201604052610ef79190810190614c7f565b6001600160a01b0382166139db5760405162461bcd60e51b815260206004820152601f60248201527f45524332303a206d696e7420746f20746865207a65726f2061646472657373006044820152606401610fbc565b6139e760008383613bfd565b80603560008282546139f99190614b55565b90915550506001600160a01b03821660009081526033602052604081208054839290613a26908490614b55565b90915550506040518181526001600160a01b038316906000907fddf252ad1be2c89b69c2b068fc378daa952ba7f163c4a11628f55a4df523b3ef9060200160405180910390a35050565b80516001600160a01b031660009081526101a9602090815260408083208285015184529091528120805460ff1916600117905580613aae8486614b55565b90506000613abc8483612e1c565b9050613ac88582614eac565b9250613ad48784613985565b81811015613aef57613aef30613aea8385614eac565b613985565b5050949350505050565b610fcf82613b0683613f43565b613f71565b83600001516001600160a01b031663f242432a84848760200151613b2e86613fb9565b6040516001600160e01b031960e087901b1681526001600160a01b0394851660048201529390921660248401526044830152606482015260a06084820152600060a482015260c401600060405180830381600087803b158015613b9057600080fd5b505af1158015611f16573d6000803e3d6000fd5b7f42fa234691156c87ff89ed9ae178d78cb7d8e64c828f7fa7e3892aa2a1a3ebef82600001518360200151613bd884613fb9565b604080516001600160a01b0390941684526020840192909252908201526060016119c5565b610f4b612dae565b60606000613c14836002615013565b613c1f906002614b55565b6001600160401b03811115613c3657613c36614384565b6040519080825280601f01601f191660200182016040528015613c60576020820181803683370190505b509050600360fc1b81600081518110613c7b57613c7b614ec3565b60200101906001600160f81b031916908160001a905350600f60fb1b81600181518110613caa57613caa614ec3565b60200101906001600160f81b031916908160001a9053506000613cce846002615013565b613cd9906001614b55565b90505b6001811115613d51576f181899199a1a9b1b9c1cb0b131b232b360811b85600f1660108110613d0d57613d0d614ec3565b1a60f81b828281518110613d2357613d23614ec3565b60200101906001600160f81b031916908160001a90535060049490941c93613d4a816151d9565b9050613cdc565b508315610ef75760405162461bcd60e51b815260206004820181905260248201527f537472696e67733a20686578206c656e67746820696e73756666696369656e746044820152606401610fbc565b613da9816134e2565b6040516001600160a01b038216907fbc7cd75a20ee27fd9adebab32041f755214dbc6bffa90cc0225b39da2e5c2d3b90600090a250565b60606001600160a01b0383163b613e485760405162461bcd60e51b815260206004820152602660248201527f416464726573733a2064656c65676174652063616c6c20746f206e6f6e2d636f6044820152651b9d1c9858dd60d21b6064820152608401610fbc565b600080846001600160a01b031684604051613e6391906151f0565b600060405180830381855af49150503d8060008114613e9e576040519150601f19603f3d011682016040523d82523d6000602084013e613ea3565b606091505b5091509150611921828260405180606001604052806027815260200161529c60279139613fe7565b6000613ed78284612e1c565b9050613ee38482614020565b80831115610ef757610ef730613ef98386614eac565b614020565b7fb404e45f295d886798376935d5d46a49070234b42fd1699345e9444fcdbf9db43383600001518460200151613f3385613fb9565b6040516119c59493929190614bfb565b6101aa54600090601290613f5a9060ff1682614d6c565b9050613f6781600a614e73565b610ef7908461520c565b60408083015160009081526101a76020522054613f8e828261523a565b60408085015160009081526101a760205220556101a654613fb090839061523a565b6101a655505050565b6101aa54600090601290613fd09060ff1682614d6c565b9050613fdd81600a614e73565b610ef79084615032565b60608315613ff6575081610ef7565b8251156140065782518084602001fd5b8160405162461bcd60e51b8152600401610fbc9190614269565b6001600160a01b0382166140805760405162461bcd60e51b815260206004820152602160248201527f45524332303a206275726e2066726f6d20746865207a65726f206164647265736044820152607360f81b6064820152608401610fbc565b61408c82600083613bfd565b6001600160a01b038216600090815260336020526040902054818110156141005760405162461bcd60e51b815260206004820152602260248201527f45524332303a206275726e20616d6f756e7420657863656564732062616c616e604482015261636560f01b6064820152608401610fbc565b6001600160a01b038316600090815260336020526040812083830390556035805484929061412f908490614eac565b90915550506040518281526000906001600160a01b038516907fddf252ad1be2c89b69c2b068fc378daa952ba7f163c4a11628f55a4df523b3ef9060200160405180910390a3505050565b82805461418690614a6d565b90600052602060002090601f0160209004810192826141a857600085556141ee565b82601f106141c157805160ff19168380011785556141ee565b828001600101855582156141ee579182015b828111156141ee5782518255916020019190600101906141d3565b506141fa9291506141fe565b5090565b5b808211156141fa57600081556001016141ff565b60006020828403121561422557600080fd5b81356001600160e01b031981168114610ef757600080fd5b60005b83811015614258578181015183820152602001614240565b838111156130265750506000910152565b602081526000825180602084015261428881604085016020870161423d565b601f01601f19169190910160400192915050565b6001600160a01b03811681146110af57600080fd5b600080604083850312156142c457600080fd5b82356142cf8161429c565b946020939093013593505050565b6000602082840312156142ef57600080fd5b8135610ef78161429c565b60008060006060848603121561430f57600080fd5b833561431a8161429c565b9250602084013561432a8161429c565b929592945050506040919091013590565b60006020828403121561434d57600080fd5b5035919050565b6000806040838503121561436757600080fd5b8235915060208301356143798161429c565b809150509250929050565b634e487b7160e01b600052604160045260246000fd5b604080519081016001600160401b03811182821017156143bc576143bc614384565b60405290565b604051601f8201601f191681016001600160401b03811182821017156143ea576143ea614384565b604052919050565b60006001600160401b0382111561440b5761440b614384565b5060051b60200190565b600082601f83011261442657600080fd5b8135602061443b614436836143f2565b6143c2565b82815260059290921b8401810191818101908684111561445a57600080fd5b8286015b848110156110d45780356144718161429c565b835291830191830161445e565b600082601f83011261448f57600080fd5b8135602061449f614436836143f2565b82815260059290921b840181019181810190868411156144be57600080fd5b8286015b848110156110d457803583529183019183016144c2565b80151581146110af57600080fd5b600080600080608085870312156144fd57600080fd5b84356001600160401b038082111561451457600080fd5b61452088838901614415565b9550602087013591508082111561453657600080fd5b6145428883890161447e565b9450604087013591508082111561455857600080fd5b506145658782880161447e565b9250506060850135614576816144d9565b939692955090935050565b6000806000806080858703121561459757600080fd5b84356001600160401b03808211156145ae57600080fd5b6145ba88838901614415565b955060208701359150808211156145d057600080fd5b6145dc8883890161447e565b945060408701359150808211156145f257600080fd5b506145ff8782880161447e565b949793965093946060013593505050565b60006001600160401b0382111561462957614629614384565b50601f01601f191660200190565b600082601f83011261464857600080fd5b813561465661443682614610565b81815284602083860101111561466b57600080fd5b816020850160208301376000918101602001919091529392505050565b6000806040838503121561469b57600080fd5b82356146a68161429c565b915060208301356001600160401b038111156146c157600080fd5b6146cd85828601614637565b9150509250929050565b6000806000606084860312156146ec57600080fd5b83356146f78161429c565b95602085013595506040909401359392505050565b6000806020838503121561471f57600080fd5b82356001600160401b038082111561473657600080fd5b818501915085601f83011261474a57600080fd5b81358181111561475957600080fd5b86602082850101111561476b57600080fd5b60209290920196919550909350505050565b60008083601f84011261478f57600080fd5b5081356001600160401b038111156147a657600080fd5b6020830191508360208260051b85010111156147c157600080fd5b9250929050565b600080600080604085870312156147de57600080fd5b84356001600160401b03808211156147f557600080fd5b6148018883890161477d565b9096509450602087013591508082111561481a57600080fd5b506148278782880161477d565b95989497509550505050565b600080600080600060a0868803121561484b57600080fd5b85356148568161429c565b945060208601356148668161429c565b935060408601356001600160401b038082111561488257600080fd5b61488e89838a0161447e565b945060608801359150808211156148a457600080fd5b6148b089838a0161447e565b935060808801359150808211156148c657600080fd5b506148d388828901614637565b9150509295509295909350565b6000602082840312156148f257600080fd5b813560ff81168114610ef757600080fd5b6000806000806080858703121561491957600080fd5b84356149248161429c565b966020860135965060408601359560600135945092505050565b6000806040838503121561495157600080fd5b823561495c8161429c565b915060208301356143798161429c565b6000806000806000806060878903121561498557600080fd5b86356001600160401b038082111561499c57600080fd5b6149a88a838b0161477d565b909850965060208901359150808211156149c157600080fd5b6149cd8a838b0161477d565b909650945060408901359150808211156149e657600080fd5b506149f389828a0161477d565b979a9699509497509295939492505050565b600080600080600060a08688031215614a1d57600080fd5b8535614a288161429c565b94506020860135614a388161429c565b9350604086013592506060860135915060808601356001600160401b03811115614a6157600080fd5b6148d388828901614637565b600181811c90821680614a8157607f821691505b602082108103614aa157634e487b7160e01b600052602260045260246000fd5b50919050565b6020808252602c908201527f46756e6374696f6e206d7573742062652063616c6c6564207468726f7567682060408201526b19195b1959d85d1958d85b1b60a21b606082015260800190565b6020808252602c908201527f46756e6374696f6e206d7573742062652063616c6c6564207468726f7567682060408201526b6163746976652070726f787960a01b606082015260800190565b634e487b7160e01b600052601160045260246000fd5b60008219821115614b6857614b68614b3f565b500190565b600060208284031215614b7f57600080fd5b5051919050565b60208152816020820152818360408301376000818301604090810191909152601f909201601f19160101919050565b600060208284031215614bc757600080fd5b8151610ef7816144d9565b600060208284031215614be457600080fd5b81516001600160401b0381168114610ef757600080fd5b6001600160a01b0394851681529290931660208301526040820152606081019190915260800190565b600082601f830112614c3557600080fd5b81516020614c45614436836143f2565b82815260059290921b84018101918181019086841115614c6457600080fd5b8286015b848110156110d45780518352918301918301614c68565b60006020808385031215614c9257600080fd5b82516001600160401b0380821115614ca957600080fd5b9084019060408287031215614cbd57600080fd5b614cc561439a565b825182811115614cd457600080fd5b8301601f81018813614ce557600080fd5b8051614cf3614436826143f2565b81815260059190911b8201860190868101908a831115614d1257600080fd5b928701925b82841015614d39578351614d2a8161429c565b82529287019290870190614d17565b84525050508284015182811115614d4f57600080fd5b614d5b88828601614c24565b948201949094529695505050505050565b600060ff821660ff841680821015614d8657614d86614b3f565b90039392505050565b600181815b80851115614dca578160001904821115614db057614db0614b3f565b80851615614dbd57918102915b93841c9390800290614d94565b509250929050565b600082614de157506001610da3565b81614dee57506000610da3565b8160018114614e045760028114614e0e57614e2a565b6001915050610da3565b60ff841115614e1f57614e1f614b3f565b50506001821b610da3565b5060208310610133831016604e8410600b8410161715614e4d575081810a610da3565b614e578383614d8f565b8060001904821115614e6b57614e6b614b3f565b029392505050565b6000610ef760ff841683614dd2565b634e487b7160e01b600052601260045260246000fd5b600082614ea757614ea7614e82565b500690565b600082821015614ebe57614ebe614b3f565b500390565b634e487b7160e01b600052603260045260246000fd5b600060018201614eeb57614eeb614b3f565b5060010190565b600060208284031215614f0457600080fd5b81516001600160401b03811115614f1a57600080fd5b8201601f81018413614f2b57600080fd5b8051614f3961443682614610565b818152856020838501011115614f4e57600080fd5b61192182602083016020860161423d565b600081518084526020808501945080840160005b83811015614f8f57815187529582019590820190600101614f73565b509495945050505050565b6001600160a01b0385811682526080602080840182905286519184018290526000928782019290919060a0860190855b81811015614fe8578551851683529483019491830191600101614fca565b50508581036040870152614ffc8189614f5f565b9350505050828103606084015261129b8185614f5f565b600081600019048311821515161561502d5761502d614b3f565b500290565b60008261504157615041614e82565b500490565b6020808252602e908201527f496e697469616c697a61626c653a20636f6e747261637420697320616c72656160408201526d191e481a5b9a5d1a585b1a5e995960921b606082015260800190565b6020808252602b908201527f496e697469616c697a61626c653a20636f6e7472616374206973206e6f74206960408201526a6e697469616c697a696e6760a81b606082015260800190565b7f416363657373436f6e74726f6c3a206163636f756e742000000000000000000081526000835161511781601785016020880161423d565b7001034b99036b4b9b9b4b733903937b6329607d1b601791840191820152835161514881602884016020880161423d565b01602801949350505050565b60006001600160ff1b038184138284138082168684048611161561517a5761517a614b3f565b600160ff1b600087128281168783058912161561519957615199614b3f565b600087129250878205871284841616156151b5576151b5614b3f565b878505871281841616156151cb576151cb614b3f565b505050929093029392505050565b6000816151e8576151e8614b3f565b506000190190565b6000825161520281846020870161423d565b9190910192915050565b60008261521b5761521b614e82565b600160ff1b82146000198414161561523557615235614b3f565b500590565b600080821280156001600160ff1b038490038513161561525c5761525c614b3f565b600160ff1b839003841281161561527557615275614b3f565b5050019056fe360894a13ba1a3210667c828492db98dca3e2076cc3735a920a3ca505d382bbc416464726573733a206c6f772d6c6576656c2064656c65676174652063616c6c206661696c6564a26469706673582212204f8153f734620632288f001d7ba510ee70af80c25468e38c337679b4f17d0e5764736f6c634300080e0033496e697469616c697a61626c653a20636f6e747261637420697320616c726561",
  "devdoc": {
    "kind": "dev",
    "methods": {
      "addRedeemFeeExemptedAddress(address)": {
        "params": {
          "_address": "address to be exempted on redeem fees"
        }
      },
      "addRedeemFeeExemptedTCO2(address)": {
        "params": {
          "_tco2": "TCO2 to be exempted on redeem fees"
        }
      },
      "allowance(address,address)": {
        "details": "See {IERC20-allowance}."
      },
      "approve(address,uint256)": {
        "details": "See {IERC20-approve}. NOTE: If `amount` is the maximum `uint256`, the allowance is not updated on `transferFrom`. This is semantically equivalent to an infinite approval. Requirements: - `spender` cannot be the zero address."
      },
      "balanceOf(address)": {
        "details": "See {IERC20-balanceOf}."
      },
      "calculateDepositAdjustedAmount(address,uint256,uint256)": {
        "params": {
          "amount": "Amount of ERC-1155 tokens to deposit",
          "erc1155": "Address of the ERC-1155 contract",
          "tokenId": "ID of the ERC-1155 token"
        },
        "returns": {
          "adjustedAmount": "The amount of pool tokens minted to the user"
        }
      },
      "calculateDepositFees(address,uint256,uint256)": {
        "details": "User specifies in front-end the address and amount they want",
        "params": {
          "amount": "Amount of ERC-1155 tokens to deposit (0 decimals)",
          "erc1155": "ERC1155 contract address",
          "tokenId": "id representing the vintage"
        },
        "returns": {
          "feeDistributionTotal": "Total fee amount to be paid in pool tokens"
        }
      },
      "calculateRedeemOutAdjustedAmount(address,uint256,uint256)": {
        "params": {
          "amount": "Amount of ERC-1155 token to redeem",
          "erc1155": "Address of the ERC-1155 contract",
          "tokenId": "ID of the ERC-1155 token"
        },
        "returns": {
          "adjustedAmount": "The amount of pool tokens to be burnt by the caller"
        }
      },
      "calculateRedemptionOutFees(address[],uint256[],uint256[],bool)": {
        "params": {
          "amounts": "Array of ERC-1155 token amounts to redeem (0 decimals) The indexes of this array are matching 1:1 with the erc1155s array.",
          "erc1155s": "Array of ERC1155 contract addresses",
          "toRetire": "No-op",
          "tokenIds": "ids of the vintages of each project"
        },
        "returns": {
          "feeDistributionTotal": "Total fee amount to be paid in pool tokens"
        }
      },
      "checkEligible(address,uint256)": {
        "params": {
          "erc1155": "the ERC1155 contract to check",
          "tokenId": "the token id"
        },
        "returns": {
          "isEligible": "true if address is eligible and no other issues occur"
        }
      },
      "decimals()": {
        "details": "Returns the number of decimals used to get its user representation. For example, if `decimals` equals `2`, a balance of `505` tokens should be displayed to a user as `5.05` (`505 / 10 ** 2`). Tokens usually opt for a value of 18, imitating the relationship between Ether and Wei. This is the value {ERC20} uses, unless this function is overridden; NOTE: This information is only used for _display_ purposes: it in no way affects any of the arithmetic of the contract, including {IERC20-balanceOf} and {IERC20-transfer}."
      },
      "decreaseAllowance(address,uint256)": {
        "details": "Atomically decreases the allowance granted to `spender` by the caller. This is an alternative to {approve} that can be used as a mitigation for problems described in {IERC20-approve}. Emits an {Approval} event indicating the updated allowance. Requirements: - `spender` cannot be the zero address. - `spender` must have allowance for the caller of at least `subtractedValue`."
      },
      "deposit(address,uint256,uint256,uint256)": {
        "details": "Eligibility of the ERC1155 token to be deposited is checked via `checkEligible`",
        "params": {
          "amount": "Amount of ERC-1155 tokens to be deposited (0 decimals)",
          "erc1155": "ERC1155 contract address",
          "maxFee": "Maximum pool token fee to be paid for the deposit. This value cannot be zero. Use `calculateDepositFees(erc1155,tokenId,amount)` to determine the fee that will be charged given the state of the pool during this call. Add a buffer on top of the returned fee amount up to the maximum fee you are willing to pay. (18 decimals)",
          "tokenId": "id representing the vintage"
        },
        "returns": {
          "mintedPoolTokenAmount": "Amount of pool tokens minted to the caller"
        }
      },
      "getRemaining()": {
        "details": "Returns the remaining space in pool before hitting the cap"
      },
      "getRoleAdmin(bytes32)": {
        "details": "Returns the admin role that controls `role`. See {grantRole} and {revokeRole}. To change a role's admin, use {_setRoleAdmin}."
      },
      "grantRole(bytes32,address)": {
        "details": "Grants `role` to `account`. If `account` had not been already granted `role`, emits a {RoleGranted} event. Requirements: - the caller must have ``role``'s admin role."
      },
      "hasRole(bytes32,address)": {
        "details": "Returns `true` if `account` has been granted `role`."
      },
      "increaseAllowance(address,uint256)": {
        "details": "Atomically increases the allowance granted to `spender` by the caller. This is an alternative to {approve} that can be used as a mitigation for problems described in {IERC20-approve}. Emits an {Approval} event indicating the updated allowance. Requirements: - `spender` cannot be the zero address."
      },
      "name()": {
        "details": "Returns the name of the token."
      },
      "owner()": {
        "details": "Returns the address of the current owner."
      },
      "pause()": {
        "details": "wraps _pause(), only Admin"
      },
      "paused()": {
        "details": "Returns true if the contract is paused, and false otherwise."
      },
      "proxiableUUID()": {
        "details": "Implementation of the ERC1822 {proxiableUUID} function. This returns the storage slot used by the implementation. It is used to validate that the this implementation remains valid after an upgrade. IMPORTANT: A proxy pointing at a proxiable contract should not be considered proxiable itself, because this risks bricking a proxy that upgrades to it, by delegating to itself until out of gas. Thus it is critical that this function revert if invoked through a proxy. This is guaranteed by the `notDelegated` modifier."
      },
      "redeemOutMany(address[],uint256[],uint256[],uint256)": {
        "params": {
          "amounts": "Array of ERC-1155 token amounts to redeem (0 decimals) The indexes of this array are matching 1:1 with the erc1155s array.",
          "erc1155s": "ERC1155 contract address",
          "maxFee": "Maximum pool token fee to be paid for the redemption. This value cannot be zero. Use `calculateRedemptionOutFees(erc1155,tokenIds,amounts,false)` to determine the fee that will be charged given the state of the pool during this call. Add a buffer on top of the returned fee amount up to the maximum fee you are willing to pay. (18 decimals)",
          "tokenIds": "id representing the vintage"
        },
        "returns": {
          "poolAmountSpent": "The amount of pool tokens spent by the caller"
        }
      },
      "removeRedeemFeeExemptedAddress(address)": {
        "params": {
          "_address": "address to be removed from exemption"
        }
      },
      "removeRedeemFeeExemptedTCO2(address)": {
        "params": {
          "_tco2": "TCO2 to be removed from exemption"
        }
      },
      "renounceOwnership()": {
        "details": "Leaves the contract without owner. It will not be possible to call `onlyOwner` functions anymore. Can only be called by the current owner. NOTE: Renouncing ownership will leave the contract without an owner, thereby removing any functionality that is only available to the owner."
      },
      "renounceRole(bytes32,address)": {
        "details": "Revokes `role` from the calling account. Roles are often managed via {grantRole} and {revokeRole}: this function's purpose is to provide a mechanism for accounts to lose their privileges if they are compromised (such as when a trusted device is misplaced). If the calling account had been revoked `role`, emits a {RoleRevoked} event. Requirements: - the caller must be `account`."
      },
      "revokeRole(bytes32,address)": {
        "details": "Revokes `role` from `account`. If `account` had been granted `role`, emits a {RoleRevoked} event. Requirements: - the caller must have ``role``'s admin role."
      },
      "scores(address,uint256)": {
        "params": {
          "erc1155": "Address of the ERC-1155 contract",
          "tokenId": "ID of the ERC-1155 token"
        },
        "returns": {
          "score": "The score of the ERC-1155 token"
        }
      },
      "setFeeCalculator(address)": {
        "params": {
          "_feeCalculator": "Fee module contract address"
        }
      },
      "setFeeRedeemBurnAddress(address)": {
        "params": {
          "feeRedeemBurnAddress_": "address to transfer the fees to burn"
        }
      },
      "setFeeRedeemBurnPercentage(uint256)": {
        "params": {
          "feeRedeemBurnPercentageInBase_": "percentage of fee in base"
        }
      },
      "setFilter(address)": {
        "params": {
          "_filter": "Filter contract address"
        }
      },
      "setScores(address[],uint256[],uint256[])": {
        "details": "Only executable by the pool owner",
        "params": {
          "erc1155s": "Array of ERC-1155 contracts",
          "newScores": "Array of scores to set",
          "tokenIds": "Array of ERC-1155 token IDs"
        }
      },
      "setSupplyCap(uint256)": {
        "details": "supplyCap is initially set to 0 and must be increased before deposits",
        "params": {
          "newCap": "New pool supply cap"
        }
      },
      "setUnderlyingDecimals(uint8)": {
        "details": "The underlying decimals are the number of decimals the ERC-1155 token uses to represent the underlying asset. For example, if the ERC-1155 token represents a tonne of carbon, then the underlying decimals would be 0. If it represents a kilogram of carbon, then the underlying decimals would be 3.",
        "params": {
          "underlyingDecimals_": "The number of decimals the ERC-1155 token uses to represent a tonne of carbon."
        }
      },
      "symbol()": {
        "details": "Returns the symbol of the token, usually a shorter version of the name."
      },
      "tokenBalance(address,uint256)": {
        "params": {
          "erc1155": "ERC1155 contract address",
          "tokenId": "id representing the vintage"
        },
        "returns": {
          "balance": "pool balance"
        }
      },
      "totalPerProjectSupply(address,uint256)": {
        "returns": {
          "_0": "supply"
        }
      },
      "totalSupply()": {
        "details": "See {IERC20-totalSupply}."
      },
      "transferOwnership(address)": {
        "details": "Transfers ownership of the contract to a new account (`newOwner`). Can only be called by the current owner."
      },
      "unpause()": {
        "details": "Unpause the system, wraps _unpause(), only Admin"
      },
      "upgradeTo(address)": {
        "details": "Upgrade the implementation of the proxy to `newImplementation`. Calls {_authorizeUpgrade}. Emits an {Upgraded} event."
      },
      "upgradeToAndCall(address,bytes)": {
        "details": "Upgrade the implementation of the proxy to `newImplementation`, and subsequently execute the function call encoded in `data`. Calls {_authorizeUpgrade}. Emits an {Upgraded} event."
      }
    },
    "stateVariables": {
      "VERSION": {
        "details": "Version-related parameters. VERSION keeps track of production releases. VERSION_RELEASE_CANDIDATE keeps track of iterations of a VERSION in our staging environment."
      }
    },
    "version": 1
  },
  "userdoc": {
    "kind": "user",
    "methods": {
      "addRedeemFeeExemptedAddress(address)": {
        "notice": "Adds a new address for redeem fees exemption"
      },
      "addRedeemFeeExemptedTCO2(address)": {
        "notice": "Adds a new TCO2 for redeem fees exemption"
      },
      "calculateDepositAdjustedAmount(address,uint256,uint256)": {
        "notice": "Calculate the adjusted amount of pool tokens to mint for a deposit of the provided amount of the ERC-1155 token."
      },
      "calculateDepositFees(address,uint256,uint256)": {
        "notice": "View function to calculate deposit fees pre-execution"
      },
      "calculateRedeemOutAdjustedAmount(address,uint256,uint256)": {
        "notice": "Calculate the amounts of pool tokens needed in order to redeem the provided amount of the ERC-1155 token."
      },
      "calculateRedemptionInFees(address[],uint256[],uint256[],bool)": {
        "notice": "View function to calculate redemption fees pre-execution, according to the amounts of pool tokens to be spent. NOTE: This function is not supported yet"
      },
      "calculateRedemptionOutFees(address[],uint256[],uint256[],bool)": {
        "notice": "View function to calculate redemption fees pre-execution, according to the amounts of underlying tokens to be redeemed."
      },
      "checkEligible(address,uint256)": {
        "notice": "Checks if token to be deposited is eligible for this pool. Reverts if not. Beware that the revert reason might depend on the underlying implementation of IPoolFilter.checkEligible"
      },
      "deposit(address,uint256,uint256,uint256)": {
        "notice": "Deposit function for pool that accepts ERC1155 vintages and mints pool token 1:1"
      },
      "feeCalculator()": {
        "notice": "module to calculate fees for the pool"
      },
      "methodologies(string)": {
        "notice": "Checks if methodology is eligible for this pool"
      },
      "minimumVintageStartTime()": {
        "notice": "Returns minimum vintage start time for this pool"
      },
      "pause()": {
        "notice": "Emergency function to disable contract's core functionality"
      },
      "redeemFeeExemptedAddresses(address)": {
        "notice": "End users exempted from redeem fees"
      },
      "redeemFeeExemptedTCO2s(address)": {
        "notice": "TCO2s exempted from redeem fees"
      },
      "redeemOutMany(address[],uint256[],uint256[],uint256)": {
        "notice": "Redeem ERC1155 vintages for pool tokens 1:1 minus fees The amounts provided are the exact amounts of ERC1155 vintages to be redeemed."
      },
      "regions(string)": {
        "notice": "Checks if region is eligible for this pool"
      },
      "removeRedeemFeeExemptedAddress(address)": {
        "notice": "Removes an address from redeem fees exemption"
      },
      "removeRedeemFeeExemptedTCO2(address)": {
        "notice": "Removes a TCO2 from redeem fees exemption"
      },
      "router()": {
        "notice": "bridge router who has access to the bridgeMint & bridgeBurn functions which mint/burn pool tokens for cross chain messenges"
      },
      "scoredTCO2s(uint256)": {
        "notice": "array used to read from when redeeming TCO2s automatically"
      },
      "scores(address,uint256)": {
        "notice": "Get the score of an ERC-1155 token"
      },
      "setFeeCalculator(address)": {
        "notice": "Update the address of the fee module contract"
      },
      "setFeeRedeemBurnAddress(address)": {
        "notice": "Update the fee redeem burn address"
      },
      "setFeeRedeemBurnPercentage(uint256)": {
        "notice": "Update the fee redeem burn percentage"
      },
      "setFilter(address)": {
        "notice": "Update the address of the filter contract"
      },
      "setScores(address[],uint256[],uint256[])": {
        "notice": "Set scores for ERC-1155 tokens"
      },
      "setSupplyCap(uint256)": {
        "notice": "Function to limit the maximum pool supply"
      },
      "setUnderlyingDecimals(uint8)": {
        "notice": "Set the underlying decimals for ERC-1155 tokens."
      },
      "standards(string)": {
        "notice": "Checks if standard is eligible for this pool"
      },
      "supplyCap()": {
        "notice": "The supply cap is used as a measure to guard deposits in the pool. It is meant to minimize the impact a potential compromise in the source registry (eg. Verra) can have to the pool."
      },
      "tokenBalance(address,uint256)": {
        "notice": "Returns the balance of the carbon offset found in the pool"
      },
      "totalPerProjectSupply(address,uint256)": {
        "notice": "Return the total supply of the project for the given ERC1155 token."
      },
      "totalProjectSupply(uint256)": {
        "notice": "Project token id to total supply of the project in the pool. Supply amounts are kept in the underlying's native precision regardless of whether underlying is an ERC-20 or ERC-1155 token."
      },
      "totalUnderlyingSupply()": {
        "notice": "Total supply of underlying collateral in the pool.  Supply amounts are kept in the underlying's native precision regardless of whether underlying is an ERC-20 or ERC-1155 token."
      },
      "underlyingDecimals()": {
        "notice": "Underlying decimals for ERC-1155 tokens. 0 decimals means that the smallest denomination the ERC-1155 token can represent is a tonne, 3 decimals means a kilogram, etc."
      }
    },
    "notice": "REDD pool contract",
    "version": 1
  },
  "storageLayout": {
    "storage": [
      {
        "astId": 2390,
        "contract": "contracts/pools/REDD.sol:REDD",
        "label": "_initialized",
        "offset": 0,
        "slot": "0",
        "type": "t_uint8"
      },
      {
        "astId": 2393,
        "contract": "contracts/pools/REDD.sol:REDD",
        "label": "_initializing",
        "offset": 1,
        "slot": "0",
        "type": "t_bool"
      },
      {
        "astId": 5494,
        "contract": "contracts/pools/REDD.sol:REDD",
        "label": "__gap",
        "offset": 0,
        "slot": "1",
        "type": "t_array(t_uint256)50_storage"
      },
      {
        "astId": 2850,
        "contract": "contracts/pools/REDD.sol:REDD",
        "label": "_balances",
        "offset": 0,
        "slot": "51",
        "type": "t_mapping(t_address,t_uint256)"
      },
      {
        "astId": 2856,
        "contract": "contracts/pools/REDD.sol:REDD",
        "label": "_allowances",
        "offset": 0,
        "slot": "52",
        "type": "t_mapping(t_address,t_mapping(t_address,t_uint256))"
      },
      {
        "astId": 2858,
        "contract": "contracts/pools/REDD.sol:REDD",
        "label": "_totalSupply",
        "offset": 0,
        "slot": "53",
        "type": "t_uint256"
      },
      {
        "astId": 2860,
        "contract": "contracts/pools/REDD.sol:REDD",
        "label": "_name",
        "offset": 0,
        "slot": "54",
        "type": "t_string_storage"
      },
      {
        "astId": 2862,
        "contract": "contracts/pools/REDD.sol:REDD",
        "label": "_symbol",
        "offset": 0,
        "slot": "55",
        "type": "t_string_storage"
      },
      {
        "astId": 3441,
        "contract": "contracts/pools/REDD.sol:REDD",
        "label": "__gap",
        "offset": 0,
        "slot": "56",
        "type": "t_array(t_uint256)45_storage"
      },
      {
        "astId": 1881,
        "contract": "contracts/pools/REDD.sol:REDD",
        "label": "_owner",
        "offset": 0,
        "slot": "101",
        "type": "t_address"
      },
      {
        "astId": 1993,
        "contract": "contracts/pools/REDD.sol:REDD",
        "label": "__gap",
        "offset": 0,
        "slot": "102",
        "type": "t_array(t_uint256)49_storage"
      },
      {
        "astId": 2682,
        "contract": "contracts/pools/REDD.sol:REDD",
        "label": "_paused",
        "offset": 0,
        "slot": "151",
        "type": "t_bool"
      },
      {
        "astId": 2771,
        "contract": "contracts/pools/REDD.sol:REDD",
        "label": "__gap",
        "offset": 0,
        "slot": "152",
        "type": "t_array(t_uint256)49_storage"
      },
      {
        "astId": 5801,
        "contract": "contracts/pools/REDD.sol:REDD",
        "label": "__gap",
        "offset": 0,
        "slot": "201",
        "type": "t_array(t_uint256)50_storage"
      },
      {
        "astId": 1497,
        "contract": "contracts/pools/REDD.sol:REDD",
        "label": "_roles",
        "offset": 0,
        "slot": "251",
        "type": "t_mapping(t_bytes32,t_struct(RoleData)1492_storage)"
      },
      {
        "astId": 1796,
        "contract": "contracts/pools/REDD.sol:REDD",
        "label": "__gap",
        "offset": 0,
        "slot": "252",
        "type": "t_array(t_uint256)49_storage"
      },
      {
        "astId": 2372,
        "contract": "contracts/pools/REDD.sol:REDD",
        "label": "__gap",
        "offset": 0,
        "slot": "301",
        "type": "t_array(t_uint256)50_storage"
      },
      {
        "astId": 2660,
        "contract": "contracts/pools/REDD.sol:REDD",
        "label": "__gap",
        "offset": 0,
        "slot": "351",
        "type": "t_array(t_uint256)50_storage"
      },
      {
        "astId": 28254,
        "contract": "contracts/pools/REDD.sol:REDD",
        "label": "supplyCap",
        "offset": 0,
        "slot": "401",
        "type": "t_uint256"
      },
      {
        "astId": 28258,
        "contract": "contracts/pools/REDD.sol:REDD",
        "label": "DEPRECATED_tokenBalances",
        "offset": 0,
        "slot": "402",
        "type": "t_mapping(t_address,t_uint256)"
      },
      {
        "astId": 28260,
        "contract": "contracts/pools/REDD.sol:REDD",
        "label": "DEPRECATED_contractRegistry",
        "offset": 0,
        "slot": "403",
        "type": "t_address"
      },
      {
        "astId": 28264,
        "contract": "contracts/pools/REDD.sol:REDD",
        "label": "scoredTCO2s",
        "offset": 0,
        "slot": "404",
        "type": "t_array(t_address)dyn_storage"
      },
      {
        "astId": 28269,
        "contract": "contracts/pools/REDD.sol:REDD",
        "label": "DEPRECATED_regions",
        "offset": 0,
        "slot": "405",
        "type": "t_mapping(t_string_memory_ptr,t_bool)"
      },
      {
        "astId": 28273,
        "contract": "contracts/pools/REDD.sol:REDD",
        "label": "DEPRECATED_standards",
        "offset": 0,
        "slot": "406",
        "type": "t_mapping(t_string_memory_ptr,t_bool)"
      },
      {
        "astId": 28277,
        "contract": "contracts/pools/REDD.sol:REDD",
        "label": "DEPRECATED_methodologies",
        "offset": 0,
        "slot": "407",
        "type": "t_mapping(t_string_memory_ptr,t_bool)"
      },
      {
        "astId": 28282,
        "contract": "contracts/pools/REDD.sol:REDD",
        "label": "DEPRECATED_externalWhiteList",
        "offset": 0,
        "slot": "408",
        "type": "t_mapping(t_address,t_bool)"
      },
      {
        "astId": 28287,
        "contract": "contracts/pools/REDD.sol:REDD",
        "label": "DEPRECATED_internalWhiteList",
        "offset": 0,
        "slot": "409",
        "type": "t_mapping(t_address,t_bool)"
      },
      {
        "astId": 28292,
        "contract": "contracts/pools/REDD.sol:REDD",
        "label": "DEPRECATED_internalBlackList",
        "offset": 0,
        "slot": "410",
        "type": "t_mapping(t_address,t_bool)"
      },
      {
        "astId": 28295,
        "contract": "contracts/pools/REDD.sol:REDD",
        "label": "_feeRedeemReceiver",
        "offset": 0,
        "slot": "411",
        "type": "t_address"
      },
      {
        "astId": 28297,
        "contract": "contracts/pools/REDD.sol:REDD",
        "label": "_feeRedeemPercentageInBase",
        "offset": 0,
        "slot": "412",
        "type": "t_uint256"
      },
      {
        "astId": 28300,
        "contract": "contracts/pools/REDD.sol:REDD",
        "label": "_feeRedeemBurnAddress",
        "offset": 0,
        "slot": "413",
        "type": "t_address"
      },
      {
        "astId": 28303,
        "contract": "contracts/pools/REDD.sol:REDD",
        "label": "_feeRedeemBurnPercentageInBase",
        "offset": 0,
        "slot": "414",
        "type": "t_uint256"
      },
      {
        "astId": 28306,
        "contract": "contracts/pools/REDD.sol:REDD",
        "label": "DEPRECATED_minimumVintageStartTime",
        "offset": 0,
        "slot": "415",
        "type": "t_uint64"
      },
      {
        "astId": 28308,
        "contract": "contracts/pools/REDD.sol:REDD",
        "label": "DEPRECATED_seedMode",
        "offset": 8,
        "slot": "415",
        "type": "t_bool"
      },
      {
        "astId": 28310,
        "contract": "contracts/pools/REDD.sol:REDD",
        "label": "DEPRECATED_regionsIsAcceptedMapping",
        "offset": 9,
        "slot": "415",
        "type": "t_bool"
      },
      {
        "astId": 28312,
        "contract": "contracts/pools/REDD.sol:REDD",
        "label": "DEPRECATED_standardsIsAcceptedMapping",
        "offset": 10,
        "slot": "415",
        "type": "t_bool"
      },
      {
        "astId": 28314,
        "contract": "contracts/pools/REDD.sol:REDD",
        "label": "DEPRECATED_methodologiesIsAcceptedMapping",
        "offset": 11,
        "slot": "415",
        "type": "t_bool"
      },
      {
        "astId": 28320,
        "contract": "contracts/pools/REDD.sol:REDD",
        "label": "redeemFeeExemptedAddresses",
        "offset": 0,
        "slot": "416",
        "type": "t_mapping(t_address,t_bool)"
      },
      {
        "astId": 28326,
        "contract": "contracts/pools/REDD.sol:REDD",
        "label": "redeemFeeExemptedTCO2s",
        "offset": 0,
        "slot": "417",
        "type": "t_mapping(t_address,t_bool)"
      },
      {
        "astId": 28330,
        "contract": "contracts/pools/REDD.sol:REDD",
        "label": "router",
        "offset": 0,
        "slot": "418",
        "type": "t_address"
      },
      {
        "astId": 28334,
        "contract": "contracts/pools/REDD.sol:REDD",
        "label": "_feeRedeemRetirePercentageInBase",
        "offset": 0,
        "slot": "419",
        "type": "t_uint256"
      },
      {
        "astId": 28336,
        "contract": "contracts/pools/REDD.sol:REDD",
        "label": "filter",
        "offset": 0,
        "slot": "420",
        "type": "t_address"
      },
      {
        "astId": 28341,
        "contract": "contracts/pools/REDD.sol:REDD",
        "label": "feeCalculator",
        "offset": 0,
        "slot": "421",
        "type": "t_contract(IFeeCalculator)10716"
      },
      {
        "astId": 28344,
        "contract": "contracts/pools/REDD.sol:REDD",
        "label": "totalUnderlyingSupply",
        "offset": 0,
        "slot": "422",
        "type": "t_uint256"
      },
      {
        "astId": 28349,
        "contract": "contracts/pools/REDD.sol:REDD",
        "label": "totalProjectSupply",
        "offset": 0,
        "slot": "423",
        "type": "t_mapping(t_uint256,t_uint256)"
      },
      {
        "astId": 28357,
        "contract": "contracts/pools/REDD.sol:REDD",
        "label": "_scores",
        "offset": 0,
        "slot": "424",
        "type": "t_mapping(t_address,t_mapping(t_uint256,t_uint256))"
      },
      {
        "astId": 28363,
        "contract": "contracts/pools/REDD.sol:REDD",
        "label": "_vintageDeposited",
        "offset": 0,
        "slot": "425",
        "type": "t_mapping(t_address,t_mapping(t_uint256,t_bool))"
      },
      {
        "astId": 28366,
        "contract": "contracts/pools/REDD.sol:REDD",
        "label": "_underlyingDecimals",
        "offset": 0,
        "slot": "426",
        "type": "t_uint8"
      }
    ],
    "types": {
      "t_address": {
        "encoding": "inplace",
        "label": "address",
        "numberOfBytes": "20"
      },
      "t_array(t_address)dyn_storage": {
        "base": "t_address",
        "encoding": "dynamic_array",
        "label": "address[]",
        "numberOfBytes": "32"
      },
      "t_array(t_uint256)45_storage": {
        "base": "t_uint256",
        "encoding": "inplace",
        "label": "uint256[45]",
        "numberOfBytes": "1440"
      },
      "t_array(t_uint256)49_storage": {
        "base": "t_uint256",
        "encoding": "inplace",
        "label": "uint256[49]",
        "numberOfBytes": "1568"
      },
      "t_array(t_uint256)50_storage": {
        "base": "t_uint256",
        "encoding": "inplace",
        "label": "uint256[50]",
        "numberOfBytes": "1600"
      },
      "t_bool": {
        "encoding": "inplace",
        "label": "bool",
        "numberOfBytes": "1"
      },
      "t_bytes32": {
        "encoding": "inplace",
        "label": "bytes32",
        "numberOfBytes": "32"
      },
      "t_contract(IFeeCalculator)10716": {
        "encoding": "inplace",
        "label": "contract IFeeCalculator",
        "numberOfBytes": "20"
      },
      "t_mapping(t_address,t_bool)": {
        "encoding": "mapping",
        "key": "t_address",
        "label": "mapping(address => bool)",
        "numberOfBytes": "32",
        "value": "t_bool"
      },
      "t_mapping(t_address,t_mapping(t_address,t_uint256))": {
        "encoding": "mapping",
        "key": "t_address",
        "label": "mapping(address => mapping(address => uint256))",
        "numberOfBytes": "32",
        "value": "t_mapping(t_address,t_uint256)"
      },
      "t_mapping(t_address,t_mapping(t_uint256,t_bool))": {
        "encoding": "mapping",
        "key": "t_address",
        "label": "mapping(address => mapping(uint256 => bool))",
        "numberOfBytes": "32",
        "value": "t_mapping(t_uint256,t_bool)"
      },
      "t_mapping(t_address,t_mapping(t_uint256,t_uint256))": {
        "encoding": "mapping",
        "key": "t_address",
        "label": "mapping(address => mapping(uint256 => uint256))",
        "numberOfBytes": "32",
        "value": "t_mapping(t_uint256,t_uint256)"
      },
      "t_mapping(t_address,t_uint256)": {
        "encoding": "mapping",
        "key": "t_address",
        "label": "mapping(address => uint256)",
        "numberOfBytes": "32",
        "value": "t_uint256"
      },
      "t_mapping(t_bytes32,t_struct(RoleData)1492_storage)": {
        "encoding": "mapping",
        "key": "t_bytes32",
        "label": "mapping(bytes32 => struct AccessControlUpgradeable.RoleData)",
        "numberOfBytes": "32",
        "value": "t_struct(RoleData)1492_storage"
      },
      "t_mapping(t_string_memory_ptr,t_bool)": {
        "encoding": "mapping",
        "key": "t_string_memory_ptr",
        "label": "mapping(string => bool)",
        "numberOfBytes": "32",
        "value": "t_bool"
      },
      "t_mapping(t_uint256,t_bool)": {
        "encoding": "mapping",
        "key": "t_uint256",
        "label": "mapping(uint256 => bool)",
        "numberOfBytes": "32",
        "value": "t_bool"
      },
      "t_mapping(t_uint256,t_uint256)": {
        "encoding": "mapping",
        "key": "t_uint256",
        "label": "mapping(uint256 => uint256)",
        "numberOfBytes": "32",
        "value": "t_uint256"
      },
      "t_string_memory_ptr": {
        "encoding": "bytes",
        "label": "string",
        "numberOfBytes": "32"
      },
      "t_string_storage": {
        "encoding": "bytes",
        "label": "string",
        "numberOfBytes": "32"
      },
      "t_struct(RoleData)1492_storage": {
        "encoding": "inplace",
        "label": "struct AccessControlUpgradeable.RoleData",
        "members": [
          {
            "astId": 1489,
            "contract": "contracts/pools/REDD.sol:REDD",
            "label": "members",
            "offset": 0,
            "slot": "0",
            "type": "t_mapping(t_address,t_bool)"
          },
          {
            "astId": 1491,
            "contract": "contracts/pools/REDD.sol:REDD",
            "label": "adminRole",
            "offset": 0,
            "slot": "1",
            "type": "t_bytes32"
          }
        ],
        "numberOfBytes": "64"
      },
      "t_uint256": {
        "encoding": "inplace",
        "label": "uint256",
        "numberOfBytes": "32"
      },
      "t_uint64": {
        "encoding": "inplace",
        "label": "uint64",
        "numberOfBytes": "8"
      },
      "t_uint8": {
        "encoding": "inplace",
        "label": "uint8",
        "numberOfBytes": "1"
      }
    }
  }
}