{
  "address": "0x914F0C325553947b4200506959b59F2bd98e4786",
  "abi": [
    {
      "anonymous": false,
      "inputs": [
        {
          "indexed": false,
          "internalType": "address",
          "name": "previousAdmin",
          "type": "address"
        },
        {
          "indexed": false,
          "internalType": "address",
          "name": "newAdmin",
          "type": "address"
        }
      ],
      "name": "AdminChanged",
      "type": "event"
    },
    {
      "anonymous": false,
      "inputs": [
        {
          "indexed": false,
          "internalType": "string",
          "name": "methodology",
          "type": "string"
        }
      ],
      "name": "AttributeMethodologyAdded",
      "type": "event"
    },
    {
      "anonymous": false,
      "inputs": [
        {
          "indexed": false,
          "internalType": "string",
          "name": "methodology",
          "type": "string"
        }
      ],
      "name": "AttributeMethodologyRemoved",
      "type": "event"
    },
    {
      "anonymous": false,
      "inputs": [
        {
          "indexed": false,
          "internalType": "string",
          "name": "region",
          "type": "string"
        }
      ],
      "name": "AttributeRegionAdded",
      "type": "event"
    },
    {
      "anonymous": false,
      "inputs": [
        {
          "indexed": false,
          "internalType": "string",
          "name": "region",
          "type": "string"
        }
      ],
      "name": "AttributeRegionRemoved",
      "type": "event"
    },
    {
      "anonymous": false,
      "inputs": [
        {
          "indexed": false,
          "internalType": "string",
          "name": "standard",
          "type": "string"
        }
      ],
      "name": "AttributeStandardAdded",
      "type": "event"
    },
    {
      "anonymous": false,
      "inputs": [
        {
          "indexed": false,
          "internalType": "string",
          "name": "standard",
          "type": "string"
        }
      ],
      "name": "AttributeStandardRemoved",
      "type": "event"
    },
    {
      "anonymous": false,
      "inputs": [
        {
          "indexed": true,
          "internalType": "address",
          "name": "beacon",
          "type": "address"
        }
      ],
      "name": "BeaconUpgraded",
      "type": "event"
    },
    {
      "anonymous": false,
      "inputs": [
        {
          "indexed": false,
          "internalType": "address",
          "name": "erc20addr",
          "type": "address"
        }
      ],
      "name": "ExternalAddressAllowlisted",
      "type": "event"
    },
    {
      "anonymous": false,
      "inputs": [
        {
          "indexed": false,
          "internalType": "address",
          "name": "erc20addr",
          "type": "address"
        }
      ],
      "name": "ExternalAddressRemovedFromAllowlist",
      "type": "event"
    },
    {
      "anonymous": false,
      "inputs": [
        {
          "indexed": false,
          "internalType": "address",
          "name": "tokenAddress",
          "type": "address"
        },
        {
          "indexed": false,
          "internalType": "uint256",
          "name": "tokenId",
          "type": "uint256"
        }
      ],
      "name": "ExternalERC1155TokenAllowlisted",
      "type": "event"
    },
    {
      "anonymous": false,
      "inputs": [
        {
          "indexed": false,
          "internalType": "address",
          "name": "tokenAddress",
          "type": "address"
        },
        {
          "indexed": false,
          "internalType": "uint256",
          "name": "tokenId",
          "type": "uint256"
        }
      ],
      "name": "ExternalERC1155TokenRemovedFromAllowlist",
      "type": "event"
    },
    {
      "anonymous": false,
      "inputs": [
        {
          "indexed": false,
          "internalType": "uint8",
          "name": "version",
          "type": "uint8"
        }
      ],
      "name": "Initialized",
      "type": "event"
    },
    {
      "anonymous": false,
      "inputs": [
        {
          "indexed": false,
          "internalType": "address",
          "name": "erc20addr",
          "type": "address"
        }
      ],
      "name": "InternalAddressAllowlisted",
      "type": "event"
    },
    {
      "anonymous": false,
      "inputs": [
        {
          "indexed": false,
          "internalType": "address",
          "name": "erc20addr",
          "type": "address"
        }
      ],
      "name": "InternalAddressBlocklisted",
      "type": "event"
    },
    {
      "anonymous": false,
      "inputs": [
        {
          "indexed": false,
          "internalType": "address",
          "name": "erc20addr",
          "type": "address"
        }
      ],
      "name": "InternalAddressRemovedFromAllowlist",
      "type": "event"
    },
    {
      "anonymous": false,
      "inputs": [
        {
          "indexed": false,
          "internalType": "address",
          "name": "erc20addr",
          "type": "address"
        }
      ],
      "name": "InternalAddressRemovedFromBlocklist",
      "type": "event"
    },
    {
      "anonymous": false,
      "inputs": [
        {
          "indexed": false,
          "internalType": "string",
          "name": "mappingName",
          "type": "string"
        },
        {
          "indexed": false,
          "internalType": "bool",
          "name": "accepted",
          "type": "bool"
        }
      ],
      "name": "MappingSwitched",
      "type": "event"
    },
    {
      "anonymous": false,
      "inputs": [
        {
          "indexed": false,
          "internalType": "uint256",
          "name": "minimumVintageStartTime",
          "type": "uint256"
        }
      ],
      "name": "MinimumVintageStartTimeUpdated",
      "type": "event"
    },
    {
      "anonymous": false,
      "inputs": [
        {
          "indexed": true,
          "internalType": "address",
          "name": "previousOwner",
          "type": "address"
        },
        {
          "indexed": true,
          "internalType": "address",
          "name": "newOwner",
          "type": "address"
        }
      ],
      "name": "OwnershipTransferred",
      "type": "event"
    },
    {
      "anonymous": false,
      "inputs": [
        {
          "indexed": false,
          "internalType": "address",
          "name": "account",
          "type": "address"
        }
      ],
      "name": "Paused",
      "type": "event"
    },
    {
      "anonymous": false,
      "inputs": [
        {
          "indexed": true,
          "internalType": "bytes32",
          "name": "role",
          "type": "bytes32"
        },
        {
          "indexed": true,
          "internalType": "bytes32",
          "name": "previousAdminRole",
          "type": "bytes32"
        },
        {
          "indexed": true,
          "internalType": "bytes32",
          "name": "newAdminRole",
          "type": "bytes32"
        }
      ],
      "name": "RoleAdminChanged",
      "type": "event"
    },
    {
      "anonymous": false,
      "inputs": [
        {
          "indexed": true,
          "internalType": "bytes32",
          "name": "role",
          "type": "bytes32"
        },
        {
          "indexed": true,
          "internalType": "address",
          "name": "account",
          "type": "address"
        },
        {
          "indexed": true,
          "internalType": "address",
          "name": "sender",
          "type": "address"
        }
      ],
      "name": "RoleGranted",
      "type": "event"
    },
    {
      "anonymous": false,
      "inputs": [
        {
          "indexed": true,
          "internalType": "bytes32",
          "name": "role",
          "type": "bytes32"
        },
        {
          "indexed": true,
          "internalType": "address",
          "name": "account",
          "type": "address"
        },
        {
          "indexed": true,
          "internalType": "address",
          "name": "sender",
          "type": "address"
        }
      ],
      "name": "RoleRevoked",
      "type": "event"
    },
    {
      "anonymous": false,
      "inputs": [
        {
          "indexed": false,
          "internalType": "address",
          "name": "registry",
          "type": "address"
        }
      ],
      "name": "ToucanRegistrySet",
      "type": "event"
    },
    {
      "anonymous": false,
      "inputs": [
        {
          "indexed": false,
          "internalType": "address",
          "name": "account",
          "type": "address"
        }
      ],
      "name": "Unpaused",
      "type": "event"
    },
    {
      "anonymous": false,
      "inputs": [
        {
          "indexed": true,
          "internalType": "address",
          "name": "implementation",
          "type": "address"
        }
      ],
      "name": "Upgraded",
      "type": "event"
    },
    {
      "inputs": [],
      "name": "DEFAULT_ADMIN_ROLE",
      "outputs": [
        {
          "internalType": "bytes32",
          "name": "",
          "type": "bytes32"
        }
      ],
      "stateMutability": "view",
      "type": "function"
    },
    {
      "inputs": [],
      "name": "VERSION",
      "outputs": [
        {
          "internalType": "string",
          "name": "",
          "type": "string"
        }
      ],
      "stateMutability": "view",
      "type": "function"
    },
    {
      "inputs": [],
      "name": "VERSION_RELEASE_CANDIDATE",
      "outputs": [
        {
          "internalType": "uint256",
          "name": "",
          "type": "uint256"
        }
      ],
      "stateMutability": "view",
      "type": "function"
    },
    {
      "inputs": [
        {
          "internalType": "bool",
          "name": "addToList",
          "type": "bool"
        },
        {
          "internalType": "string[]",
          "name": "_regions",
          "type": "string[]"
        },
        {
          "internalType": "string[]",
          "name": "_standards",
          "type": "string[]"
        },
        {
          "internalType": "string[]",
          "name": "_methodologies",
          "type": "string[]"
        }
      ],
      "name": "addAttributes",
      "outputs": [],
      "stateMutability": "nonpayable",
      "type": "function"
    },
    {
      "inputs": [
        {
          "internalType": "address[]",
          "name": "erc20Addr",
          "type": "address[]"
        }
      ],
      "name": "addToExternalAllowlist",
      "outputs": [],
      "stateMutability": "nonpayable",
      "type": "function"
    },
    {
      "inputs": [
        {
          "internalType": "address[]",
          "name": "tokenAddresses",
          "type": "address[]"
        },
        {
          "internalType": "uint256[]",
          "name": "tokenIds",
          "type": "uint256[]"
        }
      ],
      "name": "addToExternalERC1155Allowlist",
      "outputs": [],
      "stateMutability": "nonpayable",
      "type": "function"
    },
    {
      "inputs": [
        {
          "internalType": "address[]",
          "name": "erc20Addr",
          "type": "address[]"
        }
      ],
      "name": "addToInternalAllowlist",
      "outputs": [],
      "stateMutability": "nonpayable",
      "type": "function"
    },
    {
      "inputs": [
        {
          "internalType": "address[]",
          "name": "erc20Addr",
          "type": "address[]"
        }
      ],
      "name": "addToInternalBlocklist",
      "outputs": [],
      "stateMutability": "nonpayable",
      "type": "function"
    },
    {
      "inputs": [
        {
          "internalType": "address",
          "name": "erc20Addr",
          "type": "address"
        }
      ],
      "name": "checkAttributeMatching",
      "outputs": [
        {
          "internalType": "string",
          "name": "",
          "type": "string"
        }
      ],
      "stateMutability": "view",
      "type": "function"
    },
    {
      "inputs": [
        {
          "internalType": "address",
          "name": "tokenAddress",
          "type": "address"
        },
        {
          "internalType": "uint256",
          "name": "tokenId",
          "type": "uint256"
        }
      ],
      "name": "checkERC1155Eligible",
      "outputs": [
        {
          "internalType": "string",
          "name": "",
          "type": "string"
        }
      ],
      "stateMutability": "view",
      "type": "function"
    },
    {
      "inputs": [
        {
          "internalType": "address",
          "name": "erc20Addr",
          "type": "address"
        }
      ],
      "name": "checkEligible",
      "outputs": [
        {
          "internalType": "string",
          "name": "",
          "type": "string"
        }
      ],
      "stateMutability": "view",
      "type": "function"
    },
    {
      "inputs": [],
      "name": "contractRegistry",
      "outputs": [
        {
          "internalType": "address",
          "name": "",
          "type": "address"
        }
      ],
      "stateMutability": "view",
      "type": "function"
    },
    {
      "inputs": [
        {
          "internalType": "address",
          "name": "",
          "type": "address"
        }
      ],
      "name": "externalAllowlist",
      "outputs": [
        {
          "internalType": "bool",
          "name": "",
          "type": "bool"
        }
      ],
      "stateMutability": "view",
      "type": "function"
    },
    {
      "inputs": [
        {
          "internalType": "address",
          "name": "",
          "type": "address"
        },
        {
          "internalType": "uint256",
          "name": "",
          "type": "uint256"
        }
      ],
      "name": "externalERC1155Allowlist",
      "outputs": [
        {
          "internalType": "bool",
          "name": "",
          "type": "bool"
        }
      ],
      "stateMutability": "view",
      "type": "function"
    },
    {
      "inputs": [
        {
          "internalType": "bytes32",
          "name": "role",
          "type": "bytes32"
        }
      ],
      "name": "getRoleAdmin",
      "outputs": [
        {
          "internalType": "bytes32",
          "name": "",
          "type": "bytes32"
        }
      ],
      "stateMutability": "view",
      "type": "function"
    },
    {
      "inputs": [
        {
          "internalType": "bytes32",
          "name": "role",
          "type": "bytes32"
        },
        {
          "internalType": "address",
          "name": "account",
          "type": "address"
        }
      ],
      "name": "grantRole",
      "outputs": [],
      "stateMutability": "nonpayable",
      "type": "function"
    },
    {
      "inputs": [
        {
          "internalType": "bytes32",
          "name": "role",
          "type": "bytes32"
        },
        {
          "internalType": "address",
          "name": "account",
          "type": "address"
        }
      ],
      "name": "hasRole",
      "outputs": [
        {
          "internalType": "bool",
          "name": "",
          "type": "bool"
        }
      ],
      "stateMutability": "view",
      "type": "function"
    },
    {
      "inputs": [
        {
          "internalType": "address[]",
          "name": "accounts",
          "type": "address[]"
        },
        {
          "internalType": "bytes32[]",
          "name": "roles",
          "type": "bytes32[]"
        }
      ],
      "name": "initialize",
      "outputs": [],
      "stateMutability": "nonpayable",
      "type": "function"
    },
    {
      "inputs": [
        {
          "internalType": "address",
          "name": "",
          "type": "address"
        }
      ],
      "name": "internalAllowlist",
      "outputs": [
        {
          "internalType": "bool",
          "name": "",
          "type": "bool"
        }
      ],
      "stateMutability": "view",
      "type": "function"
    },
    {
      "inputs": [
        {
          "internalType": "address",
          "name": "",
          "type": "address"
        }
      ],
      "name": "internalBlocklist",
      "outputs": [
        {
          "internalType": "bool",
          "name": "",
          "type": "bool"
        }
      ],
      "stateMutability": "view",
      "type": "function"
    },
    {
      "inputs": [
        {
          "internalType": "string",
          "name": "",
          "type": "string"
        }
      ],
      "name": "methodologies",
      "outputs": [
        {
          "internalType": "bool",
          "name": "",
          "type": "bool"
        }
      ],
      "stateMutability": "view",
      "type": "function"
    },
    {
      "inputs": [],
      "name": "methodologiesIsAcceptedMapping",
      "outputs": [
        {
          "internalType": "bool",
          "name": "",
          "type": "bool"
        }
      ],
      "stateMutability": "view",
      "type": "function"
    },
    {
      "inputs": [],
      "name": "minimumVintageStartTime",
      "outputs": [
        {
          "internalType": "uint64",
          "name": "",
          "type": "uint64"
        }
      ],
      "stateMutability": "view",
      "type": "function"
    },
    {
      "inputs": [],
      "name": "owner",
      "outputs": [
        {
          "internalType": "address",
          "name": "",
          "type": "address"
        }
      ],
      "stateMutability": "view",
      "type": "function"
    },
    {
      "inputs": [],
      "name": "paused",
      "outputs": [
        {
          "internalType": "bool",
          "name": "",
          "type": "bool"
        }
      ],
      "stateMutability": "view",
      "type": "function"
    },
    {
      "inputs": [],
      "name": "proxiableUUID",
      "outputs": [
        {
          "internalType": "bytes32",
          "name": "",
          "type": "bytes32"
        }
      ],
      "stateMutability": "view",
      "type": "function"
    },
    {
      "inputs": [
        {
          "internalType": "string",
          "name": "",
          "type": "string"
        }
      ],
      "name": "regions",
      "outputs": [
        {
          "internalType": "bool",
          "name": "",
          "type": "bool"
        }
      ],
      "stateMutability": "view",
      "type": "function"
    },
    {
      "inputs": [],
      "name": "regionsIsAcceptedMapping",
      "outputs": [
        {
          "internalType": "bool",
          "name": "",
          "type": "bool"
        }
      ],
      "stateMutability": "view",
      "type": "function"
    },
    {
      "inputs": [
        {
          "internalType": "address[]",
          "name": "erc20Addr",
          "type": "address[]"
        }
      ],
      "name": "removeFromExternalAllowlist",
      "outputs": [],
      "stateMutability": "nonpayable",
      "type": "function"
    },
    {
      "inputs": [
        {
          "internalType": "address[]",
          "name": "tokenAddresses",
          "type": "address[]"
        },
        {
          "internalType": "uint256[]",
          "name": "tokenIds",
          "type": "uint256[]"
        }
      ],
      "name": "removeFromExternalERC1155Allowlist",
      "outputs": [],
      "stateMutability": "nonpayable",
      "type": "function"
    },
    {
      "inputs": [
        {
          "internalType": "address[]",
          "name": "erc20Addr",
          "type": "address[]"
        }
      ],
      "name": "removeFromInternalAllowlist",
      "outputs": [],
      "stateMutability": "nonpayable",
      "type": "function"
    },
    {
      "inputs": [
        {
          "internalType": "address[]",
          "name": "erc20Addr",
          "type": "address[]"
        }
      ],
      "name": "removeFromInternalBlocklist",
      "outputs": [],
      "stateMutability": "nonpayable",
      "type": "function"
    },
    {
      "inputs": [],
      "name": "renounceOwnership",
      "outputs": [],
      "stateMutability": "nonpayable",
      "type": "function"
    },
    {
      "inputs": [
        {
          "internalType": "bytes32",
          "name": "role",
          "type": "bytes32"
        },
        {
          "internalType": "address",
          "name": "account",
          "type": "address"
        }
      ],
      "name": "renounceRole",
      "outputs": [],
      "stateMutability": "nonpayable",
      "type": "function"
    },
    {
      "inputs": [
        {
          "internalType": "bytes32",
          "name": "role",
          "type": "bytes32"
        },
        {
          "internalType": "address",
          "name": "account",
          "type": "address"
        }
      ],
      "name": "revokeRole",
      "outputs": [],
      "stateMutability": "nonpayable",
      "type": "function"
    },
    {
      "inputs": [
        {
          "internalType": "uint64",
          "name": "_minimumVintageStartTime",
          "type": "uint64"
        }
      ],
      "name": "setMinimumVintageStartTime",
      "outputs": [],
      "stateMutability": "nonpayable",
      "type": "function"
    },
    {
      "inputs": [
        {
          "internalType": "address",
          "name": "_address",
          "type": "address"
        }
      ],
      "name": "setToucanContractRegistry",
      "outputs": [],
      "stateMutability": "nonpayable",
      "type": "function"
    },
    {
      "inputs": [
        {
          "internalType": "string",
          "name": "",
          "type": "string"
        }
      ],
      "name": "standards",
      "outputs": [
        {
          "internalType": "bool",
          "name": "",
          "type": "bool"
        }
      ],
      "stateMutability": "view",
      "type": "function"
    },
    {
      "inputs": [],
      "name": "standardsIsAcceptedMapping",
      "outputs": [
        {
          "internalType": "bool",
          "name": "",
          "type": "bool"
        }
      ],
      "stateMutability": "view",
      "type": "function"
    },
    {
      "inputs": [
        {
          "internalType": "bytes4",
          "name": "interfaceId",
          "type": "bytes4"
        }
      ],
      "name": "supportsInterface",
      "outputs": [
        {
          "internalType": "bool",
          "name": "",
          "type": "bool"
        }
      ],
      "stateMutability": "view",
      "type": "function"
    },
    {
      "inputs": [
        {
          "internalType": "string",
          "name": "_mappingName",
          "type": "string"
        },
        {
          "internalType": "bool",
          "name": "accepted",
          "type": "bool"
        }
      ],
      "name": "switchMapping",
      "outputs": [],
      "stateMutability": "nonpayable",
      "type": "function"
    },
    {
      "inputs": [
        {
          "internalType": "address",
          "name": "newOwner",
          "type": "address"
        }
      ],
      "name": "transferOwnership",
      "outputs": [],
      "stateMutability": "nonpayable",
      "type": "function"
    },
    {
      "inputs": [
        {
          "internalType": "address",
          "name": "newImplementation",
          "type": "address"
        }
      ],
      "name": "upgradeTo",
      "outputs": [],
      "stateMutability": "nonpayable",
      "type": "function"
    },
    {
      "inputs": [
        {
          "internalType": "address",
          "name": "newImplementation",
          "type": "address"
        },
        {
          "internalType": "bytes",
          "name": "data",
          "type": "bytes"
        }
      ],
      "name": "upgradeToAndCall",
      "outputs": [],
      "stateMutability": "payable",
      "type": "function"
    }
  ],
  "numDeployments": 2,
  "solcInputHash": "687537be65231256f5c3e880214d0213",
  "bytecode": "0x60a0604052306080523480156200001557600080fd5b506200002062000026565b62000156565b6200003260ff62000035565b50565b60008054610100900460ff1615620000ce578160ff1660011480156200006e57506200006c306200014760201b620021371760201c565b155b620000c65760405162461bcd60e51b815260206004820152602e60248201526000805160206200398883398151915260448201526d191e481a5b9a5d1a585b1a5e995960921b60648201526084015b60405180910390fd5b506000919050565b60005460ff8084169116106200012d5760405162461bcd60e51b815260206004820152602e60248201526000805160206200398883398151915260448201526d191e481a5b9a5d1a585b1a5e995960921b6064820152608401620000bd565b506000805460ff191660ff92909216919091179055600190565b6001600160a01b03163b151590565b6080516137fa6200018e60003960008181610a3301528181610a7301528181610dfa01528181610e3a0152610ec901526137fa6000f3fe6080604052600436106102675760003560e01c80639deb50bf11610144578063d4e457ec116100b6578063e882e37b1161007a578063e882e37b146107cf578063f141b84f146107ef578063f2fde38b14610811578063f3edb9ec14610831578063f75991cd1461086d578063ffa1ad74146108a957600080fd5b8063d4e457ec1461072d578063d547741f1461074f578063d6d10f3a1461076f578063dc5f560e1461078f578063e0051e2a146107af57600080fd5b8063abf410e511610108578063abf410e514610659578063bab5adc31461067a578063bd64648e1461069a578063c36a2573146106ba578063c42f358a146106dc578063ccbaa818146106fc57600080fd5b80639deb50bf1461057b578063a1631e4b1461059b578063a217fddf146105db578063a9a484c5146105f0578063abd840211461061d57600080fd5b80635c975abb116101dd578063850c3864116101a1578063850c38641461048d5780638662522f146104ad5780638da5cb5b146104e957806391d148541461051b57806395f187a51461053b5780639891fd121461055b57600080fd5b80635c975abb146103fa57806365918979146104125780636ca0b0d714610443578063715018a61461045857806381e48e901461046d57600080fd5b80633659cfe61161022f5780633659cfe61461034157806336c63c701461036157806339cd7a8a14610392578063437d0366146103b25780634f1ef286146103d257806352d1902d146103e557600080fd5b806301ffc9a71461026c5780630c0efecc146102a1578063248a9ca3146102c35780632f2ff15d1461030157806336568abe14610321575b600080fd5b34801561027857600080fd5b5061028c610287366004612b33565b6108da565b60405190151581526020015b60405180910390f35b3480156102ad57600080fd5b506102c16102bc366004612b72565b610911565b005b3480156102cf57600080fd5b506102f36102de366004612b8f565b600090815260c9602052604090206001015490565b604051908152602001610298565b34801561030d57600080fd5b506102c161031c366004612bbd565b61097c565b34801561032d57600080fd5b506102c161033c366004612bbd565b6109a6565b34801561034d57600080fd5b506102c161035c366004612bed565b610a29565b34801561036d57600080fd5b5061028c61037c366004612bed565b6101646020526000908152604090205460ff1681565b34801561039e57600080fd5b506102c16103ad366004612d2f565b610b08565b3480156103be57600080fd5b506102c16103cd366004612dc0565b610c7c565b6102c16103e0366004612e2b565b610df0565b3480156103f157600080fd5b506102f3610ebc565b34801561040657600080fd5b5060655460ff1661028c565b34801561041e57600080fd5b5061028c61042d366004612bed565b6101636020526000908152604090205460ff1681565b34801561044f57600080fd5b506102f3600281565b34801561046457600080fd5b506102c1610f6f565b34801561047957600080fd5b506102c1610488366004612f3b565b610fd5565b34801561049957600080fd5b506102c16104a8366004612fd5565b611430565b3480156104b957600080fd5b5061028c6104c836600461306e565b805160208183018101805161015f8252928201919093012091525460ff1681565b3480156104f557600080fd5b506033546001600160a01b03165b6040516001600160a01b039091168152602001610298565b34801561052757600080fd5b5061028c610536366004612bbd565b61150b565b34801561054757600080fd5b506102c1610556366004612fd5565b611536565b34801561056757600080fd5b506102c1610576366004612fd5565b611611565b34801561058757600080fd5b506102c1610596366004612fd5565b6116ec565b3480156105a757600080fd5b50610165546105c390600160a01b90046001600160401b031681565b6040516001600160401b039091168152602001610298565b3480156105e757600080fd5b506102f3600081565b3480156105fc57600080fd5b5061061061060b366004612bed565b6117c7565b6040516102989190613102565b34801561062957600080fd5b5061028c610638366004613115565b61016660209081526000928352604080842090915290825290205460ff1681565b34801561066557600080fd5b5061016554610503906001600160a01b031681565b34801561068657600080fd5b506102c1610695366004612dc0565b611a97565b3480156106a657600080fd5b506106106106b5366004613115565b611b13565b3480156106c657600080fd5b506101655461028c90600160e81b900460ff1681565b3480156106e857600080fd5b506102c16106f7366004612fd5565b611b76565b34801561070857600080fd5b5061028c610717366004612bed565b6101626020526000908152604090205460ff1681565b34801561073957600080fd5b506101655461028c90600160f01b900460ff1681565b34801561075b57600080fd5b506102c161076a366004612bbd565b611c51565b34801561077b57600080fd5b506102c161078a366004612fd5565b611c76565b34801561079b57600080fd5b506106106107aa366004612bed565b611d51565b3480156107bb57600080fd5b506102c16107ca366004612dc0565b611eac565b3480156107db57600080fd5b506102c16107ea366004612bed565b612018565b3480156107fb57600080fd5b506101655461028c90600160e01b900460ff1681565b34801561081d57600080fd5b506102c161082c366004612bed565b61206f565b34801561083d57600080fd5b5061028c61084c36600461306e565b80516020818301810180516101608252928201919093012091525460ff1681565b34801561087957600080fd5b5061028c61088836600461306e565b80516020818301810180516101618252928201919093012091525460ff1681565b3480156108b557600080fd5b50610610604051806040016040528060058152602001640312e302e360dc1b81525081565b60006001600160e01b03198216637965db0b60e01b148061090b57506301ffc9a760e01b6001600160e01b03198316145b92915050565b610919612146565b610165805467ffffffffffffffff60a01b1916600160a01b6001600160401b038416908102919091179091556040519081527f87f670402a6c72fff3b60ba5223165f062b58d671871fc2c49ea96101fdd19a0906020015b60405180910390a150565b600082815260c960205260409020600101546109978161219c565b6109a183836121a6565b505050565b6001600160a01b0381163314610a1b5760405162461bcd60e51b815260206004820152602f60248201527f416363657373436f6e74726f6c3a2063616e206f6e6c792072656e6f756e636560448201526e103937b632b9903337b91039b2b63360891b60648201526084015b60405180910390fd5b610a25828261222c565b5050565b6001600160a01b037f0000000000000000000000000000000000000000000000000000000000000000163003610a715760405162461bcd60e51b8152600401610a1290613141565b7f00000000000000000000000000000000000000000000000000000000000000006001600160a01b0316610aba60008051602061377e833981519152546001600160a01b031690565b6001600160a01b031614610ae05760405162461bcd60e51b8152600401610a129061318d565b610ae981612293565b60408051600080825260208201909252610b059183919061229b565b50565b610b10612146565b604080518082019091526007815266726567696f6e7360c81b6020820152610b39908390612406565b15610b755780610b5857610165805460ff60e01b191690556000610b6f565b610165805460ff60e01b1916600160e01b17905560015b50610c3f565b6040805180820190915260098152687374616e646172647360b81b6020820152610ba0908390612406565b15610bd85780610bbf57610165805460ff60e81b191690556000610b6f565b610165805460ff60e81b1916600160e81b179055610c3f565b60408051808201909152600d81526c6d6574686f646f6c6f6769657360981b6020820152610c07908390612406565b15610c3f5780610c2657610165805460ff60f01b191690556000610c3d565b610165805460ff60f01b1916600160f01b17905560015b505b7fcdc35455a1217219a4240bb18a7d2978eb98208f22f7ec36d6a1381c28f9d0f58282604051610c709291906131d9565b60405180910390a15050565b610c84612146565b82818114610cbc576040805180820182526002815261189960f11b6020820152905162461bcd60e51b8152610a129190600401613102565b60005b81811015610de85760016101666000888885818110610ce057610ce06131fd565b9050602002016020810190610cf59190612bed565b6001600160a01b03166001600160a01b031681526020019081526020016000206000868685818110610d2957610d296131fd565b90506020020135815260200190815260200160002060006101000a81548160ff0219169083151502179055507f198e97d55459e132457f017a1cba6e960ac569ae89045a8b978702ffd7ea7977868683818110610d8857610d886131fd565b9050602002016020810190610d9d9190612bed565b858584818110610daf57610daf6131fd565b604080516001600160a01b0390951685526020918202939093013590840152500160405180910390a1610de181613229565b9050610cbf565b505050505050565b6001600160a01b037f0000000000000000000000000000000000000000000000000000000000000000163003610e385760405162461bcd60e51b8152600401610a1290613141565b7f00000000000000000000000000000000000000000000000000000000000000006001600160a01b0316610e8160008051602061377e833981519152546001600160a01b031690565b6001600160a01b031614610ea75760405162461bcd60e51b8152600401610a129061318d565b610eb082612293565b610a258282600161229b565b6000306001600160a01b037f00000000000000000000000000000000000000000000000000000000000000001614610f5c5760405162461bcd60e51b815260206004820152603860248201527f555550535570677261646561626c653a206d757374206e6f742062652063616c60448201527f6c6564207468726f7567682064656c656761746563616c6c00000000000000006064820152608401610a12565b5060008051602061377e83398151915290565b6033546001600160a01b03163314610fc95760405162461bcd60e51b815260206004820181905260248201527f4f776e61626c653a2063616c6c6572206973206e6f7420746865206f776e65726044820152606401610a12565b610fd3600061242c565b565b610fdd612146565b60005b825181101561114b5784151560010361109957600161016084838151811061100a5761100a6131fd565b602002602001015160405161101f9190613242565b908152602001604051809103902060006101000a81548160ff0219169083151502179055507fa27e97999993c298fae0b7088ff732fe078cc1585665ee1554220b3cbe6317a9838281518110611077576110776131fd565b602002602001015160405161108c9190613102565b60405180910390a161113b565b60006101608483815181106110b0576110b06131fd565b60200260200101516040516110c59190613242565b908152602001604051809103902060006101000a81548160ff0219169083151502179055507f0127ddc00426c693b5becb26ba43a260c781ebc323b61d3b24b61e4dc5c93c7183828151811061111d5761111d6131fd565b60200260200101516040516111329190613102565b60405180910390a15b61114481613229565b9050610fe0565b5060005b81518110156112ba57841515600103611208576001610161838381518110611179576111796131fd565b602002602001015160405161118e9190613242565b908152602001604051809103902060006101000a81548160ff0219169083151502179055507f156643e9a7f860e95993739893595e6ee1d04d9ff1b98567dbe9d5681cd152b28282815181106111e6576111e66131fd565b60200260200101516040516111fb9190613102565b60405180910390a16112aa565b600061016183838151811061121f5761121f6131fd565b60200260200101516040516112349190613242565b908152602001604051809103902060006101000a81548160ff0219169083151502179055507f21a77ac4edf49633047cc4e32b10dfe633811216214400e0e1f507c3f7287b6182828151811061128c5761128c6131fd565b60200260200101516040516112a19190613102565b60405180910390a15b6112b381613229565b905061114f565b5060005b83518110156114295784151560010361137757600161015f8583815181106112e8576112e86131fd565b60200260200101516040516112fd9190613242565b908152602001604051809103902060006101000a81548160ff0219169083151502179055507f3df7a1330febee3646ae4a0f0e46c94c046f0ee810b2b7f1fa10fa8f34d7b7ef848281518110611355576113556131fd565b602002602001015160405161136a9190613102565b60405180910390a1611419565b600061015f85838151811061138e5761138e6131fd565b60200260200101516040516113a39190613242565b908152602001604051809103902060006101000a81548160ff0219169083151502179055507fc84badb33408cce6e89b30a735d8f06e094fa4a19c01c2da66718f490c672f658482815181106113fb576113fb6131fd565b60200260200101516040516114109190613102565b60405180910390a15b61142281613229565b90506112be565b5050505050565b611438612146565b60005b8151811015610a25576001610164600084848151811061145d5761145d6131fd565b60200260200101516001600160a01b03166001600160a01b0316815260200190815260200160002060006101000a81548160ff0219169083151502179055507f85fc56aecce1ef094be244fd6b70c13cbc3786dacfb5ddb457eaa6e81924b6728282815181106114cf576114cf6131fd565b60200260200101516040516114f391906001600160a01b0391909116815260200190565b60405180910390a161150481613229565b905061143b565b600091825260c9602090815260408084206001600160a01b0393909316845291905290205460ff1690565b61153e612146565b60005b8151811015610a255760016101626000848481518110611563576115636131fd565b60200260200101516001600160a01b03166001600160a01b0316815260200190815260200160002060006101000a81548160ff0219169083151502179055507f96c62648e20245db42813046d53ed1697aab1c1a06b53092fd5f74f76d9f0e138282815181106115d5576115d56131fd565b60200260200101516040516115f991906001600160a01b0391909116815260200190565b60405180910390a161160a81613229565b9050611541565b611619612146565b60005b8151811015610a25576000610162600084848151811061163e5761163e6131fd565b60200260200101516001600160a01b03166001600160a01b0316815260200190815260200160002060006101000a81548160ff0219169083151502179055507f25add64d709821cd4d2f0456865755a330b78c8fb0f438088364f480710acc408282815181106116b0576116b06131fd565b60200260200101516040516116d491906001600160a01b0391909116815260200190565b60405180910390a16116e581613229565b905061161c565b6116f4612146565b60005b8151811015610a255760006101636000848481518110611719576117196131fd565b60200260200101516001600160a01b03166001600160a01b0316815260200190815260200160002060006101000a81548160ff0219169083151502179055507f8c23715cef0c44b9a0c13ba0edb2d13490a2ff75434e8dc238e3dfce2896b23382828151811061178b5761178b6131fd565b60200260200101516040516117af91906001600160a01b0391909116815260200190565b60405180910390a16117c081613229565b90506116f7565b606061182860405180610140016040528060608152602001606081526020016060815260200160608152602001606081526020016060815260200160608152602001606081526020016060815260200160006001600160a01b031681525090565b6118ab6040518061018001604052806060815260200160006001600160401b0316815260200160006001600160401b031681526020016000815260200160006001600160401b0316815260200160001515815260200160001515815260200160608152602001606081526020016060815260200160608152602001606081525090565b836001600160a01b031663152583de6040518163ffffffff1660e01b8152600401600060405180830381865afa1580156118e9573d6000803e3d6000fd5b505050506040513d6000823e601f3d908101601f19168201604052611911919081019061342e565b6101655460208201519294509092506001600160401b03600160a01b90910481169116101561195a5750506040805180820190915260018152601b60f91b602082015292915050565b610165601c9054906101000a900460ff16151561015f83606001516040516119829190613242565b9081526040519081900360200190205460ff161515146119bc5750506040805180820190915260018152603760f81b602082015292915050565b610165601d9054906101000a900460ff16151561016083602001516040516119e49190613242565b9081526040519081900360200190205460ff16151514611a1e5750506040805180820190915260018152600760fb1b602082015292915050565b610165601e9054906101000a900460ff1615156101618360400151604051611a469190613242565b9081526040519081900360200190205460ff16151514611a805750506040805180820190915260018152603960f81b602082015292915050565b505060408051602081019091526000815292915050565b6000611aa3600161247e565b90508015611abb576000805461ff0019166101001790555b611ac78585858561250b565b8015611429576000805461ff0019169055604051600181527f7f26b83ff96e1f2b6a682f133852f6798a09c465da95921460cefb38474024989060200160405180910390a15050505050565b6001600160a01b03821660009081526101666020908152604080832084845290915290205460609060ff16611b6057506040805180820190915260018152603560f81b602082015261090b565b5060408051602081019091526000815292915050565b611b7e612146565b60005b8151811015610a255760016101636000848481518110611ba357611ba36131fd565b60200260200101516001600160a01b03166001600160a01b0316815260200190815260200160002060006101000a81548160ff0219169083151502179055507f6e22096f78ca0e0ca190f9724d8a2ded2155ade3a469817cb9e95989a5124823828281518110611c1557611c156131fd565b6020026020010151604051611c3991906001600160a01b0391909116815260200190565b60405180910390a1611c4a81613229565b9050611b81565b600082815260c96020526040902060010154611c6c8161219c565b6109a1838361222c565b611c7e612146565b60005b8151811015610a255760006101646000848481518110611ca357611ca36131fd565b60200260200101516001600160a01b03166001600160a01b0316815260200190815260200160002060006101000a81548160ff0219169083151502179055507f4a522111770e286506eab11ca1d3cb5ca4a24a84458affbb5372bec78340102e828281518110611d1557611d156131fd565b6020026020010151604051611d3991906001600160a01b0391909116815260200190565b60405180910390a1611d4a81613229565b9050611c81565b61016554604051633a37b16d60e11b81526001600160a01b03838116600483015260609260009291169063746f62da90602401602060405180830381865afa158015611da1573d6000803e3d6000fd5b505050506040513d601f19601f82011682018060405250810190611dc591906135eb565b90508015611e56576001600160a01b0383166000908152610163602052604090205460ff1615611e05575050604080516020810190915260008152919050565b6001600160a01b0383166000908152610164602052604090205460ff1615611e465750506040805180820190915260018152600d60fa1b6020820152919050565b611e4f836117c7565b9392505050565b6001600160a01b0383166000908152610162602052604090205460ff16611e965750506040805180820190915260018152603560f81b6020820152919050565b5050604080516020810190915260008152919050565b611eb4612146565b82818114611eec576040805180820182526002815261189960f11b6020820152905162461bcd60e51b8152610a129190600401613102565b60005b81811015610de85760006101666000888885818110611f1057611f106131fd565b9050602002016020810190611f259190612bed565b6001600160a01b03166001600160a01b031681526020019081526020016000206000868685818110611f5957611f596131fd565b90506020020135815260200190815260200160002060006101000a81548160ff0219169083151502179055507ff62e4e7e6461caa7928ab1decfa538ceda320c494d2e23ecf29dc5a11a24bdcd868683818110611fb857611fb86131fd565b9050602002016020810190611fcd9190612bed565b858584818110611fdf57611fdf6131fd565b604080516001600160a01b0390951685526020918202939093013590840152500160405180910390a161201181613229565b9050611eef565b612020612146565b61016580546001600160a01b0319166001600160a01b0383169081179091556040519081527f86907b53cf2024579968511876daf0b4620d65803b550e33101baf70aeb6f5eb90602001610971565b6033546001600160a01b031633146120c95760405162461bcd60e51b815260206004820181905260248201527f4f776e61626c653a2063616c6c6572206973206e6f7420746865206f776e65726044820152606401610a12565b6001600160a01b03811661212e5760405162461bcd60e51b815260206004820152602660248201527f4f776e61626c653a206e6577206f776e657220697320746865207a65726f206160448201526564647265737360d01b6064820152608401610a12565b610b058161242c565b6001600160a01b03163b151590565b336121596033546001600160a01b031690565b6001600160a01b03161460405180604001604052806002815260200161062760f31b81525090610b055760405162461bcd60e51b8152600401610a129190613102565b610b05813361255b565b6121b0828261150b565b610a2557600082815260c9602090815260408083206001600160a01b03851684529091529020805460ff191660011790556121e83390565b6001600160a01b0316816001600160a01b0316837f2f8788117e7eff1d82e926ec794901d17c78024a50270940304540a733656f0d60405160405180910390a45050565b612236828261150b565b15610a2557600082815260c9602090815260408083206001600160a01b0385168085529252808320805460ff1916905551339285917ff6391f5c32d9c69d2a47ea670b442974b53935d1edc7fd64eb21e047a839171b9190a45050565b610b05612146565b7f4910fdfa16fed3260ed0e7147f7cc6da11a60208b5b9406d12a635614ffd91435460ff16156122ce576109a1836125bf565b826001600160a01b03166352d1902d6040518163ffffffff1660e01b8152600401602060405180830381865afa925050508015612328575060408051601f3d908101601f1916820190925261232591810190613608565b60015b61238b5760405162461bcd60e51b815260206004820152602e60248201527f45524331393637557067726164653a206e657720696d706c656d656e7461746960448201526d6f6e206973206e6f74205555505360901b6064820152608401610a12565b60008051602061377e83398151915281146123fa5760405162461bcd60e51b815260206004820152602960248201527f45524331393637557067726164653a20756e737570706f727465642070726f786044820152681a58589b195555525160ba1b6064820152608401610a12565b506109a183838361265b565b600081518351148015611e4f575081805190602001208380519060200120149392505050565b603380546001600160a01b038381166001600160a01b0319831681179093556040519116919082907f8be0079c531659141344cd1fd0a4f28419497f9722a3daafe3b4186f6b6457e090600090a35050565b60008054610100900460ff16156124c5578160ff1660011480156124a15750303b155b6124bd5760405162461bcd60e51b8152600401610a1290613621565b506000919050565b60005460ff8084169116106124ec5760405162461bcd60e51b8152600401610a1290613621565b506000805460ff191660ff92909216919091179055600190565b919050565b6000612517600161247e565b9050801561252f576000805461ff0019166101001790555b612537612686565b61253f6126ad565b6125476126dd565b61255385858585612710565b611ac7612686565b612565828261150b565b610a255761257d816001600160a01b0316601461282b565b61258883602061282b565b60405160200161259992919061366f565b60408051601f198184030181529082905262461bcd60e51b8252610a1291600401613102565b6001600160a01b0381163b61262c5760405162461bcd60e51b815260206004820152602d60248201527f455243313936373a206e657720696d706c656d656e746174696f6e206973206e60448201526c1bdd08184818dbdb9d1c9858dd609a1b6064820152608401610a12565b60008051602061377e83398151915280546001600160a01b0319166001600160a01b0392909216919091179055565b612664836129c6565b6000825111806126715750805b156109a1576126808383612a06565b50505050565b600054610100900460ff16610fd35760405162461bcd60e51b8152600401610a12906136e4565b600054610100900460ff166126d45760405162461bcd60e51b8152600401610a12906136e4565b610fd33361242c565b600054610100900460ff166127045760405162461bcd60e51b8152600401610a12906136e4565b6065805460ff19169055565b8281146127575760405162461bcd60e51b8152602060048201526015602482015274082e4e4c2f240d8cadccee8d040dad2e6dac2e8c6d605b1b6044820152606401610a12565b61275f612686565b6000805b848110156127e8576127b3848483818110612780576127806131fd565b90506020020135878784818110612799576127996131fd565b90506020020160208101906127ae9190612bed565b6121a6565b60008484838181106127c7576127c76131fd565b90506020020135036127d857600191505b6127e181613229565b9050612763565b50806114295760405162461bcd60e51b8152602060048201526012602482015271139bc818591b5a5b881cdc1958da599a595960721b6044820152606401610a12565b6060600061283a83600261372f565b61284590600261374e565b6001600160401b0381111561285c5761285c612c0a565b6040519080825280601f01601f191660200182016040528015612886576020820181803683370190505b509050600360fc1b816000815181106128a1576128a16131fd565b60200101906001600160f81b031916908160001a905350600f60fb1b816001815181106128d0576128d06131fd565b60200101906001600160f81b031916908160001a90535060006128f484600261372f565b6128ff90600161374e565b90505b6001811115612977576f181899199a1a9b1b9c1cb0b131b232b360811b85600f1660108110612933576129336131fd565b1a60f81b828281518110612949576129496131fd565b60200101906001600160f81b031916908160001a90535060049490941c9361297081613766565b9050612902565b508315611e4f5760405162461bcd60e51b815260206004820181905260248201527f537472696e67733a20686578206c656e67746820696e73756666696369656e746044820152606401610a12565b6129cf816125bf565b6040516001600160a01b038216907fbc7cd75a20ee27fd9adebab32041f755214dbc6bffa90cc0225b39da2e5c2d3b90600090a250565b60606001600160a01b0383163b612a6e5760405162461bcd60e51b815260206004820152602660248201527f416464726573733a2064656c65676174652063616c6c20746f206e6f6e2d636f6044820152651b9d1c9858dd60d21b6064820152608401610a12565b600080846001600160a01b031684604051612a899190613242565b600060405180830381855af49150503d8060008114612ac4576040519150601f19603f3d011682016040523d82523d6000602084013e612ac9565b606091505b5091509150612af1828260405180606001604052806027815260200161379e60279139612afa565b95945050505050565b60608315612b09575081611e4f565b825115612b195782518084602001fd5b8160405162461bcd60e51b8152600401610a129190613102565b600060208284031215612b4557600080fd5b81356001600160e01b031981168114611e4f57600080fd5b6001600160401b0381168114610b0557600080fd5b600060208284031215612b8457600080fd5b8135611e4f81612b5d565b600060208284031215612ba157600080fd5b5035919050565b6001600160a01b0381168114610b0557600080fd5b60008060408385031215612bd057600080fd5b823591506020830135612be281612ba8565b809150509250929050565b600060208284031215612bff57600080fd5b8135611e4f81612ba8565b634e487b7160e01b600052604160045260246000fd5b60405161018081016001600160401b0381118282101715612c4357612c43612c0a565b60405290565b60405161014081016001600160401b0381118282101715612c4357612c43612c0a565b604051601f8201601f191681016001600160401b0381118282101715612c9457612c94612c0a565b604052919050565b60006001600160401b03821115612cb557612cb5612c0a565b50601f01601f191660200190565b6000612cd6612cd184612c9c565b612c6c565b9050828152838383011115612cea57600080fd5b828260208301376000602084830101529392505050565b600082601f830112612d1257600080fd5b611e4f83833560208501612cc3565b8015158114610b0557600080fd5b60008060408385031215612d4257600080fd5b82356001600160401b03811115612d5857600080fd5b612d6485828601612d01565b9250506020830135612be281612d21565b60008083601f840112612d8757600080fd5b5081356001600160401b03811115612d9e57600080fd5b6020830191508360208260051b8501011115612db957600080fd5b9250929050565b60008060008060408587031215612dd657600080fd5b84356001600160401b0380821115612ded57600080fd5b612df988838901612d75565b90965094506020870135915080821115612e1257600080fd5b50612e1f87828801612d75565b95989497509550505050565b60008060408385031215612e3e57600080fd5b8235612e4981612ba8565b915060208301356001600160401b03811115612e6457600080fd5b8301601f81018513612e7557600080fd5b612e8485823560208401612cc3565b9150509250929050565b60006001600160401b03821115612ea757612ea7612c0a565b5060051b60200190565b600082601f830112612ec257600080fd5b81356020612ed2612cd183612e8e565b82815260059290921b84018101918181019086841115612ef157600080fd5b8286015b84811015612f305780356001600160401b03811115612f145760008081fd5b612f228986838b0101612d01565b845250918301918301612ef5565b509695505050505050565b60008060008060808587031215612f5157600080fd5b8435612f5c81612d21565b935060208501356001600160401b0380821115612f7857600080fd5b612f8488838901612eb1565b94506040870135915080821115612f9a57600080fd5b612fa688838901612eb1565b93506060870135915080821115612fbc57600080fd5b50612fc987828801612eb1565b91505092959194509250565b60006020808385031215612fe857600080fd5b82356001600160401b03811115612ffe57600080fd5b8301601f8101851361300f57600080fd5b803561301d612cd182612e8e565b81815260059190911b8201830190838101908783111561303c57600080fd5b928401925b8284101561306357833561305481612ba8565b82529284019290840190613041565b979650505050505050565b60006020828403121561308057600080fd5b81356001600160401b0381111561309657600080fd5b6130a284828501612d01565b949350505050565b60005b838110156130c55781810151838201526020016130ad565b838111156126805750506000910152565b600081518084526130ee8160208601602086016130aa565b601f01601f19169290920160200192915050565b602081526000611e4f60208301846130d6565b6000806040838503121561312857600080fd5b823561313381612ba8565b946020939093013593505050565b6020808252602c908201527f46756e6374696f6e206d7573742062652063616c6c6564207468726f7567682060408201526b19195b1959d85d1958d85b1b60a21b606082015260800190565b6020808252602c908201527f46756e6374696f6e206d7573742062652063616c6c6564207468726f7567682060408201526b6163746976652070726f787960a01b606082015260800190565b6040815260006131ec60408301856130d6565b905082151560208301529392505050565b634e487b7160e01b600052603260045260246000fd5b634e487b7160e01b600052601160045260246000fd5b60006001820161323b5761323b613213565b5060010190565b600082516132548184602087016130aa565b9190910192915050565b600082601f83011261326f57600080fd5b815161327d612cd182612c9c565b81815284602083860101111561329257600080fd5b6130a28260208301602087016130aa565b805161250681612ba8565b805161250681612b5d565b805161250681612d21565b600061018082840312156132d757600080fd5b6132df612c20565b905081516001600160401b03808211156132f857600080fd5b6133048583860161325e565b8352613312602085016132ae565b6020840152613323604085016132ae565b60408401526060840151606084015261333e608085016132ae565b608084015261334f60a085016132b9565b60a084015261336060c085016132b9565b60c084015260e084015191508082111561337957600080fd5b6133858583860161325e565b60e0840152610100915081840151818111156133a057600080fd5b6133ac8682870161325e565b8385015250610120915081840151818111156133c757600080fd5b6133d38682870161325e565b8385015250610140915081840151818111156133ee57600080fd5b6133fa8682870161325e565b83850152506101609150818401518181111561341557600080fd5b6134218682870161325e565b8385015250505092915050565b6000806040838503121561344157600080fd5b82516001600160401b038082111561345857600080fd5b90840190610140828703121561346d57600080fd5b613475612c49565b82518281111561348457600080fd5b6134908882860161325e565b8252506020830151828111156134a557600080fd5b6134b18882860161325e565b6020830152506040830151828111156134c957600080fd5b6134d58882860161325e565b6040830152506060830151828111156134ed57600080fd5b6134f98882860161325e565b60608301525060808301518281111561351157600080fd5b61351d8882860161325e565b60808301525060a08301518281111561353557600080fd5b6135418882860161325e565b60a08301525060c08301518281111561355957600080fd5b6135658882860161325e565b60c08301525060e08301518281111561357d57600080fd5b6135898882860161325e565b60e08301525061010080840151838111156135a357600080fd5b6135af8982870161325e565b8284015250506101206135c38185016132a3565b9082015260208601519094509150808211156135de57600080fd5b50612e84858286016132c4565b6000602082840312156135fd57600080fd5b8151611e4f81612d21565b60006020828403121561361a57600080fd5b5051919050565b6020808252602e908201527f496e697469616c697a61626c653a20636f6e747261637420697320616c72656160408201526d191e481a5b9a5d1a585b1a5e995960921b606082015260800190565b7f416363657373436f6e74726f6c3a206163636f756e74200000000000000000008152600083516136a78160178501602088016130aa565b7001034b99036b4b9b9b4b733903937b6329607d1b60179184019182015283516136d88160288401602088016130aa565b01602801949350505050565b6020808252602b908201527f496e697469616c697a61626c653a20636f6e7472616374206973206e6f74206960408201526a6e697469616c697a696e6760a81b606082015260800190565b600081600019048311821515161561374957613749613213565b500290565b6000821982111561376157613761613213565b500190565b60008161377557613775613213565b50600019019056fe360894a13ba1a3210667c828492db98dca3e2076cc3735a920a3ca505d382bbc416464726573733a206c6f772d6c6576656c2064656c65676174652063616c6c206661696c6564a2646970667358221220d051ea7fe446609972795714bdbc5a65fa4a511a3ff19b60dc2751da363b407c64736f6c634300080e0033496e697469616c697a61626c653a20636f6e747261637420697320616c726561",
  "devdoc": {
    "kind": "dev",
    "methods": {
      "addAttributes(bool,string[],string[],string[])": {
        "params": {
          "addToList": "determines whether attribute should be added or removed Other params are arrays of attributes to be added"
        }
      },
      "addToExternalAllowlist(address[])": {
        "params": {
          "erc20Addr": "accepts an array of contract addresses"
        }
      },
      "addToExternalERC1155Allowlist(address[],uint256[])": {
        "details": "Both arrays must be of the same length. Each token address is associated with the token ID at the same index.",
        "params": {
          "tokenAddresses": "An array of contract addresses",
          "tokenIds": "An array of token IDs"
        }
      },
      "addToInternalAllowlist(address[])": {
        "params": {
          "erc20Addr": "accepts an array of contract addresses"
        }
      },
      "addToInternalBlocklist(address[])": {
        "params": {
          "erc20Addr": "accepts an array of contract addresses"
        }
      },
      "checkAttributeMatching(address)": {
        "params": {
          "erc20Addr": "The ERC20 token"
        },
        "returns": {
          "_0": "String with error code if any error occurs, else empty string"
        }
      },
      "checkERC1155Eligible(address,uint256)": {
        "params": {
          "tokenAddress": "address of the ERC1155 token",
          "tokenId": "ID of the ERC1155 token"
        },
        "returns": {
          "_0": "String with error code if any error occurs, else empty string"
        }
      },
      "checkEligible(address)": {
        "params": {
          "erc20Addr": "The ERC20 token"
        },
        "returns": {
          "_0": "String with error code if any error occurs, else empty string"
        }
      },
      "getRoleAdmin(bytes32)": {
        "details": "Returns the admin role that controls `role`. See {grantRole} and {revokeRole}. To change a role's admin, use {_setRoleAdmin}."
      },
      "grantRole(bytes32,address)": {
        "details": "Grants `role` to `account`. If `account` had not been already granted `role`, emits a {RoleGranted} event. Requirements: - the caller must have ``role``'s admin role."
      },
      "hasRole(bytes32,address)": {
        "details": "Returns `true` if `account` has been granted `role`."
      },
      "owner()": {
        "details": "Returns the address of the current owner."
      },
      "paused()": {
        "details": "Returns true if the contract is paused, and false otherwise."
      },
      "proxiableUUID()": {
        "details": "Implementation of the ERC1822 {proxiableUUID} function. This returns the storage slot used by the implementation. It is used to validate that the this implementation remains valid after an upgrade. IMPORTANT: A proxy pointing at a proxiable contract should not be considered proxiable itself, because this risks bricking a proxy that upgrades to it, by delegating to itself until out of gas. Thus it is critical that this function revert if invoked through a proxy. This is guaranteed by the `notDelegated` modifier."
      },
      "removeFromExternalAllowlist(address[])": {
        "params": {
          "erc20Addr": "accepts an array of contract addresses"
        }
      },
      "removeFromExternalERC1155Allowlist(address[],uint256[])": {
        "details": "Both arrays must be of the same length. Each token address is associated with the token ID at the same index.",
        "params": {
          "tokenAddresses": "An array of contract addresses",
          "tokenIds": "An array of token IDs"
        }
      },
      "removeFromInternalAllowlist(address[])": {
        "params": {
          "erc20Addr": "accepts an array of contract addressesc"
        }
      },
      "removeFromInternalBlocklist(address[])": {
        "params": {
          "erc20Addr": "accepts an array of contract addresses"
        }
      },
      "renounceOwnership()": {
        "details": "Leaves the contract without owner. It will not be possible to call `onlyOwner` functions anymore. Can only be called by the current owner. NOTE: Renouncing ownership will leave the contract without an owner, thereby removing any functionality that is only available to the owner."
      },
      "renounceRole(bytes32,address)": {
        "details": "Revokes `role` from the calling account. Roles are often managed via {grantRole} and {revokeRole}: this function's purpose is to provide a mechanism for accounts to lose their privileges if they are compromised (such as when a trusted device is misplaced). If the calling account had been revoked `role`, emits a {RoleRevoked} event. Requirements: - the caller must be `account`."
      },
      "revokeRole(bytes32,address)": {
        "details": "Revokes `role` from `account`. If `account` had been granted `role`, emits a {RoleRevoked} event. Requirements: - the caller must have ``role``'s admin role."
      },
      "setMinimumVintageStartTime(uint64)": {
        "params": {
          "_minimumVintageStartTime": "unix time format"
        }
      },
      "supportsInterface(bytes4)": {
        "details": "See {IERC165-supportsInterface}."
      },
      "switchMapping(string,bool)": {
        "params": {
          "_mappingName": "attribute mapping of project-vintage data",
          "accepted": "determines if mapping works as a blocklist or allowlist"
        }
      },
      "transferOwnership(address)": {
        "details": "Transfers ownership of the contract to a new account (`newOwner`). Can only be called by the current owner."
      },
      "upgradeTo(address)": {
        "details": "Upgrade the implementation of the proxy to `newImplementation`. Calls {_authorizeUpgrade}. Emits an {Upgraded} event."
      },
      "upgradeToAndCall(address,bytes)": {
        "details": "Upgrade the implementation of the proxy to `newImplementation`, and subsequently execute the function call encoded in `data`. Calls {_authorizeUpgrade}. Emits an {Upgraded} event."
      }
    },
    "version": 1
  },
  "userdoc": {
    "kind": "user",
    "methods": {
      "addAttributes(bool,string[],string[],string[])": {
        "notice": "Function to add attributes for filtering (does not support complex AttributeSets)"
      },
      "addToExternalAllowlist(address[])": {
        "notice": "Function to allowlist selected external non-TCO2 contracts by their address"
      },
      "addToExternalERC1155Allowlist(address[],uint256[])": {
        "notice": "Add ERC-1155 tokens to external allowlist"
      },
      "addToInternalAllowlist(address[])": {
        "notice": "Function to allowlist certain TCO2 contracts by their address"
      },
      "addToInternalBlocklist(address[])": {
        "notice": "Function to blocklist certain TCO2 contracts by their address"
      },
      "checkAttributeMatching(address)": {
        "notice": "Checks whether incoming ERC20s match the accepted criteria/attributes"
      },
      "checkERC1155Eligible(address,uint256)": {
        "notice": "Checks if an ERC-1155 token is eligible for this pool"
      },
      "checkEligible(address)": {
        "notice": "Checks if an ERC20 token is eligible for this pool"
      },
      "removeFromExternalAllowlist(address[])": {
        "notice": "Function to remove ERC20 addresses from external allowlist"
      },
      "removeFromExternalERC1155Allowlist(address[],uint256[])": {
        "notice": "Remove ERC-1155 tokens from external allowlist"
      },
      "removeFromInternalAllowlist(address[])": {
        "notice": "Function to remove TCO2 addresses from internal allowlist"
      },
      "removeFromInternalBlocklist(address[])": {
        "notice": "Function to remove TCO2 addresses from internal blocklist"
      },
      "setMinimumVintageStartTime(uint64)": {
        "notice": "Determines the minimum vintage start time acceptance criteria of ERC20s"
      },
      "switchMapping(string,bool)": {
        "notice": "Generic function to switch attributes mappings into either acceptance or rejection criteria"
      }
    },
    "version": 1
  },
  "storageLayout": {
    "storage": [
      {
        "astId": 2390,
        "contract": "contracts/pools/REDDFilter.sol:REDDFilter",
        "label": "_initialized",
        "offset": 0,
        "slot": "0",
        "type": "t_uint8"
      },
      {
        "astId": 2393,
        "contract": "contracts/pools/REDDFilter.sol:REDDFilter",
        "label": "_initializing",
        "offset": 1,
        "slot": "0",
        "type": "t_bool"
      },
      {
        "astId": 5494,
        "contract": "contracts/pools/REDDFilter.sol:REDDFilter",
        "label": "__gap",
        "offset": 0,
        "slot": "1",
        "type": "t_array(t_uint256)50_storage"
      },
      {
        "astId": 1881,
        "contract": "contracts/pools/REDDFilter.sol:REDDFilter",
        "label": "_owner",
        "offset": 0,
        "slot": "51",
        "type": "t_address"
      },
      {
        "astId": 1993,
        "contract": "contracts/pools/REDDFilter.sol:REDDFilter",
        "label": "__gap",
        "offset": 0,
        "slot": "52",
        "type": "t_array(t_uint256)49_storage"
      },
      {
        "astId": 2682,
        "contract": "contracts/pools/REDDFilter.sol:REDDFilter",
        "label": "_paused",
        "offset": 0,
        "slot": "101",
        "type": "t_bool"
      },
      {
        "astId": 2771,
        "contract": "contracts/pools/REDDFilter.sol:REDDFilter",
        "label": "__gap",
        "offset": 0,
        "slot": "102",
        "type": "t_array(t_uint256)49_storage"
      },
      {
        "astId": 5801,
        "contract": "contracts/pools/REDDFilter.sol:REDDFilter",
        "label": "__gap",
        "offset": 0,
        "slot": "151",
        "type": "t_array(t_uint256)50_storage"
      },
      {
        "astId": 1497,
        "contract": "contracts/pools/REDDFilter.sol:REDDFilter",
        "label": "_roles",
        "offset": 0,
        "slot": "201",
        "type": "t_mapping(t_bytes32,t_struct(RoleData)1492_storage)"
      },
      {
        "astId": 1796,
        "contract": "contracts/pools/REDDFilter.sol:REDDFilter",
        "label": "__gap",
        "offset": 0,
        "slot": "202",
        "type": "t_array(t_uint256)49_storage"
      },
      {
        "astId": 2372,
        "contract": "contracts/pools/REDDFilter.sol:REDDFilter",
        "label": "__gap",
        "offset": 0,
        "slot": "251",
        "type": "t_array(t_uint256)50_storage"
      },
      {
        "astId": 2660,
        "contract": "contracts/pools/REDDFilter.sol:REDDFilter",
        "label": "__gap",
        "offset": 0,
        "slot": "301",
        "type": "t_array(t_uint256)50_storage"
      },
      {
        "astId": 28198,
        "contract": "contracts/pools/REDDFilter.sol:REDDFilter",
        "label": "regions",
        "offset": 0,
        "slot": "351",
        "type": "t_mapping(t_string_memory_ptr,t_bool)"
      },
      {
        "astId": 28202,
        "contract": "contracts/pools/REDDFilter.sol:REDDFilter",
        "label": "standards",
        "offset": 0,
        "slot": "352",
        "type": "t_mapping(t_string_memory_ptr,t_bool)"
      },
      {
        "astId": 28206,
        "contract": "contracts/pools/REDDFilter.sol:REDDFilter",
        "label": "methodologies",
        "offset": 0,
        "slot": "353",
        "type": "t_mapping(t_string_memory_ptr,t_bool)"
      },
      {
        "astId": 28211,
        "contract": "contracts/pools/REDDFilter.sol:REDDFilter",
        "label": "externalAllowlist",
        "offset": 0,
        "slot": "354",
        "type": "t_mapping(t_address,t_bool)"
      },
      {
        "astId": 28216,
        "contract": "contracts/pools/REDDFilter.sol:REDDFilter",
        "label": "internalAllowlist",
        "offset": 0,
        "slot": "355",
        "type": "t_mapping(t_address,t_bool)"
      },
      {
        "astId": 28221,
        "contract": "contracts/pools/REDDFilter.sol:REDDFilter",
        "label": "internalBlocklist",
        "offset": 0,
        "slot": "356",
        "type": "t_mapping(t_address,t_bool)"
      },
      {
        "astId": 28224,
        "contract": "contracts/pools/REDDFilter.sol:REDDFilter",
        "label": "contractRegistry",
        "offset": 0,
        "slot": "357",
        "type": "t_address"
      },
      {
        "astId": 28226,
        "contract": "contracts/pools/REDDFilter.sol:REDDFilter",
        "label": "minimumVintageStartTime",
        "offset": 20,
        "slot": "357",
        "type": "t_uint64"
      },
      {
        "astId": 28229,
        "contract": "contracts/pools/REDDFilter.sol:REDDFilter",
        "label": "regionsIsAcceptedMapping",
        "offset": 28,
        "slot": "357",
        "type": "t_bool"
      },
      {
        "astId": 28231,
        "contract": "contracts/pools/REDDFilter.sol:REDDFilter",
        "label": "standardsIsAcceptedMapping",
        "offset": 29,
        "slot": "357",
        "type": "t_bool"
      },
      {
        "astId": 28233,
        "contract": "contracts/pools/REDDFilter.sol:REDDFilter",
        "label": "methodologiesIsAcceptedMapping",
        "offset": 30,
        "slot": "357",
        "type": "t_bool"
      },
      {
        "astId": 28241,
        "contract": "contracts/pools/REDDFilter.sol:REDDFilter",
        "label": "externalERC1155Allowlist",
        "offset": 0,
        "slot": "358",
        "type": "t_mapping(t_address,t_mapping(t_uint256,t_bool))"
      }
    ],
    "types": {
      "t_address": {
        "encoding": "inplace",
        "label": "address",
        "numberOfBytes": "20"
      },
      "t_array(t_uint256)49_storage": {
        "base": "t_uint256",
        "encoding": "inplace",
        "label": "uint256[49]",
        "numberOfBytes": "1568"
      },
      "t_array(t_uint256)50_storage": {
        "base": "t_uint256",
        "encoding": "inplace",
        "label": "uint256[50]",
        "numberOfBytes": "1600"
      },
      "t_bool": {
        "encoding": "inplace",
        "label": "bool",
        "numberOfBytes": "1"
      },
      "t_bytes32": {
        "encoding": "inplace",
        "label": "bytes32",
        "numberOfBytes": "32"
      },
      "t_mapping(t_address,t_bool)": {
        "encoding": "mapping",
        "key": "t_address",
        "label": "mapping(address => bool)",
        "numberOfBytes": "32",
        "value": "t_bool"
      },
      "t_mapping(t_address,t_mapping(t_uint256,t_bool))": {
        "encoding": "mapping",
        "key": "t_address",
        "label": "mapping(address => mapping(uint256 => bool))",
        "numberOfBytes": "32",
        "value": "t_mapping(t_uint256,t_bool)"
      },
      "t_mapping(t_bytes32,t_struct(RoleData)1492_storage)": {
        "encoding": "mapping",
        "key": "t_bytes32",
        "label": "mapping(bytes32 => struct AccessControlUpgradeable.RoleData)",
        "numberOfBytes": "32",
        "value": "t_struct(RoleData)1492_storage"
      },
      "t_mapping(t_string_memory_ptr,t_bool)": {
        "encoding": "mapping",
        "key": "t_string_memory_ptr",
        "label": "mapping(string => bool)",
        "numberOfBytes": "32",
        "value": "t_bool"
      },
      "t_mapping(t_uint256,t_bool)": {
        "encoding": "mapping",
        "key": "t_uint256",
        "label": "mapping(uint256 => bool)",
        "numberOfBytes": "32",
        "value": "t_bool"
      },
      "t_string_memory_ptr": {
        "encoding": "bytes",
        "label": "string",
        "numberOfBytes": "32"
      },
      "t_struct(RoleData)1492_storage": {
        "encoding": "inplace",
        "label": "struct AccessControlUpgradeable.RoleData",
        "members": [
          {
            "astId": 1489,
            "contract": "contracts/pools/REDDFilter.sol:REDDFilter",
            "label": "members",
            "offset": 0,
            "slot": "0",
            "type": "t_mapping(t_address,t_bool)"
          },
          {
            "astId": 1491,
            "contract": "contracts/pools/REDDFilter.sol:REDDFilter",
            "label": "adminRole",
            "offset": 0,
            "slot": "1",
            "type": "t_bytes32"
          }
        ],
        "numberOfBytes": "64"
      },
      "t_uint256": {
        "encoding": "inplace",
        "label": "uint256",
        "numberOfBytes": "32"
      },
      "t_uint64": {
        "encoding": "inplace",
        "label": "uint64",
        "numberOfBytes": "8"
      },
      "t_uint8": {
        "encoding": "inplace",
        "label": "uint8",
        "numberOfBytes": "1"
      }
    }
  }
}