{
  "address": "0x925cA0dB7900Da6E4a3231EbBc4a5f7BBc15aB6b",
  "abi": [
    {
      "inputs": [],
      "stateMutability": "nonpayable",
      "type": "constructor"
    },
    {
      "anonymous": false,
      "inputs": [
        {
          "indexed": false,
          "internalType": "address",
          "name": "previousAdmin",
          "type": "address"
        },
        {
          "indexed": false,
          "internalType": "address",
          "name": "newAdmin",
          "type": "address"
        }
      ],
      "name": "AdminChanged",
      "type": "event"
    },
    {
      "anonymous": false,
      "inputs": [
        {
          "indexed": true,
          "internalType": "address",
          "name": "beacon",
          "type": "address"
        }
      ],
      "name": "BeaconUpgraded",
      "type": "event"
    },
    {
      "anonymous": false,
      "inputs": [
        {
          "indexed": false,
          "internalType": "uint8",
          "name": "version",
          "type": "uint8"
        }
      ],
      "name": "Initialized",
      "type": "event"
    },
    {
      "anonymous": false,
      "inputs": [
        {
          "indexed": true,
          "internalType": "address",
          "name": "previousOwner",
          "type": "address"
        },
        {
          "indexed": true,
          "internalType": "address",
          "name": "newOwner",
          "type": "address"
        }
      ],
      "name": "OwnershipTransferred",
      "type": "event"
    },
    {
      "anonymous": false,
      "inputs": [
        {
          "indexed": true,
          "internalType": "bytes32",
          "name": "role",
          "type": "bytes32"
        },
        {
          "indexed": true,
          "internalType": "bytes32",
          "name": "previousAdminRole",
          "type": "bytes32"
        },
        {
          "indexed": true,
          "internalType": "bytes32",
          "name": "newAdminRole",
          "type": "bytes32"
        }
      ],
      "name": "RoleAdminChanged",
      "type": "event"
    },
    {
      "anonymous": false,
      "inputs": [
        {
          "indexed": true,
          "internalType": "bytes32",
          "name": "role",
          "type": "bytes32"
        },
        {
          "indexed": true,
          "internalType": "address",
          "name": "account",
          "type": "address"
        },
        {
          "indexed": true,
          "internalType": "address",
          "name": "sender",
          "type": "address"
        }
      ],
      "name": "RoleGranted",
      "type": "event"
    },
    {
      "anonymous": false,
      "inputs": [
        {
          "indexed": true,
          "internalType": "bytes32",
          "name": "role",
          "type": "bytes32"
        },
        {
          "indexed": true,
          "internalType": "address",
          "name": "account",
          "type": "address"
        },
        {
          "indexed": true,
          "internalType": "address",
          "name": "sender",
          "type": "address"
        }
      ],
      "name": "RoleRevoked",
      "type": "event"
    },
    {
      "anonymous": false,
      "inputs": [
        {
          "indexed": true,
          "internalType": "address",
          "name": "factory",
          "type": "address"
        },
        {
          "indexed": true,
          "internalType": "string",
          "name": "standard",
          "type": "string"
        }
      ],
      "name": "TCO2FactoryAdded",
      "type": "event"
    },
    {
      "anonymous": false,
      "inputs": [
        {
          "indexed": true,
          "internalType": "address",
          "name": "implementation",
          "type": "address"
        }
      ],
      "name": "Upgraded",
      "type": "event"
    },
    {
      "inputs": [],
      "name": "DEFAULT_ADMIN_ROLE",
      "outputs": [
        {
          "internalType": "bytes32",
          "name": "",
          "type": "bytes32"
        }
      ],
      "stateMutability": "view",
      "type": "function"
    },
    {
      "inputs": [],
      "name": "PAUSER_ROLE",
      "outputs": [
        {
          "internalType": "bytes32",
          "name": "",
          "type": "bytes32"
        }
      ],
      "stateMutability": "view",
      "type": "function"
    },
    {
      "inputs": [],
      "name": "VERSION",
      "outputs": [
        {
          "internalType": "string",
          "name": "",
          "type": "string"
        }
      ],
      "stateMutability": "view",
      "type": "function"
    },
    {
      "inputs": [],
      "name": "VERSION_RELEASE_CANDIDATE",
      "outputs": [
        {
          "internalType": "uint256",
          "name": "",
          "type": "uint256"
        }
      ],
      "stateMutability": "view",
      "type": "function"
    },
    {
      "inputs": [
        {
          "internalType": "address",
          "name": "erc20",
          "type": "address"
        },
        {
          "internalType": "string",
          "name": "standardRegistry",
          "type": "string"
        }
      ],
      "name": "addERC20",
      "outputs": [],
      "stateMutability": "nonpayable",
      "type": "function"
    },
    {
      "inputs": [],
      "name": "carbonOffsetBatchesAddress",
      "outputs": [
        {
          "internalType": "address",
          "name": "",
          "type": "address"
        }
      ],
      "stateMutability": "view",
      "type": "function"
    },
    {
      "inputs": [],
      "name": "carbonProjectVintagesAddress",
      "outputs": [
        {
          "internalType": "address",
          "name": "",
          "type": "address"
        }
      ],
      "stateMutability": "view",
      "type": "function"
    },
    {
      "inputs": [],
      "name": "carbonProjectsAddress",
      "outputs": [
        {
          "internalType": "address",
          "name": "",
          "type": "address"
        }
      ],
      "stateMutability": "view",
      "type": "function"
    },
    {
      "inputs": [
        {
          "internalType": "address",
          "name": "erc20",
          "type": "address"
        }
      ],
      "name": "checkERC20",
      "outputs": [
        {
          "internalType": "bool",
          "name": "",
          "type": "bool"
        }
      ],
      "stateMutability": "view",
      "type": "function"
    },
    {
      "inputs": [
        {
          "internalType": "bytes32",
          "name": "role",
          "type": "bytes32"
        }
      ],
      "name": "getRoleAdmin",
      "outputs": [
        {
          "internalType": "bytes32",
          "name": "",
          "type": "bytes32"
        }
      ],
      "stateMutability": "view",
      "type": "function"
    },
    {
      "inputs": [
        {
          "internalType": "bytes32",
          "name": "role",
          "type": "bytes32"
        },
        {
          "internalType": "address",
          "name": "account",
          "type": "address"
        }
      ],
      "name": "grantRole",
      "outputs": [],
      "stateMutability": "nonpayable",
      "type": "function"
    },
    {
      "inputs": [
        {
          "internalType": "bytes32",
          "name": "role",
          "type": "bytes32"
        },
        {
          "internalType": "address",
          "name": "account",
          "type": "address"
        }
      ],
      "name": "hasRole",
      "outputs": [
        {
          "internalType": "bool",
          "name": "",
          "type": "bool"
        }
      ],
      "stateMutability": "view",
      "type": "function"
    },
    {
      "inputs": [
        {
          "internalType": "address[]",
          "name": "_accounts",
          "type": "address[]"
        },
        {
          "internalType": "bytes32[]",
          "name": "_roles",
          "type": "bytes32[]"
        }
      ],
      "name": "initialize",
      "outputs": [],
      "stateMutability": "nonpayable",
      "type": "function"
    },
    {
      "inputs": [
        {
          "internalType": "address",
          "name": "erc20",
          "type": "address"
        }
      ],
      "name": "isValidERC20",
      "outputs": [
        {
          "internalType": "bool",
          "name": "",
          "type": "bool"
        }
      ],
      "stateMutability": "view",
      "type": "function"
    },
    {
      "inputs": [],
      "name": "owner",
      "outputs": [
        {
          "internalType": "address",
          "name": "",
          "type": "address"
        }
      ],
      "stateMutability": "view",
      "type": "function"
    },
    {
      "inputs": [],
      "name": "pauseSystem",
      "outputs": [],
      "stateMutability": "nonpayable",
      "type": "function"
    },
    {
      "inputs": [
        {
          "internalType": "address",
          "name": "",
          "type": "address"
        }
      ],
      "name": "projectVintageERC20Registry",
      "outputs": [
        {
          "internalType": "bool",
          "name": "",
          "type": "bool"
        }
      ],
      "stateMutability": "view",
      "type": "function"
    },
    {
      "inputs": [],
      "name": "proxiableUUID",
      "outputs": [
        {
          "internalType": "bytes32",
          "name": "",
          "type": "bytes32"
        }
      ],
      "stateMutability": "view",
      "type": "function"
    },
    {
      "inputs": [],
      "name": "renounceOwnership",
      "outputs": [],
      "stateMutability": "nonpayable",
      "type": "function"
    },
    {
      "inputs": [
        {
          "internalType": "bytes32",
          "name": "role",
          "type": "bytes32"
        },
        {
          "internalType": "address",
          "name": "account",
          "type": "address"
        }
      ],
      "name": "renounceRole",
      "outputs": [],
      "stateMutability": "nonpayable",
      "type": "function"
    },
    {
      "inputs": [],
      "name": "retirementCertificatesAddress",
      "outputs": [
        {
          "internalType": "address",
          "name": "",
          "type": "address"
        }
      ],
      "stateMutability": "view",
      "type": "function"
    },
    {
      "inputs": [
        {
          "internalType": "bytes32",
          "name": "role",
          "type": "bytes32"
        },
        {
          "internalType": "address",
          "name": "account",
          "type": "address"
        }
      ],
      "name": "revokeRole",
      "outputs": [],
      "stateMutability": "nonpayable",
      "type": "function"
    },
    {
      "inputs": [
        {
          "internalType": "address",
          "name": "_address",
          "type": "address"
        }
      ],
      "name": "setCarbonOffsetBatchesAddress",
      "outputs": [],
      "stateMutability": "nonpayable",
      "type": "function"
    },
    {
      "inputs": [
        {
          "internalType": "address",
          "name": "_address",
          "type": "address"
        }
      ],
      "name": "setCarbonProjectVintagesAddress",
      "outputs": [],
      "stateMutability": "nonpayable",
      "type": "function"
    },
    {
      "inputs": [
        {
          "internalType": "address",
          "name": "_address",
          "type": "address"
        }
      ],
      "name": "setCarbonProjectsAddress",
      "outputs": [],
      "stateMutability": "nonpayable",
      "type": "function"
    },
    {
      "inputs": [
        {
          "internalType": "address",
          "name": "_address",
          "type": "address"
        }
      ],
      "name": "setRetirementCertificatesAddress",
      "outputs": [],
      "stateMutability": "nonpayable",
      "type": "function"
    },
    {
      "inputs": [
        {
          "internalType": "address",
          "name": "_address",
          "type": "address"
        }
      ],
      "name": "setToucanCarbonOffsetsEscrowAddress",
      "outputs": [],
      "stateMutability": "nonpayable",
      "type": "function"
    },
    {
      "inputs": [
        {
          "internalType": "address",
          "name": "tco2Factory",
          "type": "address"
        }
      ],
      "name": "setToucanCarbonOffsetsFactoryAddress",
      "outputs": [],
      "stateMutability": "nonpayable",
      "type": "function"
    },
    {
      "inputs": [],
      "name": "supportedStandardRegistries",
      "outputs": [
        {
          "internalType": "string[]",
          "name": "",
          "type": "string[]"
        }
      ],
      "stateMutability": "view",
      "type": "function"
    },
    {
      "inputs": [
        {
          "internalType": "bytes4",
          "name": "interfaceId",
          "type": "bytes4"
        }
      ],
      "name": "supportsInterface",
      "outputs": [
        {
          "internalType": "bool",
          "name": "",
          "type": "bool"
        }
      ],
      "stateMutability": "view",
      "type": "function"
    },
    {
      "inputs": [
        {
          "internalType": "string",
          "name": "",
          "type": "string"
        }
      ],
      "name": "toucanCarbonOffsetFactories",
      "outputs": [
        {
          "internalType": "address",
          "name": "",
          "type": "address"
        }
      ],
      "stateMutability": "view",
      "type": "function"
    },
    {
      "inputs": [],
      "name": "toucanCarbonOffsetsEscrowAddress",
      "outputs": [
        {
          "internalType": "address",
          "name": "",
          "type": "address"
        }
      ],
      "stateMutability": "view",
      "type": "function"
    },
    {
      "inputs": [
        {
          "internalType": "string",
          "name": "standardRegistry",
          "type": "string"
        }
      ],
      "name": "toucanCarbonOffsetsFactoryAddress",
      "outputs": [
        {
          "internalType": "address",
          "name": "",
          "type": "address"
        }
      ],
      "stateMutability": "view",
      "type": "function"
    },
    {
      "inputs": [
        {
          "internalType": "address",
          "name": "newOwner",
          "type": "address"
        }
      ],
      "name": "transferOwnership",
      "outputs": [],
      "stateMutability": "nonpayable",
      "type": "function"
    },
    {
      "inputs": [],
      "name": "unpauseSystem",
      "outputs": [],
      "stateMutability": "nonpayable",
      "type": "function"
    },
    {
      "inputs": [
        {
          "internalType": "address",
          "name": "newImplementation",
          "type": "address"
        }
      ],
      "name": "upgradeTo",
      "outputs": [],
      "stateMutability": "nonpayable",
      "type": "function"
    },
    {
      "inputs": [
        {
          "internalType": "address",
          "name": "newImplementation",
          "type": "address"
        },
        {
          "internalType": "bytes",
          "name": "data",
          "type": "bytes"
        }
      ],
      "name": "upgradeToAndCall",
      "outputs": [],
      "stateMutability": "payable",
      "type": "function"
    }
  ],
  "numDeployments": 1,
  "solcInputHash": "db59f6786687067a0d1a67c2b75792f5",
  "bytecode": "0x60a0604052306080523480156200001557600080fd5b506200002062000026565b62000158565b6200003260ff62000035565b50565b600654600090610100900460ff1615620000d0578160ff1660011480156200007057506200006e306200014960201b62001ad61760201c565b155b620000c85760405162461bcd60e51b815260206004820152602e602482015260008051602062002f8b83398151915260448201526d191e481a5b9a5d1a585b1a5e995960921b60648201526084015b60405180910390fd5b506000919050565b60065460ff8084169116106200012f5760405162461bcd60e51b815260206004820152602e602482015260008051602062002f8b83398151915260448201526d191e481a5b9a5d1a585b1a5e995960921b6064820152608401620000bf565b506006805460ff191660ff92909216919091179055600190565b6001600160a01b03163b151590565b608051612dfb62000190600039600081816109b7015281816109f701528181610ecd01528181610f0d0152610f9c0152612dfb6000f3fe60806040526004361061021a5760003560e01c8063715018a611610123578063a217fddf116100ab578063e72994e21161006f578063e72994e21461062e578063f0782ba81461064d578063f2fde38b1461066d578063f5e766321461068d578063ffa1ad74146106cf57600080fd5b8063a217fddf14610590578063bab5adc3146105a5578063d547741f146105c5578063dc1d4fb7146105e5578063e63ab1e9146105fa57600080fd5b80638da5cb5b116100f25780638da5cb5b146104f457806391148b271461051257806391d1485414610532578063a0ad259914610552578063a0af25601461057257600080fd5b8063715018a61461048657806371b15b1c1461049b578063746f62da146104bb578063787d8713146104bb57600080fd5b80633659cfe6116101a65780634f1ef286116101755780634f1ef2861461040757806352d1902d1461041a5780636989d8011461042f5780636c07adfa1461044f5780636ca0b0d71461047157600080fd5b80633659cfe614610396578063376b5dce146103b65780634be4e3dd146103d45780634c761240146103f257600080fd5b80631cf743db116101ed5780631cf743db146102c8578063248a9ca3146102f85780632f2ff15d14610336578063344dd6cb1461035657806336568abe1461037657600080fd5b806301157a831461021f57806301f07b2f1461025657806301ffc9a7146102785780630f5fcf0a146102a8575b600080fd5b34801561022b57600080fd5b506001546001600160a01b03165b6040516001600160a01b0390911681526020015b60405180910390f35b34801561026257600080fd5b506102766102713660046125e9565b61070d565b005b34801561028457600080fd5b50610298610293366004612604565b610788565b604051901515815260200161024d565b3480156102b457600080fd5b506102766102c33660046125e9565b6107bf565b3480156102d457600080fd5b506102986102e33660046125e9565b60056020526000908152604090205460ff1681565b34801561030457600080fd5b5061032861031336600461262e565b6000908152609d602052604090206001015490565b60405190815260200161024d565b34801561034257600080fd5b50610276610351366004612647565b610832565b34801561036257600080fd5b50610276610371366004612673565b61085c565b34801561038257600080fd5b50610276610391366004612647565b61092f565b3480156103a257600080fd5b506102766103b13660046125e9565b6109ad565b3480156103c257600080fd5b506004546001600160a01b0316610239565b3480156103e057600080fd5b506000546001600160a01b0316610239565b3480156103fe57600080fd5b50610276610a8c565b6102766104153660046127a3565b610ec3565b34801561042657600080fd5b50610328610f8f565b34801561043b57600080fd5b5061027661044a3660046125e9565b611042565b34801561045b57600080fd5b506104646110b4565b60405161024d919061285d565b34801561047d57600080fd5b50610328600181565b34801561049257600080fd5b5061027661118e565b3480156104a757600080fd5b506102766104b63660046125e9565b6111c4565b3480156104c757600080fd5b506102986104d63660046125e9565b6001600160a01b031660009081526005602052604090205460ff1690565b34801561050057600080fd5b506039546001600160a01b0316610239565b34801561051e57600080fd5b5061023961052d3660046128bf565b611236565b34801561053e57600080fd5b5061029861054d366004612647565b611268565b34801561055e57600080fd5b5061027661056d3660046125e9565b611293565b34801561057e57600080fd5b506002546001600160a01b0316610239565b34801561059c57600080fd5b50610328600081565b3480156105b157600080fd5b506102766105c036600461295c565b611305565b3480156105d157600080fd5b506102766105e0366004612647565b611391565b3480156105f157600080fd5b506102766113b6565b34801561060657600080fd5b506103287f65d7a28e3265b37a6474929f336521b332c1681b933f6cb9f3376673440d862a81565b34801561063a57600080fd5b50610135546001600160a01b0316610239565b34801561065957600080fd5b506102766106683660046125e9565b611852565b34801561067957600080fd5b506102766106883660046125e9565b611a3e565b34801561069957600080fd5b506102396106a83660046128bf565b8051602081830181018051610133825292820191909301209152546001600160a01b031681565b3480156106db57600080fd5b50610700604051806040016040528060058152602001640312e322e360dc1b81525081565b60405161024d91906129c8565b6039546001600160a01b031633146107405760405162461bcd60e51b8152600401610737906129db565b60405180910390fd5b6001600160a01b0381166107665760405162461bcd60e51b815260040161073790612a10565b600280546001600160a01b0319166001600160a01b0392909216919091179055565b60006001600160e01b03198216637965db0b60e01b14806107b957506301ffc9a760e01b6001600160e01b03198316145b92915050565b6039546001600160a01b031633146107e95760405162461bcd60e51b8152600401610737906129db565b6001600160a01b03811661080f5760405162461bcd60e51b815260040161073790612a10565b61013580546001600160a01b0319166001600160a01b0392909216919091179055565b6000828152609d602052604090206001015461084d81611ae5565b6108578383611aef565b505050565b610133828260405161086f929190612a36565b908152604051908190036020019020546001600160a01b031661089a6039546001600160a01b031690565b6001600160a01b0382163314806108b957506001600160a01b03811633145b6109055760405162461bcd60e51b815260206004820152601960248201527f43616c6c6572206973206e6f742074686520666163746f7279000000000000006044820152606401610737565b5050506001600160a01b039091166000908152600560205260409020805460ff1916600117905550565b6001600160a01b038116331461099f5760405162461bcd60e51b815260206004820152602f60248201527f416363657373436f6e74726f6c3a2063616e206f6e6c792072656e6f756e636560448201526e103937b632b9903337b91039b2b63360891b6064820152608401610737565b6109a98282611b75565b5050565b6001600160a01b037f00000000000000000000000000000000000000000000000000000000000000001630036109f55760405162461bcd60e51b815260040161073790612a46565b7f00000000000000000000000000000000000000000000000000000000000000006001600160a01b0316610a3e600080516020612d7f833981519152546001600160a01b031690565b6001600160a01b031614610a645760405162461bcd60e51b815260040161073790612a92565b610a6d81611bdc565b60408051600080825260208201909252610a8991839190611c06565b50565b6039546001600160a01b03163314610ab65760405162461bcd60e51b8152600401610737906129db565b60025460408051635c975abb60e01b815290516001600160a01b03909216918291635c975abb9160048083019260209291908290030181865afa158015610b01573d6000803e3d6000fd5b505050506040513d601f19601f82011682018060405250810190610b259190612ade565b15610b7e57806001600160a01b0316633f4ba83a6040518163ffffffff1660e01b8152600401600060405180830381600087803b158015610b6557600080fd5b505af1158015610b79573d6000803e3d6000fd5b505050505b60015460408051635c975abb60e01b815290516001600160a01b03909216918291635c975abb9160048083019260209291908290030181865afa158015610bc9573d6000803e3d6000fd5b505050506040513d601f19601f82011682018060405250810190610bed9190612ade565b15610c4657806001600160a01b0316633f4ba83a6040518163ffffffff1660e01b8152600401600060405180830381600087803b158015610c2d57600080fd5b505af1158015610c41573d6000803e3d6000fd5b505050505b60005460408051635c975abb60e01b815290516001600160a01b03909216918291635c975abb9160048083019260209291908290030181865afa158015610c91573d6000803e3d6000fd5b505050506040513d601f19601f82011682018060405250810190610cb59190612ade565b15610d0e57806001600160a01b0316633f4ba83a6040518163ffffffff1660e01b8152600401600060405180830381600087803b158015610cf557600080fd5b505af1158015610d09573d6000803e3d6000fd5b505050505b6101345460005b81811015610ebc5760006101348281548110610d3357610d33612b00565b906000526020600020018054610d4890612b16565b80601f0160208091040260200160405190810160405280929190818152602001828054610d7490612b16565b8015610dc15780601f10610d9657610100808354040283529160200191610dc1565b820191906000526020600020905b815481529060010190602001808311610da457829003601f168201915b50505050509050600061013382604051610ddb9190612b50565b908152604080516020928190038301812054635c975abb60e01b825291516001600160a01b03909216935083928392635c975abb9260048082019392918290030181865afa158015610e31573d6000803e3d6000fd5b505050506040513d601f19601f82011682018060405250810190610e559190612ade565b15610eae57806001600160a01b0316633f4ba83a6040518163ffffffff1660e01b8152600401600060405180830381600087803b158015610e9557600080fd5b505af1158015610ea9573d6000803e3d6000fd5b505050505b836001019350505050610d15565b5050505050565b6001600160a01b037f0000000000000000000000000000000000000000000000000000000000000000163003610f0b5760405162461bcd60e51b815260040161073790612a46565b7f00000000000000000000000000000000000000000000000000000000000000006001600160a01b0316610f54600080516020612d7f833981519152546001600160a01b031690565b6001600160a01b031614610f7a5760405162461bcd60e51b815260040161073790612a92565b610f8382611bdc565b6109a982826001611c06565b6000306001600160a01b037f0000000000000000000000000000000000000000000000000000000000000000161461102f5760405162461bcd60e51b815260206004820152603860248201527f555550535570677261646561626c653a206d757374206e6f742062652063616c60448201527f6c6564207468726f7567682064656c656761746563616c6c00000000000000006064820152608401610737565b50600080516020612d7f83398151915290565b6039546001600160a01b0316331461106c5760405162461bcd60e51b8152600401610737906129db565b6001600160a01b0381166110925760405162461bcd60e51b815260040161073790612a10565b600080546001600160a01b0319166001600160a01b0392909216919091179055565b6060610134805480602002602001604051908101604052809291908181526020016000905b828210156111855783829060005260206000200180546110f890612b16565b80601f016020809104026020016040519081016040528092919081815260200182805461112490612b16565b80156111715780601f1061114657610100808354040283529160200191611171565b820191906000526020600020905b81548152906001019060200180831161115457829003601f168201915b5050505050815260200190600101906110d9565b50505050905090565b6039546001600160a01b031633146111b85760405162461bcd60e51b8152600401610737906129db565b6111c26000611d71565b565b6039546001600160a01b031633146111ee5760405162461bcd60e51b8152600401610737906129db565b6001600160a01b0381166112145760405162461bcd60e51b815260040161073790612a10565b600480546001600160a01b0319166001600160a01b0392909216919091179055565b6000610133826040516112499190612b50565b908152604051908190036020019020546001600160a01b031692915050565b6000918252609d602090815260408084206001600160a01b0393909316845291905290205460ff1690565b6039546001600160a01b031633146112bd5760405162461bcd60e51b8152600401610737906129db565b6001600160a01b0381166112e35760405162461bcd60e51b815260040161073790612a10565b600180546001600160a01b0319166001600160a01b0392909216919091179055565b60006113116001611dc3565b90508015611329576006805461ff0019166101001790555b611331611e52565b61133d85858585611e81565b611345611f9c565b8015610ebc576006805461ff0019169055604051600181527f7f26b83ff96e1f2b6a682f133852f6798a09c465da95921460cefb38474024989060200160405180910390a15050505050565b6000828152609d60205260409020600101546113ac81611ae5565b6108578383611b75565b6113e07f65d7a28e3265b37a6474929f336521b332c1681b933f6cb9f3376673440d862a33611268565b806114045750336113f96039546001600160a01b031690565b6001600160a01b0316145b6114505760405162461bcd60e51b815260206004820152601860248201527f43616c6c6572206973206e6f7420617574686f72697a656400000000000000006044820152606401610737565b60025460408051635c975abb60e01b815290516001600160a01b03909216918291635c975abb9160048083019260209291908290030181865afa15801561149b573d6000803e3d6000fd5b505050506040513d601f19601f820116820180604052508101906114bf9190612ade565b61151757806001600160a01b0316638456cb596040518163ffffffff1660e01b8152600401600060405180830381600087803b1580156114fe57600080fd5b505af1158015611512573d6000803e3d6000fd5b505050505b60015460408051635c975abb60e01b815290516001600160a01b03909216918291635c975abb9160048083019260209291908290030181865afa158015611562573d6000803e3d6000fd5b505050506040513d601f19601f820116820180604052508101906115869190612ade565b6115de57806001600160a01b0316638456cb596040518163ffffffff1660e01b8152600401600060405180830381600087803b1580156115c557600080fd5b505af11580156115d9573d6000803e3d6000fd5b505050505b60005460408051635c975abb60e01b815290516001600160a01b03909216918291635c975abb9160048083019260209291908290030181865afa158015611629573d6000803e3d6000fd5b505050506040513d601f19601f8201168201806040525081019061164d9190612ade565b6116a557806001600160a01b0316638456cb596040518163ffffffff1660e01b8152600401600060405180830381600087803b15801561168c57600080fd5b505af11580156116a0573d6000803e3d6000fd5b505050505b6101345460005b81811015610ebc57600061013482815481106116ca576116ca612b00565b9060005260206000200180546116df90612b16565b80601f016020809104026020016040519081016040528092919081815260200182805461170b90612b16565b80156117585780601f1061172d57610100808354040283529160200191611758565b820191906000526020600020905b81548152906001019060200180831161173b57829003601f168201915b505050505090506000610133826040516117729190612b50565b908152604080516020928190038301812054635c975abb60e01b825291516001600160a01b03909216935083928392635c975abb9260048082019392918290030181865afa1580156117c8573d6000803e3d6000fd5b505050506040513d601f19601f820116820180604052508101906117ec9190612ade565b61184457806001600160a01b0316638456cb596040518163ffffffff1660e01b8152600401600060405180830381600087803b15801561182b57600080fd5b505af115801561183f573d6000803e3d6000fd5b505050505b8360010193505050506116ac565b6039546001600160a01b0316331461187c5760405162461bcd60e51b8152600401610737906129db565b6001600160a01b0381166118a25760405162461bcd60e51b815260040161073790612a10565b6000816001600160a01b0316633c31175e6040518163ffffffff1660e01b81526004016000604051808303816000875af11580156118e4573d6000803e3d6000fd5b505050506040513d6000823e601f3d908101601f1916820160405261190c9190810190612b6c565b9050805160000361195f5760405162461bcd60e51b815260206004820152601760248201527f456d707479207374616e646172642072656769737472790000000000000000006044820152606401610737565b61196881611fc3565b6119b257610134805460018101825560009190915281516119b0917fe1c588fe1269da19c317f679b04e226f5e48296f9b2c8351127eb010907c472f01906020840190612539565b505b81610133826040516119c49190612b50565b90815260405190819003602001812080546001600160a01b03939093166001600160a01b0319909316929092179091556119ff908290612b50565b604051908190038120906001600160a01b038416907f330abee6414b34f936df7009380419f0583327419d70619b3e543b1cb26d3a1590600090a35050565b6039546001600160a01b03163314611a685760405162461bcd60e51b8152600401610737906129db565b6001600160a01b038116611acd5760405162461bcd60e51b815260206004820152602660248201527f4f776e61626c653a206e6577206f776e657220697320746865207a65726f206160448201526564647265737360d01b6064820152608401610737565b610a8981611d71565b6001600160a01b03163b151590565b610a8981336120ae565b611af98282611268565b6109a9576000828152609d602090815260408083206001600160a01b03851684529091529020805460ff19166001179055611b313390565b6001600160a01b0316816001600160a01b0316837f2f8788117e7eff1d82e926ec794901d17c78024a50270940304540a733656f0d60405160405180910390a45050565b611b7f8282611268565b156109a9576000828152609d602090815260408083206001600160a01b0385168085529252808320805460ff1916905551339285917ff6391f5c32d9c69d2a47ea670b442974b53935d1edc7fd64eb21e047a839171b9190a45050565b6039546001600160a01b03163314610a895760405162461bcd60e51b8152600401610737906129db565b7f4910fdfa16fed3260ed0e7147f7cc6da11a60208b5b9406d12a635614ffd91435460ff1615611c395761085783612112565b826001600160a01b03166352d1902d6040518163ffffffff1660e01b8152600401602060405180830381865afa925050508015611c93575060408051601f3d908101601f19168201909252611c9091810190612bda565b60015b611cf65760405162461bcd60e51b815260206004820152602e60248201527f45524331393637557067726164653a206e657720696d706c656d656e7461746960448201526d6f6e206973206e6f74205555505360901b6064820152608401610737565b600080516020612d7f8339815191528114611d655760405162461bcd60e51b815260206004820152602960248201527f45524331393637557067726164653a20756e737570706f727465642070726f786044820152681a58589b195555525160ba1b6064820152608401610737565b506108578383836121ae565b603980546001600160a01b038381166001600160a01b0319831681179093556040519116919082907f8be0079c531659141344cd1fd0a4f28419497f9722a3daafe3b4186f6b6457e090600090a35050565b600654600090610100900460ff1615611e0c578160ff166001148015611de85750303b155b611e045760405162461bcd60e51b815260040161073790612bf3565b506000919050565b60065460ff808416911610611e335760405162461bcd60e51b815260040161073790612bf3565b506006805460ff191660ff92909216919091179055600190565b919050565b600654610100900460ff16611e795760405162461bcd60e51b815260040161073790612c41565b6111c26121d9565b828114611ec85760405162461bcd60e51b8152602060048201526015602482015274082e4e4c2f240d8cadccee8d040dad2e6dac2e8c6d605b1b6044820152606401610737565b611ed0611f9c565b6000805b84811015611f5957611f24848483818110611ef157611ef1612b00565b90506020020135878784818110611f0a57611f0a612b00565b9050602002016020810190611f1f91906125e9565b611aef565b6000848483818110611f3857611f38612b00565b9050602002013503611f4957600191505b611f5281612ca2565b9050611ed4565b5080610ebc5760405162461bcd60e51b8152602060048201526012602482015271139bc818591b5a5b881cdc1958da599a595960721b6044820152606401610737565b600654610100900460ff166111c25760405162461bcd60e51b815260040161073790612c41565b61013454600090815b818110156120a45761208d846101348381548110611fec57611fec612b00565b90600052602060002001805461200190612b16565b80601f016020809104026020016040519081016040528092919081815260200182805461202d90612b16565b801561207a5780601f1061204f5761010080835404028352916020019161207a565b820191906000526020600020905b81548152906001019060200180831161205d57829003601f168201915b505050505061220990919063ffffffff16565b1561209c575060019392505050565b600101611fcc565b5060009392505050565b6120b88282611268565b6109a9576120d0816001600160a01b03166014612230565b6120db836020612230565b6040516020016120ec929190612cbb565b60408051601f198184030181529082905262461bcd60e51b8252610737916004016129c8565b6001600160a01b0381163b61217f5760405162461bcd60e51b815260206004820152602d60248201527f455243313936373a206e657720696d706c656d656e746174696f6e206973206e60448201526c1bdd08184818dbdb9d1c9858dd609a1b6064820152608401610737565b600080516020612d7f83398151915280546001600160a01b0319166001600160a01b0392909216919091179055565b6121b7836123cc565b6000825111806121c45750805b15610857576121d3838361240c565b50505050565b600654610100900460ff166122005760405162461bcd60e51b815260040161073790612c41565b6111c233611d71565b600081518351148015612229575081805190602001208380519060200120145b9392505050565b6060600061223f836002612d30565b61224a906002612d4f565b67ffffffffffffffff811115612262576122626126f6565b6040519080825280601f01601f19166020018201604052801561228c576020820181803683370190505b509050600360fc1b816000815181106122a7576122a7612b00565b60200101906001600160f81b031916908160001a905350600f60fb1b816001815181106122d6576122d6612b00565b60200101906001600160f81b031916908160001a90535060006122fa846002612d30565b612305906001612d4f565b90505b600181111561237d576f181899199a1a9b1b9c1cb0b131b232b360811b85600f166010811061233957612339612b00565b1a60f81b82828151811061234f5761234f612b00565b60200101906001600160f81b031916908160001a90535060049490941c9361237681612d67565b9050612308565b5083156122295760405162461bcd60e51b815260206004820181905260248201527f537472696e67733a20686578206c656e67746820696e73756666696369656e746044820152606401610737565b6123d581612112565b6040516001600160a01b038216907fbc7cd75a20ee27fd9adebab32041f755214dbc6bffa90cc0225b39da2e5c2d3b90600090a250565b60606001600160a01b0383163b6124745760405162461bcd60e51b815260206004820152602660248201527f416464726573733a2064656c65676174652063616c6c20746f206e6f6e2d636f6044820152651b9d1c9858dd60d21b6064820152608401610737565b600080846001600160a01b03168460405161248f9190612b50565b600060405180830381855af49150503d80600081146124ca576040519150601f19603f3d011682016040523d82523d6000602084013e6124cf565b606091505b50915091506124f78282604051806060016040528060278152602001612d9f60279139612500565b95945050505050565b6060831561250f575081612229565b82511561251f5782518084602001fd5b8160405162461bcd60e51b815260040161073791906129c8565b82805461254590612b16565b90600052602060002090601f01602090048101928261256757600085556125ad565b82601f1061258057805160ff19168380011785556125ad565b828001600101855582156125ad579182015b828111156125ad578251825591602001919060010190612592565b506125b99291506125bd565b5090565b5b808211156125b957600081556001016125be565b80356001600160a01b0381168114611e4d57600080fd5b6000602082840312156125fb57600080fd5b612229826125d2565b60006020828403121561261657600080fd5b81356001600160e01b03198116811461222957600080fd5b60006020828403121561264057600080fd5b5035919050565b6000806040838503121561265a57600080fd5b8235915061266a602084016125d2565b90509250929050565b60008060006040848603121561268857600080fd5b612691846125d2565b9250602084013567ffffffffffffffff808211156126ae57600080fd5b818601915086601f8301126126c257600080fd5b8135818111156126d157600080fd5b8760208285010111156126e357600080fd5b6020830194508093505050509250925092565b634e487b7160e01b600052604160045260246000fd5b604051601f8201601f1916810167ffffffffffffffff81118282101715612735576127356126f6565b604052919050565b600067ffffffffffffffff821115612757576127576126f6565b50601f01601f191660200190565b60006127786127738461273d565b61270c565b905082815283838301111561278c57600080fd5b828260208301376000602084830101529392505050565b600080604083850312156127b657600080fd5b6127bf836125d2565b9150602083013567ffffffffffffffff8111156127db57600080fd5b8301601f810185136127ec57600080fd5b6127fb85823560208401612765565b9150509250929050565b60005b83811015612820578181015183820152602001612808565b838111156121d35750506000910152565b60008151808452612849816020860160208601612805565b601f01601f19169290920160200192915050565b6000602080830181845280855180835260408601915060408160051b870101925083870160005b828110156128b257603f198886030184526128a0858351612831565b94509285019290850190600101612884565b5092979650505050505050565b6000602082840312156128d157600080fd5b813567ffffffffffffffff8111156128e857600080fd5b8201601f810184136128f957600080fd5b61290884823560208401612765565b949350505050565b60008083601f84011261292257600080fd5b50813567ffffffffffffffff81111561293a57600080fd5b6020830191508360208260051b850101111561295557600080fd5b9250929050565b6000806000806040858703121561297257600080fd5b843567ffffffffffffffff8082111561298a57600080fd5b61299688838901612910565b909650945060208701359150808211156129af57600080fd5b506129bc87828801612910565b95989497509550505050565b6020815260006122296020830184612831565b6020808252818101527f4f776e61626c653a2063616c6c6572206973206e6f7420746865206f776e6572604082015260600190565b6020808252600c908201526b5a65726f206164647265737360a01b604082015260600190565b8183823760009101908152919050565b6020808252602c908201527f46756e6374696f6e206d7573742062652063616c6c6564207468726f7567682060408201526b19195b1959d85d1958d85b1b60a21b606082015260800190565b6020808252602c908201527f46756e6374696f6e206d7573742062652063616c6c6564207468726f7567682060408201526b6163746976652070726f787960a01b606082015260800190565b600060208284031215612af057600080fd5b8151801515811461222957600080fd5b634e487b7160e01b600052603260045260246000fd5b600181811c90821680612b2a57607f821691505b602082108103612b4a57634e487b7160e01b600052602260045260246000fd5b50919050565b60008251612b62818460208701612805565b9190910192915050565b600060208284031215612b7e57600080fd5b815167ffffffffffffffff811115612b9557600080fd5b8201601f81018413612ba657600080fd5b8051612bb46127738261273d565b818152856020838501011115612bc957600080fd5b6124f7826020830160208601612805565b600060208284031215612bec57600080fd5b5051919050565b6020808252602e908201527f496e697469616c697a61626c653a20636f6e747261637420697320616c72656160408201526d191e481a5b9a5d1a585b1a5e995960921b606082015260800190565b6020808252602b908201527f496e697469616c697a61626c653a20636f6e7472616374206973206e6f74206960408201526a6e697469616c697a696e6760a81b606082015260800190565b634e487b7160e01b600052601160045260246000fd5b600060018201612cb457612cb4612c8c565b5060010190565b7f416363657373436f6e74726f6c3a206163636f756e7420000000000000000000815260008351612cf3816017850160208801612805565b7001034b99036b4b9b9b4b733903937b6329607d1b6017918401918201528351612d24816028840160208801612805565b01602801949350505050565b6000816000190483118215151615612d4a57612d4a612c8c565b500290565b60008219821115612d6257612d62612c8c565b500190565b600081612d7657612d76612c8c565b50600019019056fe360894a13ba1a3210667c828492db98dca3e2076cc3735a920a3ca505d382bbc416464726573733a206c6f772d6c6576656c2064656c65676174652063616c6c206661696c6564a2646970667358221220c3d7515ae1991dd2be3dc8fa7de12509ddecf7dcb5dbb44599f95706d4efd0d564736f6c634300080e0033496e697469616c697a61626c653a20636f6e747261637420697320616c726561",
  "devdoc": {
    "details": "The ToucanContractRegistry is queried by other contracts for current addresses",
    "kind": "dev",
    "methods": {
      "constructor": {
        "custom:oz-upgrades-unsafe-allow": "constructor"
      },
      "getRoleAdmin(bytes32)": {
        "details": "Returns the admin role that controls `role`. See {grantRole} and {revokeRole}. To change a role's admin, use {_setRoleAdmin}."
      },
      "grantRole(bytes32,address)": {
        "details": "Grants `role` to `account`. If `account` had not been already granted `role`, emits a {RoleGranted} event. Requirements: - the caller must have ``role``'s admin role."
      },
      "hasRole(bytes32,address)": {
        "details": "Returns `true` if `account` has been granted `role`."
      },
      "owner()": {
        "details": "Returns the address of the current owner."
      },
      "proxiableUUID()": {
        "details": "Implementation of the ERC1822 {proxiableUUID} function. This returns the storage slot used by the implementation. It is used to validate that the this implementation remains valid after an upgrade. IMPORTANT: A proxy pointing at a proxiable contract should not be considered proxiable itself, because this risks bricking a proxy that upgrades to it, by delegating to itself until out of gas. Thus it is critical that this function revert if invoked through a proxy. This is guaranteed by the `notDelegated` modifier."
      },
      "renounceOwnership()": {
        "details": "Leaves the contract without owner. It will not be possible to call `onlyOwner` functions anymore. Can only be called by the current owner. NOTE: Renouncing ownership will leave the contract without an owner, thereby removing any functionality that is only available to the owner."
      },
      "renounceRole(bytes32,address)": {
        "details": "Revokes `role` from the calling account. Roles are often managed via {grantRole} and {revokeRole}: this function's purpose is to provide a mechanism for accounts to lose their privileges if they are compromised (such as when a trusted device is misplaced). If the calling account had been revoked `role`, emits a {RoleRevoked} event. Requirements: - the caller must be `account`."
      },
      "revokeRole(bytes32,address)": {
        "details": "Revokes `role` from `account`. If `account` had been granted `role`, emits a {RoleRevoked} event. Requirements: - the caller must have ``role``'s admin role."
      },
      "supportsInterface(bytes4)": {
        "details": "See {IERC165-supportsInterface}."
      },
      "toucanCarbonOffsetsFactoryAddress(string)": {
        "details": "return the TCO2 factory address for the provided standard"
      },
      "transferOwnership(address)": {
        "details": "Transfers ownership of the contract to a new account (`newOwner`). Can only be called by the current owner."
      },
      "upgradeTo(address)": {
        "details": "Upgrade the implementation of the proxy to `newImplementation`. Calls {_authorizeUpgrade}. Emits an {Upgraded} event."
      },
      "upgradeToAndCall(address,bytes)": {
        "details": "Upgrade the implementation of the proxy to `newImplementation`, and subsequently execute the function call encoded in `data`. Calls {_authorizeUpgrade}. Emits an {Upgraded} event."
      }
    },
    "stateVariables": {
      "PAUSER_ROLE": {
        "details": "All roles related to accessing this contract"
      },
      "VERSION": {
        "details": "Version-related parameters. VERSION keeps track of production releases. VERSION_RELEASE_CANDIDATE keeps track of iterations of a VERSION in our staging environment."
      }
    },
    "version": 1
  },
  "userdoc": {
    "kind": "user",
    "methods": {
      "addERC20(address,string)": {
        "notice": "Keep track of TCO2s per standard"
      },
      "checkERC20(address)": {
        "notice": "TODO: Kept for backwards-compatibility; will be removed in a future upgrade in favor of isValidERC20(erc20)"
      },
      "pauseSystem()": {
        "notice": "security function that pauses all contracts part of the carbon bridge"
      },
      "toucanCarbonOffsetFactories(string)": {
        "notice": "map of standard registries to tco2 factory addresses"
      },
      "unpauseSystem()": {
        "notice": "security function that unpauses all contracts part of the carbon bridge"
      }
    },
    "version": 1
  },
  "storageLayout": {
    "storage": [
      {
        "astId": 17289,
        "contract": "contracts/ToucanContractRegistry.sol:ToucanContractRegistry",
        "label": "_carbonOffsetBatchesAddress",
        "offset": 0,
        "slot": "0",
        "type": "t_address"
      },
      {
        "astId": 17291,
        "contract": "contracts/ToucanContractRegistry.sol:ToucanContractRegistry",
        "label": "_carbonProjectsAddress",
        "offset": 0,
        "slot": "1",
        "type": "t_address"
      },
      {
        "astId": 17293,
        "contract": "contracts/ToucanContractRegistry.sol:ToucanContractRegistry",
        "label": "_carbonProjectVintagesAddress",
        "offset": 0,
        "slot": "2",
        "type": "t_address"
      },
      {
        "astId": 17295,
        "contract": "contracts/ToucanContractRegistry.sol:ToucanContractRegistry",
        "label": "DEPRECATED_toucanCarbonOffsetsFactoryAddress",
        "offset": 0,
        "slot": "3",
        "type": "t_address"
      },
      {
        "astId": 17297,
        "contract": "contracts/ToucanContractRegistry.sol:ToucanContractRegistry",
        "label": "_retirementCertificatesAddress",
        "offset": 0,
        "slot": "4",
        "type": "t_address"
      },
      {
        "astId": 17301,
        "contract": "contracts/ToucanContractRegistry.sol:ToucanContractRegistry",
        "label": "projectVintageERC20Registry",
        "offset": 0,
        "slot": "5",
        "type": "t_mapping(t_address,t_bool)"
      },
      {
        "astId": 2390,
        "contract": "contracts/ToucanContractRegistry.sol:ToucanContractRegistry",
        "label": "_initialized",
        "offset": 0,
        "slot": "6",
        "type": "t_uint8"
      },
      {
        "astId": 2393,
        "contract": "contracts/ToucanContractRegistry.sol:ToucanContractRegistry",
        "label": "_initializing",
        "offset": 1,
        "slot": "6",
        "type": "t_bool"
      },
      {
        "astId": 5494,
        "contract": "contracts/ToucanContractRegistry.sol:ToucanContractRegistry",
        "label": "__gap",
        "offset": 0,
        "slot": "7",
        "type": "t_array(t_uint256)50_storage"
      },
      {
        "astId": 1881,
        "contract": "contracts/ToucanContractRegistry.sol:ToucanContractRegistry",
        "label": "_owner",
        "offset": 0,
        "slot": "57",
        "type": "t_address"
      },
      {
        "astId": 1993,
        "contract": "contracts/ToucanContractRegistry.sol:ToucanContractRegistry",
        "label": "__gap",
        "offset": 0,
        "slot": "58",
        "type": "t_array(t_uint256)49_storage"
      },
      {
        "astId": 5801,
        "contract": "contracts/ToucanContractRegistry.sol:ToucanContractRegistry",
        "label": "__gap",
        "offset": 0,
        "slot": "107",
        "type": "t_array(t_uint256)50_storage"
      },
      {
        "astId": 1497,
        "contract": "contracts/ToucanContractRegistry.sol:ToucanContractRegistry",
        "label": "_roles",
        "offset": 0,
        "slot": "157",
        "type": "t_mapping(t_bytes32,t_struct(RoleData)1492_storage)"
      },
      {
        "astId": 1796,
        "contract": "contracts/ToucanContractRegistry.sol:ToucanContractRegistry",
        "label": "__gap",
        "offset": 0,
        "slot": "158",
        "type": "t_array(t_uint256)49_storage"
      },
      {
        "astId": 2372,
        "contract": "contracts/ToucanContractRegistry.sol:ToucanContractRegistry",
        "label": "__gap",
        "offset": 0,
        "slot": "207",
        "type": "t_array(t_uint256)50_storage"
      },
      {
        "astId": 2660,
        "contract": "contracts/ToucanContractRegistry.sol:ToucanContractRegistry",
        "label": "__gap",
        "offset": 0,
        "slot": "257",
        "type": "t_array(t_uint256)50_storage"
      },
      {
        "astId": 17307,
        "contract": "contracts/ToucanContractRegistry.sol:ToucanContractRegistry",
        "label": "toucanCarbonOffsetFactories",
        "offset": 0,
        "slot": "307",
        "type": "t_mapping(t_string_memory_ptr,t_address)"
      },
      {
        "astId": 17311,
        "contract": "contracts/ToucanContractRegistry.sol:ToucanContractRegistry",
        "label": "standardRegistries",
        "offset": 0,
        "slot": "308",
        "type": "t_array(t_string_storage)dyn_storage"
      },
      {
        "astId": 17314,
        "contract": "contracts/ToucanContractRegistry.sol:ToucanContractRegistry",
        "label": "_toucanCarbonOffsetsEscrowAddress",
        "offset": 0,
        "slot": "309",
        "type": "t_address"
      }
    ],
    "types": {
      "t_address": {
        "encoding": "inplace",
        "label": "address",
        "numberOfBytes": "20"
      },
      "t_array(t_string_storage)dyn_storage": {
        "base": "t_string_storage",
        "encoding": "dynamic_array",
        "label": "string[]",
        "numberOfBytes": "32"
      },
      "t_array(t_uint256)49_storage": {
        "base": "t_uint256",
        "encoding": "inplace",
        "label": "uint256[49]",
        "numberOfBytes": "1568"
      },
      "t_array(t_uint256)50_storage": {
        "base": "t_uint256",
        "encoding": "inplace",
        "label": "uint256[50]",
        "numberOfBytes": "1600"
      },
      "t_bool": {
        "encoding": "inplace",
        "label": "bool",
        "numberOfBytes": "1"
      },
      "t_bytes32": {
        "encoding": "inplace",
        "label": "bytes32",
        "numberOfBytes": "32"
      },
      "t_mapping(t_address,t_bool)": {
        "encoding": "mapping",
        "key": "t_address",
        "label": "mapping(address => bool)",
        "numberOfBytes": "32",
        "value": "t_bool"
      },
      "t_mapping(t_bytes32,t_struct(RoleData)1492_storage)": {
        "encoding": "mapping",
        "key": "t_bytes32",
        "label": "mapping(bytes32 => struct AccessControlUpgradeable.RoleData)",
        "numberOfBytes": "32",
        "value": "t_struct(RoleData)1492_storage"
      },
      "t_mapping(t_string_memory_ptr,t_address)": {
        "encoding": "mapping",
        "key": "t_string_memory_ptr",
        "label": "mapping(string => address)",
        "numberOfBytes": "32",
        "value": "t_address"
      },
      "t_string_memory_ptr": {
        "encoding": "bytes",
        "label": "string",
        "numberOfBytes": "32"
      },
      "t_string_storage": {
        "encoding": "bytes",
        "label": "string",
        "numberOfBytes": "32"
      },
      "t_struct(RoleData)1492_storage": {
        "encoding": "inplace",
        "label": "struct AccessControlUpgradeable.RoleData",
        "members": [
          {
            "astId": 1489,
            "contract": "contracts/ToucanContractRegistry.sol:ToucanContractRegistry",
            "label": "members",
            "offset": 0,
            "slot": "0",
            "type": "t_mapping(t_address,t_bool)"
          },
          {
            "astId": 1491,
            "contract": "contracts/ToucanContractRegistry.sol:ToucanContractRegistry",
            "label": "adminRole",
            "offset": 0,
            "slot": "1",
            "type": "t_bytes32"
          }
        ],
        "numberOfBytes": "64"
      },
      "t_uint256": {
        "encoding": "inplace",
        "label": "uint256",
        "numberOfBytes": "32"
      },
      "t_uint8": {
        "encoding": "inplace",
        "label": "uint8",
        "numberOfBytes": "1"
      }
    }
  }
}