{
  "address": "0x925cA0dB7900Da6E4a3231EbBc4a5f7BBc15aB6b",
  "abi": [
    {
      "inputs": [],
      "stateMutability": "nonpayable",
      "type": "constructor"
    },
    {
      "anonymous": false,
      "inputs": [
        {
          "indexed": false,
          "internalType": "address",
          "name": "previousAdmin",
          "type": "address"
        },
        {
          "indexed": false,
          "internalType": "address",
          "name": "newAdmin",
          "type": "address"
        }
      ],
      "name": "AdminChanged",
      "type": "event"
    },
    {
      "anonymous": false,
      "inputs": [
        {
          "indexed": true,
          "internalType": "address",
          "name": "beacon",
          "type": "address"
        }
      ],
      "name": "BeaconUpgraded",
      "type": "event"
    },
    {
      "anonymous": false,
      "inputs": [
        {
          "indexed": false,
          "internalType": "uint8",
          "name": "version",
          "type": "uint8"
        }
      ],
      "name": "Initialized",
      "type": "event"
    },
    {
      "anonymous": false,
      "inputs": [
        {
          "indexed": true,
          "internalType": "address",
          "name": "previousOwner",
          "type": "address"
        },
        {
          "indexed": true,
          "internalType": "address",
          "name": "newOwner",
          "type": "address"
        }
      ],
      "name": "OwnershipTransferred",
      "type": "event"
    },
    {
      "anonymous": false,
      "inputs": [
        {
          "indexed": true,
          "internalType": "bytes32",
          "name": "role",
          "type": "bytes32"
        },
        {
          "indexed": true,
          "internalType": "bytes32",
          "name": "previousAdminRole",
          "type": "bytes32"
        },
        {
          "indexed": true,
          "internalType": "bytes32",
          "name": "newAdminRole",
          "type": "bytes32"
        }
      ],
      "name": "RoleAdminChanged",
      "type": "event"
    },
    {
      "anonymous": false,
      "inputs": [
        {
          "indexed": true,
          "internalType": "bytes32",
          "name": "role",
          "type": "bytes32"
        },
        {
          "indexed": true,
          "internalType": "address",
          "name": "account",
          "type": "address"
        },
        {
          "indexed": true,
          "internalType": "address",
          "name": "sender",
          "type": "address"
        }
      ],
      "name": "RoleGranted",
      "type": "event"
    },
    {
      "anonymous": false,
      "inputs": [
        {
          "indexed": true,
          "internalType": "bytes32",
          "name": "role",
          "type": "bytes32"
        },
        {
          "indexed": true,
          "internalType": "address",
          "name": "account",
          "type": "address"
        },
        {
          "indexed": true,
          "internalType": "address",
          "name": "sender",
          "type": "address"
        }
      ],
      "name": "RoleRevoked",
      "type": "event"
    },
    {
      "anonymous": false,
      "inputs": [
        {
          "indexed": true,
          "internalType": "address",
          "name": "factory",
          "type": "address"
        },
        {
          "indexed": true,
          "internalType": "string",
          "name": "standard",
          "type": "string"
        }
      ],
      "name": "TCO2FactoryAdded",
      "type": "event"
    },
    {
      "anonymous": false,
      "inputs": [
        {
          "indexed": true,
          "internalType": "address",
          "name": "implementation",
          "type": "address"
        }
      ],
      "name": "Upgraded",
      "type": "event"
    },
    {
      "inputs": [],
      "name": "DEFAULT_ADMIN_ROLE",
      "outputs": [
        {
          "internalType": "bytes32",
          "name": "",
          "type": "bytes32"
        }
      ],
      "stateMutability": "view",
      "type": "function"
    },
    {
      "inputs": [],
      "name": "PAUSER_ROLE",
      "outputs": [
        {
          "internalType": "bytes32",
          "name": "",
          "type": "bytes32"
        }
      ],
      "stateMutability": "view",
      "type": "function"
    },
    {
      "inputs": [],
      "name": "VERSION",
      "outputs": [
        {
          "internalType": "string",
          "name": "",
          "type": "string"
        }
      ],
      "stateMutability": "view",
      "type": "function"
    },
    {
      "inputs": [],
      "name": "VERSION_RELEASE_CANDIDATE",
      "outputs": [
        {
          "internalType": "uint256",
          "name": "",
          "type": "uint256"
        }
      ],
      "stateMutability": "view",
      "type": "function"
    },
    {
      "inputs": [
        {
          "internalType": "address",
          "name": "erc20",
          "type": "address"
        },
        {
          "internalType": "string",
          "name": "standardRegistry",
          "type": "string"
        }
      ],
      "name": "addERC20",
      "outputs": [],
      "stateMutability": "nonpayable",
      "type": "function"
    },
    {
      "inputs": [],
      "name": "carbonOffsetBatchesAddress",
      "outputs": [
        {
          "internalType": "address",
          "name": "",
          "type": "address"
        }
      ],
      "stateMutability": "view",
      "type": "function"
    },
    {
      "inputs": [],
      "name": "carbonProjectVintagesAddress",
      "outputs": [
        {
          "internalType": "address",
          "name": "",
          "type": "address"
        }
      ],
      "stateMutability": "view",
      "type": "function"
    },
    {
      "inputs": [],
      "name": "carbonProjectsAddress",
      "outputs": [
        {
          "internalType": "address",
          "name": "",
          "type": "address"
        }
      ],
      "stateMutability": "view",
      "type": "function"
    },
    {
      "inputs": [
        {
          "internalType": "address",
          "name": "erc20",
          "type": "address"
        }
      ],
      "name": "checkERC20",
      "outputs": [
        {
          "internalType": "bool",
          "name": "",
          "type": "bool"
        }
      ],
      "stateMutability": "view",
      "type": "function"
    },
    {
      "inputs": [
        {
          "internalType": "bytes32",
          "name": "role",
          "type": "bytes32"
        }
      ],
      "name": "getRoleAdmin",
      "outputs": [
        {
          "internalType": "bytes32",
          "name": "",
          "type": "bytes32"
        }
      ],
      "stateMutability": "view",
      "type": "function"
    },
    {
      "inputs": [
        {
          "internalType": "bytes32",
          "name": "role",
          "type": "bytes32"
        },
        {
          "internalType": "address",
          "name": "account",
          "type": "address"
        }
      ],
      "name": "grantRole",
      "outputs": [],
      "stateMutability": "nonpayable",
      "type": "function"
    },
    {
      "inputs": [
        {
          "internalType": "bytes32",
          "name": "role",
          "type": "bytes32"
        },
        {
          "internalType": "address",
          "name": "account",
          "type": "address"
        }
      ],
      "name": "hasRole",
      "outputs": [
        {
          "internalType": "bool",
          "name": "",
          "type": "bool"
        }
      ],
      "stateMutability": "view",
      "type": "function"
    },
    {
      "inputs": [
        {
          "internalType": "address[]",
          "name": "_accounts",
          "type": "address[]"
        },
        {
          "internalType": "bytes32[]",
          "name": "_roles",
          "type": "bytes32[]"
        }
      ],
      "name": "initialize",
      "outputs": [],
      "stateMutability": "nonpayable",
      "type": "function"
    },
    {
      "inputs": [
        {
          "internalType": "address",
          "name": "erc20",
          "type": "address"
        }
      ],
      "name": "isValidERC20",
      "outputs": [
        {
          "internalType": "bool",
          "name": "",
          "type": "bool"
        }
      ],
      "stateMutability": "view",
      "type": "function"
    },
    {
      "inputs": [],
      "name": "owner",
      "outputs": [
        {
          "internalType": "address",
          "name": "",
          "type": "address"
        }
      ],
      "stateMutability": "view",
      "type": "function"
    },
    {
      "inputs": [],
      "name": "pauseSystem",
      "outputs": [],
      "stateMutability": "nonpayable",
      "type": "function"
    },
    {
      "inputs": [
        {
          "internalType": "address",
          "name": "",
          "type": "address"
        }
      ],
      "name": "projectVintageERC20Registry",
      "outputs": [
        {
          "internalType": "bool",
          "name": "",
          "type": "bool"
        }
      ],
      "stateMutability": "view",
      "type": "function"
    },
    {
      "inputs": [],
      "name": "proxiableUUID",
      "outputs": [
        {
          "internalType": "bytes32",
          "name": "",
          "type": "bytes32"
        }
      ],
      "stateMutability": "view",
      "type": "function"
    },
    {
      "inputs": [],
      "name": "renounceOwnership",
      "outputs": [],
      "stateMutability": "nonpayable",
      "type": "function"
    },
    {
      "inputs": [
        {
          "internalType": "bytes32",
          "name": "role",
          "type": "bytes32"
        },
        {
          "internalType": "address",
          "name": "account",
          "type": "address"
        }
      ],
      "name": "renounceRole",
      "outputs": [],
      "stateMutability": "nonpayable",
      "type": "function"
    },
    {
      "inputs": [],
      "name": "retirementCertificateFractionalizerAddress",
      "outputs": [
        {
          "internalType": "address",
          "name": "",
          "type": "address"
        }
      ],
      "stateMutability": "view",
      "type": "function"
    },
    {
      "inputs": [],
      "name": "retirementCertificateFractionsAddress",
      "outputs": [
        {
          "internalType": "address",
          "name": "",
          "type": "address"
        }
      ],
      "stateMutability": "view",
      "type": "function"
    },
    {
      "inputs": [],
      "name": "retirementCertificatesAddress",
      "outputs": [
        {
          "internalType": "address",
          "name": "",
          "type": "address"
        }
      ],
      "stateMutability": "view",
      "type": "function"
    },
    {
      "inputs": [
        {
          "internalType": "bytes32",
          "name": "role",
          "type": "bytes32"
        },
        {
          "internalType": "address",
          "name": "account",
          "type": "address"
        }
      ],
      "name": "revokeRole",
      "outputs": [],
      "stateMutability": "nonpayable",
      "type": "function"
    },
    {
      "inputs": [
        {
          "internalType": "address",
          "name": "_address",
          "type": "address"
        }
      ],
      "name": "setCarbonOffsetBatchesAddress",
      "outputs": [],
      "stateMutability": "nonpayable",
      "type": "function"
    },
    {
      "inputs": [
        {
          "internalType": "address",
          "name": "_address",
          "type": "address"
        }
      ],
      "name": "setCarbonProjectVintagesAddress",
      "outputs": [],
      "stateMutability": "nonpayable",
      "type": "function"
    },
    {
      "inputs": [
        {
          "internalType": "address",
          "name": "_address",
          "type": "address"
        }
      ],
      "name": "setCarbonProjectsAddress",
      "outputs": [],
      "stateMutability": "nonpayable",
      "type": "function"
    },
    {
      "inputs": [
        {
          "internalType": "address",
          "name": "_address",
          "type": "address"
        }
      ],
      "name": "setRetirementCertificateFractionalizerAddress",
      "outputs": [],
      "stateMutability": "nonpayable",
      "type": "function"
    },
    {
      "inputs": [
        {
          "internalType": "address",
          "name": "_address",
          "type": "address"
        }
      ],
      "name": "setRetirementCertificateFractionsAddress",
      "outputs": [],
      "stateMutability": "nonpayable",
      "type": "function"
    },
    {
      "inputs": [
        {
          "internalType": "address",
          "name": "_address",
          "type": "address"
        }
      ],
      "name": "setRetirementCertificatesAddress",
      "outputs": [],
      "stateMutability": "nonpayable",
      "type": "function"
    },
    {
      "inputs": [
        {
          "internalType": "address",
          "name": "_address",
          "type": "address"
        }
      ],
      "name": "setToucanCarbonOffsetsEscrowAddress",
      "outputs": [],
      "stateMutability": "nonpayable",
      "type": "function"
    },
    {
      "inputs": [
        {
          "internalType": "address",
          "name": "tco2Factory",
          "type": "address"
        }
      ],
      "name": "setToucanCarbonOffsetsFactoryAddress",
      "outputs": [],
      "stateMutability": "nonpayable",
      "type": "function"
    },
    {
      "inputs": [],
      "name": "supportedStandardRegistries",
      "outputs": [
        {
          "internalType": "string[]",
          "name": "",
          "type": "string[]"
        }
      ],
      "stateMutability": "view",
      "type": "function"
    },
    {
      "inputs": [
        {
          "internalType": "bytes4",
          "name": "interfaceId",
          "type": "bytes4"
        }
      ],
      "name": "supportsInterface",
      "outputs": [
        {
          "internalType": "bool",
          "name": "",
          "type": "bool"
        }
      ],
      "stateMutability": "view",
      "type": "function"
    },
    {
      "inputs": [
        {
          "internalType": "string",
          "name": "",
          "type": "string"
        }
      ],
      "name": "toucanCarbonOffsetFactories",
      "outputs": [
        {
          "internalType": "address",
          "name": "",
          "type": "address"
        }
      ],
      "stateMutability": "view",
      "type": "function"
    },
    {
      "inputs": [],
      "name": "toucanCarbonOffsetsEscrowAddress",
      "outputs": [
        {
          "internalType": "address",
          "name": "",
          "type": "address"
        }
      ],
      "stateMutability": "view",
      "type": "function"
    },
    {
      "inputs": [
        {
          "internalType": "string",
          "name": "standardRegistry",
          "type": "string"
        }
      ],
      "name": "toucanCarbonOffsetsFactoryAddress",
      "outputs": [
        {
          "internalType": "address",
          "name": "",
          "type": "address"
        }
      ],
      "stateMutability": "view",
      "type": "function"
    },
    {
      "inputs": [
        {
          "internalType": "address",
          "name": "newOwner",
          "type": "address"
        }
      ],
      "name": "transferOwnership",
      "outputs": [],
      "stateMutability": "nonpayable",
      "type": "function"
    },
    {
      "inputs": [],
      "name": "unpauseSystem",
      "outputs": [],
      "stateMutability": "nonpayable",
      "type": "function"
    },
    {
      "inputs": [
        {
          "internalType": "address",
          "name": "newImplementation",
          "type": "address"
        }
      ],
      "name": "upgradeTo",
      "outputs": [],
      "stateMutability": "nonpayable",
      "type": "function"
    },
    {
      "inputs": [
        {
          "internalType": "address",
          "name": "newImplementation",
          "type": "address"
        },
        {
          "internalType": "bytes",
          "name": "data",
          "type": "bytes"
        }
      ],
      "name": "upgradeToAndCall",
      "outputs": [],
      "stateMutability": "payable",
      "type": "function"
    }
  ],
  "numDeployments": 3,
  "solcInputHash": "17f126b2dec8a6d31ddea695ffc58a4a",
  "bytecode": "0x60a0604052306080523480156200001557600080fd5b506200002062000026565b620000e7565b600654610100900460ff1615620000935760405162461bcd60e51b815260206004820152602760248201527f496e697469616c697a61626c653a20636f6e747261637420697320696e697469604482015266616c697a696e6760c81b606482015260840160405180910390fd5b60065460ff90811614620000e5576006805460ff191660ff9081179091556040519081527f7f26b83ff96e1f2b6a682f133852f6798a09c465da95921460cefb38474024989060200160405180910390a15b565b608051612deb6200011f60003960008181610a1d01528181610a5d01528181610f1101528181610f510152610fe00152612deb6000f3fe6080604052600436106102465760003560e01c8063715018a611610139578063a217fddf116100b6578063e63ab1e91161007a578063e63ab1e9146106a4578063e72994e2146106d8578063f0782ba8146106f7578063f2fde38b14610717578063f5e7663214610737578063ffa1ad741461077957600080fd5b8063a217fddf1461061a578063ab059f801461062f578063bab5adc31461064f578063d547741f1461066f578063dc1d4fb71461068f57600080fd5b80638da5cb5b116100fd5780638da5cb5b1461057e57806391148b271461059c57806391d14854146105bc578063a0ad2599146105dc578063a0af2560146105fc57600080fd5b8063715018a6146104f057806371b15b1c14610505578063746f62da14610525578063787d8713146105255780638c7012461461055e57600080fd5b806336568abe116101c75780634f1ef2861161018b5780634f1ef2861461047157806352d1902d146104845780636989d801146104995780636c07adfa146104b95780636ca0b0d7146104db57600080fd5b806336568abe146103e05780633659cfe614610400578063376b5dce146104205780634be4e3dd1461043e5780634c7612401461045c57600080fd5b80631cf743db1161020e5780631cf743db14610313578063248a9ca3146103435780632b1d5997146103815780632f2ff15d146103a0578063344dd6cb146103c057600080fd5b806301157a831461024b57806301f07b2f1461028257806301ffc9a7146102a45780630f5fcf0a146102d457806315512cb0146102f4575b600080fd5b34801561025757600080fd5b506001546001600160a01b03165b6040516001600160a01b0390911681526020015b60405180910390f35b34801561028e57600080fd5b506102a261029d36600461265b565b6107b7565b005b3480156102b057600080fd5b506102c46102bf366004612676565b610810565b6040519015158152602001610279565b3480156102e057600080fd5b506102a26102ef36600461265b565b610847565b34801561030057600080fd5b50610136546001600160a01b0316610265565b34801561031f57600080fd5b506102c461032e36600461265b565b60056020526000908152604090205460ff1681565b34801561034f57600080fd5b5061037361035e3660046126a0565b6000908152609d602052604090206001015490565b604051908152602001610279565b34801561038d57600080fd5b50610137546001600160a01b0316610265565b3480156103ac57600080fd5b506102a26103bb3660046126b9565b610898565b3480156103cc57600080fd5b506102a26103db3660046126e5565b6108c2565b3480156103ec57600080fd5b506102a26103fb3660046126b9565b610995565b34801561040c57600080fd5b506102a261041b36600461265b565b610a13565b34801561042c57600080fd5b506004546001600160a01b0316610265565b34801561044a57600080fd5b506000546001600160a01b0316610265565b34801561046857600080fd5b506102a2610af2565b6102a261047f366004612815565b610f07565b34801561049057600080fd5b50610373610fd3565b3480156104a557600080fd5b506102a26104b436600461265b565b611086565b3480156104c557600080fd5b506104ce6110d6565b60405161027991906128cf565b3480156104e757600080fd5b50610373600281565b3480156104fc57600080fd5b506102a26111b0565b34801561051157600080fd5b506102a261052036600461265b565b6111c4565b34801561053157600080fd5b506102c461054036600461265b565b6001600160a01b031660009081526005602052604090205460ff1690565b34801561056a57600080fd5b506102a261057936600461265b565b611214565b34801561058a57600080fd5b506039546001600160a01b0316610265565b3480156105a857600080fd5b506102656105b7366004612931565b611265565b3480156105c857600080fd5b506102c46105d73660046126b9565b611297565b3480156105e857600080fd5b506102a26105f736600461265b565b6112c2565b34801561060857600080fd5b506002546001600160a01b0316610265565b34801561062657600080fd5b50610373600081565b34801561063b57600080fd5b506102a261064a36600461265b565b611312565b34801561065b57600080fd5b506102a261066a3660046129c6565b611363565b34801561067b57600080fd5b506102a261068a3660046126b9565b61148b565b34801561069b57600080fd5b506102a26114b0565b3480156106b057600080fd5b506103737f65d7a28e3265b37a6474929f336521b332c1681b933f6cb9f3376673440d862a81565b3480156106e457600080fd5b50610135546001600160a01b0316610265565b34801561070357600080fd5b506102a261071236600461265b565b61194c565b34801561072357600080fd5b506102a261073236600461265b565b611b16565b34801561074357600080fd5b50610265610752366004612931565b8051602081830181018051610133825292820191909301209152546001600160a01b031681565b34801561078557600080fd5b506107aa604051806040016040528060058152602001640312e332e360dc1b81525081565b6040516102799190612a32565b6107bf611b8c565b6001600160a01b0381166107ee5760405162461bcd60e51b81526004016107e590612a45565b60405180910390fd5b600280546001600160a01b0319166001600160a01b0392909216919091179055565b60006001600160e01b03198216637965db0b60e01b148061084157506301ffc9a760e01b6001600160e01b03198316145b92915050565b61084f611b8c565b6001600160a01b0381166108755760405162461bcd60e51b81526004016107e590612a45565b61013580546001600160a01b0319166001600160a01b0392909216919091179055565b6000828152609d60205260409020600101546108b381611be6565b6108bd8383611bf0565b505050565b61013382826040516108d5929190612a6b565b908152604051908190036020019020546001600160a01b03166109006039546001600160a01b031690565b6001600160a01b03821633148061091f57506001600160a01b03811633145b61096b5760405162461bcd60e51b815260206004820152601960248201527f43616c6c6572206973206e6f742074686520666163746f72790000000000000060448201526064016107e5565b5050506001600160a01b039091166000908152600560205260409020805460ff1916600117905550565b6001600160a01b0381163314610a055760405162461bcd60e51b815260206004820152602f60248201527f416363657373436f6e74726f6c3a2063616e206f6e6c792072656e6f756e636560448201526e103937b632b9903337b91039b2b63360891b60648201526084016107e5565b610a0f8282611c76565b5050565b6001600160a01b037f0000000000000000000000000000000000000000000000000000000000000000163003610a5b5760405162461bcd60e51b81526004016107e590612a7b565b7f00000000000000000000000000000000000000000000000000000000000000006001600160a01b0316610aa4600080516020612d6f833981519152546001600160a01b031690565b6001600160a01b031614610aca5760405162461bcd60e51b81526004016107e590612ac7565b610ad381611cdd565b60408051600080825260208201909252610aef91839190611ce5565b50565b610afa611b8c565b60025460408051635c975abb60e01b815290516001600160a01b03909216918291635c975abb9160048083019260209291908290030181865afa158015610b45573d6000803e3d6000fd5b505050506040513d601f19601f82011682018060405250810190610b699190612b13565b15610bc257806001600160a01b0316633f4ba83a6040518163ffffffff1660e01b8152600401600060405180830381600087803b158015610ba957600080fd5b505af1158015610bbd573d6000803e3d6000fd5b505050505b60015460408051635c975abb60e01b815290516001600160a01b03909216918291635c975abb9160048083019260209291908290030181865afa158015610c0d573d6000803e3d6000fd5b505050506040513d601f19601f82011682018060405250810190610c319190612b13565b15610c8a57806001600160a01b0316633f4ba83a6040518163ffffffff1660e01b8152600401600060405180830381600087803b158015610c7157600080fd5b505af1158015610c85573d6000803e3d6000fd5b505050505b60005460408051635c975abb60e01b815290516001600160a01b03909216918291635c975abb9160048083019260209291908290030181865afa158015610cd5573d6000803e3d6000fd5b505050506040513d601f19601f82011682018060405250810190610cf99190612b13565b15610d5257806001600160a01b0316633f4ba83a6040518163ffffffff1660e01b8152600401600060405180830381600087803b158015610d3957600080fd5b505af1158015610d4d573d6000803e3d6000fd5b505050505b6101345460005b81811015610f005760006101348281548110610d7757610d77612b35565b906000526020600020018054610d8c90612b4b565b80601f0160208091040260200160405190810160405280929190818152602001828054610db890612b4b565b8015610e055780601f10610dda57610100808354040283529160200191610e05565b820191906000526020600020905b815481529060010190602001808311610de857829003601f168201915b50505050509050600061013382604051610e1f9190612b85565b908152604080516020928190038301812054635c975abb60e01b825291516001600160a01b03909216935083928392635c975abb9260048082019392918290030181865afa158015610e75573d6000803e3d6000fd5b505050506040513d601f19601f82011682018060405250810190610e999190612b13565b15610ef257806001600160a01b0316633f4ba83a6040518163ffffffff1660e01b8152600401600060405180830381600087803b158015610ed957600080fd5b505af1158015610eed573d6000803e3d6000fd5b505050505b836001019350505050610d59565b5050505050565b6001600160a01b037f0000000000000000000000000000000000000000000000000000000000000000163003610f4f5760405162461bcd60e51b81526004016107e590612a7b565b7f00000000000000000000000000000000000000000000000000000000000000006001600160a01b0316610f98600080516020612d6f833981519152546001600160a01b031690565b6001600160a01b031614610fbe5760405162461bcd60e51b81526004016107e590612ac7565b610fc782611cdd565b610a0f82826001611ce5565b6000306001600160a01b037f000000000000000000000000000000000000000000000000000000000000000016146110735760405162461bcd60e51b815260206004820152603860248201527f555550535570677261646561626c653a206d757374206e6f742062652063616c60448201527f6c6564207468726f7567682064656c656761746563616c6c000000000000000060648201526084016107e5565b50600080516020612d6f83398151915290565b61108e611b8c565b6001600160a01b0381166110b45760405162461bcd60e51b81526004016107e590612a45565b600080546001600160a01b0319166001600160a01b0392909216919091179055565b6060610134805480602002602001604051908101604052809291908181526020016000905b828210156111a757838290600052602060002001805461111a90612b4b565b80601f016020809104026020016040519081016040528092919081815260200182805461114690612b4b565b80156111935780601f1061116857610100808354040283529160200191611193565b820191906000526020600020905b81548152906001019060200180831161117657829003601f168201915b5050505050815260200190600101906110fb565b50505050905090565b6111b8611b8c565b6111c26000611e50565b565b6111cc611b8c565b6001600160a01b0381166111f25760405162461bcd60e51b81526004016107e590612a45565b600480546001600160a01b0319166001600160a01b0392909216919091179055565b61121c611b8c565b6001600160a01b0381166112425760405162461bcd60e51b81526004016107e590612a45565b61013680546001600160a01b0319166001600160a01b0392909216919091179055565b6000610133826040516112789190612b85565b908152604051908190036020019020546001600160a01b031692915050565b6000918252609d602090815260408084206001600160a01b0393909316845291905290205460ff1690565b6112ca611b8c565b6001600160a01b0381166112f05760405162461bcd60e51b81526004016107e590612a45565b600180546001600160a01b0319166001600160a01b0392909216919091179055565b61131a611b8c565b6001600160a01b0381166113405760405162461bcd60e51b81526004016107e590612a45565b61013780546001600160a01b0319166001600160a01b0392909216919091179055565b600654610100900460ff16158080156113835750600654600160ff909116105b8061139d5750303b15801561139d575060065460ff166001145b6114005760405162461bcd60e51b815260206004820152602e60248201527f496e697469616c697a61626c653a20636f6e747261637420697320616c72656160448201526d191e481a5b9a5d1a585b1a5e995960921b60648201526084016107e5565b6006805460ff191660011790558015611423576006805461ff0019166101001790555b61142b611ea2565b61143785858585611ed1565b61143f611fec565b8015610f00576006805461ff0019169055604051600181527f7f26b83ff96e1f2b6a682f133852f6798a09c465da95921460cefb38474024989060200160405180910390a15050505050565b6000828152609d60205260409020600101546114a681611be6565b6108bd8383611c76565b6114da7f65d7a28e3265b37a6474929f336521b332c1681b933f6cb9f3376673440d862a33611297565b806114fe5750336114f36039546001600160a01b031690565b6001600160a01b0316145b61154a5760405162461bcd60e51b815260206004820152601860248201527f43616c6c6572206973206e6f7420617574686f72697a6564000000000000000060448201526064016107e5565b60025460408051635c975abb60e01b815290516001600160a01b03909216918291635c975abb9160048083019260209291908290030181865afa158015611595573d6000803e3d6000fd5b505050506040513d601f19601f820116820180604052508101906115b99190612b13565b61161157806001600160a01b0316638456cb596040518163ffffffff1660e01b8152600401600060405180830381600087803b1580156115f857600080fd5b505af115801561160c573d6000803e3d6000fd5b505050505b60015460408051635c975abb60e01b815290516001600160a01b03909216918291635c975abb9160048083019260209291908290030181865afa15801561165c573d6000803e3d6000fd5b505050506040513d601f19601f820116820180604052508101906116809190612b13565b6116d857806001600160a01b0316638456cb596040518163ffffffff1660e01b8152600401600060405180830381600087803b1580156116bf57600080fd5b505af11580156116d3573d6000803e3d6000fd5b505050505b60005460408051635c975abb60e01b815290516001600160a01b03909216918291635c975abb9160048083019260209291908290030181865afa158015611723573d6000803e3d6000fd5b505050506040513d601f19601f820116820180604052508101906117479190612b13565b61179f57806001600160a01b0316638456cb596040518163ffffffff1660e01b8152600401600060405180830381600087803b15801561178657600080fd5b505af115801561179a573d6000803e3d6000fd5b505050505b6101345460005b81811015610f0057600061013482815481106117c4576117c4612b35565b9060005260206000200180546117d990612b4b565b80601f016020809104026020016040519081016040528092919081815260200182805461180590612b4b565b80156118525780601f1061182757610100808354040283529160200191611852565b820191906000526020600020905b81548152906001019060200180831161183557829003601f168201915b5050505050905060006101338260405161186c9190612b85565b908152604080516020928190038301812054635c975abb60e01b825291516001600160a01b03909216935083928392635c975abb9260048082019392918290030181865afa1580156118c2573d6000803e3d6000fd5b505050506040513d601f19601f820116820180604052508101906118e69190612b13565b61193e57806001600160a01b0316638456cb596040518163ffffffff1660e01b8152600401600060405180830381600087803b15801561192557600080fd5b505af1158015611939573d6000803e3d6000fd5b505050505b8360010193505050506117a6565b611954611b8c565b6001600160a01b03811661197a5760405162461bcd60e51b81526004016107e590612a45565b6000816001600160a01b0316633c31175e6040518163ffffffff1660e01b81526004016000604051808303816000875af11580156119bc573d6000803e3d6000fd5b505050506040513d6000823e601f3d908101601f191682016040526119e49190810190612ba1565b90508051600003611a375760405162461bcd60e51b815260206004820152601760248201527f456d707479207374616e6461726420726567697374727900000000000000000060448201526064016107e5565b611a4081612013565b611a8a5761013480546001810182556000919091528151611a88917fe1c588fe1269da19c317f679b04e226f5e48296f9b2c8351127eb010907c472f019060208401906125a6565b505b8161013382604051611a9c9190612b85565b90815260405190819003602001812080546001600160a01b03939093166001600160a01b031990931692909217909155611ad7908290612b85565b604051908190038120906001600160a01b038416907f330abee6414b34f936df7009380419f0583327419d70619b3e543b1cb26d3a1590600090a35050565b611b1e611b8c565b6001600160a01b038116611b835760405162461bcd60e51b815260206004820152602660248201527f4f776e61626c653a206e6577206f776e657220697320746865207a65726f206160448201526564647265737360d01b60648201526084016107e5565b610aef81611e50565b6039546001600160a01b031633146111c25760405162461bcd60e51b815260206004820181905260248201527f4f776e61626c653a2063616c6c6572206973206e6f7420746865206f776e657260448201526064016107e5565b610aef81336120fe565b611bfa8282611297565b610a0f576000828152609d602090815260408083206001600160a01b03851684529091529020805460ff19166001179055611c323390565b6001600160a01b0316816001600160a01b0316837f2f8788117e7eff1d82e926ec794901d17c78024a50270940304540a733656f0d60405160405180910390a45050565b611c808282611297565b15610a0f576000828152609d602090815260408083206001600160a01b0385168085529252808320805460ff1916905551339285917ff6391f5c32d9c69d2a47ea670b442974b53935d1edc7fd64eb21e047a839171b9190a45050565b610aef611b8c565b7f4910fdfa16fed3260ed0e7147f7cc6da11a60208b5b9406d12a635614ffd91435460ff1615611d18576108bd83612157565b826001600160a01b03166352d1902d6040518163ffffffff1660e01b8152600401602060405180830381865afa925050508015611d72575060408051601f3d908101601f19168201909252611d6f91810190612c18565b60015b611dd55760405162461bcd60e51b815260206004820152602e60248201527f45524331393637557067726164653a206e657720696d706c656d656e7461746960448201526d6f6e206973206e6f74205555505360901b60648201526084016107e5565b600080516020612d6f8339815191528114611e445760405162461bcd60e51b815260206004820152602960248201527f45524331393637557067726164653a20756e737570706f727465642070726f786044820152681a58589b195555525160ba1b60648201526084016107e5565b506108bd8383836121f3565b603980546001600160a01b038381166001600160a01b0319831681179093556040519116919082907f8be0079c531659141344cd1fd0a4f28419497f9722a3daafe3b4186f6b6457e090600090a35050565b600654610100900460ff16611ec95760405162461bcd60e51b81526004016107e590612c31565b6111c261221e565b828114611f185760405162461bcd60e51b8152602060048201526015602482015274082e4e4c2f240d8cadccee8d040dad2e6dac2e8c6d605b1b60448201526064016107e5565b611f20611fec565b6000805b84811015611fa957611f74848483818110611f4157611f41612b35565b90506020020135878784818110611f5a57611f5a612b35565b9050602002016020810190611f6f919061265b565b611bf0565b6000848483818110611f8857611f88612b35565b9050602002013503611f9957600191505b611fa281612c92565b9050611f24565b5080610f005760405162461bcd60e51b8152602060048201526012602482015271139bc818591b5a5b881cdc1958da599a595960721b60448201526064016107e5565b600654610100900460ff166111c25760405162461bcd60e51b81526004016107e590612c31565b61013454600090815b818110156120f4576120dd84610134838154811061203c5761203c612b35565b90600052602060002001805461205190612b4b565b80601f016020809104026020016040519081016040528092919081815260200182805461207d90612b4b565b80156120ca5780601f1061209f576101008083540402835291602001916120ca565b820191906000526020600020905b8154815290600101906020018083116120ad57829003601f168201915b505050505061224e90919063ffffffff16565b156120ec575060019392505050565b60010161201c565b5060009392505050565b6121088282611297565b610a0f5761211581612275565b612120836020612287565b604051602001612131929190612cab565b60408051601f198184030181529082905262461bcd60e51b82526107e591600401612a32565b6001600160a01b0381163b6121c45760405162461bcd60e51b815260206004820152602d60248201527f455243313936373a206e657720696d706c656d656e746174696f6e206973206e60448201526c1bdd08184818dbdb9d1c9858dd609a1b60648201526084016107e5565b600080516020612d6f83398151915280546001600160a01b0319166001600160a01b0392909216919091179055565b6121fc83612423565b6000825111806122095750805b156108bd576122188383612463565b50505050565b600654610100900460ff166122455760405162461bcd60e51b81526004016107e590612c31565b6111c233611e50565b60008151835114801561226e575081805190602001208380519060200120145b9392505050565b60606108416001600160a01b03831660145b60606000612296836002612d20565b6122a1906002612d3f565b67ffffffffffffffff8111156122b9576122b9612768565b6040519080825280601f01601f1916602001820160405280156122e3576020820181803683370190505b509050600360fc1b816000815181106122fe576122fe612b35565b60200101906001600160f81b031916908160001a905350600f60fb1b8160018151811061232d5761232d612b35565b60200101906001600160f81b031916908160001a9053506000612351846002612d20565b61235c906001612d3f565b90505b60018111156123d4576f181899199a1a9b1b9c1cb0b131b232b360811b85600f166010811061239057612390612b35565b1a60f81b8282815181106123a6576123a6612b35565b60200101906001600160f81b031916908160001a90535060049490941c936123cd81612d57565b905061235f565b50831561226e5760405162461bcd60e51b815260206004820181905260248201527f537472696e67733a20686578206c656e67746820696e73756666696369656e7460448201526064016107e5565b61242c81612157565b6040516001600160a01b038216907fbc7cd75a20ee27fd9adebab32041f755214dbc6bffa90cc0225b39da2e5c2d3b90600090a250565b606061226e8383604051806060016040528060278152602001612d8f602791396060600080856001600160a01b0316856040516124a09190612b85565b600060405180830381855af49150503d80600081146124db576040519150601f19603f3d011682016040523d82523d6000602084013e6124e0565b606091505b50915091506124f1868383876124fb565b9695505050505050565b6060831561256a578251600003612563576001600160a01b0385163b6125635760405162461bcd60e51b815260206004820152601d60248201527f416464726573733a2063616c6c20746f206e6f6e2d636f6e747261637400000060448201526064016107e5565b5081612574565b612574838361257c565b949350505050565b81511561258c5781518083602001fd5b8060405162461bcd60e51b81526004016107e59190612a32565b8280546125b290612b4b565b90600052602060002090601f0160209004810192826125d4576000855561261a565b82601f106125ed57805160ff191683800117855561261a565b8280016001018555821561261a579182015b8281111561261a5782518255916020019190600101906125ff565b5061262692915061262a565b5090565b5b80821115612626576000815560010161262b565b80356001600160a01b038116811461265657600080fd5b919050565b60006020828403121561266d57600080fd5b61226e8261263f565b60006020828403121561268857600080fd5b81356001600160e01b03198116811461226e57600080fd5b6000602082840312156126b257600080fd5b5035919050565b600080604083850312156126cc57600080fd5b823591506126dc6020840161263f565b90509250929050565b6000806000604084860312156126fa57600080fd5b6127038461263f565b9250602084013567ffffffffffffffff8082111561272057600080fd5b818601915086601f83011261273457600080fd5b81358181111561274357600080fd5b87602082850101111561275557600080fd5b6020830194508093505050509250925092565b634e487b7160e01b600052604160045260246000fd5b604051601f8201601f1916810167ffffffffffffffff811182821017156127a7576127a7612768565b604052919050565b600067ffffffffffffffff8211156127c9576127c9612768565b50601f01601f191660200190565b60006127ea6127e5846127af565b61277e565b90508281528383830111156127fe57600080fd5b828260208301376000602084830101529392505050565b6000806040838503121561282857600080fd5b6128318361263f565b9150602083013567ffffffffffffffff81111561284d57600080fd5b8301601f8101851361285e57600080fd5b61286d858235602084016127d7565b9150509250929050565b60005b8381101561289257818101518382015260200161287a565b838111156122185750506000910152565b600081518084526128bb816020860160208601612877565b601f01601f19169290920160200192915050565b6000602080830181845280855180835260408601915060408160051b870101925083870160005b8281101561292457603f198886030184526129128583516128a3565b945092850192908501906001016128f6565b5092979650505050505050565b60006020828403121561294357600080fd5b813567ffffffffffffffff81111561295a57600080fd5b8201601f8101841361296b57600080fd5b612574848235602084016127d7565b60008083601f84011261298c57600080fd5b50813567ffffffffffffffff8111156129a457600080fd5b6020830191508360208260051b85010111156129bf57600080fd5b9250929050565b600080600080604085870312156129dc57600080fd5b843567ffffffffffffffff808211156129f457600080fd5b612a008883890161297a565b90965094506020870135915080821115612a1957600080fd5b50612a268782880161297a565b95989497509550505050565b60208152600061226e60208301846128a3565b6020808252600c908201526b5a65726f206164647265737360a01b604082015260600190565b8183823760009101908152919050565b6020808252602c908201527f46756e6374696f6e206d7573742062652063616c6c6564207468726f7567682060408201526b19195b1959d85d1958d85b1b60a21b606082015260800190565b6020808252602c908201527f46756e6374696f6e206d7573742062652063616c6c6564207468726f7567682060408201526b6163746976652070726f787960a01b606082015260800190565b600060208284031215612b2557600080fd5b8151801515811461226e57600080fd5b634e487b7160e01b600052603260045260246000fd5b600181811c90821680612b5f57607f821691505b602082108103612b7f57634e487b7160e01b600052602260045260246000fd5b50919050565b60008251612b97818460208701612877565b9190910192915050565b600060208284031215612bb357600080fd5b815167ffffffffffffffff811115612bca57600080fd5b8201601f81018413612bdb57600080fd5b8051612be96127e5826127af565b818152856020838501011115612bfe57600080fd5b612c0f826020830160208601612877565b95945050505050565b600060208284031215612c2a57600080fd5b5051919050565b6020808252602b908201527f496e697469616c697a61626c653a20636f6e7472616374206973206e6f74206960408201526a6e697469616c697a696e6760a81b606082015260800190565b634e487b7160e01b600052601160045260246000fd5b600060018201612ca457612ca4612c7c565b5060010190565b7f416363657373436f6e74726f6c3a206163636f756e7420000000000000000000815260008351612ce3816017850160208801612877565b7001034b99036b4b9b9b4b733903937b6329607d1b6017918401918201528351612d14816028840160208801612877565b01602801949350505050565b6000816000190483118215151615612d3a57612d3a612c7c565b500290565b60008219821115612d5257612d52612c7c565b500190565b600081612d6657612d66612c7c565b50600019019056fe360894a13ba1a3210667c828492db98dca3e2076cc3735a920a3ca505d382bbc416464726573733a206c6f772d6c6576656c2064656c65676174652063616c6c206661696c6564a264697066735822122004036fe726b7de7e10052f35d0ddfe5714cdaf2367027d5368954837264f33a664736f6c634300080e0033",
  "devdoc": {
    "details": "The ToucanContractRegistry is queried by other contracts for current addresses",
    "kind": "dev",
    "methods": {
      "constructor": {
        "custom:oz-upgrades-unsafe-allow": "constructor"
      },
      "getRoleAdmin(bytes32)": {
        "details": "Returns the admin role that controls `role`. See {grantRole} and {revokeRole}. To change a role's admin, use {_setRoleAdmin}."
      },
      "grantRole(bytes32,address)": {
        "details": "Grants `role` to `account`. If `account` had not been already granted `role`, emits a {RoleGranted} event. Requirements: - the caller must have ``role``'s admin role. May emit a {RoleGranted} event."
      },
      "hasRole(bytes32,address)": {
        "details": "Returns `true` if `account` has been granted `role`."
      },
      "owner()": {
        "details": "Returns the address of the current owner."
      },
      "proxiableUUID()": {
        "details": "Implementation of the ERC1822 {proxiableUUID} function. This returns the storage slot used by the implementation. It is used to validate the implementation's compatibility when performing an upgrade. IMPORTANT: A proxy pointing at a proxiable contract should not be considered proxiable itself, because this risks bricking a proxy that upgrades to it, by delegating to itself until out of gas. Thus it is critical that this function revert if invoked through a proxy. This is guaranteed by the `notDelegated` modifier."
      },
      "renounceOwnership()": {
        "details": "Leaves the contract without owner. It will not be possible to call `onlyOwner` functions. Can only be called by the current owner. NOTE: Renouncing ownership will leave the contract without an owner, thereby disabling any functionality that is only available to the owner."
      },
      "renounceRole(bytes32,address)": {
        "details": "Revokes `role` from the calling account. Roles are often managed via {grantRole} and {revokeRole}: this function's purpose is to provide a mechanism for accounts to lose their privileges if they are compromised (such as when a trusted device is misplaced). If the calling account had been revoked `role`, emits a {RoleRevoked} event. Requirements: - the caller must be `account`. May emit a {RoleRevoked} event."
      },
      "revokeRole(bytes32,address)": {
        "details": "Revokes `role` from `account`. If `account` had been granted `role`, emits a {RoleRevoked} event. Requirements: - the caller must have ``role``'s admin role. May emit a {RoleRevoked} event."
      },
      "supportsInterface(bytes4)": {
        "details": "See {IERC165-supportsInterface}."
      },
      "toucanCarbonOffsetsFactoryAddress(string)": {
        "details": "return the TCO2 factory address for the provided standard"
      },
      "transferOwnership(address)": {
        "details": "Transfers ownership of the contract to a new account (`newOwner`). Can only be called by the current owner."
      },
      "upgradeTo(address)": {
        "custom:oz-upgrades-unsafe-allow-reachable": "delegatecall",
        "details": "Upgrade the implementation of the proxy to `newImplementation`. Calls {_authorizeUpgrade}. Emits an {Upgraded} event."
      },
      "upgradeToAndCall(address,bytes)": {
        "custom:oz-upgrades-unsafe-allow-reachable": "delegatecall",
        "details": "Upgrade the implementation of the proxy to `newImplementation`, and subsequently execute the function call encoded in `data`. Calls {_authorizeUpgrade}. Emits an {Upgraded} event."
      }
    },
    "stateVariables": {
      "PAUSER_ROLE": {
        "details": "All roles related to accessing this contract"
      },
      "VERSION": {
        "details": "Version-related parameters. VERSION keeps track of production releases. VERSION_RELEASE_CANDIDATE keeps track of iterations of a VERSION in our staging environment."
      }
    },
    "version": 1
  },
  "userdoc": {
    "kind": "user",
    "methods": {
      "addERC20(address,string)": {
        "notice": "Keep track of TCO2s per standard"
      },
      "checkERC20(address)": {
        "notice": "TODO: Kept for backwards-compatibility; will be removed in a future upgrade in favor of isValidERC20(erc20)"
      },
      "pauseSystem()": {
        "notice": "security function that pauses all contracts part of the carbon bridge"
      },
      "toucanCarbonOffsetFactories(string)": {
        "notice": "map of standard registries to tco2 factory addresses"
      },
      "unpauseSystem()": {
        "notice": "security function that unpauses all contracts part of the carbon bridge"
      }
    },
    "version": 1
  },
  "storageLayout": {
    "storage": [
      {
        "astId": 21826,
        "contract": "contracts/ToucanContractRegistry.sol:ToucanContractRegistry",
        "label": "_carbonOffsetBatchesAddress",
        "offset": 0,
        "slot": "0",
        "type": "t_address"
      },
      {
        "astId": 21828,
        "contract": "contracts/ToucanContractRegistry.sol:ToucanContractRegistry",
        "label": "_carbonProjectsAddress",
        "offset": 0,
        "slot": "1",
        "type": "t_address"
      },
      {
        "astId": 21830,
        "contract": "contracts/ToucanContractRegistry.sol:ToucanContractRegistry",
        "label": "_carbonProjectVintagesAddress",
        "offset": 0,
        "slot": "2",
        "type": "t_address"
      },
      {
        "astId": 21832,
        "contract": "contracts/ToucanContractRegistry.sol:ToucanContractRegistry",
        "label": "DEPRECATED_toucanCarbonOffsetsFactoryAddress",
        "offset": 0,
        "slot": "3",
        "type": "t_address"
      },
      {
        "astId": 21834,
        "contract": "contracts/ToucanContractRegistry.sol:ToucanContractRegistry",
        "label": "_retirementCertificatesAddress",
        "offset": 0,
        "slot": "4",
        "type": "t_address"
      },
      {
        "astId": 21838,
        "contract": "contracts/ToucanContractRegistry.sol:ToucanContractRegistry",
        "label": "projectVintageERC20Registry",
        "offset": 0,
        "slot": "5",
        "type": "t_mapping(t_address,t_bool)"
      },
      {
        "astId": 2373,
        "contract": "contracts/ToucanContractRegistry.sol:ToucanContractRegistry",
        "label": "_initialized",
        "offset": 0,
        "slot": "6",
        "type": "t_uint8"
      },
      {
        "astId": 2376,
        "contract": "contracts/ToucanContractRegistry.sol:ToucanContractRegistry",
        "label": "_initializing",
        "offset": 1,
        "slot": "6",
        "type": "t_bool"
      },
      {
        "astId": 7515,
        "contract": "contracts/ToucanContractRegistry.sol:ToucanContractRegistry",
        "label": "__gap",
        "offset": 0,
        "slot": "7",
        "type": "t_array(t_uint256)50_storage"
      },
      {
        "astId": 1879,
        "contract": "contracts/ToucanContractRegistry.sol:ToucanContractRegistry",
        "label": "_owner",
        "offset": 0,
        "slot": "57",
        "type": "t_address"
      },
      {
        "astId": 1999,
        "contract": "contracts/ToucanContractRegistry.sol:ToucanContractRegistry",
        "label": "__gap",
        "offset": 0,
        "slot": "58",
        "type": "t_array(t_uint256)49_storage"
      },
      {
        "astId": 7899,
        "contract": "contracts/ToucanContractRegistry.sol:ToucanContractRegistry",
        "label": "__gap",
        "offset": 0,
        "slot": "107",
        "type": "t_array(t_uint256)50_storage"
      },
      {
        "astId": 1486,
        "contract": "contracts/ToucanContractRegistry.sol:ToucanContractRegistry",
        "label": "_roles",
        "offset": 0,
        "slot": "157",
        "type": "t_mapping(t_bytes32,t_struct(RoleData)1481_storage)"
      },
      {
        "astId": 1793,
        "contract": "contracts/ToucanContractRegistry.sol:ToucanContractRegistry",
        "label": "__gap",
        "offset": 0,
        "slot": "158",
        "type": "t_array(t_uint256)49_storage"
      },
      {
        "astId": 2355,
        "contract": "contracts/ToucanContractRegistry.sol:ToucanContractRegistry",
        "label": "__gap",
        "offset": 0,
        "slot": "207",
        "type": "t_array(t_uint256)50_storage"
      },
      {
        "astId": 2671,
        "contract": "contracts/ToucanContractRegistry.sol:ToucanContractRegistry",
        "label": "__gap",
        "offset": 0,
        "slot": "257",
        "type": "t_array(t_uint256)50_storage"
      },
      {
        "astId": 21844,
        "contract": "contracts/ToucanContractRegistry.sol:ToucanContractRegistry",
        "label": "toucanCarbonOffsetFactories",
        "offset": 0,
        "slot": "307",
        "type": "t_mapping(t_string_memory_ptr,t_address)"
      },
      {
        "astId": 21848,
        "contract": "contracts/ToucanContractRegistry.sol:ToucanContractRegistry",
        "label": "standardRegistries",
        "offset": 0,
        "slot": "308",
        "type": "t_array(t_string_storage)dyn_storage"
      },
      {
        "astId": 21851,
        "contract": "contracts/ToucanContractRegistry.sol:ToucanContractRegistry",
        "label": "_toucanCarbonOffsetsEscrowAddress",
        "offset": 0,
        "slot": "309",
        "type": "t_address"
      },
      {
        "astId": 21854,
        "contract": "contracts/ToucanContractRegistry.sol:ToucanContractRegistry",
        "label": "_retirementCertificateFractionalizerAddress",
        "offset": 0,
        "slot": "310",
        "type": "t_address"
      },
      {
        "astId": 21856,
        "contract": "contracts/ToucanContractRegistry.sol:ToucanContractRegistry",
        "label": "_retirementCertificateFractionsAddress",
        "offset": 0,
        "slot": "311",
        "type": "t_address"
      }
    ],
    "types": {
      "t_address": {
        "encoding": "inplace",
        "label": "address",
        "numberOfBytes": "20"
      },
      "t_array(t_string_storage)dyn_storage": {
        "base": "t_string_storage",
        "encoding": "dynamic_array",
        "label": "string[]",
        "numberOfBytes": "32"
      },
      "t_array(t_uint256)49_storage": {
        "base": "t_uint256",
        "encoding": "inplace",
        "label": "uint256[49]",
        "numberOfBytes": "1568"
      },
      "t_array(t_uint256)50_storage": {
        "base": "t_uint256",
        "encoding": "inplace",
        "label": "uint256[50]",
        "numberOfBytes": "1600"
      },
      "t_bool": {
        "encoding": "inplace",
        "label": "bool",
        "numberOfBytes": "1"
      },
      "t_bytes32": {
        "encoding": "inplace",
        "label": "bytes32",
        "numberOfBytes": "32"
      },
      "t_mapping(t_address,t_bool)": {
        "encoding": "mapping",
        "key": "t_address",
        "label": "mapping(address => bool)",
        "numberOfBytes": "32",
        "value": "t_bool"
      },
      "t_mapping(t_bytes32,t_struct(RoleData)1481_storage)": {
        "encoding": "mapping",
        "key": "t_bytes32",
        "label": "mapping(bytes32 => struct AccessControlUpgradeable.RoleData)",
        "numberOfBytes": "32",
        "value": "t_struct(RoleData)1481_storage"
      },
      "t_mapping(t_string_memory_ptr,t_address)": {
        "encoding": "mapping",
        "key": "t_string_memory_ptr",
        "label": "mapping(string => address)",
        "numberOfBytes": "32",
        "value": "t_address"
      },
      "t_string_memory_ptr": {
        "encoding": "bytes",
        "label": "string",
        "numberOfBytes": "32"
      },
      "t_string_storage": {
        "encoding": "bytes",
        "label": "string",
        "numberOfBytes": "32"
      },
      "t_struct(RoleData)1481_storage": {
        "encoding": "inplace",
        "label": "struct AccessControlUpgradeable.RoleData",
        "members": [
          {
            "astId": 1478,
            "contract": "contracts/ToucanContractRegistry.sol:ToucanContractRegistry",
            "label": "members",
            "offset": 0,
            "slot": "0",
            "type": "t_mapping(t_address,t_bool)"
          },
          {
            "astId": 1480,
            "contract": "contracts/ToucanContractRegistry.sol:ToucanContractRegistry",
            "label": "adminRole",
            "offset": 0,
            "slot": "1",
            "type": "t_bytes32"
          }
        ],
        "numberOfBytes": "64"
      },
      "t_uint256": {
        "encoding": "inplace",
        "label": "uint256",
        "numberOfBytes": "32"
      },
      "t_uint8": {
        "encoding": "inplace",
        "label": "uint8",
        "numberOfBytes": "1"
      }
    }
  }
}