{
  "address": "0x8A4d7458dDe3023A3B24225D62087701A88b09DD",
  "abi": [
    {
      "anonymous": false,
      "inputs": [
        {
          "indexed": false,
          "internalType": "address",
          "name": "previousAdmin",
          "type": "address"
        },
        {
          "indexed": false,
          "internalType": "address",
          "name": "newAdmin",
          "type": "address"
        }
      ],
      "name": "AdminChanged",
      "type": "event"
    },
    {
      "anonymous": false,
      "inputs": [
        {
          "indexed": true,
          "internalType": "address",
          "name": "owner",
          "type": "address"
        },
        {
          "indexed": true,
          "internalType": "address",
          "name": "approved",
          "type": "address"
        },
        {
          "indexed": true,
          "internalType": "uint256",
          "name": "tokenId",
          "type": "uint256"
        }
      ],
      "name": "Approval",
      "type": "event"
    },
    {
      "anonymous": false,
      "inputs": [
        {
          "indexed": true,
          "internalType": "address",
          "name": "owner",
          "type": "address"
        },
        {
          "indexed": true,
          "internalType": "address",
          "name": "operator",
          "type": "address"
        },
        {
          "indexed": false,
          "internalType": "bool",
          "name": "approved",
          "type": "bool"
        }
      ],
      "name": "ApprovalForAll",
      "type": "event"
    },
    {
      "anonymous": false,
      "inputs": [
        {
          "indexed": false,
          "internalType": "uint256",
          "name": "tokenId",
          "type": "uint256"
        },
        {
          "indexed": false,
          "internalType": "uint256",
          "name": "commentId",
          "type": "uint256"
        },
        {
          "indexed": false,
          "internalType": "address",
          "name": "sender",
          "type": "address"
        },
        {
          "indexed": false,
          "internalType": "string",
          "name": "comment",
          "type": "string"
        }
      ],
      "name": "BatchComment",
      "type": "event"
    },
    {
      "anonymous": false,
      "inputs": [
        {
          "indexed": false,
          "internalType": "uint256",
          "name": "tokenId",
          "type": "uint256"
        },
        {
          "indexed": false,
          "internalType": "uint256",
          "name": "projectVintageTokenId",
          "type": "uint256"
        }
      ],
      "name": "BatchLinkedWithVintage",
      "type": "event"
    },
    {
      "anonymous": false,
      "inputs": [
        {
          "indexed": false,
          "internalType": "address",
          "name": "sender",
          "type": "address"
        },
        {
          "indexed": false,
          "internalType": "uint256",
          "name": "tokenId",
          "type": "uint256"
        }
      ],
      "name": "BatchMinted",
      "type": "event"
    },
    {
      "anonymous": false,
      "inputs": [
        {
          "indexed": false,
          "internalType": "uint256",
          "name": "tokenId",
          "type": "uint256"
        },
        {
          "indexed": false,
          "internalType": "enum RetirementStatus",
          "name": "status",
          "type": "uint8"
        }
      ],
      "name": "BatchStatusUpdate",
      "type": "event"
    },
    {
      "anonymous": false,
      "inputs": [
        {
          "indexed": false,
          "internalType": "uint256",
          "name": "tokenId",
          "type": "uint256"
        },
        {
          "indexed": false,
          "internalType": "string",
          "name": "serialNumber",
          "type": "string"
        },
        {
          "indexed": false,
          "internalType": "uint256",
          "name": "quantity",
          "type": "uint256"
        }
      ],
      "name": "BatchUpdated",
      "type": "event"
    },
    {
      "anonymous": false,
      "inputs": [
        {
          "indexed": true,
          "internalType": "address",
          "name": "beacon",
          "type": "address"
        }
      ],
      "name": "BeaconUpgraded",
      "type": "event"
    },
    {
      "anonymous": false,
      "inputs": [
        {
          "indexed": true,
          "internalType": "address",
          "name": "previousOwner",
          "type": "address"
        },
        {
          "indexed": true,
          "internalType": "address",
          "name": "newOwner",
          "type": "address"
        }
      ],
      "name": "OwnershipTransferred",
      "type": "event"
    },
    {
      "anonymous": false,
      "inputs": [
        {
          "indexed": false,
          "internalType": "address",
          "name": "account",
          "type": "address"
        }
      ],
      "name": "Paused",
      "type": "event"
    },
    {
      "anonymous": false,
      "inputs": [
        {
          "indexed": true,
          "internalType": "bytes32",
          "name": "role",
          "type": "bytes32"
        },
        {
          "indexed": true,
          "internalType": "bytes32",
          "name": "previousAdminRole",
          "type": "bytes32"
        },
        {
          "indexed": true,
          "internalType": "bytes32",
          "name": "newAdminRole",
          "type": "bytes32"
        }
      ],
      "name": "RoleAdminChanged",
      "type": "event"
    },
    {
      "anonymous": false,
      "inputs": [
        {
          "indexed": true,
          "internalType": "bytes32",
          "name": "role",
          "type": "bytes32"
        },
        {
          "indexed": true,
          "internalType": "address",
          "name": "account",
          "type": "address"
        },
        {
          "indexed": true,
          "internalType": "address",
          "name": "sender",
          "type": "address"
        }
      ],
      "name": "RoleGranted",
      "type": "event"
    },
    {
      "anonymous": false,
      "inputs": [
        {
          "indexed": true,
          "internalType": "bytes32",
          "name": "role",
          "type": "bytes32"
        },
        {
          "indexed": true,
          "internalType": "address",
          "name": "account",
          "type": "address"
        },
        {
          "indexed": true,
          "internalType": "address",
          "name": "sender",
          "type": "address"
        }
      ],
      "name": "RoleRevoked",
      "type": "event"
    },
    {
      "anonymous": false,
      "inputs": [
        {
          "indexed": true,
          "internalType": "address",
          "name": "from",
          "type": "address"
        },
        {
          "indexed": true,
          "internalType": "address",
          "name": "to",
          "type": "address"
        },
        {
          "indexed": true,
          "internalType": "uint256",
          "name": "tokenId",
          "type": "uint256"
        }
      ],
      "name": "Transfer",
      "type": "event"
    },
    {
      "anonymous": false,
      "inputs": [
        {
          "indexed": false,
          "internalType": "address",
          "name": "account",
          "type": "address"
        }
      ],
      "name": "Unpaused",
      "type": "event"
    },
    {
      "anonymous": false,
      "inputs": [
        {
          "indexed": true,
          "internalType": "address",
          "name": "implementation",
          "type": "address"
        }
      ],
      "name": "Upgraded",
      "type": "event"
    },
    {
      "inputs": [],
      "name": "DEFAULT_ADMIN_ROLE",
      "outputs": [
        {
          "internalType": "bytes32",
          "name": "",
          "type": "bytes32"
        }
      ],
      "stateMutability": "view",
      "type": "function"
    },
    {
      "inputs": [
        {
          "internalType": "string",
          "name": "",
          "type": "string"
        }
      ],
      "name": "URIs",
      "outputs": [
        {
          "internalType": "bool",
          "name": "",
          "type": "bool"
        }
      ],
      "stateMutability": "view",
      "type": "function"
    },
    {
      "inputs": [],
      "name": "VERIFIER_ROLE",
      "outputs": [
        {
          "internalType": "bytes32",
          "name": "",
          "type": "bytes32"
        }
      ],
      "stateMutability": "view",
      "type": "function"
    },
    {
      "inputs": [
        {
          "internalType": "uint256",
          "name": "tokenId",
          "type": "uint256"
        },
        {
          "internalType": "string",
          "name": "comment",
          "type": "string"
        }
      ],
      "name": "addComment",
      "outputs": [],
      "stateMutability": "nonpayable",
      "type": "function"
    },
    {
      "inputs": [
        {
          "internalType": "address",
          "name": "to",
          "type": "address"
        },
        {
          "internalType": "uint256",
          "name": "tokenId",
          "type": "uint256"
        }
      ],
      "name": "approve",
      "outputs": [],
      "stateMutability": "nonpayable",
      "type": "function"
    },
    {
      "inputs": [
        {
          "internalType": "address",
          "name": "owner",
          "type": "address"
        }
      ],
      "name": "balanceOf",
      "outputs": [
        {
          "internalType": "uint256",
          "name": "",
          "type": "uint256"
        }
      ],
      "stateMutability": "view",
      "type": "function"
    },
    {
      "inputs": [],
      "name": "baseURI",
      "outputs": [
        {
          "internalType": "string",
          "name": "",
          "type": "string"
        }
      ],
      "stateMutability": "view",
      "type": "function"
    },
    {
      "inputs": [],
      "name": "batchTokenCounter",
      "outputs": [
        {
          "internalType": "uint256",
          "name": "",
          "type": "uint256"
        }
      ],
      "stateMutability": "view",
      "type": "function"
    },
    {
      "inputs": [
        {
          "internalType": "uint256",
          "name": "tokenId",
          "type": "uint256"
        }
      ],
      "name": "confirmRetirement",
      "outputs": [],
      "stateMutability": "nonpayable",
      "type": "function"
    },
    {
      "inputs": [
        {
          "internalType": "uint256",
          "name": "tokenId",
          "type": "uint256"
        },
        {
          "internalType": "uint256",
          "name": "projectVintageTokenId",
          "type": "uint256"
        }
      ],
      "name": "confirmRetirementWithVintage",
      "outputs": [],
      "stateMutability": "nonpayable",
      "type": "function"
    },
    {
      "inputs": [],
      "name": "contractRegistry",
      "outputs": [
        {
          "internalType": "address",
          "name": "",
          "type": "address"
        }
      ],
      "stateMutability": "view",
      "type": "function"
    },
    {
      "inputs": [
        {
          "internalType": "uint256",
          "name": "tokenId",
          "type": "uint256"
        }
      ],
      "name": "fractionalize",
      "outputs": [],
      "stateMutability": "nonpayable",
      "type": "function"
    },
    {
      "inputs": [
        {
          "internalType": "uint256",
          "name": "tokenId",
          "type": "uint256"
        }
      ],
      "name": "getApproved",
      "outputs": [
        {
          "internalType": "address",
          "name": "",
          "type": "address"
        }
      ],
      "stateMutability": "view",
      "type": "function"
    },
    {
      "inputs": [
        {
          "internalType": "uint256",
          "name": "tokenId",
          "type": "uint256"
        }
      ],
      "name": "getBatchNFTData",
      "outputs": [
        {
          "internalType": "uint256",
          "name": "",
          "type": "uint256"
        },
        {
          "internalType": "uint256",
          "name": "",
          "type": "uint256"
        },
        {
          "internalType": "enum RetirementStatus",
          "name": "",
          "type": "uint8"
        }
      ],
      "stateMutability": "view",
      "type": "function"
    },
    {
      "inputs": [
        {
          "internalType": "uint256",
          "name": "tokenId",
          "type": "uint256"
        }
      ],
      "name": "getComments",
      "outputs": [
        {
          "internalType": "string[]",
          "name": "",
          "type": "string[]"
        },
        {
          "internalType": "address[]",
          "name": "",
          "type": "address[]"
        }
      ],
      "stateMutability": "view",
      "type": "function"
    },
    {
      "inputs": [
        {
          "internalType": "uint256",
          "name": "tokenId",
          "type": "uint256"
        }
      ],
      "name": "getConfirmationStatus",
      "outputs": [
        {
          "internalType": "enum RetirementStatus",
          "name": "",
          "type": "uint8"
        }
      ],
      "stateMutability": "view",
      "type": "function"
    },
    {
      "inputs": [
        {
          "internalType": "bytes32",
          "name": "role",
          "type": "bytes32"
        }
      ],
      "name": "getRoleAdmin",
      "outputs": [
        {
          "internalType": "bytes32",
          "name": "",
          "type": "bytes32"
        }
      ],
      "stateMutability": "view",
      "type": "function"
    },
    {
      "inputs": [
        {
          "internalType": "bytes32",
          "name": "role",
          "type": "bytes32"
        },
        {
          "internalType": "address",
          "name": "account",
          "type": "address"
        }
      ],
      "name": "grantRole",
      "outputs": [],
      "stateMutability": "nonpayable",
      "type": "function"
    },
    {
      "inputs": [
        {
          "internalType": "bytes32",
          "name": "role",
          "type": "bytes32"
        },
        {
          "internalType": "address",
          "name": "account",
          "type": "address"
        }
      ],
      "name": "hasRole",
      "outputs": [
        {
          "internalType": "bool",
          "name": "",
          "type": "bool"
        }
      ],
      "stateMutability": "view",
      "type": "function"
    },
    {
      "inputs": [
        {
          "internalType": "address",
          "name": "_contractRegistry",
          "type": "address"
        }
      ],
      "name": "initialize",
      "outputs": [],
      "stateMutability": "nonpayable",
      "type": "function"
    },
    {
      "inputs": [
        {
          "internalType": "address",
          "name": "owner",
          "type": "address"
        },
        {
          "internalType": "address",
          "name": "operator",
          "type": "address"
        }
      ],
      "name": "isApprovedForAll",
      "outputs": [
        {
          "internalType": "bool",
          "name": "",
          "type": "bool"
        }
      ],
      "stateMutability": "view",
      "type": "function"
    },
    {
      "inputs": [
        {
          "internalType": "uint256",
          "name": "tokenId",
          "type": "uint256"
        },
        {
          "internalType": "uint256",
          "name": "projectVintageTokenId",
          "type": "uint256"
        }
      ],
      "name": "linkWithVintage",
      "outputs": [],
      "stateMutability": "nonpayable",
      "type": "function"
    },
    {
      "inputs": [
        {
          "internalType": "address",
          "name": "to",
          "type": "address"
        }
      ],
      "name": "mintEmptyBatch",
      "outputs": [],
      "stateMutability": "nonpayable",
      "type": "function"
    },
    {
      "inputs": [],
      "name": "name",
      "outputs": [
        {
          "internalType": "string",
          "name": "",
          "type": "string"
        }
      ],
      "stateMutability": "view",
      "type": "function"
    },
    {
      "inputs": [
        {
          "internalType": "uint256",
          "name": "",
          "type": "uint256"
        }
      ],
      "name": "nftList",
      "outputs": [
        {
          "internalType": "uint256",
          "name": "projectVintageTokenId",
          "type": "uint256"
        },
        {
          "internalType": "string",
          "name": "serialNumber",
          "type": "string"
        },
        {
          "internalType": "uint256",
          "name": "quantity",
          "type": "uint256"
        },
        {
          "internalType": "enum RetirementStatus",
          "name": "status",
          "type": "uint8"
        },
        {
          "internalType": "string",
          "name": "uri",
          "type": "string"
        }
      ],
      "stateMutability": "view",
      "type": "function"
    },
    {
      "inputs": [],
      "name": "owner",
      "outputs": [
        {
          "internalType": "address",
          "name": "",
          "type": "address"
        }
      ],
      "stateMutability": "view",
      "type": "function"
    },
    {
      "inputs": [
        {
          "internalType": "uint256",
          "name": "tokenId",
          "type": "uint256"
        }
      ],
      "name": "ownerOf",
      "outputs": [
        {
          "internalType": "address",
          "name": "",
          "type": "address"
        }
      ],
      "stateMutability": "view",
      "type": "function"
    },
    {
      "inputs": [],
      "name": "pause",
      "outputs": [],
      "stateMutability": "nonpayable",
      "type": "function"
    },
    {
      "inputs": [],
      "name": "paused",
      "outputs": [
        {
          "internalType": "bool",
          "name": "",
          "type": "bool"
        }
      ],
      "stateMutability": "view",
      "type": "function"
    },
    {
      "inputs": [
        {
          "internalType": "uint256",
          "name": "tokenId",
          "type": "uint256"
        },
        {
          "internalType": "string",
          "name": "comment",
          "type": "string"
        }
      ],
      "name": "rejectApprovedWithComment",
      "outputs": [],
      "stateMutability": "nonpayable",
      "type": "function"
    },
    {
      "inputs": [
        {
          "internalType": "uint256",
          "name": "tokenId",
          "type": "uint256"
        }
      ],
      "name": "rejectRetirement",
      "outputs": [],
      "stateMutability": "nonpayable",
      "type": "function"
    },
    {
      "inputs": [
        {
          "internalType": "uint256",
          "name": "tokenId",
          "type": "uint256"
        },
        {
          "internalType": "string",
          "name": "comment",
          "type": "string"
        }
      ],
      "name": "rejectWithComment",
      "outputs": [],
      "stateMutability": "nonpayable",
      "type": "function"
    },
    {
      "inputs": [],
      "name": "renounceOwnership",
      "outputs": [],
      "stateMutability": "nonpayable",
      "type": "function"
    },
    {
      "inputs": [
        {
          "internalType": "bytes32",
          "name": "role",
          "type": "bytes32"
        },
        {
          "internalType": "address",
          "name": "account",
          "type": "address"
        }
      ],
      "name": "renounceRole",
      "outputs": [],
      "stateMutability": "nonpayable",
      "type": "function"
    },
    {
      "inputs": [
        {
          "internalType": "bytes32",
          "name": "role",
          "type": "bytes32"
        },
        {
          "internalType": "address",
          "name": "account",
          "type": "address"
        }
      ],
      "name": "revokeRole",
      "outputs": [],
      "stateMutability": "nonpayable",
      "type": "function"
    },
    {
      "inputs": [
        {
          "internalType": "address",
          "name": "from",
          "type": "address"
        },
        {
          "internalType": "address",
          "name": "to",
          "type": "address"
        },
        {
          "internalType": "uint256",
          "name": "tokenId",
          "type": "uint256"
        }
      ],
      "name": "safeTransferFrom",
      "outputs": [],
      "stateMutability": "nonpayable",
      "type": "function"
    },
    {
      "inputs": [
        {
          "internalType": "address",
          "name": "from",
          "type": "address"
        },
        {
          "internalType": "address",
          "name": "to",
          "type": "address"
        },
        {
          "internalType": "uint256",
          "name": "tokenId",
          "type": "uint256"
        },
        {
          "internalType": "bytes",
          "name": "_data",
          "type": "bytes"
        }
      ],
      "name": "safeTransferFrom",
      "outputs": [],
      "stateMutability": "nonpayable",
      "type": "function"
    },
    {
      "inputs": [
        {
          "internalType": "string",
          "name": "",
          "type": "string"
        }
      ],
      "name": "serialNumberApproved",
      "outputs": [
        {
          "internalType": "bool",
          "name": "",
          "type": "bool"
        }
      ],
      "stateMutability": "view",
      "type": "function"
    },
    {
      "inputs": [
        {
          "internalType": "address",
          "name": "operator",
          "type": "address"
        },
        {
          "internalType": "bool",
          "name": "approved",
          "type": "bool"
        }
      ],
      "name": "setApprovalForAll",
      "outputs": [],
      "stateMutability": "nonpayable",
      "type": "function"
    },
    {
      "inputs": [
        {
          "internalType": "string",
          "name": "gateway",
          "type": "string"
        }
      ],
      "name": "setBaseURI",
      "outputs": [],
      "stateMutability": "nonpayable",
      "type": "function"
    },
    {
      "inputs": [
        {
          "internalType": "uint256",
          "name": "tokenId",
          "type": "uint256"
        },
        {
          "internalType": "string",
          "name": "newSerialNumber",
          "type": "string"
        },
        {
          "internalType": "uint256",
          "name": "newQuantity",
          "type": "uint256"
        }
      ],
      "name": "setSerialandQuantity",
      "outputs": [],
      "stateMutability": "nonpayable",
      "type": "function"
    },
    {
      "inputs": [
        {
          "internalType": "uint256",
          "name": "tokenId",
          "type": "uint256"
        }
      ],
      "name": "setToPending",
      "outputs": [],
      "stateMutability": "nonpayable",
      "type": "function"
    },
    {
      "inputs": [
        {
          "internalType": "address",
          "name": "_address",
          "type": "address"
        }
      ],
      "name": "setToucanContractRegistry",
      "outputs": [],
      "stateMutability": "nonpayable",
      "type": "function"
    },
    {
      "inputs": [
        {
          "internalType": "bytes4",
          "name": "interfaceId",
          "type": "bytes4"
        }
      ],
      "name": "supportsInterface",
      "outputs": [
        {
          "internalType": "bool",
          "name": "",
          "type": "bool"
        }
      ],
      "stateMutability": "view",
      "type": "function"
    },
    {
      "inputs": [],
      "name": "symbol",
      "outputs": [
        {
          "internalType": "string",
          "name": "",
          "type": "string"
        }
      ],
      "stateMutability": "view",
      "type": "function"
    },
    {
      "inputs": [
        {
          "internalType": "uint256",
          "name": "index",
          "type": "uint256"
        }
      ],
      "name": "tokenByIndex",
      "outputs": [
        {
          "internalType": "uint256",
          "name": "",
          "type": "uint256"
        }
      ],
      "stateMutability": "view",
      "type": "function"
    },
    {
      "inputs": [
        {
          "internalType": "address",
          "name": "owner",
          "type": "address"
        },
        {
          "internalType": "uint256",
          "name": "index",
          "type": "uint256"
        }
      ],
      "name": "tokenOfOwnerByIndex",
      "outputs": [
        {
          "internalType": "uint256",
          "name": "",
          "type": "uint256"
        }
      ],
      "stateMutability": "view",
      "type": "function"
    },
    {
      "inputs": [
        {
          "internalType": "uint256",
          "name": "tokenId",
          "type": "uint256"
        }
      ],
      "name": "tokenURI",
      "outputs": [
        {
          "internalType": "string",
          "name": "",
          "type": "string"
        }
      ],
      "stateMutability": "view",
      "type": "function"
    },
    {
      "inputs": [],
      "name": "totalSupply",
      "outputs": [
        {
          "internalType": "uint256",
          "name": "",
          "type": "uint256"
        }
      ],
      "stateMutability": "view",
      "type": "function"
    },
    {
      "inputs": [
        {
          "internalType": "address",
          "name": "from",
          "type": "address"
        },
        {
          "internalType": "address",
          "name": "to",
          "type": "address"
        },
        {
          "internalType": "uint256",
          "name": "tokenId",
          "type": "uint256"
        }
      ],
      "name": "transferFrom",
      "outputs": [],
      "stateMutability": "nonpayable",
      "type": "function"
    },
    {
      "inputs": [
        {
          "internalType": "address",
          "name": "newOwner",
          "type": "address"
        }
      ],
      "name": "transferOwnership",
      "outputs": [],
      "stateMutability": "nonpayable",
      "type": "function"
    },
    {
      "inputs": [],
      "name": "unpause",
      "outputs": [],
      "stateMutability": "nonpayable",
      "type": "function"
    },
    {
      "inputs": [
        {
          "internalType": "string",
          "name": "serialNumber",
          "type": "string"
        }
      ],
      "name": "unsetSerialNumber",
      "outputs": [],
      "stateMutability": "nonpayable",
      "type": "function"
    },
    {
      "inputs": [
        {
          "internalType": "uint256",
          "name": "tokenId",
          "type": "uint256"
        },
        {
          "internalType": "string",
          "name": "serialNumber",
          "type": "string"
        },
        {
          "internalType": "uint256",
          "name": "quantity",
          "type": "uint256"
        },
        {
          "internalType": "string",
          "name": "uri",
          "type": "string"
        }
      ],
      "name": "updateBatchWithData",
      "outputs": [],
      "stateMutability": "nonpayable",
      "type": "function"
    },
    {
      "inputs": [
        {
          "internalType": "address",
          "name": "newImplementation",
          "type": "address"
        }
      ],
      "name": "upgradeTo",
      "outputs": [],
      "stateMutability": "nonpayable",
      "type": "function"
    },
    {
      "inputs": [
        {
          "internalType": "address",
          "name": "newImplementation",
          "type": "address"
        },
        {
          "internalType": "bytes",
          "name": "data",
          "type": "bytes"
        }
      ],
      "name": "upgradeToAndCall",
      "outputs": [],
      "stateMutability": "payable",
      "type": "function"
    },
    {
      "inputs": [
        {
          "internalType": "address",
          "name": "",
          "type": "address"
        }
      ],
      "name": "verifiers",
      "outputs": [
        {
          "internalType": "bool",
          "name": "",
          "type": "bool"
        }
      ],
      "stateMutability": "view",
      "type": "function"
    },
    {
      "inputs": [],
      "name": "version",
      "outputs": [
        {
          "internalType": "string",
          "name": "",
          "type": "string"
        }
      ],
      "stateMutability": "pure",
      "type": "function"
    }
  ],
  "transactionHash": "0x9163d08b8c97d66adb8fe8acd55b5d6ad4d1711aec0ea556dc2cd3ff8645afc9",
  "args": [],
  "solcInputHash": "1ef8a715a847751902138a08331d5434",
  "bytecode": "0x60a06040523060601b60805234801561001757600080fd5b5060805160601c615e436200004c60003960008181611565015281816115ea015281816119ec0152611a710152615e436000f3fe6080604052600436106103815760003560e01c80636c824487116101d1578063abf410e511610102578063d22c8ddc116100a0578063e7705db61161006f578063e7705db614610b2c578063e882e37b14610b4e578063e985e9c514610b6e578063f2fde38b14610bb757600080fd5b8063d22c8ddc14610a60578063d397e87014610a80578063d547741f14610abc578063dff35e8314610adc57600080fd5b8063b88d4fde116100dc578063b88d4fde146109e0578063c4d66de814610a00578063c8694d1214610a20578063c87b56dd14610a4057600080fd5b8063abf410e514610988578063b3057025146109a9578063b722e533146109c057600080fd5b80638da5cb5b1161016f578063a217fddf11610149578063a217fddf14610913578063a22cb46514610928578063a5c6596314610948578063aa7e56831461096857600080fd5b80638da5cb5b1461089957806391d14854146108b757806395d89b41146108fe57600080fd5b8063722e4baf116101ab578063722e4baf1461081357806375bea166146108335780638456cb59146108645780638a6166f01461087957600080fd5b80636c824487146107ad57806370a08231146107de578063715018a6146107fe57600080fd5b8063362ab1b9116102b65780634f6ccce7116102545780635c975abb116102235780635c975abb146107405780635e9fae13146107585780636352211e146107785780636c0360eb1461079857600080fd5b80634f6ccce71461069a5780634f8a317c146106ba57806354fd4d50146106da57806355f804b31461072057600080fd5b80633b2b203e116102905780633b2b203e146106325780633f4ba83a1461065257806342842e0e146106675780634f1ef2861461068757600080fd5b8063362ab1b9146105d257806336568abe146105f25780633659cfe61461061257600080fd5b80631cf52f9c11610323578063248a9ca3116102fd578063248a9ca3146105255780632f2ff15d146105565780632f745c591461057657806334844b421461059657600080fd5b80631cf52f9c146104b757806323b872dd146104d757806323edf697146104f757600080fd5b8063095ea7b31161035f578063095ea7b3146104155780630c634e67146104375780630f979c281461045757806318160ddd1461049857600080fd5b806301ffc9a71461038657806306fdde03146103bb578063081812fc146103dd575b600080fd5b34801561039257600080fd5b506103a66103a1366004615721565b610bd7565b60405190151581526020015b60405180910390f35b3480156103c757600080fd5b506103d0610c1b565b6040516103b29190615b33565b3480156103e957600080fd5b506103fd6103f83660046156e5565b610cad565b6040516001600160a01b0390911681526020016103b2565b34801561042157600080fd5b5061043561043036600461569e565b610d47565b005b34801561044357600080fd5b50610435610452366004615871565b610e5d565b34801561046357600080fd5b5061048b6104723660046156e5565b60009081526101c9602052604090206003015460ff1690565b6040516103b29190615b25565b3480156104a457600080fd5b506099545b6040519081526020016103b2565b3480156104c357600080fd5b506104356104d2366004615871565b610f79565b3480156104e357600080fd5b506104356104f2366004615579565b611180565b34801561050357600080fd5b506105176105123660046156e5565b61120c565b6040516103b2929190615a83565b34801561053157600080fd5b506104a96105403660046156e5565b600090815261012d602052604090206001015490565b34801561056257600080fd5b506104356105713660046156fd565b61135f565b34801561058257600080fd5b506104a961059136600461569e565b611386565b3480156105a257600080fd5b506103a66105b1366004615759565b80516020818301810180516101c48252928201919093012091525460ff1681565b3480156105de57600080fd5b506104356105ed366004615759565b61142e565b3480156105fe57600080fd5b5061043561060d3660046156fd565b6114d2565b34801561061e57600080fd5b5061043561062d366004615509565b61155a565b34801561063e57600080fd5b5061043561064d3660046157bb565b6116d6565b34801561065e57600080fd5b50610435611941565b34801561067357600080fd5b50610435610682366004615579565b6111f1565b610435610695366004615650565b6119e1565b3480156106a657600080fd5b506104a96106b53660046156e5565b611b4a565b3480156106c657600080fd5b506104356106d53660046156e5565b611bfc565b3480156106e657600080fd5b5060408051808201909152600581527f312e322e3000000000000000000000000000000000000000000000000000000060208201526103d0565b34801561072c57600080fd5b5061043561073b366004615759565b611d65565b34801561074c57600080fd5b5060fb5460ff166103a6565b34801561076457600080fd5b50610435610773366004615809565b611dd3565b34801561078457600080fd5b506103fd6107933660046156e5565b6121ee565b3480156107a457600080fd5b506103d0612279565b3480156107b957600080fd5b506103a66107c8366004615509565b6101c66020526000908152604090205460ff1681565b3480156107ea57600080fd5b506104a96107f9366004615509565b612308565b34801561080a57600080fd5b506104356123a2565b34801561081f57600080fd5b5061043561082e3660046156e5565b612408565b34801561083f57600080fd5b5061085361084e3660046156e5565b6125b4565b6040516103b2959493929190615b83565b34801561087057600080fd5b506104356126fc565b34801561088557600080fd5b5061043561089436600461578c565b61279c565b3480156108a557600080fd5b5060c9546001600160a01b03166103fd565b3480156108c357600080fd5b506103a66108d23660046156fd565b600091825261012d602090815260408084206001600160a01b0393909316845291905290205460ff1690565b34801561090a57600080fd5b506103d0612a00565b34801561091f57600080fd5b506104a9600081565b34801561093457600080fd5b50610435610943366004615623565b612a0f565b34801561095457600080fd5b50610435610963366004615509565b612ad4565b34801561097457600080fd5b5061043561098336600461578c565b612b98565b34801561099457600080fd5b506101c8546103fd906001600160a01b031681565b3480156109b557600080fd5b506104a96101c35481565b3480156109cc57600080fd5b506104356109db3660046156e5565b612d93565b3480156109ec57600080fd5b506104356109fb3660046155b9565b61300b565b348015610a0c57600080fd5b50610435610a1b366004615509565b613087565b348015610a2c57600080fd5b50610435610a3b36600461578c565b6131d0565b348015610a4c57600080fd5b506103d0610a5b3660046156e5565b61328d565b348015610a6c57600080fd5b50610435610a7b3660046156e5565b613417565b348015610a8c57600080fd5b506103a6610a9b366004615759565b80516020818301810180516101c58252928201919093012091525460ff1681565b348015610ac857600080fd5b50610435610ad73660046156fd565b613743565b348015610ae857600080fd5b50610b1d610af73660046156e5565b60009081526101c96020526040902080546002820154600390920154909260ff90911690565b6040516103b293929190615bfb565b348015610b3857600080fd5b506104a9600080516020615dee83398151915281565b348015610b5a57600080fd5b50610435610b69366004615509565b61376a565b348015610b7a57600080fd5b506103a6610b89366004615541565b6001600160a01b039182166000908152606a6020908152604080832093909416825291909152205460ff1690565b348015610bc357600080fd5b50610435610bd2366004615509565b6137e7565b60006001600160e01b031982167f7965db0b000000000000000000000000000000000000000000000000000000001480610c155750610c15826138c6565b92915050565b606060658054610c2a90615cbb565b80601f0160208091040260200160405190810160405280929190818152602001828054610c5690615cbb565b8015610ca35780601f10610c7857610100808354040283529160200191610ca3565b820191906000526020600020905b815481529060010190602001808311610c8657829003601f168201915b5050505050905090565b6000818152606760205260408120546001600160a01b0316610d2b5760405162461bcd60e51b815260206004820152602c60248201527f4552433732313a20617070726f76656420717565727920666f72206e6f6e657860448201526b34b9ba32b73a103a37b5b2b760a11b60648201526084015b60405180910390fd5b506000908152606960205260409020546001600160a01b031690565b6000610d52826121ee565b9050806001600160a01b0316836001600160a01b03161415610dc05760405162461bcd60e51b815260206004820152602160248201527f4552433732313a20617070726f76616c20746f2063757272656e74206f776e656044820152603960f91b6064820152608401610d22565b336001600160a01b0382161480610ddc5750610ddc8133610b89565b610e4e5760405162461bcd60e51b815260206004820152603860248201527f4552433732313a20617070726f76652063616c6c6572206973206e6f74206f7760448201527f6e6572206e6f7220617070726f76656420666f7220616c6c00000000000000006064820152608401610d22565b610e588383613961565b505050565b610e75600080516020615dee833981519152336108d2565b610ecb5760405162461bcd60e51b815260206004820152602160248201527f4572726f723a2063616c6c6572206973206e6f742074686520766572696669656044820152603960f91b6064820152608401610d22565b60fb5460ff1615610f115760405162461bcd60e51b815260206004820152601060248201526f14185d5cd8589b194e881c185d5cd95960821b6044820152606401610d22565b6101c854610f28906001600160a01b0316826139cf565b60008281526101c9602090815260409182902083905581518481529081018390527fe16bc7d72176e78ab56068f816d35b70dfcb41bb492ca0da0bcfc064b2439f6c91015b60405180910390a15050565b610f91600080516020615dee833981519152336108d2565b610fe75760405162461bcd60e51b815260206004820152602160248201527f4572726f723a2063616c6c6572206973206e6f742074686520766572696669656044820152603960f91b6064820152608401610d22565b60fb5460ff161561102d5760405162461bcd60e51b815260206004820152601060248201526f14185d5cd8589b194e881c185d5cd95960821b6044820152606401610d22565b600260008381526101c9602052604090206003015460ff16600281111561106457634e487b7160e01b600052602160045260246000fd5b14156110c05760405162461bcd60e51b815260206004820152602560248201527f4261746368207265746972656d656e7420697320616c726561647920636f6e666044820152641a5c9b595960da1b6064820152608401610d22565b60008281526101c96020526040902054156111695760405162461bcd60e51b815260206004820152604b60248201527f56696e7461676520697320616c72656164792073657420616e642063616e6e6f60448201527f74206265206368616e6765643b2075736520636f6e6669726d5265746972656d60648201527f656e7420696e7374656164000000000000000000000000000000000000000000608482015260a401610d22565b6111738282610e5d565b61117c82613417565b5050565b61118b335b82613b48565b6111f15760405162461bcd60e51b815260206004820152603160248201527f4552433732313a207472616e736665722063616c6c6572206973206e6f74206f6044820152701ddb995c881b9bdc88185c1c1c9bdd9959607a1b6064820152608401610d22565b610e588383836040518060200160405280600081525061300b565b60008181526101c96020908152604080832060058101805483518186028101860190945280845260609586959294600690940193928592919084015b828210156112f457838290600052602060002001805461126790615cbb565b80601f016020809104026020016040519081016040528092919081815260200182805461129390615cbb565b80156112e05780601f106112b5576101008083540402835291602001916112e0565b820191906000526020600020905b8154815290600101906020018083116112c357829003601f168201915b505050505081526020019060010190611248565b5050505091508080548060200260200160405190810160405280929190818152602001828054801561134f57602002820191906000526020600020905b81546001600160a01b03168152600190910190602001808311611331575b5050505050905091509150915091565b600082815261012d602052604090206001015461137c8133613c3b565b610e588383613cbc565b600061139183612308565b82106114055760405162461bcd60e51b815260206004820152602b60248201527f455243373231456e756d657261626c653a206f776e657220696e646578206f7560448201527f74206f6620626f756e64730000000000000000000000000000000000000000006064820152608401610d22565b506001600160a01b03919091166000908152609760209081526040808320938352929052205490565b611446600080516020615dee833981519152336108d2565b61149c5760405162461bcd60e51b815260206004820152602160248201527f4572726f723a2063616c6c6572206973206e6f742074686520766572696669656044820152603960f91b6064820152608401610d22565b60006101c4826040516114af91906158e0565b908152604051908190036020019020805491151560ff1990921691909117905550565b6001600160a01b03811633146115505760405162461bcd60e51b815260206004820152602f60248201527f416363657373436f6e74726f6c3a2063616e206f6e6c792072656e6f756e636560448201527f20726f6c657320666f722073656c6600000000000000000000000000000000006064820152608401610d22565b61117c8282613d60565b306001600160a01b037f00000000000000000000000000000000000000000000000000000000000000001614156115e85760405162461bcd60e51b815260206004820152602c60248201527f46756e6374696f6e206d7573742062652063616c6c6564207468726f7567682060448201526b19195b1959d85d1958d85b1b60a21b6064820152608401610d22565b7f00000000000000000000000000000000000000000000000000000000000000006001600160a01b03166116437f360894a13ba1a3210667c828492db98dca3e2076cc3735a920a3ca505d382bbc546001600160a01b031690565b6001600160a01b0316146116ae5760405162461bcd60e51b815260206004820152602c60248201527f46756e6374696f6e206d7573742062652063616c6c6564207468726f7567682060448201526b6163746976652070726f787960a01b6064820152608401610d22565b6116b781613de5565b604080516000808252602082019092526116d391839190613e3f565b50565b60fb5460ff161561171c5760405162461bcd60e51b815260206004820152601060248201526f14185d5cd8589b194e881c185d5cd95960821b6044820152606401610d22565b33611726846121ee565b6001600160a01b0316148061174e575061174e600080516020615dee833981519152336108d2565b6117aa5760405162461bcd60e51b815260206004820152602760248201527f4572726f723a20757064617465206f6e6c79206279206f776e6572206f72207660448201526632b934b334b2b960c91b6064820152608401610d22565b600260008481526101c9602052604090206003015460ff1660028111156117e157634e487b7160e01b600052602160045260246000fd5b14156118445760405162461bcd60e51b815260206004820152602c60248201527f4572726f723a2063616e6e6f74206368616e676520646174612061667465722060448201526b31b7b73334b936b0ba34b7b760a11b6064820152608401610d22565b6101c48260405161185591906158e0565b9081526040519081900360200190205460ff16156118c45760405162461bcd60e51b815260206004820152602660248201527f53657269616c6e756d6265722068617320616c7265616479206265656e2061706044820152651c1c9bdd995960d21b6064820152608401610d22565b60008381526101c96020908152604090912083516118ea926001909201918501906153e9565b5060008381526101c9602052604090819020600201829055517fd680d89587cd5af07a9a0280107488c8b2db5f86aec57b869f0933fb4a99c05b9061193490859085908590615b5a565b60405180910390a1505050565b6101c8546001600160a01b031661196060c9546001600160a01b031690565b6001600160a01b03821633148061197f57506001600160a01b03811633145b6119d95760405162461bcd60e51b815260206004820152602560248201527f43616c6c6572206973206e6f74207468652072656769737472792c206e6f722060448201526437bbb732b960d91b6064820152608401610d22565b61117c614003565b306001600160a01b037f0000000000000000000000000000000000000000000000000000000000000000161415611a6f5760405162461bcd60e51b815260206004820152602c60248201527f46756e6374696f6e206d7573742062652063616c6c6564207468726f7567682060448201526b19195b1959d85d1958d85b1b60a21b6064820152608401610d22565b7f00000000000000000000000000000000000000000000000000000000000000006001600160a01b0316611aca7f360894a13ba1a3210667c828492db98dca3e2076cc3735a920a3ca505d382bbc546001600160a01b031690565b6001600160a01b031614611b355760405162461bcd60e51b815260206004820152602c60248201527f46756e6374696f6e206d7573742062652063616c6c6564207468726f7567682060448201526b6163746976652070726f787960a01b6064820152608401610d22565b611b3e82613de5565b61117c82826001613e3f565b6000611b5560995490565b8210611bc95760405162461bcd60e51b815260206004820152602c60248201527f455243373231456e756d657261626c653a20676c6f62616c20696e646578206f60448201527f7574206f6620626f756e647300000000000000000000000000000000000000006064820152608401610d22565b60998281548110611bea57634e487b7160e01b600052603260045260246000fd5b90600052602060002001549050919050565b611c14600080516020615dee833981519152336108d2565b611c6a5760405162461bcd60e51b815260206004820152602160248201527f4572726f723a2063616c6c6572206973206e6f742074686520766572696669656044820152603960f91b6064820152608401610d22565b60fb5460ff1615611cb05760405162461bcd60e51b815260206004820152601060248201526f14185d5cd8589b194e881c185d5cd95960821b6044820152606401610d22565b600160008281526101c9602052604090206003015460ff166002811115611ce757634e487b7160e01b600052602160045260246000fd5b14611d5a5760405162461bcd60e51b815260206004820152602a60248201527f43616e206f6e6c792072657365742072656a656374656420626174636865732060448201527f746f2070656e64696e67000000000000000000000000000000000000000000006064820152608401610d22565b6116d381600061409f565b60c9546001600160a01b03163314611dbf5760405162461bcd60e51b815260206004820181905260248201527f4f776e61626c653a2063616c6c6572206973206e6f7420746865206f776e65726044820152606401610d22565b805161117c906101c79060208401906153e9565b60fb5460ff1615611e195760405162461bcd60e51b815260206004820152601060248201526f14185d5cd8589b194e881c185d5cd95960821b6044820152606401610d22565b33611e23856121ee565b6001600160a01b03161480611e4b5750611e4b600080516020615dee833981519152336108d2565b611ea75760405162461bcd60e51b815260206004820152602760248201527f4572726f723a20757064617465206f6e6c79206279206f776e6572206f72207660448201526632b934b334b2b960c91b6064820152608401610d22565b600260008581526101c9602052604090206003015460ff166002811115611ede57634e487b7160e01b600052602160045260246000fd5b1415611f415760405162461bcd60e51b815260206004820152602c60248201527f4572726f723a2063616e6e6f74206368616e676520646174612061667465722060448201526b31b7b73334b936b0ba34b7b760a11b6064820152608401610d22565b6101c483604051611f5291906158e0565b9081526040519081900360200190205460ff1615611fc15760405162461bcd60e51b815260206004820152602660248201527f53657269616c6e756d6265722068617320616c7265616479206265656e2061706044820152651c1c9bdd995960d21b6064820152608401610d22565b60008481526101c9602090815260409091208451611fe7926001909201918601906153e9565b5060008481526101c96020526040902060028101839055600401805461209591839161201290615cbb565b80601f016020809104026020016040519081016040528092919081815260200182805461203e90615cbb565b801561208b5780601f106120605761010080835404028352916020019161208b565b820191906000526020600020905b81548152906001019060200180831161206e57829003601f168201915b5050505050614112565b612165576101c5816040516120aa91906158e0565b9081526040519081900360200190205460ff161561210a5760405162461bcd60e51b815260206004820152601960248201527f4572726f723a2075726920616c726561647920657869737473000000000000006044820152606401610d22565b60008481526101c9602090815260409091208251612130926004909201918401906153e9565b5060016101c58260405161214491906158e0565b908152604051908190036020019020805491151560ff199092169190911790555b600160008581526101c9602052604090206003015460ff16600281111561219c57634e487b7160e01b600052602160045260246000fd5b14156121ad576121ad84600061409f565b7fd680d89587cd5af07a9a0280107488c8b2db5f86aec57b869f0933fb4a99c05b8484846040516121e093929190615b5a565b60405180910390a150505050565b6000818152606760205260408120546001600160a01b031680610c155760405162461bcd60e51b815260206004820152602960248201527f4552433732313a206f776e657220717565727920666f72206e6f6e657869737460448201527f656e7420746f6b656e00000000000000000000000000000000000000000000006064820152608401610d22565b6101c7805461228790615cbb565b80601f01602080910402602001604051908101604052809291908181526020018280546122b390615cbb565b80156123005780601f106122d557610100808354040283529160200191612300565b820191906000526020600020905b8154815290600101906020018083116122e357829003601f168201915b505050505081565b60006001600160a01b0382166123865760405162461bcd60e51b815260206004820152602a60248201527f4552433732313a2062616c616e636520717565727920666f7220746865207a6560448201527f726f2061646472657373000000000000000000000000000000000000000000006064820152608401610d22565b506001600160a01b031660009081526068602052604090205490565b60c9546001600160a01b031633146123fc5760405162461bcd60e51b815260206004820181905260248201527f4f776e61626c653a2063616c6c6572206973206e6f7420746865206f776e65726044820152606401610d22565b6124066000614125565b565b612420600080516020615dee833981519152336108d2565b6124765760405162461bcd60e51b815260206004820152602160248201527f4572726f723a2063616c6c6572206973206e6f742074686520766572696669656044820152603960f91b6064820152608401610d22565b60fb5460ff16156124bc5760405162461bcd60e51b815260206004820152601060248201526f14185d5cd8589b194e881c185d5cd95960821b6044820152606401610d22565b60008181526101c9602052604081206003015460ff1660028111156124f157634e487b7160e01b600052602160045260246000fd5b146125645760405162461bcd60e51b815260206004820152602d60248201527f4261746368206d75737420626520696e2070656e64696e67207374617465207460448201527f6f2062652072656a6563746564000000000000000000000000000000000000006064820152608401610d22565b60008181526101c9602052604080822090516101c4916125899160019091019061592b565b908152604051908190036020019020805491151560ff199092169190911790556116d381600161409f565b6101c960205260009081526040902080546001820180549192916125d790615cbb565b80601f016020809104026020016040519081016040528092919081815260200182805461260390615cbb565b80156126505780601f1061262557610100808354040283529160200191612650565b820191906000526020600020905b81548152906001019060200180831161263357829003601f168201915b50505050600283015460038401546004850180549495929460ff90921693509061267990615cbb565b80601f01602080910402602001604051908101604052809291908181526020018280546126a590615cbb565b80156126f25780601f106126c7576101008083540402835291602001916126f2565b820191906000526020600020905b8154815290600101906020018083116126d557829003601f168201915b5050505050905085565b6101c8546001600160a01b031661271b60c9546001600160a01b031690565b6001600160a01b03821633148061273a57506001600160a01b03811633145b6127945760405162461bcd60e51b815260206004820152602560248201527f43616c6c6572206973206e6f74207468652072656769737472792c206e6f722060448201526437bbb732b960d91b6064820152608401610d22565b61117c614177565b60c9546001600160a01b031633146127f65760405162461bcd60e51b815260206004820181905260248201527f4f776e61626c653a2063616c6c6572206973206e6f7420746865206f776e65726044820152606401610d22565b60fb5460ff161561283c5760405162461bcd60e51b815260206004820152601060248201526f14185d5cd8589b194e881c185d5cd95960821b6044820152606401610d22565b600260008381526101c9602052604090206003015460ff16600281111561287357634e487b7160e01b600052602160045260246000fd5b146128e65760405162461bcd60e51b815260206004820152602f60248201527f4261746368206d75737420626520696e20636f6e6669726d656420737461746560448201527f20746f2062652072656a656374656400000000000000000000000000000000006064820152608401610d22565b6101c8546001600160a01b031663787d8713612901846121ee565b6040516001600160e01b031960e084901b1681526001600160a01b03909116600482015260240160206040518083038186803b15801561294057600080fd5b505afa158015612954573d6000803e3d6000fd5b505050506040513d601f19601f8201168201806040525081019061297891906156c9565b156129eb5760405162461bcd60e51b815260206004820152602560248201527f42617463682068617320616c7265616479206265656e206672616374696f6e6160448201527f6c697a65640000000000000000000000000000000000000000000000000000006064820152608401610d22565b6129f682600161409f565b61117c8282612b98565b606060668054610c2a90615cbb565b6001600160a01b038216331415612a685760405162461bcd60e51b815260206004820152601960248201527f4552433732313a20617070726f766520746f2063616c6c6572000000000000006044820152606401610d22565b336000818152606a602090815260408083206001600160a01b03871680855290835292819020805460ff191686151590811790915590519081529192917f17307eab39ab6107e8899845ad3d59bd9653f200f220920489ca2b5937696c31910160405180910390a35050565b60fb5460ff1615612b1a5760405162461bcd60e51b815260206004820152601060248201526f14185d5cd8589b194e881c185d5cd95960821b6044820152606401610d22565b6101c38054906000612b2b83615cf6565b90915550506101c354612b3e82826141f2565b60008181526101c96020908152604091829020600301805460ff1916905581516001600160a01b03851681529081018390527f6174e73d7eb2fee6c482f87f81961b83cfa577f50c963bd1516f282497260fcd9101610f6d565b612bb0600080516020615dee833981519152336108d2565b80612bd45750612bbf826121ee565b6001600160a01b0316336001600160a01b0316145b80612be9575060c9546001600160a01b031633145b612c5b5760405162461bcd60e51b815260206004820152603e60248201527f4f6e6c7920746865206261746368206f776e65722c20636f6e7472616374206f60448201527f776e657220616e64207665726966696572732063616e20636f6d6d656e7400006064820152608401610d22565b6000828152606760205260409020546001600160a01b0316612ce45760405162461bcd60e51b8152602060048201526024808201527f43616e6e6f7420636f6d6d656e74206f6e206e6f6e2d6578697374656e74206260448201527f61746368000000000000000000000000000000000000000000000000000000006064820152608401610d22565b60008281526101c96020908152604082206005018054600181018255908352918190208351612d1a9391909101918401906153e9565b5060008281526101c96020908152604080832060068101805460018101825590855292842090920180546001600160a01b031916339081179091559285905260059091015490517f08740f41d4d7e855ea188e78846ad3e8665dd6d0b088f899025991c1ee8c2c4792610f6d9286929091908690615bcd565b612d9c33611185565b612e025760405162461bcd60e51b815260206004820152603160248201527f4552433732313a207472616e736665722063616c6c6572206973206e6f74206f6044820152701ddb995c881b9bdc88185c1c1c9bdd9959607a1b6064820152608401610d22565b600260008281526101c9602052604090206003015460ff166002811115612e3957634e487b7160e01b600052602160045260246000fd5b14612eac5760405162461bcd60e51b815260206004820152602f60248201527f4572726f723a2063616e6e6f74206672616374696f6e616c697a65206265666f60448201527f726520636f6e6669726d6174696f6e00000000000000000000000000000000006064820152608401610d22565b6101c854604080517f08cca7e300000000000000000000000000000000000000000000000000000000815290516000926001600160a01b0316916308cca7e3916004808301926020929190829003018186803b158015612f0b57600080fd5b505afa158015612f1f573d6000803e3d6000fd5b505050506040513d601f19601f82011682018060405250810190612f439190615525565b60008381526101c960205260408082205490517f5e813d3c00000000000000000000000000000000000000000000000000000000815260048101829052929350916001600160a01b03841690635e813d3c9060240160206040518083038186803b158015612fb057600080fd5b505afa158015612fc4573d6000803e3d6000fd5b505050506040513d601f19601f82011682018060405250810190612fe89190615525565b90506130053382866040518060200160405280600081525061300b565b50505050565b6130153383613b48565b61307b5760405162461bcd60e51b815260206004820152603160248201527f4552433732313a207472616e736665722063616c6c6572206973206e6f74206f6044820152701ddb995c881b9bdc88185c1c1c9bdd9959607a1b6064820152608401610d22565b6130058484848461420c565b600054610100900460ff16806130a0575060005460ff16155b6131035760405162461bcd60e51b815260206004820152602e60248201527f496e697469616c697a61626c653a20636f6e747261637420697320616c72656160448201526d191e481a5b9a5d1a585b1a5e995960921b6064820152608401610d22565b600054610100900460ff16158015613125576000805461ffff19166101011790555b61312d61428a565b613184604051806060016040528060268152602001615dc8602691396040518060400160405280600a81526020017f544f5543414e2d434f420000000000000000000000000000000000000000000081525061433c565b61318c614418565b6131946144bf565b6101c880546001600160a01b0319166001600160a01b0384161790556131bb60003361457b565b801561117c576000805461ff00191690555050565b6131e8600080516020615dee833981519152336108d2565b61323e5760405162461bcd60e51b815260206004820152602160248201527f4572726f723a2063616c6c6572206973206e6f742074686520766572696669656044820152603960f91b6064820152608401610d22565b60fb5460ff16156132845760405162461bcd60e51b815260206004820152601060248201526f14185d5cd8589b194e881c185d5cd95960821b6044820152606401610d22565b6129f682612408565b6000818152606760205260409020546060906001600160a01b031661331a5760405162461bcd60e51b815260206004820152603160248201527f45524337323155524953746f726167653a2055524920717565727920666f722060448201527f6e6f6e6578697374656e7420746f6b656e0000000000000000000000000000006064820152608401610d22565b60008281526101c960205260408120600401805461333790615cbb565b80601f016020809104026020016040519081016040528092919081815260200182805461336390615cbb565b80156133b05780601f10613385576101008083540402835291602001916133b0565b820191906000526020600020905b81548152906001019060200180831161339357829003601f168201915b5050505050905060006133c1614585565b90508051600014156133d4575092915050565b8151156134065780826040516020016133ee9291906158fc565b60405160208183030381529060405292505050919050565b61340f84614595565b949350505050565b61342f600080516020615dee833981519152336108d2565b6134855760405162461bcd60e51b815260206004820152602160248201527f4572726f723a2063616c6c6572206973206e6f742074686520766572696669656044820152603960f91b6064820152608401610d22565b60fb5460ff16156134cb5760405162461bcd60e51b815260206004820152601060248201526f14185d5cd8589b194e881c185d5cd95960821b6044820152606401610d22565b6000818152606760205260409020546001600160a01b03166135445760405162461bcd60e51b815260206004820152602c60248201527f4552433732313a20617070726f76656420717565727920666f72206e6f6e657860448201526b34b9ba32b73a103a37b5b2b760a11b6064820152608401610d22565b600260008281526101c9602052604090206003015460ff16600281111561357b57634e487b7160e01b600052602160045260246000fd5b14156135d75760405162461bcd60e51b815260206004820152602560248201527f4261746368207265746972656d656e7420697320616c726561647920636f6e666044820152641a5c9b595960da1b6064820152608401610d22565b60008181526101c960205260409020546136595760405162461bcd60e51b815260206004820152602b60248201527f43616e6e6f742072657469726520626174636820776974686f75742070726f6a60448201527f6563742076696e746167650000000000000000000000000000000000000000006064820152608401610d22565b6101c46101c96000838152602001908152602001600020600101604051613680919061592b565b9081526040519081900360200190205460ff16156136ef5760405162461bcd60e51b815260206004820152602660248201527f53657269616c6e756d6265722068617320616c7265616479206265656e2061706044820152651c1c9bdd995960d21b6064820152608401610d22565b60016101c46101c96000848152602001908152602001600020600101604051613718919061592b565b908152604051908190036020019020805491151560ff199092169190911790556116d381600261409f565b600082815261012d60205260409020600101546137608133613c3b565b610e588383613d60565b60c9546001600160a01b031633146137c45760405162461bcd60e51b815260206004820181905260248201527f4f776e61626c653a2063616c6c6572206973206e6f7420746865206f776e65726044820152606401610d22565b6101c880546001600160a01b0319166001600160a01b0392909216919091179055565b60c9546001600160a01b031633146138415760405162461bcd60e51b815260206004820181905260248201527f4f776e61626c653a2063616c6c6572206973206e6f7420746865206f776e65726044820152606401610d22565b6001600160a01b0381166138bd5760405162461bcd60e51b815260206004820152602660248201527f4f776e61626c653a206e6577206f776e657220697320746865207a65726f206160448201527f64647265737300000000000000000000000000000000000000000000000000006064820152608401610d22565b6116d381614125565b60006001600160e01b031982167f80ac58cd00000000000000000000000000000000000000000000000000000000148061392957506001600160e01b031982167f5b5e139f00000000000000000000000000000000000000000000000000000000145b80610c1557507f01ffc9a7000000000000000000000000000000000000000000000000000000006001600160e01b0319831614610c15565b600081815260696020526040902080546001600160a01b0319166001600160a01b0384169081179091558190613996826121ee565b6001600160a01b03167f8c5be1e5ebec7d5bd14f71427d1e84f3dd0314c0f7b2291e5b200ac8c7c3b92560405160405180910390a45050565b6000826001600160a01b031663a0af25606040518163ffffffff1660e01b815260040160206040518083038186803b158015613a0a57600080fd5b505afa158015613a1e573d6000803e3d6000fd5b505050506040513d601f19601f82011682018060405250810190613a429190615525565b6040517f4f558e79000000000000000000000000000000000000000000000000000000008152600481018490529091506001600160a01b03821690634f558e799060240160206040518083038186803b158015613a9e57600080fd5b505afa158015613ab2573d6000803e3d6000fd5b505050506040513d601f19601f82011682018060405250810190613ad691906156c9565b610e585760405162461bcd60e51b815260206004820152602960248201527f436172626f6e2070726f6a6563742076696e7461676520646f6573206e6f742060448201527f79657420657869737400000000000000000000000000000000000000000000006064820152608401610d22565b6000818152606760205260408120546001600160a01b0316613bc15760405162461bcd60e51b815260206004820152602c60248201527f4552433732313a206f70657261746f7220717565727920666f72206e6f6e657860448201526b34b9ba32b73a103a37b5b2b760a11b6064820152608401610d22565b6000613bcc836121ee565b9050806001600160a01b0316846001600160a01b03161480613c075750836001600160a01b0316613bfc84610cad565b6001600160a01b0316145b8061340f57506001600160a01b038082166000908152606a602090815260408083209388168352929052205460ff1661340f565b600082815261012d602090815260408083206001600160a01b038516845290915290205460ff1661117c57613c7a816001600160a01b0316601461467d565b613c8583602061467d565b604051602001613c969291906159c6565b60408051601f198184030181529082905262461bcd60e51b8252610d2291600401615b33565b600082815261012d602090815260408083206001600160a01b038516845290915290205460ff1661117c57600082815261012d602090815260408083206001600160a01b03851684529091529020805460ff19166001179055613d1c3390565b6001600160a01b0316816001600160a01b0316837f2f8788117e7eff1d82e926ec794901d17c78024a50270940304540a733656f0d60405160405180910390a45050565b600082815261012d602090815260408083206001600160a01b038516845290915290205460ff161561117c57600082815261012d602090815260408083206001600160a01b0385168085529252808320805460ff1916905551339285917ff6391f5c32d9c69d2a47ea670b442974b53935d1edc7fd64eb21e047a839171b9190a45050565b60c9546001600160a01b031633146116d35760405162461bcd60e51b815260206004820181905260248201527f4f776e61626c653a2063616c6c6572206973206e6f7420746865206f776e65726044820152606401610d22565b6000613e727f360894a13ba1a3210667c828492db98dca3e2076cc3735a920a3ca505d382bbc546001600160a01b031690565b9050613e7d84614888565b600083511180613e8a5750815b15613e9b57613e99848461493d565b505b7f4910fdfa16fed3260ed0e7147f7cc6da11a60208b5b9406d12a635614ffd9143805460ff16613ffc57805460ff191660011781556040516001600160a01b0383166024820152613f4890869060440160408051601f198184030181529190526020810180517bffffffffffffffffffffffffffffffffffffffffffffffffffffffff167f3659cfe60000000000000000000000000000000000000000000000000000000017905261493d565b50805460ff191681557f360894a13ba1a3210667c828492db98dca3e2076cc3735a920a3ca505d382bbc546001600160a01b03838116911614613ff35760405162461bcd60e51b815260206004820152602f60248201527f45524331393637557067726164653a207570677261646520627265616b73206660448201527f75727468657220757067726164657300000000000000000000000000000000006064820152608401610d22565b613ffc85614a3f565b5050505050565b60fb5460ff166140555760405162461bcd60e51b815260206004820152601460248201527f5061757361626c653a206e6f74207061757365640000000000000000000000006044820152606401610d22565b60fb805460ff191690557f5db9ee0a495bf2e6ff9c91a7834c1ba4fdd244a5e8aa4e537bd38aeae4b073aa335b6040516001600160a01b03909116815260200160405180910390a1565b60008281526101c960205260409020600301805482919060ff191660018360028111156140dc57634e487b7160e01b600052602160045260246000fd5b02179055507f132d48207d6b10897066f0b98b98325907e8a0d491390e141c7377772b47a9d68282604051610f6d929190615b46565b600061411e8383614a7f565b9392505050565b60c980546001600160a01b038381166001600160a01b0319831681179093556040519116919082907f8be0079c531659141344cd1fd0a4f28419497f9722a3daafe3b4186f6b6457e090600090a35050565b60fb5460ff16156141bd5760405162461bcd60e51b815260206004820152601060248201526f14185d5cd8589b194e881c185d5cd95960821b6044820152606401610d22565b60fb805460ff191660011790557f62e78cea01bee320cd4e420270b5ea74000d11b0c9f74754ebdbfc544b05a2586140823390565b61117c828260405180602001604052806000815250614aa4565b614217848484614b22565b61422384848484614cfa565b6130055760405162461bcd60e51b815260206004820152603260248201527f4552433732313a207472616e7366657220746f206e6f6e20455243373231526560448201527131b2b4bb32b91034b6b83632b6b2b73a32b960711b6064820152608401610d22565b600054610100900460ff16806142a3575060005460ff16155b6143065760405162461bcd60e51b815260206004820152602e60248201527f496e697469616c697a61626c653a20636f6e747261637420697320616c72656160448201526d191e481a5b9a5d1a585b1a5e995960921b6064820152608401610d22565b600054610100900460ff16158015614328576000805461ffff19166101011790555b80156116d3576000805461ff001916905550565b600054610100900460ff1680614355575060005460ff16155b6143b85760405162461bcd60e51b815260206004820152602e60248201527f496e697469616c697a61626c653a20636f6e747261637420697320616c72656160448201526d191e481a5b9a5d1a585b1a5e995960921b6064820152608401610d22565b600054610100900460ff161580156143da576000805461ffff19166101011790555b82516143ed9060659060208601906153e9565b5081516144019060669060208501906153e9565b508015610e58576000805461ff0019169055505050565b600054610100900460ff1680614431575060005460ff16155b6144945760405162461bcd60e51b815260206004820152602e60248201527f496e697469616c697a61626c653a20636f6e747261637420697320616c72656160448201526d191e481a5b9a5d1a585b1a5e995960921b6064820152608401610d22565b600054610100900460ff161580156144b6576000805461ffff19166101011790555b61432833614125565b600054610100900460ff16806144d8575060005460ff16155b61453b5760405162461bcd60e51b815260206004820152602e60248201527f496e697469616c697a61626c653a20636f6e747261637420697320616c72656160448201526d191e481a5b9a5d1a585b1a5e995960921b6064820152608401610d22565b600054610100900460ff1615801561455d576000805461ffff19166101011790555b60fb805460ff1916905580156116d3576000805461ff001916905550565b61117c8282613cbc565b60606101c78054610c2a90615cbb565b6000818152606760205260409020546060906001600160a01b03166146225760405162461bcd60e51b815260206004820152602f60248201527f4552433732314d657461646174613a2055524920717565727920666f72206e6f60448201527f6e6578697374656e7420746f6b656e00000000000000000000000000000000006064820152608401610d22565b600061462c614585565b9050600081511161464c576040518060200160405280600081525061411e565b8061465684614e52565b6040516020016146679291906158fc565b6040516020818303038152906040529392505050565b6060600061468c836002615c42565b614697906002615c16565b67ffffffffffffffff8111156146bd57634e487b7160e01b600052604160045260246000fd5b6040519080825280601f01601f1916602001820160405280156146e7576020820181803683370190505b509050600360fc1b8160008151811061471057634e487b7160e01b600052603260045260246000fd5b60200101906001600160f81b031916908160001a9053507f78000000000000000000000000000000000000000000000000000000000000008160018151811061476957634e487b7160e01b600052603260045260246000fd5b60200101906001600160f81b031916908160001a905350600061478d846002615c42565b614798906001615c16565b90505b6001811115614839577f303132333435363738396162636465660000000000000000000000000000000085600f16601081106147e757634e487b7160e01b600052603260045260246000fd5b1a60f81b82828151811061480b57634e487b7160e01b600052603260045260246000fd5b60200101906001600160f81b031916908160001a90535060049490941c9361483281615ca4565b905061479b565b50831561411e5760405162461bcd60e51b815260206004820181905260248201527f537472696e67733a20686578206c656e67746820696e73756666696369656e746044820152606401610d22565b803b6148fc5760405162461bcd60e51b815260206004820152602d60248201527f455243313936373a206e657720696d706c656d656e746174696f6e206973206e60448201527f6f74206120636f6e7472616374000000000000000000000000000000000000006064820152608401610d22565b7f360894a13ba1a3210667c828492db98dca3e2076cc3735a920a3ca505d382bbc80546001600160a01b0319166001600160a01b0392909216919091179055565b6060823b6149b35760405162461bcd60e51b815260206004820152602660248201527f416464726573733a2064656c65676174652063616c6c20746f206e6f6e2d636f60448201527f6e747261637400000000000000000000000000000000000000000000000000006064820152608401610d22565b600080846001600160a01b0316846040516149ce91906158e0565b600060405180830381855af49150503d8060008114614a09576040519150601f19603f3d011682016040523d82523d6000602084013e614a0e565b606091505b5091509150614a368282604051806060016040528060278152602001615da160279139614f6c565b95945050505050565b614a4881614888565b6040516001600160a01b038216907fbc7cd75a20ee27fd9adebab32041f755214dbc6bffa90cc0225b39da2e5c2d3b90600090a250565b60008151835114801561411e5750508051602091820120825192909101919091201490565b614aae8383614fa5565b614abb6000848484614cfa565b610e585760405162461bcd60e51b815260206004820152603260248201527f4552433732313a207472616e7366657220746f206e6f6e20455243373231526560448201527131b2b4bb32b91034b6b83632b6b2b73a32b960711b6064820152608401610d22565b826001600160a01b0316614b35826121ee565b6001600160a01b031614614bb15760405162461bcd60e51b815260206004820152602960248201527f4552433732313a207472616e73666572206f6620746f6b656e2074686174206960448201527f73206e6f74206f776e00000000000000000000000000000000000000000000006064820152608401610d22565b6001600160a01b038216614c2c5760405162461bcd60e51b8152602060048201526024808201527f4552433732313a207472616e7366657220746f20746865207a65726f2061646460448201527f72657373000000000000000000000000000000000000000000000000000000006064820152608401610d22565b614c378383836150f3565b614c42600082613961565b6001600160a01b0383166000908152606860205260408120805460019290614c6b908490615c61565b90915550506001600160a01b0382166000908152606860205260408120805460019290614c99908490615c16565b909155505060008181526067602052604080822080546001600160a01b0319166001600160a01b0386811691821790925591518493918716917fddf252ad1be2c89b69c2b068fc378daa952ba7f163c4a11628f55a4df523b3ef91a4505050565b60006001600160a01b0384163b15614e4757604051630a85bd0160e11b81526001600160a01b0385169063150b7a0290614d3e903390899088908890600401615a47565b602060405180830381600087803b158015614d5857600080fd5b505af1925050508015614d88575060408051601f3d908101601f19168201909252614d859181019061573d565b60015b614e2d573d808015614db6576040519150601f19603f3d011682016040523d82523d6000602084013e614dbb565b606091505b508051614e255760405162461bcd60e51b815260206004820152603260248201527f4552433732313a207472616e7366657220746f206e6f6e20455243373231526560448201527131b2b4bb32b91034b6b83632b6b2b73a32b960711b6064820152608401610d22565b805181602001fd5b6001600160e01b031916630a85bd0160e11b14905061340f565b506001949350505050565b606081614e765750506040805180820190915260018152600360fc1b602082015290565b8160005b8115614ea05780614e8a81615cf6565b9150614e999050600a83615c2e565b9150614e7a565b60008167ffffffffffffffff811115614ec957634e487b7160e01b600052604160045260246000fd5b6040519080825280601f01601f191660200182016040528015614ef3576020820181803683370190505b5090505b841561340f57614f08600183615c61565b9150614f15600a86615d11565b614f20906030615c16565b60f81b818381518110614f4357634e487b7160e01b600052603260045260246000fd5b60200101906001600160f81b031916908160001a905350614f65600a86615c2e565b9450614ef7565b60608315614f7b57508161411e565b825115614f8b5782518084602001fd5b8160405162461bcd60e51b8152600401610d229190615b33565b6001600160a01b038216614ffb5760405162461bcd60e51b815260206004820181905260248201527f4552433732313a206d696e7420746f20746865207a65726f20616464726573736044820152606401610d22565b6000818152606760205260409020546001600160a01b0316156150605760405162461bcd60e51b815260206004820152601c60248201527f4552433732313a20746f6b656e20616c7265616479206d696e746564000000006044820152606401610d22565b61506c600083836150f3565b6001600160a01b0382166000908152606860205260408120805460019290615095908490615c16565b909155505060008181526067602052604080822080546001600160a01b0319166001600160a01b03861690811790915590518392907fddf252ad1be2c89b69c2b068fc378daa952ba7f163c4a11628f55a4df523b3ef908290a45050565b6150fe838383615177565b60fb5460ff1615610e585760405162461bcd60e51b815260206004820152602a60248201527f45524332305061757361626c653a20746f6b656e207472616e7366657220776860448201527f696c6520706175736564000000000000000000000000000000000000000000006064820152608401610d22565b6001600160a01b0383166151d2576151cd81609980546000838152609a60205260408120829055600182018355919091527f72a152ddfb8e864297c917af52ea6c1c68aead0fee1a62673fcc7e0c94979d000155565b6151f5565b816001600160a01b0316836001600160a01b0316146151f5576151f5838261522f565b6001600160a01b03821661520c57610e58816152cc565b826001600160a01b0316826001600160a01b031614610e5857610e5882826153a5565b6000600161523c84612308565b6152469190615c61565b600083815260986020526040902054909150808214615299576001600160a01b03841660009081526097602090815260408083208584528252808320548484528184208190558352609890915290208190555b5060009182526098602090815260408084208490556001600160a01b039094168352609781528383209183525290812055565b6099546000906152de90600190615c61565b6000838152609a60205260408120546099805493945090928490811061531457634e487b7160e01b600052603260045260246000fd5b90600052602060002001549050806099838154811061534357634e487b7160e01b600052603260045260246000fd5b6000918252602080832090910192909255828152609a9091526040808220849055858252812055609980548061538957634e487b7160e01b600052603160045260246000fd5b6001900381819060005260206000200160009055905550505050565b60006153b083612308565b6001600160a01b039093166000908152609760209081526040808320868452825280832085905593825260989052919091209190915550565b8280546153f590615cbb565b90600052602060002090601f016020900481019282615417576000855561545d565b82601f1061543057805160ff191683800117855561545d565b8280016001018555821561545d579182015b8281111561545d578251825591602001919060010190615442565b5061546992915061546d565b5090565b5b80821115615469576000815560010161546e565b600082601f830112615492578081fd5b813567ffffffffffffffff808211156154ad576154ad615d51565b604051601f8301601f19908116603f011681019082821181831017156154d5576154d5615d51565b816040528381528660208588010111156154ed578485fd5b8360208701602083013792830160200193909352509392505050565b60006020828403121561551a578081fd5b813561411e81615d67565b600060208284031215615536578081fd5b815161411e81615d67565b60008060408385031215615553578081fd5b823561555e81615d67565b9150602083013561556e81615d67565b809150509250929050565b60008060006060848603121561558d578081fd5b833561559881615d67565b925060208401356155a881615d67565b929592945050506040919091013590565b600080600080608085870312156155ce578081fd5b84356155d981615d67565b935060208501356155e981615d67565b925060408501359150606085013567ffffffffffffffff81111561560b578182fd5b61561787828801615482565b91505092959194509250565b60008060408385031215615635578182fd5b823561564081615d67565b9150602083013561556e81615d7c565b60008060408385031215615662578182fd5b823561566d81615d67565b9150602083013567ffffffffffffffff811115615688578182fd5b61569485828601615482565b9150509250929050565b600080604083850312156156b0578182fd5b82356156bb81615d67565b946020939093013593505050565b6000602082840312156156da578081fd5b815161411e81615d7c565b6000602082840312156156f6578081fd5b5035919050565b6000806040838503121561570f578182fd5b82359150602083013561556e81615d67565b600060208284031215615732578081fd5b813561411e81615d8a565b60006020828403121561574e578081fd5b815161411e81615d8a565b60006020828403121561576a578081fd5b813567ffffffffffffffff811115615780578182fd5b61340f84828501615482565b6000806040838503121561579e578182fd5b82359150602083013567ffffffffffffffff811115615688578182fd5b6000806000606084860312156157cf578081fd5b83359250602084013567ffffffffffffffff8111156157ec578182fd5b6157f886828701615482565b925050604084013590509250925092565b6000806000806080858703121561581e578182fd5b84359350602085013567ffffffffffffffff8082111561583c578384fd5b61584888838901615482565b9450604087013593506060870135915080821115615864578283fd5b5061561787828801615482565b60008060408385031215615883578182fd5b50508035926020909101359150565b600081518084526158aa816020860160208601615c78565b601f01601f19169290920160200192915050565b600381106158dc57634e487b7160e01b600052602160045260246000fd5b9052565b600082516158f2818460208701615c78565b9190910192915050565b6000835161590e818460208801615c78565b835190830190615922818360208801615c78565b01949350505050565b600080835482600182811c91508083168061594757607f831692505b602080841082141561596757634e487b7160e01b87526022600452602487fd5b81801561597b576001811461598c576159b8565b60ff198616895284890196506159b8565b60008a815260209020885b868110156159b05781548b820152908501908301615997565b505084890196505b509498975050505050505050565b7f416363657373436f6e74726f6c3a206163636f756e74200000000000000000008152600083516159fe816017850160208801615c78565b7f206973206d697373696e6720726f6c65200000000000000000000000000000006017918401918201528351615a3b816028840160208801615c78565b01602801949350505050565b60006001600160a01b03808716835280861660208401525083604083015260806060830152615a796080830184615892565b9695505050505050565b6000604082016040835280855180835260608501915060608160051b86010192506020808801855b83811015615ad957605f19888703018552615ac7868351615892565b95509382019390820190600101615aab565b505085840381870152865180855287820194820193509150845b82811015615b185784516001600160a01b031684529381019392810192600101615af3565b5091979650505050505050565b60208101610c1582846158be565b60208152600061411e6020830184615892565b8281526040810161411e60208301846158be565b838152606060208201526000615b736060830185615892565b9050826040830152949350505050565b85815260a060208201526000615b9c60a0830187615892565b856040840152615baf60608401866158be565b8281036080840152615bc18185615892565b98975050505050505050565b8481528360208201526001600160a01b0383166040820152608060608201526000615a796080830184615892565b838152602081018390526060810161340f60408301846158be565b60008219821115615c2957615c29615d25565b500190565b600082615c3d57615c3d615d3b565b500490565b6000816000190483118215151615615c5c57615c5c615d25565b500290565b600082821015615c7357615c73615d25565b500390565b60005b83811015615c93578181015183820152602001615c7b565b838111156130055750506000910152565b600081615cb357615cb3615d25565b506000190190565b600181811c90821680615ccf57607f821691505b60208210811415615cf057634e487b7160e01b600052602260045260246000fd5b50919050565b6000600019821415615d0a57615d0a615d25565b5060010190565b600082615d2057615d20615d3b565b500690565b634e487b7160e01b600052601160045260246000fd5b634e487b7160e01b600052601260045260246000fd5b634e487b7160e01b600052604160045260246000fd5b6001600160a01b03811681146116d357600080fd5b80151581146116d357600080fd5b6001600160e01b0319811681146116d357600080fdfe416464726573733a206c6f772d6c6576656c2064656c65676174652063616c6c206661696c6564546f7563616e2050726f746f636f6c3a20436172626f6e204f666673657420426174636865730ce23c3e399818cfee81a7ab0880f714e53d7672b08df0fa62f2843416e1ea09a264697066735822122039e777aaa1b32dfea4dc83bb9fec47199c9eda5fc5a7a67de99306335f47cbaf64736f6c63430008040033",
  "devdoc": {
    "kind": "dev",
    "methods": {
      "addComment(uint256,string)": {
        "details": "Don't allow the contract owner to comment.  When the contract owner can also be a verifier they should add them as a verifier first; this should prevent accidental comments from the wrong account."
      },
      "approve(address,uint256)": {
        "details": "See {IERC721-approve}."
      },
      "balanceOf(address)": {
        "details": "See {IERC721-balanceOf}."
      },
      "confirmRetirement(uint256)": {
        "details": "This flow requires a previous linking with a `projectVintageTokenId`."
      },
      "confirmRetirementWithVintage(uint256,uint256)": {
        "details": "Function for main approval flow, which requires passing a `projectVintageTokenId`."
      },
      "fractionalize(uint256)": {
        "details": "Queries the factory to find the corresponding TCO2 contract Fractionalization happens via receive hook on `safeTransferFrom`"
      },
      "getApproved(uint256)": {
        "details": "See {IERC721-getApproved}."
      },
      "getBatchNFTData(uint256)": {
        "details": "Used in TCO2 contract's receive hook `onERC721Received`"
      },
      "getComments(uint256)": {
        "details": "This is necessary because the automatically generated nftList getter will not include an array of comments in the returned tuple for gas reasons: https://docs.soliditylang.org/en/latest/contracts.html#visibility-and-getters"
      },
      "getRoleAdmin(bytes32)": {
        "details": "Returns the admin role that controls `role`. See {grantRole} and {revokeRole}. To change a role's admin, use {_setRoleAdmin}."
      },
      "grantRole(bytes32,address)": {
        "details": "Grants `role` to `account`. If `account` had not been already granted `role`, emits a {RoleGranted} event. Requirements: - the caller must have ``role``'s admin role."
      },
      "hasRole(bytes32,address)": {
        "details": "Returns `true` if `account` has been granted `role`."
      },
      "isApprovedForAll(address,address)": {
        "details": "See {IERC721-isApprovedForAll}."
      },
      "linkWithVintage(uint256,uint256)": {
        "details": "Function for alternative flow where Batch-NFT approval is done separately."
      },
      "mintEmptyBatch(address)": {
        "details": "To be updated by NFT owner after serial number has been provided",
        "params": {
          "to": "The address the NFT should be minted to. This should be the user."
        }
      },
      "name()": {
        "details": "See {IERC721Metadata-name}."
      },
      "owner()": {
        "details": "Returns the address of the current owner."
      },
      "ownerOf(uint256)": {
        "details": "See {IERC721-ownerOf}."
      },
      "pause()": {
        "details": "wraps _pause(), only Admin"
      },
      "paused()": {
        "details": "Returns true if the contract is paused, and false otherwise."
      },
      "rejectApprovedWithComment(uint256,string)": {
        "details": "admin function to reject a previously approved batch Requires that the Batch-NFT has not been fractionalized yet"
      },
      "renounceOwnership()": {
        "details": "Leaves the contract without owner. It will not be possible to call `onlyOwner` functions anymore. Can only be called by the current owner. NOTE: Renouncing ownership will leave the contract without an owner, thereby removing any functionality that is only available to the owner."
      },
      "renounceRole(bytes32,address)": {
        "details": "Revokes `role` from the calling account. Roles are often managed via {grantRole} and {revokeRole}: this function's purpose is to provide a mechanism for accounts to lose their privileges if they are compromised (such as when a trusted device is misplaced). If the calling account had been granted `role`, emits a {RoleRevoked} event. Requirements: - the caller must be `account`."
      },
      "revokeRole(bytes32,address)": {
        "details": "Revokes `role` from `account`. If `account` had been granted `role`, emits a {RoleRevoked} event. Requirements: - the caller must have ``role``'s admin role."
      },
      "safeTransferFrom(address,address,uint256)": {
        "details": "See {IERC721-safeTransferFrom}."
      },
      "safeTransferFrom(address,address,uint256,bytes)": {
        "details": "See {IERC721-safeTransferFrom}."
      },
      "setApprovalForAll(address,bool)": {
        "details": "See {IERC721-setApprovalForAll}."
      },
      "setSerialandQuantity(uint256,string,uint256)": {
        "details": "Function to just update serial number and quantity and not the URI, does not work for rejected bat"
      },
      "symbol()": {
        "details": "See {IERC721Metadata-symbol}."
      },
      "tokenByIndex(uint256)": {
        "details": "See {IERC721Enumerable-tokenByIndex}."
      },
      "tokenOfOwnerByIndex(address,uint256)": {
        "details": "See {IERC721Enumerable-tokenOfOwnerByIndex}."
      },
      "tokenURI(uint256)": {
        "details": "Returns the Uniform Resource Identifier (URI) for `tokenId` token. based on the ERC721URIStorage implementation"
      },
      "totalSupply()": {
        "details": "See {IERC721Enumerable-totalSupply}."
      },
      "transferFrom(address,address,uint256)": {
        "details": "Overridden here because of function overloading issues with ethers.js"
      },
      "transferOwnership(address)": {
        "details": "Transfers ownership of the contract to a new account (`newOwner`). Can only be called by the current owner."
      },
      "unpause()": {
        "details": "unpause the system, wraps _unpause(), only Admin"
      },
      "unsetSerialNumber(string)": {
        "details": "Function to remove uniqueness for previously set serialnumbers. N.B. even though (technically speaking) calling this to complete the upgrade to a fixed contract is the responsibility of the contract's owner (deployer), in practice that is a multi-sig even before upgrade, and unsetting a bunch of serials via multi-sig is not practical. So instead we allow the verifiers to do it."
      },
      "updateBatchWithData(uint256,string,uint256,string)": {
        "details": "Data is usually inserted by the user (NFT owner) via the UI",
        "params": {
          "quantity": "quantity in tCO2e",
          "serialNumber": "the serial number received from the registry/credit cancellation",
          "tokenId": "the Batch-NFT",
          "uri": "optional tokenURI with additional information"
        }
      },
      "upgradeTo(address)": {
        "details": "Upgrade the implementation of the proxy to `newImplementation`. Calls {_authorizeUpgrade}. Emits an {Upgraded} event."
      },
      "upgradeToAndCall(address,bytes)": {
        "details": "Upgrade the implementation of the proxy to `newImplementation`, and subsequently execute the function call encoded in `data`. Calls {_authorizeUpgrade}. Emits an {Upgraded} event."
      },
      "version()": {
        "details": "Returns the current version of the smart contract"
      }
    },
    "version": 1
  },
  "userdoc": {
    "kind": "user",
    "methods": {
      "addComment(uint256,string)": {
        "notice": "Append a comment to a Batch-NFT"
      },
      "confirmRetirement(uint256)": {
        "notice": "Function to approve a Batch-NFT after validation. Fractionalization requires status Confirmed."
      },
      "fractionalize(uint256)": {
        "notice": "Function that automatically converts Batch-NFT to TCO2 (ERC20)"
      },
      "getBatchNFTData(uint256)": {
        "notice": "Returns all data from Batch-NFT"
      },
      "getConfirmationStatus(uint256)": {
        "notice": "Returns just the confirmation (approval) status of Batch-NFT"
      },
      "mintEmptyBatch(address)": {
        "notice": "Permissionlessly mint empty BatchNFTs Entry point to the carbon bridging process."
      },
      "pause()": {
        "notice": "Emergency function to disable contract's core functionality"
      },
      "rejectRetirement(uint256)": {
        "notice": "Function to reject Batch-NFTs, e.g. if the serial number entered is incorrect."
      },
      "rejectWithComment(uint256,string)": {
        "notice": "Function to reject Batch-NFTs, including a reason to be displayed to the user."
      },
      "setToPending(uint256)": {
        "notice": "Set batches back to pending after a rejection. This can be useful if there was an issue unrelated to the on-chain data of the batch, e.g. the batch was incorrectly rejected."
      },
      "updateBatchWithData(uint256,string,uint256,string)": {
        "notice": "Updates BatchNFT after Serialnumber has been verified"
      }
    },
    "notice": "Also referred to as Batch-Contract (formerly BatchCollection) Contract that tokenizes retired/cancelled CO2 credits into NFTs via a claims process",
    "version": 1
  },
  "storageLayout": {
    "storage": [
      {
        "astId": 946,
        "contract": "contracts/CarbonOffsetBatches.sol:CarbonOffsetBatches",
        "label": "_initialized",
        "offset": 0,
        "slot": "0",
        "type": "t_bool"
      },
      {
        "astId": 949,
        "contract": "contracts/CarbonOffsetBatches.sol:CarbonOffsetBatches",
        "label": "_initializing",
        "offset": 1,
        "slot": "0",
        "type": "t_bool"
      },
      {
        "astId": 3578,
        "contract": "contracts/CarbonOffsetBatches.sol:CarbonOffsetBatches",
        "label": "__gap",
        "offset": 0,
        "slot": "1",
        "type": "t_array(t_uint256)50_storage"
      },
      {
        "astId": 3961,
        "contract": "contracts/CarbonOffsetBatches.sol:CarbonOffsetBatches",
        "label": "__gap",
        "offset": 0,
        "slot": "51",
        "type": "t_array(t_uint256)50_storage"
      },
      {
        "astId": 1915,
        "contract": "contracts/CarbonOffsetBatches.sol:CarbonOffsetBatches",
        "label": "_name",
        "offset": 0,
        "slot": "101",
        "type": "t_string_storage"
      },
      {
        "astId": 1917,
        "contract": "contracts/CarbonOffsetBatches.sol:CarbonOffsetBatches",
        "label": "_symbol",
        "offset": 0,
        "slot": "102",
        "type": "t_string_storage"
      },
      {
        "astId": 1921,
        "contract": "contracts/CarbonOffsetBatches.sol:CarbonOffsetBatches",
        "label": "_owners",
        "offset": 0,
        "slot": "103",
        "type": "t_mapping(t_uint256,t_address)"
      },
      {
        "astId": 1925,
        "contract": "contracts/CarbonOffsetBatches.sol:CarbonOffsetBatches",
        "label": "_balances",
        "offset": 0,
        "slot": "104",
        "type": "t_mapping(t_address,t_uint256)"
      },
      {
        "astId": 1929,
        "contract": "contracts/CarbonOffsetBatches.sol:CarbonOffsetBatches",
        "label": "_tokenApprovals",
        "offset": 0,
        "slot": "105",
        "type": "t_mapping(t_uint256,t_address)"
      },
      {
        "astId": 1935,
        "contract": "contracts/CarbonOffsetBatches.sol:CarbonOffsetBatches",
        "label": "_operatorApprovals",
        "offset": 0,
        "slot": "106",
        "type": "t_mapping(t_address,t_mapping(t_address,t_bool))"
      },
      {
        "astId": 2731,
        "contract": "contracts/CarbonOffsetBatches.sol:CarbonOffsetBatches",
        "label": "__gap",
        "offset": 0,
        "slot": "107",
        "type": "t_array(t_uint256)44_storage"
      },
      {
        "astId": 2905,
        "contract": "contracts/CarbonOffsetBatches.sol:CarbonOffsetBatches",
        "label": "_ownedTokens",
        "offset": 0,
        "slot": "151",
        "type": "t_mapping(t_address,t_mapping(t_uint256,t_uint256))"
      },
      {
        "astId": 2909,
        "contract": "contracts/CarbonOffsetBatches.sol:CarbonOffsetBatches",
        "label": "_ownedTokensIndex",
        "offset": 0,
        "slot": "152",
        "type": "t_mapping(t_uint256,t_uint256)"
      },
      {
        "astId": 2912,
        "contract": "contracts/CarbonOffsetBatches.sol:CarbonOffsetBatches",
        "label": "_allTokens",
        "offset": 0,
        "slot": "153",
        "type": "t_array(t_uint256)dyn_storage"
      },
      {
        "astId": 2916,
        "contract": "contracts/CarbonOffsetBatches.sol:CarbonOffsetBatches",
        "label": "_allTokensIndex",
        "offset": 0,
        "slot": "154",
        "type": "t_mapping(t_uint256,t_uint256)"
      },
      {
        "astId": 3231,
        "contract": "contracts/CarbonOffsetBatches.sol:CarbonOffsetBatches",
        "label": "__gap",
        "offset": 0,
        "slot": "155",
        "type": "t_array(t_uint256)46_storage"
      },
      {
        "astId": 418,
        "contract": "contracts/CarbonOffsetBatches.sol:CarbonOffsetBatches",
        "label": "_owner",
        "offset": 0,
        "slot": "201",
        "type": "t_address"
      },
      {
        "astId": 531,
        "contract": "contracts/CarbonOffsetBatches.sol:CarbonOffsetBatches",
        "label": "__gap",
        "offset": 0,
        "slot": "202",
        "type": "t_array(t_uint256)49_storage"
      },
      {
        "astId": 1118,
        "contract": "contracts/CarbonOffsetBatches.sol:CarbonOffsetBatches",
        "label": "_paused",
        "offset": 0,
        "slot": "251",
        "type": "t_bool"
      },
      {
        "astId": 1209,
        "contract": "contracts/CarbonOffsetBatches.sol:CarbonOffsetBatches",
        "label": "__gap",
        "offset": 0,
        "slot": "252",
        "type": "t_array(t_uint256)49_storage"
      },
      {
        "astId": 48,
        "contract": "contracts/CarbonOffsetBatches.sol:CarbonOffsetBatches",
        "label": "_roles",
        "offset": 0,
        "slot": "301",
        "type": "t_mapping(t_bytes32,t_struct(RoleData)43_storage)"
      },
      {
        "astId": 333,
        "contract": "contracts/CarbonOffsetBatches.sol:CarbonOffsetBatches",
        "label": "__gap",
        "offset": 0,
        "slot": "302",
        "type": "t_array(t_uint256)49_storage"
      },
      {
        "astId": 929,
        "contract": "contracts/CarbonOffsetBatches.sol:CarbonOffsetBatches",
        "label": "__gap",
        "offset": 0,
        "slot": "351",
        "type": "t_array(t_uint256)50_storage"
      },
      {
        "astId": 1096,
        "contract": "contracts/CarbonOffsetBatches.sol:CarbonOffsetBatches",
        "label": "__gap",
        "offset": 0,
        "slot": "401",
        "type": "t_array(t_uint256)50_storage"
      },
      {
        "astId": 7814,
        "contract": "contracts/CarbonOffsetBatches.sol:CarbonOffsetBatches",
        "label": "batchTokenCounter",
        "offset": 0,
        "slot": "451",
        "type": "t_uint256"
      },
      {
        "astId": 7819,
        "contract": "contracts/CarbonOffsetBatches.sol:CarbonOffsetBatches",
        "label": "serialNumberApproved",
        "offset": 0,
        "slot": "452",
        "type": "t_mapping(t_string_memory_ptr,t_bool)"
      },
      {
        "astId": 7823,
        "contract": "contracts/CarbonOffsetBatches.sol:CarbonOffsetBatches",
        "label": "URIs",
        "offset": 0,
        "slot": "453",
        "type": "t_mapping(t_string_memory_ptr,t_bool)"
      },
      {
        "astId": 7827,
        "contract": "contracts/CarbonOffsetBatches.sol:CarbonOffsetBatches",
        "label": "verifiers",
        "offset": 0,
        "slot": "454",
        "type": "t_mapping(t_address,t_bool)"
      },
      {
        "astId": 7829,
        "contract": "contracts/CarbonOffsetBatches.sol:CarbonOffsetBatches",
        "label": "baseURI",
        "offset": 0,
        "slot": "455",
        "type": "t_string_storage"
      },
      {
        "astId": 7831,
        "contract": "contracts/CarbonOffsetBatches.sol:CarbonOffsetBatches",
        "label": "contractRegistry",
        "offset": 0,
        "slot": "456",
        "type": "t_address"
      },
      {
        "astId": 7854,
        "contract": "contracts/CarbonOffsetBatches.sol:CarbonOffsetBatches",
        "label": "nftList",
        "offset": 0,
        "slot": "457",
        "type": "t_mapping(t_uint256,t_struct(NFTData)7849_storage)"
      }
    ],
    "types": {
      "t_address": {
        "encoding": "inplace",
        "label": "address",
        "numberOfBytes": "20"
      },
      "t_array(t_address)dyn_storage": {
        "base": "t_address",
        "encoding": "dynamic_array",
        "label": "address[]",
        "numberOfBytes": "32"
      },
      "t_array(t_string_storage)dyn_storage": {
        "base": "t_string_storage",
        "encoding": "dynamic_array",
        "label": "string[]",
        "numberOfBytes": "32"
      },
      "t_array(t_uint256)44_storage": {
        "base": "t_uint256",
        "encoding": "inplace",
        "label": "uint256[44]",
        "numberOfBytes": "1408"
      },
      "t_array(t_uint256)46_storage": {
        "base": "t_uint256",
        "encoding": "inplace",
        "label": "uint256[46]",
        "numberOfBytes": "1472"
      },
      "t_array(t_uint256)49_storage": {
        "base": "t_uint256",
        "encoding": "inplace",
        "label": "uint256[49]",
        "numberOfBytes": "1568"
      },
      "t_array(t_uint256)50_storage": {
        "base": "t_uint256",
        "encoding": "inplace",
        "label": "uint256[50]",
        "numberOfBytes": "1600"
      },
      "t_array(t_uint256)dyn_storage": {
        "base": "t_uint256",
        "encoding": "dynamic_array",
        "label": "uint256[]",
        "numberOfBytes": "32"
      },
      "t_bool": {
        "encoding": "inplace",
        "label": "bool",
        "numberOfBytes": "1"
      },
      "t_bytes32": {
        "encoding": "inplace",
        "label": "bytes32",
        "numberOfBytes": "32"
      },
      "t_enum(RetirementStatus)7906": {
        "encoding": "inplace",
        "label": "enum RetirementStatus",
        "numberOfBytes": "1"
      },
      "t_mapping(t_address,t_bool)": {
        "encoding": "mapping",
        "key": "t_address",
        "label": "mapping(address => bool)",
        "numberOfBytes": "32",
        "value": "t_bool"
      },
      "t_mapping(t_address,t_mapping(t_address,t_bool))": {
        "encoding": "mapping",
        "key": "t_address",
        "label": "mapping(address => mapping(address => bool))",
        "numberOfBytes": "32",
        "value": "t_mapping(t_address,t_bool)"
      },
      "t_mapping(t_address,t_mapping(t_uint256,t_uint256))": {
        "encoding": "mapping",
        "key": "t_address",
        "label": "mapping(address => mapping(uint256 => uint256))",
        "numberOfBytes": "32",
        "value": "t_mapping(t_uint256,t_uint256)"
      },
      "t_mapping(t_address,t_uint256)": {
        "encoding": "mapping",
        "key": "t_address",
        "label": "mapping(address => uint256)",
        "numberOfBytes": "32",
        "value": "t_uint256"
      },
      "t_mapping(t_bytes32,t_struct(RoleData)43_storage)": {
        "encoding": "mapping",
        "key": "t_bytes32",
        "label": "mapping(bytes32 => struct AccessControlUpgradeable.RoleData)",
        "numberOfBytes": "32",
        "value": "t_struct(RoleData)43_storage"
      },
      "t_mapping(t_string_memory_ptr,t_bool)": {
        "encoding": "mapping",
        "key": "t_string_memory_ptr",
        "label": "mapping(string => bool)",
        "numberOfBytes": "32",
        "value": "t_bool"
      },
      "t_mapping(t_uint256,t_address)": {
        "encoding": "mapping",
        "key": "t_uint256",
        "label": "mapping(uint256 => address)",
        "numberOfBytes": "32",
        "value": "t_address"
      },
      "t_mapping(t_uint256,t_struct(NFTData)7849_storage)": {
        "encoding": "mapping",
        "key": "t_uint256",
        "label": "mapping(uint256 => struct CarbonOffsetBatchesStorage.NFTData)",
        "numberOfBytes": "32",
        "value": "t_struct(NFTData)7849_storage"
      },
      "t_mapping(t_uint256,t_uint256)": {
        "encoding": "mapping",
        "key": "t_uint256",
        "label": "mapping(uint256 => uint256)",
        "numberOfBytes": "32",
        "value": "t_uint256"
      },
      "t_string_memory_ptr": {
        "encoding": "bytes",
        "label": "string",
        "numberOfBytes": "32"
      },
      "t_string_storage": {
        "encoding": "bytes",
        "label": "string",
        "numberOfBytes": "32"
      },
      "t_struct(NFTData)7849_storage": {
        "encoding": "inplace",
        "label": "struct CarbonOffsetBatchesStorage.NFTData",
        "members": [
          {
            "astId": 7833,
            "contract": "contracts/CarbonOffsetBatches.sol:CarbonOffsetBatches",
            "label": "projectVintageTokenId",
            "offset": 0,
            "slot": "0",
            "type": "t_uint256"
          },
          {
            "astId": 7835,
            "contract": "contracts/CarbonOffsetBatches.sol:CarbonOffsetBatches",
            "label": "serialNumber",
            "offset": 0,
            "slot": "1",
            "type": "t_string_storage"
          },
          {
            "astId": 7837,
            "contract": "contracts/CarbonOffsetBatches.sol:CarbonOffsetBatches",
            "label": "quantity",
            "offset": 0,
            "slot": "2",
            "type": "t_uint256"
          },
          {
            "astId": 7840,
            "contract": "contracts/CarbonOffsetBatches.sol:CarbonOffsetBatches",
            "label": "status",
            "offset": 0,
            "slot": "3",
            "type": "t_enum(RetirementStatus)7906"
          },
          {
            "astId": 7842,
            "contract": "contracts/CarbonOffsetBatches.sol:CarbonOffsetBatches",
            "label": "uri",
            "offset": 0,
            "slot": "4",
            "type": "t_string_storage"
          },
          {
            "astId": 7845,
            "contract": "contracts/CarbonOffsetBatches.sol:CarbonOffsetBatches",
            "label": "comments",
            "offset": 0,
            "slot": "5",
            "type": "t_array(t_string_storage)dyn_storage"
          },
          {
            "astId": 7848,
            "contract": "contracts/CarbonOffsetBatches.sol:CarbonOffsetBatches",
            "label": "commentAuthors",
            "offset": 0,
            "slot": "6",
            "type": "t_array(t_address)dyn_storage"
          }
        ],
        "numberOfBytes": "224"
      },
      "t_struct(RoleData)43_storage": {
        "encoding": "inplace",
        "label": "struct AccessControlUpgradeable.RoleData",
        "members": [
          {
            "astId": 40,
            "contract": "contracts/CarbonOffsetBatches.sol:CarbonOffsetBatches",
            "label": "members",
            "offset": 0,
            "slot": "0",
            "type": "t_mapping(t_address,t_bool)"
          },
          {
            "astId": 42,
            "contract": "contracts/CarbonOffsetBatches.sol:CarbonOffsetBatches",
            "label": "adminRole",
            "offset": 0,
            "slot": "1",
            "type": "t_bytes32"
          }
        ],
        "numberOfBytes": "64"
      },
      "t_uint256": {
        "encoding": "inplace",
        "label": "uint256",
        "numberOfBytes": "32"
      }
    }
  }
}