{
  "address": "0xCA734327315cB3BCAB16212C2b6eD7AFc58Db579",
  "abi": [
    {
      "anonymous": false,
      "inputs": [
        {
          "indexed": true,
          "internalType": "address",
          "name": "owner",
          "type": "address"
        },
        {
          "indexed": true,
          "internalType": "address",
          "name": "spender",
          "type": "address"
        },
        {
          "indexed": false,
          "internalType": "uint256",
          "name": "value",
          "type": "uint256"
        }
      ],
      "name": "Approval",
      "type": "event"
    },
    {
      "anonymous": false,
      "inputs": [
        {
          "indexed": true,
          "internalType": "uint256",
          "name": "requestId",
          "type": "uint256"
        }
      ],
      "name": "DetokenizationFinalized",
      "type": "event"
    },
    {
      "anonymous": false,
      "inputs": [
        {
          "indexed": true,
          "internalType": "address",
          "name": "user",
          "type": "address"
        },
        {
          "indexed": false,
          "internalType": "uint256",
          "name": "amount",
          "type": "uint256"
        },
        {
          "indexed": true,
          "internalType": "uint256",
          "name": "requestId",
          "type": "uint256"
        },
        {
          "indexed": false,
          "internalType": "uint256[]",
          "name": "batchIds",
          "type": "uint256[]"
        }
      ],
      "name": "DetokenizationRequested",
      "type": "event"
    },
    {
      "anonymous": false,
      "inputs": [
        {
          "indexed": true,
          "internalType": "uint256",
          "name": "requestId",
          "type": "uint256"
        }
      ],
      "name": "DetokenizationReverted",
      "type": "event"
    },
    {
      "anonymous": false,
      "inputs": [
        {
          "indexed": false,
          "internalType": "address",
          "name": "bridger",
          "type": "address"
        },
        {
          "indexed": false,
          "internalType": "uint256",
          "name": "fees",
          "type": "uint256"
        }
      ],
      "name": "FeeBurnt",
      "type": "event"
    },
    {
      "anonymous": false,
      "inputs": [
        {
          "indexed": false,
          "internalType": "address",
          "name": "bridger",
          "type": "address"
        },
        {
          "indexed": false,
          "internalType": "uint256",
          "name": "fees",
          "type": "uint256"
        }
      ],
      "name": "FeePaid",
      "type": "event"
    },
    {
      "anonymous": false,
      "inputs": [
        {
          "indexed": false,
          "internalType": "uint8",
          "name": "version",
          "type": "uint8"
        }
      ],
      "name": "Initialized",
      "type": "event"
    },
    {
      "anonymous": false,
      "inputs": [
        {
          "indexed": false,
          "internalType": "address",
          "name": "sender",
          "type": "address"
        },
        {
          "indexed": false,
          "internalType": "uint256",
          "name": "amount",
          "type": "uint256"
        },
        {
          "indexed": false,
          "internalType": "uint256",
          "name": "eventId",
          "type": "uint256"
        }
      ],
      "name": "Retired",
      "type": "event"
    },
    {
      "anonymous": false,
      "inputs": [
        {
          "indexed": true,
          "internalType": "uint256",
          "name": "requestId",
          "type": "uint256"
        }
      ],
      "name": "RetirementFinalized",
      "type": "event"
    },
    {
      "anonymous": false,
      "inputs": [
        {
          "indexed": true,
          "internalType": "address",
          "name": "user",
          "type": "address"
        },
        {
          "indexed": true,
          "internalType": "uint256",
          "name": "requestId",
          "type": "uint256"
        },
        {
          "components": [
            {
              "internalType": "uint256[]",
              "name": "tokenIds",
              "type": "uint256[]"
            },
            {
              "internalType": "uint256",
              "name": "amount",
              "type": "uint256"
            },
            {
              "internalType": "string",
              "name": "retiringEntityString",
              "type": "string"
            },
            {
              "internalType": "address",
              "name": "beneficiary",
              "type": "address"
            },
            {
              "internalType": "string",
              "name": "beneficiaryString",
              "type": "string"
            },
            {
              "internalType": "string",
              "name": "retirementMessage",
              "type": "string"
            },
            {
              "internalType": "string",
              "name": "beneficiaryLocation",
              "type": "string"
            },
            {
              "internalType": "string",
              "name": "consumptionCountryCode",
              "type": "string"
            },
            {
              "internalType": "uint256",
              "name": "consumptionPeriodStart",
              "type": "uint256"
            },
            {
              "internalType": "uint256",
              "name": "consumptionPeriodEnd",
              "type": "uint256"
            }
          ],
          "indexed": false,
          "internalType": "struct CreateRetirementRequestParams",
          "name": "params",
          "type": "tuple"
        }
      ],
      "name": "RetirementRequested",
      "type": "event"
    },
    {
      "anonymous": false,
      "inputs": [
        {
          "indexed": true,
          "internalType": "uint256",
          "name": "requestId",
          "type": "uint256"
        }
      ],
      "name": "RetirementReverted",
      "type": "event"
    },
    {
      "anonymous": false,
      "inputs": [
        {
          "indexed": true,
          "internalType": "address",
          "name": "from",
          "type": "address"
        },
        {
          "indexed": true,
          "internalType": "address",
          "name": "to",
          "type": "address"
        },
        {
          "indexed": false,
          "internalType": "uint256",
          "name": "value",
          "type": "uint256"
        }
      ],
      "name": "Transfer",
      "type": "event"
    },
    {
      "inputs": [],
      "name": "DETOKENIZER_ROLE",
      "outputs": [
        {
          "internalType": "bytes32",
          "name": "",
          "type": "bytes32"
        }
      ],
      "stateMutability": "view",
      "type": "function"
    },
    {
      "inputs": [],
      "name": "RETIREMENT_ROLE",
      "outputs": [
        {
          "internalType": "bytes32",
          "name": "",
          "type": "bytes32"
        }
      ],
      "stateMutability": "view",
      "type": "function"
    },
    {
      "inputs": [],
      "name": "TOKENIZER_ROLE",
      "outputs": [
        {
          "internalType": "bytes32",
          "name": "",
          "type": "bytes32"
        }
      ],
      "stateMutability": "view",
      "type": "function"
    },
    {
      "inputs": [],
      "name": "VERSION",
      "outputs": [
        {
          "internalType": "string",
          "name": "",
          "type": "string"
        }
      ],
      "stateMutability": "view",
      "type": "function"
    },
    {
      "inputs": [],
      "name": "VERSION_RELEASE_CANDIDATE",
      "outputs": [
        {
          "internalType": "uint256",
          "name": "",
          "type": "uint256"
        }
      ],
      "stateMutability": "view",
      "type": "function"
    },
    {
      "inputs": [
        {
          "internalType": "address",
          "name": "owner",
          "type": "address"
        },
        {
          "internalType": "address",
          "name": "spender",
          "type": "address"
        }
      ],
      "name": "allowance",
      "outputs": [
        {
          "internalType": "uint256",
          "name": "",
          "type": "uint256"
        }
      ],
      "stateMutability": "view",
      "type": "function"
    },
    {
      "inputs": [
        {
          "internalType": "address",
          "name": "spender",
          "type": "address"
        },
        {
          "internalType": "uint256",
          "name": "amount",
          "type": "uint256"
        }
      ],
      "name": "approve",
      "outputs": [
        {
          "internalType": "bool",
          "name": "",
          "type": "bool"
        }
      ],
      "stateMutability": "nonpayable",
      "type": "function"
    },
    {
      "inputs": [
        {
          "internalType": "address",
          "name": "account",
          "type": "address"
        }
      ],
      "name": "balanceOf",
      "outputs": [
        {
          "internalType": "uint256",
          "name": "",
          "type": "uint256"
        }
      ],
      "stateMutability": "view",
      "type": "function"
    },
    {
      "inputs": [
        {
          "internalType": "address",
          "name": "account",
          "type": "address"
        },
        {
          "internalType": "uint256",
          "name": "amount",
          "type": "uint256"
        }
      ],
      "name": "bridgeBurn",
      "outputs": [],
      "stateMutability": "nonpayable",
      "type": "function"
    },
    {
      "inputs": [
        {
          "internalType": "address",
          "name": "account",
          "type": "address"
        },
        {
          "internalType": "uint256",
          "name": "amount",
          "type": "uint256"
        }
      ],
      "name": "bridgeMint",
      "outputs": [],
      "stateMutability": "nonpayable",
      "type": "function"
    },
    {
      "inputs": [
        {
          "internalType": "address",
          "name": "account",
          "type": "address"
        },
        {
          "internalType": "uint256",
          "name": "amount",
          "type": "uint256"
        }
      ],
      "name": "burnFrom",
      "outputs": [],
      "stateMutability": "nonpayable",
      "type": "function"
    },
    {
      "inputs": [],
      "name": "contractRegistry",
      "outputs": [
        {
          "internalType": "address",
          "name": "",
          "type": "address"
        }
      ],
      "stateMutability": "view",
      "type": "function"
    },
    {
      "inputs": [],
      "name": "decimals",
      "outputs": [
        {
          "internalType": "uint8",
          "name": "",
          "type": "uint8"
        }
      ],
      "stateMutability": "view",
      "type": "function"
    },
    {
      "inputs": [
        {
          "internalType": "address",
          "name": "spender",
          "type": "address"
        },
        {
          "internalType": "uint256",
          "name": "subtractedValue",
          "type": "uint256"
        }
      ],
      "name": "decreaseAllowance",
      "outputs": [
        {
          "internalType": "bool",
          "name": "",
          "type": "bool"
        }
      ],
      "stateMutability": "nonpayable",
      "type": "function"
    },
    {
      "inputs": [
        {
          "internalType": "uint256",
          "name": "tokenId",
          "type": "uint256"
        }
      ],
      "name": "defractionalize",
      "outputs": [],
      "stateMutability": "nonpayable",
      "type": "function"
    },
    {
      "inputs": [
        {
          "internalType": "uint256",
          "name": "requestId",
          "type": "uint256"
        }
      ],
      "name": "finalizeDetokenization",
      "outputs": [],
      "stateMutability": "nonpayable",
      "type": "function"
    },
    {
      "inputs": [
        {
          "internalType": "uint256",
          "name": "requestId",
          "type": "uint256"
        }
      ],
      "name": "finalizeRetirement",
      "outputs": [],
      "stateMutability": "nonpayable",
      "type": "function"
    },
    {
      "inputs": [],
      "name": "getAttributes",
      "outputs": [
        {
          "components": [
            {
              "internalType": "string",
              "name": "projectId",
              "type": "string"
            },
            {
              "internalType": "string",
              "name": "standard",
              "type": "string"
            },
            {
              "internalType": "string",
              "name": "methodology",
              "type": "string"
            },
            {
              "internalType": "string",
              "name": "region",
              "type": "string"
            },
            {
              "internalType": "string",
              "name": "storageMethod",
              "type": "string"
            },
            {
              "internalType": "string",
              "name": "method",
              "type": "string"
            },
            {
              "internalType": "string",
              "name": "emissionType",
              "type": "string"
            },
            {
              "internalType": "string",
              "name": "category",
              "type": "string"
            },
            {
              "internalType": "string",
              "name": "uri",
              "type": "string"
            },
            {
              "internalType": "address",
              "name": "beneficiary",
              "type": "address"
            }
          ],
          "internalType": "struct ProjectData",
          "name": "",
          "type": "tuple"
        },
        {
          "components": [
            {
              "internalType": "string",
              "name": "name",
              "type": "string"
            },
            {
              "internalType": "uint64",
              "name": "startTime",
              "type": "uint64"
            },
            {
              "internalType": "uint64",
              "name": "endTime",
              "type": "uint64"
            },
            {
              "internalType": "uint256",
              "name": "projectTokenId",
              "type": "uint256"
            },
            {
              "internalType": "uint64",
              "name": "totalVintageQuantity",
              "type": "uint64"
            },
            {
              "internalType": "bool",
              "name": "isCorsiaCompliant",
              "type": "bool"
            },
            {
              "internalType": "bool",
              "name": "isCCPcompliant",
              "type": "bool"
            },
            {
              "internalType": "string",
              "name": "coBenefits",
              "type": "string"
            },
            {
              "internalType": "string",
              "name": "correspAdjustment",
              "type": "string"
            },
            {
              "internalType": "string",
              "name": "additionalCertification",
              "type": "string"
            },
            {
              "internalType": "string",
              "name": "uri",
              "type": "string"
            },
            {
              "internalType": "string",
              "name": "registry",
              "type": "string"
            }
          ],
          "internalType": "struct VintageData",
          "name": "",
          "type": "tuple"
        }
      ],
      "stateMutability": "view",
      "type": "function"
    },
    {
      "inputs": [],
      "name": "getDepositCap",
      "outputs": [
        {
          "internalType": "uint256",
          "name": "",
          "type": "uint256"
        }
      ],
      "stateMutability": "view",
      "type": "function"
    },
    {
      "inputs": [],
      "name": "getGlobalProjectVintageIdentifiers",
      "outputs": [
        {
          "internalType": "string",
          "name": "",
          "type": "string"
        },
        {
          "internalType": "string",
          "name": "",
          "type": "string"
        }
      ],
      "stateMutability": "view",
      "type": "function"
    },
    {
      "inputs": [],
      "name": "getRemaining",
      "outputs": [
        {
          "internalType": "uint256",
          "name": "remaining",
          "type": "uint256"
        }
      ],
      "stateMutability": "view",
      "type": "function"
    },
    {
      "inputs": [],
      "name": "getVintageData",
      "outputs": [
        {
          "components": [
            {
              "internalType": "string",
              "name": "name",
              "type": "string"
            },
            {
              "internalType": "uint64",
              "name": "startTime",
              "type": "uint64"
            },
            {
              "internalType": "uint64",
              "name": "endTime",
              "type": "uint64"
            },
            {
              "internalType": "uint256",
              "name": "projectTokenId",
              "type": "uint256"
            },
            {
              "internalType": "uint64",
              "name": "totalVintageQuantity",
              "type": "uint64"
            },
            {
              "internalType": "bool",
              "name": "isCorsiaCompliant",
              "type": "bool"
            },
            {
              "internalType": "bool",
              "name": "isCCPcompliant",
              "type": "bool"
            },
            {
              "internalType": "string",
              "name": "coBenefits",
              "type": "string"
            },
            {
              "internalType": "string",
              "name": "correspAdjustment",
              "type": "string"
            },
            {
              "internalType": "string",
              "name": "additionalCertification",
              "type": "string"
            },
            {
              "internalType": "string",
              "name": "uri",
              "type": "string"
            },
            {
              "internalType": "string",
              "name": "registry",
              "type": "string"
            }
          ],
          "internalType": "struct VintageData",
          "name": "vintageData",
          "type": "tuple"
        }
      ],
      "stateMutability": "view",
      "type": "function"
    },
    {
      "inputs": [
        {
          "internalType": "address",
          "name": "spender",
          "type": "address"
        },
        {
          "internalType": "uint256",
          "name": "addedValue",
          "type": "uint256"
        }
      ],
      "name": "increaseAllowance",
      "outputs": [
        {
          "internalType": "bool",
          "name": "",
          "type": "bool"
        }
      ],
      "stateMutability": "nonpayable",
      "type": "function"
    },
    {
      "inputs": [
        {
          "internalType": "string",
          "name": "name_",
          "type": "string"
        },
        {
          "internalType": "string",
          "name": "symbol_",
          "type": "string"
        },
        {
          "internalType": "uint256",
          "name": "projectVintageTokenId_",
          "type": "uint256"
        },
        {
          "internalType": "address",
          "name": "contractRegistry_",
          "type": "address"
        }
      ],
      "name": "initialize",
      "outputs": [],
      "stateMutability": "nonpayable",
      "type": "function"
    },
    {
      "inputs": [
        {
          "internalType": "address",
          "name": "",
          "type": "address"
        }
      ],
      "name": "minterToId",
      "outputs": [
        {
          "internalType": "uint256",
          "name": "",
          "type": "uint256"
        }
      ],
      "stateMutability": "view",
      "type": "function"
    },
    {
      "inputs": [],
      "name": "name",
      "outputs": [
        {
          "internalType": "string",
          "name": "",
          "type": "string"
        }
      ],
      "stateMutability": "view",
      "type": "function"
    },
    {
      "inputs": [
        {
          "internalType": "address",
          "name": "",
          "type": "address"
        },
        {
          "internalType": "address",
          "name": "from",
          "type": "address"
        },
        {
          "internalType": "uint256",
          "name": "tokenId",
          "type": "uint256"
        },
        {
          "internalType": "bytes",
          "name": "",
          "type": "bytes"
        }
      ],
      "name": "onERC721Received",
      "outputs": [
        {
          "internalType": "bytes4",
          "name": "",
          "type": "bytes4"
        }
      ],
      "stateMutability": "nonpayable",
      "type": "function"
    },
    {
      "inputs": [],
      "name": "projectVintageTokenId",
      "outputs": [
        {
          "internalType": "uint256",
          "name": "",
          "type": "uint256"
        }
      ],
      "stateMutability": "view",
      "type": "function"
    },
    {
      "inputs": [
        {
          "internalType": "uint256[]",
          "name": "tokenIds",
          "type": "uint256[]"
        },
        {
          "internalType": "uint256",
          "name": "amount",
          "type": "uint256"
        }
      ],
      "name": "requestDetokenization",
      "outputs": [
        {
          "internalType": "uint256",
          "name": "requestId",
          "type": "uint256"
        }
      ],
      "stateMutability": "nonpayable",
      "type": "function"
    },
    {
      "inputs": [
        {
          "components": [
            {
              "internalType": "uint256[]",
              "name": "tokenIds",
              "type": "uint256[]"
            },
            {
              "internalType": "uint256",
              "name": "amount",
              "type": "uint256"
            },
            {
              "internalType": "string",
              "name": "retiringEntityString",
              "type": "string"
            },
            {
              "internalType": "address",
              "name": "beneficiary",
              "type": "address"
            },
            {
              "internalType": "string",
              "name": "beneficiaryString",
              "type": "string"
            },
            {
              "internalType": "string",
              "name": "retirementMessage",
              "type": "string"
            },
            {
              "internalType": "string",
              "name": "beneficiaryLocation",
              "type": "string"
            },
            {
              "internalType": "string",
              "name": "consumptionCountryCode",
              "type": "string"
            },
            {
              "internalType": "uint256",
              "name": "consumptionPeriodStart",
              "type": "uint256"
            },
            {
              "internalType": "uint256",
              "name": "consumptionPeriodEnd",
              "type": "uint256"
            }
          ],
          "internalType": "struct CreateRetirementRequestParams",
          "name": "params",
          "type": "tuple"
        }
      ],
      "name": "requestRetirement",
      "outputs": [
        {
          "internalType": "uint256",
          "name": "requestId",
          "type": "uint256"
        }
      ],
      "stateMutability": "nonpayable",
      "type": "function"
    },
    {
      "inputs": [
        {
          "internalType": "address",
          "name": "retiringEntity",
          "type": "address"
        },
        {
          "components": [
            {
              "internalType": "uint256[]",
              "name": "tokenIds",
              "type": "uint256[]"
            },
            {
              "internalType": "uint256",
              "name": "amount",
              "type": "uint256"
            },
            {
              "internalType": "string",
              "name": "retiringEntityString",
              "type": "string"
            },
            {
              "internalType": "address",
              "name": "beneficiary",
              "type": "address"
            },
            {
              "internalType": "string",
              "name": "beneficiaryString",
              "type": "string"
            },
            {
              "internalType": "string",
              "name": "retirementMessage",
              "type": "string"
            },
            {
              "internalType": "string",
              "name": "beneficiaryLocation",
              "type": "string"
            },
            {
              "internalType": "string",
              "name": "consumptionCountryCode",
              "type": "string"
            },
            {
              "internalType": "uint256",
              "name": "consumptionPeriodStart",
              "type": "uint256"
            },
            {
              "internalType": "uint256",
              "name": "consumptionPeriodEnd",
              "type": "uint256"
            }
          ],
          "internalType": "struct CreateRetirementRequestParams",
          "name": "params",
          "type": "tuple"
        }
      ],
      "name": "retireAndMintCertificateForEntity",
      "outputs": [],
      "stateMutability": "nonpayable",
      "type": "function"
    },
    {
      "inputs": [
        {
          "internalType": "uint256",
          "name": "requestId",
          "type": "uint256"
        }
      ],
      "name": "revertDetokenization",
      "outputs": [],
      "stateMutability": "nonpayable",
      "type": "function"
    },
    {
      "inputs": [
        {
          "internalType": "uint256",
          "name": "requestId",
          "type": "uint256"
        }
      ],
      "name": "revertRetirement",
      "outputs": [],
      "stateMutability": "nonpayable",
      "type": "function"
    },
    {
      "inputs": [],
      "name": "standardRegistry",
      "outputs": [
        {
          "internalType": "string",
          "name": "",
          "type": "string"
        }
      ],
      "stateMutability": "pure",
      "type": "function"
    },
    {
      "inputs": [],
      "name": "standardRegistryDecimals",
      "outputs": [
        {
          "internalType": "uint8",
          "name": "",
          "type": "uint8"
        }
      ],
      "stateMutability": "pure",
      "type": "function"
    },
    {
      "inputs": [],
      "name": "symbol",
      "outputs": [
        {
          "internalType": "string",
          "name": "",
          "type": "string"
        }
      ],
      "stateMutability": "view",
      "type": "function"
    },
    {
      "inputs": [],
      "name": "totalSupply",
      "outputs": [
        {
          "internalType": "uint256",
          "name": "",
          "type": "uint256"
        }
      ],
      "stateMutability": "view",
      "type": "function"
    },
    {
      "inputs": [
        {
          "internalType": "address",
          "name": "recipient",
          "type": "address"
        },
        {
          "internalType": "uint256",
          "name": "amount",
          "type": "uint256"
        }
      ],
      "name": "transfer",
      "outputs": [
        {
          "internalType": "bool",
          "name": "",
          "type": "bool"
        }
      ],
      "stateMutability": "nonpayable",
      "type": "function"
    },
    {
      "inputs": [
        {
          "internalType": "address",
          "name": "sender",
          "type": "address"
        },
        {
          "internalType": "address",
          "name": "recipient",
          "type": "address"
        },
        {
          "internalType": "uint256",
          "name": "amount",
          "type": "uint256"
        }
      ],
      "name": "transferFrom",
      "outputs": [
        {
          "internalType": "bool",
          "name": "",
          "type": "bool"
        }
      ],
      "stateMutability": "nonpayable",
      "type": "function"
    }
  ],
  "numDeployments": 3,
  "solcInputHash": "db59f6786687067a0d1a67c2b75792f5",
  "bytecode": "0x60806040523480156200001157600080fd5b506200001c62000022565b62000152565b6200002e60ff62000031565b50565b60008054610100900460ff1615620000ca578160ff1660011480156200006a575062000068306200014360201b62002f851760201c565b155b620000c25760405162461bcd60e51b815260206004820152602e6024820152600080516020620052a883398151915260448201526d191e481a5b9a5d1a585b1a5e995960921b60648201526084015b60405180910390fd5b506000919050565b60005460ff808416911610620001295760405162461bcd60e51b815260206004820152602e6024820152600080516020620052a883398151915260448201526d191e481a5b9a5d1a585b1a5e995960921b6064820152608401620000b9565b506000805460ff191660ff92909216919091179055600190565b6001600160a01b03163b151590565b61514680620001626000396000f3fe608060405234801561001057600080fd5b506004361061023d5760003560e01c806374f4f5471161013b578063abf410e5116100b8578063e819426c1161007c578063e819426c14610521578063e9d5c8d514610529578063eca45d8214610549578063ed3468791461055c578063ffa1ad741461056f57600080fd5b8063abf410e5146104b5578063bd3a13f6146104e0578063c860c58c146104f3578063d6a022b814610506578063dd62ed3e1461050e57600080fd5b80638c2a993e116100ff5780638c2a993e1461046157806395d89b411461047457806396746d431461047c578063a457c2d71461048f578063a9059cbb146104a257600080fd5b806374f4f547146103ee5780637903c7d01461040157806379cc67901461041457806383f2fc3e1461042757806384d8b61a1461044e57600080fd5b80633633f35f116101c957806365ec18091161018d57806365ec1809146103195780636746e7be146103955780636ca0b0d7146103aa5780636d059f5a146103b257806370a08231146103c557600080fd5b80633633f35f14610328578063395093511461033d5780633c31175e146103505780635c6f3a901461035857806364c5a4031461037f57600080fd5b8063150b7a0211610210578063150b7a02146102bc578063152583de146102e857806318160ddd146102fe57806323b872dd14610306578063313ce5671461031957600080fd5b806301a598da146102425780630605a3341461025d57806306fdde0314610284578063095ea7b314610299575b600080fd5b61024a610593565b6040519081526020015b60405180910390f35b61024a7fe70d28ebd9d7d9a3dd77d46ae2481f301c80806f395b08de31d8e095b1c46cee81565b61028c6105ec565b6040516102549190613d09565b6102ac6102a7366004613d3f565b610627565b6040519015158152602001610254565b6102cf6102ca366004613d6b565b610641565b6040516001600160e01b03199091168152602001610254565b6102f0610c14565b604051610254929190613f35565b60355461024a565b6102ac61031436600461407d565b610e0d565b60405160128152602001610254565b610330610f50565b60405161025491906140be565b6102ac61034b366004613d3f565b611045565b61028c611067565b61024a7ffb7778e60e898528875e31f94e3a623d6302be2aa540c7a7f5ae26fe5ee2498d81565b610387611085565b6040516102549291906140d1565b6103a86103a336600461410f565b6110af565b005b61024a600181565b6103a86103c036600461415e565b61117e565b61024a6103d3366004614177565b6001600160a01b031660009081526033602052604090205490565b6103a86103fc366004613d3f565b61149f565b6103a861040f36600461415e565b6116d4565b6103a8610422366004613d3f565b611a4d565b61024a7ff70ccd5004a2a6f964f044c0095454c529799f8602238d52b5a197af351dd41981565b61024a61045c366004614194565b611b67565b6103a861046f366004613d3f565b611e44565b61028c612071565b6103a861048a36600461415e565b612096565b6102ac61049d366004613d3f565b6123b7565b6102ac6104b0366004613d3f565b61243d565b6066546104c8906001600160a01b031681565b6040516001600160a01b039091168152602001610254565b6103a86104ee3660046142df565b61257e565b6103a861050136600461415e565b612619565b61024a61293a565b61024a61051c36600461435e565b61295a565b60655461024a565b61024a610537366004614177565b60676020526000908152604090205481565b61024a610557366004614397565b612985565b6103a861056a36600461415e565b612c64565b61028c604051806040016040528060058152602001640312e332e360dc1b81525081565b600061059d613b3c565b6105a5610c14565b6080810151909250905060006105bd6012600a61450b565b6105d0906001600160401b03841661451a565b9050806000036105e557600019935050505090565b9392505050565b60608060606105f9611085565b60405191935091506106119083908390602001614539565b6040516020818303038152906040529250505090565b600033610635818585612f94565b60019150505b92915050565b60665460009081906001600160a01b03166391148b2761065f611067565b6040518263ffffffff1660e01b815260040161067b9190613d09565b602060405180830381865afa158015610698573d6000803e3d6000fd5b505050506040513d601f19601f820116820180604052508101906106bc91906145a2565b90506000816001600160a01b0316635c975abb6040518163ffffffff1660e01b8152600401602060405180830381865afa1580156106fe573d6000803e3d6000fd5b505050506040513d601f19601f8201168201806040525081019061072291906145cf565b9050801561074b5760405162461bcd60e51b8152600401610742906145ea565b60405180910390fd5b610754336130b9565b60405180604001604052806002815260200161068760f31b8152509061078d5760405162461bcd60e51b81526004016107429190613d09565b50600080600061079d338a613154565b925092509250606554831460405180604001604052806002815260200161343960f01b815250906107e15760405162461bcd60e51b81526004016107429190613d09565b5060038160068111156107f6576107f661460f565b1480610813575060058160068111156108115761081161460f565b145b1561082b5750630a85bd0160e11b9450610c09915050565b600281600681111561083f5761083f61460f565b1460405180604001604052806002815260200161343760f01b815250906108795760405162461bcd60e51b81526004016107429190613d09565b508161088361293a565b101560405180604001604052806002815260200161035360f41b815250906108be5760405162461bcd60e51b81526004016107429190613d09565b506001600160a01b03808b1660009081526067602052604081208b90556066549091166391148b276108ee611067565b6040518263ffffffff1660e01b815260040161090a9190613d09565b602060405180830381865afa158015610927573d6000803e3d6000fd5b505050506040513d601f19601f8201168201806040525081019061094b91906145a2565b90506000816001600160a01b03166380e2d3f06040518163ffffffff1660e01b8152600401602060405180830381865afa15801561098d573d6000803e3d6000fd5b505050506040513d601f19601f820116820180604052508101906109b191906145a2565b90506001600160a01b0381166109d0576109cb8c856131ec565b610bf9565b6040516379bcd2d160e11b81526004810185905260009081906001600160a01b0385169063f379a5a2906024016040805180830381865afa158015610a19573d6000803e3d6000fd5b505050506040513d601f19601f82011682018060405250810190610a3d9190614625565b9092509050610a558e610a508489614649565b6131ec565b6000846001600160a01b031663581cd1106040518163ffffffff1660e01b8152600401602060405180830381865afa158015610a95573d6000803e3d6000fd5b505050506040513d601f19601f82011682018060405250810190610ab991906145a2565b90506001600160a01b03811615801590610ad35750600082115b15610b9757610ae28284614649565b9250610aee84846131ec565b610af881836131ec565b7f075a2720282fdf622141dae0b048ef90a21a7e57c134c76912d19d006b3b3f6f8f84604051610b3d9291906001600160a01b03929092168252602082015260400190565b60405180910390a17fa2f0f5180dc62f2d34c8207f1d18178d31bd0de616f83636434ddf48de0ae6fa8f83604051610b8a9291906001600160a01b03929092168252602082015260400190565b60405180910390a1610bf5565b8215610bf557610ba784846131ec565b7f075a2720282fdf622141dae0b048ef90a21a7e57c134c76912d19d006b3b3f6f8f84604051610bec9291906001600160a01b03929092168252602082015260400190565b60405180910390a15b5050505b50630a85bd0160e11b9650505050505b505095945050505050565b610c1c613bbc565b610c24613b3c565b606654604080516301157a8360e01b815290516000926001600160a01b0316916301157a839160048083019260209291908290030181865afa158015610c6e573d6000803e3d6000fd5b505050506040513d601f19601f82011682018060405250810190610c9291906145a2565b90506000606660009054906101000a90046001600160a01b03166001600160a01b031663a0af25606040518163ffffffff1660e01b8152600401602060405180830381865afa158015610ce9573d6000803e3d6000fd5b505050506040513d601f19601f82011682018060405250810190610d0d91906145a2565b90506000816001600160a01b03166315bbf0746065546040518263ffffffff1660e01b8152600401610d4191815260200190565b600060405180830381865afa158015610d5e573d6000803e3d6000fd5b505050506040513d6000823e601f3d908101601f19168201604052610d8691908101906146bc565b90506000836001600160a01b03166347e3168683606001516040518263ffffffff1660e01b8152600401610dbc91815260200190565b600060405180830381865afa158015610dd9573d6000803e3d6000fd5b505050506040513d6000823e601f3d908101601f19168201604052610e019190810190614846565b96919550909350505050565b6000826001600160a01b038116610e2357600080fd5b306001600160a01b03821603610e3857600080fd5b6066546000906001600160a01b03166391148b27610e54611067565b6040518263ffffffff1660e01b8152600401610e709190613d09565b602060405180830381865afa158015610e8d573d6000803e3d6000fd5b505050506040513d601f19601f82011682018060405250810190610eb191906145a2565b90506000816001600160a01b0316635c975abb6040518163ffffffff1660e01b8152600401602060405180830381865afa158015610ef3573d6000803e3d6000fd5b505050506040513d601f19601f82011682018060405250810190610f1791906145cf565b90508015610f375760405162461bcd60e51b8152600401610742906145ea565b610f428787876132cb565b506001979650505050505050565b610f58613b3c565b60665460408051630505792b60e51b815290516000926001600160a01b03169163a0af25609160048083019260209291908290030181865afa158015610fa2573d6000803e3d6000fd5b505050506040513d601f19601f82011682018060405250810190610fc691906145a2565b60655460405163056efc1d60e21b81529192506001600160a01b038316916315bbf07491610ffa9160040190815260200190565b600060405180830381865afa158015611017573d6000803e3d6000fd5b505050506040513d6000823e601f3d908101601f1916820160405261103f91908101906146bc565b91505090565b600033610635818585611058838361295a565b61106291906149eb565b612f94565b6040805180820190915260048152637075726f60e01b602082015290565b606080611090613bbc565b611098613b3c565b6110a0610c14565b90519051909590945092505050565b60665460408051637394ca7160e11b8152905133926001600160a01b03169163e72994e29160048083019260209291908290030181865afa1580156110f8573d6000803e3d6000fd5b505050506040513d601f19601f8201168201806040525081019061111c91906145a2565b6001600160a01b0316146111685760405162461bcd60e51b8152602060048201526013602482015272139bdd08195cd8dc9bddc818dbdb9d1c9858dd606a1b6044820152606401610742565b61117a8261117583614a82565b6132e4565b5050565b6066546000906001600160a01b03166391148b2761119a611067565b6040518263ffffffff1660e01b81526004016111b69190613d09565b602060405180830381865afa1580156111d3573d6000803e3d6000fd5b505050506040513d601f19601f820116820180604052508101906111f791906145a2565b90506000816001600160a01b0316635c975abb6040518163ffffffff1660e01b8152600401602060405180830381865afa158015611239573d6000803e3d6000fd5b505050506040513d601f19601f8201168201806040525081019061125d91906145cf565b9050801561127d5760405162461bcd60e51b8152600401610742906145ea565b6066547ffb7778e60e898528875e31f94e3a623d6302be2aa540c7a7f5ae26fe5ee2498d906001600160a01b03166391148b276112b8611067565b6040518263ffffffff1660e01b81526004016112d49190613d09565b602060405180830381865afa1580156112f1573d6000803e3d6000fd5b505050506040513d601f19601f8201168201806040525081019061131591906145a2565b604051632474521560e21b8152600481018390523360248201526001600160a01b0391909116906391d1485490604401602060405180830381865afa158015611362573d6000803e3d6000fd5b505050506040513d601f19601f8201168201806040525081019061138691906145cf565b6113a25760405162461bcd60e51b815260040161074290614bb5565b60665460408051637394ca7160e11b815290516000926001600160a01b03169163e72994e29160048083019260209291908290030181865afa1580156113ec573d6000803e3d6000fd5b505050506040513d601f19601f8201168201806040525081019061141091906145a2565b604051631d42b1bf60e31b8152600481018790529091506001600160a01b0382169063ea158df890602401600060405180830381600087803b15801561145557600080fd5b505af1158015611469573d6000803e3d6000fd5b50506040518792507f11824358702d89f2293e23da6c058c3c600cd7312e29fe855817f50b4ac2e95b9150600090a25050505050565b6066546000906001600160a01b03166391148b276114bb611067565b6040518263ffffffff1660e01b81526004016114d79190613d09565b602060405180830381865afa1580156114f4573d6000803e3d6000fd5b505050506040513d601f19601f8201168201806040525081019061151891906145a2565b90506000816001600160a01b0316635c975abb6040518163ffffffff1660e01b8152600401602060405180830381865afa15801561155a573d6000803e3d6000fd5b505050506040513d601f19601f8201168201806040525081019061157e91906145cf565b9050801561159e5760405162461bcd60e51b8152600401610742906145ea565b6066546000906001600160a01b03166391148b276115ba611067565b6040518263ffffffff1660e01b81526004016115d69190613d09565b602060405180830381865afa1580156115f3573d6000803e3d6000fd5b505050506040513d601f19601f8201168201806040525081019061161791906145a2565b6040516311afe75f60e11b81523360048201529091506000906001600160a01b0383169063235fcebe90602401602060405180830381865afa158015611661573d6000803e3d6000fd5b505050506040513d601f19601f8201168201806040525081019061168591906145cf565b9050806116c25760405162461bcd60e51b815260206004820152600b60248201526a139bdd08185b1b1bddd95960aa1b6044820152606401610742565b6116cc8686613520565b505050505050565b6066546000906001600160a01b03166391148b276116f0611067565b6040518263ffffffff1660e01b815260040161170c9190613d09565b602060405180830381865afa158015611729573d6000803e3d6000fd5b505050506040513d601f19601f8201168201806040525081019061174d91906145a2565b90506000816001600160a01b0316635c975abb6040518163ffffffff1660e01b8152600401602060405180830381865afa15801561178f573d6000803e3d6000fd5b505050506040513d601f19601f820116820180604052508101906117b391906145cf565b905080156117d35760405162461bcd60e51b8152600401610742906145ea565b6066546000906001600160a01b03166391148b276117ef611067565b6040518263ffffffff1660e01b815260040161180b9190613d09565b602060405180830381865afa158015611828573d6000803e3d6000fd5b505050506040513d601f19601f8201168201806040525081019061184c91906145a2565b90506000816001600160a01b0316638da5cb5b6040518163ffffffff1660e01b8152600401602060405180830381865afa15801561188e573d6000803e3d6000fd5b505050506040513d601f19601f820116820180604052508101906118b291906145a2565b90506001600160a01b03811633146119005760405162461bcd60e51b81526020600482015260116024820152702737ba103330b1ba37b93c9037bbb732b960791b6044820152606401610742565b60665460408051634be4e3dd60e01b815290516000926001600160a01b031691634be4e3dd9160048083019260209291908290030181865afa15801561194a573d6000803e3d6000fd5b505050506040513d601f19601f8201168201806040525081019061196e91906145a2565b905060008061197d8389613154565b9093509150600290508160068111156119985761199861460f565b1460405180604001604052806002815260200161343760f01b815250906119d25760405162461bcd60e51b81526004016107429190613d09565b506119dd3383613520565b6040516323b872dd60e01b8152306004820152336024820152604481018990526001600160a01b038416906323b872dd90606401600060405180830381600087803b158015611a2b57600080fd5b505af1158015611a3f573d6000803e3d6000fd5b505050505050505050505050565b6066546000906001600160a01b03166391148b27611a69611067565b6040518263ffffffff1660e01b8152600401611a859190613d09565b602060405180830381865afa158015611aa2573d6000803e3d6000fd5b505050506040513d601f19601f82011682018060405250810190611ac691906145a2565b90506000816001600160a01b0316635c975abb6040518163ffffffff1660e01b8152600401602060405180830381865afa158015611b08573d6000803e3d6000fd5b505050506040513d601f19601f82011682018060405250810190611b2c91906145cf565b90508015611b4c5760405162461bcd60e51b8152600401610742906145ea565b611b5784338561366b565b611b618484613520565b50505050565b6000602082013581611b7b6012600a61450b565b905080611b888184614bdd565b611b92919061451a565b8214604051806040016040528060028152602001610d4d60f21b81525090611bcd5760405162461bcd60e51b81526004016107429190613d09565b506066546000906001600160a01b03166391148b27611bea611067565b6040518263ffffffff1660e01b8152600401611c069190613d09565b602060405180830381865afa158015611c23573d6000803e3d6000fd5b505050506040513d601f19601f82011682018060405250810190611c4791906145a2565b90506000816001600160a01b0316635c975abb6040518163ffffffff1660e01b8152600401602060405180830381865afa158015611c89573d6000803e3d6000fd5b505050506040513d601f19601f82011682018060405250810190611cad91906145cf565b90508015611ccd5760405162461bcd60e51b8152600401610742906145ea565b60665460408051637394ca7160e11b815290516000926001600160a01b03169163e72994e29160048083019260209291908290030181865afa158015611d17573d6000803e3d6000fd5b505050506040513d601f19601f82011682018060405250810190611d3b91906145a2565b9050611d4b818860200135610627565b604051806040016040528060028152602001611a1b60f11b81525090611d845760405162461bcd60e51b81526004016107429190613d09565b50604051630aeb2d2360e41b81526001600160a01b0382169063aeb2d23090611db39033908b90600401614e0c565b6020604051808303816000875af1158015611dd2573d6000803e3d6000fd5b505050506040513d601f19601f82011682018060405250810190611df69190614e30565b955085336001600160a01b03167fab868181315a0726750cc674eb8fd78793b34ec9de4e55b2a811172dbe6450ce89604051611e329190614e49565b60405180910390a35050505050919050565b6066546000906001600160a01b03166391148b27611e60611067565b6040518263ffffffff1660e01b8152600401611e7c9190613d09565b602060405180830381865afa158015611e99573d6000803e3d6000fd5b505050506040513d601f19601f82011682018060405250810190611ebd91906145a2565b90506000816001600160a01b0316635c975abb6040518163ffffffff1660e01b8152600401602060405180830381865afa158015611eff573d6000803e3d6000fd5b505050506040513d601f19601f82011682018060405250810190611f2391906145cf565b90508015611f435760405162461bcd60e51b8152600401610742906145ea565b6066546000906001600160a01b03166391148b27611f5f611067565b6040518263ffffffff1660e01b8152600401611f7b9190613d09565b602060405180830381865afa158015611f98573d6000803e3d6000fd5b505050506040513d601f19601f82011682018060405250810190611fbc91906145a2565b6040516311afe75f60e11b81523360048201529091506000906001600160a01b0383169063235fcebe90602401602060405180830381865afa158015612006573d6000803e3d6000fd5b505050506040513d601f19601f8201168201806040525081019061202a91906145cf565b9050806120675760405162461bcd60e51b815260206004820152600b60248201526a139bdd08185b1b1bddd95960aa1b6044820152606401610742565b6116cc86866131ec565b606080606061207e611085565b60405191935091506106119083908390602001614e5c565b6066546000906001600160a01b03166391148b276120b2611067565b6040518263ffffffff1660e01b81526004016120ce9190613d09565b602060405180830381865afa1580156120eb573d6000803e3d6000fd5b505050506040513d601f19601f8201168201806040525081019061210f91906145a2565b90506000816001600160a01b0316635c975abb6040518163ffffffff1660e01b8152600401602060405180830381865afa158015612151573d6000803e3d6000fd5b505050506040513d601f19601f8201168201806040525081019061217591906145cf565b905080156121955760405162461bcd60e51b8152600401610742906145ea565b6066547ffb7778e60e898528875e31f94e3a623d6302be2aa540c7a7f5ae26fe5ee2498d906001600160a01b03166391148b276121d0611067565b6040518263ffffffff1660e01b81526004016121ec9190613d09565b602060405180830381865afa158015612209573d6000803e3d6000fd5b505050506040513d601f19601f8201168201806040525081019061222d91906145a2565b604051632474521560e21b8152600481018390523360248201526001600160a01b0391909116906391d1485490604401602060405180830381865afa15801561227a573d6000803e3d6000fd5b505050506040513d601f19601f8201168201806040525081019061229e91906145cf565b6122ba5760405162461bcd60e51b815260040161074290614bb5565b60665460408051637394ca7160e11b815290516000926001600160a01b03169163e72994e29160048083019260209291908290030181865afa158015612304573d6000803e3d6000fd5b505050506040513d601f19601f8201168201806040525081019061232891906145a2565b60405163075f2da360e51b8152600481018790529091506001600160a01b0382169063ebe5b46090602401600060405180830381600087803b15801561236d57600080fd5b505af1158015612381573d6000803e3d6000fd5b50506040518792507f57e4027df666ec477f55d7dd87fb5a098836de7eaf475ba43d684b5d438d238b9150600090a25050505050565b600033816123c5828661295a565b9050838110156124255760405162461bcd60e51b815260206004820152602560248201527f45524332303a2064656372656173656420616c6c6f77616e63652062656c6f77604482015264207a65726f60d81b6064820152608401610742565b6124328286868403612f94565b506001949350505050565b6000826001600160a01b03811661245357600080fd5b306001600160a01b0382160361246857600080fd5b6066546000906001600160a01b03166391148b27612484611067565b6040518263ffffffff1660e01b81526004016124a09190613d09565b602060405180830381865afa1580156124bd573d6000803e3d6000fd5b505050506040513d601f19601f820116820180604052508101906124e191906145a2565b90506000816001600160a01b0316635c975abb6040518163ffffffff1660e01b8152600401602060405180830381865afa158015612523573d6000803e3d6000fd5b505050506040513d601f19601f8201168201806040525081019061254791906145cf565b905080156125675760405162461bcd60e51b8152600401610742906145ea565b61257186866136df565b5060019695505050505050565b600061258a60016136ed565b905080156125a2576000805461ff0019166101001790555b6125ac858561376d565b6065839055606680546001600160a01b0319166001600160a01b0384161790558015612612576000805461ff0019169055604051600181527f7f26b83ff96e1f2b6a682f133852f6798a09c465da95921460cefb38474024989060200160405180910390a15b5050505050565b6066546000906001600160a01b03166391148b27612635611067565b6040518263ffffffff1660e01b81526004016126519190613d09565b602060405180830381865afa15801561266e573d6000803e3d6000fd5b505050506040513d601f19601f8201168201806040525081019061269291906145a2565b90506000816001600160a01b0316635c975abb6040518163ffffffff1660e01b8152600401602060405180830381865afa1580156126d4573d6000803e3d6000fd5b505050506040513d601f19601f820116820180604052508101906126f891906145cf565b905080156127185760405162461bcd60e51b8152600401610742906145ea565b6066547ff70ccd5004a2a6f964f044c0095454c529799f8602238d52b5a197af351dd419906001600160a01b03166391148b27612753611067565b6040518263ffffffff1660e01b815260040161276f9190613d09565b602060405180830381865afa15801561278c573d6000803e3d6000fd5b505050506040513d601f19601f820116820180604052508101906127b091906145a2565b604051632474521560e21b8152600481018390523360248201526001600160a01b0391909116906391d1485490604401602060405180830381865afa1580156127fd573d6000803e3d6000fd5b505050506040513d601f19601f8201168201806040525081019061282191906145cf565b61283d5760405162461bcd60e51b815260040161074290614bb5565b60665460408051637394ca7160e11b815290516000926001600160a01b03169163e72994e29160048083019260209291908290030181865afa158015612887573d6000803e3d6000fd5b505050506040513d601f19601f820116820180604052508101906128ab91906145a2565b6040516392ad01fd60e01b8152600481018790529091506001600160a01b038216906392ad01fd90602401600060405180830381600087803b1580156128f057600080fd5b505af1158015612904573d6000803e3d6000fd5b50506040518792507f8f7beb6efa236b725c90af1831975edbd62f2792f52fdb645ded13759232085d9150600090a25050505050565b600080612945610593565b905061295060355490565b61103f9082614649565b6001600160a01b03918216600090815260346020908152604080832093909416825291909152205490565b600081816129956012600a61450b565b9050806129a28184614bdd565b6129ac919061451a565b8214604051806040016040528060028152602001610d4d60f21b815250906129e75760405162461bcd60e51b81526004016107429190613d09565b506066546000906001600160a01b03166391148b27612a04611067565b6040518263ffffffff1660e01b8152600401612a209190613d09565b602060405180830381865afa158015612a3d573d6000803e3d6000fd5b505050506040513d601f19601f82011682018060405250810190612a6191906145a2565b90506000816001600160a01b0316635c975abb6040518163ffffffff1660e01b8152600401602060405180830381865afa158015612aa3573d6000803e3d6000fd5b505050506040513d601f19601f82011682018060405250810190612ac791906145cf565b90508015612ae75760405162461bcd60e51b8152600401610742906145ea565b60665460408051637394ca7160e11b815290516000926001600160a01b03169163e72994e29160048083019260209291908290030181865afa158015612b31573d6000803e3d6000fd5b505050506040513d601f19601f82011682018060405250810190612b5591906145a2565b9050612b618188610627565b604051806040016040528060028152602001611a1b60f11b81525090612b9a5760405162461bcd60e51b81526004016107429190613d09565b5060405163c346a8bf60e01b81526001600160a01b0382169063c346a8bf90612bcd9033908b908e908e90600401614ea9565b6020604051808303816000875af1158015612bec573d6000803e3d6000fd5b505050506040513d601f19601f82011682018060405250810190612c109190614e30565b955085336001600160a01b03167f64abd27c2f173f29d68e3c4d0922caa80fe66344f802fd6a064cd9ae298db307898c8c604051612c5093929190614ed1565b60405180910390a350505050509392505050565b6066546000906001600160a01b03166391148b27612c80611067565b6040518263ffffffff1660e01b8152600401612c9c9190613d09565b602060405180830381865afa158015612cb9573d6000803e3d6000fd5b505050506040513d601f19601f82011682018060405250810190612cdd91906145a2565b90506000816001600160a01b0316635c975abb6040518163ffffffff1660e01b8152600401602060405180830381865afa158015612d1f573d6000803e3d6000fd5b505050506040513d601f19601f82011682018060405250810190612d4391906145cf565b90508015612d635760405162461bcd60e51b8152600401610742906145ea565b6066547ff70ccd5004a2a6f964f044c0095454c529799f8602238d52b5a197af351dd419906001600160a01b03166391148b27612d9e611067565b6040518263ffffffff1660e01b8152600401612dba9190613d09565b602060405180830381865afa158015612dd7573d6000803e3d6000fd5b505050506040513d601f19601f82011682018060405250810190612dfb91906145a2565b604051632474521560e21b8152600481018390523360248201526001600160a01b0391909116906391d1485490604401602060405180830381865afa158015612e48573d6000803e3d6000fd5b505050506040513d601f19601f82011682018060405250810190612e6c91906145cf565b612e885760405162461bcd60e51b815260040161074290614bb5565b60665460408051637394ca7160e11b815290516000926001600160a01b03169163e72994e29160048083019260209291908290030181865afa158015612ed2573d6000803e3d6000fd5b505050506040513d601f19601f82011682018060405250810190612ef691906145a2565b6040516304314a1d60e51b8152600481018790529091506001600160a01b0382169063862943a090602401600060405180830381600087803b158015612f3b57600080fd5b505af1158015612f4f573d6000803e3d6000fd5b50506040518792507f8baa1509b9f6c83973f788904506386c5b2b93480f289aeafd9f43f9df1c94a89150600090a25050505050565b6001600160a01b03163b151590565b6001600160a01b038316612ff65760405162461bcd60e51b8152602060048201526024808201527f45524332303a20617070726f76652066726f6d20746865207a65726f206164646044820152637265737360e01b6064820152608401610742565b6001600160a01b0382166130575760405162461bcd60e51b815260206004820152602260248201527f45524332303a20617070726f766520746f20746865207a65726f206164647265604482015261737360f01b6064820152608401610742565b6001600160a01b0383811660008181526034602090815260408083209487168084529482529182902085905590518481527f8c5be1e5ebec7d5bd14f71427d1e84f3dd0314c0f7b2291e5b200ac8c7c3b92591015b60405180910390a3505050565b60665460408051634be4e3dd60e01b815290516000926001600160a01b031691634be4e3dd9160048083019260209291908290030181865afa158015613103573d6000803e3d6000fd5b505050506040513d601f19601f8201168201806040525081019061312791906145a2565b6001600160a01b0316826001600160a01b03160361314757506001919050565b506000919050565b919050565b600080600080600080876001600160a01b031663dff35e83886040518263ffffffff1660e01b815260040161318b91815260200190565b606060405180830381865afa1580156131a8573d6000803e3d6000fd5b505050506040513d601f19601f820116820180604052508101906131cc9190614eeb565b925092509250826131dc836137ff565b9096509450925050509250925092565b6001600160a01b0382166132425760405162461bcd60e51b815260206004820152601f60248201527f45524332303a206d696e7420746f20746865207a65726f2061646472657373006044820152606401610742565b806035600082825461325491906149eb565b90915550506001600160a01b038216600090815260336020526040812080548392906132819084906149eb565b90915550506040518181526001600160a01b038316906000907fddf252ad1be2c89b69c2b068fc378daa952ba7f163c4a11628f55a4df523b3ef9060200160405180910390a35050565b6000336132d985828561366b565b612432858585613817565b6066546000906001600160a01b03166391148b27613300611067565b6040518263ffffffff1660e01b815260040161331c9190613d09565b602060405180830381865afa158015613339573d6000803e3d6000fd5b505050506040513d601f19601f8201168201806040525081019061335d91906145a2565b90506000816001600160a01b0316635c975abb6040518163ffffffff1660e01b8152600401602060405180830381865afa15801561339f573d6000803e3d6000fd5b505050506040513d601f19601f820116820180604052508101906133c391906145cf565b905080156133e35760405162461bcd60e51b8152600401610742906145ea565b60006133f4338560200151876139e5565b6040805160018082528183019092529192506000919060208083019080368337019050509050818160008151811061342e5761342e614f28565b60209081029190910181019190915260665460408051631bb5aee760e11b815290516001600160a01b039092169263376b5dce926004808401938290030181865afa158015613481573d6000803e3d6000fd5b505050506040513d601f19601f820116820180604052508101906134a591906145a2565b6001600160a01b031663cc91e5e98787846040518463ffffffff1660e01b81526004016134d493929190614f79565b6020604051808303816000875af11580156134f3573d6000803e3d6000fd5b505050506040513d601f19601f820116820180604052508101906135179190614e30565b50505050505050565b6001600160a01b0382166135805760405162461bcd60e51b815260206004820152602160248201527f45524332303a206275726e2066726f6d20746865207a65726f206164647265736044820152607360f81b6064820152608401610742565b6001600160a01b038216600090815260336020526040902054818110156135f45760405162461bcd60e51b815260206004820152602260248201527f45524332303a206275726e20616d6f756e7420657863656564732062616c616e604482015261636560f01b6064820152608401610742565b6001600160a01b0383166000908152603360205260408120838303905560358054849290613623908490614649565b90915550506040518281526000906001600160a01b038516907fddf252ad1be2c89b69c2b068fc378daa952ba7f163c4a11628f55a4df523b3ef906020016130ac565b505050565b6000613677848461295a565b90506000198114611b6157818110156136d25760405162461bcd60e51b815260206004820152601d60248201527f45524332303a20696e73756666696369656e7420616c6c6f77616e63650000006044820152606401610742565b611b618484848403612f94565b600033610635818585613817565b60008054610100900460ff161561372c578160ff1660011480156137105750303b155b6131475760405162461bcd60e51b81526004016107429061508e565b60005460ff8084169116106137535760405162461bcd60e51b81526004016107429061508e565b506000805460ff191660ff92909216919091179055600190565b600054610100900460ff166137d85760405162461bcd60e51b815260206004820152602b60248201527f496e697469616c697a61626c653a20636f6e7472616374206973206e6f74206960448201526a6e697469616c697a696e6760a81b6064820152608401610742565b81516137eb906036906020850190613c18565b508051613666906037906020840190613c18565b600061380d6012600a61450b565b61063b908361451a565b6001600160a01b03831661387b5760405162461bcd60e51b815260206004820152602560248201527f45524332303a207472616e736665722066726f6d20746865207a65726f206164604482015264647265737360d81b6064820152608401610742565b6001600160a01b0382166138dd5760405162461bcd60e51b815260206004820152602360248201527f45524332303a207472616e7366657220746f20746865207a65726f206164647260448201526265737360e81b6064820152608401610742565b6001600160a01b038316600090815260336020526040902054818110156139555760405162461bcd60e51b815260206004820152602660248201527f45524332303a207472616e7366657220616d6f756e7420657863656564732062604482015265616c616e636560d01b6064820152608401610742565b6001600160a01b0380851660009081526033602052604080822085850390559185168152908120805484929061398c9084906149eb565b92505081905550826001600160a01b0316846001600160a01b03167fddf252ad1be2c89b69c2b068fc378daa952ba7f163c4a11628f55a4df523b3ef846040516139d891815260200190565b60405180910390a3611b61565b60006139f18484613520565b60665460408051631bb5aee760e11b815290516000926001600160a01b03169163376b5dce9160048083019260209291908290030181865afa158015613a3b573d6000803e3d6000fd5b505050506040513d601f19601f82011682018060405250810190613a5f91906145a2565b6065546040516313ef24f760e11b81526001600160a01b038681166004830152602482019290925260448101879052600060648201529192508216906327de49ee906084016020604051808303816000875af1158015613ac3573d6000803e3d6000fd5b505050506040513d601f19601f82011682018060405250810190613ae79190614e30565b604080516001600160a01b0386168152602081018790529081018290529092507fb3775f672e1adf43bf7834b692675bfee4db72f83e42da8cff694ca295a89eca9060600160405180910390a1509392505050565b6040518061018001604052806060815260200160006001600160401b0316815260200160006001600160401b031681526020016000815260200160006001600160401b0316815260200160001515815260200160001515815260200160608152602001606081526020016060815260200160608152602001606081525090565b60405180610140016040528060608152602001606081526020016060815260200160608152602001606081526020016060815260200160608152602001606081526020016060815260200160006001600160a01b031681525090565b828054613c24906150dc565b90600052602060002090601f016020900481019282613c465760008555613c8c565b82601f10613c5f57805160ff1916838001178555613c8c565b82800160010185558215613c8c579182015b82811115613c8c578251825591602001919060010190613c71565b50613c98929150613c9c565b5090565b5b80821115613c985760008155600101613c9d565b60005b83811015613ccc578181015183820152602001613cb4565b83811115611b615750506000910152565b60008151808452613cf5816020860160208601613cb1565b601f01601f19169290920160200192915050565b6020815260006105e56020830184613cdd565b6001600160a01b0381168114613d3157600080fd5b50565b803561314f81613d1c565b60008060408385031215613d5257600080fd5b8235613d5d81613d1c565b946020939093013593505050565b600080600080600060808688031215613d8357600080fd5b8535613d8e81613d1c565b94506020860135613d9e81613d1c565b93506040860135925060608601356001600160401b0380821115613dc157600080fd5b818801915088601f830112613dd557600080fd5b813581811115613de457600080fd5b896020828501011115613df657600080fd5b9699959850939650602001949392505050565b60006101808251818552613e1f82860182613cdd565b9150506020830151613e3c60208601826001600160401b03169052565b506040830151613e5760408601826001600160401b03169052565b50606083015160608501526080830151613e7c60808601826001600160401b03169052565b5060a0830151613e9060a086018215159052565b5060c0830151613ea460c086018215159052565b5060e083015184820360e0860152613ebc8282613cdd565b9150506101008084015185830382870152613ed78382613cdd565b925050506101208084015185830382870152613ef38382613cdd565b925050506101408084015185830382870152613f0f8382613cdd565b925050506101608084015185830382870152613f2b8382613cdd565b9695505050505050565b6040815260008351610140806040850152613f54610180850183613cdd565b91506020860151603f1980868503016060870152613f728483613cdd565b93506040880151915080868503016080870152613f8f8483613cdd565b935060608801519150808685030160a0870152613fac8483613cdd565b935060808801519150808685030160c0870152613fc98483613cdd565b935060a08801519150808685030160e0870152613fe68483613cdd565b935060c088015191506101008187860301818801526140058584613cdd565b945060e089015192506101208288870301818901526140248685613cdd565b9550818a0151935082888703018589015261403f8685613cdd565b9550808a01519450505050506140616101608501826001600160a01b03169052565b5082810360208401526140748185613e09565b95945050505050565b60008060006060848603121561409257600080fd5b833561409d81613d1c565b925060208401356140ad81613d1c565b929592945050506040919091013590565b6020815260006105e56020830184613e09565b6040815260006140e46040830185613cdd565b82810360208401526140748185613cdd565b6000610140828403121561410957600080fd5b50919050565b6000806040838503121561412257600080fd5b823561412d81613d1c565b915060208301356001600160401b0381111561414857600080fd5b614154858286016140f6565b9150509250929050565b60006020828403121561417057600080fd5b5035919050565b60006020828403121561418957600080fd5b81356105e581613d1c565b6000602082840312156141a657600080fd5b81356001600160401b038111156141bc57600080fd5b6141c8848285016140f6565b949350505050565b634e487b7160e01b600052604160045260246000fd5b60405161018081016001600160401b0381118282101715614209576142096141d0565b60405290565b60405161014081016001600160401b0381118282101715614209576142096141d0565b604051601f8201601f191681016001600160401b038111828210171561425a5761425a6141d0565b604052919050565b60006001600160401b0382111561427b5761427b6141d0565b50601f01601f191660200190565b600082601f83011261429a57600080fd5b81356142ad6142a882614262565b614232565b8181528460208386010111156142c257600080fd5b816020850160208301376000918101602001919091529392505050565b600080600080608085870312156142f557600080fd5b84356001600160401b038082111561430c57600080fd5b61431888838901614289565b9550602087013591508082111561432e57600080fd5b5061433b87828801614289565b93505060408501359150606085013561435381613d1c565b939692955090935050565b6000806040838503121561437157600080fd5b823561437c81613d1c565b9150602083013561438c81613d1c565b809150509250929050565b6000806000604084860312156143ac57600080fd5b83356001600160401b03808211156143c357600080fd5b818601915086601f8301126143d757600080fd5b8135818111156143e657600080fd5b8760208260051b85010111156143fb57600080fd5b6020928301989097509590910135949350505050565b634e487b7160e01b600052601160045260246000fd5b600181815b8085111561446257816000190482111561444857614448614411565b8085161561445557918102915b93841c939080029061442c565b509250929050565b6000826144795750600161063b565b816144865750600061063b565b816001811461449c57600281146144a6576144c2565b600191505061063b565b60ff8411156144b7576144b7614411565b50506001821b61063b565b5060208310610133831016604e8410600b84101617156144e5575081810a61063b565b6144ef8383614427565b806000190482111561450357614503614411565b029392505050565b60006105e560ff84168361446a565b600081600019048311821515161561453457614534614411565b500290565b75546f7563616e2050726f746f636f6c3a2054434f322d60501b81526000835161456a816016850160208801613cb1565b602d60f81b601691840191820152835161458b816017840160208801613cb1565b01601701949350505050565b805161314f81613d1c565b6000602082840312156145b457600080fd5b81516105e581613d1c565b8051801515811461314f57600080fd5b6000602082840312156145e157600080fd5b6105e5826145bf565b6020808252600b908201526a2830bab9b2b2102a21a79960a91b604082015260600190565b634e487b7160e01b600052602160045260246000fd5b6000806040838503121561463857600080fd5b505080516020909101519092909150565b60008282101561465b5761465b614411565b500390565b600082601f83011261467157600080fd5b815161467f6142a882614262565b81815284602083860101111561469457600080fd5b6141c8826020830160208701613cb1565b80516001600160401b038116811461314f57600080fd5b6000602082840312156146ce57600080fd5b81516001600160401b03808211156146e557600080fd5b9083019061018082860312156146fa57600080fd5b6147026141e6565b82518281111561471157600080fd5b61471d87828601614660565b82525061472c602084016146a5565b602082015261473d604084016146a5565b604082015260608301516060820152614758608084016146a5565b608082015261476960a084016145bf565b60a082015261477a60c084016145bf565b60c082015260e08301518281111561479157600080fd5b61479d87828601614660565b60e08301525061010080840151838111156147b757600080fd5b6147c388828701614660565b82840152505061012080840151838111156147dd57600080fd5b6147e988828701614660565b828401525050610140808401518381111561480357600080fd5b61480f88828701614660565b828401525050610160808401518381111561482957600080fd5b61483588828701614660565b918301919091525095945050505050565b60006020828403121561485857600080fd5b81516001600160401b038082111561486f57600080fd5b90830190610140828603121561488457600080fd5b61488c61420f565b82518281111561489b57600080fd5b6148a787828601614660565b8252506020830151828111156148bc57600080fd5b6148c887828601614660565b6020830152506040830151828111156148e057600080fd5b6148ec87828601614660565b60408301525060608301518281111561490457600080fd5b61491087828601614660565b60608301525060808301518281111561492857600080fd5b61493487828601614660565b60808301525060a08301518281111561494c57600080fd5b61495887828601614660565b60a08301525060c08301518281111561497057600080fd5b61497c87828601614660565b60c08301525060e08301518281111561499457600080fd5b6149a087828601614660565b60e08301525061010080840151838111156149ba57600080fd5b6149c688828701614660565b82840152505061012091506149dc828401614597565b91810191909152949350505050565b600082198211156149fe576149fe614411565b500190565b600082601f830112614a1457600080fd5b813560206001600160401b03821115614a2f57614a2f6141d0565b8160051b614a3e828201614232565b9283528481018201928281019087851115614a5857600080fd5b83870192505b84831015614a7757823582529183019190830190614a5e565b979650505050505050565b60006101408236031215614a9557600080fd5b614a9d61420f565b82356001600160401b0380821115614ab457600080fd5b614ac036838701614a03565b8352602085013560208401526040850135915080821115614ae057600080fd5b614aec36838701614289565b6040840152614afd60608601613d34565b60608401526080850135915080821115614b1657600080fd5b614b2236838701614289565b608084015260a0850135915080821115614b3b57600080fd5b614b4736838701614289565b60a084015260c0850135915080821115614b6057600080fd5b614b6c36838701614289565b60c084015260e0850135915080821115614b8557600080fd5b50614b9236828601614289565b60e083015250610100838101359082015261012092830135928101929092525090565b6020808252600e908201526d496e76616c69642061636365737360901b604082015260600190565b600082614bfa57634e487b7160e01b600052601260045260246000fd5b500490565b6000808335601e19843603018112614c1657600080fd5b83016020810192503590506001600160401b03811115614c3557600080fd5b8060051b3603821315614c4757600080fd5b9250929050565b81835260006001600160fb1b03831115614c6757600080fd5b8260051b8083602087013760009401602001938452509192915050565b6000808335601e19843603018112614c9b57600080fd5b83016020810192503590506001600160401b03811115614cba57600080fd5b803603821315614c4757600080fd5b81835281816020850137506000828201602090810191909152601f909101601f19169091010190565b6000610140614d018384614bff565b828652614d118387018284614c4e565b9250505060208301356020850152614d2c6040840184614c84565b8583036040870152614d3f838284614cc9565b92505050614d4f60608401613d34565b6001600160a01b03166060850152614d6a6080840184614c84565b8583036080870152614d7d838284614cc9565b92505050614d8e60a0840184614c84565b85830360a0870152614da1838284614cc9565b92505050614db260c0840184614c84565b85830360c0870152614dc5838284614cc9565b92505050614dd660e0840184614c84565b85830360e0870152614de9838284614cc9565b610100868101359088015261012095860135959096019490945250929392505050565b6001600160a01b03831681526040602082018190526000906141c890830184614cf2565b600060208284031215614e4257600080fd5b5051919050565b6020815260006105e56020830184614cf2565b6454434f322d60d81b815260008351614e7c816005850160208801613cb1565b602d60f81b6005918401918201528351614e9d816006840160208801613cb1565b01600601949350505050565b60018060a01b0385168152836020820152606060408201526000613f2b606083018486614c4e565b838152604060208201526000614074604083018486614c4e565b600080600060608486031215614f0057600080fd5b8351925060208401519150604084015160078110614f1d57600080fd5b809150509250925092565b634e487b7160e01b600052603260045260246000fd5b600081518084526020808501945080840160005b83811015614f6e57815187529582019590820190600101614f52565b509495945050505050565b60018060a01b03841681526060602082015260008351610140806060850152614fa66101a0850183614f3e565b9150602086015160808501526040860151605f19808685030160a0870152614fce8483613cdd565b935060608801519150614fec60c08701836001600160a01b03169052565b60808801519150808685030160e08701526150078483613cdd565b935060a088015191506101008187860301818801526150268584613cdd565b945060c089015192506101208288870301818901526150458685613cdd565b955060e08a015193508288870301858901526150618685613cdd565b9550818a0151610160890152808a015161018089015250505050508281036040840152613f2b8185614f3e565b6020808252602e908201527f496e697469616c697a61626c653a20636f6e747261637420697320616c72656160408201526d191e481a5b9a5d1a585b1a5e995960921b606082015260800190565b600181811c908216806150f057607f821691505b60208210810361410957634e487b7160e01b600052602260045260246000fdfea26469706673582212205ba803f36362176c2e0547567b004bfef84dc90903214b9565f196862f77bff964736f6c634300080e0033496e697469616c697a61626c653a20636f6e747261637420697320616c726561",
  "devdoc": {
    "kind": "dev",
    "methods": {
      "allowance(address,address)": {
        "details": "See {IERC20-allowance}."
      },
      "approve(address,uint256)": {
        "details": "See {IERC20-approve}. NOTE: If `amount` is the maximum `uint256`, the allowance is not updated on `transferFrom`. This is semantically equivalent to an infinite approval. Requirements: - `spender` cannot be the zero address."
      },
      "balanceOf(address)": {
        "details": "See {IERC20-balanceOf}."
      },
      "bridgeBurn(address,uint256)": {
        "params": {
          "account": "The user for whom to burn TCO2",
          "amount": "The amount to burn."
        }
      },
      "bridgeMint(address,uint256)": {
        "params": {
          "account": "The user for whom to mint TCO2",
          "amount": "The amount to mint."
        }
      },
      "burnFrom(address,uint256)": {
        "params": {
          "account": "The user for whom to burn TCO2",
          "amount": "The amount to burn"
        }
      },
      "decimals()": {
        "details": "Returns the number of decimals used to get its user representation. For example, if `decimals` equals `2`, a balance of `505` tokens should be displayed to a user as `5.05` (`505 / 10 ** 2`). Tokens usually opt for a value of 18, imitating the relationship between Ether and Wei. This is the value {ERC20} uses, unless this function is overridden; NOTE: This information is only used for _display_ purposes: it in no way affects any of the arithmetic of the contract, including {IERC20-balanceOf} and {IERC20-transfer}."
      },
      "decreaseAllowance(address,uint256)": {
        "details": "Atomically decreases the allowance granted to `spender` by the caller. This is an alternative to {approve} that can be used as a mitigation for problems described in {IERC20-approve}. Emits an {Approval} event indicating the updated allowance. Requirements: - `spender` cannot be the zero address. - `spender` must have allowance for the caller of at least `subtractedValue`."
      },
      "defractionalize(uint256)": {
        "params": {
          "tokenId": "The batch NFT to defractionalize from the TCO2"
        }
      },
      "finalizeDetokenization(uint256)": {
        "details": "Callable only by a detokenizer.",
        "params": {
          "requestId": "The id of the request to finalize."
        }
      },
      "finalizeRetirement(uint256)": {
        "details": "Callable only by a retirement approver.",
        "params": {
          "requestId": "The ID of the request to finalize."
        }
      },
      "getAttributes()": {
        "details": "Function to get corresponding attributes from the CarbonProjects"
      },
      "getDepositCap()": {
        "details": "Returns the cap for TCO2s based on `totalVintageQuantity` Returns `~unlimited` if the value for the vintage is not set"
      },
      "getGlobalProjectVintageIdentifiers()": {
        "details": "Helper function to retrieve data fragments for `name()` and `symbol()`"
      },
      "getRemaining()": {
        "details": "Returns the remaining space in TCO2 contract before hitting the cap"
      },
      "increaseAllowance(address,uint256)": {
        "details": "Atomically increases the allowance granted to `spender` by the caller. This is an alternative to {approve} that can be used as a mitigation for problems described in {IERC20-approve}. Emits an {Approval} event indicating the updated allowance. Requirements: - `spender` cannot be the zero address."
      },
      "onERC721Received(address,address,uint256,bytes)": {
        "details": "Function is called with `operator` as `msg.sender` in a reference implementation by OZ `from` is the previous owner, not necessarily the same as operator. The hook checks if NFT collection is whitelisted and next if attributes are matching this ERC20 contract"
      },
      "requestDetokenization(uint256[],uint256)": {
        "details": "This function is permissionless and can be called by anyone",
        "params": {
          "amount": "The amount of TCO2 to detokenize, must be greater than zero and equal to or smaller than the total amount of the batches (and also greater then the total amount of all the batches except the last one)",
          "tokenIds": "Token IDs of one or more batches to detokenize"
        },
        "returns": {
          "requestId": "The ID of the request in the escrow contract"
        }
      },
      "requestRetirement((uint256[],uint256,string,address,string,string,string,string,uint256,uint256))": {
        "details": "This function is permissionless and can be called by anyone",
        "params": {
          "params": "The parameters of the retirement request:     uint256[] tokenIds One or more batches to retire     uint256 amount The amount of TCO2 to retire, must be greater than zero and equal to or smaller than the total amount of the batches (and also greater then the total amount of all the batches except the last one)     string retiringEntityString The name of the retiring entity     address beneficiary The address of the beneficiary of the retirement     string beneficiaryString The name of the beneficiary of the retirement     string retirementMessage A message to be included in the retirement certificate     string beneficiaryLocation The location of the beneficiary of the retirement     string consumptionCountryCode The country code of the consumption location     uint256 consumptionPeriodStart The start of the consumption period, in seconds since the epoch     uint256 consumptionPeriodEnd The end of the consumption period, in seconds since the epoch"
        },
        "returns": {
          "requestId": "The ID of the request in the escrow contract"
        }
      },
      "revertDetokenization(uint256)": {
        "params": {
          "requestId": "The request id in the escrow contract that tracks the detokenization request"
        }
      },
      "revertRetirement(uint256)": {
        "params": {
          "requestId": "The request id in the escrow contract that tracks the retirement request"
        }
      },
      "standardRegistry()": {
        "details": "this must be overridden in the child contract"
      },
      "standardRegistryDecimals()": {
        "details": "this must be overridden in the child contract"
      },
      "totalSupply()": {
        "details": "See {IERC20-totalSupply}."
      }
    },
    "stateVariables": {
      "VERSION": {
        "details": "Version-related parameters. VERSION keeps track of production releases. VERSION_RELEASE_CANDIDATE keeps track of iterations of a VERSION in our staging environment."
      }
    },
    "version": 1
  },
  "userdoc": {
    "kind": "user",
    "methods": {
      "bridgeBurn(address,uint256)": {
        "notice": "Burn TCO2 on behalf of a user. msg.sender does not require approval by the account for the burn to be successfull. This function is exposed so it can be utilized in cross-chain transfers of TCO2 where we want to burn the TCO2 in the source chain but not retire it."
      },
      "bridgeMint(address,uint256)": {
        "notice": "Mint TCO2 on behalf of a user. This function is exposed to be called by authorized message bridge systems and utilized for cross-chain transfers of TCO2 where we want to mint the TCO2 in the source chain."
      },
      "burnFrom(address,uint256)": {
        "notice": "Burn TCO2 on behalf of a user. msg.sender needs to be approved by the account for the burn to be successfull. This function is exposed so it can be utilized to burn credits without retiring them (eg. dispose HFC-23)."
      },
      "defractionalize(uint256)": {
        "notice": "Defractionalize batch NFT by burning the amount of TCO2 from the sender and transfer the batch NFT that was selected to the sender. The only valid sender currently is the TCO2 factory owner."
      },
      "finalizeDetokenization(uint256)": {
        "notice": "Finalize a detokenization request by burning its amount of TCO2. In case the amount requested is smaller than the total amount of TCO2 in the batches, the last batch is split into two new batches, one that balances the total to be the amount requested and the other with the remaining amount."
      },
      "finalizeRetirement(uint256)": {
        "notice": "Finalize a retirement request by burning its amount of TCO2 and minting a certificate for the beneficiary. In case the amount requested is smaller than the total amount of TCO2 in the batches, the last batch is split into two new batches, one that balances the total to be the amount requested and the other with the remaining amount."
      },
      "name()": {
        "notice": "Token name getter overriden to return the a name based on the carbon project data"
      },
      "onERC721Received(address,address,uint256,bytes)": {
        "notice": "Receive hook to fractionalize Batch-NFTs into ERC20's"
      },
      "requestDetokenization(uint256[],uint256)": {
        "notice": "Request a detokenization of batch-NFTs. The amount of TCO2 to detokenize will be transferred from the user to an escrow contract."
      },
      "requestRetirement((uint256[],uint256,string,address,string,string,string,string,uint256,uint256))": {
        "notice": "Request a retirement of TCO2s from batch-NFTs. The amount of TCO2s to retire will be transferred from the user to an escrow contract."
      },
      "revertDetokenization(uint256)": {
        "notice": "Revert a detokenization request"
      },
      "revertRetirement(uint256)": {
        "notice": "Revert a retirement request"
      },
      "standardRegistry()": {
        "notice": "Return the name of the registry that this factory is enabling to tokenize, eg., verra"
      },
      "standardRegistryDecimals()": {
        "notice": "Return the minimum precision supported by the registry"
      },
      "symbol()": {
        "notice": "Token symbol getter overriden to return the a symbol based on the carbon project data"
      }
    },
    "notice": "The PuroToucanCarbonOffsets contract is a specific implementation for Puro's logic.",
    "version": 1
  },
  "storageLayout": {
    "storage": [
      {
        "astId": 2390,
        "contract": "contracts/PuroToucanCarbonOffsets.sol:PuroToucanCarbonOffsets",
        "label": "_initialized",
        "offset": 0,
        "slot": "0",
        "type": "t_uint8"
      },
      {
        "astId": 2393,
        "contract": "contracts/PuroToucanCarbonOffsets.sol:PuroToucanCarbonOffsets",
        "label": "_initializing",
        "offset": 1,
        "slot": "0",
        "type": "t_bool"
      },
      {
        "astId": 5494,
        "contract": "contracts/PuroToucanCarbonOffsets.sol:PuroToucanCarbonOffsets",
        "label": "__gap",
        "offset": 0,
        "slot": "1",
        "type": "t_array(t_uint256)50_storage"
      },
      {
        "astId": 2850,
        "contract": "contracts/PuroToucanCarbonOffsets.sol:PuroToucanCarbonOffsets",
        "label": "_balances",
        "offset": 0,
        "slot": "51",
        "type": "t_mapping(t_address,t_uint256)"
      },
      {
        "astId": 2856,
        "contract": "contracts/PuroToucanCarbonOffsets.sol:PuroToucanCarbonOffsets",
        "label": "_allowances",
        "offset": 0,
        "slot": "52",
        "type": "t_mapping(t_address,t_mapping(t_address,t_uint256))"
      },
      {
        "astId": 2858,
        "contract": "contracts/PuroToucanCarbonOffsets.sol:PuroToucanCarbonOffsets",
        "label": "_totalSupply",
        "offset": 0,
        "slot": "53",
        "type": "t_uint256"
      },
      {
        "astId": 2860,
        "contract": "contracts/PuroToucanCarbonOffsets.sol:PuroToucanCarbonOffsets",
        "label": "_name",
        "offset": 0,
        "slot": "54",
        "type": "t_string_storage"
      },
      {
        "astId": 2862,
        "contract": "contracts/PuroToucanCarbonOffsets.sol:PuroToucanCarbonOffsets",
        "label": "_symbol",
        "offset": 0,
        "slot": "55",
        "type": "t_string_storage"
      },
      {
        "astId": 3441,
        "contract": "contracts/PuroToucanCarbonOffsets.sol:PuroToucanCarbonOffsets",
        "label": "__gap",
        "offset": 0,
        "slot": "56",
        "type": "t_array(t_uint256)45_storage"
      },
      {
        "astId": 16619,
        "contract": "contracts/PuroToucanCarbonOffsets.sol:PuroToucanCarbonOffsets",
        "label": "_projectVintageTokenId",
        "offset": 0,
        "slot": "101",
        "type": "t_uint256"
      },
      {
        "astId": 16621,
        "contract": "contracts/PuroToucanCarbonOffsets.sol:PuroToucanCarbonOffsets",
        "label": "contractRegistry",
        "offset": 0,
        "slot": "102",
        "type": "t_address"
      },
      {
        "astId": 16625,
        "contract": "contracts/PuroToucanCarbonOffsets.sol:PuroToucanCarbonOffsets",
        "label": "minterToId",
        "offset": 0,
        "slot": "103",
        "type": "t_mapping(t_address,t_uint256)"
      },
      {
        "astId": 16630,
        "contract": "contracts/PuroToucanCarbonOffsets.sol:PuroToucanCarbonOffsets",
        "label": "retiredAmount",
        "offset": 0,
        "slot": "104",
        "type": "t_mapping(t_address,t_uint256)"
      }
    ],
    "types": {
      "t_address": {
        "encoding": "inplace",
        "label": "address",
        "numberOfBytes": "20"
      },
      "t_array(t_uint256)45_storage": {
        "base": "t_uint256",
        "encoding": "inplace",
        "label": "uint256[45]",
        "numberOfBytes": "1440"
      },
      "t_array(t_uint256)50_storage": {
        "base": "t_uint256",
        "encoding": "inplace",
        "label": "uint256[50]",
        "numberOfBytes": "1600"
      },
      "t_bool": {
        "encoding": "inplace",
        "label": "bool",
        "numberOfBytes": "1"
      },
      "t_mapping(t_address,t_mapping(t_address,t_uint256))": {
        "encoding": "mapping",
        "key": "t_address",
        "label": "mapping(address => mapping(address => uint256))",
        "numberOfBytes": "32",
        "value": "t_mapping(t_address,t_uint256)"
      },
      "t_mapping(t_address,t_uint256)": {
        "encoding": "mapping",
        "key": "t_address",
        "label": "mapping(address => uint256)",
        "numberOfBytes": "32",
        "value": "t_uint256"
      },
      "t_string_storage": {
        "encoding": "bytes",
        "label": "string",
        "numberOfBytes": "32"
      },
      "t_uint256": {
        "encoding": "inplace",
        "label": "uint256",
        "numberOfBytes": "32"
      },
      "t_uint8": {
        "encoding": "inplace",
        "label": "uint8",
        "numberOfBytes": "1"
      }
    }
  }
}