{
  "address": "0x0feAD3f81B35e133f9D78F9029950cF1F6056Ea1",
  "abi": [
    {
      "anonymous": false,
      "inputs": [
        {
          "indexed": false,
          "internalType": "address",
          "name": "account",
          "type": "address"
        }
      ],
      "name": "AddedToAllowedBridges",
      "type": "event"
    },
    {
      "anonymous": false,
      "inputs": [
        {
          "indexed": false,
          "internalType": "address",
          "name": "previousAdmin",
          "type": "address"
        },
        {
          "indexed": false,
          "internalType": "address",
          "name": "newAdmin",
          "type": "address"
        }
      ],
      "name": "AdminChanged",
      "type": "event"
    },
    {
      "anonymous": false,
      "inputs": [
        {
          "indexed": true,
          "internalType": "address",
          "name": "beacon",
          "type": "address"
        }
      ],
      "name": "BeaconUpgraded",
      "type": "event"
    },
    {
      "anonymous": false,
      "inputs": [
        {
          "indexed": false,
          "internalType": "uint8",
          "name": "version",
          "type": "uint8"
        }
      ],
      "name": "Initialized",
      "type": "event"
    },
    {
      "anonymous": false,
      "inputs": [
        {
          "indexed": true,
          "internalType": "address",
          "name": "previousOwner",
          "type": "address"
        },
        {
          "indexed": true,
          "internalType": "address",
          "name": "newOwner",
          "type": "address"
        }
      ],
      "name": "OwnershipTransferred",
      "type": "event"
    },
    {
      "anonymous": false,
      "inputs": [
        {
          "indexed": false,
          "internalType": "address",
          "name": "account",
          "type": "address"
        }
      ],
      "name": "Paused",
      "type": "event"
    },
    {
      "anonymous": false,
      "inputs": [
        {
          "indexed": false,
          "internalType": "address",
          "name": "account",
          "type": "address"
        }
      ],
      "name": "RemovedFromallowedBridges",
      "type": "event"
    },
    {
      "anonymous": false,
      "inputs": [
        {
          "indexed": true,
          "internalType": "bytes32",
          "name": "role",
          "type": "bytes32"
        },
        {
          "indexed": true,
          "internalType": "bytes32",
          "name": "previousAdminRole",
          "type": "bytes32"
        },
        {
          "indexed": true,
          "internalType": "bytes32",
          "name": "newAdminRole",
          "type": "bytes32"
        }
      ],
      "name": "RoleAdminChanged",
      "type": "event"
    },
    {
      "anonymous": false,
      "inputs": [
        {
          "indexed": true,
          "internalType": "bytes32",
          "name": "role",
          "type": "bytes32"
        },
        {
          "indexed": true,
          "internalType": "address",
          "name": "account",
          "type": "address"
        },
        {
          "indexed": true,
          "internalType": "address",
          "name": "sender",
          "type": "address"
        }
      ],
      "name": "RoleGranted",
      "type": "event"
    },
    {
      "anonymous": false,
      "inputs": [
        {
          "indexed": true,
          "internalType": "bytes32",
          "name": "role",
          "type": "bytes32"
        },
        {
          "indexed": true,
          "internalType": "address",
          "name": "account",
          "type": "address"
        },
        {
          "indexed": true,
          "internalType": "address",
          "name": "sender",
          "type": "address"
        }
      ],
      "name": "RoleRevoked",
      "type": "event"
    },
    {
      "anonymous": false,
      "inputs": [
        {
          "indexed": false,
          "internalType": "uint256",
          "name": "vintageTokenId",
          "type": "uint256"
        },
        {
          "indexed": false,
          "internalType": "address",
          "name": "tokenAddress",
          "type": "address"
        }
      ],
      "name": "TokenCreated",
      "type": "event"
    },
    {
      "anonymous": false,
      "inputs": [
        {
          "indexed": false,
          "internalType": "address",
          "name": "account",
          "type": "address"
        }
      ],
      "name": "Unpaused",
      "type": "event"
    },
    {
      "anonymous": false,
      "inputs": [
        {
          "indexed": true,
          "internalType": "address",
          "name": "implementation",
          "type": "address"
        }
      ],
      "name": "Upgraded",
      "type": "event"
    },
    {
      "inputs": [],
      "name": "DEFAULT_ADMIN_ROLE",
      "outputs": [
        {
          "internalType": "bytes32",
          "name": "",
          "type": "bytes32"
        }
      ],
      "stateMutability": "view",
      "type": "function"
    },
    {
      "inputs": [],
      "name": "DETOKENIZER_ROLE",
      "outputs": [
        {
          "internalType": "bytes32",
          "name": "",
          "type": "bytes32"
        }
      ],
      "stateMutability": "view",
      "type": "function"
    },
    {
      "inputs": [],
      "name": "TOKENIZER_ROLE",
      "outputs": [
        {
          "internalType": "bytes32",
          "name": "",
          "type": "bytes32"
        }
      ],
      "stateMutability": "view",
      "type": "function"
    },
    {
      "inputs": [],
      "name": "VERSION",
      "outputs": [
        {
          "internalType": "string",
          "name": "",
          "type": "string"
        }
      ],
      "stateMutability": "view",
      "type": "function"
    },
    {
      "inputs": [],
      "name": "VERSION_RELEASE_CANDIDATE",
      "outputs": [
        {
          "internalType": "uint256",
          "name": "",
          "type": "uint256"
        }
      ],
      "stateMutability": "view",
      "type": "function"
    },
    {
      "inputs": [
        {
          "internalType": "address",
          "name": "account",
          "type": "address"
        }
      ],
      "name": "addToAllowedBridges",
      "outputs": [],
      "stateMutability": "nonpayable",
      "type": "function"
    },
    {
      "inputs": [
        {
          "internalType": "address",
          "name": "",
          "type": "address"
        }
      ],
      "name": "allowedBridges",
      "outputs": [
        {
          "internalType": "bool",
          "name": "",
          "type": "bool"
        }
      ],
      "stateMutability": "view",
      "type": "function"
    },
    {
      "inputs": [],
      "name": "beacon",
      "outputs": [
        {
          "internalType": "address",
          "name": "",
          "type": "address"
        }
      ],
      "stateMutability": "view",
      "type": "function"
    },
    {
      "inputs": [],
      "name": "bridgeFeeBurnAddress",
      "outputs": [
        {
          "internalType": "address",
          "name": "",
          "type": "address"
        }
      ],
      "stateMutability": "view",
      "type": "function"
    },
    {
      "inputs": [],
      "name": "bridgeFeeBurnPercentageInBase",
      "outputs": [
        {
          "internalType": "uint256",
          "name": "",
          "type": "uint256"
        }
      ],
      "stateMutability": "view",
      "type": "function"
    },
    {
      "inputs": [],
      "name": "bridgeFeeDivider",
      "outputs": [
        {
          "internalType": "uint256",
          "name": "",
          "type": "uint256"
        }
      ],
      "stateMutability": "view",
      "type": "function"
    },
    {
      "inputs": [],
      "name": "bridgeFeePercentageInBase",
      "outputs": [
        {
          "internalType": "uint256",
          "name": "",
          "type": "uint256"
        }
      ],
      "stateMutability": "view",
      "type": "function"
    },
    {
      "inputs": [],
      "name": "bridgeFeeReceiver",
      "outputs": [
        {
          "internalType": "address",
          "name": "",
          "type": "address"
        }
      ],
      "stateMutability": "view",
      "type": "function"
    },
    {
      "inputs": [],
      "name": "bridgeFeeReceiverAddress",
      "outputs": [
        {
          "internalType": "address",
          "name": "",
          "type": "address"
        }
      ],
      "stateMutability": "view",
      "type": "function"
    },
    {
      "inputs": [],
      "name": "contractRegistry",
      "outputs": [
        {
          "internalType": "address",
          "name": "",
          "type": "address"
        }
      ],
      "stateMutability": "view",
      "type": "function"
    },
    {
      "inputs": [
        {
          "internalType": "uint256",
          "name": "projectVintageTokenId",
          "type": "uint256"
        }
      ],
      "name": "deployFromVintage",
      "outputs": [],
      "stateMutability": "nonpayable",
      "type": "function"
    },
    {
      "inputs": [
        {
          "internalType": "uint256",
          "name": "",
          "type": "uint256"
        }
      ],
      "name": "deployedContracts",
      "outputs": [
        {
          "internalType": "address",
          "name": "",
          "type": "address"
        }
      ],
      "stateMutability": "view",
      "type": "function"
    },
    {
      "inputs": [
        {
          "internalType": "uint256",
          "name": "_quantity",
          "type": "uint256"
        }
      ],
      "name": "getBridgeFeeAndBurnAmount",
      "outputs": [
        {
          "internalType": "uint256",
          "name": "",
          "type": "uint256"
        },
        {
          "internalType": "uint256",
          "name": "",
          "type": "uint256"
        }
      ],
      "stateMutability": "view",
      "type": "function"
    },
    {
      "inputs": [],
      "name": "getContracts",
      "outputs": [
        {
          "internalType": "address[]",
          "name": "",
          "type": "address[]"
        }
      ],
      "stateMutability": "view",
      "type": "function"
    },
    {
      "inputs": [
        {
          "internalType": "bytes32",
          "name": "role",
          "type": "bytes32"
        }
      ],
      "name": "getRoleAdmin",
      "outputs": [
        {
          "internalType": "bytes32",
          "name": "",
          "type": "bytes32"
        }
      ],
      "stateMutability": "view",
      "type": "function"
    },
    {
      "inputs": [
        {
          "internalType": "bytes32",
          "name": "role",
          "type": "bytes32"
        },
        {
          "internalType": "address",
          "name": "account",
          "type": "address"
        }
      ],
      "name": "grantRole",
      "outputs": [],
      "stateMutability": "nonpayable",
      "type": "function"
    },
    {
      "inputs": [
        {
          "internalType": "bytes32",
          "name": "role",
          "type": "bytes32"
        },
        {
          "internalType": "address",
          "name": "account",
          "type": "address"
        }
      ],
      "name": "hasRole",
      "outputs": [
        {
          "internalType": "bool",
          "name": "",
          "type": "bool"
        }
      ],
      "stateMutability": "view",
      "type": "function"
    },
    {
      "inputs": [
        {
          "internalType": "address",
          "name": "_contractRegistry",
          "type": "address"
        },
        {
          "internalType": "address[]",
          "name": "_accounts",
          "type": "address[]"
        },
        {
          "internalType": "bytes32[]",
          "name": "_roles",
          "type": "bytes32[]"
        }
      ],
      "name": "initialize",
      "outputs": [],
      "stateMutability": "nonpayable",
      "type": "function"
    },
    {
      "inputs": [],
      "name": "owner",
      "outputs": [
        {
          "internalType": "address",
          "name": "",
          "type": "address"
        }
      ],
      "stateMutability": "view",
      "type": "function"
    },
    {
      "inputs": [],
      "name": "pause",
      "outputs": [],
      "stateMutability": "nonpayable",
      "type": "function"
    },
    {
      "inputs": [],
      "name": "paused",
      "outputs": [
        {
          "internalType": "bool",
          "name": "",
          "type": "bool"
        }
      ],
      "stateMutability": "view",
      "type": "function"
    },
    {
      "inputs": [],
      "name": "proxiableUUID",
      "outputs": [
        {
          "internalType": "bytes32",
          "name": "",
          "type": "bytes32"
        }
      ],
      "stateMutability": "view",
      "type": "function"
    },
    {
      "inputs": [
        {
          "internalType": "uint256",
          "name": "",
          "type": "uint256"
        }
      ],
      "name": "pvIdtoERC20",
      "outputs": [
        {
          "internalType": "address",
          "name": "",
          "type": "address"
        }
      ],
      "stateMutability": "view",
      "type": "function"
    },
    {
      "inputs": [
        {
          "internalType": "address",
          "name": "account",
          "type": "address"
        }
      ],
      "name": "removeFromAllowedBridges",
      "outputs": [],
      "stateMutability": "nonpayable",
      "type": "function"
    },
    {
      "inputs": [],
      "name": "renounceOwnership",
      "outputs": [],
      "stateMutability": "nonpayable",
      "type": "function"
    },
    {
      "inputs": [
        {
          "internalType": "bytes32",
          "name": "role",
          "type": "bytes32"
        },
        {
          "internalType": "address",
          "name": "account",
          "type": "address"
        }
      ],
      "name": "renounceRole",
      "outputs": [],
      "stateMutability": "nonpayable",
      "type": "function"
    },
    {
      "inputs": [
        {
          "internalType": "bytes32",
          "name": "role",
          "type": "bytes32"
        },
        {
          "internalType": "address",
          "name": "account",
          "type": "address"
        }
      ],
      "name": "revokeRole",
      "outputs": [],
      "stateMutability": "nonpayable",
      "type": "function"
    },
    {
      "inputs": [
        {
          "internalType": "address",
          "name": "_beacon",
          "type": "address"
        }
      ],
      "name": "setBeacon",
      "outputs": [],
      "stateMutability": "nonpayable",
      "type": "function"
    },
    {
      "inputs": [
        {
          "internalType": "address",
          "name": "_bridgeFeeBurnAddress",
          "type": "address"
        }
      ],
      "name": "setBridgeFeeBurnAddress",
      "outputs": [],
      "stateMutability": "nonpayable",
      "type": "function"
    },
    {
      "inputs": [
        {
          "internalType": "uint256",
          "name": "_bridgeFeeBurnPercentageInBase",
          "type": "uint256"
        }
      ],
      "name": "setBridgeFeeBurnPercentage",
      "outputs": [],
      "stateMutability": "nonpayable",
      "type": "function"
    },
    {
      "inputs": [
        {
          "internalType": "uint256",
          "name": "_bridgeFeePercentageInBase",
          "type": "uint256"
        }
      ],
      "name": "setBridgeFeePercentage",
      "outputs": [],
      "stateMutability": "nonpayable",
      "type": "function"
    },
    {
      "inputs": [
        {
          "internalType": "address",
          "name": "_bridgeFeeReceiver",
          "type": "address"
        }
      ],
      "name": "setBridgeFeeReceiver",
      "outputs": [],
      "stateMutability": "nonpayable",
      "type": "function"
    },
    {
      "inputs": [
        {
          "internalType": "address",
          "name": "_address",
          "type": "address"
        }
      ],
      "name": "setToucanContractRegistry",
      "outputs": [],
      "stateMutability": "nonpayable",
      "type": "function"
    },
    {
      "inputs": [],
      "name": "standardRegistry",
      "outputs": [
        {
          "internalType": "string",
          "name": "",
          "type": "string"
        }
      ],
      "stateMutability": "pure",
      "type": "function"
    },
    {
      "inputs": [],
      "name": "supportedStandards",
      "outputs": [
        {
          "internalType": "string[]",
          "name": "",
          "type": "string[]"
        }
      ],
      "stateMutability": "pure",
      "type": "function"
    },
    {
      "inputs": [
        {
          "internalType": "bytes4",
          "name": "interfaceId",
          "type": "bytes4"
        }
      ],
      "name": "supportsInterface",
      "outputs": [
        {
          "internalType": "bool",
          "name": "",
          "type": "bool"
        }
      ],
      "stateMutability": "view",
      "type": "function"
    },
    {
      "inputs": [
        {
          "internalType": "address",
          "name": "newOwner",
          "type": "address"
        }
      ],
      "name": "transferOwnership",
      "outputs": [],
      "stateMutability": "nonpayable",
      "type": "function"
    },
    {
      "inputs": [],
      "name": "unpause",
      "outputs": [],
      "stateMutability": "nonpayable",
      "type": "function"
    },
    {
      "inputs": [
        {
          "internalType": "address",
          "name": "newImplementation",
          "type": "address"
        }
      ],
      "name": "upgradeTo",
      "outputs": [],
      "stateMutability": "nonpayable",
      "type": "function"
    },
    {
      "inputs": [
        {
          "internalType": "address",
          "name": "newImplementation",
          "type": "address"
        },
        {
          "internalType": "bytes",
          "name": "data",
          "type": "bytes"
        }
      ],
      "name": "upgradeToAndCall",
      "outputs": [],
      "stateMutability": "payable",
      "type": "function"
    }
  ],
  "numDeployments": 1,
  "solcInputHash": "e3565ff7a1db364dadc829803faabdcc",
  "bytecode": "0x60a0604052306080523480156200001557600080fd5b506200002062000026565b62000158565b6200003260ff62000035565b50565b600354600090610100900460ff1615620000d0578160ff1660011480156200007057506200006e306200014960201b620015511760201c565b155b620000c85760405162461bcd60e51b815260206004820152602e602482015260008051602062003f6383398151915260448201526d191e481a5b9a5d1a585b1a5e995960921b60648201526084015b60405180910390fd5b506000919050565b60035460ff8084169116106200012f5760405162461bcd60e51b815260206004820152602e602482015260008051602062003f6383398151915260448201526d191e481a5b9a5d1a585b1a5e995960921b6064820152608401620000bf565b506003805460ff191660ff92909216919091179055600190565b6001600160a01b03163b151590565b608051613dd36200019060003960008181610af701528181610b3a01528181610da901528181610dec0152610e840152613dd36000f3fe608060405260043610620002a75760003560e01c8063715018a6116200016b578063b3b6014211620000d1578063e882e37b1162000084578063e882e37b146200085d578063f2fde38b1462000882578063f379a5a214620008a7578063f8513c6214620008e2578063f8d8353f1462000904578063ffa1ad74146200092957600080fd5b8063b3b601421462000789578063c3a2a93a14620007ae578063d42afb5614620007d5578063d547741f14620007fa578063dee02cba146200081f578063e60b6da8146200084457600080fd5b80638da5cb5b116200012a5780638da5cb5b14620006cd57806391d1485414620006ed578063936d8e2414620007125780639ad1ee10146200072b578063a217fddf1462000750578063abf410e5146200076757600080fd5b8063715018a614620006405780637f05b305146200065857806380e2d3f0146200067d5780638456cb59146200069d5780638891792a14620006b557600080fd5b80633ed9b17b116200021157806359659e9011620001d057806359659e9014620005585780635c6f3a90146200057a5780635c975abb14620005b05780635e813d3c14620005ca5780636a0031cc14620006045780636ca0b0d7146200062957600080fd5b80633ed9b17b14620004b05780633f4ba83a14620004d55780634f1ef28614620004ed57806352d1902d1462000504578063581cd110146200051c57600080fd5b80632626c3be116200026a5780632626c3be14620003bc5780632f2ff15d14620003e157806336568abe14620004065780633659cfe6146200042b57806338b10b2114620004505780633c31175e146200047757600080fd5b806301ffc9a714620002ac578063056195a714620002e65780630605a334146200030d578063235fcebe1462000352578063248a9ca31462000387575b600080fd5b348015620002b957600080fd5b50620002d1620002cb366004620027e1565b6200095c565b60405190151581526020015b60405180910390f35b348015620002f357600080fd5b506200030b6200030536600462002823565b62000994565b005b3480156200031a57600080fd5b50620003437fe70d28ebd9d7d9a3dd77d46ae2481f301c80806f395b08de31d8e095b1c46cee81565b604051908152602001620002dd565b3480156200035f57600080fd5b50620002d16200037136600462002823565b6101046020526000908152604090205460ff1681565b3480156200039457600080fd5b5062000343620003a636600462002843565b6000908152610163602052604090206001015490565b348015620003c957600080fd5b506200030b620003db36600462002823565b620009ed565b348015620003ee57600080fd5b506200030b620004003660046200285d565b62000a3c565b3480156200041357600080fd5b506200030b620004253660046200285d565b62000a6b565b3480156200043857600080fd5b506200030b6200044a36600462002823565b62000aed565b3480156200045d57600080fd5b506200046862000bd8565b604051620002dd9190620028ed565b3480156200048457600080fd5b506040805180820190915260048152637075726f60e01b60208201525b604051620002dd919062002953565b348015620004bd57600080fd5b506200030b620004cf36600462002823565b62000c4e565b348015620004e257600080fd5b506200030b62000d37565b6200030b620004fe36600462002a31565b62000d9f565b3480156200051157600080fd5b506200034362000e77565b3480156200052957600080fd5b50610101546200053f906001600160a01b031681565b6040516001600160a01b039091168152602001620002dd565b3480156200056557600080fd5b5060fe546200053f906001600160a01b031681565b3480156200058757600080fd5b50620003437ffb7778e60e898528875e31f94e3a623d6302be2aa540c7a7f5ae26fe5ee2498d81565b348015620005bd57600080fd5b5060685460ff16620002d1565b348015620005d757600080fd5b506200053f620005e936600462002843565b6002602052600090815260409020546001600160a01b031681565b3480156200061157600080fd5b506200030b6200062336600462002843565b62000f2d565b3480156200063657600080fd5b5062000343600181565b3480156200064d57600080fd5b506200030b62000fd9565b3480156200066557600080fd5b506200030b6200067736600462002823565b62001014565b3480156200068a57600080fd5b5060ff546001600160a01b03166200053f565b348015620006aa57600080fd5b506200030b620010f6565b348015620006c257600080fd5b506200034361271081565b348015620006da57600080fd5b506036546001600160a01b03166200053f565b348015620006fa57600080fd5b50620002d16200070c3660046200285d565b6200115e565b3480156200071f57600080fd5b50620003436101025481565b3480156200073857600080fd5b506200053f6200074a36600462002843565b6200118a565b3480156200075d57600080fd5b5062000343600081565b3480156200077457600080fd5b506000546200053f906001600160a01b031681565b3480156200079657600080fd5b506200030b620007a836600462002843565b620011b5565b348015620007bb57600080fd5b50620007c6620011e6565b604051620002dd919062002ace565b348015620007e257600080fd5b506200030b620007f436600462002823565b6200124a565b3480156200080757600080fd5b506200030b620008193660046200285d565b62001299565b3480156200082c57600080fd5b506200030b6200083e36600462002843565b620012c3565b3480156200085157600080fd5b50620003436101005481565b3480156200086a57600080fd5b506200030b6200087c36600462002823565b6200136f565b3480156200088f57600080fd5b506200030b620008a136600462002823565b620013be565b348015620008b457600080fd5b50620008cc620008c636600462002843565b6200145d565b60408051928352602083019190915201620002dd565b348015620008ef57600080fd5b5060ff546200053f906001600160a01b031681565b3480156200091157600080fd5b506200030b6200092336600462002b6c565b620014b2565b3480156200093657600080fd5b50620004a1604051806040016040528060058152602001640312e302e360dc1b81525081565b60006001600160e01b03198216637965db0b60e01b14806200098e57506301ffc9a760e01b6001600160e01b03198316145b92915050565b6036546001600160a01b03163314620009ca5760405162461bcd60e51b8152600401620009c19062002bf8565b60405180910390fd5b61010180546001600160a01b0319166001600160a01b0392909216919091179055565b6036546001600160a01b0316331462000a1a5760405162461bcd60e51b8152600401620009c19062002bf8565b60ff80546001600160a01b0319166001600160a01b0392909216919091179055565b6000828152610163602052604090206001015462000a5a8162001560565b62000a6683836200156c565b505050565b6001600160a01b038116331462000add5760405162461bcd60e51b815260206004820152602f60248201527f416363657373436f6e74726f6c3a2063616e206f6e6c792072656e6f756e636560448201526e103937b632b9903337b91039b2b63360891b6064820152608401620009c1565b62000ae98282620015f7565b5050565b6001600160a01b037f000000000000000000000000000000000000000000000000000000000000000016300362000b385760405162461bcd60e51b8152600401620009c19062002c2d565b7f00000000000000000000000000000000000000000000000000000000000000006001600160a01b031662000b8360008051602062003d2e833981519152546001600160a01b031690565b6001600160a01b03161462000bac5760405162461bcd60e51b8152600401620009c19062002c79565b62000bb78162001662565b6040805160008082526020820190925262000bd5918391906200168f565b50565b60408051600180825281830190925260609160009190816020015b606081526020019060019003908162000bf3579050509050604051806040016040528060048152602001635055524f60e01b8152508160008151811062000c3e5762000c3e62002cc5565b6020908102919091010152919050565b6036546001600160a01b0316331462000c7b5760405162461bcd60e51b8152600401620009c19062002bf8565b6001600160a01b0381166000908152610104602052604090205460ff168062000cdd5760405162461bcd60e51b8152602060048201526013602482015272105b1c9958591e481b9bdd08185b1b1bddd959606a1b6044820152606401620009c1565b6001600160a01b03821660008181526101046020908152604091829020805460ff1916905590519182527fe1f1103cfadf05f922cd1ed035283eed4d6e2d4c343210b7ac5f84a472bcfd7691015b60405180910390a15050565b6000546001600160a01b031662000d566036546001600160a01b031690565b6001600160a01b03821633148062000d7657506001600160a01b03811633145b62000d955760405162461bcd60e51b8152600401620009c19062002cdb565b62000ae962001807565b6001600160a01b037f000000000000000000000000000000000000000000000000000000000000000016300362000dea5760405162461bcd60e51b8152600401620009c19062002c2d565b7f00000000000000000000000000000000000000000000000000000000000000006001600160a01b031662000e3560008051602062003d2e833981519152546001600160a01b031690565b6001600160a01b03161462000e5e5760405162461bcd60e51b8152600401620009c19062002c79565b62000e698262001662565b62000ae9828260016200168f565b6000306001600160a01b037f0000000000000000000000000000000000000000000000000000000000000000161462000f195760405162461bcd60e51b815260206004820152603860248201527f555550535570677261646561626c653a206d757374206e6f742062652063616c60448201527f6c6564207468726f7567682064656c656761746563616c6c00000000000000006064820152608401620009c1565b5060008051602062003d2e83398151915290565b6036546001600160a01b0316331462000f5a5760405162461bcd60e51b8152600401620009c19062002bf8565b612710811062000fd35760405162461bcd60e51b815260206004820152603b60248201527f627269646765206665652070657263656e74616765206d757374206265206c6f60448201527f776572207468616e2062726964676520666565206469766964657200000000006064820152608401620009c1565b61010055565b6036546001600160a01b03163314620010065760405162461bcd60e51b8152600401620009c19062002bf8565b6200101260006200189c565b565b6036546001600160a01b03163314620010415760405162461bcd60e51b8152600401620009c19062002bf8565b6001600160a01b0381166000908152610104602052604090205460ff168015620010a05760405162461bcd60e51b815260206004820152600f60248201526e105b1c9958591e48185b1b1bddd959608a1b6044820152606401620009c1565b6001600160a01b03821660008181526101046020908152604091829020805460ff1916600117905590519182527fed9735b851438eeeaf428e48851f731122eb39b1d8027c2c3158f7f0b2d54706910162000d2b565b6000546001600160a01b0316620011156036546001600160a01b031690565b6001600160a01b0382163314806200113557506001600160a01b03811633145b620011545760405162461bcd60e51b8152600401620009c19062002cdb565b62000ae9620018ee565b6000918252610163602090815260408084206001600160a01b0393909316845291905290205460ff1690565b600181815481106200119b57600080fd5b6000918252602090912001546001600160a01b0316905081565b60685460ff1615620011db5760405162461bcd60e51b8152600401620009c19062002d20565b62000bd5816200194a565b606060018054806020026020016040519081016040528092919081815260200182805480156200124057602002820191906000526020600020905b81546001600160a01b0316815260019091019060200180831162001221575b5050505050905090565b6036546001600160a01b03163314620012775760405162461bcd60e51b8152600401620009c19062002bf8565b60fe80546001600160a01b0319166001600160a01b0392909216919091179055565b60008281526101636020526040902060010154620012b78162001560565b62000a668383620015f7565b6036546001600160a01b03163314620012f05760405162461bcd60e51b8152600401620009c19062002bf8565b6127108110620013695760405162461bcd60e51b815260206004820152603960248201527f6275726e206665652070657263656e74616765206d757374206265206c6f776560448201527f72207468616e20627269646765206665652064697669646572000000000000006064820152608401620009c1565b61010255565b6036546001600160a01b031633146200139c5760405162461bcd60e51b8152600401620009c19062002bf8565b600080546001600160a01b0319166001600160a01b0392909216919091179055565b6036546001600160a01b03163314620013eb5760405162461bcd60e51b8152600401620009c19062002bf8565b6001600160a01b038116620014525760405162461bcd60e51b815260206004820152602660248201527f4f776e61626c653a206e6577206f776e657220697320746865207a65726f206160448201526564647265737360d01b6064820152608401620009c1565b62000bd5816200189c565b6000806000612710610100548562001476919062002d60565b62001482919062002d82565b9050600061271061010254836200149a919062002d60565b620014a6919062002d82565b91959194509092505050565b6000620014c0600162001cd2565b90508015620014d9576003805461ff0019166101001790555b620014e78585858562001d69565b600080546001600160a01b0319166001600160a01b038816179055801562001549576003805461ff0019169055604051600181527f7f26b83ff96e1f2b6a682f133852f6798a09c465da95921460cefb38474024989060200160405180910390a15b505050505050565b6001600160a01b03163b151590565b62000bd5813362001ecb565b6200157882826200115e565b62000ae9576000828152610163602090815260408083206001600160a01b03851684529091529020805460ff19166001179055620015b33390565b6001600160a01b0316816001600160a01b0316837f2f8788117e7eff1d82e926ec794901d17c78024a50270940304540a733656f0d60405160405180910390a45050565b6200160382826200115e565b1562000ae9576000828152610163602090815260408083206001600160a01b0385168085529252808320805460ff1916905551339285917ff6391f5c32d9c69d2a47ea670b442974b53935d1edc7fd64eb21e047a839171b9190a45050565b6036546001600160a01b0316331462000bd55760405162461bcd60e51b8152600401620009c19062002bf8565b7f4910fdfa16fed3260ed0e7147f7cc6da11a60208b5b9406d12a635614ffd91435460ff1615620016c55762000a668362001f3a565b826001600160a01b03166352d1902d6040518163ffffffff1660e01b8152600401602060405180830381865afa92505050801562001722575060408051601f3d908101601f191682019092526200171f9181019062002da5565b60015b620017875760405162461bcd60e51b815260206004820152602e60248201527f45524331393637557067726164653a206e657720696d706c656d656e7461746960448201526d6f6e206973206e6f74205555505360901b6064820152608401620009c1565b60008051602062003d2e8339815191528114620017f95760405162461bcd60e51b815260206004820152602960248201527f45524331393637557067726164653a20756e737570706f727465642070726f786044820152681a58589b195555525160ba1b6064820152608401620009c1565b5062000a6683838362001fd9565b60685460ff16620018525760405162461bcd60e51b815260206004820152601460248201527314185d5cd8589b194e881b9bdd081c185d5cd95960621b6044820152606401620009c1565b6068805460ff191690557f5db9ee0a495bf2e6ff9c91a7834c1ba4fdd244a5e8aa4e537bd38aeae4b073aa335b6040516001600160a01b03909116815260200160405180910390a1565b603680546001600160a01b038381166001600160a01b0319831681179093556040519116919082907f8be0079c531659141344cd1fd0a4f28419497f9722a3daafe3b4186f6b6457e090600090a35050565b60685460ff1615620019145760405162461bcd60e51b8152600401620009c19062002d20565b6068805460ff191660011790557f62e78cea01bee320cd4e420270b5ea74000d11b0c9f74754ebdbfc544b05a2586200187f3390565b60685460ff1615620019705760405162461bcd60e51b8152600401620009c19062002d20565b60fe546001600160a01b0316620019ca5760405162461bcd60e51b815260206004820152601f60248201527f4572726f723a20426561636f6e20666f722070726f7879206e6f7420736574006044820152606401620009c1565b620019d5816200200a565b1562001a1d5760405162461bcd60e51b81526020600482015260166024820152757076455243323020616c72656164792065786973747360501b6044820152606401620009c1565b60005462001a35906001600160a01b03168262002037565b62001a40816200216d565b62001a815760405162461bcd60e51b815260206004820152601060248201526f125b9d985b1a59081cdd185b99185c9960821b6044820152606401620009c1565b600060405180606001604052806029815260200162003d75602991396000805460405160806024820152601560a4820152742a37bab1b0b710283937ba37b1b7b61d102a21a79960591b60c482015260c06044820152600460e4820152632a21a79960e11b610104820152606481018690526001600160a01b0390911660848201529192509082906101240160408051601f19818403018152908290529162001b2a9162002dbf565b60408051918290039091206020830180516001600160e01b03166001600160e01b031990921691909117905260fe5490519192506000916001600160a01b0390911690839062001b7a90620027d3565b62001b8792919062002ddd565b604051809103906000f08015801562001ba4573d6000803e3d6000fd5b506000549091506001600160a01b031663344dd6cb8262001bdc6040805180820190915260048152637075726f60e01b602082015290565b6040518363ffffffff1660e01b815260040162001bfb92919062002ddd565b600060405180830381600087803b15801562001c1657600080fd5b505af115801562001c2b573d6000803e3d6000fd5b5050600180548082019091557fb10e2d527612073b26eecdfd717e6a320cf44b4afac2b0732d9fcbe2b7fa0cf60180546001600160a01b0385166001600160a01b03199182168117909255600088815260026020908152604091829020805490931684179092558051898152918201929092527fc331dc3e37e2ab4d6e65d42a119ffdfab8481b9be24d26704f9f4b4a331d4dd0935001905060405180910390a150505050565b600354600090610100900460ff161562001d20578160ff16600114801562001cf95750303b155b62001d185760405162461bcd60e51b8152600401620009c19062002e0b565b506000919050565b60035460ff80841691161062001d4a5760405162461bcd60e51b8152600401620009c19062002e0b565b506003805460ff191660ff92909216919091179055600190565b919050565b82811462001db25760405162461bcd60e51b8152602060048201526015602482015274082e4e4c2f240d8cadccee8d040dad2e6dac2e8c6d605b1b6044820152606401620009c1565b62001dbc620023d9565b62001dc662002403565b62001dd062002438565b62001dda620023d9565b62001de4620023d9565b6000805b8481101562001e7f5762001e4384848381811062001e0a5762001e0a62002cc5565b9050602002013587878481811062001e265762001e2662002cc5565b905060200201602081019062001e3d919062002823565b6200156c565b600084848381811062001e5a5762001e5a62002cc5565b905060200201350362001e6c57600191505b62001e778162002e59565b905062001de8565b508062001ec45760405162461bcd60e51b8152602060048201526012602482015271139bc818591b5a5b881cdc1958da599a595960721b6044820152606401620009c1565b5050505050565b62001ed782826200115e565b62000ae95762001ef2816001600160a01b031660146200246e565b62001eff8360206200246e565b60405160200162001f1292919062002e75565b60408051601f198184030181529082905262461bcd60e51b8252620009c19160040162002953565b6001600160a01b0381163b62001fa95760405162461bcd60e51b815260206004820152602d60248201527f455243313936373a206e657720696d706c656d656e746174696f6e206973206e60448201526c1bdd08184818dbdb9d1c9858dd609a1b6064820152608401620009c1565b60008051602062003d2e83398151915280546001600160a01b0319166001600160a01b0392909216919091179055565b62001fe4836200262f565b60008251118062001ff25750805b1562000a665762002004838362002671565b50505050565b6000818152600260205260408120546001600160a01b03166200202f57506000919050565b506001919050565b6000826001600160a01b031663a0af25606040518163ffffffff1660e01b8152600401602060405180830381865afa15801562002078573d6000803e3d6000fd5b505050506040513d601f19601f820116820180604052508101906200209e919062002efb565b604051634f558e7960e01b8152600481018490529091506001600160a01b03821690634f558e7990602401602060405180830381865afa158015620020e7573d6000803e3d6000fd5b505050506040513d601f19601f820116820180604052508101906200210d919062002f2c565b62000a665760405162461bcd60e51b815260206004820152602960248201527f436172626f6e2070726f6a6563742076696e7461676520646f6573206e6f74206044820152681e595d08195e1a5cdd60ba1b6064820152608401620009c1565b60008060008054906101000a90046001600160a01b031690506000816001600160a01b03166301157a836040518163ffffffff1660e01b8152600401602060405180830381865afa158015620021c7573d6000803e3d6000fd5b505050506040513d601f19601f82011682018060405250810190620021ed919062002efb565b90506000826001600160a01b031663a0af25606040518163ffffffff1660e01b8152600401602060405180830381865afa15801562002230573d6000803e3d6000fd5b505050506040513d601f19601f8201168201806040525081019062002256919062002efb565b60405163056efc1d60e21b8152600481018790529091506000906001600160a01b038316906315bbf07490602401600060405180830381865afa158015620022a2573d6000803e3d6000fd5b505050506040513d6000823e601f3d908101601f19168201604052620022cc919081019062002faf565b90506000836001600160a01b03166347e3168683606001516040518263ffffffff1660e01b81526004016200230391815260200190565b600060405180830381865afa15801562002321573d6000803e3d6000fd5b505050506040513d6000823e601f3d908101601f191682016040526200234b91908101906200315b565b905060006200235962000bd8565b805160208401519192509060005b82811015620023c857600084828151811062002387576200238762002cc5565b60200260200101519050620023a681846200276e90919063ffffffff16565b15620023be575060019b9a5050505050505050505050565b5060010162002367565b5060009a9950505050505050505050565b600354610100900460ff16620010125760405162461bcd60e51b8152600401620009c19062003323565b600354610100900460ff166200242d5760405162461bcd60e51b8152600401620009c19062003323565b62001012336200189c565b600354610100900460ff16620024625760405162461bcd60e51b8152600401620009c19062003323565b6068805460ff19169055565b606060006200247f83600262002d60565b6200248c9060026200336e565b67ffffffffffffffff811115620024a757620024a762002968565b6040519080825280601f01601f191660200182016040528015620024d2576020820181803683370190505b509050600360fc1b81600081518110620024f057620024f062002cc5565b60200101906001600160f81b031916908160001a905350600f60fb1b8160018151811062002522576200252262002cc5565b60200101906001600160f81b031916908160001a90535060006200254884600262002d60565b620025559060016200336e565b90505b6001811115620025d7576f181899199a1a9b1b9c1cb0b131b232b360811b85600f16601081106200258d576200258d62002cc5565b1a60f81b828281518110620025a657620025a662002cc5565b60200101906001600160f81b031916908160001a90535060049490941c93620025cf8162003389565b905062002558565b508315620026285760405162461bcd60e51b815260206004820181905260248201527f537472696e67733a20686578206c656e67746820696e73756666696369656e746044820152606401620009c1565b9392505050565b6200263a8162001f3a565b6040516001600160a01b038216907fbc7cd75a20ee27fd9adebab32041f755214dbc6bffa90cc0225b39da2e5c2d3b90600090a250565b60606001600160a01b0383163b620026db5760405162461bcd60e51b815260206004820152602660248201527f416464726573733a2064656c65676174652063616c6c20746f206e6f6e2d636f6044820152651b9d1c9858dd60d21b6064820152608401620009c1565b600080846001600160a01b031684604051620026f8919062002dbf565b600060405180830381855af49150503d806000811462002735576040519150601f19603f3d011682016040523d82523d6000602084013e6200273a565b606091505b509150915062002765828260405180606001604052806027815260200162003d4e6027913962002795565b95945050505050565b60008151835114801562002628575081805190602001208380519060200120149392505050565b60608315620027a657508162002628565b825115620027b75782518084602001fd5b8160405162461bcd60e51b8152600401620009c1919062002953565b61098a80620033a483390190565b600060208284031215620027f457600080fd5b81356001600160e01b0319811681146200262857600080fd5b6001600160a01b038116811462000bd557600080fd5b6000602082840312156200283657600080fd5b813562002628816200280d565b6000602082840312156200285657600080fd5b5035919050565b600080604083850312156200287157600080fd5b82359150602083013562002885816200280d565b809150509250929050565b60005b83811015620028ad57818101518382015260200162002893565b83811115620020045750506000910152565b60008151808452620028d981602086016020860162002890565b601f01601f19169290920160200192915050565b6000602080830181845280855180835260408601915060408160051b870101925083870160005b828110156200294657603f1988860301845262002933858351620028bf565b9450928501929085019060010162002914565b5092979650505050505050565b602081526000620026286020830184620028bf565b634e487b7160e01b600052604160045260246000fd5b604051610180810167ffffffffffffffff81118282101715620029a557620029a562002968565b60405290565b604051610140810167ffffffffffffffff81118282101715620029a557620029a562002968565b604051601f8201601f1916810167ffffffffffffffff81118282101715620029fe57620029fe62002968565b604052919050565b600067ffffffffffffffff82111562002a235762002a2362002968565b50601f01601f191660200190565b6000806040838503121562002a4557600080fd5b823562002a52816200280d565b9150602083013567ffffffffffffffff81111562002a6f57600080fd5b8301601f8101851362002a8157600080fd5b803562002a9862002a928262002a06565b620029d2565b81815286602083850101111562002aae57600080fd5b816020840160208301376000602083830101528093505050509250929050565b6020808252825182820181905260009190848201906040850190845b8181101562002b115783516001600160a01b03168352928401929184019160010162002aea565b50909695505050505050565b60008083601f84011262002b3057600080fd5b50813567ffffffffffffffff81111562002b4957600080fd5b6020830191508360208260051b850101111562002b6557600080fd5b9250929050565b60008060008060006060868803121562002b8557600080fd5b853562002b92816200280d565b9450602086013567ffffffffffffffff8082111562002bb057600080fd5b62002bbe89838a0162002b1d565b9096509450604088013591508082111562002bd857600080fd5b5062002be78882890162002b1d565b969995985093965092949392505050565b6020808252818101527f4f776e61626c653a2063616c6c6572206973206e6f7420746865206f776e6572604082015260600190565b6020808252602c908201527f46756e6374696f6e206d7573742062652063616c6c6564207468726f7567682060408201526b19195b1959d85d1958d85b1b60a21b606082015260800190565b6020808252602c908201527f46756e6374696f6e206d7573742062652063616c6c6564207468726f7567682060408201526b6163746976652070726f787960a01b606082015260800190565b634e487b7160e01b600052603260045260246000fd5b60208082526025908201527f43616c6c6572206973206e6f74207468652072656769737472792c206e6f722060408201526437bbb732b960d91b606082015260800190565b60208082526010908201526f14185d5cd8589b194e881c185d5cd95960821b604082015260600190565b634e487b7160e01b600052601160045260246000fd5b600081600019048311821515161562002d7d5762002d7d62002d4a565b500290565b60008262002da057634e487b7160e01b600052601260045260246000fd5b500490565b60006020828403121562002db857600080fd5b5051919050565b6000825162002dd381846020870162002890565b9190910192915050565b6001600160a01b038316815260406020820181905260009062002e0390830184620028bf565b949350505050565b6020808252602e908201527f496e697469616c697a61626c653a20636f6e747261637420697320616c72656160408201526d191e481a5b9a5d1a585b1a5e995960921b606082015260800190565b60006001820162002e6e5762002e6e62002d4a565b5060010190565b7f416363657373436f6e74726f6c3a206163636f756e742000000000000000000081526000835162002eaf81601785016020880162002890565b7001034b99036b4b9b9b4b733903937b6329607d1b601791840191820152835162002ee281602884016020880162002890565b01602801949350505050565b805162001d64816200280d565b60006020828403121562002f0e57600080fd5b815162002628816200280d565b8051801515811462001d6457600080fd5b60006020828403121562002f3f57600080fd5b620026288262002f1b565b600082601f83011262002f5c57600080fd5b815162002f6d62002a928262002a06565b81815284602083860101111562002f8357600080fd5b62002e0382602083016020870162002890565b805167ffffffffffffffff8116811462001d6457600080fd5b60006020828403121562002fc257600080fd5b815167ffffffffffffffff8082111562002fdb57600080fd5b90830190610180828603121562002ff157600080fd5b62002ffb6200297e565b8251828111156200300b57600080fd5b620030198782860162002f4a565b8252506200302a6020840162002f96565b60208201526200303d6040840162002f96565b6040820152606083015160608201526200305a6080840162002f96565b60808201526200306d60a0840162002f1b565b60a08201526200308060c0840162002f1b565b60c082015260e0830151828111156200309857600080fd5b620030a68782860162002f4a565b60e0830152506101008084015183811115620030c157600080fd5b620030cf8882870162002f4a565b8284015250506101208084015183811115620030ea57600080fd5b620030f88882870162002f4a565b82840152505061014080840151838111156200311357600080fd5b620031218882870162002f4a565b82840152505061016080840151838111156200313c57600080fd5b6200314a8882870162002f4a565b918301919091525095945050505050565b6000602082840312156200316e57600080fd5b815167ffffffffffffffff808211156200318757600080fd5b9083019061014082860312156200319d57600080fd5b620031a7620029ab565b825182811115620031b757600080fd5b620031c58782860162002f4a565b825250602083015182811115620031db57600080fd5b620031e98782860162002f4a565b6020830152506040830151828111156200320257600080fd5b620032108782860162002f4a565b6040830152506060830151828111156200322957600080fd5b620032378782860162002f4a565b6060830152506080830151828111156200325057600080fd5b6200325e8782860162002f4a565b60808301525060a0830151828111156200327757600080fd5b620032858782860162002f4a565b60a08301525060c0830151828111156200329e57600080fd5b620032ac8782860162002f4a565b60c08301525060e083015182811115620032c557600080fd5b620032d38782860162002f4a565b60e0830152506101008084015183811115620032ee57600080fd5b620032fc8882870162002f4a565b82840152505061012091506200331482840162002eee565b91810191909152949350505050565b6020808252602b908201527f496e697469616c697a61626c653a20636f6e7472616374206973206e6f74206960408201526a6e697469616c697a696e6760a81b606082015260800190565b6000821982111562003384576200338462002d4a565b500190565b6000816200339b576200339b62002d4a565b50600019019056fe608060405260405161098a38038061098a8339810160408190526100229161048b565b61004d60017fa3f0ad74e5423aebfd80d3ef4346578335a9a72aeaee59ff6cb3582b35133d5161054b565b6000805160206109438339815191521461006957610069610570565b6100758282600061007c565b50506105f0565b61008583610147565b6040516001600160a01b038416907f1cf3b03a6cf19fa2baba4df148e9dcabedea7f8a5c07840e207e5c089be95d3e90600090a26000825111806100c65750805b1561014257610140836001600160a01b0316635c60da1b6040518163ffffffff1660e01b8152600401602060405180830381865afa15801561010c573d6000803e3d6000fd5b505050506040513d601f19601f820116820180604052508101906101309190610586565b836102d860201b6100291760201c565b505b505050565b61015a8161030460201b6100551760201c565b6101b95760405162461bcd60e51b815260206004820152602560248201527f455243313936373a206e657720626561636f6e206973206e6f74206120636f6e6044820152641d1c9858dd60da1b60648201526084015b60405180910390fd5b61022d816001600160a01b0316635c60da1b6040518163ffffffff1660e01b8152600401602060405180830381865afa1580156101fa573d6000803e3d6000fd5b505050506040513d601f19601f8201168201806040525081019061021e9190610586565b61030460201b6100551760201c565b6102925760405162461bcd60e51b815260206004820152603060248201527f455243313936373a20626561636f6e20696d706c656d656e746174696f6e206960448201526f1cc81b9bdd08184818dbdb9d1c9858dd60821b60648201526084016101b0565b806102b760008051602061094383398151915260001b61031360201b6100641760201c565b80546001600160a01b0319166001600160a01b039290921691909117905550565b60606102fd838360405180606001604052806027815260200161096360279139610316565b9392505050565b6001600160a01b03163b151590565b90565b60606001600160a01b0384163b61037e5760405162461bcd60e51b815260206004820152602660248201527f416464726573733a2064656c65676174652063616c6c20746f206e6f6e2d636f6044820152651b9d1c9858dd60d21b60648201526084016101b0565b600080856001600160a01b03168560405161039991906105a1565b600060405180830381855af49150503d80600081146103d4576040519150601f19603f3d011682016040523d82523d6000602084013e6103d9565b606091505b5090925090506103ea8282866103f4565b9695505050505050565b606083156104035750816102fd565b8251156104135782518084602001fd5b8160405162461bcd60e51b81526004016101b091906105bd565b80516001600160a01b038116811461044457600080fd5b919050565b634e487b7160e01b600052604160045260246000fd5b60005b8381101561047a578181015183820152602001610462565b838111156101405750506000910152565b6000806040838503121561049e57600080fd5b6104a78361042d565b60208401519092506001600160401b03808211156104c457600080fd5b818501915085601f8301126104d857600080fd5b8151818111156104ea576104ea610449565b604051601f8201601f19908116603f0116810190838211818310171561051257610512610449565b8160405282815288602084870101111561052b57600080fd5b61053c83602083016020880161045f565b80955050505050509250929050565b60008282101561056b57634e487b7160e01b600052601160045260246000fd5b500390565b634e487b7160e01b600052600160045260246000fd5b60006020828403121561059857600080fd5b6102fd8261042d565b600082516105b381846020870161045f565b9190910192915050565b60208152600082518060208401526105dc81604085016020870161045f565b601f01601f19169190910160400192915050565b610344806105ff6000396000f3fe60806040523661001357610011610017565b005b6100115b610027610022610067565b610100565b565b606061004e83836040518060600160405280602781526020016102e860279139610124565b9392505050565b6001600160a01b03163b151590565b90565b600061009a7fa3f0ad74e5423aebfd80d3ef4346578335a9a72aeaee59ff6cb3582b35133d50546001600160a01b031690565b6001600160a01b0316635c60da1b6040518163ffffffff1660e01b8152600401602060405180830381865afa1580156100d7573d6000803e3d6000fd5b505050506040513d601f19601f820116820180604052508101906100fb919061023f565b905090565b3660008037600080366000845af43d6000803e80801561011f573d6000f35b3d6000fd5b60606001600160a01b0384163b6101915760405162461bcd60e51b815260206004820152602660248201527f416464726573733a2064656c65676174652063616c6c20746f206e6f6e2d636f6044820152651b9d1c9858dd60d21b60648201526084015b60405180910390fd5b600080856001600160a01b0316856040516101ac9190610298565b600060405180830381855af49150503d80600081146101e7576040519150601f19603f3d011682016040523d82523d6000602084013e6101ec565b606091505b50915091506101fc828286610206565b9695505050505050565b6060831561021557508161004e565b8251156102255782518084602001fd5b8160405162461bcd60e51b815260040161018891906102b4565b60006020828403121561025157600080fd5b81516001600160a01b038116811461004e57600080fd5b60005b8381101561028357818101518382015260200161026b565b83811115610292576000848401525b50505050565b600082516102aa818460208701610268565b9190910192915050565b60208152600082518060208401526102d3816040850160208701610268565b601f01601f1916919091016040019291505056fe416464726573733a206c6f772d6c6576656c2064656c65676174652063616c6c206661696c6564a2646970667358221220eeccfe8a308b7a851f215122d440957c3709c862bc4a198ff8fa847745f9e8e964736f6c634300080e0033a3f0ad74e5423aebfd80d3ef4346578335a9a72aeaee59ff6cb3582b35133d50416464726573733a206c6f772d6c6576656c2064656c65676174652063616c6c206661696c6564360894a13ba1a3210667c828492db98dca3e2076cc3735a920a3ca505d382bbc416464726573733a206c6f772d6c6576656c2064656c65676174652063616c6c206661696c6564696e697469616c697a6528737472696e672c737472696e672c75696e743235362c6164647265737329a26469706673582212200a09431d574c4361b72d5075484a71c1cda03c1831d42e8ec49b96ff6ea462dc64736f6c634300080e0033496e697469616c697a61626c653a20636f6e747261637420697320616c726561",
  "devdoc": {
    "kind": "dev",
    "methods": {
      "deployFromVintage(uint256)": {
        "details": "Deploys a TCO2 contract based on a project vintage",
        "params": {
          "projectVintageTokenId": "numeric tokenId from vintage in `CarbonProjectVintages`"
        }
      },
      "getContracts()": {
        "details": "Returns all addresses of deployed TCO2 contracts"
      },
      "getRoleAdmin(bytes32)": {
        "details": "Returns the admin role that controls `role`. See {grantRole} and {revokeRole}. To change a role's admin, use {_setRoleAdmin}."
      },
      "grantRole(bytes32,address)": {
        "details": "Grants `role` to `account`. If `account` had not been already granted `role`, emits a {RoleGranted} event. Requirements: - the caller must have ``role``'s admin role."
      },
      "hasRole(bytes32,address)": {
        "details": "Returns `true` if `account` has been granted `role`."
      },
      "owner()": {
        "details": "Returns the address of the current owner."
      },
      "pause()": {
        "details": "wraps _pause(), only Admin"
      },
      "paused()": {
        "details": "Returns true if the contract is paused, and false otherwise."
      },
      "proxiableUUID()": {
        "details": "Implementation of the ERC1822 {proxiableUUID} function. This returns the storage slot used by the implementation. It is used to validate that the this implementation remains valid after an upgrade. IMPORTANT: A proxy pointing at a proxiable contract should not be considered proxiable itself, because this risks bricking a proxy that upgrades to it, by delegating to itself until out of gas. Thus it is critical that this function revert if invoked through a proxy. This is guaranteed by the `notDelegated` modifier."
      },
      "renounceOwnership()": {
        "details": "Leaves the contract without owner. It will not be possible to call `onlyOwner` functions anymore. Can only be called by the current owner. NOTE: Renouncing ownership will leave the contract without an owner, thereby removing any functionality that is only available to the owner."
      },
      "renounceRole(bytes32,address)": {
        "details": "Revokes `role` from the calling account. Roles are often managed via {grantRole} and {revokeRole}: this function's purpose is to provide a mechanism for accounts to lose their privileges if they are compromised (such as when a trusted device is misplaced). If the calling account had been revoked `role`, emits a {RoleRevoked} event. Requirements: - the caller must be `account`."
      },
      "revokeRole(bytes32,address)": {
        "details": "Revokes `role` from `account`. If `account` had been granted `role`, emits a {RoleRevoked} event. Requirements: - the caller must have ``role``'s admin role."
      },
      "setBeacon(address)": {
        "details": "sets the Beacon that tracks the current implementation logic of the TCO2s"
      },
      "setBridgeFeeBurnAddress(address)": {
        "params": {
          "_bridgeFeeBurnAddress": "address to transfer the fees to burn"
        }
      },
      "setBridgeFeeBurnPercentage(uint256)": {
        "params": {
          "_bridgeFeeBurnPercentageInBase": "percentage of bridge fee in base"
        }
      },
      "setBridgeFeePercentage(uint256)": {
        "params": {
          "_bridgeFeePercentageInBase": "percentage of bridge fee in base"
        }
      },
      "setBridgeFeeReceiver(address)": {
        "params": {
          "_bridgeFeeReceiver": "address to transfer the fees"
        }
      },
      "setToucanContractRegistry(address)": {
        "details": "set the registry contract to be tracked"
      },
      "standardRegistry()": {
        "details": "this must be overridden in the child contract"
      },
      "supportsInterface(bytes4)": {
        "details": "See {IERC165-supportsInterface}."
      },
      "transferOwnership(address)": {
        "details": "Transfers ownership of the contract to a new account (`newOwner`). Can only be called by the current owner."
      },
      "unpause()": {
        "details": "unpause the system, wraps _unpause(), only Admin"
      },
      "upgradeTo(address)": {
        "details": "Upgrade the implementation of the proxy to `newImplementation`. Calls {_authorizeUpgrade}. Emits an {Upgraded} event."
      },
      "upgradeToAndCall(address,bytes)": {
        "details": "Upgrade the implementation of the proxy to `newImplementation`, and subsequently execute the function call encoded in `data`. Calls {_authorizeUpgrade}. Emits an {Upgraded} event."
      }
    },
    "stateVariables": {
      "VERSION": {
        "details": "Version-related parameters. VERSION keeps track of production releases. VERSION_RELEASE_CANDIDATE keeps track of iterations of a VERSION in our staging environment."
      }
    },
    "version": 1
  },
  "userdoc": {
    "kind": "user",
    "methods": {
      "addToAllowedBridges(address)": {
        "notice": "adds account to the allowedBridges list meant to be used only for cross-chain bridging"
      },
      "allowedBridges(address)": {
        "notice": "meant to be used only for cross-chain bridging"
      },
      "pause()": {
        "notice": "Emergency function to disable contract's core functionality"
      },
      "removeFromAllowedBridges(address)": {
        "notice": "removes account from the allowedBridges list meant to be used only for cross-chain bridging"
      },
      "setBridgeFeeBurnAddress(address)": {
        "notice": "Update the bridge fee burn address"
      },
      "setBridgeFeeBurnPercentage(uint256)": {
        "notice": "Update the bridge fee burning percentage"
      },
      "setBridgeFeePercentage(uint256)": {
        "notice": "Update the bridge fee percentage"
      },
      "setBridgeFeeReceiver(address)": {
        "notice": "Update the bridge fee receiver"
      },
      "standardRegistry()": {
        "notice": "Return the name of the registry that this factory is enabling to tokenize, eg., verra"
      },
      "supportedStandards()": {
        "notice": "Return the standard(s) supported by the carbon registry from where this factory tokenizes credits, eg., VCS It's important to satisfy this interface in order to ensure that TCO2 factories cannot create TCO2s for standards that the standard registry does not support"
      }
    },
    "notice": "The PuroToucanCarbonOffsetsFactory contract is a specific factory implementation for Puro's logic.",
    "version": 1
  },
  "storageLayout": {
    "storage": [
      {
        "astId": 11572,
        "contract": "contracts/PuroToucanCarbonOffsetsFactory.sol:PuroToucanCarbonOffsetsFactory",
        "label": "contractRegistry",
        "offset": 0,
        "slot": "0",
        "type": "t_address"
      },
      {
        "astId": 11575,
        "contract": "contracts/PuroToucanCarbonOffsetsFactory.sol:PuroToucanCarbonOffsetsFactory",
        "label": "deployedContracts",
        "offset": 0,
        "slot": "1",
        "type": "t_array(t_address)dyn_storage"
      },
      {
        "astId": 11579,
        "contract": "contracts/PuroToucanCarbonOffsetsFactory.sol:PuroToucanCarbonOffsetsFactory",
        "label": "pvIdtoERC20",
        "offset": 0,
        "slot": "2",
        "type": "t_mapping(t_uint256,t_address)"
      },
      {
        "astId": 1489,
        "contract": "contracts/PuroToucanCarbonOffsetsFactory.sol:PuroToucanCarbonOffsetsFactory",
        "label": "_initialized",
        "offset": 0,
        "slot": "3",
        "type": "t_uint8"
      },
      {
        "astId": 1492,
        "contract": "contracts/PuroToucanCarbonOffsetsFactory.sol:PuroToucanCarbonOffsetsFactory",
        "label": "_initializing",
        "offset": 1,
        "slot": "3",
        "type": "t_bool"
      },
      {
        "astId": 4593,
        "contract": "contracts/PuroToucanCarbonOffsetsFactory.sol:PuroToucanCarbonOffsetsFactory",
        "label": "__gap",
        "offset": 0,
        "slot": "4",
        "type": "t_array(t_uint256)50_storage"
      },
      {
        "astId": 980,
        "contract": "contracts/PuroToucanCarbonOffsetsFactory.sol:PuroToucanCarbonOffsetsFactory",
        "label": "_owner",
        "offset": 0,
        "slot": "54",
        "type": "t_address"
      },
      {
        "astId": 1092,
        "contract": "contracts/PuroToucanCarbonOffsetsFactory.sol:PuroToucanCarbonOffsetsFactory",
        "label": "__gap",
        "offset": 0,
        "slot": "55",
        "type": "t_array(t_uint256)49_storage"
      },
      {
        "astId": 1781,
        "contract": "contracts/PuroToucanCarbonOffsetsFactory.sol:PuroToucanCarbonOffsetsFactory",
        "label": "_paused",
        "offset": 0,
        "slot": "104",
        "type": "t_bool"
      },
      {
        "astId": 1870,
        "contract": "contracts/PuroToucanCarbonOffsetsFactory.sol:PuroToucanCarbonOffsetsFactory",
        "label": "__gap",
        "offset": 0,
        "slot": "105",
        "type": "t_array(t_uint256)49_storage"
      },
      {
        "astId": 1471,
        "contract": "contracts/PuroToucanCarbonOffsetsFactory.sol:PuroToucanCarbonOffsetsFactory",
        "label": "__gap",
        "offset": 0,
        "slot": "154",
        "type": "t_array(t_uint256)50_storage"
      },
      {
        "astId": 1759,
        "contract": "contracts/PuroToucanCarbonOffsetsFactory.sol:PuroToucanCarbonOffsetsFactory",
        "label": "__gap",
        "offset": 0,
        "slot": "204",
        "type": "t_array(t_uint256)50_storage"
      },
      {
        "astId": 11583,
        "contract": "contracts/PuroToucanCarbonOffsetsFactory.sol:PuroToucanCarbonOffsetsFactory",
        "label": "beacon",
        "offset": 0,
        "slot": "254",
        "type": "t_address"
      },
      {
        "astId": 11585,
        "contract": "contracts/PuroToucanCarbonOffsetsFactory.sol:PuroToucanCarbonOffsetsFactory",
        "label": "bridgeFeeReceiver",
        "offset": 0,
        "slot": "255",
        "type": "t_address"
      },
      {
        "astId": 11587,
        "contract": "contracts/PuroToucanCarbonOffsetsFactory.sol:PuroToucanCarbonOffsetsFactory",
        "label": "bridgeFeePercentageInBase",
        "offset": 0,
        "slot": "256",
        "type": "t_uint256"
      },
      {
        "astId": 11589,
        "contract": "contracts/PuroToucanCarbonOffsetsFactory.sol:PuroToucanCarbonOffsetsFactory",
        "label": "bridgeFeeBurnAddress",
        "offset": 0,
        "slot": "257",
        "type": "t_address"
      },
      {
        "astId": 11591,
        "contract": "contracts/PuroToucanCarbonOffsetsFactory.sol:PuroToucanCarbonOffsetsFactory",
        "label": "bridgeFeeBurnPercentageInBase",
        "offset": 0,
        "slot": "258",
        "type": "t_uint256"
      },
      {
        "astId": 11593,
        "contract": "contracts/PuroToucanCarbonOffsetsFactory.sol:PuroToucanCarbonOffsetsFactory",
        "label": "DEPRECATED_TotalRetired",
        "offset": 0,
        "slot": "259",
        "type": "t_uint256"
      },
      {
        "astId": 11600,
        "contract": "contracts/PuroToucanCarbonOffsetsFactory.sol:PuroToucanCarbonOffsetsFactory",
        "label": "allowedBridges",
        "offset": 0,
        "slot": "260",
        "type": "t_mapping(t_address,t_bool)"
      },
      {
        "astId": 11611,
        "contract": "contracts/PuroToucanCarbonOffsetsFactory.sol:PuroToucanCarbonOffsetsFactory",
        "label": "__gap",
        "offset": 0,
        "slot": "261",
        "type": "t_array(t_uint256)44_storage"
      },
      {
        "astId": 4900,
        "contract": "contracts/PuroToucanCarbonOffsetsFactory.sol:PuroToucanCarbonOffsetsFactory",
        "label": "__gap",
        "offset": 0,
        "slot": "305",
        "type": "t_array(t_uint256)50_storage"
      },
      {
        "astId": 596,
        "contract": "contracts/PuroToucanCarbonOffsetsFactory.sol:PuroToucanCarbonOffsetsFactory",
        "label": "_roles",
        "offset": 0,
        "slot": "355",
        "type": "t_mapping(t_bytes32,t_struct(RoleData)591_storage)"
      },
      {
        "astId": 895,
        "contract": "contracts/PuroToucanCarbonOffsetsFactory.sol:PuroToucanCarbonOffsetsFactory",
        "label": "__gap",
        "offset": 0,
        "slot": "356",
        "type": "t_array(t_uint256)49_storage"
      }
    ],
    "types": {
      "t_address": {
        "encoding": "inplace",
        "label": "address",
        "numberOfBytes": "20"
      },
      "t_array(t_address)dyn_storage": {
        "base": "t_address",
        "encoding": "dynamic_array",
        "label": "address[]",
        "numberOfBytes": "32"
      },
      "t_array(t_uint256)44_storage": {
        "base": "t_uint256",
        "encoding": "inplace",
        "label": "uint256[44]",
        "numberOfBytes": "1408"
      },
      "t_array(t_uint256)49_storage": {
        "base": "t_uint256",
        "encoding": "inplace",
        "label": "uint256[49]",
        "numberOfBytes": "1568"
      },
      "t_array(t_uint256)50_storage": {
        "base": "t_uint256",
        "encoding": "inplace",
        "label": "uint256[50]",
        "numberOfBytes": "1600"
      },
      "t_bool": {
        "encoding": "inplace",
        "label": "bool",
        "numberOfBytes": "1"
      },
      "t_bytes32": {
        "encoding": "inplace",
        "label": "bytes32",
        "numberOfBytes": "32"
      },
      "t_mapping(t_address,t_bool)": {
        "encoding": "mapping",
        "key": "t_address",
        "label": "mapping(address => bool)",
        "numberOfBytes": "32",
        "value": "t_bool"
      },
      "t_mapping(t_bytes32,t_struct(RoleData)591_storage)": {
        "encoding": "mapping",
        "key": "t_bytes32",
        "label": "mapping(bytes32 => struct AccessControlUpgradeable.RoleData)",
        "numberOfBytes": "32",
        "value": "t_struct(RoleData)591_storage"
      },
      "t_mapping(t_uint256,t_address)": {
        "encoding": "mapping",
        "key": "t_uint256",
        "label": "mapping(uint256 => address)",
        "numberOfBytes": "32",
        "value": "t_address"
      },
      "t_struct(RoleData)591_storage": {
        "encoding": "inplace",
        "label": "struct AccessControlUpgradeable.RoleData",
        "members": [
          {
            "astId": 588,
            "contract": "contracts/PuroToucanCarbonOffsetsFactory.sol:PuroToucanCarbonOffsetsFactory",
            "label": "members",
            "offset": 0,
            "slot": "0",
            "type": "t_mapping(t_address,t_bool)"
          },
          {
            "astId": 590,
            "contract": "contracts/PuroToucanCarbonOffsetsFactory.sol:PuroToucanCarbonOffsetsFactory",
            "label": "adminRole",
            "offset": 0,
            "slot": "1",
            "type": "t_bytes32"
          }
        ],
        "numberOfBytes": "64"
      },
      "t_uint256": {
        "encoding": "inplace",
        "label": "uint256",
        "numberOfBytes": "32"
      },
      "t_uint8": {
        "encoding": "inplace",
        "label": "uint8",
        "numberOfBytes": "1"
      }
    }
  }
}