{
  "address": "0x5e377f16E4ec6001652befD737341a28889Af002",
  "abi": [
    {
      "inputs": [],
      "stateMutability": "nonpayable",
      "type": "constructor"
    },
    {
      "anonymous": false,
      "inputs": [
        {
          "indexed": false,
          "internalType": "address",
          "name": "previousAdmin",
          "type": "address"
        },
        {
          "indexed": false,
          "internalType": "address",
          "name": "newAdmin",
          "type": "address"
        }
      ],
      "name": "AdminChanged",
      "type": "event"
    },
    {
      "anonymous": false,
      "inputs": [
        {
          "indexed": true,
          "internalType": "address",
          "name": "owner",
          "type": "address"
        },
        {
          "indexed": true,
          "internalType": "address",
          "name": "approved",
          "type": "address"
        },
        {
          "indexed": true,
          "internalType": "uint256",
          "name": "tokenId",
          "type": "uint256"
        }
      ],
      "name": "Approval",
      "type": "event"
    },
    {
      "anonymous": false,
      "inputs": [
        {
          "indexed": true,
          "internalType": "address",
          "name": "owner",
          "type": "address"
        },
        {
          "indexed": true,
          "internalType": "address",
          "name": "operator",
          "type": "address"
        },
        {
          "indexed": false,
          "internalType": "bool",
          "name": "approved",
          "type": "bool"
        }
      ],
      "name": "ApprovalForAll",
      "type": "event"
    },
    {
      "anonymous": false,
      "inputs": [
        {
          "indexed": false,
          "internalType": "string",
          "name": "baseURI",
          "type": "string"
        }
      ],
      "name": "BaseURISet",
      "type": "event"
    },
    {
      "anonymous": false,
      "inputs": [
        {
          "indexed": true,
          "internalType": "address",
          "name": "beacon",
          "type": "address"
        }
      ],
      "name": "BeaconUpgraded",
      "type": "event"
    },
    {
      "anonymous": false,
      "inputs": [
        {
          "indexed": false,
          "internalType": "uint256",
          "name": "tokenId",
          "type": "uint256"
        }
      ],
      "name": "CertificateMinted",
      "type": "event"
    },
    {
      "anonymous": false,
      "inputs": [
        {
          "indexed": false,
          "internalType": "uint256",
          "name": "tokenId",
          "type": "uint256"
        }
      ],
      "name": "CertificateUpdated",
      "type": "event"
    },
    {
      "anonymous": false,
      "inputs": [
        {
          "indexed": false,
          "internalType": "uint256",
          "name": "tokenId",
          "type": "uint256"
        },
        {
          "indexed": false,
          "internalType": "uint256[]",
          "name": "eventIds",
          "type": "uint256[]"
        }
      ],
      "name": "EventsAttached",
      "type": "event"
    },
    {
      "anonymous": false,
      "inputs": [
        {
          "indexed": false,
          "internalType": "uint8",
          "name": "version",
          "type": "uint8"
        }
      ],
      "name": "Initialized",
      "type": "event"
    },
    {
      "anonymous": false,
      "inputs": [
        {
          "indexed": false,
          "internalType": "uint256",
          "name": "previousAmount",
          "type": "uint256"
        },
        {
          "indexed": false,
          "internalType": "uint256",
          "name": "newAmount",
          "type": "uint256"
        }
      ],
      "name": "MinValidAmountSet",
      "type": "event"
    },
    {
      "anonymous": false,
      "inputs": [
        {
          "indexed": true,
          "internalType": "address",
          "name": "previousOwner",
          "type": "address"
        },
        {
          "indexed": true,
          "internalType": "address",
          "name": "newOwner",
          "type": "address"
        }
      ],
      "name": "OwnershipTransferred",
      "type": "event"
    },
    {
      "anonymous": false,
      "inputs": [
        {
          "indexed": false,
          "internalType": "address",
          "name": "ContractRegistry",
          "type": "address"
        }
      ],
      "name": "ToucanRegistrySet",
      "type": "event"
    },
    {
      "anonymous": false,
      "inputs": [
        {
          "indexed": true,
          "internalType": "address",
          "name": "from",
          "type": "address"
        },
        {
          "indexed": true,
          "internalType": "address",
          "name": "to",
          "type": "address"
        },
        {
          "indexed": true,
          "internalType": "uint256",
          "name": "tokenId",
          "type": "uint256"
        }
      ],
      "name": "Transfer",
      "type": "event"
    },
    {
      "anonymous": false,
      "inputs": [
        {
          "indexed": true,
          "internalType": "address",
          "name": "implementation",
          "type": "address"
        }
      ],
      "name": "Upgraded",
      "type": "event"
    },
    {
      "inputs": [],
      "name": "VERSION",
      "outputs": [
        {
          "internalType": "string",
          "name": "",
          "type": "string"
        }
      ],
      "stateMutability": "view",
      "type": "function"
    },
    {
      "inputs": [],
      "name": "VERSION_RELEASE_CANDIDATE",
      "outputs": [
        {
          "internalType": "uint256",
          "name": "",
          "type": "uint256"
        }
      ],
      "stateMutability": "view",
      "type": "function"
    },
    {
      "inputs": [
        {
          "internalType": "address",
          "name": "to",
          "type": "address"
        },
        {
          "internalType": "uint256",
          "name": "tokenId",
          "type": "uint256"
        }
      ],
      "name": "approve",
      "outputs": [],
      "stateMutability": "nonpayable",
      "type": "function"
    },
    {
      "inputs": [
        {
          "internalType": "uint256",
          "name": "tokenId",
          "type": "uint256"
        },
        {
          "internalType": "uint256[]",
          "name": "retirementEventIds",
          "type": "uint256[]"
        }
      ],
      "name": "attachRetirementEvents",
      "outputs": [],
      "stateMutability": "nonpayable",
      "type": "function"
    },
    {
      "inputs": [
        {
          "internalType": "address",
          "name": "owner",
          "type": "address"
        }
      ],
      "name": "balanceOf",
      "outputs": [
        {
          "internalType": "uint256",
          "name": "",
          "type": "uint256"
        }
      ],
      "stateMutability": "view",
      "type": "function"
    },
    {
      "inputs": [],
      "name": "baseURI",
      "outputs": [
        {
          "internalType": "string",
          "name": "",
          "type": "string"
        }
      ],
      "stateMutability": "view",
      "type": "function"
    },
    {
      "inputs": [
        {
          "internalType": "uint256",
          "name": "",
          "type": "uint256"
        }
      ],
      "name": "certificates",
      "outputs": [
        {
          "internalType": "uint256",
          "name": "createdAt",
          "type": "uint256"
        },
        {
          "internalType": "address",
          "name": "retiringEntity",
          "type": "address"
        },
        {
          "internalType": "address",
          "name": "beneficiary",
          "type": "address"
        },
        {
          "internalType": "string",
          "name": "retiringEntityString",
          "type": "string"
        },
        {
          "internalType": "string",
          "name": "beneficiaryString",
          "type": "string"
        },
        {
          "internalType": "string",
          "name": "retirementMessage",
          "type": "string"
        },
        {
          "internalType": "string",
          "name": "beneficiaryLocation",
          "type": "string"
        },
        {
          "internalType": "string",
          "name": "consumptionCountryCode",
          "type": "string"
        },
        {
          "internalType": "uint256",
          "name": "consumptionPeriodStart",
          "type": "uint256"
        },
        {
          "internalType": "uint256",
          "name": "consumptionPeriodEnd",
          "type": "uint256"
        }
      ],
      "stateMutability": "view",
      "type": "function"
    },
    {
      "inputs": [
        {
          "internalType": "uint256",
          "name": "",
          "type": "uint256"
        }
      ],
      "name": "claimedEvents",
      "outputs": [
        {
          "internalType": "bool",
          "name": "",
          "type": "bool"
        }
      ],
      "stateMutability": "view",
      "type": "function"
    },
    {
      "inputs": [],
      "name": "contractRegistry",
      "outputs": [
        {
          "internalType": "address",
          "name": "",
          "type": "address"
        }
      ],
      "stateMutability": "view",
      "type": "function"
    },
    {
      "inputs": [
        {
          "internalType": "uint256",
          "name": "tokenId",
          "type": "uint256"
        }
      ],
      "name": "getApproved",
      "outputs": [
        {
          "internalType": "address",
          "name": "",
          "type": "address"
        }
      ],
      "stateMutability": "view",
      "type": "function"
    },
    {
      "inputs": [
        {
          "internalType": "uint256",
          "name": "tokenId",
          "type": "uint256"
        }
      ],
      "name": "getData",
      "outputs": [
        {
          "components": [
            {
              "internalType": "uint256[]",
              "name": "retirementEventIds",
              "type": "uint256[]"
            },
            {
              "internalType": "uint256",
              "name": "createdAt",
              "type": "uint256"
            },
            {
              "internalType": "address",
              "name": "retiringEntity",
              "type": "address"
            },
            {
              "internalType": "address",
              "name": "beneficiary",
              "type": "address"
            },
            {
              "internalType": "string",
              "name": "retiringEntityString",
              "type": "string"
            },
            {
              "internalType": "string",
              "name": "beneficiaryString",
              "type": "string"
            },
            {
              "internalType": "string",
              "name": "retirementMessage",
              "type": "string"
            },
            {
              "internalType": "string",
              "name": "beneficiaryLocation",
              "type": "string"
            },
            {
              "internalType": "string",
              "name": "consumptionCountryCode",
              "type": "string"
            },
            {
              "internalType": "uint256",
              "name": "consumptionPeriodStart",
              "type": "uint256"
            },
            {
              "internalType": "uint256",
              "name": "consumptionPeriodEnd",
              "type": "uint256"
            }
          ],
          "internalType": "struct RetirementCertificatesStorageV1.Data",
          "name": "",
          "type": "tuple"
        }
      ],
      "stateMutability": "view",
      "type": "function"
    },
    {
      "inputs": [
        {
          "internalType": "uint256",
          "name": "tokenId",
          "type": "uint256"
        }
      ],
      "name": "getRetiredAmount",
      "outputs": [
        {
          "internalType": "uint256",
          "name": "amount",
          "type": "uint256"
        }
      ],
      "stateMutability": "view",
      "type": "function"
    },
    {
      "inputs": [
        {
          "internalType": "uint256",
          "name": "tokenId",
          "type": "uint256"
        }
      ],
      "name": "getRetiredAmountInKilos",
      "outputs": [
        {
          "internalType": "uint256",
          "name": "",
          "type": "uint256"
        }
      ],
      "stateMutability": "view",
      "type": "function"
    },
    {
      "inputs": [
        {
          "internalType": "uint256",
          "name": "tokenId",
          "type": "uint256"
        }
      ],
      "name": "getRetiredAmountInTonnes",
      "outputs": [
        {
          "internalType": "uint256",
          "name": "",
          "type": "uint256"
        }
      ],
      "stateMutability": "view",
      "type": "function"
    },
    {
      "inputs": [
        {
          "internalType": "address",
          "name": "user",
          "type": "address"
        }
      ],
      "name": "getUserEvents",
      "outputs": [
        {
          "internalType": "uint256[]",
          "name": "",
          "type": "uint256[]"
        }
      ],
      "stateMutability": "view",
      "type": "function"
    },
    {
      "inputs": [
        {
          "internalType": "address",
          "name": "_contractRegistry",
          "type": "address"
        },
        {
          "internalType": "string",
          "name": "_baseURI",
          "type": "string"
        }
      ],
      "name": "initialize",
      "outputs": [],
      "stateMutability": "nonpayable",
      "type": "function"
    },
    {
      "inputs": [
        {
          "internalType": "address",
          "name": "owner",
          "type": "address"
        },
        {
          "internalType": "address",
          "name": "operator",
          "type": "address"
        }
      ],
      "name": "isApprovedForAll",
      "outputs": [
        {
          "internalType": "bool",
          "name": "",
          "type": "bool"
        }
      ],
      "stateMutability": "view",
      "type": "function"
    },
    {
      "inputs": [
        {
          "internalType": "uint256",
          "name": "tokenId",
          "type": "uint256"
        },
        {
          "internalType": "string[]",
          "name": "registries",
          "type": "string[]"
        }
      ],
      "name": "isCertificateForRegistry",
      "outputs": [
        {
          "internalType": "bool",
          "name": "",
          "type": "bool"
        }
      ],
      "stateMutability": "view",
      "type": "function"
    },
    {
      "inputs": [],
      "name": "kiloDenomination",
      "outputs": [
        {
          "internalType": "uint256",
          "name": "",
          "type": "uint256"
        }
      ],
      "stateMutability": "view",
      "type": "function"
    },
    {
      "inputs": [],
      "name": "minValidRetirementAmount",
      "outputs": [
        {
          "internalType": "uint256",
          "name": "",
          "type": "uint256"
        }
      ],
      "stateMutability": "view",
      "type": "function"
    },
    {
      "inputs": [
        {
          "internalType": "address",
          "name": "retiringEntity",
          "type": "address"
        },
        {
          "internalType": "string",
          "name": "retiringEntityString",
          "type": "string"
        },
        {
          "internalType": "address",
          "name": "beneficiary",
          "type": "address"
        },
        {
          "internalType": "string",
          "name": "beneficiaryString",
          "type": "string"
        },
        {
          "internalType": "string",
          "name": "retirementMessage",
          "type": "string"
        },
        {
          "internalType": "uint256[]",
          "name": "retirementEventIds",
          "type": "uint256[]"
        }
      ],
      "name": "mintCertificate",
      "outputs": [
        {
          "internalType": "uint256",
          "name": "",
          "type": "uint256"
        }
      ],
      "stateMutability": "nonpayable",
      "type": "function"
    },
    {
      "inputs": [
        {
          "internalType": "address",
          "name": "retiringEntity",
          "type": "address"
        },
        {
          "components": [
            {
              "internalType": "uint256[]",
              "name": "tokenIds",
              "type": "uint256[]"
            },
            {
              "internalType": "uint256",
              "name": "amount",
              "type": "uint256"
            },
            {
              "internalType": "string",
              "name": "retiringEntityString",
              "type": "string"
            },
            {
              "internalType": "address",
              "name": "beneficiary",
              "type": "address"
            },
            {
              "internalType": "string",
              "name": "beneficiaryString",
              "type": "string"
            },
            {
              "internalType": "string",
              "name": "retirementMessage",
              "type": "string"
            },
            {
              "internalType": "string",
              "name": "beneficiaryLocation",
              "type": "string"
            },
            {
              "internalType": "string",
              "name": "consumptionCountryCode",
              "type": "string"
            },
            {
              "internalType": "uint256",
              "name": "consumptionPeriodStart",
              "type": "uint256"
            },
            {
              "internalType": "uint256",
              "name": "consumptionPeriodEnd",
              "type": "uint256"
            }
          ],
          "internalType": "struct CreateRetirementRequestParams",
          "name": "params",
          "type": "tuple"
        },
        {
          "internalType": "uint256[]",
          "name": "retirementEventIds",
          "type": "uint256[]"
        }
      ],
      "name": "mintCertificateWithExtraData",
      "outputs": [
        {
          "internalType": "uint256",
          "name": "",
          "type": "uint256"
        }
      ],
      "stateMutability": "nonpayable",
      "type": "function"
    },
    {
      "inputs": [],
      "name": "name",
      "outputs": [
        {
          "internalType": "string",
          "name": "",
          "type": "string"
        }
      ],
      "stateMutability": "view",
      "type": "function"
    },
    {
      "inputs": [],
      "name": "owner",
      "outputs": [
        {
          "internalType": "address",
          "name": "",
          "type": "address"
        }
      ],
      "stateMutability": "view",
      "type": "function"
    },
    {
      "inputs": [
        {
          "internalType": "uint256",
          "name": "tokenId",
          "type": "uint256"
        }
      ],
      "name": "ownerOf",
      "outputs": [
        {
          "internalType": "address",
          "name": "",
          "type": "address"
        }
      ],
      "stateMutability": "view",
      "type": "function"
    },
    {
      "inputs": [],
      "name": "proxiableUUID",
      "outputs": [
        {
          "internalType": "bytes32",
          "name": "",
          "type": "bytes32"
        }
      ],
      "stateMutability": "view",
      "type": "function"
    },
    {
      "inputs": [
        {
          "internalType": "address",
          "name": "retiringEntity",
          "type": "address"
        },
        {
          "internalType": "uint256",
          "name": "projectVintageTokenId",
          "type": "uint256"
        },
        {
          "internalType": "uint256",
          "name": "amount",
          "type": "uint256"
        },
        {
          "internalType": "bool",
          "name": "isLegacy",
          "type": "bool"
        }
      ],
      "name": "registerEvent",
      "outputs": [
        {
          "internalType": "uint256",
          "name": "",
          "type": "uint256"
        }
      ],
      "stateMutability": "nonpayable",
      "type": "function"
    },
    {
      "inputs": [],
      "name": "renounceOwnership",
      "outputs": [],
      "stateMutability": "nonpayable",
      "type": "function"
    },
    {
      "inputs": [],
      "name": "retireEventCounter",
      "outputs": [
        {
          "internalType": "uint256",
          "name": "",
          "type": "uint256"
        }
      ],
      "stateMutability": "view",
      "type": "function"
    },
    {
      "inputs": [
        {
          "internalType": "uint256",
          "name": "",
          "type": "uint256"
        }
      ],
      "name": "retirements",
      "outputs": [
        {
          "internalType": "uint256",
          "name": "createdAt",
          "type": "uint256"
        },
        {
          "internalType": "address",
          "name": "retiringEntity",
          "type": "address"
        },
        {
          "internalType": "uint256",
          "name": "amount",
          "type": "uint256"
        },
        {
          "internalType": "uint256",
          "name": "projectVintageTokenId",
          "type": "uint256"
        }
      ],
      "stateMutability": "view",
      "type": "function"
    },
    {
      "inputs": [
        {
          "internalType": "address",
          "name": "from",
          "type": "address"
        },
        {
          "internalType": "address",
          "name": "to",
          "type": "address"
        },
        {
          "internalType": "uint256",
          "name": "tokenId",
          "type": "uint256"
        }
      ],
      "name": "safeTransferFrom",
      "outputs": [],
      "stateMutability": "nonpayable",
      "type": "function"
    },
    {
      "inputs": [
        {
          "internalType": "address",
          "name": "from",
          "type": "address"
        },
        {
          "internalType": "address",
          "name": "to",
          "type": "address"
        },
        {
          "internalType": "uint256",
          "name": "tokenId",
          "type": "uint256"
        },
        {
          "internalType": "bytes",
          "name": "_data",
          "type": "bytes"
        }
      ],
      "name": "safeTransferFrom",
      "outputs": [],
      "stateMutability": "nonpayable",
      "type": "function"
    },
    {
      "inputs": [
        {
          "internalType": "address",
          "name": "operator",
          "type": "address"
        },
        {
          "internalType": "bool",
          "name": "approved",
          "type": "bool"
        }
      ],
      "name": "setApprovalForAll",
      "outputs": [],
      "stateMutability": "nonpayable",
      "type": "function"
    },
    {
      "inputs": [
        {
          "internalType": "string",
          "name": "baseURI_",
          "type": "string"
        }
      ],
      "name": "setBaseURI",
      "outputs": [],
      "stateMutability": "nonpayable",
      "type": "function"
    },
    {
      "inputs": [
        {
          "internalType": "uint256",
          "name": "amount",
          "type": "uint256"
        }
      ],
      "name": "setMinValidRetirementAmount",
      "outputs": [],
      "stateMutability": "nonpayable",
      "type": "function"
    },
    {
      "inputs": [
        {
          "internalType": "address",
          "name": "_address",
          "type": "address"
        }
      ],
      "name": "setToucanContractRegistry",
      "outputs": [],
      "stateMutability": "nonpayable",
      "type": "function"
    },
    {
      "inputs": [
        {
          "internalType": "bytes4",
          "name": "interfaceId",
          "type": "bytes4"
        }
      ],
      "name": "supportsInterface",
      "outputs": [
        {
          "internalType": "bool",
          "name": "",
          "type": "bool"
        }
      ],
      "stateMutability": "view",
      "type": "function"
    },
    {
      "inputs": [],
      "name": "symbol",
      "outputs": [
        {
          "internalType": "string",
          "name": "",
          "type": "string"
        }
      ],
      "stateMutability": "view",
      "type": "function"
    },
    {
      "inputs": [
        {
          "internalType": "uint256",
          "name": "tokenId",
          "type": "uint256"
        }
      ],
      "name": "tokenURI",
      "outputs": [
        {
          "internalType": "string",
          "name": "",
          "type": "string"
        }
      ],
      "stateMutability": "view",
      "type": "function"
    },
    {
      "inputs": [],
      "name": "tonneDenomination",
      "outputs": [
        {
          "internalType": "uint256",
          "name": "",
          "type": "uint256"
        }
      ],
      "stateMutability": "view",
      "type": "function"
    },
    {
      "inputs": [
        {
          "internalType": "address",
          "name": "from",
          "type": "address"
        },
        {
          "internalType": "address",
          "name": "to",
          "type": "address"
        },
        {
          "internalType": "uint256",
          "name": "tokenId",
          "type": "uint256"
        }
      ],
      "name": "transferFrom",
      "outputs": [],
      "stateMutability": "nonpayable",
      "type": "function"
    },
    {
      "inputs": [
        {
          "internalType": "address",
          "name": "newOwner",
          "type": "address"
        }
      ],
      "name": "transferOwnership",
      "outputs": [],
      "stateMutability": "nonpayable",
      "type": "function"
    },
    {
      "inputs": [
        {
          "internalType": "uint256",
          "name": "tokenId",
          "type": "uint256"
        },
        {
          "internalType": "string",
          "name": "retiringEntityString",
          "type": "string"
        },
        {
          "internalType": "address",
          "name": "beneficiary",
          "type": "address"
        },
        {
          "internalType": "string",
          "name": "beneficiaryString",
          "type": "string"
        },
        {
          "internalType": "string",
          "name": "retirementMessage",
          "type": "string"
        }
      ],
      "name": "updateCertificate",
      "outputs": [],
      "stateMutability": "nonpayable",
      "type": "function"
    },
    {
      "inputs": [
        {
          "internalType": "address",
          "name": "newImplementation",
          "type": "address"
        }
      ],
      "name": "upgradeTo",
      "outputs": [],
      "stateMutability": "nonpayable",
      "type": "function"
    },
    {
      "inputs": [
        {
          "internalType": "address",
          "name": "newImplementation",
          "type": "address"
        },
        {
          "internalType": "bytes",
          "name": "data",
          "type": "bytes"
        }
      ],
      "name": "upgradeToAndCall",
      "outputs": [],
      "stateMutability": "payable",
      "type": "function"
    }
  ],
  "numDeployments": 3,
  "solcInputHash": "69fd1caf394a23ba76fd4d5beab86e87",
  "bytecode": "0x60a0604052306080523480156200001557600080fd5b506200002062000026565b62000156565b6200003260ff62000035565b50565b60008054610100900460ff1615620000ce578160ff1660011480156200006e57506200006c306200014760201b620025f41760201c565b155b620000c65760405162461bcd60e51b815260206004820152602e602482015260008051602062004d0683398151915260448201526d191e481a5b9a5d1a585b1a5e995960921b60648201526084015b60405180910390fd5b506000919050565b60005460ff8084169116106200012d5760405162461bcd60e51b815260206004820152602e602482015260008051602062004d0683398151915260448201526d191e481a5b9a5d1a585b1a5e995960921b6064820152608401620000bd565b506000805460ff191660ff92909216919091179055600190565b6001600160a01b03163b151590565b608051614b786200018e600039600081816113c701528181611407015281816114c10152818161150101526115940152614b786000f3fe6080604052600436106102725760003560e01c80638da5cb5b1161014f578063cc91e5e9116100c1578063f2fde38b1161007a578063f2fde38b146107d0578063f3823bad146107f0578063f399e22e14610810578063fa272a3214610830578063ff01167714610850578063ffa1ad741461087057600080fd5b8063cc91e5e914610715578063d791399e14610735578063d84650be14610755578063d894203d14610770578063e882e37b14610790578063e985e9c5146107b057600080fd5b8063b2114f4111610113578063b2114f4114610651578063b88d4fde14610682578063bba34a37146106a2578063bbec9a2e146106c2578063c6986067146106de578063c87b56dd146106f557600080fd5b80638da5cb5b146105c657806395d89b41146105e457806399b00a8d146105f9578063a22cb46514610610578063abf410e51461063057600080fd5b806342842e0e116101e85780636352211e116101ac5780636352211e14610511578063663b3e22146105315780636c0360eb146105675780636ca0b0d71461057c57806370a0823114610591578063715018a6146105b157600080fd5b806342842e0e146104345780634f1ef2861461045457806352d1902d1461046757806355f804b31461047c57806361e4678b1461049c57600080fd5b80630d4b53e71161023a5780630d4b53e714610359578063163c131914610387578063171e5ba2146103a757806323b872dd146103d457806327de49ee146103f45780633659cfe61461041457600080fd5b80630178fe3f1461027757806301ffc9a7146102ad57806306fdde03146102dd578063081812fc146102ff578063095ea7b314610337575b600080fd5b34801561028357600080fd5b5061029761029236600461384c565b6108a1565b6040516102a491906138f8565b60405180910390f35b3480156102b957600080fd5b506102cd6102c8366004613a20565b610c9f565b60405190151581526020016102a4565b3480156102e957600080fd5b506102f2610cf1565b6040516102a49190613a3d565b34801561030b57600080fd5b5061031f61031a36600461384c565b610d83565b6040516001600160a01b0390911681526020016102a4565b34801561034357600080fd5b50610357610352366004613a70565b610e1d565b005b34801561036557600080fd5b5061037961037436600461384c565b610f32565b6040519081526020016102a4565b34801561039357600080fd5b506103796103a2366004613b28565b611006565b3480156103b357600080fd5b506103c76103c2366004613c12565b61118f565b6040516102a49190613c2f565b3480156103e057600080fd5b506103576103ef366004613c73565b6111fc565b34801561040057600080fd5b5061037961040f366004613cc2565b61122d565b34801561042057600080fd5b5061035761042f366004613c12565b6113bd565b34801561044057600080fd5b5061035761044f366004613c73565b61149c565b610357610462366004613e1b565b6114b7565b34801561047357600080fd5b50610379611587565b34801561048857600080fd5b50610357610497366004613e6a565b61163a565b3480156104a857600080fd5b506104e96104b736600461384c565b61012e60205260009081526040902080546001820154600283015460039093015491926001600160a01b039091169184565b604080519485526001600160a01b0390931660208501529183015260608201526080016102a4565b34801561051d57600080fd5b5061031f61052c36600461384c565b6116b3565b34801561053d57600080fd5b5061055161054c36600461384c565b61172a565b6040516102a49a99989796959493929190613e9e565b34801561057357600080fd5b506102f2611a31565b34801561058857600080fd5b50610379600181565b34801561059d57600080fd5b506103796105ac366004613c12565b611ac0565b3480156105bd57600080fd5b50610357611b47565b3480156105d257600080fd5b506097546001600160a01b031661031f565b3480156105f057600080fd5b506102f2611b7d565b34801561060557600080fd5b5061037961012d5481565b34801561061c57600080fd5b5061035761062b366004613f3d565b611b8c565b34801561063c57600080fd5b506101325461031f906001600160a01b031681565b34801561065d57600080fd5b506102cd61066c36600461384c565b61012f6020526000908152604090205460ff1681565b34801561068e57600080fd5b5061035761069d366004613f76565b611b97565b3480156106ae57600080fd5b506103576106bd366004613fe1565b611bcf565b3480156106ce57600080fd5b50610379670de0b6b3a764000081565b3480156106ea57600080fd5b506103796101355481565b34801561070157600080fd5b506102f261071036600461384c565b611e2a565b34801561072157600080fd5b50610379610730366004614098565b611ede565b34801561074157600080fd5b5061037961075036600461384c565b611f5c565b34801561076157600080fd5b5061037966038d7ea4c6800081565b34801561077c57600080fd5b5061035761078b366004614119565b612018565b34801561079c57600080fd5b506103576107ab366004613c12565b612078565b3480156107bc57600080fd5b506102cd6107cb366004614164565b6120f1565b3480156107dc57600080fd5b506103576107eb366004613c12565b61211f565b3480156107fc57600080fd5b506102cd61080b3660046141b5565b6121b7565b34801561081c57600080fd5b5061035761082b366004613e1b565b612375565b34801561083c57600080fd5b5061037961084b36600461384c565b612479565b34801561085c57600080fd5b5061035761086b36600461384c565b612546565b34801561087c57600080fd5b506102f2604051806040016040528060058152602001640312e312e360dc1b81525081565b610910604051806101600160405280606081526020016000815260200160006001600160a01b0316815260200160006001600160a01b03168152602001606081526020016060815260200160608152602001606081526020016060815260200160008152602001600081525090565b6000828152610134602090815260409182902082518154610180938102820184019094526101608101848152909391928492849184018282801561097357602002820191906000526020600020905b81548152602001906001019080831161095f575b50505091835250506001820154602082015260028201546001600160a01b03908116604083015260038301541660608201526004820180546080909201916109ba90614271565b80601f01602080910402602001604051908101604052809291908181526020018280546109e690614271565b8015610a335780601f10610a0857610100808354040283529160200191610a33565b820191906000526020600020905b815481529060010190602001808311610a1657829003601f168201915b50505050508152602001600582018054610a4c90614271565b80601f0160208091040260200160405190810160405280929190818152602001828054610a7890614271565b8015610ac55780601f10610a9a57610100808354040283529160200191610ac5565b820191906000526020600020905b815481529060010190602001808311610aa857829003601f168201915b50505050508152602001600682018054610ade90614271565b80601f0160208091040260200160405190810160405280929190818152602001828054610b0a90614271565b8015610b575780601f10610b2c57610100808354040283529160200191610b57565b820191906000526020600020905b815481529060010190602001808311610b3a57829003601f168201915b50505050508152602001600782018054610b7090614271565b80601f0160208091040260200160405190810160405280929190818152602001828054610b9c90614271565b8015610be95780601f10610bbe57610100808354040283529160200191610be9565b820191906000526020600020905b815481529060010190602001808311610bcc57829003601f168201915b50505050508152602001600882018054610c0290614271565b80601f0160208091040260200160405190810160405280929190818152602001828054610c2e90614271565b8015610c7b5780601f10610c5057610100808354040283529160200191610c7b565b820191906000526020600020905b815481529060010190602001808311610c5e57829003601f168201915b5050505050815260200160098201548152602001600a820154815250509050919050565b60006001600160e01b031982166380ac58cd60e01b1480610cd057506001600160e01b03198216635b5e139f60e01b145b80610ceb57506301ffc9a760e01b6001600160e01b03198316145b92915050565b606060658054610d0090614271565b80601f0160208091040260200160405190810160405280929190818152602001828054610d2c90614271565b8015610d795780601f10610d4e57610100808354040283529160200191610d79565b820191906000526020600020905b815481529060010190602001808311610d5c57829003601f168201915b5050505050905090565b6000818152606760205260408120546001600160a01b0316610e015760405162461bcd60e51b815260206004820152602c60248201527f4552433732313a20617070726f76656420717565727920666f72206e6f6e657860448201526b34b9ba32b73a103a37b5b2b760a11b60648201526084015b60405180910390fd5b506000908152606960205260409020546001600160a01b031690565b6000610e28826116b3565b9050806001600160a01b0316836001600160a01b031603610e955760405162461bcd60e51b815260206004820152602160248201527f4552433732313a20617070726f76616c20746f2063757272656e74206f776e656044820152603960f91b6064820152608401610df8565b336001600160a01b0382161480610eb15750610eb181336120f1565b610f235760405162461bcd60e51b815260206004820152603860248201527f4552433732313a20617070726f76652063616c6c6572206973206e6f74206f7760448201527f6e6572206e6f7220617070726f76656420666f7220616c6c00000000000000006064820152608401610df8565b610f2d8383612603565b505050565b600081815261013460209081526040808320805482518185028101850190935280835284938493929190830182828015610f8b57602002820191906000526020600020905b815481526020019060010190808311610f77575b5050505050905060005b8151811015610fec5761012e6000838381518110610fb557610fb56142ab565b602002602001015181526020019081526020016000206002015483610fda91906142d7565b9250610fe5816142ef565b9050610f95565b50610ffe66038d7ea4c680008361431e565b949350505050565b60006002610136540361105b5760405162461bcd60e51b815260206004820152601f60248201527f5265656e7472616e637947756172643a207265656e7472616e742063616c6c006044820152606401610df8565b600261013655604080516000610140820181815261016083018452825260208083018290528351601f8e0182900482028101820185528d81529193830191908e908e90819084018382808284376000920191909152505050908252506001600160a01b038b1660208083019190915260408051601f8c0183900483028101830182528b8152920191908b908b9081908401838280828437600092019190915250505090825250604080516020601f8a0181900481028201810190925288815291810191908990899081908401838280828437600092018290525093855250506040805160208181018352848252808601919091528151908101825283815290840152506060820181905260809091015290506111798c828686612671565b6001610136559c9b505050505050505050505050565b6001600160a01b038116600090815261013060209081526040918290208054835181840281018401909452808452606093928301828280156111f057602002820191906000526020600020905b8154815260200190600101908083116111dc575b50505050509050919050565b61120633826128e9565b6112225760405162461bcd60e51b8152600401610df890614332565b610f2d8383836129bf565b61013254604051633a37b16d60e11b81523360048201526000916001600160a01b03169063746f62da90602401602060405180830381865afa158015611277573d6000803e3d6000fd5b505050506040513d601f19601f8201168201806040525081019061129b919061438e565b6112db5760405162461bcd60e51b815260206004820152601160248201527021b0b63632b9103737ba1030902a21a79960791b6044820152606401610df8565b82158015906112ed5750610135548310155b61132a5760405162461bcd60e51b815260206004820152600e60248201526d125b9d985b1a5908185b5bdd5b9d60921b6044820152606401610df8565b61012d80546001908101918290556001600160a01b03871660009081526101306020908152604082208054938401815582529020018190558261137a57600081815261012e602052604090204290555b600081815261012e602052604090206001810180546001600160a01b0319166001600160a01b038916179055600281018590556003018590559050949350505050565b6001600160a01b037f00000000000000000000000000000000000000000000000000000000000000001630036114055760405162461bcd60e51b8152600401610df8906143ab565b7f00000000000000000000000000000000000000000000000000000000000000006001600160a01b031661144e600080516020614afc833981519152546001600160a01b031690565b6001600160a01b0316146114745760405162461bcd60e51b8152600401610df8906143f7565b61147d81612b5b565b6040805160008082526020820190925261149991839190612b85565b50565b610f2d83838360405180602001604052806000815250611b97565b6001600160a01b037f00000000000000000000000000000000000000000000000000000000000000001630036114ff5760405162461bcd60e51b8152600401610df8906143ab565b7f00000000000000000000000000000000000000000000000000000000000000006001600160a01b0316611548600080516020614afc833981519152546001600160a01b031690565b6001600160a01b03161461156e5760405162461bcd60e51b8152600401610df8906143f7565b61157782612b5b565b61158382826001612b85565b5050565b6000306001600160a01b037f000000000000000000000000000000000000000000000000000000000000000016146116275760405162461bcd60e51b815260206004820152603860248201527f555550535570677261646561626c653a206d757374206e6f742062652063616c60448201527f6c6564207468726f7567682064656c656761746563616c6c00000000000000006064820152608401610df8565b50600080516020614afc83398151915290565b6097546001600160a01b031633146116645760405162461bcd60e51b8152600401610df890614443565b80516116789061013190602084019061373f565b507ff9c7803e94e0d3c02900d8a90893a6d5e90dd04d32a4cfe825520f82bf9f32f6816040516116a89190613a3d565b60405180910390a150565b6000818152606760205260408120546001600160a01b031680610ceb5760405162461bcd60e51b815260206004820152602960248201527f4552433732313a206f776e657220717565727920666f72206e6f6e657869737460448201526832b73a103a37b5b2b760b91b6064820152608401610df8565b61013460205260009081526040902060018101546002820154600383015460048401805493946001600160a01b0393841694939092169261176a90614271565b80601f016020809104026020016040519081016040528092919081815260200182805461179690614271565b80156117e35780601f106117b8576101008083540402835291602001916117e3565b820191906000526020600020905b8154815290600101906020018083116117c657829003601f168201915b5050505050908060050180546117f890614271565b80601f016020809104026020016040519081016040528092919081815260200182805461182490614271565b80156118715780601f1061184657610100808354040283529160200191611871565b820191906000526020600020905b81548152906001019060200180831161185457829003601f168201915b50505050509080600601805461188690614271565b80601f01602080910402602001604051908101604052809291908181526020018280546118b290614271565b80156118ff5780601f106118d4576101008083540402835291602001916118ff565b820191906000526020600020905b8154815290600101906020018083116118e257829003601f168201915b50505050509080600701805461191490614271565b80601f016020809104026020016040519081016040528092919081815260200182805461194090614271565b801561198d5780601f106119625761010080835404028352916020019161198d565b820191906000526020600020905b81548152906001019060200180831161197057829003601f168201915b5050505050908060080180546119a290614271565b80601f01602080910402602001604051908101604052809291908181526020018280546119ce90614271565b8015611a1b5780601f106119f057610100808354040283529160200191611a1b565b820191906000526020600020905b8154815290600101906020018083116119fe57829003601f168201915b50505050509080600901549080600a015490508a565b6101318054611a3f90614271565b80601f0160208091040260200160405190810160405280929190818152602001828054611a6b90614271565b8015611ab85780601f10611a8d57610100808354040283529160200191611ab8565b820191906000526020600020905b815481529060010190602001808311611a9b57829003601f168201915b505050505081565b60006001600160a01b038216611b2b5760405162461bcd60e51b815260206004820152602a60248201527f4552433732313a2062616c616e636520717565727920666f7220746865207a65604482015269726f206164647265737360b01b6064820152608401610df8565b506001600160a01b031660009081526068602052604090205490565b6097546001600160a01b03163314611b715760405162461bcd60e51b8152600401610df890614443565b611b7b6000612cf0565b565b606060668054610d0090614271565b611583338383612d42565b611ba133836128e9565b611bbd5760405162461bcd60e51b8152600401610df890614332565b611bc984848484612e10565b50505050565b604080516001808252818301909252600091816020015b6060815260200190600190039081611be657905050905060405180604001604052806005815260200164766572726160d81b81525081600081518110611c2e57611c2e6142ab565b6020026020010181905250611c4389826121b7565b611c825760405162461bcd60e51b815260206004820152601060248201526f496e76616c696420726567697374727960801b6044820152606401610df8565b611c8b896116b3565b6001600160a01b0316336001600160a01b031614611ce15760405162461bcd60e51b815260206004820152601360248201527229b2b73232b91034b9903737ba1037bbb732b960691b6044820152606401610df8565b60008981526101346020526040902060010154611d0190620151806142d7565b4210611d425760405162461bcd60e51b815260206004820152601060248201526f0c8d081a1bdd5c9cc8195b185c1cd95960821b6044820152606401610df8565b8615611d6757600089815261013460205260409020611d659060040189896137c3565b505b6001600160a01b03861615611da25760008981526101346020526040902060030180546001600160a01b0319166001600160a01b0388161790555b8315611dc757600089815261013460205260409020611dc59060050186866137c3565b505b8115611dec57600089815261013460205260409020611dea9060060184846137c3565b505b6040518981527f9a100d2018161ede6ca34c8007992b09bbffc636a636014a922e4c87504126289060200160405180910390a1505050505050505050565b6000818152606760205260409020546060906001600160a01b0316611eab5760405162461bcd60e51b815260206004820152603160248201527f45524337323155524953746f726167653a2055524920717565727920666f72206044820152703737b732bc34b9ba32b73a103a37b5b2b760791b6064820152608401610df8565b610131611eb783612e43565b604051602001611ec8929190614494565b6040516020818303038152906040529050919050565b600060026101365403611f335760405162461bcd60e51b815260206004820152601f60248201527f5265656e7472616e637947756172643a207265656e7472616e742063616c6c006044820152606401610df8565b600261013655611f4d85611f4686614597565b8585612671565b60016101365595945050505050565b60008181526101346020908152604080832080548251818502810185019093528083528493830182828015611fb057602002820191906000526020600020905b815481526020019060010190808311611f9c575b5050505050905060005b81518110156120115761012e6000838381518110611fda57611fda6142ab565b602002602001015181526020019081526020016000206002015483611fff91906142d7565b925061200a816142ef565b9050611fba565b5050919050565b6000612023846116b3565b90506001600160a01b038116331461206c5760405162461bcd60e51b815260206004820152600c60248201526b155b985d5d1a1bdc9a5e995960a21b6044820152606401610df8565b611bc984828585612f43565b6097546001600160a01b031633146120a25760405162461bcd60e51b8152600401610df890614443565b61013280546001600160a01b0319166001600160a01b0383169081179091556040519081527f86907b53cf2024579968511876daf0b4620d65803b550e33101baf70aeb6f5eb906020016116a8565b6001600160a01b039182166000908152606a6020908152604080832093909416825291909152205460ff1690565b6097546001600160a01b031633146121495760405162461bcd60e51b8152600401610df890614443565b6001600160a01b0381166121ae5760405162461bcd60e51b815260206004820152602660248201527f4f776e61626c653a206e6577206f776e657220697320746865207a65726f206160448201526564647265737360d01b6064820152608401610df8565b61149981612cf0565b600082815261013460205260408120805482919082906121d9576121d96142ab565b600091825260208083209091015480835261012e8252604080842060030154610132548251630505792b60e51b815292519396509094936001600160a01b039091169263a0af25609260048082019392918290030181865afa158015612243573d6000803e3d6000fd5b505050506040513d601f19601f8201168201806040525081019061226791906146ca565b6001600160a01b03166315bbf074836040518263ffffffff1660e01b815260040161229491815260200190565b600060405180830381865afa1580156122b1573d6000803e3d6000fd5b505050506040513d6000823e601f3d908101601f191682016040526122d99190810190614743565b61016081015180519192509060000361230a5750604080518082019091526005815264766572726160d81b60208201525b60005b86518110156123675761234287828151811061232b5761232b6142ab565b60200260200101518361310590919063ffffffff16565b1561235557600195505050505050610ceb565b8061235f816142ef565b91505061230d565b506000979650505050505050565b6000612381600161312c565b90508015612399576000805461ff0019166101001790555b6123a16131b9565b6123e6604051806080016040528060458152602001614ab7604591396040518060400160405280600b81526020016a1513d550d0538b50d1549560aa1b8152506131e0565b6123ee61322e565b6123f661325e565b6123fe6131b9565b61013280546001600160a01b0319166001600160a01b038516179055815161242e9061013190602085019061373f565b508015610f2d576000805461ff0019169055604051600181527f7f26b83ff96e1f2b6a682f133852f6798a09c465da95921460cefb38474024989060200160405180910390a1505050565b6000818152610134602090815260408083208054825181850281018501909352808352849384939291908301828280156124d257602002820191906000526020600020905b8154815260200190600101908083116124be575b5050505050905060005b81518110156125335761012e60008383815181106124fc576124fc6142ab565b60200260200101518152602001908152602001600020600201548361252191906142d7565b925061252c816142ef565b90506124dc565b50610ffe670de0b6b3a76400008361431e565b6097546001600160a01b031633146125705760405162461bcd60e51b8152600401610df890614443565b610135548181036125b15760405162461bcd60e51b815260206004820152600b60248201526a105b1c9958591e481cd95d60aa1b6044820152606401610df8565b61013582905560408051828152602081018490527f551d481ccb1906e06e26b2f8bedf0b21755e092f001c4465f99aab9c67d8a039910160405180910390a15050565b6001600160a01b03163b151590565b600081815260696020526040902080546001600160a01b0319166001600160a01b0384169081179091558190612638826116b3565b6001600160a01b03167f8c5be1e5ebec7d5bd14f71427d1e84f3dd0314c0f7b2291e5b200ac8c7c3b92560405160405180910390a45050565b60006001600160a01b0385163314806126f8575061013254604051633a37b16d60e11b81523360048201526001600160a01b039091169063746f62da90602401602060405180830381865afa1580156126ce573d6000803e3d6000fd5b505050506040513d601f19601f820116820180604052508101906126f2919061438e565b15156001145b6127355760405162461bcd60e51b815260206004820152600e60248201526d24b73b30b634b21031b0b63632b960911b6044820152606401610df8565b61013380546001019081905561274d81878686612f43565b60008181526101346020908152604090912042600182015560608701516003820180546001600160a01b0319166001600160a01b03909216919091179055608087015180516127a693600590930192919091019061373f565b50600081815261013460209081526040918290206002810180546001600160a01b0319166001600160a01b038b161790559187015180516127ef9360040192919091019061373f565b5060a0850151600082815261013460209081526040909120825161281c936006909201929091019061373f565b5060c08501516000828152610134602090815260409091208251612849936007909201929091019061373f565b5060e08501516000828152610134602090815260409091208251612876936008909201929091019061373f565b50610100850151600082815261013460209081526040918290206009810193909355610120880151600a90930192909255518281527f54b249c3cd4a5f80e81d2ad036b251d58d8f5482a926f25d12eabec192cf1ecd910160405180910390a16128e0868261328d565b95945050505050565b6000818152606760205260408120546001600160a01b03166129625760405162461bcd60e51b815260206004820152602c60248201527f4552433732313a206f70657261746f7220717565727920666f72206e6f6e657860448201526b34b9ba32b73a103a37b5b2b760a11b6064820152608401610df8565b600061296d836116b3565b9050806001600160a01b0316846001600160a01b03161480612994575061299481856120f1565b80610ffe5750836001600160a01b03166129ad84610d83565b6001600160a01b031614949350505050565b826001600160a01b03166129d2826116b3565b6001600160a01b031614612a365760405162461bcd60e51b815260206004820152602560248201527f4552433732313a207472616e736665722066726f6d20696e636f72726563742060448201526437bbb732b960d91b6064820152608401610df8565b6001600160a01b038216612a985760405162461bcd60e51b8152602060048201526024808201527f4552433732313a207472616e7366657220746f20746865207a65726f206164646044820152637265737360e01b6064820152608401610df8565b612aa3600082612603565b6001600160a01b0383166000908152606860205260408120805460019290612acc9084906148cd565b90915550506001600160a01b0382166000908152606860205260408120805460019290612afa9084906142d7565b909155505060008181526067602052604080822080546001600160a01b0319166001600160a01b0386811691821790925591518493918716917fddf252ad1be2c89b69c2b068fc378daa952ba7f163c4a11628f55a4df523b3ef91a4505050565b6097546001600160a01b031633146114995760405162461bcd60e51b8152600401610df890614443565b7f4910fdfa16fed3260ed0e7147f7cc6da11a60208b5b9406d12a635614ffd91435460ff1615612bb857610f2d836132a7565b826001600160a01b03166352d1902d6040518163ffffffff1660e01b8152600401602060405180830381865afa925050508015612c12575060408051601f3d908101601f19168201909252612c0f918101906148e4565b60015b612c755760405162461bcd60e51b815260206004820152602e60248201527f45524331393637557067726164653a206e657720696d706c656d656e7461746960448201526d6f6e206973206e6f74205555505360901b6064820152608401610df8565b600080516020614afc8339815191528114612ce45760405162461bcd60e51b815260206004820152602960248201527f45524331393637557067726164653a20756e737570706f727465642070726f786044820152681a58589b195555525160ba1b6064820152608401610df8565b50610f2d838383613343565b609780546001600160a01b038381166001600160a01b0319831681179093556040519116919082907f8be0079c531659141344cd1fd0a4f28419497f9722a3daafe3b4186f6b6457e090600090a35050565b816001600160a01b0316836001600160a01b031603612da35760405162461bcd60e51b815260206004820152601960248201527f4552433732313a20617070726f766520746f2063616c6c6572000000000000006044820152606401610df8565b6001600160a01b038381166000818152606a6020908152604080832094871680845294825291829020805460ff191686151590811790915591519182527f17307eab39ab6107e8899845ad3d59bd9653f200f220920489ca2b5937696c31910160405180910390a3505050565b612e1b8484846129bf565b612e2784848484613368565b611bc95760405162461bcd60e51b8152600401610df8906148fd565b606081600003612e6a5750506040805180820190915260018152600360fc1b602082015290565b8160005b8115612e945780612e7e816142ef565b9150612e8d9050600a8361431e565b9150612e6e565b6000816001600160401b03811115612eae57612eae613d0c565b6040519080825280601f01601f191660200182016040528015612ed8576020820181803683370190505b5090505b8415610ffe57612eed6001836148cd565b9150612efa600a8661494f565b612f059060306142d7565b60f81b818381518110612f1a57612f1a6142ab565b60200101906001600160f81b031916908160001a905350612f3c600a8661431e565b9450612edc565b6000819003612f885760405162461bcd60e51b8152602060048201526011602482015270456d707479206576656e7420617272617960781b6044820152606401610df8565b60005b818110156130c3576000838383818110612fa757612fa76142ab565b60209081029290920135600081815261012e909352604090922060010154919250506001600160a01b038681169116146130235760405162461bcd60e51b815260206004820152601b60248201527f496e76616c6964206576656e7420746f20626520636c61696d656400000000006044820152606401610df8565b600081815261012f602052604090205460ff161561307b5760405162461bcd60e51b8152602060048201526015602482015274105b1c9958591e4818db185a5b595908195d995b9d605a1b6044820152606401610df8565b600081815261012f60209081526040808320805460ff191660019081179091558984526101348352908320805491820181558352912001556130bc816142ef565b9050612f8b565b507fc5872b1b6098a26efa71189456aa230cff448e7d6fbfa3b42d7eb105d541d4318483836040516130f793929190614963565b60405180910390a150505050565b600081518351148015613125575081805190602001208380519060200120145b9392505050565b60008054610100900460ff1615613173578160ff16600114801561314f5750303b155b61316b5760405162461bcd60e51b8152600401610df8906149a7565b506000919050565b60005460ff80841691161061319a5760405162461bcd60e51b8152600401610df8906149a7565b506000805460ff191660ff92909216919091179055600190565b919050565b600054610100900460ff16611b7b5760405162461bcd60e51b8152600401610df8906149f5565b600054610100900460ff166132075760405162461bcd60e51b8152600401610df8906149f5565b815161321a90606590602085019061373f565b508051610f2d90606690602084019061373f565b600054610100900460ff166132555760405162461bcd60e51b8152600401610df8906149f5565b611b7b33612cf0565b600054610100900460ff166132855760405162461bcd60e51b8152600401610df8906149f5565b600161013655565b611583828260405180602001604052806000815250613466565b6001600160a01b0381163b6133145760405162461bcd60e51b815260206004820152602d60248201527f455243313936373a206e657720696d706c656d656e746174696f6e206973206e60448201526c1bdd08184818dbdb9d1c9858dd609a1b6064820152608401610df8565b600080516020614afc83398151915280546001600160a01b0319166001600160a01b0392909216919091179055565b61334c83613499565b6000825111806133595750805b15610f2d57611bc983836134d9565b60006001600160a01b0384163b1561345e57604051630a85bd0160e11b81526001600160a01b0385169063150b7a02906133ac903390899088908890600401614a40565b6020604051808303816000875af19250505080156133e7575060408051601f3d908101601f191682019092526133e491810190614a7d565b60015b613444573d808015613415576040519150601f19603f3d011682016040523d82523d6000602084013e61341a565b606091505b50805160000361343c5760405162461bcd60e51b8152600401610df8906148fd565b805181602001fd5b6001600160e01b031916630a85bd0160e11b149050610ffe565b506001610ffe565b61347083836135c4565b61347d6000848484613368565b610f2d5760405162461bcd60e51b8152600401610df8906148fd565b6134a2816132a7565b6040516001600160a01b038216907fbc7cd75a20ee27fd9adebab32041f755214dbc6bffa90cc0225b39da2e5c2d3b90600090a250565b60606001600160a01b0383163b6135415760405162461bcd60e51b815260206004820152602660248201527f416464726573733a2064656c65676174652063616c6c20746f206e6f6e2d636f6044820152651b9d1c9858dd60d21b6064820152608401610df8565b600080846001600160a01b03168460405161355c9190614a9a565b600060405180830381855af49150503d8060008114613597576040519150601f19603f3d011682016040523d82523d6000602084013e61359c565b606091505b50915091506128e08282604051806060016040528060278152602001614b1c60279139613706565b6001600160a01b03821661361a5760405162461bcd60e51b815260206004820181905260248201527f4552433732313a206d696e7420746f20746865207a65726f20616464726573736044820152606401610df8565b6000818152606760205260409020546001600160a01b03161561367f5760405162461bcd60e51b815260206004820152601c60248201527f4552433732313a20746f6b656e20616c7265616479206d696e746564000000006044820152606401610df8565b6001600160a01b03821660009081526068602052604081208054600192906136a89084906142d7565b909155505060008181526067602052604080822080546001600160a01b0319166001600160a01b03861690811790915590518392907fddf252ad1be2c89b69c2b068fc378daa952ba7f163c4a11628f55a4df523b3ef908290a45050565b60608315613715575081613125565b8251156137255782518084602001fd5b8160405162461bcd60e51b8152600401610df89190613a3d565b82805461374b90614271565b90600052602060002090601f01602090048101928261376d57600085556137b3565b82601f1061378657805160ff19168380011785556137b3565b828001600101855582156137b3579182015b828111156137b3578251825591602001919060010190613798565b506137bf929150613837565b5090565b8280546137cf90614271565b90600052602060002090601f0160209004810192826137f157600085556137b3565b82601f1061380a5782800160ff198235161785556137b3565b828001600101855582156137b3579182015b828111156137b357823582559160200191906001019061381c565b5b808211156137bf5760008155600101613838565b60006020828403121561385e57600080fd5b5035919050565b600081518084526020808501945080840160005b8381101561389557815187529582019590820190600101613879565b509495945050505050565b60005b838110156138bb5781810151838201526020016138a3565b83811115611bc95750506000910152565b600081518084526138e48160208601602086016138a0565b601f01601f19169290920160200192915050565b6020815260008251610160806020850152613917610180850183613865565b915060208501516040850152604085015161393d60608601826001600160a01b03169052565b5060608501516001600160a01b0381166080860152506080850151601f19808685030160a087015261396f84836138cc565b935060a08701519150808685030160c087015261398c84836138cc565b935060c08701519150808685030160e08701526139a984836138cc565b935060e087015191506101008187860301818801526139c885846138cc565b9450808801519250506101208187860301818801526139e785846138cc565b908801516101408881019190915290970151929095019190915250929392505050565b6001600160e01b03198116811461149957600080fd5b600060208284031215613a3257600080fd5b813561312581613a0a565b60208152600061312560208301846138cc565b6001600160a01b038116811461149957600080fd5b80356131b481613a50565b60008060408385031215613a8357600080fd5b8235613a8e81613a50565b946020939093013593505050565b60008083601f840112613aae57600080fd5b5081356001600160401b03811115613ac557600080fd5b602083019150836020828501011115613add57600080fd5b9250929050565b60008083601f840112613af657600080fd5b5081356001600160401b03811115613b0d57600080fd5b6020830191508360208260051b8501011115613add57600080fd5b60008060008060008060008060008060c08b8d031215613b4757600080fd5b613b508b613a65565b995060208b01356001600160401b0380821115613b6c57600080fd5b613b788e838f01613a9c565b909b509950899150613b8c60408e01613a65565b985060608d0135915080821115613ba257600080fd5b613bae8e838f01613a9c565b909850965060808d0135915080821115613bc757600080fd5b613bd38e838f01613a9c565b909650945060a08d0135915080821115613bec57600080fd5b50613bf98d828e01613ae4565b915080935050809150509295989b9194979a5092959850565b600060208284031215613c2457600080fd5b813561312581613a50565b6020808252825182820181905260009190848201906040850190845b81811015613c6757835183529284019291840191600101613c4b565b50909695505050505050565b600080600060608486031215613c8857600080fd5b8335613c9381613a50565b92506020840135613ca381613a50565b929592945050506040919091013590565b801515811461149957600080fd5b60008060008060808587031215613cd857600080fd5b8435613ce381613a50565b935060208501359250604085013591506060850135613d0181613cb4565b939692955090935050565b634e487b7160e01b600052604160045260246000fd5b60405161014081016001600160401b0381118282101715613d4557613d45613d0c565b60405290565b60405161018081016001600160401b0381118282101715613d4557613d45613d0c565b604051601f8201601f191681016001600160401b0381118282101715613d9657613d96613d0c565b604052919050565b60006001600160401b03821115613db757613db7613d0c565b50601f01601f191660200190565b600082601f830112613dd657600080fd5b8135613de9613de482613d9e565b613d6e565b818152846020838601011115613dfe57600080fd5b816020850160208301376000918101602001919091529392505050565b60008060408385031215613e2e57600080fd5b8235613e3981613a50565b915060208301356001600160401b03811115613e5457600080fd5b613e6085828601613dc5565b9150509250929050565b600060208284031215613e7c57600080fd5b81356001600160401b03811115613e9257600080fd5b610ffe84828501613dc5565b8a81526001600160a01b038a811660208301528916604082015261014060608201819052600090613ed18382018b6138cc565b90508281036080840152613ee5818a6138cc565b905082810360a0840152613ef981896138cc565b905082810360c0840152613f0d81886138cc565b905082810360e0840152613f2181876138cc565b6101008401959095525050610120015298975050505050505050565b60008060408385031215613f5057600080fd5b8235613f5b81613a50565b91506020830135613f6b81613cb4565b809150509250929050565b60008060008060808587031215613f8c57600080fd5b8435613f9781613a50565b93506020850135613fa781613a50565b92506040850135915060608501356001600160401b03811115613fc957600080fd5b613fd587828801613dc5565b91505092959194509250565b60008060008060008060008060a0898b031215613ffd57600080fd5b8835975060208901356001600160401b038082111561401b57600080fd5b6140278c838d01613a9c565b909950975060408b0135915061403c82613a50565b90955060608a0135908082111561405257600080fd5b61405e8c838d01613a9c565b909650945060808b013591508082111561407757600080fd5b506140848b828c01613a9c565b999c989b5096995094979396929594505050565b600080600080606085870312156140ae57600080fd5b84356140b981613a50565b935060208501356001600160401b03808211156140d557600080fd5b9086019061014082890312156140ea57600080fd5b9093506040860135908082111561410057600080fd5b5061410d87828801613ae4565b95989497509550505050565b60008060006040848603121561412e57600080fd5b8335925060208401356001600160401b0381111561414b57600080fd5b61415786828701613ae4565b9497909650939450505050565b6000806040838503121561417757600080fd5b823561418281613a50565b91506020830135613f6b81613a50565b60006001600160401b038211156141ab576141ab613d0c565b5060051b60200190565b600080604083850312156141c857600080fd5b823591506020808401356001600160401b03808211156141e757600080fd5b818601915086601f8301126141fb57600080fd5b8135614209613de482614192565b81815260059190911b8301840190848101908983111561422857600080fd5b8585015b83811015614260578035858111156142445760008081fd5b6142528c89838a0101613dc5565b84525091860191860161422c565b508096505050505050509250929050565b600181811c9082168061428557607f821691505b6020821081036142a557634e487b7160e01b600052602260045260246000fd5b50919050565b634e487b7160e01b600052603260045260246000fd5b634e487b7160e01b600052601160045260246000fd5b600082198211156142ea576142ea6142c1565b500190565b600060018201614301576143016142c1565b5060010190565b634e487b7160e01b600052601260045260246000fd5b60008261432d5761432d614308565b500490565b60208082526031908201527f4552433732313a207472616e736665722063616c6c6572206973206e6f74206f6040820152701ddb995c881b9bdc88185c1c1c9bdd9959607a1b606082015260800190565b80516131b481613cb4565b6000602082840312156143a057600080fd5b815161312581613cb4565b6020808252602c908201527f46756e6374696f6e206d7573742062652063616c6c6564207468726f7567682060408201526b19195b1959d85d1958d85b1b60a21b606082015260800190565b6020808252602c908201527f46756e6374696f6e206d7573742062652063616c6c6564207468726f7567682060408201526b6163746976652070726f787960a01b606082015260800190565b6020808252818101527f4f776e61626c653a2063616c6c6572206973206e6f7420746865206f776e6572604082015260600190565b6000815161448a8185602086016138a0565b9290920192915050565b600080845481600182811c9150808316806144b057607f831692505b602080841082036144cf57634e487b7160e01b86526022600452602486fd5b8180156144e357600181146144f457614521565b60ff19861689528489019650614521565b60008b81526020902060005b868110156145195781548b820152908501908301614500565b505084890196505b5050505050506128e08185614478565b600082601f83011261454257600080fd5b81356020614552613de483614192565b82815260059290921b8401810191818101908684111561457157600080fd5b8286015b8481101561458c5780358352918301918301614575565b509695505050505050565b600061014082360312156145aa57600080fd5b6145b2613d22565b82356001600160401b03808211156145c957600080fd5b6145d536838701614531565b83526020850135602084015260408501359150808211156145f557600080fd5b61460136838701613dc5565b604084015261461260608601613a65565b6060840152608085013591508082111561462b57600080fd5b61463736838701613dc5565b608084015260a085013591508082111561465057600080fd5b61465c36838701613dc5565b60a084015260c085013591508082111561467557600080fd5b61468136838701613dc5565b60c084015260e085013591508082111561469a57600080fd5b506146a736828601613dc5565b60e083015250610100838101359082015261012092830135928101929092525090565b6000602082840312156146dc57600080fd5b815161312581613a50565b600082601f8301126146f857600080fd5b8151614706613de482613d9e565b81815284602083860101111561471b57600080fd5b610ffe8260208301602087016138a0565b80516001600160401b03811681146131b457600080fd5b60006020828403121561475557600080fd5b81516001600160401b038082111561476c57600080fd5b90830190610180828603121561478157600080fd5b614789613d4b565b82518281111561479857600080fd5b6147a4878286016146e7565b8252506147b36020840161472c565b60208201526147c46040840161472c565b6040820152606083015160608201526147df6080840161472c565b60808201526147f060a08401614383565b60a082015261480160c08401614383565b60c082015260e08301518281111561481857600080fd5b614824878286016146e7565b60e083015250610100808401518381111561483e57600080fd5b61484a888287016146e7565b828401525050610120808401518381111561486457600080fd5b614870888287016146e7565b828401525050610140808401518381111561488a57600080fd5b614896888287016146e7565b82840152505061016080840151838111156148b057600080fd5b6148bc888287016146e7565b918301919091525095945050505050565b6000828210156148df576148df6142c1565b500390565b6000602082840312156148f657600080fd5b5051919050565b60208082526032908201527f4552433732313a207472616e7366657220746f206e6f6e20455243373231526560408201527131b2b4bb32b91034b6b83632b6b2b73a32b960711b606082015260800190565b60008261495e5761495e614308565b500690565b838152604060208201819052810182905260006001600160fb1b0383111561498a57600080fd5b8260051b8085606085013760009201606001918252509392505050565b6020808252602e908201527f496e697469616c697a61626c653a20636f6e747261637420697320616c72656160408201526d191e481a5b9a5d1a585b1a5e995960921b606082015260800190565b6020808252602b908201527f496e697469616c697a61626c653a20636f6e7472616374206973206e6f74206960408201526a6e697469616c697a696e6760a81b606082015260800190565b6001600160a01b0385811682528416602082015260408101839052608060608201819052600090614a73908301846138cc565b9695505050505050565b600060208284031215614a8f57600080fd5b815161312581613a0a565b60008251614aac8184602087016138a0565b919091019291505056fe546f7563616e2050726f746f636f6c3a205265746972656d656e742043657274696669636174657320666f7220546f6b656e697a656420436172626f6e204f666673657473360894a13ba1a3210667c828492db98dca3e2076cc3735a920a3ca505d382bbc416464726573733a206c6f772d6c6576656c2064656c65676174652063616c6c206661696c6564a264697066735822122082507c27e796fd0ac60a6d57d3922237ad2b8c8ffcbae4320c148ff0f683030964736f6c634300080e0033496e697469616c697a61626c653a20636f6e747261637420697320616c726561",
  "devdoc": {
    "details": "The amount of RetirementEvents is denominated in the 18-decimal formGetters in this contract return the corresponding amount in tonnes or kilos",
    "kind": "dev",
    "methods": {
      "approve(address,uint256)": {
        "details": "See {IERC721-approve}."
      },
      "attachRetirementEvents(uint256,uint256[])": {
        "params": {
          "retirementEventIds": "An array of event ids to associate with the NFT.",
          "tokenId": "The id of the NFT to attach events to."
        }
      },
      "balanceOf(address)": {
        "details": "See {IERC721-balanceOf}."
      },
      "constructor": {
        "custom:oz-upgrades-unsafe-allow": "constructor"
      },
      "getApproved(uint256)": {
        "details": "See {IERC721-getApproved}."
      },
      "getData(uint256)": {
        "params": {
          "tokenId": "The id of the NFT to get data for."
        }
      },
      "getRetiredAmount(uint256)": {
        "details": "The return amount is denominated in 18 decimals, similar to amounts as they are read in TCO2 contracts. For example, 1000000000000000000 means 1 tonne.",
        "params": {
          "tokenId": "The id of the NFT to update."
        },
        "returns": {
          "amount": "Total retired amount for an NFT."
        }
      },
      "getRetiredAmountInKilos(uint256)": {
        "params": {
          "tokenId": "The id of the NFT to update."
        },
        "returns": {
          "_0": "amount Total retired amount for an NFT in kilos."
        }
      },
      "getRetiredAmountInTonnes(uint256)": {
        "params": {
          "tokenId": "The id of the NFT to update."
        },
        "returns": {
          "_0": "amount Total retired amount for an NFT in tonnes."
        }
      },
      "getUserEvents(address)": {
        "params": {
          "user": "The user for whom to fetch all events."
        }
      },
      "isApprovedForAll(address,address)": {
        "details": "See {IERC721-isApprovedForAll}."
      },
      "mintCertificate(address,string,address,string,string,uint256[])": {
        "details": "The function can either be called by a valid TCO2 contract or by someone who         owns retirement events.",
        "params": {
          "beneficiary": "The beneficiary address for whom the TCO2 amount was retired.",
          "beneficiaryString": "An identifiable string for the beneficiary, eg. their name.",
          "retirementEventIds": "An array of event ids to associate with the NFT.",
          "retirementMessage": "A message to accompany the retirement.",
          "retiringEntity": "The entity that has retired TCO2 and is eligible to mint an NFT.",
          "retiringEntityString": "An identifiable string for the retiring entity, eg. their name."
        },
        "returns": {
          "_0": "The token id of the newly minted NFT."
        }
      },
      "mintCertificateWithExtraData(address,(uint256[],uint256,string,address,string,string,string,string,uint256,uint256),uint256[])": {
        "details": "The function can either be called by a valid TCO2 contract or by someone who         owns retirement events.",
        "params": {
          "params": "Retirement params",
          "retirementEventIds": "An array of event ids to associate with the NFT.",
          "retiringEntity": "The entity that has retired TCO2 and is eligible to mint an NFT."
        },
        "returns": {
          "_0": "The token id of the newly minted NFT."
        }
      },
      "name()": {
        "details": "See {IERC721Metadata-name}."
      },
      "owner()": {
        "details": "Returns the address of the current owner."
      },
      "ownerOf(uint256)": {
        "details": "See {IERC721-ownerOf}."
      },
      "proxiableUUID()": {
        "details": "Implementation of the ERC1822 {proxiableUUID} function. This returns the storage slot used by the implementation. It is used to validate that the this implementation remains valid after an upgrade. IMPORTANT: A proxy pointing at a proxiable contract should not be considered proxiable itself, because this risks bricking a proxy that upgrades to it, by delegating to itself until out of gas. Thus it is critical that this function revert if invoked through a proxy. This is guaranteed by the `notDelegated` modifier."
      },
      "registerEvent(address,uint256,uint256,bool)": {
        "details": "The function can either be only called by a valid TCO2 contract.",
        "params": {
          "amount": "The amount of the TCO2 that is retired.",
          "isLegacy": "Whether this event registration was executed by using the legacy retired amount in the TCO2 contract or utilizes the new retirement event design.",
          "projectVintageTokenId": "The vintage id of the TCO2 that is retired.",
          "retiringEntity": "The entity that has retired TCO2 and is eligible to mint an NFT."
        }
      },
      "renounceOwnership()": {
        "details": "Leaves the contract without owner. It will not be possible to call `onlyOwner` functions anymore. Can only be called by the current owner. NOTE: Renouncing ownership will leave the contract without an owner, thereby removing any functionality that is only available to the owner."
      },
      "safeTransferFrom(address,address,uint256)": {
        "details": "See {IERC721-safeTransferFrom}."
      },
      "safeTransferFrom(address,address,uint256,bytes)": {
        "details": "See {IERC721-safeTransferFrom}."
      },
      "setApprovalForAll(address,bool)": {
        "details": "See {IERC721-setApprovalForAll}."
      },
      "supportsInterface(bytes4)": {
        "details": "See {IERC165-supportsInterface}."
      },
      "symbol()": {
        "details": "See {IERC721Metadata-symbol}."
      },
      "tokenURI(uint256)": {
        "details": "Returns the Uniform Resource Identifier (URI) for `tokenId` token. based on the ERC721URIStorage implementation",
        "params": {
          "tokenId": "The id of the NFT to get the URI."
        }
      },
      "transferFrom(address,address,uint256)": {
        "details": "See {IERC721-transferFrom}."
      },
      "transferOwnership(address)": {
        "details": "Transfers ownership of the contract to a new account (`newOwner`). Can only be called by the current owner."
      },
      "updateCertificate(uint256,string,address,string,string)": {
        "params": {
          "beneficiary": "The new beneficiary to set in the NFT.",
          "beneficiaryString": "An identifiable string for the beneficiary, eg. their name.",
          "retirementMessage": "The new retirementMessage to set in the NFT.",
          "retiringEntityString": "An identifiable string for the retiring entity, eg. their name.",
          "tokenId": "The id of the NFT to update."
        }
      },
      "upgradeTo(address)": {
        "details": "Upgrade the implementation of the proxy to `newImplementation`. Calls {_authorizeUpgrade}. Emits an {Upgraded} event."
      },
      "upgradeToAndCall(address,bytes)": {
        "details": "Upgrade the implementation of the proxy to `newImplementation`, and subsequently execute the function call encoded in `data`. Calls {_authorizeUpgrade}. Emits an {Upgraded} event."
      }
    },
    "stateVariables": {
      "VERSION": {
        "details": "Version-related parameters. VERSION keeps track of production releases. VERSION_RELEASE_CANDIDATE keeps track of iterations of a VERSION in our staging environment."
      },
      "tonneDenomination": {
        "details": "dividers to round carbon in human-readable denominations"
      }
    },
    "version": 1
  },
  "userdoc": {
    "kind": "user",
    "methods": {
      "attachRetirementEvents(uint256,uint256[])": {
        "notice": "Attach retirement events to an NFT."
      },
      "getData(uint256)": {
        "notice": "Get certificate data for an NFT."
      },
      "getRetiredAmount(uint256)": {
        "notice": "Get total retired amount for an NFT."
      },
      "getRetiredAmountInKilos(uint256)": {
        "notice": "Get total retired amount for an NFT in kilos."
      },
      "getRetiredAmountInTonnes(uint256)": {
        "notice": "Get total retired amount for an NFT in tonnes."
      },
      "getUserEvents(address)": {
        "notice": "Get all events for a user."
      },
      "mintCertificate(address,string,address,string,string,uint256[])": {
        "notice": "Mint new Retirement Certificate NFT that shows how many TCO2s have been retired."
      },
      "mintCertificateWithExtraData(address,(uint256[],uint256,string,address,string,string,string,string,uint256,uint256),uint256[])": {
        "notice": "Mint new Retirement Certificate NFT that shows how many TCO2s have been retired."
      },
      "registerEvent(address,uint256,uint256,bool)": {
        "notice": "Register retirement events. This function can only be called by a TC02 contract to register retirement events so they can be directly linked to an NFT mint."
      },
      "updateCertificate(uint256,string,address,string,string)": {
        "notice": "Update retirementMessage, beneficiary, and beneficiaryString of a NFT within 24h of creation. Empty values are ignored, ie., will not overwrite the existing stored values in the NFT."
      }
    },
    "notice": "The `RetirementCertificates` contract lets users mint NFTs that act as proof-of-retirement. These Retirement Certificate NFTs display how many TCO2s a user has burnt",
    "version": 1
  },
  "storageLayout": {
    "storage": [
      {
        "astId": 1489,
        "contract": "contracts/RetirementCertificates.sol:RetirementCertificates",
        "label": "_initialized",
        "offset": 0,
        "slot": "0",
        "type": "t_uint8"
      },
      {
        "astId": 1492,
        "contract": "contracts/RetirementCertificates.sol:RetirementCertificates",
        "label": "_initializing",
        "offset": 1,
        "slot": "0",
        "type": "t_bool"
      },
      {
        "astId": 4593,
        "contract": "contracts/RetirementCertificates.sol:RetirementCertificates",
        "label": "__gap",
        "offset": 0,
        "slot": "1",
        "type": "t_array(t_uint256)50_storage"
      },
      {
        "astId": 4900,
        "contract": "contracts/RetirementCertificates.sol:RetirementCertificates",
        "label": "__gap",
        "offset": 0,
        "slot": "51",
        "type": "t_array(t_uint256)50_storage"
      },
      {
        "astId": 2897,
        "contract": "contracts/RetirementCertificates.sol:RetirementCertificates",
        "label": "_name",
        "offset": 0,
        "slot": "101",
        "type": "t_string_storage"
      },
      {
        "astId": 2899,
        "contract": "contracts/RetirementCertificates.sol:RetirementCertificates",
        "label": "_symbol",
        "offset": 0,
        "slot": "102",
        "type": "t_string_storage"
      },
      {
        "astId": 2903,
        "contract": "contracts/RetirementCertificates.sol:RetirementCertificates",
        "label": "_owners",
        "offset": 0,
        "slot": "103",
        "type": "t_mapping(t_uint256,t_address)"
      },
      {
        "astId": 2907,
        "contract": "contracts/RetirementCertificates.sol:RetirementCertificates",
        "label": "_balances",
        "offset": 0,
        "slot": "104",
        "type": "t_mapping(t_address,t_uint256)"
      },
      {
        "astId": 2911,
        "contract": "contracts/RetirementCertificates.sol:RetirementCertificates",
        "label": "_tokenApprovals",
        "offset": 0,
        "slot": "105",
        "type": "t_mapping(t_uint256,t_address)"
      },
      {
        "astId": 2917,
        "contract": "contracts/RetirementCertificates.sol:RetirementCertificates",
        "label": "_operatorApprovals",
        "offset": 0,
        "slot": "106",
        "type": "t_mapping(t_address,t_mapping(t_address,t_bool))"
      },
      {
        "astId": 3758,
        "contract": "contracts/RetirementCertificates.sol:RetirementCertificates",
        "label": "__gap",
        "offset": 0,
        "slot": "107",
        "type": "t_array(t_uint256)44_storage"
      },
      {
        "astId": 980,
        "contract": "contracts/RetirementCertificates.sol:RetirementCertificates",
        "label": "_owner",
        "offset": 0,
        "slot": "151",
        "type": "t_address"
      },
      {
        "astId": 1092,
        "contract": "contracts/RetirementCertificates.sol:RetirementCertificates",
        "label": "__gap",
        "offset": 0,
        "slot": "152",
        "type": "t_array(t_uint256)49_storage"
      },
      {
        "astId": 1471,
        "contract": "contracts/RetirementCertificates.sol:RetirementCertificates",
        "label": "__gap",
        "offset": 0,
        "slot": "201",
        "type": "t_array(t_uint256)50_storage"
      },
      {
        "astId": 1759,
        "contract": "contracts/RetirementCertificates.sol:RetirementCertificates",
        "label": "__gap",
        "offset": 0,
        "slot": "251",
        "type": "t_array(t_uint256)50_storage"
      },
      {
        "astId": 11129,
        "contract": "contracts/RetirementCertificates.sol:RetirementCertificates",
        "label": "retireEventCounter",
        "offset": 0,
        "slot": "301",
        "type": "t_uint256"
      },
      {
        "astId": 11135,
        "contract": "contracts/RetirementCertificates.sol:RetirementCertificates",
        "label": "retirements",
        "offset": 0,
        "slot": "302",
        "type": "t_mapping(t_uint256,t_struct(RetirementEvent)11126_storage)"
      },
      {
        "astId": 11140,
        "contract": "contracts/RetirementCertificates.sol:RetirementCertificates",
        "label": "claimedEvents",
        "offset": 0,
        "slot": "303",
        "type": "t_mapping(t_uint256,t_bool)"
      },
      {
        "astId": 11146,
        "contract": "contracts/RetirementCertificates.sol:RetirementCertificates",
        "label": "eventsOfUser",
        "offset": 0,
        "slot": "304",
        "type": "t_mapping(t_address,t_array(t_uint256)dyn_storage)"
      },
      {
        "astId": 11148,
        "contract": "contracts/RetirementCertificates.sol:RetirementCertificates",
        "label": "baseURI",
        "offset": 0,
        "slot": "305",
        "type": "t_string_storage"
      },
      {
        "astId": 11150,
        "contract": "contracts/RetirementCertificates.sol:RetirementCertificates",
        "label": "contractRegistry",
        "offset": 0,
        "slot": "306",
        "type": "t_address"
      },
      {
        "astId": 11152,
        "contract": "contracts/RetirementCertificates.sol:RetirementCertificates",
        "label": "_tokenIds",
        "offset": 0,
        "slot": "307",
        "type": "t_uint256"
      },
      {
        "astId": 11157,
        "contract": "contracts/RetirementCertificates.sol:RetirementCertificates",
        "label": "certificates",
        "offset": 0,
        "slot": "308",
        "type": "t_mapping(t_uint256,t_struct(Data)11116_storage)"
      },
      {
        "astId": 11159,
        "contract": "contracts/RetirementCertificates.sol:RetirementCertificates",
        "label": "minValidRetirementAmount",
        "offset": 0,
        "slot": "309",
        "type": "t_uint256"
      },
      {
        "astId": 1885,
        "contract": "contracts/RetirementCertificates.sol:RetirementCertificates",
        "label": "_status",
        "offset": 0,
        "slot": "310",
        "type": "t_uint256"
      },
      {
        "astId": 1929,
        "contract": "contracts/RetirementCertificates.sol:RetirementCertificates",
        "label": "__gap",
        "offset": 0,
        "slot": "311",
        "type": "t_array(t_uint256)49_storage"
      }
    ],
    "types": {
      "t_address": {
        "encoding": "inplace",
        "label": "address",
        "numberOfBytes": "20"
      },
      "t_array(t_uint256)44_storage": {
        "base": "t_uint256",
        "encoding": "inplace",
        "label": "uint256[44]",
        "numberOfBytes": "1408"
      },
      "t_array(t_uint256)49_storage": {
        "base": "t_uint256",
        "encoding": "inplace",
        "label": "uint256[49]",
        "numberOfBytes": "1568"
      },
      "t_array(t_uint256)50_storage": {
        "base": "t_uint256",
        "encoding": "inplace",
        "label": "uint256[50]",
        "numberOfBytes": "1600"
      },
      "t_array(t_uint256)dyn_storage": {
        "base": "t_uint256",
        "encoding": "dynamic_array",
        "label": "uint256[]",
        "numberOfBytes": "32"
      },
      "t_bool": {
        "encoding": "inplace",
        "label": "bool",
        "numberOfBytes": "1"
      },
      "t_mapping(t_address,t_array(t_uint256)dyn_storage)": {
        "encoding": "mapping",
        "key": "t_address",
        "label": "mapping(address => uint256[])",
        "numberOfBytes": "32",
        "value": "t_array(t_uint256)dyn_storage"
      },
      "t_mapping(t_address,t_bool)": {
        "encoding": "mapping",
        "key": "t_address",
        "label": "mapping(address => bool)",
        "numberOfBytes": "32",
        "value": "t_bool"
      },
      "t_mapping(t_address,t_mapping(t_address,t_bool))": {
        "encoding": "mapping",
        "key": "t_address",
        "label": "mapping(address => mapping(address => bool))",
        "numberOfBytes": "32",
        "value": "t_mapping(t_address,t_bool)"
      },
      "t_mapping(t_address,t_uint256)": {
        "encoding": "mapping",
        "key": "t_address",
        "label": "mapping(address => uint256)",
        "numberOfBytes": "32",
        "value": "t_uint256"
      },
      "t_mapping(t_uint256,t_address)": {
        "encoding": "mapping",
        "key": "t_uint256",
        "label": "mapping(uint256 => address)",
        "numberOfBytes": "32",
        "value": "t_address"
      },
      "t_mapping(t_uint256,t_bool)": {
        "encoding": "mapping",
        "key": "t_uint256",
        "label": "mapping(uint256 => bool)",
        "numberOfBytes": "32",
        "value": "t_bool"
      },
      "t_mapping(t_uint256,t_struct(Data)11116_storage)": {
        "encoding": "mapping",
        "key": "t_uint256",
        "label": "mapping(uint256 => struct RetirementCertificatesStorageV1.Data)",
        "numberOfBytes": "32",
        "value": "t_struct(Data)11116_storage"
      },
      "t_mapping(t_uint256,t_struct(RetirementEvent)11126_storage)": {
        "encoding": "mapping",
        "key": "t_uint256",
        "label": "mapping(uint256 => struct RetirementCertificatesStorageV1.RetirementEvent)",
        "numberOfBytes": "32",
        "value": "t_struct(RetirementEvent)11126_storage"
      },
      "t_string_storage": {
        "encoding": "bytes",
        "label": "string",
        "numberOfBytes": "32"
      },
      "t_struct(Data)11116_storage": {
        "encoding": "inplace",
        "label": "struct RetirementCertificatesStorageV1.Data",
        "members": [
          {
            "astId": 11095,
            "contract": "contracts/RetirementCertificates.sol:RetirementCertificates",
            "label": "retirementEventIds",
            "offset": 0,
            "slot": "0",
            "type": "t_array(t_uint256)dyn_storage"
          },
          {
            "astId": 11097,
            "contract": "contracts/RetirementCertificates.sol:RetirementCertificates",
            "label": "createdAt",
            "offset": 0,
            "slot": "1",
            "type": "t_uint256"
          },
          {
            "astId": 11099,
            "contract": "contracts/RetirementCertificates.sol:RetirementCertificates",
            "label": "retiringEntity",
            "offset": 0,
            "slot": "2",
            "type": "t_address"
          },
          {
            "astId": 11101,
            "contract": "contracts/RetirementCertificates.sol:RetirementCertificates",
            "label": "beneficiary",
            "offset": 0,
            "slot": "3",
            "type": "t_address"
          },
          {
            "astId": 11103,
            "contract": "contracts/RetirementCertificates.sol:RetirementCertificates",
            "label": "retiringEntityString",
            "offset": 0,
            "slot": "4",
            "type": "t_string_storage"
          },
          {
            "astId": 11105,
            "contract": "contracts/RetirementCertificates.sol:RetirementCertificates",
            "label": "beneficiaryString",
            "offset": 0,
            "slot": "5",
            "type": "t_string_storage"
          },
          {
            "astId": 11107,
            "contract": "contracts/RetirementCertificates.sol:RetirementCertificates",
            "label": "retirementMessage",
            "offset": 0,
            "slot": "6",
            "type": "t_string_storage"
          },
          {
            "astId": 11109,
            "contract": "contracts/RetirementCertificates.sol:RetirementCertificates",
            "label": "beneficiaryLocation",
            "offset": 0,
            "slot": "7",
            "type": "t_string_storage"
          },
          {
            "astId": 11111,
            "contract": "contracts/RetirementCertificates.sol:RetirementCertificates",
            "label": "consumptionCountryCode",
            "offset": 0,
            "slot": "8",
            "type": "t_string_storage"
          },
          {
            "astId": 11113,
            "contract": "contracts/RetirementCertificates.sol:RetirementCertificates",
            "label": "consumptionPeriodStart",
            "offset": 0,
            "slot": "9",
            "type": "t_uint256"
          },
          {
            "astId": 11115,
            "contract": "contracts/RetirementCertificates.sol:RetirementCertificates",
            "label": "consumptionPeriodEnd",
            "offset": 0,
            "slot": "10",
            "type": "t_uint256"
          }
        ],
        "numberOfBytes": "352"
      },
      "t_struct(RetirementEvent)11126_storage": {
        "encoding": "inplace",
        "label": "struct RetirementCertificatesStorageV1.RetirementEvent",
        "members": [
          {
            "astId": 11118,
            "contract": "contracts/RetirementCertificates.sol:RetirementCertificates",
            "label": "createdAt",
            "offset": 0,
            "slot": "0",
            "type": "t_uint256"
          },
          {
            "astId": 11120,
            "contract": "contracts/RetirementCertificates.sol:RetirementCertificates",
            "label": "retiringEntity",
            "offset": 0,
            "slot": "1",
            "type": "t_address"
          },
          {
            "astId": 11123,
            "contract": "contracts/RetirementCertificates.sol:RetirementCertificates",
            "label": "amount",
            "offset": 0,
            "slot": "2",
            "type": "t_uint256"
          },
          {
            "astId": 11125,
            "contract": "contracts/RetirementCertificates.sol:RetirementCertificates",
            "label": "projectVintageTokenId",
            "offset": 0,
            "slot": "3",
            "type": "t_uint256"
          }
        ],
        "numberOfBytes": "128"
      },
      "t_uint256": {
        "encoding": "inplace",
        "label": "uint256",
        "numberOfBytes": "32"
      },
      "t_uint8": {
        "encoding": "inplace",
        "label": "uint8",
        "numberOfBytes": "1"
      }
    }
  }
}