{
  "address": "0x2D2B8A154EFE0E5dd9e8E923eAd9abb7e5D770C3",
  "abi": [
    {
      "anonymous": false,
      "inputs": [
        {
          "indexed": false,
          "internalType": "address",
          "name": "previousAdmin",
          "type": "address"
        },
        {
          "indexed": false,
          "internalType": "address",
          "name": "newAdmin",
          "type": "address"
        }
      ],
      "name": "AdminChanged",
      "type": "event"
    },
    {
      "anonymous": false,
      "inputs": [
        {
          "indexed": true,
          "internalType": "address",
          "name": "beacon",
          "type": "address"
        }
      ],
      "name": "BeaconUpgraded",
      "type": "event"
    },
    {
      "anonymous": false,
      "inputs": [
        {
          "indexed": false,
          "internalType": "address",
          "name": "contractRegistry",
          "type": "address"
        }
      ],
      "name": "ContractRegistryUpdated",
      "type": "event"
    },
    {
      "anonymous": false,
      "inputs": [
        {
          "indexed": false,
          "internalType": "uint8",
          "name": "version",
          "type": "uint8"
        }
      ],
      "name": "Initialized",
      "type": "event"
    },
    {
      "anonymous": false,
      "inputs": [
        {
          "indexed": true,
          "internalType": "address",
          "name": "previousOwner",
          "type": "address"
        },
        {
          "indexed": true,
          "internalType": "address",
          "name": "newOwner",
          "type": "address"
        }
      ],
      "name": "OwnershipTransferred",
      "type": "event"
    },
    {
      "anonymous": false,
      "inputs": [
        {
          "indexed": false,
          "internalType": "address",
          "name": "account",
          "type": "address"
        }
      ],
      "name": "Paused",
      "type": "event"
    },
    {
      "anonymous": false,
      "inputs": [
        {
          "indexed": true,
          "internalType": "bytes32",
          "name": "role",
          "type": "bytes32"
        },
        {
          "indexed": true,
          "internalType": "bytes32",
          "name": "previousAdminRole",
          "type": "bytes32"
        },
        {
          "indexed": true,
          "internalType": "bytes32",
          "name": "newAdminRole",
          "type": "bytes32"
        }
      ],
      "name": "RoleAdminChanged",
      "type": "event"
    },
    {
      "anonymous": false,
      "inputs": [
        {
          "indexed": true,
          "internalType": "bytes32",
          "name": "role",
          "type": "bytes32"
        },
        {
          "indexed": true,
          "internalType": "address",
          "name": "account",
          "type": "address"
        },
        {
          "indexed": true,
          "internalType": "address",
          "name": "sender",
          "type": "address"
        }
      ],
      "name": "RoleGranted",
      "type": "event"
    },
    {
      "anonymous": false,
      "inputs": [
        {
          "indexed": true,
          "internalType": "bytes32",
          "name": "role",
          "type": "bytes32"
        },
        {
          "indexed": true,
          "internalType": "address",
          "name": "account",
          "type": "address"
        },
        {
          "indexed": true,
          "internalType": "address",
          "name": "sender",
          "type": "address"
        }
      ],
      "name": "RoleRevoked",
      "type": "event"
    },
    {
      "anonymous": false,
      "inputs": [
        {
          "indexed": false,
          "internalType": "address",
          "name": "account",
          "type": "address"
        }
      ],
      "name": "Unpaused",
      "type": "event"
    },
    {
      "anonymous": false,
      "inputs": [
        {
          "indexed": true,
          "internalType": "address",
          "name": "implementation",
          "type": "address"
        }
      ],
      "name": "Upgraded",
      "type": "event"
    },
    {
      "inputs": [],
      "name": "DEFAULT_ADMIN_ROLE",
      "outputs": [
        {
          "internalType": "bytes32",
          "name": "",
          "type": "bytes32"
        }
      ],
      "stateMutability": "view",
      "type": "function"
    },
    {
      "inputs": [],
      "name": "PAUSER_ROLE",
      "outputs": [
        {
          "internalType": "bytes32",
          "name": "",
          "type": "bytes32"
        }
      ],
      "stateMutability": "view",
      "type": "function"
    },
    {
      "inputs": [],
      "name": "VERSION",
      "outputs": [
        {
          "internalType": "string",
          "name": "",
          "type": "string"
        }
      ],
      "stateMutability": "view",
      "type": "function"
    },
    {
      "inputs": [],
      "name": "VERSION_RELEASE_CANDIDATE",
      "outputs": [
        {
          "internalType": "uint256",
          "name": "",
          "type": "uint256"
        }
      ],
      "stateMutability": "view",
      "type": "function"
    },
    {
      "inputs": [],
      "name": "contractRegistry",
      "outputs": [
        {
          "internalType": "address",
          "name": "",
          "type": "address"
        }
      ],
      "stateMutability": "view",
      "type": "function"
    },
    {
      "inputs": [
        {
          "internalType": "address",
          "name": "user",
          "type": "address"
        },
        {
          "internalType": "uint256",
          "name": "amount",
          "type": "uint256"
        },
        {
          "internalType": "uint256[]",
          "name": "batchTokenIds",
          "type": "uint256[]"
        }
      ],
      "name": "createDetokenizationRequest",
      "outputs": [
        {
          "internalType": "uint256",
          "name": "",
          "type": "uint256"
        }
      ],
      "stateMutability": "nonpayable",
      "type": "function"
    },
    {
      "inputs": [
        {
          "internalType": "address",
          "name": "user",
          "type": "address"
        },
        {
          "components": [
            {
              "internalType": "uint256[]",
              "name": "tokenIds",
              "type": "uint256[]"
            },
            {
              "internalType": "uint256",
              "name": "amount",
              "type": "uint256"
            },
            {
              "internalType": "string",
              "name": "retiringEntityString",
              "type": "string"
            },
            {
              "internalType": "address",
              "name": "beneficiary",
              "type": "address"
            },
            {
              "internalType": "string",
              "name": "beneficiaryString",
              "type": "string"
            },
            {
              "internalType": "string",
              "name": "retirementMessage",
              "type": "string"
            },
            {
              "internalType": "string",
              "name": "beneficiaryLocation",
              "type": "string"
            },
            {
              "internalType": "string",
              "name": "consumptionCountryCode",
              "type": "string"
            },
            {
              "internalType": "uint256",
              "name": "consumptionPeriodStart",
              "type": "uint256"
            },
            {
              "internalType": "uint256",
              "name": "consumptionPeriodEnd",
              "type": "uint256"
            }
          ],
          "internalType": "struct CreateRetirementRequestParams",
          "name": "params",
          "type": "tuple"
        }
      ],
      "name": "createRetirementRequest",
      "outputs": [
        {
          "internalType": "uint256",
          "name": "requestId",
          "type": "uint256"
        }
      ],
      "stateMutability": "nonpayable",
      "type": "function"
    },
    {
      "inputs": [],
      "name": "detokenizationRequestIdCounter",
      "outputs": [
        {
          "internalType": "uint256",
          "name": "",
          "type": "uint256"
        }
      ],
      "stateMutability": "view",
      "type": "function"
    },
    {
      "inputs": [
        {
          "internalType": "uint256",
          "name": "requestId",
          "type": "uint256"
        }
      ],
      "name": "detokenizationRequests",
      "outputs": [
        {
          "components": [
            {
              "internalType": "address",
              "name": "user",
              "type": "address"
            },
            {
              "internalType": "uint256",
              "name": "amount",
              "type": "uint256"
            },
            {
              "internalType": "enum RequestStatus",
              "name": "status",
              "type": "uint8"
            },
            {
              "internalType": "uint256[]",
              "name": "batchTokenIds",
              "type": "uint256[]"
            },
            {
              "internalType": "uint256",
              "name": "projectVintageTokenId",
              "type": "uint256"
            }
          ],
          "internalType": "struct DetokenizationRequest",
          "name": "",
          "type": "tuple"
        }
      ],
      "stateMutability": "view",
      "type": "function"
    },
    {
      "inputs": [
        {
          "internalType": "uint256",
          "name": "requestId",
          "type": "uint256"
        }
      ],
      "name": "finalizeDetokenizationRequest",
      "outputs": [],
      "stateMutability": "nonpayable",
      "type": "function"
    },
    {
      "inputs": [
        {
          "internalType": "uint256",
          "name": "requestId",
          "type": "uint256"
        }
      ],
      "name": "finalizeRetirementRequest",
      "outputs": [],
      "stateMutability": "nonpayable",
      "type": "function"
    },
    {
      "inputs": [
        {
          "internalType": "bytes32",
          "name": "role",
          "type": "bytes32"
        }
      ],
      "name": "getRoleAdmin",
      "outputs": [
        {
          "internalType": "bytes32",
          "name": "",
          "type": "bytes32"
        }
      ],
      "stateMutability": "view",
      "type": "function"
    },
    {
      "inputs": [
        {
          "internalType": "bytes32",
          "name": "role",
          "type": "bytes32"
        },
        {
          "internalType": "address",
          "name": "account",
          "type": "address"
        }
      ],
      "name": "grantRole",
      "outputs": [],
      "stateMutability": "nonpayable",
      "type": "function"
    },
    {
      "inputs": [
        {
          "internalType": "bytes32",
          "name": "role",
          "type": "bytes32"
        },
        {
          "internalType": "address",
          "name": "account",
          "type": "address"
        }
      ],
      "name": "hasRole",
      "outputs": [
        {
          "internalType": "bool",
          "name": "",
          "type": "bool"
        }
      ],
      "stateMutability": "view",
      "type": "function"
    },
    {
      "inputs": [
        {
          "internalType": "address",
          "name": "_contractRegistry",
          "type": "address"
        },
        {
          "internalType": "address[]",
          "name": "_accounts",
          "type": "address[]"
        },
        {
          "internalType": "bytes32[]",
          "name": "_roles",
          "type": "bytes32[]"
        }
      ],
      "name": "initialize",
      "outputs": [],
      "stateMutability": "nonpayable",
      "type": "function"
    },
    {
      "inputs": [],
      "name": "owner",
      "outputs": [
        {
          "internalType": "address",
          "name": "",
          "type": "address"
        }
      ],
      "stateMutability": "view",
      "type": "function"
    },
    {
      "inputs": [],
      "name": "pause",
      "outputs": [],
      "stateMutability": "nonpayable",
      "type": "function"
    },
    {
      "inputs": [],
      "name": "paused",
      "outputs": [
        {
          "internalType": "bool",
          "name": "",
          "type": "bool"
        }
      ],
      "stateMutability": "view",
      "type": "function"
    },
    {
      "inputs": [],
      "name": "proxiableUUID",
      "outputs": [
        {
          "internalType": "bytes32",
          "name": "",
          "type": "bytes32"
        }
      ],
      "stateMutability": "view",
      "type": "function"
    },
    {
      "inputs": [],
      "name": "renounceOwnership",
      "outputs": [],
      "stateMutability": "nonpayable",
      "type": "function"
    },
    {
      "inputs": [
        {
          "internalType": "bytes32",
          "name": "role",
          "type": "bytes32"
        },
        {
          "internalType": "address",
          "name": "account",
          "type": "address"
        }
      ],
      "name": "renounceRole",
      "outputs": [],
      "stateMutability": "nonpayable",
      "type": "function"
    },
    {
      "inputs": [],
      "name": "retirementRequestIdCounter",
      "outputs": [
        {
          "internalType": "uint256",
          "name": "",
          "type": "uint256"
        }
      ],
      "stateMutability": "view",
      "type": "function"
    },
    {
      "inputs": [
        {
          "internalType": "uint256",
          "name": "requestId",
          "type": "uint256"
        }
      ],
      "name": "retirementRequests",
      "outputs": [
        {
          "components": [
            {
              "internalType": "address",
              "name": "user",
              "type": "address"
            },
            {
              "internalType": "uint256",
              "name": "amount",
              "type": "uint256"
            },
            {
              "internalType": "enum RequestStatus",
              "name": "status",
              "type": "uint8"
            },
            {
              "internalType": "uint256[]",
              "name": "batchTokenIds",
              "type": "uint256[]"
            },
            {
              "internalType": "string",
              "name": "retiringEntityString",
              "type": "string"
            },
            {
              "internalType": "address",
              "name": "beneficiary",
              "type": "address"
            },
            {
              "internalType": "string",
              "name": "beneficiaryString",
              "type": "string"
            },
            {
              "internalType": "string",
              "name": "retirementMessage",
              "type": "string"
            },
            {
              "internalType": "string",
              "name": "beneficiaryLocation",
              "type": "string"
            },
            {
              "internalType": "string",
              "name": "consumptionCountryCode",
              "type": "string"
            },
            {
              "internalType": "uint256",
              "name": "consumptionPeriodStart",
              "type": "uint256"
            },
            {
              "internalType": "uint256",
              "name": "consumptionPeriodEnd",
              "type": "uint256"
            },
            {
              "internalType": "uint256",
              "name": "projectVintageTokenId",
              "type": "uint256"
            }
          ],
          "internalType": "struct RetirementRequest",
          "name": "",
          "type": "tuple"
        }
      ],
      "stateMutability": "view",
      "type": "function"
    },
    {
      "inputs": [
        {
          "internalType": "uint256",
          "name": "requestId",
          "type": "uint256"
        }
      ],
      "name": "revertDetokenizationRequest",
      "outputs": [],
      "stateMutability": "nonpayable",
      "type": "function"
    },
    {
      "inputs": [
        {
          "internalType": "uint256",
          "name": "requestId",
          "type": "uint256"
        }
      ],
      "name": "revertRetirementRequest",
      "outputs": [],
      "stateMutability": "nonpayable",
      "type": "function"
    },
    {
      "inputs": [
        {
          "internalType": "bytes32",
          "name": "role",
          "type": "bytes32"
        },
        {
          "internalType": "address",
          "name": "account",
          "type": "address"
        }
      ],
      "name": "revokeRole",
      "outputs": [],
      "stateMutability": "nonpayable",
      "type": "function"
    },
    {
      "inputs": [
        {
          "internalType": "address",
          "name": "_address",
          "type": "address"
        }
      ],
      "name": "setToucanContractRegistry",
      "outputs": [],
      "stateMutability": "nonpayable",
      "type": "function"
    },
    {
      "inputs": [
        {
          "internalType": "bytes4",
          "name": "interfaceId",
          "type": "bytes4"
        }
      ],
      "name": "supportsInterface",
      "outputs": [
        {
          "internalType": "bool",
          "name": "",
          "type": "bool"
        }
      ],
      "stateMutability": "view",
      "type": "function"
    },
    {
      "inputs": [
        {
          "internalType": "address",
          "name": "newOwner",
          "type": "address"
        }
      ],
      "name": "transferOwnership",
      "outputs": [],
      "stateMutability": "nonpayable",
      "type": "function"
    },
    {
      "inputs": [],
      "name": "unpause",
      "outputs": [],
      "stateMutability": "nonpayable",
      "type": "function"
    },
    {
      "inputs": [
        {
          "internalType": "address",
          "name": "newImplementation",
          "type": "address"
        }
      ],
      "name": "upgradeTo",
      "outputs": [],
      "stateMutability": "nonpayable",
      "type": "function"
    },
    {
      "inputs": [
        {
          "internalType": "address",
          "name": "newImplementation",
          "type": "address"
        },
        {
          "internalType": "bytes",
          "name": "data",
          "type": "bytes"
        }
      ],
      "name": "upgradeToAndCall",
      "outputs": [],
      "stateMutability": "payable",
      "type": "function"
    }
  ],
  "numDeployments": 2,
  "solcInputHash": "6293130ebad4c1fbd479b7f4413b1e45",
  "bytecode": "0x60a06040523060805234801561001457600080fd5b506080516138e161004c6000396000818161070301528181610743015281816108140152818161085401526108e301526138e16000f3fe6080604052600436106101e35760003560e01c8063862943a011610102578063d547741f11610095578063ebe5b46011610064578063ebe5b46014610576578063f2fde38b14610596578063f8d8353f146105b6578063ffa1ad74146105d657600080fd5b8063d547741f146104e2578063e63ab1e914610502578063e882e37b14610536578063ea158df81461055657600080fd5b8063a217fddf116100d1578063a217fddf1461046c578063abf410e514610481578063aeb2d230146104a2578063c346a8bf146104c257600080fd5b8063862943a0146103da5780638da5cb5b146103fa57806391d148541461042c57806392ad01fd1461044c57600080fd5b80635860ef5d1161017a5780636ca0b0d7116101495780636ca0b0d71461036e578063715018a61461038357806379c20aaa146103985780638456cb59146103c557600080fd5b80635860ef5d146102fb57806359ad0a0a146103285780635c975abb1461033f57806369514ebe1461035757600080fd5b80633659cfe6116101b65780633659cfe61461029e5780633f4ba83a146102be5780634f1ef286146102d357806352d1902d146102e657600080fd5b806301ffc9a7146101e8578063248a9ca31461021d5780632f2ff15d1461025c57806336568abe1461027e575b600080fd5b3480156101f457600080fd5b50610208610203366004612e0b565b610614565b60405190151581526020015b60405180910390f35b34801561022957600080fd5b5061024e610238366004612e35565b600090815261012d602052604090206001015490565b604051908152602001610214565b34801561026857600080fd5b5061027c610277366004612e65565b61064b565b005b34801561028a57600080fd5b5061027c610299366004612e65565b610676565b3480156102aa57600080fd5b5061027c6102b9366004612e91565b6106f9565b3480156102ca57600080fd5b5061027c6107d8565b61027c6102e1366004612ec2565b61080a565b3480156102f257600080fd5b5061024e6108d6565b34801561030757600080fd5b5061031b610316366004612e35565b610989565b6040516102149190612ff7565b34801561033457600080fd5b5061024e6101605481565b34801561034b57600080fd5b5060655460ff16610208565b34801561036357600080fd5b5061024e6101625481565b34801561037a57600080fd5b5061024e600381565b34801561038f57600080fd5b5061027c610a80565b3480156103a457600080fd5b506103b86103b3366004612e35565b610ab6565b60405161021491906130b0565b3480156103d157600080fd5b5061027c610f03565b3480156103e657600080fd5b5061027c6103f5366004612e35565b610f35565b34801561040657600080fd5b506033546001600160a01b03165b6040516001600160a01b039091168152602001610214565b34801561043857600080fd5b50610208610447366004612e65565b611033565b34801561045857600080fd5b5061027c610467366004612e35565b61105f565b34801561047857600080fd5b5061024e600081565b34801561048d57600080fd5b5061015f54610414906001600160a01b031681565b3480156104ae57600080fd5b5061024e6104bd3660046131e9565b611517565b3480156104ce57600080fd5b5061024e6104dd36600461328b565b611937565b3480156104ee57600080fd5b5061027c6104fd366004612e65565b611ade565b34801561050e57600080fd5b5061024e7f65d7a28e3265b37a6474929f336521b332c1681b933f6cb9f3376673440d862a81565b34801561054257600080fd5b5061027c610551366004612e91565b611b04565b34801561056257600080fd5b5061027c610571366004612e35565b611b83565b34801561058257600080fd5b5061027c610591366004612e35565b611c21565b3480156105a257600080fd5b5061027c6105b1366004612e91565b611d3a565b3480156105c257600080fd5b5061027c6105d13660046132e5565b611dd2565b3480156105e257600080fd5b50610607604051806040016040528060058152602001640312e312e360dc1b81525081565b6040516102149190613366565b60006001600160e01b03198216637965db0b60e01b148061064557506301ffc9a760e01b6001600160e01b03198316145b92915050565b600082815261012d602052604090206001015461066781611fca565b6106718383611fd4565b505050565b6001600160a01b03811633146106eb5760405162461bcd60e51b815260206004820152602f60248201527f416363657373436f6e74726f6c3a2063616e206f6e6c792072656e6f756e636560448201526e103937b632b9903337b91039b2b63360891b60648201526084015b60405180910390fd5b6106f5828261205b565b5050565b6001600160a01b037f00000000000000000000000000000000000000000000000000000000000000001630036107415760405162461bcd60e51b81526004016106e290613379565b7f00000000000000000000000000000000000000000000000000000000000000006001600160a01b031661078a600080516020613865833981519152546001600160a01b031690565b6001600160a01b0316146107b05760405162461bcd60e51b81526004016106e2906133c5565b6107b9816120c3565b604080516000808252602082019092526107d5918391906120ed565b50565b7f65d7a28e3265b37a6474929f336521b332c1681b933f6cb9f3376673440d862a61080281611fca565b6107d5612258565b6001600160a01b037f00000000000000000000000000000000000000000000000000000000000000001630036108525760405162461bcd60e51b81526004016106e290613379565b7f00000000000000000000000000000000000000000000000000000000000000006001600160a01b031661089b600080516020613865833981519152546001600160a01b031690565b6001600160a01b0316146108c15760405162461bcd60e51b81526004016106e2906133c5565b6108ca826120c3565b6106f5828260016120ed565b6000306001600160a01b037f000000000000000000000000000000000000000000000000000000000000000016146109765760405162461bcd60e51b815260206004820152603860248201527f555550535570677261646561626c653a206d757374206e6f742062652063616c60448201527f6c6564207468726f7567682064656c656761746563616c6c000000000000000060648201526084016106e2565b5060008051602061386583398151915290565b6040805160a0808201835260008083526020808401829052838501829052606080850152608084018290528582526101618152908490208451928301855280546001600160a01b0316835260018101549183019190915260028082015493949293919284019160ff1690811115610a0257610a02612f84565b6002811115610a1357610a13612f84565b815260200160038201805480602002602001604051908101604052809291908181526020018280548015610a6657602002820191906000526020600020905b815481526020019060010190808311610a52575b505050505081526020016004820154815250509050919050565b6033546001600160a01b03163314610aaa5760405162461bcd60e51b81526004016106e290613411565b610ab460006122eb565b565b610b2a604080516101a08101825260008082526020820181905290918201908152602001606081526020016060815260200160006001600160a01b03168152602001606081526020016060815260200160608152602001606081526020016000815260200160008152602001600081525090565b6000828152610163602090815260409182902082516101a08101845281546001600160a01b03168152600182015492810192909252600280820154929391929184019160ff1690811115610b8057610b80612f84565b6002811115610b9157610b91612f84565b815260200160038201805480602002602001604051908101604052809291908181526020018280548015610be457602002820191906000526020600020905b815481526020019060010190808311610bd0575b50505050508152602001600482018054610bfd90613446565b80601f0160208091040260200160405190810160405280929190818152602001828054610c2990613446565b8015610c765780601f10610c4b57610100808354040283529160200191610c76565b820191906000526020600020905b815481529060010190602001808311610c5957829003601f168201915b505050918352505060058201546001600160a01b03166020820152600682018054604090920191610ca690613446565b80601f0160208091040260200160405190810160405280929190818152602001828054610cd290613446565b8015610d1f5780601f10610cf457610100808354040283529160200191610d1f565b820191906000526020600020905b815481529060010190602001808311610d0257829003601f168201915b50505050508152602001600782018054610d3890613446565b80601f0160208091040260200160405190810160405280929190818152602001828054610d6490613446565b8015610db15780601f10610d8657610100808354040283529160200191610db1565b820191906000526020600020905b815481529060010190602001808311610d9457829003601f168201915b50505050508152602001600882018054610dca90613446565b80601f0160208091040260200160405190810160405280929190818152602001828054610df690613446565b8015610e435780601f10610e1857610100808354040283529160200191610e43565b820191906000526020600020905b815481529060010190602001808311610e2657829003601f168201915b50505050508152602001600982018054610e5c90613446565b80601f0160208091040260200160405190810160405280929190818152602001828054610e8890613446565b8015610ed55780601f10610eaa57610100808354040283529160200191610ed5565b820191906000526020600020905b815481529060010190602001808311610eb857829003601f168201915b50505050508152602001600a8201548152602001600b8201548152602001600c820154815250509050919050565b7f65d7a28e3265b37a6474929f336521b332c1681b933f6cb9f3376673440d862a610f2d81611fca565b6107d561233d565b61015f54604051633a37b16d60e11b81523360048201526001600160a01b039091169063746f62da90602401602060405180830381865afa158015610f7e573d6000803e3d6000fd5b505050506040513d601f19601f82011682018060405250810190610fa29190613480565b610fbe5760405162461bcd60e51b81526004016106e2906134a2565b600081815261016360205260408120905b60028083015460ff1690811115610fe857610fe8612f84565b146110055760405162461bcd60e51b81526004016106e2906134c4565b6002818101805460ff19169091179055805460018201546106f59133916001600160a01b03909116906123b8565b600091825261012d602090815260408084206001600160a01b0393909316845291905290205460ff1690565b61015f54604051633a37b16d60e11b81523360048201526001600160a01b039091169063746f62da90602401602060405180830381865afa1580156110a8573d6000803e3d6000fd5b505050506040513d601f19601f820116820180604052508101906110cc9190613480565b6110e85760405162461bcd60e51b81526004016106e2906134a2565b6000818152610163602052604081209060028083015460ff169081111561111157611111612f84565b1461112e5760405162461bcd60e51b81526004016106e2906134c4565b60028101805460ff19166001179055604080516003830180546020810283016101609081019094526101408301818152600094849391929084018282801561119557602002820191906000526020600020905b815481526020019060010190808311611181575b50505050508152602001836001015481526020018360040180546111b890613446565b80601f01602080910402602001604051908101604052809291908181526020018280546111e490613446565b80156112315780601f1061120657610100808354040283529160200191611231565b820191906000526020600020905b81548152906001019060200180831161121457829003601f168201915b505050918352505060058401546001600160a01b0316602082015260068401805460409092019161126190613446565b80601f016020809104026020016040519081016040528092919081815260200182805461128d90613446565b80156112da5780601f106112af576101008083540402835291602001916112da565b820191906000526020600020905b8154815290600101906020018083116112bd57829003601f168201915b505050505081526020018360070180546112f390613446565b80601f016020809104026020016040519081016040528092919081815260200182805461131f90613446565b801561136c5780601f106113415761010080835404028352916020019161136c565b820191906000526020600020905b81548152906001019060200180831161134f57829003601f168201915b5050505050815260200183600801805461138590613446565b80601f01602080910402602001604051908101604052809291908181526020018280546113b190613446565b80156113fe5780601f106113d3576101008083540402835291602001916113fe565b820191906000526020600020905b8154815290600101906020018083116113e157829003601f168201915b5050505050815260200183600901805461141790613446565b80601f016020809104026020016040519081016040528092919081815260200182805461144390613446565b80156114905780601f1061146557610100808354040283529160200191611490565b820191906000526020600020905b81548152906001019060200180831161147357829003601f168201915b5050509183525050600a8401546020820152600b840154604091820152835490516333a373df60e11b81529192503391636746e7be916114e0916001600160a01b039091169085906004016134f1565b600060405180830381600087803b1580156114fa57600080fd5b505af115801561150e573d6000803e3d6000fd5b50505050505050565b61015f54604051633a37b16d60e11b81523360048201526000916001600160a01b03169063746f62da90602401602060405180830381865afa158015611561573d6000803e3d6000fd5b505050506040513d601f19601f820116820180604052508101906115859190613480565b6115a15760405162461bcd60e51b81526004016106e2906134a2565b5061016280546001019081905560006115b93361241b565b604080516101a0810182526001600160a01b0387168152602086810135908201529192508101600081526020016115f085806135fd565b808060200260200160405190810160405280939291908181526020018383602002808284376000920191909152505050908252506020016116346040860186613647565b8080601f01602080910402602001604051908101604052809392919081815260200183838082843760009201919091525050509082525060200161167e6080860160608701612e91565b6001600160a01b031681526020016116996080860186613647565b8080601f0160208091040260200160405190810160405280939291908181526020018383808284376000920191909152505050908252506020016116e060a0860186613647565b8080601f01602080910402602001604051908101604052809392919081815260200183838082843760009201919091525050509082525060200161172760c0860186613647565b8080601f01602080910402602001604051908101604052809392919081815260200183838082843760009201919091525050509082525060200161176e60e0860186613647565b8080601f01602080910402602001604051908101604052809392919081815260200183838082843760009201829052509385525050506101008601356020808401919091526101208701356040808501919091526060909301859052858252610163815290829020835181546001600160a01b0319166001600160a01b0390911617815590830151600180830191909155918301516002808301805493949293909260ff1990911691849081111561182857611828612f84565b021790555060608201518051611848916003840191602090910190612d38565b5060808201518051611864916004840191602090910190612d83565b5060a08201516005820180546001600160a01b0319166001600160a01b0390921691909117905560c082015180516118a6916006840191602090910190612d83565b5060e082015180516118c2916007840191602090910190612d83565b5061010082015180516118df916008840191602090910190612d83565b5061012082015180516118fc916009840191602090910190612d83565b50610140820151600a820155610160820151600b82015561018090910151600c90910155611930338530602087013561247f565b5092915050565b61015f54604051633a37b16d60e11b81523360048201526000916001600160a01b03169063746f62da90602401602060405180830381865afa158015611981573d6000803e3d6000fd5b505050506040513d601f19601f820116820180604052508101906119a59190613480565b6119c15760405162461bcd60e51b81526004016106e2906134a2565b61016080546001019081905560006119d83361241b565b6040805160a0810182526001600160a01b038a16815260208101899052919250810160008152602001868680806020026020016040519081016040528093929190818152602001838360200280828437600092018290525093855250505060209182018490528481526101618252604090819020835181546001600160a01b0319166001600160a01b039091161781559183015160018084019190915590830151600280840180549293909260ff1916918490811115611a9a57611a9a612f84565b021790555060608201518051611aba916003840191602090910190612d38565b5060809190910151600490910155611ad43388308961247f565b5095945050505050565b600082815261012d6020526040902060010154611afa81611fca565b610671838361205b565b6033546001600160a01b03163314611b2e5760405162461bcd60e51b81526004016106e290613411565b61015f80546001600160a01b0319166001600160a01b0383169081179091556040519081527fb3a6e7c81ebdb0cf9bf28d5ddf6678ded8d73b44f2eee06ca3974dbb9f41ce7e9060200160405180910390a150565b61015f54604051633a37b16d60e11b81523360048201526001600160a01b039091169063746f62da90602401602060405180830381865afa158015611bcc573d6000803e3d6000fd5b505050506040513d601f19601f82011682018060405250810190611bf09190613480565b611c0c5760405162461bcd60e51b81526004016106e2906134a2565b60008181526101616020526040812090610fcf565b61015f54604051633a37b16d60e11b81523360048201526001600160a01b039091169063746f62da90602401602060405180830381865afa158015611c6a573d6000803e3d6000fd5b505050506040513d601f19601f82011682018060405250810190611c8e9190613480565b611caa5760405162461bcd60e51b81526004016106e2906134a2565b6000818152610161602052604081209060028083015460ff1690811115611cd357611cd3612f84565b14611cf05760405162461bcd60e51b81526004016106e2906134c4565b60028101805460ff19166001908117909155810154611d103330836124bd565b60405163079cc67960e41b81523060048201526024810182905233906379cc6790906044016114e0565b6033546001600160a01b03163314611d645760405162461bcd60e51b81526004016106e290613411565b6001600160a01b038116611dc95760405162461bcd60e51b815260206004820152602660248201527f4f776e61626c653a206e6577206f776e657220697320746865207a65726f206160448201526564647265737360d01b60648201526084016106e2565b6107d5816122eb565b6000611dde60016125d2565b90508015611df6576000805461ff0019166101001790555b838214611e3d5760405162461bcd60e51b8152602060048201526015602482015274082e4e4c2f240d8cadccee8d040dad2e6dac2e8c6d605b1b60448201526064016106e2565b611e4561265f565b611e4d61268f565b611e556126c2565b611e5d6126c2565b6000805b85811015611ee657611eb1858583818110611e7e57611e7e61368e565b90506020020135888884818110611e9757611e9761368e565b9050602002016020810190611eac9190612e91565b611fd4565b6000858583818110611ec557611ec561368e565b9050602002013503611ed657600191505b611edf816136ba565b9050611e61565b5080611f295760405162461bcd60e51b8152602060048201526012602482015271139bc818591b5a5b881cdc1958da599a595960721b60448201526064016106e2565b61015f80546001600160a01b0319166001600160a01b0389169081179091556040519081527fb3a6e7c81ebdb0cf9bf28d5ddf6678ded8d73b44f2eee06ca3974dbb9f41ce7e9060200160405180910390a1508015611fc2576000805461ff0019169055604051600181527f7f26b83ff96e1f2b6a682f133852f6798a09c465da95921460cefb38474024989060200160405180910390a15b505050505050565b6107d581336126e9565b611fde8282611033565b6106f557600082815261012d602090815260408083206001600160a01b03851684529091529020805460ff191660011790556120173390565b6001600160a01b0316816001600160a01b0316837f2f8788117e7eff1d82e926ec794901d17c78024a50270940304540a733656f0d60405160405180910390a45050565b6120658282611033565b156106f557600082815261012d602090815260408083206001600160a01b0385168085529252808320805460ff1916905551339285917ff6391f5c32d9c69d2a47ea670b442974b53935d1edc7fd64eb21e047a839171b9190a45050565b6033546001600160a01b031633146107d55760405162461bcd60e51b81526004016106e290613411565b7f4910fdfa16fed3260ed0e7147f7cc6da11a60208b5b9406d12a635614ffd91435460ff1615612120576106718361274d565b826001600160a01b03166352d1902d6040518163ffffffff1660e01b8152600401602060405180830381865afa92505050801561217a575060408051601f3d908101601f19168201909252612177918101906136d3565b60015b6121dd5760405162461bcd60e51b815260206004820152602e60248201527f45524331393637557067726164653a206e657720696d706c656d656e7461746960448201526d6f6e206973206e6f74205555505360901b60648201526084016106e2565b600080516020613865833981519152811461224c5760405162461bcd60e51b815260206004820152602960248201527f45524331393637557067726164653a20756e737570706f727465642070726f786044820152681a58589b195555525160ba1b60648201526084016106e2565b506106718383836127e9565b60655460ff166122a15760405162461bcd60e51b815260206004820152601460248201527314185d5cd8589b194e881b9bdd081c185d5cd95960621b60448201526064016106e2565b6065805460ff191690557f5db9ee0a495bf2e6ff9c91a7834c1ba4fdd244a5e8aa4e537bd38aeae4b073aa335b6040516001600160a01b03909116815260200160405180910390a1565b603380546001600160a01b038381166001600160a01b0319831681179093556040519116919082907f8be0079c531659141344cd1fd0a4f28419497f9722a3daafe3b4186f6b6457e090600090a35050565b60655460ff16156123835760405162461bcd60e51b815260206004820152601060248201526f14185d5cd8589b194e881c185d5cd95960821b60448201526064016106e2565b6065805460ff191660011790557f62e78cea01bee320cd4e420270b5ea74000d11b0c9f74754ebdbfc544b05a2586122ce3390565b6040516001600160a01b03831660248201526044810182905261067190849063a9059cbb60e01b906064015b60408051601f198184030181529190526020810180516001600160e01b03166001600160e01b03199093169290921790915261280e565b6000816001600160a01b031663e819426c6040518163ffffffff1660e01b8152600401602060405180830381865afa15801561245b573d6000803e3d6000fd5b505050506040513d601f19601f8201168201806040525081019061064591906136d3565b6040516001600160a01b03808516602483015283166044820152606481018290526124b79085906323b872dd60e01b906084016123e4565b50505050565b8015806125375750604051636eb1769f60e11b81523060048201526001600160a01b03838116602483015284169063dd62ed3e90604401602060405180830381865afa158015612511573d6000803e3d6000fd5b505050506040513d601f19601f8201168201806040525081019061253591906136d3565b155b6125a25760405162461bcd60e51b815260206004820152603660248201527f5361666545524332303a20617070726f76652066726f6d206e6f6e2d7a65726f60448201527520746f206e6f6e2d7a65726f20616c6c6f77616e636560501b60648201526084016106e2565b6040516001600160a01b03831660248201526044810182905261067190849063095ea7b360e01b906064016123e4565b60008054610100900460ff1615612619578160ff1660011480156125f55750303b155b6126115760405162461bcd60e51b81526004016106e2906136ec565b506000919050565b60005460ff8084169116106126405760405162461bcd60e51b81526004016106e2906136ec565b506000805460ff191660ff92909216919091179055600190565b919050565b600054610100900460ff166126865760405162461bcd60e51b81526004016106e29061373a565b610ab4336122eb565b600054610100900460ff166126b65760405162461bcd60e51b81526004016106e29061373a565b6065805460ff19169055565b600054610100900460ff16610ab45760405162461bcd60e51b81526004016106e29061373a565b6126f38282611033565b6106f55761270b816001600160a01b031660146128e0565b6127168360206128e0565b604051602001612727929190613785565b60408051601f198184030181529082905262461bcd60e51b82526106e291600401613366565b6001600160a01b0381163b6127ba5760405162461bcd60e51b815260206004820152602d60248201527f455243313936373a206e657720696d706c656d656e746174696f6e206973206e60448201526c1bdd08184818dbdb9d1c9858dd609a1b60648201526084016106e2565b60008051602061386583398151915280546001600160a01b0319166001600160a01b0392909216919091179055565b6127f283612a83565b6000825111806127ff5750805b15610671576124b78383612ac3565b6000612863826040518060400160405280602081526020017f5361666545524332303a206c6f772d6c6576656c2063616c6c206661696c6564815250856001600160a01b0316612bb79092919063ffffffff16565b80519091501561067157808060200190518101906128819190613480565b6106715760405162461bcd60e51b815260206004820152602a60248201527f5361666545524332303a204552433230206f7065726174696f6e20646964206e6044820152691bdd081cdd58d8d9595960b21b60648201526084016106e2565b606060006128ef8360026137fa565b6128fa906002613819565b67ffffffffffffffff81111561291257612912612eac565b6040519080825280601f01601f19166020018201604052801561293c576020820181803683370190505b509050600360fc1b816000815181106129575761295761368e565b60200101906001600160f81b031916908160001a905350600f60fb1b816001815181106129865761298661368e565b60200101906001600160f81b031916908160001a90535060006129aa8460026137fa565b6129b5906001613819565b90505b6001811115612a2d576f181899199a1a9b1b9c1cb0b131b232b360811b85600f16601081106129e9576129e961368e565b1a60f81b8282815181106129ff576129ff61368e565b60200101906001600160f81b031916908160001a90535060049490941c93612a2681613831565b90506129b8565b508315612a7c5760405162461bcd60e51b815260206004820181905260248201527f537472696e67733a20686578206c656e67746820696e73756666696369656e7460448201526064016106e2565b9392505050565b612a8c8161274d565b6040516001600160a01b038216907fbc7cd75a20ee27fd9adebab32041f755214dbc6bffa90cc0225b39da2e5c2d3b90600090a250565b60606001600160a01b0383163b612b2b5760405162461bcd60e51b815260206004820152602660248201527f416464726573733a2064656c65676174652063616c6c20746f206e6f6e2d636f6044820152651b9d1c9858dd60d21b60648201526084016106e2565b600080846001600160a01b031684604051612b469190613848565b600060405180830381855af49150503d8060008114612b81576040519150601f19603f3d011682016040523d82523d6000602084013e612b86565b606091505b5091509150612bae828260405180606001604052806027815260200161388560279139612bce565b95945050505050565b6060612bc68484600085612c07565b949350505050565b60608315612bdd575081612a7c565b825115612bed5782518084602001fd5b8160405162461bcd60e51b81526004016106e29190613366565b606082471015612c685760405162461bcd60e51b815260206004820152602660248201527f416464726573733a20696e73756666696369656e742062616c616e636520666f6044820152651c8818d85b1b60d21b60648201526084016106e2565b6001600160a01b0385163b612cbf5760405162461bcd60e51b815260206004820152601d60248201527f416464726573733a2063616c6c20746f206e6f6e2d636f6e747261637400000060448201526064016106e2565b600080866001600160a01b03168587604051612cdb9190613848565b60006040518083038185875af1925050503d8060008114612d18576040519150601f19603f3d011682016040523d82523d6000602084013e612d1d565b606091505b5091509150612d2d828286612bce565b979650505050505050565b828054828255906000526020600020908101928215612d73579160200282015b82811115612d73578251825591602001919060010190612d58565b50612d7f929150612df6565b5090565b828054612d8f90613446565b90600052602060002090601f016020900481019282612db15760008555612d73565b82601f10612dca57805160ff1916838001178555612d73565b82800160010185558215612d735791820182811115612d73578251825591602001919060010190612d58565b5b80821115612d7f5760008155600101612df7565b600060208284031215612e1d57600080fd5b81356001600160e01b031981168114612a7c57600080fd5b600060208284031215612e4757600080fd5b5035919050565b80356001600160a01b038116811461265a57600080fd5b60008060408385031215612e7857600080fd5b82359150612e8860208401612e4e565b90509250929050565b600060208284031215612ea357600080fd5b612a7c82612e4e565b634e487b7160e01b600052604160045260246000fd5b60008060408385031215612ed557600080fd5b612ede83612e4e565b9150602083013567ffffffffffffffff80821115612efb57600080fd5b818501915085601f830112612f0f57600080fd5b813581811115612f2157612f21612eac565b604051601f8201601f19908116603f01168101908382118183101715612f4957612f49612eac565b81604052828152886020848701011115612f6257600080fd5b8260208601602083013760006020848301015280955050505050509250929050565b634e487b7160e01b600052602160045260246000fd5b60038110612fb857634e487b7160e01b600052602160045260246000fd5b9052565b600081518084526020808501945080840160005b83811015612fec57815187529582019590820190600101612fd0565b509495945050505050565b6020815260018060a01b03825116602082015260208201516040820152600060408301516130286060840182612f9a565b50606083015160a0608084015261304260c0840182612fbc565b9050608084015160a08401528091505092915050565b60005b8381101561307357818101518382015260200161305b565b838111156124b75750506000910152565b6000815180845261309c816020860160208601613058565b601f01601f19169290920160200192915050565b602081526130ca6020820183516001600160a01b03169052565b60208201516040820152600060408301516130e86060840182612f9a565b5060608301516101a08060808501526131056101c0850183612fbc565b91506080850151601f19808685030160a08701526131238483613084565b935060a0870151915061314160c08701836001600160a01b03169052565b60c08701519150808685030160e087015261315c8483613084565b935060e0870151915061010081878603018188015261317b8584613084565b94508088015192505061012081878603018188015261319a8584613084565b9450808801519250506101408187860301818801526131b98584613084565b90880151610160888101919091528801516101808089019190915290970151929095019190915250929392505050565b600080604083850312156131fc57600080fd5b61320583612e4e565b9150602083013567ffffffffffffffff81111561322157600080fd5b8301610140818603121561323457600080fd5b809150509250929050565b60008083601f84011261325157600080fd5b50813567ffffffffffffffff81111561326957600080fd5b6020830191508360208260051b850101111561328457600080fd5b9250929050565b600080600080606085870312156132a157600080fd5b6132aa85612e4e565b935060208501359250604085013567ffffffffffffffff8111156132cd57600080fd5b6132d98782880161323f565b95989497509550505050565b6000806000806000606086880312156132fd57600080fd5b61330686612e4e565b9450602086013567ffffffffffffffff8082111561332357600080fd5b61332f89838a0161323f565b9096509450604088013591508082111561334857600080fd5b506133558882890161323f565b969995985093965092949392505050565b602081526000612a7c6020830184613084565b6020808252602c908201527f46756e6374696f6e206d7573742062652063616c6c6564207468726f7567682060408201526b19195b1959d85d1958d85b1b60a21b606082015260800190565b6020808252602c908201527f46756e6374696f6e206d7573742062652063616c6c6564207468726f7567682060408201526b6163746976652070726f787960a01b606082015260800190565b6020808252818101527f4f776e61626c653a2063616c6c6572206973206e6f7420746865206f776e6572604082015260600190565b600181811c9082168061345a57607f821691505b60208210810361347a57634e487b7160e01b600052602260045260246000fd5b50919050565b60006020828403121561349257600080fd5b81518015158114612a7c57600080fd5b6020808252600890820152672737ba102a21a79960c11b604082015260600190565b602080825260139082015272139bdd081c195b991a5b99c81c995c5d595cdd606a1b604082015260600190565b60018060a01b0383168152604060208201526000825161014080604085015261351e610180850183612fbc565b9150602085015160608501526040850151603f19808685030160808701526135468483613084565b93506060870151915061356460a08701836001600160a01b03169052565b60808701519150808685030160c087015261357f8483613084565b935060a08701519150808685030160e087015261359c8483613084565b935060c087015191506101008187860301818801526135bb8584613084565b945060e088015192506101208288870301818901526135da8685613084565b918901519488019490945292909601516101609095019490945295945050505050565b6000808335601e1984360301811261361457600080fd5b83018035915067ffffffffffffffff82111561362f57600080fd5b6020019150600581901b360382131561328457600080fd5b6000808335601e1984360301811261365e57600080fd5b83018035915067ffffffffffffffff82111561367957600080fd5b60200191503681900382131561328457600080fd5b634e487b7160e01b600052603260045260246000fd5b634e487b7160e01b600052601160045260246000fd5b6000600182016136cc576136cc6136a4565b5060010190565b6000602082840312156136e557600080fd5b5051919050565b6020808252602e908201527f496e697469616c697a61626c653a20636f6e747261637420697320616c72656160408201526d191e481a5b9a5d1a585b1a5e995960921b606082015260800190565b6020808252602b908201527f496e697469616c697a61626c653a20636f6e7472616374206973206e6f74206960408201526a6e697469616c697a696e6760a81b606082015260800190565b7f416363657373436f6e74726f6c3a206163636f756e74200000000000000000008152600083516137bd816017850160208801613058565b7001034b99036b4b9b9b4b733903937b6329607d1b60179184019182015283516137ee816028840160208801613058565b01602801949350505050565b6000816000190483118215151615613814576138146136a4565b500290565b6000821982111561382c5761382c6136a4565b500190565b600081613840576138406136a4565b506000190190565b6000825161385a818460208701613058565b919091019291505056fe360894a13ba1a3210667c828492db98dca3e2076cc3735a920a3ca505d382bbc416464726573733a206c6f772d6c6576656c2064656c65676174652063616c6c206661696c6564a2646970667358221220fe3cb5cc05fa72caca3ad7010c02f8b71dcea545413a6425653f43aa91387e8a64736f6c634300080e0033",
  "devdoc": {
    "kind": "dev",
    "methods": {
      "createDetokenizationRequest(address,uint256,uint256[])": {
        "details": "Only a TCO2 contract can call this function. Additionally, the escrow contract must have been approved to transfer the amount of TCO2 to detokenize.",
        "params": {
          "amount": "The amount of TCO2 to detokenize.",
          "batchTokenIds": "The ids of the batches to detokenize.",
          "user": "The user that is requesting the detokenization."
        }
      },
      "createRetirementRequest(address,(uint256[],uint256,string,address,string,string,string,string,uint256,uint256))": {
        "details": "Only a TCO2 contract can call this function. Additionally, the escrow contract must have been approved to transfer the amount of TCO2 to retire.",
        "params": {
          "params": "Retirement request params.",
          "user": "The user that is requesting the retirement."
        }
      },
      "finalizeDetokenizationRequest(uint256)": {
        "details": "Only the TCO2 contract can call this function.",
        "params": {
          "requestId": "The id of the request to finalize."
        }
      },
      "finalizeRetirementRequest(uint256)": {
        "details": "Only the TCO2 contract can call this function.",
        "params": {
          "requestId": "The id of the request to finalize."
        }
      },
      "getRoleAdmin(bytes32)": {
        "details": "Returns the admin role that controls `role`. See {grantRole} and {revokeRole}. To change a role's admin, use {_setRoleAdmin}."
      },
      "grantRole(bytes32,address)": {
        "details": "Grants `role` to `account`. If `account` had not been already granted `role`, emits a {RoleGranted} event. Requirements: - the caller must have ``role``'s admin role."
      },
      "hasRole(bytes32,address)": {
        "details": "Returns `true` if `account` has been granted `role`."
      },
      "owner()": {
        "details": "Returns the address of the current owner."
      },
      "paused()": {
        "details": "Returns true if the contract is paused, and false otherwise."
      },
      "proxiableUUID()": {
        "details": "Implementation of the ERC1822 {proxiableUUID} function. This returns the storage slot used by the implementation. It is used to validate that the this implementation remains valid after an upgrade. IMPORTANT: A proxy pointing at a proxiable contract should not be considered proxiable itself, because this risks bricking a proxy that upgrades to it, by delegating to itself until out of gas. Thus it is critical that this function revert if invoked through a proxy. This is guaranteed by the `notDelegated` modifier."
      },
      "renounceOwnership()": {
        "details": "Leaves the contract without owner. It will not be possible to call `onlyOwner` functions anymore. Can only be called by the current owner. NOTE: Renouncing ownership will leave the contract without an owner, thereby removing any functionality that is only available to the owner."
      },
      "renounceRole(bytes32,address)": {
        "details": "Revokes `role` from the calling account. Roles are often managed via {grantRole} and {revokeRole}: this function's purpose is to provide a mechanism for accounts to lose their privileges if they are compromised (such as when a trusted device is misplaced). If the calling account had been revoked `role`, emits a {RoleRevoked} event. Requirements: - the caller must be `account`."
      },
      "revertDetokenizationRequest(uint256)": {
        "details": "Only the TCO2 contract can call this function.",
        "params": {
          "requestId": "The id of the request to revert."
        }
      },
      "revertRetirementRequest(uint256)": {
        "details": "Only the TCO2 contract can call this function.",
        "params": {
          "requestId": "The id of the request to revert."
        }
      },
      "revokeRole(bytes32,address)": {
        "details": "Revokes `role` from `account`. If `account` had been granted `role`, emits a {RoleRevoked} event. Requirements: - the caller must have ``role``'s admin role."
      },
      "supportsInterface(bytes4)": {
        "details": "See {IERC165-supportsInterface}."
      },
      "transferOwnership(address)": {
        "details": "Transfers ownership of the contract to a new account (`newOwner`). Can only be called by the current owner."
      },
      "upgradeTo(address)": {
        "details": "Upgrade the implementation of the proxy to `newImplementation`. Calls {_authorizeUpgrade}. Emits an {Upgraded} event."
      },
      "upgradeToAndCall(address,bytes)": {
        "details": "Upgrade the implementation of the proxy to `newImplementation`, and subsequently execute the function call encoded in `data`. Calls {_authorizeUpgrade}. Emits an {Upgraded} event."
      }
    },
    "stateVariables": {
      "PAUSER_ROLE": {
        "details": "All roles related to accessing this contract"
      },
      "VERSION": {
        "details": "Version-related parameters. VERSION keeps track of production releases. VERSION_RELEASE_CANDIDATE keeps track of iterations of a VERSION in our staging environment."
      }
    },
    "version": 1
  },
  "userdoc": {
    "kind": "user",
    "methods": {
      "createDetokenizationRequest(address,uint256,uint256[])": {
        "notice": "Create a new detokenization request."
      },
      "createRetirementRequest(address,(uint256[],uint256,string,address,string,string,string,string,uint256,uint256))": {
        "notice": "Create a new retirement request."
      },
      "finalizeDetokenizationRequest(uint256)": {
        "notice": "Finalize a detokenization request by burning its amount of TCO2."
      },
      "finalizeRetirementRequest(uint256)": {
        "notice": "Finalize a retirement request by calling the retire and mint certificate function in respective TCO2 Batch, which can only be invoked by the escrow After retiring the amount of TCO2 is burned."
      },
      "revertDetokenizationRequest(uint256)": {
        "notice": "Revert a detokenization request by transfering amount of TCO2 back to the user."
      },
      "revertRetirementRequest(uint256)": {
        "notice": "Revert a retirement request by transfering amount of TCO2 back to the user."
      }
    },
    "notice": "Contract for escrowing TCO2s during detokenization or retirement until the off-chain registry confirms the detokenization or retirement request.",
    "version": 1
  },
  "storageLayout": {
    "storage": [
      {
        "astId": 1489,
        "contract": "contracts/ToucanCarbonOffsetsEscrow.sol:ToucanCarbonOffsetsEscrow",
        "label": "_initialized",
        "offset": 0,
        "slot": "0",
        "type": "t_uint8"
      },
      {
        "astId": 1492,
        "contract": "contracts/ToucanCarbonOffsetsEscrow.sol:ToucanCarbonOffsetsEscrow",
        "label": "_initializing",
        "offset": 1,
        "slot": "0",
        "type": "t_bool"
      },
      {
        "astId": 4593,
        "contract": "contracts/ToucanCarbonOffsetsEscrow.sol:ToucanCarbonOffsetsEscrow",
        "label": "__gap",
        "offset": 0,
        "slot": "1",
        "type": "t_array(t_uint256)50_storage"
      },
      {
        "astId": 980,
        "contract": "contracts/ToucanCarbonOffsetsEscrow.sol:ToucanCarbonOffsetsEscrow",
        "label": "_owner",
        "offset": 0,
        "slot": "51",
        "type": "t_address"
      },
      {
        "astId": 1092,
        "contract": "contracts/ToucanCarbonOffsetsEscrow.sol:ToucanCarbonOffsetsEscrow",
        "label": "__gap",
        "offset": 0,
        "slot": "52",
        "type": "t_array(t_uint256)49_storage"
      },
      {
        "astId": 1781,
        "contract": "contracts/ToucanCarbonOffsetsEscrow.sol:ToucanCarbonOffsetsEscrow",
        "label": "_paused",
        "offset": 0,
        "slot": "101",
        "type": "t_bool"
      },
      {
        "astId": 1870,
        "contract": "contracts/ToucanCarbonOffsetsEscrow.sol:ToucanCarbonOffsetsEscrow",
        "label": "__gap",
        "offset": 0,
        "slot": "102",
        "type": "t_array(t_uint256)49_storage"
      },
      {
        "astId": 1471,
        "contract": "contracts/ToucanCarbonOffsetsEscrow.sol:ToucanCarbonOffsetsEscrow",
        "label": "__gap",
        "offset": 0,
        "slot": "151",
        "type": "t_array(t_uint256)50_storage"
      },
      {
        "astId": 1759,
        "contract": "contracts/ToucanCarbonOffsetsEscrow.sol:ToucanCarbonOffsetsEscrow",
        "label": "__gap",
        "offset": 0,
        "slot": "201",
        "type": "t_array(t_uint256)50_storage"
      },
      {
        "astId": 4900,
        "contract": "contracts/ToucanCarbonOffsetsEscrow.sol:ToucanCarbonOffsetsEscrow",
        "label": "__gap",
        "offset": 0,
        "slot": "251",
        "type": "t_array(t_uint256)50_storage"
      },
      {
        "astId": 596,
        "contract": "contracts/ToucanCarbonOffsetsEscrow.sol:ToucanCarbonOffsetsEscrow",
        "label": "_roles",
        "offset": 0,
        "slot": "301",
        "type": "t_mapping(t_bytes32,t_struct(RoleData)591_storage)"
      },
      {
        "astId": 895,
        "contract": "contracts/ToucanCarbonOffsetsEscrow.sol:ToucanCarbonOffsetsEscrow",
        "label": "__gap",
        "offset": 0,
        "slot": "302",
        "type": "t_array(t_uint256)49_storage"
      },
      {
        "astId": 11918,
        "contract": "contracts/ToucanCarbonOffsetsEscrow.sol:ToucanCarbonOffsetsEscrow",
        "label": "contractRegistry",
        "offset": 0,
        "slot": "351",
        "type": "t_address"
      },
      {
        "astId": 11920,
        "contract": "contracts/ToucanCarbonOffsetsEscrow.sol:ToucanCarbonOffsetsEscrow",
        "label": "detokenizationRequestIdCounter",
        "offset": 0,
        "slot": "352",
        "type": "t_uint256"
      },
      {
        "astId": 11925,
        "contract": "contracts/ToucanCarbonOffsetsEscrow.sol:ToucanCarbonOffsetsEscrow",
        "label": "_detokenizationRequests",
        "offset": 0,
        "slot": "353",
        "type": "t_mapping(t_uint256,t_struct(DetokenizationRequest)11951_storage)"
      },
      {
        "astId": 11927,
        "contract": "contracts/ToucanCarbonOffsetsEscrow.sol:ToucanCarbonOffsetsEscrow",
        "label": "retirementRequestIdCounter",
        "offset": 0,
        "slot": "354",
        "type": "t_uint256"
      },
      {
        "astId": 11932,
        "contract": "contracts/ToucanCarbonOffsetsEscrow.sol:ToucanCarbonOffsetsEscrow",
        "label": "_retirementRequests",
        "offset": 0,
        "slot": "355",
        "type": "t_mapping(t_uint256,t_struct(RetirementRequest)11980_storage)"
      }
    ],
    "types": {
      "t_address": {
        "encoding": "inplace",
        "label": "address",
        "numberOfBytes": "20"
      },
      "t_array(t_uint256)49_storage": {
        "base": "t_uint256",
        "encoding": "inplace",
        "label": "uint256[49]",
        "numberOfBytes": "1568"
      },
      "t_array(t_uint256)50_storage": {
        "base": "t_uint256",
        "encoding": "inplace",
        "label": "uint256[50]",
        "numberOfBytes": "1600"
      },
      "t_array(t_uint256)dyn_storage": {
        "base": "t_uint256",
        "encoding": "dynamic_array",
        "label": "uint256[]",
        "numberOfBytes": "32"
      },
      "t_bool": {
        "encoding": "inplace",
        "label": "bool",
        "numberOfBytes": "1"
      },
      "t_bytes32": {
        "encoding": "inplace",
        "label": "bytes32",
        "numberOfBytes": "32"
      },
      "t_enum(RequestStatus)11984": {
        "encoding": "inplace",
        "label": "enum RequestStatus",
        "numberOfBytes": "1"
      },
      "t_mapping(t_address,t_bool)": {
        "encoding": "mapping",
        "key": "t_address",
        "label": "mapping(address => bool)",
        "numberOfBytes": "32",
        "value": "t_bool"
      },
      "t_mapping(t_bytes32,t_struct(RoleData)591_storage)": {
        "encoding": "mapping",
        "key": "t_bytes32",
        "label": "mapping(bytes32 => struct AccessControlUpgradeable.RoleData)",
        "numberOfBytes": "32",
        "value": "t_struct(RoleData)591_storage"
      },
      "t_mapping(t_uint256,t_struct(DetokenizationRequest)11951_storage)": {
        "encoding": "mapping",
        "key": "t_uint256",
        "label": "mapping(uint256 => struct DetokenizationRequest)",
        "numberOfBytes": "32",
        "value": "t_struct(DetokenizationRequest)11951_storage"
      },
      "t_mapping(t_uint256,t_struct(RetirementRequest)11980_storage)": {
        "encoding": "mapping",
        "key": "t_uint256",
        "label": "mapping(uint256 => struct RetirementRequest)",
        "numberOfBytes": "32",
        "value": "t_struct(RetirementRequest)11980_storage"
      },
      "t_string_storage": {
        "encoding": "bytes",
        "label": "string",
        "numberOfBytes": "32"
      },
      "t_struct(DetokenizationRequest)11951_storage": {
        "encoding": "inplace",
        "label": "struct DetokenizationRequest",
        "members": [
          {
            "astId": 11940,
            "contract": "contracts/ToucanCarbonOffsetsEscrow.sol:ToucanCarbonOffsetsEscrow",
            "label": "user",
            "offset": 0,
            "slot": "0",
            "type": "t_address"
          },
          {
            "astId": 11942,
            "contract": "contracts/ToucanCarbonOffsetsEscrow.sol:ToucanCarbonOffsetsEscrow",
            "label": "amount",
            "offset": 0,
            "slot": "1",
            "type": "t_uint256"
          },
          {
            "astId": 11945,
            "contract": "contracts/ToucanCarbonOffsetsEscrow.sol:ToucanCarbonOffsetsEscrow",
            "label": "status",
            "offset": 0,
            "slot": "2",
            "type": "t_enum(RequestStatus)11984"
          },
          {
            "astId": 11948,
            "contract": "contracts/ToucanCarbonOffsetsEscrow.sol:ToucanCarbonOffsetsEscrow",
            "label": "batchTokenIds",
            "offset": 0,
            "slot": "3",
            "type": "t_array(t_uint256)dyn_storage"
          },
          {
            "astId": 11950,
            "contract": "contracts/ToucanCarbonOffsetsEscrow.sol:ToucanCarbonOffsetsEscrow",
            "label": "projectVintageTokenId",
            "offset": 0,
            "slot": "4",
            "type": "t_uint256"
          }
        ],
        "numberOfBytes": "160"
      },
      "t_struct(RetirementRequest)11980_storage": {
        "encoding": "inplace",
        "label": "struct RetirementRequest",
        "members": [
          {
            "astId": 11953,
            "contract": "contracts/ToucanCarbonOffsetsEscrow.sol:ToucanCarbonOffsetsEscrow",
            "label": "user",
            "offset": 0,
            "slot": "0",
            "type": "t_address"
          },
          {
            "astId": 11955,
            "contract": "contracts/ToucanCarbonOffsetsEscrow.sol:ToucanCarbonOffsetsEscrow",
            "label": "amount",
            "offset": 0,
            "slot": "1",
            "type": "t_uint256"
          },
          {
            "astId": 11958,
            "contract": "contracts/ToucanCarbonOffsetsEscrow.sol:ToucanCarbonOffsetsEscrow",
            "label": "status",
            "offset": 0,
            "slot": "2",
            "type": "t_enum(RequestStatus)11984"
          },
          {
            "astId": 11961,
            "contract": "contracts/ToucanCarbonOffsetsEscrow.sol:ToucanCarbonOffsetsEscrow",
            "label": "batchTokenIds",
            "offset": 0,
            "slot": "3",
            "type": "t_array(t_uint256)dyn_storage"
          },
          {
            "astId": 11963,
            "contract": "contracts/ToucanCarbonOffsetsEscrow.sol:ToucanCarbonOffsetsEscrow",
            "label": "retiringEntityString",
            "offset": 0,
            "slot": "4",
            "type": "t_string_storage"
          },
          {
            "astId": 11965,
            "contract": "contracts/ToucanCarbonOffsetsEscrow.sol:ToucanCarbonOffsetsEscrow",
            "label": "beneficiary",
            "offset": 0,
            "slot": "5",
            "type": "t_address"
          },
          {
            "astId": 11967,
            "contract": "contracts/ToucanCarbonOffsetsEscrow.sol:ToucanCarbonOffsetsEscrow",
            "label": "beneficiaryString",
            "offset": 0,
            "slot": "6",
            "type": "t_string_storage"
          },
          {
            "astId": 11969,
            "contract": "contracts/ToucanCarbonOffsetsEscrow.sol:ToucanCarbonOffsetsEscrow",
            "label": "retirementMessage",
            "offset": 0,
            "slot": "7",
            "type": "t_string_storage"
          },
          {
            "astId": 11971,
            "contract": "contracts/ToucanCarbonOffsetsEscrow.sol:ToucanCarbonOffsetsEscrow",
            "label": "beneficiaryLocation",
            "offset": 0,
            "slot": "8",
            "type": "t_string_storage"
          },
          {
            "astId": 11973,
            "contract": "contracts/ToucanCarbonOffsetsEscrow.sol:ToucanCarbonOffsetsEscrow",
            "label": "consumptionCountryCode",
            "offset": 0,
            "slot": "9",
            "type": "t_string_storage"
          },
          {
            "astId": 11975,
            "contract": "contracts/ToucanCarbonOffsetsEscrow.sol:ToucanCarbonOffsetsEscrow",
            "label": "consumptionPeriodStart",
            "offset": 0,
            "slot": "10",
            "type": "t_uint256"
          },
          {
            "astId": 11977,
            "contract": "contracts/ToucanCarbonOffsetsEscrow.sol:ToucanCarbonOffsetsEscrow",
            "label": "consumptionPeriodEnd",
            "offset": 0,
            "slot": "11",
            "type": "t_uint256"
          },
          {
            "astId": 11979,
            "contract": "contracts/ToucanCarbonOffsetsEscrow.sol:ToucanCarbonOffsetsEscrow",
            "label": "projectVintageTokenId",
            "offset": 0,
            "slot": "12",
            "type": "t_uint256"
          }
        ],
        "numberOfBytes": "416"
      },
      "t_struct(RoleData)591_storage": {
        "encoding": "inplace",
        "label": "struct AccessControlUpgradeable.RoleData",
        "members": [
          {
            "astId": 588,
            "contract": "contracts/ToucanCarbonOffsetsEscrow.sol:ToucanCarbonOffsetsEscrow",
            "label": "members",
            "offset": 0,
            "slot": "0",
            "type": "t_mapping(t_address,t_bool)"
          },
          {
            "astId": 590,
            "contract": "contracts/ToucanCarbonOffsetsEscrow.sol:ToucanCarbonOffsetsEscrow",
            "label": "adminRole",
            "offset": 0,
            "slot": "1",
            "type": "t_bytes32"
          }
        ],
        "numberOfBytes": "64"
      },
      "t_uint256": {
        "encoding": "inplace",
        "label": "uint256",
        "numberOfBytes": "32"
      },
      "t_uint8": {
        "encoding": "inplace",
        "label": "uint8",
        "numberOfBytes": "1"
      }
    }
  }
}