{
  "address": "0x050d7CE9d1AB66F510A906e1C824F9Ed9eE11ce5",
  "abi": [
    {
      "inputs": [
        {
          "internalType": "address",
          "name": "_mailbox",
          "type": "address"
        }
      ],
      "stateMutability": "nonpayable",
      "type": "constructor"
    },
    {
      "anonymous": false,
      "inputs": [
        {
          "indexed": false,
          "internalType": "address",
          "name": "previousAdmin",
          "type": "address"
        },
        {
          "indexed": false,
          "internalType": "address",
          "name": "newAdmin",
          "type": "address"
        }
      ],
      "name": "AdminChanged",
      "type": "event"
    },
    {
      "anonymous": false,
      "inputs": [
        {
          "indexed": true,
          "internalType": "address",
          "name": "beacon",
          "type": "address"
        }
      ],
      "name": "BeaconUpgraded",
      "type": "event"
    },
    {
      "anonymous": false,
      "inputs": [
        {
          "indexed": true,
          "internalType": "uint32",
          "name": "originDomain",
          "type": "uint32"
        },
        {
          "indexed": false,
          "internalType": "uint32",
          "name": "toDomain",
          "type": "uint32"
        },
        {
          "indexed": true,
          "internalType": "address",
          "name": "bridger",
          "type": "address"
        },
        {
          "indexed": false,
          "internalType": "address",
          "name": "recipient",
          "type": "address"
        },
        {
          "indexed": true,
          "internalType": "address",
          "name": "token",
          "type": "address"
        },
        {
          "indexed": false,
          "internalType": "uint256",
          "name": "amount",
          "type": "uint256"
        },
        {
          "indexed": false,
          "internalType": "bytes32",
          "name": "requesthash",
          "type": "bytes32"
        }
      ],
      "name": "BridgeRequestReceived",
      "type": "event"
    },
    {
      "anonymous": false,
      "inputs": [
        {
          "indexed": false,
          "internalType": "uint32",
          "name": "originDomain",
          "type": "uint32"
        },
        {
          "indexed": true,
          "internalType": "uint32",
          "name": "toDomain",
          "type": "uint32"
        },
        {
          "indexed": true,
          "internalType": "address",
          "name": "bridger",
          "type": "address"
        },
        {
          "indexed": false,
          "internalType": "address",
          "name": "recipient",
          "type": "address"
        },
        {
          "indexed": true,
          "internalType": "address",
          "name": "token",
          "type": "address"
        },
        {
          "indexed": false,
          "internalType": "uint256",
          "name": "amount",
          "type": "uint256"
        },
        {
          "indexed": false,
          "internalType": "uint256",
          "name": "nonce",
          "type": "uint256"
        },
        {
          "indexed": false,
          "internalType": "bytes32",
          "name": "requesthash",
          "type": "bytes32"
        }
      ],
      "name": "BridgeRequestSent",
      "type": "event"
    },
    {
      "anonymous": false,
      "inputs": [
        {
          "indexed": false,
          "internalType": "uint8",
          "name": "version",
          "type": "uint8"
        }
      ],
      "name": "Initialized",
      "type": "event"
    },
    {
      "anonymous": false,
      "inputs": [
        {
          "indexed": true,
          "internalType": "address",
          "name": "previousOwner",
          "type": "address"
        },
        {
          "indexed": true,
          "internalType": "address",
          "name": "newOwner",
          "type": "address"
        }
      ],
      "name": "OwnershipTransferred",
      "type": "event"
    },
    {
      "anonymous": false,
      "inputs": [
        {
          "indexed": false,
          "internalType": "address",
          "name": "account",
          "type": "address"
        }
      ],
      "name": "Paused",
      "type": "event"
    },
    {
      "anonymous": false,
      "inputs": [
        {
          "indexed": true,
          "internalType": "bytes32",
          "name": "role",
          "type": "bytes32"
        },
        {
          "indexed": true,
          "internalType": "bytes32",
          "name": "previousAdminRole",
          "type": "bytes32"
        },
        {
          "indexed": true,
          "internalType": "bytes32",
          "name": "newAdminRole",
          "type": "bytes32"
        }
      ],
      "name": "RoleAdminChanged",
      "type": "event"
    },
    {
      "anonymous": false,
      "inputs": [
        {
          "indexed": true,
          "internalType": "bytes32",
          "name": "role",
          "type": "bytes32"
        },
        {
          "indexed": true,
          "internalType": "address",
          "name": "account",
          "type": "address"
        },
        {
          "indexed": true,
          "internalType": "address",
          "name": "sender",
          "type": "address"
        }
      ],
      "name": "RoleGranted",
      "type": "event"
    },
    {
      "anonymous": false,
      "inputs": [
        {
          "indexed": true,
          "internalType": "bytes32",
          "name": "role",
          "type": "bytes32"
        },
        {
          "indexed": true,
          "internalType": "address",
          "name": "account",
          "type": "address"
        },
        {
          "indexed": true,
          "internalType": "address",
          "name": "sender",
          "type": "address"
        }
      ],
      "name": "RoleRevoked",
      "type": "event"
    },
    {
      "anonymous": false,
      "inputs": [
        {
          "indexed": true,
          "internalType": "address",
          "name": "homeTokenAddress",
          "type": "address"
        },
        {
          "indexed": true,
          "internalType": "address",
          "name": "remoteTokenAddress",
          "type": "address"
        },
        {
          "indexed": false,
          "internalType": "uint32",
          "name": "domainId",
          "type": "uint32"
        }
      ],
      "name": "TokenPairAdded",
      "type": "event"
    },
    {
      "anonymous": false,
      "inputs": [
        {
          "indexed": true,
          "internalType": "address",
          "name": "homeTokenAddress",
          "type": "address"
        },
        {
          "indexed": true,
          "internalType": "address",
          "name": "remoteTokenAddress",
          "type": "address"
        },
        {
          "indexed": false,
          "internalType": "uint32",
          "name": "domainId",
          "type": "uint32"
        }
      ],
      "name": "TokenPairRemoved",
      "type": "event"
    },
    {
      "anonymous": false,
      "inputs": [
        {
          "indexed": false,
          "internalType": "address",
          "name": "account",
          "type": "address"
        }
      ],
      "name": "Unpaused",
      "type": "event"
    },
    {
      "anonymous": false,
      "inputs": [
        {
          "indexed": true,
          "internalType": "address",
          "name": "implementation",
          "type": "address"
        }
      ],
      "name": "Upgraded",
      "type": "event"
    },
    {
      "inputs": [],
      "name": "DEFAULT_ADMIN_ROLE",
      "outputs": [
        {
          "internalType": "bytes32",
          "name": "",
          "type": "bytes32"
        }
      ],
      "stateMutability": "view",
      "type": "function"
    },
    {
      "inputs": [],
      "name": "DOMAIN_SEPARATOR",
      "outputs": [
        {
          "internalType": "bytes32",
          "name": "",
          "type": "bytes32"
        }
      ],
      "stateMutability": "view",
      "type": "function"
    },
    {
      "inputs": [],
      "name": "EIP712DomainHash",
      "outputs": [
        {
          "internalType": "bytes32",
          "name": "",
          "type": "bytes32"
        }
      ],
      "stateMutability": "view",
      "type": "function"
    },
    {
      "inputs": [],
      "name": "PAUSER_ROLE",
      "outputs": [
        {
          "internalType": "bytes32",
          "name": "",
          "type": "bytes32"
        }
      ],
      "stateMutability": "view",
      "type": "function"
    },
    {
      "inputs": [],
      "name": "TIMER",
      "outputs": [
        {
          "internalType": "uint256",
          "name": "",
          "type": "uint256"
        }
      ],
      "stateMutability": "view",
      "type": "function"
    },
    {
      "inputs": [],
      "name": "VERSION",
      "outputs": [
        {
          "internalType": "string",
          "name": "",
          "type": "string"
        }
      ],
      "stateMutability": "view",
      "type": "function"
    },
    {
      "inputs": [],
      "name": "VERSION_RELEASE_CANDIDATE",
      "outputs": [
        {
          "internalType": "uint256",
          "name": "",
          "type": "uint256"
        }
      ],
      "stateMutability": "view",
      "type": "function"
    },
    {
      "inputs": [
        {
          "internalType": "address",
          "name": "_homeToken",
          "type": "address"
        },
        {
          "internalType": "address",
          "name": "_remoteToken",
          "type": "address"
        },
        {
          "internalType": "uint32",
          "name": "_domain",
          "type": "uint32"
        }
      ],
      "name": "addTokenPair",
      "outputs": [],
      "stateMutability": "nonpayable",
      "type": "function"
    },
    {
      "inputs": [
        {
          "internalType": "address[]",
          "name": "_homeTokens",
          "type": "address[]"
        },
        {
          "internalType": "address[]",
          "name": "_remoteTokens",
          "type": "address[]"
        },
        {
          "internalType": "uint32",
          "name": "_domain",
          "type": "uint32"
        }
      ],
      "name": "batchAddTokenPair",
      "outputs": [],
      "stateMutability": "nonpayable",
      "type": "function"
    },
    {
      "inputs": [],
      "name": "domains",
      "outputs": [
        {
          "internalType": "uint32[]",
          "name": "",
          "type": "uint32[]"
        }
      ],
      "stateMutability": "view",
      "type": "function"
    },
    {
      "inputs": [
        {
          "internalType": "uint32",
          "name": "_domain",
          "type": "uint32"
        },
        {
          "internalType": "bytes32",
          "name": "_router",
          "type": "bytes32"
        }
      ],
      "name": "enrollRemoteRouter",
      "outputs": [],
      "stateMutability": "nonpayable",
      "type": "function"
    },
    {
      "inputs": [
        {
          "internalType": "uint32[]",
          "name": "_domains",
          "type": "uint32[]"
        },
        {
          "internalType": "bytes32[]",
          "name": "_addresses",
          "type": "bytes32[]"
        }
      ],
      "name": "enrollRemoteRouters",
      "outputs": [],
      "stateMutability": "nonpayable",
      "type": "function"
    },
    {
      "inputs": [
        {
          "internalType": "bytes32",
          "name": "role",
          "type": "bytes32"
        }
      ],
      "name": "getRoleAdmin",
      "outputs": [
        {
          "internalType": "bytes32",
          "name": "",
          "type": "bytes32"
        }
      ],
      "stateMutability": "view",
      "type": "function"
    },
    {
      "inputs": [
        {
          "internalType": "bytes32",
          "name": "role",
          "type": "bytes32"
        },
        {
          "internalType": "address",
          "name": "account",
          "type": "address"
        }
      ],
      "name": "grantRole",
      "outputs": [],
      "stateMutability": "nonpayable",
      "type": "function"
    },
    {
      "inputs": [
        {
          "internalType": "uint32",
          "name": "_origin",
          "type": "uint32"
        },
        {
          "internalType": "bytes32",
          "name": "_sender",
          "type": "bytes32"
        },
        {
          "internalType": "bytes",
          "name": "_message",
          "type": "bytes"
        }
      ],
      "name": "handle",
      "outputs": [],
      "stateMutability": "payable",
      "type": "function"
    },
    {
      "inputs": [
        {
          "internalType": "bytes32",
          "name": "role",
          "type": "bytes32"
        },
        {
          "internalType": "address",
          "name": "account",
          "type": "address"
        }
      ],
      "name": "hasRole",
      "outputs": [
        {
          "internalType": "bool",
          "name": "",
          "type": "bool"
        }
      ],
      "stateMutability": "view",
      "type": "function"
    },
    {
      "inputs": [],
      "name": "hook",
      "outputs": [
        {
          "internalType": "contract IPostDispatchHook",
          "name": "",
          "type": "address"
        }
      ],
      "stateMutability": "view",
      "type": "function"
    },
    {
      "inputs": [
        {
          "internalType": "address",
          "name": "_owner",
          "type": "address"
        },
        {
          "internalType": "address[]",
          "name": "accounts",
          "type": "address[]"
        },
        {
          "internalType": "bytes32[]",
          "name": "roles",
          "type": "bytes32[]"
        }
      ],
      "name": "initialize",
      "outputs": [],
      "stateMutability": "nonpayable",
      "type": "function"
    },
    {
      "inputs": [],
      "name": "interchainSecurityModule",
      "outputs": [
        {
          "internalType": "contract IInterchainSecurityModule",
          "name": "",
          "type": "address"
        }
      ],
      "stateMutability": "view",
      "type": "function"
    },
    {
      "inputs": [],
      "name": "localDomain",
      "outputs": [
        {
          "internalType": "uint32",
          "name": "",
          "type": "uint32"
        }
      ],
      "stateMutability": "view",
      "type": "function"
    },
    {
      "inputs": [],
      "name": "mailbox",
      "outputs": [
        {
          "internalType": "contract IMailbox",
          "name": "",
          "type": "address"
        }
      ],
      "stateMutability": "view",
      "type": "function"
    },
    {
      "inputs": [],
      "name": "nonce",
      "outputs": [
        {
          "internalType": "uint256",
          "name": "",
          "type": "uint256"
        }
      ],
      "stateMutability": "view",
      "type": "function"
    },
    {
      "inputs": [],
      "name": "owner",
      "outputs": [
        {
          "internalType": "address",
          "name": "",
          "type": "address"
        }
      ],
      "stateMutability": "view",
      "type": "function"
    },
    {
      "inputs": [],
      "name": "pause",
      "outputs": [],
      "stateMutability": "nonpayable",
      "type": "function"
    },
    {
      "inputs": [],
      "name": "paused",
      "outputs": [
        {
          "internalType": "bool",
          "name": "",
          "type": "bool"
        }
      ],
      "stateMutability": "view",
      "type": "function"
    },
    {
      "inputs": [],
      "name": "proxiableUUID",
      "outputs": [
        {
          "internalType": "bytes32",
          "name": "",
          "type": "bytes32"
        }
      ],
      "stateMutability": "view",
      "type": "function"
    },
    {
      "inputs": [
        {
          "internalType": "uint32",
          "name": "_destinationDomain",
          "type": "uint32"
        },
        {
          "internalType": "address",
          "name": "_token",
          "type": "address"
        },
        {
          "internalType": "uint256",
          "name": "_amount",
          "type": "uint256"
        },
        {
          "internalType": "address",
          "name": "_recipient",
          "type": "address"
        }
      ],
      "name": "quoteTokenTransferFee",
      "outputs": [
        {
          "internalType": "uint256",
          "name": "",
          "type": "uint256"
        }
      ],
      "stateMutability": "view",
      "type": "function"
    },
    {
      "inputs": [
        {
          "internalType": "address",
          "name": "_token",
          "type": "address"
        },
        {
          "internalType": "uint32",
          "name": "_domain",
          "type": "uint32"
        }
      ],
      "name": "remoteTokens",
      "outputs": [
        {
          "components": [
            {
              "internalType": "address",
              "name": "tokenAddress",
              "type": "address"
            },
            {
              "internalType": "uint256",
              "name": "timer",
              "type": "uint256"
            }
          ],
          "internalType": "struct RemoteTokenInformation",
          "name": "",
          "type": "tuple"
        }
      ],
      "stateMutability": "view",
      "type": "function"
    },
    {
      "inputs": [],
      "name": "renounceOwnership",
      "outputs": [],
      "stateMutability": "nonpayable",
      "type": "function"
    },
    {
      "inputs": [
        {
          "internalType": "bytes32",
          "name": "role",
          "type": "bytes32"
        },
        {
          "internalType": "address",
          "name": "account",
          "type": "address"
        }
      ],
      "name": "renounceRole",
      "outputs": [],
      "stateMutability": "nonpayable",
      "type": "function"
    },
    {
      "inputs": [
        {
          "internalType": "bytes32",
          "name": "",
          "type": "bytes32"
        }
      ],
      "name": "requests",
      "outputs": [
        {
          "internalType": "bool",
          "name": "isReverted",
          "type": "bool"
        },
        {
          "internalType": "uint256",
          "name": "timestamp",
          "type": "uint256"
        },
        {
          "internalType": "enum ToucanCrosschainMessengerStorageV1.BridgeRequestType",
          "name": "requestType",
          "type": "uint8"
        },
        {
          "internalType": "enum ToucanCrosschainMessengerStorageV1.MessageTypes",
          "name": "messageType",
          "type": "uint8"
        }
      ],
      "stateMutability": "view",
      "type": "function"
    },
    {
      "inputs": [
        {
          "internalType": "bytes32",
          "name": "role",
          "type": "bytes32"
        },
        {
          "internalType": "address",
          "name": "account",
          "type": "address"
        }
      ],
      "name": "revokeRole",
      "outputs": [],
      "stateMutability": "nonpayable",
      "type": "function"
    },
    {
      "inputs": [
        {
          "internalType": "uint32",
          "name": "_domain",
          "type": "uint32"
        }
      ],
      "name": "routers",
      "outputs": [
        {
          "internalType": "bytes32",
          "name": "",
          "type": "bytes32"
        }
      ],
      "stateMutability": "view",
      "type": "function"
    },
    {
      "inputs": [
        {
          "internalType": "address",
          "name": "_hook",
          "type": "address"
        }
      ],
      "name": "setHook",
      "outputs": [],
      "stateMutability": "nonpayable",
      "type": "function"
    },
    {
      "inputs": [
        {
          "internalType": "address",
          "name": "_module",
          "type": "address"
        }
      ],
      "name": "setInterchainSecurityModule",
      "outputs": [],
      "stateMutability": "nonpayable",
      "type": "function"
    },
    {
      "inputs": [
        {
          "internalType": "bytes4",
          "name": "interfaceId",
          "type": "bytes4"
        }
      ],
      "name": "supportsInterface",
      "outputs": [
        {
          "internalType": "bool",
          "name": "",
          "type": "bool"
        }
      ],
      "stateMutability": "view",
      "type": "function"
    },
    {
      "inputs": [
        {
          "internalType": "address",
          "name": "newOwner",
          "type": "address"
        }
      ],
      "name": "transferOwnership",
      "outputs": [],
      "stateMutability": "nonpayable",
      "type": "function"
    },
    {
      "inputs": [
        {
          "internalType": "uint32",
          "name": "_destinationDomain",
          "type": "uint32"
        },
        {
          "internalType": "address",
          "name": "_token",
          "type": "address"
        },
        {
          "internalType": "uint256",
          "name": "_amount",
          "type": "uint256"
        }
      ],
      "name": "transferTokens",
      "outputs": [],
      "stateMutability": "payable",
      "type": "function"
    },
    {
      "inputs": [
        {
          "internalType": "uint32",
          "name": "_destinationDomain",
          "type": "uint32"
        },
        {
          "internalType": "address",
          "name": "_token",
          "type": "address"
        },
        {
          "internalType": "uint256",
          "name": "_amount",
          "type": "uint256"
        },
        {
          "internalType": "address",
          "name": "_recipient",
          "type": "address"
        }
      ],
      "name": "transferTokensToRecipient",
      "outputs": [],
      "stateMutability": "payable",
      "type": "function"
    },
    {
      "inputs": [
        {
          "internalType": "uint32",
          "name": "_domain",
          "type": "uint32"
        }
      ],
      "name": "unenrollRemoteRouter",
      "outputs": [],
      "stateMutability": "nonpayable",
      "type": "function"
    },
    {
      "inputs": [
        {
          "internalType": "uint32[]",
          "name": "_domains",
          "type": "uint32[]"
        }
      ],
      "name": "unenrollRemoteRouters",
      "outputs": [],
      "stateMutability": "nonpayable",
      "type": "function"
    },
    {
      "inputs": [],
      "name": "unpause",
      "outputs": [],
      "stateMutability": "nonpayable",
      "type": "function"
    },
    {
      "inputs": [
        {
          "internalType": "address",
          "name": "newImplementation",
          "type": "address"
        }
      ],
      "name": "upgradeTo",
      "outputs": [],
      "stateMutability": "nonpayable",
      "type": "function"
    },
    {
      "inputs": [
        {
          "internalType": "address",
          "name": "newImplementation",
          "type": "address"
        },
        {
          "internalType": "bytes",
          "name": "data",
          "type": "bytes"
        }
      ],
      "name": "upgradeToAndCall",
      "outputs": [],
      "stateMutability": "payable",
      "type": "function"
    }
  ],
  "numDeployments": 1,
  "solcInputHash": "bcb10d72419a665220ab04cdbc0a5934",
  "bytecode": "0x60e0604052306080523480156200001557600080fd5b5060405162003f2638038062003f268339810160408190526200003891620002bc565b80808062000051816200013d60201b620017eb1760201c565b620000a35760405162461bcd60e51b815260206004820152601e60248201527f4d61696c626f78436c69656e743a20696e76616c6964206d61696c626f78000060448201526064015b60405180910390fd5b6001600160a01b03821660a08190526040805163234d8e3d60e21b81529051638d3638f4916004808201926020929091908290030181865afa158015620000ee573d6000803e3d6000fd5b505050506040513d601f19601f82011682018060405250810190620001149190620002ee565b63ffffffff1660c05262000128336200014c565b50620001369150506200019f565b5062000316565b6001600160a01b03163b151590565b61012d80546001600160a01b038381166001600160a01b0319831681179093556040519116919082907f8be0079c531659141344cd1fd0a4f28419497f9722a3daafe3b4186f6b6457e090600090a35050565b620001ab60ff620001ae565b50565b60008054610100900460ff161562000243578160ff166001148015620001e75750620001e5306200013d60201b620017eb1760201c565b155b6200023b5760405162461bcd60e51b815260206004820152602e602482015260008051602062003f0683398151915260448201526d191e481a5b9a5d1a585b1a5e995960921b60648201526084016200009a565b506000919050565b60005460ff808416911610620002a25760405162461bcd60e51b815260206004820152602e602482015260008051602062003f0683398151915260448201526d191e481a5b9a5d1a585b1a5e995960921b60648201526084016200009a565b506000805460ff191660ff92909216919091179055600190565b600060208284031215620002cf57600080fd5b81516001600160a01b0381168114620002e757600080fd5b9392505050565b6000602082840312156200030157600080fd5b815163ffffffff81168114620002e757600080fd5b60805160a05160c051613b886200037e6000396000818161053501526113c101526000818161074f01528181610e99015281816127430152612c86015260008181610ae301528181610b2301528181610d1901528181610d590152610de80152613b886000f3fe6080604052600436106102675760003560e01c80638d3638f411610144578063d5438eae116100b6578063e9198bf91161007a578063e9198bf914610806578063efae508a14610826578063f292e80514610846578063f2fde38b14610859578063f8d8353f14610879578063ffa1ad741461089957600080fd5b8063d5438eae1461073d578063d547741f14610771578063d9e7e0b714610791578063de523cf3146107b1578063e63ab1e9146107d257600080fd5b8063a217fddf11610108578063a217fddf14610626578063affed0e01461063b578063b49c53a714610652578063bdaca27a14610672578063c0d5f4471461070a578063d3f6c4f11461072a57600080fd5b80638d3638f4146105235780638da5cb5b1461056c57806391d148541461058b57806394eda280146105ab5780639d866985146105cb57600080fd5b80634f1ef286116101dd5780636ca0b0d7116101a15780636ca0b0d71461045757806370722ced1461046c578063715018a6146104a057806371a15b38146104b55780637f5a7c7b146104d55780638456cb591461050e57600080fd5b80634f1ef286146103ed57806352d1902d1461040057806356d5d475146104155780635c975abb1461042857806367e8e7831461044057600080fd5b80633644e5151161022f5780633644e5151461034157806336568abe146103565780633659cfe6146103765780633dfd3873146103965780633f4ba83a146103b6578063440df4f4146103cb57600080fd5b806301ffc9a71461026c5780630e72cc06146102a1578063248a9ca3146102c35780632ead72f6146103015780632f2ff15d14610321575b600080fd5b34801561027857600080fd5b5061028c610287366004612f50565b6108d7565b60405190151581526020015b60405180910390f35b3480156102ad57600080fd5b506102c16102bc366004612f8f565b61090e565b005b3480156102cf57600080fd5b506102f36102de366004612fac565b600090815260fb602052604090206001015490565b604051908152602001610298565b34801561030d57600080fd5b506102f361031c366004612fd9565b6109a2565b34801561032d57600080fd5b506102c161033c366004612ff4565b6109c2565b34801561034d57600080fd5b506102f36109ec565b34801561036257600080fd5b506102c1610371366004612ff4565b610a5b565b34801561038257600080fd5b506102c1610391366004612f8f565b610ad9565b3480156103a257600080fd5b506102c16103b1366004612f8f565b610bb8565b3480156103c257600080fd5b506102c1610c43565b3480156103d757600080fd5b506103e0610cfd565b6040516102989190613024565b6102c16103fb366004613084565b610d0f565b34801561040c57600080fd5b506102f3610ddb565b6102c1610423366004613148565b610e8e565b34801561043457600080fd5b5060335460ff1661028c565b34801561044c57600080fd5b506102f36212750081565b34801561046357600080fd5b506102f3600181565b34801561047857600080fd5b506102f37fc2f8787176b8ac6bf7215b4adcc1e069bf4ab82d9ab1df05a57a91d425935b6e81565b3480156104ac57600080fd5b506102c1610f8d565b3480156104c157600080fd5b506102c16104d0366004613214565b610fc2565b3480156104e157600080fd5b5061015f546104f6906001600160a01b031681565b6040516001600160a01b039091168152602001610298565b34801561051a57600080fd5b506102c1611040565b34801561052f57600080fd5b506105577f000000000000000000000000000000000000000000000000000000000000000081565b60405163ffffffff9091168152602001610298565b34801561057857600080fd5b5061012d546001600160a01b03166104f6565b34801561059757600080fd5b5061028c6105a6366004612ff4565b6110d2565b3480156105b757600080fd5b506102c16105c6366004613256565b6110fd565b3480156105d757600080fd5b506106166105e6366004612fac565b6101c66020526000908152604090208054600182015460029092015460ff91821692918181169161010090041684565b6040516102989493929190613301565b34801561063257600080fd5b506102f3600081565b34801561064757600080fd5b506102f36101c45481565b34801561065e57600080fd5b506102c161066d366004613334565b6111eb565b34801561067e57600080fd5b506106e661068d36600461335e565b604080518082018252600080825260209182018190526001600160a01b0394851681526101c7825282812063ffffffff949094168152928152918190208151808301909252805490931681526001909201549082015290565b6040805182516001600160a01b031681526020928301519281019290925201610298565b34801561071657600080fd5b506102c1610725366004613393565b611220565b6102c16107383660046133da565b611256565b34801561074957600080fd5b506104f67f000000000000000000000000000000000000000000000000000000000000000081565b34801561077d57600080fd5b506102c161078c366004612ff4565b61144a565b34801561079d57600080fd5b506102f36107ac3660046133da565b61146f565b3480156107bd57600080fd5b50610160546104f6906001600160a01b031681565b3480156107de57600080fd5b506102f37f65d7a28e3265b37a6474929f336521b332c1681b933f6cb9f3376673440d862a81565b34801561081257600080fd5b506102c161082136600461342b565b611497565b34801561083257600080fd5b506102c1610841366004612fd9565b611569565b6102c1610854366004613497565b61159d565b34801561086557600080fd5b506102c1610874366004612f8f565b6115a9565b34801561088557600080fd5b506102c16108943660046134d6565b611642565b3480156108a557600080fd5b506108ca604051806040016040528060058152602001640322e302e360dc1b81525081565b60405161029891906135b1565b60006001600160e01b03198216637965db0b60e01b148061090857506301ffc9a760e01b6001600160e01b03198316145b92915050565b806001600160a01b0381163b15158061092e57506001600160a01b038116155b6109535760405162461bcd60e51b815260040161094a906135c4565b60405180910390fd5b61012d546001600160a01b0316331461097e5760405162461bcd60e51b815260040161094a9061360b565b5061016080546001600160a01b0319166001600160a01b0392909216919091179055565b6000806109ba61019163ffffffff808616906117fa16565b949350505050565b600082815260fb60205260409020600101546109dd81611813565b6109e7838361181d565b505050565b60007fc2f8787176b8ac6bf7215b4adcc1e069bf4ab82d9ab1df05a57a91d425935b6e604051806040016040528060058152602001640322e302e360dc1b81525046604051602001610a4093929190613640565b60405160208183030381529060405280519060200120905090565b6001600160a01b0381163314610acb5760405162461bcd60e51b815260206004820152602f60248201527f416363657373436f6e74726f6c3a2063616e206f6e6c792072656e6f756e636560448201526e103937b632b9903337b91039b2b63360891b606482015260840161094a565b610ad582826118a3565b5050565b6001600160a01b037f0000000000000000000000000000000000000000000000000000000000000000163003610b215760405162461bcd60e51b815260040161094a9061369d565b7f00000000000000000000000000000000000000000000000000000000000000006001600160a01b0316610b6a600080516020613b0c833981519152546001600160a01b031690565b6001600160a01b031614610b905760405162461bcd60e51b815260040161094a906136e9565b610b998161190a565b60408051600080825260208201909252610bb591839190611935565b50565b806001600160a01b0381163b151580610bd857506001600160a01b038116155b610bf45760405162461bcd60e51b815260040161094a906135c4565b61012d546001600160a01b03163314610c1f5760405162461bcd60e51b815260040161094a9061360b565b5061015f80546001600160a01b0319166001600160a01b0392909216919091179055565b610c6d7f65d7a28e3265b37a6474929f336521b332c1681b933f6cb9f3376673440d862a336110d2565b610caa5760405162461bcd60e51b815260206004820152600e60248201526d139bdd08185d5d1a1bdc9a5e995960921b604482015260640161094a565b60335460ff16610cf35760405162461bcd60e51b815260206004820152601460248201527314185d5cd8589b194e881b9bdd081c185d5cd95960621b604482015260640161094a565b610cfb611aa0565b565b6060610d0a610191611b33565b905090565b6001600160a01b037f0000000000000000000000000000000000000000000000000000000000000000163003610d575760405162461bcd60e51b815260040161094a9061369d565b7f00000000000000000000000000000000000000000000000000000000000000006001600160a01b0316610da0600080516020613b0c833981519152546001600160a01b031690565b6001600160a01b031614610dc65760405162461bcd60e51b815260040161094a906136e9565b610dcf8261190a565b610ad582826001611935565b6000306001600160a01b037f00000000000000000000000000000000000000000000000000000000000000001614610e7b5760405162461bcd60e51b815260206004820152603860248201527f555550535570677261646561626c653a206d757374206e6f742062652063616c60448201527f6c6564207468726f7567682064656c656761746563616c6c0000000000000000606482015260840161094a565b50600080516020613b0c83398151915290565b336001600160a01b037f00000000000000000000000000000000000000000000000000000000000000001614610f105760405162461bcd60e51b815260206004820152602160248201527f4d61696c626f78436c69656e743a2073656e646572206e6f74206d61696c626f6044820152600f60fb1b606482015260840161094a565b6000610f1b85611bee565b9050838114610f7a5760405162461bcd60e51b815260206004820152602560248201527f456e726f6c6c656420726f7574657220646f6573206e6f74206d61746368207360448201526432b73232b960d91b606482015260840161094a565b610f8685858585611c3b565b5050505050565b61012d546001600160a01b03163314610fb85760405162461bcd60e51b815260040161094a9061360b565b610cfb6000611f00565b61012d546001600160a01b03163314610fed5760405162461bcd60e51b815260040161094a9061360b565b8060005b8181101561103a5761102884848381811061100e5761100e613735565b90506020020160208101906110239190612fd9565b611f53565b611033600182613761565b9050610ff1565b50505050565b61106a7f65d7a28e3265b37a6474929f336521b332c1681b933f6cb9f3376673440d862a336110d2565b6110a75760405162461bcd60e51b815260206004820152600e60248201526d139bdd08185d5d1a1bdc9a5e995960921b604482015260640161094a565b60335460ff16156110ca5760405162461bcd60e51b815260040161094a90613779565b610cfb611f8f565b600091825260fb602090815260408084206001600160a01b0393909316845291905290205460ff1690565b61012d546001600160a01b031633146111285760405162461bcd60e51b815260040161094a9061360b565b838281146111705760405162461bcd60e51b8152602060048201526015602482015274082e4e4c2f240d8cadccee8d040dad2e6dac2e8c6d605b1b604482015260640161094a565b60005b818110156111e2576111d287878381811061119057611190613735565b90506020020160208101906111a59190612f8f565b8686848181106111b7576111b7613735565b90506020020160208101906111cc9190612f8f565b85611fe7565b6111db816137a3565b9050611173565b50505050505050565b61012d546001600160a01b031633146112165760405162461bcd60e51b815260040161094a9061360b565b610ad58282612233565b61012d546001600160a01b0316331461124b5760405162461bcd60e51b815260040161094a9061360b565b6109e7838383611fe7565b60335460ff16156112795760405162461bcd60e51b815260040161094a90613779565b6101c48054600101908190556000611294838686898661224a565b60408051608081018252600081524260208201529192508101600181526020016000905260008281526101c660209081526040918290208351815490151560ff19918216178255918401516001808301919091559284015160028083018054939592949093169190849081111561130d5761130d6132d7565b0217905550606082015160028201805461ff001916610100838015611334576113346132d7565b0217905550905050600061134b87878787866122cd565b90506113578782612383565b506040516374f4f54760e01b8152336004820152602481018690526001600160a01b038716906374f4f54790604401600060405180830381600087803b1580156113a057600080fd5b505af11580156113b4573d6000803e3d6000fd5b50506040805163ffffffff7f0000000000000000000000000000000000000000000000000000000000000000811682526001600160a01b0389811660208401529282018a90526060820188905260808201879052918a169350339250908a16907fb967a159106e693bcb8298f42c743d6a70b66535ae64bdaf9710db69156984c69060a00160405180910390a450505050505050565b600082815260fb602052604090206001015461146581611813565b6109e783836118a3565b600080611481868686866000196122cd565b905061148d8682612397565b9695505050505050565b61012d546001600160a01b031633146114c25760405162461bcd60e51b815260040161094a9061360b565b8281146114fb5760405162461bcd60e51b8152602060048201526007602482015266042d8cadccee8d60cb1b604482015260640161094a565b8260005b818110156115615761154f86868381811061151c5761151c613735565b90506020020160208101906115319190612fd9565b85858481811061154357611543613735565b90506020020135612233565b61155a600182613761565b90506114ff565b505050505050565b61012d546001600160a01b031633146115945760405162461bcd60e51b815260040161094a9061360b565b610bb581611f53565b6109e783838333611256565b61012d546001600160a01b031633146115d45760405162461bcd60e51b815260040161094a9061360b565b6001600160a01b0381166116395760405162461bcd60e51b815260206004820152602660248201527f4f776e61626c653a206e6577206f776e657220697320746865207a65726f206160448201526564647265737360d01b606482015260840161094a565b610bb581611f00565b600061164e60016123b0565b90508015611666576000805461ff0019166101001790555b8382146116ad5760405162461bcd60e51b8152602060048201526015602482015274082e4e4c2f240d8cadccee8d040dad2e6dac2e8c6d605b1b604482015260640161094a565b6116b96000808861243d565b6116c1612487565b6116c96124b6565b6116d16124b6565b6000805b8581101561175a576117258585838181106116f2576116f2613735565b9050602002013588888481811061170b5761170b613735565b90506020020160208101906117209190612f8f565b61181d565b600085858381811061173957611739613735565b905060200201350361174a57600191505b611753816137a3565b90506116d5565b508061179d5760405162461bcd60e51b8152602060048201526012602482015271139bc818591b5a5b881cdc1958da599a595960721b604482015260640161094a565b508015611561576000805461ff0019169055604051600181527f7f26b83ff96e1f2b6a682f133852f6798a09c465da95921460cefb38474024989060200160405180910390a1505050505050565b6001600160a01b03163b151590565b60008061180784846124dd565b915091505b9250929050565b610bb58133612517565b61182782826110d2565b610ad557600082815260fb602090815260408083206001600160a01b03851684529091529020805460ff1916600117905561185f3390565b6001600160a01b0316816001600160a01b0316837f2f8788117e7eff1d82e926ec794901d17c78024a50270940304540a733656f0d60405160405180910390a45050565b6118ad82826110d2565b15610ad557600082815260fb602090815260408083206001600160a01b0385168085529252808320805460ff1916905551339285917ff6391f5c32d9c69d2a47ea670b442974b53935d1edc7fd64eb21e047a839171b9190a45050565b61012d546001600160a01b03163314610bb55760405162461bcd60e51b815260040161094a9061360b565b7f4910fdfa16fed3260ed0e7147f7cc6da11a60208b5b9406d12a635614ffd91435460ff1615611968576109e78361257b565b826001600160a01b03166352d1902d6040518163ffffffff1660e01b8152600401602060405180830381865afa9250505080156119c2575060408051601f3d908101601f191682019092526119bf918101906137bc565b60015b611a255760405162461bcd60e51b815260206004820152602e60248201527f45524331393637557067726164653a206e657720696d706c656d656e7461746960448201526d6f6e206973206e6f74205555505360901b606482015260840161094a565b600080516020613b0c8339815191528114611a945760405162461bcd60e51b815260206004820152602960248201527f45524331393637557067726164653a20756e737570706f727465642070726f786044820152681a58589b195555525160ba1b606482015260840161094a565b506109e7838383612617565b60335460ff16611ae95760405162461bcd60e51b815260206004820152601460248201527314185d5cd8589b194e881b9bdd081c185d5cd95960621b604482015260640161094a565b6033805460ff191690557f5db9ee0a495bf2e6ff9c91a7834c1ba4fdd244a5e8aa4e537bd38aeae4b073aa335b6040516001600160a01b03909116815260200160405180910390a1565b60606000611b408361263c565b9050805167ffffffffffffffff811115611b5c57611b5c61306e565b604051908082528060200260200182016040528015611b85578160200160208202803683370190505b50915060005b8151811015611be757818181518110611ba657611ba6613735565b6020026020010151838281518110611bc057611bc0613735565b63ffffffff9092166020928302919091019091015280611bdf816137a3565b915050611b8b565b5050919050565b60008080611c0761019163ffffffff808716906117fa16565b9150915081611c15856126d7565b90611c335760405162461bcd60e51b815260040161094a91906135b1565b509392505050565b60335460ff1615611c5e5760405162461bcd60e51b815260040161094a90613779565b6000808080808080611c72888a018a6137d5565b959c50939a5091985096509450925090506000808281526101c66020526040902060029081015460ff1690811115611cac57611cac6132d7565b14611cf95760405162461bcd60e51b815260206004820152601760248201527f4272696467652052657175657374204578656375746564000000000000000000604482015260640161094a565b60408051608081018252600081524260208201529081016002815260200160ff89168015611d2957611d296132d7565b8015611d3757611d376132d7565b905260008281526101c660209081526040918290208351815490151560ff199182161782559184015160018083019190915592840151600280830180549395929490931691908490811115611d8e57611d8e6132d7565b0217905550606082015160028201805461ff001916610100838015611db557611db56132d7565b021790555060009150611dc59050565b60ff88168015611dd757611dd76132d7565b8015611de557611de56132d7565b03611eb3576040516346154c9f60e11b81526001600160a01b03868116600483015260248201859052851690638c2a993e90604401600060405180830381600087803b158015611e3457600080fd5b505af1158015611e48573d6000803e3d6000fd5b50506040805163ffffffff86811682526001600160a01b038a811660208401528284018990526060830187905292518984169550928b1693508f16917ff475ec3ebd0a821ced53bf4d9fb1b6e5110cdf24015f2a590842816d2aced35d9181900360800190a4611ef3565b60405162461bcd60e51b81526020600482015260156024820152742ab739bab83837b93a32b21027b832b930ba34b7b760591b604482015260640161094a565b5050505050505050505050565b61012d80546001600160a01b038381166001600160a01b0319831681179093556040519116919082907f8be0079c531659141344cd1fd0a4f28419497f9722a3daafe3b4186f6b6457e090600090a35050565b611f6861019163ffffffff8084169061270e16565b611f71826126d7565b90610ad55760405162461bcd60e51b815260040161094a91906135b1565b60335460ff1615611fb25760405162461bcd60e51b815260040161094a90613779565b6033805460ff191660011790557f62e78cea01bee320cd4e420270b5ea74000d11b0c9f74754ebdbfc544b05a258611b163390565b6001600160a01b03831661202b5760405162461bcd60e51b815260206004820152600b60248201526a10afb437b6b2aa37b5b2b760a91b604482015260640161094a565b6001600160a01b03831660009081526101c76020908152604080832063ffffffff85168452909152902060010154156120d8576001600160a01b03831660009081526101c76020908152604080832063ffffffff85168452909152902060010154621275009061209b904261385b565b106120d85760405162461bcd60e51b815260206004820152600d60248201526c1d1a5b595c88195e1c1a5c9959609a1b604482015260640161094a565b6001600160a01b0380841660009081526101c76020908152604080832063ffffffff861680855281845282852080548451808601909552898816808652428688019081529390975292909452915185166001600160a01b031982161783559051600190920191909155909116906121e4576001600160a01b0381166121965760405162461bcd60e51b81526020600482015260146024820152731a5b9d985b1a59081c185a5c881c995b5bdd985b60621b604482015260640161094a565b60405163ffffffff831681526001600160a01b0380831691908616907f9562b33b08bb74534647f3dff5a674dcd7d10854e517bd258eb5e9d3d4c2c6b29060200160405180910390a361103a565b60405163ffffffff831681526001600160a01b0380851691908616907f1a954a85d933c5418c8c7edb1605fff69c5d182538b3a5299682a97f788311b49060200160405180910390a350505050565b610ad561019163ffffffff80851690849061271a16565b60006122546109ec565b6040805160208101929092526bffffffffffffffffffffffff19606089811b8216928401929092529087901b166054820152606881018590526001600160e01b031960e085901b166088820152608c810183905260ac016040516020818303038152906040528051906020012090505b95945050505050565b6001600160a01b0380851660009081526101c76020908152604080832063ffffffff8a168452909152902054606091168061234a5760405162461bcd60e51b815260206004820152601760248201527f72656d6f746520746f6b656e206e6f74206d6170706564000000000000000000604482015260640161094a565b6000338583888b886040516020016123689796959493929190613872565b60405160208183030381529060405291505095945050505050565b6000612390833484612725565b9392505050565b6000806123a384611bee565b90506109ba84828561273f565b60008054610100900460ff16156123f7578160ff1660011480156123d35750303b155b6123ef5760405162461bcd60e51b815260040161094a906138c0565b506000919050565b60005460ff80841691161061241e5760405162461bcd60e51b815260040161094a906138c0565b506000805460ff191660ff92909216919091179055600190565b919050565b600054610100900460ff166124645760405162461bcd60e51b815260040161094a9061390e565b61246c6127fb565b61247583610bb8565b61247e8261090e565b6109e781611f00565b600054610100900460ff166124ae5760405162461bcd60e51b815260040161094a9061390e565b610cfb61282a565b600054610100900460ff16610cfb5760405162461bcd60e51b815260040161094a9061390e565b600081815260028301602052604081205481908061250c576124ff858561285d565b92506000915061180c9050565b60019250905061180c565b61252182826110d2565b610ad557612539816001600160a01b03166014612869565b612544836020612869565b604051602001612555929190613959565b60408051601f198184030181529082905262461bcd60e51b825261094a916004016135b1565b6001600160a01b0381163b6125e85760405162461bcd60e51b815260206004820152602d60248201527f455243313936373a206e657720696d706c656d656e746174696f6e206973206e60448201526c1bdd08184818dbdb9d1c9858dd609a1b606482015260840161094a565b600080516020613b0c83398151915280546001600160a01b0319166001600160a01b0392909216919091179055565b61262083612a05565b60008251118061262d5750805b156109e75761103a8383612a45565b6060600061264983612b30565b90508067ffffffffffffffff8111156126645761266461306e565b60405190808252806020026020018201604052801561268d578160200160208202803683370190505b50915060005b81811015611be7576126a58482612b3b565b60001c8382815181106126ba576126ba613735565b6020908102919091010152806126cf816137a3565b915050612693565b60606126e88263ffffffff16612b47565b6040516020016126f891906139ce565b6040516020818303038152906040529050919050565b60006123908383612c48565b61103a838383612c65565b60008061273185611bee565b90506122c485828686612c82565b60007f00000000000000000000000000000000000000000000000000000000000000006001600160a01b03166381d2ea9585858561278860408051602081019091526000815290565b61015f546040516001600160e01b031960e088901b1681526127ba95949392916001600160a01b031690600401613a13565b602060405180830381865afa1580156127d7573d6000803e3d6000fd5b505050506040513d601f19601f820116820180604052508101906109ba91906137bc565b600054610100900460ff166128225760405162461bcd60e51b815260040161094a9061390e565b610cfb612d41565b600054610100900460ff166128515760405162461bcd60e51b815260040161094a9061390e565b6033805460ff19169055565b60006123908383612d71565b60606000612878836002613a65565b612883906002613761565b67ffffffffffffffff81111561289b5761289b61306e565b6040519080825280601f01601f1916602001820160405280156128c5576020820181803683370190505b509050600360fc1b816000815181106128e0576128e0613735565b60200101906001600160f81b031916908160001a905350600f60fb1b8160018151811061290f5761290f613735565b60200101906001600160f81b031916908160001a9053506000612933846002613a65565b61293e906001613761565b90505b60018111156129b6576f181899199a1a9b1b9c1cb0b131b232b360811b85600f166010811061297257612972613735565b1a60f81b82828151811061298857612988613735565b60200101906001600160f81b031916908160001a90535060049490941c936129af81613a84565b9050612941565b5083156123905760405162461bcd60e51b815260206004820181905260248201527f537472696e67733a20686578206c656e67746820696e73756666696369656e74604482015260640161094a565b612a0e8161257b565b6040516001600160a01b038216907fbc7cd75a20ee27fd9adebab32041f755214dbc6bffa90cc0225b39da2e5c2d3b90600090a250565b60606001600160a01b0383163b612aad5760405162461bcd60e51b815260206004820152602660248201527f416464726573733a2064656c65676174652063616c6c20746f206e6f6e2d636f6044820152651b9d1c9858dd60d21b606482015260840161094a565b600080846001600160a01b031684604051612ac89190613a9b565b600060405180830381855af49150503d8060008114612b03576040519150601f19603f3d011682016040523d82523d6000602084013e612b08565b606091505b50915091506122c48282604051806060016040528060278152602001613b2c60279139612d89565b600061090882612dc2565b60006123908383612dcc565b606081600003612b6e5750506040805180820190915260018152600360fc1b602082015290565b8160005b8115612b985780612b82816137a3565b9150612b919050600a83613acd565b9150612b72565b60008167ffffffffffffffff811115612bb357612bb361306e565b6040519080825280601f01601f191660200182016040528015612bdd576020820181803683370190505b5090505b84156109ba57612bf260018361385b565b9150612bff600a86613ae1565b612c0a906030613761565b60f81b818381518110612c1f57612c1f613735565b60200101906001600160f81b031916908160001a905350612c41600a86613acd565b9450612be1565b600081815260028301602052604081208190556123908383612df6565b600082815260028401602052604081208290556109ba8484612e02565b60007f00000000000000000000000000000000000000000000000000000000000000006001600160a01b03166310b83dc084878786612ccc60408051602081019091526000815290565b61015f546040516001600160e01b031960e089901b168152612cfe95949392916001600160a01b031690600401613a13565b60206040518083038185885af1158015612d1c573d6000803e3d6000fd5b50505050506040513d601f19601f820116820180604052508101906122c491906137bc565b600054610100900460ff16612d685760405162461bcd60e51b815260040161094a9061390e565b610cfb33611f00565b60008181526001830160205260408120541515612390565b60608315612d98575081612390565b825115612da85782518084602001fd5b8160405162461bcd60e51b815260040161094a91906135b1565b6000610908825490565b6000826000018281548110612de357612de3613735565b9060005260206000200154905092915050565b60006123908383612e0e565b60006123908383612f01565b60008181526001830160205260408120548015612ef7576000612e3260018361385b565b8554909150600090612e469060019061385b565b9050818114612eab576000866000018281548110612e6657612e66613735565b9060005260206000200154905080876000018481548110612e8957612e89613735565b6000918252602080832090910192909255918252600188019052604090208390555b8554869080612ebc57612ebc613af5565b600190038181906000526020600020016000905590558560010160008681526020019081526020016000206000905560019350505050610908565b6000915050610908565b6000818152600183016020526040812054612f4857508154600181810184556000848152602080822090930184905584548482528286019093526040902091909155610908565b506000610908565b600060208284031215612f6257600080fd5b81356001600160e01b03198116811461239057600080fd5b6001600160a01b0381168114610bb557600080fd5b600060208284031215612fa157600080fd5b813561239081612f7a565b600060208284031215612fbe57600080fd5b5035919050565b803563ffffffff8116811461243857600080fd5b600060208284031215612feb57600080fd5b61239082612fc5565b6000806040838503121561300757600080fd5b82359150602083013561301981612f7a565b809150509250929050565b6020808252825182820181905260009190848201906040850190845b8181101561306257835163ffffffff1683529284019291840191600101613040565b50909695505050505050565b634e487b7160e01b600052604160045260246000fd5b6000806040838503121561309757600080fd5b82356130a281612f7a565b9150602083013567ffffffffffffffff808211156130bf57600080fd5b818501915085601f8301126130d357600080fd5b8135818111156130e5576130e561306e565b604051601f8201601f19908116603f0116810190838211818310171561310d5761310d61306e565b8160405282815288602084870101111561312657600080fd5b8260208601602083013760006020848301015280955050505050509250929050565b6000806000806060858703121561315e57600080fd5b61316785612fc5565b935060208501359250604085013567ffffffffffffffff8082111561318b57600080fd5b818701915087601f83011261319f57600080fd5b8135818111156131ae57600080fd5b8860208285010111156131c057600080fd5b95989497505060200194505050565b60008083601f8401126131e157600080fd5b50813567ffffffffffffffff8111156131f957600080fd5b6020830191508360208260051b850101111561180c57600080fd5b6000806020838503121561322757600080fd5b823567ffffffffffffffff81111561323e57600080fd5b61324a858286016131cf565b90969095509350505050565b60008060008060006060868803121561326e57600080fd5b853567ffffffffffffffff8082111561328657600080fd5b61329289838a016131cf565b909750955060208801359150808211156132ab57600080fd5b506132b8888289016131cf565b90945092506132cb905060408701612fc5565b90509295509295909350565b634e487b7160e01b600052602160045260246000fd5b600181106132fd576132fd6132d7565b9052565b8415158152602081018490526080810160038410613321576133216132d7565b8360408301526122c460608301846132ed565b6000806040838503121561334757600080fd5b61335083612fc5565b946020939093013593505050565b6000806040838503121561337157600080fd5b823561337c81612f7a565b915061338a60208401612fc5565b90509250929050565b6000806000606084860312156133a857600080fd5b83356133b381612f7a565b925060208401356133c381612f7a565b91506133d160408501612fc5565b90509250925092565b600080600080608085870312156133f057600080fd5b6133f985612fc5565b9350602085013561340981612f7a565b925060408501359150606085013561342081612f7a565b939692955090935050565b6000806000806040858703121561344157600080fd5b843567ffffffffffffffff8082111561345957600080fd5b613465888389016131cf565b9096509450602087013591508082111561347e57600080fd5b5061348b878288016131cf565b95989497509550505050565b6000806000606084860312156134ac57600080fd5b6134b584612fc5565b925060208401356134c581612f7a565b929592945050506040919091013590565b6000806000806000606086880312156134ee57600080fd5b85356134f981612f7a565b9450602086013567ffffffffffffffff8082111561351657600080fd5b61352289838a016131cf565b9096509450604088013591508082111561353b57600080fd5b50613548888289016131cf565b969995985093965092949392505050565b60005b8381101561357457818101518382015260200161355c565b8381111561103a5750506000910152565b6000815180845261359d816020860160208601613559565b601f01601f19169290920160200192915050565b6020815260006123906020830184613585565b60208082526027908201527f4d61696c626f78436c69656e743a20696e76616c696420636f6e74726163742060408201526673657474696e6760c81b606082015260800190565b6020808252818101527f4f776e61626c653a2063616c6c6572206973206e6f7420746865206f776e6572604082015260600190565b83815260806020820152601960808201527f546f7563616e43726f7373636861696e4d657373656e6765720000000000000060a082015260c06040820152600061368d60c0830185613585565b9050826060830152949350505050565b6020808252602c908201527f46756e6374696f6e206d7573742062652063616c6c6564207468726f7567682060408201526b19195b1959d85d1958d85b1b60a21b606082015260800190565b6020808252602c908201527f46756e6374696f6e206d7573742062652063616c6c6564207468726f7567682060408201526b6163746976652070726f787960a01b606082015260800190565b634e487b7160e01b600052603260045260246000fd5b634e487b7160e01b600052601160045260246000fd5b600082198211156137745761377461374b565b500190565b60208082526010908201526f14185d5cd8589b194e881c185d5cd95960821b604082015260600190565b6000600182016137b5576137b561374b565b5060010190565b6000602082840312156137ce57600080fd5b5051919050565b600080600080600080600060e0888a0312156137f057600080fd5b873560ff8116811461380157600080fd5b9650602088013561381181612f7a565b9550604088013561382181612f7a565b9450606088013561383181612f7a565b93506080880135925061384660a08901612fc5565b915060c0880135905092959891949750929550565b60008282101561386d5761386d61374b565b500390565b60e08101613880828a6132ed565b6001600160a01b0397881660208301529587166040820152939095166060840152608083019190915263ffffffff1660a082015260c00191909152919050565b6020808252602e908201527f496e697469616c697a61626c653a20636f6e747261637420697320616c72656160408201526d191e481a5b9a5d1a585b1a5e995960921b606082015260800190565b6020808252602b908201527f496e697469616c697a61626c653a20636f6e7472616374206973206e6f74206960408201526a6e697469616c697a696e6760a81b606082015260800190565b7f416363657373436f6e74726f6c3a206163636f756e7420000000000000000000815260008351613991816017850160208801613559565b7001034b99036b4b9b9b4b733903937b6329607d1b60179184019182015283516139c2816028840160208801613559565b01602801949350505050565b7f4e6f20726f7574657220656e726f6c6c656420666f7220646f6d61696e3a2000815260008251613a0681601f850160208701613559565b91909101601f0192915050565b63ffffffff8616815284602082015260a060408201526000613a3860a0830186613585565b8281036060840152613a4a8186613585565b91505060018060a01b03831660808301529695505050505050565b6000816000190483118215151615613a7f57613a7f61374b565b500290565b600081613a9357613a9361374b565b506000190190565b60008251613aad818460208701613559565b9190910192915050565b634e487b7160e01b600052601260045260246000fd5b600082613adc57613adc613ab7565b500490565b600082613af057613af0613ab7565b500690565b634e487b7160e01b600052603160045260246000fdfe360894a13ba1a3210667c828492db98dca3e2076cc3735a920a3ca505d382bbc416464726573733a206c6f772d6c6576656c2064656c65676174652063616c6c206661696c6564a26469706673582212209d3be814b196662f13e4514fc7ea908f91b7be1ff61deddfb6daab727037af0a64736f6c634300080e0033496e697469616c697a61626c653a20636f6e747261637420697320616c726561",
  "devdoc": {
    "kind": "dev",
    "methods": {
      "addTokenPair(address,address,uint32)": {
        "details": "Called by owner to add or map home token address to remote token address. Changing the remote token address can only be done within a 7 day period, after first setting it.",
        "params": {
          "_domain": "domain ID of the remote chain whose token is being mapped",
          "_homeToken": "token address on home chain",
          "_remoteToken": "token address on remote chain"
        }
      },
      "batchAddTokenPair(address[],address[],uint32)": {
        "details": "Called by owner to add or map home token addresses to remote token addresses.",
        "params": {
          "_domain": "domain ID of the remote chain whose tokens are being mapped",
          "_homeTokens": "token addresses on home chain",
          "_remoteTokens": "token addresses on remote chain"
        }
      },
      "constructor": {
        "custom:oz-upgrades-unsafe-allow": "constructor"
      },
      "enrollRemoteRouter(uint32,bytes32)": {
        "params": {
          "_domain": "The domain of the remote Application Router",
          "_router": "The address of the remote Application Router"
        }
      },
      "enrollRemoteRouters(uint32[],bytes32[])": {
        "params": {
          "_addresses": "The addresses of the remote Application Routers",
          "_domains": "The domains of the remote Application Routers"
        }
      },
      "getRoleAdmin(bytes32)": {
        "details": "Returns the admin role that controls `role`. See {grantRole} and {revokeRole}. To change a role's admin, use {_setRoleAdmin}."
      },
      "grantRole(bytes32,address)": {
        "details": "Grants `role` to `account`. If `account` had not been already granted `role`, emits a {RoleGranted} event. Requirements: - the caller must have ``role``'s admin role."
      },
      "handle(uint32,bytes32,bytes)": {
        "params": {
          "_message": "The message",
          "_origin": "The origin domain",
          "_sender": "The sender address"
        }
      },
      "hasRole(bytes32,address)": {
        "details": "Returns `true` if `account` has been granted `role`."
      },
      "owner()": {
        "details": "Returns the address of the current owner."
      },
      "pause()": {
        "details": "when invoked by owner it Pauses the cross chain bridging logic to interact with abacus"
      },
      "paused()": {
        "details": "Returns true if the contract is paused, and false otherwise."
      },
      "proxiableUUID()": {
        "details": "Implementation of the ERC1822 {proxiableUUID} function. This returns the storage slot used by the implementation. It is used to validate that the this implementation remains valid after an upgrade. IMPORTANT: A proxy pointing at a proxiable contract should not be considered proxiable itself, because this risks bricking a proxy that upgrades to it, by delegating to itself until out of gas. Thus it is critical that this function revert if invoked through a proxy. This is guaranteed by the `notDelegated` modifier."
      },
      "quoteTokenTransferFee(uint32,address,uint256,address)": {
        "details": "Use the result of this function as msg.value when calling `transferTokens` or `transferTokensToRecipient`.",
        "params": {
          "_amount": "the amount of tokens to be bridged",
          "_destinationDomain": "The domain to send the message to",
          "_recipient": "the recipient of tokens in the destination domain",
          "_token": "address of token to be bridged"
        },
        "returns": {
          "_0": "The required fee for a token transfer"
        }
      },
      "renounceOwnership()": {
        "details": "Leaves the contract without owner. It will not be possible to call `onlyOwner` functions anymore. Can only be called by the current owner. NOTE: Renouncing ownership will leave the contract without an owner, thereby removing any functionality that is only available to the owner."
      },
      "renounceRole(bytes32,address)": {
        "details": "Revokes `role` from the calling account. Roles are often managed via {grantRole} and {revokeRole}: this function's purpose is to provide a mechanism for accounts to lose their privileges if they are compromised (such as when a trusted device is misplaced). If the calling account had been revoked `role`, emits a {RoleRevoked} event. Requirements: - the caller must be `account`."
      },
      "revokeRole(bytes32,address)": {
        "details": "Revokes `role` from `account`. If `account` had been granted `role`, emits a {RoleRevoked} event. Requirements: - the caller must have ``role``'s admin role."
      },
      "routers(uint32)": {
        "details": "Returns 0 address if no router is enrolled for the given domain",
        "params": {
          "_domain": "The remote domain ID."
        },
        "returns": {
          "_0": "router The address of the Router contract for the given domain"
        }
      },
      "setHook(address)": {
        "params": {
          "_hook": "The address of the hook contract."
        }
      },
      "setInterchainSecurityModule(address)": {
        "params": {
          "_module": "The address of the interchain security module contract."
        }
      },
      "supportsInterface(bytes4)": {
        "details": "See {IERC165-supportsInterface}."
      },
      "transferOwnership(address)": {
        "details": "Transfers ownership of the contract to a new account (`newOwner`). Can only be called by the current owner."
      },
      "transferTokens(uint32,address,uint256)": {
        "params": {
          "_amount": "the amount of tokens to be bridged",
          "_destinationDomain": "The domain to send the message to",
          "_token": "address of token to be bridged"
        }
      },
      "transferTokensToRecipient(uint32,address,uint256,address)": {
        "params": {
          "_amount": "the amount of tokens to be bridged",
          "_destinationDomain": "The domain to send the tokens to",
          "_recipient": "the recipient of tokens in the destination domain",
          "_token": "address of token to be bridged"
        }
      },
      "unenrollRemoteRouter(uint32)": {
        "params": {
          "_domain": "The domain of the remote Application Router"
        }
      },
      "unenrollRemoteRouters(uint32[])": {
        "params": {
          "_domains": "The domains of the remote Application Routers"
        }
      },
      "unpause()": {
        "details": "when invoked by owner it unpauses the cross chain bridging logic to interact with abacus"
      },
      "upgradeTo(address)": {
        "details": "Upgrade the implementation of the proxy to `newImplementation`. Calls {_authorizeUpgrade}. Emits an {Upgraded} event."
      },
      "upgradeToAndCall(address,bytes)": {
        "details": "Upgrade the implementation of the proxy to `newImplementation`, and subsequently execute the function call encoded in `data`. Calls {_authorizeUpgrade}. Emits an {Upgraded} event."
      }
    },
    "stateVariables": {
      "EIP712DomainHash": {
        "details": "EIP712Domain hash used in generating request hashes"
      },
      "VERSION": {
        "details": "Version-related parameters. VERSION keeps track of production releases. VERSION_RELEASE_CANDIDATE keeps track of iterations of a VERSION in our staging environment."
      }
    },
    "version": 1
  },
  "userdoc": {
    "kind": "user",
    "methods": {
      "TIMER()": {
        "notice": "duration allowing for updates in token pairs post-creation"
      },
      "addTokenPair(address,address,uint32)": {
        "notice": "Adds new token pair than can be bridged"
      },
      "batchAddTokenPair(address[],address[],uint32)": {
        "notice": "Adds a new set of token pairs than can be bridged"
      },
      "enrollRemoteRouter(uint32,bytes32)": {
        "notice": "Register the address of a Router contract for the same Application on a remote chain"
      },
      "enrollRemoteRouters(uint32[],bytes32[])": {
        "notice": "Batch version of `enrollRemoteRouter`"
      },
      "handle(uint32,bytes32,bytes)": {
        "notice": "Handles an incoming message"
      },
      "pause()": {
        "notice": "Pauses the cross chain bridge"
      },
      "quoteTokenTransferFee(uint32,address,uint256,address)": {
        "notice": "Fetch the amount that needs to be used as a fee in order to to pay for the gas of the transfer on the destination domain."
      },
      "routers(uint32)": {
        "notice": "Returns the address of the Router contract for the given domain"
      },
      "setHook(address)": {
        "notice": "Sets the address of the application's custom hook."
      },
      "setInterchainSecurityModule(address)": {
        "notice": "Sets the address of the application's custom interchain security module."
      },
      "transferTokens(uint32,address,uint256)": {
        "notice": "Transfer tokens to a recipient in the destination domain. The recipient of the tokens in the destination domain is the same as msg.sender in this context."
      },
      "transferTokensToRecipient(uint32,address,uint256,address)": {
        "notice": "Transfer tokens to a recipient in the destination domain"
      },
      "unenrollRemoteRouter(uint32)": {
        "notice": "Unregister the domain"
      },
      "unenrollRemoteRouters(uint32[])": {
        "notice": "Batch version of `unenrollRemoteRouter`"
      },
      "unpause()": {
        "notice": "Unpauses the cross chain bridge"
      }
    },
    "version": 1
  },
  "storageLayout": {
    "storage": [
      {
        "astId": 2390,
        "contract": "contracts/cross-chain/ToucanCrosschainMessenger.sol:ToucanCrosschainMessenger",
        "label": "_initialized",
        "offset": 0,
        "slot": "0",
        "type": "t_uint8"
      },
      {
        "astId": 2393,
        "contract": "contracts/cross-chain/ToucanCrosschainMessenger.sol:ToucanCrosschainMessenger",
        "label": "_initializing",
        "offset": 1,
        "slot": "0",
        "type": "t_bool"
      },
      {
        "astId": 5494,
        "contract": "contracts/cross-chain/ToucanCrosschainMessenger.sol:ToucanCrosschainMessenger",
        "label": "__gap",
        "offset": 0,
        "slot": "1",
        "type": "t_array(t_uint256)50_storage"
      },
      {
        "astId": 2682,
        "contract": "contracts/cross-chain/ToucanCrosschainMessenger.sol:ToucanCrosschainMessenger",
        "label": "_paused",
        "offset": 0,
        "slot": "51",
        "type": "t_bool"
      },
      {
        "astId": 2771,
        "contract": "contracts/cross-chain/ToucanCrosschainMessenger.sol:ToucanCrosschainMessenger",
        "label": "__gap",
        "offset": 0,
        "slot": "52",
        "type": "t_array(t_uint256)49_storage"
      },
      {
        "astId": 2372,
        "contract": "contracts/cross-chain/ToucanCrosschainMessenger.sol:ToucanCrosschainMessenger",
        "label": "__gap",
        "offset": 0,
        "slot": "101",
        "type": "t_array(t_uint256)50_storage"
      },
      {
        "astId": 2660,
        "contract": "contracts/cross-chain/ToucanCrosschainMessenger.sol:ToucanCrosschainMessenger",
        "label": "__gap",
        "offset": 0,
        "slot": "151",
        "type": "t_array(t_uint256)50_storage"
      },
      {
        "astId": 5801,
        "contract": "contracts/cross-chain/ToucanCrosschainMessenger.sol:ToucanCrosschainMessenger",
        "label": "__gap",
        "offset": 0,
        "slot": "201",
        "type": "t_array(t_uint256)50_storage"
      },
      {
        "astId": 1497,
        "contract": "contracts/cross-chain/ToucanCrosschainMessenger.sol:ToucanCrosschainMessenger",
        "label": "_roles",
        "offset": 0,
        "slot": "251",
        "type": "t_mapping(t_bytes32,t_struct(RoleData)1492_storage)"
      },
      {
        "astId": 1796,
        "contract": "contracts/cross-chain/ToucanCrosschainMessenger.sol:ToucanCrosschainMessenger",
        "label": "__gap",
        "offset": 0,
        "slot": "252",
        "type": "t_array(t_uint256)49_storage"
      },
      {
        "astId": 1881,
        "contract": "contracts/cross-chain/ToucanCrosschainMessenger.sol:ToucanCrosschainMessenger",
        "label": "_owner",
        "offset": 0,
        "slot": "301",
        "type": "t_address"
      },
      {
        "astId": 1993,
        "contract": "contracts/cross-chain/ToucanCrosschainMessenger.sol:ToucanCrosschainMessenger",
        "label": "__gap",
        "offset": 0,
        "slot": "302",
        "type": "t_array(t_uint256)49_storage"
      },
      {
        "astId": 26,
        "contract": "contracts/cross-chain/ToucanCrosschainMessenger.sol:ToucanCrosschainMessenger",
        "label": "hook",
        "offset": 0,
        "slot": "351",
        "type": "t_contract(IPostDispatchHook)912"
      },
      {
        "astId": 29,
        "contract": "contracts/cross-chain/ToucanCrosschainMessenger.sol:ToucanCrosschainMessenger",
        "label": "interchainSecurityModule",
        "offset": 0,
        "slot": "352",
        "type": "t_contract(IInterchainSecurityModule)681"
      },
      {
        "astId": 33,
        "contract": "contracts/cross-chain/ToucanCrosschainMessenger.sol:ToucanCrosschainMessenger",
        "label": "__GAP",
        "offset": 0,
        "slot": "353",
        "type": "t_array(t_uint256)48_storage"
      },
      {
        "astId": 296,
        "contract": "contracts/cross-chain/ToucanCrosschainMessenger.sol:ToucanCrosschainMessenger",
        "label": "_routers",
        "offset": 0,
        "slot": "401",
        "type": "t_struct(UintToBytes32Map)928_storage"
      },
      {
        "astId": 300,
        "contract": "contracts/cross-chain/ToucanCrosschainMessenger.sol:ToucanCrosschainMessenger",
        "label": "__GAP",
        "offset": 0,
        "slot": "404",
        "type": "t_array(t_uint256)48_storage"
      },
      {
        "astId": 18124,
        "contract": "contracts/cross-chain/ToucanCrosschainMessenger.sol:ToucanCrosschainMessenger",
        "label": "nonce",
        "offset": 0,
        "slot": "452",
        "type": "t_uint256"
      },
      {
        "astId": 18126,
        "contract": "contracts/cross-chain/ToucanCrosschainMessenger.sol:ToucanCrosschainMessenger",
        "label": "DEPRECATED_DOMAIN_SEPARATOR",
        "offset": 0,
        "slot": "453",
        "type": "t_bytes32"
      },
      {
        "astId": 18132,
        "contract": "contracts/cross-chain/ToucanCrosschainMessenger.sol:ToucanCrosschainMessenger",
        "label": "requests",
        "offset": 0,
        "slot": "454",
        "type": "t_mapping(t_bytes32,t_struct(BridgeRequest)18121_storage)"
      },
      {
        "astId": 18140,
        "contract": "contracts/cross-chain/ToucanCrosschainMessenger.sol:ToucanCrosschainMessenger",
        "label": "remoteTokens_",
        "offset": 0,
        "slot": "455",
        "type": "t_mapping(t_address,t_mapping(t_uint32,t_struct(RemoteTokenInformation)18103_storage))"
      }
    ],
    "types": {
      "t_address": {
        "encoding": "inplace",
        "label": "address",
        "numberOfBytes": "20"
      },
      "t_array(t_bytes32)dyn_storage": {
        "base": "t_bytes32",
        "encoding": "dynamic_array",
        "label": "bytes32[]",
        "numberOfBytes": "32"
      },
      "t_array(t_uint256)48_storage": {
        "base": "t_uint256",
        "encoding": "inplace",
        "label": "uint256[48]",
        "numberOfBytes": "1536"
      },
      "t_array(t_uint256)49_storage": {
        "base": "t_uint256",
        "encoding": "inplace",
        "label": "uint256[49]",
        "numberOfBytes": "1568"
      },
      "t_array(t_uint256)50_storage": {
        "base": "t_uint256",
        "encoding": "inplace",
        "label": "uint256[50]",
        "numberOfBytes": "1600"
      },
      "t_bool": {
        "encoding": "inplace",
        "label": "bool",
        "numberOfBytes": "1"
      },
      "t_bytes32": {
        "encoding": "inplace",
        "label": "bytes32",
        "numberOfBytes": "32"
      },
      "t_contract(IInterchainSecurityModule)681": {
        "encoding": "inplace",
        "label": "contract IInterchainSecurityModule",
        "numberOfBytes": "20"
      },
      "t_contract(IPostDispatchHook)912": {
        "encoding": "inplace",
        "label": "contract IPostDispatchHook",
        "numberOfBytes": "20"
      },
      "t_enum(BridgeRequestType)18108": {
        "encoding": "inplace",
        "label": "enum ToucanCrosschainMessengerStorageV1.BridgeRequestType",
        "numberOfBytes": "1"
      },
      "t_enum(MessageTypes)18110": {
        "encoding": "inplace",
        "label": "enum ToucanCrosschainMessengerStorageV1.MessageTypes",
        "numberOfBytes": "1"
      },
      "t_mapping(t_address,t_bool)": {
        "encoding": "mapping",
        "key": "t_address",
        "label": "mapping(address => bool)",
        "numberOfBytes": "32",
        "value": "t_bool"
      },
      "t_mapping(t_address,t_mapping(t_uint32,t_struct(RemoteTokenInformation)18103_storage))": {
        "encoding": "mapping",
        "key": "t_address",
        "label": "mapping(address => mapping(uint32 => struct RemoteTokenInformation))",
        "numberOfBytes": "32",
        "value": "t_mapping(t_uint32,t_struct(RemoteTokenInformation)18103_storage)"
      },
      "t_mapping(t_bytes32,t_bytes32)": {
        "encoding": "mapping",
        "key": "t_bytes32",
        "label": "mapping(bytes32 => bytes32)",
        "numberOfBytes": "32",
        "value": "t_bytes32"
      },
      "t_mapping(t_bytes32,t_struct(BridgeRequest)18121_storage)": {
        "encoding": "mapping",
        "key": "t_bytes32",
        "label": "mapping(bytes32 => struct ToucanCrosschainMessengerStorageV1.BridgeRequest)",
        "numberOfBytes": "32",
        "value": "t_struct(BridgeRequest)18121_storage"
      },
      "t_mapping(t_bytes32,t_struct(RoleData)1492_storage)": {
        "encoding": "mapping",
        "key": "t_bytes32",
        "label": "mapping(bytes32 => struct AccessControlUpgradeable.RoleData)",
        "numberOfBytes": "32",
        "value": "t_struct(RoleData)1492_storage"
      },
      "t_mapping(t_bytes32,t_uint256)": {
        "encoding": "mapping",
        "key": "t_bytes32",
        "label": "mapping(bytes32 => uint256)",
        "numberOfBytes": "32",
        "value": "t_uint256"
      },
      "t_mapping(t_uint32,t_struct(RemoteTokenInformation)18103_storage)": {
        "encoding": "mapping",
        "key": "t_uint32",
        "label": "mapping(uint32 => struct RemoteTokenInformation)",
        "numberOfBytes": "32",
        "value": "t_struct(RemoteTokenInformation)18103_storage"
      },
      "t_struct(BridgeRequest)18121_storage": {
        "encoding": "inplace",
        "label": "struct ToucanCrosschainMessengerStorageV1.BridgeRequest",
        "members": [
          {
            "astId": 18112,
            "contract": "contracts/cross-chain/ToucanCrosschainMessenger.sol:ToucanCrosschainMessenger",
            "label": "isReverted",
            "offset": 0,
            "slot": "0",
            "type": "t_bool"
          },
          {
            "astId": 18114,
            "contract": "contracts/cross-chain/ToucanCrosschainMessenger.sol:ToucanCrosschainMessenger",
            "label": "timestamp",
            "offset": 0,
            "slot": "1",
            "type": "t_uint256"
          },
          {
            "astId": 18117,
            "contract": "contracts/cross-chain/ToucanCrosschainMessenger.sol:ToucanCrosschainMessenger",
            "label": "requestType",
            "offset": 0,
            "slot": "2",
            "type": "t_enum(BridgeRequestType)18108"
          },
          {
            "astId": 18120,
            "contract": "contracts/cross-chain/ToucanCrosschainMessenger.sol:ToucanCrosschainMessenger",
            "label": "messageType",
            "offset": 1,
            "slot": "2",
            "type": "t_enum(MessageTypes)18110"
          }
        ],
        "numberOfBytes": "96"
      },
      "t_struct(Bytes32Set)8740_storage": {
        "encoding": "inplace",
        "label": "struct EnumerableSet.Bytes32Set",
        "members": [
          {
            "astId": 8739,
            "contract": "contracts/cross-chain/ToucanCrosschainMessenger.sol:ToucanCrosschainMessenger",
            "label": "_inner",
            "offset": 0,
            "slot": "0",
            "type": "t_struct(Set)8546_storage"
          }
        ],
        "numberOfBytes": "64"
      },
      "t_struct(Bytes32ToBytes32Map)7822_storage": {
        "encoding": "inplace",
        "label": "struct EnumerableMap.Bytes32ToBytes32Map",
        "members": [
          {
            "astId": 7817,
            "contract": "contracts/cross-chain/ToucanCrosschainMessenger.sol:ToucanCrosschainMessenger",
            "label": "_keys",
            "offset": 0,
            "slot": "0",
            "type": "t_struct(Bytes32Set)8740_storage"
          },
          {
            "astId": 7821,
            "contract": "contracts/cross-chain/ToucanCrosschainMessenger.sol:ToucanCrosschainMessenger",
            "label": "_values",
            "offset": 0,
            "slot": "2",
            "type": "t_mapping(t_bytes32,t_bytes32)"
          }
        ],
        "numberOfBytes": "96"
      },
      "t_struct(RemoteTokenInformation)18103_storage": {
        "encoding": "inplace",
        "label": "struct RemoteTokenInformation",
        "members": [
          {
            "astId": 18099,
            "contract": "contracts/cross-chain/ToucanCrosschainMessenger.sol:ToucanCrosschainMessenger",
            "label": "tokenAddress",
            "offset": 0,
            "slot": "0",
            "type": "t_address"
          },
          {
            "astId": 18102,
            "contract": "contracts/cross-chain/ToucanCrosschainMessenger.sol:ToucanCrosschainMessenger",
            "label": "timer",
            "offset": 0,
            "slot": "1",
            "type": "t_uint256"
          }
        ],
        "numberOfBytes": "64"
      },
      "t_struct(RoleData)1492_storage": {
        "encoding": "inplace",
        "label": "struct AccessControlUpgradeable.RoleData",
        "members": [
          {
            "astId": 1489,
            "contract": "contracts/cross-chain/ToucanCrosschainMessenger.sol:ToucanCrosschainMessenger",
            "label": "members",
            "offset": 0,
            "slot": "0",
            "type": "t_mapping(t_address,t_bool)"
          },
          {
            "astId": 1491,
            "contract": "contracts/cross-chain/ToucanCrosschainMessenger.sol:ToucanCrosschainMessenger",
            "label": "adminRole",
            "offset": 0,
            "slot": "1",
            "type": "t_bytes32"
          }
        ],
        "numberOfBytes": "64"
      },
      "t_struct(Set)8546_storage": {
        "encoding": "inplace",
        "label": "struct EnumerableSet.Set",
        "members": [
          {
            "astId": 8541,
            "contract": "contracts/cross-chain/ToucanCrosschainMessenger.sol:ToucanCrosschainMessenger",
            "label": "_values",
            "offset": 0,
            "slot": "0",
            "type": "t_array(t_bytes32)dyn_storage"
          },
          {
            "astId": 8545,
            "contract": "contracts/cross-chain/ToucanCrosschainMessenger.sol:ToucanCrosschainMessenger",
            "label": "_indexes",
            "offset": 0,
            "slot": "1",
            "type": "t_mapping(t_bytes32,t_uint256)"
          }
        ],
        "numberOfBytes": "64"
      },
      "t_struct(UintToBytes32Map)928_storage": {
        "encoding": "inplace",
        "label": "struct EnumerableMapExtended.UintToBytes32Map",
        "members": [
          {
            "astId": 927,
            "contract": "contracts/cross-chain/ToucanCrosschainMessenger.sol:ToucanCrosschainMessenger",
            "label": "_inner",
            "offset": 0,
            "slot": "0",
            "type": "t_struct(Bytes32ToBytes32Map)7822_storage"
          }
        ],
        "numberOfBytes": "96"
      },
      "t_uint256": {
        "encoding": "inplace",
        "label": "uint256",
        "numberOfBytes": "32"
      },
      "t_uint32": {
        "encoding": "inplace",
        "label": "uint32",
        "numberOfBytes": "4"
      },
      "t_uint8": {
        "encoding": "inplace",
        "label": "uint8",
        "numberOfBytes": "1"
      }
    }
  }
}