{
  "address": "0xD46eE8815F141749834AF0Df21E744459eFEc75F",
  "abi": [
    {
      "inputs": [],
      "stateMutability": "nonpayable",
      "type": "constructor"
    },
    {
      "anonymous": false,
      "inputs": [
        {
          "indexed": true,
          "internalType": "address",
          "name": "owner",
          "type": "address"
        },
        {
          "indexed": true,
          "internalType": "address",
          "name": "spender",
          "type": "address"
        },
        {
          "indexed": false,
          "internalType": "uint256",
          "name": "value",
          "type": "uint256"
        }
      ],
      "name": "Approval",
      "type": "event"
    },
    {
      "anonymous": false,
      "inputs": [
        {
          "indexed": false,
          "internalType": "address",
          "name": "bridger",
          "type": "address"
        },
        {
          "indexed": false,
          "internalType": "uint256",
          "name": "fees",
          "type": "uint256"
        }
      ],
      "name": "FeeBurnt",
      "type": "event"
    },
    {
      "anonymous": false,
      "inputs": [
        {
          "indexed": false,
          "internalType": "address",
          "name": "bridger",
          "type": "address"
        },
        {
          "indexed": false,
          "internalType": "uint256",
          "name": "fees",
          "type": "uint256"
        }
      ],
      "name": "FeePaid",
      "type": "event"
    },
    {
      "anonymous": false,
      "inputs": [
        {
          "indexed": false,
          "internalType": "uint8",
          "name": "version",
          "type": "uint8"
        }
      ],
      "name": "Initialized",
      "type": "event"
    },
    {
      "anonymous": false,
      "inputs": [
        {
          "indexed": false,
          "internalType": "address",
          "name": "sender",
          "type": "address"
        },
        {
          "indexed": false,
          "internalType": "uint256",
          "name": "amount",
          "type": "uint256"
        },
        {
          "indexed": false,
          "internalType": "uint256",
          "name": "eventId",
          "type": "uint256"
        }
      ],
      "name": "Retired",
      "type": "event"
    },
    {
      "anonymous": false,
      "inputs": [
        {
          "indexed": true,
          "internalType": "address",
          "name": "from",
          "type": "address"
        },
        {
          "indexed": true,
          "internalType": "address",
          "name": "to",
          "type": "address"
        },
        {
          "indexed": false,
          "internalType": "uint256",
          "name": "value",
          "type": "uint256"
        }
      ],
      "name": "Transfer",
      "type": "event"
    },
    {
      "inputs": [
        {
          "internalType": "address",
          "name": "owner",
          "type": "address"
        },
        {
          "internalType": "address",
          "name": "spender",
          "type": "address"
        }
      ],
      "name": "allowance",
      "outputs": [
        {
          "internalType": "uint256",
          "name": "",
          "type": "uint256"
        }
      ],
      "stateMutability": "view",
      "type": "function"
    },
    {
      "inputs": [
        {
          "internalType": "address",
          "name": "spender",
          "type": "address"
        },
        {
          "internalType": "uint256",
          "name": "amount",
          "type": "uint256"
        }
      ],
      "name": "approve",
      "outputs": [
        {
          "internalType": "bool",
          "name": "",
          "type": "bool"
        }
      ],
      "stateMutability": "nonpayable",
      "type": "function"
    },
    {
      "inputs": [
        {
          "internalType": "address",
          "name": "account",
          "type": "address"
        }
      ],
      "name": "balanceOf",
      "outputs": [
        {
          "internalType": "uint256",
          "name": "",
          "type": "uint256"
        }
      ],
      "stateMutability": "view",
      "type": "function"
    },
    {
      "inputs": [
        {
          "internalType": "address",
          "name": "account",
          "type": "address"
        },
        {
          "internalType": "uint256",
          "name": "amount",
          "type": "uint256"
        }
      ],
      "name": "bridgeBurn",
      "outputs": [],
      "stateMutability": "nonpayable",
      "type": "function"
    },
    {
      "inputs": [
        {
          "internalType": "address",
          "name": "account",
          "type": "address"
        },
        {
          "internalType": "uint256",
          "name": "amount",
          "type": "uint256"
        }
      ],
      "name": "bridgeMint",
      "outputs": [],
      "stateMutability": "nonpayable",
      "type": "function"
    },
    {
      "inputs": [
        {
          "internalType": "address",
          "name": "account",
          "type": "address"
        },
        {
          "internalType": "uint256",
          "name": "amount",
          "type": "uint256"
        }
      ],
      "name": "burnFrom",
      "outputs": [],
      "stateMutability": "nonpayable",
      "type": "function"
    },
    {
      "inputs": [],
      "name": "contractRegistry",
      "outputs": [
        {
          "internalType": "address",
          "name": "",
          "type": "address"
        }
      ],
      "stateMutability": "view",
      "type": "function"
    },
    {
      "inputs": [],
      "name": "decimals",
      "outputs": [
        {
          "internalType": "uint8",
          "name": "",
          "type": "uint8"
        }
      ],
      "stateMutability": "view",
      "type": "function"
    },
    {
      "inputs": [
        {
          "internalType": "address",
          "name": "spender",
          "type": "address"
        },
        {
          "internalType": "uint256",
          "name": "subtractedValue",
          "type": "uint256"
        }
      ],
      "name": "decreaseAllowance",
      "outputs": [
        {
          "internalType": "bool",
          "name": "",
          "type": "bool"
        }
      ],
      "stateMutability": "nonpayable",
      "type": "function"
    },
    {
      "inputs": [
        {
          "internalType": "uint256",
          "name": "tokenId",
          "type": "uint256"
        }
      ],
      "name": "defractionalize",
      "outputs": [],
      "stateMutability": "nonpayable",
      "type": "function"
    },
    {
      "inputs": [],
      "name": "getAttributes",
      "outputs": [
        {
          "components": [
            {
              "internalType": "string",
              "name": "projectId",
              "type": "string"
            },
            {
              "internalType": "string",
              "name": "standard",
              "type": "string"
            },
            {
              "internalType": "string",
              "name": "methodology",
              "type": "string"
            },
            {
              "internalType": "string",
              "name": "region",
              "type": "string"
            },
            {
              "internalType": "string",
              "name": "storageMethod",
              "type": "string"
            },
            {
              "internalType": "string",
              "name": "method",
              "type": "string"
            },
            {
              "internalType": "string",
              "name": "emissionType",
              "type": "string"
            },
            {
              "internalType": "string",
              "name": "category",
              "type": "string"
            },
            {
              "internalType": "string",
              "name": "uri",
              "type": "string"
            },
            {
              "internalType": "address",
              "name": "beneficiary",
              "type": "address"
            }
          ],
          "internalType": "struct ProjectData",
          "name": "",
          "type": "tuple"
        },
        {
          "components": [
            {
              "internalType": "string",
              "name": "name",
              "type": "string"
            },
            {
              "internalType": "uint64",
              "name": "startTime",
              "type": "uint64"
            },
            {
              "internalType": "uint64",
              "name": "endTime",
              "type": "uint64"
            },
            {
              "internalType": "uint256",
              "name": "projectTokenId",
              "type": "uint256"
            },
            {
              "internalType": "uint64",
              "name": "totalVintageQuantity",
              "type": "uint64"
            },
            {
              "internalType": "bool",
              "name": "isCorsiaCompliant",
              "type": "bool"
            },
            {
              "internalType": "bool",
              "name": "isCCPcompliant",
              "type": "bool"
            },
            {
              "internalType": "string",
              "name": "coBenefits",
              "type": "string"
            },
            {
              "internalType": "string",
              "name": "correspAdjustment",
              "type": "string"
            },
            {
              "internalType": "string",
              "name": "additionalCertification",
              "type": "string"
            },
            {
              "internalType": "string",
              "name": "uri",
              "type": "string"
            }
          ],
          "internalType": "struct VintageData",
          "name": "",
          "type": "tuple"
        }
      ],
      "stateMutability": "view",
      "type": "function"
    },
    {
      "inputs": [],
      "name": "getDepositCap",
      "outputs": [
        {
          "internalType": "uint256",
          "name": "",
          "type": "uint256"
        }
      ],
      "stateMutability": "view",
      "type": "function"
    },
    {
      "inputs": [],
      "name": "getGlobalProjectVintageIdentifiers",
      "outputs": [
        {
          "internalType": "string",
          "name": "",
          "type": "string"
        },
        {
          "internalType": "string",
          "name": "",
          "type": "string"
        }
      ],
      "stateMutability": "view",
      "type": "function"
    },
    {
      "inputs": [],
      "name": "getRemaining",
      "outputs": [
        {
          "internalType": "uint256",
          "name": "remaining",
          "type": "uint256"
        }
      ],
      "stateMutability": "view",
      "type": "function"
    },
    {
      "inputs": [
        {
          "internalType": "address",
          "name": "spender",
          "type": "address"
        },
        {
          "internalType": "uint256",
          "name": "addedValue",
          "type": "uint256"
        }
      ],
      "name": "increaseAllowance",
      "outputs": [
        {
          "internalType": "bool",
          "name": "",
          "type": "bool"
        }
      ],
      "stateMutability": "nonpayable",
      "type": "function"
    },
    {
      "inputs": [
        {
          "internalType": "string",
          "name": "name_",
          "type": "string"
        },
        {
          "internalType": "string",
          "name": "symbol_",
          "type": "string"
        },
        {
          "internalType": "uint256",
          "name": "_projectVintageTokenId",
          "type": "uint256"
        },
        {
          "internalType": "address",
          "name": "_contractRegistry",
          "type": "address"
        }
      ],
      "name": "initialize",
      "outputs": [],
      "stateMutability": "nonpayable",
      "type": "function"
    },
    {
      "inputs": [
        {
          "internalType": "string",
          "name": "retiringEntityString",
          "type": "string"
        },
        {
          "internalType": "address",
          "name": "beneficiary",
          "type": "address"
        },
        {
          "internalType": "string",
          "name": "beneficiaryString",
          "type": "string"
        },
        {
          "internalType": "string",
          "name": "retirementMessage",
          "type": "string"
        },
        {
          "internalType": "uint256",
          "name": "amount",
          "type": "uint256"
        }
      ],
      "name": "mintCertificateLegacy",
      "outputs": [],
      "stateMutability": "nonpayable",
      "type": "function"
    },
    {
      "inputs": [
        {
          "internalType": "address",
          "name": "",
          "type": "address"
        }
      ],
      "name": "minterToId",
      "outputs": [
        {
          "internalType": "uint256",
          "name": "",
          "type": "uint256"
        }
      ],
      "stateMutability": "view",
      "type": "function"
    },
    {
      "inputs": [],
      "name": "name",
      "outputs": [
        {
          "internalType": "string",
          "name": "",
          "type": "string"
        }
      ],
      "stateMutability": "view",
      "type": "function"
    },
    {
      "inputs": [
        {
          "internalType": "address",
          "name": "",
          "type": "address"
        },
        {
          "internalType": "address",
          "name": "from",
          "type": "address"
        },
        {
          "internalType": "uint256",
          "name": "tokenId",
          "type": "uint256"
        },
        {
          "internalType": "bytes",
          "name": "",
          "type": "bytes"
        }
      ],
      "name": "onERC721Received",
      "outputs": [
        {
          "internalType": "bytes4",
          "name": "",
          "type": "bytes4"
        }
      ],
      "stateMutability": "nonpayable",
      "type": "function"
    },
    {
      "inputs": [],
      "name": "projectVintageTokenId",
      "outputs": [
        {
          "internalType": "uint256",
          "name": "",
          "type": "uint256"
        }
      ],
      "stateMutability": "view",
      "type": "function"
    },
    {
      "inputs": [
        {
          "internalType": "uint256",
          "name": "amount",
          "type": "uint256"
        }
      ],
      "name": "retire",
      "outputs": [
        {
          "internalType": "uint256",
          "name": "retirementEventId",
          "type": "uint256"
        }
      ],
      "stateMutability": "nonpayable",
      "type": "function"
    },
    {
      "inputs": [
        {
          "internalType": "string",
          "name": "retiringEntityString",
          "type": "string"
        },
        {
          "internalType": "address",
          "name": "beneficiary",
          "type": "address"
        },
        {
          "internalType": "string",
          "name": "beneficiaryString",
          "type": "string"
        },
        {
          "internalType": "string",
          "name": "retirementMessage",
          "type": "string"
        },
        {
          "internalType": "uint256",
          "name": "amount",
          "type": "uint256"
        }
      ],
      "name": "retireAndMintCertificate",
      "outputs": [],
      "stateMutability": "nonpayable",
      "type": "function"
    },
    {
      "inputs": [
        {
          "internalType": "address",
          "name": "account",
          "type": "address"
        },
        {
          "internalType": "uint256",
          "name": "amount",
          "type": "uint256"
        }
      ],
      "name": "retireFrom",
      "outputs": [
        {
          "internalType": "uint256",
          "name": "retirementEventId",
          "type": "uint256"
        }
      ],
      "stateMutability": "nonpayable",
      "type": "function"
    },
    {
      "inputs": [
        {
          "internalType": "address",
          "name": "",
          "type": "address"
        }
      ],
      "name": "retiredAmount",
      "outputs": [
        {
          "internalType": "uint256",
          "name": "",
          "type": "uint256"
        }
      ],
      "stateMutability": "view",
      "type": "function"
    },
    {
      "inputs": [],
      "name": "symbol",
      "outputs": [
        {
          "internalType": "string",
          "name": "",
          "type": "string"
        }
      ],
      "stateMutability": "view",
      "type": "function"
    },
    {
      "inputs": [],
      "name": "totalSupply",
      "outputs": [
        {
          "internalType": "uint256",
          "name": "",
          "type": "uint256"
        }
      ],
      "stateMutability": "view",
      "type": "function"
    },
    {
      "inputs": [
        {
          "internalType": "address",
          "name": "recipient",
          "type": "address"
        },
        {
          "internalType": "uint256",
          "name": "amount",
          "type": "uint256"
        }
      ],
      "name": "transfer",
      "outputs": [
        {
          "internalType": "bool",
          "name": "",
          "type": "bool"
        }
      ],
      "stateMutability": "nonpayable",
      "type": "function"
    },
    {
      "inputs": [
        {
          "internalType": "address",
          "name": "sender",
          "type": "address"
        },
        {
          "internalType": "address",
          "name": "recipient",
          "type": "address"
        },
        {
          "internalType": "uint256",
          "name": "amount",
          "type": "uint256"
        }
      ],
      "name": "transferFrom",
      "outputs": [
        {
          "internalType": "bool",
          "name": "",
          "type": "bool"
        }
      ],
      "stateMutability": "nonpayable",
      "type": "function"
    },
    {
      "inputs": [],
      "name": "version",
      "outputs": [
        {
          "internalType": "string",
          "name": "",
          "type": "string"
        }
      ],
      "stateMutability": "pure",
      "type": "function"
    }
  ],
  "numDeployments": 5,
  "solcInputHash": "21faed46d3fb0170cb108bb6c8349b12",
  "bytecode": "0x60806040523480156200001157600080fd5b506200001c62000022565b62000152565b6200002e60ff62000031565b50565b60008054610100900460ff1615620000ca578160ff1660011480156200006a575062000068306200014360201b62001f281760201c565b155b620000c25760405162461bcd60e51b815260206004820152602e602482015260008051602062003d6d83398151915260448201526d191e481a5b9a5d1a585b1a5e995960921b60648201526084015b60405180910390fd5b506000919050565b60005460ff808416911610620001295760405162461bcd60e51b815260206004820152602e602482015260008051602062003d6d83398151915260448201526d191e481a5b9a5d1a585b1a5e995960921b6064820152608401620000b9565b506000805460ff191660ff92909216919091179055600190565b6001600160a01b03163b151590565b613c0b80620001626000396000f3fe608060405234801561001057600080fd5b50600436106101da5760003560e01c806370a0823111610104578063a457c2d7116100a2578063d6a022b811610071578063d6a022b814610437578063dd62ed3e1461043f578063e819426c14610452578063e9d5c8d51461045b57600080fd5b8063a457c2d7146103d3578063a9059cbb146103e6578063abf410e5146103f9578063bd3a13f61461042457600080fd5b806379cc6790116100de57806379cc6790146103855780638c2a993e1461039857806395d89b41146103ab578063a19c4bd8146103b357600080fd5b806370a082311461033657806374f4f5471461035f5780637903c7d01461037257600080fd5b806323b872dd1161017c578063395093511161014b57806339509351146102d957806354fd4d50146102ec57806364c5a4031461030d5780636b24ffd61461032357600080fd5b806323b872dd146102915780632ef29290146102a4578063313ce567146102b75780633790cf57146102c657600080fd5b8063150b7a02116101b8578063150b7a0214610232578063152583de1461025e57806318160ddd146102745780632087107e1461027c57600080fd5b806301a598da146101df57806306fdde03146101fa578063095ea7b31461020f575b600080fd5b6101e761047b565b6040519081526020015b60405180910390f35b6102026104d4565b6040516101f19190612d89565b61022261021d366004612db4565b61050f565b60405190151581526020016101f1565b610245610240366004612e28565b610529565b6040516001600160e01b031990911681526020016101f1565b610266610b9b565b6040516101f1929190612faa565b6035546101e7565b61028f61028a3660046130e9565b610d94565b005b61022261029f36600461319e565b610ef7565b61028f6102b23660046130e9565b61102f565b604051601281526020016101f1565b6101e76102d43660046131df565b61112a565b6102226102e7366004612db4565b61123c565b6040805180820190915260058152640312e342e360dc1b6020820152610202565b61031561125e565b6040516101f19291906131f8565b6101e7610331366004612db4565b611288565b6101e761034436600461321d565b6001600160a01b031660009081526033602052604090205490565b61028f61036d366004612db4565b6113a6565b61028f6103803660046131df565b6115c5565b61028f610393366004612db4565b611935565b61028f6103a6366004612db4565b611a44565b610202611c5b565b6101e76103c136600461321d565b60686020526000908152604090205481565b6102226103e1366004612db4565b611c80565b6102226103f4366004612db4565b611d06565b60665461040c906001600160a01b031681565b6040516001600160a01b0390911681526020016101f1565b61028f610432366004613349565b611e3c565b6101e7611ed7565b6101e761044d3660046133c8565b611efd565b6101e760655481565b6101e761046936600461321d565b60676020526000908152604090205481565b6000610485612bc3565b61048d610b9b565b6080810151909250905060006104a56012600a6134fb565b6104b8906001600160401b03841661350a565b9050806000036104cd57600019935050505090565b9392505050565b60608060606104e161125e565b60405191935091506104f99083908390602001613529565b6040516020818303038152906040529250505090565b60003361051d818585611f37565b60019150505b92915050565b600080606660009054906101000a90046001600160a01b03166001600160a01b03166308cca7e36040518163ffffffff1660e01b8152600401602060405180830381865afa15801561057f573d6000803e3d6000fd5b505050506040513d601f19601f820116820180604052508101906105a39190613592565b90506000816001600160a01b0316635c975abb6040518163ffffffff1660e01b8152600401602060405180830381865afa1580156105e5573d6000803e3d6000fd5b505050506040513d601f19601f8201168201806040525081019061060991906135bf565b905080156106325760405162461bcd60e51b8152600401610629906135da565b60405180910390fd5b61063b3361205c565b61069e5760405162461bcd60e51b815260206004820152602e60248201527f4572726f723a2042617463682d4e4654206e6f742066726f6d2077686974656c60448201526d1a5cdd19590818dbdb9d1c9858dd60921b6064820152608401610629565b60405163dff35e8360e01b81526004810187905260009081908190339063dff35e8390602401606060405180830381865afa1580156106e1573d6000803e3d6000fd5b505050506040513d601f19601f8201168201806040525081019061070591906135ff565b925092509250606554831461075c5760405162461bcd60e51b815260206004820152601760248201527f4572726f723a206e6f6e2d6d61746368696e67204e46540000000000000000006044820152606401610629565b60028160028111156107705761077061363c565b146107bd5760405162461bcd60e51b815260206004820152601a60248201527f42617463684e4654206e6f742079657420636f6e6669726d65640000000000006044820152606401610629565b6001600160a01b038a1660009081526067602052604090208990556107e46012600a6134fb565b6107ee908361350a565b9150816107f9611ed7565b10156108665760405162461bcd60e51b815260206004820152603660248201527f4572726f723a205175616e7469747920696e20626174636820697320686967686044820152756572207468616e20746f74616c2076696e746167657360501b6064820152608401610629565b606654604080516308cca7e360e01b815290516000926001600160a01b0316916308cca7e39160048083019260209291908290030181865afa1580156108b0573d6000803e3d6000fd5b505050506040513d601f19601f820116820180604052508101906108d49190613592565b90506000816001600160a01b03166380e2d3f06040518163ffffffff1660e01b8152600401602060405180830381865afa158015610916573d6000803e3d6000fd5b505050506040513d601f19601f8201168201806040525081019061093a9190613592565b90506001600160a01b038116610959576109548c856120f7565b610b82565b6040516379bcd2d160e11b81526004810185905260009081906001600160a01b0385169063f379a5a2906024016040805180830381865afa1580156109a2573d6000803e3d6000fd5b505050506040513d601f19601f820116820180604052508101906109c69190613652565b90925090506109de8e6109d98489613676565b6120f7565b6000846001600160a01b031663581cd1106040518163ffffffff1660e01b8152600401602060405180830381865afa158015610a1e573d6000803e3d6000fd5b505050506040513d601f19601f82011682018060405250810190610a429190613592565b90506001600160a01b03811615801590610a5c5750600082115b15610b2057610a6b8284613676565b9250610a7784846120f7565b610a8181836120f7565b7f075a2720282fdf622141dae0b048ef90a21a7e57c134c76912d19d006b3b3f6f8f84604051610ac69291906001600160a01b03929092168252602082015260400190565b60405180910390a17fa2f0f5180dc62f2d34c8207f1d18178d31bd0de616f83636434ddf48de0ae6fa8f83604051610b139291906001600160a01b03929092168252602082015260400190565b60405180910390a1610b7e565b8215610b7e57610b3084846120f7565b7f075a2720282fdf622141dae0b048ef90a21a7e57c134c76912d19d006b3b3f6f8f84604051610b759291906001600160a01b03929092168252602082015260400190565b60405180910390a15b5050505b50630a85bd0160e11b9c9b505050505050505050505050565b610ba3612c3c565b610bab612bc3565b606654604080516301157a8360e01b815290516000926001600160a01b0316916301157a839160048083019260209291908290030181865afa158015610bf5573d6000803e3d6000fd5b505050506040513d601f19601f82011682018060405250810190610c199190613592565b90506000606660009054906101000a90046001600160a01b03166001600160a01b031663a0af25606040518163ffffffff1660e01b8152600401602060405180830381865afa158015610c70573d6000803e3d6000fd5b505050506040513d601f19601f82011682018060405250810190610c949190613592565b90506000816001600160a01b03166315bbf0746065546040518263ffffffff1660e01b8152600401610cc891815260200190565b600060405180830381865afa158015610ce5573d6000803e3d6000fd5b505050506040513d6000823e601f3d908101601f19168201604052610d0d91908101906136e9565b90506000836001600160a01b03166347e3168683606001516040518263ffffffff1660e01b8152600401610d4391815260200190565b600060405180830381865afa158015610d60573d6000803e3d6000fd5b505050506040513d6000823e601f3d908101601f19168201604052610d88919081019061384d565b96919550909350505050565b606654604080516308cca7e360e01b815290516000926001600160a01b0316916308cca7e39160048083019260209291908290030181865afa158015610dde573d6000803e3d6000fd5b505050506040513d601f19601f82011682018060405250810190610e029190613592565b90506000816001600160a01b0316635c975abb6040518163ffffffff1660e01b8152600401602060405180830381865afa158015610e44573d6000803e3d6000fd5b505050506040513d601f19601f82011682018060405250810190610e6891906135bf565b90508015610e885760405162461bcd60e51b8152600401610629906135da565b6000610e93846121d6565b60408051600180825281830190925291925060009190602080830190803683370190505090508181600081518110610ecd57610ecd6139f2565b602002602001018181525050610ee98c8c8c8c8c8c8c886122f0565b505050505050505050505050565b6000826001600160a01b038116610f0d57600080fd5b306001600160a01b03821603610f2257600080fd5b606654604080516308cca7e360e01b815290516000926001600160a01b0316916308cca7e39160048083019260209291908290030181865afa158015610f6c573d6000803e3d6000fd5b505050506040513d601f19601f82011682018060405250810190610f909190613592565b90506000816001600160a01b0316635c975abb6040518163ffffffff1660e01b8152600401602060405180830381865afa158015610fd2573d6000803e3d6000fd5b505050506040513d601f19601f82011682018060405250810190610ff691906135bf565b905080156110165760405162461bcd60e51b8152600401610629906135da565b6110218787876124d0565b506001979650505050505050565b606654604080516308cca7e360e01b815290516000926001600160a01b0316916308cca7e39160048083019260209291908290030181865afa158015611079573d6000803e3d6000fd5b505050506040513d601f19601f8201168201806040525081019061109d9190613592565b90506000816001600160a01b0316635c975abb6040518163ffffffff1660e01b8152600401602060405180830381865afa1580156110df573d6000803e3d6000fd5b505050506040513d601f19601f8201168201806040525081019061110391906135bf565b905080156111235760405162461bcd60e51b8152600401610629906135da565b6000610e93845b600080606660009054906101000a90046001600160a01b03166001600160a01b03166308cca7e36040518163ffffffff1660e01b8152600401602060405180830381865afa158015611180573d6000803e3d6000fd5b505050506040513d601f19601f820116820180604052508101906111a49190613592565b90506000816001600160a01b0316635c975abb6040518163ffffffff1660e01b8152600401602060405180830381865afa1580156111e6573d6000803e3d6000fd5b505050506040513d601f19601f8201168201806040525081019061120a91906135bf565b9050801561122a5760405162461bcd60e51b8152600401610629906135da565b61123433856124e9565b949350505050565b60003361051d81858561124f8383611efd565b6112599190613a08565b611f37565b606080611269612c3c565b611271612bc3565b611279610b9b565b90519051909590945092505050565b600080606660009054906101000a90046001600160a01b03166001600160a01b03166308cca7e36040518163ffffffff1660e01b8152600401602060405180830381865afa1580156112de573d6000803e3d6000fd5b505050506040513d601f19601f820116820180604052508101906113029190613592565b90506000816001600160a01b0316635c975abb6040518163ffffffff1660e01b8152600401602060405180830381865afa158015611344573d6000803e3d6000fd5b505050506040513d601f19601f8201168201806040525081019061136891906135bf565b905080156113885760405162461bcd60e51b8152600401610629906135da565b611393853386612716565b61139d85856124e9565b95945050505050565b606654604080516308cca7e360e01b815290516000926001600160a01b0316916308cca7e39160048083019260209291908290030181865afa1580156113f0573d6000803e3d6000fd5b505050506040513d601f19601f820116820180604052508101906114149190613592565b90506000816001600160a01b0316635c975abb6040518163ffffffff1660e01b8152600401602060405180830381865afa158015611456573d6000803e3d6000fd5b505050506040513d601f19601f8201168201806040525081019061147a91906135bf565b9050801561149a5760405162461bcd60e51b8152600401610629906135da565b606654604080516308cca7e360e01b815290516000926001600160a01b0316916308cca7e39160048083019260209291908290030181865afa1580156114e4573d6000803e3d6000fd5b505050506040513d601f19601f820116820180604052508101906115089190613592565b6040516311afe75f60e11b81523360048201529091506000906001600160a01b0383169063235fcebe90602401602060405180830381865afa158015611552573d6000803e3d6000fd5b505050506040513d601f19601f8201168201806040525081019061157691906135bf565b9050806115b35760405162461bcd60e51b815260206004820152600b60248201526a139bdd08185b1b1bddd95960aa1b6044820152606401610629565b6115bd868661278a565b505050505050565b606654604080516308cca7e360e01b815290516000926001600160a01b0316916308cca7e39160048083019260209291908290030181865afa15801561160f573d6000803e3d6000fd5b505050506040513d601f19601f820116820180604052508101906116339190613592565b90506000816001600160a01b0316635c975abb6040518163ffffffff1660e01b8152600401602060405180830381865afa158015611675573d6000803e3d6000fd5b505050506040513d601f19601f8201168201806040525081019061169991906135bf565b905080156116b95760405162461bcd60e51b8152600401610629906135da565b606654604080516308cca7e360e01b815290516000926001600160a01b0316916308cca7e39160048083019260209291908290030181865afa158015611703573d6000803e3d6000fd5b505050506040513d601f19601f820116820180604052508101906117279190613592565b90506000816001600160a01b0316638da5cb5b6040518163ffffffff1660e01b8152600401602060405180830381865afa158015611769573d6000803e3d6000fd5b505050506040513d601f19601f8201168201806040525081019061178d9190613592565b90506001600160a01b03811633146117db5760405162461bcd60e51b81526020600482015260116024820152702737ba103330b1ba37b93c9037bbb732b960791b6044820152606401610629565b60665460408051634be4e3dd60e01b815290516000926001600160a01b031691634be4e3dd9160048083019260209291908290030181865afa158015611825573d6000803e3d6000fd5b505050506040513d601f19601f820116820180604052508101906118499190613592565b60405163dff35e8360e01b8152600481018890529091506000906001600160a01b0383169063dff35e8390602401606060405180830381865afa158015611894573d6000803e3d6000fd5b505050506040513d601f19601f820116820180604052508101906118b891906135ff565b509150506118c6338261278a565b6040516323b872dd60e01b8152306004820152336024820152604481018890526001600160a01b038316906323b872dd90606401600060405180830381600087803b15801561191457600080fd5b505af1158015611928573d6000803e3d6000fd5b5050505050505050505050565b606654604080516308cca7e360e01b815290516000926001600160a01b0316916308cca7e39160048083019260209291908290030181865afa15801561197f573d6000803e3d6000fd5b505050506040513d601f19601f820116820180604052508101906119a39190613592565b90506000816001600160a01b0316635c975abb6040518163ffffffff1660e01b8152600401602060405180830381865afa1580156119e5573d6000803e3d6000fd5b505050506040513d601f19601f82011682018060405250810190611a0991906135bf565b90508015611a295760405162461bcd60e51b8152600401610629906135da565b611a34843385612716565b611a3e848461278a565b50505050565b606654604080516308cca7e360e01b815290516000926001600160a01b0316916308cca7e39160048083019260209291908290030181865afa158015611a8e573d6000803e3d6000fd5b505050506040513d601f19601f82011682018060405250810190611ab29190613592565b90506000816001600160a01b0316635c975abb6040518163ffffffff1660e01b8152600401602060405180830381865afa158015611af4573d6000803e3d6000fd5b505050506040513d601f19601f82011682018060405250810190611b1891906135bf565b90508015611b385760405162461bcd60e51b8152600401610629906135da565b606654604080516308cca7e360e01b815290516000926001600160a01b0316916308cca7e39160048083019260209291908290030181865afa158015611b82573d6000803e3d6000fd5b505050506040513d601f19601f82011682018060405250810190611ba69190613592565b6040516311afe75f60e11b81523360048201529091506000906001600160a01b0383169063235fcebe90602401602060405180830381865afa158015611bf0573d6000803e3d6000fd5b505050506040513d601f19601f82011682018060405250810190611c1491906135bf565b905080611c515760405162461bcd60e51b815260206004820152600b60248201526a139bdd08185b1b1bddd95960aa1b6044820152606401610629565b6115bd86866120f7565b6060806060611c6861125e565b60405191935091506104f99083908390602001613a20565b60003381611c8e8286611efd565b905083811015611cee5760405162461bcd60e51b815260206004820152602560248201527f45524332303a2064656372656173656420616c6c6f77616e63652062656c6f77604482015264207a65726f60d81b6064820152608401610629565b611cfb8286868403611f37565b506001949350505050565b6000826001600160a01b038116611d1c57600080fd5b306001600160a01b03821603611d3157600080fd5b606654604080516308cca7e360e01b815290516000926001600160a01b0316916308cca7e39160048083019260209291908290030181865afa158015611d7b573d6000803e3d6000fd5b505050506040513d601f19601f82011682018060405250810190611d9f9190613592565b90506000816001600160a01b0316635c975abb6040518163ffffffff1660e01b8152600401602060405180830381865afa158015611de1573d6000803e3d6000fd5b505050506040513d601f19601f82011682018060405250810190611e0591906135bf565b90508015611e255760405162461bcd60e51b8152600401610629906135da565b611e2f86866128d5565b5060019695505050505050565b6000611e4860016128e3565b90508015611e60576000805461ff0019166101001790555b611e6a8585612963565b6065839055606680546001600160a01b0319166001600160a01b0384161790558015611ed0576000805461ff0019169055604051600181527f7f26b83ff96e1f2b6a682f133852f6798a09c465da95921460cefb38474024989060200160405180910390a15b5050505050565b600080611ee261047b565b9050611eed60355490565b611ef79082613676565b91505090565b6001600160a01b03918216600090815260346020908152604080832093909416825291909152205490565b6001600160a01b03163b151590565b6001600160a01b038316611f995760405162461bcd60e51b8152602060048201526024808201527f45524332303a20617070726f76652066726f6d20746865207a65726f206164646044820152637265737360e01b6064820152608401610629565b6001600160a01b038216611ffa5760405162461bcd60e51b815260206004820152602260248201527f45524332303a20617070726f766520746f20746865207a65726f206164647265604482015261737360f01b6064820152608401610629565b6001600160a01b0383811660008181526034602090815260408083209487168084529482529182902085905590518481527f8c5be1e5ebec7d5bd14f71427d1e84f3dd0314c0f7b2291e5b200ac8c7c3b92591015b60405180910390a3505050565b60665460408051634be4e3dd60e01b815290516000926001600160a01b031691634be4e3dd9160048083019260209291908290030181865afa1580156120a6573d6000803e3d6000fd5b505050506040513d601f19601f820116820180604052508101906120ca9190613592565b6001600160a01b0316826001600160a01b0316036120ea57506001919050565b506000919050565b919050565b6001600160a01b03821661214d5760405162461bcd60e51b815260206004820152601f60248201527f45524332303a206d696e7420746f20746865207a65726f2061646472657373006044820152606401610629565b806035600082825461215f9190613a08565b90915550506001600160a01b0382166000908152603360205260408120805483929061218c908490613a08565b90915550506040518181526001600160a01b038316906000907fddf252ad1be2c89b69c2b068fc378daa952ba7f163c4a11628f55a4df523b3ef9060200160405180910390a35050565b336000908152606860205260408120805483919083906121f7908490613676565b909155505060665460408051635e20d0e160e01b815290516000926001600160a01b031691635e20d0e19160048083019260209291908290030181865afa158015612246573d6000803e3d6000fd5b505050506040513d601f19601f8201168201806040525081019061226a9190613592565b6065546040516313ef24f760e11b8152336004820152602481019190915260448101859052600160648201529091506001600160a01b038216906327de49ee906084016020604051808303816000875af11580156122cc573d6000803e3d6000fd5b505050506040513d601f19601f820116820180604052508101906104cd9190613a6d565b606654604080516308cca7e360e01b815290516000926001600160a01b0316916308cca7e39160048083019260209291908290030181865afa15801561233a573d6000803e3d6000fd5b505050506040513d601f19601f8201168201806040525081019061235e9190613592565b90506000816001600160a01b0316635c975abb6040518163ffffffff1660e01b8152600401602060405180830381865afa1580156123a0573d6000803e3d6000fd5b505050506040513d601f19601f820116820180604052508101906123c491906135bf565b905080156123e45760405162461bcd60e51b8152600401610629906135da565b60665460408051635e20d0e160e01b815290516000926001600160a01b031691635e20d0e19160048083019260209291908290030181865afa15801561242e573d6000803e3d6000fd5b505050506040513d601f19601f820116820180604052508101906124529190613592565b60405163163c131960e01b81529091506001600160a01b0382169063163c1319906124919033908f908f908f908f908f908f908f908f90600401613aaf565b600060405180830381600087803b1580156124ab57600080fd5b505af11580156124bf573d6000803e3d6000fd5b505050505050505050505050505050565b6000336124de858285612716565b611cfb8585856129f5565b60006124f5838361278a565b606654604080516308cca7e360e01b815290516000926001600160a01b0316916308cca7e39160048083019260209291908290030181865afa15801561253f573d6000803e3d6000fd5b505050506040513d601f19601f820116820180604052508101906125639190613592565b604051631e46922b60e31b8152600481018590529091506001600160a01b0382169063f234915890602401600060405180830381600087803b1580156125a857600080fd5b505af11580156125bc573d6000803e3d6000fd5b505050506000606660009054906101000a90046001600160a01b03166001600160a01b0316635e20d0e16040518163ffffffff1660e01b8152600401602060405180830381865afa158015612615573d6000803e3d6000fd5b505050506040513d601f19601f820116820180604052508101906126399190613592565b6065546040516313ef24f760e11b81526001600160a01b038881166004830152602482019290925260448101879052600060648201529192508216906327de49ee906084016020604051808303816000875af115801561269d573d6000803e3d6000fd5b505050506040513d601f19601f820116820180604052508101906126c19190613a6d565b604080516001600160a01b0388168152602081018790529081018290529093507fb3775f672e1adf43bf7834b692675bfee4db72f83e42da8cff694ca295a89eca9060600160405180910390a1505092915050565b60006127228484611efd565b90506000198114611a3e578181101561277d5760405162461bcd60e51b815260206004820152601d60248201527f45524332303a20696e73756666696369656e7420616c6c6f77616e63650000006044820152606401610629565b611a3e8484848403611f37565b6001600160a01b0382166127ea5760405162461bcd60e51b815260206004820152602160248201527f45524332303a206275726e2066726f6d20746865207a65726f206164647265736044820152607360f81b6064820152608401610629565b6001600160a01b0382166000908152603360205260409020548181101561285e5760405162461bcd60e51b815260206004820152602260248201527f45524332303a206275726e20616d6f756e7420657863656564732062616c616e604482015261636560f01b6064820152608401610629565b6001600160a01b038316600090815260336020526040812083830390556035805484929061288d908490613676565b90915550506040518281526000906001600160a01b038516907fddf252ad1be2c89b69c2b068fc378daa952ba7f163c4a11628f55a4df523b3ef9060200161204f565b505050565b60003361051d8185856129f5565b60008054610100900460ff1615612922578160ff1660011480156129065750303b155b6120ea5760405162461bcd60e51b815260040161062990613b4d565b60005460ff8084169116106129495760405162461bcd60e51b815260040161062990613b4d565b506000805460ff191660ff92909216919091179055600190565b600054610100900460ff166129ce5760405162461bcd60e51b815260206004820152602b60248201527f496e697469616c697a61626c653a20636f6e7472616374206973206e6f74206960448201526a6e697469616c697a696e6760a81b6064820152608401610629565b81516129e1906036906020850190612c98565b5080516128d0906037906020840190612c98565b6001600160a01b038316612a595760405162461bcd60e51b815260206004820152602560248201527f45524332303a207472616e736665722066726f6d20746865207a65726f206164604482015264647265737360d81b6064820152608401610629565b6001600160a01b038216612abb5760405162461bcd60e51b815260206004820152602360248201527f45524332303a207472616e7366657220746f20746865207a65726f206164647260448201526265737360e81b6064820152608401610629565b6001600160a01b03831660009081526033602052604090205481811015612b335760405162461bcd60e51b815260206004820152602660248201527f45524332303a207472616e7366657220616d6f756e7420657863656564732062604482015265616c616e636560d01b6064820152608401610629565b6001600160a01b03808516600090815260336020526040808220858503905591851681529081208054849290612b6a908490613a08565b92505081905550826001600160a01b0316846001600160a01b03167fddf252ad1be2c89b69c2b068fc378daa952ba7f163c4a11628f55a4df523b3ef84604051612bb691815260200190565b60405180910390a3611a3e565b6040518061016001604052806060815260200160006001600160401b0316815260200160006001600160401b031681526020016000815260200160006001600160401b03168152602001600015158152602001600015158152602001606081526020016060815260200160608152602001606081525090565b60405180610140016040528060608152602001606081526020016060815260200160608152602001606081526020016060815260200160608152602001606081526020016060815260200160006001600160a01b031681525090565b828054612ca490613b9b565b90600052602060002090601f016020900481019282612cc65760008555612d0c565b82601f10612cdf57805160ff1916838001178555612d0c565b82800160010185558215612d0c579182015b82811115612d0c578251825591602001919060010190612cf1565b50612d18929150612d1c565b5090565b5b80821115612d185760008155600101612d1d565b60005b83811015612d4c578181015183820152602001612d34565b83811115611a3e5750506000910152565b60008151808452612d75816020860160208601612d31565b601f01601f19169290920160200192915050565b6020815260006104cd6020830184612d5d565b6001600160a01b0381168114612db157600080fd5b50565b60008060408385031215612dc757600080fd5b8235612dd281612d9c565b946020939093013593505050565b60008083601f840112612df257600080fd5b5081356001600160401b03811115612e0957600080fd5b602083019150836020828501011115612e2157600080fd5b9250929050565b600080600080600060808688031215612e4057600080fd5b8535612e4b81612d9c565b94506020860135612e5b81612d9c565b93506040860135925060608601356001600160401b03811115612e7d57600080fd5b612e8988828901612de0565b969995985093965092949392505050565b60006101608251818552612eb082860182612d5d565b9150506020830151612ecd60208601826001600160401b03169052565b506040830151612ee860408601826001600160401b03169052565b50606083015160608501526080830151612f0d60808601826001600160401b03169052565b5060a0830151612f2160a086018215159052565b5060c0830151612f3560c086018215159052565b5060e083015184820360e0860152612f4d8282612d5d565b9150506101008084015185830382870152612f688382612d5d565b925050506101208084015185830382870152612f848382612d5d565b925050506101408084015185830382870152612fa08382612d5d565b9695505050505050565b6040815260008351610140806040850152612fc9610180850183612d5d565b91506020860151603f1980868503016060870152612fe78483612d5d565b935060408801519150808685030160808701526130048483612d5d565b935060608801519150808685030160a08701526130218483612d5d565b935060808801519150808685030160c087015261303e8483612d5d565b935060a08801519150808685030160e087015261305b8483612d5d565b935060c0880151915061010081878603018188015261307a8584612d5d565b945060e089015192506101208288870301818901526130998685612d5d565b9550818a015193508288870301858901526130b48685612d5d565b9550808a01519450505050506130d66101608501826001600160a01b03169052565b50828103602084015261139d8185612e9a565b60008060008060008060008060a0898b03121561310557600080fd5b88356001600160401b038082111561311c57600080fd5b6131288c838d01612de0565b909a50985060208b0135915061313d82612d9c565b90965060408a0135908082111561315357600080fd5b61315f8c838d01612de0565b909750955060608b013591508082111561317857600080fd5b506131858b828c01612de0565b999c989b50969995989497949560800135949350505050565b6000806000606084860312156131b357600080fd5b83356131be81612d9c565b925060208401356131ce81612d9c565b929592945050506040919091013590565b6000602082840312156131f157600080fd5b5035919050565b60408152600061320b6040830185612d5d565b828103602084015261139d8185612d5d565b60006020828403121561322f57600080fd5b81356104cd81612d9c565b634e487b7160e01b600052604160045260246000fd5b60405161016081016001600160401b03811182821017156132735761327361323a565b60405290565b60405161014081016001600160401b03811182821017156132735761327361323a565b604051601f8201601f191681016001600160401b03811182821017156132c4576132c461323a565b604052919050565b60006001600160401b038211156132e5576132e561323a565b50601f01601f191660200190565b600082601f83011261330457600080fd5b8135613317613312826132cc565b61329c565b81815284602083860101111561332c57600080fd5b816020850160208301376000918101602001919091529392505050565b6000806000806080858703121561335f57600080fd5b84356001600160401b038082111561337657600080fd5b613382888389016132f3565b9550602087013591508082111561339857600080fd5b506133a5878288016132f3565b9350506040850135915060608501356133bd81612d9c565b939692955090935050565b600080604083850312156133db57600080fd5b82356133e681612d9c565b915060208301356133f681612d9c565b809150509250929050565b634e487b7160e01b600052601160045260246000fd5b600181815b8085111561345257816000190482111561343857613438613401565b8085161561344557918102915b93841c939080029061341c565b509250929050565b60008261346957506001610523565b8161347657506000610523565b816001811461348c5760028114613496576134b2565b6001915050610523565b60ff8411156134a7576134a7613401565b50506001821b610523565b5060208310610133831016604e8410600b84101617156134d5575081810a610523565b6134df8383613417565b80600019048211156134f3576134f3613401565b029392505050565b60006104cd60ff84168361345a565b600081600019048311821515161561352457613524613401565b500290565b75546f7563616e2050726f746f636f6c3a2054434f322d60501b81526000835161355a816016850160208801612d31565b602d60f81b601691840191820152835161357b816017840160208801612d31565b01601701949350505050565b80516120f281612d9c565b6000602082840312156135a457600080fd5b81516104cd81612d9c565b805180151581146120f257600080fd5b6000602082840312156135d157600080fd5b6104cd826135af565b6020808252600b908201526a2830bab9b2b2102a21a79960a91b604082015260600190565b60008060006060848603121561361457600080fd5b835192506020840151915060408401516003811061363157600080fd5b809150509250925092565b634e487b7160e01b600052602160045260246000fd5b6000806040838503121561366557600080fd5b505080516020909101519092909150565b60008282101561368857613688613401565b500390565b600082601f83011261369e57600080fd5b81516136ac613312826132cc565b8181528460208386010111156136c157600080fd5b611234826020830160208701612d31565b80516001600160401b03811681146120f257600080fd5b6000602082840312156136fb57600080fd5b81516001600160401b038082111561371257600080fd5b90830190610160828603121561372757600080fd5b61372f613250565b82518281111561373e57600080fd5b61374a8782860161368d565b825250613759602084016136d2565b602082015261376a604084016136d2565b604082015260608301516060820152613785608084016136d2565b608082015261379660a084016135af565b60a08201526137a760c084016135af565b60c082015260e0830151828111156137be57600080fd5b6137ca8782860161368d565b60e08301525061010080840151838111156137e457600080fd5b6137f08882870161368d565b828401525050610120808401518381111561380a57600080fd5b6138168882870161368d565b828401525050610140808401518381111561383057600080fd5b61383c8882870161368d565b918301919091525095945050505050565b60006020828403121561385f57600080fd5b81516001600160401b038082111561387657600080fd5b90830190610140828603121561388b57600080fd5b613893613279565b8251828111156138a257600080fd5b6138ae8782860161368d565b8252506020830151828111156138c357600080fd5b6138cf8782860161368d565b6020830152506040830151828111156138e757600080fd5b6138f38782860161368d565b60408301525060608301518281111561390b57600080fd5b6139178782860161368d565b60608301525060808301518281111561392f57600080fd5b61393b8782860161368d565b60808301525060a08301518281111561395357600080fd5b61395f8782860161368d565b60a08301525060c08301518281111561397757600080fd5b6139838782860161368d565b60c08301525060e08301518281111561399b57600080fd5b6139a78782860161368d565b60e08301525061010080840151838111156139c157600080fd5b6139cd8882870161368d565b82840152505061012091506139e3828401613587565b91810191909152949350505050565b634e487b7160e01b600052603260045260246000fd5b60008219821115613a1b57613a1b613401565b500190565b6454434f322d60d81b815260008351613a40816005850160208801612d31565b602d60f81b6005918401918201528351613a61816006840160208801612d31565b01600601949350505050565b600060208284031215613a7f57600080fd5b5051919050565b81835281816020850137506000828201602090810191909152601f909101601f19169091010190565b600060018060a01b03808c168352602060c081850152613ad360c085018c8e613a86565b828b1660408601528481036060860152613aee818a8c613a86565b9250508382036080850152613b04828789613a86565b84810360a0860152855180825282870193509082019060005b81811015613b3957845183529383019391830191600101613b1d565b50909e9d5050505050505050505050505050565b6020808252602e908201527f496e697469616c697a61626c653a20636f6e747261637420697320616c72656160408201526d191e481a5b9a5d1a585b1a5e995960921b606082015260800190565b600181811c90821680613baf57607f821691505b602082108103613bcf57634e487b7160e01b600052602260045260246000fd5b5091905056fea2646970667358221220455d2dca59c1a20f3fec0f622092d898689bfa57884141ac12aef55c1dc4a70464736f6c634300080e0033496e697469616c697a61626c653a20636f6e747261637420697320616c726561",
  "devdoc": {
    "details": "Each TCO2 contract is deployed via a Beacon Proxy in `ToucanCarbonOffsetsFactory`",
    "kind": "dev",
    "methods": {
      "allowance(address,address)": {
        "details": "See {IERC20-allowance}."
      },
      "approve(address,uint256)": {
        "details": "See {IERC20-approve}. NOTE: If `amount` is the maximum `uint256`, the allowance is not updated on `transferFrom`. This is semantically equivalent to an infinite approval. Requirements: - `spender` cannot be the zero address."
      },
      "balanceOf(address)": {
        "details": "See {IERC20-balanceOf}."
      },
      "bridgeBurn(address,uint256)": {
        "params": {
          "account": "The user for whom to burn TCO2",
          "amount": "The amount to burn."
        }
      },
      "bridgeMint(address,uint256)": {
        "params": {
          "account": "The user for whom to mint TCO2",
          "amount": "The amount to mint."
        }
      },
      "burnFrom(address,uint256)": {
        "params": {
          "account": "The user for whom to burn TCO2",
          "amount": "The amount to burn"
        }
      },
      "constructor": {
        "custom:oz-upgrades-unsafe-allow": "constructor"
      },
      "decimals()": {
        "details": "Returns the number of decimals used to get its user representation. For example, if `decimals` equals `2`, a balance of `505` tokens should be displayed to a user as `5.05` (`505 / 10 ** 2`). Tokens usually opt for a value of 18, imitating the relationship between Ether and Wei. This is the value {ERC20} uses, unless this function is overridden; NOTE: This information is only used for _display_ purposes: it in no way affects any of the arithmetic of the contract, including {IERC20-balanceOf} and {IERC20-transfer}."
      },
      "decreaseAllowance(address,uint256)": {
        "details": "Atomically decreases the allowance granted to `spender` by the caller. This is an alternative to {approve} that can be used as a mitigation for problems described in {IERC20-approve}. Emits an {Approval} event indicating the updated allowance. Requirements: - `spender` cannot be the zero address. - `spender` must have allowance for the caller of at least `subtractedValue`."
      },
      "defractionalize(uint256)": {
        "params": {
          "tokenId": "The batch NFT to defractionalize from the TCO2"
        }
      },
      "getAttributes()": {
        "details": "Function to get corresponding attributes from the CarbonProjects"
      },
      "getDepositCap()": {
        "details": "Returns the cap for TCO2s based on `totalVintageQuantity` Returns `~unlimited` if the value for the vintage is not set"
      },
      "getGlobalProjectVintageIdentifiers()": {
        "details": "Helper function to retrieve data fragments for `name()` and `symbol()`"
      },
      "getRemaining()": {
        "details": "Returns the remaining space in TCO2 contract before hitting the cap"
      },
      "increaseAllowance(address,uint256)": {
        "details": "Atomically increases the allowance granted to `spender` by the caller. This is an alternative to {approve} that can be used as a mitigation for problems described in {IERC20-approve}. Emits an {Approval} event indicating the updated allowance. Requirements: - `spender` cannot be the zero address."
      },
      "mintCertificateLegacy(string,address,string,string,uint256)": {
        "params": {
          "amount": "The amount to issue an NFT certificate for.",
          "beneficiary": "The beneficiary to set in the NFT.",
          "beneficiaryString": "The beneficiaryString to set in the NFT.",
          "retirementMessage": "The retirementMessage to set in the NFT.",
          "retiringEntityString": "An identifiable string for the retiring entity, eg. their name."
        }
      },
      "onERC721Received(address,address,uint256,bytes)": {
        "details": "Function is called with `operator` as `msg.sender` in a reference implementation by OZ `from` is the previous owner, not necessarily the same as operator. The hook checks if NFT collection is whitelisted and next if attributes are matching this ERC20 contract"
      },
      "retireAndMintCertificate(string,address,string,string,uint256)": {
        "params": {
          "amount": "The amount to retire and issue an NFT certificate for.",
          "beneficiary": "The beneficiary to set in the NFT.",
          "beneficiaryString": "The beneficiaryString to set in the NFT.",
          "retirementMessage": "The retirementMessage to set in the NFT.",
          "retiringEntityString": "An identifiable string for the retiring entity, eg. their name."
        }
      },
      "retireFrom(address,uint256)": {
        "details": "Allow for pools or third party contracts to retire for the user Requires approval"
      },
      "totalSupply()": {
        "details": "See {IERC20-totalSupply}."
      },
      "version()": {
        "details": "Returns the current version of the smart contract"
      }
    },
    "version": 1
  },
  "userdoc": {
    "kind": "user",
    "methods": {
      "bridgeBurn(address,uint256)": {
        "notice": "Burn TCO2 on behalf of a user. msg.sender does not require approval by the account for the burn to be successfull. This function is exposed so it can be utilized in cross-chain transfers of TCO2 where we want to burn the TCO2 in the source chain but not retire it."
      },
      "bridgeMint(address,uint256)": {
        "notice": "Mint TCO2 on behalf of a user. This function is exposed to be called by authorized message bridge systems and utilized for cross-chain transfers of TCO2 where we want to mint the TCO2 in the source chain."
      },
      "burnFrom(address,uint256)": {
        "notice": "Burn TCO2 on behalf of a user. msg.sender needs to be approved by the account for the burn to be successfull. This function is exposed so it can be utilized to burn credits without retiring them (eg. dispose HFC-23)."
      },
      "defractionalize(uint256)": {
        "notice": "Defractionalize batch NFT by burning the amount of TCO2 from the sender and transfer the batch NFT that was selected to the sender. The only valid sender currently is the TCO2 factory owner."
      },
      "mintCertificateLegacy(string,address,string,string,uint256)": {
        "notice": "Mint an NFT showing how many tonnes of CO2 have been retired/cancelled amount is deprecated and used only for backwards-compatibility reasons Going forward users should mint NFT directly in the RetirementCertificates contract."
      },
      "name()": {
        "notice": "Token name getter overriden to return the a name based on the carbon project data"
      },
      "onERC721Received(address,address,uint256,bytes)": {
        "notice": "Receive hook to fractionalize Batch-NFTs into ERC20's"
      },
      "retire(uint256)": {
        "notice": "Retirement/Cancellation of TCO2 tokens (the actual offsetting), which results in the tokens being burnt"
      },
      "retireAndMintCertificate(string,address,string,string,uint256)": {
        "notice": "Retire an amount of TCO2s, register an retirement event then mint a certificate passing a single retirementEventId."
      },
      "symbol()": {
        "notice": "Token symbol getter overriden to return the a symbol based on the carbon project data"
      }
    },
    "notice": "Implementation contract of the TCO2 tokens (ERC20) These tokenized carbon offsets are specific to a vintage and its associated attributes In order to mint TCO2s a user must deposit a matching CarbonOffsetBatch",
    "version": 1
  },
  "storageLayout": {
    "storage": [
      {
        "astId": 1489,
        "contract": "contracts/ToucanCarbonOffsets.sol:ToucanCarbonOffsets",
        "label": "_initialized",
        "offset": 0,
        "slot": "0",
        "type": "t_uint8"
      },
      {
        "astId": 1492,
        "contract": "contracts/ToucanCarbonOffsets.sol:ToucanCarbonOffsets",
        "label": "_initializing",
        "offset": 1,
        "slot": "0",
        "type": "t_bool"
      },
      {
        "astId": 4534,
        "contract": "contracts/ToucanCarbonOffsets.sol:ToucanCarbonOffsets",
        "label": "__gap",
        "offset": 0,
        "slot": "1",
        "type": "t_array(t_uint256)50_storage"
      },
      {
        "astId": 1890,
        "contract": "contracts/ToucanCarbonOffsets.sol:ToucanCarbonOffsets",
        "label": "_balances",
        "offset": 0,
        "slot": "51",
        "type": "t_mapping(t_address,t_uint256)"
      },
      {
        "astId": 1896,
        "contract": "contracts/ToucanCarbonOffsets.sol:ToucanCarbonOffsets",
        "label": "_allowances",
        "offset": 0,
        "slot": "52",
        "type": "t_mapping(t_address,t_mapping(t_address,t_uint256))"
      },
      {
        "astId": 1898,
        "contract": "contracts/ToucanCarbonOffsets.sol:ToucanCarbonOffsets",
        "label": "_totalSupply",
        "offset": 0,
        "slot": "53",
        "type": "t_uint256"
      },
      {
        "astId": 1900,
        "contract": "contracts/ToucanCarbonOffsets.sol:ToucanCarbonOffsets",
        "label": "_name",
        "offset": 0,
        "slot": "54",
        "type": "t_string_storage"
      },
      {
        "astId": 1902,
        "contract": "contracts/ToucanCarbonOffsets.sol:ToucanCarbonOffsets",
        "label": "_symbol",
        "offset": 0,
        "slot": "55",
        "type": "t_string_storage"
      },
      {
        "astId": 2481,
        "contract": "contracts/ToucanCarbonOffsets.sol:ToucanCarbonOffsets",
        "label": "__gap",
        "offset": 0,
        "slot": "56",
        "type": "t_array(t_uint256)45_storage"
      },
      {
        "astId": 11766,
        "contract": "contracts/ToucanCarbonOffsets.sol:ToucanCarbonOffsets",
        "label": "projectVintageTokenId",
        "offset": 0,
        "slot": "101",
        "type": "t_uint256"
      },
      {
        "astId": 11768,
        "contract": "contracts/ToucanCarbonOffsets.sol:ToucanCarbonOffsets",
        "label": "contractRegistry",
        "offset": 0,
        "slot": "102",
        "type": "t_address"
      },
      {
        "astId": 11772,
        "contract": "contracts/ToucanCarbonOffsets.sol:ToucanCarbonOffsets",
        "label": "minterToId",
        "offset": 0,
        "slot": "103",
        "type": "t_mapping(t_address,t_uint256)"
      },
      {
        "astId": 11777,
        "contract": "contracts/ToucanCarbonOffsets.sol:ToucanCarbonOffsets",
        "label": "retiredAmount",
        "offset": 0,
        "slot": "104",
        "type": "t_mapping(t_address,t_uint256)"
      }
    ],
    "types": {
      "t_address": {
        "encoding": "inplace",
        "label": "address",
        "numberOfBytes": "20"
      },
      "t_array(t_uint256)45_storage": {
        "base": "t_uint256",
        "encoding": "inplace",
        "label": "uint256[45]",
        "numberOfBytes": "1440"
      },
      "t_array(t_uint256)50_storage": {
        "base": "t_uint256",
        "encoding": "inplace",
        "label": "uint256[50]",
        "numberOfBytes": "1600"
      },
      "t_bool": {
        "encoding": "inplace",
        "label": "bool",
        "numberOfBytes": "1"
      },
      "t_mapping(t_address,t_mapping(t_address,t_uint256))": {
        "encoding": "mapping",
        "key": "t_address",
        "label": "mapping(address => mapping(address => uint256))",
        "numberOfBytes": "32",
        "value": "t_mapping(t_address,t_uint256)"
      },
      "t_mapping(t_address,t_uint256)": {
        "encoding": "mapping",
        "key": "t_address",
        "label": "mapping(address => uint256)",
        "numberOfBytes": "32",
        "value": "t_uint256"
      },
      "t_string_storage": {
        "encoding": "bytes",
        "label": "string",
        "numberOfBytes": "32"
      },
      "t_uint256": {
        "encoding": "inplace",
        "label": "uint256",
        "numberOfBytes": "32"
      },
      "t_uint8": {
        "encoding": "inplace",
        "label": "uint8",
        "numberOfBytes": "1"
      }
    }
  }
}