{
  "address": "0x2359677E513Bc83106268514c5B2De3C29C849ea",
  "abi": [
    {
      "inputs": [],
      "stateMutability": "nonpayable",
      "type": "constructor"
    },
    {
      "anonymous": false,
      "inputs": [
        {
          "indexed": false,
          "internalType": "address",
          "name": "account",
          "type": "address"
        }
      ],
      "name": "AddedToAllowedBridges",
      "type": "event"
    },
    {
      "anonymous": false,
      "inputs": [
        {
          "indexed": false,
          "internalType": "address",
          "name": "previousAdmin",
          "type": "address"
        },
        {
          "indexed": false,
          "internalType": "address",
          "name": "newAdmin",
          "type": "address"
        }
      ],
      "name": "AdminChanged",
      "type": "event"
    },
    {
      "anonymous": false,
      "inputs": [
        {
          "indexed": true,
          "internalType": "address",
          "name": "beacon",
          "type": "address"
        }
      ],
      "name": "BeaconUpgraded",
      "type": "event"
    },
    {
      "anonymous": false,
      "inputs": [
        {
          "indexed": false,
          "internalType": "uint8",
          "name": "version",
          "type": "uint8"
        }
      ],
      "name": "Initialized",
      "type": "event"
    },
    {
      "anonymous": false,
      "inputs": [
        {
          "indexed": true,
          "internalType": "address",
          "name": "previousOwner",
          "type": "address"
        },
        {
          "indexed": true,
          "internalType": "address",
          "name": "newOwner",
          "type": "address"
        }
      ],
      "name": "OwnershipTransferred",
      "type": "event"
    },
    {
      "anonymous": false,
      "inputs": [
        {
          "indexed": false,
          "internalType": "address",
          "name": "account",
          "type": "address"
        }
      ],
      "name": "Paused",
      "type": "event"
    },
    {
      "anonymous": false,
      "inputs": [
        {
          "indexed": false,
          "internalType": "address",
          "name": "account",
          "type": "address"
        }
      ],
      "name": "RemovedFromallowedBridges",
      "type": "event"
    },
    {
      "anonymous": false,
      "inputs": [
        {
          "indexed": false,
          "internalType": "uint256",
          "name": "vintageTokenId",
          "type": "uint256"
        },
        {
          "indexed": false,
          "internalType": "address",
          "name": "tokenAddress",
          "type": "address"
        }
      ],
      "name": "TokenCreated",
      "type": "event"
    },
    {
      "anonymous": false,
      "inputs": [
        {
          "indexed": false,
          "internalType": "address",
          "name": "account",
          "type": "address"
        }
      ],
      "name": "Unpaused",
      "type": "event"
    },
    {
      "anonymous": false,
      "inputs": [
        {
          "indexed": true,
          "internalType": "address",
          "name": "implementation",
          "type": "address"
        }
      ],
      "name": "Upgraded",
      "type": "event"
    },
    {
      "inputs": [
        {
          "internalType": "address",
          "name": "account",
          "type": "address"
        }
      ],
      "name": "addToAllowedBridges",
      "outputs": [],
      "stateMutability": "nonpayable",
      "type": "function"
    },
    {
      "inputs": [
        {
          "internalType": "address",
          "name": "",
          "type": "address"
        }
      ],
      "name": "allowedBridges",
      "outputs": [
        {
          "internalType": "bool",
          "name": "",
          "type": "bool"
        }
      ],
      "stateMutability": "view",
      "type": "function"
    },
    {
      "inputs": [],
      "name": "beacon",
      "outputs": [
        {
          "internalType": "address",
          "name": "",
          "type": "address"
        }
      ],
      "stateMutability": "view",
      "type": "function"
    },
    {
      "inputs": [],
      "name": "bridgeFeeBurnAddress",
      "outputs": [
        {
          "internalType": "address",
          "name": "",
          "type": "address"
        }
      ],
      "stateMutability": "view",
      "type": "function"
    },
    {
      "inputs": [],
      "name": "bridgeFeeBurnPercentageInBase",
      "outputs": [
        {
          "internalType": "uint256",
          "name": "",
          "type": "uint256"
        }
      ],
      "stateMutability": "view",
      "type": "function"
    },
    {
      "inputs": [],
      "name": "bridgeFeeDivider",
      "outputs": [
        {
          "internalType": "uint256",
          "name": "",
          "type": "uint256"
        }
      ],
      "stateMutability": "view",
      "type": "function"
    },
    {
      "inputs": [],
      "name": "bridgeFeePercentageInBase",
      "outputs": [
        {
          "internalType": "uint256",
          "name": "",
          "type": "uint256"
        }
      ],
      "stateMutability": "view",
      "type": "function"
    },
    {
      "inputs": [],
      "name": "bridgeFeeReceiver",
      "outputs": [
        {
          "internalType": "address",
          "name": "",
          "type": "address"
        }
      ],
      "stateMutability": "view",
      "type": "function"
    },
    {
      "inputs": [],
      "name": "bridgeFeeReceiverAddress",
      "outputs": [
        {
          "internalType": "address",
          "name": "",
          "type": "address"
        }
      ],
      "stateMutability": "view",
      "type": "function"
    },
    {
      "inputs": [],
      "name": "contractRegistry",
      "outputs": [
        {
          "internalType": "address",
          "name": "",
          "type": "address"
        }
      ],
      "stateMutability": "view",
      "type": "function"
    },
    {
      "inputs": [
        {
          "internalType": "uint256",
          "name": "projectVintageTokenId",
          "type": "uint256"
        }
      ],
      "name": "deployFromVintage",
      "outputs": [],
      "stateMutability": "nonpayable",
      "type": "function"
    },
    {
      "inputs": [
        {
          "internalType": "uint256",
          "name": "",
          "type": "uint256"
        }
      ],
      "name": "deployedContracts",
      "outputs": [
        {
          "internalType": "address",
          "name": "",
          "type": "address"
        }
      ],
      "stateMutability": "view",
      "type": "function"
    },
    {
      "inputs": [
        {
          "internalType": "uint256",
          "name": "_quantity",
          "type": "uint256"
        }
      ],
      "name": "getBridgeFeeAndBurnAmount",
      "outputs": [
        {
          "internalType": "uint256",
          "name": "",
          "type": "uint256"
        },
        {
          "internalType": "uint256",
          "name": "",
          "type": "uint256"
        }
      ],
      "stateMutability": "view",
      "type": "function"
    },
    {
      "inputs": [],
      "name": "getContracts",
      "outputs": [
        {
          "internalType": "address[]",
          "name": "",
          "type": "address[]"
        }
      ],
      "stateMutability": "view",
      "type": "function"
    },
    {
      "inputs": [
        {
          "internalType": "uint256",
          "name": "amount",
          "type": "uint256"
        }
      ],
      "name": "increaseTotalRetired",
      "outputs": [],
      "stateMutability": "nonpayable",
      "type": "function"
    },
    {
      "inputs": [
        {
          "internalType": "address",
          "name": "_contractRegistry",
          "type": "address"
        }
      ],
      "name": "initialize",
      "outputs": [],
      "stateMutability": "nonpayable",
      "type": "function"
    },
    {
      "inputs": [],
      "name": "owner",
      "outputs": [
        {
          "internalType": "address",
          "name": "",
          "type": "address"
        }
      ],
      "stateMutability": "view",
      "type": "function"
    },
    {
      "inputs": [],
      "name": "pause",
      "outputs": [],
      "stateMutability": "nonpayable",
      "type": "function"
    },
    {
      "inputs": [],
      "name": "paused",
      "outputs": [
        {
          "internalType": "bool",
          "name": "",
          "type": "bool"
        }
      ],
      "stateMutability": "view",
      "type": "function"
    },
    {
      "inputs": [],
      "name": "proxiableUUID",
      "outputs": [
        {
          "internalType": "bytes32",
          "name": "",
          "type": "bytes32"
        }
      ],
      "stateMutability": "view",
      "type": "function"
    },
    {
      "inputs": [
        {
          "internalType": "uint256",
          "name": "",
          "type": "uint256"
        }
      ],
      "name": "pvIdtoERC20",
      "outputs": [
        {
          "internalType": "address",
          "name": "",
          "type": "address"
        }
      ],
      "stateMutability": "view",
      "type": "function"
    },
    {
      "inputs": [
        {
          "internalType": "address",
          "name": "account",
          "type": "address"
        }
      ],
      "name": "removeFromAllowedBridges",
      "outputs": [],
      "stateMutability": "nonpayable",
      "type": "function"
    },
    {
      "inputs": [],
      "name": "renounceOwnership",
      "outputs": [],
      "stateMutability": "nonpayable",
      "type": "function"
    },
    {
      "inputs": [
        {
          "internalType": "address",
          "name": "_beacon",
          "type": "address"
        }
      ],
      "name": "setBeacon",
      "outputs": [],
      "stateMutability": "nonpayable",
      "type": "function"
    },
    {
      "inputs": [
        {
          "internalType": "address",
          "name": "_bridgeFeeBurnAddress",
          "type": "address"
        }
      ],
      "name": "setBridgeFeeBurnAddress",
      "outputs": [],
      "stateMutability": "nonpayable",
      "type": "function"
    },
    {
      "inputs": [
        {
          "internalType": "uint256",
          "name": "_bridgeFeeBurnPercentageInBase",
          "type": "uint256"
        }
      ],
      "name": "setBridgeFeeBurnPercentage",
      "outputs": [],
      "stateMutability": "nonpayable",
      "type": "function"
    },
    {
      "inputs": [
        {
          "internalType": "uint256",
          "name": "_bridgeFeePercentageInBase",
          "type": "uint256"
        }
      ],
      "name": "setBridgeFeePercentage",
      "outputs": [],
      "stateMutability": "nonpayable",
      "type": "function"
    },
    {
      "inputs": [
        {
          "internalType": "address",
          "name": "_bridgeFeeReceiver",
          "type": "address"
        }
      ],
      "name": "setBridgeFeeReceiver",
      "outputs": [],
      "stateMutability": "nonpayable",
      "type": "function"
    },
    {
      "inputs": [
        {
          "internalType": "address",
          "name": "_address",
          "type": "address"
        }
      ],
      "name": "setToucanContractRegistry",
      "outputs": [],
      "stateMutability": "nonpayable",
      "type": "function"
    },
    {
      "inputs": [],
      "name": "totalRetired",
      "outputs": [
        {
          "internalType": "uint256",
          "name": "",
          "type": "uint256"
        }
      ],
      "stateMutability": "view",
      "type": "function"
    },
    {
      "inputs": [
        {
          "internalType": "address",
          "name": "newOwner",
          "type": "address"
        }
      ],
      "name": "transferOwnership",
      "outputs": [],
      "stateMutability": "nonpayable",
      "type": "function"
    },
    {
      "inputs": [],
      "name": "unpause",
      "outputs": [],
      "stateMutability": "nonpayable",
      "type": "function"
    },
    {
      "inputs": [
        {
          "internalType": "address",
          "name": "newImplementation",
          "type": "address"
        }
      ],
      "name": "upgradeTo",
      "outputs": [],
      "stateMutability": "nonpayable",
      "type": "function"
    },
    {
      "inputs": [
        {
          "internalType": "address",
          "name": "newImplementation",
          "type": "address"
        },
        {
          "internalType": "bytes",
          "name": "data",
          "type": "bytes"
        }
      ],
      "name": "upgradeToAndCall",
      "outputs": [],
      "stateMutability": "payable",
      "type": "function"
    },
    {
      "inputs": [],
      "name": "version",
      "outputs": [
        {
          "internalType": "string",
          "name": "",
          "type": "string"
        }
      ],
      "stateMutability": "pure",
      "type": "function"
    }
  ],
  "numDeployments": 1,
  "solcInputHash": "331b220db4738e115007d85787205470",
  "bytecode": "0x60a0604052306080523480156200001557600080fd5b506200002062000026565b62000158565b6200003260ff62000035565b50565b600354600090610100900460ff1615620000d0578160ff1660011480156200007057506200006e306200014960201b6200126d1760201c565b155b620000c85760405162461bcd60e51b815260206004820152602e602482015260008051602062002e1683398151915260448201526d191e481a5b9a5d1a585b1a5e995960921b60648201526084015b60405180910390fd5b506000919050565b60035460ff8084169116106200012f5760405162461bcd60e51b815260206004820152602e602482015260008051602062002e1683398151915260448201526d191e481a5b9a5d1a585b1a5e995960921b6064820152608401620000bf565b506003805460ff191660ff92909216919091179055600190565b6001600160a01b03163b151590565b608051612c8662000190600039600081816107f00152818161083301528181610a3001528181610a730152610b0b0152612c866000f3fe6080604052600436106200022f5760003560e01c806380e2d3f0116200012f578063c4d66de811620000ad578063e882e37b1162000078578063e882e37b1462000672578063f23491581462000697578063f2fde38b14620006bc578063f379a5a214620006e1578063f8513c62146200071c57600080fd5b8063c4d66de814620005ea578063d42afb56146200060f578063dee02cba1462000634578063e60b6da8146200065957600080fd5b8063936d8e2411620000fa578063936d8e24146200053e5780639ad1ee101462000557578063abf410e5146200057c578063b3b60142146200059e578063c3a2a93a14620005c357600080fd5b806380e2d3f014620004ce5780638456cb5914620004ee5780638891792a14620005065780638da5cb5b146200051e57600080fd5b806352d1902d11620001bd5780635c975abb11620001885780635c975abb14620004185780635e813d3c14620004325780636a0031cc146200046c578063715018a614620004915780637f05b30514620004a957600080fd5b806352d1902d146200036b57806354fd4d501462000383578063581cd11014620003ba57806359659e9014620003f657600080fd5b80633ed9b17b11620001fe5780633ed9b17b14620002ef5780633f4ba83a14620003145780634d8f59f0146200032c5780634f1ef286146200035457600080fd5b8063056195a71462000234578063235fcebe146200025b5780632626c3be14620002a55780633659cfe614620002ca575b600080fd5b3480156200024157600080fd5b50620002596200025336600462001d80565b6200073e565b005b3480156200026857600080fd5b50620002906200027a36600462001d80565b6101046020526000908152604090205460ff1681565b60405190151581526020015b60405180910390f35b348015620002b257600080fd5b5062000259620002c436600462001d80565b62000797565b348015620002d757600080fd5b5062000259620002e936600462001d80565b620007e6565b348015620002fc57600080fd5b50620002596200030e36600462001d80565b620008d1565b3480156200032157600080fd5b5062000259620009ba565b3480156200033957600080fd5b50620003456101035481565b6040519081526020016200029c565b620002596200036536600462001db6565b62000a26565b3480156200037857600080fd5b506200034562000afe565b3480156200039057600080fd5b506040805180820182526005815264312e322e3160d81b602082015290516200029c919062001ee3565b348015620003c757600080fd5b5061010154620003dd906001600160a01b031681565b6040516001600160a01b0390911681526020016200029c565b3480156200040357600080fd5b5060fe54620003dd906001600160a01b031681565b3480156200042557600080fd5b5060685460ff1662000290565b3480156200043f57600080fd5b50620003dd6200045136600462001ef8565b6002602052600090815260409020546001600160a01b031681565b3480156200047957600080fd5b50620002596200048b36600462001ef8565b62000bb4565b3480156200049e57600080fd5b506200025962000c60565b348015620004b657600080fd5b5062000259620004c836600462001d80565b62000c9b565b348015620004db57600080fd5b5060ff546001600160a01b0316620003dd565b348015620004fb57600080fd5b506200025962000d7d565b3480156200051357600080fd5b506200034561271081565b3480156200052b57600080fd5b506036546001600160a01b0316620003dd565b3480156200054b57600080fd5b50620003456101025481565b3480156200056457600080fd5b50620003dd6200057636600462001ef8565b62000de5565b3480156200058957600080fd5b50600054620003dd906001600160a01b031681565b348015620005ab57600080fd5b5062000259620005bd36600462001ef8565b62000e10565b348015620005d057600080fd5b50620005db62000e41565b6040516200029c919062001f12565b348015620005f757600080fd5b50620002596200060936600462001d80565b62000ea5565b3480156200061c57600080fd5b50620002596200062e36600462001d80565b62000f49565b3480156200064157600080fd5b50620002596200065336600462001ef8565b62000f98565b3480156200066657600080fd5b50620003456101005481565b3480156200067f57600080fd5b50620002596200069136600462001d80565b62001044565b348015620006a457600080fd5b5062000259620006b636600462001ef8565b62001093565b348015620006c957600080fd5b5062000259620006db36600462001d80565b62001179565b348015620006ee57600080fd5b50620007066200070036600462001ef8565b62001218565b604080519283526020830191909152016200029c565b3480156200072957600080fd5b5060ff54620003dd906001600160a01b031681565b6036546001600160a01b03163314620007745760405162461bcd60e51b81526004016200076b9062001f61565b60405180910390fd5b61010180546001600160a01b0319166001600160a01b0392909216919091179055565b6036546001600160a01b03163314620007c45760405162461bcd60e51b81526004016200076b9062001f61565b60ff80546001600160a01b0319166001600160a01b0392909216919091179055565b6001600160a01b037f0000000000000000000000000000000000000000000000000000000000000000163003620008315760405162461bcd60e51b81526004016200076b9062001f96565b7f00000000000000000000000000000000000000000000000000000000000000006001600160a01b03166200087c60008051602062002be1833981519152546001600160a01b031690565b6001600160a01b031614620008a55760405162461bcd60e51b81526004016200076b9062001fe2565b620008b0816200127c565b60408051600080825260208201909252620008ce91839190620012a9565b50565b6036546001600160a01b03163314620008fe5760405162461bcd60e51b81526004016200076b9062001f61565b6001600160a01b0381166000908152610104602052604090205460ff1680620009605760405162461bcd60e51b8152602060048201526013602482015272105b1c9958591e481b9bdd08185b1b1bddd959606a1b60448201526064016200076b565b6001600160a01b03821660008181526101046020908152604091829020805460ff1916905590519182527fe1f1103cfadf05f922cd1ed035283eed4d6e2d4c343210b7ac5f84a472bcfd7691015b60405180910390a15050565b6000546001600160a01b0316620009d96036546001600160a01b031690565b6001600160a01b038216331480620009f957506001600160a01b03811633145b62000a185760405162461bcd60e51b81526004016200076b906200202e565b62000a2262001426565b5050565b6001600160a01b037f000000000000000000000000000000000000000000000000000000000000000016300362000a715760405162461bcd60e51b81526004016200076b9062001f96565b7f00000000000000000000000000000000000000000000000000000000000000006001600160a01b031662000abc60008051602062002be1833981519152546001600160a01b031690565b6001600160a01b03161462000ae55760405162461bcd60e51b81526004016200076b9062001fe2565b62000af0826200127c565b62000a2282826001620012a9565b6000306001600160a01b037f0000000000000000000000000000000000000000000000000000000000000000161462000ba05760405162461bcd60e51b815260206004820152603860248201527f555550535570677261646561626c653a206d757374206e6f742062652063616c60448201527f6c6564207468726f7567682064656c656761746563616c6c000000000000000060648201526084016200076b565b5060008051602062002be183398151915290565b6036546001600160a01b0316331462000be15760405162461bcd60e51b81526004016200076b9062001f61565b612710811062000c5a5760405162461bcd60e51b815260206004820152603b60248201527f627269646765206665652070657263656e74616765206d757374206265206c6f60448201527f776572207468616e20627269646765206665652064697669646572000000000060648201526084016200076b565b61010055565b6036546001600160a01b0316331462000c8d5760405162461bcd60e51b81526004016200076b9062001f61565b62000c996000620014bb565b565b6036546001600160a01b0316331462000cc85760405162461bcd60e51b81526004016200076b9062001f61565b6001600160a01b0381166000908152610104602052604090205460ff16801562000d275760405162461bcd60e51b815260206004820152600f60248201526e105b1c9958591e48185b1b1bddd959608a1b60448201526064016200076b565b6001600160a01b03821660008181526101046020908152604091829020805460ff1916600117905590519182527fed9735b851438eeeaf428e48851f731122eb39b1d8027c2c3158f7f0b2d547069101620009ae565b6000546001600160a01b031662000d9c6036546001600160a01b031690565b6001600160a01b03821633148062000dbc57506001600160a01b03811633145b62000ddb5760405162461bcd60e51b81526004016200076b906200202e565b62000a226200150d565b6001818154811062000df657600080fd5b6000918252602090912001546001600160a01b0316905081565b60685460ff161562000e365760405162461bcd60e51b81526004016200076b9062002073565b620008ce8162001569565b6060600180548060200260200160405190810160405280929190818152602001828054801562000e9b57602002820191906000526020600020905b81546001600160a01b0316815260019091019060200180831162000e7c575b5050505050905090565b600062000eb360016200187e565b9050801562000ecc576003805461ff0019166101001790555b62000ed662001910565b62000ee06200193a565b62000eea6200196f565b600080546001600160a01b0319166001600160a01b038416179055801562000a22576003805461ff0019169055604051600181527f7f26b83ff96e1f2b6a682f133852f6798a09c465da95921460cefb384740249890602001620009ae565b6036546001600160a01b0316331462000f765760405162461bcd60e51b81526004016200076b9062001f61565b60fe80546001600160a01b0319166001600160a01b0392909216919091179055565b6036546001600160a01b0316331462000fc55760405162461bcd60e51b81526004016200076b9062001f61565b61271081106200103e5760405162461bcd60e51b815260206004820152603960248201527f6275726e206665652070657263656e74616765206d757374206265206c6f776560448201527f72207468616e206272696467652066656520646976696465720000000000000060648201526084016200076b565b61010255565b6036546001600160a01b03163314620010715760405162461bcd60e51b81526004016200076b9062001f61565b600080546001600160a01b0319166001600160a01b0392909216919091179055565b6000805460405163787d871360e01b81523360048201526001600160a01b039091169063787d871390602401602060405180830381865afa158015620010dd573d6000803e3d6000fd5b505050506040513d601f19601f820116820180604052508101906200110391906200209d565b905080806200111c57506036546001600160a01b031633145b6200115b5760405162461bcd60e51b815260206004820152600e60248201526d24b73b30b634b21039b2b73232b960911b60448201526064016200076b565b816101036000828254620011709190620020d7565b90915550505050565b6036546001600160a01b03163314620011a65760405162461bcd60e51b81526004016200076b9062001f61565b6001600160a01b0381166200120d5760405162461bcd60e51b815260206004820152602660248201527f4f776e61626c653a206e6577206f776e657220697320746865207a65726f206160448201526564647265737360d01b60648201526084016200076b565b620008ce81620014bb565b60008060006127106101005485620012319190620020f2565b6200123d919062002114565b905060006127106101025483620012559190620020f2565b62001261919062002114565b91959194509092505050565b6001600160a01b03163b151590565b6036546001600160a01b03163314620008ce5760405162461bcd60e51b81526004016200076b9062001f61565b7f4910fdfa16fed3260ed0e7147f7cc6da11a60208b5b9406d12a635614ffd91435460ff1615620012e457620012df83620019a5565b505050565b826001600160a01b03166352d1902d6040518163ffffffff1660e01b8152600401602060405180830381865afa92505050801562001341575060408051601f3d908101601f191682019092526200133e9181019062002137565b60015b620013a65760405162461bcd60e51b815260206004820152602e60248201527f45524331393637557067726164653a206e657720696d706c656d656e7461746960448201526d6f6e206973206e6f74205555505360901b60648201526084016200076b565b60008051602062002be18339815191528114620014185760405162461bcd60e51b815260206004820152602960248201527f45524331393637557067726164653a20756e737570706f727465642070726f786044820152681a58589b195555525160ba1b60648201526084016200076b565b50620012df83838362001a44565b60685460ff16620014715760405162461bcd60e51b815260206004820152601460248201527314185d5cd8589b194e881b9bdd081c185d5cd95960621b60448201526064016200076b565b6068805460ff191690557f5db9ee0a495bf2e6ff9c91a7834c1ba4fdd244a5e8aa4e537bd38aeae4b073aa335b6040516001600160a01b03909116815260200160405180910390a1565b603680546001600160a01b038381166001600160a01b0319831681179093556040519116919082907f8be0079c531659141344cd1fd0a4f28419497f9722a3daafe3b4186f6b6457e090600090a35050565b60685460ff1615620015335760405162461bcd60e51b81526004016200076b9062002073565b6068805460ff191660011790557f62e78cea01bee320cd4e420270b5ea74000d11b0c9f74754ebdbfc544b05a2586200149e3390565b60685460ff16156200158f5760405162461bcd60e51b81526004016200076b9062002073565b60fe546001600160a01b0316620015e95760405162461bcd60e51b815260206004820152601f60248201527f4572726f723a20426561636f6e20666f722070726f7879206e6f74207365740060448201526064016200076b565b620015f48162001a75565b156200163c5760405162461bcd60e51b81526020600482015260166024820152757076455243323020616c72656164792065786973747360501b60448201526064016200076b565b60005462001654906001600160a01b03168262001aa2565b600060405180606001604052806029815260200162002c28602991396000805460405160806024820152601560a4820152742a37bab1b0b710283937ba37b1b7b61d102a21a79960591b60c482015260c06044820152600460e4820152632a21a79960e11b610104820152606481018690526001600160a01b0390911660848201529192509082906101240160408051601f198184030181529082905291620016fd9162002151565b60408051918290039091206020830180516001600160e01b03166001600160e01b031990921691909117905260fe5490519192506000916001600160a01b039091169083906200174d9062001d5c565b6200175a9291906200216f565b604051809103906000f08015801562001777573d6000803e3d6000fd5b5060005460405163043658a760e41b81526001600160a01b0380841660048301529293509116906343658a7090602401600060405180830381600087803b158015620017c257600080fd5b505af1158015620017d7573d6000803e3d6000fd5b5050600180548082019091557fb10e2d527612073b26eecdfd717e6a320cf44b4afac2b0732d9fcbe2b7fa0cf60180546001600160a01b0385166001600160a01b03199182168117909255600088815260026020908152604091829020805490931684179092558051898152918201929092527fc331dc3e37e2ab4d6e65d42a119ffdfab8481b9be24d26704f9f4b4a331d4dd0935001905060405180910390a150505050565b600354600090610100900460ff1615620018cc578160ff166001148015620018a55750303b155b620018c45760405162461bcd60e51b81526004016200076b906200219d565b506000919050565b60035460ff808416911610620018f65760405162461bcd60e51b81526004016200076b906200219d565b506003805460ff191660ff92909216919091179055600190565b600354610100900460ff1662000c995760405162461bcd60e51b81526004016200076b90620021eb565b600354610100900460ff16620019645760405162461bcd60e51b81526004016200076b90620021eb565b62000c9933620014bb565b600354610100900460ff16620019995760405162461bcd60e51b81526004016200076b90620021eb565b6068805460ff19169055565b6001600160a01b0381163b62001a145760405162461bcd60e51b815260206004820152602d60248201527f455243313936373a206e657720696d706c656d656e746174696f6e206973206e60448201526c1bdd08184818dbdb9d1c9858dd609a1b60648201526084016200076b565b60008051602062002be183398151915280546001600160a01b0319166001600160a01b0392909216919091179055565b62001a4f8362001bd8565b60008251118062001a5d5750805b15620012df5762001a6f838362001c1a565b50505050565b6000818152600260205260408120546001600160a01b031662001a9a57506000919050565b506001919050565b6000826001600160a01b031663a0af25606040518163ffffffff1660e01b8152600401602060405180830381865afa15801562001ae3573d6000803e3d6000fd5b505050506040513d601f19601f8201168201806040525081019062001b09919062002236565b604051634f558e7960e01b8152600481018490529091506001600160a01b03821690634f558e7990602401602060405180830381865afa15801562001b52573d6000803e3d6000fd5b505050506040513d601f19601f8201168201806040525081019062001b7891906200209d565b620012df5760405162461bcd60e51b815260206004820152602960248201527f436172626f6e2070726f6a6563742076696e7461676520646f6573206e6f74206044820152681e595d08195e1a5cdd60ba1b60648201526084016200076b565b62001be381620019a5565b6040516001600160a01b038216907fbc7cd75a20ee27fd9adebab32041f755214dbc6bffa90cc0225b39da2e5c2d3b90600090a250565b60606001600160a01b0383163b62001c845760405162461bcd60e51b815260206004820152602660248201527f416464726573733a2064656c65676174652063616c6c20746f206e6f6e2d636f6044820152651b9d1c9858dd60d21b60648201526084016200076b565b600080846001600160a01b03168460405162001ca1919062002151565b600060405180830381855af49150503d806000811462001cde576040519150601f19603f3d011682016040523d82523d6000602084013e62001ce3565b606091505b509150915062001d0e828260405180606001604052806027815260200162002c016027913962001d17565b95945050505050565b6060831562001d2857508162001d55565b82511562001d395782518084602001fd5b8160405162461bcd60e51b81526004016200076b919062001ee3565b9392505050565b61098a806200225783390190565b6001600160a01b0381168114620008ce57600080fd5b60006020828403121562001d9357600080fd5b813562001d558162001d6a565b634e487b7160e01b600052604160045260246000fd5b6000806040838503121562001dca57600080fd5b823562001dd78162001d6a565b9150602083013567ffffffffffffffff8082111562001df557600080fd5b818501915085601f83011262001e0a57600080fd5b81358181111562001e1f5762001e1f62001da0565b604051601f8201601f19908116603f0116810190838211818310171562001e4a5762001e4a62001da0565b8160405282815288602084870101111562001e6457600080fd5b8260208601602083013760006020848301015280955050505050509250929050565b60005b8381101562001ea357818101518382015260200162001e89565b8381111562001a6f5750506000910152565b6000815180845262001ecf81602086016020860162001e86565b601f01601f19169290920160200192915050565b60208152600062001d55602083018462001eb5565b60006020828403121562001f0b57600080fd5b5035919050565b6020808252825182820181905260009190848201906040850190845b8181101562001f555783516001600160a01b03168352928401929184019160010162001f2e565b50909695505050505050565b6020808252818101527f4f776e61626c653a2063616c6c6572206973206e6f7420746865206f776e6572604082015260600190565b6020808252602c908201527f46756e6374696f6e206d7573742062652063616c6c6564207468726f7567682060408201526b19195b1959d85d1958d85b1b60a21b606082015260800190565b6020808252602c908201527f46756e6374696f6e206d7573742062652063616c6c6564207468726f7567682060408201526b6163746976652070726f787960a01b606082015260800190565b60208082526025908201527f43616c6c6572206973206e6f74207468652072656769737472792c206e6f722060408201526437bbb732b960d91b606082015260800190565b60208082526010908201526f14185d5cd8589b194e881c185d5cd95960821b604082015260600190565b600060208284031215620020b057600080fd5b8151801515811462001d5557600080fd5b634e487b7160e01b600052601160045260246000fd5b60008219821115620020ed57620020ed620020c1565b500190565b60008160001904831182151516156200210f576200210f620020c1565b500290565b6000826200213257634e487b7160e01b600052601260045260246000fd5b500490565b6000602082840312156200214a57600080fd5b5051919050565b600082516200216581846020870162001e86565b9190910192915050565b6001600160a01b0383168152604060208201819052600090620021959083018462001eb5565b949350505050565b6020808252602e908201527f496e697469616c697a61626c653a20636f6e747261637420697320616c72656160408201526d191e481a5b9a5d1a585b1a5e995960921b606082015260800190565b6020808252602b908201527f496e697469616c697a61626c653a20636f6e7472616374206973206e6f74206960408201526a6e697469616c697a696e6760a81b606082015260800190565b6000602082840312156200224957600080fd5b815162001d558162001d6a56fe608060405260405161098a38038061098a8339810160408190526100229161048b565b61004d60017fa3f0ad74e5423aebfd80d3ef4346578335a9a72aeaee59ff6cb3582b35133d5161054b565b6000805160206109438339815191521461006957610069610570565b6100758282600061007c565b50506105f0565b61008583610147565b6040516001600160a01b038416907f1cf3b03a6cf19fa2baba4df148e9dcabedea7f8a5c07840e207e5c089be95d3e90600090a26000825111806100c65750805b1561014257610140836001600160a01b0316635c60da1b6040518163ffffffff1660e01b8152600401602060405180830381865afa15801561010c573d6000803e3d6000fd5b505050506040513d601f19601f820116820180604052508101906101309190610586565b836102d860201b6100291760201c565b505b505050565b61015a8161030460201b6100551760201c565b6101b95760405162461bcd60e51b815260206004820152602560248201527f455243313936373a206e657720626561636f6e206973206e6f74206120636f6e6044820152641d1c9858dd60da1b60648201526084015b60405180910390fd5b61022d816001600160a01b0316635c60da1b6040518163ffffffff1660e01b8152600401602060405180830381865afa1580156101fa573d6000803e3d6000fd5b505050506040513d601f19601f8201168201806040525081019061021e9190610586565b61030460201b6100551760201c565b6102925760405162461bcd60e51b815260206004820152603060248201527f455243313936373a20626561636f6e20696d706c656d656e746174696f6e206960448201526f1cc81b9bdd08184818dbdb9d1c9858dd60821b60648201526084016101b0565b806102b760008051602061094383398151915260001b61031360201b6100641760201c565b80546001600160a01b0319166001600160a01b039290921691909117905550565b60606102fd838360405180606001604052806027815260200161096360279139610316565b9392505050565b6001600160a01b03163b151590565b90565b60606001600160a01b0384163b61037e5760405162461bcd60e51b815260206004820152602660248201527f416464726573733a2064656c65676174652063616c6c20746f206e6f6e2d636f6044820152651b9d1c9858dd60d21b60648201526084016101b0565b600080856001600160a01b03168560405161039991906105a1565b600060405180830381855af49150503d80600081146103d4576040519150601f19603f3d011682016040523d82523d6000602084013e6103d9565b606091505b5090925090506103ea8282866103f4565b9695505050505050565b606083156104035750816102fd565b8251156104135782518084602001fd5b8160405162461bcd60e51b81526004016101b091906105bd565b80516001600160a01b038116811461044457600080fd5b919050565b634e487b7160e01b600052604160045260246000fd5b60005b8381101561047a578181015183820152602001610462565b838111156101405750506000910152565b6000806040838503121561049e57600080fd5b6104a78361042d565b60208401519092506001600160401b03808211156104c457600080fd5b818501915085601f8301126104d857600080fd5b8151818111156104ea576104ea610449565b604051601f8201601f19908116603f0116810190838211818310171561051257610512610449565b8160405282815288602084870101111561052b57600080fd5b61053c83602083016020880161045f565b80955050505050509250929050565b60008282101561056b57634e487b7160e01b600052601160045260246000fd5b500390565b634e487b7160e01b600052600160045260246000fd5b60006020828403121561059857600080fd5b6102fd8261042d565b600082516105b381846020870161045f565b9190910192915050565b60208152600082518060208401526105dc81604085016020870161045f565b601f01601f19169190910160400192915050565b610344806105ff6000396000f3fe60806040523661001357610011610017565b005b6100115b610027610022610067565b610100565b565b606061004e83836040518060600160405280602781526020016102e860279139610124565b9392505050565b6001600160a01b03163b151590565b90565b600061009a7fa3f0ad74e5423aebfd80d3ef4346578335a9a72aeaee59ff6cb3582b35133d50546001600160a01b031690565b6001600160a01b0316635c60da1b6040518163ffffffff1660e01b8152600401602060405180830381865afa1580156100d7573d6000803e3d6000fd5b505050506040513d601f19601f820116820180604052508101906100fb919061023f565b905090565b3660008037600080366000845af43d6000803e80801561011f573d6000f35b3d6000fd5b60606001600160a01b0384163b6101915760405162461bcd60e51b815260206004820152602660248201527f416464726573733a2064656c65676174652063616c6c20746f206e6f6e2d636f6044820152651b9d1c9858dd60d21b60648201526084015b60405180910390fd5b600080856001600160a01b0316856040516101ac9190610298565b600060405180830381855af49150503d80600081146101e7576040519150601f19603f3d011682016040523d82523d6000602084013e6101ec565b606091505b50915091506101fc828286610206565b9695505050505050565b6060831561021557508161004e565b8251156102255782518084602001fd5b8160405162461bcd60e51b815260040161018891906102b4565b60006020828403121561025157600080fd5b81516001600160a01b038116811461004e57600080fd5b60005b8381101561028357818101518382015260200161026b565b83811115610292576000848401525b50505050565b600082516102aa818460208701610268565b9190910192915050565b60208152600082518060208401526102d3816040850160208701610268565b601f01601f1916919091016040019291505056fe416464726573733a206c6f772d6c6576656c2064656c65676174652063616c6c206661696c6564a2646970667358221220eeccfe8a308b7a851f215122d440957c3709c862bc4a198ff8fa847745f9e8e964736f6c634300080e0033a3f0ad74e5423aebfd80d3ef4346578335a9a72aeaee59ff6cb3582b35133d50416464726573733a206c6f772d6c6576656c2064656c65676174652063616c6c206661696c6564360894a13ba1a3210667c828492db98dca3e2076cc3735a920a3ca505d382bbc416464726573733a206c6f772d6c6576656c2064656c65676174652063616c6c206661696c6564696e697469616c697a6528737472696e672c737472696e672c75696e743235362c6164647265737329a26469706673582212204812306b833aeac74911a8cab39552670bb68e52ed8649af3f8234470c66468164736f6c634300080e0033496e697469616c697a61626c653a20636f6e747261637420697320616c726561",
  "devdoc": {
    "kind": "dev",
    "methods": {
      "constructor": {
        "custom:oz-upgrades-unsafe-allow": "constructor"
      },
      "deployFromVintage(uint256)": {
        "details": "Deploys a TCO2 contract based on a project vintage",
        "params": {
          "projectVintageTokenId": "numeric tokenId from vintage in `CarbonProjectVintages`"
        }
      },
      "getContracts()": {
        "details": "Returns all addresses of deployed TCO2 contracts"
      },
      "owner()": {
        "details": "Returns the address of the current owner."
      },
      "pause()": {
        "details": "wraps _pause(), only Admin"
      },
      "paused()": {
        "details": "Returns true if the contract is paused, and false otherwise."
      },
      "proxiableUUID()": {
        "details": "Implementation of the ERC1822 {proxiableUUID} function. This returns the storage slot used by the implementation. It is used to validate that the this implementation remains valid after an upgrade. IMPORTANT: A proxy pointing at a proxiable contract should not be considered proxiable itself, because this risks bricking a proxy that upgrades to it, by delegating to itself until out of gas. Thus it is critical that this function revert if invoked through a proxy. This is guaranteed by the `notDelegated` modifier."
      },
      "renounceOwnership()": {
        "details": "Leaves the contract without owner. It will not be possible to call `onlyOwner` functions anymore. Can only be called by the current owner. NOTE: Renouncing ownership will leave the contract without an owner, thereby removing any functionality that is only available to the owner."
      },
      "setBeacon(address)": {
        "details": "sets the Beacon that tracks the current implementation logic of the TCO2s"
      },
      "setBridgeFeeBurnAddress(address)": {
        "params": {
          "_bridgeFeeBurnAddress": "address to transfer the fees to burn"
        }
      },
      "setBridgeFeeBurnPercentage(uint256)": {
        "params": {
          "_bridgeFeeBurnPercentageInBase": "percentage of bridge fee in base"
        }
      },
      "setBridgeFeePercentage(uint256)": {
        "params": {
          "_bridgeFeePercentageInBase": "percentage of bridge fee in base"
        }
      },
      "setBridgeFeeReceiver(address)": {
        "params": {
          "_bridgeFeeReceiver": "address to transfer the fees"
        }
      },
      "setToucanContractRegistry(address)": {
        "details": "set the registry contract to be tracked"
      },
      "transferOwnership(address)": {
        "details": "Transfers ownership of the contract to a new account (`newOwner`). Can only be called by the current owner."
      },
      "unpause()": {
        "details": "unpause the system, wraps _unpause(), only Admin"
      },
      "upgradeTo(address)": {
        "details": "Upgrade the implementation of the proxy to `newImplementation`. Calls {_authorizeUpgrade}. Emits an {Upgraded} event."
      },
      "upgradeToAndCall(address,bytes)": {
        "details": "Upgrade the implementation of the proxy to `newImplementation`, and subsequently execute the function call encoded in `data`. Calls {_authorizeUpgrade}. Emits an {Upgraded} event."
      },
      "version()": {
        "details": "Returns the current version of the smart contract"
      }
    },
    "version": 1
  },
  "userdoc": {
    "kind": "user",
    "methods": {
      "addToAllowedBridges(address)": {
        "notice": "adds account to the allowedBridges list meant to be used only for cross-chain bridging"
      },
      "allowedBridges(address)": {
        "notice": "meant to be used only for cross-chain bridging"
      },
      "pause()": {
        "notice": "Emergency function to disable contract's core functionality"
      },
      "removeFromAllowedBridges(address)": {
        "notice": "removes account from the allowedBridges list meant to be used only for cross-chain bridging"
      },
      "setBridgeFeeBurnAddress(address)": {
        "notice": "Update the bridge fee burn address"
      },
      "setBridgeFeeBurnPercentage(uint256)": {
        "notice": "Update the bridge fee burning percentage"
      },
      "setBridgeFeePercentage(uint256)": {
        "notice": "Update the bridge fee percentage"
      },
      "setBridgeFeeReceiver(address)": {
        "notice": "Update the bridge fee receiver"
      }
    },
    "notice": "This TCO2 factory creates project-vintage-specific ERC20 contracts for Batch-NFT fractionalization Locks in received ERC721 Batch-NFTs and can mint corresponding quantity of ERC20s Permissionless, anyone can deploy new ERC20s unless they do not yet exist and pid exists",
    "version": 1
  },
  "storageLayout": {
    "storage": [
      {
        "astId": 11721,
        "contract": "contracts/ToucanCarbonOffsetsFactory.sol:ToucanCarbonOffsetsFactory",
        "label": "contractRegistry",
        "offset": 0,
        "slot": "0",
        "type": "t_address"
      },
      {
        "astId": 11724,
        "contract": "contracts/ToucanCarbonOffsetsFactory.sol:ToucanCarbonOffsetsFactory",
        "label": "deployedContracts",
        "offset": 0,
        "slot": "1",
        "type": "t_array(t_address)dyn_storage"
      },
      {
        "astId": 11728,
        "contract": "contracts/ToucanCarbonOffsetsFactory.sol:ToucanCarbonOffsetsFactory",
        "label": "pvIdtoERC20",
        "offset": 0,
        "slot": "2",
        "type": "t_mapping(t_uint256,t_address)"
      },
      {
        "astId": 1489,
        "contract": "contracts/ToucanCarbonOffsetsFactory.sol:ToucanCarbonOffsetsFactory",
        "label": "_initialized",
        "offset": 0,
        "slot": "3",
        "type": "t_uint8"
      },
      {
        "astId": 1492,
        "contract": "contracts/ToucanCarbonOffsetsFactory.sol:ToucanCarbonOffsetsFactory",
        "label": "_initializing",
        "offset": 1,
        "slot": "3",
        "type": "t_bool"
      },
      {
        "astId": 4534,
        "contract": "contracts/ToucanCarbonOffsetsFactory.sol:ToucanCarbonOffsetsFactory",
        "label": "__gap",
        "offset": 0,
        "slot": "4",
        "type": "t_array(t_uint256)50_storage"
      },
      {
        "astId": 980,
        "contract": "contracts/ToucanCarbonOffsetsFactory.sol:ToucanCarbonOffsetsFactory",
        "label": "_owner",
        "offset": 0,
        "slot": "54",
        "type": "t_address"
      },
      {
        "astId": 1092,
        "contract": "contracts/ToucanCarbonOffsetsFactory.sol:ToucanCarbonOffsetsFactory",
        "label": "__gap",
        "offset": 0,
        "slot": "55",
        "type": "t_array(t_uint256)49_storage"
      },
      {
        "astId": 1781,
        "contract": "contracts/ToucanCarbonOffsetsFactory.sol:ToucanCarbonOffsetsFactory",
        "label": "_paused",
        "offset": 0,
        "slot": "104",
        "type": "t_bool"
      },
      {
        "astId": 1870,
        "contract": "contracts/ToucanCarbonOffsetsFactory.sol:ToucanCarbonOffsetsFactory",
        "label": "__gap",
        "offset": 0,
        "slot": "105",
        "type": "t_array(t_uint256)49_storage"
      },
      {
        "astId": 1471,
        "contract": "contracts/ToucanCarbonOffsetsFactory.sol:ToucanCarbonOffsetsFactory",
        "label": "__gap",
        "offset": 0,
        "slot": "154",
        "type": "t_array(t_uint256)50_storage"
      },
      {
        "astId": 1759,
        "contract": "contracts/ToucanCarbonOffsetsFactory.sol:ToucanCarbonOffsetsFactory",
        "label": "__gap",
        "offset": 0,
        "slot": "204",
        "type": "t_array(t_uint256)50_storage"
      },
      {
        "astId": 11732,
        "contract": "contracts/ToucanCarbonOffsetsFactory.sol:ToucanCarbonOffsetsFactory",
        "label": "beacon",
        "offset": 0,
        "slot": "254",
        "type": "t_address"
      },
      {
        "astId": 11734,
        "contract": "contracts/ToucanCarbonOffsetsFactory.sol:ToucanCarbonOffsetsFactory",
        "label": "bridgeFeeReceiver",
        "offset": 0,
        "slot": "255",
        "type": "t_address"
      },
      {
        "astId": 11736,
        "contract": "contracts/ToucanCarbonOffsetsFactory.sol:ToucanCarbonOffsetsFactory",
        "label": "bridgeFeePercentageInBase",
        "offset": 0,
        "slot": "256",
        "type": "t_uint256"
      },
      {
        "astId": 11738,
        "contract": "contracts/ToucanCarbonOffsetsFactory.sol:ToucanCarbonOffsetsFactory",
        "label": "bridgeFeeBurnAddress",
        "offset": 0,
        "slot": "257",
        "type": "t_address"
      },
      {
        "astId": 11740,
        "contract": "contracts/ToucanCarbonOffsetsFactory.sol:ToucanCarbonOffsetsFactory",
        "label": "bridgeFeeBurnPercentageInBase",
        "offset": 0,
        "slot": "258",
        "type": "t_uint256"
      },
      {
        "astId": 11742,
        "contract": "contracts/ToucanCarbonOffsetsFactory.sol:ToucanCarbonOffsetsFactory",
        "label": "totalRetired",
        "offset": 0,
        "slot": "259",
        "type": "t_uint256"
      },
      {
        "astId": 11749,
        "contract": "contracts/ToucanCarbonOffsetsFactory.sol:ToucanCarbonOffsetsFactory",
        "label": "allowedBridges",
        "offset": 0,
        "slot": "260",
        "type": "t_mapping(t_address,t_bool)"
      },
      {
        "astId": 11760,
        "contract": "contracts/ToucanCarbonOffsetsFactory.sol:ToucanCarbonOffsetsFactory",
        "label": "__gap",
        "offset": 0,
        "slot": "261",
        "type": "t_array(t_uint256)44_storage"
      }
    ],
    "types": {
      "t_address": {
        "encoding": "inplace",
        "label": "address",
        "numberOfBytes": "20"
      },
      "t_array(t_address)dyn_storage": {
        "base": "t_address",
        "encoding": "dynamic_array",
        "label": "address[]",
        "numberOfBytes": "32"
      },
      "t_array(t_uint256)44_storage": {
        "base": "t_uint256",
        "encoding": "inplace",
        "label": "uint256[44]",
        "numberOfBytes": "1408"
      },
      "t_array(t_uint256)49_storage": {
        "base": "t_uint256",
        "encoding": "inplace",
        "label": "uint256[49]",
        "numberOfBytes": "1568"
      },
      "t_array(t_uint256)50_storage": {
        "base": "t_uint256",
        "encoding": "inplace",
        "label": "uint256[50]",
        "numberOfBytes": "1600"
      },
      "t_bool": {
        "encoding": "inplace",
        "label": "bool",
        "numberOfBytes": "1"
      },
      "t_mapping(t_address,t_bool)": {
        "encoding": "mapping",
        "key": "t_address",
        "label": "mapping(address => bool)",
        "numberOfBytes": "32",
        "value": "t_bool"
      },
      "t_mapping(t_uint256,t_address)": {
        "encoding": "mapping",
        "key": "t_uint256",
        "label": "mapping(uint256 => address)",
        "numberOfBytes": "32",
        "value": "t_address"
      },
      "t_uint256": {
        "encoding": "inplace",
        "label": "uint256",
        "numberOfBytes": "32"
      },
      "t_uint8": {
        "encoding": "inplace",
        "label": "uint8",
        "numberOfBytes": "1"
      }
    }
  }
}