{
  "address": "0xAC8b0cA9F166b0dA84b0209710b69553105423f2",
  "abi": [
    {
      "inputs": [],
      "stateMutability": "nonpayable",
      "type": "constructor"
    },
    {
      "anonymous": false,
      "inputs": [
        {
          "indexed": false,
          "internalType": "address",
          "name": "previousAdmin",
          "type": "address"
        },
        {
          "indexed": false,
          "internalType": "address",
          "name": "newAdmin",
          "type": "address"
        }
      ],
      "name": "AdminChanged",
      "type": "event"
    },
    {
      "anonymous": false,
      "inputs": [
        {
          "indexed": true,
          "internalType": "address",
          "name": "owner",
          "type": "address"
        },
        {
          "indexed": true,
          "internalType": "address",
          "name": "approved",
          "type": "address"
        },
        {
          "indexed": true,
          "internalType": "uint256",
          "name": "tokenId",
          "type": "uint256"
        }
      ],
      "name": "Approval",
      "type": "event"
    },
    {
      "anonymous": false,
      "inputs": [
        {
          "indexed": true,
          "internalType": "address",
          "name": "owner",
          "type": "address"
        },
        {
          "indexed": true,
          "internalType": "address",
          "name": "operator",
          "type": "address"
        },
        {
          "indexed": false,
          "internalType": "bool",
          "name": "approved",
          "type": "bool"
        }
      ],
      "name": "ApprovalForAll",
      "type": "event"
    },
    {
      "anonymous": false,
      "inputs": [
        {
          "indexed": false,
          "internalType": "uint256",
          "name": "tokenId",
          "type": "uint256"
        },
        {
          "indexed": false,
          "internalType": "uint256",
          "name": "commentId",
          "type": "uint256"
        },
        {
          "indexed": false,
          "internalType": "address",
          "name": "sender",
          "type": "address"
        },
        {
          "indexed": false,
          "internalType": "string",
          "name": "comment",
          "type": "string"
        }
      ],
      "name": "BatchComment",
      "type": "event"
    },
    {
      "anonymous": false,
      "inputs": [
        {
          "indexed": false,
          "internalType": "uint256",
          "name": "tokenId",
          "type": "uint256"
        },
        {
          "indexed": false,
          "internalType": "uint256",
          "name": "projectVintageTokenId",
          "type": "uint256"
        }
      ],
      "name": "BatchLinkedWithVintage",
      "type": "event"
    },
    {
      "anonymous": false,
      "inputs": [
        {
          "indexed": false,
          "internalType": "address",
          "name": "sender",
          "type": "address"
        },
        {
          "indexed": false,
          "internalType": "uint256",
          "name": "tokenId",
          "type": "uint256"
        }
      ],
      "name": "BatchMinted",
      "type": "event"
    },
    {
      "anonymous": false,
      "inputs": [
        {
          "indexed": false,
          "internalType": "uint256",
          "name": "tokenId",
          "type": "uint256"
        },
        {
          "indexed": false,
          "internalType": "enum BatchStatus",
          "name": "status",
          "type": "uint8"
        }
      ],
      "name": "BatchStatusUpdate",
      "type": "event"
    },
    {
      "anonymous": false,
      "inputs": [
        {
          "indexed": false,
          "internalType": "uint256",
          "name": "tokenId",
          "type": "uint256"
        },
        {
          "indexed": false,
          "internalType": "string",
          "name": "serialNumber",
          "type": "string"
        },
        {
          "indexed": false,
          "internalType": "uint256",
          "name": "quantity",
          "type": "uint256"
        }
      ],
      "name": "BatchUpdated",
      "type": "event"
    },
    {
      "anonymous": false,
      "inputs": [
        {
          "indexed": true,
          "internalType": "address",
          "name": "beacon",
          "type": "address"
        }
      ],
      "name": "BeaconUpgraded",
      "type": "event"
    },
    {
      "anonymous": false,
      "inputs": [
        {
          "indexed": false,
          "internalType": "uint8",
          "name": "version",
          "type": "uint8"
        }
      ],
      "name": "Initialized",
      "type": "event"
    },
    {
      "anonymous": false,
      "inputs": [
        {
          "indexed": true,
          "internalType": "address",
          "name": "previousOwner",
          "type": "address"
        },
        {
          "indexed": true,
          "internalType": "address",
          "name": "newOwner",
          "type": "address"
        }
      ],
      "name": "OwnershipTransferred",
      "type": "event"
    },
    {
      "anonymous": false,
      "inputs": [
        {
          "indexed": false,
          "internalType": "address",
          "name": "account",
          "type": "address"
        }
      ],
      "name": "Paused",
      "type": "event"
    },
    {
      "anonymous": false,
      "inputs": [
        {
          "indexed": false,
          "internalType": "string",
          "name": "registry",
          "type": "string"
        },
        {
          "indexed": false,
          "internalType": "bool",
          "name": "isSupported",
          "type": "bool"
        }
      ],
      "name": "RegistrySupported",
      "type": "event"
    },
    {
      "anonymous": false,
      "inputs": [
        {
          "indexed": true,
          "internalType": "bytes32",
          "name": "role",
          "type": "bytes32"
        },
        {
          "indexed": true,
          "internalType": "bytes32",
          "name": "previousAdminRole",
          "type": "bytes32"
        },
        {
          "indexed": true,
          "internalType": "bytes32",
          "name": "newAdminRole",
          "type": "bytes32"
        }
      ],
      "name": "RoleAdminChanged",
      "type": "event"
    },
    {
      "anonymous": false,
      "inputs": [
        {
          "indexed": true,
          "internalType": "bytes32",
          "name": "role",
          "type": "bytes32"
        },
        {
          "indexed": true,
          "internalType": "address",
          "name": "account",
          "type": "address"
        },
        {
          "indexed": true,
          "internalType": "address",
          "name": "sender",
          "type": "address"
        }
      ],
      "name": "RoleGranted",
      "type": "event"
    },
    {
      "anonymous": false,
      "inputs": [
        {
          "indexed": true,
          "internalType": "bytes32",
          "name": "role",
          "type": "bytes32"
        },
        {
          "indexed": true,
          "internalType": "address",
          "name": "account",
          "type": "address"
        },
        {
          "indexed": true,
          "internalType": "address",
          "name": "sender",
          "type": "address"
        }
      ],
      "name": "RoleRevoked",
      "type": "event"
    },
    {
      "anonymous": false,
      "inputs": [
        {
          "indexed": false,
          "internalType": "uint256",
          "name": "tokenId",
          "type": "uint256"
        },
        {
          "indexed": false,
          "internalType": "uint256",
          "name": "newTokenId",
          "type": "uint256"
        }
      ],
      "name": "Split",
      "type": "event"
    },
    {
      "anonymous": false,
      "inputs": [
        {
          "indexed": false,
          "internalType": "uint256",
          "name": "tokenId",
          "type": "uint256"
        },
        {
          "indexed": false,
          "internalType": "address",
          "name": "tco2",
          "type": "address"
        },
        {
          "indexed": true,
          "internalType": "address",
          "name": "recipient",
          "type": "address"
        },
        {
          "indexed": false,
          "internalType": "uint256",
          "name": "amount",
          "type": "uint256"
        }
      ],
      "name": "Tokenized",
      "type": "event"
    },
    {
      "anonymous": false,
      "inputs": [
        {
          "indexed": true,
          "internalType": "address",
          "name": "from",
          "type": "address"
        },
        {
          "indexed": true,
          "internalType": "address",
          "name": "to",
          "type": "address"
        },
        {
          "indexed": true,
          "internalType": "uint256",
          "name": "tokenId",
          "type": "uint256"
        }
      ],
      "name": "Transfer",
      "type": "event"
    },
    {
      "anonymous": false,
      "inputs": [
        {
          "indexed": false,
          "internalType": "address",
          "name": "account",
          "type": "address"
        }
      ],
      "name": "Unpaused",
      "type": "event"
    },
    {
      "anonymous": false,
      "inputs": [
        {
          "indexed": true,
          "internalType": "address",
          "name": "implementation",
          "type": "address"
        }
      ],
      "name": "Upgraded",
      "type": "event"
    },
    {
      "inputs": [],
      "name": "DEFAULT_ADMIN_ROLE",
      "outputs": [
        {
          "internalType": "bytes32",
          "name": "",
          "type": "bytes32"
        }
      ],
      "stateMutability": "view",
      "type": "function"
    },
    {
      "inputs": [],
      "name": "TOKENIZER_ROLE",
      "outputs": [
        {
          "internalType": "bytes32",
          "name": "",
          "type": "bytes32"
        }
      ],
      "stateMutability": "view",
      "type": "function"
    },
    {
      "inputs": [],
      "name": "VERIFIER_ROLE",
      "outputs": [
        {
          "internalType": "bytes32",
          "name": "",
          "type": "bytes32"
        }
      ],
      "stateMutability": "view",
      "type": "function"
    },
    {
      "inputs": [],
      "name": "VERSION",
      "outputs": [
        {
          "internalType": "string",
          "name": "",
          "type": "string"
        }
      ],
      "stateMutability": "view",
      "type": "function"
    },
    {
      "inputs": [],
      "name": "VERSION_RELEASE_CANDIDATE",
      "outputs": [
        {
          "internalType": "uint256",
          "name": "",
          "type": "uint256"
        }
      ],
      "stateMutability": "view",
      "type": "function"
    },
    {
      "inputs": [
        {
          "internalType": "uint256",
          "name": "tokenId",
          "type": "uint256"
        },
        {
          "internalType": "string",
          "name": "comment",
          "type": "string"
        }
      ],
      "name": "addComment",
      "outputs": [],
      "stateMutability": "nonpayable",
      "type": "function"
    },
    {
      "inputs": [
        {
          "internalType": "address",
          "name": "to",
          "type": "address"
        },
        {
          "internalType": "uint256",
          "name": "tokenId",
          "type": "uint256"
        }
      ],
      "name": "approve",
      "outputs": [],
      "stateMutability": "nonpayable",
      "type": "function"
    },
    {
      "inputs": [
        {
          "internalType": "address",
          "name": "owner",
          "type": "address"
        }
      ],
      "name": "balanceOf",
      "outputs": [
        {
          "internalType": "uint256",
          "name": "",
          "type": "uint256"
        }
      ],
      "stateMutability": "view",
      "type": "function"
    },
    {
      "inputs": [],
      "name": "batchTokenCounter",
      "outputs": [
        {
          "internalType": "uint256",
          "name": "",
          "type": "uint256"
        }
      ],
      "stateMutability": "view",
      "type": "function"
    },
    {
      "inputs": [
        {
          "internalType": "uint256",
          "name": "tokenId",
          "type": "uint256"
        }
      ],
      "name": "confirmBatch",
      "outputs": [],
      "stateMutability": "nonpayable",
      "type": "function"
    },
    {
      "inputs": [
        {
          "internalType": "uint256",
          "name": "tokenId",
          "type": "uint256"
        },
        {
          "internalType": "uint256",
          "name": "projectVintageTokenId",
          "type": "uint256"
        }
      ],
      "name": "confirmBatchWithVintage",
      "outputs": [],
      "stateMutability": "nonpayable",
      "type": "function"
    },
    {
      "inputs": [],
      "name": "contractRegistry",
      "outputs": [
        {
          "internalType": "address",
          "name": "",
          "type": "address"
        }
      ],
      "stateMutability": "view",
      "type": "function"
    },
    {
      "inputs": [
        {
          "internalType": "uint256",
          "name": "tokenId",
          "type": "uint256"
        }
      ],
      "name": "fractionalize",
      "outputs": [],
      "stateMutability": "nonpayable",
      "type": "function"
    },
    {
      "inputs": [
        {
          "internalType": "uint256",
          "name": "tokenId",
          "type": "uint256"
        }
      ],
      "name": "getApproved",
      "outputs": [
        {
          "internalType": "address",
          "name": "",
          "type": "address"
        }
      ],
      "stateMutability": "view",
      "type": "function"
    },
    {
      "inputs": [
        {
          "internalType": "uint256",
          "name": "tokenId",
          "type": "uint256"
        }
      ],
      "name": "getBatchNFTData",
      "outputs": [
        {
          "internalType": "uint256",
          "name": "",
          "type": "uint256"
        },
        {
          "internalType": "uint256",
          "name": "",
          "type": "uint256"
        },
        {
          "internalType": "enum BatchStatus",
          "name": "",
          "type": "uint8"
        }
      ],
      "stateMutability": "view",
      "type": "function"
    },
    {
      "inputs": [
        {
          "internalType": "uint256",
          "name": "tokenId",
          "type": "uint256"
        }
      ],
      "name": "getComments",
      "outputs": [
        {
          "internalType": "string[]",
          "name": "",
          "type": "string[]"
        },
        {
          "internalType": "address[]",
          "name": "",
          "type": "address[]"
        }
      ],
      "stateMutability": "view",
      "type": "function"
    },
    {
      "inputs": [
        {
          "internalType": "uint256",
          "name": "tokenId",
          "type": "uint256"
        }
      ],
      "name": "getConfirmationStatus",
      "outputs": [
        {
          "internalType": "enum BatchStatus",
          "name": "",
          "type": "uint8"
        }
      ],
      "stateMutability": "view",
      "type": "function"
    },
    {
      "inputs": [
        {
          "internalType": "bytes32",
          "name": "role",
          "type": "bytes32"
        }
      ],
      "name": "getRoleAdmin",
      "outputs": [
        {
          "internalType": "bytes32",
          "name": "",
          "type": "bytes32"
        }
      ],
      "stateMutability": "view",
      "type": "function"
    },
    {
      "inputs": [
        {
          "internalType": "uint256",
          "name": "tokenId",
          "type": "uint256"
        }
      ],
      "name": "getSerialNumber",
      "outputs": [
        {
          "internalType": "string",
          "name": "",
          "type": "string"
        }
      ],
      "stateMutability": "view",
      "type": "function"
    },
    {
      "inputs": [
        {
          "internalType": "bytes32",
          "name": "role",
          "type": "bytes32"
        },
        {
          "internalType": "address",
          "name": "account",
          "type": "address"
        }
      ],
      "name": "grantRole",
      "outputs": [],
      "stateMutability": "nonpayable",
      "type": "function"
    },
    {
      "inputs": [
        {
          "internalType": "bytes32",
          "name": "role",
          "type": "bytes32"
        },
        {
          "internalType": "address",
          "name": "account",
          "type": "address"
        }
      ],
      "name": "hasRole",
      "outputs": [
        {
          "internalType": "bool",
          "name": "",
          "type": "bool"
        }
      ],
      "stateMutability": "view",
      "type": "function"
    },
    {
      "inputs": [
        {
          "internalType": "address",
          "name": "_contractRegistry",
          "type": "address"
        }
      ],
      "name": "initialize",
      "outputs": [],
      "stateMutability": "nonpayable",
      "type": "function"
    },
    {
      "inputs": [
        {
          "internalType": "address",
          "name": "owner",
          "type": "address"
        },
        {
          "internalType": "address",
          "name": "operator",
          "type": "address"
        }
      ],
      "name": "isApprovedForAll",
      "outputs": [
        {
          "internalType": "bool",
          "name": "",
          "type": "bool"
        }
      ],
      "stateMutability": "view",
      "type": "function"
    },
    {
      "inputs": [
        {
          "internalType": "uint256",
          "name": "tokenId",
          "type": "uint256"
        },
        {
          "internalType": "uint256",
          "name": "projectVintageTokenId",
          "type": "uint256"
        }
      ],
      "name": "linkWithVintage",
      "outputs": [],
      "stateMutability": "nonpayable",
      "type": "function"
    },
    {
      "inputs": [
        {
          "internalType": "address",
          "name": "to",
          "type": "address"
        }
      ],
      "name": "mintEmptyBatch",
      "outputs": [
        {
          "internalType": "uint256",
          "name": "",
          "type": "uint256"
        }
      ],
      "stateMutability": "nonpayable",
      "type": "function"
    },
    {
      "inputs": [],
      "name": "name",
      "outputs": [
        {
          "internalType": "string",
          "name": "",
          "type": "string"
        }
      ],
      "stateMutability": "view",
      "type": "function"
    },
    {
      "inputs": [
        {
          "internalType": "uint256",
          "name": "",
          "type": "uint256"
        }
      ],
      "name": "nftList",
      "outputs": [
        {
          "internalType": "uint256",
          "name": "projectVintageTokenId",
          "type": "uint256"
        },
        {
          "internalType": "string",
          "name": "serialNumber",
          "type": "string"
        },
        {
          "internalType": "uint256",
          "name": "quantity",
          "type": "uint256"
        },
        {
          "internalType": "enum BatchStatus",
          "name": "status",
          "type": "uint8"
        },
        {
          "internalType": "string",
          "name": "uri",
          "type": "string"
        }
      ],
      "stateMutability": "view",
      "type": "function"
    },
    {
      "inputs": [
        {
          "internalType": "address",
          "name": "",
          "type": "address"
        },
        {
          "internalType": "address",
          "name": "from",
          "type": "address"
        },
        {
          "internalType": "uint256",
          "name": "",
          "type": "uint256"
        },
        {
          "internalType": "bytes",
          "name": "",
          "type": "bytes"
        }
      ],
      "name": "onERC721Received",
      "outputs": [
        {
          "internalType": "bytes4",
          "name": "",
          "type": "bytes4"
        }
      ],
      "stateMutability": "pure",
      "type": "function"
    },
    {
      "inputs": [],
      "name": "owner",
      "outputs": [
        {
          "internalType": "address",
          "name": "",
          "type": "address"
        }
      ],
      "stateMutability": "view",
      "type": "function"
    },
    {
      "inputs": [
        {
          "internalType": "uint256",
          "name": "tokenId",
          "type": "uint256"
        }
      ],
      "name": "ownerOf",
      "outputs": [
        {
          "internalType": "address",
          "name": "",
          "type": "address"
        }
      ],
      "stateMutability": "view",
      "type": "function"
    },
    {
      "inputs": [],
      "name": "pause",
      "outputs": [],
      "stateMutability": "nonpayable",
      "type": "function"
    },
    {
      "inputs": [],
      "name": "paused",
      "outputs": [
        {
          "internalType": "bool",
          "name": "",
          "type": "bool"
        }
      ],
      "stateMutability": "view",
      "type": "function"
    },
    {
      "inputs": [],
      "name": "proxiableUUID",
      "outputs": [
        {
          "internalType": "bytes32",
          "name": "",
          "type": "bytes32"
        }
      ],
      "stateMutability": "view",
      "type": "function"
    },
    {
      "inputs": [
        {
          "internalType": "uint256",
          "name": "tokenId",
          "type": "uint256"
        },
        {
          "internalType": "string",
          "name": "comment",
          "type": "string"
        }
      ],
      "name": "rejectApprovedWithComment",
      "outputs": [],
      "stateMutability": "nonpayable",
      "type": "function"
    },
    {
      "inputs": [
        {
          "internalType": "uint256",
          "name": "tokenId",
          "type": "uint256"
        }
      ],
      "name": "rejectBatch",
      "outputs": [],
      "stateMutability": "nonpayable",
      "type": "function"
    },
    {
      "inputs": [
        {
          "internalType": "uint256",
          "name": "tokenId",
          "type": "uint256"
        },
        {
          "internalType": "string",
          "name": "comment",
          "type": "string"
        }
      ],
      "name": "rejectWithComment",
      "outputs": [],
      "stateMutability": "nonpayable",
      "type": "function"
    },
    {
      "inputs": [],
      "name": "renounceOwnership",
      "outputs": [],
      "stateMutability": "nonpayable",
      "type": "function"
    },
    {
      "inputs": [
        {
          "internalType": "bytes32",
          "name": "role",
          "type": "bytes32"
        },
        {
          "internalType": "address",
          "name": "account",
          "type": "address"
        }
      ],
      "name": "renounceRole",
      "outputs": [],
      "stateMutability": "nonpayable",
      "type": "function"
    },
    {
      "inputs": [
        {
          "internalType": "bytes32",
          "name": "role",
          "type": "bytes32"
        },
        {
          "internalType": "address",
          "name": "account",
          "type": "address"
        }
      ],
      "name": "revokeRole",
      "outputs": [],
      "stateMutability": "nonpayable",
      "type": "function"
    },
    {
      "inputs": [
        {
          "internalType": "address",
          "name": "from",
          "type": "address"
        },
        {
          "internalType": "address",
          "name": "to",
          "type": "address"
        },
        {
          "internalType": "uint256",
          "name": "tokenId",
          "type": "uint256"
        }
      ],
      "name": "safeTransferFrom",
      "outputs": [],
      "stateMutability": "nonpayable",
      "type": "function"
    },
    {
      "inputs": [
        {
          "internalType": "address",
          "name": "from",
          "type": "address"
        },
        {
          "internalType": "address",
          "name": "to",
          "type": "address"
        },
        {
          "internalType": "uint256",
          "name": "tokenId",
          "type": "uint256"
        },
        {
          "internalType": "bytes",
          "name": "data",
          "type": "bytes"
        }
      ],
      "name": "safeTransferFrom",
      "outputs": [],
      "stateMutability": "nonpayable",
      "type": "function"
    },
    {
      "inputs": [
        {
          "internalType": "string",
          "name": "",
          "type": "string"
        }
      ],
      "name": "serialNumberApproved",
      "outputs": [
        {
          "internalType": "bool",
          "name": "",
          "type": "bool"
        }
      ],
      "stateMutability": "view",
      "type": "function"
    },
    {
      "inputs": [
        {
          "internalType": "address",
          "name": "operator",
          "type": "address"
        },
        {
          "internalType": "bool",
          "name": "approved",
          "type": "bool"
        }
      ],
      "name": "setApprovalForAll",
      "outputs": [],
      "stateMutability": "nonpayable",
      "type": "function"
    },
    {
      "inputs": [
        {
          "internalType": "string",
          "name": "gateway",
          "type": "string"
        }
      ],
      "name": "setBaseURI",
      "outputs": [],
      "stateMutability": "nonpayable",
      "type": "function"
    },
    {
      "inputs": [
        {
          "internalType": "uint256",
          "name": "tokenId",
          "type": "uint256"
        },
        {
          "internalType": "string",
          "name": "newSerialNumber",
          "type": "string"
        },
        {
          "internalType": "uint256",
          "name": "newQuantity",
          "type": "uint256"
        }
      ],
      "name": "setSerialandQuantity",
      "outputs": [],
      "stateMutability": "nonpayable",
      "type": "function"
    },
    {
      "inputs": [
        {
          "internalType": "uint256",
          "name": "tokenId",
          "type": "uint256"
        },
        {
          "internalType": "enum BatchStatus",
          "name": "newStatus",
          "type": "uint8"
        }
      ],
      "name": "setStatusForDetokenizationOrRetirement",
      "outputs": [],
      "stateMutability": "nonpayable",
      "type": "function"
    },
    {
      "inputs": [
        {
          "internalType": "string",
          "name": "registry",
          "type": "string"
        },
        {
          "internalType": "bool",
          "name": "isSupported",
          "type": "bool"
        }
      ],
      "name": "setSupportedRegistry",
      "outputs": [],
      "stateMutability": "nonpayable",
      "type": "function"
    },
    {
      "inputs": [
        {
          "internalType": "uint256",
          "name": "tokenId",
          "type": "uint256"
        }
      ],
      "name": "setToPending",
      "outputs": [],
      "stateMutability": "nonpayable",
      "type": "function"
    },
    {
      "inputs": [
        {
          "internalType": "address",
          "name": "_address",
          "type": "address"
        }
      ],
      "name": "setToucanContractRegistry",
      "outputs": [],
      "stateMutability": "nonpayable",
      "type": "function"
    },
    {
      "inputs": [
        {
          "internalType": "uint256",
          "name": "tokenId",
          "type": "uint256"
        },
        {
          "internalType": "string",
          "name": "tokenIdNewSerialNumber",
          "type": "string"
        },
        {
          "internalType": "string",
          "name": "newTokenIdSerialNumber",
          "type": "string"
        },
        {
          "internalType": "uint256",
          "name": "newTokenIdQuantity",
          "type": "uint256"
        }
      ],
      "name": "split",
      "outputs": [
        {
          "internalType": "uint256",
          "name": "newTokenId",
          "type": "uint256"
        }
      ],
      "stateMutability": "nonpayable",
      "type": "function"
    },
    {
      "inputs": [
        {
          "internalType": "bytes4",
          "name": "interfaceId",
          "type": "bytes4"
        }
      ],
      "name": "supportsInterface",
      "outputs": [
        {
          "internalType": "bool",
          "name": "",
          "type": "bool"
        }
      ],
      "stateMutability": "view",
      "type": "function"
    },
    {
      "inputs": [],
      "name": "symbol",
      "outputs": [
        {
          "internalType": "string",
          "name": "",
          "type": "string"
        }
      ],
      "stateMutability": "view",
      "type": "function"
    },
    {
      "inputs": [
        {
          "internalType": "uint256",
          "name": "index",
          "type": "uint256"
        }
      ],
      "name": "tokenByIndex",
      "outputs": [
        {
          "internalType": "uint256",
          "name": "",
          "type": "uint256"
        }
      ],
      "stateMutability": "view",
      "type": "function"
    },
    {
      "inputs": [
        {
          "internalType": "address",
          "name": "owner",
          "type": "address"
        },
        {
          "internalType": "uint256",
          "name": "index",
          "type": "uint256"
        }
      ],
      "name": "tokenOfOwnerByIndex",
      "outputs": [
        {
          "internalType": "uint256",
          "name": "",
          "type": "uint256"
        }
      ],
      "stateMutability": "view",
      "type": "function"
    },
    {
      "inputs": [
        {
          "internalType": "uint256",
          "name": "tokenId",
          "type": "uint256"
        }
      ],
      "name": "tokenURI",
      "outputs": [
        {
          "internalType": "string",
          "name": "",
          "type": "string"
        }
      ],
      "stateMutability": "view",
      "type": "function"
    },
    {
      "inputs": [
        {
          "internalType": "address",
          "name": "recipient",
          "type": "address"
        },
        {
          "internalType": "string",
          "name": "serialNumber",
          "type": "string"
        },
        {
          "internalType": "uint256",
          "name": "quantity",
          "type": "uint256"
        },
        {
          "internalType": "uint256",
          "name": "projectVintageTokenId",
          "type": "uint256"
        }
      ],
      "name": "tokenize",
      "outputs": [
        {
          "internalType": "uint256",
          "name": "tokenId",
          "type": "uint256"
        }
      ],
      "stateMutability": "nonpayable",
      "type": "function"
    },
    {
      "inputs": [],
      "name": "totalSupply",
      "outputs": [
        {
          "internalType": "uint256",
          "name": "",
          "type": "uint256"
        }
      ],
      "stateMutability": "view",
      "type": "function"
    },
    {
      "inputs": [
        {
          "internalType": "address",
          "name": "from",
          "type": "address"
        },
        {
          "internalType": "address",
          "name": "to",
          "type": "address"
        },
        {
          "internalType": "uint256",
          "name": "tokenId",
          "type": "uint256"
        }
      ],
      "name": "transferFrom",
      "outputs": [],
      "stateMutability": "nonpayable",
      "type": "function"
    },
    {
      "inputs": [
        {
          "internalType": "address",
          "name": "newOwner",
          "type": "address"
        }
      ],
      "name": "transferOwnership",
      "outputs": [],
      "stateMutability": "nonpayable",
      "type": "function"
    },
    {
      "inputs": [],
      "name": "unpause",
      "outputs": [],
      "stateMutability": "nonpayable",
      "type": "function"
    },
    {
      "inputs": [
        {
          "internalType": "string",
          "name": "serialNumber",
          "type": "string"
        }
      ],
      "name": "unsetSerialNumber",
      "outputs": [],
      "stateMutability": "nonpayable",
      "type": "function"
    },
    {
      "inputs": [
        {
          "internalType": "uint256",
          "name": "tokenId",
          "type": "uint256"
        },
        {
          "internalType": "string",
          "name": "serialNumber",
          "type": "string"
        },
        {
          "internalType": "uint256",
          "name": "quantity",
          "type": "uint256"
        },
        {
          "internalType": "string",
          "name": "uri",
          "type": "string"
        }
      ],
      "name": "updateBatchWithData",
      "outputs": [],
      "stateMutability": "nonpayable",
      "type": "function"
    },
    {
      "inputs": [
        {
          "internalType": "address",
          "name": "newImplementation",
          "type": "address"
        }
      ],
      "name": "upgradeTo",
      "outputs": [],
      "stateMutability": "nonpayable",
      "type": "function"
    },
    {
      "inputs": [
        {
          "internalType": "address",
          "name": "newImplementation",
          "type": "address"
        },
        {
          "internalType": "bytes",
          "name": "data",
          "type": "bytes"
        }
      ],
      "name": "upgradeToAndCall",
      "outputs": [],
      "stateMutability": "payable",
      "type": "function"
    }
  ],
  "numDeployments": 1,
  "solcInputHash": "21ae5f70988e66da4bff33b9b6a2fdaf",
  "bytecode": "0x60a0604052306080523480156200001557600080fd5b506200002062000026565b620000e7565b600054610100900460ff1615620000935760405162461bcd60e51b815260206004820152602760248201527f496e697469616c697a61626c653a20636f6e747261637420697320696e697469604482015266616c697a696e6760c81b606482015260840160405180910390fd5b60005460ff90811614620000e5576000805460ff191660ff9081179091556040519081527f7f26b83ff96e1f2b6a682f133852f6798a09c465da95921460cefb38474024989060200160405180910390a15b565b608051615e486200011f60003960008181611979015281816119b901528181611d0301528181611d430152611eed0152615e486000f3fe6080604052600436106103c35760003560e01c80636352211e116101f2578063aa7e56831161010d578063c87b56dd116100a0578063e882e37b1161006f578063e882e37b14610bbb578063e985e9c514610bdb578063f2fde38b14610c24578063ffa1ad7414610c4457600080fd5b8063c87b56dd14610b2a578063d547741f14610b4a578063dff35e8314610b6a578063e7705db614610b9957600080fd5b8063b88d4fde116100dc578063b88d4fde14610aaa578063c2170e5c14610aca578063c4d66de814610aea578063c8694d1214610b0a57600080fd5b8063aa7e568314610a32578063abf410e514610a52578063b305702514610a73578063b722e53314610a8a57600080fd5b80638a6166f0116101855780639bd905f8116101545780639bd905f8146109bd578063a217fddf146109dd578063a22cb465146109f2578063a5c6596314610a1257600080fd5b80638a6166f01461094a5780638da5cb5b1461096a57806391d148541461098857806395d89b41146109a857600080fd5b8063715018a6116101c1578063715018a6146108cf57806375bea166146108e4578063838b1da3146109155780638456cb591461093557600080fd5b80636352211e1461085a5780636ca0b0d71461087a5780636d1f73d61461088f57806370a08231146108af57600080fd5b80632f745c59116102e257806342842e0e1161027557806352d1902d1161024457806352d1902d146107ed57806355f804b3146108025780635c975abb146108225780635e9fae131461083a57600080fd5b806342842e0e1461077a5780634f1ef2861461079a5780634f6ccce7146107ad5780634f8a317c146107cd57600080fd5b80633659cfe6116102b15780633659cfe6146107055780633a484efd146107255780633b2b203e146107455780633f4ba83a1461076557600080fd5b80632f745c591461066957806334844b4214610689578063362ab1b9146106c557806336568abe146106e557600080fd5b80630f979c281161035a57806323b872dd1161032957806323b872dd146105ca57806323edf697146105ea578063248a9ca3146106185780632f2ff15d1461064957600080fd5b80630f979c281461051b57806312b6bbda1461055c578063150b7a021461057c57806318160ddd146105b557600080fd5b8063081812fc11610396578063081812fc14610481578063095ea7b3146104b95780630c1902fe146104db5780630c634e67146104fb57600080fd5b806301ffc9a7146103c857806302451414146103fd5780630605a3341461042b57806306fdde031461045f575b600080fd5b3480156103d457600080fd5b506103e86103e3366004614e0d565b610c75565b60405190151581526020015b60405180910390f35b34801561040957600080fd5b5061041d610418366004614e87565b610ca0565b6040519081526020016103f4565b34801561043757600080fd5b5061041d7fe70d28ebd9d7d9a3dd77d46ae2481f301c80806f395b08de31d8e095b1c46cee81565b34801561046b57600080fd5b50610474610ff5565b6040516103f49190614f45565b34801561048d57600080fd5b506104a161049c366004614f58565b611087565b6040516001600160a01b0390911681526020016103f4565b3480156104c557600080fd5b506104d96104d4366004614f71565b6110ae565b005b3480156104e757600080fd5b506104d96104f6366004614f58565b6111c3565b34801561050757600080fd5b506104d9610516366004614f9d565b6111ee565b34801561052757600080fd5b5061054f610536366004614f58565b60009081526101c9602052604090206003015460ff1690565b6040516103f49190614ff7565b34801561056857600080fd5b5061041d610577366004615005565b61121b565b34801561058857600080fd5b5061059c610597366004615086565b611622565b6040516001600160e01b031990911681526020016103f4565b3480156105c157600080fd5b5060995461041d565b3480156105d657600080fd5b506104d96105e53660046150f8565b611675565b3480156105f657600080fd5b5061060a610605366004614f58565b611699565b6040516103f4929190615139565b34801561062457600080fd5b5061041d610633366004614f58565b600090815261012d602052604090206001015490565b34801561065557600080fd5b506104d96106643660046151dd565b6117ec565b34801561067557600080fd5b5061041d610684366004614f71565b611812565b34801561069557600080fd5b506103e86106a43660046152f9565b80516020818301810180516101c48252928201919093012091525460ff1681565b3480156106d157600080fd5b506104d96106e03660046152f9565b6118a8565b3480156106f157600080fd5b506104d96107003660046151dd565b6118f5565b34801561071157600080fd5b506104d961072036600461532d565b61196f565b34801561073157600080fd5b506104d961074036600461534a565b611a4b565b34801561075157600080fd5b506104d9610760366004615373565b611c72565b34801561077157600080fd5b506104d9611c97565b34801561078657600080fd5b506104d96107953660046150f8565b61167e565b6104d96107a83660046153c2565b611cf9565b3480156107b957600080fd5b5061041d6107c8366004614f58565b611dc5565b3480156107d957600080fd5b506104d96107e8366004614f58565b611e58565b3480156107f957600080fd5b5061041d611ee0565b34801561080e57600080fd5b506104d961081d3660046152f9565b611f93565b34801561082e57600080fd5b5060fb5460ff166103e8565b34801561084657600080fd5b506104d9610855366004615411565b611faf565b34801561086657600080fd5b506104a1610875366004614f58565b6120b4565b34801561088657600080fd5b5061041d600181565b34801561089b57600080fd5b506104d96108aa366004614f9d565b612114565b3480156108bb57600080fd5b5061041d6108ca36600461532d565b61218b565b3480156108db57600080fd5b506104d9612211565b3480156108f057600080fd5b506109046108ff366004614f58565b612225565b6040516103f4959493929190615487565b34801561092157600080fd5b506104d9610930366004614f58565b61236d565b34801561094157600080fd5b506104d96123a0565b34801561095657600080fd5b506104d96109653660046154c5565b612402565b34801561097657600080fd5b5060c9546001600160a01b03166104a1565b34801561099457600080fd5b506103e86109a33660046151dd565b612591565b3480156109b457600080fd5b506104746125bd565b3480156109c957600080fd5b506104746109d8366004614f58565b6125cc565b3480156109e957600080fd5b5061041d600081565b3480156109fe57600080fd5b506104d9610a0d366004615503565b6126ad565b348015610a1e57600080fd5b5061041d610a2d36600461532d565b6126b8565b348015610a3e57600080fd5b506104d9610a4d3660046154c5565b6126cc565b348015610a5e57600080fd5b506101c8546104a1906001600160a01b031681565b348015610a7f57600080fd5b5061041d6101c35481565b348015610a9657600080fd5b506104d9610aa5366004614f58565b6126d5565b348015610ab657600080fd5b506104d9610ac5366004615531565b6126fd565b348015610ad657600080fd5b506104d9610ae5366004615590565b612775565b348015610af657600080fd5b506104d9610b0536600461532d565b612849565b348015610b1657600080fd5b506104d9610b253660046154c5565b6129de565b348015610b3657600080fd5b50610474610b45366004614f58565b6129e7565b348015610b5657600080fd5b506104d9610b653660046151dd565b612b21565b348015610b7657600080fd5b50610b8a610b85366004614f58565b612b47565b6040516103f4939291906155d6565b348015610ba557600080fd5b5061041d600080516020615df383398151915281565b348015610bc757600080fd5b506104d9610bd636600461532d565b612bb2565b348015610be757600080fd5b506103e8610bf63660046155f1565b6001600160a01b039182166000908152606a6020908152604080832093909416825291909152205460ff1690565b348015610c3057600080fd5b506104d9610c3f36600461532d565b612bdd565b348015610c5057600080fd5b50610474604051806040016040528060058152602001640312e352e360dc1b81525081565b60006001600160e01b03198216637965db0b60e01b1480610c9a5750610c9a82612c53565b92915050565b6000610caa612ca3565b610cd37fe70d28ebd9d7d9a3dd77d46ae2481f301c80806f395b08de31d8e095b1c46cee612cde565b610cdd3087612d1c565b9050610d218186868080601f016020809104026020016040519081016040528093929190818152602001838380828437600092019190915250889250612d95915050565b610d2b8183612ea3565b610d3481612f03565b6000610d3f82613052565b90506001600160a01b038116610d88576040805180820182526002815261034360f41b6020820152905162461bcd60e51b8152610d7f9190600401614f45565b60405180910390fd5b6000816001600160a01b0316633c31175e6040518163ffffffff1660e01b8152600401600060405180830381865afa158015610dc8573d6000803e3d6000fd5b505050506040513d6000823e601f3d908101601f19168201604052610df09190810190615664565b90506101ca81604051610e039190615698565b9081526040519081900360200190205460ff16610e4a576040805180820182526002815261343160f01b6020820152905162461bcd60e51b8152610d7f9190600401614f45565b6040516370a0823160e01b81523060048201526000906001600160a01b038416906370a0823190602401602060405180830381865afa158015610e91573d6000803e3d6000fd5b505050506040513d601f19601f82011682018060405250810190610eb591906156b4565b9050610ed23084866040518060200160405280600081525061325f565b6040516370a0823160e01b81523060048201526000906001600160a01b038516906370a0823190602401602060405180830381865afa158015610f19573d6000803e3d6000fd5b505050506040513d601f19601f82011682018060405250810190610f3d91906156b4565b90506000610f4b83836156e3565b905080600003610f855760408051808201825260028152611a1960f11b6020820152905162461bcd60e51b8152610d7f9190600401614f45565b610f996001600160a01b0386168c83613292565b604080518781526001600160a01b038781166020830152918101839052908c16907ffc57e3cd27cd7fbd6b9bfca9a3ab5dc6414002431c17d40274c60bbfbc672a2d9060600160405180910390a2505050505095945050505050565b606060658054611004906156fa565b80601f0160208091040260200160405190810160405280929190818152602001828054611030906156fa565b801561107d5780601f106110525761010080835404028352916020019161107d565b820191906000526020600020905b81548152906001019060200180831161106057829003601f168201915b5050505050905090565b6000611092826132e4565b506000908152606960205260409020546001600160a01b031690565b60006110b9826120b4565b9050806001600160a01b0316836001600160a01b0316036111265760405162461bcd60e51b815260206004820152602160248201527f4552433732313a20617070726f76616c20746f2063757272656e74206f776e656044820152603960f91b6064820152608401610d7f565b336001600160a01b038216148061114257506111428133610bf6565b6111b45760405162461bcd60e51b815260206004820152603d60248201527f4552433732313a20617070726f76652063616c6c6572206973206e6f7420746f60448201527f6b656e206f776e6572206f7220617070726f76656420666f7220616c6c0000006064820152608401610d7f565b6111be8383613334565b505050565b6111cb612ca3565b6111e2600080516020615df3833981519152612cde565b6111eb81612f03565b50565b6111f6612ca3565b61120d600080516020615df3833981519152612cde565b6112178282612ea3565b5050565b6000611225612ca3565b61122d6133a2565b6000611238886120b4565b6101c854604051633a37b16d60e11b81526001600160a01b03808416600483015292935091169063746f62da90602401602060405180830381865afa158015611285573d6000803e3d6000fd5b505050506040513d601f19601f820116820180604052508101906112a99190615744565b6112dd576040805180820182526002815261191b60f11b6020820152905162461bcd60e51b8152610d7f9190600401614f45565b60008881526101c9602052604090206003015460ff16600581600681111561130757611307614fbf565b141580156113275750600381600681111561132457611324614fbf565b14155b1561135c576040805180820182526002815261033360f41b6020820152905162461bcd60e51b8152610d7f9190600401614f45565b60008981526101c9602052604090206002015484106113a5576040805180820182526002815261353560f01b6020820152905162461bcd60e51b8152610d7f9190600401614f45565b60008981526101c96020526040812060010180546113c2906156fa565b80601f01602080910402602001604051908101604052809291908181526020018280546113ee906156fa565b801561143b5780601f106114105761010080835404028352916020019161143b565b820191906000526020600020905b81548152906001019060200180831161141e57829003601f168201915b505050505090506114b38a8a8a8080601f016020809104026020016040519081016040528093929190818152602001838380828437600081840152601f19601f82011690508083019250505050505050876101c960008f8152602001908152602001600020600201546114ae91906156e3565b612d95565b60016101c48a8a6040516114c8929190615761565b908152604051908190036020019020805491151560ff199092169190911790556114f23084612d1c565b93506115368488888080601f0160208091040260200160405190810160405280939291908181526020018383808284376000920191909152508a9250612d95915050565b60016101c4888860405161154b929190615761565b908152604051908190036020018120805492151560ff19909316929092179091556000906101c49061157e908490615698565b9081526040805160209281900383019020805460ff19169315159390931790925560008c81526101c990915220546115b7908590612ea3565b6115c18483613453565b6115dc3084866040518060200160405280600081525061325f565b604080518b8152602081018690527fb20b10d17e0e2505af41fd37a6a1b46824a76d7d940afce430c7ee4aba19a959910160405180910390a15050509695505050505050565b60006001600160a01b03851615611663576040805180820182526002815261343360f01b6020820152905162461bcd60e51b8152610d7f9190600401614f45565b50630a85bd0160e11b95945050505050565b61167e816134b8565b6111be838383604051806020016040528060008152506126fd565b60008181526101c96020908152604080832060058101805483518186028101860190945280845260609586959294600690940193928592919084015b828210156117815783829060005260206000200180546116f4906156fa565b80601f0160208091040260200160405190810160405280929190818152602001828054611720906156fa565b801561176d5780601f106117425761010080835404028352916020019161176d565b820191906000526020600020905b81548152906001019060200180831161175057829003601f168201915b5050505050815260200190600101906116d5565b505050509150808054806020026020016040519081016040528092919081815260200182805480156117dc57602002820191906000526020600020905b81546001600160a01b031681526001909101906020018083116117be575b5050505050905091509150915091565b600082815261012d6020526040902060010154611808816134f6565b6111be8383613500565b600061181d8361218b565b821061187f5760405162461bcd60e51b815260206004820152602b60248201527f455243373231456e756d657261626c653a206f776e657220696e646578206f7560448201526a74206f6620626f756e647360a81b6064820152608401610d7f565b506001600160a01b03919091166000908152609760209081526040808320938352929052205490565b6118bf600080516020615df3833981519152612cde565b60006101c4826040516118d29190615698565b908152604051908190036020019020805491151560ff1990921691909117905550565b6001600160a01b03811633146119655760405162461bcd60e51b815260206004820152602f60248201527f416363657373436f6e74726f6c3a2063616e206f6e6c792072656e6f756e636560448201526e103937b632b9903337b91039b2b63360891b6064820152608401610d7f565b6112178282613587565b6001600160a01b037f00000000000000000000000000000000000000000000000000000000000000001630036119b75760405162461bcd60e51b8152600401610d7f90615771565b7f00000000000000000000000000000000000000000000000000000000000000006001600160a01b0316611a00600080516020615d86833981519152546001600160a01b031690565b6001600160a01b031614611a265760405162461bcd60e51b8152600401610d7f906157bd565b611a2f816135ef565b604080516000808252602082019092526111eb918391906135f7565b611a53612ca3565b611a5b6133a2565b6000611a66836120b4565b6101c854604051633a37b16d60e11b81526001600160a01b03808416600483015292935091169063746f62da90602401602060405180830381865afa158015611ab3573d6000803e3d6000fd5b505050506040513d601f19601f82011682018060405250810190611ad79190615744565b611b0b576040805180820182526002815261191b60f11b6020820152905162461bcd60e51b8152610d7f9190600401614f45565b60008381526101c96020526040902060039081015460ff1690836006811115611b3657611b36614fbf565b1480611b5357506005836006811115611b5157611b51614fbf565b145b15611b6857611b63816002613762565b611c62565b6004836006811115611b7c57611b7c614fbf565b03611b8c57611b63816003613762565b6006836006811115611ba057611ba0614fbf565b03611bb057611b63816005613762565b6002836006811115611bc457611bc4614fbf565b03611c32576003816006811115611bdd57611bdd614fbf565b14158015611bfd57506005816006811115611bfa57611bfa614fbf565b14155b15611b635760408051808201825260028152610d0d60f21b6020820152905162461bcd60e51b8152610d7f9190600401614f45565b60408051808201825260028152610d0d60f21b6020820152905162461bcd60e51b8152610d7f9190600401614f45565b611c6c8484613453565b50505050565b611c7a612ca3565b611c83836137bb565b611c8c83613826565b6111be838383612d95565b6101c8546001600160a01b0316611cb660c9546001600160a01b031690565b6001600160a01b038216331480611cd557506001600160a01b03811633145b611cf15760405162461bcd60e51b8152600401610d7f90615809565b611217613882565b6001600160a01b037f0000000000000000000000000000000000000000000000000000000000000000163003611d415760405162461bcd60e51b8152600401610d7f90615771565b7f00000000000000000000000000000000000000000000000000000000000000006001600160a01b0316611d8a600080516020615d86833981519152546001600160a01b031690565b6001600160a01b031614611db05760405162461bcd60e51b8152600401610d7f906157bd565b611db9826135ef565b611217828260016135f7565b6000611dd060995490565b8210611e335760405162461bcd60e51b815260206004820152602c60248201527f455243373231456e756d657261626c653a20676c6f62616c20696e646578206f60448201526b7574206f6620626f756e647360a01b6064820152608401610d7f565b60998281548110611e4657611e4661584e565b90600052602060002001549050919050565b611e60612ca3565b611e77600080516020615df3833981519152612cde565b600160008281526101c9602052604090206003015460ff166006811115611ea057611ea0614fbf565b14611ed5576040805180820182526002815261333560f01b6020820152905162461bcd60e51b8152610d7f9190600401614f45565b6111eb816000613453565b6000306001600160a01b037f00000000000000000000000000000000000000000000000000000000000000001614611f805760405162461bcd60e51b815260206004820152603860248201527f555550535570677261646561626c653a206d757374206e6f742062652063616c60448201527f6c6564207468726f7567682064656c656761746563616c6c00000000000000006064820152608401610d7f565b50600080516020615d8683398151915290565b611f9b6138d4565b8051611217906101c7906020840190614d5e565b611fb7612ca3565b611fc0846137bb565b611fc984613826565b611fd4848484612d95565b60008481526101c96020526040902060040180546120839190611ff6906156fa565b80601f0160208091040260200160405190810160405280929190818152602001828054612022906156fa565b801561206f5780601f106120445761010080835404028352916020019161206f565b820191906000526020600020905b81548152906001019060200180831161205257829003601f168201915b50505050508261392e90919063ffffffff16565b611c6c5760008481526101c96020908152604090912082516120ad92600490920191840190614d5e565b5050505050565b6000818152606760205260408120546001600160a01b031680610c9a5760405162461bcd60e51b8152602060048201526018602482015277115490cdcc8c4e881a5b9d985b1a59081d1bdad95b88125160421b6044820152606401610d7f565b61211c612ca3565b612133600080516020615df3833981519152612cde565b60008281526101c9602052604090205415612178576040805180820182526002815261199b60f11b6020820152905162461bcd60e51b8152610d7f9190600401614f45565b6121828282612ea3565b61121782612f03565b60006001600160a01b0382166121f55760405162461bcd60e51b815260206004820152602960248201527f4552433732313a2061646472657373207a65726f206973206e6f7420612076616044820152683634b21037bbb732b960b91b6064820152608401610d7f565b506001600160a01b031660009081526068602052604090205490565b6122196138d4565b612223600061394b565b565b6101c96020526000908152604090208054600182018054919291612248906156fa565b80601f0160208091040260200160405190810160405280929190818152602001828054612274906156fa565b80156122c15780601f10612296576101008083540402835291602001916122c1565b820191906000526020600020905b8154815290600101906020018083116122a457829003601f168201915b50505050600283015460038401546004850180549495929460ff9092169350906122ea906156fa565b80601f0160208091040260200160405190810160405280929190818152602001828054612316906156fa565b80156123635780601f1061233857610100808354040283529160200191612363565b820191906000526020600020905b81548152906001019060200180831161234657829003601f168201915b5050505050905085565b612375612ca3565b61238c600080516020615df3833981519152612cde565b61239581613826565b6111eb816001613453565b6101c8546001600160a01b03166123bf60c9546001600160a01b031690565b6001600160a01b0382163314806123de57506001600160a01b03811633145b6123fa5760405162461bcd60e51b8152600401610d7f90615809565b61121761399d565b61240a612ca3565b612421600080516020615df3833981519152612cde565b600260008381526101c9602052604090206003015460ff16600681111561244a5761244a614fbf565b1461247f576040805180820182526002815261323760f01b6020820152905162461bcd60e51b8152610d7f9190600401614f45565b6101c8546001600160a01b031663746f62da61249a846120b4565b6040516001600160e01b031960e084901b1681526001600160a01b039091166004820152602401602060405180830381865afa1580156124de573d6000803e3d6000fd5b505050506040513d601f19601f820116820180604052508101906125029190615744565b156125375760408051808201825260028152610ccd60f21b6020820152905162461bcd60e51b8152610d7f9190600401614f45565b60008281526101c9602052604080822090516101c49161255c91600190910190615864565b908152604051908190036020019020805491151560ff19909216919091179055612587826001613453565b61121782826139da565b600091825261012d602090815260408084206001600160a01b0393909316845291905290205460ff1690565b606060668054611004906156fa565b60606125d782613a89565b61260b576040805180820182526002815261323960f01b6020820152905162461bcd60e51b8152610d7f9190600401614f45565b60008281526101c9602052604090206001018054612628906156fa565b80601f0160208091040260200160405190810160405280929190818152602001828054612654906156fa565b80156126a15780601f10612676576101008083540402835291602001916126a1565b820191906000526020600020905b81548152906001019060200180831161268457829003601f168201915b50505050509050919050565b611217338383613aa6565b60006126c2612ca3565b610c9a8283612d1c565b612587826137bb565b6126de816134b8565b6111eb336126eb83613052565b83604051806020016040528060008152505b6127073383613b74565b6127695760405162461bcd60e51b815260206004820152602d60248201527f4552433732313a2063616c6c6572206973206e6f7420746f6b656e206f776e6560448201526c1c881bdc88185c1c1c9bdd9959609a1b6064820152608401610d7f565b611c6c8484848461325f565b61277d6138d4565b8015156101ca836040516127919190615698565b9081526040519081900360200190205460ff161515036127db576040805180820182526002815261323360f01b6020820152905162461bcd60e51b8152610d7f9190600401614f45565b806101ca836040516127ed9190615698565b908152604051908190036020018120805492151560ff19909316929092179091557fd1ccc86b3ecebee24bd889691724999af4141f85d8bf0c59a60112e18173f6a09061283d90849084906158ff565b60405180910390a15050565b600054610100900460ff16158080156128695750600054600160ff909116105b806128835750303b158015612883575060005460ff166001145b6128e65760405162461bcd60e51b815260206004820152602e60248201527f496e697469616c697a61626c653a20636f6e747261637420697320616c72656160448201526d191e481a5b9a5d1a585b1a5e995960921b6064820152608401610d7f565b6000805460ff191660011790558015612909576000805461ff0019166101001790555b612911613bf3565b612955604051806060016040528060268152602001615dcd602691396040518060400160405280600a8152602001692a27aaa1a0a716a1a7a160b11b815250613c1a565b61295d613c68565b612965613c98565b61296d613bf3565b612975613bf3565b6101c880546001600160a01b0319166001600160a01b03841617905561299c600033613500565b8015611217576000805461ff0019169055604051600181527f7f26b83ff96e1f2b6a682f133852f6798a09c465da95921460cefb38474024989060200161283d565b6125878261236d565b60606129f282613a89565b612a26576040805180820182526002815261323960f01b6020820152905162461bcd60e51b8152610d7f9190600401614f45565b60008281526101c9602052604081206004018054612a43906156fa565b80601f0160208091040260200160405190810160405280929190818152602001828054612a6f906156fa565b8015612abc5780601f10612a9157610100808354040283529160200191612abc565b820191906000526020600020905b815481529060010190602001808311612a9f57829003601f168201915b50505050509050612acb613ccb565b51600003612ad95792915050565b805115612b1157612ae8613ccb565b81604051602001612afa929190615923565b604051602081830303815290604052915050919050565b612b1a83613cdb565b9392505050565b600082815261012d6020526040902060010154612b3d816134f6565b6111be8383613587565b6000806000612b5584613a89565b612b89576040805180820182526002815261323960f01b6020820152905162461bcd60e51b8152610d7f9190600401614f45565b50505060009081526101c96020526040902080546002820154600390920154909260ff90911690565b612bba6138d4565b6101c880546001600160a01b0319166001600160a01b0392909216919091179055565b612be56138d4565b6001600160a01b038116612c4a5760405162461bcd60e51b815260206004820152602660248201527f4f776e61626c653a206e6577206f776e657220697320746865207a65726f206160448201526564647265737360d01b6064820152608401610d7f565b6111eb8161394b565b60006001600160e01b031982166380ac58cd60e01b1480612c8457506001600160e01b03198216635b5e139f60e01b145b80610c9a57506301ffc9a760e01b6001600160e01b0319831614610c9a565b60fb5460ff1615612223576040805180820182526002815261066760f31b6020820152905162461bcd60e51b8152610d7f9190600401614f45565b612ce88133612591565b6111eb576040805180820182526002815261333960f01b6020820152905162461bcd60e51b8152610d7f9190600401614f45565b6101c3805460010190819055612d328382613d2b565b60008181526101c96020908152604091829020600301805460ff1916905581516001600160a01b03851681529081018390527f6174e73d7eb2fee6c482f87f81961b83cfa577f50c963bd1516f282497260fcd910160405180910390a192915050565b6101c482604051612da69190615698565b9081526040519081900360200190205460ff1615612dee576040805180820182526002815261199960f11b6020820152905162461bcd60e51b8152610d7f9190600401614f45565b80600003612e26576040805180820182526002815261353560f01b6020820152905162461bcd60e51b8152610d7f9190600401614f45565b60008381526101c9602090815260409091208351612e4c92600190920191850190614d5e565b5060008381526101c9602052604090819020600201829055517fd680d89587cd5af07a9a0280107488c8b2db5f86aec57b869f0933fb4a99c05b90612e9690859085908590615952565b60405180910390a1505050565b6101c854612eba906001600160a01b031682613d45565b60008281526101c9602090815260409182902083905581518481529081018390527fe16bc7d72176e78ab56068f816d35b70dfcb41bb492ca0da0bcfc064b2439f6c910161283d565b612f0c81613a89565b612f40576040805180820182526002815261323960f01b6020820152905162461bcd60e51b8152610d7f9190600401614f45565b612f4981613826565b60008181526101c960205260408120549003612f8f576040805180820182526002815261333160f01b6020820152905162461bcd60e51b8152610d7f9190600401614f45565b6101c46101c96000838152602001908152602001600020600101604051612fb69190615864565b9081526040519081900360200190205460ff1615612ffe576040805180820182526002815261199960f11b6020820152905162461bcd60e51b8152610d7f9190600401614f45565b60016101c46101c960008481526020019081526020016000206001016040516130279190615864565b908152604051908190036020019020805491151560ff199092169190911790556111eb816002613453565b60008181526101c960209081526040808320546101c8548251630505792b60e51b8152925191936001600160a01b03909116928592849263a0af256092600480820193918290030181865afa1580156130af573d6000803e3d6000fd5b505050506040513d601f19601f820116820180604052508101906130d3919061597b565b60405163056efc1d60e21b8152600481018590529091506000906001600160a01b038316906315bbf07490602401600060405180830381865afa15801561311e573d6000803e3d6000fd5b505050506040513d6000823e601f3d908101601f1916820160405261314691908101906159af565b6101608101518051919250906000036131775750604080518082019091526005815264766572726160d81b60208201525b6040516391148b2760e01b81526000906001600160a01b038616906391148b27906131a6908590600401614f45565b602060405180830381865afa1580156131c3573d6000803e3d6000fd5b505050506040513d601f19601f820116820180604052508101906131e7919061597b565b6040516317a04f4f60e21b8152600481018890529091506001600160a01b03821690635e813d3c90602401602060405180830381865afa15801561322f573d6000803e3d6000fd5b505050506040513d601f19601f82011682018060405250810190613253919061597b565b98975050505050505050565b61326a848484613e73565b61327684848484613fe4565b611c6c5760405162461bcd60e51b8152600401610d7f90615b39565b604080516001600160a01b038416602482015260448082018490528251808303909101815260649091019091526020810180516001600160e01b031663a9059cbb60e01b1790526111be9084906140e5565b6132ed81613a89565b6111eb5760405162461bcd60e51b8152602060048201526018602482015277115490cdcc8c4e881a5b9d985b1a59081d1bdad95b88125160421b6044820152606401610d7f565b600081815260696020526040902080546001600160a01b0319166001600160a01b0384169081179091558190613369826120b4565b6001600160a01b03167f8c5be1e5ebec7d5bd14f71427d1e84f3dd0314c0f7b2291e5b200ac8c7c3b92560405160405180910390a45050565b6101c85460408051637394ca7160e11b815290516000926001600160a01b03169163e72994e29160048083019260209291908290030181865afa1580156133ed573d6000803e3d6000fd5b505050506040513d601f19601f82011682018060405250810190613411919061597b565b90506001600160a01b03811633146111eb576040805180820182526002815261333960f01b6020820152905162461bcd60e51b8152610d7f9190600401614f45565b60008281526101c960205260409020600301805482919060ff1916600183600681111561348257613482614fbf565b02179055507f132d48207d6b10897066f0b98b98325907e8a0d491390e141c7377772b47a9d6828260405161283d929190615b8b565b6134c23382613b74565b6111eb576040805180820182526002815261333760f01b6020820152905162461bcd60e51b8152610d7f9190600401614f45565b6111eb81336141ba565b61350a8282612591565b61121757600082815261012d602090815260408083206001600160a01b03851684529091529020805460ff191660011790556135433390565b6001600160a01b0316816001600160a01b0316837f2f8788117e7eff1d82e926ec794901d17c78024a50270940304540a733656f0d60405160405180910390a45050565b6135918282612591565b1561121757600082815261012d602090815260408083206001600160a01b0385168085529252808320805460ff1916905551339285917ff6391f5c32d9c69d2a47ea670b442974b53935d1edc7fd64eb21e047a839171b9190a45050565b6111eb6138d4565b7f4910fdfa16fed3260ed0e7147f7cc6da11a60208b5b9406d12a635614ffd91435460ff161561362a576111be83614213565b826001600160a01b03166352d1902d6040518163ffffffff1660e01b8152600401602060405180830381865afa925050508015613684575060408051601f3d908101601f19168201909252613681918101906156b4565b60015b6136e75760405162461bcd60e51b815260206004820152602e60248201527f45524331393637557067726164653a206e657720696d706c656d656e7461746960448201526d6f6e206973206e6f74205555505360901b6064820152608401610d7f565b600080516020615d8683398151915281146137565760405162461bcd60e51b815260206004820152602960248201527f45524331393637557067726164653a20756e737570706f727465642070726f786044820152681a58589b195555525160ba1b6064820152608401610d7f565b506111be8383836142af565b80600681111561377457613774614fbf565b82600681111561378657613786614fbf565b146112175760408051808201825260028152610d0d60f21b6020820152905162461bcd60e51b8152610d7f9190600401614f45565b336137c5826120b4565b6001600160a01b0316141580156137f157506137ef600080516020615df383398151915233612591565b155b156111eb5760408051808201825260028152610c8d60f21b6020820152905162461bcd60e51b8152610d7f9190600401614f45565b60008181526101c9602052604081206003015460ff16600681111561384d5761384d614fbf565b146111eb576040805180820182526002815261033360f41b6020820152905162461bcd60e51b8152610d7f9190600401614f45565b61388a6142d4565b60fb805460ff191690557f5db9ee0a495bf2e6ff9c91a7834c1ba4fdd244a5e8aa4e537bd38aeae4b073aa335b6040516001600160a01b03909116815260200160405180910390a1565b60c9546001600160a01b031633146122235760405162461bcd60e51b815260206004820181905260248201527f4f776e61626c653a2063616c6c6572206973206e6f7420746865206f776e65726044820152606401610d7f565b6000612b1a83838051602091820120825192909101919091201490565b60c980546001600160a01b038381166001600160a01b0319831681179093556040519116919082907f8be0079c531659141344cd1fd0a4f28419497f9722a3daafe3b4186f6b6457e090600090a35050565b6139a561431d565b60fb805460ff191660011790557f62e78cea01bee320cd4e420270b5ea74000d11b0c9f74754ebdbfc544b05a2586138b73390565b60008281526101c96020908152604082206005018054600181018255908352918190208351613a10939190910191840190614d5e565b5060008281526101c96020908152604080832060068101805460018101825590855292842090920180546001600160a01b031916339081179091559285905260059091015490517f08740f41d4d7e855ea188e78846ad3e8665dd6d0b088f899025991c1ee8c2c479261283d9286929091908690615b9f565b6000908152606760205260409020546001600160a01b0316151590565b816001600160a01b0316836001600160a01b031603613b075760405162461bcd60e51b815260206004820152601960248201527f4552433732313a20617070726f766520746f2063616c6c6572000000000000006044820152606401610d7f565b6001600160a01b038381166000818152606a6020908152604080832094871680845294825291829020805460ff191686151590811790915591519182527f17307eab39ab6107e8899845ad3d59bd9653f200f220920489ca2b5937696c31910160405180910390a3505050565b600080613b80836120b4565b9050806001600160a01b0316846001600160a01b03161480613bc757506001600160a01b038082166000908152606a602090815260408083209388168352929052205460ff165b80613beb5750836001600160a01b0316613be084611087565b6001600160a01b0316145b949350505050565b600054610100900460ff166122235760405162461bcd60e51b8152600401610d7f90615bcc565b600054610100900460ff16613c415760405162461bcd60e51b8152600401610d7f90615bcc565b8151613c54906065906020850190614d5e565b5080516111be906066906020840190614d5e565b600054610100900460ff16613c8f5760405162461bcd60e51b8152600401610d7f90615bcc565b6122233361394b565b600054610100900460ff16613cbf5760405162461bcd60e51b8152600401610d7f90615bcc565b60fb805460ff19169055565b60606101c78054611004906156fa565b6060613ce6826132e4565b6000613cf0613ccb565b90506000815111613d105760405180602001604052806000815250612b1a565b80613d1a84614363565b604051602001612afa929190615923565b6112178282604051806020016040528060008152506143f5565b6000826001600160a01b031663a0af25606040518163ffffffff1660e01b8152600401602060405180830381865afa158015613d85573d6000803e3d6000fd5b505050506040513d601f19601f82011682018060405250810190613da9919061597b565b604051634f558e7960e01b8152600481018490529091506001600160a01b03821690634f558e7990602401602060405180830381865afa158015613df1573d6000803e3d6000fd5b505050506040513d601f19601f82011682018060405250810190613e159190615744565b6111be5760405162461bcd60e51b815260206004820152602960248201527f436172626f6e2070726f6a6563742076696e7461676520646f6573206e6f74206044820152681e595d08195e1a5cdd60ba1b6064820152608401610d7f565b826001600160a01b0316613e86826120b4565b6001600160a01b031614613eac5760405162461bcd60e51b8152600401610d7f90615c17565b6001600160a01b038216613f0e5760405162461bcd60e51b8152602060048201526024808201527f4552433732313a207472616e7366657220746f20746865207a65726f206164646044820152637265737360e01b6064820152608401610d7f565b613f1b8383836001614428565b826001600160a01b0316613f2e826120b4565b6001600160a01b031614613f545760405162461bcd60e51b8152600401610d7f90615c17565b600081815260696020908152604080832080546001600160a01b03199081169091556001600160a01b0387811680865260688552838620805460001901905590871680865283862080546001019055868652606790945282852080549092168417909155905184937fddf252ad1be2c89b69c2b068fc378daa952ba7f163c4a11628f55a4df523b3ef91a4505050565b60006001600160a01b0384163b156140da57604051630a85bd0160e11b81526001600160a01b0385169063150b7a0290614028903390899088908890600401615c5c565b6020604051808303816000875af1925050508015614063575060408051601f3d908101601f1916820190925261406091810190615c8f565b60015b6140c0573d808015614091576040519150601f19603f3d011682016040523d82523d6000602084013e614096565b606091505b5080516000036140b85760405162461bcd60e51b8152600401610d7f90615b39565b805181602001fd5b6001600160e01b031916630a85bd0160e11b149050613beb565b506001949350505050565b600061413a826040518060400160405280602081526020017f5361666545524332303a206c6f772d6c6576656c2063616c6c206661696c6564815250856001600160a01b031661443c9092919063ffffffff16565b905080516000148061415b57508080602001905181019061415b9190615744565b6111be5760405162461bcd60e51b815260206004820152602a60248201527f5361666545524332303a204552433230206f7065726174696f6e20646964206e6044820152691bdd081cdd58d8d9595960b21b6064820152608401610d7f565b6141c48282612591565b611217576141d18161444b565b6141dc83602061445d565b6040516020016141ed929190615cac565b60408051601f198184030181529082905262461bcd60e51b8252610d7f91600401614f45565b6001600160a01b0381163b6142805760405162461bcd60e51b815260206004820152602d60248201527f455243313936373a206e657720696d706c656d656e746174696f6e206973206e60448201526c1bdd08184818dbdb9d1c9858dd609a1b6064820152608401610d7f565b600080516020615d8683398151915280546001600160a01b0319166001600160a01b0392909216919091179055565b6142b8836145f8565b6000825111806142c55750805b156111be57611c6c8383614638565b60fb5460ff166122235760405162461bcd60e51b815260206004820152601460248201527314185d5cd8589b194e881b9bdd081c185d5cd95960621b6044820152606401610d7f565b60fb5460ff16156122235760405162461bcd60e51b815260206004820152601060248201526f14185d5cd8589b194e881c185d5cd95960821b6044820152606401610d7f565b606060006143708361465d565b60010190506000816001600160401b0381111561438f5761438f61520d565b6040519080825280601f01601f1916602001820160405280156143b9576020820181803683370190505b5090508181016020015b600019016f181899199a1a9b1b9c1cb0b131b232b360811b600a86061a8153600a85049450846143c357509392505050565b6143ff8383614735565b61440c6000848484613fe4565b6111be5760405162461bcd60e51b8152600401610d7f90615b39565b614430612ca3565b611c6c848484846148b0565b6060613beb84846000856149dd565b6060610c9a6001600160a01b03831660145b6060600061446c836002615d21565b614477906002615d40565b6001600160401b0381111561448e5761448e61520d565b6040519080825280601f01601f1916602001820160405280156144b8576020820181803683370190505b509050600360fc1b816000815181106144d3576144d361584e565b60200101906001600160f81b031916908160001a905350600f60fb1b816001815181106145025761450261584e565b60200101906001600160f81b031916908160001a9053506000614526846002615d21565b614531906001615d40565b90505b60018111156145a9576f181899199a1a9b1b9c1cb0b131b232b360811b85600f16601081106145655761456561584e565b1a60f81b82828151811061457b5761457b61584e565b60200101906001600160f81b031916908160001a90535060049490941c936145a281615d58565b9050614534565b508315612b1a5760405162461bcd60e51b815260206004820181905260248201527f537472696e67733a20686578206c656e67746820696e73756666696369656e746044820152606401610d7f565b61460181614213565b6040516001600160a01b038216907fbc7cd75a20ee27fd9adebab32041f755214dbc6bffa90cc0225b39da2e5c2d3b90600090a250565b6060612b1a8383604051806060016040528060278152602001615da660279139614ab8565b60008072184f03e93ff9f4daa797ed6e38ed64bf6a1f0160401b831061469c5772184f03e93ff9f4daa797ed6e38ed64bf6a1f0160401b830492506040015b6d04ee2d6d415b85acef810000000083106146c8576d04ee2d6d415b85acef8100000000830492506020015b662386f26fc1000083106146e657662386f26fc10000830492506010015b6305f5e10083106146fe576305f5e100830492506008015b612710831061471257612710830492506004015b60648310614724576064830492506002015b600a8310610c9a5760010192915050565b6001600160a01b03821661478b5760405162461bcd60e51b815260206004820181905260248201527f4552433732313a206d696e7420746f20746865207a65726f20616464726573736044820152606401610d7f565b61479481613a89565b156147e15760405162461bcd60e51b815260206004820152601c60248201527f4552433732313a20746f6b656e20616c7265616479206d696e746564000000006044820152606401610d7f565b6147ef600083836001614428565b6147f881613a89565b156148455760405162461bcd60e51b815260206004820152601c60248201527f4552433732313a20746f6b656e20616c7265616479206d696e746564000000006044820152606401610d7f565b6001600160a01b038216600081815260686020908152604080832080546001019055848352606790915280822080546001600160a01b0319168417905551839291907fddf252ad1be2c89b69c2b068fc378daa952ba7f163c4a11628f55a4df523b3ef908290a45050565b600181111561491f5760405162461bcd60e51b815260206004820152603560248201527f455243373231456e756d657261626c653a20636f6e7365637574697665207472604482015274185b9cd9995c9cc81b9bdd081cdd5c1c1bdc9d1959605a1b6064820152608401610d7f565b816001600160a01b03851661497b5761497681609980546000838152609a60205260408120829055600182018355919091527f72a152ddfb8e864297c917af52ea6c1c68aead0fee1a62673fcc7e0c94979d000155565b61499e565b836001600160a01b0316856001600160a01b03161461499e5761499e8582614b30565b6001600160a01b0384166149ba576149b581614bcd565b6120ad565b846001600160a01b0316846001600160a01b0316146120ad576120ad8482614c7c565b606082471015614a3e5760405162461bcd60e51b815260206004820152602660248201527f416464726573733a20696e73756666696369656e742062616c616e636520666f6044820152651c8818d85b1b60d21b6064820152608401610d7f565b600080866001600160a01b03168587604051614a5a9190615698565b60006040518083038185875af1925050503d8060008114614a97576040519150601f19603f3d011682016040523d82523d6000602084013e614a9c565b606091505b5091509150614aad87838387614cc0565b979650505050505050565b6060600080856001600160a01b031685604051614ad59190615698565b600060405180830381855af49150503d8060008114614b10576040519150601f19603f3d011682016040523d82523d6000602084013e614b15565b606091505b5091509150614b2686838387614cc0565b9695505050505050565b60006001614b3d8461218b565b614b4791906156e3565b600083815260986020526040902054909150808214614b9a576001600160a01b03841660009081526097602090815260408083208584528252808320548484528184208190558352609890915290208190555b5060009182526098602090815260408084208490556001600160a01b039094168352609781528383209183525290812055565b609954600090614bdf906001906156e3565b6000838152609a602052604081205460998054939450909284908110614c0757614c0761584e565b906000526020600020015490508060998381548110614c2857614c2861584e565b6000918252602080832090910192909255828152609a90915260408082208490558582528120556099805480614c6057614c60615d6f565b6001900381819060005260206000200160009055905550505050565b6000614c878361218b565b6001600160a01b039093166000908152609760209081526040808320868452825280832085905593825260989052919091209190915550565b60608315614d2f578251600003614d28576001600160a01b0385163b614d285760405162461bcd60e51b815260206004820152601d60248201527f416464726573733a2063616c6c20746f206e6f6e2d636f6e74726163740000006044820152606401610d7f565b5081613beb565b613beb8383815115614d445781518083602001fd5b8060405162461bcd60e51b8152600401610d7f9190614f45565b828054614d6a906156fa565b90600052602060002090601f016020900481019282614d8c5760008555614dd2565b82601f10614da557805160ff1916838001178555614dd2565b82800160010185558215614dd2579182015b82811115614dd2578251825591602001919060010190614db7565b50614dde929150614de2565b5090565b5b80821115614dde5760008155600101614de3565b6001600160e01b0319811681146111eb57600080fd5b600060208284031215614e1f57600080fd5b8135612b1a81614df7565b6001600160a01b03811681146111eb57600080fd5b60008083601f840112614e5157600080fd5b5081356001600160401b03811115614e6857600080fd5b602083019150836020828501011115614e8057600080fd5b9250929050565b600080600080600060808688031215614e9f57600080fd5b8535614eaa81614e2a565b945060208601356001600160401b03811115614ec557600080fd5b614ed188828901614e3f565b9699909850959660408101359660609091013595509350505050565b60005b83811015614f08578181015183820152602001614ef0565b83811115611c6c5750506000910152565b60008151808452614f31816020860160208601614eed565b601f01601f19169290920160200192915050565b602081526000612b1a6020830184614f19565b600060208284031215614f6a57600080fd5b5035919050565b60008060408385031215614f8457600080fd5b8235614f8f81614e2a565b946020939093013593505050565b60008060408385031215614fb057600080fd5b50508035926020909101359150565b634e487b7160e01b600052602160045260246000fd5b60078110614ff357634e487b7160e01b600052602160045260246000fd5b9052565b60208101610c9a8284614fd5565b6000806000806000806080878903121561501e57600080fd5b8635955060208701356001600160401b038082111561503c57600080fd5b6150488a838b01614e3f565b9097509550604089013591508082111561506157600080fd5b5061506e89828a01614e3f565b979a9699509497949695606090950135949350505050565b60008060008060006080868803121561509e57600080fd5b85356150a981614e2a565b945060208601356150b981614e2a565b93506040860135925060608601356001600160401b038111156150db57600080fd5b6150e788828901614e3f565b969995985093965092949392505050565b60008060006060848603121561510d57600080fd5b833561511881614e2a565b9250602084013561512881614e2a565b929592945050506040919091013590565b6000604082016040835280855180835260608501915060608160051b8601019250602080880160005b8381101561519057605f1988870301855261517e868351614f19565b95509382019390820190600101615162565b50508584038187015286518085528782019482019350915060005b828110156151d05784516001600160a01b0316845293810193928101926001016151ab565b5091979650505050505050565b600080604083850312156151f057600080fd5b82359150602083013561520281614e2a565b809150509250929050565b634e487b7160e01b600052604160045260246000fd5b60405161018081016001600160401b03811182821017156152465761524661520d565b60405290565b604051601f8201601f191681016001600160401b03811182821017156152745761527461520d565b604052919050565b60006001600160401b038211156152955761529561520d565b50601f01601f191660200190565b600082601f8301126152b457600080fd5b81356152c76152c28261527c565b61524c565b8181528460208386010111156152dc57600080fd5b816020850160208301376000918101602001919091529392505050565b60006020828403121561530b57600080fd5b81356001600160401b0381111561532157600080fd5b613beb848285016152a3565b60006020828403121561533f57600080fd5b8135612b1a81614e2a565b6000806040838503121561535d57600080fd5b8235915060208301356007811061520257600080fd5b60008060006060848603121561538857600080fd5b8335925060208401356001600160401b038111156153a557600080fd5b6153b1868287016152a3565b925050604084013590509250925092565b600080604083850312156153d557600080fd5b82356153e081614e2a565b915060208301356001600160401b038111156153fb57600080fd5b615407858286016152a3565b9150509250929050565b6000806000806080858703121561542757600080fd5b8435935060208501356001600160401b038082111561544557600080fd5b615451888389016152a3565b945060408701359350606087013591508082111561546e57600080fd5b5061547b878288016152a3565b91505092959194509250565b85815260a0602082015260006154a060a0830187614f19565b8560408401526154b36060840186614fd5565b82810360808401526132538185614f19565b600080604083850312156154d857600080fd5b8235915060208301356001600160401b038111156153fb57600080fd5b80151581146111eb57600080fd5b6000806040838503121561551657600080fd5b823561552181614e2a565b91506020830135615202816154f5565b6000806000806080858703121561554757600080fd5b843561555281614e2a565b9350602085013561556281614e2a565b92506040850135915060608501356001600160401b0381111561558457600080fd5b61547b878288016152a3565b600080604083850312156155a357600080fd5b82356001600160401b038111156155b957600080fd5b6155c5858286016152a3565b9250506020830135615202816154f5565b8381526020810183905260608101613beb6040830184614fd5565b6000806040838503121561560457600080fd5b823561560f81614e2a565b9150602083013561520281614e2a565b600082601f83011261563057600080fd5b815161563e6152c28261527c565b81815284602083860101111561565357600080fd5b613beb826020830160208701614eed565b60006020828403121561567657600080fd5b81516001600160401b0381111561568c57600080fd5b613beb8482850161561f565b600082516156aa818460208701614eed565b9190910192915050565b6000602082840312156156c657600080fd5b5051919050565b634e487b7160e01b600052601160045260246000fd5b6000828210156156f5576156f56156cd565b500390565b600181811c9082168061570e57607f821691505b60208210810361572e57634e487b7160e01b600052602260045260246000fd5b50919050565b805161573f816154f5565b919050565b60006020828403121561575657600080fd5b8151612b1a816154f5565b8183823760009101908152919050565b6020808252602c908201527f46756e6374696f6e206d7573742062652063616c6c6564207468726f7567682060408201526b19195b1959d85d1958d85b1b60a21b606082015260800190565b6020808252602c908201527f46756e6374696f6e206d7573742062652063616c6c6564207468726f7567682060408201526b6163746976652070726f787960a01b606082015260800190565b60208082526025908201527f43616c6c6572206973206e6f74207468652072656769737472792c206e6f722060408201526437bbb732b960d91b606082015260800190565b634e487b7160e01b600052603260045260246000fd5b600080835481600182811c91508083168061588057607f831692505b6020808410820361589f57634e487b7160e01b86526022600452602486fd5b8180156158b357600181146158c4576158f1565b60ff198616895284890196506158f1565b60008a81526020902060005b868110156158e95781548b8201529085019083016158d0565b505084890196505b509498975050505050505050565b6040815260006159126040830185614f19565b905082151560208301529392505050565b60008351615935818460208801614eed565b835190830190615949818360208801614eed565b01949350505050565b83815260606020820152600061596b6060830185614f19565b9050826040830152949350505050565b60006020828403121561598d57600080fd5b8151612b1a81614e2a565b80516001600160401b038116811461573f57600080fd5b6000602082840312156159c157600080fd5b81516001600160401b03808211156159d857600080fd5b9083019061018082860312156159ed57600080fd5b6159f5615223565b825182811115615a0457600080fd5b615a108782860161561f565b825250615a1f60208401615998565b6020820152615a3060408401615998565b604082015260608301516060820152615a4b60808401615998565b6080820152615a5c60a08401615734565b60a0820152615a6d60c08401615734565b60c082015260e083015182811115615a8457600080fd5b615a908782860161561f565b60e0830152506101008084015183811115615aaa57600080fd5b615ab68882870161561f565b8284015250506101208084015183811115615ad057600080fd5b615adc8882870161561f565b8284015250506101408084015183811115615af657600080fd5b615b028882870161561f565b8284015250506101608084015183811115615b1c57600080fd5b615b288882870161561f565b918301919091525095945050505050565b60208082526032908201527f4552433732313a207472616e7366657220746f206e6f6e20455243373231526560408201527131b2b4bb32b91034b6b83632b6b2b73a32b960711b606082015260800190565b82815260408101612b1a6020830184614fd5565b84815283602082015260018060a01b0383166040820152608060608201526000614b266080830184614f19565b6020808252602b908201527f496e697469616c697a61626c653a20636f6e7472616374206973206e6f74206960408201526a6e697469616c697a696e6760a81b606082015260800190565b60208082526025908201527f4552433732313a207472616e736665722066726f6d20696e636f72726563742060408201526437bbb732b960d91b606082015260800190565b6001600160a01b0385811682528416602082015260408101839052608060608201819052600090614b2690830184614f19565b600060208284031215615ca157600080fd5b8151612b1a81614df7565b7f416363657373436f6e74726f6c3a206163636f756e7420000000000000000000815260008351615ce4816017850160208801614eed565b7001034b99036b4b9b9b4b733903937b6329607d1b6017918401918201528351615d15816028840160208801614eed565b01602801949350505050565b6000816000190483118215151615615d3b57615d3b6156cd565b500290565b60008219821115615d5357615d536156cd565b500190565b600081615d6757615d676156cd565b506000190190565b634e487b7160e01b600052603160045260246000fdfe360894a13ba1a3210667c828492db98dca3e2076cc3735a920a3ca505d382bbc416464726573733a206c6f772d6c6576656c2064656c65676174652063616c6c206661696c6564546f7563616e2050726f746f636f6c3a20436172626f6e204f666673657420426174636865730ce23c3e399818cfee81a7ab0880f714e53d7672b08df0fa62f2843416e1ea09a26469706673582212206c66552c373854ed3c60324f158d040019480449c9169d132225d2bf4c20a90764736f6c634300080e0033",
  "devdoc": {
    "kind": "dev",
    "methods": {
      "addComment(uint256,string)": {
        "details": "Don't allow the contract owner to comment.  When the contract owner can also be a verifier they should add them as a verifier first; this should prevent accidental comments from the wrong account."
      },
      "approve(address,uint256)": {
        "details": "See {IERC721-approve}."
      },
      "balanceOf(address)": {
        "details": "See {IERC721-balanceOf}."
      },
      "confirmBatch(uint256)": {
        "details": "Callable only by verifiers, only for pending batches. This flow requires a previous linking with a vintage",
        "params": {
          "tokenId": "The token ID of the batch"
        }
      },
      "confirmBatchWithVintage(uint256,uint256)": {
        "details": "Function for main approval flow. Callable only by verifiers.",
        "params": {
          "projectVintageTokenId": "The token ID of the vintage",
          "tokenId": "The token ID of the batch"
        }
      },
      "constructor": {
        "custom:oz-upgrades-unsafe-allow": "constructor"
      },
      "fractionalize(uint256)": {
        "details": "Only by the batch-NFT owner or approved operator, only if batch is confirmed. Batch-NFT is sent from the sender and TCO2s are transferred to the sender. Queries the factory to find the corresponding TCO2 contract Fractionalization happens via receive hook on `safeTransferFrom`",
        "params": {
          "tokenId": "The token ID of the batch"
        }
      },
      "getApproved(uint256)": {
        "details": "See {IERC721-getApproved}."
      },
      "getBatchNFTData(uint256)": {
        "details": "Used in TCO2 contract's receive hook `onERC721Received`",
        "params": {
          "tokenId": "The token ID of the batch"
        },
        "returns": {
          "_0": "projectVintageTokenId The token ID of the vintage",
          "_1": "quantity Quantity in tCO2e",
          "_2": "status The status of the batch"
        }
      },
      "getComments(uint256)": {
        "details": "This is necessary because the automatically generated nftList getter will not include an array of comments in the returned tuple for gas reasons: https://docs.soliditylang.org/en/latest/contracts.html#visibility-and-getters"
      },
      "getConfirmationStatus(uint256)": {
        "params": {
          "tokenId": "The token ID of the batch"
        }
      },
      "getRoleAdmin(bytes32)": {
        "details": "Returns the admin role that controls `role`. See {grantRole} and {revokeRole}. To change a role's admin, use {_setRoleAdmin}."
      },
      "getSerialNumber(uint256)": {
        "params": {
          "tokenId": "The token ID of the batch"
        },
        "returns": {
          "_0": "The serial number of the batch"
        }
      },
      "grantRole(bytes32,address)": {
        "details": "Grants `role` to `account`. If `account` had not been already granted `role`, emits a {RoleGranted} event. Requirements: - the caller must have ``role``'s admin role. May emit a {RoleGranted} event."
      },
      "hasRole(bytes32,address)": {
        "details": "Returns `true` if `account` has been granted `role`."
      },
      "isApprovedForAll(address,address)": {
        "details": "See {IERC721-isApprovedForAll}."
      },
      "linkWithVintage(uint256,uint256)": {
        "details": "Function for alternative flow where Batch-NFT approval is done separately. Callable only by verifiers.",
        "params": {
          "projectVintageTokenId": "The token ID of the vintage",
          "tokenId": "The token ID of the batch"
        }
      },
      "mintEmptyBatch(address)": {
        "details": "To be updated by NFT owner after serial number has been provided",
        "params": {
          "to": "The address the NFT should be minted to. This should be the user."
        },
        "returns": {
          "_0": "The token ID of the newly minted NFT"
        }
      },
      "name()": {
        "details": "See {IERC721Metadata-name}."
      },
      "owner()": {
        "details": "Returns the address of the current owner."
      },
      "ownerOf(uint256)": {
        "details": "See {IERC721-ownerOf}."
      },
      "pause()": {
        "details": "wraps _pause(), callable only by the Toucan contract registry or the contract owner"
      },
      "paused()": {
        "details": "Returns true if the contract is paused, and false otherwise."
      },
      "proxiableUUID()": {
        "details": "Implementation of the ERC1822 {proxiableUUID} function. This returns the storage slot used by the implementation. It is used to validate the implementation's compatibility when performing an upgrade. IMPORTANT: A proxy pointing at a proxiable contract should not be considered proxiable itself, because this risks bricking a proxy that upgrades to it, by delegating to itself until out of gas. Thus it is critical that this function revert if invoked through a proxy. This is guaranteed by the `notDelegated` modifier."
      },
      "rejectApprovedWithComment(uint256,string)": {
        "details": "admin function to reject a previously approved batch Requires that the Batch-NFT has not been fractionalized yet"
      },
      "rejectBatch(uint256)": {
        "details": "Callable only by verifiers, only for pending batches.",
        "params": {
          "tokenId": "The token ID of the batch"
        }
      },
      "renounceOwnership()": {
        "details": "Leaves the contract without owner. It will not be possible to call `onlyOwner` functions. Can only be called by the current owner. NOTE: Renouncing ownership will leave the contract without an owner, thereby disabling any functionality that is only available to the owner."
      },
      "renounceRole(bytes32,address)": {
        "details": "Revokes `role` from the calling account. Roles are often managed via {grantRole} and {revokeRole}: this function's purpose is to provide a mechanism for accounts to lose their privileges if they are compromised (such as when a trusted device is misplaced). If the calling account had been revoked `role`, emits a {RoleRevoked} event. Requirements: - the caller must be `account`. May emit a {RoleRevoked} event."
      },
      "revokeRole(bytes32,address)": {
        "details": "Revokes `role` from `account`. If `account` had been granted `role`, emits a {RoleRevoked} event. Requirements: - the caller must have ``role``'s admin role. May emit a {RoleRevoked} event."
      },
      "safeTransferFrom(address,address,uint256)": {
        "details": "See {IERC721-safeTransferFrom}."
      },
      "safeTransferFrom(address,address,uint256,bytes)": {
        "details": "See {IERC721-safeTransferFrom}."
      },
      "setApprovalForAll(address,bool)": {
        "details": "See {IERC721-setApprovalForAll}."
      },
      "setSerialandQuantity(uint256,string,uint256)": {
        "details": "Convenience function to only update serial number and quantity and not the serial/URI. Callable only by a verifier or the batch-NFT owner.",
        "params": {
          "newQuantity": "Quantity in tCO2e, greater than 0",
          "newSerialNumber": "The serial number received from the registry/credit cancellation",
          "tokenId": "The token ID of the batch"
        }
      },
      "setStatusForDetokenizationOrRetirement(uint256,uint8)": {
        "details": "Callable only by the escrow contract, only for batches owned by a TCO2 contract",
        "params": {
          "newStatus": "The new status to set",
          "tokenId": "The token ID of the batch"
        }
      },
      "setSupportedRegistry(string,bool)": {
        "details": "Callable only by the contract owner; executable only if the status can be changed",
        "params": {
          "isSupported": "Whether the registry should be supported",
          "registry": "The registry to set supported status for"
        }
      },
      "setToPending(uint256)": {
        "details": "Callable only by verifiers, only for rejected batches.",
        "params": {
          "tokenId": "The token ID of the batch"
        }
      },
      "setToucanContractRegistry(address)": {
        "details": "Callable only by the contract owner",
        "params": {
          "_address": "The address of the new contract registry"
        }
      },
      "split(uint256,string,string,uint256)": {
        "details": "Callable only by the escrow contract, only for batches with status RetirementRequested or DetokenizationRequested. The TCO2 contract will also be the owner of the new batch and its status will be the same as the old batch.",
        "params": {
          "newTokenIdQuantity": "The quantity for the new batch, must be smaller than the old quantity and greater than 0",
          "newTokenIdSerialNumber": "The serial number for the new batch",
          "tokenId": "The token ID of the batch to split",
          "tokenIdNewSerialNumber": "The new serial number for the old batch"
        },
        "returns": {
          "newTokenId": "The token ID of the new batch"
        }
      },
      "symbol()": {
        "details": "See {IERC721Metadata-symbol}."
      },
      "tokenByIndex(uint256)": {
        "details": "See {IERC721Enumerable-tokenByIndex}."
      },
      "tokenOfOwnerByIndex(address,uint256)": {
        "details": "See {IERC721Enumerable-tokenOfOwnerByIndex}."
      },
      "tokenURI(uint256)": {
        "details": "Returns the Uniform Resource Identifier (URI) for `tokenId` token. based on the ERC721URIStorage implementation"
      },
      "tokenize(address,string,uint256,uint256)": {
        "details": "Callable only by tokenizers. Performs the full tokenization process: minting a batch-NFT, linking it with a project vintage, setting the quantity and serial number, confirming the batch, and fractionalizing it. The TCO2s are then transferred to the recipient.",
        "params": {
          "projectVintageTokenId": "The token ID of the vintage",
          "quantity": "Quantity to be tokenized in 1e18 format, greater than 0",
          "recipient": "Recipient of the tokens",
          "serialNumber": "Serial number of the carbon credits to be tokenized"
        },
        "returns": {
          "tokenId": "The token ID of the newly minted batch"
        }
      },
      "totalSupply()": {
        "details": "See {IERC721Enumerable-totalSupply}."
      },
      "transferFrom(address,address,uint256)": {
        "details": "Overridden here because of function overloading issues with ethers.js"
      },
      "transferOwnership(address)": {
        "details": "Transfers ownership of the contract to a new account (`newOwner`). Can only be called by the current owner."
      },
      "unpause()": {
        "details": "wraps _unpause(), callable only by the Toucan contract registry or the contract owner"
      },
      "unsetSerialNumber(string)": {
        "details": "Function to remove uniqueness for previously set serialnumbers. Callable only by verifiers. N.B. even though (technically speaking) calling this to complete the upgrade to a fixed contract is the responsibility of the contract's owner (deployer), in practice that is a multi-sig even before upgrade, and unsetting a bunch of serials via multi-sig is not practical. So instead we allow the verifiers to do it.",
        "params": {
          "serialNumber": "The serial number to unset"
        }
      },
      "updateBatchWithData(uint256,string,uint256,string)": {
        "details": "Data is usually inserted by the user (NFT owner) via the UI. Callable only by verifiers or the batch-NFT owner.",
        "params": {
          "quantity": "Quantity in tCO2e, greater than 0",
          "serialNumber": "The serial number received from the registry/credit cancellation",
          "tokenId": "The token ID of the batch",
          "uri": "Optional tokenURI with additional information"
        }
      },
      "upgradeTo(address)": {
        "custom:oz-upgrades-unsafe-allow-reachable": "delegatecall",
        "details": "Upgrade the implementation of the proxy to `newImplementation`. Calls {_authorizeUpgrade}. Emits an {Upgraded} event."
      },
      "upgradeToAndCall(address,bytes)": {
        "custom:oz-upgrades-unsafe-allow-reachable": "delegatecall",
        "details": "Upgrade the implementation of the proxy to `newImplementation`, and subsequently execute the function call encoded in `data`. Calls {_authorizeUpgrade}. Emits an {Upgraded} event."
      }
    },
    "stateVariables": {
      "VERIFIER_ROLE": {
        "details": "All roles related to accessing this contract"
      },
      "VERSION": {
        "details": "Version-related parameters. VERSION keeps track of production releases. VERSION_RELEASE_CANDIDATE keeps track of iterations of a VERSION in our staging environment."
      }
    },
    "title": "A contract for managing batches of carbon credits",
    "version": 1
  },
  "userdoc": {
    "kind": "user",
    "methods": {
      "addComment(uint256,string)": {
        "notice": "Append a comment to a Batch-NFT"
      },
      "confirmBatch(uint256)": {
        "notice": "Function to approve a Batch-NFT after validation. Fractionalization requires status Confirmed."
      },
      "confirmBatchWithVintage(uint256,uint256)": {
        "notice": "Link with vintage and confirm Batch-NFT"
      },
      "fractionalize(uint256)": {
        "notice": "Automatically converts Batch-NFT to TCO2s (ERC20)"
      },
      "getBatchNFTData(uint256)": {
        "notice": "Returns all data for Batch-NFT"
      },
      "getConfirmationStatus(uint256)": {
        "notice": "Returns just the confirmation (approval) status of Batch-NFT"
      },
      "getSerialNumber(uint256)": {
        "notice": "Returns the serial number of a batch token id"
      },
      "linkWithVintage(uint256,uint256)": {
        "notice": "Link Batch-NFT with Vintage"
      },
      "mintEmptyBatch(address)": {
        "notice": "Permissionlessly mint empty Batch-NFTs Entry point to the carbon bridging process."
      },
      "pause()": {
        "notice": "Emergency function to disable contract's core functionality"
      },
      "rejectBatch(uint256)": {
        "notice": "Reject Batch-NFTs, e.g. if the serial number entered is incorrect."
      },
      "rejectWithComment(uint256,string)": {
        "notice": "Function to reject Batch-NFTs, including a reason to be displayed to the user."
      },
      "setSerialandQuantity(uint256,string,uint256)": {
        "notice": "Update batch-NFT with serial number and quantity only"
      },
      "setStatusForDetokenizationOrRetirement(uint256,uint8)": {
        "notice": "Set the status of a batch to a new status for detokenization or retirement requests. Valid transitions: - In case a user makes a request:   - Confirmed -> DetokenizationRequested   - Confirmed -> RetirementRequested - In case a DETOKENIZER_ROLE in TCO2 finalizes a request:   - DetokenizationRequested -> DetokenizationFinalized   - RetirementRequested -> RetirementFinalized - In case a DETOKENIZER_ROLE in TCO2 reverts a request:   - DetokenizationRequested -> Confirmed   - RetirementRequested -> Confirmed"
      },
      "setSupportedRegistry(string,bool)": {
        "notice": "Admin function to set whether a registry is supported"
      },
      "setToPending(uint256)": {
        "notice": "Set batches back to pending after a rejection. This can be useful if there was an issue unrelated to the on-chain data of the batch, e.g. the batch was incorrectly rejected."
      },
      "setToucanContractRegistry(address)": {
        "notice": "Admin function to set the contract registry"
      },
      "split(uint256,string,string,uint256)": {
        "notice": "Split a batch-NFT into two batch-NFTs, by creating a new batch-NFT and updating the old one. The old batch will have a new serial number and quantity will be reduced by the quantity of the new batch."
      },
      "tokenize(address,string,uint256,uint256)": {
        "notice": "This function allows external APIs to tokenize their carbon credits"
      },
      "unpause()": {
        "notice": "Emergency function to re-enable contract's core functionality after being paused"
      },
      "unsetSerialNumber(string)": {
        "notice": "Remove a previously approved serial number"
      },
      "updateBatchWithData(uint256,string,uint256,string)": {
        "notice": "Update Batch-NFT after Serialnumber has been verified"
      }
    },
    "notice": "Also referred to as Batch-Contract (formerly BatchCollection) Contract that tokenizes retired/cancelled CO2 credits into NFTs via a claims process",
    "version": 1
  },
  "storageLayout": {
    "storage": [
      {
        "astId": 2373,
        "contract": "contracts/CarbonOffsetBatches.sol:CarbonOffsetBatches",
        "label": "_initialized",
        "offset": 0,
        "slot": "0",
        "type": "t_uint8"
      },
      {
        "astId": 2376,
        "contract": "contracts/CarbonOffsetBatches.sol:CarbonOffsetBatches",
        "label": "_initializing",
        "offset": 1,
        "slot": "0",
        "type": "t_bool"
      },
      {
        "astId": 7515,
        "contract": "contracts/CarbonOffsetBatches.sol:CarbonOffsetBatches",
        "label": "__gap",
        "offset": 0,
        "slot": "1",
        "type": "t_array(t_uint256)50_storage"
      },
      {
        "astId": 7899,
        "contract": "contracts/CarbonOffsetBatches.sol:CarbonOffsetBatches",
        "label": "__gap",
        "offset": 0,
        "slot": "51",
        "type": "t_array(t_uint256)50_storage"
      },
      {
        "astId": 5645,
        "contract": "contracts/CarbonOffsetBatches.sol:CarbonOffsetBatches",
        "label": "_name",
        "offset": 0,
        "slot": "101",
        "type": "t_string_storage"
      },
      {
        "astId": 5647,
        "contract": "contracts/CarbonOffsetBatches.sol:CarbonOffsetBatches",
        "label": "_symbol",
        "offset": 0,
        "slot": "102",
        "type": "t_string_storage"
      },
      {
        "astId": 5651,
        "contract": "contracts/CarbonOffsetBatches.sol:CarbonOffsetBatches",
        "label": "_owners",
        "offset": 0,
        "slot": "103",
        "type": "t_mapping(t_uint256,t_address)"
      },
      {
        "astId": 5655,
        "contract": "contracts/CarbonOffsetBatches.sol:CarbonOffsetBatches",
        "label": "_balances",
        "offset": 0,
        "slot": "104",
        "type": "t_mapping(t_address,t_uint256)"
      },
      {
        "astId": 5659,
        "contract": "contracts/CarbonOffsetBatches.sol:CarbonOffsetBatches",
        "label": "_tokenApprovals",
        "offset": 0,
        "slot": "105",
        "type": "t_mapping(t_uint256,t_address)"
      },
      {
        "astId": 5665,
        "contract": "contracts/CarbonOffsetBatches.sol:CarbonOffsetBatches",
        "label": "_operatorApprovals",
        "offset": 0,
        "slot": "106",
        "type": "t_mapping(t_address,t_mapping(t_address,t_bool))"
      },
      {
        "astId": 6567,
        "contract": "contracts/CarbonOffsetBatches.sol:CarbonOffsetBatches",
        "label": "__gap",
        "offset": 0,
        "slot": "107",
        "type": "t_array(t_uint256)44_storage"
      },
      {
        "astId": 6721,
        "contract": "contracts/CarbonOffsetBatches.sol:CarbonOffsetBatches",
        "label": "_ownedTokens",
        "offset": 0,
        "slot": "151",
        "type": "t_mapping(t_address,t_mapping(t_uint256,t_uint256))"
      },
      {
        "astId": 6725,
        "contract": "contracts/CarbonOffsetBatches.sol:CarbonOffsetBatches",
        "label": "_ownedTokensIndex",
        "offset": 0,
        "slot": "152",
        "type": "t_mapping(t_uint256,t_uint256)"
      },
      {
        "astId": 6728,
        "contract": "contracts/CarbonOffsetBatches.sol:CarbonOffsetBatches",
        "label": "_allTokens",
        "offset": 0,
        "slot": "153",
        "type": "t_array(t_uint256)dyn_storage"
      },
      {
        "astId": 6732,
        "contract": "contracts/CarbonOffsetBatches.sol:CarbonOffsetBatches",
        "label": "_allTokensIndex",
        "offset": 0,
        "slot": "154",
        "type": "t_mapping(t_uint256,t_uint256)"
      },
      {
        "astId": 7076,
        "contract": "contracts/CarbonOffsetBatches.sol:CarbonOffsetBatches",
        "label": "__gap",
        "offset": 0,
        "slot": "155",
        "type": "t_array(t_uint256)46_storage"
      },
      {
        "astId": 1879,
        "contract": "contracts/CarbonOffsetBatches.sol:CarbonOffsetBatches",
        "label": "_owner",
        "offset": 0,
        "slot": "201",
        "type": "t_address"
      },
      {
        "astId": 1999,
        "contract": "contracts/CarbonOffsetBatches.sol:CarbonOffsetBatches",
        "label": "__gap",
        "offset": 0,
        "slot": "202",
        "type": "t_array(t_uint256)49_storage"
      },
      {
        "astId": 2694,
        "contract": "contracts/CarbonOffsetBatches.sol:CarbonOffsetBatches",
        "label": "_paused",
        "offset": 0,
        "slot": "251",
        "type": "t_bool"
      },
      {
        "astId": 2799,
        "contract": "contracts/CarbonOffsetBatches.sol:CarbonOffsetBatches",
        "label": "__gap",
        "offset": 0,
        "slot": "252",
        "type": "t_array(t_uint256)49_storage"
      },
      {
        "astId": 1486,
        "contract": "contracts/CarbonOffsetBatches.sol:CarbonOffsetBatches",
        "label": "_roles",
        "offset": 0,
        "slot": "301",
        "type": "t_mapping(t_bytes32,t_struct(RoleData)1481_storage)"
      },
      {
        "astId": 1793,
        "contract": "contracts/CarbonOffsetBatches.sol:CarbonOffsetBatches",
        "label": "__gap",
        "offset": 0,
        "slot": "302",
        "type": "t_array(t_uint256)49_storage"
      },
      {
        "astId": 2355,
        "contract": "contracts/CarbonOffsetBatches.sol:CarbonOffsetBatches",
        "label": "__gap",
        "offset": 0,
        "slot": "351",
        "type": "t_array(t_uint256)50_storage"
      },
      {
        "astId": 2671,
        "contract": "contracts/CarbonOffsetBatches.sol:CarbonOffsetBatches",
        "label": "__gap",
        "offset": 0,
        "slot": "401",
        "type": "t_array(t_uint256)50_storage"
      },
      {
        "astId": 18132,
        "contract": "contracts/CarbonOffsetBatches.sol:CarbonOffsetBatches",
        "label": "batchTokenCounter",
        "offset": 0,
        "slot": "451",
        "type": "t_uint256"
      },
      {
        "astId": 18137,
        "contract": "contracts/CarbonOffsetBatches.sol:CarbonOffsetBatches",
        "label": "serialNumberApproved",
        "offset": 0,
        "slot": "452",
        "type": "t_mapping(t_string_memory_ptr,t_bool)"
      },
      {
        "astId": 18141,
        "contract": "contracts/CarbonOffsetBatches.sol:CarbonOffsetBatches",
        "label": "DEPRECATED_URIs",
        "offset": 0,
        "slot": "453",
        "type": "t_mapping(t_string_memory_ptr,t_bool)"
      },
      {
        "astId": 18145,
        "contract": "contracts/CarbonOffsetBatches.sol:CarbonOffsetBatches",
        "label": "DEPRECATED_VERIFIERS",
        "offset": 0,
        "slot": "454",
        "type": "t_mapping(t_address,t_bool)"
      },
      {
        "astId": 18147,
        "contract": "contracts/CarbonOffsetBatches.sol:CarbonOffsetBatches",
        "label": "baseURI",
        "offset": 0,
        "slot": "455",
        "type": "t_string_storage"
      },
      {
        "astId": 18149,
        "contract": "contracts/CarbonOffsetBatches.sol:CarbonOffsetBatches",
        "label": "contractRegistry",
        "offset": 0,
        "slot": "456",
        "type": "t_address"
      },
      {
        "astId": 18172,
        "contract": "contracts/CarbonOffsetBatches.sol:CarbonOffsetBatches",
        "label": "nftList",
        "offset": 0,
        "slot": "457",
        "type": "t_mapping(t_uint256,t_struct(NFTData)18167_storage)"
      },
      {
        "astId": 18177,
        "contract": "contracts/CarbonOffsetBatches.sol:CarbonOffsetBatches",
        "label": "supportedRegistries",
        "offset": 0,
        "slot": "458",
        "type": "t_mapping(t_string_memory_ptr,t_bool)"
      }
    ],
    "types": {
      "t_address": {
        "encoding": "inplace",
        "label": "address",
        "numberOfBytes": "20"
      },
      "t_array(t_address)dyn_storage": {
        "base": "t_address",
        "encoding": "dynamic_array",
        "label": "address[]",
        "numberOfBytes": "32"
      },
      "t_array(t_string_storage)dyn_storage": {
        "base": "t_string_storage",
        "encoding": "dynamic_array",
        "label": "string[]",
        "numberOfBytes": "32"
      },
      "t_array(t_uint256)44_storage": {
        "base": "t_uint256",
        "encoding": "inplace",
        "label": "uint256[44]",
        "numberOfBytes": "1408"
      },
      "t_array(t_uint256)46_storage": {
        "base": "t_uint256",
        "encoding": "inplace",
        "label": "uint256[46]",
        "numberOfBytes": "1472"
      },
      "t_array(t_uint256)49_storage": {
        "base": "t_uint256",
        "encoding": "inplace",
        "label": "uint256[49]",
        "numberOfBytes": "1568"
      },
      "t_array(t_uint256)50_storage": {
        "base": "t_uint256",
        "encoding": "inplace",
        "label": "uint256[50]",
        "numberOfBytes": "1600"
      },
      "t_array(t_uint256)dyn_storage": {
        "base": "t_uint256",
        "encoding": "dynamic_array",
        "label": "uint256[]",
        "numberOfBytes": "32"
      },
      "t_bool": {
        "encoding": "inplace",
        "label": "bool",
        "numberOfBytes": "1"
      },
      "t_bytes32": {
        "encoding": "inplace",
        "label": "bytes32",
        "numberOfBytes": "32"
      },
      "t_enum(BatchStatus)18193": {
        "encoding": "inplace",
        "label": "enum BatchStatus",
        "numberOfBytes": "1"
      },
      "t_mapping(t_address,t_bool)": {
        "encoding": "mapping",
        "key": "t_address",
        "label": "mapping(address => bool)",
        "numberOfBytes": "32",
        "value": "t_bool"
      },
      "t_mapping(t_address,t_mapping(t_address,t_bool))": {
        "encoding": "mapping",
        "key": "t_address",
        "label": "mapping(address => mapping(address => bool))",
        "numberOfBytes": "32",
        "value": "t_mapping(t_address,t_bool)"
      },
      "t_mapping(t_address,t_mapping(t_uint256,t_uint256))": {
        "encoding": "mapping",
        "key": "t_address",
        "label": "mapping(address => mapping(uint256 => uint256))",
        "numberOfBytes": "32",
        "value": "t_mapping(t_uint256,t_uint256)"
      },
      "t_mapping(t_address,t_uint256)": {
        "encoding": "mapping",
        "key": "t_address",
        "label": "mapping(address => uint256)",
        "numberOfBytes": "32",
        "value": "t_uint256"
      },
      "t_mapping(t_bytes32,t_struct(RoleData)1481_storage)": {
        "encoding": "mapping",
        "key": "t_bytes32",
        "label": "mapping(bytes32 => struct AccessControlUpgradeable.RoleData)",
        "numberOfBytes": "32",
        "value": "t_struct(RoleData)1481_storage"
      },
      "t_mapping(t_string_memory_ptr,t_bool)": {
        "encoding": "mapping",
        "key": "t_string_memory_ptr",
        "label": "mapping(string => bool)",
        "numberOfBytes": "32",
        "value": "t_bool"
      },
      "t_mapping(t_uint256,t_address)": {
        "encoding": "mapping",
        "key": "t_uint256",
        "label": "mapping(uint256 => address)",
        "numberOfBytes": "32",
        "value": "t_address"
      },
      "t_mapping(t_uint256,t_struct(NFTData)18167_storage)": {
        "encoding": "mapping",
        "key": "t_uint256",
        "label": "mapping(uint256 => struct CarbonOffsetBatchesStorageV1.NFTData)",
        "numberOfBytes": "32",
        "value": "t_struct(NFTData)18167_storage"
      },
      "t_mapping(t_uint256,t_uint256)": {
        "encoding": "mapping",
        "key": "t_uint256",
        "label": "mapping(uint256 => uint256)",
        "numberOfBytes": "32",
        "value": "t_uint256"
      },
      "t_string_memory_ptr": {
        "encoding": "bytes",
        "label": "string",
        "numberOfBytes": "32"
      },
      "t_string_storage": {
        "encoding": "bytes",
        "label": "string",
        "numberOfBytes": "32"
      },
      "t_struct(NFTData)18167_storage": {
        "encoding": "inplace",
        "label": "struct CarbonOffsetBatchesStorageV1.NFTData",
        "members": [
          {
            "astId": 18151,
            "contract": "contracts/CarbonOffsetBatches.sol:CarbonOffsetBatches",
            "label": "projectVintageTokenId",
            "offset": 0,
            "slot": "0",
            "type": "t_uint256"
          },
          {
            "astId": 18153,
            "contract": "contracts/CarbonOffsetBatches.sol:CarbonOffsetBatches",
            "label": "serialNumber",
            "offset": 0,
            "slot": "1",
            "type": "t_string_storage"
          },
          {
            "astId": 18155,
            "contract": "contracts/CarbonOffsetBatches.sol:CarbonOffsetBatches",
            "label": "quantity",
            "offset": 0,
            "slot": "2",
            "type": "t_uint256"
          },
          {
            "astId": 18158,
            "contract": "contracts/CarbonOffsetBatches.sol:CarbonOffsetBatches",
            "label": "status",
            "offset": 0,
            "slot": "3",
            "type": "t_enum(BatchStatus)18193"
          },
          {
            "astId": 18160,
            "contract": "contracts/CarbonOffsetBatches.sol:CarbonOffsetBatches",
            "label": "uri",
            "offset": 0,
            "slot": "4",
            "type": "t_string_storage"
          },
          {
            "astId": 18163,
            "contract": "contracts/CarbonOffsetBatches.sol:CarbonOffsetBatches",
            "label": "comments",
            "offset": 0,
            "slot": "5",
            "type": "t_array(t_string_storage)dyn_storage"
          },
          {
            "astId": 18166,
            "contract": "contracts/CarbonOffsetBatches.sol:CarbonOffsetBatches",
            "label": "commentAuthors",
            "offset": 0,
            "slot": "6",
            "type": "t_array(t_address)dyn_storage"
          }
        ],
        "numberOfBytes": "224"
      },
      "t_struct(RoleData)1481_storage": {
        "encoding": "inplace",
        "label": "struct AccessControlUpgradeable.RoleData",
        "members": [
          {
            "astId": 1478,
            "contract": "contracts/CarbonOffsetBatches.sol:CarbonOffsetBatches",
            "label": "members",
            "offset": 0,
            "slot": "0",
            "type": "t_mapping(t_address,t_bool)"
          },
          {
            "astId": 1480,
            "contract": "contracts/CarbonOffsetBatches.sol:CarbonOffsetBatches",
            "label": "adminRole",
            "offset": 0,
            "slot": "1",
            "type": "t_bytes32"
          }
        ],
        "numberOfBytes": "64"
      },
      "t_uint256": {
        "encoding": "inplace",
        "label": "uint256",
        "numberOfBytes": "32"
      },
      "t_uint8": {
        "encoding": "inplace",
        "label": "uint8",
        "numberOfBytes": "1"
      }
    }
  }
}