{
  "address": "0xa824F993dbEb1f51062c93335C4a684Af3efe4DA",
  "abi": [
    {
      "inputs": [],
      "stateMutability": "nonpayable",
      "type": "constructor"
    },
    {
      "anonymous": false,
      "inputs": [
        {
          "indexed": false,
          "internalType": "address",
          "name": "previousAdmin",
          "type": "address"
        },
        {
          "indexed": false,
          "internalType": "address",
          "name": "newAdmin",
          "type": "address"
        }
      ],
      "name": "AdminChanged",
      "type": "event"
    },
    {
      "anonymous": false,
      "inputs": [
        {
          "indexed": true,
          "internalType": "address",
          "name": "owner",
          "type": "address"
        },
        {
          "indexed": true,
          "internalType": "address",
          "name": "approved",
          "type": "address"
        },
        {
          "indexed": true,
          "internalType": "uint256",
          "name": "tokenId",
          "type": "uint256"
        }
      ],
      "name": "Approval",
      "type": "event"
    },
    {
      "anonymous": false,
      "inputs": [
        {
          "indexed": true,
          "internalType": "address",
          "name": "owner",
          "type": "address"
        },
        {
          "indexed": true,
          "internalType": "address",
          "name": "operator",
          "type": "address"
        },
        {
          "indexed": false,
          "internalType": "bool",
          "name": "approved",
          "type": "bool"
        }
      ],
      "name": "ApprovalForAll",
      "type": "event"
    },
    {
      "anonymous": false,
      "inputs": [
        {
          "indexed": true,
          "internalType": "address",
          "name": "beacon",
          "type": "address"
        }
      ],
      "name": "BeaconUpgraded",
      "type": "event"
    },
    {
      "anonymous": false,
      "inputs": [
        {
          "indexed": false,
          "internalType": "uint8",
          "name": "version",
          "type": "uint8"
        }
      ],
      "name": "Initialized",
      "type": "event"
    },
    {
      "anonymous": false,
      "inputs": [
        {
          "indexed": true,
          "internalType": "address",
          "name": "previousOwner",
          "type": "address"
        },
        {
          "indexed": true,
          "internalType": "address",
          "name": "newOwner",
          "type": "address"
        }
      ],
      "name": "OwnershipTransferred",
      "type": "event"
    },
    {
      "anonymous": false,
      "inputs": [
        {
          "indexed": false,
          "internalType": "address",
          "name": "account",
          "type": "address"
        }
      ],
      "name": "Paused",
      "type": "event"
    },
    {
      "anonymous": false,
      "inputs": [
        {
          "indexed": false,
          "internalType": "address",
          "name": "receiver",
          "type": "address"
        },
        {
          "indexed": false,
          "internalType": "uint256",
          "name": "tokenId",
          "type": "uint256"
        },
        {
          "indexed": false,
          "internalType": "uint256",
          "name": "projectTokenId",
          "type": "uint256"
        },
        {
          "indexed": false,
          "internalType": "uint64",
          "name": "startTime",
          "type": "uint64"
        }
      ],
      "name": "ProjectVintageMinted",
      "type": "event"
    },
    {
      "anonymous": false,
      "inputs": [
        {
          "indexed": false,
          "internalType": "uint256",
          "name": "tokenId",
          "type": "uint256"
        }
      ],
      "name": "ProjectVintageUpdated",
      "type": "event"
    },
    {
      "anonymous": false,
      "inputs": [
        {
          "indexed": true,
          "internalType": "bytes32",
          "name": "role",
          "type": "bytes32"
        },
        {
          "indexed": true,
          "internalType": "bytes32",
          "name": "previousAdminRole",
          "type": "bytes32"
        },
        {
          "indexed": true,
          "internalType": "bytes32",
          "name": "newAdminRole",
          "type": "bytes32"
        }
      ],
      "name": "RoleAdminChanged",
      "type": "event"
    },
    {
      "anonymous": false,
      "inputs": [
        {
          "indexed": true,
          "internalType": "bytes32",
          "name": "role",
          "type": "bytes32"
        },
        {
          "indexed": true,
          "internalType": "address",
          "name": "account",
          "type": "address"
        },
        {
          "indexed": true,
          "internalType": "address",
          "name": "sender",
          "type": "address"
        }
      ],
      "name": "RoleGranted",
      "type": "event"
    },
    {
      "anonymous": false,
      "inputs": [
        {
          "indexed": true,
          "internalType": "bytes32",
          "name": "role",
          "type": "bytes32"
        },
        {
          "indexed": true,
          "internalType": "address",
          "name": "account",
          "type": "address"
        },
        {
          "indexed": true,
          "internalType": "address",
          "name": "sender",
          "type": "address"
        }
      ],
      "name": "RoleRevoked",
      "type": "event"
    },
    {
      "anonymous": false,
      "inputs": [
        {
          "indexed": true,
          "internalType": "address",
          "name": "from",
          "type": "address"
        },
        {
          "indexed": true,
          "internalType": "address",
          "name": "to",
          "type": "address"
        },
        {
          "indexed": true,
          "internalType": "uint256",
          "name": "tokenId",
          "type": "uint256"
        }
      ],
      "name": "Transfer",
      "type": "event"
    },
    {
      "anonymous": false,
      "inputs": [
        {
          "indexed": false,
          "internalType": "address",
          "name": "account",
          "type": "address"
        }
      ],
      "name": "Unpaused",
      "type": "event"
    },
    {
      "anonymous": false,
      "inputs": [
        {
          "indexed": true,
          "internalType": "address",
          "name": "implementation",
          "type": "address"
        }
      ],
      "name": "Upgraded",
      "type": "event"
    },
    {
      "inputs": [],
      "name": "DEFAULT_ADMIN_ROLE",
      "outputs": [
        {
          "internalType": "bytes32",
          "name": "",
          "type": "bytes32"
        }
      ],
      "stateMutability": "view",
      "type": "function"
    },
    {
      "inputs": [],
      "name": "MANAGER_ROLE",
      "outputs": [
        {
          "internalType": "bytes32",
          "name": "",
          "type": "bytes32"
        }
      ],
      "stateMutability": "view",
      "type": "function"
    },
    {
      "inputs": [],
      "name": "VERSION",
      "outputs": [
        {
          "internalType": "string",
          "name": "",
          "type": "string"
        }
      ],
      "stateMutability": "view",
      "type": "function"
    },
    {
      "inputs": [],
      "name": "VERSION_RELEASE_CANDIDATE",
      "outputs": [
        {
          "internalType": "uint256",
          "name": "",
          "type": "uint256"
        }
      ],
      "stateMutability": "view",
      "type": "function"
    },
    {
      "inputs": [
        {
          "internalType": "address",
          "name": "to",
          "type": "address"
        },
        {
          "components": [
            {
              "internalType": "string",
              "name": "name",
              "type": "string"
            },
            {
              "internalType": "uint64",
              "name": "startTime",
              "type": "uint64"
            },
            {
              "internalType": "uint64",
              "name": "endTime",
              "type": "uint64"
            },
            {
              "internalType": "uint256",
              "name": "projectTokenId",
              "type": "uint256"
            },
            {
              "internalType": "uint64",
              "name": "totalVintageQuantity",
              "type": "uint64"
            },
            {
              "internalType": "bool",
              "name": "isCorsiaCompliant",
              "type": "bool"
            },
            {
              "internalType": "bool",
              "name": "isCCPcompliant",
              "type": "bool"
            },
            {
              "internalType": "string",
              "name": "coBenefits",
              "type": "string"
            },
            {
              "internalType": "string",
              "name": "correspAdjustment",
              "type": "string"
            },
            {
              "internalType": "string",
              "name": "additionalCertification",
              "type": "string"
            },
            {
              "internalType": "string",
              "name": "uri",
              "type": "string"
            },
            {
              "internalType": "string",
              "name": "registry",
              "type": "string"
            }
          ],
          "internalType": "struct VintageData",
          "name": "_vintageData",
          "type": "tuple"
        }
      ],
      "name": "addNewVintage",
      "outputs": [
        {
          "internalType": "uint256",
          "name": "",
          "type": "uint256"
        }
      ],
      "stateMutability": "nonpayable",
      "type": "function"
    },
    {
      "inputs": [
        {
          "internalType": "address",
          "name": "to",
          "type": "address"
        },
        {
          "internalType": "uint256",
          "name": "tokenId",
          "type": "uint256"
        }
      ],
      "name": "approve",
      "outputs": [],
      "stateMutability": "nonpayable",
      "type": "function"
    },
    {
      "inputs": [
        {
          "internalType": "address",
          "name": "owner",
          "type": "address"
        }
      ],
      "name": "balanceOf",
      "outputs": [
        {
          "internalType": "uint256",
          "name": "",
          "type": "uint256"
        }
      ],
      "stateMutability": "view",
      "type": "function"
    },
    {
      "inputs": [],
      "name": "baseURI",
      "outputs": [
        {
          "internalType": "string",
          "name": "",
          "type": "string"
        }
      ],
      "stateMutability": "view",
      "type": "function"
    },
    {
      "inputs": [],
      "name": "contractRegistry",
      "outputs": [
        {
          "internalType": "address",
          "name": "",
          "type": "address"
        }
      ],
      "stateMutability": "view",
      "type": "function"
    },
    {
      "inputs": [
        {
          "internalType": "uint256",
          "name": "tokenId",
          "type": "uint256"
        }
      ],
      "name": "exists",
      "outputs": [
        {
          "internalType": "bool",
          "name": "",
          "type": "bool"
        }
      ],
      "stateMutability": "view",
      "type": "function"
    },
    {
      "inputs": [
        {
          "internalType": "uint256",
          "name": "tokenId",
          "type": "uint256"
        }
      ],
      "name": "getApproved",
      "outputs": [
        {
          "internalType": "address",
          "name": "",
          "type": "address"
        }
      ],
      "stateMutability": "view",
      "type": "function"
    },
    {
      "inputs": [
        {
          "internalType": "uint256",
          "name": "tokenId",
          "type": "uint256"
        }
      ],
      "name": "getProjectVintageDataByTokenId",
      "outputs": [
        {
          "components": [
            {
              "internalType": "string",
              "name": "name",
              "type": "string"
            },
            {
              "internalType": "uint64",
              "name": "startTime",
              "type": "uint64"
            },
            {
              "internalType": "uint64",
              "name": "endTime",
              "type": "uint64"
            },
            {
              "internalType": "uint256",
              "name": "projectTokenId",
              "type": "uint256"
            },
            {
              "internalType": "uint64",
              "name": "totalVintageQuantity",
              "type": "uint64"
            },
            {
              "internalType": "bool",
              "name": "isCorsiaCompliant",
              "type": "bool"
            },
            {
              "internalType": "bool",
              "name": "isCCPcompliant",
              "type": "bool"
            },
            {
              "internalType": "string",
              "name": "coBenefits",
              "type": "string"
            },
            {
              "internalType": "string",
              "name": "correspAdjustment",
              "type": "string"
            },
            {
              "internalType": "string",
              "name": "additionalCertification",
              "type": "string"
            },
            {
              "internalType": "string",
              "name": "uri",
              "type": "string"
            },
            {
              "internalType": "string",
              "name": "registry",
              "type": "string"
            }
          ],
          "internalType": "struct VintageData",
          "name": "",
          "type": "tuple"
        }
      ],
      "stateMutability": "view",
      "type": "function"
    },
    {
      "inputs": [
        {
          "internalType": "bytes32",
          "name": "role",
          "type": "bytes32"
        }
      ],
      "name": "getRoleAdmin",
      "outputs": [
        {
          "internalType": "bytes32",
          "name": "",
          "type": "bytes32"
        }
      ],
      "stateMutability": "view",
      "type": "function"
    },
    {
      "inputs": [
        {
          "internalType": "bytes32",
          "name": "role",
          "type": "bytes32"
        },
        {
          "internalType": "address",
          "name": "account",
          "type": "address"
        }
      ],
      "name": "grantRole",
      "outputs": [],
      "stateMutability": "nonpayable",
      "type": "function"
    },
    {
      "inputs": [
        {
          "internalType": "bytes32",
          "name": "role",
          "type": "bytes32"
        },
        {
          "internalType": "address",
          "name": "account",
          "type": "address"
        }
      ],
      "name": "hasRole",
      "outputs": [
        {
          "internalType": "bool",
          "name": "",
          "type": "bool"
        }
      ],
      "stateMutability": "view",
      "type": "function"
    },
    {
      "inputs": [
        {
          "internalType": "address[]",
          "name": "accounts",
          "type": "address[]"
        },
        {
          "internalType": "bytes32[]",
          "name": "roles",
          "type": "bytes32[]"
        }
      ],
      "name": "initialize",
      "outputs": [],
      "stateMutability": "nonpayable",
      "type": "function"
    },
    {
      "inputs": [
        {
          "internalType": "address",
          "name": "owner",
          "type": "address"
        },
        {
          "internalType": "address",
          "name": "operator",
          "type": "address"
        }
      ],
      "name": "isApprovedForAll",
      "outputs": [
        {
          "internalType": "bool",
          "name": "",
          "type": "bool"
        }
      ],
      "stateMutability": "view",
      "type": "function"
    },
    {
      "inputs": [],
      "name": "name",
      "outputs": [
        {
          "internalType": "string",
          "name": "",
          "type": "string"
        }
      ],
      "stateMutability": "view",
      "type": "function"
    },
    {
      "inputs": [],
      "name": "owner",
      "outputs": [
        {
          "internalType": "address",
          "name": "",
          "type": "address"
        }
      ],
      "stateMutability": "view",
      "type": "function"
    },
    {
      "inputs": [
        {
          "internalType": "uint256",
          "name": "tokenId",
          "type": "uint256"
        }
      ],
      "name": "ownerOf",
      "outputs": [
        {
          "internalType": "address",
          "name": "",
          "type": "address"
        }
      ],
      "stateMutability": "view",
      "type": "function"
    },
    {
      "inputs": [],
      "name": "pause",
      "outputs": [],
      "stateMutability": "nonpayable",
      "type": "function"
    },
    {
      "inputs": [],
      "name": "paused",
      "outputs": [
        {
          "internalType": "bool",
          "name": "",
          "type": "bool"
        }
      ],
      "stateMutability": "view",
      "type": "function"
    },
    {
      "inputs": [],
      "name": "projectVintageTokenCounter",
      "outputs": [
        {
          "internalType": "uint128",
          "name": "",
          "type": "uint128"
        }
      ],
      "stateMutability": "view",
      "type": "function"
    },
    {
      "inputs": [],
      "name": "proxiableUUID",
      "outputs": [
        {
          "internalType": "bytes32",
          "name": "",
          "type": "bytes32"
        }
      ],
      "stateMutability": "view",
      "type": "function"
    },
    {
      "inputs": [
        {
          "internalType": "uint256",
          "name": "",
          "type": "uint256"
        },
        {
          "internalType": "uint64",
          "name": "",
          "type": "uint64"
        }
      ],
      "name": "pvToTokenId",
      "outputs": [
        {
          "internalType": "uint256",
          "name": "",
          "type": "uint256"
        }
      ],
      "stateMutability": "view",
      "type": "function"
    },
    {
      "inputs": [],
      "name": "renounceOwnership",
      "outputs": [],
      "stateMutability": "nonpayable",
      "type": "function"
    },
    {
      "inputs": [
        {
          "internalType": "bytes32",
          "name": "role",
          "type": "bytes32"
        },
        {
          "internalType": "address",
          "name": "account",
          "type": "address"
        }
      ],
      "name": "renounceRole",
      "outputs": [],
      "stateMutability": "nonpayable",
      "type": "function"
    },
    {
      "inputs": [
        {
          "internalType": "bytes32",
          "name": "role",
          "type": "bytes32"
        },
        {
          "internalType": "address",
          "name": "account",
          "type": "address"
        }
      ],
      "name": "revokeRole",
      "outputs": [],
      "stateMutability": "nonpayable",
      "type": "function"
    },
    {
      "inputs": [
        {
          "internalType": "address",
          "name": "from",
          "type": "address"
        },
        {
          "internalType": "address",
          "name": "to",
          "type": "address"
        },
        {
          "internalType": "uint256",
          "name": "tokenId",
          "type": "uint256"
        }
      ],
      "name": "safeTransferFrom",
      "outputs": [],
      "stateMutability": "nonpayable",
      "type": "function"
    },
    {
      "inputs": [
        {
          "internalType": "address",
          "name": "from",
          "type": "address"
        },
        {
          "internalType": "address",
          "name": "to",
          "type": "address"
        },
        {
          "internalType": "uint256",
          "name": "tokenId",
          "type": "uint256"
        },
        {
          "internalType": "bytes",
          "name": "data",
          "type": "bytes"
        }
      ],
      "name": "safeTransferFrom",
      "outputs": [],
      "stateMutability": "nonpayable",
      "type": "function"
    },
    {
      "inputs": [
        {
          "internalType": "address",
          "name": "operator",
          "type": "address"
        },
        {
          "internalType": "bool",
          "name": "approved",
          "type": "bool"
        }
      ],
      "name": "setApprovalForAll",
      "outputs": [],
      "stateMutability": "nonpayable",
      "type": "function"
    },
    {
      "inputs": [
        {
          "internalType": "string",
          "name": "baseURI_",
          "type": "string"
        }
      ],
      "name": "setBaseURI",
      "outputs": [],
      "stateMutability": "nonpayable",
      "type": "function"
    },
    {
      "inputs": [
        {
          "internalType": "address",
          "name": "_address",
          "type": "address"
        }
      ],
      "name": "setToucanContractRegistry",
      "outputs": [],
      "stateMutability": "nonpayable",
      "type": "function"
    },
    {
      "inputs": [
        {
          "internalType": "bytes4",
          "name": "interfaceId",
          "type": "bytes4"
        }
      ],
      "name": "supportsInterface",
      "outputs": [
        {
          "internalType": "bool",
          "name": "",
          "type": "bool"
        }
      ],
      "stateMutability": "view",
      "type": "function"
    },
    {
      "inputs": [],
      "name": "symbol",
      "outputs": [
        {
          "internalType": "string",
          "name": "",
          "type": "string"
        }
      ],
      "stateMutability": "view",
      "type": "function"
    },
    {
      "inputs": [
        {
          "internalType": "uint256",
          "name": "tokenId",
          "type": "uint256"
        }
      ],
      "name": "tokenURI",
      "outputs": [
        {
          "internalType": "string",
          "name": "",
          "type": "string"
        }
      ],
      "stateMutability": "view",
      "type": "function"
    },
    {
      "inputs": [],
      "name": "totalSupply",
      "outputs": [
        {
          "internalType": "uint128",
          "name": "",
          "type": "uint128"
        }
      ],
      "stateMutability": "view",
      "type": "function"
    },
    {
      "inputs": [
        {
          "internalType": "address",
          "name": "from",
          "type": "address"
        },
        {
          "internalType": "address",
          "name": "to",
          "type": "address"
        },
        {
          "internalType": "uint256",
          "name": "tokenId",
          "type": "uint256"
        }
      ],
      "name": "transferFrom",
      "outputs": [],
      "stateMutability": "nonpayable",
      "type": "function"
    },
    {
      "inputs": [
        {
          "internalType": "address",
          "name": "newOwner",
          "type": "address"
        }
      ],
      "name": "transferOwnership",
      "outputs": [],
      "stateMutability": "nonpayable",
      "type": "function"
    },
    {
      "inputs": [],
      "name": "unpause",
      "outputs": [],
      "stateMutability": "nonpayable",
      "type": "function"
    },
    {
      "inputs": [
        {
          "internalType": "uint256",
          "name": "tokenId",
          "type": "uint256"
        },
        {
          "components": [
            {
              "internalType": "string",
              "name": "name",
              "type": "string"
            },
            {
              "internalType": "uint64",
              "name": "startTime",
              "type": "uint64"
            },
            {
              "internalType": "uint64",
              "name": "endTime",
              "type": "uint64"
            },
            {
              "internalType": "uint256",
              "name": "projectTokenId",
              "type": "uint256"
            },
            {
              "internalType": "uint64",
              "name": "totalVintageQuantity",
              "type": "uint64"
            },
            {
              "internalType": "bool",
              "name": "isCorsiaCompliant",
              "type": "bool"
            },
            {
              "internalType": "bool",
              "name": "isCCPcompliant",
              "type": "bool"
            },
            {
              "internalType": "string",
              "name": "coBenefits",
              "type": "string"
            },
            {
              "internalType": "string",
              "name": "correspAdjustment",
              "type": "string"
            },
            {
              "internalType": "string",
              "name": "additionalCertification",
              "type": "string"
            },
            {
              "internalType": "string",
              "name": "uri",
              "type": "string"
            },
            {
              "internalType": "string",
              "name": "registry",
              "type": "string"
            }
          ],
          "internalType": "struct VintageData",
          "name": "_vintageData",
          "type": "tuple"
        }
      ],
      "name": "updateProjectVintage",
      "outputs": [],
      "stateMutability": "nonpayable",
      "type": "function"
    },
    {
      "inputs": [
        {
          "internalType": "address",
          "name": "newImplementation",
          "type": "address"
        }
      ],
      "name": "upgradeTo",
      "outputs": [],
      "stateMutability": "nonpayable",
      "type": "function"
    },
    {
      "inputs": [
        {
          "internalType": "address",
          "name": "newImplementation",
          "type": "address"
        },
        {
          "internalType": "bytes",
          "name": "data",
          "type": "bytes"
        }
      ],
      "name": "upgradeToAndCall",
      "outputs": [],
      "stateMutability": "payable",
      "type": "function"
    },
    {
      "inputs": [
        {
          "internalType": "uint256",
          "name": "",
          "type": "uint256"
        }
      ],
      "name": "validProjectVintageIds",
      "outputs": [
        {
          "internalType": "bool",
          "name": "",
          "type": "bool"
        }
      ],
      "stateMutability": "view",
      "type": "function"
    },
    {
      "inputs": [
        {
          "internalType": "uint256",
          "name": "",
          "type": "uint256"
        }
      ],
      "name": "vintageData",
      "outputs": [
        {
          "internalType": "string",
          "name": "name",
          "type": "string"
        },
        {
          "internalType": "uint64",
          "name": "startTime",
          "type": "uint64"
        },
        {
          "internalType": "uint64",
          "name": "endTime",
          "type": "uint64"
        },
        {
          "internalType": "uint256",
          "name": "projectTokenId",
          "type": "uint256"
        },
        {
          "internalType": "uint64",
          "name": "totalVintageQuantity",
          "type": "uint64"
        },
        {
          "internalType": "bool",
          "name": "isCorsiaCompliant",
          "type": "bool"
        },
        {
          "internalType": "bool",
          "name": "isCCPcompliant",
          "type": "bool"
        },
        {
          "internalType": "string",
          "name": "coBenefits",
          "type": "string"
        },
        {
          "internalType": "string",
          "name": "correspAdjustment",
          "type": "string"
        },
        {
          "internalType": "string",
          "name": "additionalCertification",
          "type": "string"
        },
        {
          "internalType": "string",
          "name": "uri",
          "type": "string"
        },
        {
          "internalType": "string",
          "name": "registry",
          "type": "string"
        }
      ],
      "stateMutability": "view",
      "type": "function"
    }
  ],
  "numDeployments": 1,
  "solcInputHash": "21ae5f70988e66da4bff33b9b6a2fdaf",
  "bytecode": "0x60a0604052306080523480156200001557600080fd5b506200002062000026565b620000e7565b600654610100900460ff1615620000935760405162461bcd60e51b815260206004820152602760248201527f496e697469616c697a61626c653a20636f6e747261637420697320696e697469604482015266616c697a696e6760c81b606482015260840160405180910390fd5b60065460ff90811614620000e5576006805460ff191660ff9081179091556040519081527f7f26b83ff96e1f2b6a682f133852f6798a09c465da95921460cefb38474024989060200160405180910390a15b565b6080516145396200011f600039600081816113ea0152818161142a0152818161154501528181611585015261161f01526145396000f3fe6080604052600436106102725760003560e01c80636b1a637e1161014f578063abf410e5116100c1578063e882e37b1161007a578063e882e37b146107a4578063e985e9c5146107c4578063ec87621c1461080d578063ec96a4ee14610841578063f2fde38b14610861578063ffa1ad741461088157600080fd5b8063abf410e5146106d4578063b88d4fde146106f4578063bab5adc314610714578063c87b56dd14610734578063d547741f14610754578063e304301c1461077457600080fd5b80638456cb59116101135780638456cb59146106375780638da5cb5b1461064c57806391d148541461066a57806395d89b411461068a578063a217fddf1461069f578063a22cb465146106b457600080fd5b80636b1a637e146105a05780636c0360eb146105d85780636ca0b0d7146105ed57806370a0823114610602578063715018a61461062257600080fd5b806336568abe116101e85780634f558e79116101ac5780634f558e79146104db57806352d1902d146104fb57806355f804b314610510578063591f581b146105305780635c975abb146105685780636352211e1461058057600080fd5b806336568abe146104535780633659cfe6146104735780633f4ba83a1461049357806342842e0e146104a85780634f1ef286146104c857600080fd5b80630a56d6561161023a5780630a56d6561461036057806315bbf0741461038e57806318160ddd146103bb57806323b872dd146103e2578063248a9ca3146104025780632f2ff15d1461043357600080fd5b806301ffc9a71461027757806306dcc166146102ac57806306fdde03146102e4578063081812fc14610306578063095ea7b31461033e575b600080fd5b34801561028357600080fd5b506102976102923660046137dd565b6108b2565b60405190151581526020015b60405180910390f35b3480156102b857600080fd5b506000546102cc906001600160801b031681565b6040516001600160801b0390911681526020016102a3565b3480156102f057600080fd5b506102f96108dd565b6040516102a39190613852565b34801561031257600080fd5b50610326610321366004613865565b61096f565b6040516001600160a01b0390911681526020016102a3565b34801561034a57600080fd5b5061035e610359366004613893565b610996565b005b34801561036c57600080fd5b5061038061037b366004613b29565b610ab0565b6040519081526020016102a3565b34801561039a57600080fd5b506103ae6103a9366004613865565b610e9f565b6040516102a39190613b78565b3480156103c757600080fd5b506000546102cc90600160801b90046001600160801b031681565b3480156103ee57600080fd5b5061035e6103fd366004613ca1565b61130b565b34801561040e57600080fd5b5061038061041d366004613865565b6000908152610101602052604090206001015490565b34801561043f57600080fd5b5061035e61044e366004613ce2565b61133c565b34801561045f57600080fd5b5061035e61046e366004613ce2565b611362565b34801561047f57600080fd5b5061035e61048e366004613d12565b6113e0565b34801561049f57600080fd5b5061035e6114bf565b3480156104b457600080fd5b5061035e6104c3366004613ca1565b611520565b61035e6104d6366004613d2f565b61153b565b3480156104e757600080fd5b506102976104f6366004613865565b611607565b34801561050757600080fd5b50610380611612565b34801561051c57600080fd5b5061035e61052b366004613d74565b6116c5565b34801561053c57600080fd5b5061055061054b366004613865565b6116e0565b6040516102a39c9b9a99989796959493929190613da8565b34801561057457600080fd5b5060cf5460ff16610297565b34801561058c57600080fd5b5061032661059b366004613865565b611a85565b3480156105ac57600080fd5b506103806105bb366004613e7f565b600560209081526000928352604080842090915290825290205481565b3480156105e457600080fd5b506102f9611ae5565b3480156105f957600080fd5b50610380600181565b34801561060e57600080fd5b5061038061061d366004613d12565b611b73565b34801561062e57600080fd5b5061035e611bf9565b34801561064357600080fd5b5061035e611c0d565b34801561065857600080fd5b50609d546001600160a01b0316610326565b34801561067657600080fd5b50610297610685366004613ce2565b611c6e565b34801561069657600080fd5b506102f9611c9a565b3480156106ab57600080fd5b50610380600081565b3480156106c057600080fd5b5061035e6106cf366004613eab565b611ca9565b3480156106e057600080fd5b50600154610326906001600160a01b031681565b34801561070057600080fd5b5061035e61070f366004613ed9565b611cb4565b34801561072057600080fd5b5061035e61072f366004613f8f565b611cec565b34801561074057600080fd5b506102f961074f366004613865565b611e69565b34801561076057600080fd5b5061035e61076f366004613ce2565b611fb3565b34801561078057600080fd5b5061029761078f366004613865565b60046020526000908152604090205460ff1681565b3480156107b057600080fd5b5061035e6107bf366004613d12565b611fd9565b3480156107d057600080fd5b506102976107df366004613ffa565b6001600160a01b03918216600090815260706020908152604080832093909416825291909152205460ff1690565b34801561081957600080fd5b506103807f241ecf16d79d0f8dbfb92cbc07fe17840425976cf0667f022fe9877caa831b0881565b34801561084d57600080fd5b5061035e61085c366004614028565b612003565b34801561086d57600080fd5b5061035e61087c366004613d12565b6122c8565b34801561088d57600080fd5b506102f960405180604001604052806005815260200164189718971960d91b81525081565b60006001600160e01b03198216637965db0b60e01b14806108d757506108d78261233e565b92915050565b6060606b80546108ec90614058565b80601f016020809104026020016040519081016040528092919081815260200182805461091890614058565b80156109655780601f1061093a57610100808354040283529160200191610965565b820191906000526020600020905b81548152906001019060200180831161094857829003601f168201915b5050505050905090565b600061097a8261238e565b506000908152606f60205260409020546001600160a01b031690565b60006109a182611a85565b9050806001600160a01b0316836001600160a01b031603610a135760405162461bcd60e51b815260206004820152602160248201527f4552433732313a20617070726f76616c20746f2063757272656e74206f776e656044820152603960f91b60648201526084015b60405180910390fd5b336001600160a01b0382161480610a2f5750610a2f81336107df565b610aa15760405162461bcd60e51b815260206004820152603d60248201527f4552433732313a20617070726f76652063616c6c6572206973206e6f7420746f60448201527f6b656e206f776e6572206f7220617070726f76656420666f7220616c6c0000006064820152608401610a0a565b610aab83836123de565b505050565b6000610adc7f241ecf16d79d0f8dbfb92cbc07fe17840425976cf0667f022fe9877caa831b0833611c6e565b80610b00575033610af5609d546001600160a01b031690565b6001600160a01b0316145b610b475760405162461bcd60e51b815260206004820152601860248201527710d85b1b195c881a5cc81b9bdd08185d5d1a1bdc9a5e995960421b6044820152606401610a0a565b610b4f61244c565b6001546060830151610b6a916001600160a01b031690612492565b60608201516000908152600560209081526040808320828601516001600160401b0316845290915290205415610be25760405162461bcd60e51b815260206004820152601c60248201527f4572726f723a2076696e7461676520616c7265616479206164646564000000006044820152606401610a0a565b81604001516001600160401b031682602001516001600160401b031610610c665760405162461bcd60e51b815260206004820152603260248201527f4572726f723a2076696e7461676520737461727454696d65206d757374206265604482015271206c657373207468616e20656e6454696d6560701b6064820152608401610a0a565b600080546001600160801b038082166001908101808316600160801b94859004841683019093169093026001600160801b03191691909117835581835260046020526040909220805460ff1916909217909155610cc384826125bb565b6000818152600360209081526040909120845180518693610ce892849291019061372e565b5060208281015160018301805460408601516001600160401b039384166001600160801b031990921691909117600160401b91841682021790915560608501516002850155608085015160038501805460a088015160c08901519390951668ffffffffffffffffff19909116179315159092029290921760ff60481b1916600160481b9215159290920291909117905560e08301518051610d8f926004850192019061372e565b506101008201518051610dac91600584019160209091019061372e565b506101208201518051610dc991600684019160209091019061372e565b506101408201518051610de691600784019160209091019061372e565b506101608201518051610e0391600884019160209091019061372e565b505050606083810151602080860151604080516001600160a01b038a168152928301869052828101939093526001600160401b031692810192909252517fc86a7ca8aa1c36c7a1f88fc730a3b16d13dcd0b98d558e27eb1b210fc3bd13bc9181900360800190a160608301516000908152600560209081526040808320828701516001600160401b031684529091529020819055905092915050565b610f226040518061018001604052806060815260200160006001600160401b0316815260200160006001600160401b031681526020016000815260200160006001600160401b0316815260200160001515815260200160001515815260200160608152602001606081526020016060815260200160608152602001606081525090565b6000828152600360205260409081902081516101808101909252805482908290610f4b90614058565b80601f0160208091040260200160405190810160405280929190818152602001828054610f7790614058565b8015610fc45780601f10610f9957610100808354040283529160200191610fc4565b820191906000526020600020905b815481529060010190602001808311610fa757829003601f168201915b505050918352505060018201546001600160401b038082166020840152600160401b9182900481166040840152600284015460608401526003840154908116608084015260ff9181048216151560a0840152600160481b900416151560c082015260048201805460e09092019161103a90614058565b80601f016020809104026020016040519081016040528092919081815260200182805461106690614058565b80156110b35780601f10611088576101008083540402835291602001916110b3565b820191906000526020600020905b81548152906001019060200180831161109657829003601f168201915b505050505081526020016005820180546110cc90614058565b80601f01602080910402602001604051908101604052809291908181526020018280546110f890614058565b80156111455780601f1061111a57610100808354040283529160200191611145565b820191906000526020600020905b81548152906001019060200180831161112857829003601f168201915b5050505050815260200160068201805461115e90614058565b80601f016020809104026020016040519081016040528092919081815260200182805461118a90614058565b80156111d75780601f106111ac576101008083540402835291602001916111d7565b820191906000526020600020905b8154815290600101906020018083116111ba57829003601f168201915b505050505081526020016007820180546111f090614058565b80601f016020809104026020016040519081016040528092919081815260200182805461121c90614058565b80156112695780601f1061123e57610100808354040283529160200191611269565b820191906000526020600020905b81548152906001019060200180831161124c57829003601f168201915b5050505050815260200160088201805461128290614058565b80601f01602080910402602001604051908101604052809291908181526020018280546112ae90614058565b80156112fb5780601f106112d0576101008083540402835291602001916112fb565b820191906000526020600020905b8154815290600101906020018083116112de57829003601f168201915b5050505050815250509050919050565b6113153382612728565b6113315760405162461bcd60e51b8152600401610a0a90614092565b610aab8383836127a6565b600082815261010160205260409020600101546113588161290a565b610aab8383612914565b6001600160a01b03811633146113d25760405162461bcd60e51b815260206004820152602f60248201527f416363657373436f6e74726f6c3a2063616e206f6e6c792072656e6f756e636560448201526e103937b632b9903337b91039b2b63360891b6064820152608401610a0a565b6113dc828261299b565b5050565b6001600160a01b037f00000000000000000000000000000000000000000000000000000000000000001630036114285760405162461bcd60e51b8152600401610a0a906140df565b7f00000000000000000000000000000000000000000000000000000000000000006001600160a01b0316611471600080516020614495833981519152546001600160a01b031690565b6001600160a01b0316146114975760405162461bcd60e51b8152600401610a0a9061412b565b6114a081612a03565b604080516000808252602082019092526114bc91839190612a0b565b50565b6001546001600160a01b03166114dd609d546001600160a01b031690565b6001600160a01b0382163314806114fc57506001600160a01b03811633145b6115185760405162461bcd60e51b8152600401610a0a90614177565b6113dc612b76565b610aab83838360405180602001604052806000815250611cb4565b6001600160a01b037f00000000000000000000000000000000000000000000000000000000000000001630036115835760405162461bcd60e51b8152600401610a0a906140df565b7f00000000000000000000000000000000000000000000000000000000000000006001600160a01b03166115cc600080516020614495833981519152546001600160a01b031690565b6001600160a01b0316146115f25760405162461bcd60e51b8152600401610a0a9061412b565b6115fb82612a03565b6113dc82826001612a0b565b60006108d782612bc8565b6000306001600160a01b037f000000000000000000000000000000000000000000000000000000000000000016146116b25760405162461bcd60e51b815260206004820152603860248201527f555550535570677261646561626c653a206d757374206e6f742062652063616c60448201527f6c6564207468726f7567682064656c656761746563616c6c00000000000000006064820152608401610a0a565b5060008051602061449583398151915290565b6116cd612be5565b80516113dc90600290602084019061372e565b6003602052600090815260409020805481906116fb90614058565b80601f016020809104026020016040519081016040528092919081815260200182805461172790614058565b80156117745780601f1061174957610100808354040283529160200191611774565b820191906000526020600020905b81548152906001019060200180831161175757829003601f168201915b5050505060018301546002840154600385015460048601805495966001600160401b0380861697600160401b968790048216975094959084169490840460ff90811694600160481b90041692906117ca90614058565b80601f01602080910402602001604051908101604052809291908181526020018280546117f690614058565b80156118435780601f1061181857610100808354040283529160200191611843565b820191906000526020600020905b81548152906001019060200180831161182657829003601f168201915b50505050509080600501805461185890614058565b80601f016020809104026020016040519081016040528092919081815260200182805461188490614058565b80156118d15780601f106118a6576101008083540402835291602001916118d1565b820191906000526020600020905b8154815290600101906020018083116118b457829003601f168201915b5050505050908060060180546118e690614058565b80601f016020809104026020016040519081016040528092919081815260200182805461191290614058565b801561195f5780601f106119345761010080835404028352916020019161195f565b820191906000526020600020905b81548152906001019060200180831161194257829003601f168201915b50505050509080600701805461197490614058565b80601f01602080910402602001604051908101604052809291908181526020018280546119a090614058565b80156119ed5780601f106119c2576101008083540402835291602001916119ed565b820191906000526020600020905b8154815290600101906020018083116119d057829003601f168201915b505050505090806008018054611a0290614058565b80601f0160208091040260200160405190810160405280929190818152602001828054611a2e90614058565b8015611a7b5780601f10611a5057610100808354040283529160200191611a7b565b820191906000526020600020905b815481529060010190602001808311611a5e57829003601f168201915b505050505090508c565b6000818152606d60205260408120546001600160a01b0316806108d75760405162461bcd60e51b8152602060048201526018602482015277115490cdcc8c4e881a5b9d985b1a59081d1bdad95b88125160421b6044820152606401610a0a565b60028054611af290614058565b80601f0160208091040260200160405190810160405280929190818152602001828054611b1e90614058565b8015611b6b5780601f10611b4057610100808354040283529160200191611b6b565b820191906000526020600020905b815481529060010190602001808311611b4e57829003601f168201915b505050505081565b60006001600160a01b038216611bdd5760405162461bcd60e51b815260206004820152602960248201527f4552433732313a2061646472657373207a65726f206973206e6f7420612076616044820152683634b21037bbb732b960b91b6064820152608401610a0a565b506001600160a01b03166000908152606e602052604090205490565b611c01612be5565b611c0b6000612c3f565b565b6001546001600160a01b0316611c2b609d546001600160a01b031690565b6001600160a01b038216331480611c4a57506001600160a01b03811633145b611c665760405162461bcd60e51b8152600401610a0a90614177565b6113dc612c91565b6000918252610101602090815260408084206001600160a01b0393909316845291905290205460ff1690565b6060606c80546108ec90614058565b6113dc338383612cce565b611cbe3383612728565b611cda5760405162461bcd60e51b8152600401610a0a90614092565b611ce684848484612d9c565b50505050565b600654610100900460ff1615808015611d0c5750600654600160ff909116105b80611d265750303b158015611d26575060065460ff166001145b611d895760405162461bcd60e51b815260206004820152602e60248201527f496e697469616c697a61626c653a20636f6e747261637420697320616c72656160448201526d191e481a5b9a5d1a585b1a5e995960921b6064820152608401610a0a565b6006805460ff191660011790558015611dac576006805461ff0019166101001790555b611db4612dcf565b611df86040518060600160405280602881526020016144dc602891396040518060400160405280600a8152602001692a27aaa1a0a716a1a82b60b11b815250612df6565b611e00612e44565b611e08612e74565b611e1485858585612ea7565b611e1c612dcf565b8015611e62576006805461ff0019169055604051600181527f7f26b83ff96e1f2b6a682f133852f6798a09c465da95921460cefb38474024989060200160405180910390a15b5050505050565b6060611e7482612bc8565b611eb85760405162461bcd60e51b8152602060048201526015602482015274139bdb8b595e1a5cdd195b9d081d1bdad95b881a59605a1b6044820152606401610a0a565b60008281526003602052604081206007018054611ed490614058565b80601f0160208091040260200160405190810160405280929190818152602001828054611f0090614058565b8015611f4d5780601f10611f2257610100808354040283529160200191611f4d565b820191906000526020600020905b815481529060010190602001808311611f3057829003601f168201915b505050505090506000611f5e612fc2565b90508051600003611f70575092915050565b815115611fa2578082604051602001611f8a9291906141bc565b60405160208183030381529060405292505050919050565b611fab84612fd1565b949350505050565b60008281526101016020526040902060010154611fcf8161290a565b610aab838361299b565b611fe1612be5565b600180546001600160a01b0319166001600160a01b0392909216919091179055565b61202d7f241ecf16d79d0f8dbfb92cbc07fe17840425976cf0667f022fe9877caa831b0833611c6e565b80612051575033612046609d546001600160a01b031690565b6001600160a01b0316145b6120985760405162461bcd60e51b815260206004820152601860248201527710d85b1b195c881a5cc81b9bdd08185d5d1a1bdc9a5e995960421b6044820152606401610a0a565b6120a061244c565b6120a982612bc8565b6120ee5760405162461bcd60e51b8152602060048201526016602482015275141c9bda9958dd081b9bdd081e595d081b5a5b9d195960521b6044820152606401610a0a565b600082815260036020818152604080842060028101546060870181905285526005835281852060018201546001600160401b031686528352908420849055928590529081528251805184939261214892849291019061372e565b5060208281015160018301805460408601516001600160401b039384166001600160801b031990921691909117600160401b91841682021790915560608501516002850155608085015160038501805460a088015160c08901519390951668ffffffffffffffffff19909116179315159092029290921760ff60481b1916600160481b9215159290920291909117905560e083015180516121ef926004850192019061372e565b50610100820151805161220c91600584019160209091019061372e565b50610120820151805161222991600684019160209091019061372e565b50610140820151805161224691600784019160209091019061372e565b50610160820151805161226391600884019160209091019061372e565b50505060608101516000908152600560209081526040808320828501516001600160401b0316845282529182902084905590518381527f9c270c68adf8a1de8e2cadd390648c2c2ba814ebc705acaef6f17bf40a99706f910160405180910390a15050565b6122d0612be5565b6001600160a01b0381166123355760405162461bcd60e51b815260206004820152602660248201527f4f776e61626c653a206e6577206f776e657220697320746865207a65726f206160448201526564647265737360d01b6064820152608401610a0a565b6114bc81612c3f565b60006001600160e01b031982166380ac58cd60e01b148061236f57506001600160e01b03198216635b5e139f60e01b145b806108d757506301ffc9a760e01b6001600160e01b03198316146108d7565b61239781612bc8565b6114bc5760405162461bcd60e51b8152602060048201526018602482015277115490cdcc8c4e881a5b9d985b1a59081d1bdad95b88125160421b6044820152606401610a0a565b6000818152606f6020526040902080546001600160a01b0319166001600160a01b038416908117909155819061241382611a85565b6001600160a01b03167f8c5be1e5ebec7d5bd14f71427d1e84f3dd0314c0f7b2291e5b200ac8c7c3b92560405160405180910390a45050565b60cf5460ff1615611c0b5760405162461bcd60e51b815260206004820152601060248201526f14185d5cd8589b194e881c185d5cd95960821b6044820152606401610a0a565b6000826001600160a01b03166301157a836040518163ffffffff1660e01b8152600401602060405180830381865afa1580156124d2573d6000803e3d6000fd5b505050506040513d601f19601f820116820180604052508101906124f691906141eb565b60405163365fe85d60e01b8152600481018490529091506000906001600160a01b0383169063365fe85d906024016020604051808303816000875af1158015612543573d6000803e3d6000fd5b505050506040513d601f19601f820116820180604052508101906125679190614208565b9050600181151514611ce65760405162461bcd60e51b815260206004820152601d60248201527f4572726f723a2050726f6a65637420646f6573206e6f742065786973740000006044820152606401610a0a565b6001600160a01b0382166126115760405162461bcd60e51b815260206004820181905260248201527f4552433732313a206d696e7420746f20746865207a65726f20616464726573736044820152606401610a0a565b61261a81612bc8565b156126675760405162461bcd60e51b815260206004820152601c60248201527f4552433732313a20746f6b656e20616c7265616479206d696e746564000000006044820152606401610a0a565b61267081612bc8565b156126bd5760405162461bcd60e51b815260206004820152601c60248201527f4552433732313a20746f6b656e20616c7265616479206d696e746564000000006044820152606401610a0a565b6001600160a01b0382166000818152606e6020908152604080832080546001019055848352606d90915280822080546001600160a01b0319168417905551839291907fddf252ad1be2c89b69c2b068fc378daa952ba7f163c4a11628f55a4df523b3ef908290a45050565b60008061273483611a85565b9050806001600160a01b0316846001600160a01b0316148061277b57506001600160a01b0380821660009081526070602090815260408083209388168352929052205460ff165b80611fab5750836001600160a01b03166127948461096f565b6001600160a01b031614949350505050565b826001600160a01b03166127b982611a85565b6001600160a01b0316146127df5760405162461bcd60e51b8152600401610a0a90614225565b6001600160a01b0382166128415760405162461bcd60e51b8152602060048201526024808201527f4552433732313a207472616e7366657220746f20746865207a65726f206164646044820152637265737360e01b6064820152608401610a0a565b826001600160a01b031661285482611a85565b6001600160a01b03161461287a5760405162461bcd60e51b8152600401610a0a90614225565b6000818152606f6020908152604080832080546001600160a01b03199081169091556001600160a01b03878116808652606e8552838620805460001901905590871680865283862080546001019055868652606d90945282852080549092168417909155905184937fddf252ad1be2c89b69c2b068fc378daa952ba7f163c4a11628f55a4df523b3ef91a4505050565b6114bc8133613038565b61291e8282611c6e565b6113dc576000828152610101602090815260408083206001600160a01b03851684529091529020805460ff191660011790556129573390565b6001600160a01b0316816001600160a01b0316837f2f8788117e7eff1d82e926ec794901d17c78024a50270940304540a733656f0d60405160405180910390a45050565b6129a58282611c6e565b156113dc576000828152610101602090815260408083206001600160a01b0385168085529252808320805460ff1916905551339285917ff6391f5c32d9c69d2a47ea670b442974b53935d1edc7fd64eb21e047a839171b9190a45050565b6114bc612be5565b7f4910fdfa16fed3260ed0e7147f7cc6da11a60208b5b9406d12a635614ffd91435460ff1615612a3e57610aab83613091565b826001600160a01b03166352d1902d6040518163ffffffff1660e01b8152600401602060405180830381865afa925050508015612a98575060408051601f3d908101601f19168201909252612a959181019061426a565b60015b612afb5760405162461bcd60e51b815260206004820152602e60248201527f45524331393637557067726164653a206e657720696d706c656d656e7461746960448201526d6f6e206973206e6f74205555505360901b6064820152608401610a0a565b6000805160206144958339815191528114612b6a5760405162461bcd60e51b815260206004820152602960248201527f45524331393637557067726164653a20756e737570706f727465642070726f786044820152681a58589b195555525160ba1b6064820152608401610a0a565b50610aab83838361312d565b612b7e613152565b60cf805460ff191690557f5db9ee0a495bf2e6ff9c91a7834c1ba4fdd244a5e8aa4e537bd38aeae4b073aa335b6040516001600160a01b03909116815260200160405180910390a1565b6000908152606d60205260409020546001600160a01b0316151590565b609d546001600160a01b03163314611c0b5760405162461bcd60e51b815260206004820181905260248201527f4f776e61626c653a2063616c6c6572206973206e6f7420746865206f776e65726044820152606401610a0a565b609d80546001600160a01b038381166001600160a01b0319831681179093556040519116919082907f8be0079c531659141344cd1fd0a4f28419497f9722a3daafe3b4186f6b6457e090600090a35050565b612c9961244c565b60cf805460ff191660011790557f62e78cea01bee320cd4e420270b5ea74000d11b0c9f74754ebdbfc544b05a258612bab3390565b816001600160a01b0316836001600160a01b031603612d2f5760405162461bcd60e51b815260206004820152601960248201527f4552433732313a20617070726f766520746f2063616c6c6572000000000000006044820152606401610a0a565b6001600160a01b03838116600081815260706020908152604080832094871680845294825291829020805460ff191686151590811790915591519182527f17307eab39ab6107e8899845ad3d59bd9653f200f220920489ca2b5937696c31910160405180910390a3505050565b612da78484846127a6565b612db38484848461319b565b611ce65760405162461bcd60e51b8152600401610a0a90614283565b600654610100900460ff16611c0b5760405162461bcd60e51b8152600401610a0a906142d5565b600654610100900460ff16612e1d5760405162461bcd60e51b8152600401610a0a906142d5565b8151612e3090606b90602085019061372e565b508051610aab90606c90602084019061372e565b600654610100900460ff16612e6b5760405162461bcd60e51b8152600401610a0a906142d5565b611c0b33612c3f565b600654610100900460ff16612e9b5760405162461bcd60e51b8152600401610a0a906142d5565b60cf805460ff19169055565b828114612eee5760405162461bcd60e51b8152602060048201526015602482015274082e4e4c2f240d8cadccee8d040dad2e6dac2e8c6d605b1b6044820152606401610a0a565b612ef6612dcf565b6000805b84811015612f7f57612f4a848483818110612f1757612f17614320565b90506020020135878784818110612f3057612f30614320565b9050602002016020810190612f459190613d12565b612914565b6000848483818110612f5e57612f5e614320565b9050602002013503612f6f57600191505b612f788161434c565b9050612efa565b5080611e625760405162461bcd60e51b8152602060048201526012602482015271139bc818591b5a5b881cdc1958da599a595960721b6044820152606401610a0a565b6060600280546108ec90614058565b6060612fdc8261238e565b6000612fe6612fc2565b905060008151116130065760405180602001604052806000815250613031565b806130108461329c565b6040516020016130219291906141bc565b6040516020818303038152906040525b9392505050565b6130428282611c6e565b6113dc5761304f8161332e565b61305a836020613340565b60405160200161306b929190614365565b60408051601f198184030181529082905262461bcd60e51b8252610a0a91600401613852565b6001600160a01b0381163b6130fe5760405162461bcd60e51b815260206004820152602d60248201527f455243313936373a206e657720696d706c656d656e746174696f6e206973206e60448201526c1bdd08184818dbdb9d1c9858dd609a1b6064820152608401610a0a565b60008051602061449583398151915280546001600160a01b0319166001600160a01b0392909216919091179055565b613136836134db565b6000825111806131435750805b15610aab57611ce6838361351b565b60cf5460ff16611c0b5760405162461bcd60e51b815260206004820152601460248201527314185d5cd8589b194e881b9bdd081c185d5cd95960621b6044820152606401610a0a565b60006001600160a01b0384163b1561329157604051630a85bd0160e11b81526001600160a01b0385169063150b7a02906131df9033908990889088906004016143da565b6020604051808303816000875af192505050801561321a575060408051601f3d908101601f191682019092526132179181019061440d565b60015b613277573d808015613248576040519150601f19603f3d011682016040523d82523d6000602084013e61324d565b606091505b50805160000361326f5760405162461bcd60e51b8152600401610a0a90614283565b805181602001fd5b6001600160e01b031916630a85bd0160e11b149050611fab565b506001949350505050565b606060006132a983613540565b60010190506000816001600160401b038111156132c8576132c86138bf565b6040519080825280601f01601f1916602001820160405280156132f2576020820181803683370190505b5090508181016020015b600019016f181899199a1a9b1b9c1cb0b131b232b360811b600a86061a8153600a85049450846132fc57509392505050565b60606108d76001600160a01b03831660145b6060600061334f83600261442a565b61335a906002614449565b6001600160401b03811115613371576133716138bf565b6040519080825280601f01601f19166020018201604052801561339b576020820181803683370190505b509050600360fc1b816000815181106133b6576133b6614320565b60200101906001600160f81b031916908160001a905350600f60fb1b816001815181106133e5576133e5614320565b60200101906001600160f81b031916908160001a905350600061340984600261442a565b613414906001614449565b90505b600181111561348c576f181899199a1a9b1b9c1cb0b131b232b360811b85600f166010811061344857613448614320565b1a60f81b82828151811061345e5761345e614320565b60200101906001600160f81b031916908160001a90535060049490941c9361348581614461565b9050613417565b5083156130315760405162461bcd60e51b815260206004820181905260248201527f537472696e67733a20686578206c656e67746820696e73756666696369656e746044820152606401610a0a565b6134e481613091565b6040516001600160a01b038216907fbc7cd75a20ee27fd9adebab32041f755214dbc6bffa90cc0225b39da2e5c2d3b90600090a250565b606061303183836040518060600160405280602781526020016144b560279139613618565b60008072184f03e93ff9f4daa797ed6e38ed64bf6a1f0160401b831061357f5772184f03e93ff9f4daa797ed6e38ed64bf6a1f0160401b830492506040015b6d04ee2d6d415b85acef810000000083106135ab576d04ee2d6d415b85acef8100000000830492506020015b662386f26fc1000083106135c957662386f26fc10000830492506010015b6305f5e10083106135e1576305f5e100830492506008015b61271083106135f557612710830492506004015b60648310613607576064830492506002015b600a83106108d75760010192915050565b6060600080856001600160a01b0316856040516136359190614478565b600060405180830381855af49150503d8060008114613670576040519150601f19603f3d011682016040523d82523d6000602084013e613675565b606091505b509150915061368686838387613690565b9695505050505050565b606083156136ff5782516000036136f8576001600160a01b0385163b6136f85760405162461bcd60e51b815260206004820152601d60248201527f416464726573733a2063616c6c20746f206e6f6e2d636f6e74726163740000006044820152606401610a0a565b5081611fab565b611fab83838151156137145781518083602001fd5b8060405162461bcd60e51b8152600401610a0a9190613852565b82805461373a90614058565b90600052602060002090601f01602090048101928261375c57600085556137a2565b82601f1061377557805160ff19168380011785556137a2565b828001600101855582156137a2579182015b828111156137a2578251825591602001919060010190613787565b506137ae9291506137b2565b5090565b5b808211156137ae57600081556001016137b3565b6001600160e01b0319811681146114bc57600080fd5b6000602082840312156137ef57600080fd5b8135613031816137c7565b60005b838110156138155781810151838201526020016137fd565b83811115611ce65750506000910152565b6000815180845261383e8160208601602086016137fa565b601f01601f19169290920160200192915050565b6020815260006130316020830184613826565b60006020828403121561387757600080fd5b5035919050565b6001600160a01b03811681146114bc57600080fd5b600080604083850312156138a657600080fd5b82356138b18161387e565b946020939093013593505050565b634e487b7160e01b600052604160045260246000fd5b60405161018081016001600160401b03811182821017156138f8576138f86138bf565b60405290565b600082601f83011261390f57600080fd5b81356001600160401b0380821115613929576139296138bf565b604051601f8301601f19908116603f01168101908282118183101715613951576139516138bf565b8160405283815286602085880101111561396a57600080fd5b836020870160208301376000602085830101528094505050505092915050565b80356001600160401b03811681146139a157600080fd5b919050565b80151581146114bc57600080fd5b80356139a1816139a6565b600061018082840312156139d257600080fd5b6139da6138d5565b905081356001600160401b03808211156139f357600080fd5b6139ff858386016138fe565b8352613a0d6020850161398a565b6020840152613a1e6040850161398a565b604084015260608401356060840152613a396080850161398a565b6080840152613a4a60a085016139b4565b60a0840152613a5b60c085016139b4565b60c084015260e0840135915080821115613a7457600080fd5b613a80858386016138fe565b60e084015261010091508184013581811115613a9b57600080fd5b613aa7868287016138fe565b838501525061012091508184013581811115613ac257600080fd5b613ace868287016138fe565b838501525061014091508184013581811115613ae957600080fd5b613af5868287016138fe565b838501525061016091508184013581811115613b1057600080fd5b613b1c868287016138fe565b8385015250505092915050565b60008060408385031215613b3c57600080fd5b8235613b478161387e565b915060208301356001600160401b03811115613b6257600080fd5b613b6e858286016139bf565b9150509250929050565b6020815260008251610180806020850152613b976101a0850183613826565b91506020850151613bb360408601826001600160401b03169052565b5060408501516001600160401b038116606086015250606085015160808501526080850151613bed60a08601826001600160401b03169052565b5060a085015180151560c08601525060c085015180151560e08601525060e0850151601f19610100818786030181880152613c288584613826565b945080880151925050610120818786030181880152613c478584613826565b945080880151925050610140818786030181880152613c668584613826565b945080880151925050610160818786030181880152613c858584613826565b9088015187820390920184880152935090506136868382613826565b600080600060608486031215613cb657600080fd5b8335613cc18161387e565b92506020840135613cd18161387e565b929592945050506040919091013590565b60008060408385031215613cf557600080fd5b823591506020830135613d078161387e565b809150509250929050565b600060208284031215613d2457600080fd5b81356130318161387e565b60008060408385031215613d4257600080fd5b8235613d4d8161387e565b915060208301356001600160401b03811115613d6857600080fd5b613b6e858286016138fe565b600060208284031215613d8657600080fd5b81356001600160401b03811115613d9c57600080fd5b611fab848285016138fe565b61018081526000613dbd61018083018f613826565b6001600160401b038e1660208401526001600160401b038d1660408401528b6060840152613df6608084018c6001600160401b03169052565b89151560a084015288151560c084015282810360e0840152613e188189613826565b9050828103610100840152613e2d8188613826565b9050828103610120840152613e428187613826565b9050828103610140840152613e578186613826565b9050828103610160840152613e6c8185613826565b9f9e505050505050505050505050505050565b60008060408385031215613e9257600080fd5b82359150613ea26020840161398a565b90509250929050565b60008060408385031215613ebe57600080fd5b8235613ec98161387e565b91506020830135613d07816139a6565b60008060008060808587031215613eef57600080fd5b8435613efa8161387e565b93506020850135613f0a8161387e565b92506040850135915060608501356001600160401b03811115613f2c57600080fd5b613f38878288016138fe565b91505092959194509250565b60008083601f840112613f5657600080fd5b5081356001600160401b03811115613f6d57600080fd5b6020830191508360208260051b8501011115613f8857600080fd5b9250929050565b60008060008060408587031215613fa557600080fd5b84356001600160401b0380821115613fbc57600080fd5b613fc888838901613f44565b90965094506020870135915080821115613fe157600080fd5b50613fee87828801613f44565b95989497509550505050565b6000806040838503121561400d57600080fd5b82356140188161387e565b91506020830135613d078161387e565b6000806040838503121561403b57600080fd5b8235915060208301356001600160401b03811115613b6257600080fd5b600181811c9082168061406c57607f821691505b60208210810361408c57634e487b7160e01b600052602260045260246000fd5b50919050565b6020808252602d908201527f4552433732313a2063616c6c6572206973206e6f7420746f6b656e206f776e6560408201526c1c881bdc88185c1c1c9bdd9959609a1b606082015260800190565b6020808252602c908201527f46756e6374696f6e206d7573742062652063616c6c6564207468726f7567682060408201526b19195b1959d85d1958d85b1b60a21b606082015260800190565b6020808252602c908201527f46756e6374696f6e206d7573742062652063616c6c6564207468726f7567682060408201526b6163746976652070726f787960a01b606082015260800190565b60208082526025908201527f43616c6c6572206973206e6f74207468652072656769737472792c206e6f722060408201526437bbb732b960d91b606082015260800190565b600083516141ce8184602088016137fa565b8351908301906141e28183602088016137fa565b01949350505050565b6000602082840312156141fd57600080fd5b81516130318161387e565b60006020828403121561421a57600080fd5b8151613031816139a6565b60208082526025908201527f4552433732313a207472616e736665722066726f6d20696e636f72726563742060408201526437bbb732b960d91b606082015260800190565b60006020828403121561427c57600080fd5b5051919050565b60208082526032908201527f4552433732313a207472616e7366657220746f206e6f6e20455243373231526560408201527131b2b4bb32b91034b6b83632b6b2b73a32b960711b606082015260800190565b6020808252602b908201527f496e697469616c697a61626c653a20636f6e7472616374206973206e6f74206960408201526a6e697469616c697a696e6760a81b606082015260800190565b634e487b7160e01b600052603260045260246000fd5b634e487b7160e01b600052601160045260246000fd5b60006001820161435e5761435e614336565b5060010190565b7f416363657373436f6e74726f6c3a206163636f756e742000000000000000000081526000835161439d8160178501602088016137fa565b7001034b99036b4b9b9b4b733903937b6329607d1b60179184019182015283516143ce8160288401602088016137fa565b01602801949350505050565b6001600160a01b038581168252841660208201526040810183905260806060820181905260009061368690830184613826565b60006020828403121561441f57600080fd5b8151613031816137c7565b600081600019048311821515161561444457614444614336565b500290565b6000821982111561445c5761445c614336565b500190565b60008161447057614470614336565b506000190190565b6000825161448a8184602087016137fa565b919091019291505056fe360894a13ba1a3210667c828492db98dca3e2076cc3735a920a3ca505d382bbc416464726573733a206c6f772d6c6576656c2064656c65676174652063616c6c206661696c6564546f7563616e2050726f746f636f6c3a20436172626f6e2050726f6a6563742056696e7461676573a26469706673582212204939ddb58cdc5d63891593c455ab0273713892611e046f66ba6ef8035c4c18c564736f6c634300080e0033",
  "devdoc": {
    "kind": "dev",
    "methods": {
      "addNewVintage(address,(string,uint64,uint64,uint256,uint64,bool,bool,string,string,string,string,string))": {
        "details": "vintages can be added by data-managers"
      },
      "approve(address,uint256)": {
        "details": "See {IERC721-approve}."
      },
      "balanceOf(address)": {
        "details": "See {IERC721-balanceOf}."
      },
      "constructor": {
        "custom:oz-upgrades-unsafe-allow": "constructor"
      },
      "exists(uint256)": {
        "details": "Function to check whether a projectVintageToken exists, to be called by other (external) contracts"
      },
      "getApproved(uint256)": {
        "details": "See {IERC721-getApproved}."
      },
      "getProjectVintageDataByTokenId(uint256)": {
        "details": "retrieve all data from VintageData struct"
      },
      "getRoleAdmin(bytes32)": {
        "details": "Returns the admin role that controls `role`. See {grantRole} and {revokeRole}. To change a role's admin, use {_setRoleAdmin}."
      },
      "grantRole(bytes32,address)": {
        "details": "Grants `role` to `account`. If `account` had not been already granted `role`, emits a {RoleGranted} event. Requirements: - the caller must have ``role``'s admin role. May emit a {RoleGranted} event."
      },
      "hasRole(bytes32,address)": {
        "details": "Returns `true` if `account` has been granted `role`."
      },
      "isApprovedForAll(address,address)": {
        "details": "See {IERC721-isApprovedForAll}."
      },
      "name()": {
        "details": "See {IERC721Metadata-name}."
      },
      "owner()": {
        "details": "Returns the address of the current owner."
      },
      "ownerOf(uint256)": {
        "details": "See {IERC721-ownerOf}."
      },
      "pause()": {
        "details": "wraps _pause(), only Admin"
      },
      "paused()": {
        "details": "Returns true if the contract is paused, and false otherwise."
      },
      "proxiableUUID()": {
        "details": "Implementation of the ERC1822 {proxiableUUID} function. This returns the storage slot used by the implementation. It is used to validate the implementation's compatibility when performing an upgrade. IMPORTANT: A proxy pointing at a proxiable contract should not be considered proxiable itself, because this risks bricking a proxy that upgrades to it, by delegating to itself until out of gas. Thus it is critical that this function revert if invoked through a proxy. This is guaranteed by the `notDelegated` modifier."
      },
      "renounceOwnership()": {
        "details": "Leaves the contract without owner. It will not be possible to call `onlyOwner` functions. Can only be called by the current owner. NOTE: Renouncing ownership will leave the contract without an owner, thereby disabling any functionality that is only available to the owner."
      },
      "renounceRole(bytes32,address)": {
        "details": "Revokes `role` from the calling account. Roles are often managed via {grantRole} and {revokeRole}: this function's purpose is to provide a mechanism for accounts to lose their privileges if they are compromised (such as when a trusted device is misplaced). If the calling account had been revoked `role`, emits a {RoleRevoked} event. Requirements: - the caller must be `account`. May emit a {RoleRevoked} event."
      },
      "revokeRole(bytes32,address)": {
        "details": "Revokes `role` from `account`. If `account` had been granted `role`, emits a {RoleRevoked} event. Requirements: - the caller must have ``role``'s admin role. May emit a {RoleRevoked} event."
      },
      "safeTransferFrom(address,address,uint256)": {
        "details": "See {IERC721-safeTransferFrom}."
      },
      "safeTransferFrom(address,address,uint256,bytes)": {
        "details": "See {IERC721-safeTransferFrom}."
      },
      "setApprovalForAll(address,bool)": {
        "details": "See {IERC721-setApprovalForAll}."
      },
      "symbol()": {
        "details": "See {IERC721Metadata-symbol}."
      },
      "tokenURI(uint256)": {
        "details": "Returns the Uniform Resource Identifier (URI) for `tokenId` token. based on the ERC721URIStorage implementation"
      },
      "transferFrom(address,address,uint256)": {
        "details": "See {IERC721-transferFrom}."
      },
      "transferOwnership(address)": {
        "details": "Transfers ownership of the contract to a new account (`newOwner`). Can only be called by the current owner."
      },
      "unpause()": {
        "details": "unpause the system, wraps _unpause(), only Admin"
      },
      "updateProjectVintage(uint256,(string,uint64,uint64,uint256,uint64,bool,bool,string,string,string,string,string))": {
        "details": "Only data-managers can update the data for correction except the sensitive `projectId`",
        "params": {
          "_vintageData": "New vintage data",
          "tokenId": "The tokenId of the vintage to update"
        }
      },
      "upgradeTo(address)": {
        "custom:oz-upgrades-unsafe-allow-reachable": "delegatecall",
        "details": "Upgrade the implementation of the proxy to `newImplementation`. Calls {_authorizeUpgrade}. Emits an {Upgraded} event."
      },
      "upgradeToAndCall(address,bytes)": {
        "custom:oz-upgrades-unsafe-allow-reachable": "delegatecall",
        "details": "Upgrade the implementation of the proxy to `newImplementation`, and subsequently execute the function call encoded in `data`. Calls {_authorizeUpgrade}. Emits an {Upgraded} event."
      }
    },
    "stateVariables": {
      "MANAGER_ROLE": {
        "details": "All roles related to accessing this contract"
      },
      "VERSION": {
        "details": "Version-related parameters. VERSION keeps track of production releases. VERSION_RELEASE_CANDIDATE keeps track of iterations of a VERSION in our staging environment."
      }
    },
    "version": 1
  },
  "userdoc": {
    "kind": "user",
    "methods": {
      "addNewVintage(address,(string,uint64,uint64,uint256,uint64,bool,bool,string,string,string,string,string))": {
        "notice": "Adds a new carbon project-vintage along with attributes/data"
      },
      "pause()": {
        "notice": "Emergency function to disable contract's core functionality"
      },
      "updateProjectVintage(uint256,(string,uint64,uint64,uint256,uint64,bool,bool,string,string,string,string,string))": {
        "notice": "Updates an existing carbon project"
      }
    },
    "notice": "The CarbonProjectVintages contract stores vintage-specific data The data is stored in structs via ERC721 tokens Most contracts in the protocol query the data stored here Every `vintageData` struct points to a parent `CarbonProject`",
    "version": 1
  },
  "storageLayout": {
    "storage": [
      {
        "astId": 18718,
        "contract": "contracts/CarbonProjectVintages.sol:CarbonProjectVintages",
        "label": "projectVintageTokenCounter",
        "offset": 0,
        "slot": "0",
        "type": "t_uint128"
      },
      {
        "astId": 18720,
        "contract": "contracts/CarbonProjectVintages.sol:CarbonProjectVintages",
        "label": "totalSupply",
        "offset": 16,
        "slot": "0",
        "type": "t_uint128"
      },
      {
        "astId": 18722,
        "contract": "contracts/CarbonProjectVintages.sol:CarbonProjectVintages",
        "label": "contractRegistry",
        "offset": 0,
        "slot": "1",
        "type": "t_address"
      },
      {
        "astId": 18724,
        "contract": "contracts/CarbonProjectVintages.sol:CarbonProjectVintages",
        "label": "baseURI",
        "offset": 0,
        "slot": "2",
        "type": "t_string_storage"
      },
      {
        "astId": 18729,
        "contract": "contracts/CarbonProjectVintages.sol:CarbonProjectVintages",
        "label": "vintageData",
        "offset": 0,
        "slot": "3",
        "type": "t_mapping(t_uint256,t_struct(VintageData)18244_storage)"
      },
      {
        "astId": 18734,
        "contract": "contracts/CarbonProjectVintages.sol:CarbonProjectVintages",
        "label": "validProjectVintageIds",
        "offset": 0,
        "slot": "4",
        "type": "t_mapping(t_uint256,t_bool)"
      },
      {
        "astId": 18741,
        "contract": "contracts/CarbonProjectVintages.sol:CarbonProjectVintages",
        "label": "pvToTokenId",
        "offset": 0,
        "slot": "5",
        "type": "t_mapping(t_uint256,t_mapping(t_uint64,t_uint256))"
      },
      {
        "astId": 2373,
        "contract": "contracts/CarbonProjectVintages.sol:CarbonProjectVintages",
        "label": "_initialized",
        "offset": 0,
        "slot": "6",
        "type": "t_uint8"
      },
      {
        "astId": 2376,
        "contract": "contracts/CarbonProjectVintages.sol:CarbonProjectVintages",
        "label": "_initializing",
        "offset": 1,
        "slot": "6",
        "type": "t_bool"
      },
      {
        "astId": 7515,
        "contract": "contracts/CarbonProjectVintages.sol:CarbonProjectVintages",
        "label": "__gap",
        "offset": 0,
        "slot": "7",
        "type": "t_array(t_uint256)50_storage"
      },
      {
        "astId": 7899,
        "contract": "contracts/CarbonProjectVintages.sol:CarbonProjectVintages",
        "label": "__gap",
        "offset": 0,
        "slot": "57",
        "type": "t_array(t_uint256)50_storage"
      },
      {
        "astId": 5645,
        "contract": "contracts/CarbonProjectVintages.sol:CarbonProjectVintages",
        "label": "_name",
        "offset": 0,
        "slot": "107",
        "type": "t_string_storage"
      },
      {
        "astId": 5647,
        "contract": "contracts/CarbonProjectVintages.sol:CarbonProjectVintages",
        "label": "_symbol",
        "offset": 0,
        "slot": "108",
        "type": "t_string_storage"
      },
      {
        "astId": 5651,
        "contract": "contracts/CarbonProjectVintages.sol:CarbonProjectVintages",
        "label": "_owners",
        "offset": 0,
        "slot": "109",
        "type": "t_mapping(t_uint256,t_address)"
      },
      {
        "astId": 5655,
        "contract": "contracts/CarbonProjectVintages.sol:CarbonProjectVintages",
        "label": "_balances",
        "offset": 0,
        "slot": "110",
        "type": "t_mapping(t_address,t_uint256)"
      },
      {
        "astId": 5659,
        "contract": "contracts/CarbonProjectVintages.sol:CarbonProjectVintages",
        "label": "_tokenApprovals",
        "offset": 0,
        "slot": "111",
        "type": "t_mapping(t_uint256,t_address)"
      },
      {
        "astId": 5665,
        "contract": "contracts/CarbonProjectVintages.sol:CarbonProjectVintages",
        "label": "_operatorApprovals",
        "offset": 0,
        "slot": "112",
        "type": "t_mapping(t_address,t_mapping(t_address,t_bool))"
      },
      {
        "astId": 6567,
        "contract": "contracts/CarbonProjectVintages.sol:CarbonProjectVintages",
        "label": "__gap",
        "offset": 0,
        "slot": "113",
        "type": "t_array(t_uint256)44_storage"
      },
      {
        "astId": 1879,
        "contract": "contracts/CarbonProjectVintages.sol:CarbonProjectVintages",
        "label": "_owner",
        "offset": 0,
        "slot": "157",
        "type": "t_address"
      },
      {
        "astId": 1999,
        "contract": "contracts/CarbonProjectVintages.sol:CarbonProjectVintages",
        "label": "__gap",
        "offset": 0,
        "slot": "158",
        "type": "t_array(t_uint256)49_storage"
      },
      {
        "astId": 2694,
        "contract": "contracts/CarbonProjectVintages.sol:CarbonProjectVintages",
        "label": "_paused",
        "offset": 0,
        "slot": "207",
        "type": "t_bool"
      },
      {
        "astId": 2799,
        "contract": "contracts/CarbonProjectVintages.sol:CarbonProjectVintages",
        "label": "__gap",
        "offset": 0,
        "slot": "208",
        "type": "t_array(t_uint256)49_storage"
      },
      {
        "astId": 1486,
        "contract": "contracts/CarbonProjectVintages.sol:CarbonProjectVintages",
        "label": "_roles",
        "offset": 0,
        "slot": "257",
        "type": "t_mapping(t_bytes32,t_struct(RoleData)1481_storage)"
      },
      {
        "astId": 1793,
        "contract": "contracts/CarbonProjectVintages.sol:CarbonProjectVintages",
        "label": "__gap",
        "offset": 0,
        "slot": "258",
        "type": "t_array(t_uint256)49_storage"
      },
      {
        "astId": 2355,
        "contract": "contracts/CarbonProjectVintages.sol:CarbonProjectVintages",
        "label": "__gap",
        "offset": 0,
        "slot": "307",
        "type": "t_array(t_uint256)50_storage"
      },
      {
        "astId": 2671,
        "contract": "contracts/CarbonProjectVintages.sol:CarbonProjectVintages",
        "label": "__gap",
        "offset": 0,
        "slot": "357",
        "type": "t_array(t_uint256)50_storage"
      }
    ],
    "types": {
      "t_address": {
        "encoding": "inplace",
        "label": "address",
        "numberOfBytes": "20"
      },
      "t_array(t_uint256)44_storage": {
        "base": "t_uint256",
        "encoding": "inplace",
        "label": "uint256[44]",
        "numberOfBytes": "1408"
      },
      "t_array(t_uint256)49_storage": {
        "base": "t_uint256",
        "encoding": "inplace",
        "label": "uint256[49]",
        "numberOfBytes": "1568"
      },
      "t_array(t_uint256)50_storage": {
        "base": "t_uint256",
        "encoding": "inplace",
        "label": "uint256[50]",
        "numberOfBytes": "1600"
      },
      "t_bool": {
        "encoding": "inplace",
        "label": "bool",
        "numberOfBytes": "1"
      },
      "t_bytes32": {
        "encoding": "inplace",
        "label": "bytes32",
        "numberOfBytes": "32"
      },
      "t_mapping(t_address,t_bool)": {
        "encoding": "mapping",
        "key": "t_address",
        "label": "mapping(address => bool)",
        "numberOfBytes": "32",
        "value": "t_bool"
      },
      "t_mapping(t_address,t_mapping(t_address,t_bool))": {
        "encoding": "mapping",
        "key": "t_address",
        "label": "mapping(address => mapping(address => bool))",
        "numberOfBytes": "32",
        "value": "t_mapping(t_address,t_bool)"
      },
      "t_mapping(t_address,t_uint256)": {
        "encoding": "mapping",
        "key": "t_address",
        "label": "mapping(address => uint256)",
        "numberOfBytes": "32",
        "value": "t_uint256"
      },
      "t_mapping(t_bytes32,t_struct(RoleData)1481_storage)": {
        "encoding": "mapping",
        "key": "t_bytes32",
        "label": "mapping(bytes32 => struct AccessControlUpgradeable.RoleData)",
        "numberOfBytes": "32",
        "value": "t_struct(RoleData)1481_storage"
      },
      "t_mapping(t_uint256,t_address)": {
        "encoding": "mapping",
        "key": "t_uint256",
        "label": "mapping(uint256 => address)",
        "numberOfBytes": "32",
        "value": "t_address"
      },
      "t_mapping(t_uint256,t_bool)": {
        "encoding": "mapping",
        "key": "t_uint256",
        "label": "mapping(uint256 => bool)",
        "numberOfBytes": "32",
        "value": "t_bool"
      },
      "t_mapping(t_uint256,t_mapping(t_uint64,t_uint256))": {
        "encoding": "mapping",
        "key": "t_uint256",
        "label": "mapping(uint256 => mapping(uint64 => uint256))",
        "numberOfBytes": "32",
        "value": "t_mapping(t_uint64,t_uint256)"
      },
      "t_mapping(t_uint256,t_struct(VintageData)18244_storage)": {
        "encoding": "mapping",
        "key": "t_uint256",
        "label": "mapping(uint256 => struct VintageData)",
        "numberOfBytes": "32",
        "value": "t_struct(VintageData)18244_storage"
      },
      "t_mapping(t_uint64,t_uint256)": {
        "encoding": "mapping",
        "key": "t_uint64",
        "label": "mapping(uint64 => uint256)",
        "numberOfBytes": "32",
        "value": "t_uint256"
      },
      "t_string_storage": {
        "encoding": "bytes",
        "label": "string",
        "numberOfBytes": "32"
      },
      "t_struct(RoleData)1481_storage": {
        "encoding": "inplace",
        "label": "struct AccessControlUpgradeable.RoleData",
        "members": [
          {
            "astId": 1478,
            "contract": "contracts/CarbonProjectVintages.sol:CarbonProjectVintages",
            "label": "members",
            "offset": 0,
            "slot": "0",
            "type": "t_mapping(t_address,t_bool)"
          },
          {
            "astId": 1480,
            "contract": "contracts/CarbonProjectVintages.sol:CarbonProjectVintages",
            "label": "adminRole",
            "offset": 0,
            "slot": "1",
            "type": "t_bytes32"
          }
        ],
        "numberOfBytes": "64"
      },
      "t_struct(VintageData)18244_storage": {
        "encoding": "inplace",
        "label": "struct VintageData",
        "members": [
          {
            "astId": 18221,
            "contract": "contracts/CarbonProjectVintages.sol:CarbonProjectVintages",
            "label": "name",
            "offset": 0,
            "slot": "0",
            "type": "t_string_storage"
          },
          {
            "astId": 18223,
            "contract": "contracts/CarbonProjectVintages.sol:CarbonProjectVintages",
            "label": "startTime",
            "offset": 0,
            "slot": "1",
            "type": "t_uint64"
          },
          {
            "astId": 18225,
            "contract": "contracts/CarbonProjectVintages.sol:CarbonProjectVintages",
            "label": "endTime",
            "offset": 8,
            "slot": "1",
            "type": "t_uint64"
          },
          {
            "astId": 18227,
            "contract": "contracts/CarbonProjectVintages.sol:CarbonProjectVintages",
            "label": "projectTokenId",
            "offset": 0,
            "slot": "2",
            "type": "t_uint256"
          },
          {
            "astId": 18229,
            "contract": "contracts/CarbonProjectVintages.sol:CarbonProjectVintages",
            "label": "totalVintageQuantity",
            "offset": 0,
            "slot": "3",
            "type": "t_uint64"
          },
          {
            "astId": 18231,
            "contract": "contracts/CarbonProjectVintages.sol:CarbonProjectVintages",
            "label": "isCorsiaCompliant",
            "offset": 8,
            "slot": "3",
            "type": "t_bool"
          },
          {
            "astId": 18233,
            "contract": "contracts/CarbonProjectVintages.sol:CarbonProjectVintages",
            "label": "isCCPcompliant",
            "offset": 9,
            "slot": "3",
            "type": "t_bool"
          },
          {
            "astId": 18235,
            "contract": "contracts/CarbonProjectVintages.sol:CarbonProjectVintages",
            "label": "coBenefits",
            "offset": 0,
            "slot": "4",
            "type": "t_string_storage"
          },
          {
            "astId": 18237,
            "contract": "contracts/CarbonProjectVintages.sol:CarbonProjectVintages",
            "label": "correspAdjustment",
            "offset": 0,
            "slot": "5",
            "type": "t_string_storage"
          },
          {
            "astId": 18239,
            "contract": "contracts/CarbonProjectVintages.sol:CarbonProjectVintages",
            "label": "additionalCertification",
            "offset": 0,
            "slot": "6",
            "type": "t_string_storage"
          },
          {
            "astId": 18241,
            "contract": "contracts/CarbonProjectVintages.sol:CarbonProjectVintages",
            "label": "uri",
            "offset": 0,
            "slot": "7",
            "type": "t_string_storage"
          },
          {
            "astId": 18243,
            "contract": "contracts/CarbonProjectVintages.sol:CarbonProjectVintages",
            "label": "registry",
            "offset": 0,
            "slot": "8",
            "type": "t_string_storage"
          }
        ],
        "numberOfBytes": "288"
      },
      "t_uint128": {
        "encoding": "inplace",
        "label": "uint128",
        "numberOfBytes": "16"
      },
      "t_uint256": {
        "encoding": "inplace",
        "label": "uint256",
        "numberOfBytes": "32"
      },
      "t_uint64": {
        "encoding": "inplace",
        "label": "uint64",
        "numberOfBytes": "8"
      },
      "t_uint8": {
        "encoding": "inplace",
        "label": "uint8",
        "numberOfBytes": "1"
      }
    }
  }
}