{
  "address": "0xB83a78C631816c0994F0Df770b337c440e363645",
  "abi": [
    {
      "inputs": [],
      "stateMutability": "nonpayable",
      "type": "constructor"
    },
    {
      "anonymous": false,
      "inputs": [
        {
          "indexed": false,
          "internalType": "address",
          "name": "previousAdmin",
          "type": "address"
        },
        {
          "indexed": false,
          "internalType": "address",
          "name": "newAdmin",
          "type": "address"
        }
      ],
      "name": "AdminChanged",
      "type": "event"
    },
    {
      "anonymous": false,
      "inputs": [
        {
          "indexed": true,
          "internalType": "address",
          "name": "owner",
          "type": "address"
        },
        {
          "indexed": true,
          "internalType": "address",
          "name": "approved",
          "type": "address"
        },
        {
          "indexed": true,
          "internalType": "uint256",
          "name": "tokenId",
          "type": "uint256"
        }
      ],
      "name": "Approval",
      "type": "event"
    },
    {
      "anonymous": false,
      "inputs": [
        {
          "indexed": true,
          "internalType": "address",
          "name": "owner",
          "type": "address"
        },
        {
          "indexed": true,
          "internalType": "address",
          "name": "operator",
          "type": "address"
        },
        {
          "indexed": false,
          "internalType": "bool",
          "name": "approved",
          "type": "bool"
        }
      ],
      "name": "ApprovalForAll",
      "type": "event"
    },
    {
      "anonymous": false,
      "inputs": [
        {
          "indexed": true,
          "internalType": "address",
          "name": "beacon",
          "type": "address"
        }
      ],
      "name": "BeaconUpgraded",
      "type": "event"
    },
    {
      "anonymous": false,
      "inputs": [
        {
          "indexed": true,
          "internalType": "uint256",
          "name": "tokenId",
          "type": "uint256"
        },
        {
          "indexed": false,
          "internalType": "address",
          "name": "oldBeneficiary",
          "type": "address"
        },
        {
          "indexed": false,
          "internalType": "address",
          "name": "newBeneficiary",
          "type": "address"
        }
      ],
      "name": "BeneficiaryUpdated",
      "type": "event"
    },
    {
      "anonymous": false,
      "inputs": [
        {
          "indexed": false,
          "internalType": "uint8",
          "name": "version",
          "type": "uint8"
        }
      ],
      "name": "Initialized",
      "type": "event"
    },
    {
      "anonymous": false,
      "inputs": [
        {
          "indexed": true,
          "internalType": "address",
          "name": "previousOwner",
          "type": "address"
        },
        {
          "indexed": true,
          "internalType": "address",
          "name": "newOwner",
          "type": "address"
        }
      ],
      "name": "OwnershipTransferred",
      "type": "event"
    },
    {
      "anonymous": false,
      "inputs": [
        {
          "indexed": false,
          "internalType": "address",
          "name": "account",
          "type": "address"
        }
      ],
      "name": "Paused",
      "type": "event"
    },
    {
      "anonymous": false,
      "inputs": [
        {
          "indexed": false,
          "internalType": "uint256",
          "name": "tokenId",
          "type": "uint256"
        }
      ],
      "name": "ProjectIdUpdated",
      "type": "event"
    },
    {
      "anonymous": false,
      "inputs": [
        {
          "indexed": false,
          "internalType": "address",
          "name": "receiver",
          "type": "address"
        },
        {
          "indexed": false,
          "internalType": "uint256",
          "name": "tokenId",
          "type": "uint256"
        }
      ],
      "name": "ProjectMinted",
      "type": "event"
    },
    {
      "anonymous": false,
      "inputs": [
        {
          "indexed": false,
          "internalType": "uint256",
          "name": "tokenId",
          "type": "uint256"
        }
      ],
      "name": "ProjectUpdated",
      "type": "event"
    },
    {
      "anonymous": false,
      "inputs": [
        {
          "indexed": true,
          "internalType": "bytes32",
          "name": "role",
          "type": "bytes32"
        },
        {
          "indexed": true,
          "internalType": "bytes32",
          "name": "previousAdminRole",
          "type": "bytes32"
        },
        {
          "indexed": true,
          "internalType": "bytes32",
          "name": "newAdminRole",
          "type": "bytes32"
        }
      ],
      "name": "RoleAdminChanged",
      "type": "event"
    },
    {
      "anonymous": false,
      "inputs": [
        {
          "indexed": true,
          "internalType": "bytes32",
          "name": "role",
          "type": "bytes32"
        },
        {
          "indexed": true,
          "internalType": "address",
          "name": "account",
          "type": "address"
        },
        {
          "indexed": true,
          "internalType": "address",
          "name": "sender",
          "type": "address"
        }
      ],
      "name": "RoleGranted",
      "type": "event"
    },
    {
      "anonymous": false,
      "inputs": [
        {
          "indexed": true,
          "internalType": "bytes32",
          "name": "role",
          "type": "bytes32"
        },
        {
          "indexed": true,
          "internalType": "address",
          "name": "account",
          "type": "address"
        },
        {
          "indexed": true,
          "internalType": "address",
          "name": "sender",
          "type": "address"
        }
      ],
      "name": "RoleRevoked",
      "type": "event"
    },
    {
      "anonymous": false,
      "inputs": [
        {
          "indexed": true,
          "internalType": "address",
          "name": "from",
          "type": "address"
        },
        {
          "indexed": true,
          "internalType": "address",
          "name": "to",
          "type": "address"
        },
        {
          "indexed": true,
          "internalType": "uint256",
          "name": "tokenId",
          "type": "uint256"
        }
      ],
      "name": "Transfer",
      "type": "event"
    },
    {
      "anonymous": false,
      "inputs": [
        {
          "indexed": false,
          "internalType": "address",
          "name": "account",
          "type": "address"
        }
      ],
      "name": "Unpaused",
      "type": "event"
    },
    {
      "anonymous": false,
      "inputs": [
        {
          "indexed": true,
          "internalType": "address",
          "name": "implementation",
          "type": "address"
        }
      ],
      "name": "Upgraded",
      "type": "event"
    },
    {
      "inputs": [],
      "name": "DEFAULT_ADMIN_ROLE",
      "outputs": [
        {
          "internalType": "bytes32",
          "name": "",
          "type": "bytes32"
        }
      ],
      "stateMutability": "view",
      "type": "function"
    },
    {
      "inputs": [],
      "name": "MANAGER_ROLE",
      "outputs": [
        {
          "internalType": "bytes32",
          "name": "",
          "type": "bytes32"
        }
      ],
      "stateMutability": "view",
      "type": "function"
    },
    {
      "inputs": [],
      "name": "VERSION",
      "outputs": [
        {
          "internalType": "string",
          "name": "",
          "type": "string"
        }
      ],
      "stateMutability": "view",
      "type": "function"
    },
    {
      "inputs": [],
      "name": "VERSION_RELEASE_CANDIDATE",
      "outputs": [
        {
          "internalType": "uint256",
          "name": "",
          "type": "uint256"
        }
      ],
      "stateMutability": "view",
      "type": "function"
    },
    {
      "inputs": [
        {
          "internalType": "address",
          "name": "to",
          "type": "address"
        },
        {
          "internalType": "string",
          "name": "projectId",
          "type": "string"
        },
        {
          "internalType": "string",
          "name": "standard",
          "type": "string"
        },
        {
          "internalType": "string",
          "name": "methodology",
          "type": "string"
        },
        {
          "internalType": "string",
          "name": "region",
          "type": "string"
        },
        {
          "internalType": "string",
          "name": "storageMethod",
          "type": "string"
        },
        {
          "internalType": "string",
          "name": "method",
          "type": "string"
        },
        {
          "internalType": "string",
          "name": "emissionType",
          "type": "string"
        },
        {
          "internalType": "string",
          "name": "category",
          "type": "string"
        },
        {
          "internalType": "string",
          "name": "uri",
          "type": "string"
        },
        {
          "internalType": "address",
          "name": "beneficiary",
          "type": "address"
        }
      ],
      "name": "addNewProject",
      "outputs": [
        {
          "internalType": "uint256",
          "name": "",
          "type": "uint256"
        }
      ],
      "stateMutability": "nonpayable",
      "type": "function"
    },
    {
      "inputs": [
        {
          "internalType": "address",
          "name": "to",
          "type": "address"
        },
        {
          "internalType": "uint256",
          "name": "tokenId",
          "type": "uint256"
        }
      ],
      "name": "approve",
      "outputs": [],
      "stateMutability": "nonpayable",
      "type": "function"
    },
    {
      "inputs": [
        {
          "internalType": "address",
          "name": "owner",
          "type": "address"
        }
      ],
      "name": "balanceOf",
      "outputs": [
        {
          "internalType": "uint256",
          "name": "",
          "type": "uint256"
        }
      ],
      "stateMutability": "view",
      "type": "function"
    },
    {
      "inputs": [],
      "name": "baseURI",
      "outputs": [
        {
          "internalType": "string",
          "name": "",
          "type": "string"
        }
      ],
      "stateMutability": "view",
      "type": "function"
    },
    {
      "inputs": [],
      "name": "contractRegistry",
      "outputs": [
        {
          "internalType": "address",
          "name": "",
          "type": "address"
        }
      ],
      "stateMutability": "view",
      "type": "function"
    },
    {
      "inputs": [
        {
          "internalType": "uint256",
          "name": "tokenId",
          "type": "uint256"
        }
      ],
      "name": "getApproved",
      "outputs": [
        {
          "internalType": "address",
          "name": "",
          "type": "address"
        }
      ],
      "stateMutability": "view",
      "type": "function"
    },
    {
      "inputs": [
        {
          "internalType": "uint256",
          "name": "tokenId",
          "type": "uint256"
        }
      ],
      "name": "getProjectDataByTokenId",
      "outputs": [
        {
          "components": [
            {
              "internalType": "string",
              "name": "projectId",
              "type": "string"
            },
            {
              "internalType": "string",
              "name": "standard",
              "type": "string"
            },
            {
              "internalType": "string",
              "name": "methodology",
              "type": "string"
            },
            {
              "internalType": "string",
              "name": "region",
              "type": "string"
            },
            {
              "internalType": "string",
              "name": "storageMethod",
              "type": "string"
            },
            {
              "internalType": "string",
              "name": "method",
              "type": "string"
            },
            {
              "internalType": "string",
              "name": "emissionType",
              "type": "string"
            },
            {
              "internalType": "string",
              "name": "category",
              "type": "string"
            },
            {
              "internalType": "string",
              "name": "uri",
              "type": "string"
            },
            {
              "internalType": "address",
              "name": "beneficiary",
              "type": "address"
            }
          ],
          "internalType": "struct ProjectData",
          "name": "",
          "type": "tuple"
        }
      ],
      "stateMutability": "view",
      "type": "function"
    },
    {
      "inputs": [
        {
          "internalType": "bytes32",
          "name": "role",
          "type": "bytes32"
        }
      ],
      "name": "getRoleAdmin",
      "outputs": [
        {
          "internalType": "bytes32",
          "name": "",
          "type": "bytes32"
        }
      ],
      "stateMutability": "view",
      "type": "function"
    },
    {
      "inputs": [
        {
          "internalType": "bytes32",
          "name": "role",
          "type": "bytes32"
        },
        {
          "internalType": "address",
          "name": "account",
          "type": "address"
        }
      ],
      "name": "grantRole",
      "outputs": [],
      "stateMutability": "nonpayable",
      "type": "function"
    },
    {
      "inputs": [
        {
          "internalType": "bytes32",
          "name": "role",
          "type": "bytes32"
        },
        {
          "internalType": "address",
          "name": "account",
          "type": "address"
        }
      ],
      "name": "hasRole",
      "outputs": [
        {
          "internalType": "bool",
          "name": "",
          "type": "bool"
        }
      ],
      "stateMutability": "view",
      "type": "function"
    },
    {
      "inputs": [
        {
          "internalType": "address[]",
          "name": "accounts",
          "type": "address[]"
        },
        {
          "internalType": "bytes32[]",
          "name": "roles",
          "type": "bytes32[]"
        }
      ],
      "name": "initialize",
      "outputs": [],
      "stateMutability": "nonpayable",
      "type": "function"
    },
    {
      "inputs": [
        {
          "internalType": "address",
          "name": "owner",
          "type": "address"
        },
        {
          "internalType": "address",
          "name": "operator",
          "type": "address"
        }
      ],
      "name": "isApprovedForAll",
      "outputs": [
        {
          "internalType": "bool",
          "name": "",
          "type": "bool"
        }
      ],
      "stateMutability": "view",
      "type": "function"
    },
    {
      "inputs": [
        {
          "internalType": "uint256",
          "name": "projectTokenId",
          "type": "uint256"
        }
      ],
      "name": "isValidProjectTokenId",
      "outputs": [
        {
          "internalType": "bool",
          "name": "",
          "type": "bool"
        }
      ],
      "stateMutability": "view",
      "type": "function"
    },
    {
      "inputs": [],
      "name": "name",
      "outputs": [
        {
          "internalType": "string",
          "name": "",
          "type": "string"
        }
      ],
      "stateMutability": "view",
      "type": "function"
    },
    {
      "inputs": [],
      "name": "owner",
      "outputs": [
        {
          "internalType": "address",
          "name": "",
          "type": "address"
        }
      ],
      "stateMutability": "view",
      "type": "function"
    },
    {
      "inputs": [
        {
          "internalType": "uint256",
          "name": "tokenId",
          "type": "uint256"
        }
      ],
      "name": "ownerOf",
      "outputs": [
        {
          "internalType": "address",
          "name": "",
          "type": "address"
        }
      ],
      "stateMutability": "view",
      "type": "function"
    },
    {
      "inputs": [],
      "name": "pause",
      "outputs": [],
      "stateMutability": "nonpayable",
      "type": "function"
    },
    {
      "inputs": [],
      "name": "paused",
      "outputs": [
        {
          "internalType": "bool",
          "name": "",
          "type": "bool"
        }
      ],
      "stateMutability": "view",
      "type": "function"
    },
    {
      "inputs": [
        {
          "internalType": "string",
          "name": "",
          "type": "string"
        }
      ],
      "name": "pidToTokenId",
      "outputs": [
        {
          "internalType": "uint256",
          "name": "",
          "type": "uint256"
        }
      ],
      "stateMutability": "view",
      "type": "function"
    },
    {
      "inputs": [
        {
          "internalType": "uint256",
          "name": "",
          "type": "uint256"
        }
      ],
      "name": "projectData",
      "outputs": [
        {
          "internalType": "string",
          "name": "projectId",
          "type": "string"
        },
        {
          "internalType": "string",
          "name": "standard",
          "type": "string"
        },
        {
          "internalType": "string",
          "name": "methodology",
          "type": "string"
        },
        {
          "internalType": "string",
          "name": "region",
          "type": "string"
        },
        {
          "internalType": "string",
          "name": "storageMethod",
          "type": "string"
        },
        {
          "internalType": "string",
          "name": "method",
          "type": "string"
        },
        {
          "internalType": "string",
          "name": "emissionType",
          "type": "string"
        },
        {
          "internalType": "string",
          "name": "category",
          "type": "string"
        },
        {
          "internalType": "string",
          "name": "uri",
          "type": "string"
        },
        {
          "internalType": "address",
          "name": "beneficiary",
          "type": "address"
        }
      ],
      "stateMutability": "view",
      "type": "function"
    },
    {
      "inputs": [
        {
          "internalType": "string",
          "name": "",
          "type": "string"
        }
      ],
      "name": "projectIds",
      "outputs": [
        {
          "internalType": "bool",
          "name": "",
          "type": "bool"
        }
      ],
      "stateMutability": "view",
      "type": "function"
    },
    {
      "inputs": [],
      "name": "projectTokenCounter",
      "outputs": [
        {
          "internalType": "uint128",
          "name": "",
          "type": "uint128"
        }
      ],
      "stateMutability": "view",
      "type": "function"
    },
    {
      "inputs": [],
      "name": "proxiableUUID",
      "outputs": [
        {
          "internalType": "bytes32",
          "name": "",
          "type": "bytes32"
        }
      ],
      "stateMutability": "view",
      "type": "function"
    },
    {
      "inputs": [
        {
          "internalType": "uint256",
          "name": "projectTokenId",
          "type": "uint256"
        }
      ],
      "name": "removeProject",
      "outputs": [],
      "stateMutability": "nonpayable",
      "type": "function"
    },
    {
      "inputs": [],
      "name": "renounceOwnership",
      "outputs": [],
      "stateMutability": "nonpayable",
      "type": "function"
    },
    {
      "inputs": [
        {
          "internalType": "bytes32",
          "name": "role",
          "type": "bytes32"
        },
        {
          "internalType": "address",
          "name": "account",
          "type": "address"
        }
      ],
      "name": "renounceRole",
      "outputs": [],
      "stateMutability": "nonpayable",
      "type": "function"
    },
    {
      "inputs": [
        {
          "internalType": "bytes32",
          "name": "role",
          "type": "bytes32"
        },
        {
          "internalType": "address",
          "name": "account",
          "type": "address"
        }
      ],
      "name": "revokeRole",
      "outputs": [],
      "stateMutability": "nonpayable",
      "type": "function"
    },
    {
      "inputs": [
        {
          "internalType": "address",
          "name": "from",
          "type": "address"
        },
        {
          "internalType": "address",
          "name": "to",
          "type": "address"
        },
        {
          "internalType": "uint256",
          "name": "tokenId",
          "type": "uint256"
        }
      ],
      "name": "safeTransferFrom",
      "outputs": [],
      "stateMutability": "nonpayable",
      "type": "function"
    },
    {
      "inputs": [
        {
          "internalType": "address",
          "name": "from",
          "type": "address"
        },
        {
          "internalType": "address",
          "name": "to",
          "type": "address"
        },
        {
          "internalType": "uint256",
          "name": "tokenId",
          "type": "uint256"
        },
        {
          "internalType": "bytes",
          "name": "data",
          "type": "bytes"
        }
      ],
      "name": "safeTransferFrom",
      "outputs": [],
      "stateMutability": "nonpayable",
      "type": "function"
    },
    {
      "inputs": [
        {
          "internalType": "address",
          "name": "operator",
          "type": "address"
        },
        {
          "internalType": "bool",
          "name": "approved",
          "type": "bool"
        }
      ],
      "name": "setApprovalForAll",
      "outputs": [],
      "stateMutability": "nonpayable",
      "type": "function"
    },
    {
      "inputs": [
        {
          "internalType": "string",
          "name": "gateway",
          "type": "string"
        }
      ],
      "name": "setBaseURI",
      "outputs": [],
      "stateMutability": "nonpayable",
      "type": "function"
    },
    {
      "inputs": [
        {
          "internalType": "address",
          "name": "_address",
          "type": "address"
        }
      ],
      "name": "setToucanContractRegistry",
      "outputs": [],
      "stateMutability": "nonpayable",
      "type": "function"
    },
    {
      "inputs": [
        {
          "internalType": "bytes4",
          "name": "interfaceId",
          "type": "bytes4"
        }
      ],
      "name": "supportsInterface",
      "outputs": [
        {
          "internalType": "bool",
          "name": "",
          "type": "bool"
        }
      ],
      "stateMutability": "view",
      "type": "function"
    },
    {
      "inputs": [],
      "name": "symbol",
      "outputs": [
        {
          "internalType": "string",
          "name": "",
          "type": "string"
        }
      ],
      "stateMutability": "view",
      "type": "function"
    },
    {
      "inputs": [
        {
          "internalType": "uint256",
          "name": "tokenId",
          "type": "uint256"
        }
      ],
      "name": "tokenURI",
      "outputs": [
        {
          "internalType": "string",
          "name": "",
          "type": "string"
        }
      ],
      "stateMutability": "view",
      "type": "function"
    },
    {
      "inputs": [],
      "name": "totalSupply",
      "outputs": [
        {
          "internalType": "uint128",
          "name": "",
          "type": "uint128"
        }
      ],
      "stateMutability": "view",
      "type": "function"
    },
    {
      "inputs": [
        {
          "internalType": "address",
          "name": "from",
          "type": "address"
        },
        {
          "internalType": "address",
          "name": "to",
          "type": "address"
        },
        {
          "internalType": "uint256",
          "name": "tokenId",
          "type": "uint256"
        }
      ],
      "name": "transferFrom",
      "outputs": [],
      "stateMutability": "nonpayable",
      "type": "function"
    },
    {
      "inputs": [
        {
          "internalType": "address",
          "name": "newOwner",
          "type": "address"
        }
      ],
      "name": "transferOwnership",
      "outputs": [],
      "stateMutability": "nonpayable",
      "type": "function"
    },
    {
      "inputs": [],
      "name": "unpause",
      "outputs": [],
      "stateMutability": "nonpayable",
      "type": "function"
    },
    {
      "inputs": [
        {
          "internalType": "uint256",
          "name": "tokenId",
          "type": "uint256"
        },
        {
          "internalType": "address",
          "name": "beneficiary",
          "type": "address"
        }
      ],
      "name": "updateBeneficiary",
      "outputs": [],
      "stateMutability": "nonpayable",
      "type": "function"
    },
    {
      "inputs": [
        {
          "internalType": "uint256",
          "name": "tokenId",
          "type": "uint256"
        },
        {
          "internalType": "string",
          "name": "newStandard",
          "type": "string"
        },
        {
          "internalType": "string",
          "name": "newMethodology",
          "type": "string"
        },
        {
          "internalType": "string",
          "name": "newRegion",
          "type": "string"
        },
        {
          "internalType": "string",
          "name": "newStorageMethod",
          "type": "string"
        },
        {
          "internalType": "string",
          "name": "newMethod",
          "type": "string"
        },
        {
          "internalType": "string",
          "name": "newEmissionType",
          "type": "string"
        },
        {
          "internalType": "string",
          "name": "newCategory",
          "type": "string"
        },
        {
          "internalType": "string",
          "name": "newUri",
          "type": "string"
        },
        {
          "internalType": "address",
          "name": "beneficiary",
          "type": "address"
        }
      ],
      "name": "updateProject",
      "outputs": [],
      "stateMutability": "nonpayable",
      "type": "function"
    },
    {
      "inputs": [
        {
          "internalType": "uint256",
          "name": "tokenId",
          "type": "uint256"
        },
        {
          "internalType": "string",
          "name": "newProjectId",
          "type": "string"
        }
      ],
      "name": "updateProjectId",
      "outputs": [],
      "stateMutability": "nonpayable",
      "type": "function"
    },
    {
      "inputs": [
        {
          "internalType": "uint256[]",
          "name": "tokenIds",
          "type": "uint256[]"
        },
        {
          "internalType": "string[]",
          "name": "newProjectIds",
          "type": "string[]"
        }
      ],
      "name": "updateProjectIds",
      "outputs": [],
      "stateMutability": "nonpayable",
      "type": "function"
    },
    {
      "inputs": [
        {
          "internalType": "address",
          "name": "newImplementation",
          "type": "address"
        }
      ],
      "name": "upgradeTo",
      "outputs": [],
      "stateMutability": "nonpayable",
      "type": "function"
    },
    {
      "inputs": [
        {
          "internalType": "address",
          "name": "newImplementation",
          "type": "address"
        },
        {
          "internalType": "bytes",
          "name": "data",
          "type": "bytes"
        }
      ],
      "name": "upgradeToAndCall",
      "outputs": [],
      "stateMutability": "payable",
      "type": "function"
    },
    {
      "inputs": [
        {
          "internalType": "uint256",
          "name": "",
          "type": "uint256"
        }
      ],
      "name": "validProjectTokenIds",
      "outputs": [
        {
          "internalType": "bool",
          "name": "",
          "type": "bool"
        }
      ],
      "stateMutability": "view",
      "type": "function"
    }
  ],
  "numDeployments": 1,
  "solcInputHash": "21ae5f70988e66da4bff33b9b6a2fdaf",
  "bytecode": "0x60a0604052306080523480156200001557600080fd5b506200002062000026565b620000e7565b600054610100900460ff1615620000935760405162461bcd60e51b815260206004820152602760248201527f496e697469616c697a61626c653a20636f6e747261637420697320696e697469604482015266616c697a696e6760c81b606482015260840160405180910390fd5b60005460ff90811614620000e5576000805460ff191660ff9081179091556040519081527f7f26b83ff96e1f2b6a682f133852f6798a09c465da95921460cefb38474024989060200160405180910390a15b565b608051614fbd6200011f6000396000818161105001528181611090015281816118590152818161189901526119920152614fbd6000f3fe6080604052600436106102c95760003560e01c80636c0360eb11610175578063abf410e5116100dc578063dfe7ce5f11610095578063eb85f4d31161006f578063eb85f4d314610912578063ec87621c1461094d578063f2fde38b1461096f578063ffa1ad741461098f57600080fd5b8063dfe7ce5f14610889578063e882e37b146108a9578063e985e9c5146108c957600080fd5b8063abf410e5146107c9578063b88d4fde146107e9578063bab5adc314610809578063bac0dd3514610829578063c87b56dd14610849578063d547741f1461086957600080fd5b8063899a02cb1161012e578063899a02cb146107215780638da5cb5b1461074157806391d148541461075f57806395d89b411461077f578063a217fddf14610794578063a22cb465146107a957600080fd5b80636c0360eb146106775780636ca0b0d71461068c57806370a08231146106a1578063715018a6146106c15780638456cb59146106d65780638903f70c146106eb57600080fd5b8063365fe85d116102345780634f1ef286116101ed57806355f804b3116101c757806355f804b3146105ff5780635873f9981461061f5780635c975abb1461063f5780636352211e1461065757600080fd5b80634f1ef286146105b757806351d8cff6146105ca57806352d1902d146105ea57600080fd5b8063365fe85d146104d55780633e8eb5a4146105055780633f4ba83a1461052557806342842e0e1461053a57806347e316861461055a5780634957f0e11461058757600080fd5b806323b872dd1161028657806323b872dd146103ec578063248a9ca31461040c5780632a31e8371461043d5780632f2ff15d1461047557806336568abe146104955780633659cfe6146104b557600080fd5b806301ffc9a7146102ce57806306fdde0314610303578063081812fc14610325578063095ea7b31461035d57806310dda6711461037f57806318160ddd146103ad575b600080fd5b3480156102da57600080fd5b506102ee6102e9366004614113565b6109c0565b60405190151581526020015b60405180910390f35b34801561030f57600080fd5b506103186109eb565b6040516102fa9190614188565b34801561033157600080fd5b5061034561034036600461419b565b610a7d565b6040516001600160a01b0390911681526020016102fa565b34801561036957600080fd5b5061037d6103783660046141d0565b610aa4565b005b34801561038b57600080fd5b5061039f61039a36600461429d565b610bbe565b6040519081526020016102fa565b3480156103b957600080fd5b506065546103d490600160801b90046001600160801b031681565b6040516001600160801b0390911681526020016102fa565b3480156103f857600080fd5b5061037d610407366004614432565b610f71565b34801561041857600080fd5b5061039f61042736600461419b565b6000908152610102602052604090206001015490565b34801561044957600080fd5b5061039f61045836600461446e565b8051602081830181018051606b8252928201919093012091525481565b34801561048157600080fd5b5061037d6104903660046144a3565b610fa2565b3480156104a157600080fd5b5061037d6104b03660046144a3565b610fc8565b3480156104c157600080fd5b5061037d6104d03660046144cf565b611046565b3480156104e157600080fd5b506102ee6104f036600461419b565b6000908152606a602052604090205460ff1690565b34801561051157600080fd5b5061037d6105203660046144a3565b611125565b34801561053157600080fd5b5061037d61121e565b34801561054657600080fd5b5061037d610555366004614432565b61127f565b34801561056657600080fd5b5061057a61057536600461419b565b61129a565b6040516102fa91906144ea565b34801561059357600080fd5b506102ee6105a236600461419b565b606a6020526000908152604090205460ff1681565b61037d6105c536600461461e565b61184f565b3480156105d657600080fd5b5061037d6105e536600461466c565b61191b565b3480156105f657600080fd5b5061039f611985565b34801561060b57600080fd5b5061037d61061a36600461446e565b611a38565b34801561062b57600080fd5b5061037d61063a36600461419b565b611a53565b34801561064b57600080fd5b5060d05460ff166102ee565b34801561066357600080fd5b5061034561067236600461419b565b611c97565b34801561068357600080fd5b50610318611cf7565b34801561069857600080fd5b5061039f600181565b3480156106ad57600080fd5b5061039f6106bc3660046144cf565b611d85565b3480156106cd57600080fd5b5061037d611e0b565b3480156106e257600080fd5b5061037d611e1f565b3480156106f757600080fd5b5061070b61070636600461419b565b611e80565b6040516102fa9a9998979695949392919061469d565b34801561072d57600080fd5b5061037d61073c3660046147b7565b61239d565b34801561074d57600080fd5b50609e546001600160a01b0316610345565b34801561076b57600080fd5b506102ee61077a3660046144a3565b6124d8565b34801561078b57600080fd5b50610318612504565b3480156107a057600080fd5b5061039f600081565b3480156107b557600080fd5b5061037d6107c4366004614823565b612513565b3480156107d557600080fd5b50606654610345906001600160a01b031681565b3480156107f557600080fd5b5061037d61080436600461485f565b61251e565b34801561081557600080fd5b5061037d6108243660046147b7565b612556565b34801561083557600080fd5b506065546103d4906001600160801b031681565b34801561085557600080fd5b5061031861086436600461419b565b6126ef565b34801561087557600080fd5b5061037d6108843660046144a3565b612839565b34801561089557600080fd5b5061037d6108a43660046148c7565b61285f565b3480156108b557600080fd5b5061037d6108c43660046144cf565b612a7e565b3480156108d557600080fd5b506102ee6108e4366004614a23565b6001600160a01b03918216600090815260716020908152604080832093909416825291909152205460ff1690565b34801561091e57600080fd5b506102ee61092d36600461446e565b805160208183018101805160698252928201919093012091525460ff1681565b34801561095957600080fd5b5061039f600080516020614f4183398151915281565b34801561097b57600080fd5b5061037d61098a3660046144cf565b612aa8565b34801561099b57600080fd5b50610318604051806040016040528060058152602001640312e322e360dc1b81525081565b60006001600160e01b03198216637965db0b60e01b14806109e557506109e582612b1e565b92915050565b6060606c80546109fa90614a4d565b80601f0160208091040260200160405190810160405280929190818152602001828054610a2690614a4d565b8015610a735780601f10610a4857610100808354040283529160200191610a73565b820191906000526020600020905b815481529060010190602001808311610a5657829003601f168201915b5050505050905090565b6000610a8882612b6e565b506000908152607060205260409020546001600160a01b031690565b6000610aaf82611c97565b9050806001600160a01b0316836001600160a01b031603610b215760405162461bcd60e51b815260206004820152602160248201527f4552433732313a20617070726f76616c20746f2063757272656e74206f776e656044820152603960f91b60648201526084015b60405180910390fd5b336001600160a01b0382161480610b3d5750610b3d81336108e4565b610baf5760405162461bcd60e51b815260206004820152603d60248201527f4552433732313a20617070726f76652063616c6c6572206973206e6f7420746f60448201527f6b656e206f776e6572206f7220617070726f76656420666f7220616c6c0000006064820152608401610b18565b610bb98383612bbe565b505050565b6000610bd8600080516020614f41833981519152336124d8565b80610bfc575033610bf1609e546001600160a01b031690565b6001600160a01b0316145b610c185760405162461bcd60e51b8152600401610b1890614a87565b610c20612c2c565b8a51600003610c715760405162461bcd60e51b815260206004820152601960248201527f50726f6a65637449642063616e6e6f7420626520656d707479000000000000006044820152606401610b18565b60698b604051610c819190614abe565b9081526040519081900360200190205460ff1615610cda5760405162461bcd60e51b815260206004820152601660248201527550726f6a65637420616c72656164792065786973747360501b6044820152606401610b18565b600160698c604051610cec9190614abe565b90815260408051918290036020908101909220805493151560ff19948516179055606580546001600160801b038082166001908101808316600160801b94859004841683019093169093026fffffffffffffffffffffffffffffffff1916919091179092556000818152606a909452919092208054909316909117909155610d748d82612c72565b60008181526068602090815260409091208d51610d93928f019061402e565b5060008181526068602090815260409091208c51610db9926001909201918e019061402e565b5060008181526068602090815260409091208b51610ddf926002909201918d019061402e565b5060008181526068602090815260409091208a51610e05926003909201918c019061402e565b5060008181526068602090815260409091208951610e2b926004909201918b019061402e565b5060008181526068602090815260409091208851610e51926005909201918a019061402e565b5060008181526068602090815260409091208751610e779260069092019189019061402e565b5060008181526068602090815260409091208651610e9d9260079092019188019061402e565b5060008181526068602090815260409091208551610ec39260089092019187019061402e565b506000818152606860205260409081902060090180546001600160a01b0386166001600160a01b0319909116179055517fb6c14e0fdc5fdfaea1cc5671e7ec0cee1c83aafdee14c1811fc2837ad4687a8690610f36908f9084906001600160a01b03929092168252602082015260400190565b60405180910390a180606b8d604051610f4f9190614abe565b9081526040519081900360200190205590505b9b9a5050505050505050505050565b610f7b3382612ddf565b610f975760405162461bcd60e51b8152600401610b1890614ada565b610bb9838383612e5d565b60008281526101026020526040902060010154610fbe81612fc1565b610bb98383612fcb565b6001600160a01b03811633146110385760405162461bcd60e51b815260206004820152602f60248201527f416363657373436f6e74726f6c3a2063616e206f6e6c792072656e6f756e636560448201526e103937b632b9903337b91039b2b63360891b6064820152608401610b18565b6110428282613052565b5050565b6001600160a01b037f000000000000000000000000000000000000000000000000000000000000000016300361108e5760405162461bcd60e51b8152600401610b1890614b27565b7f00000000000000000000000000000000000000000000000000000000000000006001600160a01b03166110d7600080516020614f21833981519152546001600160a01b031690565b6001600160a01b0316146110fd5760405162461bcd60e51b8152600401610b1890614b73565b611106816130ba565b60408051600080825260208201909252611122918391906130c2565b50565b61113d600080516020614f41833981519152336124d8565b80611161575033611156609e546001600160a01b031690565b6001600160a01b0316145b61117d5760405162461bcd60e51b8152600401610b1890614a87565b611185612c2c565b61118e8261322d565b6111aa5760405162461bcd60e51b8152600401610b1890614bbf565b60008281526068602090815260409182902060090180546001600160a01b031981166001600160a01b0386811691821790935584519290911680835292820152909184917ff585da3452445cd066854ce9c4f3306e8deddd1d571e840b1dddaa1f3d4de53c910160405180910390a2505050565b6066546001600160a01b031661123c609e546001600160a01b031690565b6001600160a01b03821633148061125b57506001600160a01b03811633145b6112775760405162461bcd60e51b8152600401610b1890614bef565b61104261324a565b610bb98383836040518060200160405280600081525061251e565b6112f960405180610140016040528060608152602001606081526020016060815260200160608152602001606081526020016060815260200160608152602001606081526020016060815260200160006001600160a01b031681525090565b600082815260686020526040908190208151610140810190925280548290829061132290614a4d565b80601f016020809104026020016040519081016040528092919081815260200182805461134e90614a4d565b801561139b5780601f106113705761010080835404028352916020019161139b565b820191906000526020600020905b81548152906001019060200180831161137e57829003601f168201915b505050505081526020016001820180546113b490614a4d565b80601f01602080910402602001604051908101604052809291908181526020018280546113e090614a4d565b801561142d5780601f106114025761010080835404028352916020019161142d565b820191906000526020600020905b81548152906001019060200180831161141057829003601f168201915b5050505050815260200160028201805461144690614a4d565b80601f016020809104026020016040519081016040528092919081815260200182805461147290614a4d565b80156114bf5780601f10611494576101008083540402835291602001916114bf565b820191906000526020600020905b8154815290600101906020018083116114a257829003601f168201915b505050505081526020016003820180546114d890614a4d565b80601f016020809104026020016040519081016040528092919081815260200182805461150490614a4d565b80156115515780601f1061152657610100808354040283529160200191611551565b820191906000526020600020905b81548152906001019060200180831161153457829003601f168201915b5050505050815260200160048201805461156a90614a4d565b80601f016020809104026020016040519081016040528092919081815260200182805461159690614a4d565b80156115e35780601f106115b8576101008083540402835291602001916115e3565b820191906000526020600020905b8154815290600101906020018083116115c657829003601f168201915b505050505081526020016005820180546115fc90614a4d565b80601f016020809104026020016040519081016040528092919081815260200182805461162890614a4d565b80156116755780601f1061164a57610100808354040283529160200191611675565b820191906000526020600020905b81548152906001019060200180831161165857829003601f168201915b5050505050815260200160068201805461168e90614a4d565b80601f01602080910402602001604051908101604052809291908181526020018280546116ba90614a4d565b80156117075780601f106116dc57610100808354040283529160200191611707565b820191906000526020600020905b8154815290600101906020018083116116ea57829003601f168201915b5050505050815260200160078201805461172090614a4d565b80601f016020809104026020016040519081016040528092919081815260200182805461174c90614a4d565b80156117995780601f1061176e57610100808354040283529160200191611799565b820191906000526020600020905b81548152906001019060200180831161177c57829003601f168201915b505050505081526020016008820180546117b290614a4d565b80601f01602080910402602001604051908101604052809291908181526020018280546117de90614a4d565b801561182b5780601f106118005761010080835404028352916020019161182b565b820191906000526020600020905b81548152906001019060200180831161180e57829003601f168201915b5050509183525050600991909101546001600160a01b031660209091015292915050565b6001600160a01b037f00000000000000000000000000000000000000000000000000000000000000001630036118975760405162461bcd60e51b8152600401610b1890614b27565b7f00000000000000000000000000000000000000000000000000000000000000006001600160a01b03166118e0600080516020614f21833981519152546001600160a01b031690565b6001600160a01b0316146119065760405162461bcd60e51b8152600401610b1890614b73565b61190f826130ba565b611042828260016130c2565b611933600080516020614f41833981519152336124d8565b8061195757503361194c609e546001600160a01b031690565b6001600160a01b0316145b6119735760405162461bcd60e51b8152600401610b1890614a87565b61197b612c2c565b611042828261329c565b6000306001600160a01b037f00000000000000000000000000000000000000000000000000000000000000001614611a255760405162461bcd60e51b815260206004820152603860248201527f555550535570677261646561626c653a206d757374206e6f742062652063616c60448201527f6c6564207468726f7567682064656c656761746563616c6c00000000000000006064820152608401610b18565b50600080516020614f2183398151915290565b611a406134e3565b805161104290606790602084019061402e565b611a6b600080516020614f41833981519152336124d8565b80611a8f575033611a84609e546001600160a01b031690565b6001600160a01b0316145b611aab5760405162461bcd60e51b8152600401610b1890614a87565b611ab3612c2c565b60008181526068602052604081208054611acc90614a4d565b80601f0160208091040260200160405190810160405280929190818152602001828054611af890614a4d565b8015611b455780601f10611b1a57610100808354040283529160200191611b45565b820191906000526020600020905b815481529060010190602001808311611b2857829003601f168201915b505050505090506000606982604051611b5e9190614abe565b908152604051908190036020018120805492151560ff1990931692909217909155606b90611b8d908390614abe565b90815260408051602092819003830190206000908190558481526068909252812090611bb982826140b2565b611bc76001830160006140b2565b611bd56002830160006140b2565b611be36003830160006140b2565b611bf16004830160006140b2565b611bff6005830160006140b2565b611c0d6006830160006140b2565b611c1b6007830160006140b2565b611c296008830160006140b2565b5060090180546001600160a01b031916905560658054600160801b90046001600160801b0316906010611c5b83614c4a565b82546001600160801b039182166101009390930a928302919092021990911617905550506000908152606a60205260409020805460ff19169055565b6000818152606e60205260408120546001600160a01b0316806109e55760405162461bcd60e51b8152602060048201526018602482015277115490cdcc8c4e881a5b9d985b1a59081d1bdad95b88125160421b6044820152606401610b18565b60678054611d0490614a4d565b80601f0160208091040260200160405190810160405280929190818152602001828054611d3090614a4d565b8015611d7d5780601f10611d5257610100808354040283529160200191611d7d565b820191906000526020600020905b815481529060010190602001808311611d6057829003601f168201915b505050505081565b60006001600160a01b038216611def5760405162461bcd60e51b815260206004820152602960248201527f4552433732313a2061646472657373207a65726f206973206e6f7420612076616044820152683634b21037bbb732b960b91b6064820152608401610b18565b506001600160a01b03166000908152606f602052604090205490565b611e136134e3565b611e1d600061353d565b565b6066546001600160a01b0316611e3d609e546001600160a01b031690565b6001600160a01b038216331480611e5c57506001600160a01b03811633145b611e785760405162461bcd60e51b8152600401610b1890614bef565b61104261358f565b606860205260009081526040902080548190611e9b90614a4d565b80601f0160208091040260200160405190810160405280929190818152602001828054611ec790614a4d565b8015611f145780601f10611ee957610100808354040283529160200191611f14565b820191906000526020600020905b815481529060010190602001808311611ef757829003601f168201915b505050505090806001018054611f2990614a4d565b80601f0160208091040260200160405190810160405280929190818152602001828054611f5590614a4d565b8015611fa25780601f10611f7757610100808354040283529160200191611fa2565b820191906000526020600020905b815481529060010190602001808311611f8557829003601f168201915b505050505090806002018054611fb790614a4d565b80601f0160208091040260200160405190810160405280929190818152602001828054611fe390614a4d565b80156120305780601f1061200557610100808354040283529160200191612030565b820191906000526020600020905b81548152906001019060200180831161201357829003601f168201915b50505050509080600301805461204590614a4d565b80601f016020809104026020016040519081016040528092919081815260200182805461207190614a4d565b80156120be5780601f10612093576101008083540402835291602001916120be565b820191906000526020600020905b8154815290600101906020018083116120a157829003601f168201915b5050505050908060040180546120d390614a4d565b80601f01602080910402602001604051908101604052809291908181526020018280546120ff90614a4d565b801561214c5780601f106121215761010080835404028352916020019161214c565b820191906000526020600020905b81548152906001019060200180831161212f57829003601f168201915b50505050509080600501805461216190614a4d565b80601f016020809104026020016040519081016040528092919081815260200182805461218d90614a4d565b80156121da5780601f106121af576101008083540402835291602001916121da565b820191906000526020600020905b8154815290600101906020018083116121bd57829003601f168201915b5050505050908060060180546121ef90614a4d565b80601f016020809104026020016040519081016040528092919081815260200182805461221b90614a4d565b80156122685780601f1061223d57610100808354040283529160200191612268565b820191906000526020600020905b81548152906001019060200180831161224b57829003601f168201915b50505050509080600701805461227d90614a4d565b80601f01602080910402602001604051908101604052809291908181526020018280546122a990614a4d565b80156122f65780601f106122cb576101008083540402835291602001916122f6565b820191906000526020600020905b8154815290600101906020018083116122d957829003601f168201915b50505050509080600801805461230b90614a4d565b80601f016020809104026020016040519081016040528092919081815260200182805461233790614a4d565b80156123845780601f1061235957610100808354040283529160200191612384565b820191906000526020600020905b81548152906001019060200180831161236757829003601f168201915b505050600990930154919250506001600160a01b03168a565b6123b5600080516020614f41833981519152336124d8565b806123d95750336123ce609e546001600160a01b031690565b6001600160a01b0316145b6123f55760405162461bcd60e51b8152600401610b1890614a87565b6123fd612c2c565b604080518082019091526002815261189960f11b602082015283908282146124385760405162461bcd60e51b8152600401610b189190614188565b5060005b818110156124d0576124be86868381811061245957612459614c6d565b9050602002013585858481811061247257612472614c6d565b90506020028101906124849190614c83565b8080601f01602080910402602001604051908101604052809392919081815260200183838082843760009201919091525061329c92505050565b806124c881614cca565b91505061243c565b505050505050565b6000918252610102602090815260408084206001600160a01b0393909316845291905290205460ff1690565b6060606d80546109fa90614a4d565b6110423383836135cc565b6125283383612ddf565b6125445760405162461bcd60e51b8152600401610b1890614ada565b6125508484848461369a565b50505050565b600054610100900460ff16158080156125765750600054600160ff909116105b806125905750303b158015612590575060005460ff166001145b6125f35760405162461bcd60e51b815260206004820152602e60248201527f496e697469616c697a61626c653a20636f6e747261637420697320616c72656160448201526d191e481a5b9a5d1a585b1a5e995960921b6064820152608401610b18565b6000805460ff191660011790558015612616576000805461ff0019166101001790555b61261e6136cd565b61267e6040518060400160405280602081526020017f546f7563616e2050726f746f636f6c3a20436172626f6e2050726f6a65637473815250604051806040016040528060098152602001680544f5543414e2d43560bc1b8152506136f4565b612686613742565b61268e613772565b61269a858585856137a5565b6126a26136cd565b80156126e8576000805461ff0019169055604051600181527f7f26b83ff96e1f2b6a682f133852f6798a09c465da95921460cefb38474024989060200160405180910390a15b5050505050565b60606126fa8261322d565b61273e5760405162461bcd60e51b8152602060048201526015602482015274139bdb8b595e1a5cdd195b9d081d1bdad95b881a59605a1b6044820152606401610b18565b6000828152606860205260408120600801805461275a90614a4d565b80601f016020809104026020016040519081016040528092919081815260200182805461278690614a4d565b80156127d35780601f106127a8576101008083540402835291602001916127d3565b820191906000526020600020905b8154815290600101906020018083116127b657829003601f168201915b5050505050905060006127e46138c0565b905080516000036127f6575092915050565b815115612828578082604051602001612810929190614ce3565b60405160208183030381529060405292505050919050565b612831846138cf565b949350505050565b6000828152610102602052604090206001015461285581612fc1565b610bb98383613052565b612877600080516020614f41833981519152336124d8565b8061289b575033612890609e546001600160a01b031690565b6001600160a01b0316145b6128b75760405162461bcd60e51b8152600401610b1890614a87565b6128bf612c2c565b6128c88a61322d565b6128e45760405162461bcd60e51b8152600401610b1890614bbf565b60008a81526068602090815260409091208a51612909926001909201918c019061402e565b5060008a8152606860209081526040909120895161292f926002909201918b019061402e565b5060008a81526068602090815260409091208851612955926003909201918a019061402e565b5060008a8152606860209081526040909120875161297b9260049092019189019061402e565b5060008a815260686020908152604090912086516129a19260059092019188019061402e565b5060008a815260686020908152604090912085516129c79260069092019187019061402e565b5060008a815260686020908152604090912084516129ed9260079092019186019061402e565b5060008a81526068602090815260409091208351612a139260089092019185019061402e565b5060008a81526068602090815260409182902060090180546001600160a01b0319166001600160a01b03851617905590518b81527fda124279e8f8c56d142d1f8d79ba312ac54eb788b54f07b8040ff61eaf211009910160405180910390a150505050505050505050565b612a866134e3565b606680546001600160a01b0319166001600160a01b0392909216919091179055565b612ab06134e3565b6001600160a01b038116612b155760405162461bcd60e51b815260206004820152602660248201527f4f776e61626c653a206e6577206f776e657220697320746865207a65726f206160448201526564647265737360d01b6064820152608401610b18565b6111228161353d565b60006001600160e01b031982166380ac58cd60e01b1480612b4f57506001600160e01b03198216635b5e139f60e01b145b806109e557506301ffc9a760e01b6001600160e01b03198316146109e5565b612b778161322d565b6111225760405162461bcd60e51b8152602060048201526018602482015277115490cdcc8c4e881a5b9d985b1a59081d1bdad95b88125160421b6044820152606401610b18565b600081815260706020526040902080546001600160a01b0319166001600160a01b0384169081179091558190612bf382611c97565b6001600160a01b03167f8c5be1e5ebec7d5bd14f71427d1e84f3dd0314c0f7b2291e5b200ac8c7c3b92560405160405180910390a45050565b60d05460ff1615611e1d5760405162461bcd60e51b815260206004820152601060248201526f14185d5cd8589b194e881c185d5cd95960821b6044820152606401610b18565b6001600160a01b038216612cc85760405162461bcd60e51b815260206004820181905260248201527f4552433732313a206d696e7420746f20746865207a65726f20616464726573736044820152606401610b18565b612cd18161322d565b15612d1e5760405162461bcd60e51b815260206004820152601c60248201527f4552433732313a20746f6b656e20616c7265616479206d696e746564000000006044820152606401610b18565b612d278161322d565b15612d745760405162461bcd60e51b815260206004820152601c60248201527f4552433732313a20746f6b656e20616c7265616479206d696e746564000000006044820152606401610b18565b6001600160a01b0382166000818152606f6020908152604080832080546001019055848352606e90915280822080546001600160a01b0319168417905551839291907fddf252ad1be2c89b69c2b068fc378daa952ba7f163c4a11628f55a4df523b3ef908290a45050565b600080612deb83611c97565b9050806001600160a01b0316846001600160a01b03161480612e3257506001600160a01b0380821660009081526071602090815260408083209388168352929052205460ff165b806128315750836001600160a01b0316612e4b84610a7d565b6001600160a01b031614949350505050565b826001600160a01b0316612e7082611c97565b6001600160a01b031614612e965760405162461bcd60e51b8152600401610b1890614d12565b6001600160a01b038216612ef85760405162461bcd60e51b8152602060048201526024808201527f4552433732313a207472616e7366657220746f20746865207a65726f206164646044820152637265737360e01b6064820152608401610b18565b826001600160a01b0316612f0b82611c97565b6001600160a01b031614612f315760405162461bcd60e51b8152600401610b1890614d12565b600081815260706020908152604080832080546001600160a01b03199081169091556001600160a01b03878116808652606f8552838620805460001901905590871680865283862080546001019055868652606e90945282852080549092168417909155905184937fddf252ad1be2c89b69c2b068fc378daa952ba7f163c4a11628f55a4df523b3ef91a4505050565b6111228133613936565b612fd582826124d8565b611042576000828152610102602090815260408083206001600160a01b03851684529091529020805460ff1916600117905561300e3390565b6001600160a01b0316816001600160a01b0316837f2f8788117e7eff1d82e926ec794901d17c78024a50270940304540a733656f0d60405160405180910390a45050565b61305c82826124d8565b15611042576000828152610102602090815260408083206001600160a01b0385168085529252808320805460ff1916905551339285917ff6391f5c32d9c69d2a47ea670b442974b53935d1edc7fd64eb21e047a839171b9190a45050565b6111226134e3565b7f4910fdfa16fed3260ed0e7147f7cc6da11a60208b5b9406d12a635614ffd91435460ff16156130f557610bb98361398f565b826001600160a01b03166352d1902d6040518163ffffffff1660e01b8152600401602060405180830381865afa92505050801561314f575060408051601f3d908101601f1916820190925261314c91810190614d57565b60015b6131b25760405162461bcd60e51b815260206004820152602e60248201527f45524331393637557067726164653a206e657720696d706c656d656e7461746960448201526d6f6e206973206e6f74205555505360901b6064820152608401610b18565b600080516020614f2183398151915281146132215760405162461bcd60e51b815260206004820152602960248201527f45524331393637557067726164653a20756e737570706f727465642070726f786044820152681a58589b195555525160ba1b6064820152608401610b18565b50610bb9838383613a2b565b6000908152606e60205260409020546001600160a01b0316151590565b613252613a50565b60d0805460ff191690557f5db9ee0a495bf2e6ff9c91a7834c1ba4fdd244a5e8aa4e537bd38aeae4b073aa335b6040516001600160a01b03909116815260200160405180910390a1565b6132a58261322d565b6132c15760405162461bcd60e51b8152600401610b1890614bbf565b805115613351576069816040516132d89190614abe565b9081526040519081900360200190205460ff16156133515760405162461bcd60e51b815260206004820152603060248201527f43616e74206368616e67652063757272656e742070726f6a656374496420746f60448201526f20616e206578697374696e67206f6e6560801b6064820152608401610b18565b6000828152606860205260408120805461336a90614a4d565b80601f016020809104026020016040519081016040528092919081815260200182805461339690614a4d565b80156133e35780601f106133b8576101008083540402835291602001916133e3565b820191906000526020600020905b8154815290600101906020018083116133c657829003601f168201915b5050505050905060006069826040516133fc9190614abe565b908152604051908190036020018120805492151560ff1990931692909217909155606b9061342b908390614abe565b9081526040805160209281900383019020600090819055858152606883522083516134589285019061402e565b50600160698360405161346b9190614abe565b908152604051908190036020018120805492151560ff19909316929092179091558390606b9061349c908590614abe565b90815260405160209181900382018120929092558482527f7ece4c83f6835308c521f2fa1104412ee3c8e72879d4a3ea74f2c9a5223ac99a910160405180910390a1505050565b609e546001600160a01b03163314611e1d5760405162461bcd60e51b815260206004820181905260248201527f4f776e61626c653a2063616c6c6572206973206e6f7420746865206f776e65726044820152606401610b18565b609e80546001600160a01b038381166001600160a01b0319831681179093556040519116919082907f8be0079c531659141344cd1fd0a4f28419497f9722a3daafe3b4186f6b6457e090600090a35050565b613597612c2c565b60d0805460ff191660011790557f62e78cea01bee320cd4e420270b5ea74000d11b0c9f74754ebdbfc544b05a25861327f3390565b816001600160a01b0316836001600160a01b03160361362d5760405162461bcd60e51b815260206004820152601960248201527f4552433732313a20617070726f766520746f2063616c6c6572000000000000006044820152606401610b18565b6001600160a01b03838116600081815260716020908152604080832094871680845294825291829020805460ff191686151590811790915591519182527f17307eab39ab6107e8899845ad3d59bd9653f200f220920489ca2b5937696c31910160405180910390a3505050565b6136a5848484612e5d565b6136b184848484613a99565b6125505760405162461bcd60e51b8152600401610b1890614d70565b600054610100900460ff16611e1d5760405162461bcd60e51b8152600401610b1890614dc2565b600054610100900460ff1661371b5760405162461bcd60e51b8152600401610b1890614dc2565b815161372e90606c90602085019061402e565b508051610bb990606d90602084019061402e565b600054610100900460ff166137695760405162461bcd60e51b8152600401610b1890614dc2565b611e1d3361353d565b600054610100900460ff166137995760405162461bcd60e51b8152600401610b1890614dc2565b60d0805460ff19169055565b8281146137ec5760405162461bcd60e51b8152602060048201526015602482015274082e4e4c2f240d8cadccee8d040dad2e6dac2e8c6d605b1b6044820152606401610b18565b6137f46136cd565b6000805b8481101561387d5761384884848381811061381557613815614c6d565b9050602002013587878481811061382e5761382e614c6d565b905060200201602081019061384391906144cf565b612fcb565b600084848381811061385c5761385c614c6d565b905060200201350361386d57600191505b61387681614cca565b90506137f8565b50806126e85760405162461bcd60e51b8152602060048201526012602482015271139bc818591b5a5b881cdc1958da599a595960721b6044820152606401610b18565b6060606780546109fa90614a4d565b60606138da82612b6e565b60006138e46138c0565b90506000815111613904576040518060200160405280600081525061392f565b8061390e84613b9a565b60405160200161391f929190614ce3565b6040516020818303038152906040525b9392505050565b61394082826124d8565b6110425761394d81613c2d565b613958836020613c3f565b604051602001613969929190614e0d565b60408051601f198184030181529082905262461bcd60e51b8252610b1891600401614188565b6001600160a01b0381163b6139fc5760405162461bcd60e51b815260206004820152602d60248201527f455243313936373a206e657720696d706c656d656e746174696f6e206973206e60448201526c1bdd08184818dbdb9d1c9858dd609a1b6064820152608401610b18565b600080516020614f2183398151915280546001600160a01b0319166001600160a01b0392909216919091179055565b613a3483613ddb565b600082511180613a415750805b15610bb9576125508383613e1b565b60d05460ff16611e1d5760405162461bcd60e51b815260206004820152601460248201527314185d5cd8589b194e881b9bdd081c185d5cd95960621b6044820152606401610b18565b60006001600160a01b0384163b15613b8f57604051630a85bd0160e11b81526001600160a01b0385169063150b7a0290613add903390899088908890600401614e82565b6020604051808303816000875af1925050508015613b18575060408051601f3d908101601f19168201909252613b1591810190614eb5565b60015b613b75573d808015613b46576040519150601f19603f3d011682016040523d82523d6000602084013e613b4b565b606091505b508051600003613b6d5760405162461bcd60e51b8152600401610b1890614d70565b805181602001fd5b6001600160e01b031916630a85bd0160e11b149050612831565b506001949350505050565b60606000613ba783613e40565b600101905060008167ffffffffffffffff811115613bc757613bc76141fa565b6040519080825280601f01601f191660200182016040528015613bf1576020820181803683370190505b5090508181016020015b600019016f181899199a1a9b1b9c1cb0b131b232b360811b600a86061a8153600a8504945084613bfb57509392505050565b60606109e56001600160a01b03831660145b60606000613c4e836002614ed2565b613c59906002614ef1565b67ffffffffffffffff811115613c7157613c716141fa565b6040519080825280601f01601f191660200182016040528015613c9b576020820181803683370190505b509050600360fc1b81600081518110613cb657613cb6614c6d565b60200101906001600160f81b031916908160001a905350600f60fb1b81600181518110613ce557613ce5614c6d565b60200101906001600160f81b031916908160001a9053506000613d09846002614ed2565b613d14906001614ef1565b90505b6001811115613d8c576f181899199a1a9b1b9c1cb0b131b232b360811b85600f1660108110613d4857613d48614c6d565b1a60f81b828281518110613d5e57613d5e614c6d565b60200101906001600160f81b031916908160001a90535060049490941c93613d8581614f09565b9050613d17565b50831561392f5760405162461bcd60e51b815260206004820181905260248201527f537472696e67733a20686578206c656e67746820696e73756666696369656e746044820152606401610b18565b613de48161398f565b6040516001600160a01b038216907fbc7cd75a20ee27fd9adebab32041f755214dbc6bffa90cc0225b39da2e5c2d3b90600090a250565b606061392f8383604051806060016040528060278152602001614f6160279139613f18565b60008072184f03e93ff9f4daa797ed6e38ed64bf6a1f0160401b8310613e7f5772184f03e93ff9f4daa797ed6e38ed64bf6a1f0160401b830492506040015b6d04ee2d6d415b85acef81000000008310613eab576d04ee2d6d415b85acef8100000000830492506020015b662386f26fc100008310613ec957662386f26fc10000830492506010015b6305f5e1008310613ee1576305f5e100830492506008015b6127108310613ef557612710830492506004015b60648310613f07576064830492506002015b600a83106109e55760010192915050565b6060600080856001600160a01b031685604051613f359190614abe565b600060405180830381855af49150503d8060008114613f70576040519150601f19603f3d011682016040523d82523d6000602084013e613f75565b606091505b5091509150613f8686838387613f90565b9695505050505050565b60608315613fff578251600003613ff8576001600160a01b0385163b613ff85760405162461bcd60e51b815260206004820152601d60248201527f416464726573733a2063616c6c20746f206e6f6e2d636f6e74726163740000006044820152606401610b18565b5081612831565b61283183838151156140145781518083602001fd5b8060405162461bcd60e51b8152600401610b189190614188565b82805461403a90614a4d565b90600052602060002090601f01602090048101928261405c57600085556140a2565b82601f1061407557805160ff19168380011785556140a2565b828001600101855582156140a2579182015b828111156140a2578251825591602001919060010190614087565b506140ae9291506140e8565b5090565b5080546140be90614a4d565b6000825580601f106140ce575050565b601f01602090049060005260206000209081019061112291905b5b808211156140ae57600081556001016140e9565b6001600160e01b03198116811461112257600080fd5b60006020828403121561412557600080fd5b813561392f816140fd565b60005b8381101561414b578181015183820152602001614133565b838111156125505750506000910152565b60008151808452614174816020860160208601614130565b601f01601f19169290920160200192915050565b60208152600061392f602083018461415c565b6000602082840312156141ad57600080fd5b5035919050565b80356001600160a01b03811681146141cb57600080fd5b919050565b600080604083850312156141e357600080fd5b6141ec836141b4565b946020939093013593505050565b634e487b7160e01b600052604160045260246000fd5b600082601f83011261422157600080fd5b813567ffffffffffffffff8082111561423c5761423c6141fa565b604051601f8301601f19908116603f01168101908282118183101715614264576142646141fa565b8160405283815286602085880101111561427d57600080fd5b836020870160208301376000602085830101528094505050505092915050565b60008060008060008060008060008060006101608c8e0312156142bf57600080fd5b6142c88c6141b4565b9a5067ffffffffffffffff8060208e013511156142e457600080fd5b6142f48e60208f01358f01614210565b9a508060408e0135111561430757600080fd5b6143178e60408f01358f01614210565b99508060608e0135111561432a57600080fd5b61433a8e60608f01358f01614210565b98508060808e0135111561434d57600080fd5b61435d8e60808f01358f01614210565b97508060a08e0135111561437057600080fd5b6143808e60a08f01358f01614210565b96508060c08e0135111561439357600080fd5b6143a38e60c08f01358f01614210565b95508060e08e013511156143b657600080fd5b6143c68e60e08f01358f01614210565b9450806101008e013511156143da57600080fd5b6143eb8e6101008f01358f01614210565b9350806101208e013511156143ff57600080fd5b506144118d6101208e01358e01614210565b91506144206101408d016141b4565b90509295989b509295989b9093969950565b60008060006060848603121561444757600080fd5b614450846141b4565b925061445e602085016141b4565b9150604084013590509250925092565b60006020828403121561448057600080fd5b813567ffffffffffffffff81111561449757600080fd5b61283184828501614210565b600080604083850312156144b657600080fd5b823591506144c6602084016141b4565b90509250929050565b6000602082840312156144e157600080fd5b61392f826141b4565b602081526000825161014080602085015261450961016085018361415c565b91506020850151601f1980868503016040870152614527848361415c565b93506040870151915080868503016060870152614544848361415c565b93506060870151915080868503016080870152614561848361415c565b935060808701519150808685030160a087015261457e848361415c565b935060a08701519150808685030160c087015261459b848361415c565b935060c08701519150808685030160e08701526145b8848361415c565b935060e087015191506101008187860301818801526145d7858461415c565b9450808801519250506101208187860301818801526145f6858461415c565b94508088015192505050614614828601826001600160a01b03169052565b5090949350505050565b6000806040838503121561463157600080fd5b61463a836141b4565b9150602083013567ffffffffffffffff81111561465657600080fd5b61466285828601614210565b9150509250929050565b6000806040838503121561467f57600080fd5b82359150602083013567ffffffffffffffff81111561465657600080fd5b60006101408083526146b18184018e61415c565b905082810360208401526146c5818d61415c565b905082810360408401526146d9818c61415c565b905082810360608401526146ed818b61415c565b90508281036080840152614701818a61415c565b905082810360a0840152614715818961415c565b905082810360c0840152614729818861415c565b905082810360e084015261473d818761415c565b9050828103610100840152614752818661415c565b915050610f626101208301846001600160a01b03169052565b60008083601f84011261477d57600080fd5b50813567ffffffffffffffff81111561479557600080fd5b6020830191508360208260051b85010111156147b057600080fd5b9250929050565b600080600080604085870312156147cd57600080fd5b843567ffffffffffffffff808211156147e557600080fd5b6147f18883890161476b565b9096509450602087013591508082111561480a57600080fd5b506148178782880161476b565b95989497509550505050565b6000806040838503121561483657600080fd5b61483f836141b4565b91506020830135801515811461485457600080fd5b809150509250929050565b6000806000806080858703121561487557600080fd5b61487e856141b4565b935061488c602086016141b4565b925060408501359150606085013567ffffffffffffffff8111156148af57600080fd5b6148bb87828801614210565b91505092959194509250565b6000806000806000806000806000806101408b8d0312156148e757600080fd5b8a35995060208b013567ffffffffffffffff8082111561490657600080fd5b6149128e838f01614210565b9a5060408d013591508082111561492857600080fd5b6149348e838f01614210565b995060608d013591508082111561494a57600080fd5b6149568e838f01614210565b985060808d013591508082111561496c57600080fd5b6149788e838f01614210565b975060a08d013591508082111561498e57600080fd5b61499a8e838f01614210565b965060c08d01359150808211156149b057600080fd5b6149bc8e838f01614210565b955060e08d01359150808211156149d257600080fd5b6149de8e838f01614210565b94506101008d01359150808211156149f557600080fd5b50614a028d828e01614210565b925050614a126101208c016141b4565b90509295989b9194979a5092959850565b60008060408385031215614a3657600080fd5b614a3f836141b4565b91506144c6602084016141b4565b600181811c90821680614a6157607f821691505b602082108103614a8157634e487b7160e01b600052602260045260246000fd5b50919050565b60208082526018908201527f43616c6c6572206973206e6f7420617574686f72697a65640000000000000000604082015260600190565b60008251614ad0818460208701614130565b9190910192915050565b6020808252602d908201527f4552433732313a2063616c6c6572206973206e6f7420746f6b656e206f776e6560408201526c1c881bdc88185c1c1c9bdd9959609a1b606082015260800190565b6020808252602c908201527f46756e6374696f6e206d7573742062652063616c6c6564207468726f7567682060408201526b19195b1959d85d1958d85b1b60a21b606082015260800190565b6020808252602c908201527f46756e6374696f6e206d7573742062652063616c6c6564207468726f7567682060408201526b6163746976652070726f787960a01b606082015260800190565b602080825260169082015275141c9bda9958dd081b9bdd081e595d081b5a5b9d195960521b604082015260600190565b60208082526025908201527f43616c6c6572206973206e6f74207468652072656769737472792c206e6f722060408201526437bbb732b960d91b606082015260800190565b634e487b7160e01b600052601160045260246000fd5b60006001600160801b03821680614c6357614c63614c34565b6000190192915050565b634e487b7160e01b600052603260045260246000fd5b6000808335601e19843603018112614c9a57600080fd5b83018035915067ffffffffffffffff821115614cb557600080fd5b6020019150368190038213156147b057600080fd5b600060018201614cdc57614cdc614c34565b5060010190565b60008351614cf5818460208801614130565b835190830190614d09818360208801614130565b01949350505050565b60208082526025908201527f4552433732313a207472616e736665722066726f6d20696e636f72726563742060408201526437bbb732b960d91b606082015260800190565b600060208284031215614d6957600080fd5b5051919050565b60208082526032908201527f4552433732313a207472616e7366657220746f206e6f6e20455243373231526560408201527131b2b4bb32b91034b6b83632b6b2b73a32b960711b606082015260800190565b6020808252602b908201527f496e697469616c697a61626c653a20636f6e7472616374206973206e6f74206960408201526a6e697469616c697a696e6760a81b606082015260800190565b7f416363657373436f6e74726f6c3a206163636f756e7420000000000000000000815260008351614e45816017850160208801614130565b7001034b99036b4b9b9b4b733903937b6329607d1b6017918401918201528351614e76816028840160208801614130565b01602801949350505050565b6001600160a01b0385811682528416602082015260408101839052608060608201819052600090613f869083018461415c565b600060208284031215614ec757600080fd5b815161392f816140fd565b6000816000190483118215151615614eec57614eec614c34565b500290565b60008219821115614f0457614f04614c34565b500190565b600081614f1857614f18614c34565b50600019019056fe360894a13ba1a3210667c828492db98dca3e2076cc3735a920a3ca505d382bbc241ecf16d79d0f8dbfb92cbc07fe17840425976cf0667f022fe9877caa831b08416464726573733a206c6f772d6c6576656c2064656c65676174652063616c6c206661696c6564a26469706673582212204d3a93adc7d62567f103e78b9aa6683970a0f43530ff02355224934c1eeb0b7664736f6c634300080e0033",
  "devdoc": {
    "details": "Each project can have up to n vintages, with data stored in the `CarbonProjectVintages` contract. `vintageTokenId`s are mapped to `projectTokenId`s via `pvToTokenId` in the vintage contract.",
    "kind": "dev",
    "methods": {
      "addNewProject(address,string,string,string,string,string,string,string,string,string,address)": {
        "details": "Projects can be added by data-managers"
      },
      "approve(address,uint256)": {
        "details": "See {IERC721-approve}."
      },
      "balanceOf(address)": {
        "details": "See {IERC721-balanceOf}."
      },
      "constructor": {
        "custom:oz-upgrades-unsafe-allow": "constructor"
      },
      "getApproved(uint256)": {
        "details": "See {IERC721-getApproved}."
      },
      "getProjectDataByTokenId(uint256)": {
        "details": "retrieve all data from ProjectData struct"
      },
      "getRoleAdmin(bytes32)": {
        "details": "Returns the admin role that controls `role`. See {grantRole} and {revokeRole}. To change a role's admin, use {_setRoleAdmin}."
      },
      "grantRole(bytes32,address)": {
        "details": "Grants `role` to `account`. If `account` had not been already granted `role`, emits a {RoleGranted} event. Requirements: - the caller must have ``role``'s admin role. May emit a {RoleGranted} event."
      },
      "hasRole(bytes32,address)": {
        "details": "Returns `true` if `account` has been granted `role`."
      },
      "isApprovedForAll(address,address)": {
        "details": "See {IERC721-isApprovedForAll}."
      },
      "isValidProjectTokenId(uint256)": {
        "details": "Function used by the utility function `checkProjectTokenExists`"
      },
      "name()": {
        "details": "See {IERC721Metadata-name}."
      },
      "owner()": {
        "details": "Returns the address of the current owner."
      },
      "ownerOf(uint256)": {
        "details": "See {IERC721-ownerOf}."
      },
      "pause()": {
        "details": "wraps _pause(), only Admin"
      },
      "paused()": {
        "details": "Returns true if the contract is paused, and false otherwise."
      },
      "proxiableUUID()": {
        "details": "Implementation of the ERC1822 {proxiableUUID} function. This returns the storage slot used by the implementation. It is used to validate the implementation's compatibility when performing an upgrade. IMPORTANT: A proxy pointing at a proxiable contract should not be considered proxiable itself, because this risks bricking a proxy that upgrades to it, by delegating to itself until out of gas. Thus it is critical that this function revert if invoked through a proxy. This is guaranteed by the `notDelegated` modifier."
      },
      "removeProject(uint256)": {
        "details": "Removes a project and corresponding data, sets projectTokenId invalid"
      },
      "renounceOwnership()": {
        "details": "Leaves the contract without owner. It will not be possible to call `onlyOwner` functions. Can only be called by the current owner. NOTE: Renouncing ownership will leave the contract without an owner, thereby disabling any functionality that is only available to the owner."
      },
      "renounceRole(bytes32,address)": {
        "details": "Revokes `role` from the calling account. Roles are often managed via {grantRole} and {revokeRole}: this function's purpose is to provide a mechanism for accounts to lose their privileges if they are compromised (such as when a trusted device is misplaced). If the calling account had been revoked `role`, emits a {RoleRevoked} event. Requirements: - the caller must be `account`. May emit a {RoleRevoked} event."
      },
      "revokeRole(bytes32,address)": {
        "details": "Revokes `role` from `account`. If `account` had been granted `role`, emits a {RoleRevoked} event. Requirements: - the caller must have ``role``'s admin role. May emit a {RoleRevoked} event."
      },
      "safeTransferFrom(address,address,uint256)": {
        "details": "See {IERC721-safeTransferFrom}."
      },
      "safeTransferFrom(address,address,uint256,bytes)": {
        "details": "See {IERC721-safeTransferFrom}."
      },
      "setApprovalForAll(address,bool)": {
        "details": "See {IERC721-setApprovalForAll}."
      },
      "symbol()": {
        "details": "See {IERC721Metadata-symbol}."
      },
      "tokenURI(uint256)": {
        "details": "Returns the Uniform Resource Identifier (URI) for `tokenId` token. based on the ERC721URIStorage implementation"
      },
      "transferFrom(address,address,uint256)": {
        "details": "See {IERC721-transferFrom}."
      },
      "transferOwnership(address)": {
        "details": "Transfers ownership of the contract to a new account (`newOwner`). Can only be called by the current owner."
      },
      "unpause()": {
        "details": "unpause the system, wraps _unpause(), only Admin"
      },
      "updateProject(uint256,string,string,string,string,string,string,string,string,address)": {
        "details": "Projects can be updated by data-managers"
      },
      "updateProjectId(uint256,string)": {
        "details": "Projects and their projectId's must be unique, changing them must be handled carefully",
        "params": {
          "newProjectId": "the new project id",
          "tokenId": "the token id to update"
        }
      },
      "updateProjectIds(uint256[],string[])": {
        "details": "Projects and their projectId's must be unique, changing them must be handled carefully",
        "params": {
          "newProjectIds": "the new project ids",
          "tokenIds": "the token ids to update"
        }
      },
      "upgradeTo(address)": {
        "custom:oz-upgrades-unsafe-allow-reachable": "delegatecall",
        "details": "Upgrade the implementation of the proxy to `newImplementation`. Calls {_authorizeUpgrade}. Emits an {Upgraded} event."
      },
      "upgradeToAndCall(address,bytes)": {
        "custom:oz-upgrades-unsafe-allow-reachable": "delegatecall",
        "details": "Upgrade the implementation of the proxy to `newImplementation`, and subsequently execute the function call encoded in `data`. Calls {_authorizeUpgrade}. Emits an {Upgraded} event."
      }
    },
    "stateVariables": {
      "MANAGER_ROLE": {
        "details": "All roles related to accessing this contract"
      },
      "VERSION": {
        "details": "Version-related parameters. VERSION keeps track of production releases. VERSION_RELEASE_CANDIDATE keeps track of iterations of a VERSION in our staging environment."
      }
    },
    "version": 1
  },
  "userdoc": {
    "kind": "user",
    "methods": {
      "addNewProject(address,string,string,string,string,string,string,string,string,string,address)": {
        "notice": "Adds a new carbon project along with attributes/data"
      },
      "pause()": {
        "notice": "Emergency function to disable contract's core functionality"
      },
      "updateBeneficiary(uint256,address)": {
        "notice": "Updates the project beneficiary"
      },
      "updateProject(uint256,string,string,string,string,string,string,string,string,address)": {
        "notice": "Updates and existing carbon project"
      },
      "updateProjectId(uint256,string)": {
        "notice": "Updates a token to a new project id"
      },
      "updateProjectIds(uint256[],string[])": {
        "notice": "Updates multiple tokens to a new project it"
      }
    },
    "notice": "The CarbonProjects contract stores carbon project-specific data The data is stored in structs via ERC721 tokens Most contracts in the protocol query the data stored here The attributes in the Project-NFTs are constant over all vintages of the project",
    "version": 1
  },
  "storageLayout": {
    "storage": [
      {
        "astId": 2373,
        "contract": "contracts/CarbonProjects.sol:CarbonProjects",
        "label": "_initialized",
        "offset": 0,
        "slot": "0",
        "type": "t_uint8"
      },
      {
        "astId": 2376,
        "contract": "contracts/CarbonProjects.sol:CarbonProjects",
        "label": "_initializing",
        "offset": 1,
        "slot": "0",
        "type": "t_bool"
      },
      {
        "astId": 7515,
        "contract": "contracts/CarbonProjects.sol:CarbonProjects",
        "label": "__gap",
        "offset": 0,
        "slot": "1",
        "type": "t_array(t_uint256)50_storage"
      },
      {
        "astId": 7899,
        "contract": "contracts/CarbonProjects.sol:CarbonProjects",
        "label": "__gap",
        "offset": 0,
        "slot": "51",
        "type": "t_array(t_uint256)50_storage"
      },
      {
        "astId": 19557,
        "contract": "contracts/CarbonProjects.sol:CarbonProjects",
        "label": "projectTokenCounter",
        "offset": 0,
        "slot": "101",
        "type": "t_uint128"
      },
      {
        "astId": 19559,
        "contract": "contracts/CarbonProjects.sol:CarbonProjects",
        "label": "totalSupply",
        "offset": 16,
        "slot": "101",
        "type": "t_uint128"
      },
      {
        "astId": 19561,
        "contract": "contracts/CarbonProjects.sol:CarbonProjects",
        "label": "contractRegistry",
        "offset": 0,
        "slot": "102",
        "type": "t_address"
      },
      {
        "astId": 19563,
        "contract": "contracts/CarbonProjects.sol:CarbonProjects",
        "label": "baseURI",
        "offset": 0,
        "slot": "103",
        "type": "t_string_storage"
      },
      {
        "astId": 19569,
        "contract": "contracts/CarbonProjects.sol:CarbonProjects",
        "label": "projectData",
        "offset": 0,
        "slot": "104",
        "type": "t_mapping(t_uint256,t_struct(ProjectData)18216_storage)"
      },
      {
        "astId": 19574,
        "contract": "contracts/CarbonProjects.sol:CarbonProjects",
        "label": "projectIds",
        "offset": 0,
        "slot": "105",
        "type": "t_mapping(t_string_memory_ptr,t_bool)"
      },
      {
        "astId": 19579,
        "contract": "contracts/CarbonProjects.sol:CarbonProjects",
        "label": "validProjectTokenIds",
        "offset": 0,
        "slot": "106",
        "type": "t_mapping(t_uint256,t_bool)"
      },
      {
        "astId": 19584,
        "contract": "contracts/CarbonProjects.sol:CarbonProjects",
        "label": "pidToTokenId",
        "offset": 0,
        "slot": "107",
        "type": "t_mapping(t_string_memory_ptr,t_uint256)"
      },
      {
        "astId": 5645,
        "contract": "contracts/CarbonProjects.sol:CarbonProjects",
        "label": "_name",
        "offset": 0,
        "slot": "108",
        "type": "t_string_storage"
      },
      {
        "astId": 5647,
        "contract": "contracts/CarbonProjects.sol:CarbonProjects",
        "label": "_symbol",
        "offset": 0,
        "slot": "109",
        "type": "t_string_storage"
      },
      {
        "astId": 5651,
        "contract": "contracts/CarbonProjects.sol:CarbonProjects",
        "label": "_owners",
        "offset": 0,
        "slot": "110",
        "type": "t_mapping(t_uint256,t_address)"
      },
      {
        "astId": 5655,
        "contract": "contracts/CarbonProjects.sol:CarbonProjects",
        "label": "_balances",
        "offset": 0,
        "slot": "111",
        "type": "t_mapping(t_address,t_uint256)"
      },
      {
        "astId": 5659,
        "contract": "contracts/CarbonProjects.sol:CarbonProjects",
        "label": "_tokenApprovals",
        "offset": 0,
        "slot": "112",
        "type": "t_mapping(t_uint256,t_address)"
      },
      {
        "astId": 5665,
        "contract": "contracts/CarbonProjects.sol:CarbonProjects",
        "label": "_operatorApprovals",
        "offset": 0,
        "slot": "113",
        "type": "t_mapping(t_address,t_mapping(t_address,t_bool))"
      },
      {
        "astId": 6567,
        "contract": "contracts/CarbonProjects.sol:CarbonProjects",
        "label": "__gap",
        "offset": 0,
        "slot": "114",
        "type": "t_array(t_uint256)44_storage"
      },
      {
        "astId": 1879,
        "contract": "contracts/CarbonProjects.sol:CarbonProjects",
        "label": "_owner",
        "offset": 0,
        "slot": "158",
        "type": "t_address"
      },
      {
        "astId": 1999,
        "contract": "contracts/CarbonProjects.sol:CarbonProjects",
        "label": "__gap",
        "offset": 0,
        "slot": "159",
        "type": "t_array(t_uint256)49_storage"
      },
      {
        "astId": 2694,
        "contract": "contracts/CarbonProjects.sol:CarbonProjects",
        "label": "_paused",
        "offset": 0,
        "slot": "208",
        "type": "t_bool"
      },
      {
        "astId": 2799,
        "contract": "contracts/CarbonProjects.sol:CarbonProjects",
        "label": "__gap",
        "offset": 0,
        "slot": "209",
        "type": "t_array(t_uint256)49_storage"
      },
      {
        "astId": 1486,
        "contract": "contracts/CarbonProjects.sol:CarbonProjects",
        "label": "_roles",
        "offset": 0,
        "slot": "258",
        "type": "t_mapping(t_bytes32,t_struct(RoleData)1481_storage)"
      },
      {
        "astId": 1793,
        "contract": "contracts/CarbonProjects.sol:CarbonProjects",
        "label": "__gap",
        "offset": 0,
        "slot": "259",
        "type": "t_array(t_uint256)49_storage"
      },
      {
        "astId": 2355,
        "contract": "contracts/CarbonProjects.sol:CarbonProjects",
        "label": "__gap",
        "offset": 0,
        "slot": "308",
        "type": "t_array(t_uint256)50_storage"
      },
      {
        "astId": 2671,
        "contract": "contracts/CarbonProjects.sol:CarbonProjects",
        "label": "__gap",
        "offset": 0,
        "slot": "358",
        "type": "t_array(t_uint256)50_storage"
      }
    ],
    "types": {
      "t_address": {
        "encoding": "inplace",
        "label": "address",
        "numberOfBytes": "20"
      },
      "t_array(t_uint256)44_storage": {
        "base": "t_uint256",
        "encoding": "inplace",
        "label": "uint256[44]",
        "numberOfBytes": "1408"
      },
      "t_array(t_uint256)49_storage": {
        "base": "t_uint256",
        "encoding": "inplace",
        "label": "uint256[49]",
        "numberOfBytes": "1568"
      },
      "t_array(t_uint256)50_storage": {
        "base": "t_uint256",
        "encoding": "inplace",
        "label": "uint256[50]",
        "numberOfBytes": "1600"
      },
      "t_bool": {
        "encoding": "inplace",
        "label": "bool",
        "numberOfBytes": "1"
      },
      "t_bytes32": {
        "encoding": "inplace",
        "label": "bytes32",
        "numberOfBytes": "32"
      },
      "t_mapping(t_address,t_bool)": {
        "encoding": "mapping",
        "key": "t_address",
        "label": "mapping(address => bool)",
        "numberOfBytes": "32",
        "value": "t_bool"
      },
      "t_mapping(t_address,t_mapping(t_address,t_bool))": {
        "encoding": "mapping",
        "key": "t_address",
        "label": "mapping(address => mapping(address => bool))",
        "numberOfBytes": "32",
        "value": "t_mapping(t_address,t_bool)"
      },
      "t_mapping(t_address,t_uint256)": {
        "encoding": "mapping",
        "key": "t_address",
        "label": "mapping(address => uint256)",
        "numberOfBytes": "32",
        "value": "t_uint256"
      },
      "t_mapping(t_bytes32,t_struct(RoleData)1481_storage)": {
        "encoding": "mapping",
        "key": "t_bytes32",
        "label": "mapping(bytes32 => struct AccessControlUpgradeable.RoleData)",
        "numberOfBytes": "32",
        "value": "t_struct(RoleData)1481_storage"
      },
      "t_mapping(t_string_memory_ptr,t_bool)": {
        "encoding": "mapping",
        "key": "t_string_memory_ptr",
        "label": "mapping(string => bool)",
        "numberOfBytes": "32",
        "value": "t_bool"
      },
      "t_mapping(t_string_memory_ptr,t_uint256)": {
        "encoding": "mapping",
        "key": "t_string_memory_ptr",
        "label": "mapping(string => uint256)",
        "numberOfBytes": "32",
        "value": "t_uint256"
      },
      "t_mapping(t_uint256,t_address)": {
        "encoding": "mapping",
        "key": "t_uint256",
        "label": "mapping(uint256 => address)",
        "numberOfBytes": "32",
        "value": "t_address"
      },
      "t_mapping(t_uint256,t_bool)": {
        "encoding": "mapping",
        "key": "t_uint256",
        "label": "mapping(uint256 => bool)",
        "numberOfBytes": "32",
        "value": "t_bool"
      },
      "t_mapping(t_uint256,t_struct(ProjectData)18216_storage)": {
        "encoding": "mapping",
        "key": "t_uint256",
        "label": "mapping(uint256 => struct ProjectData)",
        "numberOfBytes": "32",
        "value": "t_struct(ProjectData)18216_storage"
      },
      "t_string_memory_ptr": {
        "encoding": "bytes",
        "label": "string",
        "numberOfBytes": "32"
      },
      "t_string_storage": {
        "encoding": "bytes",
        "label": "string",
        "numberOfBytes": "32"
      },
      "t_struct(ProjectData)18216_storage": {
        "encoding": "inplace",
        "label": "struct ProjectData",
        "members": [
          {
            "astId": 18197,
            "contract": "contracts/CarbonProjects.sol:CarbonProjects",
            "label": "projectId",
            "offset": 0,
            "slot": "0",
            "type": "t_string_storage"
          },
          {
            "astId": 18199,
            "contract": "contracts/CarbonProjects.sol:CarbonProjects",
            "label": "standard",
            "offset": 0,
            "slot": "1",
            "type": "t_string_storage"
          },
          {
            "astId": 18201,
            "contract": "contracts/CarbonProjects.sol:CarbonProjects",
            "label": "methodology",
            "offset": 0,
            "slot": "2",
            "type": "t_string_storage"
          },
          {
            "astId": 18203,
            "contract": "contracts/CarbonProjects.sol:CarbonProjects",
            "label": "region",
            "offset": 0,
            "slot": "3",
            "type": "t_string_storage"
          },
          {
            "astId": 18205,
            "contract": "contracts/CarbonProjects.sol:CarbonProjects",
            "label": "storageMethod",
            "offset": 0,
            "slot": "4",
            "type": "t_string_storage"
          },
          {
            "astId": 18207,
            "contract": "contracts/CarbonProjects.sol:CarbonProjects",
            "label": "method",
            "offset": 0,
            "slot": "5",
            "type": "t_string_storage"
          },
          {
            "astId": 18209,
            "contract": "contracts/CarbonProjects.sol:CarbonProjects",
            "label": "emissionType",
            "offset": 0,
            "slot": "6",
            "type": "t_string_storage"
          },
          {
            "astId": 18211,
            "contract": "contracts/CarbonProjects.sol:CarbonProjects",
            "label": "category",
            "offset": 0,
            "slot": "7",
            "type": "t_string_storage"
          },
          {
            "astId": 18213,
            "contract": "contracts/CarbonProjects.sol:CarbonProjects",
            "label": "uri",
            "offset": 0,
            "slot": "8",
            "type": "t_string_storage"
          },
          {
            "astId": 18215,
            "contract": "contracts/CarbonProjects.sol:CarbonProjects",
            "label": "beneficiary",
            "offset": 0,
            "slot": "9",
            "type": "t_address"
          }
        ],
        "numberOfBytes": "320"
      },
      "t_struct(RoleData)1481_storage": {
        "encoding": "inplace",
        "label": "struct AccessControlUpgradeable.RoleData",
        "members": [
          {
            "astId": 1478,
            "contract": "contracts/CarbonProjects.sol:CarbonProjects",
            "label": "members",
            "offset": 0,
            "slot": "0",
            "type": "t_mapping(t_address,t_bool)"
          },
          {
            "astId": 1480,
            "contract": "contracts/CarbonProjects.sol:CarbonProjects",
            "label": "adminRole",
            "offset": 0,
            "slot": "1",
            "type": "t_bytes32"
          }
        ],
        "numberOfBytes": "64"
      },
      "t_uint128": {
        "encoding": "inplace",
        "label": "uint128",
        "numberOfBytes": "16"
      },
      "t_uint256": {
        "encoding": "inplace",
        "label": "uint256",
        "numberOfBytes": "32"
      },
      "t_uint8": {
        "encoding": "inplace",
        "label": "uint8",
        "numberOfBytes": "1"
      }
    }
  }
}