{
  "address": "0x826061477e8490e8f6747DAaF0fb526f0753f8d1",
  "abi": [
    {
      "inputs": [
        {
          "internalType": "address",
          "name": "pool_",
          "type": "address"
        }
      ],
      "stateMutability": "nonpayable",
      "type": "constructor"
    },
    {
      "anonymous": false,
      "inputs": [
        {
          "indexed": false,
          "internalType": "address",
          "name": "previousAdmin",
          "type": "address"
        },
        {
          "indexed": false,
          "internalType": "address",
          "name": "newAdmin",
          "type": "address"
        }
      ],
      "name": "AdminChanged",
      "type": "event"
    },
    {
      "anonymous": false,
      "inputs": [
        {
          "indexed": false,
          "internalType": "uint256",
          "name": "allocation",
          "type": "uint256"
        }
      ],
      "name": "BasePoolTokenAllocationPerNFTSet",
      "type": "event"
    },
    {
      "anonymous": false,
      "inputs": [
        {
          "indexed": true,
          "internalType": "address",
          "name": "beacon",
          "type": "address"
        }
      ],
      "name": "BeaconUpgraded",
      "type": "event"
    },
    {
      "anonymous": false,
      "inputs": [
        {
          "indexed": false,
          "internalType": "address",
          "name": "erc721",
          "type": "address"
        }
      ],
      "name": "ERC721Set",
      "type": "event"
    },
    {
      "anonymous": false,
      "inputs": [
        {
          "indexed": false,
          "internalType": "uint8",
          "name": "version",
          "type": "uint8"
        }
      ],
      "name": "Initialized",
      "type": "event"
    },
    {
      "anonymous": false,
      "inputs": [
        {
          "indexed": false,
          "internalType": "address",
          "name": "account",
          "type": "address"
        }
      ],
      "name": "Paused",
      "type": "event"
    },
    {
      "anonymous": false,
      "inputs": [
        {
          "indexed": false,
          "internalType": "uint256",
          "name": "amount",
          "type": "uint256"
        }
      ],
      "name": "PoolTokenAllocated",
      "type": "event"
    },
    {
      "anonymous": false,
      "inputs": [
        {
          "indexed": false,
          "internalType": "uint256",
          "name": "amount",
          "type": "uint256"
        }
      ],
      "name": "PoolTokenWithdrawn",
      "type": "event"
    },
    {
      "anonymous": false,
      "inputs": [
        {
          "indexed": true,
          "internalType": "bytes32",
          "name": "role",
          "type": "bytes32"
        },
        {
          "indexed": true,
          "internalType": "bytes32",
          "name": "previousAdminRole",
          "type": "bytes32"
        },
        {
          "indexed": true,
          "internalType": "bytes32",
          "name": "newAdminRole",
          "type": "bytes32"
        }
      ],
      "name": "RoleAdminChanged",
      "type": "event"
    },
    {
      "anonymous": false,
      "inputs": [
        {
          "indexed": true,
          "internalType": "bytes32",
          "name": "role",
          "type": "bytes32"
        },
        {
          "indexed": true,
          "internalType": "address",
          "name": "account",
          "type": "address"
        },
        {
          "indexed": true,
          "internalType": "address",
          "name": "sender",
          "type": "address"
        }
      ],
      "name": "RoleGranted",
      "type": "event"
    },
    {
      "anonymous": false,
      "inputs": [
        {
          "indexed": true,
          "internalType": "bytes32",
          "name": "role",
          "type": "bytes32"
        },
        {
          "indexed": true,
          "internalType": "address",
          "name": "account",
          "type": "address"
        },
        {
          "indexed": true,
          "internalType": "address",
          "name": "sender",
          "type": "address"
        }
      ],
      "name": "RoleRevoked",
      "type": "event"
    },
    {
      "anonymous": false,
      "inputs": [
        {
          "indexed": false,
          "internalType": "address",
          "name": "account",
          "type": "address"
        }
      ],
      "name": "Unpaused",
      "type": "event"
    },
    {
      "anonymous": false,
      "inputs": [
        {
          "indexed": true,
          "internalType": "address",
          "name": "implementation",
          "type": "address"
        }
      ],
      "name": "Upgraded",
      "type": "event"
    },
    {
      "inputs": [],
      "name": "DEFAULT_ADMIN_ROLE",
      "outputs": [
        {
          "internalType": "bytes32",
          "name": "",
          "type": "bytes32"
        }
      ],
      "stateMutability": "view",
      "type": "function"
    },
    {
      "inputs": [],
      "name": "MANAGER_ROLE",
      "outputs": [
        {
          "internalType": "bytes32",
          "name": "",
          "type": "bytes32"
        }
      ],
      "stateMutability": "view",
      "type": "function"
    },
    {
      "inputs": [],
      "name": "PAUSER_ROLE",
      "outputs": [
        {
          "internalType": "bytes32",
          "name": "",
          "type": "bytes32"
        }
      ],
      "stateMutability": "view",
      "type": "function"
    },
    {
      "inputs": [],
      "name": "VERSION",
      "outputs": [
        {
          "internalType": "string",
          "name": "",
          "type": "string"
        }
      ],
      "stateMutability": "view",
      "type": "function"
    },
    {
      "inputs": [],
      "name": "VERSION_RELEASE_CANDIDATE",
      "outputs": [
        {
          "internalType": "uint256",
          "name": "",
          "type": "uint256"
        }
      ],
      "stateMutability": "view",
      "type": "function"
    },
    {
      "inputs": [
        {
          "internalType": "uint256",
          "name": "estimatedSupply",
          "type": "uint256"
        }
      ],
      "name": "allocatePoolToken",
      "outputs": [],
      "stateMutability": "nonpayable",
      "type": "function"
    },
    {
      "inputs": [],
      "name": "allocatedSupply",
      "outputs": [
        {
          "internalType": "uint256",
          "name": "",
          "type": "uint256"
        }
      ],
      "stateMutability": "view",
      "type": "function"
    },
    {
      "inputs": [],
      "name": "basePoolTokenAllocationPerNFT",
      "outputs": [
        {
          "internalType": "uint256",
          "name": "",
          "type": "uint256"
        }
      ],
      "stateMutability": "view",
      "type": "function"
    },
    {
      "inputs": [
        {
          "internalType": "uint256",
          "name": "tokenId",
          "type": "uint256"
        },
        {
          "internalType": "uint256",
          "name": "amount",
          "type": "uint256"
        }
      ],
      "name": "embed",
      "outputs": [],
      "stateMutability": "nonpayable",
      "type": "function"
    },
    {
      "inputs": [],
      "name": "erc721",
      "outputs": [
        {
          "internalType": "contract IERC721",
          "name": "",
          "type": "address"
        }
      ],
      "stateMutability": "view",
      "type": "function"
    },
    {
      "inputs": [
        {
          "internalType": "bytes32",
          "name": "role",
          "type": "bytes32"
        }
      ],
      "name": "getRoleAdmin",
      "outputs": [
        {
          "internalType": "bytes32",
          "name": "",
          "type": "bytes32"
        }
      ],
      "stateMutability": "view",
      "type": "function"
    },
    {
      "inputs": [
        {
          "internalType": "bytes32",
          "name": "role",
          "type": "bytes32"
        },
        {
          "internalType": "address",
          "name": "account",
          "type": "address"
        }
      ],
      "name": "grantRole",
      "outputs": [],
      "stateMutability": "nonpayable",
      "type": "function"
    },
    {
      "inputs": [
        {
          "internalType": "bytes32",
          "name": "role",
          "type": "bytes32"
        },
        {
          "internalType": "address",
          "name": "account",
          "type": "address"
        }
      ],
      "name": "hasRole",
      "outputs": [
        {
          "internalType": "bool",
          "name": "",
          "type": "bool"
        }
      ],
      "stateMutability": "view",
      "type": "function"
    },
    {
      "inputs": [
        {
          "internalType": "uint256",
          "name": "initialPoolTokenAllocation_",
          "type": "uint256"
        },
        {
          "internalType": "address",
          "name": "erc721_",
          "type": "address"
        },
        {
          "internalType": "address[]",
          "name": "accounts",
          "type": "address[]"
        },
        {
          "internalType": "bytes32[]",
          "name": "roles",
          "type": "bytes32[]"
        }
      ],
      "name": "initialize",
      "outputs": [],
      "stateMutability": "nonpayable",
      "type": "function"
    },
    {
      "inputs": [],
      "name": "pause",
      "outputs": [],
      "stateMutability": "nonpayable",
      "type": "function"
    },
    {
      "inputs": [],
      "name": "paused",
      "outputs": [
        {
          "internalType": "bool",
          "name": "",
          "type": "bool"
        }
      ],
      "stateMutability": "view",
      "type": "function"
    },
    {
      "inputs": [],
      "name": "pool",
      "outputs": [
        {
          "internalType": "contract IERC20",
          "name": "",
          "type": "address"
        }
      ],
      "stateMutability": "view",
      "type": "function"
    },
    {
      "inputs": [],
      "name": "proxiableUUID",
      "outputs": [
        {
          "internalType": "bytes32",
          "name": "",
          "type": "bytes32"
        }
      ],
      "stateMutability": "view",
      "type": "function"
    },
    {
      "inputs": [
        {
          "internalType": "uint256",
          "name": "estimatedSupply",
          "type": "uint256"
        }
      ],
      "name": "quoteAllocatePoolTokenAmount",
      "outputs": [
        {
          "internalType": "uint256",
          "name": "poolTokenAmount",
          "type": "uint256"
        },
        {
          "internalType": "bool",
          "name": "isSufficientBalance",
          "type": "bool"
        }
      ],
      "stateMutability": "view",
      "type": "function"
    },
    {
      "inputs": [
        {
          "internalType": "bytes32",
          "name": "role",
          "type": "bytes32"
        },
        {
          "internalType": "address",
          "name": "account",
          "type": "address"
        }
      ],
      "name": "renounceRole",
      "outputs": [],
      "stateMutability": "nonpayable",
      "type": "function"
    },
    {
      "inputs": [
        {
          "internalType": "bytes32",
          "name": "role",
          "type": "bytes32"
        },
        {
          "internalType": "address",
          "name": "account",
          "type": "address"
        }
      ],
      "name": "revokeRole",
      "outputs": [],
      "stateMutability": "nonpayable",
      "type": "function"
    },
    {
      "inputs": [
        {
          "internalType": "uint256",
          "name": "allocation_",
          "type": "uint256"
        }
      ],
      "name": "setBasePoolTokenAllocationPerNFT",
      "outputs": [],
      "stateMutability": "nonpayable",
      "type": "function"
    },
    {
      "inputs": [
        {
          "internalType": "address",
          "name": "erc721_",
          "type": "address"
        }
      ],
      "name": "setErc721",
      "outputs": [],
      "stateMutability": "nonpayable",
      "type": "function"
    },
    {
      "inputs": [
        {
          "internalType": "bytes4",
          "name": "interfaceId",
          "type": "bytes4"
        }
      ],
      "name": "supportsInterface",
      "outputs": [
        {
          "internalType": "bool",
          "name": "",
          "type": "bool"
        }
      ],
      "stateMutability": "view",
      "type": "function"
    },
    {
      "inputs": [
        {
          "internalType": "uint256",
          "name": "tokenId",
          "type": "uint256"
        }
      ],
      "name": "tokenIdBalance",
      "outputs": [
        {
          "internalType": "uint256",
          "name": "balance",
          "type": "uint256"
        }
      ],
      "stateMutability": "view",
      "type": "function"
    },
    {
      "inputs": [],
      "name": "unpause",
      "outputs": [],
      "stateMutability": "nonpayable",
      "type": "function"
    },
    {
      "inputs": [
        {
          "internalType": "address",
          "name": "newImplementation",
          "type": "address"
        }
      ],
      "name": "upgradeTo",
      "outputs": [],
      "stateMutability": "nonpayable",
      "type": "function"
    },
    {
      "inputs": [
        {
          "internalType": "address",
          "name": "newImplementation",
          "type": "address"
        },
        {
          "internalType": "bytes",
          "name": "data",
          "type": "bytes"
        }
      ],
      "name": "upgradeToAndCall",
      "outputs": [],
      "stateMutability": "payable",
      "type": "function"
    },
    {
      "inputs": [
        {
          "internalType": "uint256",
          "name": "supplyToWithdraw",
          "type": "uint256"
        }
      ],
      "name": "withdrawPoolToken",
      "outputs": [],
      "stateMutability": "nonpayable",
      "type": "function"
    }
  ],
  "numDeployments": 1,
  "solcInputHash": "21ae5f70988e66da4bff33b9b6a2fdaf",
  "bytecode": "0x60c0604052306080523480156200001557600080fd5b506040516200245f3803806200245f833981016040819052620000389162000167565b806001600160a01b0381166200008a5760405162461bcd60e51b8152602060048201526012602482015271456d70747920706f6f6c206164647265737360701b60448201526064015b60405180910390fd5b6001600160a01b03811660a052620000a1620000a9565b505062000199565b600054610100900460ff1615620001135760405162461bcd60e51b815260206004820152602760248201527f496e697469616c697a61626c653a20636f6e747261637420697320696e697469604482015266616c697a696e6760c81b606482015260840162000081565b60005460ff9081161462000165576000805460ff191660ff9081179091556040519081527f7f26b83ff96e1f2b6a682f133852f6798a09c465da95921460cefb38474024989060200160405180910390a15b565b6000602082840312156200017a57600080fd5b81516001600160a01b03811681146200019257600080fd5b9392505050565b60805160a051612268620001f76000396000818161020e01528181610b9d01528181610c9701528181610ea901526111520152600081816106b4015281816106f4015281816107c501528181610805015261089401526122686000f3fe6080604052600436106101c25760003560e01c80638456cb59116100f7578063d547741f11610095578063f09de9c311610064578063f09de9c314610528578063f899ccd614610548578063fedca6f214610568578063ffa1ad741461058857600080fd5b8063d547741f14610489578063e63ab1e9146104a9578063ec87621c146104dd578063ef34f6331461051157600080fd5b80639c6e3a17116100d15780639c6e3a1714610413578063a217fddf14610433578063aebeeb3d14610448578063bca6ce641461046857600080fd5b80638456cb59146103a95780638d40a348146103be57806391d14854146103f357600080fd5b80633f4ba83a116101645780635797e9091161013e5780635797e9091461033c5780635c975abb1461035c5780636ca0b0d7146103745780638137005b1461038957600080fd5b80633f4ba83a146102ff5780634f1ef2861461031457806352d1902d1461032757600080fd5b80632f2ff15d116101a05780632f2ff15d1461028657806336568abe146102a85780633659cfe6146102c85780633a70a5ca146102e857600080fd5b806301ffc9a7146101c757806316f0115b146101fc578063248a9ca314610248575b600080fd5b3480156101d357600080fd5b506101e76101e2366004611c46565b6105c6565b60405190151581526020015b60405180910390f35b34801561020857600080fd5b506102307f000000000000000000000000000000000000000000000000000000000000000081565b6040516001600160a01b0390911681526020016101f3565b34801561025457600080fd5b50610278610263366004611c70565b60009081526065602052604090206001015490565b6040519081526020016101f3565b34801561029257600080fd5b506102a66102a1366004611c9e565b6105fd565b005b3480156102b457600080fd5b506102a66102c3366004611c9e565b610627565b3480156102d457600080fd5b506102a66102e3366004611cce565b6106aa565b3480156102f457600080fd5b5061027861012f5481565b34801561030b57600080fd5b506102a6610789565b6102a6610322366004611d01565b6107bb565b34801561033357600080fd5b50610278610887565b34801561034857600080fd5b506102a6610357366004611e11565b61093a565b34801561036857600080fd5b5060975460ff166101e7565b34801561038057600080fd5b50610278600281565b34801561039557600080fd5b506102a66103a4366004611e9d565b610a57565b3480156103b557600080fd5b506102a6610c31565b3480156103ca57600080fd5b506103de6103d9366004611c70565b610c63565b604080519283529015156020830152016101f3565b3480156103ff57600080fd5b506101e761040e366004611c9e565b610d0b565b34801561041f57600080fd5b5061027861042e366004611c70565b610d36565b34801561043f57600080fd5b50610278600081565b34801561045457600080fd5b506102a6610463366004611c70565b610e15565b34801561047457600080fd5b5061012d54610230906001600160a01b031681565b34801561049557600080fd5b506102a66104a4366004611c9e565b610f6e565b3480156104b557600080fd5b506102787f65d7a28e3265b37a6474929f336521b332c1681b933f6cb9f3376673440d862a81565b3480156104e957600080fd5b506102787f241ecf16d79d0f8dbfb92cbc07fe17840425976cf0667f022fe9877caa831b0881565b34801561051d57600080fd5b5061027861012e5481565b34801561053457600080fd5b506102a6610543366004611c70565b610f93565b34801561055457600080fd5b506102a6610563366004611cce565b611025565b34801561057457600080fd5b506102a6610583366004611c70565b61107f565b34801561059457600080fd5b506105b9604051806040016040528060058152602001640312e302e360dc1b81525081565b6040516101f39190611eeb565b60006001600160e01b03198216637965db0b60e01b14806105f757506301ffc9a760e01b6001600160e01b03198316145b92915050565b60008281526065602052604090206001015461061881611219565b6106228383611223565b505050565b6001600160a01b038116331461069c5760405162461bcd60e51b815260206004820152602f60248201527f416363657373436f6e74726f6c3a2063616e206f6e6c792072656e6f756e636560448201526e103937b632b9903337b91039b2b63360891b60648201526084015b60405180910390fd5b6106a682826112a9565b5050565b6001600160a01b037f00000000000000000000000000000000000000000000000000000000000000001630036106f25760405162461bcd60e51b815260040161069390611f1e565b7f00000000000000000000000000000000000000000000000000000000000000006001600160a01b031661073b6000805160206121ec833981519152546001600160a01b031690565b6001600160a01b0316146107615760405162461bcd60e51b815260040161069390611f6a565b61076a81611310565b604080516000808252602082019092526107869183919061131b565b50565b7f65d7a28e3265b37a6474929f336521b332c1681b933f6cb9f3376673440d862a6107b381611219565b610786611486565b6001600160a01b037f00000000000000000000000000000000000000000000000000000000000000001630036108035760405162461bcd60e51b815260040161069390611f1e565b7f00000000000000000000000000000000000000000000000000000000000000006001600160a01b031661084c6000805160206121ec833981519152546001600160a01b031690565b6001600160a01b0316146108725760405162461bcd60e51b815260040161069390611f6a565b61087b82611310565b6106a68282600161131b565b6000306001600160a01b037f000000000000000000000000000000000000000000000000000000000000000016146109275760405162461bcd60e51b815260206004820152603860248201527f555550535570677261646561626c653a206d757374206e6f742062652063616c60448201527f6c6564207468726f7567682064656c656761746563616c6c00000000000000006064820152608401610693565b506000805160206121ec83398151915290565b600054610100900460ff161580801561095a5750600054600160ff909116105b806109745750303b158015610974575060005460ff166001145b6109d75760405162461bcd60e51b815260206004820152602e60248201527f496e697469616c697a61626c653a20636f6e747261637420697320616c72656160448201526d191e481a5b9a5d1a585b1a5e995960921b6064820152608401610693565b6000805460ff1916600117905580156109fa576000805461ff0019166101001790555b610a088787878787876114d8565b8015610a4e576000805461ff0019169055604051600181527f7f26b83ff96e1f2b6a682f133852f6798a09c465da95921460cefb38474024989060200160405180910390a15b50505050505050565b610a5f611522565b60008111610aa05760405162461bcd60e51b815260206004820152600e60248201526d1a5b9d985b1a5908185b5bdd5b9d60921b6044820152606401610693565b61012d546040516331a9108f60e11b81526004810184905233916001600160a01b031690636352211e90602401602060405180830381865afa158015610aea573d6000803e3d6000fd5b505050506040513d601f19601f82011682018060405250810190610b0e9190611fb6565b6001600160a01b031614610b545760405162461bcd60e51b815260206004820152600d60248201526c3737ba103a34329037bbb732b960991b6044820152606401610693565b6000828152610130602052604081208054839290610b73908490611fe9565b90915550506040516323b872dd60e01b8152336004820152306024820152604481018290526000907f00000000000000000000000000000000000000000000000000000000000000006001600160a01b0316906323b872dd906064016020604051808303816000875af1158015610bee573d6000803e3d6000fd5b505050506040513d601f19601f82011682018060405250810190610c129190612001565b9050806106225760405162461bcd60e51b815260040161069390612023565b7f65d7a28e3265b37a6474929f336521b332c1681b933f6cb9f3376673440d862a610c5b81611219565b61078661156a565b60008061012e5483610c75919061204c565b6040516370a0823160e01b815233600482015290925082906001600160a01b037f000000000000000000000000000000000000000000000000000000000000000016906370a0823190602401602060405180830381865afa158015610cde573d6000803e3d6000fd5b505050506040513d601f19601f82011682018060405250810190610d02919061206b565b10159050915091565b60009182526065602090815260408084206001600160a01b0393909316845291905290205460ff1690565b61012d546040516331a9108f60e11b81526004810183905260009182916001600160a01b0390911690636352211e90602401602060405180830381865afa158015610d85573d6000803e3d6000fd5b505050506040513d601f19601f82011682018060405250810190610da99190611fb6565b6001600160a01b031603610df75760405162461bcd60e51b81526020600482015260156024820152741b9bdb88195e1a5cdd1a5b99c81d1bdad95b881a59605a1b6044820152606401610693565b61012e54600083815261013060205260409020546105f79190611fe9565b7f241ecf16d79d0f8dbfb92cbc07fe17840425976cf0667f022fe9877caa831b08610e3f81611219565b610131805460ff1916600117905561012f8054839190600090610e63908490611fe9565b909155505061012e54600090610e79908461204c565b6040516323b872dd60e01b8152336004820152306024820152604481018290529091506000906001600160a01b037f000000000000000000000000000000000000000000000000000000000000000016906323b872dd906064016020604051808303816000875af1158015610ef2573d6000803e3d6000fd5b505050506040513d601f19601f82011682018060405250810190610f169190612001565b905080610f355760405162461bcd60e51b815260040161069390612023565b6040518281527faefc6f33d3e65c9323b3fa03681fc75ca650b928c91c83e44d34dfb0c38265829060200160405180910390a150505050565b600082815260656020526040902060010154610f8981611219565b61062283836112a9565b6000610f9e81611219565b6101315460ff1615610fe75760405162461bcd60e51b8152602060048201526012602482015271185b1b1bd8d85d1a5bdb881cdd185c9d195960721b6044820152606401610693565b61012e8290556040518281527f5a6484070f59cc639c971432c573d4684edbd8263464c80739bb9196ba0c8402906020015b60405180910390a15050565b600061103081611219565b61012d80546001600160a01b0319166001600160a01b0384169081179091556040519081527f1393e877c1bd78bd75066e9f797a5f17f7df35cda40b653328eb472b8ac03a2390602001611019565b7f241ecf16d79d0f8dbfb92cbc07fe17840425976cf0667f022fe9877caa831b086110a981611219565b60008261012f546110ba9190612084565b905060006110c66115a7565b9050808210156111115760405162461bcd60e51b815260206004820152601660248201527563616e6e6f742076696f6c617465206261636b696e6760501b6044820152606401610693565b61012f82905561012e54600090611128908661204c565b60405163a9059cbb60e01b8152336004820152602481018290529091506000906001600160a01b037f0000000000000000000000000000000000000000000000000000000000000000169063a9059cbb906044016020604051808303816000875af115801561119b573d6000803e3d6000fd5b505050506040513d601f19601f820116820180604052508101906111bf9190612001565b9050806111de5760405162461bcd60e51b815260040161069390612023565b6040518281527f7525f48a5b3b4c0e5588c1e60d7ab71d61a6447d94d0c63c736c272b622dd0539060200160405180910390a1505050505050565b6107868133611629565b61122d8282610d0b565b6106a65760008281526065602090815260408083206001600160a01b03851684529091529020805460ff191660011790556112653390565b6001600160a01b0316816001600160a01b0316837f2f8788117e7eff1d82e926ec794901d17c78024a50270940304540a733656f0d60405160405180910390a45050565b6112b38282610d0b565b156106a65760008281526065602090815260408083206001600160a01b0385168085529252808320805460ff1916905551339285917ff6391f5c32d9c69d2a47ea670b442974b53935d1edc7fd64eb21e047a839171b9190a45050565b60006106a681611219565b7f4910fdfa16fed3260ed0e7147f7cc6da11a60208b5b9406d12a635614ffd91435460ff161561134e5761062283611682565b826001600160a01b03166352d1902d6040518163ffffffff1660e01b8152600401602060405180830381865afa9250505080156113a8575060408051601f3d908101601f191682019092526113a59181019061206b565b60015b61140b5760405162461bcd60e51b815260206004820152602e60248201527f45524331393637557067726164653a206e657720696d706c656d656e7461746960448201526d6f6e206973206e6f74205555505360901b6064820152608401610693565b6000805160206121ec833981519152811461147a5760405162461bcd60e51b815260206004820152602960248201527f45524331393637557067726164653a20756e737570706f727465642070726f786044820152681a58589b195555525160ba1b6064820152608401610693565b5061062283838361171e565b61148e611749565b6097805460ff191690557f5db9ee0a495bf2e6ff9c91a7834c1ba4fdd244a5e8aa4e537bd38aeae4b073aa335b6040516001600160a01b03909116815260200160405180910390a1565b6114e484848484611792565b6114ec6118b4565b6114f46118e7565b50505061012e9290925561012d80546001600160a01b0319166001600160a01b039290921691909117905550565b60975460ff16156115685760405162461bcd60e51b815260206004820152601060248201526f14185d5cd8589b194e881c185d5cd95960821b6044820152606401610693565b565b611572611522565b6097805460ff191660011790557f62e78cea01bee320cd4e420270b5ea74000d11b0c9f74754ebdbfc544b05a2586114bb3390565b61012d54604080516318160ddd60e01b815290516000926001600160a01b0316916318160ddd9160048083019260209291908290030181865afa1580156115f2573d6000803e3d6000fd5b505050506040513d601f19601f82011682018060405250810190611616919061209b565b6bffffffffffffffffffffffff16905090565b6116338282610d0b565b6106a6576116408161190e565b61164b836020611920565b60405160200161165c9291906120c9565b60408051601f198184030181529082905262461bcd60e51b825261069391600401611eeb565b6001600160a01b0381163b6116ef5760405162461bcd60e51b815260206004820152602d60248201527f455243313936373a206e657720696d706c656d656e746174696f6e206973206e60448201526c1bdd08184818dbdb9d1c9858dd609a1b6064820152608401610693565b6000805160206121ec83398151915280546001600160a01b0319166001600160a01b0392909216919091179055565b61172783611ac3565b6000825111806117345750805b15610622576117438383611b03565b50505050565b60975460ff166115685760405162461bcd60e51b815260206004820152601460248201527314185d5cd8589b194e881b9bdd081c185d5cd95960621b6044820152606401610693565b8281146117d95760405162461bcd60e51b8152602060048201526015602482015274082e4e4c2f240d8cadccee8d040dad2e6dac2e8c6d605b1b6044820152606401610693565b6117e16118e7565b6000805b8481101561186a576118358484838181106118025761180261213e565b9050602002013587878481811061181b5761181b61213e565b90506020020160208101906118309190611cce565b611223565b60008484838181106118495761184961213e565b905060200201350361185a57600191505b61186381612154565b90506117e5565b50806118ad5760405162461bcd60e51b8152602060048201526012602482015271139bc818591b5a5b881cdc1958da599a595960721b6044820152606401610693565b5050505050565b600054610100900460ff166118db5760405162461bcd60e51b81526004016106939061216d565b6097805460ff19169055565b600054610100900460ff166115685760405162461bcd60e51b81526004016106939061216d565b60606105f76001600160a01b03831660145b6060600061192f83600261204c565b61193a906002611fe9565b67ffffffffffffffff81111561195257611952611ceb565b6040519080825280601f01601f19166020018201604052801561197c576020820181803683370190505b509050600360fc1b816000815181106119975761199761213e565b60200101906001600160f81b031916908160001a905350600f60fb1b816001815181106119c6576119c661213e565b60200101906001600160f81b031916908160001a90535060006119ea84600261204c565b6119f5906001611fe9565b90505b6001811115611a6d576f181899199a1a9b1b9c1cb0b131b232b360811b85600f1660108110611a2957611a2961213e565b1a60f81b828281518110611a3f57611a3f61213e565b60200101906001600160f81b031916908160001a90535060049490941c93611a66816121b8565b90506119f8565b508315611abc5760405162461bcd60e51b815260206004820181905260248201527f537472696e67733a20686578206c656e67746820696e73756666696369656e746044820152606401610693565b9392505050565b611acc81611682565b6040516001600160a01b038216907fbc7cd75a20ee27fd9adebab32041f755214dbc6bffa90cc0225b39da2e5c2d3b90600090a250565b6060611abc838360405180606001604052806027815260200161220c602791396060600080856001600160a01b031685604051611b4091906121cf565b600060405180830381855af49150503d8060008114611b7b576040519150601f19603f3d011682016040523d82523d6000602084013e611b80565b606091505b5091509150611b9186838387611b9b565b9695505050505050565b60608315611c0a578251600003611c03576001600160a01b0385163b611c035760405162461bcd60e51b815260206004820152601d60248201527f416464726573733a2063616c6c20746f206e6f6e2d636f6e74726163740000006044820152606401610693565b5081611c14565b611c148383611c1c565b949350505050565b815115611c2c5781518083602001fd5b8060405162461bcd60e51b81526004016106939190611eeb565b600060208284031215611c5857600080fd5b81356001600160e01b031981168114611abc57600080fd5b600060208284031215611c8257600080fd5b5035919050565b6001600160a01b038116811461078657600080fd5b60008060408385031215611cb157600080fd5b823591506020830135611cc381611c89565b809150509250929050565b600060208284031215611ce057600080fd5b8135611abc81611c89565b634e487b7160e01b600052604160045260246000fd5b60008060408385031215611d1457600080fd5b8235611d1f81611c89565b9150602083013567ffffffffffffffff80821115611d3c57600080fd5b818501915085601f830112611d5057600080fd5b813581811115611d6257611d62611ceb565b604051601f8201601f19908116603f01168101908382118183101715611d8a57611d8a611ceb565b81604052828152886020848701011115611da357600080fd5b8260208601602083013760006020848301015280955050505050509250929050565b60008083601f840112611dd757600080fd5b50813567ffffffffffffffff811115611def57600080fd5b6020830191508360208260051b8501011115611e0a57600080fd5b9250929050565b60008060008060008060808789031215611e2a57600080fd5b863595506020870135611e3c81611c89565b9450604087013567ffffffffffffffff80821115611e5957600080fd5b611e658a838b01611dc5565b90965094506060890135915080821115611e7e57600080fd5b50611e8b89828a01611dc5565b979a9699509497509295939492505050565b60008060408385031215611eb057600080fd5b50508035926020909101359150565b60005b83811015611eda578181015183820152602001611ec2565b838111156117435750506000910152565b6020815260008251806020840152611f0a816040850160208701611ebf565b601f01601f19169190910160400192915050565b6020808252602c908201527f46756e6374696f6e206d7573742062652063616c6c6564207468726f7567682060408201526b19195b1959d85d1958d85b1b60a21b606082015260800190565b6020808252602c908201527f46756e6374696f6e206d7573742062652063616c6c6564207468726f7567682060408201526b6163746976652070726f787960a01b606082015260800190565b600060208284031215611fc857600080fd5b8151611abc81611c89565b634e487b7160e01b600052601160045260246000fd5b60008219821115611ffc57611ffc611fd3565b500190565b60006020828403121561201357600080fd5b81518015158114611abc57600080fd5b6020808252600f908201526e1d1c985b9cd9995c8819985a5b1959608a1b604082015260600190565b600081600019048311821515161561206657612066611fd3565b500290565b60006020828403121561207d57600080fd5b5051919050565b60008282101561209657612096611fd3565b500390565b6000602082840312156120ad57600080fd5b81516bffffffffffffffffffffffff81168114611abc57600080fd5b7f416363657373436f6e74726f6c3a206163636f756e7420000000000000000000815260008351612101816017850160208801611ebf565b7001034b99036b4b9b9b4b733903937b6329607d1b6017918401918201528351612132816028840160208801611ebf565b01602801949350505050565b634e487b7160e01b600052603260045260246000fd5b60006001820161216657612166611fd3565b5060010190565b6020808252602b908201527f496e697469616c697a61626c653a20636f6e7472616374206973206e6f74206960408201526a6e697469616c697a696e6760a81b606082015260800190565b6000816121c7576121c7611fd3565b506000190190565b600082516121e1818460208701611ebf565b919091019291505056fe360894a13ba1a3210667c828492db98dca3e2076cc3735a920a3ca505d382bbc416464726573733a206c6f772d6c6576656c2064656c65676174652063616c6c206661696c6564a26469706673582212209029fe1b5ef8a2aa4df48e6d479e36f8a412d59546191c49d716194dac0c8a4b64736f6c634300080e0033",
  "devdoc": {
    "kind": "dev",
    "methods": {
      "allocatePoolToken(uint256)": {
        "params": {
          "estimatedSupply": "Indicates the amount of NFT tokens for which to allocate pool tokens"
        }
      },
      "constructor": {
        "custom:oz-upgrades-unsafe-allow": "constructor"
      },
      "embed(uint256,uint256)": {
        "params": {
          "amount": "amount of pool tokens to associate to the NFT token",
          "tokenId": "the token id where to allocate the pool tokens"
        }
      },
      "getRoleAdmin(bytes32)": {
        "details": "Returns the admin role that controls `role`. See {grantRole} and {revokeRole}. To change a role's admin, use {_setRoleAdmin}."
      },
      "grantRole(bytes32,address)": {
        "details": "Grants `role` to `account`. If `account` had not been already granted `role`, emits a {RoleGranted} event. Requirements: - the caller must have ``role``'s admin role. May emit a {RoleGranted} event."
      },
      "hasRole(bytes32,address)": {
        "details": "Returns `true` if `account` has been granted `role`."
      },
      "paused()": {
        "details": "Returns true if the contract is paused, and false otherwise."
      },
      "proxiableUUID()": {
        "details": "Implementation of the ERC1822 {proxiableUUID} function. This returns the storage slot used by the implementation. It is used to validate the implementation's compatibility when performing an upgrade. IMPORTANT: A proxy pointing at a proxiable contract should not be considered proxiable itself, because this risks bricking a proxy that upgrades to it, by delegating to itself until out of gas. Thus it is critical that this function revert if invoked through a proxy. This is guaranteed by the `notDelegated` modifier."
      },
      "quoteAllocatePoolTokenAmount(uint256)": {
        "params": {
          "estimatedSupply": "estimated supply for which to allocate tokens"
        },
        "returns": {
          "poolTokenAmount": "required pool token balance"
        }
      },
      "renounceRole(bytes32,address)": {
        "details": "Revokes `role` from the calling account. Roles are often managed via {grantRole} and {revokeRole}: this function's purpose is to provide a mechanism for accounts to lose their privileges if they are compromised (such as when a trusted device is misplaced). If the calling account had been revoked `role`, emits a {RoleRevoked} event. Requirements: - the caller must be `account`. May emit a {RoleRevoked} event."
      },
      "revokeRole(bytes32,address)": {
        "details": "Revokes `role` from `account`. If `account` had been granted `role`, emits a {RoleRevoked} event. Requirements: - the caller must have ``role``'s admin role. May emit a {RoleRevoked} event."
      },
      "supportsInterface(bytes4)": {
        "details": "See {IERC165-supportsInterface}."
      },
      "tokenIdBalance(uint256)": {
        "params": {
          "tokenId": "the token id"
        },
        "returns": {
          "balance": "pool token balance"
        }
      },
      "upgradeTo(address)": {
        "custom:oz-upgrades-unsafe-allow-reachable": "delegatecall",
        "details": "Upgrade the implementation of the proxy to `newImplementation`. Calls {_authorizeUpgrade}. Emits an {Upgraded} event."
      },
      "upgradeToAndCall(address,bytes)": {
        "custom:oz-upgrades-unsafe-allow-reachable": "delegatecall",
        "details": "Upgrade the implementation of the proxy to `newImplementation`, and subsequently execute the function call encoded in `data`. Calls {_authorizeUpgrade}. Emits an {Upgraded} event."
      },
      "withdrawPoolToken(uint256)": {
        "params": {
          "supplyToWithdraw": "the supply to withdraw. It must be less than the allocated supply and at the same time we will not allow withdrawals that violate the carbon backing of the NFTs."
        }
      }
    },
    "stateVariables": {
      "VERSION": {
        "details": "Version-related parameters. VERSION keeps track of production releases. VERSION_RELEASE_CANDIDATE keeps track of iterations of a VERSION in our staging environment."
      }
    },
    "version": 1
  },
  "userdoc": {
    "kind": "user",
    "methods": {
      "allocatePoolToken(uint256)": {
        "notice": "Allows the owner allocate an amount of pool token based on an estimated supply.The caller needs to approve this contract for a sufficient amount of pool tokens before executing it. The method quoteAllocatePoolTokenAmount can be used to get the precise amount needed."
      },
      "embed(uint256,uint256)": {
        "notice": "It allows an NFT owner to embed further pool tokens in their NFTThe caller needs to approve this contract for a sufficient amount of pool tokens before executing it."
      },
      "quoteAllocatePoolTokenAmount(uint256)": {
        "notice": "It returns the amount of pool tokens required in the sender account to fulfill an allocation request for the given NFT supply"
      },
      "tokenIdBalance(uint256)": {
        "notice": "Returns the amount of pool tokens associated to the NFT token id"
      },
      "withdrawPoolToken(uint256)": {
        "notice": "Allows the owner to withdraw any exceeding amount of pre-allocated pool tokens."
      }
    },
    "version": 1
  },
  "storageLayout": {
    "storage": [
      {
        "astId": 2373,
        "contract": "contracts/periphery/FxHashNFTCarbonExtension.sol:FxHashNFTCarbonExtension",
        "label": "_initialized",
        "offset": 0,
        "slot": "0",
        "type": "t_uint8"
      },
      {
        "astId": 2376,
        "contract": "contracts/periphery/FxHashNFTCarbonExtension.sol:FxHashNFTCarbonExtension",
        "label": "_initializing",
        "offset": 1,
        "slot": "0",
        "type": "t_bool"
      },
      {
        "astId": 7515,
        "contract": "contracts/periphery/FxHashNFTCarbonExtension.sol:FxHashNFTCarbonExtension",
        "label": "__gap",
        "offset": 0,
        "slot": "1",
        "type": "t_array(t_uint256)50_storage"
      },
      {
        "astId": 7899,
        "contract": "contracts/periphery/FxHashNFTCarbonExtension.sol:FxHashNFTCarbonExtension",
        "label": "__gap",
        "offset": 0,
        "slot": "51",
        "type": "t_array(t_uint256)50_storage"
      },
      {
        "astId": 1486,
        "contract": "contracts/periphery/FxHashNFTCarbonExtension.sol:FxHashNFTCarbonExtension",
        "label": "_roles",
        "offset": 0,
        "slot": "101",
        "type": "t_mapping(t_bytes32,t_struct(RoleData)1481_storage)"
      },
      {
        "astId": 1793,
        "contract": "contracts/periphery/FxHashNFTCarbonExtension.sol:FxHashNFTCarbonExtension",
        "label": "__gap",
        "offset": 0,
        "slot": "102",
        "type": "t_array(t_uint256)49_storage"
      },
      {
        "astId": 2694,
        "contract": "contracts/periphery/FxHashNFTCarbonExtension.sol:FxHashNFTCarbonExtension",
        "label": "_paused",
        "offset": 0,
        "slot": "151",
        "type": "t_bool"
      },
      {
        "astId": 2799,
        "contract": "contracts/periphery/FxHashNFTCarbonExtension.sol:FxHashNFTCarbonExtension",
        "label": "__gap",
        "offset": 0,
        "slot": "152",
        "type": "t_array(t_uint256)49_storage"
      },
      {
        "astId": 2355,
        "contract": "contracts/periphery/FxHashNFTCarbonExtension.sol:FxHashNFTCarbonExtension",
        "label": "__gap",
        "offset": 0,
        "slot": "201",
        "type": "t_array(t_uint256)50_storage"
      },
      {
        "astId": 2671,
        "contract": "contracts/periphery/FxHashNFTCarbonExtension.sol:FxHashNFTCarbonExtension",
        "label": "__gap",
        "offset": 0,
        "slot": "251",
        "type": "t_array(t_uint256)50_storage"
      },
      {
        "astId": 27223,
        "contract": "contracts/periphery/FxHashNFTCarbonExtension.sol:FxHashNFTCarbonExtension",
        "label": "erc721",
        "offset": 0,
        "slot": "301",
        "type": "t_contract(IERC721)12678"
      },
      {
        "astId": 27225,
        "contract": "contracts/periphery/FxHashNFTCarbonExtension.sol:FxHashNFTCarbonExtension",
        "label": "basePoolTokenAllocationPerNFT",
        "offset": 0,
        "slot": "302",
        "type": "t_uint256"
      },
      {
        "astId": 27227,
        "contract": "contracts/periphery/FxHashNFTCarbonExtension.sol:FxHashNFTCarbonExtension",
        "label": "allocatedSupply",
        "offset": 0,
        "slot": "303",
        "type": "t_uint256"
      },
      {
        "astId": 27231,
        "contract": "contracts/periphery/FxHashNFTCarbonExtension.sol:FxHashNFTCarbonExtension",
        "label": "_tokenIdBalance",
        "offset": 0,
        "slot": "304",
        "type": "t_mapping(t_uint256,t_uint256)"
      },
      {
        "astId": 27233,
        "contract": "contracts/periphery/FxHashNFTCarbonExtension.sol:FxHashNFTCarbonExtension",
        "label": "allocationStarted",
        "offset": 0,
        "slot": "305",
        "type": "t_bool"
      },
      {
        "astId": 27238,
        "contract": "contracts/periphery/FxHashNFTCarbonExtension.sol:FxHashNFTCarbonExtension",
        "label": "__gap",
        "offset": 0,
        "slot": "306",
        "type": "t_array(t_uint256)45_storage"
      }
    ],
    "types": {
      "t_address": {
        "encoding": "inplace",
        "label": "address",
        "numberOfBytes": "20"
      },
      "t_array(t_uint256)45_storage": {
        "base": "t_uint256",
        "encoding": "inplace",
        "label": "uint256[45]",
        "numberOfBytes": "1440"
      },
      "t_array(t_uint256)49_storage": {
        "base": "t_uint256",
        "encoding": "inplace",
        "label": "uint256[49]",
        "numberOfBytes": "1568"
      },
      "t_array(t_uint256)50_storage": {
        "base": "t_uint256",
        "encoding": "inplace",
        "label": "uint256[50]",
        "numberOfBytes": "1600"
      },
      "t_bool": {
        "encoding": "inplace",
        "label": "bool",
        "numberOfBytes": "1"
      },
      "t_bytes32": {
        "encoding": "inplace",
        "label": "bytes32",
        "numberOfBytes": "32"
      },
      "t_contract(IERC721)12678": {
        "encoding": "inplace",
        "label": "contract IERC721",
        "numberOfBytes": "20"
      },
      "t_mapping(t_address,t_bool)": {
        "encoding": "mapping",
        "key": "t_address",
        "label": "mapping(address => bool)",
        "numberOfBytes": "32",
        "value": "t_bool"
      },
      "t_mapping(t_bytes32,t_struct(RoleData)1481_storage)": {
        "encoding": "mapping",
        "key": "t_bytes32",
        "label": "mapping(bytes32 => struct AccessControlUpgradeable.RoleData)",
        "numberOfBytes": "32",
        "value": "t_struct(RoleData)1481_storage"
      },
      "t_mapping(t_uint256,t_uint256)": {
        "encoding": "mapping",
        "key": "t_uint256",
        "label": "mapping(uint256 => uint256)",
        "numberOfBytes": "32",
        "value": "t_uint256"
      },
      "t_struct(RoleData)1481_storage": {
        "encoding": "inplace",
        "label": "struct AccessControlUpgradeable.RoleData",
        "members": [
          {
            "astId": 1478,
            "contract": "contracts/periphery/FxHashNFTCarbonExtension.sol:FxHashNFTCarbonExtension",
            "label": "members",
            "offset": 0,
            "slot": "0",
            "type": "t_mapping(t_address,t_bool)"
          },
          {
            "astId": 1480,
            "contract": "contracts/periphery/FxHashNFTCarbonExtension.sol:FxHashNFTCarbonExtension",
            "label": "adminRole",
            "offset": 0,
            "slot": "1",
            "type": "t_bytes32"
          }
        ],
        "numberOfBytes": "64"
      },
      "t_uint256": {
        "encoding": "inplace",
        "label": "uint256",
        "numberOfBytes": "32"
      },
      "t_uint8": {
        "encoding": "inplace",
        "label": "uint8",
        "numberOfBytes": "1"
      }
    }
  }
}