{
  "address": "0x2e6118a895876C8aA3D20F2Ee93dec7ebdE75E98",
  "abi": [
    {
      "anonymous": false,
      "inputs": [
        {
          "indexed": false,
          "internalType": "address",
          "name": "previousAdmin",
          "type": "address"
        },
        {
          "indexed": false,
          "internalType": "address",
          "name": "newAdmin",
          "type": "address"
        }
      ],
      "name": "AdminChanged",
      "type": "event"
    },
    {
      "anonymous": false,
      "inputs": [
        {
          "indexed": false,
          "internalType": "string",
          "name": "methodology",
          "type": "string"
        }
      ],
      "name": "AttributeMethodologyAdded",
      "type": "event"
    },
    {
      "anonymous": false,
      "inputs": [
        {
          "indexed": false,
          "internalType": "string",
          "name": "methodology",
          "type": "string"
        }
      ],
      "name": "AttributeMethodologyRemoved",
      "type": "event"
    },
    {
      "anonymous": false,
      "inputs": [
        {
          "indexed": false,
          "internalType": "string",
          "name": "region",
          "type": "string"
        }
      ],
      "name": "AttributeRegionAdded",
      "type": "event"
    },
    {
      "anonymous": false,
      "inputs": [
        {
          "indexed": false,
          "internalType": "string",
          "name": "region",
          "type": "string"
        }
      ],
      "name": "AttributeRegionRemoved",
      "type": "event"
    },
    {
      "anonymous": false,
      "inputs": [
        {
          "indexed": false,
          "internalType": "string",
          "name": "standard",
          "type": "string"
        }
      ],
      "name": "AttributeStandardAdded",
      "type": "event"
    },
    {
      "anonymous": false,
      "inputs": [
        {
          "indexed": false,
          "internalType": "string",
          "name": "standard",
          "type": "string"
        }
      ],
      "name": "AttributeStandardRemoved",
      "type": "event"
    },
    {
      "anonymous": false,
      "inputs": [
        {
          "indexed": true,
          "internalType": "address",
          "name": "beacon",
          "type": "address"
        }
      ],
      "name": "BeaconUpgraded",
      "type": "event"
    },
    {
      "anonymous": false,
      "inputs": [
        {
          "indexed": false,
          "internalType": "address",
          "name": "erc20addr",
          "type": "address"
        }
      ],
      "name": "ExternalAddressAllowlisted",
      "type": "event"
    },
    {
      "anonymous": false,
      "inputs": [
        {
          "indexed": false,
          "internalType": "address",
          "name": "erc20addr",
          "type": "address"
        }
      ],
      "name": "ExternalAddressRemovedFromAllowlist",
      "type": "event"
    },
    {
      "anonymous": false,
      "inputs": [
        {
          "indexed": false,
          "internalType": "address",
          "name": "tokenAddress",
          "type": "address"
        },
        {
          "indexed": false,
          "internalType": "uint256",
          "name": "tokenId",
          "type": "uint256"
        }
      ],
      "name": "ExternalERC1155TokenAllowlisted",
      "type": "event"
    },
    {
      "anonymous": false,
      "inputs": [
        {
          "indexed": false,
          "internalType": "address",
          "name": "tokenAddress",
          "type": "address"
        },
        {
          "indexed": false,
          "internalType": "uint256",
          "name": "tokenId",
          "type": "uint256"
        }
      ],
      "name": "ExternalERC1155TokenRemovedFromAllowlist",
      "type": "event"
    },
    {
      "anonymous": false,
      "inputs": [
        {
          "indexed": false,
          "internalType": "uint8",
          "name": "version",
          "type": "uint8"
        }
      ],
      "name": "Initialized",
      "type": "event"
    },
    {
      "anonymous": false,
      "inputs": [
        {
          "indexed": false,
          "internalType": "address",
          "name": "erc20addr",
          "type": "address"
        }
      ],
      "name": "InternalAddressAllowlisted",
      "type": "event"
    },
    {
      "anonymous": false,
      "inputs": [
        {
          "indexed": false,
          "internalType": "address",
          "name": "erc20addr",
          "type": "address"
        }
      ],
      "name": "InternalAddressBlocklisted",
      "type": "event"
    },
    {
      "anonymous": false,
      "inputs": [
        {
          "indexed": false,
          "internalType": "address",
          "name": "erc20addr",
          "type": "address"
        }
      ],
      "name": "InternalAddressRemovedFromAllowlist",
      "type": "event"
    },
    {
      "anonymous": false,
      "inputs": [
        {
          "indexed": false,
          "internalType": "address",
          "name": "erc20addr",
          "type": "address"
        }
      ],
      "name": "InternalAddressRemovedFromBlocklist",
      "type": "event"
    },
    {
      "anonymous": false,
      "inputs": [
        {
          "indexed": false,
          "internalType": "string",
          "name": "mappingName",
          "type": "string"
        },
        {
          "indexed": false,
          "internalType": "bool",
          "name": "accepted",
          "type": "bool"
        }
      ],
      "name": "MappingSwitched",
      "type": "event"
    },
    {
      "anonymous": false,
      "inputs": [
        {
          "indexed": false,
          "internalType": "uint256",
          "name": "minimumVintageStartTime",
          "type": "uint256"
        }
      ],
      "name": "MinimumVintageStartTimeUpdated",
      "type": "event"
    },
    {
      "anonymous": false,
      "inputs": [
        {
          "indexed": true,
          "internalType": "address",
          "name": "previousOwner",
          "type": "address"
        },
        {
          "indexed": true,
          "internalType": "address",
          "name": "newOwner",
          "type": "address"
        }
      ],
      "name": "OwnershipTransferred",
      "type": "event"
    },
    {
      "anonymous": false,
      "inputs": [
        {
          "indexed": false,
          "internalType": "address",
          "name": "account",
          "type": "address"
        }
      ],
      "name": "Paused",
      "type": "event"
    },
    {
      "anonymous": false,
      "inputs": [
        {
          "indexed": true,
          "internalType": "bytes32",
          "name": "role",
          "type": "bytes32"
        },
        {
          "indexed": true,
          "internalType": "bytes32",
          "name": "previousAdminRole",
          "type": "bytes32"
        },
        {
          "indexed": true,
          "internalType": "bytes32",
          "name": "newAdminRole",
          "type": "bytes32"
        }
      ],
      "name": "RoleAdminChanged",
      "type": "event"
    },
    {
      "anonymous": false,
      "inputs": [
        {
          "indexed": true,
          "internalType": "bytes32",
          "name": "role",
          "type": "bytes32"
        },
        {
          "indexed": true,
          "internalType": "address",
          "name": "account",
          "type": "address"
        },
        {
          "indexed": true,
          "internalType": "address",
          "name": "sender",
          "type": "address"
        }
      ],
      "name": "RoleGranted",
      "type": "event"
    },
    {
      "anonymous": false,
      "inputs": [
        {
          "indexed": true,
          "internalType": "bytes32",
          "name": "role",
          "type": "bytes32"
        },
        {
          "indexed": true,
          "internalType": "address",
          "name": "account",
          "type": "address"
        },
        {
          "indexed": true,
          "internalType": "address",
          "name": "sender",
          "type": "address"
        }
      ],
      "name": "RoleRevoked",
      "type": "event"
    },
    {
      "anonymous": false,
      "inputs": [
        {
          "indexed": false,
          "internalType": "address",
          "name": "registry",
          "type": "address"
        }
      ],
      "name": "ToucanRegistrySet",
      "type": "event"
    },
    {
      "anonymous": false,
      "inputs": [
        {
          "indexed": false,
          "internalType": "address",
          "name": "account",
          "type": "address"
        }
      ],
      "name": "Unpaused",
      "type": "event"
    },
    {
      "anonymous": false,
      "inputs": [
        {
          "indexed": true,
          "internalType": "address",
          "name": "implementation",
          "type": "address"
        }
      ],
      "name": "Upgraded",
      "type": "event"
    },
    {
      "inputs": [],
      "name": "DEFAULT_ADMIN_ROLE",
      "outputs": [
        {
          "internalType": "bytes32",
          "name": "",
          "type": "bytes32"
        }
      ],
      "stateMutability": "view",
      "type": "function"
    },
    {
      "inputs": [],
      "name": "VERSION",
      "outputs": [
        {
          "internalType": "string",
          "name": "",
          "type": "string"
        }
      ],
      "stateMutability": "view",
      "type": "function"
    },
    {
      "inputs": [],
      "name": "VERSION_RELEASE_CANDIDATE",
      "outputs": [
        {
          "internalType": "uint256",
          "name": "",
          "type": "uint256"
        }
      ],
      "stateMutability": "view",
      "type": "function"
    },
    {
      "inputs": [
        {
          "internalType": "bool",
          "name": "addToList",
          "type": "bool"
        },
        {
          "internalType": "string[]",
          "name": "_regions",
          "type": "string[]"
        },
        {
          "internalType": "string[]",
          "name": "_standards",
          "type": "string[]"
        },
        {
          "internalType": "string[]",
          "name": "_methodologies",
          "type": "string[]"
        }
      ],
      "name": "addAttributes",
      "outputs": [],
      "stateMutability": "nonpayable",
      "type": "function"
    },
    {
      "inputs": [
        {
          "internalType": "address[]",
          "name": "erc20Addr",
          "type": "address[]"
        }
      ],
      "name": "addToExternalAllowlist",
      "outputs": [],
      "stateMutability": "nonpayable",
      "type": "function"
    },
    {
      "inputs": [
        {
          "internalType": "address[]",
          "name": "tokenAddresses",
          "type": "address[]"
        },
        {
          "internalType": "uint256[]",
          "name": "tokenIds",
          "type": "uint256[]"
        }
      ],
      "name": "addToExternalERC1155Allowlist",
      "outputs": [],
      "stateMutability": "nonpayable",
      "type": "function"
    },
    {
      "inputs": [
        {
          "internalType": "address[]",
          "name": "erc20Addr",
          "type": "address[]"
        }
      ],
      "name": "addToInternalAllowlist",
      "outputs": [],
      "stateMutability": "nonpayable",
      "type": "function"
    },
    {
      "inputs": [
        {
          "internalType": "address[]",
          "name": "erc20Addr",
          "type": "address[]"
        }
      ],
      "name": "addToInternalBlocklist",
      "outputs": [],
      "stateMutability": "nonpayable",
      "type": "function"
    },
    {
      "inputs": [
        {
          "internalType": "address",
          "name": "erc20Addr",
          "type": "address"
        }
      ],
      "name": "checkAttributeMatching",
      "outputs": [
        {
          "internalType": "string",
          "name": "",
          "type": "string"
        }
      ],
      "stateMutability": "view",
      "type": "function"
    },
    {
      "inputs": [
        {
          "internalType": "address",
          "name": "tokenAddress",
          "type": "address"
        },
        {
          "internalType": "uint256",
          "name": "tokenId",
          "type": "uint256"
        }
      ],
      "name": "checkERC1155Eligible",
      "outputs": [
        {
          "internalType": "string",
          "name": "",
          "type": "string"
        }
      ],
      "stateMutability": "view",
      "type": "function"
    },
    {
      "inputs": [
        {
          "internalType": "address",
          "name": "erc20Addr",
          "type": "address"
        }
      ],
      "name": "checkEligible",
      "outputs": [
        {
          "internalType": "string",
          "name": "",
          "type": "string"
        }
      ],
      "stateMutability": "view",
      "type": "function"
    },
    {
      "inputs": [],
      "name": "contractRegistry",
      "outputs": [
        {
          "internalType": "address",
          "name": "",
          "type": "address"
        }
      ],
      "stateMutability": "view",
      "type": "function"
    },
    {
      "inputs": [
        {
          "internalType": "address",
          "name": "",
          "type": "address"
        }
      ],
      "name": "externalAllowlist",
      "outputs": [
        {
          "internalType": "bool",
          "name": "",
          "type": "bool"
        }
      ],
      "stateMutability": "view",
      "type": "function"
    },
    {
      "inputs": [
        {
          "internalType": "address",
          "name": "",
          "type": "address"
        },
        {
          "internalType": "uint256",
          "name": "",
          "type": "uint256"
        }
      ],
      "name": "externalERC1155Allowlist",
      "outputs": [
        {
          "internalType": "bool",
          "name": "",
          "type": "bool"
        }
      ],
      "stateMutability": "view",
      "type": "function"
    },
    {
      "inputs": [
        {
          "internalType": "bytes32",
          "name": "role",
          "type": "bytes32"
        }
      ],
      "name": "getRoleAdmin",
      "outputs": [
        {
          "internalType": "bytes32",
          "name": "",
          "type": "bytes32"
        }
      ],
      "stateMutability": "view",
      "type": "function"
    },
    {
      "inputs": [
        {
          "internalType": "bytes32",
          "name": "role",
          "type": "bytes32"
        },
        {
          "internalType": "address",
          "name": "account",
          "type": "address"
        }
      ],
      "name": "grantRole",
      "outputs": [],
      "stateMutability": "nonpayable",
      "type": "function"
    },
    {
      "inputs": [
        {
          "internalType": "bytes32",
          "name": "role",
          "type": "bytes32"
        },
        {
          "internalType": "address",
          "name": "account",
          "type": "address"
        }
      ],
      "name": "hasRole",
      "outputs": [
        {
          "internalType": "bool",
          "name": "",
          "type": "bool"
        }
      ],
      "stateMutability": "view",
      "type": "function"
    },
    {
      "inputs": [
        {
          "internalType": "address[]",
          "name": "accounts",
          "type": "address[]"
        },
        {
          "internalType": "bytes32[]",
          "name": "roles",
          "type": "bytes32[]"
        }
      ],
      "name": "initialize",
      "outputs": [],
      "stateMutability": "nonpayable",
      "type": "function"
    },
    {
      "inputs": [
        {
          "internalType": "address",
          "name": "",
          "type": "address"
        }
      ],
      "name": "internalAllowlist",
      "outputs": [
        {
          "internalType": "bool",
          "name": "",
          "type": "bool"
        }
      ],
      "stateMutability": "view",
      "type": "function"
    },
    {
      "inputs": [
        {
          "internalType": "address",
          "name": "",
          "type": "address"
        }
      ],
      "name": "internalBlocklist",
      "outputs": [
        {
          "internalType": "bool",
          "name": "",
          "type": "bool"
        }
      ],
      "stateMutability": "view",
      "type": "function"
    },
    {
      "inputs": [
        {
          "internalType": "string",
          "name": "",
          "type": "string"
        }
      ],
      "name": "methodologies",
      "outputs": [
        {
          "internalType": "bool",
          "name": "",
          "type": "bool"
        }
      ],
      "stateMutability": "view",
      "type": "function"
    },
    {
      "inputs": [],
      "name": "methodologiesIsAcceptedMapping",
      "outputs": [
        {
          "internalType": "bool",
          "name": "",
          "type": "bool"
        }
      ],
      "stateMutability": "view",
      "type": "function"
    },
    {
      "inputs": [],
      "name": "minimumVintageStartTime",
      "outputs": [
        {
          "internalType": "uint64",
          "name": "",
          "type": "uint64"
        }
      ],
      "stateMutability": "view",
      "type": "function"
    },
    {
      "inputs": [],
      "name": "owner",
      "outputs": [
        {
          "internalType": "address",
          "name": "",
          "type": "address"
        }
      ],
      "stateMutability": "view",
      "type": "function"
    },
    {
      "inputs": [],
      "name": "paused",
      "outputs": [
        {
          "internalType": "bool",
          "name": "",
          "type": "bool"
        }
      ],
      "stateMutability": "view",
      "type": "function"
    },
    {
      "inputs": [],
      "name": "proxiableUUID",
      "outputs": [
        {
          "internalType": "bytes32",
          "name": "",
          "type": "bytes32"
        }
      ],
      "stateMutability": "view",
      "type": "function"
    },
    {
      "inputs": [
        {
          "internalType": "string",
          "name": "",
          "type": "string"
        }
      ],
      "name": "regions",
      "outputs": [
        {
          "internalType": "bool",
          "name": "",
          "type": "bool"
        }
      ],
      "stateMutability": "view",
      "type": "function"
    },
    {
      "inputs": [],
      "name": "regionsIsAcceptedMapping",
      "outputs": [
        {
          "internalType": "bool",
          "name": "",
          "type": "bool"
        }
      ],
      "stateMutability": "view",
      "type": "function"
    },
    {
      "inputs": [
        {
          "internalType": "address[]",
          "name": "erc20Addr",
          "type": "address[]"
        }
      ],
      "name": "removeFromExternalAllowlist",
      "outputs": [],
      "stateMutability": "nonpayable",
      "type": "function"
    },
    {
      "inputs": [
        {
          "internalType": "address[]",
          "name": "tokenAddresses",
          "type": "address[]"
        },
        {
          "internalType": "uint256[]",
          "name": "tokenIds",
          "type": "uint256[]"
        }
      ],
      "name": "removeFromExternalERC1155Allowlist",
      "outputs": [],
      "stateMutability": "nonpayable",
      "type": "function"
    },
    {
      "inputs": [
        {
          "internalType": "address[]",
          "name": "erc20Addr",
          "type": "address[]"
        }
      ],
      "name": "removeFromInternalAllowlist",
      "outputs": [],
      "stateMutability": "nonpayable",
      "type": "function"
    },
    {
      "inputs": [
        {
          "internalType": "address[]",
          "name": "erc20Addr",
          "type": "address[]"
        }
      ],
      "name": "removeFromInternalBlocklist",
      "outputs": [],
      "stateMutability": "nonpayable",
      "type": "function"
    },
    {
      "inputs": [],
      "name": "renounceOwnership",
      "outputs": [],
      "stateMutability": "nonpayable",
      "type": "function"
    },
    {
      "inputs": [
        {
          "internalType": "bytes32",
          "name": "role",
          "type": "bytes32"
        },
        {
          "internalType": "address",
          "name": "account",
          "type": "address"
        }
      ],
      "name": "renounceRole",
      "outputs": [],
      "stateMutability": "nonpayable",
      "type": "function"
    },
    {
      "inputs": [
        {
          "internalType": "bytes32",
          "name": "role",
          "type": "bytes32"
        },
        {
          "internalType": "address",
          "name": "account",
          "type": "address"
        }
      ],
      "name": "revokeRole",
      "outputs": [],
      "stateMutability": "nonpayable",
      "type": "function"
    },
    {
      "inputs": [
        {
          "internalType": "uint64",
          "name": "_minimumVintageStartTime",
          "type": "uint64"
        }
      ],
      "name": "setMinimumVintageStartTime",
      "outputs": [],
      "stateMutability": "nonpayable",
      "type": "function"
    },
    {
      "inputs": [
        {
          "internalType": "address",
          "name": "_address",
          "type": "address"
        }
      ],
      "name": "setToucanContractRegistry",
      "outputs": [],
      "stateMutability": "nonpayable",
      "type": "function"
    },
    {
      "inputs": [
        {
          "internalType": "string",
          "name": "",
          "type": "string"
        }
      ],
      "name": "standards",
      "outputs": [
        {
          "internalType": "bool",
          "name": "",
          "type": "bool"
        }
      ],
      "stateMutability": "view",
      "type": "function"
    },
    {
      "inputs": [],
      "name": "standardsIsAcceptedMapping",
      "outputs": [
        {
          "internalType": "bool",
          "name": "",
          "type": "bool"
        }
      ],
      "stateMutability": "view",
      "type": "function"
    },
    {
      "inputs": [
        {
          "internalType": "bytes4",
          "name": "interfaceId",
          "type": "bytes4"
        }
      ],
      "name": "supportsInterface",
      "outputs": [
        {
          "internalType": "bool",
          "name": "",
          "type": "bool"
        }
      ],
      "stateMutability": "view",
      "type": "function"
    },
    {
      "inputs": [
        {
          "internalType": "string",
          "name": "_mappingName",
          "type": "string"
        },
        {
          "internalType": "bool",
          "name": "accepted",
          "type": "bool"
        }
      ],
      "name": "switchMapping",
      "outputs": [],
      "stateMutability": "nonpayable",
      "type": "function"
    },
    {
      "inputs": [
        {
          "internalType": "address",
          "name": "newOwner",
          "type": "address"
        }
      ],
      "name": "transferOwnership",
      "outputs": [],
      "stateMutability": "nonpayable",
      "type": "function"
    },
    {
      "inputs": [
        {
          "internalType": "address",
          "name": "newImplementation",
          "type": "address"
        }
      ],
      "name": "upgradeTo",
      "outputs": [],
      "stateMutability": "nonpayable",
      "type": "function"
    },
    {
      "inputs": [
        {
          "internalType": "address",
          "name": "newImplementation",
          "type": "address"
        },
        {
          "internalType": "bytes",
          "name": "data",
          "type": "bytes"
        }
      ],
      "name": "upgradeToAndCall",
      "outputs": [],
      "stateMutability": "payable",
      "type": "function"
    }
  ],
  "numDeployments": 1,
  "solcInputHash": "21ae5f70988e66da4bff33b9b6a2fdaf",
  "bytecode": "0x60a0604052306080523480156200001557600080fd5b506200002062000026565b620000e7565b600054610100900460ff1615620000935760405162461bcd60e51b815260206004820152602760248201527f496e697469616c697a61626c653a20636f6e747261637420697320696e697469604482015266616c697a696e6760c81b606482015260840160405180910390fd5b60005460ff90811614620000e5576000805460ff191660ff9081179091556040519081527f7f26b83ff96e1f2b6a682f133852f6798a09c465da95921460cefb38474024989060200160405180910390a15b565b6080516137cf6200011f60003960008181610a3301528181610a7301528181610dfa01528181610e3a0152610ec901526137cf6000f3fe6080604052600436106102675760003560e01c80639deb50bf11610144578063d4e457ec116100b6578063e882e37b1161007a578063e882e37b146107cf578063f141b84f146107ef578063f2fde38b14610811578063f3edb9ec14610831578063f75991cd1461086d578063ffa1ad74146108a957600080fd5b8063d4e457ec1461072d578063d547741f1461074f578063d6d10f3a1461076f578063dc5f560e1461078f578063e0051e2a146107af57600080fd5b8063abf410e511610108578063abf410e514610659578063bab5adc31461067a578063bd64648e1461069a578063c36a2573146106ba578063c42f358a146106dc578063ccbaa818146106fc57600080fd5b80639deb50bf1461057b578063a1631e4b1461059b578063a217fddf146105db578063a9a484c5146105f0578063abd840211461061d57600080fd5b80635c975abb116101dd578063850c3864116101a1578063850c38641461048d5780638662522f146104ad5780638da5cb5b146104e957806391d148541461051b57806395f187a51461053b5780639891fd121461055b57600080fd5b80635c975abb146103fa57806365918979146104125780636ca0b0d714610443578063715018a61461045857806381e48e901461046d57600080fd5b80633659cfe61161022f5780633659cfe61461034157806336c63c701461036157806339cd7a8a14610392578063437d0366146103b25780634f1ef286146103d257806352d1902d146103e557600080fd5b806301ffc9a71461026c5780630c0efecc146102a1578063248a9ca3146102c35780632f2ff15d1461030157806336568abe14610321575b600080fd5b34801561027857600080fd5b5061028c610287366004612b0b565b6108da565b60405190151581526020015b60405180910390f35b3480156102ad57600080fd5b506102c16102bc366004612b4a565b610911565b005b3480156102cf57600080fd5b506102f36102de366004612b67565b600090815260c9602052604090206001015490565b604051908152602001610298565b34801561030d57600080fd5b506102c161031c366004612b95565b61097c565b34801561032d57600080fd5b506102c161033c366004612b95565b6109a6565b34801561034d57600080fd5b506102c161035c366004612bc5565b610a29565b34801561036d57600080fd5b5061028c61037c366004612bc5565b6101646020526000908152604090205460ff1681565b34801561039e57600080fd5b506102c16103ad366004612d07565b610b08565b3480156103be57600080fd5b506102c16103cd366004612d98565b610c7c565b6102c16103e0366004612e03565b610df0565b3480156103f157600080fd5b506102f3610ebc565b34801561040657600080fd5b5060655460ff1661028c565b34801561041e57600080fd5b5061028c61042d366004612bc5565b6101636020526000908152604090205460ff1681565b34801561044f57600080fd5b506102f3600181565b34801561046457600080fd5b506102c1610f6f565b34801561047957600080fd5b506102c1610488366004612f13565b610f83565b34801561049957600080fd5b506102c16104a8366004612fad565b6113de565b3480156104b957600080fd5b5061028c6104c8366004613046565b805160208183018101805161015f8252928201919093012091525460ff1681565b3480156104f557600080fd5b506033546001600160a01b03165b6040516001600160a01b039091168152602001610298565b34801561052757600080fd5b5061028c610536366004612b95565b6114b9565b34801561054757600080fd5b506102c1610556366004612fad565b6114e4565b34801561056757600080fd5b506102c1610576366004612fad565b6115bf565b34801561058757600080fd5b506102c1610596366004612fad565b61169a565b3480156105a757600080fd5b50610165546105c390600160a01b90046001600160401b031681565b6040516001600160401b039091168152602001610298565b3480156105e757600080fd5b506102f3600081565b3480156105fc57600080fd5b5061061061060b366004612bc5565b611775565b60405161029891906130d2565b34801561062957600080fd5b5061028c6106383660046130e5565b61016660209081526000928352604080842090915290825290205460ff1681565b34801561066557600080fd5b5061016554610503906001600160a01b031681565b34801561068657600080fd5b506102c1610695366004612d98565b611a45565b3480156106a657600080fd5b506106106106b53660046130e5565b611b16565b3480156106c657600080fd5b506101655461028c90600160e81b900460ff1681565b3480156106e857600080fd5b506102c16106f7366004612fad565b611b79565b34801561070857600080fd5b5061028c610717366004612bc5565b6101626020526000908152604090205460ff1681565b34801561073957600080fd5b506101655461028c90600160f01b900460ff1681565b34801561075b57600080fd5b506102c161076a366004612b95565b611c54565b34801561077b57600080fd5b506102c161078a366004612fad565b611c79565b34801561079b57600080fd5b506106106107aa366004612bc5565b611d54565b3480156107bb57600080fd5b506102c16107ca366004612d98565b611eaf565b3480156107db57600080fd5b506102c16107ea366004612bc5565b61201b565b3480156107fb57600080fd5b506101655461028c90600160e01b900460ff1681565b34801561081d57600080fd5b506102c161082c366004612bc5565b612072565b34801561083d57600080fd5b5061028c61084c366004613046565b80516020818301810180516101608252928201919093012091525460ff1681565b34801561087957600080fd5b5061028c610888366004613046565b80516020818301810180516101618252928201919093012091525460ff1681565b3480156108b557600080fd5b50610610604051806040016040528060058152602001640312e302e360dc1b81525081565b60006001600160e01b03198216637965db0b60e01b148061090b57506301ffc9a760e01b6001600160e01b03198316145b92915050565b6109196120e8565b610165805467ffffffffffffffff60a01b1916600160a01b6001600160401b038416908102919091179091556040519081527f87f670402a6c72fff3b60ba5223165f062b58d671871fc2c49ea96101fdd19a0906020015b60405180910390a150565b600082815260c960205260409020600101546109978161213e565b6109a18383612148565b505050565b6001600160a01b0381163314610a1b5760405162461bcd60e51b815260206004820152602f60248201527f416363657373436f6e74726f6c3a2063616e206f6e6c792072656e6f756e636560448201526e103937b632b9903337b91039b2b63360891b60648201526084015b60405180910390fd5b610a2582826121ce565b5050565b6001600160a01b037f0000000000000000000000000000000000000000000000000000000000000000163003610a715760405162461bcd60e51b8152600401610a1290613111565b7f00000000000000000000000000000000000000000000000000000000000000006001600160a01b0316610aba600080516020613753833981519152546001600160a01b031690565b6001600160a01b031614610ae05760405162461bcd60e51b8152600401610a129061315d565b610ae981612235565b60408051600080825260208201909252610b059183919061223d565b50565b610b106120e8565b604080518082019091526007815266726567696f6e7360c81b6020820152610b399083906123a8565b15610b755780610b5857610165805460ff60e01b191690556000610b6f565b610165805460ff60e01b1916600160e01b17905560015b50610c3f565b6040805180820190915260098152687374616e646172647360b81b6020820152610ba09083906123a8565b15610bd85780610bbf57610165805460ff60e81b191690556000610b6f565b610165805460ff60e81b1916600160e81b179055610c3f565b60408051808201909152600d81526c6d6574686f646f6c6f6769657360981b6020820152610c079083906123a8565b15610c3f5780610c2657610165805460ff60f01b191690556000610c3d565b610165805460ff60f01b1916600160f01b17905560015b505b7fcdc35455a1217219a4240bb18a7d2978eb98208f22f7ec36d6a1381c28f9d0f58282604051610c709291906131a9565b60405180910390a15050565b610c846120e8565b82818114610cbc576040805180820182526002815261189960f11b6020820152905162461bcd60e51b8152610a1291906004016130d2565b60005b81811015610de85760016101666000888885818110610ce057610ce06131cd565b9050602002016020810190610cf59190612bc5565b6001600160a01b03166001600160a01b031681526020019081526020016000206000868685818110610d2957610d296131cd565b90506020020135815260200190815260200160002060006101000a81548160ff0219169083151502179055507f198e97d55459e132457f017a1cba6e960ac569ae89045a8b978702ffd7ea7977868683818110610d8857610d886131cd565b9050602002016020810190610d9d9190612bc5565b858584818110610daf57610daf6131cd565b604080516001600160a01b0390951685526020918202939093013590840152500160405180910390a1610de1816131f9565b9050610cbf565b505050505050565b6001600160a01b037f0000000000000000000000000000000000000000000000000000000000000000163003610e385760405162461bcd60e51b8152600401610a1290613111565b7f00000000000000000000000000000000000000000000000000000000000000006001600160a01b0316610e81600080516020613753833981519152546001600160a01b031690565b6001600160a01b031614610ea75760405162461bcd60e51b8152600401610a129061315d565b610eb082612235565b610a258282600161223d565b6000306001600160a01b037f00000000000000000000000000000000000000000000000000000000000000001614610f5c5760405162461bcd60e51b815260206004820152603860248201527f555550535570677261646561626c653a206d757374206e6f742062652063616c60448201527f6c6564207468726f7567682064656c656761746563616c6c00000000000000006064820152608401610a12565b5060008051602061375383398151915290565b610f776123c5565b610f81600061241f565b565b610f8b6120e8565b60005b82518110156110f957841515600103611047576001610160848381518110610fb857610fb86131cd565b6020026020010151604051610fcd9190613212565b908152602001604051809103902060006101000a81548160ff0219169083151502179055507fa27e97999993c298fae0b7088ff732fe078cc1585665ee1554220b3cbe6317a9838281518110611025576110256131cd565b602002602001015160405161103a91906130d2565b60405180910390a16110e9565b600061016084838151811061105e5761105e6131cd565b60200260200101516040516110739190613212565b908152602001604051809103902060006101000a81548160ff0219169083151502179055507f0127ddc00426c693b5becb26ba43a260c781ebc323b61d3b24b61e4dc5c93c718382815181106110cb576110cb6131cd565b60200260200101516040516110e091906130d2565b60405180910390a15b6110f2816131f9565b9050610f8e565b5060005b8151811015611268578415156001036111b6576001610161838381518110611127576111276131cd565b602002602001015160405161113c9190613212565b908152602001604051809103902060006101000a81548160ff0219169083151502179055507f156643e9a7f860e95993739893595e6ee1d04d9ff1b98567dbe9d5681cd152b2828281518110611194576111946131cd565b60200260200101516040516111a991906130d2565b60405180910390a1611258565b60006101618383815181106111cd576111cd6131cd565b60200260200101516040516111e29190613212565b908152602001604051809103902060006101000a81548160ff0219169083151502179055507f21a77ac4edf49633047cc4e32b10dfe633811216214400e0e1f507c3f7287b6182828151811061123a5761123a6131cd565b602002602001015160405161124f91906130d2565b60405180910390a15b611261816131f9565b90506110fd565b5060005b83518110156113d75784151560010361132557600161015f858381518110611296576112966131cd565b60200260200101516040516112ab9190613212565b908152602001604051809103902060006101000a81548160ff0219169083151502179055507f3df7a1330febee3646ae4a0f0e46c94c046f0ee810b2b7f1fa10fa8f34d7b7ef848281518110611303576113036131cd565b602002602001015160405161131891906130d2565b60405180910390a16113c7565b600061015f85838151811061133c5761133c6131cd565b60200260200101516040516113519190613212565b908152602001604051809103902060006101000a81548160ff0219169083151502179055507fc84badb33408cce6e89b30a735d8f06e094fa4a19c01c2da66718f490c672f658482815181106113a9576113a96131cd565b60200260200101516040516113be91906130d2565b60405180910390a15b6113d0816131f9565b905061126c565b5050505050565b6113e66120e8565b60005b8151811015610a25576001610164600084848151811061140b5761140b6131cd565b60200260200101516001600160a01b03166001600160a01b0316815260200190815260200160002060006101000a81548160ff0219169083151502179055507f85fc56aecce1ef094be244fd6b70c13cbc3786dacfb5ddb457eaa6e81924b67282828151811061147d5761147d6131cd565b60200260200101516040516114a191906001600160a01b0391909116815260200190565b60405180910390a16114b2816131f9565b90506113e9565b600091825260c9602090815260408084206001600160a01b0393909316845291905290205460ff1690565b6114ec6120e8565b60005b8151811015610a255760016101626000848481518110611511576115116131cd565b60200260200101516001600160a01b03166001600160a01b0316815260200190815260200160002060006101000a81548160ff0219169083151502179055507f96c62648e20245db42813046d53ed1697aab1c1a06b53092fd5f74f76d9f0e13828281518110611583576115836131cd565b60200260200101516040516115a791906001600160a01b0391909116815260200190565b60405180910390a16115b8816131f9565b90506114ef565b6115c76120e8565b60005b8151811015610a2557600061016260008484815181106115ec576115ec6131cd565b60200260200101516001600160a01b03166001600160a01b0316815260200190815260200160002060006101000a81548160ff0219169083151502179055507f25add64d709821cd4d2f0456865755a330b78c8fb0f438088364f480710acc4082828151811061165e5761165e6131cd565b602002602001015160405161168291906001600160a01b0391909116815260200190565b60405180910390a1611693816131f9565b90506115ca565b6116a26120e8565b60005b8151811015610a2557600061016360008484815181106116c7576116c76131cd565b60200260200101516001600160a01b03166001600160a01b0316815260200190815260200160002060006101000a81548160ff0219169083151502179055507f8c23715cef0c44b9a0c13ba0edb2d13490a2ff75434e8dc238e3dfce2896b233828281518110611739576117396131cd565b602002602001015160405161175d91906001600160a01b0391909116815260200190565b60405180910390a161176e816131f9565b90506116a5565b60606117d660405180610140016040528060608152602001606081526020016060815260200160608152602001606081526020016060815260200160608152602001606081526020016060815260200160006001600160a01b031681525090565b6118596040518061018001604052806060815260200160006001600160401b0316815260200160006001600160401b031681526020016000815260200160006001600160401b0316815260200160001515815260200160001515815260200160608152602001606081526020016060815260200160608152602001606081525090565b836001600160a01b031663152583de6040518163ffffffff1660e01b8152600401600060405180830381865afa158015611897573d6000803e3d6000fd5b505050506040513d6000823e601f3d908101601f191682016040526118bf9190810190613403565b6101655460208201519294509092506001600160401b03600160a01b9091048116911610156119085750506040805180820190915260018152601b60f91b602082015292915050565b610165601c9054906101000a900460ff16151561015f83606001516040516119309190613212565b9081526040519081900360200190205460ff1615151461196a5750506040805180820190915260018152603760f81b602082015292915050565b610165601d9054906101000a900460ff16151561016083602001516040516119929190613212565b9081526040519081900360200190205460ff161515146119cc5750506040805180820190915260018152600760fb1b602082015292915050565b610165601e9054906101000a900460ff16151561016183604001516040516119f49190613212565b9081526040519081900360200190205460ff16151514611a2e5750506040805180820190915260018152603960f81b602082015292915050565b505060408051602081019091526000815292915050565b600054610100900460ff1615808015611a655750600054600160ff909116105b80611a7f5750303b158015611a7f575060005460ff166001145b611a9b5760405162461bcd60e51b8152600401610a12906135c0565b6000805460ff191660011790558015611abe576000805461ff0019166101001790555b611aca85858585612471565b80156113d7576000805461ff0019169055604051600181527f7f26b83ff96e1f2b6a682f133852f6798a09c465da95921460cefb38474024989060200160405180910390a15050505050565b6001600160a01b03821660009081526101666020908152604080832084845290915290205460609060ff16611b6357506040805180820190915260018152603560f81b602082015261090b565b5060408051602081019091526000815292915050565b611b816120e8565b60005b8151811015610a255760016101636000848481518110611ba657611ba66131cd565b60200260200101516001600160a01b03166001600160a01b0316815260200190815260200160002060006101000a81548160ff0219169083151502179055507f6e22096f78ca0e0ca190f9724d8a2ded2155ade3a469817cb9e95989a5124823828281518110611c1857611c186131cd565b6020026020010151604051611c3c91906001600160a01b0391909116815260200190565b60405180910390a1611c4d816131f9565b9050611b84565b600082815260c96020526040902060010154611c6f8161213e565b6109a183836121ce565b611c816120e8565b60005b8151811015610a255760006101646000848481518110611ca657611ca66131cd565b60200260200101516001600160a01b03166001600160a01b0316815260200190815260200160002060006101000a81548160ff0219169083151502179055507f4a522111770e286506eab11ca1d3cb5ca4a24a84458affbb5372bec78340102e828281518110611d1857611d186131cd565b6020026020010151604051611d3c91906001600160a01b0391909116815260200190565b60405180910390a1611d4d816131f9565b9050611c84565b61016554604051633a37b16d60e11b81526001600160a01b03838116600483015260609260009291169063746f62da90602401602060405180830381865afa158015611da4573d6000803e3d6000fd5b505050506040513d601f19601f82011682018060405250810190611dc8919061360e565b90508015611e59576001600160a01b0383166000908152610163602052604090205460ff1615611e08575050604080516020810190915260008152919050565b6001600160a01b0383166000908152610164602052604090205460ff1615611e495750506040805180820190915260018152600d60fa1b6020820152919050565b611e5283611775565b9392505050565b6001600160a01b0383166000908152610162602052604090205460ff16611e995750506040805180820190915260018152603560f81b6020820152919050565b5050604080516020810190915260008152919050565b611eb76120e8565b82818114611eef576040805180820182526002815261189960f11b6020820152905162461bcd60e51b8152610a1291906004016130d2565b60005b81811015610de85760006101666000888885818110611f1357611f136131cd565b9050602002016020810190611f289190612bc5565b6001600160a01b03166001600160a01b031681526020019081526020016000206000868685818110611f5c57611f5c6131cd565b90506020020135815260200190815260200160002060006101000a81548160ff0219169083151502179055507ff62e4e7e6461caa7928ab1decfa538ceda320c494d2e23ecf29dc5a11a24bdcd868683818110611fbb57611fbb6131cd565b9050602002016020810190611fd09190612bc5565b858584818110611fe257611fe26131cd565b604080516001600160a01b0390951685526020918202939093013590840152500160405180910390a1612014816131f9565b9050611ef2565b6120236120e8565b61016580546001600160a01b0319166001600160a01b0383169081179091556040519081527f86907b53cf2024579968511876daf0b4620d65803b550e33101baf70aeb6f5eb90602001610971565b61207a6123c5565b6001600160a01b0381166120df5760405162461bcd60e51b815260206004820152602660248201527f4f776e61626c653a206e6577206f776e657220697320746865207a65726f206160448201526564647265737360d01b6064820152608401610a12565b610b058161241f565b336120fb6033546001600160a01b031690565b6001600160a01b03161460405180604001604052806002815260200161062760f31b81525090610b055760405162461bcd60e51b8152600401610a1291906130d2565b610b058133612516565b61215282826114b9565b610a2557600082815260c9602090815260408083206001600160a01b03851684529091529020805460ff1916600117905561218a3390565b6001600160a01b0316816001600160a01b0316837f2f8788117e7eff1d82e926ec794901d17c78024a50270940304540a733656f0d60405160405180910390a45050565b6121d882826114b9565b15610a2557600082815260c9602090815260408083206001600160a01b0385168085529252808320805460ff1916905551339285917ff6391f5c32d9c69d2a47ea670b442974b53935d1edc7fd64eb21e047a839171b9190a45050565b610b056120e8565b7f4910fdfa16fed3260ed0e7147f7cc6da11a60208b5b9406d12a635614ffd91435460ff1615612270576109a18361256f565b826001600160a01b03166352d1902d6040518163ffffffff1660e01b8152600401602060405180830381865afa9250505080156122ca575060408051601f3d908101601f191682019092526122c79181019061362b565b60015b61232d5760405162461bcd60e51b815260206004820152602e60248201527f45524331393637557067726164653a206e657720696d706c656d656e7461746960448201526d6f6e206973206e6f74205555505360901b6064820152608401610a12565b600080516020613753833981519152811461239c5760405162461bcd60e51b815260206004820152602960248201527f45524331393637557067726164653a20756e737570706f727465642070726f786044820152681a58589b195555525160ba1b6064820152608401610a12565b506109a183838361260b565b6000611e5283838051602091820120825192909101919091201490565b6033546001600160a01b03163314610f815760405162461bcd60e51b815260206004820181905260248201527f4f776e61626c653a2063616c6c6572206973206e6f7420746865206f776e65726044820152606401610a12565b603380546001600160a01b038381166001600160a01b0319831681179093556040519116919082907f8be0079c531659141344cd1fd0a4f28419497f9722a3daafe3b4186f6b6457e090600090a35050565b600054610100900460ff16158080156124915750600054600160ff909116105b806124ab5750303b1580156124ab575060005460ff166001145b6124c75760405162461bcd60e51b8152600401610a12906135c0565b6000805460ff1916600117905580156124ea576000805461ff0019166101001790555b6124f2612636565b6124fa61265d565b61250261268d565b61250e858585856126c0565b611aca612636565b61252082826114b9565b610a255761252d816127db565b6125388360206127ed565b604051602001612549929190613644565b60408051601f198184030181529082905262461bcd60e51b8252610a12916004016130d2565b6001600160a01b0381163b6125dc5760405162461bcd60e51b815260206004820152602d60248201527f455243313936373a206e657720696d706c656d656e746174696f6e206973206e60448201526c1bdd08184818dbdb9d1c9858dd609a1b6064820152608401610a12565b60008051602061375383398151915280546001600160a01b0319166001600160a01b0392909216919091179055565b61261483612988565b6000825111806126215750805b156109a15761263083836129c8565b50505050565b600054610100900460ff16610f815760405162461bcd60e51b8152600401610a12906136b9565b600054610100900460ff166126845760405162461bcd60e51b8152600401610a12906136b9565b610f813361241f565b600054610100900460ff166126b45760405162461bcd60e51b8152600401610a12906136b9565b6065805460ff19169055565b8281146127075760405162461bcd60e51b8152602060048201526015602482015274082e4e4c2f240d8cadccee8d040dad2e6dac2e8c6d605b1b6044820152606401610a12565b61270f612636565b6000805b8481101561279857612763848483818110612730576127306131cd565b90506020020135878784818110612749576127496131cd565b905060200201602081019061275e9190612bc5565b612148565b6000848483818110612777576127776131cd565b905060200201350361278857600191505b612791816131f9565b9050612713565b50806113d75760405162461bcd60e51b8152602060048201526012602482015271139bc818591b5a5b881cdc1958da599a595960721b6044820152606401610a12565b606061090b6001600160a01b03831660145b606060006127fc836002613704565b612807906002613723565b6001600160401b0381111561281e5761281e612be2565b6040519080825280601f01601f191660200182016040528015612848576020820181803683370190505b509050600360fc1b81600081518110612863576128636131cd565b60200101906001600160f81b031916908160001a905350600f60fb1b81600181518110612892576128926131cd565b60200101906001600160f81b031916908160001a90535060006128b6846002613704565b6128c1906001613723565b90505b6001811115612939576f181899199a1a9b1b9c1cb0b131b232b360811b85600f16601081106128f5576128f56131cd565b1a60f81b82828151811061290b5761290b6131cd565b60200101906001600160f81b031916908160001a90535060049490941c936129328161373b565b90506128c4565b508315611e525760405162461bcd60e51b815260206004820181905260248201527f537472696e67733a20686578206c656e67746820696e73756666696369656e746044820152606401610a12565b6129918161256f565b6040516001600160a01b038216907fbc7cd75a20ee27fd9adebab32041f755214dbc6bffa90cc0225b39da2e5c2d3b90600090a250565b6060611e528383604051806060016040528060278152602001613773602791396060600080856001600160a01b031685604051612a059190613212565b600060405180830381855af49150503d8060008114612a40576040519150601f19603f3d011682016040523d82523d6000602084013e612a45565b606091505b5091509150612a5686838387612a60565b9695505050505050565b60608315612acf578251600003612ac8576001600160a01b0385163b612ac85760405162461bcd60e51b815260206004820152601d60248201527f416464726573733a2063616c6c20746f206e6f6e2d636f6e74726163740000006044820152606401610a12565b5081612ad9565b612ad98383612ae1565b949350505050565b815115612af15781518083602001fd5b8060405162461bcd60e51b8152600401610a1291906130d2565b600060208284031215612b1d57600080fd5b81356001600160e01b031981168114611e5257600080fd5b6001600160401b0381168114610b0557600080fd5b600060208284031215612b5c57600080fd5b8135611e5281612b35565b600060208284031215612b7957600080fd5b5035919050565b6001600160a01b0381168114610b0557600080fd5b60008060408385031215612ba857600080fd5b823591506020830135612bba81612b80565b809150509250929050565b600060208284031215612bd757600080fd5b8135611e5281612b80565b634e487b7160e01b600052604160045260246000fd5b60405161018081016001600160401b0381118282101715612c1b57612c1b612be2565b60405290565b60405161014081016001600160401b0381118282101715612c1b57612c1b612be2565b604051601f8201601f191681016001600160401b0381118282101715612c6c57612c6c612be2565b604052919050565b60006001600160401b03821115612c8d57612c8d612be2565b50601f01601f191660200190565b6000612cae612ca984612c74565b612c44565b9050828152838383011115612cc257600080fd5b828260208301376000602084830101529392505050565b600082601f830112612cea57600080fd5b611e5283833560208501612c9b565b8015158114610b0557600080fd5b60008060408385031215612d1a57600080fd5b82356001600160401b03811115612d3057600080fd5b612d3c85828601612cd9565b9250506020830135612bba81612cf9565b60008083601f840112612d5f57600080fd5b5081356001600160401b03811115612d7657600080fd5b6020830191508360208260051b8501011115612d9157600080fd5b9250929050565b60008060008060408587031215612dae57600080fd5b84356001600160401b0380821115612dc557600080fd5b612dd188838901612d4d565b90965094506020870135915080821115612dea57600080fd5b50612df787828801612d4d565b95989497509550505050565b60008060408385031215612e1657600080fd5b8235612e2181612b80565b915060208301356001600160401b03811115612e3c57600080fd5b8301601f81018513612e4d57600080fd5b612e5c85823560208401612c9b565b9150509250929050565b60006001600160401b03821115612e7f57612e7f612be2565b5060051b60200190565b600082601f830112612e9a57600080fd5b81356020612eaa612ca983612e66565b82815260059290921b84018101918181019086841115612ec957600080fd5b8286015b84811015612f085780356001600160401b03811115612eec5760008081fd5b612efa8986838b0101612cd9565b845250918301918301612ecd565b509695505050505050565b60008060008060808587031215612f2957600080fd5b8435612f3481612cf9565b935060208501356001600160401b0380821115612f5057600080fd5b612f5c88838901612e89565b94506040870135915080821115612f7257600080fd5b612f7e88838901612e89565b93506060870135915080821115612f9457600080fd5b50612fa187828801612e89565b91505092959194509250565b60006020808385031215612fc057600080fd5b82356001600160401b03811115612fd657600080fd5b8301601f81018513612fe757600080fd5b8035612ff5612ca982612e66565b81815260059190911b8201830190838101908783111561301457600080fd5b928401925b8284101561303b57833561302c81612b80565b82529284019290840190613019565b979650505050505050565b60006020828403121561305857600080fd5b81356001600160401b0381111561306e57600080fd5b612ad984828501612cd9565b60005b8381101561309557818101518382015260200161307d565b838111156126305750506000910152565b600081518084526130be81602086016020860161307a565b601f01601f19169290920160200192915050565b602081526000611e5260208301846130a6565b600080604083850312156130f857600080fd5b823561310381612b80565b946020939093013593505050565b6020808252602c908201527f46756e6374696f6e206d7573742062652063616c6c6564207468726f7567682060408201526b19195b1959d85d1958d85b1b60a21b606082015260800190565b6020808252602c908201527f46756e6374696f6e206d7573742062652063616c6c6564207468726f7567682060408201526b6163746976652070726f787960a01b606082015260800190565b6040815260006131bc60408301856130a6565b905082151560208301529392505050565b634e487b7160e01b600052603260045260246000fd5b634e487b7160e01b600052601160045260246000fd5b60006001820161320b5761320b6131e3565b5060010190565b6000825161322481846020870161307a565b9190910192915050565b600082601f83011261323f57600080fd5b815161324d612ca982612c74565b81815284602083860101111561326257600080fd5b612ad982602083016020870161307a565b805161327e81612b80565b919050565b805161327e81612b35565b805161327e81612cf9565b600061018082840312156132ac57600080fd5b6132b4612bf8565b905081516001600160401b03808211156132cd57600080fd5b6132d98583860161322e565b83526132e760208501613283565b60208401526132f860408501613283565b60408401526060840151606084015261331360808501613283565b608084015261332460a0850161328e565b60a084015261333560c0850161328e565b60c084015260e084015191508082111561334e57600080fd5b61335a8583860161322e565b60e08401526101009150818401518181111561337557600080fd5b6133818682870161322e565b83850152506101209150818401518181111561339c57600080fd5b6133a88682870161322e565b8385015250610140915081840151818111156133c357600080fd5b6133cf8682870161322e565b8385015250610160915081840151818111156133ea57600080fd5b6133f68682870161322e565b8385015250505092915050565b6000806040838503121561341657600080fd5b82516001600160401b038082111561342d57600080fd5b90840190610140828703121561344257600080fd5b61344a612c21565b82518281111561345957600080fd5b6134658882860161322e565b82525060208301518281111561347a57600080fd5b6134868882860161322e565b60208301525060408301518281111561349e57600080fd5b6134aa8882860161322e565b6040830152506060830151828111156134c257600080fd5b6134ce8882860161322e565b6060830152506080830151828111156134e657600080fd5b6134f28882860161322e565b60808301525060a08301518281111561350a57600080fd5b6135168882860161322e565b60a08301525060c08301518281111561352e57600080fd5b61353a8882860161322e565b60c08301525060e08301518281111561355257600080fd5b61355e8882860161322e565b60e083015250610100808401518381111561357857600080fd5b6135848982870161322e565b828401525050610120613598818501613273565b9082015260208601519094509150808211156135b357600080fd5b50612e5c85828601613299565b6020808252602e908201527f496e697469616c697a61626c653a20636f6e747261637420697320616c72656160408201526d191e481a5b9a5d1a585b1a5e995960921b606082015260800190565b60006020828403121561362057600080fd5b8151611e5281612cf9565b60006020828403121561363d57600080fd5b5051919050565b7f416363657373436f6e74726f6c3a206163636f756e742000000000000000000081526000835161367c81601785016020880161307a565b7001034b99036b4b9b9b4b733903937b6329607d1b60179184019182015283516136ad81602884016020880161307a565b01602801949350505050565b6020808252602b908201527f496e697469616c697a61626c653a20636f6e7472616374206973206e6f74206960408201526a6e697469616c697a696e6760a81b606082015260800190565b600081600019048311821515161561371e5761371e6131e3565b500290565b60008219821115613736576137366131e3565b500190565b60008161374a5761374a6131e3565b50600019019056fe360894a13ba1a3210667c828492db98dca3e2076cc3735a920a3ca505d382bbc416464726573733a206c6f772d6c6576656c2064656c65676174652063616c6c206661696c6564a2646970667358221220c8ee69ba9bfdf347ab80b07d946c7482903073f7bee60630ee777015a281bbb764736f6c634300080e0033",
  "devdoc": {
    "kind": "dev",
    "methods": {
      "addAttributes(bool,string[],string[],string[])": {
        "params": {
          "addToList": "determines whether attribute should be added or removed Other params are arrays of attributes to be added"
        }
      },
      "addToExternalAllowlist(address[])": {
        "params": {
          "erc20Addr": "accepts an array of contract addresses"
        }
      },
      "addToExternalERC1155Allowlist(address[],uint256[])": {
        "details": "Both arrays must be of the same length. Each token address is associated with the token ID at the same index.",
        "params": {
          "tokenAddresses": "An array of contract addresses",
          "tokenIds": "An array of token IDs"
        }
      },
      "addToInternalAllowlist(address[])": {
        "params": {
          "erc20Addr": "accepts an array of contract addresses"
        }
      },
      "addToInternalBlocklist(address[])": {
        "params": {
          "erc20Addr": "accepts an array of contract addresses"
        }
      },
      "checkAttributeMatching(address)": {
        "params": {
          "erc20Addr": "The ERC20 token"
        },
        "returns": {
          "_0": "String with error code if any error occurs, else empty string"
        }
      },
      "checkERC1155Eligible(address,uint256)": {
        "params": {
          "tokenAddress": "address of the ERC1155 token",
          "tokenId": "ID of the ERC1155 token"
        },
        "returns": {
          "_0": "String with error code if any error occurs, else empty string"
        }
      },
      "checkEligible(address)": {
        "params": {
          "erc20Addr": "The ERC20 token"
        },
        "returns": {
          "_0": "String with error code if any error occurs, else empty string"
        }
      },
      "getRoleAdmin(bytes32)": {
        "details": "Returns the admin role that controls `role`. See {grantRole} and {revokeRole}. To change a role's admin, use {_setRoleAdmin}."
      },
      "grantRole(bytes32,address)": {
        "details": "Grants `role` to `account`. If `account` had not been already granted `role`, emits a {RoleGranted} event. Requirements: - the caller must have ``role``'s admin role. May emit a {RoleGranted} event."
      },
      "hasRole(bytes32,address)": {
        "details": "Returns `true` if `account` has been granted `role`."
      },
      "owner()": {
        "details": "Returns the address of the current owner."
      },
      "paused()": {
        "details": "Returns true if the contract is paused, and false otherwise."
      },
      "proxiableUUID()": {
        "details": "Implementation of the ERC1822 {proxiableUUID} function. This returns the storage slot used by the implementation. It is used to validate the implementation's compatibility when performing an upgrade. IMPORTANT: A proxy pointing at a proxiable contract should not be considered proxiable itself, because this risks bricking a proxy that upgrades to it, by delegating to itself until out of gas. Thus it is critical that this function revert if invoked through a proxy. This is guaranteed by the `notDelegated` modifier."
      },
      "removeFromExternalAllowlist(address[])": {
        "params": {
          "erc20Addr": "accepts an array of contract addresses"
        }
      },
      "removeFromExternalERC1155Allowlist(address[],uint256[])": {
        "details": "Both arrays must be of the same length. Each token address is associated with the token ID at the same index.",
        "params": {
          "tokenAddresses": "An array of contract addresses",
          "tokenIds": "An array of token IDs"
        }
      },
      "removeFromInternalAllowlist(address[])": {
        "params": {
          "erc20Addr": "accepts an array of contract addressesc"
        }
      },
      "removeFromInternalBlocklist(address[])": {
        "params": {
          "erc20Addr": "accepts an array of contract addresses"
        }
      },
      "renounceOwnership()": {
        "details": "Leaves the contract without owner. It will not be possible to call `onlyOwner` functions. Can only be called by the current owner. NOTE: Renouncing ownership will leave the contract without an owner, thereby disabling any functionality that is only available to the owner."
      },
      "renounceRole(bytes32,address)": {
        "details": "Revokes `role` from the calling account. Roles are often managed via {grantRole} and {revokeRole}: this function's purpose is to provide a mechanism for accounts to lose their privileges if they are compromised (such as when a trusted device is misplaced). If the calling account had been revoked `role`, emits a {RoleRevoked} event. Requirements: - the caller must be `account`. May emit a {RoleRevoked} event."
      },
      "revokeRole(bytes32,address)": {
        "details": "Revokes `role` from `account`. If `account` had been granted `role`, emits a {RoleRevoked} event. Requirements: - the caller must have ``role``'s admin role. May emit a {RoleRevoked} event."
      },
      "setMinimumVintageStartTime(uint64)": {
        "params": {
          "_minimumVintageStartTime": "unix time format"
        }
      },
      "supportsInterface(bytes4)": {
        "details": "See {IERC165-supportsInterface}."
      },
      "switchMapping(string,bool)": {
        "params": {
          "_mappingName": "attribute mapping of project-vintage data",
          "accepted": "determines if mapping works as a blocklist or allowlist"
        }
      },
      "transferOwnership(address)": {
        "details": "Transfers ownership of the contract to a new account (`newOwner`). Can only be called by the current owner."
      },
      "upgradeTo(address)": {
        "custom:oz-upgrades-unsafe-allow-reachable": "delegatecall",
        "details": "Upgrade the implementation of the proxy to `newImplementation`. Calls {_authorizeUpgrade}. Emits an {Upgraded} event."
      },
      "upgradeToAndCall(address,bytes)": {
        "custom:oz-upgrades-unsafe-allow-reachable": "delegatecall",
        "details": "Upgrade the implementation of the proxy to `newImplementation`, and subsequently execute the function call encoded in `data`. Calls {_authorizeUpgrade}. Emits an {Upgraded} event."
      }
    },
    "version": 1
  },
  "userdoc": {
    "kind": "user",
    "methods": {
      "addAttributes(bool,string[],string[],string[])": {
        "notice": "Function to add attributes for filtering (does not support complex AttributeSets)"
      },
      "addToExternalAllowlist(address[])": {
        "notice": "Function to allowlist selected external non-TCO2 contracts by their address"
      },
      "addToExternalERC1155Allowlist(address[],uint256[])": {
        "notice": "Add ERC-1155 tokens to external allowlist"
      },
      "addToInternalAllowlist(address[])": {
        "notice": "Function to allowlist certain TCO2 contracts by their address"
      },
      "addToInternalBlocklist(address[])": {
        "notice": "Function to blocklist certain TCO2 contracts by their address"
      },
      "checkAttributeMatching(address)": {
        "notice": "Checks whether incoming ERC20s match the accepted criteria/attributes"
      },
      "checkERC1155Eligible(address,uint256)": {
        "notice": "Checks if an ERC-1155 token is eligible for this pool"
      },
      "checkEligible(address)": {
        "notice": "Checks if an ERC20 token is eligible for this pool"
      },
      "removeFromExternalAllowlist(address[])": {
        "notice": "Function to remove ERC20 addresses from external allowlist"
      },
      "removeFromExternalERC1155Allowlist(address[],uint256[])": {
        "notice": "Remove ERC-1155 tokens from external allowlist"
      },
      "removeFromInternalAllowlist(address[])": {
        "notice": "Function to remove TCO2 addresses from internal allowlist"
      },
      "removeFromInternalBlocklist(address[])": {
        "notice": "Function to remove TCO2 addresses from internal blocklist"
      },
      "setMinimumVintageStartTime(uint64)": {
        "notice": "Determines the minimum vintage start time acceptance criteria of ERC20s"
      },
      "switchMapping(string,bool)": {
        "notice": "Generic function to switch attributes mappings into either acceptance or rejection criteria"
      }
    },
    "version": 1
  },
  "storageLayout": {
    "storage": [
      {
        "astId": 2373,
        "contract": "contracts/pools/NatureCarbonTonneFilter.sol:NatureCarbonTonneFilter",
        "label": "_initialized",
        "offset": 0,
        "slot": "0",
        "type": "t_uint8"
      },
      {
        "astId": 2376,
        "contract": "contracts/pools/NatureCarbonTonneFilter.sol:NatureCarbonTonneFilter",
        "label": "_initializing",
        "offset": 1,
        "slot": "0",
        "type": "t_bool"
      },
      {
        "astId": 7515,
        "contract": "contracts/pools/NatureCarbonTonneFilter.sol:NatureCarbonTonneFilter",
        "label": "__gap",
        "offset": 0,
        "slot": "1",
        "type": "t_array(t_uint256)50_storage"
      },
      {
        "astId": 1879,
        "contract": "contracts/pools/NatureCarbonTonneFilter.sol:NatureCarbonTonneFilter",
        "label": "_owner",
        "offset": 0,
        "slot": "51",
        "type": "t_address"
      },
      {
        "astId": 1999,
        "contract": "contracts/pools/NatureCarbonTonneFilter.sol:NatureCarbonTonneFilter",
        "label": "__gap",
        "offset": 0,
        "slot": "52",
        "type": "t_array(t_uint256)49_storage"
      },
      {
        "astId": 2694,
        "contract": "contracts/pools/NatureCarbonTonneFilter.sol:NatureCarbonTonneFilter",
        "label": "_paused",
        "offset": 0,
        "slot": "101",
        "type": "t_bool"
      },
      {
        "astId": 2799,
        "contract": "contracts/pools/NatureCarbonTonneFilter.sol:NatureCarbonTonneFilter",
        "label": "__gap",
        "offset": 0,
        "slot": "102",
        "type": "t_array(t_uint256)49_storage"
      },
      {
        "astId": 7899,
        "contract": "contracts/pools/NatureCarbonTonneFilter.sol:NatureCarbonTonneFilter",
        "label": "__gap",
        "offset": 0,
        "slot": "151",
        "type": "t_array(t_uint256)50_storage"
      },
      {
        "astId": 1486,
        "contract": "contracts/pools/NatureCarbonTonneFilter.sol:NatureCarbonTonneFilter",
        "label": "_roles",
        "offset": 0,
        "slot": "201",
        "type": "t_mapping(t_bytes32,t_struct(RoleData)1481_storage)"
      },
      {
        "astId": 1793,
        "contract": "contracts/pools/NatureCarbonTonneFilter.sol:NatureCarbonTonneFilter",
        "label": "__gap",
        "offset": 0,
        "slot": "202",
        "type": "t_array(t_uint256)49_storage"
      },
      {
        "astId": 2355,
        "contract": "contracts/pools/NatureCarbonTonneFilter.sol:NatureCarbonTonneFilter",
        "label": "__gap",
        "offset": 0,
        "slot": "251",
        "type": "t_array(t_uint256)50_storage"
      },
      {
        "astId": 2671,
        "contract": "contracts/pools/NatureCarbonTonneFilter.sol:NatureCarbonTonneFilter",
        "label": "__gap",
        "offset": 0,
        "slot": "301",
        "type": "t_array(t_uint256)50_storage"
      },
      {
        "astId": 32022,
        "contract": "contracts/pools/NatureCarbonTonneFilter.sol:NatureCarbonTonneFilter",
        "label": "regions",
        "offset": 0,
        "slot": "351",
        "type": "t_mapping(t_string_memory_ptr,t_bool)"
      },
      {
        "astId": 32026,
        "contract": "contracts/pools/NatureCarbonTonneFilter.sol:NatureCarbonTonneFilter",
        "label": "standards",
        "offset": 0,
        "slot": "352",
        "type": "t_mapping(t_string_memory_ptr,t_bool)"
      },
      {
        "astId": 32030,
        "contract": "contracts/pools/NatureCarbonTonneFilter.sol:NatureCarbonTonneFilter",
        "label": "methodologies",
        "offset": 0,
        "slot": "353",
        "type": "t_mapping(t_string_memory_ptr,t_bool)"
      },
      {
        "astId": 32035,
        "contract": "contracts/pools/NatureCarbonTonneFilter.sol:NatureCarbonTonneFilter",
        "label": "externalAllowlist",
        "offset": 0,
        "slot": "354",
        "type": "t_mapping(t_address,t_bool)"
      },
      {
        "astId": 32040,
        "contract": "contracts/pools/NatureCarbonTonneFilter.sol:NatureCarbonTonneFilter",
        "label": "internalAllowlist",
        "offset": 0,
        "slot": "355",
        "type": "t_mapping(t_address,t_bool)"
      },
      {
        "astId": 32045,
        "contract": "contracts/pools/NatureCarbonTonneFilter.sol:NatureCarbonTonneFilter",
        "label": "internalBlocklist",
        "offset": 0,
        "slot": "356",
        "type": "t_mapping(t_address,t_bool)"
      },
      {
        "astId": 32048,
        "contract": "contracts/pools/NatureCarbonTonneFilter.sol:NatureCarbonTonneFilter",
        "label": "contractRegistry",
        "offset": 0,
        "slot": "357",
        "type": "t_address"
      },
      {
        "astId": 32050,
        "contract": "contracts/pools/NatureCarbonTonneFilter.sol:NatureCarbonTonneFilter",
        "label": "minimumVintageStartTime",
        "offset": 20,
        "slot": "357",
        "type": "t_uint64"
      },
      {
        "astId": 32053,
        "contract": "contracts/pools/NatureCarbonTonneFilter.sol:NatureCarbonTonneFilter",
        "label": "regionsIsAcceptedMapping",
        "offset": 28,
        "slot": "357",
        "type": "t_bool"
      },
      {
        "astId": 32055,
        "contract": "contracts/pools/NatureCarbonTonneFilter.sol:NatureCarbonTonneFilter",
        "label": "standardsIsAcceptedMapping",
        "offset": 29,
        "slot": "357",
        "type": "t_bool"
      },
      {
        "astId": 32057,
        "contract": "contracts/pools/NatureCarbonTonneFilter.sol:NatureCarbonTonneFilter",
        "label": "methodologiesIsAcceptedMapping",
        "offset": 30,
        "slot": "357",
        "type": "t_bool"
      },
      {
        "astId": 32065,
        "contract": "contracts/pools/NatureCarbonTonneFilter.sol:NatureCarbonTonneFilter",
        "label": "externalERC1155Allowlist",
        "offset": 0,
        "slot": "358",
        "type": "t_mapping(t_address,t_mapping(t_uint256,t_bool))"
      }
    ],
    "types": {
      "t_address": {
        "encoding": "inplace",
        "label": "address",
        "numberOfBytes": "20"
      },
      "t_array(t_uint256)49_storage": {
        "base": "t_uint256",
        "encoding": "inplace",
        "label": "uint256[49]",
        "numberOfBytes": "1568"
      },
      "t_array(t_uint256)50_storage": {
        "base": "t_uint256",
        "encoding": "inplace",
        "label": "uint256[50]",
        "numberOfBytes": "1600"
      },
      "t_bool": {
        "encoding": "inplace",
        "label": "bool",
        "numberOfBytes": "1"
      },
      "t_bytes32": {
        "encoding": "inplace",
        "label": "bytes32",
        "numberOfBytes": "32"
      },
      "t_mapping(t_address,t_bool)": {
        "encoding": "mapping",
        "key": "t_address",
        "label": "mapping(address => bool)",
        "numberOfBytes": "32",
        "value": "t_bool"
      },
      "t_mapping(t_address,t_mapping(t_uint256,t_bool))": {
        "encoding": "mapping",
        "key": "t_address",
        "label": "mapping(address => mapping(uint256 => bool))",
        "numberOfBytes": "32",
        "value": "t_mapping(t_uint256,t_bool)"
      },
      "t_mapping(t_bytes32,t_struct(RoleData)1481_storage)": {
        "encoding": "mapping",
        "key": "t_bytes32",
        "label": "mapping(bytes32 => struct AccessControlUpgradeable.RoleData)",
        "numberOfBytes": "32",
        "value": "t_struct(RoleData)1481_storage"
      },
      "t_mapping(t_string_memory_ptr,t_bool)": {
        "encoding": "mapping",
        "key": "t_string_memory_ptr",
        "label": "mapping(string => bool)",
        "numberOfBytes": "32",
        "value": "t_bool"
      },
      "t_mapping(t_uint256,t_bool)": {
        "encoding": "mapping",
        "key": "t_uint256",
        "label": "mapping(uint256 => bool)",
        "numberOfBytes": "32",
        "value": "t_bool"
      },
      "t_string_memory_ptr": {
        "encoding": "bytes",
        "label": "string",
        "numberOfBytes": "32"
      },
      "t_struct(RoleData)1481_storage": {
        "encoding": "inplace",
        "label": "struct AccessControlUpgradeable.RoleData",
        "members": [
          {
            "astId": 1478,
            "contract": "contracts/pools/NatureCarbonTonneFilter.sol:NatureCarbonTonneFilter",
            "label": "members",
            "offset": 0,
            "slot": "0",
            "type": "t_mapping(t_address,t_bool)"
          },
          {
            "astId": 1480,
            "contract": "contracts/pools/NatureCarbonTonneFilter.sol:NatureCarbonTonneFilter",
            "label": "adminRole",
            "offset": 0,
            "slot": "1",
            "type": "t_bytes32"
          }
        ],
        "numberOfBytes": "64"
      },
      "t_uint256": {
        "encoding": "inplace",
        "label": "uint256",
        "numberOfBytes": "32"
      },
      "t_uint64": {
        "encoding": "inplace",
        "label": "uint64",
        "numberOfBytes": "8"
      },
      "t_uint8": {
        "encoding": "inplace",
        "label": "uint8",
        "numberOfBytes": "1"
      }
    }
  }
}