{
  "address": "0xb1BDDB712E0708Ab1e195655937D473Bcb4f17a4",
  "abi": [
    {
      "anonymous": false,
      "inputs": [
        {
          "indexed": false,
          "internalType": "address",
          "name": "account",
          "type": "address"
        }
      ],
      "name": "AddedToAllowedBridges",
      "type": "event"
    },
    {
      "anonymous": false,
      "inputs": [
        {
          "indexed": false,
          "internalType": "address",
          "name": "previousAdmin",
          "type": "address"
        },
        {
          "indexed": false,
          "internalType": "address",
          "name": "newAdmin",
          "type": "address"
        }
      ],
      "name": "AdminChanged",
      "type": "event"
    },
    {
      "anonymous": false,
      "inputs": [
        {
          "indexed": true,
          "internalType": "address",
          "name": "beacon",
          "type": "address"
        }
      ],
      "name": "BeaconUpgraded",
      "type": "event"
    },
    {
      "anonymous": false,
      "inputs": [
        {
          "indexed": false,
          "internalType": "uint8",
          "name": "version",
          "type": "uint8"
        }
      ],
      "name": "Initialized",
      "type": "event"
    },
    {
      "anonymous": false,
      "inputs": [
        {
          "indexed": true,
          "internalType": "address",
          "name": "previousOwner",
          "type": "address"
        },
        {
          "indexed": true,
          "internalType": "address",
          "name": "newOwner",
          "type": "address"
        }
      ],
      "name": "OwnershipTransferred",
      "type": "event"
    },
    {
      "anonymous": false,
      "inputs": [
        {
          "indexed": false,
          "internalType": "address",
          "name": "account",
          "type": "address"
        }
      ],
      "name": "Paused",
      "type": "event"
    },
    {
      "anonymous": false,
      "inputs": [
        {
          "indexed": false,
          "internalType": "address",
          "name": "account",
          "type": "address"
        }
      ],
      "name": "RemovedFromallowedBridges",
      "type": "event"
    },
    {
      "anonymous": false,
      "inputs": [
        {
          "indexed": true,
          "internalType": "bytes32",
          "name": "role",
          "type": "bytes32"
        },
        {
          "indexed": true,
          "internalType": "bytes32",
          "name": "previousAdminRole",
          "type": "bytes32"
        },
        {
          "indexed": true,
          "internalType": "bytes32",
          "name": "newAdminRole",
          "type": "bytes32"
        }
      ],
      "name": "RoleAdminChanged",
      "type": "event"
    },
    {
      "anonymous": false,
      "inputs": [
        {
          "indexed": true,
          "internalType": "bytes32",
          "name": "role",
          "type": "bytes32"
        },
        {
          "indexed": true,
          "internalType": "address",
          "name": "account",
          "type": "address"
        },
        {
          "indexed": true,
          "internalType": "address",
          "name": "sender",
          "type": "address"
        }
      ],
      "name": "RoleGranted",
      "type": "event"
    },
    {
      "anonymous": false,
      "inputs": [
        {
          "indexed": true,
          "internalType": "bytes32",
          "name": "role",
          "type": "bytes32"
        },
        {
          "indexed": true,
          "internalType": "address",
          "name": "account",
          "type": "address"
        },
        {
          "indexed": true,
          "internalType": "address",
          "name": "sender",
          "type": "address"
        }
      ],
      "name": "RoleRevoked",
      "type": "event"
    },
    {
      "anonymous": false,
      "inputs": [
        {
          "indexed": false,
          "internalType": "uint256",
          "name": "vintageTokenId",
          "type": "uint256"
        },
        {
          "indexed": false,
          "internalType": "address",
          "name": "tokenAddress",
          "type": "address"
        }
      ],
      "name": "TokenCreated",
      "type": "event"
    },
    {
      "anonymous": false,
      "inputs": [
        {
          "indexed": false,
          "internalType": "address",
          "name": "account",
          "type": "address"
        }
      ],
      "name": "Unpaused",
      "type": "event"
    },
    {
      "anonymous": false,
      "inputs": [
        {
          "indexed": true,
          "internalType": "address",
          "name": "implementation",
          "type": "address"
        }
      ],
      "name": "Upgraded",
      "type": "event"
    },
    {
      "inputs": [],
      "name": "DEFAULT_ADMIN_ROLE",
      "outputs": [
        {
          "internalType": "bytes32",
          "name": "",
          "type": "bytes32"
        }
      ],
      "stateMutability": "view",
      "type": "function"
    },
    {
      "inputs": [],
      "name": "DETOKENIZER_ROLE",
      "outputs": [
        {
          "internalType": "bytes32",
          "name": "",
          "type": "bytes32"
        }
      ],
      "stateMutability": "view",
      "type": "function"
    },
    {
      "inputs": [],
      "name": "TOKENIZER_ROLE",
      "outputs": [
        {
          "internalType": "bytes32",
          "name": "",
          "type": "bytes32"
        }
      ],
      "stateMutability": "view",
      "type": "function"
    },
    {
      "inputs": [],
      "name": "VERSION",
      "outputs": [
        {
          "internalType": "string",
          "name": "",
          "type": "string"
        }
      ],
      "stateMutability": "view",
      "type": "function"
    },
    {
      "inputs": [],
      "name": "VERSION_RELEASE_CANDIDATE",
      "outputs": [
        {
          "internalType": "uint256",
          "name": "",
          "type": "uint256"
        }
      ],
      "stateMutability": "view",
      "type": "function"
    },
    {
      "inputs": [
        {
          "internalType": "address",
          "name": "account",
          "type": "address"
        }
      ],
      "name": "addToAllowedBridges",
      "outputs": [],
      "stateMutability": "nonpayable",
      "type": "function"
    },
    {
      "inputs": [
        {
          "internalType": "address",
          "name": "",
          "type": "address"
        }
      ],
      "name": "allowedBridges",
      "outputs": [
        {
          "internalType": "bool",
          "name": "",
          "type": "bool"
        }
      ],
      "stateMutability": "view",
      "type": "function"
    },
    {
      "inputs": [],
      "name": "beacon",
      "outputs": [
        {
          "internalType": "address",
          "name": "",
          "type": "address"
        }
      ],
      "stateMutability": "view",
      "type": "function"
    },
    {
      "inputs": [],
      "name": "bridgeFeeBurnAddress",
      "outputs": [
        {
          "internalType": "address",
          "name": "",
          "type": "address"
        }
      ],
      "stateMutability": "view",
      "type": "function"
    },
    {
      "inputs": [],
      "name": "bridgeFeeBurnPercentageInBase",
      "outputs": [
        {
          "internalType": "uint256",
          "name": "",
          "type": "uint256"
        }
      ],
      "stateMutability": "view",
      "type": "function"
    },
    {
      "inputs": [],
      "name": "bridgeFeeDivider",
      "outputs": [
        {
          "internalType": "uint256",
          "name": "",
          "type": "uint256"
        }
      ],
      "stateMutability": "view",
      "type": "function"
    },
    {
      "inputs": [],
      "name": "bridgeFeePercentageInBase",
      "outputs": [
        {
          "internalType": "uint256",
          "name": "",
          "type": "uint256"
        }
      ],
      "stateMutability": "view",
      "type": "function"
    },
    {
      "inputs": [],
      "name": "bridgeFeeReceiver",
      "outputs": [
        {
          "internalType": "address",
          "name": "",
          "type": "address"
        }
      ],
      "stateMutability": "view",
      "type": "function"
    },
    {
      "inputs": [],
      "name": "bridgeFeeReceiverAddress",
      "outputs": [
        {
          "internalType": "address",
          "name": "",
          "type": "address"
        }
      ],
      "stateMutability": "view",
      "type": "function"
    },
    {
      "inputs": [],
      "name": "contractRegistry",
      "outputs": [
        {
          "internalType": "address",
          "name": "",
          "type": "address"
        }
      ],
      "stateMutability": "view",
      "type": "function"
    },
    {
      "inputs": [
        {
          "internalType": "uint256",
          "name": "projectVintageTokenId",
          "type": "uint256"
        }
      ],
      "name": "deployFromVintage",
      "outputs": [],
      "stateMutability": "nonpayable",
      "type": "function"
    },
    {
      "inputs": [
        {
          "internalType": "uint256",
          "name": "",
          "type": "uint256"
        }
      ],
      "name": "deployedContracts",
      "outputs": [
        {
          "internalType": "address",
          "name": "",
          "type": "address"
        }
      ],
      "stateMutability": "view",
      "type": "function"
    },
    {
      "inputs": [
        {
          "internalType": "uint256",
          "name": "_quantity",
          "type": "uint256"
        }
      ],
      "name": "getBridgeFeeAndBurnAmount",
      "outputs": [
        {
          "internalType": "uint256",
          "name": "",
          "type": "uint256"
        },
        {
          "internalType": "uint256",
          "name": "",
          "type": "uint256"
        }
      ],
      "stateMutability": "view",
      "type": "function"
    },
    {
      "inputs": [],
      "name": "getContracts",
      "outputs": [
        {
          "internalType": "address[]",
          "name": "",
          "type": "address[]"
        }
      ],
      "stateMutability": "view",
      "type": "function"
    },
    {
      "inputs": [
        {
          "internalType": "bytes32",
          "name": "role",
          "type": "bytes32"
        }
      ],
      "name": "getRoleAdmin",
      "outputs": [
        {
          "internalType": "bytes32",
          "name": "",
          "type": "bytes32"
        }
      ],
      "stateMutability": "view",
      "type": "function"
    },
    {
      "inputs": [
        {
          "internalType": "bytes32",
          "name": "role",
          "type": "bytes32"
        },
        {
          "internalType": "address",
          "name": "account",
          "type": "address"
        }
      ],
      "name": "grantRole",
      "outputs": [],
      "stateMutability": "nonpayable",
      "type": "function"
    },
    {
      "inputs": [
        {
          "internalType": "bytes32",
          "name": "role",
          "type": "bytes32"
        },
        {
          "internalType": "address",
          "name": "account",
          "type": "address"
        }
      ],
      "name": "hasRole",
      "outputs": [
        {
          "internalType": "bool",
          "name": "",
          "type": "bool"
        }
      ],
      "stateMutability": "view",
      "type": "function"
    },
    {
      "inputs": [
        {
          "internalType": "address",
          "name": "_contractRegistry",
          "type": "address"
        },
        {
          "internalType": "address[]",
          "name": "_accounts",
          "type": "address[]"
        },
        {
          "internalType": "bytes32[]",
          "name": "_roles",
          "type": "bytes32[]"
        }
      ],
      "name": "initialize",
      "outputs": [],
      "stateMutability": "nonpayable",
      "type": "function"
    },
    {
      "inputs": [],
      "name": "owner",
      "outputs": [
        {
          "internalType": "address",
          "name": "",
          "type": "address"
        }
      ],
      "stateMutability": "view",
      "type": "function"
    },
    {
      "inputs": [],
      "name": "pause",
      "outputs": [],
      "stateMutability": "nonpayable",
      "type": "function"
    },
    {
      "inputs": [],
      "name": "paused",
      "outputs": [
        {
          "internalType": "bool",
          "name": "",
          "type": "bool"
        }
      ],
      "stateMutability": "view",
      "type": "function"
    },
    {
      "inputs": [],
      "name": "proxiableUUID",
      "outputs": [
        {
          "internalType": "bytes32",
          "name": "",
          "type": "bytes32"
        }
      ],
      "stateMutability": "view",
      "type": "function"
    },
    {
      "inputs": [
        {
          "internalType": "uint256",
          "name": "",
          "type": "uint256"
        }
      ],
      "name": "pvIdtoERC20",
      "outputs": [
        {
          "internalType": "address",
          "name": "",
          "type": "address"
        }
      ],
      "stateMutability": "view",
      "type": "function"
    },
    {
      "inputs": [
        {
          "internalType": "address",
          "name": "account",
          "type": "address"
        }
      ],
      "name": "removeFromAllowedBridges",
      "outputs": [],
      "stateMutability": "nonpayable",
      "type": "function"
    },
    {
      "inputs": [],
      "name": "renounceOwnership",
      "outputs": [],
      "stateMutability": "nonpayable",
      "type": "function"
    },
    {
      "inputs": [
        {
          "internalType": "bytes32",
          "name": "role",
          "type": "bytes32"
        },
        {
          "internalType": "address",
          "name": "account",
          "type": "address"
        }
      ],
      "name": "renounceRole",
      "outputs": [],
      "stateMutability": "nonpayable",
      "type": "function"
    },
    {
      "inputs": [
        {
          "internalType": "bytes32",
          "name": "role",
          "type": "bytes32"
        },
        {
          "internalType": "address",
          "name": "account",
          "type": "address"
        }
      ],
      "name": "revokeRole",
      "outputs": [],
      "stateMutability": "nonpayable",
      "type": "function"
    },
    {
      "inputs": [
        {
          "internalType": "address",
          "name": "_beacon",
          "type": "address"
        }
      ],
      "name": "setBeacon",
      "outputs": [],
      "stateMutability": "nonpayable",
      "type": "function"
    },
    {
      "inputs": [
        {
          "internalType": "address",
          "name": "_bridgeFeeBurnAddress",
          "type": "address"
        }
      ],
      "name": "setBridgeFeeBurnAddress",
      "outputs": [],
      "stateMutability": "nonpayable",
      "type": "function"
    },
    {
      "inputs": [
        {
          "internalType": "uint256",
          "name": "_bridgeFeeBurnPercentageInBase",
          "type": "uint256"
        }
      ],
      "name": "setBridgeFeeBurnPercentage",
      "outputs": [],
      "stateMutability": "nonpayable",
      "type": "function"
    },
    {
      "inputs": [
        {
          "internalType": "uint256",
          "name": "_bridgeFeePercentageInBase",
          "type": "uint256"
        }
      ],
      "name": "setBridgeFeePercentage",
      "outputs": [],
      "stateMutability": "nonpayable",
      "type": "function"
    },
    {
      "inputs": [
        {
          "internalType": "address",
          "name": "_bridgeFeeReceiver",
          "type": "address"
        }
      ],
      "name": "setBridgeFeeReceiver",
      "outputs": [],
      "stateMutability": "nonpayable",
      "type": "function"
    },
    {
      "inputs": [
        {
          "internalType": "address",
          "name": "_address",
          "type": "address"
        }
      ],
      "name": "setToucanContractRegistry",
      "outputs": [],
      "stateMutability": "nonpayable",
      "type": "function"
    },
    {
      "inputs": [],
      "name": "standardRegistry",
      "outputs": [
        {
          "internalType": "string",
          "name": "",
          "type": "string"
        }
      ],
      "stateMutability": "pure",
      "type": "function"
    },
    {
      "inputs": [],
      "name": "supportedStandards",
      "outputs": [
        {
          "internalType": "string[]",
          "name": "",
          "type": "string[]"
        }
      ],
      "stateMutability": "pure",
      "type": "function"
    },
    {
      "inputs": [
        {
          "internalType": "bytes4",
          "name": "interfaceId",
          "type": "bytes4"
        }
      ],
      "name": "supportsInterface",
      "outputs": [
        {
          "internalType": "bool",
          "name": "",
          "type": "bool"
        }
      ],
      "stateMutability": "view",
      "type": "function"
    },
    {
      "inputs": [
        {
          "internalType": "address",
          "name": "newOwner",
          "type": "address"
        }
      ],
      "name": "transferOwnership",
      "outputs": [],
      "stateMutability": "nonpayable",
      "type": "function"
    },
    {
      "inputs": [],
      "name": "unpause",
      "outputs": [],
      "stateMutability": "nonpayable",
      "type": "function"
    },
    {
      "inputs": [
        {
          "internalType": "address",
          "name": "newImplementation",
          "type": "address"
        }
      ],
      "name": "upgradeTo",
      "outputs": [],
      "stateMutability": "nonpayable",
      "type": "function"
    },
    {
      "inputs": [
        {
          "internalType": "address",
          "name": "newImplementation",
          "type": "address"
        },
        {
          "internalType": "bytes",
          "name": "data",
          "type": "bytes"
        }
      ],
      "name": "upgradeToAndCall",
      "outputs": [],
      "stateMutability": "payable",
      "type": "function"
    }
  ],
  "numDeployments": 1,
  "solcInputHash": "21ae5f70988e66da4bff33b9b6a2fdaf",
  "bytecode": "0x60a0604052306080523480156200001557600080fd5b506200002062000026565b620000e7565b600354610100900460ff1615620000935760405162461bcd60e51b815260206004820152602760248201527f496e697469616c697a61626c653a20636f6e747261637420697320696e697469604482015266616c697a696e6760c81b606482015260840160405180910390fd5b60035460ff90811614620000e5576003805460ff191660ff9081179091556040519081527f7f26b83ff96e1f2b6a682f133852f6798a09c465da95921460cefb38474024989060200160405180910390a15b565b608051613ba76200011f60003960008181610aac01528181610aef01528181610d3b01528181610d7e0152610e160152613ba76000f3fe608060405260043610620002a75760003560e01c8063715018a6116200016b578063b3b6014211620000d1578063e882e37b1162000084578063e882e37b146200085d578063f2fde38b1462000882578063f379a5a214620008a7578063f8513c6214620008e2578063f8d8353f1462000904578063ffa1ad74146200092957600080fd5b8063b3b601421462000789578063c3a2a93a14620007ae578063d42afb5614620007d5578063d547741f14620007fa578063dee02cba146200081f578063e60b6da8146200084457600080fd5b80638da5cb5b116200012a5780638da5cb5b14620006cd57806391d1485414620006ed578063936d8e2414620007125780639ad1ee10146200072b578063a217fddf1462000750578063abf410e5146200076757600080fd5b8063715018a614620006405780637f05b305146200065857806380e2d3f0146200067d5780638456cb59146200069d5780638891792a14620006b557600080fd5b80633ed9b17b116200021157806359659e9011620001d057806359659e9014620005585780635c6f3a90146200057a5780635c975abb14620005b05780635e813d3c14620005ca5780636a0031cc14620006045780636ca0b0d7146200062957600080fd5b80633ed9b17b14620004b05780633f4ba83a14620004d55780634f1ef28614620004ed57806352d1902d1462000504578063581cd110146200051c57600080fd5b80632626c3be116200026a5780632626c3be14620003bc5780632f2ff15d14620003e157806336568abe14620004065780633659cfe6146200042b57806338b10b2114620004505780633c31175e146200047757600080fd5b806301ffc9a714620002ac578063056195a714620002e65780630605a334146200030d578063235fcebe1462000352578063248a9ca31462000387575b600080fd5b348015620002b957600080fd5b50620002d1620002cb366004620026e0565b6200095c565b60405190151581526020015b60405180910390f35b348015620002f357600080fd5b506200030b6200030536600462002722565b62000994565b005b3480156200031a57600080fd5b50620003437fe70d28ebd9d7d9a3dd77d46ae2481f301c80806f395b08de31d8e095b1c46cee81565b604051908152602001620002dd565b3480156200035f57600080fd5b50620002d16200037136600462002722565b6101046020526000908152604090205460ff1681565b3480156200039457600080fd5b5062000343620003a636600462002742565b6000908152610163602052604090206001015490565b348015620003c957600080fd5b506200030b620003db36600462002722565b620009c1565b348015620003ee57600080fd5b506200030b620004003660046200275c565b620009ed565b3480156200041357600080fd5b506200030b620004253660046200275c565b62000a1c565b3480156200043857600080fd5b506200030b6200044a36600462002722565b62000aa2565b3480156200045d57600080fd5b506200046862000b8d565b604051620002dd9190620027ec565b3480156200048457600080fd5b506040805180820190915260048152637075726f60e01b60208201525b604051620002dd919062002852565b348015620004bd57600080fd5b506200030b620004cf36600462002722565b62000c03565b348015620004e257600080fd5b506200030b62000cc9565b6200030b620004fe36600462002930565b62000d31565b3480156200051157600080fd5b506200034362000e09565b3480156200052957600080fd5b50610101546200053f906001600160a01b031681565b6040516001600160a01b039091168152602001620002dd565b3480156200056557600080fd5b5060fe546200053f906001600160a01b031681565b3480156200058757600080fd5b50620003437ffb7778e60e898528875e31f94e3a623d6302be2aa540c7a7f5ae26fe5ee2498d81565b348015620005bd57600080fd5b5060685460ff16620002d1565b348015620005d757600080fd5b506200053f620005e936600462002742565b6002602052600090815260409020546001600160a01b031681565b3480156200061157600080fd5b506200030b6200062336600462002742565b62000ebf565b3480156200063657600080fd5b5062000343600181565b3480156200064d57600080fd5b506200030b62000f48565b3480156200066557600080fd5b506200030b6200067736600462002722565b62000f60565b3480156200068a57600080fd5b5060ff546001600160a01b03166200053f565b348015620006aa57600080fd5b506200030b6200101f565b348015620006c257600080fd5b506200034361271081565b348015620006da57600080fd5b506036546001600160a01b03166200053f565b348015620006fa57600080fd5b50620002d16200070c3660046200275c565b62001087565b3480156200071f57600080fd5b50620003436101025481565b3480156200073857600080fd5b506200053f6200074a36600462002742565b620010b3565b3480156200075d57600080fd5b5062000343600081565b3480156200077457600080fd5b506000546200053f906001600160a01b031681565b3480156200079657600080fd5b506200030b620007a836600462002742565b620010de565b348015620007bb57600080fd5b50620007c6620010f3565b604051620002dd9190620029cd565b348015620007e257600080fd5b506200030b620007f436600462002722565b62001157565b3480156200080757600080fd5b506200030b620008193660046200275c565b62001183565b3480156200082c57600080fd5b506200030b6200083e36600462002742565b620011ad565b3480156200085157600080fd5b50620003436101005481565b3480156200086a57600080fd5b506200030b6200087c36600462002722565b62001236565b3480156200088f57600080fd5b506200030b620008a136600462002722565b62001262565b348015620008b457600080fd5b50620008cc620008c636600462002742565b620012de565b60408051928352602083019190915201620002dd565b348015620008ef57600080fd5b5060ff546200053f906001600160a01b031681565b3480156200091157600080fd5b506200030b6200092336600462002a6b565b62001333565b3480156200093657600080fd5b50620004a1604051806040016040528060058152602001640312e302e360dc1b81525081565b60006001600160e01b03198216637965db0b60e01b14806200098e57506301ffc9a760e01b6001600160e01b03198316145b92915050565b6200099e62001471565b61010180546001600160a01b0319166001600160a01b0392909216919091179055565b620009cb62001471565b60ff80546001600160a01b0319166001600160a01b0392909216919091179055565b6000828152610163602052604090206001015462000a0b81620014cd565b62000a178383620014d9565b505050565b6001600160a01b038116331462000a925760405162461bcd60e51b815260206004820152602f60248201527f416363657373436f6e74726f6c3a2063616e206f6e6c792072656e6f756e636560448201526e103937b632b9903337b91039b2b63360891b60648201526084015b60405180910390fd5b62000a9e828262001564565b5050565b6001600160a01b037f000000000000000000000000000000000000000000000000000000000000000016300362000aed5760405162461bcd60e51b815260040162000a899062002af7565b7f00000000000000000000000000000000000000000000000000000000000000006001600160a01b031662000b3860008051602062003b02833981519152546001600160a01b031690565b6001600160a01b03161462000b615760405162461bcd60e51b815260040162000a899062002b43565b62000b6c81620015cf565b6040805160008082526020820190925262000b8a91839190620015d9565b50565b60408051600180825281830190925260609160009190816020015b606081526020019060019003908162000ba8579050509050604051806040016040528060048152602001635055524f60e01b8152508160008151811062000bf35762000bf362002b8f565b6020908102919091010152919050565b62000c0d62001471565b6001600160a01b0381166000908152610104602052604090205460ff168062000c6f5760405162461bcd60e51b8152602060048201526013602482015272105b1c9958591e481b9bdd08185b1b1bddd959606a1b604482015260640162000a89565b6001600160a01b03821660008181526101046020908152604091829020805460ff1916905590519182527fe1f1103cfadf05f922cd1ed035283eed4d6e2d4c343210b7ac5f84a472bcfd7691015b60405180910390a15050565b6000546001600160a01b031662000ce86036546001600160a01b031690565b6001600160a01b03821633148062000d0857506001600160a01b03811633145b62000d275760405162461bcd60e51b815260040162000a899062002ba5565b62000a9e62001751565b6001600160a01b037f000000000000000000000000000000000000000000000000000000000000000016300362000d7c5760405162461bcd60e51b815260040162000a899062002af7565b7f00000000000000000000000000000000000000000000000000000000000000006001600160a01b031662000dc760008051602062003b02833981519152546001600160a01b031690565b6001600160a01b03161462000df05760405162461bcd60e51b815260040162000a899062002b43565b62000dfb82620015cf565b62000a9e82826001620015d9565b6000306001600160a01b037f0000000000000000000000000000000000000000000000000000000000000000161462000eab5760405162461bcd60e51b815260206004820152603860248201527f555550535570677261646561626c653a206d757374206e6f742062652063616c60448201527f6c6564207468726f7567682064656c656761746563616c6c0000000000000000606482015260840162000a89565b5060008051602062003b0283398151915290565b62000ec962001471565b612710811062000f425760405162461bcd60e51b815260206004820152603b60248201527f627269646765206665652070657263656e74616765206d757374206265206c6f60448201527f776572207468616e206272696467652066656520646976696465720000000000606482015260840162000a89565b61010055565b62000f5262001471565b62000f5e6000620017a5565b565b62000f6a62001471565b6001600160a01b0381166000908152610104602052604090205460ff16801562000fc95760405162461bcd60e51b815260206004820152600f60248201526e105b1c9958591e48185b1b1bddd959608a1b604482015260640162000a89565b6001600160a01b03821660008181526101046020908152604091829020805460ff1916600117905590519182527fed9735b851438eeeaf428e48851f731122eb39b1d8027c2c3158f7f0b2d54706910162000cbd565b6000546001600160a01b03166200103e6036546001600160a01b031690565b6001600160a01b0382163314806200105e57506001600160a01b03811633145b6200107d5760405162461bcd60e51b815260040162000a899062002ba5565b62000a9e620017f7565b6000918252610163602090815260408084206001600160a01b0393909316845291905290205460ff1690565b60018181548110620010c457600080fd5b6000918252602090912001546001600160a01b0316905081565b620010e862001837565b62000b8a816200187f565b606060018054806020026020016040519081016040528092919081815260200182805480156200114d57602002820191906000526020600020905b81546001600160a01b031681526001909101906020018083116200112e575b5050505050905090565b6200116162001471565b60fe80546001600160a01b0319166001600160a01b0392909216919091179055565b60008281526101636020526040902060010154620011a181620014cd565b62000a17838362001564565b620011b762001471565b6127108110620012305760405162461bcd60e51b815260206004820152603960248201527f6275726e206665652070657263656e74616765206d757374206265206c6f776560448201527f72207468616e2062726964676520666565206469766964657200000000000000606482015260840162000a89565b61010255565b6200124062001471565b600080546001600160a01b0319166001600160a01b0392909216919091179055565b6200126c62001471565b6001600160a01b038116620012d35760405162461bcd60e51b815260206004820152602660248201527f4f776e61626c653a206e6577206f776e657220697320746865207a65726f206160448201526564647265737360d01b606482015260840162000a89565b62000b8a81620017a5565b60008060006127106101005485620012f7919062002c00565b62001303919062002c22565b9050600061271061010254836200131b919062002c00565b62001327919062002c22565b91959194509092505050565b600354610100900460ff1615808015620013545750600354600160ff909116105b80620013705750303b15801562001370575060035460ff166001145b620013d55760405162461bcd60e51b815260206004820152602e60248201527f496e697469616c697a61626c653a20636f6e747261637420697320616c72656160448201526d191e481a5b9a5d1a585b1a5e995960921b606482015260840162000a89565b6003805460ff191660011790558015620013f9576003805461ff0019166101001790555b620014078585858562001beb565b600080546001600160a01b0319166001600160a01b038816179055801562001469576003805461ff0019169055604051600181527f7f26b83ff96e1f2b6a682f133852f6798a09c465da95921460cefb38474024989060200160405180910390a15b505050505050565b6036546001600160a01b0316331462000f5e5760405162461bcd60e51b815260206004820181905260248201527f4f776e61626c653a2063616c6c6572206973206e6f7420746865206f776e6572604482015260640162000a89565b62000b8a813362001c27565b620014e5828262001087565b62000a9e576000828152610163602090815260408083206001600160a01b03851684529091529020805460ff19166001179055620015203390565b6001600160a01b0316816001600160a01b0316837f2f8788117e7eff1d82e926ec794901d17c78024a50270940304540a733656f0d60405160405180910390a45050565b62001570828262001087565b1562000a9e576000828152610163602090815260408083206001600160a01b0385168085529252808320805460ff1916905551339285917ff6391f5c32d9c69d2a47ea670b442974b53935d1edc7fd64eb21e047a839171b9190a45050565b62000b8a62001471565b7f4910fdfa16fed3260ed0e7147f7cc6da11a60208b5b9406d12a635614ffd91435460ff16156200160f5762000a178362001c8b565b826001600160a01b03166352d1902d6040518163ffffffff1660e01b8152600401602060405180830381865afa9250505080156200166c575060408051601f3d908101601f19168201909252620016699181019062002c45565b60015b620016d15760405162461bcd60e51b815260206004820152602e60248201527f45524331393637557067726164653a206e657720696d706c656d656e7461746960448201526d6f6e206973206e6f74205555505360901b606482015260840162000a89565b60008051602062003b028339815191528114620017435760405162461bcd60e51b815260206004820152602960248201527f45524331393637557067726164653a20756e737570706f727465642070726f786044820152681a58589b195555525160ba1b606482015260840162000a89565b5062000a1783838362001d2a565b6200175b62001d55565b6068805460ff191690557f5db9ee0a495bf2e6ff9c91a7834c1ba4fdd244a5e8aa4e537bd38aeae4b073aa335b6040516001600160a01b03909116815260200160405180910390a1565b603680546001600160a01b038381166001600160a01b0319831681179093556040519116919082907f8be0079c531659141344cd1fd0a4f28419497f9722a3daafe3b4186f6b6457e090600090a35050565b6200180162001837565b6068805460ff191660011790557f62e78cea01bee320cd4e420270b5ea74000d11b0c9f74754ebdbfc544b05a258620017883390565b60685460ff161562000f5e5760405162461bcd60e51b815260206004820152601060248201526f14185d5cd8589b194e881c185d5cd95960821b604482015260640162000a89565b6200188962001837565b60fe546001600160a01b0316620018e35760405162461bcd60e51b815260206004820152601f60248201527f4572726f723a20426561636f6e20666f722070726f7879206e6f742073657400604482015260640162000a89565b620018ee8162001da0565b15620019365760405162461bcd60e51b81526020600482015260166024820152757076455243323020616c72656164792065786973747360501b604482015260640162000a89565b6000546200194e906001600160a01b03168262001dd2565b620019598162001f08565b6200199a5760405162461bcd60e51b815260206004820152601060248201526f125b9d985b1a59081cdd185b99185c9960821b604482015260640162000a89565b600060405180606001604052806029815260200162003b49602991396000805460405160806024820152601560a4820152742a37bab1b0b710283937ba37b1b7b61d102a21a79960591b60c482015260c06044820152600460e4820152632a21a79960e11b610104820152606481018690526001600160a01b0390911660848201529192509082906101240160408051601f19818403018152908290529162001a439162002c5f565b60408051918290039091206020830180516001600160e01b03166001600160e01b031990921691909117905260fe5490519192506000916001600160a01b0390911690839062001a9390620026d2565b62001aa092919062002c7d565b604051809103906000f08015801562001abd573d6000803e3d6000fd5b506000549091506001600160a01b031663344dd6cb8262001af56040805180820190915260048152637075726f60e01b602082015290565b6040518363ffffffff1660e01b815260040162001b1492919062002c7d565b600060405180830381600087803b15801562001b2f57600080fd5b505af115801562001b44573d6000803e3d6000fd5b5050600180548082019091557fb10e2d527612073b26eecdfd717e6a320cf44b4afac2b0732d9fcbe2b7fa0cf60180546001600160a01b0385166001600160a01b03199182168117909255600088815260026020908152604091829020805490931684179092558051898152918201929092527fc331dc3e37e2ab4d6e65d42a119ffdfab8481b9be24d26704f9f4b4a331d4dd0935001905060405180910390a150505050565b62001bf562002174565b62001bff6200219e565b62001c09620021d3565b62001c1362002174565b62001c218484848462002209565b50505050565b62001c33828262001087565b62000a9e5762001c438162002343565b62001c5083602062002356565b60405160200162001c6392919062002ca3565b60408051601f198184030181529082905262461bcd60e51b825262000a899160040162002852565b6001600160a01b0381163b62001cfa5760405162461bcd60e51b815260206004820152602d60248201527f455243313936373a206e657720696d706c656d656e746174696f6e206973206e60448201526c1bdd08184818dbdb9d1c9858dd609a1b606482015260840162000a89565b60008051602062003b0283398151915280546001600160a01b0319166001600160a01b0392909216919091179055565b62001d358362002517565b60008251118062001d435750805b1562000a175762001c21838362002559565b60685460ff1662000f5e5760405162461bcd60e51b815260206004820152601460248201527314185d5cd8589b194e881b9bdd081c185d5cd95960621b604482015260640162000a89565b6000818152600260205260408120546001600160a01b031662001dc557506000919050565b506001919050565b919050565b6000826001600160a01b031663a0af25606040518163ffffffff1660e01b8152600401602060405180830381865afa15801562001e13573d6000803e3d6000fd5b505050506040513d601f19601f8201168201806040525081019062001e39919062002d29565b604051634f558e7960e01b8152600481018490529091506001600160a01b03821690634f558e7990602401602060405180830381865afa15801562001e82573d6000803e3d6000fd5b505050506040513d601f19601f8201168201806040525081019062001ea8919062002d5a565b62000a175760405162461bcd60e51b815260206004820152602960248201527f436172626f6e2070726f6a6563742076696e7461676520646f6573206e6f74206044820152681e595d08195e1a5cdd60ba1b606482015260840162000a89565b60008060008054906101000a90046001600160a01b031690506000816001600160a01b03166301157a836040518163ffffffff1660e01b8152600401602060405180830381865afa15801562001f62573d6000803e3d6000fd5b505050506040513d601f19601f8201168201806040525081019062001f88919062002d29565b90506000826001600160a01b031663a0af25606040518163ffffffff1660e01b8152600401602060405180830381865afa15801562001fcb573d6000803e3d6000fd5b505050506040513d601f19601f8201168201806040525081019062001ff1919062002d29565b60405163056efc1d60e21b8152600481018790529091506000906001600160a01b038316906315bbf07490602401600060405180830381865afa1580156200203d573d6000803e3d6000fd5b505050506040513d6000823e601f3d908101601f1916820160405262002067919081019062002ddd565b90506000836001600160a01b03166347e3168683606001516040518263ffffffff1660e01b81526004016200209e91815260200190565b600060405180830381865afa158015620020bc573d6000803e3d6000fd5b505050506040513d6000823e601f3d908101601f19168201604052620020e6919081019062002f89565b90506000620020f462000b8d565b805160208401519192509060005b828110156200216357600084828151811062002122576200212262002b8f565b602002602001015190506200214181846200258190919063ffffffff16565b1562002159575060019b9a5050505050505050505050565b5060010162002102565b5060009a9950505050505050505050565b600354610100900460ff1662000f5e5760405162461bcd60e51b815260040162000a899062003151565b600354610100900460ff16620021c85760405162461bcd60e51b815260040162000a899062003151565b62000f5e33620017a5565b600354610100900460ff16620021fd5760405162461bcd60e51b815260040162000a899062003151565b6068805460ff19169055565b828114620022525760405162461bcd60e51b8152602060048201526015602482015274082e4e4c2f240d8cadccee8d040dad2e6dac2e8c6d605b1b604482015260640162000a89565b6200225c62002174565b6000805b84811015620022f757620022bb84848381811062002282576200228262002b8f565b905060200201358787848181106200229e576200229e62002b8f565b9050602002016020810190620022b5919062002722565b620014d9565b6000848483818110620022d257620022d262002b8f565b9050602002013503620022e457600191505b620022ef816200319c565b905062002260565b50806200233c5760405162461bcd60e51b8152602060048201526012602482015271139bc818591b5a5b881cdc1958da599a595960721b604482015260640162000a89565b5050505050565b60606200098e6001600160a01b03831660145b606060006200236783600262002c00565b62002374906002620031b8565b67ffffffffffffffff8111156200238f576200238f62002867565b6040519080825280601f01601f191660200182016040528015620023ba576020820181803683370190505b509050600360fc1b81600081518110620023d857620023d862002b8f565b60200101906001600160f81b031916908160001a905350600f60fb1b816001815181106200240a576200240a62002b8f565b60200101906001600160f81b031916908160001a90535060006200243084600262002c00565b6200243d906001620031b8565b90505b6001811115620024bf576f181899199a1a9b1b9c1cb0b131b232b360811b85600f166010811062002475576200247562002b8f565b1a60f81b8282815181106200248e576200248e62002b8f565b60200101906001600160f81b031916908160001a90535060049490941c93620024b781620031d3565b905062002440565b508315620025105760405162461bcd60e51b815260206004820181905260248201527f537472696e67733a20686578206c656e67746820696e73756666696369656e74604482015260640162000a89565b9392505050565b620025228162001c8b565b6040516001600160a01b038216907fbc7cd75a20ee27fd9adebab32041f755214dbc6bffa90cc0225b39da2e5c2d3b90600090a250565b606062002510838360405180606001604052806027815260200162003b22602791396200259f565b60006200251083838051602091820120825192909101919091201490565b6060600080856001600160a01b031685604051620025be919062002c5f565b600060405180830381855af49150503d8060008114620025fb576040519150601f19603f3d011682016040523d82523d6000602084013e62002600565b606091505b509150915062002613868383876200261d565b9695505050505050565b606083156200269157825160000362002689576001600160a01b0385163b620026895760405162461bcd60e51b815260206004820152601d60248201527f416464726573733a2063616c6c20746f206e6f6e2d636f6e7472616374000000604482015260640162000a89565b50816200269d565b6200269d8383620026a5565b949350505050565b815115620026b65781518083602001fd5b8060405162461bcd60e51b815260040162000a89919062002852565b61091480620031ee83390190565b600060208284031215620026f357600080fd5b81356001600160e01b0319811681146200251057600080fd5b6001600160a01b038116811462000b8a57600080fd5b6000602082840312156200273557600080fd5b813562002510816200270c565b6000602082840312156200275557600080fd5b5035919050565b600080604083850312156200277057600080fd5b82359150602083013562002784816200270c565b809150509250929050565b60005b83811015620027ac57818101518382015260200162002792565b8381111562001c215750506000910152565b60008151808452620027d88160208601602086016200278f565b601f01601f19169290920160200192915050565b6000602080830181845280855180835260408601915060408160051b870101925083870160005b828110156200284557603f1988860301845262002832858351620027be565b9450928501929085019060010162002813565b5092979650505050505050565b602081526000620025106020830184620027be565b634e487b7160e01b600052604160045260246000fd5b604051610180810167ffffffffffffffff81118282101715620028a457620028a462002867565b60405290565b604051610140810167ffffffffffffffff81118282101715620028a457620028a462002867565b604051601f8201601f1916810167ffffffffffffffff81118282101715620028fd57620028fd62002867565b604052919050565b600067ffffffffffffffff82111562002922576200292262002867565b50601f01601f191660200190565b600080604083850312156200294457600080fd5b823562002951816200270c565b9150602083013567ffffffffffffffff8111156200296e57600080fd5b8301601f810185136200298057600080fd5b803562002997620029918262002905565b620028d1565b818152866020838501011115620029ad57600080fd5b816020840160208301376000602083830101528093505050509250929050565b6020808252825182820181905260009190848201906040850190845b8181101562002a105783516001600160a01b031683529284019291840191600101620029e9565b50909695505050505050565b60008083601f84011262002a2f57600080fd5b50813567ffffffffffffffff81111562002a4857600080fd5b6020830191508360208260051b850101111562002a6457600080fd5b9250929050565b60008060008060006060868803121562002a8457600080fd5b853562002a91816200270c565b9450602086013567ffffffffffffffff8082111562002aaf57600080fd5b62002abd89838a0162002a1c565b9096509450604088013591508082111562002ad757600080fd5b5062002ae68882890162002a1c565b969995985093965092949392505050565b6020808252602c908201527f46756e6374696f6e206d7573742062652063616c6c6564207468726f7567682060408201526b19195b1959d85d1958d85b1b60a21b606082015260800190565b6020808252602c908201527f46756e6374696f6e206d7573742062652063616c6c6564207468726f7567682060408201526b6163746976652070726f787960a01b606082015260800190565b634e487b7160e01b600052603260045260246000fd5b60208082526025908201527f43616c6c6572206973206e6f74207468652072656769737472792c206e6f722060408201526437bbb732b960d91b606082015260800190565b634e487b7160e01b600052601160045260246000fd5b600081600019048311821515161562002c1d5762002c1d62002bea565b500290565b60008262002c4057634e487b7160e01b600052601260045260246000fd5b500490565b60006020828403121562002c5857600080fd5b5051919050565b6000825162002c738184602087016200278f565b9190910192915050565b6001600160a01b03831681526040602082018190526000906200269d90830184620027be565b7f416363657373436f6e74726f6c3a206163636f756e742000000000000000000081526000835162002cdd8160178501602088016200278f565b7001034b99036b4b9b9b4b733903937b6329607d1b601791840191820152835162002d108160288401602088016200278f565b01602801949350505050565b805162001dcd816200270c565b60006020828403121562002d3c57600080fd5b815162002510816200270c565b8051801515811462001dcd57600080fd5b60006020828403121562002d6d57600080fd5b620025108262002d49565b600082601f83011262002d8a57600080fd5b815162002d9b620029918262002905565b81815284602083860101111562002db157600080fd5b6200269d8260208301602087016200278f565b805167ffffffffffffffff8116811462001dcd57600080fd5b60006020828403121562002df057600080fd5b815167ffffffffffffffff8082111562002e0957600080fd5b90830190610180828603121562002e1f57600080fd5b62002e296200287d565b82518281111562002e3957600080fd5b62002e478782860162002d78565b82525062002e586020840162002dc4565b602082015262002e6b6040840162002dc4565b60408201526060830151606082015262002e886080840162002dc4565b608082015262002e9b60a0840162002d49565b60a082015262002eae60c0840162002d49565b60c082015260e08301518281111562002ec657600080fd5b62002ed48782860162002d78565b60e083015250610100808401518381111562002eef57600080fd5b62002efd8882870162002d78565b828401525050610120808401518381111562002f1857600080fd5b62002f268882870162002d78565b828401525050610140808401518381111562002f4157600080fd5b62002f4f8882870162002d78565b828401525050610160808401518381111562002f6a57600080fd5b62002f788882870162002d78565b918301919091525095945050505050565b60006020828403121562002f9c57600080fd5b815167ffffffffffffffff8082111562002fb557600080fd5b90830190610140828603121562002fcb57600080fd5b62002fd5620028aa565b82518281111562002fe557600080fd5b62002ff38782860162002d78565b8252506020830151828111156200300957600080fd5b620030178782860162002d78565b6020830152506040830151828111156200303057600080fd5b6200303e8782860162002d78565b6040830152506060830151828111156200305757600080fd5b620030658782860162002d78565b6060830152506080830151828111156200307e57600080fd5b6200308c8782860162002d78565b60808301525060a083015182811115620030a557600080fd5b620030b38782860162002d78565b60a08301525060c083015182811115620030cc57600080fd5b620030da8782860162002d78565b60c08301525060e083015182811115620030f357600080fd5b620031018782860162002d78565b60e08301525061010080840151838111156200311c57600080fd5b6200312a8882870162002d78565b82840152505061012091506200314282840162002d1c565b91810191909152949350505050565b6020808252602b908201527f496e697469616c697a61626c653a20636f6e7472616374206973206e6f74206960408201526a6e697469616c697a696e6760a81b606082015260800190565b600060018201620031b157620031b162002bea565b5060010190565b60008219821115620031ce57620031ce62002bea565b500190565b600081620031e557620031e562002bea565b50600019019056fe608060405260405161091438038061091483398101604081905261002291610463565b61002e82826000610035565b505061058d565b61003e83610100565b6040516001600160a01b038416907f1cf3b03a6cf19fa2baba4df148e9dcabedea7f8a5c07840e207e5c089be95d3e90600090a260008251118061007f5750805b156100fb576100f9836001600160a01b0316635c60da1b6040518163ffffffff1660e01b8152600401602060405180830381865afa1580156100c5573d6000803e3d6000fd5b505050506040513d601f19601f820116820180604052508101906100e99190610523565b836102a360201b6100291760201c565b505b505050565b610113816102cf60201b6100551760201c565b6101725760405162461bcd60e51b815260206004820152602560248201527f455243313936373a206e657720626561636f6e206973206e6f74206120636f6e6044820152641d1c9858dd60da1b60648201526084015b60405180910390fd5b6101e6816001600160a01b0316635c60da1b6040518163ffffffff1660e01b8152600401602060405180830381865afa1580156101b3573d6000803e3d6000fd5b505050506040513d601f19601f820116820180604052508101906101d79190610523565b6102cf60201b6100551760201c565b61024b5760405162461bcd60e51b815260206004820152603060248201527f455243313936373a20626561636f6e20696d706c656d656e746174696f6e206960448201526f1cc81b9bdd08184818dbdb9d1c9858dd60821b6064820152608401610169565b806102827fa3f0ad74e5423aebfd80d3ef4346578335a9a72aeaee59ff6cb3582b35133d5060001b6102de60201b6100641760201c565b80546001600160a01b0319166001600160a01b039290921691909117905550565b60606102c883836040518060600160405280602781526020016108ed602791396102e1565b9392505050565b6001600160a01b03163b151590565b90565b6060600080856001600160a01b0316856040516102fe919061053e565b600060405180830381855af49150503d8060008114610339576040519150601f19603f3d011682016040523d82523d6000602084013e61033e565b606091505b5090925090506103508683838761035a565b9695505050505050565b606083156103c95782516000036103c2576001600160a01b0385163b6103c25760405162461bcd60e51b815260206004820152601d60248201527f416464726573733a2063616c6c20746f206e6f6e2d636f6e74726163740000006044820152606401610169565b50816103d3565b6103d383836103db565b949350505050565b8151156103eb5781518083602001fd5b8060405162461bcd60e51b8152600401610169919061055a565b80516001600160a01b038116811461041c57600080fd5b919050565b634e487b7160e01b600052604160045260246000fd5b60005b8381101561045257818101518382015260200161043a565b838111156100f95750506000910152565b6000806040838503121561047657600080fd5b61047f83610405565b60208401519092506001600160401b038082111561049c57600080fd5b818501915085601f8301126104b057600080fd5b8151818111156104c2576104c2610421565b604051601f8201601f19908116603f011681019083821181831017156104ea576104ea610421565b8160405282815288602084870101111561050357600080fd5b610514836020830160208801610437565b80955050505050509250929050565b60006020828403121561053557600080fd5b6102c882610405565b60008251610550818460208701610437565b9190910192915050565b6020815260008251806020840152610579816040850160208701610437565b601f01601f19169190910160400192915050565b6103518061059c6000396000f3fe60806040523661001357610011610017565b005b6100115b610027610022610067565b610100565b565b606061004e83836040518060600160405280602781526020016102f560279139610124565b9392505050565b6001600160a01b03163b151590565b90565b600061009a7fa3f0ad74e5423aebfd80d3ef4346578335a9a72aeaee59ff6cb3582b35133d50546001600160a01b031690565b6001600160a01b0316635c60da1b6040518163ffffffff1660e01b8152600401602060405180830381865afa1580156100d7573d6000803e3d6000fd5b505050506040513d601f19601f820116820180604052508101906100fb919061024c565b905090565b3660008037600080366000845af43d6000803e80801561011f573d6000f35b3d6000fd5b6060600080856001600160a01b03168560405161014191906102a5565b600060405180830381855af49150503d806000811461017c576040519150601f19603f3d011682016040523d82523d6000602084013e610181565b606091505b50915091506101928683838761019c565b9695505050505050565b60608315610210578251600003610209576001600160a01b0385163b6102095760405162461bcd60e51b815260206004820152601d60248201527f416464726573733a2063616c6c20746f206e6f6e2d636f6e747261637400000060448201526064015b60405180910390fd5b508161021a565b61021a8383610222565b949350505050565b8151156102325781518083602001fd5b8060405162461bcd60e51b815260040161020091906102c1565b60006020828403121561025e57600080fd5b81516001600160a01b038116811461004e57600080fd5b60005b83811015610290578181015183820152602001610278565b8381111561029f576000848401525b50505050565b600082516102b7818460208701610275565b9190910192915050565b60208152600082518060208401526102e0816040850160208701610275565b601f01601f1916919091016040019291505056fe416464726573733a206c6f772d6c6576656c2064656c65676174652063616c6c206661696c6564a2646970667358221220fd6dcf7bdad344c5808a393df2d8f227f65f5566be38462668c83c5080ec904664736f6c634300080e0033416464726573733a206c6f772d6c6576656c2064656c65676174652063616c6c206661696c6564360894a13ba1a3210667c828492db98dca3e2076cc3735a920a3ca505d382bbc416464726573733a206c6f772d6c6576656c2064656c65676174652063616c6c206661696c6564696e697469616c697a6528737472696e672c737472696e672c75696e743235362c6164647265737329a26469706673582212208d96f19d565b32e9aac95cdab28d698682e3043cd8404bf0d38fe79fa4b5bfde64736f6c634300080e0033",
  "devdoc": {
    "kind": "dev",
    "methods": {
      "deployFromVintage(uint256)": {
        "details": "Deploys a TCO2 contract based on a project vintage",
        "params": {
          "projectVintageTokenId": "numeric tokenId from vintage in `CarbonProjectVintages`"
        }
      },
      "getContracts()": {
        "details": "Returns all addresses of deployed TCO2 contracts"
      },
      "getRoleAdmin(bytes32)": {
        "details": "Returns the admin role that controls `role`. See {grantRole} and {revokeRole}. To change a role's admin, use {_setRoleAdmin}."
      },
      "grantRole(bytes32,address)": {
        "details": "Grants `role` to `account`. If `account` had not been already granted `role`, emits a {RoleGranted} event. Requirements: - the caller must have ``role``'s admin role. May emit a {RoleGranted} event."
      },
      "hasRole(bytes32,address)": {
        "details": "Returns `true` if `account` has been granted `role`."
      },
      "owner()": {
        "details": "Returns the address of the current owner."
      },
      "pause()": {
        "details": "wraps _pause(), only Admin"
      },
      "paused()": {
        "details": "Returns true if the contract is paused, and false otherwise."
      },
      "proxiableUUID()": {
        "details": "Implementation of the ERC1822 {proxiableUUID} function. This returns the storage slot used by the implementation. It is used to validate the implementation's compatibility when performing an upgrade. IMPORTANT: A proxy pointing at a proxiable contract should not be considered proxiable itself, because this risks bricking a proxy that upgrades to it, by delegating to itself until out of gas. Thus it is critical that this function revert if invoked through a proxy. This is guaranteed by the `notDelegated` modifier."
      },
      "renounceOwnership()": {
        "details": "Leaves the contract without owner. It will not be possible to call `onlyOwner` functions. Can only be called by the current owner. NOTE: Renouncing ownership will leave the contract without an owner, thereby disabling any functionality that is only available to the owner."
      },
      "renounceRole(bytes32,address)": {
        "details": "Revokes `role` from the calling account. Roles are often managed via {grantRole} and {revokeRole}: this function's purpose is to provide a mechanism for accounts to lose their privileges if they are compromised (such as when a trusted device is misplaced). If the calling account had been revoked `role`, emits a {RoleRevoked} event. Requirements: - the caller must be `account`. May emit a {RoleRevoked} event."
      },
      "revokeRole(bytes32,address)": {
        "details": "Revokes `role` from `account`. If `account` had been granted `role`, emits a {RoleRevoked} event. Requirements: - the caller must have ``role``'s admin role. May emit a {RoleRevoked} event."
      },
      "setBeacon(address)": {
        "details": "sets the Beacon that tracks the current implementation logic of the TCO2s"
      },
      "setBridgeFeeBurnAddress(address)": {
        "params": {
          "_bridgeFeeBurnAddress": "address to transfer the fees to burn"
        }
      },
      "setBridgeFeeBurnPercentage(uint256)": {
        "params": {
          "_bridgeFeeBurnPercentageInBase": "percentage of bridge fee in base"
        }
      },
      "setBridgeFeePercentage(uint256)": {
        "params": {
          "_bridgeFeePercentageInBase": "percentage of bridge fee in base"
        }
      },
      "setBridgeFeeReceiver(address)": {
        "params": {
          "_bridgeFeeReceiver": "address to transfer the fees"
        }
      },
      "setToucanContractRegistry(address)": {
        "details": "set the registry contract to be tracked"
      },
      "standardRegistry()": {
        "details": "this must be overridden in the child contract"
      },
      "supportsInterface(bytes4)": {
        "details": "See {IERC165-supportsInterface}."
      },
      "transferOwnership(address)": {
        "details": "Transfers ownership of the contract to a new account (`newOwner`). Can only be called by the current owner."
      },
      "unpause()": {
        "details": "unpause the system, wraps _unpause(), only Admin"
      },
      "upgradeTo(address)": {
        "custom:oz-upgrades-unsafe-allow-reachable": "delegatecall",
        "details": "Upgrade the implementation of the proxy to `newImplementation`. Calls {_authorizeUpgrade}. Emits an {Upgraded} event."
      },
      "upgradeToAndCall(address,bytes)": {
        "custom:oz-upgrades-unsafe-allow-reachable": "delegatecall",
        "details": "Upgrade the implementation of the proxy to `newImplementation`, and subsequently execute the function call encoded in `data`. Calls {_authorizeUpgrade}. Emits an {Upgraded} event."
      }
    },
    "stateVariables": {
      "VERSION": {
        "details": "Version-related parameters. VERSION keeps track of production releases. VERSION_RELEASE_CANDIDATE keeps track of iterations of a VERSION in our staging environment."
      }
    },
    "version": 1
  },
  "userdoc": {
    "kind": "user",
    "methods": {
      "addToAllowedBridges(address)": {
        "notice": "adds account to the allowedBridges list meant to be used only for cross-chain bridging"
      },
      "allowedBridges(address)": {
        "notice": "meant to be used only for cross-chain bridging"
      },
      "pause()": {
        "notice": "Emergency function to disable contract's core functionality"
      },
      "removeFromAllowedBridges(address)": {
        "notice": "removes account from the allowedBridges list meant to be used only for cross-chain bridging"
      },
      "setBridgeFeeBurnAddress(address)": {
        "notice": "Update the bridge fee burn address"
      },
      "setBridgeFeeBurnPercentage(uint256)": {
        "notice": "Update the bridge fee burning percentage"
      },
      "setBridgeFeePercentage(uint256)": {
        "notice": "Update the bridge fee percentage"
      },
      "setBridgeFeeReceiver(address)": {
        "notice": "Update the bridge fee receiver"
      },
      "standardRegistry()": {
        "notice": "Return the name of the registry that this factory is enabling to tokenize, eg., verra"
      },
      "supportedStandards()": {
        "notice": "Return the standard(s) supported by the carbon registry from where this factory tokenizes credits, eg., VCS It's important to satisfy this interface in order to ensure that TCO2 factories cannot create TCO2s for standards that the standard registry does not support"
      }
    },
    "notice": "The PuroToucanCarbonOffsetsFactory contract is a specific factory implementation for Puro's logic.",
    "version": 1
  },
  "storageLayout": {
    "storage": [
      {
        "astId": 21043,
        "contract": "contracts/PuroToucanCarbonOffsetsFactory.sol:PuroToucanCarbonOffsetsFactory",
        "label": "contractRegistry",
        "offset": 0,
        "slot": "0",
        "type": "t_address"
      },
      {
        "astId": 21046,
        "contract": "contracts/PuroToucanCarbonOffsetsFactory.sol:PuroToucanCarbonOffsetsFactory",
        "label": "deployedContracts",
        "offset": 0,
        "slot": "1",
        "type": "t_array(t_address)dyn_storage"
      },
      {
        "astId": 21050,
        "contract": "contracts/PuroToucanCarbonOffsetsFactory.sol:PuroToucanCarbonOffsetsFactory",
        "label": "pvIdtoERC20",
        "offset": 0,
        "slot": "2",
        "type": "t_mapping(t_uint256,t_address)"
      },
      {
        "astId": 2373,
        "contract": "contracts/PuroToucanCarbonOffsetsFactory.sol:PuroToucanCarbonOffsetsFactory",
        "label": "_initialized",
        "offset": 0,
        "slot": "3",
        "type": "t_uint8"
      },
      {
        "astId": 2376,
        "contract": "contracts/PuroToucanCarbonOffsetsFactory.sol:PuroToucanCarbonOffsetsFactory",
        "label": "_initializing",
        "offset": 1,
        "slot": "3",
        "type": "t_bool"
      },
      {
        "astId": 7515,
        "contract": "contracts/PuroToucanCarbonOffsetsFactory.sol:PuroToucanCarbonOffsetsFactory",
        "label": "__gap",
        "offset": 0,
        "slot": "4",
        "type": "t_array(t_uint256)50_storage"
      },
      {
        "astId": 1879,
        "contract": "contracts/PuroToucanCarbonOffsetsFactory.sol:PuroToucanCarbonOffsetsFactory",
        "label": "_owner",
        "offset": 0,
        "slot": "54",
        "type": "t_address"
      },
      {
        "astId": 1999,
        "contract": "contracts/PuroToucanCarbonOffsetsFactory.sol:PuroToucanCarbonOffsetsFactory",
        "label": "__gap",
        "offset": 0,
        "slot": "55",
        "type": "t_array(t_uint256)49_storage"
      },
      {
        "astId": 2694,
        "contract": "contracts/PuroToucanCarbonOffsetsFactory.sol:PuroToucanCarbonOffsetsFactory",
        "label": "_paused",
        "offset": 0,
        "slot": "104",
        "type": "t_bool"
      },
      {
        "astId": 2799,
        "contract": "contracts/PuroToucanCarbonOffsetsFactory.sol:PuroToucanCarbonOffsetsFactory",
        "label": "__gap",
        "offset": 0,
        "slot": "105",
        "type": "t_array(t_uint256)49_storage"
      },
      {
        "astId": 2355,
        "contract": "contracts/PuroToucanCarbonOffsetsFactory.sol:PuroToucanCarbonOffsetsFactory",
        "label": "__gap",
        "offset": 0,
        "slot": "154",
        "type": "t_array(t_uint256)50_storage"
      },
      {
        "astId": 2671,
        "contract": "contracts/PuroToucanCarbonOffsetsFactory.sol:PuroToucanCarbonOffsetsFactory",
        "label": "__gap",
        "offset": 0,
        "slot": "204",
        "type": "t_array(t_uint256)50_storage"
      },
      {
        "astId": 21054,
        "contract": "contracts/PuroToucanCarbonOffsetsFactory.sol:PuroToucanCarbonOffsetsFactory",
        "label": "beacon",
        "offset": 0,
        "slot": "254",
        "type": "t_address"
      },
      {
        "astId": 21056,
        "contract": "contracts/PuroToucanCarbonOffsetsFactory.sol:PuroToucanCarbonOffsetsFactory",
        "label": "bridgeFeeReceiver",
        "offset": 0,
        "slot": "255",
        "type": "t_address"
      },
      {
        "astId": 21058,
        "contract": "contracts/PuroToucanCarbonOffsetsFactory.sol:PuroToucanCarbonOffsetsFactory",
        "label": "bridgeFeePercentageInBase",
        "offset": 0,
        "slot": "256",
        "type": "t_uint256"
      },
      {
        "astId": 21060,
        "contract": "contracts/PuroToucanCarbonOffsetsFactory.sol:PuroToucanCarbonOffsetsFactory",
        "label": "bridgeFeeBurnAddress",
        "offset": 0,
        "slot": "257",
        "type": "t_address"
      },
      {
        "astId": 21062,
        "contract": "contracts/PuroToucanCarbonOffsetsFactory.sol:PuroToucanCarbonOffsetsFactory",
        "label": "bridgeFeeBurnPercentageInBase",
        "offset": 0,
        "slot": "258",
        "type": "t_uint256"
      },
      {
        "astId": 21064,
        "contract": "contracts/PuroToucanCarbonOffsetsFactory.sol:PuroToucanCarbonOffsetsFactory",
        "label": "DEPRECATED_TotalRetired",
        "offset": 0,
        "slot": "259",
        "type": "t_uint256"
      },
      {
        "astId": 21071,
        "contract": "contracts/PuroToucanCarbonOffsetsFactory.sol:PuroToucanCarbonOffsetsFactory",
        "label": "allowedBridges",
        "offset": 0,
        "slot": "260",
        "type": "t_mapping(t_address,t_bool)"
      },
      {
        "astId": 21082,
        "contract": "contracts/PuroToucanCarbonOffsetsFactory.sol:PuroToucanCarbonOffsetsFactory",
        "label": "__gap",
        "offset": 0,
        "slot": "261",
        "type": "t_array(t_uint256)44_storage"
      },
      {
        "astId": 7899,
        "contract": "contracts/PuroToucanCarbonOffsetsFactory.sol:PuroToucanCarbonOffsetsFactory",
        "label": "__gap",
        "offset": 0,
        "slot": "305",
        "type": "t_array(t_uint256)50_storage"
      },
      {
        "astId": 1486,
        "contract": "contracts/PuroToucanCarbonOffsetsFactory.sol:PuroToucanCarbonOffsetsFactory",
        "label": "_roles",
        "offset": 0,
        "slot": "355",
        "type": "t_mapping(t_bytes32,t_struct(RoleData)1481_storage)"
      },
      {
        "astId": 1793,
        "contract": "contracts/PuroToucanCarbonOffsetsFactory.sol:PuroToucanCarbonOffsetsFactory",
        "label": "__gap",
        "offset": 0,
        "slot": "356",
        "type": "t_array(t_uint256)49_storage"
      }
    ],
    "types": {
      "t_address": {
        "encoding": "inplace",
        "label": "address",
        "numberOfBytes": "20"
      },
      "t_array(t_address)dyn_storage": {
        "base": "t_address",
        "encoding": "dynamic_array",
        "label": "address[]",
        "numberOfBytes": "32"
      },
      "t_array(t_uint256)44_storage": {
        "base": "t_uint256",
        "encoding": "inplace",
        "label": "uint256[44]",
        "numberOfBytes": "1408"
      },
      "t_array(t_uint256)49_storage": {
        "base": "t_uint256",
        "encoding": "inplace",
        "label": "uint256[49]",
        "numberOfBytes": "1568"
      },
      "t_array(t_uint256)50_storage": {
        "base": "t_uint256",
        "encoding": "inplace",
        "label": "uint256[50]",
        "numberOfBytes": "1600"
      },
      "t_bool": {
        "encoding": "inplace",
        "label": "bool",
        "numberOfBytes": "1"
      },
      "t_bytes32": {
        "encoding": "inplace",
        "label": "bytes32",
        "numberOfBytes": "32"
      },
      "t_mapping(t_address,t_bool)": {
        "encoding": "mapping",
        "key": "t_address",
        "label": "mapping(address => bool)",
        "numberOfBytes": "32",
        "value": "t_bool"
      },
      "t_mapping(t_bytes32,t_struct(RoleData)1481_storage)": {
        "encoding": "mapping",
        "key": "t_bytes32",
        "label": "mapping(bytes32 => struct AccessControlUpgradeable.RoleData)",
        "numberOfBytes": "32",
        "value": "t_struct(RoleData)1481_storage"
      },
      "t_mapping(t_uint256,t_address)": {
        "encoding": "mapping",
        "key": "t_uint256",
        "label": "mapping(uint256 => address)",
        "numberOfBytes": "32",
        "value": "t_address"
      },
      "t_struct(RoleData)1481_storage": {
        "encoding": "inplace",
        "label": "struct AccessControlUpgradeable.RoleData",
        "members": [
          {
            "astId": 1478,
            "contract": "contracts/PuroToucanCarbonOffsetsFactory.sol:PuroToucanCarbonOffsetsFactory",
            "label": "members",
            "offset": 0,
            "slot": "0",
            "type": "t_mapping(t_address,t_bool)"
          },
          {
            "astId": 1480,
            "contract": "contracts/PuroToucanCarbonOffsetsFactory.sol:PuroToucanCarbonOffsetsFactory",
            "label": "adminRole",
            "offset": 0,
            "slot": "1",
            "type": "t_bytes32"
          }
        ],
        "numberOfBytes": "64"
      },
      "t_uint256": {
        "encoding": "inplace",
        "label": "uint256",
        "numberOfBytes": "32"
      },
      "t_uint8": {
        "encoding": "inplace",
        "label": "uint8",
        "numberOfBytes": "1"
      }
    }
  }
}