{
  "address": "0x55565ba3881d5fD0847df42D74f1Eb6f2A94e5D2",
  "abi": [
    {
      "anonymous": false,
      "inputs": [
        {
          "indexed": true,
          "internalType": "address",
          "name": "owner",
          "type": "address"
        },
        {
          "indexed": true,
          "internalType": "address",
          "name": "spender",
          "type": "address"
        },
        {
          "indexed": false,
          "internalType": "uint256",
          "name": "value",
          "type": "uint256"
        }
      ],
      "name": "Approval",
      "type": "event"
    },
    {
      "anonymous": false,
      "inputs": [
        {
          "indexed": true,
          "internalType": "uint256",
          "name": "requestId",
          "type": "uint256"
        }
      ],
      "name": "DetokenizationFinalized",
      "type": "event"
    },
    {
      "anonymous": false,
      "inputs": [
        {
          "indexed": true,
          "internalType": "address",
          "name": "user",
          "type": "address"
        },
        {
          "indexed": false,
          "internalType": "uint256",
          "name": "amount",
          "type": "uint256"
        },
        {
          "indexed": true,
          "internalType": "uint256",
          "name": "requestId",
          "type": "uint256"
        },
        {
          "indexed": false,
          "internalType": "uint256[]",
          "name": "batchIds",
          "type": "uint256[]"
        }
      ],
      "name": "DetokenizationRequested",
      "type": "event"
    },
    {
      "anonymous": false,
      "inputs": [
        {
          "indexed": true,
          "internalType": "uint256",
          "name": "requestId",
          "type": "uint256"
        }
      ],
      "name": "DetokenizationReverted",
      "type": "event"
    },
    {
      "anonymous": false,
      "inputs": [
        {
          "indexed": false,
          "internalType": "address",
          "name": "bridger",
          "type": "address"
        },
        {
          "indexed": false,
          "internalType": "uint256",
          "name": "fees",
          "type": "uint256"
        }
      ],
      "name": "FeeBurnt",
      "type": "event"
    },
    {
      "anonymous": false,
      "inputs": [
        {
          "indexed": false,
          "internalType": "address",
          "name": "bridger",
          "type": "address"
        },
        {
          "indexed": false,
          "internalType": "uint256",
          "name": "fees",
          "type": "uint256"
        }
      ],
      "name": "FeePaid",
      "type": "event"
    },
    {
      "anonymous": false,
      "inputs": [
        {
          "indexed": false,
          "internalType": "uint8",
          "name": "version",
          "type": "uint8"
        }
      ],
      "name": "Initialized",
      "type": "event"
    },
    {
      "anonymous": false,
      "inputs": [
        {
          "indexed": false,
          "internalType": "address",
          "name": "sender",
          "type": "address"
        },
        {
          "indexed": false,
          "internalType": "uint256",
          "name": "amount",
          "type": "uint256"
        },
        {
          "indexed": false,
          "internalType": "uint256",
          "name": "eventId",
          "type": "uint256"
        }
      ],
      "name": "Retired",
      "type": "event"
    },
    {
      "anonymous": false,
      "inputs": [
        {
          "indexed": true,
          "internalType": "uint256",
          "name": "requestId",
          "type": "uint256"
        }
      ],
      "name": "RetirementFinalized",
      "type": "event"
    },
    {
      "anonymous": false,
      "inputs": [
        {
          "indexed": true,
          "internalType": "address",
          "name": "user",
          "type": "address"
        },
        {
          "indexed": true,
          "internalType": "uint256",
          "name": "requestId",
          "type": "uint256"
        },
        {
          "components": [
            {
              "internalType": "uint256[]",
              "name": "tokenIds",
              "type": "uint256[]"
            },
            {
              "internalType": "uint256",
              "name": "amount",
              "type": "uint256"
            },
            {
              "internalType": "string",
              "name": "retiringEntityString",
              "type": "string"
            },
            {
              "internalType": "address",
              "name": "beneficiary",
              "type": "address"
            },
            {
              "internalType": "string",
              "name": "beneficiaryString",
              "type": "string"
            },
            {
              "internalType": "string",
              "name": "retirementMessage",
              "type": "string"
            },
            {
              "internalType": "string",
              "name": "beneficiaryLocation",
              "type": "string"
            },
            {
              "internalType": "string",
              "name": "consumptionCountryCode",
              "type": "string"
            },
            {
              "internalType": "uint256",
              "name": "consumptionPeriodStart",
              "type": "uint256"
            },
            {
              "internalType": "uint256",
              "name": "consumptionPeriodEnd",
              "type": "uint256"
            }
          ],
          "indexed": false,
          "internalType": "struct CreateRetirementRequestParams",
          "name": "params",
          "type": "tuple"
        }
      ],
      "name": "RetirementRequested",
      "type": "event"
    },
    {
      "anonymous": false,
      "inputs": [
        {
          "indexed": true,
          "internalType": "uint256",
          "name": "requestId",
          "type": "uint256"
        }
      ],
      "name": "RetirementReverted",
      "type": "event"
    },
    {
      "anonymous": false,
      "inputs": [
        {
          "indexed": true,
          "internalType": "address",
          "name": "from",
          "type": "address"
        },
        {
          "indexed": true,
          "internalType": "address",
          "name": "to",
          "type": "address"
        },
        {
          "indexed": false,
          "internalType": "uint256",
          "name": "value",
          "type": "uint256"
        }
      ],
      "name": "Transfer",
      "type": "event"
    },
    {
      "inputs": [],
      "name": "DETOKENIZER_ROLE",
      "outputs": [
        {
          "internalType": "bytes32",
          "name": "",
          "type": "bytes32"
        }
      ],
      "stateMutability": "view",
      "type": "function"
    },
    {
      "inputs": [],
      "name": "RETIREMENT_ROLE",
      "outputs": [
        {
          "internalType": "bytes32",
          "name": "",
          "type": "bytes32"
        }
      ],
      "stateMutability": "view",
      "type": "function"
    },
    {
      "inputs": [],
      "name": "TOKENIZER_ROLE",
      "outputs": [
        {
          "internalType": "bytes32",
          "name": "",
          "type": "bytes32"
        }
      ],
      "stateMutability": "view",
      "type": "function"
    },
    {
      "inputs": [],
      "name": "VERSION",
      "outputs": [
        {
          "internalType": "string",
          "name": "",
          "type": "string"
        }
      ],
      "stateMutability": "view",
      "type": "function"
    },
    {
      "inputs": [],
      "name": "VERSION_RELEASE_CANDIDATE",
      "outputs": [
        {
          "internalType": "uint256",
          "name": "",
          "type": "uint256"
        }
      ],
      "stateMutability": "view",
      "type": "function"
    },
    {
      "inputs": [
        {
          "internalType": "address",
          "name": "owner",
          "type": "address"
        },
        {
          "internalType": "address",
          "name": "spender",
          "type": "address"
        }
      ],
      "name": "allowance",
      "outputs": [
        {
          "internalType": "uint256",
          "name": "",
          "type": "uint256"
        }
      ],
      "stateMutability": "view",
      "type": "function"
    },
    {
      "inputs": [
        {
          "internalType": "address",
          "name": "spender",
          "type": "address"
        },
        {
          "internalType": "uint256",
          "name": "amount",
          "type": "uint256"
        }
      ],
      "name": "approve",
      "outputs": [
        {
          "internalType": "bool",
          "name": "",
          "type": "bool"
        }
      ],
      "stateMutability": "nonpayable",
      "type": "function"
    },
    {
      "inputs": [
        {
          "internalType": "address",
          "name": "account",
          "type": "address"
        }
      ],
      "name": "balanceOf",
      "outputs": [
        {
          "internalType": "uint256",
          "name": "",
          "type": "uint256"
        }
      ],
      "stateMutability": "view",
      "type": "function"
    },
    {
      "inputs": [
        {
          "internalType": "address",
          "name": "account",
          "type": "address"
        },
        {
          "internalType": "uint256",
          "name": "amount",
          "type": "uint256"
        }
      ],
      "name": "bridgeBurn",
      "outputs": [],
      "stateMutability": "nonpayable",
      "type": "function"
    },
    {
      "inputs": [
        {
          "internalType": "address",
          "name": "account",
          "type": "address"
        },
        {
          "internalType": "uint256",
          "name": "amount",
          "type": "uint256"
        }
      ],
      "name": "bridgeMint",
      "outputs": [],
      "stateMutability": "nonpayable",
      "type": "function"
    },
    {
      "inputs": [
        {
          "internalType": "address",
          "name": "account",
          "type": "address"
        },
        {
          "internalType": "uint256",
          "name": "amount",
          "type": "uint256"
        }
      ],
      "name": "burnFrom",
      "outputs": [],
      "stateMutability": "nonpayable",
      "type": "function"
    },
    {
      "inputs": [],
      "name": "contractRegistry",
      "outputs": [
        {
          "internalType": "address",
          "name": "",
          "type": "address"
        }
      ],
      "stateMutability": "view",
      "type": "function"
    },
    {
      "inputs": [],
      "name": "decimals",
      "outputs": [
        {
          "internalType": "uint8",
          "name": "",
          "type": "uint8"
        }
      ],
      "stateMutability": "view",
      "type": "function"
    },
    {
      "inputs": [
        {
          "internalType": "address",
          "name": "spender",
          "type": "address"
        },
        {
          "internalType": "uint256",
          "name": "subtractedValue",
          "type": "uint256"
        }
      ],
      "name": "decreaseAllowance",
      "outputs": [
        {
          "internalType": "bool",
          "name": "",
          "type": "bool"
        }
      ],
      "stateMutability": "nonpayable",
      "type": "function"
    },
    {
      "inputs": [
        {
          "internalType": "uint256",
          "name": "tokenId",
          "type": "uint256"
        }
      ],
      "name": "defractionalize",
      "outputs": [],
      "stateMutability": "nonpayable",
      "type": "function"
    },
    {
      "inputs": [
        {
          "internalType": "uint256",
          "name": "requestId",
          "type": "uint256"
        }
      ],
      "name": "finalizeDetokenization",
      "outputs": [],
      "stateMutability": "nonpayable",
      "type": "function"
    },
    {
      "inputs": [
        {
          "internalType": "uint256",
          "name": "requestId",
          "type": "uint256"
        }
      ],
      "name": "finalizeRetirement",
      "outputs": [],
      "stateMutability": "nonpayable",
      "type": "function"
    },
    {
      "inputs": [],
      "name": "getAttributes",
      "outputs": [
        {
          "components": [
            {
              "internalType": "string",
              "name": "projectId",
              "type": "string"
            },
            {
              "internalType": "string",
              "name": "standard",
              "type": "string"
            },
            {
              "internalType": "string",
              "name": "methodology",
              "type": "string"
            },
            {
              "internalType": "string",
              "name": "region",
              "type": "string"
            },
            {
              "internalType": "string",
              "name": "storageMethod",
              "type": "string"
            },
            {
              "internalType": "string",
              "name": "method",
              "type": "string"
            },
            {
              "internalType": "string",
              "name": "emissionType",
              "type": "string"
            },
            {
              "internalType": "string",
              "name": "category",
              "type": "string"
            },
            {
              "internalType": "string",
              "name": "uri",
              "type": "string"
            },
            {
              "internalType": "address",
              "name": "beneficiary",
              "type": "address"
            }
          ],
          "internalType": "struct ProjectData",
          "name": "",
          "type": "tuple"
        },
        {
          "components": [
            {
              "internalType": "string",
              "name": "name",
              "type": "string"
            },
            {
              "internalType": "uint64",
              "name": "startTime",
              "type": "uint64"
            },
            {
              "internalType": "uint64",
              "name": "endTime",
              "type": "uint64"
            },
            {
              "internalType": "uint256",
              "name": "projectTokenId",
              "type": "uint256"
            },
            {
              "internalType": "uint64",
              "name": "totalVintageQuantity",
              "type": "uint64"
            },
            {
              "internalType": "bool",
              "name": "isCorsiaCompliant",
              "type": "bool"
            },
            {
              "internalType": "bool",
              "name": "isCCPcompliant",
              "type": "bool"
            },
            {
              "internalType": "string",
              "name": "coBenefits",
              "type": "string"
            },
            {
              "internalType": "string",
              "name": "correspAdjustment",
              "type": "string"
            },
            {
              "internalType": "string",
              "name": "additionalCertification",
              "type": "string"
            },
            {
              "internalType": "string",
              "name": "uri",
              "type": "string"
            },
            {
              "internalType": "string",
              "name": "registry",
              "type": "string"
            }
          ],
          "internalType": "struct VintageData",
          "name": "",
          "type": "tuple"
        }
      ],
      "stateMutability": "view",
      "type": "function"
    },
    {
      "inputs": [],
      "name": "getDepositCap",
      "outputs": [
        {
          "internalType": "uint256",
          "name": "",
          "type": "uint256"
        }
      ],
      "stateMutability": "view",
      "type": "function"
    },
    {
      "inputs": [],
      "name": "getGlobalProjectVintageIdentifiers",
      "outputs": [
        {
          "internalType": "string",
          "name": "",
          "type": "string"
        },
        {
          "internalType": "string",
          "name": "",
          "type": "string"
        }
      ],
      "stateMutability": "view",
      "type": "function"
    },
    {
      "inputs": [],
      "name": "getRemaining",
      "outputs": [
        {
          "internalType": "uint256",
          "name": "remaining",
          "type": "uint256"
        }
      ],
      "stateMutability": "view",
      "type": "function"
    },
    {
      "inputs": [],
      "name": "getVintageData",
      "outputs": [
        {
          "components": [
            {
              "internalType": "string",
              "name": "name",
              "type": "string"
            },
            {
              "internalType": "uint64",
              "name": "startTime",
              "type": "uint64"
            },
            {
              "internalType": "uint64",
              "name": "endTime",
              "type": "uint64"
            },
            {
              "internalType": "uint256",
              "name": "projectTokenId",
              "type": "uint256"
            },
            {
              "internalType": "uint64",
              "name": "totalVintageQuantity",
              "type": "uint64"
            },
            {
              "internalType": "bool",
              "name": "isCorsiaCompliant",
              "type": "bool"
            },
            {
              "internalType": "bool",
              "name": "isCCPcompliant",
              "type": "bool"
            },
            {
              "internalType": "string",
              "name": "coBenefits",
              "type": "string"
            },
            {
              "internalType": "string",
              "name": "correspAdjustment",
              "type": "string"
            },
            {
              "internalType": "string",
              "name": "additionalCertification",
              "type": "string"
            },
            {
              "internalType": "string",
              "name": "uri",
              "type": "string"
            },
            {
              "internalType": "string",
              "name": "registry",
              "type": "string"
            }
          ],
          "internalType": "struct VintageData",
          "name": "vintageData",
          "type": "tuple"
        }
      ],
      "stateMutability": "view",
      "type": "function"
    },
    {
      "inputs": [
        {
          "internalType": "address",
          "name": "spender",
          "type": "address"
        },
        {
          "internalType": "uint256",
          "name": "addedValue",
          "type": "uint256"
        }
      ],
      "name": "increaseAllowance",
      "outputs": [
        {
          "internalType": "bool",
          "name": "",
          "type": "bool"
        }
      ],
      "stateMutability": "nonpayable",
      "type": "function"
    },
    {
      "inputs": [
        {
          "internalType": "string",
          "name": "name_",
          "type": "string"
        },
        {
          "internalType": "string",
          "name": "symbol_",
          "type": "string"
        },
        {
          "internalType": "uint256",
          "name": "projectVintageTokenId_",
          "type": "uint256"
        },
        {
          "internalType": "address",
          "name": "contractRegistry_",
          "type": "address"
        }
      ],
      "name": "initialize",
      "outputs": [],
      "stateMutability": "nonpayable",
      "type": "function"
    },
    {
      "inputs": [
        {
          "internalType": "address",
          "name": "",
          "type": "address"
        }
      ],
      "name": "minterToId",
      "outputs": [
        {
          "internalType": "uint256",
          "name": "",
          "type": "uint256"
        }
      ],
      "stateMutability": "view",
      "type": "function"
    },
    {
      "inputs": [],
      "name": "name",
      "outputs": [
        {
          "internalType": "string",
          "name": "",
          "type": "string"
        }
      ],
      "stateMutability": "view",
      "type": "function"
    },
    {
      "inputs": [
        {
          "internalType": "address",
          "name": "",
          "type": "address"
        },
        {
          "internalType": "address",
          "name": "from",
          "type": "address"
        },
        {
          "internalType": "uint256",
          "name": "tokenId",
          "type": "uint256"
        },
        {
          "internalType": "bytes",
          "name": "",
          "type": "bytes"
        }
      ],
      "name": "onERC721Received",
      "outputs": [
        {
          "internalType": "bytes4",
          "name": "",
          "type": "bytes4"
        }
      ],
      "stateMutability": "nonpayable",
      "type": "function"
    },
    {
      "inputs": [],
      "name": "projectVintageTokenId",
      "outputs": [
        {
          "internalType": "uint256",
          "name": "",
          "type": "uint256"
        }
      ],
      "stateMutability": "view",
      "type": "function"
    },
    {
      "inputs": [
        {
          "internalType": "uint256[]",
          "name": "tokenIds",
          "type": "uint256[]"
        },
        {
          "internalType": "uint256",
          "name": "amount",
          "type": "uint256"
        }
      ],
      "name": "requestDetokenization",
      "outputs": [
        {
          "internalType": "uint256",
          "name": "requestId",
          "type": "uint256"
        }
      ],
      "stateMutability": "nonpayable",
      "type": "function"
    },
    {
      "inputs": [
        {
          "components": [
            {
              "internalType": "uint256[]",
              "name": "tokenIds",
              "type": "uint256[]"
            },
            {
              "internalType": "uint256",
              "name": "amount",
              "type": "uint256"
            },
            {
              "internalType": "string",
              "name": "retiringEntityString",
              "type": "string"
            },
            {
              "internalType": "address",
              "name": "beneficiary",
              "type": "address"
            },
            {
              "internalType": "string",
              "name": "beneficiaryString",
              "type": "string"
            },
            {
              "internalType": "string",
              "name": "retirementMessage",
              "type": "string"
            },
            {
              "internalType": "string",
              "name": "beneficiaryLocation",
              "type": "string"
            },
            {
              "internalType": "string",
              "name": "consumptionCountryCode",
              "type": "string"
            },
            {
              "internalType": "uint256",
              "name": "consumptionPeriodStart",
              "type": "uint256"
            },
            {
              "internalType": "uint256",
              "name": "consumptionPeriodEnd",
              "type": "uint256"
            }
          ],
          "internalType": "struct CreateRetirementRequestParams",
          "name": "params",
          "type": "tuple"
        }
      ],
      "name": "requestRetirement",
      "outputs": [
        {
          "internalType": "uint256",
          "name": "requestId",
          "type": "uint256"
        }
      ],
      "stateMutability": "nonpayable",
      "type": "function"
    },
    {
      "inputs": [
        {
          "internalType": "address",
          "name": "retiringEntity",
          "type": "address"
        },
        {
          "components": [
            {
              "internalType": "uint256[]",
              "name": "tokenIds",
              "type": "uint256[]"
            },
            {
              "internalType": "uint256",
              "name": "amount",
              "type": "uint256"
            },
            {
              "internalType": "string",
              "name": "retiringEntityString",
              "type": "string"
            },
            {
              "internalType": "address",
              "name": "beneficiary",
              "type": "address"
            },
            {
              "internalType": "string",
              "name": "beneficiaryString",
              "type": "string"
            },
            {
              "internalType": "string",
              "name": "retirementMessage",
              "type": "string"
            },
            {
              "internalType": "string",
              "name": "beneficiaryLocation",
              "type": "string"
            },
            {
              "internalType": "string",
              "name": "consumptionCountryCode",
              "type": "string"
            },
            {
              "internalType": "uint256",
              "name": "consumptionPeriodStart",
              "type": "uint256"
            },
            {
              "internalType": "uint256",
              "name": "consumptionPeriodEnd",
              "type": "uint256"
            }
          ],
          "internalType": "struct CreateRetirementRequestParams",
          "name": "params",
          "type": "tuple"
        }
      ],
      "name": "retireAndMintCertificateForEntity",
      "outputs": [],
      "stateMutability": "nonpayable",
      "type": "function"
    },
    {
      "inputs": [
        {
          "internalType": "uint256",
          "name": "requestId",
          "type": "uint256"
        }
      ],
      "name": "revertDetokenization",
      "outputs": [],
      "stateMutability": "nonpayable",
      "type": "function"
    },
    {
      "inputs": [
        {
          "internalType": "uint256",
          "name": "requestId",
          "type": "uint256"
        }
      ],
      "name": "revertRetirement",
      "outputs": [],
      "stateMutability": "nonpayable",
      "type": "function"
    },
    {
      "inputs": [],
      "name": "standardRegistry",
      "outputs": [
        {
          "internalType": "string",
          "name": "",
          "type": "string"
        }
      ],
      "stateMutability": "pure",
      "type": "function"
    },
    {
      "inputs": [],
      "name": "standardRegistryDecimals",
      "outputs": [
        {
          "internalType": "uint8",
          "name": "",
          "type": "uint8"
        }
      ],
      "stateMutability": "pure",
      "type": "function"
    },
    {
      "inputs": [],
      "name": "symbol",
      "outputs": [
        {
          "internalType": "string",
          "name": "",
          "type": "string"
        }
      ],
      "stateMutability": "view",
      "type": "function"
    },
    {
      "inputs": [],
      "name": "totalSupply",
      "outputs": [
        {
          "internalType": "uint256",
          "name": "",
          "type": "uint256"
        }
      ],
      "stateMutability": "view",
      "type": "function"
    },
    {
      "inputs": [
        {
          "internalType": "address",
          "name": "recipient",
          "type": "address"
        },
        {
          "internalType": "uint256",
          "name": "amount",
          "type": "uint256"
        }
      ],
      "name": "transfer",
      "outputs": [
        {
          "internalType": "bool",
          "name": "",
          "type": "bool"
        }
      ],
      "stateMutability": "nonpayable",
      "type": "function"
    },
    {
      "inputs": [
        {
          "internalType": "address",
          "name": "sender",
          "type": "address"
        },
        {
          "internalType": "address",
          "name": "recipient",
          "type": "address"
        },
        {
          "internalType": "uint256",
          "name": "amount",
          "type": "uint256"
        }
      ],
      "name": "transferFrom",
      "outputs": [
        {
          "internalType": "bool",
          "name": "",
          "type": "bool"
        }
      ],
      "stateMutability": "nonpayable",
      "type": "function"
    }
  ],
  "numDeployments": 1,
  "solcInputHash": "21ae5f70988e66da4bff33b9b6a2fdaf",
  "bytecode": "0x60806040523480156200001157600080fd5b506200001c62000022565b620000e3565b600054610100900460ff16156200008f5760405162461bcd60e51b815260206004820152602760248201527f496e697469616c697a61626c653a20636f6e747261637420697320696e697469604482015266616c697a696e6760c81b606482015260840160405180910390fd5b60005460ff90811614620000e1576000805460ff191660ff9081179091556040519081527f7f26b83ff96e1f2b6a682f133852f6798a09c465da95921460cefb38474024989060200160405180910390a15b565b6150d580620000f36000396000f3fe608060405234801561001057600080fd5b506004361061023d5760003560e01c806374f4f5471161013b578063abf410e5116100b8578063e819426c1161007c578063e819426c14610521578063e9d5c8d514610529578063eca45d8214610549578063ed3468791461055c578063ffa1ad741461056f57600080fd5b8063abf410e5146104b5578063bd3a13f6146104e0578063c860c58c146104f3578063d6a022b814610506578063dd62ed3e1461050e57600080fd5b80638c2a993e116100ff5780638c2a993e1461046157806395d89b411461047457806396746d431461047c578063a457c2d71461048f578063a9059cbb146104a257600080fd5b806374f4f547146103ee5780637903c7d01461040157806379cc67901461041457806383f2fc3e1461042757806384d8b61a1461044e57600080fd5b80633633f35f116101c957806365ec18091161018d57806365ec1809146103195780636746e7be146103955780636ca0b0d7146103aa5780636d059f5a146103b257806370a08231146103c557600080fd5b80633633f35f14610328578063395093511461033d5780633c31175e146103505780635c6f3a901461035857806364c5a4031461037f57600080fd5b8063150b7a0211610210578063150b7a02146102bc578063152583de146102e857806318160ddd146102fe57806323b872dd14610306578063313ce5671461031957600080fd5b806301a598da146102425780630605a3341461025d57806306fdde0314610284578063095ea7b314610299575b600080fd5b61024a610593565b6040519081526020015b60405180910390f35b61024a7fe70d28ebd9d7d9a3dd77d46ae2481f301c80806f395b08de31d8e095b1c46cee81565b61028c6105ec565b6040516102549190613eab565b6102ac6102a7366004613ee1565b610627565b6040519015158152602001610254565b6102cf6102ca366004613f0d565b610641565b6040516001600160e01b03199091168152602001610254565b6102f0610c14565b6040516102549291906140d7565b60355461024a565b6102ac61031436600461421f565b610e0d565b60405160128152602001610254565b610330610f50565b6040516102549190614260565b6102ac61034b366004613ee1565b611045565b61028c611067565b61024a7ffb7778e60e898528875e31f94e3a623d6302be2aa540c7a7f5ae26fe5ee2498d81565b610387611085565b604051610254929190614273565b6103a86103a33660046142b1565b6110af565b005b61024a600181565b6103a86103c0366004614300565b6115b4565b61024a6103d3366004614319565b6001600160a01b031660009081526033602052604090205490565b6103a86103fc366004613ee1565b6118d5565b6103a861040f366004614300565b611b0a565b6103a8610422366004613ee1565b611e83565b61024a7ff70ccd5004a2a6f964f044c0095454c529799f8602238d52b5a197af351dd41981565b61024a61045c366004614336565b611f9d565b6103a861046f366004613ee1565b61227a565b61028c6124a7565b6103a861048a366004614300565b6124cc565b6102ac61049d366004613ee1565b6127ed565b6102ac6104b0366004613ee1565b612873565b6066546104c8906001600160a01b031681565b6040516001600160a01b039091168152602001610254565b6103a86104ee366004614481565b6129b4565b6103a8610501366004614300565b612aeb565b61024a612e0c565b61024a61051c366004614500565b612e2c565b60655461024a565b61024a610537366004614319565b60676020526000908152604090205481565b61024a610557366004614539565b612e57565b6103a861056a366004614300565b613136565b61028c604051806040016040528060058152602001640312e332e360dc1b81525081565b600061059d613cde565b6105a5610c14565b6080810151909250905060006105bd6012600a6146ad565b6105d0906001600160401b0384166146bc565b9050806000036105e557600019935050505090565b9392505050565b60608060606105f9611085565b604051919350915061061190839083906020016146db565b6040516020818303038152906040529250505090565b600033610635818585613457565b60019150505b92915050565b60665460009081906001600160a01b03166391148b2761065f611067565b6040518263ffffffff1660e01b815260040161067b9190613eab565b602060405180830381865afa158015610698573d6000803e3d6000fd5b505050506040513d601f19601f820116820180604052508101906106bc9190614744565b90506000816001600160a01b0316635c975abb6040518163ffffffff1660e01b8152600401602060405180830381865afa1580156106fe573d6000803e3d6000fd5b505050506040513d601f19601f820116820180604052508101906107229190614771565b9050801561074b5760405162461bcd60e51b81526004016107429061478c565b60405180910390fd5b6107543361357c565b60405180604001604052806002815260200161068760f31b8152509061078d5760405162461bcd60e51b81526004016107429190613eab565b50600080600061079d338a613617565b925092509250606554831460405180604001604052806002815260200161343960f01b815250906107e15760405162461bcd60e51b81526004016107429190613eab565b5060038160068111156107f6576107f66147b1565b148061081357506005816006811115610811576108116147b1565b145b1561082b5750630a85bd0160e11b9450610c09915050565b600281600681111561083f5761083f6147b1565b1460405180604001604052806002815260200161343760f01b815250906108795760405162461bcd60e51b81526004016107429190613eab565b5081610883612e0c565b101560405180604001604052806002815260200161035360f41b815250906108be5760405162461bcd60e51b81526004016107429190613eab565b506001600160a01b03808b1660009081526067602052604081208b90556066549091166391148b276108ee611067565b6040518263ffffffff1660e01b815260040161090a9190613eab565b602060405180830381865afa158015610927573d6000803e3d6000fd5b505050506040513d601f19601f8201168201806040525081019061094b9190614744565b90506000816001600160a01b03166380e2d3f06040518163ffffffff1660e01b8152600401602060405180830381865afa15801561098d573d6000803e3d6000fd5b505050506040513d601f19601f820116820180604052508101906109b19190614744565b90506001600160a01b0381166109d0576109cb8c856136af565b610bf9565b6040516379bcd2d160e11b81526004810185905260009081906001600160a01b0385169063f379a5a2906024016040805180830381865afa158015610a19573d6000803e3d6000fd5b505050506040513d601f19601f82011682018060405250810190610a3d91906147c7565b9092509050610a558e610a5084896147eb565b6136af565b6000846001600160a01b031663581cd1106040518163ffffffff1660e01b8152600401602060405180830381865afa158015610a95573d6000803e3d6000fd5b505050506040513d601f19601f82011682018060405250810190610ab99190614744565b90506001600160a01b03811615801590610ad35750600082115b15610b9757610ae282846147eb565b9250610aee84846136af565b610af881836136af565b7f075a2720282fdf622141dae0b048ef90a21a7e57c134c76912d19d006b3b3f6f8f84604051610b3d9291906001600160a01b03929092168252602082015260400190565b60405180910390a17fa2f0f5180dc62f2d34c8207f1d18178d31bd0de616f83636434ddf48de0ae6fa8f83604051610b8a9291906001600160a01b03929092168252602082015260400190565b60405180910390a1610bf5565b8215610bf557610ba784846136af565b7f075a2720282fdf622141dae0b048ef90a21a7e57c134c76912d19d006b3b3f6f8f84604051610bec9291906001600160a01b03929092168252602082015260400190565b60405180910390a15b5050505b50630a85bd0160e11b9650505050505b505095945050505050565b610c1c613d5e565b610c24613cde565b606654604080516301157a8360e01b815290516000926001600160a01b0316916301157a839160048083019260209291908290030181865afa158015610c6e573d6000803e3d6000fd5b505050506040513d601f19601f82011682018060405250810190610c929190614744565b90506000606660009054906101000a90046001600160a01b03166001600160a01b031663a0af25606040518163ffffffff1660e01b8152600401602060405180830381865afa158015610ce9573d6000803e3d6000fd5b505050506040513d601f19601f82011682018060405250810190610d0d9190614744565b90506000816001600160a01b03166315bbf0746065546040518263ffffffff1660e01b8152600401610d4191815260200190565b600060405180830381865afa158015610d5e573d6000803e3d6000fd5b505050506040513d6000823e601f3d908101601f19168201604052610d86919081019061485e565b90506000836001600160a01b03166347e3168683606001516040518263ffffffff1660e01b8152600401610dbc91815260200190565b600060405180830381865afa158015610dd9573d6000803e3d6000fd5b505050506040513d6000823e601f3d908101601f19168201604052610e0191908101906149e8565b96919550909350505050565b6000826001600160a01b038116610e2357600080fd5b306001600160a01b03821603610e3857600080fd5b6066546000906001600160a01b03166391148b27610e54611067565b6040518263ffffffff1660e01b8152600401610e709190613eab565b602060405180830381865afa158015610e8d573d6000803e3d6000fd5b505050506040513d601f19601f82011682018060405250810190610eb19190614744565b90506000816001600160a01b0316635c975abb6040518163ffffffff1660e01b8152600401602060405180830381865afa158015610ef3573d6000803e3d6000fd5b505050506040513d601f19601f82011682018060405250810190610f179190614771565b90508015610f375760405162461bcd60e51b81526004016107429061478c565b610f42878787613770565b506001979650505050505050565b610f58613cde565b60665460408051630505792b60e51b815290516000926001600160a01b03169163a0af25609160048083019260209291908290030181865afa158015610fa2573d6000803e3d6000fd5b505050506040513d601f19601f82011682018060405250810190610fc69190614744565b60655460405163056efc1d60e21b81529192506001600160a01b038316916315bbf07491610ffa9160040190815260200190565b600060405180830381865afa158015611017573d6000803e3d6000fd5b505050506040513d6000823e601f3d908101601f1916820160405261103f919081019061485e565b91505090565b6000336106358185856110588383612e2c565b6110629190614b8d565b613457565b6040805180820190915260048152637075726f60e01b602082015290565b606080611090613d5e565b611098613cde565b6110a0610c14565b90519051909590945092505050565b60665460408051637394ca7160e11b8152905133926001600160a01b03169163e72994e29160048083019260209291908290030181865afa1580156110f8573d6000803e3d6000fd5b505050506040513d601f19601f8201168201806040525081019061111c9190614744565b6001600160a01b0316146111685760405162461bcd60e51b8152602060048201526013602482015272139bdd08195cd8dc9bddc818dbdb9d1c9858dd606a1b6044820152606401610742565b6066546000906001600160a01b03166391148b27611184611067565b6040518263ffffffff1660e01b81526004016111a09190613eab565b602060405180830381865afa1580156111bd573d6000803e3d6000fd5b505050506040513d601f19601f820116820180604052508101906111e19190614744565b90506000816001600160a01b0316635c975abb6040518163ffffffff1660e01b8152600401602060405180830381865afa158015611223573d6000803e3d6000fd5b505050506040513d601f19601f820116820180604052508101906112479190614771565b905080156112675760405162461bcd60e51b81526004016107429061478c565b60006112756012600a6146ad565b905060006112838580614ba5565b905090506000816001600160401b038111156112a1576112a1614372565b6040519080825280602002602001820160405280156112ca578160200160208202803683370190505b5090506000606660009054906101000a90046001600160a01b031690506000816001600160a01b0316634be4e3dd6040518163ffffffff1660e01b8152600401602060405180830381865afa158015611327573d6000803e3d6000fd5b505050506040513d601f19601f8201168201806040525081019061134b9190614744565b905060005b848110156114d35760006001600160a01b03831663dff35e836113738c80614ba5565b8581811061138357611383614bf5565b905060200201356040518263ffffffff1660e01b81526004016113a891815260200190565b606060405180830381865afa1580156113c5573d6000803e3d6000fd5b505050506040513d601f19601f820116820180604052508101906113e99190614c0b565b509150600090506001600160a01b038416639bd905f86114098d80614ba5565b8681811061141957611419614bf5565b905060200201356040518263ffffffff1660e01b815260040161143e91815260200190565b600060405180830381865afa15801561145b573d6000803e3d6000fd5b505050506040513d6000823e601f3d908101601f191682016040526114839190810190614c48565b9050600061149c336114958b866146bc565b8f85613789565b9050808785815181106114b1576114b1614bf5565b60200260200101818152505050505080806114cb90614c7c565b915050611350565b50816001600160a01b031663376b5dce6040518163ffffffff1660e01b8152600401602060405180830381865afa158015611512573d6000803e3d6000fd5b505050506040513d601f19601f820116820180604052508101906115369190614744565b6001600160a01b031663cc91e5e98a8a866040518463ffffffff1660e01b815260040161156593929190614e9b565b6020604051808303816000875af1158015611584573d6000803e3d6000fd5b505050506040513d601f19601f820116820180604052508101906115a89190614f01565b50505050505050505050565b6066546000906001600160a01b03166391148b276115d0611067565b6040518263ffffffff1660e01b81526004016115ec9190613eab565b602060405180830381865afa158015611609573d6000803e3d6000fd5b505050506040513d601f19601f8201168201806040525081019061162d9190614744565b90506000816001600160a01b0316635c975abb6040518163ffffffff1660e01b8152600401602060405180830381865afa15801561166f573d6000803e3d6000fd5b505050506040513d601f19601f820116820180604052508101906116939190614771565b905080156116b35760405162461bcd60e51b81526004016107429061478c565b6066547ffb7778e60e898528875e31f94e3a623d6302be2aa540c7a7f5ae26fe5ee2498d906001600160a01b03166391148b276116ee611067565b6040518263ffffffff1660e01b815260040161170a9190613eab565b602060405180830381865afa158015611727573d6000803e3d6000fd5b505050506040513d601f19601f8201168201806040525081019061174b9190614744565b604051632474521560e21b8152600481018390523360248201526001600160a01b0391909116906391d1485490604401602060405180830381865afa158015611798573d6000803e3d6000fd5b505050506040513d601f19601f820116820180604052508101906117bc9190614771565b6117d85760405162461bcd60e51b815260040161074290614f1a565b60665460408051637394ca7160e11b815290516000926001600160a01b03169163e72994e29160048083019260209291908290030181865afa158015611822573d6000803e3d6000fd5b505050506040513d601f19601f820116820180604052508101906118469190614744565b604051631d42b1bf60e31b8152600481018790529091506001600160a01b0382169063ea158df890602401600060405180830381600087803b15801561188b57600080fd5b505af115801561189f573d6000803e3d6000fd5b50506040518792507f11824358702d89f2293e23da6c058c3c600cd7312e29fe855817f50b4ac2e95b9150600090a25050505050565b6066546000906001600160a01b03166391148b276118f1611067565b6040518263ffffffff1660e01b815260040161190d9190613eab565b602060405180830381865afa15801561192a573d6000803e3d6000fd5b505050506040513d601f19601f8201168201806040525081019061194e9190614744565b90506000816001600160a01b0316635c975abb6040518163ffffffff1660e01b8152600401602060405180830381865afa158015611990573d6000803e3d6000fd5b505050506040513d601f19601f820116820180604052508101906119b49190614771565b905080156119d45760405162461bcd60e51b81526004016107429061478c565b6066546000906001600160a01b03166391148b276119f0611067565b6040518263ffffffff1660e01b8152600401611a0c9190613eab565b602060405180830381865afa158015611a29573d6000803e3d6000fd5b505050506040513d601f19601f82011682018060405250810190611a4d9190614744565b6040516311afe75f60e11b81523360048201529091506000906001600160a01b0383169063235fcebe90602401602060405180830381865afa158015611a97573d6000803e3d6000fd5b505050506040513d601f19601f82011682018060405250810190611abb9190614771565b905080611af85760405162461bcd60e51b815260206004820152600b60248201526a139bdd08185b1b1bddd95960aa1b6044820152606401610742565b611b0286866138d6565b505050505050565b6066546000906001600160a01b03166391148b27611b26611067565b6040518263ffffffff1660e01b8152600401611b429190613eab565b602060405180830381865afa158015611b5f573d6000803e3d6000fd5b505050506040513d601f19601f82011682018060405250810190611b839190614744565b90506000816001600160a01b0316635c975abb6040518163ffffffff1660e01b8152600401602060405180830381865afa158015611bc5573d6000803e3d6000fd5b505050506040513d601f19601f82011682018060405250810190611be99190614771565b90508015611c095760405162461bcd60e51b81526004016107429061478c565b6066546000906001600160a01b03166391148b27611c25611067565b6040518263ffffffff1660e01b8152600401611c419190613eab565b602060405180830381865afa158015611c5e573d6000803e3d6000fd5b505050506040513d601f19601f82011682018060405250810190611c829190614744565b90506000816001600160a01b0316638da5cb5b6040518163ffffffff1660e01b8152600401602060405180830381865afa158015611cc4573d6000803e3d6000fd5b505050506040513d601f19601f82011682018060405250810190611ce89190614744565b90506001600160a01b0381163314611d365760405162461bcd60e51b81526020600482015260116024820152702737ba103330b1ba37b93c9037bbb732b960791b6044820152606401610742565b60665460408051634be4e3dd60e01b815290516000926001600160a01b031691634be4e3dd9160048083019260209291908290030181865afa158015611d80573d6000803e3d6000fd5b505050506040513d601f19601f82011682018060405250810190611da49190614744565b9050600080611db38389613617565b909350915060029050816006811115611dce57611dce6147b1565b1460405180604001604052806002815260200161343760f01b81525090611e085760405162461bcd60e51b81526004016107429190613eab565b50611e1333836138d6565b6040516323b872dd60e01b8152306004820152336024820152604481018990526001600160a01b038416906323b872dd90606401600060405180830381600087803b158015611e6157600080fd5b505af1158015611e75573d6000803e3d6000fd5b505050505050505050505050565b6066546000906001600160a01b03166391148b27611e9f611067565b6040518263ffffffff1660e01b8152600401611ebb9190613eab565b602060405180830381865afa158015611ed8573d6000803e3d6000fd5b505050506040513d601f19601f82011682018060405250810190611efc9190614744565b90506000816001600160a01b0316635c975abb6040518163ffffffff1660e01b8152600401602060405180830381865afa158015611f3e573d6000803e3d6000fd5b505050506040513d601f19601f82011682018060405250810190611f629190614771565b90508015611f825760405162461bcd60e51b81526004016107429061478c565b611f8d843385613a07565b611f9784846138d6565b50505050565b6000602082013581611fb16012600a6146ad565b905080611fbe8184614f42565b611fc891906146bc565b8214604051806040016040528060028152602001610d4d60f21b815250906120035760405162461bcd60e51b81526004016107429190613eab565b506066546000906001600160a01b03166391148b27612020611067565b6040518263ffffffff1660e01b815260040161203c9190613eab565b602060405180830381865afa158015612059573d6000803e3d6000fd5b505050506040513d601f19601f8201168201806040525081019061207d9190614744565b90506000816001600160a01b0316635c975abb6040518163ffffffff1660e01b8152600401602060405180830381865afa1580156120bf573d6000803e3d6000fd5b505050506040513d601f19601f820116820180604052508101906120e39190614771565b905080156121035760405162461bcd60e51b81526004016107429061478c565b60665460408051637394ca7160e11b815290516000926001600160a01b03169163e72994e29160048083019260209291908290030181865afa15801561214d573d6000803e3d6000fd5b505050506040513d601f19601f820116820180604052508101906121719190614744565b9050612181818860200135610627565b604051806040016040528060028152602001611a1b60f11b815250906121ba5760405162461bcd60e51b81526004016107429190613eab565b50604051630aeb2d2360e41b81526001600160a01b0382169063aeb2d230906121e99033908b90600401614f64565b6020604051808303816000875af1158015612208573d6000803e3d6000fd5b505050506040513d601f19601f8201168201806040525081019061222c9190614f01565b955085336001600160a01b03167fab868181315a0726750cc674eb8fd78793b34ec9de4e55b2a811172dbe6450ce896040516122689190614f88565b60405180910390a35050505050919050565b6066546000906001600160a01b03166391148b27612296611067565b6040518263ffffffff1660e01b81526004016122b29190613eab565b602060405180830381865afa1580156122cf573d6000803e3d6000fd5b505050506040513d601f19601f820116820180604052508101906122f39190614744565b90506000816001600160a01b0316635c975abb6040518163ffffffff1660e01b8152600401602060405180830381865afa158015612335573d6000803e3d6000fd5b505050506040513d601f19601f820116820180604052508101906123599190614771565b905080156123795760405162461bcd60e51b81526004016107429061478c565b6066546000906001600160a01b03166391148b27612395611067565b6040518263ffffffff1660e01b81526004016123b19190613eab565b602060405180830381865afa1580156123ce573d6000803e3d6000fd5b505050506040513d601f19601f820116820180604052508101906123f29190614744565b6040516311afe75f60e11b81523360048201529091506000906001600160a01b0383169063235fcebe90602401602060405180830381865afa15801561243c573d6000803e3d6000fd5b505050506040513d601f19601f820116820180604052508101906124609190614771565b90508061249d5760405162461bcd60e51b815260206004820152600b60248201526a139bdd08185b1b1bddd95960aa1b6044820152606401610742565b611b0286866136af565b60608060606124b4611085565b60405191935091506106119083908390602001614f9b565b6066546000906001600160a01b03166391148b276124e8611067565b6040518263ffffffff1660e01b81526004016125049190613eab565b602060405180830381865afa158015612521573d6000803e3d6000fd5b505050506040513d601f19601f820116820180604052508101906125459190614744565b90506000816001600160a01b0316635c975abb6040518163ffffffff1660e01b8152600401602060405180830381865afa158015612587573d6000803e3d6000fd5b505050506040513d601f19601f820116820180604052508101906125ab9190614771565b905080156125cb5760405162461bcd60e51b81526004016107429061478c565b6066547ffb7778e60e898528875e31f94e3a623d6302be2aa540c7a7f5ae26fe5ee2498d906001600160a01b03166391148b27612606611067565b6040518263ffffffff1660e01b81526004016126229190613eab565b602060405180830381865afa15801561263f573d6000803e3d6000fd5b505050506040513d601f19601f820116820180604052508101906126639190614744565b604051632474521560e21b8152600481018390523360248201526001600160a01b0391909116906391d1485490604401602060405180830381865afa1580156126b0573d6000803e3d6000fd5b505050506040513d601f19601f820116820180604052508101906126d49190614771565b6126f05760405162461bcd60e51b815260040161074290614f1a565b60665460408051637394ca7160e11b815290516000926001600160a01b03169163e72994e29160048083019260209291908290030181865afa15801561273a573d6000803e3d6000fd5b505050506040513d601f19601f8201168201806040525081019061275e9190614744565b60405163075f2da360e51b8152600481018790529091506001600160a01b0382169063ebe5b46090602401600060405180830381600087803b1580156127a357600080fd5b505af11580156127b7573d6000803e3d6000fd5b50506040518792507f57e4027df666ec477f55d7dd87fb5a098836de7eaf475ba43d684b5d438d238b9150600090a25050505050565b600033816127fb8286612e2c565b90508381101561285b5760405162461bcd60e51b815260206004820152602560248201527f45524332303a2064656372656173656420616c6c6f77616e63652062656c6f77604482015264207a65726f60d81b6064820152608401610742565b6128688286868403613457565b506001949350505050565b6000826001600160a01b03811661288957600080fd5b306001600160a01b0382160361289e57600080fd5b6066546000906001600160a01b03166391148b276128ba611067565b6040518263ffffffff1660e01b81526004016128d69190613eab565b602060405180830381865afa1580156128f3573d6000803e3d6000fd5b505050506040513d601f19601f820116820180604052508101906129179190614744565b90506000816001600160a01b0316635c975abb6040518163ffffffff1660e01b8152600401602060405180830381865afa158015612959573d6000803e3d6000fd5b505050506040513d601f19601f8201168201806040525081019061297d9190614771565b9050801561299d5760405162461bcd60e51b81526004016107429061478c565b6129a78686613a7b565b5060019695505050505050565b600054610100900460ff16158080156129d45750600054600160ff909116105b806129ee5750303b1580156129ee575060005460ff166001145b612a515760405162461bcd60e51b815260206004820152602e60248201527f496e697469616c697a61626c653a20636f6e747261637420697320616c72656160448201526d191e481a5b9a5d1a585b1a5e995960921b6064820152608401610742565b6000805460ff191660011790558015612a74576000805461ff0019166101001790555b612a7e8585613a89565b6065839055606680546001600160a01b0319166001600160a01b0384161790558015612ae4576000805461ff0019169055604051600181527f7f26b83ff96e1f2b6a682f133852f6798a09c465da95921460cefb38474024989060200160405180910390a15b5050505050565b6066546000906001600160a01b03166391148b27612b07611067565b6040518263ffffffff1660e01b8152600401612b239190613eab565b602060405180830381865afa158015612b40573d6000803e3d6000fd5b505050506040513d601f19601f82011682018060405250810190612b649190614744565b90506000816001600160a01b0316635c975abb6040518163ffffffff1660e01b8152600401602060405180830381865afa158015612ba6573d6000803e3d6000fd5b505050506040513d601f19601f82011682018060405250810190612bca9190614771565b90508015612bea5760405162461bcd60e51b81526004016107429061478c565b6066547ff70ccd5004a2a6f964f044c0095454c529799f8602238d52b5a197af351dd419906001600160a01b03166391148b27612c25611067565b6040518263ffffffff1660e01b8152600401612c419190613eab565b602060405180830381865afa158015612c5e573d6000803e3d6000fd5b505050506040513d601f19601f82011682018060405250810190612c829190614744565b604051632474521560e21b8152600481018390523360248201526001600160a01b0391909116906391d1485490604401602060405180830381865afa158015612ccf573d6000803e3d6000fd5b505050506040513d601f19601f82011682018060405250810190612cf39190614771565b612d0f5760405162461bcd60e51b815260040161074290614f1a565b60665460408051637394ca7160e11b815290516000926001600160a01b03169163e72994e29160048083019260209291908290030181865afa158015612d59573d6000803e3d6000fd5b505050506040513d601f19601f82011682018060405250810190612d7d9190614744565b6040516392ad01fd60e01b8152600481018790529091506001600160a01b038216906392ad01fd90602401600060405180830381600087803b158015612dc257600080fd5b505af1158015612dd6573d6000803e3d6000fd5b50506040518792507f8f7beb6efa236b725c90af1831975edbd62f2792f52fdb645ded13759232085d9150600090a25050505050565b600080612e17610593565b9050612e2260355490565b61103f90826147eb565b6001600160a01b03918216600090815260346020908152604080832093909416825291909152205490565b60008181612e676012600a6146ad565b905080612e748184614f42565b612e7e91906146bc565b8214604051806040016040528060028152602001610d4d60f21b81525090612eb95760405162461bcd60e51b81526004016107429190613eab565b506066546000906001600160a01b03166391148b27612ed6611067565b6040518263ffffffff1660e01b8152600401612ef29190613eab565b602060405180830381865afa158015612f0f573d6000803e3d6000fd5b505050506040513d601f19601f82011682018060405250810190612f339190614744565b90506000816001600160a01b0316635c975abb6040518163ffffffff1660e01b8152600401602060405180830381865afa158015612f75573d6000803e3d6000fd5b505050506040513d601f19601f82011682018060405250810190612f999190614771565b90508015612fb95760405162461bcd60e51b81526004016107429061478c565b60665460408051637394ca7160e11b815290516000926001600160a01b03169163e72994e29160048083019260209291908290030181865afa158015613003573d6000803e3d6000fd5b505050506040513d601f19601f820116820180604052508101906130279190614744565b90506130338188610627565b604051806040016040528060028152602001611a1b60f11b8152509061306c5760405162461bcd60e51b81526004016107429190613eab565b5060405163c346a8bf60e01b81526001600160a01b0382169063c346a8bf9061309f9033908b908e908e90600401614fe8565b6020604051808303816000875af11580156130be573d6000803e3d6000fd5b505050506040513d601f19601f820116820180604052508101906130e29190614f01565b955085336001600160a01b03167f64abd27c2f173f29d68e3c4d0922caa80fe66344f802fd6a064cd9ae298db307898c8c60405161312293929190615010565b60405180910390a350505050509392505050565b6066546000906001600160a01b03166391148b27613152611067565b6040518263ffffffff1660e01b815260040161316e9190613eab565b602060405180830381865afa15801561318b573d6000803e3d6000fd5b505050506040513d601f19601f820116820180604052508101906131af9190614744565b90506000816001600160a01b0316635c975abb6040518163ffffffff1660e01b8152600401602060405180830381865afa1580156131f1573d6000803e3d6000fd5b505050506040513d601f19601f820116820180604052508101906132159190614771565b905080156132355760405162461bcd60e51b81526004016107429061478c565b6066547ff70ccd5004a2a6f964f044c0095454c529799f8602238d52b5a197af351dd419906001600160a01b03166391148b27613270611067565b6040518263ffffffff1660e01b815260040161328c9190613eab565b602060405180830381865afa1580156132a9573d6000803e3d6000fd5b505050506040513d601f19601f820116820180604052508101906132cd9190614744565b604051632474521560e21b8152600481018390523360248201526001600160a01b0391909116906391d1485490604401602060405180830381865afa15801561331a573d6000803e3d6000fd5b505050506040513d601f19601f8201168201806040525081019061333e9190614771565b61335a5760405162461bcd60e51b815260040161074290614f1a565b60665460408051637394ca7160e11b815290516000926001600160a01b03169163e72994e29160048083019260209291908290030181865afa1580156133a4573d6000803e3d6000fd5b505050506040513d601f19601f820116820180604052508101906133c89190614744565b6040516304314a1d60e51b8152600481018790529091506001600160a01b0382169063862943a090602401600060405180830381600087803b15801561340d57600080fd5b505af1158015613421573d6000803e3d6000fd5b50506040518792507f8baa1509b9f6c83973f788904506386c5b2b93480f289aeafd9f43f9df1c94a89150600090a25050505050565b6001600160a01b0383166134b95760405162461bcd60e51b8152602060048201526024808201527f45524332303a20617070726f76652066726f6d20746865207a65726f206164646044820152637265737360e01b6064820152608401610742565b6001600160a01b03821661351a5760405162461bcd60e51b815260206004820152602260248201527f45524332303a20617070726f766520746f20746865207a65726f206164647265604482015261737360f01b6064820152608401610742565b6001600160a01b0383811660008181526034602090815260408083209487168084529482529182902085905590518481527f8c5be1e5ebec7d5bd14f71427d1e84f3dd0314c0f7b2291e5b200ac8c7c3b92591015b60405180910390a3505050565b60665460408051634be4e3dd60e01b815290516000926001600160a01b031691634be4e3dd9160048083019260209291908290030181865afa1580156135c6573d6000803e3d6000fd5b505050506040513d601f19601f820116820180604052508101906135ea9190614744565b6001600160a01b0316826001600160a01b03160361360a57506001919050565b506000919050565b919050565b600080600080600080876001600160a01b031663dff35e83886040518263ffffffff1660e01b815260040161364e91815260200190565b606060405180830381865afa15801561366b573d6000803e3d6000fd5b505050506040513d601f19601f8201168201806040525081019061368f9190614c0b565b9250925092508261369f83613b1b565b9096509450925050509250925092565b6001600160a01b0382166137055760405162461bcd60e51b815260206004820152601f60248201527f45524332303a206d696e7420746f20746865207a65726f2061646472657373006044820152606401610742565b80603560008282546137179190614b8d565b90915550506001600160a01b0382166000818152603360209081526040808320805486019055518481527fddf252ad1be2c89b69c2b068fc378daa952ba7f163c4a11628f55a4df523b3ef910160405180910390a35050565b60003361377e858285613a07565b612868858585613b33565b600061379585856138d6565b60665460408051631bb5aee760e11b815290516000926001600160a01b03169163376b5dce9160048083019260209291908290030181865afa1580156137df573d6000803e3d6000fd5b505050506040513d601f19601f820116820180604052508101906138039190614744565b60655460405163207e1ab560e11b81529192506001600160a01b038316916340fc356a9161383d918891908a90899060009060040161502a565b6020604051808303816000875af115801561385c573d6000803e3d6000fd5b505050506040513d601f19601f820116820180604052508101906138809190614f01565b604080516001600160a01b0387168152602081018890529081018290529092507fb3775f672e1adf43bf7834b692675bfee4db72f83e42da8cff694ca295a89eca9060600160405180910390a150949350505050565b6001600160a01b0382166139365760405162461bcd60e51b815260206004820152602160248201527f45524332303a206275726e2066726f6d20746865207a65726f206164647265736044820152607360f81b6064820152608401610742565b6001600160a01b038216600090815260336020526040902054818110156139aa5760405162461bcd60e51b815260206004820152602260248201527f45524332303a206275726e20616d6f756e7420657863656564732062616c616e604482015261636560f01b6064820152608401610742565b6001600160a01b03831660008181526033602090815260408083208686039055603580548790039055518581529192917fddf252ad1be2c89b69c2b068fc378daa952ba7f163c4a11628f55a4df523b3ef910161356f565b505050565b6000613a138484612e2c565b90506000198114611f975781811015613a6e5760405162461bcd60e51b815260206004820152601d60248201527f45524332303a20696e73756666696369656e7420616c6c6f77616e63650000006044820152606401610742565b611f978484848403613457565b600033610635818585613b33565b600054610100900460ff16613af45760405162461bcd60e51b815260206004820152602b60248201527f496e697469616c697a61626c653a20636f6e7472616374206973206e6f74206960448201526a6e697469616c697a696e6760a81b6064820152608401610742565b8151613b07906036906020850190613dba565b508051613a02906037906020840190613dba565b6000613b296012600a6146ad565b61063b90836146bc565b6001600160a01b038316613b975760405162461bcd60e51b815260206004820152602560248201527f45524332303a207472616e736665722066726f6d20746865207a65726f206164604482015264647265737360d81b6064820152608401610742565b6001600160a01b038216613bf95760405162461bcd60e51b815260206004820152602360248201527f45524332303a207472616e7366657220746f20746865207a65726f206164647260448201526265737360e81b6064820152608401610742565b6001600160a01b03831660009081526033602052604090205481811015613c715760405162461bcd60e51b815260206004820152602660248201527f45524332303a207472616e7366657220616d6f756e7420657863656564732062604482015265616c616e636560d01b6064820152608401610742565b6001600160a01b0380851660008181526033602052604080822086860390559286168082529083902080548601905591517fddf252ad1be2c89b69c2b068fc378daa952ba7f163c4a11628f55a4df523b3ef90613cd19086815260200190565b60405180910390a3611f97565b6040518061018001604052806060815260200160006001600160401b0316815260200160006001600160401b031681526020016000815260200160006001600160401b0316815260200160001515815260200160001515815260200160608152602001606081526020016060815260200160608152602001606081525090565b60405180610140016040528060608152602001606081526020016060815260200160608152602001606081526020016060815260200160608152602001606081526020016060815260200160006001600160a01b031681525090565b828054613dc69061506b565b90600052602060002090601f016020900481019282613de85760008555613e2e565b82601f10613e0157805160ff1916838001178555613e2e565b82800160010185558215613e2e579182015b82811115613e2e578251825591602001919060010190613e13565b50613e3a929150613e3e565b5090565b5b80821115613e3a5760008155600101613e3f565b60005b83811015613e6e578181015183820152602001613e56565b83811115611f975750506000910152565b60008151808452613e97816020860160208601613e53565b601f01601f19169290920160200192915050565b6020815260006105e56020830184613e7f565b6001600160a01b0381168114613ed357600080fd5b50565b803561361281613ebe565b60008060408385031215613ef457600080fd5b8235613eff81613ebe565b946020939093013593505050565b600080600080600060808688031215613f2557600080fd5b8535613f3081613ebe565b94506020860135613f4081613ebe565b93506040860135925060608601356001600160401b0380821115613f6357600080fd5b818801915088601f830112613f7757600080fd5b813581811115613f8657600080fd5b896020828501011115613f9857600080fd5b9699959850939650602001949392505050565b60006101808251818552613fc182860182613e7f565b9150506020830151613fde60208601826001600160401b03169052565b506040830151613ff960408601826001600160401b03169052565b5060608301516060850152608083015161401e60808601826001600160401b03169052565b5060a083015161403260a086018215159052565b5060c083015161404660c086018215159052565b5060e083015184820360e086015261405e8282613e7f565b91505061010080840151858303828701526140798382613e7f565b9250505061012080840151858303828701526140958382613e7f565b9250505061014080840151858303828701526140b18382613e7f565b9250505061016080840151858303828701526140cd8382613e7f565b9695505050505050565b60408152600083516101408060408501526140f6610180850183613e7f565b91506020860151603f19808685030160608701526141148483613e7f565b935060408801519150808685030160808701526141318483613e7f565b935060608801519150808685030160a087015261414e8483613e7f565b935060808801519150808685030160c087015261416b8483613e7f565b935060a08801519150808685030160e08701526141888483613e7f565b935060c088015191506101008187860301818801526141a78584613e7f565b945060e089015192506101208288870301818901526141c68685613e7f565b9550818a015193508288870301858901526141e18685613e7f565b9550808a01519450505050506142036101608501826001600160a01b03169052565b5082810360208401526142168185613fab565b95945050505050565b60008060006060848603121561423457600080fd5b833561423f81613ebe565b9250602084013561424f81613ebe565b929592945050506040919091013590565b6020815260006105e56020830184613fab565b6040815260006142866040830185613e7f565b82810360208401526142168185613e7f565b600061014082840312156142ab57600080fd5b50919050565b600080604083850312156142c457600080fd5b82356142cf81613ebe565b915060208301356001600160401b038111156142ea57600080fd5b6142f685828601614298565b9150509250929050565b60006020828403121561431257600080fd5b5035919050565b60006020828403121561432b57600080fd5b81356105e581613ebe565b60006020828403121561434857600080fd5b81356001600160401b0381111561435e57600080fd5b61436a84828501614298565b949350505050565b634e487b7160e01b600052604160045260246000fd5b60405161018081016001600160401b03811182821017156143ab576143ab614372565b60405290565b60405161014081016001600160401b03811182821017156143ab576143ab614372565b604051601f8201601f191681016001600160401b03811182821017156143fc576143fc614372565b604052919050565b60006001600160401b0382111561441d5761441d614372565b50601f01601f191660200190565b600082601f83011261443c57600080fd5b813561444f61444a82614404565b6143d4565b81815284602083860101111561446457600080fd5b816020850160208301376000918101602001919091529392505050565b6000806000806080858703121561449757600080fd5b84356001600160401b03808211156144ae57600080fd5b6144ba8883890161442b565b955060208701359150808211156144d057600080fd5b506144dd8782880161442b565b9350506040850135915060608501356144f581613ebe565b939692955090935050565b6000806040838503121561451357600080fd5b823561451e81613ebe565b9150602083013561452e81613ebe565b809150509250929050565b60008060006040848603121561454e57600080fd5b83356001600160401b038082111561456557600080fd5b818601915086601f83011261457957600080fd5b81358181111561458857600080fd5b8760208260051b850101111561459d57600080fd5b6020928301989097509590910135949350505050565b634e487b7160e01b600052601160045260246000fd5b600181815b808511156146045781600019048211156145ea576145ea6145b3565b808516156145f757918102915b93841c93908002906145ce565b509250929050565b60008261461b5750600161063b565b816146285750600061063b565b816001811461463e576002811461464857614664565b600191505061063b565b60ff841115614659576146596145b3565b50506001821b61063b565b5060208310610133831016604e8410600b8410161715614687575081810a61063b565b61469183836145c9565b80600019048211156146a5576146a56145b3565b029392505050565b60006105e560ff84168361460c565b60008160001904831182151516156146d6576146d66145b3565b500290565b75546f7563616e2050726f746f636f6c3a2054434f322d60501b81526000835161470c816016850160208801613e53565b602d60f81b601691840191820152835161472d816017840160208801613e53565b01601701949350505050565b805161361281613ebe565b60006020828403121561475657600080fd5b81516105e581613ebe565b8051801515811461361257600080fd5b60006020828403121561478357600080fd5b6105e582614761565b6020808252600b908201526a2830bab9b2b2102a21a79960a91b604082015260600190565b634e487b7160e01b600052602160045260246000fd5b600080604083850312156147da57600080fd5b505080516020909101519092909150565b6000828210156147fd576147fd6145b3565b500390565b600082601f83011261481357600080fd5b815161482161444a82614404565b81815284602083860101111561483657600080fd5b61436a826020830160208701613e53565b80516001600160401b038116811461361257600080fd5b60006020828403121561487057600080fd5b81516001600160401b038082111561488757600080fd5b90830190610180828603121561489c57600080fd5b6148a4614388565b8251828111156148b357600080fd5b6148bf87828601614802565b8252506148ce60208401614847565b60208201526148df60408401614847565b6040820152606083015160608201526148fa60808401614847565b608082015261490b60a08401614761565b60a082015261491c60c08401614761565b60c082015260e08301518281111561493357600080fd5b61493f87828601614802565b60e083015250610100808401518381111561495957600080fd5b61496588828701614802565b828401525050610120808401518381111561497f57600080fd5b61498b88828701614802565b82840152505061014080840151838111156149a557600080fd5b6149b188828701614802565b82840152505061016080840151838111156149cb57600080fd5b6149d788828701614802565b918301919091525095945050505050565b6000602082840312156149fa57600080fd5b81516001600160401b0380821115614a1157600080fd5b908301906101408286031215614a2657600080fd5b614a2e6143b1565b825182811115614a3d57600080fd5b614a4987828601614802565b825250602083015182811115614a5e57600080fd5b614a6a87828601614802565b602083015250604083015182811115614a8257600080fd5b614a8e87828601614802565b604083015250606083015182811115614aa657600080fd5b614ab287828601614802565b606083015250608083015182811115614aca57600080fd5b614ad687828601614802565b60808301525060a083015182811115614aee57600080fd5b614afa87828601614802565b60a08301525060c083015182811115614b1257600080fd5b614b1e87828601614802565b60c08301525060e083015182811115614b3657600080fd5b614b4287828601614802565b60e0830152506101008084015183811115614b5c57600080fd5b614b6888828701614802565b8284015250506101209150614b7e828401614739565b91810191909152949350505050565b60008219821115614ba057614ba06145b3565b500190565b6000808335601e19843603018112614bbc57600080fd5b8301803591506001600160401b03821115614bd657600080fd5b6020019150600581901b3603821315614bee57600080fd5b9250929050565b634e487b7160e01b600052603260045260246000fd5b600080600060608486031215614c2057600080fd5b8351925060208401519150604084015160078110614c3d57600080fd5b809150509250925092565b600060208284031215614c5a57600080fd5b81516001600160401b03811115614c7057600080fd5b61436a84828501614802565b600060018201614c8e57614c8e6145b3565b5060010190565b6000808335601e19843603018112614cac57600080fd5b83016020810192503590506001600160401b03811115614ccb57600080fd5b8060051b3603821315614bee57600080fd5b81835260006001600160fb1b03831115614cf657600080fd5b8260051b8083602087013760009401602001938452509192915050565b6000808335601e19843603018112614d2a57600080fd5b83016020810192503590506001600160401b03811115614d4957600080fd5b803603821315614bee57600080fd5b81835281816020850137506000828201602090810191909152601f909101601f19169091010190565b6000610140614d908384614c95565b828652614da08387018284614cdd565b9250505060208301356020850152614dbb6040840184614d13565b8583036040870152614dce838284614d58565b92505050614dde60608401613ed6565b6001600160a01b03166060850152614df96080840184614d13565b8583036080870152614e0c838284614d58565b92505050614e1d60a0840184614d13565b85830360a0870152614e30838284614d58565b92505050614e4160c0840184614d13565b85830360c0870152614e54838284614d58565b92505050614e6560e0840184614d13565b85830360e0870152614e78838284614d58565b610100868101359088015261012095860135959096019490945250929392505050565b6001600160a01b038416815260606020808301829052600091614ec090840186614d81565b838103604085015284518082528286019183019060005b81811015614ef357835183529284019291840191600101614ed7565b509098975050505050505050565b600060208284031215614f1357600080fd5b5051919050565b6020808252600e908201526d496e76616c69642061636365737360901b604082015260600190565b600082614f5f57634e487b7160e01b600052601260045260246000fd5b500490565b6001600160a01b038316815260406020820181905260009061436a90830184614d81565b6020815260006105e56020830184614d81565b6454434f322d60d81b815260008351614fbb816005850160208801613e53565b602d60f81b6005918401918201528351614fdc816006840160208801613e53565b01600601949350505050565b60018060a01b03851681528360208201526060604082015260006140cd606083018486614cdd565b838152604060208201526000614216604083018486614cdd565b60018060a01b038616815284602082015283604082015260a06060820152600061505760a0830185613e7f565b905082151560808301529695505050505050565b600181811c9082168061507f57607f821691505b6020821081036142ab57634e487b7160e01b600052602260045260246000fdfea26469706673582212209daec6da65ade6795179c0cbbb5dbacf3b94fe60fdcd48af273de73c8716aefc64736f6c634300080e0033",
  "devdoc": {
    "kind": "dev",
    "methods": {
      "allowance(address,address)": {
        "details": "See {IERC20-allowance}."
      },
      "approve(address,uint256)": {
        "details": "See {IERC20-approve}. NOTE: If `amount` is the maximum `uint256`, the allowance is not updated on `transferFrom`. This is semantically equivalent to an infinite approval. Requirements: - `spender` cannot be the zero address."
      },
      "balanceOf(address)": {
        "details": "See {IERC20-balanceOf}."
      },
      "bridgeBurn(address,uint256)": {
        "params": {
          "account": "The user for whom to burn TCO2",
          "amount": "The amount to burn."
        }
      },
      "bridgeMint(address,uint256)": {
        "params": {
          "account": "The user for whom to mint TCO2",
          "amount": "The amount to mint."
        }
      },
      "burnFrom(address,uint256)": {
        "params": {
          "account": "The user for whom to burn TCO2",
          "amount": "The amount to burn"
        }
      },
      "decimals()": {
        "details": "Returns the number of decimals used to get its user representation. For example, if `decimals` equals `2`, a balance of `505` tokens should be displayed to a user as `5.05` (`505 / 10 ** 2`). Tokens usually opt for a value of 18, imitating the relationship between Ether and Wei. This is the default value returned by this function, unless it's overridden. NOTE: This information is only used for _display_ purposes: it in no way affects any of the arithmetic of the contract, including {IERC20-balanceOf} and {IERC20-transfer}."
      },
      "decreaseAllowance(address,uint256)": {
        "details": "Atomically decreases the allowance granted to `spender` by the caller. This is an alternative to {approve} that can be used as a mitigation for problems described in {IERC20-approve}. Emits an {Approval} event indicating the updated allowance. Requirements: - `spender` cannot be the zero address. - `spender` must have allowance for the caller of at least `subtractedValue`."
      },
      "defractionalize(uint256)": {
        "params": {
          "tokenId": "The batch NFT to defractionalize from the TCO2"
        }
      },
      "finalizeDetokenization(uint256)": {
        "details": "Callable only by a detokenizer.",
        "params": {
          "requestId": "The id of the request to finalize."
        }
      },
      "finalizeRetirement(uint256)": {
        "details": "Callable only by a retirement approver.",
        "params": {
          "requestId": "The ID of the request to finalize."
        }
      },
      "getAttributes()": {
        "details": "Function to get corresponding attributes from the CarbonProjects"
      },
      "getDepositCap()": {
        "details": "Returns the cap for TCO2s based on `totalVintageQuantity` Returns `~unlimited` if the value for the vintage is not set"
      },
      "getGlobalProjectVintageIdentifiers()": {
        "details": "Helper function to retrieve data fragments for `name()` and `symbol()`"
      },
      "getRemaining()": {
        "details": "Returns the remaining space in TCO2 contract before hitting the cap"
      },
      "increaseAllowance(address,uint256)": {
        "details": "Atomically increases the allowance granted to `spender` by the caller. This is an alternative to {approve} that can be used as a mitigation for problems described in {IERC20-approve}. Emits an {Approval} event indicating the updated allowance. Requirements: - `spender` cannot be the zero address."
      },
      "onERC721Received(address,address,uint256,bytes)": {
        "details": "Function is called with `operator` as `msg.sender` in a reference implementation by OZ `from` is the previous owner, not necessarily the same as operator. The hook checks if NFT collection is whitelisted and next if attributes are matching this ERC20 contract"
      },
      "requestDetokenization(uint256[],uint256)": {
        "details": "This function is permissionless and can be called by anyone with enough TCO2 to detokenize",
        "params": {
          "amount": "The amount of TCO2 to detokenize, must be greater than zero and equal to or smaller than the total amount of the batches (and also greater then the total amount of all the batches except the last one)",
          "tokenIds": "Token IDs of one or more batches to detokenize"
        },
        "returns": {
          "requestId": "The ID of the request in the escrow contract"
        }
      },
      "requestRetirement((uint256[],uint256,string,address,string,string,string,string,uint256,uint256))": {
        "details": "When _msgSender() is a contract, an ERC721 token will be minted by finalizeRetirement, regardless of whether _msgSender() is a valid ERC721 receiver or its receiver hook ends up reverting for whatever reason. This is to ensure that the retirement request can always be finalized onchain when its offchain counterpart is successful.",
        "params": {
          "params": "The parameters of the retirement request:     uint256[] tokenIds One or more batches to retire     uint256 amount The amount of TCO2 to retire, must be greater than zero and equal to or smaller than the total amount of the batches (and also greater then the total amount of all the batches except the last one)     string retiringEntityString An identifiable string for the retiring entity, eg. their name     address beneficiary The address of the beneficiary of the retirement     string beneficiaryString An identifiable string for the beneficiary, eg. their name     string retirementMessage A message to be included in the retirement certificate     string beneficiaryLocation The location of the beneficiary of the retirement     string consumptionCountryCode The country code of the consumption location     uint256 consumptionPeriodStart The start of the consumption period, in seconds since the epoch     uint256 consumptionPeriodEnd The end of the consumption period, in seconds since the epoch"
        },
        "returns": {
          "requestId": "The ID of the request in the escrow contract"
        }
      },
      "revertDetokenization(uint256)": {
        "params": {
          "requestId": "The request id in the escrow contract that tracks the detokenization request"
        }
      },
      "revertRetirement(uint256)": {
        "params": {
          "requestId": "The request id in the escrow contract that tracks the retirement request"
        }
      },
      "standardRegistry()": {
        "details": "this must be overridden in the child contract"
      },
      "standardRegistryDecimals()": {
        "details": "this must be overridden in the child contract"
      },
      "totalSupply()": {
        "details": "See {IERC20-totalSupply}."
      }
    },
    "stateVariables": {
      "VERSION": {
        "details": "Version-related parameters. VERSION keeps track of production releases. VERSION_RELEASE_CANDIDATE keeps track of iterations of a VERSION in our staging environment."
      }
    },
    "version": 1
  },
  "userdoc": {
    "kind": "user",
    "methods": {
      "bridgeBurn(address,uint256)": {
        "notice": "Burn TCO2 on behalf of a user. msg.sender does not require approval by the account for the burn to be successfull. This function is exposed so it can be utilized in cross-chain transfers of TCO2 where we want to burn the TCO2 in the source chain but not retire it."
      },
      "bridgeMint(address,uint256)": {
        "notice": "Mint TCO2 on behalf of a user. This function is exposed to be called by authorized message bridge systems and utilized for cross-chain transfers of TCO2 where we want to mint the TCO2 in the source chain."
      },
      "burnFrom(address,uint256)": {
        "notice": "Burn TCO2 on behalf of a user. msg.sender needs to be approved by the account for the burn to be successfull. This function is exposed so it can be utilized to burn credits without retiring them (eg. dispose HFC-23)."
      },
      "defractionalize(uint256)": {
        "notice": "Defractionalize batch NFT by burning the amount of TCO2 from the sender and transfer the batch NFT that was selected to the sender. The only valid sender currently is the TCO2 factory owner."
      },
      "finalizeDetokenization(uint256)": {
        "notice": "Finalize a detokenization request by burning its amount of TCO2. In case the amount requested is smaller than the total amount of TCO2 in the batches, the last batch is split into two new batches, one that balances the total to be the amount requested and the other with the remaining amount."
      },
      "finalizeRetirement(uint256)": {
        "notice": "Finalize a retirement request by burning its amount of TCO2 and minting a certificate for the beneficiary. In case the amount requested is smaller than the total amount of TCO2 in the batches, the last batch is split into two new batches, one that balances the total to be the amount requested and the other with the remaining amount."
      },
      "name()": {
        "notice": "Token name getter overriden to return the a name based on the carbon project data"
      },
      "onERC721Received(address,address,uint256,bytes)": {
        "notice": "Receive hook to fractionalize Batch-NFTs into ERC20's"
      },
      "requestDetokenization(uint256[],uint256)": {
        "notice": "Request a detokenization of batch-NFTs. The amount of TCO2 to detokenize will be transferred from the user to an escrow contract. The detokenization request will be processed asynchronously by Toucan so callers should monitor the status of the request by listening to the DetokenizationFinalized and DetokenizationReverted events."
      },
      "requestRetirement((uint256[],uint256,string,address,string,string,string,string,uint256,uint256))": {
        "notice": "Request a retirement of TCO2s from batch-NFTs. The amount of TCO2s to retire will be transferred from the user to an escrow contract. The retirement request will be processed asynchronously by Toucan so callers should monitor the status of the request by listening to the RetirementFinalized and RetirementReverted events. NOTE: This information is publicly written to the blockchain in plaintext."
      },
      "revertDetokenization(uint256)": {
        "notice": "Revert a detokenization request"
      },
      "revertRetirement(uint256)": {
        "notice": "Revert a retirement request"
      },
      "standardRegistry()": {
        "notice": "Return the name of the registry that this factory is enabling to tokenize, eg., verra"
      },
      "standardRegistryDecimals()": {
        "notice": "Return the minimum precision supported by the registry"
      },
      "symbol()": {
        "notice": "Token symbol getter overriden to return the a symbol based on the carbon project data"
      }
    },
    "notice": "The PuroToucanCarbonOffsets contract is a specific implementation for Puro's logic.",
    "version": 1
  },
  "storageLayout": {
    "storage": [
      {
        "astId": 2373,
        "contract": "contracts/PuroToucanCarbonOffsets.sol:PuroToucanCarbonOffsets",
        "label": "_initialized",
        "offset": 0,
        "slot": "0",
        "type": "t_uint8"
      },
      {
        "astId": 2376,
        "contract": "contracts/PuroToucanCarbonOffsets.sol:PuroToucanCarbonOffsets",
        "label": "_initializing",
        "offset": 1,
        "slot": "0",
        "type": "t_bool"
      },
      {
        "astId": 7515,
        "contract": "contracts/PuroToucanCarbonOffsets.sol:PuroToucanCarbonOffsets",
        "label": "__gap",
        "offset": 0,
        "slot": "1",
        "type": "t_array(t_uint256)50_storage"
      },
      {
        "astId": 4507,
        "contract": "contracts/PuroToucanCarbonOffsets.sol:PuroToucanCarbonOffsets",
        "label": "_balances",
        "offset": 0,
        "slot": "51",
        "type": "t_mapping(t_address,t_uint256)"
      },
      {
        "astId": 4513,
        "contract": "contracts/PuroToucanCarbonOffsets.sol:PuroToucanCarbonOffsets",
        "label": "_allowances",
        "offset": 0,
        "slot": "52",
        "type": "t_mapping(t_address,t_mapping(t_address,t_uint256))"
      },
      {
        "astId": 4515,
        "contract": "contracts/PuroToucanCarbonOffsets.sol:PuroToucanCarbonOffsets",
        "label": "_totalSupply",
        "offset": 0,
        "slot": "53",
        "type": "t_uint256"
      },
      {
        "astId": 4517,
        "contract": "contracts/PuroToucanCarbonOffsets.sol:PuroToucanCarbonOffsets",
        "label": "_name",
        "offset": 0,
        "slot": "54",
        "type": "t_string_storage"
      },
      {
        "astId": 4519,
        "contract": "contracts/PuroToucanCarbonOffsets.sol:PuroToucanCarbonOffsets",
        "label": "_symbol",
        "offset": 0,
        "slot": "55",
        "type": "t_string_storage"
      },
      {
        "astId": 5099,
        "contract": "contracts/PuroToucanCarbonOffsets.sol:PuroToucanCarbonOffsets",
        "label": "__gap",
        "offset": 0,
        "slot": "56",
        "type": "t_array(t_uint256)45_storage"
      },
      {
        "astId": 21088,
        "contract": "contracts/PuroToucanCarbonOffsets.sol:PuroToucanCarbonOffsets",
        "label": "_projectVintageTokenId",
        "offset": 0,
        "slot": "101",
        "type": "t_uint256"
      },
      {
        "astId": 21090,
        "contract": "contracts/PuroToucanCarbonOffsets.sol:PuroToucanCarbonOffsets",
        "label": "contractRegistry",
        "offset": 0,
        "slot": "102",
        "type": "t_address"
      },
      {
        "astId": 21094,
        "contract": "contracts/PuroToucanCarbonOffsets.sol:PuroToucanCarbonOffsets",
        "label": "minterToId",
        "offset": 0,
        "slot": "103",
        "type": "t_mapping(t_address,t_uint256)"
      },
      {
        "astId": 21099,
        "contract": "contracts/PuroToucanCarbonOffsets.sol:PuroToucanCarbonOffsets",
        "label": "retiredAmount",
        "offset": 0,
        "slot": "104",
        "type": "t_mapping(t_address,t_uint256)"
      }
    ],
    "types": {
      "t_address": {
        "encoding": "inplace",
        "label": "address",
        "numberOfBytes": "20"
      },
      "t_array(t_uint256)45_storage": {
        "base": "t_uint256",
        "encoding": "inplace",
        "label": "uint256[45]",
        "numberOfBytes": "1440"
      },
      "t_array(t_uint256)50_storage": {
        "base": "t_uint256",
        "encoding": "inplace",
        "label": "uint256[50]",
        "numberOfBytes": "1600"
      },
      "t_bool": {
        "encoding": "inplace",
        "label": "bool",
        "numberOfBytes": "1"
      },
      "t_mapping(t_address,t_mapping(t_address,t_uint256))": {
        "encoding": "mapping",
        "key": "t_address",
        "label": "mapping(address => mapping(address => uint256))",
        "numberOfBytes": "32",
        "value": "t_mapping(t_address,t_uint256)"
      },
      "t_mapping(t_address,t_uint256)": {
        "encoding": "mapping",
        "key": "t_address",
        "label": "mapping(address => uint256)",
        "numberOfBytes": "32",
        "value": "t_uint256"
      },
      "t_string_storage": {
        "encoding": "bytes",
        "label": "string",
        "numberOfBytes": "32"
      },
      "t_uint256": {
        "encoding": "inplace",
        "label": "uint256",
        "numberOfBytes": "32"
      },
      "t_uint8": {
        "encoding": "inplace",
        "label": "uint8",
        "numberOfBytes": "1"
      }
    }
  }
}