{
  "address": "0x361fFA35bAC5C1bEFd52252F3E758C4826e98540",
  "abi": [
    {
      "inputs": [],
      "stateMutability": "nonpayable",
      "type": "constructor"
    },
    {
      "anonymous": false,
      "inputs": [
        {
          "indexed": false,
          "internalType": "address",
          "name": "previousAdmin",
          "type": "address"
        },
        {
          "indexed": false,
          "internalType": "address",
          "name": "newAdmin",
          "type": "address"
        }
      ],
      "name": "AdminChanged",
      "type": "event"
    },
    {
      "anonymous": false,
      "inputs": [
        {
          "indexed": true,
          "internalType": "address",
          "name": "owner",
          "type": "address"
        },
        {
          "indexed": true,
          "internalType": "address",
          "name": "approved",
          "type": "address"
        },
        {
          "indexed": true,
          "internalType": "uint256",
          "name": "tokenId",
          "type": "uint256"
        }
      ],
      "name": "Approval",
      "type": "event"
    },
    {
      "anonymous": false,
      "inputs": [
        {
          "indexed": true,
          "internalType": "address",
          "name": "owner",
          "type": "address"
        },
        {
          "indexed": true,
          "internalType": "address",
          "name": "operator",
          "type": "address"
        },
        {
          "indexed": false,
          "internalType": "bool",
          "name": "approved",
          "type": "bool"
        }
      ],
      "name": "ApprovalForAll",
      "type": "event"
    },
    {
      "anonymous": false,
      "inputs": [
        {
          "indexed": false,
          "internalType": "string",
          "name": "baseURI",
          "type": "string"
        }
      ],
      "name": "BaseURISet",
      "type": "event"
    },
    {
      "anonymous": false,
      "inputs": [
        {
          "indexed": true,
          "internalType": "address",
          "name": "beacon",
          "type": "address"
        }
      ],
      "name": "BeaconUpgraded",
      "type": "event"
    },
    {
      "anonymous": false,
      "inputs": [
        {
          "indexed": false,
          "internalType": "uint8",
          "name": "version",
          "type": "uint8"
        }
      ],
      "name": "Initialized",
      "type": "event"
    },
    {
      "anonymous": false,
      "inputs": [
        {
          "indexed": false,
          "internalType": "address",
          "name": "account",
          "type": "address"
        }
      ],
      "name": "Paused",
      "type": "event"
    },
    {
      "anonymous": false,
      "inputs": [
        {
          "indexed": true,
          "internalType": "bytes32",
          "name": "role",
          "type": "bytes32"
        },
        {
          "indexed": true,
          "internalType": "bytes32",
          "name": "previousAdminRole",
          "type": "bytes32"
        },
        {
          "indexed": true,
          "internalType": "bytes32",
          "name": "newAdminRole",
          "type": "bytes32"
        }
      ],
      "name": "RoleAdminChanged",
      "type": "event"
    },
    {
      "anonymous": false,
      "inputs": [
        {
          "indexed": true,
          "internalType": "bytes32",
          "name": "role",
          "type": "bytes32"
        },
        {
          "indexed": true,
          "internalType": "address",
          "name": "account",
          "type": "address"
        },
        {
          "indexed": true,
          "internalType": "address",
          "name": "sender",
          "type": "address"
        }
      ],
      "name": "RoleGranted",
      "type": "event"
    },
    {
      "anonymous": false,
      "inputs": [
        {
          "indexed": true,
          "internalType": "bytes32",
          "name": "role",
          "type": "bytes32"
        },
        {
          "indexed": true,
          "internalType": "address",
          "name": "account",
          "type": "address"
        },
        {
          "indexed": true,
          "internalType": "address",
          "name": "sender",
          "type": "address"
        }
      ],
      "name": "RoleRevoked",
      "type": "event"
    },
    {
      "anonymous": false,
      "inputs": [
        {
          "indexed": true,
          "internalType": "address",
          "name": "from",
          "type": "address"
        },
        {
          "indexed": true,
          "internalType": "address",
          "name": "to",
          "type": "address"
        },
        {
          "indexed": true,
          "internalType": "uint256",
          "name": "tokenId",
          "type": "uint256"
        }
      ],
      "name": "Transfer",
      "type": "event"
    },
    {
      "anonymous": false,
      "inputs": [
        {
          "indexed": false,
          "internalType": "address",
          "name": "account",
          "type": "address"
        }
      ],
      "name": "Unpaused",
      "type": "event"
    },
    {
      "anonymous": false,
      "inputs": [
        {
          "indexed": true,
          "internalType": "address",
          "name": "implementation",
          "type": "address"
        }
      ],
      "name": "Upgraded",
      "type": "event"
    },
    {
      "inputs": [],
      "name": "DEFAULT_ADMIN_ROLE",
      "outputs": [
        {
          "internalType": "bytes32",
          "name": "",
          "type": "bytes32"
        }
      ],
      "stateMutability": "view",
      "type": "function"
    },
    {
      "inputs": [],
      "name": "MINTER_ROLE",
      "outputs": [
        {
          "internalType": "bytes32",
          "name": "",
          "type": "bytes32"
        }
      ],
      "stateMutability": "view",
      "type": "function"
    },
    {
      "inputs": [],
      "name": "PAUSER_ROLE",
      "outputs": [
        {
          "internalType": "bytes32",
          "name": "",
          "type": "bytes32"
        }
      ],
      "stateMutability": "view",
      "type": "function"
    },
    {
      "inputs": [],
      "name": "VERSION",
      "outputs": [
        {
          "internalType": "string",
          "name": "",
          "type": "string"
        }
      ],
      "stateMutability": "view",
      "type": "function"
    },
    {
      "inputs": [],
      "name": "VERSION_RELEASE_CANDIDATE",
      "outputs": [
        {
          "internalType": "uint256",
          "name": "",
          "type": "uint256"
        }
      ],
      "stateMutability": "view",
      "type": "function"
    },
    {
      "inputs": [
        {
          "internalType": "address",
          "name": "to",
          "type": "address"
        },
        {
          "internalType": "uint256",
          "name": "tokenId",
          "type": "uint256"
        }
      ],
      "name": "approve",
      "outputs": [],
      "stateMutability": "nonpayable",
      "type": "function"
    },
    {
      "inputs": [
        {
          "internalType": "address",
          "name": "owner",
          "type": "address"
        }
      ],
      "name": "balanceOf",
      "outputs": [
        {
          "internalType": "uint256",
          "name": "",
          "type": "uint256"
        }
      ],
      "stateMutability": "view",
      "type": "function"
    },
    {
      "inputs": [],
      "name": "baseURI",
      "outputs": [
        {
          "internalType": "string",
          "name": "",
          "type": "string"
        }
      ],
      "stateMutability": "view",
      "type": "function"
    },
    {
      "inputs": [
        {
          "internalType": "uint256",
          "name": "",
          "type": "uint256"
        }
      ],
      "name": "fractions",
      "outputs": [
        {
          "internalType": "uint256",
          "name": "amount",
          "type": "uint256"
        },
        {
          "internalType": "uint256",
          "name": "projectVintageTokenId",
          "type": "uint256"
        },
        {
          "internalType": "uint256",
          "name": "createdAt",
          "type": "uint256"
        },
        {
          "internalType": "address",
          "name": "fractioningEntity",
          "type": "address"
        },
        {
          "internalType": "address",
          "name": "beneficiary",
          "type": "address"
        },
        {
          "internalType": "string",
          "name": "beneficiaryString",
          "type": "string"
        },
        {
          "internalType": "string",
          "name": "retirementMessage",
          "type": "string"
        },
        {
          "internalType": "string",
          "name": "beneficiaryLocation",
          "type": "string"
        },
        {
          "internalType": "string",
          "name": "consumptionCountryCode",
          "type": "string"
        },
        {
          "internalType": "uint256",
          "name": "consumptionPeriodStart",
          "type": "uint256"
        },
        {
          "internalType": "uint256",
          "name": "consumptionPeriodEnd",
          "type": "uint256"
        },
        {
          "internalType": "string",
          "name": "tokenURI",
          "type": "string"
        },
        {
          "internalType": "bytes",
          "name": "extraData",
          "type": "bytes"
        }
      ],
      "stateMutability": "view",
      "type": "function"
    },
    {
      "inputs": [
        {
          "internalType": "uint256",
          "name": "tokenId",
          "type": "uint256"
        }
      ],
      "name": "getApproved",
      "outputs": [
        {
          "internalType": "address",
          "name": "",
          "type": "address"
        }
      ],
      "stateMutability": "view",
      "type": "function"
    },
    {
      "inputs": [
        {
          "internalType": "bytes32",
          "name": "role",
          "type": "bytes32"
        }
      ],
      "name": "getRoleAdmin",
      "outputs": [
        {
          "internalType": "bytes32",
          "name": "",
          "type": "bytes32"
        }
      ],
      "stateMutability": "view",
      "type": "function"
    },
    {
      "inputs": [
        {
          "internalType": "bytes32",
          "name": "role",
          "type": "bytes32"
        },
        {
          "internalType": "address",
          "name": "account",
          "type": "address"
        }
      ],
      "name": "grantRole",
      "outputs": [],
      "stateMutability": "nonpayable",
      "type": "function"
    },
    {
      "inputs": [
        {
          "internalType": "bytes32",
          "name": "role",
          "type": "bytes32"
        },
        {
          "internalType": "address",
          "name": "account",
          "type": "address"
        }
      ],
      "name": "hasRole",
      "outputs": [
        {
          "internalType": "bool",
          "name": "",
          "type": "bool"
        }
      ],
      "stateMutability": "view",
      "type": "function"
    },
    {
      "inputs": [
        {
          "internalType": "string",
          "name": "baseURI_",
          "type": "string"
        },
        {
          "internalType": "address[]",
          "name": "accounts",
          "type": "address[]"
        },
        {
          "internalType": "bytes32[]",
          "name": "roles",
          "type": "bytes32[]"
        }
      ],
      "name": "initialize",
      "outputs": [],
      "stateMutability": "nonpayable",
      "type": "function"
    },
    {
      "inputs": [
        {
          "internalType": "address",
          "name": "owner",
          "type": "address"
        },
        {
          "internalType": "address",
          "name": "operator",
          "type": "address"
        }
      ],
      "name": "isApprovedForAll",
      "outputs": [
        {
          "internalType": "bool",
          "name": "",
          "type": "bool"
        }
      ],
      "stateMutability": "view",
      "type": "function"
    },
    {
      "inputs": [
        {
          "internalType": "address",
          "name": "",
          "type": "address"
        },
        {
          "components": [
            {
              "internalType": "uint256",
              "name": "amount",
              "type": "uint256"
            },
            {
              "internalType": "uint256",
              "name": "projectVintageTokenId",
              "type": "uint256"
            },
            {
              "internalType": "uint256",
              "name": "createdAt",
              "type": "uint256"
            },
            {
              "internalType": "address",
              "name": "fractioningEntity",
              "type": "address"
            },
            {
              "internalType": "address",
              "name": "beneficiary",
              "type": "address"
            },
            {
              "internalType": "string",
              "name": "beneficiaryString",
              "type": "string"
            },
            {
              "internalType": "string",
              "name": "retirementMessage",
              "type": "string"
            },
            {
              "internalType": "string",
              "name": "beneficiaryLocation",
              "type": "string"
            },
            {
              "internalType": "string",
              "name": "consumptionCountryCode",
              "type": "string"
            },
            {
              "internalType": "uint256",
              "name": "consumptionPeriodStart",
              "type": "uint256"
            },
            {
              "internalType": "uint256",
              "name": "consumptionPeriodEnd",
              "type": "uint256"
            },
            {
              "internalType": "string",
              "name": "tokenURI",
              "type": "string"
            },
            {
              "internalType": "bytes",
              "name": "extraData",
              "type": "bytes"
            }
          ],
          "internalType": "struct FractionData",
          "name": "fractionData",
          "type": "tuple"
        }
      ],
      "name": "mintFraction",
      "outputs": [
        {
          "internalType": "uint256",
          "name": "",
          "type": "uint256"
        }
      ],
      "stateMutability": "nonpayable",
      "type": "function"
    },
    {
      "inputs": [],
      "name": "name",
      "outputs": [
        {
          "internalType": "string",
          "name": "",
          "type": "string"
        }
      ],
      "stateMutability": "view",
      "type": "function"
    },
    {
      "inputs": [
        {
          "internalType": "uint256",
          "name": "tokenId",
          "type": "uint256"
        }
      ],
      "name": "ownerOf",
      "outputs": [
        {
          "internalType": "address",
          "name": "",
          "type": "address"
        }
      ],
      "stateMutability": "view",
      "type": "function"
    },
    {
      "inputs": [],
      "name": "pause",
      "outputs": [],
      "stateMutability": "nonpayable",
      "type": "function"
    },
    {
      "inputs": [],
      "name": "paused",
      "outputs": [
        {
          "internalType": "bool",
          "name": "",
          "type": "bool"
        }
      ],
      "stateMutability": "view",
      "type": "function"
    },
    {
      "inputs": [],
      "name": "proxiableUUID",
      "outputs": [
        {
          "internalType": "bytes32",
          "name": "",
          "type": "bytes32"
        }
      ],
      "stateMutability": "view",
      "type": "function"
    },
    {
      "inputs": [
        {
          "internalType": "bytes32",
          "name": "role",
          "type": "bytes32"
        },
        {
          "internalType": "address",
          "name": "account",
          "type": "address"
        }
      ],
      "name": "renounceRole",
      "outputs": [],
      "stateMutability": "nonpayable",
      "type": "function"
    },
    {
      "inputs": [
        {
          "internalType": "bytes32",
          "name": "role",
          "type": "bytes32"
        },
        {
          "internalType": "address",
          "name": "account",
          "type": "address"
        }
      ],
      "name": "revokeRole",
      "outputs": [],
      "stateMutability": "nonpayable",
      "type": "function"
    },
    {
      "inputs": [
        {
          "internalType": "address",
          "name": "from",
          "type": "address"
        },
        {
          "internalType": "address",
          "name": "to",
          "type": "address"
        },
        {
          "internalType": "uint256",
          "name": "tokenId",
          "type": "uint256"
        }
      ],
      "name": "safeTransferFrom",
      "outputs": [],
      "stateMutability": "nonpayable",
      "type": "function"
    },
    {
      "inputs": [
        {
          "internalType": "address",
          "name": "from",
          "type": "address"
        },
        {
          "internalType": "address",
          "name": "to",
          "type": "address"
        },
        {
          "internalType": "uint256",
          "name": "tokenId",
          "type": "uint256"
        },
        {
          "internalType": "bytes",
          "name": "data",
          "type": "bytes"
        }
      ],
      "name": "safeTransferFrom",
      "outputs": [],
      "stateMutability": "nonpayable",
      "type": "function"
    },
    {
      "inputs": [
        {
          "internalType": "address",
          "name": "operator",
          "type": "address"
        },
        {
          "internalType": "bool",
          "name": "approved",
          "type": "bool"
        }
      ],
      "name": "setApprovalForAll",
      "outputs": [],
      "stateMutability": "nonpayable",
      "type": "function"
    },
    {
      "inputs": [
        {
          "internalType": "string",
          "name": "baseURI_",
          "type": "string"
        }
      ],
      "name": "setBaseURI",
      "outputs": [],
      "stateMutability": "nonpayable",
      "type": "function"
    },
    {
      "inputs": [
        {
          "internalType": "bytes4",
          "name": "interfaceId",
          "type": "bytes4"
        }
      ],
      "name": "supportsInterface",
      "outputs": [
        {
          "internalType": "bool",
          "name": "",
          "type": "bool"
        }
      ],
      "stateMutability": "view",
      "type": "function"
    },
    {
      "inputs": [],
      "name": "symbol",
      "outputs": [
        {
          "internalType": "string",
          "name": "",
          "type": "string"
        }
      ],
      "stateMutability": "view",
      "type": "function"
    },
    {
      "inputs": [
        {
          "internalType": "uint256",
          "name": "tokenId",
          "type": "uint256"
        }
      ],
      "name": "tokenURI",
      "outputs": [
        {
          "internalType": "string",
          "name": "",
          "type": "string"
        }
      ],
      "stateMutability": "view",
      "type": "function"
    },
    {
      "inputs": [
        {
          "internalType": "address",
          "name": "from",
          "type": "address"
        },
        {
          "internalType": "address",
          "name": "to",
          "type": "address"
        },
        {
          "internalType": "uint256",
          "name": "tokenId",
          "type": "uint256"
        }
      ],
      "name": "transferFrom",
      "outputs": [],
      "stateMutability": "nonpayable",
      "type": "function"
    },
    {
      "inputs": [],
      "name": "unpause",
      "outputs": [],
      "stateMutability": "nonpayable",
      "type": "function"
    },
    {
      "inputs": [
        {
          "internalType": "address",
          "name": "newImplementation",
          "type": "address"
        }
      ],
      "name": "upgradeTo",
      "outputs": [],
      "stateMutability": "nonpayable",
      "type": "function"
    },
    {
      "inputs": [
        {
          "internalType": "address",
          "name": "newImplementation",
          "type": "address"
        },
        {
          "internalType": "bytes",
          "name": "data",
          "type": "bytes"
        }
      ],
      "name": "upgradeToAndCall",
      "outputs": [],
      "stateMutability": "payable",
      "type": "function"
    }
  ],
  "numDeployments": 1,
  "solcInputHash": "21ae5f70988e66da4bff33b9b6a2fdaf",
  "bytecode": "0x60a0604052306080523480156200001557600080fd5b506200002062000026565b620000e7565b600054610100900460ff1615620000935760405162461bcd60e51b815260206004820152602760248201527f496e697469616c697a61626c653a20636f6e747261637420697320696e697469604482015266616c697a696e6760c81b606482015260840160405180910390fd5b60005460ff90811614620000e5576000805460ff191660ff9081179091556040519081527f7f26b83ff96e1f2b6a682f133852f6798a09c465da95921460cefb38474024989060200160405180910390a15b565b6080516137076200011f600039600081816109bd015281816109fd01528181610ae901528181610b290152610d5601526137076000f3fe6080604052600436106101f95760003560e01c80636352211e1161010d578063a22cb465116100a0578063d53913931161006f578063d5391393146105a6578063d547741f146105da578063e63ab1e9146105fa578063e985e9c51461062e578063ffa1ad741461067757600080fd5b8063a22cb4651461050d578063b88d4fde1461052d578063bdcfa6af1461054d578063c87b56dd1461058657600080fd5b80638456cb59116100dc5780638456cb59146104ae57806391d14854146104c357806395d89b41146104e3578063a217fddf146104f857600080fd5b80636352211e146104445780636c0360eb146104645780636ca0b0d71461047957806370a082311461048e57600080fd5b806336568abe116101905780634f1ef2861161015f5780634f1ef286146103c3578063522cc45d146103d657806352d1902d146103f657806355f804b31461040b5780635c975abb1461042b57600080fd5b806336568abe1461034e5780633659cfe61461036e5780633f4ba83a1461038e57806342842e0e146103a357600080fd5b8063095ea7b3116101cc578063095ea7b3146102bb57806323b872dd146102dd578063248a9ca3146102fd5780632f2ff15d1461032e57600080fd5b806301ffc9a7146101fe578063044867f61461023357806306fdde0314610261578063081812fc14610283575b600080fd5b34801561020a57600080fd5b5061021e610219366004612a01565b6106a8565b60405190151581526020015b60405180910390f35b34801561023f57600080fd5b5061025361024e366004612a33565b6106b9565b60405190815260200161022a565b34801561026d57600080fd5b5061027661070b565b60405161022a9190612ae3565b34801561028f57600080fd5b506102a361029e366004612af6565b61079d565b6040516001600160a01b03909116815260200161022a565b3480156102c757600080fd5b506102db6102d6366004612b0f565b6107c4565b005b3480156102e957600080fd5b506102db6102f8366004612b3b565b6108de565b34801561030957600080fd5b50610253610318366004612af6565b600090815261015f602052604090206001015490565b34801561033a57600080fd5b506102db610349366004612b7c565b61090f565b34801561035a57600080fd5b506102db610369366004612b7c565b610935565b34801561037a57600080fd5b506102db610389366004612ba1565b6109b3565b34801561039a57600080fd5b506102db610a92565b3480156103af57600080fd5b506102db6103be366004612b3b565b610ac4565b6102db6103d1366004612c61565b610adf565b3480156103e257600080fd5b506102db6103f1366004612cfd565b610bab565b34801561040257600080fd5b50610253610d49565b34801561041757600080fd5b506102db610426366004612d92565b610dfc565b34801561043757600080fd5b5061012d5460ff1661021e565b34801561045057600080fd5b506102a361045f366004612af6565b610ec5565b34801561047057600080fd5b50610276610f25565b34801561048557600080fd5b50610253600181565b34801561049a57600080fd5b506102536104a9366004612ba1565b610fb4565b3480156104ba57600080fd5b506102db61103a565b3480156104cf57600080fd5b5061021e6104de366004612b7c565b61106c565b3480156104ef57600080fd5b50610276611098565b34801561050457600080fd5b50610253600081565b34801561051957600080fd5b506102db610528366004612dc7565b6110a7565b34801561053957600080fd5b506102db610548366004612dfa565b6110b2565b34801561055957600080fd5b5061056d610568366004612af6565b6110ea565b60405161022a9d9c9b9a99989796959493929190612e66565b34801561059257600080fd5b506102766105a1366004612af6565b61148a565b3480156105b257600080fd5b506102537f9f2df0fed2c77648de5860a4cc508cd0818c85b8b8a1ab4ceeef8d981c8956a681565b3480156105e657600080fd5b506102db6105f5366004612b7c565b6115f3565b34801561060657600080fd5b506102537f65d7a28e3265b37a6474929f336521b332c1681b933f6cb9f3376673440d862a81565b34801561063a57600080fd5b5061021e610649366004612f3a565b6001600160a01b039182166000908152606a6020908152604080832093909416825291909152205460ff1690565b34801561068357600080fd5b50610276604051806040016040528060058152602001640312e302e360dc1b81525081565b60006106b382611619565b92915050565b60006106c361163e565b6106cb611697565b7f9f2df0fed2c77648de5860a4cc508cd0818c85b8b8a1ab4ceeef8d981c8956a66106f5816116e0565b6106fe836116ea565b9150506106b3600160fb55565b60606065805461071a90612f68565b80601f016020809104026020016040519081016040528092919081815260200182805461074690612f68565b80156107935780601f1061076857610100808354040283529160200191610793565b820191906000526020600020905b81548152906001019060200180831161077657829003601f168201915b5050505050905090565b60006107a882611786565b506000908152606960205260409020546001600160a01b031690565b60006107cf82610ec5565b9050806001600160a01b0316836001600160a01b0316036108415760405162461bcd60e51b815260206004820152602160248201527f4552433732313a20617070726f76616c20746f2063757272656e74206f776e656044820152603960f91b60648201526084015b60405180910390fd5b336001600160a01b038216148061085d575061085d8133610649565b6108cf5760405162461bcd60e51b815260206004820152603d60248201527f4552433732313a20617070726f76652063616c6c6572206973206e6f7420746f60448201527f6b656e206f776e6572206f7220617070726f76656420666f7220616c6c0000006064820152608401610838565b6108d983836117e5565b505050565b6108e83382611853565b6109045760405162461bcd60e51b815260040161083890612fa2565b6108d98383836118d2565b600082815261015f602052604090206001015461092b816116e0565b6108d98383611a36565b6001600160a01b03811633146109a55760405162461bcd60e51b815260206004820152602f60248201527f416363657373436f6e74726f6c3a2063616e206f6e6c792072656e6f756e636560448201526e103937b632b9903337b91039b2b63360891b6064820152608401610838565b6109af8282611abd565b5050565b6001600160a01b037f00000000000000000000000000000000000000000000000000000000000000001630036109fb5760405162461bcd60e51b815260040161083890612fef565b7f00000000000000000000000000000000000000000000000000000000000000006001600160a01b0316610a4460008051602061368b833981519152546001600160a01b031690565b6001600160a01b031614610a6a5760405162461bcd60e51b81526004016108389061303b565b610a7381611b25565b60408051600080825260208201909252610a8f91839190611b30565b50565b7f65d7a28e3265b37a6474929f336521b332c1681b933f6cb9f3376673440d862a610abc816116e0565b610a8f611c9b565b6108d9838383604051806020016040528060008152506110b2565b6001600160a01b037f0000000000000000000000000000000000000000000000000000000000000000163003610b275760405162461bcd60e51b815260040161083890612fef565b7f00000000000000000000000000000000000000000000000000000000000000006001600160a01b0316610b7060008051602061368b833981519152546001600160a01b031690565b6001600160a01b031614610b965760405162461bcd60e51b81526004016108389061303b565b610b9f82611b25565b6109af82826001611b30565b600054610100900460ff1615808015610bcb5750600054600160ff909116105b80610be55750303b158015610be5575060005460ff166001145b610c485760405162461bcd60e51b815260206004820152602e60248201527f496e697469616c697a61626c653a20636f6e747261637420697320616c72656160448201526d191e481a5b9a5d1a585b1a5e995960921b6064820152608401610838565b6000805460ff191660011790558015610c6b576000805461ff0019166101001790555b610c73611cee565b610cc26040518060800160405280604e815260200161363d604e913960405180604001604052806015815260200174544f5543414e2d434552542d4652414354494f4e5360581b815250611d15565b610cca611d63565b610cd2611cee565b610cda611d8a565b610ce685858585611dbe565b8551610cfa90610191906020890190612952565b508015610d41576000805461ff0019169055604051600181527f7f26b83ff96e1f2b6a682f133852f6798a09c465da95921460cefb38474024989060200160405180910390a15b505050505050565b6000306001600160a01b037f00000000000000000000000000000000000000000000000000000000000000001614610de95760405162461bcd60e51b815260206004820152603860248201527f555550535570677261646561626c653a206d757374206e6f742062652063616c60448201527f6c6564207468726f7567682064656c656761746563616c6c00000000000000006064820152608401610838565b5060008051602061368b83398151915290565b6000610e07816116e0565b815115801590610e4957508160018351610e21919061309d565b81518110610e3157610e316130b4565b6020910101516001600160f81b031916602f60f81b14155b610e535781610e74565b81604051602001610e6491906130ca565b6040516020818303038152906040525b8051610e899161019191602090910190612952565b507ff9c7803e94e0d3c02900d8a90893a6d5e90dd04d32a4cfe825520f82bf9f32f682604051610eb99190612ae3565b60405180910390a15050565b6000818152606760205260408120546001600160a01b0316806106b35760405162461bcd60e51b8152602060048201526018602482015277115490cdcc8c4e881a5b9d985b1a59081d1bdad95b88125160421b6044820152606401610838565b6101918054610f3390612f68565b80601f0160208091040260200160405190810160405280929190818152602001828054610f5f90612f68565b8015610fac5780601f10610f8157610100808354040283529160200191610fac565b820191906000526020600020905b815481529060010190602001808311610f8f57829003601f168201915b505050505081565b60006001600160a01b03821661101e5760405162461bcd60e51b815260206004820152602960248201527f4552433732313a2061646472657373207a65726f206973206e6f7420612076616044820152683634b21037bbb732b960b91b6064820152608401610838565b506001600160a01b031660009081526068602052604090205490565b7f65d7a28e3265b37a6474929f336521b332c1681b933f6cb9f3376673440d862a611064816116e0565b610a8f611ee0565b600091825261015f602090815260408084206001600160a01b0393909316845291905290205460ff1690565b60606066805461071a90612f68565b6109af338383611f1e565b6110bc3383611853565b6110d85760405162461bcd60e51b815260040161083890612fa2565b6110e484848484611fec565b50505050565b610193602052600090815260409020805460018201546002830154600384015460048501546005860180549596949593946001600160a01b0393841694939092169261113590612f68565b80601f016020809104026020016040519081016040528092919081815260200182805461116190612f68565b80156111ae5780601f10611183576101008083540402835291602001916111ae565b820191906000526020600020905b81548152906001019060200180831161119157829003601f168201915b5050505050908060060180546111c390612f68565b80601f01602080910402602001604051908101604052809291908181526020018280546111ef90612f68565b801561123c5780601f106112115761010080835404028352916020019161123c565b820191906000526020600020905b81548152906001019060200180831161121f57829003601f168201915b50505050509080600701805461125190612f68565b80601f016020809104026020016040519081016040528092919081815260200182805461127d90612f68565b80156112ca5780601f1061129f576101008083540402835291602001916112ca565b820191906000526020600020905b8154815290600101906020018083116112ad57829003601f168201915b5050505050908060080180546112df90612f68565b80601f016020809104026020016040519081016040528092919081815260200182805461130b90612f68565b80156113585780601f1061132d57610100808354040283529160200191611358565b820191906000526020600020905b81548152906001019060200180831161133b57829003601f168201915b50505050509080600901549080600a01549080600b01805461137990612f68565b80601f01602080910402602001604051908101604052809291908181526020018280546113a590612f68565b80156113f25780601f106113c7576101008083540402835291602001916113f2565b820191906000526020600020905b8154815290600101906020018083116113d557829003601f168201915b50505050509080600c01805461140790612f68565b80601f016020809104026020016040519081016040528092919081815260200182805461143390612f68565b80156114805780601f1061145557610100808354040283529160200191611480565b820191906000526020600020905b81548152906001019060200180831161146357829003601f168201915b505050505090508d565b6000818152606760205260409020546060906001600160a01b03166114e95760405162461bcd60e51b8152602060048201526015602482015274139bdb8b595e1a5cdd195b9d081d1bdad95b881a59605a1b6044820152606401610838565b600082815261019360205260408120600b01805461150690612f68565b80601f016020809104026020016040519081016040528092919081815260200182805461153290612f68565b801561157f5780601f106115545761010080835404028352916020019161157f565b820191906000526020600020905b81548152906001019060200180831161156257829003601f168201915b50505050509050610191805461159490612f68565b90506000036115a35792915050565b8051156115d657610191816040516020016115bf9291906130ef565b604051602081830303815290604052915050919050565b6101916115e28461201f565b6040516020016115bf9291906130ef565b600082815261015f602052604090206001015461160f816116e0565b6108d98383611abd565b60006001600160e01b03198216637965db0b60e01b14806106b357506106b38261202a565b600260fb54036116905760405162461bcd60e51b815260206004820152601f60248201527f5265656e7472616e637947756172643a207265656e7472616e742063616c6c006044820152606401610838565b600260fb55565b61012d5460ff16156116de5760405162461bcd60e51b815260206004820152601060248201526f14185d5cd8589b194e881c185d5cd95960821b6044820152606401610838565b565b610a8f813361207a565b60008135810361173c5760405162461bcd60e51b815260206004820152601d60248201527f416d6f756e74206d7573742062652067726561746572207468616e20300000006044820152606401610838565b610192805460010190819055600081815261019360205260409020839061176382826132ec565b506106b3905061177960a0850160808601612ba1565b826120d3565b600160fb55565b6000818152606760205260409020546001600160a01b0316610a8f5760405162461bcd60e51b8152602060048201526018602482015277115490cdcc8c4e881a5b9d985b1a59081d1bdad95b88125160421b6044820152606401610838565b600081815260696020526040902080546001600160a01b0319166001600160a01b038416908117909155819061181a82610ec5565b6001600160a01b03167f8c5be1e5ebec7d5bd14f71427d1e84f3dd0314c0f7b2291e5b200ac8c7c3b92560405160405180910390a45050565b60008061185f83610ec5565b9050806001600160a01b0316846001600160a01b031614806118a657506001600160a01b038082166000908152606a602090815260408083209388168352929052205460ff165b806118ca5750836001600160a01b03166118bf8461079d565b6001600160a01b0316145b949350505050565b826001600160a01b03166118e582610ec5565b6001600160a01b03161461190b5760405162461bcd60e51b8152600401610838906133f9565b6001600160a01b03821661196d5760405162461bcd60e51b8152602060048201526024808201527f4552433732313a207472616e7366657220746f20746865207a65726f206164646044820152637265737360e01b6064820152608401610838565b826001600160a01b031661198082610ec5565b6001600160a01b0316146119a65760405162461bcd60e51b8152600401610838906133f9565b600081815260696020908152604080832080546001600160a01b03199081169091556001600160a01b0387811680865260688552838620805460001901905590871680865283862080546001019055868652606790945282852080549092168417909155905184937fddf252ad1be2c89b69c2b068fc378daa952ba7f163c4a11628f55a4df523b3ef91a4505050565b611a40828261106c565b6109af57600082815261015f602090815260408083206001600160a01b03851684529091529020805460ff19166001179055611a793390565b6001600160a01b0316816001600160a01b0316837f2f8788117e7eff1d82e926ec794901d17c78024a50270940304540a733656f0d60405160405180910390a45050565b611ac7828261106c565b156109af57600082815261015f602090815260408083206001600160a01b0385168085529252808320805460ff1916905551339285917ff6391f5c32d9c69d2a47ea670b442974b53935d1edc7fd64eb21e047a839171b9190a45050565b60006109af816116e0565b7f4910fdfa16fed3260ed0e7147f7cc6da11a60208b5b9406d12a635614ffd91435460ff1615611b63576108d9836120ed565b826001600160a01b03166352d1902d6040518163ffffffff1660e01b8152600401602060405180830381865afa925050508015611bbd575060408051601f3d908101601f19168201909252611bba9181019061343e565b60015b611c205760405162461bcd60e51b815260206004820152602e60248201527f45524331393637557067726164653a206e657720696d706c656d656e7461746960448201526d6f6e206973206e6f74205555505360901b6064820152608401610838565b60008051602061368b8339815191528114611c8f5760405162461bcd60e51b815260206004820152602960248201527f45524331393637557067726164653a20756e737570706f727465642070726f786044820152681a58589b195555525160ba1b6064820152608401610838565b506108d9838383612189565b611ca36121ae565b61012d805460ff191690557f5db9ee0a495bf2e6ff9c91a7834c1ba4fdd244a5e8aa4e537bd38aeae4b073aa335b6040516001600160a01b03909116815260200160405180910390a1565b600054610100900460ff166116de5760405162461bcd60e51b815260040161083890613457565b600054610100900460ff16611d3c5760405162461bcd60e51b815260040161083890613457565b8151611d4f906065906020850190612952565b5080516108d9906066906020840190612952565b600054610100900460ff1661177f5760405162461bcd60e51b815260040161083890613457565b600054610100900460ff16611db15760405162461bcd60e51b815260040161083890613457565b61012d805460ff19169055565b828114611e055760405162461bcd60e51b8152602060048201526015602482015274082e4e4c2f240d8cadccee8d040dad2e6dac2e8c6d605b1b6044820152606401610838565b611e0d611cee565b6000805b84811015611e9657611e61848483818110611e2e57611e2e6130b4565b90506020020135878784818110611e4757611e476130b4565b9050602002016020810190611e5c9190612ba1565b611a36565b6000848483818110611e7557611e756130b4565b9050602002013503611e8657600191505b611e8f816134a2565b9050611e11565b5080611ed95760405162461bcd60e51b8152602060048201526012602482015271139bc818591b5a5b881cdc1958da599a595960721b6044820152606401610838565b5050505050565b611ee8611697565b61012d805460ff191660011790557f62e78cea01bee320cd4e420270b5ea74000d11b0c9f74754ebdbfc544b05a258611cd13390565b816001600160a01b0316836001600160a01b031603611f7f5760405162461bcd60e51b815260206004820152601960248201527f4552433732313a20617070726f766520746f2063616c6c6572000000000000006044820152606401610838565b6001600160a01b038381166000818152606a6020908152604080832094871680845294825291829020805460ff191686151590811790915591519182527f17307eab39ab6107e8899845ad3d59bd9653f200f220920489ca2b5937696c31910160405180910390a3505050565b611ff78484846118d2565b612003848484846121f8565b6110e45760405162461bcd60e51b8152600401610838906134bb565b60606106b3826122f9565b60006001600160e01b031982166380ac58cd60e01b148061205b57506001600160e01b03198216635b5e139f60e01b145b806106b357506301ffc9a760e01b6001600160e01b03198316146106b3565b612084828261106c565b6109af576120918161238c565b61209c83602061239e565b6040516020016120ad92919061350d565b60408051601f198184030181529082905262461bcd60e51b825261083891600401612ae3565b6109af828260405180602001604052806000815250612541565b6001600160a01b0381163b61215a5760405162461bcd60e51b815260206004820152602d60248201527f455243313936373a206e657720696d706c656d656e746174696f6e206973206e60448201526c1bdd08184818dbdb9d1c9858dd609a1b6064820152608401610838565b60008051602061368b83398151915280546001600160a01b0319166001600160a01b0392909216919091179055565b61219283612574565b60008251118061219f5750805b156108d9576110e483836125b4565b61012d5460ff166116de5760405162461bcd60e51b815260206004820152601460248201527314185d5cd8589b194e881b9bdd081c185d5cd95960621b6044820152606401610838565b60006001600160a01b0384163b156122ee57604051630a85bd0160e11b81526001600160a01b0385169063150b7a029061223c903390899088908890600401613582565b6020604051808303816000875af1925050508015612277575060408051601f3d908101601f19168201909252612274918101906135b5565b60015b6122d4573d8080156122a5576040519150601f19603f3d011682016040523d82523d6000602084013e6122aa565b606091505b5080516000036122cc5760405162461bcd60e51b8152600401610838906134bb565b805181602001fd5b6001600160e01b031916630a85bd0160e11b1490506118ca565b506001949350505050565b60606000612306836125d9565b600101905060008167ffffffffffffffff81111561232657612326612bbe565b6040519080825280601f01601f191660200182016040528015612350576020820181803683370190505b5090508181016020015b600019016f181899199a1a9b1b9c1cb0b131b232b360811b600a86061a8153600a850494508461235a57509392505050565b60606106b36001600160a01b03831660145b606060006123ad8360026135d2565b6123b89060026135f1565b67ffffffffffffffff8111156123d0576123d0612bbe565b6040519080825280601f01601f1916602001820160405280156123fa576020820181803683370190505b509050600360fc1b81600081518110612415576124156130b4565b60200101906001600160f81b031916908160001a905350600f60fb1b81600181518110612444576124446130b4565b60200101906001600160f81b031916908160001a90535060006124688460026135d2565b6124739060016135f1565b90505b60018111156124eb576f181899199a1a9b1b9c1cb0b131b232b360811b85600f16601081106124a7576124a76130b4565b1a60f81b8282815181106124bd576124bd6130b4565b60200101906001600160f81b031916908160001a90535060049490941c936124e481613609565b9050612476565b50831561253a5760405162461bcd60e51b815260206004820181905260248201527f537472696e67733a20686578206c656e67746820696e73756666696369656e746044820152606401610838565b9392505050565b61254b83836126b1565b61255860008484846121f8565b6108d95760405162461bcd60e51b8152600401610838906134bb565b61257d816120ed565b6040516001600160a01b038216907fbc7cd75a20ee27fd9adebab32041f755214dbc6bffa90cc0225b39da2e5c2d3b90600090a250565b606061253a83836040518060600160405280602781526020016136ab6027913961283c565b60008072184f03e93ff9f4daa797ed6e38ed64bf6a1f0160401b83106126185772184f03e93ff9f4daa797ed6e38ed64bf6a1f0160401b830492506040015b6d04ee2d6d415b85acef81000000008310612644576d04ee2d6d415b85acef8100000000830492506020015b662386f26fc10000831061266257662386f26fc10000830492506010015b6305f5e100831061267a576305f5e100830492506008015b612710831061268e57612710830492506004015b606483106126a0576064830492506002015b600a83106106b35760010192915050565b6001600160a01b0382166127075760405162461bcd60e51b815260206004820181905260248201527f4552433732313a206d696e7420746f20746865207a65726f20616464726573736044820152606401610838565b6000818152606760205260409020546001600160a01b03161561276c5760405162461bcd60e51b815260206004820152601c60248201527f4552433732313a20746f6b656e20616c7265616479206d696e746564000000006044820152606401610838565b6000818152606760205260409020546001600160a01b0316156127d15760405162461bcd60e51b815260206004820152601c60248201527f4552433732313a20746f6b656e20616c7265616479206d696e746564000000006044820152606401610838565b6001600160a01b038216600081815260686020908152604080832080546001019055848352606790915280822080546001600160a01b0319168417905551839291907fddf252ad1be2c89b69c2b068fc378daa952ba7f163c4a11628f55a4df523b3ef908290a45050565b6060600080856001600160a01b0316856040516128599190613620565b600060405180830381855af49150503d8060008114612894576040519150601f19603f3d011682016040523d82523d6000602084013e612899565b606091505b50915091506128aa868383876128b4565b9695505050505050565b6060831561292357825160000361291c576001600160a01b0385163b61291c5760405162461bcd60e51b815260206004820152601d60248201527f416464726573733a2063616c6c20746f206e6f6e2d636f6e74726163740000006044820152606401610838565b50816118ca565b6118ca83838151156129385781518083602001fd5b8060405162461bcd60e51b81526004016108389190612ae3565b82805461295e90612f68565b90600052602060002090601f01602090048101928261298057600085556129c6565b82601f1061299957805160ff19168380011785556129c6565b828001600101855582156129c6579182015b828111156129c65782518255916020019190600101906129ab565b506129d29291506129d6565b5090565b5b808211156129d257600081556001016129d7565b6001600160e01b031981168114610a8f57600080fd5b600060208284031215612a1357600080fd5b813561253a816129eb565b6001600160a01b0381168114610a8f57600080fd5b60008060408385031215612a4657600080fd5b8235612a5181612a1e565b9150602083013567ffffffffffffffff811115612a6d57600080fd5b83016101a08186031215612a8057600080fd5b809150509250929050565b60005b83811015612aa6578181015183820152602001612a8e565b838111156110e45750506000910152565b60008151808452612acf816020860160208601612a8b565b601f01601f19169290920160200192915050565b60208152600061253a6020830184612ab7565b600060208284031215612b0857600080fd5b5035919050565b60008060408385031215612b2257600080fd5b8235612b2d81612a1e565b946020939093013593505050565b600080600060608486031215612b5057600080fd5b8335612b5b81612a1e565b92506020840135612b6b81612a1e565b929592945050506040919091013590565b60008060408385031215612b8f57600080fd5b823591506020830135612a8081612a1e565b600060208284031215612bb357600080fd5b813561253a81612a1e565b634e487b7160e01b600052604160045260246000fd5b600082601f830112612be557600080fd5b813567ffffffffffffffff80821115612c0057612c00612bbe565b604051601f8301601f19908116603f01168101908282118183101715612c2857612c28612bbe565b81604052838152866020858801011115612c4157600080fd5b836020870160208301376000602085830101528094505050505092915050565b60008060408385031215612c7457600080fd5b8235612c7f81612a1e565b9150602083013567ffffffffffffffff811115612c9b57600080fd5b612ca785828601612bd4565b9150509250929050565b60008083601f840112612cc357600080fd5b50813567ffffffffffffffff811115612cdb57600080fd5b6020830191508360208260051b8501011115612cf657600080fd5b9250929050565b600080600080600060608688031215612d1557600080fd5b853567ffffffffffffffff80821115612d2d57600080fd5b612d3989838a01612bd4565b96506020880135915080821115612d4f57600080fd5b612d5b89838a01612cb1565b90965094506040880135915080821115612d7457600080fd5b50612d8188828901612cb1565b969995985093965092949392505050565b600060208284031215612da457600080fd5b813567ffffffffffffffff811115612dbb57600080fd5b6118ca84828501612bd4565b60008060408385031215612dda57600080fd5b8235612de581612a1e565b915060208301358015158114612a8057600080fd5b60008060008060808587031215612e1057600080fd5b8435612e1b81612a1e565b93506020850135612e2b81612a1e565b925060408501359150606085013567ffffffffffffffff811115612e4e57600080fd5b612e5a87828801612bd4565b91505092959194509250565b60006101a08f83528e60208401528d6040840152612e8f606084018e6001600160a01b03169052565b6001600160a01b038c1660808401528060a0840152612eb08184018c612ab7565b905082810360c0840152612ec4818b612ab7565b905082810360e0840152612ed8818a612ab7565b9050828103610100840152612eed8189612ab7565b90508661012084015285610140840152828103610160840152612f108186612ab7565b9050828103610180840152612f258185612ab7565b9150509e9d5050505050505050505050505050565b60008060408385031215612f4d57600080fd5b8235612f5881612a1e565b91506020830135612a8081612a1e565b600181811c90821680612f7c57607f821691505b602082108103612f9c57634e487b7160e01b600052602260045260246000fd5b50919050565b6020808252602d908201527f4552433732313a2063616c6c6572206973206e6f7420746f6b656e206f776e6560408201526c1c881bdc88185c1c1c9bdd9959609a1b606082015260800190565b6020808252602c908201527f46756e6374696f6e206d7573742062652063616c6c6564207468726f7567682060408201526b19195b1959d85d1958d85b1b60a21b606082015260800190565b6020808252602c908201527f46756e6374696f6e206d7573742062652063616c6c6564207468726f7567682060408201526b6163746976652070726f787960a01b606082015260800190565b634e487b7160e01b600052601160045260246000fd5b6000828210156130af576130af613087565b500390565b634e487b7160e01b600052603260045260246000fd5b600082516130dc818460208701612a8b565b602f60f81b920191825250600101919050565b60008084546130fd81612f68565b60018281168015613115576001811461312657613155565b60ff19841687528287019450613155565b8860005260208060002060005b8581101561314c5781548a820152908401908201613133565b50505082870194505b505050508351613169818360208801612a8b565b01949350505050565b600081356106b381612a1e565b80546001600160a01b0319166001600160a01b0392909216919091179055565b6000808335601e198436030181126131b657600080fd5b83018035915067ffffffffffffffff8211156131d157600080fd5b602001915036819003821315612cf657600080fd5b601f8211156108d957600081815260208120601f850160051c8101602086101561320d5750805b601f850160051c820191505b81811015610d4157828155600101613219565b67ffffffffffffffff83111561324457613244612bbe565b613258836132528354612f68565b836131e6565b6000601f84116001811461328c57600085156132745750838201355b600019600387901b1c1916600186901b178355611ed9565b600083815260209020601f19861690835b828110156132bd578685013582556020948501946001909201910161329d565b50868210156132da5760001960f88860031b161c19848701351681555b505060018560011b0183555050505050565b81358155602082013560018201556040820135600282015561331c61331360608401613172565b6003830161317f565b61333461332b60808401613172565b6004830161317f565b61334160a083018361319f565b61334f81836005860161322c565b505061335e60c083018361319f565b61336c81836006860161322c565b505061337b60e083018361319f565b61338981836007860161322c565b505061339961010083018361319f565b6133a781836008860161322c565b50506101208201356009820155610140820135600a8201556133cd61016083018361319f565b6133db8183600b860161322c565b50506133eb61018083018361319f565b6110e48183600c860161322c565b60208082526025908201527f4552433732313a207472616e736665722066726f6d20696e636f72726563742060408201526437bbb732b960d91b606082015260800190565b60006020828403121561345057600080fd5b5051919050565b6020808252602b908201527f496e697469616c697a61626c653a20636f6e7472616374206973206e6f74206960408201526a6e697469616c697a696e6760a81b606082015260800190565b6000600182016134b4576134b4613087565b5060010190565b60208082526032908201527f4552433732313a207472616e7366657220746f206e6f6e20455243373231526560408201527131b2b4bb32b91034b6b83632b6b2b73a32b960711b606082015260800190565b7f416363657373436f6e74726f6c3a206163636f756e7420000000000000000000815260008351613545816017850160208801612a8b565b7001034b99036b4b9b9b4b733903937b6329607d1b6017918401918201528351613576816028840160208801612a8b565b01602801949350505050565b6001600160a01b03858116825284166020820152604081018390526080606082018190526000906128aa90830184612ab7565b6000602082840312156135c757600080fd5b815161253a816129eb565b60008160001904831182151516156135ec576135ec613087565b500290565b6000821982111561360457613604613087565b500190565b60008161361857613618613087565b506000190190565b60008251613632818460208701612a8b565b919091019291505056fe546f7563616e2050726f746f636f6c3a205265746972656d656e74204365727469666963617465204672616374696f6e7320666f7220546f6b656e697a656420436172626f6e204f666673657473360894a13ba1a3210667c828492db98dca3e2076cc3735a920a3ca505d382bbc416464726573733a206c6f772d6c6576656c2064656c65676174652063616c6c206661696c6564a26469706673582212206aca22b026f33143fb01967a1236c17f7d01fe393c730949676ba3c6c4295dfd64736f6c634300080e0033",
  "devdoc": {
    "details": "The amount of carbon is denominated in the 18-decimal form",
    "kind": "dev",
    "methods": {
      "approve(address,uint256)": {
        "details": "See {IERC721-approve}."
      },
      "balanceOf(address)": {
        "details": "See {IERC721-balanceOf}."
      },
      "constructor": {
        "custom:oz-upgrades-unsafe-allow": "constructor"
      },
      "getApproved(uint256)": {
        "details": "See {IERC721-getApproved}."
      },
      "getRoleAdmin(bytes32)": {
        "details": "Returns the admin role that controls `role`. See {grantRole} and {revokeRole}. To change a role's admin, use {_setRoleAdmin}."
      },
      "grantRole(bytes32,address)": {
        "details": "Grants `role` to `account`. If `account` had not been already granted `role`, emits a {RoleGranted} event. Requirements: - the caller must have ``role``'s admin role. May emit a {RoleGranted} event."
      },
      "hasRole(bytes32,address)": {
        "details": "Returns `true` if `account` has been granted `role`."
      },
      "isApprovedForAll(address,address)": {
        "details": "See {IERC721-isApprovedForAll}."
      },
      "mintFraction(address,(uint256,uint256,uint256,address,address,string,string,string,string,uint256,uint256,string,bytes))": {
        "details": "Only a minter can call this function. Access is meant to be granted to the retirement certificate fractionalizer.",
        "params": {
          "fractionData": "The data of the fraction to mint."
        },
        "returns": {
          "_0": "The id of the minted fraction NFT."
        }
      },
      "name()": {
        "details": "See {IERC721Metadata-name}."
      },
      "ownerOf(uint256)": {
        "details": "See {IERC721-ownerOf}."
      },
      "pause()": {
        "details": "wraps _pause(), callable only by pausers"
      },
      "paused()": {
        "details": "Returns true if the contract is paused, and false otherwise."
      },
      "proxiableUUID()": {
        "details": "Implementation of the ERC1822 {proxiableUUID} function. This returns the storage slot used by the implementation. It is used to validate the implementation's compatibility when performing an upgrade. IMPORTANT: A proxy pointing at a proxiable contract should not be considered proxiable itself, because this risks bricking a proxy that upgrades to it, by delegating to itself until out of gas. Thus it is critical that this function revert if invoked through a proxy. This is guaranteed by the `notDelegated` modifier."
      },
      "renounceRole(bytes32,address)": {
        "details": "Revokes `role` from the calling account. Roles are often managed via {grantRole} and {revokeRole}: this function's purpose is to provide a mechanism for accounts to lose their privileges if they are compromised (such as when a trusted device is misplaced). If the calling account had been revoked `role`, emits a {RoleRevoked} event. Requirements: - the caller must be `account`. May emit a {RoleRevoked} event."
      },
      "revokeRole(bytes32,address)": {
        "details": "Revokes `role` from `account`. If `account` had been granted `role`, emits a {RoleRevoked} event. Requirements: - the caller must have ``role``'s admin role. May emit a {RoleRevoked} event."
      },
      "safeTransferFrom(address,address,uint256)": {
        "details": "See {IERC721-safeTransferFrom}."
      },
      "safeTransferFrom(address,address,uint256,bytes)": {
        "details": "See {IERC721-safeTransferFrom}."
      },
      "setApprovalForAll(address,bool)": {
        "details": "See {IERC721-setApprovalForAll}."
      },
      "setBaseURI(string)": {
        "params": {
          "baseURI_": "The base URI to set."
        }
      },
      "symbol()": {
        "details": "See {IERC721Metadata-symbol}."
      },
      "tokenURI(uint256)": {
        "details": "Returns the Uniform Resource Identifier (URI) for `tokenId` token. based on the ERC721URIStorage implementation",
        "params": {
          "tokenId": "The id of the NFT to get the URI for."
        }
      },
      "transferFrom(address,address,uint256)": {
        "details": "See {IERC721-transferFrom}."
      },
      "unpause()": {
        "details": "wraps _unpause(), callable only by pausers"
      },
      "upgradeTo(address)": {
        "custom:oz-upgrades-unsafe-allow-reachable": "delegatecall",
        "details": "Upgrade the implementation of the proxy to `newImplementation`. Calls {_authorizeUpgrade}. Emits an {Upgraded} event."
      },
      "upgradeToAndCall(address,bytes)": {
        "custom:oz-upgrades-unsafe-allow-reachable": "delegatecall",
        "details": "Upgrade the implementation of the proxy to `newImplementation`, and subsequently execute the function call encoded in `data`. Calls {_authorizeUpgrade}. Emits an {Upgraded} event."
      }
    },
    "stateVariables": {
      "PAUSER_ROLE": {
        "details": "All roles related to accessing this contract"
      },
      "VERSION": {
        "details": "Version-related parameters. VERSION keeps track of production releases. VERSION_RELEASE_CANDIDATE keeps track of iterations of a VERSION in our staging environment."
      }
    },
    "version": 1
  },
  "userdoc": {
    "kind": "user",
    "methods": {
      "mintFraction(address,(uint256,uint256,uint256,address,address,string,string,string,string,uint256,uint256,string,bytes))": {
        "notice": "Mint a fraction of a retirement certificate."
      },
      "pause()": {
        "notice": "Emergency function to disable contract's core functionality"
      },
      "setBaseURI(string)": {
        "notice": "Set the base URI for all token IDs. NOTE: If the given URI doesn't end with a slash, it will be added automatically."
      },
      "tokenURI(uint256)": {
        "notice": "Get the URI for a token ID. Returns an empty string if no URI is set."
      },
      "unpause()": {
        "notice": "Emergency function to re-enable contract's core functionality after being paused"
      }
    },
    "notice": "The `RetirementCertificateFractions.sol` contract lets users mint NFTs that represent a fraction of a retirement certificate.",
    "version": 1
  },
  "storageLayout": {
    "storage": [
      {
        "astId": 2373,
        "contract": "contracts/retirements/RetirementCertificateFractions.sol:RetirementCertificateFractions",
        "label": "_initialized",
        "offset": 0,
        "slot": "0",
        "type": "t_uint8"
      },
      {
        "astId": 2376,
        "contract": "contracts/retirements/RetirementCertificateFractions.sol:RetirementCertificateFractions",
        "label": "_initializing",
        "offset": 1,
        "slot": "0",
        "type": "t_bool"
      },
      {
        "astId": 7515,
        "contract": "contracts/retirements/RetirementCertificateFractions.sol:RetirementCertificateFractions",
        "label": "__gap",
        "offset": 0,
        "slot": "1",
        "type": "t_array(t_uint256)50_storage"
      },
      {
        "astId": 7899,
        "contract": "contracts/retirements/RetirementCertificateFractions.sol:RetirementCertificateFractions",
        "label": "__gap",
        "offset": 0,
        "slot": "51",
        "type": "t_array(t_uint256)50_storage"
      },
      {
        "astId": 5645,
        "contract": "contracts/retirements/RetirementCertificateFractions.sol:RetirementCertificateFractions",
        "label": "_name",
        "offset": 0,
        "slot": "101",
        "type": "t_string_storage"
      },
      {
        "astId": 5647,
        "contract": "contracts/retirements/RetirementCertificateFractions.sol:RetirementCertificateFractions",
        "label": "_symbol",
        "offset": 0,
        "slot": "102",
        "type": "t_string_storage"
      },
      {
        "astId": 5651,
        "contract": "contracts/retirements/RetirementCertificateFractions.sol:RetirementCertificateFractions",
        "label": "_owners",
        "offset": 0,
        "slot": "103",
        "type": "t_mapping(t_uint256,t_address)"
      },
      {
        "astId": 5655,
        "contract": "contracts/retirements/RetirementCertificateFractions.sol:RetirementCertificateFractions",
        "label": "_balances",
        "offset": 0,
        "slot": "104",
        "type": "t_mapping(t_address,t_uint256)"
      },
      {
        "astId": 5659,
        "contract": "contracts/retirements/RetirementCertificateFractions.sol:RetirementCertificateFractions",
        "label": "_tokenApprovals",
        "offset": 0,
        "slot": "105",
        "type": "t_mapping(t_uint256,t_address)"
      },
      {
        "astId": 5665,
        "contract": "contracts/retirements/RetirementCertificateFractions.sol:RetirementCertificateFractions",
        "label": "_operatorApprovals",
        "offset": 0,
        "slot": "106",
        "type": "t_mapping(t_address,t_mapping(t_address,t_bool))"
      },
      {
        "astId": 6567,
        "contract": "contracts/retirements/RetirementCertificateFractions.sol:RetirementCertificateFractions",
        "label": "__gap",
        "offset": 0,
        "slot": "107",
        "type": "t_array(t_uint256)44_storage"
      },
      {
        "astId": 2355,
        "contract": "contracts/retirements/RetirementCertificateFractions.sol:RetirementCertificateFractions",
        "label": "__gap",
        "offset": 0,
        "slot": "151",
        "type": "t_array(t_uint256)50_storage"
      },
      {
        "astId": 2671,
        "contract": "contracts/retirements/RetirementCertificateFractions.sol:RetirementCertificateFractions",
        "label": "__gap",
        "offset": 0,
        "slot": "201",
        "type": "t_array(t_uint256)50_storage"
      },
      {
        "astId": 2815,
        "contract": "contracts/retirements/RetirementCertificateFractions.sol:RetirementCertificateFractions",
        "label": "_status",
        "offset": 0,
        "slot": "251",
        "type": "t_uint256"
      },
      {
        "astId": 2884,
        "contract": "contracts/retirements/RetirementCertificateFractions.sol:RetirementCertificateFractions",
        "label": "__gap",
        "offset": 0,
        "slot": "252",
        "type": "t_array(t_uint256)49_storage"
      },
      {
        "astId": 2694,
        "contract": "contracts/retirements/RetirementCertificateFractions.sol:RetirementCertificateFractions",
        "label": "_paused",
        "offset": 0,
        "slot": "301",
        "type": "t_bool"
      },
      {
        "astId": 2799,
        "contract": "contracts/retirements/RetirementCertificateFractions.sol:RetirementCertificateFractions",
        "label": "__gap",
        "offset": 0,
        "slot": "302",
        "type": "t_array(t_uint256)49_storage"
      },
      {
        "astId": 1486,
        "contract": "contracts/retirements/RetirementCertificateFractions.sol:RetirementCertificateFractions",
        "label": "_roles",
        "offset": 0,
        "slot": "351",
        "type": "t_mapping(t_bytes32,t_struct(RoleData)1481_storage)"
      },
      {
        "astId": 1793,
        "contract": "contracts/retirements/RetirementCertificateFractions.sol:RetirementCertificateFractions",
        "label": "__gap",
        "offset": 0,
        "slot": "352",
        "type": "t_array(t_uint256)49_storage"
      },
      {
        "astId": 35423,
        "contract": "contracts/retirements/RetirementCertificateFractions.sol:RetirementCertificateFractions",
        "label": "baseURI",
        "offset": 0,
        "slot": "401",
        "type": "t_string_storage"
      },
      {
        "astId": 35425,
        "contract": "contracts/retirements/RetirementCertificateFractions.sol:RetirementCertificateFractions",
        "label": "_tokenIds",
        "offset": 0,
        "slot": "402",
        "type": "t_uint256"
      },
      {
        "astId": 35430,
        "contract": "contracts/retirements/RetirementCertificateFractions.sol:RetirementCertificateFractions",
        "label": "fractions",
        "offset": 0,
        "slot": "403",
        "type": "t_mapping(t_uint256,t_struct(FractionData)37908_storage)"
      },
      {
        "astId": 35435,
        "contract": "contracts/retirements/RetirementCertificateFractions.sol:RetirementCertificateFractions",
        "label": "__gap",
        "offset": 0,
        "slot": "404",
        "type": "t_array(t_uint256)47_storage"
      }
    ],
    "types": {
      "t_address": {
        "encoding": "inplace",
        "label": "address",
        "numberOfBytes": "20"
      },
      "t_array(t_uint256)44_storage": {
        "base": "t_uint256",
        "encoding": "inplace",
        "label": "uint256[44]",
        "numberOfBytes": "1408"
      },
      "t_array(t_uint256)47_storage": {
        "base": "t_uint256",
        "encoding": "inplace",
        "label": "uint256[47]",
        "numberOfBytes": "1504"
      },
      "t_array(t_uint256)49_storage": {
        "base": "t_uint256",
        "encoding": "inplace",
        "label": "uint256[49]",
        "numberOfBytes": "1568"
      },
      "t_array(t_uint256)50_storage": {
        "base": "t_uint256",
        "encoding": "inplace",
        "label": "uint256[50]",
        "numberOfBytes": "1600"
      },
      "t_bool": {
        "encoding": "inplace",
        "label": "bool",
        "numberOfBytes": "1"
      },
      "t_bytes32": {
        "encoding": "inplace",
        "label": "bytes32",
        "numberOfBytes": "32"
      },
      "t_bytes_storage": {
        "encoding": "bytes",
        "label": "bytes",
        "numberOfBytes": "32"
      },
      "t_mapping(t_address,t_bool)": {
        "encoding": "mapping",
        "key": "t_address",
        "label": "mapping(address => bool)",
        "numberOfBytes": "32",
        "value": "t_bool"
      },
      "t_mapping(t_address,t_mapping(t_address,t_bool))": {
        "encoding": "mapping",
        "key": "t_address",
        "label": "mapping(address => mapping(address => bool))",
        "numberOfBytes": "32",
        "value": "t_mapping(t_address,t_bool)"
      },
      "t_mapping(t_address,t_uint256)": {
        "encoding": "mapping",
        "key": "t_address",
        "label": "mapping(address => uint256)",
        "numberOfBytes": "32",
        "value": "t_uint256"
      },
      "t_mapping(t_bytes32,t_struct(RoleData)1481_storage)": {
        "encoding": "mapping",
        "key": "t_bytes32",
        "label": "mapping(bytes32 => struct AccessControlUpgradeable.RoleData)",
        "numberOfBytes": "32",
        "value": "t_struct(RoleData)1481_storage"
      },
      "t_mapping(t_uint256,t_address)": {
        "encoding": "mapping",
        "key": "t_uint256",
        "label": "mapping(uint256 => address)",
        "numberOfBytes": "32",
        "value": "t_address"
      },
      "t_mapping(t_uint256,t_struct(FractionData)37908_storage)": {
        "encoding": "mapping",
        "key": "t_uint256",
        "label": "mapping(uint256 => struct FractionData)",
        "numberOfBytes": "32",
        "value": "t_struct(FractionData)37908_storage"
      },
      "t_string_storage": {
        "encoding": "bytes",
        "label": "string",
        "numberOfBytes": "32"
      },
      "t_struct(FractionData)37908_storage": {
        "encoding": "inplace",
        "label": "struct FractionData",
        "members": [
          {
            "astId": 37883,
            "contract": "contracts/retirements/RetirementCertificateFractions.sol:RetirementCertificateFractions",
            "label": "amount",
            "offset": 0,
            "slot": "0",
            "type": "t_uint256"
          },
          {
            "astId": 37885,
            "contract": "contracts/retirements/RetirementCertificateFractions.sol:RetirementCertificateFractions",
            "label": "projectVintageTokenId",
            "offset": 0,
            "slot": "1",
            "type": "t_uint256"
          },
          {
            "astId": 37887,
            "contract": "contracts/retirements/RetirementCertificateFractions.sol:RetirementCertificateFractions",
            "label": "createdAt",
            "offset": 0,
            "slot": "2",
            "type": "t_uint256"
          },
          {
            "astId": 37889,
            "contract": "contracts/retirements/RetirementCertificateFractions.sol:RetirementCertificateFractions",
            "label": "fractioningEntity",
            "offset": 0,
            "slot": "3",
            "type": "t_address"
          },
          {
            "astId": 37891,
            "contract": "contracts/retirements/RetirementCertificateFractions.sol:RetirementCertificateFractions",
            "label": "beneficiary",
            "offset": 0,
            "slot": "4",
            "type": "t_address"
          },
          {
            "astId": 37893,
            "contract": "contracts/retirements/RetirementCertificateFractions.sol:RetirementCertificateFractions",
            "label": "beneficiaryString",
            "offset": 0,
            "slot": "5",
            "type": "t_string_storage"
          },
          {
            "astId": 37895,
            "contract": "contracts/retirements/RetirementCertificateFractions.sol:RetirementCertificateFractions",
            "label": "retirementMessage",
            "offset": 0,
            "slot": "6",
            "type": "t_string_storage"
          },
          {
            "astId": 37897,
            "contract": "contracts/retirements/RetirementCertificateFractions.sol:RetirementCertificateFractions",
            "label": "beneficiaryLocation",
            "offset": 0,
            "slot": "7",
            "type": "t_string_storage"
          },
          {
            "astId": 37899,
            "contract": "contracts/retirements/RetirementCertificateFractions.sol:RetirementCertificateFractions",
            "label": "consumptionCountryCode",
            "offset": 0,
            "slot": "8",
            "type": "t_string_storage"
          },
          {
            "astId": 37901,
            "contract": "contracts/retirements/RetirementCertificateFractions.sol:RetirementCertificateFractions",
            "label": "consumptionPeriodStart",
            "offset": 0,
            "slot": "9",
            "type": "t_uint256"
          },
          {
            "astId": 37903,
            "contract": "contracts/retirements/RetirementCertificateFractions.sol:RetirementCertificateFractions",
            "label": "consumptionPeriodEnd",
            "offset": 0,
            "slot": "10",
            "type": "t_uint256"
          },
          {
            "astId": 37905,
            "contract": "contracts/retirements/RetirementCertificateFractions.sol:RetirementCertificateFractions",
            "label": "tokenURI",
            "offset": 0,
            "slot": "11",
            "type": "t_string_storage"
          },
          {
            "astId": 37907,
            "contract": "contracts/retirements/RetirementCertificateFractions.sol:RetirementCertificateFractions",
            "label": "extraData",
            "offset": 0,
            "slot": "12",
            "type": "t_bytes_storage"
          }
        ],
        "numberOfBytes": "416"
      },
      "t_struct(RoleData)1481_storage": {
        "encoding": "inplace",
        "label": "struct AccessControlUpgradeable.RoleData",
        "members": [
          {
            "astId": 1478,
            "contract": "contracts/retirements/RetirementCertificateFractions.sol:RetirementCertificateFractions",
            "label": "members",
            "offset": 0,
            "slot": "0",
            "type": "t_mapping(t_address,t_bool)"
          },
          {
            "astId": 1480,
            "contract": "contracts/retirements/RetirementCertificateFractions.sol:RetirementCertificateFractions",
            "label": "adminRole",
            "offset": 0,
            "slot": "1",
            "type": "t_bytes32"
          }
        ],
        "numberOfBytes": "64"
      },
      "t_uint256": {
        "encoding": "inplace",
        "label": "uint256",
        "numberOfBytes": "32"
      },
      "t_uint8": {
        "encoding": "inplace",
        "label": "uint8",
        "numberOfBytes": "1"
      }
    }
  }
}