{
  "address": "0x3a94452312122eBB164284c79834c5FDc6Dc4766",
  "abi": [
    {
      "inputs": [],
      "stateMutability": "nonpayable",
      "type": "constructor"
    },
    {
      "anonymous": false,
      "inputs": [
        {
          "indexed": false,
          "internalType": "address",
          "name": "previousAdmin",
          "type": "address"
        },
        {
          "indexed": false,
          "internalType": "address",
          "name": "newAdmin",
          "type": "address"
        }
      ],
      "name": "AdminChanged",
      "type": "event"
    },
    {
      "anonymous": false,
      "inputs": [
        {
          "indexed": true,
          "internalType": "address",
          "name": "owner",
          "type": "address"
        },
        {
          "indexed": true,
          "internalType": "address",
          "name": "approved",
          "type": "address"
        },
        {
          "indexed": true,
          "internalType": "uint256",
          "name": "tokenId",
          "type": "uint256"
        }
      ],
      "name": "Approval",
      "type": "event"
    },
    {
      "anonymous": false,
      "inputs": [
        {
          "indexed": true,
          "internalType": "address",
          "name": "owner",
          "type": "address"
        },
        {
          "indexed": true,
          "internalType": "address",
          "name": "operator",
          "type": "address"
        },
        {
          "indexed": false,
          "internalType": "bool",
          "name": "approved",
          "type": "bool"
        }
      ],
      "name": "ApprovalForAll",
      "type": "event"
    },
    {
      "anonymous": false,
      "inputs": [
        {
          "indexed": false,
          "internalType": "string",
          "name": "baseURI",
          "type": "string"
        }
      ],
      "name": "BaseURISet",
      "type": "event"
    },
    {
      "anonymous": false,
      "inputs": [
        {
          "indexed": true,
          "internalType": "address",
          "name": "beacon",
          "type": "address"
        }
      ],
      "name": "BeaconUpgraded",
      "type": "event"
    },
    {
      "anonymous": false,
      "inputs": [
        {
          "indexed": false,
          "internalType": "uint256",
          "name": "tokenId",
          "type": "uint256"
        }
      ],
      "name": "CertificateMinted",
      "type": "event"
    },
    {
      "anonymous": false,
      "inputs": [
        {
          "indexed": false,
          "internalType": "uint256",
          "name": "tokenId",
          "type": "uint256"
        }
      ],
      "name": "CertificateUpdated",
      "type": "event"
    },
    {
      "anonymous": false,
      "inputs": [
        {
          "indexed": false,
          "internalType": "uint256",
          "name": "tokenId",
          "type": "uint256"
        },
        {
          "indexed": false,
          "internalType": "uint256[]",
          "name": "eventIds",
          "type": "uint256[]"
        }
      ],
      "name": "EventsAttached",
      "type": "event"
    },
    {
      "anonymous": false,
      "inputs": [
        {
          "indexed": false,
          "internalType": "uint8",
          "name": "version",
          "type": "uint8"
        }
      ],
      "name": "Initialized",
      "type": "event"
    },
    {
      "anonymous": false,
      "inputs": [
        {
          "indexed": false,
          "internalType": "uint256",
          "name": "previousAmount",
          "type": "uint256"
        },
        {
          "indexed": false,
          "internalType": "uint256",
          "name": "newAmount",
          "type": "uint256"
        }
      ],
      "name": "MinValidAmountSet",
      "type": "event"
    },
    {
      "anonymous": false,
      "inputs": [
        {
          "indexed": true,
          "internalType": "address",
          "name": "previousOwner",
          "type": "address"
        },
        {
          "indexed": true,
          "internalType": "address",
          "name": "newOwner",
          "type": "address"
        }
      ],
      "name": "OwnershipTransferred",
      "type": "event"
    },
    {
      "anonymous": false,
      "inputs": [
        {
          "indexed": false,
          "internalType": "address",
          "name": "ContractRegistry",
          "type": "address"
        }
      ],
      "name": "ToucanRegistrySet",
      "type": "event"
    },
    {
      "anonymous": false,
      "inputs": [
        {
          "indexed": true,
          "internalType": "address",
          "name": "from",
          "type": "address"
        },
        {
          "indexed": true,
          "internalType": "address",
          "name": "to",
          "type": "address"
        },
        {
          "indexed": true,
          "internalType": "uint256",
          "name": "tokenId",
          "type": "uint256"
        }
      ],
      "name": "Transfer",
      "type": "event"
    },
    {
      "anonymous": false,
      "inputs": [
        {
          "indexed": true,
          "internalType": "address",
          "name": "implementation",
          "type": "address"
        }
      ],
      "name": "Upgraded",
      "type": "event"
    },
    {
      "inputs": [],
      "name": "VERSION",
      "outputs": [
        {
          "internalType": "string",
          "name": "",
          "type": "string"
        }
      ],
      "stateMutability": "view",
      "type": "function"
    },
    {
      "inputs": [],
      "name": "VERSION_RELEASE_CANDIDATE",
      "outputs": [
        {
          "internalType": "uint256",
          "name": "",
          "type": "uint256"
        }
      ],
      "stateMutability": "view",
      "type": "function"
    },
    {
      "inputs": [
        {
          "internalType": "address",
          "name": "to",
          "type": "address"
        },
        {
          "internalType": "uint256",
          "name": "tokenId",
          "type": "uint256"
        }
      ],
      "name": "approve",
      "outputs": [],
      "stateMutability": "nonpayable",
      "type": "function"
    },
    {
      "inputs": [
        {
          "internalType": "uint256",
          "name": "tokenId",
          "type": "uint256"
        },
        {
          "internalType": "uint256[]",
          "name": "retirementEventIds",
          "type": "uint256[]"
        }
      ],
      "name": "attachRetirementEvents",
      "outputs": [],
      "stateMutability": "nonpayable",
      "type": "function"
    },
    {
      "inputs": [
        {
          "internalType": "address",
          "name": "owner",
          "type": "address"
        }
      ],
      "name": "balanceOf",
      "outputs": [
        {
          "internalType": "uint256",
          "name": "",
          "type": "uint256"
        }
      ],
      "stateMutability": "view",
      "type": "function"
    },
    {
      "inputs": [],
      "name": "baseURI",
      "outputs": [
        {
          "internalType": "string",
          "name": "",
          "type": "string"
        }
      ],
      "stateMutability": "view",
      "type": "function"
    },
    {
      "inputs": [
        {
          "internalType": "uint256",
          "name": "tokenId",
          "type": "uint256"
        }
      ],
      "name": "certificates",
      "outputs": [
        {
          "components": [
            {
              "internalType": "uint256[]",
              "name": "retirementEventIds",
              "type": "uint256[]"
            },
            {
              "internalType": "uint256",
              "name": "createdAt",
              "type": "uint256"
            },
            {
              "internalType": "address",
              "name": "retiringEntity",
              "type": "address"
            },
            {
              "internalType": "address",
              "name": "beneficiary",
              "type": "address"
            },
            {
              "internalType": "string",
              "name": "retiringEntityString",
              "type": "string"
            },
            {
              "internalType": "string",
              "name": "beneficiaryString",
              "type": "string"
            },
            {
              "internalType": "string",
              "name": "retirementMessage",
              "type": "string"
            },
            {
              "internalType": "string",
              "name": "beneficiaryLocation",
              "type": "string"
            },
            {
              "internalType": "string",
              "name": "consumptionCountryCode",
              "type": "string"
            },
            {
              "internalType": "uint256",
              "name": "consumptionPeriodStart",
              "type": "uint256"
            },
            {
              "internalType": "uint256",
              "name": "consumptionPeriodEnd",
              "type": "uint256"
            }
          ],
          "internalType": "struct CertificateData",
          "name": "",
          "type": "tuple"
        }
      ],
      "stateMutability": "view",
      "type": "function"
    },
    {
      "inputs": [
        {
          "internalType": "uint256",
          "name": "",
          "type": "uint256"
        }
      ],
      "name": "claimedEvents",
      "outputs": [
        {
          "internalType": "bool",
          "name": "",
          "type": "bool"
        }
      ],
      "stateMutability": "view",
      "type": "function"
    },
    {
      "inputs": [],
      "name": "contractRegistry",
      "outputs": [
        {
          "internalType": "address",
          "name": "",
          "type": "address"
        }
      ],
      "stateMutability": "view",
      "type": "function"
    },
    {
      "inputs": [
        {
          "internalType": "uint256",
          "name": "tokenId",
          "type": "uint256"
        }
      ],
      "name": "getApproved",
      "outputs": [
        {
          "internalType": "address",
          "name": "",
          "type": "address"
        }
      ],
      "stateMutability": "view",
      "type": "function"
    },
    {
      "inputs": [
        {
          "internalType": "uint256",
          "name": "tokenId",
          "type": "uint256"
        }
      ],
      "name": "getData",
      "outputs": [
        {
          "components": [
            {
              "internalType": "uint256[]",
              "name": "retirementEventIds",
              "type": "uint256[]"
            },
            {
              "internalType": "uint256",
              "name": "createdAt",
              "type": "uint256"
            },
            {
              "internalType": "address",
              "name": "retiringEntity",
              "type": "address"
            },
            {
              "internalType": "address",
              "name": "beneficiary",
              "type": "address"
            },
            {
              "internalType": "string",
              "name": "retiringEntityString",
              "type": "string"
            },
            {
              "internalType": "string",
              "name": "beneficiaryString",
              "type": "string"
            },
            {
              "internalType": "string",
              "name": "retirementMessage",
              "type": "string"
            },
            {
              "internalType": "string",
              "name": "beneficiaryLocation",
              "type": "string"
            },
            {
              "internalType": "string",
              "name": "consumptionCountryCode",
              "type": "string"
            },
            {
              "internalType": "uint256",
              "name": "consumptionPeriodStart",
              "type": "uint256"
            },
            {
              "internalType": "uint256",
              "name": "consumptionPeriodEnd",
              "type": "uint256"
            }
          ],
          "internalType": "struct CertificateData",
          "name": "",
          "type": "tuple"
        }
      ],
      "stateMutability": "view",
      "type": "function"
    },
    {
      "inputs": [
        {
          "internalType": "uint256",
          "name": "tokenId",
          "type": "uint256"
        }
      ],
      "name": "getRetiredAmount",
      "outputs": [
        {
          "internalType": "uint256",
          "name": "amount",
          "type": "uint256"
        }
      ],
      "stateMutability": "view",
      "type": "function"
    },
    {
      "inputs": [
        {
          "internalType": "uint256",
          "name": "tokenId",
          "type": "uint256"
        }
      ],
      "name": "getRetiredAmountInKilos",
      "outputs": [
        {
          "internalType": "uint256",
          "name": "",
          "type": "uint256"
        }
      ],
      "stateMutability": "view",
      "type": "function"
    },
    {
      "inputs": [
        {
          "internalType": "uint256",
          "name": "tokenId",
          "type": "uint256"
        }
      ],
      "name": "getRetiredAmountInTonnes",
      "outputs": [
        {
          "internalType": "uint256",
          "name": "",
          "type": "uint256"
        }
      ],
      "stateMutability": "view",
      "type": "function"
    },
    {
      "inputs": [
        {
          "internalType": "address",
          "name": "user",
          "type": "address"
        }
      ],
      "name": "getUserEvents",
      "outputs": [
        {
          "internalType": "uint256[]",
          "name": "",
          "type": "uint256[]"
        }
      ],
      "stateMutability": "view",
      "type": "function"
    },
    {
      "inputs": [
        {
          "internalType": "address",
          "name": "_contractRegistry",
          "type": "address"
        },
        {
          "internalType": "string",
          "name": "_baseURI",
          "type": "string"
        }
      ],
      "name": "initialize",
      "outputs": [],
      "stateMutability": "nonpayable",
      "type": "function"
    },
    {
      "inputs": [
        {
          "internalType": "address",
          "name": "owner",
          "type": "address"
        },
        {
          "internalType": "address",
          "name": "operator",
          "type": "address"
        }
      ],
      "name": "isApprovedForAll",
      "outputs": [
        {
          "internalType": "bool",
          "name": "",
          "type": "bool"
        }
      ],
      "stateMutability": "view",
      "type": "function"
    },
    {
      "inputs": [
        {
          "internalType": "uint256",
          "name": "tokenId",
          "type": "uint256"
        },
        {
          "internalType": "string[]",
          "name": "registries",
          "type": "string[]"
        }
      ],
      "name": "isCertificateForRegistry",
      "outputs": [
        {
          "internalType": "bool",
          "name": "",
          "type": "bool"
        }
      ],
      "stateMutability": "view",
      "type": "function"
    },
    {
      "inputs": [],
      "name": "kiloDenomination",
      "outputs": [
        {
          "internalType": "uint256",
          "name": "",
          "type": "uint256"
        }
      ],
      "stateMutability": "view",
      "type": "function"
    },
    {
      "inputs": [],
      "name": "minValidRetirementAmount",
      "outputs": [
        {
          "internalType": "uint256",
          "name": "",
          "type": "uint256"
        }
      ],
      "stateMutability": "view",
      "type": "function"
    },
    {
      "inputs": [
        {
          "internalType": "address",
          "name": "retiringEntity",
          "type": "address"
        },
        {
          "internalType": "string",
          "name": "retiringEntityString",
          "type": "string"
        },
        {
          "internalType": "address",
          "name": "beneficiary",
          "type": "address"
        },
        {
          "internalType": "string",
          "name": "beneficiaryString",
          "type": "string"
        },
        {
          "internalType": "string",
          "name": "retirementMessage",
          "type": "string"
        },
        {
          "internalType": "uint256[]",
          "name": "retirementEventIds",
          "type": "uint256[]"
        }
      ],
      "name": "mintCertificate",
      "outputs": [
        {
          "internalType": "uint256",
          "name": "",
          "type": "uint256"
        }
      ],
      "stateMutability": "nonpayable",
      "type": "function"
    },
    {
      "inputs": [
        {
          "internalType": "address",
          "name": "retiringEntity",
          "type": "address"
        },
        {
          "components": [
            {
              "internalType": "uint256[]",
              "name": "tokenIds",
              "type": "uint256[]"
            },
            {
              "internalType": "uint256",
              "name": "amount",
              "type": "uint256"
            },
            {
              "internalType": "string",
              "name": "retiringEntityString",
              "type": "string"
            },
            {
              "internalType": "address",
              "name": "beneficiary",
              "type": "address"
            },
            {
              "internalType": "string",
              "name": "beneficiaryString",
              "type": "string"
            },
            {
              "internalType": "string",
              "name": "retirementMessage",
              "type": "string"
            },
            {
              "internalType": "string",
              "name": "beneficiaryLocation",
              "type": "string"
            },
            {
              "internalType": "string",
              "name": "consumptionCountryCode",
              "type": "string"
            },
            {
              "internalType": "uint256",
              "name": "consumptionPeriodStart",
              "type": "uint256"
            },
            {
              "internalType": "uint256",
              "name": "consumptionPeriodEnd",
              "type": "uint256"
            }
          ],
          "internalType": "struct CreateRetirementRequestParams",
          "name": "params",
          "type": "tuple"
        },
        {
          "internalType": "uint256[]",
          "name": "retirementEventIds",
          "type": "uint256[]"
        }
      ],
      "name": "mintCertificateWithExtraData",
      "outputs": [
        {
          "internalType": "uint256",
          "name": "",
          "type": "uint256"
        }
      ],
      "stateMutability": "nonpayable",
      "type": "function"
    },
    {
      "inputs": [],
      "name": "name",
      "outputs": [
        {
          "internalType": "string",
          "name": "",
          "type": "string"
        }
      ],
      "stateMutability": "view",
      "type": "function"
    },
    {
      "inputs": [],
      "name": "owner",
      "outputs": [
        {
          "internalType": "address",
          "name": "",
          "type": "address"
        }
      ],
      "stateMutability": "view",
      "type": "function"
    },
    {
      "inputs": [
        {
          "internalType": "uint256",
          "name": "tokenId",
          "type": "uint256"
        }
      ],
      "name": "ownerOf",
      "outputs": [
        {
          "internalType": "address",
          "name": "",
          "type": "address"
        }
      ],
      "stateMutability": "view",
      "type": "function"
    },
    {
      "inputs": [],
      "name": "proxiableUUID",
      "outputs": [
        {
          "internalType": "bytes32",
          "name": "",
          "type": "bytes32"
        }
      ],
      "stateMutability": "view",
      "type": "function"
    },
    {
      "inputs": [
        {
          "internalType": "address",
          "name": "retiringEntity",
          "type": "address"
        },
        {
          "internalType": "uint256",
          "name": "projectVintageTokenId",
          "type": "uint256"
        },
        {
          "internalType": "uint256",
          "name": "amount",
          "type": "uint256"
        },
        {
          "internalType": "string",
          "name": "serialNumber",
          "type": "string"
        },
        {
          "internalType": "bool",
          "name": "isLegacy",
          "type": "bool"
        }
      ],
      "name": "registerEvent",
      "outputs": [
        {
          "internalType": "uint256",
          "name": "",
          "type": "uint256"
        }
      ],
      "stateMutability": "nonpayable",
      "type": "function"
    },
    {
      "inputs": [],
      "name": "renounceOwnership",
      "outputs": [],
      "stateMutability": "nonpayable",
      "type": "function"
    },
    {
      "inputs": [],
      "name": "retireEventCounter",
      "outputs": [
        {
          "internalType": "uint256",
          "name": "",
          "type": "uint256"
        }
      ],
      "stateMutability": "view",
      "type": "function"
    },
    {
      "inputs": [
        {
          "internalType": "uint256",
          "name": "eventId",
          "type": "uint256"
        }
      ],
      "name": "retirements",
      "outputs": [
        {
          "components": [
            {
              "internalType": "uint256",
              "name": "createdAt",
              "type": "uint256"
            },
            {
              "internalType": "address",
              "name": "retiringEntity",
              "type": "address"
            },
            {
              "internalType": "uint256",
              "name": "amount",
              "type": "uint256"
            },
            {
              "internalType": "uint256",
              "name": "projectVintageTokenId",
              "type": "uint256"
            },
            {
              "internalType": "string",
              "name": "serialNumber",
              "type": "string"
            }
          ],
          "internalType": "struct RetirementEvent",
          "name": "",
          "type": "tuple"
        }
      ],
      "stateMutability": "view",
      "type": "function"
    },
    {
      "inputs": [
        {
          "internalType": "address",
          "name": "from",
          "type": "address"
        },
        {
          "internalType": "address",
          "name": "to",
          "type": "address"
        },
        {
          "internalType": "uint256",
          "name": "tokenId",
          "type": "uint256"
        }
      ],
      "name": "safeTransferFrom",
      "outputs": [],
      "stateMutability": "nonpayable",
      "type": "function"
    },
    {
      "inputs": [
        {
          "internalType": "address",
          "name": "from",
          "type": "address"
        },
        {
          "internalType": "address",
          "name": "to",
          "type": "address"
        },
        {
          "internalType": "uint256",
          "name": "tokenId",
          "type": "uint256"
        },
        {
          "internalType": "bytes",
          "name": "data",
          "type": "bytes"
        }
      ],
      "name": "safeTransferFrom",
      "outputs": [],
      "stateMutability": "nonpayable",
      "type": "function"
    },
    {
      "inputs": [
        {
          "internalType": "address",
          "name": "operator",
          "type": "address"
        },
        {
          "internalType": "bool",
          "name": "approved",
          "type": "bool"
        }
      ],
      "name": "setApprovalForAll",
      "outputs": [],
      "stateMutability": "nonpayable",
      "type": "function"
    },
    {
      "inputs": [
        {
          "internalType": "string",
          "name": "baseURI_",
          "type": "string"
        }
      ],
      "name": "setBaseURI",
      "outputs": [],
      "stateMutability": "nonpayable",
      "type": "function"
    },
    {
      "inputs": [
        {
          "internalType": "uint256",
          "name": "amount",
          "type": "uint256"
        }
      ],
      "name": "setMinValidRetirementAmount",
      "outputs": [],
      "stateMutability": "nonpayable",
      "type": "function"
    },
    {
      "inputs": [
        {
          "internalType": "address",
          "name": "_address",
          "type": "address"
        }
      ],
      "name": "setToucanContractRegistry",
      "outputs": [],
      "stateMutability": "nonpayable",
      "type": "function"
    },
    {
      "inputs": [
        {
          "internalType": "bytes4",
          "name": "interfaceId",
          "type": "bytes4"
        }
      ],
      "name": "supportsInterface",
      "outputs": [
        {
          "internalType": "bool",
          "name": "",
          "type": "bool"
        }
      ],
      "stateMutability": "view",
      "type": "function"
    },
    {
      "inputs": [],
      "name": "symbol",
      "outputs": [
        {
          "internalType": "string",
          "name": "",
          "type": "string"
        }
      ],
      "stateMutability": "view",
      "type": "function"
    },
    {
      "inputs": [
        {
          "internalType": "uint256",
          "name": "tokenId",
          "type": "uint256"
        }
      ],
      "name": "tokenURI",
      "outputs": [
        {
          "internalType": "string",
          "name": "",
          "type": "string"
        }
      ],
      "stateMutability": "view",
      "type": "function"
    },
    {
      "inputs": [],
      "name": "tonneDenomination",
      "outputs": [
        {
          "internalType": "uint256",
          "name": "",
          "type": "uint256"
        }
      ],
      "stateMutability": "view",
      "type": "function"
    },
    {
      "inputs": [
        {
          "internalType": "address",
          "name": "from",
          "type": "address"
        },
        {
          "internalType": "address",
          "name": "to",
          "type": "address"
        },
        {
          "internalType": "uint256",
          "name": "tokenId",
          "type": "uint256"
        }
      ],
      "name": "transferFrom",
      "outputs": [],
      "stateMutability": "nonpayable",
      "type": "function"
    },
    {
      "inputs": [
        {
          "internalType": "address",
          "name": "newOwner",
          "type": "address"
        }
      ],
      "name": "transferOwnership",
      "outputs": [],
      "stateMutability": "nonpayable",
      "type": "function"
    },
    {
      "inputs": [
        {
          "internalType": "uint256",
          "name": "tokenId",
          "type": "uint256"
        },
        {
          "internalType": "string",
          "name": "retiringEntityString",
          "type": "string"
        },
        {
          "internalType": "address",
          "name": "beneficiary",
          "type": "address"
        },
        {
          "internalType": "string",
          "name": "beneficiaryString",
          "type": "string"
        },
        {
          "internalType": "string",
          "name": "retirementMessage",
          "type": "string"
        }
      ],
      "name": "updateCertificate",
      "outputs": [],
      "stateMutability": "nonpayable",
      "type": "function"
    },
    {
      "inputs": [
        {
          "internalType": "address",
          "name": "newImplementation",
          "type": "address"
        }
      ],
      "name": "upgradeTo",
      "outputs": [],
      "stateMutability": "nonpayable",
      "type": "function"
    },
    {
      "inputs": [
        {
          "internalType": "address",
          "name": "newImplementation",
          "type": "address"
        },
        {
          "internalType": "bytes",
          "name": "data",
          "type": "bytes"
        }
      ],
      "name": "upgradeToAndCall",
      "outputs": [],
      "stateMutability": "payable",
      "type": "function"
    }
  ],
  "numDeployments": 1,
  "solcInputHash": "21ae5f70988e66da4bff33b9b6a2fdaf",
  "bytecode": "0x60a0604052306080523480156200001557600080fd5b506200002062000026565b620000e7565b600054610100900460ff1615620000935760405162461bcd60e51b815260206004820152602760248201527f496e697469616c697a61626c653a20636f6e747261637420697320696e697469604482015266616c697a696e6760c81b606482015260840160405180910390fd5b60005460ff90811614620000e5576000805460ff191660ff9081179091556040519081527f7f26b83ff96e1f2b6a682f133852f6798a09c465da95921460cefb38474024989060200160405180910390a15b565b6080516149836200011f600039600081816111c6015281816112060152818161146b015281816114ab015261153e01526149836000f3fe6080604052600436106102725760003560e01c80638da5cb5b1161014f578063cc91e5e9116100c1578063f2fde38b1161007a578063f2fde38b14610752578063f3823bad14610772578063f399e22e14610792578063fa272a32146107b2578063ff011677146107d2578063ffa1ad74146107f257600080fd5b8063cc91e5e914610697578063d791399e146106b7578063d84650be146106d7578063d894203d146106f2578063e882e37b14610712578063e985e9c51461073257600080fd5b8063b2114f4111610113578063b2114f41146105d3578063b88d4fde14610604578063bba34a3714610624578063bbec9a2e14610644578063c698606714610660578063c87b56dd1461067757600080fd5b80638da5cb5b1461054857806395d89b411461056657806399b00a8d1461057b578063a22cb46514610592578063abf410e5146105b257600080fd5b806342842e0e116101e85780636352211e116101ac5780636352211e146104c9578063663b3e22146102775780636c0360eb146104e95780636ca0b0d7146104fe57806370a0823114610513578063715018a61461053357600080fd5b806342842e0e146104345780634f1ef2861461045457806352d1902d1461046757806355f804b31461047c57806361e4678b1461049c57600080fd5b80630d4b53e71161023a5780630d4b53e714610359578063163c131914610387578063171e5ba2146103a757806323b872dd146103d45780633659cfe6146103f457806340fc356a1461041457600080fd5b80630178fe3f1461027757806301ffc9a7146102ad57806306fdde03146102dd578063081812fc146102ff578063095ea7b314610337575b600080fd5b34801561028357600080fd5b506102976102923660046136f8565b610823565b6040516102a491906137a4565b60405180910390f35b3480156102b957600080fd5b506102cd6102c83660046138cc565b610c21565b60405190151581526020016102a4565b3480156102e957600080fd5b506102f2610c73565b6040516102a491906138e9565b34801561030b57600080fd5b5061031f61031a3660046136f8565b610d05565b6040516001600160a01b0390911681526020016102a4565b34801561034357600080fd5b50610357610352366004613921565b610d2c565b005b34801561036557600080fd5b506103796103743660046136f8565b610e46565b6040519081526020016102a4565b34801561039357600080fd5b506103796103a23660046139d9565b610f1a565b3480156103b357600080fd5b506103c76103c2366004613ac3565b61111e565b6040516102a49190613ae0565b3480156103e057600080fd5b506103576103ef366004613b24565b61118b565b34801561040057600080fd5b5061035761040f366004613ac3565b6111bc565b34801561042057600080fd5b5061037961042f366004613c82565b61129b565b34801561044057600080fd5b5061035761044f366004613b24565b611446565b610357610462366004613cf9565b611461565b34801561047357600080fd5b50610379611531565b34801561048857600080fd5b50610357610497366004613d48565b6115e4565b3480156104a857600080fd5b506104bc6104b73660046136f8565b61163b565b6040516102a49190613d7c565b3480156104d557600080fd5b5061031f6104e43660046136f8565b611761565b3480156104f557600080fd5b506102f26117c1565b34801561050a57600080fd5b50610379600181565b34801561051f57600080fd5b5061037961052e366004613ac3565b611850565b34801561053f57600080fd5b506103576118d6565b34801561055457600080fd5b506097546001600160a01b031661031f565b34801561057257600080fd5b506102f26118ea565b34801561058757600080fd5b5061037961012d5481565b34801561059e57600080fd5b506103576105ad366004613dc7565b6118f9565b3480156105be57600080fd5b506101325461031f906001600160a01b031681565b3480156105df57600080fd5b506102cd6105ee3660046136f8565b61012f6020526000908152604090205460ff1681565b34801561061057600080fd5b5061035761061f366004613e00565b611904565b34801561063057600080fd5b5061035761063f366004613e6b565b61193c565b34801561065057600080fd5b50610379670de0b6b3a764000081565b34801561066c57600080fd5b506103796101355481565b34801561068357600080fd5b506102f26106923660046136f8565b611b97565b3480156106a357600080fd5b506103796106b2366004613f22565b611c29565b3480156106c357600080fd5b506103796106d23660046136f8565b611d03565b3480156106e357600080fd5b5061037966038d7ea4c6800081565b3480156106fe57600080fd5b5061035761070d366004613fa3565b611dbf565b34801561071e57600080fd5b5061035761072d366004613ac3565b611e1f565b34801561073e57600080fd5b506102cd61074d366004613fee565b611e76565b34801561075e57600080fd5b5061035761076d366004613ac3565b611ea4565b34801561077e57600080fd5b506102cd61078d36600461403f565b611f1a565b34801561079e57600080fd5b506103576107ad366004613cf9565b6120d8565b3480156107be57600080fd5b506103796107cd3660046136f8565b612278565b3480156107de57600080fd5b506103576107ed3660046136f8565b612345565b3480156107fe57600080fd5b506102f2604051806040016040528060058152602001640312e312e360dc1b81525081565b610892604051806101600160405280606081526020016000815260200160006001600160a01b0316815260200160006001600160a01b03168152602001606081526020016060815260200160608152602001606081526020016060815260200160008152602001600081525090565b600082815261013460209081526040918290208251815461018093810282018401909452610160810184815290939192849284918401828280156108f557602002820191906000526020600020905b8154815260200190600101908083116108e1575b50505091835250506001820154602082015260028201546001600160a01b039081166040830152600383015416606082015260048201805460809092019161093c906140fb565b80601f0160208091040260200160405190810160405280929190818152602001828054610968906140fb565b80156109b55780601f1061098a576101008083540402835291602001916109b5565b820191906000526020600020905b81548152906001019060200180831161099857829003601f168201915b505050505081526020016005820180546109ce906140fb565b80601f01602080910402602001604051908101604052809291908181526020018280546109fa906140fb565b8015610a475780601f10610a1c57610100808354040283529160200191610a47565b820191906000526020600020905b815481529060010190602001808311610a2a57829003601f168201915b50505050508152602001600682018054610a60906140fb565b80601f0160208091040260200160405190810160405280929190818152602001828054610a8c906140fb565b8015610ad95780601f10610aae57610100808354040283529160200191610ad9565b820191906000526020600020905b815481529060010190602001808311610abc57829003601f168201915b50505050508152602001600782018054610af2906140fb565b80601f0160208091040260200160405190810160405280929190818152602001828054610b1e906140fb565b8015610b6b5780601f10610b4057610100808354040283529160200191610b6b565b820191906000526020600020905b815481529060010190602001808311610b4e57829003601f168201915b50505050508152602001600882018054610b84906140fb565b80601f0160208091040260200160405190810160405280929190818152602001828054610bb0906140fb565b8015610bfd5780601f10610bd257610100808354040283529160200191610bfd565b820191906000526020600020905b815481529060010190602001808311610be057829003601f168201915b5050505050815260200160098201548152602001600a820154815250509050919050565b60006001600160e01b031982166380ac58cd60e01b1480610c5257506001600160e01b03198216635b5e139f60e01b145b80610c6d57506301ffc9a760e01b6001600160e01b03198316145b92915050565b606060658054610c82906140fb565b80601f0160208091040260200160405190810160405280929190818152602001828054610cae906140fb565b8015610cfb5780601f10610cd057610100808354040283529160200191610cfb565b820191906000526020600020905b815481529060010190602001808311610cde57829003601f168201915b5050505050905090565b6000610d10826123d1565b506000908152606960205260409020546001600160a01b031690565b6000610d3782611761565b9050806001600160a01b0316836001600160a01b031603610da95760405162461bcd60e51b815260206004820152602160248201527f4552433732313a20617070726f76616c20746f2063757272656e74206f776e656044820152603960f91b60648201526084015b60405180910390fd5b336001600160a01b0382161480610dc55750610dc58133611e76565b610e375760405162461bcd60e51b815260206004820152603d60248201527f4552433732313a20617070726f76652063616c6c6572206973206e6f7420746f60448201527f6b656e206f776e6572206f7220617070726f76656420666f7220616c6c0000006064820152608401610da0565b610e418383612430565b505050565b600081815261013460209081526040808320805482518185028101850190935280835284938493929190830182828015610e9f57602002820191906000526020600020905b815481526020019060010190808311610e8b575b5050505050905060005b8151811015610f005761012e6000838381518110610ec957610ec9614135565b602002602001015181526020019081526020016000206002015483610eee9190614161565b9250610ef981614179565b9050610ea9565b50610f1266038d7ea4c6800083614192565b949350505050565b6000610f2461249e565b8a6001600160a01b038116331480610fa4575061013254604051633a37b16d60e11b81523360048201526001600160a01b039091169063746f62da90602401602060405180830381865afa158015610f80573d6000803e3d6000fd5b505050506040513d601f19601f82011682018060405250810190610fa491906141bf565b610fe15760405162461bcd60e51b815260206004820152600e60248201526d24b73b30b634b21031b0b63632b960911b6044820152606401610da0565b604080516000610140820181815261016083018452825260208083018290528351601f8f0182900482028101820185528e81529193830191908f908f90819084018382808284376000920191909152505050908252506001600160a01b038c1660208083019190915260408051601f8d0183900483028101830182528c8152920191908c908c9081908401838280828437600092019190915250505090825250604080516020601f8b0181900481028201810190925289815291810191908a908a908190840183828082843760009201829052509385525050604080516020818101835284825280860191909152815190810182528381529084015250606082018190526080909101819052909150611101908e908390889088906124f9565b92505050611110600161013655565b9a9950505050505050505050565b6001600160a01b0381166000908152610130602090815260409182902080548351818402810184019094528084526060939283018282801561117f57602002820191906000526020600020905b81548152602001906001019080831161116b575b50505050509050919050565b61119533826126f7565b6111b15760405162461bcd60e51b8152600401610da0906141dc565b610e41838383612755565b6001600160a01b037f00000000000000000000000000000000000000000000000000000000000000001630036112045760405162461bcd60e51b8152600401610da090614229565b7f00000000000000000000000000000000000000000000000000000000000000006001600160a01b031661124d600080516020614907833981519152546001600160a01b031690565b6001600160a01b0316146112735760405162461bcd60e51b8152600401610da090614275565b61127c816128b9565b60408051600080825260208201909252611298918391906128c1565b50565b61013254604051633a37b16d60e11b81523360048201526000916001600160a01b03169063746f62da90602401602060405180830381865afa1580156112e5573d6000803e3d6000fd5b505050506040513d601f19601f8201168201806040525081019061130991906141bf565b6113495760405162461bcd60e51b815260206004820152601160248201527021b0b63632b9103737ba1030902a21a79960791b6044820152606401610da0565b831580159061135b5750610135548410155b6113985760405162461bcd60e51b815260206004820152600e60248201526d125b9d985b1a5908185b5bdd5b9d60921b6044820152606401610da0565b61012d80546001908101918290556001600160a01b0388166000908152610130602090815260408220805493840181558252902001819055826113e857600081815261012e602052604090204290555b600081815261012e602090815260409091206001810180546001600160a01b0319166001600160a01b038b1617905560028101879055600381018890558551611439926004909201918701906135eb565b5090505b95945050505050565b610e4183838360405180602001604052806000815250611904565b6001600160a01b037f00000000000000000000000000000000000000000000000000000000000000001630036114a95760405162461bcd60e51b8152600401610da090614229565b7f00000000000000000000000000000000000000000000000000000000000000006001600160a01b03166114f2600080516020614907833981519152546001600160a01b031690565b6001600160a01b0316146115185760405162461bcd60e51b8152600401610da090614275565b611521826128b9565b61152d828260016128c1565b5050565b6000306001600160a01b037f000000000000000000000000000000000000000000000000000000000000000016146115d15760405162461bcd60e51b815260206004820152603860248201527f555550535570677261646561626c653a206d757374206e6f742062652063616c60448201527f6c6564207468726f7567682064656c656761746563616c6c00000000000000006064820152608401610da0565b5060008051602061490783398151915290565b6115ec612a2c565b8051611600906101319060208401906135eb565b507ff9c7803e94e0d3c02900d8a90893a6d5e90dd04d32a4cfe825520f82bf9f32f68160405161163091906138e9565b60405180910390a150565b6116766040518060a001604052806000815260200160006001600160a01b031681526020016000815260200160008152602001606081525090565b600082815261012e6020908152604091829020825160a0810184528154815260018201546001600160a01b031692810192909252600281015492820192909252600382015460608201526004820180549192916080840191906116d8906140fb565b80601f0160208091040260200160405190810160405280929190818152602001828054611704906140fb565b80156117515780601f1061172657610100808354040283529160200191611751565b820191906000526020600020905b81548152906001019060200180831161173457829003601f168201915b5050505050815250509050919050565b6000818152606760205260408120546001600160a01b031680610c6d5760405162461bcd60e51b8152602060048201526018602482015277115490cdcc8c4e881a5b9d985b1a59081d1bdad95b88125160421b6044820152606401610da0565b61013180546117cf906140fb565b80601f01602080910402602001604051908101604052809291908181526020018280546117fb906140fb565b80156118485780601f1061181d57610100808354040283529160200191611848565b820191906000526020600020905b81548152906001019060200180831161182b57829003601f168201915b505050505081565b60006001600160a01b0382166118ba5760405162461bcd60e51b815260206004820152602960248201527f4552433732313a2061646472657373207a65726f206973206e6f7420612076616044820152683634b21037bbb732b960b91b6064820152608401610da0565b506001600160a01b031660009081526068602052604090205490565b6118de612a2c565b6118e86000612a86565b565b606060668054610c82906140fb565b61152d338383612ad8565b61190e33836126f7565b61192a5760405162461bcd60e51b8152600401610da0906141dc565b61193684848484612ba6565b50505050565b604080516001808252818301909252600091816020015b606081526020019060019003908161195357905050905060405180604001604052806005815260200164766572726160d81b8152508160008151811061199b5761199b614135565b60200260200101819052506119b08982611f1a565b6119ef5760405162461bcd60e51b815260206004820152601060248201526f496e76616c696420726567697374727960801b6044820152606401610da0565b6119f889611761565b6001600160a01b0316336001600160a01b031614611a4e5760405162461bcd60e51b815260206004820152601360248201527229b2b73232b91034b9903737ba1037bbb732b960691b6044820152606401610da0565b60008981526101346020526040902060010154611a6e9062015180614161565b4210611aaf5760405162461bcd60e51b815260206004820152601060248201526f0c8d081a1bdd5c9cc8195b185c1cd95960821b6044820152606401610da0565b8615611ad457600089815261013460205260409020611ad290600401898961366f565b505b6001600160a01b03861615611b0f5760008981526101346020526040902060030180546001600160a01b0319166001600160a01b0388161790555b8315611b3457600089815261013460205260409020611b3290600501868661366f565b505b8115611b5957600089815261013460205260409020611b5790600601848461366f565b505b6040518981527f9a100d2018161ede6ca34c8007992b09bbffc636a636014a922e4c87504126289060200160405180910390a1505050505050505050565b6000818152606760205260409020546060906001600160a01b0316611bf65760405162461bcd60e51b8152602060048201526015602482015274139bdb8b595e1a5cdd195b9d081d1bdad95b881a59605a1b6044820152606401610da0565b610131611c0283612bd9565b604051602001611c139291906142dd565b6040516020818303038152906040529050919050565b6000611c3361249e565b61013254604051633a37b16d60e11b81523360048201526001600160a01b039091169063746f62da90602401602060405180830381865afa158015611c7c573d6000803e3d6000fd5b505050506040513d601f19601f82011682018060405250810190611ca091906141bf565b611ce05760405162461bcd60e51b815260206004820152601160248201527021b0b63632b9103737ba1030902a21a79960791b6044820152606401610da0565b611cf685611ced866143e0565b858560016124f9565b9050610f12600161013655565b60008181526101346020908152604080832080548251818502810185019093528083528493830182828015611d5757602002820191906000526020600020905b815481526020019060010190808311611d43575b5050505050905060005b8151811015611db85761012e6000838381518110611d8157611d81614135565b602002602001015181526020019081526020016000206002015483611da69190614161565b9250611db181614179565b9050611d61565b5050919050565b6000611dca84611761565b90506001600160a01b0381163314611e135760405162461bcd60e51b815260206004820152600c60248201526b155b985d5d1a1bdc9a5e995960a21b6044820152606401610da0565b61193684828585612c6b565b611e27612a2c565b61013280546001600160a01b0319166001600160a01b0383169081179091556040519081527f86907b53cf2024579968511876daf0b4620d65803b550e33101baf70aeb6f5eb90602001611630565b6001600160a01b039182166000908152606a6020908152604080832093909416825291909152205460ff1690565b611eac612a2c565b6001600160a01b038116611f115760405162461bcd60e51b815260206004820152602660248201527f4f776e61626c653a206e6577206f776e657220697320746865207a65726f206160448201526564647265737360d01b6064820152608401610da0565b61129881612a86565b60008281526101346020526040812080548291908290611f3c57611f3c614135565b600091825260208083209091015480835261012e8252604080842060030154610132548251630505792b60e51b815292519396509094936001600160a01b039091169263a0af25609260048082019392918290030181865afa158015611fa6573d6000803e3d6000fd5b505050506040513d601f19601f82011682018060405250810190611fca9190614513565b6001600160a01b03166315bbf074836040518263ffffffff1660e01b8152600401611ff791815260200190565b600060405180830381865afa158015612014573d6000803e3d6000fd5b505050506040513d6000823e601f3d908101601f1916820160405261203c919081019061458c565b61016081015180519192509060000361206d5750604080518082019091526005815264766572726160d81b60208201525b60005b86518110156120ca576120a587828151811061208e5761208e614135565b602002602001015183612e2d90919063ffffffff16565b156120b857600195505050505050610c6d565b806120c281614179565b915050612070565b506000979650505050505050565b600054610100900460ff16158080156120f85750600054600160ff909116105b806121125750303b158015612112575060005460ff166001145b6121755760405162461bcd60e51b815260206004820152602e60248201527f496e697469616c697a61626c653a20636f6e747261637420697320616c72656160448201526d191e481a5b9a5d1a585b1a5e995960921b6064820152608401610da0565b6000805460ff191660011790558015612198576000805461ff0019166101001790555b6121a0612e51565b6121e56040518060800160405280604581526020016148c2604591396040518060400160405280600b81526020016a1513d550d0538b50d1549560aa1b815250612e78565b6121ed612ec6565b6121f5612ef6565b6121fd612e51565b61013280546001600160a01b0319166001600160a01b038516179055815161222d906101319060208501906135eb565b508015610e41576000805461ff0019169055604051600181527f7f26b83ff96e1f2b6a682f133852f6798a09c465da95921460cefb38474024989060200160405180910390a1505050565b6000818152610134602090815260408083208054825181850281018501909352808352849384939291908301828280156122d157602002820191906000526020600020905b8154815260200190600101908083116122bd575b5050505050905060005b81518110156123325761012e60008383815181106122fb576122fb614135565b6020026020010151815260200190815260200160002060020154836123209190614161565b925061232b81614179565b90506122db565b50610f12670de0b6b3a764000083614192565b61234d612a2c565b6101355481810361238e5760405162461bcd60e51b815260206004820152600b60248201526a105b1c9958591e481cd95d60aa1b6044820152606401610da0565b61013582905560408051828152602081018490527f551d481ccb1906e06e26b2f8bedf0b21755e092f001c4465f99aab9c67d8a039910160405180910390a15050565b6000818152606760205260409020546001600160a01b03166112985760405162461bcd60e51b8152602060048201526018602482015277115490cdcc8c4e881a5b9d985b1a59081d1bdad95b88125160421b6044820152606401610da0565b600081815260696020526040902080546001600160a01b0319166001600160a01b038416908117909155819061246582611761565b6001600160a01b03167f8c5be1e5ebec7d5bd14f71427d1e84f3dd0314c0f7b2291e5b200ac8c7c3b92560405160405180910390a45050565b600261013654036124f15760405162461bcd60e51b815260206004820152601f60248201527f5265656e7472616e637947756172643a207265656e7472616e742063616c6c006044820152606401610da0565b600261013655565b60608401516000906001600160a01b031615801561251a5750608085015151155b15612539576001600160a01b0386166060860152604085015160808601525b61013380546001019081905561255181888787612c6b565b60008181526101346020908152604090912042600182015560608801516003820180546001600160a01b0319166001600160a01b03909216919091179055608088015180516125aa9360059093019291909101906135eb565b50600081815261013460209081526040918290206002810180546001600160a01b0319166001600160a01b038c161790559188015180516125f3936004019291909101906135eb565b5060a0860151600082815261013460209081526040909120825161262093600690920192909101906135eb565b5060c0860151600082815261013460209081526040909120825161264d93600790920192909101906135eb565b5060e0860151600082815261013460209081526040909120825161267a93600890920192909101906135eb565b50610100860151600082815261013460209081526040918290206009810193909355610120890151600a90930192909255518281527f54b249c3cd4a5f80e81d2ad036b251d58d8f5482a926f25d12eabec192cf1ecd910160405180910390a16126e5878285612f1d565b9695505050505050565b600161013655565b60008061270383611761565b9050806001600160a01b0316846001600160a01b0316148061272a575061272a8185611e76565b80610f125750836001600160a01b031661274384610d05565b6001600160a01b031614949350505050565b826001600160a01b031661276882611761565b6001600160a01b03161461278e5760405162461bcd60e51b8152600401610da090614716565b6001600160a01b0382166127f05760405162461bcd60e51b8152602060048201526024808201527f4552433732313a207472616e7366657220746f20746865207a65726f206164646044820152637265737360e01b6064820152608401610da0565b826001600160a01b031661280382611761565b6001600160a01b0316146128295760405162461bcd60e51b8152600401610da090614716565b600081815260696020908152604080832080546001600160a01b03199081169091556001600160a01b0387811680865260688552838620805460001901905590871680865283862080546001019055868652606790945282852080549092168417909155905184937fddf252ad1be2c89b69c2b068fc378daa952ba7f163c4a11628f55a4df523b3ef91a4505050565b611298612a2c565b7f4910fdfa16fed3260ed0e7147f7cc6da11a60208b5b9406d12a635614ffd91435460ff16156128f457610e4183612f38565b826001600160a01b03166352d1902d6040518163ffffffff1660e01b8152600401602060405180830381865afa92505050801561294e575060408051601f3d908101601f1916820190925261294b9181019061475b565b60015b6129b15760405162461bcd60e51b815260206004820152602e60248201527f45524331393637557067726164653a206e657720696d706c656d656e7461746960448201526d6f6e206973206e6f74205555505360901b6064820152608401610da0565b6000805160206149078339815191528114612a205760405162461bcd60e51b815260206004820152602960248201527f45524331393637557067726164653a20756e737570706f727465642070726f786044820152681a58589b195555525160ba1b6064820152608401610da0565b50610e41838383612fd4565b6097546001600160a01b031633146118e85760405162461bcd60e51b815260206004820181905260248201527f4f776e61626c653a2063616c6c6572206973206e6f7420746865206f776e65726044820152606401610da0565b609780546001600160a01b038381166001600160a01b0319831681179093556040519116919082907f8be0079c531659141344cd1fd0a4f28419497f9722a3daafe3b4186f6b6457e090600090a35050565b816001600160a01b0316836001600160a01b031603612b395760405162461bcd60e51b815260206004820152601960248201527f4552433732313a20617070726f766520746f2063616c6c6572000000000000006044820152606401610da0565b6001600160a01b038381166000818152606a6020908152604080832094871680845294825291829020805460ff191686151590811790915591519182527f17307eab39ab6107e8899845ad3d59bd9653f200f220920489ca2b5937696c31910160405180910390a3505050565b612bb1848484612755565b612bbd84848484612ff9565b6119365760405162461bcd60e51b8152600401610da090614774565b60606000612be6836130f7565b60010190506000816001600160401b03811115612c0557612c05613b65565b6040519080825280601f01601f191660200182016040528015612c2f576020820181803683370190505b5090508181016020015b600019016f181899199a1a9b1b9c1cb0b131b232b360811b600a86061a8153600a8504945084612c3957509392505050565b6000819003612cb05760405162461bcd60e51b8152602060048201526011602482015270456d707479206576656e7420617272617960781b6044820152606401610da0565b60005b81811015612deb576000838383818110612ccf57612ccf614135565b60209081029290920135600081815261012e909352604090922060010154919250506001600160a01b03868116911614612d4b5760405162461bcd60e51b815260206004820152601b60248201527f496e76616c6964206576656e7420746f20626520636c61696d656400000000006044820152606401610da0565b600081815261012f602052604090205460ff1615612da35760405162461bcd60e51b8152602060048201526015602482015274105b1c9958591e4818db185a5b595908195d995b9d605a1b6044820152606401610da0565b600081815261012f60209081526040808320805460ff19166001908117909155898452610134835290832080549182018155835291200155612de481614179565b9050612cb3565b507fc5872b1b6098a26efa71189456aa230cff448e7d6fbfa3b42d7eb105d541d431848383604051612e1f939291906147c6565b60405180910390a150505050565b6000612e4a83838051602091820120825192909101919091201490565b9392505050565b600054610100900460ff166118e85760405162461bcd60e51b8152600401610da09061480a565b600054610100900460ff16612e9f5760405162461bcd60e51b8152600401610da09061480a565b8151612eb29060659060208501906135eb565b508051610e419060669060208401906135eb565b600054610100900460ff16612eed5760405162461bcd60e51b8152600401610da09061480a565b6118e833612a86565b600054610100900460ff166126ef5760405162461bcd60e51b8152600401610da09061480a565b610e41838360405180602001604052806000815250846131cf565b6001600160a01b0381163b612fa55760405162461bcd60e51b815260206004820152602d60248201527f455243313936373a206e657720696d706c656d656e746174696f6e206973206e60448201526c1bdd08184818dbdb9d1c9858dd609a1b6064820152608401610da0565b60008051602061490783398151915280546001600160a01b0319166001600160a01b0392909216919091179055565b612fdd836131ee565b600082511180612fea5750805b15610e4157611936838361322e565b60006001600160a01b0384163b156130ef57604051630a85bd0160e11b81526001600160a01b0385169063150b7a029061303d903390899088908890600401614855565b6020604051808303816000875af1925050508015613078575060408051601f3d908101601f1916820190925261307591810190614888565b60015b6130d5573d8080156130a6576040519150601f19603f3d011682016040523d82523d6000602084013e6130ab565b606091505b5080516000036130cd5760405162461bcd60e51b8152600401610da090614774565b805181602001fd5b6001600160e01b031916630a85bd0160e11b149050610f12565b506001610f12565b60008072184f03e93ff9f4daa797ed6e38ed64bf6a1f0160401b83106131365772184f03e93ff9f4daa797ed6e38ed64bf6a1f0160401b830492506040015b6d04ee2d6d415b85acef81000000008310613162576d04ee2d6d415b85acef8100000000830492506020015b662386f26fc10000831061318057662386f26fc10000830492506010015b6305f5e1008310613198576305f5e100830492506008015b61271083106131ac57612710830492506004015b606483106131be576064830492506002015b600a8310610c6d5760010192915050565b6131d98484613253565b6131e76000858585856133de565b5050505050565b6131f781612f38565b6040516001600160a01b038216907fbc7cd75a20ee27fd9adebab32041f755214dbc6bffa90cc0225b39da2e5c2d3b90600090a250565b6060612e4a8383604051806060016040528060278152602001614927602791396134e4565b6001600160a01b0382166132a95760405162461bcd60e51b815260206004820181905260248201527f4552433732313a206d696e7420746f20746865207a65726f20616464726573736044820152606401610da0565b6000818152606760205260409020546001600160a01b03161561330e5760405162461bcd60e51b815260206004820152601c60248201527f4552433732313a20746f6b656e20616c7265616479206d696e746564000000006044820152606401610da0565b6000818152606760205260409020546001600160a01b0316156133735760405162461bcd60e51b815260206004820152601c60248201527f4552433732313a20746f6b656e20616c7265616479206d696e746564000000006044820152606401610da0565b6001600160a01b038216600081815260686020908152604080832080546001019055848352606790915280822080546001600160a01b0319168417905551839291907fddf252ad1be2c89b69c2b068fc378daa952ba7f163c4a11628f55a4df523b3ef908290a45050565b60006001600160a01b0385163b156134dc57604051630a85bd0160e11b81526001600160a01b0386169063150b7a02906134229033908a9089908990600401614855565b6020604051808303816000875af192505050801561345d575060408051601f3d908101601f1916820190925261345a91810190614888565b60015b6134c2573d80801561348b576040519150601f19603f3d011682016040523d82523d6000602084013e613490565b606091505b5082156134a157600091505061143d565b80516000036130cd5760405162461bcd60e51b8152600401610da090614774565b6001600160e01b031916630a85bd0160e11b14905061143d565b50600161143d565b6060600080856001600160a01b03168560405161350191906148a5565b600060405180830381855af49150503d806000811461353c576040519150601f19603f3d011682016040523d82523d6000602084013e613541565b606091505b50915091506126e586838387606083156135bc5782516000036135b5576001600160a01b0385163b6135b55760405162461bcd60e51b815260206004820152601d60248201527f416464726573733a2063616c6c20746f206e6f6e2d636f6e74726163740000006044820152606401610da0565b5081610f12565b610f1283838151156135d15781518083602001fd5b8060405162461bcd60e51b8152600401610da091906138e9565b8280546135f7906140fb565b90600052602060002090601f016020900481019282613619576000855561365f565b82601f1061363257805160ff191683800117855561365f565b8280016001018555821561365f579182015b8281111561365f578251825591602001919060010190613644565b5061366b9291506136e3565b5090565b82805461367b906140fb565b90600052602060002090601f01602090048101928261369d576000855561365f565b82601f106136b65782800160ff1982351617855561365f565b8280016001018555821561365f579182015b8281111561365f5782358255916020019190600101906136c8565b5b8082111561366b57600081556001016136e4565b60006020828403121561370a57600080fd5b5035919050565b600081518084526020808501945080840160005b8381101561374157815187529582019590820190600101613725565b509495945050505050565b60005b8381101561376757818101518382015260200161374f565b838111156119365750506000910152565b6000815180845261379081602086016020860161374c565b601f01601f19169290920160200192915050565b60208152600082516101608060208501526137c3610180850183613711565b91506020850151604085015260408501516137e960608601826001600160a01b03169052565b5060608501516001600160a01b0381166080860152506080850151601f19808685030160a087015261381b8483613778565b935060a08701519150808685030160c08701526138388483613778565b935060c08701519150808685030160e08701526138558483613778565b935060e087015191506101008187860301818801526138748584613778565b9450808801519250506101208187860301818801526138938584613778565b908801516101408881019190915290970151929095019190915250929392505050565b6001600160e01b03198116811461129857600080fd5b6000602082840312156138de57600080fd5b8135612e4a816138b6565b602081526000612e4a6020830184613778565b6001600160a01b038116811461129857600080fd5b803561391c816138fc565b919050565b6000806040838503121561393457600080fd5b823561393f816138fc565b946020939093013593505050565b60008083601f84011261395f57600080fd5b5081356001600160401b0381111561397657600080fd5b60208301915083602082850101111561398e57600080fd5b9250929050565b60008083601f8401126139a757600080fd5b5081356001600160401b038111156139be57600080fd5b6020830191508360208260051b850101111561398e57600080fd5b60008060008060008060008060008060c08b8d0312156139f857600080fd5b613a018b613911565b995060208b01356001600160401b0380821115613a1d57600080fd5b613a298e838f0161394d565b909b509950899150613a3d60408e01613911565b985060608d0135915080821115613a5357600080fd5b613a5f8e838f0161394d565b909850965060808d0135915080821115613a7857600080fd5b613a848e838f0161394d565b909650945060a08d0135915080821115613a9d57600080fd5b50613aaa8d828e01613995565b915080935050809150509295989b9194979a5092959850565b600060208284031215613ad557600080fd5b8135612e4a816138fc565b6020808252825182820181905260009190848201906040850190845b81811015613b1857835183529284019291840191600101613afc565b50909695505050505050565b600080600060608486031215613b3957600080fd5b8335613b44816138fc565b92506020840135613b54816138fc565b929592945050506040919091013590565b634e487b7160e01b600052604160045260246000fd5b60405161014081016001600160401b0381118282101715613b9e57613b9e613b65565b60405290565b60405161018081016001600160401b0381118282101715613b9e57613b9e613b65565b604051601f8201601f191681016001600160401b0381118282101715613bef57613bef613b65565b604052919050565b60006001600160401b03821115613c1057613c10613b65565b50601f01601f191660200190565b600082601f830112613c2f57600080fd5b8135613c42613c3d82613bf7565b613bc7565b818152846020838601011115613c5757600080fd5b816020850160208301376000918101602001919091529392505050565b801515811461129857600080fd5b600080600080600060a08688031215613c9a57600080fd5b8535613ca5816138fc565b9450602086013593506040860135925060608601356001600160401b03811115613cce57600080fd5b613cda88828901613c1e565b9250506080860135613ceb81613c74565b809150509295509295909350565b60008060408385031215613d0c57600080fd5b8235613d17816138fc565b915060208301356001600160401b03811115613d3257600080fd5b613d3e85828601613c1e565b9150509250929050565b600060208284031215613d5a57600080fd5b81356001600160401b03811115613d7057600080fd5b610f1284828501613c1e565b602081528151602082015260018060a01b03602083015116604082015260408201516060820152606082015160808201526000608083015160a080840152610f1260c0840182613778565b60008060408385031215613dda57600080fd5b8235613de5816138fc565b91506020830135613df581613c74565b809150509250929050565b60008060008060808587031215613e1657600080fd5b8435613e21816138fc565b93506020850135613e31816138fc565b92506040850135915060608501356001600160401b03811115613e5357600080fd5b613e5f87828801613c1e565b91505092959194509250565b60008060008060008060008060a0898b031215613e8757600080fd5b8835975060208901356001600160401b0380821115613ea557600080fd5b613eb18c838d0161394d565b909950975060408b01359150613ec6826138fc565b90955060608a01359080821115613edc57600080fd5b613ee88c838d0161394d565b909650945060808b0135915080821115613f0157600080fd5b50613f0e8b828c0161394d565b999c989b5096995094979396929594505050565b60008060008060608587031215613f3857600080fd5b8435613f43816138fc565b935060208501356001600160401b0380821115613f5f57600080fd5b908601906101408289031215613f7457600080fd5b90935060408601359080821115613f8a57600080fd5b50613f9787828801613995565b95989497509550505050565b600080600060408486031215613fb857600080fd5b8335925060208401356001600160401b03811115613fd557600080fd5b613fe186828701613995565b9497909650939450505050565b6000806040838503121561400157600080fd5b823561400c816138fc565b91506020830135613df5816138fc565b60006001600160401b0382111561403557614035613b65565b5060051b60200190565b6000806040838503121561405257600080fd5b823591506020808401356001600160401b038082111561407157600080fd5b818601915086601f83011261408557600080fd5b8135614093613c3d8261401c565b81815260059190911b830184019084810190898311156140b257600080fd5b8585015b838110156140ea578035858111156140ce5760008081fd5b6140dc8c89838a0101613c1e565b8452509186019186016140b6565b508096505050505050509250929050565b600181811c9082168061410f57607f821691505b60208210810361412f57634e487b7160e01b600052602260045260246000fd5b50919050565b634e487b7160e01b600052603260045260246000fd5b634e487b7160e01b600052601160045260246000fd5b600082198211156141745761417461414b565b500190565b60006001820161418b5761418b61414b565b5060010190565b6000826141af57634e487b7160e01b600052601260045260246000fd5b500490565b805161391c81613c74565b6000602082840312156141d157600080fd5b8151612e4a81613c74565b6020808252602d908201527f4552433732313a2063616c6c6572206973206e6f7420746f6b656e206f776e6560408201526c1c881bdc88185c1c1c9bdd9959609a1b606082015260800190565b6020808252602c908201527f46756e6374696f6e206d7573742062652063616c6c6564207468726f7567682060408201526b19195b1959d85d1958d85b1b60a21b606082015260800190565b6020808252602c908201527f46756e6374696f6e206d7573742062652063616c6c6564207468726f7567682060408201526b6163746976652070726f787960a01b606082015260800190565b600081516142d381856020860161374c565b9290920192915050565b600080845481600182811c9150808316806142f957607f831692505b6020808410820361431857634e487b7160e01b86526022600452602486fd5b81801561432c576001811461433d5761436a565b60ff1986168952848901965061436a565b60008b81526020902060005b868110156143625781548b820152908501908301614349565b505084890196505b50505050505061143d81856142c1565b600082601f83011261438b57600080fd5b8135602061439b613c3d8361401c565b82815260059290921b840181019181810190868411156143ba57600080fd5b8286015b848110156143d557803583529183019183016143be565b509695505050505050565b600061014082360312156143f357600080fd5b6143fb613b7b565b82356001600160401b038082111561441257600080fd5b61441e3683870161437a565b835260208501356020840152604085013591508082111561443e57600080fd5b61444a36838701613c1e565b604084015261445b60608601613911565b6060840152608085013591508082111561447457600080fd5b61448036838701613c1e565b608084015260a085013591508082111561449957600080fd5b6144a536838701613c1e565b60a084015260c08501359150808211156144be57600080fd5b6144ca36838701613c1e565b60c084015260e08501359150808211156144e357600080fd5b506144f036828601613c1e565b60e083015250610100838101359082015261012092830135928101929092525090565b60006020828403121561452557600080fd5b8151612e4a816138fc565b600082601f83011261454157600080fd5b815161454f613c3d82613bf7565b81815284602083860101111561456457600080fd5b610f1282602083016020870161374c565b80516001600160401b038116811461391c57600080fd5b60006020828403121561459e57600080fd5b81516001600160401b03808211156145b557600080fd5b9083019061018082860312156145ca57600080fd5b6145d2613ba4565b8251828111156145e157600080fd5b6145ed87828601614530565b8252506145fc60208401614575565b602082015261460d60408401614575565b60408201526060830151606082015261462860808401614575565b608082015261463960a084016141b4565b60a082015261464a60c084016141b4565b60c082015260e08301518281111561466157600080fd5b61466d87828601614530565b60e083015250610100808401518381111561468757600080fd5b61469388828701614530565b82840152505061012080840151838111156146ad57600080fd5b6146b988828701614530565b82840152505061014080840151838111156146d357600080fd5b6146df88828701614530565b82840152505061016080840151838111156146f957600080fd5b61470588828701614530565b918301919091525095945050505050565b60208082526025908201527f4552433732313a207472616e736665722066726f6d20696e636f72726563742060408201526437bbb732b960d91b606082015260800190565b60006020828403121561476d57600080fd5b5051919050565b60208082526032908201527f4552433732313a207472616e7366657220746f206e6f6e20455243373231526560408201527131b2b4bb32b91034b6b83632b6b2b73a32b960711b606082015260800190565b838152604060208201819052810182905260006001600160fb1b038311156147ed57600080fd5b8260051b8085606085013760009201606001918252509392505050565b6020808252602b908201527f496e697469616c697a61626c653a20636f6e7472616374206973206e6f74206960408201526a6e697469616c697a696e6760a81b606082015260800190565b6001600160a01b03858116825284166020820152604081018390526080606082018190526000906126e590830184613778565b60006020828403121561489a57600080fd5b8151612e4a816138b6565b600082516148b781846020870161374c565b919091019291505056fe546f7563616e2050726f746f636f6c3a205265746972656d656e742043657274696669636174657320666f7220546f6b656e697a656420436172626f6e204f666673657473360894a13ba1a3210667c828492db98dca3e2076cc3735a920a3ca505d382bbc416464726573733a206c6f772d6c6576656c2064656c65676174652063616c6c206661696c6564a264697066735822122039ad3c76419022a0f9dbe9daf02fd849cb7f32a9b17c25c0968064f5eac4367564736f6c634300080e0033",
  "devdoc": {
    "details": "The amount of RetirementEvents is denominated in the 18-decimal formGetters in this contract return the corresponding amount in tonnes or kilos",
    "kind": "dev",
    "methods": {
      "approve(address,uint256)": {
        "details": "See {IERC721-approve}."
      },
      "attachRetirementEvents(uint256,uint256[])": {
        "params": {
          "retirementEventIds": "An array of event ids to associate with the NFT.",
          "tokenId": "The id of the NFT to attach events to."
        }
      },
      "balanceOf(address)": {
        "details": "See {IERC721-balanceOf}."
      },
      "constructor": {
        "custom:oz-upgrades-unsafe-allow": "constructor"
      },
      "getApproved(uint256)": {
        "details": "See {IERC721-getApproved}."
      },
      "getData(uint256)": {
        "details": "This function is deprecated in favour of `certificates(uint256 tokenId)`, it is kept for backwards compatibility and will be removed in future versions.",
        "params": {
          "tokenId": "The id of the NFT to get data for."
        }
      },
      "getRetiredAmount(uint256)": {
        "details": "The return amount is denominated in 18 decimals, similar to amounts as they are read in TCO2 contracts. For example, 1000000000000000000 means 1 tonne.",
        "params": {
          "tokenId": "The id of the NFT to update."
        },
        "returns": {
          "amount": "Total retired amount for an NFT."
        }
      },
      "getRetiredAmountInKilos(uint256)": {
        "params": {
          "tokenId": "The id of the NFT to update."
        },
        "returns": {
          "_0": "amount Total retired amount for an NFT in kilos."
        }
      },
      "getRetiredAmountInTonnes(uint256)": {
        "params": {
          "tokenId": "The id of the NFT to update."
        },
        "returns": {
          "_0": "amount Total retired amount for an NFT in tonnes."
        }
      },
      "getUserEvents(address)": {
        "params": {
          "user": "The user for whom to fetch all events."
        }
      },
      "isApprovedForAll(address,address)": {
        "details": "See {IERC721-isApprovedForAll}."
      },
      "mintCertificate(address,string,address,string,string,uint256[])": {
        "details": "The function can either be called by a valid TCO2 contract or by someone who         owns retirement events.",
        "params": {
          "beneficiary": "The address of the beneficiary of the retirement",
          "beneficiaryString": "An identifiable string for the beneficiary, eg. their name",
          "retirementEventIds": "An array of event ids to associate with the NFT.",
          "retirementMessage": "A message to be included in the retirement certificate",
          "retiringEntity": "The entity that has retired TCO2",
          "retiringEntityString": "An identifiable string for the retiring entity, eg. their name"
        },
        "returns": {
          "_0": "The token id of the newly minted NFT."
        }
      },
      "mintCertificateWithExtraData(address,(uint256[],uint256,string,address,string,string,string,string,uint256,uint256),uint256[])": {
        "details": "The function can only be called by a valid TCO2 contract.",
        "params": {
          "params": "Retirement params",
          "retirementEventIds": "An array of event ids to associate with the NFT.",
          "retiringEntity": "The entity that has retired TCO2 and is eligible to mint an NFT."
        },
        "returns": {
          "_0": "The token id of the newly minted NFT."
        }
      },
      "name()": {
        "details": "See {IERC721Metadata-name}."
      },
      "owner()": {
        "details": "Returns the address of the current owner."
      },
      "ownerOf(uint256)": {
        "details": "See {IERC721-ownerOf}."
      },
      "proxiableUUID()": {
        "details": "Implementation of the ERC1822 {proxiableUUID} function. This returns the storage slot used by the implementation. It is used to validate the implementation's compatibility when performing an upgrade. IMPORTANT: A proxy pointing at a proxiable contract should not be considered proxiable itself, because this risks bricking a proxy that upgrades to it, by delegating to itself until out of gas. Thus it is critical that this function revert if invoked through a proxy. This is guaranteed by the `notDelegated` modifier."
      },
      "registerEvent(address,uint256,uint256,string,bool)": {
        "details": "The function can either be only called by a valid TCO2 contract.",
        "params": {
          "amount": "The amount of the TCO2 that is retired.",
          "isLegacy": "Whether this event registration was executed by using the legacy retired amount in the TCO2 contract or utilizes the new retirement event design.",
          "projectVintageTokenId": "The vintage id of the TCO2 that is retired.",
          "retiringEntity": "The entity that has retired TCO2 and is eligible to mint an NFT.",
          "serialNumber": "The serial number of the batch associated with the retirement."
        }
      },
      "renounceOwnership()": {
        "details": "Leaves the contract without owner. It will not be possible to call `onlyOwner` functions. Can only be called by the current owner. NOTE: Renouncing ownership will leave the contract without an owner, thereby disabling any functionality that is only available to the owner."
      },
      "safeTransferFrom(address,address,uint256)": {
        "details": "See {IERC721-safeTransferFrom}."
      },
      "safeTransferFrom(address,address,uint256,bytes)": {
        "details": "See {IERC721-safeTransferFrom}."
      },
      "setApprovalForAll(address,bool)": {
        "details": "See {IERC721-setApprovalForAll}."
      },
      "supportsInterface(bytes4)": {
        "details": "See {IERC165-supportsInterface}."
      },
      "symbol()": {
        "details": "See {IERC721Metadata-symbol}."
      },
      "tokenURI(uint256)": {
        "details": "Returns the Uniform Resource Identifier (URI) for `tokenId` token. based on the ERC721URIStorage implementation",
        "params": {
          "tokenId": "The id of the NFT to get the URI."
        }
      },
      "transferFrom(address,address,uint256)": {
        "details": "See {IERC721-transferFrom}."
      },
      "transferOwnership(address)": {
        "details": "Transfers ownership of the contract to a new account (`newOwner`). Can only be called by the current owner."
      },
      "updateCertificate(uint256,string,address,string,string)": {
        "params": {
          "beneficiary": "The address of the beneficiary of the retirement",
          "beneficiaryString": "An identifiable string for the beneficiary, eg. their name",
          "retirementMessage": "A message to be included in the retirement certificate",
          "retiringEntityString": "An identifiable string for the retiring entity, eg. their name",
          "tokenId": "The id of the NFT to update"
        }
      },
      "upgradeTo(address)": {
        "custom:oz-upgrades-unsafe-allow-reachable": "delegatecall",
        "details": "Upgrade the implementation of the proxy to `newImplementation`. Calls {_authorizeUpgrade}. Emits an {Upgraded} event."
      },
      "upgradeToAndCall(address,bytes)": {
        "custom:oz-upgrades-unsafe-allow-reachable": "delegatecall",
        "details": "Upgrade the implementation of the proxy to `newImplementation`, and subsequently execute the function call encoded in `data`. Calls {_authorizeUpgrade}. Emits an {Upgraded} event."
      }
    },
    "stateVariables": {
      "VERSION": {
        "details": "Version-related parameters. VERSION keeps track of production releases. VERSION_RELEASE_CANDIDATE keeps track of iterations of a VERSION in our staging environment."
      },
      "tonneDenomination": {
        "details": "dividers to round carbon in human-readable denominations"
      }
    },
    "version": 1
  },
  "userdoc": {
    "kind": "user",
    "methods": {
      "attachRetirementEvents(uint256,uint256[])": {
        "notice": "Attach retirement events to an NFT."
      },
      "getData(uint256)": {
        "notice": "Get certificate data for an NFT."
      },
      "getRetiredAmount(uint256)": {
        "notice": "Get total retired amount for an NFT."
      },
      "getRetiredAmountInKilos(uint256)": {
        "notice": "Get total retired amount for an NFT in kilos."
      },
      "getRetiredAmountInTonnes(uint256)": {
        "notice": "Get total retired amount for an NFT in tonnes."
      },
      "getUserEvents(address)": {
        "notice": "Get all events for a user."
      },
      "mintCertificate(address,string,address,string,string,uint256[])": {
        "notice": "Mint a new RetirementCertificates NFT that shows how many TCO2s have been retired. Note that this information is publicly written to the blockchain in plaintext."
      },
      "mintCertificateWithExtraData(address,(uint256[],uint256,string,address,string,string,string,string,uint256,uint256),uint256[])": {
        "notice": "Mint a new RetirementCertificates NFT that shows how many TCO2s have been retired. When retiringEntity is a contract, the token will be minted regardless of whether retiringEntity is a valid ERC721 receiver or has chosen to decline ERC721 tokens."
      },
      "registerEvent(address,uint256,uint256,string,bool)": {
        "notice": "Register retirement events. This function can only be called by a TC02 contract to register retirement events so they can be directly linked to an NFT mint."
      },
      "updateCertificate(uint256,string,address,string,string)": {
        "notice": "Update retirementMessage, beneficiary, and beneficiaryString of a NFT within 24h of creation. Empty values are ignored, ie., will not overwrite the existing stored values in the NFT. Note that this information is publicly written to the blockchain in plaintext."
      }
    },
    "notice": "The `RetirementCertificates` contract lets users mint NFTs that act as proof-of-retirement. These Retirement Certificate NFTs display how many TCO2s a user has burnt",
    "version": 1
  },
  "storageLayout": {
    "storage": [
      {
        "astId": 2373,
        "contract": "contracts/retirements/RetirementCertificates.sol:RetirementCertificates",
        "label": "_initialized",
        "offset": 0,
        "slot": "0",
        "type": "t_uint8"
      },
      {
        "astId": 2376,
        "contract": "contracts/retirements/RetirementCertificates.sol:RetirementCertificates",
        "label": "_initializing",
        "offset": 1,
        "slot": "0",
        "type": "t_bool"
      },
      {
        "astId": 7515,
        "contract": "contracts/retirements/RetirementCertificates.sol:RetirementCertificates",
        "label": "__gap",
        "offset": 0,
        "slot": "1",
        "type": "t_array(t_uint256)50_storage"
      },
      {
        "astId": 7899,
        "contract": "contracts/retirements/RetirementCertificates.sol:RetirementCertificates",
        "label": "__gap",
        "offset": 0,
        "slot": "51",
        "type": "t_array(t_uint256)50_storage"
      },
      {
        "astId": 5645,
        "contract": "contracts/retirements/RetirementCertificates.sol:RetirementCertificates",
        "label": "_name",
        "offset": 0,
        "slot": "101",
        "type": "t_string_storage"
      },
      {
        "astId": 5647,
        "contract": "contracts/retirements/RetirementCertificates.sol:RetirementCertificates",
        "label": "_symbol",
        "offset": 0,
        "slot": "102",
        "type": "t_string_storage"
      },
      {
        "astId": 5651,
        "contract": "contracts/retirements/RetirementCertificates.sol:RetirementCertificates",
        "label": "_owners",
        "offset": 0,
        "slot": "103",
        "type": "t_mapping(t_uint256,t_address)"
      },
      {
        "astId": 5655,
        "contract": "contracts/retirements/RetirementCertificates.sol:RetirementCertificates",
        "label": "_balances",
        "offset": 0,
        "slot": "104",
        "type": "t_mapping(t_address,t_uint256)"
      },
      {
        "astId": 5659,
        "contract": "contracts/retirements/RetirementCertificates.sol:RetirementCertificates",
        "label": "_tokenApprovals",
        "offset": 0,
        "slot": "105",
        "type": "t_mapping(t_uint256,t_address)"
      },
      {
        "astId": 5665,
        "contract": "contracts/retirements/RetirementCertificates.sol:RetirementCertificates",
        "label": "_operatorApprovals",
        "offset": 0,
        "slot": "106",
        "type": "t_mapping(t_address,t_mapping(t_address,t_bool))"
      },
      {
        "astId": 6567,
        "contract": "contracts/retirements/RetirementCertificates.sol:RetirementCertificates",
        "label": "__gap",
        "offset": 0,
        "slot": "107",
        "type": "t_array(t_uint256)44_storage"
      },
      {
        "astId": 1879,
        "contract": "contracts/retirements/RetirementCertificates.sol:RetirementCertificates",
        "label": "_owner",
        "offset": 0,
        "slot": "151",
        "type": "t_address"
      },
      {
        "astId": 1999,
        "contract": "contracts/retirements/RetirementCertificates.sol:RetirementCertificates",
        "label": "__gap",
        "offset": 0,
        "slot": "152",
        "type": "t_array(t_uint256)49_storage"
      },
      {
        "astId": 2355,
        "contract": "contracts/retirements/RetirementCertificates.sol:RetirementCertificates",
        "label": "__gap",
        "offset": 0,
        "slot": "201",
        "type": "t_array(t_uint256)50_storage"
      },
      {
        "astId": 2671,
        "contract": "contracts/retirements/RetirementCertificates.sol:RetirementCertificates",
        "label": "__gap",
        "offset": 0,
        "slot": "251",
        "type": "t_array(t_uint256)50_storage"
      },
      {
        "astId": 36535,
        "contract": "contracts/retirements/RetirementCertificates.sol:RetirementCertificates",
        "label": "retireEventCounter",
        "offset": 0,
        "slot": "301",
        "type": "t_uint256"
      },
      {
        "astId": 36541,
        "contract": "contracts/retirements/RetirementCertificates.sol:RetirementCertificates",
        "label": "_retirements",
        "offset": 0,
        "slot": "302",
        "type": "t_mapping(t_uint256,t_struct(RetirementEvent)37959_storage)"
      },
      {
        "astId": 36546,
        "contract": "contracts/retirements/RetirementCertificates.sol:RetirementCertificates",
        "label": "claimedEvents",
        "offset": 0,
        "slot": "303",
        "type": "t_mapping(t_uint256,t_bool)"
      },
      {
        "astId": 36552,
        "contract": "contracts/retirements/RetirementCertificates.sol:RetirementCertificates",
        "label": "eventsOfUser",
        "offset": 0,
        "slot": "304",
        "type": "t_mapping(t_address,t_array(t_uint256)dyn_storage)"
      },
      {
        "astId": 36554,
        "contract": "contracts/retirements/RetirementCertificates.sol:RetirementCertificates",
        "label": "baseURI",
        "offset": 0,
        "slot": "305",
        "type": "t_string_storage"
      },
      {
        "astId": 36556,
        "contract": "contracts/retirements/RetirementCertificates.sol:RetirementCertificates",
        "label": "contractRegistry",
        "offset": 0,
        "slot": "306",
        "type": "t_address"
      },
      {
        "astId": 36558,
        "contract": "contracts/retirements/RetirementCertificates.sol:RetirementCertificates",
        "label": "_tokenIds",
        "offset": 0,
        "slot": "307",
        "type": "t_uint256"
      },
      {
        "astId": 36564,
        "contract": "contracts/retirements/RetirementCertificates.sol:RetirementCertificates",
        "label": "_certificates",
        "offset": 0,
        "slot": "308",
        "type": "t_mapping(t_uint256,t_struct(CertificateData)37947_storage)"
      },
      {
        "astId": 36566,
        "contract": "contracts/retirements/RetirementCertificates.sol:RetirementCertificates",
        "label": "minValidRetirementAmount",
        "offset": 0,
        "slot": "309",
        "type": "t_uint256"
      },
      {
        "astId": 2815,
        "contract": "contracts/retirements/RetirementCertificates.sol:RetirementCertificates",
        "label": "_status",
        "offset": 0,
        "slot": "310",
        "type": "t_uint256"
      },
      {
        "astId": 2884,
        "contract": "contracts/retirements/RetirementCertificates.sol:RetirementCertificates",
        "label": "__gap",
        "offset": 0,
        "slot": "311",
        "type": "t_array(t_uint256)49_storage"
      }
    ],
    "types": {
      "t_address": {
        "encoding": "inplace",
        "label": "address",
        "numberOfBytes": "20"
      },
      "t_array(t_uint256)44_storage": {
        "base": "t_uint256",
        "encoding": "inplace",
        "label": "uint256[44]",
        "numberOfBytes": "1408"
      },
      "t_array(t_uint256)49_storage": {
        "base": "t_uint256",
        "encoding": "inplace",
        "label": "uint256[49]",
        "numberOfBytes": "1568"
      },
      "t_array(t_uint256)50_storage": {
        "base": "t_uint256",
        "encoding": "inplace",
        "label": "uint256[50]",
        "numberOfBytes": "1600"
      },
      "t_array(t_uint256)dyn_storage": {
        "base": "t_uint256",
        "encoding": "dynamic_array",
        "label": "uint256[]",
        "numberOfBytes": "32"
      },
      "t_bool": {
        "encoding": "inplace",
        "label": "bool",
        "numberOfBytes": "1"
      },
      "t_mapping(t_address,t_array(t_uint256)dyn_storage)": {
        "encoding": "mapping",
        "key": "t_address",
        "label": "mapping(address => uint256[])",
        "numberOfBytes": "32",
        "value": "t_array(t_uint256)dyn_storage"
      },
      "t_mapping(t_address,t_bool)": {
        "encoding": "mapping",
        "key": "t_address",
        "label": "mapping(address => bool)",
        "numberOfBytes": "32",
        "value": "t_bool"
      },
      "t_mapping(t_address,t_mapping(t_address,t_bool))": {
        "encoding": "mapping",
        "key": "t_address",
        "label": "mapping(address => mapping(address => bool))",
        "numberOfBytes": "32",
        "value": "t_mapping(t_address,t_bool)"
      },
      "t_mapping(t_address,t_uint256)": {
        "encoding": "mapping",
        "key": "t_address",
        "label": "mapping(address => uint256)",
        "numberOfBytes": "32",
        "value": "t_uint256"
      },
      "t_mapping(t_uint256,t_address)": {
        "encoding": "mapping",
        "key": "t_uint256",
        "label": "mapping(uint256 => address)",
        "numberOfBytes": "32",
        "value": "t_address"
      },
      "t_mapping(t_uint256,t_bool)": {
        "encoding": "mapping",
        "key": "t_uint256",
        "label": "mapping(uint256 => bool)",
        "numberOfBytes": "32",
        "value": "t_bool"
      },
      "t_mapping(t_uint256,t_struct(CertificateData)37947_storage)": {
        "encoding": "mapping",
        "key": "t_uint256",
        "label": "mapping(uint256 => struct CertificateData)",
        "numberOfBytes": "32",
        "value": "t_struct(CertificateData)37947_storage"
      },
      "t_mapping(t_uint256,t_struct(RetirementEvent)37959_storage)": {
        "encoding": "mapping",
        "key": "t_uint256",
        "label": "mapping(uint256 => struct RetirementEvent)",
        "numberOfBytes": "32",
        "value": "t_struct(RetirementEvent)37959_storage"
      },
      "t_string_storage": {
        "encoding": "bytes",
        "label": "string",
        "numberOfBytes": "32"
      },
      "t_struct(CertificateData)37947_storage": {
        "encoding": "inplace",
        "label": "struct CertificateData",
        "members": [
          {
            "astId": 37926,
            "contract": "contracts/retirements/RetirementCertificates.sol:RetirementCertificates",
            "label": "retirementEventIds",
            "offset": 0,
            "slot": "0",
            "type": "t_array(t_uint256)dyn_storage"
          },
          {
            "astId": 37928,
            "contract": "contracts/retirements/RetirementCertificates.sol:RetirementCertificates",
            "label": "createdAt",
            "offset": 0,
            "slot": "1",
            "type": "t_uint256"
          },
          {
            "astId": 37930,
            "contract": "contracts/retirements/RetirementCertificates.sol:RetirementCertificates",
            "label": "retiringEntity",
            "offset": 0,
            "slot": "2",
            "type": "t_address"
          },
          {
            "astId": 37932,
            "contract": "contracts/retirements/RetirementCertificates.sol:RetirementCertificates",
            "label": "beneficiary",
            "offset": 0,
            "slot": "3",
            "type": "t_address"
          },
          {
            "astId": 37934,
            "contract": "contracts/retirements/RetirementCertificates.sol:RetirementCertificates",
            "label": "retiringEntityString",
            "offset": 0,
            "slot": "4",
            "type": "t_string_storage"
          },
          {
            "astId": 37936,
            "contract": "contracts/retirements/RetirementCertificates.sol:RetirementCertificates",
            "label": "beneficiaryString",
            "offset": 0,
            "slot": "5",
            "type": "t_string_storage"
          },
          {
            "astId": 37938,
            "contract": "contracts/retirements/RetirementCertificates.sol:RetirementCertificates",
            "label": "retirementMessage",
            "offset": 0,
            "slot": "6",
            "type": "t_string_storage"
          },
          {
            "astId": 37940,
            "contract": "contracts/retirements/RetirementCertificates.sol:RetirementCertificates",
            "label": "beneficiaryLocation",
            "offset": 0,
            "slot": "7",
            "type": "t_string_storage"
          },
          {
            "astId": 37942,
            "contract": "contracts/retirements/RetirementCertificates.sol:RetirementCertificates",
            "label": "consumptionCountryCode",
            "offset": 0,
            "slot": "8",
            "type": "t_string_storage"
          },
          {
            "astId": 37944,
            "contract": "contracts/retirements/RetirementCertificates.sol:RetirementCertificates",
            "label": "consumptionPeriodStart",
            "offset": 0,
            "slot": "9",
            "type": "t_uint256"
          },
          {
            "astId": 37946,
            "contract": "contracts/retirements/RetirementCertificates.sol:RetirementCertificates",
            "label": "consumptionPeriodEnd",
            "offset": 0,
            "slot": "10",
            "type": "t_uint256"
          }
        ],
        "numberOfBytes": "352"
      },
      "t_struct(RetirementEvent)37959_storage": {
        "encoding": "inplace",
        "label": "struct RetirementEvent",
        "members": [
          {
            "astId": 37949,
            "contract": "contracts/retirements/RetirementCertificates.sol:RetirementCertificates",
            "label": "createdAt",
            "offset": 0,
            "slot": "0",
            "type": "t_uint256"
          },
          {
            "astId": 37951,
            "contract": "contracts/retirements/RetirementCertificates.sol:RetirementCertificates",
            "label": "retiringEntity",
            "offset": 0,
            "slot": "1",
            "type": "t_address"
          },
          {
            "astId": 37954,
            "contract": "contracts/retirements/RetirementCertificates.sol:RetirementCertificates",
            "label": "amount",
            "offset": 0,
            "slot": "2",
            "type": "t_uint256"
          },
          {
            "astId": 37956,
            "contract": "contracts/retirements/RetirementCertificates.sol:RetirementCertificates",
            "label": "projectVintageTokenId",
            "offset": 0,
            "slot": "3",
            "type": "t_uint256"
          },
          {
            "astId": 37958,
            "contract": "contracts/retirements/RetirementCertificates.sol:RetirementCertificates",
            "label": "serialNumber",
            "offset": 0,
            "slot": "4",
            "type": "t_string_storage"
          }
        ],
        "numberOfBytes": "160"
      },
      "t_uint256": {
        "encoding": "inplace",
        "label": "uint256",
        "numberOfBytes": "32"
      },
      "t_uint8": {
        "encoding": "inplace",
        "label": "uint8",
        "numberOfBytes": "1"
      }
    }
  }
}