{
  "address": "0x4d8A4c0CFd658192E4bCf0439b6cdDe4b50061d9",
  "abi": [
    {
      "inputs": [],
      "stateMutability": "nonpayable",
      "type": "constructor"
    },
    {
      "anonymous": false,
      "inputs": [
        {
          "indexed": false,
          "internalType": "address",
          "name": "previousAdmin",
          "type": "address"
        },
        {
          "indexed": false,
          "internalType": "address",
          "name": "newAdmin",
          "type": "address"
        }
      ],
      "name": "AdminChanged",
      "type": "event"
    },
    {
      "anonymous": false,
      "inputs": [
        {
          "indexed": true,
          "internalType": "address",
          "name": "owner",
          "type": "address"
        },
        {
          "indexed": true,
          "internalType": "address",
          "name": "spender",
          "type": "address"
        },
        {
          "indexed": true,
          "internalType": "uint256",
          "name": "id",
          "type": "uint256"
        },
        {
          "indexed": false,
          "internalType": "uint256",
          "name": "oldValue",
          "type": "uint256"
        },
        {
          "indexed": false,
          "internalType": "uint256",
          "name": "amount",
          "type": "uint256"
        }
      ],
      "name": "Approval",
      "type": "event"
    },
    {
      "anonymous": false,
      "inputs": [
        {
          "indexed": true,
          "internalType": "address",
          "name": "account",
          "type": "address"
        },
        {
          "indexed": true,
          "internalType": "address",
          "name": "operator",
          "type": "address"
        },
        {
          "indexed": false,
          "internalType": "bool",
          "name": "approved",
          "type": "bool"
        }
      ],
      "name": "ApprovalForAll",
      "type": "event"
    },
    {
      "anonymous": false,
      "inputs": [
        {
          "indexed": true,
          "internalType": "address",
          "name": "beacon",
          "type": "address"
        }
      ],
      "name": "BeaconUpgraded",
      "type": "event"
    },
    {
      "anonymous": false,
      "inputs": [
        {
          "indexed": false,
          "internalType": "string",
          "name": "beneficiaryString",
          "type": "string"
        }
      ],
      "name": "BeneficiaryStringSet",
      "type": "event"
    },
    {
      "anonymous": false,
      "inputs": [
        {
          "indexed": false,
          "internalType": "uint8",
          "name": "version",
          "type": "uint8"
        }
      ],
      "name": "Initialized",
      "type": "event"
    },
    {
      "anonymous": false,
      "inputs": [
        {
          "indexed": false,
          "internalType": "address",
          "name": "account",
          "type": "address"
        }
      ],
      "name": "Paused",
      "type": "event"
    },
    {
      "anonymous": false,
      "inputs": [
        {
          "indexed": true,
          "internalType": "bytes32",
          "name": "role",
          "type": "bytes32"
        },
        {
          "indexed": true,
          "internalType": "bytes32",
          "name": "previousAdminRole",
          "type": "bytes32"
        },
        {
          "indexed": true,
          "internalType": "bytes32",
          "name": "newAdminRole",
          "type": "bytes32"
        }
      ],
      "name": "RoleAdminChanged",
      "type": "event"
    },
    {
      "anonymous": false,
      "inputs": [
        {
          "indexed": true,
          "internalType": "bytes32",
          "name": "role",
          "type": "bytes32"
        },
        {
          "indexed": true,
          "internalType": "address",
          "name": "account",
          "type": "address"
        },
        {
          "indexed": true,
          "internalType": "address",
          "name": "sender",
          "type": "address"
        }
      ],
      "name": "RoleGranted",
      "type": "event"
    },
    {
      "anonymous": false,
      "inputs": [
        {
          "indexed": true,
          "internalType": "bytes32",
          "name": "role",
          "type": "bytes32"
        },
        {
          "indexed": true,
          "internalType": "address",
          "name": "account",
          "type": "address"
        },
        {
          "indexed": true,
          "internalType": "address",
          "name": "sender",
          "type": "address"
        }
      ],
      "name": "RoleRevoked",
      "type": "event"
    },
    {
      "anonymous": false,
      "inputs": [
        {
          "indexed": false,
          "internalType": "address",
          "name": "contractRegistry",
          "type": "address"
        }
      ],
      "name": "ToucanRegistrySet",
      "type": "event"
    },
    {
      "anonymous": false,
      "inputs": [
        {
          "indexed": true,
          "internalType": "address",
          "name": "operator",
          "type": "address"
        },
        {
          "indexed": true,
          "internalType": "address",
          "name": "from",
          "type": "address"
        },
        {
          "indexed": true,
          "internalType": "address",
          "name": "to",
          "type": "address"
        },
        {
          "indexed": false,
          "internalType": "uint256[]",
          "name": "ids",
          "type": "uint256[]"
        },
        {
          "indexed": false,
          "internalType": "uint256[]",
          "name": "values",
          "type": "uint256[]"
        }
      ],
      "name": "TransferBatch",
      "type": "event"
    },
    {
      "anonymous": false,
      "inputs": [
        {
          "indexed": true,
          "internalType": "address",
          "name": "operator",
          "type": "address"
        },
        {
          "indexed": true,
          "internalType": "address",
          "name": "from",
          "type": "address"
        },
        {
          "indexed": true,
          "internalType": "address",
          "name": "to",
          "type": "address"
        },
        {
          "indexed": false,
          "internalType": "uint256",
          "name": "id",
          "type": "uint256"
        },
        {
          "indexed": false,
          "internalType": "uint256",
          "name": "value",
          "type": "uint256"
        }
      ],
      "name": "TransferSingle",
      "type": "event"
    },
    {
      "anonymous": false,
      "inputs": [
        {
          "indexed": false,
          "internalType": "string",
          "name": "value",
          "type": "string"
        },
        {
          "indexed": true,
          "internalType": "uint256",
          "name": "id",
          "type": "uint256"
        }
      ],
      "name": "URI",
      "type": "event"
    },
    {
      "anonymous": false,
      "inputs": [
        {
          "indexed": false,
          "internalType": "address",
          "name": "account",
          "type": "address"
        }
      ],
      "name": "Unpaused",
      "type": "event"
    },
    {
      "anonymous": false,
      "inputs": [
        {
          "indexed": true,
          "internalType": "address",
          "name": "implementation",
          "type": "address"
        }
      ],
      "name": "Upgraded",
      "type": "event"
    },
    {
      "inputs": [],
      "name": "DEFAULT_ADMIN_ROLE",
      "outputs": [
        {
          "internalType": "bytes32",
          "name": "",
          "type": "bytes32"
        }
      ],
      "stateMutability": "view",
      "type": "function"
    },
    {
      "inputs": [],
      "name": "PAUSER_ROLE",
      "outputs": [
        {
          "internalType": "bytes32",
          "name": "",
          "type": "bytes32"
        }
      ],
      "stateMutability": "view",
      "type": "function"
    },
    {
      "inputs": [],
      "name": "VERSION",
      "outputs": [
        {
          "internalType": "string",
          "name": "",
          "type": "string"
        }
      ],
      "stateMutability": "view",
      "type": "function"
    },
    {
      "inputs": [],
      "name": "VERSION_RELEASE_CANDIDATE",
      "outputs": [
        {
          "internalType": "uint256",
          "name": "",
          "type": "uint256"
        }
      ],
      "stateMutability": "view",
      "type": "function"
    },
    {
      "inputs": [
        {
          "internalType": "address",
          "name": "",
          "type": "address"
        },
        {
          "internalType": "address",
          "name": "",
          "type": "address"
        },
        {
          "internalType": "uint256",
          "name": "",
          "type": "uint256"
        }
      ],
      "name": "allowances",
      "outputs": [
        {
          "internalType": "uint256",
          "name": "",
          "type": "uint256"
        }
      ],
      "stateMutability": "view",
      "type": "function"
    },
    {
      "inputs": [
        {
          "internalType": "address",
          "name": "spender",
          "type": "address"
        },
        {
          "internalType": "uint256",
          "name": "id",
          "type": "uint256"
        },
        {
          "internalType": "uint256",
          "name": "currentAmount",
          "type": "uint256"
        },
        {
          "internalType": "uint256",
          "name": "amount",
          "type": "uint256"
        }
      ],
      "name": "approve",
      "outputs": [],
      "stateMutability": "nonpayable",
      "type": "function"
    },
    {
      "inputs": [
        {
          "internalType": "address",
          "name": "account",
          "type": "address"
        },
        {
          "internalType": "uint256",
          "name": "id",
          "type": "uint256"
        }
      ],
      "name": "balanceOf",
      "outputs": [
        {
          "internalType": "uint256",
          "name": "",
          "type": "uint256"
        }
      ],
      "stateMutability": "view",
      "type": "function"
    },
    {
      "inputs": [
        {
          "internalType": "address[]",
          "name": "accounts",
          "type": "address[]"
        },
        {
          "internalType": "uint256[]",
          "name": "ids",
          "type": "uint256[]"
        }
      ],
      "name": "balanceOfBatch",
      "outputs": [
        {
          "internalType": "uint256[]",
          "name": "",
          "type": "uint256[]"
        }
      ],
      "stateMutability": "view",
      "type": "function"
    },
    {
      "inputs": [],
      "name": "beneficiaryString",
      "outputs": [
        {
          "internalType": "string",
          "name": "",
          "type": "string"
        }
      ],
      "stateMutability": "view",
      "type": "function"
    },
    {
      "inputs": [],
      "name": "contractRegistry",
      "outputs": [
        {
          "internalType": "address",
          "name": "",
          "type": "address"
        }
      ],
      "stateMutability": "view",
      "type": "function"
    },
    {
      "inputs": [
        {
          "internalType": "uint256",
          "name": "id",
          "type": "uint256"
        }
      ],
      "name": "exists",
      "outputs": [
        {
          "internalType": "bool",
          "name": "",
          "type": "bool"
        }
      ],
      "stateMutability": "view",
      "type": "function"
    },
    {
      "inputs": [
        {
          "internalType": "address",
          "name": "owner",
          "type": "address"
        },
        {
          "internalType": "uint256",
          "name": "vintageId",
          "type": "uint256"
        }
      ],
      "name": "getRetirementEventIds",
      "outputs": [
        {
          "internalType": "uint256[]",
          "name": "",
          "type": "uint256[]"
        }
      ],
      "stateMutability": "view",
      "type": "function"
    },
    {
      "inputs": [
        {
          "internalType": "bytes32",
          "name": "role",
          "type": "bytes32"
        }
      ],
      "name": "getRoleAdmin",
      "outputs": [
        {
          "internalType": "bytes32",
          "name": "",
          "type": "bytes32"
        }
      ],
      "stateMutability": "view",
      "type": "function"
    },
    {
      "inputs": [
        {
          "internalType": "bytes32",
          "name": "role",
          "type": "bytes32"
        },
        {
          "internalType": "address",
          "name": "account",
          "type": "address"
        }
      ],
      "name": "grantRole",
      "outputs": [],
      "stateMutability": "nonpayable",
      "type": "function"
    },
    {
      "inputs": [
        {
          "internalType": "bytes32",
          "name": "role",
          "type": "bytes32"
        },
        {
          "internalType": "address",
          "name": "account",
          "type": "address"
        }
      ],
      "name": "hasRole",
      "outputs": [
        {
          "internalType": "bool",
          "name": "",
          "type": "bool"
        }
      ],
      "stateMutability": "view",
      "type": "function"
    },
    {
      "inputs": [
        {
          "internalType": "address",
          "name": "_contractRegistry",
          "type": "address"
        },
        {
          "internalType": "string",
          "name": "_beneficiaryString",
          "type": "string"
        },
        {
          "internalType": "address[]",
          "name": "accounts",
          "type": "address[]"
        },
        {
          "internalType": "bytes32[]",
          "name": "roles",
          "type": "bytes32[]"
        }
      ],
      "name": "initialize",
      "outputs": [],
      "stateMutability": "nonpayable",
      "type": "function"
    },
    {
      "inputs": [
        {
          "internalType": "address",
          "name": "account",
          "type": "address"
        },
        {
          "internalType": "address",
          "name": "operator",
          "type": "address"
        }
      ],
      "name": "isApprovedForAll",
      "outputs": [
        {
          "internalType": "bool",
          "name": "",
          "type": "bool"
        }
      ],
      "stateMutability": "view",
      "type": "function"
    },
    {
      "inputs": [
        {
          "components": [
            {
              "internalType": "uint256",
              "name": "amount",
              "type": "uint256"
            },
            {
              "internalType": "uint256",
              "name": "projectVintageTokenId",
              "type": "uint256"
            },
            {
              "internalType": "address",
              "name": "beneficiary",
              "type": "address"
            },
            {
              "internalType": "string",
              "name": "beneficiaryString",
              "type": "string"
            },
            {
              "internalType": "string",
              "name": "retirementMessage",
              "type": "string"
            },
            {
              "internalType": "string",
              "name": "beneficiaryLocation",
              "type": "string"
            },
            {
              "internalType": "string",
              "name": "consumptionCountryCode",
              "type": "string"
            },
            {
              "internalType": "uint256",
              "name": "consumptionPeriodStart",
              "type": "uint256"
            },
            {
              "internalType": "uint256",
              "name": "consumptionPeriodEnd",
              "type": "uint256"
            },
            {
              "internalType": "string",
              "name": "tokenURI",
              "type": "string"
            },
            {
              "internalType": "bytes",
              "name": "extraData",
              "type": "bytes"
            }
          ],
          "internalType": "struct FractionRequestData",
          "name": "params",
          "type": "tuple"
        }
      ],
      "name": "mintFraction",
      "outputs": [
        {
          "internalType": "uint256",
          "name": "fractionTokenId",
          "type": "uint256"
        }
      ],
      "stateMutability": "nonpayable",
      "type": "function"
    },
    {
      "inputs": [
        {
          "internalType": "address",
          "name": "from",
          "type": "address"
        },
        {
          "components": [
            {
              "internalType": "uint256",
              "name": "amount",
              "type": "uint256"
            },
            {
              "internalType": "uint256",
              "name": "projectVintageTokenId",
              "type": "uint256"
            },
            {
              "internalType": "address",
              "name": "beneficiary",
              "type": "address"
            },
            {
              "internalType": "string",
              "name": "beneficiaryString",
              "type": "string"
            },
            {
              "internalType": "string",
              "name": "retirementMessage",
              "type": "string"
            },
            {
              "internalType": "string",
              "name": "beneficiaryLocation",
              "type": "string"
            },
            {
              "internalType": "string",
              "name": "consumptionCountryCode",
              "type": "string"
            },
            {
              "internalType": "uint256",
              "name": "consumptionPeriodStart",
              "type": "uint256"
            },
            {
              "internalType": "uint256",
              "name": "consumptionPeriodEnd",
              "type": "uint256"
            },
            {
              "internalType": "string",
              "name": "tokenURI",
              "type": "string"
            },
            {
              "internalType": "bytes",
              "name": "extraData",
              "type": "bytes"
            }
          ],
          "internalType": "struct FractionRequestData",
          "name": "params",
          "type": "tuple"
        }
      ],
      "name": "mintFractionFrom",
      "outputs": [
        {
          "internalType": "uint256",
          "name": "fractionTokenId",
          "type": "uint256"
        }
      ],
      "stateMutability": "nonpayable",
      "type": "function"
    },
    {
      "inputs": [
        {
          "internalType": "address",
          "name": "",
          "type": "address"
        },
        {
          "internalType": "address",
          "name": "from",
          "type": "address"
        },
        {
          "internalType": "uint256",
          "name": "tokenId",
          "type": "uint256"
        },
        {
          "internalType": "bytes",
          "name": "",
          "type": "bytes"
        }
      ],
      "name": "onERC721Received",
      "outputs": [
        {
          "internalType": "bytes4",
          "name": "",
          "type": "bytes4"
        }
      ],
      "stateMutability": "nonpayable",
      "type": "function"
    },
    {
      "inputs": [],
      "name": "pause",
      "outputs": [],
      "stateMutability": "nonpayable",
      "type": "function"
    },
    {
      "inputs": [],
      "name": "paused",
      "outputs": [
        {
          "internalType": "bool",
          "name": "",
          "type": "bool"
        }
      ],
      "stateMutability": "view",
      "type": "function"
    },
    {
      "inputs": [],
      "name": "proxiableUUID",
      "outputs": [
        {
          "internalType": "bytes32",
          "name": "",
          "type": "bytes32"
        }
      ],
      "stateMutability": "view",
      "type": "function"
    },
    {
      "inputs": [
        {
          "internalType": "uint256",
          "name": "",
          "type": "uint256"
        }
      ],
      "name": "remainingRetirementEventBalance",
      "outputs": [
        {
          "internalType": "uint256",
          "name": "",
          "type": "uint256"
        }
      ],
      "stateMutability": "view",
      "type": "function"
    },
    {
      "inputs": [
        {
          "internalType": "bytes32",
          "name": "role",
          "type": "bytes32"
        },
        {
          "internalType": "address",
          "name": "account",
          "type": "address"
        }
      ],
      "name": "renounceRole",
      "outputs": [],
      "stateMutability": "nonpayable",
      "type": "function"
    },
    {
      "inputs": [
        {
          "internalType": "bytes32",
          "name": "role",
          "type": "bytes32"
        },
        {
          "internalType": "address",
          "name": "account",
          "type": "address"
        }
      ],
      "name": "revokeRole",
      "outputs": [],
      "stateMutability": "nonpayable",
      "type": "function"
    },
    {
      "inputs": [
        {
          "internalType": "address",
          "name": "from",
          "type": "address"
        },
        {
          "internalType": "address",
          "name": "to",
          "type": "address"
        },
        {
          "internalType": "uint256[]",
          "name": "ids",
          "type": "uint256[]"
        },
        {
          "internalType": "uint256[]",
          "name": "amounts",
          "type": "uint256[]"
        },
        {
          "internalType": "bytes",
          "name": "data",
          "type": "bytes"
        }
      ],
      "name": "safeBatchTransferFrom",
      "outputs": [],
      "stateMutability": "nonpayable",
      "type": "function"
    },
    {
      "inputs": [
        {
          "internalType": "address",
          "name": "from",
          "type": "address"
        },
        {
          "internalType": "address",
          "name": "to",
          "type": "address"
        },
        {
          "internalType": "uint256",
          "name": "id",
          "type": "uint256"
        },
        {
          "internalType": "uint256",
          "name": "amount",
          "type": "uint256"
        },
        {
          "internalType": "bytes",
          "name": "data",
          "type": "bytes"
        }
      ],
      "name": "safeTransferFrom",
      "outputs": [],
      "stateMutability": "nonpayable",
      "type": "function"
    },
    {
      "inputs": [
        {
          "internalType": "address",
          "name": "operator",
          "type": "address"
        },
        {
          "internalType": "bool",
          "name": "approved",
          "type": "bool"
        }
      ],
      "name": "setApprovalForAll",
      "outputs": [],
      "stateMutability": "nonpayable",
      "type": "function"
    },
    {
      "inputs": [
        {
          "internalType": "string",
          "name": "_beneficiaryString",
          "type": "string"
        }
      ],
      "name": "setBeneficiaryString",
      "outputs": [],
      "stateMutability": "nonpayable",
      "type": "function"
    },
    {
      "inputs": [
        {
          "internalType": "address",
          "name": "_address",
          "type": "address"
        }
      ],
      "name": "setToucanContractRegistry",
      "outputs": [],
      "stateMutability": "nonpayable",
      "type": "function"
    },
    {
      "inputs": [
        {
          "internalType": "bytes4",
          "name": "interfaceId",
          "type": "bytes4"
        }
      ],
      "name": "supportsInterface",
      "outputs": [
        {
          "internalType": "bool",
          "name": "",
          "type": "bool"
        }
      ],
      "stateMutability": "view",
      "type": "function"
    },
    {
      "inputs": [
        {
          "internalType": "uint256",
          "name": "",
          "type": "uint256"
        }
      ],
      "name": "totalBurntSupply",
      "outputs": [
        {
          "internalType": "uint256",
          "name": "",
          "type": "uint256"
        }
      ],
      "stateMutability": "view",
      "type": "function"
    },
    {
      "inputs": [
        {
          "internalType": "uint256",
          "name": "id",
          "type": "uint256"
        }
      ],
      "name": "totalSupply",
      "outputs": [
        {
          "internalType": "uint256",
          "name": "",
          "type": "uint256"
        }
      ],
      "stateMutability": "view",
      "type": "function"
    },
    {
      "inputs": [],
      "name": "unpause",
      "outputs": [],
      "stateMutability": "nonpayable",
      "type": "function"
    },
    {
      "inputs": [
        {
          "internalType": "address",
          "name": "newImplementation",
          "type": "address"
        }
      ],
      "name": "upgradeTo",
      "outputs": [],
      "stateMutability": "nonpayable",
      "type": "function"
    },
    {
      "inputs": [
        {
          "internalType": "address",
          "name": "newImplementation",
          "type": "address"
        },
        {
          "internalType": "bytes",
          "name": "data",
          "type": "bytes"
        }
      ],
      "name": "upgradeToAndCall",
      "outputs": [],
      "stateMutability": "payable",
      "type": "function"
    },
    {
      "inputs": [
        {
          "internalType": "uint256",
          "name": "",
          "type": "uint256"
        }
      ],
      "name": "uri",
      "outputs": [
        {
          "internalType": "string",
          "name": "",
          "type": "string"
        }
      ],
      "stateMutability": "view",
      "type": "function"
    }
  ],
  "numDeployments": 1,
  "solcInputHash": "21ae5f70988e66da4bff33b9b6a2fdaf",
  "bytecode": "0x60a0604052306080523480156200001557600080fd5b506200002062000026565b620000e7565b600054610100900460ff1615620000935760405162461bcd60e51b815260206004820152602760248201527f496e697469616c697a61626c653a20636f6e747261637420697320696e697469604482015266616c697a696e6760c81b606482015260840160405180910390fd5b60005460ff90811614620000e5576000805460ff191660ff9081179091556040519081527f7f26b83ff96e1f2b6a682f133852f6798a09c465da95921460cefb38474024989060200160405180910390a15b565b60805161456c6200011f60003960008181610e6501528181610ea50152818161109f015281816110df0152611269015261456c6000f3fe6080604052600436106102245760003560e01c806366a9dfdd11610123578063abf410e5116100ab578063e882e37b1161006f578063e882e37b146106c1578063e985e9c5146106e1578063f242432a1461072a578063fc8009b71461074a578063ffa1ad741461078857600080fd5b8063abf410e5146105e7578063bd85b03914610620578063c07fd1121461064d578063d547741f1461066d578063e63ab1e91461068d57600080fd5b80638aaa5d51116100f25780638aaa5d511461054f57806391d1485414610564578063a1b2619414610584578063a217fddf146105b2578063a22cb465146105c757600080fd5b806366a9dfdd146104e55780636ca0b0d7146105055780638394cddd1461051a5780638456cb591461053a57600080fd5b806336568abe116101b15780634f4df442116101755780634f4df442146104485780634f558e791461046857806352d1902d146104975780635b73a0c3146104ac5780635c975abb146104cc57600080fd5b806336568abe146103b35780633659cfe6146103d35780633f4ba83a146103f35780634e1273f4146104085780634f1ef2861461043557600080fd5b80631fd77d27116101f85780631fd77d27146102f2578063248a9ca3146103205780632eb2c2d6146103515780632f2ff15d1461037357806331d93d3c1461039357600080fd5b8062fdd58e1461022957806301ffc9a71461025c5780630e89341c1461028c578063150b7a02146102b9575b600080fd5b34801561023557600080fd5b50610249610244366004613294565b6107b9565b6040519081526020015b60405180910390f35b34801561026857600080fd5b5061027c6102773660046132d6565b610851565b6040519015158152602001610253565b34801561029857600080fd5b506102ac6102a73660046132f3565b610862565b6040516102539190613364565b3480156102c557600080fd5b506102d96102d4366004613377565b6108f6565b6040516001600160e01b03199091168152602001610253565b3480156102fe57600080fd5b5061024961030d3660046132f3565b6101f96020526000908152604090205481565b34801561032c57600080fd5b5061024961033b3660046132f3565b60009081526101c3602052604090206001015490565b34801561035d57600080fd5b5061037161036c3660046135bc565b610d4d565b005b34801561037f57600080fd5b5061037161038e366004613669565b610d61565b34801561039f57600080fd5b506102496103ae3660046136b2565b610d8c565b3480156103bf57600080fd5b506103716103ce366004613669565b610ddd565b3480156103df57600080fd5b506103716103ee366004613701565b610e5b565b3480156103ff57600080fd5b50610371610f3a565b34801561041457600080fd5b5061042861042336600461371e565b610f6c565b604051610253919061381b565b61037161044336600461382e565b611095565b34801561045457600080fd5b50610371610463366004613873565b611161565b34801561047457600080fd5b5061027c6104833660046132f3565b600090815260c96020526040902054151590565b3480156104a357600080fd5b5061024961125c565b3480156104b857600080fd5b506104286104c7366004613294565b611310565b3480156104d857600080fd5b506101915460ff1661027c565b3480156104f157600080fd5b506102496105003660046138ae565b611386565b34801561051157600080fd5b50610249600181565b34801561052657600080fd5b5061037161053536600461392d565b61139f565b34801561054657600080fd5b50610371611523565b34801561055b57600080fd5b506102ac611555565b34801561057057600080fd5b5061027c61057f366004613669565b6115e4565b34801561059057600080fd5b5061024961059f3660046132f3565b6101f76020526000908152604090205481565b3480156105be57600080fd5b50610249600081565b3480156105d357600080fd5b506103716105e23660046139d3565b611610565b3480156105f357600080fd5b506101f554610608906001600160a01b031681565b6040516001600160a01b039091168152602001610253565b34801561062c57600080fd5b5061024961063b3660046132f3565b600090815260c9602052604090205490565b34801561065957600080fd5b50610371610668366004613a06565b61161b565b34801561067957600080fd5b50610371610688366004613669565b611676565b34801561069957600080fd5b506102497f65d7a28e3265b37a6474929f336521b332c1681b933f6cb9f3376673440d862a81565b3480156106cd57600080fd5b506103716106dc366004613701565b61169c565b3480156106ed57600080fd5b5061027c6106fc366004613a3a565b6001600160a01b03918216600090815260666020908152604080832093909416825291909152205460ff1690565b34801561073657600080fd5b50610371610745366004613a68565b6116f6565b34801561075657600080fd5b50610249610765366004613ad0565b609760209081526000938452604080852082529284528284209052825290205481565b34801561079457600080fd5b506102ac604051806040016040528060058152602001640312e302e360dc1b81525081565b60006001600160a01b0383166108295760405162461bcd60e51b815260206004820152602a60248201527f455243313135353a2061646472657373207a65726f206973206e6f742061207660448201526930b634b21037bbb732b960b11b60648201526084015b60405180910390fd5b5060009081526065602090815260408083206001600160a01b03949094168352929052205490565b600061085c82611703565b92915050565b60606067805461087190613b11565b80601f016020809104026020016040519081016040528092919081815260200182805461089d90613b11565b80156108ea5780601f106108bf576101008083540402835291602001916108ea565b820191906000526020600020905b8154815290600101906020018083116108cd57829003601f168201915b50505050509050919050565b6000806101f560009054906101000a90046001600160a01b03166001600160a01b031663376b5dce6040518163ffffffff1660e01b8152600401602060405180830381865afa15801561094d573d6000803e3d6000fd5b505050506040513d601f19601f820116820180604052508101906109719190613b50565b9050336001600160a01b038216146109f15760405162461bcd60e51b815260206004820152603860248201527f4f6e6c79205265746972656d656e744365727469666963617465732063616e2060448201527f62652073656e7420746f207468697320636f6e747261637400000000000000006064820152608401610820565b60405163331d9f1160e11b81526004810186905281906000906001600160a01b0383169063663b3e2290602401600060405180830381865afa158015610a3b573d6000803e3d6000fd5b505050506040513d6000823e601f3d908101601f19168201604052610a639190810190613c22565b60608101519091506001600160a01b03163014610adf5760405162461bcd60e51b815260206004820152603460248201527f42656e6566696369617279206f6620746865206365727469666963617465206d6044820152731d5cdd081899481d1a1a5cc818dbdb9d1c9858dd60621b6064820152608401610820565b610b7a6101f68054610af090613b11565b80601f0160208091040260200160405190810160405280929190818152602001828054610b1c90613b11565b8015610b695780601f10610b3e57610100808354040283529160200191610b69565b820191906000526020600020905b815481529060010190602001808311610b4c57829003601f168201915b50505060a085015192915050611728565b6101f6604051602001610b8d9190613d8b565b60405160208183030381529060405290610bba5760405162461bcd60e51b81526004016108209190613364565b50805160005b8151811015610d36576000846001600160a01b03166361e4678b848481518110610bec57610bec613e55565b60200260200101516040518263ffffffff1660e01b8152600401610c1291815260200190565b600060405180830381865afa158015610c2f573d6000803e3d6000fd5b505050506040513d6000823e601f3d908101601f19168201604052610c579190810190613e6b565b9050610c7c8b8260600151836040015160405180602001604052806000815250611745565b6001600160a01b038b1660009081526101f8602090815260408083206060850151845290915290208351849084908110610cb857610cb8613e55565b60209081029190910181015182546001810184556000938452918320909101556040820151845190916101f991869086908110610cf757610cf7613e55565b602002602001015181526020019081526020016000206000828254610d1c9190613f24565b90915550829150610d2e905081613f3c565b915050610bc0565b50630a85bd0160e11b9a9950505050505050505050565b610d5a8585858585611861565b5050505050565b60008281526101c36020526040902060010154610d7d816118f1565b610d8783836118fb565b505050565b6000610d96611982565b6001600160a01b0383163314801590610db65750610db483336106fc565b155b15610dcc57610dcc8333602085013585356119cb565b610dd68383611a9f565b9392505050565b6001600160a01b0381163314610e4d5760405162461bcd60e51b815260206004820152602f60248201527f416363657373436f6e74726f6c3a2063616e206f6e6c792072656e6f756e636560448201526e103937b632b9903337b91039b2b63360891b6064820152608401610820565b610e578282611e06565b5050565b6001600160a01b037f0000000000000000000000000000000000000000000000000000000000000000163003610ea35760405162461bcd60e51b815260040161082090613f55565b7f00000000000000000000000000000000000000000000000000000000000000006001600160a01b0316610eec6000805160206144f0833981519152546001600160a01b031690565b6001600160a01b031614610f125760405162461bcd60e51b815260040161082090613fa1565b610f1b81611e6e565b60408051600080825260208201909252610f3791839190611e79565b50565b7f65d7a28e3265b37a6474929f336521b332c1681b933f6cb9f3376673440d862a610f64816118f1565b610f37611fe4565b60608151835114610fd15760405162461bcd60e51b815260206004820152602960248201527f455243313135353a206163636f756e747320616e6420696473206c656e677468604482015268040dad2e6dac2e8c6d60bb1b6064820152608401610820565b600083516001600160401b03811115610fec57610fec613415565b604051908082528060200260200182016040528015611015578160200160208202803683370190505b50905060005b845181101561108d5761106085828151811061103957611039613e55565b602002602001015185838151811061105357611053613e55565b60200260200101516107b9565b82828151811061107257611072613e55565b602090810291909101015261108681613f3c565b905061101b565b509392505050565b6001600160a01b037f00000000000000000000000000000000000000000000000000000000000000001630036110dd5760405162461bcd60e51b815260040161082090613f55565b7f00000000000000000000000000000000000000000000000000000000000000006001600160a01b03166111266000805160206144f0833981519152546001600160a01b031690565b6001600160a01b03161461114c5760405162461bcd60e51b815260040161082090613fa1565b61115582611e6e565b610e5782826001611e79565b3360009081526097602090815260408083206001600160a01b0388168452825280832086845290915290205482146111ec5760405162461bcd60e51b815260206004820152602860248201527f45524331313535416c6c6f7761626c653a20696e76616c69642063757272656e6044820152671d08185b5bdd5b9d60c21b6064820152608401610820565b3360008181526097602090815260408083206001600160a01b03891680855290835281842088855283529281902085905580518681529182018590528693917f3a9c85c6b31f7a9d7fe1478f53e1be42e85db97ca30d1789cfef9196dbc472c9910160405180910390a450505050565b6000306001600160a01b037f000000000000000000000000000000000000000000000000000000000000000016146112fc5760405162461bcd60e51b815260206004820152603860248201527f555550535570677261646561626c653a206d757374206e6f742062652063616c60448201527f6c6564207468726f7567682064656c656761746563616c6c00000000000000006064820152608401610820565b506000805160206144f08339815191525b90565b6001600160a01b03821660009081526101f86020908152604080832084845282529182902080548351818402810184019094528084526060939283018282801561137957602002820191906000526020600020905b815481526020019060010190808311611365575b5050505050905092915050565b6000611390611982565b61085c3383611a9f565b919050565b600054610100900460ff16158080156113bf5750600054600160ff909116105b806113d95750303b1580156113d9575060005460ff166001145b61143c5760405162461bcd60e51b815260206004820152602e60248201527f496e697469616c697a61626c653a20636f6e747261637420697320616c72656160448201526d191e481a5b9a5d1a585b1a5e995960921b6064820152608401610820565b6000805460ff19166001179055801561145f576000805461ff0019166101001790555b611467612037565b61147f6040518060200160405280600081525061205e565b61148761208e565b61148f612037565b6114976120bd565b6114a3858585856120f1565b6101f580546001600160a01b0319166001600160a01b03891617905585516114d3906101f69060208901906131e6565b50801561151a576000805461ff0019169055604051600181527f7f26b83ff96e1f2b6a682f133852f6798a09c465da95921460cefb38474024989060200160405180910390a15b50505050505050565b7f65d7a28e3265b37a6474929f336521b332c1681b933f6cb9f3376673440d862a61154d816118f1565b610f3761220c565b6101f6805461156390613b11565b80601f016020809104026020016040519081016040528092919081815260200182805461158f90613b11565b80156115dc5780601f106115b1576101008083540402835291602001916115dc565b820191906000526020600020905b8154815290600101906020018083116115bf57829003601f168201915b505050505081565b60009182526101c3602090815260408084206001600160a01b0393909316845291905290205460ff1690565b610e5733838361224a565b6000611626816118f1565b815161163a906101f69060208501906131e6565b507fef70e6c3c076191b2b8f07403a5a550e8dff6c86d7765d1806b0f649f61229be8260405161166a9190613364565b60405180910390a15050565b60008281526101c36020526040902060010154611692816118f1565b610d878383611e06565b60006116a7816118f1565b6101f580546001600160a01b0319166001600160a01b0384169081179091556040519081527f86907b53cf2024579968511876daf0b4620d65803b550e33101baf70aeb6f5eb9060200161166a565b610d5a858585858561232a565b60006001600160e01b03198216637965db0b60e01b148061085c575061085c82612368565b6000610dd683838051602091820120825192909101919091201490565b6001600160a01b0384166117a55760405162461bcd60e51b815260206004820152602160248201527f455243313135353a206d696e7420746f20746865207a65726f206164647265736044820152607360f81b6064820152608401610820565b3360006117b1856123b8565b905060006117be856123b8565b90506117cf83600089858589612403565b60008681526065602090815260408083206001600160a01b038b16845290915281208054879290611801908490613f24565b909155505060408051878152602081018790526001600160a01b03808a1692600092918716917fc3d58168c5ae7397731d063d5bbf3d657854427343f4c083240f7aacaa2d0f62910160405180910390a461151a8360008989898961250e565b336001600160a01b03861614801590611881575061187f85336106fc565b155b156118e457825160005b818110156118e1576118d187338784815181106118aa576118aa613e55565b60200260200101518785815181106118c4576118c4613e55565b60200260200101516119cb565b6118da81613f3c565b905061188b565b50505b610d5a8585858585612669565b610f37813361284f565b61190582826115e4565b610e575760008281526101c3602090815260408083206001600160a01b03851684529091529020805460ff1916600117905561193e3390565b6001600160a01b0316816001600160a01b0316837f2f8788117e7eff1d82e926ec794901d17c78024a50270940304540a733656f0d60405160405180910390a45050565b6101915460ff16156119c95760405162461bcd60e51b815260206004820152601060248201526f14185d5cd8589b194e881c185d5cd95960821b6044820152606401610820565b565b6001600160a01b03808516600090815260976020908152604080832093871683529281528282208583529052205481811015611a665760405162461bcd60e51b815260206004820152603460248201527f45524331313535416c6c6f7761626c653a2063616c6c657220686173206e6f2060448201527373756666696369656e7420616c6c6f77616e636560601b6064820152608401610820565b6001600160a01b039485166000908152609760209081526040808320969097168252948552858120938152929093529290209190039055565b60008135611aef5760405162461bcd60e51b815260206004820152601d60248201527f416d6f756e74206d7573742062652067726561746572207468616e20300000006044820152606401610820565b611aff83602084013584356128a8565b6000604051806101a001604052808460000135815260200184602001358152602001428152602001856001600160a01b03168152602001846040016020810190611b499190613701565b6001600160a01b03168152602001611b646060860186613fed565b8080601f016020809104026020016040519081016040528093929190818152602001838380828437600092019190915250505090825250602001611bab6080860186613fed565b8080601f016020809104026020016040519081016040528093929190818152602001838380828437600092019190915250505090825250602001611bf260a0860186613fed565b8080601f016020809104026020016040519081016040528093929190818152602001838380828437600092019190915250505090825250602001611c3960c0860186613fed565b8080601f01602080910402602001604051908101604052809392919081815260200183838082843760009201919091525050509082525060e085013560208201526101008501356040820152606001611c96610120860186613fed565b8080601f016020809104026020016040519081016040528093929190818152602001838380828437600092019190915250505090825250602001611cde610140860186613fed565b8080601f01602080910402602001604051908101604052809392919081815260200183838082843760009201829052509390945250506101f55460408051632b1d599760e01b8152905194955091936001600160a01b039091169250632b1d5997916004808201926020929091908290030181865afa158015611d65573d6000803e3d6000fd5b505050506040513d601f19601f82011682018060405250810190611d899190613b50565b60405163022433fb60e11b81529091506001600160a01b0382169063044867f690611dba9033908690600401614033565b6020604051808303816000875af1158015611dd9573d6000803e3d6000fd5b505050506040513d601f19601f82011682018060405250810190611dfd9190614164565b95945050505050565b611e1082826115e4565b15610e575760008281526101c3602090815260408083206001600160a01b0385168085529252808320805460ff1916905551339285917ff6391f5c32d9c69d2a47ea670b442974b53935d1edc7fd64eb21e047a839171b9190a45050565b6000610e57816118f1565b7f4910fdfa16fed3260ed0e7147f7cc6da11a60208b5b9406d12a635614ffd91435460ff1615611eac57610d8783612a3c565b826001600160a01b03166352d1902d6040518163ffffffff1660e01b8152600401602060405180830381865afa925050508015611f06575060408051601f3d908101601f19168201909252611f0391810190614164565b60015b611f695760405162461bcd60e51b815260206004820152602e60248201527f45524331393637557067726164653a206e657720696d706c656d656e7461746960448201526d6f6e206973206e6f74205555505360901b6064820152608401610820565b6000805160206144f08339815191528114611fd85760405162461bcd60e51b815260206004820152602960248201527f45524331393637557067726164653a20756e737570706f727465642070726f786044820152681a58589b195555525160ba1b6064820152608401610820565b50610d87838383612ad8565b611fec612b03565b610191805460ff191690557f5db9ee0a495bf2e6ff9c91a7834c1ba4fdd244a5e8aa4e537bd38aeae4b073aa335b6040516001600160a01b03909116815260200160405180910390a1565b600054610100900460ff166119c95760405162461bcd60e51b81526004016108209061417d565b600054610100900460ff166120855760405162461bcd60e51b81526004016108209061417d565b610f3781612b4d565b600054610100900460ff166120b55760405162461bcd60e51b81526004016108209061417d565b600161015f55565b600054610100900460ff166120e45760405162461bcd60e51b81526004016108209061417d565b610191805460ff19169055565b8281146121385760405162461bcd60e51b8152602060048201526015602482015274082e4e4c2f240d8cadccee8d040dad2e6dac2e8c6d605b1b6044820152606401610820565b612140612037565b6000805b848110156121c95761219484848381811061216157612161613e55565b9050602002013587878481811061217a5761217a613e55565b905060200201602081019061218f9190613701565b6118fb565b60008484838181106121a8576121a8613e55565b90506020020135036121b957600191505b6121c281613f3c565b9050612144565b5080610d5a5760405162461bcd60e51b8152602060048201526012602482015271139bc818591b5a5b881cdc1958da599a595960721b6044820152606401610820565b612214611982565b610191805460ff191660011790557f62e78cea01bee320cd4e420270b5ea74000d11b0c9f74754ebdbfc544b05a25861201a3390565b816001600160a01b0316836001600160a01b0316036122bd5760405162461bcd60e51b815260206004820152602960248201527f455243313135353a2073657474696e6720617070726f76616c20737461747573604482015268103337b91039b2b63360b91b6064820152608401610820565b6001600160a01b03838116600081815260666020908152604080832094871680845294825291829020805460ff191686151590811790915591519182527f17307eab39ab6107e8899845ad3d59bd9653f200f220920489ca2b5937696c31910160405180910390a3505050565b6001600160a01b038516331480159061234a575061234885336106fc565b155b1561235b5761235b853385856119cb565b610d5a8585858585612b60565b60006001600160e01b03198216636cdb3d1360e11b148061239957506001600160e01b031982166303a24d0760e21b145b8061085c57506301ffc9a760e01b6001600160e01b031983161461085c565b604080516001808252818301909252606091600091906020808301908036833701905050905082816000815181106123f2576123f2613e55565b602090810291909101015292915050565b612411868686868686612c9c565b6001600160a01b0384166124995760005b83518110156124975782818151811061243d5761243d613e55565b60200260200101516101f7600086848151811061245c5761245c613e55565b6020026020010151815260200190815260200160002060008282546124819190613f24565b90915550612490905081613f3c565b9050612422565b505b6001600160a01b038516158015906124b957506001600160a01b03841615155b156125065760405162461bcd60e51b815260206004820152601d60248201527f5472616e736665727320617265206e6f7420616c6c6f776564207965740000006044820152606401610820565b505050505050565b6001600160a01b0384163b156125065760405163f23a6e6160e01b81526001600160a01b0385169063f23a6e619061255290899089908890889088906004016141c8565b6020604051808303816000875af192505050801561258d575060408051601f3d908101601f1916820190925261258a9181019061420d565b60015b6126395761259961422a565b806308c379a0036125d257506125ad614245565b806125b857506125d4565b8060405162461bcd60e51b81526004016108209190613364565b505b60405162461bcd60e51b815260206004820152603460248201527f455243313135353a207472616e7366657220746f206e6f6e2d455243313135356044820152732932b1b2b4bb32b91034b6b83632b6b2b73a32b960611b6064820152608401610820565b6001600160e01b0319811663f23a6e6160e01b1461151a5760405162461bcd60e51b8152600401610820906142ce565b81518351146126cb5760405162461bcd60e51b815260206004820152602860248201527f455243313135353a2069647320616e6420616d6f756e7473206c656e677468206044820152670dad2e6dac2e8c6d60c31b6064820152608401610820565b6001600160a01b0384166126f15760405162461bcd60e51b815260040161082090614316565b33612700818787878787612403565b60005b84518110156127e957600085828151811061272057612720613e55565b60200260200101519050600085838151811061273e5761273e613e55565b60209081029190910181015160008481526065835260408082206001600160a01b038e16835290935291909120549091508181101561278f5760405162461bcd60e51b81526004016108209061435b565b60008381526065602090815260408083206001600160a01b038e8116855292528083208585039055908b168252812080548492906127ce908490613f24565b92505081905550505050806127e290613f3c565b9050612703565b50846001600160a01b0316866001600160a01b0316826001600160a01b03167f4a39dc06d4c0dbc64b70af90fd698a233a518aa5d07e595d983b8c0526c8f7fb87876040516128399291906143a5565b60405180910390a4612506818787878787612e15565b61285982826115e4565b610e575761286681612ed0565b612871836020612ee2565b6040516020016128829291906143ca565b60408051601f198184030181529082905262461bcd60e51b825261082091600401613364565b6001600160a01b03831661290a5760405162461bcd60e51b815260206004820152602360248201527f455243313135353a206275726e2066726f6d20746865207a65726f206164647260448201526265737360e81b6064820152608401610820565b336000612916846123b8565b90506000612923846123b8565b905061294383876000858560405180602001604052806000815250612403565b60008581526065602090815260408083206001600160a01b038a168452909152902054848110156129c25760405162461bcd60e51b8152602060048201526024808201527f455243313135353a206275726e20616d6f756e7420657863656564732062616c604482015263616e636560e01b6064820152608401610820565b60008681526065602090815260408083206001600160a01b038b81168086529184528285208a8703905582518b81529384018a90529092908816917fc3d58168c5ae7397731d063d5bbf3d657854427343f4c083240f7aacaa2d0f62910160405180910390a460408051602081019091526000905261151a565b6001600160a01b0381163b612aa95760405162461bcd60e51b815260206004820152602d60248201527f455243313936373a206e657720696d706c656d656e746174696f6e206973206e60448201526c1bdd08184818dbdb9d1c9858dd609a1b6064820152608401610820565b6000805160206144f083398151915280546001600160a01b0319166001600160a01b0392909216919091179055565b612ae18361307d565b600082511180612aee5750805b15610d8757612afd83836130bd565b50505050565b6101915460ff166119c95760405162461bcd60e51b815260206004820152601460248201527314185d5cd8589b194e881b9bdd081c185d5cd95960621b6044820152606401610820565b8051610e579060679060208401906131e6565b6001600160a01b038416612b865760405162461bcd60e51b815260040161082090614316565b336000612b92856123b8565b90506000612b9f856123b8565b9050612baf838989858589612403565b60008681526065602090815260408083206001600160a01b038c16845290915290205485811015612bf25760405162461bcd60e51b81526004016108209061435b565b60008781526065602090815260408083206001600160a01b038d8116855292528083208985039055908a16825281208054889290612c31908490613f24565b909155505060408051888152602081018890526001600160a01b03808b16928c821692918816917fc3d58168c5ae7397731d063d5bbf3d657854427343f4c083240f7aacaa2d0f62910160405180910390a4612c91848a8a8a8a8a61250e565b505050505050505050565b6001600160a01b038516612d235760005b8351811015612d2157828181518110612cc857612cc8613e55565b602002602001015160c96000868481518110612ce657612ce6613e55565b602002602001015181526020019081526020016000206000828254612d0b9190613f24565b90915550612d1a905081613f3c565b9050612cad565b505b6001600160a01b0384166125065760005b835181101561151a576000848281518110612d5157612d51613e55565b602002602001015190506000848381518110612d6f57612d6f613e55565b60200260200101519050600060c9600084815260200190815260200160002054905081811015612df25760405162461bcd60e51b815260206004820152602860248201527f455243313135353a206275726e20616d6f756e74206578636565647320746f74604482015267616c537570706c7960c01b6064820152608401610820565b600092835260c9602052604090922091039055612e0e81613f3c565b9050612d34565b6001600160a01b0384163b156125065760405163bc197c8160e01b81526001600160a01b0385169063bc197c8190612e59908990899088908890889060040161443f565b6020604051808303816000875af1925050508015612e94575060408051601f3d908101601f19168201909252612e919181019061420d565b60015b612ea05761259961422a565b6001600160e01b0319811663bc197c8160e01b1461151a5760405162461bcd60e51b8152600401610820906142ce565b606061085c6001600160a01b03831660145b60606000612ef183600261449d565b612efc906002613f24565b6001600160401b03811115612f1357612f13613415565b6040519080825280601f01601f191660200182016040528015612f3d576020820181803683370190505b509050600360fc1b81600081518110612f5857612f58613e55565b60200101906001600160f81b031916908160001a905350600f60fb1b81600181518110612f8757612f87613e55565b60200101906001600160f81b031916908160001a9053506000612fab84600261449d565b612fb6906001613f24565b90505b600181111561302e576f181899199a1a9b1b9c1cb0b131b232b360811b85600f1660108110612fea57612fea613e55565b1a60f81b82828151811061300057613000613e55565b60200101906001600160f81b031916908160001a90535060049490941c93613027816144bc565b9050612fb9565b508315610dd65760405162461bcd60e51b815260206004820181905260248201527f537472696e67733a20686578206c656e67746820696e73756666696369656e746044820152606401610820565b61308681612a3c565b6040516001600160a01b038216907fbc7cd75a20ee27fd9adebab32041f755214dbc6bffa90cc0225b39da2e5c2d3b90600090a250565b6060610dd68383604051806060016040528060278152602001614510602791396060600080856001600160a01b0316856040516130fa91906144d3565b600060405180830381855af49150503d8060008114613135576040519150601f19603f3d011682016040523d82523d6000602084013e61313a565b606091505b509150915061314b86838387613155565b9695505050505050565b606083156131c45782516000036131bd576001600160a01b0385163b6131bd5760405162461bcd60e51b815260206004820152601d60248201527f416464726573733a2063616c6c20746f206e6f6e2d636f6e74726163740000006044820152606401610820565b50816131ce565b6131ce83836131d6565b949350505050565b8151156125b85781518083602001fd5b8280546131f290613b11565b90600052602060002090601f016020900481019282613214576000855561325a565b82601f1061322d57805160ff191683800117855561325a565b8280016001018555821561325a579182015b8281111561325a57825182559160200191906001019061323f565b5061326692915061326a565b5090565b5b80821115613266576000815560010161326b565b6001600160a01b0381168114610f3757600080fd5b600080604083850312156132a757600080fd5b82356132b28161327f565b946020939093013593505050565b6001600160e01b031981168114610f3757600080fd5b6000602082840312156132e857600080fd5b8135610dd6816132c0565b60006020828403121561330557600080fd5b5035919050565b60005b8381101561332757818101518382015260200161330f565b83811115612afd5750506000910152565b6000815180845261335081602086016020860161330c565b601f01601f19169290920160200192915050565b602081526000610dd66020830184613338565b60008060008060006080868803121561338f57600080fd5b853561339a8161327f565b945060208601356133aa8161327f565b93506040860135925060608601356001600160401b03808211156133cd57600080fd5b818801915088601f8301126133e157600080fd5b8135818111156133f057600080fd5b89602082850101111561340257600080fd5b9699959850939650602001949392505050565b634e487b7160e01b600052604160045260246000fd5b60a081018181106001600160401b038211171561344a5761344a613415565b60405250565b601f8201601f191681016001600160401b038111828210171561347557613475613415565b6040525050565b60405161016081016001600160401b038111828210171561349f5761349f613415565b60405290565b60006001600160401b038211156134be576134be613415565b5060051b60200190565b600082601f8301126134d957600080fd5b813560206134e6826134a5565b6040516134f38282613450565b83815260059390931b850182019282810191508684111561351357600080fd5b8286015b8481101561352e5780358352918301918301613517565b509695505050505050565b60006001600160401b0382111561355257613552613415565b50601f01601f191660200190565b600082601f83011261357157600080fd5b813561357c81613539565b6040516135898282613450565b82815285602084870101111561359e57600080fd5b82602086016020830137600092810160200192909252509392505050565b600080600080600060a086880312156135d457600080fd5b85356135df8161327f565b945060208601356135ef8161327f565b935060408601356001600160401b038082111561360b57600080fd5b61361789838a016134c8565b9450606088013591508082111561362d57600080fd5b61363989838a016134c8565b9350608088013591508082111561364f57600080fd5b5061365c88828901613560565b9150509295509295909350565b6000806040838503121561367c57600080fd5b82359150602083013561368e8161327f565b809150509250929050565b600061016082840312156136ac57600080fd5b50919050565b600080604083850312156136c557600080fd5b82356136d08161327f565b915060208301356001600160401b038111156136eb57600080fd5b6136f785828601613699565b9150509250929050565b60006020828403121561371357600080fd5b8135610dd68161327f565b6000806040838503121561373157600080fd5b82356001600160401b038082111561374857600080fd5b818501915085601f83011261375c57600080fd5b81356020613769826134a5565b6040516137768282613450565b83815260059390931b850182019282810191508984111561379657600080fd5b948201945b838610156137bd5785356137ae8161327f565b8252948201949082019061379b565b965050860135925050808211156137d357600080fd5b506136f7858286016134c8565b600081518084526020808501945080840160005b83811015613810578151875295820195908201906001016137f4565b509495945050505050565b602081526000610dd660208301846137e0565b6000806040838503121561384157600080fd5b823561384c8161327f565b915060208301356001600160401b0381111561386757600080fd5b6136f785828601613560565b6000806000806080858703121561388957600080fd5b84356138948161327f565b966020860135965060408601359560600135945092505050565b6000602082840312156138c057600080fd5b81356001600160401b038111156138d657600080fd5b6131ce84828501613699565b60008083601f8401126138f457600080fd5b5081356001600160401b0381111561390b57600080fd5b6020830191508360208260051b850101111561392657600080fd5b9250929050565b6000806000806000806080878903121561394657600080fd5b86356139518161327f565b955060208701356001600160401b038082111561396d57600080fd5b6139798a838b01613560565b9650604089013591508082111561398f57600080fd5b61399b8a838b016138e2565b909650945060608901359150808211156139b457600080fd5b506139c189828a016138e2565b979a9699509497509295939492505050565b600080604083850312156139e657600080fd5b82356139f18161327f565b91506020830135801515811461368e57600080fd5b600060208284031215613a1857600080fd5b81356001600160401b03811115613a2e57600080fd5b6131ce84828501613560565b60008060408385031215613a4d57600080fd5b8235613a588161327f565b9150602083013561368e8161327f565b600080600080600060a08688031215613a8057600080fd5b8535613a8b8161327f565b94506020860135613a9b8161327f565b9350604086013592506060860135915060808601356001600160401b03811115613ac457600080fd5b61365c88828901613560565b600080600060608486031215613ae557600080fd5b8335613af08161327f565b92506020840135613b008161327f565b929592945050506040919091013590565b600181811c90821680613b2557607f821691505b6020821081036136ac57634e487b7160e01b600052602260045260246000fd5b805161139a8161327f565b600060208284031215613b6257600080fd5b8151610dd68161327f565b600082601f830112613b7e57600080fd5b81516020613b8b826134a5565b604051613b988282613450565b83815260059390931b8501820192828101915086841115613bb857600080fd5b8286015b8481101561352e5780518352918301918301613bbc565b600082601f830112613be457600080fd5b8151613bef81613539565b604051613bfc8282613450565b828152856020848701011115613c1157600080fd5b611dfd83602083016020880161330c565b600060208284031215613c3457600080fd5b81516001600160401b0380821115613c4b57600080fd5b908301906101608286031215613c6057600080fd5b613c6861347c565b825182811115613c7757600080fd5b613c8387828601613b6d565b82525060208301516020820152613c9c60408401613b45565b6040820152613cad60608401613b45565b6060820152608083015182811115613cc457600080fd5b613cd087828601613bd3565b60808301525060a083015182811115613ce857600080fd5b613cf487828601613bd3565b60a08301525060c083015182811115613d0c57600080fd5b613d1887828601613bd3565b60c08301525060e083015182811115613d3057600080fd5b613d3c87828601613bd3565b60e0830152506101008084015183811115613d5657600080fd5b613d6288828701613bd3565b918301919091525061012083810151908201526101409283015192810192909252509392505050565b7f42656e656669636961727920737472696e67206d75737420626520000000000081526000601b6000845481600182811c915080831680613dcd57607f831692505b60208084108203613dec57634e487b7160e01b86526022600452602486fd5b818015613e005760018114613e1557613e46565b60ff1986168a890152848a0188019650613e46565b60008b81526020902060005b86811015613e3c5781548c82018b0152908501908301613e21565b505087858b010196505b50949998505050505050505050565b634e487b7160e01b600052603260045260246000fd5b600060208284031215613e7d57600080fd5b81516001600160401b0380821115613e9457600080fd5b9083019060a08286031215613ea857600080fd5b604051613eb48161342b565b825181526020830151613ec68161327f565b806020830152506040830151604082015260608301516060820152608083015182811115613ef357600080fd5b613eff87828601613bd3565b60808301525095945050505050565b634e487b7160e01b600052601160045260246000fd5b60008219821115613f3757613f37613f0e565b500190565b600060018201613f4e57613f4e613f0e565b5060010190565b6020808252602c908201527f46756e6374696f6e206d7573742062652063616c6c6564207468726f7567682060408201526b19195b1959d85d1958d85b1b60a21b606082015260800190565b6020808252602c908201527f46756e6374696f6e206d7573742062652063616c6c6564207468726f7567682060408201526b6163746976652070726f787960a01b606082015260800190565b6000808335601e1984360301811261400457600080fd5b8301803591506001600160401b0382111561401e57600080fd5b60200191503681900382131561392657600080fd5b60018060a01b0383168152604060208201528151604082015260208201516060820152604082015160808201526000606083015161407c60a08401826001600160a01b03169052565b5060808301516001600160a01b031660c083015260a08301516101a060e084018190526140ad6101e0850183613338565b915060c0850151603f196101008187860301818801526140cd8584613338565b945060e088015192506101208288870301818901526140ec8685613338565b9550818901519350610140915082888703018289015261410c8685613338565b908901516101608981019190915291890151610180808a0191909152918901518882038401868a015290955092506141448584613338565b94508088015193505080868503016101c0870152505061314b8282613338565b60006020828403121561417657600080fd5b5051919050565b6020808252602b908201527f496e697469616c697a61626c653a20636f6e7472616374206973206e6f74206960408201526a6e697469616c697a696e6760a81b606082015260800190565b6001600160a01b03868116825285166020820152604081018490526060810183905260a06080820181905260009061420290830184613338565b979650505050505050565b60006020828403121561421f57600080fd5b8151610dd6816132c0565b600060033d111561130d5760046000803e5060005160e01c90565b600060443d10156142535790565b6040516003193d81016004833e81513d6001600160401b03816024840111818411171561428257505050505090565b828501915081518181111561429a5750505050505090565b843d87010160208285010111156142b45750505050505090565b6142c360208286010187613450565b509095945050505050565b60208082526028908201527f455243313135353a204552433131353552656365697665722072656a656374656040820152676420746f6b656e7360c01b606082015260800190565b60208082526025908201527f455243313135353a207472616e7366657220746f20746865207a65726f206164604082015264647265737360d81b606082015260800190565b6020808252602a908201527f455243313135353a20696e73756666696369656e742062616c616e636520666f60408201526939103a3930b739b332b960b11b606082015260800190565b6040815260006143b860408301856137e0565b8281036020840152611dfd81856137e0565b7f416363657373436f6e74726f6c3a206163636f756e742000000000000000000081526000835161440281601785016020880161330c565b7001034b99036b4b9b9b4b733903937b6329607d1b601791840191820152835161443381602884016020880161330c565b01602801949350505050565b6001600160a01b0386811682528516602082015260a06040820181905260009061446b908301866137e0565b828103606084015261447d81866137e0565b905082810360808401526144918185613338565b98975050505050505050565b60008160001904831182151516156144b7576144b7613f0e565b500290565b6000816144cb576144cb613f0e565b506000190190565b600082516144e581846020870161330c565b919091019291505056fe360894a13ba1a3210667c828492db98dca3e2076cc3735a920a3ca505d382bbc416464726573733a206c6f772d6c6576656c2064656c65676174652063616c6c206661696c6564a26469706673582212203c1b460315d8246ed6aa29663be1185ebf67d592af71013d243f3cb9889052a264736f6c634300080e0033",
  "devdoc": {
    "kind": "dev",
    "methods": {
      "approve(address,uint256,uint256,uint256)": {
        "params": {
          "amount": "The new spending limit",
          "currentAmount": "The current spending limit",
          "id": "ID of the Token",
          "spender": "The address allowed to spend"
        }
      },
      "balanceOf(address,uint256)": {
        "details": "See {IERC1155-balanceOf}. Requirements: - `account` cannot be the zero address."
      },
      "balanceOfBatch(address[],uint256[])": {
        "details": "See {IERC1155-balanceOfBatch}. Requirements: - `accounts` and `ids` must have the same length."
      },
      "constructor": {
        "custom:oz-upgrades-unsafe-allow": "constructor"
      },
      "exists(uint256)": {
        "details": "Indicates whether any token exist with a given id, or not."
      },
      "getRetirementEventIds(address,uint256)": {
        "params": {
          "owner": "The owner of the retirement event ids; this is the original depositor of the parent retirement certificate in the fractionalizer.",
          "vintageId": "The project vintage of the retirement events"
        },
        "returns": {
          "_0": "An array of retirement event ids"
        }
      },
      "getRoleAdmin(bytes32)": {
        "details": "Returns the admin role that controls `role`. See {grantRole} and {revokeRole}. To change a role's admin, use {_setRoleAdmin}."
      },
      "grantRole(bytes32,address)": {
        "details": "Grants `role` to `account`. If `account` had not been already granted `role`, emits a {RoleGranted} event. Requirements: - the caller must have ``role``'s admin role. May emit a {RoleGranted} event."
      },
      "hasRole(bytes32,address)": {
        "details": "Returns `true` if `account` has been granted `role`."
      },
      "isApprovedForAll(address,address)": {
        "details": "See {IERC1155-isApprovedForAll}."
      },
      "mintFraction((uint256,uint256,address,string,string,string,string,uint256,uint256,string,bytes))": {
        "params": {
          "params": "The request data of the fraction to mint"
        },
        "returns": {
          "fractionTokenId": "The id of the minted fraction NFT, in the fractions contract"
        }
      },
      "mintFractionFrom(address,(uint256,uint256,address,string,string,string,string,uint256,uint256,string,bytes))": {
        "params": {
          "from": "The owner of the balance to mint the fraction from",
          "params": "The request data of the fraction to mint"
        },
        "returns": {
          "fractionTokenId": "The id of the minted fraction NFT, in the fractions contract"
        }
      },
      "onERC721Received(address,address,uint256,bytes)": {
        "details": "by depositing a retirement certificate into this contract, the sender gets the right to mint fractions based on the amount of the certificate"
      },
      "pause()": {
        "details": "wraps _pause(), callable only by pausers"
      },
      "paused()": {
        "details": "Returns true if the contract is paused, and false otherwise."
      },
      "proxiableUUID()": {
        "details": "Implementation of the ERC1822 {proxiableUUID} function. This returns the storage slot used by the implementation. It is used to validate the implementation's compatibility when performing an upgrade. IMPORTANT: A proxy pointing at a proxiable contract should not be considered proxiable itself, because this risks bricking a proxy that upgrades to it, by delegating to itself until out of gas. Thus it is critical that this function revert if invoked through a proxy. This is guaranteed by the `notDelegated` modifier."
      },
      "renounceRole(bytes32,address)": {
        "details": "Revokes `role` from the calling account. Roles are often managed via {grantRole} and {revokeRole}: this function's purpose is to provide a mechanism for accounts to lose their privileges if they are compromised (such as when a trusted device is misplaced). If the calling account had been revoked `role`, emits a {RoleRevoked} event. Requirements: - the caller must be `account`. May emit a {RoleRevoked} event."
      },
      "revokeRole(bytes32,address)": {
        "details": "Revokes `role` from `account`. If `account` had been granted `role`, emits a {RoleRevoked} event. Requirements: - the caller must have ``role``'s admin role. May emit a {RoleRevoked} event."
      },
      "setApprovalForAll(address,bool)": {
        "details": "See {IERC1155-setApprovalForAll}."
      },
      "setBeneficiaryString(string)": {
        "details": "Callable only by admins",
        "params": {
          "_beneficiaryString": "The only accepted beneficiary string for certificates sent to this contract"
        }
      },
      "totalSupply(uint256)": {
        "details": "Total amount of tokens in with a given id."
      },
      "unpause()": {
        "details": "wraps _unpause(), callable only by pausers"
      },
      "upgradeTo(address)": {
        "custom:oz-upgrades-unsafe-allow-reachable": "delegatecall",
        "details": "Upgrade the implementation of the proxy to `newImplementation`. Calls {_authorizeUpgrade}. Emits an {Upgraded} event."
      },
      "upgradeToAndCall(address,bytes)": {
        "custom:oz-upgrades-unsafe-allow-reachable": "delegatecall",
        "details": "Upgrade the implementation of the proxy to `newImplementation`, and subsequently execute the function call encoded in `data`. Calls {_authorizeUpgrade}. Emits an {Upgraded} event."
      },
      "uri(uint256)": {
        "details": "See {IERC1155MetadataURI-uri}. This implementation returns the same URI for *all* token types. It relies on the token type ID substitution mechanism https://eips.ethereum.org/EIPS/eip-1155#metadata[defined in the EIP]. Clients calling this function must replace the `\\{id\\}` substring with the actual token type ID."
      }
    },
    "stateVariables": {
      "PAUSER_ROLE": {
        "details": "All roles related to accessing this contract"
      },
      "VERSION": {
        "details": "Version-related parameters. VERSION keeps track of production releases. VERSION_RELEASE_CANDIDATE keeps track of iterations of a VERSION in our staging environment."
      }
    },
    "version": 1
  },
  "userdoc": {
    "kind": "user",
    "methods": {
      "approve(address,uint256,uint256,uint256)": {
        "notice": "Approve an address to spend a specific amount of a Token"
      },
      "getRetirementEventIds(address,uint256)": {
        "notice": "Get the FIFO queue of retirement event ids for a given owner and vintage"
      },
      "mintFraction((uint256,uint256,address,string,string,string,string,uint256,uint256,string,bytes))": {
        "notice": "Mint a fraction of a retirement certificate, from the balance of the caller"
      },
      "mintFractionFrom(address,(uint256,uint256,address,string,string,string,string,uint256,uint256,string,bytes))": {
        "notice": "Mint a fraction of a retirement certificate, from the balance of the listing owner"
      },
      "pause()": {
        "notice": "Emergency function to disable contract's core functionality"
      },
      "setBeneficiaryString(string)": {
        "notice": "Set the beneficiary string that every certificate sent to this contract must have"
      },
      "unpause()": {
        "notice": "Emergency function to re-enable contract's core functionality after being paused"
      }
    },
    "notice": "The `RetirementCertificateFractionalizer` contract lets users mint fractions of retirement certificates. Users must first deposit a retirement certificate into this contract to mint fractions.",
    "version": 1
  },
  "storageLayout": {
    "storage": [
      {
        "astId": 2373,
        "contract": "contracts/retirements/RetirementCertificateFractionalizer.sol:RetirementCertificateFractionalizer",
        "label": "_initialized",
        "offset": 0,
        "slot": "0",
        "type": "t_uint8"
      },
      {
        "astId": 2376,
        "contract": "contracts/retirements/RetirementCertificateFractionalizer.sol:RetirementCertificateFractionalizer",
        "label": "_initializing",
        "offset": 1,
        "slot": "0",
        "type": "t_bool"
      },
      {
        "astId": 7515,
        "contract": "contracts/retirements/RetirementCertificateFractionalizer.sol:RetirementCertificateFractionalizer",
        "label": "__gap",
        "offset": 0,
        "slot": "1",
        "type": "t_array(t_uint256)50_storage"
      },
      {
        "astId": 7899,
        "contract": "contracts/retirements/RetirementCertificateFractionalizer.sol:RetirementCertificateFractionalizer",
        "label": "__gap",
        "offset": 0,
        "slot": "51",
        "type": "t_array(t_uint256)50_storage"
      },
      {
        "astId": 2915,
        "contract": "contracts/retirements/RetirementCertificateFractionalizer.sol:RetirementCertificateFractionalizer",
        "label": "_balances",
        "offset": 0,
        "slot": "101",
        "type": "t_mapping(t_uint256,t_mapping(t_address,t_uint256))"
      },
      {
        "astId": 2921,
        "contract": "contracts/retirements/RetirementCertificateFractionalizer.sol:RetirementCertificateFractionalizer",
        "label": "_operatorApprovals",
        "offset": 0,
        "slot": "102",
        "type": "t_mapping(t_address,t_mapping(t_address,t_bool))"
      },
      {
        "astId": 2923,
        "contract": "contracts/retirements/RetirementCertificateFractionalizer.sol:RetirementCertificateFractionalizer",
        "label": "_uri",
        "offset": 0,
        "slot": "103",
        "type": "t_string_storage"
      },
      {
        "astId": 4130,
        "contract": "contracts/retirements/RetirementCertificateFractionalizer.sol:RetirementCertificateFractionalizer",
        "label": "__gap",
        "offset": 0,
        "slot": "104",
        "type": "t_array(t_uint256)47_storage"
      },
      {
        "astId": 38923,
        "contract": "contracts/retirements/RetirementCertificateFractionalizer.sol:RetirementCertificateFractionalizer",
        "label": "allowances",
        "offset": 0,
        "slot": "151",
        "type": "t_mapping(t_address,t_mapping(t_address,t_mapping(t_uint256,t_uint256)))"
      },
      {
        "astId": 38928,
        "contract": "contracts/retirements/RetirementCertificateFractionalizer.sol:RetirementCertificateFractionalizer",
        "label": "__gap",
        "offset": 0,
        "slot": "152",
        "type": "t_array(t_uint256)49_storage"
      },
      {
        "astId": 4308,
        "contract": "contracts/retirements/RetirementCertificateFractionalizer.sol:RetirementCertificateFractionalizer",
        "label": "_totalSupply",
        "offset": 0,
        "slot": "201",
        "type": "t_mapping(t_uint256,t_uint256)"
      },
      {
        "astId": 4471,
        "contract": "contracts/retirements/RetirementCertificateFractionalizer.sol:RetirementCertificateFractionalizer",
        "label": "__gap",
        "offset": 0,
        "slot": "202",
        "type": "t_array(t_uint256)49_storage"
      },
      {
        "astId": 2355,
        "contract": "contracts/retirements/RetirementCertificateFractionalizer.sol:RetirementCertificateFractionalizer",
        "label": "__gap",
        "offset": 0,
        "slot": "251",
        "type": "t_array(t_uint256)50_storage"
      },
      {
        "astId": 2671,
        "contract": "contracts/retirements/RetirementCertificateFractionalizer.sol:RetirementCertificateFractionalizer",
        "label": "__gap",
        "offset": 0,
        "slot": "301",
        "type": "t_array(t_uint256)50_storage"
      },
      {
        "astId": 2815,
        "contract": "contracts/retirements/RetirementCertificateFractionalizer.sol:RetirementCertificateFractionalizer",
        "label": "_status",
        "offset": 0,
        "slot": "351",
        "type": "t_uint256"
      },
      {
        "astId": 2884,
        "contract": "contracts/retirements/RetirementCertificateFractionalizer.sol:RetirementCertificateFractionalizer",
        "label": "__gap",
        "offset": 0,
        "slot": "352",
        "type": "t_array(t_uint256)49_storage"
      },
      {
        "astId": 2694,
        "contract": "contracts/retirements/RetirementCertificateFractionalizer.sol:RetirementCertificateFractionalizer",
        "label": "_paused",
        "offset": 0,
        "slot": "401",
        "type": "t_bool"
      },
      {
        "astId": 2799,
        "contract": "contracts/retirements/RetirementCertificateFractionalizer.sol:RetirementCertificateFractionalizer",
        "label": "__gap",
        "offset": 0,
        "slot": "402",
        "type": "t_array(t_uint256)49_storage"
      },
      {
        "astId": 1486,
        "contract": "contracts/retirements/RetirementCertificateFractionalizer.sol:RetirementCertificateFractionalizer",
        "label": "_roles",
        "offset": 0,
        "slot": "451",
        "type": "t_mapping(t_bytes32,t_struct(RoleData)1481_storage)"
      },
      {
        "astId": 1793,
        "contract": "contracts/retirements/RetirementCertificateFractionalizer.sol:RetirementCertificateFractionalizer",
        "label": "__gap",
        "offset": 0,
        "slot": "452",
        "type": "t_array(t_uint256)49_storage"
      },
      {
        "astId": 35075,
        "contract": "contracts/retirements/RetirementCertificateFractionalizer.sol:RetirementCertificateFractionalizer",
        "label": "contractRegistry",
        "offset": 0,
        "slot": "501",
        "type": "t_address"
      },
      {
        "astId": 35077,
        "contract": "contracts/retirements/RetirementCertificateFractionalizer.sol:RetirementCertificateFractionalizer",
        "label": "beneficiaryString",
        "offset": 0,
        "slot": "502",
        "type": "t_string_storage"
      },
      {
        "astId": 35082,
        "contract": "contracts/retirements/RetirementCertificateFractionalizer.sol:RetirementCertificateFractionalizer",
        "label": "totalBurntSupply",
        "offset": 0,
        "slot": "503",
        "type": "t_mapping(t_uint256,t_uint256)"
      },
      {
        "astId": 35090,
        "contract": "contracts/retirements/RetirementCertificateFractionalizer.sol:RetirementCertificateFractionalizer",
        "label": "_retirementEventIds",
        "offset": 0,
        "slot": "504",
        "type": "t_mapping(t_address,t_mapping(t_uint256,t_array(t_uint256)dyn_storage))"
      },
      {
        "astId": 35094,
        "contract": "contracts/retirements/RetirementCertificateFractionalizer.sol:RetirementCertificateFractionalizer",
        "label": "remainingRetirementEventBalance",
        "offset": 0,
        "slot": "505",
        "type": "t_mapping(t_uint256,t_uint256)"
      }
    ],
    "types": {
      "t_address": {
        "encoding": "inplace",
        "label": "address",
        "numberOfBytes": "20"
      },
      "t_array(t_uint256)47_storage": {
        "base": "t_uint256",
        "encoding": "inplace",
        "label": "uint256[47]",
        "numberOfBytes": "1504"
      },
      "t_array(t_uint256)49_storage": {
        "base": "t_uint256",
        "encoding": "inplace",
        "label": "uint256[49]",
        "numberOfBytes": "1568"
      },
      "t_array(t_uint256)50_storage": {
        "base": "t_uint256",
        "encoding": "inplace",
        "label": "uint256[50]",
        "numberOfBytes": "1600"
      },
      "t_array(t_uint256)dyn_storage": {
        "base": "t_uint256",
        "encoding": "dynamic_array",
        "label": "uint256[]",
        "numberOfBytes": "32"
      },
      "t_bool": {
        "encoding": "inplace",
        "label": "bool",
        "numberOfBytes": "1"
      },
      "t_bytes32": {
        "encoding": "inplace",
        "label": "bytes32",
        "numberOfBytes": "32"
      },
      "t_mapping(t_address,t_bool)": {
        "encoding": "mapping",
        "key": "t_address",
        "label": "mapping(address => bool)",
        "numberOfBytes": "32",
        "value": "t_bool"
      },
      "t_mapping(t_address,t_mapping(t_address,t_bool))": {
        "encoding": "mapping",
        "key": "t_address",
        "label": "mapping(address => mapping(address => bool))",
        "numberOfBytes": "32",
        "value": "t_mapping(t_address,t_bool)"
      },
      "t_mapping(t_address,t_mapping(t_address,t_mapping(t_uint256,t_uint256)))": {
        "encoding": "mapping",
        "key": "t_address",
        "label": "mapping(address => mapping(address => mapping(uint256 => uint256)))",
        "numberOfBytes": "32",
        "value": "t_mapping(t_address,t_mapping(t_uint256,t_uint256))"
      },
      "t_mapping(t_address,t_mapping(t_uint256,t_array(t_uint256)dyn_storage))": {
        "encoding": "mapping",
        "key": "t_address",
        "label": "mapping(address => mapping(uint256 => uint256[]))",
        "numberOfBytes": "32",
        "value": "t_mapping(t_uint256,t_array(t_uint256)dyn_storage)"
      },
      "t_mapping(t_address,t_mapping(t_uint256,t_uint256))": {
        "encoding": "mapping",
        "key": "t_address",
        "label": "mapping(address => mapping(uint256 => uint256))",
        "numberOfBytes": "32",
        "value": "t_mapping(t_uint256,t_uint256)"
      },
      "t_mapping(t_address,t_uint256)": {
        "encoding": "mapping",
        "key": "t_address",
        "label": "mapping(address => uint256)",
        "numberOfBytes": "32",
        "value": "t_uint256"
      },
      "t_mapping(t_bytes32,t_struct(RoleData)1481_storage)": {
        "encoding": "mapping",
        "key": "t_bytes32",
        "label": "mapping(bytes32 => struct AccessControlUpgradeable.RoleData)",
        "numberOfBytes": "32",
        "value": "t_struct(RoleData)1481_storage"
      },
      "t_mapping(t_uint256,t_array(t_uint256)dyn_storage)": {
        "encoding": "mapping",
        "key": "t_uint256",
        "label": "mapping(uint256 => uint256[])",
        "numberOfBytes": "32",
        "value": "t_array(t_uint256)dyn_storage"
      },
      "t_mapping(t_uint256,t_mapping(t_address,t_uint256))": {
        "encoding": "mapping",
        "key": "t_uint256",
        "label": "mapping(uint256 => mapping(address => uint256))",
        "numberOfBytes": "32",
        "value": "t_mapping(t_address,t_uint256)"
      },
      "t_mapping(t_uint256,t_uint256)": {
        "encoding": "mapping",
        "key": "t_uint256",
        "label": "mapping(uint256 => uint256)",
        "numberOfBytes": "32",
        "value": "t_uint256"
      },
      "t_string_storage": {
        "encoding": "bytes",
        "label": "string",
        "numberOfBytes": "32"
      },
      "t_struct(RoleData)1481_storage": {
        "encoding": "inplace",
        "label": "struct AccessControlUpgradeable.RoleData",
        "members": [
          {
            "astId": 1478,
            "contract": "contracts/retirements/RetirementCertificateFractionalizer.sol:RetirementCertificateFractionalizer",
            "label": "members",
            "offset": 0,
            "slot": "0",
            "type": "t_mapping(t_address,t_bool)"
          },
          {
            "astId": 1480,
            "contract": "contracts/retirements/RetirementCertificateFractionalizer.sol:RetirementCertificateFractionalizer",
            "label": "adminRole",
            "offset": 0,
            "slot": "1",
            "type": "t_bytes32"
          }
        ],
        "numberOfBytes": "64"
      },
      "t_uint256": {
        "encoding": "inplace",
        "label": "uint256",
        "numberOfBytes": "32"
      },
      "t_uint8": {
        "encoding": "inplace",
        "label": "uint8",
        "numberOfBytes": "1"
      }
    }
  }
}