{
  "address": "0xe723e056e057cB360D3F6DeF5B88F196094AAa2a",
  "abi": [
    {
      "inputs": [],
      "stateMutability": "nonpayable",
      "type": "constructor"
    },
    {
      "anonymous": false,
      "inputs": [
        {
          "indexed": false,
          "internalType": "address",
          "name": "previousAdmin",
          "type": "address"
        },
        {
          "indexed": false,
          "internalType": "address",
          "name": "newAdmin",
          "type": "address"
        }
      ],
      "name": "AdminChanged",
      "type": "event"
    },
    {
      "anonymous": false,
      "inputs": [
        {
          "indexed": true,
          "internalType": "address",
          "name": "beacon",
          "type": "address"
        }
      ],
      "name": "BeaconUpgraded",
      "type": "event"
    },
    {
      "anonymous": false,
      "inputs": [
        {
          "indexed": false,
          "internalType": "address",
          "name": "contractRegistry",
          "type": "address"
        }
      ],
      "name": "ContractRegistryUpdated",
      "type": "event"
    },
    {
      "anonymous": false,
      "inputs": [
        {
          "indexed": false,
          "internalType": "uint8",
          "name": "version",
          "type": "uint8"
        }
      ],
      "name": "Initialized",
      "type": "event"
    },
    {
      "anonymous": false,
      "inputs": [
        {
          "indexed": true,
          "internalType": "address",
          "name": "previousOwner",
          "type": "address"
        },
        {
          "indexed": true,
          "internalType": "address",
          "name": "newOwner",
          "type": "address"
        }
      ],
      "name": "OwnershipTransferred",
      "type": "event"
    },
    {
      "anonymous": false,
      "inputs": [
        {
          "indexed": false,
          "internalType": "address",
          "name": "account",
          "type": "address"
        }
      ],
      "name": "Paused",
      "type": "event"
    },
    {
      "anonymous": false,
      "inputs": [
        {
          "indexed": true,
          "internalType": "bytes32",
          "name": "role",
          "type": "bytes32"
        },
        {
          "indexed": true,
          "internalType": "bytes32",
          "name": "previousAdminRole",
          "type": "bytes32"
        },
        {
          "indexed": true,
          "internalType": "bytes32",
          "name": "newAdminRole",
          "type": "bytes32"
        }
      ],
      "name": "RoleAdminChanged",
      "type": "event"
    },
    {
      "anonymous": false,
      "inputs": [
        {
          "indexed": true,
          "internalType": "bytes32",
          "name": "role",
          "type": "bytes32"
        },
        {
          "indexed": true,
          "internalType": "address",
          "name": "account",
          "type": "address"
        },
        {
          "indexed": true,
          "internalType": "address",
          "name": "sender",
          "type": "address"
        }
      ],
      "name": "RoleGranted",
      "type": "event"
    },
    {
      "anonymous": false,
      "inputs": [
        {
          "indexed": true,
          "internalType": "bytes32",
          "name": "role",
          "type": "bytes32"
        },
        {
          "indexed": true,
          "internalType": "address",
          "name": "account",
          "type": "address"
        },
        {
          "indexed": true,
          "internalType": "address",
          "name": "sender",
          "type": "address"
        }
      ],
      "name": "RoleRevoked",
      "type": "event"
    },
    {
      "anonymous": false,
      "inputs": [
        {
          "indexed": false,
          "internalType": "address",
          "name": "account",
          "type": "address"
        }
      ],
      "name": "Unpaused",
      "type": "event"
    },
    {
      "anonymous": false,
      "inputs": [
        {
          "indexed": true,
          "internalType": "address",
          "name": "implementation",
          "type": "address"
        }
      ],
      "name": "Upgraded",
      "type": "event"
    },
    {
      "inputs": [],
      "name": "DEFAULT_ADMIN_ROLE",
      "outputs": [
        {
          "internalType": "bytes32",
          "name": "",
          "type": "bytes32"
        }
      ],
      "stateMutability": "view",
      "type": "function"
    },
    {
      "inputs": [],
      "name": "PAUSER_ROLE",
      "outputs": [
        {
          "internalType": "bytes32",
          "name": "",
          "type": "bytes32"
        }
      ],
      "stateMutability": "view",
      "type": "function"
    },
    {
      "inputs": [],
      "name": "VERSION",
      "outputs": [
        {
          "internalType": "string",
          "name": "",
          "type": "string"
        }
      ],
      "stateMutability": "view",
      "type": "function"
    },
    {
      "inputs": [],
      "name": "VERSION_RELEASE_CANDIDATE",
      "outputs": [
        {
          "internalType": "uint256",
          "name": "",
          "type": "uint256"
        }
      ],
      "stateMutability": "view",
      "type": "function"
    },
    {
      "inputs": [],
      "name": "contractRegistry",
      "outputs": [
        {
          "internalType": "address",
          "name": "",
          "type": "address"
        }
      ],
      "stateMutability": "view",
      "type": "function"
    },
    {
      "inputs": [
        {
          "internalType": "address",
          "name": "user",
          "type": "address"
        },
        {
          "internalType": "uint256",
          "name": "amount",
          "type": "uint256"
        },
        {
          "internalType": "uint256[]",
          "name": "batchTokenIds",
          "type": "uint256[]"
        }
      ],
      "name": "createDetokenizationRequest",
      "outputs": [
        {
          "internalType": "uint256",
          "name": "",
          "type": "uint256"
        }
      ],
      "stateMutability": "nonpayable",
      "type": "function"
    },
    {
      "inputs": [
        {
          "internalType": "address",
          "name": "user",
          "type": "address"
        },
        {
          "components": [
            {
              "internalType": "uint256[]",
              "name": "tokenIds",
              "type": "uint256[]"
            },
            {
              "internalType": "uint256",
              "name": "amount",
              "type": "uint256"
            },
            {
              "internalType": "string",
              "name": "retiringEntityString",
              "type": "string"
            },
            {
              "internalType": "address",
              "name": "beneficiary",
              "type": "address"
            },
            {
              "internalType": "string",
              "name": "beneficiaryString",
              "type": "string"
            },
            {
              "internalType": "string",
              "name": "retirementMessage",
              "type": "string"
            },
            {
              "internalType": "string",
              "name": "beneficiaryLocation",
              "type": "string"
            },
            {
              "internalType": "string",
              "name": "consumptionCountryCode",
              "type": "string"
            },
            {
              "internalType": "uint256",
              "name": "consumptionPeriodStart",
              "type": "uint256"
            },
            {
              "internalType": "uint256",
              "name": "consumptionPeriodEnd",
              "type": "uint256"
            }
          ],
          "internalType": "struct CreateRetirementRequestParams",
          "name": "params",
          "type": "tuple"
        }
      ],
      "name": "createRetirementRequest",
      "outputs": [
        {
          "internalType": "uint256",
          "name": "requestId",
          "type": "uint256"
        }
      ],
      "stateMutability": "nonpayable",
      "type": "function"
    },
    {
      "inputs": [],
      "name": "detokenizationRequestIdCounter",
      "outputs": [
        {
          "internalType": "uint256",
          "name": "",
          "type": "uint256"
        }
      ],
      "stateMutability": "view",
      "type": "function"
    },
    {
      "inputs": [
        {
          "internalType": "uint256",
          "name": "requestId",
          "type": "uint256"
        }
      ],
      "name": "detokenizationRequests",
      "outputs": [
        {
          "components": [
            {
              "internalType": "address",
              "name": "user",
              "type": "address"
            },
            {
              "internalType": "uint256",
              "name": "amount",
              "type": "uint256"
            },
            {
              "internalType": "enum RequestStatus",
              "name": "status",
              "type": "uint8"
            },
            {
              "internalType": "uint256[]",
              "name": "batchTokenIds",
              "type": "uint256[]"
            },
            {
              "internalType": "uint256",
              "name": "projectVintageTokenId",
              "type": "uint256"
            }
          ],
          "internalType": "struct DetokenizationRequest",
          "name": "",
          "type": "tuple"
        }
      ],
      "stateMutability": "view",
      "type": "function"
    },
    {
      "inputs": [
        {
          "internalType": "uint256",
          "name": "requestId",
          "type": "uint256"
        }
      ],
      "name": "finalizeDetokenizationRequest",
      "outputs": [],
      "stateMutability": "nonpayable",
      "type": "function"
    },
    {
      "inputs": [
        {
          "internalType": "uint256",
          "name": "requestId",
          "type": "uint256"
        }
      ],
      "name": "finalizeRetirementRequest",
      "outputs": [],
      "stateMutability": "nonpayable",
      "type": "function"
    },
    {
      "inputs": [
        {
          "internalType": "bytes32",
          "name": "role",
          "type": "bytes32"
        }
      ],
      "name": "getRoleAdmin",
      "outputs": [
        {
          "internalType": "bytes32",
          "name": "",
          "type": "bytes32"
        }
      ],
      "stateMutability": "view",
      "type": "function"
    },
    {
      "inputs": [
        {
          "internalType": "bytes32",
          "name": "role",
          "type": "bytes32"
        },
        {
          "internalType": "address",
          "name": "account",
          "type": "address"
        }
      ],
      "name": "grantRole",
      "outputs": [],
      "stateMutability": "nonpayable",
      "type": "function"
    },
    {
      "inputs": [
        {
          "internalType": "bytes32",
          "name": "role",
          "type": "bytes32"
        },
        {
          "internalType": "address",
          "name": "account",
          "type": "address"
        }
      ],
      "name": "hasRole",
      "outputs": [
        {
          "internalType": "bool",
          "name": "",
          "type": "bool"
        }
      ],
      "stateMutability": "view",
      "type": "function"
    },
    {
      "inputs": [
        {
          "internalType": "address",
          "name": "_contractRegistry",
          "type": "address"
        },
        {
          "internalType": "address[]",
          "name": "_accounts",
          "type": "address[]"
        },
        {
          "internalType": "bytes32[]",
          "name": "_roles",
          "type": "bytes32[]"
        }
      ],
      "name": "initialize",
      "outputs": [],
      "stateMutability": "nonpayable",
      "type": "function"
    },
    {
      "inputs": [],
      "name": "owner",
      "outputs": [
        {
          "internalType": "address",
          "name": "",
          "type": "address"
        }
      ],
      "stateMutability": "view",
      "type": "function"
    },
    {
      "inputs": [],
      "name": "pause",
      "outputs": [],
      "stateMutability": "nonpayable",
      "type": "function"
    },
    {
      "inputs": [],
      "name": "paused",
      "outputs": [
        {
          "internalType": "bool",
          "name": "",
          "type": "bool"
        }
      ],
      "stateMutability": "view",
      "type": "function"
    },
    {
      "inputs": [],
      "name": "proxiableUUID",
      "outputs": [
        {
          "internalType": "bytes32",
          "name": "",
          "type": "bytes32"
        }
      ],
      "stateMutability": "view",
      "type": "function"
    },
    {
      "inputs": [],
      "name": "renounceOwnership",
      "outputs": [],
      "stateMutability": "nonpayable",
      "type": "function"
    },
    {
      "inputs": [
        {
          "internalType": "bytes32",
          "name": "role",
          "type": "bytes32"
        },
        {
          "internalType": "address",
          "name": "account",
          "type": "address"
        }
      ],
      "name": "renounceRole",
      "outputs": [],
      "stateMutability": "nonpayable",
      "type": "function"
    },
    {
      "inputs": [],
      "name": "retirementRequestIdCounter",
      "outputs": [
        {
          "internalType": "uint256",
          "name": "",
          "type": "uint256"
        }
      ],
      "stateMutability": "view",
      "type": "function"
    },
    {
      "inputs": [
        {
          "internalType": "uint256",
          "name": "requestId",
          "type": "uint256"
        }
      ],
      "name": "retirementRequests",
      "outputs": [
        {
          "components": [
            {
              "internalType": "address",
              "name": "user",
              "type": "address"
            },
            {
              "internalType": "uint256",
              "name": "amount",
              "type": "uint256"
            },
            {
              "internalType": "enum RequestStatus",
              "name": "status",
              "type": "uint8"
            },
            {
              "internalType": "uint256[]",
              "name": "batchTokenIds",
              "type": "uint256[]"
            },
            {
              "internalType": "string",
              "name": "retiringEntityString",
              "type": "string"
            },
            {
              "internalType": "address",
              "name": "beneficiary",
              "type": "address"
            },
            {
              "internalType": "string",
              "name": "beneficiaryString",
              "type": "string"
            },
            {
              "internalType": "string",
              "name": "retirementMessage",
              "type": "string"
            },
            {
              "internalType": "string",
              "name": "beneficiaryLocation",
              "type": "string"
            },
            {
              "internalType": "string",
              "name": "consumptionCountryCode",
              "type": "string"
            },
            {
              "internalType": "uint256",
              "name": "consumptionPeriodStart",
              "type": "uint256"
            },
            {
              "internalType": "uint256",
              "name": "consumptionPeriodEnd",
              "type": "uint256"
            },
            {
              "internalType": "uint256",
              "name": "projectVintageTokenId",
              "type": "uint256"
            }
          ],
          "internalType": "struct RetirementRequest",
          "name": "",
          "type": "tuple"
        }
      ],
      "stateMutability": "view",
      "type": "function"
    },
    {
      "inputs": [
        {
          "internalType": "uint256",
          "name": "requestId",
          "type": "uint256"
        }
      ],
      "name": "revertDetokenizationRequest",
      "outputs": [],
      "stateMutability": "nonpayable",
      "type": "function"
    },
    {
      "inputs": [
        {
          "internalType": "uint256",
          "name": "requestId",
          "type": "uint256"
        }
      ],
      "name": "revertRetirementRequest",
      "outputs": [],
      "stateMutability": "nonpayable",
      "type": "function"
    },
    {
      "inputs": [
        {
          "internalType": "bytes32",
          "name": "role",
          "type": "bytes32"
        },
        {
          "internalType": "address",
          "name": "account",
          "type": "address"
        }
      ],
      "name": "revokeRole",
      "outputs": [],
      "stateMutability": "nonpayable",
      "type": "function"
    },
    {
      "inputs": [
        {
          "internalType": "address",
          "name": "_address",
          "type": "address"
        }
      ],
      "name": "setToucanContractRegistry",
      "outputs": [],
      "stateMutability": "nonpayable",
      "type": "function"
    },
    {
      "inputs": [
        {
          "internalType": "string",
          "name": "serialNumber",
          "type": "string"
        },
        {
          "internalType": "uint256",
          "name": "amount",
          "type": "uint256"
        }
      ],
      "name": "splitSerialNumber",
      "outputs": [
        {
          "internalType": "string",
          "name": "balancingSerialNumber",
          "type": "string"
        },
        {
          "internalType": "string",
          "name": "remainingSerialNumber",
          "type": "string"
        }
      ],
      "stateMutability": "pure",
      "type": "function"
    },
    {
      "inputs": [
        {
          "internalType": "bytes4",
          "name": "interfaceId",
          "type": "bytes4"
        }
      ],
      "name": "supportsInterface",
      "outputs": [
        {
          "internalType": "bool",
          "name": "",
          "type": "bool"
        }
      ],
      "stateMutability": "view",
      "type": "function"
    },
    {
      "inputs": [
        {
          "internalType": "address",
          "name": "newOwner",
          "type": "address"
        }
      ],
      "name": "transferOwnership",
      "outputs": [],
      "stateMutability": "nonpayable",
      "type": "function"
    },
    {
      "inputs": [],
      "name": "unpause",
      "outputs": [],
      "stateMutability": "nonpayable",
      "type": "function"
    },
    {
      "inputs": [
        {
          "internalType": "address",
          "name": "newImplementation",
          "type": "address"
        }
      ],
      "name": "upgradeTo",
      "outputs": [],
      "stateMutability": "nonpayable",
      "type": "function"
    },
    {
      "inputs": [
        {
          "internalType": "address",
          "name": "newImplementation",
          "type": "address"
        },
        {
          "internalType": "bytes",
          "name": "data",
          "type": "bytes"
        }
      ],
      "name": "upgradeToAndCall",
      "outputs": [],
      "stateMutability": "payable",
      "type": "function"
    }
  ],
  "numDeployments": 1,
  "solcInputHash": "21ae5f70988e66da4bff33b9b6a2fdaf",
  "bytecode": "0x60a0604052306080523480156200001557600080fd5b506200002062000026565b620000e7565b600054610100900460ff1615620000935760405162461bcd60e51b815260206004820152602760248201527f496e697469616c697a61626c653a20636f6e747261637420697320696e697469604482015266616c697a696e6760c81b606482015260840160405180910390fd5b60005460ff90811614620000e5576000805460ff191660ff9081179091556040519081527f7f26b83ff96e1f2b6a682f133852f6798a09c465da95921460cefb38474024989060200160405180910390a15b565b6080516152c86200011f6000396000818161073c0152818161077c01528181610873015281816108b3015261094201526152c86000f3fe6080604052600436106101ee5760003560e01c80638456cb591161010d578063c346a8bf116100a0578063ea158df81161006f578063ea158df81461058f578063ebe5b460146105af578063f2fde38b146105cf578063f8d8353f146105ef578063ffa1ad741461060f57600080fd5b8063c346a8bf146104fb578063d547741f1461051b578063e63ab1e91461053b578063e882e37b1461056f57600080fd5b806392ad01fd116100dc57806392ad01fd14610485578063a217fddf146104a5578063abf410e5146104ba578063aeb2d230146104db57600080fd5b80638456cb59146103fe578063862943a0146104135780638da5cb5b1461043357806391d148541461046557600080fd5b806352d1902d1161018557806369514ebe1161015457806369514ebe146103905780636ca0b0d7146103a7578063715018a6146103bc57806379c20aaa146103d157600080fd5b806352d1902d1461031f5780635860ef5d1461033457806359ad0a0a146103615780635c975abb1461037857600080fd5b80633659cfe6116101c15780633659cfe6146102a95780633f4ba83a146102c95780634e395ea8146102de5780634f1ef2861461030c57600080fd5b806301ffc9a7146101f3578063248a9ca3146102285780632f2ff15d1461026757806336568abe14610289575b600080fd5b3480156101ff57600080fd5b5061021361020e3660046144d9565b61064d565b60405190151581526020015b60405180910390f35b34801561023457600080fd5b50610259610243366004614503565b600090815261012d602052604090206001015490565b60405190815260200161021f565b34801561027357600080fd5b50610287610282366004614531565b610684565b005b34801561029557600080fd5b506102876102a4366004614531565b6106af565b3480156102b557600080fd5b506102876102c4366004614561565b610732565b3480156102d557600080fd5b50610287610811565b3480156102ea57600080fd5b506102fe6102f9366004614629565b610843565b60405161021f9291906146d9565b61028761031a366004614707565b610869565b34801561032b57600080fd5b50610259610935565b34801561034057600080fd5b5061035461034f366004614503565b6109e8565b60405161021f91906147cf565b34801561036d57600080fd5b506102596101605481565b34801561038457600080fd5b5060655460ff16610213565b34801561039c57600080fd5b506102596101625481565b3480156103b357600080fd5b50610259600181565b3480156103c857600080fd5b50610287610adf565b3480156103dd57600080fd5b506103f16103ec366004614503565b610af3565b60405161021f9190614830565b34801561040a57600080fd5b50610287610f40565b34801561041f57600080fd5b5061028761042e366004614503565b610f72565b34801561043f57600080fd5b506033546001600160a01b03165b6040516001600160a01b03909116815260200161021f565b34801561047157600080fd5b50610213610480366004614531565b6110d2565b34801561049157600080fd5b506102876104a0366004614503565b6110fe565b3480156104b157600080fd5b50610259600081565b3480156104c657600080fd5b5061015f5461044d906001600160a01b031681565b3480156104e757600080fd5b506102596104f6366004614969565b611613565b34801561050757600080fd5b506102596105163660046149f9565b611a62565b34801561052757600080fd5b50610287610536366004614531565b611c2e565b34801561054757600080fd5b506102597f65d7a28e3265b37a6474929f336521b332c1681b933f6cb9f3376673440d862a81565b34801561057b57600080fd5b5061028761058a366004614561565b611c54565b34801561059b57600080fd5b506102876105aa366004614503565b611cb1565b3480156105bb57600080fd5b506102876105ca366004614503565b611d4f565b3480156105db57600080fd5b506102876105ea366004614561565b611ec5565b3480156105fb57600080fd5b5061028761060a366004614a54565b611f3b565b34801561061b57600080fd5b50610640604051806040016040528060058152602001640312e332e360dc1b81525081565b60405161021f9190614ad6565b60006001600160e01b03198216637965db0b60e01b148061067e57506301ffc9a760e01b6001600160e01b03198316145b92915050565b600082815261012d60205260409020600101546106a0816120bf565b6106aa83836120c9565b505050565b6001600160a01b03811633146107245760405162461bcd60e51b815260206004820152602f60248201527f416363657373436f6e74726f6c3a2063616e206f6e6c792072656e6f756e636560448201526e103937b632b9903337b91039b2b63360891b60648201526084015b60405180910390fd5b61072e8282612150565b5050565b6001600160a01b037f000000000000000000000000000000000000000000000000000000000000000016300361077a5760405162461bcd60e51b815260040161071b90614ae9565b7f00000000000000000000000000000000000000000000000000000000000000006001600160a01b03166107c360008051602061524c833981519152546001600160a01b031690565b6001600160a01b0316146107e95760405162461bcd60e51b815260040161071b90614b35565b6107f2816121b8565b6040805160008082526020820190925261080e918391906121c0565b50565b7f65d7a28e3265b37a6474929f336521b332c1681b933f6cb9f3376673440d862a61083b816120bf565b61080e61232b565b60608060006108518561237d565b905061085d81856123cb565b90969095509350505050565b6001600160a01b037f00000000000000000000000000000000000000000000000000000000000000001630036108b15760405162461bcd60e51b815260040161071b90614ae9565b7f00000000000000000000000000000000000000000000000000000000000000006001600160a01b03166108fa60008051602061524c833981519152546001600160a01b031690565b6001600160a01b0316146109205760405162461bcd60e51b815260040161071b90614b35565b610929826121b8565b61072e828260016121c0565b6000306001600160a01b037f000000000000000000000000000000000000000000000000000000000000000016146109d55760405162461bcd60e51b815260206004820152603860248201527f555550535570677261646561626c653a206d757374206e6f742062652063616c60448201527f6c6564207468726f7567682064656c656761746563616c6c0000000000000000606482015260840161071b565b5060008051602061524c83398151915290565b6040805160a0808201835260008083526020808401829052838501829052606080850152608084018290528582526101618152908490208451928301855280546001600160a01b0316835260018101549183019190915260028082015493949293919284019160ff1690811115610a6157610a6161476a565b6002811115610a7257610a7261476a565b815260200160038201805480602002602001604051908101604052809291908181526020018280548015610ac557602002820191906000526020600020905b815481526020019060010190808311610ab1575b505050505081526020016004820154815250509050919050565b610ae7612404565b610af1600061245e565b565b610b67604080516101a08101825260008082526020820181905290918201908152602001606081526020016060815260200160006001600160a01b03168152602001606081526020016060815260200160608152602001606081526020016000815260200160008152602001600081525090565b6000828152610163602090815260409182902082516101a08101845281546001600160a01b03168152600182015492810192909252600280820154929391929184019160ff1690811115610bbd57610bbd61476a565b6002811115610bce57610bce61476a565b815260200160038201805480602002602001604051908101604052809291908181526020018280548015610c2157602002820191906000526020600020905b815481526020019060010190808311610c0d575b50505050508152602001600482018054610c3a90614b81565b80601f0160208091040260200160405190810160405280929190818152602001828054610c6690614b81565b8015610cb35780601f10610c8857610100808354040283529160200191610cb3565b820191906000526020600020905b815481529060010190602001808311610c9657829003601f168201915b505050918352505060058201546001600160a01b03166020820152600682018054604090920191610ce390614b81565b80601f0160208091040260200160405190810160405280929190818152602001828054610d0f90614b81565b8015610d5c5780601f10610d3157610100808354040283529160200191610d5c565b820191906000526020600020905b815481529060010190602001808311610d3f57829003601f168201915b50505050508152602001600782018054610d7590614b81565b80601f0160208091040260200160405190810160405280929190818152602001828054610da190614b81565b8015610dee5780601f10610dc357610100808354040283529160200191610dee565b820191906000526020600020905b815481529060010190602001808311610dd157829003601f168201915b50505050508152602001600882018054610e0790614b81565b80601f0160208091040260200160405190810160405280929190818152602001828054610e3390614b81565b8015610e805780601f10610e5557610100808354040283529160200191610e80565b820191906000526020600020905b815481529060010190602001808311610e6357829003601f168201915b50505050508152602001600982018054610e9990614b81565b80601f0160208091040260200160405190810160405280929190818152602001828054610ec590614b81565b8015610f125780601f10610ee757610100808354040283529160200191610f12565b820191906000526020600020905b815481529060010190602001808311610ef557829003601f168201915b50505050508152602001600a8201548152602001600b8201548152602001600c820154815250509050919050565b7f65d7a28e3265b37a6474929f336521b332c1681b933f6cb9f3376673440d862a610f6a816120bf565b61080e6124b0565b61015f54604051633a37b16d60e11b81523360048201526001600160a01b039091169063746f62da90602401602060405180830381865afa158015610fbb573d6000803e3d6000fd5b505050506040513d601f19601f82011682018060405250810190610fdf9190614bbb565b610ffb5760405162461bcd60e51b815260040161071b90614bdd565b600081815261016360205260408120905b60028083015460ff16908111156110255761102561476a565b146110425760405162461bcd60e51b815260040161071b90614bff565b6002818101805460ff191660018302179055506110b2816003018054806020026020016040519081016040528092919081815260200182805480156110a657602002820191906000526020600020905b815481526020019060010190808311611092575b505050505060026124ed565b50508054600182015461072e9133916001600160a01b03909116906126ec565b600091825261012d602090815260408084206001600160a01b0393909316845291905290205460ff1690565b61015f54604051633a37b16d60e11b81523360048201526001600160a01b039091169063746f62da90602401602060405180830381865afa158015611147573d6000803e3d6000fd5b505050506040513d601f19601f8201168201806040525081019061116b9190614bbb565b6111875760405162461bcd60e51b815260040161071b90614bdd565b6000818152610163602052604081209060028083015460ff16908111156111b0576111b061476a565b146111cd5760405162461bcd60e51b815260040161071b90614bff565b60028101805460ff1916600117905560038101805460408051602080840282018101909252828152611238939092909183018282801561122c57602002820191906000526020600020905b815481526020019060010190808311611218575b505050505060066124ed565b50506040805160038301805461016060208202840181019094526101408301818152600094849391929084018282801561129157602002820191906000526020600020905b81548152602001906001019080831161127d575b50505050508152602001836001015481526020018360040180546112b490614b81565b80601f01602080910402602001604051908101604052809291908181526020018280546112e090614b81565b801561132d5780601f106113025761010080835404028352916020019161132d565b820191906000526020600020905b81548152906001019060200180831161131057829003601f168201915b505050918352505060058401546001600160a01b0316602082015260068401805460409092019161135d90614b81565b80601f016020809104026020016040519081016040528092919081815260200182805461138990614b81565b80156113d65780601f106113ab576101008083540402835291602001916113d6565b820191906000526020600020905b8154815290600101906020018083116113b957829003601f168201915b505050505081526020018360070180546113ef90614b81565b80601f016020809104026020016040519081016040528092919081815260200182805461141b90614b81565b80156114685780601f1061143d57610100808354040283529160200191611468565b820191906000526020600020905b81548152906001019060200180831161144b57829003601f168201915b5050505050815260200183600801805461148190614b81565b80601f01602080910402602001604051908101604052809291908181526020018280546114ad90614b81565b80156114fa5780601f106114cf576101008083540402835291602001916114fa565b820191906000526020600020905b8154815290600101906020018083116114dd57829003601f168201915b5050505050815260200183600901805461151390614b81565b80601f016020809104026020016040519081016040528092919081815260200182805461153f90614b81565b801561158c5780601f106115615761010080835404028352916020019161158c565b820191906000526020600020905b81548152906001019060200180831161156f57829003601f168201915b5050509183525050600a8401546020820152600b840154604091820152835490516333a373df60e11b81529192503391636746e7be916115dc916001600160a01b03909116908590600401614c2c565b600060405180830381600087803b1580156115f657600080fd5b505af115801561160a573d6000803e3d6000fd5b50505050505050565b61015f54604051633a37b16d60e11b81523360048201526000916001600160a01b03169063746f62da90602401602060405180830381865afa15801561165d573d6000803e3d6000fd5b505050506040513d601f19601f820116820180604052508101906116819190614bbb565b61169d5760405162461bcd60e51b815260040161071b90614bdd565b506101628054600101908190556116c360208301356116bc8480614d38565b600561274f565b600061170e60208401356116d78580614d38565b8080602002602001604051908101604052809392919081815260200183836020028082843760009201919091525061284492505050565b9050600061171b3361297a565b604080516101a0810182526001600160a01b03881681526020878101359082015291925081016000815260200183815260200185806040019061175e9190614d81565b8080601f0160208091040260200160405190810160405280939291908181526020018383808284376000920191909152505050908252506020016117a86080870160608801614561565b6001600160a01b031681526020016117c36080870187614d81565b8080601f01602080910402602001604051908101604052809392919081815260200183838082843760009201919091525050509082525060200161180a60a0870187614d81565b8080601f01602080910402602001604051908101604052809392919081815260200183838082843760009201919091525050509082525060200161185160c0870187614d81565b8080601f01602080910402602001604051908101604052809392919081815260200183838082843760009201919091525050509082525060200161189860e0870187614d81565b8080601f01602080910402602001604051908101604052809392919081815260200183838082843760009201829052509385525050506101008701356020808401919091526101208801356040808501919091526060909301859052868252610163815290829020835181546001600160a01b0319166001600160a01b0390911617815590830151600180830191909155918301516002808301805493949293909260ff199091169184908111156119525761195261476a565b0217905550606082015180516119729160038401916020909101906143d0565b506080820151805161198e91600484019160209091019061441b565b5060a08201516005820180546001600160a01b0319166001600160a01b0390921691909117905560c082015180516119d091600684019160209091019061441b565b5060e082015180516119ec91600784019160209091019061441b565b506101008201518051611a0991600884019160209091019061441b565b506101208201518051611a2691600984019160209091019061441b565b50610140820151600a820155610160820151600b82015561018090910151600c90910155611a5a33863060208801356129de565b505092915050565b61015f54604051633a37b16d60e11b81523360048201526000916001600160a01b03169063746f62da90602401602060405180830381865afa158015611aac573d6000803e3d6000fd5b505050506040513d601f19601f82011682018060405250810190611ad09190614bbb565b611aec5760405162461bcd60e51b815260040161071b90614bdd565b610160805460010190819055611b05858585600361274f565b6000611b448686868080602002602001604051908101604052809392919081815260200183836020028082843760009201919091525061284492505050565b90506000611b513361297a565b6040805160a0810182526001600160a01b038b168152602081018a90529192508101600081526020808201859052604091820184905260008681526101618252829020835181546001600160a01b0319166001600160a01b0390911617815590830151600180830191909155918301516002808301805493949293909260ff19909116918490811115611be657611be661476a565b021790555060608201518051611c069160038401916020909101906143d0565b5060809190910151600490910155611c203389308a6129de565b50909150505b949350505050565b600082815261012d6020526040902060010154611c4a816120bf565b6106aa8383612150565b611c5c612404565b61015f80546001600160a01b0319166001600160a01b0383169081179091556040519081527fb3a6e7c81ebdb0cf9bf28d5ddf6678ded8d73b44f2eee06ca3974dbb9f41ce7e9060200160405180910390a150565b61015f54604051633a37b16d60e11b81523360048201526001600160a01b039091169063746f62da90602401602060405180830381865afa158015611cfa573d6000803e3d6000fd5b505050506040513d601f19601f82011682018060405250810190611d1e9190614bbb565b611d3a5760405162461bcd60e51b815260040161071b90614bdd565b6000818152610161602052604081209061100c565b61015f54604051633a37b16d60e11b81523360048201526001600160a01b039091169063746f62da90602401602060405180830381865afa158015611d98573d6000803e3d6000fd5b505050506040513d601f19601f82011682018060405250810190611dbc9190614bbb565b611dd85760405162461bcd60e51b815260040161071b90614bdd565b6000818152610161602052604081209060028083015460ff1690811115611e0157611e0161476a565b14611e1e5760405162461bcd60e51b815260040161071b90614bff565b60028101805460ff1916600117905560038101805460408051602080840282018101909252828152611e899390929091830182828015611e7d57602002820191906000526020600020905b815481526020019060010190808311611e69575b505050505060046124ed565b50506001810154611e9b333083612a1c565b60405163079cc67960e41b81523060048201526024810182905233906379cc6790906044016115dc565b611ecd612404565b6001600160a01b038116611f325760405162461bcd60e51b815260206004820152602660248201527f4f776e61626c653a206e6577206f776e657220697320746865207a65726f206160448201526564647265737360d01b606482015260840161071b565b61080e8161245e565b600054610100900460ff1615808015611f5b5750600054600160ff909116105b80611f755750303b158015611f75575060005460ff166001145b611fd85760405162461bcd60e51b815260206004820152602e60248201527f496e697469616c697a61626c653a20636f6e747261637420697320616c72656160448201526d191e481a5b9a5d1a585b1a5e995960921b606482015260840161071b565b6000805460ff191660011790558015611ffb576000805461ff0019166101001790555b612003612b31565b61200b612b61565b612013612b94565b61201f85858585612bbb565b61015f80546001600160a01b0319166001600160a01b0388169081179091556040519081527fb3a6e7c81ebdb0cf9bf28d5ddf6678ded8d73b44f2eee06ca3974dbb9f41ce7e9060200160405180910390a180156120b7576000805461ff0019169055604051600181527f7f26b83ff96e1f2b6a682f133852f6798a09c465da95921460cefb38474024989060200160405180910390a15b505050505050565b61080e8133612cdd565b6120d382826110d2565b61072e57600082815261012d602090815260408083206001600160a01b03851684529091529020805460ff1916600117905561210c3390565b6001600160a01b0316816001600160a01b0316837f2f8788117e7eff1d82e926ec794901d17c78024a50270940304540a733656f0d60405160405180910390a45050565b61215a82826110d2565b1561072e57600082815261012d602090815260408083206001600160a01b0385168085529252808320805460ff1916905551339285917ff6391f5c32d9c69d2a47ea670b442974b53935d1edc7fd64eb21e047a839171b9190a45050565b61080e612404565b7f4910fdfa16fed3260ed0e7147f7cc6da11a60208b5b9406d12a635614ffd91435460ff16156121f3576106aa83612d36565b826001600160a01b03166352d1902d6040518163ffffffff1660e01b8152600401602060405180830381865afa92505050801561224d575060408051601f3d908101601f1916820190925261224a91810190614dc7565b60015b6122b05760405162461bcd60e51b815260206004820152602e60248201527f45524331393637557067726164653a206e657720696d706c656d656e7461746960448201526d6f6e206973206e6f74205555505360901b606482015260840161071b565b60008051602061524c833981519152811461231f5760405162461bcd60e51b815260206004820152602960248201527f45524331393637557067726164653a20756e737570706f727465642070726f786044820152681a58589b195555525160ba1b606482015260840161071b565b506106aa838383612dd2565b612333612df7565b6065805460ff191690557f5db9ee0a495bf2e6ff9c91a7834c1ba4fdd244a5e8aa4e537bd38aeae4b073aa335b6040516001600160a01b03909116815260200160405180910390a1565b61238561448e565b612391600c6002614df6565b61239d60126002614df6565b6123a79190614e15565b6123b2906001614e15565b8251036123c25761067e82612e40565b61067e82613022565b6060808360600151516000146123ee576123e5848461327c565b915091506123fd565b6123f884846133ce565b915091505b9250929050565b6033546001600160a01b03163314610af15760405162461bcd60e51b815260206004820181905260248201527f4f776e61626c653a2063616c6c6572206973206e6f7420746865206f776e6572604482015260640161071b565b603380546001600160a01b038381166001600160a01b0319831681179093556040519116919082907f8be0079c531659141344cd1fd0a4f28419497f9722a3daafe3b4186f6b6457e090600090a35050565b6124b86135e3565b6065805460ff191660011790557f62e78cea01bee320cd4e420270b5ea74000d11b0c9f74754ebdbfc544b05a2586123603390565b600080600061015f60009054906101000a90046001600160a01b03166001600160a01b0316634be4e3dd6040518163ffffffff1660e01b8152600401602060405180830381865afa158015612546573d6000803e3d6000fd5b505050506040513d601f19601f8201168201806040525081019061256a9190614e2d565b855190915060005b818110156126e257600087828151811061258e5761258e614e4a565b60200260200101519050336001600160a01b0316846001600160a01b0316636352211e836040518263ffffffff1660e01b81526004016125d091815260200190565b602060405180830381865afa1580156125ed573d6000803e3d6000fd5b505050506040513d601f19601f820116820180604052508101906126119190614e2d565b6001600160a01b03161461264f576040805180820182526002815261191b60f11b6020820152905162461bcd60e51b815261071b9190600401614ad6565b600061265b8583613629565b50915061266a90508188614e15565b9650809550846001600160a01b0316633a484efd838a6040518363ffffffff1660e01b815260040161269d929190614e60565b600060405180830381600087803b1580156126b757600080fd5b505af11580156126cb573d6000803e3d6000fd5b505050505050806126db90614e84565b9050612572565b5050509250929050565b6040516001600160a01b0383166024820152604481018290526106aa90849063a9059cbb60e01b906064015b60408051601f198184030181529190526020810180516001600160e01b03166001600160e01b0319909316929092179091526136cb565b604080518082019091526002815261343560f01b6020820152846127865760405162461bcd60e51b815260040161071b9190614ad6565b506000806127c88585808060200260200160405190810160405280939291908181526020018383602002808284376000920191909152508792506124ed915050565b9150915081861115612804576040805180820182526002815261343560f01b6020820152905162461bcd60e51b815261071b9190600401614ad6565b8561280f8284614e9d565b106120b7576040805180820182526002815261343560f01b6020820152905162461bcd60e51b815261071b9190600401614ad6565b6060600061015f60009054906101000a90046001600160a01b03166001600160a01b0316634be4e3dd6040518163ffffffff1660e01b8152600401602060405180830381865afa15801561289c573d6000803e3d6000fd5b505050506040513d601f19601f820116820180604052508101906128c09190614e2d565b90506000806128cf83866137a0565b909250905060006128e8670de0b6b3a764000088614eb4565b90508083111561296f5760006128fe8285614e9d565b9050600061293e868960018b516129159190614e9d565b8151811061292557612925614e4a565b602002602001015184876129399190614e9d565b613864565b9050808860018a516129509190614e9d565b8151811061296057612960614e4a565b60200260200101818152505050505b509395945050505050565b6000816001600160a01b031663e819426c6040518163ffffffff1660e01b8152600401602060405180830381865afa1580156129ba573d6000803e3d6000fd5b505050506040513d601f19601f8201168201806040525081019061067e9190614dc7565b6040516001600160a01b0380851660248301528316604482015260648101829052612a169085906323b872dd60e01b90608401612718565b50505050565b801580612a965750604051636eb1769f60e11b81523060048201526001600160a01b03838116602483015284169063dd62ed3e90604401602060405180830381865afa158015612a70573d6000803e3d6000fd5b505050506040513d601f19601f82011682018060405250810190612a949190614dc7565b155b612b015760405162461bcd60e51b815260206004820152603660248201527f5361666545524332303a20617070726f76652066726f6d206e6f6e2d7a65726f60448201527520746f206e6f6e2d7a65726f20616c6c6f77616e636560501b606482015260840161071b565b6040516001600160a01b0383166024820152604481018290526106aa90849063095ea7b360e01b90606401612718565b600054610100900460ff16612b585760405162461bcd60e51b815260040161071b90614ed6565b610af13361245e565b600054610100900460ff16612b885760405162461bcd60e51b815260040161071b90614ed6565b6065805460ff19169055565b600054610100900460ff16610af15760405162461bcd60e51b815260040161071b90614ed6565b828114612c025760405162461bcd60e51b8152602060048201526015602482015274082e4e4c2f240d8cadccee8d040dad2e6dac2e8c6d605b1b604482015260640161071b565b612c0a612b94565b6000805b84811015612c9357612c5e848483818110612c2b57612c2b614e4a565b90506020020135878784818110612c4457612c44614e4a565b9050602002016020810190612c599190614561565b6120c9565b6000848483818110612c7257612c72614e4a565b9050602002013503612c8357600191505b612c8c81614e84565b9050612c0e565b5080612cd65760405162461bcd60e51b8152602060048201526012602482015271139bc818591b5a5b881cdc1958da599a595960721b604482015260640161071b565b5050505050565b612ce782826110d2565b61072e57612cf4816139cd565b612cff8360206139df565b604051602001612d10929190614f21565b60408051601f198184030181529082905262461bcd60e51b825261071b91600401614ad6565b6001600160a01b0381163b612da35760405162461bcd60e51b815260206004820152602d60248201527f455243313936373a206e657720696d706c656d656e746174696f6e206973206e60448201526c1bdd08184818dbdb9d1c9858dd609a1b606482015260840161071b565b60008051602061524c83398151915280546001600160a01b0319166001600160a01b0392909216919091179055565b612ddb83613b81565b600082511180612de85750805b156106aa57612a168383613bc1565b60655460ff16610af15760405162461bcd60e51b815260206004820152601460248201527314185d5cd8589b194e881b9bdd081c185d5cd95960621b604482015260640161071b565b612e4861448e565b6040805180820190915260018152602d60f81b6020820152612e6b908390613be6565b600114612eba5760405162461bcd60e51b815260206004820152601d60248201527f76313a20696e636f72726563742064656c696d6974657220636f756e74000000604482015260640161071b565b600080612ee9604051806040016040528060018152602001602d60f81b81525085613cba90919063ffffffff16565b90925090506000612efc83826012613db1565b90506000612f0c83826012613db1565b9050612f188282613e7c565b612f545760405162461bcd60e51b815260206004820152600d60248201526c0a8f2e0ca40dad2e6dac2e8c6d609b1b604482015260640161071b565b6000612f81612f7c612f6860126001614e15565b612f74600c6012614e15565b889190613db1565b613e99565b90506000612f97612f7c612f6860126001614e15565b905080821115612fd95760405162461bcd60e51b815260206004820152600d60248201526c496e76616c69642072616e676560981b604482015260640161071b565b6040518060c00160405280878152602001868152602001858152602001604051806020016040528060008152508152602001838152602001828152509650505050505050919050565b61302a61448e565b6040805180820190915260018152605f60f81b602082015261304d908390613be6565b60011461309c5760405162461bcd60e51b815260206004820152601d60248201527f76323a20696e636f72726563742064656c696d6974657220636f756e74000000604482015260640161071b565b6000806130cb604051806040016040528060018152602001605f60f81b81525085613cba90919063ffffffff16565b915091506130d882613f3d565b61311a5760405162461bcd60e51b8152602060048201526013602482015272125b9d985b1a59081a5cdcdd585b98d9481a59606a1b604482015260640161071b565b6040805180820190915260018152602d60f81b602082015261313d908290613be6565b6001146131975760405162461bcd60e51b815260206004820152602260248201527f496e636f72726563742064656c696d6974657220636f756e7420696e2072616e604482015261676560f01b606482015260840161071b565b6000806131c6604051806040016040528060018152602001602d60f81b81525084613cba90919063ffffffff16565b9150915060006131d583613e99565b905060006131e283613e99565b9050808211156132245760405162461bcd60e51b815260206004820152600d60248201526c496e76616c69642072616e676560981b604482015260640161071b565b6040805160e081018252600060c0820181815282528251602081810185528282528084019190915283519081018452908152918101919091526060810196909652608086019190915260a08501525091949350505050565b606080826000036132be5760405162461bcd60e51b815260206004820152600c60248201526b115b5c1d1e48185b5bdd5b9d60a21b604482015260640161071b565b83608001518460a001516132d29190614e9d565b6132dd906001614e15565b831061331a5760405162461bcd60e51b815260206004820152600c60248201526b10d85b9b9bdd081cdc1b1a5d60a21b604482015260640161071b565b6000600184866080015161332e9190614e15565b6133389190614e9d565b90506000613347826001614e15565b9050856060015161335b8760800151613f77565b61336484613f77565b60405160200161337693929190614f96565b604051602081830303815290604052866060015161339383613f77565b6133a08960a00151613f77565b6040516020016133b293929190614f96565b6040516020818303038152906040529350935050509250929050565b606080826000036134105760405162461bcd60e51b815260206004820152600c60248201526b115b5c1d1e48185b5bdd5b9d60a21b604482015260640161071b565b83608001518460a001516134249190614e9d565b61342f906001614e15565b831061346c5760405162461bcd60e51b815260206004820152600c60248201526b10d85b9b9bdd081cdc1b1a5d60a21b604482015260640161071b565b600060018486608001516134809190614e15565b61348a9190614e9d565b90506000613499826001614e15565b905060006134cc600c604051806040016040528060018152602001600360fc1b8152506134c586613f77565b9190613f82565b905060006134f8600c604051806040016040528060018152602001600360fc1b8152506134c586613f77565b90506000886040015183604051602001613513929190614ff5565b6040516020818303038152906040529050600089604001518360405160200161353d929190614ff5565b60408051601f19818403018152908290528b5190925061355f91602001615024565b60408051601f198184030181529082905261357e918490602001614ff5565b6040516020818303038152906040528160405160200161359e9190615024565b6040516020818303038152906040528b602001516040516020016135c3929190614ff5565b604051602081830303815290604052975097505050505050509250929050565b60655460ff1615610af15760405162461bcd60e51b815260206004820152601060248201526f14185d5cd8589b194e881c185d5cd95960821b604482015260640161071b565b600080600080600080876001600160a01b031663dff35e83886040518263ffffffff1660e01b815260040161366091815260200190565b606060405180830381865afa15801561367d573d6000803e3d6000fd5b505050506040513d601f19601f820116820180604052508101906136a19190615049565b91945092509050826136bb83670de0b6b3a7640000614df6565b9096509450925050509250925092565b6000613720826040518060400160405280602081526020017f5361666545524332303a206c6f772d6c6576656c2063616c6c206661696c6564815250856001600160a01b03166140619092919063ffffffff16565b90508051600014806137415750808060200190518101906137419190614bbb565b6106aa5760405162461bcd60e51b815260206004820152602a60248201527f5361666545524332303a204552433230206f7065726174696f6e20646964206e6044820152691bdd081cdd58d8d9595960b21b606482015260840161071b565b60008060005b835181101561385c576000856001600160a01b031663dff35e838684815181106137d2576137d2614e4a565b60200260200101516040518263ffffffff1660e01b81526004016137f891815260200190565b606060405180830381865afa158015613815573d6000803e3d6000fd5b505050506040513d601f19601f820116820180604052508101906138399190615049565b50915061384890508185614e15565b9350915061385581614e84565b90506137a6565b509250929050565b60405163137b20bf60e31b81526004810183905260009081906001600160a01b03861690639bd905f890602401600060405180830381865afa1580156138ae573d6000803e3d6000fd5b505050506040513d6000823e601f3d908101601f191682016040526138d69190810190615086565b90506000806138e58386610843565b60405163095b5ded60e11b815291935091506001600160a01b038816906312b6bbda9061391c908990859087908b906004016150f3565b6020604051808303816000875af115801561393b573d6000803e3d6000fd5b505050506040513d601f19601f8201168201806040525081019061395f9190614dc7565b604051633a484efd60e01b81529094506001600160a01b03881690633a484efd90613991908990600290600401614e60565b600060405180830381600087803b1580156139ab57600080fd5b505af11580156139bf573d6000803e3d6000fd5b505050505050509392505050565b606061067e6001600160a01b03831660145b606060006139ee836002614df6565b6139f9906002614e15565b6001600160401b03811115613a1057613a1061457e565b6040519080825280601f01601f191660200182016040528015613a3a576020820181803683370190505b509050600360fc1b81600081518110613a5557613a55614e4a565b60200101906001600160f81b031916908160001a905350600f60fb1b81600181518110613a8457613a84614e4a565b60200101906001600160f81b031916908160001a9053506000613aa8846002614df6565b613ab3906001614e15565b90505b6001811115613b2b576f181899199a1a9b1b9c1cb0b131b232b360811b85600f1660108110613ae757613ae7614e4a565b1a60f81b828281518110613afd57613afd614e4a565b60200101906001600160f81b031916908160001a90535060049490941c93613b2481615130565b9050613ab6565b508315613b7a5760405162461bcd60e51b815260206004820181905260248201527f537472696e67733a20686578206c656e67746820696e73756666696369656e74604482015260640161071b565b9392505050565b613b8a81612d36565b6040516001600160a01b038216907fbc7cd75a20ee27fd9adebab32041f755214dbc6bffa90cc0225b39da2e5c2d3b90600090a250565b6060613b7a838360405180606001604052806027815260200161526c60279139614070565b60008151600114613c2f5760405162461bcd60e51b8152602060048201526013602482015272092dcecc2d8d2c840c6d0c2e440d8cadccee8d606b1b604482015260640161071b565b600082600081518110613c4457613c44614e4a565b016020015184516001600160f81b0319909116915060005b81811015613cb157826001600160f81b031916868281518110613c8157613c81614e4a565b01602001516001600160f81b03191603613ca157613c9e84614e84565b93505b613caa81614e84565b9050613c5c565b50505092915050565b6060808251600114613d0e5760405162461bcd60e51b815260206004820152601860248201527f496e76616c69642064656c696d69746572206c656e6774680000000000000000604482015260640161071b565b600083600081518110613d2357613d23614e4a565b016020015185516001600160f81b0319909116915060005b818110156126e257826001600160f81b031916878281518110613d6057613d60614e4a565b01602001516001600160f81b03191603613da157613d8087600083613db1565b9450613d9787613d91836001614e15565b84613db1565b93505050506123fd565b613daa81614e84565b9050613d3b565b60606000613dbf8484614e9d565b90506000816001600160401b03811115613ddb57613ddb61457e565b6040519080825280601f01601f191660200182016040528015613e05576020820181803683370190505b50905060005b82811015613e725786613e1e8783614e15565b81518110613e2e57613e2e614e4a565b602001015160f81c60f81b828281518110613e4b57613e4b614e4a565b60200101906001600160f81b031916908160001a905350613e6b81614e84565b9050613e0b565b5095945050505050565b6000613b7a83838051602091820120825192909101919091201490565b805160009081908390825b81811015613f33576000613eb88284614e9d565b90506000848381518110613ece57613ece614e4a565b01602001516001600160f81b03198116915060f81c6000613ef0603083614e9d565b9050613efd600185614e9d565b613f0890600a615223565b613f129082614df6565b613f1c9089614e15565b97505050505080613f2c90614e84565b9050613ea4565b5091949350505050565b60006024825114801561067e57506040805180820190915260018152602d60f81b6020820152613f6e908390613be6565b60041492915050565b606061067e826140e8565b8251815160609190600114613fd25760405162461bcd60e51b8152602060048201526016602482015275092dcecc2d8d2c840e0c2c886d0c2e440d8cadccee8d60531b604482015260640161071b565b808410156140185760405162461bcd60e51b8152602060048201526013602482015272092dcecc2d8d2c840e8caf0e840d8cadccee8d606b1b604482015260640161071b565b805b84811015614057578386604051602001614035929190614ff5565b60405160208183030381529060405295508061405090614e84565b905061401a565b5093949350505050565b6060611c26848460008561417a565b6060600080856001600160a01b03168560405161408d919061522f565b600060405180830381855af49150503d80600081146140c8576040519150601f19603f3d011682016040523d82523d6000602084013e6140cd565b606091505b50915091506140de86838387614255565b9695505050505050565b606060006140f5836142ce565b60010190506000816001600160401b038111156141145761411461457e565b6040519080825280601f01601f19166020018201604052801561413e576020820181803683370190505b5090508181016020015b600019016f181899199a1a9b1b9c1cb0b131b232b360811b600a86061a8153600a850494508461414857509392505050565b6060824710156141db5760405162461bcd60e51b815260206004820152602660248201527f416464726573733a20696e73756666696369656e742062616c616e636520666f6044820152651c8818d85b1b60d21b606482015260840161071b565b600080866001600160a01b031685876040516141f7919061522f565b60006040518083038185875af1925050503d8060008114614234576040519150601f19603f3d011682016040523d82523d6000602084013e614239565b606091505b509150915061424a87838387614255565b979650505050505050565b606083156142c45782516000036142bd576001600160a01b0385163b6142bd5760405162461bcd60e51b815260206004820152601d60248201527f416464726573733a2063616c6c20746f206e6f6e2d636f6e7472616374000000604482015260640161071b565b5081611c26565b611c2683836143a6565b60008072184f03e93ff9f4daa797ed6e38ed64bf6a1f0160401b831061430d5772184f03e93ff9f4daa797ed6e38ed64bf6a1f0160401b830492506040015b6d04ee2d6d415b85acef81000000008310614339576d04ee2d6d415b85acef8100000000830492506020015b662386f26fc10000831061435757662386f26fc10000830492506010015b6305f5e100831061436f576305f5e100830492506008015b612710831061438357612710830492506004015b60648310614395576064830492506002015b600a831061067e5760010192915050565b8151156143b65781518083602001fd5b8060405162461bcd60e51b815260040161071b9190614ad6565b82805482825590600052602060002090810192821561440b579160200282015b8281111561440b5782518255916020019190600101906143f0565b506144179291506144c4565b5090565b82805461442790614b81565b90600052602060002090601f016020900481019282614449576000855561440b565b82601f1061446257805160ff191683800117855561440b565b8280016001018555821561440b579182018281111561440b5782518255916020019190600101906143f0565b6040518060c001604052806060815260200160608152602001606081526020016060815260200160008152602001600081525090565b5b8082111561441757600081556001016144c5565b6000602082840312156144eb57600080fd5b81356001600160e01b031981168114613b7a57600080fd5b60006020828403121561451557600080fd5b5035919050565b6001600160a01b038116811461080e57600080fd5b6000806040838503121561454457600080fd5b8235915060208301356145568161451c565b809150509250929050565b60006020828403121561457357600080fd5b8135613b7a8161451c565b634e487b7160e01b600052604160045260246000fd5b604051601f8201601f191681016001600160401b03811182821017156145bc576145bc61457e565b604052919050565b60006001600160401b038211156145dd576145dd61457e565b50601f01601f191660200190565b60006145fe6145f9846145c4565b614594565b905082815283838301111561461257600080fd5b828260208301376000602084830101529392505050565b6000806040838503121561463c57600080fd5b82356001600160401b0381111561465257600080fd5b8301601f8101851361466357600080fd5b614672858235602084016145eb565b95602094909401359450505050565b60005b8381101561469c578181015183820152602001614684565b83811115612a165750506000910152565b600081518084526146c5816020860160208601614681565b601f01601f19169290920160200192915050565b6040815260006146ec60408301856146ad565b82810360208401526146fe81856146ad565b95945050505050565b6000806040838503121561471a57600080fd5b82356147258161451c565b915060208301356001600160401b0381111561474057600080fd5b8301601f8101851361475157600080fd5b614760858235602084016145eb565b9150509250929050565b634e487b7160e01b600052602160045260246000fd5b600381106147905761479061476a565b9052565b600081518084526020808501945080840160005b838110156147c4578151875295820195908201906001016147a8565b509495945050505050565b6020815260018060a01b03825116602082015260208201516040820152600060408301516148006060840182614780565b50606083015160a0608084015261481a60c0840182614794565b9050608084015160a08401528091505092915050565b6020815261484a6020820183516001600160a01b03169052565b60208201516040820152600060408301516148686060840182614780565b5060608301516101a08060808501526148856101c0850183614794565b91506080850151601f19808685030160a08701526148a384836146ad565b935060a087015191506148c160c08701836001600160a01b03169052565b60c08701519150808685030160e08701526148dc84836146ad565b935060e087015191506101008187860301818801526148fb85846146ad565b94508088015192505061012081878603018188015261491a85846146ad565b94508088015192505061014081878603018188015261493985846146ad565b90880151610160888101919091528801516101808089019190915290970151929095019190915250929392505050565b6000806040838503121561497c57600080fd5b82356149878161451c565b915060208301356001600160401b038111156149a257600080fd5b8301610140818603121561455657600080fd5b60008083601f8401126149c757600080fd5b5081356001600160401b038111156149de57600080fd5b6020830191508360208260051b85010111156123fd57600080fd5b60008060008060608587031215614a0f57600080fd5b8435614a1a8161451c565b93506020850135925060408501356001600160401b03811115614a3c57600080fd5b614a48878288016149b5565b95989497509550505050565b600080600080600060608688031215614a6c57600080fd5b8535614a778161451c565b945060208601356001600160401b0380821115614a9357600080fd5b614a9f89838a016149b5565b90965094506040880135915080821115614ab857600080fd5b50614ac5888289016149b5565b969995985093965092949392505050565b602081526000613b7a60208301846146ad565b6020808252602c908201527f46756e6374696f6e206d7573742062652063616c6c6564207468726f7567682060408201526b19195b1959d85d1958d85b1b60a21b606082015260800190565b6020808252602c908201527f46756e6374696f6e206d7573742062652063616c6c6564207468726f7567682060408201526b6163746976652070726f787960a01b606082015260800190565b600181811c90821680614b9557607f821691505b602082108103614bb557634e487b7160e01b600052602260045260246000fd5b50919050565b600060208284031215614bcd57600080fd5b81518015158114613b7a57600080fd5b6020808252600890820152672737ba102a21a79960c11b604082015260600190565b602080825260139082015272139bdd081c195b991a5b99c81c995c5d595cdd606a1b604082015260600190565b60018060a01b03831681526040602082015260008251610140806040850152614c59610180850183614794565b9150602085015160608501526040850151603f1980868503016080870152614c8184836146ad565b935060608701519150614c9f60a08701836001600160a01b03169052565b60808701519150808685030160c0870152614cba84836146ad565b935060a08701519150808685030160e0870152614cd784836146ad565b935060c08701519150610100818786030181880152614cf685846146ad565b945060e08801519250610120828887030181890152614d1586856146ad565b918901519488019490945292909601516101609095019490945295945050505050565b6000808335601e19843603018112614d4f57600080fd5b8301803591506001600160401b03821115614d6957600080fd5b6020019150600581901b36038213156123fd57600080fd5b6000808335601e19843603018112614d9857600080fd5b8301803591506001600160401b03821115614db257600080fd5b6020019150368190038213156123fd57600080fd5b600060208284031215614dd957600080fd5b5051919050565b634e487b7160e01b600052601160045260246000fd5b6000816000190483118215151615614e1057614e10614de0565b500290565b60008219821115614e2857614e28614de0565b500190565b600060208284031215614e3f57600080fd5b8151613b7a8161451c565b634e487b7160e01b600052603260045260246000fd5b8281526040810160078310614e7757614e7761476a565b8260208301529392505050565b600060018201614e9657614e96614de0565b5060010190565b600082821015614eaf57614eaf614de0565b500390565b600082614ed157634e487b7160e01b600052601260045260246000fd5b500490565b6020808252602b908201527f496e697469616c697a61626c653a20636f6e7472616374206973206e6f74206960408201526a6e697469616c697a696e6760a81b606082015260800190565b7f416363657373436f6e74726f6c3a206163636f756e7420000000000000000000815260008351614f59816017850160208801614681565b7001034b99036b4b9b9b4b733903937b6329607d1b6017918401918201528351614f8a816028840160208801614681565b01602801949350505050565b60008451614fa8818460208901614681565b605f60f81b9083019081528451614fc6816001840160208901614681565b602d60f81b600192909101918201528351614fe8816002840160208801614681565b0160020195945050505050565b60008351615007818460208801614681565b83519083019061501b818360208801614681565b01949350505050565b60008251615036818460208701614681565b602d60f81b920191825250600101919050565b60008060006060848603121561505e57600080fd5b835192506020840151915060408401516007811061507b57600080fd5b809150509250925092565b60006020828403121561509857600080fd5b81516001600160401b038111156150ae57600080fd5b8201601f810184136150bf57600080fd5b80516150cd6145f9826145c4565b8181528560208385010111156150e257600080fd5b6146fe826020830160208601614681565b84815260806020820152600061510c60808301866146ad565b828103604084015261511e81866146ad565b91505082606083015295945050505050565b60008161513f5761513f614de0565b506000190190565b600181815b8085111561385c57816000190482111561516857615168614de0565b8085161561517557918102915b93841c939080029061514c565b6000826151915750600161067e565b8161519e5750600061067e565b81600181146151b457600281146151be576151da565b600191505061067e565b60ff8411156151cf576151cf614de0565b50506001821b61067e565b5060208310610133831016604e8410600b84101617156151fd575081810a61067e565b6152078383615147565b806000190482111561521b5761521b614de0565b029392505050565b6000613b7a8383615182565b60008251615241818460208701614681565b919091019291505056fe360894a13ba1a3210667c828492db98dca3e2076cc3735a920a3ca505d382bbc416464726573733a206c6f772d6c6576656c2064656c65676174652063616c6c206661696c6564a2646970667358221220b20af69783b54bf3b9969b445ce692aae6117415c6e9be5b0325a60547aff5a964736f6c634300080e0033",
  "devdoc": {
    "kind": "dev",
    "methods": {
      "constructor": {
        "custom:oz-upgrades-unsafe-allow": "constructor"
      },
      "createDetokenizationRequest(address,uint256,uint256[])": {
        "details": "Only a TCO2 contract can call this function. Additionally, the escrow contract must have been approved to transfer the amount of TCO2 to detokenize.",
        "params": {
          "amount": "The amount of TCO2 to detokenize.",
          "batchTokenIds": "The ids of the batches to detokenize.",
          "user": "The user that is requesting the detokenization."
        }
      },
      "createRetirementRequest(address,(uint256[],uint256,string,address,string,string,string,string,uint256,uint256))": {
        "details": "Only a TCO2 contract can call this function. Additionally, the escrow contract must have been approved to transfer the amount of TCO2 to retire.",
        "params": {
          "params": "Retirement request params.",
          "user": "The user that is requesting the retirement."
        }
      },
      "finalizeDetokenizationRequest(uint256)": {
        "details": "Only the TCO2 contract can call this function.",
        "params": {
          "requestId": "The id of the request to finalize."
        }
      },
      "finalizeRetirementRequest(uint256)": {
        "details": "Only the TCO2 contract can call this function.",
        "params": {
          "requestId": "The id of the request to finalize."
        }
      },
      "getRoleAdmin(bytes32)": {
        "details": "Returns the admin role that controls `role`. See {grantRole} and {revokeRole}. To change a role's admin, use {_setRoleAdmin}."
      },
      "grantRole(bytes32,address)": {
        "details": "Grants `role` to `account`. If `account` had not been already granted `role`, emits a {RoleGranted} event. Requirements: - the caller must have ``role``'s admin role. May emit a {RoleGranted} event."
      },
      "hasRole(bytes32,address)": {
        "details": "Returns `true` if `account` has been granted `role`."
      },
      "owner()": {
        "details": "Returns the address of the current owner."
      },
      "paused()": {
        "details": "Returns true if the contract is paused, and false otherwise."
      },
      "proxiableUUID()": {
        "details": "Implementation of the ERC1822 {proxiableUUID} function. This returns the storage slot used by the implementation. It is used to validate the implementation's compatibility when performing an upgrade. IMPORTANT: A proxy pointing at a proxiable contract should not be considered proxiable itself, because this risks bricking a proxy that upgrades to it, by delegating to itself until out of gas. Thus it is critical that this function revert if invoked through a proxy. This is guaranteed by the `notDelegated` modifier."
      },
      "renounceOwnership()": {
        "details": "Leaves the contract without owner. It will not be possible to call `onlyOwner` functions. Can only be called by the current owner. NOTE: Renouncing ownership will leave the contract without an owner, thereby disabling any functionality that is only available to the owner."
      },
      "renounceRole(bytes32,address)": {
        "details": "Revokes `role` from the calling account. Roles are often managed via {grantRole} and {revokeRole}: this function's purpose is to provide a mechanism for accounts to lose their privileges if they are compromised (such as when a trusted device is misplaced). If the calling account had been revoked `role`, emits a {RoleRevoked} event. Requirements: - the caller must be `account`. May emit a {RoleRevoked} event."
      },
      "revertDetokenizationRequest(uint256)": {
        "details": "Only the TCO2 contract can call this function.",
        "params": {
          "requestId": "The id of the request to revert."
        }
      },
      "revertRetirementRequest(uint256)": {
        "details": "Only the TCO2 contract can call this function.",
        "params": {
          "requestId": "The id of the request to revert."
        }
      },
      "revokeRole(bytes32,address)": {
        "details": "Revokes `role` from `account`. If `account` had been granted `role`, emits a {RoleRevoked} event. Requirements: - the caller must have ``role``'s admin role. May emit a {RoleRevoked} event."
      },
      "splitSerialNumber(string,uint256)": {
        "params": {
          "amount": "The amount to split by.",
          "serialNumber": "The serial number to split."
        },
        "returns": {
          "balancingSerialNumber": "remainingSerialNumber The serial numbers split from the original serial number."
        }
      },
      "supportsInterface(bytes4)": {
        "details": "See {IERC165-supportsInterface}."
      },
      "transferOwnership(address)": {
        "details": "Transfers ownership of the contract to a new account (`newOwner`). Can only be called by the current owner."
      },
      "upgradeTo(address)": {
        "custom:oz-upgrades-unsafe-allow-reachable": "delegatecall",
        "details": "Upgrade the implementation of the proxy to `newImplementation`. Calls {_authorizeUpgrade}. Emits an {Upgraded} event."
      },
      "upgradeToAndCall(address,bytes)": {
        "custom:oz-upgrades-unsafe-allow-reachable": "delegatecall",
        "details": "Upgrade the implementation of the proxy to `newImplementation`, and subsequently execute the function call encoded in `data`. Calls {_authorizeUpgrade}. Emits an {Upgraded} event."
      }
    },
    "stateVariables": {
      "PAUSER_ROLE": {
        "details": "All roles related to accessing this contract"
      },
      "VERSION": {
        "details": "Version-related parameters. VERSION keeps track of production releases. VERSION_RELEASE_CANDIDATE keeps track of iterations of a VERSION in our staging environment."
      }
    },
    "version": 1
  },
  "userdoc": {
    "kind": "user",
    "methods": {
      "createDetokenizationRequest(address,uint256,uint256[])": {
        "notice": "Create a new detokenization request."
      },
      "createRetirementRequest(address,(uint256[],uint256,string,address,string,string,string,string,uint256,uint256))": {
        "notice": "Create a new retirement request."
      },
      "finalizeDetokenizationRequest(uint256)": {
        "notice": "Finalize a detokenization request by burning its amount of TCO2."
      },
      "finalizeRetirementRequest(uint256)": {
        "notice": "Finalize a retirement request by calling the retire and mint certificate function in respective TCO2 Batch, which can only be invoked by the escrow After retiring the amount of TCO2 is burned."
      },
      "revertDetokenizationRequest(uint256)": {
        "notice": "Revert a detokenization request by transfering amount of TCO2 back to the user."
      },
      "revertRetirementRequest(uint256)": {
        "notice": "Revert a retirement request by transfering amount of TCO2 back to the user."
      },
      "splitSerialNumber(string,uint256)": {
        "notice": "Split a serial number range into two parts based on the given amount."
      }
    },
    "notice": "Contract for escrowing TCO2s during detokenization or retirement until the off-chain registry confirms the detokenization or retirement request.",
    "version": 1
  },
  "storageLayout": {
    "storage": [
      {
        "astId": 2373,
        "contract": "contracts/ToucanCarbonOffsetsEscrow.sol:ToucanCarbonOffsetsEscrow",
        "label": "_initialized",
        "offset": 0,
        "slot": "0",
        "type": "t_uint8"
      },
      {
        "astId": 2376,
        "contract": "contracts/ToucanCarbonOffsetsEscrow.sol:ToucanCarbonOffsetsEscrow",
        "label": "_initializing",
        "offset": 1,
        "slot": "0",
        "type": "t_bool"
      },
      {
        "astId": 7515,
        "contract": "contracts/ToucanCarbonOffsetsEscrow.sol:ToucanCarbonOffsetsEscrow",
        "label": "__gap",
        "offset": 0,
        "slot": "1",
        "type": "t_array(t_uint256)50_storage"
      },
      {
        "astId": 1879,
        "contract": "contracts/ToucanCarbonOffsetsEscrow.sol:ToucanCarbonOffsetsEscrow",
        "label": "_owner",
        "offset": 0,
        "slot": "51",
        "type": "t_address"
      },
      {
        "astId": 1999,
        "contract": "contracts/ToucanCarbonOffsetsEscrow.sol:ToucanCarbonOffsetsEscrow",
        "label": "__gap",
        "offset": 0,
        "slot": "52",
        "type": "t_array(t_uint256)49_storage"
      },
      {
        "astId": 2694,
        "contract": "contracts/ToucanCarbonOffsetsEscrow.sol:ToucanCarbonOffsetsEscrow",
        "label": "_paused",
        "offset": 0,
        "slot": "101",
        "type": "t_bool"
      },
      {
        "astId": 2799,
        "contract": "contracts/ToucanCarbonOffsetsEscrow.sol:ToucanCarbonOffsetsEscrow",
        "label": "__gap",
        "offset": 0,
        "slot": "102",
        "type": "t_array(t_uint256)49_storage"
      },
      {
        "astId": 2355,
        "contract": "contracts/ToucanCarbonOffsetsEscrow.sol:ToucanCarbonOffsetsEscrow",
        "label": "__gap",
        "offset": 0,
        "slot": "151",
        "type": "t_array(t_uint256)50_storage"
      },
      {
        "astId": 2671,
        "contract": "contracts/ToucanCarbonOffsetsEscrow.sol:ToucanCarbonOffsetsEscrow",
        "label": "__gap",
        "offset": 0,
        "slot": "201",
        "type": "t_array(t_uint256)50_storage"
      },
      {
        "astId": 7899,
        "contract": "contracts/ToucanCarbonOffsetsEscrow.sol:ToucanCarbonOffsetsEscrow",
        "label": "__gap",
        "offset": 0,
        "slot": "251",
        "type": "t_array(t_uint256)50_storage"
      },
      {
        "astId": 1486,
        "contract": "contracts/ToucanCarbonOffsetsEscrow.sol:ToucanCarbonOffsetsEscrow",
        "label": "_roles",
        "offset": 0,
        "slot": "301",
        "type": "t_mapping(t_bytes32,t_struct(RoleData)1481_storage)"
      },
      {
        "astId": 1793,
        "contract": "contracts/ToucanCarbonOffsetsEscrow.sol:ToucanCarbonOffsetsEscrow",
        "label": "__gap",
        "offset": 0,
        "slot": "302",
        "type": "t_array(t_uint256)49_storage"
      },
      {
        "astId": 20886,
        "contract": "contracts/ToucanCarbonOffsetsEscrow.sol:ToucanCarbonOffsetsEscrow",
        "label": "contractRegistry",
        "offset": 0,
        "slot": "351",
        "type": "t_address"
      },
      {
        "astId": 20888,
        "contract": "contracts/ToucanCarbonOffsetsEscrow.sol:ToucanCarbonOffsetsEscrow",
        "label": "detokenizationRequestIdCounter",
        "offset": 0,
        "slot": "352",
        "type": "t_uint256"
      },
      {
        "astId": 20893,
        "contract": "contracts/ToucanCarbonOffsetsEscrow.sol:ToucanCarbonOffsetsEscrow",
        "label": "_detokenizationRequests",
        "offset": 0,
        "slot": "353",
        "type": "t_mapping(t_uint256,t_struct(DetokenizationRequest)20919_storage)"
      },
      {
        "astId": 20895,
        "contract": "contracts/ToucanCarbonOffsetsEscrow.sol:ToucanCarbonOffsetsEscrow",
        "label": "retirementRequestIdCounter",
        "offset": 0,
        "slot": "354",
        "type": "t_uint256"
      },
      {
        "astId": 20900,
        "contract": "contracts/ToucanCarbonOffsetsEscrow.sol:ToucanCarbonOffsetsEscrow",
        "label": "_retirementRequests",
        "offset": 0,
        "slot": "355",
        "type": "t_mapping(t_uint256,t_struct(RetirementRequest)20948_storage)"
      }
    ],
    "types": {
      "t_address": {
        "encoding": "inplace",
        "label": "address",
        "numberOfBytes": "20"
      },
      "t_array(t_uint256)49_storage": {
        "base": "t_uint256",
        "encoding": "inplace",
        "label": "uint256[49]",
        "numberOfBytes": "1568"
      },
      "t_array(t_uint256)50_storage": {
        "base": "t_uint256",
        "encoding": "inplace",
        "label": "uint256[50]",
        "numberOfBytes": "1600"
      },
      "t_array(t_uint256)dyn_storage": {
        "base": "t_uint256",
        "encoding": "dynamic_array",
        "label": "uint256[]",
        "numberOfBytes": "32"
      },
      "t_bool": {
        "encoding": "inplace",
        "label": "bool",
        "numberOfBytes": "1"
      },
      "t_bytes32": {
        "encoding": "inplace",
        "label": "bytes32",
        "numberOfBytes": "32"
      },
      "t_enum(RequestStatus)20952": {
        "encoding": "inplace",
        "label": "enum RequestStatus",
        "numberOfBytes": "1"
      },
      "t_mapping(t_address,t_bool)": {
        "encoding": "mapping",
        "key": "t_address",
        "label": "mapping(address => bool)",
        "numberOfBytes": "32",
        "value": "t_bool"
      },
      "t_mapping(t_bytes32,t_struct(RoleData)1481_storage)": {
        "encoding": "mapping",
        "key": "t_bytes32",
        "label": "mapping(bytes32 => struct AccessControlUpgradeable.RoleData)",
        "numberOfBytes": "32",
        "value": "t_struct(RoleData)1481_storage"
      },
      "t_mapping(t_uint256,t_struct(DetokenizationRequest)20919_storage)": {
        "encoding": "mapping",
        "key": "t_uint256",
        "label": "mapping(uint256 => struct DetokenizationRequest)",
        "numberOfBytes": "32",
        "value": "t_struct(DetokenizationRequest)20919_storage"
      },
      "t_mapping(t_uint256,t_struct(RetirementRequest)20948_storage)": {
        "encoding": "mapping",
        "key": "t_uint256",
        "label": "mapping(uint256 => struct RetirementRequest)",
        "numberOfBytes": "32",
        "value": "t_struct(RetirementRequest)20948_storage"
      },
      "t_string_storage": {
        "encoding": "bytes",
        "label": "string",
        "numberOfBytes": "32"
      },
      "t_struct(DetokenizationRequest)20919_storage": {
        "encoding": "inplace",
        "label": "struct DetokenizationRequest",
        "members": [
          {
            "astId": 20908,
            "contract": "contracts/ToucanCarbonOffsetsEscrow.sol:ToucanCarbonOffsetsEscrow",
            "label": "user",
            "offset": 0,
            "slot": "0",
            "type": "t_address"
          },
          {
            "astId": 20910,
            "contract": "contracts/ToucanCarbonOffsetsEscrow.sol:ToucanCarbonOffsetsEscrow",
            "label": "amount",
            "offset": 0,
            "slot": "1",
            "type": "t_uint256"
          },
          {
            "astId": 20913,
            "contract": "contracts/ToucanCarbonOffsetsEscrow.sol:ToucanCarbonOffsetsEscrow",
            "label": "status",
            "offset": 0,
            "slot": "2",
            "type": "t_enum(RequestStatus)20952"
          },
          {
            "astId": 20916,
            "contract": "contracts/ToucanCarbonOffsetsEscrow.sol:ToucanCarbonOffsetsEscrow",
            "label": "batchTokenIds",
            "offset": 0,
            "slot": "3",
            "type": "t_array(t_uint256)dyn_storage"
          },
          {
            "astId": 20918,
            "contract": "contracts/ToucanCarbonOffsetsEscrow.sol:ToucanCarbonOffsetsEscrow",
            "label": "projectVintageTokenId",
            "offset": 0,
            "slot": "4",
            "type": "t_uint256"
          }
        ],
        "numberOfBytes": "160"
      },
      "t_struct(RetirementRequest)20948_storage": {
        "encoding": "inplace",
        "label": "struct RetirementRequest",
        "members": [
          {
            "astId": 20921,
            "contract": "contracts/ToucanCarbonOffsetsEscrow.sol:ToucanCarbonOffsetsEscrow",
            "label": "user",
            "offset": 0,
            "slot": "0",
            "type": "t_address"
          },
          {
            "astId": 20923,
            "contract": "contracts/ToucanCarbonOffsetsEscrow.sol:ToucanCarbonOffsetsEscrow",
            "label": "amount",
            "offset": 0,
            "slot": "1",
            "type": "t_uint256"
          },
          {
            "astId": 20926,
            "contract": "contracts/ToucanCarbonOffsetsEscrow.sol:ToucanCarbonOffsetsEscrow",
            "label": "status",
            "offset": 0,
            "slot": "2",
            "type": "t_enum(RequestStatus)20952"
          },
          {
            "astId": 20929,
            "contract": "contracts/ToucanCarbonOffsetsEscrow.sol:ToucanCarbonOffsetsEscrow",
            "label": "batchTokenIds",
            "offset": 0,
            "slot": "3",
            "type": "t_array(t_uint256)dyn_storage"
          },
          {
            "astId": 20931,
            "contract": "contracts/ToucanCarbonOffsetsEscrow.sol:ToucanCarbonOffsetsEscrow",
            "label": "retiringEntityString",
            "offset": 0,
            "slot": "4",
            "type": "t_string_storage"
          },
          {
            "astId": 20933,
            "contract": "contracts/ToucanCarbonOffsetsEscrow.sol:ToucanCarbonOffsetsEscrow",
            "label": "beneficiary",
            "offset": 0,
            "slot": "5",
            "type": "t_address"
          },
          {
            "astId": 20935,
            "contract": "contracts/ToucanCarbonOffsetsEscrow.sol:ToucanCarbonOffsetsEscrow",
            "label": "beneficiaryString",
            "offset": 0,
            "slot": "6",
            "type": "t_string_storage"
          },
          {
            "astId": 20937,
            "contract": "contracts/ToucanCarbonOffsetsEscrow.sol:ToucanCarbonOffsetsEscrow",
            "label": "retirementMessage",
            "offset": 0,
            "slot": "7",
            "type": "t_string_storage"
          },
          {
            "astId": 20939,
            "contract": "contracts/ToucanCarbonOffsetsEscrow.sol:ToucanCarbonOffsetsEscrow",
            "label": "beneficiaryLocation",
            "offset": 0,
            "slot": "8",
            "type": "t_string_storage"
          },
          {
            "astId": 20941,
            "contract": "contracts/ToucanCarbonOffsetsEscrow.sol:ToucanCarbonOffsetsEscrow",
            "label": "consumptionCountryCode",
            "offset": 0,
            "slot": "9",
            "type": "t_string_storage"
          },
          {
            "astId": 20943,
            "contract": "contracts/ToucanCarbonOffsetsEscrow.sol:ToucanCarbonOffsetsEscrow",
            "label": "consumptionPeriodStart",
            "offset": 0,
            "slot": "10",
            "type": "t_uint256"
          },
          {
            "astId": 20945,
            "contract": "contracts/ToucanCarbonOffsetsEscrow.sol:ToucanCarbonOffsetsEscrow",
            "label": "consumptionPeriodEnd",
            "offset": 0,
            "slot": "11",
            "type": "t_uint256"
          },
          {
            "astId": 20947,
            "contract": "contracts/ToucanCarbonOffsetsEscrow.sol:ToucanCarbonOffsetsEscrow",
            "label": "projectVintageTokenId",
            "offset": 0,
            "slot": "12",
            "type": "t_uint256"
          }
        ],
        "numberOfBytes": "416"
      },
      "t_struct(RoleData)1481_storage": {
        "encoding": "inplace",
        "label": "struct AccessControlUpgradeable.RoleData",
        "members": [
          {
            "astId": 1478,
            "contract": "contracts/ToucanCarbonOffsetsEscrow.sol:ToucanCarbonOffsetsEscrow",
            "label": "members",
            "offset": 0,
            "slot": "0",
            "type": "t_mapping(t_address,t_bool)"
          },
          {
            "astId": 1480,
            "contract": "contracts/ToucanCarbonOffsetsEscrow.sol:ToucanCarbonOffsetsEscrow",
            "label": "adminRole",
            "offset": 0,
            "slot": "1",
            "type": "t_bytes32"
          }
        ],
        "numberOfBytes": "64"
      },
      "t_uint256": {
        "encoding": "inplace",
        "label": "uint256",
        "numberOfBytes": "32"
      },
      "t_uint8": {
        "encoding": "inplace",
        "label": "uint8",
        "numberOfBytes": "1"
      }
    }
  }
}