{
  "address": "0xA0E7746682Ad554528f66af65Df6157a6E2d77c6",
  "abi": [
    {
      "inputs": [
        {
          "internalType": "address",
          "name": "mailbox",
          "type": "address"
        }
      ],
      "stateMutability": "nonpayable",
      "type": "constructor"
    },
    {
      "anonymous": false,
      "inputs": [
        {
          "indexed": false,
          "internalType": "address",
          "name": "previousAdmin",
          "type": "address"
        },
        {
          "indexed": false,
          "internalType": "address",
          "name": "newAdmin",
          "type": "address"
        }
      ],
      "name": "AdminChanged",
      "type": "event"
    },
    {
      "anonymous": false,
      "inputs": [
        {
          "indexed": true,
          "internalType": "address",
          "name": "beacon",
          "type": "address"
        }
      ],
      "name": "BeaconUpgraded",
      "type": "event"
    },
    {
      "anonymous": false,
      "inputs": [
        {
          "indexed": true,
          "internalType": "uint32",
          "name": "originDomain",
          "type": "uint32"
        },
        {
          "indexed": false,
          "internalType": "uint32",
          "name": "toDomain",
          "type": "uint32"
        },
        {
          "indexed": true,
          "internalType": "address",
          "name": "bridger",
          "type": "address"
        },
        {
          "indexed": false,
          "internalType": "address",
          "name": "recipient",
          "type": "address"
        },
        {
          "indexed": true,
          "internalType": "address",
          "name": "token",
          "type": "address"
        },
        {
          "indexed": false,
          "internalType": "uint256",
          "name": "amount",
          "type": "uint256"
        },
        {
          "indexed": false,
          "internalType": "bytes32",
          "name": "requesthash",
          "type": "bytes32"
        }
      ],
      "name": "BridgeRequestReceived",
      "type": "event"
    },
    {
      "anonymous": false,
      "inputs": [
        {
          "indexed": false,
          "internalType": "uint32",
          "name": "originDomain",
          "type": "uint32"
        },
        {
          "indexed": true,
          "internalType": "uint32",
          "name": "toDomain",
          "type": "uint32"
        },
        {
          "indexed": true,
          "internalType": "address",
          "name": "bridger",
          "type": "address"
        },
        {
          "indexed": false,
          "internalType": "address",
          "name": "recipient",
          "type": "address"
        },
        {
          "indexed": true,
          "internalType": "address",
          "name": "token",
          "type": "address"
        },
        {
          "indexed": false,
          "internalType": "uint256",
          "name": "amount",
          "type": "uint256"
        },
        {
          "indexed": false,
          "internalType": "uint256",
          "name": "nonce",
          "type": "uint256"
        },
        {
          "indexed": false,
          "internalType": "bytes32",
          "name": "requesthash",
          "type": "bytes32"
        }
      ],
      "name": "BridgeRequestSent",
      "type": "event"
    },
    {
      "anonymous": false,
      "inputs": [
        {
          "indexed": false,
          "internalType": "uint8",
          "name": "version",
          "type": "uint8"
        }
      ],
      "name": "Initialized",
      "type": "event"
    },
    {
      "anonymous": false,
      "inputs": [
        {
          "indexed": true,
          "internalType": "address",
          "name": "previousOwner",
          "type": "address"
        },
        {
          "indexed": true,
          "internalType": "address",
          "name": "newOwner",
          "type": "address"
        }
      ],
      "name": "OwnershipTransferred",
      "type": "event"
    },
    {
      "anonymous": false,
      "inputs": [
        {
          "indexed": false,
          "internalType": "address",
          "name": "account",
          "type": "address"
        }
      ],
      "name": "Paused",
      "type": "event"
    },
    {
      "anonymous": false,
      "inputs": [
        {
          "indexed": true,
          "internalType": "uint32",
          "name": "originDomain",
          "type": "uint32"
        },
        {
          "indexed": true,
          "internalType": "uint32",
          "name": "toDomain",
          "type": "uint32"
        },
        {
          "indexed": true,
          "internalType": "address",
          "name": "bridger",
          "type": "address"
        },
        {
          "indexed": false,
          "internalType": "address",
          "name": "recipient",
          "type": "address"
        },
        {
          "indexed": false,
          "internalType": "address[]",
          "name": "tokens",
          "type": "address[]"
        },
        {
          "indexed": false,
          "internalType": "uint256[]",
          "name": "amounts",
          "type": "uint256[]"
        },
        {
          "indexed": false,
          "internalType": "bytes32",
          "name": "requesthash",
          "type": "bytes32"
        }
      ],
      "name": "PoolRebalancingRequestReceived",
      "type": "event"
    },
    {
      "anonymous": false,
      "inputs": [
        {
          "indexed": true,
          "internalType": "uint32",
          "name": "originDomain",
          "type": "uint32"
        },
        {
          "indexed": true,
          "internalType": "uint32",
          "name": "toDomain",
          "type": "uint32"
        },
        {
          "indexed": true,
          "internalType": "address",
          "name": "bridger",
          "type": "address"
        },
        {
          "indexed": false,
          "internalType": "address",
          "name": "recipient",
          "type": "address"
        },
        {
          "indexed": false,
          "internalType": "address[]",
          "name": "tokens",
          "type": "address[]"
        },
        {
          "indexed": false,
          "internalType": "uint256[]",
          "name": "amounts",
          "type": "uint256[]"
        },
        {
          "indexed": false,
          "internalType": "uint256",
          "name": "nonce",
          "type": "uint256"
        },
        {
          "indexed": false,
          "internalType": "bytes32",
          "name": "requesthash",
          "type": "bytes32"
        }
      ],
      "name": "PoolRebalancingRequestSent",
      "type": "event"
    },
    {
      "anonymous": false,
      "inputs": [
        {
          "indexed": true,
          "internalType": "bytes32",
          "name": "role",
          "type": "bytes32"
        },
        {
          "indexed": true,
          "internalType": "bytes32",
          "name": "previousAdminRole",
          "type": "bytes32"
        },
        {
          "indexed": true,
          "internalType": "bytes32",
          "name": "newAdminRole",
          "type": "bytes32"
        }
      ],
      "name": "RoleAdminChanged",
      "type": "event"
    },
    {
      "anonymous": false,
      "inputs": [
        {
          "indexed": true,
          "internalType": "bytes32",
          "name": "role",
          "type": "bytes32"
        },
        {
          "indexed": true,
          "internalType": "address",
          "name": "account",
          "type": "address"
        },
        {
          "indexed": true,
          "internalType": "address",
          "name": "sender",
          "type": "address"
        }
      ],
      "name": "RoleGranted",
      "type": "event"
    },
    {
      "anonymous": false,
      "inputs": [
        {
          "indexed": true,
          "internalType": "bytes32",
          "name": "role",
          "type": "bytes32"
        },
        {
          "indexed": true,
          "internalType": "address",
          "name": "account",
          "type": "address"
        },
        {
          "indexed": true,
          "internalType": "address",
          "name": "sender",
          "type": "address"
        }
      ],
      "name": "RoleRevoked",
      "type": "event"
    },
    {
      "anonymous": false,
      "inputs": [
        {
          "indexed": true,
          "internalType": "address",
          "name": "homeTokenAddress",
          "type": "address"
        },
        {
          "indexed": true,
          "internalType": "address",
          "name": "remoteTokenAddress",
          "type": "address"
        },
        {
          "indexed": false,
          "internalType": "uint32",
          "name": "domainId",
          "type": "uint32"
        }
      ],
      "name": "TokenPairAdded",
      "type": "event"
    },
    {
      "anonymous": false,
      "inputs": [
        {
          "indexed": true,
          "internalType": "address",
          "name": "homeTokenAddress",
          "type": "address"
        },
        {
          "indexed": true,
          "internalType": "address",
          "name": "remoteTokenAddress",
          "type": "address"
        },
        {
          "indexed": false,
          "internalType": "uint32",
          "name": "domainId",
          "type": "uint32"
        }
      ],
      "name": "TokenPairRemoved",
      "type": "event"
    },
    {
      "anonymous": false,
      "inputs": [
        {
          "indexed": false,
          "internalType": "address",
          "name": "account",
          "type": "address"
        }
      ],
      "name": "Unpaused",
      "type": "event"
    },
    {
      "anonymous": false,
      "inputs": [
        {
          "indexed": true,
          "internalType": "address",
          "name": "implementation",
          "type": "address"
        }
      ],
      "name": "Upgraded",
      "type": "event"
    },
    {
      "inputs": [],
      "name": "BRIDGER_ROLE",
      "outputs": [
        {
          "internalType": "bytes32",
          "name": "",
          "type": "bytes32"
        }
      ],
      "stateMutability": "view",
      "type": "function"
    },
    {
      "inputs": [],
      "name": "DEFAULT_ADMIN_ROLE",
      "outputs": [
        {
          "internalType": "bytes32",
          "name": "",
          "type": "bytes32"
        }
      ],
      "stateMutability": "view",
      "type": "function"
    },
    {
      "inputs": [],
      "name": "DOMAIN_SEPARATOR",
      "outputs": [
        {
          "internalType": "bytes32",
          "name": "",
          "type": "bytes32"
        }
      ],
      "stateMutability": "view",
      "type": "function"
    },
    {
      "inputs": [],
      "name": "EIP712DomainHash",
      "outputs": [
        {
          "internalType": "bytes32",
          "name": "",
          "type": "bytes32"
        }
      ],
      "stateMutability": "view",
      "type": "function"
    },
    {
      "inputs": [],
      "name": "PAUSER_ROLE",
      "outputs": [
        {
          "internalType": "bytes32",
          "name": "",
          "type": "bytes32"
        }
      ],
      "stateMutability": "view",
      "type": "function"
    },
    {
      "inputs": [],
      "name": "VERSION",
      "outputs": [
        {
          "internalType": "string",
          "name": "",
          "type": "string"
        }
      ],
      "stateMutability": "view",
      "type": "function"
    },
    {
      "inputs": [],
      "name": "VERSION_RELEASE_CANDIDATE",
      "outputs": [
        {
          "internalType": "uint256",
          "name": "",
          "type": "uint256"
        }
      ],
      "stateMutability": "view",
      "type": "function"
    },
    {
      "inputs": [
        {
          "internalType": "address",
          "name": "homeToken",
          "type": "address"
        },
        {
          "internalType": "address",
          "name": "remoteToken",
          "type": "address"
        },
        {
          "internalType": "uint32",
          "name": "domain",
          "type": "uint32"
        }
      ],
      "name": "addTokenPair",
      "outputs": [],
      "stateMutability": "nonpayable",
      "type": "function"
    },
    {
      "inputs": [
        {
          "internalType": "address[]",
          "name": "homeTokens",
          "type": "address[]"
        },
        {
          "internalType": "address[]",
          "name": "remoteTokens_",
          "type": "address[]"
        },
        {
          "internalType": "uint32",
          "name": "domain",
          "type": "uint32"
        }
      ],
      "name": "batchAddTokenPair",
      "outputs": [],
      "stateMutability": "nonpayable",
      "type": "function"
    },
    {
      "inputs": [
        {
          "internalType": "uint32",
          "name": "destinationDomain",
          "type": "uint32"
        },
        {
          "internalType": "address[]",
          "name": "tokens",
          "type": "address[]"
        },
        {
          "internalType": "uint256[]",
          "name": "amounts",
          "type": "uint256[]"
        },
        {
          "internalType": "address",
          "name": "recipient",
          "type": "address"
        }
      ],
      "name": "bridgeTCO2s",
      "outputs": [],
      "stateMutability": "payable",
      "type": "function"
    },
    {
      "inputs": [],
      "name": "domains",
      "outputs": [
        {
          "internalType": "uint32[]",
          "name": "",
          "type": "uint32[]"
        }
      ],
      "stateMutability": "view",
      "type": "function"
    },
    {
      "inputs": [
        {
          "internalType": "uint32",
          "name": "_domain",
          "type": "uint32"
        },
        {
          "internalType": "bytes32",
          "name": "_router",
          "type": "bytes32"
        }
      ],
      "name": "enrollRemoteRouter",
      "outputs": [],
      "stateMutability": "nonpayable",
      "type": "function"
    },
    {
      "inputs": [
        {
          "internalType": "uint32[]",
          "name": "_domains",
          "type": "uint32[]"
        },
        {
          "internalType": "bytes32[]",
          "name": "_addresses",
          "type": "bytes32[]"
        }
      ],
      "name": "enrollRemoteRouters",
      "outputs": [],
      "stateMutability": "nonpayable",
      "type": "function"
    },
    {
      "inputs": [
        {
          "internalType": "bytes32",
          "name": "role",
          "type": "bytes32"
        }
      ],
      "name": "getRoleAdmin",
      "outputs": [
        {
          "internalType": "bytes32",
          "name": "",
          "type": "bytes32"
        }
      ],
      "stateMutability": "view",
      "type": "function"
    },
    {
      "inputs": [
        {
          "internalType": "bytes32",
          "name": "role",
          "type": "bytes32"
        },
        {
          "internalType": "address",
          "name": "account",
          "type": "address"
        }
      ],
      "name": "grantRole",
      "outputs": [],
      "stateMutability": "nonpayable",
      "type": "function"
    },
    {
      "inputs": [
        {
          "internalType": "uint32",
          "name": "_origin",
          "type": "uint32"
        },
        {
          "internalType": "bytes32",
          "name": "_sender",
          "type": "bytes32"
        },
        {
          "internalType": "bytes",
          "name": "_message",
          "type": "bytes"
        }
      ],
      "name": "handle",
      "outputs": [],
      "stateMutability": "payable",
      "type": "function"
    },
    {
      "inputs": [
        {
          "internalType": "bytes32",
          "name": "role",
          "type": "bytes32"
        },
        {
          "internalType": "address",
          "name": "account",
          "type": "address"
        }
      ],
      "name": "hasRole",
      "outputs": [
        {
          "internalType": "bool",
          "name": "",
          "type": "bool"
        }
      ],
      "stateMutability": "view",
      "type": "function"
    },
    {
      "inputs": [],
      "name": "hook",
      "outputs": [
        {
          "internalType": "contract IPostDispatchHook",
          "name": "",
          "type": "address"
        }
      ],
      "stateMutability": "view",
      "type": "function"
    },
    {
      "inputs": [
        {
          "internalType": "address",
          "name": "owner",
          "type": "address"
        },
        {
          "internalType": "address[]",
          "name": "accounts",
          "type": "address[]"
        },
        {
          "internalType": "bytes32[]",
          "name": "roles",
          "type": "bytes32[]"
        }
      ],
      "name": "initialize",
      "outputs": [],
      "stateMutability": "nonpayable",
      "type": "function"
    },
    {
      "inputs": [],
      "name": "interchainSecurityModule",
      "outputs": [
        {
          "internalType": "contract IInterchainSecurityModule",
          "name": "",
          "type": "address"
        }
      ],
      "stateMutability": "view",
      "type": "function"
    },
    {
      "inputs": [],
      "name": "localDomain",
      "outputs": [
        {
          "internalType": "uint32",
          "name": "",
          "type": "uint32"
        }
      ],
      "stateMutability": "view",
      "type": "function"
    },
    {
      "inputs": [],
      "name": "mailbox",
      "outputs": [
        {
          "internalType": "contract IMailbox",
          "name": "",
          "type": "address"
        }
      ],
      "stateMutability": "view",
      "type": "function"
    },
    {
      "inputs": [],
      "name": "nonce",
      "outputs": [
        {
          "internalType": "uint256",
          "name": "",
          "type": "uint256"
        }
      ],
      "stateMutability": "view",
      "type": "function"
    },
    {
      "inputs": [],
      "name": "owner",
      "outputs": [
        {
          "internalType": "address",
          "name": "",
          "type": "address"
        }
      ],
      "stateMutability": "view",
      "type": "function"
    },
    {
      "inputs": [],
      "name": "pause",
      "outputs": [],
      "stateMutability": "nonpayable",
      "type": "function"
    },
    {
      "inputs": [],
      "name": "paused",
      "outputs": [
        {
          "internalType": "bool",
          "name": "",
          "type": "bool"
        }
      ],
      "stateMutability": "view",
      "type": "function"
    },
    {
      "inputs": [],
      "name": "proxiableUUID",
      "outputs": [
        {
          "internalType": "bytes32",
          "name": "",
          "type": "bytes32"
        }
      ],
      "stateMutability": "view",
      "type": "function"
    },
    {
      "inputs": [
        {
          "internalType": "uint32",
          "name": "destinationDomain",
          "type": "uint32"
        },
        {
          "internalType": "address[]",
          "name": "tokens",
          "type": "address[]"
        },
        {
          "internalType": "uint256[]",
          "name": "amounts",
          "type": "uint256[]"
        },
        {
          "internalType": "address",
          "name": "recipient",
          "type": "address"
        }
      ],
      "name": "quoteBridgeTCO2sFee",
      "outputs": [
        {
          "internalType": "uint256",
          "name": "",
          "type": "uint256"
        }
      ],
      "stateMutability": "view",
      "type": "function"
    },
    {
      "inputs": [
        {
          "internalType": "uint32",
          "name": "destinationDomain",
          "type": "uint32"
        },
        {
          "internalType": "address",
          "name": "token",
          "type": "address"
        },
        {
          "internalType": "uint256",
          "name": "amount",
          "type": "uint256"
        },
        {
          "internalType": "address",
          "name": "recipient",
          "type": "address"
        }
      ],
      "name": "quoteTokenTransferFee",
      "outputs": [
        {
          "internalType": "uint256",
          "name": "",
          "type": "uint256"
        }
      ],
      "stateMutability": "view",
      "type": "function"
    },
    {
      "inputs": [
        {
          "internalType": "address",
          "name": "token",
          "type": "address"
        },
        {
          "internalType": "uint32",
          "name": "domain",
          "type": "uint32"
        }
      ],
      "name": "remoteTokens",
      "outputs": [
        {
          "components": [
            {
              "internalType": "address",
              "name": "tokenAddress",
              "type": "address"
            },
            {
              "internalType": "uint256",
              "name": "timer",
              "type": "uint256"
            }
          ],
          "internalType": "struct RemoteTokenInformation",
          "name": "",
          "type": "tuple"
        }
      ],
      "stateMutability": "view",
      "type": "function"
    },
    {
      "inputs": [],
      "name": "renounceOwnership",
      "outputs": [],
      "stateMutability": "nonpayable",
      "type": "function"
    },
    {
      "inputs": [
        {
          "internalType": "bytes32",
          "name": "role",
          "type": "bytes32"
        },
        {
          "internalType": "address",
          "name": "account",
          "type": "address"
        }
      ],
      "name": "renounceRole",
      "outputs": [],
      "stateMutability": "nonpayable",
      "type": "function"
    },
    {
      "inputs": [
        {
          "internalType": "bytes32",
          "name": "",
          "type": "bytes32"
        }
      ],
      "name": "requests",
      "outputs": [
        {
          "internalType": "bool",
          "name": "isReverted",
          "type": "bool"
        },
        {
          "internalType": "uint256",
          "name": "timestamp",
          "type": "uint256"
        },
        {
          "internalType": "enum BridgeRequestType",
          "name": "requestType",
          "type": "uint8"
        },
        {
          "internalType": "enum MessageType",
          "name": "messageType",
          "type": "uint8"
        }
      ],
      "stateMutability": "view",
      "type": "function"
    },
    {
      "inputs": [
        {
          "internalType": "bytes32",
          "name": "role",
          "type": "bytes32"
        },
        {
          "internalType": "address",
          "name": "account",
          "type": "address"
        }
      ],
      "name": "revokeRole",
      "outputs": [],
      "stateMutability": "nonpayable",
      "type": "function"
    },
    {
      "inputs": [
        {
          "internalType": "uint32",
          "name": "_domain",
          "type": "uint32"
        }
      ],
      "name": "routers",
      "outputs": [
        {
          "internalType": "bytes32",
          "name": "",
          "type": "bytes32"
        }
      ],
      "stateMutability": "view",
      "type": "function"
    },
    {
      "inputs": [
        {
          "internalType": "address",
          "name": "_hook",
          "type": "address"
        }
      ],
      "name": "setHook",
      "outputs": [],
      "stateMutability": "nonpayable",
      "type": "function"
    },
    {
      "inputs": [
        {
          "internalType": "address",
          "name": "_module",
          "type": "address"
        }
      ],
      "name": "setInterchainSecurityModule",
      "outputs": [],
      "stateMutability": "nonpayable",
      "type": "function"
    },
    {
      "inputs": [
        {
          "internalType": "bytes4",
          "name": "interfaceId",
          "type": "bytes4"
        }
      ],
      "name": "supportsInterface",
      "outputs": [
        {
          "internalType": "bool",
          "name": "",
          "type": "bool"
        }
      ],
      "stateMutability": "view",
      "type": "function"
    },
    {
      "inputs": [
        {
          "internalType": "address",
          "name": "newOwner",
          "type": "address"
        }
      ],
      "name": "transferOwnership",
      "outputs": [],
      "stateMutability": "nonpayable",
      "type": "function"
    },
    {
      "inputs": [
        {
          "internalType": "uint32",
          "name": "destinationDomain",
          "type": "uint32"
        },
        {
          "internalType": "address",
          "name": "token",
          "type": "address"
        },
        {
          "internalType": "uint256",
          "name": "amount",
          "type": "uint256"
        }
      ],
      "name": "transferTokens",
      "outputs": [],
      "stateMutability": "payable",
      "type": "function"
    },
    {
      "inputs": [
        {
          "internalType": "uint32",
          "name": "destinationDomain",
          "type": "uint32"
        },
        {
          "internalType": "address",
          "name": "token",
          "type": "address"
        },
        {
          "internalType": "uint256",
          "name": "amount",
          "type": "uint256"
        },
        {
          "internalType": "address",
          "name": "recipient",
          "type": "address"
        }
      ],
      "name": "transferTokensToRecipient",
      "outputs": [],
      "stateMutability": "payable",
      "type": "function"
    },
    {
      "inputs": [
        {
          "internalType": "uint32",
          "name": "_domain",
          "type": "uint32"
        }
      ],
      "name": "unenrollRemoteRouter",
      "outputs": [],
      "stateMutability": "nonpayable",
      "type": "function"
    },
    {
      "inputs": [
        {
          "internalType": "uint32[]",
          "name": "_domains",
          "type": "uint32[]"
        }
      ],
      "name": "unenrollRemoteRouters",
      "outputs": [],
      "stateMutability": "nonpayable",
      "type": "function"
    },
    {
      "inputs": [],
      "name": "unpause",
      "outputs": [],
      "stateMutability": "nonpayable",
      "type": "function"
    },
    {
      "inputs": [
        {
          "internalType": "address",
          "name": "newImplementation",
          "type": "address"
        }
      ],
      "name": "upgradeTo",
      "outputs": [],
      "stateMutability": "nonpayable",
      "type": "function"
    },
    {
      "inputs": [
        {
          "internalType": "address",
          "name": "newImplementation",
          "type": "address"
        },
        {
          "internalType": "bytes",
          "name": "data",
          "type": "bytes"
        }
      ],
      "name": "upgradeToAndCall",
      "outputs": [],
      "stateMutability": "payable",
      "type": "function"
    }
  ],
  "numDeployments": 1,
  "solcInputHash": "21ae5f70988e66da4bff33b9b6a2fdaf",
  "bytecode": "0x60e0604052306080523480156200001557600080fd5b50604051620049d5380380620049d583398101604081905262000038916200025d565b80808062000051816200013d60201b620018221760201c565b620000a35760405162461bcd60e51b815260206004820152601e60248201527f4d61696c626f78436c69656e743a20696e76616c6964206d61696c626f78000060448201526064015b60405180910390fd5b6001600160a01b03821660a08190526040805163234d8e3d60e21b81529051638d3638f4916004808201926020929091908290030181865afa158015620000ee573d6000803e3d6000fd5b505050506040513d601f19601f820116820180604052508101906200011491906200028f565b63ffffffff1660c05262000128336200014c565b50620001369150506200019f565b50620002b7565b6001600160a01b03163b151590565b61012d80546001600160a01b038381166001600160a01b0319831681179093556040519116919082907f8be0079c531659141344cd1fd0a4f28419497f9722a3daafe3b4186f6b6457e090600090a35050565b600054610100900460ff1615620002095760405162461bcd60e51b815260206004820152602760248201527f496e697469616c697a61626c653a20636f6e747261637420697320696e697469604482015266616c697a696e6760c81b60648201526084016200009a565b60005460ff908116146200025b576000805460ff191660ff9081179091556040519081527f7f26b83ff96e1f2b6a682f133852f6798a09c465da95921460cefb38474024989060200160405180910390a15b565b6000602082840312156200027057600080fd5b81516001600160a01b03811681146200028857600080fd5b9392505050565b600060208284031215620002a257600080fd5b815163ffffffff811681146200028857600080fd5b60805160a05160c0516146af620003266000396000818161057b01528181610aa001526113db0152600081816107b50152818161101f01528181612b6a0152612ed3015260008181610ccd01528181610d0d01528181610e9f01528181610edf0152610f6e01526146af6000f3fe60806040526004361061027d5760003560e01c80638d3638f41161014f578063d3f6c4f1116100c1578063e9198bf91161007a578063e9198bf91461086c578063efae508a1461088c578063f292e805146108ac578063f2fde38b146108bf578063f8d8353f146108df578063ffa1ad74146108ff57600080fd5b8063d3f6c4f114610790578063d5438eae146107a3578063d547741f146107d7578063d9e7e0b7146107f7578063de523cf314610817578063e63ab1e91461083857600080fd5b8063a217fddf11610113578063a217fddf1461066c578063affed0e014610681578063b49c53a714610698578063b7220e22146106b8578063bdaca27a146106d8578063c0d5f4471461077057600080fd5b80638d3638f4146105695780638da5cb5b146105b257806391d14854146105d157806394eda280146105f15780639d8669851461061157600080fd5b80633f4ba83a116101f35780636ca0b0d7116101ac5780636ca0b0d71461049d57806370722ced146104b2578063715018a6146104e657806371a15b38146104fb5780637f5a7c7b1461051b5780638456cb591461055457600080fd5b80633f4ba83a14610413578063440df4f4146104285780634f1ef2861461044a57806352d1902d1461045d57806356d5d475146104725780635c975abb1461048557600080fd5b80633456b29d116102455780633456b29d146103575780633644e5151461036a57806336568abe1461037f5780633659cfe61461039f5780633d75e451146103bf5780633dfd3873146103f357600080fd5b806301ffc9a7146102825780630e72cc06146102b7578063248a9ca3146102d95780632ead72f6146103175780632f2ff15d14610337575b600080fd5b34801561028e57600080fd5b506102a261029d3660046135c6565b61093d565b60405190151581526020015b60405180910390f35b3480156102c357600080fd5b506102d76102d2366004613615565b610974565b005b3480156102e557600080fd5b506103096102f4366004613632565b600090815260fb602052604090206001015490565b6040519081526020016102ae565b34801561032357600080fd5b5061030961033236600461365d565b6109e5565b34801561034357600080fd5b506102d761035236600461367a565b610a05565b6102d761036536600461377e565b610a2f565b34801561037657600080fd5b50610309610bd6565b34801561038b57600080fd5b506102d761039a36600461367a565b610c45565b3480156103ab57600080fd5b506102d76103ba366004613615565b610cc3565b3480156103cb57600080fd5b506103097fc809a7fd521f10cdc3c068621a1c61d5fd9bb3f1502a773e53811bc248d919a881565b3480156103ff57600080fd5b506102d761040e366004613615565b610da2565b34801561041f57600080fd5b506102d7610e0a565b34801561043457600080fd5b5061043d610e83565b6040516102ae9190613864565b6102d76104583660046138ae565b610e95565b34801561046957600080fd5b50610309610f61565b6102d7610480366004613955565b611014565b34801561049157600080fd5b5060335460ff166102a2565b3480156104a957600080fd5b50610309600281565b3480156104be57600080fd5b506103097fc2f8787176b8ac6bf7215b4adcc1e069bf4ab82d9ab1df05a57a91d425935b6e81565b3480156104f257600080fd5b506102d7611113565b34801561050757600080fd5b506102d7610516366004613a21565b611125565b34801561052757600080fd5b5061015f5461053c906001600160a01b031681565b6040516001600160a01b0390911681526020016102ae565b34801561056057600080fd5b506102d7611180565b34801561057557600080fd5b5061059d7f000000000000000000000000000000000000000000000000000000000000000081565b60405163ffffffff90911681526020016102ae565b3480156105be57600080fd5b5061012d546001600160a01b031661053c565b3480156105dd57600080fd5b506102a26105ec36600461367a565b6111f7565b3480156105fd57600080fd5b506102d761060c366004613a62565b611222565b34801561061d57600080fd5b5061065c61062c366004613632565b6101c66020526000908152604090208054600182015460029092015460ff91821692918181169161010090041684565b6040516102ae9493929190613b0f565b34801561067857600080fd5b50610309600081565b34801561068d57600080fd5b506103096101c45481565b3480156106a457600080fd5b506102d76106b3366004613b42565b6112ed565b3480156106c457600080fd5b506103096106d336600461377e565b6112ff565b3480156106e457600080fd5b5061074c6106f3366004613b6e565b604080518082018252600080825260209182018190526001600160a01b0394851681526101c7825282812063ffffffff949094168152928152918190208151808301909252805490931681526001909201549082015290565b6040805182516001600160a01b0316815260209283015192810192909252016102ae565b34801561077c57600080fd5b506102d761078b366004613b9c565b611327565b6102d761079e366004613be7565b61133a565b3480156107af57600080fd5b5061053c7f000000000000000000000000000000000000000000000000000000000000000081565b3480156107e357600080fd5b506102d76107f236600461367a565b611464565b34801561080357600080fd5b50610309610812366004613be7565b611489565b34801561082357600080fd5b506101605461053c906001600160a01b031681565b34801561084457600080fd5b506103097f65d7a28e3265b37a6474929f336521b332c1681b933f6cb9f3376673440d862a81565b34801561087857600080fd5b506102d7610887366004613c3a565b61149b565b34801561089857600080fd5b506102d76108a736600461365d565b61154a565b6102d76108ba366004613ca5565b61155b565b3480156108cb57600080fd5b506102d76108da366004613615565b611567565b3480156108eb57600080fd5b506102d76108fa366004613ce6565b6115dd565b34801561090b57600080fd5b50610930604051806040016040528060058152602001640322e312e360dc1b81525081565b6040516102ae9190613dc0565b60006001600160e01b03198216637965db0b60e01b148061096e57506301ffc9a760e01b6001600160e01b03198316145b92915050565b806001600160a01b0381163b15158061099457506001600160a01b038116155b6109b95760405162461bcd60e51b81526004016109b090613dd3565b60405180910390fd5b6109c1611831565b5061016080546001600160a01b0319166001600160a01b0392909216919091179055565b6000806109fd61019163ffffffff8086169061188c16565b949350505050565b600082815260fb6020526040902060010154610a20816118a5565b610a2a83836118af565b505050565b610a37611935565b7fc809a7fd521f10cdc3c068621a1c61d5fd9bb3f1502a773e53811bc248d919a8610a61816118a5565b6000610a6f8684878761197b565b90506000610a808785888886611a3d565b9050610a8c8782611c01565b50336001600160a01b03168763ffffffff167f000000000000000000000000000000000000000000000000000000000000000063ffffffff167f30c7996a02aac74afe5a5524a67078e755366c4020290c22bea20ff36ddd8587878a8a6101c45489604051610aff959493929190613e8e565b60405180910390a460005b8651811015610bcc57868181518110610b2557610b25613ed9565b60200260200101516001600160a01b03166374f4f54733888481518110610b4e57610b4e613ed9565b60200260200101516040518363ffffffff1660e01b8152600401610b879291906001600160a01b03929092168252602082015260400190565b600060405180830381600087803b158015610ba157600080fd5b505af1158015610bb5573d6000803e3d6000fd5b505050508080610bc490613f05565b915050610b0a565b5050505050505050565b60007fc2f8787176b8ac6bf7215b4adcc1e069bf4ab82d9ab1df05a57a91d425935b6e604051806040016040528060058152602001640322e312e360dc1b81525046604051602001610c2a93929190613f1e565b60405160208183030381529060405280519060200120905090565b6001600160a01b0381163314610cb55760405162461bcd60e51b815260206004820152602f60248201527f416363657373436f6e74726f6c3a2063616e206f6e6c792072656e6f756e636560448201526e103937b632b9903337b91039b2b63360891b60648201526084016109b0565b610cbf8282611c15565b5050565b6001600160a01b037f0000000000000000000000000000000000000000000000000000000000000000163003610d0b5760405162461bcd60e51b81526004016109b090613f7b565b7f00000000000000000000000000000000000000000000000000000000000000006001600160a01b0316610d54600080516020614633833981519152546001600160a01b031690565b6001600160a01b031614610d7a5760405162461bcd60e51b81526004016109b090613fc7565b610d8381611c7c565b60408051600080825260208201909252610d9f91839190611c84565b50565b806001600160a01b0381163b151580610dc257506001600160a01b038116155b610dde5760405162461bcd60e51b81526004016109b090613dd3565b610de6611831565b5061015f80546001600160a01b0319166001600160a01b0392909216919091179055565b610e347f65d7a28e3265b37a6474929f336521b332c1681b933f6cb9f3376673440d862a336111f7565b610e715760405162461bcd60e51b815260206004820152600e60248201526d139bdd08185d5d1a1bdc9a5e995960921b60448201526064016109b0565b610e79611def565b610e81611e38565b565b6060610e90610191611e8a565b905090565b6001600160a01b037f0000000000000000000000000000000000000000000000000000000000000000163003610edd5760405162461bcd60e51b81526004016109b090613f7b565b7f00000000000000000000000000000000000000000000000000000000000000006001600160a01b0316610f26600080516020614633833981519152546001600160a01b031690565b6001600160a01b031614610f4c5760405162461bcd60e51b81526004016109b090613fc7565b610f5582611c7c565b610cbf82826001611c84565b6000306001600160a01b037f000000000000000000000000000000000000000000000000000000000000000016146110015760405162461bcd60e51b815260206004820152603860248201527f555550535570677261646561626c653a206d757374206e6f742062652063616c60448201527f6c6564207468726f7567682064656c656761746563616c6c000000000000000060648201526084016109b0565b5060008051602061463383398151915290565b336001600160a01b037f000000000000000000000000000000000000000000000000000000000000000016146110965760405162461bcd60e51b815260206004820152602160248201527f4d61696c626f78436c69656e743a2073656e646572206e6f74206d61696c626f6044820152600f60fb1b60648201526084016109b0565b60006110a185611f44565b90508381146111005760405162461bcd60e51b815260206004820152602560248201527f456e726f6c6c656420726f7574657220646f6573206e6f74206d61746368207360448201526432b73232b960d91b60648201526084016109b0565b61110c85858585611f91565b5050505050565b61111b611831565b610e816000612082565b61112d611831565b8060005b8181101561117a5761116884848381811061114e5761114e613ed9565b9050602002016020810190611163919061365d565b6120d5565b611173600182614013565b9050611131565b50505050565b6111aa7f65d7a28e3265b37a6474929f336521b332c1681b933f6cb9f3376673440d862a336111f7565b6111e75760405162461bcd60e51b815260206004820152600e60248201526d139bdd08185d5d1a1bdc9a5e995960921b60448201526064016109b0565b6111ef611935565b610e81612111565b600091825260fb602090815260408084206001600160a01b0393909316845291905290205460ff1690565b61122a611831565b838281146112725760405162461bcd60e51b8152602060048201526015602482015274082e4e4c2f240d8cadccee8d040dad2e6dac2e8c6d605b1b60448201526064016109b0565b60005b818110156112e4576112d487878381811061129257611292613ed9565b90506020020160208101906112a79190613615565b8686848181106112b9576112b9613ed9565b90506020020160208101906112ce9190613615565b8561214e565b6112dd81613f05565b9050611275565b50505050505050565b6112f5611831565b610cbf82826122ec565b60008061131186848787600019611a3d565b905061131d8682612303565b9695505050505050565b61132f611831565b610a2a83838361214e565b611342611935565b60006113508585848661231c565b905060006113618686868686612351565b905061136d8682611c01565b506040516374f4f54760e01b8152336004820152602481018590526001600160a01b038616906374f4f54790604401600060405180830381600087803b1580156113b657600080fd5b505af11580156113ca573d6000803e3d6000fd5b50506101c4546040805163ffffffff7f0000000000000000000000000000000000000000000000000000000000000000811682526001600160a01b0389811660208401529282018a90526060820193909352608081018790529089169350339250908916907fb967a159106e693bcb8298f42c743d6a70b66535ae64bdaf9710db69156984c69060a00160405180910390a4505050505050565b600082815260fb602052604090206001015461147f816118a5565b610a2a8383611c15565b60008061131186868686600019612351565b6114a3611831565b8281146114dc5760405162461bcd60e51b8152602060048201526007602482015266042d8cadccee8d60cb1b60448201526064016109b0565b8260005b81811015611542576115308686838181106114fd576114fd613ed9565b9050602002016020810190611512919061365d565b85858481811061152457611524613ed9565b905060200201356122ec565b61153b600182614013565b90506114e0565b505050505050565b611552611831565b610d9f816120d5565b610a2a8383833361133a565b61156f611831565b6001600160a01b0381166115d45760405162461bcd60e51b815260206004820152602660248201527f4f776e61626c653a206e6577206f776e657220697320746865207a65726f206160448201526564647265737360d01b60648201526084016109b0565b610d9f81612082565b600054610100900460ff16158080156115fd5750600054600160ff909116105b806116175750303b158015611617575060005460ff166001145b61167a5760405162461bcd60e51b815260206004820152602e60248201527f496e697469616c697a61626c653a20636f6e747261637420697320616c72656160448201526d191e481a5b9a5d1a585b1a5e995960921b60648201526084016109b0565b6000805460ff19166001179055801561169d576000805461ff0019166101001790555b8382146116e45760405162461bcd60e51b8152602060048201526015602482015274082e4e4c2f240d8cadccee8d040dad2e6dac2e8c6d605b1b60448201526064016109b0565b6116f060008088612402565b6116f861244c565b61170061247b565b61170861247b565b6000805b858110156117915761175c85858381811061172957611729613ed9565b9050602002013588888481811061174257611742613ed9565b90506020020160208101906117579190613615565b6118af565b600085858381811061177057611770613ed9565b905060200201350361178157600191505b61178a81613f05565b905061170c565b50806117d45760405162461bcd60e51b8152602060048201526012602482015271139bc818591b5a5b881cdc1958da599a595960721b60448201526064016109b0565b508015611542576000805461ff0019169055604051600181527f7f26b83ff96e1f2b6a682f133852f6798a09c465da95921460cefb38474024989060200160405180910390a1505050505050565b6001600160a01b03163b151590565b61012d546001600160a01b03163314610e815760405162461bcd60e51b815260206004820181905260248201527f4f776e61626c653a2063616c6c6572206973206e6f7420746865206f776e657260448201526064016109b0565b60008061189984846124a2565b915091505b9250929050565b610d9f81336124dc565b6118b982826111f7565b610cbf57600082815260fb602090815260408083206001600160a01b03851684529091529020805460ff191660011790556118f13390565b6001600160a01b0316816001600160a01b0316837f2f8788117e7eff1d82e926ec794901d17c78024a50270940304540a733656f0d60405160405180910390a45050565b60335460ff1615610e815760405162461bcd60e51b815260206004820152601060248201526f14185d5cd8589b194e881c185d5cd95960821b60448201526064016109b0565b600061198984848488612535565b604080516080810182526000815242602082015291925081016001815260200160015b905260008281526101c660209081526040918290208351815490151560ff199182161782559184015160018083019190915592840151600280830180549395929490931691908490811115611a0357611a03613ae5565b0217905550606082015160028201805461ff001916610100836001811115611a2d57611a2d613ae5565b0217905550905050949350505050565b82516060906000816001600160401b03811115611a5c57611a5c6136aa565b604051908082528060200260200182016040528015611a85578160200160208202803683370190505b50905060005b82811015611bc65760006101c76000898481518110611aac57611aac613ed9565b6020908102919091018101516001600160a01b039081168352828201939093526040918201600090812063ffffffff8f168252909152205416905080611b2e5760405162461bcd60e51b81526020600482015260176024820152761c995b5bdd19481d1bdad95b881b9bdd081b585c1c1959604a1b60448201526064016109b0565b6000878381518110611b4257611b42613ed9565b602002602001015111611b885760405162461bcd60e51b815260206004820152600e60248201526d1a5b9d985b1a5908185b5bdd5b9d60921b60448201526064016109b0565b80838381518110611b9b57611b9b613ed9565b6001600160a01b03909216602092830291909101909101525080611bbe81613f05565b915050611a8b565b506001338883888c89604051602001611be5979695949392919061402b565b6040516020818303038152906040529250505095945050505050565b6000611c0e833484612605565b9392505050565b611c1f82826111f7565b15610cbf57600082815260fb602090815260408083206001600160a01b0385168085529252808320805460ff1916905551339285917ff6391f5c32d9c69d2a47ea670b442974b53935d1edc7fd64eb21e047a839171b9190a45050565b610d9f611831565b7f4910fdfa16fed3260ed0e7147f7cc6da11a60208b5b9406d12a635614ffd91435460ff1615611cb757610a2a8361261f565b826001600160a01b03166352d1902d6040518163ffffffff1660e01b8152600401602060405180830381865afa925050508015611d11575060408051601f3d908101601f19168201909252611d0e91810190614093565b60015b611d745760405162461bcd60e51b815260206004820152602e60248201527f45524331393637557067726164653a206e657720696d706c656d656e7461746960448201526d6f6e206973206e6f74205555505360901b60648201526084016109b0565b6000805160206146338339815191528114611de35760405162461bcd60e51b815260206004820152602960248201527f45524331393637557067726164653a20756e737570706f727465642070726f786044820152681a58589b195555525160ba1b60648201526084016109b0565b50610a2a8383836126bb565b60335460ff16610e815760405162461bcd60e51b815260206004820152601460248201527314185d5cd8589b194e881b9bdd081c185d5cd95960621b60448201526064016109b0565b611e40611def565b6033805460ff191690557f5db9ee0a495bf2e6ff9c91a7834c1ba4fdd244a5e8aa4e537bd38aeae4b073aa335b6040516001600160a01b03909116815260200160405180910390a1565b60606000611e97836126e0565b905080516001600160401b03811115611eb257611eb26136aa565b604051908082528060200260200182016040528015611edb578160200160208202803683370190505b50915060005b8151811015611f3d57818181518110611efc57611efc613ed9565b6020026020010151838281518110611f1657611f16613ed9565b63ffffffff9092166020928302919091019091015280611f3581613f05565b915050611ee1565b5050919050565b60008080611f5d61019163ffffffff8087169061188c16565b9150915081611f6b8561277a565b90611f895760405162461bcd60e51b81526004016109b09190613dc0565b509392505050565b611f99611935565b6000611fa7828401846140bb565b905060ff8116611ff657611ff18584848080601f0160208091040260200160405190810160405280939291908181526020018383808284376000920191909152506127b192505050565b61110c565b60001960ff82160161204257611ff18584848080601f0160208091040260200160405190810160405280939291908181526020018383808284376000920191909152506128cb92505050565b60405162461bcd60e51b81526020600482015260156024820152742ab739bab83837b93a32b21027b832b930ba34b7b760591b60448201526064016109b0565b61012d80546001600160a01b038381166001600160a01b0319831681179093556040519116919082907f8be0079c531659141344cd1fd0a4f28419497f9722a3daafe3b4186f6b6457e090600090a35050565b6120ea61019163ffffffff80841690612b4f16565b6120f38261277a565b90610cbf5760405162461bcd60e51b81526004016109b09190613dc0565b612119611935565b6033805460ff191660011790557f62e78cea01bee320cd4e420270b5ea74000d11b0c9f74754ebdbfc544b05a258611e6d3390565b6001600160a01b0383166121915760405162461bcd60e51b815260206004820152600a60248201526910b437b6b2aa37b5b2b760b11b60448201526064016109b0565b6001600160a01b0380841660009081526101c76020908152604080832063ffffffff861680855281845282852080548451808601909552898816808652428688019081529390975292909452915185166001600160a01b0319821617835590516001909201919091559091169061229d576001600160a01b03811661224f5760405162461bcd60e51b81526020600482015260146024820152731a5b9d985b1a59081c185a5c881c995b5bdd985b60621b60448201526064016109b0565b60405163ffffffff831681526001600160a01b0380831691908616907f9562b33b08bb74534647f3dff5a674dcd7d10854e517bd258eb5e9d3d4c2c6b29060200160405180910390a361117a565b60405163ffffffff831681526001600160a01b0380851691908616907f1a954a85d933c5418c8c7edb1605fff69c5d182538b3a5299682a97f788311b49060200160405180910390a350505050565b610cbf61019163ffffffff808516908490612b5b16565b60008061230f84611f44565b90506109fd848285612b66565b600061232a84848488612c22565b604080516080810182526000815242602082015291925081016001815260200160006119ac565b6001600160a01b0380851660009081526101c76020908152604080832063ffffffff8a16845290915290205460609116806123c85760405162461bcd60e51b81526020600482015260176024820152761c995b5bdd19481d1bdad95b881b9bdd081b585c1c1959604a1b60448201526064016109b0565b6000338583888b886040516020016123e697969594939291906140d8565b6040516020818303038152906040529150505b95945050505050565b600054610100900460ff166124295760405162461bcd60e51b81526004016109b090614126565b612431612cb4565b61243a83610da2565b61244382610974565b610a2a81612082565b600054610100900460ff166124735760405162461bcd60e51b81526004016109b090614126565b610e81612ce3565b600054610100900460ff16610e815760405162461bcd60e51b81526004016109b090614126565b60008181526002830160205260408120548190806124d1576124c48585612d16565b92506000915061189e9050565b60019250905061189e565b6124e682826111f7565b610cbf576124f381612d22565b6124fe836020612d34565b60405160200161250f929190614171565b60408051601f198184030181529082905262461bcd60e51b82526109b091600401613dc0565b82516000906060825b828110156125b1578187828151811061255957612559613ed9565b602002602001015187838151811061257357612573613ed9565b602002602001015160405160200161258d939291906141e6565b604051602081830303815290604052915080806125a990613f05565b91505061253e565b506125c16101c480546001019055565b6125c9610bd6565b6101c4546040516125e392918a9185918991602001614225565b6040516020818303038152906040528051906020012092505050949350505050565b60008061261185611f44565b90506123f985828686612ecf565b6001600160a01b0381163b61268c5760405162461bcd60e51b815260206004820152602d60248201527f455243313936373a206e657720696d706c656d656e746174696f6e206973206e60448201526c1bdd08184818dbdb9d1c9858dd609a1b60648201526084016109b0565b60008051602061463383398151915280546001600160a01b0319166001600160a01b0392909216919091179055565b6126c483612f8e565b6000825111806126d15750805b15610a2a5761117a8383612fce565b606060006126ed83612ff3565b9050806001600160401b03811115612707576127076136aa565b604051908082528060200260200182016040528015612730578160200160208202803683370190505b50915060005b81811015611f3d576127488482612ffe565b60001c83828151811061275d5761275d613ed9565b60209081029190910101528061277281613f05565b915050612736565b606061278b8263ffffffff1661300a565b60405160200161279b9190614285565b6040516020818303038152906040529050919050565b6000806000806000806000878060200190518101906127d091906142d5565b96509650965096509650965096506127fc818860ff1660018111156127f7576127f7613ae5565b61309c565b6040516346154c9f60e11b81526001600160a01b03868116600483015260248201859052851690638c2a993e90604401600060405180830381600087803b15801561284657600080fd5b505af115801561285a573d6000803e3d6000fd5b50506040805163ffffffff86811682526001600160a01b038a811660208401528284018990526060830187905292518984169550928b1693508d16917ff475ec3ebd0a821ced53bf4d9fb1b6e5110cdf24015f2a590842816d2aced35d9181900360800190a4505050505050505050565b6000806000806000806000878060200190518101906128ea91906143b8565b9650965096509650965096509650612911818860ff1660018111156127f7576127f7613ae5565b835160005b81811015612a8d57600086828151811061293257612932613ed9565b60200260200101519050600086838151811061295057612950613ed9565b60209081029190910101516040516346154c9f60e11b81523060048201526024810182905290915082906001600160a01b03821690638c2a993e90604401600060405180830381600087803b1580156129a857600080fd5b505af11580156129bc573d6000803e3d6000fd5b505060405163095ea7b360e01b81526001600160a01b038d81166004830152602482018690528416925063095ea7b391506044016020604051808303816000875af1158015612a0f573d6000803e3d6000fd5b505050506040513d601f19601f82011682018060405250810190612a3391906144d2565b612a775760405162461bcd60e51b8152602060048201526015602482015274185c1c1c9bdd985b081d5b9cdd58d8d95cdcd99d5b605a1b60448201526064016109b0565b5050508080612a8590613f05565b915050612916565b506040516347202c0960e11b81526001600160a01b03871690638e40581290612abc90889088906004016144f4565b600060405180830381600087803b158015612ad657600080fd5b505af1158015612aea573d6000803e3d6000fd5b50505050866001600160a01b03168363ffffffff168b63ffffffff167f9b487637b9c49858ddbb3b811d4d1d020220e23d31d8da2e18f0df625f77166b89898988604051612b3b9493929190614519565b60405180910390a450505050505050505050565b6000611c0e83836131cd565b61117a8383836131ea565b60007f00000000000000000000000000000000000000000000000000000000000000006001600160a01b03166381d2ea95858585612baf60408051602081019091526000815290565b61015f546040516001600160e01b031960e088901b168152612be195949392916001600160a01b031690600401614561565b602060405180830381865afa158015612bfe573d6000803e3d6000fd5b505050506040513d601f19601f820116820180604052508101906109fd9190614093565b6000612c336101c480546001019055565b612c3b610bd6565b6101c4546040805160208101939093526bffffffffffffffffffffffff19606089811b8216928501929092529087901b166054830152606882018590526001600160e01b031960e085901b166088830152608c82015260ac01604051602081830303815290604052805190602001209050949350505050565b600054610100900460ff16612cdb5760405162461bcd60e51b81526004016109b090614126565b610e81613207565b600054610100900460ff16612d0a5760405162461bcd60e51b81526004016109b090614126565b6033805460ff19169055565b6000611c0e8383613237565b606061096e6001600160a01b03831660145b60606000612d438360026145b3565b612d4e906002614013565b6001600160401b03811115612d6557612d656136aa565b6040519080825280601f01601f191660200182016040528015612d8f576020820181803683370190505b509050600360fc1b81600081518110612daa57612daa613ed9565b60200101906001600160f81b031916908160001a905350600f60fb1b81600181518110612dd957612dd9613ed9565b60200101906001600160f81b031916908160001a9053506000612dfd8460026145b3565b612e08906001614013565b90505b6001811115612e80576f181899199a1a9b1b9c1cb0b131b232b360811b85600f1660108110612e3c57612e3c613ed9565b1a60f81b828281518110612e5257612e52613ed9565b60200101906001600160f81b031916908160001a90535060049490941c93612e79816145d2565b9050612e0b565b508315611c0e5760405162461bcd60e51b815260206004820181905260248201527f537472696e67733a20686578206c656e67746820696e73756666696369656e7460448201526064016109b0565b60007f00000000000000000000000000000000000000000000000000000000000000006001600160a01b03166310b83dc084878786612f1960408051602081019091526000815290565b61015f546040516001600160e01b031960e089901b168152612f4b95949392916001600160a01b031690600401614561565b60206040518083038185885af1158015612f69573d6000803e3d6000fd5b50505050506040513d601f19601f820116820180604052508101906123f99190614093565b612f978161261f565b6040516001600160a01b038216907fbc7cd75a20ee27fd9adebab32041f755214dbc6bffa90cc0225b39da2e5c2d3b90600090a250565b6060611c0e83836040518060600160405280602781526020016146536027913961324f565b600061096e826132bd565b6000611c0e83836132c7565b60606000613017836132f1565b60010190506000816001600160401b03811115613036576130366136aa565b6040519080825280601f01601f191660200182016040528015613060576020820181803683370190505b5090508181016020015b600019016f181899199a1a9b1b9c1cb0b131b232b360811b600a86061a8153600a850494508461306a57509392505050565b60008281526101c66020526040812060029081015460ff16908111156130c4576130c4613ae5565b146131115760405162461bcd60e51b815260206004820152601760248201527f427269646765205265717565737420457865637574656400000000000000000060448201526064016109b0565b60408051608081018252600081524260208201529081016002815260200182600181111561314157613141613ae5565b905260008381526101c660209081526040918290208351815490151560ff19918216178255918401516001808301919091559284015160028083018054939592949093169190849081111561319857613198613ae5565b0217905550606082015160028201805461ff0019166101008360018111156131c2576131c2613ae5565b021790555050505050565b60008181526002830160205260408120819055611c0e83836133c9565b600082815260028401602052604081208290556109fd84846133d5565b600054610100900460ff1661322e5760405162461bcd60e51b81526004016109b090614126565b610e8133612082565b60008181526001830160205260408120541515611c0e565b6060600080856001600160a01b03168560405161326c91906145e9565b600060405180830381855af49150503d80600081146132a7576040519150601f19603f3d011682016040523d82523d6000602084013e6132ac565b606091505b509150915061131d868383876133e1565b600061096e825490565b60008260000182815481106132de576132de613ed9565b9060005260206000200154905092915050565b60008072184f03e93ff9f4daa797ed6e38ed64bf6a1f0160401b83106133305772184f03e93ff9f4daa797ed6e38ed64bf6a1f0160401b830492506040015b6d04ee2d6d415b85acef8100000000831061335c576d04ee2d6d415b85acef8100000000830492506020015b662386f26fc10000831061337a57662386f26fc10000830492506010015b6305f5e1008310613392576305f5e100830492506008015b61271083106133a657612710830492506004015b606483106133b8576064830492506002015b600a831061096e5760010192915050565b6000611c0e838361345a565b6000611c0e838361354d565b60608315613450578251600003613449576001600160a01b0385163b6134495760405162461bcd60e51b815260206004820152601d60248201527f416464726573733a2063616c6c20746f206e6f6e2d636f6e747261637400000060448201526064016109b0565b50816109fd565b6109fd838361359c565b6000818152600183016020526040812054801561354357600061347e600183614605565b855490915060009061349290600190614605565b90508181146134f75760008660000182815481106134b2576134b2613ed9565b90600052602060002001549050808760000184815481106134d5576134d5613ed9565b6000918252602080832090910192909255918252600188019052604090208390555b85548690806135085761350861461c565b60019003818190600052602060002001600090559055856001016000868152602001908152602001600020600090556001935050505061096e565b600091505061096e565b60008181526001830160205260408120546135945750815460018181018455600084815260208082209093018490558454848252828601909352604090209190915561096e565b50600061096e565b8151156135ac5781518083602001fd5b8060405162461bcd60e51b81526004016109b09190613dc0565b6000602082840312156135d857600080fd5b81356001600160e01b031981168114611c0e57600080fd5b6001600160a01b0381168114610d9f57600080fd5b8035613610816135f0565b919050565b60006020828403121561362757600080fd5b8135611c0e816135f0565b60006020828403121561364457600080fd5b5035919050565b63ffffffff81168114610d9f57600080fd5b60006020828403121561366f57600080fd5b8135611c0e8161364b565b6000806040838503121561368d57600080fd5b82359150602083013561369f816135f0565b809150509250929050565b634e487b7160e01b600052604160045260246000fd5b604051601f8201601f191681016001600160401b03811182821017156136e8576136e86136aa565b604052919050565b60006001600160401b03821115613709576137096136aa565b5060051b60200190565b600082601f83011261372457600080fd5b81356020613739613734836136f0565b6136c0565b82815260059290921b8401810191818101908684111561375857600080fd5b8286015b84811015613773578035835291830191830161375c565b509695505050505050565b6000806000806080858703121561379457600080fd5b843561379f8161364b565b93506020858101356001600160401b03808211156137bc57600080fd5b818801915088601f8301126137d057600080fd5b81356137de613734826136f0565b81815260059190911b8301840190848101908b8311156137fd57600080fd5b938501935b82851015613824578435613815816135f0565b82529385019390850190613802565b97505050604088013592508083111561383c57600080fd5b505061384a87828801613713565b92505061385960608601613605565b905092959194509250565b6020808252825182820181905260009190848201906040850190845b818110156138a257835163ffffffff1683529284019291840191600101613880565b50909695505050505050565b600080604083850312156138c157600080fd5b82356138cc816135f0565b91506020838101356001600160401b03808211156138e957600080fd5b818601915086601f8301126138fd57600080fd5b81358181111561390f5761390f6136aa565b613921601f8201601f191685016136c0565b9150808252878482850101111561393757600080fd5b80848401858401376000848284010152508093505050509250929050565b6000806000806060858703121561396b57600080fd5b84356139768161364b565b93506020850135925060408501356001600160401b038082111561399957600080fd5b818701915087601f8301126139ad57600080fd5b8135818111156139bc57600080fd5b8860208285010111156139ce57600080fd5b95989497505060200194505050565b60008083601f8401126139ef57600080fd5b5081356001600160401b03811115613a0657600080fd5b6020830191508360208260051b850101111561189e57600080fd5b60008060208385031215613a3457600080fd5b82356001600160401b03811115613a4a57600080fd5b613a56858286016139dd565b90969095509350505050565b600080600080600060608688031215613a7a57600080fd5b85356001600160401b0380821115613a9157600080fd5b613a9d89838a016139dd565b90975095506020880135915080821115613ab657600080fd5b50613ac3888289016139dd565b9094509250506040860135613ad78161364b565b809150509295509295909350565b634e487b7160e01b600052602160045260246000fd5b60028110613b0b57613b0b613ae5565b9052565b8415158152602081018490526080810160038410613b2f57613b2f613ae5565b8360408301526123f96060830184613afb565b60008060408385031215613b5557600080fd5b8235613b608161364b565b946020939093013593505050565b60008060408385031215613b8157600080fd5b8235613b8c816135f0565b9150602083013561369f8161364b565b600080600060608486031215613bb157600080fd5b8335613bbc816135f0565b92506020840135613bcc816135f0565b91506040840135613bdc8161364b565b809150509250925092565b60008060008060808587031215613bfd57600080fd5b8435613c088161364b565b93506020850135613c18816135f0565b9250604085013591506060850135613c2f816135f0565b939692955090935050565b60008060008060408587031215613c5057600080fd5b84356001600160401b0380821115613c6757600080fd5b613c73888389016139dd565b90965094506020870135915080821115613c8c57600080fd5b50613c99878288016139dd565b95989497509550505050565b600080600060608486031215613cba57600080fd5b8335613cc58161364b565b92506020840135613cd5816135f0565b929592945050506040919091013590565b600080600080600060608688031215613cfe57600080fd5b8535613d09816135f0565b945060208601356001600160401b0380821115613d2557600080fd5b613d3189838a016139dd565b90965094506040880135915080821115613d4a57600080fd5b50613d57888289016139dd565b969995985093965092949392505050565b60005b83811015613d83578181015183820152602001613d6b565b8381111561117a5750506000910152565b60008151808452613dac816020860160208601613d68565b601f01601f19169290920160200192915050565b602081526000611c0e6020830184613d94565b60208082526027908201527f4d61696c626f78436c69656e743a20696e76616c696420636f6e74726163742060408201526673657474696e6760c81b606082015260800190565b600081518084526020808501945080840160005b83811015613e535781516001600160a01b031687529582019590820190600101613e2e565b509495945050505050565b600081518084526020808501945080840160005b83811015613e5357815187529582019590820190600101613e72565b6001600160a01b038616815260a060208201819052600090613eb290830187613e1a565b8281036040840152613ec48187613e5e565b60608401959095525050608001529392505050565b634e487b7160e01b600052603260045260246000fd5b634e487b7160e01b600052601160045260246000fd5b600060018201613f1757613f17613eef565b5060010190565b83815260806020820152601960808201527f546f7563616e43726f7373636861696e4d657373656e6765720000000000000060a082015260c060408201526000613f6b60c0830185613d94565b9050826060830152949350505050565b6020808252602c908201527f46756e6374696f6e206d7573742062652063616c6c6564207468726f7567682060408201526b19195b1959d85d1958d85b1b60a21b606082015260800190565b6020808252602c908201527f46756e6374696f6e206d7573742062652063616c6c6564207468726f7567682060408201526b6163746976652070726f787960a01b606082015260800190565b6000821982111561402657614026613eef565b500190565b6140358189613afb565b6001600160a01b0387811660208301528616604082015260e06060820181905260009061406490830187613e1a565b82810360808401526140768187613e5e565b63ffffffff9590951660a0840152505060c0015295945050505050565b6000602082840312156140a557600080fd5b5051919050565b60ff81168114610d9f57600080fd5b6000602082840312156140cd57600080fd5b8135611c0e816140ac565b60e081016140e6828a613afb565b6001600160a01b0397881660208301529587166040820152939095166060840152608083019190915263ffffffff1660a082015260c00191909152919050565b6020808252602b908201527f496e697469616c697a61626c653a20636f6e7472616374206973206e6f74206960408201526a6e697469616c697a696e6760a81b606082015260800190565b7f416363657373436f6e74726f6c3a206163636f756e74200000000000000000008152600083516141a9816017850160208801613d68565b7001034b99036b4b9b9b4b733903937b6329607d1b60179184019182015283516141da816028840160208801613d68565b01602801949350505050565b600084516141f8818460208901613d68565b60609490941b6bffffffffffffffffffffffff191691909301908152601481019190915260340192915050565b8581526bffffffffffffffffffffffff198560601b16602082015260008451614255816034850160208901613d68565b60e09490941b6001600160e01b031916603492909401918201939093526038810191909152605801949350505050565b7f4e6f20726f7574657220656e726f6c6c656420666f7220646f6d61696e3a20008152600082516142bd81601f850160208701613d68565b91909101601f0192915050565b80516136108161364b565b600080600080600080600060e0888a0312156142f057600080fd5b87516142fb816140ac565b602089015190975061430c816135f0565b604089015190965061431d816135f0565b606089015190955061432e816135f0565b608089015160a08a015191955093506143468161364b565b8092505060c0880151905092959891949750929550565b600082601f83011261436e57600080fd5b8151602061437e613734836136f0565b82815260059290921b8401810191818101908684111561439d57600080fd5b8286015b8481101561377357805183529183019183016143a1565b600080600080600080600060e0888a0312156143d357600080fd5b87516143de816140ac565b809750506020808901516143f1816135f0565b60408a0151909750614402816135f0565b60608a01519096506001600160401b038082111561441f57600080fd5b818b0191508b601f83011261443357600080fd5b8151614441613734826136f0565b81815260059190911b8301840190848101908e83111561446057600080fd5b938501935b82851015614487578451614478816135f0565b82529385019390850190614465565b60808e015190995094505050808311156144a057600080fd5b50506144ae8a828b0161435d565b9350506144bd60a089016142ca565b915060c0880151905092959891949750929550565b6000602082840312156144e457600080fd5b81518015158114611c0e57600080fd5b6040815260006145076040830185613e1a565b82810360208401526123f98185613e5e565b6001600160a01b038516815260806020820181905260009061453d90830186613e1a565b828103604084015261454f8186613e5e565b91505082606083015295945050505050565b63ffffffff8616815284602082015260a06040820152600061458660a0830186613d94565b82810360608401526145988186613d94565b91505060018060a01b03831660808301529695505050505050565b60008160001904831182151516156145cd576145cd613eef565b500290565b6000816145e1576145e1613eef565b506000190190565b600082516145fb818460208701613d68565b9190910192915050565b60008282101561461757614617613eef565b500390565b634e487b7160e01b600052603160045260246000fdfe360894a13ba1a3210667c828492db98dca3e2076cc3735a920a3ca505d382bbc416464726573733a206c6f772d6c6576656c2064656c65676174652063616c6c206661696c6564a26469706673582212209273398bcf822cb2e37a7379f6c5636cf5279e2f32a2c89cc7c1624e8ff9dd8664736f6c634300080e0033",
  "devdoc": {
    "kind": "dev",
    "methods": {
      "addTokenPair(address,address,uint32)": {
        "details": "Called by owner to add or map home token address to remote token address. Changing the remote token address can only be done within a 7 day period, after first setting it.",
        "params": {
          "domain": "domain ID of the remote chain whose token is being mapped",
          "homeToken": "token address on home chain",
          "remoteToken": "token address on remote chain"
        }
      },
      "batchAddTokenPair(address[],address[],uint32)": {
        "details": "Called by owner to add or map home token addresses to remote token addresses.",
        "params": {
          "domain": "domain ID of the remote chain whose tokens are being mapped",
          "homeTokens": "token addresses on home chain",
          "remoteTokens_": "token addresses on remote chain"
        }
      },
      "bridgeTCO2s(uint32,address[],uint256[],address)": {
        "params": {
          "amounts": "the amounts of tokens to be bridged",
          "destinationDomain": "The domain to send the tokens to",
          "recipient": "the recipient of tokens in the destination domain",
          "tokens": "addresses of tokens to be bridged"
        }
      },
      "constructor": {
        "custom:oz-upgrades-unsafe-allow": "constructor"
      },
      "enrollRemoteRouter(uint32,bytes32)": {
        "params": {
          "_domain": "The domain of the remote Application Router",
          "_router": "The address of the remote Application Router"
        }
      },
      "enrollRemoteRouters(uint32[],bytes32[])": {
        "params": {
          "_addresses": "The addresses of the remote Application Routers",
          "_domains": "The domains of the remote Application Routers"
        }
      },
      "getRoleAdmin(bytes32)": {
        "details": "Returns the admin role that controls `role`. See {grantRole} and {revokeRole}. To change a role's admin, use {_setRoleAdmin}."
      },
      "grantRole(bytes32,address)": {
        "details": "Grants `role` to `account`. If `account` had not been already granted `role`, emits a {RoleGranted} event. Requirements: - the caller must have ``role``'s admin role. May emit a {RoleGranted} event."
      },
      "handle(uint32,bytes32,bytes)": {
        "params": {
          "_message": "The message",
          "_origin": "The origin domain",
          "_sender": "The sender address"
        }
      },
      "hasRole(bytes32,address)": {
        "details": "Returns `true` if `account` has been granted `role`."
      },
      "owner()": {
        "details": "Returns the address of the current owner."
      },
      "paused()": {
        "details": "Returns true if the contract is paused, and false otherwise."
      },
      "proxiableUUID()": {
        "details": "Implementation of the ERC1822 {proxiableUUID} function. This returns the storage slot used by the implementation. It is used to validate the implementation's compatibility when performing an upgrade. IMPORTANT: A proxy pointing at a proxiable contract should not be considered proxiable itself, because this risks bricking a proxy that upgrades to it, by delegating to itself until out of gas. Thus it is critical that this function revert if invoked through a proxy. This is guaranteed by the `notDelegated` modifier."
      },
      "quoteBridgeTCO2sFee(uint32,address[],uint256[],address)": {
        "details": "Use the result of this function as msg.value when calling `transferTokens` or `transferTokensToRecipient`.",
        "params": {
          "amounts": "the amount of tokens to be bridged",
          "destinationDomain": "The domain to send the message to",
          "recipient": "the recipient of tokens in the destination domain",
          "tokens": "address of token to be bridged"
        },
        "returns": {
          "_0": "The required fee for a token transfer"
        }
      },
      "quoteTokenTransferFee(uint32,address,uint256,address)": {
        "details": "Use the result of this function as msg.value when calling `transferTokens` or `transferTokensToRecipient`.",
        "params": {
          "amount": "the amount of tokens to be bridged",
          "destinationDomain": "The domain to send the message to",
          "recipient": "the recipient of tokens in the destination domain",
          "token": "address of token to be bridged"
        },
        "returns": {
          "_0": "The required fee for a token transfer"
        }
      },
      "renounceOwnership()": {
        "details": "Leaves the contract without owner. It will not be possible to call `onlyOwner` functions. Can only be called by the current owner. NOTE: Renouncing ownership will leave the contract without an owner, thereby disabling any functionality that is only available to the owner."
      },
      "renounceRole(bytes32,address)": {
        "details": "Revokes `role` from the calling account. Roles are often managed via {grantRole} and {revokeRole}: this function's purpose is to provide a mechanism for accounts to lose their privileges if they are compromised (such as when a trusted device is misplaced). If the calling account had been revoked `role`, emits a {RoleRevoked} event. Requirements: - the caller must be `account`. May emit a {RoleRevoked} event."
      },
      "revokeRole(bytes32,address)": {
        "details": "Revokes `role` from `account`. If `account` had been granted `role`, emits a {RoleRevoked} event. Requirements: - the caller must have ``role``'s admin role. May emit a {RoleRevoked} event."
      },
      "routers(uint32)": {
        "details": "Returns 0 address if no router is enrolled for the given domain",
        "params": {
          "_domain": "The remote domain ID."
        },
        "returns": {
          "_0": "router The address of the Router contract for the given domain"
        }
      },
      "setHook(address)": {
        "params": {
          "_hook": "The address of the hook contract."
        }
      },
      "setInterchainSecurityModule(address)": {
        "params": {
          "_module": "The address of the interchain security module contract."
        }
      },
      "supportsInterface(bytes4)": {
        "details": "See {IERC165-supportsInterface}."
      },
      "transferOwnership(address)": {
        "details": "Transfers ownership of the contract to a new account (`newOwner`). Can only be called by the current owner."
      },
      "transferTokens(uint32,address,uint256)": {
        "params": {
          "amount": "the amount of tokens to be bridged",
          "destinationDomain": "The domain to send the message to",
          "token": "address of token to be bridged"
        }
      },
      "transferTokensToRecipient(uint32,address,uint256,address)": {
        "params": {
          "amount": "the amount of tokens to be bridged",
          "destinationDomain": "The domain to send the tokens to",
          "recipient": "the recipient of tokens in the destination domain",
          "token": "address of token to be bridged"
        }
      },
      "unenrollRemoteRouter(uint32)": {
        "params": {
          "_domain": "The domain of the remote Application Router"
        }
      },
      "unenrollRemoteRouters(uint32[])": {
        "params": {
          "_domains": "The domains of the remote Application Routers"
        }
      },
      "upgradeTo(address)": {
        "custom:oz-upgrades-unsafe-allow-reachable": "delegatecall",
        "details": "Upgrade the implementation of the proxy to `newImplementation`. Calls {_authorizeUpgrade}. Emits an {Upgraded} event."
      },
      "upgradeToAndCall(address,bytes)": {
        "custom:oz-upgrades-unsafe-allow-reachable": "delegatecall",
        "details": "Upgrade the implementation of the proxy to `newImplementation`, and subsequently execute the function call encoded in `data`. Calls {_authorizeUpgrade}. Emits an {Upgraded} event."
      }
    },
    "stateVariables": {
      "EIP712DomainHash": {
        "details": "EIP712Domain hash used in generating request hashes"
      },
      "VERSION": {
        "details": "Version-related parameters. VERSION keeps track of production releases. VERSION_RELEASE_CANDIDATE keeps track of iterations of a VERSION in our staging environment."
      }
    },
    "version": 1
  },
  "userdoc": {
    "kind": "user",
    "methods": {
      "addTokenPair(address,address,uint32)": {
        "notice": "Adds new token pair than can be bridged"
      },
      "batchAddTokenPair(address[],address[],uint32)": {
        "notice": "Adds a new set of token pairs than can be bridged"
      },
      "bridgeTCO2s(uint32,address[],uint256[],address)": {
        "notice": "Bridges multiple tokens to a recipient in the destination domain"
      },
      "enrollRemoteRouter(uint32,bytes32)": {
        "notice": "Register the address of a Router contract for the same Application on a remote chain"
      },
      "enrollRemoteRouters(uint32[],bytes32[])": {
        "notice": "Batch version of `enrollRemoteRouter`"
      },
      "handle(uint32,bytes32,bytes)": {
        "notice": "Handles an incoming message"
      },
      "pause()": {
        "notice": "Pause the cross chain bridge"
      },
      "quoteBridgeTCO2sFee(uint32,address[],uint256[],address)": {
        "notice": "Fetch the amount that needs to be used as a fee in order to to pay for the gas of the transfer on the destination domain."
      },
      "quoteTokenTransferFee(uint32,address,uint256,address)": {
        "notice": "Fetch the amount that needs to be used as a fee in order to to pay for the gas of the transfer on the destination domain."
      },
      "routers(uint32)": {
        "notice": "Returns the address of the Router contract for the given domain"
      },
      "setHook(address)": {
        "notice": "Sets the address of the application's custom hook."
      },
      "setInterchainSecurityModule(address)": {
        "notice": "Sets the address of the application's custom interchain security module."
      },
      "transferTokens(uint32,address,uint256)": {
        "notice": "Transfer tokens to a recipient in the destination domain. The recipient of the tokens in the destination domain is the same as msg.sender in this context."
      },
      "transferTokensToRecipient(uint32,address,uint256,address)": {
        "notice": "Transfer tokens to a recipient in the destination domain"
      },
      "unenrollRemoteRouter(uint32)": {
        "notice": "Unregister the domain"
      },
      "unenrollRemoteRouters(uint32[])": {
        "notice": "Batch version of `unenrollRemoteRouter`"
      },
      "unpause()": {
        "notice": "Unpause the cross chain bridge"
      }
    },
    "version": 1
  },
  "storageLayout": {
    "storage": [
      {
        "astId": 2373,
        "contract": "contracts/cross-chain/ToucanCrosschainMessenger.sol:ToucanCrosschainMessenger",
        "label": "_initialized",
        "offset": 0,
        "slot": "0",
        "type": "t_uint8"
      },
      {
        "astId": 2376,
        "contract": "contracts/cross-chain/ToucanCrosschainMessenger.sol:ToucanCrosschainMessenger",
        "label": "_initializing",
        "offset": 1,
        "slot": "0",
        "type": "t_bool"
      },
      {
        "astId": 7515,
        "contract": "contracts/cross-chain/ToucanCrosschainMessenger.sol:ToucanCrosschainMessenger",
        "label": "__gap",
        "offset": 0,
        "slot": "1",
        "type": "t_array(t_uint256)50_storage"
      },
      {
        "astId": 2694,
        "contract": "contracts/cross-chain/ToucanCrosschainMessenger.sol:ToucanCrosschainMessenger",
        "label": "_paused",
        "offset": 0,
        "slot": "51",
        "type": "t_bool"
      },
      {
        "astId": 2799,
        "contract": "contracts/cross-chain/ToucanCrosschainMessenger.sol:ToucanCrosschainMessenger",
        "label": "__gap",
        "offset": 0,
        "slot": "52",
        "type": "t_array(t_uint256)49_storage"
      },
      {
        "astId": 2355,
        "contract": "contracts/cross-chain/ToucanCrosschainMessenger.sol:ToucanCrosschainMessenger",
        "label": "__gap",
        "offset": 0,
        "slot": "101",
        "type": "t_array(t_uint256)50_storage"
      },
      {
        "astId": 2671,
        "contract": "contracts/cross-chain/ToucanCrosschainMessenger.sol:ToucanCrosschainMessenger",
        "label": "__gap",
        "offset": 0,
        "slot": "151",
        "type": "t_array(t_uint256)50_storage"
      },
      {
        "astId": 7899,
        "contract": "contracts/cross-chain/ToucanCrosschainMessenger.sol:ToucanCrosschainMessenger",
        "label": "__gap",
        "offset": 0,
        "slot": "201",
        "type": "t_array(t_uint256)50_storage"
      },
      {
        "astId": 1486,
        "contract": "contracts/cross-chain/ToucanCrosschainMessenger.sol:ToucanCrosschainMessenger",
        "label": "_roles",
        "offset": 0,
        "slot": "251",
        "type": "t_mapping(t_bytes32,t_struct(RoleData)1481_storage)"
      },
      {
        "astId": 1793,
        "contract": "contracts/cross-chain/ToucanCrosschainMessenger.sol:ToucanCrosschainMessenger",
        "label": "__gap",
        "offset": 0,
        "slot": "252",
        "type": "t_array(t_uint256)49_storage"
      },
      {
        "astId": 1879,
        "contract": "contracts/cross-chain/ToucanCrosschainMessenger.sol:ToucanCrosschainMessenger",
        "label": "_owner",
        "offset": 0,
        "slot": "301",
        "type": "t_address"
      },
      {
        "astId": 1999,
        "contract": "contracts/cross-chain/ToucanCrosschainMessenger.sol:ToucanCrosschainMessenger",
        "label": "__gap",
        "offset": 0,
        "slot": "302",
        "type": "t_array(t_uint256)49_storage"
      },
      {
        "astId": 26,
        "contract": "contracts/cross-chain/ToucanCrosschainMessenger.sol:ToucanCrosschainMessenger",
        "label": "hook",
        "offset": 0,
        "slot": "351",
        "type": "t_contract(IPostDispatchHook)912"
      },
      {
        "astId": 29,
        "contract": "contracts/cross-chain/ToucanCrosschainMessenger.sol:ToucanCrosschainMessenger",
        "label": "interchainSecurityModule",
        "offset": 0,
        "slot": "352",
        "type": "t_contract(IInterchainSecurityModule)681"
      },
      {
        "astId": 33,
        "contract": "contracts/cross-chain/ToucanCrosschainMessenger.sol:ToucanCrosschainMessenger",
        "label": "__GAP",
        "offset": 0,
        "slot": "353",
        "type": "t_array(t_uint256)48_storage"
      },
      {
        "astId": 296,
        "contract": "contracts/cross-chain/ToucanCrosschainMessenger.sol:ToucanCrosschainMessenger",
        "label": "_routers",
        "offset": 0,
        "slot": "401",
        "type": "t_struct(UintToBytes32Map)928_storage"
      },
      {
        "astId": 300,
        "contract": "contracts/cross-chain/ToucanCrosschainMessenger.sol:ToucanCrosschainMessenger",
        "label": "__GAP",
        "offset": 0,
        "slot": "404",
        "type": "t_array(t_uint256)48_storage"
      },
      {
        "astId": 25369,
        "contract": "contracts/cross-chain/ToucanCrosschainMessenger.sol:ToucanCrosschainMessenger",
        "label": "nonce",
        "offset": 0,
        "slot": "452",
        "type": "t_uint256"
      },
      {
        "astId": 25371,
        "contract": "contracts/cross-chain/ToucanCrosschainMessenger.sol:ToucanCrosschainMessenger",
        "label": "DEPRECATED_DOMAIN_SEPARATOR",
        "offset": 0,
        "slot": "453",
        "type": "t_bytes32"
      },
      {
        "astId": 25377,
        "contract": "contracts/cross-chain/ToucanCrosschainMessenger.sol:ToucanCrosschainMessenger",
        "label": "requests",
        "offset": 0,
        "slot": "454",
        "type": "t_mapping(t_bytes32,t_struct(BridgeRequest)25358_storage)"
      },
      {
        "astId": 25385,
        "contract": "contracts/cross-chain/ToucanCrosschainMessenger.sol:ToucanCrosschainMessenger",
        "label": "_remoteTokens",
        "offset": 0,
        "slot": "455",
        "type": "t_mapping(t_address,t_mapping(t_uint32,t_struct(RemoteTokenInformation)25347_storage))"
      }
    ],
    "types": {
      "t_address": {
        "encoding": "inplace",
        "label": "address",
        "numberOfBytes": "20"
      },
      "t_array(t_bytes32)dyn_storage": {
        "base": "t_bytes32",
        "encoding": "dynamic_array",
        "label": "bytes32[]",
        "numberOfBytes": "32"
      },
      "t_array(t_uint256)48_storage": {
        "base": "t_uint256",
        "encoding": "inplace",
        "label": "uint256[48]",
        "numberOfBytes": "1536"
      },
      "t_array(t_uint256)49_storage": {
        "base": "t_uint256",
        "encoding": "inplace",
        "label": "uint256[49]",
        "numberOfBytes": "1568"
      },
      "t_array(t_uint256)50_storage": {
        "base": "t_uint256",
        "encoding": "inplace",
        "label": "uint256[50]",
        "numberOfBytes": "1600"
      },
      "t_bool": {
        "encoding": "inplace",
        "label": "bool",
        "numberOfBytes": "1"
      },
      "t_bytes32": {
        "encoding": "inplace",
        "label": "bytes32",
        "numberOfBytes": "32"
      },
      "t_contract(IInterchainSecurityModule)681": {
        "encoding": "inplace",
        "label": "contract IInterchainSecurityModule",
        "numberOfBytes": "20"
      },
      "t_contract(IPostDispatchHook)912": {
        "encoding": "inplace",
        "label": "contract IPostDispatchHook",
        "numberOfBytes": "20"
      },
      "t_enum(BridgeRequestType)25362": {
        "encoding": "inplace",
        "label": "enum BridgeRequestType",
        "numberOfBytes": "1"
      },
      "t_enum(MessageType)25365": {
        "encoding": "inplace",
        "label": "enum MessageType",
        "numberOfBytes": "1"
      },
      "t_mapping(t_address,t_bool)": {
        "encoding": "mapping",
        "key": "t_address",
        "label": "mapping(address => bool)",
        "numberOfBytes": "32",
        "value": "t_bool"
      },
      "t_mapping(t_address,t_mapping(t_uint32,t_struct(RemoteTokenInformation)25347_storage))": {
        "encoding": "mapping",
        "key": "t_address",
        "label": "mapping(address => mapping(uint32 => struct RemoteTokenInformation))",
        "numberOfBytes": "32",
        "value": "t_mapping(t_uint32,t_struct(RemoteTokenInformation)25347_storage)"
      },
      "t_mapping(t_bytes32,t_bytes32)": {
        "encoding": "mapping",
        "key": "t_bytes32",
        "label": "mapping(bytes32 => bytes32)",
        "numberOfBytes": "32",
        "value": "t_bytes32"
      },
      "t_mapping(t_bytes32,t_struct(BridgeRequest)25358_storage)": {
        "encoding": "mapping",
        "key": "t_bytes32",
        "label": "mapping(bytes32 => struct BridgeRequest)",
        "numberOfBytes": "32",
        "value": "t_struct(BridgeRequest)25358_storage"
      },
      "t_mapping(t_bytes32,t_struct(RoleData)1481_storage)": {
        "encoding": "mapping",
        "key": "t_bytes32",
        "label": "mapping(bytes32 => struct AccessControlUpgradeable.RoleData)",
        "numberOfBytes": "32",
        "value": "t_struct(RoleData)1481_storage"
      },
      "t_mapping(t_bytes32,t_uint256)": {
        "encoding": "mapping",
        "key": "t_bytes32",
        "label": "mapping(bytes32 => uint256)",
        "numberOfBytes": "32",
        "value": "t_uint256"
      },
      "t_mapping(t_uint32,t_struct(RemoteTokenInformation)25347_storage)": {
        "encoding": "mapping",
        "key": "t_uint32",
        "label": "mapping(uint32 => struct RemoteTokenInformation)",
        "numberOfBytes": "32",
        "value": "t_struct(RemoteTokenInformation)25347_storage"
      },
      "t_struct(BridgeRequest)25358_storage": {
        "encoding": "inplace",
        "label": "struct BridgeRequest",
        "members": [
          {
            "astId": 25349,
            "contract": "contracts/cross-chain/ToucanCrosschainMessenger.sol:ToucanCrosschainMessenger",
            "label": "isReverted",
            "offset": 0,
            "slot": "0",
            "type": "t_bool"
          },
          {
            "astId": 25351,
            "contract": "contracts/cross-chain/ToucanCrosschainMessenger.sol:ToucanCrosschainMessenger",
            "label": "timestamp",
            "offset": 0,
            "slot": "1",
            "type": "t_uint256"
          },
          {
            "astId": 25354,
            "contract": "contracts/cross-chain/ToucanCrosschainMessenger.sol:ToucanCrosschainMessenger",
            "label": "requestType",
            "offset": 0,
            "slot": "2",
            "type": "t_enum(BridgeRequestType)25362"
          },
          {
            "astId": 25357,
            "contract": "contracts/cross-chain/ToucanCrosschainMessenger.sol:ToucanCrosschainMessenger",
            "label": "messageType",
            "offset": 1,
            "slot": "2",
            "type": "t_enum(MessageType)25365"
          }
        ],
        "numberOfBytes": "96"
      },
      "t_struct(Bytes32Set)15892_storage": {
        "encoding": "inplace",
        "label": "struct EnumerableSet.Bytes32Set",
        "members": [
          {
            "astId": 15891,
            "contract": "contracts/cross-chain/ToucanCrosschainMessenger.sol:ToucanCrosschainMessenger",
            "label": "_inner",
            "offset": 0,
            "slot": "0",
            "type": "t_struct(Set)15698_storage"
          }
        ],
        "numberOfBytes": "64"
      },
      "t_struct(Bytes32ToBytes32Map)14445_storage": {
        "encoding": "inplace",
        "label": "struct EnumerableMap.Bytes32ToBytes32Map",
        "members": [
          {
            "astId": 14440,
            "contract": "contracts/cross-chain/ToucanCrosschainMessenger.sol:ToucanCrosschainMessenger",
            "label": "_keys",
            "offset": 0,
            "slot": "0",
            "type": "t_struct(Bytes32Set)15892_storage"
          },
          {
            "astId": 14444,
            "contract": "contracts/cross-chain/ToucanCrosschainMessenger.sol:ToucanCrosschainMessenger",
            "label": "_values",
            "offset": 0,
            "slot": "2",
            "type": "t_mapping(t_bytes32,t_bytes32)"
          }
        ],
        "numberOfBytes": "96"
      },
      "t_struct(RemoteTokenInformation)25347_storage": {
        "encoding": "inplace",
        "label": "struct RemoteTokenInformation",
        "members": [
          {
            "astId": 25343,
            "contract": "contracts/cross-chain/ToucanCrosschainMessenger.sol:ToucanCrosschainMessenger",
            "label": "tokenAddress",
            "offset": 0,
            "slot": "0",
            "type": "t_address"
          },
          {
            "astId": 25346,
            "contract": "contracts/cross-chain/ToucanCrosschainMessenger.sol:ToucanCrosschainMessenger",
            "label": "timer",
            "offset": 0,
            "slot": "1",
            "type": "t_uint256"
          }
        ],
        "numberOfBytes": "64"
      },
      "t_struct(RoleData)1481_storage": {
        "encoding": "inplace",
        "label": "struct AccessControlUpgradeable.RoleData",
        "members": [
          {
            "astId": 1478,
            "contract": "contracts/cross-chain/ToucanCrosschainMessenger.sol:ToucanCrosschainMessenger",
            "label": "members",
            "offset": 0,
            "slot": "0",
            "type": "t_mapping(t_address,t_bool)"
          },
          {
            "astId": 1480,
            "contract": "contracts/cross-chain/ToucanCrosschainMessenger.sol:ToucanCrosschainMessenger",
            "label": "adminRole",
            "offset": 0,
            "slot": "1",
            "type": "t_bytes32"
          }
        ],
        "numberOfBytes": "64"
      },
      "t_struct(Set)15698_storage": {
        "encoding": "inplace",
        "label": "struct EnumerableSet.Set",
        "members": [
          {
            "astId": 15693,
            "contract": "contracts/cross-chain/ToucanCrosschainMessenger.sol:ToucanCrosschainMessenger",
            "label": "_values",
            "offset": 0,
            "slot": "0",
            "type": "t_array(t_bytes32)dyn_storage"
          },
          {
            "astId": 15697,
            "contract": "contracts/cross-chain/ToucanCrosschainMessenger.sol:ToucanCrosschainMessenger",
            "label": "_indexes",
            "offset": 0,
            "slot": "1",
            "type": "t_mapping(t_bytes32,t_uint256)"
          }
        ],
        "numberOfBytes": "64"
      },
      "t_struct(UintToBytes32Map)928_storage": {
        "encoding": "inplace",
        "label": "struct EnumerableMapExtended.UintToBytes32Map",
        "members": [
          {
            "astId": 927,
            "contract": "contracts/cross-chain/ToucanCrosschainMessenger.sol:ToucanCrosschainMessenger",
            "label": "_inner",
            "offset": 0,
            "slot": "0",
            "type": "t_struct(Bytes32ToBytes32Map)14445_storage"
          }
        ],
        "numberOfBytes": "96"
      },
      "t_uint256": {
        "encoding": "inplace",
        "label": "uint256",
        "numberOfBytes": "32"
      },
      "t_uint32": {
        "encoding": "inplace",
        "label": "uint32",
        "numberOfBytes": "4"
      },
      "t_uint8": {
        "encoding": "inplace",
        "label": "uint8",
        "numberOfBytes": "1"
      }
    }
  }
}