{
  "address": "0x50E85c754929840B58614F48e29C64BC78C58345",
  "abi": [
    {
      "anonymous": false,
      "inputs": [
        {
          "indexed": false,
          "internalType": "address",
          "name": "tco2",
          "type": "address"
        }
      ],
      "name": "AddFeeExemptedTCO2",
      "type": "event"
    },
    {
      "anonymous": false,
      "inputs": [
        {
          "indexed": false,
          "internalType": "address",
          "name": "previousAdmin",
          "type": "address"
        },
        {
          "indexed": false,
          "internalType": "address",
          "name": "newAdmin",
          "type": "address"
        }
      ],
      "name": "AdminChanged",
      "type": "event"
    },
    {
      "anonymous": false,
      "inputs": [
        {
          "indexed": true,
          "internalType": "address",
          "name": "owner",
          "type": "address"
        },
        {
          "indexed": true,
          "internalType": "address",
          "name": "spender",
          "type": "address"
        },
        {
          "indexed": false,
          "internalType": "uint256",
          "name": "value",
          "type": "uint256"
        }
      ],
      "name": "Approval",
      "type": "event"
    },
    {
      "anonymous": false,
      "inputs": [
        {
          "indexed": true,
          "internalType": "address",
          "name": "beacon",
          "type": "address"
        }
      ],
      "name": "BeaconUpgraded",
      "type": "event"
    },
    {
      "anonymous": false,
      "inputs": [
        {
          "indexed": false,
          "internalType": "address",
          "name": "depositor",
          "type": "address"
        },
        {
          "indexed": false,
          "internalType": "uint256",
          "name": "fees",
          "type": "uint256"
        }
      ],
      "name": "DepositFeePaid",
      "type": "event"
    },
    {
      "anonymous": false,
      "inputs": [
        {
          "indexed": false,
          "internalType": "address",
          "name": "erc20Addr",
          "type": "address"
        },
        {
          "indexed": false,
          "internalType": "uint256",
          "name": "amount",
          "type": "uint256"
        }
      ],
      "name": "Deposited",
      "type": "event"
    },
    {
      "anonymous": false,
      "inputs": [
        {
          "indexed": false,
          "internalType": "address",
          "name": "feeCalculator",
          "type": "address"
        }
      ],
      "name": "FeeCalculatorUpdated",
      "type": "event"
    },
    {
      "anonymous": false,
      "inputs": [
        {
          "indexed": false,
          "internalType": "address",
          "name": "filter",
          "type": "address"
        }
      ],
      "name": "FilterUpdated",
      "type": "event"
    },
    {
      "anonymous": false,
      "inputs": [
        {
          "indexed": false,
          "internalType": "uint8",
          "name": "version",
          "type": "uint8"
        }
      ],
      "name": "Initialized",
      "type": "event"
    },
    {
      "anonymous": false,
      "inputs": [
        {
          "indexed": true,
          "internalType": "address",
          "name": "previousOwner",
          "type": "address"
        },
        {
          "indexed": true,
          "internalType": "address",
          "name": "newOwner",
          "type": "address"
        }
      ],
      "name": "OwnershipTransferred",
      "type": "event"
    },
    {
      "anonymous": false,
      "inputs": [
        {
          "indexed": false,
          "internalType": "address",
          "name": "account",
          "type": "address"
        }
      ],
      "name": "Paused",
      "type": "event"
    },
    {
      "anonymous": false,
      "inputs": [
        {
          "indexed": false,
          "internalType": "uint256",
          "name": "feeBp",
          "type": "uint256"
        }
      ],
      "name": "RedeemBurnFeeUpdated",
      "type": "event"
    },
    {
      "anonymous": false,
      "inputs": [
        {
          "indexed": false,
          "internalType": "address",
          "name": "receiver",
          "type": "address"
        }
      ],
      "name": "RedeemFeeBurnAddressUpdated",
      "type": "event"
    },
    {
      "anonymous": false,
      "inputs": [
        {
          "indexed": false,
          "internalType": "address",
          "name": "redeemer",
          "type": "address"
        },
        {
          "indexed": false,
          "internalType": "uint256",
          "name": "fees",
          "type": "uint256"
        }
      ],
      "name": "RedeemFeeBurnt",
      "type": "event"
    },
    {
      "anonymous": false,
      "inputs": [
        {
          "indexed": false,
          "internalType": "address",
          "name": "exemptedUser",
          "type": "address"
        },
        {
          "indexed": false,
          "internalType": "bool",
          "name": "isExempted",
          "type": "bool"
        }
      ],
      "name": "RedeemFeeExempted",
      "type": "event"
    },
    {
      "anonymous": false,
      "inputs": [
        {
          "indexed": false,
          "internalType": "address",
          "name": "redeemer",
          "type": "address"
        },
        {
          "indexed": false,
          "internalType": "uint256",
          "name": "fees",
          "type": "uint256"
        }
      ],
      "name": "RedeemFeePaid",
      "type": "event"
    },
    {
      "anonymous": false,
      "inputs": [
        {
          "indexed": false,
          "internalType": "address",
          "name": "account",
          "type": "address"
        },
        {
          "indexed": false,
          "internalType": "address",
          "name": "erc20",
          "type": "address"
        },
        {
          "indexed": false,
          "internalType": "uint256",
          "name": "amount",
          "type": "uint256"
        }
      ],
      "name": "Redeemed",
      "type": "event"
    },
    {
      "anonymous": false,
      "inputs": [
        {
          "indexed": false,
          "internalType": "address",
          "name": "tco2",
          "type": "address"
        }
      ],
      "name": "RemoveFeeExemptedTCO2",
      "type": "event"
    },
    {
      "anonymous": false,
      "inputs": [
        {
          "indexed": true,
          "internalType": "bytes32",
          "name": "role",
          "type": "bytes32"
        },
        {
          "indexed": true,
          "internalType": "bytes32",
          "name": "previousAdminRole",
          "type": "bytes32"
        },
        {
          "indexed": true,
          "internalType": "bytes32",
          "name": "newAdminRole",
          "type": "bytes32"
        }
      ],
      "name": "RoleAdminChanged",
      "type": "event"
    },
    {
      "anonymous": false,
      "inputs": [
        {
          "indexed": true,
          "internalType": "bytes32",
          "name": "role",
          "type": "bytes32"
        },
        {
          "indexed": true,
          "internalType": "address",
          "name": "account",
          "type": "address"
        },
        {
          "indexed": true,
          "internalType": "address",
          "name": "sender",
          "type": "address"
        }
      ],
      "name": "RoleGranted",
      "type": "event"
    },
    {
      "anonymous": false,
      "inputs": [
        {
          "indexed": true,
          "internalType": "bytes32",
          "name": "role",
          "type": "bytes32"
        },
        {
          "indexed": true,
          "internalType": "address",
          "name": "account",
          "type": "address"
        },
        {
          "indexed": true,
          "internalType": "address",
          "name": "sender",
          "type": "address"
        }
      ],
      "name": "RoleRevoked",
      "type": "event"
    },
    {
      "anonymous": false,
      "inputs": [
        {
          "indexed": false,
          "internalType": "address",
          "name": "router",
          "type": "address"
        }
      ],
      "name": "RouterUpdated",
      "type": "event"
    },
    {
      "anonymous": false,
      "inputs": [
        {
          "indexed": false,
          "internalType": "uint256",
          "name": "newCap",
          "type": "uint256"
        }
      ],
      "name": "SupplyCapUpdated",
      "type": "event"
    },
    {
      "anonymous": false,
      "inputs": [
        {
          "indexed": true,
          "internalType": "uint32",
          "name": "destinationDomain",
          "type": "uint32"
        },
        {
          "indexed": true,
          "internalType": "address",
          "name": "tco2",
          "type": "address"
        },
        {
          "indexed": false,
          "internalType": "uint256",
          "name": "amount",
          "type": "uint256"
        }
      ],
      "name": "TCO2Bridged",
      "type": "event"
    },
    {
      "anonymous": false,
      "inputs": [
        {
          "indexed": true,
          "internalType": "address",
          "name": "from",
          "type": "address"
        },
        {
          "indexed": true,
          "internalType": "address",
          "name": "to",
          "type": "address"
        },
        {
          "indexed": false,
          "internalType": "uint256",
          "name": "value",
          "type": "uint256"
        }
      ],
      "name": "Transfer",
      "type": "event"
    },
    {
      "anonymous": false,
      "inputs": [
        {
          "indexed": false,
          "internalType": "address",
          "name": "account",
          "type": "address"
        }
      ],
      "name": "Unpaused",
      "type": "event"
    },
    {
      "anonymous": false,
      "inputs": [
        {
          "indexed": true,
          "internalType": "address",
          "name": "implementation",
          "type": "address"
        }
      ],
      "name": "Upgraded",
      "type": "event"
    },
    {
      "inputs": [],
      "name": "DEFAULT_ADMIN_ROLE",
      "outputs": [
        {
          "internalType": "bytes32",
          "name": "",
          "type": "bytes32"
        }
      ],
      "stateMutability": "view",
      "type": "function"
    },
    {
      "inputs": [],
      "name": "MANAGER_ROLE",
      "outputs": [
        {
          "internalType": "bytes32",
          "name": "",
          "type": "bytes32"
        }
      ],
      "stateMutability": "view",
      "type": "function"
    },
    {
      "inputs": [],
      "name": "PAUSER_ROLE",
      "outputs": [
        {
          "internalType": "bytes32",
          "name": "",
          "type": "bytes32"
        }
      ],
      "stateMutability": "view",
      "type": "function"
    },
    {
      "inputs": [],
      "name": "VERSION",
      "outputs": [
        {
          "internalType": "string",
          "name": "",
          "type": "string"
        }
      ],
      "stateMutability": "view",
      "type": "function"
    },
    {
      "inputs": [],
      "name": "VERSION_RELEASE_CANDIDATE",
      "outputs": [
        {
          "internalType": "uint256",
          "name": "",
          "type": "uint256"
        }
      ],
      "stateMutability": "view",
      "type": "function"
    },
    {
      "inputs": [
        {
          "internalType": "address",
          "name": "_address",
          "type": "address"
        }
      ],
      "name": "addRedeemFeeExemptedAddress",
      "outputs": [],
      "stateMutability": "nonpayable",
      "type": "function"
    },
    {
      "inputs": [
        {
          "internalType": "address",
          "name": "_tco2",
          "type": "address"
        }
      ],
      "name": "addRedeemFeeExemptedTCO2",
      "outputs": [],
      "stateMutability": "nonpayable",
      "type": "function"
    },
    {
      "inputs": [
        {
          "internalType": "address",
          "name": "owner",
          "type": "address"
        },
        {
          "internalType": "address",
          "name": "spender",
          "type": "address"
        }
      ],
      "name": "allowance",
      "outputs": [
        {
          "internalType": "uint256",
          "name": "",
          "type": "uint256"
        }
      ],
      "stateMutability": "view",
      "type": "function"
    },
    {
      "inputs": [
        {
          "internalType": "address",
          "name": "spender",
          "type": "address"
        },
        {
          "internalType": "uint256",
          "name": "amount",
          "type": "uint256"
        }
      ],
      "name": "approve",
      "outputs": [
        {
          "internalType": "bool",
          "name": "",
          "type": "bool"
        }
      ],
      "stateMutability": "nonpayable",
      "type": "function"
    },
    {
      "inputs": [
        {
          "internalType": "address",
          "name": "account",
          "type": "address"
        }
      ],
      "name": "balanceOf",
      "outputs": [
        {
          "internalType": "uint256",
          "name": "",
          "type": "uint256"
        }
      ],
      "stateMutability": "view",
      "type": "function"
    },
    {
      "inputs": [
        {
          "internalType": "address",
          "name": "_account",
          "type": "address"
        },
        {
          "internalType": "uint256",
          "name": "_amount",
          "type": "uint256"
        }
      ],
      "name": "bridgeBurn",
      "outputs": [],
      "stateMutability": "nonpayable",
      "type": "function"
    },
    {
      "inputs": [
        {
          "internalType": "address",
          "name": "_account",
          "type": "address"
        },
        {
          "internalType": "uint256",
          "name": "_amount",
          "type": "uint256"
        }
      ],
      "name": "bridgeMint",
      "outputs": [],
      "stateMutability": "nonpayable",
      "type": "function"
    },
    {
      "inputs": [
        {
          "internalType": "uint32",
          "name": "destinationDomain",
          "type": "uint32"
        },
        {
          "internalType": "address[]",
          "name": "tco2s",
          "type": "address[]"
        },
        {
          "internalType": "uint256[]",
          "name": "amounts",
          "type": "uint256[]"
        }
      ],
      "name": "bridgeTCO2s",
      "outputs": [],
      "stateMutability": "payable",
      "type": "function"
    },
    {
      "inputs": [
        {
          "internalType": "address",
          "name": "tco2",
          "type": "address"
        },
        {
          "internalType": "uint256",
          "name": "amount",
          "type": "uint256"
        }
      ],
      "name": "calculateDepositFees",
      "outputs": [
        {
          "internalType": "uint256",
          "name": "feeDistributionTotal",
          "type": "uint256"
        }
      ],
      "stateMutability": "view",
      "type": "function"
    },
    {
      "inputs": [
        {
          "internalType": "address[]",
          "name": "",
          "type": "address[]"
        },
        {
          "internalType": "uint256[]",
          "name": "",
          "type": "uint256[]"
        },
        {
          "internalType": "bool",
          "name": "",
          "type": "bool"
        }
      ],
      "name": "calculateRedemptionInFees",
      "outputs": [
        {
          "internalType": "uint256",
          "name": "",
          "type": "uint256"
        }
      ],
      "stateMutability": "pure",
      "type": "function"
    },
    {
      "inputs": [
        {
          "internalType": "address[]",
          "name": "tco2s",
          "type": "address[]"
        },
        {
          "internalType": "uint256[]",
          "name": "amounts",
          "type": "uint256[]"
        },
        {
          "internalType": "bool",
          "name": "toRetire",
          "type": "bool"
        }
      ],
      "name": "calculateRedemptionOutFees",
      "outputs": [
        {
          "internalType": "uint256",
          "name": "feeDistributionTotal",
          "type": "uint256"
        }
      ],
      "stateMutability": "view",
      "type": "function"
    },
    {
      "inputs": [
        {
          "internalType": "address",
          "name": "erc20Addr",
          "type": "address"
        }
      ],
      "name": "checkEligible",
      "outputs": [
        {
          "internalType": "bool",
          "name": "isEligible",
          "type": "bool"
        }
      ],
      "stateMutability": "view",
      "type": "function"
    },
    {
      "inputs": [],
      "name": "decimals",
      "outputs": [
        {
          "internalType": "uint8",
          "name": "",
          "type": "uint8"
        }
      ],
      "stateMutability": "view",
      "type": "function"
    },
    {
      "inputs": [
        {
          "internalType": "address",
          "name": "spender",
          "type": "address"
        },
        {
          "internalType": "uint256",
          "name": "subtractedValue",
          "type": "uint256"
        }
      ],
      "name": "decreaseAllowance",
      "outputs": [
        {
          "internalType": "bool",
          "name": "",
          "type": "bool"
        }
      ],
      "stateMutability": "nonpayable",
      "type": "function"
    },
    {
      "inputs": [
        {
          "internalType": "address",
          "name": "tco2",
          "type": "address"
        },
        {
          "internalType": "uint256",
          "name": "amount",
          "type": "uint256"
        },
        {
          "internalType": "uint256",
          "name": "maxFee",
          "type": "uint256"
        }
      ],
      "name": "deposit",
      "outputs": [
        {
          "internalType": "uint256",
          "name": "mintedPoolTokenAmount",
          "type": "uint256"
        }
      ],
      "stateMutability": "nonpayable",
      "type": "function"
    },
    {
      "inputs": [],
      "name": "feeCalculator",
      "outputs": [
        {
          "internalType": "contract IFeeCalculator",
          "name": "",
          "type": "address"
        }
      ],
      "stateMutability": "view",
      "type": "function"
    },
    {
      "inputs": [],
      "name": "feeRedeemDivider",
      "outputs": [
        {
          "internalType": "uint256",
          "name": "",
          "type": "uint256"
        }
      ],
      "stateMutability": "view",
      "type": "function"
    },
    {
      "inputs": [],
      "name": "filter",
      "outputs": [
        {
          "internalType": "address",
          "name": "",
          "type": "address"
        }
      ],
      "stateMutability": "view",
      "type": "function"
    },
    {
      "inputs": [],
      "name": "getRemaining",
      "outputs": [
        {
          "internalType": "uint256",
          "name": "",
          "type": "uint256"
        }
      ],
      "stateMutability": "view",
      "type": "function"
    },
    {
      "inputs": [
        {
          "internalType": "bytes32",
          "name": "role",
          "type": "bytes32"
        }
      ],
      "name": "getRoleAdmin",
      "outputs": [
        {
          "internalType": "bytes32",
          "name": "",
          "type": "bytes32"
        }
      ],
      "stateMutability": "view",
      "type": "function"
    },
    {
      "inputs": [
        {
          "internalType": "bytes32",
          "name": "role",
          "type": "bytes32"
        },
        {
          "internalType": "address",
          "name": "account",
          "type": "address"
        }
      ],
      "name": "grantRole",
      "outputs": [],
      "stateMutability": "nonpayable",
      "type": "function"
    },
    {
      "inputs": [
        {
          "internalType": "bytes32",
          "name": "role",
          "type": "bytes32"
        },
        {
          "internalType": "address",
          "name": "account",
          "type": "address"
        }
      ],
      "name": "hasRole",
      "outputs": [
        {
          "internalType": "bool",
          "name": "",
          "type": "bool"
        }
      ],
      "stateMutability": "view",
      "type": "function"
    },
    {
      "inputs": [
        {
          "internalType": "address",
          "name": "spender",
          "type": "address"
        },
        {
          "internalType": "uint256",
          "name": "addedValue",
          "type": "uint256"
        }
      ],
      "name": "increaseAllowance",
      "outputs": [
        {
          "internalType": "bool",
          "name": "",
          "type": "bool"
        }
      ],
      "stateMutability": "nonpayable",
      "type": "function"
    },
    {
      "inputs": [],
      "name": "initialize",
      "outputs": [],
      "stateMutability": "nonpayable",
      "type": "function"
    },
    {
      "inputs": [
        {
          "internalType": "string",
          "name": "methodology",
          "type": "string"
        }
      ],
      "name": "methodologies",
      "outputs": [
        {
          "internalType": "bool",
          "name": "",
          "type": "bool"
        }
      ],
      "stateMutability": "view",
      "type": "function"
    },
    {
      "inputs": [],
      "name": "minimumVintageStartTime",
      "outputs": [
        {
          "internalType": "uint64",
          "name": "",
          "type": "uint64"
        }
      ],
      "stateMutability": "view",
      "type": "function"
    },
    {
      "inputs": [],
      "name": "name",
      "outputs": [
        {
          "internalType": "string",
          "name": "",
          "type": "string"
        }
      ],
      "stateMutability": "view",
      "type": "function"
    },
    {
      "inputs": [],
      "name": "owner",
      "outputs": [
        {
          "internalType": "address",
          "name": "",
          "type": "address"
        }
      ],
      "stateMutability": "view",
      "type": "function"
    },
    {
      "inputs": [],
      "name": "pause",
      "outputs": [],
      "stateMutability": "nonpayable",
      "type": "function"
    },
    {
      "inputs": [],
      "name": "paused",
      "outputs": [
        {
          "internalType": "bool",
          "name": "",
          "type": "bool"
        }
      ],
      "stateMutability": "view",
      "type": "function"
    },
    {
      "inputs": [],
      "name": "proxiableUUID",
      "outputs": [
        {
          "internalType": "bytes32",
          "name": "",
          "type": "bytes32"
        }
      ],
      "stateMutability": "view",
      "type": "function"
    },
    {
      "inputs": [
        {
          "internalType": "uint32",
          "name": "destinationDomain",
          "type": "uint32"
        },
        {
          "internalType": "address[]",
          "name": "tco2s",
          "type": "address[]"
        },
        {
          "internalType": "uint256[]",
          "name": "amounts",
          "type": "uint256[]"
        }
      ],
      "name": "quoteBridgeTCO2sFee",
      "outputs": [
        {
          "internalType": "uint256",
          "name": "fee",
          "type": "uint256"
        }
      ],
      "stateMutability": "view",
      "type": "function"
    },
    {
      "inputs": [
        {
          "internalType": "address",
          "name": "tco2",
          "type": "address"
        },
        {
          "internalType": "uint256",
          "name": "amount",
          "type": "uint256"
        }
      ],
      "name": "redeemAndBurn",
      "outputs": [],
      "stateMutability": "nonpayable",
      "type": "function"
    },
    {
      "inputs": [
        {
          "internalType": "address",
          "name": "",
          "type": "address"
        }
      ],
      "name": "redeemFeeExemptedAddresses",
      "outputs": [
        {
          "internalType": "bool",
          "name": "",
          "type": "bool"
        }
      ],
      "stateMutability": "view",
      "type": "function"
    },
    {
      "inputs": [
        {
          "internalType": "address",
          "name": "",
          "type": "address"
        }
      ],
      "name": "redeemFeeExemptedTCO2s",
      "outputs": [
        {
          "internalType": "bool",
          "name": "",
          "type": "bool"
        }
      ],
      "stateMutability": "view",
      "type": "function"
    },
    {
      "inputs": [
        {
          "internalType": "address[]",
          "name": "tco2s",
          "type": "address[]"
        },
        {
          "internalType": "uint256[]",
          "name": "amounts",
          "type": "uint256[]"
        },
        {
          "internalType": "uint256",
          "name": "maxFee",
          "type": "uint256"
        }
      ],
      "name": "redeemOutMany",
      "outputs": [
        {
          "internalType": "uint256",
          "name": "poolAmountSpent",
          "type": "uint256"
        }
      ],
      "stateMutability": "nonpayable",
      "type": "function"
    },
    {
      "inputs": [
        {
          "internalType": "string",
          "name": "region",
          "type": "string"
        }
      ],
      "name": "regions",
      "outputs": [
        {
          "internalType": "bool",
          "name": "",
          "type": "bool"
        }
      ],
      "stateMutability": "view",
      "type": "function"
    },
    {
      "inputs": [
        {
          "internalType": "address",
          "name": "_address",
          "type": "address"
        }
      ],
      "name": "removeRedeemFeeExemptedAddress",
      "outputs": [],
      "stateMutability": "nonpayable",
      "type": "function"
    },
    {
      "inputs": [
        {
          "internalType": "address",
          "name": "_tco2",
          "type": "address"
        }
      ],
      "name": "removeRedeemFeeExemptedTCO2",
      "outputs": [],
      "stateMutability": "nonpayable",
      "type": "function"
    },
    {
      "inputs": [],
      "name": "renounceOwnership",
      "outputs": [],
      "stateMutability": "nonpayable",
      "type": "function"
    },
    {
      "inputs": [
        {
          "internalType": "bytes32",
          "name": "role",
          "type": "bytes32"
        },
        {
          "internalType": "address",
          "name": "account",
          "type": "address"
        }
      ],
      "name": "renounceRole",
      "outputs": [],
      "stateMutability": "nonpayable",
      "type": "function"
    },
    {
      "inputs": [
        {
          "internalType": "bytes32",
          "name": "role",
          "type": "bytes32"
        },
        {
          "internalType": "address",
          "name": "account",
          "type": "address"
        }
      ],
      "name": "revokeRole",
      "outputs": [],
      "stateMutability": "nonpayable",
      "type": "function"
    },
    {
      "inputs": [],
      "name": "router",
      "outputs": [
        {
          "internalType": "address",
          "name": "",
          "type": "address"
        }
      ],
      "stateMutability": "view",
      "type": "function"
    },
    {
      "inputs": [
        {
          "internalType": "uint256",
          "name": "",
          "type": "uint256"
        }
      ],
      "name": "scoredTCO2s",
      "outputs": [
        {
          "internalType": "address",
          "name": "",
          "type": "address"
        }
      ],
      "stateMutability": "view",
      "type": "function"
    },
    {
      "inputs": [
        {
          "internalType": "address",
          "name": "_feeCalculator",
          "type": "address"
        }
      ],
      "name": "setFeeCalculator",
      "outputs": [],
      "stateMutability": "nonpayable",
      "type": "function"
    },
    {
      "inputs": [
        {
          "internalType": "address",
          "name": "feeRedeemBurnAddress_",
          "type": "address"
        }
      ],
      "name": "setFeeRedeemBurnAddress",
      "outputs": [],
      "stateMutability": "nonpayable",
      "type": "function"
    },
    {
      "inputs": [
        {
          "internalType": "uint256",
          "name": "feeRedeemBurnPercentageInBase_",
          "type": "uint256"
        }
      ],
      "name": "setFeeRedeemBurnPercentage",
      "outputs": [],
      "stateMutability": "nonpayable",
      "type": "function"
    },
    {
      "inputs": [
        {
          "internalType": "address",
          "name": "_filter",
          "type": "address"
        }
      ],
      "name": "setFilter",
      "outputs": [],
      "stateMutability": "nonpayable",
      "type": "function"
    },
    {
      "inputs": [
        {
          "internalType": "address",
          "name": "_router",
          "type": "address"
        }
      ],
      "name": "setRouter",
      "outputs": [],
      "stateMutability": "nonpayable",
      "type": "function"
    },
    {
      "inputs": [
        {
          "internalType": "uint256",
          "name": "newCap",
          "type": "uint256"
        }
      ],
      "name": "setSupplyCap",
      "outputs": [],
      "stateMutability": "nonpayable",
      "type": "function"
    },
    {
      "inputs": [
        {
          "internalType": "string",
          "name": "standard",
          "type": "string"
        }
      ],
      "name": "standards",
      "outputs": [
        {
          "internalType": "bool",
          "name": "",
          "type": "bool"
        }
      ],
      "stateMutability": "view",
      "type": "function"
    },
    {
      "inputs": [],
      "name": "supplyCap",
      "outputs": [
        {
          "internalType": "uint256",
          "name": "",
          "type": "uint256"
        }
      ],
      "stateMutability": "view",
      "type": "function"
    },
    {
      "inputs": [
        {
          "internalType": "bytes4",
          "name": "interfaceId",
          "type": "bytes4"
        }
      ],
      "name": "supportsInterface",
      "outputs": [
        {
          "internalType": "bool",
          "name": "",
          "type": "bool"
        }
      ],
      "stateMutability": "view",
      "type": "function"
    },
    {
      "inputs": [],
      "name": "symbol",
      "outputs": [
        {
          "internalType": "string",
          "name": "",
          "type": "string"
        }
      ],
      "stateMutability": "view",
      "type": "function"
    },
    {
      "inputs": [
        {
          "internalType": "address",
          "name": "tco2",
          "type": "address"
        }
      ],
      "name": "tokenBalances",
      "outputs": [
        {
          "internalType": "uint256",
          "name": "",
          "type": "uint256"
        }
      ],
      "stateMutability": "view",
      "type": "function"
    },
    {
      "inputs": [
        {
          "internalType": "uint256",
          "name": "",
          "type": "uint256"
        }
      ],
      "name": "totalPerProjectTCO2Supply",
      "outputs": [
        {
          "internalType": "uint256",
          "name": "",
          "type": "uint256"
        }
      ],
      "stateMutability": "view",
      "type": "function"
    },
    {
      "inputs": [],
      "name": "totalSupply",
      "outputs": [
        {
          "internalType": "uint256",
          "name": "",
          "type": "uint256"
        }
      ],
      "stateMutability": "view",
      "type": "function"
    },
    {
      "inputs": [],
      "name": "totalTCO2Supply",
      "outputs": [
        {
          "internalType": "uint256",
          "name": "",
          "type": "uint256"
        }
      ],
      "stateMutability": "view",
      "type": "function"
    },
    {
      "inputs": [
        {
          "internalType": "address",
          "name": "recipient",
          "type": "address"
        },
        {
          "internalType": "uint256",
          "name": "amount",
          "type": "uint256"
        }
      ],
      "name": "transfer",
      "outputs": [
        {
          "internalType": "bool",
          "name": "",
          "type": "bool"
        }
      ],
      "stateMutability": "nonpayable",
      "type": "function"
    },
    {
      "inputs": [
        {
          "internalType": "address",
          "name": "sender",
          "type": "address"
        },
        {
          "internalType": "address",
          "name": "recipient",
          "type": "address"
        },
        {
          "internalType": "uint256",
          "name": "amount",
          "type": "uint256"
        }
      ],
      "name": "transferFrom",
      "outputs": [
        {
          "internalType": "bool",
          "name": "",
          "type": "bool"
        }
      ],
      "stateMutability": "nonpayable",
      "type": "function"
    },
    {
      "inputs": [
        {
          "internalType": "address",
          "name": "newOwner",
          "type": "address"
        }
      ],
      "name": "transferOwnership",
      "outputs": [],
      "stateMutability": "nonpayable",
      "type": "function"
    },
    {
      "inputs": [],
      "name": "unpause",
      "outputs": [],
      "stateMutability": "nonpayable",
      "type": "function"
    },
    {
      "inputs": [
        {
          "internalType": "address",
          "name": "newImplementation",
          "type": "address"
        }
      ],
      "name": "upgradeTo",
      "outputs": [],
      "stateMutability": "nonpayable",
      "type": "function"
    },
    {
      "inputs": [
        {
          "internalType": "address",
          "name": "newImplementation",
          "type": "address"
        },
        {
          "internalType": "bytes",
          "name": "data",
          "type": "bytes"
        }
      ],
      "name": "upgradeToAndCall",
      "outputs": [],
      "stateMutability": "payable",
      "type": "function"
    }
  ],
  "numDeployments": 1,
  "solcInputHash": "f78427b70ccec54a2d7f41b4219f94df",
  "bytecode": "0x60a0604052306080523480156200001557600080fd5b506200002062000026565b62000156565b6200003260ff62000035565b50565b60008054610100900460ff1615620000ce578160ff1660011480156200006e57506200006c306200014760201b620021431760201c565b155b620000c65760405162461bcd60e51b815260206004820152602e60248201526000805160206200526483398151915260448201526d191e481a5b9a5d1a585b1a5e995960921b60648201526084015b60405180910390fd5b506000919050565b60005460ff8084169116106200012d5760405162461bcd60e51b815260206004820152602e60248201526000805160206200526483398151915260448201526d191e481a5b9a5d1a585b1a5e995960921b6064820152608401620000bd565b506000805460ff191660ff92909216919091179055600190565b6001600160a01b03163b151590565b6080516150d66200018e6000396000818161113501528181611175015281816115de0152818161161e015261171801526150d66000f3fe6080604052600436106103fa5760003560e01c80638129fc1c11610213578063b6a3f59a11610123578063e0d7cad9116100ab578063f2fde38b1161007a578063f2fde38b14610c19578063f3edb9ec14610c39578063f75991cd14610c59578063f887ea4014610c79578063ffa1ad7414610c9a57600080fd5b8063e0d7cad914610b7b578063e63ab1e914610b91578063ec87621c14610bc5578063ef9178ec14610bf957600080fd5b8063d6a022b8116100f2578063d6a022b814610ae6578063d80e05aa14610afb578063dc5f560e14610b1b578063dd62ed3e14610b3b578063e07f744c14610b5b57600080fd5b8063b6a3f59a14610a66578063c0d7865514610a86578063ce6f320014610aa6578063d547741f14610ac657600080fd5b80638f770ad0116101a6578063a1631e4b11610175578063a1631e4b146109c3578063a217fddf146109f0578063a457c2d714610a05578063a9059cbb14610a25578063b00eb9fe14610a4557600080fd5b80638f770ad01461095757806391d148541461096e57806395d89b411461098e578063963ff55e146109a357600080fd5b806389022e2e116101e257806389022e2e146108d95780638c2a993e146108f95780638c66d04f146109195780638da5cb5b1461093957600080fd5b80638129fc1c146108615780638456cb59146108765780638662522f1461088b578063875bf3b5146108ab57600080fd5b80633d2afced1161030e5780635c975abb116102a157806370a082311161027057806370a08231146107b6578063715018a6146107ec57806374f4f5471461080157806379255ddd146108215780637babed8e1461084157600080fd5b80635c975abb146107305780635fadcc1e146107485780636ca0b0d7146107815780636dbb31021461079657600080fd5b80634f1ef286116102dd5780634f1ef286146106d1578063523fba7f146106e457806352d1902d14610704578063562182a81461071957600080fd5b80633d2afced146106695780633ebc2df11461067c5780633f4ba83a1461069c5780634642547b146106b157600080fd5b806323b872dd11610391578063313ce56711610360578063313ce567146105cd578063324e32d3146105e957806336568abe146106095780633659cfe614610629578063395093511461064957600080fd5b806323b872dd1461052c578063248a9ca31461054c5780632b540f191461057c5780632f2ff15d146105ad57600080fd5b80630e2d15ab116103cd5780630e2d15ab146104985780630efe6a8b146104c957806318160ddd146104f75780631e1fa3bd1461050c57600080fd5b806301ffc9a7146103ff57806306fdde0314610434578063095ea7b3146104565780630b7d28c714610476575b600080fd5b34801561040b57600080fd5b5061041f61041a366004614169565b610ccb565b60405190151581526020015b60405180910390f35b34801561044057600080fd5b50610449610d02565b60405161042b91906141bf565b34801561046257600080fd5b5061041f610471366004614207565b610d94565b34801561048257600080fd5b50610496610491366004614233565b610dac565b005b3480156104a457600080fd5b5061041f6104b3366004614233565b6101a06020526000908152604090205460ff1681565b3480156104d557600080fd5b506104e96104e4366004614250565b610e17565b60405190815260200161042b565b34801561050357600080fd5b506035546104e9565b34801561051857600080fd5b506104e96105273660046142d0565b610e70565b34801561053857600080fd5b5061041f61054736600461435b565b610fd2565b34801561055857600080fd5b506104e961056736600461439c565b600090815260fb602052604090206001015490565b34801561058857600080fd5b5061041f610597366004614233565b6101a16020526000908152604090205460ff1681565b3480156105b957600080fd5b506104966105c83660046143b5565b610ff3565b3480156105d957600080fd5b506040516012815260200161042b565b3480156105f557600080fd5b506104e9610604366004614578565b61101d565b34801561061557600080fd5b506104966106243660046143b5565b6110ad565b34801561063557600080fd5b50610496610644366004614233565b61112b565b34801561065557600080fd5b5061041f610664366004614207565b61120a565b6104966106773660046142d0565b61122c565b34801561068857600080fd5b50610496610697366004614233565b6114ea565b3480156106a857600080fd5b50610496611541565b3480156106bd57600080fd5b506104966106cc366004614233565b611574565b6104966106df36600461460b565b6115d4565b3480156106f057600080fd5b506104e96106ff366004614233565b6116a0565b34801561071057600080fd5b506104e961170b565b34801561072557600080fd5b506104e96101a65481565b34801561073c57600080fd5b5060975460ff1661041f565b34801561075457600080fd5b506101a454610769906001600160a01b031681565b6040516001600160a01b03909116815260200161042b565b34801561078d57600080fd5b506104e9600481565b3480156107a257600080fd5b506104966107b1366004614233565b6117bf565b3480156107c257600080fd5b506104e96107d1366004614233565b6001600160a01b031660009081526033602052604090205490565b3480156107f857600080fd5b5061049661181c565b34801561080d57600080fd5b5061049661081c366004614207565b611880565b34801561082d57600080fd5b5061049661083c36600461439c565b611892565b34801561084d57600080fd5b506104e961085c3660046146b1565b61190c565b34801561086d57600080fd5b50610496611922565b34801561088257600080fd5b50610496611a00565b34801561089757600080fd5b5061041f6108a6366004614728565b611a31565b3480156108b757600080fd5b506104e96108c636600461439c565b6101a76020526000908152604090205481565b3480156108e557600080fd5b506104966108f4366004614207565b611aa6565b34801561090557600080fd5b50610496610914366004614207565b611b74565b34801561092557600080fd5b50610496610934366004614233565b611b86565b34801561094557600080fd5b506065546001600160a01b0316610769565b34801561096357600080fd5b506104e96101915481565b34801561097a57600080fd5b5061041f6109893660046143b5565b611bdd565b34801561099a57600080fd5b50610449611c08565b3480156109af57600080fd5b506107696109be36600461439c565b611c17565b3480156109cf57600080fd5b506109d8611c42565b6040516001600160401b03909116815260200161042b565b3480156109fc57600080fd5b506104e9600081565b348015610a1157600080fd5b5061041f610a20366004614207565b611cb6565b348015610a3157600080fd5b5061041f610a40366004614207565b611d31565b348015610a5157600080fd5b506101a554610769906001600160a01b031681565b348015610a7257600080fd5b50610496610a8136600461439c565b611d46565b348015610a9257600080fd5b50610496610aa1366004614233565b611d84565b348015610ab257600080fd5b506104e9610ac13660046146b1565b611ddb565b348015610ad257600080fd5b50610496610ae13660046143b5565b611e0d565b348015610af257600080fd5b506104e9611e32565b348015610b0757600080fd5b50610496610b16366004614233565b611e4b565b348015610b2757600080fd5b5061041f610b36366004614233565b611ea5565b348015610b4757600080fd5b506104e9610b56366004614799565b611eb8565b348015610b6757600080fd5b50610496610b76366004614233565b611ee3565b348015610b8757600080fd5b506104e961271081565b348015610b9d57600080fd5b506104e97f65d7a28e3265b37a6474929f336521b332c1681b933f6cb9f3376673440d862a81565b348015610bd157600080fd5b506104e97f241ecf16d79d0f8dbfb92cbc07fe17840425976cf0667f022fe9877caa831b0881565b348015610c0557600080fd5b506104e9610c14366004614207565b611f7b565b348015610c2557600080fd5b50610496610c34366004614233565b612013565b348015610c4557600080fd5b5061041f610c54366004614728565b6120db565b348015610c6557600080fd5b5061041f610c74366004614728565b61210f565b348015610c8557600080fd5b506101a254610769906001600160a01b031681565b348015610ca657600080fd5b50610449604051806040016040528060058152602001640312e302e360dc1b81525081565b60006001600160e01b03198216637965db0b60e01b1480610cfc57506301ffc9a760e01b6001600160e01b03198316145b92915050565b606060368054610d11906147c7565b80601f0160208091040260200160405190810160405280929190818152602001828054610d3d906147c7565b8015610d8a5780601f10610d5f57610100808354040283529160200191610d8a565b820191906000526020600020905b815481529060010190602001808311610d6d57829003601f168201915b5050505050905090565b600033610da2818585612152565b5060019392505050565b610db4612276565b6001600160a01b03811660008181526101a06020908152604091829020805460ff191660019081179091558251938452908301527f9243c023afac8831ce7d7574176d51e9cbdff271c07285080839f677ff57a6b491015b60405180910390a150565b6040805180820190915260028152611a9960f11b602082015260009082610e5a5760405162461bcd60e51b8152600401610e5191906141bf565b60405180910390fd5b50610e668484846122cc565b90505b9392505050565b604080518082019091526002815261189960f11b60208201526000908490838214610eae5760405162461bcd60e51b8152600401610e5191906141bf565b506101a2546001600160a01b03166000610ec8828a6125d9565b905060005b83811015610fc557826001600160a01b031663d9e7e0b78b8b8b85818110610ef757610ef7614801565b9050602002016020810190610f0c9190614233565b8a8a86818110610f1e57610f1e614801565b6040516001600160e01b031960e088901b16815263ffffffff9590951660048601526001600160a01b039384166024860152602002919091013560448401525085166064820152608401602060405180830381865afa158015610f85573d6000803e3d6000fd5b505050506040513d601f19601f82011682018060405250810190610fa99190614817565b610fb39086614846565b9450610fbe8161485e565b9050610ecd565b5050505095945050505050565b6000610fdd836126a1565b610fe8848484612724565b506001949350505050565b600082815260fb602052604090206001015461100e8161273d565b6110188383612747565b505050565b6040805180820190915260028152611a9960f11b6020820152600090826110575760405162461bcd60e51b8152600401610e5191906141bf565b50835160011460405180604001604052806002815260200161353360f01b815250906110965760405162461bcd60e51b8152600401610e5191906141bf565b506110a484848460006127cd565b95945050505050565b6001600160a01b038116331461111d5760405162461bcd60e51b815260206004820152602f60248201527f416363657373436f6e74726f6c3a2063616e206f6e6c792072656e6f756e636560448201526e103937b632b9903337b91039b2b63360891b6064820152608401610e51565b6111278282612a2a565b5050565b6001600160a01b037f00000000000000000000000000000000000000000000000000000000000000001630036111735760405162461bcd60e51b8152600401610e5190614877565b7f00000000000000000000000000000000000000000000000000000000000000006001600160a01b03166111bc60008051602061505a833981519152546001600160a01b031690565b6001600160a01b0316146111e25760405162461bcd60e51b8152600401610e51906148c3565b6111eb81612a91565b6040805160008082526020820190925261120791839190612a99565b50565b600033610da281858561121d8383611eb8565b6112279190614846565b612152565b6112557f241ecf16d79d0f8dbfb92cbc07fe17840425976cf0667f022fe9877caa831b08612c04565b6040805180820190915260018152601960f91b602082015283908161128d5760405162461bcd60e51b8152600401610e5191906141bf565b50604080518082019091526002815261189960f11b60208201528183146112c75760405162461bcd60e51b8152600401610e5191906141bf565b506101a2546001600160a01b031660006112e182896125d9565b905060006112ef843461490f565b6101a65490915060005b858110156114da5760008a8a8381811061131557611315614801565b905060200201602081019061132a9190614233565b9050600089898481811061134057611340614801565b9050602002013590506000826001600160a01b0316633633f35f6040518163ffffffff1660e01b8152600401600060405180830381865afa158015611389573d6000803e3d6000fd5b505050506040513d6000823e601f3d908101601f191682016040526113b191908101906149a2565b9050816101a760008360600151815260200190815260200160002060008282546113db9190614b2c565b909155506113eb90508286614b2c565b945050866001600160a01b031663d3f6c4f1868f85858b6040518663ffffffff1660e01b815260040161144b949392919063ffffffff9490941684526001600160a01b039283166020850152604084019190915216606082015260800190565b6000604051808303818588803b15801561146457600080fd5b505af1158015611478573d6000803e3d6000fd5b5050505050816001600160a01b03168d63ffffffff167f36d0f926f9bce41fb6e90938955b971cee6bbdfbce772aadd3d6c824f0372797836040516114bf91815260200190565b60405180910390a35050806114d39061485e565b90506112f9565b506101a655505050505050505050565b6114f2612276565b6101a480546001600160a01b0319166001600160a01b0383169081179091556040519081527fcc693712a2055d921e821f24fea7e18faff35a4e741d180badc0b05a0c275e6a90602001610e0c565b61156a7f65d7a28e3265b37a6474929f336521b332c1681b933f6cb9f3376673440d862a612c04565b611572612c6a565b565b61157c612276565b6001600160a01b03811660008181526101a060209081526040808320805460ff191690558051938452908301919091527f9243c023afac8831ce7d7574176d51e9cbdff271c07285080839f677ff57a6b49101610e0c565b6001600160a01b037f000000000000000000000000000000000000000000000000000000000000000016300361161c5760405162461bcd60e51b8152600401610e5190614877565b7f00000000000000000000000000000000000000000000000000000000000000006001600160a01b031661166560008051602061505a833981519152546001600160a01b031690565b6001600160a01b03161461168b5760405162461bcd60e51b8152600401610e51906148c3565b61169482612a91565b61112782826001612a99565b6040516370a0823160e01b81523060048201526000906001600160a01b038316906370a0823190602401602060405180830381865afa1580156116e7573d6000803e3d6000fd5b505050506040513d601f19601f82011682018060405250810190610cfc9190614817565b6000306001600160a01b037f000000000000000000000000000000000000000000000000000000000000000016146117ab5760405162461bcd60e51b815260206004820152603860248201527f555550535570677261646561626c653a206d757374206e6f742062652063616c60448201527f6c6564207468726f7567682064656c656761746563616c6c00000000000000006064820152608401610e51565b5060008051602061505a8339815191525b90565b6117c7612276565b6001600160a01b03811660008181526101a16020908152604091829020805460ff1916600117905590519182527fbfe78aa03afab7296923112293cb902a2fe6df5a6d3d81e1933c652c4cf860f49101610e0c565b6065546001600160a01b031633146118765760405162461bcd60e51b815260206004820181905260248201527f4f776e61626c653a2063616c6c6572206973206e6f7420746865206f776e65726044820152606401610e51565b6115726000612cfd565b611888612d4f565b6111278282612d95565b61189a612276565b604080518082019091526002815261031360f41b602082015261271082106118d55760405162461bcd60e51b8152600401610e5191906141bf565b5061019e8190556040518181527fb53960c69c6a03b9c2457d50976610ab54438aea64f693512228035729dde0e990602001610e0c565b6000611919848484612eef565b50949350505050565b600061192e60016130a6565b90508015611946576000805461ff0019166101001790555b61194e613133565b61195661315a565b61195e61318a565b6119a3604051806040016040528060078152602001662134b7b1b430b960c91b8152506040518060400160405280600481526020016321a420a960e11b8152506131bd565b6119ab613133565b6119b3613133565b6119be600033612747565b8015611207576000805461ff0019169055604051600181527f7f26b83ff96e1f2b6a682f133852f6798a09c465da95921460cefb384740249890602001610e0c565b611a297f65d7a28e3265b37a6474929f336521b332c1681b933f6cb9f3376673440d862a612c04565b61157261320b565b6101a454604051638662522f60e01b81526000916001600160a01b031690638662522f90611a659086908690600401614b43565b602060405180830381865afa158015611a82573d6000803e3d6000fd5b505050506040513d601f19601f82011682018060405250810190610e699190614b72565b611aae613286565b6001600160a01b03821660009081526101a160209081526040918290205482518084019093526002835261313360f01b9183019190915260ff16611b055760405162461bcd60e51b8152600401610e5191906141bf565b50611b1082826132c6565b60405163079cc67960e41b8152336004820152602481018290526001600160a01b038316906379cc679090604401600060405180830381600087803b158015611b5857600080fd5b505af1158015611b6c573d6000803e3d6000fd5b505050505050565b611b7c612d4f565b61112782826133d6565b611b8e612276565b6101a580546001600160a01b0319166001600160a01b0383169081179091556040519081527f3e762c7e655633ce63121393b9694f9ca1883d14d18f48f1be55e5dc7a9fb6c190602001610e0c565b600091825260fb602090815260408084206001600160a01b0393909316845291905290205460ff1690565b606060378054610d11906147c7565b6101948181548110611c2857600080fd5b6000918252602090912001546001600160a01b0316905081565b6101a4546040805163a1631e4b60e01b815290516000926001600160a01b03169163a1631e4b9160048083019260209291908290030181865afa158015611c8d573d6000803e3d6000fd5b505050506040513d601f19601f82011682018060405250810190611cb19190614b8f565b905090565b60003381611cc48286611eb8565b905083811015611d245760405162461bcd60e51b815260206004820152602560248201527f45524332303a2064656372656173656420616c6c6f77616e63652062656c6f77604482015264207a65726f60d81b6064820152608401610e51565b610fe88286868403612152565b6000611d3c836126a1565b610da283836134c1565b611d4e612276565b6101918190556040518181527f4e44c8be34d12f1b7f56b13b4bbe97e64ca37a91916f86c73412da80c21748e290602001610e0c565b611d8c612276565b6101a280546001600160a01b0319166001600160a01b0383169081179091556040519081527f7aed1d3e8155a07ccf395e44ea3109a0e2d6c9b29bbbe9f142d9790596f4dc8090602001610e0c565b6040805180820182526002815261353360f01b6020820152905162461bcd60e51b8152600091610e51916004016141bf565b600082815260fb6020526040902060010154611e288161273d565b6110188383612a2a565b6000611e3d60355490565b61019154611cb19190614b2c565b611e53612276565b6001600160a01b03811660008181526101a16020908152604091829020805460ff1916905590519182527fd1fc9d8986829d0ba9df2bc201a2c76327e0f71567b5a2fb82ba464bf4a03f449101610e0c565b6000611eb0826134cf565b506001919050565b6001600160a01b03918216600090815260346020908152604080832093909416825291909152205490565b611eeb612276565b604080518082019091526002815261313160f01b60208201526001600160a01b038216611f2b5760405162461bcd60e51b8152600401610e5191906141bf565b5061019d80546001600160a01b0319166001600160a01b0383169081179091556040519081527fe45e1256d720bfcb8dfcc82308efc5ad34e89a7ca19cc500b5c657fcc3359e5590602001610e0c565b6000611f85613286565b6101a554604051638925ba9f60e01b81526000916001600160a01b031690638925ba9f90611fbb90309088908890600401614baa565b600060405180830381865afa158015611fd8573d6000803e3d6000fd5b505050506040513d6000823e601f3d908101601f191682016040526120009190810190614c34565b905061200b8161361b565b949350505050565b6065546001600160a01b0316331461206d5760405162461bcd60e51b815260206004820181905260248201527f4f776e61626c653a2063616c6c6572206973206e6f7420746865206f776e65726044820152606401610e51565b6001600160a01b0381166120d25760405162461bcd60e51b815260206004820152602660248201527f4f776e61626c653a206e6577206f776e657220697320746865207a65726f206160448201526564647265737360d01b6064820152608401610e51565b61120781612cfd565b6101a454604051633cfb6e7b60e21b81526000916001600160a01b03169063f3edb9ec90611a659086908690600401614b43565b6101a45460405163f75991cd60e01b81526000916001600160a01b03169063f75991cd90611a659086908690600401614b43565b6001600160a01b03163b151590565b6001600160a01b0383166121b45760405162461bcd60e51b8152602060048201526024808201527f45524332303a20617070726f76652066726f6d20746865207a65726f206164646044820152637265737360e01b6064820152608401610e51565b6001600160a01b0382166122155760405162461bcd60e51b815260206004820152602260248201527f45524332303a20617070726f766520746f20746865207a65726f206164647265604482015261737360f01b6064820152608401610e51565b6001600160a01b0383811660008181526034602090815260408083209487168084529482529182902085905590518481527f8c5be1e5ebec7d5bd14f71427d1e84f3dd0314c0f7b2291e5b200ac8c7c3b925910160405180910390a3505050565b336122896065546001600160a01b031690565b6001600160a01b03161460405180604001604052806002815260200161062760f31b815250906112075760405162461bcd60e51b8152600401610e5191906141bf565b60006122d6613286565b6122df846134cf565b60006122e9611e32565b6040805180820190915260018152603360f81b6020820152909150816123225760405162461bcd60e51b8152600401610e5191906141bf565b508084111561232f578093505b6101a55484906001600160a01b0316156124bc576101a554604051638925ba9f60e01b81526000916001600160a01b031690638925ba9f906123799030908b908790600401614baa565b600060405180830381865afa158015612396573d6000803e3d6000fd5b505050506040513d6000823e601f3d908101601f191682016040526123be9190810190614c34565b905060006123cb8261361b565b9050851561240f57604080518082019091526002815261353160f01b60208201528682111561240d5760405162461bcd60e51b8152600401610e5191906141bf565b505b6124198184614b2c565b82515190935060005b8181101561247e5761246e8460000151828151811061244357612443614801565b60200260200101518560200151838151811061246157612461614801565b60200260200101516133d6565b6124778161485e565b9050612422565b5060408051338152602081018490527f4658b473764413b8a15e16e464adf1ee318894b37e86cf2fd44a70bca04f6502910160405180910390a15050505b6124c633826133d6565b6000866001600160a01b0316633633f35f6040518163ffffffff1660e01b8152600401600060405180830381865afa158015612506573d6000803e3d6000fd5b505050506040513d6000823e601f3d908101601f1916820160405261252e91908101906149a2565b9050856101a760008360600151815260200190815260200160002060008282546125589190614846565b92505081905550856101a660008282546125729190614846565b9091555061258d90506001600160a01b0388163330896136b5565b604080516001600160a01b0389168152602081018890527f2da466a7b24304f47e87fa2e1e5a81b9831ce54fec19055ce277ca2f39ba42c4910160405180910390a15095945050505050565b604051635ed6513d60e11b815230600482015263ffffffff8216602482015260009081906001600160a01b0385169063bdaca27a906044016040805180830381865afa15801561262d573d6000803e3d6000fd5b505050506040513d601f19601f820116820180604052508101906126519190614d30565b8051604080518082019091526002815261313160f01b60208201529093509091506001600160a01b0383166126995760405162461bcd60e51b8152600401610e5191906141bf565b505092915050565b604080518082019091526002815261313960f01b60208201526001600160a01b0382166126e15760405162461bcd60e51b8152600401610e5191906141bf565b50604080518082019091526002815261032360f41b60208201526001600160a01b03821630036111275760405162461bcd60e51b8152600401610e5191906141bf565b600033612732858285613713565b610fe8858585613787565b6112078133613960565b6127518282611bdd565b61112757600082815260fb602090815260408083206001600160a01b03851684529091529020805460ff191660011790556127893390565b6001600160a01b0316816001600160a01b0316837f2f8788117e7eff1d82e926ec794901d17c78024a50270940304540a733656f0d60405160405180910390a45050565b606060006127d9613286565b85518551604080518082019091526002815261189960f11b60208201529082146128165760405162461bcd60e51b8152600401610e5191906141bf565b50831561286257806001600160401b03811115612835576128356143e5565b60405190808252806020026020018201604052801561285e578160200160208202803683370190505b5092505b600080612870898988612eef565b91509150866000146128b857604080518082019091526002815261353160f01b6020820152878311156128b65760405162461bcd60e51b8152600401610e5191906141bf565b505b6128c28285614846565b935081156128dc576128dc8160000151826020015161399e565b60005b83811015612a1d576129098a82815181106128fc576128fc614801565b60200260200101516134cf565b600089828151811061291d5761291d614801565b6020026020010151905080866129339190614846565b95506129588b838151811061294a5761294a614801565b6020026020010151826132c6565b8715612a0c578a828151811061297057612970614801565b60209081029190910101516040516335927feb60e11b8152336004820152602481018390526001600160a01b0390911690636b24ffd6906044016020604051808303816000875af11580156129c9573d6000803e3d6000fd5b505050506040513d601f19601f820116820180604052508101906129ed9190614817565b8783815181106129ff576129ff614801565b6020026020010181815250505b50612a168161485e565b90506128df565b5050505094509492505050565b612a348282611bdd565b1561112757600082815260fb602090815260408083206001600160a01b0385168085529252808320805460ff1916905551339285917ff6391f5c32d9c69d2a47ea670b442974b53935d1edc7fd64eb21e047a839171b9190a45050565b611207612276565b7f4910fdfa16fed3260ed0e7147f7cc6da11a60208b5b9406d12a635614ffd91435460ff1615612acc5761101883613ac6565b826001600160a01b03166352d1902d6040518163ffffffff1660e01b8152600401602060405180830381865afa925050508015612b26575060408051601f3d908101601f19168201909252612b2391810190614817565b60015b612b895760405162461bcd60e51b815260206004820152602e60248201527f45524331393637557067726164653a206e657720696d706c656d656e7461746960448201526d6f6e206973206e6f74205555505360901b6064820152608401610e51565b60008051602061505a8339815191528114612bf85760405162461bcd60e51b815260206004820152602960248201527f45524331393637557067726164653a20756e737570706f727465642070726f786044820152681a58589b195555525160ba1b6064820152608401610e51565b50611018838383613b62565b612c0e8133611bdd565b80612c32575033612c276065546001600160a01b031690565b6001600160a01b0316145b604051806040016040528060018152602001603160f81b815250906111275760405162461bcd60e51b8152600401610e5191906141bf565b60975460ff16612cb35760405162461bcd60e51b815260206004820152601460248201527314185d5cd8589b194e881b9bdd081c185d5cd95960621b6044820152606401610e51565b6097805460ff191690557f5db9ee0a495bf2e6ff9c91a7834c1ba4fdd244a5e8aa4e537bd38aeae4b073aa335b6040516001600160a01b03909116815260200160405180910390a1565b606580546001600160a01b038381166001600160a01b0319831681179093556040519116919082907f8be0079c531659141344cd1fd0a4f28419497f9722a3daafe3b4186f6b6457e090600090a35050565b6101a254604080518082019091526002815261313760f01b6020820152906001600160a01b031633146112075760405162461bcd60e51b8152600401610e5191906141bf565b6001600160a01b038216612df55760405162461bcd60e51b815260206004820152602160248201527f45524332303a206275726e2066726f6d20746865207a65726f206164647265736044820152607360f81b6064820152608401610e51565b612e0182600083613b87565b6001600160a01b03821660009081526033602052604090205481811015612e755760405162461bcd60e51b815260206004820152602260248201527f45524332303a206275726e20616d6f756e7420657863656564732062616c616e604482015261636560f01b6064820152608401610e51565b6001600160a01b0383166000908152603360205260408120838303905560358054849290612ea4908490614b2c565b90915550506040518281526000906001600160a01b038516907fddf252ad1be2c89b69c2b068fc378daa952ba7f163c4a11628f55a4df523b3ef9060200160405180910390a3505050565b6000612f0e604051806040016040528060608152602001606081525090565b612f16613286565b604080518082019091526002815261353360f01b60208201528315612f4e5760405162461bcd60e51b8152600401610e5191906141bf565b508451604080518082019091526002815261353360f01b602082015260018214612f8b5760405162461bcd60e51b8152600401610e5191906141bf565b508451811460405180604001604052806002815260200161189960f11b81525090612fc95760405162461bcd60e51b8152600401610e5191906141bf565b503360009081526101a0602052604090205460ff16156130155750506040805160008183018181526060830184528252825181815260208082019094529282019290925290915061309e565b6101a5546040516352dec26160e11b81526001600160a01b039091169063a5bd84c29061304a9030908a908a90600401614d87565b600060405180830381865afa158015613067573d6000803e3d6000fd5b505050506040513d6000823e601f3d908101601f1916820160405261308f9190810190614c34565b915061309a8261361b565b9250505b935093915050565b60008054610100900460ff16156130ed578160ff1660011480156130c95750303b155b6130e55760405162461bcd60e51b8152600401610e5190614e1b565b506000919050565b60005460ff8084169116106131145760405162461bcd60e51b8152600401610e5190614e1b565b506000805460ff191660ff92909216919091179055600190565b919050565b600054610100900460ff166115725760405162461bcd60e51b8152600401610e5190614e69565b600054610100900460ff166131815760405162461bcd60e51b8152600401610e5190614e69565b61157233612cfd565b600054610100900460ff166131b15760405162461bcd60e51b8152600401610e5190614e69565b6097805460ff19169055565b600054610100900460ff166131e45760405162461bcd60e51b8152600401610e5190614e69565b81516131f79060369060208501906140d0565b5080516110189060379060208401906140d0565b60975460ff16156132515760405162461bcd60e51b815260206004820152601060248201526f14185d5cd8589b194e881c185d5cd95960821b6044820152606401610e51565b6097805460ff191660011790557f62e78cea01bee320cd4e420270b5ea74000d11b0c9f74754ebdbfc544b05a258612ce03390565b60975460ff1615604051806040016040528060028152602001610c4d60f21b815250906112075760405162461bcd60e51b8152600401610e5191906141bf565b6132d03382612d95565b6000826001600160a01b0316633633f35f6040518163ffffffff1660e01b8152600401600060405180830381865afa158015613310573d6000803e3d6000fd5b505050506040513d6000823e601f3d908101601f1916820160405261333891908101906149a2565b9050816101a760008360600151815260200190815260200160002060008282546133629190614b2c565b92505081905550816101a6600082825461337c9190614b2c565b9091555061339690506001600160a01b0384163384613b8f565b7f27d4634c833b7622a0acddbf7f746183625f105945e95c723ad1d5a9f2a0b6fc3384846040516133c993929190614baa565b60405180910390a1505050565b6001600160a01b03821661342c5760405162461bcd60e51b815260206004820152601f60248201527f45524332303a206d696e7420746f20746865207a65726f2061646472657373006044820152606401610e51565b61343860008383613b87565b806035600082825461344a9190614846565b90915550506001600160a01b03821660009081526033602052604081208054839290613477908490614846565b90915550506040518181526001600160a01b038316906000907fddf252ad1be2c89b69c2b068fc378daa952ba7f163c4a11628f55a4df523b3ef9060200160405180910390a35050565b600033610da2818585613787565b6101a454604051636e2fab0760e11b81526001600160a01b0383811660048301529091169063dc5f560e90602401602060405180830381865afa925050508015613536575060408051601f3d908101601f1916820190925261353391810190614b72565b60015b6135e457613542614eb4565b806308c379a00361357b5750613556614ecf565b80613561575061357d565b8060405162461bcd60e51b8152600401610e5191906141bf565b505b3d8080156135a7576040519150601f19603f3d011682016040523d82523d6000602084013e6135ac565b606091505b50806040516020016135be9190614f58565b60408051601f198184030181529082905262461bcd60e51b8252610e51916004016141bf565b604080518082019091526002815261191960f11b6020820152816110185760405162461bcd60e51b8152600401610e5191906141bf565b6000808260000151519050826020015151811460405180604001604052806002815260200161189960f11b815250906136675760405162461bcd60e51b8152600401610e5191906141bf565b5060005b818110156136ae578360200151818151811061368957613689614801565b60200260200101518361369c9190614846565b92506136a78161485e565b905061366b565b5050919050565b61370d846323b872dd60e01b8585856040516024016136d693929190614baa565b60408051601f198184030181529190526020810180516001600160e01b03166001600160e01b031990931692909217909152613bbf565b50505050565b600061371f8484611eb8565b9050600019811461370d578181101561377a5760405162461bcd60e51b815260206004820152601d60248201527f45524332303a20696e73756666696369656e7420616c6c6f77616e63650000006044820152606401610e51565b61370d8484848403612152565b6001600160a01b0383166137eb5760405162461bcd60e51b815260206004820152602560248201527f45524332303a207472616e736665722066726f6d20746865207a65726f206164604482015264647265737360d81b6064820152608401610e51565b6001600160a01b03821661384d5760405162461bcd60e51b815260206004820152602360248201527f45524332303a207472616e7366657220746f20746865207a65726f206164647260448201526265737360e81b6064820152608401610e51565b613858838383613b87565b6001600160a01b038316600090815260336020526040902054818110156138d05760405162461bcd60e51b815260206004820152602660248201527f45524332303a207472616e7366657220616d6f756e7420657863656564732062604482015265616c616e636560d01b6064820152608401610e51565b6001600160a01b03808516600090815260336020526040808220858503905591851681529081208054849290613907908490614846565b92505081905550826001600160a01b0316846001600160a01b03167fddf252ad1be2c89b69c2b068fc378daa952ba7f163c4a11628f55a4df523b3ef8460405161395391815260200190565b60405180910390a361370d565b61396a8282611bdd565b61112757613982816001600160a01b03166014613c91565b61398d836020613c91565b6040516020016135be929190614f92565b6000805b8351811015613a715760008382815181106139bf576139bf614801565b60200260200101519050600061271061019e54836139dd9190615007565b6139e7919061490f565b90506139f38183614b2c565b91506139ff8185614846565b9350613a24868481518110613a1657613a16614801565b602002602001015183611d31565b5060408051338152602081018490527f3f89e1d936a29a8de9ae9040436992721a00bc63bbe3ca55692b95f0311640b2910160405180910390a1505080613a6a9061485e565b90506139a2565b5080156110185761019d54613a8f906001600160a01b031682611d31565b5060408051338152602081018390527f932bd968974f0b6fa1cb59bf961f81d2e57b39332d311b413dceae17966387db91016133c9565b6001600160a01b0381163b613b335760405162461bcd60e51b815260206004820152602d60248201527f455243313936373a206e657720696d706c656d656e746174696f6e206973206e60448201526c1bdd08184818dbdb9d1c9858dd609a1b6064820152608401610e51565b60008051602061505a83398151915280546001600160a01b0319166001600160a01b0392909216919091179055565b613b6b83613e2c565b600082511180613b785750805b156110185761370d8383613e6c565b611018613286565b6040516001600160a01b03831660248201526044810182905261101890849063a9059cbb60e01b906064016136d6565b6000613c14826040518060400160405280602081526020017f5361666545524332303a206c6f772d6c6576656c2063616c6c206661696c6564815250856001600160a01b0316613f579092919063ffffffff16565b8051909150156110185780806020019051810190613c329190614b72565b6110185760405162461bcd60e51b815260206004820152602a60248201527f5361666545524332303a204552433230206f7065726174696f6e20646964206e6044820152691bdd081cdd58d8d9595960b21b6064820152608401610e51565b60606000613ca0836002615007565b613cab906002614846565b6001600160401b03811115613cc257613cc26143e5565b6040519080825280601f01601f191660200182016040528015613cec576020820181803683370190505b509050600360fc1b81600081518110613d0757613d07614801565b60200101906001600160f81b031916908160001a905350600f60fb1b81600181518110613d3657613d36614801565b60200101906001600160f81b031916908160001a9053506000613d5a846002615007565b613d65906001614846565b90505b6001811115613ddd576f181899199a1a9b1b9c1cb0b131b232b360811b85600f1660108110613d9957613d99614801565b1a60f81b828281518110613daf57613daf614801565b60200101906001600160f81b031916908160001a90535060049490941c93613dd681615026565b9050613d68565b508315610e695760405162461bcd60e51b815260206004820181905260248201527f537472696e67733a20686578206c656e67746820696e73756666696369656e746044820152606401610e51565b613e3581613ac6565b6040516001600160a01b038216907fbc7cd75a20ee27fd9adebab32041f755214dbc6bffa90cc0225b39da2e5c2d3b90600090a250565b60606001600160a01b0383163b613ed45760405162461bcd60e51b815260206004820152602660248201527f416464726573733a2064656c65676174652063616c6c20746f206e6f6e2d636f6044820152651b9d1c9858dd60d21b6064820152608401610e51565b600080846001600160a01b031684604051613eef919061503d565b600060405180830381855af49150503d8060008114613f2a576040519150601f19603f3d011682016040523d82523d6000602084013e613f2f565b606091505b50915091506110a4828260405180606001604052806027815260200161507a60279139613f66565b6060610e668484600085613f9f565b60608315613f75575081610e69565b825115613f855782518084602001fd5b8160405162461bcd60e51b8152600401610e5191906141bf565b6060824710156140005760405162461bcd60e51b815260206004820152602660248201527f416464726573733a20696e73756666696369656e742062616c616e636520666f6044820152651c8818d85b1b60d21b6064820152608401610e51565b6001600160a01b0385163b6140575760405162461bcd60e51b815260206004820152601d60248201527f416464726573733a2063616c6c20746f206e6f6e2d636f6e74726163740000006044820152606401610e51565b600080866001600160a01b03168587604051614073919061503d565b60006040518083038185875af1925050503d80600081146140b0576040519150601f19603f3d011682016040523d82523d6000602084013e6140b5565b606091505b50915091506140c5828286613f66565b979650505050505050565b8280546140dc906147c7565b90600052602060002090601f0160209004810192826140fe5760008555614144565b82601f1061411757805160ff1916838001178555614144565b82800160010185558215614144579182015b82811115614144578251825591602001919060010190614129565b50614150929150614154565b5090565b5b808211156141505760008155600101614155565b60006020828403121561417b57600080fd5b81356001600160e01b031981168114610e6957600080fd5b60005b838110156141ae578181015183820152602001614196565b8381111561370d5750506000910152565b60208152600082518060208401526141de816040850160208701614193565b601f01601f19169190910160400192915050565b6001600160a01b038116811461120757600080fd5b6000806040838503121561421a57600080fd5b8235614225816141f2565b946020939093013593505050565b60006020828403121561424557600080fd5b8135610e69816141f2565b60008060006060848603121561426557600080fd5b8335614270816141f2565b95602085013595506040909401359392505050565b60008083601f84011261429757600080fd5b5081356001600160401b038111156142ae57600080fd5b6020830191508360208260051b85010111156142c957600080fd5b9250929050565b6000806000806000606086880312156142e857600080fd5b853563ffffffff811681146142fc57600080fd5b945060208601356001600160401b038082111561431857600080fd5b61432489838a01614285565b9096509450604088013591508082111561433d57600080fd5b5061434a88828901614285565b969995985093965092949392505050565b60008060006060848603121561437057600080fd5b833561437b816141f2565b9250602084013561438b816141f2565b929592945050506040919091013590565b6000602082840312156143ae57600080fd5b5035919050565b600080604083850312156143c857600080fd5b8235915060208301356143da816141f2565b809150509250929050565b634e487b7160e01b600052604160045260246000fd5b604081018181106001600160401b038211171561441a5761441a6143e5565b60405250565b601f8201601f191681016001600160401b0381118282101715614445576144456143e5565b6040525050565b60405161018081016001600160401b038111828210171561446f5761446f6143e5565b60405290565b60006001600160401b0382111561448e5761448e6143e5565b5060051b60200190565b600082601f8301126144a957600080fd5b813560206144b682614475565b6040516144c38282614420565b83815260059390931b85018201928281019150868411156144e357600080fd5b8286015b848110156145075780356144fa816141f2565b83529183019183016144e7565b509695505050505050565b600082601f83011261452357600080fd5b8135602061453082614475565b60405161453d8282614420565b83815260059390931b850182019282810191508684111561455d57600080fd5b8286015b848110156145075780358352918301918301614561565b60008060006060848603121561458d57600080fd5b83356001600160401b03808211156145a457600080fd5b6145b087838801614498565b945060208601359150808211156145c657600080fd5b506145d386828701614512565b925050604084013590509250925092565b60006001600160401b038211156145fd576145fd6143e5565b50601f01601f191660200190565b6000806040838503121561461e57600080fd5b8235614629816141f2565b915060208301356001600160401b0381111561464457600080fd5b8301601f8101851361465557600080fd5b8035614660816145e4565b60405161466d8282614420565b82815287602084860101111561468257600080fd5b82602085016020830137600060208483010152809450505050509250929050565b801515811461120757600080fd5b6000806000606084860312156146c657600080fd5b83356001600160401b03808211156146dd57600080fd5b6146e987838801614498565b945060208601359150808211156146ff57600080fd5b5061470c86828701614512565b925050604084013561471d816146a3565b809150509250925092565b6000806020838503121561473b57600080fd5b82356001600160401b038082111561475257600080fd5b818501915085601f83011261476657600080fd5b81358181111561477557600080fd5b86602082850101111561478757600080fd5b60209290920196919550909350505050565b600080604083850312156147ac57600080fd5b82356147b7816141f2565b915060208301356143da816141f2565b600181811c908216806147db57607f821691505b6020821081036147fb57634e487b7160e01b600052602260045260246000fd5b50919050565b634e487b7160e01b600052603260045260246000fd5b60006020828403121561482957600080fd5b5051919050565b634e487b7160e01b600052601160045260246000fd5b6000821982111561485957614859614830565b500190565b60006001820161487057614870614830565b5060010190565b6020808252602c908201527f46756e6374696f6e206d7573742062652063616c6c6564207468726f7567682060408201526b19195b1959d85d1958d85b1b60a21b606082015260800190565b6020808252602c908201527f46756e6374696f6e206d7573742062652063616c6c6564207468726f7567682060408201526b6163746976652070726f787960a01b606082015260800190565b60008261492c57634e487b7160e01b600052601260045260246000fd5b500490565b600082601f83011261494257600080fd5b815161494d816145e4565b60405161495a8282614420565b82815285602084870101111561496f57600080fd5b6110a4836020830160208801614193565b80516001600160401b038116811461312e57600080fd5b805161312e816146a3565b6000602082840312156149b457600080fd5b81516001600160401b03808211156149cb57600080fd5b9083019061018082860312156149e057600080fd5b6149e861444c565b8251828111156149f757600080fd5b614a0387828601614931565b825250614a1260208401614980565b6020820152614a2360408401614980565b604082015260608301516060820152614a3e60808401614980565b6080820152614a4f60a08401614997565b60a0820152614a6060c08401614997565b60c082015260e083015182811115614a7757600080fd5b614a8387828601614931565b60e0830152506101008084015183811115614a9d57600080fd5b614aa988828701614931565b8284015250506101208084015183811115614ac357600080fd5b614acf88828701614931565b8284015250506101408084015183811115614ae957600080fd5b614af588828701614931565b8284015250506101608084015183811115614b0f57600080fd5b614b1b88828701614931565b918301919091525095945050505050565b600082821015614b3e57614b3e614830565b500390565b60208152816020820152818360408301376000818301604090810191909152601f909201601f19160101919050565b600060208284031215614b8457600080fd5b8151610e69816146a3565b600060208284031215614ba157600080fd5b610e6982614980565b6001600160a01b039384168152919092166020820152604081019190915260600190565b600082601f830112614bdf57600080fd5b81516020614bec82614475565b604051614bf98282614420565b83815260059390931b8501820192828101915086841115614c1957600080fd5b8286015b848110156145075780518352918301918301614c1d565b60006020808385031215614c4757600080fd5b82516001600160401b0380821115614c5e57600080fd5b9084019060408287031215614c7257600080fd5b604051614c7e816143fb565b825182811115614c8d57600080fd5b8301601f81018813614c9e57600080fd5b8051614ca981614475565b604051614cb68282614420565b82815260059290921b830187019187810191508a831115614cd657600080fd5b928701925b82841015614cfd578351614cee816141f2565b82529287019290870190614cdb565b84525050508284015182811115614d1357600080fd5b614d1f88828601614bce565b948201949094529695505050505050565b600060408284031215614d4257600080fd5b604051604081018181106001600160401b0382111715614d6457614d646143e5565b6040528251614d72816141f2565b81526020928301519281019290925250919050565b6001600160a01b038481168252606060208084018290528551918401829052600092868201929091906080860190855b81811015614dd5578551851683529483019491830191600101614db7565b5050858103604087015286518082529082019350915080860160005b83811015614e0d57815185529382019390820190600101614df1565b509298975050505050505050565b6020808252602e908201527f496e697469616c697a61626c653a20636f6e747261637420697320616c72656160408201526d191e481a5b9a5d1a585b1a5e995960921b606082015260800190565b6020808252602b908201527f496e697469616c697a61626c653a20636f6e7472616374206973206e6f74206960408201526a6e697469616c697a696e6760a81b606082015260800190565b600060033d11156117bc5760046000803e5060005160e01c90565b600060443d1015614edd5790565b6040516003193d81016004833e81513d6001600160401b038160248401118184111715614f0c57505050505090565b8285019150815181811115614f245750505050505090565b843d8701016020828501011115614f3e5750505050505090565b614f4d60208286010187614420565b509095945050505050565b7103ab732bc3832b1ba32b21032b93937b91d160751b815260008251614f85816012850160208701614193565b9190910160120192915050565b7f416363657373436f6e74726f6c3a206163636f756e7420000000000000000000815260008351614fca816017850160208801614193565b7001034b99036b4b9b9b4b733903937b6329607d1b6017918401918201528351614ffb816028840160208801614193565b01602801949350505050565b600081600019048311821515161561502157615021614830565b500290565b60008161503557615035614830565b506000190190565b6000825161504f818460208701614193565b919091019291505056fe360894a13ba1a3210667c828492db98dca3e2076cc3735a920a3ca505d382bbc416464726573733a206c6f772d6c6576656c2064656c65676174652063616c6c206661696c6564a2646970667358221220107c1a3c31a1d35afee1e72ac4d827e8e0df45de7010c5eefeff8534b24d17f964736f6c634300080e0033496e697469616c697a61626c653a20636f6e747261637420697320616c726561",
  "devdoc": {
    "kind": "dev",
    "methods": {
      "addRedeemFeeExemptedAddress(address)": {
        "params": {
          "_address": "address to be exempted on redeem fees"
        }
      },
      "addRedeemFeeExemptedTCO2(address)": {
        "params": {
          "_tco2": "TCO2 to be exempted on redeem fees"
        }
      },
      "allowance(address,address)": {
        "details": "See {IERC20-allowance}."
      },
      "approve(address,uint256)": {
        "details": "See {IERC20-approve}. NOTE: If `amount` is the maximum `uint256`, the allowance is not updated on `transferFrom`. This is semantically equivalent to an infinite approval. Requirements: - `spender` cannot be the zero address."
      },
      "balanceOf(address)": {
        "details": "See {IERC20-balanceOf}."
      },
      "bridgeBurn(address,uint256)": {
        "details": "invoked only by the ToucanCrosschainMessenger (Router)",
        "params": {
          "_account": "account that will be burned with corss-chain bridged tokens",
          "_amount": "amount of tokens that will be burned"
        }
      },
      "bridgeMint(address,uint256)": {
        "details": "invoked only by the ToucanCrosschainMessenger (Router)",
        "params": {
          "_account": "account that will be minted with corss-chain bridged tokens",
          "_amount": "amount of tokens that will be minted"
        }
      },
      "bridgeTCO2s(uint32,address[],uint256[])": {
        "params": {
          "amounts": "The amounts of TCO2s to bridge",
          "destinationDomain": "The domain to bridge TCO2s to",
          "tco2s": "The TCO2s to bridge"
        }
      },
      "calculateDepositFees(address,uint256)": {
        "details": "User specifies in front-end the address and amount they want",
        "params": {
          "amount": "Amount to redeem",
          "tco2": "TCO2 contract address"
        },
        "returns": {
          "feeDistributionTotal": "Total fee amount to be paid"
        }
      },
      "calculateRedemptionOutFees(address[],uint256[],bool)": {
        "details": "User specifies in front-end the addresses and amounts they want",
        "params": {
          "amounts": "Array of TCO2 amounts to redeem The indexes of this array are matching 1:1 with the tco2s array.",
          "tco2s": "Array of TCO2 contract addresses",
          "toRetire": "Whether the TCO2s will be retired atomically with the redemption. It may be that lower fees will be charged in this case. Currently not supported."
        },
        "returns": {
          "feeDistributionTotal": "Total fee amount to be paid"
        }
      },
      "checkEligible(address)": {
        "params": {
          "erc20Addr": "the contract to check"
        },
        "returns": {
          "isEligible": "true if address is eligible and no other issues occur"
        }
      },
      "decimals()": {
        "details": "Returns the number of decimals used to get its user representation. For example, if `decimals` equals `2`, a balance of `505` tokens should be displayed to a user as `5.05` (`505 / 10 ** 2`). Tokens usually opt for a value of 18, imitating the relationship between Ether and Wei. This is the value {ERC20} uses, unless this function is overridden; NOTE: This information is only used for _display_ purposes: it in no way affects any of the arithmetic of the contract, including {IERC20-balanceOf} and {IERC20-transfer}."
      },
      "decreaseAllowance(address,uint256)": {
        "details": "Atomically decreases the allowance granted to `spender` by the caller. This is an alternative to {approve} that can be used as a mitigation for problems described in {IERC20-approve}. Emits an {Approval} event indicating the updated allowance. Requirements: - `spender` cannot be the zero address. - `spender` must have allowance for the caller of at least `subtractedValue`."
      },
      "deposit(address,uint256,uint256)": {
        "details": "Eligibility of the ERC20 token to be deposited is checked via `checkEligible`",
        "params": {
          "amount": "Amount of TCO2 to be deposited",
          "maxFee": "Maximum fee to be paid for the deposit. This value cannot be zero. Use `calculateDepositFees(tco2,amount)` to determine the fee that will be charged given the state of the pool during this call. Add a buffer on top of the returned fee amount up to the maximum fee you are willing to pay.",
          "tco2": "TCO2 to be deposited, requires approve"
        },
        "returns": {
          "mintedPoolTokenAmount": "Amount of pool tokens minted to the caller"
        }
      },
      "getRemaining()": {
        "details": "Returns the remaining space in pool before hitting the cap"
      },
      "getRoleAdmin(bytes32)": {
        "details": "Returns the admin role that controls `role`. See {grantRole} and {revokeRole}. To change a role's admin, use {_setRoleAdmin}."
      },
      "grantRole(bytes32,address)": {
        "details": "Grants `role` to `account`. If `account` had not been already granted `role`, emits a {RoleGranted} event. Requirements: - the caller must have ``role``'s admin role."
      },
      "hasRole(bytes32,address)": {
        "details": "Returns `true` if `account` has been granted `role`."
      },
      "increaseAllowance(address,uint256)": {
        "details": "Atomically increases the allowance granted to `spender` by the caller. This is an alternative to {approve} that can be used as a mitigation for problems described in {IERC20-approve}. Emits an {Approval} event indicating the updated allowance. Requirements: - `spender` cannot be the zero address."
      },
      "name()": {
        "details": "Returns the name of the token."
      },
      "owner()": {
        "details": "Returns the address of the current owner."
      },
      "pause()": {
        "details": "wraps _pause(), only Admin"
      },
      "paused()": {
        "details": "Returns true if the contract is paused, and false otherwise."
      },
      "proxiableUUID()": {
        "details": "Implementation of the ERC1822 {proxiableUUID} function. This returns the storage slot used by the implementation. It is used to validate that the this implementation remains valid after an upgrade. IMPORTANT: A proxy pointing at a proxiable contract should not be considered proxiable itself, because this risks bricking a proxy that upgrades to it, by delegating to itself until out of gas. Thus it is critical that this function revert if invoked through a proxy. This is guaranteed by the `notDelegated` modifier."
      },
      "quoteBridgeTCO2sFee(uint32,address[],uint256[])": {
        "params": {
          "amounts": "The amounts of TCO2s to bridge",
          "destinationDomain": "The domain to bridge TCO2s to",
          "tco2s": "The TCO2s to bridge"
        },
        "returns": {
          "fee": "The fee amount to be paid"
        }
      },
      "redeemAndBurn(address,uint256)": {
        "details": "User needs to approve the pool contract in the TCO2 contract for the amount to be burnt before executing this function.",
        "params": {
          "amount": "Amount to redeem and burn",
          "tco2": "TCO2 to redeem and burn"
        }
      },
      "redeemOutMany(address[],uint256[],uint256)": {
        "params": {
          "amounts": "Array of TCO2 amounts to redeem The indexes of this array are matching 1:1 with the tco2s array.",
          "maxFee": "Maximum fee to be paid for the redemption. This value cannot be zero. Use `calculateRedemptionOutFees(tco2s,amounts,false)` to determine the fee that will be charged given the state of the pool during this call. Add a buffer on top of the returned fee amount up to the maximum fee you are willing to pay.",
          "tco2s": "Array of TCO2 contract addresses"
        },
        "returns": {
          "poolAmountSpent": "The amount of pool tokens that were spent"
        }
      },
      "removeRedeemFeeExemptedAddress(address)": {
        "params": {
          "_address": "address to be removed from exemption"
        }
      },
      "removeRedeemFeeExemptedTCO2(address)": {
        "params": {
          "_tco2": "TCO2 to be removed from exemption"
        }
      },
      "renounceOwnership()": {
        "details": "Leaves the contract without owner. It will not be possible to call `onlyOwner` functions anymore. Can only be called by the current owner. NOTE: Renouncing ownership will leave the contract without an owner, thereby removing any functionality that is only available to the owner."
      },
      "renounceRole(bytes32,address)": {
        "details": "Revokes `role` from the calling account. Roles are often managed via {grantRole} and {revokeRole}: this function's purpose is to provide a mechanism for accounts to lose their privileges if they are compromised (such as when a trusted device is misplaced). If the calling account had been revoked `role`, emits a {RoleRevoked} event. Requirements: - the caller must be `account`."
      },
      "revokeRole(bytes32,address)": {
        "details": "Revokes `role` from `account`. If `account` had been granted `role`, emits a {RoleRevoked} event. Requirements: - the caller must have ``role``'s admin role."
      },
      "setFeeCalculator(address)": {
        "params": {
          "_feeCalculator": "Fee module contract address"
        }
      },
      "setFeeRedeemBurnAddress(address)": {
        "params": {
          "feeRedeemBurnAddress_": "address to transfer the fees to burn"
        }
      },
      "setFeeRedeemBurnPercentage(uint256)": {
        "params": {
          "feeRedeemBurnPercentageInBase_": "percentage of fee in base"
        }
      },
      "setFilter(address)": {
        "params": {
          "_filter": "Filter contract address"
        }
      },
      "setRouter(address)": {
        "details": "use this method to set router address",
        "params": {
          "_router": "address of ToucanCrosschainMessenger"
        }
      },
      "setSupplyCap(uint256)": {
        "details": "supplyCap is initially set to 0 and must be increased before deposits"
      },
      "supportsInterface(bytes4)": {
        "details": "See {IERC165-supportsInterface}."
      },
      "symbol()": {
        "details": "Returns the symbol of the token, usually a shorter version of the name."
      },
      "totalSupply()": {
        "details": "See {IERC20-totalSupply}."
      },
      "transferOwnership(address)": {
        "details": "Transfers ownership of the contract to a new account (`newOwner`). Can only be called by the current owner."
      },
      "unpause()": {
        "details": "Unpause the system, wraps _unpause(), only Admin"
      },
      "upgradeTo(address)": {
        "details": "Upgrade the implementation of the proxy to `newImplementation`. Calls {_authorizeUpgrade}. Emits an {Upgraded} event."
      },
      "upgradeToAndCall(address,bytes)": {
        "details": "Upgrade the implementation of the proxy to `newImplementation`, and subsequently execute the function call encoded in `data`. Calls {_authorizeUpgrade}. Emits an {Upgraded} event."
      }
    },
    "stateVariables": {
      "VERSION": {
        "details": "Version-related parameters. VERSION keeps track of production releases. VERSION_RELEASE_CANDIDATE keeps track of iterations of a VERSION in our staging environment."
      }
    },
    "version": 1
  },
  "userdoc": {
    "kind": "user",
    "methods": {
      "addRedeemFeeExemptedAddress(address)": {
        "notice": "Adds a new address for redeem fees exemption"
      },
      "addRedeemFeeExemptedTCO2(address)": {
        "notice": "Adds a new TCO2 for redeem fees exemption"
      },
      "bridgeBurn(address,uint256)": {
        "notice": "burn tokens from account to be cross-chain bridged"
      },
      "bridgeMint(address,uint256)": {
        "notice": "mint tokens to receiver account that were cross-chain bridged"
      },
      "bridgeTCO2s(uint32,address[],uint256[])": {
        "notice": "Allows MANAGER or the owner to bridge TCO2s into another domain."
      },
      "calculateDepositFees(address,uint256)": {
        "notice": "View function to calculate deposit fees pre-execution"
      },
      "calculateRedemptionInFees(address[],uint256[],bool)": {
        "notice": "View function to calculate fees pre-execution NOTE: This function is not supported yet"
      },
      "calculateRedemptionOutFees(address[],uint256[],bool)": {
        "notice": "View function to calculate fees pre-execution"
      },
      "checkEligible(address)": {
        "notice": "Checks if token to be deposited is eligible for this pool. Reverts if not. Beware that the revert reason might depend on the underlying implementation of IPoolFilter.checkEligible"
      },
      "deposit(address,uint256,uint256)": {
        "notice": "Deposit function for pool that accepts TCO2s and mints pool token 1:1"
      },
      "feeCalculator()": {
        "notice": "module to calculate fees for the pool"
      },
      "methodologies(string)": {
        "notice": "Checks if methodology is eligible for this pool"
      },
      "minimumVintageStartTime()": {
        "notice": "Returns minimum vintage start time for this pool"
      },
      "pause()": {
        "notice": "Emergency function to disable contract's core functionality"
      },
      "quoteBridgeTCO2sFee(uint32,address[],uint256[])": {
        "notice": "Get the fee needed to bridge TCO2s into the destination domain."
      },
      "redeemAndBurn(address,uint256)": {
        "notice": "Redeem a whitelisted TCO2 without paying any fees and burn the TCO2. Initially added to burn HFC-23 credits, can be used in the future to dispose of any other whitelisted credits."
      },
      "redeemFeeExemptedAddresses(address)": {
        "notice": "End users exempted from redeem fees"
      },
      "redeemFeeExemptedTCO2s(address)": {
        "notice": "TCO2s exempted from redeem fees"
      },
      "redeemOutMany(address[],uint256[],uint256)": {
        "notice": "Redeem TCO2s for pool tokens 1:1 minus fees The amounts provided are the exact amounts of TCO2s to be redeemed."
      },
      "regions(string)": {
        "notice": "Checks if region is eligible for this pool"
      },
      "removeRedeemFeeExemptedAddress(address)": {
        "notice": "Removes an address from redeem fees exemption"
      },
      "removeRedeemFeeExemptedTCO2(address)": {
        "notice": "Removes a TCO2 from redeem fees exemption"
      },
      "router()": {
        "notice": "bridge router who has access to the bridgeMint & bridgeBurn functions which mint/burn pool tokens for cross chain messenges"
      },
      "scoredTCO2s(uint256)": {
        "notice": "array used to read from when redeeming TCO2s automatically"
      },
      "setFeeCalculator(address)": {
        "notice": "Update the address of the fee module contract"
      },
      "setFeeRedeemBurnAddress(address)": {
        "notice": "Update the fee redeem burn address"
      },
      "setFeeRedeemBurnPercentage(uint256)": {
        "notice": "Update the fee redeem burn percentage"
      },
      "setFilter(address)": {
        "notice": "Update the address of the filter contract"
      },
      "setRouter(address)": {
        "notice": "method to set router address"
      },
      "setSupplyCap(uint256)": {
        "notice": "Function to limit the maximum pool supply"
      },
      "standards(string)": {
        "notice": "Checks if standard is eligible for this pool"
      },
      "supplyCap()": {
        "notice": "The supply cap is used as a measure to guard deposits in the pool. It is meant to minimize the impact a potential compromise in the source registry (eg. Verra) can have to the pool."
      },
      "tokenBalances(address)": {
        "notice": "Returns the balance of the TCO2 found in the pool"
      },
      "totalPerProjectTCO2Supply(uint256)": {
        "notice": "Project token id to total supply of the project in the pool."
      },
      "totalTCO2Supply()": {
        "notice": "Total TCO2 supply in the pool."
      }
    },
    "notice": "Biochar pool contract",
    "version": 1
  },
  "storageLayout": {
    "storage": [
      {
        "astId": 2390,
        "contract": "contracts/pools/Biochar.sol:Biochar",
        "label": "_initialized",
        "offset": 0,
        "slot": "0",
        "type": "t_uint8"
      },
      {
        "astId": 2393,
        "contract": "contracts/pools/Biochar.sol:Biochar",
        "label": "_initializing",
        "offset": 1,
        "slot": "0",
        "type": "t_bool"
      },
      {
        "astId": 5494,
        "contract": "contracts/pools/Biochar.sol:Biochar",
        "label": "__gap",
        "offset": 0,
        "slot": "1",
        "type": "t_array(t_uint256)50_storage"
      },
      {
        "astId": 2850,
        "contract": "contracts/pools/Biochar.sol:Biochar",
        "label": "_balances",
        "offset": 0,
        "slot": "51",
        "type": "t_mapping(t_address,t_uint256)"
      },
      {
        "astId": 2856,
        "contract": "contracts/pools/Biochar.sol:Biochar",
        "label": "_allowances",
        "offset": 0,
        "slot": "52",
        "type": "t_mapping(t_address,t_mapping(t_address,t_uint256))"
      },
      {
        "astId": 2858,
        "contract": "contracts/pools/Biochar.sol:Biochar",
        "label": "_totalSupply",
        "offset": 0,
        "slot": "53",
        "type": "t_uint256"
      },
      {
        "astId": 2860,
        "contract": "contracts/pools/Biochar.sol:Biochar",
        "label": "_name",
        "offset": 0,
        "slot": "54",
        "type": "t_string_storage"
      },
      {
        "astId": 2862,
        "contract": "contracts/pools/Biochar.sol:Biochar",
        "label": "_symbol",
        "offset": 0,
        "slot": "55",
        "type": "t_string_storage"
      },
      {
        "astId": 3441,
        "contract": "contracts/pools/Biochar.sol:Biochar",
        "label": "__gap",
        "offset": 0,
        "slot": "56",
        "type": "t_array(t_uint256)45_storage"
      },
      {
        "astId": 1881,
        "contract": "contracts/pools/Biochar.sol:Biochar",
        "label": "_owner",
        "offset": 0,
        "slot": "101",
        "type": "t_address"
      },
      {
        "astId": 1993,
        "contract": "contracts/pools/Biochar.sol:Biochar",
        "label": "__gap",
        "offset": 0,
        "slot": "102",
        "type": "t_array(t_uint256)49_storage"
      },
      {
        "astId": 2682,
        "contract": "contracts/pools/Biochar.sol:Biochar",
        "label": "_paused",
        "offset": 0,
        "slot": "151",
        "type": "t_bool"
      },
      {
        "astId": 2771,
        "contract": "contracts/pools/Biochar.sol:Biochar",
        "label": "__gap",
        "offset": 0,
        "slot": "152",
        "type": "t_array(t_uint256)49_storage"
      },
      {
        "astId": 5801,
        "contract": "contracts/pools/Biochar.sol:Biochar",
        "label": "__gap",
        "offset": 0,
        "slot": "201",
        "type": "t_array(t_uint256)50_storage"
      },
      {
        "astId": 1497,
        "contract": "contracts/pools/Biochar.sol:Biochar",
        "label": "_roles",
        "offset": 0,
        "slot": "251",
        "type": "t_mapping(t_bytes32,t_struct(RoleData)1492_storage)"
      },
      {
        "astId": 1796,
        "contract": "contracts/pools/Biochar.sol:Biochar",
        "label": "__gap",
        "offset": 0,
        "slot": "252",
        "type": "t_array(t_uint256)49_storage"
      },
      {
        "astId": 2372,
        "contract": "contracts/pools/Biochar.sol:Biochar",
        "label": "__gap",
        "offset": 0,
        "slot": "301",
        "type": "t_array(t_uint256)50_storage"
      },
      {
        "astId": 2660,
        "contract": "contracts/pools/Biochar.sol:Biochar",
        "label": "__gap",
        "offset": 0,
        "slot": "351",
        "type": "t_array(t_uint256)50_storage"
      },
      {
        "astId": 23377,
        "contract": "contracts/pools/Biochar.sol:Biochar",
        "label": "supplyCap",
        "offset": 0,
        "slot": "401",
        "type": "t_uint256"
      },
      {
        "astId": 23381,
        "contract": "contracts/pools/Biochar.sol:Biochar",
        "label": "DEPRECATED_tokenBalances",
        "offset": 0,
        "slot": "402",
        "type": "t_mapping(t_address,t_uint256)"
      },
      {
        "astId": 23383,
        "contract": "contracts/pools/Biochar.sol:Biochar",
        "label": "DEPRECATED_contractRegistry",
        "offset": 0,
        "slot": "403",
        "type": "t_address"
      },
      {
        "astId": 23387,
        "contract": "contracts/pools/Biochar.sol:Biochar",
        "label": "scoredTCO2s",
        "offset": 0,
        "slot": "404",
        "type": "t_array(t_address)dyn_storage"
      },
      {
        "astId": 23392,
        "contract": "contracts/pools/Biochar.sol:Biochar",
        "label": "DEPRECATED_regions",
        "offset": 0,
        "slot": "405",
        "type": "t_mapping(t_string_memory_ptr,t_bool)"
      },
      {
        "astId": 23396,
        "contract": "contracts/pools/Biochar.sol:Biochar",
        "label": "DEPRECATED_standards",
        "offset": 0,
        "slot": "406",
        "type": "t_mapping(t_string_memory_ptr,t_bool)"
      },
      {
        "astId": 23400,
        "contract": "contracts/pools/Biochar.sol:Biochar",
        "label": "DEPRECATED_methodologies",
        "offset": 0,
        "slot": "407",
        "type": "t_mapping(t_string_memory_ptr,t_bool)"
      },
      {
        "astId": 23405,
        "contract": "contracts/pools/Biochar.sol:Biochar",
        "label": "DEPRECATED_externalWhiteList",
        "offset": 0,
        "slot": "408",
        "type": "t_mapping(t_address,t_bool)"
      },
      {
        "astId": 23410,
        "contract": "contracts/pools/Biochar.sol:Biochar",
        "label": "DEPRECATED_internalWhiteList",
        "offset": 0,
        "slot": "409",
        "type": "t_mapping(t_address,t_bool)"
      },
      {
        "astId": 23415,
        "contract": "contracts/pools/Biochar.sol:Biochar",
        "label": "DEPRECATED_internalBlackList",
        "offset": 0,
        "slot": "410",
        "type": "t_mapping(t_address,t_bool)"
      },
      {
        "astId": 23418,
        "contract": "contracts/pools/Biochar.sol:Biochar",
        "label": "_feeRedeemReceiver",
        "offset": 0,
        "slot": "411",
        "type": "t_address"
      },
      {
        "astId": 23420,
        "contract": "contracts/pools/Biochar.sol:Biochar",
        "label": "_feeRedeemPercentageInBase",
        "offset": 0,
        "slot": "412",
        "type": "t_uint256"
      },
      {
        "astId": 23423,
        "contract": "contracts/pools/Biochar.sol:Biochar",
        "label": "_feeRedeemBurnAddress",
        "offset": 0,
        "slot": "413",
        "type": "t_address"
      },
      {
        "astId": 23426,
        "contract": "contracts/pools/Biochar.sol:Biochar",
        "label": "_feeRedeemBurnPercentageInBase",
        "offset": 0,
        "slot": "414",
        "type": "t_uint256"
      },
      {
        "astId": 23429,
        "contract": "contracts/pools/Biochar.sol:Biochar",
        "label": "DEPRECATED_minimumVintageStartTime",
        "offset": 0,
        "slot": "415",
        "type": "t_uint64"
      },
      {
        "astId": 23431,
        "contract": "contracts/pools/Biochar.sol:Biochar",
        "label": "DEPRECATED_seedMode",
        "offset": 8,
        "slot": "415",
        "type": "t_bool"
      },
      {
        "astId": 23433,
        "contract": "contracts/pools/Biochar.sol:Biochar",
        "label": "DEPRECATED_regionsIsAcceptedMapping",
        "offset": 9,
        "slot": "415",
        "type": "t_bool"
      },
      {
        "astId": 23435,
        "contract": "contracts/pools/Biochar.sol:Biochar",
        "label": "DEPRECATED_standardsIsAcceptedMapping",
        "offset": 10,
        "slot": "415",
        "type": "t_bool"
      },
      {
        "astId": 23437,
        "contract": "contracts/pools/Biochar.sol:Biochar",
        "label": "DEPRECATED_methodologiesIsAcceptedMapping",
        "offset": 11,
        "slot": "415",
        "type": "t_bool"
      },
      {
        "astId": 23443,
        "contract": "contracts/pools/Biochar.sol:Biochar",
        "label": "redeemFeeExemptedAddresses",
        "offset": 0,
        "slot": "416",
        "type": "t_mapping(t_address,t_bool)"
      },
      {
        "astId": 23449,
        "contract": "contracts/pools/Biochar.sol:Biochar",
        "label": "redeemFeeExemptedTCO2s",
        "offset": 0,
        "slot": "417",
        "type": "t_mapping(t_address,t_bool)"
      },
      {
        "astId": 23453,
        "contract": "contracts/pools/Biochar.sol:Biochar",
        "label": "router",
        "offset": 0,
        "slot": "418",
        "type": "t_address"
      },
      {
        "astId": 23457,
        "contract": "contracts/pools/Biochar.sol:Biochar",
        "label": "_feeRedeemRetirePercentageInBase",
        "offset": 0,
        "slot": "419",
        "type": "t_uint256"
      },
      {
        "astId": 23459,
        "contract": "contracts/pools/Biochar.sol:Biochar",
        "label": "filter",
        "offset": 0,
        "slot": "420",
        "type": "t_address"
      },
      {
        "astId": 23464,
        "contract": "contracts/pools/Biochar.sol:Biochar",
        "label": "feeCalculator",
        "offset": 0,
        "slot": "421",
        "type": "t_contract(IFeeCalculator)8379"
      },
      {
        "astId": 23467,
        "contract": "contracts/pools/Biochar.sol:Biochar",
        "label": "totalTCO2Supply",
        "offset": 0,
        "slot": "422",
        "type": "t_uint256"
      },
      {
        "astId": 23472,
        "contract": "contracts/pools/Biochar.sol:Biochar",
        "label": "totalPerProjectTCO2Supply",
        "offset": 0,
        "slot": "423",
        "type": "t_mapping(t_uint256,t_uint256)"
      }
    ],
    "types": {
      "t_address": {
        "encoding": "inplace",
        "label": "address",
        "numberOfBytes": "20"
      },
      "t_array(t_address)dyn_storage": {
        "base": "t_address",
        "encoding": "dynamic_array",
        "label": "address[]",
        "numberOfBytes": "32"
      },
      "t_array(t_uint256)45_storage": {
        "base": "t_uint256",
        "encoding": "inplace",
        "label": "uint256[45]",
        "numberOfBytes": "1440"
      },
      "t_array(t_uint256)49_storage": {
        "base": "t_uint256",
        "encoding": "inplace",
        "label": "uint256[49]",
        "numberOfBytes": "1568"
      },
      "t_array(t_uint256)50_storage": {
        "base": "t_uint256",
        "encoding": "inplace",
        "label": "uint256[50]",
        "numberOfBytes": "1600"
      },
      "t_bool": {
        "encoding": "inplace",
        "label": "bool",
        "numberOfBytes": "1"
      },
      "t_bytes32": {
        "encoding": "inplace",
        "label": "bytes32",
        "numberOfBytes": "32"
      },
      "t_contract(IFeeCalculator)8379": {
        "encoding": "inplace",
        "label": "contract IFeeCalculator",
        "numberOfBytes": "20"
      },
      "t_mapping(t_address,t_bool)": {
        "encoding": "mapping",
        "key": "t_address",
        "label": "mapping(address => bool)",
        "numberOfBytes": "32",
        "value": "t_bool"
      },
      "t_mapping(t_address,t_mapping(t_address,t_uint256))": {
        "encoding": "mapping",
        "key": "t_address",
        "label": "mapping(address => mapping(address => uint256))",
        "numberOfBytes": "32",
        "value": "t_mapping(t_address,t_uint256)"
      },
      "t_mapping(t_address,t_uint256)": {
        "encoding": "mapping",
        "key": "t_address",
        "label": "mapping(address => uint256)",
        "numberOfBytes": "32",
        "value": "t_uint256"
      },
      "t_mapping(t_bytes32,t_struct(RoleData)1492_storage)": {
        "encoding": "mapping",
        "key": "t_bytes32",
        "label": "mapping(bytes32 => struct AccessControlUpgradeable.RoleData)",
        "numberOfBytes": "32",
        "value": "t_struct(RoleData)1492_storage"
      },
      "t_mapping(t_string_memory_ptr,t_bool)": {
        "encoding": "mapping",
        "key": "t_string_memory_ptr",
        "label": "mapping(string => bool)",
        "numberOfBytes": "32",
        "value": "t_bool"
      },
      "t_mapping(t_uint256,t_uint256)": {
        "encoding": "mapping",
        "key": "t_uint256",
        "label": "mapping(uint256 => uint256)",
        "numberOfBytes": "32",
        "value": "t_uint256"
      },
      "t_string_memory_ptr": {
        "encoding": "bytes",
        "label": "string",
        "numberOfBytes": "32"
      },
      "t_string_storage": {
        "encoding": "bytes",
        "label": "string",
        "numberOfBytes": "32"
      },
      "t_struct(RoleData)1492_storage": {
        "encoding": "inplace",
        "label": "struct AccessControlUpgradeable.RoleData",
        "members": [
          {
            "astId": 1489,
            "contract": "contracts/pools/Biochar.sol:Biochar",
            "label": "members",
            "offset": 0,
            "slot": "0",
            "type": "t_mapping(t_address,t_bool)"
          },
          {
            "astId": 1491,
            "contract": "contracts/pools/Biochar.sol:Biochar",
            "label": "adminRole",
            "offset": 0,
            "slot": "1",
            "type": "t_bytes32"
          }
        ],
        "numberOfBytes": "64"
      },
      "t_uint256": {
        "encoding": "inplace",
        "label": "uint256",
        "numberOfBytes": "32"
      },
      "t_uint64": {
        "encoding": "inplace",
        "label": "uint64",
        "numberOfBytes": "8"
      },
      "t_uint8": {
        "encoding": "inplace",
        "label": "uint8",
        "numberOfBytes": "1"
      }
    }
  }
}