{
  "address": "0x3efC34D2Ab3F6e5029F259d7fe0D415f28ae248C",
  "abi": [
    {
      "inputs": [],
      "stateMutability": "nonpayable",
      "type": "constructor"
    },
    {
      "anonymous": false,
      "inputs": [
        {
          "indexed": false,
          "internalType": "address",
          "name": "previousAdmin",
          "type": "address"
        },
        {
          "indexed": false,
          "internalType": "address",
          "name": "newAdmin",
          "type": "address"
        }
      ],
      "name": "AdminChanged",
      "type": "event"
    },
    {
      "anonymous": false,
      "inputs": [
        {
          "indexed": true,
          "internalType": "address",
          "name": "owner",
          "type": "address"
        },
        {
          "indexed": true,
          "internalType": "address",
          "name": "approved",
          "type": "address"
        },
        {
          "indexed": true,
          "internalType": "uint256",
          "name": "tokenId",
          "type": "uint256"
        }
      ],
      "name": "Approval",
      "type": "event"
    },
    {
      "anonymous": false,
      "inputs": [
        {
          "indexed": true,
          "internalType": "address",
          "name": "owner",
          "type": "address"
        },
        {
          "indexed": true,
          "internalType": "address",
          "name": "operator",
          "type": "address"
        },
        {
          "indexed": false,
          "internalType": "bool",
          "name": "approved",
          "type": "bool"
        }
      ],
      "name": "ApprovalForAll",
      "type": "event"
    },
    {
      "anonymous": false,
      "inputs": [
        {
          "indexed": true,
          "internalType": "address",
          "name": "beacon",
          "type": "address"
        }
      ],
      "name": "BeaconUpgraded",
      "type": "event"
    },
    {
      "anonymous": false,
      "inputs": [
        {
          "indexed": true,
          "internalType": "uint256",
          "name": "tokenId",
          "type": "uint256"
        },
        {
          "indexed": false,
          "internalType": "address",
          "name": "oldBeneficiary",
          "type": "address"
        },
        {
          "indexed": false,
          "internalType": "address",
          "name": "newBeneficiary",
          "type": "address"
        }
      ],
      "name": "BeneficiaryUpdated",
      "type": "event"
    },
    {
      "anonymous": false,
      "inputs": [
        {
          "indexed": false,
          "internalType": "uint8",
          "name": "version",
          "type": "uint8"
        }
      ],
      "name": "Initialized",
      "type": "event"
    },
    {
      "anonymous": false,
      "inputs": [
        {
          "indexed": true,
          "internalType": "address",
          "name": "previousOwner",
          "type": "address"
        },
        {
          "indexed": true,
          "internalType": "address",
          "name": "newOwner",
          "type": "address"
        }
      ],
      "name": "OwnershipTransferred",
      "type": "event"
    },
    {
      "anonymous": false,
      "inputs": [
        {
          "indexed": false,
          "internalType": "address",
          "name": "account",
          "type": "address"
        }
      ],
      "name": "Paused",
      "type": "event"
    },
    {
      "anonymous": false,
      "inputs": [
        {
          "indexed": false,
          "internalType": "uint256",
          "name": "tokenId",
          "type": "uint256"
        }
      ],
      "name": "ProjectIdUpdated",
      "type": "event"
    },
    {
      "anonymous": false,
      "inputs": [
        {
          "indexed": false,
          "internalType": "address",
          "name": "receiver",
          "type": "address"
        },
        {
          "indexed": false,
          "internalType": "uint256",
          "name": "tokenId",
          "type": "uint256"
        }
      ],
      "name": "ProjectMinted",
      "type": "event"
    },
    {
      "anonymous": false,
      "inputs": [
        {
          "indexed": false,
          "internalType": "uint256",
          "name": "tokenId",
          "type": "uint256"
        }
      ],
      "name": "ProjectUpdated",
      "type": "event"
    },
    {
      "anonymous": false,
      "inputs": [
        {
          "indexed": true,
          "internalType": "bytes32",
          "name": "role",
          "type": "bytes32"
        },
        {
          "indexed": true,
          "internalType": "bytes32",
          "name": "previousAdminRole",
          "type": "bytes32"
        },
        {
          "indexed": true,
          "internalType": "bytes32",
          "name": "newAdminRole",
          "type": "bytes32"
        }
      ],
      "name": "RoleAdminChanged",
      "type": "event"
    },
    {
      "anonymous": false,
      "inputs": [
        {
          "indexed": true,
          "internalType": "bytes32",
          "name": "role",
          "type": "bytes32"
        },
        {
          "indexed": true,
          "internalType": "address",
          "name": "account",
          "type": "address"
        },
        {
          "indexed": true,
          "internalType": "address",
          "name": "sender",
          "type": "address"
        }
      ],
      "name": "RoleGranted",
      "type": "event"
    },
    {
      "anonymous": false,
      "inputs": [
        {
          "indexed": true,
          "internalType": "bytes32",
          "name": "role",
          "type": "bytes32"
        },
        {
          "indexed": true,
          "internalType": "address",
          "name": "account",
          "type": "address"
        },
        {
          "indexed": true,
          "internalType": "address",
          "name": "sender",
          "type": "address"
        }
      ],
      "name": "RoleRevoked",
      "type": "event"
    },
    {
      "anonymous": false,
      "inputs": [
        {
          "indexed": true,
          "internalType": "address",
          "name": "from",
          "type": "address"
        },
        {
          "indexed": true,
          "internalType": "address",
          "name": "to",
          "type": "address"
        },
        {
          "indexed": true,
          "internalType": "uint256",
          "name": "tokenId",
          "type": "uint256"
        }
      ],
      "name": "Transfer",
      "type": "event"
    },
    {
      "anonymous": false,
      "inputs": [
        {
          "indexed": false,
          "internalType": "address",
          "name": "account",
          "type": "address"
        }
      ],
      "name": "Unpaused",
      "type": "event"
    },
    {
      "anonymous": false,
      "inputs": [
        {
          "indexed": true,
          "internalType": "address",
          "name": "implementation",
          "type": "address"
        }
      ],
      "name": "Upgraded",
      "type": "event"
    },
    {
      "inputs": [],
      "name": "DEFAULT_ADMIN_ROLE",
      "outputs": [
        {
          "internalType": "bytes32",
          "name": "",
          "type": "bytes32"
        }
      ],
      "stateMutability": "view",
      "type": "function"
    },
    {
      "inputs": [],
      "name": "MANAGER_ROLE",
      "outputs": [
        {
          "internalType": "bytes32",
          "name": "",
          "type": "bytes32"
        }
      ],
      "stateMutability": "view",
      "type": "function"
    },
    {
      "inputs": [],
      "name": "VERSION",
      "outputs": [
        {
          "internalType": "string",
          "name": "",
          "type": "string"
        }
      ],
      "stateMutability": "view",
      "type": "function"
    },
    {
      "inputs": [],
      "name": "VERSION_RELEASE_CANDIDATE",
      "outputs": [
        {
          "internalType": "uint256",
          "name": "",
          "type": "uint256"
        }
      ],
      "stateMutability": "view",
      "type": "function"
    },
    {
      "inputs": [
        {
          "internalType": "address",
          "name": "to",
          "type": "address"
        },
        {
          "internalType": "string",
          "name": "projectId",
          "type": "string"
        },
        {
          "internalType": "string",
          "name": "standard",
          "type": "string"
        },
        {
          "internalType": "string",
          "name": "methodology",
          "type": "string"
        },
        {
          "internalType": "string",
          "name": "region",
          "type": "string"
        },
        {
          "internalType": "string",
          "name": "storageMethod",
          "type": "string"
        },
        {
          "internalType": "string",
          "name": "method",
          "type": "string"
        },
        {
          "internalType": "string",
          "name": "emissionType",
          "type": "string"
        },
        {
          "internalType": "string",
          "name": "category",
          "type": "string"
        },
        {
          "internalType": "string",
          "name": "uri",
          "type": "string"
        },
        {
          "internalType": "address",
          "name": "beneficiary",
          "type": "address"
        }
      ],
      "name": "addNewProject",
      "outputs": [
        {
          "internalType": "uint256",
          "name": "",
          "type": "uint256"
        }
      ],
      "stateMutability": "nonpayable",
      "type": "function"
    },
    {
      "inputs": [
        {
          "internalType": "address",
          "name": "to",
          "type": "address"
        },
        {
          "internalType": "uint256",
          "name": "tokenId",
          "type": "uint256"
        }
      ],
      "name": "approve",
      "outputs": [],
      "stateMutability": "nonpayable",
      "type": "function"
    },
    {
      "inputs": [
        {
          "internalType": "address",
          "name": "owner",
          "type": "address"
        }
      ],
      "name": "balanceOf",
      "outputs": [
        {
          "internalType": "uint256",
          "name": "",
          "type": "uint256"
        }
      ],
      "stateMutability": "view",
      "type": "function"
    },
    {
      "inputs": [],
      "name": "baseURI",
      "outputs": [
        {
          "internalType": "string",
          "name": "",
          "type": "string"
        }
      ],
      "stateMutability": "view",
      "type": "function"
    },
    {
      "inputs": [],
      "name": "contractRegistry",
      "outputs": [
        {
          "internalType": "address",
          "name": "",
          "type": "address"
        }
      ],
      "stateMutability": "view",
      "type": "function"
    },
    {
      "inputs": [
        {
          "internalType": "uint256",
          "name": "tokenId",
          "type": "uint256"
        }
      ],
      "name": "getApproved",
      "outputs": [
        {
          "internalType": "address",
          "name": "",
          "type": "address"
        }
      ],
      "stateMutability": "view",
      "type": "function"
    },
    {
      "inputs": [
        {
          "internalType": "uint256",
          "name": "tokenId",
          "type": "uint256"
        }
      ],
      "name": "getProjectDataByTokenId",
      "outputs": [
        {
          "components": [
            {
              "internalType": "string",
              "name": "projectId",
              "type": "string"
            },
            {
              "internalType": "string",
              "name": "standard",
              "type": "string"
            },
            {
              "internalType": "string",
              "name": "methodology",
              "type": "string"
            },
            {
              "internalType": "string",
              "name": "region",
              "type": "string"
            },
            {
              "internalType": "string",
              "name": "storageMethod",
              "type": "string"
            },
            {
              "internalType": "string",
              "name": "method",
              "type": "string"
            },
            {
              "internalType": "string",
              "name": "emissionType",
              "type": "string"
            },
            {
              "internalType": "string",
              "name": "category",
              "type": "string"
            },
            {
              "internalType": "string",
              "name": "uri",
              "type": "string"
            },
            {
              "internalType": "address",
              "name": "beneficiary",
              "type": "address"
            }
          ],
          "internalType": "struct ProjectData",
          "name": "",
          "type": "tuple"
        }
      ],
      "stateMutability": "view",
      "type": "function"
    },
    {
      "inputs": [
        {
          "internalType": "bytes32",
          "name": "role",
          "type": "bytes32"
        }
      ],
      "name": "getRoleAdmin",
      "outputs": [
        {
          "internalType": "bytes32",
          "name": "",
          "type": "bytes32"
        }
      ],
      "stateMutability": "view",
      "type": "function"
    },
    {
      "inputs": [
        {
          "internalType": "bytes32",
          "name": "role",
          "type": "bytes32"
        },
        {
          "internalType": "address",
          "name": "account",
          "type": "address"
        }
      ],
      "name": "grantRole",
      "outputs": [],
      "stateMutability": "nonpayable",
      "type": "function"
    },
    {
      "inputs": [
        {
          "internalType": "bytes32",
          "name": "role",
          "type": "bytes32"
        },
        {
          "internalType": "address",
          "name": "account",
          "type": "address"
        }
      ],
      "name": "hasRole",
      "outputs": [
        {
          "internalType": "bool",
          "name": "",
          "type": "bool"
        }
      ],
      "stateMutability": "view",
      "type": "function"
    },
    {
      "inputs": [],
      "name": "initialize",
      "outputs": [],
      "stateMutability": "nonpayable",
      "type": "function"
    },
    {
      "inputs": [
        {
          "internalType": "address",
          "name": "owner",
          "type": "address"
        },
        {
          "internalType": "address",
          "name": "operator",
          "type": "address"
        }
      ],
      "name": "isApprovedForAll",
      "outputs": [
        {
          "internalType": "bool",
          "name": "",
          "type": "bool"
        }
      ],
      "stateMutability": "view",
      "type": "function"
    },
    {
      "inputs": [
        {
          "internalType": "uint256",
          "name": "projectTokenId",
          "type": "uint256"
        }
      ],
      "name": "isValidProjectTokenId",
      "outputs": [
        {
          "internalType": "bool",
          "name": "",
          "type": "bool"
        }
      ],
      "stateMutability": "view",
      "type": "function"
    },
    {
      "inputs": [],
      "name": "name",
      "outputs": [
        {
          "internalType": "string",
          "name": "",
          "type": "string"
        }
      ],
      "stateMutability": "view",
      "type": "function"
    },
    {
      "inputs": [],
      "name": "owner",
      "outputs": [
        {
          "internalType": "address",
          "name": "",
          "type": "address"
        }
      ],
      "stateMutability": "view",
      "type": "function"
    },
    {
      "inputs": [
        {
          "internalType": "uint256",
          "name": "tokenId",
          "type": "uint256"
        }
      ],
      "name": "ownerOf",
      "outputs": [
        {
          "internalType": "address",
          "name": "",
          "type": "address"
        }
      ],
      "stateMutability": "view",
      "type": "function"
    },
    {
      "inputs": [],
      "name": "pause",
      "outputs": [],
      "stateMutability": "nonpayable",
      "type": "function"
    },
    {
      "inputs": [],
      "name": "paused",
      "outputs": [
        {
          "internalType": "bool",
          "name": "",
          "type": "bool"
        }
      ],
      "stateMutability": "view",
      "type": "function"
    },
    {
      "inputs": [
        {
          "internalType": "string",
          "name": "",
          "type": "string"
        }
      ],
      "name": "pidToTokenId",
      "outputs": [
        {
          "internalType": "uint256",
          "name": "",
          "type": "uint256"
        }
      ],
      "stateMutability": "view",
      "type": "function"
    },
    {
      "inputs": [
        {
          "internalType": "uint256",
          "name": "",
          "type": "uint256"
        }
      ],
      "name": "projectData",
      "outputs": [
        {
          "internalType": "string",
          "name": "projectId",
          "type": "string"
        },
        {
          "internalType": "string",
          "name": "standard",
          "type": "string"
        },
        {
          "internalType": "string",
          "name": "methodology",
          "type": "string"
        },
        {
          "internalType": "string",
          "name": "region",
          "type": "string"
        },
        {
          "internalType": "string",
          "name": "storageMethod",
          "type": "string"
        },
        {
          "internalType": "string",
          "name": "method",
          "type": "string"
        },
        {
          "internalType": "string",
          "name": "emissionType",
          "type": "string"
        },
        {
          "internalType": "string",
          "name": "category",
          "type": "string"
        },
        {
          "internalType": "string",
          "name": "uri",
          "type": "string"
        },
        {
          "internalType": "address",
          "name": "beneficiary",
          "type": "address"
        }
      ],
      "stateMutability": "view",
      "type": "function"
    },
    {
      "inputs": [
        {
          "internalType": "string",
          "name": "",
          "type": "string"
        }
      ],
      "name": "projectIds",
      "outputs": [
        {
          "internalType": "bool",
          "name": "",
          "type": "bool"
        }
      ],
      "stateMutability": "view",
      "type": "function"
    },
    {
      "inputs": [],
      "name": "projectTokenCounter",
      "outputs": [
        {
          "internalType": "uint128",
          "name": "",
          "type": "uint128"
        }
      ],
      "stateMutability": "view",
      "type": "function"
    },
    {
      "inputs": [],
      "name": "proxiableUUID",
      "outputs": [
        {
          "internalType": "bytes32",
          "name": "",
          "type": "bytes32"
        }
      ],
      "stateMutability": "view",
      "type": "function"
    },
    {
      "inputs": [
        {
          "internalType": "uint256",
          "name": "projectTokenId",
          "type": "uint256"
        }
      ],
      "name": "removeProject",
      "outputs": [],
      "stateMutability": "nonpayable",
      "type": "function"
    },
    {
      "inputs": [],
      "name": "renounceOwnership",
      "outputs": [],
      "stateMutability": "nonpayable",
      "type": "function"
    },
    {
      "inputs": [
        {
          "internalType": "bytes32",
          "name": "role",
          "type": "bytes32"
        },
        {
          "internalType": "address",
          "name": "account",
          "type": "address"
        }
      ],
      "name": "renounceRole",
      "outputs": [],
      "stateMutability": "nonpayable",
      "type": "function"
    },
    {
      "inputs": [
        {
          "internalType": "bytes32",
          "name": "role",
          "type": "bytes32"
        },
        {
          "internalType": "address",
          "name": "account",
          "type": "address"
        }
      ],
      "name": "revokeRole",
      "outputs": [],
      "stateMutability": "nonpayable",
      "type": "function"
    },
    {
      "inputs": [
        {
          "internalType": "address",
          "name": "from",
          "type": "address"
        },
        {
          "internalType": "address",
          "name": "to",
          "type": "address"
        },
        {
          "internalType": "uint256",
          "name": "tokenId",
          "type": "uint256"
        }
      ],
      "name": "safeTransferFrom",
      "outputs": [],
      "stateMutability": "nonpayable",
      "type": "function"
    },
    {
      "inputs": [
        {
          "internalType": "address",
          "name": "from",
          "type": "address"
        },
        {
          "internalType": "address",
          "name": "to",
          "type": "address"
        },
        {
          "internalType": "uint256",
          "name": "tokenId",
          "type": "uint256"
        },
        {
          "internalType": "bytes",
          "name": "_data",
          "type": "bytes"
        }
      ],
      "name": "safeTransferFrom",
      "outputs": [],
      "stateMutability": "nonpayable",
      "type": "function"
    },
    {
      "inputs": [
        {
          "internalType": "address",
          "name": "operator",
          "type": "address"
        },
        {
          "internalType": "bool",
          "name": "approved",
          "type": "bool"
        }
      ],
      "name": "setApprovalForAll",
      "outputs": [],
      "stateMutability": "nonpayable",
      "type": "function"
    },
    {
      "inputs": [
        {
          "internalType": "string",
          "name": "gateway",
          "type": "string"
        }
      ],
      "name": "setBaseURI",
      "outputs": [],
      "stateMutability": "nonpayable",
      "type": "function"
    },
    {
      "inputs": [
        {
          "internalType": "address",
          "name": "_address",
          "type": "address"
        }
      ],
      "name": "setToucanContractRegistry",
      "outputs": [],
      "stateMutability": "nonpayable",
      "type": "function"
    },
    {
      "inputs": [
        {
          "internalType": "bytes4",
          "name": "interfaceId",
          "type": "bytes4"
        }
      ],
      "name": "supportsInterface",
      "outputs": [
        {
          "internalType": "bool",
          "name": "",
          "type": "bool"
        }
      ],
      "stateMutability": "view",
      "type": "function"
    },
    {
      "inputs": [],
      "name": "symbol",
      "outputs": [
        {
          "internalType": "string",
          "name": "",
          "type": "string"
        }
      ],
      "stateMutability": "view",
      "type": "function"
    },
    {
      "inputs": [
        {
          "internalType": "uint256",
          "name": "tokenId",
          "type": "uint256"
        }
      ],
      "name": "tokenURI",
      "outputs": [
        {
          "internalType": "string",
          "name": "",
          "type": "string"
        }
      ],
      "stateMutability": "view",
      "type": "function"
    },
    {
      "inputs": [],
      "name": "totalSupply",
      "outputs": [
        {
          "internalType": "uint128",
          "name": "",
          "type": "uint128"
        }
      ],
      "stateMutability": "view",
      "type": "function"
    },
    {
      "inputs": [
        {
          "internalType": "address",
          "name": "from",
          "type": "address"
        },
        {
          "internalType": "address",
          "name": "to",
          "type": "address"
        },
        {
          "internalType": "uint256",
          "name": "tokenId",
          "type": "uint256"
        }
      ],
      "name": "transferFrom",
      "outputs": [],
      "stateMutability": "nonpayable",
      "type": "function"
    },
    {
      "inputs": [
        {
          "internalType": "address",
          "name": "newOwner",
          "type": "address"
        }
      ],
      "name": "transferOwnership",
      "outputs": [],
      "stateMutability": "nonpayable",
      "type": "function"
    },
    {
      "inputs": [],
      "name": "unpause",
      "outputs": [],
      "stateMutability": "nonpayable",
      "type": "function"
    },
    {
      "inputs": [
        {
          "internalType": "uint256",
          "name": "tokenId",
          "type": "uint256"
        },
        {
          "internalType": "address",
          "name": "beneficiary",
          "type": "address"
        }
      ],
      "name": "updateBeneficiary",
      "outputs": [],
      "stateMutability": "nonpayable",
      "type": "function"
    },
    {
      "inputs": [
        {
          "internalType": "uint256",
          "name": "tokenId",
          "type": "uint256"
        },
        {
          "internalType": "string",
          "name": "newStandard",
          "type": "string"
        },
        {
          "internalType": "string",
          "name": "newMethodology",
          "type": "string"
        },
        {
          "internalType": "string",
          "name": "newRegion",
          "type": "string"
        },
        {
          "internalType": "string",
          "name": "newStorageMethod",
          "type": "string"
        },
        {
          "internalType": "string",
          "name": "newMethod",
          "type": "string"
        },
        {
          "internalType": "string",
          "name": "newEmissionType",
          "type": "string"
        },
        {
          "internalType": "string",
          "name": "newCategory",
          "type": "string"
        },
        {
          "internalType": "string",
          "name": "newUri",
          "type": "string"
        },
        {
          "internalType": "address",
          "name": "beneficiary",
          "type": "address"
        }
      ],
      "name": "updateProject",
      "outputs": [],
      "stateMutability": "nonpayable",
      "type": "function"
    },
    {
      "inputs": [
        {
          "internalType": "uint256",
          "name": "tokenId",
          "type": "uint256"
        },
        {
          "internalType": "string",
          "name": "newProjectId",
          "type": "string"
        }
      ],
      "name": "updateProjectId",
      "outputs": [],
      "stateMutability": "nonpayable",
      "type": "function"
    },
    {
      "inputs": [
        {
          "internalType": "address",
          "name": "newImplementation",
          "type": "address"
        }
      ],
      "name": "upgradeTo",
      "outputs": [],
      "stateMutability": "nonpayable",
      "type": "function"
    },
    {
      "inputs": [
        {
          "internalType": "address",
          "name": "newImplementation",
          "type": "address"
        },
        {
          "internalType": "bytes",
          "name": "data",
          "type": "bytes"
        }
      ],
      "name": "upgradeToAndCall",
      "outputs": [],
      "stateMutability": "payable",
      "type": "function"
    },
    {
      "inputs": [
        {
          "internalType": "uint256",
          "name": "",
          "type": "uint256"
        }
      ],
      "name": "validProjectTokenIds",
      "outputs": [
        {
          "internalType": "bool",
          "name": "",
          "type": "bool"
        }
      ],
      "stateMutability": "view",
      "type": "function"
    }
  ],
  "numDeployments": 2,
  "solcInputHash": "2ece3af7f5641f4da1a18b83052e9045",
  "bytecode": "0x60a0604052306080523480156200001557600080fd5b506200002062000026565b62000156565b6200003260ff62000035565b50565b60008054610100900460ff1615620000ce578160ff1660011480156200006e57506200006c306200014760201b62002bcd1760201c565b155b620000c65760405162461bcd60e51b815260206004820152602e602482015260008051602062004eb483398151915260448201526d191e481a5b9a5d1a585b1a5e995960921b60648201526084015b60405180910390fd5b506000919050565b60005460ff8084169116106200012d5760405162461bcd60e51b815260206004820152602e602482015260008051602062004eb483398151915260448201526d191e481a5b9a5d1a585b1a5e995960921b6064820152608401620000bd565b506000805460ff191660ff92909216919091179055600190565b6001600160a01b03163b151590565b608051614d266200018e6000396000818161109c015281816110dc015281816118c0015281816119000152611c0c0152614d266000f3fe6080604052600436106102ae5760003560e01c80636352211e11610175578063a22cb465116100dc578063dfe7ce5f11610095578063eb85f4d31161006f578063eb85f4d3146108cc578063ec87621c14610907578063f2fde38b14610929578063ffa1ad741461094957600080fd5b8063dfe7ce5f14610843578063e882e37b14610863578063e985e9c51461088357600080fd5b8063a22cb46514610783578063abf410e5146107a3578063b88d4fde146107c3578063bac0dd35146107e3578063c87b56dd14610803578063d547741f1461082357600080fd5b80638456cb591161012e5780638456cb59146106d05780638903f70c146106e55780638da5cb5b1461071b57806391d148541461073957806395d89b4114610759578063a217fddf1461076e57600080fd5b80636352211e1461063c5780636c0360eb1461065c5780636ca0b0d71461067157806370a0823114610686578063715018a6146106a65780638129fc1c146106bb57600080fd5b8063365fe85d116102195780634f1ef286116101d25780634f1ef2861461059c57806351d8cff6146105af57806352d1902d146105cf57806355f804b3146105e45780635873f998146106045780635c975abb1461062457600080fd5b8063365fe85d146104ba5780633e8eb5a4146104ea5780633f4ba83a1461050a57806342842e0e1461051f57806347e316861461053f5780634957f0e11461056c57600080fd5b806323b872dd1161026b57806323b872dd146103d1578063248a9ca3146103f15780632a31e837146104225780632f2ff15d1461045a57806336568abe1461047a5780633659cfe61461049a57600080fd5b806301ffc9a7146102b357806306fdde03146102e8578063081812fc1461030a578063095ea7b31461034257806310dda6711461036457806318160ddd14610392575b600080fd5b3480156102bf57600080fd5b506102d36102ce366004613eb5565b61097a565b60405190151581526020015b60405180910390f35b3480156102f457600080fd5b506102fd6109a5565b6040516102df9190613f2a565b34801561031657600080fd5b5061032a610325366004613f3d565b610a37565b6040516001600160a01b0390911681526020016102df565b34801561034e57600080fd5b5061036261035d366004613f6d565b610ac4565b005b34801561037057600080fd5b5061038461037f36600461403a565b610bd9565b6040519081526020016102df565b34801561039e57600080fd5b506065546103b990600160801b90046001600160801b031681565b6040516001600160801b0390911681526020016102df565b3480156103dd57600080fd5b506103626103ec3660046141cf565b610fbd565b3480156103fd57600080fd5b5061038461040c366004613f3d565b6000908152610102602052604090206001015490565b34801561042e57600080fd5b5061038461043d36600461420b565b8051602081830181018051606b8252928201919093012091525481565b34801561046657600080fd5b50610362610475366004614240565b610fee565b34801561048657600080fd5b50610362610495366004614240565b611014565b3480156104a657600080fd5b506103626104b536600461426c565b611092565b3480156104c657600080fd5b506102d36104d5366004613f3d565b6000908152606a602052604090205460ff1690565b3480156104f657600080fd5b50610362610505366004614240565b611171565b34801561051657600080fd5b50610362611285565b34801561052b57600080fd5b5061036261053a3660046141cf565b6112e6565b34801561054b57600080fd5b5061055f61055a366004613f3d565b611301565b6040516102df9190614287565b34801561057857600080fd5b506102d3610587366004613f3d565b606a6020526000908152604090205460ff1681565b6103626105aa3660046143bb565b6118b6565b3480156105bb57600080fd5b506103626105ca366004614409565b611982565b3480156105db57600080fd5b50610384611bff565b3480156105f057600080fd5b506103626105ff36600461420b565b611cb2565b34801561061057600080fd5b5061036261061f366004613f3d565b611cef565b34801561063057600080fd5b5060d05460ff166102d3565b34801561064857600080fd5b5061032a610657366004613f3d565b611e60565b34801561066857600080fd5b506102fd611ed7565b34801561067d57600080fd5b50610384600181565b34801561069257600080fd5b506103846106a136600461426c565b611f65565b3480156106b257600080fd5b50610362611fec565b3480156106c757600080fd5b50610362612022565b3480156106dc57600080fd5b50610362612121565b3480156106f157600080fd5b50610705610700366004613f3d565b612182565b6040516102df9a9998979695949392919061443a565b34801561072757600080fd5b50609e546001600160a01b031661032a565b34801561074557600080fd5b506102d3610754366004614240565b61269f565b34801561076557600080fd5b506102fd6126cb565b34801561077a57600080fd5b50610384600081565b34801561078f57600080fd5b5061036261079e366004614508565b6126da565b3480156107af57600080fd5b5060665461032a906001600160a01b031681565b3480156107cf57600080fd5b506103626107de366004614544565b6126e5565b3480156107ef57600080fd5b506065546103b9906001600160801b031681565b34801561080f57600080fd5b506102fd61081e366004613f3d565b61271d565b34801561082f57600080fd5b5061036261083e366004614240565b612889565b34801561084f57600080fd5b5061036261085e3660046145ac565b6128af565b34801561086f57600080fd5b5061036261087e36600461426c565b612ae9565b34801561088f57600080fd5b506102d361089e366004614708565b6001600160a01b03918216600090815260716020908152604080832093909416825291909152205460ff1690565b3480156108d857600080fd5b506102d36108e736600461420b565b805160208183018101805160698252928201919093012091525460ff1681565b34801561091357600080fd5b50610384600080516020614caa83398151915281565b34801561093557600080fd5b5061036261094436600461426c565b612b35565b34801561095557600080fd5b506102fd60405180604001604052806005815260200164312e312e3160d81b81525081565b60006001600160e01b03198216637965db0b60e01b148061099f575061099f82612bdc565b92915050565b6060606c80546109b490614732565b80601f01602080910402602001604051908101604052809291908181526020018280546109e090614732565b8015610a2d5780601f10610a0257610100808354040283529160200191610a2d565b820191906000526020600020905b815481529060010190602001808311610a1057829003601f168201915b5050505050905090565b6000610a4282612c2c565b610aa85760405162461bcd60e51b815260206004820152602c60248201527f4552433732313a20617070726f76656420717565727920666f72206e6f6e657860448201526b34b9ba32b73a103a37b5b2b760a11b60648201526084015b60405180910390fd5b506000908152607060205260409020546001600160a01b031690565b6000610acf82611e60565b9050806001600160a01b0316836001600160a01b031603610b3c5760405162461bcd60e51b815260206004820152602160248201527f4552433732313a20617070726f76616c20746f2063757272656e74206f776e656044820152603960f91b6064820152608401610a9f565b336001600160a01b0382161480610b585750610b58813361089e565b610bca5760405162461bcd60e51b815260206004820152603860248201527f4552433732313a20617070726f76652063616c6c6572206973206e6f74206f7760448201527f6e6572206e6f7220617070726f76656420666f7220616c6c00000000000000006064820152608401610a9f565b610bd48383612c49565b505050565b6000610bf3600080516020614caa8339815191523361269f565b80610c17575033610c0c609e546001600160a01b031690565b6001600160a01b0316145b610c335760405162461bcd60e51b8152600401610a9f9061476c565b60d05460ff1615610c565760405162461bcd60e51b8152600401610a9f906147a3565b604080516020810190915260008152610c70908c90612cb7565b15610cbd5760405162461bcd60e51b815260206004820152601960248201527f50726f6a65637449642063616e6e6f7420626520656d707479000000000000006044820152606401610a9f565b60698b604051610ccd91906147cd565b9081526040519081900360200190205460ff1615610d265760405162461bcd60e51b815260206004820152601660248201527550726f6a65637420616c72656164792065786973747360501b6044820152606401610a9f565b600160698c604051610d3891906147cd565b90815260408051918290036020908101909220805493151560ff19948516179055606580546001600160801b038082166001908101808316600160801b94859004841683019093169093026fffffffffffffffffffffffffffffffff1916919091179092556000818152606a909452919092208054909316909117909155610dc08d82612cde565b60008181526068602090815260409091208d51610ddf928f0190613dd0565b5060008181526068602090815260409091208c51610e05926001909201918e0190613dd0565b5060008181526068602090815260409091208b51610e2b926002909201918d0190613dd0565b5060008181526068602090815260409091208a51610e51926003909201918c0190613dd0565b5060008181526068602090815260409091208951610e77926004909201918b0190613dd0565b5060008181526068602090815260409091208851610e9d926005909201918a0190613dd0565b5060008181526068602090815260409091208751610ec392600690920191890190613dd0565b5060008181526068602090815260409091208651610ee992600790920191880190613dd0565b5060008181526068602090815260409091208551610f0f92600890920191870190613dd0565b506000818152606860205260409081902060090180546001600160a01b0386166001600160a01b0319909116179055517fb6c14e0fdc5fdfaea1cc5671e7ec0cee1c83aafdee14c1811fc2837ad4687a8690610f82908f9084906001600160a01b03929092168252602082015260400190565b60405180910390a180606b8d604051610f9b91906147cd565b9081526040519081900360200190205590505b9b9a5050505050505050505050565b610fc73382612e11565b610fe35760405162461bcd60e51b8152600401610a9f906147e9565b610bd4838383612efa565b6000828152610102602052604090206001015461100a81613096565b610bd483836130a0565b6001600160a01b03811633146110845760405162461bcd60e51b815260206004820152602f60248201527f416363657373436f6e74726f6c3a2063616e206f6e6c792072656e6f756e636560448201526e103937b632b9903337b91039b2b63360891b6064820152608401610a9f565b61108e8282613127565b5050565b6001600160a01b037f00000000000000000000000000000000000000000000000000000000000000001630036110da5760405162461bcd60e51b8152600401610a9f9061483a565b7f00000000000000000000000000000000000000000000000000000000000000006001600160a01b0316611123600080516020614c8a833981519152546001600160a01b031690565b6001600160a01b0316146111495760405162461bcd60e51b8152600401610a9f90614886565b6111528161318f565b6040805160008082526020820190925261116e918391906131b9565b50565b611189600080516020614caa8339815191523361269f565b806111ad5750336111a2609e546001600160a01b031690565b6001600160a01b0316145b6111c95760405162461bcd60e51b8152600401610a9f9061476c565b60d05460ff16156111ec5760405162461bcd60e51b8152600401610a9f906147a3565b6111f582612c2c565b6112115760405162461bcd60e51b8152600401610a9f906148d2565b60008281526068602090815260409182902060090180546001600160a01b031981166001600160a01b0386811691821790935584519290911680835292820152909184917ff585da3452445cd066854ce9c4f3306e8deddd1d571e840b1dddaa1f3d4de53c910160405180910390a2505050565b6066546001600160a01b03166112a3609e546001600160a01b031690565b6001600160a01b0382163314806112c257506001600160a01b03811633145b6112de5760405162461bcd60e51b8152600401610a9f90614902565b61108e613324565b610bd4838383604051806020016040528060008152506126e5565b61136060405180610140016040528060608152602001606081526020016060815260200160608152602001606081526020016060815260200160608152602001606081526020016060815260200160006001600160a01b031681525090565b600082815260686020526040908190208151610140810190925280548290829061138990614732565b80601f01602080910402602001604051908101604052809291908181526020018280546113b590614732565b80156114025780601f106113d757610100808354040283529160200191611402565b820191906000526020600020905b8154815290600101906020018083116113e557829003601f168201915b5050505050815260200160018201805461141b90614732565b80601f016020809104026020016040519081016040528092919081815260200182805461144790614732565b80156114945780601f1061146957610100808354040283529160200191611494565b820191906000526020600020905b81548152906001019060200180831161147757829003601f168201915b505050505081526020016002820180546114ad90614732565b80601f01602080910402602001604051908101604052809291908181526020018280546114d990614732565b80156115265780601f106114fb57610100808354040283529160200191611526565b820191906000526020600020905b81548152906001019060200180831161150957829003601f168201915b5050505050815260200160038201805461153f90614732565b80601f016020809104026020016040519081016040528092919081815260200182805461156b90614732565b80156115b85780601f1061158d576101008083540402835291602001916115b8565b820191906000526020600020905b81548152906001019060200180831161159b57829003601f168201915b505050505081526020016004820180546115d190614732565b80601f01602080910402602001604051908101604052809291908181526020018280546115fd90614732565b801561164a5780601f1061161f5761010080835404028352916020019161164a565b820191906000526020600020905b81548152906001019060200180831161162d57829003601f168201915b5050505050815260200160058201805461166390614732565b80601f016020809104026020016040519081016040528092919081815260200182805461168f90614732565b80156116dc5780601f106116b1576101008083540402835291602001916116dc565b820191906000526020600020905b8154815290600101906020018083116116bf57829003601f168201915b505050505081526020016006820180546116f590614732565b80601f016020809104026020016040519081016040528092919081815260200182805461172190614732565b801561176e5780601f106117435761010080835404028352916020019161176e565b820191906000526020600020905b81548152906001019060200180831161175157829003601f168201915b5050505050815260200160078201805461178790614732565b80601f01602080910402602001604051908101604052809291908181526020018280546117b390614732565b80156118005780601f106117d557610100808354040283529160200191611800565b820191906000526020600020905b8154815290600101906020018083116117e357829003601f168201915b5050505050815260200160088201805461181990614732565b80601f016020809104026020016040519081016040528092919081815260200182805461184590614732565b80156118925780601f1061186757610100808354040283529160200191611892565b820191906000526020600020905b81548152906001019060200180831161187557829003601f168201915b5050509183525050600991909101546001600160a01b031660209091015292915050565b6001600160a01b037f00000000000000000000000000000000000000000000000000000000000000001630036118fe5760405162461bcd60e51b8152600401610a9f9061483a565b7f00000000000000000000000000000000000000000000000000000000000000006001600160a01b0316611947600080516020614c8a833981519152546001600160a01b031690565b6001600160a01b03161461196d5760405162461bcd60e51b8152600401610a9f90614886565b6119768261318f565b61108e828260016131b9565b61199a600080516020614caa8339815191523361269f565b806119be5750336119b3609e546001600160a01b031690565b6001600160a01b0316145b6119da5760405162461bcd60e51b8152600401610a9f9061476c565b60d05460ff16156119fd5760405162461bcd60e51b8152600401610a9f906147a3565b611a0682612c2c565b611a225760405162461bcd60e51b8152600401610a9f906148d2565b805115611ab257606981604051611a3991906147cd565b9081526040519081900360200190205460ff1615611ab25760405162461bcd60e51b815260206004820152603060248201527f43616e74206368616e67652063757272656e742070726f6a656374496420746f60448201526f20616e206578697374696e67206f6e6560801b6064820152608401610a9f565b60008281526068602052604081208054611acb90614732565b80601f0160208091040260200160405190810160405280929190818152602001828054611af790614732565b8015611b445780601f10611b1957610100808354040283529160200191611b44565b820191906000526020600020905b815481529060010190602001808311611b2757829003601f168201915b505050505090506000606982604051611b5d91906147cd565b9081526040805160209281900383019020805460ff191693151593909317909255600085815260688252919091208351611b9992850190613dd0565b506001606983604051611bac91906147cd565b90815260405160209181900382018120805460ff1916931515939093179092558482527f7ece4c83f6835308c521f2fa1104412ee3c8e72879d4a3ea74f2c9a5223ac99a910160405180910390a1505050565b6000306001600160a01b037f00000000000000000000000000000000000000000000000000000000000000001614611c9f5760405162461bcd60e51b815260206004820152603860248201527f555550535570677261646561626c653a206d757374206e6f742062652063616c60448201527f6c6564207468726f7567682064656c656761746563616c6c00000000000000006064820152608401610a9f565b50600080516020614c8a83398151915290565b609e546001600160a01b03163314611cdc5760405162461bcd60e51b8152600401610a9f90614947565b805161108e906067906020840190613dd0565b611d07600080516020614caa8339815191523361269f565b80611d2b575033611d20609e546001600160a01b031690565b6001600160a01b0316145b611d475760405162461bcd60e51b8152600401610a9f9061476c565b60d05460ff1615611d6a5760405162461bcd60e51b8152600401610a9f906147a3565b600081815260686020526040812090611d838282613e54565b611d91600183016000613e54565b611d9f600283016000613e54565b611dad600383016000613e54565b611dbb600483016000613e54565b611dc9600583016000613e54565b611dd7600683016000613e54565b611de5600783016000613e54565b611df3600883016000613e54565b5060090180546001600160a01b031916905560658054600160801b90046001600160801b0316906010611e2583614992565b82546001600160801b039182166101009390930a9283029190920219909116179055506000908152606a60205260409020805460ff19169055565b6000818152606e60205260408120546001600160a01b03168061099f5760405162461bcd60e51b815260206004820152602960248201527f4552433732313a206f776e657220717565727920666f72206e6f6e657869737460448201526832b73a103a37b5b2b760b91b6064820152608401610a9f565b60678054611ee490614732565b80601f0160208091040260200160405190810160405280929190818152602001828054611f1090614732565b8015611f5d5780601f10611f3257610100808354040283529160200191611f5d565b820191906000526020600020905b815481529060010190602001808311611f4057829003601f168201915b505050505081565b60006001600160a01b038216611fd05760405162461bcd60e51b815260206004820152602a60248201527f4552433732313a2062616c616e636520717565727920666f7220746865207a65604482015269726f206164647265737360b01b6064820152608401610a9f565b506001600160a01b03166000908152606f602052604090205490565b609e546001600160a01b031633146120165760405162461bcd60e51b8152600401610a9f90614947565b61202060006133b7565b565b600061202e6001613409565b90508015612046576000805461ff0019166101001790555b61204e613496565b6120ae6040518060400160405280602081526020017f546f7563616e2050726f746f636f6c3a20436172626f6e2050726f6a65637473815250604051806040016040528060098152602001680544f5543414e2d43560bc1b8152506134bd565b6120b661350b565b6120be61353b565b6120c6613496565b6120ce613496565b6120d96000336130a0565b801561116e576000805461ff0019169055604051600181527f7f26b83ff96e1f2b6a682f133852f6798a09c465da95921460cefb38474024989060200160405180910390a150565b6066546001600160a01b031661213f609e546001600160a01b031690565b6001600160a01b03821633148061215e57506001600160a01b03811633145b61217a5760405162461bcd60e51b8152600401610a9f90614902565b61108e61356e565b60686020526000908152604090208054819061219d90614732565b80601f01602080910402602001604051908101604052809291908181526020018280546121c990614732565b80156122165780601f106121eb57610100808354040283529160200191612216565b820191906000526020600020905b8154815290600101906020018083116121f957829003601f168201915b50505050509080600101805461222b90614732565b80601f016020809104026020016040519081016040528092919081815260200182805461225790614732565b80156122a45780601f10612279576101008083540402835291602001916122a4565b820191906000526020600020905b81548152906001019060200180831161228757829003601f168201915b5050505050908060020180546122b990614732565b80601f01602080910402602001604051908101604052809291908181526020018280546122e590614732565b80156123325780601f1061230757610100808354040283529160200191612332565b820191906000526020600020905b81548152906001019060200180831161231557829003601f168201915b50505050509080600301805461234790614732565b80601f016020809104026020016040519081016040528092919081815260200182805461237390614732565b80156123c05780601f10612395576101008083540402835291602001916123c0565b820191906000526020600020905b8154815290600101906020018083116123a357829003601f168201915b5050505050908060040180546123d590614732565b80601f016020809104026020016040519081016040528092919081815260200182805461240190614732565b801561244e5780601f106124235761010080835404028352916020019161244e565b820191906000526020600020905b81548152906001019060200180831161243157829003601f168201915b50505050509080600501805461246390614732565b80601f016020809104026020016040519081016040528092919081815260200182805461248f90614732565b80156124dc5780601f106124b1576101008083540402835291602001916124dc565b820191906000526020600020905b8154815290600101906020018083116124bf57829003601f168201915b5050505050908060060180546124f190614732565b80601f016020809104026020016040519081016040528092919081815260200182805461251d90614732565b801561256a5780601f1061253f5761010080835404028352916020019161256a565b820191906000526020600020905b81548152906001019060200180831161254d57829003601f168201915b50505050509080600701805461257f90614732565b80601f01602080910402602001604051908101604052809291908181526020018280546125ab90614732565b80156125f85780601f106125cd576101008083540402835291602001916125f8565b820191906000526020600020905b8154815290600101906020018083116125db57829003601f168201915b50505050509080600801805461260d90614732565b80601f016020809104026020016040519081016040528092919081815260200182805461263990614732565b80156126865780601f1061265b57610100808354040283529160200191612686565b820191906000526020600020905b81548152906001019060200180831161266957829003601f168201915b505050600990930154919250506001600160a01b03168a565b6000918252610102602090815260408084206001600160a01b0393909316845291905290205460ff1690565b6060606d80546109b490614732565b61108e3383836135c6565b6126ef3383612e11565b61270b5760405162461bcd60e51b8152600401610a9f906147e9565b61271784848484613694565b50505050565b606061272882612c2c565b61278e5760405162461bcd60e51b815260206004820152603160248201527f45524337323155524953746f726167653a2055524920717565727920666f72206044820152703737b732bc34b9ba32b73a103a37b5b2b760791b6064820152608401610a9f565b600082815260686020526040812060080180546127aa90614732565b80601f01602080910402602001604051908101604052809291908181526020018280546127d690614732565b80156128235780601f106127f857610100808354040283529160200191612823565b820191906000526020600020905b81548152906001019060200180831161280657829003601f168201915b5050505050905060006128346136c7565b90508051600003612846575092915050565b8151156128785780826040516020016128609291906149b5565b60405160208183030381529060405292505050919050565b612881846136d6565b949350505050565b600082815261010260205260409020600101546128a581613096565b610bd48383613127565b6128c7600080516020614caa8339815191523361269f565b806128eb5750336128e0609e546001600160a01b031690565b6001600160a01b0316145b6129075760405162461bcd60e51b8152600401610a9f9061476c565b60d05460ff161561292a5760405162461bcd60e51b8152600401610a9f906147a3565b6129338a612c2c565b61294f5760405162461bcd60e51b8152600401610a9f906148d2565b60008a81526068602090815260409091208a51612974926001909201918c0190613dd0565b5060008a8152606860209081526040909120895161299a926002909201918b0190613dd0565b5060008a815260686020908152604090912088516129c0926003909201918a0190613dd0565b5060008a815260686020908152604090912087516129e692600490920191890190613dd0565b5060008a81526068602090815260409091208651612a0c92600590920191880190613dd0565b5060008a81526068602090815260409091208551612a3292600690920191870190613dd0565b5060008a81526068602090815260409091208451612a5892600790920191860190613dd0565b5060008a81526068602090815260409091208351612a7e92600890920191850190613dd0565b5060008a81526068602090815260409182902060090180546001600160a01b0319166001600160a01b03851617905590518b81527fda124279e8f8c56d142d1f8d79ba312ac54eb788b54f07b8040ff61eaf211009910160405180910390a150505050505050505050565b609e546001600160a01b03163314612b135760405162461bcd60e51b8152600401610a9f90614947565b606680546001600160a01b0319166001600160a01b0392909216919091179055565b609e546001600160a01b03163314612b5f5760405162461bcd60e51b8152600401610a9f90614947565b6001600160a01b038116612bc45760405162461bcd60e51b815260206004820152602660248201527f4f776e61626c653a206e6577206f776e657220697320746865207a65726f206160448201526564647265737360d01b6064820152608401610a9f565b61116e816133b7565b6001600160a01b03163b151590565b60006001600160e01b031982166380ac58cd60e01b1480612c0d57506001600160e01b03198216635b5e139f60e01b145b8061099f57506301ffc9a760e01b6001600160e01b031983161461099f565b6000908152606e60205260409020546001600160a01b0316151590565b600081815260706020526040902080546001600160a01b0319166001600160a01b0384169081179091558190612c7e82611e60565b6001600160a01b03167f8c5be1e5ebec7d5bd14f71427d1e84f3dd0314c0f7b2291e5b200ac8c7c3b92560405160405180910390a45050565b600081518351148015612cd7575081805190602001208380519060200120145b9392505050565b6001600160a01b038216612d345760405162461bcd60e51b815260206004820181905260248201527f4552433732313a206d696e7420746f20746865207a65726f20616464726573736044820152606401610a9f565b612d3d81612c2c565b15612d8a5760405162461bcd60e51b815260206004820152601c60248201527f4552433732313a20746f6b656e20616c7265616479206d696e746564000000006044820152606401610a9f565b6001600160a01b0382166000908152606f60205260408120805460019290612db39084906149e4565b90915550506000818152606e602052604080822080546001600160a01b0319166001600160a01b03861690811790915590518392907fddf252ad1be2c89b69c2b068fc378daa952ba7f163c4a11628f55a4df523b3ef908290a45050565b6000612e1c82612c2c565b612e7d5760405162461bcd60e51b815260206004820152602c60248201527f4552433732313a206f70657261746f7220717565727920666f72206e6f6e657860448201526b34b9ba32b73a103a37b5b2b760a11b6064820152608401610a9f565b6000612e8883611e60565b9050806001600160a01b0316846001600160a01b03161480612ecf57506001600160a01b0380821660009081526071602090815260408083209388168352929052205460ff165b806128815750836001600160a01b0316612ee884610a37565b6001600160a01b031614949350505050565b826001600160a01b0316612f0d82611e60565b6001600160a01b031614612f715760405162461bcd60e51b815260206004820152602560248201527f4552433732313a207472616e736665722066726f6d20696e636f72726563742060448201526437bbb732b960d91b6064820152608401610a9f565b6001600160a01b038216612fd35760405162461bcd60e51b8152602060048201526024808201527f4552433732313a207472616e7366657220746f20746865207a65726f206164646044820152637265737360e01b6064820152608401610a9f565b612fde600082612c49565b6001600160a01b0383166000908152606f602052604081208054600192906130079084906149fc565b90915550506001600160a01b0382166000908152606f602052604081208054600192906130359084906149e4565b90915550506000818152606e602052604080822080546001600160a01b0319166001600160a01b0386811691821790925591518493918716917fddf252ad1be2c89b69c2b068fc378daa952ba7f163c4a11628f55a4df523b3ef91a4505050565b61116e81336137a0565b6130aa828261269f565b61108e576000828152610102602090815260408083206001600160a01b03851684529091529020805460ff191660011790556130e33390565b6001600160a01b0316816001600160a01b0316837f2f8788117e7eff1d82e926ec794901d17c78024a50270940304540a733656f0d60405160405180910390a45050565b613131828261269f565b1561108e576000828152610102602090815260408083206001600160a01b0385168085529252808320805460ff1916905551339285917ff6391f5c32d9c69d2a47ea670b442974b53935d1edc7fd64eb21e047a839171b9190a45050565b609e546001600160a01b0316331461116e5760405162461bcd60e51b8152600401610a9f90614947565b7f4910fdfa16fed3260ed0e7147f7cc6da11a60208b5b9406d12a635614ffd91435460ff16156131ec57610bd483613804565b826001600160a01b03166352d1902d6040518163ffffffff1660e01b8152600401602060405180830381865afa925050508015613246575060408051601f3d908101601f1916820190925261324391810190614a13565b60015b6132a95760405162461bcd60e51b815260206004820152602e60248201527f45524331393637557067726164653a206e657720696d706c656d656e7461746960448201526d6f6e206973206e6f74205555505360901b6064820152608401610a9f565b600080516020614c8a83398151915281146133185760405162461bcd60e51b815260206004820152602960248201527f45524331393637557067726164653a20756e737570706f727465642070726f786044820152681a58589b195555525160ba1b6064820152608401610a9f565b50610bd48383836138a0565b60d05460ff1661336d5760405162461bcd60e51b815260206004820152601460248201527314185d5cd8589b194e881b9bdd081c185d5cd95960621b6044820152606401610a9f565b60d0805460ff191690557f5db9ee0a495bf2e6ff9c91a7834c1ba4fdd244a5e8aa4e537bd38aeae4b073aa335b6040516001600160a01b03909116815260200160405180910390a1565b609e80546001600160a01b038381166001600160a01b0319831681179093556040519116919082907f8be0079c531659141344cd1fd0a4f28419497f9722a3daafe3b4186f6b6457e090600090a35050565b60008054610100900460ff1615613450578160ff16600114801561342c5750303b155b6134485760405162461bcd60e51b8152600401610a9f90614a2c565b506000919050565b60005460ff8084169116106134775760405162461bcd60e51b8152600401610a9f90614a2c565b506000805460ff191660ff92909216919091179055600190565b919050565b600054610100900460ff166120205760405162461bcd60e51b8152600401610a9f90614a7a565b600054610100900460ff166134e45760405162461bcd60e51b8152600401610a9f90614a7a565b81516134f790606c906020850190613dd0565b508051610bd490606d906020840190613dd0565b600054610100900460ff166135325760405162461bcd60e51b8152600401610a9f90614a7a565b612020336133b7565b600054610100900460ff166135625760405162461bcd60e51b8152600401610a9f90614a7a565b60d0805460ff19169055565b60d05460ff16156135915760405162461bcd60e51b8152600401610a9f906147a3565b60d0805460ff191660011790557f62e78cea01bee320cd4e420270b5ea74000d11b0c9f74754ebdbfc544b05a25861339a3390565b816001600160a01b0316836001600160a01b0316036136275760405162461bcd60e51b815260206004820152601960248201527f4552433732313a20617070726f766520746f2063616c6c6572000000000000006044820152606401610a9f565b6001600160a01b03838116600081815260716020908152604080832094871680845294825291829020805460ff191686151590811790915591519182527f17307eab39ab6107e8899845ad3d59bd9653f200f220920489ca2b5937696c31910160405180910390a3505050565b61369f848484612efa565b6136ab848484846138c5565b6127175760405162461bcd60e51b8152600401610a9f90614ac5565b6060606780546109b490614732565b60606136e182612c2c565b6137455760405162461bcd60e51b815260206004820152602f60248201527f4552433732314d657461646174613a2055524920717565727920666f72206e6f60448201526e3732bc34b9ba32b73a103a37b5b2b760891b6064820152608401610a9f565b600061374f6136c7565b9050600081511161376f5760405180602001604052806000815250612cd7565b80613779846139c6565b60405160200161378a9291906149b5565b6040516020818303038152906040529392505050565b6137aa828261269f565b61108e576137c2816001600160a01b03166014613ac7565b6137cd836020613ac7565b6040516020016137de929190614b17565b60408051601f198184030181529082905262461bcd60e51b8252610a9f91600401613f2a565b6001600160a01b0381163b6138715760405162461bcd60e51b815260206004820152602d60248201527f455243313936373a206e657720696d706c656d656e746174696f6e206973206e60448201526c1bdd08184818dbdb9d1c9858dd609a1b6064820152608401610a9f565b600080516020614c8a83398151915280546001600160a01b0319166001600160a01b0392909216919091179055565b6138a983613c63565b6000825111806138b65750805b15610bd4576127178383613ca3565b60006001600160a01b0384163b156139bb57604051630a85bd0160e11b81526001600160a01b0385169063150b7a0290613909903390899088908890600401614b8c565b6020604051808303816000875af1925050508015613944575060408051601f3d908101601f1916820190925261394191810190614bc9565b60015b6139a1573d808015613972576040519150601f19603f3d011682016040523d82523d6000602084013e613977565b606091505b5080516000036139995760405162461bcd60e51b8152600401610a9f90614ac5565b805181602001fd5b6001600160e01b031916630a85bd0160e11b149050612881565b506001949350505050565b6060816000036139ed5750506040805180820190915260018152600360fc1b602082015290565b8160005b8115613a175780613a0181614be6565b9150613a109050600a83614c15565b91506139f1565b60008167ffffffffffffffff811115613a3257613a32613f97565b6040519080825280601f01601f191660200182016040528015613a5c576020820181803683370190505b5090505b841561288157613a716001836149fc565b9150613a7e600a86614c29565b613a899060306149e4565b60f81b818381518110613a9e57613a9e614c3d565b60200101906001600160f81b031916908160001a905350613ac0600a86614c15565b9450613a60565b60606000613ad6836002614c53565b613ae19060026149e4565b67ffffffffffffffff811115613af957613af9613f97565b6040519080825280601f01601f191660200182016040528015613b23576020820181803683370190505b509050600360fc1b81600081518110613b3e57613b3e614c3d565b60200101906001600160f81b031916908160001a905350600f60fb1b81600181518110613b6d57613b6d614c3d565b60200101906001600160f81b031916908160001a9053506000613b91846002614c53565b613b9c9060016149e4565b90505b6001811115613c14576f181899199a1a9b1b9c1cb0b131b232b360811b85600f1660108110613bd057613bd0614c3d565b1a60f81b828281518110613be657613be6614c3d565b60200101906001600160f81b031916908160001a90535060049490941c93613c0d81614c72565b9050613b9f565b508315612cd75760405162461bcd60e51b815260206004820181905260248201527f537472696e67733a20686578206c656e67746820696e73756666696369656e746044820152606401610a9f565b613c6c81613804565b6040516001600160a01b038216907fbc7cd75a20ee27fd9adebab32041f755214dbc6bffa90cc0225b39da2e5c2d3b90600090a250565b60606001600160a01b0383163b613d0b5760405162461bcd60e51b815260206004820152602660248201527f416464726573733a2064656c65676174652063616c6c20746f206e6f6e2d636f6044820152651b9d1c9858dd60d21b6064820152608401610a9f565b600080846001600160a01b031684604051613d2691906147cd565b600060405180830381855af49150503d8060008114613d61576040519150601f19603f3d011682016040523d82523d6000602084013e613d66565b606091505b5091509150613d8e8282604051806060016040528060278152602001614cca60279139613d97565b95945050505050565b60608315613da6575081612cd7565b825115613db65782518084602001fd5b8160405162461bcd60e51b8152600401610a9f9190613f2a565b828054613ddc90614732565b90600052602060002090601f016020900481019282613dfe5760008555613e44565b82601f10613e1757805160ff1916838001178555613e44565b82800160010185558215613e44579182015b82811115613e44578251825591602001919060010190613e29565b50613e50929150613e8a565b5090565b508054613e6090614732565b6000825580601f10613e70575050565b601f01602090049060005260206000209081019061116e91905b5b80821115613e505760008155600101613e8b565b6001600160e01b03198116811461116e57600080fd5b600060208284031215613ec757600080fd5b8135612cd781613e9f565b60005b83811015613eed578181015183820152602001613ed5565b838111156127175750506000910152565b60008151808452613f16816020860160208601613ed2565b601f01601f19169290920160200192915050565b602081526000612cd76020830184613efe565b600060208284031215613f4f57600080fd5b5035919050565b80356001600160a01b038116811461349157600080fd5b60008060408385031215613f8057600080fd5b613f8983613f56565b946020939093013593505050565b634e487b7160e01b600052604160045260246000fd5b600082601f830112613fbe57600080fd5b813567ffffffffffffffff80821115613fd957613fd9613f97565b604051601f8301601f19908116603f0116810190828211818310171561400157614001613f97565b8160405283815286602085880101111561401a57600080fd5b836020870160208301376000602085830101528094505050505092915050565b60008060008060008060008060008060006101608c8e03121561405c57600080fd5b6140658c613f56565b9a5067ffffffffffffffff8060208e0135111561408157600080fd5b6140918e60208f01358f01613fad565b9a508060408e013511156140a457600080fd5b6140b48e60408f01358f01613fad565b99508060608e013511156140c757600080fd5b6140d78e60608f01358f01613fad565b98508060808e013511156140ea57600080fd5b6140fa8e60808f01358f01613fad565b97508060a08e0135111561410d57600080fd5b61411d8e60a08f01358f01613fad565b96508060c08e0135111561413057600080fd5b6141408e60c08f01358f01613fad565b95508060e08e0135111561415357600080fd5b6141638e60e08f01358f01613fad565b9450806101008e0135111561417757600080fd5b6141888e6101008f01358f01613fad565b9350806101208e0135111561419c57600080fd5b506141ae8d6101208e01358e01613fad565b91506141bd6101408d01613f56565b90509295989b509295989b9093969950565b6000806000606084860312156141e457600080fd5b6141ed84613f56565b92506141fb60208501613f56565b9150604084013590509250925092565b60006020828403121561421d57600080fd5b813567ffffffffffffffff81111561423457600080fd5b61288184828501613fad565b6000806040838503121561425357600080fd5b8235915061426360208401613f56565b90509250929050565b60006020828403121561427e57600080fd5b612cd782613f56565b60208152600082516101408060208501526142a6610160850183613efe565b91506020850151601f19808685030160408701526142c48483613efe565b935060408701519150808685030160608701526142e18483613efe565b935060608701519150808685030160808701526142fe8483613efe565b935060808701519150808685030160a087015261431b8483613efe565b935060a08701519150808685030160c08701526143388483613efe565b935060c08701519150808685030160e08701526143558483613efe565b935060e087015191506101008187860301818801526143748584613efe565b9450808801519250506101208187860301818801526143938584613efe565b945080880151925050506143b1828601826001600160a01b03169052565b5090949350505050565b600080604083850312156143ce57600080fd5b6143d783613f56565b9150602083013567ffffffffffffffff8111156143f357600080fd5b6143ff85828601613fad565b9150509250929050565b6000806040838503121561441c57600080fd5b82359150602083013567ffffffffffffffff8111156143f357600080fd5b600061014080835261444e8184018e613efe565b90508281036020840152614462818d613efe565b90508281036040840152614476818c613efe565b9050828103606084015261448a818b613efe565b9050828103608084015261449e818a613efe565b905082810360a08401526144b28189613efe565b905082810360c08401526144c68188613efe565b905082810360e08401526144da8187613efe565b90508281036101008401526144ef8186613efe565b915050610fae6101208301846001600160a01b03169052565b6000806040838503121561451b57600080fd5b61452483613f56565b91506020830135801515811461453957600080fd5b809150509250929050565b6000806000806080858703121561455a57600080fd5b61456385613f56565b935061457160208601613f56565b925060408501359150606085013567ffffffffffffffff81111561459457600080fd5b6145a087828801613fad565b91505092959194509250565b6000806000806000806000806000806101408b8d0312156145cc57600080fd5b8a35995060208b013567ffffffffffffffff808211156145eb57600080fd5b6145f78e838f01613fad565b9a5060408d013591508082111561460d57600080fd5b6146198e838f01613fad565b995060608d013591508082111561462f57600080fd5b61463b8e838f01613fad565b985060808d013591508082111561465157600080fd5b61465d8e838f01613fad565b975060a08d013591508082111561467357600080fd5b61467f8e838f01613fad565b965060c08d013591508082111561469557600080fd5b6146a18e838f01613fad565b955060e08d01359150808211156146b757600080fd5b6146c38e838f01613fad565b94506101008d01359150808211156146da57600080fd5b506146e78d828e01613fad565b9250506146f76101208c01613f56565b90509295989b9194979a5092959850565b6000806040838503121561471b57600080fd5b61472483613f56565b915061426360208401613f56565b600181811c9082168061474657607f821691505b60208210810361476657634e487b7160e01b600052602260045260246000fd5b50919050565b60208082526018908201527f43616c6c6572206973206e6f7420617574686f72697a65640000000000000000604082015260600190565b60208082526010908201526f14185d5cd8589b194e881c185d5cd95960821b604082015260600190565b600082516147df818460208701613ed2565b9190910192915050565b60208082526031908201527f4552433732313a207472616e736665722063616c6c6572206973206e6f74206f6040820152701ddb995c881b9bdc88185c1c1c9bdd9959607a1b606082015260800190565b6020808252602c908201527f46756e6374696f6e206d7573742062652063616c6c6564207468726f7567682060408201526b19195b1959d85d1958d85b1b60a21b606082015260800190565b6020808252602c908201527f46756e6374696f6e206d7573742062652063616c6c6564207468726f7567682060408201526b6163746976652070726f787960a01b606082015260800190565b602080825260169082015275141c9bda9958dd081b9bdd081e595d081b5a5b9d195960521b604082015260600190565b60208082526025908201527f43616c6c6572206973206e6f74207468652072656769737472792c206e6f722060408201526437bbb732b960d91b606082015260800190565b6020808252818101527f4f776e61626c653a2063616c6c6572206973206e6f7420746865206f776e6572604082015260600190565b634e487b7160e01b600052601160045260246000fd5b60006001600160801b038216806149ab576149ab61497c565b6000190192915050565b600083516149c7818460208801613ed2565b8351908301906149db818360208801613ed2565b01949350505050565b600082198211156149f7576149f761497c565b500190565b600082821015614a0e57614a0e61497c565b500390565b600060208284031215614a2557600080fd5b5051919050565b6020808252602e908201527f496e697469616c697a61626c653a20636f6e747261637420697320616c72656160408201526d191e481a5b9a5d1a585b1a5e995960921b606082015260800190565b6020808252602b908201527f496e697469616c697a61626c653a20636f6e7472616374206973206e6f74206960408201526a6e697469616c697a696e6760a81b606082015260800190565b60208082526032908201527f4552433732313a207472616e7366657220746f206e6f6e20455243373231526560408201527131b2b4bb32b91034b6b83632b6b2b73a32b960711b606082015260800190565b7f416363657373436f6e74726f6c3a206163636f756e7420000000000000000000815260008351614b4f816017850160208801613ed2565b7001034b99036b4b9b9b4b733903937b6329607d1b6017918401918201528351614b80816028840160208801613ed2565b01602801949350505050565b6001600160a01b0385811682528416602082015260408101839052608060608201819052600090614bbf90830184613efe565b9695505050505050565b600060208284031215614bdb57600080fd5b8151612cd781613e9f565b600060018201614bf857614bf861497c565b5060010190565b634e487b7160e01b600052601260045260246000fd5b600082614c2457614c24614bff565b500490565b600082614c3857614c38614bff565b500690565b634e487b7160e01b600052603260045260246000fd5b6000816000190483118215151615614c6d57614c6d61497c565b500290565b600081614c8157614c8161497c565b50600019019056fe360894a13ba1a3210667c828492db98dca3e2076cc3735a920a3ca505d382bbc241ecf16d79d0f8dbfb92cbc07fe17840425976cf0667f022fe9877caa831b08416464726573733a206c6f772d6c6576656c2064656c65676174652063616c6c206661696c6564a2646970667358221220f6e3d371494664bc0741f22f7316aeeeff54562dc1efad7fbd78e715d6a5df6564736f6c634300080e0033496e697469616c697a61626c653a20636f6e747261637420697320616c726561",
  "devdoc": {
    "details": "Each project can have up to n vintages, with data stored in the `CarbonProjectVintages` contract. `vintageTokenId`s are mapped to `projectTokenId`s via `pvToTokenId` in the vintage contract.",
    "kind": "dev",
    "methods": {
      "addNewProject(address,string,string,string,string,string,string,string,string,string,address)": {
        "details": "Projects can be added by data-managers"
      },
      "approve(address,uint256)": {
        "details": "See {IERC721-approve}."
      },
      "balanceOf(address)": {
        "details": "See {IERC721-balanceOf}."
      },
      "constructor": {
        "custom:oz-upgrades-unsafe-allow": "constructor"
      },
      "getApproved(uint256)": {
        "details": "See {IERC721-getApproved}."
      },
      "getProjectDataByTokenId(uint256)": {
        "details": "retrieve all data from ProjectData struct"
      },
      "getRoleAdmin(bytes32)": {
        "details": "Returns the admin role that controls `role`. See {grantRole} and {revokeRole}. To change a role's admin, use {_setRoleAdmin}."
      },
      "grantRole(bytes32,address)": {
        "details": "Grants `role` to `account`. If `account` had not been already granted `role`, emits a {RoleGranted} event. Requirements: - the caller must have ``role``'s admin role."
      },
      "hasRole(bytes32,address)": {
        "details": "Returns `true` if `account` has been granted `role`."
      },
      "isApprovedForAll(address,address)": {
        "details": "See {IERC721-isApprovedForAll}."
      },
      "isValidProjectTokenId(uint256)": {
        "details": "Function used by the utility function `checkProjectTokenExists`"
      },
      "name()": {
        "details": "See {IERC721Metadata-name}."
      },
      "owner()": {
        "details": "Returns the address of the current owner."
      },
      "ownerOf(uint256)": {
        "details": "See {IERC721-ownerOf}."
      },
      "pause()": {
        "details": "wraps _pause(), only Admin"
      },
      "paused()": {
        "details": "Returns true if the contract is paused, and false otherwise."
      },
      "proxiableUUID()": {
        "details": "Implementation of the ERC1822 {proxiableUUID} function. This returns the storage slot used by the implementation. It is used to validate that the this implementation remains valid after an upgrade. IMPORTANT: A proxy pointing at a proxiable contract should not be considered proxiable itself, because this risks bricking a proxy that upgrades to it, by delegating to itself until out of gas. Thus it is critical that this function revert if invoked through a proxy. This is guaranteed by the `notDelegated` modifier."
      },
      "removeProject(uint256)": {
        "details": "Removes a project and corresponding data, sets projectTokenId invalid"
      },
      "renounceOwnership()": {
        "details": "Leaves the contract without owner. It will not be possible to call `onlyOwner` functions anymore. Can only be called by the current owner. NOTE: Renouncing ownership will leave the contract without an owner, thereby removing any functionality that is only available to the owner."
      },
      "renounceRole(bytes32,address)": {
        "details": "Revokes `role` from the calling account. Roles are often managed via {grantRole} and {revokeRole}: this function's purpose is to provide a mechanism for accounts to lose their privileges if they are compromised (such as when a trusted device is misplaced). If the calling account had been revoked `role`, emits a {RoleRevoked} event. Requirements: - the caller must be `account`."
      },
      "revokeRole(bytes32,address)": {
        "details": "Revokes `role` from `account`. If `account` had been granted `role`, emits a {RoleRevoked} event. Requirements: - the caller must have ``role``'s admin role."
      },
      "safeTransferFrom(address,address,uint256)": {
        "details": "See {IERC721-safeTransferFrom}."
      },
      "safeTransferFrom(address,address,uint256,bytes)": {
        "details": "See {IERC721-safeTransferFrom}."
      },
      "setApprovalForAll(address,bool)": {
        "details": "See {IERC721-setApprovalForAll}."
      },
      "symbol()": {
        "details": "See {IERC721Metadata-symbol}."
      },
      "tokenURI(uint256)": {
        "details": "Returns the Uniform Resource Identifier (URI) for `tokenId` token. based on the ERC721URIStorage implementation"
      },
      "transferFrom(address,address,uint256)": {
        "details": "See {IERC721-transferFrom}."
      },
      "transferOwnership(address)": {
        "details": "Transfers ownership of the contract to a new account (`newOwner`). Can only be called by the current owner."
      },
      "unpause()": {
        "details": "unpause the system, wraps _unpause(), only Admin"
      },
      "updateProject(uint256,string,string,string,string,string,string,string,string,address)": {
        "details": "Projects can be updated by data-managers"
      },
      "updateProjectId(uint256,string)": {
        "details": "Projects and their projectId's must be unique, changing them must be handled carefully"
      },
      "upgradeTo(address)": {
        "details": "Upgrade the implementation of the proxy to `newImplementation`. Calls {_authorizeUpgrade}. Emits an {Upgraded} event."
      },
      "upgradeToAndCall(address,bytes)": {
        "details": "Upgrade the implementation of the proxy to `newImplementation`, and subsequently execute the function call encoded in `data`. Calls {_authorizeUpgrade}. Emits an {Upgraded} event."
      }
    },
    "stateVariables": {
      "MANAGER_ROLE": {
        "details": "All roles related to accessing this contract"
      },
      "VERSION": {
        "details": "Version-related parameters. VERSION keeps track of production releases. VERSION_RELEASE_CANDIDATE keeps track of iterations of a VERSION in our staging environment."
      }
    },
    "version": 1
  },
  "userdoc": {
    "kind": "user",
    "methods": {
      "addNewProject(address,string,string,string,string,string,string,string,string,string,address)": {
        "notice": "Adds a new carbon project along with attributes/data"
      },
      "pause()": {
        "notice": "Emergency function to disable contract's core functionality"
      },
      "updateBeneficiary(uint256,address)": {
        "notice": "Updates the project beneficiary"
      },
      "updateProject(uint256,string,string,string,string,string,string,string,string,address)": {
        "notice": "Updates and existing carbon project"
      }
    },
    "notice": "The CarbonProjects contract stores carbon project-specific data The data is stored in structs via ERC721 tokens Most contracts in the protocol query the data stored here The attributes in the Project-NFTs are constant over all vintages of the project",
    "version": 1
  },
  "storageLayout": {
    "storage": [
      {
        "astId": 1489,
        "contract": "contracts/CarbonProjects.sol:CarbonProjects",
        "label": "_initialized",
        "offset": 0,
        "slot": "0",
        "type": "t_uint8"
      },
      {
        "astId": 1492,
        "contract": "contracts/CarbonProjects.sol:CarbonProjects",
        "label": "_initializing",
        "offset": 1,
        "slot": "0",
        "type": "t_bool"
      },
      {
        "astId": 4593,
        "contract": "contracts/CarbonProjects.sol:CarbonProjects",
        "label": "__gap",
        "offset": 0,
        "slot": "1",
        "type": "t_array(t_uint256)50_storage"
      },
      {
        "astId": 4900,
        "contract": "contracts/CarbonProjects.sol:CarbonProjects",
        "label": "__gap",
        "offset": 0,
        "slot": "51",
        "type": "t_array(t_uint256)50_storage"
      },
      {
        "astId": 9814,
        "contract": "contracts/CarbonProjects.sol:CarbonProjects",
        "label": "projectTokenCounter",
        "offset": 0,
        "slot": "101",
        "type": "t_uint128"
      },
      {
        "astId": 9816,
        "contract": "contracts/CarbonProjects.sol:CarbonProjects",
        "label": "totalSupply",
        "offset": 16,
        "slot": "101",
        "type": "t_uint128"
      },
      {
        "astId": 9818,
        "contract": "contracts/CarbonProjects.sol:CarbonProjects",
        "label": "contractRegistry",
        "offset": 0,
        "slot": "102",
        "type": "t_address"
      },
      {
        "astId": 9820,
        "contract": "contracts/CarbonProjects.sol:CarbonProjects",
        "label": "baseURI",
        "offset": 0,
        "slot": "103",
        "type": "t_string_storage"
      },
      {
        "astId": 9826,
        "contract": "contracts/CarbonProjects.sol:CarbonProjects",
        "label": "projectData",
        "offset": 0,
        "slot": "104",
        "type": "t_mapping(t_uint256,t_struct(ProjectData)8567_storage)"
      },
      {
        "astId": 9831,
        "contract": "contracts/CarbonProjects.sol:CarbonProjects",
        "label": "projectIds",
        "offset": 0,
        "slot": "105",
        "type": "t_mapping(t_string_memory_ptr,t_bool)"
      },
      {
        "astId": 9836,
        "contract": "contracts/CarbonProjects.sol:CarbonProjects",
        "label": "validProjectTokenIds",
        "offset": 0,
        "slot": "106",
        "type": "t_mapping(t_uint256,t_bool)"
      },
      {
        "astId": 9841,
        "contract": "contracts/CarbonProjects.sol:CarbonProjects",
        "label": "pidToTokenId",
        "offset": 0,
        "slot": "107",
        "type": "t_mapping(t_string_memory_ptr,t_uint256)"
      },
      {
        "astId": 2897,
        "contract": "contracts/CarbonProjects.sol:CarbonProjects",
        "label": "_name",
        "offset": 0,
        "slot": "108",
        "type": "t_string_storage"
      },
      {
        "astId": 2899,
        "contract": "contracts/CarbonProjects.sol:CarbonProjects",
        "label": "_symbol",
        "offset": 0,
        "slot": "109",
        "type": "t_string_storage"
      },
      {
        "astId": 2903,
        "contract": "contracts/CarbonProjects.sol:CarbonProjects",
        "label": "_owners",
        "offset": 0,
        "slot": "110",
        "type": "t_mapping(t_uint256,t_address)"
      },
      {
        "astId": 2907,
        "contract": "contracts/CarbonProjects.sol:CarbonProjects",
        "label": "_balances",
        "offset": 0,
        "slot": "111",
        "type": "t_mapping(t_address,t_uint256)"
      },
      {
        "astId": 2911,
        "contract": "contracts/CarbonProjects.sol:CarbonProjects",
        "label": "_tokenApprovals",
        "offset": 0,
        "slot": "112",
        "type": "t_mapping(t_uint256,t_address)"
      },
      {
        "astId": 2917,
        "contract": "contracts/CarbonProjects.sol:CarbonProjects",
        "label": "_operatorApprovals",
        "offset": 0,
        "slot": "113",
        "type": "t_mapping(t_address,t_mapping(t_address,t_bool))"
      },
      {
        "astId": 3758,
        "contract": "contracts/CarbonProjects.sol:CarbonProjects",
        "label": "__gap",
        "offset": 0,
        "slot": "114",
        "type": "t_array(t_uint256)44_storage"
      },
      {
        "astId": 980,
        "contract": "contracts/CarbonProjects.sol:CarbonProjects",
        "label": "_owner",
        "offset": 0,
        "slot": "158",
        "type": "t_address"
      },
      {
        "astId": 1092,
        "contract": "contracts/CarbonProjects.sol:CarbonProjects",
        "label": "__gap",
        "offset": 0,
        "slot": "159",
        "type": "t_array(t_uint256)49_storage"
      },
      {
        "astId": 1781,
        "contract": "contracts/CarbonProjects.sol:CarbonProjects",
        "label": "_paused",
        "offset": 0,
        "slot": "208",
        "type": "t_bool"
      },
      {
        "astId": 1870,
        "contract": "contracts/CarbonProjects.sol:CarbonProjects",
        "label": "__gap",
        "offset": 0,
        "slot": "209",
        "type": "t_array(t_uint256)49_storage"
      },
      {
        "astId": 596,
        "contract": "contracts/CarbonProjects.sol:CarbonProjects",
        "label": "_roles",
        "offset": 0,
        "slot": "258",
        "type": "t_mapping(t_bytes32,t_struct(RoleData)591_storage)"
      },
      {
        "astId": 895,
        "contract": "contracts/CarbonProjects.sol:CarbonProjects",
        "label": "__gap",
        "offset": 0,
        "slot": "259",
        "type": "t_array(t_uint256)49_storage"
      },
      {
        "astId": 1471,
        "contract": "contracts/CarbonProjects.sol:CarbonProjects",
        "label": "__gap",
        "offset": 0,
        "slot": "308",
        "type": "t_array(t_uint256)50_storage"
      },
      {
        "astId": 1759,
        "contract": "contracts/CarbonProjects.sol:CarbonProjects",
        "label": "__gap",
        "offset": 0,
        "slot": "358",
        "type": "t_array(t_uint256)50_storage"
      }
    ],
    "types": {
      "t_address": {
        "encoding": "inplace",
        "label": "address",
        "numberOfBytes": "20"
      },
      "t_array(t_uint256)44_storage": {
        "base": "t_uint256",
        "encoding": "inplace",
        "label": "uint256[44]",
        "numberOfBytes": "1408"
      },
      "t_array(t_uint256)49_storage": {
        "base": "t_uint256",
        "encoding": "inplace",
        "label": "uint256[49]",
        "numberOfBytes": "1568"
      },
      "t_array(t_uint256)50_storage": {
        "base": "t_uint256",
        "encoding": "inplace",
        "label": "uint256[50]",
        "numberOfBytes": "1600"
      },
      "t_bool": {
        "encoding": "inplace",
        "label": "bool",
        "numberOfBytes": "1"
      },
      "t_bytes32": {
        "encoding": "inplace",
        "label": "bytes32",
        "numberOfBytes": "32"
      },
      "t_mapping(t_address,t_bool)": {
        "encoding": "mapping",
        "key": "t_address",
        "label": "mapping(address => bool)",
        "numberOfBytes": "32",
        "value": "t_bool"
      },
      "t_mapping(t_address,t_mapping(t_address,t_bool))": {
        "encoding": "mapping",
        "key": "t_address",
        "label": "mapping(address => mapping(address => bool))",
        "numberOfBytes": "32",
        "value": "t_mapping(t_address,t_bool)"
      },
      "t_mapping(t_address,t_uint256)": {
        "encoding": "mapping",
        "key": "t_address",
        "label": "mapping(address => uint256)",
        "numberOfBytes": "32",
        "value": "t_uint256"
      },
      "t_mapping(t_bytes32,t_struct(RoleData)591_storage)": {
        "encoding": "mapping",
        "key": "t_bytes32",
        "label": "mapping(bytes32 => struct AccessControlUpgradeable.RoleData)",
        "numberOfBytes": "32",
        "value": "t_struct(RoleData)591_storage"
      },
      "t_mapping(t_string_memory_ptr,t_bool)": {
        "encoding": "mapping",
        "key": "t_string_memory_ptr",
        "label": "mapping(string => bool)",
        "numberOfBytes": "32",
        "value": "t_bool"
      },
      "t_mapping(t_string_memory_ptr,t_uint256)": {
        "encoding": "mapping",
        "key": "t_string_memory_ptr",
        "label": "mapping(string => uint256)",
        "numberOfBytes": "32",
        "value": "t_uint256"
      },
      "t_mapping(t_uint256,t_address)": {
        "encoding": "mapping",
        "key": "t_uint256",
        "label": "mapping(uint256 => address)",
        "numberOfBytes": "32",
        "value": "t_address"
      },
      "t_mapping(t_uint256,t_bool)": {
        "encoding": "mapping",
        "key": "t_uint256",
        "label": "mapping(uint256 => bool)",
        "numberOfBytes": "32",
        "value": "t_bool"
      },
      "t_mapping(t_uint256,t_struct(ProjectData)8567_storage)": {
        "encoding": "mapping",
        "key": "t_uint256",
        "label": "mapping(uint256 => struct ProjectData)",
        "numberOfBytes": "32",
        "value": "t_struct(ProjectData)8567_storage"
      },
      "t_string_memory_ptr": {
        "encoding": "bytes",
        "label": "string",
        "numberOfBytes": "32"
      },
      "t_string_storage": {
        "encoding": "bytes",
        "label": "string",
        "numberOfBytes": "32"
      },
      "t_struct(ProjectData)8567_storage": {
        "encoding": "inplace",
        "label": "struct ProjectData",
        "members": [
          {
            "astId": 8548,
            "contract": "contracts/CarbonProjects.sol:CarbonProjects",
            "label": "projectId",
            "offset": 0,
            "slot": "0",
            "type": "t_string_storage"
          },
          {
            "astId": 8550,
            "contract": "contracts/CarbonProjects.sol:CarbonProjects",
            "label": "standard",
            "offset": 0,
            "slot": "1",
            "type": "t_string_storage"
          },
          {
            "astId": 8552,
            "contract": "contracts/CarbonProjects.sol:CarbonProjects",
            "label": "methodology",
            "offset": 0,
            "slot": "2",
            "type": "t_string_storage"
          },
          {
            "astId": 8554,
            "contract": "contracts/CarbonProjects.sol:CarbonProjects",
            "label": "region",
            "offset": 0,
            "slot": "3",
            "type": "t_string_storage"
          },
          {
            "astId": 8556,
            "contract": "contracts/CarbonProjects.sol:CarbonProjects",
            "label": "storageMethod",
            "offset": 0,
            "slot": "4",
            "type": "t_string_storage"
          },
          {
            "astId": 8558,
            "contract": "contracts/CarbonProjects.sol:CarbonProjects",
            "label": "method",
            "offset": 0,
            "slot": "5",
            "type": "t_string_storage"
          },
          {
            "astId": 8560,
            "contract": "contracts/CarbonProjects.sol:CarbonProjects",
            "label": "emissionType",
            "offset": 0,
            "slot": "6",
            "type": "t_string_storage"
          },
          {
            "astId": 8562,
            "contract": "contracts/CarbonProjects.sol:CarbonProjects",
            "label": "category",
            "offset": 0,
            "slot": "7",
            "type": "t_string_storage"
          },
          {
            "astId": 8564,
            "contract": "contracts/CarbonProjects.sol:CarbonProjects",
            "label": "uri",
            "offset": 0,
            "slot": "8",
            "type": "t_string_storage"
          },
          {
            "astId": 8566,
            "contract": "contracts/CarbonProjects.sol:CarbonProjects",
            "label": "beneficiary",
            "offset": 0,
            "slot": "9",
            "type": "t_address"
          }
        ],
        "numberOfBytes": "320"
      },
      "t_struct(RoleData)591_storage": {
        "encoding": "inplace",
        "label": "struct AccessControlUpgradeable.RoleData",
        "members": [
          {
            "astId": 588,
            "contract": "contracts/CarbonProjects.sol:CarbonProjects",
            "label": "members",
            "offset": 0,
            "slot": "0",
            "type": "t_mapping(t_address,t_bool)"
          },
          {
            "astId": 590,
            "contract": "contracts/CarbonProjects.sol:CarbonProjects",
            "label": "adminRole",
            "offset": 0,
            "slot": "1",
            "type": "t_bytes32"
          }
        ],
        "numberOfBytes": "64"
      },
      "t_uint128": {
        "encoding": "inplace",
        "label": "uint128",
        "numberOfBytes": "16"
      },
      "t_uint256": {
        "encoding": "inplace",
        "label": "uint256",
        "numberOfBytes": "32"
      },
      "t_uint8": {
        "encoding": "inplace",
        "label": "uint8",
        "numberOfBytes": "1"
      }
    }
  }
}