{
  "address": "0xa30589F50b9641dacCB98AA2B4A8F24739c5B007",
  "abi": [
    {
      "inputs": [],
      "stateMutability": "nonpayable",
      "type": "constructor"
    },
    {
      "anonymous": false,
      "inputs": [
        {
          "indexed": false,
          "internalType": "address",
          "name": "previousAdmin",
          "type": "address"
        },
        {
          "indexed": false,
          "internalType": "address",
          "name": "newAdmin",
          "type": "address"
        }
      ],
      "name": "AdminChanged",
      "type": "event"
    },
    {
      "anonymous": false,
      "inputs": [
        {
          "indexed": true,
          "internalType": "address",
          "name": "beacon",
          "type": "address"
        }
      ],
      "name": "BeaconUpgraded",
      "type": "event"
    },
    {
      "anonymous": false,
      "inputs": [
        {
          "indexed": false,
          "internalType": "uint8",
          "name": "version",
          "type": "uint8"
        }
      ],
      "name": "Initialized",
      "type": "event"
    },
    {
      "anonymous": false,
      "inputs": [
        {
          "indexed": true,
          "internalType": "address",
          "name": "previousOwner",
          "type": "address"
        },
        {
          "indexed": true,
          "internalType": "address",
          "name": "newOwner",
          "type": "address"
        }
      ],
      "name": "OwnershipTransferred",
      "type": "event"
    },
    {
      "anonymous": false,
      "inputs": [
        {
          "indexed": true,
          "internalType": "bytes32",
          "name": "role",
          "type": "bytes32"
        },
        {
          "indexed": true,
          "internalType": "bytes32",
          "name": "previousAdminRole",
          "type": "bytes32"
        },
        {
          "indexed": true,
          "internalType": "bytes32",
          "name": "newAdminRole",
          "type": "bytes32"
        }
      ],
      "name": "RoleAdminChanged",
      "type": "event"
    },
    {
      "anonymous": false,
      "inputs": [
        {
          "indexed": true,
          "internalType": "bytes32",
          "name": "role",
          "type": "bytes32"
        },
        {
          "indexed": true,
          "internalType": "address",
          "name": "account",
          "type": "address"
        },
        {
          "indexed": true,
          "internalType": "address",
          "name": "sender",
          "type": "address"
        }
      ],
      "name": "RoleGranted",
      "type": "event"
    },
    {
      "anonymous": false,
      "inputs": [
        {
          "indexed": true,
          "internalType": "bytes32",
          "name": "role",
          "type": "bytes32"
        },
        {
          "indexed": true,
          "internalType": "address",
          "name": "account",
          "type": "address"
        },
        {
          "indexed": true,
          "internalType": "address",
          "name": "sender",
          "type": "address"
        }
      ],
      "name": "RoleRevoked",
      "type": "event"
    },
    {
      "anonymous": false,
      "inputs": [
        {
          "indexed": true,
          "internalType": "address",
          "name": "factory",
          "type": "address"
        },
        {
          "indexed": true,
          "internalType": "string",
          "name": "standard",
          "type": "string"
        }
      ],
      "name": "TCO2FactoryAdded",
      "type": "event"
    },
    {
      "anonymous": false,
      "inputs": [
        {
          "indexed": true,
          "internalType": "address",
          "name": "implementation",
          "type": "address"
        }
      ],
      "name": "Upgraded",
      "type": "event"
    },
    {
      "inputs": [],
      "name": "DEFAULT_ADMIN_ROLE",
      "outputs": [
        {
          "internalType": "bytes32",
          "name": "",
          "type": "bytes32"
        }
      ],
      "stateMutability": "view",
      "type": "function"
    },
    {
      "inputs": [],
      "name": "PAUSER_ROLE",
      "outputs": [
        {
          "internalType": "bytes32",
          "name": "",
          "type": "bytes32"
        }
      ],
      "stateMutability": "view",
      "type": "function"
    },
    {
      "inputs": [],
      "name": "VERSION",
      "outputs": [
        {
          "internalType": "string",
          "name": "",
          "type": "string"
        }
      ],
      "stateMutability": "view",
      "type": "function"
    },
    {
      "inputs": [],
      "name": "VERSION_RELEASE_CANDIDATE",
      "outputs": [
        {
          "internalType": "uint256",
          "name": "",
          "type": "uint256"
        }
      ],
      "stateMutability": "view",
      "type": "function"
    },
    {
      "inputs": [
        {
          "internalType": "address",
          "name": "erc20",
          "type": "address"
        },
        {
          "internalType": "string",
          "name": "standardRegistry",
          "type": "string"
        }
      ],
      "name": "addERC20",
      "outputs": [],
      "stateMutability": "nonpayable",
      "type": "function"
    },
    {
      "inputs": [
        {
          "internalType": "address",
          "name": "erc20",
          "type": "address"
        }
      ],
      "name": "addERC20",
      "outputs": [],
      "stateMutability": "nonpayable",
      "type": "function"
    },
    {
      "inputs": [],
      "name": "carbonOffsetBadgesAddress",
      "outputs": [
        {
          "internalType": "address",
          "name": "",
          "type": "address"
        }
      ],
      "stateMutability": "view",
      "type": "function"
    },
    {
      "inputs": [],
      "name": "carbonOffsetBatchesAddress",
      "outputs": [
        {
          "internalType": "address",
          "name": "",
          "type": "address"
        }
      ],
      "stateMutability": "view",
      "type": "function"
    },
    {
      "inputs": [],
      "name": "carbonProjectVintagesAddress",
      "outputs": [
        {
          "internalType": "address",
          "name": "",
          "type": "address"
        }
      ],
      "stateMutability": "view",
      "type": "function"
    },
    {
      "inputs": [],
      "name": "carbonProjectsAddress",
      "outputs": [
        {
          "internalType": "address",
          "name": "",
          "type": "address"
        }
      ],
      "stateMutability": "view",
      "type": "function"
    },
    {
      "inputs": [
        {
          "internalType": "address",
          "name": "erc20",
          "type": "address"
        }
      ],
      "name": "checkERC20",
      "outputs": [
        {
          "internalType": "bool",
          "name": "",
          "type": "bool"
        }
      ],
      "stateMutability": "view",
      "type": "function"
    },
    {
      "inputs": [
        {
          "internalType": "bytes32",
          "name": "role",
          "type": "bytes32"
        }
      ],
      "name": "getRoleAdmin",
      "outputs": [
        {
          "internalType": "bytes32",
          "name": "",
          "type": "bytes32"
        }
      ],
      "stateMutability": "view",
      "type": "function"
    },
    {
      "inputs": [
        {
          "internalType": "bytes32",
          "name": "role",
          "type": "bytes32"
        },
        {
          "internalType": "address",
          "name": "account",
          "type": "address"
        }
      ],
      "name": "grantRole",
      "outputs": [],
      "stateMutability": "nonpayable",
      "type": "function"
    },
    {
      "inputs": [
        {
          "internalType": "bytes32",
          "name": "role",
          "type": "bytes32"
        },
        {
          "internalType": "address",
          "name": "account",
          "type": "address"
        }
      ],
      "name": "hasRole",
      "outputs": [
        {
          "internalType": "bool",
          "name": "",
          "type": "bool"
        }
      ],
      "stateMutability": "view",
      "type": "function"
    },
    {
      "inputs": [],
      "name": "initialize",
      "outputs": [],
      "stateMutability": "nonpayable",
      "type": "function"
    },
    {
      "inputs": [
        {
          "internalType": "address",
          "name": "erc20",
          "type": "address"
        }
      ],
      "name": "isValidERC20",
      "outputs": [
        {
          "internalType": "bool",
          "name": "",
          "type": "bool"
        }
      ],
      "stateMutability": "view",
      "type": "function"
    },
    {
      "inputs": [],
      "name": "owner",
      "outputs": [
        {
          "internalType": "address",
          "name": "",
          "type": "address"
        }
      ],
      "stateMutability": "view",
      "type": "function"
    },
    {
      "inputs": [],
      "name": "pauseSystem",
      "outputs": [],
      "stateMutability": "nonpayable",
      "type": "function"
    },
    {
      "inputs": [
        {
          "internalType": "address",
          "name": "",
          "type": "address"
        }
      ],
      "name": "projectVintageERC20Registry",
      "outputs": [
        {
          "internalType": "bool",
          "name": "",
          "type": "bool"
        }
      ],
      "stateMutability": "view",
      "type": "function"
    },
    {
      "inputs": [],
      "name": "proxiableUUID",
      "outputs": [
        {
          "internalType": "bytes32",
          "name": "",
          "type": "bytes32"
        }
      ],
      "stateMutability": "view",
      "type": "function"
    },
    {
      "inputs": [],
      "name": "renounceOwnership",
      "outputs": [],
      "stateMutability": "nonpayable",
      "type": "function"
    },
    {
      "inputs": [
        {
          "internalType": "bytes32",
          "name": "role",
          "type": "bytes32"
        },
        {
          "internalType": "address",
          "name": "account",
          "type": "address"
        }
      ],
      "name": "renounceRole",
      "outputs": [],
      "stateMutability": "nonpayable",
      "type": "function"
    },
    {
      "inputs": [],
      "name": "retirementCertificatesAddress",
      "outputs": [
        {
          "internalType": "address",
          "name": "",
          "type": "address"
        }
      ],
      "stateMutability": "view",
      "type": "function"
    },
    {
      "inputs": [
        {
          "internalType": "bytes32",
          "name": "role",
          "type": "bytes32"
        },
        {
          "internalType": "address",
          "name": "account",
          "type": "address"
        }
      ],
      "name": "revokeRole",
      "outputs": [],
      "stateMutability": "nonpayable",
      "type": "function"
    },
    {
      "inputs": [
        {
          "internalType": "address",
          "name": "_address",
          "type": "address"
        }
      ],
      "name": "setCarbonOffsetBatchesAddress",
      "outputs": [],
      "stateMutability": "nonpayable",
      "type": "function"
    },
    {
      "inputs": [
        {
          "internalType": "address",
          "name": "_address",
          "type": "address"
        }
      ],
      "name": "setCarbonProjectVintagesAddress",
      "outputs": [],
      "stateMutability": "nonpayable",
      "type": "function"
    },
    {
      "inputs": [
        {
          "internalType": "address",
          "name": "_address",
          "type": "address"
        }
      ],
      "name": "setCarbonProjectsAddress",
      "outputs": [],
      "stateMutability": "nonpayable",
      "type": "function"
    },
    {
      "inputs": [
        {
          "internalType": "address",
          "name": "_address",
          "type": "address"
        }
      ],
      "name": "setRetirementCertificatesAddress",
      "outputs": [],
      "stateMutability": "nonpayable",
      "type": "function"
    },
    {
      "inputs": [
        {
          "internalType": "address",
          "name": "tco2Factory",
          "type": "address"
        }
      ],
      "name": "setToucanCarbonOffsetsFactoryAddress",
      "outputs": [],
      "stateMutability": "nonpayable",
      "type": "function"
    },
    {
      "inputs": [],
      "name": "supportedStandardRegistries",
      "outputs": [
        {
          "internalType": "string[]",
          "name": "",
          "type": "string[]"
        }
      ],
      "stateMutability": "view",
      "type": "function"
    },
    {
      "inputs": [
        {
          "internalType": "bytes4",
          "name": "interfaceId",
          "type": "bytes4"
        }
      ],
      "name": "supportsInterface",
      "outputs": [
        {
          "internalType": "bool",
          "name": "",
          "type": "bool"
        }
      ],
      "stateMutability": "view",
      "type": "function"
    },
    {
      "inputs": [
        {
          "internalType": "string",
          "name": "",
          "type": "string"
        }
      ],
      "name": "toucanCarbonOffsetFactories",
      "outputs": [
        {
          "internalType": "address",
          "name": "",
          "type": "address"
        }
      ],
      "stateMutability": "view",
      "type": "function"
    },
    {
      "inputs": [],
      "name": "toucanCarbonOffsetsFactoryAddress",
      "outputs": [
        {
          "internalType": "address",
          "name": "",
          "type": "address"
        }
      ],
      "stateMutability": "view",
      "type": "function"
    },
    {
      "inputs": [
        {
          "internalType": "string",
          "name": "standardRegistry",
          "type": "string"
        }
      ],
      "name": "toucanCarbonOffsetsFactoryAddress",
      "outputs": [
        {
          "internalType": "address",
          "name": "",
          "type": "address"
        }
      ],
      "stateMutability": "view",
      "type": "function"
    },
    {
      "inputs": [
        {
          "internalType": "address",
          "name": "newOwner",
          "type": "address"
        }
      ],
      "name": "transferOwnership",
      "outputs": [],
      "stateMutability": "nonpayable",
      "type": "function"
    },
    {
      "inputs": [],
      "name": "unpauseSystem",
      "outputs": [],
      "stateMutability": "nonpayable",
      "type": "function"
    },
    {
      "inputs": [
        {
          "internalType": "address",
          "name": "newImplementation",
          "type": "address"
        }
      ],
      "name": "upgradeTo",
      "outputs": [],
      "stateMutability": "nonpayable",
      "type": "function"
    },
    {
      "inputs": [
        {
          "internalType": "address",
          "name": "newImplementation",
          "type": "address"
        },
        {
          "internalType": "bytes",
          "name": "data",
          "type": "bytes"
        }
      ],
      "name": "upgradeToAndCall",
      "outputs": [],
      "stateMutability": "payable",
      "type": "function"
    }
  ],
  "numDeployments": 2,
  "solcInputHash": "dc0ee1b6b343fbee6f8a2701b6ad40d7",
  "bytecode": "0x60a0604052306080523480156200001557600080fd5b506200002062000026565b62000158565b6200003260ff62000035565b50565b600654600090610100900460ff1615620000d0578160ff1660011480156200007057506200006e306200014960201b62001b0c1760201c565b155b620000c85760405162461bcd60e51b815260206004820152602e602482015260008051602062002dd583398151915260448201526d191e481a5b9a5d1a585b1a5e995960921b60648201526084015b60405180910390fd5b506000919050565b60065460ff8084169116106200012f5760405162461bcd60e51b815260206004820152602e602482015260008051602062002dd583398151915260448201526d191e481a5b9a5d1a585b1a5e995960921b6064820152608401620000bf565b506006805460ff191660ff92909216919091179055600190565b6001600160a01b03163b151590565b608051612c45620001906000396000818161093f0152818161097f01528181610f0001528181610f400152610fcf0152612c456000f3fe6080604052600436106102255760003560e01c80636ca0b0d711610123578063a0ad2599116100ab578063e63ab1e91161006f578063e63ab1e914610618578063f0782ba81461064c578063f2fde38b1461066c578063f5e766321461068c578063ffa1ad74146106ce57600080fd5b8063a0ad259914610590578063a0af2560146105b0578063a217fddf146105ce578063d547741f146105e3578063dc1d4fb71461060357600080fd5b8063787d8713116100f2578063787d8713146104e45780638129fc1c1461051d5780638da5cb5b1461053257806391148b271461055057806391d148541461057057600080fd5b80636ca0b0d71461049a578063715018a6146104af57806371b15b1c146104c4578063746f62da146104e457600080fd5b80633659cfe6116101b15780634f1ef286116101755780634f1ef2861461043057806352d1902d146104435780635e20d0e1146103bf5780636989d801146104585780636c07adfa1461047857600080fd5b80633659cfe61461039f578063376b5dce146103bf57806343658a70146103dd5780634be4e3dd146103fd5780634c7612401461041b57600080fd5b80631cf743db116101f85780631cf743db146102d1578063248a9ca3146103015780632f2ff15d1461033f578063344dd6cb1461035f57806336568abe1461037f57600080fd5b806301157a831461022a57806301f07b2f1461026157806301ffc9a71461028357806308cca7e3146102b3575b600080fd5b34801561023657600080fd5b506001546001600160a01b03165b6040516001600160a01b0390911681526020015b60405180910390f35b34801561026d57600080fd5b5061028161027c366004612504565b61070c565b005b34801561028f57600080fd5b506102a361029e36600461251f565b610787565b6040519015158152602001610258565b3480156102bf57600080fd5b506003546001600160a01b0316610244565b3480156102dd57600080fd5b506102a36102ec366004612504565b60056020526000908152604090205460ff1681565b34801561030d57600080fd5b5061033161031c366004612549565b6000908152609d602052604090206001015490565b604051908152602001610258565b34801561034b57600080fd5b5061028161035a366004612562565b6107be565b34801561036b57600080fd5b5061028161037a36600461258e565b6107e8565b34801561038b57600080fd5b5061028161039a366004612562565b6108b7565b3480156103ab57600080fd5b506102816103ba366004612504565b610935565b3480156103cb57600080fd5b506004546001600160a01b0316610244565b3480156103e957600080fd5b506102816103f8366004612504565b610a14565b34801561040957600080fd5b506000546001600160a01b0316610244565b34801561042757600080fd5b50610281610abf565b61028161043e3660046126be565b610ef6565b34801561044f57600080fd5b50610331610fc2565b34801561046457600080fd5b50610281610473366004612504565b611075565b34801561048457600080fd5b5061048d6110e7565b6040516102589190612778565b3480156104a657600080fd5b50610331600181565b3480156104bb57600080fd5b506102816111c1565b3480156104d057600080fd5b506102816104df366004612504565b6111f7565b3480156104f057600080fd5b506102a36104ff366004612504565b6001600160a01b031660009081526005602052604090205460ff1690565b34801561052957600080fd5b50610281611269565b34801561053e57600080fd5b506039546001600160a01b0316610244565b34801561055c57600080fd5b5061024461056b3660046127da565b6112f8565b34801561057c57600080fd5b506102a361058b366004612562565b61132a565b34801561059c57600080fd5b506102816105ab366004612504565b611355565b3480156105bc57600080fd5b506002546001600160a01b0316610244565b3480156105da57600080fd5b50610331600081565b3480156105ef57600080fd5b506102816105fe366004612562565b6113c7565b34801561060f57600080fd5b506102816113ec565b34801561062457600080fd5b506103317f65d7a28e3265b37a6474929f336521b332c1681b933f6cb9f3376673440d862a81565b34801561065857600080fd5b50610281610667366004612504565b611888565b34801561067857600080fd5b50610281610687366004612504565b611a74565b34801561069857600080fd5b506102446106a73660046127da565b8051602081830181018051610133825292820191909301209152546001600160a01b031681565b3480156106da57600080fd5b506106ff604051806040016040528060058152602001640312e312e360dc1b81525081565b604051610258919061282b565b6039546001600160a01b0316331461073f5760405162461bcd60e51b81526004016107369061283e565b60405180910390fd5b6001600160a01b0381166107655760405162461bcd60e51b815260040161073690612873565b600280546001600160a01b0319166001600160a01b0392909216919091179055565b60006001600160e01b03198216637965db0b60e01b14806107b857506301ffc9a760e01b6001600160e01b03198316145b92915050565b6000828152609d60205260409020600101546107d981611b1b565b6107e38383611b25565b505050565b61013382826040516107fb929190612899565b908152604051908190036020019020546001600160a01b03166108266039546001600160a01b031690565b6001600160a01b03821633148061084557506001600160a01b03811633145b61088d5760405162461bcd60e51b815260206004820152601960248201527843616c6c6572206973206e6f742074686520666163746f727960381b6044820152606401610736565b5050506001600160a01b039091166000908152600560205260409020805460ff1916600117905550565b6001600160a01b03811633146109275760405162461bcd60e51b815260206004820152602f60248201527f416363657373436f6e74726f6c3a2063616e206f6e6c792072656e6f756e636560448201526e103937b632b9903337b91039b2b63360891b6064820152608401610736565b6109318282611bab565b5050565b6001600160a01b037f000000000000000000000000000000000000000000000000000000000000000016300361097d5760405162461bcd60e51b8152600401610736906128a9565b7f00000000000000000000000000000000000000000000000000000000000000006001600160a01b03166109c6600080516020612bc9833981519152546001600160a01b031690565b6001600160a01b0316146109ec5760405162461bcd60e51b8152600401610736906128f5565b6109f581611c12565b60408051600080825260208201909252610a1191839190611c3c565b50565b6003546001600160a01b0316610a326039546001600160a01b031690565b6001600160a01b038216331480610a5157506001600160a01b03811633145b610a995760405162461bcd60e51b815260206004820152601960248201527843616c6c6572206973206e6f742074686520666163746f727960381b6044820152606401610736565b50506001600160a01b03166000908152600560205260409020805460ff19166001179055565b6039546001600160a01b03163314610ae95760405162461bcd60e51b81526004016107369061283e565b60025460408051635c975abb60e01b815290516001600160a01b03909216918291635c975abb9160048083019260209291908290030181865afa158015610b34573d6000803e3d6000fd5b505050506040513d601f19601f82011682018060405250810190610b589190612941565b15610bb157806001600160a01b0316633f4ba83a6040518163ffffffff1660e01b8152600401600060405180830381600087803b158015610b9857600080fd5b505af1158015610bac573d6000803e3d6000fd5b505050505b60015460408051635c975abb60e01b815290516001600160a01b03909216918291635c975abb9160048083019260209291908290030181865afa158015610bfc573d6000803e3d6000fd5b505050506040513d601f19601f82011682018060405250810190610c209190612941565b15610c7957806001600160a01b0316633f4ba83a6040518163ffffffff1660e01b8152600401600060405180830381600087803b158015610c6057600080fd5b505af1158015610c74573d6000803e3d6000fd5b505050505b60005460408051635c975abb60e01b815290516001600160a01b03909216918291635c975abb9160048083019260209291908290030181865afa158015610cc4573d6000803e3d6000fd5b505050506040513d601f19601f82011682018060405250810190610ce89190612941565b15610d4157806001600160a01b0316633f4ba83a6040518163ffffffff1660e01b8152600401600060405180830381600087803b158015610d2857600080fd5b505af1158015610d3c573d6000803e3d6000fd5b505050505b6101345460005b81811015610eef5760006101348281548110610d6657610d66612963565b906000526020600020018054610d7b90612979565b80601f0160208091040260200160405190810160405280929190818152602001828054610da790612979565b8015610df45780601f10610dc957610100808354040283529160200191610df4565b820191906000526020600020905b815481529060010190602001808311610dd757829003601f168201915b50505050509050600061013382604051610e0e91906129b3565b908152604080516020928190038301812054635c975abb60e01b825291516001600160a01b03909216935083928392635c975abb9260048082019392918290030181865afa158015610e64573d6000803e3d6000fd5b505050506040513d601f19601f82011682018060405250810190610e889190612941565b15610ee157806001600160a01b0316633f4ba83a6040518163ffffffff1660e01b8152600401600060405180830381600087803b158015610ec857600080fd5b505af1158015610edc573d6000803e3d6000fd5b505050505b836001019350505050610d48565b5050505050565b6001600160a01b037f0000000000000000000000000000000000000000000000000000000000000000163003610f3e5760405162461bcd60e51b8152600401610736906128a9565b7f00000000000000000000000000000000000000000000000000000000000000006001600160a01b0316610f87600080516020612bc9833981519152546001600160a01b031690565b6001600160a01b031614610fad5760405162461bcd60e51b8152600401610736906128f5565b610fb682611c12565b61093182826001611c3c565b6000306001600160a01b037f000000000000000000000000000000000000000000000000000000000000000016146110625760405162461bcd60e51b815260206004820152603860248201527f555550535570677261646561626c653a206d757374206e6f742062652063616c60448201527f6c6564207468726f7567682064656c656761746563616c6c00000000000000006064820152608401610736565b50600080516020612bc983398151915290565b6039546001600160a01b0316331461109f5760405162461bcd60e51b81526004016107369061283e565b6001600160a01b0381166110c55760405162461bcd60e51b815260040161073690612873565b600080546001600160a01b0319166001600160a01b0392909216919091179055565b6060610134805480602002602001604051908101604052809291908181526020016000905b828210156111b857838290600052602060002001805461112b90612979565b80601f016020809104026020016040519081016040528092919081815260200182805461115790612979565b80156111a45780601f10611179576101008083540402835291602001916111a4565b820191906000526020600020905b81548152906001019060200180831161118757829003601f168201915b50505050508152602001906001019061110c565b50505050905090565b6039546001600160a01b031633146111eb5760405162461bcd60e51b81526004016107369061283e565b6111f56000611da7565b565b6039546001600160a01b031633146112215760405162461bcd60e51b81526004016107369061283e565b6001600160a01b0381166112475760405162461bcd60e51b815260040161073690612873565b600480546001600160a01b0319166001600160a01b0392909216919091179055565b60006112756001611df9565b9050801561128d576006805461ff0019166101001790555b611295611e88565b61129d611eb7565b6112a5611eb7565b6112b0600033611b25565b8015610a11576006805461ff0019169055604051600181527f7f26b83ff96e1f2b6a682f133852f6798a09c465da95921460cefb38474024989060200160405180910390a150565b60006101338260405161130b91906129b3565b908152604051908190036020019020546001600160a01b031692915050565b6000918252609d602090815260408084206001600160a01b0393909316845291905290205460ff1690565b6039546001600160a01b0316331461137f5760405162461bcd60e51b81526004016107369061283e565b6001600160a01b0381166113a55760405162461bcd60e51b815260040161073690612873565b600180546001600160a01b0319166001600160a01b0392909216919091179055565b6000828152609d60205260409020600101546113e281611b1b565b6107e38383611bab565b6114167f65d7a28e3265b37a6474929f336521b332c1681b933f6cb9f3376673440d862a3361132a565b8061143a57503361142f6039546001600160a01b031690565b6001600160a01b0316145b6114865760405162461bcd60e51b815260206004820152601860248201527f43616c6c6572206973206e6f7420617574686f72697a656400000000000000006044820152606401610736565b60025460408051635c975abb60e01b815290516001600160a01b03909216918291635c975abb9160048083019260209291908290030181865afa1580156114d1573d6000803e3d6000fd5b505050506040513d601f19601f820116820180604052508101906114f59190612941565b61154d57806001600160a01b0316638456cb596040518163ffffffff1660e01b8152600401600060405180830381600087803b15801561153457600080fd5b505af1158015611548573d6000803e3d6000fd5b505050505b60015460408051635c975abb60e01b815290516001600160a01b03909216918291635c975abb9160048083019260209291908290030181865afa158015611598573d6000803e3d6000fd5b505050506040513d601f19601f820116820180604052508101906115bc9190612941565b61161457806001600160a01b0316638456cb596040518163ffffffff1660e01b8152600401600060405180830381600087803b1580156115fb57600080fd5b505af115801561160f573d6000803e3d6000fd5b505050505b60005460408051635c975abb60e01b815290516001600160a01b03909216918291635c975abb9160048083019260209291908290030181865afa15801561165f573d6000803e3d6000fd5b505050506040513d601f19601f820116820180604052508101906116839190612941565b6116db57806001600160a01b0316638456cb596040518163ffffffff1660e01b8152600401600060405180830381600087803b1580156116c257600080fd5b505af11580156116d6573d6000803e3d6000fd5b505050505b6101345460005b81811015610eef576000610134828154811061170057611700612963565b90600052602060002001805461171590612979565b80601f016020809104026020016040519081016040528092919081815260200182805461174190612979565b801561178e5780601f106117635761010080835404028352916020019161178e565b820191906000526020600020905b81548152906001019060200180831161177157829003601f168201915b505050505090506000610133826040516117a891906129b3565b908152604080516020928190038301812054635c975abb60e01b825291516001600160a01b03909216935083928392635c975abb9260048082019392918290030181865afa1580156117fe573d6000803e3d6000fd5b505050506040513d601f19601f820116820180604052508101906118229190612941565b61187a57806001600160a01b0316638456cb596040518163ffffffff1660e01b8152600401600060405180830381600087803b15801561186157600080fd5b505af1158015611875573d6000803e3d6000fd5b505050505b8360010193505050506116e2565b6039546001600160a01b031633146118b25760405162461bcd60e51b81526004016107369061283e565b6001600160a01b0381166118d85760405162461bcd60e51b815260040161073690612873565b6000816001600160a01b0316633c31175e6040518163ffffffff1660e01b81526004016000604051808303816000875af115801561191a573d6000803e3d6000fd5b505050506040513d6000823e601f3d908101601f1916820160405261194291908101906129cf565b905080516000036119955760405162461bcd60e51b815260206004820152601760248201527f456d707479207374616e646172642072656769737472790000000000000000006044820152606401610736565b61199e81611ede565b6119e857610134805460018101825560009190915281516119e6917fe1c588fe1269da19c317f679b04e226f5e48296f9b2c8351127eb010907c472f01906020840190612454565b505b81610133826040516119fa91906129b3565b90815260405190819003602001812080546001600160a01b03939093166001600160a01b031990931692909217909155611a359082906129b3565b604051908190038120906001600160a01b038416907f330abee6414b34f936df7009380419f0583327419d70619b3e543b1cb26d3a1590600090a35050565b6039546001600160a01b03163314611a9e5760405162461bcd60e51b81526004016107369061283e565b6001600160a01b038116611b035760405162461bcd60e51b815260206004820152602660248201527f4f776e61626c653a206e6577206f776e657220697320746865207a65726f206160448201526564647265737360d01b6064820152608401610736565b610a1181611da7565b6001600160a01b03163b151590565b610a118133611fc9565b611b2f828261132a565b610931576000828152609d602090815260408083206001600160a01b03851684529091529020805460ff19166001179055611b673390565b6001600160a01b0316816001600160a01b0316837f2f8788117e7eff1d82e926ec794901d17c78024a50270940304540a733656f0d60405160405180910390a45050565b611bb5828261132a565b15610931576000828152609d602090815260408083206001600160a01b0385168085529252808320805460ff1916905551339285917ff6391f5c32d9c69d2a47ea670b442974b53935d1edc7fd64eb21e047a839171b9190a45050565b6039546001600160a01b03163314610a115760405162461bcd60e51b81526004016107369061283e565b7f4910fdfa16fed3260ed0e7147f7cc6da11a60208b5b9406d12a635614ffd91435460ff1615611c6f576107e38361202d565b826001600160a01b03166352d1902d6040518163ffffffff1660e01b8152600401602060405180830381865afa925050508015611cc9575060408051601f3d908101601f19168201909252611cc691810190612a3d565b60015b611d2c5760405162461bcd60e51b815260206004820152602e60248201527f45524331393637557067726164653a206e657720696d706c656d656e7461746960448201526d6f6e206973206e6f74205555505360901b6064820152608401610736565b600080516020612bc98339815191528114611d9b5760405162461bcd60e51b815260206004820152602960248201527f45524331393637557067726164653a20756e737570706f727465642070726f786044820152681a58589b195555525160ba1b6064820152608401610736565b506107e38383836120c9565b603980546001600160a01b038381166001600160a01b0319831681179093556040519116919082907f8be0079c531659141344cd1fd0a4f28419497f9722a3daafe3b4186f6b6457e090600090a35050565b600654600090610100900460ff1615611e42578160ff166001148015611e1e5750303b155b611e3a5760405162461bcd60e51b815260040161073690612a56565b506000919050565b60065460ff808416911610611e695760405162461bcd60e51b815260040161073690612a56565b506006805460ff191660ff92909216919091179055600190565b919050565b600654610100900460ff16611eaf5760405162461bcd60e51b815260040161073690612aa4565b6111f56120f4565b600654610100900460ff166111f55760405162461bcd60e51b815260040161073690612aa4565b61013454600090815b81811015611fbf57611fa8846101348381548110611f0757611f07612963565b906000526020600020018054611f1c90612979565b80601f0160208091040260200160405190810160405280929190818152602001828054611f4890612979565b8015611f955780601f10611f6a57610100808354040283529160200191611f95565b820191906000526020600020905b815481529060010190602001808311611f7857829003601f168201915b505050505061212490919063ffffffff16565b15611fb7575060019392505050565b600101611ee7565b5060009392505050565b611fd3828261132a565b61093157611feb816001600160a01b0316601461214b565b611ff683602061214b565b604051602001612007929190612aef565b60408051601f198184030181529082905262461bcd60e51b82526107369160040161282b565b6001600160a01b0381163b61209a5760405162461bcd60e51b815260206004820152602d60248201527f455243313936373a206e657720696d706c656d656e746174696f6e206973206e60448201526c1bdd08184818dbdb9d1c9858dd609a1b6064820152608401610736565b600080516020612bc983398151915280546001600160a01b0319166001600160a01b0392909216919091179055565b6120d2836122e7565b6000825111806120df5750805b156107e3576120ee8383612327565b50505050565b600654610100900460ff1661211b5760405162461bcd60e51b815260040161073690612aa4565b6111f533611da7565b600081518351148015612144575081805190602001208380519060200120145b9392505050565b6060600061215a836002612b7a565b612165906002612b99565b67ffffffffffffffff81111561217d5761217d612611565b6040519080825280601f01601f1916602001820160405280156121a7576020820181803683370190505b509050600360fc1b816000815181106121c2576121c2612963565b60200101906001600160f81b031916908160001a905350600f60fb1b816001815181106121f1576121f1612963565b60200101906001600160f81b031916908160001a9053506000612215846002612b7a565b612220906001612b99565b90505b6001811115612298576f181899199a1a9b1b9c1cb0b131b232b360811b85600f166010811061225457612254612963565b1a60f81b82828151811061226a5761226a612963565b60200101906001600160f81b031916908160001a90535060049490941c9361229181612bb1565b9050612223565b5083156121445760405162461bcd60e51b815260206004820181905260248201527f537472696e67733a20686578206c656e67746820696e73756666696369656e746044820152606401610736565b6122f08161202d565b6040516001600160a01b038216907fbc7cd75a20ee27fd9adebab32041f755214dbc6bffa90cc0225b39da2e5c2d3b90600090a250565b60606001600160a01b0383163b61238f5760405162461bcd60e51b815260206004820152602660248201527f416464726573733a2064656c65676174652063616c6c20746f206e6f6e2d636f6044820152651b9d1c9858dd60d21b6064820152608401610736565b600080846001600160a01b0316846040516123aa91906129b3565b600060405180830381855af49150503d80600081146123e5576040519150601f19603f3d011682016040523d82523d6000602084013e6123ea565b606091505b50915091506124128282604051806060016040528060278152602001612be96027913961241b565b95945050505050565b6060831561242a575081612144565b82511561243a5782518084602001fd5b8160405162461bcd60e51b8152600401610736919061282b565b82805461246090612979565b90600052602060002090601f01602090048101928261248257600085556124c8565b82601f1061249b57805160ff19168380011785556124c8565b828001600101855582156124c8579182015b828111156124c85782518255916020019190600101906124ad565b506124d49291506124d8565b5090565b5b808211156124d457600081556001016124d9565b80356001600160a01b0381168114611e8357600080fd5b60006020828403121561251657600080fd5b612144826124ed565b60006020828403121561253157600080fd5b81356001600160e01b03198116811461214457600080fd5b60006020828403121561255b57600080fd5b5035919050565b6000806040838503121561257557600080fd5b82359150612585602084016124ed565b90509250929050565b6000806000604084860312156125a357600080fd5b6125ac846124ed565b9250602084013567ffffffffffffffff808211156125c957600080fd5b818601915086601f8301126125dd57600080fd5b8135818111156125ec57600080fd5b8760208285010111156125fe57600080fd5b6020830194508093505050509250925092565b634e487b7160e01b600052604160045260246000fd5b604051601f8201601f1916810167ffffffffffffffff8111828210171561265057612650612611565b604052919050565b600067ffffffffffffffff82111561267257612672612611565b50601f01601f191660200190565b600061269361268e84612658565b612627565b90508281528383830111156126a757600080fd5b828260208301376000602084830101529392505050565b600080604083850312156126d157600080fd5b6126da836124ed565b9150602083013567ffffffffffffffff8111156126f657600080fd5b8301601f8101851361270757600080fd5b61271685823560208401612680565b9150509250929050565b60005b8381101561273b578181015183820152602001612723565b838111156120ee5750506000910152565b60008151808452612764816020860160208601612720565b601f01601f19169290920160200192915050565b6000602080830181845280855180835260408601915060408160051b870101925083870160005b828110156127cd57603f198886030184526127bb85835161274c565b9450928501929085019060010161279f565b5092979650505050505050565b6000602082840312156127ec57600080fd5b813567ffffffffffffffff81111561280357600080fd5b8201601f8101841361281457600080fd5b61282384823560208401612680565b949350505050565b602081526000612144602083018461274c565b6020808252818101527f4f776e61626c653a2063616c6c6572206973206e6f7420746865206f776e6572604082015260600190565b6020808252600c908201526b5a65726f206164647265737360a01b604082015260600190565b8183823760009101908152919050565b6020808252602c908201527f46756e6374696f6e206d7573742062652063616c6c6564207468726f7567682060408201526b19195b1959d85d1958d85b1b60a21b606082015260800190565b6020808252602c908201527f46756e6374696f6e206d7573742062652063616c6c6564207468726f7567682060408201526b6163746976652070726f787960a01b606082015260800190565b60006020828403121561295357600080fd5b8151801515811461214457600080fd5b634e487b7160e01b600052603260045260246000fd5b600181811c9082168061298d57607f821691505b6020821081036129ad57634e487b7160e01b600052602260045260246000fd5b50919050565b600082516129c5818460208701612720565b9190910192915050565b6000602082840312156129e157600080fd5b815167ffffffffffffffff8111156129f857600080fd5b8201601f81018413612a0957600080fd5b8051612a1761268e82612658565b818152856020838501011115612a2c57600080fd5b612412826020830160208601612720565b600060208284031215612a4f57600080fd5b5051919050565b6020808252602e908201527f496e697469616c697a61626c653a20636f6e747261637420697320616c72656160408201526d191e481a5b9a5d1a585b1a5e995960921b606082015260800190565b6020808252602b908201527f496e697469616c697a61626c653a20636f6e7472616374206973206e6f74206960408201526a6e697469616c697a696e6760a81b606082015260800190565b7f416363657373436f6e74726f6c3a206163636f756e7420000000000000000000815260008351612b27816017850160208801612720565b7001034b99036b4b9b9b4b733903937b6329607d1b6017918401918201528351612b58816028840160208801612720565b01602801949350505050565b634e487b7160e01b600052601160045260246000fd5b6000816000190483118215151615612b9457612b94612b64565b500290565b60008219821115612bac57612bac612b64565b500190565b600081612bc057612bc0612b64565b50600019019056fe360894a13ba1a3210667c828492db98dca3e2076cc3735a920a3ca505d382bbc416464726573733a206c6f772d6c6576656c2064656c65676174652063616c6c206661696c6564a2646970667358221220a634f67ec8779355acd64773b7e9dd71424a7346c9b545daaaad034fb73f16f064736f6c634300080e0033496e697469616c697a61626c653a20636f6e747261637420697320616c726561",
  "devdoc": {
    "details": "The ToucanContractRegistry is queried by other contracts for current addresses",
    "kind": "dev",
    "methods": {
      "constructor": {
        "custom:oz-upgrades-unsafe-allow": "constructor"
      },
      "getRoleAdmin(bytes32)": {
        "details": "Returns the admin role that controls `role`. See {grantRole} and {revokeRole}. To change a role's admin, use {_setRoleAdmin}."
      },
      "grantRole(bytes32,address)": {
        "details": "Grants `role` to `account`. If `account` had not been already granted `role`, emits a {RoleGranted} event. Requirements: - the caller must have ``role``'s admin role."
      },
      "hasRole(bytes32,address)": {
        "details": "Returns `true` if `account` has been granted `role`."
      },
      "owner()": {
        "details": "Returns the address of the current owner."
      },
      "proxiableUUID()": {
        "details": "Implementation of the ERC1822 {proxiableUUID} function. This returns the storage slot used by the implementation. It is used to validate that the this implementation remains valid after an upgrade. IMPORTANT: A proxy pointing at a proxiable contract should not be considered proxiable itself, because this risks bricking a proxy that upgrades to it, by delegating to itself until out of gas. Thus it is critical that this function revert if invoked through a proxy. This is guaranteed by the `notDelegated` modifier."
      },
      "renounceOwnership()": {
        "details": "Leaves the contract without owner. It will not be possible to call `onlyOwner` functions anymore. Can only be called by the current owner. NOTE: Renouncing ownership will leave the contract without an owner, thereby removing any functionality that is only available to the owner."
      },
      "renounceRole(bytes32,address)": {
        "details": "Revokes `role` from the calling account. Roles are often managed via {grantRole} and {revokeRole}: this function's purpose is to provide a mechanism for accounts to lose their privileges if they are compromised (such as when a trusted device is misplaced). If the calling account had been revoked `role`, emits a {RoleRevoked} event. Requirements: - the caller must be `account`."
      },
      "revokeRole(bytes32,address)": {
        "details": "Revokes `role` from `account`. If `account` had been granted `role`, emits a {RoleRevoked} event. Requirements: - the caller must have ``role``'s admin role."
      },
      "supportsInterface(bytes4)": {
        "details": "See {IERC165-supportsInterface}."
      },
      "toucanCarbonOffsetsFactoryAddress(string)": {
        "details": "return the TCO2 factory address for the provided standard"
      },
      "transferOwnership(address)": {
        "details": "Transfers ownership of the contract to a new account (`newOwner`). Can only be called by the current owner."
      },
      "upgradeTo(address)": {
        "details": "Upgrade the implementation of the proxy to `newImplementation`. Calls {_authorizeUpgrade}. Emits an {Upgraded} event."
      },
      "upgradeToAndCall(address,bytes)": {
        "details": "Upgrade the implementation of the proxy to `newImplementation`, and subsequently execute the function call encoded in `data`. Calls {_authorizeUpgrade}. Emits an {Upgraded} event."
      }
    },
    "stateVariables": {
      "PAUSER_ROLE": {
        "details": "All roles related to accessing this contract"
      },
      "VERSION": {
        "details": "Version-related parameters. VERSION keeps track of production releases. VERSION_RELEASE_CANDIDATE keeps track of iterations of a VERSION in our staging environment."
      }
    },
    "version": 1
  },
  "userdoc": {
    "kind": "user",
    "methods": {
      "addERC20(address)": {
        "notice": "Add valid TCO2 contracts for Verra TODO: Kept for backwards-compatibility; will be removed in a future upgrade in favor of addERC20(erc20, 'verra')"
      },
      "addERC20(address,string)": {
        "notice": "Keep track of TCO2s per standard"
      },
      "carbonOffsetBadgesAddress()": {
        "notice": "TODO: Remove in a future upgrade now that we have retirementCertificatesAddress"
      },
      "checkERC20(address)": {
        "notice": "TODO: Kept for backwards-compatibility; will be removed in a future upgrade in favor of isValidERC20(erc20)"
      },
      "pauseSystem()": {
        "notice": "security function that pauses all contracts part of the carbon bridge"
      },
      "toucanCarbonOffsetFactories(string)": {
        "notice": "map of standard registries to tco2 factory addresses"
      },
      "toucanCarbonOffsetsFactoryAddress()": {
        "notice": "Returns the TCO2 factory for Verra TODO: Kept for backwards-compatibility; will be removed in a future upgrade in favor of toucanCarbonOffsetsFactory('verra')"
      },
      "unpauseSystem()": {
        "notice": "security function that unpauses all contracts part of the carbon bridge"
      }
    },
    "version": 1
  },
  "storageLayout": {
    "storage": [
      {
        "astId": 12957,
        "contract": "contracts/ToucanContractRegistry.sol:ToucanContractRegistry",
        "label": "_carbonOffsetBatchesAddress",
        "offset": 0,
        "slot": "0",
        "type": "t_address"
      },
      {
        "astId": 12959,
        "contract": "contracts/ToucanContractRegistry.sol:ToucanContractRegistry",
        "label": "_carbonProjectsAddress",
        "offset": 0,
        "slot": "1",
        "type": "t_address"
      },
      {
        "astId": 12961,
        "contract": "contracts/ToucanContractRegistry.sol:ToucanContractRegistry",
        "label": "_carbonProjectVintagesAddress",
        "offset": 0,
        "slot": "2",
        "type": "t_address"
      },
      {
        "astId": 12963,
        "contract": "contracts/ToucanContractRegistry.sol:ToucanContractRegistry",
        "label": "DEPRECATED_toucanCarbonOffsetsFactoryAddress",
        "offset": 0,
        "slot": "3",
        "type": "t_address"
      },
      {
        "astId": 12965,
        "contract": "contracts/ToucanContractRegistry.sol:ToucanContractRegistry",
        "label": "_retirementCertificatesAddress",
        "offset": 0,
        "slot": "4",
        "type": "t_address"
      },
      {
        "astId": 12969,
        "contract": "contracts/ToucanContractRegistry.sol:ToucanContractRegistry",
        "label": "projectVintageERC20Registry",
        "offset": 0,
        "slot": "5",
        "type": "t_mapping(t_address,t_bool)"
      },
      {
        "astId": 1489,
        "contract": "contracts/ToucanContractRegistry.sol:ToucanContractRegistry",
        "label": "_initialized",
        "offset": 0,
        "slot": "6",
        "type": "t_uint8"
      },
      {
        "astId": 1492,
        "contract": "contracts/ToucanContractRegistry.sol:ToucanContractRegistry",
        "label": "_initializing",
        "offset": 1,
        "slot": "6",
        "type": "t_bool"
      },
      {
        "astId": 4593,
        "contract": "contracts/ToucanContractRegistry.sol:ToucanContractRegistry",
        "label": "__gap",
        "offset": 0,
        "slot": "7",
        "type": "t_array(t_uint256)50_storage"
      },
      {
        "astId": 980,
        "contract": "contracts/ToucanContractRegistry.sol:ToucanContractRegistry",
        "label": "_owner",
        "offset": 0,
        "slot": "57",
        "type": "t_address"
      },
      {
        "astId": 1092,
        "contract": "contracts/ToucanContractRegistry.sol:ToucanContractRegistry",
        "label": "__gap",
        "offset": 0,
        "slot": "58",
        "type": "t_array(t_uint256)49_storage"
      },
      {
        "astId": 4900,
        "contract": "contracts/ToucanContractRegistry.sol:ToucanContractRegistry",
        "label": "__gap",
        "offset": 0,
        "slot": "107",
        "type": "t_array(t_uint256)50_storage"
      },
      {
        "astId": 596,
        "contract": "contracts/ToucanContractRegistry.sol:ToucanContractRegistry",
        "label": "_roles",
        "offset": 0,
        "slot": "157",
        "type": "t_mapping(t_bytes32,t_struct(RoleData)591_storage)"
      },
      {
        "astId": 895,
        "contract": "contracts/ToucanContractRegistry.sol:ToucanContractRegistry",
        "label": "__gap",
        "offset": 0,
        "slot": "158",
        "type": "t_array(t_uint256)49_storage"
      },
      {
        "astId": 1471,
        "contract": "contracts/ToucanContractRegistry.sol:ToucanContractRegistry",
        "label": "__gap",
        "offset": 0,
        "slot": "207",
        "type": "t_array(t_uint256)50_storage"
      },
      {
        "astId": 1759,
        "contract": "contracts/ToucanContractRegistry.sol:ToucanContractRegistry",
        "label": "__gap",
        "offset": 0,
        "slot": "257",
        "type": "t_array(t_uint256)50_storage"
      },
      {
        "astId": 12975,
        "contract": "contracts/ToucanContractRegistry.sol:ToucanContractRegistry",
        "label": "toucanCarbonOffsetFactories",
        "offset": 0,
        "slot": "307",
        "type": "t_mapping(t_string_memory_ptr,t_address)"
      },
      {
        "astId": 12979,
        "contract": "contracts/ToucanContractRegistry.sol:ToucanContractRegistry",
        "label": "standardRegistries",
        "offset": 0,
        "slot": "308",
        "type": "t_array(t_string_storage)dyn_storage"
      }
    ],
    "types": {
      "t_address": {
        "encoding": "inplace",
        "label": "address",
        "numberOfBytes": "20"
      },
      "t_array(t_string_storage)dyn_storage": {
        "base": "t_string_storage",
        "encoding": "dynamic_array",
        "label": "string[]",
        "numberOfBytes": "32"
      },
      "t_array(t_uint256)49_storage": {
        "base": "t_uint256",
        "encoding": "inplace",
        "label": "uint256[49]",
        "numberOfBytes": "1568"
      },
      "t_array(t_uint256)50_storage": {
        "base": "t_uint256",
        "encoding": "inplace",
        "label": "uint256[50]",
        "numberOfBytes": "1600"
      },
      "t_bool": {
        "encoding": "inplace",
        "label": "bool",
        "numberOfBytes": "1"
      },
      "t_bytes32": {
        "encoding": "inplace",
        "label": "bytes32",
        "numberOfBytes": "32"
      },
      "t_mapping(t_address,t_bool)": {
        "encoding": "mapping",
        "key": "t_address",
        "label": "mapping(address => bool)",
        "numberOfBytes": "32",
        "value": "t_bool"
      },
      "t_mapping(t_bytes32,t_struct(RoleData)591_storage)": {
        "encoding": "mapping",
        "key": "t_bytes32",
        "label": "mapping(bytes32 => struct AccessControlUpgradeable.RoleData)",
        "numberOfBytes": "32",
        "value": "t_struct(RoleData)591_storage"
      },
      "t_mapping(t_string_memory_ptr,t_address)": {
        "encoding": "mapping",
        "key": "t_string_memory_ptr",
        "label": "mapping(string => address)",
        "numberOfBytes": "32",
        "value": "t_address"
      },
      "t_string_memory_ptr": {
        "encoding": "bytes",
        "label": "string",
        "numberOfBytes": "32"
      },
      "t_string_storage": {
        "encoding": "bytes",
        "label": "string",
        "numberOfBytes": "32"
      },
      "t_struct(RoleData)591_storage": {
        "encoding": "inplace",
        "label": "struct AccessControlUpgradeable.RoleData",
        "members": [
          {
            "astId": 588,
            "contract": "contracts/ToucanContractRegistry.sol:ToucanContractRegistry",
            "label": "members",
            "offset": 0,
            "slot": "0",
            "type": "t_mapping(t_address,t_bool)"
          },
          {
            "astId": 590,
            "contract": "contracts/ToucanContractRegistry.sol:ToucanContractRegistry",
            "label": "adminRole",
            "offset": 0,
            "slot": "1",
            "type": "t_bytes32"
          }
        ],
        "numberOfBytes": "64"
      },
      "t_uint256": {
        "encoding": "inplace",
        "label": "uint256",
        "numberOfBytes": "32"
      },
      "t_uint8": {
        "encoding": "inplace",
        "label": "uint8",
        "numberOfBytes": "1"
      }
    }
  }
}