{
  "address": "0x6e2c8cDaE11c6A470E5993041DBC0F4472e3880E",
  "abi": [
    {
      "anonymous": false,
      "inputs": [
        {
          "indexed": false,
          "internalType": "address",
          "name": "account",
          "type": "address"
        }
      ],
      "name": "AddedToAllowedBridges",
      "type": "event"
    },
    {
      "anonymous": false,
      "inputs": [
        {
          "indexed": false,
          "internalType": "address",
          "name": "previousAdmin",
          "type": "address"
        },
        {
          "indexed": false,
          "internalType": "address",
          "name": "newAdmin",
          "type": "address"
        }
      ],
      "name": "AdminChanged",
      "type": "event"
    },
    {
      "anonymous": false,
      "inputs": [
        {
          "indexed": true,
          "internalType": "address",
          "name": "beacon",
          "type": "address"
        }
      ],
      "name": "BeaconUpgraded",
      "type": "event"
    },
    {
      "anonymous": false,
      "inputs": [
        {
          "indexed": false,
          "internalType": "uint8",
          "name": "version",
          "type": "uint8"
        }
      ],
      "name": "Initialized",
      "type": "event"
    },
    {
      "anonymous": false,
      "inputs": [
        {
          "indexed": true,
          "internalType": "address",
          "name": "previousOwner",
          "type": "address"
        },
        {
          "indexed": true,
          "internalType": "address",
          "name": "newOwner",
          "type": "address"
        }
      ],
      "name": "OwnershipTransferred",
      "type": "event"
    },
    {
      "anonymous": false,
      "inputs": [
        {
          "indexed": false,
          "internalType": "address",
          "name": "account",
          "type": "address"
        }
      ],
      "name": "Paused",
      "type": "event"
    },
    {
      "anonymous": false,
      "inputs": [
        {
          "indexed": false,
          "internalType": "address",
          "name": "account",
          "type": "address"
        }
      ],
      "name": "RemovedFromallowedBridges",
      "type": "event"
    },
    {
      "anonymous": false,
      "inputs": [
        {
          "indexed": false,
          "internalType": "uint256",
          "name": "vintageTokenId",
          "type": "uint256"
        },
        {
          "indexed": false,
          "internalType": "address",
          "name": "tokenAddress",
          "type": "address"
        }
      ],
      "name": "TokenCreated",
      "type": "event"
    },
    {
      "anonymous": false,
      "inputs": [
        {
          "indexed": false,
          "internalType": "address",
          "name": "account",
          "type": "address"
        }
      ],
      "name": "Unpaused",
      "type": "event"
    },
    {
      "anonymous": false,
      "inputs": [
        {
          "indexed": true,
          "internalType": "address",
          "name": "implementation",
          "type": "address"
        }
      ],
      "name": "Upgraded",
      "type": "event"
    },
    {
      "inputs": [],
      "name": "VERSION",
      "outputs": [
        {
          "internalType": "string",
          "name": "",
          "type": "string"
        }
      ],
      "stateMutability": "view",
      "type": "function"
    },
    {
      "inputs": [],
      "name": "VERSION_RELEASE_CANDIDATE",
      "outputs": [
        {
          "internalType": "uint256",
          "name": "",
          "type": "uint256"
        }
      ],
      "stateMutability": "view",
      "type": "function"
    },
    {
      "inputs": [
        {
          "internalType": "address",
          "name": "account",
          "type": "address"
        }
      ],
      "name": "addToAllowedBridges",
      "outputs": [],
      "stateMutability": "nonpayable",
      "type": "function"
    },
    {
      "inputs": [
        {
          "internalType": "address",
          "name": "",
          "type": "address"
        }
      ],
      "name": "allowedBridges",
      "outputs": [
        {
          "internalType": "bool",
          "name": "",
          "type": "bool"
        }
      ],
      "stateMutability": "view",
      "type": "function"
    },
    {
      "inputs": [],
      "name": "beacon",
      "outputs": [
        {
          "internalType": "address",
          "name": "",
          "type": "address"
        }
      ],
      "stateMutability": "view",
      "type": "function"
    },
    {
      "inputs": [],
      "name": "bridgeFeeBurnAddress",
      "outputs": [
        {
          "internalType": "address",
          "name": "",
          "type": "address"
        }
      ],
      "stateMutability": "view",
      "type": "function"
    },
    {
      "inputs": [],
      "name": "bridgeFeeBurnPercentageInBase",
      "outputs": [
        {
          "internalType": "uint256",
          "name": "",
          "type": "uint256"
        }
      ],
      "stateMutability": "view",
      "type": "function"
    },
    {
      "inputs": [],
      "name": "bridgeFeeDivider",
      "outputs": [
        {
          "internalType": "uint256",
          "name": "",
          "type": "uint256"
        }
      ],
      "stateMutability": "view",
      "type": "function"
    },
    {
      "inputs": [],
      "name": "bridgeFeePercentageInBase",
      "outputs": [
        {
          "internalType": "uint256",
          "name": "",
          "type": "uint256"
        }
      ],
      "stateMutability": "view",
      "type": "function"
    },
    {
      "inputs": [],
      "name": "bridgeFeeReceiver",
      "outputs": [
        {
          "internalType": "address",
          "name": "",
          "type": "address"
        }
      ],
      "stateMutability": "view",
      "type": "function"
    },
    {
      "inputs": [],
      "name": "bridgeFeeReceiverAddress",
      "outputs": [
        {
          "internalType": "address",
          "name": "",
          "type": "address"
        }
      ],
      "stateMutability": "view",
      "type": "function"
    },
    {
      "inputs": [],
      "name": "contractRegistry",
      "outputs": [
        {
          "internalType": "address",
          "name": "",
          "type": "address"
        }
      ],
      "stateMutability": "view",
      "type": "function"
    },
    {
      "inputs": [
        {
          "internalType": "uint256",
          "name": "projectVintageTokenId",
          "type": "uint256"
        }
      ],
      "name": "deployFromVintage",
      "outputs": [],
      "stateMutability": "nonpayable",
      "type": "function"
    },
    {
      "inputs": [
        {
          "internalType": "uint256",
          "name": "",
          "type": "uint256"
        }
      ],
      "name": "deployedContracts",
      "outputs": [
        {
          "internalType": "address",
          "name": "",
          "type": "address"
        }
      ],
      "stateMutability": "view",
      "type": "function"
    },
    {
      "inputs": [
        {
          "internalType": "uint256",
          "name": "_quantity",
          "type": "uint256"
        }
      ],
      "name": "getBridgeFeeAndBurnAmount",
      "outputs": [
        {
          "internalType": "uint256",
          "name": "",
          "type": "uint256"
        },
        {
          "internalType": "uint256",
          "name": "",
          "type": "uint256"
        }
      ],
      "stateMutability": "view",
      "type": "function"
    },
    {
      "inputs": [],
      "name": "getContracts",
      "outputs": [
        {
          "internalType": "address[]",
          "name": "",
          "type": "address[]"
        }
      ],
      "stateMutability": "view",
      "type": "function"
    },
    {
      "inputs": [
        {
          "internalType": "uint256",
          "name": "amount",
          "type": "uint256"
        }
      ],
      "name": "increaseTotalRetired",
      "outputs": [],
      "stateMutability": "nonpayable",
      "type": "function"
    },
    {
      "inputs": [
        {
          "internalType": "address",
          "name": "_contractRegistry",
          "type": "address"
        }
      ],
      "name": "initialize",
      "outputs": [],
      "stateMutability": "nonpayable",
      "type": "function"
    },
    {
      "inputs": [],
      "name": "owner",
      "outputs": [
        {
          "internalType": "address",
          "name": "",
          "type": "address"
        }
      ],
      "stateMutability": "view",
      "type": "function"
    },
    {
      "inputs": [],
      "name": "pause",
      "outputs": [],
      "stateMutability": "nonpayable",
      "type": "function"
    },
    {
      "inputs": [],
      "name": "paused",
      "outputs": [
        {
          "internalType": "bool",
          "name": "",
          "type": "bool"
        }
      ],
      "stateMutability": "view",
      "type": "function"
    },
    {
      "inputs": [],
      "name": "proxiableUUID",
      "outputs": [
        {
          "internalType": "bytes32",
          "name": "",
          "type": "bytes32"
        }
      ],
      "stateMutability": "view",
      "type": "function"
    },
    {
      "inputs": [
        {
          "internalType": "uint256",
          "name": "",
          "type": "uint256"
        }
      ],
      "name": "pvIdtoERC20",
      "outputs": [
        {
          "internalType": "address",
          "name": "",
          "type": "address"
        }
      ],
      "stateMutability": "view",
      "type": "function"
    },
    {
      "inputs": [
        {
          "internalType": "address",
          "name": "account",
          "type": "address"
        }
      ],
      "name": "removeFromAllowedBridges",
      "outputs": [],
      "stateMutability": "nonpayable",
      "type": "function"
    },
    {
      "inputs": [],
      "name": "renounceOwnership",
      "outputs": [],
      "stateMutability": "nonpayable",
      "type": "function"
    },
    {
      "inputs": [
        {
          "internalType": "address",
          "name": "_beacon",
          "type": "address"
        }
      ],
      "name": "setBeacon",
      "outputs": [],
      "stateMutability": "nonpayable",
      "type": "function"
    },
    {
      "inputs": [
        {
          "internalType": "address",
          "name": "_bridgeFeeBurnAddress",
          "type": "address"
        }
      ],
      "name": "setBridgeFeeBurnAddress",
      "outputs": [],
      "stateMutability": "nonpayable",
      "type": "function"
    },
    {
      "inputs": [
        {
          "internalType": "uint256",
          "name": "_bridgeFeeBurnPercentageInBase",
          "type": "uint256"
        }
      ],
      "name": "setBridgeFeeBurnPercentage",
      "outputs": [],
      "stateMutability": "nonpayable",
      "type": "function"
    },
    {
      "inputs": [
        {
          "internalType": "uint256",
          "name": "_bridgeFeePercentageInBase",
          "type": "uint256"
        }
      ],
      "name": "setBridgeFeePercentage",
      "outputs": [],
      "stateMutability": "nonpayable",
      "type": "function"
    },
    {
      "inputs": [
        {
          "internalType": "address",
          "name": "_bridgeFeeReceiver",
          "type": "address"
        }
      ],
      "name": "setBridgeFeeReceiver",
      "outputs": [],
      "stateMutability": "nonpayable",
      "type": "function"
    },
    {
      "inputs": [
        {
          "internalType": "address",
          "name": "_address",
          "type": "address"
        }
      ],
      "name": "setToucanContractRegistry",
      "outputs": [],
      "stateMutability": "nonpayable",
      "type": "function"
    },
    {
      "inputs": [],
      "name": "standardRegistry",
      "outputs": [
        {
          "internalType": "string",
          "name": "",
          "type": "string"
        }
      ],
      "stateMutability": "pure",
      "type": "function"
    },
    {
      "inputs": [],
      "name": "supportedStandards",
      "outputs": [
        {
          "internalType": "string[]",
          "name": "",
          "type": "string[]"
        }
      ],
      "stateMutability": "pure",
      "type": "function"
    },
    {
      "inputs": [],
      "name": "totalRetired",
      "outputs": [
        {
          "internalType": "uint256",
          "name": "",
          "type": "uint256"
        }
      ],
      "stateMutability": "view",
      "type": "function"
    },
    {
      "inputs": [
        {
          "internalType": "address",
          "name": "newOwner",
          "type": "address"
        }
      ],
      "name": "transferOwnership",
      "outputs": [],
      "stateMutability": "nonpayable",
      "type": "function"
    },
    {
      "inputs": [],
      "name": "unpause",
      "outputs": [],
      "stateMutability": "nonpayable",
      "type": "function"
    },
    {
      "inputs": [
        {
          "internalType": "address",
          "name": "newImplementation",
          "type": "address"
        }
      ],
      "name": "upgradeTo",
      "outputs": [],
      "stateMutability": "nonpayable",
      "type": "function"
    },
    {
      "inputs": [
        {
          "internalType": "address",
          "name": "newImplementation",
          "type": "address"
        },
        {
          "internalType": "bytes",
          "name": "data",
          "type": "bytes"
        }
      ],
      "name": "upgradeToAndCall",
      "outputs": [],
      "stateMutability": "payable",
      "type": "function"
    }
  ],
  "numDeployments": 2,
  "solcInputHash": "dc0ee1b6b343fbee6f8a2701b6ad40d7",
  "bytecode": "0x60a0604052306080523480156200001557600080fd5b506200002062000026565b62000158565b6200003260ff62000035565b50565b600354600090610100900460ff1615620000d0578160ff1660011480156200007057506200006e306200014960201b620013841760201c565b155b620000c85760405162461bcd60e51b815260206004820152602e6024820152600080516020620036f783398151915260448201526d191e481a5b9a5d1a585b1a5e995960921b60648201526084015b60405180910390fd5b506000919050565b60035460ff8084169116106200012f5760405162461bcd60e51b815260206004820152602e6024820152600080516020620036f783398151915260448201526d191e481a5b9a5d1a585b1a5e995960921b6064820152608401620000bf565b506003805460ff191660ff92909216919091179055600190565b6001600160a01b03163b151590565b6080516135676200019060003960008181610888015281816108cb01528181610b3d01528181610b800152610c1801526135676000f3fe608060405260043610620002535760003560e01c806380e2d3f0116200013b578063c4d66de811620000b9578063f23491581162000078578063f234915814620006fc578063f2fde38b1462000721578063f379a5a21462000746578063f8513c621462000781578063ffa1ad7414620007a357600080fd5b8063c4d66de8146200064f578063d42afb561462000674578063dee02cba1462000699578063e60b6da814620006be578063e882e37b14620006d757600080fd5b8063936d8e241162000106578063936d8e2414620005a35780639ad1ee1014620005bc578063abf410e514620005e1578063b3b601421462000603578063c3a2a93a146200062857600080fd5b806380e2d3f014620005335780638456cb5914620005535780638891792a146200056b5780638da5cb5b146200058357600080fd5b80634f1ef28611620001d55780635e813d3c11620001945780635e813d3c14620004805780636a0031cc14620004ba5780636ca0b0d714620004df578063715018a614620004f65780637f05b305146200050e57600080fd5b80634f1ef28614620003d957806352d1902d14620003f0578063581cd110146200040857806359659e9014620004445780635c975abb146200046657600080fd5b806338b10b21116200022257806338b10b2114620003135780633c31175e146200033a5780633ed9b17b14620003745780633f4ba83a14620003995780634d8f59f014620003b157600080fd5b8063056195a71462000258578063235fcebe146200027f5780632626c3be14620002c95780633659cfe614620002ee575b600080fd5b3480156200026557600080fd5b506200027d620002773660046200219d565b620007d6565b005b3480156200028c57600080fd5b50620002b46200029e3660046200219d565b6101046020526000908152604090205460ff1681565b60405190151581526020015b60405180910390f35b348015620002d657600080fd5b506200027d620002e83660046200219d565b6200082f565b348015620002fb57600080fd5b506200027d6200030d3660046200219d565b6200087e565b3480156200032057600080fd5b506200032b62000969565b604051620002c091906200221a565b3480156200034757600080fd5b50604080518082019091526005815264766572726160d81b60208201525b604051620002c0919062002280565b3480156200038157600080fd5b506200027d620003933660046200219d565b620009de565b348015620003a657600080fd5b506200027d62000ac7565b348015620003be57600080fd5b50620003ca6101035481565b604051908152602001620002c0565b6200027d620003ea3660046200235e565b62000b33565b348015620003fd57600080fd5b50620003ca62000c0b565b3480156200041557600080fd5b50610101546200042b906001600160a01b031681565b6040516001600160a01b039091168152602001620002c0565b3480156200045157600080fd5b5060fe546200042b906001600160a01b031681565b3480156200047357600080fd5b5060685460ff16620002b4565b3480156200048d57600080fd5b506200042b6200049f366004620023fb565b6002602052600090815260409020546001600160a01b031681565b348015620004c757600080fd5b506200027d620004d9366004620023fb565b62000cc1565b348015620004ec57600080fd5b50620003ca600181565b3480156200050357600080fd5b506200027d62000d6d565b3480156200051b57600080fd5b506200027d6200052d3660046200219d565b62000da8565b3480156200054057600080fd5b5060ff546001600160a01b03166200042b565b3480156200056057600080fd5b506200027d62000e8a565b3480156200057857600080fd5b50620003ca61271081565b3480156200059057600080fd5b506036546001600160a01b03166200042b565b348015620005b057600080fd5b50620003ca6101025481565b348015620005c957600080fd5b506200042b620005db366004620023fb565b62000ef2565b348015620005ee57600080fd5b506000546200042b906001600160a01b031681565b3480156200061057600080fd5b506200027d62000622366004620023fb565b62000f1d565b3480156200063557600080fd5b506200064062000f4e565b604051620002c0919062002415565b3480156200065c57600080fd5b506200027d6200066e3660046200219d565b62000fb2565b3480156200068157600080fd5b506200027d620006933660046200219d565b62001060565b348015620006a657600080fd5b506200027d620006b8366004620023fb565b620010af565b348015620006cb57600080fd5b50620003ca6101005481565b348015620006e457600080fd5b506200027d620006f63660046200219d565b6200115b565b3480156200070957600080fd5b506200027d6200071b366004620023fb565b620011aa565b3480156200072e57600080fd5b506200027d620007403660046200219d565b62001290565b3480156200075357600080fd5b506200076b62000765366004620023fb565b6200132f565b60408051928352602083019190915201620002c0565b3480156200078e57600080fd5b5060ff546200042b906001600160a01b031681565b348015620007b057600080fd5b5062000365604051806040016040528060058152602001640312e332e360dc1b81525081565b6036546001600160a01b031633146200080c5760405162461bcd60e51b8152600401620008039062002464565b60405180910390fd5b61010180546001600160a01b0319166001600160a01b0392909216919091179055565b6036546001600160a01b031633146200085c5760405162461bcd60e51b8152600401620008039062002464565b60ff80546001600160a01b0319166001600160a01b0392909216919091179055565b6001600160a01b037f0000000000000000000000000000000000000000000000000000000000000000163003620008c95760405162461bcd60e51b8152600401620008039062002499565b7f00000000000000000000000000000000000000000000000000000000000000006001600160a01b031662000914600080516020620034c2833981519152546001600160a01b031690565b6001600160a01b0316146200093d5760405162461bcd60e51b81526004016200080390620024e5565b620009488162001393565b604080516000808252602082019092526200096691839190620013c0565b50565b60408051600180825281830190925260609160009190816020015b6060815260200190600190039081620009845790505090506040518060400160405280600381526020016256435360e81b81525081600081518110620009ce57620009ce62002531565b6020908102919091010152919050565b6036546001600160a01b0316331462000a0b5760405162461bcd60e51b8152600401620008039062002464565b6001600160a01b0381166000908152610104602052604090205460ff168062000a6d5760405162461bcd60e51b8152602060048201526013602482015272105b1c9958591e481b9bdd08185b1b1bddd959606a1b604482015260640162000803565b6001600160a01b03821660008181526101046020908152604091829020805460ff1916905590519182527fe1f1103cfadf05f922cd1ed035283eed4d6e2d4c343210b7ac5f84a472bcfd7691015b60405180910390a15050565b6000546001600160a01b031662000ae66036546001600160a01b031690565b6001600160a01b03821633148062000b0657506001600160a01b03811633145b62000b255760405162461bcd60e51b8152600401620008039062002547565b62000b2f6200153d565b5050565b6001600160a01b037f000000000000000000000000000000000000000000000000000000000000000016300362000b7e5760405162461bcd60e51b8152600401620008039062002499565b7f00000000000000000000000000000000000000000000000000000000000000006001600160a01b031662000bc9600080516020620034c2833981519152546001600160a01b031690565b6001600160a01b03161462000bf25760405162461bcd60e51b81526004016200080390620024e5565b62000bfd8262001393565b62000b2f82826001620013c0565b6000306001600160a01b037f0000000000000000000000000000000000000000000000000000000000000000161462000cad5760405162461bcd60e51b815260206004820152603860248201527f555550535570677261646561626c653a206d757374206e6f742062652063616c60448201527f6c6564207468726f7567682064656c656761746563616c6c0000000000000000606482015260840162000803565b50600080516020620034c283398151915290565b6036546001600160a01b0316331462000cee5760405162461bcd60e51b8152600401620008039062002464565b612710811062000d675760405162461bcd60e51b815260206004820152603b60248201527f627269646765206665652070657263656e74616765206d757374206265206c6f60448201527f776572207468616e206272696467652066656520646976696465720000000000606482015260840162000803565b61010055565b6036546001600160a01b0316331462000d9a5760405162461bcd60e51b8152600401620008039062002464565b62000da66000620015d2565b565b6036546001600160a01b0316331462000dd55760405162461bcd60e51b8152600401620008039062002464565b6001600160a01b0381166000908152610104602052604090205460ff16801562000e345760405162461bcd60e51b815260206004820152600f60248201526e105b1c9958591e48185b1b1bddd959608a1b604482015260640162000803565b6001600160a01b03821660008181526101046020908152604091829020805460ff1916600117905590519182527fed9735b851438eeeaf428e48851f731122eb39b1d8027c2c3158f7f0b2d54706910162000abb565b6000546001600160a01b031662000ea96036546001600160a01b031690565b6001600160a01b03821633148062000ec957506001600160a01b03811633145b62000ee85760405162461bcd60e51b8152600401620008039062002547565b62000b2f62001624565b6001818154811062000f0357600080fd5b6000918252602090912001546001600160a01b0316905081565b60685460ff161562000f435760405162461bcd60e51b815260040162000803906200258c565b620009668162001680565b6060600180548060200260200160405190810160405280929190818152602001828054801562000fa857602002820191906000526020600020905b81546001600160a01b0316815260019091019060200180831162000f89575b5050505050905090565b600062000fc0600162001a09565b9050801562000fd9576003805461ff0019166101001790555b62000fe362001aa0565b62000fed62001aca565b62000ff762001aff565b6200100162001aa0565b600080546001600160a01b0319166001600160a01b038416179055801562000b2f576003805461ff0019169055604051600181527f7f26b83ff96e1f2b6a682f133852f6798a09c465da95921460cefb38474024989060200162000abb565b6036546001600160a01b031633146200108d5760405162461bcd60e51b8152600401620008039062002464565b60fe80546001600160a01b0319166001600160a01b0392909216919091179055565b6036546001600160a01b03163314620010dc5760405162461bcd60e51b8152600401620008039062002464565b6127108110620011555760405162461bcd60e51b815260206004820152603960248201527f6275726e206665652070657263656e74616765206d757374206265206c6f776560448201527f72207468616e2062726964676520666565206469766964657200000000000000606482015260840162000803565b61010255565b6036546001600160a01b03163314620011885760405162461bcd60e51b8152600401620008039062002464565b600080546001600160a01b0319166001600160a01b0392909216919091179055565b60008054604051633a37b16d60e11b81523360048201526001600160a01b039091169063746f62da90602401602060405180830381865afa158015620011f4573d6000803e3d6000fd5b505050506040513d601f19601f820116820180604052508101906200121a9190620025c7565b905080806200123357506036546001600160a01b031633145b620012725760405162461bcd60e51b815260206004820152600e60248201526d24b73b30b634b21039b2b73232b960911b604482015260640162000803565b816101036000828254620012879190620025fb565b90915550505050565b6036546001600160a01b03163314620012bd5760405162461bcd60e51b8152600401620008039062002464565b6001600160a01b038116620013245760405162461bcd60e51b815260206004820152602660248201527f4f776e61626c653a206e6577206f776e657220697320746865207a65726f206160448201526564647265737360d01b606482015260840162000803565b6200096681620015d2565b6000806000612710610100548562001348919062002616565b62001354919062002638565b9050600061271061010254836200136c919062002616565b62001378919062002638565b91959194509092505050565b6001600160a01b03163b151590565b6036546001600160a01b03163314620009665760405162461bcd60e51b8152600401620008039062002464565b7f4910fdfa16fed3260ed0e7147f7cc6da11a60208b5b9406d12a635614ffd91435460ff1615620013fb57620013f68362001b35565b505050565b826001600160a01b03166352d1902d6040518163ffffffff1660e01b8152600401602060405180830381865afa92505050801562001458575060408051601f3d908101601f1916820190925262001455918101906200265b565b60015b620014bd5760405162461bcd60e51b815260206004820152602e60248201527f45524331393637557067726164653a206e657720696d706c656d656e7461746960448201526d6f6e206973206e6f74205555505360901b606482015260840162000803565b600080516020620034c283398151915281146200152f5760405162461bcd60e51b815260206004820152602960248201527f45524331393637557067726164653a20756e737570706f727465642070726f786044820152681a58589b195555525160ba1b606482015260840162000803565b50620013f683838362001bd4565b60685460ff16620015885760405162461bcd60e51b815260206004820152601460248201527314185d5cd8589b194e881b9bdd081c185d5cd95960621b604482015260640162000803565b6068805460ff191690557f5db9ee0a495bf2e6ff9c91a7834c1ba4fdd244a5e8aa4e537bd38aeae4b073aa335b6040516001600160a01b03909116815260200160405180910390a1565b603680546001600160a01b038381166001600160a01b0319831681179093556040519116919082907f8be0079c531659141344cd1fd0a4f28419497f9722a3daafe3b4186f6b6457e090600090a35050565b60685460ff16156200164a5760405162461bcd60e51b815260040162000803906200258c565b6068805460ff191660011790557f62e78cea01bee320cd4e420270b5ea74000d11b0c9f74754ebdbfc544b05a258620015b53390565b60685460ff1615620016a65760405162461bcd60e51b815260040162000803906200258c565b60fe546001600160a01b0316620017005760405162461bcd60e51b815260206004820152601f60248201527f4572726f723a20426561636f6e20666f722070726f7879206e6f742073657400604482015260640162000803565b6200170b8162001c05565b15620017535760405162461bcd60e51b81526020600482015260166024820152757076455243323020616c72656164792065786973747360501b604482015260640162000803565b6000546200176b906001600160a01b03168262001c32565b620017768162001d68565b620017b75760405162461bcd60e51b815260206004820152601060248201526f125b9d985b1a59081cdd185b99185c9960821b604482015260640162000803565b600060405180606001604052806029815260200162003509602991396000805460405160806024820152601560a4820152742a37bab1b0b710283937ba37b1b7b61d102a21a79960591b60c482015260c06044820152600460e4820152632a21a79960e11b610104820152606481018690526001600160a01b0390911660848201529192509082906101240160408051601f198184030181529082905291620018609162002675565b60408051918290039091206020830180516001600160e01b03166001600160e01b031990921691909117905260fe5490519192506000916001600160a01b03909116908390620018b09062002179565b620018bd92919062002693565b604051809103906000f080158015620018da573d6000803e3d6000fd5b506000549091506001600160a01b031663344dd6cb8262001913604080518082019091526005815264766572726160d81b602082015290565b6040518363ffffffff1660e01b81526004016200193292919062002693565b600060405180830381600087803b1580156200194d57600080fd5b505af115801562001962573d6000803e3d6000fd5b5050600180548082019091557fb10e2d527612073b26eecdfd717e6a320cf44b4afac2b0732d9fcbe2b7fa0cf60180546001600160a01b0385166001600160a01b03199182168117909255600088815260026020908152604091829020805490931684179092558051898152918201929092527fc331dc3e37e2ab4d6e65d42a119ffdfab8481b9be24d26704f9f4b4a331d4dd0935001905060405180910390a150505050565b600354600090610100900460ff161562001a57578160ff16600114801562001a305750303b155b62001a4f5760405162461bcd60e51b81526004016200080390620026c1565b506000919050565b60035460ff80841691161062001a815760405162461bcd60e51b81526004016200080390620026c1565b506003805460ff191660ff92909216919091179055600190565b919050565b600354610100900460ff1662000da65760405162461bcd60e51b815260040162000803906200270f565b600354610100900460ff1662001af45760405162461bcd60e51b815260040162000803906200270f565b62000da633620015d2565b600354610100900460ff1662001b295760405162461bcd60e51b815260040162000803906200270f565b6068805460ff19169055565b6001600160a01b0381163b62001ba45760405162461bcd60e51b815260206004820152602d60248201527f455243313936373a206e657720696d706c656d656e746174696f6e206973206e60448201526c1bdd08184818dbdb9d1c9858dd609a1b606482015260840162000803565b600080516020620034c283398151915280546001600160a01b0319166001600160a01b0392909216919091179055565b62001bdf8362001fd4565b60008251118062001bed5750805b15620013f65762001bff838362002016565b50505050565b6000818152600260205260408120546001600160a01b031662001c2a57506000919050565b506001919050565b6000826001600160a01b031663a0af25606040518163ffffffff1660e01b8152600401602060405180830381865afa15801562001c73573d6000803e3d6000fd5b505050506040513d601f19601f8201168201806040525081019062001c99919062002767565b604051634f558e7960e01b8152600481018490529091506001600160a01b03821690634f558e7990602401602060405180830381865afa15801562001ce2573d6000803e3d6000fd5b505050506040513d601f19601f8201168201806040525081019062001d089190620025c7565b620013f65760405162461bcd60e51b815260206004820152602960248201527f436172626f6e2070726f6a6563742076696e7461676520646f6573206e6f74206044820152681e595d08195e1a5cdd60ba1b606482015260840162000803565b60008060008054906101000a90046001600160a01b031690506000816001600160a01b03166301157a836040518163ffffffff1660e01b8152600401602060405180830381865afa15801562001dc2573d6000803e3d6000fd5b505050506040513d601f19601f8201168201806040525081019062001de8919062002767565b90506000826001600160a01b031663a0af25606040518163ffffffff1660e01b8152600401602060405180830381865afa15801562001e2b573d6000803e3d6000fd5b505050506040513d601f19601f8201168201806040525081019062001e51919062002767565b60405163056efc1d60e21b8152600481018790529091506000906001600160a01b038316906315bbf07490602401600060405180830381865afa15801562001e9d573d6000803e3d6000fd5b505050506040513d6000823e601f3d908101601f1916820160405262001ec79190810190620027ec565b90506000836001600160a01b03166347e3168683606001516040518263ffffffff1660e01b815260040162001efe91815260200190565b600060405180830381865afa15801562001f1c573d6000803e3d6000fd5b505050506040513d6000823e601f3d908101601f1916820160405262001f4691908101906200296f565b9050600062001f5462000969565b805160208401519192509060005b8281101562001fc357600084828151811062001f825762001f8262002531565b6020026020010151905062001fa181846200211390919063ffffffff16565b1562001fb9575060019b9a5050505050505050505050565b5060010162001f62565b5060009a9950505050505050505050565b62001fdf8162001b35565b6040516001600160a01b038216907fbc7cd75a20ee27fd9adebab32041f755214dbc6bffa90cc0225b39da2e5c2d3b90600090a250565b60606001600160a01b0383163b620020805760405162461bcd60e51b815260206004820152602660248201527f416464726573733a2064656c65676174652063616c6c20746f206e6f6e2d636f6044820152651b9d1c9858dd60d21b606482015260840162000803565b600080846001600160a01b0316846040516200209d919062002675565b600060405180830381855af49150503d8060008114620020da576040519150601f19603f3d011682016040523d82523d6000602084013e620020df565b606091505b50915091506200210a8282604051806060016040528060278152602001620034e2602791396200213b565b95945050505050565b60008151835114801562002134575081805190602001208380519060200120145b9392505050565b606083156200214c57508162002134565b8251156200215d5782518084602001fd5b8160405162461bcd60e51b815260040162000803919062002280565b61098a8062002b3883390190565b6001600160a01b03811681146200096657600080fd5b600060208284031215620021b057600080fd5b8135620021348162002187565b60005b83811015620021da578181015183820152602001620021c0565b8381111562001bff5750506000910152565b6000815180845262002206816020860160208601620021bd565b601f01601f19169290920160200192915050565b6000602080830181845280855180835260408601915060408160051b870101925083870160005b828110156200227357603f1988860301845262002260858351620021ec565b9450928501929085019060010162002241565b5092979650505050505050565b602081526000620021346020830184620021ec565b634e487b7160e01b600052604160045260246000fd5b604051610160810167ffffffffffffffff81118282101715620022d257620022d262002295565b60405290565b604051610140810167ffffffffffffffff81118282101715620022d257620022d262002295565b604051601f8201601f1916810167ffffffffffffffff811182821017156200232b576200232b62002295565b604052919050565b600067ffffffffffffffff82111562002350576200235062002295565b50601f01601f191660200190565b600080604083850312156200237257600080fd5b82356200237f8162002187565b9150602083013567ffffffffffffffff8111156200239c57600080fd5b8301601f81018513620023ae57600080fd5b8035620023c5620023bf8262002333565b620022ff565b818152866020838501011115620023db57600080fd5b816020840160208301376000602083830101528093505050509250929050565b6000602082840312156200240e57600080fd5b5035919050565b6020808252825182820181905260009190848201906040850190845b81811015620024585783516001600160a01b03168352928401929184019160010162002431565b50909695505050505050565b6020808252818101527f4f776e61626c653a2063616c6c6572206973206e6f7420746865206f776e6572604082015260600190565b6020808252602c908201527f46756e6374696f6e206d7573742062652063616c6c6564207468726f7567682060408201526b19195b1959d85d1958d85b1b60a21b606082015260800190565b6020808252602c908201527f46756e6374696f6e206d7573742062652063616c6c6564207468726f7567682060408201526b6163746976652070726f787960a01b606082015260800190565b634e487b7160e01b600052603260045260246000fd5b60208082526025908201527f43616c6c6572206973206e6f74207468652072656769737472792c206e6f722060408201526437bbb732b960d91b606082015260800190565b60208082526010908201526f14185d5cd8589b194e881c185d5cd95960821b604082015260600190565b8051801515811462001a9b57600080fd5b600060208284031215620025da57600080fd5b6200213482620025b6565b634e487b7160e01b600052601160045260246000fd5b60008219821115620026115762002611620025e5565b500190565b6000816000190483118215151615620026335762002633620025e5565b500290565b6000826200265657634e487b7160e01b600052601260045260246000fd5b500490565b6000602082840312156200266e57600080fd5b5051919050565b6000825162002689818460208701620021bd565b9190910192915050565b6001600160a01b0383168152604060208201819052600090620026b990830184620021ec565b949350505050565b6020808252602e908201527f496e697469616c697a61626c653a20636f6e747261637420697320616c72656160408201526d191e481a5b9a5d1a585b1a5e995960921b606082015260800190565b6020808252602b908201527f496e697469616c697a61626c653a20636f6e7472616374206973206e6f74206960408201526a6e697469616c697a696e6760a81b606082015260800190565b805162001a9b8162002187565b6000602082840312156200277a57600080fd5b8151620021348162002187565b600082601f8301126200279957600080fd5b8151620027aa620023bf8262002333565b818152846020838601011115620027c057600080fd5b620026b9826020830160208701620021bd565b805167ffffffffffffffff8116811462001a9b57600080fd5b600060208284031215620027ff57600080fd5b815167ffffffffffffffff808211156200281857600080fd5b9083019061016082860312156200282e57600080fd5b62002838620022ab565b8251828111156200284857600080fd5b620028568782860162002787565b8252506200286760208401620027d3565b60208201526200287a60408401620027d3565b6040820152606083015160608201526200289760808401620027d3565b6080820152620028aa60a08401620025b6565b60a0820152620028bd60c08401620025b6565b60c082015260e083015182811115620028d557600080fd5b620028e38782860162002787565b60e0830152506101008084015183811115620028fe57600080fd5b6200290c8882870162002787565b82840152505061012080840151838111156200292757600080fd5b620029358882870162002787565b82840152505061014080840151838111156200295057600080fd5b6200295e8882870162002787565b918301919091525095945050505050565b6000602082840312156200298257600080fd5b815167ffffffffffffffff808211156200299b57600080fd5b908301906101408286031215620029b157600080fd5b620029bb620022d8565b825182811115620029cb57600080fd5b620029d98782860162002787565b825250602083015182811115620029ef57600080fd5b620029fd8782860162002787565b60208301525060408301518281111562002a1657600080fd5b62002a248782860162002787565b60408301525060608301518281111562002a3d57600080fd5b62002a4b8782860162002787565b60608301525060808301518281111562002a6457600080fd5b62002a728782860162002787565b60808301525060a08301518281111562002a8b57600080fd5b62002a998782860162002787565b60a08301525060c08301518281111562002ab257600080fd5b62002ac08782860162002787565b60c08301525060e08301518281111562002ad957600080fd5b62002ae78782860162002787565b60e083015250610100808401518381111562002b0257600080fd5b62002b108882870162002787565b828401525050610120915062002b288284016200275a565b9181019190915294935050505056fe608060405260405161098a38038061098a8339810160408190526100229161048b565b61004d60017fa3f0ad74e5423aebfd80d3ef4346578335a9a72aeaee59ff6cb3582b35133d5161054b565b6000805160206109438339815191521461006957610069610570565b6100758282600061007c565b50506105f0565b61008583610147565b6040516001600160a01b038416907f1cf3b03a6cf19fa2baba4df148e9dcabedea7f8a5c07840e207e5c089be95d3e90600090a26000825111806100c65750805b1561014257610140836001600160a01b0316635c60da1b6040518163ffffffff1660e01b8152600401602060405180830381865afa15801561010c573d6000803e3d6000fd5b505050506040513d601f19601f820116820180604052508101906101309190610586565b836102d860201b6100291760201c565b505b505050565b61015a8161030460201b6100551760201c565b6101b95760405162461bcd60e51b815260206004820152602560248201527f455243313936373a206e657720626561636f6e206973206e6f74206120636f6e6044820152641d1c9858dd60da1b60648201526084015b60405180910390fd5b61022d816001600160a01b0316635c60da1b6040518163ffffffff1660e01b8152600401602060405180830381865afa1580156101fa573d6000803e3d6000fd5b505050506040513d601f19601f8201168201806040525081019061021e9190610586565b61030460201b6100551760201c565b6102925760405162461bcd60e51b815260206004820152603060248201527f455243313936373a20626561636f6e20696d706c656d656e746174696f6e206960448201526f1cc81b9bdd08184818dbdb9d1c9858dd60821b60648201526084016101b0565b806102b760008051602061094383398151915260001b61031360201b6100641760201c565b80546001600160a01b0319166001600160a01b039290921691909117905550565b60606102fd838360405180606001604052806027815260200161096360279139610316565b9392505050565b6001600160a01b03163b151590565b90565b60606001600160a01b0384163b61037e5760405162461bcd60e51b815260206004820152602660248201527f416464726573733a2064656c65676174652063616c6c20746f206e6f6e2d636f6044820152651b9d1c9858dd60d21b60648201526084016101b0565b600080856001600160a01b03168560405161039991906105a1565b600060405180830381855af49150503d80600081146103d4576040519150601f19603f3d011682016040523d82523d6000602084013e6103d9565b606091505b5090925090506103ea8282866103f4565b9695505050505050565b606083156104035750816102fd565b8251156104135782518084602001fd5b8160405162461bcd60e51b81526004016101b091906105bd565b80516001600160a01b038116811461044457600080fd5b919050565b634e487b7160e01b600052604160045260246000fd5b60005b8381101561047a578181015183820152602001610462565b838111156101405750506000910152565b6000806040838503121561049e57600080fd5b6104a78361042d565b60208401519092506001600160401b03808211156104c457600080fd5b818501915085601f8301126104d857600080fd5b8151818111156104ea576104ea610449565b604051601f8201601f19908116603f0116810190838211818310171561051257610512610449565b8160405282815288602084870101111561052b57600080fd5b61053c83602083016020880161045f565b80955050505050509250929050565b60008282101561056b57634e487b7160e01b600052601160045260246000fd5b500390565b634e487b7160e01b600052600160045260246000fd5b60006020828403121561059857600080fd5b6102fd8261042d565b600082516105b381846020870161045f565b9190910192915050565b60208152600082518060208401526105dc81604085016020870161045f565b601f01601f19169190910160400192915050565b610344806105ff6000396000f3fe60806040523661001357610011610017565b005b6100115b610027610022610067565b610100565b565b606061004e83836040518060600160405280602781526020016102e860279139610124565b9392505050565b6001600160a01b03163b151590565b90565b600061009a7fa3f0ad74e5423aebfd80d3ef4346578335a9a72aeaee59ff6cb3582b35133d50546001600160a01b031690565b6001600160a01b0316635c60da1b6040518163ffffffff1660e01b8152600401602060405180830381865afa1580156100d7573d6000803e3d6000fd5b505050506040513d601f19601f820116820180604052508101906100fb919061023f565b905090565b3660008037600080366000845af43d6000803e80801561011f573d6000f35b3d6000fd5b60606001600160a01b0384163b6101915760405162461bcd60e51b815260206004820152602660248201527f416464726573733a2064656c65676174652063616c6c20746f206e6f6e2d636f6044820152651b9d1c9858dd60d21b60648201526084015b60405180910390fd5b600080856001600160a01b0316856040516101ac9190610298565b600060405180830381855af49150503d80600081146101e7576040519150601f19603f3d011682016040523d82523d6000602084013e6101ec565b606091505b50915091506101fc828286610206565b9695505050505050565b6060831561021557508161004e565b8251156102255782518084602001fd5b8160405162461bcd60e51b815260040161018891906102b4565b60006020828403121561025157600080fd5b81516001600160a01b038116811461004e57600080fd5b60005b8381101561028357818101518382015260200161026b565b83811115610292576000848401525b50505050565b600082516102aa818460208701610268565b9190910192915050565b60208152600082518060208401526102d3816040850160208701610268565b601f01601f1916919091016040019291505056fe416464726573733a206c6f772d6c6576656c2064656c65676174652063616c6c206661696c6564a2646970667358221220eeccfe8a308b7a851f215122d440957c3709c862bc4a198ff8fa847745f9e8e964736f6c634300080e0033a3f0ad74e5423aebfd80d3ef4346578335a9a72aeaee59ff6cb3582b35133d50416464726573733a206c6f772d6c6576656c2064656c65676174652063616c6c206661696c6564360894a13ba1a3210667c828492db98dca3e2076cc3735a920a3ca505d382bbc416464726573733a206c6f772d6c6576656c2064656c65676174652063616c6c206661696c6564696e697469616c697a6528737472696e672c737472696e672c75696e743235362c6164647265737329a2646970667358221220eb337868f0d1209954b16b016b05933d87fba36eee0612d5e040bfc539ac69db64736f6c634300080e0033496e697469616c697a61626c653a20636f6e747261637420697320616c726561",
  "devdoc": {
    "kind": "dev",
    "methods": {
      "deployFromVintage(uint256)": {
        "details": "Deploys a TCO2 contract based on a project vintage",
        "params": {
          "projectVintageTokenId": "numeric tokenId from vintage in `CarbonProjectVintages`"
        }
      },
      "getContracts()": {
        "details": "Returns all addresses of deployed TCO2 contracts"
      },
      "owner()": {
        "details": "Returns the address of the current owner."
      },
      "pause()": {
        "details": "wraps _pause(), only Admin"
      },
      "paused()": {
        "details": "Returns true if the contract is paused, and false otherwise."
      },
      "proxiableUUID()": {
        "details": "Implementation of the ERC1822 {proxiableUUID} function. This returns the storage slot used by the implementation. It is used to validate that the this implementation remains valid after an upgrade. IMPORTANT: A proxy pointing at a proxiable contract should not be considered proxiable itself, because this risks bricking a proxy that upgrades to it, by delegating to itself until out of gas. Thus it is critical that this function revert if invoked through a proxy. This is guaranteed by the `notDelegated` modifier."
      },
      "renounceOwnership()": {
        "details": "Leaves the contract without owner. It will not be possible to call `onlyOwner` functions anymore. Can only be called by the current owner. NOTE: Renouncing ownership will leave the contract without an owner, thereby removing any functionality that is only available to the owner."
      },
      "setBeacon(address)": {
        "details": "sets the Beacon that tracks the current implementation logic of the TCO2s"
      },
      "setBridgeFeeBurnAddress(address)": {
        "params": {
          "_bridgeFeeBurnAddress": "address to transfer the fees to burn"
        }
      },
      "setBridgeFeeBurnPercentage(uint256)": {
        "params": {
          "_bridgeFeeBurnPercentageInBase": "percentage of bridge fee in base"
        }
      },
      "setBridgeFeePercentage(uint256)": {
        "params": {
          "_bridgeFeePercentageInBase": "percentage of bridge fee in base"
        }
      },
      "setBridgeFeeReceiver(address)": {
        "params": {
          "_bridgeFeeReceiver": "address to transfer the fees"
        }
      },
      "setToucanContractRegistry(address)": {
        "details": "set the registry contract to be tracked"
      },
      "standardRegistry()": {
        "details": "this must be overridden in the child contract"
      },
      "transferOwnership(address)": {
        "details": "Transfers ownership of the contract to a new account (`newOwner`). Can only be called by the current owner."
      },
      "unpause()": {
        "details": "unpause the system, wraps _unpause(), only Admin"
      },
      "upgradeTo(address)": {
        "details": "Upgrade the implementation of the proxy to `newImplementation`. Calls {_authorizeUpgrade}. Emits an {Upgraded} event."
      },
      "upgradeToAndCall(address,bytes)": {
        "details": "Upgrade the implementation of the proxy to `newImplementation`, and subsequently execute the function call encoded in `data`. Calls {_authorizeUpgrade}. Emits an {Upgraded} event."
      }
    },
    "stateVariables": {
      "VERSION": {
        "details": "Version-related parameters. VERSION keeps track of production releases. VERSION_RELEASE_CANDIDATE keeps track of iterations of a VERSION in our staging environment."
      }
    },
    "version": 1
  },
  "userdoc": {
    "kind": "user",
    "methods": {
      "addToAllowedBridges(address)": {
        "notice": "adds account to the allowedBridges list meant to be used only for cross-chain bridging"
      },
      "allowedBridges(address)": {
        "notice": "meant to be used only for cross-chain bridging"
      },
      "pause()": {
        "notice": "Emergency function to disable contract's core functionality"
      },
      "removeFromAllowedBridges(address)": {
        "notice": "removes account from the allowedBridges list meant to be used only for cross-chain bridging"
      },
      "setBridgeFeeBurnAddress(address)": {
        "notice": "Update the bridge fee burn address"
      },
      "setBridgeFeeBurnPercentage(uint256)": {
        "notice": "Update the bridge fee burning percentage"
      },
      "setBridgeFeePercentage(uint256)": {
        "notice": "Update the bridge fee percentage"
      },
      "setBridgeFeeReceiver(address)": {
        "notice": "Update the bridge fee receiver"
      },
      "standardRegistry()": {
        "notice": "Return the name of the registry that this factory is enabling to tokenize, eg., verra"
      },
      "supportedStandards()": {
        "notice": "Return the standard(s) supported by the carbon registry from where this factory tokenizes credits, eg., VCS It's important to satisfy this interface in order to ensure that TCO2 factories cannot create TCO2s for standards that the standard registry does not support"
      }
    },
    "notice": "This TCO2 factory creates project-vintage-specific ERC20 contracts for Batch-NFT fractionalization Locks in received ERC721 Batch-NFTs and can mint corresponding quantity of ERC20s Permissionless, anyone can deploy new ERC20s unless they do not yet exist and pid exists",
    "version": 1
  },
  "storageLayout": {
    "storage": [
      {
        "astId": 12238,
        "contract": "contracts/ToucanCarbonOffsetsFactory.sol:ToucanCarbonOffsetsFactory",
        "label": "contractRegistry",
        "offset": 0,
        "slot": "0",
        "type": "t_address"
      },
      {
        "astId": 12241,
        "contract": "contracts/ToucanCarbonOffsetsFactory.sol:ToucanCarbonOffsetsFactory",
        "label": "deployedContracts",
        "offset": 0,
        "slot": "1",
        "type": "t_array(t_address)dyn_storage"
      },
      {
        "astId": 12245,
        "contract": "contracts/ToucanCarbonOffsetsFactory.sol:ToucanCarbonOffsetsFactory",
        "label": "pvIdtoERC20",
        "offset": 0,
        "slot": "2",
        "type": "t_mapping(t_uint256,t_address)"
      },
      {
        "astId": 1489,
        "contract": "contracts/ToucanCarbonOffsetsFactory.sol:ToucanCarbonOffsetsFactory",
        "label": "_initialized",
        "offset": 0,
        "slot": "3",
        "type": "t_uint8"
      },
      {
        "astId": 1492,
        "contract": "contracts/ToucanCarbonOffsetsFactory.sol:ToucanCarbonOffsetsFactory",
        "label": "_initializing",
        "offset": 1,
        "slot": "3",
        "type": "t_bool"
      },
      {
        "astId": 4593,
        "contract": "contracts/ToucanCarbonOffsetsFactory.sol:ToucanCarbonOffsetsFactory",
        "label": "__gap",
        "offset": 0,
        "slot": "4",
        "type": "t_array(t_uint256)50_storage"
      },
      {
        "astId": 980,
        "contract": "contracts/ToucanCarbonOffsetsFactory.sol:ToucanCarbonOffsetsFactory",
        "label": "_owner",
        "offset": 0,
        "slot": "54",
        "type": "t_address"
      },
      {
        "astId": 1092,
        "contract": "contracts/ToucanCarbonOffsetsFactory.sol:ToucanCarbonOffsetsFactory",
        "label": "__gap",
        "offset": 0,
        "slot": "55",
        "type": "t_array(t_uint256)49_storage"
      },
      {
        "astId": 1781,
        "contract": "contracts/ToucanCarbonOffsetsFactory.sol:ToucanCarbonOffsetsFactory",
        "label": "_paused",
        "offset": 0,
        "slot": "104",
        "type": "t_bool"
      },
      {
        "astId": 1870,
        "contract": "contracts/ToucanCarbonOffsetsFactory.sol:ToucanCarbonOffsetsFactory",
        "label": "__gap",
        "offset": 0,
        "slot": "105",
        "type": "t_array(t_uint256)49_storage"
      },
      {
        "astId": 1471,
        "contract": "contracts/ToucanCarbonOffsetsFactory.sol:ToucanCarbonOffsetsFactory",
        "label": "__gap",
        "offset": 0,
        "slot": "154",
        "type": "t_array(t_uint256)50_storage"
      },
      {
        "astId": 1759,
        "contract": "contracts/ToucanCarbonOffsetsFactory.sol:ToucanCarbonOffsetsFactory",
        "label": "__gap",
        "offset": 0,
        "slot": "204",
        "type": "t_array(t_uint256)50_storage"
      },
      {
        "astId": 12249,
        "contract": "contracts/ToucanCarbonOffsetsFactory.sol:ToucanCarbonOffsetsFactory",
        "label": "beacon",
        "offset": 0,
        "slot": "254",
        "type": "t_address"
      },
      {
        "astId": 12251,
        "contract": "contracts/ToucanCarbonOffsetsFactory.sol:ToucanCarbonOffsetsFactory",
        "label": "bridgeFeeReceiver",
        "offset": 0,
        "slot": "255",
        "type": "t_address"
      },
      {
        "astId": 12253,
        "contract": "contracts/ToucanCarbonOffsetsFactory.sol:ToucanCarbonOffsetsFactory",
        "label": "bridgeFeePercentageInBase",
        "offset": 0,
        "slot": "256",
        "type": "t_uint256"
      },
      {
        "astId": 12255,
        "contract": "contracts/ToucanCarbonOffsetsFactory.sol:ToucanCarbonOffsetsFactory",
        "label": "bridgeFeeBurnAddress",
        "offset": 0,
        "slot": "257",
        "type": "t_address"
      },
      {
        "astId": 12257,
        "contract": "contracts/ToucanCarbonOffsetsFactory.sol:ToucanCarbonOffsetsFactory",
        "label": "bridgeFeeBurnPercentageInBase",
        "offset": 0,
        "slot": "258",
        "type": "t_uint256"
      },
      {
        "astId": 12259,
        "contract": "contracts/ToucanCarbonOffsetsFactory.sol:ToucanCarbonOffsetsFactory",
        "label": "totalRetired",
        "offset": 0,
        "slot": "259",
        "type": "t_uint256"
      },
      {
        "astId": 12266,
        "contract": "contracts/ToucanCarbonOffsetsFactory.sol:ToucanCarbonOffsetsFactory",
        "label": "allowedBridges",
        "offset": 0,
        "slot": "260",
        "type": "t_mapping(t_address,t_bool)"
      },
      {
        "astId": 12277,
        "contract": "contracts/ToucanCarbonOffsetsFactory.sol:ToucanCarbonOffsetsFactory",
        "label": "__gap",
        "offset": 0,
        "slot": "261",
        "type": "t_array(t_uint256)44_storage"
      }
    ],
    "types": {
      "t_address": {
        "encoding": "inplace",
        "label": "address",
        "numberOfBytes": "20"
      },
      "t_array(t_address)dyn_storage": {
        "base": "t_address",
        "encoding": "dynamic_array",
        "label": "address[]",
        "numberOfBytes": "32"
      },
      "t_array(t_uint256)44_storage": {
        "base": "t_uint256",
        "encoding": "inplace",
        "label": "uint256[44]",
        "numberOfBytes": "1408"
      },
      "t_array(t_uint256)49_storage": {
        "base": "t_uint256",
        "encoding": "inplace",
        "label": "uint256[49]",
        "numberOfBytes": "1568"
      },
      "t_array(t_uint256)50_storage": {
        "base": "t_uint256",
        "encoding": "inplace",
        "label": "uint256[50]",
        "numberOfBytes": "1600"
      },
      "t_bool": {
        "encoding": "inplace",
        "label": "bool",
        "numberOfBytes": "1"
      },
      "t_mapping(t_address,t_bool)": {
        "encoding": "mapping",
        "key": "t_address",
        "label": "mapping(address => bool)",
        "numberOfBytes": "32",
        "value": "t_bool"
      },
      "t_mapping(t_uint256,t_address)": {
        "encoding": "mapping",
        "key": "t_uint256",
        "label": "mapping(uint256 => address)",
        "numberOfBytes": "32",
        "value": "t_address"
      },
      "t_uint256": {
        "encoding": "inplace",
        "label": "uint256",
        "numberOfBytes": "32"
      },
      "t_uint8": {
        "encoding": "inplace",
        "label": "uint8",
        "numberOfBytes": "1"
      }
    }
  }
}