{
  "address": "0xaaa721aD9229cE7a53e6e1c1E12f999A282b6d88",
  "abi": [
    {
      "anonymous": false,
      "inputs": [
        {
          "indexed": false,
          "internalType": "address",
          "name": "previousAdmin",
          "type": "address"
        },
        {
          "indexed": false,
          "internalType": "address",
          "name": "newAdmin",
          "type": "address"
        }
      ],
      "name": "AdminChanged",
      "type": "event"
    },
    {
      "anonymous": false,
      "inputs": [
        {
          "indexed": false,
          "internalType": "string",
          "name": "methodology",
          "type": "string"
        }
      ],
      "name": "AttributeMethodologyAdded",
      "type": "event"
    },
    {
      "anonymous": false,
      "inputs": [
        {
          "indexed": false,
          "internalType": "string",
          "name": "methodology",
          "type": "string"
        }
      ],
      "name": "AttributeMethodologyRemoved",
      "type": "event"
    },
    {
      "anonymous": false,
      "inputs": [
        {
          "indexed": false,
          "internalType": "string",
          "name": "region",
          "type": "string"
        }
      ],
      "name": "AttributeRegionAdded",
      "type": "event"
    },
    {
      "anonymous": false,
      "inputs": [
        {
          "indexed": false,
          "internalType": "string",
          "name": "region",
          "type": "string"
        }
      ],
      "name": "AttributeRegionRemoved",
      "type": "event"
    },
    {
      "anonymous": false,
      "inputs": [
        {
          "indexed": false,
          "internalType": "string",
          "name": "standard",
          "type": "string"
        }
      ],
      "name": "AttributeStandardAdded",
      "type": "event"
    },
    {
      "anonymous": false,
      "inputs": [
        {
          "indexed": false,
          "internalType": "string",
          "name": "standard",
          "type": "string"
        }
      ],
      "name": "AttributeStandardRemoved",
      "type": "event"
    },
    {
      "anonymous": false,
      "inputs": [
        {
          "indexed": true,
          "internalType": "address",
          "name": "beacon",
          "type": "address"
        }
      ],
      "name": "BeaconUpgraded",
      "type": "event"
    },
    {
      "anonymous": false,
      "inputs": [
        {
          "indexed": false,
          "internalType": "address",
          "name": "erc20addr",
          "type": "address"
        }
      ],
      "name": "ExternalAddressAllowlisted",
      "type": "event"
    },
    {
      "anonymous": false,
      "inputs": [
        {
          "indexed": false,
          "internalType": "address",
          "name": "erc20addr",
          "type": "address"
        }
      ],
      "name": "ExternalAddressRemovedFromAllowlist",
      "type": "event"
    },
    {
      "anonymous": false,
      "inputs": [
        {
          "indexed": false,
          "internalType": "address",
          "name": "tokenAddress",
          "type": "address"
        },
        {
          "indexed": false,
          "internalType": "uint256",
          "name": "tokenId",
          "type": "uint256"
        }
      ],
      "name": "ExternalERC1155TokenAllowlisted",
      "type": "event"
    },
    {
      "anonymous": false,
      "inputs": [
        {
          "indexed": false,
          "internalType": "address",
          "name": "tokenAddress",
          "type": "address"
        },
        {
          "indexed": false,
          "internalType": "uint256",
          "name": "tokenId",
          "type": "uint256"
        }
      ],
      "name": "ExternalERC1155TokenRemovedFromAllowlist",
      "type": "event"
    },
    {
      "anonymous": false,
      "inputs": [
        {
          "indexed": false,
          "internalType": "uint8",
          "name": "version",
          "type": "uint8"
        }
      ],
      "name": "Initialized",
      "type": "event"
    },
    {
      "anonymous": false,
      "inputs": [
        {
          "indexed": false,
          "internalType": "address",
          "name": "erc20addr",
          "type": "address"
        }
      ],
      "name": "InternalAddressAllowlisted",
      "type": "event"
    },
    {
      "anonymous": false,
      "inputs": [
        {
          "indexed": false,
          "internalType": "address",
          "name": "erc20addr",
          "type": "address"
        }
      ],
      "name": "InternalAddressBlocklisted",
      "type": "event"
    },
    {
      "anonymous": false,
      "inputs": [
        {
          "indexed": false,
          "internalType": "address",
          "name": "erc20addr",
          "type": "address"
        }
      ],
      "name": "InternalAddressRemovedFromAllowlist",
      "type": "event"
    },
    {
      "anonymous": false,
      "inputs": [
        {
          "indexed": false,
          "internalType": "address",
          "name": "erc20addr",
          "type": "address"
        }
      ],
      "name": "InternalAddressRemovedFromBlocklist",
      "type": "event"
    },
    {
      "anonymous": false,
      "inputs": [
        {
          "indexed": false,
          "internalType": "string",
          "name": "mappingName",
          "type": "string"
        },
        {
          "indexed": false,
          "internalType": "bool",
          "name": "accepted",
          "type": "bool"
        }
      ],
      "name": "MappingSwitched",
      "type": "event"
    },
    {
      "anonymous": false,
      "inputs": [
        {
          "indexed": false,
          "internalType": "uint256",
          "name": "minimumVintageStartTime",
          "type": "uint256"
        }
      ],
      "name": "MinimumVintageStartTimeUpdated",
      "type": "event"
    },
    {
      "anonymous": false,
      "inputs": [
        {
          "indexed": true,
          "internalType": "address",
          "name": "previousOwner",
          "type": "address"
        },
        {
          "indexed": true,
          "internalType": "address",
          "name": "newOwner",
          "type": "address"
        }
      ],
      "name": "OwnershipTransferred",
      "type": "event"
    },
    {
      "anonymous": false,
      "inputs": [
        {
          "indexed": false,
          "internalType": "address",
          "name": "account",
          "type": "address"
        }
      ],
      "name": "Paused",
      "type": "event"
    },
    {
      "anonymous": false,
      "inputs": [
        {
          "indexed": true,
          "internalType": "bytes32",
          "name": "role",
          "type": "bytes32"
        },
        {
          "indexed": true,
          "internalType": "bytes32",
          "name": "previousAdminRole",
          "type": "bytes32"
        },
        {
          "indexed": true,
          "internalType": "bytes32",
          "name": "newAdminRole",
          "type": "bytes32"
        }
      ],
      "name": "RoleAdminChanged",
      "type": "event"
    },
    {
      "anonymous": false,
      "inputs": [
        {
          "indexed": true,
          "internalType": "bytes32",
          "name": "role",
          "type": "bytes32"
        },
        {
          "indexed": true,
          "internalType": "address",
          "name": "account",
          "type": "address"
        },
        {
          "indexed": true,
          "internalType": "address",
          "name": "sender",
          "type": "address"
        }
      ],
      "name": "RoleGranted",
      "type": "event"
    },
    {
      "anonymous": false,
      "inputs": [
        {
          "indexed": true,
          "internalType": "bytes32",
          "name": "role",
          "type": "bytes32"
        },
        {
          "indexed": true,
          "internalType": "address",
          "name": "account",
          "type": "address"
        },
        {
          "indexed": true,
          "internalType": "address",
          "name": "sender",
          "type": "address"
        }
      ],
      "name": "RoleRevoked",
      "type": "event"
    },
    {
      "anonymous": false,
      "inputs": [
        {
          "indexed": false,
          "internalType": "address",
          "name": "registry",
          "type": "address"
        }
      ],
      "name": "ToucanRegistrySet",
      "type": "event"
    },
    {
      "anonymous": false,
      "inputs": [
        {
          "indexed": false,
          "internalType": "address",
          "name": "account",
          "type": "address"
        }
      ],
      "name": "Unpaused",
      "type": "event"
    },
    {
      "anonymous": false,
      "inputs": [
        {
          "indexed": true,
          "internalType": "address",
          "name": "implementation",
          "type": "address"
        }
      ],
      "name": "Upgraded",
      "type": "event"
    },
    {
      "inputs": [],
      "name": "DEFAULT_ADMIN_ROLE",
      "outputs": [
        {
          "internalType": "bytes32",
          "name": "",
          "type": "bytes32"
        }
      ],
      "stateMutability": "view",
      "type": "function"
    },
    {
      "inputs": [],
      "name": "VERSION",
      "outputs": [
        {
          "internalType": "string",
          "name": "",
          "type": "string"
        }
      ],
      "stateMutability": "view",
      "type": "function"
    },
    {
      "inputs": [],
      "name": "VERSION_RELEASE_CANDIDATE",
      "outputs": [
        {
          "internalType": "uint256",
          "name": "",
          "type": "uint256"
        }
      ],
      "stateMutability": "view",
      "type": "function"
    },
    {
      "inputs": [
        {
          "internalType": "bool",
          "name": "addToList",
          "type": "bool"
        },
        {
          "internalType": "string[]",
          "name": "_regions",
          "type": "string[]"
        },
        {
          "internalType": "string[]",
          "name": "_standards",
          "type": "string[]"
        },
        {
          "internalType": "string[]",
          "name": "_methodologies",
          "type": "string[]"
        }
      ],
      "name": "addAttributes",
      "outputs": [],
      "stateMutability": "nonpayable",
      "type": "function"
    },
    {
      "inputs": [
        {
          "internalType": "address[]",
          "name": "erc20Addr",
          "type": "address[]"
        }
      ],
      "name": "addToExternalAllowlist",
      "outputs": [],
      "stateMutability": "nonpayable",
      "type": "function"
    },
    {
      "inputs": [
        {
          "internalType": "address[]",
          "name": "tokenAddresses",
          "type": "address[]"
        },
        {
          "internalType": "uint256[]",
          "name": "tokenIds",
          "type": "uint256[]"
        }
      ],
      "name": "addToExternalERC1155Allowlist",
      "outputs": [],
      "stateMutability": "nonpayable",
      "type": "function"
    },
    {
      "inputs": [
        {
          "internalType": "address[]",
          "name": "erc20Addr",
          "type": "address[]"
        }
      ],
      "name": "addToInternalAllowlist",
      "outputs": [],
      "stateMutability": "nonpayable",
      "type": "function"
    },
    {
      "inputs": [
        {
          "internalType": "address[]",
          "name": "erc20Addr",
          "type": "address[]"
        }
      ],
      "name": "addToInternalBlocklist",
      "outputs": [],
      "stateMutability": "nonpayable",
      "type": "function"
    },
    {
      "inputs": [
        {
          "internalType": "address",
          "name": "erc20Addr",
          "type": "address"
        }
      ],
      "name": "checkAttributeMatching",
      "outputs": [
        {
          "internalType": "bool",
          "name": "",
          "type": "bool"
        }
      ],
      "stateMutability": "view",
      "type": "function"
    },
    {
      "inputs": [
        {
          "internalType": "address",
          "name": "tokenAddress",
          "type": "address"
        },
        {
          "internalType": "uint256",
          "name": "tokenId",
          "type": "uint256"
        }
      ],
      "name": "checkERC1155Eligible",
      "outputs": [
        {
          "internalType": "bool",
          "name": "",
          "type": "bool"
        }
      ],
      "stateMutability": "view",
      "type": "function"
    },
    {
      "inputs": [
        {
          "internalType": "address",
          "name": "erc20Addr",
          "type": "address"
        }
      ],
      "name": "checkEligible",
      "outputs": [
        {
          "internalType": "bool",
          "name": "",
          "type": "bool"
        }
      ],
      "stateMutability": "view",
      "type": "function"
    },
    {
      "inputs": [],
      "name": "contractRegistry",
      "outputs": [
        {
          "internalType": "address",
          "name": "",
          "type": "address"
        }
      ],
      "stateMutability": "view",
      "type": "function"
    },
    {
      "inputs": [
        {
          "internalType": "address",
          "name": "",
          "type": "address"
        }
      ],
      "name": "externalAllowlist",
      "outputs": [
        {
          "internalType": "bool",
          "name": "",
          "type": "bool"
        }
      ],
      "stateMutability": "view",
      "type": "function"
    },
    {
      "inputs": [
        {
          "internalType": "address",
          "name": "",
          "type": "address"
        },
        {
          "internalType": "uint256",
          "name": "",
          "type": "uint256"
        }
      ],
      "name": "externalERC1155Allowlist",
      "outputs": [
        {
          "internalType": "bool",
          "name": "",
          "type": "bool"
        }
      ],
      "stateMutability": "view",
      "type": "function"
    },
    {
      "inputs": [
        {
          "internalType": "bytes32",
          "name": "role",
          "type": "bytes32"
        }
      ],
      "name": "getRoleAdmin",
      "outputs": [
        {
          "internalType": "bytes32",
          "name": "",
          "type": "bytes32"
        }
      ],
      "stateMutability": "view",
      "type": "function"
    },
    {
      "inputs": [
        {
          "internalType": "bytes32",
          "name": "role",
          "type": "bytes32"
        },
        {
          "internalType": "address",
          "name": "account",
          "type": "address"
        }
      ],
      "name": "grantRole",
      "outputs": [],
      "stateMutability": "nonpayable",
      "type": "function"
    },
    {
      "inputs": [
        {
          "internalType": "bytes32",
          "name": "role",
          "type": "bytes32"
        },
        {
          "internalType": "address",
          "name": "account",
          "type": "address"
        }
      ],
      "name": "hasRole",
      "outputs": [
        {
          "internalType": "bool",
          "name": "",
          "type": "bool"
        }
      ],
      "stateMutability": "view",
      "type": "function"
    },
    {
      "inputs": [],
      "name": "initialize",
      "outputs": [],
      "stateMutability": "nonpayable",
      "type": "function"
    },
    {
      "inputs": [
        {
          "internalType": "address",
          "name": "",
          "type": "address"
        }
      ],
      "name": "internalAllowlist",
      "outputs": [
        {
          "internalType": "bool",
          "name": "",
          "type": "bool"
        }
      ],
      "stateMutability": "view",
      "type": "function"
    },
    {
      "inputs": [
        {
          "internalType": "address",
          "name": "",
          "type": "address"
        }
      ],
      "name": "internalBlocklist",
      "outputs": [
        {
          "internalType": "bool",
          "name": "",
          "type": "bool"
        }
      ],
      "stateMutability": "view",
      "type": "function"
    },
    {
      "inputs": [
        {
          "internalType": "string",
          "name": "",
          "type": "string"
        }
      ],
      "name": "methodologies",
      "outputs": [
        {
          "internalType": "bool",
          "name": "",
          "type": "bool"
        }
      ],
      "stateMutability": "view",
      "type": "function"
    },
    {
      "inputs": [],
      "name": "methodologiesIsAcceptedMapping",
      "outputs": [
        {
          "internalType": "bool",
          "name": "",
          "type": "bool"
        }
      ],
      "stateMutability": "view",
      "type": "function"
    },
    {
      "inputs": [],
      "name": "minimumVintageStartTime",
      "outputs": [
        {
          "internalType": "uint64",
          "name": "",
          "type": "uint64"
        }
      ],
      "stateMutability": "view",
      "type": "function"
    },
    {
      "inputs": [],
      "name": "owner",
      "outputs": [
        {
          "internalType": "address",
          "name": "",
          "type": "address"
        }
      ],
      "stateMutability": "view",
      "type": "function"
    },
    {
      "inputs": [],
      "name": "paused",
      "outputs": [
        {
          "internalType": "bool",
          "name": "",
          "type": "bool"
        }
      ],
      "stateMutability": "view",
      "type": "function"
    },
    {
      "inputs": [],
      "name": "proxiableUUID",
      "outputs": [
        {
          "internalType": "bytes32",
          "name": "",
          "type": "bytes32"
        }
      ],
      "stateMutability": "view",
      "type": "function"
    },
    {
      "inputs": [
        {
          "internalType": "string",
          "name": "",
          "type": "string"
        }
      ],
      "name": "regions",
      "outputs": [
        {
          "internalType": "bool",
          "name": "",
          "type": "bool"
        }
      ],
      "stateMutability": "view",
      "type": "function"
    },
    {
      "inputs": [],
      "name": "regionsIsAcceptedMapping",
      "outputs": [
        {
          "internalType": "bool",
          "name": "",
          "type": "bool"
        }
      ],
      "stateMutability": "view",
      "type": "function"
    },
    {
      "inputs": [
        {
          "internalType": "address[]",
          "name": "erc20Addr",
          "type": "address[]"
        }
      ],
      "name": "removeFromExternalAllowlist",
      "outputs": [],
      "stateMutability": "nonpayable",
      "type": "function"
    },
    {
      "inputs": [
        {
          "internalType": "address[]",
          "name": "tokenAddresses",
          "type": "address[]"
        },
        {
          "internalType": "uint256[]",
          "name": "tokenIds",
          "type": "uint256[]"
        }
      ],
      "name": "removeFromExternalERC1155Allowlist",
      "outputs": [],
      "stateMutability": "nonpayable",
      "type": "function"
    },
    {
      "inputs": [
        {
          "internalType": "address[]",
          "name": "erc20Addr",
          "type": "address[]"
        }
      ],
      "name": "removeFromInternalAllowlist",
      "outputs": [],
      "stateMutability": "nonpayable",
      "type": "function"
    },
    {
      "inputs": [
        {
          "internalType": "address[]",
          "name": "erc20Addr",
          "type": "address[]"
        }
      ],
      "name": "removeFromInternalBlocklist",
      "outputs": [],
      "stateMutability": "nonpayable",
      "type": "function"
    },
    {
      "inputs": [],
      "name": "renounceOwnership",
      "outputs": [],
      "stateMutability": "nonpayable",
      "type": "function"
    },
    {
      "inputs": [
        {
          "internalType": "bytes32",
          "name": "role",
          "type": "bytes32"
        },
        {
          "internalType": "address",
          "name": "account",
          "type": "address"
        }
      ],
      "name": "renounceRole",
      "outputs": [],
      "stateMutability": "nonpayable",
      "type": "function"
    },
    {
      "inputs": [
        {
          "internalType": "bytes32",
          "name": "role",
          "type": "bytes32"
        },
        {
          "internalType": "address",
          "name": "account",
          "type": "address"
        }
      ],
      "name": "revokeRole",
      "outputs": [],
      "stateMutability": "nonpayable",
      "type": "function"
    },
    {
      "inputs": [
        {
          "internalType": "uint64",
          "name": "_minimumVintageStartTime",
          "type": "uint64"
        }
      ],
      "name": "setMinimumVintageStartTime",
      "outputs": [],
      "stateMutability": "nonpayable",
      "type": "function"
    },
    {
      "inputs": [
        {
          "internalType": "address",
          "name": "_address",
          "type": "address"
        }
      ],
      "name": "setToucanContractRegistry",
      "outputs": [],
      "stateMutability": "nonpayable",
      "type": "function"
    },
    {
      "inputs": [
        {
          "internalType": "string",
          "name": "",
          "type": "string"
        }
      ],
      "name": "standards",
      "outputs": [
        {
          "internalType": "bool",
          "name": "",
          "type": "bool"
        }
      ],
      "stateMutability": "view",
      "type": "function"
    },
    {
      "inputs": [],
      "name": "standardsIsAcceptedMapping",
      "outputs": [
        {
          "internalType": "bool",
          "name": "",
          "type": "bool"
        }
      ],
      "stateMutability": "view",
      "type": "function"
    },
    {
      "inputs": [
        {
          "internalType": "bytes4",
          "name": "interfaceId",
          "type": "bytes4"
        }
      ],
      "name": "supportsInterface",
      "outputs": [
        {
          "internalType": "bool",
          "name": "",
          "type": "bool"
        }
      ],
      "stateMutability": "view",
      "type": "function"
    },
    {
      "inputs": [
        {
          "internalType": "string",
          "name": "_mappingName",
          "type": "string"
        },
        {
          "internalType": "bool",
          "name": "accepted",
          "type": "bool"
        }
      ],
      "name": "switchMapping",
      "outputs": [],
      "stateMutability": "nonpayable",
      "type": "function"
    },
    {
      "inputs": [
        {
          "internalType": "address",
          "name": "newOwner",
          "type": "address"
        }
      ],
      "name": "transferOwnership",
      "outputs": [],
      "stateMutability": "nonpayable",
      "type": "function"
    },
    {
      "inputs": [
        {
          "internalType": "address",
          "name": "newImplementation",
          "type": "address"
        }
      ],
      "name": "upgradeTo",
      "outputs": [],
      "stateMutability": "nonpayable",
      "type": "function"
    },
    {
      "inputs": [
        {
          "internalType": "address",
          "name": "newImplementation",
          "type": "address"
        },
        {
          "internalType": "bytes",
          "name": "data",
          "type": "bytes"
        }
      ],
      "name": "upgradeToAndCall",
      "outputs": [],
      "stateMutability": "payable",
      "type": "function"
    }
  ],
  "numDeployments": 1,
  "solcInputHash": "c9fbe8105fc56dfd951227d9caf1b76f",
  "bytecode": "0x60a0604052306080523480156200001557600080fd5b506200002062000026565b62000156565b6200003260ff62000035565b50565b60008054610100900460ff1615620000ce578160ff1660011480156200006e57506200006c306200014760201b6200217c1760201c565b155b620000c65760405162461bcd60e51b815260206004820152602e6024820152600080516020620038ba83398151915260448201526d191e481a5b9a5d1a585b1a5e995960921b60648201526084015b60405180910390fd5b506000919050565b60005460ff8084169116106200012d5760405162461bcd60e51b815260206004820152602e6024820152600080516020620038ba83398151915260448201526d191e481a5b9a5d1a585b1a5e995960921b6064820152608401620000bd565b506000805460ff191660ff92909216919091179055600190565b6001600160a01b03163b151590565b60805161372c6200018e60003960008181610a2801528181610a6801528181610def01528181610e2f0152610ebe015261372c6000f3fe6080604052600436106102675760003560e01c80639891fd1211610144578063d4e457ec116100b6578063e882e37b1161007a578063e882e37b146107b7578063f141b84f146107d7578063f2fde38b146107f9578063f3edb9ec14610819578063f75991cd14610855578063ffa1ad741461089157600080fd5b8063d4e457ec14610715578063d547741f14610737578063d6d10f3a14610757578063dc5f560e14610777578063e0051e2a1461079757600080fd5b8063abd8402111610108578063abd8402114610625578063abf410e514610661578063bd64648e14610682578063c36a2573146106a2578063c42f358a146106c4578063ccbaa818146106e457600080fd5b80639891fd12146105705780639deb50bf14610590578063a1631e4b146105b0578063a217fddf146105f0578063a9a484c51461060557600080fd5b80635c975abb116101dd57806381e48e90116101a157806381e48e9014610482578063850c3864146104a25780638662522f146104c25780638da5cb5b146104fe57806391d148541461053057806395f187a51461055057600080fd5b80635c975abb146103fa57806365918979146104125780636ca0b0d714610443578063715018a6146104585780638129fc1c1461046d57600080fd5b80633659cfe61161022f5780633659cfe61461034157806336c63c701461036157806339cd7a8a14610392578063437d0366146103b25780634f1ef286146103d257806352d1902d146103e557600080fd5b806301ffc9a71461026c5780630c0efecc146102a1578063248a9ca3146102c35780632f2ff15d1461030157806336568abe14610321575b600080fd5b34801561027857600080fd5b5061028c610287366004612a65565b6108cf565b60405190151581526020015b60405180910390f35b3480156102ad57600080fd5b506102c16102bc366004612aa4565b610906565b005b3480156102cf57600080fd5b506102f36102de366004612ac1565b600090815260c9602052604090206001015490565b604051908152602001610298565b34801561030d57600080fd5b506102c161031c366004612aef565b610971565b34801561032d57600080fd5b506102c161033c366004612aef565b61099b565b34801561034d57600080fd5b506102c161035c366004612b1f565b610a1e565b34801561036d57600080fd5b5061028c61037c366004612b1f565b6101646020526000908152604090205460ff1681565b34801561039e57600080fd5b506102c16103ad366004612c61565b610afd565b3480156103be57600080fd5b506102c16103cd366004612cf2565b610c71565b6102c16103e0366004612d5d565b610de5565b3480156103f157600080fd5b506102f3610eb1565b34801561040657600080fd5b5060655460ff1661028c565b34801561041e57600080fd5b5061028c61042d366004612b1f565b6101636020526000908152604090205460ff1681565b34801561044f57600080fd5b506102f3600281565b34801561046457600080fd5b506102c1610f64565b34801561047957600080fd5b506102c1610fca565b34801561048e57600080fd5b506102c161049d366004612e6d565b611038565b3480156104ae57600080fd5b506102c16104bd366004612f07565b611493565b3480156104ce57600080fd5b5061028c6104dd366004612fa0565b805160208183018101805161015f8252928201919093012091525460ff1681565b34801561050a57600080fd5b506033546001600160a01b03165b6040516001600160a01b039091168152602001610298565b34801561053c57600080fd5b5061028c61054b366004612aef565b61156e565b34801561055c57600080fd5b506102c161056b366004612f07565b611599565b34801561057c57600080fd5b506102c161058b366004612f07565b611674565b34801561059c57600080fd5b506102c16105ab366004612f07565b61174f565b3480156105bc57600080fd5b50610165546105d890600160a01b90046001600160401b031681565b6040516001600160401b039091168152602001610298565b3480156105fc57600080fd5b506102f3600081565b34801561061157600080fd5b5061028c610620366004612b1f565b61182a565b34801561063157600080fd5b5061028c610640366004612fdc565b61016660209081526000928352604080842090915290825290205460ff1681565b34801561066d57600080fd5b5061016554610518906001600160a01b031681565b34801561068e57600080fd5b5061028c61069d366004612fdc565b611b40565b3480156106ae57600080fd5b506101655461028c90600160e81b900460ff1681565b3480156106d057600080fd5b506102c16106df366004612f07565b611ba8565b3480156106f057600080fd5b5061028c6106ff366004612b1f565b6101626020526000908152604090205460ff1681565b34801561072157600080fd5b506101655461028c90600160f01b900460ff1681565b34801561074357600080fd5b506102c1610752366004612aef565b611c83565b34801561076357600080fd5b506102c1610772366004612f07565b611ca8565b34801561078357600080fd5b5061028c610792366004612b1f565b611d83565b3480156107a357600080fd5b506102c16107b2366004612cf2565b611ef1565b3480156107c357600080fd5b506102c16107d2366004612b1f565b61205d565b3480156107e357600080fd5b506101655461028c90600160e01b900460ff1681565b34801561080557600080fd5b506102c1610814366004612b1f565b6120b4565b34801561082557600080fd5b5061028c610834366004612fa0565b80516020818301810180516101608252928201919093012091525460ff1681565b34801561086157600080fd5b5061028c610870366004612fa0565b80516020818301810180516101618252928201919093012091525460ff1681565b34801561089d57600080fd5b506108c2604051806040016040528060058152602001640312e302e360dc1b81525081565b6040516102989190613060565b60006001600160e01b03198216637965db0b60e01b148061090057506301ffc9a760e01b6001600160e01b03198316145b92915050565b61090e61218b565b610165805467ffffffffffffffff60a01b1916600160a01b6001600160401b038416908102919091179091556040519081527f87f670402a6c72fff3b60ba5223165f062b58d671871fc2c49ea96101fdd19a0906020015b60405180910390a150565b600082815260c9602052604090206001015461098c816121e1565b61099683836121eb565b505050565b6001600160a01b0381163314610a105760405162461bcd60e51b815260206004820152602f60248201527f416363657373436f6e74726f6c3a2063616e206f6e6c792072656e6f756e636560448201526e103937b632b9903337b91039b2b63360891b60648201526084015b60405180910390fd5b610a1a8282612271565b5050565b6001600160a01b037f0000000000000000000000000000000000000000000000000000000000000000163003610a665760405162461bcd60e51b8152600401610a0790613073565b7f00000000000000000000000000000000000000000000000000000000000000006001600160a01b0316610aaf6000805160206136b0833981519152546001600160a01b031690565b6001600160a01b031614610ad55760405162461bcd60e51b8152600401610a07906130bf565b610ade816122d8565b60408051600080825260208201909252610afa918391906122e0565b50565b610b0561218b565b604080518082019091526007815266726567696f6e7360c81b6020820152610b2e90839061244b565b15610b6a5780610b4d57610165805460ff60e01b191690556000610b64565b610165805460ff60e01b1916600160e01b17905560015b50610c34565b6040805180820190915260098152687374616e646172647360b81b6020820152610b9590839061244b565b15610bcd5780610bb457610165805460ff60e81b191690556000610b64565b610165805460ff60e81b1916600160e81b179055610c34565b60408051808201909152600d81526c6d6574686f646f6c6f6769657360981b6020820152610bfc90839061244b565b15610c345780610c1b57610165805460ff60f01b191690556000610c32565b610165805460ff60f01b1916600160f01b17905560015b505b7fcdc35455a1217219a4240bb18a7d2978eb98208f22f7ec36d6a1381c28f9d0f58282604051610c6592919061310b565b60405180910390a15050565b610c7961218b565b82818114610cb1576040805180820182526002815261189960f11b6020820152905162461bcd60e51b8152610a079190600401613060565b60005b81811015610ddd5760016101666000888885818110610cd557610cd561312f565b9050602002016020810190610cea9190612b1f565b6001600160a01b03166001600160a01b031681526020019081526020016000206000868685818110610d1e57610d1e61312f565b90506020020135815260200190815260200160002060006101000a81548160ff0219169083151502179055507f198e97d55459e132457f017a1cba6e960ac569ae89045a8b978702ffd7ea7977868683818110610d7d57610d7d61312f565b9050602002016020810190610d929190612b1f565b858584818110610da457610da461312f565b604080516001600160a01b0390951685526020918202939093013590840152500160405180910390a1610dd68161315b565b9050610cb4565b505050505050565b6001600160a01b037f0000000000000000000000000000000000000000000000000000000000000000163003610e2d5760405162461bcd60e51b8152600401610a0790613073565b7f00000000000000000000000000000000000000000000000000000000000000006001600160a01b0316610e766000805160206136b0833981519152546001600160a01b031690565b6001600160a01b031614610e9c5760405162461bcd60e51b8152600401610a07906130bf565b610ea5826122d8565b610a1a828260016122e0565b6000306001600160a01b037f00000000000000000000000000000000000000000000000000000000000000001614610f515760405162461bcd60e51b815260206004820152603860248201527f555550535570677261646561626c653a206d757374206e6f742062652063616c60448201527f6c6564207468726f7567682064656c656761746563616c6c00000000000000006064820152608401610a07565b506000805160206136b083398151915290565b6033546001600160a01b03163314610fbe5760405162461bcd60e51b815260206004820181905260248201527f4f776e61626c653a2063616c6c6572206973206e6f7420746865206f776e65726044820152606401610a07565b610fc86000612472565b565b6000610fd660016124c4565b90508015610fee576000805461ff0019166101001790555b610ff6612551565b8015610afa576000805461ff0019169055604051600181527f7f26b83ff96e1f2b6a682f133852f6798a09c465da95921460cefb384740249890602001610966565b61104061218b565b60005b82518110156111ae578415156001036110fc57600161016084838151811061106d5761106d61312f565b60200260200101516040516110829190613174565b908152602001604051809103902060006101000a81548160ff0219169083151502179055507fa27e97999993c298fae0b7088ff732fe078cc1585665ee1554220b3cbe6317a98382815181106110da576110da61312f565b60200260200101516040516110ef9190613060565b60405180910390a161119e565b60006101608483815181106111135761111361312f565b60200260200101516040516111289190613174565b908152602001604051809103902060006101000a81548160ff0219169083151502179055507f0127ddc00426c693b5becb26ba43a260c781ebc323b61d3b24b61e4dc5c93c718382815181106111805761118061312f565b60200260200101516040516111959190613060565b60405180910390a15b6111a78161315b565b9050611043565b5060005b815181101561131d5784151560010361126b5760016101618383815181106111dc576111dc61312f565b60200260200101516040516111f19190613174565b908152602001604051809103902060006101000a81548160ff0219169083151502179055507f156643e9a7f860e95993739893595e6ee1d04d9ff1b98567dbe9d5681cd152b28282815181106112495761124961312f565b602002602001015160405161125e9190613060565b60405180910390a161130d565b60006101618383815181106112825761128261312f565b60200260200101516040516112979190613174565b908152602001604051809103902060006101000a81548160ff0219169083151502179055507f21a77ac4edf49633047cc4e32b10dfe633811216214400e0e1f507c3f7287b618282815181106112ef576112ef61312f565b60200260200101516040516113049190613060565b60405180910390a15b6113168161315b565b90506111b2565b5060005b835181101561148c578415156001036113da57600161015f85838151811061134b5761134b61312f565b60200260200101516040516113609190613174565b908152602001604051809103902060006101000a81548160ff0219169083151502179055507f3df7a1330febee3646ae4a0f0e46c94c046f0ee810b2b7f1fa10fa8f34d7b7ef8482815181106113b8576113b861312f565b60200260200101516040516113cd9190613060565b60405180910390a161147c565b600061015f8583815181106113f1576113f161312f565b60200260200101516040516114069190613174565b908152602001604051809103902060006101000a81548160ff0219169083151502179055507fc84badb33408cce6e89b30a735d8f06e094fa4a19c01c2da66718f490c672f6584828151811061145e5761145e61312f565b60200260200101516040516114739190613060565b60405180910390a15b6114858161315b565b9050611321565b5050505050565b61149b61218b565b60005b8151811015610a1a57600161016460008484815181106114c0576114c061312f565b60200260200101516001600160a01b03166001600160a01b0316815260200190815260200160002060006101000a81548160ff0219169083151502179055507f85fc56aecce1ef094be244fd6b70c13cbc3786dacfb5ddb457eaa6e81924b6728282815181106115325761153261312f565b602002602001015160405161155691906001600160a01b0391909116815260200190565b60405180910390a16115678161315b565b905061149e565b600091825260c9602090815260408084206001600160a01b0393909316845291905290205460ff1690565b6115a161218b565b60005b8151811015610a1a57600161016260008484815181106115c6576115c661312f565b60200260200101516001600160a01b03166001600160a01b0316815260200190815260200160002060006101000a81548160ff0219169083151502179055507f96c62648e20245db42813046d53ed1697aab1c1a06b53092fd5f74f76d9f0e138282815181106116385761163861312f565b602002602001015160405161165c91906001600160a01b0391909116815260200190565b60405180910390a161166d8161315b565b90506115a4565b61167c61218b565b60005b8151811015610a1a57600061016260008484815181106116a1576116a161312f565b60200260200101516001600160a01b03166001600160a01b0316815260200190815260200160002060006101000a81548160ff0219169083151502179055507f25add64d709821cd4d2f0456865755a330b78c8fb0f438088364f480710acc408282815181106117135761171361312f565b602002602001015160405161173791906001600160a01b0391909116815260200190565b60405180910390a16117488161315b565b905061167f565b61175761218b565b60005b8151811015610a1a576000610163600084848151811061177c5761177c61312f565b60200260200101516001600160a01b03166001600160a01b0316815260200190815260200160002060006101000a81548160ff0219169083151502179055507f8c23715cef0c44b9a0c13ba0edb2d13490a2ff75434e8dc238e3dfce2896b2338282815181106117ee576117ee61312f565b602002602001015160405161181291906001600160a01b0391909116815260200190565b60405180910390a16118238161315b565b905061175a565b600061188b60405180610140016040528060608152602001606081526020016060815260200160608152602001606081526020016060815260200160608152602001606081526020016060815260200160006001600160a01b031681525090565b61190e6040518061018001604052806060815260200160006001600160401b0316815260200160006001600160401b031681526020016000815260200160006001600160401b0316815260200160001515815260200160001515815260200160608152602001606081526020016060815260200160608152602001606081525090565b836001600160a01b031663152583de6040518163ffffffff1660e01b8152600401600060405180830381865afa15801561194c573d6000803e3d6000fd5b505050506040513d6000823e601f3d908101601f191682016040526119749190810190613360565b610165546020808301516040805180820190915260018152601b60f91b9281019290925293955091935090916001600160401b03600160a01b9092048216911610156119d35760405162461bcd60e51b8152600401610a079190613060565b50610165601c9054906101000a900460ff16151561015f83606001516040516119fc9190613174565b9081526040805191829003602090810183205483830190925260018352603760f81b90830152909160ff909116151514611a495760405162461bcd60e51b8152600401610a079190613060565b50610165601d9054906101000a900460ff1615156101608360200151604051611a729190613174565b9081526040805191829003602090810183205483830190925260018352600760fb1b90830152909160ff909116151514611abf5760405162461bcd60e51b8152600401610a079190613060565b50610165601e9054906101000a900460ff1615156101618360400151604051611ae89190613174565b9081526040805191829003602090810183205483830190925260018352603960f81b90830152909160ff909116151514611b355760405162461bcd60e51b8152600401610a079190613060565b506001949350505050565b6001600160a01b038216600090815261016660209081526040808320848452825280832054815180830190925260018252603560f81b928201929092529060ff16611b9e5760405162461bcd60e51b8152600401610a079190613060565b5060019392505050565b611bb061218b565b60005b8151811015610a1a5760016101636000848481518110611bd557611bd561312f565b60200260200101516001600160a01b03166001600160a01b0316815260200190815260200160002060006101000a81548160ff0219169083151502179055507f6e22096f78ca0e0ca190f9724d8a2ded2155ade3a469817cb9e95989a5124823828281518110611c4757611c4761312f565b6020026020010151604051611c6b91906001600160a01b0391909116815260200190565b60405180910390a1611c7c8161315b565b9050611bb3565b600082815260c96020526040902060010154611c9e816121e1565b6109968383612271565b611cb061218b565b60005b8151811015610a1a5760006101646000848481518110611cd557611cd561312f565b60200260200101516001600160a01b03166001600160a01b0316815260200190815260200160002060006101000a81548160ff0219169083151502179055507f4a522111770e286506eab11ca1d3cb5ca4a24a84458affbb5372bec78340102e828281518110611d4757611d4761312f565b6020026020010151604051611d6b91906001600160a01b0391909116815260200190565b60405180910390a1611d7c8161315b565b9050611cb3565b61016554604051633a37b16d60e11b81526001600160a01b038381166004830152600092839291169063746f62da90602401602060405180830381865afa158015611dd2573d6000803e3d6000fd5b505050506040513d601f19601f82011682018060405250810190611df6919061351d565b90508015611e90576001600160a01b0383166000908152610163602052604090205460ff1615611e295750600192915050565b6001600160a01b0383166000908152610164602090815260409182902054825180840190935260018352600d60fa1b9183019190915260ff1615611e805760405162461bcd60e51b8152600401610a079190613060565b50611e8a8361182a565b50611ee8565b6001600160a01b0383166000908152610162602090815260409182902054825180840190935260018352603560f81b9183019190915260ff16611ee65760405162461bcd60e51b8152600401610a079190613060565b505b50600192915050565b611ef961218b565b82818114611f31576040805180820182526002815261189960f11b6020820152905162461bcd60e51b8152610a079190600401613060565b60005b81811015610ddd5760006101666000888885818110611f5557611f5561312f565b9050602002016020810190611f6a9190612b1f565b6001600160a01b03166001600160a01b031681526020019081526020016000206000868685818110611f9e57611f9e61312f565b90506020020135815260200190815260200160002060006101000a81548160ff0219169083151502179055507ff62e4e7e6461caa7928ab1decfa538ceda320c494d2e23ecf29dc5a11a24bdcd868683818110611ffd57611ffd61312f565b90506020020160208101906120129190612b1f565b8585848181106120245761202461312f565b604080516001600160a01b0390951685526020918202939093013590840152500160405180910390a16120568161315b565b9050611f34565b61206561218b565b61016580546001600160a01b0319166001600160a01b0383169081179091556040519081527f86907b53cf2024579968511876daf0b4620d65803b550e33101baf70aeb6f5eb90602001610966565b6033546001600160a01b0316331461210e5760405162461bcd60e51b815260206004820181905260248201527f4f776e61626c653a2063616c6c6572206973206e6f7420746865206f776e65726044820152606401610a07565b6001600160a01b0381166121735760405162461bcd60e51b815260206004820152602660248201527f4f776e61626c653a206e6577206f776e657220697320746865207a65726f206160448201526564647265737360d01b6064820152608401610a07565b610afa81612472565b6001600160a01b03163b151590565b3361219e6033546001600160a01b031690565b6001600160a01b03161460405180604001604052806002815260200161062760f31b81525090610afa5760405162461bcd60e51b8152600401610a079190613060565b610afa81336125a8565b6121f5828261156e565b610a1a57600082815260c9602090815260408083206001600160a01b03851684529091529020805460ff1916600117905561222d3390565b6001600160a01b0316816001600160a01b0316837f2f8788117e7eff1d82e926ec794901d17c78024a50270940304540a733656f0d60405160405180910390a45050565b61227b828261156e565b15610a1a57600082815260c9602090815260408083206001600160a01b0385168085529252808320805460ff1916905551339285917ff6391f5c32d9c69d2a47ea670b442974b53935d1edc7fd64eb21e047a839171b9190a45050565b610afa61218b565b7f4910fdfa16fed3260ed0e7147f7cc6da11a60208b5b9406d12a635614ffd91435460ff1615612313576109968361260c565b826001600160a01b03166352d1902d6040518163ffffffff1660e01b8152600401602060405180830381865afa92505050801561236d575060408051601f3d908101601f1916820190925261236a9181019061353a565b60015b6123d05760405162461bcd60e51b815260206004820152602e60248201527f45524331393637557067726164653a206e657720696d706c656d656e7461746960448201526d6f6e206973206e6f74205555505360901b6064820152608401610a07565b6000805160206136b0833981519152811461243f5760405162461bcd60e51b815260206004820152602960248201527f45524331393637557067726164653a20756e737570706f727465642070726f786044820152681a58589b195555525160ba1b6064820152608401610a07565b506109968383836126a8565b60008151835114801561246b575081805190602001208380519060200120145b9392505050565b603380546001600160a01b038381166001600160a01b0319831681179093556040519116919082907f8be0079c531659141344cd1fd0a4f28419497f9722a3daafe3b4186f6b6457e090600090a35050565b60008054610100900460ff161561250b578160ff1660011480156124e75750303b155b6125035760405162461bcd60e51b8152600401610a0790613553565b506000919050565b60005460ff8084169116106125325760405162461bcd60e51b8152600401610a0790613553565b506000805460ff191660ff92909216919091179055600190565b919050565b600061255d60016124c4565b90508015612575576000805461ff0019166101001790555b61257d6126d3565b6125856126fa565b61258d61272a565b6125956126d3565b61259d6126d3565b610ff66000336121eb565b6125b2828261156e565b610a1a576125ca816001600160a01b0316601461275d565b6125d583602061275d565b6040516020016125e69291906135a1565b60408051601f198184030181529082905262461bcd60e51b8252610a0791600401613060565b6001600160a01b0381163b6126795760405162461bcd60e51b815260206004820152602d60248201527f455243313936373a206e657720696d706c656d656e746174696f6e206973206e60448201526c1bdd08184818dbdb9d1c9858dd609a1b6064820152608401610a07565b6000805160206136b083398151915280546001600160a01b0319166001600160a01b0392909216919091179055565b6126b1836128f8565b6000825111806126be5750805b15610996576126cd8383612938565b50505050565b600054610100900460ff16610fc85760405162461bcd60e51b8152600401610a0790613616565b600054610100900460ff166127215760405162461bcd60e51b8152600401610a0790613616565b610fc833612472565b600054610100900460ff166127515760405162461bcd60e51b8152600401610a0790613616565b6065805460ff19169055565b6060600061276c836002613661565b612777906002613680565b6001600160401b0381111561278e5761278e612b3c565b6040519080825280601f01601f1916602001820160405280156127b8576020820181803683370190505b509050600360fc1b816000815181106127d3576127d361312f565b60200101906001600160f81b031916908160001a905350600f60fb1b816001815181106128025761280261312f565b60200101906001600160f81b031916908160001a9053506000612826846002613661565b612831906001613680565b90505b60018111156128a9576f181899199a1a9b1b9c1cb0b131b232b360811b85600f16601081106128655761286561312f565b1a60f81b82828151811061287b5761287b61312f565b60200101906001600160f81b031916908160001a90535060049490941c936128a281613698565b9050612834565b50831561246b5760405162461bcd60e51b815260206004820181905260248201527f537472696e67733a20686578206c656e67746820696e73756666696369656e746044820152606401610a07565b6129018161260c565b6040516001600160a01b038216907fbc7cd75a20ee27fd9adebab32041f755214dbc6bffa90cc0225b39da2e5c2d3b90600090a250565b60606001600160a01b0383163b6129a05760405162461bcd60e51b815260206004820152602660248201527f416464726573733a2064656c65676174652063616c6c20746f206e6f6e2d636f6044820152651b9d1c9858dd60d21b6064820152608401610a07565b600080846001600160a01b0316846040516129bb9190613174565b600060405180830381855af49150503d80600081146129f6576040519150601f19603f3d011682016040523d82523d6000602084013e6129fb565b606091505b5091509150612a2382826040518060600160405280602781526020016136d060279139612a2c565b95945050505050565b60608315612a3b57508161246b565b825115612a4b5782518084602001fd5b8160405162461bcd60e51b8152600401610a079190613060565b600060208284031215612a7757600080fd5b81356001600160e01b03198116811461246b57600080fd5b6001600160401b0381168114610afa57600080fd5b600060208284031215612ab657600080fd5b813561246b81612a8f565b600060208284031215612ad357600080fd5b5035919050565b6001600160a01b0381168114610afa57600080fd5b60008060408385031215612b0257600080fd5b823591506020830135612b1481612ada565b809150509250929050565b600060208284031215612b3157600080fd5b813561246b81612ada565b634e487b7160e01b600052604160045260246000fd5b60405161018081016001600160401b0381118282101715612b7557612b75612b3c565b60405290565b60405161014081016001600160401b0381118282101715612b7557612b75612b3c565b604051601f8201601f191681016001600160401b0381118282101715612bc657612bc6612b3c565b604052919050565b60006001600160401b03821115612be757612be7612b3c565b50601f01601f191660200190565b6000612c08612c0384612bce565b612b9e565b9050828152838383011115612c1c57600080fd5b828260208301376000602084830101529392505050565b600082601f830112612c4457600080fd5b61246b83833560208501612bf5565b8015158114610afa57600080fd5b60008060408385031215612c7457600080fd5b82356001600160401b03811115612c8a57600080fd5b612c9685828601612c33565b9250506020830135612b1481612c53565b60008083601f840112612cb957600080fd5b5081356001600160401b03811115612cd057600080fd5b6020830191508360208260051b8501011115612ceb57600080fd5b9250929050565b60008060008060408587031215612d0857600080fd5b84356001600160401b0380821115612d1f57600080fd5b612d2b88838901612ca7565b90965094506020870135915080821115612d4457600080fd5b50612d5187828801612ca7565b95989497509550505050565b60008060408385031215612d7057600080fd5b8235612d7b81612ada565b915060208301356001600160401b03811115612d9657600080fd5b8301601f81018513612da757600080fd5b612db685823560208401612bf5565b9150509250929050565b60006001600160401b03821115612dd957612dd9612b3c565b5060051b60200190565b600082601f830112612df457600080fd5b81356020612e04612c0383612dc0565b82815260059290921b84018101918181019086841115612e2357600080fd5b8286015b84811015612e625780356001600160401b03811115612e465760008081fd5b612e548986838b0101612c33565b845250918301918301612e27565b509695505050505050565b60008060008060808587031215612e8357600080fd5b8435612e8e81612c53565b935060208501356001600160401b0380821115612eaa57600080fd5b612eb688838901612de3565b94506040870135915080821115612ecc57600080fd5b612ed888838901612de3565b93506060870135915080821115612eee57600080fd5b50612efb87828801612de3565b91505092959194509250565b60006020808385031215612f1a57600080fd5b82356001600160401b03811115612f3057600080fd5b8301601f81018513612f4157600080fd5b8035612f4f612c0382612dc0565b81815260059190911b82018301908381019087831115612f6e57600080fd5b928401925b82841015612f95578335612f8681612ada565b82529284019290840190612f73565b979650505050505050565b600060208284031215612fb257600080fd5b81356001600160401b03811115612fc857600080fd5b612fd484828501612c33565b949350505050565b60008060408385031215612fef57600080fd5b8235612ffa81612ada565b946020939093013593505050565b60005b8381101561302357818101518382015260200161300b565b838111156126cd5750506000910152565b6000815180845261304c816020860160208601613008565b601f01601f19169290920160200192915050565b60208152600061246b6020830184613034565b6020808252602c908201527f46756e6374696f6e206d7573742062652063616c6c6564207468726f7567682060408201526b19195b1959d85d1958d85b1b60a21b606082015260800190565b6020808252602c908201527f46756e6374696f6e206d7573742062652063616c6c6564207468726f7567682060408201526b6163746976652070726f787960a01b606082015260800190565b60408152600061311e6040830185613034565b905082151560208301529392505050565b634e487b7160e01b600052603260045260246000fd5b634e487b7160e01b600052601160045260246000fd5b60006001820161316d5761316d613145565b5060010190565b60008251613186818460208701613008565b9190910192915050565b600082601f8301126131a157600080fd5b81516131af612c0382612bce565b8181528460208386010111156131c457600080fd5b612fd4826020830160208701613008565b805161254c81612ada565b805161254c81612a8f565b805161254c81612c53565b6000610180828403121561320957600080fd5b613211612b52565b905081516001600160401b038082111561322a57600080fd5b61323685838601613190565b8352613244602085016131e0565b6020840152613255604085016131e0565b604084015260608401516060840152613270608085016131e0565b608084015261328160a085016131eb565b60a084015261329260c085016131eb565b60c084015260e08401519150808211156132ab57600080fd5b6132b785838601613190565b60e0840152610100915081840151818111156132d257600080fd5b6132de86828701613190565b8385015250610120915081840151818111156132f957600080fd5b61330586828701613190565b83850152506101409150818401518181111561332057600080fd5b61332c86828701613190565b83850152506101609150818401518181111561334757600080fd5b61335386828701613190565b8385015250505092915050565b6000806040838503121561337357600080fd5b82516001600160401b038082111561338a57600080fd5b90840190610140828703121561339f57600080fd5b6133a7612b7b565b8251828111156133b657600080fd5b6133c288828601613190565b8252506020830151828111156133d757600080fd5b6133e388828601613190565b6020830152506040830151828111156133fb57600080fd5b61340788828601613190565b60408301525060608301518281111561341f57600080fd5b61342b88828601613190565b60608301525060808301518281111561344357600080fd5b61344f88828601613190565b60808301525060a08301518281111561346757600080fd5b61347388828601613190565b60a08301525060c08301518281111561348b57600080fd5b61349788828601613190565b60c08301525060e0830151828111156134af57600080fd5b6134bb88828601613190565b60e08301525061010080840151838111156134d557600080fd5b6134e189828701613190565b8284015250506101206134f58185016131d5565b90820152602086015190945091508082111561351057600080fd5b50612db6858286016131f6565b60006020828403121561352f57600080fd5b815161246b81612c53565b60006020828403121561354c57600080fd5b5051919050565b6020808252602e908201527f496e697469616c697a61626c653a20636f6e747261637420697320616c72656160408201526d191e481a5b9a5d1a585b1a5e995960921b606082015260800190565b7f416363657373436f6e74726f6c3a206163636f756e74200000000000000000008152600083516135d9816017850160208801613008565b7001034b99036b4b9b9b4b733903937b6329607d1b601791840191820152835161360a816028840160208801613008565b01602801949350505050565b6020808252602b908201527f496e697469616c697a61626c653a20636f6e7472616374206973206e6f74206960408201526a6e697469616c697a696e6760a81b606082015260800190565b600081600019048311821515161561367b5761367b613145565b500290565b6000821982111561369357613693613145565b500190565b6000816136a7576136a7613145565b50600019019056fe360894a13ba1a3210667c828492db98dca3e2076cc3735a920a3ca505d382bbc416464726573733a206c6f772d6c6576656c2064656c65676174652063616c6c206661696c6564a264697066735822122012513a7351f6077fe93bcb8749fe42174c87557fea5268ee0aa8b1f40fda22a964736f6c634300080e0033496e697469616c697a61626c653a20636f6e747261637420697320616c726561",
  "devdoc": {
    "kind": "dev",
    "methods": {
      "addAttributes(bool,string[],string[],string[])": {
        "params": {
          "addToList": "determines whether attribute should be added or removed Other params are arrays of attributes to be added"
        }
      },
      "addToExternalAllowlist(address[])": {
        "params": {
          "erc20Addr": "accepts an array of contract addresses"
        }
      },
      "addToExternalERC1155Allowlist(address[],uint256[])": {
        "details": "Both arrays must be of the same length. Each token address is associated with the token ID at the same index.",
        "params": {
          "tokenAddresses": "An array of contract addresses",
          "tokenIds": "An array of token IDs"
        }
      },
      "addToInternalAllowlist(address[])": {
        "params": {
          "erc20Addr": "accepts an array of contract addresses"
        }
      },
      "addToInternalBlocklist(address[])": {
        "params": {
          "erc20Addr": "accepts an array of contract addresses"
        }
      },
      "checkERC1155Eligible(address,uint256)": {
        "params": {
          "tokenAddress": "address of the ERC1155 token",
          "tokenId": "ID of the ERC1155 token"
        },
        "returns": {
          "_0": "true if token is eligible, reverts otherwise"
        }
      },
      "getRoleAdmin(bytes32)": {
        "details": "Returns the admin role that controls `role`. See {grantRole} and {revokeRole}. To change a role's admin, use {_setRoleAdmin}."
      },
      "grantRole(bytes32,address)": {
        "details": "Grants `role` to `account`. If `account` had not been already granted `role`, emits a {RoleGranted} event. Requirements: - the caller must have ``role``'s admin role."
      },
      "hasRole(bytes32,address)": {
        "details": "Returns `true` if `account` has been granted `role`."
      },
      "owner()": {
        "details": "Returns the address of the current owner."
      },
      "paused()": {
        "details": "Returns true if the contract is paused, and false otherwise."
      },
      "proxiableUUID()": {
        "details": "Implementation of the ERC1822 {proxiableUUID} function. This returns the storage slot used by the implementation. It is used to validate that the this implementation remains valid after an upgrade. IMPORTANT: A proxy pointing at a proxiable contract should not be considered proxiable itself, because this risks bricking a proxy that upgrades to it, by delegating to itself until out of gas. Thus it is critical that this function revert if invoked through a proxy. This is guaranteed by the `notDelegated` modifier."
      },
      "removeFromExternalAllowlist(address[])": {
        "params": {
          "erc20Addr": "accepts an array of contract addresses"
        }
      },
      "removeFromExternalERC1155Allowlist(address[],uint256[])": {
        "details": "Both arrays must be of the same length. Each token address is associated with the token ID at the same index.",
        "params": {
          "tokenAddresses": "An array of contract addresses",
          "tokenIds": "An array of token IDs"
        }
      },
      "removeFromInternalAllowlist(address[])": {
        "params": {
          "erc20Addr": "accepts an array of contract addressesc"
        }
      },
      "removeFromInternalBlocklist(address[])": {
        "params": {
          "erc20Addr": "accepts an array of contract addresses"
        }
      },
      "renounceOwnership()": {
        "details": "Leaves the contract without owner. It will not be possible to call `onlyOwner` functions anymore. Can only be called by the current owner. NOTE: Renouncing ownership will leave the contract without an owner, thereby removing any functionality that is only available to the owner."
      },
      "renounceRole(bytes32,address)": {
        "details": "Revokes `role` from the calling account. Roles are often managed via {grantRole} and {revokeRole}: this function's purpose is to provide a mechanism for accounts to lose their privileges if they are compromised (such as when a trusted device is misplaced). If the calling account had been revoked `role`, emits a {RoleRevoked} event. Requirements: - the caller must be `account`."
      },
      "revokeRole(bytes32,address)": {
        "details": "Revokes `role` from `account`. If `account` had been granted `role`, emits a {RoleRevoked} event. Requirements: - the caller must have ``role``'s admin role."
      },
      "setMinimumVintageStartTime(uint64)": {
        "params": {
          "_minimumVintageStartTime": "unix time format"
        }
      },
      "supportsInterface(bytes4)": {
        "details": "See {IERC165-supportsInterface}."
      },
      "switchMapping(string,bool)": {
        "params": {
          "_mappingName": "attribute mapping of project-vintage data",
          "accepted": "determines if mapping works as a blocklist or allowlist"
        }
      },
      "transferOwnership(address)": {
        "details": "Transfers ownership of the contract to a new account (`newOwner`). Can only be called by the current owner."
      },
      "upgradeTo(address)": {
        "details": "Upgrade the implementation of the proxy to `newImplementation`. Calls {_authorizeUpgrade}. Emits an {Upgraded} event."
      },
      "upgradeToAndCall(address,bytes)": {
        "details": "Upgrade the implementation of the proxy to `newImplementation`, and subsequently execute the function call encoded in `data`. Calls {_authorizeUpgrade}. Emits an {Upgraded} event."
      }
    },
    "version": 1
  },
  "userdoc": {
    "kind": "user",
    "methods": {
      "addAttributes(bool,string[],string[],string[])": {
        "notice": "Function to add attributes for filtering (does not support complex AttributeSets)"
      },
      "addToExternalAllowlist(address[])": {
        "notice": "Function to allowlist selected external non-TCO2 contracts by their address"
      },
      "addToExternalERC1155Allowlist(address[],uint256[])": {
        "notice": "Add ERC-1155 tokens to external allowlist"
      },
      "addToInternalAllowlist(address[])": {
        "notice": "Function to allowlist certain TCO2 contracts by their address"
      },
      "addToInternalBlocklist(address[])": {
        "notice": "Function to blocklist certain TCO2 contracts by their address"
      },
      "checkAttributeMatching(address)": {
        "notice": "Checks whether incoming ERC20s match the accepted criteria/attributes"
      },
      "checkERC1155Eligible(address,uint256)": {
        "notice": "Checks if an ERC-1155 token is eligible for this pool"
      },
      "checkEligible(address)": {
        "notice": "Checks if an ERC-20 token is eligible for this pool"
      },
      "removeFromExternalAllowlist(address[])": {
        "notice": "Function to remove ERC20 addresses from external allowlist"
      },
      "removeFromExternalERC1155Allowlist(address[],uint256[])": {
        "notice": "Remove ERC-1155 tokens from external allowlist"
      },
      "removeFromInternalAllowlist(address[])": {
        "notice": "Function to remove TCO2 addresses from internal allowlist"
      },
      "removeFromInternalBlocklist(address[])": {
        "notice": "Function to remove TCO2 addresses from internal blocklist"
      },
      "setMinimumVintageStartTime(uint64)": {
        "notice": "Determines the minimum vintage start time acceptance criteria of ERC20s"
      },
      "switchMapping(string,bool)": {
        "notice": "Generic function to switch attributes mappings into either acceptance or rejection criteria"
      }
    },
    "version": 1
  },
  "storageLayout": {
    "storage": [
      {
        "astId": 2390,
        "contract": "contracts/pools/BiocharFilter.sol:BiocharFilter",
        "label": "_initialized",
        "offset": 0,
        "slot": "0",
        "type": "t_uint8"
      },
      {
        "astId": 2393,
        "contract": "contracts/pools/BiocharFilter.sol:BiocharFilter",
        "label": "_initializing",
        "offset": 1,
        "slot": "0",
        "type": "t_bool"
      },
      {
        "astId": 5494,
        "contract": "contracts/pools/BiocharFilter.sol:BiocharFilter",
        "label": "__gap",
        "offset": 0,
        "slot": "1",
        "type": "t_array(t_uint256)50_storage"
      },
      {
        "astId": 1881,
        "contract": "contracts/pools/BiocharFilter.sol:BiocharFilter",
        "label": "_owner",
        "offset": 0,
        "slot": "51",
        "type": "t_address"
      },
      {
        "astId": 1993,
        "contract": "contracts/pools/BiocharFilter.sol:BiocharFilter",
        "label": "__gap",
        "offset": 0,
        "slot": "52",
        "type": "t_array(t_uint256)49_storage"
      },
      {
        "astId": 2682,
        "contract": "contracts/pools/BiocharFilter.sol:BiocharFilter",
        "label": "_paused",
        "offset": 0,
        "slot": "101",
        "type": "t_bool"
      },
      {
        "astId": 2771,
        "contract": "contracts/pools/BiocharFilter.sol:BiocharFilter",
        "label": "__gap",
        "offset": 0,
        "slot": "102",
        "type": "t_array(t_uint256)49_storage"
      },
      {
        "astId": 5801,
        "contract": "contracts/pools/BiocharFilter.sol:BiocharFilter",
        "label": "__gap",
        "offset": 0,
        "slot": "151",
        "type": "t_array(t_uint256)50_storage"
      },
      {
        "astId": 1497,
        "contract": "contracts/pools/BiocharFilter.sol:BiocharFilter",
        "label": "_roles",
        "offset": 0,
        "slot": "201",
        "type": "t_mapping(t_bytes32,t_struct(RoleData)1492_storage)"
      },
      {
        "astId": 1796,
        "contract": "contracts/pools/BiocharFilter.sol:BiocharFilter",
        "label": "__gap",
        "offset": 0,
        "slot": "202",
        "type": "t_array(t_uint256)49_storage"
      },
      {
        "astId": 2372,
        "contract": "contracts/pools/BiocharFilter.sol:BiocharFilter",
        "label": "__gap",
        "offset": 0,
        "slot": "251",
        "type": "t_array(t_uint256)50_storage"
      },
      {
        "astId": 2660,
        "contract": "contracts/pools/BiocharFilter.sol:BiocharFilter",
        "label": "__gap",
        "offset": 0,
        "slot": "301",
        "type": "t_array(t_uint256)50_storage"
      },
      {
        "astId": 24500,
        "contract": "contracts/pools/BiocharFilter.sol:BiocharFilter",
        "label": "regions",
        "offset": 0,
        "slot": "351",
        "type": "t_mapping(t_string_memory_ptr,t_bool)"
      },
      {
        "astId": 24504,
        "contract": "contracts/pools/BiocharFilter.sol:BiocharFilter",
        "label": "standards",
        "offset": 0,
        "slot": "352",
        "type": "t_mapping(t_string_memory_ptr,t_bool)"
      },
      {
        "astId": 24508,
        "contract": "contracts/pools/BiocharFilter.sol:BiocharFilter",
        "label": "methodologies",
        "offset": 0,
        "slot": "353",
        "type": "t_mapping(t_string_memory_ptr,t_bool)"
      },
      {
        "astId": 24513,
        "contract": "contracts/pools/BiocharFilter.sol:BiocharFilter",
        "label": "externalAllowlist",
        "offset": 0,
        "slot": "354",
        "type": "t_mapping(t_address,t_bool)"
      },
      {
        "astId": 24518,
        "contract": "contracts/pools/BiocharFilter.sol:BiocharFilter",
        "label": "internalAllowlist",
        "offset": 0,
        "slot": "355",
        "type": "t_mapping(t_address,t_bool)"
      },
      {
        "astId": 24523,
        "contract": "contracts/pools/BiocharFilter.sol:BiocharFilter",
        "label": "internalBlocklist",
        "offset": 0,
        "slot": "356",
        "type": "t_mapping(t_address,t_bool)"
      },
      {
        "astId": 24526,
        "contract": "contracts/pools/BiocharFilter.sol:BiocharFilter",
        "label": "contractRegistry",
        "offset": 0,
        "slot": "357",
        "type": "t_address"
      },
      {
        "astId": 24528,
        "contract": "contracts/pools/BiocharFilter.sol:BiocharFilter",
        "label": "minimumVintageStartTime",
        "offset": 20,
        "slot": "357",
        "type": "t_uint64"
      },
      {
        "astId": 24531,
        "contract": "contracts/pools/BiocharFilter.sol:BiocharFilter",
        "label": "regionsIsAcceptedMapping",
        "offset": 28,
        "slot": "357",
        "type": "t_bool"
      },
      {
        "astId": 24533,
        "contract": "contracts/pools/BiocharFilter.sol:BiocharFilter",
        "label": "standardsIsAcceptedMapping",
        "offset": 29,
        "slot": "357",
        "type": "t_bool"
      },
      {
        "astId": 24535,
        "contract": "contracts/pools/BiocharFilter.sol:BiocharFilter",
        "label": "methodologiesIsAcceptedMapping",
        "offset": 30,
        "slot": "357",
        "type": "t_bool"
      },
      {
        "astId": 24543,
        "contract": "contracts/pools/BiocharFilter.sol:BiocharFilter",
        "label": "externalERC1155Allowlist",
        "offset": 0,
        "slot": "358",
        "type": "t_mapping(t_address,t_mapping(t_uint256,t_bool))"
      }
    ],
    "types": {
      "t_address": {
        "encoding": "inplace",
        "label": "address",
        "numberOfBytes": "20"
      },
      "t_array(t_uint256)49_storage": {
        "base": "t_uint256",
        "encoding": "inplace",
        "label": "uint256[49]",
        "numberOfBytes": "1568"
      },
      "t_array(t_uint256)50_storage": {
        "base": "t_uint256",
        "encoding": "inplace",
        "label": "uint256[50]",
        "numberOfBytes": "1600"
      },
      "t_bool": {
        "encoding": "inplace",
        "label": "bool",
        "numberOfBytes": "1"
      },
      "t_bytes32": {
        "encoding": "inplace",
        "label": "bytes32",
        "numberOfBytes": "32"
      },
      "t_mapping(t_address,t_bool)": {
        "encoding": "mapping",
        "key": "t_address",
        "label": "mapping(address => bool)",
        "numberOfBytes": "32",
        "value": "t_bool"
      },
      "t_mapping(t_address,t_mapping(t_uint256,t_bool))": {
        "encoding": "mapping",
        "key": "t_address",
        "label": "mapping(address => mapping(uint256 => bool))",
        "numberOfBytes": "32",
        "value": "t_mapping(t_uint256,t_bool)"
      },
      "t_mapping(t_bytes32,t_struct(RoleData)1492_storage)": {
        "encoding": "mapping",
        "key": "t_bytes32",
        "label": "mapping(bytes32 => struct AccessControlUpgradeable.RoleData)",
        "numberOfBytes": "32",
        "value": "t_struct(RoleData)1492_storage"
      },
      "t_mapping(t_string_memory_ptr,t_bool)": {
        "encoding": "mapping",
        "key": "t_string_memory_ptr",
        "label": "mapping(string => bool)",
        "numberOfBytes": "32",
        "value": "t_bool"
      },
      "t_mapping(t_uint256,t_bool)": {
        "encoding": "mapping",
        "key": "t_uint256",
        "label": "mapping(uint256 => bool)",
        "numberOfBytes": "32",
        "value": "t_bool"
      },
      "t_string_memory_ptr": {
        "encoding": "bytes",
        "label": "string",
        "numberOfBytes": "32"
      },
      "t_struct(RoleData)1492_storage": {
        "encoding": "inplace",
        "label": "struct AccessControlUpgradeable.RoleData",
        "members": [
          {
            "astId": 1489,
            "contract": "contracts/pools/BiocharFilter.sol:BiocharFilter",
            "label": "members",
            "offset": 0,
            "slot": "0",
            "type": "t_mapping(t_address,t_bool)"
          },
          {
            "astId": 1491,
            "contract": "contracts/pools/BiocharFilter.sol:BiocharFilter",
            "label": "adminRole",
            "offset": 0,
            "slot": "1",
            "type": "t_bytes32"
          }
        ],
        "numberOfBytes": "64"
      },
      "t_uint256": {
        "encoding": "inplace",
        "label": "uint256",
        "numberOfBytes": "32"
      },
      "t_uint64": {
        "encoding": "inplace",
        "label": "uint64",
        "numberOfBytes": "8"
      },
      "t_uint8": {
        "encoding": "inplace",
        "label": "uint8",
        "numberOfBytes": "1"
      }
    }
  }
}