{
  "address": "0xf92f74Dd03f9A9E04773cE5fF3BCeaBB2eB1dDf0",
  "abi": [
    {
      "anonymous": false,
      "inputs": [
        {
          "indexed": false,
          "internalType": "address",
          "name": "tco2",
          "type": "address"
        }
      ],
      "name": "AddFeeExemptedTCO2",
      "type": "event"
    },
    {
      "anonymous": false,
      "inputs": [
        {
          "indexed": false,
          "internalType": "address",
          "name": "previousAdmin",
          "type": "address"
        },
        {
          "indexed": false,
          "internalType": "address",
          "name": "newAdmin",
          "type": "address"
        }
      ],
      "name": "AdminChanged",
      "type": "event"
    },
    {
      "anonymous": false,
      "inputs": [
        {
          "indexed": true,
          "internalType": "address",
          "name": "owner",
          "type": "address"
        },
        {
          "indexed": true,
          "internalType": "address",
          "name": "spender",
          "type": "address"
        },
        {
          "indexed": false,
          "internalType": "uint256",
          "name": "value",
          "type": "uint256"
        }
      ],
      "name": "Approval",
      "type": "event"
    },
    {
      "anonymous": false,
      "inputs": [
        {
          "indexed": true,
          "internalType": "address",
          "name": "beacon",
          "type": "address"
        }
      ],
      "name": "BeaconUpgraded",
      "type": "event"
    },
    {
      "anonymous": false,
      "inputs": [
        {
          "indexed": false,
          "internalType": "address",
          "name": "depositor",
          "type": "address"
        },
        {
          "indexed": false,
          "internalType": "uint256",
          "name": "fees",
          "type": "uint256"
        }
      ],
      "name": "DepositFeePaid",
      "type": "event"
    },
    {
      "anonymous": false,
      "inputs": [
        {
          "indexed": false,
          "internalType": "address",
          "name": "erc20Addr",
          "type": "address"
        },
        {
          "indexed": false,
          "internalType": "uint256",
          "name": "amount",
          "type": "uint256"
        }
      ],
      "name": "Deposited",
      "type": "event"
    },
    {
      "anonymous": false,
      "inputs": [
        {
          "indexed": false,
          "internalType": "address",
          "name": "feeCalculator",
          "type": "address"
        }
      ],
      "name": "FeeCalculatorUpdated",
      "type": "event"
    },
    {
      "anonymous": false,
      "inputs": [
        {
          "indexed": false,
          "internalType": "address",
          "name": "filter",
          "type": "address"
        }
      ],
      "name": "FilterUpdated",
      "type": "event"
    },
    {
      "anonymous": false,
      "inputs": [
        {
          "indexed": false,
          "internalType": "uint8",
          "name": "version",
          "type": "uint8"
        }
      ],
      "name": "Initialized",
      "type": "event"
    },
    {
      "anonymous": false,
      "inputs": [
        {
          "indexed": false,
          "internalType": "uint256",
          "name": "newThreshold",
          "type": "uint256"
        }
      ],
      "name": "MinimumTCLSeedingThresholdUpdated",
      "type": "event"
    },
    {
      "anonymous": false,
      "inputs": [
        {
          "indexed": true,
          "internalType": "address",
          "name": "previousOwner",
          "type": "address"
        },
        {
          "indexed": true,
          "internalType": "address",
          "name": "newOwner",
          "type": "address"
        }
      ],
      "name": "OwnershipTransferred",
      "type": "event"
    },
    {
      "anonymous": false,
      "inputs": [
        {
          "indexed": false,
          "internalType": "address",
          "name": "account",
          "type": "address"
        }
      ],
      "name": "Paused",
      "type": "event"
    },
    {
      "anonymous": false,
      "inputs": [
        {
          "indexed": false,
          "internalType": "uint256",
          "name": "feeBp",
          "type": "uint256"
        }
      ],
      "name": "RedeemBurnFeeUpdated",
      "type": "event"
    },
    {
      "anonymous": false,
      "inputs": [
        {
          "indexed": false,
          "internalType": "address",
          "name": "receiver",
          "type": "address"
        }
      ],
      "name": "RedeemFeeBurnAddressUpdated",
      "type": "event"
    },
    {
      "anonymous": false,
      "inputs": [
        {
          "indexed": false,
          "internalType": "address",
          "name": "redeemer",
          "type": "address"
        },
        {
          "indexed": false,
          "internalType": "uint256",
          "name": "fees",
          "type": "uint256"
        }
      ],
      "name": "RedeemFeeBurnt",
      "type": "event"
    },
    {
      "anonymous": false,
      "inputs": [
        {
          "indexed": false,
          "internalType": "address",
          "name": "exemptedUser",
          "type": "address"
        },
        {
          "indexed": false,
          "internalType": "bool",
          "name": "isExempted",
          "type": "bool"
        }
      ],
      "name": "RedeemFeeExempted",
      "type": "event"
    },
    {
      "anonymous": false,
      "inputs": [
        {
          "indexed": false,
          "internalType": "address",
          "name": "redeemer",
          "type": "address"
        },
        {
          "indexed": false,
          "internalType": "uint256",
          "name": "fees",
          "type": "uint256"
        }
      ],
      "name": "RedeemFeePaid",
      "type": "event"
    },
    {
      "anonymous": false,
      "inputs": [
        {
          "indexed": false,
          "internalType": "address",
          "name": "account",
          "type": "address"
        },
        {
          "indexed": false,
          "internalType": "address",
          "name": "erc20",
          "type": "address"
        },
        {
          "indexed": false,
          "internalType": "uint256",
          "name": "amount",
          "type": "uint256"
        }
      ],
      "name": "Redeemed",
      "type": "event"
    },
    {
      "anonymous": false,
      "inputs": [
        {
          "indexed": false,
          "internalType": "address",
          "name": "tco2",
          "type": "address"
        }
      ],
      "name": "RemoveFeeExemptedTCO2",
      "type": "event"
    },
    {
      "anonymous": false,
      "inputs": [
        {
          "indexed": true,
          "internalType": "bytes32",
          "name": "role",
          "type": "bytes32"
        },
        {
          "indexed": true,
          "internalType": "bytes32",
          "name": "previousAdminRole",
          "type": "bytes32"
        },
        {
          "indexed": true,
          "internalType": "bytes32",
          "name": "newAdminRole",
          "type": "bytes32"
        }
      ],
      "name": "RoleAdminChanged",
      "type": "event"
    },
    {
      "anonymous": false,
      "inputs": [
        {
          "indexed": true,
          "internalType": "bytes32",
          "name": "role",
          "type": "bytes32"
        },
        {
          "indexed": true,
          "internalType": "address",
          "name": "account",
          "type": "address"
        },
        {
          "indexed": true,
          "internalType": "address",
          "name": "sender",
          "type": "address"
        }
      ],
      "name": "RoleGranted",
      "type": "event"
    },
    {
      "anonymous": false,
      "inputs": [
        {
          "indexed": true,
          "internalType": "bytes32",
          "name": "role",
          "type": "bytes32"
        },
        {
          "indexed": true,
          "internalType": "address",
          "name": "account",
          "type": "address"
        },
        {
          "indexed": true,
          "internalType": "address",
          "name": "sender",
          "type": "address"
        }
      ],
      "name": "RoleRevoked",
      "type": "event"
    },
    {
      "anonymous": false,
      "inputs": [
        {
          "indexed": false,
          "internalType": "address",
          "name": "router",
          "type": "address"
        }
      ],
      "name": "RouterUpdated",
      "type": "event"
    },
    {
      "anonymous": false,
      "inputs": [
        {
          "indexed": false,
          "internalType": "uint256",
          "name": "newCap",
          "type": "uint256"
        }
      ],
      "name": "SupplyCapUpdated",
      "type": "event"
    },
    {
      "anonymous": false,
      "inputs": [
        {
          "indexed": false,
          "internalType": "address[]",
          "name": "tco2s",
          "type": "address[]"
        },
        {
          "indexed": false,
          "internalType": "uint256[]",
          "name": "amounts",
          "type": "uint256[]"
        }
      ],
      "name": "TCO2RebalanceRequestCompleted",
      "type": "event"
    },
    {
      "anonymous": false,
      "inputs": [
        {
          "indexed": true,
          "internalType": "uint32",
          "name": "destinationDomain",
          "type": "uint32"
        },
        {
          "indexed": false,
          "internalType": "address[]",
          "name": "tco2s",
          "type": "address[]"
        },
        {
          "indexed": false,
          "internalType": "uint256[]",
          "name": "amounts",
          "type": "uint256[]"
        }
      ],
      "name": "TCO2RebalanceRequestInitiated",
      "type": "event"
    },
    {
      "anonymous": false,
      "inputs": [
        {
          "indexed": true,
          "internalType": "address",
          "name": "from",
          "type": "address"
        },
        {
          "indexed": true,
          "internalType": "address",
          "name": "to",
          "type": "address"
        },
        {
          "indexed": false,
          "internalType": "uint256",
          "name": "value",
          "type": "uint256"
        }
      ],
      "name": "Transfer",
      "type": "event"
    },
    {
      "anonymous": false,
      "inputs": [
        {
          "indexed": false,
          "internalType": "address",
          "name": "account",
          "type": "address"
        }
      ],
      "name": "Unpaused",
      "type": "event"
    },
    {
      "anonymous": false,
      "inputs": [
        {
          "indexed": true,
          "internalType": "address",
          "name": "implementation",
          "type": "address"
        }
      ],
      "name": "Upgraded",
      "type": "event"
    },
    {
      "inputs": [],
      "name": "DEFAULT_ADMIN_ROLE",
      "outputs": [
        {
          "internalType": "bytes32",
          "name": "",
          "type": "bytes32"
        }
      ],
      "stateMutability": "view",
      "type": "function"
    },
    {
      "inputs": [],
      "name": "MANAGER_ROLE",
      "outputs": [
        {
          "internalType": "bytes32",
          "name": "",
          "type": "bytes32"
        }
      ],
      "stateMutability": "view",
      "type": "function"
    },
    {
      "inputs": [],
      "name": "PAUSER_ROLE",
      "outputs": [
        {
          "internalType": "bytes32",
          "name": "",
          "type": "bytes32"
        }
      ],
      "stateMutability": "view",
      "type": "function"
    },
    {
      "inputs": [],
      "name": "VERSION",
      "outputs": [
        {
          "internalType": "string",
          "name": "",
          "type": "string"
        }
      ],
      "stateMutability": "view",
      "type": "function"
    },
    {
      "inputs": [],
      "name": "VERSION_RELEASE_CANDIDATE",
      "outputs": [
        {
          "internalType": "uint256",
          "name": "",
          "type": "uint256"
        }
      ],
      "stateMutability": "view",
      "type": "function"
    },
    {
      "inputs": [
        {
          "internalType": "address",
          "name": "_address",
          "type": "address"
        }
      ],
      "name": "addRedeemFeeExemptedAddress",
      "outputs": [],
      "stateMutability": "nonpayable",
      "type": "function"
    },
    {
      "inputs": [
        {
          "internalType": "address",
          "name": "_tco2",
          "type": "address"
        }
      ],
      "name": "addRedeemFeeExemptedTCO2",
      "outputs": [],
      "stateMutability": "nonpayable",
      "type": "function"
    },
    {
      "inputs": [
        {
          "internalType": "address",
          "name": "owner",
          "type": "address"
        },
        {
          "internalType": "address",
          "name": "spender",
          "type": "address"
        }
      ],
      "name": "allowance",
      "outputs": [
        {
          "internalType": "uint256",
          "name": "",
          "type": "uint256"
        }
      ],
      "stateMutability": "view",
      "type": "function"
    },
    {
      "inputs": [
        {
          "internalType": "address",
          "name": "spender",
          "type": "address"
        },
        {
          "internalType": "uint256",
          "name": "amount",
          "type": "uint256"
        }
      ],
      "name": "approve",
      "outputs": [
        {
          "internalType": "bool",
          "name": "",
          "type": "bool"
        }
      ],
      "stateMutability": "nonpayable",
      "type": "function"
    },
    {
      "inputs": [
        {
          "internalType": "address",
          "name": "account",
          "type": "address"
        }
      ],
      "name": "balanceOf",
      "outputs": [
        {
          "internalType": "uint256",
          "name": "",
          "type": "uint256"
        }
      ],
      "stateMutability": "view",
      "type": "function"
    },
    {
      "inputs": [
        {
          "internalType": "address",
          "name": "_account",
          "type": "address"
        },
        {
          "internalType": "uint256",
          "name": "_amount",
          "type": "uint256"
        }
      ],
      "name": "bridgeBurn",
      "outputs": [],
      "stateMutability": "nonpayable",
      "type": "function"
    },
    {
      "inputs": [
        {
          "internalType": "address",
          "name": "_account",
          "type": "address"
        },
        {
          "internalType": "uint256",
          "name": "_amount",
          "type": "uint256"
        }
      ],
      "name": "bridgeMint",
      "outputs": [],
      "stateMutability": "nonpayable",
      "type": "function"
    },
    {
      "inputs": [
        {
          "internalType": "uint32",
          "name": "destinationDomain",
          "type": "uint32"
        },
        {
          "internalType": "address[]",
          "name": "tco2s",
          "type": "address[]"
        },
        {
          "internalType": "uint256[]",
          "name": "amounts",
          "type": "uint256[]"
        }
      ],
      "name": "bridgeTCO2s",
      "outputs": [],
      "stateMutability": "payable",
      "type": "function"
    },
    {
      "inputs": [
        {
          "internalType": "address",
          "name": "tco2",
          "type": "address"
        },
        {
          "internalType": "uint256",
          "name": "amount",
          "type": "uint256"
        }
      ],
      "name": "calculateDepositFees",
      "outputs": [
        {
          "internalType": "uint256",
          "name": "feeDistributionTotal",
          "type": "uint256"
        }
      ],
      "stateMutability": "view",
      "type": "function"
    },
    {
      "inputs": [
        {
          "internalType": "address[]",
          "name": "",
          "type": "address[]"
        },
        {
          "internalType": "uint256[]",
          "name": "",
          "type": "uint256[]"
        },
        {
          "internalType": "bool",
          "name": "",
          "type": "bool"
        }
      ],
      "name": "calculateRedemptionInFees",
      "outputs": [
        {
          "internalType": "uint256",
          "name": "",
          "type": "uint256"
        }
      ],
      "stateMutability": "pure",
      "type": "function"
    },
    {
      "inputs": [
        {
          "internalType": "address[]",
          "name": "tco2s",
          "type": "address[]"
        },
        {
          "internalType": "uint256[]",
          "name": "amounts",
          "type": "uint256[]"
        },
        {
          "internalType": "bool",
          "name": "toRetire",
          "type": "bool"
        }
      ],
      "name": "calculateRedemptionOutFees",
      "outputs": [
        {
          "internalType": "uint256",
          "name": "feeDistributionTotal",
          "type": "uint256"
        }
      ],
      "stateMutability": "view",
      "type": "function"
    },
    {
      "inputs": [
        {
          "internalType": "address",
          "name": "vintageToken",
          "type": "address"
        }
      ],
      "name": "checkEligible",
      "outputs": [
        {
          "internalType": "bool",
          "name": "isEligible",
          "type": "bool"
        }
      ],
      "stateMutability": "view",
      "type": "function"
    },
    {
      "inputs": [
        {
          "internalType": "address[]",
          "name": "tco2s",
          "type": "address[]"
        },
        {
          "internalType": "uint256[]",
          "name": "amounts",
          "type": "uint256[]"
        }
      ],
      "name": "completeTCO2Bridging",
      "outputs": [],
      "stateMutability": "nonpayable",
      "type": "function"
    },
    {
      "inputs": [],
      "name": "decimals",
      "outputs": [
        {
          "internalType": "uint8",
          "name": "",
          "type": "uint8"
        }
      ],
      "stateMutability": "view",
      "type": "function"
    },
    {
      "inputs": [
        {
          "internalType": "address",
          "name": "spender",
          "type": "address"
        },
        {
          "internalType": "uint256",
          "name": "subtractedValue",
          "type": "uint256"
        }
      ],
      "name": "decreaseAllowance",
      "outputs": [
        {
          "internalType": "bool",
          "name": "",
          "type": "bool"
        }
      ],
      "stateMutability": "nonpayable",
      "type": "function"
    },
    {
      "inputs": [
        {
          "internalType": "address",
          "name": "tco2",
          "type": "address"
        },
        {
          "internalType": "uint256",
          "name": "amount",
          "type": "uint256"
        },
        {
          "internalType": "uint256",
          "name": "maxFee",
          "type": "uint256"
        }
      ],
      "name": "deposit",
      "outputs": [
        {
          "internalType": "uint256",
          "name": "mintedPoolTokenAmount",
          "type": "uint256"
        }
      ],
      "stateMutability": "nonpayable",
      "type": "function"
    },
    {
      "inputs": [],
      "name": "feeCalculator",
      "outputs": [
        {
          "internalType": "contract IFeeCalculator",
          "name": "",
          "type": "address"
        }
      ],
      "stateMutability": "view",
      "type": "function"
    },
    {
      "inputs": [],
      "name": "feeRedeemDivider",
      "outputs": [
        {
          "internalType": "uint256",
          "name": "",
          "type": "uint256"
        }
      ],
      "stateMutability": "view",
      "type": "function"
    },
    {
      "inputs": [],
      "name": "filter",
      "outputs": [
        {
          "internalType": "address",
          "name": "",
          "type": "address"
        }
      ],
      "stateMutability": "view",
      "type": "function"
    },
    {
      "inputs": [],
      "name": "getRemaining",
      "outputs": [
        {
          "internalType": "uint256",
          "name": "",
          "type": "uint256"
        }
      ],
      "stateMutability": "view",
      "type": "function"
    },
    {
      "inputs": [
        {
          "internalType": "bytes32",
          "name": "role",
          "type": "bytes32"
        }
      ],
      "name": "getRoleAdmin",
      "outputs": [
        {
          "internalType": "bytes32",
          "name": "",
          "type": "bytes32"
        }
      ],
      "stateMutability": "view",
      "type": "function"
    },
    {
      "inputs": [
        {
          "internalType": "bytes32",
          "name": "role",
          "type": "bytes32"
        },
        {
          "internalType": "address",
          "name": "account",
          "type": "address"
        }
      ],
      "name": "grantRole",
      "outputs": [],
      "stateMutability": "nonpayable",
      "type": "function"
    },
    {
      "inputs": [
        {
          "internalType": "bytes32",
          "name": "role",
          "type": "bytes32"
        },
        {
          "internalType": "address",
          "name": "account",
          "type": "address"
        }
      ],
      "name": "hasRole",
      "outputs": [
        {
          "internalType": "bool",
          "name": "",
          "type": "bool"
        }
      ],
      "stateMutability": "view",
      "type": "function"
    },
    {
      "inputs": [
        {
          "internalType": "address",
          "name": "spender",
          "type": "address"
        },
        {
          "internalType": "uint256",
          "name": "addedValue",
          "type": "uint256"
        }
      ],
      "name": "increaseAllowance",
      "outputs": [
        {
          "internalType": "bool",
          "name": "",
          "type": "bool"
        }
      ],
      "stateMutability": "nonpayable",
      "type": "function"
    },
    {
      "inputs": [
        {
          "internalType": "address[]",
          "name": "accounts",
          "type": "address[]"
        },
        {
          "internalType": "bytes32[]",
          "name": "roles",
          "type": "bytes32[]"
        }
      ],
      "name": "initialize",
      "outputs": [],
      "stateMutability": "nonpayable",
      "type": "function"
    },
    {
      "inputs": [
        {
          "internalType": "string",
          "name": "methodology",
          "type": "string"
        }
      ],
      "name": "methodologies",
      "outputs": [
        {
          "internalType": "bool",
          "name": "",
          "type": "bool"
        }
      ],
      "stateMutability": "view",
      "type": "function"
    },
    {
      "inputs": [],
      "name": "minimumTCLSeedingThreshold",
      "outputs": [
        {
          "internalType": "uint256",
          "name": "",
          "type": "uint256"
        }
      ],
      "stateMutability": "view",
      "type": "function"
    },
    {
      "inputs": [],
      "name": "minimumVintageStartTime",
      "outputs": [
        {
          "internalType": "uint64",
          "name": "",
          "type": "uint64"
        }
      ],
      "stateMutability": "view",
      "type": "function"
    },
    {
      "inputs": [],
      "name": "name",
      "outputs": [
        {
          "internalType": "string",
          "name": "",
          "type": "string"
        }
      ],
      "stateMutability": "view",
      "type": "function"
    },
    {
      "inputs": [],
      "name": "owner",
      "outputs": [
        {
          "internalType": "address",
          "name": "",
          "type": "address"
        }
      ],
      "stateMutability": "view",
      "type": "function"
    },
    {
      "inputs": [],
      "name": "pause",
      "outputs": [],
      "stateMutability": "nonpayable",
      "type": "function"
    },
    {
      "inputs": [],
      "name": "paused",
      "outputs": [
        {
          "internalType": "bool",
          "name": "",
          "type": "bool"
        }
      ],
      "stateMutability": "view",
      "type": "function"
    },
    {
      "inputs": [],
      "name": "proxiableUUID",
      "outputs": [
        {
          "internalType": "bytes32",
          "name": "",
          "type": "bytes32"
        }
      ],
      "stateMutability": "view",
      "type": "function"
    },
    {
      "inputs": [
        {
          "internalType": "uint32",
          "name": "destinationDomain",
          "type": "uint32"
        },
        {
          "internalType": "address[]",
          "name": "tco2s",
          "type": "address[]"
        },
        {
          "internalType": "uint256[]",
          "name": "amounts",
          "type": "uint256[]"
        }
      ],
      "name": "quoteBridgeTCO2sFee",
      "outputs": [
        {
          "internalType": "uint256",
          "name": "fee",
          "type": "uint256"
        }
      ],
      "stateMutability": "view",
      "type": "function"
    },
    {
      "inputs": [
        {
          "internalType": "address",
          "name": "tco2",
          "type": "address"
        },
        {
          "internalType": "uint256",
          "name": "amount",
          "type": "uint256"
        }
      ],
      "name": "redeemAndBurn",
      "outputs": [],
      "stateMutability": "nonpayable",
      "type": "function"
    },
    {
      "inputs": [
        {
          "internalType": "address",
          "name": "",
          "type": "address"
        }
      ],
      "name": "redeemFeeExemptedAddresses",
      "outputs": [
        {
          "internalType": "bool",
          "name": "",
          "type": "bool"
        }
      ],
      "stateMutability": "view",
      "type": "function"
    },
    {
      "inputs": [
        {
          "internalType": "address",
          "name": "",
          "type": "address"
        }
      ],
      "name": "redeemFeeExemptedTCO2s",
      "outputs": [
        {
          "internalType": "bool",
          "name": "",
          "type": "bool"
        }
      ],
      "stateMutability": "view",
      "type": "function"
    },
    {
      "inputs": [
        {
          "internalType": "address[]",
          "name": "tco2s",
          "type": "address[]"
        },
        {
          "internalType": "uint256[]",
          "name": "amounts",
          "type": "uint256[]"
        },
        {
          "internalType": "uint256",
          "name": "maxFee",
          "type": "uint256"
        }
      ],
      "name": "redeemOutMany",
      "outputs": [
        {
          "internalType": "uint256",
          "name": "poolAmountSpent",
          "type": "uint256"
        }
      ],
      "stateMutability": "nonpayable",
      "type": "function"
    },
    {
      "inputs": [
        {
          "internalType": "string",
          "name": "region",
          "type": "string"
        }
      ],
      "name": "regions",
      "outputs": [
        {
          "internalType": "bool",
          "name": "",
          "type": "bool"
        }
      ],
      "stateMutability": "view",
      "type": "function"
    },
    {
      "inputs": [
        {
          "internalType": "address",
          "name": "_address",
          "type": "address"
        }
      ],
      "name": "removeRedeemFeeExemptedAddress",
      "outputs": [],
      "stateMutability": "nonpayable",
      "type": "function"
    },
    {
      "inputs": [
        {
          "internalType": "address",
          "name": "_tco2",
          "type": "address"
        }
      ],
      "name": "removeRedeemFeeExemptedTCO2",
      "outputs": [],
      "stateMutability": "nonpayable",
      "type": "function"
    },
    {
      "inputs": [],
      "name": "renounceOwnership",
      "outputs": [],
      "stateMutability": "nonpayable",
      "type": "function"
    },
    {
      "inputs": [
        {
          "internalType": "bytes32",
          "name": "role",
          "type": "bytes32"
        },
        {
          "internalType": "address",
          "name": "account",
          "type": "address"
        }
      ],
      "name": "renounceRole",
      "outputs": [],
      "stateMutability": "nonpayable",
      "type": "function"
    },
    {
      "inputs": [
        {
          "internalType": "bytes32",
          "name": "role",
          "type": "bytes32"
        },
        {
          "internalType": "address",
          "name": "account",
          "type": "address"
        }
      ],
      "name": "revokeRole",
      "outputs": [],
      "stateMutability": "nonpayable",
      "type": "function"
    },
    {
      "inputs": [],
      "name": "router",
      "outputs": [
        {
          "internalType": "address",
          "name": "",
          "type": "address"
        }
      ],
      "stateMutability": "view",
      "type": "function"
    },
    {
      "inputs": [
        {
          "internalType": "uint256",
          "name": "",
          "type": "uint256"
        }
      ],
      "name": "scoredTCO2s",
      "outputs": [
        {
          "internalType": "address",
          "name": "",
          "type": "address"
        }
      ],
      "stateMutability": "view",
      "type": "function"
    },
    {
      "inputs": [
        {
          "internalType": "address",
          "name": "_feeCalculator",
          "type": "address"
        }
      ],
      "name": "setFeeCalculator",
      "outputs": [],
      "stateMutability": "nonpayable",
      "type": "function"
    },
    {
      "inputs": [
        {
          "internalType": "address",
          "name": "feeRedeemBurnAddress_",
          "type": "address"
        }
      ],
      "name": "setFeeRedeemBurnAddress",
      "outputs": [],
      "stateMutability": "nonpayable",
      "type": "function"
    },
    {
      "inputs": [
        {
          "internalType": "uint256",
          "name": "feeRedeemBurnPercentageInBase_",
          "type": "uint256"
        }
      ],
      "name": "setFeeRedeemBurnPercentage",
      "outputs": [],
      "stateMutability": "nonpayable",
      "type": "function"
    },
    {
      "inputs": [
        {
          "internalType": "address",
          "name": "_filter",
          "type": "address"
        }
      ],
      "name": "setFilter",
      "outputs": [],
      "stateMutability": "nonpayable",
      "type": "function"
    },
    {
      "inputs": [
        {
          "internalType": "uint256",
          "name": "_minimumTCLSeedingThreshold",
          "type": "uint256"
        }
      ],
      "name": "setMinimumTCLSeedingThreshold",
      "outputs": [],
      "stateMutability": "nonpayable",
      "type": "function"
    },
    {
      "inputs": [
        {
          "internalType": "address",
          "name": "_router",
          "type": "address"
        }
      ],
      "name": "setRouter",
      "outputs": [],
      "stateMutability": "nonpayable",
      "type": "function"
    },
    {
      "inputs": [
        {
          "internalType": "uint256",
          "name": "newCap",
          "type": "uint256"
        }
      ],
      "name": "setSupplyCap",
      "outputs": [],
      "stateMutability": "nonpayable",
      "type": "function"
    },
    {
      "inputs": [
        {
          "internalType": "string",
          "name": "standard",
          "type": "string"
        }
      ],
      "name": "standards",
      "outputs": [
        {
          "internalType": "bool",
          "name": "",
          "type": "bool"
        }
      ],
      "stateMutability": "view",
      "type": "function"
    },
    {
      "inputs": [],
      "name": "supplyCap",
      "outputs": [
        {
          "internalType": "uint256",
          "name": "",
          "type": "uint256"
        }
      ],
      "stateMutability": "view",
      "type": "function"
    },
    {
      "inputs": [
        {
          "internalType": "bytes4",
          "name": "interfaceId",
          "type": "bytes4"
        }
      ],
      "name": "supportsInterface",
      "outputs": [
        {
          "internalType": "bool",
          "name": "",
          "type": "bool"
        }
      ],
      "stateMutability": "view",
      "type": "function"
    },
    {
      "inputs": [],
      "name": "symbol",
      "outputs": [
        {
          "internalType": "string",
          "name": "",
          "type": "string"
        }
      ],
      "stateMutability": "view",
      "type": "function"
    },
    {
      "inputs": [
        {
          "internalType": "address",
          "name": "tco2",
          "type": "address"
        }
      ],
      "name": "tokenBalance",
      "outputs": [
        {
          "internalType": "uint256",
          "name": "",
          "type": "uint256"
        }
      ],
      "stateMutability": "view",
      "type": "function"
    },
    {
      "inputs": [
        {
          "internalType": "address",
          "name": "tco2",
          "type": "address"
        }
      ],
      "name": "tokenBalances",
      "outputs": [
        {
          "internalType": "uint256",
          "name": "",
          "type": "uint256"
        }
      ],
      "stateMutability": "view",
      "type": "function"
    },
    {
      "inputs": [
        {
          "internalType": "address",
          "name": "tco2",
          "type": "address"
        }
      ],
      "name": "totalPerProjectSupply",
      "outputs": [
        {
          "internalType": "uint256",
          "name": "",
          "type": "uint256"
        }
      ],
      "stateMutability": "view",
      "type": "function"
    },
    {
      "inputs": [
        {
          "internalType": "uint256",
          "name": "projectTokenId",
          "type": "uint256"
        }
      ],
      "name": "totalPerProjectTCO2Supply",
      "outputs": [
        {
          "internalType": "uint256",
          "name": "",
          "type": "uint256"
        }
      ],
      "stateMutability": "view",
      "type": "function"
    },
    {
      "inputs": [
        {
          "internalType": "uint256",
          "name": "",
          "type": "uint256"
        }
      ],
      "name": "totalProjectSupply",
      "outputs": [
        {
          "internalType": "uint256",
          "name": "",
          "type": "uint256"
        }
      ],
      "stateMutability": "view",
      "type": "function"
    },
    {
      "inputs": [],
      "name": "totalSupply",
      "outputs": [
        {
          "internalType": "uint256",
          "name": "",
          "type": "uint256"
        }
      ],
      "stateMutability": "view",
      "type": "function"
    },
    {
      "inputs": [],
      "name": "totalTCO2Supply",
      "outputs": [
        {
          "internalType": "uint256",
          "name": "",
          "type": "uint256"
        }
      ],
      "stateMutability": "view",
      "type": "function"
    },
    {
      "inputs": [],
      "name": "totalUnderlyingSupply",
      "outputs": [
        {
          "internalType": "uint256",
          "name": "",
          "type": "uint256"
        }
      ],
      "stateMutability": "view",
      "type": "function"
    },
    {
      "inputs": [
        {
          "internalType": "address",
          "name": "recipient",
          "type": "address"
        },
        {
          "internalType": "uint256",
          "name": "amount",
          "type": "uint256"
        }
      ],
      "name": "transfer",
      "outputs": [
        {
          "internalType": "bool",
          "name": "",
          "type": "bool"
        }
      ],
      "stateMutability": "nonpayable",
      "type": "function"
    },
    {
      "inputs": [
        {
          "internalType": "address",
          "name": "sender",
          "type": "address"
        },
        {
          "internalType": "address",
          "name": "recipient",
          "type": "address"
        },
        {
          "internalType": "uint256",
          "name": "amount",
          "type": "uint256"
        }
      ],
      "name": "transferFrom",
      "outputs": [
        {
          "internalType": "bool",
          "name": "",
          "type": "bool"
        }
      ],
      "stateMutability": "nonpayable",
      "type": "function"
    },
    {
      "inputs": [
        {
          "internalType": "address",
          "name": "newOwner",
          "type": "address"
        }
      ],
      "name": "transferOwnership",
      "outputs": [],
      "stateMutability": "nonpayable",
      "type": "function"
    },
    {
      "inputs": [],
      "name": "unpause",
      "outputs": [],
      "stateMutability": "nonpayable",
      "type": "function"
    },
    {
      "inputs": [
        {
          "internalType": "address",
          "name": "newImplementation",
          "type": "address"
        }
      ],
      "name": "upgradeTo",
      "outputs": [],
      "stateMutability": "nonpayable",
      "type": "function"
    },
    {
      "inputs": [
        {
          "internalType": "address",
          "name": "newImplementation",
          "type": "address"
        },
        {
          "internalType": "bytes",
          "name": "data",
          "type": "bytes"
        }
      ],
      "name": "upgradeToAndCall",
      "outputs": [],
      "stateMutability": "payable",
      "type": "function"
    }
  ],
  "numDeployments": 2,
  "solcInputHash": "96bf791a5d74075e840270d23154adb8",
  "bytecode": "0x60a0604052306080523480156200001557600080fd5b506200002062000026565b620000e7565b600054610100900460ff1615620000935760405162461bcd60e51b815260206004820152602760248201527f496e697469616c697a61626c653a20636f6e747261637420697320696e697469604482015266616c697a696e6760c81b606482015260840160405180910390fd5b60005460ff90811614620000e5576000805460ff191660ff9081179091556040519081527f7f26b83ff96e1f2b6a682f133852f6798a09c465da95921460cefb38474024989060200160405180910390a15b565b60805161573c6200011f600039600081816111ed0152818161122d015281816116e40152818161172401526117be015261573c6000f3fe6080604052600436106104475760003560e01c806389022e2e11610234578063ce6f32001161012e578063ec87621c116100b6578063f3edb9ec1161007a578063f3edb9ec14610d55578063f75991cd14610d75578063f887ea4014610d95578063fe6ca9ac14610db6578063ffa1ad7414610dcd57600080fd5b8063ec87621c14610ca1578063ecda751914610cd5578063eedc966a14610cf5578063ef9178ec14610d15578063f2fde38b14610d3557600080fd5b8063dc5f560e116100fd578063dc5f560e14610bf7578063dd62ed3e14610c17578063e07f744c14610c37578063e0d7cad914610c57578063e63ab1e914610c6d57600080fd5b8063ce6f320014610b82578063d547741f14610ba2578063d6a022b814610bc2578063d80e05aa14610bd757600080fd5b806398010565116101bc578063b00eb9fe11610180578063b00eb9fe14610ae1578063b6a3f59a14610b02578063b6b75cd114610b22578063bab5adc314610b42578063c0d7865514610b6257600080fd5b80639801056514610a31578063a1631e4b14610a5f578063a217fddf14610a8c578063a457c2d714610aa1578063a9059cbb14610ac157600080fd5b80638e405812116102035780638e405812146109a55780638f770ad0146109c557806391d14854146109dc57806395d89b41146109fc578063963ff55e14610a1157600080fd5b806389022e2e146109275780638c2a993e146109475780638c66d04f146109675780638da5cb5b1461098757600080fd5b80633ebc2df1116103455780636ca0b0d7116102cd57806379255ddd1161029157806379255ddd146108845780637babed8e146108a45780638456cb59146108c45780638662522f146108d9578063875bf3b5146108f957600080fd5b80636ca0b0d7146107e45780636dbb3102146107f957806370a0823114610819578063715018a61461084f57806374f4f5471461086457600080fd5b8063523fba7f11610314578063523fba7f1461074857806352d1902d14610768578063562182a81461077d5780635c975abb146107935780635fadcc1e146107ab57600080fd5b80633ebc2df1146106e05780633f4ba83a146107005780634642547b146107155780634f1ef2861461073557600080fd5b806323b872dd116103d3578063324e32d311610397578063324e32d31461064d57806336568abe1461066d5780633659cfe61461068d57806339509351146106ad5780633d2afced146106cd57600080fd5b806323b872dd14610590578063248a9ca3146105b05780632b540f19146105e05780632f2ff15d14610611578063313ce5671461063157600080fd5b80630e2d15ab1161041a5780630e2d15ab146104e55780630efe6a8b14610516578063143a08d41461054457806318160ddd1461055b5780631e1fa3bd1461057057600080fd5b806301ffc9a71461044c57806306fdde0314610481578063095ea7b3146104a35780630b7d28c7146104c3575b600080fd5b34801561045857600080fd5b5061046c6104673660046146db565b610dfe565b60405190151581526020015b60405180910390f35b34801561048d57600080fd5b50610496610e35565b6040516104789190614731565b3480156104af57600080fd5b5061046c6104be366004614779565b610ec7565b3480156104cf57600080fd5b506104e36104de3660046147a5565b610edf565b005b3480156104f157600080fd5b5061046c6105003660046147a5565b6101a06020526000908152604090205460ff1681565b34801561052257600080fd5b506105366105313660046147c2565b610f4a565b604051908152602001610478565b34801561055057600080fd5b506105366101a65481565b34801561056757600080fd5b50603554610536565b34801561057c57600080fd5b5061053661058b366004614842565b610fbc565b34801561059c57600080fd5b5061046c6105ab3660046148cd565b611069565b3480156105bc57600080fd5b506105366105cb36600461490e565b600090815260fb602052604090206001015490565b3480156105ec57600080fd5b5061046c6105fb3660046147a5565b6101a16020526000908152604090205460ff1681565b34801561061d57600080fd5b506104e361062c366004614927565b61108a565b34801561063d57600080fd5b5060405160128152602001610478565b34801561065957600080fd5b50610536610668366004614ada565b6110b4565b34801561067957600080fd5b506104e3610688366004614927565b611165565b34801561069957600080fd5b506104e36106a83660046147a5565b6111e3565b3480156106b957600080fd5b5061046c6106c8366004614779565b6112c2565b6104e36106db366004614842565b6112e4565b3480156106ec57600080fd5b506104e36106fb3660046147a5565b6115f0565b34801561070c57600080fd5b506104e3611647565b34801561072157600080fd5b506104e36107303660046147a5565b61167a565b6104e3610743366004614b6d565b6116da565b34801561075457600080fd5b506105366107633660046147a5565b6117a6565b34801561077457600080fd5b506105366117b1565b34801561078957600080fd5b506101a654610536565b34801561079f57600080fd5b5060975460ff1661046c565b3480156107b757600080fd5b506101a4546107cc906001600160a01b031681565b6040516001600160a01b039091168152602001610478565b3480156107f057600080fd5b50610536600181565b34801561080557600080fd5b506104e36108143660046147a5565b611864565b34801561082557600080fd5b506105366108343660046147a5565b6001600160a01b031660009081526033602052604090205490565b34801561085b57600080fd5b506104e36118c1565b34801561087057600080fd5b506104e361087f366004614779565b6118d3565b34801561089057600080fd5b506104e361089f36600461490e565b6118e5565b3480156108b057600080fd5b506105366108bf366004614c08565b61195f565b3480156108d057600080fd5b506104e3611982565b3480156108e557600080fd5b5061046c6108f4366004614c7f565b6119b3565b34801561090557600080fd5b5061053661091436600461490e565b60009081526101a7602052604090205490565b34801561093357600080fd5b506104e3610942366004614779565b611a2f565b34801561095357600080fd5b506104e3610962366004614779565b611b06565b34801561097357600080fd5b506104e36109823660046147a5565b611b18565b34801561099357600080fd5b506065546001600160a01b03166107cc565b3480156109b157600080fd5b506104e36109c0366004614cf0565b611b6f565b3480156109d157600080fd5b506105366101915481565b3480156109e857600080fd5b5061046c6109f7366004614927565b611d14565b348015610a0857600080fd5b50610496611d3f565b348015610a1d57600080fd5b506107cc610a2c36600461490e565b611d4e565b348015610a3d57600080fd5b50610536610a4c36600461490e565b6101a76020526000908152604090205481565b348015610a6b57600080fd5b50610a74611d79565b6040516001600160401b039091168152602001610478565b348015610a9857600080fd5b50610536600081565b348015610aad57600080fd5b5061046c610abc366004614779565b611ded565b348015610acd57600080fd5b5061046c610adc366004614779565b611e68565b348015610aed57600080fd5b506101a5546107cc906001600160a01b031681565b348015610b0e57600080fd5b506104e3610b1d36600461490e565b611e7d565b348015610b2e57600080fd5b50610536610b3d3660046147a5565b611ebb565b348015610b4e57600080fd5b506104e3610b5d366004614cf0565b611ee1565b348015610b6e57600080fd5b506104e3610b7d3660046147a5565b61203b565b348015610b8e57600080fd5b50610536610b9d366004614c08565b612092565b348015610bae57600080fd5b506104e3610bbd366004614927565b6120c4565b348015610bce57600080fd5b506105366120e9565b348015610be357600080fd5b506104e3610bf23660046147a5565b612102565b348015610c0357600080fd5b5061046c610c123660046147a5565b61215c565b348015610c2357600080fd5b50610536610c32366004614d5b565b612177565b348015610c4357600080fd5b506104e3610c523660046147a5565b6121a2565b348015610c6357600080fd5b5061053661271081565b348015610c7957600080fd5b506105367f65d7a28e3265b37a6474929f336521b332c1681b933f6cb9f3376673440d862a81565b348015610cad57600080fd5b506105367f241ecf16d79d0f8dbfb92cbc07fe17840425976cf0667f022fe9877caa831b0881565b348015610ce157600080fd5b506104e3610cf036600461490e565b61223a565b348015610d0157600080fd5b50610536610d103660046147a5565b612299565b348015610d2157600080fd5b50610536610d30366004614779565b612304565b348015610d4157600080fd5b506104e3610d503660046147a5565b61240b565b348015610d6157600080fd5b5061046c610d70366004614c7f565b612481565b348015610d8157600080fd5b5061046c610d90366004614c7f565b6124b5565b348015610da157600080fd5b506101a2546107cc906001600160a01b031681565b348015610dc257600080fd5b506105366101ab5481565b348015610dd957600080fd5b50610496604051806040016040528060058152602001640312e312e360dc1b81525081565b60006001600160e01b03198216637965db0b60e01b1480610e2f57506301ffc9a760e01b6001600160e01b03198316145b92915050565b606060368054610e4490614d89565b80601f0160208091040260200160405190810160405280929190818152602001828054610e7090614d89565b8015610ebd5780601f10610e9257610100808354040283529160200191610ebd565b820191906000526020600020905b815481529060010190602001808311610ea057829003601f168201915b5050505050905090565b600033610ed58185856124e9565b5060019392505050565b610ee761260d565b6001600160a01b03811660008181526101a06020908152604091829020805460ff191660019081179091558251938452908301527f9243c023afac8831ce7d7574176d51e9cbdff271c07285080839f677ff57a6b491015b60405180910390a150565b6101a5546000906001600160a01b031615610fa1576040805180820190915260028152611a9960f11b602082015282610f9f5760405162461bcd60e51b8152600401610f969190614731565b60405180910390fd5b505b610fb4610fad85612663565b84846126c2565b949350505050565b600083610fc98184612897565b6101a2546001600160a01b03166000610fe2828a6128ce565b604051635b91071160e11b81529091506001600160a01b0383169063b7220e229061101b908c908c908c908c908c908990600401614e42565b602060405180830381865afa158015611038573d6000803e3d6000fd5b505050506040513d601f19601f8201168201806040525081019061105c9190614e91565b9998505050505050505050565b600061107483612996565b61107f848484612a19565b506001949350505050565b600082815260fb60205260409020600101546110a581612a32565b6110af8383612a3c565b505050565b6101a5546000906001600160a01b031615611102576040805180820190915260028152611a9960f11b6020820152826111005760405162461bcd60e51b8152600401610f969190614731565b505b835160011460405180604001604052806002815260200161353360f01b815250906111405760405162461bcd60e51b8152600401610f969190614731565b50600061114c85612ac2565b905061115b8185856000612ba4565b9695505050505050565b6001600160a01b03811633146111d55760405162461bcd60e51b815260206004820152602f60248201527f416363657373436f6e74726f6c3a2063616e206f6e6c792072656e6f756e636560448201526e103937b632b9903337b91039b2b63360891b6064820152608401610f96565b6111df8282612d2b565b5050565b6001600160a01b037f000000000000000000000000000000000000000000000000000000000000000016300361122b5760405162461bcd60e51b8152600401610f9690614eaa565b7f00000000000000000000000000000000000000000000000000000000000000006001600160a01b03166112746000805160206156c0833981519152546001600160a01b031690565b6001600160a01b03161461129a5760405162461bcd60e51b8152600401610f9690614ef6565b6112a381612d92565b604080516000808252602082019092526112bf91839190612d9a565b50565b600033610ed58185856112d58383612177565b6112df9190614f58565b6124e9565b61130d7f241ecf16d79d0f8dbfb92cbc07fe17840425976cf0667f022fe9877caa831b08612f05565b6040805180820190915260018152601960f91b60208201528390816113455760405162461bcd60e51b8152600401610f969190614731565b506113508183612897565b6101a2546001600160a01b0316600061136982896128ce565b905060005b8381101561153757600088888381811061138a5761138a614f70565b905060200201602081019061139f91906147a5565b905060008787848181106113b5576113b5614f70565b9050602002013590506000826001600160a01b0316633633f35f6040518163ffffffff1660e01b8152600401600060405180830381865afa1580156113fe573d6000803e3d6000fd5b505050506040513d6000823e601f3d908101601f191682016040526114269190810190614ff2565b606081015160009081526101a7602052604090205490915082111561148d5760405162461bcd60e51b815260206004820152601b60248201527f696e73756666696369656e742076696e7461676520616d6f756e7400000000006044820152606401610f96565b606081015160009081526101a76020526040812080548492906114b190849061517c565b90915550506101a6548211156115095760405162461bcd60e51b815260206004820152601e60248201527f696e73756666696369656e7420756e6465726c79696e6720737570706c7900006044820152606401610f96565b816101a6600082825461151c919061517c565b925050819055505050508061153090615193565b905061136e565b50604051633456b29d60e01b81526001600160a01b03831690633456b29d903490611570908c908c908c908c908c908a90600401614e42565b6000604051808303818588803b15801561158957600080fd5b505af115801561159d573d6000803e3d6000fd5b50505050508763ffffffff167f9140d7d8e6ec275af0c225e326789b4fafef04d5b02cf50f5bca4cb5c6a56094888888886040516115de94939291906151ac565b60405180910390a25050505050505050565b6115f861260d565b6101a480546001600160a01b0319166001600160a01b0383169081179091556040519081527fcc693712a2055d921e821f24fea7e18faff35a4e741d180badc0b05a0c275e6a90602001610f3f565b6116707f65d7a28e3265b37a6474929f336521b332c1681b933f6cb9f3376673440d862a612f05565b611678612f6b565b565b61168261260d565b6001600160a01b03811660008181526101a060209081526040808320805460ff191690558051938452908301919091527f9243c023afac8831ce7d7574176d51e9cbdff271c07285080839f677ff57a6b49101610f3f565b6001600160a01b037f00000000000000000000000000000000000000000000000000000000000000001630036117225760405162461bcd60e51b8152600401610f9690614eaa565b7f00000000000000000000000000000000000000000000000000000000000000006001600160a01b031661176b6000805160206156c0833981519152546001600160a01b031690565b6001600160a01b0316146117915760405162461bcd60e51b8152600401610f9690614ef6565b61179a82612d92565b6111df82826001612d9a565b6000610e2f82612299565b6000306001600160a01b037f000000000000000000000000000000000000000000000000000000000000000016146118515760405162461bcd60e51b815260206004820152603860248201527f555550535570677261646561626c653a206d757374206e6f742062652063616c60448201527f6c6564207468726f7567682064656c656761746563616c6c00000000000000006064820152608401610f96565b506000805160206156c083398151915290565b61186c61260d565b6001600160a01b03811660008181526101a16020908152604091829020805460ff1916600117905590519182527fbfe78aa03afab7296923112293cb902a2fe6df5a6d3d81e1933c652c4cf860f49101610f3f565b6118c9612fbd565b6116786000613017565b6118db613069565b6111df82826130af565b6118ed61260d565b604080518082019091526002815261031360f41b602082015261271082106119285760405162461bcd60e51b8152600401610f969190614731565b5061019e8190556040518181527fb53960c69c6a03b9c2457d50976610ab54438aea64f693512228035729dde0e990602001610f3f565b60008061196b85612ac2565b90506119788185856131ef565b5095945050505050565b6119ab7f65d7a28e3265b37a6474929f336521b332c1681b933f6cb9f3376673440d862a612f05565b611678613435565b6101a454604051638662522f60e01b81526000916001600160a01b031690638662522f906119e790869086906004016151d3565b602060405180830381865afa158015611a04573d6000803e3d6000fd5b505050506040513d601f19601f82011682018060405250810190611a289190615202565b9392505050565b611a37613472565b6001600160a01b03821660009081526101a160209081526040918290205482518084019093526002835261313360f01b9183019190915260ff16611a8e5760405162461bcd60e51b8152600401610f969190614731565b50611aa1611a9b83612663565b826134b2565b5060405163079cc67960e41b8152336004820152602481018290526001600160a01b038316906379cc679090604401600060405180830381600087803b158015611aea57600080fd5b505af1158015611afe573d6000803e3d6000fd5b505050505050565b611b0e613069565b6111df82826134ec565b611b2061260d565b6101a580546001600160a01b0319166001600160a01b0383169081179091556040519081527f3e762c7e655633ce63121393b9694f9ca1883d14d18f48f1be55e5dc7a9fb6c190602001610f3f565b611b77613069565b6040805180820190915260018152601960f91b6020820152839081611baf5760405162461bcd60e51b8152600401610f969190614731565b50611bba8183612897565b60005b81811015611ccf576000868683818110611bd957611bd9614f70565b9050602002016020810190611bee91906147a5565b90506000858584818110611c0457611c04614f70565b9050602002013590506000826001600160a01b0316633633f35f6040518163ffffffff1660e01b8152600401600060405180830381865afa158015611c4d573d6000803e3d6000fd5b505050506040513d6000823e601f3d908101601f19168201604052611c759190810190614ff2565b905060006040518060600160405280856001600160a01b031681526020016000815260200183606001518152509050611cae81846135b9565b611cba81333086613601565b5050505080611cc890615193565b9050611bbd565b507fa7441ec03387008dd3bba12d93e590de813b934a96b17d87ac2221b3a62d357785858585604051611d0594939291906151ac565b60405180910390a15050505050565b600091825260fb602090815260408084206001600160a01b0393909316845291905290205460ff1690565b606060378054610e4490614d89565b6101948181548110611d5f57600080fd5b6000918252602090912001546001600160a01b0316905081565b6101a4546040805163a1631e4b60e01b815290516000926001600160a01b03169163a1631e4b9160048083019260209291908290030181865afa158015611dc4573d6000803e3d6000fd5b505050506040513d601f19601f82011682018060405250810190611de8919061521f565b905090565b60003381611dfb8286612177565b905083811015611e5b5760405162461bcd60e51b815260206004820152602560248201527f45524332303a2064656372656173656420616c6c6f77616e63652062656c6f77604482015264207a65726f60d81b6064820152608401610f96565b61107f82868684036124e9565b6000611e7383612996565b610ed58383613649565b611e8561260d565b6101918190556040518181527f4e44c8be34d12f1b7f56b13b4bbe97e64ca37a91916f86c73412da80c21748e290602001610f3f565b60006101a76000611ecb84613657565b8152602001908152602001600020549050919050565b600054610100900460ff1615808015611f015750600054600160ff909116105b80611f1b5750303b158015611f1b575060005460ff166001145b611f7e5760405162461bcd60e51b815260206004820152602e60248201527f496e697469616c697a61626c653a20636f6e747261637420697320616c72656160448201526d191e481a5b9a5d1a585b1a5e995960921b6064820152608401610f96565b6000805460ff191660011790558015611fa1576000805461ff0019166101001790555b611fad858585856136c9565b611ff2604051806040016040528060078152602001662134b7b1b430b960c91b8152506040518060400160405280600481526020016321a420a960e11b8152506136f5565b8015612034576000805461ff0019169055604051600181527f7f26b83ff96e1f2b6a682f133852f6798a09c465da95921460cefb384740249890602001611d05565b5050505050565b61204361260d565b6101a280546001600160a01b0319166001600160a01b0383169081179091556040519081527f7aed1d3e8155a07ccf395e44ea3109a0e2d6c9b29bbbe9f142d9790596f4dc8090602001610f3f565b6040805180820182526002815261353360f01b6020820152905162461bcd60e51b8152600091610f9691600401614731565b600082815260fb60205260409020600101546120df81612a32565b6110af8383612d2b565b60006120f460355490565b61019154611de8919061517c565b61210a61260d565b6001600160a01b03811660008181526101a16020908152604091829020805460ff1916905590519182527fd1fc9d8986829d0ba9df2bc201a2c76327e0f71567b5a2fb82ba464bf4a03f449101610f3f565b600061216f61216a83612663565b613743565b506001919050565b6001600160a01b03918216600090815260346020908152604080832093909416825291909152205490565b6121aa61260d565b604080518082019091526002815261313160f01b60208201526001600160a01b0382166121ea5760405162461bcd60e51b8152600401610f969190614731565b5061019d80546001600160a01b0319166001600160a01b0383169081179091556040519081527fe45e1256d720bfcb8dfcc82308efc5ad34e89a7ca19cc500b5c657fcc3359e5590602001610f3f565b6122637f241ecf16d79d0f8dbfb92cbc07fe17840425976cf0667f022fe9877caa831b08612f05565b6101ab8190556040518181527fc6a663b7fe63290b7977f5cd75a191693c702e6f90bd187350a938895762f8ee90602001610f3f565b6040516370a0823160e01b81523060048201526000906001600160a01b038316906370a0823190602401602060405180830381865afa1580156122e0573d6000803e3d6000fd5b505050506040513d601f19601f82011682018060405250810190610e2f9190614e91565b600061230e613472565b6101ab54826101a6546123219190614f58565b108061233757506101a5546001600160a01b0316155b1561234457506000610e2f565b60006101ab546101a6541015612375576101ab546101a6546123669085614f58565b612370919061517c565b612377565b825b6101a554604051638925ba9f60e01b81529192506000916001600160a01b0390911690638925ba9f906123b29030908990879060040161523a565b600060405180830381865afa1580156123cf573d6000803e3d6000fd5b505050506040513d6000823e601f3d908101601f191682016040526123f791908101906152b9565b9050612402816137e0565b95945050505050565b612413612fbd565b6001600160a01b0381166124785760405162461bcd60e51b815260206004820152602660248201527f4f776e61626c653a206e6577206f776e657220697320746865207a65726f206160448201526564647265737360d01b6064820152608401610f96565b6112bf81613017565b6101a454604051633cfb6e7b60e21b81526000916001600160a01b03169063f3edb9ec906119e790869086906004016151d3565b6101a45460405163f75991cd60e01b81526000916001600160a01b03169063f75991cd906119e790869086906004016151d3565b6001600160a01b03831661254b5760405162461bcd60e51b8152602060048201526024808201527f45524332303a20617070726f76652066726f6d20746865207a65726f206164646044820152637265737360e01b6064820152608401610f96565b6001600160a01b0382166125ac5760405162461bcd60e51b815260206004820152602260248201527f45524332303a20617070726f766520746f20746865207a65726f206164647265604482015261737360f01b6064820152608401610f96565b6001600160a01b0383811660008181526034602090815260408083209487168084529482529182902085905590518481527f8c5be1e5ebec7d5bd14f71427d1e84f3dd0314c0f7b2291e5b200ac8c7c3b925910160405180910390a3505050565b336126206065546001600160a01b031690565b6001600160a01b03161460405180604001604052806002815260200161062760f31b815250906112bf5760405162461bcd60e51b8152600401610f969190614731565b612690604051806060016040528060006001600160a01b0316815260200160008152602001600081525090565b6040518060600160405280836001600160a01b03168152602001600081526020016126ba84613657565b905292915050565b60006126cc613472565b6126d584613743565b60006126df6120e9565b9050806000036127185760408051808201825260018152603360f81b6020820152905162461bcd60e51b8152610f969190600401614731565b80841115612724578093505b6101ab546101a654859160009161273c908490614f58565b1015801561275557506101a5546001600160a01b031615155b1561285f5760006101ab546101a654101561278b576101ab546101a65461277c9089614f58565b612786919061517c565b61278d565b865b9050600061279b898361383e565b90506127a6816137e0565b92506127b287846138cd565b6127bc838561517c565b81515190945060005b8181101561282157612811836000015182815181106127e6576127e6614f70565b60200260200101518460200151838151811061280457612804614f70565b60200260200101516134ec565b61281a81615193565b90506127c5565b5060408051338152602081018690527f4658b473764413b8a15e16e464adf1ee318894b37e86cf2fd44a70bca04f6502910160405180910390a15050505b61286b3383838a61390d565b935061287787876135b9565b61288387333089613601565b61288d8787613922565b5050509392505050565b8082146111df576040805180820182526002815261189960f11b6020820152905162461bcd60e51b8152610f969190600401614731565b604051635ed6513d60e11b815230600482015263ffffffff8216602482015260009081906001600160a01b0385169063bdaca27a906044016040805180830381865afa158015612922573d6000803e3d6000fd5b505050506040513d601f19601f8201168201806040525081019061294691906153a6565b8051604080518082019091526002815261313160f01b60208201529093509091506001600160a01b03831661298e5760405162461bcd60e51b8152600401610f969190614731565b505092915050565b604080518082019091526002815261313960f01b60208201526001600160a01b0382166129d65760405162461bcd60e51b8152600401610f969190614731565b50604080518082019091526002815261032360f41b60208201526001600160a01b03821630036111df5760405162461bcd60e51b8152600401610f969190614731565b600033612a2785828561396c565b61107f8585856139e0565b6112bf8133613b96565b612a468282611d14565b6111df57600082815260fb602090815260408083206001600160a01b03851684529091529020805460ff19166001179055612a7e3390565b6001600160a01b0316816001600160a01b0316837f2f8788117e7eff1d82e926ec794901d17c78024a50270940304540a733656f0d60405160405180910390a45050565b8051606090806001600160401b03811115612adf57612adf614957565b604051908082528060200260200182016040528015612b3d57816020015b612b2a604051806060016040528060006001600160a01b0316815260200160008152602001600081525090565b815260200190600190039081612afd5790505b50915060005b81811015612b9d57612b6d848281518110612b6057612b60614f70565b6020026020010151612663565b838281518110612b7f57612b7f614f70565b60200260200101819052508080612b9590615193565b915050612b43565b5050919050565b60606000612bb0613472565b85518551612bbf908290612897565b8315612c0a57806001600160401b03811115612bdd57612bdd614957565b604051908082528060200260200182016040528015612c06578160200160208202803683370190505b5092505b600080612c188989886131ef565b91509150612c2687836138cd565b612c308285614f58565b93508115612c4a57612c4a81600001518260200151613bef565b60005b83811015612d1e57612c778a8281518110612c6a57612c6a614f70565b6020026020010151613743565b6000898281518110612c8b57612c8b614f70565b60200260200101519050612cb88b8381518110612caa57612caa614f70565b6020026020010151826134b2565b612cc29087614f58565b95508715612d0d57612cee8b8381518110612cdf57612cdf614f70565b60200260200101513383613d1f565b878381518110612d0057612d00614f70565b6020026020010181815250505b50612d1781615193565b9050612c4d565b5050505094509492505050565b612d358282611d14565b156111df57600082815260fb602090815260408083206001600160a01b0385168085529252808320805460ff1916905551339285917ff6391f5c32d9c69d2a47ea670b442974b53935d1edc7fd64eb21e047a839171b9190a45050565b6112bf61260d565b7f4910fdfa16fed3260ed0e7147f7cc6da11a60208b5b9406d12a635614ffd91435460ff1615612dcd576110af83613d96565b826001600160a01b03166352d1902d6040518163ffffffff1660e01b8152600401602060405180830381865afa925050508015612e27575060408051601f3d908101601f19168201909252612e2491810190614e91565b60015b612e8a5760405162461bcd60e51b815260206004820152602e60248201527f45524331393637557067726164653a206e657720696d706c656d656e7461746960448201526d6f6e206973206e6f74205555505360901b6064820152608401610f96565b6000805160206156c08339815191528114612ef95760405162461bcd60e51b815260206004820152602960248201527f45524331393637557067726164653a20756e737570706f727465642070726f786044820152681a58589b195555525160ba1b6064820152608401610f96565b506110af838383613e32565b612f0f8133611d14565b80612f33575033612f286065546001600160a01b031690565b6001600160a01b0316145b604051806040016040528060018152602001603160f81b815250906111df5760405162461bcd60e51b8152600401610f969190614731565b612f73613e57565b6097805460ff191690557f5db9ee0a495bf2e6ff9c91a7834c1ba4fdd244a5e8aa4e537bd38aeae4b073aa335b6040516001600160a01b03909116815260200160405180910390a1565b6065546001600160a01b031633146116785760405162461bcd60e51b815260206004820181905260248201527f4f776e61626c653a2063616c6c6572206973206e6f7420746865206f776e65726044820152606401610f96565b606580546001600160a01b038381166001600160a01b0319831681179093556040519116919082907f8be0079c531659141344cd1fd0a4f28419497f9722a3daafe3b4186f6b6457e090600090a35050565b6101a254604080518082019091526002815261313760f01b6020820152906001600160a01b031633146112bf5760405162461bcd60e51b8152600401610f969190614731565b6001600160a01b03821661310f5760405162461bcd60e51b815260206004820152602160248201527f45524332303a206275726e2066726f6d20746865207a65726f206164647265736044820152607360f81b6064820152608401610f96565b61311b82600083613ea0565b6001600160a01b0382166000908152603360205260409020548181101561318f5760405162461bcd60e51b815260206004820152602260248201527f45524332303a206275726e20616d6f756e7420657863656564732062616c616e604482015261636560f01b6064820152608401610f96565b6001600160a01b03831660008181526033602090815260408083208686039055603580548790039055518581529192917fddf252ad1be2c89b69c2b068fc378daa952ba7f163c4a11628f55a4df523b3ef910160405180910390a3505050565b600061320e604051806040016040528060608152602001606081525090565b613216613472565b604080518082019091526002815261353360f01b6020820152831561324e5760405162461bcd60e51b8152600401610f969190614731565b508451604080518082019091526002815261353360f01b60208201526001821461328b5760405162461bcd60e51b8152600401610f969190614731565b50613297818651612897565b6101a5546001600160a01b031615806132c057503360009081526101a0602052604090205460ff165b156132f75750506040805160008183018181526060830184528252825181815260208082019094529282019290925290915061342d565b6000816001600160401b0381111561331157613311614957565b60405190808252806020026020018201604052801561333a578160200160208202803683370190505b50905060005b828110156133a25787818151811061335a5761335a614f70565b60200260200101516000015182828151811061337857613378614f70565b6001600160a01b03909216602092830291909101909101528061339a81615193565b915050613340565b506101a5546040516352dec26160e11b81526001600160a01b039091169063a5bd84c2906133d890309085908b906004016153fd565b600060405180830381865afa1580156133f5573d6000803e3d6000fd5b505050506040513d6000823e601f3d908101601f1916820160405261341d91908101906152b9565b9250613428836137e0565b935050505b935093915050565b61343d613ea8565b6097805460ff191660011790557f62e78cea01bee320cd4e420270b5ea74000d11b0c9f74754ebdbfc544b05a258612fa03390565b60975460ff1615604051806040016040528060028152602001610c4d60f21b815250906112bf5760405162461bcd60e51b8152600401610f969190614731565b60006134bf338385613eee565b90506134d6836134d184600019615491565b6135b9565b6134e283303385613601565b610e2f8383613f02565b6001600160a01b0382166135425760405162461bcd60e51b815260206004820152601f60248201527f45524332303a206d696e7420746f20746865207a65726f2061646472657373006044820152606401610f96565b61354e60008383613ea0565b80603560008282546135609190614f58565b90915550506001600160a01b0382166000818152603360209081526040808320805486019055518481527fddf252ad1be2c89b69c2b068fc378daa952ba7f163c4a11628f55a4df523b3ef910160405180910390a35050565b60408083015160009081526101a760205220546135d68282615516565b60408085015160009081526101a760205220556101a6546135f8908390615516565b6101a655505050565b306001600160a01b0384160361362c578351613627906001600160a01b03168383613f37565b613643565b8351613643906001600160a01b0316848484613f9a565b50505050565b600033610ed58185856139e0565b6000816001600160a01b0316633633f35f6040518163ffffffff1660e01b8152600401600060405180830381865afa158015613697573d6000803e3d6000fd5b505050506040513d6000823e601f3d908101601f191682016040526136bf9190810190614ff2565b6060015192915050565b6136d1613fbb565b6136d9613fe2565b6136e1614012565b6136e9613fbb565b61364384848484614045565b600054610100900460ff1661371c5760405162461bcd60e51b8152600401610f9690615557565b815161372f906036906020850190614642565b5080516110af906037906020840190614642565b6101a4548151604051636e2fab0760e11b81526001600160a01b039182166004820152600092919091169063dc5f560e90602401600060405180830381865afa158015613794573d6000803e3d6000fd5b505050506040513d6000823e601f3d908101601f191682016040526137bc91908101906155a2565b8051909150156111df578060405162461bcd60e51b8152600401610f969190614731565b805151602082015151600091906137f8908290612897565b60005b81811015612b9d578360200151818151811061381957613819614f70565b60200260200101518361382c9190614f58565b925061383781615193565b90506137fb565b60408051808201909152606080825260208201526101a5548351604051638925ba9f60e01b81526001600160a01b0390921691638925ba9f9161388891309190879060040161523a565b600060405180830381865afa1580156138a5573d6000803e3d6000fd5b505050506040513d6000823e601f3d908101601f19168201604052611a2891908101906152b9565b81156111df57604080518082019091526002815261353160f01b6020820152828211156110af5760405162461bcd60e51b8152600401610f969190614731565b600061391985856134ec565b50919392505050565b8151604080516001600160a01b039092168252602082018390527f2da466a7b24304f47e87fa2e1e5a81b9831ce54fec19055ce277ca2f39ba42c491015b60405180910390a15050565b60006139788484612177565b9050600019811461364357818110156139d35760405162461bcd60e51b815260206004820152601d60248201527f45524332303a20696e73756666696369656e7420616c6c6f77616e63650000006044820152606401610f96565b61364384848484036124e9565b6001600160a01b038316613a445760405162461bcd60e51b815260206004820152602560248201527f45524332303a207472616e736665722066726f6d20746865207a65726f206164604482015264647265737360d81b6064820152608401610f96565b6001600160a01b038216613aa65760405162461bcd60e51b815260206004820152602360248201527f45524332303a207472616e7366657220746f20746865207a65726f206164647260448201526265737360e81b6064820152608401610f96565b613ab1838383613ea0565b6001600160a01b03831660009081526033602052604090205481811015613b295760405162461bcd60e51b815260206004820152602660248201527f45524332303a207472616e7366657220616d6f756e7420657863656564732062604482015265616c616e636560d01b6064820152608401610f96565b6001600160a01b0380851660008181526033602052604080822086860390559286168082529083902080548601905591517fddf252ad1be2c89b69c2b068fc378daa952ba7f163c4a11628f55a4df523b3ef90613b899086815260200190565b60405180910390a3613643565b613ba08282611d14565b6111df57613bad81614160565b613bb8836020614172565b604051602001613bc99291906155d6565b60408051601f198184030181529082905262461bcd60e51b8252610f9691600401614731565b6000805b8351811015613cc2576000838281518110613c1057613c10614f70565b60200260200101519050600061271061019e5483613c2e919061564b565b613c38919061566a565b9050613c44818361517c565b9150613c508185614f58565b9350613c75868481518110613c6757613c67614f70565b602002602001015183611e68565b5060408051338152602081018490527f3f89e1d936a29a8de9ae9040436992721a00bc63bbe3ca55692b95f0311640b2910160405180910390a1505080613cbb90615193565b9050613bf3565b5080156110af5761019d54613ce0906001600160a01b031682611e68565b5060408051338152602081018390527f932bd968974f0b6fa1cb59bf961f81d2e57b39332d311b413dceae17966387db910160405180910390a1505050565b82516040516335927feb60e11b81526001600160a01b038481166004830152602482018490526000921690636b24ffd6906044016020604051808303816000875af1158015613d72573d6000803e3d6000fd5b505050506040513d601f19601f82011682018060405250810190610fb49190614e91565b6001600160a01b0381163b613e035760405162461bcd60e51b815260206004820152602d60248201527f455243313936373a206e657720696d706c656d656e746174696f6e206973206e60448201526c1bdd08184818dbdb9d1c9858dd609a1b6064820152608401610f96565b6000805160206156c083398151915280546001600160a01b0319166001600160a01b0392909216919091179055565b613e3b8361430d565b600082511180613e485750805b156110af57613643838361434d565b60975460ff166116785760405162461bcd60e51b815260206004820152601460248201527314185d5cd8589b194e881b9bdd081c185d5cd95960621b6044820152606401610f96565b6110af613472565b60975460ff16156116785760405162461bcd60e51b815260206004820152601060248201526f14185d5cd8589b194e881c185d5cd95960821b6044820152606401610f96565b6000613efa84846130af565b509092915050565b81516040517f27d4634c833b7622a0acddbf7f746183625f105945e95c723ad1d5a9f2a0b6fc9161396091339190859061523a565b6040516001600160a01b0383166024820152604481018290526110af90849063a9059cbb60e01b906064015b60408051601f198184030181529190526020810180516001600160e01b03166001600160e01b031990931692909217909152614372565b613643846323b872dd60e01b858585604051602401613f639392919061523a565b600054610100900460ff166116785760405162461bcd60e51b8152600401610f9690615557565b600054610100900460ff166140095760405162461bcd60e51b8152600401610f9690615557565b61167833613017565b600054610100900460ff166140395760405162461bcd60e51b8152600401610f9690615557565b6097805460ff19169055565b82811461408c5760405162461bcd60e51b8152602060048201526015602482015274082e4e4c2f240d8cadccee8d040dad2e6dac2e8c6d605b1b6044820152606401610f96565b614094613fbb565b6000805b8481101561411d576140e88484838181106140b5576140b5614f70565b905060200201358787848181106140ce576140ce614f70565b90506020020160208101906140e391906147a5565b612a3c565b60008484838181106140fc576140fc614f70565b905060200201350361410d57600191505b61411681615193565b9050614098565b50806120345760405162461bcd60e51b8152602060048201526012602482015271139bc818591b5a5b881cdc1958da599a595960721b6044820152606401610f96565b6060610e2f6001600160a01b03831660145b6060600061418183600261564b565b61418c906002614f58565b6001600160401b038111156141a3576141a3614957565b6040519080825280601f01601f1916602001820160405280156141cd576020820181803683370190505b509050600360fc1b816000815181106141e8576141e8614f70565b60200101906001600160f81b031916908160001a905350600f60fb1b8160018151811061421757614217614f70565b60200101906001600160f81b031916908160001a905350600061423b84600261564b565b614246906001614f58565b90505b60018111156142be576f181899199a1a9b1b9c1cb0b131b232b360811b85600f166010811061427a5761427a614f70565b1a60f81b82828151811061429057614290614f70565b60200101906001600160f81b031916908160001a90535060049490941c936142b78161568c565b9050614249565b508315611a285760405162461bcd60e51b815260206004820181905260248201527f537472696e67733a20686578206c656e67746820696e73756666696369656e746044820152606401610f96565b61431681613d96565b6040516001600160a01b038216907fbc7cd75a20ee27fd9adebab32041f755214dbc6bffa90cc0225b39da2e5c2d3b90600090a250565b6060611a2883836040518060600160405280602781526020016156e060279139614447565b60006143c7826040518060400160405280602081526020017f5361666545524332303a206c6f772d6c6576656c2063616c6c206661696c6564815250856001600160a01b03166144b59092919063ffffffff16565b90508051600014806143e85750808060200190518101906143e89190615202565b6110af5760405162461bcd60e51b815260206004820152602a60248201527f5361666545524332303a204552433230206f7065726174696f6e20646964206e6044820152691bdd081cdd58d8d9595960b21b6064820152608401610f96565b6060600080856001600160a01b03168560405161446491906156a3565b600060405180830381855af49150503d806000811461449f576040519150601f19603f3d011682016040523d82523d6000602084013e6144a4565b606091505b509150915061115b868383876144c4565b6060610fb4848460008561453d565b6060831561453357825160000361452c576001600160a01b0385163b61452c5760405162461bcd60e51b815260206004820152601d60248201527f416464726573733a2063616c6c20746f206e6f6e2d636f6e74726163740000006044820152606401610f96565b5081610fb4565b610fb48383614618565b60608247101561459e5760405162461bcd60e51b815260206004820152602660248201527f416464726573733a20696e73756666696369656e742062616c616e636520666f6044820152651c8818d85b1b60d21b6064820152608401610f96565b600080866001600160a01b031685876040516145ba91906156a3565b60006040518083038185875af1925050503d80600081146145f7576040519150601f19603f3d011682016040523d82523d6000602084013e6145fc565b606091505b509150915061460d878383876144c4565b979650505050505050565b8151156146285781518083602001fd5b8060405162461bcd60e51b8152600401610f969190614731565b82805461464e90614d89565b90600052602060002090601f01602090048101928261467057600085556146b6565b82601f1061468957805160ff19168380011785556146b6565b828001600101855582156146b6579182015b828111156146b657825182559160200191906001019061469b565b506146c29291506146c6565b5090565b5b808211156146c257600081556001016146c7565b6000602082840312156146ed57600080fd5b81356001600160e01b031981168114611a2857600080fd5b60005b83811015614720578181015183820152602001614708565b838111156136435750506000910152565b6020815260008251806020840152614750816040850160208701614705565b601f01601f19169190910160400192915050565b6001600160a01b03811681146112bf57600080fd5b6000806040838503121561478c57600080fd5b823561479781614764565b946020939093013593505050565b6000602082840312156147b757600080fd5b8135611a2881614764565b6000806000606084860312156147d757600080fd5b83356147e281614764565b95602085013595506040909401359392505050565b60008083601f84011261480957600080fd5b5081356001600160401b0381111561482057600080fd5b6020830191508360208260051b850101111561483b57600080fd5b9250929050565b60008060008060006060868803121561485a57600080fd5b853563ffffffff8116811461486e57600080fd5b945060208601356001600160401b038082111561488a57600080fd5b61489689838a016147f7565b909650945060408801359150808211156148af57600080fd5b506148bc888289016147f7565b969995985093965092949392505050565b6000806000606084860312156148e257600080fd5b83356148ed81614764565b925060208401356148fd81614764565b929592945050506040919091013590565b60006020828403121561492057600080fd5b5035919050565b6000806040838503121561493a57600080fd5b82359150602083013561494c81614764565b809150509250929050565b634e487b7160e01b600052604160045260246000fd5b60405161018081016001600160401b038111828210171561499057614990614957565b60405290565b604080519081016001600160401b038111828210171561499057614990614957565b604051601f8201601f191681016001600160401b03811182821017156149e0576149e0614957565b604052919050565b60006001600160401b03821115614a0157614a01614957565b5060051b60200190565b600082601f830112614a1c57600080fd5b81356020614a31614a2c836149e8565b6149b8565b82815260059290921b84018101918181019086841115614a5057600080fd5b8286015b84811015614a74578035614a6781614764565b8352918301918301614a54565b509695505050505050565b600082601f830112614a9057600080fd5b81356020614aa0614a2c836149e8565b82815260059290921b84018101918181019086841115614abf57600080fd5b8286015b84811015614a745780358352918301918301614ac3565b600080600060608486031215614aef57600080fd5b83356001600160401b0380821115614b0657600080fd5b614b1287838801614a0b565b94506020860135915080821115614b2857600080fd5b50614b3586828701614a7f565b925050604084013590509250925092565b60006001600160401b03821115614b5f57614b5f614957565b50601f01601f191660200190565b60008060408385031215614b8057600080fd5b8235614b8b81614764565b915060208301356001600160401b03811115614ba657600080fd5b8301601f81018513614bb757600080fd5b8035614bc5614a2c82614b46565b818152866020838501011115614bda57600080fd5b816020840160208301376000602083830101528093505050509250929050565b80151581146112bf57600080fd5b600080600060608486031215614c1d57600080fd5b83356001600160401b0380821115614c3457600080fd5b614c4087838801614a0b565b94506020860135915080821115614c5657600080fd5b50614c6386828701614a7f565b9250506040840135614c7481614bfa565b809150509250925092565b60008060208385031215614c9257600080fd5b82356001600160401b0380821115614ca957600080fd5b818501915085601f830112614cbd57600080fd5b813581811115614ccc57600080fd5b866020828501011115614cde57600080fd5b60209290920196919550909350505050565b60008060008060408587031215614d0657600080fd5b84356001600160401b0380821115614d1d57600080fd5b614d29888389016147f7565b90965094506020870135915080821115614d4257600080fd5b50614d4f878288016147f7565b95989497509550505050565b60008060408385031215614d6e57600080fd5b8235614d7981614764565b9150602083013561494c81614764565b600181811c90821680614d9d57607f821691505b602082108103614dbd57634e487b7160e01b600052602260045260246000fd5b50919050565b8183526000602080850194508260005b85811015614e01578135614de681614764565b6001600160a01b031687529582019590820190600101614dd3565b509495945050505050565b81835260006001600160fb1b03831115614e2557600080fd5b8260051b8083602087013760009401602001938452509192915050565b63ffffffff87168152608060208201526000614e62608083018789614dc3565b8281036040840152614e75818688614e0c565b91505060018060a01b0383166060830152979650505050505050565b600060208284031215614ea357600080fd5b5051919050565b6020808252602c908201527f46756e6374696f6e206d7573742062652063616c6c6564207468726f7567682060408201526b19195b1959d85d1958d85b1b60a21b606082015260800190565b6020808252602c908201527f46756e6374696f6e206d7573742062652063616c6c6564207468726f7567682060408201526b6163746976652070726f787960a01b606082015260800190565b634e487b7160e01b600052601160045260246000fd5b60008219821115614f6b57614f6b614f42565b500190565b634e487b7160e01b600052603260045260246000fd5b600082601f830112614f9757600080fd5b8151614fa5614a2c82614b46565b818152846020838601011115614fba57600080fd5b610fb4826020830160208701614705565b80516001600160401b0381168114614fe257600080fd5b919050565b8051614fe281614bfa565b60006020828403121561500457600080fd5b81516001600160401b038082111561501b57600080fd5b90830190610180828603121561503057600080fd5b61503861496d565b82518281111561504757600080fd5b61505387828601614f86565b82525061506260208401614fcb565b602082015261507360408401614fcb565b60408201526060830151606082015261508e60808401614fcb565b608082015261509f60a08401614fe7565b60a08201526150b060c08401614fe7565b60c082015260e0830151828111156150c757600080fd5b6150d387828601614f86565b60e08301525061010080840151838111156150ed57600080fd5b6150f988828701614f86565b828401525050610120808401518381111561511357600080fd5b61511f88828701614f86565b828401525050610140808401518381111561513957600080fd5b61514588828701614f86565b828401525050610160808401518381111561515f57600080fd5b61516b88828701614f86565b918301919091525095945050505050565b60008282101561518e5761518e614f42565b500390565b6000600182016151a5576151a5614f42565b5060010190565b6040815260006151c0604083018688614dc3565b828103602084015261460d818587614e0c565b60208152816020820152818360408301376000818301604090810191909152601f909201601f19160101919050565b60006020828403121561521457600080fd5b8151611a2881614bfa565b60006020828403121561523157600080fd5b611a2882614fcb565b6001600160a01b039384168152919092166020820152604081019190915260600190565b600082601f83011261526f57600080fd5b8151602061527f614a2c836149e8565b82815260059290921b8401810191818101908684111561529e57600080fd5b8286015b84811015614a7457805183529183019183016152a2565b600060208083850312156152cc57600080fd5b82516001600160401b03808211156152e357600080fd5b90840190604082870312156152f757600080fd5b6152ff614996565b82518281111561530e57600080fd5b8301601f8101881361531f57600080fd5b805161532d614a2c826149e8565b81815260059190911b8201860190868101908a83111561534c57600080fd5b928701925b8284101561537357835161536481614764565b82529287019290870190615351565b8452505050828401518281111561538957600080fd5b6153958882860161525e565b948201949094529695505050505050565b6000604082840312156153b857600080fd5b604051604081018181106001600160401b03821117156153da576153da614957565b60405282516153e881614764565b81526020928301519281019290925250919050565b6001600160a01b038481168252606060208084018290528551918401829052600092868201929091906080860190855b8181101561544b57855185168352948301949183019160010161542d565b5050858103604087015286518082529082019350915080860160005b8381101561548357815185529382019390820190600101615467565b509298975050505050505050565b60006001600160ff1b03818413828413808216868404861116156154b7576154b7614f42565b600160ff1b60008712828116878305891216156154d6576154d6614f42565b600087129250878205871284841616156154f2576154f2614f42565b8785058712818416161561550857615508614f42565b505050929093029392505050565b600080821280156001600160ff1b038490038513161561553857615538614f42565b600160ff1b839003841281161561555157615551614f42565b50500190565b6020808252602b908201527f496e697469616c697a61626c653a20636f6e7472616374206973206e6f74206960408201526a6e697469616c697a696e6760a81b606082015260800190565b6000602082840312156155b457600080fd5b81516001600160401b038111156155ca57600080fd5b610fb484828501614f86565b7f416363657373436f6e74726f6c3a206163636f756e742000000000000000000081526000835161560e816017850160208801614705565b7001034b99036b4b9b9b4b733903937b6329607d1b601791840191820152835161563f816028840160208801614705565b01602801949350505050565b600081600019048311821515161561566557615665614f42565b500290565b60008261568757634e487b7160e01b600052601260045260246000fd5b500490565b60008161569b5761569b614f42565b506000190190565b600082516156b5818460208701614705565b919091019291505056fe360894a13ba1a3210667c828492db98dca3e2076cc3735a920a3ca505d382bbc416464726573733a206c6f772d6c6576656c2064656c65676174652063616c6c206661696c6564a2646970667358221220b4aa92b7ce07fdb8f45c9c1bfed14b6fc4890815fad1c51f153eccc60b2df2c564736f6c634300080e0033",
  "devdoc": {
    "kind": "dev",
    "methods": {
      "addRedeemFeeExemptedAddress(address)": {
        "params": {
          "_address": "address to be exempted on redeem fees"
        }
      },
      "addRedeemFeeExemptedTCO2(address)": {
        "params": {
          "_tco2": "TCO2 to be exempted on redeem fees"
        }
      },
      "allowance(address,address)": {
        "details": "See {IERC20-allowance}."
      },
      "approve(address,uint256)": {
        "details": "See {IERC20-approve}. NOTE: If `amount` is the maximum `uint256`, the allowance is not updated on `transferFrom`. This is semantically equivalent to an infinite approval. Requirements: - `spender` cannot be the zero address."
      },
      "balanceOf(address)": {
        "details": "See {IERC20-balanceOf}."
      },
      "bridgeBurn(address,uint256)": {
        "details": "invoked only by the ToucanCrosschainMessenger (Router)",
        "params": {
          "_account": "account that will be burned with corss-chain bridged tokens",
          "_amount": "amount of tokens that will be burned"
        }
      },
      "bridgeMint(address,uint256)": {
        "details": "invoked only by the ToucanCrosschainMessenger (Router)",
        "params": {
          "_account": "account that will be minted with corss-chain bridged tokens",
          "_amount": "amount of tokens that will be minted"
        }
      },
      "bridgeTCO2s(uint32,address[],uint256[])": {
        "params": {
          "amounts": "The amounts of TCO2s to bridge",
          "destinationDomain": "The domain to bridge TCO2s to",
          "tco2s": "The TCO2s to bridge"
        }
      },
      "calculateDepositFees(address,uint256)": {
        "details": "User specifies in front-end the address and amount they want",
        "params": {
          "amount": "Amount to redeem",
          "tco2": "TCO2 contract address"
        },
        "returns": {
          "feeDistributionTotal": "Total fee amount to be paid"
        }
      },
      "calculateRedemptionOutFees(address[],uint256[],bool)": {
        "params": {
          "amounts": "Array of TCO2 amounts to redeem The indexes of this array are matching 1:1 with the tco2s array.",
          "tco2s": "Array of TCO2 contract addresses",
          "toRetire": "Whether the TCO2s will be retired atomically with the redemption. It may be that lower fees will be charged in this case. Currently not supported."
        },
        "returns": {
          "feeDistributionTotal": "Total fee amount to be paid"
        }
      },
      "checkEligible(address)": {
        "params": {
          "vintageToken": "the contract to check"
        },
        "returns": {
          "isEligible": "true if address is eligible and no other issues occur"
        }
      },
      "completeTCO2Bridging(address[],uint256[])": {
        "params": {
          "amounts": "The amounts of TCO2s that have been bridged",
          "tco2s": "The TCO2s that have been bridged"
        }
      },
      "decimals()": {
        "details": "Returns the number of decimals used to get its user representation. For example, if `decimals` equals `2`, a balance of `505` tokens should be displayed to a user as `5.05` (`505 / 10 ** 2`). Tokens usually opt for a value of 18, imitating the relationship between Ether and Wei. This is the default value returned by this function, unless it's overridden. NOTE: This information is only used for _display_ purposes: it in no way affects any of the arithmetic of the contract, including {IERC20-balanceOf} and {IERC20-transfer}."
      },
      "decreaseAllowance(address,uint256)": {
        "details": "Atomically decreases the allowance granted to `spender` by the caller. This is an alternative to {approve} that can be used as a mitigation for problems described in {IERC20-approve}. Emits an {Approval} event indicating the updated allowance. Requirements: - `spender` cannot be the zero address. - `spender` must have allowance for the caller of at least `subtractedValue`."
      },
      "deposit(address,uint256,uint256)": {
        "details": "Eligibility of the ERC20 token to be deposited is checked via `checkEligible`",
        "params": {
          "amount": "Amount of TCO2 to be deposited",
          "maxFee": "Maximum fee to be paid for the deposit. This value cannot be zero. Use `calculateDepositFees(tco2,amount)` to determine the fee that will be charged given the state of the pool during this call. Add a buffer on top of the returned fee amount up to the maximum fee you are willing to pay.",
          "tco2": "TCO2 to be deposited. The pool contract needs to be approved in the TCO2 contract by the caller in order to allow the transfer of TCO2 tokens to the pool"
        },
        "returns": {
          "mintedPoolTokenAmount": "Amount of pool tokens minted to the caller"
        }
      },
      "getRemaining()": {
        "details": "Returns the remaining space in pool before hitting the cap"
      },
      "getRoleAdmin(bytes32)": {
        "details": "Returns the admin role that controls `role`. See {grantRole} and {revokeRole}. To change a role's admin, use {_setRoleAdmin}."
      },
      "grantRole(bytes32,address)": {
        "details": "Grants `role` to `account`. If `account` had not been already granted `role`, emits a {RoleGranted} event. Requirements: - the caller must have ``role``'s admin role. May emit a {RoleGranted} event."
      },
      "hasRole(bytes32,address)": {
        "details": "Returns `true` if `account` has been granted `role`."
      },
      "increaseAllowance(address,uint256)": {
        "details": "Atomically increases the allowance granted to `spender` by the caller. This is an alternative to {approve} that can be used as a mitigation for problems described in {IERC20-approve}. Emits an {Approval} event indicating the updated allowance. Requirements: - `spender` cannot be the zero address."
      },
      "name()": {
        "details": "Returns the name of the token."
      },
      "owner()": {
        "details": "Returns the address of the current owner."
      },
      "pause()": {
        "details": "wraps _pause(), only Admin"
      },
      "paused()": {
        "details": "Returns true if the contract is paused, and false otherwise."
      },
      "proxiableUUID()": {
        "details": "Implementation of the ERC1822 {proxiableUUID} function. This returns the storage slot used by the implementation. It is used to validate the implementation's compatibility when performing an upgrade. IMPORTANT: A proxy pointing at a proxiable contract should not be considered proxiable itself, because this risks bricking a proxy that upgrades to it, by delegating to itself until out of gas. Thus it is critical that this function revert if invoked through a proxy. This is guaranteed by the `notDelegated` modifier."
      },
      "quoteBridgeTCO2sFee(uint32,address[],uint256[])": {
        "params": {
          "amounts": "The amounts of TCO2s to bridge",
          "destinationDomain": "The domain to bridge TCO2s to",
          "tco2s": "The TCO2s to bridge"
        },
        "returns": {
          "fee": "The fee amount to be paid"
        }
      },
      "redeemAndBurn(address,uint256)": {
        "details": "User needs to approve the pool contract in the TCO2 contract for the amount to be burnt before executing this function.",
        "params": {
          "amount": "Amount to redeem and burn",
          "tco2": "TCO2 to redeem and burn"
        }
      },
      "redeemOutMany(address[],uint256[],uint256)": {
        "params": {
          "amounts": "Array of TCO2 amounts to redeem The indexes of this array are matching 1:1 with the tco2s array.",
          "maxFee": "Maximum fee to be paid for the redemption. This value cannot be zero. Use `calculateRedemptionOutFees(tco2s,amounts,false)` to determine the fee that will be charged given the state of the pool during this call. Add a buffer on top of the returned fee amount up to the maximum fee you are willing to pay.",
          "tco2s": "Array of TCO2 contract addresses"
        },
        "returns": {
          "poolAmountSpent": "The amount of pool tokens spent by the caller"
        }
      },
      "removeRedeemFeeExemptedAddress(address)": {
        "params": {
          "_address": "address to be removed from exemption"
        }
      },
      "removeRedeemFeeExemptedTCO2(address)": {
        "params": {
          "_tco2": "TCO2 to be removed from exemption"
        }
      },
      "renounceOwnership()": {
        "details": "Leaves the contract without owner. It will not be possible to call `onlyOwner` functions. Can only be called by the current owner. NOTE: Renouncing ownership will leave the contract without an owner, thereby disabling any functionality that is only available to the owner."
      },
      "renounceRole(bytes32,address)": {
        "details": "Revokes `role` from the calling account. Roles are often managed via {grantRole} and {revokeRole}: this function's purpose is to provide a mechanism for accounts to lose their privileges if they are compromised (such as when a trusted device is misplaced). If the calling account had been revoked `role`, emits a {RoleRevoked} event. Requirements: - the caller must be `account`. May emit a {RoleRevoked} event."
      },
      "revokeRole(bytes32,address)": {
        "details": "Revokes `role` from `account`. If `account` had been granted `role`, emits a {RoleRevoked} event. Requirements: - the caller must have ``role``'s admin role. May emit a {RoleRevoked} event."
      },
      "setFeeCalculator(address)": {
        "params": {
          "_feeCalculator": "Fee module contract address"
        }
      },
      "setFeeRedeemBurnAddress(address)": {
        "params": {
          "feeRedeemBurnAddress_": "address to transfer the fees to burn"
        }
      },
      "setFeeRedeemBurnPercentage(uint256)": {
        "params": {
          "feeRedeemBurnPercentageInBase_": "percentage of fee in base"
        }
      },
      "setFilter(address)": {
        "params": {
          "_filter": "Filter contract address"
        }
      },
      "setRouter(address)": {
        "details": "use this method to set router address",
        "params": {
          "_router": "address of ToucanCrosschainMessenger"
        }
      },
      "setSupplyCap(uint256)": {
        "details": "supplyCap is initially set to 0 and must be increased before deposits",
        "params": {
          "newCap": "New pool supply cap"
        }
      },
      "supportsInterface(bytes4)": {
        "details": "See {IERC165-supportsInterface}."
      },
      "symbol()": {
        "details": "Returns the symbol of the token, usually a shorter version of the name."
      },
      "tokenBalance(address)": {
        "params": {
          "tco2": "TCO2 contract address"
        },
        "returns": {
          "_0": "balance pool balance"
        }
      },
      "tokenBalances(address)": {
        "details": "Exposed for backwards compatibility and will be removed in a future version. Use tokenBalance instead."
      },
      "totalPerProjectSupply(address)": {
        "returns": {
          "_0": "supply"
        }
      },
      "totalPerProjectTCO2Supply(uint256)": {
        "details": "Exposed for backwards compatibility and will be removed in a future version. Use totalProjectSupply instead."
      },
      "totalSupply()": {
        "details": "See {IERC20-totalSupply}."
      },
      "totalTCO2Supply()": {
        "details": "Exposed for backwards compatibility and will be removed in a future version. Use totalUnderlyingSupply instead."
      },
      "transferOwnership(address)": {
        "details": "Transfers ownership of the contract to a new account (`newOwner`). Can only be called by the current owner."
      },
      "unpause()": {
        "details": "Unpause the system, wraps _unpause(), only Admin"
      },
      "upgradeTo(address)": {
        "custom:oz-upgrades-unsafe-allow-reachable": "delegatecall",
        "details": "Upgrade the implementation of the proxy to `newImplementation`. Calls {_authorizeUpgrade}. Emits an {Upgraded} event."
      },
      "upgradeToAndCall(address,bytes)": {
        "custom:oz-upgrades-unsafe-allow-reachable": "delegatecall",
        "details": "Upgrade the implementation of the proxy to `newImplementation`, and subsequently execute the function call encoded in `data`. Calls {_authorizeUpgrade}. Emits an {Upgraded} event."
      }
    },
    "stateVariables": {
      "VERSION": {
        "details": "Version-related parameters. VERSION keeps track of production releases. VERSION_RELEASE_CANDIDATE keeps track of iterations of a VERSION in our staging environment."
      }
    },
    "version": 1
  },
  "userdoc": {
    "kind": "user",
    "methods": {
      "addRedeemFeeExemptedAddress(address)": {
        "notice": "Adds a new address for redeem fees exemption"
      },
      "addRedeemFeeExemptedTCO2(address)": {
        "notice": "Adds a new TCO2 for redeem fees exemption"
      },
      "bridgeBurn(address,uint256)": {
        "notice": "burn tokens from account to be cross-chain bridged"
      },
      "bridgeMint(address,uint256)": {
        "notice": "mint tokens to receiver account that were cross-chain bridged"
      },
      "bridgeTCO2s(uint32,address[],uint256[])": {
        "notice": "Allows MANAGER or the owner to bridge TCO2s into another domain."
      },
      "calculateDepositFees(address,uint256)": {
        "notice": "View function to calculate deposit fees pre-execution"
      },
      "calculateRedemptionInFees(address[],uint256[],bool)": {
        "notice": "View function to calculate fees pre-execution, according to the amounts of pool tokens to be spent. NOTE: This function is not supported yet"
      },
      "calculateRedemptionOutFees(address[],uint256[],bool)": {
        "notice": "View function to calculate fees pre-execution, according to the amounts of TCO2 to be redeemed."
      },
      "checkEligible(address)": {
        "notice": "Checks if token to be deposited is eligible for this pool. Reverts if not. Beware that the revert reason might depend on the underlying implementation of IPoolFilter.checkEligible"
      },
      "completeTCO2Bridging(address[],uint256[])": {
        "notice": "Allows a router to complete the bridging of tokens. It transfers the tokens to the pool itself and updates the counters."
      },
      "deposit(address,uint256,uint256)": {
        "notice": "Deposit function for pool that accepts TCO2s and mints pool token 1:1"
      },
      "feeCalculator()": {
        "notice": "module to calculate fees for the pool"
      },
      "methodologies(string)": {
        "notice": "Checks if methodology is eligible for this pool"
      },
      "minimumVintageStartTime()": {
        "notice": "Returns minimum vintage start time for this pool"
      },
      "pause()": {
        "notice": "Emergency function to disable contract's core functionality"
      },
      "quoteBridgeTCO2sFee(uint32,address[],uint256[])": {
        "notice": "Get the fee needed to bridge TCO2s into the destination domain."
      },
      "redeemAndBurn(address,uint256)": {
        "notice": "Redeem a whitelisted TCO2 without paying any fees and burn the TCO2. Initially added to burn HFC-23 credits, can be used in the future to dispose of any other whitelisted credits."
      },
      "redeemFeeExemptedAddresses(address)": {
        "notice": "End users exempted from redeem fees"
      },
      "redeemFeeExemptedTCO2s(address)": {
        "notice": "TCO2s exempted from redeem fees"
      },
      "redeemOutMany(address[],uint256[],uint256)": {
        "notice": "Redeem TCO2s for pool tokens 1:1 minus fees The amounts provided are the exact amounts of TCO2s to be redeemed."
      },
      "regions(string)": {
        "notice": "Checks if region is eligible for this pool"
      },
      "removeRedeemFeeExemptedAddress(address)": {
        "notice": "Removes an address from redeem fees exemption"
      },
      "removeRedeemFeeExemptedTCO2(address)": {
        "notice": "Removes a TCO2 from redeem fees exemption"
      },
      "router()": {
        "notice": "bridge router who has access to the bridgeMint & bridgeBurn functions which mint/burn pool tokens for cross chain messenges"
      },
      "scoredTCO2s(uint256)": {
        "notice": "array used to read from when redeeming TCO2s automatically"
      },
      "setFeeCalculator(address)": {
        "notice": "Update the address of the fee module contract"
      },
      "setFeeRedeemBurnAddress(address)": {
        "notice": "Update the fee redeem burn address"
      },
      "setFeeRedeemBurnPercentage(uint256)": {
        "notice": "Update the fee redeem burn percentage"
      },
      "setFilter(address)": {
        "notice": "Update the address of the filter contract"
      },
      "setRouter(address)": {
        "notice": "method to set router address"
      },
      "setSupplyCap(uint256)": {
        "notice": "Function to limit the maximum pool supply"
      },
      "standards(string)": {
        "notice": "Checks if standard is eligible for this pool"
      },
      "supplyCap()": {
        "notice": "The supply cap is used as a measure to guard deposits in the pool. It is meant to minimize the impact a potential compromise in the source registry (eg. Verra) can have to the pool."
      },
      "tokenBalance(address)": {
        "notice": "Returns the balance of the carbon offset found in the pool"
      },
      "totalPerProjectSupply(address)": {
        "notice": "Return the total supply of the project for the given TCO2 token."
      },
      "totalProjectSupply(uint256)": {
        "notice": "Project token id to total supply of the project in the pool. Supply amounts are kept in the underlying's native precision regardless of whether underlying is an ERC-20 or ERC-1155 token."
      },
      "totalUnderlyingSupply()": {
        "notice": "Total supply of underlying collateral in the pool.  Supply amounts are kept in the underlying's native precision regardless of whether underlying is an ERC-20 or ERC-1155 token."
      }
    },
    "notice": "Biochar pool contract",
    "version": 1
  },
  "storageLayout": {
    "storage": [
      {
        "astId": 2373,
        "contract": "contracts/pools/Biochar.sol:Biochar",
        "label": "_initialized",
        "offset": 0,
        "slot": "0",
        "type": "t_uint8"
      },
      {
        "astId": 2376,
        "contract": "contracts/pools/Biochar.sol:Biochar",
        "label": "_initializing",
        "offset": 1,
        "slot": "0",
        "type": "t_bool"
      },
      {
        "astId": 7515,
        "contract": "contracts/pools/Biochar.sol:Biochar",
        "label": "__gap",
        "offset": 0,
        "slot": "1",
        "type": "t_array(t_uint256)50_storage"
      },
      {
        "astId": 4507,
        "contract": "contracts/pools/Biochar.sol:Biochar",
        "label": "_balances",
        "offset": 0,
        "slot": "51",
        "type": "t_mapping(t_address,t_uint256)"
      },
      {
        "astId": 4513,
        "contract": "contracts/pools/Biochar.sol:Biochar",
        "label": "_allowances",
        "offset": 0,
        "slot": "52",
        "type": "t_mapping(t_address,t_mapping(t_address,t_uint256))"
      },
      {
        "astId": 4515,
        "contract": "contracts/pools/Biochar.sol:Biochar",
        "label": "_totalSupply",
        "offset": 0,
        "slot": "53",
        "type": "t_uint256"
      },
      {
        "astId": 4517,
        "contract": "contracts/pools/Biochar.sol:Biochar",
        "label": "_name",
        "offset": 0,
        "slot": "54",
        "type": "t_string_storage"
      },
      {
        "astId": 4519,
        "contract": "contracts/pools/Biochar.sol:Biochar",
        "label": "_symbol",
        "offset": 0,
        "slot": "55",
        "type": "t_string_storage"
      },
      {
        "astId": 5099,
        "contract": "contracts/pools/Biochar.sol:Biochar",
        "label": "__gap",
        "offset": 0,
        "slot": "56",
        "type": "t_array(t_uint256)45_storage"
      },
      {
        "astId": 1879,
        "contract": "contracts/pools/Biochar.sol:Biochar",
        "label": "_owner",
        "offset": 0,
        "slot": "101",
        "type": "t_address"
      },
      {
        "astId": 1999,
        "contract": "contracts/pools/Biochar.sol:Biochar",
        "label": "__gap",
        "offset": 0,
        "slot": "102",
        "type": "t_array(t_uint256)49_storage"
      },
      {
        "astId": 2694,
        "contract": "contracts/pools/Biochar.sol:Biochar",
        "label": "_paused",
        "offset": 0,
        "slot": "151",
        "type": "t_bool"
      },
      {
        "astId": 2799,
        "contract": "contracts/pools/Biochar.sol:Biochar",
        "label": "__gap",
        "offset": 0,
        "slot": "152",
        "type": "t_array(t_uint256)49_storage"
      },
      {
        "astId": 7899,
        "contract": "contracts/pools/Biochar.sol:Biochar",
        "label": "__gap",
        "offset": 0,
        "slot": "201",
        "type": "t_array(t_uint256)50_storage"
      },
      {
        "astId": 1486,
        "contract": "contracts/pools/Biochar.sol:Biochar",
        "label": "_roles",
        "offset": 0,
        "slot": "251",
        "type": "t_mapping(t_bytes32,t_struct(RoleData)1481_storage)"
      },
      {
        "astId": 1793,
        "contract": "contracts/pools/Biochar.sol:Biochar",
        "label": "__gap",
        "offset": 0,
        "slot": "252",
        "type": "t_array(t_uint256)49_storage"
      },
      {
        "astId": 2355,
        "contract": "contracts/pools/Biochar.sol:Biochar",
        "label": "__gap",
        "offset": 0,
        "slot": "301",
        "type": "t_array(t_uint256)50_storage"
      },
      {
        "astId": 2671,
        "contract": "contracts/pools/Biochar.sol:Biochar",
        "label": "__gap",
        "offset": 0,
        "slot": "351",
        "type": "t_array(t_uint256)50_storage"
      },
      {
        "astId": 32091,
        "contract": "contracts/pools/Biochar.sol:Biochar",
        "label": "supplyCap",
        "offset": 0,
        "slot": "401",
        "type": "t_uint256"
      },
      {
        "astId": 32095,
        "contract": "contracts/pools/Biochar.sol:Biochar",
        "label": "DEPRECATED_tokenBalances",
        "offset": 0,
        "slot": "402",
        "type": "t_mapping(t_address,t_uint256)"
      },
      {
        "astId": 32097,
        "contract": "contracts/pools/Biochar.sol:Biochar",
        "label": "DEPRECATED_contractRegistry",
        "offset": 0,
        "slot": "403",
        "type": "t_address"
      },
      {
        "astId": 32101,
        "contract": "contracts/pools/Biochar.sol:Biochar",
        "label": "scoredTCO2s",
        "offset": 0,
        "slot": "404",
        "type": "t_array(t_address)dyn_storage"
      },
      {
        "astId": 32106,
        "contract": "contracts/pools/Biochar.sol:Biochar",
        "label": "DEPRECATED_regions",
        "offset": 0,
        "slot": "405",
        "type": "t_mapping(t_string_memory_ptr,t_bool)"
      },
      {
        "astId": 32110,
        "contract": "contracts/pools/Biochar.sol:Biochar",
        "label": "DEPRECATED_standards",
        "offset": 0,
        "slot": "406",
        "type": "t_mapping(t_string_memory_ptr,t_bool)"
      },
      {
        "astId": 32114,
        "contract": "contracts/pools/Biochar.sol:Biochar",
        "label": "DEPRECATED_methodologies",
        "offset": 0,
        "slot": "407",
        "type": "t_mapping(t_string_memory_ptr,t_bool)"
      },
      {
        "astId": 32119,
        "contract": "contracts/pools/Biochar.sol:Biochar",
        "label": "DEPRECATED_externalWhiteList",
        "offset": 0,
        "slot": "408",
        "type": "t_mapping(t_address,t_bool)"
      },
      {
        "astId": 32124,
        "contract": "contracts/pools/Biochar.sol:Biochar",
        "label": "DEPRECATED_internalWhiteList",
        "offset": 0,
        "slot": "409",
        "type": "t_mapping(t_address,t_bool)"
      },
      {
        "astId": 32129,
        "contract": "contracts/pools/Biochar.sol:Biochar",
        "label": "DEPRECATED_internalBlackList",
        "offset": 0,
        "slot": "410",
        "type": "t_mapping(t_address,t_bool)"
      },
      {
        "astId": 32132,
        "contract": "contracts/pools/Biochar.sol:Biochar",
        "label": "_feeRedeemReceiver",
        "offset": 0,
        "slot": "411",
        "type": "t_address"
      },
      {
        "astId": 32134,
        "contract": "contracts/pools/Biochar.sol:Biochar",
        "label": "_feeRedeemPercentageInBase",
        "offset": 0,
        "slot": "412",
        "type": "t_uint256"
      },
      {
        "astId": 32137,
        "contract": "contracts/pools/Biochar.sol:Biochar",
        "label": "_feeRedeemBurnAddress",
        "offset": 0,
        "slot": "413",
        "type": "t_address"
      },
      {
        "astId": 32140,
        "contract": "contracts/pools/Biochar.sol:Biochar",
        "label": "_feeRedeemBurnPercentageInBase",
        "offset": 0,
        "slot": "414",
        "type": "t_uint256"
      },
      {
        "astId": 32143,
        "contract": "contracts/pools/Biochar.sol:Biochar",
        "label": "DEPRECATED_minimumVintageStartTime",
        "offset": 0,
        "slot": "415",
        "type": "t_uint64"
      },
      {
        "astId": 32145,
        "contract": "contracts/pools/Biochar.sol:Biochar",
        "label": "DEPRECATED_seedMode",
        "offset": 8,
        "slot": "415",
        "type": "t_bool"
      },
      {
        "astId": 32147,
        "contract": "contracts/pools/Biochar.sol:Biochar",
        "label": "DEPRECATED_regionsIsAcceptedMapping",
        "offset": 9,
        "slot": "415",
        "type": "t_bool"
      },
      {
        "astId": 32149,
        "contract": "contracts/pools/Biochar.sol:Biochar",
        "label": "DEPRECATED_standardsIsAcceptedMapping",
        "offset": 10,
        "slot": "415",
        "type": "t_bool"
      },
      {
        "astId": 32151,
        "contract": "contracts/pools/Biochar.sol:Biochar",
        "label": "DEPRECATED_methodologiesIsAcceptedMapping",
        "offset": 11,
        "slot": "415",
        "type": "t_bool"
      },
      {
        "astId": 32157,
        "contract": "contracts/pools/Biochar.sol:Biochar",
        "label": "redeemFeeExemptedAddresses",
        "offset": 0,
        "slot": "416",
        "type": "t_mapping(t_address,t_bool)"
      },
      {
        "astId": 32163,
        "contract": "contracts/pools/Biochar.sol:Biochar",
        "label": "redeemFeeExemptedTCO2s",
        "offset": 0,
        "slot": "417",
        "type": "t_mapping(t_address,t_bool)"
      },
      {
        "astId": 32167,
        "contract": "contracts/pools/Biochar.sol:Biochar",
        "label": "router",
        "offset": 0,
        "slot": "418",
        "type": "t_address"
      },
      {
        "astId": 32171,
        "contract": "contracts/pools/Biochar.sol:Biochar",
        "label": "_feeRedeemRetirePercentageInBase",
        "offset": 0,
        "slot": "419",
        "type": "t_uint256"
      },
      {
        "astId": 32173,
        "contract": "contracts/pools/Biochar.sol:Biochar",
        "label": "filter",
        "offset": 0,
        "slot": "420",
        "type": "t_address"
      },
      {
        "astId": 32178,
        "contract": "contracts/pools/Biochar.sol:Biochar",
        "label": "feeCalculator",
        "offset": 0,
        "slot": "421",
        "type": "t_contract(IFeeCalculator)16372"
      },
      {
        "astId": 32181,
        "contract": "contracts/pools/Biochar.sol:Biochar",
        "label": "totalUnderlyingSupply",
        "offset": 0,
        "slot": "422",
        "type": "t_uint256"
      },
      {
        "astId": 32186,
        "contract": "contracts/pools/Biochar.sol:Biochar",
        "label": "totalProjectSupply",
        "offset": 0,
        "slot": "423",
        "type": "t_mapping(t_uint256,t_uint256)"
      },
      {
        "astId": 32194,
        "contract": "contracts/pools/Biochar.sol:Biochar",
        "label": "_scores",
        "offset": 0,
        "slot": "424",
        "type": "t_mapping(t_address,t_mapping(t_uint256,t_uint256))"
      },
      {
        "astId": 32200,
        "contract": "contracts/pools/Biochar.sol:Biochar",
        "label": "_vintageDeposited",
        "offset": 0,
        "slot": "425",
        "type": "t_mapping(t_address,t_mapping(t_uint256,t_bool))"
      },
      {
        "astId": 32203,
        "contract": "contracts/pools/Biochar.sol:Biochar",
        "label": "_underlyingDecimals",
        "offset": 0,
        "slot": "426",
        "type": "t_uint8"
      },
      {
        "astId": 32206,
        "contract": "contracts/pools/Biochar.sol:Biochar",
        "label": "minimumTCLSeedingThreshold",
        "offset": 0,
        "slot": "427",
        "type": "t_uint256"
      }
    ],
    "types": {
      "t_address": {
        "encoding": "inplace",
        "label": "address",
        "numberOfBytes": "20"
      },
      "t_array(t_address)dyn_storage": {
        "base": "t_address",
        "encoding": "dynamic_array",
        "label": "address[]",
        "numberOfBytes": "32"
      },
      "t_array(t_uint256)45_storage": {
        "base": "t_uint256",
        "encoding": "inplace",
        "label": "uint256[45]",
        "numberOfBytes": "1440"
      },
      "t_array(t_uint256)49_storage": {
        "base": "t_uint256",
        "encoding": "inplace",
        "label": "uint256[49]",
        "numberOfBytes": "1568"
      },
      "t_array(t_uint256)50_storage": {
        "base": "t_uint256",
        "encoding": "inplace",
        "label": "uint256[50]",
        "numberOfBytes": "1600"
      },
      "t_bool": {
        "encoding": "inplace",
        "label": "bool",
        "numberOfBytes": "1"
      },
      "t_bytes32": {
        "encoding": "inplace",
        "label": "bytes32",
        "numberOfBytes": "32"
      },
      "t_contract(IFeeCalculator)16372": {
        "encoding": "inplace",
        "label": "contract IFeeCalculator",
        "numberOfBytes": "20"
      },
      "t_mapping(t_address,t_bool)": {
        "encoding": "mapping",
        "key": "t_address",
        "label": "mapping(address => bool)",
        "numberOfBytes": "32",
        "value": "t_bool"
      },
      "t_mapping(t_address,t_mapping(t_address,t_uint256))": {
        "encoding": "mapping",
        "key": "t_address",
        "label": "mapping(address => mapping(address => uint256))",
        "numberOfBytes": "32",
        "value": "t_mapping(t_address,t_uint256)"
      },
      "t_mapping(t_address,t_mapping(t_uint256,t_bool))": {
        "encoding": "mapping",
        "key": "t_address",
        "label": "mapping(address => mapping(uint256 => bool))",
        "numberOfBytes": "32",
        "value": "t_mapping(t_uint256,t_bool)"
      },
      "t_mapping(t_address,t_mapping(t_uint256,t_uint256))": {
        "encoding": "mapping",
        "key": "t_address",
        "label": "mapping(address => mapping(uint256 => uint256))",
        "numberOfBytes": "32",
        "value": "t_mapping(t_uint256,t_uint256)"
      },
      "t_mapping(t_address,t_uint256)": {
        "encoding": "mapping",
        "key": "t_address",
        "label": "mapping(address => uint256)",
        "numberOfBytes": "32",
        "value": "t_uint256"
      },
      "t_mapping(t_bytes32,t_struct(RoleData)1481_storage)": {
        "encoding": "mapping",
        "key": "t_bytes32",
        "label": "mapping(bytes32 => struct AccessControlUpgradeable.RoleData)",
        "numberOfBytes": "32",
        "value": "t_struct(RoleData)1481_storage"
      },
      "t_mapping(t_string_memory_ptr,t_bool)": {
        "encoding": "mapping",
        "key": "t_string_memory_ptr",
        "label": "mapping(string => bool)",
        "numberOfBytes": "32",
        "value": "t_bool"
      },
      "t_mapping(t_uint256,t_bool)": {
        "encoding": "mapping",
        "key": "t_uint256",
        "label": "mapping(uint256 => bool)",
        "numberOfBytes": "32",
        "value": "t_bool"
      },
      "t_mapping(t_uint256,t_uint256)": {
        "encoding": "mapping",
        "key": "t_uint256",
        "label": "mapping(uint256 => uint256)",
        "numberOfBytes": "32",
        "value": "t_uint256"
      },
      "t_string_memory_ptr": {
        "encoding": "bytes",
        "label": "string",
        "numberOfBytes": "32"
      },
      "t_string_storage": {
        "encoding": "bytes",
        "label": "string",
        "numberOfBytes": "32"
      },
      "t_struct(RoleData)1481_storage": {
        "encoding": "inplace",
        "label": "struct AccessControlUpgradeable.RoleData",
        "members": [
          {
            "astId": 1478,
            "contract": "contracts/pools/Biochar.sol:Biochar",
            "label": "members",
            "offset": 0,
            "slot": "0",
            "type": "t_mapping(t_address,t_bool)"
          },
          {
            "astId": 1480,
            "contract": "contracts/pools/Biochar.sol:Biochar",
            "label": "adminRole",
            "offset": 0,
            "slot": "1",
            "type": "t_bytes32"
          }
        ],
        "numberOfBytes": "64"
      },
      "t_uint256": {
        "encoding": "inplace",
        "label": "uint256",
        "numberOfBytes": "32"
      },
      "t_uint64": {
        "encoding": "inplace",
        "label": "uint64",
        "numberOfBytes": "8"
      },
      "t_uint8": {
        "encoding": "inplace",
        "label": "uint8",
        "numberOfBytes": "1"
      }
    }
  }
}