{
  "address": "0x9D6B1fE5C4953710852993D31327356B914CAB70",
  "abi": [
    {
      "inputs": [
        {
          "internalType": "address",
          "name": "pool_",
          "type": "address"
        }
      ],
      "stateMutability": "nonpayable",
      "type": "constructor"
    },
    {
      "anonymous": false,
      "inputs": [
        {
          "indexed": false,
          "internalType": "address",
          "name": "previousAdmin",
          "type": "address"
        },
        {
          "indexed": false,
          "internalType": "address",
          "name": "newAdmin",
          "type": "address"
        }
      ],
      "name": "AdminChanged",
      "type": "event"
    },
    {
      "anonymous": false,
      "inputs": [
        {
          "indexed": false,
          "internalType": "uint256",
          "name": "allocation",
          "type": "uint256"
        }
      ],
      "name": "BasePoolTokenAllocationPerNFTSet",
      "type": "event"
    },
    {
      "anonymous": false,
      "inputs": [
        {
          "indexed": true,
          "internalType": "address",
          "name": "beacon",
          "type": "address"
        }
      ],
      "name": "BeaconUpgraded",
      "type": "event"
    },
    {
      "anonymous": false,
      "inputs": [
        {
          "indexed": false,
          "internalType": "address",
          "name": "erc721",
          "type": "address"
        }
      ],
      "name": "ERC721Set",
      "type": "event"
    },
    {
      "anonymous": false,
      "inputs": [
        {
          "indexed": false,
          "internalType": "uint8",
          "name": "version",
          "type": "uint8"
        }
      ],
      "name": "Initialized",
      "type": "event"
    },
    {
      "anonymous": false,
      "inputs": [
        {
          "indexed": false,
          "internalType": "address",
          "name": "account",
          "type": "address"
        }
      ],
      "name": "Paused",
      "type": "event"
    },
    {
      "anonymous": false,
      "inputs": [
        {
          "indexed": false,
          "internalType": "uint256",
          "name": "amount",
          "type": "uint256"
        }
      ],
      "name": "PoolTokenAllocated",
      "type": "event"
    },
    {
      "anonymous": false,
      "inputs": [
        {
          "indexed": false,
          "internalType": "uint256",
          "name": "amount",
          "type": "uint256"
        }
      ],
      "name": "PoolTokenWithdrawn",
      "type": "event"
    },
    {
      "anonymous": false,
      "inputs": [
        {
          "indexed": true,
          "internalType": "bytes32",
          "name": "role",
          "type": "bytes32"
        },
        {
          "indexed": true,
          "internalType": "bytes32",
          "name": "previousAdminRole",
          "type": "bytes32"
        },
        {
          "indexed": true,
          "internalType": "bytes32",
          "name": "newAdminRole",
          "type": "bytes32"
        }
      ],
      "name": "RoleAdminChanged",
      "type": "event"
    },
    {
      "anonymous": false,
      "inputs": [
        {
          "indexed": true,
          "internalType": "bytes32",
          "name": "role",
          "type": "bytes32"
        },
        {
          "indexed": true,
          "internalType": "address",
          "name": "account",
          "type": "address"
        },
        {
          "indexed": true,
          "internalType": "address",
          "name": "sender",
          "type": "address"
        }
      ],
      "name": "RoleGranted",
      "type": "event"
    },
    {
      "anonymous": false,
      "inputs": [
        {
          "indexed": true,
          "internalType": "bytes32",
          "name": "role",
          "type": "bytes32"
        },
        {
          "indexed": true,
          "internalType": "address",
          "name": "account",
          "type": "address"
        },
        {
          "indexed": true,
          "internalType": "address",
          "name": "sender",
          "type": "address"
        }
      ],
      "name": "RoleRevoked",
      "type": "event"
    },
    {
      "anonymous": false,
      "inputs": [
        {
          "indexed": false,
          "internalType": "address",
          "name": "account",
          "type": "address"
        }
      ],
      "name": "Unpaused",
      "type": "event"
    },
    {
      "anonymous": false,
      "inputs": [
        {
          "indexed": true,
          "internalType": "address",
          "name": "implementation",
          "type": "address"
        }
      ],
      "name": "Upgraded",
      "type": "event"
    },
    {
      "inputs": [],
      "name": "DEFAULT_ADMIN_ROLE",
      "outputs": [
        {
          "internalType": "bytes32",
          "name": "",
          "type": "bytes32"
        }
      ],
      "stateMutability": "view",
      "type": "function"
    },
    {
      "inputs": [],
      "name": "MANAGER_ROLE",
      "outputs": [
        {
          "internalType": "bytes32",
          "name": "",
          "type": "bytes32"
        }
      ],
      "stateMutability": "view",
      "type": "function"
    },
    {
      "inputs": [],
      "name": "PAUSER_ROLE",
      "outputs": [
        {
          "internalType": "bytes32",
          "name": "",
          "type": "bytes32"
        }
      ],
      "stateMutability": "view",
      "type": "function"
    },
    {
      "inputs": [],
      "name": "VERSION",
      "outputs": [
        {
          "internalType": "string",
          "name": "",
          "type": "string"
        }
      ],
      "stateMutability": "view",
      "type": "function"
    },
    {
      "inputs": [],
      "name": "VERSION_RELEASE_CANDIDATE",
      "outputs": [
        {
          "internalType": "uint256",
          "name": "",
          "type": "uint256"
        }
      ],
      "stateMutability": "view",
      "type": "function"
    },
    {
      "inputs": [
        {
          "internalType": "uint256",
          "name": "estimatedSupply",
          "type": "uint256"
        }
      ],
      "name": "allocatePoolToken",
      "outputs": [],
      "stateMutability": "nonpayable",
      "type": "function"
    },
    {
      "inputs": [],
      "name": "allocatedSupply",
      "outputs": [
        {
          "internalType": "uint256",
          "name": "",
          "type": "uint256"
        }
      ],
      "stateMutability": "view",
      "type": "function"
    },
    {
      "inputs": [],
      "name": "basePoolTokenAllocationPerNFT",
      "outputs": [
        {
          "internalType": "uint256",
          "name": "",
          "type": "uint256"
        }
      ],
      "stateMutability": "view",
      "type": "function"
    },
    {
      "inputs": [
        {
          "internalType": "uint256",
          "name": "tokenId",
          "type": "uint256"
        },
        {
          "internalType": "uint256",
          "name": "amount",
          "type": "uint256"
        }
      ],
      "name": "embed",
      "outputs": [],
      "stateMutability": "nonpayable",
      "type": "function"
    },
    {
      "inputs": [],
      "name": "erc721",
      "outputs": [
        {
          "internalType": "contract IERC721",
          "name": "",
          "type": "address"
        }
      ],
      "stateMutability": "view",
      "type": "function"
    },
    {
      "inputs": [
        {
          "internalType": "bytes32",
          "name": "role",
          "type": "bytes32"
        }
      ],
      "name": "getRoleAdmin",
      "outputs": [
        {
          "internalType": "bytes32",
          "name": "",
          "type": "bytes32"
        }
      ],
      "stateMutability": "view",
      "type": "function"
    },
    {
      "inputs": [
        {
          "internalType": "bytes32",
          "name": "role",
          "type": "bytes32"
        },
        {
          "internalType": "address",
          "name": "account",
          "type": "address"
        }
      ],
      "name": "grantRole",
      "outputs": [],
      "stateMutability": "nonpayable",
      "type": "function"
    },
    {
      "inputs": [
        {
          "internalType": "bytes32",
          "name": "role",
          "type": "bytes32"
        },
        {
          "internalType": "address",
          "name": "account",
          "type": "address"
        }
      ],
      "name": "hasRole",
      "outputs": [
        {
          "internalType": "bool",
          "name": "",
          "type": "bool"
        }
      ],
      "stateMutability": "view",
      "type": "function"
    },
    {
      "inputs": [
        {
          "internalType": "uint256",
          "name": "initialPoolTokenAllocation_",
          "type": "uint256"
        },
        {
          "internalType": "address",
          "name": "erc721_",
          "type": "address"
        },
        {
          "internalType": "address[]",
          "name": "accounts",
          "type": "address[]"
        },
        {
          "internalType": "bytes32[]",
          "name": "roles",
          "type": "bytes32[]"
        }
      ],
      "name": "initialize",
      "outputs": [],
      "stateMutability": "nonpayable",
      "type": "function"
    },
    {
      "inputs": [],
      "name": "pause",
      "outputs": [],
      "stateMutability": "nonpayable",
      "type": "function"
    },
    {
      "inputs": [],
      "name": "paused",
      "outputs": [
        {
          "internalType": "bool",
          "name": "",
          "type": "bool"
        }
      ],
      "stateMutability": "view",
      "type": "function"
    },
    {
      "inputs": [],
      "name": "pool",
      "outputs": [
        {
          "internalType": "contract IERC20",
          "name": "",
          "type": "address"
        }
      ],
      "stateMutability": "view",
      "type": "function"
    },
    {
      "inputs": [],
      "name": "proxiableUUID",
      "outputs": [
        {
          "internalType": "bytes32",
          "name": "",
          "type": "bytes32"
        }
      ],
      "stateMutability": "view",
      "type": "function"
    },
    {
      "inputs": [
        {
          "internalType": "uint256",
          "name": "estimatedSupply",
          "type": "uint256"
        }
      ],
      "name": "quoteAllocatePoolTokenAmount",
      "outputs": [
        {
          "internalType": "uint256",
          "name": "poolTokenAmount",
          "type": "uint256"
        },
        {
          "internalType": "bool",
          "name": "isSufficientBalance",
          "type": "bool"
        }
      ],
      "stateMutability": "view",
      "type": "function"
    },
    {
      "inputs": [
        {
          "internalType": "bytes32",
          "name": "role",
          "type": "bytes32"
        },
        {
          "internalType": "address",
          "name": "account",
          "type": "address"
        }
      ],
      "name": "renounceRole",
      "outputs": [],
      "stateMutability": "nonpayable",
      "type": "function"
    },
    {
      "inputs": [
        {
          "internalType": "bytes32",
          "name": "role",
          "type": "bytes32"
        },
        {
          "internalType": "address",
          "name": "account",
          "type": "address"
        }
      ],
      "name": "revokeRole",
      "outputs": [],
      "stateMutability": "nonpayable",
      "type": "function"
    },
    {
      "inputs": [
        {
          "internalType": "uint256",
          "name": "allocation_",
          "type": "uint256"
        }
      ],
      "name": "setBasePoolTokenAllocationPerNFT",
      "outputs": [],
      "stateMutability": "nonpayable",
      "type": "function"
    },
    {
      "inputs": [
        {
          "internalType": "address",
          "name": "erc721_",
          "type": "address"
        }
      ],
      "name": "setErc721",
      "outputs": [],
      "stateMutability": "nonpayable",
      "type": "function"
    },
    {
      "inputs": [
        {
          "internalType": "bytes4",
          "name": "interfaceId",
          "type": "bytes4"
        }
      ],
      "name": "supportsInterface",
      "outputs": [
        {
          "internalType": "bool",
          "name": "",
          "type": "bool"
        }
      ],
      "stateMutability": "view",
      "type": "function"
    },
    {
      "inputs": [
        {
          "internalType": "uint256",
          "name": "tokenId",
          "type": "uint256"
        }
      ],
      "name": "tokenIdBalance",
      "outputs": [
        {
          "internalType": "uint256",
          "name": "balance",
          "type": "uint256"
        }
      ],
      "stateMutability": "view",
      "type": "function"
    },
    {
      "inputs": [],
      "name": "unpause",
      "outputs": [],
      "stateMutability": "nonpayable",
      "type": "function"
    },
    {
      "inputs": [
        {
          "internalType": "address",
          "name": "newImplementation",
          "type": "address"
        }
      ],
      "name": "upgradeTo",
      "outputs": [],
      "stateMutability": "nonpayable",
      "type": "function"
    },
    {
      "inputs": [
        {
          "internalType": "address",
          "name": "newImplementation",
          "type": "address"
        },
        {
          "internalType": "bytes",
          "name": "data",
          "type": "bytes"
        }
      ],
      "name": "upgradeToAndCall",
      "outputs": [],
      "stateMutability": "payable",
      "type": "function"
    },
    {
      "inputs": [
        {
          "internalType": "uint256",
          "name": "supplyToWithdraw",
          "type": "uint256"
        }
      ],
      "name": "withdrawPoolToken",
      "outputs": [],
      "stateMutability": "nonpayable",
      "type": "function"
    }
  ],
  "numDeployments": 1,
  "solcInputHash": "76a0f0f21e0fd92d23fb1f6e8f274ecc",
  "bytecode": "0x60c0604052306080523480156200001557600080fd5b5060405162002547380380620025478339810160408190526200003891620001d5565b806001600160a01b0381166200008a5760405162461bcd60e51b8152602060048201526012602482015271456d70747920706f6f6c206164647265737360701b60448201526064015b60405180910390fd5b6001600160a01b03811660a052620000a1620000a9565b505062000207565b620000b560ff620000b8565b50565b60008054610100900460ff16156200014d578160ff166001148015620000f15750620000ef30620001c660201b620011bb1760201c565b155b620001455760405162461bcd60e51b815260206004820152602e60248201526000805160206200252783398151915260448201526d191e481a5b9a5d1a585b1a5e995960921b606482015260840162000081565b506000919050565b60005460ff808416911610620001ac5760405162461bcd60e51b815260206004820152602e60248201526000805160206200252783398151915260448201526d191e481a5b9a5d1a585b1a5e995960921b606482015260840162000081565b506000805460ff191660ff92909216919091179055600190565b6001600160a01b03163b151590565b600060208284031215620001e857600080fd5b81516001600160a01b03811681146200020057600080fd5b9392505050565b60805160a0516122c2620002656000396000818161020e01528181610b3f01528181610c3901528181610e4b01526110f40152600081816106b4015281816106f4015281816107c501528181610805015261089401526122c26000f3fe6080604052600436106101c25760003560e01c80638456cb59116100f7578063d547741f11610095578063f09de9c311610064578063f09de9c314610528578063f899ccd614610548578063fedca6f214610568578063ffa1ad741461058857600080fd5b8063d547741f14610489578063e63ab1e9146104a9578063ec87621c146104dd578063ef34f6331461051157600080fd5b80639c6e3a17116100d15780639c6e3a1714610413578063a217fddf14610433578063aebeeb3d14610448578063bca6ce641461046857600080fd5b80638456cb59146103a95780638d40a348146103be57806391d14854146103f357600080fd5b80633f4ba83a116101645780635797e9091161013e5780635797e9091461033c5780635c975abb1461035c5780636ca0b0d7146103745780638137005b1461038957600080fd5b80633f4ba83a146102ff5780634f1ef2861461031457806352d1902d1461032757600080fd5b80632f2ff15d116101a05780632f2ff15d1461028657806336568abe146102a85780633659cfe6146102c85780633a70a5ca146102e857600080fd5b806301ffc9a7146101c757806316f0115b146101fc578063248a9ca314610248575b600080fd5b3480156101d357600080fd5b506101e76101e2366004611c52565b6105c6565b60405190151581526020015b60405180910390f35b34801561020857600080fd5b506102307f000000000000000000000000000000000000000000000000000000000000000081565b6040516001600160a01b0390911681526020016101f3565b34801561025457600080fd5b50610278610263366004611c7c565b60009081526065602052604090206001015490565b6040519081526020016101f3565b34801561029257600080fd5b506102a66102a1366004611caa565b6105fd565b005b3480156102b457600080fd5b506102a66102c3366004611caa565b610627565b3480156102d457600080fd5b506102a66102e3366004611cda565b6106aa565b3480156102f457600080fd5b5061027861012f5481565b34801561030b57600080fd5b506102a6610789565b6102a6610322366004611d0d565b6107bb565b34801561033357600080fd5b50610278610887565b34801561034857600080fd5b506102a6610357366004611e1d565b61093a565b34801561036857600080fd5b5060975460ff166101e7565b34801561038057600080fd5b50610278600281565b34801561039557600080fd5b506102a66103a4366004611ea9565b6109bb565b3480156103b557600080fd5b506102a6610bd3565b3480156103ca57600080fd5b506103de6103d9366004611c7c565b610c05565b604080519283529015156020830152016101f3565b3480156103ff57600080fd5b506101e761040e366004611caa565b610cad565b34801561041f57600080fd5b5061027861042e366004611c7c565b610cd8565b34801561043f57600080fd5b50610278600081565b34801561045457600080fd5b506102a6610463366004611c7c565b610db7565b34801561047457600080fd5b5061012d54610230906001600160a01b031681565b34801561049557600080fd5b506102a66104a4366004611caa565b610f10565b3480156104b557600080fd5b506102787f65d7a28e3265b37a6474929f336521b332c1681b933f6cb9f3376673440d862a81565b3480156104e957600080fd5b506102787f241ecf16d79d0f8dbfb92cbc07fe17840425976cf0667f022fe9877caa831b0881565b34801561051d57600080fd5b5061027861012e5481565b34801561053457600080fd5b506102a6610543366004611c7c565b610f35565b34801561055457600080fd5b506102a6610563366004611cda565b610fc7565b34801561057457600080fd5b506102a6610583366004611c7c565b611021565b34801561059457600080fd5b506105b9604051806040016040528060058152602001640312e302e360dc1b81525081565b6040516101f39190611ef7565b60006001600160e01b03198216637965db0b60e01b14806105f757506301ffc9a760e01b6001600160e01b03198316145b92915050565b600082815260656020526040902060010154610618816111ca565b61062283836111d4565b505050565b6001600160a01b038116331461069c5760405162461bcd60e51b815260206004820152602f60248201527f416363657373436f6e74726f6c3a2063616e206f6e6c792072656e6f756e636560448201526e103937b632b9903337b91039b2b63360891b60648201526084015b60405180910390fd5b6106a6828261125a565b5050565b6001600160a01b037f00000000000000000000000000000000000000000000000000000000000000001630036106f25760405162461bcd60e51b815260040161069390611f2a565b7f00000000000000000000000000000000000000000000000000000000000000006001600160a01b031661073b600080516020612246833981519152546001600160a01b031690565b6001600160a01b0316146107615760405162461bcd60e51b815260040161069390611f76565b61076a816112c1565b60408051600080825260208201909252610786918391906112cc565b50565b7f65d7a28e3265b37a6474929f336521b332c1681b933f6cb9f3376673440d862a6107b3816111ca565b610786611437565b6001600160a01b037f00000000000000000000000000000000000000000000000000000000000000001630036108035760405162461bcd60e51b815260040161069390611f2a565b7f00000000000000000000000000000000000000000000000000000000000000006001600160a01b031661084c600080516020612246833981519152546001600160a01b031690565b6001600160a01b0316146108725760405162461bcd60e51b815260040161069390611f76565b61087b826112c1565b6106a6828260016112cc565b6000306001600160a01b037f000000000000000000000000000000000000000000000000000000000000000016146109275760405162461bcd60e51b815260206004820152603860248201527f555550535570677261646561626c653a206d757374206e6f742062652063616c60448201527f6c6564207468726f7567682064656c656761746563616c6c00000000000000006064820152608401610693565b5060008051602061224683398151915290565b600061094660016114ca565b9050801561095e576000805461ff0019166101001790555b61096c878787878787611552565b80156109b2576000805461ff0019169055604051600181527f7f26b83ff96e1f2b6a682f133852f6798a09c465da95921460cefb38474024989060200160405180910390a15b50505050505050565b60975460ff1615610a015760405162461bcd60e51b815260206004820152601060248201526f14185d5cd8589b194e881c185d5cd95960821b6044820152606401610693565b60008111610a425760405162461bcd60e51b815260206004820152600e60248201526d1a5b9d985b1a5908185b5bdd5b9d60921b6044820152606401610693565b61012d546040516331a9108f60e11b81526004810184905233916001600160a01b031690636352211e90602401602060405180830381865afa158015610a8c573d6000803e3d6000fd5b505050506040513d601f19601f82011682018060405250810190610ab09190611fc2565b6001600160a01b031614610af65760405162461bcd60e51b815260206004820152600d60248201526c3737ba103a34329037bbb732b960991b6044820152606401610693565b6000828152610130602052604081208054839290610b15908490611ff5565b90915550506040516323b872dd60e01b8152336004820152306024820152604481018290526000907f00000000000000000000000000000000000000000000000000000000000000006001600160a01b0316906323b872dd906064016020604051808303816000875af1158015610b90573d6000803e3d6000fd5b505050506040513d601f19601f82011682018060405250810190610bb4919061200d565b9050806106225760405162461bcd60e51b81526004016106939061202f565b7f65d7a28e3265b37a6474929f336521b332c1681b933f6cb9f3376673440d862a610bfd816111ca565b61078661159c565b60008061012e5483610c179190612058565b6040516370a0823160e01b815233600482015290925082906001600160a01b037f000000000000000000000000000000000000000000000000000000000000000016906370a0823190602401602060405180830381865afa158015610c80573d6000803e3d6000fd5b505050506040513d601f19601f82011682018060405250810190610ca49190612077565b10159050915091565b60009182526065602090815260408084206001600160a01b0393909316845291905290205460ff1690565b61012d546040516331a9108f60e11b81526004810183905260009182916001600160a01b0390911690636352211e90602401602060405180830381865afa158015610d27573d6000803e3d6000fd5b505050506040513d601f19601f82011682018060405250810190610d4b9190611fc2565b6001600160a01b031603610d995760405162461bcd60e51b81526020600482015260156024820152741b9bdb88195e1a5cdd1a5b99c81d1bdad95b881a59605a1b6044820152606401610693565b61012e54600083815261013060205260409020546105f79190611ff5565b7f241ecf16d79d0f8dbfb92cbc07fe17840425976cf0667f022fe9877caa831b08610de1816111ca565b610131805460ff1916600117905561012f8054839190600090610e05908490611ff5565b909155505061012e54600090610e1b9084612058565b6040516323b872dd60e01b8152336004820152306024820152604481018290529091506000906001600160a01b037f000000000000000000000000000000000000000000000000000000000000000016906323b872dd906064016020604051808303816000875af1158015610e94573d6000803e3d6000fd5b505050506040513d601f19601f82011682018060405250810190610eb8919061200d565b905080610ed75760405162461bcd60e51b81526004016106939061202f565b6040518281527faefc6f33d3e65c9323b3fa03681fc75ca650b928c91c83e44d34dfb0c38265829060200160405180910390a150505050565b600082815260656020526040902060010154610f2b816111ca565b610622838361125a565b6000610f40816111ca565b6101315460ff1615610f895760405162461bcd60e51b8152602060048201526012602482015271185b1b1bd8d85d1a5bdb881cdd185c9d195960721b6044820152606401610693565b61012e8290556040518281527f5a6484070f59cc639c971432c573d4684edbd8263464c80739bb9196ba0c8402906020015b60405180910390a15050565b6000610fd2816111ca565b61012d80546001600160a01b0319166001600160a01b0384169081179091556040519081527f1393e877c1bd78bd75066e9f797a5f17f7df35cda40b653328eb472b8ac03a2390602001610fbb565b7f241ecf16d79d0f8dbfb92cbc07fe17840425976cf0667f022fe9877caa831b0861104b816111ca565b60008261012f5461105c9190612090565b90506000611068611617565b9050808210156110b35760405162461bcd60e51b815260206004820152601660248201527563616e6e6f742076696f6c617465206261636b696e6760501b6044820152606401610693565b61012f82905561012e546000906110ca9086612058565b60405163a9059cbb60e01b8152336004820152602481018290529091506000906001600160a01b037f0000000000000000000000000000000000000000000000000000000000000000169063a9059cbb906044016020604051808303816000875af115801561113d573d6000803e3d6000fd5b505050506040513d601f19601f82011682018060405250810190611161919061200d565b9050806111805760405162461bcd60e51b81526004016106939061202f565b6040518281527f7525f48a5b3b4c0e5588c1e60d7ab71d61a6447d94d0c63c736c272b622dd0539060200160405180910390a1505050505050565b6001600160a01b03163b151590565b6107868133611699565b6111de8282610cad565b6106a65760008281526065602090815260408083206001600160a01b03851684529091529020805460ff191660011790556112163390565b6001600160a01b0316816001600160a01b0316837f2f8788117e7eff1d82e926ec794901d17c78024a50270940304540a733656f0d60405160405180910390a45050565b6112648282610cad565b156106a65760008281526065602090815260408083206001600160a01b0385168085529252808320805460ff1916905551339285917ff6391f5c32d9c69d2a47ea670b442974b53935d1edc7fd64eb21e047a839171b9190a45050565b60006106a6816111ca565b7f4910fdfa16fed3260ed0e7147f7cc6da11a60208b5b9406d12a635614ffd91435460ff16156112ff57610622836116fd565b826001600160a01b03166352d1902d6040518163ffffffff1660e01b8152600401602060405180830381865afa925050508015611359575060408051601f3d908101601f1916820190925261135691810190612077565b60015b6113bc5760405162461bcd60e51b815260206004820152602e60248201527f45524331393637557067726164653a206e657720696d706c656d656e7461746960448201526d6f6e206973206e6f74205555505360901b6064820152608401610693565b600080516020612246833981519152811461142b5760405162461bcd60e51b815260206004820152602960248201527f45524331393637557067726164653a20756e737570706f727465642070726f786044820152681a58589b195555525160ba1b6064820152608401610693565b50610622838383611799565b60975460ff166114805760405162461bcd60e51b815260206004820152601460248201527314185d5cd8589b194e881b9bdd081c185d5cd95960621b6044820152606401610693565b6097805460ff191690557f5db9ee0a495bf2e6ff9c91a7834c1ba4fdd244a5e8aa4e537bd38aeae4b073aa335b6040516001600160a01b03909116815260200160405180910390a1565b60008054610100900460ff1615611511578160ff1660011480156114ed5750303b155b6115095760405162461bcd60e51b8152600401610693906120a7565b506000919050565b60005460ff8084169116106115385760405162461bcd60e51b8152600401610693906120a7565b506000805460ff191660ff92909216919091179055600190565b61155e848484846117c4565b6115666118e6565b61156e611919565b50505061012e9290925561012d80546001600160a01b0319166001600160a01b039290921691909117905550565b60975460ff16156115e25760405162461bcd60e51b815260206004820152601060248201526f14185d5cd8589b194e881c185d5cd95960821b6044820152606401610693565b6097805460ff191660011790557f62e78cea01bee320cd4e420270b5ea74000d11b0c9f74754ebdbfc544b05a2586114ad3390565b61012d54604080516318160ddd60e01b815290516000926001600160a01b0316916318160ddd9160048083019260209291908290030181865afa158015611662573d6000803e3d6000fd5b505050506040513d601f19601f8201168201806040525081019061168691906120f5565b6bffffffffffffffffffffffff16905090565b6116a38282610cad565b6106a6576116bb816001600160a01b03166014611942565b6116c6836020611942565b6040516020016116d7929190612123565b60408051601f198184030181529082905262461bcd60e51b825261069391600401611ef7565b6001600160a01b0381163b61176a5760405162461bcd60e51b815260206004820152602d60248201527f455243313936373a206e657720696d706c656d656e746174696f6e206973206e60448201526c1bdd08184818dbdb9d1c9858dd609a1b6064820152608401610693565b60008051602061224683398151915280546001600160a01b0319166001600160a01b0392909216919091179055565b6117a283611ae5565b6000825111806117af5750805b15610622576117be8383611b25565b50505050565b82811461180b5760405162461bcd60e51b8152602060048201526015602482015274082e4e4c2f240d8cadccee8d040dad2e6dac2e8c6d605b1b6044820152606401610693565b611813611919565b6000805b8481101561189c5761186784848381811061183457611834612198565b9050602002013587878481811061184d5761184d612198565b90506020020160208101906118629190611cda565b6111d4565b600084848381811061187b5761187b612198565b905060200201350361188c57600191505b611895816121ae565b9050611817565b50806118df5760405162461bcd60e51b8152602060048201526012602482015271139bc818591b5a5b881cdc1958da599a595960721b6044820152606401610693565b5050505050565b600054610100900460ff1661190d5760405162461bcd60e51b8152600401610693906121c7565b6097805460ff19169055565b600054610100900460ff166119405760405162461bcd60e51b8152600401610693906121c7565b565b60606000611951836002612058565b61195c906002611ff5565b67ffffffffffffffff81111561197457611974611cf7565b6040519080825280601f01601f19166020018201604052801561199e576020820181803683370190505b509050600360fc1b816000815181106119b9576119b9612198565b60200101906001600160f81b031916908160001a905350600f60fb1b816001815181106119e8576119e8612198565b60200101906001600160f81b031916908160001a9053506000611a0c846002612058565b611a17906001611ff5565b90505b6001811115611a8f576f181899199a1a9b1b9c1cb0b131b232b360811b85600f1660108110611a4b57611a4b612198565b1a60f81b828281518110611a6157611a61612198565b60200101906001600160f81b031916908160001a90535060049490941c93611a8881612212565b9050611a1a565b508315611ade5760405162461bcd60e51b815260206004820181905260248201527f537472696e67733a20686578206c656e67746820696e73756666696369656e746044820152606401610693565b9392505050565b611aee816116fd565b6040516001600160a01b038216907fbc7cd75a20ee27fd9adebab32041f755214dbc6bffa90cc0225b39da2e5c2d3b90600090a250565b60606001600160a01b0383163b611b8d5760405162461bcd60e51b815260206004820152602660248201527f416464726573733a2064656c65676174652063616c6c20746f206e6f6e2d636f6044820152651b9d1c9858dd60d21b6064820152608401610693565b600080846001600160a01b031684604051611ba89190612229565b600060405180830381855af49150503d8060008114611be3576040519150601f19603f3d011682016040523d82523d6000602084013e611be8565b606091505b5091509150611c10828260405180606001604052806027815260200161226660279139611c19565b95945050505050565b60608315611c28575081611ade565b825115611c385782518084602001fd5b8160405162461bcd60e51b81526004016106939190611ef7565b600060208284031215611c6457600080fd5b81356001600160e01b031981168114611ade57600080fd5b600060208284031215611c8e57600080fd5b5035919050565b6001600160a01b038116811461078657600080fd5b60008060408385031215611cbd57600080fd5b823591506020830135611ccf81611c95565b809150509250929050565b600060208284031215611cec57600080fd5b8135611ade81611c95565b634e487b7160e01b600052604160045260246000fd5b60008060408385031215611d2057600080fd5b8235611d2b81611c95565b9150602083013567ffffffffffffffff80821115611d4857600080fd5b818501915085601f830112611d5c57600080fd5b813581811115611d6e57611d6e611cf7565b604051601f8201601f19908116603f01168101908382118183101715611d9657611d96611cf7565b81604052828152886020848701011115611daf57600080fd5b8260208601602083013760006020848301015280955050505050509250929050565b60008083601f840112611de357600080fd5b50813567ffffffffffffffff811115611dfb57600080fd5b6020830191508360208260051b8501011115611e1657600080fd5b9250929050565b60008060008060008060808789031215611e3657600080fd5b863595506020870135611e4881611c95565b9450604087013567ffffffffffffffff80821115611e6557600080fd5b611e718a838b01611dd1565b90965094506060890135915080821115611e8a57600080fd5b50611e9789828a01611dd1565b979a9699509497509295939492505050565b60008060408385031215611ebc57600080fd5b50508035926020909101359150565b60005b83811015611ee6578181015183820152602001611ece565b838111156117be5750506000910152565b6020815260008251806020840152611f16816040850160208701611ecb565b601f01601f19169190910160400192915050565b6020808252602c908201527f46756e6374696f6e206d7573742062652063616c6c6564207468726f7567682060408201526b19195b1959d85d1958d85b1b60a21b606082015260800190565b6020808252602c908201527f46756e6374696f6e206d7573742062652063616c6c6564207468726f7567682060408201526b6163746976652070726f787960a01b606082015260800190565b600060208284031215611fd457600080fd5b8151611ade81611c95565b634e487b7160e01b600052601160045260246000fd5b6000821982111561200857612008611fdf565b500190565b60006020828403121561201f57600080fd5b81518015158114611ade57600080fd5b6020808252600f908201526e1d1c985b9cd9995c8819985a5b1959608a1b604082015260600190565b600081600019048311821515161561207257612072611fdf565b500290565b60006020828403121561208957600080fd5b5051919050565b6000828210156120a2576120a2611fdf565b500390565b6020808252602e908201527f496e697469616c697a61626c653a20636f6e747261637420697320616c72656160408201526d191e481a5b9a5d1a585b1a5e995960921b606082015260800190565b60006020828403121561210757600080fd5b81516bffffffffffffffffffffffff81168114611ade57600080fd5b7f416363657373436f6e74726f6c3a206163636f756e742000000000000000000081526000835161215b816017850160208801611ecb565b7001034b99036b4b9b9b4b733903937b6329607d1b601791840191820152835161218c816028840160208801611ecb565b01602801949350505050565b634e487b7160e01b600052603260045260246000fd5b6000600182016121c0576121c0611fdf565b5060010190565b6020808252602b908201527f496e697469616c697a61626c653a20636f6e7472616374206973206e6f74206960408201526a6e697469616c697a696e6760a81b606082015260800190565b60008161222157612221611fdf565b506000190190565b6000825161223b818460208701611ecb565b919091019291505056fe360894a13ba1a3210667c828492db98dca3e2076cc3735a920a3ca505d382bbc416464726573733a206c6f772d6c6576656c2064656c65676174652063616c6c206661696c6564a26469706673582212209b6a7ae7885e82b11b1fc216f0e60b6b97aef52ad08f8fdd8798513a382ff60164736f6c634300080e0033496e697469616c697a61626c653a20636f6e747261637420697320616c726561",
  "devdoc": {
    "kind": "dev",
    "methods": {
      "allocatePoolToken(uint256)": {
        "params": {
          "estimatedSupply": "Indicates the amount of NFT tokens for which to allocate pool tokens"
        }
      },
      "constructor": {
        "custom:oz-upgrades-unsafe-allow": "constructor"
      },
      "embed(uint256,uint256)": {
        "params": {
          "amount": "amount of pool tokens to associate to the NFT token",
          "tokenId": "the token id where to allocate the pool tokens"
        }
      },
      "getRoleAdmin(bytes32)": {
        "details": "Returns the admin role that controls `role`. See {grantRole} and {revokeRole}. To change a role's admin, use {_setRoleAdmin}."
      },
      "grantRole(bytes32,address)": {
        "details": "Grants `role` to `account`. If `account` had not been already granted `role`, emits a {RoleGranted} event. Requirements: - the caller must have ``role``'s admin role."
      },
      "hasRole(bytes32,address)": {
        "details": "Returns `true` if `account` has been granted `role`."
      },
      "paused()": {
        "details": "Returns true if the contract is paused, and false otherwise."
      },
      "proxiableUUID()": {
        "details": "Implementation of the ERC1822 {proxiableUUID} function. This returns the storage slot used by the implementation. It is used to validate that the this implementation remains valid after an upgrade. IMPORTANT: A proxy pointing at a proxiable contract should not be considered proxiable itself, because this risks bricking a proxy that upgrades to it, by delegating to itself until out of gas. Thus it is critical that this function revert if invoked through a proxy. This is guaranteed by the `notDelegated` modifier."
      },
      "quoteAllocatePoolTokenAmount(uint256)": {
        "params": {
          "estimatedSupply": "estimated supply for which to allocate tokens"
        },
        "returns": {
          "poolTokenAmount": "required pool token balance"
        }
      },
      "renounceRole(bytes32,address)": {
        "details": "Revokes `role` from the calling account. Roles are often managed via {grantRole} and {revokeRole}: this function's purpose is to provide a mechanism for accounts to lose their privileges if they are compromised (such as when a trusted device is misplaced). If the calling account had been revoked `role`, emits a {RoleRevoked} event. Requirements: - the caller must be `account`."
      },
      "revokeRole(bytes32,address)": {
        "details": "Revokes `role` from `account`. If `account` had been granted `role`, emits a {RoleRevoked} event. Requirements: - the caller must have ``role``'s admin role."
      },
      "supportsInterface(bytes4)": {
        "details": "See {IERC165-supportsInterface}."
      },
      "tokenIdBalance(uint256)": {
        "params": {
          "tokenId": "the token id"
        },
        "returns": {
          "balance": "pool token balance"
        }
      },
      "upgradeTo(address)": {
        "details": "Upgrade the implementation of the proxy to `newImplementation`. Calls {_authorizeUpgrade}. Emits an {Upgraded} event."
      },
      "upgradeToAndCall(address,bytes)": {
        "details": "Upgrade the implementation of the proxy to `newImplementation`, and subsequently execute the function call encoded in `data`. Calls {_authorizeUpgrade}. Emits an {Upgraded} event."
      },
      "withdrawPoolToken(uint256)": {
        "params": {
          "supplyToWithdraw": "the supply to withdraw. It must be less than the allocated supply and at the same time we will not allow withdrawals that violate the carbon backing of the NFTs."
        }
      }
    },
    "stateVariables": {
      "VERSION": {
        "details": "Version-related parameters. VERSION keeps track of production releases. VERSION_RELEASE_CANDIDATE keeps track of iterations of a VERSION in our staging environment."
      }
    },
    "version": 1
  },
  "userdoc": {
    "kind": "user",
    "methods": {
      "allocatePoolToken(uint256)": {
        "notice": "Allows the owner allocate an amount of pool token based on an estimated supply.The caller needs to approve this contract for a sufficient amount of pool tokens before executing it. The method quoteAllocatePoolTokenAmount can be used to get the precise amount needed."
      },
      "embed(uint256,uint256)": {
        "notice": "It allows an NFT owner to embed further pool tokens in their NFTThe caller needs to approve this contract for a sufficient amount of pool tokens before executing it."
      },
      "quoteAllocatePoolTokenAmount(uint256)": {
        "notice": "It returns the amount of pool tokens required in the sender account to fulfill an allocation request for the given NFT supply"
      },
      "tokenIdBalance(uint256)": {
        "notice": "Returns the amount of pool tokens associated to the NFT token id"
      },
      "withdrawPoolToken(uint256)": {
        "notice": "Allows the owner to withdraw any exceeding amount of pre-allocated pool tokens."
      }
    },
    "version": 1
  },
  "storageLayout": {
    "storage": [
      {
        "astId": 2390,
        "contract": "contracts/periphery/FxHashNFTCarbonExtension.sol:FxHashNFTCarbonExtension",
        "label": "_initialized",
        "offset": 0,
        "slot": "0",
        "type": "t_uint8"
      },
      {
        "astId": 2393,
        "contract": "contracts/periphery/FxHashNFTCarbonExtension.sol:FxHashNFTCarbonExtension",
        "label": "_initializing",
        "offset": 1,
        "slot": "0",
        "type": "t_bool"
      },
      {
        "astId": 6917,
        "contract": "contracts/periphery/FxHashNFTCarbonExtension.sol:FxHashNFTCarbonExtension",
        "label": "__gap",
        "offset": 0,
        "slot": "1",
        "type": "t_array(t_uint256)50_storage"
      },
      {
        "astId": 7224,
        "contract": "contracts/periphery/FxHashNFTCarbonExtension.sol:FxHashNFTCarbonExtension",
        "label": "__gap",
        "offset": 0,
        "slot": "51",
        "type": "t_array(t_uint256)50_storage"
      },
      {
        "astId": 1497,
        "contract": "contracts/periphery/FxHashNFTCarbonExtension.sol:FxHashNFTCarbonExtension",
        "label": "_roles",
        "offset": 0,
        "slot": "101",
        "type": "t_mapping(t_bytes32,t_struct(RoleData)1492_storage)"
      },
      {
        "astId": 1796,
        "contract": "contracts/periphery/FxHashNFTCarbonExtension.sol:FxHashNFTCarbonExtension",
        "label": "__gap",
        "offset": 0,
        "slot": "102",
        "type": "t_array(t_uint256)49_storage"
      },
      {
        "astId": 2682,
        "contract": "contracts/periphery/FxHashNFTCarbonExtension.sol:FxHashNFTCarbonExtension",
        "label": "_paused",
        "offset": 0,
        "slot": "151",
        "type": "t_bool"
      },
      {
        "astId": 2771,
        "contract": "contracts/periphery/FxHashNFTCarbonExtension.sol:FxHashNFTCarbonExtension",
        "label": "__gap",
        "offset": 0,
        "slot": "152",
        "type": "t_array(t_uint256)49_storage"
      },
      {
        "astId": 2372,
        "contract": "contracts/periphery/FxHashNFTCarbonExtension.sol:FxHashNFTCarbonExtension",
        "label": "__gap",
        "offset": 0,
        "slot": "201",
        "type": "t_array(t_uint256)50_storage"
      },
      {
        "astId": 2660,
        "contract": "contracts/periphery/FxHashNFTCarbonExtension.sol:FxHashNFTCarbonExtension",
        "label": "__gap",
        "offset": 0,
        "slot": "251",
        "type": "t_array(t_uint256)50_storage"
      },
      {
        "astId": 23351,
        "contract": "contracts/periphery/FxHashNFTCarbonExtension.sol:FxHashNFTCarbonExtension",
        "label": "erc721",
        "offset": 0,
        "slot": "301",
        "type": "t_contract(IERC721)10971"
      },
      {
        "astId": 23353,
        "contract": "contracts/periphery/FxHashNFTCarbonExtension.sol:FxHashNFTCarbonExtension",
        "label": "basePoolTokenAllocationPerNFT",
        "offset": 0,
        "slot": "302",
        "type": "t_uint256"
      },
      {
        "astId": 23355,
        "contract": "contracts/periphery/FxHashNFTCarbonExtension.sol:FxHashNFTCarbonExtension",
        "label": "allocatedSupply",
        "offset": 0,
        "slot": "303",
        "type": "t_uint256"
      },
      {
        "astId": 23359,
        "contract": "contracts/periphery/FxHashNFTCarbonExtension.sol:FxHashNFTCarbonExtension",
        "label": "_tokenIdBalance",
        "offset": 0,
        "slot": "304",
        "type": "t_mapping(t_uint256,t_uint256)"
      },
      {
        "astId": 23361,
        "contract": "contracts/periphery/FxHashNFTCarbonExtension.sol:FxHashNFTCarbonExtension",
        "label": "allocationStarted",
        "offset": 0,
        "slot": "305",
        "type": "t_bool"
      },
      {
        "astId": 23366,
        "contract": "contracts/periphery/FxHashNFTCarbonExtension.sol:FxHashNFTCarbonExtension",
        "label": "__gap",
        "offset": 0,
        "slot": "306",
        "type": "t_array(t_uint256)45_storage"
      }
    ],
    "types": {
      "t_address": {
        "encoding": "inplace",
        "label": "address",
        "numberOfBytes": "20"
      },
      "t_array(t_uint256)45_storage": {
        "base": "t_uint256",
        "encoding": "inplace",
        "label": "uint256[45]",
        "numberOfBytes": "1440"
      },
      "t_array(t_uint256)49_storage": {
        "base": "t_uint256",
        "encoding": "inplace",
        "label": "uint256[49]",
        "numberOfBytes": "1568"
      },
      "t_array(t_uint256)50_storage": {
        "base": "t_uint256",
        "encoding": "inplace",
        "label": "uint256[50]",
        "numberOfBytes": "1600"
      },
      "t_bool": {
        "encoding": "inplace",
        "label": "bool",
        "numberOfBytes": "1"
      },
      "t_bytes32": {
        "encoding": "inplace",
        "label": "bytes32",
        "numberOfBytes": "32"
      },
      "t_contract(IERC721)10971": {
        "encoding": "inplace",
        "label": "contract IERC721",
        "numberOfBytes": "20"
      },
      "t_mapping(t_address,t_bool)": {
        "encoding": "mapping",
        "key": "t_address",
        "label": "mapping(address => bool)",
        "numberOfBytes": "32",
        "value": "t_bool"
      },
      "t_mapping(t_bytes32,t_struct(RoleData)1492_storage)": {
        "encoding": "mapping",
        "key": "t_bytes32",
        "label": "mapping(bytes32 => struct AccessControlUpgradeable.RoleData)",
        "numberOfBytes": "32",
        "value": "t_struct(RoleData)1492_storage"
      },
      "t_mapping(t_uint256,t_uint256)": {
        "encoding": "mapping",
        "key": "t_uint256",
        "label": "mapping(uint256 => uint256)",
        "numberOfBytes": "32",
        "value": "t_uint256"
      },
      "t_struct(RoleData)1492_storage": {
        "encoding": "inplace",
        "label": "struct AccessControlUpgradeable.RoleData",
        "members": [
          {
            "astId": 1489,
            "contract": "contracts/periphery/FxHashNFTCarbonExtension.sol:FxHashNFTCarbonExtension",
            "label": "members",
            "offset": 0,
            "slot": "0",
            "type": "t_mapping(t_address,t_bool)"
          },
          {
            "astId": 1491,
            "contract": "contracts/periphery/FxHashNFTCarbonExtension.sol:FxHashNFTCarbonExtension",
            "label": "adminRole",
            "offset": 0,
            "slot": "1",
            "type": "t_bytes32"
          }
        ],
        "numberOfBytes": "64"
      },
      "t_uint256": {
        "encoding": "inplace",
        "label": "uint256",
        "numberOfBytes": "32"
      },
      "t_uint8": {
        "encoding": "inplace",
        "label": "uint8",
        "numberOfBytes": "1"
      }
    }
  }
}