{
  "address": "0xA1139082F33e3d11B052A2212bD7b6B4C9C7D60b",
  "abi": [
    {
      "anonymous": false,
      "inputs": [
        {
          "indexed": false,
          "internalType": "address",
          "name": "account",
          "type": "address"
        }
      ],
      "name": "AddedToAllowedBridges",
      "type": "event"
    },
    {
      "anonymous": false,
      "inputs": [
        {
          "indexed": false,
          "internalType": "address",
          "name": "previousAdmin",
          "type": "address"
        },
        {
          "indexed": false,
          "internalType": "address",
          "name": "newAdmin",
          "type": "address"
        }
      ],
      "name": "AdminChanged",
      "type": "event"
    },
    {
      "anonymous": false,
      "inputs": [
        {
          "indexed": true,
          "internalType": "address",
          "name": "beacon",
          "type": "address"
        }
      ],
      "name": "BeaconUpgraded",
      "type": "event"
    },
    {
      "anonymous": false,
      "inputs": [
        {
          "indexed": false,
          "internalType": "uint8",
          "name": "version",
          "type": "uint8"
        }
      ],
      "name": "Initialized",
      "type": "event"
    },
    {
      "anonymous": false,
      "inputs": [
        {
          "indexed": true,
          "internalType": "address",
          "name": "previousOwner",
          "type": "address"
        },
        {
          "indexed": true,
          "internalType": "address",
          "name": "newOwner",
          "type": "address"
        }
      ],
      "name": "OwnershipTransferred",
      "type": "event"
    },
    {
      "anonymous": false,
      "inputs": [
        {
          "indexed": false,
          "internalType": "address",
          "name": "account",
          "type": "address"
        }
      ],
      "name": "Paused",
      "type": "event"
    },
    {
      "anonymous": false,
      "inputs": [
        {
          "indexed": false,
          "internalType": "address",
          "name": "account",
          "type": "address"
        }
      ],
      "name": "RemovedFromallowedBridges",
      "type": "event"
    },
    {
      "anonymous": false,
      "inputs": [
        {
          "indexed": true,
          "internalType": "bytes32",
          "name": "role",
          "type": "bytes32"
        },
        {
          "indexed": true,
          "internalType": "bytes32",
          "name": "previousAdminRole",
          "type": "bytes32"
        },
        {
          "indexed": true,
          "internalType": "bytes32",
          "name": "newAdminRole",
          "type": "bytes32"
        }
      ],
      "name": "RoleAdminChanged",
      "type": "event"
    },
    {
      "anonymous": false,
      "inputs": [
        {
          "indexed": true,
          "internalType": "bytes32",
          "name": "role",
          "type": "bytes32"
        },
        {
          "indexed": true,
          "internalType": "address",
          "name": "account",
          "type": "address"
        },
        {
          "indexed": true,
          "internalType": "address",
          "name": "sender",
          "type": "address"
        }
      ],
      "name": "RoleGranted",
      "type": "event"
    },
    {
      "anonymous": false,
      "inputs": [
        {
          "indexed": true,
          "internalType": "bytes32",
          "name": "role",
          "type": "bytes32"
        },
        {
          "indexed": true,
          "internalType": "address",
          "name": "account",
          "type": "address"
        },
        {
          "indexed": true,
          "internalType": "address",
          "name": "sender",
          "type": "address"
        }
      ],
      "name": "RoleRevoked",
      "type": "event"
    },
    {
      "anonymous": false,
      "inputs": [
        {
          "indexed": false,
          "internalType": "uint256",
          "name": "vintageTokenId",
          "type": "uint256"
        },
        {
          "indexed": false,
          "internalType": "address",
          "name": "tokenAddress",
          "type": "address"
        }
      ],
      "name": "TokenCreated",
      "type": "event"
    },
    {
      "anonymous": false,
      "inputs": [
        {
          "indexed": false,
          "internalType": "address",
          "name": "account",
          "type": "address"
        }
      ],
      "name": "Unpaused",
      "type": "event"
    },
    {
      "anonymous": false,
      "inputs": [
        {
          "indexed": true,
          "internalType": "address",
          "name": "implementation",
          "type": "address"
        }
      ],
      "name": "Upgraded",
      "type": "event"
    },
    {
      "inputs": [],
      "name": "DEFAULT_ADMIN_ROLE",
      "outputs": [
        {
          "internalType": "bytes32",
          "name": "",
          "type": "bytes32"
        }
      ],
      "stateMutability": "view",
      "type": "function"
    },
    {
      "inputs": [],
      "name": "DETOKENIZER_ROLE",
      "outputs": [
        {
          "internalType": "bytes32",
          "name": "",
          "type": "bytes32"
        }
      ],
      "stateMutability": "view",
      "type": "function"
    },
    {
      "inputs": [],
      "name": "TOKENIZER_ROLE",
      "outputs": [
        {
          "internalType": "bytes32",
          "name": "",
          "type": "bytes32"
        }
      ],
      "stateMutability": "view",
      "type": "function"
    },
    {
      "inputs": [],
      "name": "VERSION",
      "outputs": [
        {
          "internalType": "string",
          "name": "",
          "type": "string"
        }
      ],
      "stateMutability": "view",
      "type": "function"
    },
    {
      "inputs": [],
      "name": "VERSION_RELEASE_CANDIDATE",
      "outputs": [
        {
          "internalType": "uint256",
          "name": "",
          "type": "uint256"
        }
      ],
      "stateMutability": "view",
      "type": "function"
    },
    {
      "inputs": [
        {
          "internalType": "address",
          "name": "account",
          "type": "address"
        }
      ],
      "name": "addToAllowedBridges",
      "outputs": [],
      "stateMutability": "nonpayable",
      "type": "function"
    },
    {
      "inputs": [
        {
          "internalType": "address",
          "name": "",
          "type": "address"
        }
      ],
      "name": "allowedBridges",
      "outputs": [
        {
          "internalType": "bool",
          "name": "",
          "type": "bool"
        }
      ],
      "stateMutability": "view",
      "type": "function"
    },
    {
      "inputs": [],
      "name": "beacon",
      "outputs": [
        {
          "internalType": "address",
          "name": "",
          "type": "address"
        }
      ],
      "stateMutability": "view",
      "type": "function"
    },
    {
      "inputs": [],
      "name": "bridgeFeeBurnAddress",
      "outputs": [
        {
          "internalType": "address",
          "name": "",
          "type": "address"
        }
      ],
      "stateMutability": "view",
      "type": "function"
    },
    {
      "inputs": [],
      "name": "bridgeFeeBurnPercentageInBase",
      "outputs": [
        {
          "internalType": "uint256",
          "name": "",
          "type": "uint256"
        }
      ],
      "stateMutability": "view",
      "type": "function"
    },
    {
      "inputs": [],
      "name": "bridgeFeeDivider",
      "outputs": [
        {
          "internalType": "uint256",
          "name": "",
          "type": "uint256"
        }
      ],
      "stateMutability": "view",
      "type": "function"
    },
    {
      "inputs": [],
      "name": "bridgeFeePercentageInBase",
      "outputs": [
        {
          "internalType": "uint256",
          "name": "",
          "type": "uint256"
        }
      ],
      "stateMutability": "view",
      "type": "function"
    },
    {
      "inputs": [],
      "name": "bridgeFeeReceiver",
      "outputs": [
        {
          "internalType": "address",
          "name": "",
          "type": "address"
        }
      ],
      "stateMutability": "view",
      "type": "function"
    },
    {
      "inputs": [],
      "name": "bridgeFeeReceiverAddress",
      "outputs": [
        {
          "internalType": "address",
          "name": "",
          "type": "address"
        }
      ],
      "stateMutability": "view",
      "type": "function"
    },
    {
      "inputs": [],
      "name": "contractRegistry",
      "outputs": [
        {
          "internalType": "address",
          "name": "",
          "type": "address"
        }
      ],
      "stateMutability": "view",
      "type": "function"
    },
    {
      "inputs": [
        {
          "internalType": "uint256",
          "name": "projectVintageTokenId",
          "type": "uint256"
        }
      ],
      "name": "deployFromVintage",
      "outputs": [],
      "stateMutability": "nonpayable",
      "type": "function"
    },
    {
      "inputs": [
        {
          "internalType": "uint256",
          "name": "",
          "type": "uint256"
        }
      ],
      "name": "deployedContracts",
      "outputs": [
        {
          "internalType": "address",
          "name": "",
          "type": "address"
        }
      ],
      "stateMutability": "view",
      "type": "function"
    },
    {
      "inputs": [
        {
          "internalType": "uint256",
          "name": "_quantity",
          "type": "uint256"
        }
      ],
      "name": "getBridgeFeeAndBurnAmount",
      "outputs": [
        {
          "internalType": "uint256",
          "name": "",
          "type": "uint256"
        },
        {
          "internalType": "uint256",
          "name": "",
          "type": "uint256"
        }
      ],
      "stateMutability": "view",
      "type": "function"
    },
    {
      "inputs": [],
      "name": "getContracts",
      "outputs": [
        {
          "internalType": "address[]",
          "name": "",
          "type": "address[]"
        }
      ],
      "stateMutability": "view",
      "type": "function"
    },
    {
      "inputs": [
        {
          "internalType": "bytes32",
          "name": "role",
          "type": "bytes32"
        }
      ],
      "name": "getRoleAdmin",
      "outputs": [
        {
          "internalType": "bytes32",
          "name": "",
          "type": "bytes32"
        }
      ],
      "stateMutability": "view",
      "type": "function"
    },
    {
      "inputs": [
        {
          "internalType": "bytes32",
          "name": "role",
          "type": "bytes32"
        },
        {
          "internalType": "address",
          "name": "account",
          "type": "address"
        }
      ],
      "name": "grantRole",
      "outputs": [],
      "stateMutability": "nonpayable",
      "type": "function"
    },
    {
      "inputs": [
        {
          "internalType": "bytes32",
          "name": "role",
          "type": "bytes32"
        },
        {
          "internalType": "address",
          "name": "account",
          "type": "address"
        }
      ],
      "name": "hasRole",
      "outputs": [
        {
          "internalType": "bool",
          "name": "",
          "type": "bool"
        }
      ],
      "stateMutability": "view",
      "type": "function"
    },
    {
      "inputs": [
        {
          "internalType": "address",
          "name": "_contractRegistry",
          "type": "address"
        },
        {
          "internalType": "address[]",
          "name": "_accounts",
          "type": "address[]"
        },
        {
          "internalType": "bytes32[]",
          "name": "_roles",
          "type": "bytes32[]"
        }
      ],
      "name": "initialize",
      "outputs": [],
      "stateMutability": "nonpayable",
      "type": "function"
    },
    {
      "inputs": [],
      "name": "owner",
      "outputs": [
        {
          "internalType": "address",
          "name": "",
          "type": "address"
        }
      ],
      "stateMutability": "view",
      "type": "function"
    },
    {
      "inputs": [],
      "name": "pause",
      "outputs": [],
      "stateMutability": "nonpayable",
      "type": "function"
    },
    {
      "inputs": [],
      "name": "paused",
      "outputs": [
        {
          "internalType": "bool",
          "name": "",
          "type": "bool"
        }
      ],
      "stateMutability": "view",
      "type": "function"
    },
    {
      "inputs": [],
      "name": "proxiableUUID",
      "outputs": [
        {
          "internalType": "bytes32",
          "name": "",
          "type": "bytes32"
        }
      ],
      "stateMutability": "view",
      "type": "function"
    },
    {
      "inputs": [
        {
          "internalType": "uint256",
          "name": "",
          "type": "uint256"
        }
      ],
      "name": "pvIdtoERC20",
      "outputs": [
        {
          "internalType": "address",
          "name": "",
          "type": "address"
        }
      ],
      "stateMutability": "view",
      "type": "function"
    },
    {
      "inputs": [
        {
          "internalType": "address",
          "name": "account",
          "type": "address"
        }
      ],
      "name": "removeFromAllowedBridges",
      "outputs": [],
      "stateMutability": "nonpayable",
      "type": "function"
    },
    {
      "inputs": [],
      "name": "renounceOwnership",
      "outputs": [],
      "stateMutability": "nonpayable",
      "type": "function"
    },
    {
      "inputs": [
        {
          "internalType": "bytes32",
          "name": "role",
          "type": "bytes32"
        },
        {
          "internalType": "address",
          "name": "account",
          "type": "address"
        }
      ],
      "name": "renounceRole",
      "outputs": [],
      "stateMutability": "nonpayable",
      "type": "function"
    },
    {
      "inputs": [
        {
          "internalType": "bytes32",
          "name": "role",
          "type": "bytes32"
        },
        {
          "internalType": "address",
          "name": "account",
          "type": "address"
        }
      ],
      "name": "revokeRole",
      "outputs": [],
      "stateMutability": "nonpayable",
      "type": "function"
    },
    {
      "inputs": [
        {
          "internalType": "address",
          "name": "_user",
          "type": "address"
        }
      ],
      "name": "setAdmin",
      "outputs": [],
      "stateMutability": "nonpayable",
      "type": "function"
    },
    {
      "inputs": [
        {
          "internalType": "address",
          "name": "_beacon",
          "type": "address"
        }
      ],
      "name": "setBeacon",
      "outputs": [],
      "stateMutability": "nonpayable",
      "type": "function"
    },
    {
      "inputs": [
        {
          "internalType": "address",
          "name": "_bridgeFeeBurnAddress",
          "type": "address"
        }
      ],
      "name": "setBridgeFeeBurnAddress",
      "outputs": [],
      "stateMutability": "nonpayable",
      "type": "function"
    },
    {
      "inputs": [
        {
          "internalType": "uint256",
          "name": "_bridgeFeeBurnPercentageInBase",
          "type": "uint256"
        }
      ],
      "name": "setBridgeFeeBurnPercentage",
      "outputs": [],
      "stateMutability": "nonpayable",
      "type": "function"
    },
    {
      "inputs": [
        {
          "internalType": "uint256",
          "name": "_bridgeFeePercentageInBase",
          "type": "uint256"
        }
      ],
      "name": "setBridgeFeePercentage",
      "outputs": [],
      "stateMutability": "nonpayable",
      "type": "function"
    },
    {
      "inputs": [
        {
          "internalType": "address",
          "name": "_bridgeFeeReceiver",
          "type": "address"
        }
      ],
      "name": "setBridgeFeeReceiver",
      "outputs": [],
      "stateMutability": "nonpayable",
      "type": "function"
    },
    {
      "inputs": [
        {
          "internalType": "address",
          "name": "_address",
          "type": "address"
        }
      ],
      "name": "setToucanContractRegistry",
      "outputs": [],
      "stateMutability": "nonpayable",
      "type": "function"
    },
    {
      "inputs": [],
      "name": "standardRegistry",
      "outputs": [
        {
          "internalType": "string",
          "name": "",
          "type": "string"
        }
      ],
      "stateMutability": "pure",
      "type": "function"
    },
    {
      "inputs": [],
      "name": "supportedStandards",
      "outputs": [
        {
          "internalType": "string[]",
          "name": "",
          "type": "string[]"
        }
      ],
      "stateMutability": "pure",
      "type": "function"
    },
    {
      "inputs": [
        {
          "internalType": "bytes4",
          "name": "interfaceId",
          "type": "bytes4"
        }
      ],
      "name": "supportsInterface",
      "outputs": [
        {
          "internalType": "bool",
          "name": "",
          "type": "bool"
        }
      ],
      "stateMutability": "view",
      "type": "function"
    },
    {
      "inputs": [
        {
          "internalType": "address",
          "name": "newOwner",
          "type": "address"
        }
      ],
      "name": "transferOwnership",
      "outputs": [],
      "stateMutability": "nonpayable",
      "type": "function"
    },
    {
      "inputs": [],
      "name": "unpause",
      "outputs": [],
      "stateMutability": "nonpayable",
      "type": "function"
    },
    {
      "inputs": [
        {
          "internalType": "address",
          "name": "newImplementation",
          "type": "address"
        }
      ],
      "name": "upgradeTo",
      "outputs": [],
      "stateMutability": "nonpayable",
      "type": "function"
    },
    {
      "inputs": [
        {
          "internalType": "address",
          "name": "newImplementation",
          "type": "address"
        },
        {
          "internalType": "bytes",
          "name": "data",
          "type": "bytes"
        }
      ],
      "name": "upgradeToAndCall",
      "outputs": [],
      "stateMutability": "payable",
      "type": "function"
    }
  ],
  "numDeployments": 1,
  "solcInputHash": "06f1ffef82ed854bb3b5a11f0bb98fef",
  "bytecode": "0x60a0604052306080523480156200001557600080fd5b506200002062000026565b620000e7565b600354610100900460ff1615620000935760405162461bcd60e51b815260206004820152602760248201527f496e697469616c697a61626c653a20636f6e747261637420697320696e697469604482015266616c697a696e6760c81b606482015260840160405180910390fd5b60035460ff90811614620000e5576003805460ff191660ff9081179091556040519081527f7f26b83ff96e1f2b6a682f133852f6798a09c465da95921460cefb38474024989060200160405180910390a15b565b608051613bf06200011f60003960008181610ade01528181610b2101528181610d6c01528181610daf0152610e470152613bf06000f3fe608060405260043610620002b35760003560e01c8063715018a6116200016b578063b3b6014211620000d1578063e882e37b1162000084578063e882e37b146200088f578063f2fde38b14620008b4578063f379a5a214620008d9578063f8513c621462000914578063f8d8353f1462000936578063ffa1ad74146200095b57600080fd5b8063b3b6014214620007bb578063c3a2a93a14620007e0578063d42afb561462000807578063d547741f146200082c578063dee02cba1462000851578063e60b6da8146200087657600080fd5b80638da5cb5b116200012a5780638da5cb5b14620006ff57806391d14854146200071f578063936d8e2414620007445780639ad1ee10146200075d578063a217fddf1462000782578063abf410e5146200079957600080fd5b8063715018a614620006725780637f05b305146200068a57806380e2d3f014620006af5780638456cb5914620006cf5780638891792a14620006e757600080fd5b80633ed9b17b116200021d5780635c6f3a9011620001d05780635c6f3a9014620005875780635c975abb14620005bd5780635e813d3c14620005d75780636a0031cc14620006115780636ca0b0d71462000636578063704b6c02146200064d57600080fd5b80633ed9b17b14620004bd5780633f4ba83a14620004e25780634f1ef28614620004fa57806352d1902d1462000511578063581cd110146200052957806359659e90146200056557600080fd5b80632626c3be11620002765780632626c3be14620003c85780632f2ff15d14620003ed57806336568abe14620004125780633659cfe6146200043757806338b10b21146200045c5780633c31175e146200048357600080fd5b806301ffc9a714620002b8578063056195a714620002f25780630605a3341462000319578063235fcebe146200035e578063248a9ca31462000393575b600080fd5b348015620002c557600080fd5b50620002dd620002d736600462002729565b6200098e565b60405190151581526020015b60405180910390f35b348015620002ff57600080fd5b5062000317620003113660046200276b565b620009c6565b005b3480156200032657600080fd5b506200034f7fe70d28ebd9d7d9a3dd77d46ae2481f301c80806f395b08de31d8e095b1c46cee81565b604051908152602001620002e9565b3480156200036b57600080fd5b50620002dd6200037d3660046200276b565b6101046020526000908152604090205460ff1681565b348015620003a057600080fd5b506200034f620003b23660046200278b565b6000908152610163602052604090206001015490565b348015620003d557600080fd5b5062000317620003e73660046200276b565b620009f3565b348015620003fa57600080fd5b50620003176200040c366004620027a5565b62000a1f565b3480156200041f57600080fd5b506200031762000431366004620027a5565b62000a4e565b3480156200044457600080fd5b5062000317620004563660046200276b565b62000ad4565b3480156200046957600080fd5b506200047462000bbf565b604051620002e9919062002835565b3480156200049057600080fd5b50604080518082019091526005815264766572726160d81b60208201525b604051620002e991906200289b565b348015620004ca57600080fd5b5062000317620004dc3660046200276b565b62000c34565b348015620004ef57600080fd5b506200031762000cfa565b620003176200050b36600462002979565b62000d62565b3480156200051e57600080fd5b506200034f62000e3a565b3480156200053657600080fd5b50610101546200054c906001600160a01b031681565b6040516001600160a01b039091168152602001620002e9565b3480156200057257600080fd5b5060fe546200054c906001600160a01b031681565b3480156200059457600080fd5b506200034f7ffb7778e60e898528875e31f94e3a623d6302be2aa540c7a7f5ae26fe5ee2498d81565b348015620005ca57600080fd5b5060685460ff16620002dd565b348015620005e457600080fd5b506200054c620005f63660046200278b565b6002602052600090815260409020546001600160a01b031681565b3480156200061e57600080fd5b5062000317620006303660046200278b565b62000ef0565b3480156200064357600080fd5b506200034f600181565b3480156200065a57600080fd5b50620003176200066c3660046200276b565b62000f79565b3480156200067f57600080fd5b506200031762000f90565b3480156200069757600080fd5b5062000317620006a93660046200276b565b62000fa8565b348015620006bc57600080fd5b5060ff546001600160a01b03166200054c565b348015620006dc57600080fd5b506200031762001067565b348015620006f457600080fd5b506200034f61271081565b3480156200070c57600080fd5b506036546001600160a01b03166200054c565b3480156200072c57600080fd5b50620002dd6200073e366004620027a5565b620010cf565b3480156200075157600080fd5b506200034f6101025481565b3480156200076a57600080fd5b506200054c6200077c3660046200278b565b620010fb565b3480156200078f57600080fd5b506200034f600081565b348015620007a657600080fd5b506000546200054c906001600160a01b031681565b348015620007c857600080fd5b5062000317620007da3660046200278b565b62001126565b348015620007ed57600080fd5b50620007f86200113b565b604051620002e9919062002a16565b3480156200081457600080fd5b5062000317620008263660046200276b565b6200119f565b3480156200083957600080fd5b50620003176200084b366004620027a5565b620011cb565b3480156200085e57600080fd5b5062000317620008703660046200278b565b620011f5565b3480156200088357600080fd5b506200034f6101005481565b3480156200089c57600080fd5b5062000317620008ae3660046200276b565b6200127e565b348015620008c157600080fd5b5062000317620008d33660046200276b565b620012aa565b348015620008e657600080fd5b50620008fe620008f83660046200278b565b62001326565b60408051928352602083019190915201620002e9565b3480156200092157600080fd5b5060ff546200054c906001600160a01b031681565b3480156200094357600080fd5b50620003176200095536600462002ab4565b6200137b565b3480156200096857600080fd5b50620004ae604051806040016040528060058152602001640312e332e360dc1b81525081565b60006001600160e01b03198216637965db0b60e01b1480620009c057506301ffc9a760e01b6001600160e01b03198316145b92915050565b620009d0620014b9565b61010180546001600160a01b0319166001600160a01b0392909216919091179055565b620009fd620014b9565b60ff80546001600160a01b0319166001600160a01b0392909216919091179055565b6000828152610163602052604090206001015462000a3d8162001515565b62000a49838362001521565b505050565b6001600160a01b038116331462000ac45760405162461bcd60e51b815260206004820152602f60248201527f416363657373436f6e74726f6c3a2063616e206f6e6c792072656e6f756e636560448201526e103937b632b9903337b91039b2b63360891b60648201526084015b60405180910390fd5b62000ad08282620015ac565b5050565b6001600160a01b037f000000000000000000000000000000000000000000000000000000000000000016300362000b1f5760405162461bcd60e51b815260040162000abb9062002b40565b7f00000000000000000000000000000000000000000000000000000000000000006001600160a01b031662000b6a60008051602062003b4b833981519152546001600160a01b031690565b6001600160a01b03161462000b935760405162461bcd60e51b815260040162000abb9062002b8c565b62000b9e8162001617565b6040805160008082526020820190925262000bbc9183919062001621565b50565b60408051600180825281830190925260609160009190816020015b606081526020019060019003908162000bda5790505090506040518060400160405280600381526020016256435360e81b8152508160008151811062000c245762000c2462002bd8565b6020908102919091010152919050565b62000c3e620014b9565b6001600160a01b0381166000908152610104602052604090205460ff168062000ca05760405162461bcd60e51b8152602060048201526013602482015272105b1c9958591e481b9bdd08185b1b1bddd959606a1b604482015260640162000abb565b6001600160a01b03821660008181526101046020908152604091829020805460ff1916905590519182527fe1f1103cfadf05f922cd1ed035283eed4d6e2d4c343210b7ac5f84a472bcfd7691015b60405180910390a15050565b6000546001600160a01b031662000d196036546001600160a01b031690565b6001600160a01b03821633148062000d3957506001600160a01b03811633145b62000d585760405162461bcd60e51b815260040162000abb9062002bee565b62000ad062001799565b6001600160a01b037f000000000000000000000000000000000000000000000000000000000000000016300362000dad5760405162461bcd60e51b815260040162000abb9062002b40565b7f00000000000000000000000000000000000000000000000000000000000000006001600160a01b031662000df860008051602062003b4b833981519152546001600160a01b031690565b6001600160a01b03161462000e215760405162461bcd60e51b815260040162000abb9062002b8c565b62000e2c8262001617565b62000ad08282600162001621565b6000306001600160a01b037f0000000000000000000000000000000000000000000000000000000000000000161462000edc5760405162461bcd60e51b815260206004820152603860248201527f555550535570677261646561626c653a206d757374206e6f742062652063616c60448201527f6c6564207468726f7567682064656c656761746563616c6c0000000000000000606482015260840162000abb565b5060008051602062003b4b83398151915290565b62000efa620014b9565b612710811062000f735760405162461bcd60e51b815260206004820152603b60248201527f627269646765206665652070657263656e74616765206d757374206265206c6f60448201527f776572207468616e206272696467652066656520646976696465720000000000606482015260840162000abb565b61010055565b62000f83620014b9565b62000bbc60008262000a1f565b62000f9a620014b9565b62000fa66000620017ed565b565b62000fb2620014b9565b6001600160a01b0381166000908152610104602052604090205460ff168015620010115760405162461bcd60e51b815260206004820152600f60248201526e105b1c9958591e48185b1b1bddd959608a1b604482015260640162000abb565b6001600160a01b03821660008181526101046020908152604091829020805460ff1916600117905590519182527fed9735b851438eeeaf428e48851f731122eb39b1d8027c2c3158f7f0b2d54706910162000cee565b6000546001600160a01b0316620010866036546001600160a01b031690565b6001600160a01b038216331480620010a657506001600160a01b03811633145b620010c55760405162461bcd60e51b815260040162000abb9062002bee565b62000ad06200183f565b6000918252610163602090815260408084206001600160a01b0393909316845291905290205460ff1690565b600181815481106200110c57600080fd5b6000918252602090912001546001600160a01b0316905081565b620011306200187f565b62000bbc81620018c7565b606060018054806020026020016040519081016040528092919081815260200182805480156200119557602002820191906000526020600020905b81546001600160a01b0316815260019091019060200180831162001176575b5050505050905090565b620011a9620014b9565b60fe80546001600160a01b0319166001600160a01b0392909216919091179055565b60008281526101636020526040902060010154620011e98162001515565b62000a498383620015ac565b620011ff620014b9565b6127108110620012785760405162461bcd60e51b815260206004820152603960248201527f6275726e206665652070657263656e74616765206d757374206265206c6f776560448201527f72207468616e2062726964676520666565206469766964657200000000000000606482015260840162000abb565b61010255565b62001288620014b9565b600080546001600160a01b0319166001600160a01b0392909216919091179055565b620012b4620014b9565b6001600160a01b0381166200131b5760405162461bcd60e51b815260206004820152602660248201527f4f776e61626c653a206e6577206f776e657220697320746865207a65726f206160448201526564647265737360d01b606482015260840162000abb565b62000bbc81620017ed565b600080600061271061010054856200133f919062002c49565b6200134b919062002c6b565b90506000612710610102548362001363919062002c49565b6200136f919062002c6b565b91959194509092505050565b600354610100900460ff16158080156200139c5750600354600160ff909116105b80620013b85750303b158015620013b8575060035460ff166001145b6200141d5760405162461bcd60e51b815260206004820152602e60248201527f496e697469616c697a61626c653a20636f6e747261637420697320616c72656160448201526d191e481a5b9a5d1a585b1a5e995960921b606482015260840162000abb565b6003805460ff19166001179055801562001441576003805461ff0019166101001790555b6200144f8585858562001c34565b600080546001600160a01b0319166001600160a01b0388161790558015620014b1576003805461ff0019169055604051600181527f7f26b83ff96e1f2b6a682f133852f6798a09c465da95921460cefb38474024989060200160405180910390a15b505050505050565b6036546001600160a01b0316331462000fa65760405162461bcd60e51b815260206004820181905260248201527f4f776e61626c653a2063616c6c6572206973206e6f7420746865206f776e6572604482015260640162000abb565b62000bbc813362001c70565b6200152d8282620010cf565b62000ad0576000828152610163602090815260408083206001600160a01b03851684529091529020805460ff19166001179055620015683390565b6001600160a01b0316816001600160a01b0316837f2f8788117e7eff1d82e926ec794901d17c78024a50270940304540a733656f0d60405160405180910390a45050565b620015b88282620010cf565b1562000ad0576000828152610163602090815260408083206001600160a01b0385168085529252808320805460ff1916905551339285917ff6391f5c32d9c69d2a47ea670b442974b53935d1edc7fd64eb21e047a839171b9190a45050565b62000bbc620014b9565b7f4910fdfa16fed3260ed0e7147f7cc6da11a60208b5b9406d12a635614ffd91435460ff1615620016575762000a498362001cd4565b826001600160a01b03166352d1902d6040518163ffffffff1660e01b8152600401602060405180830381865afa925050508015620016b4575060408051601f3d908101601f19168201909252620016b19181019062002c8e565b60015b620017195760405162461bcd60e51b815260206004820152602e60248201527f45524331393637557067726164653a206e657720696d706c656d656e7461746960448201526d6f6e206973206e6f74205555505360901b606482015260840162000abb565b60008051602062003b4b83398151915281146200178b5760405162461bcd60e51b815260206004820152602960248201527f45524331393637557067726164653a20756e737570706f727465642070726f786044820152681a58589b195555525160ba1b606482015260840162000abb565b5062000a4983838362001d73565b620017a362001d9e565b6068805460ff191690557f5db9ee0a495bf2e6ff9c91a7834c1ba4fdd244a5e8aa4e537bd38aeae4b073aa335b6040516001600160a01b03909116815260200160405180910390a1565b603680546001600160a01b038381166001600160a01b0319831681179093556040519116919082907f8be0079c531659141344cd1fd0a4f28419497f9722a3daafe3b4186f6b6457e090600090a35050565b620018496200187f565b6068805460ff191660011790557f62e78cea01bee320cd4e420270b5ea74000d11b0c9f74754ebdbfc544b05a258620017d03390565b60685460ff161562000fa65760405162461bcd60e51b815260206004820152601060248201526f14185d5cd8589b194e881c185d5cd95960821b604482015260640162000abb565b620018d16200187f565b60fe546001600160a01b03166200192b5760405162461bcd60e51b815260206004820152601f60248201527f4572726f723a20426561636f6e20666f722070726f7879206e6f742073657400604482015260640162000abb565b620019368162001de9565b156200197e5760405162461bcd60e51b81526020600482015260166024820152757076455243323020616c72656164792065786973747360501b604482015260640162000abb565b60005462001996906001600160a01b03168262001e1b565b620019a18162001f51565b620019e25760405162461bcd60e51b815260206004820152601060248201526f125b9d985b1a59081cdd185b99185c9960821b604482015260640162000abb565b600060405180606001604052806029815260200162003b92602991396000805460405160806024820152601560a4820152742a37bab1b0b710283937ba37b1b7b61d102a21a79960591b60c482015260c06044820152600460e4820152632a21a79960e11b610104820152606481018690526001600160a01b0390911660848201529192509082906101240160408051601f19818403018152908290529162001a8b9162002ca8565b60408051918290039091206020830180516001600160e01b03166001600160e01b031990921691909117905260fe5490519192506000916001600160a01b0390911690839062001adb906200271b565b62001ae892919062002cc6565b604051809103906000f08015801562001b05573d6000803e3d6000fd5b506000549091506001600160a01b031663344dd6cb8262001b3e604080518082019091526005815264766572726160d81b602082015290565b6040518363ffffffff1660e01b815260040162001b5d92919062002cc6565b600060405180830381600087803b15801562001b7857600080fd5b505af115801562001b8d573d6000803e3d6000fd5b5050600180548082019091557fb10e2d527612073b26eecdfd717e6a320cf44b4afac2b0732d9fcbe2b7fa0cf60180546001600160a01b0385166001600160a01b03199182168117909255600088815260026020908152604091829020805490931684179092558051898152918201929092527fc331dc3e37e2ab4d6e65d42a119ffdfab8481b9be24d26704f9f4b4a331d4dd0935001905060405180910390a150505050565b62001c3e620021bd565b62001c48620021e7565b62001c526200221c565b62001c5c620021bd565b62001c6a8484848462002252565b50505050565b62001c7c8282620010cf565b62000ad05762001c8c816200238c565b62001c998360206200239f565b60405160200162001cac92919062002cec565b60408051601f198184030181529082905262461bcd60e51b825262000abb916004016200289b565b6001600160a01b0381163b62001d435760405162461bcd60e51b815260206004820152602d60248201527f455243313936373a206e657720696d706c656d656e746174696f6e206973206e60448201526c1bdd08184818dbdb9d1c9858dd609a1b606482015260840162000abb565b60008051602062003b4b83398151915280546001600160a01b0319166001600160a01b0392909216919091179055565b62001d7e8362002560565b60008251118062001d8c5750805b1562000a495762001c6a8383620025a2565b60685460ff1662000fa65760405162461bcd60e51b815260206004820152601460248201527314185d5cd8589b194e881b9bdd081c185d5cd95960621b604482015260640162000abb565b6000818152600260205260408120546001600160a01b031662001e0e57506000919050565b506001919050565b919050565b6000826001600160a01b031663a0af25606040518163ffffffff1660e01b8152600401602060405180830381865afa15801562001e5c573d6000803e3d6000fd5b505050506040513d601f19601f8201168201806040525081019062001e82919062002d72565b604051634f558e7960e01b8152600481018490529091506001600160a01b03821690634f558e7990602401602060405180830381865afa15801562001ecb573d6000803e3d6000fd5b505050506040513d601f19601f8201168201806040525081019062001ef1919062002da3565b62000a495760405162461bcd60e51b815260206004820152602960248201527f436172626f6e2070726f6a6563742076696e7461676520646f6573206e6f74206044820152681e595d08195e1a5cdd60ba1b606482015260840162000abb565b60008060008054906101000a90046001600160a01b031690506000816001600160a01b03166301157a836040518163ffffffff1660e01b8152600401602060405180830381865afa15801562001fab573d6000803e3d6000fd5b505050506040513d601f19601f8201168201806040525081019062001fd1919062002d72565b90506000826001600160a01b031663a0af25606040518163ffffffff1660e01b8152600401602060405180830381865afa15801562002014573d6000803e3d6000fd5b505050506040513d601f19601f820116820180604052508101906200203a919062002d72565b60405163056efc1d60e21b8152600481018790529091506000906001600160a01b038316906315bbf07490602401600060405180830381865afa15801562002086573d6000803e3d6000fd5b505050506040513d6000823e601f3d908101601f19168201604052620020b0919081019062002e26565b90506000836001600160a01b03166347e3168683606001516040518263ffffffff1660e01b8152600401620020e791815260200190565b600060405180830381865afa15801562002105573d6000803e3d6000fd5b505050506040513d6000823e601f3d908101601f191682016040526200212f919081019062002fd2565b905060006200213d62000bbf565b805160208401519192509060005b82811015620021ac5760008482815181106200216b576200216b62002bd8565b602002602001015190506200218a8184620025ca90919063ffffffff16565b15620021a2575060019b9a5050505050505050505050565b506001016200214b565b5060009a9950505050505050505050565b600354610100900460ff1662000fa65760405162461bcd60e51b815260040162000abb906200319a565b600354610100900460ff16620022115760405162461bcd60e51b815260040162000abb906200319a565b62000fa633620017ed565b600354610100900460ff16620022465760405162461bcd60e51b815260040162000abb906200319a565b6068805460ff19169055565b8281146200229b5760405162461bcd60e51b8152602060048201526015602482015274082e4e4c2f240d8cadccee8d040dad2e6dac2e8c6d605b1b604482015260640162000abb565b620022a5620021bd565b6000805b84811015620023405762002304848483818110620022cb57620022cb62002bd8565b90506020020135878784818110620022e757620022e762002bd8565b9050602002016020810190620022fe91906200276b565b62001521565b60008484838181106200231b576200231b62002bd8565b90506020020135036200232d57600191505b6200233881620031e5565b9050620022a9565b5080620023855760405162461bcd60e51b8152602060048201526012602482015271139bc818591b5a5b881cdc1958da599a595960721b604482015260640162000abb565b5050505050565b6060620009c06001600160a01b03831660145b60606000620023b083600262002c49565b620023bd90600262003201565b67ffffffffffffffff811115620023d857620023d8620028b0565b6040519080825280601f01601f19166020018201604052801562002403576020820181803683370190505b509050600360fc1b8160008151811062002421576200242162002bd8565b60200101906001600160f81b031916908160001a905350600f60fb1b8160018151811062002453576200245362002bd8565b60200101906001600160f81b031916908160001a90535060006200247984600262002c49565b6200248690600162003201565b90505b600181111562002508576f181899199a1a9b1b9c1cb0b131b232b360811b85600f1660108110620024be57620024be62002bd8565b1a60f81b828281518110620024d757620024d762002bd8565b60200101906001600160f81b031916908160001a90535060049490941c9362002500816200321c565b905062002489565b508315620025595760405162461bcd60e51b815260206004820181905260248201527f537472696e67733a20686578206c656e67746820696e73756666696369656e74604482015260640162000abb565b9392505050565b6200256b8162001cd4565b6040516001600160a01b038216907fbc7cd75a20ee27fd9adebab32041f755214dbc6bffa90cc0225b39da2e5c2d3b90600090a250565b606062002559838360405180606001604052806027815260200162003b6b60279139620025e8565b60006200255983838051602091820120825192909101919091201490565b6060600080856001600160a01b03168560405162002607919062002ca8565b600060405180830381855af49150503d806000811462002644576040519150601f19603f3d011682016040523d82523d6000602084013e62002649565b606091505b50915091506200265c8683838762002666565b9695505050505050565b60608315620026da578251600003620026d2576001600160a01b0385163b620026d25760405162461bcd60e51b815260206004820152601d60248201527f416464726573733a2063616c6c20746f206e6f6e2d636f6e7472616374000000604482015260640162000abb565b5081620026e6565b620026e68383620026ee565b949350505050565b815115620026ff5781518083602001fd5b8060405162461bcd60e51b815260040162000abb91906200289b565b610914806200323783390190565b6000602082840312156200273c57600080fd5b81356001600160e01b0319811681146200255957600080fd5b6001600160a01b038116811462000bbc57600080fd5b6000602082840312156200277e57600080fd5b8135620025598162002755565b6000602082840312156200279e57600080fd5b5035919050565b60008060408385031215620027b957600080fd5b823591506020830135620027cd8162002755565b809150509250929050565b60005b83811015620027f5578181015183820152602001620027db565b8381111562001c6a5750506000910152565b6000815180845262002821816020860160208601620027d8565b601f01601f19169290920160200192915050565b6000602080830181845280855180835260408601915060408160051b870101925083870160005b828110156200288e57603f198886030184526200287b85835162002807565b945092850192908501906001016200285c565b5092979650505050505050565b60208152600062002559602083018462002807565b634e487b7160e01b600052604160045260246000fd5b604051610180810167ffffffffffffffff81118282101715620028ed57620028ed620028b0565b60405290565b604051610140810167ffffffffffffffff81118282101715620028ed57620028ed620028b0565b604051601f8201601f1916810167ffffffffffffffff81118282101715620029465762002946620028b0565b604052919050565b600067ffffffffffffffff8211156200296b576200296b620028b0565b50601f01601f191660200190565b600080604083850312156200298d57600080fd5b82356200299a8162002755565b9150602083013567ffffffffffffffff811115620029b757600080fd5b8301601f81018513620029c957600080fd5b8035620029e0620029da826200294e565b6200291a565b818152866020838501011115620029f657600080fd5b816020840160208301376000602083830101528093505050509250929050565b6020808252825182820181905260009190848201906040850190845b8181101562002a595783516001600160a01b03168352928401929184019160010162002a32565b50909695505050505050565b60008083601f84011262002a7857600080fd5b50813567ffffffffffffffff81111562002a9157600080fd5b6020830191508360208260051b850101111562002aad57600080fd5b9250929050565b60008060008060006060868803121562002acd57600080fd5b853562002ada8162002755565b9450602086013567ffffffffffffffff8082111562002af857600080fd5b62002b0689838a0162002a65565b9096509450604088013591508082111562002b2057600080fd5b5062002b2f8882890162002a65565b969995985093965092949392505050565b6020808252602c908201527f46756e6374696f6e206d7573742062652063616c6c6564207468726f7567682060408201526b19195b1959d85d1958d85b1b60a21b606082015260800190565b6020808252602c908201527f46756e6374696f6e206d7573742062652063616c6c6564207468726f7567682060408201526b6163746976652070726f787960a01b606082015260800190565b634e487b7160e01b600052603260045260246000fd5b60208082526025908201527f43616c6c6572206973206e6f74207468652072656769737472792c206e6f722060408201526437bbb732b960d91b606082015260800190565b634e487b7160e01b600052601160045260246000fd5b600081600019048311821515161562002c665762002c6662002c33565b500290565b60008262002c8957634e487b7160e01b600052601260045260246000fd5b500490565b60006020828403121562002ca157600080fd5b5051919050565b6000825162002cbc818460208701620027d8565b9190910192915050565b6001600160a01b0383168152604060208201819052600090620026e69083018462002807565b7f416363657373436f6e74726f6c3a206163636f756e742000000000000000000081526000835162002d26816017850160208801620027d8565b7001034b99036b4b9b9b4b733903937b6329607d1b601791840191820152835162002d59816028840160208801620027d8565b01602801949350505050565b805162001e168162002755565b60006020828403121562002d8557600080fd5b8151620025598162002755565b8051801515811462001e1657600080fd5b60006020828403121562002db657600080fd5b620025598262002d92565b600082601f83011262002dd357600080fd5b815162002de4620029da826200294e565b81815284602083860101111562002dfa57600080fd5b620026e6826020830160208701620027d8565b805167ffffffffffffffff8116811462001e1657600080fd5b60006020828403121562002e3957600080fd5b815167ffffffffffffffff8082111562002e5257600080fd5b90830190610180828603121562002e6857600080fd5b62002e72620028c6565b82518281111562002e8257600080fd5b62002e908782860162002dc1565b82525062002ea16020840162002e0d565b602082015262002eb46040840162002e0d565b60408201526060830151606082015262002ed16080840162002e0d565b608082015262002ee460a0840162002d92565b60a082015262002ef760c0840162002d92565b60c082015260e08301518281111562002f0f57600080fd5b62002f1d8782860162002dc1565b60e083015250610100808401518381111562002f3857600080fd5b62002f468882870162002dc1565b828401525050610120808401518381111562002f6157600080fd5b62002f6f8882870162002dc1565b828401525050610140808401518381111562002f8a57600080fd5b62002f988882870162002dc1565b828401525050610160808401518381111562002fb357600080fd5b62002fc18882870162002dc1565b918301919091525095945050505050565b60006020828403121562002fe557600080fd5b815167ffffffffffffffff8082111562002ffe57600080fd5b9083019061014082860312156200301457600080fd5b6200301e620028f3565b8251828111156200302e57600080fd5b6200303c8782860162002dc1565b8252506020830151828111156200305257600080fd5b620030608782860162002dc1565b6020830152506040830151828111156200307957600080fd5b620030878782860162002dc1565b604083015250606083015182811115620030a057600080fd5b620030ae8782860162002dc1565b606083015250608083015182811115620030c757600080fd5b620030d58782860162002dc1565b60808301525060a083015182811115620030ee57600080fd5b620030fc8782860162002dc1565b60a08301525060c0830151828111156200311557600080fd5b620031238782860162002dc1565b60c08301525060e0830151828111156200313c57600080fd5b6200314a8782860162002dc1565b60e08301525061010080840151838111156200316557600080fd5b620031738882870162002dc1565b82840152505061012091506200318b82840162002d65565b91810191909152949350505050565b6020808252602b908201527f496e697469616c697a61626c653a20636f6e7472616374206973206e6f74206960408201526a6e697469616c697a696e6760a81b606082015260800190565b600060018201620031fa57620031fa62002c33565b5060010190565b6000821982111562003217576200321762002c33565b500190565b6000816200322e576200322e62002c33565b50600019019056fe608060405260405161091438038061091483398101604081905261002291610463565b61002e82826000610035565b505061058d565b61003e83610100565b6040516001600160a01b038416907f1cf3b03a6cf19fa2baba4df148e9dcabedea7f8a5c07840e207e5c089be95d3e90600090a260008251118061007f5750805b156100fb576100f9836001600160a01b0316635c60da1b6040518163ffffffff1660e01b8152600401602060405180830381865afa1580156100c5573d6000803e3d6000fd5b505050506040513d601f19601f820116820180604052508101906100e99190610523565b836102a360201b6100291760201c565b505b505050565b610113816102cf60201b6100551760201c565b6101725760405162461bcd60e51b815260206004820152602560248201527f455243313936373a206e657720626561636f6e206973206e6f74206120636f6e6044820152641d1c9858dd60da1b60648201526084015b60405180910390fd5b6101e6816001600160a01b0316635c60da1b6040518163ffffffff1660e01b8152600401602060405180830381865afa1580156101b3573d6000803e3d6000fd5b505050506040513d601f19601f820116820180604052508101906101d79190610523565b6102cf60201b6100551760201c565b61024b5760405162461bcd60e51b815260206004820152603060248201527f455243313936373a20626561636f6e20696d706c656d656e746174696f6e206960448201526f1cc81b9bdd08184818dbdb9d1c9858dd60821b6064820152608401610169565b806102827fa3f0ad74e5423aebfd80d3ef4346578335a9a72aeaee59ff6cb3582b35133d5060001b6102de60201b6100641760201c565b80546001600160a01b0319166001600160a01b039290921691909117905550565b60606102c883836040518060600160405280602781526020016108ed602791396102e1565b9392505050565b6001600160a01b03163b151590565b90565b6060600080856001600160a01b0316856040516102fe919061053e565b600060405180830381855af49150503d8060008114610339576040519150601f19603f3d011682016040523d82523d6000602084013e61033e565b606091505b5090925090506103508683838761035a565b9695505050505050565b606083156103c95782516000036103c2576001600160a01b0385163b6103c25760405162461bcd60e51b815260206004820152601d60248201527f416464726573733a2063616c6c20746f206e6f6e2d636f6e74726163740000006044820152606401610169565b50816103d3565b6103d383836103db565b949350505050565b8151156103eb5781518083602001fd5b8060405162461bcd60e51b8152600401610169919061055a565b80516001600160a01b038116811461041c57600080fd5b919050565b634e487b7160e01b600052604160045260246000fd5b60005b8381101561045257818101518382015260200161043a565b838111156100f95750506000910152565b6000806040838503121561047657600080fd5b61047f83610405565b60208401519092506001600160401b038082111561049c57600080fd5b818501915085601f8301126104b057600080fd5b8151818111156104c2576104c2610421565b604051601f8201601f19908116603f011681019083821181831017156104ea576104ea610421565b8160405282815288602084870101111561050357600080fd5b610514836020830160208801610437565b80955050505050509250929050565b60006020828403121561053557600080fd5b6102c882610405565b60008251610550818460208701610437565b9190910192915050565b6020815260008251806020840152610579816040850160208701610437565b601f01601f19169190910160400192915050565b6103518061059c6000396000f3fe60806040523661001357610011610017565b005b6100115b610027610022610067565b610100565b565b606061004e83836040518060600160405280602781526020016102f560279139610124565b9392505050565b6001600160a01b03163b151590565b90565b600061009a7fa3f0ad74e5423aebfd80d3ef4346578335a9a72aeaee59ff6cb3582b35133d50546001600160a01b031690565b6001600160a01b0316635c60da1b6040518163ffffffff1660e01b8152600401602060405180830381865afa1580156100d7573d6000803e3d6000fd5b505050506040513d601f19601f820116820180604052508101906100fb919061024c565b905090565b3660008037600080366000845af43d6000803e80801561011f573d6000f35b3d6000fd5b6060600080856001600160a01b03168560405161014191906102a5565b600060405180830381855af49150503d806000811461017c576040519150601f19603f3d011682016040523d82523d6000602084013e610181565b606091505b50915091506101928683838761019c565b9695505050505050565b60608315610210578251600003610209576001600160a01b0385163b6102095760405162461bcd60e51b815260206004820152601d60248201527f416464726573733a2063616c6c20746f206e6f6e2d636f6e747261637400000060448201526064015b60405180910390fd5b508161021a565b61021a8383610222565b949350505050565b8151156102325781518083602001fd5b8060405162461bcd60e51b815260040161020091906102c1565b60006020828403121561025e57600080fd5b81516001600160a01b038116811461004e57600080fd5b60005b83811015610290578181015183820152602001610278565b8381111561029f576000848401525b50505050565b600082516102b7818460208701610275565b9190910192915050565b60208152600082518060208401526102e0816040850160208701610275565b601f01601f1916919091016040019291505056fe416464726573733a206c6f772d6c6576656c2064656c65676174652063616c6c206661696c6564a2646970667358221220fd6dcf7bdad344c5808a393df2d8f227f65f5566be38462668c83c5080ec904664736f6c634300080e0033416464726573733a206c6f772d6c6576656c2064656c65676174652063616c6c206661696c6564360894a13ba1a3210667c828492db98dca3e2076cc3735a920a3ca505d382bbc416464726573733a206c6f772d6c6576656c2064656c65676174652063616c6c206661696c6564696e697469616c697a6528737472696e672c737472696e672c75696e743235362c6164647265737329a26469706673582212205b94cbf1dba89339df3625757f43a3b30f2063160d3b3b7b082ab02693650a4d64736f6c634300080e0033",
  "devdoc": {
    "kind": "dev",
    "methods": {
      "deployFromVintage(uint256)": {
        "details": "Deploys a TCO2 contract based on a project vintage",
        "params": {
          "projectVintageTokenId": "numeric tokenId from vintage in `CarbonProjectVintages`"
        }
      },
      "getContracts()": {
        "details": "Returns all addresses of deployed TCO2 contracts"
      },
      "getRoleAdmin(bytes32)": {
        "details": "Returns the admin role that controls `role`. See {grantRole} and {revokeRole}. To change a role's admin, use {_setRoleAdmin}."
      },
      "grantRole(bytes32,address)": {
        "details": "Grants `role` to `account`. If `account` had not been already granted `role`, emits a {RoleGranted} event. Requirements: - the caller must have ``role``'s admin role. May emit a {RoleGranted} event."
      },
      "hasRole(bytes32,address)": {
        "details": "Returns `true` if `account` has been granted `role`."
      },
      "owner()": {
        "details": "Returns the address of the current owner."
      },
      "pause()": {
        "details": "wraps _pause(), only Admin"
      },
      "paused()": {
        "details": "Returns true if the contract is paused, and false otherwise."
      },
      "proxiableUUID()": {
        "details": "Implementation of the ERC1822 {proxiableUUID} function. This returns the storage slot used by the implementation. It is used to validate the implementation's compatibility when performing an upgrade. IMPORTANT: A proxy pointing at a proxiable contract should not be considered proxiable itself, because this risks bricking a proxy that upgrades to it, by delegating to itself until out of gas. Thus it is critical that this function revert if invoked through a proxy. This is guaranteed by the `notDelegated` modifier."
      },
      "renounceOwnership()": {
        "details": "Leaves the contract without owner. It will not be possible to call `onlyOwner` functions. Can only be called by the current owner. NOTE: Renouncing ownership will leave the contract without an owner, thereby disabling any functionality that is only available to the owner."
      },
      "renounceRole(bytes32,address)": {
        "details": "Revokes `role` from the calling account. Roles are often managed via {grantRole} and {revokeRole}: this function's purpose is to provide a mechanism for accounts to lose their privileges if they are compromised (such as when a trusted device is misplaced). If the calling account had been revoked `role`, emits a {RoleRevoked} event. Requirements: - the caller must be `account`. May emit a {RoleRevoked} event."
      },
      "revokeRole(bytes32,address)": {
        "details": "Revokes `role` from `account`. If `account` had been granted `role`, emits a {RoleRevoked} event. Requirements: - the caller must have ``role``'s admin role. May emit a {RoleRevoked} event."
      },
      "setBeacon(address)": {
        "details": "sets the Beacon that tracks the current implementation logic of the TCO2s"
      },
      "setBridgeFeeBurnAddress(address)": {
        "params": {
          "_bridgeFeeBurnAddress": "address to transfer the fees to burn"
        }
      },
      "setBridgeFeeBurnPercentage(uint256)": {
        "params": {
          "_bridgeFeeBurnPercentageInBase": "percentage of bridge fee in base"
        }
      },
      "setBridgeFeePercentage(uint256)": {
        "params": {
          "_bridgeFeePercentageInBase": "percentage of bridge fee in base"
        }
      },
      "setBridgeFeeReceiver(address)": {
        "params": {
          "_bridgeFeeReceiver": "address to transfer the fees"
        }
      },
      "setToucanContractRegistry(address)": {
        "details": "set the registry contract to be tracked"
      },
      "standardRegistry()": {
        "details": "this must be overridden in the child contract"
      },
      "supportsInterface(bytes4)": {
        "details": "See {IERC165-supportsInterface}."
      },
      "transferOwnership(address)": {
        "details": "Transfers ownership of the contract to a new account (`newOwner`). Can only be called by the current owner."
      },
      "unpause()": {
        "details": "unpause the system, wraps _unpause(), only Admin"
      },
      "upgradeTo(address)": {
        "custom:oz-upgrades-unsafe-allow-reachable": "delegatecall",
        "details": "Upgrade the implementation of the proxy to `newImplementation`. Calls {_authorizeUpgrade}. Emits an {Upgraded} event."
      },
      "upgradeToAndCall(address,bytes)": {
        "custom:oz-upgrades-unsafe-allow-reachable": "delegatecall",
        "details": "Upgrade the implementation of the proxy to `newImplementation`, and subsequently execute the function call encoded in `data`. Calls {_authorizeUpgrade}. Emits an {Upgraded} event."
      }
    },
    "stateVariables": {
      "VERSION": {
        "details": "Version-related parameters. VERSION keeps track of production releases. VERSION_RELEASE_CANDIDATE keeps track of iterations of a VERSION in our staging environment."
      }
    },
    "version": 1
  },
  "userdoc": {
    "kind": "user",
    "methods": {
      "addToAllowedBridges(address)": {
        "notice": "adds account to the allowedBridges list meant to be used only for cross-chain bridging"
      },
      "allowedBridges(address)": {
        "notice": "meant to be used only for cross-chain bridging"
      },
      "pause()": {
        "notice": "Emergency function to disable contract's core functionality"
      },
      "removeFromAllowedBridges(address)": {
        "notice": "removes account from the allowedBridges list meant to be used only for cross-chain bridging"
      },
      "setBridgeFeeBurnAddress(address)": {
        "notice": "Update the bridge fee burn address"
      },
      "setBridgeFeeBurnPercentage(uint256)": {
        "notice": "Update the bridge fee burning percentage"
      },
      "setBridgeFeePercentage(uint256)": {
        "notice": "Update the bridge fee percentage"
      },
      "setBridgeFeeReceiver(address)": {
        "notice": "Update the bridge fee receiver"
      },
      "standardRegistry()": {
        "notice": "Return the name of the registry that this factory is enabling to tokenize, eg., verra"
      },
      "supportedStandards()": {
        "notice": "Return the standard(s) supported by the carbon registry from where this factory tokenizes credits, eg., VCS It's important to satisfy this interface in order to ensure that TCO2 factories cannot create TCO2s for standards that the standard registry does not support"
      }
    },
    "notice": "This TCO2 factory creates project-vintage-specific ERC20 contracts for Batch-NFT fractionalization Locks in received ERC721 Batch-NFTs and can mint corresponding quantity of ERC20s Permissionless, anyone can deploy new ERC20s unless they do not yet exist and pid exists",
    "version": 1
  },
  "storageLayout": {
    "storage": [
      {
        "astId": 21043,
        "contract": "contracts/ToucanCarbonOffsetsFactory.sol:ToucanCarbonOffsetsFactory",
        "label": "contractRegistry",
        "offset": 0,
        "slot": "0",
        "type": "t_address"
      },
      {
        "astId": 21046,
        "contract": "contracts/ToucanCarbonOffsetsFactory.sol:ToucanCarbonOffsetsFactory",
        "label": "deployedContracts",
        "offset": 0,
        "slot": "1",
        "type": "t_array(t_address)dyn_storage"
      },
      {
        "astId": 21050,
        "contract": "contracts/ToucanCarbonOffsetsFactory.sol:ToucanCarbonOffsetsFactory",
        "label": "pvIdtoERC20",
        "offset": 0,
        "slot": "2",
        "type": "t_mapping(t_uint256,t_address)"
      },
      {
        "astId": 2373,
        "contract": "contracts/ToucanCarbonOffsetsFactory.sol:ToucanCarbonOffsetsFactory",
        "label": "_initialized",
        "offset": 0,
        "slot": "3",
        "type": "t_uint8"
      },
      {
        "astId": 2376,
        "contract": "contracts/ToucanCarbonOffsetsFactory.sol:ToucanCarbonOffsetsFactory",
        "label": "_initializing",
        "offset": 1,
        "slot": "3",
        "type": "t_bool"
      },
      {
        "astId": 7515,
        "contract": "contracts/ToucanCarbonOffsetsFactory.sol:ToucanCarbonOffsetsFactory",
        "label": "__gap",
        "offset": 0,
        "slot": "4",
        "type": "t_array(t_uint256)50_storage"
      },
      {
        "astId": 1879,
        "contract": "contracts/ToucanCarbonOffsetsFactory.sol:ToucanCarbonOffsetsFactory",
        "label": "_owner",
        "offset": 0,
        "slot": "54",
        "type": "t_address"
      },
      {
        "astId": 1999,
        "contract": "contracts/ToucanCarbonOffsetsFactory.sol:ToucanCarbonOffsetsFactory",
        "label": "__gap",
        "offset": 0,
        "slot": "55",
        "type": "t_array(t_uint256)49_storage"
      },
      {
        "astId": 2694,
        "contract": "contracts/ToucanCarbonOffsetsFactory.sol:ToucanCarbonOffsetsFactory",
        "label": "_paused",
        "offset": 0,
        "slot": "104",
        "type": "t_bool"
      },
      {
        "astId": 2799,
        "contract": "contracts/ToucanCarbonOffsetsFactory.sol:ToucanCarbonOffsetsFactory",
        "label": "__gap",
        "offset": 0,
        "slot": "105",
        "type": "t_array(t_uint256)49_storage"
      },
      {
        "astId": 2355,
        "contract": "contracts/ToucanCarbonOffsetsFactory.sol:ToucanCarbonOffsetsFactory",
        "label": "__gap",
        "offset": 0,
        "slot": "154",
        "type": "t_array(t_uint256)50_storage"
      },
      {
        "astId": 2671,
        "contract": "contracts/ToucanCarbonOffsetsFactory.sol:ToucanCarbonOffsetsFactory",
        "label": "__gap",
        "offset": 0,
        "slot": "204",
        "type": "t_array(t_uint256)50_storage"
      },
      {
        "astId": 21054,
        "contract": "contracts/ToucanCarbonOffsetsFactory.sol:ToucanCarbonOffsetsFactory",
        "label": "beacon",
        "offset": 0,
        "slot": "254",
        "type": "t_address"
      },
      {
        "astId": 21056,
        "contract": "contracts/ToucanCarbonOffsetsFactory.sol:ToucanCarbonOffsetsFactory",
        "label": "bridgeFeeReceiver",
        "offset": 0,
        "slot": "255",
        "type": "t_address"
      },
      {
        "astId": 21058,
        "contract": "contracts/ToucanCarbonOffsetsFactory.sol:ToucanCarbonOffsetsFactory",
        "label": "bridgeFeePercentageInBase",
        "offset": 0,
        "slot": "256",
        "type": "t_uint256"
      },
      {
        "astId": 21060,
        "contract": "contracts/ToucanCarbonOffsetsFactory.sol:ToucanCarbonOffsetsFactory",
        "label": "bridgeFeeBurnAddress",
        "offset": 0,
        "slot": "257",
        "type": "t_address"
      },
      {
        "astId": 21062,
        "contract": "contracts/ToucanCarbonOffsetsFactory.sol:ToucanCarbonOffsetsFactory",
        "label": "bridgeFeeBurnPercentageInBase",
        "offset": 0,
        "slot": "258",
        "type": "t_uint256"
      },
      {
        "astId": 21064,
        "contract": "contracts/ToucanCarbonOffsetsFactory.sol:ToucanCarbonOffsetsFactory",
        "label": "DEPRECATED_TotalRetired",
        "offset": 0,
        "slot": "259",
        "type": "t_uint256"
      },
      {
        "astId": 21071,
        "contract": "contracts/ToucanCarbonOffsetsFactory.sol:ToucanCarbonOffsetsFactory",
        "label": "allowedBridges",
        "offset": 0,
        "slot": "260",
        "type": "t_mapping(t_address,t_bool)"
      },
      {
        "astId": 21082,
        "contract": "contracts/ToucanCarbonOffsetsFactory.sol:ToucanCarbonOffsetsFactory",
        "label": "__gap",
        "offset": 0,
        "slot": "261",
        "type": "t_array(t_uint256)44_storage"
      },
      {
        "astId": 7899,
        "contract": "contracts/ToucanCarbonOffsetsFactory.sol:ToucanCarbonOffsetsFactory",
        "label": "__gap",
        "offset": 0,
        "slot": "305",
        "type": "t_array(t_uint256)50_storage"
      },
      {
        "astId": 1486,
        "contract": "contracts/ToucanCarbonOffsetsFactory.sol:ToucanCarbonOffsetsFactory",
        "label": "_roles",
        "offset": 0,
        "slot": "355",
        "type": "t_mapping(t_bytes32,t_struct(RoleData)1481_storage)"
      },
      {
        "astId": 1793,
        "contract": "contracts/ToucanCarbonOffsetsFactory.sol:ToucanCarbonOffsetsFactory",
        "label": "__gap",
        "offset": 0,
        "slot": "356",
        "type": "t_array(t_uint256)49_storage"
      }
    ],
    "types": {
      "t_address": {
        "encoding": "inplace",
        "label": "address",
        "numberOfBytes": "20"
      },
      "t_array(t_address)dyn_storage": {
        "base": "t_address",
        "encoding": "dynamic_array",
        "label": "address[]",
        "numberOfBytes": "32"
      },
      "t_array(t_uint256)44_storage": {
        "base": "t_uint256",
        "encoding": "inplace",
        "label": "uint256[44]",
        "numberOfBytes": "1408"
      },
      "t_array(t_uint256)49_storage": {
        "base": "t_uint256",
        "encoding": "inplace",
        "label": "uint256[49]",
        "numberOfBytes": "1568"
      },
      "t_array(t_uint256)50_storage": {
        "base": "t_uint256",
        "encoding": "inplace",
        "label": "uint256[50]",
        "numberOfBytes": "1600"
      },
      "t_bool": {
        "encoding": "inplace",
        "label": "bool",
        "numberOfBytes": "1"
      },
      "t_bytes32": {
        "encoding": "inplace",
        "label": "bytes32",
        "numberOfBytes": "32"
      },
      "t_mapping(t_address,t_bool)": {
        "encoding": "mapping",
        "key": "t_address",
        "label": "mapping(address => bool)",
        "numberOfBytes": "32",
        "value": "t_bool"
      },
      "t_mapping(t_bytes32,t_struct(RoleData)1481_storage)": {
        "encoding": "mapping",
        "key": "t_bytes32",
        "label": "mapping(bytes32 => struct AccessControlUpgradeable.RoleData)",
        "numberOfBytes": "32",
        "value": "t_struct(RoleData)1481_storage"
      },
      "t_mapping(t_uint256,t_address)": {
        "encoding": "mapping",
        "key": "t_uint256",
        "label": "mapping(uint256 => address)",
        "numberOfBytes": "32",
        "value": "t_address"
      },
      "t_struct(RoleData)1481_storage": {
        "encoding": "inplace",
        "label": "struct AccessControlUpgradeable.RoleData",
        "members": [
          {
            "astId": 1478,
            "contract": "contracts/ToucanCarbonOffsetsFactory.sol:ToucanCarbonOffsetsFactory",
            "label": "members",
            "offset": 0,
            "slot": "0",
            "type": "t_mapping(t_address,t_bool)"
          },
          {
            "astId": 1480,
            "contract": "contracts/ToucanCarbonOffsetsFactory.sol:ToucanCarbonOffsetsFactory",
            "label": "adminRole",
            "offset": 0,
            "slot": "1",
            "type": "t_bytes32"
          }
        ],
        "numberOfBytes": "64"
      },
      "t_uint256": {
        "encoding": "inplace",
        "label": "uint256",
        "numberOfBytes": "32"
      },
      "t_uint8": {
        "encoding": "inplace",
        "label": "uint8",
        "numberOfBytes": "1"
      }
    }
  }
}