{
  "address": "0x1A481A4fC4e6CFBf650f8e7B5ed5927aef3619e9",
  "abi": [
    {
      "inputs": [],
      "stateMutability": "nonpayable",
      "type": "constructor"
    },
    {
      "anonymous": false,
      "inputs": [
        {
          "indexed": false,
          "internalType": "address",
          "name": "previousAdmin",
          "type": "address"
        },
        {
          "indexed": false,
          "internalType": "address",
          "name": "newAdmin",
          "type": "address"
        }
      ],
      "name": "AdminChanged",
      "type": "event"
    },
    {
      "anonymous": false,
      "inputs": [
        {
          "indexed": true,
          "internalType": "address",
          "name": "beacon",
          "type": "address"
        }
      ],
      "name": "BeaconUpgraded",
      "type": "event"
    },
    {
      "anonymous": false,
      "inputs": [
        {
          "indexed": false,
          "internalType": "address",
          "name": "contractRegistry",
          "type": "address"
        }
      ],
      "name": "ContractRegistryUpdated",
      "type": "event"
    },
    {
      "anonymous": false,
      "inputs": [
        {
          "indexed": false,
          "internalType": "uint8",
          "name": "version",
          "type": "uint8"
        }
      ],
      "name": "Initialized",
      "type": "event"
    },
    {
      "anonymous": false,
      "inputs": [
        {
          "indexed": true,
          "internalType": "address",
          "name": "previousOwner",
          "type": "address"
        },
        {
          "indexed": true,
          "internalType": "address",
          "name": "newOwner",
          "type": "address"
        }
      ],
      "name": "OwnershipTransferred",
      "type": "event"
    },
    {
      "anonymous": false,
      "inputs": [
        {
          "indexed": false,
          "internalType": "address",
          "name": "account",
          "type": "address"
        }
      ],
      "name": "Paused",
      "type": "event"
    },
    {
      "anonymous": false,
      "inputs": [
        {
          "indexed": true,
          "internalType": "bytes32",
          "name": "role",
          "type": "bytes32"
        },
        {
          "indexed": true,
          "internalType": "bytes32",
          "name": "previousAdminRole",
          "type": "bytes32"
        },
        {
          "indexed": true,
          "internalType": "bytes32",
          "name": "newAdminRole",
          "type": "bytes32"
        }
      ],
      "name": "RoleAdminChanged",
      "type": "event"
    },
    {
      "anonymous": false,
      "inputs": [
        {
          "indexed": true,
          "internalType": "bytes32",
          "name": "role",
          "type": "bytes32"
        },
        {
          "indexed": true,
          "internalType": "address",
          "name": "account",
          "type": "address"
        },
        {
          "indexed": true,
          "internalType": "address",
          "name": "sender",
          "type": "address"
        }
      ],
      "name": "RoleGranted",
      "type": "event"
    },
    {
      "anonymous": false,
      "inputs": [
        {
          "indexed": true,
          "internalType": "bytes32",
          "name": "role",
          "type": "bytes32"
        },
        {
          "indexed": true,
          "internalType": "address",
          "name": "account",
          "type": "address"
        },
        {
          "indexed": true,
          "internalType": "address",
          "name": "sender",
          "type": "address"
        }
      ],
      "name": "RoleRevoked",
      "type": "event"
    },
    {
      "anonymous": false,
      "inputs": [
        {
          "indexed": false,
          "internalType": "address",
          "name": "account",
          "type": "address"
        }
      ],
      "name": "Unpaused",
      "type": "event"
    },
    {
      "anonymous": false,
      "inputs": [
        {
          "indexed": true,
          "internalType": "address",
          "name": "implementation",
          "type": "address"
        }
      ],
      "name": "Upgraded",
      "type": "event"
    },
    {
      "inputs": [],
      "name": "DEFAULT_ADMIN_ROLE",
      "outputs": [
        {
          "internalType": "bytes32",
          "name": "",
          "type": "bytes32"
        }
      ],
      "stateMutability": "view",
      "type": "function"
    },
    {
      "inputs": [],
      "name": "PAUSER_ROLE",
      "outputs": [
        {
          "internalType": "bytes32",
          "name": "",
          "type": "bytes32"
        }
      ],
      "stateMutability": "view",
      "type": "function"
    },
    {
      "inputs": [],
      "name": "VERSION",
      "outputs": [
        {
          "internalType": "string",
          "name": "",
          "type": "string"
        }
      ],
      "stateMutability": "view",
      "type": "function"
    },
    {
      "inputs": [],
      "name": "VERSION_RELEASE_CANDIDATE",
      "outputs": [
        {
          "internalType": "uint256",
          "name": "",
          "type": "uint256"
        }
      ],
      "stateMutability": "view",
      "type": "function"
    },
    {
      "inputs": [],
      "name": "contractRegistry",
      "outputs": [
        {
          "internalType": "address",
          "name": "",
          "type": "address"
        }
      ],
      "stateMutability": "view",
      "type": "function"
    },
    {
      "inputs": [
        {
          "internalType": "address",
          "name": "user",
          "type": "address"
        },
        {
          "internalType": "uint256",
          "name": "amount",
          "type": "uint256"
        },
        {
          "internalType": "uint256[]",
          "name": "batchTokenIds",
          "type": "uint256[]"
        }
      ],
      "name": "createDetokenizationRequest",
      "outputs": [
        {
          "internalType": "uint256",
          "name": "",
          "type": "uint256"
        }
      ],
      "stateMutability": "nonpayable",
      "type": "function"
    },
    {
      "inputs": [
        {
          "internalType": "address",
          "name": "user",
          "type": "address"
        },
        {
          "components": [
            {
              "internalType": "uint256[]",
              "name": "tokenIds",
              "type": "uint256[]"
            },
            {
              "internalType": "uint256",
              "name": "amount",
              "type": "uint256"
            },
            {
              "internalType": "string",
              "name": "retiringEntityString",
              "type": "string"
            },
            {
              "internalType": "address",
              "name": "beneficiary",
              "type": "address"
            },
            {
              "internalType": "string",
              "name": "beneficiaryString",
              "type": "string"
            },
            {
              "internalType": "string",
              "name": "retirementMessage",
              "type": "string"
            },
            {
              "internalType": "string",
              "name": "beneficiaryLocation",
              "type": "string"
            },
            {
              "internalType": "string",
              "name": "consumptionCountryCode",
              "type": "string"
            },
            {
              "internalType": "uint256",
              "name": "consumptionPeriodStart",
              "type": "uint256"
            },
            {
              "internalType": "uint256",
              "name": "consumptionPeriodEnd",
              "type": "uint256"
            }
          ],
          "internalType": "struct CreateRetirementRequestParams",
          "name": "params",
          "type": "tuple"
        }
      ],
      "name": "createRetirementRequest",
      "outputs": [
        {
          "internalType": "uint256",
          "name": "requestId",
          "type": "uint256"
        }
      ],
      "stateMutability": "nonpayable",
      "type": "function"
    },
    {
      "inputs": [],
      "name": "detokenizationRequestIdCounter",
      "outputs": [
        {
          "internalType": "uint256",
          "name": "",
          "type": "uint256"
        }
      ],
      "stateMutability": "view",
      "type": "function"
    },
    {
      "inputs": [
        {
          "internalType": "uint256",
          "name": "requestId",
          "type": "uint256"
        }
      ],
      "name": "detokenizationRequests",
      "outputs": [
        {
          "components": [
            {
              "internalType": "address",
              "name": "user",
              "type": "address"
            },
            {
              "internalType": "uint256",
              "name": "amount",
              "type": "uint256"
            },
            {
              "internalType": "enum RequestStatus",
              "name": "status",
              "type": "uint8"
            },
            {
              "internalType": "uint256[]",
              "name": "batchTokenIds",
              "type": "uint256[]"
            },
            {
              "internalType": "uint256",
              "name": "projectVintageTokenId",
              "type": "uint256"
            }
          ],
          "internalType": "struct DetokenizationRequest",
          "name": "",
          "type": "tuple"
        }
      ],
      "stateMutability": "view",
      "type": "function"
    },
    {
      "inputs": [
        {
          "internalType": "uint256",
          "name": "requestId",
          "type": "uint256"
        }
      ],
      "name": "finalizeDetokenizationRequest",
      "outputs": [],
      "stateMutability": "nonpayable",
      "type": "function"
    },
    {
      "inputs": [
        {
          "internalType": "uint256",
          "name": "requestId",
          "type": "uint256"
        }
      ],
      "name": "finalizeRetirementRequest",
      "outputs": [],
      "stateMutability": "nonpayable",
      "type": "function"
    },
    {
      "inputs": [
        {
          "internalType": "bytes32",
          "name": "role",
          "type": "bytes32"
        }
      ],
      "name": "getRoleAdmin",
      "outputs": [
        {
          "internalType": "bytes32",
          "name": "",
          "type": "bytes32"
        }
      ],
      "stateMutability": "view",
      "type": "function"
    },
    {
      "inputs": [
        {
          "internalType": "bytes32",
          "name": "role",
          "type": "bytes32"
        },
        {
          "internalType": "address",
          "name": "account",
          "type": "address"
        }
      ],
      "name": "grantRole",
      "outputs": [],
      "stateMutability": "nonpayable",
      "type": "function"
    },
    {
      "inputs": [
        {
          "internalType": "bytes32",
          "name": "role",
          "type": "bytes32"
        },
        {
          "internalType": "address",
          "name": "account",
          "type": "address"
        }
      ],
      "name": "hasRole",
      "outputs": [
        {
          "internalType": "bool",
          "name": "",
          "type": "bool"
        }
      ],
      "stateMutability": "view",
      "type": "function"
    },
    {
      "inputs": [
        {
          "internalType": "address",
          "name": "_contractRegistry",
          "type": "address"
        },
        {
          "internalType": "address[]",
          "name": "_accounts",
          "type": "address[]"
        },
        {
          "internalType": "bytes32[]",
          "name": "_roles",
          "type": "bytes32[]"
        }
      ],
      "name": "initialize",
      "outputs": [],
      "stateMutability": "nonpayable",
      "type": "function"
    },
    {
      "inputs": [],
      "name": "owner",
      "outputs": [
        {
          "internalType": "address",
          "name": "",
          "type": "address"
        }
      ],
      "stateMutability": "view",
      "type": "function"
    },
    {
      "inputs": [],
      "name": "pause",
      "outputs": [],
      "stateMutability": "nonpayable",
      "type": "function"
    },
    {
      "inputs": [],
      "name": "paused",
      "outputs": [
        {
          "internalType": "bool",
          "name": "",
          "type": "bool"
        }
      ],
      "stateMutability": "view",
      "type": "function"
    },
    {
      "inputs": [],
      "name": "proxiableUUID",
      "outputs": [
        {
          "internalType": "bytes32",
          "name": "",
          "type": "bytes32"
        }
      ],
      "stateMutability": "view",
      "type": "function"
    },
    {
      "inputs": [],
      "name": "renounceOwnership",
      "outputs": [],
      "stateMutability": "nonpayable",
      "type": "function"
    },
    {
      "inputs": [
        {
          "internalType": "bytes32",
          "name": "role",
          "type": "bytes32"
        },
        {
          "internalType": "address",
          "name": "account",
          "type": "address"
        }
      ],
      "name": "renounceRole",
      "outputs": [],
      "stateMutability": "nonpayable",
      "type": "function"
    },
    {
      "inputs": [],
      "name": "retirementRequestIdCounter",
      "outputs": [
        {
          "internalType": "uint256",
          "name": "",
          "type": "uint256"
        }
      ],
      "stateMutability": "view",
      "type": "function"
    },
    {
      "inputs": [
        {
          "internalType": "uint256",
          "name": "requestId",
          "type": "uint256"
        }
      ],
      "name": "retirementRequests",
      "outputs": [
        {
          "components": [
            {
              "internalType": "address",
              "name": "user",
              "type": "address"
            },
            {
              "internalType": "uint256",
              "name": "amount",
              "type": "uint256"
            },
            {
              "internalType": "enum RequestStatus",
              "name": "status",
              "type": "uint8"
            },
            {
              "internalType": "uint256[]",
              "name": "batchTokenIds",
              "type": "uint256[]"
            },
            {
              "internalType": "string",
              "name": "retiringEntityString",
              "type": "string"
            },
            {
              "internalType": "address",
              "name": "beneficiary",
              "type": "address"
            },
            {
              "internalType": "string",
              "name": "beneficiaryString",
              "type": "string"
            },
            {
              "internalType": "string",
              "name": "retirementMessage",
              "type": "string"
            },
            {
              "internalType": "string",
              "name": "beneficiaryLocation",
              "type": "string"
            },
            {
              "internalType": "string",
              "name": "consumptionCountryCode",
              "type": "string"
            },
            {
              "internalType": "uint256",
              "name": "consumptionPeriodStart",
              "type": "uint256"
            },
            {
              "internalType": "uint256",
              "name": "consumptionPeriodEnd",
              "type": "uint256"
            },
            {
              "internalType": "uint256",
              "name": "projectVintageTokenId",
              "type": "uint256"
            }
          ],
          "internalType": "struct RetirementRequest",
          "name": "",
          "type": "tuple"
        }
      ],
      "stateMutability": "view",
      "type": "function"
    },
    {
      "inputs": [
        {
          "internalType": "uint256",
          "name": "requestId",
          "type": "uint256"
        }
      ],
      "name": "revertDetokenizationRequest",
      "outputs": [],
      "stateMutability": "nonpayable",
      "type": "function"
    },
    {
      "inputs": [
        {
          "internalType": "uint256",
          "name": "requestId",
          "type": "uint256"
        }
      ],
      "name": "revertRetirementRequest",
      "outputs": [],
      "stateMutability": "nonpayable",
      "type": "function"
    },
    {
      "inputs": [
        {
          "internalType": "bytes32",
          "name": "role",
          "type": "bytes32"
        },
        {
          "internalType": "address",
          "name": "account",
          "type": "address"
        }
      ],
      "name": "revokeRole",
      "outputs": [],
      "stateMutability": "nonpayable",
      "type": "function"
    },
    {
      "inputs": [
        {
          "internalType": "address",
          "name": "_address",
          "type": "address"
        }
      ],
      "name": "setToucanContractRegistry",
      "outputs": [],
      "stateMutability": "nonpayable",
      "type": "function"
    },
    {
      "inputs": [
        {
          "internalType": "string",
          "name": "serialNumber",
          "type": "string"
        },
        {
          "internalType": "uint256",
          "name": "amount",
          "type": "uint256"
        }
      ],
      "name": "splitSerialNumber",
      "outputs": [
        {
          "internalType": "string",
          "name": "balancingSerialNumber",
          "type": "string"
        },
        {
          "internalType": "string",
          "name": "remainingSerialNumber",
          "type": "string"
        }
      ],
      "stateMutability": "pure",
      "type": "function"
    },
    {
      "inputs": [
        {
          "internalType": "bytes4",
          "name": "interfaceId",
          "type": "bytes4"
        }
      ],
      "name": "supportsInterface",
      "outputs": [
        {
          "internalType": "bool",
          "name": "",
          "type": "bool"
        }
      ],
      "stateMutability": "view",
      "type": "function"
    },
    {
      "inputs": [
        {
          "internalType": "address",
          "name": "newOwner",
          "type": "address"
        }
      ],
      "name": "transferOwnership",
      "outputs": [],
      "stateMutability": "nonpayable",
      "type": "function"
    },
    {
      "inputs": [],
      "name": "unpause",
      "outputs": [],
      "stateMutability": "nonpayable",
      "type": "function"
    },
    {
      "inputs": [
        {
          "internalType": "address",
          "name": "newImplementation",
          "type": "address"
        }
      ],
      "name": "upgradeTo",
      "outputs": [],
      "stateMutability": "nonpayable",
      "type": "function"
    },
    {
      "inputs": [
        {
          "internalType": "address",
          "name": "newImplementation",
          "type": "address"
        },
        {
          "internalType": "bytes",
          "name": "data",
          "type": "bytes"
        }
      ],
      "name": "upgradeToAndCall",
      "outputs": [],
      "stateMutability": "payable",
      "type": "function"
    }
  ],
  "numDeployments": 2,
  "solcInputHash": "db59f6786687067a0d1a67c2b75792f5",
  "bytecode": "0x60a0604052306080523480156200001557600080fd5b506200002062000026565b62000156565b6200003260ff62000035565b50565b60008054610100900460ff1615620000ce578160ff1660011480156200006e57506200006c306200014760201b620020871760201c565b155b620000c65760405162461bcd60e51b815260206004820152602e60248201526000805160206200542c83398151915260448201526d191e481a5b9a5d1a585b1a5e995960921b60648201526084015b60405180910390fd5b506000919050565b60005460ff8084169116106200012d5760405162461bcd60e51b815260206004820152602e60248201526000805160206200542c83398151915260448201526d191e481a5b9a5d1a585b1a5e995960921b6064820152608401620000bd565b506000805460ff191660ff92909216919091179055600190565b6001600160a01b03163b151590565b60805161529e6200018e6000396000818161073c0152818161077c01528181610873015281816108b30152610942015261529e6000f3fe6080604052600436106101ee5760003560e01c80638456cb591161010d578063c346a8bf116100a0578063ea158df81161006f578063ea158df81461058f578063ebe5b460146105af578063f2fde38b146105cf578063f8d8353f146105ef578063ffa1ad741461060f57600080fd5b8063c346a8bf146104fb578063d547741f1461051b578063e63ab1e91461053b578063e882e37b1461056f57600080fd5b806392ad01fd116100dc57806392ad01fd14610485578063a217fddf146104a5578063abf410e5146104ba578063aeb2d230146104db57600080fd5b80638456cb59146103fe578063862943a0146104135780638da5cb5b1461043357806391d148541461046557600080fd5b806352d1902d1161018557806369514ebe1161015457806369514ebe146103905780636ca0b0d7146103a7578063715018a6146103bc57806379c20aaa146103d157600080fd5b806352d1902d1461031f5780635860ef5d1461033457806359ad0a0a146103615780635c975abb1461037857600080fd5b80633659cfe6116101c15780633659cfe6146102a95780633f4ba83a146102c95780634e395ea8146102de5780634f1ef2861461030c57600080fd5b806301ffc9a7146101f3578063248a9ca3146102285780632f2ff15d1461026757806336568abe14610289575b600080fd5b3480156101ff57600080fd5b5061021361020e366004614419565b61064d565b60405190151581526020015b60405180910390f35b34801561023457600080fd5b50610259610243366004614443565b600090815261012d602052604090206001015490565b60405190815260200161021f565b34801561027357600080fd5b50610287610282366004614471565b610684565b005b34801561029557600080fd5b506102876102a4366004614471565b6106af565b3480156102b557600080fd5b506102876102c43660046144a1565b610732565b3480156102d557600080fd5b50610287610811565b3480156102ea57600080fd5b506102fe6102f9366004614569565b610843565b60405161021f929190614619565b61028761031a36600461463e565b610869565b34801561032b57600080fd5b50610259610935565b34801561034057600080fd5b5061035461034f366004614443565b6109e8565b60405161021f9190614706565b34801561036d57600080fd5b506102596101605481565b34801561038457600080fd5b5060655460ff16610213565b34801561039c57600080fd5b506102596101625481565b3480156103b357600080fd5b50610259600181565b3480156103c857600080fd5b50610287610adf565b3480156103dd57600080fd5b506103f16103ec366004614443565b610b15565b60405161021f9190614767565b34801561040a57600080fd5b50610287610f62565b34801561041f57600080fd5b5061028761042e366004614443565b610f94565b34801561043f57600080fd5b506033546001600160a01b03165b6040516001600160a01b03909116815260200161021f565b34801561047157600080fd5b50610213610480366004614471565b6110f4565b34801561049157600080fd5b506102876104a0366004614443565b611120565b3480156104b157600080fd5b50610259600081565b3480156104c657600080fd5b5061015f5461044d906001600160a01b031681565b3480156104e757600080fd5b506102596104f63660046148a0565b611635565b34801561050757600080fd5b50610259610516366004614930565b611a84565b34801561052757600080fd5b50610287610536366004614471565b611c4e565b34801561054757600080fd5b506102597f65d7a28e3265b37a6474929f336521b332c1681b933f6cb9f3376673440d862a81565b34801561057b57600080fd5b5061028761058a3660046144a1565b611c74565b34801561059b57600080fd5b506102876105aa366004614443565b611cf3565b3480156105bb57600080fd5b506102876105ca366004614443565b611d91565b3480156105db57600080fd5b506102876105ea3660046144a1565b611f07565b3480156105fb57600080fd5b5061028761060a36600461498b565b611f9f565b34801561061b57600080fd5b50610640604051806040016040528060058152602001640312e332e360dc1b81525081565b60405161021f9190614a0d565b60006001600160e01b03198216637965db0b60e01b148061067e57506301ffc9a760e01b6001600160e01b03198316145b92915050565b600082815261012d60205260409020600101546106a081612096565b6106aa83836120a0565b505050565b6001600160a01b03811633146107245760405162461bcd60e51b815260206004820152602f60248201527f416363657373436f6e74726f6c3a2063616e206f6e6c792072656e6f756e636560448201526e103937b632b9903337b91039b2b63360891b60648201526084015b60405180910390fd5b61072e8282612127565b5050565b6001600160a01b037f000000000000000000000000000000000000000000000000000000000000000016300361077a5760405162461bcd60e51b815260040161071b90614a20565b7f00000000000000000000000000000000000000000000000000000000000000006001600160a01b03166107c3600080516020615222833981519152546001600160a01b031690565b6001600160a01b0316146107e95760405162461bcd60e51b815260040161071b90614a6c565b6107f28161218f565b6040805160008082526020820190925261080e918391906121b9565b50565b7f65d7a28e3265b37a6474929f336521b332c1681b933f6cb9f3376673440d862a61083b81612096565b61080e612324565b6060806000610851856123b7565b905061085d8185612405565b90969095509350505050565b6001600160a01b037f00000000000000000000000000000000000000000000000000000000000000001630036108b15760405162461bcd60e51b815260040161071b90614a20565b7f00000000000000000000000000000000000000000000000000000000000000006001600160a01b03166108fa600080516020615222833981519152546001600160a01b031690565b6001600160a01b0316146109205760405162461bcd60e51b815260040161071b90614a6c565b6109298261218f565b61072e828260016121b9565b6000306001600160a01b037f000000000000000000000000000000000000000000000000000000000000000016146109d55760405162461bcd60e51b815260206004820152603860248201527f555550535570677261646561626c653a206d757374206e6f742062652063616c60448201527f6c6564207468726f7567682064656c656761746563616c6c0000000000000000606482015260840161071b565b5060008051602061522283398151915290565b6040805160a0808201835260008083526020808401829052838501829052606080850152608084018290528582526101618152908490208451928301855280546001600160a01b0316835260018101549183019190915260028082015493949293919284019160ff1690811115610a6157610a616146a1565b6002811115610a7257610a726146a1565b815260200160038201805480602002602001604051908101604052809291908181526020018280548015610ac557602002820191906000526020600020905b815481526020019060010190808311610ab1575b505050505081526020016004820154815250509050919050565b6033546001600160a01b03163314610b095760405162461bcd60e51b815260040161071b90614ab8565b610b13600061243e565b565b610b89604080516101a08101825260008082526020820181905290918201908152602001606081526020016060815260200160006001600160a01b03168152602001606081526020016060815260200160608152602001606081526020016000815260200160008152602001600081525090565b6000828152610163602090815260409182902082516101a08101845281546001600160a01b03168152600182015492810192909252600280820154929391929184019160ff1690811115610bdf57610bdf6146a1565b6002811115610bf057610bf06146a1565b815260200160038201805480602002602001604051908101604052809291908181526020018280548015610c4357602002820191906000526020600020905b815481526020019060010190808311610c2f575b50505050508152602001600482018054610c5c90614aed565b80601f0160208091040260200160405190810160405280929190818152602001828054610c8890614aed565b8015610cd55780601f10610caa57610100808354040283529160200191610cd5565b820191906000526020600020905b815481529060010190602001808311610cb857829003601f168201915b505050918352505060058201546001600160a01b03166020820152600682018054604090920191610d0590614aed565b80601f0160208091040260200160405190810160405280929190818152602001828054610d3190614aed565b8015610d7e5780601f10610d5357610100808354040283529160200191610d7e565b820191906000526020600020905b815481529060010190602001808311610d6157829003601f168201915b50505050508152602001600782018054610d9790614aed565b80601f0160208091040260200160405190810160405280929190818152602001828054610dc390614aed565b8015610e105780601f10610de557610100808354040283529160200191610e10565b820191906000526020600020905b815481529060010190602001808311610df357829003601f168201915b50505050508152602001600882018054610e2990614aed565b80601f0160208091040260200160405190810160405280929190818152602001828054610e5590614aed565b8015610ea25780601f10610e7757610100808354040283529160200191610ea2565b820191906000526020600020905b815481529060010190602001808311610e8557829003601f168201915b50505050508152602001600982018054610ebb90614aed565b80601f0160208091040260200160405190810160405280929190818152602001828054610ee790614aed565b8015610f345780601f10610f0957610100808354040283529160200191610f34565b820191906000526020600020905b815481529060010190602001808311610f1757829003601f168201915b50505050508152602001600a8201548152602001600b8201548152602001600c820154815250509050919050565b7f65d7a28e3265b37a6474929f336521b332c1681b933f6cb9f3376673440d862a610f8c81612096565b61080e612490565b61015f54604051633a37b16d60e11b81523360048201526001600160a01b039091169063746f62da90602401602060405180830381865afa158015610fdd573d6000803e3d6000fd5b505050506040513d601f19601f820116820180604052508101906110019190614b27565b61101d5760405162461bcd60e51b815260040161071b90614b49565b600081815261016360205260408120905b60028083015460ff1690811115611047576110476146a1565b146110645760405162461bcd60e51b815260040161071b90614b6b565b6002818101805460ff191660018302179055506110d4816003018054806020026020016040519081016040528092919081815260200182805480156110c857602002820191906000526020600020905b8154815260200190600101908083116110b4575b5050505050600261250b565b50508054600182015461072e9133916001600160a01b0390911690612653565b600091825261012d602090815260408084206001600160a01b0393909316845291905290205460ff1690565b61015f54604051633a37b16d60e11b81523360048201526001600160a01b039091169063746f62da90602401602060405180830381865afa158015611169573d6000803e3d6000fd5b505050506040513d601f19601f8201168201806040525081019061118d9190614b27565b6111a95760405162461bcd60e51b815260040161071b90614b49565b6000818152610163602052604081209060028083015460ff16908111156111d2576111d26146a1565b146111ef5760405162461bcd60e51b815260040161071b90614b6b565b60028101805460ff191660011790556003810180546040805160208084028201810190925282815261125a939092909183018282801561124e57602002820191906000526020600020905b81548152602001906001019080831161123a575b5050505050600661250b565b5050604080516003830180546101606020820284018101909452610140830181815260009484939192908401828280156112b357602002820191906000526020600020905b81548152602001906001019080831161129f575b50505050508152602001836001015481526020018360040180546112d690614aed565b80601f016020809104026020016040519081016040528092919081815260200182805461130290614aed565b801561134f5780601f106113245761010080835404028352916020019161134f565b820191906000526020600020905b81548152906001019060200180831161133257829003601f168201915b505050918352505060058401546001600160a01b0316602082015260068401805460409092019161137f90614aed565b80601f01602080910402602001604051908101604052809291908181526020018280546113ab90614aed565b80156113f85780601f106113cd576101008083540402835291602001916113f8565b820191906000526020600020905b8154815290600101906020018083116113db57829003601f168201915b5050505050815260200183600701805461141190614aed565b80601f016020809104026020016040519081016040528092919081815260200182805461143d90614aed565b801561148a5780601f1061145f5761010080835404028352916020019161148a565b820191906000526020600020905b81548152906001019060200180831161146d57829003601f168201915b505050505081526020018360080180546114a390614aed565b80601f01602080910402602001604051908101604052809291908181526020018280546114cf90614aed565b801561151c5780601f106114f15761010080835404028352916020019161151c565b820191906000526020600020905b8154815290600101906020018083116114ff57829003601f168201915b5050505050815260200183600901805461153590614aed565b80601f016020809104026020016040519081016040528092919081815260200182805461156190614aed565b80156115ae5780601f10611583576101008083540402835291602001916115ae565b820191906000526020600020905b81548152906001019060200180831161159157829003601f168201915b5050509183525050600a8401546020820152600b840154604091820152835490516333a373df60e11b81529192503391636746e7be916115fe916001600160a01b03909116908590600401614b98565b600060405180830381600087803b15801561161857600080fd5b505af115801561162c573d6000803e3d6000fd5b50505050505050565b61015f54604051633a37b16d60e11b81523360048201526000916001600160a01b03169063746f62da90602401602060405180830381865afa15801561167f573d6000803e3d6000fd5b505050506040513d601f19601f820116820180604052508101906116a39190614b27565b6116bf5760405162461bcd60e51b815260040161071b90614b49565b506101628054600101908190556116e560208301356116de8480614ca4565b60056126b6565b600061173060208401356116f98580614ca4565b808060200260200160405190810160405280939291908181526020018383602002808284376000920191909152506127ab92505050565b9050600061173d336128e1565b604080516101a0810182526001600160a01b0388168152602087810135908201529192508101600081526020018381526020018580604001906117809190614ced565b8080601f0160208091040260200160405190810160405280939291908181526020018383808284376000920191909152505050908252506020016117ca60808701606088016144a1565b6001600160a01b031681526020016117e56080870187614ced565b8080601f01602080910402602001604051908101604052809392919081815260200183838082843760009201919091525050509082525060200161182c60a0870187614ced565b8080601f01602080910402602001604051908101604052809392919081815260200183838082843760009201919091525050509082525060200161187360c0870187614ced565b8080601f0160208091040260200160405190810160405280939291908181526020018383808284376000920191909152505050908252506020016118ba60e0870187614ced565b8080601f01602080910402602001604051908101604052809392919081815260200183838082843760009201829052509385525050506101008701356020808401919091526101208801356040808501919091526060909301859052868252610163815290829020835181546001600160a01b0319166001600160a01b0390911617815590830151600180830191909155918301516002808301805493949293909260ff19909116918490811115611974576119746146a1565b021790555060608201518051611994916003840191602090910190614310565b50608082015180516119b091600484019160209091019061435b565b5060a08201516005820180546001600160a01b0319166001600160a01b0390921691909117905560c082015180516119f291600684019160209091019061435b565b5060e08201518051611a0e91600784019160209091019061435b565b506101008201518051611a2b91600884019160209091019061435b565b506101208201518051611a4891600984019160209091019061435b565b50610140820151600a820155610160820151600b82015561018090910151600c90910155611a7c3386306020880135612945565b505092915050565b61015f54604051633a37b16d60e11b81523360048201526000916001600160a01b03169063746f62da90602401602060405180830381865afa158015611ace573d6000803e3d6000fd5b505050506040513d601f19601f82011682018060405250810190611af29190614b27565b611b0e5760405162461bcd60e51b815260040161071b90614b49565b610160805460010190819055611b2785858560036126b6565b6000611b66868686808060200260200160405190810160405280939291908181526020018383602002808284376000920191909152506127ab92505050565b90506000611b73336128e1565b6040805160a0810182526001600160a01b038b168152602081018a90529192508101600081526020808201859052604091820184905260008681526101618252829020835181546001600160a01b0319166001600160a01b0390911617815590830151600180830191909155918301516002808301805493949293909260ff19909116918490811115611c0857611c086146a1565b021790555060608201518051611c28916003840191602090910190614310565b5060809190910151600490910155611c423389308a612945565b50909695505050505050565b600082815261012d6020526040902060010154611c6a81612096565b6106aa8383612127565b6033546001600160a01b03163314611c9e5760405162461bcd60e51b815260040161071b90614ab8565b61015f80546001600160a01b0319166001600160a01b0383169081179091556040519081527fb3a6e7c81ebdb0cf9bf28d5ddf6678ded8d73b44f2eee06ca3974dbb9f41ce7e9060200160405180910390a150565b61015f54604051633a37b16d60e11b81523360048201526001600160a01b039091169063746f62da90602401602060405180830381865afa158015611d3c573d6000803e3d6000fd5b505050506040513d601f19601f82011682018060405250810190611d609190614b27565b611d7c5760405162461bcd60e51b815260040161071b90614b49565b6000818152610161602052604081209061102e565b61015f54604051633a37b16d60e11b81523360048201526001600160a01b039091169063746f62da90602401602060405180830381865afa158015611dda573d6000803e3d6000fd5b505050506040513d601f19601f82011682018060405250810190611dfe9190614b27565b611e1a5760405162461bcd60e51b815260040161071b90614b49565b6000818152610161602052604081209060028083015460ff1690811115611e4357611e436146a1565b14611e605760405162461bcd60e51b815260040161071b90614b6b565b60028101805460ff1916600117905560038101805460408051602080840282018101909252828152611ecb9390929091830182828015611ebf57602002820191906000526020600020905b815481526020019060010190808311611eab575b5050505050600461250b565b50506001810154611edd333083612983565b60405163079cc67960e41b81523060048201526024810182905233906379cc6790906044016115fe565b6033546001600160a01b03163314611f315760405162461bcd60e51b815260040161071b90614ab8565b6001600160a01b038116611f965760405162461bcd60e51b815260206004820152602660248201527f4f776e61626c653a206e6577206f776e657220697320746865207a65726f206160448201526564647265737360d01b606482015260840161071b565b61080e8161243e565b6000611fab6001612a98565b90508015611fc3576000805461ff0019166101001790555b611fcb612b20565b611fd3612b50565b611fdb612b83565b611fe785858585612baa565b61015f80546001600160a01b0319166001600160a01b0388169081179091556040519081527fb3a6e7c81ebdb0cf9bf28d5ddf6678ded8d73b44f2eee06ca3974dbb9f41ce7e9060200160405180910390a1801561207f576000805461ff0019169055604051600181527f7f26b83ff96e1f2b6a682f133852f6798a09c465da95921460cefb38474024989060200160405180910390a15b505050505050565b6001600160a01b03163b151590565b61080e8133612ccc565b6120aa82826110f4565b61072e57600082815261012d602090815260408083206001600160a01b03851684529091529020805460ff191660011790556120e33390565b6001600160a01b0316816001600160a01b0316837f2f8788117e7eff1d82e926ec794901d17c78024a50270940304540a733656f0d60405160405180910390a45050565b61213182826110f4565b1561072e57600082815261012d602090815260408083206001600160a01b0385168085529252808320805460ff1916905551339285917ff6391f5c32d9c69d2a47ea670b442974b53935d1edc7fd64eb21e047a839171b9190a45050565b6033546001600160a01b0316331461080e5760405162461bcd60e51b815260040161071b90614ab8565b7f4910fdfa16fed3260ed0e7147f7cc6da11a60208b5b9406d12a635614ffd91435460ff16156121ec576106aa83612d30565b826001600160a01b03166352d1902d6040518163ffffffff1660e01b8152600401602060405180830381865afa925050508015612246575060408051601f3d908101601f1916820190925261224391810190614d33565b60015b6122a95760405162461bcd60e51b815260206004820152602e60248201527f45524331393637557067726164653a206e657720696d706c656d656e7461746960448201526d6f6e206973206e6f74205555505360901b606482015260840161071b565b60008051602061522283398151915281146123185760405162461bcd60e51b815260206004820152602960248201527f45524331393637557067726164653a20756e737570706f727465642070726f786044820152681a58589b195555525160ba1b606482015260840161071b565b506106aa838383612dcc565b60655460ff1661236d5760405162461bcd60e51b815260206004820152601460248201527314185d5cd8589b194e881b9bdd081c185d5cd95960621b604482015260640161071b565b6065805460ff191690557f5db9ee0a495bf2e6ff9c91a7834c1ba4fdd244a5e8aa4e537bd38aeae4b073aa335b6040516001600160a01b03909116815260200160405180910390a1565b6123bf6143ce565b6123cb600c6002614d62565b6123d760126002614d62565b6123e19190614d81565b6123ec906001614d81565b8251036123fc5761067e82612df1565b61067e82612fd3565b6060808360600151516000146124285761241f848461322d565b91509150612437565b612432848461337f565b915091505b9250929050565b603380546001600160a01b038381166001600160a01b0319831681179093556040519116919082907f8be0079c531659141344cd1fd0a4f28419497f9722a3daafe3b4186f6b6457e090600090a35050565b60655460ff16156124d65760405162461bcd60e51b815260206004820152601060248201526f14185d5cd8589b194e881c185d5cd95960821b604482015260640161071b565b6065805460ff191660011790557f62e78cea01bee320cd4e420270b5ea74000d11b0c9f74754ebdbfc544b05a25861239a3390565b600080600061015f60009054906101000a90046001600160a01b03166001600160a01b0316634be4e3dd6040518163ffffffff1660e01b8152600401602060405180830381865afa158015612564573d6000803e3d6000fd5b505050506040513d601f19601f820116820180604052508101906125889190614d99565b855190915060005b818110156126495760008782815181106125ac576125ac614db6565b6020026020010151905060006125c28583613594565b5091506125d190508188614d81565b9650809550846001600160a01b0316633a484efd838a6040518363ffffffff1660e01b8152600401612604929190614dcc565b600060405180830381600087803b15801561261e57600080fd5b505af1158015612632573d6000803e3d6000fd5b5050505050508061264290614df0565b9050612590565b5050509250929050565b6040516001600160a01b0383166024820152604481018290526106aa90849063a9059cbb60e01b906064015b60408051601f198184030181529190526020810180516001600160e01b03166001600160e01b031990931692909217909152613636565b604080518082019091526002815261343560f01b6020820152846126ed5760405162461bcd60e51b815260040161071b9190614a0d565b5060008061272f85858080602002602001604051908101604052809392919081815260200183836020028082843760009201919091525087925061250b915050565b915091508186111561276b576040805180820182526002815261343560f01b6020820152905162461bcd60e51b815261071b9190600401614a0d565b856127768284614e09565b1061207f576040805180820182526002815261343560f01b6020820152905162461bcd60e51b815261071b9190600401614a0d565b6060600061015f60009054906101000a90046001600160a01b03166001600160a01b0316634be4e3dd6040518163ffffffff1660e01b8152600401602060405180830381865afa158015612803573d6000803e3d6000fd5b505050506040513d601f19601f820116820180604052508101906128279190614d99565b90506000806128368386613708565b9092509050600061284f670de0b6b3a764000088614e36565b9050808311156128d65760006128658285614e09565b905060006128a5868960018b5161287c9190614e09565b8151811061288c5761288c614db6565b602002602001015184876128a09190614e09565b6137cc565b9050808860018a516128b79190614e09565b815181106128c7576128c7614db6565b60200260200101818152505050505b509395945050505050565b6000816001600160a01b031663e819426c6040518163ffffffff1660e01b8152600401602060405180830381865afa158015612921573d6000803e3d6000fd5b505050506040513d601f19601f8201168201806040525081019061067e9190614d33565b6040516001600160a01b038085166024830152831660448201526064810182905261297d9085906323b872dd60e01b9060840161267f565b50505050565b8015806129fd5750604051636eb1769f60e11b81523060048201526001600160a01b03838116602483015284169063dd62ed3e90604401602060405180830381865afa1580156129d7573d6000803e3d6000fd5b505050506040513d601f19601f820116820180604052508101906129fb9190614d33565b155b612a685760405162461bcd60e51b815260206004820152603660248201527f5361666545524332303a20617070726f76652066726f6d206e6f6e2d7a65726f60448201527520746f206e6f6e2d7a65726f20616c6c6f77616e636560501b606482015260840161071b565b6040516001600160a01b0383166024820152604481018290526106aa90849063095ea7b360e01b9060640161267f565b60008054610100900460ff1615612adf578160ff166001148015612abb5750303b155b612ad75760405162461bcd60e51b815260040161071b90614e4a565b506000919050565b60005460ff808416911610612b065760405162461bcd60e51b815260040161071b90614e4a565b506000805460ff191660ff92909216919091179055600190565b600054610100900460ff16612b475760405162461bcd60e51b815260040161071b90614e98565b610b133361243e565b600054610100900460ff16612b775760405162461bcd60e51b815260040161071b90614e98565b6065805460ff19169055565b600054610100900460ff16610b135760405162461bcd60e51b815260040161071b90614e98565b828114612bf15760405162461bcd60e51b8152602060048201526015602482015274082e4e4c2f240d8cadccee8d040dad2e6dac2e8c6d605b1b604482015260640161071b565b612bf9612b83565b6000805b84811015612c8257612c4d848483818110612c1a57612c1a614db6565b90506020020135878784818110612c3357612c33614db6565b9050602002016020810190612c4891906144a1565b6120a0565b6000848483818110612c6157612c61614db6565b9050602002013503612c7257600191505b612c7b81614df0565b9050612bfd565b5080612cc55760405162461bcd60e51b8152602060048201526012602482015271139bc818591b5a5b881cdc1958da599a595960721b604482015260640161071b565b5050505050565b612cd682826110f4565b61072e57612cee816001600160a01b03166014613935565b612cf9836020613935565b604051602001612d0a929190614ee3565b60408051601f198184030181529082905262461bcd60e51b825261071b91600401614a0d565b6001600160a01b0381163b612d9d5760405162461bcd60e51b815260206004820152602d60248201527f455243313936373a206e657720696d706c656d656e746174696f6e206973206e60448201526c1bdd08184818dbdb9d1c9858dd609a1b606482015260840161071b565b60008051602061522283398151915280546001600160a01b0319166001600160a01b0392909216919091179055565b612dd583613ad7565b600082511180612de25750805b156106aa5761297d8383613b17565b612df96143ce565b6040805180820190915260018152602d60f81b6020820152612e1c908390613c0b565b600114612e6b5760405162461bcd60e51b815260206004820152601d60248201527f76313a20696e636f72726563742064656c696d6974657220636f756e74000000604482015260640161071b565b600080612e9a604051806040016040528060018152602001602d60f81b81525085613cdf90919063ffffffff16565b90925090506000612ead83826012613dd6565b90506000612ebd83826012613dd6565b9050612ec98282613ea1565b612f055760405162461bcd60e51b815260206004820152600d60248201526c0a8f2e0ca40dad2e6dac2e8c6d609b1b604482015260640161071b565b6000612f32612f2d612f1960126001614d81565b612f25600c6012614d81565b889190613dd6565b613ec7565b90506000612f48612f2d612f1960126001614d81565b905080821115612f8a5760405162461bcd60e51b815260206004820152600d60248201526c496e76616c69642072616e676560981b604482015260640161071b565b6040518060c00160405280878152602001868152602001858152602001604051806020016040528060008152508152602001838152602001828152509650505050505050919050565b612fdb6143ce565b6040805180820190915260018152605f60f81b6020820152612ffe908390613c0b565b60011461304d5760405162461bcd60e51b815260206004820152601d60248201527f76323a20696e636f72726563742064656c696d6974657220636f756e74000000604482015260640161071b565b60008061307c604051806040016040528060018152602001605f60f81b81525085613cdf90919063ffffffff16565b9150915061308982613f6b565b6130cb5760405162461bcd60e51b8152602060048201526013602482015272125b9d985b1a59081a5cdcdd585b98d9481a59606a1b604482015260640161071b565b6040805180820190915260018152602d60f81b60208201526130ee908290613c0b565b6001146131485760405162461bcd60e51b815260206004820152602260248201527f496e636f72726563742064656c696d6974657220636f756e7420696e2072616e604482015261676560f01b606482015260840161071b565b600080613177604051806040016040528060018152602001602d60f81b81525084613cdf90919063ffffffff16565b91509150600061318683613ec7565b9050600061319383613ec7565b9050808211156131d55760405162461bcd60e51b815260206004820152600d60248201526c496e76616c69642072616e676560981b604482015260640161071b565b6040805160e081018252600060c0820181815282528251602081810185528282528084019190915283519081018452908152918101919091526060810196909652608086019190915260a08501525091949350505050565b6060808260000361326f5760405162461bcd60e51b815260206004820152600c60248201526b115b5c1d1e48185b5bdd5b9d60a21b604482015260640161071b565b83608001518460a001516132839190614e09565b61328e906001614d81565b83106132cb5760405162461bcd60e51b815260206004820152600c60248201526b10d85b9b9bdd081cdc1b1a5d60a21b604482015260640161071b565b600060018486608001516132df9190614d81565b6132e99190614e09565b905060006132f8826001614d81565b9050856060015161330c8760800151613fa5565b61331584613fa5565b60405160200161332793929190614f58565b604051602081830303815290604052866060015161334483613fa5565b6133518960a00151613fa5565b60405160200161336393929190614f58565b6040516020818303038152906040529350935050509250929050565b606080826000036133c15760405162461bcd60e51b815260206004820152600c60248201526b115b5c1d1e48185b5bdd5b9d60a21b604482015260640161071b565b83608001518460a001516133d59190614e09565b6133e0906001614d81565b831061341d5760405162461bcd60e51b815260206004820152600c60248201526b10d85b9b9bdd081cdc1b1a5d60a21b604482015260640161071b565b600060018486608001516134319190614d81565b61343b9190614e09565b9050600061344a826001614d81565b9050600061347d600c604051806040016040528060018152602001600360fc1b81525061347686613fa5565b9190613fb0565b905060006134a9600c604051806040016040528060018152602001600360fc1b81525061347686613fa5565b905060008860400151836040516020016134c4929190614fb7565b604051602081830303815290604052905060008960400151836040516020016134ee929190614fb7565b60408051601f19818403018152908290528b5190925061351091602001614fe6565b60408051601f198184030181529082905261352f918490602001614fb7565b6040516020818303038152906040528160405160200161354f9190614fe6565b6040516020818303038152906040528b60200151604051602001613574929190614fb7565b604051602081830303815290604052975097505050505050509250929050565b600080600080600080876001600160a01b031663dff35e83886040518263ffffffff1660e01b81526004016135cb91815260200190565b606060405180830381865afa1580156135e8573d6000803e3d6000fd5b505050506040513d601f19601f8201168201806040525081019061360c919061500b565b919450925090508261362683670de0b6b3a7640000614d62565b9096509450925050509250925092565b600061368b826040518060400160405280602081526020017f5361666545524332303a206c6f772d6c6576656c2063616c6c206661696c6564815250856001600160a01b031661408f9092919063ffffffff16565b8051909150156106aa57808060200190518101906136a99190614b27565b6106aa5760405162461bcd60e51b815260206004820152602a60248201527f5361666545524332303a204552433230206f7065726174696f6e20646964206e6044820152691bdd081cdd58d8d9595960b21b606482015260840161071b565b60008060005b83518110156137c4576000856001600160a01b031663dff35e8386848151811061373a5761373a614db6565b60200260200101516040518263ffffffff1660e01b815260040161376091815260200190565b606060405180830381865afa15801561377d573d6000803e3d6000fd5b505050506040513d601f19601f820116820180604052508101906137a1919061500b565b5091506137b090508185614d81565b935091506137bd81614df0565b905061370e565b509250929050565b60405163137b20bf60e31b81526004810183905260009081906001600160a01b03861690639bd905f890602401600060405180830381865afa158015613816573d6000803e3d6000fd5b505050506040513d6000823e601f3d908101601f1916820160405261383e9190810190615048565b905060008061384d8386610843565b60405163095b5ded60e11b815291935091506001600160a01b038816906312b6bbda90613884908990859087908b906004016150b5565b6020604051808303816000875af11580156138a3573d6000803e3d6000fd5b505050506040513d601f19601f820116820180604052508101906138c79190614d33565b604051633a484efd60e01b81529094506001600160a01b03881690633a484efd906138f9908990600290600401614dcc565b600060405180830381600087803b15801561391357600080fd5b505af1158015613927573d6000803e3d6000fd5b505050505050509392505050565b60606000613944836002614d62565b61394f906002614d81565b6001600160401b03811115613966576139666144be565b6040519080825280601f01601f191660200182016040528015613990576020820181803683370190505b509050600360fc1b816000815181106139ab576139ab614db6565b60200101906001600160f81b031916908160001a905350600f60fb1b816001815181106139da576139da614db6565b60200101906001600160f81b031916908160001a90535060006139fe846002614d62565b613a09906001614d81565b90505b6001811115613a81576f181899199a1a9b1b9c1cb0b131b232b360811b85600f1660108110613a3d57613a3d614db6565b1a60f81b828281518110613a5357613a53614db6565b60200101906001600160f81b031916908160001a90535060049490941c93613a7a816150f2565b9050613a0c565b508315613ad05760405162461bcd60e51b815260206004820181905260248201527f537472696e67733a20686578206c656e67746820696e73756666696369656e74604482015260640161071b565b9392505050565b613ae081612d30565b6040516001600160a01b038216907fbc7cd75a20ee27fd9adebab32041f755214dbc6bffa90cc0225b39da2e5c2d3b90600090a250565b60606001600160a01b0383163b613b7f5760405162461bcd60e51b815260206004820152602660248201527f416464726573733a2064656c65676174652063616c6c20746f206e6f6e2d636f6044820152651b9d1c9858dd60d21b606482015260840161071b565b600080846001600160a01b031684604051613b9a9190615109565b600060405180830381855af49150503d8060008114613bd5576040519150601f19603f3d011682016040523d82523d6000602084013e613bda565b606091505b5091509150613c028282604051806060016040528060278152602001615242602791396140a6565b95945050505050565b60008151600114613c545760405162461bcd60e51b8152602060048201526013602482015272092dcecc2d8d2c840c6d0c2e440d8cadccee8d606b1b604482015260640161071b565b600082600081518110613c6957613c69614db6565b016020015184516001600160f81b0319909116915060005b81811015613cd657826001600160f81b031916868281518110613ca657613ca6614db6565b01602001516001600160f81b03191603613cc657613cc384614df0565b93505b613ccf81614df0565b9050613c81565b50505092915050565b6060808251600114613d335760405162461bcd60e51b815260206004820152601860248201527f496e76616c69642064656c696d69746572206c656e6774680000000000000000604482015260640161071b565b600083600081518110613d4857613d48614db6565b016020015185516001600160f81b0319909116915060005b8181101561264957826001600160f81b031916878281518110613d8557613d85614db6565b01602001516001600160f81b03191603613dc657613da587600083613dd6565b9450613dbc87613db6836001614d81565b84613dd6565b9350505050612437565b613dcf81614df0565b9050613d60565b60606000613de48484614e09565b90506000816001600160401b03811115613e0057613e006144be565b6040519080825280601f01601f191660200182016040528015613e2a576020820181803683370190505b50905060005b82811015613e975786613e438783614d81565b81518110613e5357613e53614db6565b602001015160f81c60f81b828281518110613e7057613e70614db6565b60200101906001600160f81b031916908160001a905350613e9081614df0565b9050613e30565b5095945050505050565b600081518351148015613ad0575081805190602001208380519060200120149392505050565b805160009081908390825b81811015613f61576000613ee68284614e09565b90506000848381518110613efc57613efc614db6565b01602001516001600160f81b03198116915060f81c6000613f1e603083614e09565b9050613f2b600185614e09565b613f3690600a615201565b613f409082614d62565b613f4a9089614d81565b97505050505080613f5a90614df0565b9050613ed2565b5091949350505050565b60006024825114801561067e57506040805180820190915260018152602d60f81b6020820152613f9c908390613c0b565b60041492915050565b606061067e826140df565b82518151606091906001146140005760405162461bcd60e51b8152602060048201526016602482015275092dcecc2d8d2c840e0c2c886d0c2e440d8cadccee8d60531b604482015260640161071b565b808410156140465760405162461bcd60e51b8152602060048201526013602482015272092dcecc2d8d2c840e8caf0e840d8cadccee8d606b1b604482015260640161071b565b805b84811015614085578386604051602001614063929190614fb7565b60405160208183030381529060405295508061407e90614df0565b9050614048565b5093949350505050565b606061409e84846000856141df565b949350505050565b606083156140b5575081613ad0565b8251156140c55782518084602001fd5b8160405162461bcd60e51b815260040161071b9190614a0d565b6060816000036141065750506040805180820190915260018152600360fc1b602082015290565b8160005b8115614130578061411a81614df0565b91506141299050600a83614e36565b915061410a565b6000816001600160401b0381111561414a5761414a6144be565b6040519080825280601f01601f191660200182016040528015614174576020820181803683370190505b5090505b841561409e57614189600183614e09565b9150614196600a8661520d565b6141a1906030614d81565b60f81b8183815181106141b6576141b6614db6565b60200101906001600160f81b031916908160001a9053506141d8600a86614e36565b9450614178565b6060824710156142405760405162461bcd60e51b815260206004820152602660248201527f416464726573733a20696e73756666696369656e742062616c616e636520666f6044820152651c8818d85b1b60d21b606482015260840161071b565b6001600160a01b0385163b6142975760405162461bcd60e51b815260206004820152601d60248201527f416464726573733a2063616c6c20746f206e6f6e2d636f6e7472616374000000604482015260640161071b565b600080866001600160a01b031685876040516142b39190615109565b60006040518083038185875af1925050503d80600081146142f0576040519150601f19603f3d011682016040523d82523d6000602084013e6142f5565b606091505b50915091506143058282866140a6565b979650505050505050565b82805482825590600052602060002090810192821561434b579160200282015b8281111561434b578251825591602001919060010190614330565b50614357929150614404565b5090565b82805461436790614aed565b90600052602060002090601f016020900481019282614389576000855561434b565b82601f106143a257805160ff191683800117855561434b565b8280016001018555821561434b579182018281111561434b578251825591602001919060010190614330565b6040518060c001604052806060815260200160608152602001606081526020016060815260200160008152602001600081525090565b5b808211156143575760008155600101614405565b60006020828403121561442b57600080fd5b81356001600160e01b031981168114613ad057600080fd5b60006020828403121561445557600080fd5b5035919050565b6001600160a01b038116811461080e57600080fd5b6000806040838503121561448457600080fd5b8235915060208301356144968161445c565b809150509250929050565b6000602082840312156144b357600080fd5b8135613ad08161445c565b634e487b7160e01b600052604160045260246000fd5b604051601f8201601f191681016001600160401b03811182821017156144fc576144fc6144be565b604052919050565b60006001600160401b0382111561451d5761451d6144be565b50601f01601f191660200190565b600061453e61453984614504565b6144d4565b905082815283838301111561455257600080fd5b828260208301376000602084830101529392505050565b6000806040838503121561457c57600080fd5b82356001600160401b0381111561459257600080fd5b8301601f810185136145a357600080fd5b6145b28582356020840161452b565b95602094909401359450505050565b60005b838110156145dc5781810151838201526020016145c4565b8381111561297d5750506000910152565b600081518084526146058160208601602086016145c1565b601f01601f19169290920160200192915050565b60408152600061462c60408301856145ed565b8281036020840152613c0281856145ed565b6000806040838503121561465157600080fd5b823561465c8161445c565b915060208301356001600160401b0381111561467757600080fd5b8301601f8101851361468857600080fd5b6146978582356020840161452b565b9150509250929050565b634e487b7160e01b600052602160045260246000fd5b600381106146c7576146c76146a1565b9052565b600081518084526020808501945080840160005b838110156146fb578151875295820195908201906001016146df565b509495945050505050565b6020815260018060a01b038251166020820152602082015160408201526000604083015161473760608401826146b7565b50606083015160a0608084015261475160c08401826146cb565b9050608084015160a08401528091505092915050565b602081526147816020820183516001600160a01b03169052565b602082015160408201526000604083015161479f60608401826146b7565b5060608301516101a08060808501526147bc6101c08501836146cb565b91506080850151601f19808685030160a08701526147da84836145ed565b935060a087015191506147f860c08701836001600160a01b03169052565b60c08701519150808685030160e087015261481384836145ed565b935060e0870151915061010081878603018188015261483285846145ed565b94508088015192505061012081878603018188015261485185846145ed565b94508088015192505061014081878603018188015261487085846145ed565b90880151610160888101919091528801516101808089019190915290970151929095019190915250929392505050565b600080604083850312156148b357600080fd5b82356148be8161445c565b915060208301356001600160401b038111156148d957600080fd5b8301610140818603121561449657600080fd5b60008083601f8401126148fe57600080fd5b5081356001600160401b0381111561491557600080fd5b6020830191508360208260051b850101111561243757600080fd5b6000806000806060858703121561494657600080fd5b84356149518161445c565b93506020850135925060408501356001600160401b0381111561497357600080fd5b61497f878288016148ec565b95989497509550505050565b6000806000806000606086880312156149a357600080fd5b85356149ae8161445c565b945060208601356001600160401b03808211156149ca57600080fd5b6149d689838a016148ec565b909650945060408801359150808211156149ef57600080fd5b506149fc888289016148ec565b969995985093965092949392505050565b602081526000613ad060208301846145ed565b6020808252602c908201527f46756e6374696f6e206d7573742062652063616c6c6564207468726f7567682060408201526b19195b1959d85d1958d85b1b60a21b606082015260800190565b6020808252602c908201527f46756e6374696f6e206d7573742062652063616c6c6564207468726f7567682060408201526b6163746976652070726f787960a01b606082015260800190565b6020808252818101527f4f776e61626c653a2063616c6c6572206973206e6f7420746865206f776e6572604082015260600190565b600181811c90821680614b0157607f821691505b602082108103614b2157634e487b7160e01b600052602260045260246000fd5b50919050565b600060208284031215614b3957600080fd5b81518015158114613ad057600080fd5b6020808252600890820152672737ba102a21a79960c11b604082015260600190565b602080825260139082015272139bdd081c195b991a5b99c81c995c5d595cdd606a1b604082015260600190565b60018060a01b03831681526040602082015260008251610140806040850152614bc56101808501836146cb565b9150602085015160608501526040850151603f1980868503016080870152614bed84836145ed565b935060608701519150614c0b60a08701836001600160a01b03169052565b60808701519150808685030160c0870152614c2684836145ed565b935060a08701519150808685030160e0870152614c4384836145ed565b935060c08701519150610100818786030181880152614c6285846145ed565b945060e08801519250610120828887030181890152614c8186856145ed565b918901519488019490945292909601516101609095019490945295945050505050565b6000808335601e19843603018112614cbb57600080fd5b8301803591506001600160401b03821115614cd557600080fd5b6020019150600581901b360382131561243757600080fd5b6000808335601e19843603018112614d0457600080fd5b8301803591506001600160401b03821115614d1e57600080fd5b60200191503681900382131561243757600080fd5b600060208284031215614d4557600080fd5b5051919050565b634e487b7160e01b600052601160045260246000fd5b6000816000190483118215151615614d7c57614d7c614d4c565b500290565b60008219821115614d9457614d94614d4c565b500190565b600060208284031215614dab57600080fd5b8151613ad08161445c565b634e487b7160e01b600052603260045260246000fd5b8281526040810160078310614de357614de36146a1565b8260208301529392505050565b600060018201614e0257614e02614d4c565b5060010190565b600082821015614e1b57614e1b614d4c565b500390565b634e487b7160e01b600052601260045260246000fd5b600082614e4557614e45614e20565b500490565b6020808252602e908201527f496e697469616c697a61626c653a20636f6e747261637420697320616c72656160408201526d191e481a5b9a5d1a585b1a5e995960921b606082015260800190565b6020808252602b908201527f496e697469616c697a61626c653a20636f6e7472616374206973206e6f74206960408201526a6e697469616c697a696e6760a81b606082015260800190565b7f416363657373436f6e74726f6c3a206163636f756e7420000000000000000000815260008351614f1b8160178501602088016145c1565b7001034b99036b4b9b9b4b733903937b6329607d1b6017918401918201528351614f4c8160288401602088016145c1565b01602801949350505050565b60008451614f6a8184602089016145c1565b605f60f81b9083019081528451614f888160018401602089016145c1565b602d60f81b600192909101918201528351614faa8160028401602088016145c1565b0160020195945050505050565b60008351614fc98184602088016145c1565b835190830190614fdd8183602088016145c1565b01949350505050565b60008251614ff88184602087016145c1565b602d60f81b920191825250600101919050565b60008060006060848603121561502057600080fd5b835192506020840151915060408401516007811061503d57600080fd5b809150509250925092565b60006020828403121561505a57600080fd5b81516001600160401b0381111561507057600080fd5b8201601f8101841361508157600080fd5b805161508f61453982614504565b8181528560208385010111156150a457600080fd5b613c028260208301602086016145c1565b8481526080602082015260006150ce60808301866145ed565b82810360408401526150e081866145ed565b91505082606083015295945050505050565b60008161510157615101614d4c565b506000190190565b6000825161511b8184602087016145c1565b9190910192915050565b600181815b808511156137c457816000190482111561514657615146614d4c565b8085161561515357918102915b93841c939080029061512a565b60008261516f5750600161067e565b8161517c5750600061067e565b8160018114615192576002811461519c576151b8565b600191505061067e565b60ff8411156151ad576151ad614d4c565b50506001821b61067e565b5060208310610133831016604e8410600b84101617156151db575081810a61067e565b6151e58383615125565b80600019048211156151f9576151f9614d4c565b029392505050565b6000613ad08383615160565b60008261521c5761521c614e20565b50069056fe360894a13ba1a3210667c828492db98dca3e2076cc3735a920a3ca505d382bbc416464726573733a206c6f772d6c6576656c2064656c65676174652063616c6c206661696c6564a26469706673582212200583f9d8ee1a91580fb2188be0ca1dd915dd91888748ede2a785001fafe51bb864736f6c634300080e0033496e697469616c697a61626c653a20636f6e747261637420697320616c726561",
  "devdoc": {
    "kind": "dev",
    "methods": {
      "constructor": {
        "custom:oz-upgrades-unsafe-allow": "constructor"
      },
      "createDetokenizationRequest(address,uint256,uint256[])": {
        "details": "Only a TCO2 contract can call this function. Additionally, the escrow contract must have been approved to transfer the amount of TCO2 to detokenize.",
        "params": {
          "amount": "The amount of TCO2 to detokenize.",
          "batchTokenIds": "The ids of the batches to detokenize.",
          "user": "The user that is requesting the detokenization."
        }
      },
      "createRetirementRequest(address,(uint256[],uint256,string,address,string,string,string,string,uint256,uint256))": {
        "details": "Only a TCO2 contract can call this function. Additionally, the escrow contract must have been approved to transfer the amount of TCO2 to retire.",
        "params": {
          "params": "Retirement request params.",
          "user": "The user that is requesting the retirement."
        }
      },
      "finalizeDetokenizationRequest(uint256)": {
        "details": "Only the TCO2 contract can call this function.",
        "params": {
          "requestId": "The id of the request to finalize."
        }
      },
      "finalizeRetirementRequest(uint256)": {
        "details": "Only the TCO2 contract can call this function.",
        "params": {
          "requestId": "The id of the request to finalize."
        }
      },
      "getRoleAdmin(bytes32)": {
        "details": "Returns the admin role that controls `role`. See {grantRole} and {revokeRole}. To change a role's admin, use {_setRoleAdmin}."
      },
      "grantRole(bytes32,address)": {
        "details": "Grants `role` to `account`. If `account` had not been already granted `role`, emits a {RoleGranted} event. Requirements: - the caller must have ``role``'s admin role."
      },
      "hasRole(bytes32,address)": {
        "details": "Returns `true` if `account` has been granted `role`."
      },
      "owner()": {
        "details": "Returns the address of the current owner."
      },
      "paused()": {
        "details": "Returns true if the contract is paused, and false otherwise."
      },
      "proxiableUUID()": {
        "details": "Implementation of the ERC1822 {proxiableUUID} function. This returns the storage slot used by the implementation. It is used to validate that the this implementation remains valid after an upgrade. IMPORTANT: A proxy pointing at a proxiable contract should not be considered proxiable itself, because this risks bricking a proxy that upgrades to it, by delegating to itself until out of gas. Thus it is critical that this function revert if invoked through a proxy. This is guaranteed by the `notDelegated` modifier."
      },
      "renounceOwnership()": {
        "details": "Leaves the contract without owner. It will not be possible to call `onlyOwner` functions anymore. Can only be called by the current owner. NOTE: Renouncing ownership will leave the contract without an owner, thereby removing any functionality that is only available to the owner."
      },
      "renounceRole(bytes32,address)": {
        "details": "Revokes `role` from the calling account. Roles are often managed via {grantRole} and {revokeRole}: this function's purpose is to provide a mechanism for accounts to lose their privileges if they are compromised (such as when a trusted device is misplaced). If the calling account had been revoked `role`, emits a {RoleRevoked} event. Requirements: - the caller must be `account`."
      },
      "revertDetokenizationRequest(uint256)": {
        "details": "Only the TCO2 contract can call this function.",
        "params": {
          "requestId": "The id of the request to revert."
        }
      },
      "revertRetirementRequest(uint256)": {
        "details": "Only the TCO2 contract can call this function.",
        "params": {
          "requestId": "The id of the request to revert."
        }
      },
      "revokeRole(bytes32,address)": {
        "details": "Revokes `role` from `account`. If `account` had been granted `role`, emits a {RoleRevoked} event. Requirements: - the caller must have ``role``'s admin role."
      },
      "splitSerialNumber(string,uint256)": {
        "params": {
          "amount": "The amount to split by.",
          "serialNumber": "The serial number to split."
        },
        "returns": {
          "balancingSerialNumber": "remainingSerialNumber The serial numbers split from the original serial number."
        }
      },
      "supportsInterface(bytes4)": {
        "details": "See {IERC165-supportsInterface}."
      },
      "transferOwnership(address)": {
        "details": "Transfers ownership of the contract to a new account (`newOwner`). Can only be called by the current owner."
      },
      "upgradeTo(address)": {
        "details": "Upgrade the implementation of the proxy to `newImplementation`. Calls {_authorizeUpgrade}. Emits an {Upgraded} event."
      },
      "upgradeToAndCall(address,bytes)": {
        "details": "Upgrade the implementation of the proxy to `newImplementation`, and subsequently execute the function call encoded in `data`. Calls {_authorizeUpgrade}. Emits an {Upgraded} event."
      }
    },
    "stateVariables": {
      "PAUSER_ROLE": {
        "details": "All roles related to accessing this contract"
      },
      "VERSION": {
        "details": "Version-related parameters. VERSION keeps track of production releases. VERSION_RELEASE_CANDIDATE keeps track of iterations of a VERSION in our staging environment."
      }
    },
    "version": 1
  },
  "userdoc": {
    "kind": "user",
    "methods": {
      "createDetokenizationRequest(address,uint256,uint256[])": {
        "notice": "Create a new detokenization request."
      },
      "createRetirementRequest(address,(uint256[],uint256,string,address,string,string,string,string,uint256,uint256))": {
        "notice": "Create a new retirement request."
      },
      "finalizeDetokenizationRequest(uint256)": {
        "notice": "Finalize a detokenization request by burning its amount of TCO2."
      },
      "finalizeRetirementRequest(uint256)": {
        "notice": "Finalize a retirement request by calling the retire and mint certificate function in respective TCO2 Batch, which can only be invoked by the escrow After retiring the amount of TCO2 is burned."
      },
      "revertDetokenizationRequest(uint256)": {
        "notice": "Revert a detokenization request by transfering amount of TCO2 back to the user."
      },
      "revertRetirementRequest(uint256)": {
        "notice": "Revert a retirement request by transfering amount of TCO2 back to the user."
      },
      "splitSerialNumber(string,uint256)": {
        "notice": "Split a serial number range into two parts based on the given amount."
      }
    },
    "notice": "Contract for escrowing TCO2s during detokenization or retirement until the off-chain registry confirms the detokenization or retirement request.",
    "version": 1
  },
  "storageLayout": {
    "storage": [
      {
        "astId": 2390,
        "contract": "contracts/ToucanCarbonOffsetsEscrow.sol:ToucanCarbonOffsetsEscrow",
        "label": "_initialized",
        "offset": 0,
        "slot": "0",
        "type": "t_uint8"
      },
      {
        "astId": 2393,
        "contract": "contracts/ToucanCarbonOffsetsEscrow.sol:ToucanCarbonOffsetsEscrow",
        "label": "_initializing",
        "offset": 1,
        "slot": "0",
        "type": "t_bool"
      },
      {
        "astId": 5494,
        "contract": "contracts/ToucanCarbonOffsetsEscrow.sol:ToucanCarbonOffsetsEscrow",
        "label": "__gap",
        "offset": 0,
        "slot": "1",
        "type": "t_array(t_uint256)50_storage"
      },
      {
        "astId": 1881,
        "contract": "contracts/ToucanCarbonOffsetsEscrow.sol:ToucanCarbonOffsetsEscrow",
        "label": "_owner",
        "offset": 0,
        "slot": "51",
        "type": "t_address"
      },
      {
        "astId": 1993,
        "contract": "contracts/ToucanCarbonOffsetsEscrow.sol:ToucanCarbonOffsetsEscrow",
        "label": "__gap",
        "offset": 0,
        "slot": "52",
        "type": "t_array(t_uint256)49_storage"
      },
      {
        "astId": 2682,
        "contract": "contracts/ToucanCarbonOffsetsEscrow.sol:ToucanCarbonOffsetsEscrow",
        "label": "_paused",
        "offset": 0,
        "slot": "101",
        "type": "t_bool"
      },
      {
        "astId": 2771,
        "contract": "contracts/ToucanCarbonOffsetsEscrow.sol:ToucanCarbonOffsetsEscrow",
        "label": "__gap",
        "offset": 0,
        "slot": "102",
        "type": "t_array(t_uint256)49_storage"
      },
      {
        "astId": 2372,
        "contract": "contracts/ToucanCarbonOffsetsEscrow.sol:ToucanCarbonOffsetsEscrow",
        "label": "__gap",
        "offset": 0,
        "slot": "151",
        "type": "t_array(t_uint256)50_storage"
      },
      {
        "astId": 2660,
        "contract": "contracts/ToucanCarbonOffsetsEscrow.sol:ToucanCarbonOffsetsEscrow",
        "label": "__gap",
        "offset": 0,
        "slot": "201",
        "type": "t_array(t_uint256)50_storage"
      },
      {
        "astId": 5801,
        "contract": "contracts/ToucanCarbonOffsetsEscrow.sol:ToucanCarbonOffsetsEscrow",
        "label": "__gap",
        "offset": 0,
        "slot": "251",
        "type": "t_array(t_uint256)50_storage"
      },
      {
        "astId": 1497,
        "contract": "contracts/ToucanCarbonOffsetsEscrow.sol:ToucanCarbonOffsetsEscrow",
        "label": "_roles",
        "offset": 0,
        "slot": "301",
        "type": "t_mapping(t_bytes32,t_struct(RoleData)1492_storage)"
      },
      {
        "astId": 1796,
        "contract": "contracts/ToucanCarbonOffsetsEscrow.sol:ToucanCarbonOffsetsEscrow",
        "label": "__gap",
        "offset": 0,
        "slot": "302",
        "type": "t_array(t_uint256)49_storage"
      },
      {
        "astId": 16417,
        "contract": "contracts/ToucanCarbonOffsetsEscrow.sol:ToucanCarbonOffsetsEscrow",
        "label": "contractRegistry",
        "offset": 0,
        "slot": "351",
        "type": "t_address"
      },
      {
        "astId": 16419,
        "contract": "contracts/ToucanCarbonOffsetsEscrow.sol:ToucanCarbonOffsetsEscrow",
        "label": "detokenizationRequestIdCounter",
        "offset": 0,
        "slot": "352",
        "type": "t_uint256"
      },
      {
        "astId": 16424,
        "contract": "contracts/ToucanCarbonOffsetsEscrow.sol:ToucanCarbonOffsetsEscrow",
        "label": "_detokenizationRequests",
        "offset": 0,
        "slot": "353",
        "type": "t_mapping(t_uint256,t_struct(DetokenizationRequest)16450_storage)"
      },
      {
        "astId": 16426,
        "contract": "contracts/ToucanCarbonOffsetsEscrow.sol:ToucanCarbonOffsetsEscrow",
        "label": "retirementRequestIdCounter",
        "offset": 0,
        "slot": "354",
        "type": "t_uint256"
      },
      {
        "astId": 16431,
        "contract": "contracts/ToucanCarbonOffsetsEscrow.sol:ToucanCarbonOffsetsEscrow",
        "label": "_retirementRequests",
        "offset": 0,
        "slot": "355",
        "type": "t_mapping(t_uint256,t_struct(RetirementRequest)16479_storage)"
      }
    ],
    "types": {
      "t_address": {
        "encoding": "inplace",
        "label": "address",
        "numberOfBytes": "20"
      },
      "t_array(t_uint256)49_storage": {
        "base": "t_uint256",
        "encoding": "inplace",
        "label": "uint256[49]",
        "numberOfBytes": "1568"
      },
      "t_array(t_uint256)50_storage": {
        "base": "t_uint256",
        "encoding": "inplace",
        "label": "uint256[50]",
        "numberOfBytes": "1600"
      },
      "t_array(t_uint256)dyn_storage": {
        "base": "t_uint256",
        "encoding": "dynamic_array",
        "label": "uint256[]",
        "numberOfBytes": "32"
      },
      "t_bool": {
        "encoding": "inplace",
        "label": "bool",
        "numberOfBytes": "1"
      },
      "t_bytes32": {
        "encoding": "inplace",
        "label": "bytes32",
        "numberOfBytes": "32"
      },
      "t_enum(RequestStatus)16483": {
        "encoding": "inplace",
        "label": "enum RequestStatus",
        "numberOfBytes": "1"
      },
      "t_mapping(t_address,t_bool)": {
        "encoding": "mapping",
        "key": "t_address",
        "label": "mapping(address => bool)",
        "numberOfBytes": "32",
        "value": "t_bool"
      },
      "t_mapping(t_bytes32,t_struct(RoleData)1492_storage)": {
        "encoding": "mapping",
        "key": "t_bytes32",
        "label": "mapping(bytes32 => struct AccessControlUpgradeable.RoleData)",
        "numberOfBytes": "32",
        "value": "t_struct(RoleData)1492_storage"
      },
      "t_mapping(t_uint256,t_struct(DetokenizationRequest)16450_storage)": {
        "encoding": "mapping",
        "key": "t_uint256",
        "label": "mapping(uint256 => struct DetokenizationRequest)",
        "numberOfBytes": "32",
        "value": "t_struct(DetokenizationRequest)16450_storage"
      },
      "t_mapping(t_uint256,t_struct(RetirementRequest)16479_storage)": {
        "encoding": "mapping",
        "key": "t_uint256",
        "label": "mapping(uint256 => struct RetirementRequest)",
        "numberOfBytes": "32",
        "value": "t_struct(RetirementRequest)16479_storage"
      },
      "t_string_storage": {
        "encoding": "bytes",
        "label": "string",
        "numberOfBytes": "32"
      },
      "t_struct(DetokenizationRequest)16450_storage": {
        "encoding": "inplace",
        "label": "struct DetokenizationRequest",
        "members": [
          {
            "astId": 16439,
            "contract": "contracts/ToucanCarbonOffsetsEscrow.sol:ToucanCarbonOffsetsEscrow",
            "label": "user",
            "offset": 0,
            "slot": "0",
            "type": "t_address"
          },
          {
            "astId": 16441,
            "contract": "contracts/ToucanCarbonOffsetsEscrow.sol:ToucanCarbonOffsetsEscrow",
            "label": "amount",
            "offset": 0,
            "slot": "1",
            "type": "t_uint256"
          },
          {
            "astId": 16444,
            "contract": "contracts/ToucanCarbonOffsetsEscrow.sol:ToucanCarbonOffsetsEscrow",
            "label": "status",
            "offset": 0,
            "slot": "2",
            "type": "t_enum(RequestStatus)16483"
          },
          {
            "astId": 16447,
            "contract": "contracts/ToucanCarbonOffsetsEscrow.sol:ToucanCarbonOffsetsEscrow",
            "label": "batchTokenIds",
            "offset": 0,
            "slot": "3",
            "type": "t_array(t_uint256)dyn_storage"
          },
          {
            "astId": 16449,
            "contract": "contracts/ToucanCarbonOffsetsEscrow.sol:ToucanCarbonOffsetsEscrow",
            "label": "projectVintageTokenId",
            "offset": 0,
            "slot": "4",
            "type": "t_uint256"
          }
        ],
        "numberOfBytes": "160"
      },
      "t_struct(RetirementRequest)16479_storage": {
        "encoding": "inplace",
        "label": "struct RetirementRequest",
        "members": [
          {
            "astId": 16452,
            "contract": "contracts/ToucanCarbonOffsetsEscrow.sol:ToucanCarbonOffsetsEscrow",
            "label": "user",
            "offset": 0,
            "slot": "0",
            "type": "t_address"
          },
          {
            "astId": 16454,
            "contract": "contracts/ToucanCarbonOffsetsEscrow.sol:ToucanCarbonOffsetsEscrow",
            "label": "amount",
            "offset": 0,
            "slot": "1",
            "type": "t_uint256"
          },
          {
            "astId": 16457,
            "contract": "contracts/ToucanCarbonOffsetsEscrow.sol:ToucanCarbonOffsetsEscrow",
            "label": "status",
            "offset": 0,
            "slot": "2",
            "type": "t_enum(RequestStatus)16483"
          },
          {
            "astId": 16460,
            "contract": "contracts/ToucanCarbonOffsetsEscrow.sol:ToucanCarbonOffsetsEscrow",
            "label": "batchTokenIds",
            "offset": 0,
            "slot": "3",
            "type": "t_array(t_uint256)dyn_storage"
          },
          {
            "astId": 16462,
            "contract": "contracts/ToucanCarbonOffsetsEscrow.sol:ToucanCarbonOffsetsEscrow",
            "label": "retiringEntityString",
            "offset": 0,
            "slot": "4",
            "type": "t_string_storage"
          },
          {
            "astId": 16464,
            "contract": "contracts/ToucanCarbonOffsetsEscrow.sol:ToucanCarbonOffsetsEscrow",
            "label": "beneficiary",
            "offset": 0,
            "slot": "5",
            "type": "t_address"
          },
          {
            "astId": 16466,
            "contract": "contracts/ToucanCarbonOffsetsEscrow.sol:ToucanCarbonOffsetsEscrow",
            "label": "beneficiaryString",
            "offset": 0,
            "slot": "6",
            "type": "t_string_storage"
          },
          {
            "astId": 16468,
            "contract": "contracts/ToucanCarbonOffsetsEscrow.sol:ToucanCarbonOffsetsEscrow",
            "label": "retirementMessage",
            "offset": 0,
            "slot": "7",
            "type": "t_string_storage"
          },
          {
            "astId": 16470,
            "contract": "contracts/ToucanCarbonOffsetsEscrow.sol:ToucanCarbonOffsetsEscrow",
            "label": "beneficiaryLocation",
            "offset": 0,
            "slot": "8",
            "type": "t_string_storage"
          },
          {
            "astId": 16472,
            "contract": "contracts/ToucanCarbonOffsetsEscrow.sol:ToucanCarbonOffsetsEscrow",
            "label": "consumptionCountryCode",
            "offset": 0,
            "slot": "9",
            "type": "t_string_storage"
          },
          {
            "astId": 16474,
            "contract": "contracts/ToucanCarbonOffsetsEscrow.sol:ToucanCarbonOffsetsEscrow",
            "label": "consumptionPeriodStart",
            "offset": 0,
            "slot": "10",
            "type": "t_uint256"
          },
          {
            "astId": 16476,
            "contract": "contracts/ToucanCarbonOffsetsEscrow.sol:ToucanCarbonOffsetsEscrow",
            "label": "consumptionPeriodEnd",
            "offset": 0,
            "slot": "11",
            "type": "t_uint256"
          },
          {
            "astId": 16478,
            "contract": "contracts/ToucanCarbonOffsetsEscrow.sol:ToucanCarbonOffsetsEscrow",
            "label": "projectVintageTokenId",
            "offset": 0,
            "slot": "12",
            "type": "t_uint256"
          }
        ],
        "numberOfBytes": "416"
      },
      "t_struct(RoleData)1492_storage": {
        "encoding": "inplace",
        "label": "struct AccessControlUpgradeable.RoleData",
        "members": [
          {
            "astId": 1489,
            "contract": "contracts/ToucanCarbonOffsetsEscrow.sol:ToucanCarbonOffsetsEscrow",
            "label": "members",
            "offset": 0,
            "slot": "0",
            "type": "t_mapping(t_address,t_bool)"
          },
          {
            "astId": 1491,
            "contract": "contracts/ToucanCarbonOffsetsEscrow.sol:ToucanCarbonOffsetsEscrow",
            "label": "adminRole",
            "offset": 0,
            "slot": "1",
            "type": "t_bytes32"
          }
        ],
        "numberOfBytes": "64"
      },
      "t_uint256": {
        "encoding": "inplace",
        "label": "uint256",
        "numberOfBytes": "32"
      },
      "t_uint8": {
        "encoding": "inplace",
        "label": "uint8",
        "numberOfBytes": "1"
      }
    }
  }
}