{
  "address": "0xB42Bdc5520a0c3F708F69B27358C78700eAB6b04",
  "abi": [
    {
      "inputs": [
        {
          "internalType": "address",
          "name": "mailbox",
          "type": "address"
        }
      ],
      "stateMutability": "nonpayable",
      "type": "constructor"
    },
    {
      "anonymous": false,
      "inputs": [
        {
          "indexed": false,
          "internalType": "address",
          "name": "previousAdmin",
          "type": "address"
        },
        {
          "indexed": false,
          "internalType": "address",
          "name": "newAdmin",
          "type": "address"
        }
      ],
      "name": "AdminChanged",
      "type": "event"
    },
    {
      "anonymous": false,
      "inputs": [
        {
          "indexed": true,
          "internalType": "address",
          "name": "beacon",
          "type": "address"
        }
      ],
      "name": "BeaconUpgraded",
      "type": "event"
    },
    {
      "anonymous": false,
      "inputs": [
        {
          "indexed": true,
          "internalType": "uint32",
          "name": "originDomain",
          "type": "uint32"
        },
        {
          "indexed": false,
          "internalType": "uint32",
          "name": "toDomain",
          "type": "uint32"
        },
        {
          "indexed": true,
          "internalType": "address",
          "name": "bridger",
          "type": "address"
        },
        {
          "indexed": false,
          "internalType": "address",
          "name": "recipient",
          "type": "address"
        },
        {
          "indexed": true,
          "internalType": "address",
          "name": "token",
          "type": "address"
        },
        {
          "indexed": false,
          "internalType": "uint256",
          "name": "amount",
          "type": "uint256"
        },
        {
          "indexed": false,
          "internalType": "bytes32",
          "name": "requesthash",
          "type": "bytes32"
        }
      ],
      "name": "BridgeRequestReceived",
      "type": "event"
    },
    {
      "anonymous": false,
      "inputs": [
        {
          "indexed": false,
          "internalType": "uint32",
          "name": "originDomain",
          "type": "uint32"
        },
        {
          "indexed": true,
          "internalType": "uint32",
          "name": "toDomain",
          "type": "uint32"
        },
        {
          "indexed": true,
          "internalType": "address",
          "name": "bridger",
          "type": "address"
        },
        {
          "indexed": false,
          "internalType": "address",
          "name": "recipient",
          "type": "address"
        },
        {
          "indexed": true,
          "internalType": "address",
          "name": "token",
          "type": "address"
        },
        {
          "indexed": false,
          "internalType": "uint256",
          "name": "amount",
          "type": "uint256"
        },
        {
          "indexed": false,
          "internalType": "uint256",
          "name": "nonce",
          "type": "uint256"
        },
        {
          "indexed": false,
          "internalType": "bytes32",
          "name": "requesthash",
          "type": "bytes32"
        }
      ],
      "name": "BridgeRequestSent",
      "type": "event"
    },
    {
      "anonymous": false,
      "inputs": [
        {
          "indexed": false,
          "internalType": "uint8",
          "name": "version",
          "type": "uint8"
        }
      ],
      "name": "Initialized",
      "type": "event"
    },
    {
      "anonymous": false,
      "inputs": [
        {
          "indexed": true,
          "internalType": "address",
          "name": "previousOwner",
          "type": "address"
        },
        {
          "indexed": true,
          "internalType": "address",
          "name": "newOwner",
          "type": "address"
        }
      ],
      "name": "OwnershipTransferred",
      "type": "event"
    },
    {
      "anonymous": false,
      "inputs": [
        {
          "indexed": false,
          "internalType": "address",
          "name": "account",
          "type": "address"
        }
      ],
      "name": "Paused",
      "type": "event"
    },
    {
      "anonymous": false,
      "inputs": [
        {
          "indexed": true,
          "internalType": "uint32",
          "name": "originDomain",
          "type": "uint32"
        },
        {
          "indexed": true,
          "internalType": "uint32",
          "name": "toDomain",
          "type": "uint32"
        },
        {
          "indexed": true,
          "internalType": "address",
          "name": "bridger",
          "type": "address"
        },
        {
          "indexed": false,
          "internalType": "address",
          "name": "recipient",
          "type": "address"
        },
        {
          "indexed": false,
          "internalType": "address[]",
          "name": "tokens",
          "type": "address[]"
        },
        {
          "indexed": false,
          "internalType": "uint256[]",
          "name": "amounts",
          "type": "uint256[]"
        },
        {
          "indexed": false,
          "internalType": "bytes32",
          "name": "requesthash",
          "type": "bytes32"
        }
      ],
      "name": "PoolRebalancingRequestReceived",
      "type": "event"
    },
    {
      "anonymous": false,
      "inputs": [
        {
          "indexed": true,
          "internalType": "uint32",
          "name": "originDomain",
          "type": "uint32"
        },
        {
          "indexed": true,
          "internalType": "uint32",
          "name": "toDomain",
          "type": "uint32"
        },
        {
          "indexed": true,
          "internalType": "address",
          "name": "bridger",
          "type": "address"
        },
        {
          "indexed": false,
          "internalType": "address",
          "name": "recipient",
          "type": "address"
        },
        {
          "indexed": false,
          "internalType": "address[]",
          "name": "tokens",
          "type": "address[]"
        },
        {
          "indexed": false,
          "internalType": "uint256[]",
          "name": "amounts",
          "type": "uint256[]"
        },
        {
          "indexed": false,
          "internalType": "uint256",
          "name": "nonce",
          "type": "uint256"
        },
        {
          "indexed": false,
          "internalType": "bytes32",
          "name": "requesthash",
          "type": "bytes32"
        }
      ],
      "name": "PoolRebalancingRequestSent",
      "type": "event"
    },
    {
      "anonymous": false,
      "inputs": [
        {
          "indexed": true,
          "internalType": "bytes32",
          "name": "role",
          "type": "bytes32"
        },
        {
          "indexed": true,
          "internalType": "bytes32",
          "name": "previousAdminRole",
          "type": "bytes32"
        },
        {
          "indexed": true,
          "internalType": "bytes32",
          "name": "newAdminRole",
          "type": "bytes32"
        }
      ],
      "name": "RoleAdminChanged",
      "type": "event"
    },
    {
      "anonymous": false,
      "inputs": [
        {
          "indexed": true,
          "internalType": "bytes32",
          "name": "role",
          "type": "bytes32"
        },
        {
          "indexed": true,
          "internalType": "address",
          "name": "account",
          "type": "address"
        },
        {
          "indexed": true,
          "internalType": "address",
          "name": "sender",
          "type": "address"
        }
      ],
      "name": "RoleGranted",
      "type": "event"
    },
    {
      "anonymous": false,
      "inputs": [
        {
          "indexed": true,
          "internalType": "bytes32",
          "name": "role",
          "type": "bytes32"
        },
        {
          "indexed": true,
          "internalType": "address",
          "name": "account",
          "type": "address"
        },
        {
          "indexed": true,
          "internalType": "address",
          "name": "sender",
          "type": "address"
        }
      ],
      "name": "RoleRevoked",
      "type": "event"
    },
    {
      "anonymous": false,
      "inputs": [
        {
          "indexed": true,
          "internalType": "address",
          "name": "homeTokenAddress",
          "type": "address"
        },
        {
          "indexed": true,
          "internalType": "address",
          "name": "remoteTokenAddress",
          "type": "address"
        },
        {
          "indexed": false,
          "internalType": "uint32",
          "name": "domainId",
          "type": "uint32"
        }
      ],
      "name": "TokenPairAdded",
      "type": "event"
    },
    {
      "anonymous": false,
      "inputs": [
        {
          "indexed": true,
          "internalType": "address",
          "name": "homeTokenAddress",
          "type": "address"
        },
        {
          "indexed": true,
          "internalType": "address",
          "name": "remoteTokenAddress",
          "type": "address"
        },
        {
          "indexed": false,
          "internalType": "uint32",
          "name": "domainId",
          "type": "uint32"
        }
      ],
      "name": "TokenPairRemoved",
      "type": "event"
    },
    {
      "anonymous": false,
      "inputs": [
        {
          "indexed": false,
          "internalType": "address",
          "name": "account",
          "type": "address"
        }
      ],
      "name": "Unpaused",
      "type": "event"
    },
    {
      "anonymous": false,
      "inputs": [
        {
          "indexed": true,
          "internalType": "address",
          "name": "implementation",
          "type": "address"
        }
      ],
      "name": "Upgraded",
      "type": "event"
    },
    {
      "inputs": [],
      "name": "BRIDGER_ROLE",
      "outputs": [
        {
          "internalType": "bytes32",
          "name": "",
          "type": "bytes32"
        }
      ],
      "stateMutability": "view",
      "type": "function"
    },
    {
      "inputs": [],
      "name": "DEFAULT_ADMIN_ROLE",
      "outputs": [
        {
          "internalType": "bytes32",
          "name": "",
          "type": "bytes32"
        }
      ],
      "stateMutability": "view",
      "type": "function"
    },
    {
      "inputs": [],
      "name": "DOMAIN_SEPARATOR",
      "outputs": [
        {
          "internalType": "bytes32",
          "name": "",
          "type": "bytes32"
        }
      ],
      "stateMutability": "view",
      "type": "function"
    },
    {
      "inputs": [],
      "name": "EIP712DomainHash",
      "outputs": [
        {
          "internalType": "bytes32",
          "name": "",
          "type": "bytes32"
        }
      ],
      "stateMutability": "view",
      "type": "function"
    },
    {
      "inputs": [],
      "name": "PAUSER_ROLE",
      "outputs": [
        {
          "internalType": "bytes32",
          "name": "",
          "type": "bytes32"
        }
      ],
      "stateMutability": "view",
      "type": "function"
    },
    {
      "inputs": [],
      "name": "VERSION",
      "outputs": [
        {
          "internalType": "string",
          "name": "",
          "type": "string"
        }
      ],
      "stateMutability": "view",
      "type": "function"
    },
    {
      "inputs": [],
      "name": "VERSION_RELEASE_CANDIDATE",
      "outputs": [
        {
          "internalType": "uint256",
          "name": "",
          "type": "uint256"
        }
      ],
      "stateMutability": "view",
      "type": "function"
    },
    {
      "inputs": [
        {
          "internalType": "address",
          "name": "homeToken",
          "type": "address"
        },
        {
          "internalType": "address",
          "name": "remoteToken",
          "type": "address"
        },
        {
          "internalType": "uint32",
          "name": "domain",
          "type": "uint32"
        }
      ],
      "name": "addTokenPair",
      "outputs": [],
      "stateMutability": "nonpayable",
      "type": "function"
    },
    {
      "inputs": [
        {
          "internalType": "address[]",
          "name": "homeTokens",
          "type": "address[]"
        },
        {
          "internalType": "address[]",
          "name": "remoteTokens_",
          "type": "address[]"
        },
        {
          "internalType": "uint32",
          "name": "domain",
          "type": "uint32"
        }
      ],
      "name": "batchAddTokenPair",
      "outputs": [],
      "stateMutability": "nonpayable",
      "type": "function"
    },
    {
      "inputs": [
        {
          "internalType": "uint32",
          "name": "destinationDomain",
          "type": "uint32"
        },
        {
          "internalType": "address[]",
          "name": "tokens",
          "type": "address[]"
        },
        {
          "internalType": "uint256[]",
          "name": "amounts",
          "type": "uint256[]"
        },
        {
          "internalType": "address",
          "name": "recipient",
          "type": "address"
        }
      ],
      "name": "bridgeTCO2s",
      "outputs": [],
      "stateMutability": "payable",
      "type": "function"
    },
    {
      "inputs": [],
      "name": "domains",
      "outputs": [
        {
          "internalType": "uint32[]",
          "name": "",
          "type": "uint32[]"
        }
      ],
      "stateMutability": "view",
      "type": "function"
    },
    {
      "inputs": [
        {
          "internalType": "uint32",
          "name": "_domain",
          "type": "uint32"
        },
        {
          "internalType": "bytes32",
          "name": "_router",
          "type": "bytes32"
        }
      ],
      "name": "enrollRemoteRouter",
      "outputs": [],
      "stateMutability": "nonpayable",
      "type": "function"
    },
    {
      "inputs": [
        {
          "internalType": "uint32[]",
          "name": "_domains",
          "type": "uint32[]"
        },
        {
          "internalType": "bytes32[]",
          "name": "_addresses",
          "type": "bytes32[]"
        }
      ],
      "name": "enrollRemoteRouters",
      "outputs": [],
      "stateMutability": "nonpayable",
      "type": "function"
    },
    {
      "inputs": [
        {
          "internalType": "bytes32",
          "name": "role",
          "type": "bytes32"
        }
      ],
      "name": "getRoleAdmin",
      "outputs": [
        {
          "internalType": "bytes32",
          "name": "",
          "type": "bytes32"
        }
      ],
      "stateMutability": "view",
      "type": "function"
    },
    {
      "inputs": [
        {
          "internalType": "bytes32",
          "name": "role",
          "type": "bytes32"
        },
        {
          "internalType": "address",
          "name": "account",
          "type": "address"
        }
      ],
      "name": "grantRole",
      "outputs": [],
      "stateMutability": "nonpayable",
      "type": "function"
    },
    {
      "inputs": [
        {
          "internalType": "uint32",
          "name": "_origin",
          "type": "uint32"
        },
        {
          "internalType": "bytes32",
          "name": "_sender",
          "type": "bytes32"
        },
        {
          "internalType": "bytes",
          "name": "_message",
          "type": "bytes"
        }
      ],
      "name": "handle",
      "outputs": [],
      "stateMutability": "payable",
      "type": "function"
    },
    {
      "inputs": [
        {
          "internalType": "bytes32",
          "name": "role",
          "type": "bytes32"
        },
        {
          "internalType": "address",
          "name": "account",
          "type": "address"
        }
      ],
      "name": "hasRole",
      "outputs": [
        {
          "internalType": "bool",
          "name": "",
          "type": "bool"
        }
      ],
      "stateMutability": "view",
      "type": "function"
    },
    {
      "inputs": [],
      "name": "hook",
      "outputs": [
        {
          "internalType": "contract IPostDispatchHook",
          "name": "",
          "type": "address"
        }
      ],
      "stateMutability": "view",
      "type": "function"
    },
    {
      "inputs": [
        {
          "internalType": "address",
          "name": "owner",
          "type": "address"
        },
        {
          "internalType": "address[]",
          "name": "accounts",
          "type": "address[]"
        },
        {
          "internalType": "bytes32[]",
          "name": "roles",
          "type": "bytes32[]"
        }
      ],
      "name": "initialize",
      "outputs": [],
      "stateMutability": "nonpayable",
      "type": "function"
    },
    {
      "inputs": [],
      "name": "interchainSecurityModule",
      "outputs": [
        {
          "internalType": "contract IInterchainSecurityModule",
          "name": "",
          "type": "address"
        }
      ],
      "stateMutability": "view",
      "type": "function"
    },
    {
      "inputs": [],
      "name": "localDomain",
      "outputs": [
        {
          "internalType": "uint32",
          "name": "",
          "type": "uint32"
        }
      ],
      "stateMutability": "view",
      "type": "function"
    },
    {
      "inputs": [],
      "name": "mailbox",
      "outputs": [
        {
          "internalType": "contract IMailbox",
          "name": "",
          "type": "address"
        }
      ],
      "stateMutability": "view",
      "type": "function"
    },
    {
      "inputs": [],
      "name": "nonce",
      "outputs": [
        {
          "internalType": "uint256",
          "name": "",
          "type": "uint256"
        }
      ],
      "stateMutability": "view",
      "type": "function"
    },
    {
      "inputs": [],
      "name": "owner",
      "outputs": [
        {
          "internalType": "address",
          "name": "",
          "type": "address"
        }
      ],
      "stateMutability": "view",
      "type": "function"
    },
    {
      "inputs": [],
      "name": "pause",
      "outputs": [],
      "stateMutability": "nonpayable",
      "type": "function"
    },
    {
      "inputs": [],
      "name": "paused",
      "outputs": [
        {
          "internalType": "bool",
          "name": "",
          "type": "bool"
        }
      ],
      "stateMutability": "view",
      "type": "function"
    },
    {
      "inputs": [],
      "name": "proxiableUUID",
      "outputs": [
        {
          "internalType": "bytes32",
          "name": "",
          "type": "bytes32"
        }
      ],
      "stateMutability": "view",
      "type": "function"
    },
    {
      "inputs": [
        {
          "internalType": "uint32",
          "name": "destinationDomain",
          "type": "uint32"
        },
        {
          "internalType": "address[]",
          "name": "tokens",
          "type": "address[]"
        },
        {
          "internalType": "uint256[]",
          "name": "amounts",
          "type": "uint256[]"
        },
        {
          "internalType": "address",
          "name": "recipient",
          "type": "address"
        }
      ],
      "name": "quoteBridgeTCO2sFee",
      "outputs": [
        {
          "internalType": "uint256",
          "name": "",
          "type": "uint256"
        }
      ],
      "stateMutability": "view",
      "type": "function"
    },
    {
      "inputs": [
        {
          "internalType": "uint32",
          "name": "destinationDomain",
          "type": "uint32"
        },
        {
          "internalType": "address",
          "name": "token",
          "type": "address"
        },
        {
          "internalType": "uint256",
          "name": "amount",
          "type": "uint256"
        },
        {
          "internalType": "address",
          "name": "recipient",
          "type": "address"
        }
      ],
      "name": "quoteTokenTransferFee",
      "outputs": [
        {
          "internalType": "uint256",
          "name": "",
          "type": "uint256"
        }
      ],
      "stateMutability": "view",
      "type": "function"
    },
    {
      "inputs": [
        {
          "internalType": "address",
          "name": "token",
          "type": "address"
        },
        {
          "internalType": "uint32",
          "name": "domain",
          "type": "uint32"
        }
      ],
      "name": "remoteTokens",
      "outputs": [
        {
          "components": [
            {
              "internalType": "address",
              "name": "tokenAddress",
              "type": "address"
            },
            {
              "internalType": "uint256",
              "name": "timer",
              "type": "uint256"
            }
          ],
          "internalType": "struct RemoteTokenInformation",
          "name": "",
          "type": "tuple"
        }
      ],
      "stateMutability": "view",
      "type": "function"
    },
    {
      "inputs": [],
      "name": "renounceOwnership",
      "outputs": [],
      "stateMutability": "nonpayable",
      "type": "function"
    },
    {
      "inputs": [
        {
          "internalType": "bytes32",
          "name": "role",
          "type": "bytes32"
        },
        {
          "internalType": "address",
          "name": "account",
          "type": "address"
        }
      ],
      "name": "renounceRole",
      "outputs": [],
      "stateMutability": "nonpayable",
      "type": "function"
    },
    {
      "inputs": [
        {
          "internalType": "bytes32",
          "name": "",
          "type": "bytes32"
        }
      ],
      "name": "requests",
      "outputs": [
        {
          "internalType": "bool",
          "name": "isReverted",
          "type": "bool"
        },
        {
          "internalType": "uint256",
          "name": "timestamp",
          "type": "uint256"
        },
        {
          "internalType": "enum BridgeRequestType",
          "name": "requestType",
          "type": "uint8"
        },
        {
          "internalType": "enum MessageType",
          "name": "messageType",
          "type": "uint8"
        }
      ],
      "stateMutability": "view",
      "type": "function"
    },
    {
      "inputs": [
        {
          "internalType": "bytes32",
          "name": "role",
          "type": "bytes32"
        },
        {
          "internalType": "address",
          "name": "account",
          "type": "address"
        }
      ],
      "name": "revokeRole",
      "outputs": [],
      "stateMutability": "nonpayable",
      "type": "function"
    },
    {
      "inputs": [
        {
          "internalType": "uint32",
          "name": "_domain",
          "type": "uint32"
        }
      ],
      "name": "routers",
      "outputs": [
        {
          "internalType": "bytes32",
          "name": "",
          "type": "bytes32"
        }
      ],
      "stateMutability": "view",
      "type": "function"
    },
    {
      "inputs": [
        {
          "internalType": "address",
          "name": "_hook",
          "type": "address"
        }
      ],
      "name": "setHook",
      "outputs": [],
      "stateMutability": "nonpayable",
      "type": "function"
    },
    {
      "inputs": [
        {
          "internalType": "address",
          "name": "_module",
          "type": "address"
        }
      ],
      "name": "setInterchainSecurityModule",
      "outputs": [],
      "stateMutability": "nonpayable",
      "type": "function"
    },
    {
      "inputs": [
        {
          "internalType": "bytes4",
          "name": "interfaceId",
          "type": "bytes4"
        }
      ],
      "name": "supportsInterface",
      "outputs": [
        {
          "internalType": "bool",
          "name": "",
          "type": "bool"
        }
      ],
      "stateMutability": "view",
      "type": "function"
    },
    {
      "inputs": [
        {
          "internalType": "address",
          "name": "newOwner",
          "type": "address"
        }
      ],
      "name": "transferOwnership",
      "outputs": [],
      "stateMutability": "nonpayable",
      "type": "function"
    },
    {
      "inputs": [
        {
          "internalType": "uint32",
          "name": "destinationDomain",
          "type": "uint32"
        },
        {
          "internalType": "address",
          "name": "token",
          "type": "address"
        },
        {
          "internalType": "uint256",
          "name": "amount",
          "type": "uint256"
        }
      ],
      "name": "transferTokens",
      "outputs": [],
      "stateMutability": "payable",
      "type": "function"
    },
    {
      "inputs": [
        {
          "internalType": "uint32",
          "name": "destinationDomain",
          "type": "uint32"
        },
        {
          "internalType": "address",
          "name": "token",
          "type": "address"
        },
        {
          "internalType": "uint256",
          "name": "amount",
          "type": "uint256"
        },
        {
          "internalType": "address",
          "name": "recipient",
          "type": "address"
        }
      ],
      "name": "transferTokensToRecipient",
      "outputs": [],
      "stateMutability": "payable",
      "type": "function"
    },
    {
      "inputs": [
        {
          "internalType": "uint32",
          "name": "_domain",
          "type": "uint32"
        }
      ],
      "name": "unenrollRemoteRouter",
      "outputs": [],
      "stateMutability": "nonpayable",
      "type": "function"
    },
    {
      "inputs": [
        {
          "internalType": "uint32[]",
          "name": "_domains",
          "type": "uint32[]"
        }
      ],
      "name": "unenrollRemoteRouters",
      "outputs": [],
      "stateMutability": "nonpayable",
      "type": "function"
    },
    {
      "inputs": [],
      "name": "unpause",
      "outputs": [],
      "stateMutability": "nonpayable",
      "type": "function"
    },
    {
      "inputs": [
        {
          "internalType": "address",
          "name": "newImplementation",
          "type": "address"
        }
      ],
      "name": "upgradeTo",
      "outputs": [],
      "stateMutability": "nonpayable",
      "type": "function"
    },
    {
      "inputs": [
        {
          "internalType": "address",
          "name": "newImplementation",
          "type": "address"
        },
        {
          "internalType": "bytes",
          "name": "data",
          "type": "bytes"
        }
      ],
      "name": "upgradeToAndCall",
      "outputs": [],
      "stateMutability": "payable",
      "type": "function"
    }
  ],
  "numDeployments": 3,
  "solcInputHash": "95d2f9d4973fec539020d0313940a7de",
  "bytecode": "0x60e0604052306080523480156200001557600080fd5b5060405162004c4838038062004c488339810160408190526200003891620002bc565b80808062000051816200013d60201b620019761760201c565b620000a35760405162461bcd60e51b815260206004820152601e60248201527f4d61696c626f78436c69656e743a20696e76616c6964206d61696c626f78000060448201526064015b60405180910390fd5b6001600160a01b03821660a08190526040805163234d8e3d60e21b81529051638d3638f4916004808201926020929091908290030181865afa158015620000ee573d6000803e3d6000fd5b505050506040513d601f19601f82011682018060405250810190620001149190620002ee565b63ffffffff1660c05262000128336200014c565b50620001369150506200019f565b5062000316565b6001600160a01b03163b151590565b61012d80546001600160a01b038381166001600160a01b0319831681179093556040519116919082907f8be0079c531659141344cd1fd0a4f28419497f9722a3daafe3b4186f6b6457e090600090a35050565b620001ab60ff620001ae565b50565b60008054610100900460ff161562000243578160ff166001148015620001e75750620001e5306200013d60201b620019761760201c565b155b6200023b5760405162461bcd60e51b815260206004820152602e602482015260008051602062004c2883398151915260448201526d191e481a5b9a5d1a585b1a5e995960921b60648201526084016200009a565b506000919050565b60005460ff808416911610620002a25760405162461bcd60e51b815260206004820152602e602482015260008051602062004c2883398151915260448201526d191e481a5b9a5d1a585b1a5e995960921b60648201526084016200009a565b506000805460ff191660ff92909216919091179055600190565b600060208284031215620002cf57600080fd5b81516001600160a01b0381168114620002e757600080fd5b9392505050565b6000602082840312156200030157600080fd5b815163ffffffff81168114620002e757600080fd5b60805160a05160c0516148a3620003856000396000818161057b01528181610ade01526115620152600081816107b5015281816110c101528181612d06015261305d015260008181610d0b01528181610d4b01528181610f4101528181610f81015261101001526148a36000f3fe60806040526004361061027d5760003560e01c80638d3638f41161014f578063d3f6c4f1116100c1578063e9198bf91161007a578063e9198bf91461086c578063efae508a1461088c578063f292e805146108ac578063f2fde38b146108bf578063f8d8353f146108df578063ffa1ad74146108ff57600080fd5b8063d3f6c4f114610790578063d5438eae146107a3578063d547741f146107d7578063d9e7e0b7146107f7578063de523cf314610817578063e63ab1e91461083857600080fd5b8063a217fddf11610113578063a217fddf1461066c578063affed0e014610681578063b49c53a714610698578063b7220e22146106b8578063bdaca27a146106d8578063c0d5f4471461077057600080fd5b80638d3638f4146105695780638da5cb5b146105b257806391d14854146105d157806394eda280146105f15780639d8669851461061157600080fd5b80633f4ba83a116101f35780636ca0b0d7116101ac5780636ca0b0d71461049d57806370722ced146104b2578063715018a6146104e657806371a15b38146104fb5780637f5a7c7b1461051b5780638456cb591461055457600080fd5b80633f4ba83a14610413578063440df4f4146104285780634f1ef2861461044a57806352d1902d1461045d57806356d5d475146104725780635c975abb1461048557600080fd5b80633456b29d116102455780633456b29d146103575780633644e5151461036a57806336568abe1461037f5780633659cfe61461039f5780633d75e451146103bf5780633dfd3873146103f357600080fd5b806301ffc9a7146102825780630e72cc06146102b7578063248a9ca3146102d95780632ead72f6146103175780632f2ff15d14610337575b600080fd5b34801561028e57600080fd5b506102a261029d3660046136d4565b61093d565b60405190151581526020015b60405180910390f35b3480156102c357600080fd5b506102d76102d236600461371e565b610974565b005b3480156102e557600080fd5b506103096102f436600461373b565b600090815260fb602052604090206001015490565b6040519081526020016102ae565b34801561032357600080fd5b50610309610332366004613766565b610a08565b34801561034357600080fd5b506102d7610352366004613783565b610a28565b6102d7610365366004613887565b610a52565b34801561037657600080fd5b50610309610c14565b34801561038b57600080fd5b506102d761039a366004613783565b610c83565b3480156103ab57600080fd5b506102d76103ba36600461371e565b610d01565b3480156103cb57600080fd5b506103097fc809a7fd521f10cdc3c068621a1c61d5fd9bb3f1502a773e53811bc248d919a881565b3480156103ff57600080fd5b506102d761040e36600461371e565b610de0565b34801561041f57600080fd5b506102d7610e6b565b34801561043457600080fd5b5061043d610f25565b6040516102ae919061396d565b6102d76104583660046139b7565b610f37565b34801561046957600080fd5b50610309611003565b6102d7610480366004613a5e565b6110b6565b34801561049157600080fd5b5060335460ff166102a2565b3480156104a957600080fd5b50610309600281565b3480156104be57600080fd5b506103097fc2f8787176b8ac6bf7215b4adcc1e069bf4ab82d9ab1df05a57a91d425935b6e81565b3480156104f257600080fd5b506102d76111b5565b34801561050757600080fd5b506102d7610516366004613b2a565b6111ea565b34801561052757600080fd5b5061015f5461053c906001600160a01b031681565b6040516001600160a01b0390911681526020016102ae565b34801561056057600080fd5b506102d7611268565b34801561057557600080fd5b5061059d7f000000000000000000000000000000000000000000000000000000000000000081565b60405163ffffffff90911681526020016102ae565b3480156105be57600080fd5b5061012d546001600160a01b031661053c565b3480156105dd57600080fd5b506102a26105ec366004613783565b6112fa565b3480156105fd57600080fd5b506102d761060c366004613b6b565b611325565b34801561061d57600080fd5b5061065c61062c36600461373b565b6101c66020526000908152604090208054600182015460029092015460ff91821692918181169161010090041684565b6040516102ae9493929190613c18565b34801561067857600080fd5b50610309600081565b34801561068d57600080fd5b506103096101c45481565b3480156106a457600080fd5b506102d76106b3366004613c4b565b611413565b3480156106c457600080fd5b506103096106d3366004613887565b611448565b3480156106e457600080fd5b5061074c6106f3366004613c77565b604080518082018252600080825260209182018190526001600160a01b0394851681526101c7825282812063ffffffff949094168152928152918190208151808301909252805490931681526001909201549082015290565b6040805182516001600160a01b0316815260209283015192810192909252016102ae565b34801561077c57600080fd5b506102d761078b366004613ca5565b611470565b6102d761079e366004613cf0565b6114a6565b3480156107af57600080fd5b5061053c7f000000000000000000000000000000000000000000000000000000000000000081565b3480156107e357600080fd5b506102d76107f2366004613783565b6115eb565b34801561080357600080fd5b50610309610812366004613cf0565b611610565b34801561082357600080fd5b506101605461053c906001600160a01b031681565b34801561084457600080fd5b506103097f65d7a28e3265b37a6474929f336521b332c1681b933f6cb9f3376673440d862a81565b34801561087857600080fd5b506102d7610887366004613d43565b611622565b34801561089857600080fd5b506102d76108a7366004613766565b6116f4565b6102d76108ba366004613dae565b611728565b3480156108cb57600080fd5b506102d76108da36600461371e565b611734565b3480156108eb57600080fd5b506102d76108fa366004613def565b6117cd565b34801561090b57600080fd5b50610930604051806040016040528060058152602001640322e312e360dc1b81525081565b6040516102ae9190613ec9565b60006001600160e01b03198216637965db0b60e01b148061096e57506301ffc9a760e01b6001600160e01b03198316145b92915050565b806001600160a01b0381163b15158061099457506001600160a01b038116155b6109b95760405162461bcd60e51b81526004016109b090613edc565b60405180910390fd5b61012d546001600160a01b031633146109e45760405162461bcd60e51b81526004016109b090613f23565b5061016080546001600160a01b0319166001600160a01b0392909216919091179055565b600080610a2061019163ffffffff8086169061198516565b949350505050565b600082815260fb6020526040902060010154610a438161199e565b610a4d83836119a8565b505050565b60335460ff1615610a755760405162461bcd60e51b81526004016109b090613f58565b7fc809a7fd521f10cdc3c068621a1c61d5fd9bb3f1502a773e53811bc248d919a8610a9f8161199e565b6000610aad86848787611a2e565b90506000610abe8785888886611af0565b9050610aca8782611cb4565b50336001600160a01b03168763ffffffff167f000000000000000000000000000000000000000000000000000000000000000063ffffffff167f30c7996a02aac74afe5a5524a67078e755366c4020290c22bea20ff36ddd8587878a8a6101c45489604051610b3d959493929190613ff6565b60405180910390a460005b8651811015610c0a57868181518110610b6357610b63614041565b60200260200101516001600160a01b03166374f4f54733888481518110610b8c57610b8c614041565b60200260200101516040518363ffffffff1660e01b8152600401610bc59291906001600160a01b03929092168252602082015260400190565b600060405180830381600087803b158015610bdf57600080fd5b505af1158015610bf3573d6000803e3d6000fd5b505050508080610c029061406d565b915050610b48565b5050505050505050565b60007fc2f8787176b8ac6bf7215b4adcc1e069bf4ab82d9ab1df05a57a91d425935b6e604051806040016040528060058152602001640322e312e360dc1b81525046604051602001610c6893929190614086565b60405160208183030381529060405280519060200120905090565b6001600160a01b0381163314610cf35760405162461bcd60e51b815260206004820152602f60248201527f416363657373436f6e74726f6c3a2063616e206f6e6c792072656e6f756e636560448201526e103937b632b9903337b91039b2b63360891b60648201526084016109b0565b610cfd8282611cc8565b5050565b6001600160a01b037f0000000000000000000000000000000000000000000000000000000000000000163003610d495760405162461bcd60e51b81526004016109b0906140e3565b7f00000000000000000000000000000000000000000000000000000000000000006001600160a01b0316610d92600080516020614827833981519152546001600160a01b031690565b6001600160a01b031614610db85760405162461bcd60e51b81526004016109b09061412f565b610dc181611d2f565b60408051600080825260208201909252610ddd91839190611d5a565b50565b806001600160a01b0381163b151580610e0057506001600160a01b038116155b610e1c5760405162461bcd60e51b81526004016109b090613edc565b61012d546001600160a01b03163314610e475760405162461bcd60e51b81526004016109b090613f23565b5061015f80546001600160a01b0319166001600160a01b0392909216919091179055565b610e957f65d7a28e3265b37a6474929f336521b332c1681b933f6cb9f3376673440d862a336112fa565b610ed25760405162461bcd60e51b815260206004820152600e60248201526d139bdd08185d5d1a1bdc9a5e995960921b60448201526064016109b0565b60335460ff16610f1b5760405162461bcd60e51b815260206004820152601460248201527314185d5cd8589b194e881b9bdd081c185d5cd95960621b60448201526064016109b0565b610f23611ec5565b565b6060610f32610191611f58565b905090565b6001600160a01b037f0000000000000000000000000000000000000000000000000000000000000000163003610f7f5760405162461bcd60e51b81526004016109b0906140e3565b7f00000000000000000000000000000000000000000000000000000000000000006001600160a01b0316610fc8600080516020614827833981519152546001600160a01b031690565b6001600160a01b031614610fee5760405162461bcd60e51b81526004016109b09061412f565b610ff782611d2f565b610cfd82826001611d5a565b6000306001600160a01b037f000000000000000000000000000000000000000000000000000000000000000016146110a35760405162461bcd60e51b815260206004820152603860248201527f555550535570677261646561626c653a206d757374206e6f742062652063616c60448201527f6c6564207468726f7567682064656c656761746563616c6c000000000000000060648201526084016109b0565b5060008051602061482783398151915290565b336001600160a01b037f000000000000000000000000000000000000000000000000000000000000000016146111385760405162461bcd60e51b815260206004820152602160248201527f4d61696c626f78436c69656e743a2073656e646572206e6f74206d61696c626f6044820152600f60fb1b60648201526084016109b0565b600061114385612012565b90508381146111a25760405162461bcd60e51b815260206004820152602560248201527f456e726f6c6c656420726f7574657220646f6573206e6f74206d61746368207360448201526432b73232b960d91b60648201526084016109b0565b6111ae8585858561205f565b5050505050565b61012d546001600160a01b031633146111e05760405162461bcd60e51b81526004016109b090613f23565b610f23600061216b565b61012d546001600160a01b031633146112155760405162461bcd60e51b81526004016109b090613f23565b8060005b818110156112625761125084848381811061123657611236614041565b905060200201602081019061124b9190613766565b6121be565b61125b60018261417b565b9050611219565b50505050565b6112927f65d7a28e3265b37a6474929f336521b332c1681b933f6cb9f3376673440d862a336112fa565b6112cf5760405162461bcd60e51b815260206004820152600e60248201526d139bdd08185d5d1a1bdc9a5e995960921b60448201526064016109b0565b60335460ff16156112f25760405162461bcd60e51b81526004016109b090613f58565b610f236121fa565b600091825260fb602090815260408084206001600160a01b0393909316845291905290205460ff1690565b61012d546001600160a01b031633146113505760405162461bcd60e51b81526004016109b090613f23565b838281146113985760405162461bcd60e51b8152602060048201526015602482015274082e4e4c2f240d8cadccee8d040dad2e6dac2e8c6d605b1b60448201526064016109b0565b60005b8181101561140a576113fa8787838181106113b8576113b8614041565b90506020020160208101906113cd919061371e565b8686848181106113df576113df614041565b90506020020160208101906113f4919061371e565b85612252565b6114038161406d565b905061139b565b50505050505050565b61012d546001600160a01b0316331461143e5760405162461bcd60e51b81526004016109b090613f23565b610cfd82826123f0565b60008061145a86848787600019611af0565b90506114668682612407565b9695505050505050565b61012d546001600160a01b0316331461149b5760405162461bcd60e51b81526004016109b090613f23565b610a4d838383612252565b60335460ff16156114c95760405162461bcd60e51b81526004016109b090613f58565b60006114d785858486612420565b905060006114e88686868686612455565b90506114f48682611cb4565b506040516374f4f54760e01b8152336004820152602481018590526001600160a01b038616906374f4f54790604401600060405180830381600087803b15801561153d57600080fd5b505af1158015611551573d6000803e3d6000fd5b50506101c4546040805163ffffffff7f0000000000000000000000000000000000000000000000000000000000000000811682526001600160a01b0389811660208401529282018a90526060820193909352608081018790529089169350339250908916907fb967a159106e693bcb8298f42c743d6a70b66535ae64bdaf9710db69156984c69060a00160405180910390a4505050505050565b600082815260fb60205260409020600101546116068161199e565b610a4d8383611cc8565b60008061145a86868686600019612455565b61012d546001600160a01b0316331461164d5760405162461bcd60e51b81526004016109b090613f23565b8281146116865760405162461bcd60e51b8152602060048201526007602482015266042d8cadccee8d60cb1b60448201526064016109b0565b8260005b818110156116ec576116da8686838181106116a7576116a7614041565b90506020020160208101906116bc9190613766565b8585848181106116ce576116ce614041565b905060200201356123f0565b6116e560018261417b565b905061168a565b505050505050565b61012d546001600160a01b0316331461171f5760405162461bcd60e51b81526004016109b090613f23565b610ddd816121be565b610a4d838383336114a6565b61012d546001600160a01b0316331461175f5760405162461bcd60e51b81526004016109b090613f23565b6001600160a01b0381166117c45760405162461bcd60e51b815260206004820152602660248201527f4f776e61626c653a206e6577206f776e657220697320746865207a65726f206160448201526564647265737360d01b60648201526084016109b0565b610ddd8161216b565b60006117d96001612506565b905080156117f1576000805461ff0019166101001790555b8382146118385760405162461bcd60e51b8152602060048201526015602482015274082e4e4c2f240d8cadccee8d040dad2e6dac2e8c6d605b1b60448201526064016109b0565b61184460008088612593565b61184c6125dd565b61185461260c565b61185c61260c565b6000805b858110156118e5576118b085858381811061187d5761187d614041565b9050602002013588888481811061189657611896614041565b90506020020160208101906118ab919061371e565b6119a8565b60008585838181106118c4576118c4614041565b90506020020135036118d557600191505b6118de8161406d565b9050611860565b50806119285760405162461bcd60e51b8152602060048201526012602482015271139bc818591b5a5b881cdc1958da599a595960721b60448201526064016109b0565b5080156116ec576000805461ff0019169055604051600181527f7f26b83ff96e1f2b6a682f133852f6798a09c465da95921460cefb38474024989060200160405180910390a1505050505050565b6001600160a01b03163b151590565b6000806119928484612633565b915091505b9250929050565b610ddd813361266d565b6119b282826112fa565b610cfd57600082815260fb602090815260408083206001600160a01b03851684529091529020805460ff191660011790556119ea3390565b6001600160a01b0316816001600160a01b0316837f2f8788117e7eff1d82e926ec794901d17c78024a50270940304540a733656f0d60405160405180910390a45050565b6000611a3c848484886126d1565b604080516080810182526000815242602082015291925081016001815260200160015b905260008281526101c660209081526040918290208351815490151560ff199182161782559184015160018083019190915592840151600280830180549395929490931691908490811115611ab657611ab6613bee565b0217905550606082015160028201805461ff001916610100836001811115611ae057611ae0613bee565b0217905550905050949350505050565b82516060906000816001600160401b03811115611b0f57611b0f6137b3565b604051908082528060200260200182016040528015611b38578160200160208202803683370190505b50905060005b82811015611c795760006101c76000898481518110611b5f57611b5f614041565b6020908102919091018101516001600160a01b039081168352828201939093526040918201600090812063ffffffff8f168252909152205416905080611be15760405162461bcd60e51b81526020600482015260176024820152761c995b5bdd19481d1bdad95b881b9bdd081b585c1c1959604a1b60448201526064016109b0565b6000878381518110611bf557611bf5614041565b602002602001015111611c3b5760405162461bcd60e51b815260206004820152600e60248201526d1a5b9d985b1a5908185b5bdd5b9d60921b60448201526064016109b0565b80838381518110611c4e57611c4e614041565b6001600160a01b03909216602092830291909101909101525080611c718161406d565b915050611b3e565b506001338883888c89604051602001611c989796959493929190614193565b6040516020818303038152906040529250505095945050505050565b6000611cc18334846127a1565b9392505050565b611cd282826112fa565b15610cfd57600082815260fb602090815260408083206001600160a01b0385168085529252808320805460ff1916905551339285917ff6391f5c32d9c69d2a47ea670b442974b53935d1edc7fd64eb21e047a839171b9190a45050565b61012d546001600160a01b03163314610ddd5760405162461bcd60e51b81526004016109b090613f23565b7f4910fdfa16fed3260ed0e7147f7cc6da11a60208b5b9406d12a635614ffd91435460ff1615611d8d57610a4d836127bb565b826001600160a01b03166352d1902d6040518163ffffffff1660e01b8152600401602060405180830381865afa925050508015611de7575060408051601f3d908101601f19168201909252611de4918101906141fb565b60015b611e4a5760405162461bcd60e51b815260206004820152602e60248201527f45524331393637557067726164653a206e657720696d706c656d656e7461746960448201526d6f6e206973206e6f74205555505360901b60648201526084016109b0565b6000805160206148278339815191528114611eb95760405162461bcd60e51b815260206004820152602960248201527f45524331393637557067726164653a20756e737570706f727465642070726f786044820152681a58589b195555525160ba1b60648201526084016109b0565b50610a4d838383612857565b60335460ff16611f0e5760405162461bcd60e51b815260206004820152601460248201527314185d5cd8589b194e881b9bdd081c185d5cd95960621b60448201526064016109b0565b6033805460ff191690557f5db9ee0a495bf2e6ff9c91a7834c1ba4fdd244a5e8aa4e537bd38aeae4b073aa335b6040516001600160a01b03909116815260200160405180910390a1565b60606000611f658361287c565b905080516001600160401b03811115611f8057611f806137b3565b604051908082528060200260200182016040528015611fa9578160200160208202803683370190505b50915060005b815181101561200b57818181518110611fca57611fca614041565b6020026020010151838281518110611fe457611fe4614041565b63ffffffff90921660209283029190910190910152806120038161406d565b915050611faf565b5050919050565b6000808061202b61019163ffffffff8087169061198516565b915091508161203985612916565b906120575760405162461bcd60e51b81526004016109b09190613ec9565b509392505050565b60335460ff16156120825760405162461bcd60e51b81526004016109b090613f58565b600061209082840184614223565b905060ff81166120df576120da8584848080601f01602080910402602001604051908101604052809392919081815260200183838082843760009201919091525061294d92505050565b6111ae565b60001960ff82160161212b576120da8584848080601f016020809104026020016040519081016040528093929190818152602001838380828437600092019190915250612a6792505050565b60405162461bcd60e51b81526020600482015260156024820152742ab739bab83837b93a32b21027b832b930ba34b7b760591b60448201526064016109b0565b61012d80546001600160a01b038381166001600160a01b0319831681179093556040519116919082907f8be0079c531659141344cd1fd0a4f28419497f9722a3daafe3b4186f6b6457e090600090a35050565b6121d361019163ffffffff80841690612ceb16565b6121dc82612916565b90610cfd5760405162461bcd60e51b81526004016109b09190613ec9565b60335460ff161561221d5760405162461bcd60e51b81526004016109b090613f58565b6033805460ff191660011790557f62e78cea01bee320cd4e420270b5ea74000d11b0c9f74754ebdbfc544b05a258611f3b3390565b6001600160a01b0383166122955760405162461bcd60e51b815260206004820152600a60248201526910b437b6b2aa37b5b2b760b11b60448201526064016109b0565b6001600160a01b0380841660009081526101c76020908152604080832063ffffffff861680855281845282852080548451808601909552898816808652428688019081529390975292909452915185166001600160a01b031982161783559051600190920191909155909116906123a1576001600160a01b0381166123535760405162461bcd60e51b81526020600482015260146024820152731a5b9d985b1a59081c185a5c881c995b5bdd985b60621b60448201526064016109b0565b60405163ffffffff831681526001600160a01b0380831691908616907f9562b33b08bb74534647f3dff5a674dcd7d10854e517bd258eb5e9d3d4c2c6b29060200160405180910390a3611262565b60405163ffffffff831681526001600160a01b0380851691908616907f1a954a85d933c5418c8c7edb1605fff69c5d182538b3a5299682a97f788311b49060200160405180910390a350505050565b610cfd61019163ffffffff808516908490612cf716565b60008061241384612012565b9050610a20848285612d02565b600061242e84848488612dbe565b60408051608081018252600081524260208201529192508101600181526020016000611a5f565b6001600160a01b0380851660009081526101c76020908152604080832063ffffffff8a16845290915290205460609116806124cc5760405162461bcd60e51b81526020600482015260176024820152761c995b5bdd19481d1bdad95b881b9bdd081b585c1c1959604a1b60448201526064016109b0565b6000338583888b886040516020016124ea9796959493929190614240565b6040516020818303038152906040529150505b95945050505050565b60008054610100900460ff161561254d578160ff1660011480156125295750303b155b6125455760405162461bcd60e51b81526004016109b09061428e565b506000919050565b60005460ff8084169116106125745760405162461bcd60e51b81526004016109b09061428e565b506000805460ff191660ff92909216919091179055600190565b919050565b600054610100900460ff166125ba5760405162461bcd60e51b81526004016109b0906142dc565b6125c2612e50565b6125cb83610de0565b6125d482610974565b610a4d8161216b565b600054610100900460ff166126045760405162461bcd60e51b81526004016109b0906142dc565b610f23612e7f565b600054610100900460ff16610f235760405162461bcd60e51b81526004016109b0906142dc565b6000818152600283016020526040812054819080612662576126558585612eb2565b9250600091506119979050565b600192509050611997565b61267782826112fa565b610cfd5761268f816001600160a01b03166014612ebe565b61269a836020612ebe565b6040516020016126ab929190614327565b60408051601f198184030181529082905262461bcd60e51b82526109b091600401613ec9565b82516000906060825b8281101561274d57818782815181106126f5576126f5614041565b602002602001015187838151811061270f5761270f614041565b60200260200101516040516020016127299392919061439c565b604051602081830303815290604052915080806127459061406d565b9150506126da565b5061275d6101c480546001019055565b612765610c14565b6101c45460405161277f92918a91859189916020016143db565b6040516020818303038152906040528051906020012092505050949350505050565b6000806127ad85612012565b90506124fd85828686613059565b6001600160a01b0381163b6128285760405162461bcd60e51b815260206004820152602d60248201527f455243313936373a206e657720696d706c656d656e746174696f6e206973206e60448201526c1bdd08184818dbdb9d1c9858dd609a1b60648201526084016109b0565b60008051602061482783398151915280546001600160a01b0319166001600160a01b0392909216919091179055565b61286083613118565b60008251118061286d5750805b15610a4d576112628383613158565b6060600061288983613243565b9050806001600160401b038111156128a3576128a36137b3565b6040519080825280602002602001820160405280156128cc578160200160208202803683370190505b50915060005b8181101561200b576128e4848261324e565b60001c8382815181106128f9576128f9614041565b60209081029190910101528061290e8161406d565b9150506128d2565b60606129278263ffffffff1661325a565b604051602001612937919061443b565b6040516020818303038152906040529050919050565b60008060008060008060008780602001905181019061296c919061448b565b9650965096509650965096509650612998818860ff16600181111561299357612993613bee565b61335a565b6040516346154c9f60e11b81526001600160a01b03868116600483015260248201859052851690638c2a993e90604401600060405180830381600087803b1580156129e257600080fd5b505af11580156129f6573d6000803e3d6000fd5b50506040805163ffffffff86811682526001600160a01b038a811660208401528284018990526060830187905292518984169550928b1693508d16917ff475ec3ebd0a821ced53bf4d9fb1b6e5110cdf24015f2a590842816d2aced35d9181900360800190a4505050505050505050565b600080600080600080600087806020019051810190612a86919061456e565b9650965096509650965096509650612aad818860ff16600181111561299357612993613bee565b835160005b81811015612c29576000868281518110612ace57612ace614041565b602002602001015190506000868381518110612aec57612aec614041565b60209081029190910101516040516346154c9f60e11b81523060048201526024810182905290915082906001600160a01b03821690638c2a993e90604401600060405180830381600087803b158015612b4457600080fd5b505af1158015612b58573d6000803e3d6000fd5b505060405163095ea7b360e01b81526001600160a01b038d81166004830152602482018690528416925063095ea7b391506044016020604051808303816000875af1158015612bab573d6000803e3d6000fd5b505050506040513d601f19601f82011682018060405250810190612bcf9190614688565b612c135760405162461bcd60e51b8152602060048201526015602482015274185c1c1c9bdd985b081d5b9cdd58d8d95cdcd99d5b605a1b60448201526064016109b0565b5050508080612c219061406d565b915050612ab2565b506040516347202c0960e11b81526001600160a01b03871690638e40581290612c5890889088906004016146aa565b600060405180830381600087803b158015612c7257600080fd5b505af1158015612c86573d6000803e3d6000fd5b50505050866001600160a01b03168363ffffffff168b63ffffffff167f9b487637b9c49858ddbb3b811d4d1d020220e23d31d8da2e18f0df625f77166b89898988604051612cd794939291906146cf565b60405180910390a450505050505050505050565b6000611cc1838361348b565b6112628383836134a8565b60007f00000000000000000000000000000000000000000000000000000000000000006001600160a01b03166381d2ea95858585612d4b60408051602081019091526000815290565b61015f546040516001600160e01b031960e088901b168152612d7d95949392916001600160a01b031690600401614717565b602060405180830381865afa158015612d9a573d6000803e3d6000fd5b505050506040513d601f19601f82011682018060405250810190610a2091906141fb565b6000612dcf6101c480546001019055565b612dd7610c14565b6101c4546040805160208101939093526bffffffffffffffffffffffff19606089811b8216928501929092529087901b166054830152606882018590526001600160e01b031960e085901b166088830152608c82015260ac01604051602081830303815290604052805190602001209050949350505050565b600054610100900460ff16612e775760405162461bcd60e51b81526004016109b0906142dc565b610f236134c5565b600054610100900460ff16612ea65760405162461bcd60e51b81526004016109b0906142dc565b6033805460ff19169055565b6000611cc183836134f5565b60606000612ecd836002614769565b612ed890600261417b565b6001600160401b03811115612eef57612eef6137b3565b6040519080825280601f01601f191660200182016040528015612f19576020820181803683370190505b509050600360fc1b81600081518110612f3457612f34614041565b60200101906001600160f81b031916908160001a905350600f60fb1b81600181518110612f6357612f63614041565b60200101906001600160f81b031916908160001a9053506000612f87846002614769565b612f9290600161417b565b90505b600181111561300a576f181899199a1a9b1b9c1cb0b131b232b360811b85600f1660108110612fc657612fc6614041565b1a60f81b828281518110612fdc57612fdc614041565b60200101906001600160f81b031916908160001a90535060049490941c9361300381614788565b9050612f95565b508315611cc15760405162461bcd60e51b815260206004820181905260248201527f537472696e67733a20686578206c656e67746820696e73756666696369656e7460448201526064016109b0565b60007f00000000000000000000000000000000000000000000000000000000000000006001600160a01b03166310b83dc0848787866130a360408051602081019091526000815290565b61015f546040516001600160e01b031960e089901b1681526130d595949392916001600160a01b031690600401614717565b60206040518083038185885af11580156130f3573d6000803e3d6000fd5b50505050506040513d601f19601f820116820180604052508101906124fd91906141fb565b613121816127bb565b6040516001600160a01b038216907fbc7cd75a20ee27fd9adebab32041f755214dbc6bffa90cc0225b39da2e5c2d3b90600090a250565b60606001600160a01b0383163b6131c05760405162461bcd60e51b815260206004820152602660248201527f416464726573733a2064656c65676174652063616c6c20746f206e6f6e2d636f6044820152651b9d1c9858dd60d21b60648201526084016109b0565b600080846001600160a01b0316846040516131db919061479f565b600060405180830381855af49150503d8060008114613216576040519150601f19603f3d011682016040523d82523d6000602084013e61321b565b606091505b50915091506124fd82826040518060600160405280602781526020016148476027913961350d565b600061096e82613546565b6000611cc18383613550565b6060816000036132815750506040805180820190915260018152600360fc1b602082015290565b8160005b81156132ab57806132958161406d565b91506132a49050600a836147d1565b9150613285565b6000816001600160401b038111156132c5576132c56137b3565b6040519080825280601f01601f1916602001820160405280156132ef576020820181803683370190505b5090505b8415610a20576133046001836147e5565b9150613311600a866147fc565b61331c90603061417b565b60f81b81838151811061333157613331614041565b60200101906001600160f81b031916908160001a905350613353600a866147d1565b94506132f3565b60008281526101c66020526040812060029081015460ff169081111561338257613382613bee565b146133cf5760405162461bcd60e51b815260206004820152601760248201527f427269646765205265717565737420457865637574656400000000000000000060448201526064016109b0565b6040805160808101825260008152426020820152908101600281526020018260018111156133ff576133ff613bee565b905260008381526101c660209081526040918290208351815490151560ff19918216178255918401516001808301919091559284015160028083018054939592949093169190849081111561345657613456613bee565b0217905550606082015160028201805461ff00191661010083600181111561348057613480613bee565b021790555050505050565b60008181526002830160205260408120819055611cc1838361357a565b60008281526002840160205260408120829055610a208484613586565b600054610100900460ff166134ec5760405162461bcd60e51b81526004016109b0906142dc565b610f233361216b565b60008181526001830160205260408120541515611cc1565b6060831561351c575081611cc1565b82511561352c5782518084602001fd5b8160405162461bcd60e51b81526004016109b09190613ec9565b600061096e825490565b600082600001828154811061356757613567614041565b9060005260206000200154905092915050565b6000611cc18383613592565b6000611cc18383613685565b6000818152600183016020526040812054801561367b5760006135b66001836147e5565b85549091506000906135ca906001906147e5565b905081811461362f5760008660000182815481106135ea576135ea614041565b906000526020600020015490508087600001848154811061360d5761360d614041565b6000918252602080832090910192909255918252600188019052604090208390555b855486908061364057613640614810565b60019003818190600052602060002001600090559055856001016000868152602001908152602001600020600090556001935050505061096e565b600091505061096e565b60008181526001830160205260408120546136cc5750815460018181018455600084815260208082209093018490558454848252828601909352604090209190915561096e565b50600061096e565b6000602082840312156136e657600080fd5b81356001600160e01b031981168114611cc157600080fd5b6001600160a01b0381168114610ddd57600080fd5b803561258e816136fe565b60006020828403121561373057600080fd5b8135611cc1816136fe565b60006020828403121561374d57600080fd5b5035919050565b63ffffffff81168114610ddd57600080fd5b60006020828403121561377857600080fd5b8135611cc181613754565b6000806040838503121561379657600080fd5b8235915060208301356137a8816136fe565b809150509250929050565b634e487b7160e01b600052604160045260246000fd5b604051601f8201601f191681016001600160401b03811182821017156137f1576137f16137b3565b604052919050565b60006001600160401b03821115613812576138126137b3565b5060051b60200190565b600082601f83011261382d57600080fd5b8135602061384261383d836137f9565b6137c9565b82815260059290921b8401810191818101908684111561386157600080fd5b8286015b8481101561387c5780358352918301918301613865565b509695505050505050565b6000806000806080858703121561389d57600080fd5b84356138a881613754565b93506020858101356001600160401b03808211156138c557600080fd5b818801915088601f8301126138d957600080fd5b81356138e761383d826137f9565b81815260059190911b8301840190848101908b83111561390657600080fd5b938501935b8285101561392d57843561391e816136fe565b8252938501939085019061390b565b97505050604088013592508083111561394557600080fd5b50506139538782880161381c565b92505061396260608601613713565b905092959194509250565b6020808252825182820181905260009190848201906040850190845b818110156139ab57835163ffffffff1683529284019291840191600101613989565b50909695505050505050565b600080604083850312156139ca57600080fd5b82356139d5816136fe565b91506020838101356001600160401b03808211156139f257600080fd5b818601915086601f830112613a0657600080fd5b813581811115613a1857613a186137b3565b613a2a601f8201601f191685016137c9565b91508082528784828501011115613a4057600080fd5b80848401858401376000848284010152508093505050509250929050565b60008060008060608587031215613a7457600080fd5b8435613a7f81613754565b93506020850135925060408501356001600160401b0380821115613aa257600080fd5b818701915087601f830112613ab657600080fd5b813581811115613ac557600080fd5b886020828501011115613ad757600080fd5b95989497505060200194505050565b60008083601f840112613af857600080fd5b5081356001600160401b03811115613b0f57600080fd5b6020830191508360208260051b850101111561199757600080fd5b60008060208385031215613b3d57600080fd5b82356001600160401b03811115613b5357600080fd5b613b5f85828601613ae6565b90969095509350505050565b600080600080600060608688031215613b8357600080fd5b85356001600160401b0380821115613b9a57600080fd5b613ba689838a01613ae6565b90975095506020880135915080821115613bbf57600080fd5b50613bcc88828901613ae6565b9094509250506040860135613be081613754565b809150509295509295909350565b634e487b7160e01b600052602160045260246000fd5b60028110613c1457613c14613bee565b9052565b8415158152602081018490526080810160038410613c3857613c38613bee565b8360408301526124fd6060830184613c04565b60008060408385031215613c5e57600080fd5b8235613c6981613754565b946020939093013593505050565b60008060408385031215613c8a57600080fd5b8235613c95816136fe565b915060208301356137a881613754565b600080600060608486031215613cba57600080fd5b8335613cc5816136fe565b92506020840135613cd5816136fe565b91506040840135613ce581613754565b809150509250925092565b60008060008060808587031215613d0657600080fd5b8435613d1181613754565b93506020850135613d21816136fe565b9250604085013591506060850135613d38816136fe565b939692955090935050565b60008060008060408587031215613d5957600080fd5b84356001600160401b0380821115613d7057600080fd5b613d7c88838901613ae6565b90965094506020870135915080821115613d9557600080fd5b50613da287828801613ae6565b95989497509550505050565b600080600060608486031215613dc357600080fd5b8335613dce81613754565b92506020840135613dde816136fe565b929592945050506040919091013590565b600080600080600060608688031215613e0757600080fd5b8535613e12816136fe565b945060208601356001600160401b0380821115613e2e57600080fd5b613e3a89838a01613ae6565b90965094506040880135915080821115613e5357600080fd5b50613e6088828901613ae6565b969995985093965092949392505050565b60005b83811015613e8c578181015183820152602001613e74565b838111156112625750506000910152565b60008151808452613eb5816020860160208601613e71565b601f01601f19169290920160200192915050565b602081526000611cc16020830184613e9d565b60208082526027908201527f4d61696c626f78436c69656e743a20696e76616c696420636f6e74726163742060408201526673657474696e6760c81b606082015260800190565b6020808252818101527f4f776e61626c653a2063616c6c6572206973206e6f7420746865206f776e6572604082015260600190565b60208082526010908201526f14185d5cd8589b194e881c185d5cd95960821b604082015260600190565b600081518084526020808501945080840160005b83811015613fbb5781516001600160a01b031687529582019590820190600101613f96565b509495945050505050565b600081518084526020808501945080840160005b83811015613fbb57815187529582019590820190600101613fda565b6001600160a01b038616815260a06020820181905260009061401a90830187613f82565b828103604084015261402c8187613fc6565b60608401959095525050608001529392505050565b634e487b7160e01b600052603260045260246000fd5b634e487b7160e01b600052601160045260246000fd5b60006001820161407f5761407f614057565b5060010190565b83815260806020820152601960808201527f546f7563616e43726f7373636861696e4d657373656e6765720000000000000060a082015260c0604082015260006140d360c0830185613e9d565b9050826060830152949350505050565b6020808252602c908201527f46756e6374696f6e206d7573742062652063616c6c6564207468726f7567682060408201526b19195b1959d85d1958d85b1b60a21b606082015260800190565b6020808252602c908201527f46756e6374696f6e206d7573742062652063616c6c6564207468726f7567682060408201526b6163746976652070726f787960a01b606082015260800190565b6000821982111561418e5761418e614057565b500190565b61419d8189613c04565b6001600160a01b0387811660208301528616604082015260e0606082018190526000906141cc90830187613f82565b82810360808401526141de8187613fc6565b63ffffffff9590951660a0840152505060c0015295945050505050565b60006020828403121561420d57600080fd5b5051919050565b60ff81168114610ddd57600080fd5b60006020828403121561423557600080fd5b8135611cc181614214565b60e0810161424e828a613c04565b6001600160a01b0397881660208301529587166040820152939095166060840152608083019190915263ffffffff1660a082015260c00191909152919050565b6020808252602e908201527f496e697469616c697a61626c653a20636f6e747261637420697320616c72656160408201526d191e481a5b9a5d1a585b1a5e995960921b606082015260800190565b6020808252602b908201527f496e697469616c697a61626c653a20636f6e7472616374206973206e6f74206960408201526a6e697469616c697a696e6760a81b606082015260800190565b7f416363657373436f6e74726f6c3a206163636f756e742000000000000000000081526000835161435f816017850160208801613e71565b7001034b99036b4b9b9b4b733903937b6329607d1b6017918401918201528351614390816028840160208801613e71565b01602801949350505050565b600084516143ae818460208901613e71565b60609490941b6bffffffffffffffffffffffff191691909301908152601481019190915260340192915050565b8581526bffffffffffffffffffffffff198560601b1660208201526000845161440b816034850160208901613e71565b60e09490941b6001600160e01b031916603492909401918201939093526038810191909152605801949350505050565b7f4e6f20726f7574657220656e726f6c6c656420666f7220646f6d61696e3a200081526000825161447381601f850160208701613e71565b91909101601f0192915050565b805161258e81613754565b600080600080600080600060e0888a0312156144a657600080fd5b87516144b181614214565b60208901519097506144c2816136fe565b60408901519096506144d3816136fe565b60608901519095506144e4816136fe565b608089015160a08a015191955093506144fc81613754565b8092505060c0880151905092959891949750929550565b600082601f83011261452457600080fd5b8151602061453461383d836137f9565b82815260059290921b8401810191818101908684111561455357600080fd5b8286015b8481101561387c5780518352918301918301614557565b600080600080600080600060e0888a03121561458957600080fd5b875161459481614214565b809750506020808901516145a7816136fe565b60408a01519097506145b8816136fe565b60608a01519096506001600160401b03808211156145d557600080fd5b818b0191508b601f8301126145e957600080fd5b81516145f761383d826137f9565b81815260059190911b8301840190848101908e83111561461657600080fd5b938501935b8285101561463d57845161462e816136fe565b8252938501939085019061461b565b60808e0151909950945050508083111561465657600080fd5b50506146648a828b01614513565b93505061467360a08901614480565b915060c0880151905092959891949750929550565b60006020828403121561469a57600080fd5b81518015158114611cc157600080fd5b6040815260006146bd6040830185613f82565b82810360208401526124fd8185613fc6565b6001600160a01b03851681526080602082018190526000906146f390830186613f82565b82810360408401526147058186613fc6565b91505082606083015295945050505050565b63ffffffff8616815284602082015260a06040820152600061473c60a0830186613e9d565b828103606084015261474e8186613e9d565b91505060018060a01b03831660808301529695505050505050565b600081600019048311821515161561478357614783614057565b500290565b60008161479757614797614057565b506000190190565b600082516147b1818460208701613e71565b9190910192915050565b634e487b7160e01b600052601260045260246000fd5b6000826147e0576147e06147bb565b500490565b6000828210156147f7576147f7614057565b500390565b60008261480b5761480b6147bb565b500690565b634e487b7160e01b600052603160045260246000fdfe360894a13ba1a3210667c828492db98dca3e2076cc3735a920a3ca505d382bbc416464726573733a206c6f772d6c6576656c2064656c65676174652063616c6c206661696c6564a26469706673582212208cb6e630ba7eec2eb5686ce136896cdc74ce9605991aff8a5cdd2cb793f2bc8764736f6c634300080e0033496e697469616c697a61626c653a20636f6e747261637420697320616c726561",
  "devdoc": {
    "kind": "dev",
    "methods": {
      "addTokenPair(address,address,uint32)": {
        "details": "Called by owner to add or map home token address to remote token address. Changing the remote token address can only be done within a 7 day period, after first setting it.",
        "params": {
          "domain": "domain ID of the remote chain whose token is being mapped",
          "homeToken": "token address on home chain",
          "remoteToken": "token address on remote chain"
        }
      },
      "batchAddTokenPair(address[],address[],uint32)": {
        "details": "Called by owner to add or map home token addresses to remote token addresses.",
        "params": {
          "domain": "domain ID of the remote chain whose tokens are being mapped",
          "homeTokens": "token addresses on home chain",
          "remoteTokens_": "token addresses on remote chain"
        }
      },
      "bridgeTCO2s(uint32,address[],uint256[],address)": {
        "params": {
          "amounts": "the amounts of tokens to be bridged",
          "destinationDomain": "The domain to send the tokens to",
          "recipient": "the recipient of tokens in the destination domain",
          "tokens": "addresses of tokens to be bridged"
        }
      },
      "constructor": {
        "custom:oz-upgrades-unsafe-allow": "constructor"
      },
      "enrollRemoteRouter(uint32,bytes32)": {
        "params": {
          "_domain": "The domain of the remote Application Router",
          "_router": "The address of the remote Application Router"
        }
      },
      "enrollRemoteRouters(uint32[],bytes32[])": {
        "params": {
          "_addresses": "The addresses of the remote Application Routers",
          "_domains": "The domains of the remote Application Routers"
        }
      },
      "getRoleAdmin(bytes32)": {
        "details": "Returns the admin role that controls `role`. See {grantRole} and {revokeRole}. To change a role's admin, use {_setRoleAdmin}."
      },
      "grantRole(bytes32,address)": {
        "details": "Grants `role` to `account`. If `account` had not been already granted `role`, emits a {RoleGranted} event. Requirements: - the caller must have ``role``'s admin role."
      },
      "handle(uint32,bytes32,bytes)": {
        "params": {
          "_message": "The message",
          "_origin": "The origin domain",
          "_sender": "The sender address"
        }
      },
      "hasRole(bytes32,address)": {
        "details": "Returns `true` if `account` has been granted `role`."
      },
      "owner()": {
        "details": "Returns the address of the current owner."
      },
      "pause()": {
        "details": "when invoked by owner it Pauses the cross chain bridging logic to interact with abacus"
      },
      "paused()": {
        "details": "Returns true if the contract is paused, and false otherwise."
      },
      "proxiableUUID()": {
        "details": "Implementation of the ERC1822 {proxiableUUID} function. This returns the storage slot used by the implementation. It is used to validate that the this implementation remains valid after an upgrade. IMPORTANT: A proxy pointing at a proxiable contract should not be considered proxiable itself, because this risks bricking a proxy that upgrades to it, by delegating to itself until out of gas. Thus it is critical that this function revert if invoked through a proxy. This is guaranteed by the `notDelegated` modifier."
      },
      "quoteBridgeTCO2sFee(uint32,address[],uint256[],address)": {
        "details": "Use the result of this function as msg.value when calling `transferTokens` or `transferTokensToRecipient`.",
        "params": {
          "amounts": "the amount of tokens to be bridged",
          "destinationDomain": "The domain to send the message to",
          "recipient": "the recipient of tokens in the destination domain",
          "tokens": "address of token to be bridged"
        },
        "returns": {
          "_0": "The required fee for a token transfer"
        }
      },
      "quoteTokenTransferFee(uint32,address,uint256,address)": {
        "details": "Use the result of this function as msg.value when calling `transferTokens` or `transferTokensToRecipient`.",
        "params": {
          "amount": "the amount of tokens to be bridged",
          "destinationDomain": "The domain to send the message to",
          "recipient": "the recipient of tokens in the destination domain",
          "token": "address of token to be bridged"
        },
        "returns": {
          "_0": "The required fee for a token transfer"
        }
      },
      "renounceOwnership()": {
        "details": "Leaves the contract without owner. It will not be possible to call `onlyOwner` functions anymore. Can only be called by the current owner. NOTE: Renouncing ownership will leave the contract without an owner, thereby removing any functionality that is only available to the owner."
      },
      "renounceRole(bytes32,address)": {
        "details": "Revokes `role` from the calling account. Roles are often managed via {grantRole} and {revokeRole}: this function's purpose is to provide a mechanism for accounts to lose their privileges if they are compromised (such as when a trusted device is misplaced). If the calling account had been revoked `role`, emits a {RoleRevoked} event. Requirements: - the caller must be `account`."
      },
      "revokeRole(bytes32,address)": {
        "details": "Revokes `role` from `account`. If `account` had been granted `role`, emits a {RoleRevoked} event. Requirements: - the caller must have ``role``'s admin role."
      },
      "routers(uint32)": {
        "details": "Returns 0 address if no router is enrolled for the given domain",
        "params": {
          "_domain": "The remote domain ID."
        },
        "returns": {
          "_0": "router The address of the Router contract for the given domain"
        }
      },
      "setHook(address)": {
        "params": {
          "_hook": "The address of the hook contract."
        }
      },
      "setInterchainSecurityModule(address)": {
        "params": {
          "_module": "The address of the interchain security module contract."
        }
      },
      "supportsInterface(bytes4)": {
        "details": "See {IERC165-supportsInterface}."
      },
      "transferOwnership(address)": {
        "details": "Transfers ownership of the contract to a new account (`newOwner`). Can only be called by the current owner."
      },
      "transferTokens(uint32,address,uint256)": {
        "params": {
          "amount": "the amount of tokens to be bridged",
          "destinationDomain": "The domain to send the message to",
          "token": "address of token to be bridged"
        }
      },
      "transferTokensToRecipient(uint32,address,uint256,address)": {
        "params": {
          "amount": "the amount of tokens to be bridged",
          "destinationDomain": "The domain to send the tokens to",
          "recipient": "the recipient of tokens in the destination domain",
          "token": "address of token to be bridged"
        }
      },
      "unenrollRemoteRouter(uint32)": {
        "params": {
          "_domain": "The domain of the remote Application Router"
        }
      },
      "unenrollRemoteRouters(uint32[])": {
        "params": {
          "_domains": "The domains of the remote Application Routers"
        }
      },
      "unpause()": {
        "details": "when invoked by owner it unpauses the cross chain bridging logic to interact with abacus"
      },
      "upgradeTo(address)": {
        "details": "Upgrade the implementation of the proxy to `newImplementation`. Calls {_authorizeUpgrade}. Emits an {Upgraded} event."
      },
      "upgradeToAndCall(address,bytes)": {
        "details": "Upgrade the implementation of the proxy to `newImplementation`, and subsequently execute the function call encoded in `data`. Calls {_authorizeUpgrade}. Emits an {Upgraded} event."
      }
    },
    "stateVariables": {
      "EIP712DomainHash": {
        "details": "EIP712Domain hash used in generating request hashes"
      },
      "VERSION": {
        "details": "Version-related parameters. VERSION keeps track of production releases. VERSION_RELEASE_CANDIDATE keeps track of iterations of a VERSION in our staging environment."
      }
    },
    "version": 1
  },
  "userdoc": {
    "kind": "user",
    "methods": {
      "addTokenPair(address,address,uint32)": {
        "notice": "Adds new token pair than can be bridged"
      },
      "batchAddTokenPair(address[],address[],uint32)": {
        "notice": "Adds a new set of token pairs than can be bridged"
      },
      "bridgeTCO2s(uint32,address[],uint256[],address)": {
        "notice": "Bridges multiple tokens to a recipient in the destination domain"
      },
      "enrollRemoteRouter(uint32,bytes32)": {
        "notice": "Register the address of a Router contract for the same Application on a remote chain"
      },
      "enrollRemoteRouters(uint32[],bytes32[])": {
        "notice": "Batch version of `enrollRemoteRouter`"
      },
      "handle(uint32,bytes32,bytes)": {
        "notice": "Handles an incoming message"
      },
      "pause()": {
        "notice": "Pauses the cross chain bridge"
      },
      "quoteBridgeTCO2sFee(uint32,address[],uint256[],address)": {
        "notice": "Fetch the amount that needs to be used as a fee in order to to pay for the gas of the transfer on the destination domain."
      },
      "quoteTokenTransferFee(uint32,address,uint256,address)": {
        "notice": "Fetch the amount that needs to be used as a fee in order to to pay for the gas of the transfer on the destination domain."
      },
      "routers(uint32)": {
        "notice": "Returns the address of the Router contract for the given domain"
      },
      "setHook(address)": {
        "notice": "Sets the address of the application's custom hook."
      },
      "setInterchainSecurityModule(address)": {
        "notice": "Sets the address of the application's custom interchain security module."
      },
      "transferTokens(uint32,address,uint256)": {
        "notice": "Transfer tokens to a recipient in the destination domain. The recipient of the tokens in the destination domain is the same as msg.sender in this context."
      },
      "transferTokensToRecipient(uint32,address,uint256,address)": {
        "notice": "Transfer tokens to a recipient in the destination domain"
      },
      "unenrollRemoteRouter(uint32)": {
        "notice": "Unregister the domain"
      },
      "unenrollRemoteRouters(uint32[])": {
        "notice": "Batch version of `unenrollRemoteRouter`"
      },
      "unpause()": {
        "notice": "Unpauses the cross chain bridge"
      }
    },
    "version": 1
  },
  "storageLayout": {
    "storage": [
      {
        "astId": 2390,
        "contract": "contracts/cross-chain/ToucanCrosschainMessenger.sol:ToucanCrosschainMessenger",
        "label": "_initialized",
        "offset": 0,
        "slot": "0",
        "type": "t_uint8"
      },
      {
        "astId": 2393,
        "contract": "contracts/cross-chain/ToucanCrosschainMessenger.sol:ToucanCrosschainMessenger",
        "label": "_initializing",
        "offset": 1,
        "slot": "0",
        "type": "t_bool"
      },
      {
        "astId": 7094,
        "contract": "contracts/cross-chain/ToucanCrosschainMessenger.sol:ToucanCrosschainMessenger",
        "label": "__gap",
        "offset": 0,
        "slot": "1",
        "type": "t_array(t_uint256)50_storage"
      },
      {
        "astId": 2682,
        "contract": "contracts/cross-chain/ToucanCrosschainMessenger.sol:ToucanCrosschainMessenger",
        "label": "_paused",
        "offset": 0,
        "slot": "51",
        "type": "t_bool"
      },
      {
        "astId": 2771,
        "contract": "contracts/cross-chain/ToucanCrosschainMessenger.sol:ToucanCrosschainMessenger",
        "label": "__gap",
        "offset": 0,
        "slot": "52",
        "type": "t_array(t_uint256)49_storage"
      },
      {
        "astId": 2372,
        "contract": "contracts/cross-chain/ToucanCrosschainMessenger.sol:ToucanCrosschainMessenger",
        "label": "__gap",
        "offset": 0,
        "slot": "101",
        "type": "t_array(t_uint256)50_storage"
      },
      {
        "astId": 2660,
        "contract": "contracts/cross-chain/ToucanCrosschainMessenger.sol:ToucanCrosschainMessenger",
        "label": "__gap",
        "offset": 0,
        "slot": "151",
        "type": "t_array(t_uint256)50_storage"
      },
      {
        "astId": 7401,
        "contract": "contracts/cross-chain/ToucanCrosschainMessenger.sol:ToucanCrosschainMessenger",
        "label": "__gap",
        "offset": 0,
        "slot": "201",
        "type": "t_array(t_uint256)50_storage"
      },
      {
        "astId": 1497,
        "contract": "contracts/cross-chain/ToucanCrosschainMessenger.sol:ToucanCrosschainMessenger",
        "label": "_roles",
        "offset": 0,
        "slot": "251",
        "type": "t_mapping(t_bytes32,t_struct(RoleData)1492_storage)"
      },
      {
        "astId": 1796,
        "contract": "contracts/cross-chain/ToucanCrosschainMessenger.sol:ToucanCrosschainMessenger",
        "label": "__gap",
        "offset": 0,
        "slot": "252",
        "type": "t_array(t_uint256)49_storage"
      },
      {
        "astId": 1881,
        "contract": "contracts/cross-chain/ToucanCrosschainMessenger.sol:ToucanCrosschainMessenger",
        "label": "_owner",
        "offset": 0,
        "slot": "301",
        "type": "t_address"
      },
      {
        "astId": 1993,
        "contract": "contracts/cross-chain/ToucanCrosschainMessenger.sol:ToucanCrosschainMessenger",
        "label": "__gap",
        "offset": 0,
        "slot": "302",
        "type": "t_array(t_uint256)49_storage"
      },
      {
        "astId": 26,
        "contract": "contracts/cross-chain/ToucanCrosschainMessenger.sol:ToucanCrosschainMessenger",
        "label": "hook",
        "offset": 0,
        "slot": "351",
        "type": "t_contract(IPostDispatchHook)912"
      },
      {
        "astId": 29,
        "contract": "contracts/cross-chain/ToucanCrosschainMessenger.sol:ToucanCrosschainMessenger",
        "label": "interchainSecurityModule",
        "offset": 0,
        "slot": "352",
        "type": "t_contract(IInterchainSecurityModule)681"
      },
      {
        "astId": 33,
        "contract": "contracts/cross-chain/ToucanCrosschainMessenger.sol:ToucanCrosschainMessenger",
        "label": "__GAP",
        "offset": 0,
        "slot": "353",
        "type": "t_array(t_uint256)48_storage"
      },
      {
        "astId": 296,
        "contract": "contracts/cross-chain/ToucanCrosschainMessenger.sol:ToucanCrosschainMessenger",
        "label": "_routers",
        "offset": 0,
        "slot": "401",
        "type": "t_struct(UintToBytes32Map)928_storage"
      },
      {
        "astId": 300,
        "contract": "contracts/cross-chain/ToucanCrosschainMessenger.sol:ToucanCrosschainMessenger",
        "label": "__GAP",
        "offset": 0,
        "slot": "404",
        "type": "t_array(t_uint256)48_storage"
      },
      {
        "astId": 22165,
        "contract": "contracts/cross-chain/ToucanCrosschainMessenger.sol:ToucanCrosschainMessenger",
        "label": "nonce",
        "offset": 0,
        "slot": "452",
        "type": "t_uint256"
      },
      {
        "astId": 22167,
        "contract": "contracts/cross-chain/ToucanCrosschainMessenger.sol:ToucanCrosschainMessenger",
        "label": "DEPRECATED_DOMAIN_SEPARATOR",
        "offset": 0,
        "slot": "453",
        "type": "t_bytes32"
      },
      {
        "astId": 22173,
        "contract": "contracts/cross-chain/ToucanCrosschainMessenger.sol:ToucanCrosschainMessenger",
        "label": "requests",
        "offset": 0,
        "slot": "454",
        "type": "t_mapping(t_bytes32,t_struct(BridgeRequest)22154_storage)"
      },
      {
        "astId": 22181,
        "contract": "contracts/cross-chain/ToucanCrosschainMessenger.sol:ToucanCrosschainMessenger",
        "label": "_remoteTokens",
        "offset": 0,
        "slot": "455",
        "type": "t_mapping(t_address,t_mapping(t_uint32,t_struct(RemoteTokenInformation)22143_storage))"
      }
    ],
    "types": {
      "t_address": {
        "encoding": "inplace",
        "label": "address",
        "numberOfBytes": "20"
      },
      "t_array(t_bytes32)dyn_storage": {
        "base": "t_bytes32",
        "encoding": "dynamic_array",
        "label": "bytes32[]",
        "numberOfBytes": "32"
      },
      "t_array(t_uint256)48_storage": {
        "base": "t_uint256",
        "encoding": "inplace",
        "label": "uint256[48]",
        "numberOfBytes": "1536"
      },
      "t_array(t_uint256)49_storage": {
        "base": "t_uint256",
        "encoding": "inplace",
        "label": "uint256[49]",
        "numberOfBytes": "1568"
      },
      "t_array(t_uint256)50_storage": {
        "base": "t_uint256",
        "encoding": "inplace",
        "label": "uint256[50]",
        "numberOfBytes": "1600"
      },
      "t_bool": {
        "encoding": "inplace",
        "label": "bool",
        "numberOfBytes": "1"
      },
      "t_bytes32": {
        "encoding": "inplace",
        "label": "bytes32",
        "numberOfBytes": "32"
      },
      "t_contract(IInterchainSecurityModule)681": {
        "encoding": "inplace",
        "label": "contract IInterchainSecurityModule",
        "numberOfBytes": "20"
      },
      "t_contract(IPostDispatchHook)912": {
        "encoding": "inplace",
        "label": "contract IPostDispatchHook",
        "numberOfBytes": "20"
      },
      "t_enum(BridgeRequestType)22158": {
        "encoding": "inplace",
        "label": "enum BridgeRequestType",
        "numberOfBytes": "1"
      },
      "t_enum(MessageType)22161": {
        "encoding": "inplace",
        "label": "enum MessageType",
        "numberOfBytes": "1"
      },
      "t_mapping(t_address,t_bool)": {
        "encoding": "mapping",
        "key": "t_address",
        "label": "mapping(address => bool)",
        "numberOfBytes": "32",
        "value": "t_bool"
      },
      "t_mapping(t_address,t_mapping(t_uint32,t_struct(RemoteTokenInformation)22143_storage))": {
        "encoding": "mapping",
        "key": "t_address",
        "label": "mapping(address => mapping(uint32 => struct RemoteTokenInformation))",
        "numberOfBytes": "32",
        "value": "t_mapping(t_uint32,t_struct(RemoteTokenInformation)22143_storage)"
      },
      "t_mapping(t_bytes32,t_bytes32)": {
        "encoding": "mapping",
        "key": "t_bytes32",
        "label": "mapping(bytes32 => bytes32)",
        "numberOfBytes": "32",
        "value": "t_bytes32"
      },
      "t_mapping(t_bytes32,t_struct(BridgeRequest)22154_storage)": {
        "encoding": "mapping",
        "key": "t_bytes32",
        "label": "mapping(bytes32 => struct BridgeRequest)",
        "numberOfBytes": "32",
        "value": "t_struct(BridgeRequest)22154_storage"
      },
      "t_mapping(t_bytes32,t_struct(RoleData)1492_storage)": {
        "encoding": "mapping",
        "key": "t_bytes32",
        "label": "mapping(bytes32 => struct AccessControlUpgradeable.RoleData)",
        "numberOfBytes": "32",
        "value": "t_struct(RoleData)1492_storage"
      },
      "t_mapping(t_bytes32,t_uint256)": {
        "encoding": "mapping",
        "key": "t_bytes32",
        "label": "mapping(bytes32 => uint256)",
        "numberOfBytes": "32",
        "value": "t_uint256"
      },
      "t_mapping(t_uint32,t_struct(RemoteTokenInformation)22143_storage)": {
        "encoding": "mapping",
        "key": "t_uint32",
        "label": "mapping(uint32 => struct RemoteTokenInformation)",
        "numberOfBytes": "32",
        "value": "t_struct(RemoteTokenInformation)22143_storage"
      },
      "t_struct(BridgeRequest)22154_storage": {
        "encoding": "inplace",
        "label": "struct BridgeRequest",
        "members": [
          {
            "astId": 22145,
            "contract": "contracts/cross-chain/ToucanCrosschainMessenger.sol:ToucanCrosschainMessenger",
            "label": "isReverted",
            "offset": 0,
            "slot": "0",
            "type": "t_bool"
          },
          {
            "astId": 22147,
            "contract": "contracts/cross-chain/ToucanCrosschainMessenger.sol:ToucanCrosschainMessenger",
            "label": "timestamp",
            "offset": 0,
            "slot": "1",
            "type": "t_uint256"
          },
          {
            "astId": 22150,
            "contract": "contracts/cross-chain/ToucanCrosschainMessenger.sol:ToucanCrosschainMessenger",
            "label": "requestType",
            "offset": 0,
            "slot": "2",
            "type": "t_enum(BridgeRequestType)22158"
          },
          {
            "astId": 22153,
            "contract": "contracts/cross-chain/ToucanCrosschainMessenger.sol:ToucanCrosschainMessenger",
            "label": "messageType",
            "offset": 1,
            "slot": "2",
            "type": "t_enum(MessageType)22161"
          }
        ],
        "numberOfBytes": "96"
      },
      "t_struct(Bytes32Set)12743_storage": {
        "encoding": "inplace",
        "label": "struct EnumerableSet.Bytes32Set",
        "members": [
          {
            "astId": 12742,
            "contract": "contracts/cross-chain/ToucanCrosschainMessenger.sol:ToucanCrosschainMessenger",
            "label": "_inner",
            "offset": 0,
            "slot": "0",
            "type": "t_struct(Set)12549_storage"
          }
        ],
        "numberOfBytes": "64"
      },
      "t_struct(Bytes32ToBytes32Map)11825_storage": {
        "encoding": "inplace",
        "label": "struct EnumerableMap.Bytes32ToBytes32Map",
        "members": [
          {
            "astId": 11820,
            "contract": "contracts/cross-chain/ToucanCrosschainMessenger.sol:ToucanCrosschainMessenger",
            "label": "_keys",
            "offset": 0,
            "slot": "0",
            "type": "t_struct(Bytes32Set)12743_storage"
          },
          {
            "astId": 11824,
            "contract": "contracts/cross-chain/ToucanCrosschainMessenger.sol:ToucanCrosschainMessenger",
            "label": "_values",
            "offset": 0,
            "slot": "2",
            "type": "t_mapping(t_bytes32,t_bytes32)"
          }
        ],
        "numberOfBytes": "96"
      },
      "t_struct(RemoteTokenInformation)22143_storage": {
        "encoding": "inplace",
        "label": "struct RemoteTokenInformation",
        "members": [
          {
            "astId": 22139,
            "contract": "contracts/cross-chain/ToucanCrosschainMessenger.sol:ToucanCrosschainMessenger",
            "label": "tokenAddress",
            "offset": 0,
            "slot": "0",
            "type": "t_address"
          },
          {
            "astId": 22142,
            "contract": "contracts/cross-chain/ToucanCrosschainMessenger.sol:ToucanCrosschainMessenger",
            "label": "timer",
            "offset": 0,
            "slot": "1",
            "type": "t_uint256"
          }
        ],
        "numberOfBytes": "64"
      },
      "t_struct(RoleData)1492_storage": {
        "encoding": "inplace",
        "label": "struct AccessControlUpgradeable.RoleData",
        "members": [
          {
            "astId": 1489,
            "contract": "contracts/cross-chain/ToucanCrosschainMessenger.sol:ToucanCrosschainMessenger",
            "label": "members",
            "offset": 0,
            "slot": "0",
            "type": "t_mapping(t_address,t_bool)"
          },
          {
            "astId": 1491,
            "contract": "contracts/cross-chain/ToucanCrosschainMessenger.sol:ToucanCrosschainMessenger",
            "label": "adminRole",
            "offset": 0,
            "slot": "1",
            "type": "t_bytes32"
          }
        ],
        "numberOfBytes": "64"
      },
      "t_struct(Set)12549_storage": {
        "encoding": "inplace",
        "label": "struct EnumerableSet.Set",
        "members": [
          {
            "astId": 12544,
            "contract": "contracts/cross-chain/ToucanCrosschainMessenger.sol:ToucanCrosschainMessenger",
            "label": "_values",
            "offset": 0,
            "slot": "0",
            "type": "t_array(t_bytes32)dyn_storage"
          },
          {
            "astId": 12548,
            "contract": "contracts/cross-chain/ToucanCrosschainMessenger.sol:ToucanCrosschainMessenger",
            "label": "_indexes",
            "offset": 0,
            "slot": "1",
            "type": "t_mapping(t_bytes32,t_uint256)"
          }
        ],
        "numberOfBytes": "64"
      },
      "t_struct(UintToBytes32Map)928_storage": {
        "encoding": "inplace",
        "label": "struct EnumerableMapExtended.UintToBytes32Map",
        "members": [
          {
            "astId": 927,
            "contract": "contracts/cross-chain/ToucanCrosschainMessenger.sol:ToucanCrosschainMessenger",
            "label": "_inner",
            "offset": 0,
            "slot": "0",
            "type": "t_struct(Bytes32ToBytes32Map)11825_storage"
          }
        ],
        "numberOfBytes": "96"
      },
      "t_uint256": {
        "encoding": "inplace",
        "label": "uint256",
        "numberOfBytes": "32"
      },
      "t_uint32": {
        "encoding": "inplace",
        "label": "uint32",
        "numberOfBytes": "4"
      },
      "t_uint8": {
        "encoding": "inplace",
        "label": "uint8",
        "numberOfBytes": "1"
      }
    }
  }
}