{
  "address": "0x3efC34D2Ab3F6e5029F259d7fe0D415f28ae248C",
  "abi": [
    {
      "inputs": [],
      "stateMutability": "nonpayable",
      "type": "constructor"
    },
    {
      "anonymous": false,
      "inputs": [
        {
          "indexed": false,
          "internalType": "address",
          "name": "previousAdmin",
          "type": "address"
        },
        {
          "indexed": false,
          "internalType": "address",
          "name": "newAdmin",
          "type": "address"
        }
      ],
      "name": "AdminChanged",
      "type": "event"
    },
    {
      "anonymous": false,
      "inputs": [
        {
          "indexed": true,
          "internalType": "address",
          "name": "owner",
          "type": "address"
        },
        {
          "indexed": true,
          "internalType": "address",
          "name": "approved",
          "type": "address"
        },
        {
          "indexed": true,
          "internalType": "uint256",
          "name": "tokenId",
          "type": "uint256"
        }
      ],
      "name": "Approval",
      "type": "event"
    },
    {
      "anonymous": false,
      "inputs": [
        {
          "indexed": true,
          "internalType": "address",
          "name": "owner",
          "type": "address"
        },
        {
          "indexed": true,
          "internalType": "address",
          "name": "operator",
          "type": "address"
        },
        {
          "indexed": false,
          "internalType": "bool",
          "name": "approved",
          "type": "bool"
        }
      ],
      "name": "ApprovalForAll",
      "type": "event"
    },
    {
      "anonymous": false,
      "inputs": [
        {
          "indexed": true,
          "internalType": "address",
          "name": "beacon",
          "type": "address"
        }
      ],
      "name": "BeaconUpgraded",
      "type": "event"
    },
    {
      "anonymous": false,
      "inputs": [
        {
          "indexed": true,
          "internalType": "uint256",
          "name": "tokenId",
          "type": "uint256"
        },
        {
          "indexed": false,
          "internalType": "address",
          "name": "oldBeneficiary",
          "type": "address"
        },
        {
          "indexed": false,
          "internalType": "address",
          "name": "newBeneficiary",
          "type": "address"
        }
      ],
      "name": "BeneficiaryUpdated",
      "type": "event"
    },
    {
      "anonymous": false,
      "inputs": [
        {
          "indexed": false,
          "internalType": "uint8",
          "name": "version",
          "type": "uint8"
        }
      ],
      "name": "Initialized",
      "type": "event"
    },
    {
      "anonymous": false,
      "inputs": [
        {
          "indexed": true,
          "internalType": "address",
          "name": "previousOwner",
          "type": "address"
        },
        {
          "indexed": true,
          "internalType": "address",
          "name": "newOwner",
          "type": "address"
        }
      ],
      "name": "OwnershipTransferred",
      "type": "event"
    },
    {
      "anonymous": false,
      "inputs": [
        {
          "indexed": false,
          "internalType": "address",
          "name": "account",
          "type": "address"
        }
      ],
      "name": "Paused",
      "type": "event"
    },
    {
      "anonymous": false,
      "inputs": [
        {
          "indexed": false,
          "internalType": "uint256",
          "name": "tokenId",
          "type": "uint256"
        }
      ],
      "name": "ProjectIdUpdated",
      "type": "event"
    },
    {
      "anonymous": false,
      "inputs": [
        {
          "indexed": false,
          "internalType": "address",
          "name": "receiver",
          "type": "address"
        },
        {
          "indexed": false,
          "internalType": "uint256",
          "name": "tokenId",
          "type": "uint256"
        }
      ],
      "name": "ProjectMinted",
      "type": "event"
    },
    {
      "anonymous": false,
      "inputs": [
        {
          "indexed": false,
          "internalType": "uint256",
          "name": "tokenId",
          "type": "uint256"
        }
      ],
      "name": "ProjectUpdated",
      "type": "event"
    },
    {
      "anonymous": false,
      "inputs": [
        {
          "indexed": true,
          "internalType": "bytes32",
          "name": "role",
          "type": "bytes32"
        },
        {
          "indexed": true,
          "internalType": "bytes32",
          "name": "previousAdminRole",
          "type": "bytes32"
        },
        {
          "indexed": true,
          "internalType": "bytes32",
          "name": "newAdminRole",
          "type": "bytes32"
        }
      ],
      "name": "RoleAdminChanged",
      "type": "event"
    },
    {
      "anonymous": false,
      "inputs": [
        {
          "indexed": true,
          "internalType": "bytes32",
          "name": "role",
          "type": "bytes32"
        },
        {
          "indexed": true,
          "internalType": "address",
          "name": "account",
          "type": "address"
        },
        {
          "indexed": true,
          "internalType": "address",
          "name": "sender",
          "type": "address"
        }
      ],
      "name": "RoleGranted",
      "type": "event"
    },
    {
      "anonymous": false,
      "inputs": [
        {
          "indexed": true,
          "internalType": "bytes32",
          "name": "role",
          "type": "bytes32"
        },
        {
          "indexed": true,
          "internalType": "address",
          "name": "account",
          "type": "address"
        },
        {
          "indexed": true,
          "internalType": "address",
          "name": "sender",
          "type": "address"
        }
      ],
      "name": "RoleRevoked",
      "type": "event"
    },
    {
      "anonymous": false,
      "inputs": [
        {
          "indexed": true,
          "internalType": "address",
          "name": "from",
          "type": "address"
        },
        {
          "indexed": true,
          "internalType": "address",
          "name": "to",
          "type": "address"
        },
        {
          "indexed": true,
          "internalType": "uint256",
          "name": "tokenId",
          "type": "uint256"
        }
      ],
      "name": "Transfer",
      "type": "event"
    },
    {
      "anonymous": false,
      "inputs": [
        {
          "indexed": false,
          "internalType": "address",
          "name": "account",
          "type": "address"
        }
      ],
      "name": "Unpaused",
      "type": "event"
    },
    {
      "anonymous": false,
      "inputs": [
        {
          "indexed": true,
          "internalType": "address",
          "name": "implementation",
          "type": "address"
        }
      ],
      "name": "Upgraded",
      "type": "event"
    },
    {
      "inputs": [],
      "name": "DEFAULT_ADMIN_ROLE",
      "outputs": [
        {
          "internalType": "bytes32",
          "name": "",
          "type": "bytes32"
        }
      ],
      "stateMutability": "view",
      "type": "function"
    },
    {
      "inputs": [],
      "name": "MANAGER_ROLE",
      "outputs": [
        {
          "internalType": "bytes32",
          "name": "",
          "type": "bytes32"
        }
      ],
      "stateMutability": "view",
      "type": "function"
    },
    {
      "inputs": [],
      "name": "VERSION",
      "outputs": [
        {
          "internalType": "string",
          "name": "",
          "type": "string"
        }
      ],
      "stateMutability": "view",
      "type": "function"
    },
    {
      "inputs": [
        {
          "internalType": "address",
          "name": "to",
          "type": "address"
        },
        {
          "internalType": "string",
          "name": "projectId",
          "type": "string"
        },
        {
          "internalType": "string",
          "name": "standard",
          "type": "string"
        },
        {
          "internalType": "string",
          "name": "methodology",
          "type": "string"
        },
        {
          "internalType": "string",
          "name": "region",
          "type": "string"
        },
        {
          "internalType": "string",
          "name": "storageMethod",
          "type": "string"
        },
        {
          "internalType": "string",
          "name": "method",
          "type": "string"
        },
        {
          "internalType": "string",
          "name": "emissionType",
          "type": "string"
        },
        {
          "internalType": "string",
          "name": "category",
          "type": "string"
        },
        {
          "internalType": "string",
          "name": "uri",
          "type": "string"
        },
        {
          "internalType": "address",
          "name": "beneficiary",
          "type": "address"
        }
      ],
      "name": "addNewProject",
      "outputs": [
        {
          "internalType": "uint256",
          "name": "",
          "type": "uint256"
        }
      ],
      "stateMutability": "nonpayable",
      "type": "function"
    },
    {
      "inputs": [
        {
          "internalType": "address",
          "name": "to",
          "type": "address"
        },
        {
          "internalType": "uint256",
          "name": "tokenId",
          "type": "uint256"
        }
      ],
      "name": "approve",
      "outputs": [],
      "stateMutability": "nonpayable",
      "type": "function"
    },
    {
      "inputs": [
        {
          "internalType": "address",
          "name": "owner",
          "type": "address"
        }
      ],
      "name": "balanceOf",
      "outputs": [
        {
          "internalType": "uint256",
          "name": "",
          "type": "uint256"
        }
      ],
      "stateMutability": "view",
      "type": "function"
    },
    {
      "inputs": [],
      "name": "baseURI",
      "outputs": [
        {
          "internalType": "string",
          "name": "",
          "type": "string"
        }
      ],
      "stateMutability": "view",
      "type": "function"
    },
    {
      "inputs": [],
      "name": "contractRegistry",
      "outputs": [
        {
          "internalType": "address",
          "name": "",
          "type": "address"
        }
      ],
      "stateMutability": "view",
      "type": "function"
    },
    {
      "inputs": [
        {
          "internalType": "uint256",
          "name": "tokenId",
          "type": "uint256"
        }
      ],
      "name": "getApproved",
      "outputs": [
        {
          "internalType": "address",
          "name": "",
          "type": "address"
        }
      ],
      "stateMutability": "view",
      "type": "function"
    },
    {
      "inputs": [
        {
          "internalType": "uint256",
          "name": "tokenId",
          "type": "uint256"
        }
      ],
      "name": "getProjectDataByTokenId",
      "outputs": [
        {
          "components": [
            {
              "internalType": "string",
              "name": "projectId",
              "type": "string"
            },
            {
              "internalType": "string",
              "name": "standard",
              "type": "string"
            },
            {
              "internalType": "string",
              "name": "methodology",
              "type": "string"
            },
            {
              "internalType": "string",
              "name": "region",
              "type": "string"
            },
            {
              "internalType": "string",
              "name": "storageMethod",
              "type": "string"
            },
            {
              "internalType": "string",
              "name": "method",
              "type": "string"
            },
            {
              "internalType": "string",
              "name": "emissionType",
              "type": "string"
            },
            {
              "internalType": "string",
              "name": "category",
              "type": "string"
            },
            {
              "internalType": "string",
              "name": "uri",
              "type": "string"
            },
            {
              "internalType": "address",
              "name": "beneficiary",
              "type": "address"
            }
          ],
          "internalType": "struct ProjectData",
          "name": "",
          "type": "tuple"
        }
      ],
      "stateMutability": "view",
      "type": "function"
    },
    {
      "inputs": [
        {
          "internalType": "bytes32",
          "name": "role",
          "type": "bytes32"
        }
      ],
      "name": "getRoleAdmin",
      "outputs": [
        {
          "internalType": "bytes32",
          "name": "",
          "type": "bytes32"
        }
      ],
      "stateMutability": "view",
      "type": "function"
    },
    {
      "inputs": [
        {
          "internalType": "bytes32",
          "name": "role",
          "type": "bytes32"
        },
        {
          "internalType": "address",
          "name": "account",
          "type": "address"
        }
      ],
      "name": "grantRole",
      "outputs": [],
      "stateMutability": "nonpayable",
      "type": "function"
    },
    {
      "inputs": [
        {
          "internalType": "bytes32",
          "name": "role",
          "type": "bytes32"
        },
        {
          "internalType": "address",
          "name": "account",
          "type": "address"
        }
      ],
      "name": "hasRole",
      "outputs": [
        {
          "internalType": "bool",
          "name": "",
          "type": "bool"
        }
      ],
      "stateMutability": "view",
      "type": "function"
    },
    {
      "inputs": [],
      "name": "initialize",
      "outputs": [],
      "stateMutability": "nonpayable",
      "type": "function"
    },
    {
      "inputs": [
        {
          "internalType": "address",
          "name": "owner",
          "type": "address"
        },
        {
          "internalType": "address",
          "name": "operator",
          "type": "address"
        }
      ],
      "name": "isApprovedForAll",
      "outputs": [
        {
          "internalType": "bool",
          "name": "",
          "type": "bool"
        }
      ],
      "stateMutability": "view",
      "type": "function"
    },
    {
      "inputs": [
        {
          "internalType": "uint256",
          "name": "projectTokenId",
          "type": "uint256"
        }
      ],
      "name": "isValidProjectTokenId",
      "outputs": [
        {
          "internalType": "bool",
          "name": "",
          "type": "bool"
        }
      ],
      "stateMutability": "view",
      "type": "function"
    },
    {
      "inputs": [],
      "name": "name",
      "outputs": [
        {
          "internalType": "string",
          "name": "",
          "type": "string"
        }
      ],
      "stateMutability": "view",
      "type": "function"
    },
    {
      "inputs": [],
      "name": "owner",
      "outputs": [
        {
          "internalType": "address",
          "name": "",
          "type": "address"
        }
      ],
      "stateMutability": "view",
      "type": "function"
    },
    {
      "inputs": [
        {
          "internalType": "uint256",
          "name": "tokenId",
          "type": "uint256"
        }
      ],
      "name": "ownerOf",
      "outputs": [
        {
          "internalType": "address",
          "name": "",
          "type": "address"
        }
      ],
      "stateMutability": "view",
      "type": "function"
    },
    {
      "inputs": [],
      "name": "pause",
      "outputs": [],
      "stateMutability": "nonpayable",
      "type": "function"
    },
    {
      "inputs": [],
      "name": "paused",
      "outputs": [
        {
          "internalType": "bool",
          "name": "",
          "type": "bool"
        }
      ],
      "stateMutability": "view",
      "type": "function"
    },
    {
      "inputs": [
        {
          "internalType": "string",
          "name": "",
          "type": "string"
        }
      ],
      "name": "pidToTokenId",
      "outputs": [
        {
          "internalType": "uint256",
          "name": "",
          "type": "uint256"
        }
      ],
      "stateMutability": "view",
      "type": "function"
    },
    {
      "inputs": [
        {
          "internalType": "uint256",
          "name": "",
          "type": "uint256"
        }
      ],
      "name": "projectData",
      "outputs": [
        {
          "internalType": "string",
          "name": "projectId",
          "type": "string"
        },
        {
          "internalType": "string",
          "name": "standard",
          "type": "string"
        },
        {
          "internalType": "string",
          "name": "methodology",
          "type": "string"
        },
        {
          "internalType": "string",
          "name": "region",
          "type": "string"
        },
        {
          "internalType": "string",
          "name": "storageMethod",
          "type": "string"
        },
        {
          "internalType": "string",
          "name": "method",
          "type": "string"
        },
        {
          "internalType": "string",
          "name": "emissionType",
          "type": "string"
        },
        {
          "internalType": "string",
          "name": "category",
          "type": "string"
        },
        {
          "internalType": "string",
          "name": "uri",
          "type": "string"
        },
        {
          "internalType": "address",
          "name": "beneficiary",
          "type": "address"
        }
      ],
      "stateMutability": "view",
      "type": "function"
    },
    {
      "inputs": [
        {
          "internalType": "string",
          "name": "",
          "type": "string"
        }
      ],
      "name": "projectIds",
      "outputs": [
        {
          "internalType": "bool",
          "name": "",
          "type": "bool"
        }
      ],
      "stateMutability": "view",
      "type": "function"
    },
    {
      "inputs": [],
      "name": "projectTokenCounter",
      "outputs": [
        {
          "internalType": "uint128",
          "name": "",
          "type": "uint128"
        }
      ],
      "stateMutability": "view",
      "type": "function"
    },
    {
      "inputs": [],
      "name": "proxiableUUID",
      "outputs": [
        {
          "internalType": "bytes32",
          "name": "",
          "type": "bytes32"
        }
      ],
      "stateMutability": "view",
      "type": "function"
    },
    {
      "inputs": [
        {
          "internalType": "uint256",
          "name": "projectTokenId",
          "type": "uint256"
        }
      ],
      "name": "removeProject",
      "outputs": [],
      "stateMutability": "nonpayable",
      "type": "function"
    },
    {
      "inputs": [],
      "name": "renounceOwnership",
      "outputs": [],
      "stateMutability": "nonpayable",
      "type": "function"
    },
    {
      "inputs": [
        {
          "internalType": "bytes32",
          "name": "role",
          "type": "bytes32"
        },
        {
          "internalType": "address",
          "name": "account",
          "type": "address"
        }
      ],
      "name": "renounceRole",
      "outputs": [],
      "stateMutability": "nonpayable",
      "type": "function"
    },
    {
      "inputs": [
        {
          "internalType": "bytes32",
          "name": "role",
          "type": "bytes32"
        },
        {
          "internalType": "address",
          "name": "account",
          "type": "address"
        }
      ],
      "name": "revokeRole",
      "outputs": [],
      "stateMutability": "nonpayable",
      "type": "function"
    },
    {
      "inputs": [
        {
          "internalType": "address",
          "name": "from",
          "type": "address"
        },
        {
          "internalType": "address",
          "name": "to",
          "type": "address"
        },
        {
          "internalType": "uint256",
          "name": "tokenId",
          "type": "uint256"
        }
      ],
      "name": "safeTransferFrom",
      "outputs": [],
      "stateMutability": "nonpayable",
      "type": "function"
    },
    {
      "inputs": [
        {
          "internalType": "address",
          "name": "from",
          "type": "address"
        },
        {
          "internalType": "address",
          "name": "to",
          "type": "address"
        },
        {
          "internalType": "uint256",
          "name": "tokenId",
          "type": "uint256"
        },
        {
          "internalType": "bytes",
          "name": "_data",
          "type": "bytes"
        }
      ],
      "name": "safeTransferFrom",
      "outputs": [],
      "stateMutability": "nonpayable",
      "type": "function"
    },
    {
      "inputs": [
        {
          "internalType": "address",
          "name": "operator",
          "type": "address"
        },
        {
          "internalType": "bool",
          "name": "approved",
          "type": "bool"
        }
      ],
      "name": "setApprovalForAll",
      "outputs": [],
      "stateMutability": "nonpayable",
      "type": "function"
    },
    {
      "inputs": [
        {
          "internalType": "string",
          "name": "gateway",
          "type": "string"
        }
      ],
      "name": "setBaseURI",
      "outputs": [],
      "stateMutability": "nonpayable",
      "type": "function"
    },
    {
      "inputs": [
        {
          "internalType": "address",
          "name": "_address",
          "type": "address"
        }
      ],
      "name": "setToucanContractRegistry",
      "outputs": [],
      "stateMutability": "nonpayable",
      "type": "function"
    },
    {
      "inputs": [
        {
          "internalType": "bytes4",
          "name": "interfaceId",
          "type": "bytes4"
        }
      ],
      "name": "supportsInterface",
      "outputs": [
        {
          "internalType": "bool",
          "name": "",
          "type": "bool"
        }
      ],
      "stateMutability": "view",
      "type": "function"
    },
    {
      "inputs": [],
      "name": "symbol",
      "outputs": [
        {
          "internalType": "string",
          "name": "",
          "type": "string"
        }
      ],
      "stateMutability": "view",
      "type": "function"
    },
    {
      "inputs": [
        {
          "internalType": "uint256",
          "name": "tokenId",
          "type": "uint256"
        }
      ],
      "name": "tokenURI",
      "outputs": [
        {
          "internalType": "string",
          "name": "",
          "type": "string"
        }
      ],
      "stateMutability": "view",
      "type": "function"
    },
    {
      "inputs": [],
      "name": "totalSupply",
      "outputs": [
        {
          "internalType": "uint128",
          "name": "",
          "type": "uint128"
        }
      ],
      "stateMutability": "view",
      "type": "function"
    },
    {
      "inputs": [
        {
          "internalType": "address",
          "name": "from",
          "type": "address"
        },
        {
          "internalType": "address",
          "name": "to",
          "type": "address"
        },
        {
          "internalType": "uint256",
          "name": "tokenId",
          "type": "uint256"
        }
      ],
      "name": "transferFrom",
      "outputs": [],
      "stateMutability": "nonpayable",
      "type": "function"
    },
    {
      "inputs": [
        {
          "internalType": "address",
          "name": "newOwner",
          "type": "address"
        }
      ],
      "name": "transferOwnership",
      "outputs": [],
      "stateMutability": "nonpayable",
      "type": "function"
    },
    {
      "inputs": [],
      "name": "unpause",
      "outputs": [],
      "stateMutability": "nonpayable",
      "type": "function"
    },
    {
      "inputs": [
        {
          "internalType": "uint256",
          "name": "tokenId",
          "type": "uint256"
        },
        {
          "internalType": "address",
          "name": "beneficiary",
          "type": "address"
        }
      ],
      "name": "updateBeneficiary",
      "outputs": [],
      "stateMutability": "nonpayable",
      "type": "function"
    },
    {
      "inputs": [
        {
          "internalType": "uint256",
          "name": "tokenId",
          "type": "uint256"
        },
        {
          "internalType": "string",
          "name": "newStandard",
          "type": "string"
        },
        {
          "internalType": "string",
          "name": "newMethodology",
          "type": "string"
        },
        {
          "internalType": "string",
          "name": "newRegion",
          "type": "string"
        },
        {
          "internalType": "string",
          "name": "newStorageMethod",
          "type": "string"
        },
        {
          "internalType": "string",
          "name": "newMethod",
          "type": "string"
        },
        {
          "internalType": "string",
          "name": "newEmissionType",
          "type": "string"
        },
        {
          "internalType": "string",
          "name": "newCategory",
          "type": "string"
        },
        {
          "internalType": "string",
          "name": "newUri",
          "type": "string"
        },
        {
          "internalType": "address",
          "name": "beneficiary",
          "type": "address"
        }
      ],
      "name": "updateProject",
      "outputs": [],
      "stateMutability": "nonpayable",
      "type": "function"
    },
    {
      "inputs": [
        {
          "internalType": "uint256",
          "name": "tokenId",
          "type": "uint256"
        },
        {
          "internalType": "string",
          "name": "newProjectId",
          "type": "string"
        }
      ],
      "name": "updateProjectId",
      "outputs": [],
      "stateMutability": "nonpayable",
      "type": "function"
    },
    {
      "inputs": [
        {
          "internalType": "address",
          "name": "newImplementation",
          "type": "address"
        }
      ],
      "name": "upgradeTo",
      "outputs": [],
      "stateMutability": "nonpayable",
      "type": "function"
    },
    {
      "inputs": [
        {
          "internalType": "address",
          "name": "newImplementation",
          "type": "address"
        },
        {
          "internalType": "bytes",
          "name": "data",
          "type": "bytes"
        }
      ],
      "name": "upgradeToAndCall",
      "outputs": [],
      "stateMutability": "payable",
      "type": "function"
    },
    {
      "inputs": [
        {
          "internalType": "uint256",
          "name": "",
          "type": "uint256"
        }
      ],
      "name": "validProjectTokenIds",
      "outputs": [
        {
          "internalType": "bool",
          "name": "",
          "type": "bool"
        }
      ],
      "stateMutability": "view",
      "type": "function"
    }
  ],
  "numDeployments": 1,
  "solcInputHash": "87265e09931175e693d8016b4db075c5",
  "bytecode": "0x60a0604052306080523480156200001557600080fd5b506200002062000026565b62000156565b6200003260ff62000035565b50565b60008054610100900460ff1615620000ce578160ff1660011480156200006e57506200006c306200014760201b62002b851760201c565b155b620000c65760405162461bcd60e51b815260206004820152602e602482015260008051602062004e7d83398151915260448201526d191e481a5b9a5d1a585b1a5e995960921b60648201526084015b60405180910390fd5b506000919050565b60005460ff8084169116106200012d5760405162461bcd60e51b815260206004820152602e602482015260008051602062004e7d83398151915260448201526d191e481a5b9a5d1a585b1a5e995960921b6064820152608401620000bd565b506000805460ff191660ff92909216919091179055600190565b6001600160a01b03163b151590565b608051614cef6200018e6000396000818161106b015281816110ab0152818161188f015281816118cf0152611bd40152614cef6000f3fe6080604052600436106102935760003560e01c80636352211e1161015a578063abf410e5116100c1578063e882e37b1161007a578063e882e37b14610833578063e985e9c514610853578063eb85f4d31461089c578063ec87621c146108d7578063f2fde38b146108f9578063ffa1ad741461091957600080fd5b8063abf410e514610773578063b88d4fde14610793578063bac0dd35146107b3578063c87b56dd146107d3578063d547741f146107f3578063dfe7ce5f1461081357600080fd5b80638903f70c116101135780638903f70c146106b55780638da5cb5b146106eb57806391d148541461070957806395d89b4114610729578063a217fddf1461073e578063a22cb4651461075357600080fd5b80636352211e146106215780636c0360eb1461064157806370a0823114610656578063715018a6146106765780638129fc1c1461068b5780638456cb59146106a057600080fd5b8063365fe85d116101fe5780634f1ef286116101b75780634f1ef2861461058157806351d8cff61461059457806352d1902d146105b457806355f804b3146105c95780635873f998146105e95780635c975abb1461060957600080fd5b8063365fe85d1461049f5780633e8eb5a4146104cf5780633f4ba83a146104ef57806342842e0e1461050457806347e31686146105245780634957f0e11461055157600080fd5b806323b872dd1161025057806323b872dd146103b6578063248a9ca3146103d65780632a31e837146104075780632f2ff15d1461043f57806336568abe1461045f5780633659cfe61461047f57600080fd5b806301ffc9a71461029857806306fdde03146102cd578063081812fc146102ef578063095ea7b31461032757806310dda6711461034957806318160ddd14610377575b600080fd5b3480156102a457600080fd5b506102b86102b3366004613e7e565b61094a565b60405190151581526020015b60405180910390f35b3480156102d957600080fd5b506102e2610975565b6040516102c49190613ef3565b3480156102fb57600080fd5b5061030f61030a366004613f06565b610a07565b6040516001600160a01b0390911681526020016102c4565b34801561033357600080fd5b50610347610342366004613f36565b610a94565b005b34801561035557600080fd5b50610369610364366004614003565b610ba9565b6040519081526020016102c4565b34801561038357600080fd5b5060655461039e90600160801b90046001600160801b031681565b6040516001600160801b0390911681526020016102c4565b3480156103c257600080fd5b506103476103d1366004614198565b610f8c565b3480156103e257600080fd5b506103696103f1366004613f06565b6000908152610102602052604090206001015490565b34801561041357600080fd5b506103696104223660046141d4565b8051602081830181018051606b8252928201919093012091525481565b34801561044b57600080fd5b5061034761045a366004614209565b610fbd565b34801561046b57600080fd5b5061034761047a366004614209565b610fe3565b34801561048b57600080fd5b5061034761049a366004614235565b611061565b3480156104ab57600080fd5b506102b86104ba366004613f06565b6000908152606a602052604090205460ff1690565b3480156104db57600080fd5b506103476104ea366004614209565b611140565b3480156104fb57600080fd5b50610347611254565b34801561051057600080fd5b5061034761051f366004614198565b6112b5565b34801561053057600080fd5b5061054461053f366004613f06565b6112d0565b6040516102c49190614250565b34801561055d57600080fd5b506102b861056c366004613f06565b606a6020526000908152604090205460ff1681565b61034761058f366004614384565b611885565b3480156105a057600080fd5b506103476105af3660046143d2565b611951565b3480156105c057600080fd5b50610369611bc7565b3480156105d557600080fd5b506103476105e43660046141d4565b611c7a565b3480156105f557600080fd5b50610347610604366004613f06565b611cb7565b34801561061557600080fd5b5060d05460ff166102b8565b34801561062d57600080fd5b5061030f61063c366004613f06565b611e28565b34801561064d57600080fd5b506102e2611e9f565b34801561066257600080fd5b50610369610671366004614235565b611f2d565b34801561068257600080fd5b50610347611fb4565b34801561069757600080fd5b50610347611fea565b3480156106ac57600080fd5b506103476120d9565b3480156106c157600080fd5b506106d56106d0366004613f06565b61213a565b6040516102c49a99989796959493929190614403565b3480156106f757600080fd5b50609e546001600160a01b031661030f565b34801561071557600080fd5b506102b8610724366004614209565b612657565b34801561073557600080fd5b506102e2612683565b34801561074a57600080fd5b50610369600081565b34801561075f57600080fd5b5061034761076e3660046144d1565b612692565b34801561077f57600080fd5b5060665461030f906001600160a01b031681565b34801561079f57600080fd5b506103476107ae36600461450d565b61269d565b3480156107bf57600080fd5b5060655461039e906001600160801b031681565b3480156107df57600080fd5b506102e26107ee366004613f06565b6126d5565b3480156107ff57600080fd5b5061034761080e366004614209565b612841565b34801561081f57600080fd5b5061034761082e366004614575565b612867565b34801561083f57600080fd5b5061034761084e366004614235565b612aa1565b34801561085f57600080fd5b506102b861086e3660046146d1565b6001600160a01b03918216600090815260716020908152604080832093909416825291909152205460ff1690565b3480156108a857600080fd5b506102b86108b73660046141d4565b805160208183018101805160698252928201919093012091525460ff1681565b3480156108e357600080fd5b50610369600080516020614c7383398151915281565b34801561090557600080fd5b50610347610914366004614235565b612aed565b34801561092557600080fd5b506102e2604051806040016040528060058152602001640312e312e360dc1b81525081565b60006001600160e01b03198216637965db0b60e01b148061096f575061096f82612b94565b92915050565b6060606c8054610984906146fb565b80601f01602080910402602001604051908101604052809291908181526020018280546109b0906146fb565b80156109fd5780601f106109d2576101008083540402835291602001916109fd565b820191906000526020600020905b8154815290600101906020018083116109e057829003601f168201915b5050505050905090565b6000610a1282612be4565b610a785760405162461bcd60e51b815260206004820152602c60248201527f4552433732313a20617070726f76656420717565727920666f72206e6f6e657860448201526b34b9ba32b73a103a37b5b2b760a11b60648201526084015b60405180910390fd5b506000908152607060205260409020546001600160a01b031690565b6000610a9f82611e28565b9050806001600160a01b0316836001600160a01b031603610b0c5760405162461bcd60e51b815260206004820152602160248201527f4552433732313a20617070726f76616c20746f2063757272656e74206f776e656044820152603960f91b6064820152608401610a6f565b336001600160a01b0382161480610b285750610b28813361086e565b610b9a5760405162461bcd60e51b815260206004820152603860248201527f4552433732313a20617070726f76652063616c6c6572206973206e6f74206f7760448201527f6e6572206e6f7220617070726f76656420666f7220616c6c00000000000000006064820152608401610a6f565b610ba48383612c01565b505050565b6000610bc3600080516020614c7383398151915233612657565b80610be7575033610bdc609e546001600160a01b031690565b6001600160a01b0316145b610c035760405162461bcd60e51b8152600401610a6f90614735565b60d05460ff1615610c265760405162461bcd60e51b8152600401610a6f9061476c565b610c3f8b60405180602001604052806000815250612c6f565b15610c8c5760405162461bcd60e51b815260206004820152601960248201527f50726f6a65637449642063616e6e6f7420626520656d707479000000000000006044820152606401610a6f565b60698b604051610c9c9190614796565b9081526040519081900360200190205460ff1615610cf55760405162461bcd60e51b815260206004820152601660248201527550726f6a65637420616c72656164792065786973747360501b6044820152606401610a6f565b600160698c604051610d079190614796565b90815260408051918290036020908101909220805493151560ff19948516179055606580546001600160801b038082166001908101808316600160801b94859004841683019093169093026fffffffffffffffffffffffffffffffff1916919091179092556000818152606a909452919092208054909316909117909155610d8f8d82612c82565b60008181526068602090815260409091208d51610dae928f0190613d99565b5060008181526068602090815260409091208c51610dd4926001909201918e0190613d99565b5060008181526068602090815260409091208b51610dfa926002909201918d0190613d99565b5060008181526068602090815260409091208a51610e20926003909201918c0190613d99565b5060008181526068602090815260409091208951610e46926004909201918b0190613d99565b5060008181526068602090815260409091208851610e6c926005909201918a0190613d99565b5060008181526068602090815260409091208751610e9292600690920191890190613d99565b5060008181526068602090815260409091208651610eb892600790920191880190613d99565b5060008181526068602090815260409091208551610ede92600890920191870190613d99565b506000818152606860205260409081902060090180546001600160a01b0386166001600160a01b0319909116179055517fb6c14e0fdc5fdfaea1cc5671e7ec0cee1c83aafdee14c1811fc2837ad4687a8690610f51908f9084906001600160a01b03929092168252602082015260400190565b60405180910390a180606b8d604051610f6a9190614796565b9081526040519081900360200190205590505b9b9a5050505050505050505050565b610f963382612db5565b610fb25760405162461bcd60e51b8152600401610a6f906147b2565b610ba4838383612e9e565b60008281526101026020526040902060010154610fd98161303a565b610ba48383613044565b6001600160a01b03811633146110535760405162461bcd60e51b815260206004820152602f60248201527f416363657373436f6e74726f6c3a2063616e206f6e6c792072656e6f756e636560448201526e103937b632b9903337b91039b2b63360891b6064820152608401610a6f565b61105d82826130cb565b5050565b6001600160a01b037f00000000000000000000000000000000000000000000000000000000000000001630036110a95760405162461bcd60e51b8152600401610a6f90614803565b7f00000000000000000000000000000000000000000000000000000000000000006001600160a01b03166110f2600080516020614c53833981519152546001600160a01b031690565b6001600160a01b0316146111185760405162461bcd60e51b8152600401610a6f9061484f565b61112181613133565b6040805160008082526020820190925261113d9183919061315d565b50565b611158600080516020614c7383398151915233612657565b8061117c575033611171609e546001600160a01b031690565b6001600160a01b0316145b6111985760405162461bcd60e51b8152600401610a6f90614735565b60d05460ff16156111bb5760405162461bcd60e51b8152600401610a6f9061476c565b6111c482612be4565b6111e05760405162461bcd60e51b8152600401610a6f9061489b565b60008281526068602090815260409182902060090180546001600160a01b031981166001600160a01b0386811691821790935584519290911680835292820152909184917ff585da3452445cd066854ce9c4f3306e8deddd1d571e840b1dddaa1f3d4de53c910160405180910390a2505050565b6066546001600160a01b0316611272609e546001600160a01b031690565b6001600160a01b03821633148061129157506001600160a01b03811633145b6112ad5760405162461bcd60e51b8152600401610a6f906148cb565b61105d6132c8565b610ba48383836040518060200160405280600081525061269d565b61132f60405180610140016040528060608152602001606081526020016060815260200160608152602001606081526020016060815260200160608152602001606081526020016060815260200160006001600160a01b031681525090565b6000828152606860205260409081902081516101408101909252805482908290611358906146fb565b80601f0160208091040260200160405190810160405280929190818152602001828054611384906146fb565b80156113d15780601f106113a6576101008083540402835291602001916113d1565b820191906000526020600020905b8154815290600101906020018083116113b457829003601f168201915b505050505081526020016001820180546113ea906146fb565b80601f0160208091040260200160405190810160405280929190818152602001828054611416906146fb565b80156114635780601f1061143857610100808354040283529160200191611463565b820191906000526020600020905b81548152906001019060200180831161144657829003601f168201915b5050505050815260200160028201805461147c906146fb565b80601f01602080910402602001604051908101604052809291908181526020018280546114a8906146fb565b80156114f55780601f106114ca576101008083540402835291602001916114f5565b820191906000526020600020905b8154815290600101906020018083116114d857829003601f168201915b5050505050815260200160038201805461150e906146fb565b80601f016020809104026020016040519081016040528092919081815260200182805461153a906146fb565b80156115875780601f1061155c57610100808354040283529160200191611587565b820191906000526020600020905b81548152906001019060200180831161156a57829003601f168201915b505050505081526020016004820180546115a0906146fb565b80601f01602080910402602001604051908101604052809291908181526020018280546115cc906146fb565b80156116195780601f106115ee57610100808354040283529160200191611619565b820191906000526020600020905b8154815290600101906020018083116115fc57829003601f168201915b50505050508152602001600582018054611632906146fb565b80601f016020809104026020016040519081016040528092919081815260200182805461165e906146fb565b80156116ab5780601f10611680576101008083540402835291602001916116ab565b820191906000526020600020905b81548152906001019060200180831161168e57829003601f168201915b505050505081526020016006820180546116c4906146fb565b80601f01602080910402602001604051908101604052809291908181526020018280546116f0906146fb565b801561173d5780601f106117125761010080835404028352916020019161173d565b820191906000526020600020905b81548152906001019060200180831161172057829003601f168201915b50505050508152602001600782018054611756906146fb565b80601f0160208091040260200160405190810160405280929190818152602001828054611782906146fb565b80156117cf5780601f106117a4576101008083540402835291602001916117cf565b820191906000526020600020905b8154815290600101906020018083116117b257829003601f168201915b505050505081526020016008820180546117e8906146fb565b80601f0160208091040260200160405190810160405280929190818152602001828054611814906146fb565b80156118615780601f1061183657610100808354040283529160200191611861565b820191906000526020600020905b81548152906001019060200180831161184457829003601f168201915b5050509183525050600991909101546001600160a01b031660209091015292915050565b6001600160a01b037f00000000000000000000000000000000000000000000000000000000000000001630036118cd5760405162461bcd60e51b8152600401610a6f90614803565b7f00000000000000000000000000000000000000000000000000000000000000006001600160a01b0316611916600080516020614c53833981519152546001600160a01b031690565b6001600160a01b03161461193c5760405162461bcd60e51b8152600401610a6f9061484f565b61194582613133565b61105d8282600161315d565b611969600080516020614c7383398151915233612657565b8061198d575033611982609e546001600160a01b031690565b6001600160a01b0316145b6119a95760405162461bcd60e51b8152600401610a6f90614735565b60d05460ff16156119cc5760405162461bcd60e51b8152600401610a6f9061476c565b6119d582612be4565b6119f15760405162461bcd60e51b8152600401610a6f9061489b565b606981604051611a019190614796565b9081526040519081900360200190205460ff1615611a7a5760405162461bcd60e51b815260206004820152603060248201527f43616e74206368616e67652063757272656e742070726f6a656374496420746f60448201526f20616e206578697374696e67206f6e6560801b6064820152608401610a6f565b60008281526068602052604081208054611a93906146fb565b80601f0160208091040260200160405190810160405280929190818152602001828054611abf906146fb565b8015611b0c5780601f10611ae157610100808354040283529160200191611b0c565b820191906000526020600020905b815481529060010190602001808311611aef57829003601f168201915b505050505090506000606982604051611b259190614796565b9081526040805160209281900383019020805460ff191693151593909317909255600085815260688252919091208351611b6192850190613d99565b506001606983604051611b749190614796565b90815260405160209181900382018120805460ff1916931515939093179092558482527f7ece4c83f6835308c521f2fa1104412ee3c8e72879d4a3ea74f2c9a5223ac99a910160405180910390a1505050565b6000306001600160a01b037f00000000000000000000000000000000000000000000000000000000000000001614611c675760405162461bcd60e51b815260206004820152603860248201527f555550535570677261646561626c653a206d757374206e6f742062652063616c60448201527f6c6564207468726f7567682064656c656761746563616c6c00000000000000006064820152608401610a6f565b50600080516020614c5383398151915290565b609e546001600160a01b03163314611ca45760405162461bcd60e51b8152600401610a6f90614910565b805161105d906067906020840190613d99565b611ccf600080516020614c7383398151915233612657565b80611cf3575033611ce8609e546001600160a01b031690565b6001600160a01b0316145b611d0f5760405162461bcd60e51b8152600401610a6f90614735565b60d05460ff1615611d325760405162461bcd60e51b8152600401610a6f9061476c565b600081815260686020526040812090611d4b8282613e1d565b611d59600183016000613e1d565b611d67600283016000613e1d565b611d75600383016000613e1d565b611d83600483016000613e1d565b611d91600583016000613e1d565b611d9f600683016000613e1d565b611dad600783016000613e1d565b611dbb600883016000613e1d565b5060090180546001600160a01b031916905560658054600160801b90046001600160801b0316906010611ded8361495b565b82546001600160801b039182166101009390930a9283029190920219909116179055506000908152606a60205260409020805460ff19169055565b6000818152606e60205260408120546001600160a01b03168061096f5760405162461bcd60e51b815260206004820152602960248201527f4552433732313a206f776e657220717565727920666f72206e6f6e657869737460448201526832b73a103a37b5b2b760b91b6064820152608401610a6f565b60678054611eac906146fb565b80601f0160208091040260200160405190810160405280929190818152602001828054611ed8906146fb565b8015611f255780601f10611efa57610100808354040283529160200191611f25565b820191906000526020600020905b815481529060010190602001808311611f0857829003601f168201915b505050505081565b60006001600160a01b038216611f985760405162461bcd60e51b815260206004820152602a60248201527f4552433732313a2062616c616e636520717565727920666f7220746865207a65604482015269726f206164647265737360b01b6064820152608401610a6f565b506001600160a01b03166000908152606f602052604090205490565b609e546001600160a01b03163314611fde5760405162461bcd60e51b8152600401610a6f90614910565b611fe8600061335b565b565b6000611ff660016133ad565b9050801561200e576000805461ff0019166101001790555b61201661343a565b6120766040518060400160405280602081526020017f546f7563616e2050726f746f636f6c3a20436172626f6e2050726f6a65637473815250604051806040016040528060098152602001680544f5543414e2d43560bc1b815250613461565b61207e6134af565b6120866134df565b612091600033613044565b801561113d576000805461ff0019169055604051600181527f7f26b83ff96e1f2b6a682f133852f6798a09c465da95921460cefb38474024989060200160405180910390a150565b6066546001600160a01b03166120f7609e546001600160a01b031690565b6001600160a01b03821633148061211657506001600160a01b03811633145b6121325760405162461bcd60e51b8152600401610a6f906148cb565b61105d613512565b606860205260009081526040902080548190612155906146fb565b80601f0160208091040260200160405190810160405280929190818152602001828054612181906146fb565b80156121ce5780601f106121a3576101008083540402835291602001916121ce565b820191906000526020600020905b8154815290600101906020018083116121b157829003601f168201915b5050505050908060010180546121e3906146fb565b80601f016020809104026020016040519081016040528092919081815260200182805461220f906146fb565b801561225c5780601f106122315761010080835404028352916020019161225c565b820191906000526020600020905b81548152906001019060200180831161223f57829003601f168201915b505050505090806002018054612271906146fb565b80601f016020809104026020016040519081016040528092919081815260200182805461229d906146fb565b80156122ea5780601f106122bf576101008083540402835291602001916122ea565b820191906000526020600020905b8154815290600101906020018083116122cd57829003601f168201915b5050505050908060030180546122ff906146fb565b80601f016020809104026020016040519081016040528092919081815260200182805461232b906146fb565b80156123785780601f1061234d57610100808354040283529160200191612378565b820191906000526020600020905b81548152906001019060200180831161235b57829003601f168201915b50505050509080600401805461238d906146fb565b80601f01602080910402602001604051908101604052809291908181526020018280546123b9906146fb565b80156124065780601f106123db57610100808354040283529160200191612406565b820191906000526020600020905b8154815290600101906020018083116123e957829003601f168201915b50505050509080600501805461241b906146fb565b80601f0160208091040260200160405190810160405280929190818152602001828054612447906146fb565b80156124945780601f1061246957610100808354040283529160200191612494565b820191906000526020600020905b81548152906001019060200180831161247757829003601f168201915b5050505050908060060180546124a9906146fb565b80601f01602080910402602001604051908101604052809291908181526020018280546124d5906146fb565b80156125225780601f106124f757610100808354040283529160200191612522565b820191906000526020600020905b81548152906001019060200180831161250557829003601f168201915b505050505090806007018054612537906146fb565b80601f0160208091040260200160405190810160405280929190818152602001828054612563906146fb565b80156125b05780601f10612585576101008083540402835291602001916125b0565b820191906000526020600020905b81548152906001019060200180831161259357829003601f168201915b5050505050908060080180546125c5906146fb565b80601f01602080910402602001604051908101604052809291908181526020018280546125f1906146fb565b801561263e5780601f106126135761010080835404028352916020019161263e565b820191906000526020600020905b81548152906001019060200180831161262157829003601f168201915b505050600990930154919250506001600160a01b03168a565b6000918252610102602090815260408084206001600160a01b0393909316845291905290205460ff1690565b6060606d8054610984906146fb565b61105d33838361356a565b6126a73383612db5565b6126c35760405162461bcd60e51b8152600401610a6f906147b2565b6126cf84848484613638565b50505050565b60606126e082612be4565b6127465760405162461bcd60e51b815260206004820152603160248201527f45524337323155524953746f726167653a2055524920717565727920666f72206044820152703737b732bc34b9ba32b73a103a37b5b2b760791b6064820152608401610a6f565b60008281526068602052604081206008018054612762906146fb565b80601f016020809104026020016040519081016040528092919081815260200182805461278e906146fb565b80156127db5780601f106127b0576101008083540402835291602001916127db565b820191906000526020600020905b8154815290600101906020018083116127be57829003601f168201915b5050505050905060006127ec61366b565b905080516000036127fe575092915050565b81511561283057808260405160200161281892919061497e565b60405160208183030381529060405292505050919050565b6128398461367a565b949350505050565b6000828152610102602052604090206001015461285d8161303a565b610ba483836130cb565b61287f600080516020614c7383398151915233612657565b806128a3575033612898609e546001600160a01b031690565b6001600160a01b0316145b6128bf5760405162461bcd60e51b8152600401610a6f90614735565b60d05460ff16156128e25760405162461bcd60e51b8152600401610a6f9061476c565b6128eb8a612be4565b6129075760405162461bcd60e51b8152600401610a6f9061489b565b60008a81526068602090815260409091208a5161292c926001909201918c0190613d99565b5060008a81526068602090815260409091208951612952926002909201918b0190613d99565b5060008a81526068602090815260409091208851612978926003909201918a0190613d99565b5060008a8152606860209081526040909120875161299e92600490920191890190613d99565b5060008a815260686020908152604090912086516129c492600590920191880190613d99565b5060008a815260686020908152604090912085516129ea92600690920191870190613d99565b5060008a81526068602090815260409091208451612a1092600790920191860190613d99565b5060008a81526068602090815260409091208351612a3692600890920191850190613d99565b5060008a81526068602090815260409182902060090180546001600160a01b0319166001600160a01b03851617905590518b81527fda124279e8f8c56d142d1f8d79ba312ac54eb788b54f07b8040ff61eaf211009910160405180910390a150505050505050505050565b609e546001600160a01b03163314612acb5760405162461bcd60e51b8152600401610a6f90614910565b606680546001600160a01b0319166001600160a01b0392909216919091179055565b609e546001600160a01b03163314612b175760405162461bcd60e51b8152600401610a6f90614910565b6001600160a01b038116612b7c5760405162461bcd60e51b815260206004820152602660248201527f4f776e61626c653a206e6577206f776e657220697320746865207a65726f206160448201526564647265737360d01b6064820152608401610a6f565b61113d8161335b565b6001600160a01b03163b151590565b60006001600160e01b031982166380ac58cd60e01b1480612bc557506001600160e01b03198216635b5e139f60e01b145b8061096f57506301ffc9a760e01b6001600160e01b031983161461096f565b6000908152606e60205260409020546001600160a01b0316151590565b600081815260706020526040902080546001600160a01b0319166001600160a01b0384169081179091558190612c3682611e28565b6001600160a01b03167f8c5be1e5ebec7d5bd14f71427d1e84f3dd0314c0f7b2291e5b200ac8c7c3b92560405160405180910390a45050565b6000612c7b8383613744565b9392505050565b6001600160a01b038216612cd85760405162461bcd60e51b815260206004820181905260248201527f4552433732313a206d696e7420746f20746865207a65726f20616464726573736044820152606401610a6f565b612ce181612be4565b15612d2e5760405162461bcd60e51b815260206004820152601c60248201527f4552433732313a20746f6b656e20616c7265616479206d696e746564000000006044820152606401610a6f565b6001600160a01b0382166000908152606f60205260408120805460019290612d579084906149ad565b90915550506000818152606e602052604080822080546001600160a01b0319166001600160a01b03861690811790915590518392907fddf252ad1be2c89b69c2b068fc378daa952ba7f163c4a11628f55a4df523b3ef908290a45050565b6000612dc082612be4565b612e215760405162461bcd60e51b815260206004820152602c60248201527f4552433732313a206f70657261746f7220717565727920666f72206e6f6e657860448201526b34b9ba32b73a103a37b5b2b760a11b6064820152608401610a6f565b6000612e2c83611e28565b9050806001600160a01b0316846001600160a01b03161480612e7357506001600160a01b0380821660009081526071602090815260408083209388168352929052205460ff165b806128395750836001600160a01b0316612e8c84610a07565b6001600160a01b031614949350505050565b826001600160a01b0316612eb182611e28565b6001600160a01b031614612f155760405162461bcd60e51b815260206004820152602560248201527f4552433732313a207472616e736665722066726f6d20696e636f72726563742060448201526437bbb732b960d91b6064820152608401610a6f565b6001600160a01b038216612f775760405162461bcd60e51b8152602060048201526024808201527f4552433732313a207472616e7366657220746f20746865207a65726f206164646044820152637265737360e01b6064820152608401610a6f565b612f82600082612c01565b6001600160a01b0383166000908152606f60205260408120805460019290612fab9084906149c5565b90915550506001600160a01b0382166000908152606f60205260408120805460019290612fd99084906149ad565b90915550506000818152606e602052604080822080546001600160a01b0319166001600160a01b0386811691821790925591518493918716917fddf252ad1be2c89b69c2b068fc378daa952ba7f163c4a11628f55a4df523b3ef91a4505050565b61113d8133613769565b61304e8282612657565b61105d576000828152610102602090815260408083206001600160a01b03851684529091529020805460ff191660011790556130873390565b6001600160a01b0316816001600160a01b0316837f2f8788117e7eff1d82e926ec794901d17c78024a50270940304540a733656f0d60405160405180910390a45050565b6130d58282612657565b1561105d576000828152610102602090815260408083206001600160a01b0385168085529252808320805460ff1916905551339285917ff6391f5c32d9c69d2a47ea670b442974b53935d1edc7fd64eb21e047a839171b9190a45050565b609e546001600160a01b0316331461113d5760405162461bcd60e51b8152600401610a6f90614910565b7f4910fdfa16fed3260ed0e7147f7cc6da11a60208b5b9406d12a635614ffd91435460ff161561319057610ba4836137cd565b826001600160a01b03166352d1902d6040518163ffffffff1660e01b8152600401602060405180830381865afa9250505080156131ea575060408051601f3d908101601f191682019092526131e7918101906149dc565b60015b61324d5760405162461bcd60e51b815260206004820152602e60248201527f45524331393637557067726164653a206e657720696d706c656d656e7461746960448201526d6f6e206973206e6f74205555505360901b6064820152608401610a6f565b600080516020614c5383398151915281146132bc5760405162461bcd60e51b815260206004820152602960248201527f45524331393637557067726164653a20756e737570706f727465642070726f786044820152681a58589b195555525160ba1b6064820152608401610a6f565b50610ba4838383613869565b60d05460ff166133115760405162461bcd60e51b815260206004820152601460248201527314185d5cd8589b194e881b9bdd081c185d5cd95960621b6044820152606401610a6f565b60d0805460ff191690557f5db9ee0a495bf2e6ff9c91a7834c1ba4fdd244a5e8aa4e537bd38aeae4b073aa335b6040516001600160a01b03909116815260200160405180910390a1565b609e80546001600160a01b038381166001600160a01b0319831681179093556040519116919082907f8be0079c531659141344cd1fd0a4f28419497f9722a3daafe3b4186f6b6457e090600090a35050565b60008054610100900460ff16156133f4578160ff1660011480156133d05750303b155b6133ec5760405162461bcd60e51b8152600401610a6f906149f5565b506000919050565b60005460ff80841691161061341b5760405162461bcd60e51b8152600401610a6f906149f5565b506000805460ff191660ff92909216919091179055600190565b919050565b600054610100900460ff16611fe85760405162461bcd60e51b8152600401610a6f90614a43565b600054610100900460ff166134885760405162461bcd60e51b8152600401610a6f90614a43565b815161349b90606c906020850190613d99565b508051610ba490606d906020840190613d99565b600054610100900460ff166134d65760405162461bcd60e51b8152600401610a6f90614a43565b611fe83361335b565b600054610100900460ff166135065760405162461bcd60e51b8152600401610a6f90614a43565b60d0805460ff19169055565b60d05460ff16156135355760405162461bcd60e51b8152600401610a6f9061476c565b60d0805460ff191660011790557f62e78cea01bee320cd4e420270b5ea74000d11b0c9f74754ebdbfc544b05a25861333e3390565b816001600160a01b0316836001600160a01b0316036135cb5760405162461bcd60e51b815260206004820152601960248201527f4552433732313a20617070726f766520746f2063616c6c6572000000000000006044820152606401610a6f565b6001600160a01b03838116600081815260716020908152604080832094871680845294825291829020805460ff191686151590811790915591519182527f17307eab39ab6107e8899845ad3d59bd9653f200f220920489ca2b5937696c31910160405180910390a3505050565b613643848484612e9e565b61364f8484848461388e565b6126cf5760405162461bcd60e51b8152600401610a6f90614a8e565b606060678054610984906146fb565b606061368582612be4565b6136e95760405162461bcd60e51b815260206004820152602f60248201527f4552433732314d657461646174613a2055524920717565727920666f72206e6f60448201526e3732bc34b9ba32b73a103a37b5b2b760891b6064820152608401610a6f565b60006136f361366b565b905060008151116137135760405180602001604052806000815250612c7b565b8061371d8461398f565b60405160200161372e92919061497e565b6040516020818303038152906040529392505050565b600081518351148015612c7b5750508051602091820120825192909101919091201490565b6137738282612657565b61105d5761378b816001600160a01b03166014613a90565b613796836020613a90565b6040516020016137a7929190614ae0565b60408051601f198184030181529082905262461bcd60e51b8252610a6f91600401613ef3565b6001600160a01b0381163b61383a5760405162461bcd60e51b815260206004820152602d60248201527f455243313936373a206e657720696d706c656d656e746174696f6e206973206e60448201526c1bdd08184818dbdb9d1c9858dd609a1b6064820152608401610a6f565b600080516020614c5383398151915280546001600160a01b0319166001600160a01b0392909216919091179055565b61387283613c2c565b60008251118061387f5750805b15610ba4576126cf8383613c6c565b60006001600160a01b0384163b1561398457604051630a85bd0160e11b81526001600160a01b0385169063150b7a02906138d2903390899088908890600401614b55565b6020604051808303816000875af192505050801561390d575060408051601f3d908101601f1916820190925261390a91810190614b92565b60015b61396a573d80801561393b576040519150601f19603f3d011682016040523d82523d6000602084013e613940565b606091505b5080516000036139625760405162461bcd60e51b8152600401610a6f90614a8e565b805181602001fd5b6001600160e01b031916630a85bd0160e11b149050612839565b506001949350505050565b6060816000036139b65750506040805180820190915260018152600360fc1b602082015290565b8160005b81156139e057806139ca81614baf565b91506139d99050600a83614bde565b91506139ba565b60008167ffffffffffffffff8111156139fb576139fb613f60565b6040519080825280601f01601f191660200182016040528015613a25576020820181803683370190505b5090505b841561283957613a3a6001836149c5565b9150613a47600a86614bf2565b613a529060306149ad565b60f81b818381518110613a6757613a67614c06565b60200101906001600160f81b031916908160001a905350613a89600a86614bde565b9450613a29565b60606000613a9f836002614c1c565b613aaa9060026149ad565b67ffffffffffffffff811115613ac257613ac2613f60565b6040519080825280601f01601f191660200182016040528015613aec576020820181803683370190505b509050600360fc1b81600081518110613b0757613b07614c06565b60200101906001600160f81b031916908160001a905350600f60fb1b81600181518110613b3657613b36614c06565b60200101906001600160f81b031916908160001a9053506000613b5a846002614c1c565b613b659060016149ad565b90505b6001811115613bdd576f181899199a1a9b1b9c1cb0b131b232b360811b85600f1660108110613b9957613b99614c06565b1a60f81b828281518110613baf57613baf614c06565b60200101906001600160f81b031916908160001a90535060049490941c93613bd681614c3b565b9050613b68565b508315612c7b5760405162461bcd60e51b815260206004820181905260248201527f537472696e67733a20686578206c656e67746820696e73756666696369656e746044820152606401610a6f565b613c35816137cd565b6040516001600160a01b038216907fbc7cd75a20ee27fd9adebab32041f755214dbc6bffa90cc0225b39da2e5c2d3b90600090a250565b60606001600160a01b0383163b613cd45760405162461bcd60e51b815260206004820152602660248201527f416464726573733a2064656c65676174652063616c6c20746f206e6f6e2d636f6044820152651b9d1c9858dd60d21b6064820152608401610a6f565b600080846001600160a01b031684604051613cef9190614796565b600060405180830381855af49150503d8060008114613d2a576040519150601f19603f3d011682016040523d82523d6000602084013e613d2f565b606091505b5091509150613d578282604051806060016040528060278152602001614c9360279139613d60565b95945050505050565b60608315613d6f575081612c7b565b825115613d7f5782518084602001fd5b8160405162461bcd60e51b8152600401610a6f9190613ef3565b828054613da5906146fb565b90600052602060002090601f016020900481019282613dc75760008555613e0d565b82601f10613de057805160ff1916838001178555613e0d565b82800160010185558215613e0d579182015b82811115613e0d578251825591602001919060010190613df2565b50613e19929150613e53565b5090565b508054613e29906146fb565b6000825580601f10613e39575050565b601f01602090049060005260206000209081019061113d91905b5b80821115613e195760008155600101613e54565b6001600160e01b03198116811461113d57600080fd5b600060208284031215613e9057600080fd5b8135612c7b81613e68565b60005b83811015613eb6578181015183820152602001613e9e565b838111156126cf5750506000910152565b60008151808452613edf816020860160208601613e9b565b601f01601f19169290920160200192915050565b602081526000612c7b6020830184613ec7565b600060208284031215613f1857600080fd5b5035919050565b80356001600160a01b038116811461343557600080fd5b60008060408385031215613f4957600080fd5b613f5283613f1f565b946020939093013593505050565b634e487b7160e01b600052604160045260246000fd5b600082601f830112613f8757600080fd5b813567ffffffffffffffff80821115613fa257613fa2613f60565b604051601f8301601f19908116603f01168101908282118183101715613fca57613fca613f60565b81604052838152866020858801011115613fe357600080fd5b836020870160208301376000602085830101528094505050505092915050565b60008060008060008060008060008060006101608c8e03121561402557600080fd5b61402e8c613f1f565b9a5067ffffffffffffffff8060208e0135111561404a57600080fd5b61405a8e60208f01358f01613f76565b9a508060408e0135111561406d57600080fd5b61407d8e60408f01358f01613f76565b99508060608e0135111561409057600080fd5b6140a08e60608f01358f01613f76565b98508060808e013511156140b357600080fd5b6140c38e60808f01358f01613f76565b97508060a08e013511156140d657600080fd5b6140e68e60a08f01358f01613f76565b96508060c08e013511156140f957600080fd5b6141098e60c08f01358f01613f76565b95508060e08e0135111561411c57600080fd5b61412c8e60e08f01358f01613f76565b9450806101008e0135111561414057600080fd5b6141518e6101008f01358f01613f76565b9350806101208e0135111561416557600080fd5b506141778d6101208e01358e01613f76565b91506141866101408d01613f1f565b90509295989b509295989b9093969950565b6000806000606084860312156141ad57600080fd5b6141b684613f1f565b92506141c460208501613f1f565b9150604084013590509250925092565b6000602082840312156141e657600080fd5b813567ffffffffffffffff8111156141fd57600080fd5b61283984828501613f76565b6000806040838503121561421c57600080fd5b8235915061422c60208401613f1f565b90509250929050565b60006020828403121561424757600080fd5b612c7b82613f1f565b602081526000825161014080602085015261426f610160850183613ec7565b91506020850151601f198086850301604087015261428d8483613ec7565b935060408701519150808685030160608701526142aa8483613ec7565b935060608701519150808685030160808701526142c78483613ec7565b935060808701519150808685030160a08701526142e48483613ec7565b935060a08701519150808685030160c08701526143018483613ec7565b935060c08701519150808685030160e087015261431e8483613ec7565b935060e0870151915061010081878603018188015261433d8584613ec7565b94508088015192505061012081878603018188015261435c8584613ec7565b9450808801519250505061437a828601826001600160a01b03169052565b5090949350505050565b6000806040838503121561439757600080fd5b6143a083613f1f565b9150602083013567ffffffffffffffff8111156143bc57600080fd5b6143c885828601613f76565b9150509250929050565b600080604083850312156143e557600080fd5b82359150602083013567ffffffffffffffff8111156143bc57600080fd5b60006101408083526144178184018e613ec7565b9050828103602084015261442b818d613ec7565b9050828103604084015261443f818c613ec7565b90508281036060840152614453818b613ec7565b90508281036080840152614467818a613ec7565b905082810360a084015261447b8189613ec7565b905082810360c084015261448f8188613ec7565b905082810360e08401526144a38187613ec7565b90508281036101008401526144b88186613ec7565b915050610f7d6101208301846001600160a01b03169052565b600080604083850312156144e457600080fd5b6144ed83613f1f565b91506020830135801515811461450257600080fd5b809150509250929050565b6000806000806080858703121561452357600080fd5b61452c85613f1f565b935061453a60208601613f1f565b925060408501359150606085013567ffffffffffffffff81111561455d57600080fd5b61456987828801613f76565b91505092959194509250565b6000806000806000806000806000806101408b8d03121561459557600080fd5b8a35995060208b013567ffffffffffffffff808211156145b457600080fd5b6145c08e838f01613f76565b9a5060408d01359150808211156145d657600080fd5b6145e28e838f01613f76565b995060608d01359150808211156145f857600080fd5b6146048e838f01613f76565b985060808d013591508082111561461a57600080fd5b6146268e838f01613f76565b975060a08d013591508082111561463c57600080fd5b6146488e838f01613f76565b965060c08d013591508082111561465e57600080fd5b61466a8e838f01613f76565b955060e08d013591508082111561468057600080fd5b61468c8e838f01613f76565b94506101008d01359150808211156146a357600080fd5b506146b08d828e01613f76565b9250506146c06101208c01613f1f565b90509295989b9194979a5092959850565b600080604083850312156146e457600080fd5b6146ed83613f1f565b915061422c60208401613f1f565b600181811c9082168061470f57607f821691505b60208210810361472f57634e487b7160e01b600052602260045260246000fd5b50919050565b60208082526018908201527f43616c6c6572206973206e6f7420617574686f72697a65640000000000000000604082015260600190565b60208082526010908201526f14185d5cd8589b194e881c185d5cd95960821b604082015260600190565b600082516147a8818460208701613e9b565b9190910192915050565b60208082526031908201527f4552433732313a207472616e736665722063616c6c6572206973206e6f74206f6040820152701ddb995c881b9bdc88185c1c1c9bdd9959607a1b606082015260800190565b6020808252602c908201527f46756e6374696f6e206d7573742062652063616c6c6564207468726f7567682060408201526b19195b1959d85d1958d85b1b60a21b606082015260800190565b6020808252602c908201527f46756e6374696f6e206d7573742062652063616c6c6564207468726f7567682060408201526b6163746976652070726f787960a01b606082015260800190565b602080825260169082015275141c9bda9958dd081b9bdd081e595d081b5a5b9d195960521b604082015260600190565b60208082526025908201527f43616c6c6572206973206e6f74207468652072656769737472792c206e6f722060408201526437bbb732b960d91b606082015260800190565b6020808252818101527f4f776e61626c653a2063616c6c6572206973206e6f7420746865206f776e6572604082015260600190565b634e487b7160e01b600052601160045260246000fd5b60006001600160801b0382168061497457614974614945565b6000190192915050565b60008351614990818460208801613e9b565b8351908301906149a4818360208801613e9b565b01949350505050565b600082198211156149c0576149c0614945565b500190565b6000828210156149d7576149d7614945565b500390565b6000602082840312156149ee57600080fd5b5051919050565b6020808252602e908201527f496e697469616c697a61626c653a20636f6e747261637420697320616c72656160408201526d191e481a5b9a5d1a585b1a5e995960921b606082015260800190565b6020808252602b908201527f496e697469616c697a61626c653a20636f6e7472616374206973206e6f74206960408201526a6e697469616c697a696e6760a81b606082015260800190565b60208082526032908201527f4552433732313a207472616e7366657220746f206e6f6e20455243373231526560408201527131b2b4bb32b91034b6b83632b6b2b73a32b960711b606082015260800190565b7f416363657373436f6e74726f6c3a206163636f756e7420000000000000000000815260008351614b18816017850160208801613e9b565b7001034b99036b4b9b9b4b733903937b6329607d1b6017918401918201528351614b49816028840160208801613e9b565b01602801949350505050565b6001600160a01b0385811682528416602082015260408101839052608060608201819052600090614b8890830184613ec7565b9695505050505050565b600060208284031215614ba457600080fd5b8151612c7b81613e68565b600060018201614bc157614bc1614945565b5060010190565b634e487b7160e01b600052601260045260246000fd5b600082614bed57614bed614bc8565b500490565b600082614c0157614c01614bc8565b500690565b634e487b7160e01b600052603260045260246000fd5b6000816000190483118215151615614c3657614c36614945565b500290565b600081614c4a57614c4a614945565b50600019019056fe360894a13ba1a3210667c828492db98dca3e2076cc3735a920a3ca505d382bbc241ecf16d79d0f8dbfb92cbc07fe17840425976cf0667f022fe9877caa831b08416464726573733a206c6f772d6c6576656c2064656c65676174652063616c6c206661696c6564a26469706673582212205f08f94e02cc6310306ee64a3c4eec5bcfb45b2cffdf22a209417c4672697c3264736f6c634300080e0033496e697469616c697a61626c653a20636f6e747261637420697320616c726561",
  "devdoc": {
    "details": "Each project can have up to n vintages, with data stored in the `CarbonProjectVintages` contract. `vintageTokenId`s are mapped to `projectTokenId`s via `pvToTokenId` in the vintage contract.",
    "kind": "dev",
    "methods": {
      "addNewProject(address,string,string,string,string,string,string,string,string,string,address)": {
        "details": "Projects can be added by data-managers"
      },
      "approve(address,uint256)": {
        "details": "See {IERC721-approve}."
      },
      "balanceOf(address)": {
        "details": "See {IERC721-balanceOf}."
      },
      "constructor": {
        "custom:oz-upgrades-unsafe-allow": "constructor"
      },
      "getApproved(uint256)": {
        "details": "See {IERC721-getApproved}."
      },
      "getProjectDataByTokenId(uint256)": {
        "details": "retrieve all data from ProjectData struct"
      },
      "getRoleAdmin(bytes32)": {
        "details": "Returns the admin role that controls `role`. See {grantRole} and {revokeRole}. To change a role's admin, use {_setRoleAdmin}."
      },
      "grantRole(bytes32,address)": {
        "details": "Grants `role` to `account`. If `account` had not been already granted `role`, emits a {RoleGranted} event. Requirements: - the caller must have ``role``'s admin role."
      },
      "hasRole(bytes32,address)": {
        "details": "Returns `true` if `account` has been granted `role`."
      },
      "isApprovedForAll(address,address)": {
        "details": "See {IERC721-isApprovedForAll}."
      },
      "isValidProjectTokenId(uint256)": {
        "details": "Function used by the utility function `checkProjectTokenExists`"
      },
      "name()": {
        "details": "See {IERC721Metadata-name}."
      },
      "owner()": {
        "details": "Returns the address of the current owner."
      },
      "ownerOf(uint256)": {
        "details": "See {IERC721-ownerOf}."
      },
      "pause()": {
        "details": "wraps _pause(), only Admin"
      },
      "paused()": {
        "details": "Returns true if the contract is paused, and false otherwise."
      },
      "proxiableUUID()": {
        "details": "Implementation of the ERC1822 {proxiableUUID} function. This returns the storage slot used by the implementation. It is used to validate that the this implementation remains valid after an upgrade. IMPORTANT: A proxy pointing at a proxiable contract should not be considered proxiable itself, because this risks bricking a proxy that upgrades to it, by delegating to itself until out of gas. Thus it is critical that this function revert if invoked through a proxy. This is guaranteed by the `notDelegated` modifier."
      },
      "removeProject(uint256)": {
        "details": "Removes a project and corresponding data, sets projectTokenId invalid"
      },
      "renounceOwnership()": {
        "details": "Leaves the contract without owner. It will not be possible to call `onlyOwner` functions anymore. Can only be called by the current owner. NOTE: Renouncing ownership will leave the contract without an owner, thereby removing any functionality that is only available to the owner."
      },
      "renounceRole(bytes32,address)": {
        "details": "Revokes `role` from the calling account. Roles are often managed via {grantRole} and {revokeRole}: this function's purpose is to provide a mechanism for accounts to lose their privileges if they are compromised (such as when a trusted device is misplaced). If the calling account had been revoked `role`, emits a {RoleRevoked} event. Requirements: - the caller must be `account`."
      },
      "revokeRole(bytes32,address)": {
        "details": "Revokes `role` from `account`. If `account` had been granted `role`, emits a {RoleRevoked} event. Requirements: - the caller must have ``role``'s admin role."
      },
      "safeTransferFrom(address,address,uint256)": {
        "details": "See {IERC721-safeTransferFrom}."
      },
      "safeTransferFrom(address,address,uint256,bytes)": {
        "details": "See {IERC721-safeTransferFrom}."
      },
      "setApprovalForAll(address,bool)": {
        "details": "See {IERC721-setApprovalForAll}."
      },
      "symbol()": {
        "details": "See {IERC721Metadata-symbol}."
      },
      "tokenURI(uint256)": {
        "details": "Returns the Uniform Resource Identifier (URI) for `tokenId` token. based on the ERC721URIStorage implementation"
      },
      "transferFrom(address,address,uint256)": {
        "details": "See {IERC721-transferFrom}."
      },
      "transferOwnership(address)": {
        "details": "Transfers ownership of the contract to a new account (`newOwner`). Can only be called by the current owner."
      },
      "unpause()": {
        "details": "unpause the system, wraps _unpause(), only Admin"
      },
      "updateProject(uint256,string,string,string,string,string,string,string,string,address)": {
        "details": "Projects can be updated by data-managers"
      },
      "updateProjectId(uint256,string)": {
        "details": "Projects and their projectId's must be unique, changing them must be handled carefully"
      },
      "upgradeTo(address)": {
        "details": "Upgrade the implementation of the proxy to `newImplementation`. Calls {_authorizeUpgrade}. Emits an {Upgraded} event."
      },
      "upgradeToAndCall(address,bytes)": {
        "details": "Upgrade the implementation of the proxy to `newImplementation`, and subsequently execute the function call encoded in `data`. Calls {_authorizeUpgrade}. Emits an {Upgraded} event."
      }
    },
    "stateVariables": {
      "MANAGER_ROLE": {
        "details": "All roles related to Access Control"
      },
      "VERSION": {
        "details": "auto-created getter VERSION() returns the current version of the smart contract"
      }
    },
    "version": 1
  },
  "userdoc": {
    "kind": "user",
    "methods": {
      "addNewProject(address,string,string,string,string,string,string,string,string,string,address)": {
        "notice": "Adds a new carbon project along with attributes/data"
      },
      "pause()": {
        "notice": "Emergency function to disable contract's core functionality"
      },
      "updateBeneficiary(uint256,address)": {
        "notice": "Updates the project beneficiary"
      },
      "updateProject(uint256,string,string,string,string,string,string,string,string,address)": {
        "notice": "Updates and existing carbon project"
      }
    },
    "notice": "The CarbonProjects contract stores carbon project-specific data The data is stored in structs via ERC721 tokens Most contracts in the protocol query the data stored here The attributes in the Project-NFTs are constant over all vintages of the project",
    "version": 1
  },
  "storageLayout": {
    "storage": [
      {
        "astId": 1489,
        "contract": "contracts/CarbonProjects.sol:CarbonProjects",
        "label": "_initialized",
        "offset": 0,
        "slot": "0",
        "type": "t_uint8"
      },
      {
        "astId": 1492,
        "contract": "contracts/CarbonProjects.sol:CarbonProjects",
        "label": "_initializing",
        "offset": 1,
        "slot": "0",
        "type": "t_bool"
      },
      {
        "astId": 4534,
        "contract": "contracts/CarbonProjects.sol:CarbonProjects",
        "label": "__gap",
        "offset": 0,
        "slot": "1",
        "type": "t_array(t_uint256)50_storage"
      },
      {
        "astId": 4841,
        "contract": "contracts/CarbonProjects.sol:CarbonProjects",
        "label": "__gap",
        "offset": 0,
        "slot": "51",
        "type": "t_array(t_uint256)50_storage"
      },
      {
        "astId": 9308,
        "contract": "contracts/CarbonProjects.sol:CarbonProjects",
        "label": "projectTokenCounter",
        "offset": 0,
        "slot": "101",
        "type": "t_uint128"
      },
      {
        "astId": 9310,
        "contract": "contracts/CarbonProjects.sol:CarbonProjects",
        "label": "totalSupply",
        "offset": 16,
        "slot": "101",
        "type": "t_uint128"
      },
      {
        "astId": 9312,
        "contract": "contracts/CarbonProjects.sol:CarbonProjects",
        "label": "contractRegistry",
        "offset": 0,
        "slot": "102",
        "type": "t_address"
      },
      {
        "astId": 9314,
        "contract": "contracts/CarbonProjects.sol:CarbonProjects",
        "label": "baseURI",
        "offset": 0,
        "slot": "103",
        "type": "t_string_storage"
      },
      {
        "astId": 9320,
        "contract": "contracts/CarbonProjects.sol:CarbonProjects",
        "label": "projectData",
        "offset": 0,
        "slot": "104",
        "type": "t_mapping(t_uint256,t_struct(ProjectData)8044_storage)"
      },
      {
        "astId": 9325,
        "contract": "contracts/CarbonProjects.sol:CarbonProjects",
        "label": "projectIds",
        "offset": 0,
        "slot": "105",
        "type": "t_mapping(t_string_memory_ptr,t_bool)"
      },
      {
        "astId": 9330,
        "contract": "contracts/CarbonProjects.sol:CarbonProjects",
        "label": "validProjectTokenIds",
        "offset": 0,
        "slot": "106",
        "type": "t_mapping(t_uint256,t_bool)"
      },
      {
        "astId": 9335,
        "contract": "contracts/CarbonProjects.sol:CarbonProjects",
        "label": "pidToTokenId",
        "offset": 0,
        "slot": "107",
        "type": "t_mapping(t_string_memory_ptr,t_uint256)"
      },
      {
        "astId": 2838,
        "contract": "contracts/CarbonProjects.sol:CarbonProjects",
        "label": "_name",
        "offset": 0,
        "slot": "108",
        "type": "t_string_storage"
      },
      {
        "astId": 2840,
        "contract": "contracts/CarbonProjects.sol:CarbonProjects",
        "label": "_symbol",
        "offset": 0,
        "slot": "109",
        "type": "t_string_storage"
      },
      {
        "astId": 2844,
        "contract": "contracts/CarbonProjects.sol:CarbonProjects",
        "label": "_owners",
        "offset": 0,
        "slot": "110",
        "type": "t_mapping(t_uint256,t_address)"
      },
      {
        "astId": 2848,
        "contract": "contracts/CarbonProjects.sol:CarbonProjects",
        "label": "_balances",
        "offset": 0,
        "slot": "111",
        "type": "t_mapping(t_address,t_uint256)"
      },
      {
        "astId": 2852,
        "contract": "contracts/CarbonProjects.sol:CarbonProjects",
        "label": "_tokenApprovals",
        "offset": 0,
        "slot": "112",
        "type": "t_mapping(t_uint256,t_address)"
      },
      {
        "astId": 2858,
        "contract": "contracts/CarbonProjects.sol:CarbonProjects",
        "label": "_operatorApprovals",
        "offset": 0,
        "slot": "113",
        "type": "t_mapping(t_address,t_mapping(t_address,t_bool))"
      },
      {
        "astId": 3699,
        "contract": "contracts/CarbonProjects.sol:CarbonProjects",
        "label": "__gap",
        "offset": 0,
        "slot": "114",
        "type": "t_array(t_uint256)44_storage"
      },
      {
        "astId": 980,
        "contract": "contracts/CarbonProjects.sol:CarbonProjects",
        "label": "_owner",
        "offset": 0,
        "slot": "158",
        "type": "t_address"
      },
      {
        "astId": 1092,
        "contract": "contracts/CarbonProjects.sol:CarbonProjects",
        "label": "__gap",
        "offset": 0,
        "slot": "159",
        "type": "t_array(t_uint256)49_storage"
      },
      {
        "astId": 1781,
        "contract": "contracts/CarbonProjects.sol:CarbonProjects",
        "label": "_paused",
        "offset": 0,
        "slot": "208",
        "type": "t_bool"
      },
      {
        "astId": 1870,
        "contract": "contracts/CarbonProjects.sol:CarbonProjects",
        "label": "__gap",
        "offset": 0,
        "slot": "209",
        "type": "t_array(t_uint256)49_storage"
      },
      {
        "astId": 596,
        "contract": "contracts/CarbonProjects.sol:CarbonProjects",
        "label": "_roles",
        "offset": 0,
        "slot": "258",
        "type": "t_mapping(t_bytes32,t_struct(RoleData)591_storage)"
      },
      {
        "astId": 895,
        "contract": "contracts/CarbonProjects.sol:CarbonProjects",
        "label": "__gap",
        "offset": 0,
        "slot": "259",
        "type": "t_array(t_uint256)49_storage"
      },
      {
        "astId": 1471,
        "contract": "contracts/CarbonProjects.sol:CarbonProjects",
        "label": "__gap",
        "offset": 0,
        "slot": "308",
        "type": "t_array(t_uint256)50_storage"
      },
      {
        "astId": 1759,
        "contract": "contracts/CarbonProjects.sol:CarbonProjects",
        "label": "__gap",
        "offset": 0,
        "slot": "358",
        "type": "t_array(t_uint256)50_storage"
      }
    ],
    "types": {
      "t_address": {
        "encoding": "inplace",
        "label": "address",
        "numberOfBytes": "20"
      },
      "t_array(t_uint256)44_storage": {
        "base": "t_uint256",
        "encoding": "inplace",
        "label": "uint256[44]",
        "numberOfBytes": "1408"
      },
      "t_array(t_uint256)49_storage": {
        "base": "t_uint256",
        "encoding": "inplace",
        "label": "uint256[49]",
        "numberOfBytes": "1568"
      },
      "t_array(t_uint256)50_storage": {
        "base": "t_uint256",
        "encoding": "inplace",
        "label": "uint256[50]",
        "numberOfBytes": "1600"
      },
      "t_bool": {
        "encoding": "inplace",
        "label": "bool",
        "numberOfBytes": "1"
      },
      "t_bytes32": {
        "encoding": "inplace",
        "label": "bytes32",
        "numberOfBytes": "32"
      },
      "t_mapping(t_address,t_bool)": {
        "encoding": "mapping",
        "key": "t_address",
        "label": "mapping(address => bool)",
        "numberOfBytes": "32",
        "value": "t_bool"
      },
      "t_mapping(t_address,t_mapping(t_address,t_bool))": {
        "encoding": "mapping",
        "key": "t_address",
        "label": "mapping(address => mapping(address => bool))",
        "numberOfBytes": "32",
        "value": "t_mapping(t_address,t_bool)"
      },
      "t_mapping(t_address,t_uint256)": {
        "encoding": "mapping",
        "key": "t_address",
        "label": "mapping(address => uint256)",
        "numberOfBytes": "32",
        "value": "t_uint256"
      },
      "t_mapping(t_bytes32,t_struct(RoleData)591_storage)": {
        "encoding": "mapping",
        "key": "t_bytes32",
        "label": "mapping(bytes32 => struct AccessControlUpgradeable.RoleData)",
        "numberOfBytes": "32",
        "value": "t_struct(RoleData)591_storage"
      },
      "t_mapping(t_string_memory_ptr,t_bool)": {
        "encoding": "mapping",
        "key": "t_string_memory_ptr",
        "label": "mapping(string => bool)",
        "numberOfBytes": "32",
        "value": "t_bool"
      },
      "t_mapping(t_string_memory_ptr,t_uint256)": {
        "encoding": "mapping",
        "key": "t_string_memory_ptr",
        "label": "mapping(string => uint256)",
        "numberOfBytes": "32",
        "value": "t_uint256"
      },
      "t_mapping(t_uint256,t_address)": {
        "encoding": "mapping",
        "key": "t_uint256",
        "label": "mapping(uint256 => address)",
        "numberOfBytes": "32",
        "value": "t_address"
      },
      "t_mapping(t_uint256,t_bool)": {
        "encoding": "mapping",
        "key": "t_uint256",
        "label": "mapping(uint256 => bool)",
        "numberOfBytes": "32",
        "value": "t_bool"
      },
      "t_mapping(t_uint256,t_struct(ProjectData)8044_storage)": {
        "encoding": "mapping",
        "key": "t_uint256",
        "label": "mapping(uint256 => struct ProjectData)",
        "numberOfBytes": "32",
        "value": "t_struct(ProjectData)8044_storage"
      },
      "t_string_memory_ptr": {
        "encoding": "bytes",
        "label": "string",
        "numberOfBytes": "32"
      },
      "t_string_storage": {
        "encoding": "bytes",
        "label": "string",
        "numberOfBytes": "32"
      },
      "t_struct(ProjectData)8044_storage": {
        "encoding": "inplace",
        "label": "struct ProjectData",
        "members": [
          {
            "astId": 8025,
            "contract": "contracts/CarbonProjects.sol:CarbonProjects",
            "label": "projectId",
            "offset": 0,
            "slot": "0",
            "type": "t_string_storage"
          },
          {
            "astId": 8027,
            "contract": "contracts/CarbonProjects.sol:CarbonProjects",
            "label": "standard",
            "offset": 0,
            "slot": "1",
            "type": "t_string_storage"
          },
          {
            "astId": 8029,
            "contract": "contracts/CarbonProjects.sol:CarbonProjects",
            "label": "methodology",
            "offset": 0,
            "slot": "2",
            "type": "t_string_storage"
          },
          {
            "astId": 8031,
            "contract": "contracts/CarbonProjects.sol:CarbonProjects",
            "label": "region",
            "offset": 0,
            "slot": "3",
            "type": "t_string_storage"
          },
          {
            "astId": 8033,
            "contract": "contracts/CarbonProjects.sol:CarbonProjects",
            "label": "storageMethod",
            "offset": 0,
            "slot": "4",
            "type": "t_string_storage"
          },
          {
            "astId": 8035,
            "contract": "contracts/CarbonProjects.sol:CarbonProjects",
            "label": "method",
            "offset": 0,
            "slot": "5",
            "type": "t_string_storage"
          },
          {
            "astId": 8037,
            "contract": "contracts/CarbonProjects.sol:CarbonProjects",
            "label": "emissionType",
            "offset": 0,
            "slot": "6",
            "type": "t_string_storage"
          },
          {
            "astId": 8039,
            "contract": "contracts/CarbonProjects.sol:CarbonProjects",
            "label": "category",
            "offset": 0,
            "slot": "7",
            "type": "t_string_storage"
          },
          {
            "astId": 8041,
            "contract": "contracts/CarbonProjects.sol:CarbonProjects",
            "label": "uri",
            "offset": 0,
            "slot": "8",
            "type": "t_string_storage"
          },
          {
            "astId": 8043,
            "contract": "contracts/CarbonProjects.sol:CarbonProjects",
            "label": "beneficiary",
            "offset": 0,
            "slot": "9",
            "type": "t_address"
          }
        ],
        "numberOfBytes": "320"
      },
      "t_struct(RoleData)591_storage": {
        "encoding": "inplace",
        "label": "struct AccessControlUpgradeable.RoleData",
        "members": [
          {
            "astId": 588,
            "contract": "contracts/CarbonProjects.sol:CarbonProjects",
            "label": "members",
            "offset": 0,
            "slot": "0",
            "type": "t_mapping(t_address,t_bool)"
          },
          {
            "astId": 590,
            "contract": "contracts/CarbonProjects.sol:CarbonProjects",
            "label": "adminRole",
            "offset": 0,
            "slot": "1",
            "type": "t_bytes32"
          }
        ],
        "numberOfBytes": "64"
      },
      "t_uint128": {
        "encoding": "inplace",
        "label": "uint128",
        "numberOfBytes": "16"
      },
      "t_uint256": {
        "encoding": "inplace",
        "label": "uint256",
        "numberOfBytes": "32"
      },
      "t_uint8": {
        "encoding": "inplace",
        "label": "uint8",
        "numberOfBytes": "1"
      }
    }
  }
}