{
  "address": "0x9DeF34B1ace8C135029AEC19f9744762A572b2c3",
  "abi": [
    {
      "inputs": [],
      "stateMutability": "nonpayable",
      "type": "constructor"
    },
    {
      "anonymous": false,
      "inputs": [
        {
          "indexed": false,
          "internalType": "address",
          "name": "previousAdmin",
          "type": "address"
        },
        {
          "indexed": false,
          "internalType": "address",
          "name": "newAdmin",
          "type": "address"
        }
      ],
      "name": "AdminChanged",
      "type": "event"
    },
    {
      "anonymous": false,
      "inputs": [
        {
          "indexed": true,
          "internalType": "address",
          "name": "owner",
          "type": "address"
        },
        {
          "indexed": true,
          "internalType": "address",
          "name": "approved",
          "type": "address"
        },
        {
          "indexed": true,
          "internalType": "uint256",
          "name": "tokenId",
          "type": "uint256"
        }
      ],
      "name": "Approval",
      "type": "event"
    },
    {
      "anonymous": false,
      "inputs": [
        {
          "indexed": true,
          "internalType": "address",
          "name": "owner",
          "type": "address"
        },
        {
          "indexed": true,
          "internalType": "address",
          "name": "operator",
          "type": "address"
        },
        {
          "indexed": false,
          "internalType": "bool",
          "name": "approved",
          "type": "bool"
        }
      ],
      "name": "ApprovalForAll",
      "type": "event"
    },
    {
      "anonymous": false,
      "inputs": [
        {
          "indexed": false,
          "internalType": "string",
          "name": "baseURI",
          "type": "string"
        }
      ],
      "name": "BaseURISet",
      "type": "event"
    },
    {
      "anonymous": false,
      "inputs": [
        {
          "indexed": true,
          "internalType": "address",
          "name": "beacon",
          "type": "address"
        }
      ],
      "name": "BeaconUpgraded",
      "type": "event"
    },
    {
      "anonymous": false,
      "inputs": [
        {
          "indexed": false,
          "internalType": "uint256",
          "name": "tokenId",
          "type": "uint256"
        }
      ],
      "name": "CertificateMinted",
      "type": "event"
    },
    {
      "anonymous": false,
      "inputs": [
        {
          "indexed": false,
          "internalType": "uint256",
          "name": "tokenId",
          "type": "uint256"
        }
      ],
      "name": "CertificateUpdated",
      "type": "event"
    },
    {
      "anonymous": false,
      "inputs": [
        {
          "indexed": false,
          "internalType": "uint256",
          "name": "tokenId",
          "type": "uint256"
        },
        {
          "indexed": false,
          "internalType": "uint256[]",
          "name": "eventIds",
          "type": "uint256[]"
        }
      ],
      "name": "EventsAttached",
      "type": "event"
    },
    {
      "anonymous": false,
      "inputs": [
        {
          "indexed": false,
          "internalType": "uint8",
          "name": "version",
          "type": "uint8"
        }
      ],
      "name": "Initialized",
      "type": "event"
    },
    {
      "anonymous": false,
      "inputs": [
        {
          "indexed": false,
          "internalType": "uint256",
          "name": "previousAmount",
          "type": "uint256"
        },
        {
          "indexed": false,
          "internalType": "uint256",
          "name": "newAmount",
          "type": "uint256"
        }
      ],
      "name": "MinValidAmountSet",
      "type": "event"
    },
    {
      "anonymous": false,
      "inputs": [
        {
          "indexed": true,
          "internalType": "address",
          "name": "previousOwner",
          "type": "address"
        },
        {
          "indexed": true,
          "internalType": "address",
          "name": "newOwner",
          "type": "address"
        }
      ],
      "name": "OwnershipTransferred",
      "type": "event"
    },
    {
      "anonymous": false,
      "inputs": [
        {
          "indexed": false,
          "internalType": "address",
          "name": "ContractRegistry",
          "type": "address"
        }
      ],
      "name": "ToucanRegistrySet",
      "type": "event"
    },
    {
      "anonymous": false,
      "inputs": [
        {
          "indexed": true,
          "internalType": "address",
          "name": "from",
          "type": "address"
        },
        {
          "indexed": true,
          "internalType": "address",
          "name": "to",
          "type": "address"
        },
        {
          "indexed": true,
          "internalType": "uint256",
          "name": "tokenId",
          "type": "uint256"
        }
      ],
      "name": "Transfer",
      "type": "event"
    },
    {
      "anonymous": false,
      "inputs": [
        {
          "indexed": true,
          "internalType": "address",
          "name": "implementation",
          "type": "address"
        }
      ],
      "name": "Upgraded",
      "type": "event"
    },
    {
      "inputs": [],
      "name": "VERSION",
      "outputs": [
        {
          "internalType": "string",
          "name": "",
          "type": "string"
        }
      ],
      "stateMutability": "view",
      "type": "function"
    },
    {
      "inputs": [
        {
          "internalType": "address",
          "name": "to",
          "type": "address"
        },
        {
          "internalType": "uint256",
          "name": "tokenId",
          "type": "uint256"
        }
      ],
      "name": "approve",
      "outputs": [],
      "stateMutability": "nonpayable",
      "type": "function"
    },
    {
      "inputs": [
        {
          "internalType": "uint256",
          "name": "tokenId",
          "type": "uint256"
        },
        {
          "internalType": "uint256[]",
          "name": "retirementEventIds",
          "type": "uint256[]"
        }
      ],
      "name": "attachRetirementEvents",
      "outputs": [],
      "stateMutability": "nonpayable",
      "type": "function"
    },
    {
      "inputs": [
        {
          "internalType": "address",
          "name": "owner",
          "type": "address"
        }
      ],
      "name": "balanceOf",
      "outputs": [
        {
          "internalType": "uint256",
          "name": "",
          "type": "uint256"
        }
      ],
      "stateMutability": "view",
      "type": "function"
    },
    {
      "inputs": [],
      "name": "baseURI",
      "outputs": [
        {
          "internalType": "string",
          "name": "",
          "type": "string"
        }
      ],
      "stateMutability": "view",
      "type": "function"
    },
    {
      "inputs": [
        {
          "internalType": "uint256",
          "name": "",
          "type": "uint256"
        }
      ],
      "name": "certificates",
      "outputs": [
        {
          "internalType": "uint256",
          "name": "createdAt",
          "type": "uint256"
        },
        {
          "internalType": "address",
          "name": "retiringEntity",
          "type": "address"
        },
        {
          "internalType": "address",
          "name": "beneficiary",
          "type": "address"
        },
        {
          "internalType": "string",
          "name": "retiringEntityString",
          "type": "string"
        },
        {
          "internalType": "string",
          "name": "beneficiaryString",
          "type": "string"
        },
        {
          "internalType": "string",
          "name": "retirementMessage",
          "type": "string"
        }
      ],
      "stateMutability": "view",
      "type": "function"
    },
    {
      "inputs": [
        {
          "internalType": "uint256",
          "name": "",
          "type": "uint256"
        }
      ],
      "name": "claimedEvents",
      "outputs": [
        {
          "internalType": "bool",
          "name": "",
          "type": "bool"
        }
      ],
      "stateMutability": "view",
      "type": "function"
    },
    {
      "inputs": [],
      "name": "contractRegistry",
      "outputs": [
        {
          "internalType": "address",
          "name": "",
          "type": "address"
        }
      ],
      "stateMutability": "view",
      "type": "function"
    },
    {
      "inputs": [
        {
          "internalType": "uint256",
          "name": "tokenId",
          "type": "uint256"
        }
      ],
      "name": "getApproved",
      "outputs": [
        {
          "internalType": "address",
          "name": "",
          "type": "address"
        }
      ],
      "stateMutability": "view",
      "type": "function"
    },
    {
      "inputs": [
        {
          "internalType": "uint256",
          "name": "tokenId",
          "type": "uint256"
        }
      ],
      "name": "getData",
      "outputs": [
        {
          "components": [
            {
              "internalType": "uint256[]",
              "name": "retirementEventIds",
              "type": "uint256[]"
            },
            {
              "internalType": "uint256",
              "name": "createdAt",
              "type": "uint256"
            },
            {
              "internalType": "address",
              "name": "retiringEntity",
              "type": "address"
            },
            {
              "internalType": "address",
              "name": "beneficiary",
              "type": "address"
            },
            {
              "internalType": "string",
              "name": "retiringEntityString",
              "type": "string"
            },
            {
              "internalType": "string",
              "name": "beneficiaryString",
              "type": "string"
            },
            {
              "internalType": "string",
              "name": "retirementMessage",
              "type": "string"
            }
          ],
          "internalType": "struct RetirementCertificatesStorageV1.Data",
          "name": "",
          "type": "tuple"
        }
      ],
      "stateMutability": "view",
      "type": "function"
    },
    {
      "inputs": [
        {
          "internalType": "uint256",
          "name": "tokenId",
          "type": "uint256"
        }
      ],
      "name": "getRetiredAmount",
      "outputs": [
        {
          "internalType": "uint256",
          "name": "amount",
          "type": "uint256"
        }
      ],
      "stateMutability": "view",
      "type": "function"
    },
    {
      "inputs": [
        {
          "internalType": "uint256",
          "name": "tokenId",
          "type": "uint256"
        }
      ],
      "name": "getRetiredAmountInKilos",
      "outputs": [
        {
          "internalType": "uint256",
          "name": "",
          "type": "uint256"
        }
      ],
      "stateMutability": "view",
      "type": "function"
    },
    {
      "inputs": [
        {
          "internalType": "uint256",
          "name": "tokenId",
          "type": "uint256"
        }
      ],
      "name": "getRetiredAmountInTonnes",
      "outputs": [
        {
          "internalType": "uint256",
          "name": "",
          "type": "uint256"
        }
      ],
      "stateMutability": "view",
      "type": "function"
    },
    {
      "inputs": [
        {
          "internalType": "address",
          "name": "user",
          "type": "address"
        }
      ],
      "name": "getUserEvents",
      "outputs": [
        {
          "internalType": "uint256[]",
          "name": "",
          "type": "uint256[]"
        }
      ],
      "stateMutability": "view",
      "type": "function"
    },
    {
      "inputs": [
        {
          "internalType": "address",
          "name": "_contractRegistry",
          "type": "address"
        },
        {
          "internalType": "string",
          "name": "_baseURI",
          "type": "string"
        }
      ],
      "name": "initialize",
      "outputs": [],
      "stateMutability": "nonpayable",
      "type": "function"
    },
    {
      "inputs": [
        {
          "internalType": "address",
          "name": "owner",
          "type": "address"
        },
        {
          "internalType": "address",
          "name": "operator",
          "type": "address"
        }
      ],
      "name": "isApprovedForAll",
      "outputs": [
        {
          "internalType": "bool",
          "name": "",
          "type": "bool"
        }
      ],
      "stateMutability": "view",
      "type": "function"
    },
    {
      "inputs": [],
      "name": "kiloDenomination",
      "outputs": [
        {
          "internalType": "uint256",
          "name": "",
          "type": "uint256"
        }
      ],
      "stateMutability": "view",
      "type": "function"
    },
    {
      "inputs": [],
      "name": "minValidRetirementAmount",
      "outputs": [
        {
          "internalType": "uint256",
          "name": "",
          "type": "uint256"
        }
      ],
      "stateMutability": "view",
      "type": "function"
    },
    {
      "inputs": [
        {
          "internalType": "address",
          "name": "retiringEntity",
          "type": "address"
        },
        {
          "internalType": "string",
          "name": "retiringEntityString",
          "type": "string"
        },
        {
          "internalType": "address",
          "name": "beneficiary",
          "type": "address"
        },
        {
          "internalType": "string",
          "name": "beneficiaryString",
          "type": "string"
        },
        {
          "internalType": "string",
          "name": "retirementMessage",
          "type": "string"
        },
        {
          "internalType": "uint256[]",
          "name": "retirementEventIds",
          "type": "uint256[]"
        }
      ],
      "name": "mintCertificate",
      "outputs": [],
      "stateMutability": "nonpayable",
      "type": "function"
    },
    {
      "inputs": [],
      "name": "name",
      "outputs": [
        {
          "internalType": "string",
          "name": "",
          "type": "string"
        }
      ],
      "stateMutability": "view",
      "type": "function"
    },
    {
      "inputs": [],
      "name": "owner",
      "outputs": [
        {
          "internalType": "address",
          "name": "",
          "type": "address"
        }
      ],
      "stateMutability": "view",
      "type": "function"
    },
    {
      "inputs": [
        {
          "internalType": "uint256",
          "name": "tokenId",
          "type": "uint256"
        }
      ],
      "name": "ownerOf",
      "outputs": [
        {
          "internalType": "address",
          "name": "",
          "type": "address"
        }
      ],
      "stateMutability": "view",
      "type": "function"
    },
    {
      "inputs": [],
      "name": "proxiableUUID",
      "outputs": [
        {
          "internalType": "bytes32",
          "name": "",
          "type": "bytes32"
        }
      ],
      "stateMutability": "view",
      "type": "function"
    },
    {
      "inputs": [
        {
          "internalType": "address",
          "name": "retiringEntity",
          "type": "address"
        },
        {
          "internalType": "uint256",
          "name": "projectVintageTokenId",
          "type": "uint256"
        },
        {
          "internalType": "uint256",
          "name": "amount",
          "type": "uint256"
        },
        {
          "internalType": "bool",
          "name": "isLegacy",
          "type": "bool"
        }
      ],
      "name": "registerEvent",
      "outputs": [
        {
          "internalType": "uint256",
          "name": "",
          "type": "uint256"
        }
      ],
      "stateMutability": "nonpayable",
      "type": "function"
    },
    {
      "inputs": [],
      "name": "renounceOwnership",
      "outputs": [],
      "stateMutability": "nonpayable",
      "type": "function"
    },
    {
      "inputs": [],
      "name": "retireEventCounter",
      "outputs": [
        {
          "internalType": "uint256",
          "name": "",
          "type": "uint256"
        }
      ],
      "stateMutability": "view",
      "type": "function"
    },
    {
      "inputs": [
        {
          "internalType": "uint256",
          "name": "",
          "type": "uint256"
        }
      ],
      "name": "retirements",
      "outputs": [
        {
          "internalType": "uint256",
          "name": "createdAt",
          "type": "uint256"
        },
        {
          "internalType": "address",
          "name": "retiringEntity",
          "type": "address"
        },
        {
          "internalType": "uint256",
          "name": "amount",
          "type": "uint256"
        },
        {
          "internalType": "uint256",
          "name": "projectVintageTokenId",
          "type": "uint256"
        }
      ],
      "stateMutability": "view",
      "type": "function"
    },
    {
      "inputs": [
        {
          "internalType": "address",
          "name": "from",
          "type": "address"
        },
        {
          "internalType": "address",
          "name": "to",
          "type": "address"
        },
        {
          "internalType": "uint256",
          "name": "tokenId",
          "type": "uint256"
        }
      ],
      "name": "safeTransferFrom",
      "outputs": [],
      "stateMutability": "nonpayable",
      "type": "function"
    },
    {
      "inputs": [
        {
          "internalType": "address",
          "name": "from",
          "type": "address"
        },
        {
          "internalType": "address",
          "name": "to",
          "type": "address"
        },
        {
          "internalType": "uint256",
          "name": "tokenId",
          "type": "uint256"
        },
        {
          "internalType": "bytes",
          "name": "_data",
          "type": "bytes"
        }
      ],
      "name": "safeTransferFrom",
      "outputs": [],
      "stateMutability": "nonpayable",
      "type": "function"
    },
    {
      "inputs": [
        {
          "internalType": "address",
          "name": "operator",
          "type": "address"
        },
        {
          "internalType": "bool",
          "name": "approved",
          "type": "bool"
        }
      ],
      "name": "setApprovalForAll",
      "outputs": [],
      "stateMutability": "nonpayable",
      "type": "function"
    },
    {
      "inputs": [
        {
          "internalType": "string",
          "name": "baseURI_",
          "type": "string"
        }
      ],
      "name": "setBaseURI",
      "outputs": [],
      "stateMutability": "nonpayable",
      "type": "function"
    },
    {
      "inputs": [
        {
          "internalType": "uint256",
          "name": "amount",
          "type": "uint256"
        }
      ],
      "name": "setMinValidRetirementAmount",
      "outputs": [],
      "stateMutability": "nonpayable",
      "type": "function"
    },
    {
      "inputs": [
        {
          "internalType": "address",
          "name": "_address",
          "type": "address"
        }
      ],
      "name": "setToucanContractRegistry",
      "outputs": [],
      "stateMutability": "nonpayable",
      "type": "function"
    },
    {
      "inputs": [
        {
          "internalType": "bytes4",
          "name": "interfaceId",
          "type": "bytes4"
        }
      ],
      "name": "supportsInterface",
      "outputs": [
        {
          "internalType": "bool",
          "name": "",
          "type": "bool"
        }
      ],
      "stateMutability": "view",
      "type": "function"
    },
    {
      "inputs": [],
      "name": "symbol",
      "outputs": [
        {
          "internalType": "string",
          "name": "",
          "type": "string"
        }
      ],
      "stateMutability": "view",
      "type": "function"
    },
    {
      "inputs": [
        {
          "internalType": "uint256",
          "name": "tokenId",
          "type": "uint256"
        }
      ],
      "name": "tokenURI",
      "outputs": [
        {
          "internalType": "string",
          "name": "",
          "type": "string"
        }
      ],
      "stateMutability": "view",
      "type": "function"
    },
    {
      "inputs": [],
      "name": "tonneDenomination",
      "outputs": [
        {
          "internalType": "uint256",
          "name": "",
          "type": "uint256"
        }
      ],
      "stateMutability": "view",
      "type": "function"
    },
    {
      "inputs": [
        {
          "internalType": "address",
          "name": "from",
          "type": "address"
        },
        {
          "internalType": "address",
          "name": "to",
          "type": "address"
        },
        {
          "internalType": "uint256",
          "name": "tokenId",
          "type": "uint256"
        }
      ],
      "name": "transferFrom",
      "outputs": [],
      "stateMutability": "nonpayable",
      "type": "function"
    },
    {
      "inputs": [
        {
          "internalType": "address",
          "name": "newOwner",
          "type": "address"
        }
      ],
      "name": "transferOwnership",
      "outputs": [],
      "stateMutability": "nonpayable",
      "type": "function"
    },
    {
      "inputs": [
        {
          "internalType": "uint256",
          "name": "tokenId",
          "type": "uint256"
        },
        {
          "internalType": "string",
          "name": "retiringEntityString",
          "type": "string"
        },
        {
          "internalType": "address",
          "name": "beneficiary",
          "type": "address"
        },
        {
          "internalType": "string",
          "name": "beneficiaryString",
          "type": "string"
        },
        {
          "internalType": "string",
          "name": "retirementMessage",
          "type": "string"
        }
      ],
      "name": "updateCertificate",
      "outputs": [],
      "stateMutability": "nonpayable",
      "type": "function"
    },
    {
      "inputs": [
        {
          "internalType": "address",
          "name": "newImplementation",
          "type": "address"
        }
      ],
      "name": "upgradeTo",
      "outputs": [],
      "stateMutability": "nonpayable",
      "type": "function"
    },
    {
      "inputs": [
        {
          "internalType": "address",
          "name": "newImplementation",
          "type": "address"
        },
        {
          "internalType": "bytes",
          "name": "data",
          "type": "bytes"
        }
      ],
      "name": "upgradeToAndCall",
      "outputs": [],
      "stateMutability": "payable",
      "type": "function"
    }
  ],
  "numDeployments": 1,
  "solcInputHash": "e3fd635f9585ba864900f178b48d6d35",
  "bytecode": "0x60a0604052306080523480156200001557600080fd5b506200002062000026565b62000156565b6200003260ff62000035565b50565b60008054610100900460ff1615620000ce578160ff1660011480156200006e57506200006c306200014760201b6200202c1760201c565b155b620000c65760405162461bcd60e51b815260206004820152602e602482015260008051602062003e7383398151915260448201526d191e481a5b9a5d1a585b1a5e995960921b60648201526084015b60405180910390fd5b506000919050565b60005460ff8084169116106200012d5760405162461bcd60e51b815260206004820152602e602482015260008051602062003e7383398151915260448201526d191e481a5b9a5d1a585b1a5e995960921b6064820152608401620000bd565b506000805460ff191660ff92909216919091179055600190565b6001600160a01b03163b151590565b608051613ce56200018e60003960008181611255015281816112950152818161134f0152818161138f01526114220152613ce56000f3fe6080604052600436106102515760003560e01c80638da5cb5b11610139578063c87b56dd116100b6578063e985e9c51161007a578063e985e9c514610756578063f2fde38b1461079f578063f399e22e146107bf578063fa272a32146107df578063ff011677146107ff578063ffa1ad741461081f57600080fd5b8063c87b56dd146106bb578063d791399e146106db578063d84650be146106fb578063d894203d14610716578063e882e37b1461073657600080fd5b8063b2114f41116100fd578063b2114f4114610617578063b88d4fde14610648578063bba34a3714610668578063bbec9a2e14610688578063c6986067146106a457600080fd5b80638da5cb5b1461058c57806395d89b41146105aa57806399b00a8d146105bf578063a22cb465146105d6578063abf410e5146105f657600080fd5b80633659cfe6116101d257806361e4678b1161019657806361e4678b1461047b5780636352211e146104f0578063663b3e22146105105780636c0360eb1461054257806370a0823114610557578063715018a61461057757600080fd5b80633659cfe6146103f357806342842e0e146104135780634f1ef2861461043357806352d1902d1461044657806355f804b31461045b57600080fd5b80630d4b53e7116102195780630d4b53e714610338578063163c131914610366578063171e5ba21461038657806323b872dd146103b357806327de49ee146103d357600080fd5b80630178fe3f1461025657806301ffc9a71461028c57806306fdde03146102bc578063081812fc146102de578063095ea7b314610316575b600080fd5b34801561026257600080fd5b50610276610271366004612fe7565b610850565b6040516102839190613058565b60405180910390f35b34801561029857600080fd5b506102ac6102a7366004613154565b610af8565b6040519015158152602001610283565b3480156102c857600080fd5b506102d1610b4a565b6040516102839190613171565b3480156102ea57600080fd5b506102fe6102f9366004612fe7565b610bdc565b6040516001600160a01b039091168152602001610283565b34801561032257600080fd5b5061033661033136600461319b565b610c76565b005b34801561034457600080fd5b50610358610353366004612fe7565b610d8b565b604051908152602001610283565b34801561037257600080fd5b50610336610381366004613253565b610e5f565b34801561039257600080fd5b506103a66103a136600461333e565b61101d565b6040516102839190613359565b3480156103bf57600080fd5b506103366103ce36600461339d565b61108a565b3480156103df57600080fd5b506103586103ee3660046133e7565b6110bb565b3480156103ff57600080fd5b5061033661040e36600461333e565b61124b565b34801561041f57600080fd5b5061033661042e36600461339d565b61132a565b6103366104413660046134d2565b611345565b34801561045257600080fd5b50610358611415565b34801561046757600080fd5b50610336610476366004613520565b6114c8565b34801561048757600080fd5b506104c8610496366004612fe7565b61012e60205260009081526040902080546001820154600283015460039093015491926001600160a01b039091169184565b604080519485526001600160a01b039093166020850152918301526060820152608001610283565b3480156104fc57600080fd5b506102fe61050b366004612fe7565b611541565b34801561051c57600080fd5b5061053061052b366004612fe7565b6115b8565b60405161028396959493929190613555565b34801561054e57600080fd5b506102d1611797565b34801561056357600080fd5b5061035861057236600461333e565b611826565b34801561058357600080fd5b506103366118ad565b34801561059857600080fd5b506097546001600160a01b03166102fe565b3480156105b657600080fd5b506102d16118e3565b3480156105cb57600080fd5b5061035861012d5481565b3480156105e257600080fd5b506103366105f13660046135ba565b6118f2565b34801561060257600080fd5b50610132546102fe906001600160a01b031681565b34801561062357600080fd5b506102ac610632366004612fe7565b61012f6020526000908152604090205460ff1681565b34801561065457600080fd5b506103366106633660046135f1565b6118fd565b34801561067457600080fd5b50610336610683366004613659565b611935565b34801561069457600080fd5b50610358670de0b6b3a764000081565b3480156106b057600080fd5b506103586101355481565b3480156106c757600080fd5b506102d16106d6366004612fe7565b611adc565b3480156106e757600080fd5b506103586106f6366004612fe7565b611b90565b34801561070757600080fd5b5061035866038d7ea4c6800081565b34801561072257600080fd5b50610336610731366004613710565b611c4c565b34801561074257600080fd5b5061033661075136600461333e565b611cac565b34801561076257600080fd5b506102ac61077136600461375c565b6001600160a01b039182166000908152606a6020908152604080832093909416825291909152205460ff1690565b3480156107ab57600080fd5b506103366107ba36600461333e565b611d25565b3480156107cb57600080fd5b506103366107da3660046134d2565b611dbd565b3480156107eb57600080fd5b506103586107fa366004612fe7565b611eb1565b34801561080b57600080fd5b5061033661081a366004612fe7565b611f7e565b34801561082b57600080fd5b506102d1604051806040016040528060058152602001640312e302e360dc1b81525081565b6108a26040518060e00160405280606081526020016000815260200160006001600160a01b0316815260200160006001600160a01b031681526020016060815260200160608152602001606081525090565b60008281526101346020908152604091829020825181546101009381028201840190945260e08101848152909391928492849184018282801561090457602002820191906000526020600020905b8154815260200190600101908083116108f0575b50505091835250506001820154602082015260028201546001600160a01b039081166040830152600383015416606082015260048201805460809092019161094b9061378f565b80601f01602080910402602001604051908101604052809291908181526020018280546109779061378f565b80156109c45780601f10610999576101008083540402835291602001916109c4565b820191906000526020600020905b8154815290600101906020018083116109a757829003601f168201915b505050505081526020016005820180546109dd9061378f565b80601f0160208091040260200160405190810160405280929190818152602001828054610a099061378f565b8015610a565780601f10610a2b57610100808354040283529160200191610a56565b820191906000526020600020905b815481529060010190602001808311610a3957829003601f168201915b50505050508152602001600682018054610a6f9061378f565b80601f0160208091040260200160405190810160405280929190818152602001828054610a9b9061378f565b8015610ae85780601f10610abd57610100808354040283529160200191610ae8565b820191906000526020600020905b815481529060010190602001808311610acb57829003601f168201915b5050505050815250509050919050565b60006001600160e01b031982166380ac58cd60e01b1480610b2957506001600160e01b03198216635b5e139f60e01b145b80610b4457506301ffc9a760e01b6001600160e01b03198316145b92915050565b606060658054610b599061378f565b80601f0160208091040260200160405190810160405280929190818152602001828054610b859061378f565b8015610bd25780601f10610ba757610100808354040283529160200191610bd2565b820191906000526020600020905b815481529060010190602001808311610bb557829003601f168201915b5050505050905090565b6000818152606760205260408120546001600160a01b0316610c5a5760405162461bcd60e51b815260206004820152602c60248201527f4552433732313a20617070726f76656420717565727920666f72206e6f6e657860448201526b34b9ba32b73a103a37b5b2b760a11b60648201526084015b60405180910390fd5b506000908152606960205260409020546001600160a01b031690565b6000610c8182611541565b9050806001600160a01b0316836001600160a01b031603610cee5760405162461bcd60e51b815260206004820152602160248201527f4552433732313a20617070726f76616c20746f2063757272656e74206f776e656044820152603960f91b6064820152608401610c51565b336001600160a01b0382161480610d0a5750610d0a8133610771565b610d7c5760405162461bcd60e51b815260206004820152603860248201527f4552433732313a20617070726f76652063616c6c6572206973206e6f74206f7760448201527f6e6572206e6f7220617070726f76656420666f7220616c6c00000000000000006064820152608401610c51565b610d86838361203b565b505050565b600081815261013460209081526040808320805482518185028101850190935280835284938493929190830182828015610de457602002820191906000526020600020905b815481526020019060010190808311610dd0575b5050505050905060005b8151811015610e455761012e6000838381518110610e0e57610e0e6137c9565b602002602001015181526020019081526020016000206002015483610e3391906137f5565b9250610e3e8161380d565b9050610dee565b50610e5766038d7ea4c680008361383c565b949350505050565b6001600160a01b038a16331480610ee457506101325460405163787d871360e01b81523360048201526001600160a01b039091169063787d871390602401602060405180830381865afa158015610eba573d6000803e3d6000fd5b505050506040513d601f19601f82011682018060405250810190610ede9190613850565b15156001145b610f215760405162461bcd60e51b815260206004820152600e60248201526d24b73b30b634b21031b0b63632b960911b6044820152606401610c51565b610133805460010190819055610f378b826120a9565b610f43818c85856120c3565b6000818152610134602052604090204260018201556003810180546001600160a01b0319166001600160a01b038b16179055610f83906005018888612eda565b506000818152610134602052604090206002810180546001600160a01b0319166001600160a01b038e16179055610fbe906004018b8b612eda565b50600081815261013460205260409020610fdc906006018686612eda565b506040518181527f54b249c3cd4a5f80e81d2ad036b251d58d8f5482a926f25d12eabec192cf1ecd9060200160405180910390a15050505050505050505050565b6001600160a01b0381166000908152610130602090815260409182902080548351818402810184019094528084526060939283018282801561107e57602002820191906000526020600020905b81548152602001906001019080831161106a575b50505050509050919050565b6110943382612285565b6110b05760405162461bcd60e51b8152600401610c519061386d565b610d8683838361237b565b6101325460405163787d871360e01b81523360048201526000916001600160a01b03169063787d871390602401602060405180830381865afa158015611105573d6000803e3d6000fd5b505050506040513d601f19601f820116820180604052508101906111299190613850565b6111695760405162461bcd60e51b815260206004820152601160248201527021b0b63632b9103737ba1030902a21a79960791b6044820152606401610c51565b821580159061117b5750610135548310155b6111b85760405162461bcd60e51b815260206004820152600e60248201526d125b9d985b1a5908185b5bdd5b9d60921b6044820152606401610c51565b61012d80546001908101918290556001600160a01b03871660009081526101306020908152604082208054938401815582529020018190558261120857600081815261012e602052604090204290555b600081815261012e602052604090206001810180546001600160a01b0319166001600160a01b038916179055600281018590556003018590559050949350505050565b6001600160a01b037f00000000000000000000000000000000000000000000000000000000000000001630036112935760405162461bcd60e51b8152600401610c51906138be565b7f00000000000000000000000000000000000000000000000000000000000000006001600160a01b03166112dc600080516020613c69833981519152546001600160a01b031690565b6001600160a01b0316146113025760405162461bcd60e51b8152600401610c519061390a565b61130b81612517565b6040805160008082526020820190925261132791839190612541565b50565b610d86838383604051806020016040528060008152506118fd565b6001600160a01b037f000000000000000000000000000000000000000000000000000000000000000016300361138d5760405162461bcd60e51b8152600401610c51906138be565b7f00000000000000000000000000000000000000000000000000000000000000006001600160a01b03166113d6600080516020613c69833981519152546001600160a01b031690565b6001600160a01b0316146113fc5760405162461bcd60e51b8152600401610c519061390a565b61140582612517565b61141182826001612541565b5050565b6000306001600160a01b037f000000000000000000000000000000000000000000000000000000000000000016146114b55760405162461bcd60e51b815260206004820152603860248201527f555550535570677261646561626c653a206d757374206e6f742062652063616c60448201527f6c6564207468726f7567682064656c656761746563616c6c00000000000000006064820152608401610c51565b50600080516020613c6983398151915290565b6097546001600160a01b031633146114f25760405162461bcd60e51b8152600401610c5190613956565b805161150690610131906020840190612f5e565b507ff9c7803e94e0d3c02900d8a90893a6d5e90dd04d32a4cfe825520f82bf9f32f6816040516115369190613171565b60405180910390a150565b6000818152606760205260408120546001600160a01b031680610b445760405162461bcd60e51b815260206004820152602960248201527f4552433732313a206f776e657220717565727920666f72206e6f6e657869737460448201526832b73a103a37b5b2b760b91b6064820152608401610c51565b61013460205260009081526040902060018101546002820154600383015460048401805493946001600160a01b039384169493909216926115f89061378f565b80601f01602080910402602001604051908101604052809291908181526020018280546116249061378f565b80156116715780601f1061164657610100808354040283529160200191611671565b820191906000526020600020905b81548152906001019060200180831161165457829003601f168201915b5050505050908060050180546116869061378f565b80601f01602080910402602001604051908101604052809291908181526020018280546116b29061378f565b80156116ff5780601f106116d4576101008083540402835291602001916116ff565b820191906000526020600020905b8154815290600101906020018083116116e257829003601f168201915b5050505050908060060180546117149061378f565b80601f01602080910402602001604051908101604052809291908181526020018280546117409061378f565b801561178d5780601f106117625761010080835404028352916020019161178d565b820191906000526020600020905b81548152906001019060200180831161177057829003601f168201915b5050505050905086565b61013180546117a59061378f565b80601f01602080910402602001604051908101604052809291908181526020018280546117d19061378f565b801561181e5780601f106117f35761010080835404028352916020019161181e565b820191906000526020600020905b81548152906001019060200180831161180157829003601f168201915b505050505081565b60006001600160a01b0382166118915760405162461bcd60e51b815260206004820152602a60248201527f4552433732313a2062616c616e636520717565727920666f7220746865207a65604482015269726f206164647265737360b01b6064820152608401610c51565b506001600160a01b031660009081526068602052604090205490565b6097546001600160a01b031633146118d75760405162461bcd60e51b8152600401610c5190613956565b6118e160006126ac565b565b606060668054610b599061378f565b6114113383836126fe565b6119073383612285565b6119235760405162461bcd60e51b8152600401610c519061386d565b61192f848484846127cc565b50505050565b61193e88611541565b6001600160a01b0316336001600160a01b0316146119945760405162461bcd60e51b815260206004820152601360248201527229b2b73232b91034b9903737ba1037bbb732b960691b6044820152606401610c51565b600088815261013460205260409020600101546119b490620151806137f5565b42106119f55760405162461bcd60e51b815260206004820152601060248201526f0c8d081a1bdd5c9cc8195b185c1cd95960821b6044820152606401610c51565b8515611a1a57600088815261013460205260409020611a18906004018888612eda565b505b6001600160a01b03851615611a555760008881526101346020526040902060030180546001600160a01b0319166001600160a01b0387161790555b8215611a7a57600088815261013460205260409020611a78906005018585612eda565b505b8015611a9f57600088815261013460205260409020611a9d906006018383612eda565b505b6040518881527f9a100d2018161ede6ca34c8007992b09bbffc636a636014a922e4c87504126289060200160405180910390a15050505050505050565b6000818152606760205260409020546060906001600160a01b0316611b5d5760405162461bcd60e51b815260206004820152603160248201527f45524337323155524953746f726167653a2055524920717565727920666f72206044820152703737b732bc34b9ba32b73a103a37b5b2b760791b6064820152608401610c51565b610131611b69836127ff565b604051602001611b7a9291906139a7565b6040516020818303038152906040529050919050565b60008181526101346020908152604080832080548251818502810185019093528083528493830182828015611be457602002820191906000526020600020905b815481526020019060010190808311611bd0575b5050505050905060005b8151811015611c455761012e6000838381518110611c0e57611c0e6137c9565b602002602001015181526020019081526020016000206002015483611c3391906137f5565b9250611c3e8161380d565b9050611bee565b5050919050565b6000611c5784611541565b90506001600160a01b0381163314611ca05760405162461bcd60e51b815260206004820152600c60248201526b155b985d5d1a1bdc9a5e995960a21b6044820152606401610c51565b61192f848285856120c3565b6097546001600160a01b03163314611cd65760405162461bcd60e51b8152600401610c5190613956565b61013280546001600160a01b0319166001600160a01b0383169081179091556040519081527f86907b53cf2024579968511876daf0b4620d65803b550e33101baf70aeb6f5eb90602001611536565b6097546001600160a01b03163314611d4f5760405162461bcd60e51b8152600401610c5190613956565b6001600160a01b038116611db45760405162461bcd60e51b815260206004820152602660248201527f4f776e61626c653a206e6577206f776e657220697320746865207a65726f206160448201526564647265737360d01b6064820152608401610c51565b611327816126ac565b6000611dc96001612900565b90508015611de1576000805461ff0019166101001790555b611de961298d565b611e2e604051806080016040528060458152602001613c24604591396040518060400160405280600b81526020016a1513d550d0538b50d1549560aa1b8152506129b4565b611e36612a02565b61013280546001600160a01b0319166001600160a01b0385161790558151611e6690610131906020850190612f5e565b508015610d86576000805461ff0019169055604051600181527f7f26b83ff96e1f2b6a682f133852f6798a09c465da95921460cefb38474024989060200160405180910390a1505050565b600081815261013460209081526040808320805482518185028101850190935280835284938493929190830182828015611f0a57602002820191906000526020600020905b815481526020019060010190808311611ef6575b5050505050905060005b8151811015611f6b5761012e6000838381518110611f3457611f346137c9565b602002602001015181526020019081526020016000206002015483611f5991906137f5565b9250611f648161380d565b9050611f14565b50610e57670de0b6b3a76400008361383c565b6097546001600160a01b03163314611fa85760405162461bcd60e51b8152600401610c5190613956565b61013554818103611fe95760405162461bcd60e51b815260206004820152600b60248201526a105b1c9958591e481cd95d60aa1b6044820152606401610c51565b61013582905560408051828152602081018490527f551d481ccb1906e06e26b2f8bedf0b21755e092f001c4465f99aab9c67d8a039910160405180910390a15050565b6001600160a01b03163b151590565b600081815260696020526040902080546001600160a01b0319166001600160a01b038416908117909155819061207082611541565b6001600160a01b03167f8c5be1e5ebec7d5bd14f71427d1e84f3dd0314c0f7b2291e5b200ac8c7c3b92560405160405180910390a45050565b611411828260405180602001604052806000815250612a32565b60008190036121085760405162461bcd60e51b8152602060048201526011602482015270456d707479206576656e7420617272617960781b6044820152606401610c51565b60005b81811015612243576000838383818110612127576121276137c9565b60209081029290920135600081815261012e909352604090922060010154919250506001600160a01b038681169116146121a35760405162461bcd60e51b815260206004820152601b60248201527f496e76616c6964206576656e7420746f20626520636c61696d656400000000006044820152606401610c51565b600081815261012f602052604090205460ff16156121fb5760405162461bcd60e51b8152602060048201526015602482015274105b1c9958591e4818db185a5b595908195d995b9d605a1b6044820152606401610c51565b600081815261012f60209081526040808320805460ff1916600190811790915589845261013483529083208054918201815583529120015561223c8161380d565b905061210b565b507fc5872b1b6098a26efa71189456aa230cff448e7d6fbfa3b42d7eb105d541d43184838360405161227793929190613a44565b60405180910390a150505050565b6000818152606760205260408120546001600160a01b03166122fe5760405162461bcd60e51b815260206004820152602c60248201527f4552433732313a206f70657261746f7220717565727920666f72206e6f6e657860448201526b34b9ba32b73a103a37b5b2b760a11b6064820152608401610c51565b600061230983611541565b9050806001600160a01b0316846001600160a01b0316148061235057506001600160a01b038082166000908152606a602090815260408083209388168352929052205460ff165b80610e575750836001600160a01b031661236984610bdc565b6001600160a01b031614949350505050565b826001600160a01b031661238e82611541565b6001600160a01b0316146123f25760405162461bcd60e51b815260206004820152602560248201527f4552433732313a207472616e736665722066726f6d20696e636f72726563742060448201526437bbb732b960d91b6064820152608401610c51565b6001600160a01b0382166124545760405162461bcd60e51b8152602060048201526024808201527f4552433732313a207472616e7366657220746f20746865207a65726f206164646044820152637265737360e01b6064820152608401610c51565b61245f60008261203b565b6001600160a01b0383166000908152606860205260408120805460019290612488908490613a88565b90915550506001600160a01b03821660009081526068602052604081208054600192906124b69084906137f5565b909155505060008181526067602052604080822080546001600160a01b0319166001600160a01b0386811691821790925591518493918716917fddf252ad1be2c89b69c2b068fc378daa952ba7f163c4a11628f55a4df523b3ef91a4505050565b6097546001600160a01b031633146113275760405162461bcd60e51b8152600401610c5190613956565b7f4910fdfa16fed3260ed0e7147f7cc6da11a60208b5b9406d12a635614ffd91435460ff161561257457610d8683612a65565b826001600160a01b03166352d1902d6040518163ffffffff1660e01b8152600401602060405180830381865afa9250505080156125ce575060408051601f3d908101601f191682019092526125cb91810190613a9f565b60015b6126315760405162461bcd60e51b815260206004820152602e60248201527f45524331393637557067726164653a206e657720696d706c656d656e7461746960448201526d6f6e206973206e6f74205555505360901b6064820152608401610c51565b600080516020613c6983398151915281146126a05760405162461bcd60e51b815260206004820152602960248201527f45524331393637557067726164653a20756e737570706f727465642070726f786044820152681a58589b195555525160ba1b6064820152608401610c51565b50610d86838383612b01565b609780546001600160a01b038381166001600160a01b0319831681179093556040519116919082907f8be0079c531659141344cd1fd0a4f28419497f9722a3daafe3b4186f6b6457e090600090a35050565b816001600160a01b0316836001600160a01b03160361275f5760405162461bcd60e51b815260206004820152601960248201527f4552433732313a20617070726f766520746f2063616c6c6572000000000000006044820152606401610c51565b6001600160a01b038381166000818152606a6020908152604080832094871680845294825291829020805460ff191686151590811790915591519182527f17307eab39ab6107e8899845ad3d59bd9653f200f220920489ca2b5937696c31910160405180910390a3505050565b6127d784848461237b565b6127e384848484612b26565b61192f5760405162461bcd60e51b8152600401610c5190613ab8565b6060816000036128265750506040805180820190915260018152600360fc1b602082015290565b8160005b8115612850578061283a8161380d565b91506128499050600a8361383c565b915061282a565b60008167ffffffffffffffff81111561286b5761286b61342f565b6040519080825280601f01601f191660200182016040528015612895576020820181803683370190505b5090505b8415610e57576128aa600183613a88565b91506128b7600a86613b0a565b6128c29060306137f5565b60f81b8183815181106128d7576128d76137c9565b60200101906001600160f81b031916908160001a9053506128f9600a8661383c565b9450612899565b60008054610100900460ff1615612947578160ff1660011480156129235750303b155b61293f5760405162461bcd60e51b8152600401610c5190613b1e565b506000919050565b60005460ff80841691161061296e5760405162461bcd60e51b8152600401610c5190613b1e565b506000805460ff191660ff92909216919091179055600190565b919050565b600054610100900460ff166118e15760405162461bcd60e51b8152600401610c5190613b6c565b600054610100900460ff166129db5760405162461bcd60e51b8152600401610c5190613b6c565b81516129ee906065906020850190612f5e565b508051610d86906066906020840190612f5e565b600054610100900460ff16612a295760405162461bcd60e51b8152600401610c5190613b6c565b6118e1336126ac565b612a3c8383612c24565b612a496000848484612b26565b610d865760405162461bcd60e51b8152600401610c5190613ab8565b6001600160a01b0381163b612ad25760405162461bcd60e51b815260206004820152602d60248201527f455243313936373a206e657720696d706c656d656e746174696f6e206973206e60448201526c1bdd08184818dbdb9d1c9858dd609a1b6064820152608401610c51565b600080516020613c6983398151915280546001600160a01b0319166001600160a01b0392909216919091179055565b612b0a83612d66565b600082511180612b175750805b15610d865761192f8383612da6565b60006001600160a01b0384163b15612c1c57604051630a85bd0160e11b81526001600160a01b0385169063150b7a0290612b6a903390899088908890600401613bb7565b6020604051808303816000875af1925050508015612ba5575060408051601f3d908101601f19168201909252612ba291810190613bea565b60015b612c02573d808015612bd3576040519150601f19603f3d011682016040523d82523d6000602084013e612bd8565b606091505b508051600003612bfa5760405162461bcd60e51b8152600401610c5190613ab8565b805181602001fd5b6001600160e01b031916630a85bd0160e11b149050610e57565b506001610e57565b6001600160a01b038216612c7a5760405162461bcd60e51b815260206004820181905260248201527f4552433732313a206d696e7420746f20746865207a65726f20616464726573736044820152606401610c51565b6000818152606760205260409020546001600160a01b031615612cdf5760405162461bcd60e51b815260206004820152601c60248201527f4552433732313a20746f6b656e20616c7265616479206d696e746564000000006044820152606401610c51565b6001600160a01b0382166000908152606860205260408120805460019290612d089084906137f5565b909155505060008181526067602052604080822080546001600160a01b0319166001600160a01b03861690811790915590518392907fddf252ad1be2c89b69c2b068fc378daa952ba7f163c4a11628f55a4df523b3ef908290a45050565b612d6f81612a65565b6040516001600160a01b038216907fbc7cd75a20ee27fd9adebab32041f755214dbc6bffa90cc0225b39da2e5c2d3b90600090a250565b60606001600160a01b0383163b612e0e5760405162461bcd60e51b815260206004820152602660248201527f416464726573733a2064656c65676174652063616c6c20746f206e6f6e2d636f6044820152651b9d1c9858dd60d21b6064820152608401610c51565b600080846001600160a01b031684604051612e299190613c07565b600060405180830381855af49150503d8060008114612e64576040519150601f19603f3d011682016040523d82523d6000602084013e612e69565b606091505b5091509150612e918282604051806060016040528060278152602001613c8960279139612e9a565b95945050505050565b60608315612ea9575081612ed3565b825115612eb95782518084602001fd5b8160405162461bcd60e51b8152600401610c519190613171565b9392505050565b828054612ee69061378f565b90600052602060002090601f016020900481019282612f085760008555612f4e565b82601f10612f215782800160ff19823516178555612f4e565b82800160010185558215612f4e579182015b82811115612f4e578235825591602001919060010190612f33565b50612f5a929150612fd2565b5090565b828054612f6a9061378f565b90600052602060002090601f016020900481019282612f8c5760008555612f4e565b82601f10612fa557805160ff1916838001178555612f4e565b82800160010185558215612f4e579182015b82811115612f4e578251825591602001919060010190612fb7565b5b80821115612f5a5760008155600101612fd3565b600060208284031215612ff957600080fd5b5035919050565b60005b8381101561301b578181015183820152602001613003565b8381111561192f5750506000910152565b60008151808452613044816020860160208601613000565b601f01601f19169290920160200192915050565b6020808252825160e083830152805161010084018190526000929182019083906101208601905b8083101561309f578351825292840192600192909201919084019061307f565b50838701516040870152604087015193506130c560608701856001600160a01b03169052565b60608701516001600160a01b0381166080880152935060808701519350601f199250828682030160a08701526130fb818561302c565b9350505060a0850151818584030160c0860152613118838261302c565b92505060c0850151818584030160e0860152613134838261302c565b9695505050505050565b6001600160e01b03198116811461132757600080fd5b60006020828403121561316657600080fd5b8135612ed38161313e565b602081526000612ed3602083018461302c565b80356001600160a01b038116811461298857600080fd5b600080604083850312156131ae57600080fd5b6131b783613184565b946020939093013593505050565b60008083601f8401126131d757600080fd5b50813567ffffffffffffffff8111156131ef57600080fd5b60208301915083602082850101111561320757600080fd5b9250929050565b60008083601f84011261322057600080fd5b50813567ffffffffffffffff81111561323857600080fd5b6020830191508360208260051b850101111561320757600080fd5b60008060008060008060008060008060c08b8d03121561327257600080fd5b61327b8b613184565b995060208b013567ffffffffffffffff8082111561329857600080fd5b6132a48e838f016131c5565b909b5099508991506132b860408e01613184565b985060608d01359150808211156132ce57600080fd5b6132da8e838f016131c5565b909850965060808d01359150808211156132f357600080fd5b6132ff8e838f016131c5565b909650945060a08d013591508082111561331857600080fd5b506133258d828e0161320e565b915080935050809150509295989b9194979a5092959850565b60006020828403121561335057600080fd5b612ed382613184565b6020808252825182820181905260009190848201906040850190845b8181101561339157835183529284019291840191600101613375565b50909695505050505050565b6000806000606084860312156133b257600080fd5b6133bb84613184565b92506133c960208501613184565b9150604084013590509250925092565b801515811461132757600080fd5b600080600080608085870312156133fd57600080fd5b61340685613184565b935060208501359250604085013591506060850135613424816133d9565b939692955090935050565b634e487b7160e01b600052604160045260246000fd5b600082601f83011261345657600080fd5b813567ffffffffffffffff808211156134715761347161342f565b604051601f8301601f19908116603f011681019082821181831017156134995761349961342f565b816040528381528660208588010111156134b257600080fd5b836020870160208301376000602085830101528094505050505092915050565b600080604083850312156134e557600080fd5b6134ee83613184565b9150602083013567ffffffffffffffff81111561350a57600080fd5b61351685828601613445565b9150509250929050565b60006020828403121561353257600080fd5b813567ffffffffffffffff81111561354957600080fd5b610e5784828501613445565b8681526001600160a01b0386811660208301528516604082015260c0606082018190526000906135879083018661302c565b8281036080840152613599818661302c565b905082810360a08401526135ad818561302c565b9998505050505050505050565b600080604083850312156135cd57600080fd5b6135d683613184565b915060208301356135e6816133d9565b809150509250929050565b6000806000806080858703121561360757600080fd5b61361085613184565b935061361e60208601613184565b925060408501359150606085013567ffffffffffffffff81111561364157600080fd5b61364d87828801613445565b91505092959194509250565b60008060008060008060008060a0898b03121561367557600080fd5b88359750602089013567ffffffffffffffff8082111561369457600080fd5b6136a08c838d016131c5565b90995097508791506136b460408c01613184565b965060608b01359150808211156136ca57600080fd5b6136d68c838d016131c5565b909650945060808b01359150808211156136ef57600080fd5b506136fc8b828c016131c5565b999c989b5096995094979396929594505050565b60008060006040848603121561372557600080fd5b83359250602084013567ffffffffffffffff81111561374357600080fd5b61374f8682870161320e565b9497909650939450505050565b6000806040838503121561376f57600080fd5b61377883613184565b915061378660208401613184565b90509250929050565b600181811c908216806137a357607f821691505b6020821081036137c357634e487b7160e01b600052602260045260246000fd5b50919050565b634e487b7160e01b600052603260045260246000fd5b634e487b7160e01b600052601160045260246000fd5b60008219821115613808576138086137df565b500190565b60006001820161381f5761381f6137df565b5060010190565b634e487b7160e01b600052601260045260246000fd5b60008261384b5761384b613826565b500490565b60006020828403121561386257600080fd5b8151612ed3816133d9565b60208082526031908201527f4552433732313a207472616e736665722063616c6c6572206973206e6f74206f6040820152701ddb995c881b9bdc88185c1c1c9bdd9959607a1b606082015260800190565b6020808252602c908201527f46756e6374696f6e206d7573742062652063616c6c6564207468726f7567682060408201526b19195b1959d85d1958d85b1b60a21b606082015260800190565b6020808252602c908201527f46756e6374696f6e206d7573742062652063616c6c6564207468726f7567682060408201526b6163746976652070726f787960a01b606082015260800190565b6020808252818101527f4f776e61626c653a2063616c6c6572206973206e6f7420746865206f776e6572604082015260600190565b6000815161399d818560208601613000565b9290920192915050565b600080845481600182811c9150808316806139c357607f831692505b602080841082036139e257634e487b7160e01b86526022600452602486fd5b8180156139f65760018114613a0757613a34565b60ff19861689528489019650613a34565b60008b81526020902060005b86811015613a2c5781548b820152908501908301613a13565b505084890196505b505050505050612e91818561398b565b838152604060208201819052810182905260006001600160fb1b03831115613a6b57600080fd5b8260051b8085606085013760009201606001918252509392505050565b600082821015613a9a57613a9a6137df565b500390565b600060208284031215613ab157600080fd5b5051919050565b60208082526032908201527f4552433732313a207472616e7366657220746f206e6f6e20455243373231526560408201527131b2b4bb32b91034b6b83632b6b2b73a32b960711b606082015260800190565b600082613b1957613b19613826565b500690565b6020808252602e908201527f496e697469616c697a61626c653a20636f6e747261637420697320616c72656160408201526d191e481a5b9a5d1a585b1a5e995960921b606082015260800190565b6020808252602b908201527f496e697469616c697a61626c653a20636f6e7472616374206973206e6f74206960408201526a6e697469616c697a696e6760a81b606082015260800190565b6001600160a01b03858116825284166020820152604081018390526080606082018190526000906131349083018461302c565b600060208284031215613bfc57600080fd5b8151612ed38161313e565b60008251613c19818460208701613000565b919091019291505056fe546f7563616e2050726f746f636f6c3a205265746972656d656e742043657274696669636174657320666f7220546f6b656e697a656420436172626f6e204f666673657473360894a13ba1a3210667c828492db98dca3e2076cc3735a920a3ca505d382bbc416464726573733a206c6f772d6c6576656c2064656c65676174652063616c6c206661696c6564a264697066735822122036edf891d7957ae5c881febbbe332a6de268ed09ee4e199e998529c94a3b3fdf64736f6c634300080e0033496e697469616c697a61626c653a20636f6e747261637420697320616c726561",
  "devdoc": {
    "details": "The amount of RetirementEvents is denominated in the 18-decimal formGetters in this contract return the corresponding amount in tonnes or kilos",
    "kind": "dev",
    "methods": {
      "approve(address,uint256)": {
        "details": "See {IERC721-approve}."
      },
      "attachRetirementEvents(uint256,uint256[])": {
        "params": {
          "retirementEventIds": "An array of event ids to associate with the NFT.",
          "tokenId": "The id of the NFT to attach events to."
        }
      },
      "balanceOf(address)": {
        "details": "See {IERC721-balanceOf}."
      },
      "constructor": {
        "custom:oz-upgrades-unsafe-allow": "constructor"
      },
      "getApproved(uint256)": {
        "details": "See {IERC721-getApproved}."
      },
      "getData(uint256)": {
        "params": {
          "tokenId": "The id of the NFT to get data for."
        }
      },
      "getRetiredAmount(uint256)": {
        "details": "The return amount is denominated in 18 decimals, similar to amounts as they are read in TCO2 contracts. For example, 1000000000000000000 means 1 tonne.",
        "params": {
          "tokenId": "The id of the NFT to update."
        },
        "returns": {
          "amount": "Total retired amount for an NFT."
        }
      },
      "getRetiredAmountInKilos(uint256)": {
        "params": {
          "tokenId": "The id of the NFT to update."
        },
        "returns": {
          "_0": "amount Total retired amount for an NFT in kilos."
        }
      },
      "getRetiredAmountInTonnes(uint256)": {
        "params": {
          "tokenId": "The id of the NFT to update."
        },
        "returns": {
          "_0": "amount Total retired amount for an NFT in tonnes."
        }
      },
      "getUserEvents(address)": {
        "params": {
          "user": "The user for whom to fetch all events."
        }
      },
      "isApprovedForAll(address,address)": {
        "details": "See {IERC721-isApprovedForAll}."
      },
      "mintCertificate(address,string,address,string,string,uint256[])": {
        "details": "The function can either be called by a valid TCO2 contract or by someone who         owns retirement events.",
        "params": {
          "beneficiary": "The beneficiary address for whom the TCO2 amount was retired.",
          "beneficiaryString": "An identifiable string for the beneficiary, eg. their name.",
          "retirementEventIds": "An array of event ids to associate with the NFT.",
          "retirementMessage": "A message to accompany the retirement.",
          "retiringEntity": "The entity that has retired TCO2 and is eligible to mint an NFT.",
          "retiringEntityString": "An identifiable string for the retiring entity, eg. their name."
        }
      },
      "name()": {
        "details": "See {IERC721Metadata-name}."
      },
      "owner()": {
        "details": "Returns the address of the current owner."
      },
      "ownerOf(uint256)": {
        "details": "See {IERC721-ownerOf}."
      },
      "proxiableUUID()": {
        "details": "Implementation of the ERC1822 {proxiableUUID} function. This returns the storage slot used by the implementation. It is used to validate that the this implementation remains valid after an upgrade. IMPORTANT: A proxy pointing at a proxiable contract should not be considered proxiable itself, because this risks bricking a proxy that upgrades to it, by delegating to itself until out of gas. Thus it is critical that this function revert if invoked through a proxy. This is guaranteed by the `notDelegated` modifier."
      },
      "registerEvent(address,uint256,uint256,bool)": {
        "details": "The function can either be only called by a valid TCO2 contract.",
        "params": {
          "amount": "The amount of the TCO2 that is retired.",
          "isLegacy": "Whether this event registration was executed by using the legacy retired amount in the TCO2 contract or utilizes the new retirement event design.",
          "projectVintageTokenId": "The vintage id of the TCO2 that is retired.",
          "retiringEntity": "The entity that has retired TCO2 and is eligible to mint an NFT."
        }
      },
      "renounceOwnership()": {
        "details": "Leaves the contract without owner. It will not be possible to call `onlyOwner` functions anymore. Can only be called by the current owner. NOTE: Renouncing ownership will leave the contract without an owner, thereby removing any functionality that is only available to the owner."
      },
      "safeTransferFrom(address,address,uint256)": {
        "details": "See {IERC721-safeTransferFrom}."
      },
      "safeTransferFrom(address,address,uint256,bytes)": {
        "details": "See {IERC721-safeTransferFrom}."
      },
      "setApprovalForAll(address,bool)": {
        "details": "See {IERC721-setApprovalForAll}."
      },
      "supportsInterface(bytes4)": {
        "details": "See {IERC165-supportsInterface}."
      },
      "symbol()": {
        "details": "See {IERC721Metadata-symbol}."
      },
      "tokenURI(uint256)": {
        "details": "Returns the Uniform Resource Identifier (URI) for `tokenId` token. based on the ERC721URIStorage implementation",
        "params": {
          "tokenId": "The id of the NFT to get the URI."
        }
      },
      "transferFrom(address,address,uint256)": {
        "details": "See {IERC721-transferFrom}."
      },
      "transferOwnership(address)": {
        "details": "Transfers ownership of the contract to a new account (`newOwner`). Can only be called by the current owner."
      },
      "updateCertificate(uint256,string,address,string,string)": {
        "params": {
          "beneficiary": "The new beneficiary to set in the NFT.",
          "beneficiaryString": "An identifiable string for the beneficiary, eg. their name.",
          "retirementMessage": "The new retirementMessage to set in the NFT.",
          "retiringEntityString": "An identifiable string for the retiring entity, eg. their name.",
          "tokenId": "The id of the NFT to update."
        }
      },
      "upgradeTo(address)": {
        "details": "Upgrade the implementation of the proxy to `newImplementation`. Calls {_authorizeUpgrade}. Emits an {Upgraded} event."
      },
      "upgradeToAndCall(address,bytes)": {
        "details": "Upgrade the implementation of the proxy to `newImplementation`, and subsequently execute the function call encoded in `data`. Calls {_authorizeUpgrade}. Emits an {Upgraded} event."
      }
    },
    "stateVariables": {
      "VERSION": {
        "details": "auto-created getter VERSION() returns the current version of the smart contract"
      }
    },
    "version": 1
  },
  "userdoc": {
    "kind": "user",
    "methods": {
      "attachRetirementEvents(uint256,uint256[])": {
        "notice": "Attach retirement events to an NFT."
      },
      "getData(uint256)": {
        "notice": "Get certificate data for an NFT."
      },
      "getRetiredAmount(uint256)": {
        "notice": "Get total retired amount for an NFT."
      },
      "getRetiredAmountInKilos(uint256)": {
        "notice": "Get total retired amount for an NFT in kilos."
      },
      "getRetiredAmountInTonnes(uint256)": {
        "notice": "Get total retired amount for an NFT in tonnes."
      },
      "getUserEvents(address)": {
        "notice": "Get all events for a user."
      },
      "mintCertificate(address,string,address,string,string,uint256[])": {
        "notice": "Mint new Retirement Certificate NFT that shows how many TCO2s have been retired."
      },
      "registerEvent(address,uint256,uint256,bool)": {
        "notice": "Register retirement events. This function can only be called by a TC02 contract to register retirement events so they can be directly linked to an NFT mint."
      },
      "updateCertificate(uint256,string,address,string,string)": {
        "notice": "Update retirementMessage, beneficiary, and beneficiaryString of a NFT within 24h of creation. Empty values are ignored, ie., will not overwrite the existing stored values in the NFT."
      }
    },
    "notice": "The `RetirementCertificates` contract lets users mint NFTs that act as proof-of-retirement. These Retirement Certificate NFTs display how many TCO2s a user has burnt",
    "version": 1
  },
  "storageLayout": {
    "storage": [
      {
        "astId": 1489,
        "contract": "contracts/RetirementCertificates.sol:RetirementCertificates",
        "label": "_initialized",
        "offset": 0,
        "slot": "0",
        "type": "t_uint8"
      },
      {
        "astId": 1492,
        "contract": "contracts/RetirementCertificates.sol:RetirementCertificates",
        "label": "_initializing",
        "offset": 1,
        "slot": "0",
        "type": "t_bool"
      },
      {
        "astId": 4534,
        "contract": "contracts/RetirementCertificates.sol:RetirementCertificates",
        "label": "__gap",
        "offset": 0,
        "slot": "1",
        "type": "t_array(t_uint256)50_storage"
      },
      {
        "astId": 4841,
        "contract": "contracts/RetirementCertificates.sol:RetirementCertificates",
        "label": "__gap",
        "offset": 0,
        "slot": "51",
        "type": "t_array(t_uint256)50_storage"
      },
      {
        "astId": 2838,
        "contract": "contracts/RetirementCertificates.sol:RetirementCertificates",
        "label": "_name",
        "offset": 0,
        "slot": "101",
        "type": "t_string_storage"
      },
      {
        "astId": 2840,
        "contract": "contracts/RetirementCertificates.sol:RetirementCertificates",
        "label": "_symbol",
        "offset": 0,
        "slot": "102",
        "type": "t_string_storage"
      },
      {
        "astId": 2844,
        "contract": "contracts/RetirementCertificates.sol:RetirementCertificates",
        "label": "_owners",
        "offset": 0,
        "slot": "103",
        "type": "t_mapping(t_uint256,t_address)"
      },
      {
        "astId": 2848,
        "contract": "contracts/RetirementCertificates.sol:RetirementCertificates",
        "label": "_balances",
        "offset": 0,
        "slot": "104",
        "type": "t_mapping(t_address,t_uint256)"
      },
      {
        "astId": 2852,
        "contract": "contracts/RetirementCertificates.sol:RetirementCertificates",
        "label": "_tokenApprovals",
        "offset": 0,
        "slot": "105",
        "type": "t_mapping(t_uint256,t_address)"
      },
      {
        "astId": 2858,
        "contract": "contracts/RetirementCertificates.sol:RetirementCertificates",
        "label": "_operatorApprovals",
        "offset": 0,
        "slot": "106",
        "type": "t_mapping(t_address,t_mapping(t_address,t_bool))"
      },
      {
        "astId": 3699,
        "contract": "contracts/RetirementCertificates.sol:RetirementCertificates",
        "label": "__gap",
        "offset": 0,
        "slot": "107",
        "type": "t_array(t_uint256)44_storage"
      },
      {
        "astId": 980,
        "contract": "contracts/RetirementCertificates.sol:RetirementCertificates",
        "label": "_owner",
        "offset": 0,
        "slot": "151",
        "type": "t_address"
      },
      {
        "astId": 1092,
        "contract": "contracts/RetirementCertificates.sol:RetirementCertificates",
        "label": "__gap",
        "offset": 0,
        "slot": "152",
        "type": "t_array(t_uint256)49_storage"
      },
      {
        "astId": 1471,
        "contract": "contracts/RetirementCertificates.sol:RetirementCertificates",
        "label": "__gap",
        "offset": 0,
        "slot": "201",
        "type": "t_array(t_uint256)50_storage"
      },
      {
        "astId": 1759,
        "contract": "contracts/RetirementCertificates.sol:RetirementCertificates",
        "label": "__gap",
        "offset": 0,
        "slot": "251",
        "type": "t_array(t_uint256)50_storage"
      },
      {
        "astId": 10133,
        "contract": "contracts/RetirementCertificates.sol:RetirementCertificates",
        "label": "retireEventCounter",
        "offset": 0,
        "slot": "301",
        "type": "t_uint256"
      },
      {
        "astId": 10139,
        "contract": "contracts/RetirementCertificates.sol:RetirementCertificates",
        "label": "retirements",
        "offset": 0,
        "slot": "302",
        "type": "t_mapping(t_uint256,t_struct(RetirementEvent)10130_storage)"
      },
      {
        "astId": 10144,
        "contract": "contracts/RetirementCertificates.sol:RetirementCertificates",
        "label": "claimedEvents",
        "offset": 0,
        "slot": "303",
        "type": "t_mapping(t_uint256,t_bool)"
      },
      {
        "astId": 10150,
        "contract": "contracts/RetirementCertificates.sol:RetirementCertificates",
        "label": "eventsOfUser",
        "offset": 0,
        "slot": "304",
        "type": "t_mapping(t_address,t_array(t_uint256)dyn_storage)"
      },
      {
        "astId": 10152,
        "contract": "contracts/RetirementCertificates.sol:RetirementCertificates",
        "label": "baseURI",
        "offset": 0,
        "slot": "305",
        "type": "t_string_storage"
      },
      {
        "astId": 10154,
        "contract": "contracts/RetirementCertificates.sol:RetirementCertificates",
        "label": "contractRegistry",
        "offset": 0,
        "slot": "306",
        "type": "t_address"
      },
      {
        "astId": 10156,
        "contract": "contracts/RetirementCertificates.sol:RetirementCertificates",
        "label": "_tokenIds",
        "offset": 0,
        "slot": "307",
        "type": "t_uint256"
      },
      {
        "astId": 10161,
        "contract": "contracts/RetirementCertificates.sol:RetirementCertificates",
        "label": "certificates",
        "offset": 0,
        "slot": "308",
        "type": "t_mapping(t_uint256,t_struct(Data)10120_storage)"
      },
      {
        "astId": 10163,
        "contract": "contracts/RetirementCertificates.sol:RetirementCertificates",
        "label": "minValidRetirementAmount",
        "offset": 0,
        "slot": "309",
        "type": "t_uint256"
      }
    ],
    "types": {
      "t_address": {
        "encoding": "inplace",
        "label": "address",
        "numberOfBytes": "20"
      },
      "t_array(t_uint256)44_storage": {
        "base": "t_uint256",
        "encoding": "inplace",
        "label": "uint256[44]",
        "numberOfBytes": "1408"
      },
      "t_array(t_uint256)49_storage": {
        "base": "t_uint256",
        "encoding": "inplace",
        "label": "uint256[49]",
        "numberOfBytes": "1568"
      },
      "t_array(t_uint256)50_storage": {
        "base": "t_uint256",
        "encoding": "inplace",
        "label": "uint256[50]",
        "numberOfBytes": "1600"
      },
      "t_array(t_uint256)dyn_storage": {
        "base": "t_uint256",
        "encoding": "dynamic_array",
        "label": "uint256[]",
        "numberOfBytes": "32"
      },
      "t_bool": {
        "encoding": "inplace",
        "label": "bool",
        "numberOfBytes": "1"
      },
      "t_mapping(t_address,t_array(t_uint256)dyn_storage)": {
        "encoding": "mapping",
        "key": "t_address",
        "label": "mapping(address => uint256[])",
        "numberOfBytes": "32",
        "value": "t_array(t_uint256)dyn_storage"
      },
      "t_mapping(t_address,t_bool)": {
        "encoding": "mapping",
        "key": "t_address",
        "label": "mapping(address => bool)",
        "numberOfBytes": "32",
        "value": "t_bool"
      },
      "t_mapping(t_address,t_mapping(t_address,t_bool))": {
        "encoding": "mapping",
        "key": "t_address",
        "label": "mapping(address => mapping(address => bool))",
        "numberOfBytes": "32",
        "value": "t_mapping(t_address,t_bool)"
      },
      "t_mapping(t_address,t_uint256)": {
        "encoding": "mapping",
        "key": "t_address",
        "label": "mapping(address => uint256)",
        "numberOfBytes": "32",
        "value": "t_uint256"
      },
      "t_mapping(t_uint256,t_address)": {
        "encoding": "mapping",
        "key": "t_uint256",
        "label": "mapping(uint256 => address)",
        "numberOfBytes": "32",
        "value": "t_address"
      },
      "t_mapping(t_uint256,t_bool)": {
        "encoding": "mapping",
        "key": "t_uint256",
        "label": "mapping(uint256 => bool)",
        "numberOfBytes": "32",
        "value": "t_bool"
      },
      "t_mapping(t_uint256,t_struct(Data)10120_storage)": {
        "encoding": "mapping",
        "key": "t_uint256",
        "label": "mapping(uint256 => struct RetirementCertificatesStorageV1.Data)",
        "numberOfBytes": "32",
        "value": "t_struct(Data)10120_storage"
      },
      "t_mapping(t_uint256,t_struct(RetirementEvent)10130_storage)": {
        "encoding": "mapping",
        "key": "t_uint256",
        "label": "mapping(uint256 => struct RetirementCertificatesStorageV1.RetirementEvent)",
        "numberOfBytes": "32",
        "value": "t_struct(RetirementEvent)10130_storage"
      },
      "t_string_storage": {
        "encoding": "bytes",
        "label": "string",
        "numberOfBytes": "32"
      },
      "t_struct(Data)10120_storage": {
        "encoding": "inplace",
        "label": "struct RetirementCertificatesStorageV1.Data",
        "members": [
          {
            "astId": 10107,
            "contract": "contracts/RetirementCertificates.sol:RetirementCertificates",
            "label": "retirementEventIds",
            "offset": 0,
            "slot": "0",
            "type": "t_array(t_uint256)dyn_storage"
          },
          {
            "astId": 10109,
            "contract": "contracts/RetirementCertificates.sol:RetirementCertificates",
            "label": "createdAt",
            "offset": 0,
            "slot": "1",
            "type": "t_uint256"
          },
          {
            "astId": 10111,
            "contract": "contracts/RetirementCertificates.sol:RetirementCertificates",
            "label": "retiringEntity",
            "offset": 0,
            "slot": "2",
            "type": "t_address"
          },
          {
            "astId": 10113,
            "contract": "contracts/RetirementCertificates.sol:RetirementCertificates",
            "label": "beneficiary",
            "offset": 0,
            "slot": "3",
            "type": "t_address"
          },
          {
            "astId": 10115,
            "contract": "contracts/RetirementCertificates.sol:RetirementCertificates",
            "label": "retiringEntityString",
            "offset": 0,
            "slot": "4",
            "type": "t_string_storage"
          },
          {
            "astId": 10117,
            "contract": "contracts/RetirementCertificates.sol:RetirementCertificates",
            "label": "beneficiaryString",
            "offset": 0,
            "slot": "5",
            "type": "t_string_storage"
          },
          {
            "astId": 10119,
            "contract": "contracts/RetirementCertificates.sol:RetirementCertificates",
            "label": "retirementMessage",
            "offset": 0,
            "slot": "6",
            "type": "t_string_storage"
          }
        ],
        "numberOfBytes": "224"
      },
      "t_struct(RetirementEvent)10130_storage": {
        "encoding": "inplace",
        "label": "struct RetirementCertificatesStorageV1.RetirementEvent",
        "members": [
          {
            "astId": 10122,
            "contract": "contracts/RetirementCertificates.sol:RetirementCertificates",
            "label": "createdAt",
            "offset": 0,
            "slot": "0",
            "type": "t_uint256"
          },
          {
            "astId": 10124,
            "contract": "contracts/RetirementCertificates.sol:RetirementCertificates",
            "label": "retiringEntity",
            "offset": 0,
            "slot": "1",
            "type": "t_address"
          },
          {
            "astId": 10127,
            "contract": "contracts/RetirementCertificates.sol:RetirementCertificates",
            "label": "amount",
            "offset": 0,
            "slot": "2",
            "type": "t_uint256"
          },
          {
            "astId": 10129,
            "contract": "contracts/RetirementCertificates.sol:RetirementCertificates",
            "label": "projectVintageTokenId",
            "offset": 0,
            "slot": "3",
            "type": "t_uint256"
          }
        ],
        "numberOfBytes": "128"
      },
      "t_uint256": {
        "encoding": "inplace",
        "label": "uint256",
        "numberOfBytes": "32"
      },
      "t_uint8": {
        "encoding": "inplace",
        "label": "uint8",
        "numberOfBytes": "1"
      }
    }
  }
}