{
  "address": "0xa30589F50b9641dacCB98AA2B4A8F24739c5B007",
  "abi": [
    {
      "inputs": [],
      "stateMutability": "nonpayable",
      "type": "constructor"
    },
    {
      "anonymous": false,
      "inputs": [
        {
          "indexed": false,
          "internalType": "address",
          "name": "previousAdmin",
          "type": "address"
        },
        {
          "indexed": false,
          "internalType": "address",
          "name": "newAdmin",
          "type": "address"
        }
      ],
      "name": "AdminChanged",
      "type": "event"
    },
    {
      "anonymous": false,
      "inputs": [
        {
          "indexed": true,
          "internalType": "address",
          "name": "beacon",
          "type": "address"
        }
      ],
      "name": "BeaconUpgraded",
      "type": "event"
    },
    {
      "anonymous": false,
      "inputs": [
        {
          "indexed": false,
          "internalType": "uint8",
          "name": "version",
          "type": "uint8"
        }
      ],
      "name": "Initialized",
      "type": "event"
    },
    {
      "anonymous": false,
      "inputs": [
        {
          "indexed": true,
          "internalType": "address",
          "name": "previousOwner",
          "type": "address"
        },
        {
          "indexed": true,
          "internalType": "address",
          "name": "newOwner",
          "type": "address"
        }
      ],
      "name": "OwnershipTransferred",
      "type": "event"
    },
    {
      "anonymous": false,
      "inputs": [
        {
          "indexed": true,
          "internalType": "bytes32",
          "name": "role",
          "type": "bytes32"
        },
        {
          "indexed": true,
          "internalType": "bytes32",
          "name": "previousAdminRole",
          "type": "bytes32"
        },
        {
          "indexed": true,
          "internalType": "bytes32",
          "name": "newAdminRole",
          "type": "bytes32"
        }
      ],
      "name": "RoleAdminChanged",
      "type": "event"
    },
    {
      "anonymous": false,
      "inputs": [
        {
          "indexed": true,
          "internalType": "bytes32",
          "name": "role",
          "type": "bytes32"
        },
        {
          "indexed": true,
          "internalType": "address",
          "name": "account",
          "type": "address"
        },
        {
          "indexed": true,
          "internalType": "address",
          "name": "sender",
          "type": "address"
        }
      ],
      "name": "RoleGranted",
      "type": "event"
    },
    {
      "anonymous": false,
      "inputs": [
        {
          "indexed": true,
          "internalType": "bytes32",
          "name": "role",
          "type": "bytes32"
        },
        {
          "indexed": true,
          "internalType": "address",
          "name": "account",
          "type": "address"
        },
        {
          "indexed": true,
          "internalType": "address",
          "name": "sender",
          "type": "address"
        }
      ],
      "name": "RoleRevoked",
      "type": "event"
    },
    {
      "anonymous": false,
      "inputs": [
        {
          "indexed": true,
          "internalType": "address",
          "name": "implementation",
          "type": "address"
        }
      ],
      "name": "Upgraded",
      "type": "event"
    },
    {
      "inputs": [],
      "name": "DEFAULT_ADMIN_ROLE",
      "outputs": [
        {
          "internalType": "bytes32",
          "name": "",
          "type": "bytes32"
        }
      ],
      "stateMutability": "view",
      "type": "function"
    },
    {
      "inputs": [],
      "name": "PAUSER_ROLE",
      "outputs": [
        {
          "internalType": "bytes32",
          "name": "",
          "type": "bytes32"
        }
      ],
      "stateMutability": "view",
      "type": "function"
    },
    {
      "inputs": [],
      "name": "VERSION",
      "outputs": [
        {
          "internalType": "string",
          "name": "",
          "type": "string"
        }
      ],
      "stateMutability": "view",
      "type": "function"
    },
    {
      "inputs": [
        {
          "internalType": "address",
          "name": "_address",
          "type": "address"
        }
      ],
      "name": "addERC20",
      "outputs": [],
      "stateMutability": "nonpayable",
      "type": "function"
    },
    {
      "inputs": [],
      "name": "carbonOffsetBadgesAddress",
      "outputs": [
        {
          "internalType": "address",
          "name": "",
          "type": "address"
        }
      ],
      "stateMutability": "view",
      "type": "function"
    },
    {
      "inputs": [],
      "name": "carbonOffsetBatchesAddress",
      "outputs": [
        {
          "internalType": "address",
          "name": "",
          "type": "address"
        }
      ],
      "stateMutability": "view",
      "type": "function"
    },
    {
      "inputs": [],
      "name": "carbonProjectVintagesAddress",
      "outputs": [
        {
          "internalType": "address",
          "name": "",
          "type": "address"
        }
      ],
      "stateMutability": "view",
      "type": "function"
    },
    {
      "inputs": [],
      "name": "carbonProjectsAddress",
      "outputs": [
        {
          "internalType": "address",
          "name": "",
          "type": "address"
        }
      ],
      "stateMutability": "view",
      "type": "function"
    },
    {
      "inputs": [
        {
          "internalType": "address",
          "name": "_address",
          "type": "address"
        }
      ],
      "name": "checkERC20",
      "outputs": [
        {
          "internalType": "bool",
          "name": "",
          "type": "bool"
        }
      ],
      "stateMutability": "view",
      "type": "function"
    },
    {
      "inputs": [
        {
          "internalType": "bytes32",
          "name": "role",
          "type": "bytes32"
        }
      ],
      "name": "getRoleAdmin",
      "outputs": [
        {
          "internalType": "bytes32",
          "name": "",
          "type": "bytes32"
        }
      ],
      "stateMutability": "view",
      "type": "function"
    },
    {
      "inputs": [
        {
          "internalType": "bytes32",
          "name": "role",
          "type": "bytes32"
        },
        {
          "internalType": "address",
          "name": "account",
          "type": "address"
        }
      ],
      "name": "grantRole",
      "outputs": [],
      "stateMutability": "nonpayable",
      "type": "function"
    },
    {
      "inputs": [
        {
          "internalType": "bytes32",
          "name": "role",
          "type": "bytes32"
        },
        {
          "internalType": "address",
          "name": "account",
          "type": "address"
        }
      ],
      "name": "hasRole",
      "outputs": [
        {
          "internalType": "bool",
          "name": "",
          "type": "bool"
        }
      ],
      "stateMutability": "view",
      "type": "function"
    },
    {
      "inputs": [],
      "name": "initialize",
      "outputs": [],
      "stateMutability": "nonpayable",
      "type": "function"
    },
    {
      "inputs": [],
      "name": "owner",
      "outputs": [
        {
          "internalType": "address",
          "name": "",
          "type": "address"
        }
      ],
      "stateMutability": "view",
      "type": "function"
    },
    {
      "inputs": [],
      "name": "pauseSystem",
      "outputs": [],
      "stateMutability": "nonpayable",
      "type": "function"
    },
    {
      "inputs": [
        {
          "internalType": "address",
          "name": "",
          "type": "address"
        }
      ],
      "name": "projectVintageERC20Registry",
      "outputs": [
        {
          "internalType": "bool",
          "name": "",
          "type": "bool"
        }
      ],
      "stateMutability": "view",
      "type": "function"
    },
    {
      "inputs": [],
      "name": "proxiableUUID",
      "outputs": [
        {
          "internalType": "bytes32",
          "name": "",
          "type": "bytes32"
        }
      ],
      "stateMutability": "view",
      "type": "function"
    },
    {
      "inputs": [],
      "name": "renounceOwnership",
      "outputs": [],
      "stateMutability": "nonpayable",
      "type": "function"
    },
    {
      "inputs": [
        {
          "internalType": "bytes32",
          "name": "role",
          "type": "bytes32"
        },
        {
          "internalType": "address",
          "name": "account",
          "type": "address"
        }
      ],
      "name": "renounceRole",
      "outputs": [],
      "stateMutability": "nonpayable",
      "type": "function"
    },
    {
      "inputs": [
        {
          "internalType": "bytes32",
          "name": "role",
          "type": "bytes32"
        },
        {
          "internalType": "address",
          "name": "account",
          "type": "address"
        }
      ],
      "name": "revokeRole",
      "outputs": [],
      "stateMutability": "nonpayable",
      "type": "function"
    },
    {
      "inputs": [
        {
          "internalType": "address",
          "name": "_address",
          "type": "address"
        }
      ],
      "name": "setCarbonOffsetBadgesAddress",
      "outputs": [],
      "stateMutability": "nonpayable",
      "type": "function"
    },
    {
      "inputs": [
        {
          "internalType": "address",
          "name": "_address",
          "type": "address"
        }
      ],
      "name": "setCarbonOffsetBatchesAddress",
      "outputs": [],
      "stateMutability": "nonpayable",
      "type": "function"
    },
    {
      "inputs": [
        {
          "internalType": "address",
          "name": "_address",
          "type": "address"
        }
      ],
      "name": "setCarbonProjectVintagesAddress",
      "outputs": [],
      "stateMutability": "nonpayable",
      "type": "function"
    },
    {
      "inputs": [
        {
          "internalType": "address",
          "name": "_address",
          "type": "address"
        }
      ],
      "name": "setCarbonProjectsAddress",
      "outputs": [],
      "stateMutability": "nonpayable",
      "type": "function"
    },
    {
      "inputs": [
        {
          "internalType": "address",
          "name": "_address",
          "type": "address"
        }
      ],
      "name": "setToucanCarbonOffsetsFactoryAddress",
      "outputs": [],
      "stateMutability": "nonpayable",
      "type": "function"
    },
    {
      "inputs": [
        {
          "internalType": "bytes4",
          "name": "interfaceId",
          "type": "bytes4"
        }
      ],
      "name": "supportsInterface",
      "outputs": [
        {
          "internalType": "bool",
          "name": "",
          "type": "bool"
        }
      ],
      "stateMutability": "view",
      "type": "function"
    },
    {
      "inputs": [],
      "name": "toucanCarbonOffsetsFactoryAddress",
      "outputs": [
        {
          "internalType": "address",
          "name": "",
          "type": "address"
        }
      ],
      "stateMutability": "view",
      "type": "function"
    },
    {
      "inputs": [
        {
          "internalType": "address",
          "name": "newOwner",
          "type": "address"
        }
      ],
      "name": "transferOwnership",
      "outputs": [],
      "stateMutability": "nonpayable",
      "type": "function"
    },
    {
      "inputs": [],
      "name": "unpauseSystem",
      "outputs": [],
      "stateMutability": "nonpayable",
      "type": "function"
    },
    {
      "inputs": [
        {
          "internalType": "address",
          "name": "newImplementation",
          "type": "address"
        }
      ],
      "name": "upgradeTo",
      "outputs": [],
      "stateMutability": "nonpayable",
      "type": "function"
    },
    {
      "inputs": [
        {
          "internalType": "address",
          "name": "newImplementation",
          "type": "address"
        },
        {
          "internalType": "bytes",
          "name": "data",
          "type": "bytes"
        }
      ],
      "name": "upgradeToAndCall",
      "outputs": [],
      "stateMutability": "payable",
      "type": "function"
    }
  ],
  "numDeployments": 1,
  "solcInputHash": "69815826aff9f46e78ea03199f6c6893",
  "bytecode": "0x60a0604052306080523480156200001557600080fd5b506200002062000026565b62000158565b6200003260ff62000035565b50565b600654600090610100900460ff1615620000d0578160ff1660011480156200007057506200006e306200014960201b620014bf1760201c565b155b620000c85760405162461bcd60e51b815260206004820152602e60248201526000805160206200239783398151915260448201526d191e481a5b9a5d1a585b1a5e995960921b60648201526084015b60405180910390fd5b506000919050565b60065460ff8084169116106200012f5760405162461bcd60e51b815260206004820152602e60248201526000805160206200239783398151915260448201526d191e481a5b9a5d1a585b1a5e995960921b6064820152608401620000bf565b506006805460ff191660ff92909216919091179055600190565b6001600160a01b03163b151590565b60805161220762000190600039600081816107dc0152818161081c01528181610cba01528181610cfa0152610d8901526122076000f3fe6080604052600436106101d85760003560e01c80635e20d0e111610102578063a0af256011610095578063e63ab1e911610064578063e63ab1e914610554578063f0782ba814610588578063f2fde38b146105a8578063ffa1ad74146105c857600080fd5b8063a0af2560146104ec578063a217fddf1461050a578063d547741f1461051f578063dc1d4fb71461053f57600080fd5b80638129fc1c116100d15780638129fc1c146104795780638da5cb5b1461048e57806391d14854146104ac578063a0ad2599146104cc57600080fd5b80635e20d0e1146103ed5780636989d8011461040b578063715018a61461042b578063787d87131461044057600080fd5b80632f2ff15d1161017a5780634be4e3dd116101495780634be4e3dd146103925780634c761240146103b05780634f1ef286146103c557806352d1902d146103d857600080fd5b80632f2ff15d1461031257806336568abe146103325780633659cfe61461035257806343658a701461037257600080fd5b806308cca7e3116101b657806308cca7e3146102665780630f8edd08146102845780631cf743db146102a4578063248a9ca3146102d457600080fd5b806301157a83146101dd57806301f07b2f1461021457806301ffc9a714610236575b600080fd5b3480156101e957600080fd5b506001546001600160a01b03165b6040516001600160a01b0390911681526020015b60405180910390f35b34801561022057600080fd5b5061023461022f366004611ce6565b610606565b005b34801561024257600080fd5b50610256610251366004611d01565b610681565b604051901515815260200161020b565b34801561027257600080fd5b506003546001600160a01b03166101f7565b34801561029057600080fd5b5061023461029f366004611ce6565b6106b8565b3480156102b057600080fd5b506102566102bf366004611ce6565b60056020526000908152604090205460ff1681565b3480156102e057600080fd5b506103046102ef366004611d2b565b6000908152609d602052604090206001015490565b60405190815260200161020b565b34801561031e57600080fd5b5061023461032d366004611d44565b61072a565b34801561033e57600080fd5b5061023461034d366004611d44565b610754565b34801561035e57600080fd5b5061023461036d366004611ce6565b6107d2565b34801561037e57600080fd5b5061023461038d366004611ce6565b6108b1565b34801561039e57600080fd5b506000546001600160a01b03166101f7565b3480156103bc57600080fd5b50610234610960565b6102346103d3366004611d86565b610cb0565b3480156103e457600080fd5b50610304610d7c565b3480156103f957600080fd5b506004546001600160a01b03166101f7565b34801561041757600080fd5b50610234610426366004611ce6565b610e2f565b34801561043757600080fd5b50610234610ea1565b34801561044c57600080fd5b5061025661045b366004611ce6565b6001600160a01b031660009081526005602052604090205460ff1690565b34801561048557600080fd5b50610234610ed7565b34801561049a57600080fd5b506039546001600160a01b03166101f7565b3480156104b857600080fd5b506102566104c7366004611d44565b610f56565b3480156104d857600080fd5b506102346104e7366004611ce6565b610f81565b3480156104f857600080fd5b506002546001600160a01b03166101f7565b34801561051657600080fd5b50610304600081565b34801561052b57600080fd5b5061023461053a366004611d44565b610ff3565b34801561054b57600080fd5b50610234611018565b34801561056057600080fd5b506103047f65d7a28e3265b37a6474929f336521b332c1681b933f6cb9f3376673440d862a81565b34801561059457600080fd5b506102346105a3366004611ce6565b6113b5565b3480156105b457600080fd5b506102346105c3366004611ce6565b611427565b3480156105d457600080fd5b506105f9604051806040016040528060058152602001640312e302e360dc1b81525081565b60405161020b9190611e74565b6039546001600160a01b031633146106395760405162461bcd60e51b815260040161063090611ea7565b60405180910390fd5b6001600160a01b03811661065f5760405162461bcd60e51b815260040161063090611edc565b600280546001600160a01b0319166001600160a01b0392909216919091179055565b60006001600160e01b03198216637965db0b60e01b14806106b257506301ffc9a760e01b6001600160e01b03198316145b92915050565b6039546001600160a01b031633146106e25760405162461bcd60e51b815260040161063090611ea7565b6001600160a01b0381166107085760405162461bcd60e51b815260040161063090611edc565b600480546001600160a01b0319166001600160a01b0392909216919091179055565b6000828152609d6020526040902060010154610745816114ce565b61074f83836114d8565b505050565b6001600160a01b03811633146107c45760405162461bcd60e51b815260206004820152602f60248201527f416363657373436f6e74726f6c3a2063616e206f6e6c792072656e6f756e636560448201526e103937b632b9903337b91039b2b63360891b6064820152608401610630565b6107ce828261155e565b5050565b6001600160a01b037f000000000000000000000000000000000000000000000000000000000000000016300361081a5760405162461bcd60e51b815260040161063090611f13565b7f00000000000000000000000000000000000000000000000000000000000000006001600160a01b031661086360008051602061218b833981519152546001600160a01b031690565b6001600160a01b0316146108895760405162461bcd60e51b815260040161063090611f5f565b610892816115c5565b604080516000808252602082019092526108ae918391906115ef565b50565b6003546001600160a01b03166108cf6039546001600160a01b031690565b6001600160a01b0382163314806108ee57506001600160a01b03811633145b61093a5760405162461bcd60e51b815260206004820152601960248201527f43616c6c6572206973206e6f742074686520666163746f7279000000000000006044820152606401610630565b50506001600160a01b03166000908152600560205260409020805460ff19166001179055565b6039546001600160a01b0316331461098a5760405162461bcd60e51b815260040161063090611ea7565b60025460408051635c975abb60e01b815290516001600160a01b03909216918291635c975abb9160048083019260209291908290030181865afa1580156109d5573d6000803e3d6000fd5b505050506040513d601f19601f820116820180604052508101906109f99190611fab565b15610a5257806001600160a01b0316633f4ba83a6040518163ffffffff1660e01b8152600401600060405180830381600087803b158015610a3957600080fd5b505af1158015610a4d573d6000803e3d6000fd5b505050505b60015460408051635c975abb60e01b815290516001600160a01b03909216918291635c975abb9160048083019260209291908290030181865afa158015610a9d573d6000803e3d6000fd5b505050506040513d601f19601f82011682018060405250810190610ac19190611fab565b15610b1a57806001600160a01b0316633f4ba83a6040518163ffffffff1660e01b8152600401600060405180830381600087803b158015610b0157600080fd5b505af1158015610b15573d6000803e3d6000fd5b505050505b60005460408051635c975abb60e01b815290516001600160a01b03909216918291635c975abb9160048083019260209291908290030181865afa158015610b65573d6000803e3d6000fd5b505050506040513d601f19601f82011682018060405250810190610b899190611fab565b15610be257806001600160a01b0316633f4ba83a6040518163ffffffff1660e01b8152600401600060405180830381600087803b158015610bc957600080fd5b505af1158015610bdd573d6000803e3d6000fd5b505050505b60035460408051635c975abb60e01b815290516001600160a01b03909216918291635c975abb9160048083019260209291908290030181865afa158015610c2d573d6000803e3d6000fd5b505050506040513d601f19601f82011682018060405250810190610c519190611fab565b15610caa57806001600160a01b0316633f4ba83a6040518163ffffffff1660e01b8152600401600060405180830381600087803b158015610c9157600080fd5b505af1158015610ca5573d6000803e3d6000fd5b505050505b50505050565b6001600160a01b037f0000000000000000000000000000000000000000000000000000000000000000163003610cf85760405162461bcd60e51b815260040161063090611f13565b7f00000000000000000000000000000000000000000000000000000000000000006001600160a01b0316610d4160008051602061218b833981519152546001600160a01b031690565b6001600160a01b031614610d675760405162461bcd60e51b815260040161063090611f5f565b610d70826115c5565b6107ce828260016115ef565b6000306001600160a01b037f00000000000000000000000000000000000000000000000000000000000000001614610e1c5760405162461bcd60e51b815260206004820152603860248201527f555550535570677261646561626c653a206d757374206e6f742062652063616c60448201527f6c6564207468726f7567682064656c656761746563616c6c00000000000000006064820152608401610630565b5060008051602061218b83398151915290565b6039546001600160a01b03163314610e595760405162461bcd60e51b815260040161063090611ea7565b6001600160a01b038116610e7f5760405162461bcd60e51b815260040161063090611edc565b600080546001600160a01b0319166001600160a01b0392909216919091179055565b6039546001600160a01b03163314610ecb5760405162461bcd60e51b815260040161063090611ea7565b610ed5600061175a565b565b6000610ee360016117ac565b90508015610efb576006805461ff0019166101001790555b610f0361183b565b610f0e6000336114d8565b80156108ae576006805461ff0019169055604051600181527f7f26b83ff96e1f2b6a682f133852f6798a09c465da95921460cefb38474024989060200160405180910390a150565b6000918252609d602090815260408084206001600160a01b0393909316845291905290205460ff1690565b6039546001600160a01b03163314610fab5760405162461bcd60e51b815260040161063090611ea7565b6001600160a01b038116610fd15760405162461bcd60e51b815260040161063090611edc565b600180546001600160a01b0319166001600160a01b0392909216919091179055565b6000828152609d602052604090206001015461100e816114ce565b61074f838361155e565b6110427f65d7a28e3265b37a6474929f336521b332c1681b933f6cb9f3376673440d862a33610f56565b8061106657503361105b6039546001600160a01b031690565b6001600160a01b0316145b6110b25760405162461bcd60e51b815260206004820152601860248201527f43616c6c6572206973206e6f7420617574686f72697a656400000000000000006044820152606401610630565b60025460408051635c975abb60e01b815290516001600160a01b03909216918291635c975abb9160048083019260209291908290030181865afa1580156110fd573d6000803e3d6000fd5b505050506040513d601f19601f820116820180604052508101906111219190611fab565b61117957806001600160a01b0316638456cb596040518163ffffffff1660e01b8152600401600060405180830381600087803b15801561116057600080fd5b505af1158015611174573d6000803e3d6000fd5b505050505b60015460408051635c975abb60e01b815290516001600160a01b03909216918291635c975abb9160048083019260209291908290030181865afa1580156111c4573d6000803e3d6000fd5b505050506040513d601f19601f820116820180604052508101906111e89190611fab565b61124057806001600160a01b0316638456cb596040518163ffffffff1660e01b8152600401600060405180830381600087803b15801561122757600080fd5b505af115801561123b573d6000803e3d6000fd5b505050505b60005460408051635c975abb60e01b815290516001600160a01b03909216918291635c975abb9160048083019260209291908290030181865afa15801561128b573d6000803e3d6000fd5b505050506040513d601f19601f820116820180604052508101906112af9190611fab565b61130757806001600160a01b0316638456cb596040518163ffffffff1660e01b8152600401600060405180830381600087803b1580156112ee57600080fd5b505af1158015611302573d6000803e3d6000fd5b505050505b60035460408051635c975abb60e01b815290516001600160a01b03909216918291635c975abb9160048083019260209291908290030181865afa158015611352573d6000803e3d6000fd5b505050506040513d601f19601f820116820180604052508101906113769190611fab565b610caa57806001600160a01b0316638456cb596040518163ffffffff1660e01b8152600401600060405180830381600087803b158015610c9157600080fd5b6039546001600160a01b031633146113df5760405162461bcd60e51b815260040161063090611ea7565b6001600160a01b0381166114055760405162461bcd60e51b815260040161063090611edc565b600380546001600160a01b0319166001600160a01b0392909216919091179055565b6039546001600160a01b031633146114515760405162461bcd60e51b815260040161063090611ea7565b6001600160a01b0381166114b65760405162461bcd60e51b815260206004820152602660248201527f4f776e61626c653a206e6577206f776e657220697320746865207a65726f206160448201526564647265737360d01b6064820152608401610630565b6108ae8161175a565b6001600160a01b03163b151590565b6108ae813361186a565b6114e28282610f56565b6107ce576000828152609d602090815260408083206001600160a01b03851684529091529020805460ff1916600117905561151a3390565b6001600160a01b0316816001600160a01b0316837f2f8788117e7eff1d82e926ec794901d17c78024a50270940304540a733656f0d60405160405180910390a45050565b6115688282610f56565b156107ce576000828152609d602090815260408083206001600160a01b0385168085529252808320805460ff1916905551339285917ff6391f5c32d9c69d2a47ea670b442974b53935d1edc7fd64eb21e047a839171b9190a45050565b6039546001600160a01b031633146108ae5760405162461bcd60e51b815260040161063090611ea7565b7f4910fdfa16fed3260ed0e7147f7cc6da11a60208b5b9406d12a635614ffd91435460ff16156116225761074f836118ce565b826001600160a01b03166352d1902d6040518163ffffffff1660e01b8152600401602060405180830381865afa92505050801561167c575060408051601f3d908101601f1916820190925261167991810190611fcd565b60015b6116df5760405162461bcd60e51b815260206004820152602e60248201527f45524331393637557067726164653a206e657720696d706c656d656e7461746960448201526d6f6e206973206e6f74205555505360901b6064820152608401610630565b60008051602061218b833981519152811461174e5760405162461bcd60e51b815260206004820152602960248201527f45524331393637557067726164653a20756e737570706f727465642070726f786044820152681a58589b195555525160ba1b6064820152608401610630565b5061074f83838361196a565b603980546001600160a01b038381166001600160a01b0319831681179093556040519116919082907f8be0079c531659141344cd1fd0a4f28419497f9722a3daafe3b4186f6b6457e090600090a35050565b600654600090610100900460ff16156117f5578160ff1660011480156117d15750303b155b6117ed5760405162461bcd60e51b815260040161063090611fe6565b506000919050565b60065460ff80841691161061181c5760405162461bcd60e51b815260040161063090611fe6565b506006805460ff191660ff92909216919091179055600190565b919050565b600654610100900460ff166118625760405162461bcd60e51b815260040161063090612034565b610ed561198f565b6118748282610f56565b6107ce5761188c816001600160a01b031660146119bf565b6118978360206119bf565b6040516020016118a892919061207f565b60408051601f198184030181529082905262461bcd60e51b825261063091600401611e74565b6001600160a01b0381163b61193b5760405162461bcd60e51b815260206004820152602d60248201527f455243313936373a206e657720696d706c656d656e746174696f6e206973206e60448201526c1bdd08184818dbdb9d1c9858dd609a1b6064820152608401610630565b60008051602061218b83398151915280546001600160a01b0319166001600160a01b0392909216919091179055565b61197383611b62565b6000825111806119805750805b1561074f57610caa8383611ba2565b600654610100900460ff166119b65760405162461bcd60e51b815260040161063090612034565b610ed53361175a565b606060006119ce83600261210a565b6119d9906002612129565b67ffffffffffffffff8111156119f1576119f1611d70565b6040519080825280601f01601f191660200182016040528015611a1b576020820181803683370190505b509050600360fc1b81600081518110611a3657611a36612141565b60200101906001600160f81b031916908160001a905350600f60fb1b81600181518110611a6557611a65612141565b60200101906001600160f81b031916908160001a9053506000611a8984600261210a565b611a94906001612129565b90505b6001811115611b0c576f181899199a1a9b1b9c1cb0b131b232b360811b85600f1660108110611ac857611ac8612141565b1a60f81b828281518110611ade57611ade612141565b60200101906001600160f81b031916908160001a90535060049490941c93611b0581612157565b9050611a97565b508315611b5b5760405162461bcd60e51b815260206004820181905260248201527f537472696e67733a20686578206c656e67746820696e73756666696369656e746044820152606401610630565b9392505050565b611b6b816118ce565b6040516001600160a01b038216907fbc7cd75a20ee27fd9adebab32041f755214dbc6bffa90cc0225b39da2e5c2d3b90600090a250565b60606001600160a01b0383163b611c0a5760405162461bcd60e51b815260206004820152602660248201527f416464726573733a2064656c65676174652063616c6c20746f206e6f6e2d636f6044820152651b9d1c9858dd60d21b6064820152608401610630565b600080846001600160a01b031684604051611c25919061216e565b600060405180830381855af49150503d8060008114611c60576040519150601f19603f3d011682016040523d82523d6000602084013e611c65565b606091505b5091509150611c8d82826040518060600160405280602781526020016121ab60279139611c96565b95945050505050565b60608315611ca5575081611b5b565b825115611cb55782518084602001fd5b8160405162461bcd60e51b81526004016106309190611e74565b80356001600160a01b038116811461183657600080fd5b600060208284031215611cf857600080fd5b611b5b82611ccf565b600060208284031215611d1357600080fd5b81356001600160e01b031981168114611b5b57600080fd5b600060208284031215611d3d57600080fd5b5035919050565b60008060408385031215611d5757600080fd5b82359150611d6760208401611ccf565b90509250929050565b634e487b7160e01b600052604160045260246000fd5b60008060408385031215611d9957600080fd5b611da283611ccf565b9150602083013567ffffffffffffffff80821115611dbf57600080fd5b818501915085601f830112611dd357600080fd5b813581811115611de557611de5611d70565b604051601f8201601f19908116603f01168101908382118183101715611e0d57611e0d611d70565b81604052828152886020848701011115611e2657600080fd5b8260208601602083013760006020848301015280955050505050509250929050565b60005b83811015611e63578181015183820152602001611e4b565b83811115610caa5750506000910152565b6020815260008251806020840152611e93816040850160208701611e48565b601f01601f19169190910160400192915050565b6020808252818101527f4f776e61626c653a2063616c6c6572206973206e6f7420746865206f776e6572604082015260600190565b6020808252601c908201527f4572726f723a207a65726f20616464726573732070726f766964656400000000604082015260600190565b6020808252602c908201527f46756e6374696f6e206d7573742062652063616c6c6564207468726f7567682060408201526b19195b1959d85d1958d85b1b60a21b606082015260800190565b6020808252602c908201527f46756e6374696f6e206d7573742062652063616c6c6564207468726f7567682060408201526b6163746976652070726f787960a01b606082015260800190565b600060208284031215611fbd57600080fd5b81518015158114611b5b57600080fd5b600060208284031215611fdf57600080fd5b5051919050565b6020808252602e908201527f496e697469616c697a61626c653a20636f6e747261637420697320616c72656160408201526d191e481a5b9a5d1a585b1a5e995960921b606082015260800190565b6020808252602b908201527f496e697469616c697a61626c653a20636f6e7472616374206973206e6f74206960408201526a6e697469616c697a696e6760a81b606082015260800190565b7f416363657373436f6e74726f6c3a206163636f756e74200000000000000000008152600083516120b7816017850160208801611e48565b7001034b99036b4b9b9b4b733903937b6329607d1b60179184019182015283516120e8816028840160208801611e48565b01602801949350505050565b634e487b7160e01b600052601160045260246000fd5b6000816000190483118215151615612124576121246120f4565b500290565b6000821982111561213c5761213c6120f4565b500190565b634e487b7160e01b600052603260045260246000fd5b600081612166576121666120f4565b506000190190565b60008251612180818460208701611e48565b919091019291505056fe360894a13ba1a3210667c828492db98dca3e2076cc3735a920a3ca505d382bbc416464726573733a206c6f772d6c6576656c2064656c65676174652063616c6c206661696c6564a26469706673582212204e6b3cc94bdd3227855ec19c721c040dcf5b503107e2d1c87e2baa2090e4028964736f6c634300080e0033496e697469616c697a61626c653a20636f6e747261637420697320616c726561",
  "devdoc": {
    "details": "The ToucanContractRegistry is queried by other contracts for current addresses",
    "kind": "dev",
    "methods": {
      "addERC20(address)": {
        "details": "function to add valid TCO2 contracts"
      },
      "constructor": {
        "custom:oz-upgrades-unsafe-allow": "constructor"
      },
      "getRoleAdmin(bytes32)": {
        "details": "Returns the admin role that controls `role`. See {grantRole} and {revokeRole}. To change a role's admin, use {_setRoleAdmin}."
      },
      "grantRole(bytes32,address)": {
        "details": "Grants `role` to `account`. If `account` had not been already granted `role`, emits a {RoleGranted} event. Requirements: - the caller must have ``role``'s admin role."
      },
      "hasRole(bytes32,address)": {
        "details": "Returns `true` if `account` has been granted `role`."
      },
      "owner()": {
        "details": "Returns the address of the current owner."
      },
      "proxiableUUID()": {
        "details": "Implementation of the ERC1822 {proxiableUUID} function. This returns the storage slot used by the implementation. It is used to validate that the this implementation remains valid after an upgrade. IMPORTANT: A proxy pointing at a proxiable contract should not be considered proxiable itself, because this risks bricking a proxy that upgrades to it, by delegating to itself until out of gas. Thus it is critical that this function revert if invoked through a proxy. This is guaranteed by the `notDelegated` modifier."
      },
      "renounceOwnership()": {
        "details": "Leaves the contract without owner. It will not be possible to call `onlyOwner` functions anymore. Can only be called by the current owner. NOTE: Renouncing ownership will leave the contract without an owner, thereby removing any functionality that is only available to the owner."
      },
      "renounceRole(bytes32,address)": {
        "details": "Revokes `role` from the calling account. Roles are often managed via {grantRole} and {revokeRole}: this function's purpose is to provide a mechanism for accounts to lose their privileges if they are compromised (such as when a trusted device is misplaced). If the calling account had been revoked `role`, emits a {RoleRevoked} event. Requirements: - the caller must be `account`."
      },
      "revokeRole(bytes32,address)": {
        "details": "Revokes `role` from `account`. If `account` had been granted `role`, emits a {RoleRevoked} event. Requirements: - the caller must have ``role``'s admin role."
      },
      "supportsInterface(bytes4)": {
        "details": "See {IERC165-supportsInterface}."
      },
      "transferOwnership(address)": {
        "details": "Transfers ownership of the contract to a new account (`newOwner`). Can only be called by the current owner."
      },
      "upgradeTo(address)": {
        "details": "Upgrade the implementation of the proxy to `newImplementation`. Calls {_authorizeUpgrade}. Emits an {Upgraded} event."
      },
      "upgradeToAndCall(address,bytes)": {
        "details": "Upgrade the implementation of the proxy to `newImplementation`, and subsequently execute the function call encoded in `data`. Calls {_authorizeUpgrade}. Emits an {Upgraded} event."
      }
    },
    "stateVariables": {
      "VERSION": {
        "details": "auto-created getter VERSION() returns the current version of the smart contract"
      }
    },
    "version": 1
  },
  "userdoc": {
    "kind": "user",
    "methods": {
      "pauseSystem()": {
        "notice": "security function that pauses all contracts part of the carbon bri  dge"
      }
    },
    "version": 1
  },
  "storageLayout": {
    "storage": [
      {
        "astId": 12197,
        "contract": "contracts/ToucanContractRegistry.sol:ToucanContractRegistry",
        "label": "_carbonOffsetBatchesAddress",
        "offset": 0,
        "slot": "0",
        "type": "t_address"
      },
      {
        "astId": 12199,
        "contract": "contracts/ToucanContractRegistry.sol:ToucanContractRegistry",
        "label": "_carbonProjectsAddress",
        "offset": 0,
        "slot": "1",
        "type": "t_address"
      },
      {
        "astId": 12201,
        "contract": "contracts/ToucanContractRegistry.sol:ToucanContractRegistry",
        "label": "_carbonProjectVintagesAddress",
        "offset": 0,
        "slot": "2",
        "type": "t_address"
      },
      {
        "astId": 12203,
        "contract": "contracts/ToucanContractRegistry.sol:ToucanContractRegistry",
        "label": "_toucanCarbonOffsetsFactoryAddress",
        "offset": 0,
        "slot": "3",
        "type": "t_address"
      },
      {
        "astId": 12205,
        "contract": "contracts/ToucanContractRegistry.sol:ToucanContractRegistry",
        "label": "_carbonOffsetBadgesAddress",
        "offset": 0,
        "slot": "4",
        "type": "t_address"
      },
      {
        "astId": 12209,
        "contract": "contracts/ToucanContractRegistry.sol:ToucanContractRegistry",
        "label": "projectVintageERC20Registry",
        "offset": 0,
        "slot": "5",
        "type": "t_mapping(t_address,t_bool)"
      },
      {
        "astId": 1489,
        "contract": "contracts/ToucanContractRegistry.sol:ToucanContractRegistry",
        "label": "_initialized",
        "offset": 0,
        "slot": "6",
        "type": "t_uint8"
      },
      {
        "astId": 1492,
        "contract": "contracts/ToucanContractRegistry.sol:ToucanContractRegistry",
        "label": "_initializing",
        "offset": 1,
        "slot": "6",
        "type": "t_bool"
      },
      {
        "astId": 4534,
        "contract": "contracts/ToucanContractRegistry.sol:ToucanContractRegistry",
        "label": "__gap",
        "offset": 0,
        "slot": "7",
        "type": "t_array(t_uint256)50_storage"
      },
      {
        "astId": 980,
        "contract": "contracts/ToucanContractRegistry.sol:ToucanContractRegistry",
        "label": "_owner",
        "offset": 0,
        "slot": "57",
        "type": "t_address"
      },
      {
        "astId": 1092,
        "contract": "contracts/ToucanContractRegistry.sol:ToucanContractRegistry",
        "label": "__gap",
        "offset": 0,
        "slot": "58",
        "type": "t_array(t_uint256)49_storage"
      },
      {
        "astId": 4841,
        "contract": "contracts/ToucanContractRegistry.sol:ToucanContractRegistry",
        "label": "__gap",
        "offset": 0,
        "slot": "107",
        "type": "t_array(t_uint256)50_storage"
      },
      {
        "astId": 596,
        "contract": "contracts/ToucanContractRegistry.sol:ToucanContractRegistry",
        "label": "_roles",
        "offset": 0,
        "slot": "157",
        "type": "t_mapping(t_bytes32,t_struct(RoleData)591_storage)"
      },
      {
        "astId": 895,
        "contract": "contracts/ToucanContractRegistry.sol:ToucanContractRegistry",
        "label": "__gap",
        "offset": 0,
        "slot": "158",
        "type": "t_array(t_uint256)49_storage"
      },
      {
        "astId": 1471,
        "contract": "contracts/ToucanContractRegistry.sol:ToucanContractRegistry",
        "label": "__gap",
        "offset": 0,
        "slot": "207",
        "type": "t_array(t_uint256)50_storage"
      },
      {
        "astId": 1759,
        "contract": "contracts/ToucanContractRegistry.sol:ToucanContractRegistry",
        "label": "__gap",
        "offset": 0,
        "slot": "257",
        "type": "t_array(t_uint256)50_storage"
      }
    ],
    "types": {
      "t_address": {
        "encoding": "inplace",
        "label": "address",
        "numberOfBytes": "20"
      },
      "t_array(t_uint256)49_storage": {
        "base": "t_uint256",
        "encoding": "inplace",
        "label": "uint256[49]",
        "numberOfBytes": "1568"
      },
      "t_array(t_uint256)50_storage": {
        "base": "t_uint256",
        "encoding": "inplace",
        "label": "uint256[50]",
        "numberOfBytes": "1600"
      },
      "t_bool": {
        "encoding": "inplace",
        "label": "bool",
        "numberOfBytes": "1"
      },
      "t_bytes32": {
        "encoding": "inplace",
        "label": "bytes32",
        "numberOfBytes": "32"
      },
      "t_mapping(t_address,t_bool)": {
        "encoding": "mapping",
        "key": "t_address",
        "label": "mapping(address => bool)",
        "numberOfBytes": "32",
        "value": "t_bool"
      },
      "t_mapping(t_bytes32,t_struct(RoleData)591_storage)": {
        "encoding": "mapping",
        "key": "t_bytes32",
        "label": "mapping(bytes32 => struct AccessControlUpgradeable.RoleData)",
        "numberOfBytes": "32",
        "value": "t_struct(RoleData)591_storage"
      },
      "t_struct(RoleData)591_storage": {
        "encoding": "inplace",
        "label": "struct AccessControlUpgradeable.RoleData",
        "members": [
          {
            "astId": 588,
            "contract": "contracts/ToucanContractRegistry.sol:ToucanContractRegistry",
            "label": "members",
            "offset": 0,
            "slot": "0",
            "type": "t_mapping(t_address,t_bool)"
          },
          {
            "astId": 590,
            "contract": "contracts/ToucanContractRegistry.sol:ToucanContractRegistry",
            "label": "adminRole",
            "offset": 0,
            "slot": "1",
            "type": "t_bytes32"
          }
        ],
        "numberOfBytes": "64"
      },
      "t_uint256": {
        "encoding": "inplace",
        "label": "uint256",
        "numberOfBytes": "32"
      },
      "t_uint8": {
        "encoding": "inplace",
        "label": "uint8",
        "numberOfBytes": "1"
      }
    }
  }
}