{
  "address": "0x0fe3eb1Ffb6e96454c72a219A44F88C79922284F",
  "abi": [
    {
      "inputs": [],
      "stateMutability": "nonpayable",
      "type": "constructor"
    },
    {
      "inputs": [
        {
          "internalType": "uint256",
          "name": "x",
          "type": "uint256"
        },
        {
          "internalType": "uint256",
          "name": "y",
          "type": "uint256"
        }
      ],
      "name": "PRBMath_MulDiv18_Overflow",
      "type": "error"
    },
    {
      "inputs": [
        {
          "internalType": "uint256",
          "name": "x",
          "type": "uint256"
        },
        {
          "internalType": "uint256",
          "name": "y",
          "type": "uint256"
        },
        {
          "internalType": "uint256",
          "name": "denominator",
          "type": "uint256"
        }
      ],
      "name": "PRBMath_MulDiv_Overflow",
      "type": "error"
    },
    {
      "inputs": [],
      "name": "PRBMath_SD59x18_Div_InputTooSmall",
      "type": "error"
    },
    {
      "inputs": [
        {
          "internalType": "SD59x18",
          "name": "x",
          "type": "int256"
        },
        {
          "internalType": "SD59x18",
          "name": "y",
          "type": "int256"
        }
      ],
      "name": "PRBMath_SD59x18_Div_Overflow",
      "type": "error"
    },
    {
      "inputs": [
        {
          "internalType": "SD59x18",
          "name": "x",
          "type": "int256"
        }
      ],
      "name": "PRBMath_SD59x18_IntoUint256_Underflow",
      "type": "error"
    },
    {
      "inputs": [
        {
          "internalType": "SD59x18",
          "name": "x",
          "type": "int256"
        }
      ],
      "name": "PRBMath_SD59x18_Log_InputTooSmall",
      "type": "error"
    },
    {
      "inputs": [],
      "name": "PRBMath_SD59x18_Mul_InputTooSmall",
      "type": "error"
    },
    {
      "inputs": [
        {
          "internalType": "SD59x18",
          "name": "x",
          "type": "int256"
        },
        {
          "internalType": "SD59x18",
          "name": "y",
          "type": "int256"
        }
      ],
      "name": "PRBMath_SD59x18_Mul_Overflow",
      "type": "error"
    },
    {
      "anonymous": false,
      "inputs": [
        {
          "indexed": true,
          "internalType": "address",
          "name": "previousOwner",
          "type": "address"
        },
        {
          "indexed": true,
          "internalType": "address",
          "name": "newOwner",
          "type": "address"
        }
      ],
      "name": "OwnershipTransferred",
      "type": "event"
    },
    {
      "inputs": [
        {
          "internalType": "address",
          "name": "tco2",
          "type": "address"
        },
        {
          "internalType": "address",
          "name": "pool",
          "type": "address"
        },
        {
          "internalType": "uint256",
          "name": "depositAmount",
          "type": "uint256"
        }
      ],
      "name": "calculateDepositFees",
      "outputs": [
        {
          "internalType": "uint256",
          "name": "feeAmount",
          "type": "uint256"
        }
      ],
      "stateMutability": "view",
      "type": "function"
    },
    {
      "inputs": [
        {
          "internalType": "uint256",
          "name": "totalFee",
          "type": "uint256"
        }
      ],
      "name": "calculateFeeAmongShares",
      "outputs": [
        {
          "internalType": "address[]",
          "name": "recipients",
          "type": "address[]"
        },
        {
          "internalType": "uint256[]",
          "name": "feesDenominatedInPoolTokens",
          "type": "uint256[]"
        }
      ],
      "stateMutability": "view",
      "type": "function"
    },
    {
      "inputs": [
        {
          "internalType": "address",
          "name": "tco2",
          "type": "address"
        },
        {
          "internalType": "address",
          "name": "pool",
          "type": "address"
        },
        {
          "internalType": "uint256",
          "name": "redemptionAmount",
          "type": "uint256"
        }
      ],
      "name": "calculateRedemptionFees",
      "outputs": [
        {
          "internalType": "uint256",
          "name": "feeAmount",
          "type": "uint256"
        }
      ],
      "stateMutability": "view",
      "type": "function"
    },
    {
      "inputs": [
        {
          "internalType": "address[]",
          "name": "recipients",
          "type": "address[]"
        },
        {
          "internalType": "uint256[]",
          "name": "shares",
          "type": "uint256[]"
        }
      ],
      "name": "feeSetup",
      "outputs": [],
      "stateMutability": "nonpayable",
      "type": "function"
    },
    {
      "inputs": [],
      "name": "getFeeSetup",
      "outputs": [
        {
          "internalType": "address[]",
          "name": "recipients",
          "type": "address[]"
        },
        {
          "internalType": "uint256[]",
          "name": "shares",
          "type": "uint256[]"
        }
      ],
      "stateMutability": "view",
      "type": "function"
    },
    {
      "inputs": [],
      "name": "owner",
      "outputs": [
        {
          "internalType": "address",
          "name": "",
          "type": "address"
        }
      ],
      "stateMutability": "view",
      "type": "function"
    },
    {
      "inputs": [],
      "name": "renounceOwnership",
      "outputs": [],
      "stateMutability": "nonpayable",
      "type": "function"
    },
    {
      "inputs": [
        {
          "internalType": "int256",
          "name": "_depositFeeRatioScale",
          "type": "int256"
        }
      ],
      "name": "setDepositFeeRatioScale",
      "outputs": [],
      "stateMutability": "nonpayable",
      "type": "function"
    },
    {
      "inputs": [
        {
          "internalType": "int256",
          "name": "_depositFeeScale",
          "type": "int256"
        }
      ],
      "name": "setDepositFeeScale",
      "outputs": [],
      "stateMutability": "nonpayable",
      "type": "function"
    },
    {
      "inputs": [
        {
          "internalType": "int256",
          "name": "_dustAssetRedemptionRelativeFee",
          "type": "int256"
        }
      ],
      "name": "setDustAssetRedemptionRelativeFee",
      "outputs": [],
      "stateMutability": "nonpayable",
      "type": "function"
    },
    {
      "inputs": [
        {
          "internalType": "int256",
          "name": "_redemptionFeeScale",
          "type": "int256"
        }
      ],
      "name": "setRedemptionFeeScale",
      "outputs": [],
      "stateMutability": "nonpayable",
      "type": "function"
    },
    {
      "inputs": [
        {
          "internalType": "int256",
          "name": "_redemptionFeeShift",
          "type": "int256"
        }
      ],
      "name": "setRedemptionFeeShift",
      "outputs": [],
      "stateMutability": "nonpayable",
      "type": "function"
    },
    {
      "inputs": [
        {
          "internalType": "int256",
          "name": "_singleAssetDepositRelativeFee",
          "type": "int256"
        }
      ],
      "name": "setSingleAssetDepositRelativeFee",
      "outputs": [],
      "stateMutability": "nonpayable",
      "type": "function"
    },
    {
      "inputs": [
        {
          "internalType": "int256",
          "name": "_singleAssetRedemptionRelativeFee",
          "type": "int256"
        }
      ],
      "name": "setSingleAssetRedemptionRelativeFee",
      "outputs": [],
      "stateMutability": "nonpayable",
      "type": "function"
    },
    {
      "inputs": [
        {
          "internalType": "address",
          "name": "newOwner",
          "type": "address"
        }
      ],
      "name": "transferOwnership",
      "outputs": [],
      "stateMutability": "nonpayable",
      "type": "function"
    }
  ],
  "transactionHash": "0xac61de63725f89a7782a1a7119aca45c8f5e737b0ca91ac29a7c3622d598ac86",
  "args": [],
  "numDeployments": 1,
  "solcInputHash": "4416930ad15151bc7054611922b58b1e",
  "bytecode": "0x60806040526000600155670de0b6b3a764000060025567027f7d0bdb920000600355670dbd2fc137a3000060045567016345785d8a0000600555670429d069189e000060065567016345785d8a000060075567016345785d8a0000600855670429d069189e000060095534801561007557600080fd5b5061007f33610084565b6100d4565b600080546001600160a01b038381166001600160a01b0319831681178455604051919092169283917f8be0079c531659141344cd1fd0a4f28419497f9722a3daafe3b4186f6b6457e09190a35050565b6128d5806100e36000396000f3fe608060405234801561001057600080fd5b50600436106100f55760003560e01c8063715018a6116100975780639ef3009d116100665780639ef3009d146101ef578063bf12043414610202578063eba466d31461020a578063f2fde38b1461021d57600080fd5b8063715018a614610198578063743c8ef7146101a05780638925ba9f146101c15780638da5cb5b146101d457600080fd5b8063508cde86116100d3578063508cde8614610135578063661253d91461014857806368a24fe21461015b578063697f98991461018557600080fd5b80630f996f48146100fa57806332a278451461010f5780633716d40614610122575b600080fd5b61010d61010836600461241e565b610230565b005b61010d61011d36600461241e565b6102f6565b61010d61013036600461241e565b61038a565b61010d61014336600461241e565b610447565b61010d61015636600461241e565b610504565b61016e61016936600461241e565b6105b0565b60405161017c929190612437565b60405180910390f35b61010d61019336600461241e565b610728565b61010d6107d4565b6101b36101ae3660046124d7565b61080a565b60405190815260200161017c565b6101b36101cf3660046124d7565b610938565b6000546040516001600160a01b03909116815260200161017c565b61010d6101fd3660046125e9565b610a0c565b61016e610b6a565b61010d61021836600461241e565b610c21565b61010d61022b3660046126a9565b610cca565b6000546001600160a01b031633146102635760405162461bcd60e51b815260040161025a906126c4565b60405180910390fd5b6001548190811215801561027e575061027e81600254121590565b6102f05760405162461bcd60e51b815260206004820152603c60248201527f53696e676c6520617373657420726564656d7074696f6e2072656c617469766560448201527f20666565206d757374206265206265747765656e203020616e64203100000000606482015260840161025a565b60085550565b6000546001600160a01b031633146103205760405162461bcd60e51b815260040161025a906126c4565b60015481908112156103845760405162461bcd60e51b815260206004820152602760248201527f4465706f7369742066656520726174696f207363616c65206d75737420626520604482015266061626f766520360cc1b606482015260840161025a565b60045550565b6000546001600160a01b031633146103b45760405162461bcd60e51b815260040161025a906126c4565b600154819081121580156103cf57506103cf81600254121590565b6104415760405162461bcd60e51b815260206004820152603a60248201527f4475737420617373657420726564656d7074696f6e2072656c6174697665206660448201527f6565206d757374206265206265747765656e203020616e642031000000000000606482015260840161025a565b60095550565b6000546001600160a01b031633146104715760405162461bcd60e51b815260040161025a906126c4565b6001548190811215801561048c575061048c81600254121590565b6104fe5760405162461bcd60e51b815260206004820152603960248201527f53696e676c65206173736574206465706f7369742072656c617469766520666560448201527f65206d757374206265206265747765656e203020616e64203100000000000000606482015260840161025a565b60055550565b6000546001600160a01b0316331461052e5760405162461bcd60e51b815260040161025a906126c4565b60015481908112158015610549575061054981600254121590565b6105aa5760405162461bcd60e51b815260206004820152602c60248201527f526564656d7074696f6e20666565207368696674206d7573742062652062657460448201526b7765656e203020616e64203160a01b606482015260840161025a565b60075550565b600a54606090819067ffffffffffffffff8111156105d0576105d0612513565b6040519080825280602002602001820160405280156105f9578160200160208202803683370190505b5090508260005b600a54811015610696576064600b828154811061061f5761061f6126f9565b9060005260206000200154866106359190612725565b61063f9190612752565b838281518110610651576106516126f9565b60200260200101818152505082818151811061066f5761066f6126f9565b6020026020010151826106829190612774565b91508061068e81612787565b915050610600565b50600a8054806020026020016040519081016040528092919081815260200182805480156106ed57602002820191906000526020600020905b81546001600160a01b031681526001909101906020018083116106cf575b505050505092508082600081518110610708576107086126f9565b6020026020010181815161071c91906127a0565b90525091939092509050565b6000546001600160a01b031633146107525760405162461bcd60e51b815260040161025a906126c4565b6001548190811215801561076d575061076d81600254121590565b6107ce5760405162461bcd60e51b815260206004820152602c60248201527f526564656d7074696f6e20666565207363616c65206d7573742062652062657460448201526b7765656e203020616e64203160a01b606482015260840161025a565b60065550565b6000546001600160a01b031633146107fe5760405162461bcd60e51b815260040161025a906126c4565b6108086000610d68565b565b600080821161085b5760405162461bcd60e51b815260206004820152601c60248201527f726564656d7074696f6e416d6f756e74206d757374206265203e203000000000604482015260640161025a565b610877826108698587610db8565b61087286610e31565b610e96565b9050818111156108e15760405162461bcd60e51b815260206004820152602f60248201527f466565206d757374206265206c6f776572206f7220657175616c20746f20726560448201526e19195b5c1d1a5bdb88185b5bdd5b9d608a1b606482015260840161025a565b600081116109315760405162461bcd60e51b815260206004820152601a60248201527f466565206d7573742062652067726561746572207468616e2030000000000000604482015260640161025a565b9392505050565b60008082116109895760405162461bcd60e51b815260206004820152601960248201527f6465706f736974416d6f756e74206d757374206265203e203000000000000000604482015260640161025a565b6109a5826109978587610db8565b6109a086610e31565b611033565b9050818111156108e15760405162461bcd60e51b815260206004820152602c60248201527f466565206d757374206265206c6f776572206f7220657175616c20746f20646560448201526b1c1bdcda5d08185b5bdd5b9d60a21b606482015260840161025a565b6000546001600160a01b03163314610a365760405162461bcd60e51b815260040161025a906126c4565b8051825114610aa65760405162461bcd60e51b815260206004820152603660248201527f526563697069656e747320616e642073686172657320617272617973206d75736044820152750e840d0c2ecca40e8d0ca40e6c2daca40d8cadccee8d60531b606482015260840161025a565b6000805b8251811015610aec57828181518110610ac557610ac56126f9565b602002602001015182610ad891906127a0565b915080610ae481612787565b915050610aaa565b5080606414610b3d5760405162461bcd60e51b815260206004820152601b60248201527f546f74616c20736861726573206d75737420657175616c203130300000000000604482015260640161025a565b8251610b5090600a906020860190612369565b508151610b6490600b9060208501906123ce565b50505050565b606080600a805480602002602001604051908101604052809291908181526020018280548015610bc357602002820191906000526020600020905b81546001600160a01b03168152600190910190602001808311610ba5575b50505050509150600b805480602002602001604051908101604052809291908181526020018280548015610c1657602002820191906000526020600020905b815481526020019060010190808311610c02575b505050505090509091565b6000546001600160a01b03163314610c4b5760405162461bcd60e51b815260040161025a906126c4565b60015481908112158015610c665750610c6681600254121590565b610cc45760405162461bcd60e51b815260206004820152602960248201527f4465706f73697420666565207363616c65206d757374206265206265747765656044820152686e203020616e64203160b81b606482015260840161025a565b60035550565b6000546001600160a01b03163314610cf45760405162461bcd60e51b815260040161025a906126c4565b6001600160a01b038116610d595760405162461bcd60e51b815260206004820152602660248201527f4f776e61626c653a206e6577206f776e657220697320746865207a65726f206160448201526564647265737360d01b606482015260840161025a565b610d6281610d68565b50565b90565b600080546001600160a01b038381166001600160a01b0319831681178455604051919092169283917f8be0079c531659141344cd1fd0a4f28419497f9722a3daafe3b4186f6b6457e09190a35050565b6040516370a0823160e01b81526001600160a01b03838116600483015260009182918416906370a0823190602401602060405180830381865afa158015610e03573d6000803e3d6000fd5b505050506040513d601f19601f82011682018060405250810190610e2791906127b3565b9150505b92915050565b600080826001600160a01b03166318160ddd6040518163ffffffff1660e01b8152600401602060405180830381865afa158015610e72573d6000803e3d6000fd5b505050506040513d601f19601f8201168201806040525081019061093191906127b3565b600082821015610eb85760405162461bcd60e51b815260040161025a906127cc565b82841115610f3e5760405162461bcd60e51b815260206004820152604760248201527f54686520616d6f756e7420746f2062652072656465656d65642063616e6e6f7460448201527f20657863656564207468652063757272656e742062616c616e6365206f6620746064820152661a19481c1bdbdb60ca1b608482015260a40161025a565b83828403610f66576000610f5c610f578360085461115e565b611229565b9250610931915050565b836000610f738284611250565b9050600080610f8385858961125f565b915091506000610fa685610fa1610f9c866007546112d5565b6112e4565b61115e565b90506000610fbd85610fa1610f9c866007546112d5565b90506000610fea610fd4600654610fa18587611250565b610fe5610fdf611f5f565b8b61115e565b6112d5565b9050610ff7816001541390565b1561101a5761100b610f578960095461115e565b98505050505050505050610931565b61102381611229565b9c9b505050505050505050505050565b6000828210156110555760405162461bcd60e51b815260040161025a906127cc565b838284036110745761106c610f578260055461115e565b915050610931565b83600061108182846112d5565b9050600080611091858589611f7d565b915091506110ab6110a48260045461115e565b6002541390565b6110ef5760405162461bcd60e51b81526020600482015260156024820152744465706f736974206f7574736964652072616e676560581b604482015260640161025a565b600061110f85610fa1610f9c60025461110a8860045461115e565b611250565b9050600061112c85610fa1610f9c60025461110a8860045461115e565b90506000611140600354610fa18585611250565b9050600061114d82611229565b9d9c50505050505050505050505050565b60008282600160ff1b8214806111775750600160ff1b81145b156111955760405163a6070c2560e01b815260040160405180910390fd5b600080600084126111a657836111ab565b836000035b9150600083126111bb57826111c0565b826000035b905060006111ce8383611fbf565b90506001600160ff1b038111156112025760405163120b5b4360e01b8152600481018990526024810188905260440161025a565b6000198585181361121c81611218578260000390565b8290565b9998505050505050505050565b60008181811215610e2b57604051632463f3d560e01b81526004810184905260240161025a565b6000610931610d658385612850565b600080600061126f846001541490565b6112825761127d8585612075565b611286565b6001545b9050600061129e6112978689611250565b6001541490565b6112c3576112be6112af8789611250565b6112b9878a611250565b612075565b6112c7565b6001545b919791965090945050505050565b6000610931610d658385612877565b6000818181121561130b5760405163059b101b60e01b81526004810184905260240161025a565b8260018114611a1557600a8114611a265760648114611a37576103e88114611a48576127108114611a5957620186a08114611a6a57620f42408114611a7b57629896808114611a8c576305f5e1008114611a9d57633b9aca008114611aae576402540be4008114611abf5764174876e8008114611ad05764e8d4a510008114611ae1576509184e72a0008114611af257655af3107a40008114611b035766038d7ea4c680008114611b1457662386f26fc100008114611b255767016345785d8a00008114611b3657670de0b6b3a76400008114611b4757678ac7230489e800008114611b505768056bc75e2d631000008114611b6057683635c9adc5dea000008114611b705769021e19e0c9bab24000008114611b805769152d02c7e14af68000008114611b905769d3c21bcecceda10000008114611ba0576a084595161401484a0000008114611bb0576a52b7d2dcc80cd2e40000008114611bc0576b033b2e3c9fd0803ce80000008114611bd0576b204fce5e3e250261100000008114611be0576c01431e0fae6d7217caa00000008114611bf0576c0c9f2c9cd04674edea400000008114611c00576c7e37be2022c0914b26800000008114611c10576d04ee2d6d415b85acef81000000008114611c20576d314dc6448d9338c15b0a000000008114611c30576e01ed09bead87c0378d8e64000000008114611c40576e13426172c74d822b878fe8000000008114611c50576ec097ce7bc90715b34b9f10000000008114611c60576f0785ee10d5da46d900f436a0000000008114611c70576f4b3b4ca85a86c47a098a2240000000008114611c81577002f050fe938943acc45f655680000000008114611c9257701d6329f1c35ca4bfabb9f56100000000008114611ca357710125dfa371a19e6f7cb54395ca00000000008114611cb457710b7abc627050305adf14a3d9e400000000008114611cc5577172cb5bd86321e38cb6ce6682e800000000008114611cd65772047bf19673df52e37f2410011d1000000000008114611ce757722cd76fe086b93ce2f768a00b22a000000000008114611cf8577301c06a5ec5433c60ddaa16406f5a4000000000008114611d095773118427b3b4a05bc8a8a4de8459868000000000008114611d1a5773af298d050e4395d69670b12b7f410000000000008114611d2b577406d79f82328ea3da61e066ebb2f88a0000000000008114611d3c5774446c3b15f9926687d2c40534fdb5640000000000008114611d4d577502ac3a4edbbfb8014e3ba83411e915e80000000000008114611d5e57751aba4714957d300d0e549208b31adb100000000000008114611d6f5776010b46c6cdd6e3e0828f4db456ff0c8ea00000000000008114611d8057760a70c3c40a64e6c51999090b65f67d92400000000000008114611d9157766867a5a867f103b2fffa5a71fba0e7b6800000000000008114611da2577704140c78940f6a24fdffc78873d4490d21000000000000008114611db3577728c87cb5c89a2571ebfdcb54864ada834a000000000000008114611dc457780197d4df19d605767337e9f14d3eec8920e4000000000000008114611dd557780fee50b7025c36a0802f236d04753d5b48e8000000000000008114611de657789f4f2726179a224501d762422c946590d910000000000000008114611df75779063917877cec0556b21269d695bdcbf7a87aa0000000000000008114611e0857793e3aeb4ae1383562f4b82261d969f7ac94ca40000000000000008114611e19577a026e4d30eccc3215dd8f3157d27e23acbdcfe680000000000000008114611e2a577a184f03e93ff9f4daa797ed6e38ed64bf6a1f0100000000000000008114611e3b577af316271c7fc3908a8bef464e3945ef7a25360a00000000000000008114611e4c577b097edd871cfda3a5697758bf0e3cbb5ac5741c6400000000000000008114611e5d577b5ef4a74721e864761ea977768e5f518bb6891be800000000000000008114611e6e577c03b58e88c75313ec9d329eaaa18fb92f75215b171000000000000000008114611e7f577c25179157c93ec73e23fa32aa4f9d3bda934d8ee6a000000000000000008114611e90577d0172ebad6ddc73c86d67c5faa71c245689c10795024000000000000000008114611ea1577d0e7d34c64a9c85d4460dbbca87196b61618a4bd2168000000000000000008114611eb2577d90e40fbeea1d3a4abc8955e946fe31cdcf66f634e10000000000000000008114611ec3577e05a8e89d75252446eb5d5d5b1cc5edf20a1a059e10ca0000000000000000008114611ed4577e3899162693736ac531a5a58f1fbb4b746504382ca7e40000000000000000008114611ee5577546bf5bb0385045767e0f0ef2e7aa1e517e454637d1dd604b1b8114611ef6577f161bcca7119915b50764b4abe86529797775a5f17195100000000000000000008114611f07576001600160ff1b039250611f14565b67f9ccd8a1c507ffff199250611f14565b67ebec21ee1da3ffff199250611f14565b67de0b6b3a763fffff199250611f14565b67d02ab486cedbffff199250611f14565b67c249fdd32777ffff199250611f14565b67b469471f8013ffff199250611f14565b67a688906bd8afffff199250611f14565b6798a7d9b8314bffff199250611f14565b678ac7230489e7ffff199250611f14565b677ce66c50e283ffff199250611f14565b676f05b59d3b1fffff199250611f14565b676124fee993bbffff199250611f14565b6753444835ec57ffff199250611f14565b674563918244f3ffff199250611f14565b673782dace9d8fffff199250611f14565b6729a2241af62bffff199250611f14565b671bc16d674ec7ffff199250611f14565b670de0b6b3a763ffff199250611f14565b60009250611f14565b670de0b6b3a76400009250611f14565b671bc16d674ec800009250611f14565b6729a2241af62c00009250611f14565b673782dace9d9000009250611f14565b674563918244f400009250611f14565b6753444835ec5800009250611f14565b676124fee993bc00009250611f14565b676f05b59d3b2000009250611f14565b677ce66c50e28400009250611f14565b678ac7230489e800009250611f14565b6798a7d9b8314c00009250611f14565b67a688906bd8b000009250611f14565b67b469471f801400009250611f14565b67c249fdd3277800009250611f14565b67d02ab486cedc00009250611f14565b67de0b6b3a764000009250611f14565b67ebec21ee1da400009250611f14565b67f9ccd8a1c50800009250611f14565b680107ad8f556c6c00009250611f14565b6801158e460913d000009250611f14565b6801236efcbcbb3400009250611f14565b6801314fb370629800009250611f14565b68013f306a2409fc00009250611f14565b68014d1120d7b16000009250611f14565b68015af1d78b58c400009250611f14565b680168d28e3f002800009250611f14565b680176b344f2a78c00009250611f14565b68018493fba64ef000009250611f14565b68019274b259f65400009250611f14565b6801a055690d9db800009250611f14565b6801ae361fc1451c00009250611f14565b6801bc16d674ec8000009250611f14565b6801c9f78d2893e400009250611f14565b6801d7d843dc3b4800009250611f14565b6801e5b8fa8fe2ac00009250611f14565b6801f399b1438a1000009250611f14565b6802017a67f7317400009250611f14565b68020f5b1eaad8d800009250611f14565b68021d3bd55e803c00009250611f14565b68022b1c8c1227a000009250611f14565b680238fd42c5cf0400009250611f14565b680246ddf979766800009250611f14565b680254beb02d1dcc00009250611f14565b6802629f66e0c53000009250611f14565b680270801d946c9400009250611f14565b68027e60d44813f800009250611f14565b68028c418afbbb5c00009250611f14565b68029a2241af62c000009250611f14565b6802a802f8630a2400009250611f14565b6802b5e3af16b18800009250611f14565b6802c3c465ca58ec00009250611f14565b6802d1a51c7e005000009250611f14565b6802df85d331a7b400009250611f14565b6802ed6689e54f1800009250611f14565b6802fb474098f67c00009250611f14565b68030927f74c9de000009250611f14565b68031708ae00454400009250611f14565b680324e964b3eca8000092505b506001600160ff1b038203611f5957611f56672e19dc008126bf2b670de0b6b3a7640000611f44610d6587612122565b0281611f5257611f5261273c565b0590565b91505b50919050565b6000611f78600654610fa1610f9c6002546007546112d5565b905090565b6000806000611f8d846001541490565b611fa057611f9b8585612075565b611fa4565b6001545b905060006112c7611fb587896112d5565b6112b9878a6112d5565b6000808060001984860984860292508281108382030391505080600003611ff35750670de0b6b3a764000090049050610e2b565b670de0b6b3a7640000811061202557604051635173648d60e01b8152600481018690526024810185905260440161025a565b6000670de0b6b3a764000085870962040000818503049310909103600160ee1b02919091177faccb18165bd6fe31ae1cf318dc5b51eee0e1ba569b88cd74c1773b91fac106690291505092915050565b60008282600160ff1b82148061208e5750600160ff1b81145b156120ac576040516309fe2b4560e41b815260040160405180910390fd5b600080600084126120bd57836120c2565b836000035b9150600083126120d257826120d7565b826000035b905060006120ee83670de0b6b3a764000084612295565b90506001600160ff1b038111156112025760405163d49c26b360e01b8152600481018990526024810188905260440161025a565b6000818181136121485760405163059b101b60e01b81526004810184905260240161025a565b6000670de0b6b3a7640000821261216157506001612187565b50600019816ec097ce7bc90715b34b9f1000000000816121835761218361273c565b0591505b6000612213670de0b6b3a7640000840560016fffffffffffffffffffffffffffffffff821160071b91821c67ffffffffffffffff811160061b90811c63ffffffff811160051b90811c61ffff811160041b90811c60ff8111600390811b91821c600f811160021b90811c918211871b91821c969096119490961792909217171791909117919091171790565b9050670de0b6b3a7640000810283821d670de0b6b3a763ffff198101612240575091909102949350505050565b671bc16d674ec800006706f05b59d3b200005b600081131561228657670de0b6b3a764000083800205925081831261227e579283019260019290921d915b60011d612253565b50505091909102949350505050565b60008080600019858709858702925082811083820303915050806000036122cf578382816122c5576122c561273c565b0492505050610931565b83811061230057604051630c740aef60e31b815260048101879052602481018690526044810185905260640161025a565b60008486880960026001871981018816978890046003810283188082028403028082028403028082028403028082028403028082028403029081029092039091026000889003889004909101858311909403939093029303949094049190911702949350505050565b8280548282559060005260206000209081019282156123be579160200282015b828111156123be57825182546001600160a01b0319166001600160a01b03909116178255602090920191600190910190612389565b506123ca929150612409565b5090565b8280548282559060005260206000209081019282156123be579160200282015b828111156123be5782518255916020019190600101906123ee565b5b808211156123ca576000815560010161240a565b60006020828403121561243057600080fd5b5035919050565b604080825283519082018190526000906020906060840190828701845b828110156124795781516001600160a01b031684529284019290840190600101612454565b5050508381038285015284518082528583019183019060005b818110156124ae57835183529284019291840191600101612492565b5090979650505050505050565b80356001600160a01b03811681146124d257600080fd5b919050565b6000806000606084860312156124ec57600080fd5b6124f5846124bb565b9250612503602085016124bb565b9150604084013590509250925092565b634e487b7160e01b600052604160045260246000fd5b604051601f8201601f1916810167ffffffffffffffff8111828210171561255257612552612513565b604052919050565b600067ffffffffffffffff82111561257457612574612513565b5060051b60200190565b600082601f83011261258f57600080fd5b813560206125a461259f8361255a565b612529565b82815260059290921b840181019181810190868411156125c357600080fd5b8286015b848110156125de57803583529183019183016125c7565b509695505050505050565b600080604083850312156125fc57600080fd5b823567ffffffffffffffff8082111561261457600080fd5b818501915085601f83011261262857600080fd5b8135602061263861259f8361255a565b82815260059290921b8401810191818101908984111561265757600080fd5b948201945b8386101561267c5761266d866124bb565b8252948201949082019061265c565b9650508601359250508082111561269257600080fd5b5061269f8582860161257e565b9150509250929050565b6000602082840312156126bb57600080fd5b610931826124bb565b6020808252818101527f4f776e61626c653a2063616c6c6572206973206e6f7420746865206f776e6572604082015260600190565b634e487b7160e01b600052603260045260246000fd5b634e487b7160e01b600052601160045260246000fd5b8082028115828204841417610e2b57610e2b61270f565b634e487b7160e01b600052601260045260246000fd5b60008261276f57634e487b7160e01b600052601260045260246000fd5b500490565b81810381811115610e2b57610e2b61270f565b6000600182016127995761279961270f565b5060010190565b80820180821115610e2b57610e2b61270f565b6000602082840312156127c557600080fd5b5051919050565b602080825260609082018190527f54686520746f74616c20766f6c756d6520696e2074686520706f6f6c206d757360408301527f742062652067726561746572207468616e206f7220657175616c20746f207468908201527f6520766f6c756d6520666f7220616e20696e646976696475616c206173736574608082015260a00190565b81810360008312801583831316838312821617156128705761287061270f565b5092915050565b80820182811260008312801582168215821617156128975761289761270f565b50509291505056fea2646970667358221220163dbde09ca4c83df8f9af0d86506fd38c6e7eda8c02f1a7fd2fa0c9e9502dce64736f6c63430008130033",
  "devdoc": {
    "author": "Neutral Labs Inc.",
    "details": "It implements the IFeeCalculator interface.",
    "kind": "dev",
    "methods": {
      "calculateDepositFees(address,address,uint256)": {
        "params": {
          "depositAmount": "The amount to be deposited.",
          "pool": "The address of the pool.",
          "tco2": "The address of the TCO2 token."
        },
        "returns": {
          "feeAmount": "The fee to be charged in pool tokens for this deposit."
        }
      },
      "calculateFeeAmongShares(uint256)": {
        "params": {
          "totalFee": "The total fee to be distributed."
        },
        "returns": {
          "feesDenominatedInPoolTokens": "The amount of fees each recipient should receive.",
          "recipients": "The addresses of the fee recipients."
        }
      },
      "calculateRedemptionFees(address,address,uint256)": {
        "params": {
          "pool": "The address of the pool.",
          "redemptionAmount": "The amount to be redeemed.",
          "tco2": "The address of the TCO2 token."
        },
        "returns": {
          "feeAmount": "The fee to be charged in pool tokens for this redemption."
        }
      },
      "feeSetup(address[],uint256[])": {
        "details": "Can only be called by the current owner.",
        "params": {
          "recipients": "The addresses of the fee recipients.",
          "shares": "The share of the fee each recipient should receive."
        }
      },
      "getFeeSetup()": {
        "returns": {
          "recipients": "shares The fee recipients and their share of the total fee."
        }
      },
      "owner()": {
        "details": "Returns the address of the current owner."
      },
      "renounceOwnership()": {
        "details": "Leaves the contract without owner. It will not be possible to call `onlyOwner` functions anymore. Can only be called by the current owner. NOTE: Renouncing ownership will leave the contract without an owner, thereby removing any functionality that is only available to the owner."
      },
      "setDepositFeeRatioScale(int256)": {
        "details": "Can only be called by the current owner.",
        "params": {
          "_depositFeeRatioScale": "The new deposit fee ratio scale."
        }
      },
      "setDepositFeeScale(int256)": {
        "details": "Can only be called by the current owner.",
        "params": {
          "_depositFeeScale": "The new deposit fee scale."
        }
      },
      "setDustAssetRedemptionRelativeFee(int256)": {
        "details": "Can only be called by the current owner.",
        "params": {
          "_dustAssetRedemptionRelativeFee": "The new dust asset redemption relative fee."
        }
      },
      "setRedemptionFeeScale(int256)": {
        "details": "Can only be called by the current owner.",
        "params": {
          "_redemptionFeeScale": "The new redemption fee scale."
        }
      },
      "setRedemptionFeeShift(int256)": {
        "details": "Can only be called by the current owner.",
        "params": {
          "_redemptionFeeShift": "The new redemption fee shift."
        }
      },
      "setSingleAssetDepositRelativeFee(int256)": {
        "details": "Can only be called by the current owner.",
        "params": {
          "_singleAssetDepositRelativeFee": "The new single asset deposit relative fee."
        }
      },
      "setSingleAssetRedemptionRelativeFee(int256)": {
        "details": "Can only be called by the current owner.",
        "params": {
          "_singleAssetRedemptionRelativeFee": "The new single asset redemption relative fee."
        }
      },
      "transferOwnership(address)": {
        "details": "Transfers ownership of the contract to a new account (`newOwner`). Can only be called by the current owner."
      }
    },
    "title": "FeeCalculator",
    "version": 1
  },
  "userdoc": {
    "errors": {
      "PRBMath_MulDiv18_Overflow(uint256,uint256)": [
        {
          "notice": "Thrown when the resultant value in {mulDiv18} overflows uint256."
        }
      ],
      "PRBMath_MulDiv_Overflow(uint256,uint256,uint256)": [
        {
          "notice": "Thrown when the resultant value in {mulDiv} overflows uint256."
        }
      ],
      "PRBMath_SD59x18_Div_InputTooSmall()": [
        {
          "notice": "Thrown when dividing two numbers and one of them is `MIN_SD59x18`."
        }
      ],
      "PRBMath_SD59x18_Div_Overflow(int256,int256)": [
        {
          "notice": "Thrown when dividing two numbers and one of the intermediary unsigned results overflows SD59x18."
        }
      ],
      "PRBMath_SD59x18_IntoUint256_Underflow(int256)": [
        {
          "notice": "Thrown when trying to cast a UD60x18 number that doesn't fit in uint256."
        }
      ],
      "PRBMath_SD59x18_Log_InputTooSmall(int256)": [
        {
          "notice": "Thrown when taking the logarithm of a number less than or equal to zero."
        }
      ],
      "PRBMath_SD59x18_Mul_InputTooSmall()": [
        {
          "notice": "Thrown when multiplying two numbers and one of the inputs is `MIN_SD59x18`."
        }
      ],
      "PRBMath_SD59x18_Mul_Overflow(int256,int256)": [
        {
          "notice": "Thrown when multiplying two numbers and the intermediary absolute result overflows SD59x18."
        }
      ]
    },
    "kind": "user",
    "methods": {
      "calculateDepositFees(address,address,uint256)": {
        "notice": "Calculates the deposit fee for a given amount."
      },
      "calculateFeeAmongShares(uint256)": {
        "notice": "Calculates the total fee among the recipients according to their shares."
      },
      "calculateRedemptionFees(address,address,uint256)": {
        "notice": "Calculates the redemption fees for a given amount."
      },
      "feeSetup(address[],uint256[])": {
        "notice": "Sets up the fee distribution among recipients."
      },
      "getFeeSetup()": {
        "notice": "Returns the current fee setup."
      },
      "setDepositFeeRatioScale(int256)": {
        "notice": "Sets the deposit fee ratio scale."
      },
      "setDepositFeeScale(int256)": {
        "notice": "Sets the deposit fee scale."
      },
      "setDustAssetRedemptionRelativeFee(int256)": {
        "notice": "Sets the dust asset redemption relative fee."
      },
      "setRedemptionFeeScale(int256)": {
        "notice": "Sets the redemption fee scale."
      },
      "setRedemptionFeeShift(int256)": {
        "notice": "Sets the redemption fee shift."
      },
      "setSingleAssetDepositRelativeFee(int256)": {
        "notice": "Sets the single asset deposit relative fee."
      },
      "setSingleAssetRedemptionRelativeFee(int256)": {
        "notice": "Sets the single asset redemption relative fee."
      }
    },
    "notice": "This contract calculates deposit and redemption fees for a given pool.",
    "version": 1
  },
  "storageLayout": {
    "storage": [
      {
        "astId": 5822,
        "contract": "contracts/pools/FeeCalculator.sol:FeeCalculator",
        "label": "_owner",
        "offset": 0,
        "slot": "0",
        "type": "t_address"
      },
      {
        "astId": 16028,
        "contract": "contracts/pools/FeeCalculator.sol:FeeCalculator",
        "label": "zero",
        "offset": 0,
        "slot": "1",
        "type": "t_userDefinedValueType(SD59x18)13824"
      },
      {
        "astId": 16034,
        "contract": "contracts/pools/FeeCalculator.sol:FeeCalculator",
        "label": "one",
        "offset": 0,
        "slot": "2",
        "type": "t_userDefinedValueType(SD59x18)13824"
      },
      {
        "astId": 16042,
        "contract": "contracts/pools/FeeCalculator.sol:FeeCalculator",
        "label": "depositFeeScale",
        "offset": 0,
        "slot": "3",
        "type": "t_userDefinedValueType(SD59x18)13824"
      },
      {
        "astId": 16050,
        "contract": "contracts/pools/FeeCalculator.sol:FeeCalculator",
        "label": "depositFeeRatioScale",
        "offset": 0,
        "slot": "4",
        "type": "t_userDefinedValueType(SD59x18)13824"
      },
      {
        "astId": 16058,
        "contract": "contracts/pools/FeeCalculator.sol:FeeCalculator",
        "label": "singleAssetDepositRelativeFee",
        "offset": 0,
        "slot": "5",
        "type": "t_userDefinedValueType(SD59x18)13824"
      },
      {
        "astId": 16066,
        "contract": "contracts/pools/FeeCalculator.sol:FeeCalculator",
        "label": "redemptionFeeScale",
        "offset": 0,
        "slot": "6",
        "type": "t_userDefinedValueType(SD59x18)13824"
      },
      {
        "astId": 16074,
        "contract": "contracts/pools/FeeCalculator.sol:FeeCalculator",
        "label": "redemptionFeeShift",
        "offset": 0,
        "slot": "7",
        "type": "t_userDefinedValueType(SD59x18)13824"
      },
      {
        "astId": 16098,
        "contract": "contracts/pools/FeeCalculator.sol:FeeCalculator",
        "label": "singleAssetRedemptionRelativeFee",
        "offset": 0,
        "slot": "8",
        "type": "t_userDefinedValueType(SD59x18)13824"
      },
      {
        "astId": 16106,
        "contract": "contracts/pools/FeeCalculator.sol:FeeCalculator",
        "label": "dustAssetRedemptionRelativeFee",
        "offset": 0,
        "slot": "9",
        "type": "t_userDefinedValueType(SD59x18)13824"
      },
      {
        "astId": 16109,
        "contract": "contracts/pools/FeeCalculator.sol:FeeCalculator",
        "label": "_recipients",
        "offset": 0,
        "slot": "10",
        "type": "t_array(t_address)dyn_storage"
      },
      {
        "astId": 16112,
        "contract": "contracts/pools/FeeCalculator.sol:FeeCalculator",
        "label": "_shares",
        "offset": 0,
        "slot": "11",
        "type": "t_array(t_uint256)dyn_storage"
      }
    ],
    "types": {
      "t_address": {
        "encoding": "inplace",
        "label": "address",
        "numberOfBytes": "20"
      },
      "t_array(t_address)dyn_storage": {
        "base": "t_address",
        "encoding": "dynamic_array",
        "label": "address[]",
        "numberOfBytes": "32"
      },
      "t_array(t_uint256)dyn_storage": {
        "base": "t_uint256",
        "encoding": "dynamic_array",
        "label": "uint256[]",
        "numberOfBytes": "32"
      },
      "t_uint256": {
        "encoding": "inplace",
        "label": "uint256",
        "numberOfBytes": "32"
      },
      "t_userDefinedValueType(SD59x18)13824": {
        "encoding": "inplace",
        "label": "SD59x18",
        "numberOfBytes": "32"
      }
    }
  }
}