{
  "address": "0x2fb79364ecbe5117e9b011186B6d281b8C3E8320",
  "abi": [
    {
      "anonymous": false,
      "inputs": [
        {
          "indexed": true,
          "internalType": "address",
          "name": "owner",
          "type": "address"
        },
        {
          "indexed": true,
          "internalType": "address",
          "name": "spender",
          "type": "address"
        },
        {
          "indexed": false,
          "internalType": "uint256",
          "name": "value",
          "type": "uint256"
        }
      ],
      "name": "Approval",
      "type": "event"
    },
    {
      "anonymous": false,
      "inputs": [
        {
          "indexed": true,
          "internalType": "uint256",
          "name": "requestId",
          "type": "uint256"
        }
      ],
      "name": "DetokenizationFinalized",
      "type": "event"
    },
    {
      "anonymous": false,
      "inputs": [
        {
          "indexed": true,
          "internalType": "address",
          "name": "user",
          "type": "address"
        },
        {
          "indexed": false,
          "internalType": "uint256",
          "name": "amount",
          "type": "uint256"
        },
        {
          "indexed": true,
          "internalType": "uint256",
          "name": "requestId",
          "type": "uint256"
        },
        {
          "indexed": false,
          "internalType": "uint256[]",
          "name": "batchIds",
          "type": "uint256[]"
        }
      ],
      "name": "DetokenizationRequested",
      "type": "event"
    },
    {
      "anonymous": false,
      "inputs": [
        {
          "indexed": true,
          "internalType": "uint256",
          "name": "requestId",
          "type": "uint256"
        }
      ],
      "name": "DetokenizationReverted",
      "type": "event"
    },
    {
      "anonymous": false,
      "inputs": [
        {
          "indexed": false,
          "internalType": "address",
          "name": "bridger",
          "type": "address"
        },
        {
          "indexed": false,
          "internalType": "uint256",
          "name": "fees",
          "type": "uint256"
        }
      ],
      "name": "FeeBurnt",
      "type": "event"
    },
    {
      "anonymous": false,
      "inputs": [
        {
          "indexed": false,
          "internalType": "address",
          "name": "bridger",
          "type": "address"
        },
        {
          "indexed": false,
          "internalType": "uint256",
          "name": "fees",
          "type": "uint256"
        }
      ],
      "name": "FeePaid",
      "type": "event"
    },
    {
      "anonymous": false,
      "inputs": [
        {
          "indexed": false,
          "internalType": "uint8",
          "name": "version",
          "type": "uint8"
        }
      ],
      "name": "Initialized",
      "type": "event"
    },
    {
      "anonymous": false,
      "inputs": [
        {
          "indexed": false,
          "internalType": "address",
          "name": "sender",
          "type": "address"
        },
        {
          "indexed": false,
          "internalType": "uint256",
          "name": "amount",
          "type": "uint256"
        },
        {
          "indexed": false,
          "internalType": "uint256",
          "name": "eventId",
          "type": "uint256"
        }
      ],
      "name": "Retired",
      "type": "event"
    },
    {
      "anonymous": false,
      "inputs": [
        {
          "indexed": true,
          "internalType": "uint256",
          "name": "requestId",
          "type": "uint256"
        }
      ],
      "name": "RetirementFinalized",
      "type": "event"
    },
    {
      "anonymous": false,
      "inputs": [
        {
          "indexed": true,
          "internalType": "address",
          "name": "user",
          "type": "address"
        },
        {
          "indexed": true,
          "internalType": "uint256",
          "name": "requestId",
          "type": "uint256"
        },
        {
          "components": [
            {
              "internalType": "uint256[]",
              "name": "tokenIds",
              "type": "uint256[]"
            },
            {
              "internalType": "uint256",
              "name": "amount",
              "type": "uint256"
            },
            {
              "internalType": "string",
              "name": "retiringEntityString",
              "type": "string"
            },
            {
              "internalType": "address",
              "name": "beneficiary",
              "type": "address"
            },
            {
              "internalType": "string",
              "name": "beneficiaryString",
              "type": "string"
            },
            {
              "internalType": "string",
              "name": "retirementMessage",
              "type": "string"
            },
            {
              "internalType": "string",
              "name": "beneficiaryLocation",
              "type": "string"
            },
            {
              "internalType": "string",
              "name": "consumptionCountryCode",
              "type": "string"
            },
            {
              "internalType": "uint256",
              "name": "consumptionPeriodStart",
              "type": "uint256"
            },
            {
              "internalType": "uint256",
              "name": "consumptionPeriodEnd",
              "type": "uint256"
            }
          ],
          "indexed": false,
          "internalType": "struct CreateRetirementRequestParams",
          "name": "params",
          "type": "tuple"
        }
      ],
      "name": "RetirementRequested",
      "type": "event"
    },
    {
      "anonymous": false,
      "inputs": [
        {
          "indexed": true,
          "internalType": "uint256",
          "name": "requestId",
          "type": "uint256"
        }
      ],
      "name": "RetirementReverted",
      "type": "event"
    },
    {
      "anonymous": false,
      "inputs": [
        {
          "indexed": true,
          "internalType": "address",
          "name": "from",
          "type": "address"
        },
        {
          "indexed": true,
          "internalType": "address",
          "name": "to",
          "type": "address"
        },
        {
          "indexed": false,
          "internalType": "uint256",
          "name": "value",
          "type": "uint256"
        }
      ],
      "name": "Transfer",
      "type": "event"
    },
    {
      "inputs": [],
      "name": "DETOKENIZER_ROLE",
      "outputs": [
        {
          "internalType": "bytes32",
          "name": "",
          "type": "bytes32"
        }
      ],
      "stateMutability": "view",
      "type": "function"
    },
    {
      "inputs": [],
      "name": "RETIREMENT_ROLE",
      "outputs": [
        {
          "internalType": "bytes32",
          "name": "",
          "type": "bytes32"
        }
      ],
      "stateMutability": "view",
      "type": "function"
    },
    {
      "inputs": [],
      "name": "TOKENIZER_ROLE",
      "outputs": [
        {
          "internalType": "bytes32",
          "name": "",
          "type": "bytes32"
        }
      ],
      "stateMutability": "view",
      "type": "function"
    },
    {
      "inputs": [],
      "name": "VERSION",
      "outputs": [
        {
          "internalType": "string",
          "name": "",
          "type": "string"
        }
      ],
      "stateMutability": "view",
      "type": "function"
    },
    {
      "inputs": [],
      "name": "VERSION_RELEASE_CANDIDATE",
      "outputs": [
        {
          "internalType": "uint256",
          "name": "",
          "type": "uint256"
        }
      ],
      "stateMutability": "view",
      "type": "function"
    },
    {
      "inputs": [
        {
          "internalType": "address",
          "name": "owner",
          "type": "address"
        },
        {
          "internalType": "address",
          "name": "spender",
          "type": "address"
        }
      ],
      "name": "allowance",
      "outputs": [
        {
          "internalType": "uint256",
          "name": "",
          "type": "uint256"
        }
      ],
      "stateMutability": "view",
      "type": "function"
    },
    {
      "inputs": [
        {
          "internalType": "address",
          "name": "spender",
          "type": "address"
        },
        {
          "internalType": "uint256",
          "name": "amount",
          "type": "uint256"
        }
      ],
      "name": "approve",
      "outputs": [
        {
          "internalType": "bool",
          "name": "",
          "type": "bool"
        }
      ],
      "stateMutability": "nonpayable",
      "type": "function"
    },
    {
      "inputs": [
        {
          "internalType": "address",
          "name": "account",
          "type": "address"
        }
      ],
      "name": "balanceOf",
      "outputs": [
        {
          "internalType": "uint256",
          "name": "",
          "type": "uint256"
        }
      ],
      "stateMutability": "view",
      "type": "function"
    },
    {
      "inputs": [
        {
          "internalType": "address",
          "name": "account",
          "type": "address"
        },
        {
          "internalType": "uint256",
          "name": "amount",
          "type": "uint256"
        }
      ],
      "name": "bridgeBurn",
      "outputs": [],
      "stateMutability": "nonpayable",
      "type": "function"
    },
    {
      "inputs": [
        {
          "internalType": "address",
          "name": "account",
          "type": "address"
        },
        {
          "internalType": "uint256",
          "name": "amount",
          "type": "uint256"
        }
      ],
      "name": "bridgeMint",
      "outputs": [],
      "stateMutability": "nonpayable",
      "type": "function"
    },
    {
      "inputs": [
        {
          "internalType": "address",
          "name": "account",
          "type": "address"
        },
        {
          "internalType": "uint256",
          "name": "amount",
          "type": "uint256"
        }
      ],
      "name": "burnFrom",
      "outputs": [],
      "stateMutability": "nonpayable",
      "type": "function"
    },
    {
      "inputs": [],
      "name": "contractRegistry",
      "outputs": [
        {
          "internalType": "address",
          "name": "",
          "type": "address"
        }
      ],
      "stateMutability": "view",
      "type": "function"
    },
    {
      "inputs": [],
      "name": "decimals",
      "outputs": [
        {
          "internalType": "uint8",
          "name": "",
          "type": "uint8"
        }
      ],
      "stateMutability": "view",
      "type": "function"
    },
    {
      "inputs": [
        {
          "internalType": "address",
          "name": "spender",
          "type": "address"
        },
        {
          "internalType": "uint256",
          "name": "subtractedValue",
          "type": "uint256"
        }
      ],
      "name": "decreaseAllowance",
      "outputs": [
        {
          "internalType": "bool",
          "name": "",
          "type": "bool"
        }
      ],
      "stateMutability": "nonpayable",
      "type": "function"
    },
    {
      "inputs": [
        {
          "internalType": "uint256",
          "name": "tokenId",
          "type": "uint256"
        }
      ],
      "name": "defractionalize",
      "outputs": [],
      "stateMutability": "nonpayable",
      "type": "function"
    },
    {
      "inputs": [
        {
          "internalType": "uint256",
          "name": "requestId",
          "type": "uint256"
        },
        {
          "internalType": "string",
          "name": "splitBalancingSerialNumber",
          "type": "string"
        },
        {
          "internalType": "string",
          "name": "splitRemainingSerialNumber",
          "type": "string"
        }
      ],
      "name": "finalizeDetokenization",
      "outputs": [],
      "stateMutability": "nonpayable",
      "type": "function"
    },
    {
      "inputs": [
        {
          "internalType": "uint256",
          "name": "requestId",
          "type": "uint256"
        },
        {
          "internalType": "string",
          "name": "splitBalancingSerialNumber",
          "type": "string"
        },
        {
          "internalType": "string",
          "name": "splitRemainingSerialNumber",
          "type": "string"
        }
      ],
      "name": "finalizeRetirement",
      "outputs": [],
      "stateMutability": "nonpayable",
      "type": "function"
    },
    {
      "inputs": [],
      "name": "getAttributes",
      "outputs": [
        {
          "components": [
            {
              "internalType": "string",
              "name": "projectId",
              "type": "string"
            },
            {
              "internalType": "string",
              "name": "standard",
              "type": "string"
            },
            {
              "internalType": "string",
              "name": "methodology",
              "type": "string"
            },
            {
              "internalType": "string",
              "name": "region",
              "type": "string"
            },
            {
              "internalType": "string",
              "name": "storageMethod",
              "type": "string"
            },
            {
              "internalType": "string",
              "name": "method",
              "type": "string"
            },
            {
              "internalType": "string",
              "name": "emissionType",
              "type": "string"
            },
            {
              "internalType": "string",
              "name": "category",
              "type": "string"
            },
            {
              "internalType": "string",
              "name": "uri",
              "type": "string"
            },
            {
              "internalType": "address",
              "name": "beneficiary",
              "type": "address"
            }
          ],
          "internalType": "struct ProjectData",
          "name": "",
          "type": "tuple"
        },
        {
          "components": [
            {
              "internalType": "string",
              "name": "name",
              "type": "string"
            },
            {
              "internalType": "uint64",
              "name": "startTime",
              "type": "uint64"
            },
            {
              "internalType": "uint64",
              "name": "endTime",
              "type": "uint64"
            },
            {
              "internalType": "uint256",
              "name": "projectTokenId",
              "type": "uint256"
            },
            {
              "internalType": "uint64",
              "name": "totalVintageQuantity",
              "type": "uint64"
            },
            {
              "internalType": "bool",
              "name": "isCorsiaCompliant",
              "type": "bool"
            },
            {
              "internalType": "bool",
              "name": "isCCPcompliant",
              "type": "bool"
            },
            {
              "internalType": "string",
              "name": "coBenefits",
              "type": "string"
            },
            {
              "internalType": "string",
              "name": "correspAdjustment",
              "type": "string"
            },
            {
              "internalType": "string",
              "name": "additionalCertification",
              "type": "string"
            },
            {
              "internalType": "string",
              "name": "uri",
              "type": "string"
            },
            {
              "internalType": "string",
              "name": "registry",
              "type": "string"
            }
          ],
          "internalType": "struct VintageData",
          "name": "",
          "type": "tuple"
        }
      ],
      "stateMutability": "view",
      "type": "function"
    },
    {
      "inputs": [],
      "name": "getDepositCap",
      "outputs": [
        {
          "internalType": "uint256",
          "name": "",
          "type": "uint256"
        }
      ],
      "stateMutability": "view",
      "type": "function"
    },
    {
      "inputs": [],
      "name": "getGlobalProjectVintageIdentifiers",
      "outputs": [
        {
          "internalType": "string",
          "name": "",
          "type": "string"
        },
        {
          "internalType": "string",
          "name": "",
          "type": "string"
        }
      ],
      "stateMutability": "view",
      "type": "function"
    },
    {
      "inputs": [],
      "name": "getRemaining",
      "outputs": [
        {
          "internalType": "uint256",
          "name": "remaining",
          "type": "uint256"
        }
      ],
      "stateMutability": "view",
      "type": "function"
    },
    {
      "inputs": [],
      "name": "getVintageData",
      "outputs": [
        {
          "components": [
            {
              "internalType": "string",
              "name": "name",
              "type": "string"
            },
            {
              "internalType": "uint64",
              "name": "startTime",
              "type": "uint64"
            },
            {
              "internalType": "uint64",
              "name": "endTime",
              "type": "uint64"
            },
            {
              "internalType": "uint256",
              "name": "projectTokenId",
              "type": "uint256"
            },
            {
              "internalType": "uint64",
              "name": "totalVintageQuantity",
              "type": "uint64"
            },
            {
              "internalType": "bool",
              "name": "isCorsiaCompliant",
              "type": "bool"
            },
            {
              "internalType": "bool",
              "name": "isCCPcompliant",
              "type": "bool"
            },
            {
              "internalType": "string",
              "name": "coBenefits",
              "type": "string"
            },
            {
              "internalType": "string",
              "name": "correspAdjustment",
              "type": "string"
            },
            {
              "internalType": "string",
              "name": "additionalCertification",
              "type": "string"
            },
            {
              "internalType": "string",
              "name": "uri",
              "type": "string"
            },
            {
              "internalType": "string",
              "name": "registry",
              "type": "string"
            }
          ],
          "internalType": "struct VintageData",
          "name": "vintageData",
          "type": "tuple"
        }
      ],
      "stateMutability": "view",
      "type": "function"
    },
    {
      "inputs": [
        {
          "internalType": "address",
          "name": "spender",
          "type": "address"
        },
        {
          "internalType": "uint256",
          "name": "addedValue",
          "type": "uint256"
        }
      ],
      "name": "increaseAllowance",
      "outputs": [
        {
          "internalType": "bool",
          "name": "",
          "type": "bool"
        }
      ],
      "stateMutability": "nonpayable",
      "type": "function"
    },
    {
      "inputs": [
        {
          "internalType": "string",
          "name": "name_",
          "type": "string"
        },
        {
          "internalType": "string",
          "name": "symbol_",
          "type": "string"
        },
        {
          "internalType": "uint256",
          "name": "projectVintageTokenId_",
          "type": "uint256"
        },
        {
          "internalType": "address",
          "name": "contractRegistry_",
          "type": "address"
        }
      ],
      "name": "initialize",
      "outputs": [],
      "stateMutability": "nonpayable",
      "type": "function"
    },
    {
      "inputs": [
        {
          "internalType": "address",
          "name": "",
          "type": "address"
        }
      ],
      "name": "minterToId",
      "outputs": [
        {
          "internalType": "uint256",
          "name": "",
          "type": "uint256"
        }
      ],
      "stateMutability": "view",
      "type": "function"
    },
    {
      "inputs": [],
      "name": "name",
      "outputs": [
        {
          "internalType": "string",
          "name": "",
          "type": "string"
        }
      ],
      "stateMutability": "view",
      "type": "function"
    },
    {
      "inputs": [
        {
          "internalType": "address",
          "name": "",
          "type": "address"
        },
        {
          "internalType": "address",
          "name": "from",
          "type": "address"
        },
        {
          "internalType": "uint256",
          "name": "tokenId",
          "type": "uint256"
        },
        {
          "internalType": "bytes",
          "name": "",
          "type": "bytes"
        }
      ],
      "name": "onERC721Received",
      "outputs": [
        {
          "internalType": "bytes4",
          "name": "",
          "type": "bytes4"
        }
      ],
      "stateMutability": "nonpayable",
      "type": "function"
    },
    {
      "inputs": [],
      "name": "projectVintageTokenId",
      "outputs": [
        {
          "internalType": "uint256",
          "name": "",
          "type": "uint256"
        }
      ],
      "stateMutability": "view",
      "type": "function"
    },
    {
      "inputs": [
        {
          "internalType": "uint256[]",
          "name": "tokenIds",
          "type": "uint256[]"
        },
        {
          "internalType": "uint256",
          "name": "amount",
          "type": "uint256"
        }
      ],
      "name": "requestDetokenization",
      "outputs": [
        {
          "internalType": "uint256",
          "name": "requestId",
          "type": "uint256"
        }
      ],
      "stateMutability": "nonpayable",
      "type": "function"
    },
    {
      "inputs": [
        {
          "components": [
            {
              "internalType": "uint256[]",
              "name": "tokenIds",
              "type": "uint256[]"
            },
            {
              "internalType": "uint256",
              "name": "amount",
              "type": "uint256"
            },
            {
              "internalType": "string",
              "name": "retiringEntityString",
              "type": "string"
            },
            {
              "internalType": "address",
              "name": "beneficiary",
              "type": "address"
            },
            {
              "internalType": "string",
              "name": "beneficiaryString",
              "type": "string"
            },
            {
              "internalType": "string",
              "name": "retirementMessage",
              "type": "string"
            },
            {
              "internalType": "string",
              "name": "beneficiaryLocation",
              "type": "string"
            },
            {
              "internalType": "string",
              "name": "consumptionCountryCode",
              "type": "string"
            },
            {
              "internalType": "uint256",
              "name": "consumptionPeriodStart",
              "type": "uint256"
            },
            {
              "internalType": "uint256",
              "name": "consumptionPeriodEnd",
              "type": "uint256"
            }
          ],
          "internalType": "struct CreateRetirementRequestParams",
          "name": "params",
          "type": "tuple"
        }
      ],
      "name": "requestRetirement",
      "outputs": [
        {
          "internalType": "uint256",
          "name": "requestId",
          "type": "uint256"
        }
      ],
      "stateMutability": "nonpayable",
      "type": "function"
    },
    {
      "inputs": [
        {
          "internalType": "address",
          "name": "retiringEntity",
          "type": "address"
        },
        {
          "components": [
            {
              "internalType": "uint256[]",
              "name": "tokenIds",
              "type": "uint256[]"
            },
            {
              "internalType": "uint256",
              "name": "amount",
              "type": "uint256"
            },
            {
              "internalType": "string",
              "name": "retiringEntityString",
              "type": "string"
            },
            {
              "internalType": "address",
              "name": "beneficiary",
              "type": "address"
            },
            {
              "internalType": "string",
              "name": "beneficiaryString",
              "type": "string"
            },
            {
              "internalType": "string",
              "name": "retirementMessage",
              "type": "string"
            },
            {
              "internalType": "string",
              "name": "beneficiaryLocation",
              "type": "string"
            },
            {
              "internalType": "string",
              "name": "consumptionCountryCode",
              "type": "string"
            },
            {
              "internalType": "uint256",
              "name": "consumptionPeriodStart",
              "type": "uint256"
            },
            {
              "internalType": "uint256",
              "name": "consumptionPeriodEnd",
              "type": "uint256"
            }
          ],
          "internalType": "struct CreateRetirementRequestParams",
          "name": "params",
          "type": "tuple"
        }
      ],
      "name": "retireAndMintCertificateForEntity",
      "outputs": [],
      "stateMutability": "nonpayable",
      "type": "function"
    },
    {
      "inputs": [
        {
          "internalType": "uint256",
          "name": "requestId",
          "type": "uint256"
        }
      ],
      "name": "revertDetokenization",
      "outputs": [],
      "stateMutability": "nonpayable",
      "type": "function"
    },
    {
      "inputs": [
        {
          "internalType": "uint256",
          "name": "requestId",
          "type": "uint256"
        }
      ],
      "name": "revertRetirement",
      "outputs": [],
      "stateMutability": "nonpayable",
      "type": "function"
    },
    {
      "inputs": [],
      "name": "standardRegistry",
      "outputs": [
        {
          "internalType": "string",
          "name": "",
          "type": "string"
        }
      ],
      "stateMutability": "pure",
      "type": "function"
    },
    {
      "inputs": [],
      "name": "standardRegistryDecimals",
      "outputs": [
        {
          "internalType": "uint8",
          "name": "",
          "type": "uint8"
        }
      ],
      "stateMutability": "pure",
      "type": "function"
    },
    {
      "inputs": [],
      "name": "symbol",
      "outputs": [
        {
          "internalType": "string",
          "name": "",
          "type": "string"
        }
      ],
      "stateMutability": "view",
      "type": "function"
    },
    {
      "inputs": [],
      "name": "totalSupply",
      "outputs": [
        {
          "internalType": "uint256",
          "name": "",
          "type": "uint256"
        }
      ],
      "stateMutability": "view",
      "type": "function"
    },
    {
      "inputs": [
        {
          "internalType": "address",
          "name": "recipient",
          "type": "address"
        },
        {
          "internalType": "uint256",
          "name": "amount",
          "type": "uint256"
        }
      ],
      "name": "transfer",
      "outputs": [
        {
          "internalType": "bool",
          "name": "",
          "type": "bool"
        }
      ],
      "stateMutability": "nonpayable",
      "type": "function"
    },
    {
      "inputs": [
        {
          "internalType": "address",
          "name": "sender",
          "type": "address"
        },
        {
          "internalType": "address",
          "name": "recipient",
          "type": "address"
        },
        {
          "internalType": "uint256",
          "name": "amount",
          "type": "uint256"
        }
      ],
      "name": "transferFrom",
      "outputs": [
        {
          "internalType": "bool",
          "name": "",
          "type": "bool"
        }
      ],
      "stateMutability": "nonpayable",
      "type": "function"
    }
  ],
  "numDeployments": 14,
  "solcInputHash": "ee2d802afe0b0e180bee64af8a2fbc86",
  "bytecode": "0x60806040523480156200001157600080fd5b506200001c62000022565b62000152565b6200002e60ff62000031565b50565b60008054610100900460ff1615620000ca578160ff1660011480156200006a575062000068306200014360201b620031661760201c565b155b620000c25760405162461bcd60e51b815260206004820152602e602482015260008051602062005def83398151915260448201526d191e481a5b9a5d1a585b1a5e995960921b60648201526084015b60405180910390fd5b506000919050565b60005460ff808416911610620001295760405162461bcd60e51b815260206004820152602e602482015260008051602062005def83398151915260448201526d191e481a5b9a5d1a585b1a5e995960921b6064820152608401620000b9565b506000805460ff191660ff92909216919091179055600190565b6001600160a01b03163b151590565b615c8d80620001626000396000f3fe608060405234801561001057600080fd5b506004361061023d5760003560e01c806370a082311161013b578063a9059cbb116100b8578063e819426c1161007c578063e819426c14610521578063e9d5c8d514610529578063eca45d8214610549578063ed3468791461055c578063ffa1ad741461056f57600080fd5b8063a9059cbb146104b5578063abf410e5146104c8578063bd3a13f6146104f3578063d6a022b814610506578063dd62ed3e1461050e57600080fd5b806384d8b61a116100ff57806384d8b61a146104615780638c2a993e1461047457806395d89b41146104875780639eac82641461048f578063a457c2d7146104a257600080fd5b806370a08231146103d857806374f4f547146104015780637903c7d01461041457806379cc67901461042757806383f2fc3e1461043a57600080fd5b8063313ce567116101c957806364c5a4031161018d57806364c5a4031461039457806365ec18091461032e5780636746e7be146103aa5780636ca0b0d7146103bd5780636d059f5a146103c557600080fd5b8063313ce5671461032e5780633633f35f1461033d57806339509351146103525780633c31175e146103655780635c6f3a901461036d57600080fd5b806313114d651161021057806313114d65146102bc578063150b7a02146102d1578063152583de146102fd57806318160ddd1461031357806323b872dd1461031b57600080fd5b806301a598da146102425780630605a3341461025d57806306fdde0314610284578063095ea7b314610299575b600080fd5b61024a610593565b6040519081526020015b60405180910390f35b61024a7fe70d28ebd9d7d9a3dd77d46ae2481f301c80806f395b08de31d8e095b1c46cee81565b61028c6105ec565b6040516102549190614417565b6102ac6102a736600461444d565b610627565b6040519015158152602001610254565b6102cf6102ca3660046144c1565b610641565b005b6102e46102df36600461453a565b610a09565b6040516001600160e01b03199091168152602001610254565b610305610fd3565b6040516102549291906146c7565b60355461024a565b6102ac61032936600461480f565b6111cc565b60405160128152602001610254565b61034561130f565b6040516102549190614850565b6102ac61036036600461444d565b611404565b61028c611426565b61024a7ffb7778e60e898528875e31f94e3a623d6302be2aa540c7a7f5ae26fe5ee2498d81565b61039c611444565b604051610254929190614863565b6102cf6103b83660046148a1565b61146e565b61024a600181565b6102cf6103d33660046148f0565b61153d565b61024a6103e6366004614909565b6001600160a01b031660009081526033602052604090205490565b6102cf61040f36600461444d565b6118e2565b6102cf6104223660046148f0565b611b17565b6102cf61043536600461444d565b611e91565b61024a7ff70ccd5004a2a6f964f044c0095454c529799f8602238d52b5a197af351dd41981565b61024a61046f366004614926565b611fab565b6102cf61048236600461444d565b61225a565b61028c612487565b6102cf61049d3660046144c1565b6124ac565b6102ac6104b036600461444d565b61286b565b6102ac6104c336600461444d565b6128f1565b6066546104db906001600160a01b031681565b6040516001600160a01b039091168152602001610254565b6102cf610501366004614ab6565b612a32565b61024a612acd565b61024a61051c366004614b35565b612aed565b60655461024a565b61024a610537366004614909565b60676020526000908152604090205481565b61024a610557366004614b6e565b612b18565b6102cf61056a3660046148f0565b612dc1565b61028c604051806040016040528060058152602001640312e322e360dc1b81525081565b600061059d61424a565b6105a5610fd3565b6080810151909250905060006105bd6012600a614ce2565b6105d0906001600160401b038416614cf1565b9050806000036105e557600019935050505090565b9392505050565b60608060606105f9611444565b60405191935091506106119083908390602001614d10565b6040516020818303038152906040529250505090565b600033610635818585613175565b60019150505b92915050565b6066546000906001600160a01b03166391148b2761065d611426565b6040518263ffffffff1660e01b81526004016106799190614417565b602060405180830381865afa158015610696573d6000803e3d6000fd5b505050506040513d601f19601f820116820180604052508101906106ba9190614d79565b90506000816001600160a01b0316635c975abb6040518163ffffffff1660e01b8152600401602060405180830381865afa1580156106fc573d6000803e3d6000fd5b505050506040513d601f19601f820116820180604052508101906107209190614da6565b905080156107495760405162461bcd60e51b815260040161074090614dc1565b60405180910390fd5b6066547ffb7778e60e898528875e31f94e3a623d6302be2aa540c7a7f5ae26fe5ee2498d906001600160a01b03166391148b27610784611426565b6040518263ffffffff1660e01b81526004016107a09190614417565b602060405180830381865afa1580156107bd573d6000803e3d6000fd5b505050506040513d601f19601f820116820180604052508101906107e19190614d79565b604051632474521560e21b8152600481018390523360248201526001600160a01b0391909116906391d1485490604401602060405180830381865afa15801561082e573d6000803e3d6000fd5b505050506040513d601f19601f820116820180604052508101906108529190614da6565b61086e5760405162461bcd60e51b815260040161074090614de6565b60665460408051637394ca7160e11b815290516000926001600160a01b03169163e72994e29160048083019260209291908290030181865afa1580156108b8573d6000803e3d6000fd5b505050506040513d601f19601f820116820180604052508101906108dc9190614d79565b604051635860ef5d60e01b8152600481018b90529091506000906001600160a01b03831690635860ef5d90602401600060405180830381865afa158015610927573d6000803e3d6000fd5b505050506040513d6000823e601f3d908101601f1916820160405261094f9190810190614ea6565b9050610967816020015182606001518b8b8b8b61329a565b61097681606001516004613350565b505060405163075f2da360e51b8152600481018b90526001600160a01b0383169063ebe5b46090602401600060405180830381600087803b1580156109ba57600080fd5b505af11580156109ce573d6000803e3d6000fd5b50506040518c92507f57e4027df666ec477f55d7dd87fb5a098836de7eaf475ba43d684b5d438d238b9150600090a250505050505050505050565b60665460009081906001600160a01b03166391148b27610a27611426565b6040518263ffffffff1660e01b8152600401610a439190614417565b602060405180830381865afa158015610a60573d6000803e3d6000fd5b505050506040513d601f19601f82011682018060405250810190610a849190614d79565b90506000816001600160a01b0316635c975abb6040518163ffffffff1660e01b8152600401602060405180830381865afa158015610ac6573d6000803e3d6000fd5b505050506040513d601f19601f82011682018060405250810190610aea9190614da6565b90508015610b0a5760405162461bcd60e51b815260040161074090614dc1565b610b1333613491565b60405180604001604052806002815260200161068760f31b81525090610b4c5760405162461bcd60e51b81526004016107409190614417565b506000806000610b5c338a61352c565b925092509250606554831460405180604001604052806002815260200161343960f01b81525090610ba05760405162461bcd60e51b81526004016107409190614417565b506003816006811115610bb557610bb5614f4d565b1480610bd257506005816006811115610bd057610bd0614f4d565b145b15610bea5750630a85bd0160e11b9450610fc8915050565b6002816006811115610bfe57610bfe614f4d565b1460405180604001604052806002815260200161343760f01b81525090610c385760405162461bcd60e51b81526004016107409190614417565b5081610c42612acd565b101560405180604001604052806002815260200161035360f41b81525090610c7d5760405162461bcd60e51b81526004016107409190614417565b506001600160a01b03808b1660009081526067602052604081208b90556066549091166391148b27610cad611426565b6040518263ffffffff1660e01b8152600401610cc99190614417565b602060405180830381865afa158015610ce6573d6000803e3d6000fd5b505050506040513d601f19601f82011682018060405250810190610d0a9190614d79565b90506000816001600160a01b03166380e2d3f06040518163ffffffff1660e01b8152600401602060405180830381865afa158015610d4c573d6000803e3d6000fd5b505050506040513d601f19601f82011682018060405250810190610d709190614d79565b90506001600160a01b038116610d8f57610d8a8c856135c4565b610fb8565b6040516379bcd2d160e11b81526004810185905260009081906001600160a01b0385169063f379a5a2906024016040805180830381865afa158015610dd8573d6000803e3d6000fd5b505050506040513d601f19601f82011682018060405250810190610dfc9190614f63565b9092509050610e148e610e0f8489614f87565b6135c4565b6000846001600160a01b031663581cd1106040518163ffffffff1660e01b8152600401602060405180830381865afa158015610e54573d6000803e3d6000fd5b505050506040513d601f19601f82011682018060405250810190610e789190614d79565b90506001600160a01b03811615801590610e925750600082115b15610f5657610ea18284614f87565b9250610ead84846135c4565b610eb781836135c4565b7f075a2720282fdf622141dae0b048ef90a21a7e57c134c76912d19d006b3b3f6f8f84604051610efc9291906001600160a01b03929092168252602082015260400190565b60405180910390a17fa2f0f5180dc62f2d34c8207f1d18178d31bd0de616f83636434ddf48de0ae6fa8f83604051610f499291906001600160a01b03929092168252602082015260400190565b60405180910390a1610fb4565b8215610fb457610f6684846135c4565b7f075a2720282fdf622141dae0b048ef90a21a7e57c134c76912d19d006b3b3f6f8f84604051610fab9291906001600160a01b03929092168252602082015260400190565b60405180910390a15b5050505b50630a85bd0160e11b9650505050505b505095945050505050565b610fdb6142ca565b610fe361424a565b606654604080516301157a8360e01b815290516000926001600160a01b0316916301157a839160048083019260209291908290030181865afa15801561102d573d6000803e3d6000fd5b505050506040513d601f19601f820116820180604052508101906110519190614d79565b90506000606660009054906101000a90046001600160a01b03166001600160a01b031663a0af25606040518163ffffffff1660e01b8152600401602060405180830381865afa1580156110a8573d6000803e3d6000fd5b505050506040513d601f19601f820116820180604052508101906110cc9190614d79565b90506000816001600160a01b03166315bbf0746065546040518263ffffffff1660e01b815260040161110091815260200190565b600060405180830381865afa15801561111d573d6000803e3d6000fd5b505050506040513d6000823e601f3d908101601f191682016040526111459190810190614ffa565b90506000836001600160a01b03166347e3168683606001516040518263ffffffff1660e01b815260040161117b91815260200190565b600060405180830381865afa158015611198573d6000803e3d6000fd5b505050506040513d6000823e601f3d908101601f191682016040526111c09190810190615184565b96919550909350505050565b6000826001600160a01b0381166111e257600080fd5b306001600160a01b038216036111f757600080fd5b6066546000906001600160a01b03166391148b27611213611426565b6040518263ffffffff1660e01b815260040161122f9190614417565b602060405180830381865afa15801561124c573d6000803e3d6000fd5b505050506040513d601f19601f820116820180604052508101906112709190614d79565b90506000816001600160a01b0316635c975abb6040518163ffffffff1660e01b8152600401602060405180830381865afa1580156112b2573d6000803e3d6000fd5b505050506040513d601f19601f820116820180604052508101906112d69190614da6565b905080156112f65760405162461bcd60e51b815260040161074090614dc1565b6113018787876136a3565b506001979650505050505050565b61131761424a565b60665460408051630505792b60e51b815290516000926001600160a01b03169163a0af25609160048083019260209291908290030181865afa158015611361573d6000803e3d6000fd5b505050506040513d601f19601f820116820180604052508101906113859190614d79565b60655460405163056efc1d60e21b81529192506001600160a01b038316916315bbf074916113b99160040190815260200190565b600060405180830381865afa1580156113d6573d6000803e3d6000fd5b505050506040513d6000823e601f3d908101601f191682016040526113fe9190810190614ffa565b91505090565b6000336106358185856114178383612aed565b6114219190615329565b613175565b6040805180820190915260048152637075726f60e01b602082015290565b60608061144f6142ca565b61145761424a565b61145f610fd3565b90519051909590945092505050565b60665460408051637394ca7160e11b8152905133926001600160a01b03169163e72994e29160048083019260209291908290030181865afa1580156114b7573d6000803e3d6000fd5b505050506040513d601f19601f820116820180604052508101906114db9190614d79565b6001600160a01b0316146115275760405162461bcd60e51b8152602060048201526013602482015272139bdd08195cd8dc9bddc818dbdb9d1c9858dd606a1b6044820152606401610740565b611539826115348361539c565b6136bc565b5050565b6066546000906001600160a01b03166391148b27611559611426565b6040518263ffffffff1660e01b81526004016115759190614417565b602060405180830381865afa158015611592573d6000803e3d6000fd5b505050506040513d601f19601f820116820180604052508101906115b69190614d79565b90506000816001600160a01b0316635c975abb6040518163ffffffff1660e01b8152600401602060405180830381865afa1580156115f8573d6000803e3d6000fd5b505050506040513d601f19601f8201168201806040525081019061161c9190614da6565b9050801561163c5760405162461bcd60e51b815260040161074090614dc1565b6066547ffb7778e60e898528875e31f94e3a623d6302be2aa540c7a7f5ae26fe5ee2498d906001600160a01b03166391148b27611677611426565b6040518263ffffffff1660e01b81526004016116939190614417565b602060405180830381865afa1580156116b0573d6000803e3d6000fd5b505050506040513d601f19601f820116820180604052508101906116d49190614d79565b604051632474521560e21b8152600481018390523360248201526001600160a01b0391909116906391d1485490604401602060405180830381865afa158015611721573d6000803e3d6000fd5b505050506040513d601f19601f820116820180604052508101906117459190614da6565b6117615760405162461bcd60e51b815260040161074090614de6565b60665460408051637394ca7160e11b815290516000926001600160a01b03169163e72994e29160048083019260209291908290030181865afa1580156117ab573d6000803e3d6000fd5b505050506040513d601f19601f820116820180604052508101906117cf9190614d79565b604051635860ef5d60e01b8152600481018790529091506000906001600160a01b03831690635860ef5d90602401600060405180830381865afa15801561181a573d6000803e3d6000fd5b505050506040513d6000823e601f3d908101601f191682016040526118429190810190614ea6565b905061185381606001516002613350565b5050604051631d42b1bf60e31b8152600481018790526001600160a01b0383169063ea158df890602401600060405180830381600087803b15801561189757600080fd5b505af11580156118ab573d6000803e3d6000fd5b50506040518892507f11824358702d89f2293e23da6c058c3c600cd7312e29fe855817f50b4ac2e95b9150600090a2505050505050565b6066546000906001600160a01b03166391148b276118fe611426565b6040518263ffffffff1660e01b815260040161191a9190614417565b602060405180830381865afa158015611937573d6000803e3d6000fd5b505050506040513d601f19601f8201168201806040525081019061195b9190614d79565b90506000816001600160a01b0316635c975abb6040518163ffffffff1660e01b8152600401602060405180830381865afa15801561199d573d6000803e3d6000fd5b505050506040513d601f19601f820116820180604052508101906119c19190614da6565b905080156119e15760405162461bcd60e51b815260040161074090614dc1565b6066546000906001600160a01b03166391148b276119fd611426565b6040518263ffffffff1660e01b8152600401611a199190614417565b602060405180830381865afa158015611a36573d6000803e3d6000fd5b505050506040513d601f19601f82011682018060405250810190611a5a9190614d79565b6040516311afe75f60e11b81523360048201529091506000906001600160a01b0383169063235fcebe90602401602060405180830381865afa158015611aa4573d6000803e3d6000fd5b505050506040513d601f19601f82011682018060405250810190611ac89190614da6565b905080611b055760405162461bcd60e51b815260206004820152600b60248201526a139bdd08185b1b1bddd95960aa1b6044820152606401610740565b611b0f86866138f8565b505050505050565b6066546000906001600160a01b03166391148b27611b33611426565b6040518263ffffffff1660e01b8152600401611b4f9190614417565b602060405180830381865afa158015611b6c573d6000803e3d6000fd5b505050506040513d601f19601f82011682018060405250810190611b909190614d79565b90506000816001600160a01b0316635c975abb6040518163ffffffff1660e01b8152600401602060405180830381865afa158015611bd2573d6000803e3d6000fd5b505050506040513d601f19601f82011682018060405250810190611bf69190614da6565b90508015611c165760405162461bcd60e51b815260040161074090614dc1565b6066546000906001600160a01b03166391148b27611c32611426565b6040518263ffffffff1660e01b8152600401611c4e9190614417565b602060405180830381865afa158015611c6b573d6000803e3d6000fd5b505050506040513d601f19601f82011682018060405250810190611c8f9190614d79565b90506000816001600160a01b0316638da5cb5b6040518163ffffffff1660e01b8152600401602060405180830381865afa158015611cd1573d6000803e3d6000fd5b505050506040513d601f19601f82011682018060405250810190611cf59190614d79565b90506001600160a01b0381163314611d435760405162461bcd60e51b81526020600482015260116024820152702737ba103330b1ba37b93c9037bbb732b960791b6044820152606401610740565b60665460408051634be4e3dd60e01b815290516000926001600160a01b031691634be4e3dd9160048083019260209291908290030181865afa158015611d8d573d6000803e3d6000fd5b505050506040513d601f19601f82011682018060405250810190611db19190614d79565b9050600080611dc0838961352c565b909350915060029050816006811115611ddb57611ddb614f4d565b1460405180604001604052806002815260200161343760f01b81525090611e155760405162461bcd60e51b81526004016107409190614417565b50611e2033836138f8565b6040516323b872dd60e01b8152306004820152336024820152604481018990526001600160a01b038416906323b872dd906064015b600060405180830381600087803b158015611e6f57600080fd5b505af1158015611e83573d6000803e3d6000fd5b505050505050505050505050565b6066546000906001600160a01b03166391148b27611ead611426565b6040518263ffffffff1660e01b8152600401611ec99190614417565b602060405180830381865afa158015611ee6573d6000803e3d6000fd5b505050506040513d601f19601f82011682018060405250810190611f0a9190614d79565b90506000816001600160a01b0316635c975abb6040518163ffffffff1660e01b8152600401602060405180830381865afa158015611f4c573d6000803e3d6000fd5b505050506040513d601f19601f82011682018060405250810190611f709190614da6565b90508015611f905760405162461bcd60e51b815260040161074090614dc1565b611f9b843385613a43565b611fa584846138f8565b50505050565b6000602082013581611fbf6012600a614ce2565b905080611fcc81846154cf565b611fd69190614cf1565b8214604051806040016040528060028152602001610d4d60f21b815250906120115760405162461bcd60e51b81526004016107409190614417565b506066546000906001600160a01b03166391148b2761202e611426565b6040518263ffffffff1660e01b815260040161204a9190614417565b602060405180830381865afa158015612067573d6000803e3d6000fd5b505050506040513d601f19601f8201168201806040525081019061208b9190614d79565b90506000816001600160a01b0316635c975abb6040518163ffffffff1660e01b8152600401602060405180830381865afa1580156120cd573d6000803e3d6000fd5b505050506040513d601f19601f820116820180604052508101906120f19190614da6565b905080156121115760405162461bcd60e51b815260040161074090614dc1565b60665460408051637394ca7160e11b815290516000926001600160a01b03169163e72994e29160048083019260209291908290030181865afa15801561215b573d6000803e3d6000fd5b505050506040513d601f19601f8201168201806040525081019061217f9190614d79565b905061219b8160208901356121948a806154f1565b6005613ab7565b604051630aeb2d2360e41b81526001600160a01b0382169063aeb2d230906121c99033908b90600401615740565b6020604051808303816000875af11580156121e8573d6000803e3d6000fd5b505050506040513d601f19601f8201168201806040525081019061220c9190615764565b955085336001600160a01b03167fab868181315a0726750cc674eb8fd78793b34ec9de4e55b2a811172dbe6450ce89604051612248919061577d565b60405180910390a35050505050919050565b6066546000906001600160a01b03166391148b27612276611426565b6040518263ffffffff1660e01b81526004016122929190614417565b602060405180830381865afa1580156122af573d6000803e3d6000fd5b505050506040513d601f19601f820116820180604052508101906122d39190614d79565b90506000816001600160a01b0316635c975abb6040518163ffffffff1660e01b8152600401602060405180830381865afa158015612315573d6000803e3d6000fd5b505050506040513d601f19601f820116820180604052508101906123399190614da6565b905080156123595760405162461bcd60e51b815260040161074090614dc1565b6066546000906001600160a01b03166391148b27612375611426565b6040518263ffffffff1660e01b81526004016123919190614417565b602060405180830381865afa1580156123ae573d6000803e3d6000fd5b505050506040513d601f19601f820116820180604052508101906123d29190614d79565b6040516311afe75f60e11b81523360048201529091506000906001600160a01b0383169063235fcebe90602401602060405180830381865afa15801561241c573d6000803e3d6000fd5b505050506040513d601f19601f820116820180604052508101906124409190614da6565b90508061247d5760405162461bcd60e51b815260206004820152600b60248201526a139bdd08185b1b1bddd95960aa1b6044820152606401610740565b611b0f86866135c4565b6060806060612494611444565b60405191935091506106119083908390602001615790565b6066546000906001600160a01b03166391148b276124c8611426565b6040518263ffffffff1660e01b81526004016124e49190614417565b602060405180830381865afa158015612501573d6000803e3d6000fd5b505050506040513d601f19601f820116820180604052508101906125259190614d79565b90506000816001600160a01b0316635c975abb6040518163ffffffff1660e01b8152600401602060405180830381865afa158015612567573d6000803e3d6000fd5b505050506040513d601f19601f8201168201806040525081019061258b9190614da6565b905080156125ab5760405162461bcd60e51b815260040161074090614dc1565b6066547ff70ccd5004a2a6f964f044c0095454c529799f8602238d52b5a197af351dd419906001600160a01b03166391148b276125e6611426565b6040518263ffffffff1660e01b81526004016126029190614417565b602060405180830381865afa15801561261f573d6000803e3d6000fd5b505050506040513d601f19601f820116820180604052508101906126439190614d79565b604051632474521560e21b8152600481018390523360248201526001600160a01b0391909116906391d1485490604401602060405180830381865afa158015612690573d6000803e3d6000fd5b505050506040513d601f19601f820116820180604052508101906126b49190614da6565b6126d05760405162461bcd60e51b815260040161074090614de6565b60665460408051637394ca7160e11b815290516000926001600160a01b03169163e72994e29160048083019260209291908290030181865afa15801561271a573d6000803e3d6000fd5b505050506040513d601f19601f8201168201806040525081019061273e9190614d79565b604051633ce1055560e11b8152600481018b90529091506000906001600160a01b038316906379c20aaa90602401600060405180830381865afa158015612789573d6000803e3d6000fd5b505050506040513d6000823e601f3d908101601f191682016040526127b191908101906157dd565b90506127c9816020015182606001518b8b8b8b61329a565b6127d881606001516006613350565b50506040516392ad01fd60e01b8152600481018b90526001600160a01b038316906392ad01fd90602401600060405180830381600087803b15801561281c57600080fd5b505af1158015612830573d6000803e3d6000fd5b50506040518c92507f8f7beb6efa236b725c90af1831975edbd62f2792f52fdb645ded13759232085d9150600090a250505050505050505050565b600033816128798286612aed565b9050838110156128d95760405162461bcd60e51b815260206004820152602560248201527f45524332303a2064656372656173656420616c6c6f77616e63652062656c6f77604482015264207a65726f60d81b6064820152608401610740565b6128e68286868403613175565b506001949350505050565b6000826001600160a01b03811661290757600080fd5b306001600160a01b0382160361291c57600080fd5b6066546000906001600160a01b03166391148b27612938611426565b6040518263ffffffff1660e01b81526004016129549190614417565b602060405180830381865afa158015612971573d6000803e3d6000fd5b505050506040513d601f19601f820116820180604052508101906129959190614d79565b90506000816001600160a01b0316635c975abb6040518163ffffffff1660e01b8152600401602060405180830381865afa1580156129d7573d6000803e3d6000fd5b505050506040513d601f19601f820116820180604052508101906129fb9190614da6565b90508015612a1b5760405162461bcd60e51b815260040161074090614dc1565b612a258686613bf9565b5060019695505050505050565b6000612a3e6001613c07565b90508015612a56576000805461ff0019166101001790555b612a608585613c87565b6065839055606680546001600160a01b0319166001600160a01b0384161790558015612ac6576000805461ff0019169055604051600181527f7f26b83ff96e1f2b6a682f133852f6798a09c465da95921460cefb38474024989060200160405180910390a15b5050505050565b600080612ad8610593565b9050612ae360355490565b6113fe9082614f87565b6001600160a01b03918216600090815260346020908152604080832093909416825291909152205490565b60008181612b286012600a614ce2565b905080612b3581846154cf565b612b3f9190614cf1565b8214604051806040016040528060028152602001610d4d60f21b81525090612b7a5760405162461bcd60e51b81526004016107409190614417565b506066546000906001600160a01b03166391148b27612b97611426565b6040518263ffffffff1660e01b8152600401612bb39190614417565b602060405180830381865afa158015612bd0573d6000803e3d6000fd5b505050506040513d601f19601f82011682018060405250810190612bf49190614d79565b90506000816001600160a01b0316635c975abb6040518163ffffffff1660e01b8152600401602060405180830381865afa158015612c36573d6000803e3d6000fd5b505050506040513d601f19601f82011682018060405250810190612c5a9190614da6565b90508015612c7a5760405162461bcd60e51b815260040161074090614dc1565b60665460408051637394ca7160e11b815290516000926001600160a01b03169163e72994e29160048083019260209291908290030181865afa158015612cc4573d6000803e3d6000fd5b505050506040513d601f19601f82011682018060405250810190612ce89190614d79565b9050612cf881888b8b6003613ab7565b60405163c346a8bf60e01b81526001600160a01b0382169063c346a8bf90612d2a9033908b908e908e90600401615964565b6020604051808303816000875af1158015612d49573d6000803e3d6000fd5b505050506040513d601f19601f82011682018060405250810190612d6d9190615764565b955085336001600160a01b03167f64abd27c2f173f29d68e3c4d0922caa80fe66344f802fd6a064cd9ae298db307898c8c604051612dad9392919061598c565b60405180910390a350505050509392505050565b6066546000906001600160a01b03166391148b27612ddd611426565b6040518263ffffffff1660e01b8152600401612df99190614417565b602060405180830381865afa158015612e16573d6000803e3d6000fd5b505050506040513d601f19601f82011682018060405250810190612e3a9190614d79565b90506000816001600160a01b0316635c975abb6040518163ffffffff1660e01b8152600401602060405180830381865afa158015612e7c573d6000803e3d6000fd5b505050506040513d601f19601f82011682018060405250810190612ea09190614da6565b90508015612ec05760405162461bcd60e51b815260040161074090614dc1565b6066547ff70ccd5004a2a6f964f044c0095454c529799f8602238d52b5a197af351dd419906001600160a01b03166391148b27612efb611426565b6040518263ffffffff1660e01b8152600401612f179190614417565b602060405180830381865afa158015612f34573d6000803e3d6000fd5b505050506040513d601f19601f82011682018060405250810190612f589190614d79565b604051632474521560e21b8152600481018390523360248201526001600160a01b0391909116906391d1485490604401602060405180830381865afa158015612fa5573d6000803e3d6000fd5b505050506040513d601f19601f82011682018060405250810190612fc99190614da6565b612fe55760405162461bcd60e51b815260040161074090614de6565b60665460408051637394ca7160e11b815290516000926001600160a01b03169163e72994e29160048083019260209291908290030181865afa15801561302f573d6000803e3d6000fd5b505050506040513d601f19601f820116820180604052508101906130539190614d79565b604051633ce1055560e11b8152600481018790529091506000906001600160a01b038316906379c20aaa90602401600060405180830381865afa15801561309e573d6000803e3d6000fd5b505050506040513d6000823e601f3d908101601f191682016040526130c691908101906157dd565b90506130d781606001516002613350565b50506040516304314a1d60e51b8152600481018790526001600160a01b0383169063862943a090602401600060405180830381600087803b15801561311b57600080fd5b505af115801561312f573d6000803e3d6000fd5b50506040518892507f8baa1509b9f6c83973f788904506386c5b2b93480f289aeafd9f43f9df1c94a89150600090a2505050505050565b6001600160a01b03163b151590565b6001600160a01b0383166131d75760405162461bcd60e51b8152602060048201526024808201527f45524332303a20617070726f76652066726f6d20746865207a65726f206164646044820152637265737360e01b6064820152608401610740565b6001600160a01b0382166132385760405162461bcd60e51b815260206004820152602260248201527f45524332303a20617070726f766520746f20746865207a65726f206164647265604482015261737360f01b6064820152608401610740565b6001600160a01b0383811660008181526034602090815260408083209487168084529482529182902085905590518481527f8c5be1e5ebec7d5bd14f71427d1e84f3dd0314c0f7b2291e5b200ac8c7c3b92591015b60405180910390a3505050565b60665460408051634be4e3dd60e01b815290516000926001600160a01b031691634be4e3dd9160048083019260209291908290030181865afa1580156132e4573d6000803e3d6000fd5b505050506040513d601f19601f820116820180604052508101906133089190614d79565b905060006133168288613d19565b9050600061332389613dda565b90508181101561334557613345838989898989613340888a614f87565b613df2565b505050505050505050565b6000806000606660009054906101000a90046001600160a01b03166001600160a01b0316634be4e3dd6040518163ffffffff1660e01b8152600401602060405180830381865afa1580156133a8573d6000803e3d6000fd5b505050506040513d601f19601f820116820180604052508101906133cc9190614d79565b85519091506000805b828110156134835760008882815181106133f1576133f16159a6565b60200260200101519050613405858261352c565b50935061341490508388615329565b604051633a484efd60e01b81529097506001600160a01b03861690633a484efd906134459084908c906004016159bc565b600060405180830381600087803b15801561345f57600080fd5b505af1158015613473573d6000803e3d6000fd5b50505050816001019150506133d5565b508093505050509250929050565b60665460408051634be4e3dd60e01b815290516000926001600160a01b031691634be4e3dd9160048083019260209291908290030181865afa1580156134db573d6000803e3d6000fd5b505050506040513d601f19601f820116820180604052508101906134ff9190614d79565b6001600160a01b0316826001600160a01b03160361351f57506001919050565b506000919050565b919050565b600080600080600080876001600160a01b031663dff35e83886040518263ffffffff1660e01b815260040161356391815260200190565b606060405180830381865afa158015613580573d6000803e3d6000fd5b505050506040513d601f19601f820116820180604052508101906135a491906159ee565b925092509250826135b483613f0d565b9096509450925050509250925092565b6001600160a01b03821661361a5760405162461bcd60e51b815260206004820152601f60248201527f45524332303a206d696e7420746f20746865207a65726f2061646472657373006044820152606401610740565b806035600082825461362c9190615329565b90915550506001600160a01b03821660009081526033602052604081208054839290613659908490615329565b90915550506040518181526001600160a01b038316906000907fddf252ad1be2c89b69c2b068fc378daa952ba7f163c4a11628f55a4df523b3ef9060200160405180910390a35050565b6000336136b1858285613a43565b6128e6858585613f25565b6066546000906001600160a01b03166391148b276136d8611426565b6040518263ffffffff1660e01b81526004016136f49190614417565b602060405180830381865afa158015613711573d6000803e3d6000fd5b505050506040513d601f19601f820116820180604052508101906137359190614d79565b90506000816001600160a01b0316635c975abb6040518163ffffffff1660e01b8152600401602060405180830381865afa158015613777573d6000803e3d6000fd5b505050506040513d601f19601f8201168201806040525081019061379b9190614da6565b905080156137bb5760405162461bcd60e51b815260040161074090614dc1565b60006137cc338560200151876140f3565b60408051600180825281830190925291925060009190602080830190803683370190505090508181600081518110613806576138066159a6565b60209081029190910181019190915260665460408051631bb5aee760e11b815290516001600160a01b039092169263376b5dce926004808401938290030181865afa158015613859573d6000803e3d6000fd5b505050506040513d601f19601f8201168201806040525081019061387d9190614d79565b6001600160a01b031663cc91e5e98787846040518463ffffffff1660e01b81526004016138ac93929190615a66565b6020604051808303816000875af11580156138cb573d6000803e3d6000fd5b505050506040513d601f19601f820116820180604052508101906138ef9190615764565b50505050505050565b6001600160a01b0382166139585760405162461bcd60e51b815260206004820152602160248201527f45524332303a206275726e2066726f6d20746865207a65726f206164647265736044820152607360f81b6064820152608401610740565b6001600160a01b038216600090815260336020526040902054818110156139cc5760405162461bcd60e51b815260206004820152602260248201527f45524332303a206275726e20616d6f756e7420657863656564732062616c616e604482015261636560f01b6064820152608401610740565b6001600160a01b03831660009081526033602052604081208383039055603580548492906139fb908490614f87565b90915550506040518281526000906001600160a01b038516907fddf252ad1be2c89b69c2b068fc378daa952ba7f163c4a11628f55a4df523b3ef9060200161328d565b505050565b6000613a4f8484612aed565b90506000198114611fa55781811015613aaa5760405162461bcd60e51b815260206004820152601d60248201527f45524332303a20696e73756666696369656e7420616c6c6f77616e63650000006044820152606401610740565b611fa58484848403613175565b604080518082019091526002815261343560f01b602082015284613aee5760405162461bcd60e51b81526004016107409190614417565b50600080613b30858580806020026020016040519081016040528093929190818152602001838360200280828437600092019190915250879250613350915050565b9150915081861115613b6c576040805180820182526002815261343560f01b6020820152905162461bcd60e51b81526107409190600401614417565b85613b778284614f87565b10613bac576040805180820182526002815261343560f01b6020820152905162461bcd60e51b81526107409190600401614417565b613bb68787610627565b604051806040016040528060028152602001611a1b60f11b81525090613bef5760405162461bcd60e51b81526004016107409190614417565b5050505050505050565b600033610635818585613f25565b60008054610100900460ff1615613c46578160ff166001148015613c2a5750303b155b61351f5760405162461bcd60e51b815260040161074090615b7b565b60005460ff808416911610613c6d5760405162461bcd60e51b815260040161074090615b7b565b506000805460ff191660ff92909216919091179055600190565b600054610100900460ff16613cf25760405162461bcd60e51b815260206004820152602b60248201527f496e697469616c697a61626c653a20636f6e7472616374206973206e6f74206960448201526a6e697469616c697a696e6760a81b6064820152608401610740565b8151613d05906036906020850190614326565b508051613a3e906037906020840190614326565b6000805b8251811015613dd3576000846001600160a01b031663dff35e83858481518110613d4957613d496159a6565b60200260200101516040518263ffffffff1660e01b8152600401613d6f91815260200190565b606060405180830381865afa158015613d8c573d6000803e3d6000fd5b505050506040513d601f19601f82011682018060405250810190613db091906159ee565b509150613dbf90508184615329565b92505080613dcc90615bc9565b9050613d1d565b5092915050565b6000613de86012600a614ce2565b61063b90836154cf565b8315801590613e0057508115155b604051806040016040528060028152602001611a9b60f11b81525090613e395760405162461bcd60e51b81526004016107409190614417565b506000876001600160a01b03166312b6bbda8860018a51613e5a9190614f87565b81518110613e6a57613e6a6159a6565b602002602001015188888888886040518763ffffffff1660e01b8152600401613e9896959493929190615be2565b6020604051808303816000875af1158015613eb7573d6000803e3d6000fd5b505050506040513d601f19601f82011682018060405250810190613edb9190615764565b604051633a484efd60e01b81529091506001600160a01b03891690633a484efd90611e559084906002906004016159bc565b6000613f1b6012600a614ce2565b61063b9083614cf1565b6001600160a01b038316613f895760405162461bcd60e51b815260206004820152602560248201527f45524332303a207472616e736665722066726f6d20746865207a65726f206164604482015264647265737360d81b6064820152608401610740565b6001600160a01b038216613feb5760405162461bcd60e51b815260206004820152602360248201527f45524332303a207472616e7366657220746f20746865207a65726f206164647260448201526265737360e81b6064820152608401610740565b6001600160a01b038316600090815260336020526040902054818110156140635760405162461bcd60e51b815260206004820152602660248201527f45524332303a207472616e7366657220616d6f756e7420657863656564732062604482015265616c616e636560d01b6064820152608401610740565b6001600160a01b0380851660009081526033602052604080822085850390559185168152908120805484929061409a908490615329565b92505081905550826001600160a01b0316846001600160a01b03167fddf252ad1be2c89b69c2b068fc378daa952ba7f163c4a11628f55a4df523b3ef846040516140e691815260200190565b60405180910390a3611fa5565b60006140ff84846138f8565b60665460408051631bb5aee760e11b815290516000926001600160a01b03169163376b5dce9160048083019260209291908290030181865afa158015614149573d6000803e3d6000fd5b505050506040513d601f19601f8201168201806040525081019061416d9190614d79565b6065546040516313ef24f760e11b81526001600160a01b038681166004830152602482019290925260448101879052600060648201529192508216906327de49ee906084016020604051808303816000875af11580156141d1573d6000803e3d6000fd5b505050506040513d601f19601f820116820180604052508101906141f59190615764565b604080516001600160a01b0386168152602081018790529081018290529092507fb3775f672e1adf43bf7834b692675bfee4db72f83e42da8cff694ca295a89eca9060600160405180910390a1509392505050565b6040518061018001604052806060815260200160006001600160401b0316815260200160006001600160401b031681526020016000815260200160006001600160401b0316815260200160001515815260200160001515815260200160608152602001606081526020016060815260200160608152602001606081525090565b60405180610140016040528060608152602001606081526020016060815260200160608152602001606081526020016060815260200160608152602001606081526020016060815260200160006001600160a01b031681525090565b82805461433290615c23565b90600052602060002090601f016020900481019282614354576000855561439a565b82601f1061436d57805160ff191683800117855561439a565b8280016001018555821561439a579182015b8281111561439a57825182559160200191906001019061437f565b506143a69291506143aa565b5090565b5b808211156143a657600081556001016143ab565b60005b838110156143da5781810151838201526020016143c2565b83811115611fa55750506000910152565b600081518084526144038160208601602086016143bf565b601f01601f19169290920160200192915050565b6020815260006105e560208301846143eb565b6001600160a01b038116811461443f57600080fd5b50565b80356135278161442a565b6000806040838503121561446057600080fd5b823561446b8161442a565b946020939093013593505050565b60008083601f84011261448b57600080fd5b5081356001600160401b038111156144a257600080fd5b6020830191508360208285010111156144ba57600080fd5b9250929050565b6000806000806000606086880312156144d957600080fd5b8535945060208601356001600160401b03808211156144f757600080fd5b61450389838a01614479565b9096509450604088013591508082111561451c57600080fd5b5061452988828901614479565b969995985093965092949392505050565b60008060008060006080868803121561455257600080fd5b853561455d8161442a565b9450602086013561456d8161442a565b93506040860135925060608601356001600160401b0381111561458f57600080fd5b61452988828901614479565b600061018082518185526145b1828601826143eb565b91505060208301516145ce60208601826001600160401b03169052565b5060408301516145e960408601826001600160401b03169052565b5060608301516060850152608083015161460e60808601826001600160401b03169052565b5060a083015161462260a086018215159052565b5060c083015161463660c086018215159052565b5060e083015184820360e086015261464e82826143eb565b915050610100808401518583038287015261466983826143eb565b92505050610120808401518583038287015261468583826143eb565b9250505061014080840151858303828701526146a183826143eb565b9250505061016080840151858303828701526146bd83826143eb565b9695505050505050565b60408152600083516101408060408501526146e66101808501836143eb565b91506020860151603f198086850301606087015261470484836143eb565b9350604088015191508086850301608087015261472184836143eb565b935060608801519150808685030160a087015261473e84836143eb565b935060808801519150808685030160c087015261475b84836143eb565b935060a08801519150808685030160e087015261477884836143eb565b935060c0880151915061010081878603018188015261479785846143eb565b945060e089015192506101208288870301818901526147b686856143eb565b9550818a015193508288870301858901526147d186856143eb565b9550808a01519450505050506147f36101608501826001600160a01b03169052565b508281036020840152614806818561459b565b95945050505050565b60008060006060848603121561482457600080fd5b833561482f8161442a565b9250602084013561483f8161442a565b929592945050506040919091013590565b6020815260006105e5602083018461459b565b60408152600061487660408301856143eb565b828103602084015261480681856143eb565b6000610140828403121561489b57600080fd5b50919050565b600080604083850312156148b457600080fd5b82356148bf8161442a565b915060208301356001600160401b038111156148da57600080fd5b6148e685828601614888565b9150509250929050565b60006020828403121561490257600080fd5b5035919050565b60006020828403121561491b57600080fd5b81356105e58161442a565b60006020828403121561493857600080fd5b81356001600160401b0381111561494e57600080fd5b61495a84828501614888565b949350505050565b634e487b7160e01b600052604160045260246000fd5b60405160a081016001600160401b038111828210171561499a5761499a614962565b60405290565b60405161018081016001600160401b038111828210171561499a5761499a614962565b60405161014081016001600160401b038111828210171561499a5761499a614962565b6040516101a081016001600160401b038111828210171561499a5761499a614962565b604051601f8201601f191681016001600160401b0381118282101715614a3157614a31614962565b604052919050565b60006001600160401b03821115614a5257614a52614962565b50601f01601f191660200190565b600082601f830112614a7157600080fd5b8135614a84614a7f82614a39565b614a09565b818152846020838601011115614a9957600080fd5b816020850160208301376000918101602001919091529392505050565b60008060008060808587031215614acc57600080fd5b84356001600160401b0380821115614ae357600080fd5b614aef88838901614a60565b95506020870135915080821115614b0557600080fd5b50614b1287828801614a60565b935050604085013591506060850135614b2a8161442a565b939692955090935050565b60008060408385031215614b4857600080fd5b8235614b538161442a565b91506020830135614b638161442a565b809150509250929050565b600080600060408486031215614b8357600080fd5b83356001600160401b0380821115614b9a57600080fd5b818601915086601f830112614bae57600080fd5b813581811115614bbd57600080fd5b8760208260051b8501011115614bd257600080fd5b6020928301989097509590910135949350505050565b634e487b7160e01b600052601160045260246000fd5b600181815b80851115614c39578160001904821115614c1f57614c1f614be8565b80851615614c2c57918102915b93841c9390800290614c03565b509250929050565b600082614c505750600161063b565b81614c5d5750600061063b565b8160018114614c735760028114614c7d57614c99565b600191505061063b565b60ff841115614c8e57614c8e614be8565b50506001821b61063b565b5060208310610133831016604e8410600b8410161715614cbc575081810a61063b565b614cc68383614bfe565b8060001904821115614cda57614cda614be8565b029392505050565b60006105e560ff841683614c41565b6000816000190483118215151615614d0b57614d0b614be8565b500290565b75546f7563616e2050726f746f636f6c3a2054434f322d60501b815260008351614d418160168501602088016143bf565b602d60f81b6016918401918201528351614d628160178401602088016143bf565b01601701949350505050565b80516135278161442a565b600060208284031215614d8b57600080fd5b81516105e58161442a565b8051801515811461352757600080fd5b600060208284031215614db857600080fd5b6105e582614d96565b6020808252600b908201526a2830bab9b2b2102a21a79960a91b604082015260600190565b6020808252600e908201526d496e76616c69642061636365737360901b604082015260600190565b80516003811061352757600080fd5b60006001600160401b03821115614e3657614e36614962565b5060051b60200190565b600082601f830112614e5157600080fd5b81516020614e61614a7f83614e1d565b82815260059290921b84018101918181019086841115614e8057600080fd5b8286015b84811015614e9b5780518352918301918301614e84565b509695505050505050565b600060208284031215614eb857600080fd5b81516001600160401b0380821115614ecf57600080fd5b9083019060a08286031215614ee357600080fd5b614eeb614978565b8251614ef68161442a565b815260208381015190820152614f0e60408401614e0e565b6040820152606083015182811115614f2557600080fd5b614f3187828601614e40565b6060830152506080830151608082015280935050505092915050565b634e487b7160e01b600052602160045260246000fd5b60008060408385031215614f7657600080fd5b505080516020909101519092909150565b600082821015614f9957614f99614be8565b500390565b600082601f830112614faf57600080fd5b8151614fbd614a7f82614a39565b818152846020838601011115614fd257600080fd5b61495a8260208301602087016143bf565b80516001600160401b038116811461352757600080fd5b60006020828403121561500c57600080fd5b81516001600160401b038082111561502357600080fd5b90830190610180828603121561503857600080fd5b6150406149a0565b82518281111561504f57600080fd5b61505b87828601614f9e565b82525061506a60208401614fe3565b602082015261507b60408401614fe3565b60408201526060830151606082015261509660808401614fe3565b60808201526150a760a08401614d96565b60a08201526150b860c08401614d96565b60c082015260e0830151828111156150cf57600080fd5b6150db87828601614f9e565b60e08301525061010080840151838111156150f557600080fd5b61510188828701614f9e565b828401525050610120808401518381111561511b57600080fd5b61512788828701614f9e565b828401525050610140808401518381111561514157600080fd5b61514d88828701614f9e565b828401525050610160808401518381111561516757600080fd5b61517388828701614f9e565b918301919091525095945050505050565b60006020828403121561519657600080fd5b81516001600160401b03808211156151ad57600080fd5b9083019061014082860312156151c257600080fd5b6151ca6149c3565b8251828111156151d957600080fd5b6151e587828601614f9e565b8252506020830151828111156151fa57600080fd5b61520687828601614f9e565b60208301525060408301518281111561521e57600080fd5b61522a87828601614f9e565b60408301525060608301518281111561524257600080fd5b61524e87828601614f9e565b60608301525060808301518281111561526657600080fd5b61527287828601614f9e565b60808301525060a08301518281111561528a57600080fd5b61529687828601614f9e565b60a08301525060c0830151828111156152ae57600080fd5b6152ba87828601614f9e565b60c08301525060e0830151828111156152d257600080fd5b6152de87828601614f9e565b60e08301525061010080840151838111156152f857600080fd5b61530488828701614f9e565b828401525050610120915061531a828401614d6e565b91810191909152949350505050565b6000821982111561533c5761533c614be8565b500190565b600082601f83011261535257600080fd5b81356020615362614a7f83614e1d565b82815260059290921b8401810191818101908684111561538157600080fd5b8286015b84811015614e9b5780358352918301918301615385565b600061014082360312156153af57600080fd5b6153b76149c3565b82356001600160401b03808211156153ce57600080fd5b6153da36838701615341565b83526020850135602084015260408501359150808211156153fa57600080fd5b61540636838701614a60565b604084015261541760608601614442565b6060840152608085013591508082111561543057600080fd5b61543c36838701614a60565b608084015260a085013591508082111561545557600080fd5b61546136838701614a60565b60a084015260c085013591508082111561547a57600080fd5b61548636838701614a60565b60c084015260e085013591508082111561549f57600080fd5b506154ac36828601614a60565b60e083015250610100838101359082015261012092830135928101929092525090565b6000826154ec57634e487b7160e01b600052601260045260246000fd5b500490565b6000808335601e1984360301811261550857600080fd5b8301803591506001600160401b0382111561552257600080fd5b6020019150600581901b36038213156144ba57600080fd5b6000808335601e1984360301811261555157600080fd5b83016020810192503590506001600160401b0381111561557057600080fd5b8060051b36038213156144ba57600080fd5b81835260006001600160fb1b0383111561559b57600080fd5b8260051b8083602087013760009401602001938452509192915050565b6000808335601e198436030181126155cf57600080fd5b83016020810192503590506001600160401b038111156155ee57600080fd5b8036038213156144ba57600080fd5b81835281816020850137506000828201602090810191909152601f909101601f19169091010190565b6000610140615635838461553a565b8286526156458387018284615582565b925050506020830135602085015261566060408401846155b8565b85830360408701526156738382846155fd565b9250505061568360608401614442565b6001600160a01b0316606085015261569e60808401846155b8565b85830360808701526156b18382846155fd565b925050506156c260a08401846155b8565b85830360a08701526156d58382846155fd565b925050506156e660c08401846155b8565b85830360c08701526156f98382846155fd565b9250505061570a60e08401846155b8565b85830360e087015261571d8382846155fd565b610100868101359088015261012095860135959096019490945250929392505050565b6001600160a01b038316815260406020820181905260009061495a90830184615626565b60006020828403121561577657600080fd5b5051919050565b6020815260006105e56020830184615626565b6454434f322d60d81b8152600083516157b08160058501602088016143bf565b602d60f81b60059184019182015283516157d18160068401602088016143bf565b01600601949350505050565b6000602082840312156157ef57600080fd5b81516001600160401b038082111561580657600080fd5b908301906101a0828603121561581b57600080fd5b6158236149e6565b61582c83614d6e565b81526020830151602082015261584460408401614e0e565b604082015260608301518281111561585b57600080fd5b61586787828601614e40565b60608301525060808301518281111561587f57600080fd5b61588b87828601614f9e565b60808301525061589d60a08401614d6e565b60a082015260c0830151828111156158b457600080fd5b6158c087828601614f9e565b60c08301525060e0830151828111156158d857600080fd5b6158e487828601614f9e565b60e08301525061010080840151838111156158fe57600080fd5b61590a88828701614f9e565b828401525050610120808401518381111561592457600080fd5b61593088828701614f9e565b9183019190915250610140838101519082015261016080840151908201526101809283015192810192909252509392505050565b60018060a01b03851681528360208201526060604082015260006146bd606083018486615582565b838152604060208201526000614806604083018486615582565b634e487b7160e01b600052603260045260246000fd5b82815260408101600783106159e157634e487b7160e01b600052602160045260246000fd5b8260208301529392505050565b600080600060608486031215615a0357600080fd5b8351925060208401519150604084015160078110615a2057600080fd5b809150509250925092565b600081518084526020808501945080840160005b83811015615a5b57815187529582019590820190600101615a3f565b509495945050505050565b60018060a01b03841681526060602082015260008351610140806060850152615a936101a0850183615a2b565b9150602086015160808501526040860151605f19808685030160a0870152615abb84836143eb565b935060608801519150615ad960c08701836001600160a01b03169052565b60808801519150808685030160e0870152615af484836143eb565b935060a08801519150610100818786030181880152615b1385846143eb565b945060c08901519250610120828887030181890152615b3286856143eb565b955060e08a01519350828887030185890152615b4e86856143eb565b9550818a0151610160890152808a0151610180890152505050505082810360408401526146bd8185615a2b565b6020808252602e908201527f496e697469616c697a61626c653a20636f6e747261637420697320616c72656160408201526d191e481a5b9a5d1a585b1a5e995960921b606082015260800190565b600060018201615bdb57615bdb614be8565b5060010190565b868152608060208201526000615bfc6080830187896155fd565b8281036040840152615c0f8186886155fd565b915050826060830152979650505050505050565b600181811c90821680615c3757607f821691505b60208210810361489b57634e487b7160e01b600052602260045260246000fdfea2646970667358221220cba017d1224d419c2525637a22096e1acec12fd7f6fd0ada1e9e071b29bbc2e264736f6c634300080e0033496e697469616c697a61626c653a20636f6e747261637420697320616c726561",
  "devdoc": {
    "kind": "dev",
    "methods": {
      "allowance(address,address)": {
        "details": "See {IERC20-allowance}."
      },
      "approve(address,uint256)": {
        "details": "See {IERC20-approve}. NOTE: If `amount` is the maximum `uint256`, the allowance is not updated on `transferFrom`. This is semantically equivalent to an infinite approval. Requirements: - `spender` cannot be the zero address."
      },
      "balanceOf(address)": {
        "details": "See {IERC20-balanceOf}."
      },
      "bridgeBurn(address,uint256)": {
        "params": {
          "account": "The user for whom to burn TCO2",
          "amount": "The amount to burn."
        }
      },
      "bridgeMint(address,uint256)": {
        "params": {
          "account": "The user for whom to mint TCO2",
          "amount": "The amount to mint."
        }
      },
      "burnFrom(address,uint256)": {
        "params": {
          "account": "The user for whom to burn TCO2",
          "amount": "The amount to burn"
        }
      },
      "decimals()": {
        "details": "Returns the number of decimals used to get its user representation. For example, if `decimals` equals `2`, a balance of `505` tokens should be displayed to a user as `5.05` (`505 / 10 ** 2`). Tokens usually opt for a value of 18, imitating the relationship between Ether and Wei. This is the value {ERC20} uses, unless this function is overridden; NOTE: This information is only used for _display_ purposes: it in no way affects any of the arithmetic of the contract, including {IERC20-balanceOf} and {IERC20-transfer}."
      },
      "decreaseAllowance(address,uint256)": {
        "details": "Atomically decreases the allowance granted to `spender` by the caller. This is an alternative to {approve} that can be used as a mitigation for problems described in {IERC20-approve}. Emits an {Approval} event indicating the updated allowance. Requirements: - `spender` cannot be the zero address. - `spender` must have allowance for the caller of at least `subtractedValue`."
      },
      "defractionalize(uint256)": {
        "params": {
          "tokenId": "The batch NFT to defractionalize from the TCO2"
        }
      },
      "finalizeDetokenization(uint256,string,string)": {
        "details": "Callable only by a detokenizer.",
        "params": {
          "requestId": "The id of the request to finalize.",
          "splitBalancingSerialNumber": "The serial number of the new batch that balances the total amount to be the amount requested. This batch will be detokenized with the rest of the batches. Ignored if no splitting is required.",
          "splitRemainingSerialNumber": "The serial number of the new batch with the remaining amount. This batch will not be detokenized and will be in Confirmed status. Ignored if no splitting is required."
        }
      },
      "finalizeRetirement(uint256,string,string)": {
        "details": "Callable only by a retirement approver.",
        "params": {
          "requestId": "The ID of the request to finalize.",
          "splitBalancingSerialNumber": "The serial number of the new batch that balances the total amount to be the amount requested. This batch will be retired with the rest of the batches. Ignored if no splitting is required.",
          "splitRemainingSerialNumber": "The serial number of the new batch with the remaining amount. This batch will not be retired and will be in Confirmed status. Ignored if no splitting is required."
        }
      },
      "getAttributes()": {
        "details": "Function to get corresponding attributes from the CarbonProjects"
      },
      "getDepositCap()": {
        "details": "Returns the cap for TCO2s based on `totalVintageQuantity` Returns `~unlimited` if the value for the vintage is not set"
      },
      "getGlobalProjectVintageIdentifiers()": {
        "details": "Helper function to retrieve data fragments for `name()` and `symbol()`"
      },
      "getRemaining()": {
        "details": "Returns the remaining space in TCO2 contract before hitting the cap"
      },
      "increaseAllowance(address,uint256)": {
        "details": "Atomically increases the allowance granted to `spender` by the caller. This is an alternative to {approve} that can be used as a mitigation for problems described in {IERC20-approve}. Emits an {Approval} event indicating the updated allowance. Requirements: - `spender` cannot be the zero address."
      },
      "onERC721Received(address,address,uint256,bytes)": {
        "details": "Function is called with `operator` as `msg.sender` in a reference implementation by OZ `from` is the previous owner, not necessarily the same as operator. The hook checks if NFT collection is whitelisted and next if attributes are matching this ERC20 contract"
      },
      "requestDetokenization(uint256[],uint256)": {
        "details": "This function is permissionless and can be called by anyone",
        "params": {
          "amount": "The amount of TCO2 to detokenize, must be greater than zero and equal to or smaller than the total amount of the batches (and also greater then the total amount of all the batches except the last one)",
          "tokenIds": "Token IDs of one or more batches to detokenize"
        },
        "returns": {
          "requestId": "The ID of the request in the escrow contract"
        }
      },
      "requestRetirement((uint256[],uint256,string,address,string,string,string,string,uint256,uint256))": {
        "details": "This function is permissionless and can be called by anyone",
        "params": {
          "params": "The parameters of the retirement request:     uint256[] tokenIds One or more batches to retire     uint256 amount The amount of TCO2 to retire, must be greater than zero and equal to or smaller than the total amount of the batches (and also greater then the total amount of all the batches except the last one)     string retiringEntityString The name of the retiring entity     address beneficiary The address of the beneficiary of the retirement     string beneficiaryString The name of the beneficiary of the retirement     string retirementMessage A message to be included in the retirement certificate     string beneficiaryLocation The location of the beneficiary of the retirement     string consumptionCountryCode The country code of the consumption location     uint256 consumptionPeriodStart The start of the consumption period, in seconds since the epoch     uint256 consumptionPeriodEnd The end of the consumption period, in seconds since the epoch"
        },
        "returns": {
          "requestId": "The ID of the request in the escrow contract"
        }
      },
      "revertDetokenization(uint256)": {
        "params": {
          "requestId": "The request id in the escrow contract that tracks the detokenization request"
        }
      },
      "revertRetirement(uint256)": {
        "params": {
          "requestId": "The request id in the escrow contract that tracks the retirement request"
        }
      },
      "standardRegistry()": {
        "details": "this must be overridden in the child contract"
      },
      "standardRegistryDecimals()": {
        "details": "this must be overridden in the child contract"
      },
      "totalSupply()": {
        "details": "See {IERC20-totalSupply}."
      }
    },
    "stateVariables": {
      "VERSION": {
        "details": "Version-related parameters. VERSION keeps track of production releases. VERSION_RELEASE_CANDIDATE keeps track of iterations of a VERSION in our staging environment."
      }
    },
    "version": 1
  },
  "userdoc": {
    "kind": "user",
    "methods": {
      "bridgeBurn(address,uint256)": {
        "notice": "Burn TCO2 on behalf of a user. msg.sender does not require approval by the account for the burn to be successfull. This function is exposed so it can be utilized in cross-chain transfers of TCO2 where we want to burn the TCO2 in the source chain but not retire it."
      },
      "bridgeMint(address,uint256)": {
        "notice": "Mint TCO2 on behalf of a user. This function is exposed to be called by authorized message bridge systems and utilized for cross-chain transfers of TCO2 where we want to mint the TCO2 in the source chain."
      },
      "burnFrom(address,uint256)": {
        "notice": "Burn TCO2 on behalf of a user. msg.sender needs to be approved by the account for the burn to be successfull. This function is exposed so it can be utilized to burn credits without retiring them (eg. dispose HFC-23)."
      },
      "defractionalize(uint256)": {
        "notice": "Defractionalize batch NFT by burning the amount of TCO2 from the sender and transfer the batch NFT that was selected to the sender. The only valid sender currently is the TCO2 factory owner."
      },
      "finalizeDetokenization(uint256,string,string)": {
        "notice": "Finalize a detokenization request by burning its amount of TCO2. In case the amount requested is smaller than the total amount of TCO2 in the batches, the last batch is split into two new batches, one that balances the total to be the amount requested and the other with the remaining amount."
      },
      "finalizeRetirement(uint256,string,string)": {
        "notice": "Finalize a retirement request by burning its amount of TCO2 and minting a certificate for the beneficiary. In case the amount requested is smaller than the total amount of TCO2 in the batches, the last batch is split into two new batches, one that balances the total to be the amount requested and the other with the remaining amount."
      },
      "name()": {
        "notice": "Token name getter overriden to return the a name based on the carbon project data"
      },
      "onERC721Received(address,address,uint256,bytes)": {
        "notice": "Receive hook to fractionalize Batch-NFTs into ERC20's"
      },
      "requestDetokenization(uint256[],uint256)": {
        "notice": "Request a detokenization of batch-NFTs. The amount of TCO2 to detokenize will be transferred from the user to an escrow contract."
      },
      "requestRetirement((uint256[],uint256,string,address,string,string,string,string,uint256,uint256))": {
        "notice": "Request a retirement of TCO2s from batch-NFTs. The amount of TCO2s to retire will be transferred from the user to an escrow contract."
      },
      "revertDetokenization(uint256)": {
        "notice": "Revert a detokenization request"
      },
      "revertRetirement(uint256)": {
        "notice": "Revert a retirement request"
      },
      "standardRegistry()": {
        "notice": "Return the name of the registry that this factory is enabling to tokenize, eg., verra"
      },
      "standardRegistryDecimals()": {
        "notice": "Return the minimum precision supported by the registry"
      },
      "symbol()": {
        "notice": "Token symbol getter overriden to return the a symbol based on the carbon project data"
      }
    },
    "notice": "The PuroToucanCarbonOffsets contract is a specific implementation for Puro's logic.",
    "version": 1
  },
  "storageLayout": {
    "storage": [
      {
        "astId": 2390,
        "contract": "contracts/PuroToucanCarbonOffsets.sol:PuroToucanCarbonOffsets",
        "label": "_initialized",
        "offset": 0,
        "slot": "0",
        "type": "t_uint8"
      },
      {
        "astId": 2393,
        "contract": "contracts/PuroToucanCarbonOffsets.sol:PuroToucanCarbonOffsets",
        "label": "_initializing",
        "offset": 1,
        "slot": "0",
        "type": "t_bool"
      },
      {
        "astId": 5494,
        "contract": "contracts/PuroToucanCarbonOffsets.sol:PuroToucanCarbonOffsets",
        "label": "__gap",
        "offset": 0,
        "slot": "1",
        "type": "t_array(t_uint256)50_storage"
      },
      {
        "astId": 2850,
        "contract": "contracts/PuroToucanCarbonOffsets.sol:PuroToucanCarbonOffsets",
        "label": "_balances",
        "offset": 0,
        "slot": "51",
        "type": "t_mapping(t_address,t_uint256)"
      },
      {
        "astId": 2856,
        "contract": "contracts/PuroToucanCarbonOffsets.sol:PuroToucanCarbonOffsets",
        "label": "_allowances",
        "offset": 0,
        "slot": "52",
        "type": "t_mapping(t_address,t_mapping(t_address,t_uint256))"
      },
      {
        "astId": 2858,
        "contract": "contracts/PuroToucanCarbonOffsets.sol:PuroToucanCarbonOffsets",
        "label": "_totalSupply",
        "offset": 0,
        "slot": "53",
        "type": "t_uint256"
      },
      {
        "astId": 2860,
        "contract": "contracts/PuroToucanCarbonOffsets.sol:PuroToucanCarbonOffsets",
        "label": "_name",
        "offset": 0,
        "slot": "54",
        "type": "t_string_storage"
      },
      {
        "astId": 2862,
        "contract": "contracts/PuroToucanCarbonOffsets.sol:PuroToucanCarbonOffsets",
        "label": "_symbol",
        "offset": 0,
        "slot": "55",
        "type": "t_string_storage"
      },
      {
        "astId": 3441,
        "contract": "contracts/PuroToucanCarbonOffsets.sol:PuroToucanCarbonOffsets",
        "label": "__gap",
        "offset": 0,
        "slot": "56",
        "type": "t_array(t_uint256)45_storage"
      },
      {
        "astId": 14486,
        "contract": "contracts/PuroToucanCarbonOffsets.sol:PuroToucanCarbonOffsets",
        "label": "_projectVintageTokenId",
        "offset": 0,
        "slot": "101",
        "type": "t_uint256"
      },
      {
        "astId": 14488,
        "contract": "contracts/PuroToucanCarbonOffsets.sol:PuroToucanCarbonOffsets",
        "label": "contractRegistry",
        "offset": 0,
        "slot": "102",
        "type": "t_address"
      },
      {
        "astId": 14492,
        "contract": "contracts/PuroToucanCarbonOffsets.sol:PuroToucanCarbonOffsets",
        "label": "minterToId",
        "offset": 0,
        "slot": "103",
        "type": "t_mapping(t_address,t_uint256)"
      },
      {
        "astId": 14497,
        "contract": "contracts/PuroToucanCarbonOffsets.sol:PuroToucanCarbonOffsets",
        "label": "retiredAmount",
        "offset": 0,
        "slot": "104",
        "type": "t_mapping(t_address,t_uint256)"
      }
    ],
    "types": {
      "t_address": {
        "encoding": "inplace",
        "label": "address",
        "numberOfBytes": "20"
      },
      "t_array(t_uint256)45_storage": {
        "base": "t_uint256",
        "encoding": "inplace",
        "label": "uint256[45]",
        "numberOfBytes": "1440"
      },
      "t_array(t_uint256)50_storage": {
        "base": "t_uint256",
        "encoding": "inplace",
        "label": "uint256[50]",
        "numberOfBytes": "1600"
      },
      "t_bool": {
        "encoding": "inplace",
        "label": "bool",
        "numberOfBytes": "1"
      },
      "t_mapping(t_address,t_mapping(t_address,t_uint256))": {
        "encoding": "mapping",
        "key": "t_address",
        "label": "mapping(address => mapping(address => uint256))",
        "numberOfBytes": "32",
        "value": "t_mapping(t_address,t_uint256)"
      },
      "t_mapping(t_address,t_uint256)": {
        "encoding": "mapping",
        "key": "t_address",
        "label": "mapping(address => uint256)",
        "numberOfBytes": "32",
        "value": "t_uint256"
      },
      "t_string_storage": {
        "encoding": "bytes",
        "label": "string",
        "numberOfBytes": "32"
      },
      "t_uint256": {
        "encoding": "inplace",
        "label": "uint256",
        "numberOfBytes": "32"
      },
      "t_uint8": {
        "encoding": "inplace",
        "label": "uint8",
        "numberOfBytes": "1"
      }
    }
  }
}