{
  "address": "0xd4DE140b1064A40a00cD756Ab812181e7e14DA04",
  "abi": [
    {
      "inputs": [],
      "stateMutability": "nonpayable",
      "type": "constructor"
    },
    {
      "anonymous": false,
      "inputs": [
        {
          "indexed": false,
          "internalType": "address",
          "name": "previousAdmin",
          "type": "address"
        },
        {
          "indexed": false,
          "internalType": "address",
          "name": "newAdmin",
          "type": "address"
        }
      ],
      "name": "AdminChanged",
      "type": "event"
    },
    {
      "anonymous": false,
      "inputs": [
        {
          "indexed": true,
          "internalType": "address",
          "name": "owner",
          "type": "address"
        },
        {
          "indexed": true,
          "internalType": "address",
          "name": "approved",
          "type": "address"
        },
        {
          "indexed": true,
          "internalType": "uint256",
          "name": "tokenId",
          "type": "uint256"
        }
      ],
      "name": "Approval",
      "type": "event"
    },
    {
      "anonymous": false,
      "inputs": [
        {
          "indexed": true,
          "internalType": "address",
          "name": "owner",
          "type": "address"
        },
        {
          "indexed": true,
          "internalType": "address",
          "name": "operator",
          "type": "address"
        },
        {
          "indexed": false,
          "internalType": "bool",
          "name": "approved",
          "type": "bool"
        }
      ],
      "name": "ApprovalForAll",
      "type": "event"
    },
    {
      "anonymous": false,
      "inputs": [
        {
          "indexed": false,
          "internalType": "string",
          "name": "baseURI",
          "type": "string"
        }
      ],
      "name": "BaseURISet",
      "type": "event"
    },
    {
      "anonymous": false,
      "inputs": [
        {
          "indexed": true,
          "internalType": "address",
          "name": "beacon",
          "type": "address"
        }
      ],
      "name": "BeaconUpgraded",
      "type": "event"
    },
    {
      "anonymous": false,
      "inputs": [
        {
          "indexed": false,
          "internalType": "uint256",
          "name": "tokenId",
          "type": "uint256"
        }
      ],
      "name": "CertificateMinted",
      "type": "event"
    },
    {
      "anonymous": false,
      "inputs": [
        {
          "indexed": false,
          "internalType": "uint256",
          "name": "tokenId",
          "type": "uint256"
        }
      ],
      "name": "CertificateUpdated",
      "type": "event"
    },
    {
      "anonymous": false,
      "inputs": [
        {
          "indexed": false,
          "internalType": "uint256",
          "name": "tokenId",
          "type": "uint256"
        },
        {
          "indexed": false,
          "internalType": "uint256[]",
          "name": "eventIds",
          "type": "uint256[]"
        }
      ],
      "name": "EventsAttached",
      "type": "event"
    },
    {
      "anonymous": false,
      "inputs": [
        {
          "indexed": false,
          "internalType": "uint8",
          "name": "version",
          "type": "uint8"
        }
      ],
      "name": "Initialized",
      "type": "event"
    },
    {
      "anonymous": false,
      "inputs": [
        {
          "indexed": false,
          "internalType": "uint256",
          "name": "previousAmount",
          "type": "uint256"
        },
        {
          "indexed": false,
          "internalType": "uint256",
          "name": "newAmount",
          "type": "uint256"
        }
      ],
      "name": "MinValidAmountSet",
      "type": "event"
    },
    {
      "anonymous": false,
      "inputs": [
        {
          "indexed": true,
          "internalType": "address",
          "name": "previousOwner",
          "type": "address"
        },
        {
          "indexed": true,
          "internalType": "address",
          "name": "newOwner",
          "type": "address"
        }
      ],
      "name": "OwnershipTransferred",
      "type": "event"
    },
    {
      "anonymous": false,
      "inputs": [
        {
          "indexed": false,
          "internalType": "address",
          "name": "ContractRegistry",
          "type": "address"
        }
      ],
      "name": "ToucanRegistrySet",
      "type": "event"
    },
    {
      "anonymous": false,
      "inputs": [
        {
          "indexed": true,
          "internalType": "address",
          "name": "from",
          "type": "address"
        },
        {
          "indexed": true,
          "internalType": "address",
          "name": "to",
          "type": "address"
        },
        {
          "indexed": true,
          "internalType": "uint256",
          "name": "tokenId",
          "type": "uint256"
        }
      ],
      "name": "Transfer",
      "type": "event"
    },
    {
      "anonymous": false,
      "inputs": [
        {
          "indexed": true,
          "internalType": "address",
          "name": "implementation",
          "type": "address"
        }
      ],
      "name": "Upgraded",
      "type": "event"
    },
    {
      "inputs": [],
      "name": "VERSION",
      "outputs": [
        {
          "internalType": "string",
          "name": "",
          "type": "string"
        }
      ],
      "stateMutability": "view",
      "type": "function"
    },
    {
      "inputs": [],
      "name": "VERSION_RELEASE_CANDIDATE",
      "outputs": [
        {
          "internalType": "uint256",
          "name": "",
          "type": "uint256"
        }
      ],
      "stateMutability": "view",
      "type": "function"
    },
    {
      "inputs": [
        {
          "internalType": "address",
          "name": "to",
          "type": "address"
        },
        {
          "internalType": "uint256",
          "name": "tokenId",
          "type": "uint256"
        }
      ],
      "name": "approve",
      "outputs": [],
      "stateMutability": "nonpayable",
      "type": "function"
    },
    {
      "inputs": [
        {
          "internalType": "uint256",
          "name": "tokenId",
          "type": "uint256"
        },
        {
          "internalType": "uint256[]",
          "name": "retirementEventIds",
          "type": "uint256[]"
        }
      ],
      "name": "attachRetirementEvents",
      "outputs": [],
      "stateMutability": "nonpayable",
      "type": "function"
    },
    {
      "inputs": [
        {
          "internalType": "address",
          "name": "owner",
          "type": "address"
        }
      ],
      "name": "balanceOf",
      "outputs": [
        {
          "internalType": "uint256",
          "name": "",
          "type": "uint256"
        }
      ],
      "stateMutability": "view",
      "type": "function"
    },
    {
      "inputs": [],
      "name": "baseURI",
      "outputs": [
        {
          "internalType": "string",
          "name": "",
          "type": "string"
        }
      ],
      "stateMutability": "view",
      "type": "function"
    },
    {
      "inputs": [
        {
          "internalType": "uint256",
          "name": "",
          "type": "uint256"
        }
      ],
      "name": "certificates",
      "outputs": [
        {
          "internalType": "uint256",
          "name": "createdAt",
          "type": "uint256"
        },
        {
          "internalType": "address",
          "name": "retiringEntity",
          "type": "address"
        },
        {
          "internalType": "address",
          "name": "beneficiary",
          "type": "address"
        },
        {
          "internalType": "string",
          "name": "retiringEntityString",
          "type": "string"
        },
        {
          "internalType": "string",
          "name": "beneficiaryString",
          "type": "string"
        },
        {
          "internalType": "string",
          "name": "retirementMessage",
          "type": "string"
        }
      ],
      "stateMutability": "view",
      "type": "function"
    },
    {
      "inputs": [
        {
          "internalType": "uint256",
          "name": "",
          "type": "uint256"
        }
      ],
      "name": "claimedEvents",
      "outputs": [
        {
          "internalType": "bool",
          "name": "",
          "type": "bool"
        }
      ],
      "stateMutability": "view",
      "type": "function"
    },
    {
      "inputs": [],
      "name": "contractRegistry",
      "outputs": [
        {
          "internalType": "address",
          "name": "",
          "type": "address"
        }
      ],
      "stateMutability": "view",
      "type": "function"
    },
    {
      "inputs": [
        {
          "internalType": "uint256",
          "name": "tokenId",
          "type": "uint256"
        }
      ],
      "name": "getApproved",
      "outputs": [
        {
          "internalType": "address",
          "name": "",
          "type": "address"
        }
      ],
      "stateMutability": "view",
      "type": "function"
    },
    {
      "inputs": [
        {
          "internalType": "uint256",
          "name": "tokenId",
          "type": "uint256"
        }
      ],
      "name": "getData",
      "outputs": [
        {
          "components": [
            {
              "internalType": "uint256[]",
              "name": "retirementEventIds",
              "type": "uint256[]"
            },
            {
              "internalType": "uint256",
              "name": "createdAt",
              "type": "uint256"
            },
            {
              "internalType": "address",
              "name": "retiringEntity",
              "type": "address"
            },
            {
              "internalType": "address",
              "name": "beneficiary",
              "type": "address"
            },
            {
              "internalType": "string",
              "name": "retiringEntityString",
              "type": "string"
            },
            {
              "internalType": "string",
              "name": "beneficiaryString",
              "type": "string"
            },
            {
              "internalType": "string",
              "name": "retirementMessage",
              "type": "string"
            }
          ],
          "internalType": "struct RetirementCertificatesStorageV1.Data",
          "name": "",
          "type": "tuple"
        }
      ],
      "stateMutability": "view",
      "type": "function"
    },
    {
      "inputs": [
        {
          "internalType": "uint256",
          "name": "tokenId",
          "type": "uint256"
        }
      ],
      "name": "getRetiredAmount",
      "outputs": [
        {
          "internalType": "uint256",
          "name": "amount",
          "type": "uint256"
        }
      ],
      "stateMutability": "view",
      "type": "function"
    },
    {
      "inputs": [
        {
          "internalType": "uint256",
          "name": "tokenId",
          "type": "uint256"
        }
      ],
      "name": "getRetiredAmountInKilos",
      "outputs": [
        {
          "internalType": "uint256",
          "name": "",
          "type": "uint256"
        }
      ],
      "stateMutability": "view",
      "type": "function"
    },
    {
      "inputs": [
        {
          "internalType": "uint256",
          "name": "tokenId",
          "type": "uint256"
        }
      ],
      "name": "getRetiredAmountInTonnes",
      "outputs": [
        {
          "internalType": "uint256",
          "name": "",
          "type": "uint256"
        }
      ],
      "stateMutability": "view",
      "type": "function"
    },
    {
      "inputs": [
        {
          "internalType": "address",
          "name": "user",
          "type": "address"
        }
      ],
      "name": "getUserEvents",
      "outputs": [
        {
          "internalType": "uint256[]",
          "name": "",
          "type": "uint256[]"
        }
      ],
      "stateMutability": "view",
      "type": "function"
    },
    {
      "inputs": [
        {
          "internalType": "address",
          "name": "_contractRegistry",
          "type": "address"
        },
        {
          "internalType": "string",
          "name": "_baseURI",
          "type": "string"
        }
      ],
      "name": "initialize",
      "outputs": [],
      "stateMutability": "nonpayable",
      "type": "function"
    },
    {
      "inputs": [
        {
          "internalType": "address",
          "name": "owner",
          "type": "address"
        },
        {
          "internalType": "address",
          "name": "operator",
          "type": "address"
        }
      ],
      "name": "isApprovedForAll",
      "outputs": [
        {
          "internalType": "bool",
          "name": "",
          "type": "bool"
        }
      ],
      "stateMutability": "view",
      "type": "function"
    },
    {
      "inputs": [],
      "name": "kiloDenomination",
      "outputs": [
        {
          "internalType": "uint256",
          "name": "",
          "type": "uint256"
        }
      ],
      "stateMutability": "view",
      "type": "function"
    },
    {
      "inputs": [],
      "name": "minValidRetirementAmount",
      "outputs": [
        {
          "internalType": "uint256",
          "name": "",
          "type": "uint256"
        }
      ],
      "stateMutability": "view",
      "type": "function"
    },
    {
      "inputs": [
        {
          "internalType": "address",
          "name": "retiringEntity",
          "type": "address"
        },
        {
          "internalType": "string",
          "name": "retiringEntityString",
          "type": "string"
        },
        {
          "internalType": "address",
          "name": "beneficiary",
          "type": "address"
        },
        {
          "internalType": "string",
          "name": "beneficiaryString",
          "type": "string"
        },
        {
          "internalType": "string",
          "name": "retirementMessage",
          "type": "string"
        },
        {
          "internalType": "uint256[]",
          "name": "retirementEventIds",
          "type": "uint256[]"
        }
      ],
      "name": "mintCertificate",
      "outputs": [
        {
          "internalType": "uint256",
          "name": "",
          "type": "uint256"
        }
      ],
      "stateMutability": "nonpayable",
      "type": "function"
    },
    {
      "inputs": [],
      "name": "name",
      "outputs": [
        {
          "internalType": "string",
          "name": "",
          "type": "string"
        }
      ],
      "stateMutability": "view",
      "type": "function"
    },
    {
      "inputs": [],
      "name": "owner",
      "outputs": [
        {
          "internalType": "address",
          "name": "",
          "type": "address"
        }
      ],
      "stateMutability": "view",
      "type": "function"
    },
    {
      "inputs": [
        {
          "internalType": "uint256",
          "name": "tokenId",
          "type": "uint256"
        }
      ],
      "name": "ownerOf",
      "outputs": [
        {
          "internalType": "address",
          "name": "",
          "type": "address"
        }
      ],
      "stateMutability": "view",
      "type": "function"
    },
    {
      "inputs": [],
      "name": "proxiableUUID",
      "outputs": [
        {
          "internalType": "bytes32",
          "name": "",
          "type": "bytes32"
        }
      ],
      "stateMutability": "view",
      "type": "function"
    },
    {
      "inputs": [
        {
          "internalType": "address",
          "name": "retiringEntity",
          "type": "address"
        },
        {
          "internalType": "uint256",
          "name": "projectVintageTokenId",
          "type": "uint256"
        },
        {
          "internalType": "uint256",
          "name": "amount",
          "type": "uint256"
        },
        {
          "internalType": "bool",
          "name": "isLegacy",
          "type": "bool"
        }
      ],
      "name": "registerEvent",
      "outputs": [
        {
          "internalType": "uint256",
          "name": "",
          "type": "uint256"
        }
      ],
      "stateMutability": "nonpayable",
      "type": "function"
    },
    {
      "inputs": [],
      "name": "renounceOwnership",
      "outputs": [],
      "stateMutability": "nonpayable",
      "type": "function"
    },
    {
      "inputs": [],
      "name": "retireEventCounter",
      "outputs": [
        {
          "internalType": "uint256",
          "name": "",
          "type": "uint256"
        }
      ],
      "stateMutability": "view",
      "type": "function"
    },
    {
      "inputs": [
        {
          "internalType": "uint256",
          "name": "",
          "type": "uint256"
        }
      ],
      "name": "retirements",
      "outputs": [
        {
          "internalType": "uint256",
          "name": "createdAt",
          "type": "uint256"
        },
        {
          "internalType": "address",
          "name": "retiringEntity",
          "type": "address"
        },
        {
          "internalType": "uint256",
          "name": "amount",
          "type": "uint256"
        },
        {
          "internalType": "uint256",
          "name": "projectVintageTokenId",
          "type": "uint256"
        }
      ],
      "stateMutability": "view",
      "type": "function"
    },
    {
      "inputs": [
        {
          "internalType": "address",
          "name": "from",
          "type": "address"
        },
        {
          "internalType": "address",
          "name": "to",
          "type": "address"
        },
        {
          "internalType": "uint256",
          "name": "tokenId",
          "type": "uint256"
        }
      ],
      "name": "safeTransferFrom",
      "outputs": [],
      "stateMutability": "nonpayable",
      "type": "function"
    },
    {
      "inputs": [
        {
          "internalType": "address",
          "name": "from",
          "type": "address"
        },
        {
          "internalType": "address",
          "name": "to",
          "type": "address"
        },
        {
          "internalType": "uint256",
          "name": "tokenId",
          "type": "uint256"
        },
        {
          "internalType": "bytes",
          "name": "_data",
          "type": "bytes"
        }
      ],
      "name": "safeTransferFrom",
      "outputs": [],
      "stateMutability": "nonpayable",
      "type": "function"
    },
    {
      "inputs": [
        {
          "internalType": "address",
          "name": "operator",
          "type": "address"
        },
        {
          "internalType": "bool",
          "name": "approved",
          "type": "bool"
        }
      ],
      "name": "setApprovalForAll",
      "outputs": [],
      "stateMutability": "nonpayable",
      "type": "function"
    },
    {
      "inputs": [
        {
          "internalType": "string",
          "name": "baseURI_",
          "type": "string"
        }
      ],
      "name": "setBaseURI",
      "outputs": [],
      "stateMutability": "nonpayable",
      "type": "function"
    },
    {
      "inputs": [
        {
          "internalType": "uint256",
          "name": "amount",
          "type": "uint256"
        }
      ],
      "name": "setMinValidRetirementAmount",
      "outputs": [],
      "stateMutability": "nonpayable",
      "type": "function"
    },
    {
      "inputs": [
        {
          "internalType": "address",
          "name": "_address",
          "type": "address"
        }
      ],
      "name": "setToucanContractRegistry",
      "outputs": [],
      "stateMutability": "nonpayable",
      "type": "function"
    },
    {
      "inputs": [
        {
          "internalType": "bytes4",
          "name": "interfaceId",
          "type": "bytes4"
        }
      ],
      "name": "supportsInterface",
      "outputs": [
        {
          "internalType": "bool",
          "name": "",
          "type": "bool"
        }
      ],
      "stateMutability": "view",
      "type": "function"
    },
    {
      "inputs": [],
      "name": "symbol",
      "outputs": [
        {
          "internalType": "string",
          "name": "",
          "type": "string"
        }
      ],
      "stateMutability": "view",
      "type": "function"
    },
    {
      "inputs": [
        {
          "internalType": "uint256",
          "name": "tokenId",
          "type": "uint256"
        }
      ],
      "name": "tokenURI",
      "outputs": [
        {
          "internalType": "string",
          "name": "",
          "type": "string"
        }
      ],
      "stateMutability": "view",
      "type": "function"
    },
    {
      "inputs": [],
      "name": "tonneDenomination",
      "outputs": [
        {
          "internalType": "uint256",
          "name": "",
          "type": "uint256"
        }
      ],
      "stateMutability": "view",
      "type": "function"
    },
    {
      "inputs": [
        {
          "internalType": "address",
          "name": "from",
          "type": "address"
        },
        {
          "internalType": "address",
          "name": "to",
          "type": "address"
        },
        {
          "internalType": "uint256",
          "name": "tokenId",
          "type": "uint256"
        }
      ],
      "name": "transferFrom",
      "outputs": [],
      "stateMutability": "nonpayable",
      "type": "function"
    },
    {
      "inputs": [
        {
          "internalType": "address",
          "name": "newOwner",
          "type": "address"
        }
      ],
      "name": "transferOwnership",
      "outputs": [],
      "stateMutability": "nonpayable",
      "type": "function"
    },
    {
      "inputs": [
        {
          "internalType": "uint256",
          "name": "tokenId",
          "type": "uint256"
        },
        {
          "internalType": "string",
          "name": "retiringEntityString",
          "type": "string"
        },
        {
          "internalType": "address",
          "name": "beneficiary",
          "type": "address"
        },
        {
          "internalType": "string",
          "name": "beneficiaryString",
          "type": "string"
        },
        {
          "internalType": "string",
          "name": "retirementMessage",
          "type": "string"
        }
      ],
      "name": "updateCertificate",
      "outputs": [],
      "stateMutability": "nonpayable",
      "type": "function"
    },
    {
      "inputs": [
        {
          "internalType": "address",
          "name": "newImplementation",
          "type": "address"
        }
      ],
      "name": "upgradeTo",
      "outputs": [],
      "stateMutability": "nonpayable",
      "type": "function"
    },
    {
      "inputs": [
        {
          "internalType": "address",
          "name": "newImplementation",
          "type": "address"
        },
        {
          "internalType": "bytes",
          "name": "data",
          "type": "bytes"
        }
      ],
      "name": "upgradeToAndCall",
      "outputs": [],
      "stateMutability": "payable",
      "type": "function"
    }
  ],
  "numDeployments": 4,
  "solcInputHash": "15ad6fdc35fb1c755f782f01df59d4c2",
  "bytecode": "0x60a0604052306080523480156200001557600080fd5b506200002062000026565b62000156565b6200003260ff62000035565b50565b60008054610100900460ff1615620000ce578160ff1660011480156200006e57506200006c306200014760201b620020bf1760201c565b155b620000c65760405162461bcd60e51b815260206004820152602e602482015260008051602062003f3583398151915260448201526d191e481a5b9a5d1a585b1a5e995960921b60648201526084015b60405180910390fd5b506000919050565b60005460ff8084169116106200012d5760405162461bcd60e51b815260206004820152602e602482015260008051602062003f3583398151915260448201526d191e481a5b9a5d1a585b1a5e995960921b6064820152608401620000bd565b506000805460ff191660ff92909216919091179055600190565b6001600160a01b03163b151590565b608051613da76200018e600039600081816112d801528181611318015281816113d20152818161141201526114a50152613da76000f3fe60806040526004361061025c5760003560e01c8063715018a611610144578063c87b56dd116100b6578063e985e9c51161007a578063e985e9c514610776578063f2fde38b146107bf578063f399e22e146107df578063fa272a32146107ff578063ff0116771461081f578063ffa1ad741461083f57600080fd5b8063c87b56dd146106db578063d791399e146106fb578063d84650be1461071b578063d894203d14610736578063e882e37b1461075657600080fd5b8063abf410e511610108578063abf410e514610616578063b2114f4114610637578063b88d4fde14610668578063bba34a3714610688578063bbec9a2e146106a8578063c6986067146106c457600080fd5b8063715018a6146105975780638da5cb5b146105ac57806395d89b41146105ca57806399b00a8d146105df578063a22cb465146105f657600080fd5b80633659cfe6116101dd57806361e4678b116101a157806361e4678b146104865780636352211e146104fb578063663b3e221461051b5780636c0360eb1461054d5780636ca0b0d71461056257806370a082311461057757600080fd5b80633659cfe6146103fe57806342842e0e1461041e5780634f1ef2861461043e57806352d1902d1461045157806355f804b31461046657600080fd5b80630d4b53e7116102245780630d4b53e714610343578063163c131914610371578063171e5ba21461039157806323b872dd146103be57806327de49ee146103de57600080fd5b80630178fe3f1461026157806301ffc9a71461029757806306fdde03146102c7578063081812fc146102e9578063095ea7b314610321575b600080fd5b34801561026d57600080fd5b5061028161027c3660046130a9565b610870565b60405161028e919061311a565b60405180910390f35b3480156102a357600080fd5b506102b76102b2366004613216565b610b18565b604051901515815260200161028e565b3480156102d357600080fd5b506102dc610b6a565b60405161028e9190613233565b3480156102f557600080fd5b506103096103043660046130a9565b610bfc565b6040516001600160a01b03909116815260200161028e565b34801561032d57600080fd5b5061034161033c36600461325d565b610c96565b005b34801561034f57600080fd5b5061036361035e3660046130a9565b610dab565b60405190815260200161028e565b34801561037d57600080fd5b5061036361038c366004613315565b610e7f565b34801561039d57600080fd5b506103b16103ac366004613400565b6110a0565b60405161028e919061341b565b3480156103ca57600080fd5b506103416103d936600461345f565b61110d565b3480156103ea57600080fd5b506103636103f93660046134a9565b61113e565b34801561040a57600080fd5b50610341610419366004613400565b6112ce565b34801561042a57600080fd5b5061034161043936600461345f565b6113ad565b61034161044c366004613594565b6113c8565b34801561045d57600080fd5b50610363611498565b34801561047257600080fd5b506103416104813660046135e2565b61154b565b34801561049257600080fd5b506104d36104a13660046130a9565b61012e60205260009081526040902080546001820154600283015460039093015491926001600160a01b039091169184565b604080519485526001600160a01b03909316602085015291830152606082015260800161028e565b34801561050757600080fd5b506103096105163660046130a9565b6115c4565b34801561052757600080fd5b5061053b6105363660046130a9565b61163b565b60405161028e96959493929190613617565b34801561055957600080fd5b506102dc61181a565b34801561056e57600080fd5b50610363600381565b34801561058357600080fd5b50610363610592366004613400565b6118a9565b3480156105a357600080fd5b50610341611930565b3480156105b857600080fd5b506097546001600160a01b0316610309565b3480156105d657600080fd5b506102dc611966565b3480156105eb57600080fd5b5061036361012d5481565b34801561060257600080fd5b5061034161061136600461367c565b611975565b34801561062257600080fd5b5061013254610309906001600160a01b031681565b34801561064357600080fd5b506102b76106523660046130a9565b61012f6020526000908152604090205460ff1681565b34801561067457600080fd5b506103416106833660046136b3565b611980565b34801561069457600080fd5b506103416106a336600461371b565b6119b8565b3480156106b457600080fd5b50610363670de0b6b3a764000081565b3480156106d057600080fd5b506103636101355481565b3480156106e757600080fd5b506102dc6106f63660046130a9565b611b5f565b34801561070757600080fd5b506103636107163660046130a9565b611c13565b34801561072757600080fd5b5061036366038d7ea4c6800081565b34801561074257600080fd5b506103416107513660046137d2565b611ccf565b34801561076257600080fd5b50610341610771366004613400565b611d2f565b34801561078257600080fd5b506102b761079136600461381e565b6001600160a01b039182166000908152606a6020908152604080832093909416825291909152205460ff1690565b3480156107cb57600080fd5b506103416107da366004613400565b611da8565b3480156107eb57600080fd5b506103416107fa366004613594565b611e40565b34801561080b57600080fd5b5061036361081a3660046130a9565b611f44565b34801561082b57600080fd5b5061034161083a3660046130a9565b612011565b34801561084b57600080fd5b506102dc60405180604001604052806005815260200164312e302e3160d81b81525081565b6108c26040518060e00160405280606081526020016000815260200160006001600160a01b0316815260200160006001600160a01b031681526020016060815260200160608152602001606081525090565b60008281526101346020908152604091829020825181546101009381028201840190945260e08101848152909391928492849184018282801561092457602002820191906000526020600020905b815481526020019060010190808311610910575b50505091835250506001820154602082015260028201546001600160a01b039081166040830152600383015416606082015260048201805460809092019161096b90613851565b80601f016020809104026020016040519081016040528092919081815260200182805461099790613851565b80156109e45780601f106109b9576101008083540402835291602001916109e4565b820191906000526020600020905b8154815290600101906020018083116109c757829003601f168201915b505050505081526020016005820180546109fd90613851565b80601f0160208091040260200160405190810160405280929190818152602001828054610a2990613851565b8015610a765780601f10610a4b57610100808354040283529160200191610a76565b820191906000526020600020905b815481529060010190602001808311610a5957829003601f168201915b50505050508152602001600682018054610a8f90613851565b80601f0160208091040260200160405190810160405280929190818152602001828054610abb90613851565b8015610b085780601f10610add57610100808354040283529160200191610b08565b820191906000526020600020905b815481529060010190602001808311610aeb57829003601f168201915b5050505050815250509050919050565b60006001600160e01b031982166380ac58cd60e01b1480610b4957506001600160e01b03198216635b5e139f60e01b145b80610b6457506301ffc9a760e01b6001600160e01b03198316145b92915050565b606060658054610b7990613851565b80601f0160208091040260200160405190810160405280929190818152602001828054610ba590613851565b8015610bf25780601f10610bc757610100808354040283529160200191610bf2565b820191906000526020600020905b815481529060010190602001808311610bd557829003601f168201915b5050505050905090565b6000818152606760205260408120546001600160a01b0316610c7a5760405162461bcd60e51b815260206004820152602c60248201527f4552433732313a20617070726f76656420717565727920666f72206e6f6e657860448201526b34b9ba32b73a103a37b5b2b760a11b60648201526084015b60405180910390fd5b506000908152606960205260409020546001600160a01b031690565b6000610ca1826115c4565b9050806001600160a01b0316836001600160a01b031603610d0e5760405162461bcd60e51b815260206004820152602160248201527f4552433732313a20617070726f76616c20746f2063757272656e74206f776e656044820152603960f91b6064820152608401610c71565b336001600160a01b0382161480610d2a5750610d2a8133610791565b610d9c5760405162461bcd60e51b815260206004820152603860248201527f4552433732313a20617070726f76652063616c6c6572206973206e6f74206f7760448201527f6e6572206e6f7220617070726f76656420666f7220616c6c00000000000000006064820152608401610c71565b610da683836120ce565b505050565b600081815261013460209081526040808320805482518185028101850190935280835284938493929190830182828015610e0457602002820191906000526020600020905b815481526020019060010190808311610df0575b5050505050905060005b8151811015610e655761012e6000838381518110610e2e57610e2e61388b565b602002602001015181526020019081526020016000206002015483610e5391906138b7565b9250610e5e816138cf565b9050610e0e565b50610e7766038d7ea4c68000836138fe565b949350505050565b600060026101365403610ed45760405162461bcd60e51b815260206004820152601f60248201527f5265656e7472616e637947756172643a207265656e7472616e742063616c6c006044820152606401610c71565b6002610136556001600160a01b038b16331480610f5f575061013254604051633a37b16d60e11b81523360048201526001600160a01b039091169063746f62da90602401602060405180830381865afa158015610f35573d6000803e3d6000fd5b505050506040513d601f19601f82011682018060405250810190610f599190613912565b15156001145b610f9c5760405162461bcd60e51b815260206004820152600e60248201526d24b73b30b634b21031b0b63632b960911b6044820152606401610c71565b610133805460010190819055610fb4818d868661213c565b6000818152610134602052604090204260018201556003810180546001600160a01b0319166001600160a01b038c16179055610ff4906005018989612f9c565b506000818152610134602052604090206002810180546001600160a01b0319166001600160a01b038f1617905561102f906004018c8c612f9c565b5060008181526101346020526040902061104d906006018787612f9c565b506040518181527f54b249c3cd4a5f80e81d2ad036b251d58d8f5482a926f25d12eabec192cf1ecd9060200160405180910390a161108b8c826122fe565b6001610136559b9a5050505050505050505050565b6001600160a01b0381166000908152610130602090815260409182902080548351818402810184019094528084526060939283018282801561110157602002820191906000526020600020905b8154815260200190600101908083116110ed575b50505050509050919050565b6111173382612318565b6111335760405162461bcd60e51b8152600401610c719061392f565b610da683838361240e565b61013254604051633a37b16d60e11b81523360048201526000916001600160a01b03169063746f62da90602401602060405180830381865afa158015611188573d6000803e3d6000fd5b505050506040513d601f19601f820116820180604052508101906111ac9190613912565b6111ec5760405162461bcd60e51b815260206004820152601160248201527021b0b63632b9103737ba1030902a21a79960791b6044820152606401610c71565b82158015906111fe5750610135548310155b61123b5760405162461bcd60e51b815260206004820152600e60248201526d125b9d985b1a5908185b5bdd5b9d60921b6044820152606401610c71565b61012d80546001908101918290556001600160a01b03871660009081526101306020908152604082208054938401815582529020018190558261128b57600081815261012e602052604090204290555b600081815261012e602052604090206001810180546001600160a01b0319166001600160a01b038916179055600281018590556003018590559050949350505050565b6001600160a01b037f00000000000000000000000000000000000000000000000000000000000000001630036113165760405162461bcd60e51b8152600401610c7190613980565b7f00000000000000000000000000000000000000000000000000000000000000006001600160a01b031661135f600080516020613d2b833981519152546001600160a01b031690565b6001600160a01b0316146113855760405162461bcd60e51b8152600401610c71906139cc565b61138e816125aa565b604080516000808252602082019092526113aa918391906125d4565b50565b610da683838360405180602001604052806000815250611980565b6001600160a01b037f00000000000000000000000000000000000000000000000000000000000000001630036114105760405162461bcd60e51b8152600401610c7190613980565b7f00000000000000000000000000000000000000000000000000000000000000006001600160a01b0316611459600080516020613d2b833981519152546001600160a01b031690565b6001600160a01b03161461147f5760405162461bcd60e51b8152600401610c71906139cc565b611488826125aa565b611494828260016125d4565b5050565b6000306001600160a01b037f000000000000000000000000000000000000000000000000000000000000000016146115385760405162461bcd60e51b815260206004820152603860248201527f555550535570677261646561626c653a206d757374206e6f742062652063616c60448201527f6c6564207468726f7567682064656c656761746563616c6c00000000000000006064820152608401610c71565b50600080516020613d2b83398151915290565b6097546001600160a01b031633146115755760405162461bcd60e51b8152600401610c7190613a18565b805161158990610131906020840190613020565b507ff9c7803e94e0d3c02900d8a90893a6d5e90dd04d32a4cfe825520f82bf9f32f6816040516115b99190613233565b60405180910390a150565b6000818152606760205260408120546001600160a01b031680610b645760405162461bcd60e51b815260206004820152602960248201527f4552433732313a206f776e657220717565727920666f72206e6f6e657869737460448201526832b73a103a37b5b2b760b91b6064820152608401610c71565b61013460205260009081526040902060018101546002820154600383015460048401805493946001600160a01b0393841694939092169261167b90613851565b80601f01602080910402602001604051908101604052809291908181526020018280546116a790613851565b80156116f45780601f106116c9576101008083540402835291602001916116f4565b820191906000526020600020905b8154815290600101906020018083116116d757829003601f168201915b50505050509080600501805461170990613851565b80601f016020809104026020016040519081016040528092919081815260200182805461173590613851565b80156117825780601f1061175757610100808354040283529160200191611782565b820191906000526020600020905b81548152906001019060200180831161176557829003601f168201915b50505050509080600601805461179790613851565b80601f01602080910402602001604051908101604052809291908181526020018280546117c390613851565b80156118105780601f106117e557610100808354040283529160200191611810565b820191906000526020600020905b8154815290600101906020018083116117f357829003601f168201915b5050505050905086565b610131805461182890613851565b80601f016020809104026020016040519081016040528092919081815260200182805461185490613851565b80156118a15780601f10611876576101008083540402835291602001916118a1565b820191906000526020600020905b81548152906001019060200180831161188457829003601f168201915b505050505081565b60006001600160a01b0382166119145760405162461bcd60e51b815260206004820152602a60248201527f4552433732313a2062616c616e636520717565727920666f7220746865207a65604482015269726f206164647265737360b01b6064820152608401610c71565b506001600160a01b031660009081526068602052604090205490565b6097546001600160a01b0316331461195a5760405162461bcd60e51b8152600401610c7190613a18565b611964600061273f565b565b606060668054610b7990613851565b611494338383612791565b61198a3383612318565b6119a65760405162461bcd60e51b8152600401610c719061392f565b6119b28484848461285f565b50505050565b6119c1886115c4565b6001600160a01b0316336001600160a01b031614611a175760405162461bcd60e51b815260206004820152601360248201527229b2b73232b91034b9903737ba1037bbb732b960691b6044820152606401610c71565b60008881526101346020526040902060010154611a3790620151806138b7565b4210611a785760405162461bcd60e51b815260206004820152601060248201526f0c8d081a1bdd5c9cc8195b185c1cd95960821b6044820152606401610c71565b8515611a9d57600088815261013460205260409020611a9b906004018888612f9c565b505b6001600160a01b03851615611ad85760008881526101346020526040902060030180546001600160a01b0319166001600160a01b0387161790555b8215611afd57600088815261013460205260409020611afb906005018585612f9c565b505b8015611b2257600088815261013460205260409020611b20906006018383612f9c565b505b6040518881527f9a100d2018161ede6ca34c8007992b09bbffc636a636014a922e4c87504126289060200160405180910390a15050505050505050565b6000818152606760205260409020546060906001600160a01b0316611be05760405162461bcd60e51b815260206004820152603160248201527f45524337323155524953746f726167653a2055524920717565727920666f72206044820152703737b732bc34b9ba32b73a103a37b5b2b760791b6064820152608401610c71565b610131611bec83612892565b604051602001611bfd929190613a69565b6040516020818303038152906040529050919050565b60008181526101346020908152604080832080548251818502810185019093528083528493830182828015611c6757602002820191906000526020600020905b815481526020019060010190808311611c53575b5050505050905060005b8151811015611cc85761012e6000838381518110611c9157611c9161388b565b602002602001015181526020019081526020016000206002015483611cb691906138b7565b9250611cc1816138cf565b9050611c71565b5050919050565b6000611cda846115c4565b90506001600160a01b0381163314611d235760405162461bcd60e51b815260206004820152600c60248201526b155b985d5d1a1bdc9a5e995960a21b6044820152606401610c71565b6119b28482858561213c565b6097546001600160a01b03163314611d595760405162461bcd60e51b8152600401610c7190613a18565b61013280546001600160a01b0319166001600160a01b0383169081179091556040519081527f86907b53cf2024579968511876daf0b4620d65803b550e33101baf70aeb6f5eb906020016115b9565b6097546001600160a01b03163314611dd25760405162461bcd60e51b8152600401610c7190613a18565b6001600160a01b038116611e375760405162461bcd60e51b815260206004820152602660248201527f4f776e61626c653a206e6577206f776e657220697320746865207a65726f206160448201526564647265737360d01b6064820152608401610c71565b6113aa8161273f565b6000611e4c6001612993565b90508015611e64576000805461ff0019166101001790555b611e6c612a20565b611eb1604051806080016040528060458152602001613ce6604591396040518060400160405280600b81526020016a1513d550d0538b50d1549560aa1b815250612a47565b611eb9612a95565b611ec1612ac5565b611ec9612a20565b61013280546001600160a01b0319166001600160a01b0385161790558151611ef990610131906020850190613020565b508015610da6576000805461ff0019169055604051600181527f7f26b83ff96e1f2b6a682f133852f6798a09c465da95921460cefb38474024989060200160405180910390a1505050565b600081815261013460209081526040808320805482518185028101850190935280835284938493929190830182828015611f9d57602002820191906000526020600020905b815481526020019060010190808311611f89575b5050505050905060005b8151811015611ffe5761012e6000838381518110611fc757611fc761388b565b602002602001015181526020019081526020016000206002015483611fec91906138b7565b9250611ff7816138cf565b9050611fa7565b50610e77670de0b6b3a7640000836138fe565b6097546001600160a01b0316331461203b5760405162461bcd60e51b8152600401610c7190613a18565b6101355481810361207c5760405162461bcd60e51b815260206004820152600b60248201526a105b1c9958591e481cd95d60aa1b6044820152606401610c71565b61013582905560408051828152602081018490527f551d481ccb1906e06e26b2f8bedf0b21755e092f001c4465f99aab9c67d8a039910160405180910390a15050565b6001600160a01b03163b151590565b600081815260696020526040902080546001600160a01b0319166001600160a01b0384169081179091558190612103826115c4565b6001600160a01b03167f8c5be1e5ebec7d5bd14f71427d1e84f3dd0314c0f7b2291e5b200ac8c7c3b92560405160405180910390a45050565b60008190036121815760405162461bcd60e51b8152602060048201526011602482015270456d707479206576656e7420617272617960781b6044820152606401610c71565b60005b818110156122bc5760008383838181106121a0576121a061388b565b60209081029290920135600081815261012e909352604090922060010154919250506001600160a01b0386811691161461221c5760405162461bcd60e51b815260206004820152601b60248201527f496e76616c6964206576656e7420746f20626520636c61696d656400000000006044820152606401610c71565b600081815261012f602052604090205460ff16156122745760405162461bcd60e51b8152602060048201526015602482015274105b1c9958591e4818db185a5b595908195d995b9d605a1b6044820152606401610c71565b600081815261012f60209081526040808320805460ff191660019081179091558984526101348352908320805491820181558352912001556122b5816138cf565b9050612184565b507fc5872b1b6098a26efa71189456aa230cff448e7d6fbfa3b42d7eb105d541d4318483836040516122f093929190613b06565b60405180910390a150505050565b611494828260405180602001604052806000815250612af4565b6000818152606760205260408120546001600160a01b03166123915760405162461bcd60e51b815260206004820152602c60248201527f4552433732313a206f70657261746f7220717565727920666f72206e6f6e657860448201526b34b9ba32b73a103a37b5b2b760a11b6064820152608401610c71565b600061239c836115c4565b9050806001600160a01b0316846001600160a01b031614806123e357506001600160a01b038082166000908152606a602090815260408083209388168352929052205460ff165b80610e775750836001600160a01b03166123fc84610bfc565b6001600160a01b031614949350505050565b826001600160a01b0316612421826115c4565b6001600160a01b0316146124855760405162461bcd60e51b815260206004820152602560248201527f4552433732313a207472616e736665722066726f6d20696e636f72726563742060448201526437bbb732b960d91b6064820152608401610c71565b6001600160a01b0382166124e75760405162461bcd60e51b8152602060048201526024808201527f4552433732313a207472616e7366657220746f20746865207a65726f206164646044820152637265737360e01b6064820152608401610c71565b6124f26000826120ce565b6001600160a01b038316600090815260686020526040812080546001929061251b908490613b4a565b90915550506001600160a01b03821660009081526068602052604081208054600192906125499084906138b7565b909155505060008181526067602052604080822080546001600160a01b0319166001600160a01b0386811691821790925591518493918716917fddf252ad1be2c89b69c2b068fc378daa952ba7f163c4a11628f55a4df523b3ef91a4505050565b6097546001600160a01b031633146113aa5760405162461bcd60e51b8152600401610c7190613a18565b7f4910fdfa16fed3260ed0e7147f7cc6da11a60208b5b9406d12a635614ffd91435460ff161561260757610da683612b27565b826001600160a01b03166352d1902d6040518163ffffffff1660e01b8152600401602060405180830381865afa925050508015612661575060408051601f3d908101601f1916820190925261265e91810190613b61565b60015b6126c45760405162461bcd60e51b815260206004820152602e60248201527f45524331393637557067726164653a206e657720696d706c656d656e7461746960448201526d6f6e206973206e6f74205555505360901b6064820152608401610c71565b600080516020613d2b83398151915281146127335760405162461bcd60e51b815260206004820152602960248201527f45524331393637557067726164653a20756e737570706f727465642070726f786044820152681a58589b195555525160ba1b6064820152608401610c71565b50610da6838383612bc3565b609780546001600160a01b038381166001600160a01b0319831681179093556040519116919082907f8be0079c531659141344cd1fd0a4f28419497f9722a3daafe3b4186f6b6457e090600090a35050565b816001600160a01b0316836001600160a01b0316036127f25760405162461bcd60e51b815260206004820152601960248201527f4552433732313a20617070726f766520746f2063616c6c6572000000000000006044820152606401610c71565b6001600160a01b038381166000818152606a6020908152604080832094871680845294825291829020805460ff191686151590811790915591519182527f17307eab39ab6107e8899845ad3d59bd9653f200f220920489ca2b5937696c31910160405180910390a3505050565b61286a84848461240e565b61287684848484612be8565b6119b25760405162461bcd60e51b8152600401610c7190613b7a565b6060816000036128b95750506040805180820190915260018152600360fc1b602082015290565b8160005b81156128e357806128cd816138cf565b91506128dc9050600a836138fe565b91506128bd565b60008167ffffffffffffffff8111156128fe576128fe6134f1565b6040519080825280601f01601f191660200182016040528015612928576020820181803683370190505b5090505b8415610e775761293d600183613b4a565b915061294a600a86613bcc565b6129559060306138b7565b60f81b81838151811061296a5761296a61388b565b60200101906001600160f81b031916908160001a90535061298c600a866138fe565b945061292c565b60008054610100900460ff16156129da578160ff1660011480156129b65750303b155b6129d25760405162461bcd60e51b8152600401610c7190613be0565b506000919050565b60005460ff808416911610612a015760405162461bcd60e51b8152600401610c7190613be0565b506000805460ff191660ff92909216919091179055600190565b919050565b600054610100900460ff166119645760405162461bcd60e51b8152600401610c7190613c2e565b600054610100900460ff16612a6e5760405162461bcd60e51b8152600401610c7190613c2e565b8151612a81906065906020850190613020565b508051610da6906066906020840190613020565b600054610100900460ff16612abc5760405162461bcd60e51b8152600401610c7190613c2e565b6119643361273f565b600054610100900460ff16612aec5760405162461bcd60e51b8152600401610c7190613c2e565b600161013655565b612afe8383612ce6565b612b0b6000848484612be8565b610da65760405162461bcd60e51b8152600401610c7190613b7a565b6001600160a01b0381163b612b945760405162461bcd60e51b815260206004820152602d60248201527f455243313936373a206e657720696d706c656d656e746174696f6e206973206e60448201526c1bdd08184818dbdb9d1c9858dd609a1b6064820152608401610c71565b600080516020613d2b83398151915280546001600160a01b0319166001600160a01b0392909216919091179055565b612bcc83612e28565b600082511180612bd95750805b15610da6576119b28383612e68565b60006001600160a01b0384163b15612cde57604051630a85bd0160e11b81526001600160a01b0385169063150b7a0290612c2c903390899088908890600401613c79565b6020604051808303816000875af1925050508015612c67575060408051601f3d908101601f19168201909252612c6491810190613cac565b60015b612cc4573d808015612c95576040519150601f19603f3d011682016040523d82523d6000602084013e612c9a565b606091505b508051600003612cbc5760405162461bcd60e51b8152600401610c7190613b7a565b805181602001fd5b6001600160e01b031916630a85bd0160e11b149050610e77565b506001610e77565b6001600160a01b038216612d3c5760405162461bcd60e51b815260206004820181905260248201527f4552433732313a206d696e7420746f20746865207a65726f20616464726573736044820152606401610c71565b6000818152606760205260409020546001600160a01b031615612da15760405162461bcd60e51b815260206004820152601c60248201527f4552433732313a20746f6b656e20616c7265616479206d696e746564000000006044820152606401610c71565b6001600160a01b0382166000908152606860205260408120805460019290612dca9084906138b7565b909155505060008181526067602052604080822080546001600160a01b0319166001600160a01b03861690811790915590518392907fddf252ad1be2c89b69c2b068fc378daa952ba7f163c4a11628f55a4df523b3ef908290a45050565b612e3181612b27565b6040516001600160a01b038216907fbc7cd75a20ee27fd9adebab32041f755214dbc6bffa90cc0225b39da2e5c2d3b90600090a250565b60606001600160a01b0383163b612ed05760405162461bcd60e51b815260206004820152602660248201527f416464726573733a2064656c65676174652063616c6c20746f206e6f6e2d636f6044820152651b9d1c9858dd60d21b6064820152608401610c71565b600080846001600160a01b031684604051612eeb9190613cc9565b600060405180830381855af49150503d8060008114612f26576040519150601f19603f3d011682016040523d82523d6000602084013e612f2b565b606091505b5091509150612f538282604051806060016040528060278152602001613d4b60279139612f5c565b95945050505050565b60608315612f6b575081612f95565b825115612f7b5782518084602001fd5b8160405162461bcd60e51b8152600401610c719190613233565b9392505050565b828054612fa890613851565b90600052602060002090601f016020900481019282612fca5760008555613010565b82601f10612fe35782800160ff19823516178555613010565b82800160010185558215613010579182015b82811115613010578235825591602001919060010190612ff5565b5061301c929150613094565b5090565b82805461302c90613851565b90600052602060002090601f01602090048101928261304e5760008555613010565b82601f1061306757805160ff1916838001178555613010565b82800160010185558215613010579182015b82811115613010578251825591602001919060010190613079565b5b8082111561301c5760008155600101613095565b6000602082840312156130bb57600080fd5b5035919050565b60005b838110156130dd5781810151838201526020016130c5565b838111156119b25750506000910152565b600081518084526131068160208601602086016130c2565b601f01601f19169290920160200192915050565b6020808252825160e083830152805161010084018190526000929182019083906101208601905b808310156131615783518252928401926001929092019190840190613141565b508387015160408701526040870151935061318760608701856001600160a01b03169052565b60608701516001600160a01b0381166080880152935060808701519350601f199250828682030160a08701526131bd81856130ee565b9350505060a0850151818584030160c08601526131da83826130ee565b92505060c0850151818584030160e08601526131f683826130ee565b9695505050505050565b6001600160e01b0319811681146113aa57600080fd5b60006020828403121561322857600080fd5b8135612f9581613200565b602081526000612f9560208301846130ee565b80356001600160a01b0381168114612a1b57600080fd5b6000806040838503121561327057600080fd5b61327983613246565b946020939093013593505050565b60008083601f84011261329957600080fd5b50813567ffffffffffffffff8111156132b157600080fd5b6020830191508360208285010111156132c957600080fd5b9250929050565b60008083601f8401126132e257600080fd5b50813567ffffffffffffffff8111156132fa57600080fd5b6020830191508360208260051b85010111156132c957600080fd5b60008060008060008060008060008060c08b8d03121561333457600080fd5b61333d8b613246565b995060208b013567ffffffffffffffff8082111561335a57600080fd5b6133668e838f01613287565b909b50995089915061337a60408e01613246565b985060608d013591508082111561339057600080fd5b61339c8e838f01613287565b909850965060808d01359150808211156133b557600080fd5b6133c18e838f01613287565b909650945060a08d01359150808211156133da57600080fd5b506133e78d828e016132d0565b915080935050809150509295989b9194979a5092959850565b60006020828403121561341257600080fd5b612f9582613246565b6020808252825182820181905260009190848201906040850190845b8181101561345357835183529284019291840191600101613437565b50909695505050505050565b60008060006060848603121561347457600080fd5b61347d84613246565b925061348b60208501613246565b9150604084013590509250925092565b80151581146113aa57600080fd5b600080600080608085870312156134bf57600080fd5b6134c885613246565b9350602085013592506040850135915060608501356134e68161349b565b939692955090935050565b634e487b7160e01b600052604160045260246000fd5b600082601f83011261351857600080fd5b813567ffffffffffffffff80821115613533576135336134f1565b604051601f8301601f19908116603f0116810190828211818310171561355b5761355b6134f1565b8160405283815286602085880101111561357457600080fd5b836020870160208301376000602085830101528094505050505092915050565b600080604083850312156135a757600080fd5b6135b083613246565b9150602083013567ffffffffffffffff8111156135cc57600080fd5b6135d885828601613507565b9150509250929050565b6000602082840312156135f457600080fd5b813567ffffffffffffffff81111561360b57600080fd5b610e7784828501613507565b8681526001600160a01b0386811660208301528516604082015260c060608201819052600090613649908301866130ee565b828103608084015261365b81866130ee565b905082810360a084015261366f81856130ee565b9998505050505050505050565b6000806040838503121561368f57600080fd5b61369883613246565b915060208301356136a88161349b565b809150509250929050565b600080600080608085870312156136c957600080fd5b6136d285613246565b93506136e060208601613246565b925060408501359150606085013567ffffffffffffffff81111561370357600080fd5b61370f87828801613507565b91505092959194509250565b60008060008060008060008060a0898b03121561373757600080fd5b88359750602089013567ffffffffffffffff8082111561375657600080fd5b6137628c838d01613287565b909950975087915061377660408c01613246565b965060608b013591508082111561378c57600080fd5b6137988c838d01613287565b909650945060808b01359150808211156137b157600080fd5b506137be8b828c01613287565b999c989b5096995094979396929594505050565b6000806000604084860312156137e757600080fd5b83359250602084013567ffffffffffffffff81111561380557600080fd5b613811868287016132d0565b9497909650939450505050565b6000806040838503121561383157600080fd5b61383a83613246565b915061384860208401613246565b90509250929050565b600181811c9082168061386557607f821691505b60208210810361388557634e487b7160e01b600052602260045260246000fd5b50919050565b634e487b7160e01b600052603260045260246000fd5b634e487b7160e01b600052601160045260246000fd5b600082198211156138ca576138ca6138a1565b500190565b6000600182016138e1576138e16138a1565b5060010190565b634e487b7160e01b600052601260045260246000fd5b60008261390d5761390d6138e8565b500490565b60006020828403121561392457600080fd5b8151612f958161349b565b60208082526031908201527f4552433732313a207472616e736665722063616c6c6572206973206e6f74206f6040820152701ddb995c881b9bdc88185c1c1c9bdd9959607a1b606082015260800190565b6020808252602c908201527f46756e6374696f6e206d7573742062652063616c6c6564207468726f7567682060408201526b19195b1959d85d1958d85b1b60a21b606082015260800190565b6020808252602c908201527f46756e6374696f6e206d7573742062652063616c6c6564207468726f7567682060408201526b6163746976652070726f787960a01b606082015260800190565b6020808252818101527f4f776e61626c653a2063616c6c6572206973206e6f7420746865206f776e6572604082015260600190565b60008151613a5f8185602086016130c2565b9290920192915050565b600080845481600182811c915080831680613a8557607f831692505b60208084108203613aa457634e487b7160e01b86526022600452602486fd5b818015613ab85760018114613ac957613af6565b60ff19861689528489019650613af6565b60008b81526020902060005b86811015613aee5781548b820152908501908301613ad5565b505084890196505b505050505050612f538185613a4d565b838152604060208201819052810182905260006001600160fb1b03831115613b2d57600080fd5b8260051b8085606085013760009201606001918252509392505050565b600082821015613b5c57613b5c6138a1565b500390565b600060208284031215613b7357600080fd5b5051919050565b60208082526032908201527f4552433732313a207472616e7366657220746f206e6f6e20455243373231526560408201527131b2b4bb32b91034b6b83632b6b2b73a32b960711b606082015260800190565b600082613bdb57613bdb6138e8565b500690565b6020808252602e908201527f496e697469616c697a61626c653a20636f6e747261637420697320616c72656160408201526d191e481a5b9a5d1a585b1a5e995960921b606082015260800190565b6020808252602b908201527f496e697469616c697a61626c653a20636f6e7472616374206973206e6f74206960408201526a6e697469616c697a696e6760a81b606082015260800190565b6001600160a01b03858116825284166020820152604081018390526080606082018190526000906131f6908301846130ee565b600060208284031215613cbe57600080fd5b8151612f9581613200565b60008251613cdb8184602087016130c2565b919091019291505056fe546f7563616e2050726f746f636f6c3a205265746972656d656e742043657274696669636174657320666f7220546f6b656e697a656420436172626f6e204f666673657473360894a13ba1a3210667c828492db98dca3e2076cc3735a920a3ca505d382bbc416464726573733a206c6f772d6c6576656c2064656c65676174652063616c6c206661696c6564a2646970667358221220bd47ddd6967f9f31162626b38a0c0b82ab44ac4bf17102972aacda4fd6b5e89264736f6c634300080e0033496e697469616c697a61626c653a20636f6e747261637420697320616c726561",
  "devdoc": {
    "details": "The amount of RetirementEvents is denominated in the 18-decimal formGetters in this contract return the corresponding amount in tonnes or kilos",
    "kind": "dev",
    "methods": {
      "approve(address,uint256)": {
        "details": "See {IERC721-approve}."
      },
      "attachRetirementEvents(uint256,uint256[])": {
        "params": {
          "retirementEventIds": "An array of event ids to associate with the NFT.",
          "tokenId": "The id of the NFT to attach events to."
        }
      },
      "balanceOf(address)": {
        "details": "See {IERC721-balanceOf}."
      },
      "constructor": {
        "custom:oz-upgrades-unsafe-allow": "constructor"
      },
      "getApproved(uint256)": {
        "details": "See {IERC721-getApproved}."
      },
      "getData(uint256)": {
        "params": {
          "tokenId": "The id of the NFT to get data for."
        }
      },
      "getRetiredAmount(uint256)": {
        "details": "The return amount is denominated in 18 decimals, similar to amounts as they are read in TCO2 contracts. For example, 1000000000000000000 means 1 tonne.",
        "params": {
          "tokenId": "The id of the NFT to update."
        },
        "returns": {
          "amount": "Total retired amount for an NFT."
        }
      },
      "getRetiredAmountInKilos(uint256)": {
        "params": {
          "tokenId": "The id of the NFT to update."
        },
        "returns": {
          "_0": "amount Total retired amount for an NFT in kilos."
        }
      },
      "getRetiredAmountInTonnes(uint256)": {
        "params": {
          "tokenId": "The id of the NFT to update."
        },
        "returns": {
          "_0": "amount Total retired amount for an NFT in tonnes."
        }
      },
      "getUserEvents(address)": {
        "params": {
          "user": "The user for whom to fetch all events."
        }
      },
      "isApprovedForAll(address,address)": {
        "details": "See {IERC721-isApprovedForAll}."
      },
      "mintCertificate(address,string,address,string,string,uint256[])": {
        "details": "The function can either be called by a valid TCO2 contract or by someone who         owns retirement events.",
        "params": {
          "beneficiary": "The beneficiary address for whom the TCO2 amount was retired.",
          "beneficiaryString": "An identifiable string for the beneficiary, eg. their name.",
          "retirementEventIds": "An array of event ids to associate with the NFT.",
          "retirementMessage": "A message to accompany the retirement.",
          "retiringEntity": "The entity that has retired TCO2 and is eligible to mint an NFT.",
          "retiringEntityString": "An identifiable string for the retiring entity, eg. their name."
        },
        "returns": {
          "_0": "The token id of the newly minted NFT."
        }
      },
      "name()": {
        "details": "See {IERC721Metadata-name}."
      },
      "owner()": {
        "details": "Returns the address of the current owner."
      },
      "ownerOf(uint256)": {
        "details": "See {IERC721-ownerOf}."
      },
      "proxiableUUID()": {
        "details": "Implementation of the ERC1822 {proxiableUUID} function. This returns the storage slot used by the implementation. It is used to validate that the this implementation remains valid after an upgrade. IMPORTANT: A proxy pointing at a proxiable contract should not be considered proxiable itself, because this risks bricking a proxy that upgrades to it, by delegating to itself until out of gas. Thus it is critical that this function revert if invoked through a proxy. This is guaranteed by the `notDelegated` modifier."
      },
      "registerEvent(address,uint256,uint256,bool)": {
        "details": "The function can either be only called by a valid TCO2 contract.",
        "params": {
          "amount": "The amount of the TCO2 that is retired.",
          "isLegacy": "Whether this event registration was executed by using the legacy retired amount in the TCO2 contract or utilizes the new retirement event design.",
          "projectVintageTokenId": "The vintage id of the TCO2 that is retired.",
          "retiringEntity": "The entity that has retired TCO2 and is eligible to mint an NFT."
        }
      },
      "renounceOwnership()": {
        "details": "Leaves the contract without owner. It will not be possible to call `onlyOwner` functions anymore. Can only be called by the current owner. NOTE: Renouncing ownership will leave the contract without an owner, thereby removing any functionality that is only available to the owner."
      },
      "safeTransferFrom(address,address,uint256)": {
        "details": "See {IERC721-safeTransferFrom}."
      },
      "safeTransferFrom(address,address,uint256,bytes)": {
        "details": "See {IERC721-safeTransferFrom}."
      },
      "setApprovalForAll(address,bool)": {
        "details": "See {IERC721-setApprovalForAll}."
      },
      "supportsInterface(bytes4)": {
        "details": "See {IERC165-supportsInterface}."
      },
      "symbol()": {
        "details": "See {IERC721Metadata-symbol}."
      },
      "tokenURI(uint256)": {
        "details": "Returns the Uniform Resource Identifier (URI) for `tokenId` token. based on the ERC721URIStorage implementation",
        "params": {
          "tokenId": "The id of the NFT to get the URI."
        }
      },
      "transferFrom(address,address,uint256)": {
        "details": "See {IERC721-transferFrom}."
      },
      "transferOwnership(address)": {
        "details": "Transfers ownership of the contract to a new account (`newOwner`). Can only be called by the current owner."
      },
      "updateCertificate(uint256,string,address,string,string)": {
        "params": {
          "beneficiary": "The new beneficiary to set in the NFT.",
          "beneficiaryString": "An identifiable string for the beneficiary, eg. their name.",
          "retirementMessage": "The new retirementMessage to set in the NFT.",
          "retiringEntityString": "An identifiable string for the retiring entity, eg. their name.",
          "tokenId": "The id of the NFT to update."
        }
      },
      "upgradeTo(address)": {
        "details": "Upgrade the implementation of the proxy to `newImplementation`. Calls {_authorizeUpgrade}. Emits an {Upgraded} event."
      },
      "upgradeToAndCall(address,bytes)": {
        "details": "Upgrade the implementation of the proxy to `newImplementation`, and subsequently execute the function call encoded in `data`. Calls {_authorizeUpgrade}. Emits an {Upgraded} event."
      }
    },
    "stateVariables": {
      "VERSION": {
        "details": "Version-related parameters. VERSION keeps track of production releases. VERSION_RELEASE_CANDIDATE keeps track of iterations of a VERSION in our staging environment."
      },
      "tonneDenomination": {
        "details": "dividers to round carbon in human-readable denominations"
      }
    },
    "version": 1
  },
  "userdoc": {
    "kind": "user",
    "methods": {
      "attachRetirementEvents(uint256,uint256[])": {
        "notice": "Attach retirement events to an NFT."
      },
      "getData(uint256)": {
        "notice": "Get certificate data for an NFT."
      },
      "getRetiredAmount(uint256)": {
        "notice": "Get total retired amount for an NFT."
      },
      "getRetiredAmountInKilos(uint256)": {
        "notice": "Get total retired amount for an NFT in kilos."
      },
      "getRetiredAmountInTonnes(uint256)": {
        "notice": "Get total retired amount for an NFT in tonnes."
      },
      "getUserEvents(address)": {
        "notice": "Get all events for a user."
      },
      "mintCertificate(address,string,address,string,string,uint256[])": {
        "notice": "Mint new Retirement Certificate NFT that shows how many TCO2s have been retired."
      },
      "registerEvent(address,uint256,uint256,bool)": {
        "notice": "Register retirement events. This function can only be called by a TC02 contract to register retirement events so they can be directly linked to an NFT mint."
      },
      "updateCertificate(uint256,string,address,string,string)": {
        "notice": "Update retirementMessage, beneficiary, and beneficiaryString of a NFT within 24h of creation. Empty values are ignored, ie., will not overwrite the existing stored values in the NFT."
      }
    },
    "notice": "The `RetirementCertificates` contract lets users mint NFTs that act as proof-of-retirement. These Retirement Certificate NFTs display how many TCO2s a user has burnt",
    "version": 1
  },
  "storageLayout": {
    "storage": [
      {
        "astId": 1489,
        "contract": "contracts/RetirementCertificates.sol:RetirementCertificates",
        "label": "_initialized",
        "offset": 0,
        "slot": "0",
        "type": "t_uint8"
      },
      {
        "astId": 1492,
        "contract": "contracts/RetirementCertificates.sol:RetirementCertificates",
        "label": "_initializing",
        "offset": 1,
        "slot": "0",
        "type": "t_bool"
      },
      {
        "astId": 4593,
        "contract": "contracts/RetirementCertificates.sol:RetirementCertificates",
        "label": "__gap",
        "offset": 0,
        "slot": "1",
        "type": "t_array(t_uint256)50_storage"
      },
      {
        "astId": 4900,
        "contract": "contracts/RetirementCertificates.sol:RetirementCertificates",
        "label": "__gap",
        "offset": 0,
        "slot": "51",
        "type": "t_array(t_uint256)50_storage"
      },
      {
        "astId": 2897,
        "contract": "contracts/RetirementCertificates.sol:RetirementCertificates",
        "label": "_name",
        "offset": 0,
        "slot": "101",
        "type": "t_string_storage"
      },
      {
        "astId": 2899,
        "contract": "contracts/RetirementCertificates.sol:RetirementCertificates",
        "label": "_symbol",
        "offset": 0,
        "slot": "102",
        "type": "t_string_storage"
      },
      {
        "astId": 2903,
        "contract": "contracts/RetirementCertificates.sol:RetirementCertificates",
        "label": "_owners",
        "offset": 0,
        "slot": "103",
        "type": "t_mapping(t_uint256,t_address)"
      },
      {
        "astId": 2907,
        "contract": "contracts/RetirementCertificates.sol:RetirementCertificates",
        "label": "_balances",
        "offset": 0,
        "slot": "104",
        "type": "t_mapping(t_address,t_uint256)"
      },
      {
        "astId": 2911,
        "contract": "contracts/RetirementCertificates.sol:RetirementCertificates",
        "label": "_tokenApprovals",
        "offset": 0,
        "slot": "105",
        "type": "t_mapping(t_uint256,t_address)"
      },
      {
        "astId": 2917,
        "contract": "contracts/RetirementCertificates.sol:RetirementCertificates",
        "label": "_operatorApprovals",
        "offset": 0,
        "slot": "106",
        "type": "t_mapping(t_address,t_mapping(t_address,t_bool))"
      },
      {
        "astId": 3758,
        "contract": "contracts/RetirementCertificates.sol:RetirementCertificates",
        "label": "__gap",
        "offset": 0,
        "slot": "107",
        "type": "t_array(t_uint256)44_storage"
      },
      {
        "astId": 980,
        "contract": "contracts/RetirementCertificates.sol:RetirementCertificates",
        "label": "_owner",
        "offset": 0,
        "slot": "151",
        "type": "t_address"
      },
      {
        "astId": 1092,
        "contract": "contracts/RetirementCertificates.sol:RetirementCertificates",
        "label": "__gap",
        "offset": 0,
        "slot": "152",
        "type": "t_array(t_uint256)49_storage"
      },
      {
        "astId": 1471,
        "contract": "contracts/RetirementCertificates.sol:RetirementCertificates",
        "label": "__gap",
        "offset": 0,
        "slot": "201",
        "type": "t_array(t_uint256)50_storage"
      },
      {
        "astId": 1759,
        "contract": "contracts/RetirementCertificates.sol:RetirementCertificates",
        "label": "__gap",
        "offset": 0,
        "slot": "251",
        "type": "t_array(t_uint256)50_storage"
      },
      {
        "astId": 10357,
        "contract": "contracts/RetirementCertificates.sol:RetirementCertificates",
        "label": "retireEventCounter",
        "offset": 0,
        "slot": "301",
        "type": "t_uint256"
      },
      {
        "astId": 10363,
        "contract": "contracts/RetirementCertificates.sol:RetirementCertificates",
        "label": "retirements",
        "offset": 0,
        "slot": "302",
        "type": "t_mapping(t_uint256,t_struct(RetirementEvent)10354_storage)"
      },
      {
        "astId": 10368,
        "contract": "contracts/RetirementCertificates.sol:RetirementCertificates",
        "label": "claimedEvents",
        "offset": 0,
        "slot": "303",
        "type": "t_mapping(t_uint256,t_bool)"
      },
      {
        "astId": 10374,
        "contract": "contracts/RetirementCertificates.sol:RetirementCertificates",
        "label": "eventsOfUser",
        "offset": 0,
        "slot": "304",
        "type": "t_mapping(t_address,t_array(t_uint256)dyn_storage)"
      },
      {
        "astId": 10376,
        "contract": "contracts/RetirementCertificates.sol:RetirementCertificates",
        "label": "baseURI",
        "offset": 0,
        "slot": "305",
        "type": "t_string_storage"
      },
      {
        "astId": 10378,
        "contract": "contracts/RetirementCertificates.sol:RetirementCertificates",
        "label": "contractRegistry",
        "offset": 0,
        "slot": "306",
        "type": "t_address"
      },
      {
        "astId": 10380,
        "contract": "contracts/RetirementCertificates.sol:RetirementCertificates",
        "label": "_tokenIds",
        "offset": 0,
        "slot": "307",
        "type": "t_uint256"
      },
      {
        "astId": 10385,
        "contract": "contracts/RetirementCertificates.sol:RetirementCertificates",
        "label": "certificates",
        "offset": 0,
        "slot": "308",
        "type": "t_mapping(t_uint256,t_struct(Data)10344_storage)"
      },
      {
        "astId": 10387,
        "contract": "contracts/RetirementCertificates.sol:RetirementCertificates",
        "label": "minValidRetirementAmount",
        "offset": 0,
        "slot": "309",
        "type": "t_uint256"
      },
      {
        "astId": 1885,
        "contract": "contracts/RetirementCertificates.sol:RetirementCertificates",
        "label": "_status",
        "offset": 0,
        "slot": "310",
        "type": "t_uint256"
      },
      {
        "astId": 1929,
        "contract": "contracts/RetirementCertificates.sol:RetirementCertificates",
        "label": "__gap",
        "offset": 0,
        "slot": "311",
        "type": "t_array(t_uint256)49_storage"
      }
    ],
    "types": {
      "t_address": {
        "encoding": "inplace",
        "label": "address",
        "numberOfBytes": "20"
      },
      "t_array(t_uint256)44_storage": {
        "base": "t_uint256",
        "encoding": "inplace",
        "label": "uint256[44]",
        "numberOfBytes": "1408"
      },
      "t_array(t_uint256)49_storage": {
        "base": "t_uint256",
        "encoding": "inplace",
        "label": "uint256[49]",
        "numberOfBytes": "1568"
      },
      "t_array(t_uint256)50_storage": {
        "base": "t_uint256",
        "encoding": "inplace",
        "label": "uint256[50]",
        "numberOfBytes": "1600"
      },
      "t_array(t_uint256)dyn_storage": {
        "base": "t_uint256",
        "encoding": "dynamic_array",
        "label": "uint256[]",
        "numberOfBytes": "32"
      },
      "t_bool": {
        "encoding": "inplace",
        "label": "bool",
        "numberOfBytes": "1"
      },
      "t_mapping(t_address,t_array(t_uint256)dyn_storage)": {
        "encoding": "mapping",
        "key": "t_address",
        "label": "mapping(address => uint256[])",
        "numberOfBytes": "32",
        "value": "t_array(t_uint256)dyn_storage"
      },
      "t_mapping(t_address,t_bool)": {
        "encoding": "mapping",
        "key": "t_address",
        "label": "mapping(address => bool)",
        "numberOfBytes": "32",
        "value": "t_bool"
      },
      "t_mapping(t_address,t_mapping(t_address,t_bool))": {
        "encoding": "mapping",
        "key": "t_address",
        "label": "mapping(address => mapping(address => bool))",
        "numberOfBytes": "32",
        "value": "t_mapping(t_address,t_bool)"
      },
      "t_mapping(t_address,t_uint256)": {
        "encoding": "mapping",
        "key": "t_address",
        "label": "mapping(address => uint256)",
        "numberOfBytes": "32",
        "value": "t_uint256"
      },
      "t_mapping(t_uint256,t_address)": {
        "encoding": "mapping",
        "key": "t_uint256",
        "label": "mapping(uint256 => address)",
        "numberOfBytes": "32",
        "value": "t_address"
      },
      "t_mapping(t_uint256,t_bool)": {
        "encoding": "mapping",
        "key": "t_uint256",
        "label": "mapping(uint256 => bool)",
        "numberOfBytes": "32",
        "value": "t_bool"
      },
      "t_mapping(t_uint256,t_struct(Data)10344_storage)": {
        "encoding": "mapping",
        "key": "t_uint256",
        "label": "mapping(uint256 => struct RetirementCertificatesStorageV1.Data)",
        "numberOfBytes": "32",
        "value": "t_struct(Data)10344_storage"
      },
      "t_mapping(t_uint256,t_struct(RetirementEvent)10354_storage)": {
        "encoding": "mapping",
        "key": "t_uint256",
        "label": "mapping(uint256 => struct RetirementCertificatesStorageV1.RetirementEvent)",
        "numberOfBytes": "32",
        "value": "t_struct(RetirementEvent)10354_storage"
      },
      "t_string_storage": {
        "encoding": "bytes",
        "label": "string",
        "numberOfBytes": "32"
      },
      "t_struct(Data)10344_storage": {
        "encoding": "inplace",
        "label": "struct RetirementCertificatesStorageV1.Data",
        "members": [
          {
            "astId": 10331,
            "contract": "contracts/RetirementCertificates.sol:RetirementCertificates",
            "label": "retirementEventIds",
            "offset": 0,
            "slot": "0",
            "type": "t_array(t_uint256)dyn_storage"
          },
          {
            "astId": 10333,
            "contract": "contracts/RetirementCertificates.sol:RetirementCertificates",
            "label": "createdAt",
            "offset": 0,
            "slot": "1",
            "type": "t_uint256"
          },
          {
            "astId": 10335,
            "contract": "contracts/RetirementCertificates.sol:RetirementCertificates",
            "label": "retiringEntity",
            "offset": 0,
            "slot": "2",
            "type": "t_address"
          },
          {
            "astId": 10337,
            "contract": "contracts/RetirementCertificates.sol:RetirementCertificates",
            "label": "beneficiary",
            "offset": 0,
            "slot": "3",
            "type": "t_address"
          },
          {
            "astId": 10339,
            "contract": "contracts/RetirementCertificates.sol:RetirementCertificates",
            "label": "retiringEntityString",
            "offset": 0,
            "slot": "4",
            "type": "t_string_storage"
          },
          {
            "astId": 10341,
            "contract": "contracts/RetirementCertificates.sol:RetirementCertificates",
            "label": "beneficiaryString",
            "offset": 0,
            "slot": "5",
            "type": "t_string_storage"
          },
          {
            "astId": 10343,
            "contract": "contracts/RetirementCertificates.sol:RetirementCertificates",
            "label": "retirementMessage",
            "offset": 0,
            "slot": "6",
            "type": "t_string_storage"
          }
        ],
        "numberOfBytes": "224"
      },
      "t_struct(RetirementEvent)10354_storage": {
        "encoding": "inplace",
        "label": "struct RetirementCertificatesStorageV1.RetirementEvent",
        "members": [
          {
            "astId": 10346,
            "contract": "contracts/RetirementCertificates.sol:RetirementCertificates",
            "label": "createdAt",
            "offset": 0,
            "slot": "0",
            "type": "t_uint256"
          },
          {
            "astId": 10348,
            "contract": "contracts/RetirementCertificates.sol:RetirementCertificates",
            "label": "retiringEntity",
            "offset": 0,
            "slot": "1",
            "type": "t_address"
          },
          {
            "astId": 10351,
            "contract": "contracts/RetirementCertificates.sol:RetirementCertificates",
            "label": "amount",
            "offset": 0,
            "slot": "2",
            "type": "t_uint256"
          },
          {
            "astId": 10353,
            "contract": "contracts/RetirementCertificates.sol:RetirementCertificates",
            "label": "projectVintageTokenId",
            "offset": 0,
            "slot": "3",
            "type": "t_uint256"
          }
        ],
        "numberOfBytes": "128"
      },
      "t_uint256": {
        "encoding": "inplace",
        "label": "uint256",
        "numberOfBytes": "32"
      },
      "t_uint8": {
        "encoding": "inplace",
        "label": "uint8",
        "numberOfBytes": "1"
      }
    }
  }
}