{
  "address": "0xbb90aA155B45E45FB8A49Ad8C30A7963885aE44a",
  "abi": [
    {
      "anonymous": false,
      "inputs": [
        {
          "indexed": false,
          "internalType": "address",
          "name": "previousAdmin",
          "type": "address"
        },
        {
          "indexed": false,
          "internalType": "address",
          "name": "newAdmin",
          "type": "address"
        }
      ],
      "name": "AdminChanged",
      "type": "event"
    },
    {
      "anonymous": false,
      "inputs": [
        {
          "indexed": true,
          "internalType": "address",
          "name": "beacon",
          "type": "address"
        }
      ],
      "name": "BeaconUpgraded",
      "type": "event"
    },
    {
      "anonymous": false,
      "inputs": [
        {
          "indexed": false,
          "internalType": "address",
          "name": "contractRegistry",
          "type": "address"
        }
      ],
      "name": "ContractRegistryUpdated",
      "type": "event"
    },
    {
      "anonymous": false,
      "inputs": [
        {
          "indexed": false,
          "internalType": "uint8",
          "name": "version",
          "type": "uint8"
        }
      ],
      "name": "Initialized",
      "type": "event"
    },
    {
      "anonymous": false,
      "inputs": [
        {
          "indexed": true,
          "internalType": "address",
          "name": "previousOwner",
          "type": "address"
        },
        {
          "indexed": true,
          "internalType": "address",
          "name": "newOwner",
          "type": "address"
        }
      ],
      "name": "OwnershipTransferred",
      "type": "event"
    },
    {
      "anonymous": false,
      "inputs": [
        {
          "indexed": false,
          "internalType": "address",
          "name": "account",
          "type": "address"
        }
      ],
      "name": "Paused",
      "type": "event"
    },
    {
      "anonymous": false,
      "inputs": [
        {
          "indexed": true,
          "internalType": "bytes32",
          "name": "role",
          "type": "bytes32"
        },
        {
          "indexed": true,
          "internalType": "bytes32",
          "name": "previousAdminRole",
          "type": "bytes32"
        },
        {
          "indexed": true,
          "internalType": "bytes32",
          "name": "newAdminRole",
          "type": "bytes32"
        }
      ],
      "name": "RoleAdminChanged",
      "type": "event"
    },
    {
      "anonymous": false,
      "inputs": [
        {
          "indexed": true,
          "internalType": "bytes32",
          "name": "role",
          "type": "bytes32"
        },
        {
          "indexed": true,
          "internalType": "address",
          "name": "account",
          "type": "address"
        },
        {
          "indexed": true,
          "internalType": "address",
          "name": "sender",
          "type": "address"
        }
      ],
      "name": "RoleGranted",
      "type": "event"
    },
    {
      "anonymous": false,
      "inputs": [
        {
          "indexed": true,
          "internalType": "bytes32",
          "name": "role",
          "type": "bytes32"
        },
        {
          "indexed": true,
          "internalType": "address",
          "name": "account",
          "type": "address"
        },
        {
          "indexed": true,
          "internalType": "address",
          "name": "sender",
          "type": "address"
        }
      ],
      "name": "RoleRevoked",
      "type": "event"
    },
    {
      "anonymous": false,
      "inputs": [
        {
          "indexed": false,
          "internalType": "address",
          "name": "account",
          "type": "address"
        }
      ],
      "name": "Unpaused",
      "type": "event"
    },
    {
      "anonymous": false,
      "inputs": [
        {
          "indexed": true,
          "internalType": "address",
          "name": "implementation",
          "type": "address"
        }
      ],
      "name": "Upgraded",
      "type": "event"
    },
    {
      "inputs": [],
      "name": "DEFAULT_ADMIN_ROLE",
      "outputs": [
        {
          "internalType": "bytes32",
          "name": "",
          "type": "bytes32"
        }
      ],
      "stateMutability": "view",
      "type": "function"
    },
    {
      "inputs": [],
      "name": "PAUSER_ROLE",
      "outputs": [
        {
          "internalType": "bytes32",
          "name": "",
          "type": "bytes32"
        }
      ],
      "stateMutability": "view",
      "type": "function"
    },
    {
      "inputs": [],
      "name": "VERSION",
      "outputs": [
        {
          "internalType": "string",
          "name": "",
          "type": "string"
        }
      ],
      "stateMutability": "view",
      "type": "function"
    },
    {
      "inputs": [],
      "name": "VERSION_RELEASE_CANDIDATE",
      "outputs": [
        {
          "internalType": "uint256",
          "name": "",
          "type": "uint256"
        }
      ],
      "stateMutability": "view",
      "type": "function"
    },
    {
      "inputs": [],
      "name": "contractRegistry",
      "outputs": [
        {
          "internalType": "address",
          "name": "",
          "type": "address"
        }
      ],
      "stateMutability": "view",
      "type": "function"
    },
    {
      "inputs": [
        {
          "internalType": "address",
          "name": "user",
          "type": "address"
        },
        {
          "internalType": "uint256",
          "name": "amount",
          "type": "uint256"
        },
        {
          "internalType": "uint256[]",
          "name": "batchTokenIds",
          "type": "uint256[]"
        }
      ],
      "name": "createDetokenizationRequest",
      "outputs": [
        {
          "internalType": "uint256",
          "name": "",
          "type": "uint256"
        }
      ],
      "stateMutability": "nonpayable",
      "type": "function"
    },
    {
      "inputs": [
        {
          "internalType": "uint256",
          "name": "requestId",
          "type": "uint256"
        }
      ],
      "name": "detokenizationRequests",
      "outputs": [
        {
          "components": [
            {
              "internalType": "address",
              "name": "user",
              "type": "address"
            },
            {
              "internalType": "uint256",
              "name": "amount",
              "type": "uint256"
            },
            {
              "internalType": "enum RequestStatus",
              "name": "status",
              "type": "uint8"
            },
            {
              "internalType": "uint256[]",
              "name": "batchTokenIds",
              "type": "uint256[]"
            }
          ],
          "internalType": "struct DetokenizationRequest",
          "name": "",
          "type": "tuple"
        }
      ],
      "stateMutability": "view",
      "type": "function"
    },
    {
      "inputs": [
        {
          "internalType": "uint256",
          "name": "requestId",
          "type": "uint256"
        }
      ],
      "name": "finalizeDetokenizationRequest",
      "outputs": [],
      "stateMutability": "nonpayable",
      "type": "function"
    },
    {
      "inputs": [
        {
          "internalType": "bytes32",
          "name": "role",
          "type": "bytes32"
        }
      ],
      "name": "getRoleAdmin",
      "outputs": [
        {
          "internalType": "bytes32",
          "name": "",
          "type": "bytes32"
        }
      ],
      "stateMutability": "view",
      "type": "function"
    },
    {
      "inputs": [
        {
          "internalType": "bytes32",
          "name": "role",
          "type": "bytes32"
        },
        {
          "internalType": "address",
          "name": "account",
          "type": "address"
        }
      ],
      "name": "grantRole",
      "outputs": [],
      "stateMutability": "nonpayable",
      "type": "function"
    },
    {
      "inputs": [
        {
          "internalType": "bytes32",
          "name": "role",
          "type": "bytes32"
        },
        {
          "internalType": "address",
          "name": "account",
          "type": "address"
        }
      ],
      "name": "hasRole",
      "outputs": [
        {
          "internalType": "bool",
          "name": "",
          "type": "bool"
        }
      ],
      "stateMutability": "view",
      "type": "function"
    },
    {
      "inputs": [
        {
          "internalType": "address",
          "name": "_contractRegistry",
          "type": "address"
        },
        {
          "internalType": "address[]",
          "name": "_accounts",
          "type": "address[]"
        },
        {
          "internalType": "bytes32[]",
          "name": "_roles",
          "type": "bytes32[]"
        }
      ],
      "name": "initialize",
      "outputs": [],
      "stateMutability": "nonpayable",
      "type": "function"
    },
    {
      "inputs": [],
      "name": "owner",
      "outputs": [
        {
          "internalType": "address",
          "name": "",
          "type": "address"
        }
      ],
      "stateMutability": "view",
      "type": "function"
    },
    {
      "inputs": [],
      "name": "pause",
      "outputs": [],
      "stateMutability": "nonpayable",
      "type": "function"
    },
    {
      "inputs": [],
      "name": "paused",
      "outputs": [
        {
          "internalType": "bool",
          "name": "",
          "type": "bool"
        }
      ],
      "stateMutability": "view",
      "type": "function"
    },
    {
      "inputs": [],
      "name": "proxiableUUID",
      "outputs": [
        {
          "internalType": "bytes32",
          "name": "",
          "type": "bytes32"
        }
      ],
      "stateMutability": "view",
      "type": "function"
    },
    {
      "inputs": [],
      "name": "renounceOwnership",
      "outputs": [],
      "stateMutability": "nonpayable",
      "type": "function"
    },
    {
      "inputs": [
        {
          "internalType": "bytes32",
          "name": "role",
          "type": "bytes32"
        },
        {
          "internalType": "address",
          "name": "account",
          "type": "address"
        }
      ],
      "name": "renounceRole",
      "outputs": [],
      "stateMutability": "nonpayable",
      "type": "function"
    },
    {
      "inputs": [],
      "name": "requestIdCounter",
      "outputs": [
        {
          "internalType": "uint256",
          "name": "",
          "type": "uint256"
        }
      ],
      "stateMutability": "view",
      "type": "function"
    },
    {
      "inputs": [
        {
          "internalType": "uint256",
          "name": "requestId",
          "type": "uint256"
        }
      ],
      "name": "revertDetokenizationRequest",
      "outputs": [],
      "stateMutability": "nonpayable",
      "type": "function"
    },
    {
      "inputs": [
        {
          "internalType": "bytes32",
          "name": "role",
          "type": "bytes32"
        },
        {
          "internalType": "address",
          "name": "account",
          "type": "address"
        }
      ],
      "name": "revokeRole",
      "outputs": [],
      "stateMutability": "nonpayable",
      "type": "function"
    },
    {
      "inputs": [
        {
          "internalType": "address",
          "name": "_address",
          "type": "address"
        }
      ],
      "name": "setToucanContractRegistry",
      "outputs": [],
      "stateMutability": "nonpayable",
      "type": "function"
    },
    {
      "inputs": [
        {
          "internalType": "bytes4",
          "name": "interfaceId",
          "type": "bytes4"
        }
      ],
      "name": "supportsInterface",
      "outputs": [
        {
          "internalType": "bool",
          "name": "",
          "type": "bool"
        }
      ],
      "stateMutability": "view",
      "type": "function"
    },
    {
      "inputs": [
        {
          "internalType": "address",
          "name": "newOwner",
          "type": "address"
        }
      ],
      "name": "transferOwnership",
      "outputs": [],
      "stateMutability": "nonpayable",
      "type": "function"
    },
    {
      "inputs": [],
      "name": "unpause",
      "outputs": [],
      "stateMutability": "nonpayable",
      "type": "function"
    },
    {
      "inputs": [
        {
          "internalType": "address",
          "name": "newImplementation",
          "type": "address"
        }
      ],
      "name": "upgradeTo",
      "outputs": [],
      "stateMutability": "nonpayable",
      "type": "function"
    },
    {
      "inputs": [
        {
          "internalType": "address",
          "name": "newImplementation",
          "type": "address"
        },
        {
          "internalType": "bytes",
          "name": "data",
          "type": "bytes"
        }
      ],
      "name": "upgradeToAndCall",
      "outputs": [],
      "stateMutability": "payable",
      "type": "function"
    }
  ],
  "numDeployments": 1,
  "solcInputHash": "a7a5c0fd7af06c3b83c5cbcb47520381",
  "bytecode": "0x60a06040523060805234801561001457600080fd5b506080516125de61004c6000396000818161061801528181610658015281816107290152818161076901526107f801526125de6000f3fe60806040526004361061019c5760003560e01c80638da5cb5b116100ec578063e63ab1e91161008a578063ebe5b46011610064578063ebe5b4601461048b578063f2fde38b146104ab578063f8d8353f146104cb578063ffa1ad74146104eb57600080fd5b8063e63ab1e914610417578063e882e37b1461044b578063ea158df81461046b57600080fd5b8063a217fddf116100c6578063a217fddf146103a1578063abf410e5146103b6578063c346a8bf146103d7578063d547741f146103f757600080fd5b80638da5cb5b146103385780638db5888a1461036a57806391d148541461038157600080fd5b80634f1ef286116101595780635c975abb116101335780635c975abb146102e15780636ca0b0d7146102f9578063715018a61461030e5780638456cb591461032357600080fd5b80634f1ef2861461028c57806352d1902d1461029f5780635860ef5d146102b457600080fd5b806301ffc9a7146101a1578063248a9ca3146101d65780632f2ff15d1461021557806336568abe146102375780633659cfe6146102575780633f4ba83a14610277575b600080fd5b3480156101ad57600080fd5b506101c16101bc366004611ed1565b610529565b60405190151581526020015b60405180910390f35b3480156101e257600080fd5b506102076101f1366004611efb565b600090815261012d602052604090206001015490565b6040519081526020016101cd565b34801561022157600080fd5b50610235610230366004611f2b565b610560565b005b34801561024357600080fd5b50610235610252366004611f2b565b61058b565b34801561026357600080fd5b50610235610272366004611f57565b61060e565b34801561028357600080fd5b506102356106ed565b61023561029a366004611f88565b61071f565b3480156102ab57600080fd5b506102076107eb565b3480156102c057600080fd5b506102d46102cf366004611efb565b61089e565b6040516101cd9190612060565b3480156102ed57600080fd5b5060655460ff166101c1565b34801561030557600080fd5b50610207600281565b34801561031a57600080fd5b50610235610984565b34801561032f57600080fd5b506102356109ba565b34801561034457600080fd5b506033546001600160a01b03165b6040516001600160a01b0390911681526020016101cd565b34801561037657600080fd5b506102076101605481565b34801561038d57600080fd5b506101c161039c366004611f2b565b6109ec565b3480156103ad57600080fd5b50610207600081565b3480156103c257600080fd5b5061015f54610352906001600160a01b031681565b3480156103e357600080fd5b506102076103f2366004612140565b610a18565b34801561040357600080fd5b50610235610412366004611f2b565b610ba7565b34801561042357600080fd5b506102077f65d7a28e3265b37a6474929f336521b332c1681b933f6cb9f3376673440d862a81565b34801561045757600080fd5b50610235610466366004611f57565b610bcd565b34801561047757600080fd5b50610235610486366004611efb565b610c4c565b34801561049757600080fd5b506102356104a6366004611efb565b610d6f565b3480156104b757600080fd5b506102356104c6366004611f57565b610ee0565b3480156104d757600080fd5b506102356104e636600461219a565b610f78565b3480156104f757600080fd5b5061051c604051806040016040528060058152602001640312e302e360dc1b81525081565b6040516101cd9190612247565b60006001600160e01b03198216637965db0b60e01b148061055a57506301ffc9a760e01b6001600160e01b03198316145b92915050565b600082815261012d602052604090206001015461057c81611170565b610586838361117a565b505050565b6001600160a01b03811633146106005760405162461bcd60e51b815260206004820152602f60248201527f416363657373436f6e74726f6c3a2063616e206f6e6c792072656e6f756e636560448201526e103937b632b9903337b91039b2b63360891b60648201526084015b60405180910390fd5b61060a8282611201565b5050565b6001600160a01b037f00000000000000000000000000000000000000000000000000000000000000001630036106565760405162461bcd60e51b81526004016105f79061227a565b7f00000000000000000000000000000000000000000000000000000000000000006001600160a01b031661069f600080516020612562833981519152546001600160a01b031690565b6001600160a01b0316146106c55760405162461bcd60e51b81526004016105f7906122c6565b6106ce81611269565b604080516000808252602082019092526106ea91839190611293565b50565b7f65d7a28e3265b37a6474929f336521b332c1681b933f6cb9f3376673440d862a61071781611170565b6106ea6113fe565b6001600160a01b037f00000000000000000000000000000000000000000000000000000000000000001630036107675760405162461bcd60e51b81526004016105f79061227a565b7f00000000000000000000000000000000000000000000000000000000000000006001600160a01b03166107b0600080516020612562833981519152546001600160a01b031690565b6001600160a01b0316146107d65760405162461bcd60e51b81526004016105f7906122c6565b6107df82611269565b61060a82826001611293565b6000306001600160a01b037f0000000000000000000000000000000000000000000000000000000000000000161461088b5760405162461bcd60e51b815260206004820152603860248201527f555550535570677261646561626c653a206d757374206e6f742062652063616c60448201527f6c6564207468726f7567682064656c656761746563616c6c000000000000000060648201526084016105f7565b5060008051602061256283398151915290565b6040805160808082018352600080835260208084018290528385018290526060808501528582526101618152908490208451928301855280546001600160a01b0316835260018101549183019190915260028082015493949293919284019160ff16908111156109105761091061204a565b60028111156109215761092161204a565b81526020016003820180548060200260200160405190810160405280929190818152602001828054801561097457602002820191906000526020600020905b815481526020019060010190808311610960575b5050505050815250509050919050565b6033546001600160a01b031633146109ae5760405162461bcd60e51b81526004016105f790612312565b6109b86000611491565b565b7f65d7a28e3265b37a6474929f336521b332c1681b933f6cb9f3376673440d862a6109e481611170565b6106ea6114e3565b600091825261012d602090815260408084206001600160a01b0393909316845291905290205460ff1690565b61015f54604051633a37b16d60e11b81523360048201526000916001600160a01b03169063746f62da90602401602060405180830381865afa158015610a62573d6000803e3d6000fd5b505050506040513d601f19601f82011682018060405250810190610a869190612347565b610aa25760405162461bcd60e51b81526004016105f790612369565b610160805460010190819055604080516080810182526001600160a01b0388168152602081018790529081016000815260200185858080602002602001604051908101604052809392919081815260200183836020028082843760009201829052509390945250508381526101616020908152604091829020845181546001600160a01b0319166001600160a01b039091161781559084015160018083019190915591840151600280830180549395509193919260ff191691908490811115610b6d57610b6d61204a565b021790555060608201518051610b8d916003840191602090910190611e71565b50610b9e915033905087308861155e565b95945050505050565b600082815261012d6020526040902060010154610bc381611170565b6105868383611201565b6033546001600160a01b03163314610bf75760405162461bcd60e51b81526004016105f790612312565b61015f80546001600160a01b0319166001600160a01b0383169081179091556040519081527fb3a6e7c81ebdb0cf9bf28d5ddf6678ded8d73b44f2eee06ca3974dbb9f41ce7e9060200160405180910390a150565b61015f54604051633a37b16d60e11b81523360048201526001600160a01b039091169063746f62da90602401602060405180830381865afa158015610c95573d6000803e3d6000fd5b505050506040513d601f19601f82011682018060405250810190610cb99190612347565b610cd55760405162461bcd60e51b81526004016105f790612369565b6000818152610161602052604081209060028083015460ff1690811115610cfe57610cfe61204a565b14610d415760405162461bcd60e51b8152602060048201526013602482015272139bdd081c195b991a5b99c81c995c5d595cdd606a1b60448201526064016105f7565b6002818101805460ff191690911790558054600182015461060a9133916001600160a01b03909116906115cf565b61015f54604051633a37b16d60e11b81523360048201526001600160a01b039091169063746f62da90602401602060405180830381865afa158015610db8573d6000803e3d6000fd5b505050506040513d601f19601f82011682018060405250810190610ddc9190612347565b610df85760405162461bcd60e51b81526004016105f790612369565b6000818152610161602052604081209060028083015460ff1690811115610e2157610e2161204a565b14610e645760405162461bcd60e51b8152602060048201526013602482015272139bdd081c195b991a5b99c81c995c5d595cdd606a1b60448201526064016105f7565b60028101805460ff19166001908117909155810154610e843330836115ff565b60405163079cc67960e41b81523060048201526024810182905233906379cc679090604401600060405180830381600087803b158015610ec357600080fd5b505af1158015610ed7573d6000803e3d6000fd5b50505050505050565b6033546001600160a01b03163314610f0a5760405162461bcd60e51b81526004016105f790612312565b6001600160a01b038116610f6f5760405162461bcd60e51b815260206004820152602660248201527f4f776e61626c653a206e6577206f776e657220697320746865207a65726f206160448201526564647265737360d01b60648201526084016105f7565b6106ea81611491565b6000610f846001611714565b90508015610f9c576000805461ff0019166101001790555b838214610fe35760405162461bcd60e51b8152602060048201526015602482015274082e4e4c2f240d8cadccee8d040dad2e6dac2e8c6d605b1b60448201526064016105f7565b610feb6117a1565b610ff36117d1565b610ffb611804565b611003611804565b6000805b8581101561108c576110578585838181106110245761102461238b565b9050602002013588888481811061103d5761103d61238b565b90506020020160208101906110529190611f57565b61117a565b600085858381811061106b5761106b61238b565b905060200201350361107c57600191505b611085816123b7565b9050611007565b50806110cf5760405162461bcd60e51b8152602060048201526012602482015271139bc818591b5a5b881cdc1958da599a595960721b60448201526064016105f7565b61015f80546001600160a01b0319166001600160a01b0389169081179091556040519081527fb3a6e7c81ebdb0cf9bf28d5ddf6678ded8d73b44f2eee06ca3974dbb9f41ce7e9060200160405180910390a1508015611168576000805461ff0019169055604051600181527f7f26b83ff96e1f2b6a682f133852f6798a09c465da95921460cefb38474024989060200160405180910390a15b505050505050565b6106ea813361182b565b61118482826109ec565b61060a57600082815261012d602090815260408083206001600160a01b03851684529091529020805460ff191660011790556111bd3390565b6001600160a01b0316816001600160a01b0316837f2f8788117e7eff1d82e926ec794901d17c78024a50270940304540a733656f0d60405160405180910390a45050565b61120b82826109ec565b1561060a57600082815261012d602090815260408083206001600160a01b0385168085529252808320805460ff1916905551339285917ff6391f5c32d9c69d2a47ea670b442974b53935d1edc7fd64eb21e047a839171b9190a45050565b6033546001600160a01b031633146106ea5760405162461bcd60e51b81526004016105f790612312565b7f4910fdfa16fed3260ed0e7147f7cc6da11a60208b5b9406d12a635614ffd91435460ff16156112c6576105868361188f565b826001600160a01b03166352d1902d6040518163ffffffff1660e01b8152600401602060405180830381865afa925050508015611320575060408051601f3d908101601f1916820190925261131d918101906123d0565b60015b6113835760405162461bcd60e51b815260206004820152602e60248201527f45524331393637557067726164653a206e657720696d706c656d656e7461746960448201526d6f6e206973206e6f74205555505360901b60648201526084016105f7565b60008051602061256283398151915281146113f25760405162461bcd60e51b815260206004820152602960248201527f45524331393637557067726164653a20756e737570706f727465642070726f786044820152681a58589b195555525160ba1b60648201526084016105f7565b5061058683838361192b565b60655460ff166114475760405162461bcd60e51b815260206004820152601460248201527314185d5cd8589b194e881b9bdd081c185d5cd95960621b60448201526064016105f7565b6065805460ff191690557f5db9ee0a495bf2e6ff9c91a7834c1ba4fdd244a5e8aa4e537bd38aeae4b073aa335b6040516001600160a01b03909116815260200160405180910390a1565b603380546001600160a01b038381166001600160a01b0319831681179093556040519116919082907f8be0079c531659141344cd1fd0a4f28419497f9722a3daafe3b4186f6b6457e090600090a35050565b60655460ff16156115295760405162461bcd60e51b815260206004820152601060248201526f14185d5cd8589b194e881c185d5cd95960821b60448201526064016105f7565b6065805460ff191660011790557f62e78cea01bee320cd4e420270b5ea74000d11b0c9f74754ebdbfc544b05a2586114743390565b6040516001600160a01b03808516602483015283166044820152606481018290526115c99085906323b872dd60e01b906084015b60408051601f198184030181529190526020810180516001600160e01b03166001600160e01b031990931692909217909152611950565b50505050565b6040516001600160a01b03831660248201526044810182905261058690849063a9059cbb60e01b90606401611592565b8015806116795750604051636eb1769f60e11b81523060048201526001600160a01b03838116602483015284169063dd62ed3e90604401602060405180830381865afa158015611653573d6000803e3d6000fd5b505050506040513d601f19601f8201168201806040525081019061167791906123d0565b155b6116e45760405162461bcd60e51b815260206004820152603660248201527f5361666545524332303a20617070726f76652066726f6d206e6f6e2d7a65726f60448201527520746f206e6f6e2d7a65726f20616c6c6f77616e636560501b60648201526084016105f7565b6040516001600160a01b03831660248201526044810182905261058690849063095ea7b360e01b90606401611592565b60008054610100900460ff161561175b578160ff1660011480156117375750303b155b6117535760405162461bcd60e51b81526004016105f7906123e9565b506000919050565b60005460ff8084169116106117825760405162461bcd60e51b81526004016105f7906123e9565b506000805460ff191660ff92909216919091179055600190565b919050565b600054610100900460ff166117c85760405162461bcd60e51b81526004016105f790612437565b6109b833611491565b600054610100900460ff166117f85760405162461bcd60e51b81526004016105f790612437565b6065805460ff19169055565b600054610100900460ff166109b85760405162461bcd60e51b81526004016105f790612437565b61183582826109ec565b61060a5761184d816001600160a01b03166014611a22565b611858836020611a22565b604051602001611869929190612482565b60408051601f198184030181529082905262461bcd60e51b82526105f791600401612247565b6001600160a01b0381163b6118fc5760405162461bcd60e51b815260206004820152602d60248201527f455243313936373a206e657720696d706c656d656e746174696f6e206973206e60448201526c1bdd08184818dbdb9d1c9858dd609a1b60648201526084016105f7565b60008051602061256283398151915280546001600160a01b0319166001600160a01b0392909216919091179055565b61193483611bc5565b6000825111806119415750805b15610586576115c98383611c05565b60006119a5826040518060400160405280602081526020017f5361666545524332303a206c6f772d6c6576656c2063616c6c206661696c6564815250856001600160a01b0316611cf09092919063ffffffff16565b80519091501561058657808060200190518101906119c39190612347565b6105865760405162461bcd60e51b815260206004820152602a60248201527f5361666545524332303a204552433230206f7065726174696f6e20646964206e6044820152691bdd081cdd58d8d9595960b21b60648201526084016105f7565b60606000611a318360026124f7565b611a3c906002612516565b67ffffffffffffffff811115611a5457611a54611f72565b6040519080825280601f01601f191660200182016040528015611a7e576020820181803683370190505b509050600360fc1b81600081518110611a9957611a9961238b565b60200101906001600160f81b031916908160001a905350600f60fb1b81600181518110611ac857611ac861238b565b60200101906001600160f81b031916908160001a9053506000611aec8460026124f7565b611af7906001612516565b90505b6001811115611b6f576f181899199a1a9b1b9c1cb0b131b232b360811b85600f1660108110611b2b57611b2b61238b565b1a60f81b828281518110611b4157611b4161238b565b60200101906001600160f81b031916908160001a90535060049490941c93611b688161252e565b9050611afa565b508315611bbe5760405162461bcd60e51b815260206004820181905260248201527f537472696e67733a20686578206c656e67746820696e73756666696369656e7460448201526064016105f7565b9392505050565b611bce8161188f565b6040516001600160a01b038216907fbc7cd75a20ee27fd9adebab32041f755214dbc6bffa90cc0225b39da2e5c2d3b90600090a250565b60606001600160a01b0383163b611c6d5760405162461bcd60e51b815260206004820152602660248201527f416464726573733a2064656c65676174652063616c6c20746f206e6f6e2d636f6044820152651b9d1c9858dd60d21b60648201526084016105f7565b600080846001600160a01b031684604051611c889190612545565b600060405180830381855af49150503d8060008114611cc3576040519150601f19603f3d011682016040523d82523d6000602084013e611cc8565b606091505b5091509150610b9e828260405180606001604052806027815260200161258260279139611d07565b6060611cff8484600085611d40565b949350505050565b60608315611d16575081611bbe565b825115611d265782518084602001fd5b8160405162461bcd60e51b81526004016105f79190612247565b606082471015611da15760405162461bcd60e51b815260206004820152602660248201527f416464726573733a20696e73756666696369656e742062616c616e636520666f6044820152651c8818d85b1b60d21b60648201526084016105f7565b6001600160a01b0385163b611df85760405162461bcd60e51b815260206004820152601d60248201527f416464726573733a2063616c6c20746f206e6f6e2d636f6e747261637400000060448201526064016105f7565b600080866001600160a01b03168587604051611e149190612545565b60006040518083038185875af1925050503d8060008114611e51576040519150601f19603f3d011682016040523d82523d6000602084013e611e56565b606091505b5091509150611e66828286611d07565b979650505050505050565b828054828255906000526020600020908101928215611eac579160200282015b82811115611eac578251825591602001919060010190611e91565b50611eb8929150611ebc565b5090565b5b80821115611eb85760008155600101611ebd565b600060208284031215611ee357600080fd5b81356001600160e01b031981168114611bbe57600080fd5b600060208284031215611f0d57600080fd5b5035919050565b80356001600160a01b038116811461179c57600080fd5b60008060408385031215611f3e57600080fd5b82359150611f4e60208401611f14565b90509250929050565b600060208284031215611f6957600080fd5b611bbe82611f14565b634e487b7160e01b600052604160045260246000fd5b60008060408385031215611f9b57600080fd5b611fa483611f14565b9150602083013567ffffffffffffffff80821115611fc157600080fd5b818501915085601f830112611fd557600080fd5b813581811115611fe757611fe7611f72565b604051601f8201601f19908116603f0116810190838211818310171561200f5761200f611f72565b8160405282815288602084870101111561202857600080fd5b8260208601602083013760006020848301015280955050505050509250929050565b634e487b7160e01b600052602160045260246000fd5b6000602080835260a0830160018060a01b03855116828501528185015160408501526040850151600381106120a557634e487b7160e01b600052602160045260246000fd5b60608581019190915285015160808086015280519182905282019060009060c08601905b808310156120e957835182529284019260019290920191908401906120c9565b509695505050505050565b60008083601f84011261210657600080fd5b50813567ffffffffffffffff81111561211e57600080fd5b6020830191508360208260051b850101111561213957600080fd5b9250929050565b6000806000806060858703121561215657600080fd5b61215f85611f14565b935060208501359250604085013567ffffffffffffffff81111561218257600080fd5b61218e878288016120f4565b95989497509550505050565b6000806000806000606086880312156121b257600080fd5b6121bb86611f14565b9450602086013567ffffffffffffffff808211156121d857600080fd5b6121e489838a016120f4565b909650945060408801359150808211156121fd57600080fd5b5061220a888289016120f4565b969995985093965092949392505050565b60005b8381101561223657818101518382015260200161221e565b838111156115c95750506000910152565b602081526000825180602084015261226681604085016020870161221b565b601f01601f19169190910160400192915050565b6020808252602c908201527f46756e6374696f6e206d7573742062652063616c6c6564207468726f7567682060408201526b19195b1959d85d1958d85b1b60a21b606082015260800190565b6020808252602c908201527f46756e6374696f6e206d7573742062652063616c6c6564207468726f7567682060408201526b6163746976652070726f787960a01b606082015260800190565b6020808252818101527f4f776e61626c653a2063616c6c6572206973206e6f7420746865206f776e6572604082015260600190565b60006020828403121561235957600080fd5b81518015158114611bbe57600080fd5b6020808252600890820152672737ba102a21a79960c11b604082015260600190565b634e487b7160e01b600052603260045260246000fd5b634e487b7160e01b600052601160045260246000fd5b6000600182016123c9576123c96123a1565b5060010190565b6000602082840312156123e257600080fd5b5051919050565b6020808252602e908201527f496e697469616c697a61626c653a20636f6e747261637420697320616c72656160408201526d191e481a5b9a5d1a585b1a5e995960921b606082015260800190565b6020808252602b908201527f496e697469616c697a61626c653a20636f6e7472616374206973206e6f74206960408201526a6e697469616c697a696e6760a81b606082015260800190565b7f416363657373436f6e74726f6c3a206163636f756e74200000000000000000008152600083516124ba81601785016020880161221b565b7001034b99036b4b9b9b4b733903937b6329607d1b60179184019182015283516124eb81602884016020880161221b565b01602801949350505050565b6000816000190483118215151615612511576125116123a1565b500290565b60008219821115612529576125296123a1565b500190565b60008161253d5761253d6123a1565b506000190190565b6000825161255781846020870161221b565b919091019291505056fe360894a13ba1a3210667c828492db98dca3e2076cc3735a920a3ca505d382bbc416464726573733a206c6f772d6c6576656c2064656c65676174652063616c6c206661696c6564a26469706673582212204a3b250922aaac537fd650dba94b671748279764be82789897331aa3a42152c964736f6c634300080e0033",
  "devdoc": {
    "kind": "dev",
    "methods": {
      "createDetokenizationRequest(address,uint256,uint256[])": {
        "details": "Only a TCO2 contract can call this function. Additionally, the escrow contract must have been approved to transfer the amount of TCO2 to detokenize.",
        "params": {
          "amount": "The amount of TCO2 to detokenize.",
          "batchTokenIds": "The ids of the batches to detokenize.",
          "user": "The user that is requesting the detokenization."
        }
      },
      "finalizeDetokenizationRequest(uint256)": {
        "details": "Only the TCO2 contract can call this function.",
        "params": {
          "requestId": "The id of the request to finalize."
        }
      },
      "getRoleAdmin(bytes32)": {
        "details": "Returns the admin role that controls `role`. See {grantRole} and {revokeRole}. To change a role's admin, use {_setRoleAdmin}."
      },
      "grantRole(bytes32,address)": {
        "details": "Grants `role` to `account`. If `account` had not been already granted `role`, emits a {RoleGranted} event. Requirements: - the caller must have ``role``'s admin role."
      },
      "hasRole(bytes32,address)": {
        "details": "Returns `true` if `account` has been granted `role`."
      },
      "owner()": {
        "details": "Returns the address of the current owner."
      },
      "paused()": {
        "details": "Returns true if the contract is paused, and false otherwise."
      },
      "proxiableUUID()": {
        "details": "Implementation of the ERC1822 {proxiableUUID} function. This returns the storage slot used by the implementation. It is used to validate that the this implementation remains valid after an upgrade. IMPORTANT: A proxy pointing at a proxiable contract should not be considered proxiable itself, because this risks bricking a proxy that upgrades to it, by delegating to itself until out of gas. Thus it is critical that this function revert if invoked through a proxy. This is guaranteed by the `notDelegated` modifier."
      },
      "renounceOwnership()": {
        "details": "Leaves the contract without owner. It will not be possible to call `onlyOwner` functions anymore. Can only be called by the current owner. NOTE: Renouncing ownership will leave the contract without an owner, thereby removing any functionality that is only available to the owner."
      },
      "renounceRole(bytes32,address)": {
        "details": "Revokes `role` from the calling account. Roles are often managed via {grantRole} and {revokeRole}: this function's purpose is to provide a mechanism for accounts to lose their privileges if they are compromised (such as when a trusted device is misplaced). If the calling account had been revoked `role`, emits a {RoleRevoked} event. Requirements: - the caller must be `account`."
      },
      "revertDetokenizationRequest(uint256)": {
        "details": "Only the TCO2 contract can call this function.",
        "params": {
          "requestId": "The id of the request to revert."
        }
      },
      "revokeRole(bytes32,address)": {
        "details": "Revokes `role` from `account`. If `account` had been granted `role`, emits a {RoleRevoked} event. Requirements: - the caller must have ``role``'s admin role."
      },
      "supportsInterface(bytes4)": {
        "details": "See {IERC165-supportsInterface}."
      },
      "transferOwnership(address)": {
        "details": "Transfers ownership of the contract to a new account (`newOwner`). Can only be called by the current owner."
      },
      "upgradeTo(address)": {
        "details": "Upgrade the implementation of the proxy to `newImplementation`. Calls {_authorizeUpgrade}. Emits an {Upgraded} event."
      },
      "upgradeToAndCall(address,bytes)": {
        "details": "Upgrade the implementation of the proxy to `newImplementation`, and subsequently execute the function call encoded in `data`. Calls {_authorizeUpgrade}. Emits an {Upgraded} event."
      }
    },
    "stateVariables": {
      "PAUSER_ROLE": {
        "details": "All roles related to accessing this contract"
      },
      "VERSION": {
        "details": "Version-related parameters. VERSION keeps track of production releases. VERSION_RELEASE_CANDIDATE keeps track of iterations of a VERSION in our staging environment."
      }
    },
    "version": 1
  },
  "userdoc": {
    "kind": "user",
    "methods": {
      "createDetokenizationRequest(address,uint256,uint256[])": {
        "notice": "Create a new detokenization request."
      },
      "finalizeDetokenizationRequest(uint256)": {
        "notice": "Finalize a detokenization request by burning its amount of TCO2."
      },
      "revertDetokenizationRequest(uint256)": {
        "notice": "Revert a request by transfering amount of TCO2 back to the user."
      }
    },
    "notice": "Contract for escrowing TCO2s during detokenization or retirement until the off-chain registry confirms the detokenization or retirement request.",
    "version": 1
  },
  "storageLayout": {
    "storage": [
      {
        "astId": 1489,
        "contract": "contracts/ToucanCarbonOffsetsEscrow.sol:ToucanCarbonOffsetsEscrow",
        "label": "_initialized",
        "offset": 0,
        "slot": "0",
        "type": "t_uint8"
      },
      {
        "astId": 1492,
        "contract": "contracts/ToucanCarbonOffsetsEscrow.sol:ToucanCarbonOffsetsEscrow",
        "label": "_initializing",
        "offset": 1,
        "slot": "0",
        "type": "t_bool"
      },
      {
        "astId": 4593,
        "contract": "contracts/ToucanCarbonOffsetsEscrow.sol:ToucanCarbonOffsetsEscrow",
        "label": "__gap",
        "offset": 0,
        "slot": "1",
        "type": "t_array(t_uint256)50_storage"
      },
      {
        "astId": 980,
        "contract": "contracts/ToucanCarbonOffsetsEscrow.sol:ToucanCarbonOffsetsEscrow",
        "label": "_owner",
        "offset": 0,
        "slot": "51",
        "type": "t_address"
      },
      {
        "astId": 1092,
        "contract": "contracts/ToucanCarbonOffsetsEscrow.sol:ToucanCarbonOffsetsEscrow",
        "label": "__gap",
        "offset": 0,
        "slot": "52",
        "type": "t_array(t_uint256)49_storage"
      },
      {
        "astId": 1781,
        "contract": "contracts/ToucanCarbonOffsetsEscrow.sol:ToucanCarbonOffsetsEscrow",
        "label": "_paused",
        "offset": 0,
        "slot": "101",
        "type": "t_bool"
      },
      {
        "astId": 1870,
        "contract": "contracts/ToucanCarbonOffsetsEscrow.sol:ToucanCarbonOffsetsEscrow",
        "label": "__gap",
        "offset": 0,
        "slot": "102",
        "type": "t_array(t_uint256)49_storage"
      },
      {
        "astId": 1471,
        "contract": "contracts/ToucanCarbonOffsetsEscrow.sol:ToucanCarbonOffsetsEscrow",
        "label": "__gap",
        "offset": 0,
        "slot": "151",
        "type": "t_array(t_uint256)50_storage"
      },
      {
        "astId": 1759,
        "contract": "contracts/ToucanCarbonOffsetsEscrow.sol:ToucanCarbonOffsetsEscrow",
        "label": "__gap",
        "offset": 0,
        "slot": "201",
        "type": "t_array(t_uint256)50_storage"
      },
      {
        "astId": 4900,
        "contract": "contracts/ToucanCarbonOffsetsEscrow.sol:ToucanCarbonOffsetsEscrow",
        "label": "__gap",
        "offset": 0,
        "slot": "251",
        "type": "t_array(t_uint256)50_storage"
      },
      {
        "astId": 596,
        "contract": "contracts/ToucanCarbonOffsetsEscrow.sol:ToucanCarbonOffsetsEscrow",
        "label": "_roles",
        "offset": 0,
        "slot": "301",
        "type": "t_mapping(t_bytes32,t_struct(RoleData)591_storage)"
      },
      {
        "astId": 895,
        "contract": "contracts/ToucanCarbonOffsetsEscrow.sol:ToucanCarbonOffsetsEscrow",
        "label": "__gap",
        "offset": 0,
        "slot": "302",
        "type": "t_array(t_uint256)49_storage"
      },
      {
        "astId": 11465,
        "contract": "contracts/ToucanCarbonOffsetsEscrow.sol:ToucanCarbonOffsetsEscrow",
        "label": "contractRegistry",
        "offset": 0,
        "slot": "351",
        "type": "t_address"
      },
      {
        "astId": 11467,
        "contract": "contracts/ToucanCarbonOffsetsEscrow.sol:ToucanCarbonOffsetsEscrow",
        "label": "requestIdCounter",
        "offset": 0,
        "slot": "352",
        "type": "t_uint256"
      },
      {
        "astId": 11472,
        "contract": "contracts/ToucanCarbonOffsetsEscrow.sol:ToucanCarbonOffsetsEscrow",
        "label": "_detokenizationRequests",
        "offset": 0,
        "slot": "353",
        "type": "t_mapping(t_uint256,t_struct(DetokenizationRequest)11489_storage)"
      }
    ],
    "types": {
      "t_address": {
        "encoding": "inplace",
        "label": "address",
        "numberOfBytes": "20"
      },
      "t_array(t_uint256)49_storage": {
        "base": "t_uint256",
        "encoding": "inplace",
        "label": "uint256[49]",
        "numberOfBytes": "1568"
      },
      "t_array(t_uint256)50_storage": {
        "base": "t_uint256",
        "encoding": "inplace",
        "label": "uint256[50]",
        "numberOfBytes": "1600"
      },
      "t_array(t_uint256)dyn_storage": {
        "base": "t_uint256",
        "encoding": "dynamic_array",
        "label": "uint256[]",
        "numberOfBytes": "32"
      },
      "t_bool": {
        "encoding": "inplace",
        "label": "bool",
        "numberOfBytes": "1"
      },
      "t_bytes32": {
        "encoding": "inplace",
        "label": "bytes32",
        "numberOfBytes": "32"
      },
      "t_enum(RequestStatus)11493": {
        "encoding": "inplace",
        "label": "enum RequestStatus",
        "numberOfBytes": "1"
      },
      "t_mapping(t_address,t_bool)": {
        "encoding": "mapping",
        "key": "t_address",
        "label": "mapping(address => bool)",
        "numberOfBytes": "32",
        "value": "t_bool"
      },
      "t_mapping(t_bytes32,t_struct(RoleData)591_storage)": {
        "encoding": "mapping",
        "key": "t_bytes32",
        "label": "mapping(bytes32 => struct AccessControlUpgradeable.RoleData)",
        "numberOfBytes": "32",
        "value": "t_struct(RoleData)591_storage"
      },
      "t_mapping(t_uint256,t_struct(DetokenizationRequest)11489_storage)": {
        "encoding": "mapping",
        "key": "t_uint256",
        "label": "mapping(uint256 => struct DetokenizationRequest)",
        "numberOfBytes": "32",
        "value": "t_struct(DetokenizationRequest)11489_storage"
      },
      "t_struct(DetokenizationRequest)11489_storage": {
        "encoding": "inplace",
        "label": "struct DetokenizationRequest",
        "members": [
          {
            "astId": 11480,
            "contract": "contracts/ToucanCarbonOffsetsEscrow.sol:ToucanCarbonOffsetsEscrow",
            "label": "user",
            "offset": 0,
            "slot": "0",
            "type": "t_address"
          },
          {
            "astId": 11482,
            "contract": "contracts/ToucanCarbonOffsetsEscrow.sol:ToucanCarbonOffsetsEscrow",
            "label": "amount",
            "offset": 0,
            "slot": "1",
            "type": "t_uint256"
          },
          {
            "astId": 11485,
            "contract": "contracts/ToucanCarbonOffsetsEscrow.sol:ToucanCarbonOffsetsEscrow",
            "label": "status",
            "offset": 0,
            "slot": "2",
            "type": "t_enum(RequestStatus)11493"
          },
          {
            "astId": 11488,
            "contract": "contracts/ToucanCarbonOffsetsEscrow.sol:ToucanCarbonOffsetsEscrow",
            "label": "batchTokenIds",
            "offset": 0,
            "slot": "3",
            "type": "t_array(t_uint256)dyn_storage"
          }
        ],
        "numberOfBytes": "128"
      },
      "t_struct(RoleData)591_storage": {
        "encoding": "inplace",
        "label": "struct AccessControlUpgradeable.RoleData",
        "members": [
          {
            "astId": 588,
            "contract": "contracts/ToucanCarbonOffsetsEscrow.sol:ToucanCarbonOffsetsEscrow",
            "label": "members",
            "offset": 0,
            "slot": "0",
            "type": "t_mapping(t_address,t_bool)"
          },
          {
            "astId": 590,
            "contract": "contracts/ToucanCarbonOffsetsEscrow.sol:ToucanCarbonOffsetsEscrow",
            "label": "adminRole",
            "offset": 0,
            "slot": "1",
            "type": "t_bytes32"
          }
        ],
        "numberOfBytes": "64"
      },
      "t_uint256": {
        "encoding": "inplace",
        "label": "uint256",
        "numberOfBytes": "32"
      },
      "t_uint8": {
        "encoding": "inplace",
        "label": "uint8",
        "numberOfBytes": "1"
      }
    }
  }
}