{
  "address": "0xf9a49993DF24366AB8EDf617C080ca36a4ADb86e",
  "abi": [
    {
      "inputs": [],
      "stateMutability": "nonpayable",
      "type": "constructor"
    },
    {
      "anonymous": false,
      "inputs": [
        {
          "indexed": true,
          "internalType": "address",
          "name": "abacusConnectionManager",
          "type": "address"
        }
      ],
      "name": "AbacusConnectionManagerSet",
      "type": "event"
    },
    {
      "anonymous": false,
      "inputs": [
        {
          "indexed": false,
          "internalType": "address",
          "name": "previousAdmin",
          "type": "address"
        },
        {
          "indexed": false,
          "internalType": "address",
          "name": "newAdmin",
          "type": "address"
        }
      ],
      "name": "AdminChanged",
      "type": "event"
    },
    {
      "anonymous": false,
      "inputs": [
        {
          "indexed": true,
          "internalType": "address",
          "name": "beacon",
          "type": "address"
        }
      ],
      "name": "BeaconUpgraded",
      "type": "event"
    },
    {
      "anonymous": false,
      "inputs": [
        {
          "indexed": true,
          "internalType": "uint32",
          "name": "originDomain",
          "type": "uint32"
        },
        {
          "indexed": false,
          "internalType": "uint32",
          "name": "toDomain",
          "type": "uint32"
        },
        {
          "indexed": true,
          "internalType": "address",
          "name": "bridger",
          "type": "address"
        },
        {
          "indexed": false,
          "internalType": "address",
          "name": "recipient",
          "type": "address"
        },
        {
          "indexed": true,
          "internalType": "address",
          "name": "token",
          "type": "address"
        },
        {
          "indexed": false,
          "internalType": "uint256",
          "name": "amount",
          "type": "uint256"
        },
        {
          "indexed": false,
          "internalType": "bytes32",
          "name": "requesthash",
          "type": "bytes32"
        }
      ],
      "name": "BridgeRequestReceived",
      "type": "event"
    },
    {
      "anonymous": false,
      "inputs": [
        {
          "indexed": false,
          "internalType": "uint32",
          "name": "originDomain",
          "type": "uint32"
        },
        {
          "indexed": true,
          "internalType": "uint32",
          "name": "toDomain",
          "type": "uint32"
        },
        {
          "indexed": true,
          "internalType": "address",
          "name": "bridger",
          "type": "address"
        },
        {
          "indexed": false,
          "internalType": "address",
          "name": "recipient",
          "type": "address"
        },
        {
          "indexed": true,
          "internalType": "address",
          "name": "token",
          "type": "address"
        },
        {
          "indexed": false,
          "internalType": "uint256",
          "name": "amount",
          "type": "uint256"
        },
        {
          "indexed": false,
          "internalType": "uint256",
          "name": "nonce",
          "type": "uint256"
        },
        {
          "indexed": false,
          "internalType": "bytes32",
          "name": "requesthash",
          "type": "bytes32"
        }
      ],
      "name": "BridgeRequestSent",
      "type": "event"
    },
    {
      "anonymous": false,
      "inputs": [
        {
          "indexed": false,
          "internalType": "uint8",
          "name": "version",
          "type": "uint8"
        }
      ],
      "name": "Initialized",
      "type": "event"
    },
    {
      "anonymous": false,
      "inputs": [
        {
          "indexed": true,
          "internalType": "address",
          "name": "interchainGasPaymaster",
          "type": "address"
        }
      ],
      "name": "InterchainGasPaymasterSet",
      "type": "event"
    },
    {
      "anonymous": false,
      "inputs": [
        {
          "indexed": true,
          "internalType": "address",
          "name": "previousOwner",
          "type": "address"
        },
        {
          "indexed": true,
          "internalType": "address",
          "name": "newOwner",
          "type": "address"
        }
      ],
      "name": "OwnershipTransferred",
      "type": "event"
    },
    {
      "anonymous": false,
      "inputs": [
        {
          "indexed": false,
          "internalType": "address",
          "name": "account",
          "type": "address"
        }
      ],
      "name": "Paused",
      "type": "event"
    },
    {
      "anonymous": false,
      "inputs": [
        {
          "indexed": true,
          "internalType": "uint32",
          "name": "domain",
          "type": "uint32"
        },
        {
          "indexed": true,
          "internalType": "bytes32",
          "name": "router",
          "type": "bytes32"
        }
      ],
      "name": "RemoteRouterEnrolled",
      "type": "event"
    },
    {
      "anonymous": false,
      "inputs": [
        {
          "indexed": true,
          "internalType": "address",
          "name": "homeTokenAddress",
          "type": "address"
        },
        {
          "indexed": true,
          "internalType": "address",
          "name": "remoteTokenAddress",
          "type": "address"
        },
        {
          "indexed": false,
          "internalType": "uint32",
          "name": "domainId",
          "type": "uint32"
        }
      ],
      "name": "TokenPairAdded",
      "type": "event"
    },
    {
      "anonymous": false,
      "inputs": [
        {
          "indexed": false,
          "internalType": "address",
          "name": "account",
          "type": "address"
        }
      ],
      "name": "Unpaused",
      "type": "event"
    },
    {
      "anonymous": false,
      "inputs": [
        {
          "indexed": true,
          "internalType": "address",
          "name": "implementation",
          "type": "address"
        }
      ],
      "name": "Upgraded",
      "type": "event"
    },
    {
      "inputs": [],
      "name": "DOMAIN_SEPARATOR",
      "outputs": [
        {
          "internalType": "bytes32",
          "name": "",
          "type": "bytes32"
        }
      ],
      "stateMutability": "view",
      "type": "function"
    },
    {
      "inputs": [],
      "name": "EIP712DomainHash",
      "outputs": [
        {
          "internalType": "bytes32",
          "name": "",
          "type": "bytes32"
        }
      ],
      "stateMutability": "view",
      "type": "function"
    },
    {
      "inputs": [],
      "name": "TIMER",
      "outputs": [
        {
          "internalType": "uint256",
          "name": "",
          "type": "uint256"
        }
      ],
      "stateMutability": "view",
      "type": "function"
    },
    {
      "inputs": [],
      "name": "VERSION",
      "outputs": [
        {
          "internalType": "string",
          "name": "",
          "type": "string"
        }
      ],
      "stateMutability": "view",
      "type": "function"
    },
    {
      "inputs": [],
      "name": "VERSION_RELEASE_CANDIDATE",
      "outputs": [
        {
          "internalType": "uint256",
          "name": "",
          "type": "uint256"
        }
      ],
      "stateMutability": "view",
      "type": "function"
    },
    {
      "inputs": [],
      "name": "abacusConnectionManager",
      "outputs": [
        {
          "internalType": "contract IAbacusConnectionManager",
          "name": "",
          "type": "address"
        }
      ],
      "stateMutability": "view",
      "type": "function"
    },
    {
      "inputs": [
        {
          "internalType": "address",
          "name": "_homeToken",
          "type": "address"
        },
        {
          "internalType": "address",
          "name": "_remoteToken",
          "type": "address"
        },
        {
          "internalType": "uint32",
          "name": "_domain",
          "type": "uint32"
        }
      ],
      "name": "addTokenPair",
      "outputs": [],
      "stateMutability": "nonpayable",
      "type": "function"
    },
    {
      "inputs": [
        {
          "internalType": "address[]",
          "name": "_homeTokens",
          "type": "address[]"
        },
        {
          "internalType": "address[]",
          "name": "_remoteTokens",
          "type": "address[]"
        },
        {
          "internalType": "uint32",
          "name": "_domain",
          "type": "uint32"
        }
      ],
      "name": "batchAddTokenPair",
      "outputs": [],
      "stateMutability": "nonpayable",
      "type": "function"
    },
    {
      "inputs": [
        {
          "internalType": "uint32",
          "name": "_domain",
          "type": "uint32"
        },
        {
          "internalType": "bytes32",
          "name": "_router",
          "type": "bytes32"
        }
      ],
      "name": "enrollRemoteRouter",
      "outputs": [],
      "stateMutability": "nonpayable",
      "type": "function"
    },
    {
      "inputs": [
        {
          "internalType": "uint32",
          "name": "_origin",
          "type": "uint32"
        },
        {
          "internalType": "bytes32",
          "name": "_sender",
          "type": "bytes32"
        },
        {
          "internalType": "bytes",
          "name": "_message",
          "type": "bytes"
        }
      ],
      "name": "handle",
      "outputs": [],
      "stateMutability": "nonpayable",
      "type": "function"
    },
    {
      "inputs": [
        {
          "internalType": "address",
          "name": "_abacusConnectionManager",
          "type": "address"
        }
      ],
      "name": "initialize",
      "outputs": [],
      "stateMutability": "nonpayable",
      "type": "function"
    },
    {
      "inputs": [],
      "name": "interchainGasPaymaster",
      "outputs": [
        {
          "internalType": "contract IInterchainGasPaymaster",
          "name": "",
          "type": "address"
        }
      ],
      "stateMutability": "view",
      "type": "function"
    },
    {
      "inputs": [],
      "name": "nonce",
      "outputs": [
        {
          "internalType": "uint256",
          "name": "",
          "type": "uint256"
        }
      ],
      "stateMutability": "view",
      "type": "function"
    },
    {
      "inputs": [],
      "name": "owner",
      "outputs": [
        {
          "internalType": "address",
          "name": "",
          "type": "address"
        }
      ],
      "stateMutability": "view",
      "type": "function"
    },
    {
      "inputs": [],
      "name": "pause",
      "outputs": [],
      "stateMutability": "nonpayable",
      "type": "function"
    },
    {
      "inputs": [],
      "name": "paused",
      "outputs": [
        {
          "internalType": "bool",
          "name": "",
          "type": "bool"
        }
      ],
      "stateMutability": "view",
      "type": "function"
    },
    {
      "inputs": [],
      "name": "proxiableUUID",
      "outputs": [
        {
          "internalType": "bytes32",
          "name": "",
          "type": "bytes32"
        }
      ],
      "stateMutability": "view",
      "type": "function"
    },
    {
      "inputs": [
        {
          "internalType": "address",
          "name": "",
          "type": "address"
        },
        {
          "internalType": "uint32",
          "name": "",
          "type": "uint32"
        }
      ],
      "name": "remoteTokens",
      "outputs": [
        {
          "internalType": "address",
          "name": "tokenAddress",
          "type": "address"
        },
        {
          "internalType": "uint256",
          "name": "timer",
          "type": "uint256"
        }
      ],
      "stateMutability": "view",
      "type": "function"
    },
    {
      "inputs": [],
      "name": "renounceOwnership",
      "outputs": [],
      "stateMutability": "nonpayable",
      "type": "function"
    },
    {
      "inputs": [
        {
          "internalType": "bytes32",
          "name": "",
          "type": "bytes32"
        }
      ],
      "name": "requests",
      "outputs": [
        {
          "internalType": "bool",
          "name": "isReverted",
          "type": "bool"
        },
        {
          "internalType": "uint256",
          "name": "timestamp",
          "type": "uint256"
        },
        {
          "internalType": "enum ToucanCrosschainMessengerStorageV1.BridgeRequestType",
          "name": "requestType",
          "type": "uint8"
        },
        {
          "internalType": "enum ToucanCrosschainMessengerStorageV1.MessageTypes",
          "name": "messageType",
          "type": "uint8"
        }
      ],
      "stateMutability": "view",
      "type": "function"
    },
    {
      "inputs": [
        {
          "internalType": "uint32",
          "name": "",
          "type": "uint32"
        }
      ],
      "name": "routers",
      "outputs": [
        {
          "internalType": "bytes32",
          "name": "",
          "type": "bytes32"
        }
      ],
      "stateMutability": "view",
      "type": "function"
    },
    {
      "inputs": [
        {
          "internalType": "uint32",
          "name": "_destinationDomain",
          "type": "uint32"
        },
        {
          "internalType": "address",
          "name": "_token",
          "type": "address"
        },
        {
          "internalType": "uint256",
          "name": "_amount",
          "type": "uint256"
        }
      ],
      "name": "sendMessage",
      "outputs": [],
      "stateMutability": "payable",
      "type": "function"
    },
    {
      "inputs": [
        {
          "internalType": "uint32",
          "name": "_destinationDomain",
          "type": "uint32"
        },
        {
          "internalType": "address",
          "name": "_token",
          "type": "address"
        },
        {
          "internalType": "uint256",
          "name": "_amount",
          "type": "uint256"
        },
        {
          "internalType": "address",
          "name": "_recipient",
          "type": "address"
        }
      ],
      "name": "sendMessageWithRecipient",
      "outputs": [],
      "stateMutability": "payable",
      "type": "function"
    },
    {
      "inputs": [
        {
          "internalType": "address",
          "name": "_abacusConnectionManager",
          "type": "address"
        }
      ],
      "name": "setAbacusConnectionManager",
      "outputs": [],
      "stateMutability": "nonpayable",
      "type": "function"
    },
    {
      "inputs": [
        {
          "internalType": "address",
          "name": "_interchainGasPaymaster",
          "type": "address"
        }
      ],
      "name": "setInterchainGasPaymaster",
      "outputs": [],
      "stateMutability": "nonpayable",
      "type": "function"
    },
    {
      "inputs": [
        {
          "internalType": "address",
          "name": "newOwner",
          "type": "address"
        }
      ],
      "name": "transferOwnership",
      "outputs": [],
      "stateMutability": "nonpayable",
      "type": "function"
    },
    {
      "inputs": [],
      "name": "unpause",
      "outputs": [],
      "stateMutability": "nonpayable",
      "type": "function"
    },
    {
      "inputs": [
        {
          "internalType": "address",
          "name": "newImplementation",
          "type": "address"
        }
      ],
      "name": "upgradeTo",
      "outputs": [],
      "stateMutability": "nonpayable",
      "type": "function"
    },
    {
      "inputs": [
        {
          "internalType": "address",
          "name": "newImplementation",
          "type": "address"
        },
        {
          "internalType": "bytes",
          "name": "data",
          "type": "bytes"
        }
      ],
      "name": "upgradeToAndCall",
      "outputs": [],
      "stateMutability": "payable",
      "type": "function"
    }
  ],
  "numDeployments": 3,
  "solcInputHash": "4517f6d89dc2a9e0cd051cafae9b6226",
  "bytecode": "0x60a0604052306080523480156200001557600080fd5b506200002062000026565b62000156565b6200003260ff62000035565b50565b60008054610100900460ff1615620000ce578160ff1660011480156200006e57506200006c306200014760201b62000feb1760201c565b155b620000c65760405162461bcd60e51b815260206004820152602e6024820152600080516020620029d183398151915260448201526d191e481a5b9a5d1a585b1a5e995960921b60648201526084015b60405180910390fd5b506000919050565b60005460ff8084169116106200012d5760405162461bcd60e51b815260206004820152602e6024820152600080516020620029d183398151915260448201526d191e481a5b9a5d1a585b1a5e995960921b6064820152608401620000bd565b506000805460ff191660ff92909216919091179055600190565b6001600160a01b03163b151590565b6080516128436200018e6000396000818161093e0152818161097e01528181610a9701528181610ad70152610b6a01526128436000f3fe6080604052600436106101c25760003560e01c8063715018a6116100f7578063b49c53a711610095578063e32a66cc11610064578063e32a66cc1461054e578063f1bd6f0a14610561578063f2fde38b14610581578063ffa1ad74146105a157600080fd5b8063b49c53a714610483578063bdaca27a146104a3578063c0d5f4471461050e578063c4d66de81461052e57600080fd5b806394eda280116100d157806394eda280146103d15780639a35c359146103f15780639d86698514610411578063affed0e01461046c57600080fd5b8063715018a6146103895780638456cb591461039e5780638da5cb5b146103b357600080fd5b80634f1ef286116101645780635c975abb1161013e5780635c975abb1461030657806367e8e783146103295780636ca0b0d71461034057806370722ced1461035557600080fd5b80634f1ef286146102be57806352d1902d146102d157806356d5d475146102e657600080fd5b80633644e515116101a05780633644e5151461023c5780633659cfe61461025157806339bb4ad9146102715780633f4ba83a146102a957600080fd5b806312b1d780146101c7578063255e0ae4146101e95780632ead72f6146101fc575b600080fd5b3480156101d357600080fd5b506101e76101e2366004611f5e565b6105df565b005b6101e76101f7366004611f8d565b61061e565b34801561020857600080fd5b50610229610217366004611fe0565b60c96020526000908152604090205481565b6040519081526020015b60405180910390f35b34801561024857600080fd5b506102296108c5565b34801561025d57600080fd5b506101e761026c366004611f5e565b610934565b34801561027d57600080fd5b50609854610291906001600160a01b031681565b6040516001600160a01b039091168152602001610233565b3480156102b557600080fd5b506101e7610a10565b6101e76102cc3660046120a0565b610a8d565b3480156102dd57600080fd5b50610229610b5d565b3480156102f257600080fd5b506101e76103013660046120f0565b610c10565b34801561031257600080fd5b5060335460ff166040519015158152602001610233565b34801561033557600080fd5b506102296212750081565b34801561034c57600080fd5b50610229600181565b34801561036157600080fd5b506102297fc2f8787176b8ac6bf7215b4adcc1e069bf4ab82d9ab1df05a57a91d425935b6e81565b34801561039557600080fd5b506101e7610cb2565b3480156103aa57600080fd5b506101e7610ce6565b3480156103bf57600080fd5b506065546001600160a01b0316610291565b3480156103dd57600080fd5b506101e76103ec366004612195565b610d3b565b3480156103fd57600080fd5b50609754610291906001600160a01b031681565b34801561041d57600080fd5b5061045c61042c366004612219565b6101616020526000908152604090208054600182015460029092015460ff91821692918181169161010090041684565b604051610233949392919061225c565b34801561047857600080fd5b5061022961015f5481565b34801561048f57600080fd5b506101e761049e36600461228f565b610e28565b3480156104af57600080fd5b506104ef6104be3660046122bb565b610162602090815260009283526040808420909152908252902080546001909101546001600160a01b039091169082565b604080516001600160a01b039093168352602083019190915201610233565b34801561051a57600080fd5b506101e76105293660046122f4565b610e5c565b34801561053a57600080fd5b506101e7610549366004611f5e565b610e96565b6101e761055c36600461233f565b610f14565b34801561056d57600080fd5b506101e761057c366004611f5e565b610f20565b34801561058d57600080fd5b506101e761059c366004611f5e565b610f53565b3480156105ad57600080fd5b506105d2604051806040016040528060058152602001640312e312e360dc1b81525081565b60405161023391906123d8565b6065546001600160a01b031633146106125760405162461bcd60e51b8152600401610609906123eb565b60405180910390fd5b61061b81610ffa565b50565b60335460ff16156106415760405162461bcd60e51b815260040161060990612420565b6001600160a01b0383811660009081526101626020908152604080832063ffffffff89168452909152902054166106ba5760405162461bcd60e51b815260206004820152601760248201527f72656d6f746520746f6b656e206e6f74206d61707065640000000000000000006044820152606401610609565b61015f80546001019081905560006106d58386868986611044565b6001600160a01b0386811660009081526101626020908152604080832063ffffffff8c168452825280832054815160808101835284815242818501908152600182850181815260608401889052898852610161909652939095208151815490151560ff19918216178255955181850155935160028086018054999a5093909716979196949590949293911691849081111561077257610772612232565b0217905550606082015160028201805461ff00191661010083801561079957610799612232565b0217905550905050600080338684898c886040516020016107c0979695949392919061244a565b60405160208183030381529060405290506107dc8882346110c7565b6040516374f4f54760e01b8152336004820152602481018790526001600160a01b038816906374f4f54790604401600060405180830381600087803b15801561082457600080fd5b505af1158015610838573d6000803e3d6000fd5b50505050866001600160a01b0316336001600160a01b03168963ffffffff167fb967a159106e693bcb8298f42c743d6a70b66535ae64bdaf9710db69156984c6610880611163565b6040805163ffffffff90921682526001600160a01b038b16602083015281018b9052606081018990526080810188905260a00160405180910390a45050505050505050565b60007fc2f8787176b8ac6bf7215b4adcc1e069bf4ab82d9ab1df05a57a91d425935b6e604051806040016040528060058152602001640312e312e360dc1b8152504660405160200161091993929190612498565b60405160208183030381529060405280519060200120905090565b6001600160a01b037f000000000000000000000000000000000000000000000000000000000000000016300361097c5760405162461bcd60e51b8152600401610609906124f5565b7f00000000000000000000000000000000000000000000000000000000000000006001600160a01b03166109c56000805160206127c7833981519152546001600160a01b031690565b6001600160a01b0316146109eb5760405162461bcd60e51b815260040161060990612541565b6109f4816111d6565b6040805160008082526020820190925261061b91839190611200565b6065546001600160a01b03163314610a3a5760405162461bcd60e51b8152600401610609906123eb565b60335460ff16610a835760405162461bcd60e51b815260206004820152601460248201527314185d5cd8589b194e881b9bdd081c185d5cd95960621b6044820152606401610609565b610a8b61136b565b565b6001600160a01b037f0000000000000000000000000000000000000000000000000000000000000000163003610ad55760405162461bcd60e51b8152600401610609906124f5565b7f00000000000000000000000000000000000000000000000000000000000000006001600160a01b0316610b1e6000805160206127c7833981519152546001600160a01b031690565b6001600160a01b031614610b445760405162461bcd60e51b815260040161060990612541565b610b4d826111d6565b610b5982826001611200565b5050565b6000306001600160a01b037f00000000000000000000000000000000000000000000000000000000000000001614610bfd5760405162461bcd60e51b815260206004820152603860248201527f555550535570677261646561626c653a206d757374206e6f742062652063616c60448201527f6c6564207468726f7567682064656c656761746563616c6c00000000000000006064820152608401610609565b506000805160206127c783398151915290565b610c19336113fe565b610c4e5760405162461bcd60e51b8152602060048201526006602482015265042d2dcc4def60d31b6044820152606401610609565b63ffffffff8316600090815260c96020526040902054839083908114610ca05760405162461bcd60e51b815260206004820152600760248201526610b937baba32b960c91b6044820152606401610609565b610cab858585611473565b5050505050565b6065546001600160a01b03163314610cdc5760405162461bcd60e51b8152600401610609906123eb565b610a8b6000611736565b6065546001600160a01b03163314610d105760405162461bcd60e51b8152600401610609906123eb565b60335460ff1615610d335760405162461bcd60e51b815260040161060990612420565b610a8b611788565b6065546001600160a01b03163314610d655760405162461bcd60e51b8152600401610609906123eb565b83828114610dad5760405162461bcd60e51b8152602060048201526015602482015274082e4e4c2f240d8cadccee8d040dad2e6dac2e8c6d605b1b6044820152606401610609565b60005b81811015610e1f57610e0f878783818110610dcd57610dcd61258d565b9050602002016020810190610de29190611f5e565b868684818110610df457610df461258d565b9050602002016020810190610e099190611f5e565b856117e0565b610e18816125b9565b9050610db0565b50505050505050565b6065546001600160a01b03163314610e525760405162461bcd60e51b8152600401610609906123eb565b610b598282611992565b6065546001600160a01b03163314610e865760405162461bcd60e51b8152600401610609906123eb565b610e918383836117e0565b505050565b6000610ea260016119d6565b90508015610eba576000805461ff0019166101001790555b610ec382611a63565b610ecb611a93565b8015610b59576000805461ff0019169055604051600181527f7f26b83ff96e1f2b6a682f133852f6798a09c465da95921460cefb38474024989060200160405180910390a15050565b610e918383833361061e565b6065546001600160a01b03163314610f4a5760405162461bcd60e51b8152600401610609906123eb565b61061b81611ac2565b6065546001600160a01b03163314610f7d5760405162461bcd60e51b8152600401610609906123eb565b6001600160a01b038116610fe25760405162461bcd60e51b815260206004820152602660248201527f4f776e61626c653a206e6577206f776e657220697320746865207a65726f206160448201526564647265737360d01b6064820152608401610609565b61061b81611736565b6001600160a01b03163b151590565b609780546001600160a01b0319166001600160a01b0383169081179091556040517f7c10de8878ed89478ff01b9cd8c11a5271ea8ac91d46f662e6aea7e3adf5b11f90600090a250565b600061104e6108c5565b6040805160208101929092526bffffffffffffffffffffffff19606089811b8216928401929092529087901b166054820152606881018590526001600160e01b031960e085901b166088820152608c810183905260ac016040516020818303038152906040528051906020012090505b95945050505050565b60006110d1611b0c565b905060006110e0828686611b7a565b90508215610cab576098546040516352b81e4760e11b81526001600160a01b0384811660048301526024820184905263ffffffff881660448301529091169063a5703c8e9085906064016000604051808303818588803b15801561114357600080fd5b505af1158015611157573d6000803e3d6000fd5b50505050505050505050565b6097546040805163234d8e3d60e21b815290516000926001600160a01b031691638d3638f49160048083019260209291908290030181865afa1580156111ad573d6000803e3d6000fd5b505050506040513d601f19601f820116820180604052508101906111d191906125d2565b905090565b6065546001600160a01b0316331461061b5760405162461bcd60e51b8152600401610609906123eb565b7f4910fdfa16fed3260ed0e7147f7cc6da11a60208b5b9406d12a635614ffd91435460ff161561123357610e9183611c07565b826001600160a01b03166352d1902d6040518163ffffffff1660e01b8152600401602060405180830381865afa92505050801561128d575060408051601f3d908101601f1916820190925261128a918101906125ef565b60015b6112f05760405162461bcd60e51b815260206004820152602e60248201527f45524331393637557067726164653a206e657720696d706c656d656e7461746960448201526d6f6e206973206e6f74205555505360901b6064820152608401610609565b6000805160206127c7833981519152811461135f5760405162461bcd60e51b815260206004820152602960248201527f45524331393637557067726164653a20756e737570706f727465642070726f786044820152681a58589b195555525160ba1b6064820152608401610609565b50610e91838383611ca3565b60335460ff166113b45760405162461bcd60e51b815260206004820152601460248201527314185d5cd8589b194e881b9bdd081c185d5cd95960621b6044820152606401610609565b6033805460ff191690557f5db9ee0a495bf2e6ff9c91a7834c1ba4fdd244a5e8aa4e537bd38aeae4b073aa335b6040516001600160a01b03909116815260200160405180910390a1565b60975460405163282f51eb60e01b81526001600160a01b038381166004830152600092169063282f51eb90602401602060405180830381865afa158015611449573d6000803e3d6000fd5b505050506040513d601f19601f8201168201806040525081019061146d9190612608565b92915050565b60335460ff16156114965760405162461bcd60e51b815260040161060990612420565b6000806000806000806000878060200190518101906114b5919061262a565b959c50939a5091985096509450925090506000808281526101616020526040902060029081015460ff16908111156114ef576114ef612232565b1461153c5760405162461bcd60e51b815260206004820152601760248201527f42726964676520526571756573742045786563757465640000000000000000006044820152606401610609565b60408051608081018252600081524260208201529081016002815260200160ff8916801561156c5761156c612232565b801561157a5761157a612232565b9052600082815261016160209081526040918290208351815490151560ff1991821617825591840151600180830191909155928401516002808301805493959294909316919084908111156115d1576115d1612232565b0217905550606082015160028201805461ff0019166101008380156115f8576115f8612232565b0217905550600091506116089050565b60ff8816801561161a5761161a612232565b801561162857611628612232565b036116f6576040516346154c9f60e11b81526001600160a01b03868116600483015260248201859052851690638c2a993e90604401600060405180830381600087803b15801561167757600080fd5b505af115801561168b573d6000803e3d6000fd5b50506040805163ffffffff86811682526001600160a01b038a811660208401528284018990526060830187905292518984169550928b1693508e16917ff475ec3ebd0a821ced53bf4d9fb1b6e5110cdf24015f2a590842816d2aced35d9181900360800190a4611157565b60405162461bcd60e51b81526020600482015260156024820152742ab739bab83837b93a32b21027b832b930ba34b7b760591b6044820152606401610609565b606580546001600160a01b038381166001600160a01b0319831681179093556040519116919082907f8be0079c531659141344cd1fd0a4f28419497f9722a3daafe3b4186f6b6457e090600090a35050565b60335460ff16156117ab5760405162461bcd60e51b815260040161060990612420565b6033805460ff191660011790557f62e78cea01bee320cd4e420270b5ea74000d11b0c9f74754ebdbfc544b05a2586113e13390565b6001600160a01b0383161580159061180057506001600160a01b03821615155b61184c5760405162461bcd60e51b815260206004820152601d60248201527f215f686f6d65546f6b656e207c7c20215f72656d6f7465546f6b656e730000006044820152606401610609565b6001600160a01b03831660009081526101626020908152604080832063ffffffff85168452909152902060010154156118f9576001600160a01b03831660009081526101626020908152604080832063ffffffff8516845290915290206001015462127500906118bc90426126b8565b106118f95760405162461bcd60e51b815260206004820152600d60248201526c1d1a5b595c88195e1c1a5c9959609a1b6044820152606401610609565b6040805180820182526001600160a01b038481168083524260208085019182528884166000818152610162835287812063ffffffff8a1680835290845290889020965187546001600160a01b03191696169590951786559151600190950194909455935191825292917f1a954a85d933c5418c8c7edb1605fff69c5d182538b3a5299682a97f788311b4910160405180910390a3505050565b63ffffffff8216600081815260c96020526040808220849055518392917f97fd51fef1f80c854cbd0150c248e8b2ac4ecdc97cc05e742b5f61c9f4dc645891a35050565b60008054610100900460ff1615611a1d578160ff1660011480156119f95750303b155b611a155760405162461bcd60e51b8152600401610609906126cf565b506000919050565b60005460ff808416911610611a445760405162461bcd60e51b8152600401610609906126cf565b506000805460ff191660ff92909216919091179055600190565b919050565b600054610100900460ff16611a8a5760405162461bcd60e51b81526004016106099061271d565b61061b81611cce565b600054610100900460ff16611aba5760405162461bcd60e51b81526004016106099061271d565b610a8b611d06565b609880546001600160a01b0319166001600160a01b0383169081179091556040517fb87f5a0bface22cde699143559fb99f990ae54eea236995fc54178af91af859f90600090a250565b6097546040805163ce11e6ab60e01b815290516000926001600160a01b03169163ce11e6ab9160048083019260209291908290030181865afa158015611b56573d6000803e3d6000fd5b505050506040513d601f19601f820116820180604052508101906111d19190612768565b600080611b8684611d39565b60405163fa31de0160e01b81529091506001600160a01b0386169063fa31de0190611bb990879085908890600401612785565b6020604051808303816000875af1158015611bd8573d6000803e3d6000fd5b505050506040513d601f19601f82011682018060405250810190611bfc91906125ef565b9150505b9392505050565b6001600160a01b0381163b611c745760405162461bcd60e51b815260206004820152602d60248201527f455243313936373a206e657720696d706c656d656e746174696f6e206973206e60448201526c1bdd08184818dbdb9d1c9858dd609a1b6064820152608401610609565b6000805160206127c783398151915280546001600160a01b0319166001600160a01b0392909216919091179055565b611cac83611d86565b600082511180611cb95750805b15610e9157611cc88383611dc6565b50505050565b600054610100900460ff16611cf55760405162461bcd60e51b81526004016106099061271d565b611cfe81610ffa565b61061b611eb1565b600054610100900460ff16611d2d5760405162461bcd60e51b81526004016106099061271d565b6033805460ff19169055565b63ffffffff8116600090815260c9602052604090205480611a5e5760405162461bcd60e51b815260206004820152600760248201526610b937baba32b960c91b6044820152606401610609565b611d8f81611c07565b6040516001600160a01b038216907fbc7cd75a20ee27fd9adebab32041f755214dbc6bffa90cc0225b39da2e5c2d3b90600090a250565b60606001600160a01b0383163b611e2e5760405162461bcd60e51b815260206004820152602660248201527f416464726573733a2064656c65676174652063616c6c20746f206e6f6e2d636f6044820152651b9d1c9858dd60d21b6064820152608401610609565b600080846001600160a01b031684604051611e4991906127aa565b600060405180830381855af49150503d8060008114611e84576040519150601f19603f3d011682016040523d82523d6000602084013e611e89565b606091505b50915091506110be82826040518060600160405280602781526020016127e760279139611ee0565b600054610100900460ff16611ed85760405162461bcd60e51b81526004016106099061271d565b610a8b611f19565b60608315611eef575081611c00565b825115611eff5782518084602001fd5b8160405162461bcd60e51b815260040161060991906123d8565b600054610100900460ff16611f405760405162461bcd60e51b81526004016106099061271d565b610a8b33611736565b6001600160a01b038116811461061b57600080fd5b600060208284031215611f7057600080fd5b8135611c0081611f49565b63ffffffff8116811461061b57600080fd5b60008060008060808587031215611fa357600080fd5b8435611fae81611f7b565b93506020850135611fbe81611f49565b9250604085013591506060850135611fd581611f49565b939692955090935050565b600060208284031215611ff257600080fd5b8135611c0081611f7b565b634e487b7160e01b600052604160045260246000fd5b600082601f83011261202457600080fd5b813567ffffffffffffffff8082111561203f5761203f611ffd565b604051601f8301601f19908116603f0116810190828211818310171561206757612067611ffd565b8160405283815286602085880101111561208057600080fd5b836020870160208301376000602085830101528094505050505092915050565b600080604083850312156120b357600080fd5b82356120be81611f49565b9150602083013567ffffffffffffffff8111156120da57600080fd5b6120e685828601612013565b9150509250929050565b60008060006060848603121561210557600080fd5b833561211081611f7b565b925060208401359150604084013567ffffffffffffffff81111561213357600080fd5b61213f86828701612013565b9150509250925092565b60008083601f84011261215b57600080fd5b50813567ffffffffffffffff81111561217357600080fd5b6020830191508360208260051b850101111561218e57600080fd5b9250929050565b6000806000806000606086880312156121ad57600080fd5b853567ffffffffffffffff808211156121c557600080fd5b6121d189838a01612149565b909750955060208801359150808211156121ea57600080fd5b506121f788828901612149565b909450925050604086013561220b81611f7b565b809150509295509295909350565b60006020828403121561222b57600080fd5b5035919050565b634e487b7160e01b600052602160045260246000fd5b6001811061225857612258612232565b9052565b841515815260208101849052608081016003841061227c5761227c612232565b8360408301526110be6060830184612248565b600080604083850312156122a257600080fd5b82356122ad81611f7b565b946020939093013593505050565b600080604083850312156122ce57600080fd5b82356122d981611f49565b915060208301356122e981611f7b565b809150509250929050565b60008060006060848603121561230957600080fd5b833561231481611f49565b9250602084013561232481611f49565b9150604084013561233481611f7b565b809150509250925092565b60008060006060848603121561235457600080fd5b833561235f81611f7b565b9250602084013561236f81611f49565b929592945050506040919091013590565b60005b8381101561239b578181015183820152602001612383565b83811115611cc85750506000910152565b600081518084526123c4816020860160208601612380565b601f01601f19169290920160200192915050565b602081526000611c0060208301846123ac565b6020808252818101527f4f776e61626c653a2063616c6c6572206973206e6f7420746865206f776e6572604082015260600190565b60208082526010908201526f14185d5cd8589b194e881c185d5cd95960821b604082015260600190565b60e08101612458828a612248565b6001600160a01b0397881660208301529587166040820152939095166060840152608083019190915263ffffffff1660a082015260c00191909152919050565b83815260806020820152601960808201527f546f7563616e43726f7373636861696e4d657373656e6765720000000000000060a082015260c0604082015260006124e560c08301856123ac565b9050826060830152949350505050565b6020808252602c908201527f46756e6374696f6e206d7573742062652063616c6c6564207468726f7567682060408201526b19195b1959d85d1958d85b1b60a21b606082015260800190565b6020808252602c908201527f46756e6374696f6e206d7573742062652063616c6c6564207468726f7567682060408201526b6163746976652070726f787960a01b606082015260800190565b634e487b7160e01b600052603260045260246000fd5b634e487b7160e01b600052601160045260246000fd5b6000600182016125cb576125cb6125a3565b5060010190565b6000602082840312156125e457600080fd5b8151611c0081611f7b565b60006020828403121561260157600080fd5b5051919050565b60006020828403121561261a57600080fd5b81518015158114611c0057600080fd5b600080600080600080600060e0888a03121561264557600080fd5b875160ff8116811461265657600080fd5b602089015190975061266781611f49565b604089015190965061267881611f49565b606089015190955061268981611f49565b608089015160a08a015191955093506126a181611f7b565b8092505060c0880151905092959891949750929550565b6000828210156126ca576126ca6125a3565b500390565b6020808252602e908201527f496e697469616c697a61626c653a20636f6e747261637420697320616c72656160408201526d191e481a5b9a5d1a585b1a5e995960921b606082015260800190565b6020808252602b908201527f496e697469616c697a61626c653a20636f6e7472616374206973206e6f74206960408201526a6e697469616c697a696e6760a81b606082015260800190565b60006020828403121561277a57600080fd5b8151611c0081611f49565b63ffffffff841681528260208201526060604082015260006110be60608301846123ac565b600082516127bc818460208701612380565b919091019291505056fe360894a13ba1a3210667c828492db98dca3e2076cc3735a920a3ca505d382bbc416464726573733a206c6f772d6c6576656c2064656c65676174652063616c6c206661696c6564a26469706673582212205d4703a00b71f53e68b81a334a2ed1695c8276b5a986ae8071f237d029de5edc64736f6c634300080e0033496e697469616c697a61626c653a20636f6e747261637420697320616c726561",
  "devdoc": {
    "kind": "dev",
    "methods": {
      "addTokenPair(address,address,uint32)": {
        "details": "Called by owner to add or map home token address to remote token address. Changing the remote token address can only be done within a 7 day period, after first setting it.",
        "params": {
          "_domain": "domain ID of the remote chain whose token is being mapped",
          "_homeToken": "token address on home chain",
          "_remoteToken": "token address on remote chain"
        }
      },
      "batchAddTokenPair(address[],address[],uint32)": {
        "details": "Called by owner to add or map home token addresses to remote token addresses.",
        "params": {
          "_domain": "domain ID of the remote chain whose tokens are being mapped",
          "_homeTokens": "token addresses on home chain",
          "_remoteTokens": "token addresses on remote chain"
        }
      },
      "constructor": {
        "custom:oz-upgrades-unsafe-allow": "constructor"
      },
      "enrollRemoteRouter(uint32,bytes32)": {
        "params": {
          "_domain": "The domain of the remote Application Router",
          "_router": "The address of the remote Application Router"
        }
      },
      "handle(uint32,bytes32,bytes)": {
        "params": {
          "_message": "The message",
          "_origin": "The origin domain",
          "_sender": "The sender address"
        }
      },
      "owner()": {
        "details": "Returns the address of the current owner."
      },
      "pause()": {
        "details": "when invoked by owner it Pauses the cross chain bridging logic to interact with abacus"
      },
      "paused()": {
        "details": "Returns true if the contract is paused, and false otherwise."
      },
      "proxiableUUID()": {
        "details": "Implementation of the ERC1822 {proxiableUUID} function. This returns the storage slot used by the implementation. It is used to validate that the this implementation remains valid after an upgrade. IMPORTANT: A proxy pointing at a proxiable contract should not be considered proxiable itself, because this risks bricking a proxy that upgrades to it, by delegating to itself until out of gas. Thus it is critical that this function revert if invoked through a proxy. This is guaranteed by the `notDelegated` modifier."
      },
      "renounceOwnership()": {
        "details": "Leaves the contract without owner. It will not be possible to call `onlyOwner` functions anymore. Can only be called by the current owner. NOTE: Renouncing ownership will leave the contract without an owner, thereby removing any functionality that is only available to the owner."
      },
      "sendMessage(uint32,address,uint256)": {
        "params": {
          "_amount": "the amount of tokens to be bridged",
          "_destinationDomain": "The domain to send the message to",
          "_token": "address of token to be bridged"
        }
      },
      "sendMessageWithRecipient(uint32,address,uint256,address)": {
        "params": {
          "_amount": "the amount of tokens to be bridged",
          "_destinationDomain": "The domain to send the message to",
          "_recipient": "the recipient of tokens in the destination domain",
          "_token": "address of token to be bridged"
        }
      },
      "setAbacusConnectionManager(address)": {
        "params": {
          "_abacusConnectionManager": "The address of the AbacusConnectionManager contract."
        }
      },
      "setInterchainGasPaymaster(address)": {
        "params": {
          "_interchainGasPaymaster": "The address of the InterchainGasPaymaster contract."
        }
      },
      "transferOwnership(address)": {
        "details": "Transfers ownership of the contract to a new account (`newOwner`). Can only be called by the current owner."
      },
      "unpause()": {
        "details": "when invoked by owner it unpauses the cross chain bridging logic to interact with abacus"
      },
      "upgradeTo(address)": {
        "details": "Upgrade the implementation of the proxy to `newImplementation`. Calls {_authorizeUpgrade}. Emits an {Upgraded} event."
      },
      "upgradeToAndCall(address,bytes)": {
        "details": "Upgrade the implementation of the proxy to `newImplementation`, and subsequently execute the function call encoded in `data`. Calls {_authorizeUpgrade}. Emits an {Upgraded} event."
      }
    },
    "version": 1
  },
  "userdoc": {
    "events": {
      "AbacusConnectionManagerSet(address)": {
        "notice": "Emitted when a new abacusConnectionManager is set."
      },
      "InterchainGasPaymasterSet(address)": {
        "notice": "Emitted when a new Interchain Gas Paymaster is set."
      },
      "RemoteRouterEnrolled(uint32,bytes32)": {
        "notice": "Emitted when a router is set."
      }
    },
    "kind": "user",
    "methods": {
      "addTokenPair(address,address,uint32)": {
        "notice": "Adds new token pair than can be bridged"
      },
      "batchAddTokenPair(address[],address[],uint32)": {
        "notice": "Adds a new set of token pairs than can be bridged"
      },
      "enrollRemoteRouter(uint32,bytes32)": {
        "notice": "Register the address of a Router contract for the same Application on a remote chain"
      },
      "handle(uint32,bytes32,bytes)": {
        "notice": "Handles an incoming message"
      },
      "pause()": {
        "notice": "Pauses the cross chain bridge"
      },
      "remoteTokens(address,uint32)": {
        "notice": "remoteTokens maps a token (address) in the source chain to the domain id of the remote chain (uint32) to info about the token in the remote chain (RemoteTokenInformation)"
      },
      "sendMessage(uint32,address,uint256)": {
        "notice": "Send a message of \"Type A\" to a remote xApp Router via Abacus; this message is called to take some action in the cross-chain context. The recipient of the tokens in the destination domain is the same as msg.sender here."
      },
      "sendMessageWithRecipient(uint32,address,uint256,address)": {
        "notice": "Send a message of \"Type A\" to a remote xApp Router via Abacus; this message is called to take some action in the cross-chain context"
      },
      "setAbacusConnectionManager(address)": {
        "notice": "Sets the address of the application's AbacusConnectionManager."
      },
      "setInterchainGasPaymaster(address)": {
        "notice": "Sets the address of the application's InterchainGasPaymaster."
      },
      "unpause()": {
        "notice": "Unpauses the cross chain bridge"
      }
    },
    "version": 1
  },
  "storageLayout": {
    "storage": [
      {
        "astId": 1489,
        "contract": "contracts/cross-chain/ToucanCrosschainMessenger.sol:ToucanCrosschainMessenger",
        "label": "_initialized",
        "offset": 0,
        "slot": "0",
        "type": "t_uint8"
      },
      {
        "astId": 1492,
        "contract": "contracts/cross-chain/ToucanCrosschainMessenger.sol:ToucanCrosschainMessenger",
        "label": "_initializing",
        "offset": 1,
        "slot": "0",
        "type": "t_bool"
      },
      {
        "astId": 4593,
        "contract": "contracts/cross-chain/ToucanCrosschainMessenger.sol:ToucanCrosschainMessenger",
        "label": "__gap",
        "offset": 0,
        "slot": "1",
        "type": "t_array(t_uint256)50_storage"
      },
      {
        "astId": 1781,
        "contract": "contracts/cross-chain/ToucanCrosschainMessenger.sol:ToucanCrosschainMessenger",
        "label": "_paused",
        "offset": 0,
        "slot": "51",
        "type": "t_bool"
      },
      {
        "astId": 1870,
        "contract": "contracts/cross-chain/ToucanCrosschainMessenger.sol:ToucanCrosschainMessenger",
        "label": "__gap",
        "offset": 0,
        "slot": "52",
        "type": "t_array(t_uint256)49_storage"
      },
      {
        "astId": 980,
        "contract": "contracts/cross-chain/ToucanCrosschainMessenger.sol:ToucanCrosschainMessenger",
        "label": "_owner",
        "offset": 0,
        "slot": "101",
        "type": "t_address"
      },
      {
        "astId": 1092,
        "contract": "contracts/cross-chain/ToucanCrosschainMessenger.sol:ToucanCrosschainMessenger",
        "label": "__gap",
        "offset": 0,
        "slot": "102",
        "type": "t_array(t_uint256)49_storage"
      },
      {
        "astId": 14,
        "contract": "contracts/cross-chain/ToucanCrosschainMessenger.sol:ToucanCrosschainMessenger",
        "label": "abacusConnectionManager",
        "offset": 0,
        "slot": "151",
        "type": "t_contract(IAbacusConnectionManager)473"
      },
      {
        "astId": 17,
        "contract": "contracts/cross-chain/ToucanCrosschainMessenger.sol:ToucanCrosschainMessenger",
        "label": "interchainGasPaymaster",
        "offset": 0,
        "slot": "152",
        "type": "t_contract(IInterchainGasPaymaster)486"
      },
      {
        "astId": 21,
        "contract": "contracts/cross-chain/ToucanCrosschainMessenger.sol:ToucanCrosschainMessenger",
        "label": "__GAP",
        "offset": 0,
        "slot": "153",
        "type": "t_array(t_uint256)48_storage"
      },
      {
        "astId": 195,
        "contract": "contracts/cross-chain/ToucanCrosschainMessenger.sol:ToucanCrosschainMessenger",
        "label": "routers",
        "offset": 0,
        "slot": "201",
        "type": "t_mapping(t_uint32,t_bytes32)"
      },
      {
        "astId": 199,
        "contract": "contracts/cross-chain/ToucanCrosschainMessenger.sol:ToucanCrosschainMessenger",
        "label": "__GAP",
        "offset": 0,
        "slot": "202",
        "type": "t_array(t_uint256)49_storage"
      },
      {
        "astId": 1471,
        "contract": "contracts/cross-chain/ToucanCrosschainMessenger.sol:ToucanCrosschainMessenger",
        "label": "__gap",
        "offset": 0,
        "slot": "251",
        "type": "t_array(t_uint256)50_storage"
      },
      {
        "astId": 1759,
        "contract": "contracts/cross-chain/ToucanCrosschainMessenger.sol:ToucanCrosschainMessenger",
        "label": "__gap",
        "offset": 0,
        "slot": "301",
        "type": "t_array(t_uint256)50_storage"
      },
      {
        "astId": 12956,
        "contract": "contracts/cross-chain/ToucanCrosschainMessenger.sol:ToucanCrosschainMessenger",
        "label": "nonce",
        "offset": 0,
        "slot": "351",
        "type": "t_uint256"
      },
      {
        "astId": 12958,
        "contract": "contracts/cross-chain/ToucanCrosschainMessenger.sol:ToucanCrosschainMessenger",
        "label": "DEPRECATED_DOMAIN_SEPARATOR",
        "offset": 0,
        "slot": "352",
        "type": "t_bytes32"
      },
      {
        "astId": 12964,
        "contract": "contracts/cross-chain/ToucanCrosschainMessenger.sol:ToucanCrosschainMessenger",
        "label": "requests",
        "offset": 0,
        "slot": "353",
        "type": "t_mapping(t_bytes32,t_struct(BridgeRequest)12953_storage)"
      },
      {
        "astId": 12972,
        "contract": "contracts/cross-chain/ToucanCrosschainMessenger.sol:ToucanCrosschainMessenger",
        "label": "remoteTokens",
        "offset": 0,
        "slot": "354",
        "type": "t_mapping(t_address,t_mapping(t_uint32,t_struct(RemoteTokenInformation)12935_storage))"
      }
    ],
    "types": {
      "t_address": {
        "encoding": "inplace",
        "label": "address",
        "numberOfBytes": "20"
      },
      "t_array(t_uint256)48_storage": {
        "base": "t_uint256",
        "encoding": "inplace",
        "label": "uint256[48]",
        "numberOfBytes": "1536"
      },
      "t_array(t_uint256)49_storage": {
        "base": "t_uint256",
        "encoding": "inplace",
        "label": "uint256[49]",
        "numberOfBytes": "1568"
      },
      "t_array(t_uint256)50_storage": {
        "base": "t_uint256",
        "encoding": "inplace",
        "label": "uint256[50]",
        "numberOfBytes": "1600"
      },
      "t_bool": {
        "encoding": "inplace",
        "label": "bool",
        "numberOfBytes": "1"
      },
      "t_bytes32": {
        "encoding": "inplace",
        "label": "bytes32",
        "numberOfBytes": "32"
      },
      "t_contract(IAbacusConnectionManager)473": {
        "encoding": "inplace",
        "label": "contract IAbacusConnectionManager",
        "numberOfBytes": "20"
      },
      "t_contract(IInterchainGasPaymaster)486": {
        "encoding": "inplace",
        "label": "contract IInterchainGasPaymaster",
        "numberOfBytes": "20"
      },
      "t_enum(BridgeRequestType)12940": {
        "encoding": "inplace",
        "label": "enum ToucanCrosschainMessengerStorageV1.BridgeRequestType",
        "numberOfBytes": "1"
      },
      "t_enum(MessageTypes)12942": {
        "encoding": "inplace",
        "label": "enum ToucanCrosschainMessengerStorageV1.MessageTypes",
        "numberOfBytes": "1"
      },
      "t_mapping(t_address,t_mapping(t_uint32,t_struct(RemoteTokenInformation)12935_storage))": {
        "encoding": "mapping",
        "key": "t_address",
        "label": "mapping(address => mapping(uint32 => struct RemoteTokenInformation))",
        "numberOfBytes": "32",
        "value": "t_mapping(t_uint32,t_struct(RemoteTokenInformation)12935_storage)"
      },
      "t_mapping(t_bytes32,t_struct(BridgeRequest)12953_storage)": {
        "encoding": "mapping",
        "key": "t_bytes32",
        "label": "mapping(bytes32 => struct ToucanCrosschainMessengerStorageV1.BridgeRequest)",
        "numberOfBytes": "32",
        "value": "t_struct(BridgeRequest)12953_storage"
      },
      "t_mapping(t_uint32,t_bytes32)": {
        "encoding": "mapping",
        "key": "t_uint32",
        "label": "mapping(uint32 => bytes32)",
        "numberOfBytes": "32",
        "value": "t_bytes32"
      },
      "t_mapping(t_uint32,t_struct(RemoteTokenInformation)12935_storage)": {
        "encoding": "mapping",
        "key": "t_uint32",
        "label": "mapping(uint32 => struct RemoteTokenInformation)",
        "numberOfBytes": "32",
        "value": "t_struct(RemoteTokenInformation)12935_storage"
      },
      "t_struct(BridgeRequest)12953_storage": {
        "encoding": "inplace",
        "label": "struct ToucanCrosschainMessengerStorageV1.BridgeRequest",
        "members": [
          {
            "astId": 12944,
            "contract": "contracts/cross-chain/ToucanCrosschainMessenger.sol:ToucanCrosschainMessenger",
            "label": "isReverted",
            "offset": 0,
            "slot": "0",
            "type": "t_bool"
          },
          {
            "astId": 12946,
            "contract": "contracts/cross-chain/ToucanCrosschainMessenger.sol:ToucanCrosschainMessenger",
            "label": "timestamp",
            "offset": 0,
            "slot": "1",
            "type": "t_uint256"
          },
          {
            "astId": 12949,
            "contract": "contracts/cross-chain/ToucanCrosschainMessenger.sol:ToucanCrosschainMessenger",
            "label": "requestType",
            "offset": 0,
            "slot": "2",
            "type": "t_enum(BridgeRequestType)12940"
          },
          {
            "astId": 12952,
            "contract": "contracts/cross-chain/ToucanCrosschainMessenger.sol:ToucanCrosschainMessenger",
            "label": "messageType",
            "offset": 1,
            "slot": "2",
            "type": "t_enum(MessageTypes)12942"
          }
        ],
        "numberOfBytes": "96"
      },
      "t_struct(RemoteTokenInformation)12935_storage": {
        "encoding": "inplace",
        "label": "struct RemoteTokenInformation",
        "members": [
          {
            "astId": 12931,
            "contract": "contracts/cross-chain/ToucanCrosschainMessenger.sol:ToucanCrosschainMessenger",
            "label": "tokenAddress",
            "offset": 0,
            "slot": "0",
            "type": "t_address"
          },
          {
            "astId": 12934,
            "contract": "contracts/cross-chain/ToucanCrosschainMessenger.sol:ToucanCrosschainMessenger",
            "label": "timer",
            "offset": 0,
            "slot": "1",
            "type": "t_uint256"
          }
        ],
        "numberOfBytes": "64"
      },
      "t_uint256": {
        "encoding": "inplace",
        "label": "uint256",
        "numberOfBytes": "32"
      },
      "t_uint32": {
        "encoding": "inplace",
        "label": "uint32",
        "numberOfBytes": "4"
      },
      "t_uint8": {
        "encoding": "inplace",
        "label": "uint8",
        "numberOfBytes": "1"
      }
    }
  }
}