{
  "address": "0xC5b831866d1e48f54B0f7AA267F00A620F25AD80",
  "abi": [
    {
      "anonymous": false,
      "inputs": [
        {
          "indexed": true,
          "internalType": "address",
          "name": "owner",
          "type": "address"
        },
        {
          "indexed": true,
          "internalType": "address",
          "name": "spender",
          "type": "address"
        },
        {
          "indexed": false,
          "internalType": "uint256",
          "name": "value",
          "type": "uint256"
        }
      ],
      "name": "Approval",
      "type": "event"
    },
    {
      "anonymous": false,
      "inputs": [
        {
          "indexed": false,
          "internalType": "address",
          "name": "bridger",
          "type": "address"
        },
        {
          "indexed": false,
          "internalType": "uint256",
          "name": "fees",
          "type": "uint256"
        }
      ],
      "name": "FeeBurnt",
      "type": "event"
    },
    {
      "anonymous": false,
      "inputs": [
        {
          "indexed": false,
          "internalType": "address",
          "name": "bridger",
          "type": "address"
        },
        {
          "indexed": false,
          "internalType": "uint256",
          "name": "fees",
          "type": "uint256"
        }
      ],
      "name": "FeePaid",
      "type": "event"
    },
    {
      "anonymous": false,
      "inputs": [
        {
          "indexed": false,
          "internalType": "uint8",
          "name": "version",
          "type": "uint8"
        }
      ],
      "name": "Initialized",
      "type": "event"
    },
    {
      "anonymous": false,
      "inputs": [
        {
          "indexed": false,
          "internalType": "address",
          "name": "sender",
          "type": "address"
        },
        {
          "indexed": false,
          "internalType": "uint256",
          "name": "amount",
          "type": "uint256"
        },
        {
          "indexed": false,
          "internalType": "uint256",
          "name": "eventId",
          "type": "uint256"
        }
      ],
      "name": "Retired",
      "type": "event"
    },
    {
      "anonymous": false,
      "inputs": [
        {
          "indexed": true,
          "internalType": "address",
          "name": "from",
          "type": "address"
        },
        {
          "indexed": true,
          "internalType": "address",
          "name": "to",
          "type": "address"
        },
        {
          "indexed": false,
          "internalType": "uint256",
          "name": "value",
          "type": "uint256"
        }
      ],
      "name": "Transfer",
      "type": "event"
    },
    {
      "inputs": [],
      "name": "DETOKENIZER_ROLE",
      "outputs": [
        {
          "internalType": "bytes32",
          "name": "",
          "type": "bytes32"
        }
      ],
      "stateMutability": "view",
      "type": "function"
    },
    {
      "inputs": [],
      "name": "RETIREMENT_ROLE",
      "outputs": [
        {
          "internalType": "bytes32",
          "name": "",
          "type": "bytes32"
        }
      ],
      "stateMutability": "view",
      "type": "function"
    },
    {
      "inputs": [],
      "name": "TOKENIZER_ROLE",
      "outputs": [
        {
          "internalType": "bytes32",
          "name": "",
          "type": "bytes32"
        }
      ],
      "stateMutability": "view",
      "type": "function"
    },
    {
      "inputs": [],
      "name": "VERSION",
      "outputs": [
        {
          "internalType": "string",
          "name": "",
          "type": "string"
        }
      ],
      "stateMutability": "view",
      "type": "function"
    },
    {
      "inputs": [],
      "name": "VERSION_RELEASE_CANDIDATE",
      "outputs": [
        {
          "internalType": "uint256",
          "name": "",
          "type": "uint256"
        }
      ],
      "stateMutability": "view",
      "type": "function"
    },
    {
      "inputs": [
        {
          "internalType": "address",
          "name": "owner",
          "type": "address"
        },
        {
          "internalType": "address",
          "name": "spender",
          "type": "address"
        }
      ],
      "name": "allowance",
      "outputs": [
        {
          "internalType": "uint256",
          "name": "",
          "type": "uint256"
        }
      ],
      "stateMutability": "view",
      "type": "function"
    },
    {
      "inputs": [
        {
          "internalType": "address",
          "name": "spender",
          "type": "address"
        },
        {
          "internalType": "uint256",
          "name": "amount",
          "type": "uint256"
        }
      ],
      "name": "approve",
      "outputs": [
        {
          "internalType": "bool",
          "name": "",
          "type": "bool"
        }
      ],
      "stateMutability": "nonpayable",
      "type": "function"
    },
    {
      "inputs": [
        {
          "internalType": "address",
          "name": "account",
          "type": "address"
        }
      ],
      "name": "balanceOf",
      "outputs": [
        {
          "internalType": "uint256",
          "name": "",
          "type": "uint256"
        }
      ],
      "stateMutability": "view",
      "type": "function"
    },
    {
      "inputs": [
        {
          "internalType": "address",
          "name": "account",
          "type": "address"
        },
        {
          "internalType": "uint256",
          "name": "amount",
          "type": "uint256"
        }
      ],
      "name": "bridgeBurn",
      "outputs": [],
      "stateMutability": "nonpayable",
      "type": "function"
    },
    {
      "inputs": [
        {
          "internalType": "address",
          "name": "account",
          "type": "address"
        },
        {
          "internalType": "uint256",
          "name": "amount",
          "type": "uint256"
        }
      ],
      "name": "bridgeMint",
      "outputs": [],
      "stateMutability": "nonpayable",
      "type": "function"
    },
    {
      "inputs": [
        {
          "internalType": "address",
          "name": "account",
          "type": "address"
        },
        {
          "internalType": "uint256",
          "name": "amount",
          "type": "uint256"
        }
      ],
      "name": "burnFrom",
      "outputs": [],
      "stateMutability": "nonpayable",
      "type": "function"
    },
    {
      "inputs": [],
      "name": "contractRegistry",
      "outputs": [
        {
          "internalType": "address",
          "name": "",
          "type": "address"
        }
      ],
      "stateMutability": "view",
      "type": "function"
    },
    {
      "inputs": [],
      "name": "decimals",
      "outputs": [
        {
          "internalType": "uint8",
          "name": "",
          "type": "uint8"
        }
      ],
      "stateMutability": "view",
      "type": "function"
    },
    {
      "inputs": [
        {
          "internalType": "address",
          "name": "spender",
          "type": "address"
        },
        {
          "internalType": "uint256",
          "name": "subtractedValue",
          "type": "uint256"
        }
      ],
      "name": "decreaseAllowance",
      "outputs": [
        {
          "internalType": "bool",
          "name": "",
          "type": "bool"
        }
      ],
      "stateMutability": "nonpayable",
      "type": "function"
    },
    {
      "inputs": [
        {
          "internalType": "uint256",
          "name": "tokenId",
          "type": "uint256"
        }
      ],
      "name": "defractionalize",
      "outputs": [],
      "stateMutability": "nonpayable",
      "type": "function"
    },
    {
      "inputs": [],
      "name": "getAttributes",
      "outputs": [
        {
          "components": [
            {
              "internalType": "string",
              "name": "projectId",
              "type": "string"
            },
            {
              "internalType": "string",
              "name": "standard",
              "type": "string"
            },
            {
              "internalType": "string",
              "name": "methodology",
              "type": "string"
            },
            {
              "internalType": "string",
              "name": "region",
              "type": "string"
            },
            {
              "internalType": "string",
              "name": "storageMethod",
              "type": "string"
            },
            {
              "internalType": "string",
              "name": "method",
              "type": "string"
            },
            {
              "internalType": "string",
              "name": "emissionType",
              "type": "string"
            },
            {
              "internalType": "string",
              "name": "category",
              "type": "string"
            },
            {
              "internalType": "string",
              "name": "uri",
              "type": "string"
            },
            {
              "internalType": "address",
              "name": "beneficiary",
              "type": "address"
            }
          ],
          "internalType": "struct ProjectData",
          "name": "",
          "type": "tuple"
        },
        {
          "components": [
            {
              "internalType": "string",
              "name": "name",
              "type": "string"
            },
            {
              "internalType": "uint64",
              "name": "startTime",
              "type": "uint64"
            },
            {
              "internalType": "uint64",
              "name": "endTime",
              "type": "uint64"
            },
            {
              "internalType": "uint256",
              "name": "projectTokenId",
              "type": "uint256"
            },
            {
              "internalType": "uint64",
              "name": "totalVintageQuantity",
              "type": "uint64"
            },
            {
              "internalType": "bool",
              "name": "isCorsiaCompliant",
              "type": "bool"
            },
            {
              "internalType": "bool",
              "name": "isCCPcompliant",
              "type": "bool"
            },
            {
              "internalType": "string",
              "name": "coBenefits",
              "type": "string"
            },
            {
              "internalType": "string",
              "name": "correspAdjustment",
              "type": "string"
            },
            {
              "internalType": "string",
              "name": "additionalCertification",
              "type": "string"
            },
            {
              "internalType": "string",
              "name": "uri",
              "type": "string"
            },
            {
              "internalType": "string",
              "name": "registry",
              "type": "string"
            }
          ],
          "internalType": "struct VintageData",
          "name": "",
          "type": "tuple"
        }
      ],
      "stateMutability": "view",
      "type": "function"
    },
    {
      "inputs": [],
      "name": "getDepositCap",
      "outputs": [
        {
          "internalType": "uint256",
          "name": "",
          "type": "uint256"
        }
      ],
      "stateMutability": "view",
      "type": "function"
    },
    {
      "inputs": [],
      "name": "getGlobalProjectVintageIdentifiers",
      "outputs": [
        {
          "internalType": "string",
          "name": "",
          "type": "string"
        },
        {
          "internalType": "string",
          "name": "",
          "type": "string"
        }
      ],
      "stateMutability": "view",
      "type": "function"
    },
    {
      "inputs": [],
      "name": "getRemaining",
      "outputs": [
        {
          "internalType": "uint256",
          "name": "remaining",
          "type": "uint256"
        }
      ],
      "stateMutability": "view",
      "type": "function"
    },
    {
      "inputs": [],
      "name": "getVintageData",
      "outputs": [
        {
          "components": [
            {
              "internalType": "string",
              "name": "name",
              "type": "string"
            },
            {
              "internalType": "uint64",
              "name": "startTime",
              "type": "uint64"
            },
            {
              "internalType": "uint64",
              "name": "endTime",
              "type": "uint64"
            },
            {
              "internalType": "uint256",
              "name": "projectTokenId",
              "type": "uint256"
            },
            {
              "internalType": "uint64",
              "name": "totalVintageQuantity",
              "type": "uint64"
            },
            {
              "internalType": "bool",
              "name": "isCorsiaCompliant",
              "type": "bool"
            },
            {
              "internalType": "bool",
              "name": "isCCPcompliant",
              "type": "bool"
            },
            {
              "internalType": "string",
              "name": "coBenefits",
              "type": "string"
            },
            {
              "internalType": "string",
              "name": "correspAdjustment",
              "type": "string"
            },
            {
              "internalType": "string",
              "name": "additionalCertification",
              "type": "string"
            },
            {
              "internalType": "string",
              "name": "uri",
              "type": "string"
            },
            {
              "internalType": "string",
              "name": "registry",
              "type": "string"
            }
          ],
          "internalType": "struct VintageData",
          "name": "vintageData",
          "type": "tuple"
        }
      ],
      "stateMutability": "view",
      "type": "function"
    },
    {
      "inputs": [
        {
          "internalType": "address",
          "name": "spender",
          "type": "address"
        },
        {
          "internalType": "uint256",
          "name": "addedValue",
          "type": "uint256"
        }
      ],
      "name": "increaseAllowance",
      "outputs": [
        {
          "internalType": "bool",
          "name": "",
          "type": "bool"
        }
      ],
      "stateMutability": "nonpayable",
      "type": "function"
    },
    {
      "inputs": [
        {
          "internalType": "string",
          "name": "name_",
          "type": "string"
        },
        {
          "internalType": "string",
          "name": "symbol_",
          "type": "string"
        },
        {
          "internalType": "uint256",
          "name": "projectVintageTokenId_",
          "type": "uint256"
        },
        {
          "internalType": "address",
          "name": "contractRegistry_",
          "type": "address"
        }
      ],
      "name": "initialize",
      "outputs": [],
      "stateMutability": "nonpayable",
      "type": "function"
    },
    {
      "inputs": [
        {
          "internalType": "string",
          "name": "retiringEntityString",
          "type": "string"
        },
        {
          "internalType": "address",
          "name": "beneficiary",
          "type": "address"
        },
        {
          "internalType": "string",
          "name": "beneficiaryString",
          "type": "string"
        },
        {
          "internalType": "string",
          "name": "retirementMessage",
          "type": "string"
        }
      ],
      "name": "mintCertificateLegacy",
      "outputs": [],
      "stateMutability": "nonpayable",
      "type": "function"
    },
    {
      "inputs": [
        {
          "internalType": "address",
          "name": "",
          "type": "address"
        }
      ],
      "name": "minterToId",
      "outputs": [
        {
          "internalType": "uint256",
          "name": "",
          "type": "uint256"
        }
      ],
      "stateMutability": "view",
      "type": "function"
    },
    {
      "inputs": [],
      "name": "name",
      "outputs": [
        {
          "internalType": "string",
          "name": "",
          "type": "string"
        }
      ],
      "stateMutability": "view",
      "type": "function"
    },
    {
      "inputs": [
        {
          "internalType": "address",
          "name": "",
          "type": "address"
        },
        {
          "internalType": "address",
          "name": "from",
          "type": "address"
        },
        {
          "internalType": "uint256",
          "name": "tokenId",
          "type": "uint256"
        },
        {
          "internalType": "bytes",
          "name": "",
          "type": "bytes"
        }
      ],
      "name": "onERC721Received",
      "outputs": [
        {
          "internalType": "bytes4",
          "name": "",
          "type": "bytes4"
        }
      ],
      "stateMutability": "nonpayable",
      "type": "function"
    },
    {
      "inputs": [],
      "name": "projectVintageTokenId",
      "outputs": [
        {
          "internalType": "uint256",
          "name": "",
          "type": "uint256"
        }
      ],
      "stateMutability": "view",
      "type": "function"
    },
    {
      "inputs": [
        {
          "internalType": "uint256",
          "name": "amount",
          "type": "uint256"
        }
      ],
      "name": "retire",
      "outputs": [
        {
          "internalType": "uint256",
          "name": "retirementEventId",
          "type": "uint256"
        }
      ],
      "stateMutability": "nonpayable",
      "type": "function"
    },
    {
      "inputs": [
        {
          "internalType": "string",
          "name": "retiringEntityString",
          "type": "string"
        },
        {
          "internalType": "address",
          "name": "beneficiary",
          "type": "address"
        },
        {
          "internalType": "string",
          "name": "beneficiaryString",
          "type": "string"
        },
        {
          "internalType": "string",
          "name": "retirementMessage",
          "type": "string"
        },
        {
          "internalType": "uint256",
          "name": "amount",
          "type": "uint256"
        }
      ],
      "name": "retireAndMintCertificate",
      "outputs": [],
      "stateMutability": "nonpayable",
      "type": "function"
    },
    {
      "inputs": [
        {
          "internalType": "address",
          "name": "account",
          "type": "address"
        },
        {
          "internalType": "uint256",
          "name": "amount",
          "type": "uint256"
        }
      ],
      "name": "retireFrom",
      "outputs": [
        {
          "internalType": "uint256",
          "name": "retirementEventId",
          "type": "uint256"
        }
      ],
      "stateMutability": "nonpayable",
      "type": "function"
    },
    {
      "inputs": [],
      "name": "standardRegistry",
      "outputs": [
        {
          "internalType": "string",
          "name": "",
          "type": "string"
        }
      ],
      "stateMutability": "pure",
      "type": "function"
    },
    {
      "inputs": [],
      "name": "standardRegistryDecimals",
      "outputs": [
        {
          "internalType": "uint8",
          "name": "",
          "type": "uint8"
        }
      ],
      "stateMutability": "pure",
      "type": "function"
    },
    {
      "inputs": [],
      "name": "symbol",
      "outputs": [
        {
          "internalType": "string",
          "name": "",
          "type": "string"
        }
      ],
      "stateMutability": "view",
      "type": "function"
    },
    {
      "inputs": [],
      "name": "totalSupply",
      "outputs": [
        {
          "internalType": "uint256",
          "name": "",
          "type": "uint256"
        }
      ],
      "stateMutability": "view",
      "type": "function"
    },
    {
      "inputs": [
        {
          "internalType": "address",
          "name": "recipient",
          "type": "address"
        },
        {
          "internalType": "uint256",
          "name": "amount",
          "type": "uint256"
        }
      ],
      "name": "transfer",
      "outputs": [
        {
          "internalType": "bool",
          "name": "",
          "type": "bool"
        }
      ],
      "stateMutability": "nonpayable",
      "type": "function"
    },
    {
      "inputs": [
        {
          "internalType": "address",
          "name": "sender",
          "type": "address"
        },
        {
          "internalType": "address",
          "name": "recipient",
          "type": "address"
        },
        {
          "internalType": "uint256",
          "name": "amount",
          "type": "uint256"
        }
      ],
      "name": "transferFrom",
      "outputs": [
        {
          "internalType": "bool",
          "name": "",
          "type": "bool"
        }
      ],
      "stateMutability": "nonpayable",
      "type": "function"
    }
  ],
  "numDeployments": 4,
  "solcInputHash": "fab54b8724c165e4bee2a545610a2ed2",
  "bytecode": "0x60806040523480156200001157600080fd5b506200001c62000022565b62000152565b6200002e60ff62000031565b50565b60008054610100900460ff1615620000ca578160ff1660011480156200006a575062000068306200014360201b620022cb1760201c565b155b620000c25760405162461bcd60e51b815260206004820152602e60248201526000805160206200437183398151915260448201526d191e481a5b9a5d1a585b1a5e995960921b60648201526084015b60405180910390fd5b506000919050565b60005460ff808416911610620001295760405162461bcd60e51b815260206004820152602e60248201526000805160206200437183398151915260448201526d191e481a5b9a5d1a585b1a5e995960921b6064820152608401620000b9565b506000805460ff191660ff92909216919091179055600190565b6001600160a01b03163b151590565b61420f80620001626000396000f3fe608060405234801561001057600080fd5b506004361061021c5760003560e01c80636b24ffd611610125578063a457c2d7116100ad578063d6a022b81161007c578063d6a022b8146104d2578063dd62ed3e146104da578063e819426c146104ed578063e9d5c8d5146104f5578063ffa1ad741461051557600080fd5b8063a457c2d71461046e578063a9059cbb14610481578063abf410e514610494578063bd3a13f6146104bf57600080fd5b80637903c7d0116100f45780637903c7d01461040657806379cc67901461041957806383f2fc3e1461042c5780638c2a993e1461045357806395d89b411461046657600080fd5b80636b24ffd6146103af5780636ca0b0d7146103c257806370a08231146103ca57806374f4f547146103f357600080fd5b80632ef29290116101a8578063395093511161017757806339509351146103575780633c31175e1461036a5780635c6f3a901461037257806364c5a4031461039957806365ec18091461032057600080fd5b80632ef292901461030d578063313ce567146103205780633633f35f1461032f5780633790cf571461034457600080fd5b8063095ea7b3116101ef578063095ea7b31461028d578063150b7a02146102b0578063152583de146102dc57806318160ddd146102f257806323b872dd146102fa57600080fd5b806301a598da146102215780630605a3341461023c57806306fdde0314610263578063077c6f2b14610278575b600080fd5b610229610539565b6040519081526020015b60405180910390f35b6102297fe70d28ebd9d7d9a3dd77d46ae2481f301c80806f395b08de31d8e095b1c46cee81565b61026b610592565b6040516102339190613160565b61028b6102863660046131d3565b6105cd565b005b6102a061029b366004613281565b61082e565b6040519015158152602001610233565b6102c36102be3660046132ad565b610848565b6040516001600160e01b03199091168152602001610233565b6102e4610e12565b60405161023392919061344b565b603554610229565b6102a061030836600461358a565b61100b565b61028b61031b3660046135cb565b61114e565b60405160128152602001610233565b610337611370565b6040516102339190613680565b610229610352366004613693565b611465565b6102a0610365366004613281565b611579565b61026b61159b565b6102297ffb7778e60e898528875e31f94e3a623d6302be2aa540c7a7f5ae26fe5ee2498d81565b6103a16115ba565b6040516102339291906136ac565b6102296103bd366004613281565b6115e4565b610229600181565b6102296103d83660046136d1565b6001600160a01b031660009081526033602052604090205490565b61028b610401366004613281565b611704565b61028b610414366004613693565b611939565b61028b610427366004613281565b611cb2565b6102297ff70ccd5004a2a6f964f044c0095454c529799f8602238d52b5a197af351dd41981565b61028b610461366004613281565b611dcc565b61026b611ff9565b6102a061047c366004613281565b61201e565b6102a061048f366004613281565b6120a4565b6066546104a7906001600160a01b031681565b6040516001600160a01b039091168152602001610233565b61028b6104cd3660046137fd565b6121e5565b610229612280565b6102296104e836600461387c565b6122a0565b606554610229565b6102296105033660046136d1565b60676020526000908152604090205481565b61026b604051806040016040528060058152602001640312e362e360dc1b81525081565b6000610543612f93565b61054b610e12565b6080810151909250905060006105636012600a6139af565b610576906001600160401b0384166139be565b90508060000361058b57600019935050505090565b9392505050565b606080606061059f6115ba565b60405191935091506105b790839083906020016139dd565b6040516020818303038152906040529250505090565b6066546000906001600160a01b03166391148b276105e961159b565b6040518263ffffffff1660e01b81526004016106059190613160565b602060405180830381865afa158015610622573d6000803e3d6000fd5b505050506040513d601f19601f820116820180604052508101906106469190613a46565b90506000816001600160a01b0316635c975abb6040518163ffffffff1660e01b8152600401602060405180830381865afa158015610688573d6000803e3d6000fd5b505050506040513d601f19601f820116820180604052508101906106ac9190613a73565b905080156106d55760405162461bcd60e51b81526004016106cc90613a8e565b60405180910390fd5b60006106df6122da565b6040805160018082528183019092529192506000919060208083019080368337019050509050818160008151811061071957610719613ab3565b6020026020010181815250506000606660009054906101000a90046001600160a01b03166001600160a01b031663376b5dce6040518163ffffffff1660e01b8152600401602060405180830381865afa15801561077a573d6000803e3d6000fd5b505050506040513d601f19601f8201168201806040525081019061079e9190613a46565b9050806001600160a01b031663163c1319338e8e8e8e8e8e8e8b6040518a63ffffffff1660e01b81526004016107dc99989796959493929190613b2d565b6020604051808303816000875af11580156107fb573d6000803e3d6000fd5b505050506040513d601f19601f8201168201806040525081019061081f9190613ba5565b50505050505050505050505050565b60003361083c8185856123eb565b60019150505b92915050565b60665460009081906001600160a01b03166391148b2761086661159b565b6040518263ffffffff1660e01b81526004016108829190613160565b602060405180830381865afa15801561089f573d6000803e3d6000fd5b505050506040513d601f19601f820116820180604052508101906108c39190613a46565b90506000816001600160a01b0316635c975abb6040518163ffffffff1660e01b8152600401602060405180830381865afa158015610905573d6000803e3d6000fd5b505050506040513d601f19601f820116820180604052508101906109299190613a73565b905080156109495760405162461bcd60e51b81526004016106cc90613a8e565b61095233612510565b60405180604001604052806002815260200161068760f31b8152509061098b5760405162461bcd60e51b81526004016106cc9190613160565b50600080600061099b338a6125ab565b925092509250606554831460405180604001604052806002815260200161343960f01b815250906109df5760405162461bcd60e51b81526004016106cc9190613160565b5060038160068111156109f4576109f4613bbe565b1480610a1157506005816006811115610a0f57610a0f613bbe565b145b15610a295750630a85bd0160e11b9450610e07915050565b6002816006811115610a3d57610a3d613bbe565b1460405180604001604052806002815260200161343760f01b81525090610a775760405162461bcd60e51b81526004016106cc9190613160565b5081610a81612280565b101560405180604001604052806002815260200161035360f41b81525090610abc5760405162461bcd60e51b81526004016106cc9190613160565b506001600160a01b03808b1660009081526067602052604081208b90556066549091166391148b27610aec61159b565b6040518263ffffffff1660e01b8152600401610b089190613160565b602060405180830381865afa158015610b25573d6000803e3d6000fd5b505050506040513d601f19601f82011682018060405250810190610b499190613a46565b90506000816001600160a01b03166380e2d3f06040518163ffffffff1660e01b8152600401602060405180830381865afa158015610b8b573d6000803e3d6000fd5b505050506040513d601f19601f82011682018060405250810190610baf9190613a46565b90506001600160a01b038116610bce57610bc98c85612643565b610df7565b6040516379bcd2d160e11b81526004810185905260009081906001600160a01b0385169063f379a5a2906024016040805180830381865afa158015610c17573d6000803e3d6000fd5b505050506040513d601f19601f82011682018060405250810190610c3b9190613bd4565b9092509050610c538e610c4e8489613bf8565b612643565b6000846001600160a01b031663581cd1106040518163ffffffff1660e01b8152600401602060405180830381865afa158015610c93573d6000803e3d6000fd5b505050506040513d601f19601f82011682018060405250810190610cb79190613a46565b90506001600160a01b03811615801590610cd15750600082115b15610d9557610ce08284613bf8565b9250610cec8484612643565b610cf68183612643565b7f075a2720282fdf622141dae0b048ef90a21a7e57c134c76912d19d006b3b3f6f8f84604051610d3b9291906001600160a01b03929092168252602082015260400190565b60405180910390a17fa2f0f5180dc62f2d34c8207f1d18178d31bd0de616f83636434ddf48de0ae6fa8f83604051610d889291906001600160a01b03929092168252602082015260400190565b60405180910390a1610df3565b8215610df357610da58484612643565b7f075a2720282fdf622141dae0b048ef90a21a7e57c134c76912d19d006b3b3f6f8f84604051610dea9291906001600160a01b03929092168252602082015260400190565b60405180910390a15b5050505b50630a85bd0160e11b9650505050505b505095945050505050565b610e1a613013565b610e22612f93565b606654604080516301157a8360e01b815290516000926001600160a01b0316916301157a839160048083019260209291908290030181865afa158015610e6c573d6000803e3d6000fd5b505050506040513d601f19601f82011682018060405250810190610e909190613a46565b90506000606660009054906101000a90046001600160a01b03166001600160a01b031663a0af25606040518163ffffffff1660e01b8152600401602060405180830381865afa158015610ee7573d6000803e3d6000fd5b505050506040513d601f19601f82011682018060405250810190610f0b9190613a46565b90506000816001600160a01b03166315bbf0746065546040518263ffffffff1660e01b8152600401610f3f91815260200190565b600060405180830381865afa158015610f5c573d6000803e3d6000fd5b505050506040513d6000823e601f3d908101601f19168201604052610f849190810190613c6b565b90506000836001600160a01b03166347e3168683606001516040518263ffffffff1660e01b8152600401610fba91815260200190565b600060405180830381865afa158015610fd7573d6000803e3d6000fd5b505050506040513d6000823e601f3d908101601f19168201604052610fff9190810190613df5565b96919550909350505050565b6000826001600160a01b03811661102157600080fd5b306001600160a01b0382160361103657600080fd5b6066546000906001600160a01b03166391148b2761105261159b565b6040518263ffffffff1660e01b815260040161106e9190613160565b602060405180830381865afa15801561108b573d6000803e3d6000fd5b505050506040513d601f19601f820116820180604052508101906110af9190613a46565b90506000816001600160a01b0316635c975abb6040518163ffffffff1660e01b8152600401602060405180830381865afa1580156110f1573d6000803e3d6000fd5b505050506040513d601f19601f820116820180604052508101906111159190613a73565b905080156111355760405162461bcd60e51b81526004016106cc90613a8e565b611140878787612722565b506001979650505050505050565b6066546000906001600160a01b03166391148b2761116a61159b565b6040518263ffffffff1660e01b81526004016111869190613160565b602060405180830381865afa1580156111a3573d6000803e3d6000fd5b505050506040513d601f19601f820116820180604052508101906111c79190613a46565b90506000816001600160a01b0316635c975abb6040518163ffffffff1660e01b8152600401602060405180830381865afa158015611209573d6000803e3d6000fd5b505050506040513d601f19601f8201168201806040525081019061122d9190613a73565b9050801561124d5760405162461bcd60e51b81526004016106cc90613a8e565b604080516000610140820181815261016083018452825260208083018790528351601f8e0182900482028101820185528d81529193830191908e908e90819084018382808284376000920191909152505050908252506001600160a01b038b1660208083019190915260408051601f8c0183900483028101830182528b8152920191908b908b9081908401838280828437600092019190915250505090825250604080516020601f8a018190048102820181019092528881529181019190899089908190840183828082843760009201829052509385525050604080516020818101835284825280860191909152815190810182528381529084015250606082018190526080909101529050611363338261273b565b5050505050505050505050565b611378612f93565b60665460408051630505792b60e51b815290516000926001600160a01b03169163a0af25609160048083019260209291908290030181865afa1580156113c2573d6000803e3d6000fd5b505050506040513d601f19601f820116820180604052508101906113e69190613a46565b60655460405163056efc1d60e21b81529192506001600160a01b038316916315bbf0749161141a9160040190815260200190565b600060405180830381865afa158015611437573d6000803e3d6000fd5b505050506040513d6000823e601f3d908101601f1916820160405261145f9190810190613c6b565b91505090565b60665460009081906001600160a01b03166391148b2761148361159b565b6040518263ffffffff1660e01b815260040161149f9190613160565b602060405180830381865afa1580156114bc573d6000803e3d6000fd5b505050506040513d601f19601f820116820180604052508101906114e09190613a46565b90506000816001600160a01b0316635c975abb6040518163ffffffff1660e01b8152600401602060405180830381865afa158015611522573d6000803e3d6000fd5b505050506040513d601f19601f820116820180604052508101906115469190613a73565b905080156115665760405162461bcd60e51b81526004016106cc90613a8e565b611571338533612977565b949350505050565b60003361083c81858561158c83836122a0565b6115969190613f9a565b6123eb565b604080518082019091526005815264766572726160d81b602082015290565b6060806115c5613013565b6115cd612f93565b6115d5610e12565b90519051909590945092505050565b60665460009081906001600160a01b03166391148b2761160261159b565b6040518263ffffffff1660e01b815260040161161e9190613160565b602060405180830381865afa15801561163b573d6000803e3d6000fd5b505050506040513d601f19601f8201168201806040525081019061165f9190613a46565b90506000816001600160a01b0316635c975abb6040518163ffffffff1660e01b8152600401602060405180830381865afa1580156116a1573d6000803e3d6000fd5b505050506040513d601f19601f820116820180604052508101906116c59190613a73565b905080156116e55760405162461bcd60e51b81526004016106cc90613a8e565b6116f0853386612ace565b6116fb858587612977565b95945050505050565b6066546000906001600160a01b03166391148b2761172061159b565b6040518263ffffffff1660e01b815260040161173c9190613160565b602060405180830381865afa158015611759573d6000803e3d6000fd5b505050506040513d601f19601f8201168201806040525081019061177d9190613a46565b90506000816001600160a01b0316635c975abb6040518163ffffffff1660e01b8152600401602060405180830381865afa1580156117bf573d6000803e3d6000fd5b505050506040513d601f19601f820116820180604052508101906117e39190613a73565b905080156118035760405162461bcd60e51b81526004016106cc90613a8e565b6066546000906001600160a01b03166391148b2761181f61159b565b6040518263ffffffff1660e01b815260040161183b9190613160565b602060405180830381865afa158015611858573d6000803e3d6000fd5b505050506040513d601f19601f8201168201806040525081019061187c9190613a46565b6040516311afe75f60e11b81523360048201529091506000906001600160a01b0383169063235fcebe90602401602060405180830381865afa1580156118c6573d6000803e3d6000fd5b505050506040513d601f19601f820116820180604052508101906118ea9190613a73565b9050806119275760405162461bcd60e51b815260206004820152600b60248201526a139bdd08185b1b1bddd95960aa1b60448201526064016106cc565b6119318686612b42565b505050505050565b6066546000906001600160a01b03166391148b2761195561159b565b6040518263ffffffff1660e01b81526004016119719190613160565b602060405180830381865afa15801561198e573d6000803e3d6000fd5b505050506040513d601f19601f820116820180604052508101906119b29190613a46565b90506000816001600160a01b0316635c975abb6040518163ffffffff1660e01b8152600401602060405180830381865afa1580156119f4573d6000803e3d6000fd5b505050506040513d601f19601f82011682018060405250810190611a189190613a73565b90508015611a385760405162461bcd60e51b81526004016106cc90613a8e565b6066546000906001600160a01b03166391148b27611a5461159b565b6040518263ffffffff1660e01b8152600401611a709190613160565b602060405180830381865afa158015611a8d573d6000803e3d6000fd5b505050506040513d601f19601f82011682018060405250810190611ab19190613a46565b90506000816001600160a01b0316638da5cb5b6040518163ffffffff1660e01b8152600401602060405180830381865afa158015611af3573d6000803e3d6000fd5b505050506040513d601f19601f82011682018060405250810190611b179190613a46565b90506001600160a01b0381163314611b655760405162461bcd60e51b81526020600482015260116024820152702737ba103330b1ba37b93c9037bbb732b960791b60448201526064016106cc565b60665460408051634be4e3dd60e01b815290516000926001600160a01b031691634be4e3dd9160048083019260209291908290030181865afa158015611baf573d6000803e3d6000fd5b505050506040513d601f19601f82011682018060405250810190611bd39190613a46565b9050600080611be283896125ab565b909350915060029050816006811115611bfd57611bfd613bbe565b1460405180604001604052806002815260200161343760f01b81525090611c375760405162461bcd60e51b81526004016106cc9190613160565b50611c423383612b42565b6040516323b872dd60e01b8152306004820152336024820152604481018990526001600160a01b038416906323b872dd90606401600060405180830381600087803b158015611c9057600080fd5b505af1158015611ca4573d6000803e3d6000fd5b505050505050505050505050565b6066546000906001600160a01b03166391148b27611cce61159b565b6040518263ffffffff1660e01b8152600401611cea9190613160565b602060405180830381865afa158015611d07573d6000803e3d6000fd5b505050506040513d601f19601f82011682018060405250810190611d2b9190613a46565b90506000816001600160a01b0316635c975abb6040518163ffffffff1660e01b8152600401602060405180830381865afa158015611d6d573d6000803e3d6000fd5b505050506040513d601f19601f82011682018060405250810190611d919190613a73565b90508015611db15760405162461bcd60e51b81526004016106cc90613a8e565b611dbc843385612ace565b611dc68484612b42565b50505050565b6066546000906001600160a01b03166391148b27611de861159b565b6040518263ffffffff1660e01b8152600401611e049190613160565b602060405180830381865afa158015611e21573d6000803e3d6000fd5b505050506040513d601f19601f82011682018060405250810190611e459190613a46565b90506000816001600160a01b0316635c975abb6040518163ffffffff1660e01b8152600401602060405180830381865afa158015611e87573d6000803e3d6000fd5b505050506040513d601f19601f82011682018060405250810190611eab9190613a73565b90508015611ecb5760405162461bcd60e51b81526004016106cc90613a8e565b6066546000906001600160a01b03166391148b27611ee761159b565b6040518263ffffffff1660e01b8152600401611f039190613160565b602060405180830381865afa158015611f20573d6000803e3d6000fd5b505050506040513d601f19601f82011682018060405250810190611f449190613a46565b6040516311afe75f60e11b81523360048201529091506000906001600160a01b0383169063235fcebe90602401602060405180830381865afa158015611f8e573d6000803e3d6000fd5b505050506040513d601f19601f82011682018060405250810190611fb29190613a73565b905080611fef5760405162461bcd60e51b815260206004820152600b60248201526a139bdd08185b1b1bddd95960aa1b60448201526064016106cc565b6119318686612643565b60608060606120066115ba565b60405191935091506105b79083908390602001613fb2565b6000338161202c82866122a0565b90508381101561208c5760405162461bcd60e51b815260206004820152602560248201527f45524332303a2064656372656173656420616c6c6f77616e63652062656c6f77604482015264207a65726f60d81b60648201526084016106cc565b61209982868684036123eb565b506001949350505050565b6000826001600160a01b0381166120ba57600080fd5b306001600160a01b038216036120cf57600080fd5b6066546000906001600160a01b03166391148b276120eb61159b565b6040518263ffffffff1660e01b81526004016121079190613160565b602060405180830381865afa158015612124573d6000803e3d6000fd5b505050506040513d601f19601f820116820180604052508101906121489190613a46565b90506000816001600160a01b0316635c975abb6040518163ffffffff1660e01b8152600401602060405180830381865afa15801561218a573d6000803e3d6000fd5b505050506040513d601f19601f820116820180604052508101906121ae9190613a73565b905080156121ce5760405162461bcd60e51b81526004016106cc90613a8e565b6121d88686612c8d565b5060019695505050505050565b60006121f16001612c9b565b90508015612209576000805461ff0019166101001790555b6122138585612d1b565b6065839055606680546001600160a01b0319166001600160a01b0384161790558015612279576000805461ff0019169055604051600181527f7f26b83ff96e1f2b6a682f133852f6798a09c465da95921460cefb38474024989060200160405180910390a15b5050505050565b60008061228b610539565b905061229660355490565b61145f9082613bf8565b6001600160a01b03918216600090815260346020908152604080832093909416825291909152205490565b6001600160a01b03163b151590565b3360009081526068602090815260408083208054908490556066548251631bb5aee760e11b81529251919385936001600160a01b039092169263376b5dce9260048082019392918290030181865afa15801561233a573d6000803e3d6000fd5b505050506040513d601f19601f8201168201806040525081019061235e9190613a46565b6065546040516313ef24f760e11b8152336004820152602481019190915260448101849052600160648201529091506001600160a01b038216906327de49ee906084016020604051808303816000875af11580156123c0573d6000803e3d6000fd5b505050506040513d601f19601f820116820180604052508101906123e49190613ba5565b9250505090565b6001600160a01b03831661244d5760405162461bcd60e51b8152602060048201526024808201527f45524332303a20617070726f76652066726f6d20746865207a65726f206164646044820152637265737360e01b60648201526084016106cc565b6001600160a01b0382166124ae5760405162461bcd60e51b815260206004820152602260248201527f45524332303a20617070726f766520746f20746865207a65726f206164647265604482015261737360f01b60648201526084016106cc565b6001600160a01b0383811660008181526034602090815260408083209487168084529482529182902085905590518481527f8c5be1e5ebec7d5bd14f71427d1e84f3dd0314c0f7b2291e5b200ac8c7c3b92591015b60405180910390a3505050565b60665460408051634be4e3dd60e01b815290516000926001600160a01b031691634be4e3dd9160048083019260209291908290030181865afa15801561255a573d6000803e3d6000fd5b505050506040513d601f19601f8201168201806040525081019061257e9190613a46565b6001600160a01b0316826001600160a01b03160361259e57506001919050565b506000919050565b919050565b600080600080600080876001600160a01b031663dff35e83886040518263ffffffff1660e01b81526004016125e291815260200190565b606060405180830381865afa1580156125ff573d6000803e3d6000fd5b505050506040513d601f19601f820116820180604052508101906126239190613fff565b9250925092508261263383612dad565b9096509450925050509250925092565b6001600160a01b0382166126995760405162461bcd60e51b815260206004820152601f60248201527f45524332303a206d696e7420746f20746865207a65726f20616464726573730060448201526064016106cc565b80603560008282546126ab9190613f9a565b90915550506001600160a01b038216600090815260336020526040812080548392906126d8908490613f9a565b90915550506040518181526001600160a01b038316906000907fddf252ad1be2c89b69c2b068fc378daa952ba7f163c4a11628f55a4df523b3ef9060200160405180910390a35050565b600033612730858285612ace565b612099858585612dc5565b6066546000906001600160a01b03166391148b2761275761159b565b6040518263ffffffff1660e01b81526004016127739190613160565b602060405180830381865afa158015612790573d6000803e3d6000fd5b505050506040513d601f19601f820116820180604052508101906127b49190613a46565b90506000816001600160a01b0316635c975abb6040518163ffffffff1660e01b8152600401602060405180830381865afa1580156127f6573d6000803e3d6000fd5b505050506040513d601f19601f8201168201806040525081019061281a9190613a73565b9050801561283a5760405162461bcd60e51b81526004016106cc90613a8e565b600061284b33856020015187612977565b6040805160018082528183019092529192506000919060208083019080368337019050509050818160008151811061288557612885613ab3565b60209081029190910181019190915260665460408051631bb5aee760e11b815290516001600160a01b039092169263376b5dce926004808401938290030181865afa1580156128d8573d6000803e3d6000fd5b505050506040513d601f19601f820116820180604052508101906128fc9190613a46565b6001600160a01b031663cc91e5e98787846040518463ffffffff1660e01b815260040161292b9392919061403c565b6020604051808303816000875af115801561294a573d6000803e3d6000fd5b505050506040513d601f19601f8201168201806040525081019061296e9190613ba5565b50505050505050565b60006129838484612b42565b60665460408051631bb5aee760e11b815290516000926001600160a01b03169163376b5dce9160048083019260209291908290030181865afa1580156129cd573d6000803e3d6000fd5b505050506040513d601f19601f820116820180604052508101906129f19190613a46565b6065546040516313ef24f760e11b81526001600160a01b038681166004830152602482019290925260448101879052600060648201529192508216906327de49ee906084016020604051808303816000875af1158015612a55573d6000803e3d6000fd5b505050506040513d601f19601f82011682018060405250810190612a799190613ba5565b604080516001600160a01b0386168152602081018790529081018290529092507fb3775f672e1adf43bf7834b692675bfee4db72f83e42da8cff694ca295a89eca9060600160405180910390a1509392505050565b6000612ada84846122a0565b90506000198114611dc65781811015612b355760405162461bcd60e51b815260206004820152601d60248201527f45524332303a20696e73756666696369656e7420616c6c6f77616e636500000060448201526064016106cc565b611dc684848484036123eb565b6001600160a01b038216612ba25760405162461bcd60e51b815260206004820152602160248201527f45524332303a206275726e2066726f6d20746865207a65726f206164647265736044820152607360f81b60648201526084016106cc565b6001600160a01b03821660009081526033602052604090205481811015612c165760405162461bcd60e51b815260206004820152602260248201527f45524332303a206275726e20616d6f756e7420657863656564732062616c616e604482015261636560f01b60648201526084016106cc565b6001600160a01b0383166000908152603360205260408120838303905560358054849290612c45908490613bf8565b90915550506040518281526000906001600160a01b038516907fddf252ad1be2c89b69c2b068fc378daa952ba7f163c4a11628f55a4df523b3ef90602001612503565b505050565b60003361083c818585612dc5565b60008054610100900460ff1615612cda578160ff166001148015612cbe5750303b155b61259e5760405162461bcd60e51b81526004016106cc90614151565b60005460ff808416911610612d015760405162461bcd60e51b81526004016106cc90614151565b506000805460ff191660ff92909216919091179055600190565b600054610100900460ff16612d865760405162461bcd60e51b815260206004820152602b60248201527f496e697469616c697a61626c653a20636f6e7472616374206973206e6f74206960448201526a6e697469616c697a696e6760a81b60648201526084016106cc565b8151612d9990603690602085019061306f565b508051612c8890603790602084019061306f565b6000612dbb6012600a6139af565b61084290836139be565b6001600160a01b038316612e295760405162461bcd60e51b815260206004820152602560248201527f45524332303a207472616e736665722066726f6d20746865207a65726f206164604482015264647265737360d81b60648201526084016106cc565b6001600160a01b038216612e8b5760405162461bcd60e51b815260206004820152602360248201527f45524332303a207472616e7366657220746f20746865207a65726f206164647260448201526265737360e81b60648201526084016106cc565b6001600160a01b03831660009081526033602052604090205481811015612f035760405162461bcd60e51b815260206004820152602660248201527f45524332303a207472616e7366657220616d6f756e7420657863656564732062604482015265616c616e636560d01b60648201526084016106cc565b6001600160a01b03808516600090815260336020526040808220858503905591851681529081208054849290612f3a908490613f9a565b92505081905550826001600160a01b0316846001600160a01b03167fddf252ad1be2c89b69c2b068fc378daa952ba7f163c4a11628f55a4df523b3ef84604051612f8691815260200190565b60405180910390a3611dc6565b6040518061018001604052806060815260200160006001600160401b0316815260200160006001600160401b031681526020016000815260200160006001600160401b0316815260200160001515815260200160001515815260200160608152602001606081526020016060815260200160608152602001606081525090565b60405180610140016040528060608152602001606081526020016060815260200160608152602001606081526020016060815260200160608152602001606081526020016060815260200160006001600160a01b031681525090565b82805461307b9061419f565b90600052602060002090601f01602090048101928261309d57600085556130e3565b82601f106130b657805160ff19168380011785556130e3565b828001600101855582156130e3579182015b828111156130e35782518255916020019190600101906130c8565b506130ef9291506130f3565b5090565b5b808211156130ef57600081556001016130f4565b60005b8381101561312357818101518382015260200161310b565b83811115611dc65750506000910152565b6000815180845261314c816020860160208601613108565b601f01601f19169290920160200192915050565b60208152600061058b6020830184613134565b60008083601f84011261318557600080fd5b5081356001600160401b0381111561319c57600080fd5b6020830191508360208285010111156131b457600080fd5b9250929050565b6001600160a01b03811681146131d057600080fd5b50565b60008060008060008060006080888a0312156131ee57600080fd5b87356001600160401b038082111561320557600080fd5b6132118b838c01613173565b909950975060208a01359150613226826131bb565b9095506040890135908082111561323c57600080fd5b6132488b838c01613173565b909650945060608a013591508082111561326157600080fd5b5061326e8a828b01613173565b989b979a50959850939692959293505050565b6000806040838503121561329457600080fd5b823561329f816131bb565b946020939093013593505050565b6000806000806000608086880312156132c557600080fd5b85356132d0816131bb565b945060208601356132e0816131bb565b93506040860135925060608601356001600160401b0381111561330257600080fd5b61330e88828901613173565b969995985093965092949392505050565b6000610180825181855261333582860182613134565b915050602083015161335260208601826001600160401b03169052565b50604083015161336d60408601826001600160401b03169052565b5060608301516060850152608083015161339260808601826001600160401b03169052565b5060a08301516133a660a086018215159052565b5060c08301516133ba60c086018215159052565b5060e083015184820360e08601526133d28282613134565b91505061010080840151858303828701526133ed8382613134565b9250505061012080840151858303828701526134098382613134565b9250505061014080840151858303828701526134258382613134565b9250505061016080840151858303828701526134418382613134565b9695505050505050565b604081526000835161014080604085015261346a610180850183613134565b91506020860151603f19808685030160608701526134888483613134565b935060408801519150808685030160808701526134a58483613134565b935060608801519150808685030160a08701526134c28483613134565b935060808801519150808685030160c08701526134df8483613134565b935060a08801519150808685030160e08701526134fc8483613134565b935060c0880151915061010081878603018188015261351b8584613134565b945060e0890151925061012082888703018189015261353a8685613134565b9550818a015193508288870301858901526135558685613134565b9550808a01519450505050506135776101608501826001600160a01b03169052565b5082810360208401526116fb818561331f565b60008060006060848603121561359f57600080fd5b83356135aa816131bb565b925060208401356135ba816131bb565b929592945050506040919091013590565b60008060008060008060008060a0898b0312156135e757600080fd5b88356001600160401b03808211156135fe57600080fd5b61360a8c838d01613173565b909a50985060208b0135915061361f826131bb565b90965060408a0135908082111561363557600080fd5b6136418c838d01613173565b909750955060608b013591508082111561365a57600080fd5b506136678b828c01613173565b999c989b50969995989497949560800135949350505050565b60208152600061058b602083018461331f565b6000602082840312156136a557600080fd5b5035919050565b6040815260006136bf6040830185613134565b82810360208401526116fb8185613134565b6000602082840312156136e357600080fd5b813561058b816131bb565b634e487b7160e01b600052604160045260246000fd5b60405161018081016001600160401b0381118282101715613727576137276136ee565b60405290565b60405161014081016001600160401b0381118282101715613727576137276136ee565b604051601f8201601f191681016001600160401b0381118282101715613778576137786136ee565b604052919050565b60006001600160401b03821115613799576137996136ee565b50601f01601f191660200190565b600082601f8301126137b857600080fd5b81356137cb6137c682613780565b613750565b8181528460208386010111156137e057600080fd5b816020850160208301376000918101602001919091529392505050565b6000806000806080858703121561381357600080fd5b84356001600160401b038082111561382a57600080fd5b613836888389016137a7565b9550602087013591508082111561384c57600080fd5b50613859878288016137a7565b935050604085013591506060850135613871816131bb565b939692955090935050565b6000806040838503121561388f57600080fd5b823561389a816131bb565b915060208301356138aa816131bb565b809150509250929050565b634e487b7160e01b600052601160045260246000fd5b600181815b808511156139065781600019048211156138ec576138ec6138b5565b808516156138f957918102915b93841c93908002906138d0565b509250929050565b60008261391d57506001610842565b8161392a57506000610842565b8160018114613940576002811461394a57613966565b6001915050610842565b60ff84111561395b5761395b6138b5565b50506001821b610842565b5060208310610133831016604e8410600b8410161715613989575081810a610842565b61399383836138cb565b80600019048211156139a7576139a76138b5565b029392505050565b600061058b60ff84168361390e565b60008160001904831182151516156139d8576139d86138b5565b500290565b75546f7563616e2050726f746f636f6c3a2054434f322d60501b815260008351613a0e816016850160208801613108565b602d60f81b6016918401918201528351613a2f816017840160208801613108565b01601701949350505050565b80516125a6816131bb565b600060208284031215613a5857600080fd5b815161058b816131bb565b805180151581146125a657600080fd5b600060208284031215613a8557600080fd5b61058b82613a63565b6020808252600b908201526a2830bab9b2b2102a21a79960a91b604082015260600190565b634e487b7160e01b600052603260045260246000fd5b81835281816020850137506000828201602090810191909152601f909101601f19169091010190565b600081518084526020808501945080840160005b83811015613b2257815187529582019590820190600101613b06565b509495945050505050565b600060018060a01b03808c16835260c06020840152613b5060c084018b8d613ac9565b818a1660408501528381036060850152613b6b81898b613ac9565b9150508281036080840152613b81818688613ac9565b905082810360a0840152613b958185613af2565b9c9b505050505050505050505050565b600060208284031215613bb757600080fd5b5051919050565b634e487b7160e01b600052602160045260246000fd5b60008060408385031215613be757600080fd5b505080516020909101519092909150565b600082821015613c0a57613c0a6138b5565b500390565b600082601f830112613c2057600080fd5b8151613c2e6137c682613780565b818152846020838601011115613c4357600080fd5b611571826020830160208701613108565b80516001600160401b03811681146125a657600080fd5b600060208284031215613c7d57600080fd5b81516001600160401b0380821115613c9457600080fd5b908301906101808286031215613ca957600080fd5b613cb1613704565b825182811115613cc057600080fd5b613ccc87828601613c0f565b825250613cdb60208401613c54565b6020820152613cec60408401613c54565b604082015260608301516060820152613d0760808401613c54565b6080820152613d1860a08401613a63565b60a0820152613d2960c08401613a63565b60c082015260e083015182811115613d4057600080fd5b613d4c87828601613c0f565b60e0830152506101008084015183811115613d6657600080fd5b613d7288828701613c0f565b8284015250506101208084015183811115613d8c57600080fd5b613d9888828701613c0f565b8284015250506101408084015183811115613db257600080fd5b613dbe88828701613c0f565b8284015250506101608084015183811115613dd857600080fd5b613de488828701613c0f565b918301919091525095945050505050565b600060208284031215613e0757600080fd5b81516001600160401b0380821115613e1e57600080fd5b908301906101408286031215613e3357600080fd5b613e3b61372d565b825182811115613e4a57600080fd5b613e5687828601613c0f565b825250602083015182811115613e6b57600080fd5b613e7787828601613c0f565b602083015250604083015182811115613e8f57600080fd5b613e9b87828601613c0f565b604083015250606083015182811115613eb357600080fd5b613ebf87828601613c0f565b606083015250608083015182811115613ed757600080fd5b613ee387828601613c0f565b60808301525060a083015182811115613efb57600080fd5b613f0787828601613c0f565b60a08301525060c083015182811115613f1f57600080fd5b613f2b87828601613c0f565b60c08301525060e083015182811115613f4357600080fd5b613f4f87828601613c0f565b60e0830152506101008084015183811115613f6957600080fd5b613f7588828701613c0f565b8284015250506101209150613f8b828401613a3b565b91810191909152949350505050565b60008219821115613fad57613fad6138b5565b500190565b6454434f322d60d81b815260008351613fd2816005850160208801613108565b602d60f81b6005918401918201528351613ff3816006840160208801613108565b01600601949350505050565b60008060006060848603121561401457600080fd5b835192506020840151915060408401516007811061403157600080fd5b809150509250925092565b60018060a01b038416815260606020820152600083516101408060608501526140696101a0850183613af2565b9150602086015160808501526040860151605f19808685030160a08701526140918483613134565b9350606088015191506140af60c08701836001600160a01b03169052565b60808801519150808685030160e08701526140ca8483613134565b935060a088015191506101008187860301818801526140e98584613134565b945060c089015192506101208288870301818901526141088685613134565b955060e08a015193508288870301858901526141248685613134565b9550818a0151610160890152808a0151610180890152505050505082810360408401526134418185613af2565b6020808252602e908201527f496e697469616c697a61626c653a20636f6e747261637420697320616c72656160408201526d191e481a5b9a5d1a585b1a5e995960921b606082015260800190565b600181811c908216806141b357607f821691505b6020821081036141d357634e487b7160e01b600052602260045260246000fd5b5091905056fea26469706673582212204b79bbe3c3b2489e56b3cf4da44a089ffeff6dbccaec7ab0273e5029daad50ae64736f6c634300080e0033496e697469616c697a61626c653a20636f6e747261637420697320616c726561",
  "devdoc": {
    "details": "Each TCO2 contract is deployed via a Beacon Proxy in `ToucanCarbonOffsetsFactory`",
    "kind": "dev",
    "methods": {
      "allowance(address,address)": {
        "details": "See {IERC20-allowance}."
      },
      "approve(address,uint256)": {
        "details": "See {IERC20-approve}. NOTE: If `amount` is the maximum `uint256`, the allowance is not updated on `transferFrom`. This is semantically equivalent to an infinite approval. Requirements: - `spender` cannot be the zero address."
      },
      "balanceOf(address)": {
        "details": "See {IERC20-balanceOf}."
      },
      "bridgeBurn(address,uint256)": {
        "params": {
          "account": "The user for whom to burn TCO2",
          "amount": "The amount to burn."
        }
      },
      "bridgeMint(address,uint256)": {
        "params": {
          "account": "The user for whom to mint TCO2",
          "amount": "The amount to mint."
        }
      },
      "burnFrom(address,uint256)": {
        "params": {
          "account": "The user for whom to burn TCO2",
          "amount": "The amount to burn"
        }
      },
      "decimals()": {
        "details": "Returns the number of decimals used to get its user representation. For example, if `decimals` equals `2`, a balance of `505` tokens should be displayed to a user as `5.05` (`505 / 10 ** 2`). Tokens usually opt for a value of 18, imitating the relationship between Ether and Wei. This is the value {ERC20} uses, unless this function is overridden; NOTE: This information is only used for _display_ purposes: it in no way affects any of the arithmetic of the contract, including {IERC20-balanceOf} and {IERC20-transfer}."
      },
      "decreaseAllowance(address,uint256)": {
        "details": "Atomically decreases the allowance granted to `spender` by the caller. This is an alternative to {approve} that can be used as a mitigation for problems described in {IERC20-approve}. Emits an {Approval} event indicating the updated allowance. Requirements: - `spender` cannot be the zero address. - `spender` must have allowance for the caller of at least `subtractedValue`."
      },
      "defractionalize(uint256)": {
        "params": {
          "tokenId": "The batch NFT to defractionalize from the TCO2"
        }
      },
      "getAttributes()": {
        "details": "Function to get corresponding attributes from the CarbonProjects"
      },
      "getDepositCap()": {
        "details": "Returns the cap for TCO2s based on `totalVintageQuantity` Returns `~unlimited` if the value for the vintage is not set"
      },
      "getGlobalProjectVintageIdentifiers()": {
        "details": "Helper function to retrieve data fragments for `name()` and `symbol()`"
      },
      "getRemaining()": {
        "details": "Returns the remaining space in TCO2 contract before hitting the cap"
      },
      "increaseAllowance(address,uint256)": {
        "details": "Atomically increases the allowance granted to `spender` by the caller. This is an alternative to {approve} that can be used as a mitigation for problems described in {IERC20-approve}. Emits an {Approval} event indicating the updated allowance. Requirements: - `spender` cannot be the zero address."
      },
      "mintCertificateLegacy(string,address,string,string)": {
        "params": {
          "beneficiary": "The beneficiary to set in the NFT.",
          "beneficiaryString": "The beneficiaryString to set in the NFT.",
          "retirementMessage": "The retirementMessage to set in the NFT.",
          "retiringEntityString": "An identifiable string for the retiring entity, eg. their name."
        }
      },
      "onERC721Received(address,address,uint256,bytes)": {
        "details": "Function is called with `operator` as `msg.sender` in a reference implementation by OZ `from` is the previous owner, not necessarily the same as operator. The hook checks if NFT collection is whitelisted and next if attributes are matching this ERC20 contract"
      },
      "retireAndMintCertificate(string,address,string,string,uint256)": {
        "params": {
          "amount": "The amount to retire and issue an NFT certificate for.",
          "beneficiary": "The beneficiary to set in the NFT.",
          "beneficiaryString": "The beneficiaryString to set in the NFT.",
          "retirementMessage": "The retirementMessage to set in the NFT.",
          "retiringEntityString": "An identifiable string for the retiring entity, eg. their name."
        }
      },
      "retireFrom(address,uint256)": {
        "details": "Allow for pools or third party contracts to retire for the user Requires approval"
      },
      "standardRegistry()": {
        "details": "this must be overridden in the child contract"
      },
      "standardRegistryDecimals()": {
        "details": "this must be overridden in the child contract"
      },
      "totalSupply()": {
        "details": "See {IERC20-totalSupply}."
      }
    },
    "stateVariables": {
      "VERSION": {
        "details": "Version-related parameters. VERSION keeps track of production releases. VERSION_RELEASE_CANDIDATE keeps track of iterations of a VERSION in our staging environment."
      }
    },
    "version": 1
  },
  "userdoc": {
    "kind": "user",
    "methods": {
      "bridgeBurn(address,uint256)": {
        "notice": "Burn TCO2 on behalf of a user. msg.sender does not require approval by the account for the burn to be successfull. This function is exposed so it can be utilized in cross-chain transfers of TCO2 where we want to burn the TCO2 in the source chain but not retire it."
      },
      "bridgeMint(address,uint256)": {
        "notice": "Mint TCO2 on behalf of a user. This function is exposed to be called by authorized message bridge systems and utilized for cross-chain transfers of TCO2 where we want to mint the TCO2 in the source chain."
      },
      "burnFrom(address,uint256)": {
        "notice": "Burn TCO2 on behalf of a user. msg.sender needs to be approved by the account for the burn to be successfull. This function is exposed so it can be utilized to burn credits without retiring them (eg. dispose HFC-23)."
      },
      "defractionalize(uint256)": {
        "notice": "Defractionalize batch NFT by burning the amount of TCO2 from the sender and transfer the batch NFT that was selected to the sender. The only valid sender currently is the TCO2 factory owner."
      },
      "mintCertificateLegacy(string,address,string,string)": {
        "notice": "Mint an NFT showing how many tonnes of CO2 have been retired/cancelled Going forward users should mint NFT directly in the RetirementCertificates contract."
      },
      "name()": {
        "notice": "Token name getter overriden to return the a name based on the carbon project data"
      },
      "onERC721Received(address,address,uint256,bytes)": {
        "notice": "Receive hook to fractionalize Batch-NFTs into ERC20's"
      },
      "retire(uint256)": {
        "notice": "Retirement/Cancellation of TCO2 tokens (the actual offsetting), which results in the tokens being burnt"
      },
      "retireAndMintCertificate(string,address,string,string,uint256)": {
        "notice": "Retire an amount of TCO2s, register an retirement event then mint a certificate passing a single retirementEventId."
      },
      "standardRegistry()": {
        "notice": "Return the name of the registry that this factory is enabling to tokenize, eg., verra"
      },
      "standardRegistryDecimals()": {
        "notice": "Return the minimum precision supported by the registry"
      },
      "symbol()": {
        "notice": "Token symbol getter overriden to return the a symbol based on the carbon project data"
      }
    },
    "notice": "Implementation contract of the TCO2 tokens (ERC20) These tokenized carbon offsets are specific to a vintage and its associated attributes In order to mint TCO2s a user must deposit a matching CarbonOffsetBatch",
    "version": 1
  },
  "storageLayout": {
    "storage": [
      {
        "astId": 2390,
        "contract": "contracts/ToucanCarbonOffsets.sol:ToucanCarbonOffsets",
        "label": "_initialized",
        "offset": 0,
        "slot": "0",
        "type": "t_uint8"
      },
      {
        "astId": 2393,
        "contract": "contracts/ToucanCarbonOffsets.sol:ToucanCarbonOffsets",
        "label": "_initializing",
        "offset": 1,
        "slot": "0",
        "type": "t_bool"
      },
      {
        "astId": 5494,
        "contract": "contracts/ToucanCarbonOffsets.sol:ToucanCarbonOffsets",
        "label": "__gap",
        "offset": 0,
        "slot": "1",
        "type": "t_array(t_uint256)50_storage"
      },
      {
        "astId": 2850,
        "contract": "contracts/ToucanCarbonOffsets.sol:ToucanCarbonOffsets",
        "label": "_balances",
        "offset": 0,
        "slot": "51",
        "type": "t_mapping(t_address,t_uint256)"
      },
      {
        "astId": 2856,
        "contract": "contracts/ToucanCarbonOffsets.sol:ToucanCarbonOffsets",
        "label": "_allowances",
        "offset": 0,
        "slot": "52",
        "type": "t_mapping(t_address,t_mapping(t_address,t_uint256))"
      },
      {
        "astId": 2858,
        "contract": "contracts/ToucanCarbonOffsets.sol:ToucanCarbonOffsets",
        "label": "_totalSupply",
        "offset": 0,
        "slot": "53",
        "type": "t_uint256"
      },
      {
        "astId": 2860,
        "contract": "contracts/ToucanCarbonOffsets.sol:ToucanCarbonOffsets",
        "label": "_name",
        "offset": 0,
        "slot": "54",
        "type": "t_string_storage"
      },
      {
        "astId": 2862,
        "contract": "contracts/ToucanCarbonOffsets.sol:ToucanCarbonOffsets",
        "label": "_symbol",
        "offset": 0,
        "slot": "55",
        "type": "t_string_storage"
      },
      {
        "astId": 3441,
        "contract": "contracts/ToucanCarbonOffsets.sol:ToucanCarbonOffsets",
        "label": "__gap",
        "offset": 0,
        "slot": "56",
        "type": "t_array(t_uint256)45_storage"
      },
      {
        "astId": 14149,
        "contract": "contracts/ToucanCarbonOffsets.sol:ToucanCarbonOffsets",
        "label": "_projectVintageTokenId",
        "offset": 0,
        "slot": "101",
        "type": "t_uint256"
      },
      {
        "astId": 14151,
        "contract": "contracts/ToucanCarbonOffsets.sol:ToucanCarbonOffsets",
        "label": "contractRegistry",
        "offset": 0,
        "slot": "102",
        "type": "t_address"
      },
      {
        "astId": 14155,
        "contract": "contracts/ToucanCarbonOffsets.sol:ToucanCarbonOffsets",
        "label": "minterToId",
        "offset": 0,
        "slot": "103",
        "type": "t_mapping(t_address,t_uint256)"
      },
      {
        "astId": 14160,
        "contract": "contracts/ToucanCarbonOffsets.sol:ToucanCarbonOffsets",
        "label": "retiredAmount",
        "offset": 0,
        "slot": "104",
        "type": "t_mapping(t_address,t_uint256)"
      }
    ],
    "types": {
      "t_address": {
        "encoding": "inplace",
        "label": "address",
        "numberOfBytes": "20"
      },
      "t_array(t_uint256)45_storage": {
        "base": "t_uint256",
        "encoding": "inplace",
        "label": "uint256[45]",
        "numberOfBytes": "1440"
      },
      "t_array(t_uint256)50_storage": {
        "base": "t_uint256",
        "encoding": "inplace",
        "label": "uint256[50]",
        "numberOfBytes": "1600"
      },
      "t_bool": {
        "encoding": "inplace",
        "label": "bool",
        "numberOfBytes": "1"
      },
      "t_mapping(t_address,t_mapping(t_address,t_uint256))": {
        "encoding": "mapping",
        "key": "t_address",
        "label": "mapping(address => mapping(address => uint256))",
        "numberOfBytes": "32",
        "value": "t_mapping(t_address,t_uint256)"
      },
      "t_mapping(t_address,t_uint256)": {
        "encoding": "mapping",
        "key": "t_address",
        "label": "mapping(address => uint256)",
        "numberOfBytes": "32",
        "value": "t_uint256"
      },
      "t_string_storage": {
        "encoding": "bytes",
        "label": "string",
        "numberOfBytes": "32"
      },
      "t_uint256": {
        "encoding": "inplace",
        "label": "uint256",
        "numberOfBytes": "32"
      },
      "t_uint8": {
        "encoding": "inplace",
        "label": "uint8",
        "numberOfBytes": "1"
      }
    }
  }
}