{
  "address": "0x4c5f90C50Ca9F849bb75D93a393A4e1B6E68Accb",
  "abi": [
    {
      "inputs": [],
      "stateMutability": "nonpayable",
      "type": "constructor"
    },
    {
      "anonymous": false,
      "inputs": [
        {
          "indexed": false,
          "internalType": "address",
          "name": "tco2",
          "type": "address"
        }
      ],
      "name": "AddFeeExemptedTCO2",
      "type": "event"
    },
    {
      "anonymous": false,
      "inputs": [
        {
          "indexed": false,
          "internalType": "address",
          "name": "previousAdmin",
          "type": "address"
        },
        {
          "indexed": false,
          "internalType": "address",
          "name": "newAdmin",
          "type": "address"
        }
      ],
      "name": "AdminChanged",
      "type": "event"
    },
    {
      "anonymous": false,
      "inputs": [
        {
          "indexed": true,
          "internalType": "address",
          "name": "owner",
          "type": "address"
        },
        {
          "indexed": true,
          "internalType": "address",
          "name": "spender",
          "type": "address"
        },
        {
          "indexed": false,
          "internalType": "uint256",
          "name": "value",
          "type": "uint256"
        }
      ],
      "name": "Approval",
      "type": "event"
    },
    {
      "anonymous": false,
      "inputs": [
        {
          "indexed": false,
          "internalType": "string",
          "name": "methodology",
          "type": "string"
        }
      ],
      "name": "AttributeMethodologyAdded",
      "type": "event"
    },
    {
      "anonymous": false,
      "inputs": [
        {
          "indexed": false,
          "internalType": "string",
          "name": "methodology",
          "type": "string"
        }
      ],
      "name": "AttributeMethodologyRemoved",
      "type": "event"
    },
    {
      "anonymous": false,
      "inputs": [
        {
          "indexed": false,
          "internalType": "string",
          "name": "region",
          "type": "string"
        }
      ],
      "name": "AttributeRegionAdded",
      "type": "event"
    },
    {
      "anonymous": false,
      "inputs": [
        {
          "indexed": false,
          "internalType": "string",
          "name": "region",
          "type": "string"
        }
      ],
      "name": "AttributeRegionRemoved",
      "type": "event"
    },
    {
      "anonymous": false,
      "inputs": [
        {
          "indexed": false,
          "internalType": "string",
          "name": "standard",
          "type": "string"
        }
      ],
      "name": "AttributeStandardAdded",
      "type": "event"
    },
    {
      "anonymous": false,
      "inputs": [
        {
          "indexed": false,
          "internalType": "string",
          "name": "standard",
          "type": "string"
        }
      ],
      "name": "AttributeStandardRemoved",
      "type": "event"
    },
    {
      "anonymous": false,
      "inputs": [
        {
          "indexed": true,
          "internalType": "address",
          "name": "beacon",
          "type": "address"
        }
      ],
      "name": "BeaconUpgraded",
      "type": "event"
    },
    {
      "anonymous": false,
      "inputs": [
        {
          "indexed": false,
          "internalType": "address",
          "name": "erc20Addr",
          "type": "address"
        },
        {
          "indexed": false,
          "internalType": "uint256",
          "name": "amount",
          "type": "uint256"
        }
      ],
      "name": "Deposited",
      "type": "event"
    },
    {
      "anonymous": false,
      "inputs": [
        {
          "indexed": false,
          "internalType": "address",
          "name": "erc20addr",
          "type": "address"
        }
      ],
      "name": "ExternalAddressRemovedFromWhitelist",
      "type": "event"
    },
    {
      "anonymous": false,
      "inputs": [
        {
          "indexed": false,
          "internalType": "address",
          "name": "erc20addr",
          "type": "address"
        }
      ],
      "name": "ExternalAddressWhitelisted",
      "type": "event"
    },
    {
      "anonymous": false,
      "inputs": [
        {
          "indexed": false,
          "internalType": "uint8",
          "name": "version",
          "type": "uint8"
        }
      ],
      "name": "Initialized",
      "type": "event"
    },
    {
      "anonymous": false,
      "inputs": [
        {
          "indexed": false,
          "internalType": "address",
          "name": "erc20addr",
          "type": "address"
        }
      ],
      "name": "InternalAddressBlacklisted",
      "type": "event"
    },
    {
      "anonymous": false,
      "inputs": [
        {
          "indexed": false,
          "internalType": "address",
          "name": "erc20addr",
          "type": "address"
        }
      ],
      "name": "InternalAddressRemovedFromBlackList",
      "type": "event"
    },
    {
      "anonymous": false,
      "inputs": [
        {
          "indexed": false,
          "internalType": "address",
          "name": "erc20addr",
          "type": "address"
        }
      ],
      "name": "InternalAddressRemovedFromWhitelist",
      "type": "event"
    },
    {
      "anonymous": false,
      "inputs": [
        {
          "indexed": false,
          "internalType": "address",
          "name": "erc20addr",
          "type": "address"
        }
      ],
      "name": "InternalAddressWhitelisted",
      "type": "event"
    },
    {
      "anonymous": false,
      "inputs": [
        {
          "indexed": false,
          "internalType": "string",
          "name": "mappingName",
          "type": "string"
        },
        {
          "indexed": false,
          "internalType": "bool",
          "name": "accepted",
          "type": "bool"
        }
      ],
      "name": "MappingSwitched",
      "type": "event"
    },
    {
      "anonymous": false,
      "inputs": [
        {
          "indexed": false,
          "internalType": "uint256",
          "name": "minimumVintageStartTime",
          "type": "uint256"
        }
      ],
      "name": "MinimumVintageStartTimeUpdated",
      "type": "event"
    },
    {
      "anonymous": false,
      "inputs": [
        {
          "indexed": true,
          "internalType": "address",
          "name": "previousOwner",
          "type": "address"
        },
        {
          "indexed": true,
          "internalType": "address",
          "name": "newOwner",
          "type": "address"
        }
      ],
      "name": "OwnershipTransferred",
      "type": "event"
    },
    {
      "anonymous": false,
      "inputs": [
        {
          "indexed": false,
          "internalType": "address",
          "name": "account",
          "type": "address"
        }
      ],
      "name": "Paused",
      "type": "event"
    },
    {
      "anonymous": false,
      "inputs": [
        {
          "indexed": false,
          "internalType": "address",
          "name": "redeemer",
          "type": "address"
        },
        {
          "indexed": false,
          "internalType": "uint256",
          "name": "fees",
          "type": "uint256"
        }
      ],
      "name": "RedeemFeeBurnt",
      "type": "event"
    },
    {
      "anonymous": false,
      "inputs": [
        {
          "indexed": false,
          "internalType": "address",
          "name": "redeemer",
          "type": "address"
        },
        {
          "indexed": false,
          "internalType": "uint256",
          "name": "fees",
          "type": "uint256"
        }
      ],
      "name": "RedeemFeePaid",
      "type": "event"
    },
    {
      "anonymous": false,
      "inputs": [
        {
          "indexed": false,
          "internalType": "address",
          "name": "account",
          "type": "address"
        },
        {
          "indexed": false,
          "internalType": "address",
          "name": "erc20",
          "type": "address"
        },
        {
          "indexed": false,
          "internalType": "uint256",
          "name": "amount",
          "type": "uint256"
        }
      ],
      "name": "Redeemed",
      "type": "event"
    },
    {
      "anonymous": false,
      "inputs": [
        {
          "indexed": false,
          "internalType": "address",
          "name": "tco2",
          "type": "address"
        }
      ],
      "name": "RemoveFeeExemptedTCO2",
      "type": "event"
    },
    {
      "anonymous": false,
      "inputs": [
        {
          "indexed": true,
          "internalType": "bytes32",
          "name": "role",
          "type": "bytes32"
        },
        {
          "indexed": true,
          "internalType": "bytes32",
          "name": "previousAdminRole",
          "type": "bytes32"
        },
        {
          "indexed": true,
          "internalType": "bytes32",
          "name": "newAdminRole",
          "type": "bytes32"
        }
      ],
      "name": "RoleAdminChanged",
      "type": "event"
    },
    {
      "anonymous": false,
      "inputs": [
        {
          "indexed": true,
          "internalType": "bytes32",
          "name": "role",
          "type": "bytes32"
        },
        {
          "indexed": true,
          "internalType": "address",
          "name": "account",
          "type": "address"
        },
        {
          "indexed": true,
          "internalType": "address",
          "name": "sender",
          "type": "address"
        }
      ],
      "name": "RoleGranted",
      "type": "event"
    },
    {
      "anonymous": false,
      "inputs": [
        {
          "indexed": true,
          "internalType": "bytes32",
          "name": "role",
          "type": "bytes32"
        },
        {
          "indexed": true,
          "internalType": "address",
          "name": "account",
          "type": "address"
        },
        {
          "indexed": true,
          "internalType": "address",
          "name": "sender",
          "type": "address"
        }
      ],
      "name": "RoleRevoked",
      "type": "event"
    },
    {
      "anonymous": false,
      "inputs": [
        {
          "indexed": false,
          "internalType": "address",
          "name": "router",
          "type": "address"
        }
      ],
      "name": "RouterUpdated",
      "type": "event"
    },
    {
      "anonymous": false,
      "inputs": [
        {
          "indexed": false,
          "internalType": "uint256",
          "name": "newCap",
          "type": "uint256"
        }
      ],
      "name": "SupplyCapUpdated",
      "type": "event"
    },
    {
      "anonymous": false,
      "inputs": [
        {
          "indexed": false,
          "internalType": "address[]",
          "name": "tco2s",
          "type": "address[]"
        }
      ],
      "name": "TCO2ScoringUpdated",
      "type": "event"
    },
    {
      "anonymous": false,
      "inputs": [
        {
          "indexed": false,
          "internalType": "address",
          "name": "ContractRegistry",
          "type": "address"
        }
      ],
      "name": "ToucanRegistrySet",
      "type": "event"
    },
    {
      "anonymous": false,
      "inputs": [
        {
          "indexed": true,
          "internalType": "address",
          "name": "from",
          "type": "address"
        },
        {
          "indexed": true,
          "internalType": "address",
          "name": "to",
          "type": "address"
        },
        {
          "indexed": false,
          "internalType": "uint256",
          "name": "value",
          "type": "uint256"
        }
      ],
      "name": "Transfer",
      "type": "event"
    },
    {
      "anonymous": false,
      "inputs": [
        {
          "indexed": false,
          "internalType": "address",
          "name": "account",
          "type": "address"
        }
      ],
      "name": "Unpaused",
      "type": "event"
    },
    {
      "anonymous": false,
      "inputs": [
        {
          "indexed": true,
          "internalType": "address",
          "name": "implementation",
          "type": "address"
        }
      ],
      "name": "Upgraded",
      "type": "event"
    },
    {
      "inputs": [],
      "name": "DEFAULT_ADMIN_ROLE",
      "outputs": [
        {
          "internalType": "bytes32",
          "name": "",
          "type": "bytes32"
        }
      ],
      "stateMutability": "view",
      "type": "function"
    },
    {
      "inputs": [],
      "name": "MANAGER_ROLE",
      "outputs": [
        {
          "internalType": "bytes32",
          "name": "",
          "type": "bytes32"
        }
      ],
      "stateMutability": "view",
      "type": "function"
    },
    {
      "inputs": [],
      "name": "PAUSER_ROLE",
      "outputs": [
        {
          "internalType": "bytes32",
          "name": "",
          "type": "bytes32"
        }
      ],
      "stateMutability": "view",
      "type": "function"
    },
    {
      "inputs": [],
      "name": "VERSION",
      "outputs": [
        {
          "internalType": "string",
          "name": "",
          "type": "string"
        }
      ],
      "stateMutability": "view",
      "type": "function"
    },
    {
      "inputs": [
        {
          "internalType": "bool",
          "name": "addToList",
          "type": "bool"
        },
        {
          "internalType": "string[]",
          "name": "_regions",
          "type": "string[]"
        },
        {
          "internalType": "string[]",
          "name": "_standards",
          "type": "string[]"
        },
        {
          "internalType": "string[]",
          "name": "_methodologies",
          "type": "string[]"
        }
      ],
      "name": "addAttributes",
      "outputs": [],
      "stateMutability": "nonpayable",
      "type": "function"
    },
    {
      "inputs": [
        {
          "internalType": "address",
          "name": "_address",
          "type": "address"
        }
      ],
      "name": "addRedeemFeeExemptedAddress",
      "outputs": [],
      "stateMutability": "nonpayable",
      "type": "function"
    },
    {
      "inputs": [
        {
          "internalType": "address",
          "name": "_tco2",
          "type": "address"
        }
      ],
      "name": "addRedeemFeeExemptedTCO2",
      "outputs": [],
      "stateMutability": "nonpayable",
      "type": "function"
    },
    {
      "inputs": [
        {
          "internalType": "address[]",
          "name": "erc20Addr",
          "type": "address[]"
        }
      ],
      "name": "addToExternalWhiteList",
      "outputs": [],
      "stateMutability": "nonpayable",
      "type": "function"
    },
    {
      "inputs": [
        {
          "internalType": "address[]",
          "name": "erc20Addr",
          "type": "address[]"
        }
      ],
      "name": "addToInternalBlackList",
      "outputs": [],
      "stateMutability": "nonpayable",
      "type": "function"
    },
    {
      "inputs": [
        {
          "internalType": "address[]",
          "name": "erc20Addr",
          "type": "address[]"
        }
      ],
      "name": "addToInternalWhiteList",
      "outputs": [],
      "stateMutability": "nonpayable",
      "type": "function"
    },
    {
      "inputs": [
        {
          "internalType": "address",
          "name": "owner",
          "type": "address"
        },
        {
          "internalType": "address",
          "name": "spender",
          "type": "address"
        }
      ],
      "name": "allowance",
      "outputs": [
        {
          "internalType": "uint256",
          "name": "",
          "type": "uint256"
        }
      ],
      "stateMutability": "view",
      "type": "function"
    },
    {
      "inputs": [
        {
          "internalType": "address",
          "name": "spender",
          "type": "address"
        },
        {
          "internalType": "uint256",
          "name": "amount",
          "type": "uint256"
        }
      ],
      "name": "approve",
      "outputs": [
        {
          "internalType": "bool",
          "name": "",
          "type": "bool"
        }
      ],
      "stateMutability": "nonpayable",
      "type": "function"
    },
    {
      "inputs": [
        {
          "internalType": "address",
          "name": "account",
          "type": "address"
        }
      ],
      "name": "balanceOf",
      "outputs": [
        {
          "internalType": "uint256",
          "name": "",
          "type": "uint256"
        }
      ],
      "stateMutability": "view",
      "type": "function"
    },
    {
      "inputs": [
        {
          "internalType": "address",
          "name": "_account",
          "type": "address"
        },
        {
          "internalType": "uint256",
          "name": "_amount",
          "type": "uint256"
        }
      ],
      "name": "bridgeBurn",
      "outputs": [],
      "stateMutability": "nonpayable",
      "type": "function"
    },
    {
      "inputs": [
        {
          "internalType": "address",
          "name": "_account",
          "type": "address"
        },
        {
          "internalType": "uint256",
          "name": "_amount",
          "type": "uint256"
        }
      ],
      "name": "bridgeMint",
      "outputs": [],
      "stateMutability": "nonpayable",
      "type": "function"
    },
    {
      "inputs": [
        {
          "internalType": "address[]",
          "name": "tco2s",
          "type": "address[]"
        },
        {
          "internalType": "uint256[]",
          "name": "amounts",
          "type": "uint256[]"
        }
      ],
      "name": "calculateRedeemFees",
      "outputs": [
        {
          "internalType": "uint256",
          "name": "",
          "type": "uint256"
        }
      ],
      "stateMutability": "view",
      "type": "function"
    },
    {
      "inputs": [
        {
          "internalType": "address",
          "name": "erc20Addr",
          "type": "address"
        }
      ],
      "name": "checkAttributeMatching",
      "outputs": [
        {
          "internalType": "bool",
          "name": "",
          "type": "bool"
        }
      ],
      "stateMutability": "view",
      "type": "function"
    },
    {
      "inputs": [
        {
          "internalType": "address",
          "name": "erc20Addr",
          "type": "address"
        }
      ],
      "name": "checkEligible",
      "outputs": [
        {
          "internalType": "bool",
          "name": "",
          "type": "bool"
        }
      ],
      "stateMutability": "view",
      "type": "function"
    },
    {
      "inputs": [],
      "name": "contractRegistry",
      "outputs": [
        {
          "internalType": "address",
          "name": "",
          "type": "address"
        }
      ],
      "stateMutability": "view",
      "type": "function"
    },
    {
      "inputs": [],
      "name": "decimals",
      "outputs": [
        {
          "internalType": "uint8",
          "name": "",
          "type": "uint8"
        }
      ],
      "stateMutability": "view",
      "type": "function"
    },
    {
      "inputs": [
        {
          "internalType": "address",
          "name": "spender",
          "type": "address"
        },
        {
          "internalType": "uint256",
          "name": "subtractedValue",
          "type": "uint256"
        }
      ],
      "name": "decreaseAllowance",
      "outputs": [
        {
          "internalType": "bool",
          "name": "",
          "type": "bool"
        }
      ],
      "stateMutability": "nonpayable",
      "type": "function"
    },
    {
      "inputs": [
        {
          "internalType": "address",
          "name": "erc20Addr",
          "type": "address"
        },
        {
          "internalType": "uint256",
          "name": "amount",
          "type": "uint256"
        }
      ],
      "name": "deposit",
      "outputs": [],
      "stateMutability": "nonpayable",
      "type": "function"
    },
    {
      "inputs": [
        {
          "internalType": "address",
          "name": "",
          "type": "address"
        }
      ],
      "name": "externalWhiteList",
      "outputs": [
        {
          "internalType": "bool",
          "name": "",
          "type": "bool"
        }
      ],
      "stateMutability": "view",
      "type": "function"
    },
    {
      "inputs": [],
      "name": "feeRedeemBurnAddress",
      "outputs": [
        {
          "internalType": "address",
          "name": "",
          "type": "address"
        }
      ],
      "stateMutability": "view",
      "type": "function"
    },
    {
      "inputs": [],
      "name": "feeRedeemBurnPercentageInBase",
      "outputs": [
        {
          "internalType": "uint256",
          "name": "",
          "type": "uint256"
        }
      ],
      "stateMutability": "view",
      "type": "function"
    },
    {
      "inputs": [],
      "name": "feeRedeemDivider",
      "outputs": [
        {
          "internalType": "uint256",
          "name": "",
          "type": "uint256"
        }
      ],
      "stateMutability": "view",
      "type": "function"
    },
    {
      "inputs": [],
      "name": "feeRedeemPercentageInBase",
      "outputs": [
        {
          "internalType": "uint256",
          "name": "",
          "type": "uint256"
        }
      ],
      "stateMutability": "view",
      "type": "function"
    },
    {
      "inputs": [],
      "name": "feeRedeemReceiver",
      "outputs": [
        {
          "internalType": "address",
          "name": "",
          "type": "address"
        }
      ],
      "stateMutability": "view",
      "type": "function"
    },
    {
      "inputs": [],
      "name": "getRemaining",
      "outputs": [
        {
          "internalType": "uint256",
          "name": "",
          "type": "uint256"
        }
      ],
      "stateMutability": "view",
      "type": "function"
    },
    {
      "inputs": [
        {
          "internalType": "bytes32",
          "name": "role",
          "type": "bytes32"
        }
      ],
      "name": "getRoleAdmin",
      "outputs": [
        {
          "internalType": "bytes32",
          "name": "",
          "type": "bytes32"
        }
      ],
      "stateMutability": "view",
      "type": "function"
    },
    {
      "inputs": [],
      "name": "getScoredTCO2s",
      "outputs": [
        {
          "internalType": "address[]",
          "name": "",
          "type": "address[]"
        }
      ],
      "stateMutability": "view",
      "type": "function"
    },
    {
      "inputs": [
        {
          "internalType": "bytes32",
          "name": "role",
          "type": "bytes32"
        },
        {
          "internalType": "address",
          "name": "account",
          "type": "address"
        }
      ],
      "name": "grantRole",
      "outputs": [],
      "stateMutability": "nonpayable",
      "type": "function"
    },
    {
      "inputs": [
        {
          "internalType": "bytes32",
          "name": "role",
          "type": "bytes32"
        },
        {
          "internalType": "address",
          "name": "account",
          "type": "address"
        }
      ],
      "name": "hasRole",
      "outputs": [
        {
          "internalType": "bool",
          "name": "",
          "type": "bool"
        }
      ],
      "stateMutability": "view",
      "type": "function"
    },
    {
      "inputs": [
        {
          "internalType": "address",
          "name": "spender",
          "type": "address"
        },
        {
          "internalType": "uint256",
          "name": "addedValue",
          "type": "uint256"
        }
      ],
      "name": "increaseAllowance",
      "outputs": [
        {
          "internalType": "bool",
          "name": "",
          "type": "bool"
        }
      ],
      "stateMutability": "nonpayable",
      "type": "function"
    },
    {
      "inputs": [],
      "name": "initialize",
      "outputs": [],
      "stateMutability": "nonpayable",
      "type": "function"
    },
    {
      "inputs": [
        {
          "internalType": "address",
          "name": "",
          "type": "address"
        }
      ],
      "name": "internalBlackList",
      "outputs": [
        {
          "internalType": "bool",
          "name": "",
          "type": "bool"
        }
      ],
      "stateMutability": "view",
      "type": "function"
    },
    {
      "inputs": [
        {
          "internalType": "address",
          "name": "",
          "type": "address"
        }
      ],
      "name": "internalWhiteList",
      "outputs": [
        {
          "internalType": "bool",
          "name": "",
          "type": "bool"
        }
      ],
      "stateMutability": "view",
      "type": "function"
    },
    {
      "inputs": [
        {
          "internalType": "string",
          "name": "",
          "type": "string"
        }
      ],
      "name": "methodologies",
      "outputs": [
        {
          "internalType": "bool",
          "name": "",
          "type": "bool"
        }
      ],
      "stateMutability": "view",
      "type": "function"
    },
    {
      "inputs": [],
      "name": "methodologiesIsAcceptedMapping",
      "outputs": [
        {
          "internalType": "bool",
          "name": "",
          "type": "bool"
        }
      ],
      "stateMutability": "view",
      "type": "function"
    },
    {
      "inputs": [],
      "name": "minimumVintageStartTime",
      "outputs": [
        {
          "internalType": "uint64",
          "name": "",
          "type": "uint64"
        }
      ],
      "stateMutability": "view",
      "type": "function"
    },
    {
      "inputs": [],
      "name": "name",
      "outputs": [
        {
          "internalType": "string",
          "name": "",
          "type": "string"
        }
      ],
      "stateMutability": "view",
      "type": "function"
    },
    {
      "inputs": [],
      "name": "owner",
      "outputs": [
        {
          "internalType": "address",
          "name": "",
          "type": "address"
        }
      ],
      "stateMutability": "view",
      "type": "function"
    },
    {
      "inputs": [],
      "name": "pause",
      "outputs": [],
      "stateMutability": "nonpayable",
      "type": "function"
    },
    {
      "inputs": [],
      "name": "paused",
      "outputs": [
        {
          "internalType": "bool",
          "name": "",
          "type": "bool"
        }
      ],
      "stateMutability": "view",
      "type": "function"
    },
    {
      "inputs": [],
      "name": "proxiableUUID",
      "outputs": [
        {
          "internalType": "bytes32",
          "name": "",
          "type": "bytes32"
        }
      ],
      "stateMutability": "view",
      "type": "function"
    },
    {
      "inputs": [
        {
          "internalType": "address",
          "name": "tco2",
          "type": "address"
        },
        {
          "internalType": "uint256",
          "name": "amount",
          "type": "uint256"
        }
      ],
      "name": "redeemAndBurn",
      "outputs": [],
      "stateMutability": "nonpayable",
      "type": "function"
    },
    {
      "inputs": [
        {
          "internalType": "uint256",
          "name": "amount",
          "type": "uint256"
        }
      ],
      "name": "redeemAuto",
      "outputs": [],
      "stateMutability": "nonpayable",
      "type": "function"
    },
    {
      "inputs": [
        {
          "internalType": "uint256",
          "name": "amount",
          "type": "uint256"
        }
      ],
      "name": "redeemAuto2",
      "outputs": [
        {
          "internalType": "address[]",
          "name": "tco2s",
          "type": "address[]"
        },
        {
          "internalType": "uint256[]",
          "name": "amounts",
          "type": "uint256[]"
        }
      ],
      "stateMutability": "nonpayable",
      "type": "function"
    },
    {
      "inputs": [
        {
          "internalType": "address",
          "name": "",
          "type": "address"
        }
      ],
      "name": "redeemFeeExemptedAddresses",
      "outputs": [
        {
          "internalType": "bool",
          "name": "",
          "type": "bool"
        }
      ],
      "stateMutability": "view",
      "type": "function"
    },
    {
      "inputs": [
        {
          "internalType": "address",
          "name": "",
          "type": "address"
        }
      ],
      "name": "redeemFeeExemptedTCO2s",
      "outputs": [
        {
          "internalType": "bool",
          "name": "",
          "type": "bool"
        }
      ],
      "stateMutability": "view",
      "type": "function"
    },
    {
      "inputs": [
        {
          "internalType": "address[]",
          "name": "tco2s",
          "type": "address[]"
        },
        {
          "internalType": "uint256[]",
          "name": "amounts",
          "type": "uint256[]"
        }
      ],
      "name": "redeemMany",
      "outputs": [],
      "stateMutability": "nonpayable",
      "type": "function"
    },
    {
      "inputs": [
        {
          "internalType": "string",
          "name": "",
          "type": "string"
        }
      ],
      "name": "regions",
      "outputs": [
        {
          "internalType": "bool",
          "name": "",
          "type": "bool"
        }
      ],
      "stateMutability": "view",
      "type": "function"
    },
    {
      "inputs": [],
      "name": "regionsIsAcceptedMapping",
      "outputs": [
        {
          "internalType": "bool",
          "name": "",
          "type": "bool"
        }
      ],
      "stateMutability": "view",
      "type": "function"
    },
    {
      "inputs": [
        {
          "internalType": "address[]",
          "name": "erc20Addr",
          "type": "address[]"
        }
      ],
      "name": "removeFromExternalWhiteList",
      "outputs": [],
      "stateMutability": "nonpayable",
      "type": "function"
    },
    {
      "inputs": [
        {
          "internalType": "address[]",
          "name": "erc20Addr",
          "type": "address[]"
        }
      ],
      "name": "removeFromInternalBlackList",
      "outputs": [],
      "stateMutability": "nonpayable",
      "type": "function"
    },
    {
      "inputs": [
        {
          "internalType": "address[]",
          "name": "erc20Addr",
          "type": "address[]"
        }
      ],
      "name": "removeFromInternalWhiteList",
      "outputs": [],
      "stateMutability": "nonpayable",
      "type": "function"
    },
    {
      "inputs": [
        {
          "internalType": "address",
          "name": "_address",
          "type": "address"
        }
      ],
      "name": "removeRedeemFeeExemptedAddress",
      "outputs": [],
      "stateMutability": "nonpayable",
      "type": "function"
    },
    {
      "inputs": [
        {
          "internalType": "address",
          "name": "_tco2",
          "type": "address"
        }
      ],
      "name": "removeRedeemFeeExemptedTCO2",
      "outputs": [],
      "stateMutability": "nonpayable",
      "type": "function"
    },
    {
      "inputs": [],
      "name": "renounceOwnership",
      "outputs": [],
      "stateMutability": "nonpayable",
      "type": "function"
    },
    {
      "inputs": [
        {
          "internalType": "bytes32",
          "name": "role",
          "type": "bytes32"
        },
        {
          "internalType": "address",
          "name": "account",
          "type": "address"
        }
      ],
      "name": "renounceRole",
      "outputs": [],
      "stateMutability": "nonpayable",
      "type": "function"
    },
    {
      "inputs": [
        {
          "internalType": "bytes32",
          "name": "role",
          "type": "bytes32"
        },
        {
          "internalType": "address",
          "name": "account",
          "type": "address"
        }
      ],
      "name": "revokeRole",
      "outputs": [],
      "stateMutability": "nonpayable",
      "type": "function"
    },
    {
      "inputs": [],
      "name": "router",
      "outputs": [
        {
          "internalType": "address",
          "name": "",
          "type": "address"
        }
      ],
      "stateMutability": "view",
      "type": "function"
    },
    {
      "inputs": [
        {
          "internalType": "uint256",
          "name": "",
          "type": "uint256"
        }
      ],
      "name": "scoredTCO2s",
      "outputs": [
        {
          "internalType": "address",
          "name": "",
          "type": "address"
        }
      ],
      "stateMutability": "view",
      "type": "function"
    },
    {
      "inputs": [
        {
          "internalType": "address",
          "name": "_feeRedeemBurnAddress",
          "type": "address"
        }
      ],
      "name": "setFeeRedeemBurnAddress",
      "outputs": [],
      "stateMutability": "nonpayable",
      "type": "function"
    },
    {
      "inputs": [
        {
          "internalType": "uint256",
          "name": "_feeRedeemBurnPercentageInBase",
          "type": "uint256"
        }
      ],
      "name": "setFeeRedeemBurnPercentage",
      "outputs": [],
      "stateMutability": "nonpayable",
      "type": "function"
    },
    {
      "inputs": [
        {
          "internalType": "uint256",
          "name": "_feeRedeemPercentageInBase",
          "type": "uint256"
        }
      ],
      "name": "setFeeRedeemPercentage",
      "outputs": [],
      "stateMutability": "nonpayable",
      "type": "function"
    },
    {
      "inputs": [
        {
          "internalType": "address",
          "name": "_feeRedeemReceiver",
          "type": "address"
        }
      ],
      "name": "setFeeRedeemReceiver",
      "outputs": [],
      "stateMutability": "nonpayable",
      "type": "function"
    },
    {
      "inputs": [
        {
          "internalType": "uint64",
          "name": "_minimumVintageStartTime",
          "type": "uint64"
        }
      ],
      "name": "setMinimumVintageStartTime",
      "outputs": [],
      "stateMutability": "nonpayable",
      "type": "function"
    },
    {
      "inputs": [
        {
          "internalType": "address",
          "name": "_router",
          "type": "address"
        }
      ],
      "name": "setRouter",
      "outputs": [],
      "stateMutability": "nonpayable",
      "type": "function"
    },
    {
      "inputs": [
        {
          "internalType": "uint256",
          "name": "newCap",
          "type": "uint256"
        }
      ],
      "name": "setSupplyCap",
      "outputs": [],
      "stateMutability": "nonpayable",
      "type": "function"
    },
    {
      "inputs": [
        {
          "internalType": "address[]",
          "name": "tco2s",
          "type": "address[]"
        }
      ],
      "name": "setTCO2Scoring",
      "outputs": [],
      "stateMutability": "nonpayable",
      "type": "function"
    },
    {
      "inputs": [
        {
          "internalType": "address",
          "name": "_address",
          "type": "address"
        }
      ],
      "name": "setToucanContractRegistry",
      "outputs": [],
      "stateMutability": "nonpayable",
      "type": "function"
    },
    {
      "inputs": [
        {
          "internalType": "string",
          "name": "",
          "type": "string"
        }
      ],
      "name": "standards",
      "outputs": [
        {
          "internalType": "bool",
          "name": "",
          "type": "bool"
        }
      ],
      "stateMutability": "view",
      "type": "function"
    },
    {
      "inputs": [],
      "name": "standardsIsAcceptedMapping",
      "outputs": [
        {
          "internalType": "bool",
          "name": "",
          "type": "bool"
        }
      ],
      "stateMutability": "view",
      "type": "function"
    },
    {
      "inputs": [],
      "name": "supplyCap",
      "outputs": [
        {
          "internalType": "uint256",
          "name": "",
          "type": "uint256"
        }
      ],
      "stateMutability": "view",
      "type": "function"
    },
    {
      "inputs": [
        {
          "internalType": "bytes4",
          "name": "interfaceId",
          "type": "bytes4"
        }
      ],
      "name": "supportsInterface",
      "outputs": [
        {
          "internalType": "bool",
          "name": "",
          "type": "bool"
        }
      ],
      "stateMutability": "view",
      "type": "function"
    },
    {
      "inputs": [
        {
          "internalType": "string",
          "name": "_mappingName",
          "type": "string"
        },
        {
          "internalType": "bool",
          "name": "accepted",
          "type": "bool"
        }
      ],
      "name": "switchMapping",
      "outputs": [],
      "stateMutability": "nonpayable",
      "type": "function"
    },
    {
      "inputs": [],
      "name": "symbol",
      "outputs": [
        {
          "internalType": "string",
          "name": "",
          "type": "string"
        }
      ],
      "stateMutability": "view",
      "type": "function"
    },
    {
      "inputs": [
        {
          "internalType": "address",
          "name": "",
          "type": "address"
        }
      ],
      "name": "tokenBalances",
      "outputs": [
        {
          "internalType": "uint256",
          "name": "",
          "type": "uint256"
        }
      ],
      "stateMutability": "view",
      "type": "function"
    },
    {
      "inputs": [],
      "name": "totalSupply",
      "outputs": [
        {
          "internalType": "uint256",
          "name": "",
          "type": "uint256"
        }
      ],
      "stateMutability": "view",
      "type": "function"
    },
    {
      "inputs": [
        {
          "internalType": "address",
          "name": "recipient",
          "type": "address"
        },
        {
          "internalType": "uint256",
          "name": "amount",
          "type": "uint256"
        }
      ],
      "name": "transfer",
      "outputs": [
        {
          "internalType": "bool",
          "name": "",
          "type": "bool"
        }
      ],
      "stateMutability": "nonpayable",
      "type": "function"
    },
    {
      "inputs": [
        {
          "internalType": "address",
          "name": "sender",
          "type": "address"
        },
        {
          "internalType": "address",
          "name": "recipient",
          "type": "address"
        },
        {
          "internalType": "uint256",
          "name": "amount",
          "type": "uint256"
        }
      ],
      "name": "transferFrom",
      "outputs": [
        {
          "internalType": "bool",
          "name": "",
          "type": "bool"
        }
      ],
      "stateMutability": "nonpayable",
      "type": "function"
    },
    {
      "inputs": [
        {
          "internalType": "address",
          "name": "newOwner",
          "type": "address"
        }
      ],
      "name": "transferOwnership",
      "outputs": [],
      "stateMutability": "nonpayable",
      "type": "function"
    },
    {
      "inputs": [],
      "name": "unpause",
      "outputs": [],
      "stateMutability": "nonpayable",
      "type": "function"
    },
    {
      "inputs": [
        {
          "internalType": "address",
          "name": "newImplementation",
          "type": "address"
        }
      ],
      "name": "upgradeTo",
      "outputs": [],
      "stateMutability": "nonpayable",
      "type": "function"
    },
    {
      "inputs": [
        {
          "internalType": "address",
          "name": "newImplementation",
          "type": "address"
        },
        {
          "internalType": "bytes",
          "name": "data",
          "type": "bytes"
        }
      ],
      "name": "upgradeToAndCall",
      "outputs": [],
      "stateMutability": "payable",
      "type": "function"
    }
  ],
  "numDeployments": 2,
  "solcInputHash": "b3f481fb63005726809d6f490f378adb",
  "bytecode": "0x60a0604052306080523480156200001557600080fd5b506200002062000026565b62000156565b6200003260ff62000035565b50565b60008054610100900460ff1615620000ce578160ff1660011480156200006e57506200006c306200014760201b62003a931760201c565b155b620000c65760405162461bcd60e51b815260206004820152602e60248201526000805160206200603283398151915260448201526d191e481a5b9a5d1a585b1a5e995960921b60648201526084015b60405180910390fd5b506000919050565b60005460ff8084169116106200012d5760405162461bcd60e51b815260206004820152602e60248201526000805160206200603283398151915260448201526d191e481a5b9a5d1a585b1a5e995960921b6064820152608401620000bd565b506000805460ff191660ff92909216919091179055600190565b6001600160a01b03163b151590565b608051615ea46200018e600039600081816116370152818161167701528181611fb401528181611ff401526120830152615ea46000f3fe6080604052600436106104b55760003560e01c806388c9cf6e1161026b578063c36a25731161014f578063e882e37b116100c1578063f141b84f11610085578063f141b84f14610f48578063f2fde38b14610f6a578063f3edb9ec14610f8a578063f75991cd14610fc6578063f887ea4014611002578063ffa1ad741461102357600080fd5b8063e882e37b14610e72578063e9d131ad14610e92578063ec87621c14610eb2578063f06f510314610ee6578063f138ac1614610f1757600080fd5b8063dc5f560e11610113578063dc5f560e14610db1578063dd62ed3e14610dd1578063dff0f52314610df1578063e07f744c14610e08578063e0d7cad914610e28578063e63ab1e914610e3e57600080fd5b8063c36a257314610d26578063d4e457ec14610d41578063d547741f14610d5c578063d6a022b814610d7c578063d80e05aa14610d9157600080fd5b8063a217fddf116101e8578063abf410e5116101ac578063abf410e514610c63578063b516f8cf14610c84578063b6a3f59a14610ca4578063bbe669eb14610cc4578063bf2f870f14610ce4578063c0d7865514610d0657600080fd5b8063a217fddf14610bd7578063a457c2d714610bec578063a7381a6414610c0c578063a9059cbb14610c23578063a9a484c514610c4357600080fd5b80638f770ad01161022f5780638f770ad014610b2b57806391d1485414610b4257806395d89b4114610b62578063963ff55e14610b77578063a1631e4b14610b9757600080fd5b806388c9cf6e14610a8d57806389022e2e14610aad5780638c2a993e14610acd5780638da5cb5b14610aed5780638dcb01ec14610b0b57600080fd5b806341dbbb2a1161039d5780636dbb31021161030f57806379255ddd116102d357806379255ddd146109c75780637966529d146109e75780638129fc1c14610a0757806381e48e9014610a1c5780638456cb5914610a3c5780638662522f14610a5157600080fd5b80636dbb31021461090b5780636fd2f1811461092b57806370a082311461095c578063715018a61461099257806374f4f547146109a757600080fd5b80634f1ef286116103615780634f1ef2861461085d578063523fba7f1461087057806352d1902d1461089e57806354c9c970146108b35780635c975abb146108d35780635db44cef146108eb57600080fd5b806341dbbb2a146107af5780634642547b146107cf57806346518b0a146107ef57806347e7ef241461080f5780634c02cad11461082f57600080fd5b806324adbf4d1161043657806336568abe116103fa57806336568abe146106f95780633659cfe614610719578063395093511461073957806339cd7a8a146107595780633a9a77ee146107795780633f4ba83a1461079a57600080fd5b806324adbf4d146106335780632b540f191461066c5780632b5541421461069d5780632f2ff15d146106bd578063313ce567146106dd57600080fd5b80630e2d15ab1161047d5780630e2d15ab1461057357806318160ddd146105a457806320b167f9146105c357806323b872dd146105e3578063248a9ca31461060357600080fd5b806301ffc9a7146104ba57806306fdde03146104ef578063095ea7b3146105115780630b7d28c7146105315780630c0efecc14610553575b600080fd5b3480156104c657600080fd5b506104da6104d5366004614f1b565b611054565b60405190151581526020015b60405180910390f35b3480156104fb57600080fd5b5061050461108b565b6040516104e69190614f9d565b34801561051d57600080fd5b506104da61052c366004614fc5565b61111d565b34801561053d57600080fd5b5061055161054c366004614ff1565b611135565b005b34801561055f57600080fd5b5061055161056e366004615023565b61118d565b34801561057f57600080fd5b506104da61058e366004614ff1565b6101a06020526000908152604090205460ff1681565b3480156105b057600080fd5b506035545b6040519081526020016104e6565b3480156105cf57600080fd5b506105516105de366004615040565b61121a565b3480156105ef57600080fd5b506104da6105fe366004615059565b611325565b34801561060f57600080fd5b506105b561061e366004615040565b600090815260fb602052604090206001015490565b34801561063f57600080fd5b5061019c54610654906001600160a01b031681565b6040516001600160a01b0390911681526020016104e6565b34801561067857600080fd5b506104da610687366004614ff1565b6101a26020526000908152604090205460ff1681565b3480156106a957600080fd5b506105516106b83660046151c3565b611367565b3480156106c957600080fd5b506105516106d836600461527d565b61158a565b3480156106e957600080fd5b50604051601281526020016104e6565b34801561070557600080fd5b5061055161071436600461527d565b6115af565b34801561072557600080fd5b50610551610734366004614ff1565b61162d565b34801561074557600080fd5b506104da610754366004614fc5565b61170c565b34801561076557600080fd5b5061055161077436600461533b565b61172e565b34801561078557600080fd5b5061019e54610654906001600160a01b031681565b3480156107a657600080fd5b506105516118b3565b3480156107bb57600080fd5b506105b56107ca3660046151c3565b611926565b3480156107db57600080fd5b506105516107ea366004614ff1565b611a2d565b3480156107fb57600080fd5b5061055161080a366004615381565b611a79565b34801561081b57600080fd5b5061055161082a366004614fc5565b611b76565b34801561083b57600080fd5b5061084f61084a366004615040565b611cc3565b6040516104e69291906153f9565b61055161086b366004615450565b611faa565b34801561087c57600080fd5b506105b561088b366004614ff1565b6101926020526000908152604090205481565b3480156108aa57600080fd5b506105b5612076565b3480156108bf57600080fd5b506105516108ce366004615381565b612129565b3480156108df57600080fd5b5060975460ff166104da565b3480156108f757600080fd5b50610551610906366004615381565b612226565b34801561091757600080fd5b50610551610926366004614ff1565b612323565b34801561093757600080fd5b506104da610946366004614ff1565b6101996020526000908152604090205460ff1681565b34801561096857600080fd5b506105b5610977366004614ff1565b6001600160a01b031660009081526033602052604090205490565b34801561099e57600080fd5b506105516123a2565b3480156109b357600080fd5b506105516109c2366004614fc5565b6123d8565b3480156109d357600080fd5b506105516109e2366004615040565b612439565b3480156109f357600080fd5b50610551610a02366004615381565b6124ba565b348015610a1357600080fd5b506105516125b7565b348015610a2857600080fd5b50610551610a37366004615532565b61267d565b348015610a4857600080fd5b50610551612afa565b348015610a5d57600080fd5b506104da610a6c3660046155cc565b80516020818301810180516101948252928201919093012091525460ff1681565b348015610a9957600080fd5b50610551610aa8366004615381565b612b6d565b348015610ab957600080fd5b50610551610ac8366004614fc5565b612c6a565b348015610ad957600080fd5b50610551610ae8366004614fc5565b612d53565b348015610af957600080fd5b506065546001600160a01b0316610654565b348015610b1757600080fd5b50610551610b26366004615381565b612db4565b348015610b3757600080fd5b506105b56101915481565b348015610b4e57600080fd5b506104da610b5d36600461527d565b612eb1565b348015610b6e57600080fd5b50610504612edc565b348015610b8357600080fd5b50610654610b92366004615040565b612eeb565b348015610ba357600080fd5b5061019354610bbf90600160a01b90046001600160401b031681565b6040516001600160401b0390911681526020016104e6565b348015610be357600080fd5b506105b5600081565b348015610bf857600080fd5b506104da610c07366004614fc5565b612f16565b348015610c1857600080fd5b506105b561019f5481565b348015610c2f57600080fd5b506104da610c3e366004614fc5565b612f9c565b348015610c4f57600080fd5b506104da610c5e366004614ff1565b612fd1565b348015610c6f57600080fd5b5061019354610654906001600160a01b031681565b348015610c9057600080fd5b50610551610c9f366004614ff1565b6132f8565b348015610cb057600080fd5b50610551610cbf366004615040565b613391565b348015610cd057600080fd5b50610551610cdf366004615600565b6133f1565b348015610cf057600080fd5b50610cf96134de565b6040516104e69190615674565b348015610d1257600080fd5b50610551610d21366004614ff1565b613540565b348015610d3257600080fd5b50610195546104da9060ff1681565b348015610d4d57600080fd5b50610197546104da9060ff1681565b348015610d6857600080fd5b50610551610d7736600461527d565b6135b9565b348015610d8857600080fd5b506105b56135de565b348015610d9d57600080fd5b50610551610dac366004614ff1565b6135fc565b348015610dbd57600080fd5b506104da610dcc366004614ff1565b613678565b348015610ddd57600080fd5b506105b5610dec366004615687565b613843565b348015610dfd57600080fd5b506105b561019d5481565b348015610e1457600080fd5b50610551610e23366004614ff1565b61386e565b348015610e3457600080fd5b506105b561271081565b348015610e4a57600080fd5b506105b57f65d7a28e3265b37a6474929f336521b332c1681b933f6cb9f3376673440d862a81565b348015610e7e57600080fd5b50610551610e8d366004614ff1565b613908565b348015610e9e57600080fd5b50610551610ead366004615040565b613981565b348015610ebe57600080fd5b506105b57f241ecf16d79d0f8dbfb92cbc07fe17840425976cf0667f022fe9877caa831b0881565b348015610ef257600080fd5b506104da610f01366004614ff1565b61019b6020526000908152604090205460ff1681565b348015610f2357600080fd5b506104da610f32366004614ff1565b61019a6020526000908152604090205460ff1681565b348015610f5457600080fd5b50610193546104da90600160e01b900460ff1681565b348015610f7657600080fd5b50610551610f85366004614ff1565b6139fb565b348015610f9657600080fd5b506104da610fa53660046155cc565b80516020818301810180516101968252928201919093012091525460ff1681565b348015610fd257600080fd5b506104da610fe13660046155cc565b80516020818301810180516101988252928201919093012091525460ff1681565b34801561100e57600080fd5b506101a354610654906001600160a01b031681565b34801561102f57600080fd5b50610504604051806040016040528060058152602001640312e352e360dc1b81525081565b60006001600160e01b03198216637965db0b60e01b148061108557506301ffc9a760e01b6001600160e01b03198316145b92915050565b60606036805461109a906156b5565b80601f01602080910402602001604051908101604052809291908181526020018280546110c6906156b5565b80156111135780601f106110e857610100808354040283529160200191611113565b820191906000526020600020905b8154815290600101906020018083116110f657829003601f168201915b5050505050905090565b60003361112b818585613aa2565b5060019392505050565b6065546001600160a01b031633146111685760405162461bcd60e51b815260040161115f906156ef565b60405180910390fd5b6001600160a01b031660009081526101a060205260409020805460ff19166001179055565b6065546001600160a01b031633146111b75760405162461bcd60e51b815260040161115f906156ef565b610193805467ffffffffffffffff60a01b1916600160a01b6001600160401b038416908102919091179091556040519081527f87f670402a6c72fff3b60ba5223165f062b58d671871fc2c49ea96101fdd19a0906020015b60405180910390a150565b60975460ff161561123d5760405162461bcd60e51b815260040161115f90615724565b6101a1546000905b60008311801561125457508082105b156112d65760006101a1838154811061126f5761126f61574e565b60009182526020808320909101546001600160a01b031680835261019290915260409091205490915080156112c95760008186116112ad57856112af565b815b90506112bb8382613bc6565b6112c5818761577a565b9550505b6001840193505050611245565b82156113205760405162461bcd60e51b8152602060048201526019602482015278139bdb8b5e995c9bc81c995b585a5b9a5b99c8185b5bdd5b9d603a1b604482015260640161115f565b505050565b6000826001600160a01b03811661133b57600080fd5b306001600160a01b0382160361135057600080fd5b61135b858585613cdd565b50600195945050505050565b60975460ff161561138a5760405162461bcd60e51b815260040161115f90615724565b8151815181146113d65760405162461bcd60e51b81526020600482015260176024820152762632b733ba341037b31030b93930bcb9903234b33332b960491b604482015260640161115f565b61019d543360009081526101a0602052604081205490919060ff1682805b858110156114a2578261144657612710848883815181106114175761141761574e565b60200260200101516114299190615791565b61143391906157b0565b915061143f82866157d2565b945061144b565b600091505b6114928882815181106114605761146061574e565b60200260200101518389848151811061147b5761147b61574e565b602002602001015161148d919061577a565b613bc6565b61149b816157ea565b90506113f4565b50831561158157600061271061019f54866114bd9190615791565b6114c791906157b0565b90506114d3818661577a565b61019c549095506114ed906001600160a01b031686612f9c565b5060408051338152602081018790527f3f89e1d936a29a8de9ae9040436992721a00bc63bbe3ca55692b95f0311640b2910160405180910390a1801561157f5761019e54611544906001600160a01b031682612f9c565b5060408051338152602081018390527f932bd968974f0b6fa1cb59bf961f81d2e57b39332d311b413dceae17966387db910160405180910390a15b505b50505050505050565b600082815260fb60205260409020600101546115a581613d03565b6113208383613d0d565b6001600160a01b038116331461161f5760405162461bcd60e51b815260206004820152602f60248201527f416363657373436f6e74726f6c3a2063616e206f6e6c792072656e6f756e636560448201526e103937b632b9903337b91039b2b63360891b606482015260840161115f565b6116298282613d93565b5050565b6001600160a01b037f00000000000000000000000000000000000000000000000000000000000000001630036116755760405162461bcd60e51b815260040161115f90615803565b7f00000000000000000000000000000000000000000000000000000000000000006001600160a01b03166116be600080516020615e28833981519152546001600160a01b031690565b6001600160a01b0316146116e45760405162461bcd60e51b815260040161115f9061584f565b6116ed81613dfa565b6040805160008082526020820190925261170991839190613e24565b50565b60003361112b81858561171f8383613843565b61172991906157d2565b613aa2565b6065546001600160a01b031633146117585760405162461bcd60e51b815260040161115f906156ef565b6117818260405180604001604052806007815260200166726567696f6e7360c81b815250613f8f565b156117bd57806117a057610193805460ff60e01b1916905560006117b7565b610193805460ff60e01b1916600160e01b17905560015b50611876565b6117e882604051806040016040528060098152602001687374616e646172647360b81b815250613f8f565b15611817578061180457610195805460ff1916905560006117b7565b610195805460ff19166001179055611876565b611846826040518060400160405280600d81526020016c6d6574686f646f6c6f6769657360981b815250613f8f565b15611876578061186257610197805460ff191690556000611874565b610197805460ff191660019081179091555b505b7fcdc35455a1217219a4240bb18a7d2978eb98208f22f7ec36d6a1381c28f9d0f582826040516118a792919061589b565b60405180910390a15050565b7f65d7a28e3265b37a6474929f336521b332c1681b933f6cb9f3376673440d862a6118de8133612eb1565b806119025750336118f76065546001600160a01b031690565b6001600160a01b0316145b61191e5760405162461bcd60e51b815260040161115f906158bf565b611709613f9b565b600061193460975460ff1690565b156119515760405162461bcd60e51b815260040161115f90615724565b3360009081526101a0602052604090205460ff161561197257506000611085565b81518351146119bd5760405162461bcd60e51b81526020600482015260176024820152762632b733ba341037b31030b93930bcb9903234b33332b960491b604482015260640161115f565b61019d54600090815b8551811015611a23576000612710838784815181106119e7576119e761574e565b60200260200101516119f99190615791565b611a0391906157b0565b9050611a0f81856157d2565b93505080611a1c906157ea565b90506119c6565b5090949350505050565b6065546001600160a01b03163314611a575760405162461bcd60e51b815260040161115f906156ef565b6001600160a01b031660009081526101a060205260409020805460ff19169055565b6065546001600160a01b03163314611aa35760405162461bcd60e51b815260040161115f906156ef565b60005b81518110156116295760016101996000848481518110611ac857611ac861574e565b60200260200101516001600160a01b03166001600160a01b0316815260200190815260200160002060006101000a81548160ff0219169083151502179055507f29b8b184f4394a88477750516a3701dd0c9409451be78c24428bf5f827f527a5828281518110611b3a57611b3a61574e565b6020026020010151604051611b5e91906001600160a01b0391909116815260200190565b60405180910390a1611b6f816157ea565b9050611aa6565b60975460ff1615611b995760405162461bcd60e51b815260040161115f90615724565b611ba282613678565b611bdf5760405162461bcd60e51b815260206004820152600e60248201526d151bdad95b881c995a9958dd195960921b604482015260640161115f565b6000611be96135de565b905060008111611c275760405162461bcd60e51b8152602060048201526009602482015268119d5b1b081c1bdbdb60ba1b604482015260640161115f565b80821115611c33578091505b6001600160a01b0383166000908152610192602052604081208054849290611c5c9084906157d2565b90915550611c6c9050338361402e565b604080516001600160a01b0385168152602081018490527f2da466a7b24304f47e87fa2e1e5a81b9831ce54fec19055ce277ca2f39ba42c4910160405180910390a16113206001600160a01b038416333085614119565b606080611cd260975460ff1690565b15611cef5760405162461bcd60e51b815260040161115f90615724565b6101a15460009081905b600086118015611d0857508083105b15611e7c5760006101a18481548110611d2357611d2361574e565b60009182526020808320909101546001600160a01b03168083526101929091526040822054909250908115611d7657818911611d5f5788611d61565b815b9050611d6d818a61577a565b98508460010194505b85600101955088600003611e7457846001600160401b03811115611d9c57611d9c61509a565b604051908082528060200260200182016040528015611dc5578160200160208202803683370190505b509750846001600160401b03811115611de057611de061509a565b604051908082528060200260200182016040528015611e09578160200160208202803683370190505b5096508288611e1960018861577a565b81518110611e2957611e2961574e565b6001600160a01b03909216602092830291909101909101528087611e4e60018861577a565b81518110611e5e57611e5e61574e565b602002602001018181525050611e748382613bc6565b505050611cf9565b8515611ec65760405162461bcd60e51b8152602060048201526019602482015278139bdb8b5e995c9bc81c995b585a5b9a5b99c8185b5bdd5b9d603a1b604482015260640161115f565b6000915060005b611ed860018561577a565b811015611fa15760006101a18281548110611ef557611ef561574e565b60009182526020808320909101546001600160a01b0316808352610192909152604082205490925090819003611f2c575050611f91565b81888681518110611f3f57611f3f61574e565b60200260200101906001600160a01b031690816001600160a01b03168152505080878681518110611f7257611f7261574e565b602002602001018181525050611f888282613bc6565b84600101945050505b611f9a816157ea565b9050611ecd565b50505050915091565b6001600160a01b037f0000000000000000000000000000000000000000000000000000000000000000163003611ff25760405162461bcd60e51b815260040161115f90615803565b7f00000000000000000000000000000000000000000000000000000000000000006001600160a01b031661203b600080516020615e28833981519152546001600160a01b031690565b6001600160a01b0316146120615760405162461bcd60e51b815260040161115f9061584f565b61206a82613dfa565b61162982826001613e24565b6000306001600160a01b037f000000000000000000000000000000000000000000000000000000000000000016146121165760405162461bcd60e51b815260206004820152603860248201527f555550535570677261646561626c653a206d757374206e6f742062652063616c60448201527f6c6564207468726f7567682064656c656761746563616c6c0000000000000000606482015260840161115f565b50600080516020615e2883398151915290565b6065546001600160a01b031633146121535760405162461bcd60e51b815260040161115f906156ef565b60005b815181101561162957600161019b60008484815181106121785761217861574e565b60200260200101516001600160a01b03166001600160a01b0316815260200190815260200160002060006101000a81548160ff0219169083151502179055507f43388d274033333ceb567d699874be067ce7411c2bfc989f8e623694c9b3284f8282815181106121ea576121ea61574e565b602002602001015160405161220e91906001600160a01b0391909116815260200190565b60405180910390a161221f816157ea565b9050612156565b6065546001600160a01b031633146122505760405162461bcd60e51b815260040161115f906156ef565b60005b815181101561162957600061019b60008484815181106122755761227561574e565b60200260200101516001600160a01b03166001600160a01b0316815260200190815260200160002060006101000a81548160ff0219169083151502179055507fa7f25a7a7bea0a3fabbe5dc8b6176bd9a603925da390010a10998148c192b6708282815181106122e7576122e761574e565b602002602001015160405161230b91906001600160a01b0391909116815260200190565b60405180910390a161231c816157ea565b9050612253565b6065546001600160a01b0316331461234d5760405162461bcd60e51b815260040161115f906156ef565b6001600160a01b03811660008181526101a26020908152604091829020805460ff1916600117905590519182527fbfe78aa03afab7296923112293cb902a2fe6df5a6d3d81e1933c652c4cf860f4910161120f565b6065546001600160a01b031633146123cc5760405162461bcd60e51b815260040161115f906156ef565b6123d6600061418a565b565b6101a3546001600160a01b0316331461242f5760405162461bcd60e51b81526020600482015260196024820152784f6e6c7920526f757465722066756e6374696f6e616c69747960381b604482015260640161115f565b61162982826141dc565b6065546001600160a01b031633146124635760405162461bcd60e51b815260040161115f906156ef565b61271081106124b45760405162461bcd60e51b815260206004820152601760248201527f496e76616c6964206275726e2070657263656e74616765000000000000000000604482015260640161115f565b61019f55565b6065546001600160a01b031633146124e45760405162461bcd60e51b815260040161115f906156ef565b60005b815181101561162957600061019960008484815181106125095761250961574e565b60200260200101516001600160a01b03166001600160a01b0316815260200190815260200160002060006101000a81548160ff0219169083151502179055507f3c36656d3e8c3db21a1c7d0a7208d73387e15535964c44c30b20c45ab51b3c3882828151811061257b5761257b61574e565b602002602001015160405161259f91906001600160a01b0391909116815260200190565b60405180910390a16125b0816157ea565b90506124e7565b60006125c36001614336565b905080156125db576000805461ff0019166101001790555b6125e36143c3565b6125eb6143ea565b6125f361441a565b612630604051806060016040528060228152602001615e0660229139604051806040016040528060038152602001621090d560ea1b81525061444d565b61263b600033613d0d565b8015611709576000805461ff0019169055604051600181527f7f26b83ff96e1f2b6a682f133852f6798a09c465da95921460cefb38474024989060200161120f565b6065546001600160a01b031633146126a75760405162461bcd60e51b815260040161115f906156ef565b60005b8251811015612815578415156001036127635760016101968483815181106126d4576126d461574e565b60200260200101516040516126e991906158e5565b908152602001604051809103902060006101000a81548160ff0219169083151502179055507fa27e97999993c298fae0b7088ff732fe078cc1585665ee1554220b3cbe6317a98382815181106127415761274161574e565b60200260200101516040516127569190614f9d565b60405180910390a1612805565b600061019684838151811061277a5761277a61574e565b602002602001015160405161278f91906158e5565b908152602001604051809103902060006101000a81548160ff0219169083151502179055507f0127ddc00426c693b5becb26ba43a260c781ebc323b61d3b24b61e4dc5c93c718382815181106127e7576127e761574e565b60200260200101516040516127fc9190614f9d565b60405180910390a15b61280e816157ea565b90506126aa565b5060005b8151811015612984578415156001036128d25760016101988383815181106128435761284361574e565b602002602001015160405161285891906158e5565b908152602001604051809103902060006101000a81548160ff0219169083151502179055507f156643e9a7f860e95993739893595e6ee1d04d9ff1b98567dbe9d5681cd152b28282815181106128b0576128b061574e565b60200260200101516040516128c59190614f9d565b60405180910390a1612974565b60006101988383815181106128e9576128e961574e565b60200260200101516040516128fe91906158e5565b908152602001604051809103902060006101000a81548160ff0219169083151502179055507f21a77ac4edf49633047cc4e32b10dfe633811216214400e0e1f507c3f7287b618282815181106129565761295661574e565b602002602001015160405161296b9190614f9d565b60405180910390a15b61297d816157ea565b9050612819565b5060005b8351811015612af357841515600103612a415760016101948583815181106129b2576129b261574e565b60200260200101516040516129c791906158e5565b908152602001604051809103902060006101000a81548160ff0219169083151502179055507f3df7a1330febee3646ae4a0f0e46c94c046f0ee810b2b7f1fa10fa8f34d7b7ef848281518110612a1f57612a1f61574e565b6020026020010151604051612a349190614f9d565b60405180910390a1612ae3565b6000610194858381518110612a5857612a5861574e565b6020026020010151604051612a6d91906158e5565b908152602001604051809103902060006101000a81548160ff0219169083151502179055507fc84badb33408cce6e89b30a735d8f06e094fa4a19c01c2da66718f490c672f65848281518110612ac557612ac561574e565b6020026020010151604051612ada9190614f9d565b60405180910390a15b612aec816157ea565b9050612988565b5050505050565b7f65d7a28e3265b37a6474929f336521b332c1681b933f6cb9f3376673440d862a612b258133612eb1565b80612b49575033612b3e6065546001600160a01b031690565b6001600160a01b0316145b612b655760405162461bcd60e51b815260040161115f906158bf565b61170961449b565b6065546001600160a01b03163314612b975760405162461bcd60e51b815260040161115f906156ef565b60005b815181101561162957600161019a6000848481518110612bbc57612bbc61574e565b60200260200101516001600160a01b03166001600160a01b0316815260200190815260200160002060006101000a81548160ff0219169083151502179055507f2e333bce7bf5a0097fbb4fef2a950809960b5a4aa1a63cbcffc24ac62dc4fd07828281518110612c2e57612c2e61574e565b6020026020010151604051612c5291906001600160a01b0391909116815260200190565b60405180910390a1612c63816157ea565b9050612b9a565b60975460ff1615612c8d5760405162461bcd60e51b815260040161115f90615724565b6001600160a01b03821660009081526101a2602052604090205460ff16612ce55760405162461bcd60e51b815260206004820152600c60248201526b139bdd08195e195b5c1d195960a21b604482015260640161115f565b612cef8282613bc6565b60405163079cc67960e41b8152336004820152602481018290526001600160a01b038316906379cc679090604401600060405180830381600087803b158015612d3757600080fd5b505af1158015612d4b573d6000803e3d6000fd5b505050505050565b6101a3546001600160a01b03163314612daa5760405162461bcd60e51b81526020600482015260196024820152784f6e6c7920526f757465722066756e6374696f6e616c69747960381b604482015260640161115f565b611629828261402e565b6065546001600160a01b03163314612dde5760405162461bcd60e51b815260040161115f906156ef565b60005b815181101561162957600061019a6000848481518110612e0357612e0361574e565b60200260200101516001600160a01b03166001600160a01b0316815260200190815260200160002060006101000a81548160ff0219169083151502179055507f9cee5064afac40e291311ecb6a670ef3ef652131fb1ed15c1266fb22cffd6bdd828281518110612e7557612e7561574e565b6020026020010151604051612e9991906001600160a01b0391909116815260200190565b60405180910390a1612eaa816157ea565b9050612de1565b600091825260fb602090815260408084206001600160a01b0393909316845291905290205460ff1690565b60606037805461109a906156b5565b6101a18181548110612efc57600080fd5b6000918252602090912001546001600160a01b0316905081565b60003381612f248286613843565b905083811015612f845760405162461bcd60e51b815260206004820152602560248201527f45524332303a2064656372656173656420616c6c6f77616e63652062656c6f77604482015264207a65726f60d81b606482015260840161115f565b612f918286868403613aa2565b506001949350505050565b6000826001600160a01b038116612fb257600080fd5b306001600160a01b03821603612fc757600080fd5b612f9184846144f3565b600061303260405180610140016040528060608152602001606081526020016060815260200160608152602001606081526020016060815260200160608152602001606081526020016060815260200160006001600160a01b031681525090565b6130ae6040518061016001604052806060815260200160006001600160401b0316815260200160006001600160401b031681526020016000815260200160006001600160401b03168152602001600015158152602001600015158152602001606081526020016060815260200160608152602001606081525090565b836001600160a01b031663152583de6040518163ffffffff1660e01b8152600401600060405180830381865afa1580156130ec573d6000803e3d6000fd5b505050506040513d6000823e601f3d908101601f191682016040526131149190810190615aaa565b6101935460208201519294509092506001600160401b03600160a01b90910481169116101561317a5760405162461bcd60e51b815260206004820152601260248201527114dd185c9d081d1a5b59481d1bdbc81bdb1960721b604482015260640161115f565b610193601c9054906101000a900460ff16151561019483606001516040516131a291906158e5565b9081526040519081900360200190205460ff161515146131fa5760405162461bcd60e51b8152602060048201526013602482015272149959da5bdb881b9bdd081858d8d95c1d1959606a1b604482015260640161115f565b61019554602083015160405160ff9092161515916101969161321b916158e5565b9081526040519081900360200190205460ff161515146132755760405162461bcd60e51b815260206004820152601560248201527414dd185b99185c99081b9bdd081858d8d95c1d1959605a1b604482015260640161115f565b61019754604080840151905160ff90921615159161019891613296916158e5565b9081526040519081900360200190205460ff1615151461112b5760405162461bcd60e51b815260206004820152601860248201527f4d6574686f646f6c6f6779206e6f742061636365707465640000000000000000604482015260640161115f565b6065546001600160a01b031633146133225760405162461bcd60e51b815260040161115f906156ef565b6001600160a01b03811661336e5760405162461bcd60e51b8152602060048201526013602482015272496e76616c696420666565206164647265737360681b604482015260640161115f565b61019c80546001600160a01b0319166001600160a01b0392909216919091179055565b6065546001600160a01b031633146133bb5760405162461bcd60e51b815260040161115f906156ef565b6101918190556040518181527f4e44c8be34d12f1b7f56b13b4bbe97e64ca37a91916f86c73412da80c21748e29060200161120f565b7f241ecf16d79d0f8dbfb92cbc07fe17840425976cf0667f022fe9877caa831b0861341c8133612eb1565b806134405750336134356065546001600160a01b031690565b6001600160a01b0316145b61345c5760405162461bcd60e51b815260040161115f906158bf565b816134925760405162461bcd60e51b81526020600482015260066024820152652174636f327360d01b604482015260640161115f565b61349f6101a18484614e2f565b507f9204d457ace303c5dbbeaa6966e5ec65661a390007a367c6645e52b4ef4b528e83836040516134d1929190615c67565b60405180910390a1505050565b60606101a180548060200260200160405190810160405280929190818152602001828054801561111357602002820191906000526020600020905b81546001600160a01b03168152600190910190602001808311613519575050505050905090565b6065546001600160a01b0316331461356a5760405162461bcd60e51b815260040161115f906156ef565b6101a380546001600160a01b0319166001600160a01b0383169081179091556040519081527f7aed1d3e8155a07ccf395e44ea3109a0e2d6c9b29bbbe9f142d9790596f4dc809060200161120f565b600082815260fb60205260409020600101546135d481613d03565b6113208383613d93565b60006135e960355490565b610191546135f7919061577a565b905090565b6065546001600160a01b031633146136265760405162461bcd60e51b815260040161115f906156ef565b6001600160a01b03811660008181526101a26020908152604091829020805460ff1916905590519182527fd1fc9d8986829d0ba9df2bc201a2c76327e0f71567b5a2fb82ba464bf4a03f44910161120f565b6101935460405163787d871360e01b81526001600160a01b038381166004830152600092839291169063787d871390602401602060405180830381865afa1580156136c7573d6000803e3d6000fd5b505050506040513d601f19601f820116820180604052508101906136eb9190615caa565b905080156137da576001600160a01b038316600090815261019a602052604090205460ff161561371e5750600192915050565b6001600160a01b038316600090815261019b602052604090205460ff161561377b5760405162461bcd60e51b815260206004820152601060248201526f213630b1b5b634b9ba32b2102a21a79960811b604482015260640161115f565b61378483612fd1565b15156001146137d55760405162461bcd60e51b815260206004820152601760248201527f4e6f6e2d6d61746368696e672061747472696275746573000000000000000000604482015260640161115f565b61383a565b6001600160a01b0383166000908152610199602052604090205460ff16151560011461383a5760405162461bcd60e51b815260206004820152600f60248201526e139bdd081dda1a5d195b1a5cdd1959608a1b604482015260640161115f565b50600192915050565b6001600160a01b03918216600090815260346020908152604080832093909416825291909152205490565b6065546001600160a01b031633146138985760405162461bcd60e51b815260040161115f906156ef565b6001600160a01b0381166138e55760405162461bcd60e51b8152602060048201526014602482015273496e76616c6964206275726e206164647265737360601b604482015260640161115f565b61019e80546001600160a01b0319166001600160a01b0392909216919091179055565b6065546001600160a01b031633146139325760405162461bcd60e51b815260040161115f906156ef565b61019380546001600160a01b0319166001600160a01b0383169081179091556040519081527f86907b53cf2024579968511876daf0b4620d65803b550e33101baf70aeb6f5eb9060200161120f565b6065546001600160a01b031633146139ab5760405162461bcd60e51b815260040161115f906156ef565b61271081106139f55760405162461bcd60e51b8152602060048201526016602482015275496e76616c6964206665652070657263656e7461676560501b604482015260640161115f565b61019d55565b6065546001600160a01b03163314613a255760405162461bcd60e51b815260040161115f906156ef565b6001600160a01b038116613a8a5760405162461bcd60e51b815260206004820152602660248201527f4f776e61626c653a206e6577206f776e657220697320746865207a65726f206160448201526564647265737360d01b606482015260840161115f565b6117098161418a565b6001600160a01b03163b151590565b6001600160a01b038316613b045760405162461bcd60e51b8152602060048201526024808201527f45524332303a20617070726f76652066726f6d20746865207a65726f206164646044820152637265737360e01b606482015260840161115f565b6001600160a01b038216613b655760405162461bcd60e51b815260206004820152602260248201527f45524332303a20617070726f766520746f20746865207a65726f206164647265604482015261737360f01b606482015260840161115f565b6001600160a01b0383811660008181526034602090815260408083209487168084529482529182902085905590518481527f8c5be1e5ebec7d5bd14f71427d1e84f3dd0314c0f7b2291e5b200ac8c7c3b925910160405180910390a3505050565b60975460ff1615613be95760405162461bcd60e51b815260040161115f90615724565b6001600160a01b03821660009081526101926020526040902054811115613c4a5760405162461bcd60e51b8152602060048201526015602482015274416d6f756e74206578636565647320737570706c7960581b604482015260640161115f565b613c5433826141dc565b6001600160a01b0382166000908152610192602052604081208054839290613c7d90849061577a565b90915550613c9790506001600160a01b0383163383614501565b604080513381526001600160a01b03841660208201529081018290527f27d4634c833b7622a0acddbf7f746183625f105945e95c723ad1d5a9f2a0b6fc906060016118a7565b600033613ceb858285614531565b613cf68585856145a5565b60019150505b9392505050565b611709813361477e565b613d178282612eb1565b61162957600082815260fb602090815260408083206001600160a01b03851684529091529020805460ff19166001179055613d4f3390565b6001600160a01b0316816001600160a01b0316837f2f8788117e7eff1d82e926ec794901d17c78024a50270940304540a733656f0d60405160405180910390a45050565b613d9d8282612eb1565b1561162957600082815260fb602090815260408083206001600160a01b0385168085529252808320805460ff1916905551339285917ff6391f5c32d9c69d2a47ea670b442974b53935d1edc7fd64eb21e047a839171b9190a45050565b6065546001600160a01b031633146117095760405162461bcd60e51b815260040161115f906156ef565b7f4910fdfa16fed3260ed0e7147f7cc6da11a60208b5b9406d12a635614ffd91435460ff1615613e5757611320836147e2565b826001600160a01b03166352d1902d6040518163ffffffff1660e01b8152600401602060405180830381865afa925050508015613eb1575060408051601f3d908101601f19168201909252613eae91810190615cc7565b60015b613f145760405162461bcd60e51b815260206004820152602e60248201527f45524331393637557067726164653a206e657720696d706c656d656e7461746960448201526d6f6e206973206e6f74205555505360901b606482015260840161115f565b600080516020615e288339815191528114613f835760405162461bcd60e51b815260206004820152602960248201527f45524331393637557067726164653a20756e737570706f727465642070726f786044820152681a58589b195555525160ba1b606482015260840161115f565b5061132083838361487e565b6000613cfc83836148a3565b60975460ff16613fe45760405162461bcd60e51b815260206004820152601460248201527314185d5cd8589b194e881b9bdd081c185d5cd95960621b604482015260640161115f565b6097805460ff191690557f5db9ee0a495bf2e6ff9c91a7834c1ba4fdd244a5e8aa4e537bd38aeae4b073aa335b6040516001600160a01b03909116815260200160405180910390a1565b6001600160a01b0382166140845760405162461bcd60e51b815260206004820152601f60248201527f45524332303a206d696e7420746f20746865207a65726f206164647265737300604482015260640161115f565b614090600083836148c8565b80603560008282546140a291906157d2565b90915550506001600160a01b038216600090815260336020526040812080548392906140cf9084906157d2565b90915550506040518181526001600160a01b038316906000907fddf252ad1be2c89b69c2b068fc378daa952ba7f163c4a11628f55a4df523b3ef9060200160405180910390a35050565b6040516001600160a01b03808516602483015283166044820152606481018290526141849085906323b872dd60e01b906084015b60408051601f198184030181529190526020810180516001600160e01b03166001600160e01b03199093169290921790915261490d565b50505050565b606580546001600160a01b038381166001600160a01b0319831681179093556040519116919082907f8be0079c531659141344cd1fd0a4f28419497f9722a3daafe3b4186f6b6457e090600090a35050565b6001600160a01b03821661423c5760405162461bcd60e51b815260206004820152602160248201527f45524332303a206275726e2066726f6d20746865207a65726f206164647265736044820152607360f81b606482015260840161115f565b614248826000836148c8565b6001600160a01b038216600090815260336020526040902054818110156142bc5760405162461bcd60e51b815260206004820152602260248201527f45524332303a206275726e20616d6f756e7420657863656564732062616c616e604482015261636560f01b606482015260840161115f565b6001600160a01b03831660009081526033602052604081208383039055603580548492906142eb90849061577a565b90915550506040518281526000906001600160a01b038516907fddf252ad1be2c89b69c2b068fc378daa952ba7f163c4a11628f55a4df523b3ef9060200160405180910390a3505050565b60008054610100900460ff161561437d578160ff1660011480156143595750303b155b6143755760405162461bcd60e51b815260040161115f90615ce0565b506000919050565b60005460ff8084169116106143a45760405162461bcd60e51b815260040161115f90615ce0565b506000805460ff191660ff92909216919091179055600190565b919050565b600054610100900460ff166123d65760405162461bcd60e51b815260040161115f90615d2e565b600054610100900460ff166144115760405162461bcd60e51b815260040161115f90615d2e565b6123d63361418a565b600054610100900460ff166144415760405162461bcd60e51b815260040161115f90615d2e565b6097805460ff19169055565b600054610100900460ff166144745760405162461bcd60e51b815260040161115f90615d2e565b8151614487906036906020850190614e92565b508051611320906037906020840190614e92565b60975460ff16156144be5760405162461bcd60e51b815260040161115f90615724565b6097805460ff191660011790557f62e78cea01bee320cd4e420270b5ea74000d11b0c9f74754ebdbfc544b05a2586140113390565b60003361112b8185856145a5565b6040516001600160a01b03831660248201526044810182905261132090849063a9059cbb60e01b9060640161414d565b600061453d8484613843565b9050600019811461418457818110156145985760405162461bcd60e51b815260206004820152601d60248201527f45524332303a20696e73756666696369656e7420616c6c6f77616e6365000000604482015260640161115f565b6141848484848403613aa2565b6001600160a01b0383166146095760405162461bcd60e51b815260206004820152602560248201527f45524332303a207472616e736665722066726f6d20746865207a65726f206164604482015264647265737360d81b606482015260840161115f565b6001600160a01b03821661466b5760405162461bcd60e51b815260206004820152602360248201527f45524332303a207472616e7366657220746f20746865207a65726f206164647260448201526265737360e81b606482015260840161115f565b6146768383836148c8565b6001600160a01b038316600090815260336020526040902054818110156146ee5760405162461bcd60e51b815260206004820152602660248201527f45524332303a207472616e7366657220616d6f756e7420657863656564732062604482015265616c616e636560d01b606482015260840161115f565b6001600160a01b038085166000908152603360205260408082208585039055918516815290812080548492906147259084906157d2565b92505081905550826001600160a01b0316846001600160a01b03167fddf252ad1be2c89b69c2b068fc378daa952ba7f163c4a11628f55a4df523b3ef8460405161477191815260200190565b60405180910390a3614184565b6147888282612eb1565b611629576147a0816001600160a01b031660146149df565b6147ab8360206149df565b6040516020016147bc929190615d79565b60408051601f198184030181529082905262461bcd60e51b825261115f91600401614f9d565b6001600160a01b0381163b61484f5760405162461bcd60e51b815260206004820152602d60248201527f455243313936373a206e657720696d706c656d656e746174696f6e206973206e60448201526c1bdd08184818dbdb9d1c9858dd609a1b606482015260840161115f565b600080516020615e2883398151915280546001600160a01b0319166001600160a01b0392909216919091179055565b61488783614b7a565b6000825111806148945750805b15611320576141848383614bba565b600081518351148015613cfc5750508051602091820120825192909101919091201490565b60975460ff16156113205760405162461bcd60e51b815260206004820152600f60248201526e14185d5cd9590818dbdb9d1c9858dd608a1b604482015260640161115f565b6000614962826040518060400160405280602081526020017f5361666545524332303a206c6f772d6c6576656c2063616c6c206661696c6564815250856001600160a01b0316614cae9092919063ffffffff16565b80519091501561132057808060200190518101906149809190615caa565b6113205760405162461bcd60e51b815260206004820152602a60248201527f5361666545524332303a204552433230206f7065726174696f6e20646964206e6044820152691bdd081cdd58d8d9595960b21b606482015260840161115f565b606060006149ee836002615791565b6149f99060026157d2565b6001600160401b03811115614a1057614a1061509a565b6040519080825280601f01601f191660200182016040528015614a3a576020820181803683370190505b509050600360fc1b81600081518110614a5557614a5561574e565b60200101906001600160f81b031916908160001a905350600f60fb1b81600181518110614a8457614a8461574e565b60200101906001600160f81b031916908160001a9053506000614aa8846002615791565b614ab39060016157d2565b90505b6001811115614b2b576f181899199a1a9b1b9c1cb0b131b232b360811b85600f1660108110614ae757614ae761574e565b1a60f81b828281518110614afd57614afd61574e565b60200101906001600160f81b031916908160001a90535060049490941c93614b2481615dee565b9050614ab6565b508315613cfc5760405162461bcd60e51b815260206004820181905260248201527f537472696e67733a20686578206c656e67746820696e73756666696369656e74604482015260640161115f565b614b83816147e2565b6040516001600160a01b038216907fbc7cd75a20ee27fd9adebab32041f755214dbc6bffa90cc0225b39da2e5c2d3b90600090a250565b60606001600160a01b0383163b614c225760405162461bcd60e51b815260206004820152602660248201527f416464726573733a2064656c65676174652063616c6c20746f206e6f6e2d636f6044820152651b9d1c9858dd60d21b606482015260840161115f565b600080846001600160a01b031684604051614c3d91906158e5565b600060405180830381855af49150503d8060008114614c78576040519150601f19603f3d011682016040523d82523d6000602084013e614c7d565b606091505b5091509150614ca58282604051806060016040528060278152602001615e4860279139614cc5565b95945050505050565b6060614cbd8484600085614cfe565b949350505050565b60608315614cd4575081613cfc565b825115614ce45782518084602001fd5b8160405162461bcd60e51b815260040161115f9190614f9d565b606082471015614d5f5760405162461bcd60e51b815260206004820152602660248201527f416464726573733a20696e73756666696369656e742062616c616e636520666f6044820152651c8818d85b1b60d21b606482015260840161115f565b6001600160a01b0385163b614db65760405162461bcd60e51b815260206004820152601d60248201527f416464726573733a2063616c6c20746f206e6f6e2d636f6e7472616374000000604482015260640161115f565b600080866001600160a01b03168587604051614dd291906158e5565b60006040518083038185875af1925050503d8060008114614e0f576040519150601f19603f3d011682016040523d82523d6000602084013e614e14565b606091505b5091509150614e24828286614cc5565b979650505050505050565b828054828255906000526020600020908101928215614e82579160200282015b82811115614e825781546001600160a01b0319166001600160a01b03843516178255602090920191600190910190614e4f565b50614e8e929150614f06565b5090565b828054614e9e906156b5565b90600052602060002090601f016020900481019282614ec05760008555614e82565b82601f10614ed957805160ff1916838001178555614e82565b82800160010185558215614e82579182015b82811115614e82578251825591602001919060010190614eeb565b5b80821115614e8e5760008155600101614f07565b600060208284031215614f2d57600080fd5b81356001600160e01b031981168114613cfc57600080fd5b60005b83811015614f60578181015183820152602001614f48565b838111156141845750506000910152565b60008151808452614f89816020860160208601614f45565b601f01601f19169290920160200192915050565b602081526000613cfc6020830184614f71565b6001600160a01b038116811461170957600080fd5b60008060408385031215614fd857600080fd5b8235614fe381614fb0565b946020939093013593505050565b60006020828403121561500357600080fd5b8135613cfc81614fb0565b6001600160401b038116811461170957600080fd5b60006020828403121561503557600080fd5b8135613cfc8161500e565b60006020828403121561505257600080fd5b5035919050565b60008060006060848603121561506e57600080fd5b833561507981614fb0565b9250602084013561508981614fb0565b929592945050506040919091013590565b634e487b7160e01b600052604160045260246000fd5b60405161016081016001600160401b03811182821017156150d3576150d361509a565b60405290565b60405161014081016001600160401b03811182821017156150d3576150d361509a565b604051601f8201601f191681016001600160401b03811182821017156151245761512461509a565b604052919050565b60006001600160401b038211156151455761514561509a565b5060051b60200190565b600082601f83011261516057600080fd5b813560206151756151708361512c565b6150fc565b82815260059290921b8401810191818101908684111561519457600080fd5b8286015b848110156151b85780356151ab81614fb0565b8352918301918301615198565b509695505050505050565b600080604083850312156151d657600080fd5b82356001600160401b03808211156151ed57600080fd5b6151f98683870161514f565b935060209150818501358181111561521057600080fd5b85019050601f8101861361522357600080fd5b80356152316151708261512c565b81815260059190911b8201830190838101908883111561525057600080fd5b928401925b8284101561526e57833582529284019290840190615255565b80955050505050509250929050565b6000806040838503121561529057600080fd5b8235915060208301356152a281614fb0565b809150509250929050565b60006001600160401b038211156152c6576152c661509a565b50601f01601f191660200190565b60006152e2615170846152ad565b90508281528383830111156152f657600080fd5b828260208301376000602084830101529392505050565b600082601f83011261531e57600080fd5b613cfc838335602085016152d4565b801515811461170957600080fd5b6000806040838503121561534e57600080fd5b82356001600160401b0381111561536457600080fd5b6153708582860161530d565b92505060208301356152a28161532d565b60006020828403121561539357600080fd5b81356001600160401b038111156153a957600080fd5b614cbd8482850161514f565b600081518084526020808501945080840160005b838110156153ee5781516001600160a01b0316875295820195908201906001016153c9565b509495945050505050565b60408152600061540c60408301856153b5565b82810360208481019190915284518083528582019282019060005b8181101561544357845183529383019391830191600101615427565b5090979650505050505050565b6000806040838503121561546357600080fd5b823561546e81614fb0565b915060208301356001600160401b0381111561548957600080fd5b8301601f8101851361549a57600080fd5b6154a9858235602084016152d4565b9150509250929050565b600082601f8301126154c457600080fd5b813560206154d46151708361512c565b82815260059290921b840181019181810190868411156154f357600080fd5b8286015b848110156151b85780356001600160401b038111156155165760008081fd5b6155248986838b010161530d565b8452509183019183016154f7565b6000806000806080858703121561554857600080fd5b84356155538161532d565b935060208501356001600160401b038082111561556f57600080fd5b61557b888389016154b3565b9450604087013591508082111561559157600080fd5b61559d888389016154b3565b935060608701359150808211156155b357600080fd5b506155c0878288016154b3565b91505092959194509250565b6000602082840312156155de57600080fd5b81356001600160401b038111156155f457600080fd5b614cbd8482850161530d565b6000806020838503121561561357600080fd5b82356001600160401b038082111561562a57600080fd5b818501915085601f83011261563e57600080fd5b81358181111561564d57600080fd5b8660208260051b850101111561566257600080fd5b60209290920196919550909350505050565b602081526000613cfc60208301846153b5565b6000806040838503121561569a57600080fd5b82356156a581614fb0565b915060208301356152a281614fb0565b600181811c908216806156c957607f821691505b6020821081036156e957634e487b7160e01b600052602260045260246000fd5b50919050565b6020808252818101527f4f776e61626c653a2063616c6c6572206973206e6f7420746865206f776e6572604082015260600190565b60208082526010908201526f14185d5cd8589b194e881c185d5cd95960821b604082015260600190565b634e487b7160e01b600052603260045260246000fd5b634e487b7160e01b600052601160045260246000fd5b60008282101561578c5761578c615764565b500390565b60008160001904831182151516156157ab576157ab615764565b500290565b6000826157cd57634e487b7160e01b600052601260045260246000fd5b500490565b600082198211156157e5576157e5615764565b500190565b6000600182016157fc576157fc615764565b5060010190565b6020808252602c908201527f46756e6374696f6e206d7573742062652063616c6c6564207468726f7567682060408201526b19195b1959d85d1958d85b1b60a21b606082015260800190565b6020808252602c908201527f46756e6374696f6e206d7573742062652063616c6c6564207468726f7567682060408201526b6163746976652070726f787960a01b606082015260800190565b6040815260006158ae6040830185614f71565b905082151560208301529392505050565b6020808252600c908201526b155b985d5d1a1bdc9a5e995960a21b604082015260600190565b600082516158f7818460208701614f45565b9190910192915050565b600082601f83011261591257600080fd5b8151615920615170826152ad565b81815284602083860101111561593557600080fd5b614cbd826020830160208701614f45565b80516143be81614fb0565b80516143be8161500e565b80516143be8161532d565b6000610160828403121561597a57600080fd5b6159826150b0565b905081516001600160401b038082111561599b57600080fd5b6159a785838601615901565b83526159b560208501615951565b60208401526159c660408501615951565b6040840152606084015160608401526159e160808501615951565b60808401526159f260a0850161595c565b60a0840152615a0360c0850161595c565b60c084015260e0840151915080821115615a1c57600080fd5b615a2885838601615901565b60e084015261010091508184015181811115615a4357600080fd5b615a4f86828701615901565b838501525061012091508184015181811115615a6a57600080fd5b615a7686828701615901565b838501525061014091508184015181811115615a9157600080fd5b615a9d86828701615901565b8385015250505092915050565b60008060408385031215615abd57600080fd5b82516001600160401b0380821115615ad457600080fd5b908401906101408287031215615ae957600080fd5b615af16150d9565b825182811115615b0057600080fd5b615b0c88828601615901565b825250602083015182811115615b2157600080fd5b615b2d88828601615901565b602083015250604083015182811115615b4557600080fd5b615b5188828601615901565b604083015250606083015182811115615b6957600080fd5b615b7588828601615901565b606083015250608083015182811115615b8d57600080fd5b615b9988828601615901565b60808301525060a083015182811115615bb157600080fd5b615bbd88828601615901565b60a08301525060c083015182811115615bd557600080fd5b615be188828601615901565b60c08301525060e083015182811115615bf957600080fd5b615c0588828601615901565b60e0830152506101008084015183811115615c1f57600080fd5b615c2b89828701615901565b828401525050610120615c3f818501615946565b908201526020860151909450915080821115615c5a57600080fd5b506154a985828601615967565b60208082528181018390526000908460408401835b868110156151b8578235615c8f81614fb0565b6001600160a01b031682529183019190830190600101615c7c565b600060208284031215615cbc57600080fd5b8151613cfc8161532d565b600060208284031215615cd957600080fd5b5051919050565b6020808252602e908201527f496e697469616c697a61626c653a20636f6e747261637420697320616c72656160408201526d191e481a5b9a5d1a585b1a5e995960921b606082015260800190565b6020808252602b908201527f496e697469616c697a61626c653a20636f6e7472616374206973206e6f74206960408201526a6e697469616c697a696e6760a81b606082015260800190565b7f416363657373436f6e74726f6c3a206163636f756e7420000000000000000000815260008351615db1816017850160208801614f45565b7001034b99036b4b9b9b4b733903937b6329607d1b6017918401918201528351615de2816028840160208801614f45565b01602801949350505050565b600081615dfd57615dfd615764565b50600019019056fe546f7563616e2050726f746f636f6c3a204261736520436172626f6e20546f6e6e65360894a13ba1a3210667c828492db98dca3e2076cc3735a920a3ca505d382bbc416464726573733a206c6f772d6c6576656c2064656c65676174652063616c6c206661696c6564a2646970667358221220f3dd17f9898b95211515907587556150ac2f8a73466ca811d18ee7d03c5fef0264736f6c634300080e0033496e697469616c697a61626c653a20636f6e747261637420697320616c726561",
  "devdoc": {
    "kind": "dev",
    "methods": {
      "addAttributes(bool,string[],string[],string[])": {
        "params": {
          "addToList": "determines whether attribute should be added or removed Other params are arrays of attributes to be added"
        }
      },
      "addRedeemFeeExemptedAddress(address)": {
        "params": {
          "_address": "address to be exempted on redeem fees"
        }
      },
      "addRedeemFeeExemptedTCO2(address)": {
        "params": {
          "_tco2": "TCO2 to be exempted on redeem fees"
        }
      },
      "addToExternalWhiteList(address[])": {
        "params": {
          "erc20Addr": "accepts an array of contract addresses"
        }
      },
      "addToInternalBlackList(address[])": {
        "params": {
          "erc20Addr": "accepts an array of contract addresses"
        }
      },
      "addToInternalWhiteList(address[])": {
        "params": {
          "erc20Addr": "accepts an array of contract addresses"
        }
      },
      "allowance(address,address)": {
        "details": "See {IERC20-allowance}."
      },
      "approve(address,uint256)": {
        "details": "See {IERC20-approve}. NOTE: If `amount` is the maximum `uint256`, the allowance is not updated on `transferFrom`. This is semantically equivalent to an infinite approval. Requirements: - `spender` cannot be the zero address."
      },
      "balanceOf(address)": {
        "details": "See {IERC20-balanceOf}."
      },
      "bridgeBurn(address,uint256)": {
        "details": "invoked only by the ToucanCrosschainMessenger (Router)",
        "params": {
          "_account": "account that will be burned with corss-chain bridged tokens",
          "_amount": "amount of tokens that will be burned"
        }
      },
      "bridgeMint(address,uint256)": {
        "details": "invoked only by the ToucanCrosschainMessenger (Router)",
        "params": {
          "_account": "account that will be minted with corss-chain bridged tokens",
          "_amount": "amount of tokens that will be minted"
        }
      },
      "calculateRedeemFees(address[],uint256[])": {
        "details": "User specifies in front-end the addresses and amounts they want",
        "params": {
          "amounts": "Array of amounts to redeem for each tco2s",
          "tco2s": "Array of TCO2 contract addresses"
        },
        "returns": {
          "_0": "Total fees amount"
        }
      },
      "constructor": {
        "custom:oz-upgrades-unsafe-allow": "constructor"
      },
      "decimals()": {
        "details": "Returns the number of decimals used to get its user representation. For example, if `decimals` equals `2`, a balance of `505` tokens should be displayed to a user as `5.05` (`505 / 10 ** 2`). Tokens usually opt for a value of 18, imitating the relationship between Ether and Wei. This is the value {ERC20} uses, unless this function is overridden; NOTE: This information is only used for _display_ purposes: it in no way affects any of the arithmetic of the contract, including {IERC20-balanceOf} and {IERC20-transfer}."
      },
      "decreaseAllowance(address,uint256)": {
        "details": "Atomically decreases the allowance granted to `spender` by the caller. This is an alternative to {approve} that can be used as a mitigation for problems described in {IERC20-approve}. Emits an {Approval} event indicating the updated allowance. Requirements: - `spender` cannot be the zero address. - `spender` must have allowance for the caller of at least `subtractedValue`."
      },
      "deposit(address,uint256)": {
        "details": "Eligibility is checked via `checkEligible`, balances are tracked for each TCO2 separately",
        "params": {
          "erc20Addr": "ERC20 contract address to be deposited, requires approve"
        }
      },
      "getRemaining()": {
        "details": "Returns the remaining space in pool before hitting the cap"
      },
      "getRoleAdmin(bytes32)": {
        "details": "Returns the admin role that controls `role`. See {grantRole} and {revokeRole}. To change a role's admin, use {_setRoleAdmin}."
      },
      "grantRole(bytes32,address)": {
        "details": "Grants `role` to `account`. If `account` had not been already granted `role`, emits a {RoleGranted} event. Requirements: - the caller must have ``role``'s admin role."
      },
      "hasRole(bytes32,address)": {
        "details": "Returns `true` if `account` has been granted `role`."
      },
      "increaseAllowance(address,uint256)": {
        "details": "Atomically increases the allowance granted to `spender` by the caller. This is an alternative to {approve} that can be used as a mitigation for problems described in {IERC20-approve}. Emits an {Approval} event indicating the updated allowance. Requirements: - `spender` cannot be the zero address."
      },
      "name()": {
        "details": "Returns the name of the token."
      },
      "owner()": {
        "details": "Returns the address of the current owner."
      },
      "pause()": {
        "details": "wraps _pause(), only Admin"
      },
      "paused()": {
        "details": "Returns true if the contract is paused, and false otherwise."
      },
      "proxiableUUID()": {
        "details": "Implementation of the ERC1822 {proxiableUUID} function. This returns the storage slot used by the implementation. It is used to validate that the this implementation remains valid after an upgrade. IMPORTANT: A proxy pointing at a proxiable contract should not be considered proxiable itself, because this risks bricking a proxy that upgrades to it, by delegating to itself until out of gas. Thus it is critical that this function revert if invoked through a proxy. This is guaranteed by the `notDelegated` modifier."
      },
      "redeemAndBurn(address,uint256)": {
        "details": "User needs to approve the pool contract in the TCO2 contract for the amount to be burnt before executing this function.",
        "params": {
          "amount": "Amount to redeem and burn",
          "tco2": "TCO2 to redeem and burn"
        }
      },
      "redeemAuto(uint256)": {
        "details": "BCT Pool tokens in user's wallet get burned",
        "params": {
          "amount": "Total amount to be redeemed"
        }
      },
      "redeemAuto2(uint256)": {
        "params": {
          "amount": "Total amount to be redeemed"
        },
        "returns": {
          "tco2s": "amounts The addresses and amounts of the TCO2s that were automatically redeemed"
        }
      },
      "redeemMany(address[],uint256[])": {
        "details": "User specifies in front-end the addresses and amounts they want",
        "params": {
          "amounts": "Array of amounts to redeem for each tco2s BCT Pool token in user's wallet get burned",
          "tco2s": "Array of TCO2 contract addresses"
        }
      },
      "removeFromExternalWhiteList(address[])": {
        "params": {
          "erc20Addr": "accepts an array of contract addresses"
        }
      },
      "removeFromInternalBlackList(address[])": {
        "params": {
          "erc20Addr": "accepts an array of contract addresses"
        }
      },
      "removeFromInternalWhiteList(address[])": {
        "params": {
          "erc20Addr": "accepts an array of contract addressesc"
        }
      },
      "removeRedeemFeeExemptedAddress(address)": {
        "params": {
          "_address": "address to be removed from exemption"
        }
      },
      "removeRedeemFeeExemptedTCO2(address)": {
        "params": {
          "_tco2": "TCO2 to be removed from exemption"
        }
      },
      "renounceOwnership()": {
        "details": "Leaves the contract without owner. It will not be possible to call `onlyOwner` functions anymore. Can only be called by the current owner. NOTE: Renouncing ownership will leave the contract without an owner, thereby removing any functionality that is only available to the owner."
      },
      "renounceRole(bytes32,address)": {
        "details": "Revokes `role` from the calling account. Roles are often managed via {grantRole} and {revokeRole}: this function's purpose is to provide a mechanism for accounts to lose their privileges if they are compromised (such as when a trusted device is misplaced). If the calling account had been revoked `role`, emits a {RoleRevoked} event. Requirements: - the caller must be `account`."
      },
      "revokeRole(bytes32,address)": {
        "details": "Revokes `role` from `account`. If `account` had been granted `role`, emits a {RoleRevoked} event. Requirements: - the caller must have ``role``'s admin role."
      },
      "setFeeRedeemBurnAddress(address)": {
        "params": {
          "_feeRedeemBurnAddress": "address to transfer the fees to burn"
        }
      },
      "setFeeRedeemBurnPercentage(uint256)": {
        "params": {
          "_feeRedeemBurnPercentageInBase": "percentage of fee in base"
        }
      },
      "setFeeRedeemPercentage(uint256)": {
        "params": {
          "_feeRedeemPercentageInBase": "percentage of fee in base"
        }
      },
      "setFeeRedeemReceiver(address)": {
        "params": {
          "_feeRedeemReceiver": "address to transfer the fees"
        }
      },
      "setMinimumVintageStartTime(uint64)": {
        "params": {
          "_minimumVintageStartTime": "unix time format"
        }
      },
      "setRouter(address)": {
        "details": "use this method to set router address",
        "params": {
          "_router": "address of ToucanCrosschainMessenger"
        }
      },
      "setSupplyCap(uint256)": {
        "details": "supplyCap is initially set to 0 and must be increased before deposits"
      },
      "setTCO2Scoring(address[])": {
        "params": {
          "tco2s": "array of ordered TCO2 addresses"
        }
      },
      "supportsInterface(bytes4)": {
        "details": "See {IERC165-supportsInterface}."
      },
      "switchMapping(string,bool)": {
        "params": {
          "_mappingName": "attribute mapping of project-vintage data",
          "accepted": "determines if mapping works as black or whitelist"
        }
      },
      "symbol()": {
        "details": "Returns the symbol of the token, usually a shorter version of the name."
      },
      "totalSupply()": {
        "details": "See {IERC20-totalSupply}."
      },
      "transferOwnership(address)": {
        "details": "Transfers ownership of the contract to a new account (`newOwner`). Can only be called by the current owner."
      },
      "unpause()": {
        "details": "unpause the system, wraps _unpause(), only Admin"
      },
      "upgradeTo(address)": {
        "details": "Upgrade the implementation of the proxy to `newImplementation`. Calls {_authorizeUpgrade}. Emits an {Upgraded} event."
      },
      "upgradeToAndCall(address,bytes)": {
        "details": "Upgrade the implementation of the proxy to `newImplementation`, and subsequently execute the function call encoded in `data`. Calls {_authorizeUpgrade}. Emits an {Upgraded} event."
      }
    },
    "stateVariables": {
      "feeRedeemDivider": {
        "details": "fees redeem percentage with 2 fixed decimals precision"
      }
    },
    "version": 1
  },
  "userdoc": {
    "kind": "user",
    "methods": {
      "addAttributes(bool,string[],string[],string[])": {
        "notice": "Function to add attributes for filtering (does not support complex AttributeSets)"
      },
      "addRedeemFeeExemptedAddress(address)": {
        "notice": "Adds a new address for redeem fees exemption"
      },
      "addRedeemFeeExemptedTCO2(address)": {
        "notice": "Adds a new TCO2 for redeem fees exemption"
      },
      "addToExternalWhiteList(address[])": {
        "notice": "Function to whitelist selected external non-TCO2 contracts by their address"
      },
      "addToInternalBlackList(address[])": {
        "notice": "Function to blacklist certain TCO2 contracts by their address"
      },
      "addToInternalWhiteList(address[])": {
        "notice": "Function to whitelist certain TCO2 contracts by their address"
      },
      "bridgeBurn(address,uint256)": {
        "notice": "burn tokens from account to be cross-chain bridged"
      },
      "bridgeMint(address,uint256)": {
        "notice": "mint tokens to receiver account that were cross-chain bridged"
      },
      "calculateRedeemFees(address[],uint256[])": {
        "notice": "View function to calculate fees pre-execution"
      },
      "checkAttributeMatching(address)": {
        "notice": "checks whether incoming project-vintage-ERC20 token matches the accepted criteria/attributes"
      },
      "checkEligible(address)": {
        "notice": "Checks if token to be deposited is eligible for this pool"
      },
      "deposit(address,uint256)": {
        "notice": "Deposit function for BCT pool that accepts TCO2s and mints BCT 1:1"
      },
      "pause()": {
        "notice": "Emergency function to disable contract's core functionality"
      },
      "redeemAndBurn(address,uint256)": {
        "notice": "Redeem a whitelisted TCO2 without paying any fees and burn the TCO2. Initially added to burn HFC-23 credits, can be used in the future to dispose of any other whitelisted credits."
      },
      "redeemAuto(uint256)": {
        "notice": "Automatically redeems an amount of Pool tokens for underlying TCO2s from an array of ranked TCO2 contracts starting from contract at index 0 until amount is satisfied"
      },
      "redeemAuto2(uint256)": {
        "notice": "Automatically redeems an amount of Pool tokens for underlying TCO2s from an array of ranked TCO2 contracts starting from contract at index 0 until amount is satisfied. redeemAuto2 is slightly more expensive than redeemAuto but it is going to be more optimal to use by other on-chain contracts."
      },
      "redeemFeeExemptedAddresses(address)": {
        "notice": "End users exempted from redeem fees"
      },
      "redeemFeeExemptedTCO2s(address)": {
        "notice": "TCO2s exempted from redeem fees"
      },
      "redeemMany(address[],uint256[])": {
        "notice": "Redeems Pool tokens for multiple underlying TCO2s 1:1 minus fees"
      },
      "removeFromExternalWhiteList(address[])": {
        "notice": "Function to remove ERC20 addresses from external whitelist"
      },
      "removeFromInternalBlackList(address[])": {
        "notice": "Function to remove TCO2 addresses from internal blacklist"
      },
      "removeFromInternalWhiteList(address[])": {
        "notice": "Function to remove TCO2 addresses from internal whitelist"
      },
      "removeRedeemFeeExemptedAddress(address)": {
        "notice": "Removes an address from redeem fees exemption"
      },
      "removeRedeemFeeExemptedTCO2(address)": {
        "notice": "Removes a TCO2 from redeem fees exemption"
      },
      "router()": {
        "notice": "bridge router who has access to the bridgeMint & bridgeBurn functions which mint/burn pool tokens for cross chain messenges"
      },
      "scoredTCO2s(uint256)": {
        "notice": "array used to read from when redeeming TCO2s automatically"
      },
      "setFeeRedeemBurnAddress(address)": {
        "notice": "Update the fee redeem burn address"
      },
      "setFeeRedeemBurnPercentage(uint256)": {
        "notice": "Update the fee redeem burn percentage"
      },
      "setFeeRedeemPercentage(uint256)": {
        "notice": "Update the fee redeem percentage"
      },
      "setFeeRedeemReceiver(address)": {
        "notice": "Update the fee redeem receiver"
      },
      "setMinimumVintageStartTime(uint64)": {
        "notice": "Determines the minimum vintage start time acceptance criteria of TCO2s"
      },
      "setRouter(address)": {
        "notice": "method to set router address"
      },
      "setSupplyCap(uint256)": {
        "notice": "Function to limit the maximum BCT supply"
      },
      "setTCO2Scoring(address[])": {
        "notice": "Allows MANAGERs or the owner to pass an array to hold TCO2 contract addesses that are ordered by some form of scoring mechanism"
      },
      "switchMapping(string,bool)": {
        "notice": "Generic function to switch attributes mappings into either acceptance or rejection criteria"
      }
    },
    "notice": "Base Carbon Tonne for KlimaDAO Contract is an ERC20 compliant token that acts as a pool for TCO2 tokens It is possible to whitelist Toucan Protocol external tokenized carbon",
    "version": 1
  },
  "storageLayout": {
    "storage": [
      {
        "astId": 1489,
        "contract": "contracts/pools/BaseCarbonTonne.sol:BaseCarbonTonne",
        "label": "_initialized",
        "offset": 0,
        "slot": "0",
        "type": "t_uint8"
      },
      {
        "astId": 1492,
        "contract": "contracts/pools/BaseCarbonTonne.sol:BaseCarbonTonne",
        "label": "_initializing",
        "offset": 1,
        "slot": "0",
        "type": "t_bool"
      },
      {
        "astId": 4534,
        "contract": "contracts/pools/BaseCarbonTonne.sol:BaseCarbonTonne",
        "label": "__gap",
        "offset": 0,
        "slot": "1",
        "type": "t_array(t_uint256)50_storage"
      },
      {
        "astId": 1890,
        "contract": "contracts/pools/BaseCarbonTonne.sol:BaseCarbonTonne",
        "label": "_balances",
        "offset": 0,
        "slot": "51",
        "type": "t_mapping(t_address,t_uint256)"
      },
      {
        "astId": 1896,
        "contract": "contracts/pools/BaseCarbonTonne.sol:BaseCarbonTonne",
        "label": "_allowances",
        "offset": 0,
        "slot": "52",
        "type": "t_mapping(t_address,t_mapping(t_address,t_uint256))"
      },
      {
        "astId": 1898,
        "contract": "contracts/pools/BaseCarbonTonne.sol:BaseCarbonTonne",
        "label": "_totalSupply",
        "offset": 0,
        "slot": "53",
        "type": "t_uint256"
      },
      {
        "astId": 1900,
        "contract": "contracts/pools/BaseCarbonTonne.sol:BaseCarbonTonne",
        "label": "_name",
        "offset": 0,
        "slot": "54",
        "type": "t_string_storage"
      },
      {
        "astId": 1902,
        "contract": "contracts/pools/BaseCarbonTonne.sol:BaseCarbonTonne",
        "label": "_symbol",
        "offset": 0,
        "slot": "55",
        "type": "t_string_storage"
      },
      {
        "astId": 2481,
        "contract": "contracts/pools/BaseCarbonTonne.sol:BaseCarbonTonne",
        "label": "__gap",
        "offset": 0,
        "slot": "56",
        "type": "t_array(t_uint256)45_storage"
      },
      {
        "astId": 980,
        "contract": "contracts/pools/BaseCarbonTonne.sol:BaseCarbonTonne",
        "label": "_owner",
        "offset": 0,
        "slot": "101",
        "type": "t_address"
      },
      {
        "astId": 1092,
        "contract": "contracts/pools/BaseCarbonTonne.sol:BaseCarbonTonne",
        "label": "__gap",
        "offset": 0,
        "slot": "102",
        "type": "t_array(t_uint256)49_storage"
      },
      {
        "astId": 1781,
        "contract": "contracts/pools/BaseCarbonTonne.sol:BaseCarbonTonne",
        "label": "_paused",
        "offset": 0,
        "slot": "151",
        "type": "t_bool"
      },
      {
        "astId": 1870,
        "contract": "contracts/pools/BaseCarbonTonne.sol:BaseCarbonTonne",
        "label": "__gap",
        "offset": 0,
        "slot": "152",
        "type": "t_array(t_uint256)49_storage"
      },
      {
        "astId": 4841,
        "contract": "contracts/pools/BaseCarbonTonne.sol:BaseCarbonTonne",
        "label": "__gap",
        "offset": 0,
        "slot": "201",
        "type": "t_array(t_uint256)50_storage"
      },
      {
        "astId": 596,
        "contract": "contracts/pools/BaseCarbonTonne.sol:BaseCarbonTonne",
        "label": "_roles",
        "offset": 0,
        "slot": "251",
        "type": "t_mapping(t_bytes32,t_struct(RoleData)591_storage)"
      },
      {
        "astId": 895,
        "contract": "contracts/pools/BaseCarbonTonne.sol:BaseCarbonTonne",
        "label": "__gap",
        "offset": 0,
        "slot": "252",
        "type": "t_array(t_uint256)49_storage"
      },
      {
        "astId": 1471,
        "contract": "contracts/pools/BaseCarbonTonne.sol:BaseCarbonTonne",
        "label": "__gap",
        "offset": 0,
        "slot": "301",
        "type": "t_array(t_uint256)50_storage"
      },
      {
        "astId": 1759,
        "contract": "contracts/pools/BaseCarbonTonne.sol:BaseCarbonTonne",
        "label": "__gap",
        "offset": 0,
        "slot": "351",
        "type": "t_array(t_uint256)50_storage"
      },
      {
        "astId": 13733,
        "contract": "contracts/pools/BaseCarbonTonne.sol:BaseCarbonTonne",
        "label": "supplyCap",
        "offset": 0,
        "slot": "401",
        "type": "t_uint256"
      },
      {
        "astId": 13737,
        "contract": "contracts/pools/BaseCarbonTonne.sol:BaseCarbonTonne",
        "label": "tokenBalances",
        "offset": 0,
        "slot": "402",
        "type": "t_mapping(t_address,t_uint256)"
      },
      {
        "astId": 13739,
        "contract": "contracts/pools/BaseCarbonTonne.sol:BaseCarbonTonne",
        "label": "contractRegistry",
        "offset": 0,
        "slot": "403",
        "type": "t_address"
      },
      {
        "astId": 13741,
        "contract": "contracts/pools/BaseCarbonTonne.sol:BaseCarbonTonne",
        "label": "minimumVintageStartTime",
        "offset": 20,
        "slot": "403",
        "type": "t_uint64"
      },
      {
        "astId": 13744,
        "contract": "contracts/pools/BaseCarbonTonne.sol:BaseCarbonTonne",
        "label": "regionsIsAcceptedMapping",
        "offset": 28,
        "slot": "403",
        "type": "t_bool"
      },
      {
        "astId": 13748,
        "contract": "contracts/pools/BaseCarbonTonne.sol:BaseCarbonTonne",
        "label": "regions",
        "offset": 0,
        "slot": "404",
        "type": "t_mapping(t_string_memory_ptr,t_bool)"
      },
      {
        "astId": 13750,
        "contract": "contracts/pools/BaseCarbonTonne.sol:BaseCarbonTonne",
        "label": "standardsIsAcceptedMapping",
        "offset": 0,
        "slot": "405",
        "type": "t_bool"
      },
      {
        "astId": 13754,
        "contract": "contracts/pools/BaseCarbonTonne.sol:BaseCarbonTonne",
        "label": "standards",
        "offset": 0,
        "slot": "406",
        "type": "t_mapping(t_string_memory_ptr,t_bool)"
      },
      {
        "astId": 13756,
        "contract": "contracts/pools/BaseCarbonTonne.sol:BaseCarbonTonne",
        "label": "methodologiesIsAcceptedMapping",
        "offset": 0,
        "slot": "407",
        "type": "t_bool"
      },
      {
        "astId": 13760,
        "contract": "contracts/pools/BaseCarbonTonne.sol:BaseCarbonTonne",
        "label": "methodologies",
        "offset": 0,
        "slot": "408",
        "type": "t_mapping(t_string_memory_ptr,t_bool)"
      },
      {
        "astId": 13765,
        "contract": "contracts/pools/BaseCarbonTonne.sol:BaseCarbonTonne",
        "label": "externalWhiteList",
        "offset": 0,
        "slot": "409",
        "type": "t_mapping(t_address,t_bool)"
      },
      {
        "astId": 13770,
        "contract": "contracts/pools/BaseCarbonTonne.sol:BaseCarbonTonne",
        "label": "internalWhiteList",
        "offset": 0,
        "slot": "410",
        "type": "t_mapping(t_address,t_bool)"
      },
      {
        "astId": 13775,
        "contract": "contracts/pools/BaseCarbonTonne.sol:BaseCarbonTonne",
        "label": "internalBlackList",
        "offset": 0,
        "slot": "411",
        "type": "t_mapping(t_address,t_bool)"
      },
      {
        "astId": 13779,
        "contract": "contracts/pools/BaseCarbonTonne.sol:BaseCarbonTonne",
        "label": "feeRedeemReceiver",
        "offset": 0,
        "slot": "412",
        "type": "t_address"
      },
      {
        "astId": 13781,
        "contract": "contracts/pools/BaseCarbonTonne.sol:BaseCarbonTonne",
        "label": "feeRedeemPercentageInBase",
        "offset": 0,
        "slot": "413",
        "type": "t_uint256"
      },
      {
        "astId": 13784,
        "contract": "contracts/pools/BaseCarbonTonne.sol:BaseCarbonTonne",
        "label": "feeRedeemBurnAddress",
        "offset": 0,
        "slot": "414",
        "type": "t_address"
      },
      {
        "astId": 13787,
        "contract": "contracts/pools/BaseCarbonTonne.sol:BaseCarbonTonne",
        "label": "feeRedeemBurnPercentageInBase",
        "offset": 0,
        "slot": "415",
        "type": "t_uint256"
      },
      {
        "astId": 13793,
        "contract": "contracts/pools/BaseCarbonTonne.sol:BaseCarbonTonne",
        "label": "redeemFeeExemptedAddresses",
        "offset": 0,
        "slot": "416",
        "type": "t_mapping(t_address,t_bool)"
      },
      {
        "astId": 13797,
        "contract": "contracts/pools/BaseCarbonTonne.sol:BaseCarbonTonne",
        "label": "scoredTCO2s",
        "offset": 0,
        "slot": "417",
        "type": "t_array(t_address)dyn_storage"
      },
      {
        "astId": 13803,
        "contract": "contracts/pools/BaseCarbonTonne.sol:BaseCarbonTonne",
        "label": "redeemFeeExemptedTCO2s",
        "offset": 0,
        "slot": "418",
        "type": "t_mapping(t_address,t_bool)"
      },
      {
        "astId": 13807,
        "contract": "contracts/pools/BaseCarbonTonne.sol:BaseCarbonTonne",
        "label": "router",
        "offset": 0,
        "slot": "419",
        "type": "t_address"
      }
    ],
    "types": {
      "t_address": {
        "encoding": "inplace",
        "label": "address",
        "numberOfBytes": "20"
      },
      "t_array(t_address)dyn_storage": {
        "base": "t_address",
        "encoding": "dynamic_array",
        "label": "address[]",
        "numberOfBytes": "32"
      },
      "t_array(t_uint256)45_storage": {
        "base": "t_uint256",
        "encoding": "inplace",
        "label": "uint256[45]",
        "numberOfBytes": "1440"
      },
      "t_array(t_uint256)49_storage": {
        "base": "t_uint256",
        "encoding": "inplace",
        "label": "uint256[49]",
        "numberOfBytes": "1568"
      },
      "t_array(t_uint256)50_storage": {
        "base": "t_uint256",
        "encoding": "inplace",
        "label": "uint256[50]",
        "numberOfBytes": "1600"
      },
      "t_bool": {
        "encoding": "inplace",
        "label": "bool",
        "numberOfBytes": "1"
      },
      "t_bytes32": {
        "encoding": "inplace",
        "label": "bytes32",
        "numberOfBytes": "32"
      },
      "t_mapping(t_address,t_bool)": {
        "encoding": "mapping",
        "key": "t_address",
        "label": "mapping(address => bool)",
        "numberOfBytes": "32",
        "value": "t_bool"
      },
      "t_mapping(t_address,t_mapping(t_address,t_uint256))": {
        "encoding": "mapping",
        "key": "t_address",
        "label": "mapping(address => mapping(address => uint256))",
        "numberOfBytes": "32",
        "value": "t_mapping(t_address,t_uint256)"
      },
      "t_mapping(t_address,t_uint256)": {
        "encoding": "mapping",
        "key": "t_address",
        "label": "mapping(address => uint256)",
        "numberOfBytes": "32",
        "value": "t_uint256"
      },
      "t_mapping(t_bytes32,t_struct(RoleData)591_storage)": {
        "encoding": "mapping",
        "key": "t_bytes32",
        "label": "mapping(bytes32 => struct AccessControlUpgradeable.RoleData)",
        "numberOfBytes": "32",
        "value": "t_struct(RoleData)591_storage"
      },
      "t_mapping(t_string_memory_ptr,t_bool)": {
        "encoding": "mapping",
        "key": "t_string_memory_ptr",
        "label": "mapping(string => bool)",
        "numberOfBytes": "32",
        "value": "t_bool"
      },
      "t_string_memory_ptr": {
        "encoding": "bytes",
        "label": "string",
        "numberOfBytes": "32"
      },
      "t_string_storage": {
        "encoding": "bytes",
        "label": "string",
        "numberOfBytes": "32"
      },
      "t_struct(RoleData)591_storage": {
        "encoding": "inplace",
        "label": "struct AccessControlUpgradeable.RoleData",
        "members": [
          {
            "astId": 588,
            "contract": "contracts/pools/BaseCarbonTonne.sol:BaseCarbonTonne",
            "label": "members",
            "offset": 0,
            "slot": "0",
            "type": "t_mapping(t_address,t_bool)"
          },
          {
            "astId": 590,
            "contract": "contracts/pools/BaseCarbonTonne.sol:BaseCarbonTonne",
            "label": "adminRole",
            "offset": 0,
            "slot": "1",
            "type": "t_bytes32"
          }
        ],
        "numberOfBytes": "64"
      },
      "t_uint256": {
        "encoding": "inplace",
        "label": "uint256",
        "numberOfBytes": "32"
      },
      "t_uint64": {
        "encoding": "inplace",
        "label": "uint64",
        "numberOfBytes": "8"
      },
      "t_uint8": {
        "encoding": "inplace",
        "label": "uint8",
        "numberOfBytes": "1"
      }
    }
  }
}