{
  "address": "0xC5b831866d1e48f54B0f7AA267F00A620F25AD80",
  "abi": [
    {
      "inputs": [],
      "stateMutability": "nonpayable",
      "type": "constructor"
    },
    {
      "anonymous": false,
      "inputs": [
        {
          "indexed": true,
          "internalType": "address",
          "name": "owner",
          "type": "address"
        },
        {
          "indexed": true,
          "internalType": "address",
          "name": "spender",
          "type": "address"
        },
        {
          "indexed": false,
          "internalType": "uint256",
          "name": "value",
          "type": "uint256"
        }
      ],
      "name": "Approval",
      "type": "event"
    },
    {
      "anonymous": false,
      "inputs": [
        {
          "indexed": false,
          "internalType": "address",
          "name": "bridger",
          "type": "address"
        },
        {
          "indexed": false,
          "internalType": "uint256",
          "name": "fees",
          "type": "uint256"
        }
      ],
      "name": "FeeBurnt",
      "type": "event"
    },
    {
      "anonymous": false,
      "inputs": [
        {
          "indexed": false,
          "internalType": "address",
          "name": "bridger",
          "type": "address"
        },
        {
          "indexed": false,
          "internalType": "uint256",
          "name": "fees",
          "type": "uint256"
        }
      ],
      "name": "FeePaid",
      "type": "event"
    },
    {
      "anonymous": false,
      "inputs": [
        {
          "indexed": false,
          "internalType": "uint8",
          "name": "version",
          "type": "uint8"
        }
      ],
      "name": "Initialized",
      "type": "event"
    },
    {
      "anonymous": false,
      "inputs": [
        {
          "indexed": false,
          "internalType": "address",
          "name": "sender",
          "type": "address"
        },
        {
          "indexed": false,
          "internalType": "uint256",
          "name": "amount",
          "type": "uint256"
        },
        {
          "indexed": false,
          "internalType": "uint256",
          "name": "eventId",
          "type": "uint256"
        }
      ],
      "name": "Retired",
      "type": "event"
    },
    {
      "anonymous": false,
      "inputs": [
        {
          "indexed": true,
          "internalType": "address",
          "name": "from",
          "type": "address"
        },
        {
          "indexed": true,
          "internalType": "address",
          "name": "to",
          "type": "address"
        },
        {
          "indexed": false,
          "internalType": "uint256",
          "name": "value",
          "type": "uint256"
        }
      ],
      "name": "Transfer",
      "type": "event"
    },
    {
      "inputs": [],
      "name": "VERSION",
      "outputs": [
        {
          "internalType": "string",
          "name": "",
          "type": "string"
        }
      ],
      "stateMutability": "view",
      "type": "function"
    },
    {
      "inputs": [
        {
          "internalType": "address",
          "name": "owner",
          "type": "address"
        },
        {
          "internalType": "address",
          "name": "spender",
          "type": "address"
        }
      ],
      "name": "allowance",
      "outputs": [
        {
          "internalType": "uint256",
          "name": "",
          "type": "uint256"
        }
      ],
      "stateMutability": "view",
      "type": "function"
    },
    {
      "inputs": [
        {
          "internalType": "address",
          "name": "spender",
          "type": "address"
        },
        {
          "internalType": "uint256",
          "name": "amount",
          "type": "uint256"
        }
      ],
      "name": "approve",
      "outputs": [
        {
          "internalType": "bool",
          "name": "",
          "type": "bool"
        }
      ],
      "stateMutability": "nonpayable",
      "type": "function"
    },
    {
      "inputs": [
        {
          "internalType": "address",
          "name": "account",
          "type": "address"
        }
      ],
      "name": "balanceOf",
      "outputs": [
        {
          "internalType": "uint256",
          "name": "",
          "type": "uint256"
        }
      ],
      "stateMutability": "view",
      "type": "function"
    },
    {
      "inputs": [
        {
          "internalType": "address",
          "name": "account",
          "type": "address"
        },
        {
          "internalType": "uint256",
          "name": "amount",
          "type": "uint256"
        }
      ],
      "name": "bridgeBurn",
      "outputs": [],
      "stateMutability": "nonpayable",
      "type": "function"
    },
    {
      "inputs": [
        {
          "internalType": "address",
          "name": "account",
          "type": "address"
        },
        {
          "internalType": "uint256",
          "name": "amount",
          "type": "uint256"
        }
      ],
      "name": "bridgeMint",
      "outputs": [],
      "stateMutability": "nonpayable",
      "type": "function"
    },
    {
      "inputs": [
        {
          "internalType": "address",
          "name": "account",
          "type": "address"
        },
        {
          "internalType": "uint256",
          "name": "amount",
          "type": "uint256"
        }
      ],
      "name": "burnFrom",
      "outputs": [],
      "stateMutability": "nonpayable",
      "type": "function"
    },
    {
      "inputs": [],
      "name": "contractRegistry",
      "outputs": [
        {
          "internalType": "address",
          "name": "",
          "type": "address"
        }
      ],
      "stateMutability": "view",
      "type": "function"
    },
    {
      "inputs": [],
      "name": "decimals",
      "outputs": [
        {
          "internalType": "uint8",
          "name": "",
          "type": "uint8"
        }
      ],
      "stateMutability": "view",
      "type": "function"
    },
    {
      "inputs": [
        {
          "internalType": "address",
          "name": "spender",
          "type": "address"
        },
        {
          "internalType": "uint256",
          "name": "subtractedValue",
          "type": "uint256"
        }
      ],
      "name": "decreaseAllowance",
      "outputs": [
        {
          "internalType": "bool",
          "name": "",
          "type": "bool"
        }
      ],
      "stateMutability": "nonpayable",
      "type": "function"
    },
    {
      "inputs": [
        {
          "internalType": "uint256",
          "name": "tokenId",
          "type": "uint256"
        }
      ],
      "name": "defractionalize",
      "outputs": [],
      "stateMutability": "nonpayable",
      "type": "function"
    },
    {
      "inputs": [],
      "name": "getAttributes",
      "outputs": [
        {
          "components": [
            {
              "internalType": "string",
              "name": "projectId",
              "type": "string"
            },
            {
              "internalType": "string",
              "name": "standard",
              "type": "string"
            },
            {
              "internalType": "string",
              "name": "methodology",
              "type": "string"
            },
            {
              "internalType": "string",
              "name": "region",
              "type": "string"
            },
            {
              "internalType": "string",
              "name": "storageMethod",
              "type": "string"
            },
            {
              "internalType": "string",
              "name": "method",
              "type": "string"
            },
            {
              "internalType": "string",
              "name": "emissionType",
              "type": "string"
            },
            {
              "internalType": "string",
              "name": "category",
              "type": "string"
            },
            {
              "internalType": "string",
              "name": "uri",
              "type": "string"
            },
            {
              "internalType": "address",
              "name": "beneficiary",
              "type": "address"
            }
          ],
          "internalType": "struct ProjectData",
          "name": "",
          "type": "tuple"
        },
        {
          "components": [
            {
              "internalType": "string",
              "name": "name",
              "type": "string"
            },
            {
              "internalType": "uint64",
              "name": "startTime",
              "type": "uint64"
            },
            {
              "internalType": "uint64",
              "name": "endTime",
              "type": "uint64"
            },
            {
              "internalType": "uint256",
              "name": "projectTokenId",
              "type": "uint256"
            },
            {
              "internalType": "uint64",
              "name": "totalVintageQuantity",
              "type": "uint64"
            },
            {
              "internalType": "bool",
              "name": "isCorsiaCompliant",
              "type": "bool"
            },
            {
              "internalType": "bool",
              "name": "isCCPcompliant",
              "type": "bool"
            },
            {
              "internalType": "string",
              "name": "coBenefits",
              "type": "string"
            },
            {
              "internalType": "string",
              "name": "correspAdjustment",
              "type": "string"
            },
            {
              "internalType": "string",
              "name": "additionalCertification",
              "type": "string"
            },
            {
              "internalType": "string",
              "name": "uri",
              "type": "string"
            }
          ],
          "internalType": "struct VintageData",
          "name": "",
          "type": "tuple"
        }
      ],
      "stateMutability": "view",
      "type": "function"
    },
    {
      "inputs": [],
      "name": "getDepositCap",
      "outputs": [
        {
          "internalType": "uint256",
          "name": "",
          "type": "uint256"
        }
      ],
      "stateMutability": "view",
      "type": "function"
    },
    {
      "inputs": [],
      "name": "getGlobalProjectVintageIdentifiers",
      "outputs": [
        {
          "internalType": "string",
          "name": "",
          "type": "string"
        },
        {
          "internalType": "string",
          "name": "",
          "type": "string"
        }
      ],
      "stateMutability": "view",
      "type": "function"
    },
    {
      "inputs": [],
      "name": "getRemaining",
      "outputs": [
        {
          "internalType": "uint256",
          "name": "remaining",
          "type": "uint256"
        }
      ],
      "stateMutability": "view",
      "type": "function"
    },
    {
      "inputs": [
        {
          "internalType": "address",
          "name": "spender",
          "type": "address"
        },
        {
          "internalType": "uint256",
          "name": "addedValue",
          "type": "uint256"
        }
      ],
      "name": "increaseAllowance",
      "outputs": [
        {
          "internalType": "bool",
          "name": "",
          "type": "bool"
        }
      ],
      "stateMutability": "nonpayable",
      "type": "function"
    },
    {
      "inputs": [
        {
          "internalType": "string",
          "name": "name_",
          "type": "string"
        },
        {
          "internalType": "string",
          "name": "symbol_",
          "type": "string"
        },
        {
          "internalType": "uint256",
          "name": "_projectVintageTokenId",
          "type": "uint256"
        },
        {
          "internalType": "address",
          "name": "_contractRegistry",
          "type": "address"
        }
      ],
      "name": "initialize",
      "outputs": [],
      "stateMutability": "nonpayable",
      "type": "function"
    },
    {
      "inputs": [
        {
          "internalType": "string",
          "name": "retiringEntityString",
          "type": "string"
        },
        {
          "internalType": "address",
          "name": "beneficiary",
          "type": "address"
        },
        {
          "internalType": "string",
          "name": "beneficiaryString",
          "type": "string"
        },
        {
          "internalType": "string",
          "name": "retirementMessage",
          "type": "string"
        },
        {
          "internalType": "uint256",
          "name": "amount",
          "type": "uint256"
        }
      ],
      "name": "mintCertificateLegacy",
      "outputs": [],
      "stateMutability": "nonpayable",
      "type": "function"
    },
    {
      "inputs": [
        {
          "internalType": "address",
          "name": "",
          "type": "address"
        }
      ],
      "name": "minterToId",
      "outputs": [
        {
          "internalType": "uint256",
          "name": "",
          "type": "uint256"
        }
      ],
      "stateMutability": "view",
      "type": "function"
    },
    {
      "inputs": [],
      "name": "name",
      "outputs": [
        {
          "internalType": "string",
          "name": "",
          "type": "string"
        }
      ],
      "stateMutability": "view",
      "type": "function"
    },
    {
      "inputs": [
        {
          "internalType": "address",
          "name": "",
          "type": "address"
        },
        {
          "internalType": "address",
          "name": "from",
          "type": "address"
        },
        {
          "internalType": "uint256",
          "name": "tokenId",
          "type": "uint256"
        },
        {
          "internalType": "bytes",
          "name": "",
          "type": "bytes"
        }
      ],
      "name": "onERC721Received",
      "outputs": [
        {
          "internalType": "bytes4",
          "name": "",
          "type": "bytes4"
        }
      ],
      "stateMutability": "nonpayable",
      "type": "function"
    },
    {
      "inputs": [],
      "name": "projectVintageTokenId",
      "outputs": [
        {
          "internalType": "uint256",
          "name": "",
          "type": "uint256"
        }
      ],
      "stateMutability": "view",
      "type": "function"
    },
    {
      "inputs": [
        {
          "internalType": "uint256",
          "name": "amount",
          "type": "uint256"
        }
      ],
      "name": "retire",
      "outputs": [
        {
          "internalType": "uint256",
          "name": "retirementEventId",
          "type": "uint256"
        }
      ],
      "stateMutability": "nonpayable",
      "type": "function"
    },
    {
      "inputs": [
        {
          "internalType": "string",
          "name": "retiringEntityString",
          "type": "string"
        },
        {
          "internalType": "address",
          "name": "beneficiary",
          "type": "address"
        },
        {
          "internalType": "string",
          "name": "beneficiaryString",
          "type": "string"
        },
        {
          "internalType": "string",
          "name": "retirementMessage",
          "type": "string"
        },
        {
          "internalType": "uint256",
          "name": "amount",
          "type": "uint256"
        }
      ],
      "name": "retireAndMintCertificate",
      "outputs": [],
      "stateMutability": "nonpayable",
      "type": "function"
    },
    {
      "inputs": [
        {
          "internalType": "address",
          "name": "account",
          "type": "address"
        },
        {
          "internalType": "uint256",
          "name": "amount",
          "type": "uint256"
        }
      ],
      "name": "retireFrom",
      "outputs": [
        {
          "internalType": "uint256",
          "name": "retirementEventId",
          "type": "uint256"
        }
      ],
      "stateMutability": "nonpayable",
      "type": "function"
    },
    {
      "inputs": [
        {
          "internalType": "address",
          "name": "",
          "type": "address"
        }
      ],
      "name": "retiredAmount",
      "outputs": [
        {
          "internalType": "uint256",
          "name": "",
          "type": "uint256"
        }
      ],
      "stateMutability": "view",
      "type": "function"
    },
    {
      "inputs": [],
      "name": "symbol",
      "outputs": [
        {
          "internalType": "string",
          "name": "",
          "type": "string"
        }
      ],
      "stateMutability": "view",
      "type": "function"
    },
    {
      "inputs": [],
      "name": "totalSupply",
      "outputs": [
        {
          "internalType": "uint256",
          "name": "",
          "type": "uint256"
        }
      ],
      "stateMutability": "view",
      "type": "function"
    },
    {
      "inputs": [
        {
          "internalType": "address",
          "name": "recipient",
          "type": "address"
        },
        {
          "internalType": "uint256",
          "name": "amount",
          "type": "uint256"
        }
      ],
      "name": "transfer",
      "outputs": [
        {
          "internalType": "bool",
          "name": "",
          "type": "bool"
        }
      ],
      "stateMutability": "nonpayable",
      "type": "function"
    },
    {
      "inputs": [
        {
          "internalType": "address",
          "name": "sender",
          "type": "address"
        },
        {
          "internalType": "address",
          "name": "recipient",
          "type": "address"
        },
        {
          "internalType": "uint256",
          "name": "amount",
          "type": "uint256"
        }
      ],
      "name": "transferFrom",
      "outputs": [
        {
          "internalType": "bool",
          "name": "",
          "type": "bool"
        }
      ],
      "stateMutability": "nonpayable",
      "type": "function"
    }
  ],
  "numDeployments": 1,
  "solcInputHash": "79b7ca77ee5c574a6c84198e2b16bd28",
  "bytecode": "0x60806040523480156200001157600080fd5b506200001c62000022565b62000152565b6200002e60ff62000031565b50565b60008054610100900460ff1615620000ca578160ff1660011480156200006a575062000068306200014360201b62001f2b1760201c565b155b620000c25760405162461bcd60e51b815260206004820152602e602482015260008051602062003d7083398151915260448201526d191e481a5b9a5d1a585b1a5e995960921b60648201526084015b60405180910390fd5b506000919050565b60005460ff808416911610620001295760405162461bcd60e51b815260206004820152602e602482015260008051602062003d7083398151915260448201526d191e481a5b9a5d1a585b1a5e995960921b6064820152608401620000b9565b506000805460ff191660ff92909216919091179055600190565b6001600160a01b03163b151590565b613c0e80620001626000396000f3fe608060405234801561001057600080fd5b50600436106101da5760003560e01c806374f4f54711610104578063a9059cbb116100a2578063dd62ed3e11610071578063dd62ed3e1461041e578063e819426c14610431578063e9d5c8d51461043a578063ffa1ad741461045a57600080fd5b8063a9059cbb146103c5578063abf410e5146103d8578063bd3a13f614610403578063d6a022b81461041657600080fd5b80638c2a993e116100de5780638c2a993e1461037757806395d89b411461038a578063a19c4bd814610392578063a457c2d7146103b257600080fd5b806374f4f5471461033e5780637903c7d01461035157806379cc67901461036457600080fd5b806323b872dd1161017c578063395093511161014b57806339509351146102d957806364c5a403146102ec5780636b24ffd61461030257806370a082311461031557600080fd5b806323b872dd146102915780632ef29290146102a4578063313ce567146102b75780633790cf57146102c657600080fd5b8063150b7a02116101b8578063150b7a0214610232578063152583de1461025e57806318160ddd146102745780632087107e1461027c57600080fd5b806301a598da146101df57806306fdde03146101fa578063095ea7b31461020f575b600080fd5b6101e761047e565b6040519081526020015b60405180910390f35b6102026104d7565b6040516101f19190612d8c565b61022261021d366004612db7565b610512565b60405190151581526020016101f1565b610245610240366004612e2b565b61052c565b6040516001600160e01b031990911681526020016101f1565b610266610b9e565b6040516101f1929190612fad565b6035546101e7565b61028f61028a3660046130ec565b610d97565b005b61022261029f3660046131a1565b610efa565b61028f6102b23660046130ec565b611032565b604051601281526020016101f1565b6101e76102d43660046131e2565b61112d565b6102226102e7366004612db7565b61123f565b6102f4611261565b6040516101f19291906131fb565b6101e7610310366004612db7565b61128b565b6101e7610323366004613220565b6001600160a01b031660009081526033602052604090205490565b61028f61034c366004612db7565b6113a9565b61028f61035f3660046131e2565b6115c8565b61028f610372366004612db7565b611938565b61028f610385366004612db7565b611a47565b610202611c5e565b6101e76103a0366004613220565b60686020526000908152604090205481565b6102226103c0366004612db7565b611c83565b6102226103d3366004612db7565b611d09565b6066546103eb906001600160a01b031681565b6040516001600160a01b0390911681526020016101f1565b61028f61041136600461334c565b611e3f565b6101e7611eda565b6101e761042c3660046133cb565b611f00565b6101e760655481565b6101e7610448366004613220565b60676020526000908152604090205481565b610202604051806040016040528060058152602001640312e342e360dc1b81525081565b6000610488612bc6565b610490610b9e565b6080810151909250905060006104a86012600a6134fe565b6104bb906001600160401b03841661350d565b9050806000036104d057600019935050505090565b9392505050565b60608060606104e4611261565b60405191935091506104fc908390839060200161352c565b6040516020818303038152906040529250505090565b600033610520818585611f3a565b60019150505b92915050565b600080606660009054906101000a90046001600160a01b03166001600160a01b03166308cca7e36040518163ffffffff1660e01b8152600401602060405180830381865afa158015610582573d6000803e3d6000fd5b505050506040513d601f19601f820116820180604052508101906105a69190613595565b90506000816001600160a01b0316635c975abb6040518163ffffffff1660e01b8152600401602060405180830381865afa1580156105e8573d6000803e3d6000fd5b505050506040513d601f19601f8201168201806040525081019061060c91906135c2565b905080156106355760405162461bcd60e51b815260040161062c906135dd565b60405180910390fd5b61063e3361205f565b6106a15760405162461bcd60e51b815260206004820152602e60248201527f4572726f723a2042617463682d4e4654206e6f742066726f6d2077686974656c60448201526d1a5cdd19590818dbdb9d1c9858dd60921b606482015260840161062c565b60405163dff35e8360e01b81526004810187905260009081908190339063dff35e8390602401606060405180830381865afa1580156106e4573d6000803e3d6000fd5b505050506040513d601f19601f820116820180604052508101906107089190613602565b925092509250606554831461075f5760405162461bcd60e51b815260206004820152601760248201527f4572726f723a206e6f6e2d6d61746368696e67204e4654000000000000000000604482015260640161062c565b60028160028111156107735761077361363f565b146107c05760405162461bcd60e51b815260206004820152601a60248201527f42617463684e4654206e6f742079657420636f6e6669726d6564000000000000604482015260640161062c565b6001600160a01b038a1660009081526067602052604090208990556107e76012600a6134fe565b6107f1908361350d565b9150816107fc611eda565b10156108695760405162461bcd60e51b815260206004820152603660248201527f4572726f723a205175616e7469747920696e20626174636820697320686967686044820152756572207468616e20746f74616c2076696e746167657360501b606482015260840161062c565b606654604080516308cca7e360e01b815290516000926001600160a01b0316916308cca7e39160048083019260209291908290030181865afa1580156108b3573d6000803e3d6000fd5b505050506040513d601f19601f820116820180604052508101906108d79190613595565b90506000816001600160a01b03166380e2d3f06040518163ffffffff1660e01b8152600401602060405180830381865afa158015610919573d6000803e3d6000fd5b505050506040513d601f19601f8201168201806040525081019061093d9190613595565b90506001600160a01b03811661095c576109578c856120fa565b610b85565b6040516379bcd2d160e11b81526004810185905260009081906001600160a01b0385169063f379a5a2906024016040805180830381865afa1580156109a5573d6000803e3d6000fd5b505050506040513d601f19601f820116820180604052508101906109c99190613655565b90925090506109e18e6109dc8489613679565b6120fa565b6000846001600160a01b031663581cd1106040518163ffffffff1660e01b8152600401602060405180830381865afa158015610a21573d6000803e3d6000fd5b505050506040513d601f19601f82011682018060405250810190610a459190613595565b90506001600160a01b03811615801590610a5f5750600082115b15610b2357610a6e8284613679565b9250610a7a84846120fa565b610a8481836120fa565b7f075a2720282fdf622141dae0b048ef90a21a7e57c134c76912d19d006b3b3f6f8f84604051610ac99291906001600160a01b03929092168252602082015260400190565b60405180910390a17fa2f0f5180dc62f2d34c8207f1d18178d31bd0de616f83636434ddf48de0ae6fa8f83604051610b169291906001600160a01b03929092168252602082015260400190565b60405180910390a1610b81565b8215610b8157610b3384846120fa565b7f075a2720282fdf622141dae0b048ef90a21a7e57c134c76912d19d006b3b3f6f8f84604051610b789291906001600160a01b03929092168252602082015260400190565b60405180910390a15b5050505b50630a85bd0160e11b9c9b505050505050505050505050565b610ba6612c3f565b610bae612bc6565b606654604080516301157a8360e01b815290516000926001600160a01b0316916301157a839160048083019260209291908290030181865afa158015610bf8573d6000803e3d6000fd5b505050506040513d601f19601f82011682018060405250810190610c1c9190613595565b90506000606660009054906101000a90046001600160a01b03166001600160a01b031663a0af25606040518163ffffffff1660e01b8152600401602060405180830381865afa158015610c73573d6000803e3d6000fd5b505050506040513d601f19601f82011682018060405250810190610c979190613595565b90506000816001600160a01b03166315bbf0746065546040518263ffffffff1660e01b8152600401610ccb91815260200190565b600060405180830381865afa158015610ce8573d6000803e3d6000fd5b505050506040513d6000823e601f3d908101601f19168201604052610d1091908101906136ec565b90506000836001600160a01b03166347e3168683606001516040518263ffffffff1660e01b8152600401610d4691815260200190565b600060405180830381865afa158015610d63573d6000803e3d6000fd5b505050506040513d6000823e601f3d908101601f19168201604052610d8b9190810190613850565b96919550909350505050565b606654604080516308cca7e360e01b815290516000926001600160a01b0316916308cca7e39160048083019260209291908290030181865afa158015610de1573d6000803e3d6000fd5b505050506040513d601f19601f82011682018060405250810190610e059190613595565b90506000816001600160a01b0316635c975abb6040518163ffffffff1660e01b8152600401602060405180830381865afa158015610e47573d6000803e3d6000fd5b505050506040513d601f19601f82011682018060405250810190610e6b91906135c2565b90508015610e8b5760405162461bcd60e51b815260040161062c906135dd565b6000610e96846121d9565b60408051600180825281830190925291925060009190602080830190803683370190505090508181600081518110610ed057610ed06139f5565b602002602001018181525050610eec8c8c8c8c8c8c8c886122f3565b505050505050505050505050565b6000826001600160a01b038116610f1057600080fd5b306001600160a01b03821603610f2557600080fd5b606654604080516308cca7e360e01b815290516000926001600160a01b0316916308cca7e39160048083019260209291908290030181865afa158015610f6f573d6000803e3d6000fd5b505050506040513d601f19601f82011682018060405250810190610f939190613595565b90506000816001600160a01b0316635c975abb6040518163ffffffff1660e01b8152600401602060405180830381865afa158015610fd5573d6000803e3d6000fd5b505050506040513d601f19601f82011682018060405250810190610ff991906135c2565b905080156110195760405162461bcd60e51b815260040161062c906135dd565b6110248787876124d3565b506001979650505050505050565b606654604080516308cca7e360e01b815290516000926001600160a01b0316916308cca7e39160048083019260209291908290030181865afa15801561107c573d6000803e3d6000fd5b505050506040513d601f19601f820116820180604052508101906110a09190613595565b90506000816001600160a01b0316635c975abb6040518163ffffffff1660e01b8152600401602060405180830381865afa1580156110e2573d6000803e3d6000fd5b505050506040513d601f19601f8201168201806040525081019061110691906135c2565b905080156111265760405162461bcd60e51b815260040161062c906135dd565b6000610e96845b600080606660009054906101000a90046001600160a01b03166001600160a01b03166308cca7e36040518163ffffffff1660e01b8152600401602060405180830381865afa158015611183573d6000803e3d6000fd5b505050506040513d601f19601f820116820180604052508101906111a79190613595565b90506000816001600160a01b0316635c975abb6040518163ffffffff1660e01b8152600401602060405180830381865afa1580156111e9573d6000803e3d6000fd5b505050506040513d601f19601f8201168201806040525081019061120d91906135c2565b9050801561122d5760405162461bcd60e51b815260040161062c906135dd565b61123733856124ec565b949350505050565b6000336105208185856112528383611f00565b61125c9190613a0b565b611f3a565b60608061126c612c3f565b611274612bc6565b61127c610b9e565b90519051909590945092505050565b600080606660009054906101000a90046001600160a01b03166001600160a01b03166308cca7e36040518163ffffffff1660e01b8152600401602060405180830381865afa1580156112e1573d6000803e3d6000fd5b505050506040513d601f19601f820116820180604052508101906113059190613595565b90506000816001600160a01b0316635c975abb6040518163ffffffff1660e01b8152600401602060405180830381865afa158015611347573d6000803e3d6000fd5b505050506040513d601f19601f8201168201806040525081019061136b91906135c2565b9050801561138b5760405162461bcd60e51b815260040161062c906135dd565b611396853386612719565b6113a085856124ec565b95945050505050565b606654604080516308cca7e360e01b815290516000926001600160a01b0316916308cca7e39160048083019260209291908290030181865afa1580156113f3573d6000803e3d6000fd5b505050506040513d601f19601f820116820180604052508101906114179190613595565b90506000816001600160a01b0316635c975abb6040518163ffffffff1660e01b8152600401602060405180830381865afa158015611459573d6000803e3d6000fd5b505050506040513d601f19601f8201168201806040525081019061147d91906135c2565b9050801561149d5760405162461bcd60e51b815260040161062c906135dd565b606654604080516308cca7e360e01b815290516000926001600160a01b0316916308cca7e39160048083019260209291908290030181865afa1580156114e7573d6000803e3d6000fd5b505050506040513d601f19601f8201168201806040525081019061150b9190613595565b6040516311afe75f60e11b81523360048201529091506000906001600160a01b0383169063235fcebe90602401602060405180830381865afa158015611555573d6000803e3d6000fd5b505050506040513d601f19601f8201168201806040525081019061157991906135c2565b9050806115b65760405162461bcd60e51b815260206004820152600b60248201526a139bdd08185b1b1bddd95960aa1b604482015260640161062c565b6115c0868661278d565b505050505050565b606654604080516308cca7e360e01b815290516000926001600160a01b0316916308cca7e39160048083019260209291908290030181865afa158015611612573d6000803e3d6000fd5b505050506040513d601f19601f820116820180604052508101906116369190613595565b90506000816001600160a01b0316635c975abb6040518163ffffffff1660e01b8152600401602060405180830381865afa158015611678573d6000803e3d6000fd5b505050506040513d601f19601f8201168201806040525081019061169c91906135c2565b905080156116bc5760405162461bcd60e51b815260040161062c906135dd565b606654604080516308cca7e360e01b815290516000926001600160a01b0316916308cca7e39160048083019260209291908290030181865afa158015611706573d6000803e3d6000fd5b505050506040513d601f19601f8201168201806040525081019061172a9190613595565b90506000816001600160a01b0316638da5cb5b6040518163ffffffff1660e01b8152600401602060405180830381865afa15801561176c573d6000803e3d6000fd5b505050506040513d601f19601f820116820180604052508101906117909190613595565b90506001600160a01b03811633146117de5760405162461bcd60e51b81526020600482015260116024820152702737ba103330b1ba37b93c9037bbb732b960791b604482015260640161062c565b60665460408051634be4e3dd60e01b815290516000926001600160a01b031691634be4e3dd9160048083019260209291908290030181865afa158015611828573d6000803e3d6000fd5b505050506040513d601f19601f8201168201806040525081019061184c9190613595565b60405163dff35e8360e01b8152600481018890529091506000906001600160a01b0383169063dff35e8390602401606060405180830381865afa158015611897573d6000803e3d6000fd5b505050506040513d601f19601f820116820180604052508101906118bb9190613602565b509150506118c9338261278d565b6040516323b872dd60e01b8152306004820152336024820152604481018890526001600160a01b038316906323b872dd90606401600060405180830381600087803b15801561191757600080fd5b505af115801561192b573d6000803e3d6000fd5b5050505050505050505050565b606654604080516308cca7e360e01b815290516000926001600160a01b0316916308cca7e39160048083019260209291908290030181865afa158015611982573d6000803e3d6000fd5b505050506040513d601f19601f820116820180604052508101906119a69190613595565b90506000816001600160a01b0316635c975abb6040518163ffffffff1660e01b8152600401602060405180830381865afa1580156119e8573d6000803e3d6000fd5b505050506040513d601f19601f82011682018060405250810190611a0c91906135c2565b90508015611a2c5760405162461bcd60e51b815260040161062c906135dd565b611a37843385612719565b611a41848461278d565b50505050565b606654604080516308cca7e360e01b815290516000926001600160a01b0316916308cca7e39160048083019260209291908290030181865afa158015611a91573d6000803e3d6000fd5b505050506040513d601f19601f82011682018060405250810190611ab59190613595565b90506000816001600160a01b0316635c975abb6040518163ffffffff1660e01b8152600401602060405180830381865afa158015611af7573d6000803e3d6000fd5b505050506040513d601f19601f82011682018060405250810190611b1b91906135c2565b90508015611b3b5760405162461bcd60e51b815260040161062c906135dd565b606654604080516308cca7e360e01b815290516000926001600160a01b0316916308cca7e39160048083019260209291908290030181865afa158015611b85573d6000803e3d6000fd5b505050506040513d601f19601f82011682018060405250810190611ba99190613595565b6040516311afe75f60e11b81523360048201529091506000906001600160a01b0383169063235fcebe90602401602060405180830381865afa158015611bf3573d6000803e3d6000fd5b505050506040513d601f19601f82011682018060405250810190611c1791906135c2565b905080611c545760405162461bcd60e51b815260206004820152600b60248201526a139bdd08185b1b1bddd95960aa1b604482015260640161062c565b6115c086866120fa565b6060806060611c6b611261565b60405191935091506104fc9083908390602001613a23565b60003381611c918286611f00565b905083811015611cf15760405162461bcd60e51b815260206004820152602560248201527f45524332303a2064656372656173656420616c6c6f77616e63652062656c6f77604482015264207a65726f60d81b606482015260840161062c565b611cfe8286868403611f3a565b506001949350505050565b6000826001600160a01b038116611d1f57600080fd5b306001600160a01b03821603611d3457600080fd5b606654604080516308cca7e360e01b815290516000926001600160a01b0316916308cca7e39160048083019260209291908290030181865afa158015611d7e573d6000803e3d6000fd5b505050506040513d601f19601f82011682018060405250810190611da29190613595565b90506000816001600160a01b0316635c975abb6040518163ffffffff1660e01b8152600401602060405180830381865afa158015611de4573d6000803e3d6000fd5b505050506040513d601f19601f82011682018060405250810190611e0891906135c2565b90508015611e285760405162461bcd60e51b815260040161062c906135dd565b611e3286866128d8565b5060019695505050505050565b6000611e4b60016128e6565b90508015611e63576000805461ff0019166101001790555b611e6d8585612966565b6065839055606680546001600160a01b0319166001600160a01b0384161790558015611ed3576000805461ff0019169055604051600181527f7f26b83ff96e1f2b6a682f133852f6798a09c465da95921460cefb38474024989060200160405180910390a15b5050505050565b600080611ee561047e565b9050611ef060355490565b611efa9082613679565b91505090565b6001600160a01b03918216600090815260346020908152604080832093909416825291909152205490565b6001600160a01b03163b151590565b6001600160a01b038316611f9c5760405162461bcd60e51b8152602060048201526024808201527f45524332303a20617070726f76652066726f6d20746865207a65726f206164646044820152637265737360e01b606482015260840161062c565b6001600160a01b038216611ffd5760405162461bcd60e51b815260206004820152602260248201527f45524332303a20617070726f766520746f20746865207a65726f206164647265604482015261737360f01b606482015260840161062c565b6001600160a01b0383811660008181526034602090815260408083209487168084529482529182902085905590518481527f8c5be1e5ebec7d5bd14f71427d1e84f3dd0314c0f7b2291e5b200ac8c7c3b92591015b60405180910390a3505050565b60665460408051634be4e3dd60e01b815290516000926001600160a01b031691634be4e3dd9160048083019260209291908290030181865afa1580156120a9573d6000803e3d6000fd5b505050506040513d601f19601f820116820180604052508101906120cd9190613595565b6001600160a01b0316826001600160a01b0316036120ed57506001919050565b506000919050565b919050565b6001600160a01b0382166121505760405162461bcd60e51b815260206004820152601f60248201527f45524332303a206d696e7420746f20746865207a65726f206164647265737300604482015260640161062c565b80603560008282546121629190613a0b565b90915550506001600160a01b0382166000908152603360205260408120805483929061218f908490613a0b565b90915550506040518181526001600160a01b038316906000907fddf252ad1be2c89b69c2b068fc378daa952ba7f163c4a11628f55a4df523b3ef9060200160405180910390a35050565b336000908152606860205260408120805483919083906121fa908490613679565b909155505060665460408051635e20d0e160e01b815290516000926001600160a01b031691635e20d0e19160048083019260209291908290030181865afa158015612249573d6000803e3d6000fd5b505050506040513d601f19601f8201168201806040525081019061226d9190613595565b6065546040516313ef24f760e11b8152336004820152602481019190915260448101859052600160648201529091506001600160a01b038216906327de49ee906084016020604051808303816000875af11580156122cf573d6000803e3d6000fd5b505050506040513d601f19601f820116820180604052508101906104d09190613a70565b606654604080516308cca7e360e01b815290516000926001600160a01b0316916308cca7e39160048083019260209291908290030181865afa15801561233d573d6000803e3d6000fd5b505050506040513d601f19601f820116820180604052508101906123619190613595565b90506000816001600160a01b0316635c975abb6040518163ffffffff1660e01b8152600401602060405180830381865afa1580156123a3573d6000803e3d6000fd5b505050506040513d601f19601f820116820180604052508101906123c791906135c2565b905080156123e75760405162461bcd60e51b815260040161062c906135dd565b60665460408051635e20d0e160e01b815290516000926001600160a01b031691635e20d0e19160048083019260209291908290030181865afa158015612431573d6000803e3d6000fd5b505050506040513d601f19601f820116820180604052508101906124559190613595565b60405163163c131960e01b81529091506001600160a01b0382169063163c1319906124949033908f908f908f908f908f908f908f908f90600401613ab2565b600060405180830381600087803b1580156124ae57600080fd5b505af11580156124c2573d6000803e3d6000fd5b505050505050505050505050505050565b6000336124e1858285612719565b611cfe8585856129f8565b60006124f8838361278d565b606654604080516308cca7e360e01b815290516000926001600160a01b0316916308cca7e39160048083019260209291908290030181865afa158015612542573d6000803e3d6000fd5b505050506040513d601f19601f820116820180604052508101906125669190613595565b604051631e46922b60e31b8152600481018590529091506001600160a01b0382169063f234915890602401600060405180830381600087803b1580156125ab57600080fd5b505af11580156125bf573d6000803e3d6000fd5b505050506000606660009054906101000a90046001600160a01b03166001600160a01b0316635e20d0e16040518163ffffffff1660e01b8152600401602060405180830381865afa158015612618573d6000803e3d6000fd5b505050506040513d601f19601f8201168201806040525081019061263c9190613595565b6065546040516313ef24f760e11b81526001600160a01b038881166004830152602482019290925260448101879052600060648201529192508216906327de49ee906084016020604051808303816000875af11580156126a0573d6000803e3d6000fd5b505050506040513d601f19601f820116820180604052508101906126c49190613a70565b604080516001600160a01b0388168152602081018790529081018290529093507fb3775f672e1adf43bf7834b692675bfee4db72f83e42da8cff694ca295a89eca9060600160405180910390a1505092915050565b60006127258484611f00565b90506000198114611a4157818110156127805760405162461bcd60e51b815260206004820152601d60248201527f45524332303a20696e73756666696369656e7420616c6c6f77616e6365000000604482015260640161062c565b611a418484848403611f3a565b6001600160a01b0382166127ed5760405162461bcd60e51b815260206004820152602160248201527f45524332303a206275726e2066726f6d20746865207a65726f206164647265736044820152607360f81b606482015260840161062c565b6001600160a01b038216600090815260336020526040902054818110156128615760405162461bcd60e51b815260206004820152602260248201527f45524332303a206275726e20616d6f756e7420657863656564732062616c616e604482015261636560f01b606482015260840161062c565b6001600160a01b0383166000908152603360205260408120838303905560358054849290612890908490613679565b90915550506040518281526000906001600160a01b038516907fddf252ad1be2c89b69c2b068fc378daa952ba7f163c4a11628f55a4df523b3ef90602001612052565b505050565b6000336105208185856129f8565b60008054610100900460ff1615612925578160ff1660011480156129095750303b155b6120ed5760405162461bcd60e51b815260040161062c90613b50565b60005460ff80841691161061294c5760405162461bcd60e51b815260040161062c90613b50565b506000805460ff191660ff92909216919091179055600190565b600054610100900460ff166129d15760405162461bcd60e51b815260206004820152602b60248201527f496e697469616c697a61626c653a20636f6e7472616374206973206e6f74206960448201526a6e697469616c697a696e6760a81b606482015260840161062c565b81516129e4906036906020850190612c9b565b5080516128d3906037906020840190612c9b565b6001600160a01b038316612a5c5760405162461bcd60e51b815260206004820152602560248201527f45524332303a207472616e736665722066726f6d20746865207a65726f206164604482015264647265737360d81b606482015260840161062c565b6001600160a01b038216612abe5760405162461bcd60e51b815260206004820152602360248201527f45524332303a207472616e7366657220746f20746865207a65726f206164647260448201526265737360e81b606482015260840161062c565b6001600160a01b03831660009081526033602052604090205481811015612b365760405162461bcd60e51b815260206004820152602660248201527f45524332303a207472616e7366657220616d6f756e7420657863656564732062604482015265616c616e636560d01b606482015260840161062c565b6001600160a01b03808516600090815260336020526040808220858503905591851681529081208054849290612b6d908490613a0b565b92505081905550826001600160a01b0316846001600160a01b03167fddf252ad1be2c89b69c2b068fc378daa952ba7f163c4a11628f55a4df523b3ef84604051612bb991815260200190565b60405180910390a3611a41565b6040518061016001604052806060815260200160006001600160401b0316815260200160006001600160401b031681526020016000815260200160006001600160401b03168152602001600015158152602001600015158152602001606081526020016060815260200160608152602001606081525090565b60405180610140016040528060608152602001606081526020016060815260200160608152602001606081526020016060815260200160608152602001606081526020016060815260200160006001600160a01b031681525090565b828054612ca790613b9e565b90600052602060002090601f016020900481019282612cc95760008555612d0f565b82601f10612ce257805160ff1916838001178555612d0f565b82800160010185558215612d0f579182015b82811115612d0f578251825591602001919060010190612cf4565b50612d1b929150612d1f565b5090565b5b80821115612d1b5760008155600101612d20565b60005b83811015612d4f578181015183820152602001612d37565b83811115611a415750506000910152565b60008151808452612d78816020860160208601612d34565b601f01601f19169290920160200192915050565b6020815260006104d06020830184612d60565b6001600160a01b0381168114612db457600080fd5b50565b60008060408385031215612dca57600080fd5b8235612dd581612d9f565b946020939093013593505050565b60008083601f840112612df557600080fd5b5081356001600160401b03811115612e0c57600080fd5b602083019150836020828501011115612e2457600080fd5b9250929050565b600080600080600060808688031215612e4357600080fd5b8535612e4e81612d9f565b94506020860135612e5e81612d9f565b93506040860135925060608601356001600160401b03811115612e8057600080fd5b612e8c88828901612de3565b969995985093965092949392505050565b60006101608251818552612eb382860182612d60565b9150506020830151612ed060208601826001600160401b03169052565b506040830151612eeb60408601826001600160401b03169052565b50606083015160608501526080830151612f1060808601826001600160401b03169052565b5060a0830151612f2460a086018215159052565b5060c0830151612f3860c086018215159052565b5060e083015184820360e0860152612f508282612d60565b9150506101008084015185830382870152612f6b8382612d60565b925050506101208084015185830382870152612f878382612d60565b925050506101408084015185830382870152612fa38382612d60565b9695505050505050565b6040815260008351610140806040850152612fcc610180850183612d60565b91506020860151603f1980868503016060870152612fea8483612d60565b935060408801519150808685030160808701526130078483612d60565b935060608801519150808685030160a08701526130248483612d60565b935060808801519150808685030160c08701526130418483612d60565b935060a08801519150808685030160e087015261305e8483612d60565b935060c0880151915061010081878603018188015261307d8584612d60565b945060e0890151925061012082888703018189015261309c8685612d60565b9550818a015193508288870301858901526130b78685612d60565b9550808a01519450505050506130d96101608501826001600160a01b03169052565b5082810360208401526113a08185612e9d565b60008060008060008060008060a0898b03121561310857600080fd5b88356001600160401b038082111561311f57600080fd5b61312b8c838d01612de3565b909a50985060208b0135915061314082612d9f565b90965060408a0135908082111561315657600080fd5b6131628c838d01612de3565b909750955060608b013591508082111561317b57600080fd5b506131888b828c01612de3565b999c989b50969995989497949560800135949350505050565b6000806000606084860312156131b657600080fd5b83356131c181612d9f565b925060208401356131d181612d9f565b929592945050506040919091013590565b6000602082840312156131f457600080fd5b5035919050565b60408152600061320e6040830185612d60565b82810360208401526113a08185612d60565b60006020828403121561323257600080fd5b81356104d081612d9f565b634e487b7160e01b600052604160045260246000fd5b60405161016081016001600160401b03811182821017156132765761327661323d565b60405290565b60405161014081016001600160401b03811182821017156132765761327661323d565b604051601f8201601f191681016001600160401b03811182821017156132c7576132c761323d565b604052919050565b60006001600160401b038211156132e8576132e861323d565b50601f01601f191660200190565b600082601f83011261330757600080fd5b813561331a613315826132cf565b61329f565b81815284602083860101111561332f57600080fd5b816020850160208301376000918101602001919091529392505050565b6000806000806080858703121561336257600080fd5b84356001600160401b038082111561337957600080fd5b613385888389016132f6565b9550602087013591508082111561339b57600080fd5b506133a8878288016132f6565b9350506040850135915060608501356133c081612d9f565b939692955090935050565b600080604083850312156133de57600080fd5b82356133e981612d9f565b915060208301356133f981612d9f565b809150509250929050565b634e487b7160e01b600052601160045260246000fd5b600181815b8085111561345557816000190482111561343b5761343b613404565b8085161561344857918102915b93841c939080029061341f565b509250929050565b60008261346c57506001610526565b8161347957506000610526565b816001811461348f5760028114613499576134b5565b6001915050610526565b60ff8411156134aa576134aa613404565b50506001821b610526565b5060208310610133831016604e8410600b84101617156134d8575081810a610526565b6134e2838361341a565b80600019048211156134f6576134f6613404565b029392505050565b60006104d060ff84168361345d565b600081600019048311821515161561352757613527613404565b500290565b75546f7563616e2050726f746f636f6c3a2054434f322d60501b81526000835161355d816016850160208801612d34565b602d60f81b601691840191820152835161357e816017840160208801612d34565b01601701949350505050565b80516120f581612d9f565b6000602082840312156135a757600080fd5b81516104d081612d9f565b805180151581146120f557600080fd5b6000602082840312156135d457600080fd5b6104d0826135b2565b6020808252600b908201526a2830bab9b2b2102a21a79960a91b604082015260600190565b60008060006060848603121561361757600080fd5b835192506020840151915060408401516003811061363457600080fd5b809150509250925092565b634e487b7160e01b600052602160045260246000fd5b6000806040838503121561366857600080fd5b505080516020909101519092909150565b60008282101561368b5761368b613404565b500390565b600082601f8301126136a157600080fd5b81516136af613315826132cf565b8181528460208386010111156136c457600080fd5b611237826020830160208701612d34565b80516001600160401b03811681146120f557600080fd5b6000602082840312156136fe57600080fd5b81516001600160401b038082111561371557600080fd5b90830190610160828603121561372a57600080fd5b613732613253565b82518281111561374157600080fd5b61374d87828601613690565b82525061375c602084016136d5565b602082015261376d604084016136d5565b604082015260608301516060820152613788608084016136d5565b608082015261379960a084016135b2565b60a08201526137aa60c084016135b2565b60c082015260e0830151828111156137c157600080fd5b6137cd87828601613690565b60e08301525061010080840151838111156137e757600080fd5b6137f388828701613690565b828401525050610120808401518381111561380d57600080fd5b61381988828701613690565b828401525050610140808401518381111561383357600080fd5b61383f88828701613690565b918301919091525095945050505050565b60006020828403121561386257600080fd5b81516001600160401b038082111561387957600080fd5b90830190610140828603121561388e57600080fd5b61389661327c565b8251828111156138a557600080fd5b6138b187828601613690565b8252506020830151828111156138c657600080fd5b6138d287828601613690565b6020830152506040830151828111156138ea57600080fd5b6138f687828601613690565b60408301525060608301518281111561390e57600080fd5b61391a87828601613690565b60608301525060808301518281111561393257600080fd5b61393e87828601613690565b60808301525060a08301518281111561395657600080fd5b61396287828601613690565b60a08301525060c08301518281111561397a57600080fd5b61398687828601613690565b60c08301525060e08301518281111561399e57600080fd5b6139aa87828601613690565b60e08301525061010080840151838111156139c457600080fd5b6139d088828701613690565b82840152505061012091506139e682840161358a565b91810191909152949350505050565b634e487b7160e01b600052603260045260246000fd5b60008219821115613a1e57613a1e613404565b500190565b6454434f322d60d81b815260008351613a43816005850160208801612d34565b602d60f81b6005918401918201528351613a64816006840160208801612d34565b01600601949350505050565b600060208284031215613a8257600080fd5b5051919050565b81835281816020850137506000828201602090810191909152601f909101601f19169091010190565b600060018060a01b03808c168352602060c081850152613ad660c085018c8e613a89565b828b1660408601528481036060860152613af1818a8c613a89565b9250508382036080850152613b07828789613a89565b84810360a0860152855180825282870193509082019060005b81811015613b3c57845183529383019391830191600101613b20565b50909e9d5050505050505050505050505050565b6020808252602e908201527f496e697469616c697a61626c653a20636f6e747261637420697320616c72656160408201526d191e481a5b9a5d1a585b1a5e995960921b606082015260800190565b600181811c90821680613bb257607f821691505b602082108103613bd257634e487b7160e01b600052602260045260246000fd5b5091905056fea2646970667358221220338627fd157b11759f9944aab4c34cb8b0365c26b5b7f5ebfed8b13818d13ee364736f6c634300080e0033496e697469616c697a61626c653a20636f6e747261637420697320616c726561",
  "devdoc": {
    "details": "Each TCO2 contract is deployed via a Beacon Proxy in `ToucanCarbonOffsetsFactory`",
    "kind": "dev",
    "methods": {
      "allowance(address,address)": {
        "details": "See {IERC20-allowance}."
      },
      "approve(address,uint256)": {
        "details": "See {IERC20-approve}. NOTE: If `amount` is the maximum `uint256`, the allowance is not updated on `transferFrom`. This is semantically equivalent to an infinite approval. Requirements: - `spender` cannot be the zero address."
      },
      "balanceOf(address)": {
        "details": "See {IERC20-balanceOf}."
      },
      "bridgeBurn(address,uint256)": {
        "params": {
          "account": "The user for whom to burn TCO2",
          "amount": "The amount to burn."
        }
      },
      "bridgeMint(address,uint256)": {
        "params": {
          "account": "The user for whom to mint TCO2",
          "amount": "The amount to mint."
        }
      },
      "burnFrom(address,uint256)": {
        "params": {
          "account": "The user for whom to burn TCO2",
          "amount": "The amount to burn"
        }
      },
      "constructor": {
        "custom:oz-upgrades-unsafe-allow": "constructor"
      },
      "decimals()": {
        "details": "Returns the number of decimals used to get its user representation. For example, if `decimals` equals `2`, a balance of `505` tokens should be displayed to a user as `5.05` (`505 / 10 ** 2`). Tokens usually opt for a value of 18, imitating the relationship between Ether and Wei. This is the value {ERC20} uses, unless this function is overridden; NOTE: This information is only used for _display_ purposes: it in no way affects any of the arithmetic of the contract, including {IERC20-balanceOf} and {IERC20-transfer}."
      },
      "decreaseAllowance(address,uint256)": {
        "details": "Atomically decreases the allowance granted to `spender` by the caller. This is an alternative to {approve} that can be used as a mitigation for problems described in {IERC20-approve}. Emits an {Approval} event indicating the updated allowance. Requirements: - `spender` cannot be the zero address. - `spender` must have allowance for the caller of at least `subtractedValue`."
      },
      "defractionalize(uint256)": {
        "params": {
          "tokenId": "The batch NFT to defractionalize from the TCO2"
        }
      },
      "getAttributes()": {
        "details": "Function to get corresponding attributes from the CarbonProjects"
      },
      "getDepositCap()": {
        "details": "Returns the cap for TCO2s based on `totalVintageQuantity` Returns `~unlimited` if the value for the vintage is not set"
      },
      "getGlobalProjectVintageIdentifiers()": {
        "details": "Helper function to retrieve data fragments for `name()` and `symbol()`"
      },
      "getRemaining()": {
        "details": "Returns the remaining space in TCO2 contract before hitting the cap"
      },
      "increaseAllowance(address,uint256)": {
        "details": "Atomically increases the allowance granted to `spender` by the caller. This is an alternative to {approve} that can be used as a mitigation for problems described in {IERC20-approve}. Emits an {Approval} event indicating the updated allowance. Requirements: - `spender` cannot be the zero address."
      },
      "mintCertificateLegacy(string,address,string,string,uint256)": {
        "params": {
          "amount": "The amount to issue an NFT certificate for.",
          "beneficiary": "The beneficiary to set in the NFT.",
          "beneficiaryString": "The beneficiaryString to set in the NFT.",
          "retirementMessage": "The retirementMessage to set in the NFT.",
          "retiringEntityString": "An identifiable string for the retiring entity, eg. their name."
        }
      },
      "onERC721Received(address,address,uint256,bytes)": {
        "details": "Function is called with `operator` as `msg.sender` in a reference implementation by OZ `from` is the previous owner, not necessarily the same as operator. The hook checks if NFT collection is whitelisted and next if attributes are matching this ERC20 contract"
      },
      "retireAndMintCertificate(string,address,string,string,uint256)": {
        "params": {
          "amount": "The amount to retire and issue an NFT certificate for.",
          "beneficiary": "The beneficiary to set in the NFT.",
          "beneficiaryString": "The beneficiaryString to set in the NFT.",
          "retirementMessage": "The retirementMessage to set in the NFT.",
          "retiringEntityString": "An identifiable string for the retiring entity, eg. their name."
        }
      },
      "retireFrom(address,uint256)": {
        "details": "Allow for pools or third party contracts to retire for the user Requires approval"
      },
      "totalSupply()": {
        "details": "See {IERC20-totalSupply}."
      }
    },
    "stateVariables": {
      "VERSION": {
        "details": "auto-created getter VERSION() returns the current version of the smart contract"
      }
    },
    "version": 1
  },
  "userdoc": {
    "kind": "user",
    "methods": {
      "bridgeBurn(address,uint256)": {
        "notice": "Burn TCO2 on behalf of a user. msg.sender does not require approval by the account for the burn to be successfull. This function is exposed so it can be utilized in cross-chain transfers of TCO2 where we want to burn the TCO2 in the source chain but not retire it."
      },
      "bridgeMint(address,uint256)": {
        "notice": "Mint TCO2 on behalf of a user. This function is exposed to be called by authorized message bridge systems and utilized for cross-chain transfers of TCO2 where we want to mint the TCO2 in the source chain."
      },
      "burnFrom(address,uint256)": {
        "notice": "Burn TCO2 on behalf of a user. msg.sender needs to be approved by the account for the burn to be successfull. This function is exposed so it can be utilized to burn credits without retiring them (eg. dispose HFC-23)."
      },
      "defractionalize(uint256)": {
        "notice": "Defractionalize batch NFT by burning the amount of TCO2 from the sender and transfer the batch NFT that was selected to the sender. The only valid sender currently is the TCO2 factory owner."
      },
      "mintCertificateLegacy(string,address,string,string,uint256)": {
        "notice": "Mint an NFT showing how many tonnes of CO2 have been retired/cancelled amount is deprecated and used only for backwards-compatibility reasons Going forward users should mint NFT directly in the RetirementCertificates contract."
      },
      "name()": {
        "notice": "Token name getter overriden to return the a name based on the carbon project data"
      },
      "onERC721Received(address,address,uint256,bytes)": {
        "notice": "Receive hook to fractionalize Batch-NFTs into ERC20's"
      },
      "retire(uint256)": {
        "notice": "Retirement/Cancellation of TCO2 tokens (the actual offsetting), which results in the tokens being burnt"
      },
      "retireAndMintCertificate(string,address,string,string,uint256)": {
        "notice": "Retire an amount of TCO2s, register an retirement event then mint a certificate passing a single retirementEventId."
      },
      "symbol()": {
        "notice": "Token symbol getter overriden to return the a symbol based on the carbon project data"
      }
    },
    "notice": "Implementation contract of the TCO2 tokens (ERC20) These tokenized carbon offsets are specific to a vintage and its associated attributes In order to mint TCO2s a user must deposit a matching CarbonOffsetBatch",
    "version": 1
  },
  "storageLayout": {
    "storage": [
      {
        "astId": 1489,
        "contract": "contracts/ToucanCarbonOffsets.sol:ToucanCarbonOffsets",
        "label": "_initialized",
        "offset": 0,
        "slot": "0",
        "type": "t_uint8"
      },
      {
        "astId": 1492,
        "contract": "contracts/ToucanCarbonOffsets.sol:ToucanCarbonOffsets",
        "label": "_initializing",
        "offset": 1,
        "slot": "0",
        "type": "t_bool"
      },
      {
        "astId": 4534,
        "contract": "contracts/ToucanCarbonOffsets.sol:ToucanCarbonOffsets",
        "label": "__gap",
        "offset": 0,
        "slot": "1",
        "type": "t_array(t_uint256)50_storage"
      },
      {
        "astId": 1890,
        "contract": "contracts/ToucanCarbonOffsets.sol:ToucanCarbonOffsets",
        "label": "_balances",
        "offset": 0,
        "slot": "51",
        "type": "t_mapping(t_address,t_uint256)"
      },
      {
        "astId": 1896,
        "contract": "contracts/ToucanCarbonOffsets.sol:ToucanCarbonOffsets",
        "label": "_allowances",
        "offset": 0,
        "slot": "52",
        "type": "t_mapping(t_address,t_mapping(t_address,t_uint256))"
      },
      {
        "astId": 1898,
        "contract": "contracts/ToucanCarbonOffsets.sol:ToucanCarbonOffsets",
        "label": "_totalSupply",
        "offset": 0,
        "slot": "53",
        "type": "t_uint256"
      },
      {
        "astId": 1900,
        "contract": "contracts/ToucanCarbonOffsets.sol:ToucanCarbonOffsets",
        "label": "_name",
        "offset": 0,
        "slot": "54",
        "type": "t_string_storage"
      },
      {
        "astId": 1902,
        "contract": "contracts/ToucanCarbonOffsets.sol:ToucanCarbonOffsets",
        "label": "_symbol",
        "offset": 0,
        "slot": "55",
        "type": "t_string_storage"
      },
      {
        "astId": 2481,
        "contract": "contracts/ToucanCarbonOffsets.sol:ToucanCarbonOffsets",
        "label": "__gap",
        "offset": 0,
        "slot": "56",
        "type": "t_array(t_uint256)45_storage"
      },
      {
        "astId": 11746,
        "contract": "contracts/ToucanCarbonOffsets.sol:ToucanCarbonOffsets",
        "label": "projectVintageTokenId",
        "offset": 0,
        "slot": "101",
        "type": "t_uint256"
      },
      {
        "astId": 11748,
        "contract": "contracts/ToucanCarbonOffsets.sol:ToucanCarbonOffsets",
        "label": "contractRegistry",
        "offset": 0,
        "slot": "102",
        "type": "t_address"
      },
      {
        "astId": 11752,
        "contract": "contracts/ToucanCarbonOffsets.sol:ToucanCarbonOffsets",
        "label": "minterToId",
        "offset": 0,
        "slot": "103",
        "type": "t_mapping(t_address,t_uint256)"
      },
      {
        "astId": 11757,
        "contract": "contracts/ToucanCarbonOffsets.sol:ToucanCarbonOffsets",
        "label": "retiredAmount",
        "offset": 0,
        "slot": "104",
        "type": "t_mapping(t_address,t_uint256)"
      }
    ],
    "types": {
      "t_address": {
        "encoding": "inplace",
        "label": "address",
        "numberOfBytes": "20"
      },
      "t_array(t_uint256)45_storage": {
        "base": "t_uint256",
        "encoding": "inplace",
        "label": "uint256[45]",
        "numberOfBytes": "1440"
      },
      "t_array(t_uint256)50_storage": {
        "base": "t_uint256",
        "encoding": "inplace",
        "label": "uint256[50]",
        "numberOfBytes": "1600"
      },
      "t_bool": {
        "encoding": "inplace",
        "label": "bool",
        "numberOfBytes": "1"
      },
      "t_mapping(t_address,t_mapping(t_address,t_uint256))": {
        "encoding": "mapping",
        "key": "t_address",
        "label": "mapping(address => mapping(address => uint256))",
        "numberOfBytes": "32",
        "value": "t_mapping(t_address,t_uint256)"
      },
      "t_mapping(t_address,t_uint256)": {
        "encoding": "mapping",
        "key": "t_address",
        "label": "mapping(address => uint256)",
        "numberOfBytes": "32",
        "value": "t_uint256"
      },
      "t_string_storage": {
        "encoding": "bytes",
        "label": "string",
        "numberOfBytes": "32"
      },
      "t_uint256": {
        "encoding": "inplace",
        "label": "uint256",
        "numberOfBytes": "32"
      },
      "t_uint8": {
        "encoding": "inplace",
        "label": "uint8",
        "numberOfBytes": "1"
      }
    }
  }
}