{
  "address": "0x2359677E513Bc83106268514c5B2De3C29C849ea",
  "abi": [
    {
      "anonymous": false,
      "inputs": [
        {
          "indexed": false,
          "internalType": "address",
          "name": "previousAdmin",
          "type": "address"
        },
        {
          "indexed": false,
          "internalType": "address",
          "name": "newAdmin",
          "type": "address"
        }
      ],
      "name": "AdminChanged",
      "type": "event"
    },
    {
      "anonymous": false,
      "inputs": [
        {
          "indexed": true,
          "internalType": "address",
          "name": "beacon",
          "type": "address"
        }
      ],
      "name": "BeaconUpgraded",
      "type": "event"
    },
    {
      "anonymous": false,
      "inputs": [
        {
          "indexed": true,
          "internalType": "address",
          "name": "previousOwner",
          "type": "address"
        },
        {
          "indexed": true,
          "internalType": "address",
          "name": "newOwner",
          "type": "address"
        }
      ],
      "name": "OwnershipTransferred",
      "type": "event"
    },
    {
      "anonymous": false,
      "inputs": [
        {
          "indexed": false,
          "internalType": "address",
          "name": "account",
          "type": "address"
        }
      ],
      "name": "Paused",
      "type": "event"
    },
    {
      "anonymous": false,
      "inputs": [
        {
          "indexed": false,
          "internalType": "uint256",
          "name": "vintageTokenId",
          "type": "uint256"
        },
        {
          "indexed": false,
          "internalType": "address",
          "name": "tokenAddress",
          "type": "address"
        }
      ],
      "name": "TokenCreated",
      "type": "event"
    },
    {
      "anonymous": false,
      "inputs": [
        {
          "indexed": false,
          "internalType": "address",
          "name": "account",
          "type": "address"
        }
      ],
      "name": "Unpaused",
      "type": "event"
    },
    {
      "anonymous": false,
      "inputs": [
        {
          "indexed": true,
          "internalType": "address",
          "name": "implementation",
          "type": "address"
        }
      ],
      "name": "Upgraded",
      "type": "event"
    },
    {
      "inputs": [],
      "name": "beacon",
      "outputs": [
        {
          "internalType": "address",
          "name": "",
          "type": "address"
        }
      ],
      "stateMutability": "view",
      "type": "function"
    },
    {
      "inputs": [],
      "name": "bridgeFeeBurnAddress",
      "outputs": [
        {
          "internalType": "address",
          "name": "",
          "type": "address"
        }
      ],
      "stateMutability": "view",
      "type": "function"
    },
    {
      "inputs": [],
      "name": "bridgeFeeBurnPercentageInBase",
      "outputs": [
        {
          "internalType": "uint256",
          "name": "",
          "type": "uint256"
        }
      ],
      "stateMutability": "view",
      "type": "function"
    },
    {
      "inputs": [],
      "name": "bridgeFeeDivider",
      "outputs": [
        {
          "internalType": "uint256",
          "name": "",
          "type": "uint256"
        }
      ],
      "stateMutability": "view",
      "type": "function"
    },
    {
      "inputs": [],
      "name": "bridgeFeePercentageInBase",
      "outputs": [
        {
          "internalType": "uint256",
          "name": "",
          "type": "uint256"
        }
      ],
      "stateMutability": "view",
      "type": "function"
    },
    {
      "inputs": [],
      "name": "bridgeFeeReceiver",
      "outputs": [
        {
          "internalType": "address",
          "name": "",
          "type": "address"
        }
      ],
      "stateMutability": "view",
      "type": "function"
    },
    {
      "inputs": [],
      "name": "bridgeFeeReceiverAddress",
      "outputs": [
        {
          "internalType": "address",
          "name": "",
          "type": "address"
        }
      ],
      "stateMutability": "view",
      "type": "function"
    },
    {
      "inputs": [],
      "name": "contractRegistry",
      "outputs": [
        {
          "internalType": "address",
          "name": "",
          "type": "address"
        }
      ],
      "stateMutability": "view",
      "type": "function"
    },
    {
      "inputs": [
        {
          "internalType": "uint256",
          "name": "projectVintageTokenId",
          "type": "uint256"
        }
      ],
      "name": "deployFromVintage",
      "outputs": [],
      "stateMutability": "nonpayable",
      "type": "function"
    },
    {
      "inputs": [
        {
          "internalType": "uint256",
          "name": "",
          "type": "uint256"
        }
      ],
      "name": "deployedContracts",
      "outputs": [
        {
          "internalType": "address",
          "name": "",
          "type": "address"
        }
      ],
      "stateMutability": "view",
      "type": "function"
    },
    {
      "inputs": [
        {
          "internalType": "uint256",
          "name": "_quantity",
          "type": "uint256"
        }
      ],
      "name": "getBridgeFeeAndBurnAmount",
      "outputs": [
        {
          "internalType": "uint256",
          "name": "",
          "type": "uint256"
        },
        {
          "internalType": "uint256",
          "name": "",
          "type": "uint256"
        }
      ],
      "stateMutability": "view",
      "type": "function"
    },
    {
      "inputs": [],
      "name": "getContracts",
      "outputs": [
        {
          "internalType": "address[]",
          "name": "",
          "type": "address[]"
        }
      ],
      "stateMutability": "view",
      "type": "function"
    },
    {
      "inputs": [
        {
          "internalType": "uint256",
          "name": "amount",
          "type": "uint256"
        }
      ],
      "name": "increaseTotalRetired",
      "outputs": [],
      "stateMutability": "nonpayable",
      "type": "function"
    },
    {
      "inputs": [
        {
          "internalType": "address",
          "name": "_contractRegistry",
          "type": "address"
        }
      ],
      "name": "initialize",
      "outputs": [],
      "stateMutability": "nonpayable",
      "type": "function"
    },
    {
      "inputs": [],
      "name": "owner",
      "outputs": [
        {
          "internalType": "address",
          "name": "",
          "type": "address"
        }
      ],
      "stateMutability": "view",
      "type": "function"
    },
    {
      "inputs": [],
      "name": "pause",
      "outputs": [],
      "stateMutability": "nonpayable",
      "type": "function"
    },
    {
      "inputs": [],
      "name": "paused",
      "outputs": [
        {
          "internalType": "bool",
          "name": "",
          "type": "bool"
        }
      ],
      "stateMutability": "view",
      "type": "function"
    },
    {
      "inputs": [
        {
          "internalType": "uint256",
          "name": "",
          "type": "uint256"
        }
      ],
      "name": "pvIdtoERC20",
      "outputs": [
        {
          "internalType": "address",
          "name": "",
          "type": "address"
        }
      ],
      "stateMutability": "view",
      "type": "function"
    },
    {
      "inputs": [],
      "name": "renounceOwnership",
      "outputs": [],
      "stateMutability": "nonpayable",
      "type": "function"
    },
    {
      "inputs": [
        {
          "internalType": "address",
          "name": "_beacon",
          "type": "address"
        }
      ],
      "name": "setBeacon",
      "outputs": [],
      "stateMutability": "nonpayable",
      "type": "function"
    },
    {
      "inputs": [
        {
          "internalType": "address",
          "name": "_bridgeFeeBurnAddress",
          "type": "address"
        }
      ],
      "name": "setBridgeFeeBurnAddress",
      "outputs": [],
      "stateMutability": "nonpayable",
      "type": "function"
    },
    {
      "inputs": [
        {
          "internalType": "uint256",
          "name": "_bridgeFeeBurnPercentageInBase",
          "type": "uint256"
        }
      ],
      "name": "setBridgeFeeBurnPercentage",
      "outputs": [],
      "stateMutability": "nonpayable",
      "type": "function"
    },
    {
      "inputs": [
        {
          "internalType": "uint256",
          "name": "_bridgeFeePercentageInBase",
          "type": "uint256"
        }
      ],
      "name": "setBridgeFeePercentage",
      "outputs": [],
      "stateMutability": "nonpayable",
      "type": "function"
    },
    {
      "inputs": [
        {
          "internalType": "address",
          "name": "_bridgeFeeReceiver",
          "type": "address"
        }
      ],
      "name": "setBridgeFeeReceiver",
      "outputs": [],
      "stateMutability": "nonpayable",
      "type": "function"
    },
    {
      "inputs": [
        {
          "internalType": "address",
          "name": "_address",
          "type": "address"
        }
      ],
      "name": "setToucanContractRegistry",
      "outputs": [],
      "stateMutability": "nonpayable",
      "type": "function"
    },
    {
      "inputs": [],
      "name": "totalRetired",
      "outputs": [
        {
          "internalType": "uint256",
          "name": "",
          "type": "uint256"
        }
      ],
      "stateMutability": "view",
      "type": "function"
    },
    {
      "inputs": [
        {
          "internalType": "address",
          "name": "newOwner",
          "type": "address"
        }
      ],
      "name": "transferOwnership",
      "outputs": [],
      "stateMutability": "nonpayable",
      "type": "function"
    },
    {
      "inputs": [],
      "name": "unpause",
      "outputs": [],
      "stateMutability": "nonpayable",
      "type": "function"
    },
    {
      "inputs": [
        {
          "internalType": "address",
          "name": "newImplementation",
          "type": "address"
        }
      ],
      "name": "upgradeTo",
      "outputs": [],
      "stateMutability": "nonpayable",
      "type": "function"
    },
    {
      "inputs": [
        {
          "internalType": "address",
          "name": "newImplementation",
          "type": "address"
        },
        {
          "internalType": "bytes",
          "name": "data",
          "type": "bytes"
        }
      ],
      "name": "upgradeToAndCall",
      "outputs": [],
      "stateMutability": "payable",
      "type": "function"
    },
    {
      "inputs": [],
      "name": "version",
      "outputs": [
        {
          "internalType": "string",
          "name": "",
          "type": "string"
        }
      ],
      "stateMutability": "pure",
      "type": "function"
    }
  ],
  "transactionHash": "0x937d65ea1008330745ff37c66e0d35cdcde56970730bdc1c2d8067dd406d9710",
  "args": [],
  "numDeployments": 2,
  "solcInputHash": "540291ad551f0905c6e97bcf0f797b18",
  "bytecode": "0x60a06040523060601b60805234801561001757600080fd5b5060805160601c612b4c61004b6000396000818161075b015281816107e2015281816109890152610a100152612b4c6000f3fe608060405260043610620001ff5760003560e01c80638891792a1162000117578063d42afb5611620000a1578063f2349158116200006c578063f234915814620005ca578063f2fde38b14620005ef578063f379a5a21462000614578063f8513c62146200064f57600080fd5b8063d42afb561462000542578063dee02cba1462000567578063e60b6da8146200058c578063e882e37b14620005a557600080fd5b8063abf410e511620000e2578063abf410e514620004af578063b3b6014214620004d1578063c3a2a93a14620004f6578063c4d66de8146200051d57600080fd5b80638891792a14620004395780638da5cb5b1462000451578063936d8e2414620004715780639ad1ee10146200048a57600080fd5b8063581cd11011620001995780636a0031cc11620001645780636a0031cc14620003c4578063715018a614620003e957806380e2d3f014620004015780638456cb59146200042157600080fd5b8063581cd110146200030757806359659e9014620003435780635c975abb14620003655780635e813d3c146200038a57600080fd5b80633f4ba83a11620001da5780633f4ba83a14620002755780634d8f59f0146200028d5780634f1ef28614620002b957806354fd4d5014620002d057600080fd5b8063056195a714620002045780632626c3be146200022b5780633659cfe61462000250575b600080fd5b3480156200021157600080fd5b50620002296200022336600462001e31565b62000671565b005b3480156200023857600080fd5b50620002296200024a36600462001e31565b620006e3565b3480156200025d57600080fd5b50620002296200026f36600462001e31565b62000750565b3480156200028257600080fd5b5062000229620008d5565b3480156200029a57600080fd5b50620002a66101035481565b6040519081526020015b60405180910390f35b62000229620002ca36600462001e6f565b6200097e565b348015620002dd57600080fd5b5060408051808201825260058152640312e312e360dc1b60208201529051620002b091906200203c565b3480156200031457600080fd5b50610101546200032a906001600160a01b031681565b6040516001600160a01b039091168152602001620002b0565b3480156200035057600080fd5b5060fe546200032a906001600160a01b031681565b3480156200037257600080fd5b5060685460ff166040519015158152602001620002b0565b3480156200039757600080fd5b506200032a620003a936600462001f5c565b6002602052600090815260409020546001600160a01b031681565b348015620003d157600080fd5b5062000229620003e336600462001f5c565b62000af0565b348015620003f657600080fd5b506200022962000bba565b3480156200040e57600080fd5b5060ff546001600160a01b03166200032a565b3480156200042e57600080fd5b506200022962000c13565b3480156200044657600080fd5b50620002a661271081565b3480156200045e57600080fd5b506036546001600160a01b03166200032a565b3480156200047e57600080fd5b50620002a66101025481565b3480156200049757600080fd5b506200032a620004a936600462001f5c565b62000cb8565b348015620004bc57600080fd5b506000546200032a906001600160a01b031681565b348015620004de57600080fd5b5062000229620004f036600462001f5c565b62000ce3565b3480156200050357600080fd5b506200050e62000d36565b604051620002b0919062001fed565b3480156200052a57600080fd5b50620002296200053c36600462001e31565b62000d9a565b3480156200054f57600080fd5b50620002296200056136600462001e31565b62000ea1565b3480156200057457600080fd5b50620002296200058636600462001f5c565b62000f0e565b3480156200059957600080fd5b50620002a66101005481565b348015620005b257600080fd5b5062000229620005c436600462001e31565b62000fd8565b348015620005d757600080fd5b5062000229620005e936600462001f5c565b62001045565b348015620005fc57600080fd5b50620002296200060e36600462001e31565b6200114a565b3480156200062157600080fd5b50620006396200063336600462001f5c565b62001207565b60408051928352602083019190915201620002b0565b3480156200065c57600080fd5b5060ff546200032a906001600160a01b031681565b6036546001600160a01b03163314620006c05760405162461bcd60e51b8152602060048201819052602482015260008051602062002aa783398151915260448201526064015b60405180910390fd5b61010180546001600160a01b0319166001600160a01b0392909216919091179055565b6036546001600160a01b031633146200072e5760405162461bcd60e51b8152602060048201819052602482015260008051602062002aa78339815191526044820152606401620006b7565b60ff80546001600160a01b0319166001600160a01b0392909216919091179055565b306001600160a01b037f0000000000000000000000000000000000000000000000000000000000000000161415620007e05760405162461bcd60e51b815260206004820152602c60248201527f46756e6374696f6e206d7573742062652063616c6c6564207468726f7567682060448201526b19195b1959d85d1958d85b1b60a21b6064820152608401620006b7565b7f00000000000000000000000000000000000000000000000000000000000000006001600160a01b03166200083c7f360894a13ba1a3210667c828492db98dca3e2076cc3735a920a3ca505d382bbc546001600160a01b031690565b6001600160a01b031614620008a95760405162461bcd60e51b815260206004820152602c60248201527f46756e6374696f6e206d7573742062652063616c6c6564207468726f7567682060448201526b6163746976652070726f787960a01b6064820152608401620006b7565b620008b48162001260565b60408051600080825260208201909252620008d291839190620012ab565b50565b6000546001600160a01b0316620008f46036546001600160a01b031690565b6001600160a01b0382163314806200091457506001600160a01b03811633145b620009705760405162461bcd60e51b815260206004820152602560248201527f43616c6c6572206973206e6f74207468652072656769737472792c206e6f722060448201526437bbb732b960d91b6064820152608401620006b7565b6200097a6200144f565b5050565b306001600160a01b037f000000000000000000000000000000000000000000000000000000000000000016141562000a0e5760405162461bcd60e51b815260206004820152602c60248201527f46756e6374696f6e206d7573742062652063616c6c6564207468726f7567682060448201526b19195b1959d85d1958d85b1b60a21b6064820152608401620006b7565b7f00000000000000000000000000000000000000000000000000000000000000006001600160a01b031662000a6a7f360894a13ba1a3210667c828492db98dca3e2076cc3735a920a3ca505d382bbc546001600160a01b031690565b6001600160a01b03161462000ad75760405162461bcd60e51b815260206004820152602c60248201527f46756e6374696f6e206d7573742062652063616c6c6564207468726f7567682060448201526b6163746976652070726f787960a01b6064820152608401620006b7565b62000ae28262001260565b6200097a82826001620012ab565b6036546001600160a01b0316331462000b3b5760405162461bcd60e51b8152602060048201819052602482015260008051602062002aa78339815191526044820152606401620006b7565b612710811062000bb45760405162461bcd60e51b815260206004820152603b60248201527f627269646765206665652070657263656e74616765206d757374206265206c6f60448201527f776572207468616e2062726964676520666565206469766964657200000000006064820152608401620006b7565b61010055565b6036546001600160a01b0316331462000c055760405162461bcd60e51b8152602060048201819052602482015260008051602062002aa78339815191526044820152606401620006b7565b62000c116000620014ed565b565b6000546001600160a01b031662000c326036546001600160a01b031690565b6001600160a01b03821633148062000c5257506001600160a01b03811633145b62000cae5760405162461bcd60e51b815260206004820152602560248201527f43616c6c6572206973206e6f74207468652072656769737472792c206e6f722060448201526437bbb732b960d91b6064820152608401620006b7565b6200097a6200153f565b6001818154811062000cc957600080fd5b6000918252602090912001546001600160a01b0316905081565b60685460ff161562000d2b5760405162461bcd60e51b815260206004820152601060248201526f14185d5cd8589b194e881c185d5cd95960821b6044820152606401620006b7565b620008d281620015bd565b6060600180548060200260200160405190810160405280929190818152602001828054801562000d9057602002820191906000526020600020905b81546001600160a01b0316815260019091019060200180831162000d71575b5050505050905090565b600354610100900460ff1662000db75760035460ff161562000dbb565b303b155b62000e2f5760405162461bcd60e51b815260206004820152602e60248201527f496e697469616c697a61626c653a20636f6e747261637420697320616c72656160448201527f647920696e697469616c697a65640000000000000000000000000000000000006064820152608401620006b7565b600354610100900460ff1615801562000e52576003805461ffff19166101011790555b62000e5c6200191b565b62000e6662001988565b62000e7062001a00565b600080546001600160a01b0319166001600160a01b03841617905580156200097a576003805461ff00191690555050565b6036546001600160a01b0316331462000eec5760405162461bcd60e51b8152602060048201819052602482015260008051602062002aa78339815191526044820152606401620006b7565b60fe80546001600160a01b0319166001600160a01b0392909216919091179055565b6036546001600160a01b0316331462000f595760405162461bcd60e51b8152602060048201819052602482015260008051602062002aa78339815191526044820152606401620006b7565b612710811062000fd25760405162461bcd60e51b815260206004820152603960248201527f6275726e206665652070657263656e74616765206d757374206265206c6f776560448201527f72207468616e20627269646765206665652064697669646572000000000000006064820152608401620006b7565b61010255565b6036546001600160a01b03163314620010235760405162461bcd60e51b8152602060048201819052602482015260008051602062002aa78339815191526044820152606401620006b7565b600080546001600160a01b0319166001600160a01b0392909216919091179055565b6000805460405163787d871360e01b81523360048201526001600160a01b039091169063787d87139060240160206040518083038186803b1580156200108a57600080fd5b505afa1580156200109f573d6000803e3d6000fd5b505050506040513d601f19601f82011682018060405250810190620010c5919062001f3a565b90508080620010de57506036546001600160a01b031633145b6200112c5760405162461bcd60e51b815260206004820152600e60248201527f496e76616c69642073656e6465720000000000000000000000000000000000006044820152606401620006b7565b81610103600082825462001141919062002051565b90915550505050565b6036546001600160a01b03163314620011955760405162461bcd60e51b8152602060048201819052602482015260008051602062002aa78339815191526044820152606401620006b7565b6001600160a01b038116620011fc5760405162461bcd60e51b815260206004820152602660248201527f4f776e61626c653a206e6577206f776e657220697320746865207a65726f206160448201526564647265737360d01b6064820152608401620006b7565b620008d281620014ed565b6000806000612710905060008161010054866200122591906200208d565b6200123191906200206c565b905060008261010254836200124791906200208d565b6200125391906200206c565b9196919550909350505050565b6036546001600160a01b03163314620008d25760405162461bcd60e51b8152602060048201819052602482015260008051602062002aa78339815191526044820152606401620006b7565b6000620012df7f360894a13ba1a3210667c828492db98dca3e2076cc3735a920a3ca505d382bbc546001600160a01b031690565b9050620012ec8462001a79565b600083511180620012fa5750815b156200130e576200130c848462001b20565b505b7f4910fdfa16fed3260ed0e7147f7cc6da11a60208b5b9406d12a635614ffd9143805460ff166200144857805460ff191660011781556040516001600160a01b03831660248201526200139090869060440160408051601f198184030181529190526020810180516001600160e01b0316631b2ce7f360e11b17905262001b20565b50805460ff191681557f360894a13ba1a3210667c828492db98dca3e2076cc3735a920a3ca505d382bbc546001600160a01b038381169116146200143d5760405162461bcd60e51b815260206004820152602f60248201527f45524331393637557067726164653a207570677261646520627265616b73206660448201527f75727468657220757067726164657300000000000000000000000000000000006064820152608401620006b7565b620014488562001c14565b5050505050565b60685460ff16620014a35760405162461bcd60e51b815260206004820152601460248201527f5061757361626c653a206e6f74207061757365640000000000000000000000006044820152606401620006b7565b6068805460ff191690557f5db9ee0a495bf2e6ff9c91a7834c1ba4fdd244a5e8aa4e537bd38aeae4b073aa335b6040516001600160a01b03909116815260200160405180910390a1565b603680546001600160a01b038381166001600160a01b0319831681179093556040519116919082907f8be0079c531659141344cd1fd0a4f28419497f9722a3daafe3b4186f6b6457e090600090a35050565b60685460ff1615620015875760405162461bcd60e51b815260206004820152601060248201526f14185d5cd8589b194e881c185d5cd95960821b6044820152606401620006b7565b6068805460ff191660011790557f62e78cea01bee320cd4e420270b5ea74000d11b0c9f74754ebdbfc544b05a258620014d03390565b60685460ff1615620016055760405162461bcd60e51b815260206004820152601060248201526f14185d5cd8589b194e881c185d5cd95960821b6044820152606401620006b7565b60fe546001600160a01b03166200165f5760405162461bcd60e51b815260206004820152601f60248201527f4572726f723a20426561636f6e20666f722070726f7879206e6f7420736574006044820152606401620006b7565b6200166a8162001c56565b15620016b95760405162461bcd60e51b815260206004820152601660248201527f7076455243323020616c726561647920657869737473000000000000000000006044820152606401620006b7565b600054620016d1906001600160a01b03168262001c83565b600060405180606001604052806029815260200162002aee602991396000805460405160806024820152601560a48201527f546f7563616e2050726f746f636f6c3a2054434f32000000000000000000000060c482015260c06044820152600460e4820152632a21a79960e11b610104820152606481018690526001600160a01b0390911660848201529192509082906101240160408051601f198184030181529082905291620017829162001fa3565b60408051918290039091206020830180516001600160e01b03167fffffffff0000000000000000000000000000000000000000000000000000000090921691909117905260fe5490519192506000916001600160a01b03909116908390620017ea9062001e23565b620017f792919062001fc1565b604051809103906000f08015801562001814573d6000803e3d6000fd5b5060005460405163043658a760e41b81526001600160a01b0380841660048301529293509116906343658a7090602401600060405180830381600087803b1580156200185f57600080fd5b505af115801562001874573d6000803e3d6000fd5b5050600180548082019091557fb10e2d527612073b26eecdfd717e6a320cf44b4afac2b0732d9fcbe2b7fa0cf60180546001600160a01b0385166001600160a01b03199182168117909255600088815260026020908152604091829020805490931684179092558051898152918201929092527fc331dc3e37e2ab4d6e65d42a119ffdfab8481b9be24d26704f9f4b4a331d4dd0935001905060405180910390a150505050565b600354610100900460ff1662000c115760405162461bcd60e51b815260206004820152602b60248201527f496e697469616c697a61626c653a20636f6e7472616374206973206e6f74206960448201526a6e697469616c697a696e6760a81b6064820152608401620006b7565b600354610100900460ff16620019f55760405162461bcd60e51b815260206004820152602b60248201527f496e697469616c697a61626c653a20636f6e7472616374206973206e6f74206960448201526a6e697469616c697a696e6760a81b6064820152608401620006b7565b62000c1133620014ed565b600354610100900460ff1662001a6d5760405162461bcd60e51b815260206004820152602b60248201527f496e697469616c697a61626c653a20636f6e7472616374206973206e6f74206960448201526a6e697469616c697a696e6760a81b6064820152608401620006b7565b6068805460ff19169055565b803b62001adf5760405162461bcd60e51b815260206004820152602d60248201527f455243313936373a206e657720696d706c656d656e746174696f6e206973206e60448201526c1bdd08184818dbdb9d1c9858dd609a1b6064820152608401620006b7565b7f360894a13ba1a3210667c828492db98dca3e2076cc3735a920a3ca505d382bbc80546001600160a01b0319166001600160a01b0392909216919091179055565b6060823b62001b815760405162461bcd60e51b815260206004820152602660248201527f416464726573733a2064656c65676174652063616c6c20746f206e6f6e2d636f6044820152651b9d1c9858dd60d21b6064820152608401620006b7565b600080846001600160a01b03168460405162001b9e919062001fa3565b600060405180830381855af49150503d806000811462001bdb576040519150601f19603f3d011682016040523d82523d6000602084013e62001be0565b606091505b509150915062001c0b828260405180606001604052806027815260200162002ac76027913962001dde565b95945050505050565b62001c1f8162001a79565b6040516001600160a01b038216907fbc7cd75a20ee27fd9adebab32041f755214dbc6bffa90cc0225b39da2e5c2d3b90600090a250565b6000818152600260205260408120546001600160a01b031662001c7b57506000919050565b506001919050565b6000826001600160a01b031663a0af25606040518163ffffffff1660e01b815260040160206040518083038186803b15801562001cbf57600080fd5b505afa15801562001cd4573d6000803e3d6000fd5b505050506040513d601f19601f8201168201806040525081019062001cfa919062001e50565b604051634f558e7960e01b8152600481018490529091506001600160a01b03821690634f558e799060240160206040518083038186803b15801562001d3e57600080fd5b505afa15801562001d53573d6000803e3d6000fd5b505050506040513d601f19601f8201168201806040525081019062001d79919062001f3a565b62001dd95760405162461bcd60e51b815260206004820152602960248201527f436172626f6e2070726f6a6563742076696e7461676520646f6573206e6f74206044820152681e595d08195e1a5cdd60ba1b6064820152608401620006b7565b505050565b6060831562001def57508162001e1c565b82511562001e005782518084602001fd5b8160405162461bcd60e51b8152600401620006b791906200203c565b9392505050565b610982806200212583390190565b60006020828403121562001e43578081fd5b813562001e1c816200210e565b60006020828403121562001e62578081fd5b815162001e1c816200210e565b6000806040838503121562001e82578081fd5b823562001e8f816200210e565b9150602083013567ffffffffffffffff8082111562001eac578283fd5b818501915085601f83011262001ec0578283fd5b81358181111562001ed55762001ed5620020f8565b604051601f8201601f19908116603f0116810190838211818310171562001f005762001f00620020f8565b8160405282815288602084870101111562001f19578586fd5b82602086016020830137856020848301015280955050505050509250929050565b60006020828403121562001f4c578081fd5b8151801515811462001e1c578182fd5b60006020828403121562001f6e578081fd5b5035919050565b6000815180845262001f8f816020860160208601620020af565b601f01601f19169290920160200192915050565b6000825162001fb7818460208701620020af565b9190910192915050565b6001600160a01b038316815260406020820152600062001fe5604083018462001f75565b949350505050565b6020808252825182820181905260009190848201906040850190845b81811015620020305783516001600160a01b03168352928401929184019160010162002009565b50909695505050505050565b60208152600062001e1c602083018462001f75565b60008219821115620020675762002067620020e2565b500190565b6000826200208857634e487b7160e01b81526012600452602481fd5b500490565b6000816000190483118215151615620020aa57620020aa620020e2565b500290565b60005b83811015620020cc578181015183820152602001620020b2565b83811115620020dc576000848401525b50505050565b634e487b7160e01b600052601160045260246000fd5b634e487b7160e01b600052604160045260246000fd5b6001600160a01b0381168114620008d257600080fdfe60806040526040516109823803806109828339810160408190526100229161047d565b61004d60017fa3f0ad74e5423aebfd80d3ef4346578335a9a72aeaee59ff6cb3582b35133d51610588565b60008051602061093b8339815191521461007757634e487b7160e01b600052600160045260246000fd5b6100838282600061008a565b50506105ed565b61009383610164565b6040516001600160a01b038416907f1cf3b03a6cf19fa2baba4df148e9dcabedea7f8a5c07840e207e5c089be95d3e90600090a26000825111806100d45750805b1561015f5761015d836001600160a01b0316635c60da1b6040518163ffffffff1660e01b815260040160206040518083038186803b15801561011557600080fd5b505afa158015610129573d6000803e3d6000fd5b505050506040513d601f19601f8201168201806040525081019061014d9190610463565b8361030460201b6100291760201c565b505b505050565b6101778161033060201b6100551760201c565b6101d65760405162461bcd60e51b815260206004820152602560248201527f455243313936373a206e657720626561636f6e206973206e6f74206120636f6e6044820152641d1c9858dd60da1b60648201526084015b60405180910390fd5b610259816001600160a01b0316635c60da1b6040518163ffffffff1660e01b815260040160206040518083038186803b15801561021257600080fd5b505afa158015610226573d6000803e3d6000fd5b505050506040513d601f19601f8201168201806040525081019061024a9190610463565b61033060201b6100551760201c565b6102be5760405162461bcd60e51b815260206004820152603060248201527f455243313936373a20626561636f6e20696d706c656d656e746174696f6e206960448201526f1cc81b9bdd08184818dbdb9d1c9858dd60821b60648201526084016101cd565b806102e360008051602061093b83398151915260001b61033660201b61005b1760201c565b80546001600160a01b0319166001600160a01b039290921691909117905550565b6060610329838360405180606001604052806027815260200161095b60279139610339565b9392505050565b3b151590565b90565b6060833b6103985760405162461bcd60e51b815260206004820152602660248201527f416464726573733a2064656c65676174652063616c6c20746f206e6f6e2d636f6044820152651b9d1c9858dd60d21b60648201526084016101cd565b600080856001600160a01b0316856040516103b39190610539565b600060405180830381855af49150503d80600081146103ee576040519150601f19603f3d011682016040523d82523d6000602084013e6103f3565b606091505b50909250905061040482828661040e565b9695505050505050565b6060831561041d575081610329565b82511561042d5782518084602001fd5b8160405162461bcd60e51b81526004016101cd9190610555565b80516001600160a01b038116811461045e57600080fd5b919050565b600060208284031215610474578081fd5b61032982610447565b6000806040838503121561048f578081fd5b61049883610447565b60208401519092506001600160401b03808211156104b4578283fd5b818501915085601f8301126104c7578283fd5b8151818111156104d9576104d96105d7565b604051601f8201601f19908116603f01168101908382118183101715610501576105016105d7565b81604052828152886020848701011115610519578586fd5b61052a8360208301602088016105ab565b80955050505050509250929050565b6000825161054b8184602087016105ab565b9190910192915050565b60208152600082518060208401526105748160408501602087016105ab565b601f01601f19169190910160400192915050565b6000828210156105a657634e487b7160e01b81526011600452602481fd5b500390565b60005b838110156105c65781810151838201526020016105ae565b8381111561015d5750506000910152565b634e487b7160e01b600052604160045260246000fd5b61033f806105fc6000396000f3fe60806040523661001357610011610017565b005b6100115b61002761002261005e565b610106565b565b606061004e83836040518060600160405280602781526020016102e36027913961012a565b9392505050565b3b151590565b90565b60006100917fa3f0ad74e5423aebfd80d3ef4346578335a9a72aeaee59ff6cb3582b35133d50546001600160a01b031690565b6001600160a01b0316635c60da1b6040518163ffffffff1660e01b815260040160206040518083038186803b1580156100c957600080fd5b505afa1580156100dd573d6000803e3d6000fd5b505050506040513d601f19601f82011682018060405250810190610101919061023c565b905090565b3660008037600080366000845af43d6000803e808015610125573d6000f35b3d6000fd5b6060833b61018e5760405162461bcd60e51b815260206004820152602660248201527f416464726573733a2064656c65676174652063616c6c20746f206e6f6e2d636f6044820152651b9d1c9858dd60d21b60648201526084015b60405180910390fd5b600080856001600160a01b0316856040516101a99190610263565b600060405180830381855af49150503d80600081146101e4576040519150601f19603f3d011682016040523d82523d6000602084013e6101e9565b606091505b50915091506101f9828286610203565b9695505050505050565b6060831561021257508161004e565b8251156102225782518084602001fd5b8160405162461bcd60e51b8152600401610185919061027f565b60006020828403121561024d578081fd5b81516001600160a01b038116811461004e578182fd5b600082516102758184602087016102b2565b9190910192915050565b602081526000825180602084015261029e8160408501602087016102b2565b601f01601f19169190910160400192915050565b60005b838110156102cd5781810151838201526020016102b5565b838111156102dc576000848401525b5050505056fe416464726573733a206c6f772d6c6576656c2064656c65676174652063616c6c206661696c6564a26469706673582212201678ffd0092c14d9ab9b71aef080a98eb8724d365ea900ecb48be2553c2a597464736f6c63430008040033a3f0ad74e5423aebfd80d3ef4346578335a9a72aeaee59ff6cb3582b35133d50416464726573733a206c6f772d6c6576656c2064656c65676174652063616c6c206661696c65644f776e61626c653a2063616c6c6572206973206e6f7420746865206f776e6572416464726573733a206c6f772d6c6576656c2064656c65676174652063616c6c206661696c6564696e697469616c697a6528737472696e672c737472696e672c75696e743235362c6164647265737329a26469706673582212205b28779d99d4004e90768f7e09a7ed42893ac380bea7f5fb6ff105a21ff7168d64736f6c63430008040033",
  "devdoc": {
    "kind": "dev",
    "methods": {
      "deployFromVintage(uint256)": {
        "details": "Deploys a TCO2 contract based on a project vintage",
        "params": {
          "projectVintageTokenId": "numeric tokenId from vintage in `CarbonProjectVintages`"
        }
      },
      "getContracts()": {
        "details": "Returns all addresses of deployed TCO2 contracts"
      },
      "owner()": {
        "details": "Returns the address of the current owner."
      },
      "pause()": {
        "details": "wraps _pause(), only Admin"
      },
      "paused()": {
        "details": "Returns true if the contract is paused, and false otherwise."
      },
      "renounceOwnership()": {
        "details": "Leaves the contract without owner. It will not be possible to call `onlyOwner` functions anymore. Can only be called by the current owner. NOTE: Renouncing ownership will leave the contract without an owner, thereby removing any functionality that is only available to the owner."
      },
      "setBeacon(address)": {
        "details": "sets the Beacon that tracks the current implementation logic of the TCO2s"
      },
      "setBridgeFeeBurnAddress(address)": {
        "params": {
          "_bridgeFeeBurnAddress": "address to transfer the fees to burn"
        }
      },
      "setBridgeFeeBurnPercentage(uint256)": {
        "params": {
          "_bridgeFeeBurnPercentageInBase": "percentage of bridge fee in base"
        }
      },
      "setBridgeFeePercentage(uint256)": {
        "params": {
          "_bridgeFeePercentageInBase": "percentage of bridge fee in base"
        }
      },
      "setBridgeFeeReceiver(address)": {
        "params": {
          "_bridgeFeeReceiver": "address to transfer the fees"
        }
      },
      "setToucanContractRegistry(address)": {
        "details": "set the registry contract to be tracked"
      },
      "transferOwnership(address)": {
        "details": "Transfers ownership of the contract to a new account (`newOwner`). Can only be called by the current owner."
      },
      "unpause()": {
        "details": "unpause the system, wraps _unpause(), only Admin"
      },
      "upgradeTo(address)": {
        "details": "Upgrade the implementation of the proxy to `newImplementation`. Calls {_authorizeUpgrade}. Emits an {Upgraded} event."
      },
      "upgradeToAndCall(address,bytes)": {
        "details": "Upgrade the implementation of the proxy to `newImplementation`, and subsequently execute the function call encoded in `data`. Calls {_authorizeUpgrade}. Emits an {Upgraded} event."
      },
      "version()": {
        "details": "Returns the current version of the smart contract"
      }
    },
    "version": 1
  },
  "userdoc": {
    "kind": "user",
    "methods": {
      "pause()": {
        "notice": "Emergency function to disable contract's core functionality"
      },
      "setBridgeFeeBurnAddress(address)": {
        "notice": "Update the bridge fee burn address"
      },
      "setBridgeFeeBurnPercentage(uint256)": {
        "notice": "Update the bridge fee burning percentage"
      },
      "setBridgeFeePercentage(uint256)": {
        "notice": "Update the bridge fee percentage"
      },
      "setBridgeFeeReceiver(address)": {
        "notice": "Update the bridge fee receiver"
      }
    },
    "notice": "This TCO2 factory creates project-vintage-specific ERC20 contracts for Batch-NFT fractionalization Locks in received ERC721 Batch-NFTs and can mint corresponding quantity of ERC20s Permissionless, anyone can deploy new ERC20s unless they do not yet exist and pid exists",
    "version": 1
  },
  "storageLayout": {
    "storage": [
      {
        "astId": 10774,
        "contract": "contracts/ToucanCarbonOffsetsFactory.sol:ToucanCarbonOffsetsFactory",
        "label": "contractRegistry",
        "offset": 0,
        "slot": "0",
        "type": "t_address"
      },
      {
        "astId": 10777,
        "contract": "contracts/ToucanCarbonOffsetsFactory.sol:ToucanCarbonOffsetsFactory",
        "label": "deployedContracts",
        "offset": 0,
        "slot": "1",
        "type": "t_array(t_address)dyn_storage"
      },
      {
        "astId": 10781,
        "contract": "contracts/ToucanCarbonOffsetsFactory.sol:ToucanCarbonOffsetsFactory",
        "label": "pvIdtoERC20",
        "offset": 0,
        "slot": "2",
        "type": "t_mapping(t_uint256,t_address)"
      },
      {
        "astId": 950,
        "contract": "contracts/ToucanCarbonOffsetsFactory.sol:ToucanCarbonOffsetsFactory",
        "label": "_initialized",
        "offset": 0,
        "slot": "3",
        "type": "t_bool"
      },
      {
        "astId": 953,
        "contract": "contracts/ToucanCarbonOffsetsFactory.sol:ToucanCarbonOffsetsFactory",
        "label": "_initializing",
        "offset": 1,
        "slot": "3",
        "type": "t_bool"
      },
      {
        "astId": 3848,
        "contract": "contracts/ToucanCarbonOffsetsFactory.sol:ToucanCarbonOffsetsFactory",
        "label": "__gap",
        "offset": 0,
        "slot": "4",
        "type": "t_array(t_uint256)50_storage"
      },
      {
        "astId": 420,
        "contract": "contracts/ToucanCarbonOffsetsFactory.sol:ToucanCarbonOffsetsFactory",
        "label": "_owner",
        "offset": 0,
        "slot": "54",
        "type": "t_address"
      },
      {
        "astId": 534,
        "contract": "contracts/ToucanCarbonOffsetsFactory.sol:ToucanCarbonOffsetsFactory",
        "label": "__gap",
        "offset": 0,
        "slot": "55",
        "type": "t_array(t_uint256)49_storage"
      },
      {
        "astId": 1149,
        "contract": "contracts/ToucanCarbonOffsetsFactory.sol:ToucanCarbonOffsetsFactory",
        "label": "_paused",
        "offset": 0,
        "slot": "104",
        "type": "t_bool"
      },
      {
        "astId": 1240,
        "contract": "contracts/ToucanCarbonOffsetsFactory.sol:ToucanCarbonOffsetsFactory",
        "label": "__gap",
        "offset": 0,
        "slot": "105",
        "type": "t_array(t_uint256)49_storage"
      },
      {
        "astId": 932,
        "contract": "contracts/ToucanCarbonOffsetsFactory.sol:ToucanCarbonOffsetsFactory",
        "label": "__gap",
        "offset": 0,
        "slot": "154",
        "type": "t_array(t_uint256)50_storage"
      },
      {
        "astId": 1127,
        "contract": "contracts/ToucanCarbonOffsetsFactory.sol:ToucanCarbonOffsetsFactory",
        "label": "__gap",
        "offset": 0,
        "slot": "204",
        "type": "t_array(t_uint256)50_storage"
      },
      {
        "astId": 10785,
        "contract": "contracts/ToucanCarbonOffsetsFactory.sol:ToucanCarbonOffsetsFactory",
        "label": "beacon",
        "offset": 0,
        "slot": "254",
        "type": "t_address"
      },
      {
        "astId": 10787,
        "contract": "contracts/ToucanCarbonOffsetsFactory.sol:ToucanCarbonOffsetsFactory",
        "label": "bridgeFeeReceiver",
        "offset": 0,
        "slot": "255",
        "type": "t_address"
      },
      {
        "astId": 10789,
        "contract": "contracts/ToucanCarbonOffsetsFactory.sol:ToucanCarbonOffsetsFactory",
        "label": "bridgeFeePercentageInBase",
        "offset": 0,
        "slot": "256",
        "type": "t_uint256"
      },
      {
        "astId": 10791,
        "contract": "contracts/ToucanCarbonOffsetsFactory.sol:ToucanCarbonOffsetsFactory",
        "label": "bridgeFeeBurnAddress",
        "offset": 0,
        "slot": "257",
        "type": "t_address"
      },
      {
        "astId": 10793,
        "contract": "contracts/ToucanCarbonOffsetsFactory.sol:ToucanCarbonOffsetsFactory",
        "label": "bridgeFeeBurnPercentageInBase",
        "offset": 0,
        "slot": "258",
        "type": "t_uint256"
      },
      {
        "astId": 10795,
        "contract": "contracts/ToucanCarbonOffsetsFactory.sol:ToucanCarbonOffsetsFactory",
        "label": "totalRetired",
        "offset": 0,
        "slot": "259",
        "type": "t_uint256"
      },
      {
        "astId": 10804,
        "contract": "contracts/ToucanCarbonOffsetsFactory.sol:ToucanCarbonOffsetsFactory",
        "label": "__gap",
        "offset": 0,
        "slot": "260",
        "type": "t_array(t_uint256)45_storage"
      }
    ],
    "types": {
      "t_address": {
        "encoding": "inplace",
        "label": "address",
        "numberOfBytes": "20"
      },
      "t_array(t_address)dyn_storage": {
        "base": "t_address",
        "encoding": "dynamic_array",
        "label": "address[]",
        "numberOfBytes": "32"
      },
      "t_array(t_uint256)45_storage": {
        "base": "t_uint256",
        "encoding": "inplace",
        "label": "uint256[45]",
        "numberOfBytes": "1440"
      },
      "t_array(t_uint256)49_storage": {
        "base": "t_uint256",
        "encoding": "inplace",
        "label": "uint256[49]",
        "numberOfBytes": "1568"
      },
      "t_array(t_uint256)50_storage": {
        "base": "t_uint256",
        "encoding": "inplace",
        "label": "uint256[50]",
        "numberOfBytes": "1600"
      },
      "t_bool": {
        "encoding": "inplace",
        "label": "bool",
        "numberOfBytes": "1"
      },
      "t_mapping(t_uint256,t_address)": {
        "encoding": "mapping",
        "key": "t_uint256",
        "label": "mapping(uint256 => address)",
        "numberOfBytes": "32",
        "value": "t_address"
      },
      "t_uint256": {
        "encoding": "inplace",
        "label": "uint256",
        "numberOfBytes": "32"
      }
    }
  }
}