{
  "address": "0xD46eE8815F141749834AF0Df21E744459eFEc75F",
  "abi": [
    {
      "inputs": [],
      "stateMutability": "nonpayable",
      "type": "constructor"
    },
    {
      "anonymous": false,
      "inputs": [
        {
          "indexed": true,
          "internalType": "address",
          "name": "owner",
          "type": "address"
        },
        {
          "indexed": true,
          "internalType": "address",
          "name": "spender",
          "type": "address"
        },
        {
          "indexed": false,
          "internalType": "uint256",
          "name": "value",
          "type": "uint256"
        }
      ],
      "name": "Approval",
      "type": "event"
    },
    {
      "anonymous": false,
      "inputs": [
        {
          "indexed": false,
          "internalType": "address",
          "name": "bridger",
          "type": "address"
        },
        {
          "indexed": false,
          "internalType": "uint256",
          "name": "fees",
          "type": "uint256"
        }
      ],
      "name": "FeeBurnt",
      "type": "event"
    },
    {
      "anonymous": false,
      "inputs": [
        {
          "indexed": false,
          "internalType": "address",
          "name": "bridger",
          "type": "address"
        },
        {
          "indexed": false,
          "internalType": "uint256",
          "name": "fees",
          "type": "uint256"
        }
      ],
      "name": "FeePaid",
      "type": "event"
    },
    {
      "anonymous": false,
      "inputs": [
        {
          "indexed": false,
          "internalType": "uint8",
          "name": "version",
          "type": "uint8"
        }
      ],
      "name": "Initialized",
      "type": "event"
    },
    {
      "anonymous": false,
      "inputs": [
        {
          "indexed": false,
          "internalType": "address",
          "name": "sender",
          "type": "address"
        },
        {
          "indexed": false,
          "internalType": "uint256",
          "name": "amount",
          "type": "uint256"
        },
        {
          "indexed": false,
          "internalType": "uint256",
          "name": "eventId",
          "type": "uint256"
        }
      ],
      "name": "Retired",
      "type": "event"
    },
    {
      "anonymous": false,
      "inputs": [
        {
          "indexed": true,
          "internalType": "address",
          "name": "from",
          "type": "address"
        },
        {
          "indexed": true,
          "internalType": "address",
          "name": "to",
          "type": "address"
        },
        {
          "indexed": false,
          "internalType": "uint256",
          "name": "value",
          "type": "uint256"
        }
      ],
      "name": "Transfer",
      "type": "event"
    },
    {
      "inputs": [
        {
          "internalType": "address",
          "name": "owner",
          "type": "address"
        },
        {
          "internalType": "address",
          "name": "spender",
          "type": "address"
        }
      ],
      "name": "allowance",
      "outputs": [
        {
          "internalType": "uint256",
          "name": "",
          "type": "uint256"
        }
      ],
      "stateMutability": "view",
      "type": "function"
    },
    {
      "inputs": [
        {
          "internalType": "address",
          "name": "spender",
          "type": "address"
        },
        {
          "internalType": "uint256",
          "name": "amount",
          "type": "uint256"
        }
      ],
      "name": "approve",
      "outputs": [
        {
          "internalType": "bool",
          "name": "",
          "type": "bool"
        }
      ],
      "stateMutability": "nonpayable",
      "type": "function"
    },
    {
      "inputs": [
        {
          "internalType": "address",
          "name": "account",
          "type": "address"
        }
      ],
      "name": "balanceOf",
      "outputs": [
        {
          "internalType": "uint256",
          "name": "",
          "type": "uint256"
        }
      ],
      "stateMutability": "view",
      "type": "function"
    },
    {
      "inputs": [
        {
          "internalType": "address",
          "name": "account",
          "type": "address"
        },
        {
          "internalType": "uint256",
          "name": "amount",
          "type": "uint256"
        }
      ],
      "name": "burnFrom",
      "outputs": [],
      "stateMutability": "nonpayable",
      "type": "function"
    },
    {
      "inputs": [],
      "name": "contractRegistry",
      "outputs": [
        {
          "internalType": "address",
          "name": "",
          "type": "address"
        }
      ],
      "stateMutability": "view",
      "type": "function"
    },
    {
      "inputs": [],
      "name": "decimals",
      "outputs": [
        {
          "internalType": "uint8",
          "name": "",
          "type": "uint8"
        }
      ],
      "stateMutability": "view",
      "type": "function"
    },
    {
      "inputs": [
        {
          "internalType": "address",
          "name": "spender",
          "type": "address"
        },
        {
          "internalType": "uint256",
          "name": "subtractedValue",
          "type": "uint256"
        }
      ],
      "name": "decreaseAllowance",
      "outputs": [
        {
          "internalType": "bool",
          "name": "",
          "type": "bool"
        }
      ],
      "stateMutability": "nonpayable",
      "type": "function"
    },
    {
      "inputs": [],
      "name": "getAttributes",
      "outputs": [
        {
          "components": [
            {
              "internalType": "string",
              "name": "projectId",
              "type": "string"
            },
            {
              "internalType": "string",
              "name": "standard",
              "type": "string"
            },
            {
              "internalType": "string",
              "name": "methodology",
              "type": "string"
            },
            {
              "internalType": "string",
              "name": "region",
              "type": "string"
            },
            {
              "internalType": "string",
              "name": "storageMethod",
              "type": "string"
            },
            {
              "internalType": "string",
              "name": "method",
              "type": "string"
            },
            {
              "internalType": "string",
              "name": "emissionType",
              "type": "string"
            },
            {
              "internalType": "string",
              "name": "category",
              "type": "string"
            },
            {
              "internalType": "string",
              "name": "uri",
              "type": "string"
            },
            {
              "internalType": "address",
              "name": "controller",
              "type": "address"
            }
          ],
          "internalType": "struct ProjectData",
          "name": "",
          "type": "tuple"
        },
        {
          "components": [
            {
              "internalType": "string",
              "name": "name",
              "type": "string"
            },
            {
              "internalType": "uint64",
              "name": "startTime",
              "type": "uint64"
            },
            {
              "internalType": "uint64",
              "name": "endTime",
              "type": "uint64"
            },
            {
              "internalType": "uint256",
              "name": "projectTokenId",
              "type": "uint256"
            },
            {
              "internalType": "uint64",
              "name": "totalVintageQuantity",
              "type": "uint64"
            },
            {
              "internalType": "bool",
              "name": "isCorsiaCompliant",
              "type": "bool"
            },
            {
              "internalType": "bool",
              "name": "isCCPcompliant",
              "type": "bool"
            },
            {
              "internalType": "string",
              "name": "coBenefits",
              "type": "string"
            },
            {
              "internalType": "string",
              "name": "correspAdjustment",
              "type": "string"
            },
            {
              "internalType": "string",
              "name": "additionalCertification",
              "type": "string"
            },
            {
              "internalType": "string",
              "name": "uri",
              "type": "string"
            }
          ],
          "internalType": "struct VintageData",
          "name": "",
          "type": "tuple"
        }
      ],
      "stateMutability": "view",
      "type": "function"
    },
    {
      "inputs": [],
      "name": "getDepositCap",
      "outputs": [
        {
          "internalType": "uint256",
          "name": "",
          "type": "uint256"
        }
      ],
      "stateMutability": "view",
      "type": "function"
    },
    {
      "inputs": [],
      "name": "getGlobalProjectVintageIdentifiers",
      "outputs": [
        {
          "internalType": "string",
          "name": "",
          "type": "string"
        },
        {
          "internalType": "string",
          "name": "",
          "type": "string"
        }
      ],
      "stateMutability": "view",
      "type": "function"
    },
    {
      "inputs": [],
      "name": "getRemaining",
      "outputs": [
        {
          "internalType": "uint256",
          "name": "remaining",
          "type": "uint256"
        }
      ],
      "stateMutability": "view",
      "type": "function"
    },
    {
      "inputs": [
        {
          "internalType": "address",
          "name": "spender",
          "type": "address"
        },
        {
          "internalType": "uint256",
          "name": "addedValue",
          "type": "uint256"
        }
      ],
      "name": "increaseAllowance",
      "outputs": [
        {
          "internalType": "bool",
          "name": "",
          "type": "bool"
        }
      ],
      "stateMutability": "nonpayable",
      "type": "function"
    },
    {
      "inputs": [
        {
          "internalType": "string",
          "name": "name_",
          "type": "string"
        },
        {
          "internalType": "string",
          "name": "symbol_",
          "type": "string"
        },
        {
          "internalType": "uint256",
          "name": "_projectVintageTokenId",
          "type": "uint256"
        },
        {
          "internalType": "address",
          "name": "_contractRegistry",
          "type": "address"
        }
      ],
      "name": "initialize",
      "outputs": [],
      "stateMutability": "nonpayable",
      "type": "function"
    },
    {
      "inputs": [
        {
          "internalType": "string",
          "name": "retiringEntityString",
          "type": "string"
        },
        {
          "internalType": "address",
          "name": "beneficiary",
          "type": "address"
        },
        {
          "internalType": "string",
          "name": "beneficiaryString",
          "type": "string"
        },
        {
          "internalType": "string",
          "name": "retirementMessage",
          "type": "string"
        },
        {
          "internalType": "uint256",
          "name": "amount",
          "type": "uint256"
        }
      ],
      "name": "mintCertificateLegacy",
      "outputs": [],
      "stateMutability": "nonpayable",
      "type": "function"
    },
    {
      "inputs": [
        {
          "internalType": "address",
          "name": "",
          "type": "address"
        }
      ],
      "name": "minterToId",
      "outputs": [
        {
          "internalType": "uint256",
          "name": "",
          "type": "uint256"
        }
      ],
      "stateMutability": "view",
      "type": "function"
    },
    {
      "inputs": [],
      "name": "name",
      "outputs": [
        {
          "internalType": "string",
          "name": "",
          "type": "string"
        }
      ],
      "stateMutability": "view",
      "type": "function"
    },
    {
      "inputs": [
        {
          "internalType": "address",
          "name": "",
          "type": "address"
        },
        {
          "internalType": "address",
          "name": "from",
          "type": "address"
        },
        {
          "internalType": "uint256",
          "name": "tokenId",
          "type": "uint256"
        },
        {
          "internalType": "bytes",
          "name": "",
          "type": "bytes"
        }
      ],
      "name": "onERC721Received",
      "outputs": [
        {
          "internalType": "bytes4",
          "name": "",
          "type": "bytes4"
        }
      ],
      "stateMutability": "nonpayable",
      "type": "function"
    },
    {
      "inputs": [],
      "name": "projectVintageTokenId",
      "outputs": [
        {
          "internalType": "uint256",
          "name": "",
          "type": "uint256"
        }
      ],
      "stateMutability": "view",
      "type": "function"
    },
    {
      "inputs": [
        {
          "internalType": "uint256",
          "name": "amount",
          "type": "uint256"
        }
      ],
      "name": "retire",
      "outputs": [
        {
          "internalType": "uint256",
          "name": "retirementEventId",
          "type": "uint256"
        }
      ],
      "stateMutability": "nonpayable",
      "type": "function"
    },
    {
      "inputs": [
        {
          "internalType": "string",
          "name": "retiringEntityString",
          "type": "string"
        },
        {
          "internalType": "address",
          "name": "beneficiary",
          "type": "address"
        },
        {
          "internalType": "string",
          "name": "beneficiaryString",
          "type": "string"
        },
        {
          "internalType": "string",
          "name": "retirementMessage",
          "type": "string"
        },
        {
          "internalType": "uint256",
          "name": "amount",
          "type": "uint256"
        }
      ],
      "name": "retireAndMintCertificate",
      "outputs": [],
      "stateMutability": "nonpayable",
      "type": "function"
    },
    {
      "inputs": [
        {
          "internalType": "address",
          "name": "account",
          "type": "address"
        },
        {
          "internalType": "uint256",
          "name": "amount",
          "type": "uint256"
        }
      ],
      "name": "retireFrom",
      "outputs": [
        {
          "internalType": "uint256",
          "name": "retirementEventId",
          "type": "uint256"
        }
      ],
      "stateMutability": "nonpayable",
      "type": "function"
    },
    {
      "inputs": [
        {
          "internalType": "address",
          "name": "",
          "type": "address"
        }
      ],
      "name": "retiredAmount",
      "outputs": [
        {
          "internalType": "uint256",
          "name": "",
          "type": "uint256"
        }
      ],
      "stateMutability": "view",
      "type": "function"
    },
    {
      "inputs": [],
      "name": "symbol",
      "outputs": [
        {
          "internalType": "string",
          "name": "",
          "type": "string"
        }
      ],
      "stateMutability": "view",
      "type": "function"
    },
    {
      "inputs": [],
      "name": "totalSupply",
      "outputs": [
        {
          "internalType": "uint256",
          "name": "",
          "type": "uint256"
        }
      ],
      "stateMutability": "view",
      "type": "function"
    },
    {
      "inputs": [
        {
          "internalType": "address",
          "name": "recipient",
          "type": "address"
        },
        {
          "internalType": "uint256",
          "name": "amount",
          "type": "uint256"
        }
      ],
      "name": "transfer",
      "outputs": [
        {
          "internalType": "bool",
          "name": "",
          "type": "bool"
        }
      ],
      "stateMutability": "nonpayable",
      "type": "function"
    },
    {
      "inputs": [
        {
          "internalType": "address",
          "name": "sender",
          "type": "address"
        },
        {
          "internalType": "address",
          "name": "recipient",
          "type": "address"
        },
        {
          "internalType": "uint256",
          "name": "amount",
          "type": "uint256"
        }
      ],
      "name": "transferFrom",
      "outputs": [
        {
          "internalType": "bool",
          "name": "",
          "type": "bool"
        }
      ],
      "stateMutability": "nonpayable",
      "type": "function"
    },
    {
      "inputs": [],
      "name": "version",
      "outputs": [
        {
          "internalType": "string",
          "name": "",
          "type": "string"
        }
      ],
      "stateMutability": "pure",
      "type": "function"
    }
  ],
  "numDeployments": 4,
  "solcInputHash": "d2c3a87613d86473ea89d0ccefaedef1",
  "bytecode": "0x60806040523480156200001157600080fd5b506200001c62000022565b62000152565b6200002e60ff62000031565b50565b60008054610100900460ff1615620000ca578160ff1660011480156200006a575062000068306200014360201b620017871760201c565b155b620000c25760405162461bcd60e51b815260206004820152602e6024820152600080516020620035cb83398151915260448201526d191e481a5b9a5d1a585b1a5e995960921b60648201526084015b60405180910390fd5b506000919050565b60005460ff808416911610620001295760405162461bcd60e51b815260206004820152602e6024820152600080516020620035cb83398151915260448201526d191e481a5b9a5d1a585b1a5e995960921b6064820152608401620000b9565b506000805460ff191660ff92909216919091179055600190565b6001600160a01b03163b151590565b61346980620001626000396000f3fe608060405234801561001057600080fd5b50600436106101a95760003560e01c806364c5a403116100f9578063a9059cbb11610097578063d6a022b811610071578063d6a022b8146103cd578063dd62ed3e146103d5578063e819426c146103e8578063e9d5c8d5146103f157600080fd5b8063a9059cbb1461037c578063abf410e51461038f578063bd3a13f6146103ba57600080fd5b806379cc6790116100d357806379cc67901461032e57806395d89b4114610341578063a19c4bd814610349578063a457c2d71461036957600080fd5b806364c5a403146102dc5780636b24ffd6146102f257806370a082311461030557600080fd5b80632087107e11610166578063313ce56711610140578063313ce567146102865780633790cf571461029557806339509351146102a857806354fd4d50146102bb57600080fd5b80632087107e1461024b57806323b872dd146102605780632ef292901461027357600080fd5b806301a598da146101ae57806306fdde03146101c9578063095ea7b3146101de578063150b7a0214610201578063152583de1461022d57806318160ddd14610243575b600080fd5b6101b6610411565b6040519081526020015b60405180910390f35b6101d161046a565b6040516101c091906125e8565b6101f16101ec366004612613565b6104a5565b60405190151581526020016101c0565b61021461020f366004612687565b6104bf565b6040516001600160e01b031990911681526020016101c0565b610235610b31565b6040516101c09291906127ff565b6035546101b6565b61025e610259366004612947565b610d2a565b005b6101f161026e3660046129fc565b610e8d565b61025e610281366004612947565b610fc5565b604051601281526020016101c0565b6101b66102a3366004612a3d565b6110c0565b6101f16102b6366004612613565b6111d2565b6040805180820190915260058152640312e332e360dc1b60208201526101d1565b6102e46111f4565b6040516101c0929190612a56565b6101b6610300366004612613565b61121e565b6101b6610313366004612a7b565b6001600160a01b031660009081526033602052604090205490565b61025e61033c366004612613565b6113ab565b6101d16114ba565b6101b6610357366004612a7b565b60686020526000908152604090205481565b6101f1610377366004612613565b6114df565b6101f161038a366004612613565b611565565b6066546103a2906001600160a01b031681565b6040516001600160a01b0390911681526020016101c0565b61025e6103c8366004612ba7565b61169b565b6101b6611736565b6101b66103e3366004612c26565b61175c565b6101b660655481565b6101b66103ff366004612a7b565b60676020526000908152604090205481565b600061041b612422565b610423610b31565b60808101519092509050600061043b6012600a612d59565b61044e906001600160401b038416612d68565b90508060000361046357600019935050505090565b9392505050565b60608060606104776111f4565b604051919350915061048f9083908390602001612d87565b6040516020818303038152906040529250505090565b6000336104b3818585611796565b60019150505b92915050565b600080606660009054906101000a90046001600160a01b03166001600160a01b03166308cca7e36040518163ffffffff1660e01b8152600401602060405180830381865afa158015610515573d6000803e3d6000fd5b505050506040513d601f19601f820116820180604052508101906105399190612df0565b90506000816001600160a01b0316635c975abb6040518163ffffffff1660e01b8152600401602060405180830381865afa15801561057b573d6000803e3d6000fd5b505050506040513d601f19601f8201168201806040525081019061059f9190612e1d565b905080156105c85760405162461bcd60e51b81526004016105bf90612e38565b60405180910390fd5b6105d1336118bb565b6106345760405162461bcd60e51b815260206004820152602e60248201527f4572726f723a2042617463682d4e4654206e6f742066726f6d2077686974656c60448201526d1a5cdd19590818dbdb9d1c9858dd60921b60648201526084016105bf565b60405163dff35e8360e01b81526004810187905260009081908190339063dff35e8390602401606060405180830381865afa158015610677573d6000803e3d6000fd5b505050506040513d601f19601f8201168201806040525081019061069b9190612e5d565b92509250925060655483146106f25760405162461bcd60e51b815260206004820152601760248201527f4572726f723a206e6f6e2d6d61746368696e67204e465400000000000000000060448201526064016105bf565b600281600281111561070657610706612e9a565b146107535760405162461bcd60e51b815260206004820152601a60248201527f42617463684e4654206e6f742079657420636f6e6669726d656400000000000060448201526064016105bf565b6001600160a01b038a16600090815260676020526040902089905561077a6012600a612d59565b6107849083612d68565b91508161078f611736565b10156107fc5760405162461bcd60e51b815260206004820152603660248201527f4572726f723a205175616e7469747920696e20626174636820697320686967686044820152756572207468616e20746f74616c2076696e746167657360501b60648201526084016105bf565b606654604080516308cca7e360e01b815290516000926001600160a01b0316916308cca7e39160048083019260209291908290030181865afa158015610846573d6000803e3d6000fd5b505050506040513d601f19601f8201168201806040525081019061086a9190612df0565b90506000816001600160a01b03166380e2d3f06040518163ffffffff1660e01b8152600401602060405180830381865afa1580156108ac573d6000803e3d6000fd5b505050506040513d601f19601f820116820180604052508101906108d09190612df0565b90506001600160a01b0381166108ef576108ea8c85611956565b610b18565b6040516379bcd2d160e11b81526004810185905260009081906001600160a01b0385169063f379a5a2906024016040805180830381865afa158015610938573d6000803e3d6000fd5b505050506040513d601f19601f8201168201806040525081019061095c9190612eb0565b90925090506109748e61096f8489612ed4565b611956565b6000846001600160a01b031663581cd1106040518163ffffffff1660e01b8152600401602060405180830381865afa1580156109b4573d6000803e3d6000fd5b505050506040513d601f19601f820116820180604052508101906109d89190612df0565b90506001600160a01b038116158015906109f25750600082115b15610ab657610a018284612ed4565b9250610a0d8484611956565b610a178183611956565b7f075a2720282fdf622141dae0b048ef90a21a7e57c134c76912d19d006b3b3f6f8f84604051610a5c9291906001600160a01b03929092168252602082015260400190565b60405180910390a17fa2f0f5180dc62f2d34c8207f1d18178d31bd0de616f83636434ddf48de0ae6fa8f83604051610aa99291906001600160a01b03929092168252602082015260400190565b60405180910390a1610b14565b8215610b1457610ac68484611956565b7f075a2720282fdf622141dae0b048ef90a21a7e57c134c76912d19d006b3b3f6f8f84604051610b0b9291906001600160a01b03929092168252602082015260400190565b60405180910390a15b5050505b50630a85bd0160e11b9c9b505050505050505050505050565b610b3961249b565b610b41612422565b606654604080516301157a8360e01b815290516000926001600160a01b0316916301157a839160048083019260209291908290030181865afa158015610b8b573d6000803e3d6000fd5b505050506040513d601f19601f82011682018060405250810190610baf9190612df0565b90506000606660009054906101000a90046001600160a01b03166001600160a01b031663a0af25606040518163ffffffff1660e01b8152600401602060405180830381865afa158015610c06573d6000803e3d6000fd5b505050506040513d601f19601f82011682018060405250810190610c2a9190612df0565b90506000816001600160a01b03166315bbf0746065546040518263ffffffff1660e01b8152600401610c5e91815260200190565b600060405180830381865afa158015610c7b573d6000803e3d6000fd5b505050506040513d6000823e601f3d908101601f19168201604052610ca39190810190612f47565b90506000836001600160a01b03166347e3168683606001516040518263ffffffff1660e01b8152600401610cd991815260200190565b600060405180830381865afa158015610cf6573d6000803e3d6000fd5b505050506040513d6000823e601f3d908101601f19168201604052610d1e91908101906130ab565b96919550909350505050565b606654604080516308cca7e360e01b815290516000926001600160a01b0316916308cca7e39160048083019260209291908290030181865afa158015610d74573d6000803e3d6000fd5b505050506040513d601f19601f82011682018060405250810190610d989190612df0565b90506000816001600160a01b0316635c975abb6040518163ffffffff1660e01b8152600401602060405180830381865afa158015610dda573d6000803e3d6000fd5b505050506040513d601f19601f82011682018060405250810190610dfe9190612e1d565b90508015610e1e5760405162461bcd60e51b81526004016105bf90612e38565b6000610e2984611a35565b60408051600180825281830190925291925060009190602080830190803683370190505090508181600081518110610e6357610e63613250565b602002602001018181525050610e7f8c8c8c8c8c8c8c88611b4f565b505050505050505050505050565b6000826001600160a01b038116610ea357600080fd5b306001600160a01b03821603610eb857600080fd5b606654604080516308cca7e360e01b815290516000926001600160a01b0316916308cca7e39160048083019260209291908290030181865afa158015610f02573d6000803e3d6000fd5b505050506040513d601f19601f82011682018060405250810190610f269190612df0565b90506000816001600160a01b0316635c975abb6040518163ffffffff1660e01b8152600401602060405180830381865afa158015610f68573d6000803e3d6000fd5b505050506040513d601f19601f82011682018060405250810190610f8c9190612e1d565b90508015610fac5760405162461bcd60e51b81526004016105bf90612e38565b610fb7878787611d2f565b506001979650505050505050565b606654604080516308cca7e360e01b815290516000926001600160a01b0316916308cca7e39160048083019260209291908290030181865afa15801561100f573d6000803e3d6000fd5b505050506040513d601f19601f820116820180604052508101906110339190612df0565b90506000816001600160a01b0316635c975abb6040518163ffffffff1660e01b8152600401602060405180830381865afa158015611075573d6000803e3d6000fd5b505050506040513d601f19601f820116820180604052508101906110999190612e1d565b905080156110b95760405162461bcd60e51b81526004016105bf90612e38565b6000610e29845b600080606660009054906101000a90046001600160a01b03166001600160a01b03166308cca7e36040518163ffffffff1660e01b8152600401602060405180830381865afa158015611116573d6000803e3d6000fd5b505050506040513d601f19601f8201168201806040525081019061113a9190612df0565b90506000816001600160a01b0316635c975abb6040518163ffffffff1660e01b8152600401602060405180830381865afa15801561117c573d6000803e3d6000fd5b505050506040513d601f19601f820116820180604052508101906111a09190612e1d565b905080156111c05760405162461bcd60e51b81526004016105bf90612e38565b6111ca3385611d48565b949350505050565b6000336104b38185856111e5838361175c565b6111ef9190613266565b611796565b6060806111ff61249b565b611207612422565b61120f610b31565b90519051909590945092505050565b600080606660009054906101000a90046001600160a01b03166001600160a01b03166308cca7e36040518163ffffffff1660e01b8152600401602060405180830381865afa158015611274573d6000803e3d6000fd5b505050506040513d601f19601f820116820180604052508101906112989190612df0565b90506000816001600160a01b0316635c975abb6040518163ffffffff1660e01b8152600401602060405180830381865afa1580156112da573d6000803e3d6000fd5b505050506040513d601f19601f820116820180604052508101906112fe9190612e1d565b9050801561131e5760405162461bcd60e51b81526004016105bf90612e38565b600061132a863361175c565b90508481101561138a5760405162461bcd60e51b815260206004820152602560248201527f54434f323a2072657469726520616d6f756e74206578636565647320616c6c6f60448201526477616e636560d81b60648201526084016105bf565b6113978633878403611796565b6113a18686611d48565b9695505050505050565b606654604080516308cca7e360e01b815290516000926001600160a01b0316916308cca7e39160048083019260209291908290030181865afa1580156113f5573d6000803e3d6000fd5b505050506040513d601f19601f820116820180604052508101906114199190612df0565b90506000816001600160a01b0316635c975abb6040518163ffffffff1660e01b8152600401602060405180830381865afa15801561145b573d6000803e3d6000fd5b505050506040513d601f19601f8201168201806040525081019061147f9190612e1d565b9050801561149f5760405162461bcd60e51b81526004016105bf90612e38565b6114aa843385611f75565b6114b48484611fe9565b50505050565b60608060606114c76111f4565b604051919350915061048f908390839060200161327e565b600033816114ed828661175c565b90508381101561154d5760405162461bcd60e51b815260206004820152602560248201527f45524332303a2064656372656173656420616c6c6f77616e63652062656c6f77604482015264207a65726f60d81b60648201526084016105bf565b61155a8286868403611796565b506001949350505050565b6000826001600160a01b03811661157b57600080fd5b306001600160a01b0382160361159057600080fd5b606654604080516308cca7e360e01b815290516000926001600160a01b0316916308cca7e39160048083019260209291908290030181865afa1580156115da573d6000803e3d6000fd5b505050506040513d601f19601f820116820180604052508101906115fe9190612df0565b90506000816001600160a01b0316635c975abb6040518163ffffffff1660e01b8152600401602060405180830381865afa158015611640573d6000803e3d6000fd5b505050506040513d601f19601f820116820180604052508101906116649190612e1d565b905080156116845760405162461bcd60e51b81526004016105bf90612e38565b61168e8686612134565b5060019695505050505050565b60006116a76001612142565b905080156116bf576000805461ff0019166101001790555b6116c985856121c2565b6065839055606680546001600160a01b0319166001600160a01b038416179055801561172f576000805461ff0019169055604051600181527f7f26b83ff96e1f2b6a682f133852f6798a09c465da95921460cefb38474024989060200160405180910390a15b5050505050565b600080611741610411565b905061174c60355490565b6117569082612ed4565b91505090565b6001600160a01b03918216600090815260346020908152604080832093909416825291909152205490565b6001600160a01b03163b151590565b6001600160a01b0383166117f85760405162461bcd60e51b8152602060048201526024808201527f45524332303a20617070726f76652066726f6d20746865207a65726f206164646044820152637265737360e01b60648201526084016105bf565b6001600160a01b0382166118595760405162461bcd60e51b815260206004820152602260248201527f45524332303a20617070726f766520746f20746865207a65726f206164647265604482015261737360f01b60648201526084016105bf565b6001600160a01b0383811660008181526034602090815260408083209487168084529482529182902085905590518481527f8c5be1e5ebec7d5bd14f71427d1e84f3dd0314c0f7b2291e5b200ac8c7c3b92591015b60405180910390a3505050565b60665460408051634be4e3dd60e01b815290516000926001600160a01b031691634be4e3dd9160048083019260209291908290030181865afa158015611905573d6000803e3d6000fd5b505050506040513d601f19601f820116820180604052508101906119299190612df0565b6001600160a01b0316826001600160a01b03160361194957506001919050565b506000919050565b919050565b6001600160a01b0382166119ac5760405162461bcd60e51b815260206004820152601f60248201527f45524332303a206d696e7420746f20746865207a65726f20616464726573730060448201526064016105bf565b80603560008282546119be9190613266565b90915550506001600160a01b038216600090815260336020526040812080548392906119eb908490613266565b90915550506040518181526001600160a01b038316906000907fddf252ad1be2c89b69c2b068fc378daa952ba7f163c4a11628f55a4df523b3ef9060200160405180910390a35050565b33600090815260686020526040812080548391908390611a56908490612ed4565b909155505060665460408051635e20d0e160e01b815290516000926001600160a01b031691635e20d0e19160048083019260209291908290030181865afa158015611aa5573d6000803e3d6000fd5b505050506040513d601f19601f82011682018060405250810190611ac99190612df0565b6065546040516313ef24f760e11b8152336004820152602481019190915260448101859052600160648201529091506001600160a01b038216906327de49ee906084016020604051808303816000875af1158015611b2b573d6000803e3d6000fd5b505050506040513d601f19601f8201168201806040525081019061046391906132cb565b606654604080516308cca7e360e01b815290516000926001600160a01b0316916308cca7e39160048083019260209291908290030181865afa158015611b99573d6000803e3d6000fd5b505050506040513d601f19601f82011682018060405250810190611bbd9190612df0565b90506000816001600160a01b0316635c975abb6040518163ffffffff1660e01b8152600401602060405180830381865afa158015611bff573d6000803e3d6000fd5b505050506040513d601f19601f82011682018060405250810190611c239190612e1d565b90508015611c435760405162461bcd60e51b81526004016105bf90612e38565b60665460408051635e20d0e160e01b815290516000926001600160a01b031691635e20d0e19160048083019260209291908290030181865afa158015611c8d573d6000803e3d6000fd5b505050506040513d601f19601f82011682018060405250810190611cb19190612df0565b60405163163c131960e01b81529091506001600160a01b0382169063163c131990611cf09033908f908f908f908f908f908f908f908f9060040161330d565b600060405180830381600087803b158015611d0a57600080fd5b505af1158015611d1e573d6000803e3d6000fd5b505050505050505050505050505050565b600033611d3d858285611f75565b61155a858585612254565b6000611d548383611fe9565b606654604080516308cca7e360e01b815290516000926001600160a01b0316916308cca7e39160048083019260209291908290030181865afa158015611d9e573d6000803e3d6000fd5b505050506040513d601f19601f82011682018060405250810190611dc29190612df0565b604051631e46922b60e31b8152600481018590529091506001600160a01b0382169063f234915890602401600060405180830381600087803b158015611e0757600080fd5b505af1158015611e1b573d6000803e3d6000fd5b505050506000606660009054906101000a90046001600160a01b03166001600160a01b0316635e20d0e16040518163ffffffff1660e01b8152600401602060405180830381865afa158015611e74573d6000803e3d6000fd5b505050506040513d601f19601f82011682018060405250810190611e989190612df0565b6065546040516313ef24f760e11b81526001600160a01b038881166004830152602482019290925260448101879052600060648201529192508216906327de49ee906084016020604051808303816000875af1158015611efc573d6000803e3d6000fd5b505050506040513d601f19601f82011682018060405250810190611f2091906132cb565b604080516001600160a01b0388168152602081018790529081018290529093507fb3775f672e1adf43bf7834b692675bfee4db72f83e42da8cff694ca295a89eca9060600160405180910390a1505092915050565b6000611f81848461175c565b905060001981146114b45781811015611fdc5760405162461bcd60e51b815260206004820152601d60248201527f45524332303a20696e73756666696369656e7420616c6c6f77616e636500000060448201526064016105bf565b6114b48484848403611796565b6001600160a01b0382166120495760405162461bcd60e51b815260206004820152602160248201527f45524332303a206275726e2066726f6d20746865207a65726f206164647265736044820152607360f81b60648201526084016105bf565b6001600160a01b038216600090815260336020526040902054818110156120bd5760405162461bcd60e51b815260206004820152602260248201527f45524332303a206275726e20616d6f756e7420657863656564732062616c616e604482015261636560f01b60648201526084016105bf565b6001600160a01b03831660009081526033602052604081208383039055603580548492906120ec908490612ed4565b90915550506040518281526000906001600160a01b038516907fddf252ad1be2c89b69c2b068fc378daa952ba7f163c4a11628f55a4df523b3ef906020016118ae565b505050565b6000336104b3818585612254565b60008054610100900460ff1615612181578160ff1660011480156121655750303b155b6119495760405162461bcd60e51b81526004016105bf906133ab565b60005460ff8084169116106121a85760405162461bcd60e51b81526004016105bf906133ab565b506000805460ff191660ff92909216919091179055600190565b600054610100900460ff1661222d5760405162461bcd60e51b815260206004820152602b60248201527f496e697469616c697a61626c653a20636f6e7472616374206973206e6f74206960448201526a6e697469616c697a696e6760a81b60648201526084016105bf565b81516122409060369060208501906124f7565b50805161212f9060379060208401906124f7565b6001600160a01b0383166122b85760405162461bcd60e51b815260206004820152602560248201527f45524332303a207472616e736665722066726f6d20746865207a65726f206164604482015264647265737360d81b60648201526084016105bf565b6001600160a01b03821661231a5760405162461bcd60e51b815260206004820152602360248201527f45524332303a207472616e7366657220746f20746865207a65726f206164647260448201526265737360e81b60648201526084016105bf565b6001600160a01b038316600090815260336020526040902054818110156123925760405162461bcd60e51b815260206004820152602660248201527f45524332303a207472616e7366657220616d6f756e7420657863656564732062604482015265616c616e636560d01b60648201526084016105bf565b6001600160a01b038085166000908152603360205260408082208585039055918516815290812080548492906123c9908490613266565b92505081905550826001600160a01b0316846001600160a01b03167fddf252ad1be2c89b69c2b068fc378daa952ba7f163c4a11628f55a4df523b3ef8460405161241591815260200190565b60405180910390a36114b4565b6040518061016001604052806060815260200160006001600160401b0316815260200160006001600160401b031681526020016000815260200160006001600160401b03168152602001600015158152602001600015158152602001606081526020016060815260200160608152602001606081525090565b60405180610140016040528060608152602001606081526020016060815260200160608152602001606081526020016060815260200160608152602001606081526020016060815260200160006001600160a01b031681525090565b828054612503906133f9565b90600052602060002090601f016020900481019282612525576000855561256b565b82601f1061253e57805160ff191683800117855561256b565b8280016001018555821561256b579182015b8281111561256b578251825591602001919060010190612550565b5061257792915061257b565b5090565b5b80821115612577576000815560010161257c565b60005b838110156125ab578181015183820152602001612593565b838111156114b45750506000910152565b600081518084526125d4816020860160208601612590565b601f01601f19169290920160200192915050565b60208152600061046360208301846125bc565b6001600160a01b038116811461261057600080fd5b50565b6000806040838503121561262657600080fd5b8235612631816125fb565b946020939093013593505050565b60008083601f84011261265157600080fd5b5081356001600160401b0381111561266857600080fd5b60208301915083602082850101111561268057600080fd5b9250929050565b60008060008060006080868803121561269f57600080fd5b85356126aa816125fb565b945060208601356126ba816125fb565b93506040860135925060608601356001600160401b038111156126dc57600080fd5b6126e88882890161263f565b969995985093965092949392505050565b6000610160825181855261270f828601826125bc565b915050602083015161272c60208601826001600160401b03169052565b50604083015161274760408601826001600160401b03169052565b5060608301516060850152608083015161276c60808601826001600160401b03169052565b5060a083015161278060a086018215159052565b5060c083015161279460c086018215159052565b5060e083015184820360e08601526127ac82826125bc565b91505061010080840151858303828701526127c783826125bc565b9250505061012080840151858303828701526127e383826125bc565b9250505061014080840151858303828701526113a183826125bc565b604081526000835161014080604085015261281e6101808501836125bc565b91506020860151603f198086850301606087015261283c84836125bc565b9350604088015191508086850301608087015261285984836125bc565b935060608801519150808685030160a087015261287684836125bc565b935060808801519150808685030160c087015261289384836125bc565b935060a08801519150808685030160e08701526128b084836125bc565b935060c088015191506101008187860301818801526128cf85846125bc565b945060e089015192506101208288870301818901526128ee86856125bc565b9550818a0151935082888703018589015261290986856125bc565b9550808a015194505050505061292b6101608501826001600160a01b03169052565b50828103602084015261293e81856126f9565b95945050505050565b60008060008060008060008060a0898b03121561296357600080fd5b88356001600160401b038082111561297a57600080fd5b6129868c838d0161263f565b909a50985060208b0135915061299b826125fb565b90965060408a013590808211156129b157600080fd5b6129bd8c838d0161263f565b909750955060608b01359150808211156129d657600080fd5b506129e38b828c0161263f565b999c989b50969995989497949560800135949350505050565b600080600060608486031215612a1157600080fd5b8335612a1c816125fb565b92506020840135612a2c816125fb565b929592945050506040919091013590565b600060208284031215612a4f57600080fd5b5035919050565b604081526000612a6960408301856125bc565b828103602084015261293e81856125bc565b600060208284031215612a8d57600080fd5b8135610463816125fb565b634e487b7160e01b600052604160045260246000fd5b60405161016081016001600160401b0381118282101715612ad157612ad1612a98565b60405290565b60405161014081016001600160401b0381118282101715612ad157612ad1612a98565b604051601f8201601f191681016001600160401b0381118282101715612b2257612b22612a98565b604052919050565b60006001600160401b03821115612b4357612b43612a98565b50601f01601f191660200190565b600082601f830112612b6257600080fd5b8135612b75612b7082612b2a565b612afa565b818152846020838601011115612b8a57600080fd5b816020850160208301376000918101602001919091529392505050565b60008060008060808587031215612bbd57600080fd5b84356001600160401b0380821115612bd457600080fd5b612be088838901612b51565b95506020870135915080821115612bf657600080fd5b50612c0387828801612b51565b935050604085013591506060850135612c1b816125fb565b939692955090935050565b60008060408385031215612c3957600080fd5b8235612c44816125fb565b91506020830135612c54816125fb565b809150509250929050565b634e487b7160e01b600052601160045260246000fd5b600181815b80851115612cb0578160001904821115612c9657612c96612c5f565b80851615612ca357918102915b93841c9390800290612c7a565b509250929050565b600082612cc7575060016104b9565b81612cd4575060006104b9565b8160018114612cea5760028114612cf457612d10565b60019150506104b9565b60ff841115612d0557612d05612c5f565b50506001821b6104b9565b5060208310610133831016604e8410600b8410161715612d33575081810a6104b9565b612d3d8383612c75565b8060001904821115612d5157612d51612c5f565b029392505050565b600061046360ff841683612cb8565b6000816000190483118215151615612d8257612d82612c5f565b500290565b75546f7563616e2050726f746f636f6c3a2054434f322d60501b815260008351612db8816016850160208801612590565b602d60f81b6016918401918201528351612dd9816017840160208801612590565b01601701949350505050565b8051611951816125fb565b600060208284031215612e0257600080fd5b8151610463816125fb565b8051801515811461195157600080fd5b600060208284031215612e2f57600080fd5b61046382612e0d565b6020808252600b908201526a2830bab9b2b2102a21a79960a91b604082015260600190565b600080600060608486031215612e7257600080fd5b8351925060208401519150604084015160038110612e8f57600080fd5b809150509250925092565b634e487b7160e01b600052602160045260246000fd5b60008060408385031215612ec357600080fd5b505080516020909101519092909150565b600082821015612ee657612ee6612c5f565b500390565b600082601f830112612efc57600080fd5b8151612f0a612b7082612b2a565b818152846020838601011115612f1f57600080fd5b6111ca826020830160208701612590565b80516001600160401b038116811461195157600080fd5b600060208284031215612f5957600080fd5b81516001600160401b0380821115612f7057600080fd5b908301906101608286031215612f8557600080fd5b612f8d612aae565b825182811115612f9c57600080fd5b612fa887828601612eeb565b825250612fb760208401612f30565b6020820152612fc860408401612f30565b604082015260608301516060820152612fe360808401612f30565b6080820152612ff460a08401612e0d565b60a082015261300560c08401612e0d565b60c082015260e08301518281111561301c57600080fd5b61302887828601612eeb565b60e083015250610100808401518381111561304257600080fd5b61304e88828701612eeb565b828401525050610120808401518381111561306857600080fd5b61307488828701612eeb565b828401525050610140808401518381111561308e57600080fd5b61309a88828701612eeb565b918301919091525095945050505050565b6000602082840312156130bd57600080fd5b81516001600160401b03808211156130d457600080fd5b9083019061014082860312156130e957600080fd5b6130f1612ad7565b82518281111561310057600080fd5b61310c87828601612eeb565b82525060208301518281111561312157600080fd5b61312d87828601612eeb565b60208301525060408301518281111561314557600080fd5b61315187828601612eeb565b60408301525060608301518281111561316957600080fd5b61317587828601612eeb565b60608301525060808301518281111561318d57600080fd5b61319987828601612eeb565b60808301525060a0830151828111156131b157600080fd5b6131bd87828601612eeb565b60a08301525060c0830151828111156131d557600080fd5b6131e187828601612eeb565b60c08301525060e0830151828111156131f957600080fd5b61320587828601612eeb565b60e083015250610100808401518381111561321f57600080fd5b61322b88828701612eeb565b8284015250506101209150613241828401612de5565b91810191909152949350505050565b634e487b7160e01b600052603260045260246000fd5b6000821982111561327957613279612c5f565b500190565b6454434f322d60d81b81526000835161329e816005850160208801612590565b602d60f81b60059184019182015283516132bf816006840160208801612590565b01600601949350505050565b6000602082840312156132dd57600080fd5b5051919050565b81835281816020850137506000828201602090810191909152601f909101601f19169091010190565b600060018060a01b03808c168352602060c08185015261333160c085018c8e6132e4565b828b166040860152848103606086015261334c818a8c6132e4565b92505083820360808501526133628287896132e4565b84810360a0860152855180825282870193509082019060005b818110156133975784518352938301939183019160010161337b565b50909e9d5050505050505050505050505050565b6020808252602e908201527f496e697469616c697a61626c653a20636f6e747261637420697320616c72656160408201526d191e481a5b9a5d1a585b1a5e995960921b606082015260800190565b600181811c9082168061340d57607f821691505b60208210810361342d57634e487b7160e01b600052602260045260246000fd5b5091905056fea2646970667358221220cceb2b1ac02826f6df760d8fe00795a69b3c1ae5b1e3525df9eeba4e59579fe964736f6c634300080e0033496e697469616c697a61626c653a20636f6e747261637420697320616c726561",
  "devdoc": {
    "details": "Each TCO2 contract is deployed via a Beacon Proxy in `ToucanCarbonOffsetsFactory`",
    "kind": "dev",
    "methods": {
      "allowance(address,address)": {
        "details": "See {IERC20-allowance}."
      },
      "approve(address,uint256)": {
        "details": "See {IERC20-approve}. NOTE: If `amount` is the maximum `uint256`, the allowance is not updated on `transferFrom`. This is semantically equivalent to an infinite approval. Requirements: - `spender` cannot be the zero address."
      },
      "balanceOf(address)": {
        "details": "See {IERC20-balanceOf}."
      },
      "burnFrom(address,uint256)": {
        "params": {
          "account": "The user for whom to burn TCO2",
          "amount": "The amount to burn"
        }
      },
      "constructor": {
        "custom:oz-upgrades-unsafe-allow": "constructor"
      },
      "decimals()": {
        "details": "Returns the number of decimals used to get its user representation. For example, if `decimals` equals `2`, a balance of `505` tokens should be displayed to a user as `5.05` (`505 / 10 ** 2`). Tokens usually opt for a value of 18, imitating the relationship between Ether and Wei. This is the value {ERC20} uses, unless this function is overridden; NOTE: This information is only used for _display_ purposes: it in no way affects any of the arithmetic of the contract, including {IERC20-balanceOf} and {IERC20-transfer}."
      },
      "decreaseAllowance(address,uint256)": {
        "details": "Atomically decreases the allowance granted to `spender` by the caller. This is an alternative to {approve} that can be used as a mitigation for problems described in {IERC20-approve}. Emits an {Approval} event indicating the updated allowance. Requirements: - `spender` cannot be the zero address. - `spender` must have allowance for the caller of at least `subtractedValue`."
      },
      "getAttributes()": {
        "details": "Function to get corresponding attributes from the CarbonProjects"
      },
      "getDepositCap()": {
        "details": "Returns the cap for TCO2s based on `totalVintageQuantity` Returns `~unlimited` if the value for the vintage is not set"
      },
      "getGlobalProjectVintageIdentifiers()": {
        "details": "Helper function to retrieve data fragments for `name()` and `symbol()`"
      },
      "getRemaining()": {
        "details": "Returns the remaining space in TCO2 contract before hitting the cap"
      },
      "increaseAllowance(address,uint256)": {
        "details": "Atomically increases the allowance granted to `spender` by the caller. This is an alternative to {approve} that can be used as a mitigation for problems described in {IERC20-approve}. Emits an {Approval} event indicating the updated allowance. Requirements: - `spender` cannot be the zero address."
      },
      "mintCertificateLegacy(string,address,string,string,uint256)": {
        "params": {
          "amount": "The amount to issue an NFT certificate for.",
          "beneficiary": "The beneficiary to set in the NFT.",
          "beneficiaryString": "The beneficiaryString to set in the NFT.",
          "retirementMessage": "The retirementMessage to set in the NFT.",
          "retiringEntityString": "An identifiable string for the retiring entity, eg. their name."
        }
      },
      "onERC721Received(address,address,uint256,bytes)": {
        "details": "Function is called with `operator` as `_msgSender()` in a reference implementation by OZ `from` is the previous owner, not necessarily the same as operator. The hook checks if NFT collection is whitelisted and next if attributes are matching this ERC20 contract"
      },
      "retireAndMintCertificate(string,address,string,string,uint256)": {
        "params": {
          "amount": "The amount to retire and issue an NFT certificate for.",
          "beneficiary": "The beneficiary to set in the NFT.",
          "beneficiaryString": "The beneficiaryString to set in the NFT.",
          "retirementMessage": "The retirementMessage to set in the NFT.",
          "retiringEntityString": "An identifiable string for the retiring entity, eg. their name."
        }
      },
      "retireFrom(address,uint256)": {
        "details": "Allow for pools or third party contracts to retire for the user Requires approval"
      },
      "totalSupply()": {
        "details": "See {IERC20-totalSupply}."
      },
      "version()": {
        "details": "Returns the current version of the smart contract"
      }
    },
    "version": 1
  },
  "userdoc": {
    "kind": "user",
    "methods": {
      "burnFrom(address,uint256)": {
        "notice": "Burn TCO2 on behalf of a user. msg.sender needs to be approved by the account for the burn to be successfull. This function is exposed so it can be utilized to burn credits without retiring them (eg. dispose HFC-23)."
      },
      "mintCertificateLegacy(string,address,string,string,uint256)": {
        "notice": "Mint an NFT showing how many tonnes of CO2 have been retired/cancelled amount is deprecated and used only for backwards-compatibility reasons Going forward users should mint NFT directly in the RetirementCertificates contract."
      },
      "name()": {
        "notice": "Token name getter overriden to return the a name based on the carbon project data"
      },
      "onERC721Received(address,address,uint256,bytes)": {
        "notice": "Receive hook to fractionalize Batch-NFTs into ERC20's"
      },
      "retire(uint256)": {
        "notice": "Retirement/Cancellation of TCO2 tokens (the actual offsetting), which results in the tokens being burnt"
      },
      "retireAndMintCertificate(string,address,string,string,uint256)": {
        "notice": "Retire an amount of TCO2s, register an retirement event then mint a certificate passing a single retirementEventId."
      },
      "symbol()": {
        "notice": "Token symbol getter overriden to return the a symbol based on the carbon project data"
      }
    },
    "notice": "Implementation contract of the TCO2 tokens (ERC20) These tokenized carbon offsets are specific to a vintage and its associated attributes In order to mint TCO2s a user must deposit a matching CarbonOffsetBatch",
    "version": 1
  },
  "storageLayout": {
    "storage": [
      {
        "astId": 932,
        "contract": "contracts/ToucanCarbonOffsets.sol:ToucanCarbonOffsets",
        "label": "_initialized",
        "offset": 0,
        "slot": "0",
        "type": "t_uint8"
      },
      {
        "astId": 935,
        "contract": "contracts/ToucanCarbonOffsets.sol:ToucanCarbonOffsets",
        "label": "_initializing",
        "offset": 1,
        "slot": "0",
        "type": "t_bool"
      },
      {
        "astId": 3977,
        "contract": "contracts/ToucanCarbonOffsets.sol:ToucanCarbonOffsets",
        "label": "__gap",
        "offset": 0,
        "slot": "1",
        "type": "t_array(t_uint256)50_storage"
      },
      {
        "astId": 1333,
        "contract": "contracts/ToucanCarbonOffsets.sol:ToucanCarbonOffsets",
        "label": "_balances",
        "offset": 0,
        "slot": "51",
        "type": "t_mapping(t_address,t_uint256)"
      },
      {
        "astId": 1339,
        "contract": "contracts/ToucanCarbonOffsets.sol:ToucanCarbonOffsets",
        "label": "_allowances",
        "offset": 0,
        "slot": "52",
        "type": "t_mapping(t_address,t_mapping(t_address,t_uint256))"
      },
      {
        "astId": 1341,
        "contract": "contracts/ToucanCarbonOffsets.sol:ToucanCarbonOffsets",
        "label": "_totalSupply",
        "offset": 0,
        "slot": "53",
        "type": "t_uint256"
      },
      {
        "astId": 1343,
        "contract": "contracts/ToucanCarbonOffsets.sol:ToucanCarbonOffsets",
        "label": "_name",
        "offset": 0,
        "slot": "54",
        "type": "t_string_storage"
      },
      {
        "astId": 1345,
        "contract": "contracts/ToucanCarbonOffsets.sol:ToucanCarbonOffsets",
        "label": "_symbol",
        "offset": 0,
        "slot": "55",
        "type": "t_string_storage"
      },
      {
        "astId": 1924,
        "contract": "contracts/ToucanCarbonOffsets.sol:ToucanCarbonOffsets",
        "label": "__gap",
        "offset": 0,
        "slot": "56",
        "type": "t_array(t_uint256)45_storage"
      },
      {
        "astId": 9266,
        "contract": "contracts/ToucanCarbonOffsets.sol:ToucanCarbonOffsets",
        "label": "projectVintageTokenId",
        "offset": 0,
        "slot": "101",
        "type": "t_uint256"
      },
      {
        "astId": 9268,
        "contract": "contracts/ToucanCarbonOffsets.sol:ToucanCarbonOffsets",
        "label": "contractRegistry",
        "offset": 0,
        "slot": "102",
        "type": "t_address"
      },
      {
        "astId": 9272,
        "contract": "contracts/ToucanCarbonOffsets.sol:ToucanCarbonOffsets",
        "label": "minterToId",
        "offset": 0,
        "slot": "103",
        "type": "t_mapping(t_address,t_uint256)"
      },
      {
        "astId": 9277,
        "contract": "contracts/ToucanCarbonOffsets.sol:ToucanCarbonOffsets",
        "label": "retiredAmount",
        "offset": 0,
        "slot": "104",
        "type": "t_mapping(t_address,t_uint256)"
      }
    ],
    "types": {
      "t_address": {
        "encoding": "inplace",
        "label": "address",
        "numberOfBytes": "20"
      },
      "t_array(t_uint256)45_storage": {
        "base": "t_uint256",
        "encoding": "inplace",
        "label": "uint256[45]",
        "numberOfBytes": "1440"
      },
      "t_array(t_uint256)50_storage": {
        "base": "t_uint256",
        "encoding": "inplace",
        "label": "uint256[50]",
        "numberOfBytes": "1600"
      },
      "t_bool": {
        "encoding": "inplace",
        "label": "bool",
        "numberOfBytes": "1"
      },
      "t_mapping(t_address,t_mapping(t_address,t_uint256))": {
        "encoding": "mapping",
        "key": "t_address",
        "label": "mapping(address => mapping(address => uint256))",
        "numberOfBytes": "32",
        "value": "t_mapping(t_address,t_uint256)"
      },
      "t_mapping(t_address,t_uint256)": {
        "encoding": "mapping",
        "key": "t_address",
        "label": "mapping(address => uint256)",
        "numberOfBytes": "32",
        "value": "t_uint256"
      },
      "t_string_storage": {
        "encoding": "bytes",
        "label": "string",
        "numberOfBytes": "32"
      },
      "t_uint256": {
        "encoding": "inplace",
        "label": "uint256",
        "numberOfBytes": "32"
      },
      "t_uint8": {
        "encoding": "inplace",
        "label": "uint8",
        "numberOfBytes": "1"
      }
    }
  }
}