{
  "address": "0xf2438A14f668b1bbA53408346288f3d7C71c10a1",
  "abi": [
    {
      "inputs": [],
      "stateMutability": "nonpayable",
      "type": "constructor"
    },
    {
      "anonymous": false,
      "inputs": [
        {
          "indexed": false,
          "internalType": "address",
          "name": "tco2",
          "type": "address"
        }
      ],
      "name": "AddFeeExemptedTCO2",
      "type": "event"
    },
    {
      "anonymous": false,
      "inputs": [
        {
          "indexed": false,
          "internalType": "address",
          "name": "previousAdmin",
          "type": "address"
        },
        {
          "indexed": false,
          "internalType": "address",
          "name": "newAdmin",
          "type": "address"
        }
      ],
      "name": "AdminChanged",
      "type": "event"
    },
    {
      "anonymous": false,
      "inputs": [
        {
          "indexed": true,
          "internalType": "address",
          "name": "owner",
          "type": "address"
        },
        {
          "indexed": true,
          "internalType": "address",
          "name": "spender",
          "type": "address"
        },
        {
          "indexed": false,
          "internalType": "uint256",
          "name": "value",
          "type": "uint256"
        }
      ],
      "name": "Approval",
      "type": "event"
    },
    {
      "anonymous": false,
      "inputs": [
        {
          "indexed": false,
          "internalType": "string",
          "name": "methodology",
          "type": "string"
        }
      ],
      "name": "AttributeMethodologyAdded",
      "type": "event"
    },
    {
      "anonymous": false,
      "inputs": [
        {
          "indexed": false,
          "internalType": "string",
          "name": "methodology",
          "type": "string"
        }
      ],
      "name": "AttributeMethodologyRemoved",
      "type": "event"
    },
    {
      "anonymous": false,
      "inputs": [
        {
          "indexed": false,
          "internalType": "string",
          "name": "region",
          "type": "string"
        }
      ],
      "name": "AttributeRegionAdded",
      "type": "event"
    },
    {
      "anonymous": false,
      "inputs": [
        {
          "indexed": false,
          "internalType": "string",
          "name": "region",
          "type": "string"
        }
      ],
      "name": "AttributeRegionRemoved",
      "type": "event"
    },
    {
      "anonymous": false,
      "inputs": [
        {
          "indexed": false,
          "internalType": "string",
          "name": "standard",
          "type": "string"
        }
      ],
      "name": "AttributeStandardAdded",
      "type": "event"
    },
    {
      "anonymous": false,
      "inputs": [
        {
          "indexed": false,
          "internalType": "string",
          "name": "standard",
          "type": "string"
        }
      ],
      "name": "AttributeStandardRemoved",
      "type": "event"
    },
    {
      "anonymous": false,
      "inputs": [
        {
          "indexed": true,
          "internalType": "address",
          "name": "beacon",
          "type": "address"
        }
      ],
      "name": "BeaconUpgraded",
      "type": "event"
    },
    {
      "anonymous": false,
      "inputs": [
        {
          "indexed": false,
          "internalType": "address",
          "name": "erc20Addr",
          "type": "address"
        },
        {
          "indexed": false,
          "internalType": "uint256",
          "name": "amount",
          "type": "uint256"
        }
      ],
      "name": "Deposited",
      "type": "event"
    },
    {
      "anonymous": false,
      "inputs": [
        {
          "indexed": false,
          "internalType": "address",
          "name": "erc20addr",
          "type": "address"
        }
      ],
      "name": "ExternalAddressRemovedFromWhitelist",
      "type": "event"
    },
    {
      "anonymous": false,
      "inputs": [
        {
          "indexed": false,
          "internalType": "address",
          "name": "erc20addr",
          "type": "address"
        }
      ],
      "name": "ExternalAddressWhitelisted",
      "type": "event"
    },
    {
      "anonymous": false,
      "inputs": [
        {
          "indexed": false,
          "internalType": "uint8",
          "name": "version",
          "type": "uint8"
        }
      ],
      "name": "Initialized",
      "type": "event"
    },
    {
      "anonymous": false,
      "inputs": [
        {
          "indexed": false,
          "internalType": "address",
          "name": "erc20addr",
          "type": "address"
        }
      ],
      "name": "InternalAddressBlacklisted",
      "type": "event"
    },
    {
      "anonymous": false,
      "inputs": [
        {
          "indexed": false,
          "internalType": "address",
          "name": "erc20addr",
          "type": "address"
        }
      ],
      "name": "InternalAddressRemovedFromBlackList",
      "type": "event"
    },
    {
      "anonymous": false,
      "inputs": [
        {
          "indexed": false,
          "internalType": "address",
          "name": "erc20addr",
          "type": "address"
        }
      ],
      "name": "InternalAddressRemovedFromWhitelist",
      "type": "event"
    },
    {
      "anonymous": false,
      "inputs": [
        {
          "indexed": false,
          "internalType": "address",
          "name": "erc20addr",
          "type": "address"
        }
      ],
      "name": "InternalAddressWhitelisted",
      "type": "event"
    },
    {
      "anonymous": false,
      "inputs": [
        {
          "indexed": false,
          "internalType": "string",
          "name": "mappingName",
          "type": "string"
        },
        {
          "indexed": false,
          "internalType": "bool",
          "name": "accepted",
          "type": "bool"
        }
      ],
      "name": "MappingSwitched",
      "type": "event"
    },
    {
      "anonymous": false,
      "inputs": [
        {
          "indexed": false,
          "internalType": "uint256",
          "name": "minimumVintageStartTime",
          "type": "uint256"
        }
      ],
      "name": "MinimumVintageStartTimeUpdated",
      "type": "event"
    },
    {
      "anonymous": false,
      "inputs": [
        {
          "indexed": true,
          "internalType": "address",
          "name": "previousOwner",
          "type": "address"
        },
        {
          "indexed": true,
          "internalType": "address",
          "name": "newOwner",
          "type": "address"
        }
      ],
      "name": "OwnershipTransferred",
      "type": "event"
    },
    {
      "anonymous": false,
      "inputs": [
        {
          "indexed": false,
          "internalType": "address",
          "name": "account",
          "type": "address"
        }
      ],
      "name": "Paused",
      "type": "event"
    },
    {
      "anonymous": false,
      "inputs": [
        {
          "indexed": false,
          "internalType": "address",
          "name": "redeemer",
          "type": "address"
        },
        {
          "indexed": false,
          "internalType": "uint256",
          "name": "fees",
          "type": "uint256"
        }
      ],
      "name": "RedeemFeeBurnt",
      "type": "event"
    },
    {
      "anonymous": false,
      "inputs": [
        {
          "indexed": false,
          "internalType": "address",
          "name": "redeemer",
          "type": "address"
        },
        {
          "indexed": false,
          "internalType": "uint256",
          "name": "fees",
          "type": "uint256"
        }
      ],
      "name": "RedeemFeePaid",
      "type": "event"
    },
    {
      "anonymous": false,
      "inputs": [
        {
          "indexed": false,
          "internalType": "address",
          "name": "account",
          "type": "address"
        },
        {
          "indexed": false,
          "internalType": "address",
          "name": "erc20",
          "type": "address"
        },
        {
          "indexed": false,
          "internalType": "uint256",
          "name": "amount",
          "type": "uint256"
        }
      ],
      "name": "Redeemed",
      "type": "event"
    },
    {
      "anonymous": false,
      "inputs": [
        {
          "indexed": false,
          "internalType": "address",
          "name": "tco2",
          "type": "address"
        }
      ],
      "name": "RemoveFeeExemptedTCO2",
      "type": "event"
    },
    {
      "anonymous": false,
      "inputs": [
        {
          "indexed": true,
          "internalType": "bytes32",
          "name": "role",
          "type": "bytes32"
        },
        {
          "indexed": true,
          "internalType": "bytes32",
          "name": "previousAdminRole",
          "type": "bytes32"
        },
        {
          "indexed": true,
          "internalType": "bytes32",
          "name": "newAdminRole",
          "type": "bytes32"
        }
      ],
      "name": "RoleAdminChanged",
      "type": "event"
    },
    {
      "anonymous": false,
      "inputs": [
        {
          "indexed": true,
          "internalType": "bytes32",
          "name": "role",
          "type": "bytes32"
        },
        {
          "indexed": true,
          "internalType": "address",
          "name": "account",
          "type": "address"
        },
        {
          "indexed": true,
          "internalType": "address",
          "name": "sender",
          "type": "address"
        }
      ],
      "name": "RoleGranted",
      "type": "event"
    },
    {
      "anonymous": false,
      "inputs": [
        {
          "indexed": true,
          "internalType": "bytes32",
          "name": "role",
          "type": "bytes32"
        },
        {
          "indexed": true,
          "internalType": "address",
          "name": "account",
          "type": "address"
        },
        {
          "indexed": true,
          "internalType": "address",
          "name": "sender",
          "type": "address"
        }
      ],
      "name": "RoleRevoked",
      "type": "event"
    },
    {
      "anonymous": false,
      "inputs": [
        {
          "indexed": false,
          "internalType": "uint256",
          "name": "newCap",
          "type": "uint256"
        }
      ],
      "name": "SupplyCapUpdated",
      "type": "event"
    },
    {
      "anonymous": false,
      "inputs": [
        {
          "indexed": false,
          "internalType": "address[]",
          "name": "tco2s",
          "type": "address[]"
        }
      ],
      "name": "TCO2ScoringUpdated",
      "type": "event"
    },
    {
      "anonymous": false,
      "inputs": [
        {
          "indexed": false,
          "internalType": "address",
          "name": "ContractRegistry",
          "type": "address"
        }
      ],
      "name": "ToucanRegistrySet",
      "type": "event"
    },
    {
      "anonymous": false,
      "inputs": [
        {
          "indexed": true,
          "internalType": "address",
          "name": "from",
          "type": "address"
        },
        {
          "indexed": true,
          "internalType": "address",
          "name": "to",
          "type": "address"
        },
        {
          "indexed": false,
          "internalType": "uint256",
          "name": "value",
          "type": "uint256"
        }
      ],
      "name": "Transfer",
      "type": "event"
    },
    {
      "anonymous": false,
      "inputs": [
        {
          "indexed": false,
          "internalType": "address",
          "name": "account",
          "type": "address"
        }
      ],
      "name": "Unpaused",
      "type": "event"
    },
    {
      "anonymous": false,
      "inputs": [
        {
          "indexed": true,
          "internalType": "address",
          "name": "implementation",
          "type": "address"
        }
      ],
      "name": "Upgraded",
      "type": "event"
    },
    {
      "inputs": [],
      "name": "DEFAULT_ADMIN_ROLE",
      "outputs": [
        {
          "internalType": "bytes32",
          "name": "",
          "type": "bytes32"
        }
      ],
      "stateMutability": "view",
      "type": "function"
    },
    {
      "inputs": [],
      "name": "MANAGER_ROLE",
      "outputs": [
        {
          "internalType": "bytes32",
          "name": "",
          "type": "bytes32"
        }
      ],
      "stateMutability": "view",
      "type": "function"
    },
    {
      "inputs": [],
      "name": "PAUSER_ROLE",
      "outputs": [
        {
          "internalType": "bytes32",
          "name": "",
          "type": "bytes32"
        }
      ],
      "stateMutability": "view",
      "type": "function"
    },
    {
      "inputs": [
        {
          "internalType": "bool",
          "name": "addToList",
          "type": "bool"
        },
        {
          "internalType": "string[]",
          "name": "_regions",
          "type": "string[]"
        },
        {
          "internalType": "string[]",
          "name": "_standards",
          "type": "string[]"
        },
        {
          "internalType": "string[]",
          "name": "_methodologies",
          "type": "string[]"
        }
      ],
      "name": "addAttributes",
      "outputs": [],
      "stateMutability": "nonpayable",
      "type": "function"
    },
    {
      "inputs": [
        {
          "internalType": "address",
          "name": "_address",
          "type": "address"
        }
      ],
      "name": "addRedeemFeeExemptedAddress",
      "outputs": [],
      "stateMutability": "nonpayable",
      "type": "function"
    },
    {
      "inputs": [
        {
          "internalType": "address",
          "name": "_tco2",
          "type": "address"
        }
      ],
      "name": "addRedeemFeeExemptedTCO2",
      "outputs": [],
      "stateMutability": "nonpayable",
      "type": "function"
    },
    {
      "inputs": [
        {
          "internalType": "address[]",
          "name": "erc20Addr",
          "type": "address[]"
        }
      ],
      "name": "addToExternalWhiteList",
      "outputs": [],
      "stateMutability": "nonpayable",
      "type": "function"
    },
    {
      "inputs": [
        {
          "internalType": "address[]",
          "name": "erc20Addr",
          "type": "address[]"
        }
      ],
      "name": "addToInternalBlackList",
      "outputs": [],
      "stateMutability": "nonpayable",
      "type": "function"
    },
    {
      "inputs": [
        {
          "internalType": "address[]",
          "name": "erc20Addr",
          "type": "address[]"
        }
      ],
      "name": "addToInternalWhiteList",
      "outputs": [],
      "stateMutability": "nonpayable",
      "type": "function"
    },
    {
      "inputs": [
        {
          "internalType": "address",
          "name": "owner",
          "type": "address"
        },
        {
          "internalType": "address",
          "name": "spender",
          "type": "address"
        }
      ],
      "name": "allowance",
      "outputs": [
        {
          "internalType": "uint256",
          "name": "",
          "type": "uint256"
        }
      ],
      "stateMutability": "view",
      "type": "function"
    },
    {
      "inputs": [
        {
          "internalType": "address",
          "name": "spender",
          "type": "address"
        },
        {
          "internalType": "uint256",
          "name": "amount",
          "type": "uint256"
        }
      ],
      "name": "approve",
      "outputs": [
        {
          "internalType": "bool",
          "name": "",
          "type": "bool"
        }
      ],
      "stateMutability": "nonpayable",
      "type": "function"
    },
    {
      "inputs": [
        {
          "internalType": "address",
          "name": "account",
          "type": "address"
        }
      ],
      "name": "balanceOf",
      "outputs": [
        {
          "internalType": "uint256",
          "name": "",
          "type": "uint256"
        }
      ],
      "stateMutability": "view",
      "type": "function"
    },
    {
      "inputs": [
        {
          "internalType": "address",
          "name": "_account",
          "type": "address"
        },
        {
          "internalType": "uint256",
          "name": "_amount",
          "type": "uint256"
        }
      ],
      "name": "bridgeBurn",
      "outputs": [],
      "stateMutability": "nonpayable",
      "type": "function"
    },
    {
      "inputs": [
        {
          "internalType": "address",
          "name": "_account",
          "type": "address"
        },
        {
          "internalType": "uint256",
          "name": "_amount",
          "type": "uint256"
        }
      ],
      "name": "bridgeMint",
      "outputs": [],
      "stateMutability": "nonpayable",
      "type": "function"
    },
    {
      "inputs": [
        {
          "internalType": "address[]",
          "name": "tco2s",
          "type": "address[]"
        },
        {
          "internalType": "uint256[]",
          "name": "amounts",
          "type": "uint256[]"
        }
      ],
      "name": "calculateRedeemFees",
      "outputs": [
        {
          "internalType": "uint256",
          "name": "",
          "type": "uint256"
        }
      ],
      "stateMutability": "view",
      "type": "function"
    },
    {
      "inputs": [
        {
          "internalType": "address",
          "name": "erc20Addr",
          "type": "address"
        }
      ],
      "name": "checkAttributeMatching",
      "outputs": [
        {
          "internalType": "bool",
          "name": "",
          "type": "bool"
        }
      ],
      "stateMutability": "view",
      "type": "function"
    },
    {
      "inputs": [
        {
          "internalType": "address",
          "name": "erc20Addr",
          "type": "address"
        }
      ],
      "name": "checkEligible",
      "outputs": [
        {
          "internalType": "bool",
          "name": "",
          "type": "bool"
        }
      ],
      "stateMutability": "view",
      "type": "function"
    },
    {
      "inputs": [],
      "name": "contractRegistry",
      "outputs": [
        {
          "internalType": "address",
          "name": "",
          "type": "address"
        }
      ],
      "stateMutability": "view",
      "type": "function"
    },
    {
      "inputs": [],
      "name": "decimals",
      "outputs": [
        {
          "internalType": "uint8",
          "name": "",
          "type": "uint8"
        }
      ],
      "stateMutability": "view",
      "type": "function"
    },
    {
      "inputs": [
        {
          "internalType": "address",
          "name": "spender",
          "type": "address"
        },
        {
          "internalType": "uint256",
          "name": "subtractedValue",
          "type": "uint256"
        }
      ],
      "name": "decreaseAllowance",
      "outputs": [
        {
          "internalType": "bool",
          "name": "",
          "type": "bool"
        }
      ],
      "stateMutability": "nonpayable",
      "type": "function"
    },
    {
      "inputs": [
        {
          "internalType": "address",
          "name": "erc20Addr",
          "type": "address"
        },
        {
          "internalType": "uint256",
          "name": "amount",
          "type": "uint256"
        }
      ],
      "name": "deposit",
      "outputs": [],
      "stateMutability": "nonpayable",
      "type": "function"
    },
    {
      "inputs": [
        {
          "internalType": "address",
          "name": "",
          "type": "address"
        }
      ],
      "name": "externalWhiteList",
      "outputs": [
        {
          "internalType": "bool",
          "name": "",
          "type": "bool"
        }
      ],
      "stateMutability": "view",
      "type": "function"
    },
    {
      "inputs": [],
      "name": "feeRedeemBurnAddress",
      "outputs": [
        {
          "internalType": "address",
          "name": "",
          "type": "address"
        }
      ],
      "stateMutability": "view",
      "type": "function"
    },
    {
      "inputs": [],
      "name": "feeRedeemBurnPercentageInBase",
      "outputs": [
        {
          "internalType": "uint256",
          "name": "",
          "type": "uint256"
        }
      ],
      "stateMutability": "view",
      "type": "function"
    },
    {
      "inputs": [],
      "name": "feeRedeemDivider",
      "outputs": [
        {
          "internalType": "uint256",
          "name": "",
          "type": "uint256"
        }
      ],
      "stateMutability": "view",
      "type": "function"
    },
    {
      "inputs": [],
      "name": "feeRedeemPercentageInBase",
      "outputs": [
        {
          "internalType": "uint256",
          "name": "",
          "type": "uint256"
        }
      ],
      "stateMutability": "view",
      "type": "function"
    },
    {
      "inputs": [],
      "name": "feeRedeemReceiver",
      "outputs": [
        {
          "internalType": "address",
          "name": "",
          "type": "address"
        }
      ],
      "stateMutability": "view",
      "type": "function"
    },
    {
      "inputs": [],
      "name": "getRemaining",
      "outputs": [
        {
          "internalType": "uint256",
          "name": "",
          "type": "uint256"
        }
      ],
      "stateMutability": "view",
      "type": "function"
    },
    {
      "inputs": [
        {
          "internalType": "bytes32",
          "name": "role",
          "type": "bytes32"
        }
      ],
      "name": "getRoleAdmin",
      "outputs": [
        {
          "internalType": "bytes32",
          "name": "",
          "type": "bytes32"
        }
      ],
      "stateMutability": "view",
      "type": "function"
    },
    {
      "inputs": [],
      "name": "getScoredTCO2s",
      "outputs": [
        {
          "internalType": "address[]",
          "name": "",
          "type": "address[]"
        }
      ],
      "stateMutability": "view",
      "type": "function"
    },
    {
      "inputs": [
        {
          "internalType": "bytes32",
          "name": "role",
          "type": "bytes32"
        },
        {
          "internalType": "address",
          "name": "account",
          "type": "address"
        }
      ],
      "name": "grantRole",
      "outputs": [],
      "stateMutability": "nonpayable",
      "type": "function"
    },
    {
      "inputs": [
        {
          "internalType": "bytes32",
          "name": "role",
          "type": "bytes32"
        },
        {
          "internalType": "address",
          "name": "account",
          "type": "address"
        }
      ],
      "name": "hasRole",
      "outputs": [
        {
          "internalType": "bool",
          "name": "",
          "type": "bool"
        }
      ],
      "stateMutability": "view",
      "type": "function"
    },
    {
      "inputs": [
        {
          "internalType": "address",
          "name": "spender",
          "type": "address"
        },
        {
          "internalType": "uint256",
          "name": "addedValue",
          "type": "uint256"
        }
      ],
      "name": "increaseAllowance",
      "outputs": [
        {
          "internalType": "bool",
          "name": "",
          "type": "bool"
        }
      ],
      "stateMutability": "nonpayable",
      "type": "function"
    },
    {
      "inputs": [],
      "name": "initialize",
      "outputs": [],
      "stateMutability": "nonpayable",
      "type": "function"
    },
    {
      "inputs": [
        {
          "internalType": "address",
          "name": "",
          "type": "address"
        }
      ],
      "name": "internalBlackList",
      "outputs": [
        {
          "internalType": "bool",
          "name": "",
          "type": "bool"
        }
      ],
      "stateMutability": "view",
      "type": "function"
    },
    {
      "inputs": [
        {
          "internalType": "address",
          "name": "",
          "type": "address"
        }
      ],
      "name": "internalWhiteList",
      "outputs": [
        {
          "internalType": "bool",
          "name": "",
          "type": "bool"
        }
      ],
      "stateMutability": "view",
      "type": "function"
    },
    {
      "inputs": [
        {
          "internalType": "string",
          "name": "",
          "type": "string"
        }
      ],
      "name": "methodologies",
      "outputs": [
        {
          "internalType": "bool",
          "name": "",
          "type": "bool"
        }
      ],
      "stateMutability": "view",
      "type": "function"
    },
    {
      "inputs": [],
      "name": "methodologiesIsAcceptedMapping",
      "outputs": [
        {
          "internalType": "bool",
          "name": "",
          "type": "bool"
        }
      ],
      "stateMutability": "view",
      "type": "function"
    },
    {
      "inputs": [],
      "name": "minimumVintageStartTime",
      "outputs": [
        {
          "internalType": "uint64",
          "name": "",
          "type": "uint64"
        }
      ],
      "stateMutability": "view",
      "type": "function"
    },
    {
      "inputs": [],
      "name": "name",
      "outputs": [
        {
          "internalType": "string",
          "name": "",
          "type": "string"
        }
      ],
      "stateMutability": "view",
      "type": "function"
    },
    {
      "inputs": [],
      "name": "owner",
      "outputs": [
        {
          "internalType": "address",
          "name": "",
          "type": "address"
        }
      ],
      "stateMutability": "view",
      "type": "function"
    },
    {
      "inputs": [],
      "name": "pause",
      "outputs": [],
      "stateMutability": "nonpayable",
      "type": "function"
    },
    {
      "inputs": [],
      "name": "paused",
      "outputs": [
        {
          "internalType": "bool",
          "name": "",
          "type": "bool"
        }
      ],
      "stateMutability": "view",
      "type": "function"
    },
    {
      "inputs": [],
      "name": "proxiableUUID",
      "outputs": [
        {
          "internalType": "bytes32",
          "name": "",
          "type": "bytes32"
        }
      ],
      "stateMutability": "view",
      "type": "function"
    },
    {
      "inputs": [
        {
          "internalType": "address",
          "name": "tco2",
          "type": "address"
        },
        {
          "internalType": "uint256",
          "name": "amount",
          "type": "uint256"
        }
      ],
      "name": "redeemAndBurn",
      "outputs": [],
      "stateMutability": "nonpayable",
      "type": "function"
    },
    {
      "inputs": [
        {
          "internalType": "uint256",
          "name": "amount",
          "type": "uint256"
        }
      ],
      "name": "redeemAuto",
      "outputs": [],
      "stateMutability": "nonpayable",
      "type": "function"
    },
    {
      "inputs": [
        {
          "internalType": "uint256",
          "name": "amount",
          "type": "uint256"
        }
      ],
      "name": "redeemAuto2",
      "outputs": [
        {
          "internalType": "address[]",
          "name": "tco2s",
          "type": "address[]"
        },
        {
          "internalType": "uint256[]",
          "name": "amounts",
          "type": "uint256[]"
        }
      ],
      "stateMutability": "nonpayable",
      "type": "function"
    },
    {
      "inputs": [
        {
          "internalType": "address",
          "name": "",
          "type": "address"
        }
      ],
      "name": "redeemFeeExemptedAddresses",
      "outputs": [
        {
          "internalType": "bool",
          "name": "",
          "type": "bool"
        }
      ],
      "stateMutability": "view",
      "type": "function"
    },
    {
      "inputs": [
        {
          "internalType": "address",
          "name": "",
          "type": "address"
        }
      ],
      "name": "redeemFeeExemptedTCO2s",
      "outputs": [
        {
          "internalType": "bool",
          "name": "",
          "type": "bool"
        }
      ],
      "stateMutability": "view",
      "type": "function"
    },
    {
      "inputs": [
        {
          "internalType": "address[]",
          "name": "erc20s",
          "type": "address[]"
        },
        {
          "internalType": "uint256[]",
          "name": "amounts",
          "type": "uint256[]"
        }
      ],
      "name": "redeemMany",
      "outputs": [],
      "stateMutability": "nonpayable",
      "type": "function"
    },
    {
      "inputs": [
        {
          "internalType": "string",
          "name": "",
          "type": "string"
        }
      ],
      "name": "regions",
      "outputs": [
        {
          "internalType": "bool",
          "name": "",
          "type": "bool"
        }
      ],
      "stateMutability": "view",
      "type": "function"
    },
    {
      "inputs": [],
      "name": "regionsIsAcceptedMapping",
      "outputs": [
        {
          "internalType": "bool",
          "name": "",
          "type": "bool"
        }
      ],
      "stateMutability": "view",
      "type": "function"
    },
    {
      "inputs": [
        {
          "internalType": "address[]",
          "name": "erc20Addr",
          "type": "address[]"
        }
      ],
      "name": "removeFromExternalWhiteList",
      "outputs": [],
      "stateMutability": "nonpayable",
      "type": "function"
    },
    {
      "inputs": [
        {
          "internalType": "address[]",
          "name": "erc20Addr",
          "type": "address[]"
        }
      ],
      "name": "removeFromInternalBlackList",
      "outputs": [],
      "stateMutability": "nonpayable",
      "type": "function"
    },
    {
      "inputs": [
        {
          "internalType": "address[]",
          "name": "erc20Addr",
          "type": "address[]"
        }
      ],
      "name": "removeFromInternalWhiteList",
      "outputs": [],
      "stateMutability": "nonpayable",
      "type": "function"
    },
    {
      "inputs": [
        {
          "internalType": "address",
          "name": "_address",
          "type": "address"
        }
      ],
      "name": "removeRedeemFeeExemptedAddress",
      "outputs": [],
      "stateMutability": "nonpayable",
      "type": "function"
    },
    {
      "inputs": [
        {
          "internalType": "address",
          "name": "_tco2",
          "type": "address"
        }
      ],
      "name": "removeRedeemFeeExemptedTCO2",
      "outputs": [],
      "stateMutability": "nonpayable",
      "type": "function"
    },
    {
      "inputs": [],
      "name": "renounceOwnership",
      "outputs": [],
      "stateMutability": "nonpayable",
      "type": "function"
    },
    {
      "inputs": [
        {
          "internalType": "bytes32",
          "name": "role",
          "type": "bytes32"
        },
        {
          "internalType": "address",
          "name": "account",
          "type": "address"
        }
      ],
      "name": "renounceRole",
      "outputs": [],
      "stateMutability": "nonpayable",
      "type": "function"
    },
    {
      "inputs": [
        {
          "internalType": "bytes32",
          "name": "role",
          "type": "bytes32"
        },
        {
          "internalType": "address",
          "name": "account",
          "type": "address"
        }
      ],
      "name": "revokeRole",
      "outputs": [],
      "stateMutability": "nonpayable",
      "type": "function"
    },
    {
      "inputs": [],
      "name": "router",
      "outputs": [
        {
          "internalType": "address",
          "name": "",
          "type": "address"
        }
      ],
      "stateMutability": "view",
      "type": "function"
    },
    {
      "inputs": [
        {
          "internalType": "uint256",
          "name": "",
          "type": "uint256"
        }
      ],
      "name": "scoredTCO2s",
      "outputs": [
        {
          "internalType": "address",
          "name": "",
          "type": "address"
        }
      ],
      "stateMutability": "view",
      "type": "function"
    },
    {
      "inputs": [
        {
          "internalType": "address",
          "name": "_feeRedeemBurnAddress",
          "type": "address"
        }
      ],
      "name": "setFeeRedeemBurnAddress",
      "outputs": [],
      "stateMutability": "nonpayable",
      "type": "function"
    },
    {
      "inputs": [
        {
          "internalType": "uint256",
          "name": "_feeRedeemBurnPercentageInBase",
          "type": "uint256"
        }
      ],
      "name": "setFeeRedeemBurnPercentage",
      "outputs": [],
      "stateMutability": "nonpayable",
      "type": "function"
    },
    {
      "inputs": [
        {
          "internalType": "uint256",
          "name": "_feeRedeemPercentageInBase",
          "type": "uint256"
        }
      ],
      "name": "setFeeRedeemPercentage",
      "outputs": [],
      "stateMutability": "nonpayable",
      "type": "function"
    },
    {
      "inputs": [
        {
          "internalType": "address",
          "name": "_feeRedeemReceiver",
          "type": "address"
        }
      ],
      "name": "setFeeRedeemReceiver",
      "outputs": [],
      "stateMutability": "nonpayable",
      "type": "function"
    },
    {
      "inputs": [
        {
          "internalType": "uint64",
          "name": "_minimumVintageStartTime",
          "type": "uint64"
        }
      ],
      "name": "setMinimumVintageStartTime",
      "outputs": [],
      "stateMutability": "nonpayable",
      "type": "function"
    },
    {
      "inputs": [
        {
          "internalType": "address",
          "name": "_router",
          "type": "address"
        }
      ],
      "name": "setRouter",
      "outputs": [],
      "stateMutability": "nonpayable",
      "type": "function"
    },
    {
      "inputs": [
        {
          "internalType": "uint256",
          "name": "newCap",
          "type": "uint256"
        }
      ],
      "name": "setSupplyCap",
      "outputs": [],
      "stateMutability": "nonpayable",
      "type": "function"
    },
    {
      "inputs": [
        {
          "internalType": "address[]",
          "name": "tco2s",
          "type": "address[]"
        }
      ],
      "name": "setTCO2Scoring",
      "outputs": [],
      "stateMutability": "nonpayable",
      "type": "function"
    },
    {
      "inputs": [
        {
          "internalType": "address",
          "name": "_address",
          "type": "address"
        }
      ],
      "name": "setToucanContractRegistry",
      "outputs": [],
      "stateMutability": "nonpayable",
      "type": "function"
    },
    {
      "inputs": [
        {
          "internalType": "string",
          "name": "",
          "type": "string"
        }
      ],
      "name": "standards",
      "outputs": [
        {
          "internalType": "bool",
          "name": "",
          "type": "bool"
        }
      ],
      "stateMutability": "view",
      "type": "function"
    },
    {
      "inputs": [],
      "name": "standardsIsAcceptedMapping",
      "outputs": [
        {
          "internalType": "bool",
          "name": "",
          "type": "bool"
        }
      ],
      "stateMutability": "view",
      "type": "function"
    },
    {
      "inputs": [],
      "name": "supplyCap",
      "outputs": [
        {
          "internalType": "uint256",
          "name": "",
          "type": "uint256"
        }
      ],
      "stateMutability": "view",
      "type": "function"
    },
    {
      "inputs": [
        {
          "internalType": "bytes4",
          "name": "interfaceId",
          "type": "bytes4"
        }
      ],
      "name": "supportsInterface",
      "outputs": [
        {
          "internalType": "bool",
          "name": "",
          "type": "bool"
        }
      ],
      "stateMutability": "view",
      "type": "function"
    },
    {
      "inputs": [
        {
          "internalType": "string",
          "name": "_mappingName",
          "type": "string"
        },
        {
          "internalType": "bool",
          "name": "accepted",
          "type": "bool"
        }
      ],
      "name": "switchMapping",
      "outputs": [],
      "stateMutability": "nonpayable",
      "type": "function"
    },
    {
      "inputs": [],
      "name": "symbol",
      "outputs": [
        {
          "internalType": "string",
          "name": "",
          "type": "string"
        }
      ],
      "stateMutability": "view",
      "type": "function"
    },
    {
      "inputs": [
        {
          "internalType": "address",
          "name": "",
          "type": "address"
        }
      ],
      "name": "tokenBalances",
      "outputs": [
        {
          "internalType": "uint256",
          "name": "",
          "type": "uint256"
        }
      ],
      "stateMutability": "view",
      "type": "function"
    },
    {
      "inputs": [],
      "name": "totalSupply",
      "outputs": [
        {
          "internalType": "uint256",
          "name": "",
          "type": "uint256"
        }
      ],
      "stateMutability": "view",
      "type": "function"
    },
    {
      "inputs": [
        {
          "internalType": "address",
          "name": "recipient",
          "type": "address"
        },
        {
          "internalType": "uint256",
          "name": "amount",
          "type": "uint256"
        }
      ],
      "name": "transfer",
      "outputs": [
        {
          "internalType": "bool",
          "name": "",
          "type": "bool"
        }
      ],
      "stateMutability": "nonpayable",
      "type": "function"
    },
    {
      "inputs": [
        {
          "internalType": "address",
          "name": "sender",
          "type": "address"
        },
        {
          "internalType": "address",
          "name": "recipient",
          "type": "address"
        },
        {
          "internalType": "uint256",
          "name": "amount",
          "type": "uint256"
        }
      ],
      "name": "transferFrom",
      "outputs": [
        {
          "internalType": "bool",
          "name": "",
          "type": "bool"
        }
      ],
      "stateMutability": "nonpayable",
      "type": "function"
    },
    {
      "inputs": [
        {
          "internalType": "address",
          "name": "newOwner",
          "type": "address"
        }
      ],
      "name": "transferOwnership",
      "outputs": [],
      "stateMutability": "nonpayable",
      "type": "function"
    },
    {
      "inputs": [],
      "name": "unpause",
      "outputs": [],
      "stateMutability": "nonpayable",
      "type": "function"
    },
    {
      "inputs": [
        {
          "internalType": "address",
          "name": "newImplementation",
          "type": "address"
        }
      ],
      "name": "upgradeTo",
      "outputs": [],
      "stateMutability": "nonpayable",
      "type": "function"
    },
    {
      "inputs": [
        {
          "internalType": "address",
          "name": "newImplementation",
          "type": "address"
        },
        {
          "internalType": "bytes",
          "name": "data",
          "type": "bytes"
        }
      ],
      "name": "upgradeToAndCall",
      "outputs": [],
      "stateMutability": "payable",
      "type": "function"
    },
    {
      "inputs": [],
      "name": "version",
      "outputs": [
        {
          "internalType": "string",
          "name": "",
          "type": "string"
        }
      ],
      "stateMutability": "pure",
      "type": "function"
    }
  ],
  "numDeployments": 6,
  "solcInputHash": "4c1ab04e99661e37f1e086c79d8b53cb",
  "bytecode": "0x60a0604052306080523480156200001557600080fd5b506200002062000026565b62000156565b6200003260ff62000035565b50565b60008054610100900460ff1615620000ce578160ff1660011480156200006e57506200006c306200014760201b62003ae81760201c565b155b620000c65760405162461bcd60e51b815260206004820152602e60248201526000805160206200608183398151915260448201526d191e481a5b9a5d1a585b1a5e995960921b60648201526084015b60405180910390fd5b506000919050565b60005460ff8084169116106200012d5760405162461bcd60e51b815260206004820152602e60248201526000805160206200608183398151915260448201526d191e481a5b9a5d1a585b1a5e995960921b6064820152608401620000bd565b506000805460ff191660ff92909216919091179055600190565b6001600160a01b03163b151590565b608051615ef36200018e60003960008181611685015281816116c5015281816120440152818161208401526121130152615ef36000f3fe6080604052600436106104b55760003560e01c80638662522f1161026b578063c0d786551161014f578063e63ab1e9116100c1578063f138ac1611610085578063f138ac1614610f45578063f141b84f14610f76578063f2fde38b14610f98578063f3edb9ec14610fb8578063f75991cd14610ff4578063f887ea401461103057600080fd5b8063e63ab1e914610e6c578063e882e37b14610ea0578063e9d131ad14610ec0578063ec87621c14610ee0578063f06f510314610f1457600080fd5b8063d80e05aa11610113578063d80e05aa14610dbf578063dc5f560e14610ddf578063dd62ed3e14610dff578063dff0f52314610e1f578063e07f744c14610e36578063e0d7cad914610e5657600080fd5b8063c0d7865514610d34578063c36a257314610d54578063d4e457ec14610d6f578063d547741f14610d8a578063d6a022b814610daa57600080fd5b8063a1631e4b116101e8578063a9a484c5116101ac578063a9a484c514610c71578063abf410e514610c91578063b516f8cf14610cb2578063b6a3f59a14610cd2578063bbe669eb14610cf2578063bf2f870f14610d1257600080fd5b8063a1631e4b14610bc5578063a217fddf14610c05578063a457c2d714610c1a578063a7381a6414610c3a578063a9059cbb14610c5157600080fd5b80638dcb01ec1161022f5780638dcb01ec14610b395780638f770ad014610b5957806391d1485414610b7057806395d89b4114610b90578063963ff55e14610ba557600080fd5b80638662522f14610a7f57806388c9cf6e14610abb57806389022e2e14610adb5780638c2a993e14610afb5780638da5cb5b14610b1b57600080fd5b806341dbbb2a1161039d5780635db44cef1161030f57806374f4f547116102d357806374f4f547146109d557806379255ddd146109f55780637966529d14610a155780638129fc1c14610a3557806381e48e9014610a4a5780638456cb5914610a6a57600080fd5b80635db44cef146109195780636dbb3102146109395780636fd2f1811461095957806370a082311461098a578063715018a6146109c057600080fd5b80634f1ef286116103615780634f1ef2861461085d578063523fba7f1461087057806352d1902d1461089e57806354c9c970146108b357806354fd4d50146108d35780635c975abb1461090157600080fd5b806341dbbb2a146107af5780634642547b146107cf57806346518b0a146107ef57806347e7ef241461080f5780634c02cad11461082f57600080fd5b806324adbf4d1161043657806336568abe116103fa57806336568abe146106f95780633659cfe614610719578063395093511461073957806339cd7a8a146107595780633a9a77ee146107795780633f4ba83a1461079a57600080fd5b806324adbf4d146106335780632b540f191461066c5780632b5541421461069d5780632f2ff15d146106bd578063313ce567146106dd57600080fd5b80630e2d15ab1161047d5780630e2d15ab1461057357806318160ddd146105a457806320b167f9146105c357806323b872dd146105e3578063248a9ca31461060357600080fd5b806301ffc9a7146104ba57806306fdde03146104ef578063095ea7b3146105115780630b7d28c7146105315780630c0efecc14610553575b600080fd5b3480156104c657600080fd5b506104da6104d5366004614f6a565b611051565b60405190151581526020015b60405180910390f35b3480156104fb57600080fd5b50610504611088565b6040516104e69190614fec565b34801561051d57600080fd5b506104da61052c366004615014565b61111a565b34801561053d57600080fd5b5061055161054c366004615040565b611132565b005b34801561055f57600080fd5b5061055161056e366004615072565b61118a565b34801561057f57600080fd5b506104da61058e366004615040565b6101a06020526000908152604090205460ff1681565b3480156105b057600080fd5b506035545b6040519081526020016104e6565b3480156105cf57600080fd5b506105516105de36600461508f565b611217565b3480156105ef57600080fd5b506104da6105fe3660046150a8565b611377565b34801561060f57600080fd5b506105b561061e36600461508f565b600090815260fb602052604090206001015490565b34801561063f57600080fd5b5061019c54610654906001600160a01b031681565b6040516001600160a01b0390911681526020016104e6565b34801561067857600080fd5b506104da610687366004615040565b6101a26020526000908152604090205460ff1681565b3480156106a957600080fd5b506105516106b8366004615212565b6113b9565b3480156106c957600080fd5b506105516106d83660046152cc565b6115d3565b3480156106e957600080fd5b50604051601281526020016104e6565b34801561070557600080fd5b506105516107143660046152cc565b6115fd565b34801561072557600080fd5b50610551610734366004615040565b61167b565b34801561074557600080fd5b506104da610754366004615014565b61175a565b34801561076557600080fd5b5061055161077436600461538a565b61177c565b34801561078557600080fd5b5061019e54610654906001600160a01b031681565b3480156107a657600080fd5b50610551611901565b3480156107bb57600080fd5b506105b56107ca366004615212565b611974565b3480156107db57600080fd5b506105516107ea366004615040565b611a7b565b3480156107fb57600080fd5b5061055161080a3660046153d0565b611ac7565b34801561081b57600080fd5b5061055161082a366004615014565b611bc4565b34801561083b57600080fd5b5061084f61084a36600461508f565b611d11565b6040516104e6929190615448565b61055161086b36600461549f565b61203a565b34801561087c57600080fd5b506105b561088b366004615040565b6101926020526000908152604090205481565b3480156108aa57600080fd5b506105b5612106565b3480156108bf57600080fd5b506105516108ce3660046153d0565b6121b9565b3480156108df57600080fd5b506040805180820190915260058152640312e342e360dc1b6020820152610504565b34801561090d57600080fd5b5060975460ff166104da565b34801561092557600080fd5b506105516109343660046153d0565b6122b6565b34801561094557600080fd5b50610551610954366004615040565b6123b3565b34801561096557600080fd5b506104da610974366004615040565b6101996020526000908152604090205460ff1681565b34801561099657600080fd5b506105b56109a5366004615040565b6001600160a01b031660009081526033602052604090205490565b3480156109cc57600080fd5b50610551612432565b3480156109e157600080fd5b506105516109f0366004615014565b612468565b348015610a0157600080fd5b50610551610a1036600461508f565b6124c9565b348015610a2157600080fd5b50610551610a303660046153d0565b61254a565b348015610a4157600080fd5b50610551612647565b348015610a5657600080fd5b50610551610a65366004615581565b61270d565b348015610a7657600080fd5b50610551612b83565b348015610a8b57600080fd5b506104da610a9a36600461561b565b80516020818301810180516101948252928201919093012091525460ff1681565b348015610ac757600080fd5b50610551610ad63660046153d0565b612bf6565b348015610ae757600080fd5b50610551610af6366004615014565b612cf3565b348015610b0757600080fd5b50610551610b16366004615014565b612dd4565b348015610b2757600080fd5b506065546001600160a01b0316610654565b348015610b4557600080fd5b50610551610b543660046153d0565b612e35565b348015610b6557600080fd5b506105b56101915481565b348015610b7c57600080fd5b506104da610b8b3660046152cc565b612f32565b348015610b9c57600080fd5b50610504612f5d565b348015610bb157600080fd5b50610654610bc036600461508f565b612f6c565b348015610bd157600080fd5b5061019354610bed90600160a01b90046001600160401b031681565b6040516001600160401b0390911681526020016104e6565b348015610c1157600080fd5b506105b5600081565b348015610c2657600080fd5b506104da610c35366004615014565b612f97565b348015610c4657600080fd5b506105b561019f5481565b348015610c5d57600080fd5b506104da610c6c366004615014565b61301d565b348015610c7d57600080fd5b506104da610c8c366004615040565b613052565b348015610c9d57600080fd5b5061019354610654906001600160a01b031681565b348015610cbe57600080fd5b50610551610ccd366004615040565b613379565b348015610cde57600080fd5b50610551610ced36600461508f565b613412565b348015610cfe57600080fd5b50610551610d0d36600461564f565b613472565b348015610d1e57600080fd5b50610d2761355f565b6040516104e691906156c3565b348015610d4057600080fd5b50610551610d4f366004615040565b6135c1565b348015610d6057600080fd5b50610195546104da9060ff1681565b348015610d7b57600080fd5b50610197546104da9060ff1681565b348015610d9657600080fd5b50610551610da53660046152cc565b61360e565b348015610db657600080fd5b506105b5613633565b348015610dcb57600080fd5b50610551610dda366004615040565b613651565b348015610deb57600080fd5b506104da610dfa366004615040565b6136cd565b348015610e0b57600080fd5b506105b5610e1a3660046156d6565b613898565b348015610e2b57600080fd5b506105b561019d5481565b348015610e4257600080fd5b50610551610e51366004615040565b6138c3565b348015610e6257600080fd5b506105b561271081565b348015610e7857600080fd5b506105b57f65d7a28e3265b37a6474929f336521b332c1681b933f6cb9f3376673440d862a81565b348015610eac57600080fd5b50610551610ebb366004615040565b61395d565b348015610ecc57600080fd5b50610551610edb36600461508f565b6139d6565b348015610eec57600080fd5b506105b57f241ecf16d79d0f8dbfb92cbc07fe17840425976cf0667f022fe9877caa831b0881565b348015610f2057600080fd5b506104da610f2f366004615040565b61019b6020526000908152604090205460ff1681565b348015610f5157600080fd5b506104da610f60366004615040565b61019a6020526000908152604090205460ff1681565b348015610f8257600080fd5b50610193546104da90600160e01b900460ff1681565b348015610fa457600080fd5b50610551610fb3366004615040565b613a50565b348015610fc457600080fd5b506104da610fd336600461561b565b80516020818301810180516101968252928201919093012091525460ff1681565b34801561100057600080fd5b506104da61100f36600461561b565b80516020818301810180516101988252928201919093012091525460ff1681565b34801561103c57600080fd5b506101a354610654906001600160a01b031681565b60006001600160e01b03198216637965db0b60e01b148061108257506301ffc9a760e01b6001600160e01b03198316145b92915050565b60606036805461109790615704565b80601f01602080910402602001604051908101604052809291908181526020018280546110c390615704565b80156111105780601f106110e557610100808354040283529160200191611110565b820191906000526020600020905b8154815290600101906020018083116110f357829003601f168201915b5050505050905090565b600033611128818585613af7565b5060019392505050565b6065546001600160a01b031633146111655760405162461bcd60e51b815260040161115c9061573e565b60405180910390fd5b6001600160a01b031660009081526101a060205260409020805460ff19166001179055565b6065546001600160a01b031633146111b45760405162461bcd60e51b815260040161115c9061573e565b610193805467ffffffffffffffff60a01b1916600160a01b6001600160401b038416908102919091179091556040519081527f87f670402a6c72fff3b60ba5223165f062b58d671871fc2c49ea96101fdd19a0906020015b60405180910390a150565b60975460ff161561123a5760405162461bcd60e51b815260040161115c90615773565b60355481111561128c5760405162461bcd60e51b815260206004820152601a60248201527f416d6f756e74206578636565647320746f74616c537570706c79000000000000604482015260640161115c565b6101a15481906000905b6000831180156112a557508082105b156113275760006101a183815481106112c0576112c061579d565b60009182526020808320909101546001600160a01b0316808352610192909152604090912054909150801561131a5760008186116112fe5785611300565b815b905061130c8382613c1b565b61131681876157c9565b9550505b6001840193505050611296565b82156113715760405162461bcd60e51b8152602060048201526019602482015278139bdb8b5e995c9bc81c995b585a5b9a5b99c8185b5bdd5b9d603a1b604482015260640161115c565b50505050565b6000826001600160a01b03811661138d57600080fd5b306001600160a01b038216036113a257600080fd5b6113ad858585613d32565b50600195945050505050565b60975460ff16156113dc5760405162461bcd60e51b815260040161115c90615773565b80518251146114275760405162461bcd60e51b81526020600482015260176024820152762632b733ba341037b31030b93930bcb9903234b33332b960491b604482015260640161115c565b61019d543360009081526101a0602052604081205490919060ff16825b85518110156114ed57600082611495576127108487848151811061146a5761146a61579d565b602002602001015161147c91906157e0565b61148691906157ff565b90506114928186615821565b94505b6114dc8783815181106114aa576114aa61579d565b6020026020010151828885815181106114c5576114c561579d565b60200260200101516114d791906157c9565b613c1b565b506114e681615839565b9050611444565b5082156115cc57600061271061019f548561150891906157e0565b61151291906157ff565b905061151e81856157c9565b61019c54909450611538906001600160a01b03168561301d565b5060408051338152602081018690527f3f89e1d936a29a8de9ae9040436992721a00bc63bbe3ca55692b95f0311640b2910160405180910390a180156115ca5761019e5461158f906001600160a01b03168261301d565b5060408051338152602081018390527f932bd968974f0b6fa1cb59bf961f81d2e57b39332d311b413dceae17966387db910160405180910390a15b505b5050505050565b600082815260fb60205260409020600101546115ee81613d58565b6115f88383613d62565b505050565b6001600160a01b038116331461166d5760405162461bcd60e51b815260206004820152602f60248201527f416363657373436f6e74726f6c3a2063616e206f6e6c792072656e6f756e636560448201526e103937b632b9903337b91039b2b63360891b606482015260840161115c565b6116778282613de8565b5050565b6001600160a01b037f00000000000000000000000000000000000000000000000000000000000000001630036116c35760405162461bcd60e51b815260040161115c90615852565b7f00000000000000000000000000000000000000000000000000000000000000006001600160a01b031661170c600080516020615e77833981519152546001600160a01b031690565b6001600160a01b0316146117325760405162461bcd60e51b815260040161115c9061589e565b61173b81613e4f565b6040805160008082526020820190925261175791839190613e79565b50565b60003361112881858561176d8383613898565b6117779190615821565b613af7565b6065546001600160a01b031633146117a65760405162461bcd60e51b815260040161115c9061573e565b6117cf8260405180604001604052806007815260200166726567696f6e7360c81b815250613fe4565b1561180b57806117ee57610193805460ff60e01b191690556000611805565b610193805460ff60e01b1916600160e01b17905560015b506118c4565b61183682604051806040016040528060098152602001687374616e646172647360b81b815250613fe4565b15611865578061185257610195805460ff191690556000611805565b610195805460ff191660011790556118c4565b611894826040518060400160405280600d81526020016c6d6574686f646f6c6f6769657360981b815250613fe4565b156118c457806118b057610197805460ff1916905560006118c2565b610197805460ff191660019081179091555b505b7fcdc35455a1217219a4240bb18a7d2978eb98208f22f7ec36d6a1381c28f9d0f582826040516118f59291906158ea565b60405180910390a15050565b7f65d7a28e3265b37a6474929f336521b332c1681b933f6cb9f3376673440d862a61192c8133612f32565b806119505750336119456065546001600160a01b031690565b6001600160a01b0316145b61196c5760405162461bcd60e51b815260040161115c9061590e565b611757613ff0565b600061198260975460ff1690565b1561199f5760405162461bcd60e51b815260040161115c90615773565b3360009081526101a0602052604090205460ff16156119c057506000611082565b8151835114611a0b5760405162461bcd60e51b81526020600482015260176024820152762632b733ba341037b31030b93930bcb9903234b33332b960491b604482015260640161115c565b61019d54600090815b8551811015611a7157600061271083878481518110611a3557611a3561579d565b6020026020010151611a4791906157e0565b611a5191906157ff565b9050611a5d8185615821565b93505080611a6a90615839565b9050611a14565b5090949350505050565b6065546001600160a01b03163314611aa55760405162461bcd60e51b815260040161115c9061573e565b6001600160a01b031660009081526101a060205260409020805460ff19169055565b6065546001600160a01b03163314611af15760405162461bcd60e51b815260040161115c9061573e565b60005b81518110156116775760016101996000848481518110611b1657611b1661579d565b60200260200101516001600160a01b03166001600160a01b0316815260200190815260200160002060006101000a81548160ff0219169083151502179055507f29b8b184f4394a88477750516a3701dd0c9409451be78c24428bf5f827f527a5828281518110611b8857611b8861579d565b6020026020010151604051611bac91906001600160a01b0391909116815260200190565b60405180910390a1611bbd81615839565b9050611af4565b60975460ff1615611be75760405162461bcd60e51b815260040161115c90615773565b611bf0826136cd565b611c2d5760405162461bcd60e51b815260206004820152600e60248201526d151bdad95b881c995a9958dd195960921b604482015260640161115c565b6000611c37613633565b905060008111611c755760405162461bcd60e51b8152602060048201526009602482015268119d5b1b081c1bdbdb60ba1b604482015260640161115c565b80821115611c81578091505b6001600160a01b0383166000908152610192602052604081208054849290611caa908490615821565b90915550611cba90503383614083565b604080516001600160a01b0385168152602081018490527f2da466a7b24304f47e87fa2e1e5a81b9831ce54fec19055ce277ca2f39ba42c4910160405180910390a16115f86001600160a01b03841633308561416e565b606080611d2060975460ff1690565b15611d3d5760405162461bcd60e51b815260040161115c90615773565b603554831115611d8f5760405162461bcd60e51b815260206004820152601a60248201527f416d6f756e74206578636565647320746f74616c537570706c79000000000000604482015260640161115c565b6101a15483906000905b600083118015611da857508082105b15611f165760006101a18381548110611dc357611dc361579d565b60009182526020808320909101546001600160a01b03168083526101929091526040822054909250908115611e1057818611611dff5785611e01565b815b9050611e0d81876157c9565b95505b60018501945085600003611f0e57846001600160401b03811115611e3657611e366150e9565b604051908082528060200260200182016040528015611e5f578160200160208202803683370190505b509750846001600160401b03811115611e7a57611e7a6150e9565b604051908082528060200260200182016040528015611ea3578160200160208202803683370190505b5096508288611eb36001886157c9565b81518110611ec357611ec361579d565b6001600160a01b03909216602092830291909101909101528087611ee86001886157c9565b81518110611ef857611ef861579d565b602002602001018181525050611f0e8382613c1b565b505050611d99565b8215611f605760405162461bcd60e51b8152602060048201526019602482015278139bdb8b5e995c9bc81c995b585a5b9a5b99c8185b5bdd5b9d603a1b604482015260640161115c565b60005b611f6e6001846157c9565b8110156120315760006101a18281548110611f8b57611f8b61579d565b60009182526020808320909101546001600160a01b0316808352610192909152604082205490925090819003611fc2575050612021565b81888481518110611fd557611fd561579d565b60200260200101906001600160a01b031690816001600160a01b031681525050808784815181106120085761200861579d565b60200260200101818152505061201e8282613c1b565b50505b61202a81615839565b9050611f63565b50505050915091565b6001600160a01b037f00000000000000000000000000000000000000000000000000000000000000001630036120825760405162461bcd60e51b815260040161115c90615852565b7f00000000000000000000000000000000000000000000000000000000000000006001600160a01b03166120cb600080516020615e77833981519152546001600160a01b031690565b6001600160a01b0316146120f15760405162461bcd60e51b815260040161115c9061589e565b6120fa82613e4f565b61167782826001613e79565b6000306001600160a01b037f000000000000000000000000000000000000000000000000000000000000000016146121a65760405162461bcd60e51b815260206004820152603860248201527f555550535570677261646561626c653a206d757374206e6f742062652063616c60448201527f6c6564207468726f7567682064656c656761746563616c6c0000000000000000606482015260840161115c565b50600080516020615e7783398151915290565b6065546001600160a01b031633146121e35760405162461bcd60e51b815260040161115c9061573e565b60005b815181101561167757600161019b60008484815181106122085761220861579d565b60200260200101516001600160a01b03166001600160a01b0316815260200190815260200160002060006101000a81548160ff0219169083151502179055507f43388d274033333ceb567d699874be067ce7411c2bfc989f8e623694c9b3284f82828151811061227a5761227a61579d565b602002602001015160405161229e91906001600160a01b0391909116815260200190565b60405180910390a16122af81615839565b90506121e6565b6065546001600160a01b031633146122e05760405162461bcd60e51b815260040161115c9061573e565b60005b815181101561167757600061019b60008484815181106123055761230561579d565b60200260200101516001600160a01b03166001600160a01b0316815260200190815260200160002060006101000a81548160ff0219169083151502179055507fa7f25a7a7bea0a3fabbe5dc8b6176bd9a603925da390010a10998148c192b6708282815181106123775761237761579d565b602002602001015160405161239b91906001600160a01b0391909116815260200190565b60405180910390a16123ac81615839565b90506122e3565b6065546001600160a01b031633146123dd5760405162461bcd60e51b815260040161115c9061573e565b6001600160a01b03811660008181526101a26020908152604091829020805460ff1916600117905590519182527fbfe78aa03afab7296923112293cb902a2fe6df5a6d3d81e1933c652c4cf860f4910161120c565b6065546001600160a01b0316331461245c5760405162461bcd60e51b815260040161115c9061573e565b61246660006141d9565b565b6101a3546001600160a01b031633146124bf5760405162461bcd60e51b81526020600482015260196024820152784f6e6c7920526f757465722066756e6374696f6e616c69747960381b604482015260640161115c565b611677828261422b565b6065546001600160a01b031633146124f35760405162461bcd60e51b815260040161115c9061573e565b61271081106125445760405162461bcd60e51b815260206004820152601760248201527f496e76616c6964206275726e2070657263656e74616765000000000000000000604482015260640161115c565b61019f55565b6065546001600160a01b031633146125745760405162461bcd60e51b815260040161115c9061573e565b60005b815181101561167757600061019960008484815181106125995761259961579d565b60200260200101516001600160a01b03166001600160a01b0316815260200190815260200160002060006101000a81548160ff0219169083151502179055507f3c36656d3e8c3db21a1c7d0a7208d73387e15535964c44c30b20c45ab51b3c3882828151811061260b5761260b61579d565b602002602001015160405161262f91906001600160a01b0391909116815260200190565b60405180910390a161264081615839565b9050612577565b60006126536001614385565b9050801561266b576000805461ff0019166101001790555b612673614412565b61267b614439565b612683614469565b6126c0604051806060016040528060228152602001615e5560229139604051806040016040528060038152602001621090d560ea1b81525061449c565b6126cb600033613d62565b8015611757576000805461ff0019169055604051600181527f7f26b83ff96e1f2b6a682f133852f6798a09c465da95921460cefb38474024989060200161120c565b6065546001600160a01b031633146127375760405162461bcd60e51b815260040161115c9061573e565b60005b82518110156128a5578415156001036127f35760016101968483815181106127645761276461579d565b60200260200101516040516127799190615934565b908152602001604051809103902060006101000a81548160ff0219169083151502179055507fa27e97999993c298fae0b7088ff732fe078cc1585665ee1554220b3cbe6317a98382815181106127d1576127d161579d565b60200260200101516040516127e69190614fec565b60405180910390a1612895565b600061019684838151811061280a5761280a61579d565b602002602001015160405161281f9190615934565b908152602001604051809103902060006101000a81548160ff0219169083151502179055507f0127ddc00426c693b5becb26ba43a260c781ebc323b61d3b24b61e4dc5c93c718382815181106128775761287761579d565b602002602001015160405161288c9190614fec565b60405180910390a15b61289e81615839565b905061273a565b5060005b8151811015612a14578415156001036129625760016101988383815181106128d3576128d361579d565b60200260200101516040516128e89190615934565b908152602001604051809103902060006101000a81548160ff0219169083151502179055507f156643e9a7f860e95993739893595e6ee1d04d9ff1b98567dbe9d5681cd152b28282815181106129405761294061579d565b60200260200101516040516129559190614fec565b60405180910390a1612a04565b60006101988383815181106129795761297961579d565b602002602001015160405161298e9190615934565b908152602001604051809103902060006101000a81548160ff0219169083151502179055507f21a77ac4edf49633047cc4e32b10dfe633811216214400e0e1f507c3f7287b618282815181106129e6576129e661579d565b60200260200101516040516129fb9190614fec565b60405180910390a15b612a0d81615839565b90506128a9565b5060005b83518110156115cc57841515600103612ad1576001610194858381518110612a4257612a4261579d565b6020026020010151604051612a579190615934565b908152602001604051809103902060006101000a81548160ff0219169083151502179055507f3df7a1330febee3646ae4a0f0e46c94c046f0ee810b2b7f1fa10fa8f34d7b7ef848281518110612aaf57612aaf61579d565b6020026020010151604051612ac49190614fec565b60405180910390a1612b73565b6000610194858381518110612ae857612ae861579d565b6020026020010151604051612afd9190615934565b908152602001604051809103902060006101000a81548160ff0219169083151502179055507fc84badb33408cce6e89b30a735d8f06e094fa4a19c01c2da66718f490c672f65848281518110612b5557612b5561579d565b6020026020010151604051612b6a9190614fec565b60405180910390a15b612b7c81615839565b9050612a18565b7f65d7a28e3265b37a6474929f336521b332c1681b933f6cb9f3376673440d862a612bae8133612f32565b80612bd2575033612bc76065546001600160a01b031690565b6001600160a01b0316145b612bee5760405162461bcd60e51b815260040161115c9061590e565b6117576144ea565b6065546001600160a01b03163314612c205760405162461bcd60e51b815260040161115c9061573e565b60005b815181101561167757600161019a6000848481518110612c4557612c4561579d565b60200260200101516001600160a01b03166001600160a01b0316815260200190815260200160002060006101000a81548160ff0219169083151502179055507f2e333bce7bf5a0097fbb4fef2a950809960b5a4aa1a63cbcffc24ac62dc4fd07828281518110612cb757612cb761579d565b6020026020010151604051612cdb91906001600160a01b0391909116815260200190565b60405180910390a1612cec81615839565b9050612c23565b60975460ff1615612d165760405162461bcd60e51b815260040161115c90615773565b6001600160a01b03821660009081526101a2602052604090205460ff16612d6e5760405162461bcd60e51b815260206004820152600c60248201526b139bdd08195e195b5c1d195960a21b604482015260640161115c565b612d788282613c1b565b60405163079cc67960e41b8152336004820152602481018290526001600160a01b038316906379cc679090604401600060405180830381600087803b158015612dc057600080fd5b505af11580156115ca573d6000803e3d6000fd5b6101a3546001600160a01b03163314612e2b5760405162461bcd60e51b81526020600482015260196024820152784f6e6c7920526f757465722066756e6374696f6e616c69747960381b604482015260640161115c565b6116778282614083565b6065546001600160a01b03163314612e5f5760405162461bcd60e51b815260040161115c9061573e565b60005b815181101561167757600061019a6000848481518110612e8457612e8461579d565b60200260200101516001600160a01b03166001600160a01b0316815260200190815260200160002060006101000a81548160ff0219169083151502179055507f9cee5064afac40e291311ecb6a670ef3ef652131fb1ed15c1266fb22cffd6bdd828281518110612ef657612ef661579d565b6020026020010151604051612f1a91906001600160a01b0391909116815260200190565b60405180910390a1612f2b81615839565b9050612e62565b600091825260fb602090815260408084206001600160a01b0393909316845291905290205460ff1690565b60606037805461109790615704565b6101a18181548110612f7d57600080fd5b6000918252602090912001546001600160a01b0316905081565b60003381612fa58286613898565b9050838110156130055760405162461bcd60e51b815260206004820152602560248201527f45524332303a2064656372656173656420616c6c6f77616e63652062656c6f77604482015264207a65726f60d81b606482015260840161115c565b6130128286868403613af7565b506001949350505050565b6000826001600160a01b03811661303357600080fd5b306001600160a01b0382160361304857600080fd5b6130128484614542565b60006130b360405180610140016040528060608152602001606081526020016060815260200160608152602001606081526020016060815260200160608152602001606081526020016060815260200160006001600160a01b031681525090565b61312f6040518061016001604052806060815260200160006001600160401b0316815260200160006001600160401b031681526020016000815260200160006001600160401b03168152602001600015158152602001600015158152602001606081526020016060815260200160608152602001606081525090565b836001600160a01b031663152583de6040518163ffffffff1660e01b8152600401600060405180830381865afa15801561316d573d6000803e3d6000fd5b505050506040513d6000823e601f3d908101601f191682016040526131959190810190615af9565b6101935460208201519294509092506001600160401b03600160a01b9091048116911610156131fb5760405162461bcd60e51b815260206004820152601260248201527114dd185c9d081d1a5b59481d1bdbc81bdb1960721b604482015260640161115c565b610193601c9054906101000a900460ff16151561019483606001516040516132239190615934565b9081526040519081900360200190205460ff1615151461327b5760405162461bcd60e51b8152602060048201526013602482015272149959da5bdb881b9bdd081858d8d95c1d1959606a1b604482015260640161115c565b61019554602083015160405160ff9092161515916101969161329c91615934565b9081526040519081900360200190205460ff161515146132f65760405162461bcd60e51b815260206004820152601560248201527414dd185b99185c99081b9bdd081858d8d95c1d1959605a1b604482015260640161115c565b61019754604080840151905160ff9092161515916101989161331791615934565b9081526040519081900360200190205460ff161515146111285760405162461bcd60e51b815260206004820152601860248201527f4d6574686f646f6c6f6779206e6f742061636365707465640000000000000000604482015260640161115c565b6065546001600160a01b031633146133a35760405162461bcd60e51b815260040161115c9061573e565b6001600160a01b0381166133ef5760405162461bcd60e51b8152602060048201526013602482015272496e76616c696420666565206164647265737360681b604482015260640161115c565b61019c80546001600160a01b0319166001600160a01b0392909216919091179055565b6065546001600160a01b0316331461343c5760405162461bcd60e51b815260040161115c9061573e565b6101918190556040518181527f4e44c8be34d12f1b7f56b13b4bbe97e64ca37a91916f86c73412da80c21748e29060200161120c565b7f241ecf16d79d0f8dbfb92cbc07fe17840425976cf0667f022fe9877caa831b0861349d8133612f32565b806134c15750336134b66065546001600160a01b031690565b6001600160a01b0316145b6134dd5760405162461bcd60e51b815260040161115c9061590e565b816135135760405162461bcd60e51b81526020600482015260066024820152652174636f327360d01b604482015260640161115c565b6135206101a18484614e7e565b507f9204d457ace303c5dbbeaa6966e5ec65661a390007a367c6645e52b4ef4b528e8383604051613552929190615cb6565b60405180910390a1505050565b60606101a180548060200260200160405190810160405280929190818152602001828054801561111057602002820191906000526020600020905b81546001600160a01b0316815260019091019060200180831161359a575050505050905090565b6065546001600160a01b031633146135eb5760405162461bcd60e51b815260040161115c9061573e565b6101a380546001600160a01b0319166001600160a01b0392909216919091179055565b600082815260fb602052604090206001015461362981613d58565b6115f88383613de8565b600061363e60355490565b6101915461364c91906157c9565b905090565b6065546001600160a01b0316331461367b5760405162461bcd60e51b815260040161115c9061573e565b6001600160a01b03811660008181526101a26020908152604091829020805460ff1916905590519182527fd1fc9d8986829d0ba9df2bc201a2c76327e0f71567b5a2fb82ba464bf4a03f44910161120c565b6101935460405163787d871360e01b81526001600160a01b038381166004830152600092839291169063787d871390602401602060405180830381865afa15801561371c573d6000803e3d6000fd5b505050506040513d601f19601f820116820180604052508101906137409190615cf9565b9050801561382f576001600160a01b038316600090815261019a602052604090205460ff16156137735750600192915050565b6001600160a01b038316600090815261019b602052604090205460ff16156137d05760405162461bcd60e51b815260206004820152601060248201526f213630b1b5b634b9ba32b2102a21a79960811b604482015260640161115c565b6137d983613052565b151560011461382a5760405162461bcd60e51b815260206004820152601760248201527f4e6f6e2d6d61746368696e672061747472696275746573000000000000000000604482015260640161115c565b61388f565b6001600160a01b0383166000908152610199602052604090205460ff16151560011461388f5760405162461bcd60e51b815260206004820152600f60248201526e139bdd081dda1a5d195b1a5cdd1959608a1b604482015260640161115c565b50600192915050565b6001600160a01b03918216600090815260346020908152604080832093909416825291909152205490565b6065546001600160a01b031633146138ed5760405162461bcd60e51b815260040161115c9061573e565b6001600160a01b03811661393a5760405162461bcd60e51b8152602060048201526014602482015273496e76616c6964206275726e206164647265737360601b604482015260640161115c565b61019e80546001600160a01b0319166001600160a01b0392909216919091179055565b6065546001600160a01b031633146139875760405162461bcd60e51b815260040161115c9061573e565b61019380546001600160a01b0319166001600160a01b0383169081179091556040519081527f86907b53cf2024579968511876daf0b4620d65803b550e33101baf70aeb6f5eb9060200161120c565b6065546001600160a01b03163314613a005760405162461bcd60e51b815260040161115c9061573e565b6127108110613a4a5760405162461bcd60e51b8152602060048201526016602482015275496e76616c6964206665652070657263656e7461676560501b604482015260640161115c565b61019d55565b6065546001600160a01b03163314613a7a5760405162461bcd60e51b815260040161115c9061573e565b6001600160a01b038116613adf5760405162461bcd60e51b815260206004820152602660248201527f4f776e61626c653a206e6577206f776e657220697320746865207a65726f206160448201526564647265737360d01b606482015260840161115c565b611757816141d9565b6001600160a01b03163b151590565b6001600160a01b038316613b595760405162461bcd60e51b8152602060048201526024808201527f45524332303a20617070726f76652066726f6d20746865207a65726f206164646044820152637265737360e01b606482015260840161115c565b6001600160a01b038216613bba5760405162461bcd60e51b815260206004820152602260248201527f45524332303a20617070726f766520746f20746865207a65726f206164647265604482015261737360f01b606482015260840161115c565b6001600160a01b0383811660008181526034602090815260408083209487168084529482529182902085905590518481527f8c5be1e5ebec7d5bd14f71427d1e84f3dd0314c0f7b2291e5b200ac8c7c3b925910160405180910390a3505050565b60975460ff1615613c3e5760405162461bcd60e51b815260040161115c90615773565b6001600160a01b03821660009081526101926020526040902054811115613c9f5760405162461bcd60e51b8152602060048201526015602482015274416d6f756e74206578636565647320737570706c7960581b604482015260640161115c565b613ca9338261422b565b6001600160a01b0382166000908152610192602052604081208054839290613cd29084906157c9565b90915550613cec90506001600160a01b0383163383614550565b604080513381526001600160a01b03841660208201529081018290527f27d4634c833b7622a0acddbf7f746183625f105945e95c723ad1d5a9f2a0b6fc906060016118f5565b600033613d40858285614580565b613d4b8585856145f4565b60019150505b9392505050565b61175781336147cd565b613d6c8282612f32565b61167757600082815260fb602090815260408083206001600160a01b03851684529091529020805460ff19166001179055613da43390565b6001600160a01b0316816001600160a01b0316837f2f8788117e7eff1d82e926ec794901d17c78024a50270940304540a733656f0d60405160405180910390a45050565b613df28282612f32565b1561167757600082815260fb602090815260408083206001600160a01b0385168085529252808320805460ff1916905551339285917ff6391f5c32d9c69d2a47ea670b442974b53935d1edc7fd64eb21e047a839171b9190a45050565b6065546001600160a01b031633146117575760405162461bcd60e51b815260040161115c9061573e565b7f4910fdfa16fed3260ed0e7147f7cc6da11a60208b5b9406d12a635614ffd91435460ff1615613eac576115f883614831565b826001600160a01b03166352d1902d6040518163ffffffff1660e01b8152600401602060405180830381865afa925050508015613f06575060408051601f3d908101601f19168201909252613f0391810190615d16565b60015b613f695760405162461bcd60e51b815260206004820152602e60248201527f45524331393637557067726164653a206e657720696d706c656d656e7461746960448201526d6f6e206973206e6f74205555505360901b606482015260840161115c565b600080516020615e778339815191528114613fd85760405162461bcd60e51b815260206004820152602960248201527f45524331393637557067726164653a20756e737570706f727465642070726f786044820152681a58589b195555525160ba1b606482015260840161115c565b506115f88383836148cd565b6000613d5183836148f2565b60975460ff166140395760405162461bcd60e51b815260206004820152601460248201527314185d5cd8589b194e881b9bdd081c185d5cd95960621b604482015260640161115c565b6097805460ff191690557f5db9ee0a495bf2e6ff9c91a7834c1ba4fdd244a5e8aa4e537bd38aeae4b073aa335b6040516001600160a01b03909116815260200160405180910390a1565b6001600160a01b0382166140d95760405162461bcd60e51b815260206004820152601f60248201527f45524332303a206d696e7420746f20746865207a65726f206164647265737300604482015260640161115c565b6140e560008383614917565b80603560008282546140f79190615821565b90915550506001600160a01b03821660009081526033602052604081208054839290614124908490615821565b90915550506040518181526001600160a01b038316906000907fddf252ad1be2c89b69c2b068fc378daa952ba7f163c4a11628f55a4df523b3ef9060200160405180910390a35050565b6040516001600160a01b03808516602483015283166044820152606481018290526113719085906323b872dd60e01b906084015b60408051601f198184030181529190526020810180516001600160e01b03166001600160e01b03199093169290921790915261495c565b606580546001600160a01b038381166001600160a01b0319831681179093556040519116919082907f8be0079c531659141344cd1fd0a4f28419497f9722a3daafe3b4186f6b6457e090600090a35050565b6001600160a01b03821661428b5760405162461bcd60e51b815260206004820152602160248201527f45524332303a206275726e2066726f6d20746865207a65726f206164647265736044820152607360f81b606482015260840161115c565b61429782600083614917565b6001600160a01b0382166000908152603360205260409020548181101561430b5760405162461bcd60e51b815260206004820152602260248201527f45524332303a206275726e20616d6f756e7420657863656564732062616c616e604482015261636560f01b606482015260840161115c565b6001600160a01b038316600090815260336020526040812083830390556035805484929061433a9084906157c9565b90915550506040518281526000906001600160a01b038516907fddf252ad1be2c89b69c2b068fc378daa952ba7f163c4a11628f55a4df523b3ef9060200160405180910390a3505050565b60008054610100900460ff16156143cc578160ff1660011480156143a85750303b155b6143c45760405162461bcd60e51b815260040161115c90615d2f565b506000919050565b60005460ff8084169116106143f35760405162461bcd60e51b815260040161115c90615d2f565b506000805460ff191660ff92909216919091179055600190565b919050565b600054610100900460ff166124665760405162461bcd60e51b815260040161115c90615d7d565b600054610100900460ff166144605760405162461bcd60e51b815260040161115c90615d7d565b612466336141d9565b600054610100900460ff166144905760405162461bcd60e51b815260040161115c90615d7d565b6097805460ff19169055565b600054610100900460ff166144c35760405162461bcd60e51b815260040161115c90615d7d565b81516144d6906036906020850190614ee1565b5080516115f8906037906020840190614ee1565b60975460ff161561450d5760405162461bcd60e51b815260040161115c90615773565b6097805460ff191660011790557f62e78cea01bee320cd4e420270b5ea74000d11b0c9f74754ebdbfc544b05a2586140663390565b6000336111288185856145f4565b6040516001600160a01b0383166024820152604481018290526115f890849063a9059cbb60e01b906064016141a2565b600061458c8484613898565b9050600019811461137157818110156145e75760405162461bcd60e51b815260206004820152601d60248201527f45524332303a20696e73756666696369656e7420616c6c6f77616e6365000000604482015260640161115c565b6113718484848403613af7565b6001600160a01b0383166146585760405162461bcd60e51b815260206004820152602560248201527f45524332303a207472616e736665722066726f6d20746865207a65726f206164604482015264647265737360d81b606482015260840161115c565b6001600160a01b0382166146ba5760405162461bcd60e51b815260206004820152602360248201527f45524332303a207472616e7366657220746f20746865207a65726f206164647260448201526265737360e81b606482015260840161115c565b6146c5838383614917565b6001600160a01b0383166000908152603360205260409020548181101561473d5760405162461bcd60e51b815260206004820152602660248201527f45524332303a207472616e7366657220616d6f756e7420657863656564732062604482015265616c616e636560d01b606482015260840161115c565b6001600160a01b03808516600090815260336020526040808220858503905591851681529081208054849290614774908490615821565b92505081905550826001600160a01b0316846001600160a01b03167fddf252ad1be2c89b69c2b068fc378daa952ba7f163c4a11628f55a4df523b3ef846040516147c091815260200190565b60405180910390a3611371565b6147d78282612f32565b611677576147ef816001600160a01b03166014614a2e565b6147fa836020614a2e565b60405160200161480b929190615dc8565b60408051601f198184030181529082905262461bcd60e51b825261115c91600401614fec565b6001600160a01b0381163b61489e5760405162461bcd60e51b815260206004820152602d60248201527f455243313936373a206e657720696d706c656d656e746174696f6e206973206e60448201526c1bdd08184818dbdb9d1c9858dd609a1b606482015260840161115c565b600080516020615e7783398151915280546001600160a01b0319166001600160a01b0392909216919091179055565b6148d683614bc9565b6000825111806148e35750805b156115f8576113718383614c09565b600081518351148015613d515750508051602091820120825192909101919091201490565b60975460ff16156115f85760405162461bcd60e51b815260206004820152600f60248201526e14185d5cd9590818dbdb9d1c9858dd608a1b604482015260640161115c565b60006149b1826040518060400160405280602081526020017f5361666545524332303a206c6f772d6c6576656c2063616c6c206661696c6564815250856001600160a01b0316614cfd9092919063ffffffff16565b8051909150156115f857808060200190518101906149cf9190615cf9565b6115f85760405162461bcd60e51b815260206004820152602a60248201527f5361666545524332303a204552433230206f7065726174696f6e20646964206e6044820152691bdd081cdd58d8d9595960b21b606482015260840161115c565b60606000614a3d8360026157e0565b614a48906002615821565b6001600160401b03811115614a5f57614a5f6150e9565b6040519080825280601f01601f191660200182016040528015614a89576020820181803683370190505b509050600360fc1b81600081518110614aa457614aa461579d565b60200101906001600160f81b031916908160001a905350600f60fb1b81600181518110614ad357614ad361579d565b60200101906001600160f81b031916908160001a9053506000614af78460026157e0565b614b02906001615821565b90505b6001811115614b7a576f181899199a1a9b1b9c1cb0b131b232b360811b85600f1660108110614b3657614b3661579d565b1a60f81b828281518110614b4c57614b4c61579d565b60200101906001600160f81b031916908160001a90535060049490941c93614b7381615e3d565b9050614b05565b508315613d515760405162461bcd60e51b815260206004820181905260248201527f537472696e67733a20686578206c656e67746820696e73756666696369656e74604482015260640161115c565b614bd281614831565b6040516001600160a01b038216907fbc7cd75a20ee27fd9adebab32041f755214dbc6bffa90cc0225b39da2e5c2d3b90600090a250565b60606001600160a01b0383163b614c715760405162461bcd60e51b815260206004820152602660248201527f416464726573733a2064656c65676174652063616c6c20746f206e6f6e2d636f6044820152651b9d1c9858dd60d21b606482015260840161115c565b600080846001600160a01b031684604051614c8c9190615934565b600060405180830381855af49150503d8060008114614cc7576040519150601f19603f3d011682016040523d82523d6000602084013e614ccc565b606091505b5091509150614cf48282604051806060016040528060278152602001615e9760279139614d14565b95945050505050565b6060614d0c8484600085614d4d565b949350505050565b60608315614d23575081613d51565b825115614d335782518084602001fd5b8160405162461bcd60e51b815260040161115c9190614fec565b606082471015614dae5760405162461bcd60e51b815260206004820152602660248201527f416464726573733a20696e73756666696369656e742062616c616e636520666f6044820152651c8818d85b1b60d21b606482015260840161115c565b6001600160a01b0385163b614e055760405162461bcd60e51b815260206004820152601d60248201527f416464726573733a2063616c6c20746f206e6f6e2d636f6e7472616374000000604482015260640161115c565b600080866001600160a01b03168587604051614e219190615934565b60006040518083038185875af1925050503d8060008114614e5e576040519150601f19603f3d011682016040523d82523d6000602084013e614e63565b606091505b5091509150614e73828286614d14565b979650505050505050565b828054828255906000526020600020908101928215614ed1579160200282015b82811115614ed15781546001600160a01b0319166001600160a01b03843516178255602090920191600190910190614e9e565b50614edd929150614f55565b5090565b828054614eed90615704565b90600052602060002090601f016020900481019282614f0f5760008555614ed1565b82601f10614f2857805160ff1916838001178555614ed1565b82800160010185558215614ed1579182015b82811115614ed1578251825591602001919060010190614f3a565b5b80821115614edd5760008155600101614f56565b600060208284031215614f7c57600080fd5b81356001600160e01b031981168114613d5157600080fd5b60005b83811015614faf578181015183820152602001614f97565b838111156113715750506000910152565b60008151808452614fd8816020860160208601614f94565b601f01601f19169290920160200192915050565b602081526000613d516020830184614fc0565b6001600160a01b038116811461175757600080fd5b6000806040838503121561502757600080fd5b823561503281614fff565b946020939093013593505050565b60006020828403121561505257600080fd5b8135613d5181614fff565b6001600160401b038116811461175757600080fd5b60006020828403121561508457600080fd5b8135613d518161505d565b6000602082840312156150a157600080fd5b5035919050565b6000806000606084860312156150bd57600080fd5b83356150c881614fff565b925060208401356150d881614fff565b929592945050506040919091013590565b634e487b7160e01b600052604160045260246000fd5b60405161016081016001600160401b0381118282101715615122576151226150e9565b60405290565b60405161014081016001600160401b0381118282101715615122576151226150e9565b604051601f8201601f191681016001600160401b0381118282101715615173576151736150e9565b604052919050565b60006001600160401b03821115615194576151946150e9565b5060051b60200190565b600082601f8301126151af57600080fd5b813560206151c46151bf8361517b565b61514b565b82815260059290921b840181019181810190868411156151e357600080fd5b8286015b848110156152075780356151fa81614fff565b83529183019183016151e7565b509695505050505050565b6000806040838503121561522557600080fd5b82356001600160401b038082111561523c57600080fd5b6152488683870161519e565b935060209150818501358181111561525f57600080fd5b85019050601f8101861361527257600080fd5b80356152806151bf8261517b565b81815260059190911b8201830190838101908883111561529f57600080fd5b928401925b828410156152bd578335825292840192908401906152a4565b80955050505050509250929050565b600080604083850312156152df57600080fd5b8235915060208301356152f181614fff565b809150509250929050565b60006001600160401b03821115615315576153156150e9565b50601f01601f191660200190565b60006153316151bf846152fc565b905082815283838301111561534557600080fd5b828260208301376000602084830101529392505050565b600082601f83011261536d57600080fd5b613d5183833560208501615323565b801515811461175757600080fd5b6000806040838503121561539d57600080fd5b82356001600160401b038111156153b357600080fd5b6153bf8582860161535c565b92505060208301356152f18161537c565b6000602082840312156153e257600080fd5b81356001600160401b038111156153f857600080fd5b614d0c8482850161519e565b600081518084526020808501945080840160005b8381101561543d5781516001600160a01b031687529582019590820190600101615418565b509495945050505050565b60408152600061545b6040830185615404565b82810360208481019190915284518083528582019282019060005b8181101561549257845183529383019391830191600101615476565b5090979650505050505050565b600080604083850312156154b257600080fd5b82356154bd81614fff565b915060208301356001600160401b038111156154d857600080fd5b8301601f810185136154e957600080fd5b6154f885823560208401615323565b9150509250929050565b600082601f83011261551357600080fd5b813560206155236151bf8361517b565b82815260059290921b8401810191818101908684111561554257600080fd5b8286015b848110156152075780356001600160401b038111156155655760008081fd5b6155738986838b010161535c565b845250918301918301615546565b6000806000806080858703121561559757600080fd5b84356155a28161537c565b935060208501356001600160401b03808211156155be57600080fd5b6155ca88838901615502565b945060408701359150808211156155e057600080fd5b6155ec88838901615502565b9350606087013591508082111561560257600080fd5b5061560f87828801615502565b91505092959194509250565b60006020828403121561562d57600080fd5b81356001600160401b0381111561564357600080fd5b614d0c8482850161535c565b6000806020838503121561566257600080fd5b82356001600160401b038082111561567957600080fd5b818501915085601f83011261568d57600080fd5b81358181111561569c57600080fd5b8660208260051b85010111156156b157600080fd5b60209290920196919550909350505050565b602081526000613d516020830184615404565b600080604083850312156156e957600080fd5b82356156f481614fff565b915060208301356152f181614fff565b600181811c9082168061571857607f821691505b60208210810361573857634e487b7160e01b600052602260045260246000fd5b50919050565b6020808252818101527f4f776e61626c653a2063616c6c6572206973206e6f7420746865206f776e6572604082015260600190565b60208082526010908201526f14185d5cd8589b194e881c185d5cd95960821b604082015260600190565b634e487b7160e01b600052603260045260246000fd5b634e487b7160e01b600052601160045260246000fd5b6000828210156157db576157db6157b3565b500390565b60008160001904831182151516156157fa576157fa6157b3565b500290565b60008261581c57634e487b7160e01b600052601260045260246000fd5b500490565b60008219821115615834576158346157b3565b500190565b60006001820161584b5761584b6157b3565b5060010190565b6020808252602c908201527f46756e6374696f6e206d7573742062652063616c6c6564207468726f7567682060408201526b19195b1959d85d1958d85b1b60a21b606082015260800190565b6020808252602c908201527f46756e6374696f6e206d7573742062652063616c6c6564207468726f7567682060408201526b6163746976652070726f787960a01b606082015260800190565b6040815260006158fd6040830185614fc0565b905082151560208301529392505050565b6020808252600c908201526b155b985d5d1a1bdc9a5e995960a21b604082015260600190565b60008251615946818460208701614f94565b9190910192915050565b600082601f83011261596157600080fd5b815161596f6151bf826152fc565b81815284602083860101111561598457600080fd5b614d0c826020830160208701614f94565b805161440d81614fff565b805161440d8161505d565b805161440d8161537c565b600061016082840312156159c957600080fd5b6159d16150ff565b905081516001600160401b03808211156159ea57600080fd5b6159f685838601615950565b8352615a04602085016159a0565b6020840152615a15604085016159a0565b604084015260608401516060840152615a30608085016159a0565b6080840152615a4160a085016159ab565b60a0840152615a5260c085016159ab565b60c084015260e0840151915080821115615a6b57600080fd5b615a7785838601615950565b60e084015261010091508184015181811115615a9257600080fd5b615a9e86828701615950565b838501525061012091508184015181811115615ab957600080fd5b615ac586828701615950565b838501525061014091508184015181811115615ae057600080fd5b615aec86828701615950565b8385015250505092915050565b60008060408385031215615b0c57600080fd5b82516001600160401b0380821115615b2357600080fd5b908401906101408287031215615b3857600080fd5b615b40615128565b825182811115615b4f57600080fd5b615b5b88828601615950565b825250602083015182811115615b7057600080fd5b615b7c88828601615950565b602083015250604083015182811115615b9457600080fd5b615ba088828601615950565b604083015250606083015182811115615bb857600080fd5b615bc488828601615950565b606083015250608083015182811115615bdc57600080fd5b615be888828601615950565b60808301525060a083015182811115615c0057600080fd5b615c0c88828601615950565b60a08301525060c083015182811115615c2457600080fd5b615c3088828601615950565b60c08301525060e083015182811115615c4857600080fd5b615c5488828601615950565b60e0830152506101008084015183811115615c6e57600080fd5b615c7a89828701615950565b828401525050610120615c8e818501615995565b908201526020860151909450915080821115615ca957600080fd5b506154f8858286016159b6565b60208082528181018390526000908460408401835b86811015615207578235615cde81614fff565b6001600160a01b031682529183019190830190600101615ccb565b600060208284031215615d0b57600080fd5b8151613d518161537c565b600060208284031215615d2857600080fd5b5051919050565b6020808252602e908201527f496e697469616c697a61626c653a20636f6e747261637420697320616c72656160408201526d191e481a5b9a5d1a585b1a5e995960921b606082015260800190565b6020808252602b908201527f496e697469616c697a61626c653a20636f6e7472616374206973206e6f74206960408201526a6e697469616c697a696e6760a81b606082015260800190565b7f416363657373436f6e74726f6c3a206163636f756e7420000000000000000000815260008351615e00816017850160208801614f94565b7001034b99036b4b9b9b4b733903937b6329607d1b6017918401918201528351615e31816028840160208801614f94565b01602801949350505050565b600081615e4c57615e4c6157b3565b50600019019056fe546f7563616e2050726f746f636f6c3a204261736520436172626f6e20546f6e6e65360894a13ba1a3210667c828492db98dca3e2076cc3735a920a3ca505d382bbc416464726573733a206c6f772d6c6576656c2064656c65676174652063616c6c206661696c6564a264697066735822122068c9d661d22cabbcdb56a1d8c2ad48ffcec80c55cd476d2cff8f92942ba4f48e64736f6c634300080e0033496e697469616c697a61626c653a20636f6e747261637420697320616c726561",
  "devdoc": {
    "kind": "dev",
    "methods": {
      "addAttributes(bool,string[],string[],string[])": {
        "params": {
          "addToList": "determines whether attribute should be added or removed Other params are arrays of attributes to be added"
        }
      },
      "addRedeemFeeExemptedAddress(address)": {
        "params": {
          "_address": "address to be exempted on redeem fees"
        }
      },
      "addRedeemFeeExemptedTCO2(address)": {
        "params": {
          "_tco2": "TCO2 to be exempted on redeem fees"
        }
      },
      "addToExternalWhiteList(address[])": {
        "params": {
          "erc20Addr": "accepts an array of contract addresses"
        }
      },
      "addToInternalBlackList(address[])": {
        "params": {
          "erc20Addr": "accepts an array of contract addresses"
        }
      },
      "addToInternalWhiteList(address[])": {
        "params": {
          "erc20Addr": "accepts an array of contract addresses"
        }
      },
      "allowance(address,address)": {
        "details": "See {IERC20-allowance}."
      },
      "approve(address,uint256)": {
        "details": "See {IERC20-approve}. NOTE: If `amount` is the maximum `uint256`, the allowance is not updated on `transferFrom`. This is semantically equivalent to an infinite approval. Requirements: - `spender` cannot be the zero address."
      },
      "balanceOf(address)": {
        "details": "See {IERC20-balanceOf}."
      },
      "bridgeBurn(address,uint256)": {
        "details": "invoked only by the ToucanCrosschainMessenger (Router)",
        "params": {
          "_account": "account that will be burned with corss-chain bridged tokens",
          "_amount": "amount of tokens that will be burned"
        }
      },
      "bridgeMint(address,uint256)": {
        "details": "invoked only by the ToucanCrosschainMessenger (Router)",
        "params": {
          "_account": "account that will be minted with corss-chain bridged tokens",
          "_amount": "amount of tokens that will be minted"
        }
      },
      "calculateRedeemFees(address[],uint256[])": {
        "details": "User specifies in front-end the addresses and amounts they want",
        "params": {
          "amounts": "Array of amounts to redeem for each tco2s",
          "tco2s": "Array of TCO2 contract addresses"
        },
        "returns": {
          "_0": "Total fees amount"
        }
      },
      "constructor": {
        "custom:oz-upgrades-unsafe-allow": "constructor"
      },
      "decimals()": {
        "details": "Returns the number of decimals used to get its user representation. For example, if `decimals` equals `2`, a balance of `505` tokens should be displayed to a user as `5.05` (`505 / 10 ** 2`). Tokens usually opt for a value of 18, imitating the relationship between Ether and Wei. This is the value {ERC20} uses, unless this function is overridden; NOTE: This information is only used for _display_ purposes: it in no way affects any of the arithmetic of the contract, including {IERC20-balanceOf} and {IERC20-transfer}."
      },
      "decreaseAllowance(address,uint256)": {
        "details": "Atomically decreases the allowance granted to `spender` by the caller. This is an alternative to {approve} that can be used as a mitigation for problems described in {IERC20-approve}. Emits an {Approval} event indicating the updated allowance. Requirements: - `spender` cannot be the zero address. - `spender` must have allowance for the caller of at least `subtractedValue`."
      },
      "deposit(address,uint256)": {
        "details": "Eligibility is checked via `checkEligible`, balances are tracked for each TCO2 separately",
        "params": {
          "erc20Addr": "ERC20 contract address to be deposited, requires approve"
        }
      },
      "getRemaining()": {
        "details": "Returns the remaining space in pool before hitting the cap"
      },
      "getRoleAdmin(bytes32)": {
        "details": "Returns the admin role that controls `role`. See {grantRole} and {revokeRole}. To change a role's admin, use {_setRoleAdmin}."
      },
      "grantRole(bytes32,address)": {
        "details": "Grants `role` to `account`. If `account` had not been already granted `role`, emits a {RoleGranted} event. Requirements: - the caller must have ``role``'s admin role."
      },
      "hasRole(bytes32,address)": {
        "details": "Returns `true` if `account` has been granted `role`."
      },
      "increaseAllowance(address,uint256)": {
        "details": "Atomically increases the allowance granted to `spender` by the caller. This is an alternative to {approve} that can be used as a mitigation for problems described in {IERC20-approve}. Emits an {Approval} event indicating the updated allowance. Requirements: - `spender` cannot be the zero address."
      },
      "name()": {
        "details": "Returns the name of the token."
      },
      "owner()": {
        "details": "Returns the address of the current owner."
      },
      "pause()": {
        "details": "wraps _pause(), only Admin"
      },
      "paused()": {
        "details": "Returns true if the contract is paused, and false otherwise."
      },
      "proxiableUUID()": {
        "details": "Implementation of the ERC1822 {proxiableUUID} function. This returns the storage slot used by the implementation. It is used to validate that the this implementation remains valid after an upgrade. IMPORTANT: A proxy pointing at a proxiable contract should not be considered proxiable itself, because this risks bricking a proxy that upgrades to it, by delegating to itself until out of gas. Thus it is critical that this function revert if invoked through a proxy. This is guaranteed by the `notDelegated` modifier."
      },
      "redeemAndBurn(address,uint256)": {
        "details": "User needs to approve the pool contract in the TCO2 contract for the amount to be burnt before executing this function.",
        "params": {
          "amount": "Amount to redeem and burn",
          "tco2": "TCO2 to redeem and burn"
        }
      },
      "redeemAuto(uint256)": {
        "details": "BCT Pool tokens in user's wallet get burned",
        "params": {
          "amount": "Total amount to be redeemed"
        }
      },
      "redeemAuto2(uint256)": {
        "params": {
          "amount": "Total amount to be redeemed"
        },
        "returns": {
          "tco2s": "amounts The addresses and amounts of the TCO2s that were automatically redeemed"
        }
      },
      "redeemMany(address[],uint256[])": {
        "details": "User specifies in front-end the addresses and amounts they want BCT Pool token in user's wallet get burned"
      },
      "removeFromExternalWhiteList(address[])": {
        "params": {
          "erc20Addr": "accepts an array of contract addresses"
        }
      },
      "removeFromInternalBlackList(address[])": {
        "params": {
          "erc20Addr": "accepts an array of contract addresses"
        }
      },
      "removeFromInternalWhiteList(address[])": {
        "params": {
          "erc20Addr": "accepts an array of contract addressesc"
        }
      },
      "removeRedeemFeeExemptedAddress(address)": {
        "params": {
          "_address": "address to be removed from exemption"
        }
      },
      "removeRedeemFeeExemptedTCO2(address)": {
        "params": {
          "_tco2": "TCO2 to be removed from exemption"
        }
      },
      "renounceOwnership()": {
        "details": "Leaves the contract without owner. It will not be possible to call `onlyOwner` functions anymore. Can only be called by the current owner. NOTE: Renouncing ownership will leave the contract without an owner, thereby removing any functionality that is only available to the owner."
      },
      "renounceRole(bytes32,address)": {
        "details": "Revokes `role` from the calling account. Roles are often managed via {grantRole} and {revokeRole}: this function's purpose is to provide a mechanism for accounts to lose their privileges if they are compromised (such as when a trusted device is misplaced). If the calling account had been revoked `role`, emits a {RoleRevoked} event. Requirements: - the caller must be `account`."
      },
      "revokeRole(bytes32,address)": {
        "details": "Revokes `role` from `account`. If `account` had been granted `role`, emits a {RoleRevoked} event. Requirements: - the caller must have ``role``'s admin role."
      },
      "setFeeRedeemBurnAddress(address)": {
        "params": {
          "_feeRedeemBurnAddress": "address to transfer the fees to burn"
        }
      },
      "setFeeRedeemBurnPercentage(uint256)": {
        "params": {
          "_feeRedeemBurnPercentageInBase": "percentage of fee in base"
        }
      },
      "setFeeRedeemPercentage(uint256)": {
        "params": {
          "_feeRedeemPercentageInBase": "percentage of fee in base"
        }
      },
      "setFeeRedeemReceiver(address)": {
        "params": {
          "_feeRedeemReceiver": "address to transfer the fees"
        }
      },
      "setMinimumVintageStartTime(uint64)": {
        "params": {
          "_minimumVintageStartTime": "unix time format"
        }
      },
      "setRouter(address)": {
        "details": "use this method to set router address",
        "params": {
          "_router": "address of ToucanCrosschainMessenger"
        }
      },
      "setSupplyCap(uint256)": {
        "details": "supplyCap is initially set to 0 and must be increased before deposits"
      },
      "setTCO2Scoring(address[])": {
        "params": {
          "tco2s": "array of ordered TCO2 addresses"
        }
      },
      "supportsInterface(bytes4)": {
        "details": "See {IERC165-supportsInterface}."
      },
      "switchMapping(string,bool)": {
        "params": {
          "_mappingName": "attribute mapping of project-vintage data",
          "accepted": "determines if mapping works as black or whitelist"
        }
      },
      "symbol()": {
        "details": "Returns the symbol of the token, usually a shorter version of the name."
      },
      "totalSupply()": {
        "details": "See {IERC20-totalSupply}."
      },
      "transferOwnership(address)": {
        "details": "Transfers ownership of the contract to a new account (`newOwner`). Can only be called by the current owner."
      },
      "unpause()": {
        "details": "unpause the system, wraps _unpause(), only Admin"
      },
      "upgradeTo(address)": {
        "details": "Upgrade the implementation of the proxy to `newImplementation`. Calls {_authorizeUpgrade}. Emits an {Upgraded} event."
      },
      "upgradeToAndCall(address,bytes)": {
        "details": "Upgrade the implementation of the proxy to `newImplementation`, and subsequently execute the function call encoded in `data`. Calls {_authorizeUpgrade}. Emits an {Upgraded} event."
      },
      "version()": {
        "details": "Returns the current version of the smart contract"
      }
    },
    "stateVariables": {
      "feeRedeemDivider": {
        "details": "fees redeem percentage with 2 fixed decimals precision"
      }
    },
    "version": 1
  },
  "userdoc": {
    "kind": "user",
    "methods": {
      "addAttributes(bool,string[],string[],string[])": {
        "notice": "Function to add attributes for filtering (does not support complex AttributeSets)"
      },
      "addRedeemFeeExemptedAddress(address)": {
        "notice": "Adds a new address for redeem fees exemption"
      },
      "addRedeemFeeExemptedTCO2(address)": {
        "notice": "Adds a new TCO2 for redeem fees exemption"
      },
      "addToExternalWhiteList(address[])": {
        "notice": "Function to whitelist selected external non-TCO2 contracts by their address"
      },
      "addToInternalBlackList(address[])": {
        "notice": "Function to blacklist certain TCO2 contracts by their address"
      },
      "addToInternalWhiteList(address[])": {
        "notice": "Function to whitelist certain TCO2 contracts by their address"
      },
      "bridgeBurn(address,uint256)": {
        "notice": "burn tokens from account to be cross-chain bridged"
      },
      "bridgeMint(address,uint256)": {
        "notice": "mint tokens to receiver account that were cross-chain bridged"
      },
      "calculateRedeemFees(address[],uint256[])": {
        "notice": "View function to calculate fees pre-execution"
      },
      "checkAttributeMatching(address)": {
        "notice": "checks whether incoming project-vintage-ERC20 token matches the accepted criteria/attributes"
      },
      "checkEligible(address)": {
        "notice": "Checks if token to be deposited is eligible for this pool"
      },
      "deposit(address,uint256)": {
        "notice": "Deposit function for BCT pool that accepts TCO2s and mints BCT 1:1"
      },
      "pause()": {
        "notice": "Emergency function to disable contract's core functionality"
      },
      "redeemAndBurn(address,uint256)": {
        "notice": "Redeem a whitelisted TCO2 without paying any fees and burn the TCO2. Initially added to burn HFC-23 credits, can be used in the future to dispose of any other whitelisted credits."
      },
      "redeemAuto(uint256)": {
        "notice": "Automatically redeems an amount of Pool tokens for underlying TCO2s from an array of ranked TCO2 contracts starting from contract at index 0 until amount is satisfied"
      },
      "redeemAuto2(uint256)": {
        "notice": "Automatically redeems an amount of Pool tokens for underlying TCO2s from an array of ranked TCO2 contracts starting from contract at index 0 until amount is satisfied. redeemAuto2 is slightly more expensive than redeemAuto but it is going to be more optimal to use by other on-chain contracts."
      },
      "redeemFeeExemptedAddresses(address)": {
        "notice": "End users exempted from redeem fees"
      },
      "redeemFeeExemptedTCO2s(address)": {
        "notice": "TCO2s exempted from redeem fees"
      },
      "redeemMany(address[],uint256[])": {
        "notice": "Redeems Pool tokens for multiple underlying TCO2s 1:1"
      },
      "removeFromExternalWhiteList(address[])": {
        "notice": "Function to remove ERC20 addresses from external whitelist"
      },
      "removeFromInternalBlackList(address[])": {
        "notice": "Function to remove TCO2 addresses from internal blacklist"
      },
      "removeFromInternalWhiteList(address[])": {
        "notice": "Function to remove TCO2 addresses from internal whitelist"
      },
      "removeRedeemFeeExemptedAddress(address)": {
        "notice": "Removes an address from redeem fees exemption"
      },
      "removeRedeemFeeExemptedTCO2(address)": {
        "notice": "Removes a TCO2 from redeem fees exemption"
      },
      "router()": {
        "notice": "bridge router who has access to the bridgeMint & bridgeBurn functions which mint/burn pool tokens for cross chain messenges"
      },
      "scoredTCO2s(uint256)": {
        "notice": "array used to read from when redeeming TCO2s automatically"
      },
      "setFeeRedeemBurnAddress(address)": {
        "notice": "Update the fee redeem burn address"
      },
      "setFeeRedeemBurnPercentage(uint256)": {
        "notice": "Update the fee redeem burn percentage"
      },
      "setFeeRedeemPercentage(uint256)": {
        "notice": "Update the fee redeem percentage"
      },
      "setFeeRedeemReceiver(address)": {
        "notice": "Update the fee redeem receiver"
      },
      "setMinimumVintageStartTime(uint64)": {
        "notice": "Determines the minimum vintage start time acceptance criteria of TCO2s"
      },
      "setRouter(address)": {
        "notice": "method to set router address"
      },
      "setSupplyCap(uint256)": {
        "notice": "Function to limit the maximum BCT supply"
      },
      "setTCO2Scoring(address[])": {
        "notice": "Allows MANAGERs or the owner to pass an array to hold TCO2 contract addesses that are ordered by some form of scoring mechanism"
      },
      "switchMapping(string,bool)": {
        "notice": "Generic function to switch attributes mappings into either acceptance or rejection criteria"
      }
    },
    "notice": "Base Carbon Tonne for KlimaDAO Contract is an ERC20 compliant token that acts as a pool for TCO2 tokens It is possible to whitelist Toucan Protocol external tokenized carbon",
    "version": 1
  },
  "storageLayout": {
    "storage": [
      {
        "astId": 1489,
        "contract": "contracts/pools/BaseCarbonTonne.sol:BaseCarbonTonne",
        "label": "_initialized",
        "offset": 0,
        "slot": "0",
        "type": "t_uint8"
      },
      {
        "astId": 1492,
        "contract": "contracts/pools/BaseCarbonTonne.sol:BaseCarbonTonne",
        "label": "_initializing",
        "offset": 1,
        "slot": "0",
        "type": "t_bool"
      },
      {
        "astId": 4534,
        "contract": "contracts/pools/BaseCarbonTonne.sol:BaseCarbonTonne",
        "label": "__gap",
        "offset": 0,
        "slot": "1",
        "type": "t_array(t_uint256)50_storage"
      },
      {
        "astId": 1890,
        "contract": "contracts/pools/BaseCarbonTonne.sol:BaseCarbonTonne",
        "label": "_balances",
        "offset": 0,
        "slot": "51",
        "type": "t_mapping(t_address,t_uint256)"
      },
      {
        "astId": 1896,
        "contract": "contracts/pools/BaseCarbonTonne.sol:BaseCarbonTonne",
        "label": "_allowances",
        "offset": 0,
        "slot": "52",
        "type": "t_mapping(t_address,t_mapping(t_address,t_uint256))"
      },
      {
        "astId": 1898,
        "contract": "contracts/pools/BaseCarbonTonne.sol:BaseCarbonTonne",
        "label": "_totalSupply",
        "offset": 0,
        "slot": "53",
        "type": "t_uint256"
      },
      {
        "astId": 1900,
        "contract": "contracts/pools/BaseCarbonTonne.sol:BaseCarbonTonne",
        "label": "_name",
        "offset": 0,
        "slot": "54",
        "type": "t_string_storage"
      },
      {
        "astId": 1902,
        "contract": "contracts/pools/BaseCarbonTonne.sol:BaseCarbonTonne",
        "label": "_symbol",
        "offset": 0,
        "slot": "55",
        "type": "t_string_storage"
      },
      {
        "astId": 2481,
        "contract": "contracts/pools/BaseCarbonTonne.sol:BaseCarbonTonne",
        "label": "__gap",
        "offset": 0,
        "slot": "56",
        "type": "t_array(t_uint256)45_storage"
      },
      {
        "astId": 980,
        "contract": "contracts/pools/BaseCarbonTonne.sol:BaseCarbonTonne",
        "label": "_owner",
        "offset": 0,
        "slot": "101",
        "type": "t_address"
      },
      {
        "astId": 1092,
        "contract": "contracts/pools/BaseCarbonTonne.sol:BaseCarbonTonne",
        "label": "__gap",
        "offset": 0,
        "slot": "102",
        "type": "t_array(t_uint256)49_storage"
      },
      {
        "astId": 1781,
        "contract": "contracts/pools/BaseCarbonTonne.sol:BaseCarbonTonne",
        "label": "_paused",
        "offset": 0,
        "slot": "151",
        "type": "t_bool"
      },
      {
        "astId": 1870,
        "contract": "contracts/pools/BaseCarbonTonne.sol:BaseCarbonTonne",
        "label": "__gap",
        "offset": 0,
        "slot": "152",
        "type": "t_array(t_uint256)49_storage"
      },
      {
        "astId": 4841,
        "contract": "contracts/pools/BaseCarbonTonne.sol:BaseCarbonTonne",
        "label": "__gap",
        "offset": 0,
        "slot": "201",
        "type": "t_array(t_uint256)50_storage"
      },
      {
        "astId": 596,
        "contract": "contracts/pools/BaseCarbonTonne.sol:BaseCarbonTonne",
        "label": "_roles",
        "offset": 0,
        "slot": "251",
        "type": "t_mapping(t_bytes32,t_struct(RoleData)591_storage)"
      },
      {
        "astId": 895,
        "contract": "contracts/pools/BaseCarbonTonne.sol:BaseCarbonTonne",
        "label": "__gap",
        "offset": 0,
        "slot": "252",
        "type": "t_array(t_uint256)49_storage"
      },
      {
        "astId": 1471,
        "contract": "contracts/pools/BaseCarbonTonne.sol:BaseCarbonTonne",
        "label": "__gap",
        "offset": 0,
        "slot": "301",
        "type": "t_array(t_uint256)50_storage"
      },
      {
        "astId": 1759,
        "contract": "contracts/pools/BaseCarbonTonne.sol:BaseCarbonTonne",
        "label": "__gap",
        "offset": 0,
        "slot": "351",
        "type": "t_array(t_uint256)50_storage"
      },
      {
        "astId": 13840,
        "contract": "contracts/pools/BaseCarbonTonne.sol:BaseCarbonTonne",
        "label": "supplyCap",
        "offset": 0,
        "slot": "401",
        "type": "t_uint256"
      },
      {
        "astId": 13844,
        "contract": "contracts/pools/BaseCarbonTonne.sol:BaseCarbonTonne",
        "label": "tokenBalances",
        "offset": 0,
        "slot": "402",
        "type": "t_mapping(t_address,t_uint256)"
      },
      {
        "astId": 13846,
        "contract": "contracts/pools/BaseCarbonTonne.sol:BaseCarbonTonne",
        "label": "contractRegistry",
        "offset": 0,
        "slot": "403",
        "type": "t_address"
      },
      {
        "astId": 13848,
        "contract": "contracts/pools/BaseCarbonTonne.sol:BaseCarbonTonne",
        "label": "minimumVintageStartTime",
        "offset": 20,
        "slot": "403",
        "type": "t_uint64"
      },
      {
        "astId": 13851,
        "contract": "contracts/pools/BaseCarbonTonne.sol:BaseCarbonTonne",
        "label": "regionsIsAcceptedMapping",
        "offset": 28,
        "slot": "403",
        "type": "t_bool"
      },
      {
        "astId": 13855,
        "contract": "contracts/pools/BaseCarbonTonne.sol:BaseCarbonTonne",
        "label": "regions",
        "offset": 0,
        "slot": "404",
        "type": "t_mapping(t_string_memory_ptr,t_bool)"
      },
      {
        "astId": 13857,
        "contract": "contracts/pools/BaseCarbonTonne.sol:BaseCarbonTonne",
        "label": "standardsIsAcceptedMapping",
        "offset": 0,
        "slot": "405",
        "type": "t_bool"
      },
      {
        "astId": 13861,
        "contract": "contracts/pools/BaseCarbonTonne.sol:BaseCarbonTonne",
        "label": "standards",
        "offset": 0,
        "slot": "406",
        "type": "t_mapping(t_string_memory_ptr,t_bool)"
      },
      {
        "astId": 13863,
        "contract": "contracts/pools/BaseCarbonTonne.sol:BaseCarbonTonne",
        "label": "methodologiesIsAcceptedMapping",
        "offset": 0,
        "slot": "407",
        "type": "t_bool"
      },
      {
        "astId": 13867,
        "contract": "contracts/pools/BaseCarbonTonne.sol:BaseCarbonTonne",
        "label": "methodologies",
        "offset": 0,
        "slot": "408",
        "type": "t_mapping(t_string_memory_ptr,t_bool)"
      },
      {
        "astId": 13872,
        "contract": "contracts/pools/BaseCarbonTonne.sol:BaseCarbonTonne",
        "label": "externalWhiteList",
        "offset": 0,
        "slot": "409",
        "type": "t_mapping(t_address,t_bool)"
      },
      {
        "astId": 13877,
        "contract": "contracts/pools/BaseCarbonTonne.sol:BaseCarbonTonne",
        "label": "internalWhiteList",
        "offset": 0,
        "slot": "410",
        "type": "t_mapping(t_address,t_bool)"
      },
      {
        "astId": 13882,
        "contract": "contracts/pools/BaseCarbonTonne.sol:BaseCarbonTonne",
        "label": "internalBlackList",
        "offset": 0,
        "slot": "411",
        "type": "t_mapping(t_address,t_bool)"
      },
      {
        "astId": 13886,
        "contract": "contracts/pools/BaseCarbonTonne.sol:BaseCarbonTonne",
        "label": "feeRedeemReceiver",
        "offset": 0,
        "slot": "412",
        "type": "t_address"
      },
      {
        "astId": 13888,
        "contract": "contracts/pools/BaseCarbonTonne.sol:BaseCarbonTonne",
        "label": "feeRedeemPercentageInBase",
        "offset": 0,
        "slot": "413",
        "type": "t_uint256"
      },
      {
        "astId": 13891,
        "contract": "contracts/pools/BaseCarbonTonne.sol:BaseCarbonTonne",
        "label": "feeRedeemBurnAddress",
        "offset": 0,
        "slot": "414",
        "type": "t_address"
      },
      {
        "astId": 13894,
        "contract": "contracts/pools/BaseCarbonTonne.sol:BaseCarbonTonne",
        "label": "feeRedeemBurnPercentageInBase",
        "offset": 0,
        "slot": "415",
        "type": "t_uint256"
      },
      {
        "astId": 13900,
        "contract": "contracts/pools/BaseCarbonTonne.sol:BaseCarbonTonne",
        "label": "redeemFeeExemptedAddresses",
        "offset": 0,
        "slot": "416",
        "type": "t_mapping(t_address,t_bool)"
      },
      {
        "astId": 13904,
        "contract": "contracts/pools/BaseCarbonTonne.sol:BaseCarbonTonne",
        "label": "scoredTCO2s",
        "offset": 0,
        "slot": "417",
        "type": "t_array(t_address)dyn_storage"
      },
      {
        "astId": 13910,
        "contract": "contracts/pools/BaseCarbonTonne.sol:BaseCarbonTonne",
        "label": "redeemFeeExemptedTCO2s",
        "offset": 0,
        "slot": "418",
        "type": "t_mapping(t_address,t_bool)"
      },
      {
        "astId": 13914,
        "contract": "contracts/pools/BaseCarbonTonne.sol:BaseCarbonTonne",
        "label": "router",
        "offset": 0,
        "slot": "419",
        "type": "t_address"
      }
    ],
    "types": {
      "t_address": {
        "encoding": "inplace",
        "label": "address",
        "numberOfBytes": "20"
      },
      "t_array(t_address)dyn_storage": {
        "base": "t_address",
        "encoding": "dynamic_array",
        "label": "address[]",
        "numberOfBytes": "32"
      },
      "t_array(t_uint256)45_storage": {
        "base": "t_uint256",
        "encoding": "inplace",
        "label": "uint256[45]",
        "numberOfBytes": "1440"
      },
      "t_array(t_uint256)49_storage": {
        "base": "t_uint256",
        "encoding": "inplace",
        "label": "uint256[49]",
        "numberOfBytes": "1568"
      },
      "t_array(t_uint256)50_storage": {
        "base": "t_uint256",
        "encoding": "inplace",
        "label": "uint256[50]",
        "numberOfBytes": "1600"
      },
      "t_bool": {
        "encoding": "inplace",
        "label": "bool",
        "numberOfBytes": "1"
      },
      "t_bytes32": {
        "encoding": "inplace",
        "label": "bytes32",
        "numberOfBytes": "32"
      },
      "t_mapping(t_address,t_bool)": {
        "encoding": "mapping",
        "key": "t_address",
        "label": "mapping(address => bool)",
        "numberOfBytes": "32",
        "value": "t_bool"
      },
      "t_mapping(t_address,t_mapping(t_address,t_uint256))": {
        "encoding": "mapping",
        "key": "t_address",
        "label": "mapping(address => mapping(address => uint256))",
        "numberOfBytes": "32",
        "value": "t_mapping(t_address,t_uint256)"
      },
      "t_mapping(t_address,t_uint256)": {
        "encoding": "mapping",
        "key": "t_address",
        "label": "mapping(address => uint256)",
        "numberOfBytes": "32",
        "value": "t_uint256"
      },
      "t_mapping(t_bytes32,t_struct(RoleData)591_storage)": {
        "encoding": "mapping",
        "key": "t_bytes32",
        "label": "mapping(bytes32 => struct AccessControlUpgradeable.RoleData)",
        "numberOfBytes": "32",
        "value": "t_struct(RoleData)591_storage"
      },
      "t_mapping(t_string_memory_ptr,t_bool)": {
        "encoding": "mapping",
        "key": "t_string_memory_ptr",
        "label": "mapping(string => bool)",
        "numberOfBytes": "32",
        "value": "t_bool"
      },
      "t_string_memory_ptr": {
        "encoding": "bytes",
        "label": "string",
        "numberOfBytes": "32"
      },
      "t_string_storage": {
        "encoding": "bytes",
        "label": "string",
        "numberOfBytes": "32"
      },
      "t_struct(RoleData)591_storage": {
        "encoding": "inplace",
        "label": "struct AccessControlUpgradeable.RoleData",
        "members": [
          {
            "astId": 588,
            "contract": "contracts/pools/BaseCarbonTonne.sol:BaseCarbonTonne",
            "label": "members",
            "offset": 0,
            "slot": "0",
            "type": "t_mapping(t_address,t_bool)"
          },
          {
            "astId": 590,
            "contract": "contracts/pools/BaseCarbonTonne.sol:BaseCarbonTonne",
            "label": "adminRole",
            "offset": 0,
            "slot": "1",
            "type": "t_bytes32"
          }
        ],
        "numberOfBytes": "64"
      },
      "t_uint256": {
        "encoding": "inplace",
        "label": "uint256",
        "numberOfBytes": "32"
      },
      "t_uint64": {
        "encoding": "inplace",
        "label": "uint64",
        "numberOfBytes": "8"
      },
      "t_uint8": {
        "encoding": "inplace",
        "label": "uint8",
        "numberOfBytes": "1"
      }
    }
  }
}