{
  "address": "0xf2438A14f668b1bbA53408346288f3d7C71c10a1",
  "abi": [
    {
      "inputs": [],
      "stateMutability": "nonpayable",
      "type": "constructor"
    },
    {
      "anonymous": false,
      "inputs": [
        {
          "indexed": false,
          "internalType": "address",
          "name": "tco2",
          "type": "address"
        }
      ],
      "name": "AddFeeExemptedTCO2",
      "type": "event"
    },
    {
      "anonymous": false,
      "inputs": [
        {
          "indexed": false,
          "internalType": "address",
          "name": "previousAdmin",
          "type": "address"
        },
        {
          "indexed": false,
          "internalType": "address",
          "name": "newAdmin",
          "type": "address"
        }
      ],
      "name": "AdminChanged",
      "type": "event"
    },
    {
      "anonymous": false,
      "inputs": [
        {
          "indexed": true,
          "internalType": "address",
          "name": "owner",
          "type": "address"
        },
        {
          "indexed": true,
          "internalType": "address",
          "name": "spender",
          "type": "address"
        },
        {
          "indexed": false,
          "internalType": "uint256",
          "name": "value",
          "type": "uint256"
        }
      ],
      "name": "Approval",
      "type": "event"
    },
    {
      "anonymous": false,
      "inputs": [
        {
          "indexed": false,
          "internalType": "string",
          "name": "methodology",
          "type": "string"
        }
      ],
      "name": "AttributeMethodologyAdded",
      "type": "event"
    },
    {
      "anonymous": false,
      "inputs": [
        {
          "indexed": false,
          "internalType": "string",
          "name": "methodology",
          "type": "string"
        }
      ],
      "name": "AttributeMethodologyRemoved",
      "type": "event"
    },
    {
      "anonymous": false,
      "inputs": [
        {
          "indexed": false,
          "internalType": "string",
          "name": "region",
          "type": "string"
        }
      ],
      "name": "AttributeRegionAdded",
      "type": "event"
    },
    {
      "anonymous": false,
      "inputs": [
        {
          "indexed": false,
          "internalType": "string",
          "name": "region",
          "type": "string"
        }
      ],
      "name": "AttributeRegionRemoved",
      "type": "event"
    },
    {
      "anonymous": false,
      "inputs": [
        {
          "indexed": false,
          "internalType": "string",
          "name": "standard",
          "type": "string"
        }
      ],
      "name": "AttributeStandardAdded",
      "type": "event"
    },
    {
      "anonymous": false,
      "inputs": [
        {
          "indexed": false,
          "internalType": "string",
          "name": "standard",
          "type": "string"
        }
      ],
      "name": "AttributeStandardRemoved",
      "type": "event"
    },
    {
      "anonymous": false,
      "inputs": [
        {
          "indexed": true,
          "internalType": "address",
          "name": "beacon",
          "type": "address"
        }
      ],
      "name": "BeaconUpgraded",
      "type": "event"
    },
    {
      "anonymous": false,
      "inputs": [
        {
          "indexed": false,
          "internalType": "address",
          "name": "erc20Addr",
          "type": "address"
        },
        {
          "indexed": false,
          "internalType": "uint256",
          "name": "amount",
          "type": "uint256"
        }
      ],
      "name": "Deposited",
      "type": "event"
    },
    {
      "anonymous": false,
      "inputs": [
        {
          "indexed": false,
          "internalType": "address",
          "name": "erc20addr",
          "type": "address"
        }
      ],
      "name": "ExternalAddressRemovedFromWhitelist",
      "type": "event"
    },
    {
      "anonymous": false,
      "inputs": [
        {
          "indexed": false,
          "internalType": "address",
          "name": "erc20addr",
          "type": "address"
        }
      ],
      "name": "ExternalAddressWhitelisted",
      "type": "event"
    },
    {
      "anonymous": false,
      "inputs": [
        {
          "indexed": false,
          "internalType": "uint8",
          "name": "version",
          "type": "uint8"
        }
      ],
      "name": "Initialized",
      "type": "event"
    },
    {
      "anonymous": false,
      "inputs": [
        {
          "indexed": false,
          "internalType": "address",
          "name": "erc20addr",
          "type": "address"
        }
      ],
      "name": "InternalAddressBlacklisted",
      "type": "event"
    },
    {
      "anonymous": false,
      "inputs": [
        {
          "indexed": false,
          "internalType": "address",
          "name": "erc20addr",
          "type": "address"
        }
      ],
      "name": "InternalAddressRemovedFromBlackList",
      "type": "event"
    },
    {
      "anonymous": false,
      "inputs": [
        {
          "indexed": false,
          "internalType": "address",
          "name": "erc20addr",
          "type": "address"
        }
      ],
      "name": "InternalAddressRemovedFromWhitelist",
      "type": "event"
    },
    {
      "anonymous": false,
      "inputs": [
        {
          "indexed": false,
          "internalType": "address",
          "name": "erc20addr",
          "type": "address"
        }
      ],
      "name": "InternalAddressWhitelisted",
      "type": "event"
    },
    {
      "anonymous": false,
      "inputs": [
        {
          "indexed": false,
          "internalType": "string",
          "name": "mappingName",
          "type": "string"
        },
        {
          "indexed": false,
          "internalType": "bool",
          "name": "accepted",
          "type": "bool"
        }
      ],
      "name": "MappingSwitched",
      "type": "event"
    },
    {
      "anonymous": false,
      "inputs": [
        {
          "indexed": false,
          "internalType": "uint256",
          "name": "minimumVintageStartTime",
          "type": "uint256"
        }
      ],
      "name": "MinimumVintageStartTimeUpdated",
      "type": "event"
    },
    {
      "anonymous": false,
      "inputs": [
        {
          "indexed": true,
          "internalType": "address",
          "name": "previousOwner",
          "type": "address"
        },
        {
          "indexed": true,
          "internalType": "address",
          "name": "newOwner",
          "type": "address"
        }
      ],
      "name": "OwnershipTransferred",
      "type": "event"
    },
    {
      "anonymous": false,
      "inputs": [
        {
          "indexed": false,
          "internalType": "address",
          "name": "account",
          "type": "address"
        }
      ],
      "name": "Paused",
      "type": "event"
    },
    {
      "anonymous": false,
      "inputs": [
        {
          "indexed": false,
          "internalType": "address",
          "name": "redeemer",
          "type": "address"
        },
        {
          "indexed": false,
          "internalType": "uint256",
          "name": "fees",
          "type": "uint256"
        }
      ],
      "name": "RedeemFeeBurnt",
      "type": "event"
    },
    {
      "anonymous": false,
      "inputs": [
        {
          "indexed": false,
          "internalType": "address",
          "name": "redeemer",
          "type": "address"
        },
        {
          "indexed": false,
          "internalType": "uint256",
          "name": "fees",
          "type": "uint256"
        }
      ],
      "name": "RedeemFeePaid",
      "type": "event"
    },
    {
      "anonymous": false,
      "inputs": [
        {
          "indexed": false,
          "internalType": "address",
          "name": "account",
          "type": "address"
        },
        {
          "indexed": false,
          "internalType": "address",
          "name": "erc20",
          "type": "address"
        },
        {
          "indexed": false,
          "internalType": "uint256",
          "name": "amount",
          "type": "uint256"
        }
      ],
      "name": "Redeemed",
      "type": "event"
    },
    {
      "anonymous": false,
      "inputs": [
        {
          "indexed": false,
          "internalType": "address",
          "name": "tco2",
          "type": "address"
        }
      ],
      "name": "RemoveFeeExemptedTCO2",
      "type": "event"
    },
    {
      "anonymous": false,
      "inputs": [
        {
          "indexed": true,
          "internalType": "bytes32",
          "name": "role",
          "type": "bytes32"
        },
        {
          "indexed": true,
          "internalType": "bytes32",
          "name": "previousAdminRole",
          "type": "bytes32"
        },
        {
          "indexed": true,
          "internalType": "bytes32",
          "name": "newAdminRole",
          "type": "bytes32"
        }
      ],
      "name": "RoleAdminChanged",
      "type": "event"
    },
    {
      "anonymous": false,
      "inputs": [
        {
          "indexed": true,
          "internalType": "bytes32",
          "name": "role",
          "type": "bytes32"
        },
        {
          "indexed": true,
          "internalType": "address",
          "name": "account",
          "type": "address"
        },
        {
          "indexed": true,
          "internalType": "address",
          "name": "sender",
          "type": "address"
        }
      ],
      "name": "RoleGranted",
      "type": "event"
    },
    {
      "anonymous": false,
      "inputs": [
        {
          "indexed": true,
          "internalType": "bytes32",
          "name": "role",
          "type": "bytes32"
        },
        {
          "indexed": true,
          "internalType": "address",
          "name": "account",
          "type": "address"
        },
        {
          "indexed": true,
          "internalType": "address",
          "name": "sender",
          "type": "address"
        }
      ],
      "name": "RoleRevoked",
      "type": "event"
    },
    {
      "anonymous": false,
      "inputs": [
        {
          "indexed": false,
          "internalType": "address",
          "name": "router",
          "type": "address"
        }
      ],
      "name": "RouterUpdated",
      "type": "event"
    },
    {
      "anonymous": false,
      "inputs": [
        {
          "indexed": false,
          "internalType": "uint256",
          "name": "newCap",
          "type": "uint256"
        }
      ],
      "name": "SupplyCapUpdated",
      "type": "event"
    },
    {
      "anonymous": false,
      "inputs": [
        {
          "indexed": false,
          "internalType": "address[]",
          "name": "tco2s",
          "type": "address[]"
        }
      ],
      "name": "TCO2ScoringUpdated",
      "type": "event"
    },
    {
      "anonymous": false,
      "inputs": [
        {
          "indexed": false,
          "internalType": "address",
          "name": "ContractRegistry",
          "type": "address"
        }
      ],
      "name": "ToucanRegistrySet",
      "type": "event"
    },
    {
      "anonymous": false,
      "inputs": [
        {
          "indexed": true,
          "internalType": "address",
          "name": "from",
          "type": "address"
        },
        {
          "indexed": true,
          "internalType": "address",
          "name": "to",
          "type": "address"
        },
        {
          "indexed": false,
          "internalType": "uint256",
          "name": "value",
          "type": "uint256"
        }
      ],
      "name": "Transfer",
      "type": "event"
    },
    {
      "anonymous": false,
      "inputs": [
        {
          "indexed": false,
          "internalType": "address",
          "name": "account",
          "type": "address"
        }
      ],
      "name": "Unpaused",
      "type": "event"
    },
    {
      "anonymous": false,
      "inputs": [
        {
          "indexed": true,
          "internalType": "address",
          "name": "implementation",
          "type": "address"
        }
      ],
      "name": "Upgraded",
      "type": "event"
    },
    {
      "inputs": [],
      "name": "DEFAULT_ADMIN_ROLE",
      "outputs": [
        {
          "internalType": "bytes32",
          "name": "",
          "type": "bytes32"
        }
      ],
      "stateMutability": "view",
      "type": "function"
    },
    {
      "inputs": [],
      "name": "MANAGER_ROLE",
      "outputs": [
        {
          "internalType": "bytes32",
          "name": "",
          "type": "bytes32"
        }
      ],
      "stateMutability": "view",
      "type": "function"
    },
    {
      "inputs": [],
      "name": "PAUSER_ROLE",
      "outputs": [
        {
          "internalType": "bytes32",
          "name": "",
          "type": "bytes32"
        }
      ],
      "stateMutability": "view",
      "type": "function"
    },
    {
      "inputs": [],
      "name": "VERSION",
      "outputs": [
        {
          "internalType": "string",
          "name": "",
          "type": "string"
        }
      ],
      "stateMutability": "view",
      "type": "function"
    },
    {
      "inputs": [],
      "name": "VERSION_RELEASE_CANDIDATE",
      "outputs": [
        {
          "internalType": "uint256",
          "name": "",
          "type": "uint256"
        }
      ],
      "stateMutability": "view",
      "type": "function"
    },
    {
      "inputs": [
        {
          "internalType": "bool",
          "name": "addToList",
          "type": "bool"
        },
        {
          "internalType": "string[]",
          "name": "_regions",
          "type": "string[]"
        },
        {
          "internalType": "string[]",
          "name": "_standards",
          "type": "string[]"
        },
        {
          "internalType": "string[]",
          "name": "_methodologies",
          "type": "string[]"
        }
      ],
      "name": "addAttributes",
      "outputs": [],
      "stateMutability": "nonpayable",
      "type": "function"
    },
    {
      "inputs": [
        {
          "internalType": "address",
          "name": "_address",
          "type": "address"
        }
      ],
      "name": "addRedeemFeeExemptedAddress",
      "outputs": [],
      "stateMutability": "nonpayable",
      "type": "function"
    },
    {
      "inputs": [
        {
          "internalType": "address",
          "name": "_tco2",
          "type": "address"
        }
      ],
      "name": "addRedeemFeeExemptedTCO2",
      "outputs": [],
      "stateMutability": "nonpayable",
      "type": "function"
    },
    {
      "inputs": [
        {
          "internalType": "address[]",
          "name": "erc20Addr",
          "type": "address[]"
        }
      ],
      "name": "addToExternalWhiteList",
      "outputs": [],
      "stateMutability": "nonpayable",
      "type": "function"
    },
    {
      "inputs": [
        {
          "internalType": "address[]",
          "name": "erc20Addr",
          "type": "address[]"
        }
      ],
      "name": "addToInternalBlackList",
      "outputs": [],
      "stateMutability": "nonpayable",
      "type": "function"
    },
    {
      "inputs": [
        {
          "internalType": "address[]",
          "name": "erc20Addr",
          "type": "address[]"
        }
      ],
      "name": "addToInternalWhiteList",
      "outputs": [],
      "stateMutability": "nonpayable",
      "type": "function"
    },
    {
      "inputs": [
        {
          "internalType": "address",
          "name": "owner",
          "type": "address"
        },
        {
          "internalType": "address",
          "name": "spender",
          "type": "address"
        }
      ],
      "name": "allowance",
      "outputs": [
        {
          "internalType": "uint256",
          "name": "",
          "type": "uint256"
        }
      ],
      "stateMutability": "view",
      "type": "function"
    },
    {
      "inputs": [
        {
          "internalType": "address",
          "name": "spender",
          "type": "address"
        },
        {
          "internalType": "uint256",
          "name": "amount",
          "type": "uint256"
        }
      ],
      "name": "approve",
      "outputs": [
        {
          "internalType": "bool",
          "name": "",
          "type": "bool"
        }
      ],
      "stateMutability": "nonpayable",
      "type": "function"
    },
    {
      "inputs": [
        {
          "internalType": "address",
          "name": "account",
          "type": "address"
        }
      ],
      "name": "balanceOf",
      "outputs": [
        {
          "internalType": "uint256",
          "name": "",
          "type": "uint256"
        }
      ],
      "stateMutability": "view",
      "type": "function"
    },
    {
      "inputs": [
        {
          "internalType": "address",
          "name": "_account",
          "type": "address"
        },
        {
          "internalType": "uint256",
          "name": "_amount",
          "type": "uint256"
        }
      ],
      "name": "bridgeBurn",
      "outputs": [],
      "stateMutability": "nonpayable",
      "type": "function"
    },
    {
      "inputs": [
        {
          "internalType": "address",
          "name": "_account",
          "type": "address"
        },
        {
          "internalType": "uint256",
          "name": "_amount",
          "type": "uint256"
        }
      ],
      "name": "bridgeMint",
      "outputs": [],
      "stateMutability": "nonpayable",
      "type": "function"
    },
    {
      "inputs": [
        {
          "internalType": "uint32",
          "name": "destinationDomain",
          "type": "uint32"
        },
        {
          "internalType": "address[]",
          "name": "tco2s",
          "type": "address[]"
        },
        {
          "internalType": "uint256[]",
          "name": "amounts",
          "type": "uint256[]"
        }
      ],
      "name": "bridgeTCO2s",
      "outputs": [],
      "stateMutability": "nonpayable",
      "type": "function"
    },
    {
      "inputs": [
        {
          "internalType": "address[]",
          "name": "tco2s",
          "type": "address[]"
        },
        {
          "internalType": "uint256[]",
          "name": "amounts",
          "type": "uint256[]"
        }
      ],
      "name": "calculateRedeemFees",
      "outputs": [
        {
          "internalType": "uint256",
          "name": "",
          "type": "uint256"
        }
      ],
      "stateMutability": "view",
      "type": "function"
    },
    {
      "inputs": [
        {
          "internalType": "address",
          "name": "erc20Addr",
          "type": "address"
        }
      ],
      "name": "checkAttributeMatching",
      "outputs": [
        {
          "internalType": "bool",
          "name": "",
          "type": "bool"
        }
      ],
      "stateMutability": "view",
      "type": "function"
    },
    {
      "inputs": [
        {
          "internalType": "address",
          "name": "erc20Addr",
          "type": "address"
        }
      ],
      "name": "checkEligible",
      "outputs": [
        {
          "internalType": "bool",
          "name": "",
          "type": "bool"
        }
      ],
      "stateMutability": "view",
      "type": "function"
    },
    {
      "inputs": [],
      "name": "contractRegistry",
      "outputs": [
        {
          "internalType": "address",
          "name": "",
          "type": "address"
        }
      ],
      "stateMutability": "view",
      "type": "function"
    },
    {
      "inputs": [],
      "name": "decimals",
      "outputs": [
        {
          "internalType": "uint8",
          "name": "",
          "type": "uint8"
        }
      ],
      "stateMutability": "view",
      "type": "function"
    },
    {
      "inputs": [
        {
          "internalType": "address",
          "name": "spender",
          "type": "address"
        },
        {
          "internalType": "uint256",
          "name": "subtractedValue",
          "type": "uint256"
        }
      ],
      "name": "decreaseAllowance",
      "outputs": [
        {
          "internalType": "bool",
          "name": "",
          "type": "bool"
        }
      ],
      "stateMutability": "nonpayable",
      "type": "function"
    },
    {
      "inputs": [
        {
          "internalType": "address",
          "name": "erc20Addr",
          "type": "address"
        },
        {
          "internalType": "uint256",
          "name": "amount",
          "type": "uint256"
        }
      ],
      "name": "deposit",
      "outputs": [],
      "stateMutability": "nonpayable",
      "type": "function"
    },
    {
      "inputs": [
        {
          "internalType": "address",
          "name": "",
          "type": "address"
        }
      ],
      "name": "externalWhiteList",
      "outputs": [
        {
          "internalType": "bool",
          "name": "",
          "type": "bool"
        }
      ],
      "stateMutability": "view",
      "type": "function"
    },
    {
      "inputs": [],
      "name": "feeRedeemBurnAddress",
      "outputs": [
        {
          "internalType": "address",
          "name": "",
          "type": "address"
        }
      ],
      "stateMutability": "view",
      "type": "function"
    },
    {
      "inputs": [],
      "name": "feeRedeemBurnPercentageInBase",
      "outputs": [
        {
          "internalType": "uint256",
          "name": "",
          "type": "uint256"
        }
      ],
      "stateMutability": "view",
      "type": "function"
    },
    {
      "inputs": [],
      "name": "feeRedeemDivider",
      "outputs": [
        {
          "internalType": "uint256",
          "name": "",
          "type": "uint256"
        }
      ],
      "stateMutability": "view",
      "type": "function"
    },
    {
      "inputs": [],
      "name": "feeRedeemPercentageInBase",
      "outputs": [
        {
          "internalType": "uint256",
          "name": "",
          "type": "uint256"
        }
      ],
      "stateMutability": "view",
      "type": "function"
    },
    {
      "inputs": [],
      "name": "feeRedeemReceiver",
      "outputs": [
        {
          "internalType": "address",
          "name": "",
          "type": "address"
        }
      ],
      "stateMutability": "view",
      "type": "function"
    },
    {
      "inputs": [],
      "name": "getRemaining",
      "outputs": [
        {
          "internalType": "uint256",
          "name": "",
          "type": "uint256"
        }
      ],
      "stateMutability": "view",
      "type": "function"
    },
    {
      "inputs": [
        {
          "internalType": "bytes32",
          "name": "role",
          "type": "bytes32"
        }
      ],
      "name": "getRoleAdmin",
      "outputs": [
        {
          "internalType": "bytes32",
          "name": "",
          "type": "bytes32"
        }
      ],
      "stateMutability": "view",
      "type": "function"
    },
    {
      "inputs": [],
      "name": "getScoredTCO2s",
      "outputs": [
        {
          "internalType": "address[]",
          "name": "",
          "type": "address[]"
        }
      ],
      "stateMutability": "view",
      "type": "function"
    },
    {
      "inputs": [
        {
          "internalType": "bytes32",
          "name": "role",
          "type": "bytes32"
        },
        {
          "internalType": "address",
          "name": "account",
          "type": "address"
        }
      ],
      "name": "grantRole",
      "outputs": [],
      "stateMutability": "nonpayable",
      "type": "function"
    },
    {
      "inputs": [
        {
          "internalType": "bytes32",
          "name": "role",
          "type": "bytes32"
        },
        {
          "internalType": "address",
          "name": "account",
          "type": "address"
        }
      ],
      "name": "hasRole",
      "outputs": [
        {
          "internalType": "bool",
          "name": "",
          "type": "bool"
        }
      ],
      "stateMutability": "view",
      "type": "function"
    },
    {
      "inputs": [
        {
          "internalType": "address",
          "name": "spender",
          "type": "address"
        },
        {
          "internalType": "uint256",
          "name": "addedValue",
          "type": "uint256"
        }
      ],
      "name": "increaseAllowance",
      "outputs": [
        {
          "internalType": "bool",
          "name": "",
          "type": "bool"
        }
      ],
      "stateMutability": "nonpayable",
      "type": "function"
    },
    {
      "inputs": [],
      "name": "initialize",
      "outputs": [],
      "stateMutability": "nonpayable",
      "type": "function"
    },
    {
      "inputs": [
        {
          "internalType": "address",
          "name": "",
          "type": "address"
        }
      ],
      "name": "internalBlackList",
      "outputs": [
        {
          "internalType": "bool",
          "name": "",
          "type": "bool"
        }
      ],
      "stateMutability": "view",
      "type": "function"
    },
    {
      "inputs": [
        {
          "internalType": "address",
          "name": "",
          "type": "address"
        }
      ],
      "name": "internalWhiteList",
      "outputs": [
        {
          "internalType": "bool",
          "name": "",
          "type": "bool"
        }
      ],
      "stateMutability": "view",
      "type": "function"
    },
    {
      "inputs": [
        {
          "internalType": "string",
          "name": "",
          "type": "string"
        }
      ],
      "name": "methodologies",
      "outputs": [
        {
          "internalType": "bool",
          "name": "",
          "type": "bool"
        }
      ],
      "stateMutability": "view",
      "type": "function"
    },
    {
      "inputs": [],
      "name": "methodologiesIsAcceptedMapping",
      "outputs": [
        {
          "internalType": "bool",
          "name": "",
          "type": "bool"
        }
      ],
      "stateMutability": "view",
      "type": "function"
    },
    {
      "inputs": [],
      "name": "minimumVintageStartTime",
      "outputs": [
        {
          "internalType": "uint64",
          "name": "",
          "type": "uint64"
        }
      ],
      "stateMutability": "view",
      "type": "function"
    },
    {
      "inputs": [],
      "name": "name",
      "outputs": [
        {
          "internalType": "string",
          "name": "",
          "type": "string"
        }
      ],
      "stateMutability": "view",
      "type": "function"
    },
    {
      "inputs": [],
      "name": "owner",
      "outputs": [
        {
          "internalType": "address",
          "name": "",
          "type": "address"
        }
      ],
      "stateMutability": "view",
      "type": "function"
    },
    {
      "inputs": [],
      "name": "pause",
      "outputs": [],
      "stateMutability": "nonpayable",
      "type": "function"
    },
    {
      "inputs": [],
      "name": "paused",
      "outputs": [
        {
          "internalType": "bool",
          "name": "",
          "type": "bool"
        }
      ],
      "stateMutability": "view",
      "type": "function"
    },
    {
      "inputs": [],
      "name": "proxiableUUID",
      "outputs": [
        {
          "internalType": "bytes32",
          "name": "",
          "type": "bytes32"
        }
      ],
      "stateMutability": "view",
      "type": "function"
    },
    {
      "inputs": [
        {
          "internalType": "address",
          "name": "tco2",
          "type": "address"
        },
        {
          "internalType": "uint256",
          "name": "amount",
          "type": "uint256"
        }
      ],
      "name": "redeemAndBurn",
      "outputs": [],
      "stateMutability": "nonpayable",
      "type": "function"
    },
    {
      "inputs": [
        {
          "internalType": "uint256",
          "name": "amount",
          "type": "uint256"
        }
      ],
      "name": "redeemAuto",
      "outputs": [],
      "stateMutability": "nonpayable",
      "type": "function"
    },
    {
      "inputs": [
        {
          "internalType": "uint256",
          "name": "amount",
          "type": "uint256"
        }
      ],
      "name": "redeemAuto2",
      "outputs": [
        {
          "internalType": "address[]",
          "name": "tco2s",
          "type": "address[]"
        },
        {
          "internalType": "uint256[]",
          "name": "amounts",
          "type": "uint256[]"
        }
      ],
      "stateMutability": "nonpayable",
      "type": "function"
    },
    {
      "inputs": [
        {
          "internalType": "address",
          "name": "",
          "type": "address"
        }
      ],
      "name": "redeemFeeExemptedAddresses",
      "outputs": [
        {
          "internalType": "bool",
          "name": "",
          "type": "bool"
        }
      ],
      "stateMutability": "view",
      "type": "function"
    },
    {
      "inputs": [
        {
          "internalType": "address",
          "name": "",
          "type": "address"
        }
      ],
      "name": "redeemFeeExemptedTCO2s",
      "outputs": [
        {
          "internalType": "bool",
          "name": "",
          "type": "bool"
        }
      ],
      "stateMutability": "view",
      "type": "function"
    },
    {
      "inputs": [
        {
          "internalType": "address[]",
          "name": "tco2s",
          "type": "address[]"
        },
        {
          "internalType": "uint256[]",
          "name": "amounts",
          "type": "uint256[]"
        }
      ],
      "name": "redeemMany",
      "outputs": [],
      "stateMutability": "nonpayable",
      "type": "function"
    },
    {
      "inputs": [
        {
          "internalType": "string",
          "name": "",
          "type": "string"
        }
      ],
      "name": "regions",
      "outputs": [
        {
          "internalType": "bool",
          "name": "",
          "type": "bool"
        }
      ],
      "stateMutability": "view",
      "type": "function"
    },
    {
      "inputs": [],
      "name": "regionsIsAcceptedMapping",
      "outputs": [
        {
          "internalType": "bool",
          "name": "",
          "type": "bool"
        }
      ],
      "stateMutability": "view",
      "type": "function"
    },
    {
      "inputs": [
        {
          "internalType": "address[]",
          "name": "erc20Addr",
          "type": "address[]"
        }
      ],
      "name": "removeFromExternalWhiteList",
      "outputs": [],
      "stateMutability": "nonpayable",
      "type": "function"
    },
    {
      "inputs": [
        {
          "internalType": "address[]",
          "name": "erc20Addr",
          "type": "address[]"
        }
      ],
      "name": "removeFromInternalBlackList",
      "outputs": [],
      "stateMutability": "nonpayable",
      "type": "function"
    },
    {
      "inputs": [
        {
          "internalType": "address[]",
          "name": "erc20Addr",
          "type": "address[]"
        }
      ],
      "name": "removeFromInternalWhiteList",
      "outputs": [],
      "stateMutability": "nonpayable",
      "type": "function"
    },
    {
      "inputs": [
        {
          "internalType": "address",
          "name": "_address",
          "type": "address"
        }
      ],
      "name": "removeRedeemFeeExemptedAddress",
      "outputs": [],
      "stateMutability": "nonpayable",
      "type": "function"
    },
    {
      "inputs": [
        {
          "internalType": "address",
          "name": "_tco2",
          "type": "address"
        }
      ],
      "name": "removeRedeemFeeExemptedTCO2",
      "outputs": [],
      "stateMutability": "nonpayable",
      "type": "function"
    },
    {
      "inputs": [],
      "name": "renounceOwnership",
      "outputs": [],
      "stateMutability": "nonpayable",
      "type": "function"
    },
    {
      "inputs": [
        {
          "internalType": "bytes32",
          "name": "role",
          "type": "bytes32"
        },
        {
          "internalType": "address",
          "name": "account",
          "type": "address"
        }
      ],
      "name": "renounceRole",
      "outputs": [],
      "stateMutability": "nonpayable",
      "type": "function"
    },
    {
      "inputs": [
        {
          "internalType": "bytes32",
          "name": "role",
          "type": "bytes32"
        },
        {
          "internalType": "address",
          "name": "account",
          "type": "address"
        }
      ],
      "name": "revokeRole",
      "outputs": [],
      "stateMutability": "nonpayable",
      "type": "function"
    },
    {
      "inputs": [],
      "name": "router",
      "outputs": [
        {
          "internalType": "address",
          "name": "",
          "type": "address"
        }
      ],
      "stateMutability": "view",
      "type": "function"
    },
    {
      "inputs": [
        {
          "internalType": "uint256",
          "name": "",
          "type": "uint256"
        }
      ],
      "name": "scoredTCO2s",
      "outputs": [
        {
          "internalType": "address",
          "name": "",
          "type": "address"
        }
      ],
      "stateMutability": "view",
      "type": "function"
    },
    {
      "inputs": [
        {
          "internalType": "address",
          "name": "_feeRedeemBurnAddress",
          "type": "address"
        }
      ],
      "name": "setFeeRedeemBurnAddress",
      "outputs": [],
      "stateMutability": "nonpayable",
      "type": "function"
    },
    {
      "inputs": [
        {
          "internalType": "uint256",
          "name": "_feeRedeemBurnPercentageInBase",
          "type": "uint256"
        }
      ],
      "name": "setFeeRedeemBurnPercentage",
      "outputs": [],
      "stateMutability": "nonpayable",
      "type": "function"
    },
    {
      "inputs": [
        {
          "internalType": "uint256",
          "name": "_feeRedeemPercentageInBase",
          "type": "uint256"
        }
      ],
      "name": "setFeeRedeemPercentage",
      "outputs": [],
      "stateMutability": "nonpayable",
      "type": "function"
    },
    {
      "inputs": [
        {
          "internalType": "address",
          "name": "_feeRedeemReceiver",
          "type": "address"
        }
      ],
      "name": "setFeeRedeemReceiver",
      "outputs": [],
      "stateMutability": "nonpayable",
      "type": "function"
    },
    {
      "inputs": [
        {
          "internalType": "uint64",
          "name": "_minimumVintageStartTime",
          "type": "uint64"
        }
      ],
      "name": "setMinimumVintageStartTime",
      "outputs": [],
      "stateMutability": "nonpayable",
      "type": "function"
    },
    {
      "inputs": [
        {
          "internalType": "address",
          "name": "_router",
          "type": "address"
        }
      ],
      "name": "setRouter",
      "outputs": [],
      "stateMutability": "nonpayable",
      "type": "function"
    },
    {
      "inputs": [
        {
          "internalType": "uint256",
          "name": "newCap",
          "type": "uint256"
        }
      ],
      "name": "setSupplyCap",
      "outputs": [],
      "stateMutability": "nonpayable",
      "type": "function"
    },
    {
      "inputs": [
        {
          "internalType": "address[]",
          "name": "tco2s",
          "type": "address[]"
        }
      ],
      "name": "setTCO2Scoring",
      "outputs": [],
      "stateMutability": "nonpayable",
      "type": "function"
    },
    {
      "inputs": [
        {
          "internalType": "address",
          "name": "_address",
          "type": "address"
        }
      ],
      "name": "setToucanContractRegistry",
      "outputs": [],
      "stateMutability": "nonpayable",
      "type": "function"
    },
    {
      "inputs": [
        {
          "internalType": "string",
          "name": "",
          "type": "string"
        }
      ],
      "name": "standards",
      "outputs": [
        {
          "internalType": "bool",
          "name": "",
          "type": "bool"
        }
      ],
      "stateMutability": "view",
      "type": "function"
    },
    {
      "inputs": [],
      "name": "standardsIsAcceptedMapping",
      "outputs": [
        {
          "internalType": "bool",
          "name": "",
          "type": "bool"
        }
      ],
      "stateMutability": "view",
      "type": "function"
    },
    {
      "inputs": [],
      "name": "supplyCap",
      "outputs": [
        {
          "internalType": "uint256",
          "name": "",
          "type": "uint256"
        }
      ],
      "stateMutability": "view",
      "type": "function"
    },
    {
      "inputs": [
        {
          "internalType": "bytes4",
          "name": "interfaceId",
          "type": "bytes4"
        }
      ],
      "name": "supportsInterface",
      "outputs": [
        {
          "internalType": "bool",
          "name": "",
          "type": "bool"
        }
      ],
      "stateMutability": "view",
      "type": "function"
    },
    {
      "inputs": [
        {
          "internalType": "string",
          "name": "_mappingName",
          "type": "string"
        },
        {
          "internalType": "bool",
          "name": "accepted",
          "type": "bool"
        }
      ],
      "name": "switchMapping",
      "outputs": [],
      "stateMutability": "nonpayable",
      "type": "function"
    },
    {
      "inputs": [],
      "name": "symbol",
      "outputs": [
        {
          "internalType": "string",
          "name": "",
          "type": "string"
        }
      ],
      "stateMutability": "view",
      "type": "function"
    },
    {
      "inputs": [
        {
          "internalType": "address",
          "name": "tco2",
          "type": "address"
        }
      ],
      "name": "tokenBalances",
      "outputs": [
        {
          "internalType": "uint256",
          "name": "",
          "type": "uint256"
        }
      ],
      "stateMutability": "view",
      "type": "function"
    },
    {
      "inputs": [],
      "name": "totalSupply",
      "outputs": [
        {
          "internalType": "uint256",
          "name": "",
          "type": "uint256"
        }
      ],
      "stateMutability": "view",
      "type": "function"
    },
    {
      "inputs": [
        {
          "internalType": "address",
          "name": "recipient",
          "type": "address"
        },
        {
          "internalType": "uint256",
          "name": "amount",
          "type": "uint256"
        }
      ],
      "name": "transfer",
      "outputs": [
        {
          "internalType": "bool",
          "name": "",
          "type": "bool"
        }
      ],
      "stateMutability": "nonpayable",
      "type": "function"
    },
    {
      "inputs": [
        {
          "internalType": "address",
          "name": "sender",
          "type": "address"
        },
        {
          "internalType": "address",
          "name": "recipient",
          "type": "address"
        },
        {
          "internalType": "uint256",
          "name": "amount",
          "type": "uint256"
        }
      ],
      "name": "transferFrom",
      "outputs": [
        {
          "internalType": "bool",
          "name": "",
          "type": "bool"
        }
      ],
      "stateMutability": "nonpayable",
      "type": "function"
    },
    {
      "inputs": [
        {
          "internalType": "address",
          "name": "newOwner",
          "type": "address"
        }
      ],
      "name": "transferOwnership",
      "outputs": [],
      "stateMutability": "nonpayable",
      "type": "function"
    },
    {
      "inputs": [],
      "name": "unpause",
      "outputs": [],
      "stateMutability": "nonpayable",
      "type": "function"
    },
    {
      "inputs": [
        {
          "internalType": "address",
          "name": "newImplementation",
          "type": "address"
        }
      ],
      "name": "upgradeTo",
      "outputs": [],
      "stateMutability": "nonpayable",
      "type": "function"
    },
    {
      "inputs": [
        {
          "internalType": "address",
          "name": "newImplementation",
          "type": "address"
        },
        {
          "internalType": "bytes",
          "name": "data",
          "type": "bytes"
        }
      ],
      "name": "upgradeToAndCall",
      "outputs": [],
      "stateMutability": "payable",
      "type": "function"
    }
  ],
  "numDeployments": 9,
  "solcInputHash": "87265e09931175e693d8016b4db075c5",
  "bytecode": "0x60a0604052306080523480156200001557600080fd5b506200002062000026565b62000156565b6200003260ff62000035565b50565b60008054610100900460ff1615620000ce578160ff1660011480156200006e57506200006c306200014760201b620036c91760201c565b155b620000c65760405162461bcd60e51b815260206004820152602e602482015260008051602062005da683398151915260448201526d191e481a5b9a5d1a585b1a5e995960921b60648201526084015b60405180910390fd5b506000919050565b60005460ff8084169116106200012d5760405162461bcd60e51b815260206004820152602e602482015260008051602062005da683398151915260448201526d191e481a5b9a5d1a585b1a5e995960921b6064820152608401620000bd565b506000805460ff191660ff92909216919091179055600190565b6001600160a01b03163b151590565b608051615c186200018e600039600081816114eb0152818161152b01528181611f5001528181611f90015261208a0152615c186000f3fe6080604052600436106104cb5760003560e01c80638662522f11610276578063c36a25731161014f578063e882e37b116100c1578063f141b84f11610085578063f141b84f14610f85578063f2fde38b14610fa7578063f3edb9ec14610fc7578063f75991cd14611003578063f887ea401461103f578063ffa1ad741461106057600080fd5b8063e882e37b14610eaf578063e9d131ad14610ecf578063ec87621c14610eef578063f06f510314610f23578063f138ac1614610f5457600080fd5b8063dc5f560e11610113578063dc5f560e14610dee578063dd62ed3e14610e0e578063dff0f52314610e2e578063e07f744c14610e45578063e0d7cad914610e65578063e63ab1e914610e7b57600080fd5b8063c36a257314610d63578063d4e457ec14610d7e578063d547741f14610d99578063d6a022b814610db9578063d80e05aa14610dce57600080fd5b8063a217fddf116101e8578063abf410e5116101ac578063abf410e514610ca0578063b516f8cf14610cc1578063b6a3f59a14610ce1578063bbe669eb14610d01578063bf2f870f14610d21578063c0d7865514610d4357600080fd5b8063a217fddf14610c14578063a457c2d714610c29578063a7381a6414610c49578063a9059cbb14610c60578063a9a484c514610c8057600080fd5b80638dcb01ec1161023a5780638dcb01ec14610b485780638f770ad014610b6857806391d1485414610b7f57806395d89b4114610b9f578063963ff55e14610bb4578063a1631e4b14610bd457600080fd5b80638662522f14610a8e57806388c9cf6e14610aca57806389022e2e14610aea5780638c2a993e14610b0a5780638da5cb5b14610b2a57600080fd5b806341dbbb2a116103a85780636ca0b0d71161031a57806374f4f547116102de57806374f4f547146109e457806379255ddd14610a045780637966529d14610a245780638129fc1c14610a4457806381e48e9014610a595780638456cb5914610a7957600080fd5b80636ca0b0d7146109335780636dbb3102146109485780636fd2f1811461096857806370a0823114610999578063715018a6146109cf57600080fd5b80634f1ef2861161036c5780634f1ef28614610893578063523fba7f146108a657806352d1902d146108c657806354c9c970146108db5780635c975abb146108fb5780635db44cef1461091357600080fd5b806341dbbb2a146107e55780634642547b1461080557806346518b0a1461082557806347e7ef24146108455780634c02cad11461086557600080fd5b80632b540f19116104415780633659cfe6116104055780633659cfe61461072f578063395093511461074f57806339cd7a8a1461076f5780633a9a77ee1461078f5780633d2afced146107b05780633f4ba83a146107d057600080fd5b80632b540f19146106825780632b554142146106b35780632f2ff15d146106d3578063313ce567146106f357806336568abe1461070f57600080fd5b80630e2d15ab116104935780630e2d15ab1461058957806318160ddd146105ba57806320b167f9146105d957806323b872dd146105f9578063248a9ca31461061957806324adbf4d1461064957600080fd5b806301ffc9a7146104d057806306fdde0314610505578063095ea7b3146105275780630b7d28c7146105475780630c0efecc14610569575b600080fd5b3480156104dc57600080fd5b506104f06104eb366004614c1a565b611091565b60405190151581526020015b60405180910390f35b34801561051157600080fd5b5061051a6110c8565b6040516104fc9190614c9c565b34801561053357600080fd5b506104f0610542366004614cc4565b61115a565b34801561055357600080fd5b50610567610562366004614cf0565b611172565b005b34801561057557600080fd5b50610567610584366004614d22565b61119f565b34801561059557600080fd5b506104f06105a4366004614cf0565b6101a06020526000908152604090205460ff1681565b3480156105c657600080fd5b506035545b6040519081526020016104fc565b3480156105e557600080fd5b506105676105f4366004614d3f565b61120a565b34801561060557600080fd5b506104f0610614366004614d58565b611218565b34801561062557600080fd5b506105cb610634366004614d3f565b600090815260fb602052604090206001015490565b34801561065557600080fd5b5061019c5461066a906001600160a01b031681565b6040516001600160a01b0390911681526020016104fc565b34801561068e57600080fd5b506104f061069d366004614cf0565b6101a26020526000908152604090205460ff1681565b3480156106bf57600080fd5b506105676106ce366004614ec2565b61123b565b3480156106df57600080fd5b506105676106ee366004614f7c565b61143e565b3480156106ff57600080fd5b50604051601281526020016104fc565b34801561071b57600080fd5b5061056761072a366004614f7c565b611463565b34801561073b57600080fd5b5061056761074a366004614cf0565b6114e1565b34801561075b57600080fd5b506104f061076a366004614cc4565b6115c0565b34801561077b57600080fd5b5061056761078a36600461503a565b6115e2565b34801561079b57600080fd5b5061019e5461066a906001600160a01b031681565b3480156107bc57600080fd5b506105676107cb3660046150cb565b611745565b3480156107dc57600080fd5b50610567611992565b3480156107f157600080fd5b506105cb610800366004614ec2565b6119c5565b34801561081157600080fd5b50610567610820366004614cf0565b611a9e565b34801561083157600080fd5b50610567610840366004615156565b611ac8565b34801561085157600080fd5b50610567610860366004614cc4565b611ba3565b34801561087157600080fd5b50610885610880366004614d3f565b611c66565b6040516104fc9291906151ce565b6105676108a1366004615225565b611f46565b3480156108b257600080fd5b506105cb6108c1366004614cf0565b612012565b3480156108d257600080fd5b506105cb61207d565b3480156108e757600080fd5b506105676108f6366004615156565b612130565b34801561090757600080fd5b5060975460ff166104f0565b34801561091f57600080fd5b5061056761092e366004615156565b61220b565b34801561093f57600080fd5b506105cb600281565b34801561095457600080fd5b50610567610963366004614cf0565b6122e6565b34801561097457600080fd5b506104f0610983366004614cf0565b6101996020526000908152604090205460ff1681565b3480156109a557600080fd5b506105cb6109b4366004614cf0565b6001600160a01b031660009081526033602052604090205490565b3480156109db57600080fd5b50610567612343565b3480156109f057600080fd5b506105676109ff366004614cc4565b6123a7565b348015610a1057600080fd5b50610567610a1f366004614d3f565b6123b9565b348015610a3057600080fd5b50610567610a3f366004615156565b612403565b348015610a5057600080fd5b506105676124de565b348015610a6557600080fd5b50610567610a74366004615307565b6125a4565b348015610a8557600080fd5b506105676129ff565b348015610a9a57600080fd5b506104f0610aa93660046153a1565b80516020818301810180516101948252928201919093012091525460ff1681565b348015610ad657600080fd5b50610567610ae5366004615156565b612a30565b348015610af657600080fd5b50610567610b05366004614cc4565b612b0b565b348015610b1657600080fd5b50610567610b25366004614cc4565b612bd9565b348015610b3657600080fd5b506065546001600160a01b031661066a565b348015610b5457600080fd5b50610567610b63366004615156565b612beb565b348015610b7457600080fd5b506105cb6101915481565b348015610b8b57600080fd5b506104f0610b9a366004614f7c565b612cc6565b348015610bab57600080fd5b5061051a612cf1565b348015610bc057600080fd5b5061066a610bcf366004614d3f565b612d00565b348015610be057600080fd5b5061019354610bfc90600160a01b90046001600160401b031681565b6040516001600160401b0390911681526020016104fc565b348015610c2057600080fd5b506105cb600081565b348015610c3557600080fd5b506104f0610c44366004614cc4565b612d2b565b348015610c5557600080fd5b506105cb61019f5481565b348015610c6c57600080fd5b506104f0610c7b366004614cc4565b612db1565b348015610c8c57600080fd5b506104f0610c9b366004614cf0565b612dc6565b348015610cac57600080fd5b506101935461066a906001600160a01b031681565b348015610ccd57600080fd5b50610567610cdc366004614cf0565b6130bc565b348015610ced57600080fd5b50610567610cfc366004614d3f565b613128565b348015610d0d57600080fd5b50610567610d1c3660046153d5565b613166565b348015610d2d57600080fd5b50610d36613205565b6040516104fc9190615416565b348015610d4f57600080fd5b50610567610d5e366004614cf0565b613267565b348015610d6f57600080fd5b50610195546104f09060ff1681565b348015610d8a57600080fd5b50610197546104f09060ff1681565b348015610da557600080fd5b50610567610db4366004614f7c565b6132be565b348015610dc557600080fd5b506105cb6132e3565b348015610dda57600080fd5b50610567610de9366004614cf0565b613301565b348015610dfa57600080fd5b506104f0610e09366004614cf0565b61335b565b348015610e1a57600080fd5b506105cb610e29366004615429565b6134c9565b348015610e3a57600080fd5b506105cb61019d5481565b348015610e5157600080fd5b50610567610e60366004614cf0565b6134f4565b348015610e7157600080fd5b506105cb61271081565b348015610e8757600080fd5b506105cb7f65d7a28e3265b37a6474929f336521b332c1681b933f6cb9f3376673440d862a81565b348015610ebb57600080fd5b50610567610eca366004614cf0565b613560565b348015610edb57600080fd5b50610567610eea366004614d3f565b6135b7565b348015610efb57600080fd5b506105cb7f241ecf16d79d0f8dbfb92cbc07fe17840425976cf0667f022fe9877caa831b0881565b348015610f2f57600080fd5b506104f0610f3e366004614cf0565b61019b6020526000908152604090205460ff1681565b348015610f6057600080fd5b506104f0610f6f366004614cf0565b61019a6020526000908152604090205460ff1681565b348015610f9157600080fd5b50610193546104f090600160e01b900460ff1681565b348015610fb357600080fd5b50610567610fc2366004614cf0565b613601565b348015610fd357600080fd5b506104f0610fe23660046153a1565b80516020818301810180516101968252928201919093012091525460ff1681565b34801561100f57600080fd5b506104f061101e3660046153a1565b80516020818301810180516101988252928201919093012091525460ff1681565b34801561104b57600080fd5b506101a35461066a906001600160a01b031681565b34801561106c57600080fd5b5061051a604051806040016040528060058152602001640312e352e360dc1b81525081565b60006001600160e01b03198216637965db0b60e01b14806110c257506301ffc9a760e01b6001600160e01b03198316145b92915050565b6060603680546110d790615457565b80601f016020809104026020016040519081016040528092919081815260200182805461110390615457565b80156111505780601f1061112557610100808354040283529160200191611150565b820191906000526020600020905b81548152906001019060200180831161113357829003601f168201915b5050505050905090565b6000336111688185856136d8565b5060019392505050565b61117a6137fc565b6001600160a01b031660009081526101a060205260409020805460ff19166001179055565b6111a76137fc565b610193805467ffffffffffffffff60a01b1916600160a01b6001600160401b038416908102919091179091556040519081527f87f670402a6c72fff3b60ba5223165f062b58d671871fc2c49ea96101fdd19a0906020015b60405180910390a150565b61121381611c66565b505050565b600061122383613852565b61122e8484846138d5565b50600190505b9392505050565b6112436138ee565b81518151604080518082019091526002815261189960f11b60208201529082146112895760405162461bcd60e51b81526004016112809190614c9c565b60405180910390fd5b5061019d543360009081526101a0602052604081205490919060ff1682805b8581101561135657826112fa57612710848883815181106112cb576112cb615491565b60200260200101516112dd91906154bd565b6112e791906154dc565b91506112f382866154fe565b94506112ff565b600091505b61134688828151811061131457611314615491565b60200260200101518389848151811061132f5761132f615491565b60200260200101516113419190615516565b61392e565b61134f8161552d565b90506112a8565b50831561143557600061271061019f548661137191906154bd565b61137b91906154dc565b90506113878186615516565b61019c549095506113a1906001600160a01b031686612db1565b5060408051338152602081018790527f3f89e1d936a29a8de9ae9040436992721a00bc63bbe3ca55692b95f0311640b2910160405180910390a180156114335761019e546113f8906001600160a01b031682612db1565b5060408051338152602081018390527f932bd968974f0b6fa1cb59bf961f81d2e57b39332d311b413dceae17966387db910160405180910390a15b505b50505050505050565b600082815260fb602052604090206001015461145981613992565b611213838361399c565b6001600160a01b03811633146114d35760405162461bcd60e51b815260206004820152602f60248201527f416363657373436f6e74726f6c3a2063616e206f6e6c792072656e6f756e636560448201526e103937b632b9903337b91039b2b63360891b6064820152608401611280565b6114dd8282613a22565b5050565b6001600160a01b037f00000000000000000000000000000000000000000000000000000000000000001630036115295760405162461bcd60e51b815260040161128090615546565b7f00000000000000000000000000000000000000000000000000000000000000006001600160a01b0316611572600080516020615b9c833981519152546001600160a01b031690565b6001600160a01b0316146115985760405162461bcd60e51b815260040161128090615592565b6115a181613a89565b604080516000808252602082019092526115bd91839190613a91565b50565b6000336111688185856115d383836134c9565b6115dd91906154fe565b6136d8565b6115ea6137fc565b6116138260405180604001604052806007815260200166726567696f6e7360c81b815250613bfc565b1561164f578061163257610193805460ff60e01b191690556000611649565b610193805460ff60e01b1916600160e01b17905560015b50611708565b61167a82604051806040016040528060098152602001687374616e646172647360b81b815250613bfc565b156116a9578061169657610195805460ff191690556000611649565b610195805460ff19166001179055611708565b6116d8826040518060400160405280600d81526020016c6d6574686f646f6c6f6769657360981b815250613bfc565b1561170857806116f457610197805460ff191690556000611706565b610197805460ff191660019081179091555b505b7fcdc35455a1217219a4240bb18a7d2978eb98208f22f7ec36d6a1381c28f9d0f582826040516117399291906155de565b60405180910390a15050565b61176e7f241ecf16d79d0f8dbfb92cbc07fe17840425976cf0667f022fe9877caa831b08613c08565b6040805180820190915260018152601960f91b60208201528390816117a65760405162461bcd60e51b81526004016112809190614c9c565b50604080518082019091526002815261189960f11b60208201528183146117e05760405162461bcd60e51b81526004016112809190614c9c565b506101a354604051635ed6513d60e11b815230600482015263ffffffff881660248201526001600160a01b0390911690600090829063bdaca27a906044016040805180830381865afa15801561183a573d6000803e3d6000fd5b505050506040513d601f19601f8201168201806040525081019061185e919061560d565b8051604080518082019091526002815261313160f01b6020820152919250906001600160a01b0382166118a45760405162461bcd60e51b81526004016112809190614c9c565b5060005b8481101561198657836001600160a01b031663255e0ae48b8b8b858181106118d2576118d2615491565b90506020020160208101906118e79190614cf0565b8a8a868181106118f9576118f9615491565b6040516001600160e01b031960e088901b16815263ffffffff9590951660048601526001600160a01b039384166024860152602002919091013560448401525085166064820152608401600060405180830381600087803b15801561195d57600080fd5b505af1158015611971573d6000803e3d6000fd5b505050508061197f9061552d565b90506118a8565b50505050505050505050565b6119bb7f65d7a28e3265b37a6474929f336521b332c1681b933f6cb9f3376673440d862a613c08565b6119c3613c6e565b565b60006119cf6138ee565b3360009081526101a0602052604090205460ff16156119f0575060006110c2565b82518251604080518082019091526002815261189960f11b6020820152908214611a2d5760405162461bcd60e51b81526004016112809190614c9c565b5061019d54600090815b83811015611a9357600061271083888481518110611a5757611a57615491565b6020026020010151611a6991906154bd565b611a7391906154dc565b9050611a7f81856154fe565b93505080611a8c9061552d565b9050611a37565b509095945050505050565b611aa66137fc565b6001600160a01b031660009081526101a060205260409020805460ff19169055565b611ad06137fc565b60005b81518110156114dd5760016101996000848481518110611af557611af5615491565b60200260200101516001600160a01b03166001600160a01b0316815260200190815260200160002060006101000a81548160ff0219169083151502179055507f29b8b184f4394a88477750516a3701dd0c9409451be78c24428bf5f827f527a5828281518110611b6757611b67615491565b6020026020010151604051611b8b91906001600160a01b0391909116815260200190565b60405180910390a1611b9c8161552d565b9050611ad3565b611bab6138ee565b611bb48261335b565b506000611bbf6132e3565b6040805180820190915260018152603360f81b602082015290915081611bf85760405162461bcd60e51b81526004016112809190614c9c565b5080821115611c05578091505b611c0f3383613d01565b604080516001600160a01b0385168152602081018490527f2da466a7b24304f47e87fa2e1e5a81b9831ce54fec19055ce277ca2f39ba42c4910160405180910390a16112136001600160a01b038416333085613dec565b606080611c716138ee565b604080518082019091526002815261323160f01b602082015283611ca85760405162461bcd60e51b81526004016112809190614c9c565b506101a15460009081905b600086118015611cc257508083105b15611e305760006101a18481548110611cdd57611cdd615491565b60009182526020822001546001600160a01b03169150611cfc82612012565b905060008115611d2a57818911611d135788611d15565b815b9050611d21818a615516565b98508460010194505b85600101955088600003611e2857846001600160401b03811115611d5057611d50614d99565b604051908082528060200260200182016040528015611d79578160200160208202803683370190505b509750846001600160401b03811115611d9457611d94614d99565b604051908082528060200260200182016040528015611dbd578160200160208202803683370190505b5096508288611dcd600188615516565b81518110611ddd57611ddd615491565b6001600160a01b03909216602092830291909101909101528087611e02600188615516565b81518110611e1257611e12615491565b602002602001018181525050611e28838261392e565b505050611cb3565b604080518082019091526002815261313560f01b60208201528615611e685760405162461bcd60e51b81526004016112809190614c9c565b506000915060005b611e7b600185615516565b811015611f3d5760006101a18281548110611e9857611e98615491565b60009182526020822001546001600160a01b03169150611eb782612012565b905080600003611ec8575050611f2d565b81888681518110611edb57611edb615491565b60200260200101906001600160a01b031690816001600160a01b03168152505080878681518110611f0e57611f0e615491565b602002602001018181525050611f24828261392e565b84600101945050505b611f368161552d565b9050611e70565b50505050915091565b6001600160a01b037f0000000000000000000000000000000000000000000000000000000000000000163003611f8e5760405162461bcd60e51b815260040161128090615546565b7f00000000000000000000000000000000000000000000000000000000000000006001600160a01b0316611fd7600080516020615b9c833981519152546001600160a01b031690565b6001600160a01b031614611ffd5760405162461bcd60e51b815260040161128090615592565b61200682613a89565b6114dd82826001613a91565b6040516370a0823160e01b81523060048201526000906001600160a01b038316906370a0823190602401602060405180830381865afa158015612059573d6000803e3d6000fd5b505050506040513d601f19601f820116820180604052508101906110c29190615664565b6000306001600160a01b037f0000000000000000000000000000000000000000000000000000000000000000161461211d5760405162461bcd60e51b815260206004820152603860248201527f555550535570677261646561626c653a206d757374206e6f742062652063616c60448201527f6c6564207468726f7567682064656c656761746563616c6c00000000000000006064820152608401611280565b50600080516020615b9c83398151915290565b6121386137fc565b60005b81518110156114dd57600161019b600084848151811061215d5761215d615491565b60200260200101516001600160a01b03166001600160a01b0316815260200190815260200160002060006101000a81548160ff0219169083151502179055507f43388d274033333ceb567d699874be067ce7411c2bfc989f8e623694c9b3284f8282815181106121cf576121cf615491565b60200260200101516040516121f391906001600160a01b0391909116815260200190565b60405180910390a16122048161552d565b905061213b565b6122136137fc565b60005b81518110156114dd57600061019b600084848151811061223857612238615491565b60200260200101516001600160a01b03166001600160a01b0316815260200190815260200160002060006101000a81548160ff0219169083151502179055507fa7f25a7a7bea0a3fabbe5dc8b6176bd9a603925da390010a10998148c192b6708282815181106122aa576122aa615491565b60200260200101516040516122ce91906001600160a01b0391909116815260200190565b60405180910390a16122df8161552d565b9050612216565b6122ee6137fc565b6001600160a01b03811660008181526101a26020908152604091829020805460ff1916600117905590519182527fbfe78aa03afab7296923112293cb902a2fe6df5a6d3d81e1933c652c4cf860f491016111ff565b6065546001600160a01b0316331461239d5760405162461bcd60e51b815260206004820181905260248201527f4f776e61626c653a2063616c6c6572206973206e6f7420746865206f776e65726044820152606401611280565b6119c36000613e5d565b6123af613eaf565b6114dd8282613ef5565b6123c16137fc565b604080518082019091526002815261031360f41b602082015261271082106123fc5760405162461bcd60e51b81526004016112809190614c9c565b5061019f55565b61240b6137fc565b60005b81518110156114dd576000610199600084848151811061243057612430615491565b60200260200101516001600160a01b03166001600160a01b0316815260200190815260200160002060006101000a81548160ff0219169083151502179055507f3c36656d3e8c3db21a1c7d0a7208d73387e15535964c44c30b20c45ab51b3c388282815181106124a2576124a2615491565b60200260200101516040516124c691906001600160a01b0391909116815260200190565b60405180910390a16124d78161552d565b905061240e565b60006124ea600161404f565b90508015612502576000805461ff0019166101001790555b61250a6140dc565b612512614103565b61251a614133565b612557604051806060016040528060228152602001615b7a60229139604051806040016040528060038152602001621090d560ea1b815250614166565b61256260003361399c565b80156115bd576000805461ff0019169055604051600181527f7f26b83ff96e1f2b6a682f133852f6798a09c465da95921460cefb3847402498906020016111ff565b6125ac6137fc565b60005b825181101561271a578415156001036126685760016101968483815181106125d9576125d9615491565b60200260200101516040516125ee919061567d565b908152602001604051809103902060006101000a81548160ff0219169083151502179055507fa27e97999993c298fae0b7088ff732fe078cc1585665ee1554220b3cbe6317a983828151811061264657612646615491565b602002602001015160405161265b9190614c9c565b60405180910390a161270a565b600061019684838151811061267f5761267f615491565b6020026020010151604051612694919061567d565b908152602001604051809103902060006101000a81548160ff0219169083151502179055507f0127ddc00426c693b5becb26ba43a260c781ebc323b61d3b24b61e4dc5c93c718382815181106126ec576126ec615491565b60200260200101516040516127019190614c9c565b60405180910390a15b6127138161552d565b90506125af565b5060005b8151811015612889578415156001036127d757600161019883838151811061274857612748615491565b602002602001015160405161275d919061567d565b908152602001604051809103902060006101000a81548160ff0219169083151502179055507f156643e9a7f860e95993739893595e6ee1d04d9ff1b98567dbe9d5681cd152b28282815181106127b5576127b5615491565b60200260200101516040516127ca9190614c9c565b60405180910390a1612879565b60006101988383815181106127ee576127ee615491565b6020026020010151604051612803919061567d565b908152602001604051809103902060006101000a81548160ff0219169083151502179055507f21a77ac4edf49633047cc4e32b10dfe633811216214400e0e1f507c3f7287b6182828151811061285b5761285b615491565b60200260200101516040516128709190614c9c565b60405180910390a15b6128828161552d565b905061271e565b5060005b83518110156129f8578415156001036129465760016101948583815181106128b7576128b7615491565b60200260200101516040516128cc919061567d565b908152602001604051809103902060006101000a81548160ff0219169083151502179055507f3df7a1330febee3646ae4a0f0e46c94c046f0ee810b2b7f1fa10fa8f34d7b7ef84828151811061292457612924615491565b60200260200101516040516129399190614c9c565b60405180910390a16129e8565b600061019485838151811061295d5761295d615491565b6020026020010151604051612972919061567d565b908152602001604051809103902060006101000a81548160ff0219169083151502179055507fc84badb33408cce6e89b30a735d8f06e094fa4a19c01c2da66718f490c672f658482815181106129ca576129ca615491565b60200260200101516040516129df9190614c9c565b60405180910390a15b6129f18161552d565b905061288d565b5050505050565b612a287f65d7a28e3265b37a6474929f336521b332c1681b933f6cb9f3376673440d862a613c08565b6119c36141b4565b612a386137fc565b60005b81518110156114dd57600161019a6000848481518110612a5d57612a5d615491565b60200260200101516001600160a01b03166001600160a01b0316815260200190815260200160002060006101000a81548160ff0219169083151502179055507f2e333bce7bf5a0097fbb4fef2a950809960b5a4aa1a63cbcffc24ac62dc4fd07828281518110612acf57612acf615491565b6020026020010151604051612af391906001600160a01b0391909116815260200190565b60405180910390a1612b048161552d565b9050612a3b565b612b136138ee565b6001600160a01b03821660009081526101a260209081526040918290205482518084019093526002835261313360f01b9183019190915260ff16612b6a5760405162461bcd60e51b81526004016112809190614c9c565b50612b75828261392e565b60405163079cc67960e41b8152336004820152602481018290526001600160a01b038316906379cc679090604401600060405180830381600087803b158015612bbd57600080fd5b505af1158015612bd1573d6000803e3d6000fd5b505050505050565b612be1613eaf565b6114dd8282613d01565b612bf36137fc565b60005b81518110156114dd57600061019a6000848481518110612c1857612c18615491565b60200260200101516001600160a01b03166001600160a01b0316815260200190815260200160002060006101000a81548160ff0219169083151502179055507f9cee5064afac40e291311ecb6a670ef3ef652131fb1ed15c1266fb22cffd6bdd828281518110612c8a57612c8a615491565b6020026020010151604051612cae91906001600160a01b0391909116815260200190565b60405180910390a1612cbf8161552d565b9050612bf6565b600091825260fb602090815260408084206001600160a01b0393909316845291905290205460ff1690565b6060603780546110d790615457565b6101a18181548110612d1157600080fd5b6000918252602090912001546001600160a01b0316905081565b60003381612d3982866134c9565b905083811015612d995760405162461bcd60e51b815260206004820152602560248201527f45524332303a2064656372656173656420616c6c6f77616e63652062656c6f77604482015264207a65726f60d81b6064820152608401611280565b612da682868684036136d8565b506001949350505050565b6000612dbc83613852565b611168838361422f565b6000612e2760405180610140016040528060608152602001606081526020016060815260200160608152602001606081526020016060815260200160608152602001606081526020016060815260200160006001600160a01b031681525090565b612ea36040518061016001604052806060815260200160006001600160401b0316815260200160006001600160401b031681526020016000815260200160006001600160401b03168152602001600015158152602001600015158152602001606081526020016060815260200160608152602001606081525090565b836001600160a01b031663152583de6040518163ffffffff1660e01b8152600401600060405180830381865afa158015612ee1573d6000803e3d6000fd5b505050506040513d6000823e601f3d908101601f19168201604052612f099190810190615837565b610193546020808301516040805180820190915260018152601b60f91b9281019290925293955091935090916001600160401b03600160a01b909204821691161015612f685760405162461bcd60e51b81526004016112809190614c9c565b50610193601c9054906101000a900460ff1615156101948360600151604051612f91919061567d565b9081526040805191829003602090810183205483830190925260018352603760f81b90830152909160ff909116151514612fde5760405162461bcd60e51b81526004016112809190614c9c565b5061019554602083015160405160ff909216151591610196916130009161567d565b9081526040805191829003602090810183205483830190925260018352600760fb1b90830152909160ff90911615151461304d5760405162461bcd60e51b81526004016112809190614c9c565b5061019754604080840151905160ff9092161515916101989161306f9161567d565b9081526040805191829003602090810183205483830190925260018352603960f81b90830152909160ff909116151514612da65760405162461bcd60e51b81526004016112809190614c9c565b6130c46137fc565b604080518082019091526002815261313160f01b60208201526001600160a01b0382166131045760405162461bcd60e51b81526004016112809190614c9c565b5061019c80546001600160a01b0319166001600160a01b0392909216919091179055565b6131306137fc565b6101918190556040518181527f4e44c8be34d12f1b7f56b13b4bbe97e64ca37a91916f86c73412da80c21748e2906020016111ff565b61318f7f241ecf16d79d0f8dbfb92cbc07fe17840425976cf0667f022fe9877caa831b08613c08565b6040805180820190915260018152601960f91b6020820152816131c55760405162461bcd60e51b81526004016112809190614c9c565b506131d36101a18383614b2e565b507f9204d457ace303c5dbbeaa6966e5ec65661a390007a367c6645e52b4ef4b528e82826040516117399291906159f4565b60606101a180548060200260200160405190810160405280929190818152602001828054801561115057602002820191906000526020600020905b81546001600160a01b03168152600190910190602001808311613240575050505050905090565b61326f6137fc565b6101a380546001600160a01b0319166001600160a01b0383169081179091556040519081527f7aed1d3e8155a07ccf395e44ea3109a0e2d6c9b29bbbe9f142d9790596f4dc80906020016111ff565b600082815260fb60205260409020600101546132d981613992565b6112138383613a22565b60006132ee60355490565b610191546132fc9190615516565b905090565b6133096137fc565b6001600160a01b03811660008181526101a26020908152604091829020805460ff1916905590519182527fd1fc9d8986829d0ba9df2bc201a2c76327e0f71567b5a2fb82ba464bf4a03f4491016111ff565b6101935460405163787d871360e01b81526001600160a01b038381166004830152600092839291169063787d871390602401602060405180830381865afa1580156133aa573d6000803e3d6000fd5b505050506040513d601f19601f820116820180604052508101906133ce9190615a37565b90508015613468576001600160a01b038316600090815261019a602052604090205460ff16156134015750600192915050565b6001600160a01b038316600090815261019b602090815260409182902054825180840190935260018352600d60fa1b9183019190915260ff16156134585760405162461bcd60e51b81526004016112809190614c9c565b5061346283612dc6565b506134c0565b6001600160a01b0383166000908152610199602090815260409182902054825180840190935260018352603560f81b9183019190915260ff166134be5760405162461bcd60e51b81526004016112809190614c9c565b505b50600192915050565b6001600160a01b03918216600090815260346020908152604080832093909416825291909152205490565b6134fc6137fc565b604080518082019091526002815261313160f01b60208201526001600160a01b03821661353c5760405162461bcd60e51b81526004016112809190614c9c565b5061019e80546001600160a01b0319166001600160a01b0392909216919091179055565b6135686137fc565b61019380546001600160a01b0319166001600160a01b0383169081179091556040519081527f86907b53cf2024579968511876daf0b4620d65803b550e33101baf70aeb6f5eb906020016111ff565b6135bf6137fc565b604080518082019091526002815261031360f41b602082015261271082106135fa5760405162461bcd60e51b81526004016112809190614c9c565b5061019d55565b6065546001600160a01b0316331461365b5760405162461bcd60e51b815260206004820181905260248201527f4f776e61626c653a2063616c6c6572206973206e6f7420746865206f776e65726044820152606401611280565b6001600160a01b0381166136c05760405162461bcd60e51b815260206004820152602660248201527f4f776e61626c653a206e6577206f776e657220697320746865207a65726f206160448201526564647265737360d01b6064820152608401611280565b6115bd81613e5d565b6001600160a01b03163b151590565b6001600160a01b03831661373a5760405162461bcd60e51b8152602060048201526024808201527f45524332303a20617070726f76652066726f6d20746865207a65726f206164646044820152637265737360e01b6064820152608401611280565b6001600160a01b03821661379b5760405162461bcd60e51b815260206004820152602260248201527f45524332303a20617070726f766520746f20746865207a65726f206164647265604482015261737360f01b6064820152608401611280565b6001600160a01b0383811660008181526034602090815260408083209487168084529482529182902085905590518481527f8c5be1e5ebec7d5bd14f71427d1e84f3dd0314c0f7b2291e5b200ac8c7c3b925910160405180910390a3505050565b3361380f6065546001600160a01b031690565b6001600160a01b03161460405180604001604052806002815260200161062760f31b815250906115bd5760405162461bcd60e51b81526004016112809190614c9c565b604080518082019091526002815261313960f01b60208201526001600160a01b0382166138925760405162461bcd60e51b81526004016112809190614c9c565b50604080518082019091526002815261032360f41b60208201526001600160a01b03821630036114dd5760405162461bcd60e51b81526004016112809190614c9c565b6000336138e385828561423d565b612da68585856142b1565b60975460ff1615604051806040016040528060028152602001610c4d60f21b815250906115bd5760405162461bcd60e51b81526004016112809190614c9c565b6139383382613ef5565b61394c6001600160a01b038316338361448a565b604080513381526001600160a01b03841660208201529081018290527f27d4634c833b7622a0acddbf7f746183625f105945e95c723ad1d5a9f2a0b6fc90606001611739565b6115bd81336144ba565b6139a68282612cc6565b6114dd57600082815260fb602090815260408083206001600160a01b03851684529091529020805460ff191660011790556139de3390565b6001600160a01b0316816001600160a01b0316837f2f8788117e7eff1d82e926ec794901d17c78024a50270940304540a733656f0d60405160405180910390a45050565b613a2c8282612cc6565b156114dd57600082815260fb602090815260408083206001600160a01b0385168085529252808320805460ff1916905551339285917ff6391f5c32d9c69d2a47ea670b442974b53935d1edc7fd64eb21e047a839171b9190a45050565b6115bd6137fc565b7f4910fdfa16fed3260ed0e7147f7cc6da11a60208b5b9406d12a635614ffd91435460ff1615613ac4576112138361451e565b826001600160a01b03166352d1902d6040518163ffffffff1660e01b8152600401602060405180830381865afa925050508015613b1e575060408051601f3d908101601f19168201909252613b1b91810190615664565b60015b613b815760405162461bcd60e51b815260206004820152602e60248201527f45524331393637557067726164653a206e657720696d706c656d656e7461746960448201526d6f6e206973206e6f74205555505360901b6064820152608401611280565b600080516020615b9c8339815191528114613bf05760405162461bcd60e51b815260206004820152602960248201527f45524331393637557067726164653a20756e737570706f727465642070726f786044820152681a58589b195555525160ba1b6064820152608401611280565b506112138383836145ba565b600061123483836145df565b613c128133612cc6565b80613c36575033613c2b6065546001600160a01b031690565b6001600160a01b0316145b604051806040016040528060018152602001603160f81b815250906114dd5760405162461bcd60e51b81526004016112809190614c9c565b60975460ff16613cb75760405162461bcd60e51b815260206004820152601460248201527314185d5cd8589b194e881b9bdd081c185d5cd95960621b6044820152606401611280565b6097805460ff191690557f5db9ee0a495bf2e6ff9c91a7834c1ba4fdd244a5e8aa4e537bd38aeae4b073aa335b6040516001600160a01b03909116815260200160405180910390a1565b6001600160a01b038216613d575760405162461bcd60e51b815260206004820152601f60248201527f45524332303a206d696e7420746f20746865207a65726f2061646472657373006044820152606401611280565b613d6360008383614604565b8060356000828254613d7591906154fe565b90915550506001600160a01b03821660009081526033602052604081208054839290613da29084906154fe565b90915550506040518181526001600160a01b038316906000907fddf252ad1be2c89b69c2b068fc378daa952ba7f163c4a11628f55a4df523b3ef9060200160405180910390a35050565b6040516001600160a01b0380851660248301528316604482015260648101829052613e579085906323b872dd60e01b906084015b60408051601f198184030181529190526020810180516001600160e01b03166001600160e01b03199093169290921790915261460c565b50505050565b606580546001600160a01b038381166001600160a01b0319831681179093556040519116919082907f8be0079c531659141344cd1fd0a4f28419497f9722a3daafe3b4186f6b6457e090600090a35050565b6101a354604080518082019091526002815261313760f01b6020820152906001600160a01b031633146115bd5760405162461bcd60e51b81526004016112809190614c9c565b6001600160a01b038216613f555760405162461bcd60e51b815260206004820152602160248201527f45524332303a206275726e2066726f6d20746865207a65726f206164647265736044820152607360f81b6064820152608401611280565b613f6182600083614604565b6001600160a01b03821660009081526033602052604090205481811015613fd55760405162461bcd60e51b815260206004820152602260248201527f45524332303a206275726e20616d6f756e7420657863656564732062616c616e604482015261636560f01b6064820152608401611280565b6001600160a01b0383166000908152603360205260408120838303905560358054849290614004908490615516565b90915550506040518281526000906001600160a01b038516907fddf252ad1be2c89b69c2b068fc378daa952ba7f163c4a11628f55a4df523b3ef9060200160405180910390a3505050565b60008054610100900460ff1615614096578160ff1660011480156140725750303b155b61408e5760405162461bcd60e51b815260040161128090615a54565b506000919050565b60005460ff8084169116106140bd5760405162461bcd60e51b815260040161128090615a54565b506000805460ff191660ff92909216919091179055600190565b919050565b600054610100900460ff166119c35760405162461bcd60e51b815260040161128090615aa2565b600054610100900460ff1661412a5760405162461bcd60e51b815260040161128090615aa2565b6119c333613e5d565b600054610100900460ff1661415a5760405162461bcd60e51b815260040161128090615aa2565b6097805460ff19169055565b600054610100900460ff1661418d5760405162461bcd60e51b815260040161128090615aa2565b81516141a0906036906020850190614b91565b508051611213906037906020840190614b91565b60975460ff16156141fa5760405162461bcd60e51b815260206004820152601060248201526f14185d5cd8589b194e881c185d5cd95960821b6044820152606401611280565b6097805460ff191660011790557f62e78cea01bee320cd4e420270b5ea74000d11b0c9f74754ebdbfc544b05a258613ce43390565b6000336111688185856142b1565b600061424984846134c9565b90506000198114613e5757818110156142a45760405162461bcd60e51b815260206004820152601d60248201527f45524332303a20696e73756666696369656e7420616c6c6f77616e63650000006044820152606401611280565b613e5784848484036136d8565b6001600160a01b0383166143155760405162461bcd60e51b815260206004820152602560248201527f45524332303a207472616e736665722066726f6d20746865207a65726f206164604482015264647265737360d81b6064820152608401611280565b6001600160a01b0382166143775760405162461bcd60e51b815260206004820152602360248201527f45524332303a207472616e7366657220746f20746865207a65726f206164647260448201526265737360e81b6064820152608401611280565b614382838383614604565b6001600160a01b038316600090815260336020526040902054818110156143fa5760405162461bcd60e51b815260206004820152602660248201527f45524332303a207472616e7366657220616d6f756e7420657863656564732062604482015265616c616e636560d01b6064820152608401611280565b6001600160a01b038085166000908152603360205260408082208585039055918516815290812080548492906144319084906154fe565b92505081905550826001600160a01b0316846001600160a01b03167fddf252ad1be2c89b69c2b068fc378daa952ba7f163c4a11628f55a4df523b3ef8460405161447d91815260200190565b60405180910390a3613e57565b6040516001600160a01b03831660248201526044810182905261121390849063a9059cbb60e01b90606401613e20565b6144c48282612cc6565b6114dd576144dc816001600160a01b031660146146de565b6144e78360206146de565b6040516020016144f8929190615aed565b60408051601f198184030181529082905262461bcd60e51b825261128091600401614c9c565b6001600160a01b0381163b61458b5760405162461bcd60e51b815260206004820152602d60248201527f455243313936373a206e657720696d706c656d656e746174696f6e206973206e60448201526c1bdd08184818dbdb9d1c9858dd609a1b6064820152608401611280565b600080516020615b9c83398151915280546001600160a01b0319166001600160a01b0392909216919091179055565b6145c383614879565b6000825111806145d05750805b1561121357613e5783836148b9565b6000815183511480156112345750508051602091820120825192909101919091201490565b6112136138ee565b6000614661826040518060400160405280602081526020017f5361666545524332303a206c6f772d6c6576656c2063616c6c206661696c6564815250856001600160a01b03166149ad9092919063ffffffff16565b805190915015611213578080602001905181019061467f9190615a37565b6112135760405162461bcd60e51b815260206004820152602a60248201527f5361666545524332303a204552433230206f7065726174696f6e20646964206e6044820152691bdd081cdd58d8d9595960b21b6064820152608401611280565b606060006146ed8360026154bd565b6146f89060026154fe565b6001600160401b0381111561470f5761470f614d99565b6040519080825280601f01601f191660200182016040528015614739576020820181803683370190505b509050600360fc1b8160008151811061475457614754615491565b60200101906001600160f81b031916908160001a905350600f60fb1b8160018151811061478357614783615491565b60200101906001600160f81b031916908160001a90535060006147a78460026154bd565b6147b29060016154fe565b90505b600181111561482a576f181899199a1a9b1b9c1cb0b131b232b360811b85600f16601081106147e6576147e6615491565b1a60f81b8282815181106147fc576147fc615491565b60200101906001600160f81b031916908160001a90535060049490941c9361482381615b62565b90506147b5565b5083156112345760405162461bcd60e51b815260206004820181905260248201527f537472696e67733a20686578206c656e67746820696e73756666696369656e746044820152606401611280565b6148828161451e565b6040516001600160a01b038216907fbc7cd75a20ee27fd9adebab32041f755214dbc6bffa90cc0225b39da2e5c2d3b90600090a250565b60606001600160a01b0383163b6149215760405162461bcd60e51b815260206004820152602660248201527f416464726573733a2064656c65676174652063616c6c20746f206e6f6e2d636f6044820152651b9d1c9858dd60d21b6064820152608401611280565b600080846001600160a01b03168460405161493c919061567d565b600060405180830381855af49150503d8060008114614977576040519150601f19603f3d011682016040523d82523d6000602084013e61497c565b606091505b50915091506149a48282604051806060016040528060278152602001615bbc602791396149c4565b95945050505050565b60606149bc84846000856149fd565b949350505050565b606083156149d3575081611234565b8251156149e35782518084602001fd5b8160405162461bcd60e51b81526004016112809190614c9c565b606082471015614a5e5760405162461bcd60e51b815260206004820152602660248201527f416464726573733a20696e73756666696369656e742062616c616e636520666f6044820152651c8818d85b1b60d21b6064820152608401611280565b6001600160a01b0385163b614ab55760405162461bcd60e51b815260206004820152601d60248201527f416464726573733a2063616c6c20746f206e6f6e2d636f6e74726163740000006044820152606401611280565b600080866001600160a01b03168587604051614ad1919061567d565b60006040518083038185875af1925050503d8060008114614b0e576040519150601f19603f3d011682016040523d82523d6000602084013e614b13565b606091505b5091509150614b238282866149c4565b979650505050505050565b828054828255906000526020600020908101928215614b81579160200282015b82811115614b815781546001600160a01b0319166001600160a01b03843516178255602090920191600190910190614b4e565b50614b8d929150614c05565b5090565b828054614b9d90615457565b90600052602060002090601f016020900481019282614bbf5760008555614b81565b82601f10614bd857805160ff1916838001178555614b81565b82800160010185558215614b81579182015b82811115614b81578251825591602001919060010190614bea565b5b80821115614b8d5760008155600101614c06565b600060208284031215614c2c57600080fd5b81356001600160e01b03198116811461123457600080fd5b60005b83811015614c5f578181015183820152602001614c47565b83811115613e575750506000910152565b60008151808452614c88816020860160208601614c44565b601f01601f19169290920160200192915050565b6020815260006112346020830184614c70565b6001600160a01b03811681146115bd57600080fd5b60008060408385031215614cd757600080fd5b8235614ce281614caf565b946020939093013593505050565b600060208284031215614d0257600080fd5b813561123481614caf565b6001600160401b03811681146115bd57600080fd5b600060208284031215614d3457600080fd5b813561123481614d0d565b600060208284031215614d5157600080fd5b5035919050565b600080600060608486031215614d6d57600080fd5b8335614d7881614caf565b92506020840135614d8881614caf565b929592945050506040919091013590565b634e487b7160e01b600052604160045260246000fd5b60405161016081016001600160401b0381118282101715614dd257614dd2614d99565b60405290565b60405161014081016001600160401b0381118282101715614dd257614dd2614d99565b604051601f8201601f191681016001600160401b0381118282101715614e2357614e23614d99565b604052919050565b60006001600160401b03821115614e4457614e44614d99565b5060051b60200190565b600082601f830112614e5f57600080fd5b81356020614e74614e6f83614e2b565b614dfb565b82815260059290921b84018101918181019086841115614e9357600080fd5b8286015b84811015614eb7578035614eaa81614caf565b8352918301918301614e97565b509695505050505050565b60008060408385031215614ed557600080fd5b82356001600160401b0380821115614eec57600080fd5b614ef886838701614e4e565b9350602091508185013581811115614f0f57600080fd5b85019050601f81018613614f2257600080fd5b8035614f30614e6f82614e2b565b81815260059190911b82018301908381019088831115614f4f57600080fd5b928401925b82841015614f6d57833582529284019290840190614f54565b80955050505050509250929050565b60008060408385031215614f8f57600080fd5b823591506020830135614fa181614caf565b809150509250929050565b60006001600160401b03821115614fc557614fc5614d99565b50601f01601f191660200190565b6000614fe1614e6f84614fac565b9050828152838383011115614ff557600080fd5b828260208301376000602084830101529392505050565b600082601f83011261501d57600080fd5b61123483833560208501614fd3565b80151581146115bd57600080fd5b6000806040838503121561504d57600080fd5b82356001600160401b0381111561506357600080fd5b61506f8582860161500c565b9250506020830135614fa18161502c565b60008083601f84011261509257600080fd5b5081356001600160401b038111156150a957600080fd5b6020830191508360208260051b85010111156150c457600080fd5b9250929050565b6000806000806000606086880312156150e357600080fd5b853563ffffffff811681146150f757600080fd5b945060208601356001600160401b038082111561511357600080fd5b61511f89838a01615080565b9096509450604088013591508082111561513857600080fd5b5061514588828901615080565b969995985093965092949392505050565b60006020828403121561516857600080fd5b81356001600160401b0381111561517e57600080fd5b6149bc84828501614e4e565b600081518084526020808501945080840160005b838110156151c35781516001600160a01b03168752958201959082019060010161519e565b509495945050505050565b6040815260006151e1604083018561518a565b82810360208481019190915284518083528582019282019060005b81811015615218578451835293830193918301916001016151fc565b5090979650505050505050565b6000806040838503121561523857600080fd5b823561524381614caf565b915060208301356001600160401b0381111561525e57600080fd5b8301601f8101851361526f57600080fd5b61527e85823560208401614fd3565b9150509250929050565b600082601f83011261529957600080fd5b813560206152a9614e6f83614e2b565b82815260059290921b840181019181810190868411156152c857600080fd5b8286015b84811015614eb75780356001600160401b038111156152eb5760008081fd5b6152f98986838b010161500c565b8452509183019183016152cc565b6000806000806080858703121561531d57600080fd5b84356153288161502c565b935060208501356001600160401b038082111561534457600080fd5b61535088838901615288565b9450604087013591508082111561536657600080fd5b61537288838901615288565b9350606087013591508082111561538857600080fd5b5061539587828801615288565b91505092959194509250565b6000602082840312156153b357600080fd5b81356001600160401b038111156153c957600080fd5b6149bc8482850161500c565b600080602083850312156153e857600080fd5b82356001600160401b038111156153fe57600080fd5b61540a85828601615080565b90969095509350505050565b602081526000611234602083018461518a565b6000806040838503121561543c57600080fd5b823561544781614caf565b91506020830135614fa181614caf565b600181811c9082168061546b57607f821691505b60208210810361548b57634e487b7160e01b600052602260045260246000fd5b50919050565b634e487b7160e01b600052603260045260246000fd5b634e487b7160e01b600052601160045260246000fd5b60008160001904831182151516156154d7576154d76154a7565b500290565b6000826154f957634e487b7160e01b600052601260045260246000fd5b500490565b60008219821115615511576155116154a7565b500190565b600082821015615528576155286154a7565b500390565b60006001820161553f5761553f6154a7565b5060010190565b6020808252602c908201527f46756e6374696f6e206d7573742062652063616c6c6564207468726f7567682060408201526b19195b1959d85d1958d85b1b60a21b606082015260800190565b6020808252602c908201527f46756e6374696f6e206d7573742062652063616c6c6564207468726f7567682060408201526b6163746976652070726f787960a01b606082015260800190565b6040815260006155f16040830185614c70565b905082151560208301529392505050565b80516140d781614caf565b60006040828403121561561f57600080fd5b604051604081018181106001600160401b038211171561564157615641614d99565b604052825161564f81614caf565b81526020928301519281019290925250919050565b60006020828403121561567657600080fd5b5051919050565b6000825161568f818460208701614c44565b9190910192915050565b600082601f8301126156aa57600080fd5b81516156b8614e6f82614fac565b8181528460208386010111156156cd57600080fd5b6149bc826020830160208701614c44565b80516140d781614d0d565b80516140d78161502c565b6000610160828403121561570757600080fd5b61570f614daf565b905081516001600160401b038082111561572857600080fd5b61573485838601615699565b8352615742602085016156de565b6020840152615753604085016156de565b60408401526060840151606084015261576e608085016156de565b608084015261577f60a085016156e9565b60a084015261579060c085016156e9565b60c084015260e08401519150808211156157a957600080fd5b6157b585838601615699565b60e0840152610100915081840151818111156157d057600080fd5b6157dc86828701615699565b8385015250610120915081840151818111156157f757600080fd5b61580386828701615699565b83850152506101409150818401518181111561581e57600080fd5b61582a86828701615699565b8385015250505092915050565b6000806040838503121561584a57600080fd5b82516001600160401b038082111561586157600080fd5b90840190610140828703121561587657600080fd5b61587e614dd8565b82518281111561588d57600080fd5b61589988828601615699565b8252506020830151828111156158ae57600080fd5b6158ba88828601615699565b6020830152506040830151828111156158d257600080fd5b6158de88828601615699565b6040830152506060830151828111156158f657600080fd5b61590288828601615699565b60608301525060808301518281111561591a57600080fd5b61592688828601615699565b60808301525060a08301518281111561593e57600080fd5b61594a88828601615699565b60a08301525060c08301518281111561596257600080fd5b61596e88828601615699565b60c08301525060e08301518281111561598657600080fd5b61599288828601615699565b60e08301525061010080840151838111156159ac57600080fd5b6159b889828701615699565b8284015250506101206159cc818501615602565b9082015260208601519094509150808211156159e757600080fd5b5061527e858286016156f4565b60208082528181018390526000908460408401835b86811015614eb7578235615a1c81614caf565b6001600160a01b031682529183019190830190600101615a09565b600060208284031215615a4957600080fd5b81516112348161502c565b6020808252602e908201527f496e697469616c697a61626c653a20636f6e747261637420697320616c72656160408201526d191e481a5b9a5d1a585b1a5e995960921b606082015260800190565b6020808252602b908201527f496e697469616c697a61626c653a20636f6e7472616374206973206e6f74206960408201526a6e697469616c697a696e6760a81b606082015260800190565b7f416363657373436f6e74726f6c3a206163636f756e7420000000000000000000815260008351615b25816017850160208801614c44565b7001034b99036b4b9b9b4b733903937b6329607d1b6017918401918201528351615b56816028840160208801614c44565b01602801949350505050565b600081615b7157615b716154a7565b50600019019056fe546f7563616e2050726f746f636f6c3a204261736520436172626f6e20546f6e6e65360894a13ba1a3210667c828492db98dca3e2076cc3735a920a3ca505d382bbc416464726573733a206c6f772d6c6576656c2064656c65676174652063616c6c206661696c6564a2646970667358221220d19c9efa8ecc9f776e51e7d2435b8d4b535da920538268eef0ded63a3d5c5c0864736f6c634300080e0033496e697469616c697a61626c653a20636f6e747261637420697320616c726561",
  "devdoc": {
    "kind": "dev",
    "methods": {
      "addAttributes(bool,string[],string[],string[])": {
        "params": {
          "addToList": "determines whether attribute should be added or removed Other params are arrays of attributes to be added"
        }
      },
      "addRedeemFeeExemptedAddress(address)": {
        "params": {
          "_address": "address to be exempted on redeem fees"
        }
      },
      "addRedeemFeeExemptedTCO2(address)": {
        "params": {
          "_tco2": "TCO2 to be exempted on redeem fees"
        }
      },
      "addToExternalWhiteList(address[])": {
        "params": {
          "erc20Addr": "accepts an array of contract addresses"
        }
      },
      "addToInternalBlackList(address[])": {
        "params": {
          "erc20Addr": "accepts an array of contract addresses"
        }
      },
      "addToInternalWhiteList(address[])": {
        "params": {
          "erc20Addr": "accepts an array of contract addresses"
        }
      },
      "allowance(address,address)": {
        "details": "See {IERC20-allowance}."
      },
      "approve(address,uint256)": {
        "details": "See {IERC20-approve}. NOTE: If `amount` is the maximum `uint256`, the allowance is not updated on `transferFrom`. This is semantically equivalent to an infinite approval. Requirements: - `spender` cannot be the zero address."
      },
      "balanceOf(address)": {
        "details": "See {IERC20-balanceOf}."
      },
      "bridgeBurn(address,uint256)": {
        "details": "invoked only by the ToucanCrosschainMessenger (Router)",
        "params": {
          "_account": "account that will be burned with corss-chain bridged tokens",
          "_amount": "amount of tokens that will be burned"
        }
      },
      "bridgeMint(address,uint256)": {
        "details": "invoked only by the ToucanCrosschainMessenger (Router)",
        "params": {
          "_account": "account that will be minted with corss-chain bridged tokens",
          "_amount": "amount of tokens that will be minted"
        }
      },
      "bridgeTCO2s(uint32,address[],uint256[])": {
        "params": {
          "amounts": "The amounts of TCO2s to bridge",
          "destinationDomain": "The domain to bridge TCO2s to",
          "tco2s": "The TCO2s to bridge"
        }
      },
      "calculateRedeemFees(address[],uint256[])": {
        "details": "User specifies in front-end the addresses and amounts they want",
        "params": {
          "amounts": "Array of amounts to redeem for each tco2s",
          "tco2s": "Array of TCO2 contract addresses"
        },
        "returns": {
          "_0": "Total fees amount"
        }
      },
      "constructor": {
        "custom:oz-upgrades-unsafe-allow": "constructor"
      },
      "decimals()": {
        "details": "Returns the number of decimals used to get its user representation. For example, if `decimals` equals `2`, a balance of `505` tokens should be displayed to a user as `5.05` (`505 / 10 ** 2`). Tokens usually opt for a value of 18, imitating the relationship between Ether and Wei. This is the value {ERC20} uses, unless this function is overridden; NOTE: This information is only used for _display_ purposes: it in no way affects any of the arithmetic of the contract, including {IERC20-balanceOf} and {IERC20-transfer}."
      },
      "decreaseAllowance(address,uint256)": {
        "details": "Atomically decreases the allowance granted to `spender` by the caller. This is an alternative to {approve} that can be used as a mitigation for problems described in {IERC20-approve}. Emits an {Approval} event indicating the updated allowance. Requirements: - `spender` cannot be the zero address. - `spender` must have allowance for the caller of at least `subtractedValue`."
      },
      "deposit(address,uint256)": {
        "details": "Eligibility is checked via `checkEligible`, balances are tracked for each TCO2 separately",
        "params": {
          "erc20Addr": "ERC20 contract address to be deposited, requires approve"
        }
      },
      "getRemaining()": {
        "details": "Returns the remaining space in pool before hitting the cap"
      },
      "getRoleAdmin(bytes32)": {
        "details": "Returns the admin role that controls `role`. See {grantRole} and {revokeRole}. To change a role's admin, use {_setRoleAdmin}."
      },
      "grantRole(bytes32,address)": {
        "details": "Grants `role` to `account`. If `account` had not been already granted `role`, emits a {RoleGranted} event. Requirements: - the caller must have ``role``'s admin role."
      },
      "hasRole(bytes32,address)": {
        "details": "Returns `true` if `account` has been granted `role`."
      },
      "increaseAllowance(address,uint256)": {
        "details": "Atomically increases the allowance granted to `spender` by the caller. This is an alternative to {approve} that can be used as a mitigation for problems described in {IERC20-approve}. Emits an {Approval} event indicating the updated allowance. Requirements: - `spender` cannot be the zero address."
      },
      "name()": {
        "details": "Returns the name of the token."
      },
      "owner()": {
        "details": "Returns the address of the current owner."
      },
      "pause()": {
        "details": "wraps _pause(), only Admin"
      },
      "paused()": {
        "details": "Returns true if the contract is paused, and false otherwise."
      },
      "proxiableUUID()": {
        "details": "Implementation of the ERC1822 {proxiableUUID} function. This returns the storage slot used by the implementation. It is used to validate that the this implementation remains valid after an upgrade. IMPORTANT: A proxy pointing at a proxiable contract should not be considered proxiable itself, because this risks bricking a proxy that upgrades to it, by delegating to itself until out of gas. Thus it is critical that this function revert if invoked through a proxy. This is guaranteed by the `notDelegated` modifier."
      },
      "redeemAndBurn(address,uint256)": {
        "details": "User needs to approve the pool contract in the TCO2 contract for the amount to be burnt before executing this function.",
        "params": {
          "amount": "Amount to redeem and burn",
          "tco2": "TCO2 to redeem and burn"
        }
      },
      "redeemAuto(uint256)": {
        "details": "BCT Pool tokens in user's wallet get burned",
        "params": {
          "amount": "Total amount to be redeemed"
        }
      },
      "redeemAuto2(uint256)": {
        "params": {
          "amount": "Total amount to be redeemed"
        },
        "returns": {
          "tco2s": "amounts The addresses and amounts of the TCO2s that were automatically redeemed"
        }
      },
      "redeemMany(address[],uint256[])": {
        "details": "User specifies in front-end the addresses and amounts they want",
        "params": {
          "amounts": "Array of amounts to redeem for each tco2s BCT Pool token in user's wallet get burned",
          "tco2s": "Array of TCO2 contract addresses"
        }
      },
      "removeFromExternalWhiteList(address[])": {
        "params": {
          "erc20Addr": "accepts an array of contract addresses"
        }
      },
      "removeFromInternalBlackList(address[])": {
        "params": {
          "erc20Addr": "accepts an array of contract addresses"
        }
      },
      "removeFromInternalWhiteList(address[])": {
        "params": {
          "erc20Addr": "accepts an array of contract addressesc"
        }
      },
      "removeRedeemFeeExemptedAddress(address)": {
        "params": {
          "_address": "address to be removed from exemption"
        }
      },
      "removeRedeemFeeExemptedTCO2(address)": {
        "params": {
          "_tco2": "TCO2 to be removed from exemption"
        }
      },
      "renounceOwnership()": {
        "details": "Leaves the contract without owner. It will not be possible to call `onlyOwner` functions anymore. Can only be called by the current owner. NOTE: Renouncing ownership will leave the contract without an owner, thereby removing any functionality that is only available to the owner."
      },
      "renounceRole(bytes32,address)": {
        "details": "Revokes `role` from the calling account. Roles are often managed via {grantRole} and {revokeRole}: this function's purpose is to provide a mechanism for accounts to lose their privileges if they are compromised (such as when a trusted device is misplaced). If the calling account had been revoked `role`, emits a {RoleRevoked} event. Requirements: - the caller must be `account`."
      },
      "revokeRole(bytes32,address)": {
        "details": "Revokes `role` from `account`. If `account` had been granted `role`, emits a {RoleRevoked} event. Requirements: - the caller must have ``role``'s admin role."
      },
      "setFeeRedeemBurnAddress(address)": {
        "params": {
          "_feeRedeemBurnAddress": "address to transfer the fees to burn"
        }
      },
      "setFeeRedeemBurnPercentage(uint256)": {
        "params": {
          "_feeRedeemBurnPercentageInBase": "percentage of fee in base"
        }
      },
      "setFeeRedeemPercentage(uint256)": {
        "params": {
          "_feeRedeemPercentageInBase": "percentage of fee in base"
        }
      },
      "setFeeRedeemReceiver(address)": {
        "params": {
          "_feeRedeemReceiver": "address to transfer the fees"
        }
      },
      "setMinimumVintageStartTime(uint64)": {
        "params": {
          "_minimumVintageStartTime": "unix time format"
        }
      },
      "setRouter(address)": {
        "details": "use this method to set router address",
        "params": {
          "_router": "address of ToucanCrosschainMessenger"
        }
      },
      "setSupplyCap(uint256)": {
        "details": "supplyCap is initially set to 0 and must be increased before deposits"
      },
      "setTCO2Scoring(address[])": {
        "params": {
          "tco2s": "array of ordered TCO2 addresses"
        }
      },
      "supportsInterface(bytes4)": {
        "details": "See {IERC165-supportsInterface}."
      },
      "switchMapping(string,bool)": {
        "params": {
          "_mappingName": "attribute mapping of project-vintage data",
          "accepted": "determines if mapping works as black or whitelist"
        }
      },
      "symbol()": {
        "details": "Returns the symbol of the token, usually a shorter version of the name."
      },
      "totalSupply()": {
        "details": "See {IERC20-totalSupply}."
      },
      "transferOwnership(address)": {
        "details": "Transfers ownership of the contract to a new account (`newOwner`). Can only be called by the current owner."
      },
      "unpause()": {
        "details": "unpause the system, wraps _unpause(), only Admin"
      },
      "upgradeTo(address)": {
        "details": "Upgrade the implementation of the proxy to `newImplementation`. Calls {_authorizeUpgrade}. Emits an {Upgraded} event."
      },
      "upgradeToAndCall(address,bytes)": {
        "details": "Upgrade the implementation of the proxy to `newImplementation`, and subsequently execute the function call encoded in `data`. Calls {_authorizeUpgrade}. Emits an {Upgraded} event."
      }
    },
    "stateVariables": {
      "feeRedeemDivider": {
        "details": "fees redeem percentage with 2 fixed decimals precision"
      }
    },
    "version": 1
  },
  "userdoc": {
    "kind": "user",
    "methods": {
      "addAttributes(bool,string[],string[],string[])": {
        "notice": "Function to add attributes for filtering (does not support complex AttributeSets)"
      },
      "addRedeemFeeExemptedAddress(address)": {
        "notice": "Adds a new address for redeem fees exemption"
      },
      "addRedeemFeeExemptedTCO2(address)": {
        "notice": "Adds a new TCO2 for redeem fees exemption"
      },
      "addToExternalWhiteList(address[])": {
        "notice": "Function to whitelist selected external non-TCO2 contracts by their address"
      },
      "addToInternalBlackList(address[])": {
        "notice": "Function to blacklist certain TCO2 contracts by their address"
      },
      "addToInternalWhiteList(address[])": {
        "notice": "Function to whitelist certain TCO2 contracts by their address"
      },
      "bridgeBurn(address,uint256)": {
        "notice": "burn tokens from account to be cross-chain bridged"
      },
      "bridgeMint(address,uint256)": {
        "notice": "mint tokens to receiver account that were cross-chain bridged"
      },
      "bridgeTCO2s(uint32,address[],uint256[])": {
        "notice": "Allows MANAGER or the owner to bridge TCO2s into another domain."
      },
      "calculateRedeemFees(address[],uint256[])": {
        "notice": "View function to calculate fees pre-execution"
      },
      "checkAttributeMatching(address)": {
        "notice": "checks whether incoming project-vintage-ERC20 token matches the accepted criteria/attributes"
      },
      "checkEligible(address)": {
        "notice": "Checks if token to be deposited is eligible for this pool"
      },
      "deposit(address,uint256)": {
        "notice": "Deposit function for BCT pool that accepts TCO2s and mints BCT 1:1"
      },
      "pause()": {
        "notice": "Emergency function to disable contract's core functionality"
      },
      "redeemAndBurn(address,uint256)": {
        "notice": "Redeem a whitelisted TCO2 without paying any fees and burn the TCO2. Initially added to burn HFC-23 credits, can be used in the future to dispose of any other whitelisted credits."
      },
      "redeemAuto(uint256)": {
        "notice": "Automatically redeems an amount of Pool tokens for underlying TCO2s from an array of ranked TCO2 contracts starting from contract at index 0 until amount is satisfied"
      },
      "redeemAuto2(uint256)": {
        "notice": "Automatically redeems an amount of Pool tokens for underlying TCO2s from an array of ranked TCO2 contracts starting from contract at index 0 until amount is satisfied."
      },
      "redeemFeeExemptedAddresses(address)": {
        "notice": "End users exempted from redeem fees"
      },
      "redeemFeeExemptedTCO2s(address)": {
        "notice": "TCO2s exempted from redeem fees"
      },
      "redeemMany(address[],uint256[])": {
        "notice": "Redeems Pool tokens for multiple underlying TCO2s 1:1 minus fees"
      },
      "removeFromExternalWhiteList(address[])": {
        "notice": "Function to remove ERC20 addresses from external whitelist"
      },
      "removeFromInternalBlackList(address[])": {
        "notice": "Function to remove TCO2 addresses from internal blacklist"
      },
      "removeFromInternalWhiteList(address[])": {
        "notice": "Function to remove TCO2 addresses from internal whitelist"
      },
      "removeRedeemFeeExemptedAddress(address)": {
        "notice": "Removes an address from redeem fees exemption"
      },
      "removeRedeemFeeExemptedTCO2(address)": {
        "notice": "Removes a TCO2 from redeem fees exemption"
      },
      "router()": {
        "notice": "bridge router who has access to the bridgeMint & bridgeBurn functions which mint/burn pool tokens for cross chain messenges"
      },
      "scoredTCO2s(uint256)": {
        "notice": "array used to read from when redeeming TCO2s automatically"
      },
      "setFeeRedeemBurnAddress(address)": {
        "notice": "Update the fee redeem burn address"
      },
      "setFeeRedeemBurnPercentage(uint256)": {
        "notice": "Update the fee redeem burn percentage"
      },
      "setFeeRedeemPercentage(uint256)": {
        "notice": "Update the fee redeem percentage"
      },
      "setFeeRedeemReceiver(address)": {
        "notice": "Update the fee redeem receiver"
      },
      "setMinimumVintageStartTime(uint64)": {
        "notice": "Determines the minimum vintage start time acceptance criteria of TCO2s"
      },
      "setRouter(address)": {
        "notice": "method to set router address"
      },
      "setSupplyCap(uint256)": {
        "notice": "Function to limit the maximum BCT supply"
      },
      "setTCO2Scoring(address[])": {
        "notice": "Allows MANAGERs or the owner to pass an array to hold TCO2 contract addesses that are ordered by some form of scoring mechanism"
      },
      "supplyCap()": {
        "notice": "The supply cap is used as a measure to guard deposits in the pool. It is meant to minimize the impact a potential compromise in the source registry (eg. Verra) can have to the pool."
      },
      "switchMapping(string,bool)": {
        "notice": "Generic function to switch attributes mappings into either acceptance or rejection criteria"
      },
      "tokenBalances(address)": {
        "notice": "Returns the balance of the TCO2 found in the pool"
      }
    },
    "notice": "Base Carbon Tonne for KlimaDAO Contract is an ERC20 compliant token that acts as a pool for TCO2 tokens It is possible to whitelist Toucan Protocol external tokenized carbon",
    "version": 1
  },
  "storageLayout": {
    "storage": [
      {
        "astId": 1489,
        "contract": "contracts/pools/BaseCarbonTonne.sol:BaseCarbonTonne",
        "label": "_initialized",
        "offset": 0,
        "slot": "0",
        "type": "t_uint8"
      },
      {
        "astId": 1492,
        "contract": "contracts/pools/BaseCarbonTonne.sol:BaseCarbonTonne",
        "label": "_initializing",
        "offset": 1,
        "slot": "0",
        "type": "t_bool"
      },
      {
        "astId": 4534,
        "contract": "contracts/pools/BaseCarbonTonne.sol:BaseCarbonTonne",
        "label": "__gap",
        "offset": 0,
        "slot": "1",
        "type": "t_array(t_uint256)50_storage"
      },
      {
        "astId": 1890,
        "contract": "contracts/pools/BaseCarbonTonne.sol:BaseCarbonTonne",
        "label": "_balances",
        "offset": 0,
        "slot": "51",
        "type": "t_mapping(t_address,t_uint256)"
      },
      {
        "astId": 1896,
        "contract": "contracts/pools/BaseCarbonTonne.sol:BaseCarbonTonne",
        "label": "_allowances",
        "offset": 0,
        "slot": "52",
        "type": "t_mapping(t_address,t_mapping(t_address,t_uint256))"
      },
      {
        "astId": 1898,
        "contract": "contracts/pools/BaseCarbonTonne.sol:BaseCarbonTonne",
        "label": "_totalSupply",
        "offset": 0,
        "slot": "53",
        "type": "t_uint256"
      },
      {
        "astId": 1900,
        "contract": "contracts/pools/BaseCarbonTonne.sol:BaseCarbonTonne",
        "label": "_name",
        "offset": 0,
        "slot": "54",
        "type": "t_string_storage"
      },
      {
        "astId": 1902,
        "contract": "contracts/pools/BaseCarbonTonne.sol:BaseCarbonTonne",
        "label": "_symbol",
        "offset": 0,
        "slot": "55",
        "type": "t_string_storage"
      },
      {
        "astId": 2481,
        "contract": "contracts/pools/BaseCarbonTonne.sol:BaseCarbonTonne",
        "label": "__gap",
        "offset": 0,
        "slot": "56",
        "type": "t_array(t_uint256)45_storage"
      },
      {
        "astId": 980,
        "contract": "contracts/pools/BaseCarbonTonne.sol:BaseCarbonTonne",
        "label": "_owner",
        "offset": 0,
        "slot": "101",
        "type": "t_address"
      },
      {
        "astId": 1092,
        "contract": "contracts/pools/BaseCarbonTonne.sol:BaseCarbonTonne",
        "label": "__gap",
        "offset": 0,
        "slot": "102",
        "type": "t_array(t_uint256)49_storage"
      },
      {
        "astId": 1781,
        "contract": "contracts/pools/BaseCarbonTonne.sol:BaseCarbonTonne",
        "label": "_paused",
        "offset": 0,
        "slot": "151",
        "type": "t_bool"
      },
      {
        "astId": 1870,
        "contract": "contracts/pools/BaseCarbonTonne.sol:BaseCarbonTonne",
        "label": "__gap",
        "offset": 0,
        "slot": "152",
        "type": "t_array(t_uint256)49_storage"
      },
      {
        "astId": 4841,
        "contract": "contracts/pools/BaseCarbonTonne.sol:BaseCarbonTonne",
        "label": "__gap",
        "offset": 0,
        "slot": "201",
        "type": "t_array(t_uint256)50_storage"
      },
      {
        "astId": 596,
        "contract": "contracts/pools/BaseCarbonTonne.sol:BaseCarbonTonne",
        "label": "_roles",
        "offset": 0,
        "slot": "251",
        "type": "t_mapping(t_bytes32,t_struct(RoleData)591_storage)"
      },
      {
        "astId": 895,
        "contract": "contracts/pools/BaseCarbonTonne.sol:BaseCarbonTonne",
        "label": "__gap",
        "offset": 0,
        "slot": "252",
        "type": "t_array(t_uint256)49_storage"
      },
      {
        "astId": 1471,
        "contract": "contracts/pools/BaseCarbonTonne.sol:BaseCarbonTonne",
        "label": "__gap",
        "offset": 0,
        "slot": "301",
        "type": "t_array(t_uint256)50_storage"
      },
      {
        "astId": 1759,
        "contract": "contracts/pools/BaseCarbonTonne.sol:BaseCarbonTonne",
        "label": "__gap",
        "offset": 0,
        "slot": "351",
        "type": "t_array(t_uint256)50_storage"
      },
      {
        "astId": 15215,
        "contract": "contracts/pools/BaseCarbonTonne.sol:BaseCarbonTonne",
        "label": "supplyCap",
        "offset": 0,
        "slot": "401",
        "type": "t_uint256"
      },
      {
        "astId": 15219,
        "contract": "contracts/pools/BaseCarbonTonne.sol:BaseCarbonTonne",
        "label": "DEPRECATED_tokenBalances",
        "offset": 0,
        "slot": "402",
        "type": "t_mapping(t_address,t_uint256)"
      },
      {
        "astId": 15221,
        "contract": "contracts/pools/BaseCarbonTonne.sol:BaseCarbonTonne",
        "label": "contractRegistry",
        "offset": 0,
        "slot": "403",
        "type": "t_address"
      },
      {
        "astId": 15223,
        "contract": "contracts/pools/BaseCarbonTonne.sol:BaseCarbonTonne",
        "label": "minimumVintageStartTime",
        "offset": 20,
        "slot": "403",
        "type": "t_uint64"
      },
      {
        "astId": 15226,
        "contract": "contracts/pools/BaseCarbonTonne.sol:BaseCarbonTonne",
        "label": "regionsIsAcceptedMapping",
        "offset": 28,
        "slot": "403",
        "type": "t_bool"
      },
      {
        "astId": 15230,
        "contract": "contracts/pools/BaseCarbonTonne.sol:BaseCarbonTonne",
        "label": "regions",
        "offset": 0,
        "slot": "404",
        "type": "t_mapping(t_string_memory_ptr,t_bool)"
      },
      {
        "astId": 15232,
        "contract": "contracts/pools/BaseCarbonTonne.sol:BaseCarbonTonne",
        "label": "standardsIsAcceptedMapping",
        "offset": 0,
        "slot": "405",
        "type": "t_bool"
      },
      {
        "astId": 15236,
        "contract": "contracts/pools/BaseCarbonTonne.sol:BaseCarbonTonne",
        "label": "standards",
        "offset": 0,
        "slot": "406",
        "type": "t_mapping(t_string_memory_ptr,t_bool)"
      },
      {
        "astId": 15238,
        "contract": "contracts/pools/BaseCarbonTonne.sol:BaseCarbonTonne",
        "label": "methodologiesIsAcceptedMapping",
        "offset": 0,
        "slot": "407",
        "type": "t_bool"
      },
      {
        "astId": 15242,
        "contract": "contracts/pools/BaseCarbonTonne.sol:BaseCarbonTonne",
        "label": "methodologies",
        "offset": 0,
        "slot": "408",
        "type": "t_mapping(t_string_memory_ptr,t_bool)"
      },
      {
        "astId": 15247,
        "contract": "contracts/pools/BaseCarbonTonne.sol:BaseCarbonTonne",
        "label": "externalWhiteList",
        "offset": 0,
        "slot": "409",
        "type": "t_mapping(t_address,t_bool)"
      },
      {
        "astId": 15252,
        "contract": "contracts/pools/BaseCarbonTonne.sol:BaseCarbonTonne",
        "label": "internalWhiteList",
        "offset": 0,
        "slot": "410",
        "type": "t_mapping(t_address,t_bool)"
      },
      {
        "astId": 15257,
        "contract": "contracts/pools/BaseCarbonTonne.sol:BaseCarbonTonne",
        "label": "internalBlackList",
        "offset": 0,
        "slot": "411",
        "type": "t_mapping(t_address,t_bool)"
      },
      {
        "astId": 15261,
        "contract": "contracts/pools/BaseCarbonTonne.sol:BaseCarbonTonne",
        "label": "feeRedeemReceiver",
        "offset": 0,
        "slot": "412",
        "type": "t_address"
      },
      {
        "astId": 15263,
        "contract": "contracts/pools/BaseCarbonTonne.sol:BaseCarbonTonne",
        "label": "feeRedeemPercentageInBase",
        "offset": 0,
        "slot": "413",
        "type": "t_uint256"
      },
      {
        "astId": 15266,
        "contract": "contracts/pools/BaseCarbonTonne.sol:BaseCarbonTonne",
        "label": "feeRedeemBurnAddress",
        "offset": 0,
        "slot": "414",
        "type": "t_address"
      },
      {
        "astId": 15269,
        "contract": "contracts/pools/BaseCarbonTonne.sol:BaseCarbonTonne",
        "label": "feeRedeemBurnPercentageInBase",
        "offset": 0,
        "slot": "415",
        "type": "t_uint256"
      },
      {
        "astId": 15275,
        "contract": "contracts/pools/BaseCarbonTonne.sol:BaseCarbonTonne",
        "label": "redeemFeeExemptedAddresses",
        "offset": 0,
        "slot": "416",
        "type": "t_mapping(t_address,t_bool)"
      },
      {
        "astId": 15279,
        "contract": "contracts/pools/BaseCarbonTonne.sol:BaseCarbonTonne",
        "label": "scoredTCO2s",
        "offset": 0,
        "slot": "417",
        "type": "t_array(t_address)dyn_storage"
      },
      {
        "astId": 15285,
        "contract": "contracts/pools/BaseCarbonTonne.sol:BaseCarbonTonne",
        "label": "redeemFeeExemptedTCO2s",
        "offset": 0,
        "slot": "418",
        "type": "t_mapping(t_address,t_bool)"
      },
      {
        "astId": 15289,
        "contract": "contracts/pools/BaseCarbonTonne.sol:BaseCarbonTonne",
        "label": "router",
        "offset": 0,
        "slot": "419",
        "type": "t_address"
      }
    ],
    "types": {
      "t_address": {
        "encoding": "inplace",
        "label": "address",
        "numberOfBytes": "20"
      },
      "t_array(t_address)dyn_storage": {
        "base": "t_address",
        "encoding": "dynamic_array",
        "label": "address[]",
        "numberOfBytes": "32"
      },
      "t_array(t_uint256)45_storage": {
        "base": "t_uint256",
        "encoding": "inplace",
        "label": "uint256[45]",
        "numberOfBytes": "1440"
      },
      "t_array(t_uint256)49_storage": {
        "base": "t_uint256",
        "encoding": "inplace",
        "label": "uint256[49]",
        "numberOfBytes": "1568"
      },
      "t_array(t_uint256)50_storage": {
        "base": "t_uint256",
        "encoding": "inplace",
        "label": "uint256[50]",
        "numberOfBytes": "1600"
      },
      "t_bool": {
        "encoding": "inplace",
        "label": "bool",
        "numberOfBytes": "1"
      },
      "t_bytes32": {
        "encoding": "inplace",
        "label": "bytes32",
        "numberOfBytes": "32"
      },
      "t_mapping(t_address,t_bool)": {
        "encoding": "mapping",
        "key": "t_address",
        "label": "mapping(address => bool)",
        "numberOfBytes": "32",
        "value": "t_bool"
      },
      "t_mapping(t_address,t_mapping(t_address,t_uint256))": {
        "encoding": "mapping",
        "key": "t_address",
        "label": "mapping(address => mapping(address => uint256))",
        "numberOfBytes": "32",
        "value": "t_mapping(t_address,t_uint256)"
      },
      "t_mapping(t_address,t_uint256)": {
        "encoding": "mapping",
        "key": "t_address",
        "label": "mapping(address => uint256)",
        "numberOfBytes": "32",
        "value": "t_uint256"
      },
      "t_mapping(t_bytes32,t_struct(RoleData)591_storage)": {
        "encoding": "mapping",
        "key": "t_bytes32",
        "label": "mapping(bytes32 => struct AccessControlUpgradeable.RoleData)",
        "numberOfBytes": "32",
        "value": "t_struct(RoleData)591_storage"
      },
      "t_mapping(t_string_memory_ptr,t_bool)": {
        "encoding": "mapping",
        "key": "t_string_memory_ptr",
        "label": "mapping(string => bool)",
        "numberOfBytes": "32",
        "value": "t_bool"
      },
      "t_string_memory_ptr": {
        "encoding": "bytes",
        "label": "string",
        "numberOfBytes": "32"
      },
      "t_string_storage": {
        "encoding": "bytes",
        "label": "string",
        "numberOfBytes": "32"
      },
      "t_struct(RoleData)591_storage": {
        "encoding": "inplace",
        "label": "struct AccessControlUpgradeable.RoleData",
        "members": [
          {
            "astId": 588,
            "contract": "contracts/pools/BaseCarbonTonne.sol:BaseCarbonTonne",
            "label": "members",
            "offset": 0,
            "slot": "0",
            "type": "t_mapping(t_address,t_bool)"
          },
          {
            "astId": 590,
            "contract": "contracts/pools/BaseCarbonTonne.sol:BaseCarbonTonne",
            "label": "adminRole",
            "offset": 0,
            "slot": "1",
            "type": "t_bytes32"
          }
        ],
        "numberOfBytes": "64"
      },
      "t_uint256": {
        "encoding": "inplace",
        "label": "uint256",
        "numberOfBytes": "32"
      },
      "t_uint64": {
        "encoding": "inplace",
        "label": "uint64",
        "numberOfBytes": "8"
      },
      "t_uint8": {
        "encoding": "inplace",
        "label": "uint8",
        "numberOfBytes": "1"
      }
    }
  }
}