{
  "address": "0x82400Cb8A608E746D179c8Df12266544B0C8A48A",
  "abi": [
    {
      "inputs": [],
      "stateMutability": "nonpayable",
      "type": "constructor"
    },
    {
      "anonymous": false,
      "inputs": [
        {
          "indexed": false,
          "internalType": "address",
          "name": "previousAdmin",
          "type": "address"
        },
        {
          "indexed": false,
          "internalType": "address",
          "name": "newAdmin",
          "type": "address"
        }
      ],
      "name": "AdminChanged",
      "type": "event"
    },
    {
      "anonymous": false,
      "inputs": [
        {
          "indexed": true,
          "internalType": "address",
          "name": "owner",
          "type": "address"
        },
        {
          "indexed": true,
          "internalType": "address",
          "name": "approved",
          "type": "address"
        },
        {
          "indexed": true,
          "internalType": "uint256",
          "name": "tokenId",
          "type": "uint256"
        }
      ],
      "name": "Approval",
      "type": "event"
    },
    {
      "anonymous": false,
      "inputs": [
        {
          "indexed": true,
          "internalType": "address",
          "name": "owner",
          "type": "address"
        },
        {
          "indexed": true,
          "internalType": "address",
          "name": "operator",
          "type": "address"
        },
        {
          "indexed": false,
          "internalType": "bool",
          "name": "approved",
          "type": "bool"
        }
      ],
      "name": "ApprovalForAll",
      "type": "event"
    },
    {
      "anonymous": false,
      "inputs": [
        {
          "indexed": false,
          "internalType": "uint256",
          "name": "tokenId",
          "type": "uint256"
        },
        {
          "indexed": false,
          "internalType": "uint256",
          "name": "commentId",
          "type": "uint256"
        },
        {
          "indexed": false,
          "internalType": "address",
          "name": "sender",
          "type": "address"
        },
        {
          "indexed": false,
          "internalType": "string",
          "name": "comment",
          "type": "string"
        }
      ],
      "name": "BatchComment",
      "type": "event"
    },
    {
      "anonymous": false,
      "inputs": [
        {
          "indexed": false,
          "internalType": "uint256",
          "name": "tokenId",
          "type": "uint256"
        },
        {
          "indexed": false,
          "internalType": "uint256",
          "name": "projectVintageTokenId",
          "type": "uint256"
        }
      ],
      "name": "BatchLinkedWithVintage",
      "type": "event"
    },
    {
      "anonymous": false,
      "inputs": [
        {
          "indexed": false,
          "internalType": "address",
          "name": "sender",
          "type": "address"
        },
        {
          "indexed": false,
          "internalType": "uint256",
          "name": "tokenId",
          "type": "uint256"
        }
      ],
      "name": "BatchMinted",
      "type": "event"
    },
    {
      "anonymous": false,
      "inputs": [
        {
          "indexed": false,
          "internalType": "uint256",
          "name": "tokenId",
          "type": "uint256"
        },
        {
          "indexed": false,
          "internalType": "enum RetirementStatus",
          "name": "status",
          "type": "uint8"
        }
      ],
      "name": "BatchStatusUpdate",
      "type": "event"
    },
    {
      "anonymous": false,
      "inputs": [
        {
          "indexed": false,
          "internalType": "uint256",
          "name": "tokenId",
          "type": "uint256"
        },
        {
          "indexed": false,
          "internalType": "string",
          "name": "serialNumber",
          "type": "string"
        },
        {
          "indexed": false,
          "internalType": "uint256",
          "name": "quantity",
          "type": "uint256"
        }
      ],
      "name": "BatchUpdated",
      "type": "event"
    },
    {
      "anonymous": false,
      "inputs": [
        {
          "indexed": true,
          "internalType": "address",
          "name": "beacon",
          "type": "address"
        }
      ],
      "name": "BeaconUpgraded",
      "type": "event"
    },
    {
      "anonymous": false,
      "inputs": [
        {
          "indexed": false,
          "internalType": "uint8",
          "name": "version",
          "type": "uint8"
        }
      ],
      "name": "Initialized",
      "type": "event"
    },
    {
      "anonymous": false,
      "inputs": [
        {
          "indexed": true,
          "internalType": "address",
          "name": "previousOwner",
          "type": "address"
        },
        {
          "indexed": true,
          "internalType": "address",
          "name": "newOwner",
          "type": "address"
        }
      ],
      "name": "OwnershipTransferred",
      "type": "event"
    },
    {
      "anonymous": false,
      "inputs": [
        {
          "indexed": false,
          "internalType": "address",
          "name": "account",
          "type": "address"
        }
      ],
      "name": "Paused",
      "type": "event"
    },
    {
      "anonymous": false,
      "inputs": [
        {
          "indexed": true,
          "internalType": "bytes32",
          "name": "role",
          "type": "bytes32"
        },
        {
          "indexed": true,
          "internalType": "bytes32",
          "name": "previousAdminRole",
          "type": "bytes32"
        },
        {
          "indexed": true,
          "internalType": "bytes32",
          "name": "newAdminRole",
          "type": "bytes32"
        }
      ],
      "name": "RoleAdminChanged",
      "type": "event"
    },
    {
      "anonymous": false,
      "inputs": [
        {
          "indexed": true,
          "internalType": "bytes32",
          "name": "role",
          "type": "bytes32"
        },
        {
          "indexed": true,
          "internalType": "address",
          "name": "account",
          "type": "address"
        },
        {
          "indexed": true,
          "internalType": "address",
          "name": "sender",
          "type": "address"
        }
      ],
      "name": "RoleGranted",
      "type": "event"
    },
    {
      "anonymous": false,
      "inputs": [
        {
          "indexed": true,
          "internalType": "bytes32",
          "name": "role",
          "type": "bytes32"
        },
        {
          "indexed": true,
          "internalType": "address",
          "name": "account",
          "type": "address"
        },
        {
          "indexed": true,
          "internalType": "address",
          "name": "sender",
          "type": "address"
        }
      ],
      "name": "RoleRevoked",
      "type": "event"
    },
    {
      "anonymous": false,
      "inputs": [
        {
          "indexed": true,
          "internalType": "address",
          "name": "from",
          "type": "address"
        },
        {
          "indexed": true,
          "internalType": "address",
          "name": "to",
          "type": "address"
        },
        {
          "indexed": true,
          "internalType": "uint256",
          "name": "tokenId",
          "type": "uint256"
        }
      ],
      "name": "Transfer",
      "type": "event"
    },
    {
      "anonymous": false,
      "inputs": [
        {
          "indexed": false,
          "internalType": "address",
          "name": "account",
          "type": "address"
        }
      ],
      "name": "Unpaused",
      "type": "event"
    },
    {
      "anonymous": false,
      "inputs": [
        {
          "indexed": true,
          "internalType": "address",
          "name": "implementation",
          "type": "address"
        }
      ],
      "name": "Upgraded",
      "type": "event"
    },
    {
      "inputs": [],
      "name": "DEFAULT_ADMIN_ROLE",
      "outputs": [
        {
          "internalType": "bytes32",
          "name": "",
          "type": "bytes32"
        }
      ],
      "stateMutability": "view",
      "type": "function"
    },
    {
      "inputs": [],
      "name": "VERIFIER_ROLE",
      "outputs": [
        {
          "internalType": "bytes32",
          "name": "",
          "type": "bytes32"
        }
      ],
      "stateMutability": "view",
      "type": "function"
    },
    {
      "inputs": [],
      "name": "VERSION",
      "outputs": [
        {
          "internalType": "string",
          "name": "",
          "type": "string"
        }
      ],
      "stateMutability": "view",
      "type": "function"
    },
    {
      "inputs": [],
      "name": "VERSION_RELEASE_CANDIDATE",
      "outputs": [
        {
          "internalType": "uint256",
          "name": "",
          "type": "uint256"
        }
      ],
      "stateMutability": "view",
      "type": "function"
    },
    {
      "inputs": [
        {
          "internalType": "uint256",
          "name": "tokenId",
          "type": "uint256"
        },
        {
          "internalType": "string",
          "name": "comment",
          "type": "string"
        }
      ],
      "name": "addComment",
      "outputs": [],
      "stateMutability": "nonpayable",
      "type": "function"
    },
    {
      "inputs": [
        {
          "internalType": "address",
          "name": "to",
          "type": "address"
        },
        {
          "internalType": "uint256",
          "name": "tokenId",
          "type": "uint256"
        }
      ],
      "name": "approve",
      "outputs": [],
      "stateMutability": "nonpayable",
      "type": "function"
    },
    {
      "inputs": [
        {
          "internalType": "address",
          "name": "owner",
          "type": "address"
        }
      ],
      "name": "balanceOf",
      "outputs": [
        {
          "internalType": "uint256",
          "name": "",
          "type": "uint256"
        }
      ],
      "stateMutability": "view",
      "type": "function"
    },
    {
      "inputs": [],
      "name": "baseURI",
      "outputs": [
        {
          "internalType": "string",
          "name": "",
          "type": "string"
        }
      ],
      "stateMutability": "view",
      "type": "function"
    },
    {
      "inputs": [],
      "name": "batchTokenCounter",
      "outputs": [
        {
          "internalType": "uint256",
          "name": "",
          "type": "uint256"
        }
      ],
      "stateMutability": "view",
      "type": "function"
    },
    {
      "inputs": [
        {
          "internalType": "uint256",
          "name": "tokenId",
          "type": "uint256"
        }
      ],
      "name": "confirmRetirement",
      "outputs": [],
      "stateMutability": "nonpayable",
      "type": "function"
    },
    {
      "inputs": [
        {
          "internalType": "uint256",
          "name": "tokenId",
          "type": "uint256"
        },
        {
          "internalType": "uint256",
          "name": "projectVintageTokenId",
          "type": "uint256"
        }
      ],
      "name": "confirmRetirementWithVintage",
      "outputs": [],
      "stateMutability": "nonpayable",
      "type": "function"
    },
    {
      "inputs": [],
      "name": "contractRegistry",
      "outputs": [
        {
          "internalType": "address",
          "name": "",
          "type": "address"
        }
      ],
      "stateMutability": "view",
      "type": "function"
    },
    {
      "inputs": [
        {
          "internalType": "uint256",
          "name": "tokenId",
          "type": "uint256"
        }
      ],
      "name": "fractionalize",
      "outputs": [],
      "stateMutability": "nonpayable",
      "type": "function"
    },
    {
      "inputs": [
        {
          "internalType": "uint256",
          "name": "tokenId",
          "type": "uint256"
        }
      ],
      "name": "getApproved",
      "outputs": [
        {
          "internalType": "address",
          "name": "",
          "type": "address"
        }
      ],
      "stateMutability": "view",
      "type": "function"
    },
    {
      "inputs": [
        {
          "internalType": "uint256",
          "name": "tokenId",
          "type": "uint256"
        }
      ],
      "name": "getBatchNFTData",
      "outputs": [
        {
          "internalType": "uint256",
          "name": "",
          "type": "uint256"
        },
        {
          "internalType": "uint256",
          "name": "",
          "type": "uint256"
        },
        {
          "internalType": "enum RetirementStatus",
          "name": "",
          "type": "uint8"
        }
      ],
      "stateMutability": "view",
      "type": "function"
    },
    {
      "inputs": [
        {
          "internalType": "uint256",
          "name": "tokenId",
          "type": "uint256"
        }
      ],
      "name": "getComments",
      "outputs": [
        {
          "internalType": "string[]",
          "name": "",
          "type": "string[]"
        },
        {
          "internalType": "address[]",
          "name": "",
          "type": "address[]"
        }
      ],
      "stateMutability": "view",
      "type": "function"
    },
    {
      "inputs": [
        {
          "internalType": "uint256",
          "name": "tokenId",
          "type": "uint256"
        }
      ],
      "name": "getConfirmationStatus",
      "outputs": [
        {
          "internalType": "enum RetirementStatus",
          "name": "",
          "type": "uint8"
        }
      ],
      "stateMutability": "view",
      "type": "function"
    },
    {
      "inputs": [
        {
          "internalType": "bytes32",
          "name": "role",
          "type": "bytes32"
        }
      ],
      "name": "getRoleAdmin",
      "outputs": [
        {
          "internalType": "bytes32",
          "name": "",
          "type": "bytes32"
        }
      ],
      "stateMutability": "view",
      "type": "function"
    },
    {
      "inputs": [
        {
          "internalType": "bytes32",
          "name": "role",
          "type": "bytes32"
        },
        {
          "internalType": "address",
          "name": "account",
          "type": "address"
        }
      ],
      "name": "grantRole",
      "outputs": [],
      "stateMutability": "nonpayable",
      "type": "function"
    },
    {
      "inputs": [
        {
          "internalType": "bytes32",
          "name": "role",
          "type": "bytes32"
        },
        {
          "internalType": "address",
          "name": "account",
          "type": "address"
        }
      ],
      "name": "hasRole",
      "outputs": [
        {
          "internalType": "bool",
          "name": "",
          "type": "bool"
        }
      ],
      "stateMutability": "view",
      "type": "function"
    },
    {
      "inputs": [
        {
          "internalType": "address",
          "name": "_contractRegistry",
          "type": "address"
        }
      ],
      "name": "initialize",
      "outputs": [],
      "stateMutability": "nonpayable",
      "type": "function"
    },
    {
      "inputs": [
        {
          "internalType": "address",
          "name": "owner",
          "type": "address"
        },
        {
          "internalType": "address",
          "name": "operator",
          "type": "address"
        }
      ],
      "name": "isApprovedForAll",
      "outputs": [
        {
          "internalType": "bool",
          "name": "",
          "type": "bool"
        }
      ],
      "stateMutability": "view",
      "type": "function"
    },
    {
      "inputs": [
        {
          "internalType": "uint256",
          "name": "tokenId",
          "type": "uint256"
        },
        {
          "internalType": "uint256",
          "name": "projectVintageTokenId",
          "type": "uint256"
        }
      ],
      "name": "linkWithVintage",
      "outputs": [],
      "stateMutability": "nonpayable",
      "type": "function"
    },
    {
      "inputs": [
        {
          "internalType": "address",
          "name": "to",
          "type": "address"
        }
      ],
      "name": "mintEmptyBatch",
      "outputs": [],
      "stateMutability": "nonpayable",
      "type": "function"
    },
    {
      "inputs": [],
      "name": "name",
      "outputs": [
        {
          "internalType": "string",
          "name": "",
          "type": "string"
        }
      ],
      "stateMutability": "view",
      "type": "function"
    },
    {
      "inputs": [
        {
          "internalType": "uint256",
          "name": "",
          "type": "uint256"
        }
      ],
      "name": "nftList",
      "outputs": [
        {
          "internalType": "uint256",
          "name": "projectVintageTokenId",
          "type": "uint256"
        },
        {
          "internalType": "string",
          "name": "serialNumber",
          "type": "string"
        },
        {
          "internalType": "uint256",
          "name": "quantity",
          "type": "uint256"
        },
        {
          "internalType": "enum RetirementStatus",
          "name": "status",
          "type": "uint8"
        },
        {
          "internalType": "string",
          "name": "uri",
          "type": "string"
        }
      ],
      "stateMutability": "view",
      "type": "function"
    },
    {
      "inputs": [],
      "name": "owner",
      "outputs": [
        {
          "internalType": "address",
          "name": "",
          "type": "address"
        }
      ],
      "stateMutability": "view",
      "type": "function"
    },
    {
      "inputs": [
        {
          "internalType": "uint256",
          "name": "tokenId",
          "type": "uint256"
        }
      ],
      "name": "ownerOf",
      "outputs": [
        {
          "internalType": "address",
          "name": "",
          "type": "address"
        }
      ],
      "stateMutability": "view",
      "type": "function"
    },
    {
      "inputs": [],
      "name": "pause",
      "outputs": [],
      "stateMutability": "nonpayable",
      "type": "function"
    },
    {
      "inputs": [],
      "name": "paused",
      "outputs": [
        {
          "internalType": "bool",
          "name": "",
          "type": "bool"
        }
      ],
      "stateMutability": "view",
      "type": "function"
    },
    {
      "inputs": [],
      "name": "proxiableUUID",
      "outputs": [
        {
          "internalType": "bytes32",
          "name": "",
          "type": "bytes32"
        }
      ],
      "stateMutability": "view",
      "type": "function"
    },
    {
      "inputs": [
        {
          "internalType": "uint256",
          "name": "tokenId",
          "type": "uint256"
        },
        {
          "internalType": "string",
          "name": "comment",
          "type": "string"
        }
      ],
      "name": "rejectApprovedWithComment",
      "outputs": [],
      "stateMutability": "nonpayable",
      "type": "function"
    },
    {
      "inputs": [
        {
          "internalType": "uint256",
          "name": "tokenId",
          "type": "uint256"
        }
      ],
      "name": "rejectRetirement",
      "outputs": [],
      "stateMutability": "nonpayable",
      "type": "function"
    },
    {
      "inputs": [
        {
          "internalType": "uint256",
          "name": "tokenId",
          "type": "uint256"
        },
        {
          "internalType": "string",
          "name": "comment",
          "type": "string"
        }
      ],
      "name": "rejectWithComment",
      "outputs": [],
      "stateMutability": "nonpayable",
      "type": "function"
    },
    {
      "inputs": [],
      "name": "renounceOwnership",
      "outputs": [],
      "stateMutability": "nonpayable",
      "type": "function"
    },
    {
      "inputs": [
        {
          "internalType": "bytes32",
          "name": "role",
          "type": "bytes32"
        },
        {
          "internalType": "address",
          "name": "account",
          "type": "address"
        }
      ],
      "name": "renounceRole",
      "outputs": [],
      "stateMutability": "nonpayable",
      "type": "function"
    },
    {
      "inputs": [
        {
          "internalType": "bytes32",
          "name": "role",
          "type": "bytes32"
        },
        {
          "internalType": "address",
          "name": "account",
          "type": "address"
        }
      ],
      "name": "revokeRole",
      "outputs": [],
      "stateMutability": "nonpayable",
      "type": "function"
    },
    {
      "inputs": [
        {
          "internalType": "address",
          "name": "from",
          "type": "address"
        },
        {
          "internalType": "address",
          "name": "to",
          "type": "address"
        },
        {
          "internalType": "uint256",
          "name": "tokenId",
          "type": "uint256"
        }
      ],
      "name": "safeTransferFrom",
      "outputs": [],
      "stateMutability": "nonpayable",
      "type": "function"
    },
    {
      "inputs": [
        {
          "internalType": "address",
          "name": "from",
          "type": "address"
        },
        {
          "internalType": "address",
          "name": "to",
          "type": "address"
        },
        {
          "internalType": "uint256",
          "name": "tokenId",
          "type": "uint256"
        },
        {
          "internalType": "bytes",
          "name": "_data",
          "type": "bytes"
        }
      ],
      "name": "safeTransferFrom",
      "outputs": [],
      "stateMutability": "nonpayable",
      "type": "function"
    },
    {
      "inputs": [
        {
          "internalType": "string",
          "name": "",
          "type": "string"
        }
      ],
      "name": "serialNumberApproved",
      "outputs": [
        {
          "internalType": "bool",
          "name": "",
          "type": "bool"
        }
      ],
      "stateMutability": "view",
      "type": "function"
    },
    {
      "inputs": [
        {
          "internalType": "address",
          "name": "operator",
          "type": "address"
        },
        {
          "internalType": "bool",
          "name": "approved",
          "type": "bool"
        }
      ],
      "name": "setApprovalForAll",
      "outputs": [],
      "stateMutability": "nonpayable",
      "type": "function"
    },
    {
      "inputs": [
        {
          "internalType": "string",
          "name": "gateway",
          "type": "string"
        }
      ],
      "name": "setBaseURI",
      "outputs": [],
      "stateMutability": "nonpayable",
      "type": "function"
    },
    {
      "inputs": [
        {
          "internalType": "uint256",
          "name": "tokenId",
          "type": "uint256"
        },
        {
          "internalType": "string",
          "name": "newSerialNumber",
          "type": "string"
        },
        {
          "internalType": "uint256",
          "name": "newQuantity",
          "type": "uint256"
        }
      ],
      "name": "setSerialandQuantity",
      "outputs": [],
      "stateMutability": "nonpayable",
      "type": "function"
    },
    {
      "inputs": [
        {
          "internalType": "uint256",
          "name": "tokenId",
          "type": "uint256"
        }
      ],
      "name": "setToPending",
      "outputs": [],
      "stateMutability": "nonpayable",
      "type": "function"
    },
    {
      "inputs": [
        {
          "internalType": "address",
          "name": "_address",
          "type": "address"
        }
      ],
      "name": "setToucanContractRegistry",
      "outputs": [],
      "stateMutability": "nonpayable",
      "type": "function"
    },
    {
      "inputs": [
        {
          "internalType": "bytes4",
          "name": "interfaceId",
          "type": "bytes4"
        }
      ],
      "name": "supportsInterface",
      "outputs": [
        {
          "internalType": "bool",
          "name": "",
          "type": "bool"
        }
      ],
      "stateMutability": "view",
      "type": "function"
    },
    {
      "inputs": [],
      "name": "symbol",
      "outputs": [
        {
          "internalType": "string",
          "name": "",
          "type": "string"
        }
      ],
      "stateMutability": "view",
      "type": "function"
    },
    {
      "inputs": [
        {
          "internalType": "uint256",
          "name": "index",
          "type": "uint256"
        }
      ],
      "name": "tokenByIndex",
      "outputs": [
        {
          "internalType": "uint256",
          "name": "",
          "type": "uint256"
        }
      ],
      "stateMutability": "view",
      "type": "function"
    },
    {
      "inputs": [
        {
          "internalType": "address",
          "name": "owner",
          "type": "address"
        },
        {
          "internalType": "uint256",
          "name": "index",
          "type": "uint256"
        }
      ],
      "name": "tokenOfOwnerByIndex",
      "outputs": [
        {
          "internalType": "uint256",
          "name": "",
          "type": "uint256"
        }
      ],
      "stateMutability": "view",
      "type": "function"
    },
    {
      "inputs": [
        {
          "internalType": "uint256",
          "name": "tokenId",
          "type": "uint256"
        }
      ],
      "name": "tokenURI",
      "outputs": [
        {
          "internalType": "string",
          "name": "",
          "type": "string"
        }
      ],
      "stateMutability": "view",
      "type": "function"
    },
    {
      "inputs": [
        {
          "internalType": "address",
          "name": "to",
          "type": "address"
        },
        {
          "internalType": "string",
          "name": "serialNumber",
          "type": "string"
        },
        {
          "internalType": "uint256",
          "name": "quantity",
          "type": "uint256"
        },
        {
          "internalType": "string",
          "name": "uri",
          "type": "string"
        },
        {
          "internalType": "uint256",
          "name": "projectVintageTokenId",
          "type": "uint256"
        }
      ],
      "name": "tokenize",
      "outputs": [],
      "stateMutability": "nonpayable",
      "type": "function"
    },
    {
      "inputs": [],
      "name": "totalSupply",
      "outputs": [
        {
          "internalType": "uint256",
          "name": "",
          "type": "uint256"
        }
      ],
      "stateMutability": "view",
      "type": "function"
    },
    {
      "inputs": [
        {
          "internalType": "address",
          "name": "from",
          "type": "address"
        },
        {
          "internalType": "address",
          "name": "to",
          "type": "address"
        },
        {
          "internalType": "uint256",
          "name": "tokenId",
          "type": "uint256"
        }
      ],
      "name": "transferFrom",
      "outputs": [],
      "stateMutability": "nonpayable",
      "type": "function"
    },
    {
      "inputs": [
        {
          "internalType": "address",
          "name": "newOwner",
          "type": "address"
        }
      ],
      "name": "transferOwnership",
      "outputs": [],
      "stateMutability": "nonpayable",
      "type": "function"
    },
    {
      "inputs": [],
      "name": "unpause",
      "outputs": [],
      "stateMutability": "nonpayable",
      "type": "function"
    },
    {
      "inputs": [
        {
          "internalType": "string",
          "name": "serialNumber",
          "type": "string"
        }
      ],
      "name": "unsetSerialNumber",
      "outputs": [],
      "stateMutability": "nonpayable",
      "type": "function"
    },
    {
      "inputs": [
        {
          "internalType": "uint256",
          "name": "tokenId",
          "type": "uint256"
        },
        {
          "internalType": "string",
          "name": "serialNumber",
          "type": "string"
        },
        {
          "internalType": "uint256",
          "name": "quantity",
          "type": "uint256"
        },
        {
          "internalType": "string",
          "name": "uri",
          "type": "string"
        }
      ],
      "name": "updateBatchWithData",
      "outputs": [],
      "stateMutability": "nonpayable",
      "type": "function"
    },
    {
      "inputs": [
        {
          "internalType": "address",
          "name": "newImplementation",
          "type": "address"
        }
      ],
      "name": "upgradeTo",
      "outputs": [],
      "stateMutability": "nonpayable",
      "type": "function"
    },
    {
      "inputs": [
        {
          "internalType": "address",
          "name": "newImplementation",
          "type": "address"
        },
        {
          "internalType": "bytes",
          "name": "data",
          "type": "bytes"
        }
      ],
      "name": "upgradeToAndCall",
      "outputs": [],
      "stateMutability": "payable",
      "type": "function"
    },
    {
      "inputs": [
        {
          "internalType": "address",
          "name": "",
          "type": "address"
        }
      ],
      "name": "verifiers",
      "outputs": [
        {
          "internalType": "bool",
          "name": "",
          "type": "bool"
        }
      ],
      "stateMutability": "view",
      "type": "function"
    }
  ],
  "numDeployments": 3,
  "solcInputHash": "d3b221b0ff22ef1857ba81324a4c12bf",
  "bytecode": "0x60a0604052306080523480156200001557600080fd5b506200002062000026565b62000156565b6200003260ff62000035565b50565b60008054610100900460ff1615620000ce578160ff1660011480156200006e57506200006c306200014760201b620028ca1760201c565b155b620000c65760405162461bcd60e51b815260206004820152602e6024820152600080516020620054d083398151915260448201526d191e481a5b9a5d1a585b1a5e995960921b60648201526084015b60405180910390fd5b506000919050565b60005460ff8084169116106200012d5760405162461bcd60e51b815260206004820152602e6024820152600080516020620054d083398151915260448201526d191e481a5b9a5d1a585b1a5e995960921b6064820152608401620000bd565b506000805460ff191660ff92909216919091179055600190565b6001600160a01b03163b151590565b6080516153426200018e600039600081816112c8015281816113080152818161157e015281816115be01526117cb01526153426000f3fe6080604052600436106103975760003560e01c80636ca0b0d7116101dc578063b305702511610102578063d547741f116100a0578063e985e9c51161006f578063e985e9c514610b05578063f2fde38b14610b4e578063ffa1ad7414610b6e578063ffd8e71a14610b9f57600080fd5b8063d547741f14610a53578063dff35e8314610a73578063e7705db614610ac3578063e882e37b14610ae557600080fd5b8063c4d66de8116100dc578063c4d66de8146109d3578063c8694d12146109f3578063c87b56dd14610a13578063d22c8ddc14610a3357600080fd5b8063b30570251461097c578063b722e53314610993578063b88d4fde146109b357600080fd5b80638da5cb5b1161017a578063a22cb46511610149578063a22cb465146108fb578063a5c659631461091b578063aa7e56831461093b578063abf410e51461095b57600080fd5b80638da5cb5b1461089357806391d14854146108b157806395d89b41146108d1578063a217fddf146108e657600080fd5b8063722e4baf116101b6578063722e4baf1461080d57806375bea1661461082d5780638456cb591461085e5780638a6166f01461087357600080fd5b80636ca0b0d7146107c357806370a08231146107d8578063715018a6146107f857600080fd5b806336568abe116102c15780634f8a317c1161025f5780635e9fae131161022e5780635e9fae131461073d5780636352211e1461075d5780636c0360eb1461077d5780636c8244871461079257600080fd5b80634f8a317c146106d057806352d1902d146106f057806355f804b3146107055780635c975abb1461072557600080fd5b80633f4ba83a1161029b5780633f4ba83a1461066857806342842e0e1461067d5780634f1ef2861461069d5780634f6ccce7146106b057600080fd5b806336568abe146106085780633659cfe6146106285780633b2b203e1461064857600080fd5b80631cf52f9c116103395780632f2ff15d116103085780632f2ff15d1461056c5780632f745c591461058c57806334844b42146105ac578063362ab1b9146105e857600080fd5b80631cf52f9c146104cd57806323b872dd146104ed57806323edf6971461050d578063248a9ca31461053b57600080fd5b8063095ea7b311610375578063095ea7b31461042b5780630c634e671461044d5780630f979c281461046d57806318160ddd146104ae57600080fd5b806301ffc9a71461039c57806306fdde03146103d1578063081812fc146103f3575b600080fd5b3480156103a857600080fd5b506103bc6103b7366004614409565b610bbf565b60405190151581526020015b60405180910390f35b3480156103dd57600080fd5b506103e6610bea565b6040516103c8919061447e565b3480156103ff57600080fd5b5061041361040e366004614491565b610c7c565b6040516001600160a01b0390911681526020016103c8565b34801561043757600080fd5b5061044b6104463660046144bf565b610cc8565b005b34801561045957600080fd5b5061044b6104683660046144eb565b610ddd565b34801561047957600080fd5b506104a1610488366004614491565b60009081526101c9602052604090206003015460ff1690565b6040516103c89190614545565b3480156104ba57600080fd5b506099545b6040519081526020016103c8565b3480156104d957600080fd5b5061044b6104e83660046144eb565b610e42565b3480156104f957600080fd5b5061044b610508366004614553565b610f89565b34801561051957600080fd5b5061052d610528366004614491565b610fcb565b6040516103c8929190614594565b34801561054757600080fd5b506104bf610556366004614491565b600090815261012d602052604090206001015490565b34801561057857600080fd5b5061044b610587366004614638565b61111e565b34801561059857600080fd5b506104bf6105a73660046144bf565b611144565b3480156105b857600080fd5b506103bc6105c736600461470b565b80516020818301810180516101c48252928201919093012091525460ff1681565b3480156105f457600080fd5b5061044b61060336600461470b565b6111da565b34801561061457600080fd5b5061044b610623366004614638565b611244565b34801561063457600080fd5b5061044b610643366004614740565b6112be565b34801561065457600080fd5b5061044b61066336600461475d565b61139d565b34801561067457600080fd5b5061044b611512565b34801561068957600080fd5b5061044b610698366004614553565b610fb0565b61044b6106ab3660046147ad565b611574565b3480156106bc57600080fd5b506104bf6106cb366004614491565b611640565b3480156106dc57600080fd5b5061044b6106eb366004614491565b6116d3565b3480156106fc57600080fd5b506104bf6117be565b34801561071157600080fd5b5061044b61072036600461470b565b611871565b34801561073157600080fd5b5060fb5460ff166103bc565b34801561074957600080fd5b5061044b6107583660046147fd565b6118af565b34801561076957600080fd5b50610413610778366004614491565b611932565b34801561078957600080fd5b506103e66119a9565b34801561079e57600080fd5b506103bc6107ad366004614740565b6101c66020526000908152604090205460ff1681565b3480156107cf57600080fd5b506104bf600181565b3480156107e457600080fd5b506104bf6107f3366004614740565b611a38565b34801561080457600080fd5b5061044b611abf565b34801561081957600080fd5b5061044b610828366004614491565b611af5565b34801561083957600080fd5b5061084d610848366004614491565b611c26565b6040516103c8959493929190614874565b34801561086a57600080fd5b5061044b611d6e565b34801561087f57600080fd5b5061044b61088e3660046148be565b611dd0565b34801561089f57600080fd5b5060c9546001600160a01b0316610413565b3480156108bd57600080fd5b506103bc6108cc366004614638565b611f9e565b3480156108dd57600080fd5b506103e6611fca565b3480156108f257600080fd5b506104bf600081565b34801561090757600080fd5b5061044b6109163660046148fd565b611fd9565b34801561092757600080fd5b5061044b610936366004614740565b611fe4565b34801561094757600080fd5b5061044b6109563660046148be565b61207f565b34801561096757600080fd5b506101c854610413906001600160a01b031681565b34801561098857600080fd5b506104bf6101c35481565b34801561099f57600080fd5b5061044b6109ae366004614491565b612252565b3480156109bf57600080fd5b5061044b6109ce36600461492b565b61237c565b3480156109df57600080fd5b5061044b6109ee366004614740565b6123ae565b3480156109ff57600080fd5b5061044b610a0e3660046148be565b612497565b348015610a1f57600080fd5b506103e6610a2e366004614491565b6124f7565b348015610a3f57600080fd5b5061044b610a4e366004614491565b612664565b348015610a5f57600080fd5b5061044b610a6e366004614638565b6126c4565b348015610a7f57600080fd5b50610ab4610a8e366004614491565b60009081526101c96020526040902080546002820154600390920154909260ff90911690565b6040516103c89392919061498b565b348015610acf57600080fd5b506104bf6000805160206152ed83398151915281565b348015610af157600080fd5b5061044b610b00366004614740565b6126ea565b348015610b1157600080fd5b506103bc610b203660046149a6565b6001600160a01b039182166000908152606a6020908152604080832093909416825291909152205460ff1690565b348015610b5a57600080fd5b5061044b610b69366004614740565b612737565b348015610b7a57600080fd5b506103e6604051806040016040528060058152602001640312e332e360dc1b81525081565b348015610bab57600080fd5b5061044b610bba366004614a1d565b6127cf565b60006001600160e01b03198216637965db0b60e01b1480610be45750610be4826128d9565b92915050565b606060658054610bf990614ab2565b80601f0160208091040260200160405190810160405280929190818152602001828054610c2590614ab2565b8015610c725780601f10610c4757610100808354040283529160200191610c72565b820191906000526020600020905b815481529060010190602001808311610c5557829003601f168201915b5050505050905090565b6000610c8782612929565b610cac5760405162461bcd60e51b8152600401610ca390614aec565b60405180910390fd5b506000908152606960205260409020546001600160a01b031690565b6000610cd382611932565b9050806001600160a01b0316836001600160a01b031603610d405760405162461bcd60e51b815260206004820152602160248201527f4552433732313a20617070726f76616c20746f2063757272656e74206f776e656044820152603960f91b6064820152608401610ca3565b336001600160a01b0382161480610d5c5750610d5c8133610b20565b610dce5760405162461bcd60e51b815260206004820152603860248201527f4552433732313a20617070726f76652063616c6c6572206973206e6f74206f7760448201527f6e6572206e6f7220617070726f76656420666f7220616c6c00000000000000006064820152608401610ca3565b610dd88383612946565b505050565b610df56000805160206152ed83398151915233611f9e565b610e115760405162461bcd60e51b8152600401610ca390614b38565b60fb5460ff1615610e345760405162461bcd60e51b8152600401610ca390614b79565b610e3e82826129b4565b5050565b610e5a6000805160206152ed83398151915233611f9e565b610e765760405162461bcd60e51b8152600401610ca390614b38565b60fb5460ff1615610e995760405162461bcd60e51b8152600401610ca390614b79565b600260008381526101c9602052604090206003015460ff166002811115610ec257610ec261450d565b03610edf5760405162461bcd60e51b8152600401610ca390614ba3565b60008281526101c9602052604090205415610f765760405162461bcd60e51b815260206004820152604b60248201527f56696e7461676520697320616c72656164792073657420616e642063616e6e6f60448201527f74206265206368616e6765643b2075736520636f6e6669726d5265746972656d60648201526a195b9d081a5b9cdd19585960aa1b608482015260a401610ca3565b610f8082826129b4565b610e3e82612a14565b610f94335b82612b9c565b610fb05760405162461bcd60e51b8152600401610ca390614be8565b610dd88383836040518060200160405280600081525061237c565b60008181526101c96020908152604080832060058101805483518186028101860190945280845260609586959294600690940193928592919084015b828210156110b357838290600052602060002001805461102690614ab2565b80601f016020809104026020016040519081016040528092919081815260200182805461105290614ab2565b801561109f5780601f106110745761010080835404028352916020019161109f565b820191906000526020600020905b81548152906001019060200180831161108257829003601f168201915b505050505081526020019060010190611007565b5050505091508080548060200260200160405190810160405280929190818152602001828054801561110e57602002820191906000526020600020905b81546001600160a01b031681526001909101906020018083116110f0575b5050505050905091509150915091565b600082815261012d602052604090206001015461113a81612c85565b610dd88383612c8f565b600061114f83611a38565b82106111b15760405162461bcd60e51b815260206004820152602b60248201527f455243373231456e756d657261626c653a206f776e657220696e646578206f7560448201526a74206f6620626f756e647360a81b6064820152608401610ca3565b506001600160a01b03919091166000908152609760209081526040808320938352929052205490565b6111f26000805160206152ed83398151915233611f9e565b61120e5760405162461bcd60e51b8152600401610ca390614b38565b60006101c4826040516112219190614c39565b908152604051908190036020019020805491151560ff1990921691909117905550565b6001600160a01b03811633146112b45760405162461bcd60e51b815260206004820152602f60248201527f416363657373436f6e74726f6c3a2063616e206f6e6c792072656e6f756e636560448201526e103937b632b9903337b91039b2b63360891b6064820152608401610ca3565b610e3e8282612d16565b6001600160a01b037f00000000000000000000000000000000000000000000000000000000000000001630036113065760405162461bcd60e51b8152600401610ca390614c55565b7f00000000000000000000000000000000000000000000000000000000000000006001600160a01b031661134f600080516020615280833981519152546001600160a01b031690565b6001600160a01b0316146113755760405162461bcd60e51b8152600401610ca390614ca1565b61137e81612d7e565b6040805160008082526020820190925261139a91839190612da8565b50565b60fb5460ff16156113c05760405162461bcd60e51b8152600401610ca390614b79565b336113ca84611932565b6001600160a01b031614806113f257506113f26000805160206152ed83398151915233611f9e565b61140e5760405162461bcd60e51b8152600401610ca390614ced565b600260008481526101c9602052604090206003015460ff1660028111156114375761143761450d565b036114545760405162461bcd60e51b8152600401610ca390614d34565b6101c4826040516114659190614c39565b9081526040519081900360200190205460ff16156114955760405162461bcd60e51b8152600401610ca390614d80565b60008381526101c96020908152604090912083516114bb9260019092019185019061435a565b5060008381526101c9602052604090819020600201829055517fd680d89587cd5af07a9a0280107488c8b2db5f86aec57b869f0933fb4a99c05b9061150590859085908590614dc6565b60405180910390a1505050565b6101c8546001600160a01b031661153160c9546001600160a01b031690565b6001600160a01b03821633148061155057506001600160a01b03811633145b61156c5760405162461bcd60e51b8152600401610ca390614def565b610e3e612f13565b6001600160a01b037f00000000000000000000000000000000000000000000000000000000000000001630036115bc5760405162461bcd60e51b8152600401610ca390614c55565b7f00000000000000000000000000000000000000000000000000000000000000006001600160a01b0316611605600080516020615280833981519152546001600160a01b031690565b6001600160a01b03161461162b5760405162461bcd60e51b8152600401610ca390614ca1565b61163482612d7e565b610e3e82826001612da8565b600061164b60995490565b82106116ae5760405162461bcd60e51b815260206004820152602c60248201527f455243373231456e756d657261626c653a20676c6f62616c20696e646578206f60448201526b7574206f6620626f756e647360a01b6064820152608401610ca3565b609982815481106116c1576116c1614e34565b90600052602060002001549050919050565b6116eb6000805160206152ed83398151915233611f9e565b6117075760405162461bcd60e51b8152600401610ca390614b38565b60fb5460ff161561172a5760405162461bcd60e51b8152600401610ca390614b79565b600160008281526101c9602052604090206003015460ff1660028111156117535761175361450d565b146117b35760405162461bcd60e51b815260206004820152602a60248201527f43616e206f6e6c792072657365742072656a6563746564206261746368657320604482015269746f2070656e64696e6760b01b6064820152608401610ca3565b61139a816000612fa6565b6000306001600160a01b037f0000000000000000000000000000000000000000000000000000000000000000161461185e5760405162461bcd60e51b815260206004820152603860248201527f555550535570677261646561626c653a206d757374206e6f742062652063616c60448201527f6c6564207468726f7567682064656c656761746563616c6c00000000000000006064820152608401610ca3565b5060008051602061528083398151915290565b60c9546001600160a01b0316331461189b5760405162461bcd60e51b8152600401610ca390614e4a565b8051610e3e906101c790602084019061435a565b60fb5460ff16156118d25760405162461bcd60e51b8152600401610ca390614b79565b336118dc85611932565b6001600160a01b0316148061190457506119046000805160206152ed83398151915233611f9e565b6119205760405162461bcd60e51b8152600401610ca390614ced565b61192c8484848461300b565b50505050565b6000818152606760205260408120546001600160a01b031680610be45760405162461bcd60e51b815260206004820152602960248201527f4552433732313a206f776e657220717565727920666f72206e6f6e657869737460448201526832b73a103a37b5b2b760b91b6064820152608401610ca3565b6101c780546119b790614ab2565b80601f01602080910402602001604051908101604052809291908181526020018280546119e390614ab2565b8015611a305780601f10611a0557610100808354040283529160200191611a30565b820191906000526020600020905b815481529060010190602001808311611a1357829003601f168201915b505050505081565b60006001600160a01b038216611aa35760405162461bcd60e51b815260206004820152602a60248201527f4552433732313a2062616c616e636520717565727920666f7220746865207a65604482015269726f206164647265737360b01b6064820152608401610ca3565b506001600160a01b031660009081526068602052604090205490565b60c9546001600160a01b03163314611ae95760405162461bcd60e51b8152600401610ca390614e4a565b611af360006131f9565b565b611b0d6000805160206152ed83398151915233611f9e565b611b295760405162461bcd60e51b8152600401610ca390614b38565b60fb5460ff1615611b4c5760405162461bcd60e51b8152600401610ca390614b79565b60008181526101c9602052604081206003015460ff166002811115611b7357611b7361450d565b14611bd65760405162461bcd60e51b815260206004820152602d60248201527f4261746368206d75737420626520696e2070656e64696e67207374617465207460448201526c1bc81899481c995a9958dd1959609a1b6064820152608401610ca3565b60008181526101c9602052604080822090516101c491611bfb91600190910190614e7f565b908152604051908190036020019020805491151560ff1990921691909117905561139a816001612fa6565b6101c96020526000908152604090208054600182018054919291611c4990614ab2565b80601f0160208091040260200160405190810160405280929190818152602001828054611c7590614ab2565b8015611cc25780601f10611c9757610100808354040283529160200191611cc2565b820191906000526020600020905b815481529060010190602001808311611ca557829003601f168201915b50505050600283015460038401546004850180549495929460ff909216935090611ceb90614ab2565b80601f0160208091040260200160405190810160405280929190818152602001828054611d1790614ab2565b8015611d645780601f10611d3957610100808354040283529160200191611d64565b820191906000526020600020905b815481529060010190602001808311611d4757829003601f168201915b5050505050905085565b6101c8546001600160a01b0316611d8d60c9546001600160a01b031690565b6001600160a01b038216331480611dac57506001600160a01b03811633145b611dc85760405162461bcd60e51b8152600401610ca390614def565b610e3e61324b565b60c9546001600160a01b03163314611dfa5760405162461bcd60e51b8152600401610ca390614e4a565b60fb5460ff1615611e1d5760405162461bcd60e51b8152600401610ca390614b79565b600260008381526101c9602052604090206003015460ff166002811115611e4657611e4661450d565b14611eab5760405162461bcd60e51b815260206004820152602f60248201527f4261746368206d75737420626520696e20636f6e6669726d656420737461746560448201526e081d1bc81899481c995a9958dd1959608a1b6064820152608401610ca3565b6101c8546001600160a01b031663787d8713611ec684611932565b6040516001600160e01b031960e084901b1681526001600160a01b039091166004820152602401602060405180830381865afa158015611f0a573d6000803e3d6000fd5b505050506040513d601f19601f82011682018060405250810190611f2e9190614f1a565b15611f895760405162461bcd60e51b815260206004820152602560248201527f42617463682068617320616c7265616479206265656e206672616374696f6e616044820152641b1a5e995960da1b6064820152608401610ca3565b611f94826001612fa6565b610e3e828261207f565b600091825261012d602090815260408084206001600160a01b0393909316845291905290205460ff1690565b606060668054610bf990614ab2565b610e3e3383836132a3565b60fb5460ff16156120075760405162461bcd60e51b8152600401610ca390614b79565b6101c380546001019081905561201d8282613371565b60008181526101c96020908152604091829020600301805460ff1916905581516001600160a01b03851681529081018390527f6174e73d7eb2fee6c482f87f81961b83cfa577f50c963bd1516f282497260fcd91015b60405180910390a15050565b6120976000805160206152ed83398151915233611f9e565b806120bb57506120a682611932565b6001600160a01b0316336001600160a01b0316145b806120d0575060c9546001600160a01b031633145b6121425760405162461bcd60e51b815260206004820152603e60248201527f4f6e6c7920746865206261746368206f776e65722c20636f6e7472616374206f60448201527f776e657220616e64207665726966696572732063616e20636f6d6d656e7400006064820152608401610ca3565b61214b82612929565b6121a35760405162461bcd60e51b8152602060048201526024808201527f43616e6e6f7420636f6d6d656e74206f6e206e6f6e2d6578697374656e7420626044820152630c2e8c6d60e31b6064820152608401610ca3565b60008281526101c960209081526040822060050180546001810182559083529181902083516121d993919091019184019061435a565b5060008281526101c96020908152604080832060068101805460018101825590855292842090920180546001600160a01b031916339081179091559285905260059091015490517f08740f41d4d7e855ea188e78846ad3e8665dd6d0b088f899025991c1ee8c2c47926120739286929091908690614f37565b61225b33610f8e565b6122775760405162461bcd60e51b8152600401610ca390614be8565b6101c854604080516308cca7e360e01b815290516000926001600160a01b0316916308cca7e39160048083019260209291908290030181865afa1580156122c2573d6000803e3d6000fd5b505050506040513d601f19601f820116820180604052508101906122e69190614f6e565b60008381526101c960205260408082205490516317a04f4f60e21b815260048101829052929350916001600160a01b03841690635e813d3c90602401602060405180830381865afa15801561233f573d6000803e3d6000fd5b505050506040513d601f19601f820116820180604052508101906123639190614f6e565b905061192c338286604051806020016040528060008152505b6123863383612b9c565b6123a25760405162461bcd60e51b8152600401610ca390614be8565b61192c8484848461338b565b60006123ba60016133be565b905080156123d2576000805461ff0019166101001790555b6123da613446565b61241e6040518060600160405280602681526020016152c7602691396040518060400160405280600a8152602001692a27aaa1a0a716a1a7a160b11b81525061346d565b6124266134bb565b61242e6134eb565b6101c880546001600160a01b0319166001600160a01b038416179055612455600033612c8f565b8015610e3e576000805461ff0019169055604051600181527f7f26b83ff96e1f2b6a682f133852f6798a09c465da95921460cefb384740249890602001612073565b6124af6000805160206152ed83398151915233611f9e565b6124cb5760405162461bcd60e51b8152600401610ca390614b38565b60fb5460ff16156124ee5760405162461bcd60e51b8152600401610ca390614b79565b611f9482611af5565b606061250282612929565b6125685760405162461bcd60e51b815260206004820152603160248201527f45524337323155524953746f726167653a2055524920717565727920666f72206044820152703737b732bc34b9ba32b73a103a37b5b2b760791b6064820152608401610ca3565b60008281526101c960205260408120600401805461258590614ab2565b80601f01602080910402602001604051908101604052809291908181526020018280546125b190614ab2565b80156125fe5780601f106125d3576101008083540402835291602001916125fe565b820191906000526020600020905b8154815290600101906020018083116125e157829003601f168201915b50505050509050600061260f61351e565b90508051600003612621575092915050565b81511561265357808260405160200161263b929190614f8b565b60405160208183030381529060405292505050919050565b61265c8461352e565b949350505050565b61267c6000805160206152ed83398151915233611f9e565b6126985760405162461bcd60e51b8152600401610ca390614b38565b60fb5460ff16156126bb5760405162461bcd60e51b8152600401610ca390614b79565b61139a81612a14565b600082815261012d60205260409020600101546126e081612c85565b610dd88383612d16565b60c9546001600160a01b031633146127145760405162461bcd60e51b8152600401610ca390614e4a565b6101c880546001600160a01b0319166001600160a01b0392909216919091179055565b60c9546001600160a01b031633146127615760405162461bcd60e51b8152600401610ca390614e4a565b6001600160a01b0381166127c65760405162461bcd60e51b815260206004820152602660248201527f4f776e61626c653a206e6577206f776e657220697320746865207a65726f206160448201526564647265737360d01b6064820152608401610ca3565b61139a816131f9565b6127e76000805160206152ed83398151915233611f9e565b6128035760405162461bcd60e51b8152600401610ca390614b38565b60fb5460ff16156128265760405162461bcd60e51b8152600401610ca390614b79565b61282f87611fe4565b6128a86101c35487878080601f01602080910402602001604051908101604052809392919081815260200183838082843760009201919091525050604080516020601f8a018190048102820181019092528881528a93509150889088908190840183828082843760009201919091525061300b92505050565b6128b56101c354826129b4565b6128c16101c354612a14565b50505050505050565b6001600160a01b03163b151590565b60006001600160e01b031982166380ac58cd60e01b148061290a57506001600160e01b03198216635b5e139f60e01b145b80610be457506301ffc9a760e01b6001600160e01b0319831614610be4565b6000908152606760205260409020546001600160a01b0316151590565b600081815260696020526040902080546001600160a01b0319166001600160a01b038416908117909155819061297b82611932565b6001600160a01b03167f8c5be1e5ebec7d5bd14f71427d1e84f3dd0314c0f7b2291e5b200ac8c7c3b92560405160405180910390a45050565b6101c8546129cb906001600160a01b0316826135f9565b60008281526101c9602090815260409182902083905581518481529081018390527fe16bc7d72176e78ab56068f816d35b70dfcb41bb492ca0da0bcfc064b2439f6c9101612073565b612a1d81612929565b612a395760405162461bcd60e51b8152600401610ca390614aec565b600260008281526101c9602052604090206003015460ff166002811115612a6257612a6261450d565b03612a7f5760405162461bcd60e51b8152600401610ca390614ba3565b60008181526101c960205260408120549003612af15760405162461bcd60e51b815260206004820152602b60248201527f43616e6e6f742072657469726520626174636820776974686f75742070726f6a60448201526a6563742076696e7461676560a81b6064820152608401610ca3565b6101c46101c96000838152602001908152602001600020600101604051612b189190614e7f565b9081526040519081900360200190205460ff1615612b485760405162461bcd60e51b8152600401610ca390614d80565b60016101c46101c96000848152602001908152602001600020600101604051612b719190614e7f565b908152604051908190036020019020805491151560ff1990921691909117905561139a816002612fa6565b6000612ba782612929565b612c085760405162461bcd60e51b815260206004820152602c60248201527f4552433732313a206f70657261746f7220717565727920666f72206e6f6e657860448201526b34b9ba32b73a103a37b5b2b760a11b6064820152608401610ca3565b6000612c1383611932565b9050806001600160a01b0316846001600160a01b03161480612c5a57506001600160a01b038082166000908152606a602090815260408083209388168352929052205460ff165b8061265c5750836001600160a01b0316612c7384610c7c565b6001600160a01b031614949350505050565b61139a8133613727565b612c998282611f9e565b610e3e57600082815261012d602090815260408083206001600160a01b03851684529091529020805460ff19166001179055612cd23390565b6001600160a01b0316816001600160a01b0316837f2f8788117e7eff1d82e926ec794901d17c78024a50270940304540a733656f0d60405160405180910390a45050565b612d208282611f9e565b15610e3e57600082815261012d602090815260408083206001600160a01b0385168085529252808320805460ff1916905551339285917ff6391f5c32d9c69d2a47ea670b442974b53935d1edc7fd64eb21e047a839171b9190a45050565b60c9546001600160a01b0316331461139a5760405162461bcd60e51b8152600401610ca390614e4a565b7f4910fdfa16fed3260ed0e7147f7cc6da11a60208b5b9406d12a635614ffd91435460ff1615612ddb57610dd88361378b565b826001600160a01b03166352d1902d6040518163ffffffff1660e01b8152600401602060405180830381865afa925050508015612e35575060408051601f3d908101601f19168201909252612e3291810190614fba565b60015b612e985760405162461bcd60e51b815260206004820152602e60248201527f45524331393637557067726164653a206e657720696d706c656d656e7461746960448201526d6f6e206973206e6f74205555505360901b6064820152608401610ca3565b6000805160206152808339815191528114612f075760405162461bcd60e51b815260206004820152602960248201527f45524331393637557067726164653a20756e737570706f727465642070726f786044820152681a58589b195555525160ba1b6064820152608401610ca3565b50610dd8838383613827565b60fb5460ff16612f5c5760405162461bcd60e51b815260206004820152601460248201527314185d5cd8589b194e881b9bdd081c185d5cd95960621b6044820152606401610ca3565b60fb805460ff191690557f5db9ee0a495bf2e6ff9c91a7834c1ba4fdd244a5e8aa4e537bd38aeae4b073aa335b6040516001600160a01b03909116815260200160405180910390a1565b60008281526101c960205260409020600301805482919060ff19166001836002811115612fd557612fd561450d565b02179055507f132d48207d6b10897066f0b98b98325907e8a0d491390e141c7377772b47a9d68282604051612073929190614fd3565b60008481526101c9602052604090206003015460ff1660028160028111156130355761303561450d565b036130525760405162461bcd60e51b8152600401610ca390614d34565b6101c4846040516130639190614c39565b9081526040519081900360200190205460ff16156130935760405162461bcd60e51b8152600401610ca390614d80565b60008581526101c96020908152604090912085516130b99260019092019187019061435a565b5060008581526101c9602052604090206002810184905560040180546131679184916130e490614ab2565b80601f016020809104026020016040519081016040528092919081815260200182805461311090614ab2565b801561315d5780601f106131325761010080835404028352916020019161315d565b820191906000526020600020905b81548152906001019060200180831161314057829003601f168201915b505050505061384c565b6131935760008581526101c96020908152604090912083516131919260049092019185019061435a565b505b60018160028111156131a7576131a761450d565b036131b7576131b7856000612fa6565b7fd680d89587cd5af07a9a0280107488c8b2db5f86aec57b869f0933fb4a99c05b8585856040516131ea93929190614dc6565b60405180910390a15050505050565b60c980546001600160a01b038381166001600160a01b0319831681179093556040519116919082907f8be0079c531659141344cd1fd0a4f28419497f9722a3daafe3b4186f6b6457e090600090a35050565b60fb5460ff161561326e5760405162461bcd60e51b8152600401610ca390614b79565b60fb805460ff191660011790557f62e78cea01bee320cd4e420270b5ea74000d11b0c9f74754ebdbfc544b05a258612f893390565b816001600160a01b0316836001600160a01b0316036133045760405162461bcd60e51b815260206004820152601960248201527f4552433732313a20617070726f766520746f2063616c6c6572000000000000006044820152606401610ca3565b6001600160a01b038381166000818152606a6020908152604080832094871680845294825291829020805460ff191686151590811790915591519182527f17307eab39ab6107e8899845ad3d59bd9653f200f220920489ca2b5937696c31910160405180910390a3505050565b610e3e828260405180602001604052806000815250613858565b61339684848461388b565b6133a284848484613a32565b61192c5760405162461bcd60e51b8152600401610ca390614fe7565b60008054610100900460ff1615613405578160ff1660011480156133e15750303b155b6133fd5760405162461bcd60e51b8152600401610ca390615039565b506000919050565b60005460ff80841691161061342c5760405162461bcd60e51b8152600401610ca390615039565b506000805460ff191660ff92909216919091179055600190565b600054610100900460ff16611af35760405162461bcd60e51b8152600401610ca390615087565b600054610100900460ff166134945760405162461bcd60e51b8152600401610ca390615087565b81516134a790606590602085019061435a565b508051610dd890606690602084019061435a565b600054610100900460ff166134e25760405162461bcd60e51b8152600401610ca390615087565b611af3336131f9565b600054610100900460ff166135125760405162461bcd60e51b8152600401610ca390615087565b60fb805460ff19169055565b60606101c78054610bf990614ab2565b606061353982612929565b61359d5760405162461bcd60e51b815260206004820152602f60248201527f4552433732314d657461646174613a2055524920717565727920666f72206e6f60448201526e3732bc34b9ba32b73a103a37b5b2b760891b6064820152608401610ca3565b60006135a761351e565b905060008151116135c757604051806020016040528060008152506135f2565b806135d184613b33565b6040516020016135e2929190614f8b565b6040516020818303038152906040525b9392505050565b6000826001600160a01b031663a0af25606040518163ffffffff1660e01b8152600401602060405180830381865afa158015613639573d6000803e3d6000fd5b505050506040513d601f19601f8201168201806040525081019061365d9190614f6e565b604051634f558e7960e01b8152600481018490529091506001600160a01b03821690634f558e7990602401602060405180830381865afa1580156136a5573d6000803e3d6000fd5b505050506040513d601f19601f820116820180604052508101906136c99190614f1a565b610dd85760405162461bcd60e51b815260206004820152602960248201527f436172626f6e2070726f6a6563742076696e7461676520646f6573206e6f74206044820152681e595d08195e1a5cdd60ba1b6064820152608401610ca3565b6137318282611f9e565b610e3e57613749816001600160a01b03166014613c34565b613754836020613c34565b6040516020016137659291906150d2565b60408051601f198184030181529082905262461bcd60e51b8252610ca39160040161447e565b6001600160a01b0381163b6137f85760405162461bcd60e51b815260206004820152602d60248201527f455243313936373a206e657720696d706c656d656e746174696f6e206973206e60448201526c1bdd08184818dbdb9d1c9858dd609a1b6064820152608401610ca3565b60008051602061528083398151915280546001600160a01b0319166001600160a01b0392909216919091179055565b61383083613dd0565b60008251118061383d5750805b15610dd85761192c8383613e10565b60006135f28383613f04565b6138628383613f29565b61386f6000848484613a32565b610dd85760405162461bcd60e51b8152600401610ca390614fe7565b826001600160a01b031661389e82611932565b6001600160a01b0316146139025760405162461bcd60e51b815260206004820152602560248201527f4552433732313a207472616e736665722066726f6d20696e636f72726563742060448201526437bbb732b960d91b6064820152608401610ca3565b6001600160a01b0382166139645760405162461bcd60e51b8152602060048201526024808201527f4552433732313a207472616e7366657220746f20746865207a65726f206164646044820152637265737360e01b6064820152608401610ca3565b61396f838383614068565b61397a600082612946565b6001600160a01b03831660009081526068602052604081208054600192906139a390849061515d565b90915550506001600160a01b03821660009081526068602052604081208054600192906139d1908490615174565b909155505060008181526067602052604080822080546001600160a01b0319166001600160a01b0386811691821790925591518493918716917fddf252ad1be2c89b69c2b068fc378daa952ba7f163c4a11628f55a4df523b3ef91a4505050565b60006001600160a01b0384163b15613b2857604051630a85bd0160e11b81526001600160a01b0385169063150b7a0290613a7690339089908890889060040161518c565b6020604051808303816000875af1925050508015613ab1575060408051601f3d908101601f19168201909252613aae918101906151bf565b60015b613b0e573d808015613adf576040519150601f19603f3d011682016040523d82523d6000602084013e613ae4565b606091505b508051600003613b065760405162461bcd60e51b8152600401610ca390614fe7565b805181602001fd5b6001600160e01b031916630a85bd0160e11b14905061265c565b506001949350505050565b606081600003613b5a5750506040805180820190915260018152600360fc1b602082015290565b8160005b8115613b845780613b6e816151dc565b9150613b7d9050600a8361520b565b9150613b5e565b60008167ffffffffffffffff811115613b9f57613b9f614668565b6040519080825280601f01601f191660200182016040528015613bc9576020820181803683370190505b5090505b841561265c57613bde60018361515d565b9150613beb600a8661521f565b613bf6906030615174565b60f81b818381518110613c0b57613c0b614e34565b60200101906001600160f81b031916908160001a905350613c2d600a8661520b565b9450613bcd565b60606000613c43836002615233565b613c4e906002615174565b67ffffffffffffffff811115613c6657613c66614668565b6040519080825280601f01601f191660200182016040528015613c90576020820181803683370190505b509050600360fc1b81600081518110613cab57613cab614e34565b60200101906001600160f81b031916908160001a905350600f60fb1b81600181518110613cda57613cda614e34565b60200101906001600160f81b031916908160001a9053506000613cfe846002615233565b613d09906001615174565b90505b6001811115613d81576f181899199a1a9b1b9c1cb0b131b232b360811b85600f1660108110613d3d57613d3d614e34565b1a60f81b828281518110613d5357613d53614e34565b60200101906001600160f81b031916908160001a90535060049490941c93613d7a81615252565b9050613d0c565b5083156135f25760405162461bcd60e51b815260206004820181905260248201527f537472696e67733a20686578206c656e67746820696e73756666696369656e746044820152606401610ca3565b613dd98161378b565b6040516001600160a01b038216907fbc7cd75a20ee27fd9adebab32041f755214dbc6bffa90cc0225b39da2e5c2d3b90600090a250565b60606001600160a01b0383163b613e785760405162461bcd60e51b815260206004820152602660248201527f416464726573733a2064656c65676174652063616c6c20746f206e6f6e2d636f6044820152651b9d1c9858dd60d21b6064820152608401610ca3565b600080846001600160a01b031684604051613e939190614c39565b600060405180830381855af49150503d8060008114613ece576040519150601f19603f3d011682016040523d82523d6000602084013e613ed3565b606091505b5091509150613efb82826040518060600160405280602781526020016152a0602791396140d9565b95945050505050565b6000815183511480156135f25750508051602091820120825192909101919091201490565b6001600160a01b038216613f7f5760405162461bcd60e51b815260206004820181905260248201527f4552433732313a206d696e7420746f20746865207a65726f20616464726573736044820152606401610ca3565b613f8881612929565b15613fd55760405162461bcd60e51b815260206004820152601c60248201527f4552433732313a20746f6b656e20616c7265616479206d696e746564000000006044820152606401610ca3565b613fe160008383614068565b6001600160a01b038216600090815260686020526040812080546001929061400a908490615174565b909155505060008181526067602052604080822080546001600160a01b0319166001600160a01b03861690811790915590518392907fddf252ad1be2c89b69c2b068fc378daa952ba7f163c4a11628f55a4df523b3ef908290a45050565b614073838383614112565b60fb5460ff1615610dd85760405162461bcd60e51b815260206004820152602a60248201527f45524332305061757361626c653a20746f6b656e207472616e736665722077686044820152691a5b19481c185d5cd95960b21b6064820152608401610ca3565b606083156140e85750816135f2565b8251156140f85782518084602001fd5b8160405162461bcd60e51b8152600401610ca3919061447e565b6001600160a01b03831661416d5761416881609980546000838152609a60205260408120829055600182018355919091527f72a152ddfb8e864297c917af52ea6c1c68aead0fee1a62673fcc7e0c94979d000155565b614190565b816001600160a01b0316836001600160a01b0316146141905761419083826141ca565b6001600160a01b0382166141a757610dd881614267565b826001600160a01b0316826001600160a01b031614610dd857610dd88282614316565b600060016141d784611a38565b6141e1919061515d565b600083815260986020526040902054909150808214614234576001600160a01b03841660009081526097602090815260408083208584528252808320548484528184208190558352609890915290208190555b5060009182526098602090815260408084208490556001600160a01b039094168352609781528383209183525290812055565b6099546000906142799060019061515d565b6000838152609a6020526040812054609980549394509092849081106142a1576142a1614e34565b9060005260206000200154905080609983815481106142c2576142c2614e34565b6000918252602080832090910192909255828152609a909152604080822084905585825281205560998054806142fa576142fa615269565b6001900381819060005260206000200160009055905550505050565b600061432183611a38565b6001600160a01b039093166000908152609760209081526040808320868452825280832085905593825260989052919091209190915550565b82805461436690614ab2565b90600052602060002090601f01602090048101928261438857600085556143ce565b82601f106143a157805160ff19168380011785556143ce565b828001600101855582156143ce579182015b828111156143ce5782518255916020019190600101906143b3565b506143da9291506143de565b5090565b5b808211156143da57600081556001016143df565b6001600160e01b03198116811461139a57600080fd5b60006020828403121561441b57600080fd5b81356135f2816143f3565b60005b83811015614441578181015183820152602001614429565b8381111561192c5750506000910152565b6000815180845261446a816020860160208601614426565b601f01601f19169290920160200192915050565b6020815260006135f26020830184614452565b6000602082840312156144a357600080fd5b5035919050565b6001600160a01b038116811461139a57600080fd5b600080604083850312156144d257600080fd5b82356144dd816144aa565b946020939093013593505050565b600080604083850312156144fe57600080fd5b50508035926020909101359150565b634e487b7160e01b600052602160045260246000fd5b6003811061454157634e487b7160e01b600052602160045260246000fd5b9052565b60208101610be48284614523565b60008060006060848603121561456857600080fd5b8335614573816144aa565b92506020840135614583816144aa565b929592945050506040919091013590565b6000604082016040835280855180835260608501915060608160051b8601019250602080880160005b838110156145eb57605f198887030185526145d9868351614452565b955093820193908201906001016145bd565b50508584038187015286518085528782019482019350915060005b8281101561462b5784516001600160a01b031684529381019392810192600101614606565b5091979650505050505050565b6000806040838503121561464b57600080fd5b82359150602083013561465d816144aa565b809150509250929050565b634e487b7160e01b600052604160045260246000fd5b600082601f83011261468f57600080fd5b813567ffffffffffffffff808211156146aa576146aa614668565b604051601f8301601f19908116603f011681019082821181831017156146d2576146d2614668565b816040528381528660208588010111156146eb57600080fd5b836020870160208301376000602085830101528094505050505092915050565b60006020828403121561471d57600080fd5b813567ffffffffffffffff81111561473457600080fd5b61265c8482850161467e565b60006020828403121561475257600080fd5b81356135f2816144aa565b60008060006060848603121561477257600080fd5b83359250602084013567ffffffffffffffff81111561479057600080fd5b61479c8682870161467e565b925050604084013590509250925092565b600080604083850312156147c057600080fd5b82356147cb816144aa565b9150602083013567ffffffffffffffff8111156147e757600080fd5b6147f38582860161467e565b9150509250929050565b6000806000806080858703121561481357600080fd5b84359350602085013567ffffffffffffffff8082111561483257600080fd5b61483e8883890161467e565b945060408701359350606087013591508082111561485b57600080fd5b506148688782880161467e565b91505092959194509250565b85815260a06020820152600061488d60a0830187614452565b8560408401526148a06060840186614523565b82810360808401526148b28185614452565b98975050505050505050565b600080604083850312156148d157600080fd5b82359150602083013567ffffffffffffffff8111156147e757600080fd5b801515811461139a57600080fd5b6000806040838503121561491057600080fd5b823561491b816144aa565b9150602083013561465d816148ef565b6000806000806080858703121561494157600080fd5b843561494c816144aa565b9350602085013561495c816144aa565b925060408501359150606085013567ffffffffffffffff81111561497f57600080fd5b6148688782880161467e565b838152602081018390526060810161265c6040830184614523565b600080604083850312156149b957600080fd5b82356149c4816144aa565b9150602083013561465d816144aa565b60008083601f8401126149e657600080fd5b50813567ffffffffffffffff8111156149fe57600080fd5b602083019150836020828501011115614a1657600080fd5b9250929050565b600080600080600080600060a0888a031215614a3857600080fd5b8735614a43816144aa565b9650602088013567ffffffffffffffff80821115614a6057600080fd5b614a6c8b838c016149d4565b909850965060408a0135955060608a0135915080821115614a8c57600080fd5b50614a998a828b016149d4565b989b979a50959894979596608090950135949350505050565b600181811c90821680614ac657607f821691505b602082108103614ae657634e487b7160e01b600052602260045260246000fd5b50919050565b6020808252602c908201527f4552433732313a20617070726f76656420717565727920666f72206e6f6e657860408201526b34b9ba32b73a103a37b5b2b760a11b606082015260800190565b60208082526021908201527f4572726f723a2063616c6c6572206973206e6f742074686520766572696669656040820152603960f91b606082015260800190565b60208082526010908201526f14185d5cd8589b194e881c185d5cd95960821b604082015260600190565b60208082526025908201527f4261746368207265746972656d656e7420697320616c726561647920636f6e666040820152641a5c9b595960da1b606082015260800190565b60208082526031908201527f4552433732313a207472616e736665722063616c6c6572206973206e6f74206f6040820152701ddb995c881b9bdc88185c1c1c9bdd9959607a1b606082015260800190565b60008251614c4b818460208701614426565b9190910192915050565b6020808252602c908201527f46756e6374696f6e206d7573742062652063616c6c6564207468726f7567682060408201526b19195b1959d85d1958d85b1b60a21b606082015260800190565b6020808252602c908201527f46756e6374696f6e206d7573742062652063616c6c6564207468726f7567682060408201526b6163746976652070726f787960a01b606082015260800190565b60208082526027908201527f4572726f723a20757064617465206f6e6c79206279206f776e6572206f72207660408201526632b934b334b2b960c91b606082015260800190565b6020808252602c908201527f4572726f723a2063616e6e6f74206368616e676520646174612061667465722060408201526b31b7b73334b936b0ba34b7b760a11b606082015260800190565b60208082526026908201527f53657269616c6e756d6265722068617320616c7265616479206265656e2061706040820152651c1c9bdd995960d21b606082015260800190565b838152606060208201526000614ddf6060830185614452565b9050826040830152949350505050565b60208082526025908201527f43616c6c6572206973206e6f74207468652072656769737472792c206e6f722060408201526437bbb732b960d91b606082015260800190565b634e487b7160e01b600052603260045260246000fd5b6020808252818101527f4f776e61626c653a2063616c6c6572206973206e6f7420746865206f776e6572604082015260600190565b600080835481600182811c915080831680614e9b57607f831692505b60208084108203614eba57634e487b7160e01b86526022600452602486fd5b818015614ece5760018114614edf57614f0c565b60ff19861689528489019650614f0c565b60008a81526020902060005b86811015614f045781548b820152908501908301614eeb565b505084890196505b509498975050505050505050565b600060208284031215614f2c57600080fd5b81516135f2816148ef565b84815283602082015260018060a01b0383166040820152608060608201526000614f646080830184614452565b9695505050505050565b600060208284031215614f8057600080fd5b81516135f2816144aa565b60008351614f9d818460208801614426565b835190830190614fb1818360208801614426565b01949350505050565b600060208284031215614fcc57600080fd5b5051919050565b828152604081016135f26020830184614523565b60208082526032908201527f4552433732313a207472616e7366657220746f206e6f6e20455243373231526560408201527131b2b4bb32b91034b6b83632b6b2b73a32b960711b606082015260800190565b6020808252602e908201527f496e697469616c697a61626c653a20636f6e747261637420697320616c72656160408201526d191e481a5b9a5d1a585b1a5e995960921b606082015260800190565b6020808252602b908201527f496e697469616c697a61626c653a20636f6e7472616374206973206e6f74206960408201526a6e697469616c697a696e6760a81b606082015260800190565b7f416363657373436f6e74726f6c3a206163636f756e742000000000000000000081526000835161510a816017850160208801614426565b7001034b99036b4b9b9b4b733903937b6329607d1b601791840191820152835161513b816028840160208801614426565b01602801949350505050565b634e487b7160e01b600052601160045260246000fd5b60008282101561516f5761516f615147565b500390565b6000821982111561518757615187615147565b500190565b6001600160a01b0385811682528416602082015260408101839052608060608201819052600090614f6490830184614452565b6000602082840312156151d157600080fd5b81516135f2816143f3565b6000600182016151ee576151ee615147565b5060010190565b634e487b7160e01b600052601260045260246000fd5b60008261521a5761521a6151f5565b500490565b60008261522e5761522e6151f5565b500690565b600081600019048311821515161561524d5761524d615147565b500290565b60008161526157615261615147565b506000190190565b634e487b7160e01b600052603160045260246000fdfe360894a13ba1a3210667c828492db98dca3e2076cc3735a920a3ca505d382bbc416464726573733a206c6f772d6c6576656c2064656c65676174652063616c6c206661696c6564546f7563616e2050726f746f636f6c3a20436172626f6e204f666673657420426174636865730ce23c3e399818cfee81a7ab0880f714e53d7672b08df0fa62f2843416e1ea09a2646970667358221220ee511ac38ba20ea5cee8d2bf1a56c762da9edc64762054a227646f15533a3c1164736f6c634300080e0033496e697469616c697a61626c653a20636f6e747261637420697320616c726561",
  "devdoc": {
    "kind": "dev",
    "methods": {
      "addComment(uint256,string)": {
        "details": "Don't allow the contract owner to comment.  When the contract owner can also be a verifier they should add them as a verifier first; this should prevent accidental comments from the wrong account."
      },
      "approve(address,uint256)": {
        "details": "See {IERC721-approve}."
      },
      "balanceOf(address)": {
        "details": "See {IERC721-balanceOf}."
      },
      "confirmRetirement(uint256)": {
        "details": "This flow requires a previous linking with a `projectVintageTokenId`."
      },
      "confirmRetirementWithVintage(uint256,uint256)": {
        "details": "Function for main approval flow, which requires passing a `projectVintageTokenId`."
      },
      "constructor": {
        "custom:oz-upgrades-unsafe-allow": "constructor"
      },
      "fractionalize(uint256)": {
        "details": "Queries the factory to find the corresponding TCO2 contract Fractionalization happens via receive hook on `safeTransferFrom`"
      },
      "getApproved(uint256)": {
        "details": "See {IERC721-getApproved}."
      },
      "getBatchNFTData(uint256)": {
        "details": "Used in TCO2 contract's receive hook `onERC721Received`"
      },
      "getComments(uint256)": {
        "details": "This is necessary because the automatically generated nftList getter will not include an array of comments in the returned tuple for gas reasons: https://docs.soliditylang.org/en/latest/contracts.html#visibility-and-getters"
      },
      "getRoleAdmin(bytes32)": {
        "details": "Returns the admin role that controls `role`. See {grantRole} and {revokeRole}. To change a role's admin, use {_setRoleAdmin}."
      },
      "grantRole(bytes32,address)": {
        "details": "Grants `role` to `account`. If `account` had not been already granted `role`, emits a {RoleGranted} event. Requirements: - the caller must have ``role``'s admin role."
      },
      "hasRole(bytes32,address)": {
        "details": "Returns `true` if `account` has been granted `role`."
      },
      "isApprovedForAll(address,address)": {
        "details": "See {IERC721-isApprovedForAll}."
      },
      "linkWithVintage(uint256,uint256)": {
        "details": "Function for alternative flow where Batch-NFT approval is done separately."
      },
      "mintEmptyBatch(address)": {
        "details": "To be updated by NFT owner after serial number has been provided",
        "params": {
          "to": "The address the NFT should be minted to. This should be the user."
        }
      },
      "name()": {
        "details": "See {IERC721Metadata-name}."
      },
      "owner()": {
        "details": "Returns the address of the current owner."
      },
      "ownerOf(uint256)": {
        "details": "See {IERC721-ownerOf}."
      },
      "pause()": {
        "details": "wraps _pause(), only Admin"
      },
      "paused()": {
        "details": "Returns true if the contract is paused, and false otherwise."
      },
      "proxiableUUID()": {
        "details": "Implementation of the ERC1822 {proxiableUUID} function. This returns the storage slot used by the implementation. It is used to validate that the this implementation remains valid after an upgrade. IMPORTANT: A proxy pointing at a proxiable contract should not be considered proxiable itself, because this risks bricking a proxy that upgrades to it, by delegating to itself until out of gas. Thus it is critical that this function revert if invoked through a proxy. This is guaranteed by the `notDelegated` modifier."
      },
      "rejectApprovedWithComment(uint256,string)": {
        "details": "admin function to reject a previously approved batch Requires that the Batch-NFT has not been fractionalized yet"
      },
      "renounceOwnership()": {
        "details": "Leaves the contract without owner. It will not be possible to call `onlyOwner` functions anymore. Can only be called by the current owner. NOTE: Renouncing ownership will leave the contract without an owner, thereby removing any functionality that is only available to the owner."
      },
      "renounceRole(bytes32,address)": {
        "details": "Revokes `role` from the calling account. Roles are often managed via {grantRole} and {revokeRole}: this function's purpose is to provide a mechanism for accounts to lose their privileges if they are compromised (such as when a trusted device is misplaced). If the calling account had been revoked `role`, emits a {RoleRevoked} event. Requirements: - the caller must be `account`."
      },
      "revokeRole(bytes32,address)": {
        "details": "Revokes `role` from `account`. If `account` had been granted `role`, emits a {RoleRevoked} event. Requirements: - the caller must have ``role``'s admin role."
      },
      "safeTransferFrom(address,address,uint256)": {
        "details": "See {IERC721-safeTransferFrom}."
      },
      "safeTransferFrom(address,address,uint256,bytes)": {
        "details": "See {IERC721-safeTransferFrom}."
      },
      "setApprovalForAll(address,bool)": {
        "details": "See {IERC721-setApprovalForAll}."
      },
      "setSerialandQuantity(uint256,string,uint256)": {
        "details": "Convenience function to only update serial number and quantity and not the serial/URI",
        "params": {
          "newQuantity": "quantity in tCO2e",
          "newSerialNumber": "the serial number received from the registry/credit cancellation"
        }
      },
      "symbol()": {
        "details": "See {IERC721Metadata-symbol}."
      },
      "tokenByIndex(uint256)": {
        "details": "See {IERC721Enumerable-tokenByIndex}."
      },
      "tokenOfOwnerByIndex(address,uint256)": {
        "details": "See {IERC721Enumerable-tokenOfOwnerByIndex}."
      },
      "tokenURI(uint256)": {
        "details": "Returns the Uniform Resource Identifier (URI) for `tokenId` token. based on the ERC721URIStorage implementation"
      },
      "tokenize(address,string,uint256,string,uint256)": {
        "params": {
          "projectVintageTokenId": "Project Vintage Token ID",
          "quantity": "quantity in tC02e",
          "serialNumber": "serialNumber recieved from the registry/credit cancellation",
          "to": "Address to empty NFT is minted to",
          "uri": "optional tokenURI information with additional data"
        }
      },
      "totalSupply()": {
        "details": "See {IERC721Enumerable-totalSupply}."
      },
      "transferFrom(address,address,uint256)": {
        "details": "Overridden here because of function overloading issues with ethers.js"
      },
      "transferOwnership(address)": {
        "details": "Transfers ownership of the contract to a new account (`newOwner`). Can only be called by the current owner."
      },
      "unpause()": {
        "details": "unpause the system, wraps _unpause(), only Admin"
      },
      "unsetSerialNumber(string)": {
        "details": "Function to remove uniqueness for previously set serialnumbers. N.B. even though (technically speaking) calling this to complete the upgrade to a fixed contract is the responsibility of the contract's owner (deployer), in practice that is a multi-sig even before upgrade, and unsetting a bunch of serials via multi-sig is not practical. So instead we allow the verifiers to do it."
      },
      "updateBatchWithData(uint256,string,uint256,string)": {
        "details": "Data is usually inserted by the user (NFT owner) via the UI",
        "params": {
          "quantity": "quantity in tCO2e",
          "serialNumber": "the serial number received from the registry/credit cancellation",
          "tokenId": "the Batch-NFT",
          "uri": "optional tokenURI with additional information"
        }
      },
      "upgradeTo(address)": {
        "details": "Upgrade the implementation of the proxy to `newImplementation`. Calls {_authorizeUpgrade}. Emits an {Upgraded} event."
      },
      "upgradeToAndCall(address,bytes)": {
        "details": "Upgrade the implementation of the proxy to `newImplementation`, and subsequently execute the function call encoded in `data`. Calls {_authorizeUpgrade}. Emits an {Upgraded} event."
      }
    },
    "stateVariables": {
      "VERSION": {
        "details": "auto-created getter VERSION() returns the current version of the smart contract"
      }
    },
    "version": 1
  },
  "userdoc": {
    "kind": "user",
    "methods": {
      "addComment(uint256,string)": {
        "notice": "Append a comment to a Batch-NFT"
      },
      "confirmRetirement(uint256)": {
        "notice": "Function to approve a Batch-NFT after validation. Fractionalization requires status Confirmed."
      },
      "fractionalize(uint256)": {
        "notice": "Function that automatically converts Batch-NFT to TCO2 (ERC20)"
      },
      "getBatchNFTData(uint256)": {
        "notice": "Returns all data from Batch-NFT"
      },
      "getConfirmationStatus(uint256)": {
        "notice": "Returns just the confirmation (approval) status of Batch-NFT"
      },
      "mintEmptyBatch(address)": {
        "notice": "Permissionlessly mint empty BatchNFTs Entry point to the carbon bridging process."
      },
      "pause()": {
        "notice": "Emergency function to disable contract's core functionality"
      },
      "rejectRetirement(uint256)": {
        "notice": "Function to reject Batch-NFTs, e.g. if the serial number entered is incorrect."
      },
      "rejectWithComment(uint256,string)": {
        "notice": "Function to reject Batch-NFTs, including a reason to be displayed to the user."
      },
      "setToPending(uint256)": {
        "notice": "Set batches back to pending after a rejection. This can be useful if there was an issue unrelated to the on-chain data of the batch, e.g. the batch was incorrectly rejected."
      },
      "tokenize(address,string,uint256,string,uint256)": {
        "notice": "This function allows external APIs to tokenize their carbon credits to validated NFTs"
      },
      "updateBatchWithData(uint256,string,uint256,string)": {
        "notice": "Updates BatchNFT after Serialnumber has been verified"
      }
    },
    "notice": "Also referred to as Batch-Contract (formerly BatchCollection) Contract that tokenizes retired/cancelled CO2 credits into NFTs via a claims process",
    "version": 1
  },
  "storageLayout": {
    "storage": [
      {
        "astId": 1489,
        "contract": "contracts/CarbonOffsetBatches.sol:CarbonOffsetBatches",
        "label": "_initialized",
        "offset": 0,
        "slot": "0",
        "type": "t_uint8"
      },
      {
        "astId": 1492,
        "contract": "contracts/CarbonOffsetBatches.sol:CarbonOffsetBatches",
        "label": "_initializing",
        "offset": 1,
        "slot": "0",
        "type": "t_bool"
      },
      {
        "astId": 4593,
        "contract": "contracts/CarbonOffsetBatches.sol:CarbonOffsetBatches",
        "label": "__gap",
        "offset": 0,
        "slot": "1",
        "type": "t_array(t_uint256)50_storage"
      },
      {
        "astId": 4900,
        "contract": "contracts/CarbonOffsetBatches.sol:CarbonOffsetBatches",
        "label": "__gap",
        "offset": 0,
        "slot": "51",
        "type": "t_array(t_uint256)50_storage"
      },
      {
        "astId": 2897,
        "contract": "contracts/CarbonOffsetBatches.sol:CarbonOffsetBatches",
        "label": "_name",
        "offset": 0,
        "slot": "101",
        "type": "t_string_storage"
      },
      {
        "astId": 2899,
        "contract": "contracts/CarbonOffsetBatches.sol:CarbonOffsetBatches",
        "label": "_symbol",
        "offset": 0,
        "slot": "102",
        "type": "t_string_storage"
      },
      {
        "astId": 2903,
        "contract": "contracts/CarbonOffsetBatches.sol:CarbonOffsetBatches",
        "label": "_owners",
        "offset": 0,
        "slot": "103",
        "type": "t_mapping(t_uint256,t_address)"
      },
      {
        "astId": 2907,
        "contract": "contracts/CarbonOffsetBatches.sol:CarbonOffsetBatches",
        "label": "_balances",
        "offset": 0,
        "slot": "104",
        "type": "t_mapping(t_address,t_uint256)"
      },
      {
        "astId": 2911,
        "contract": "contracts/CarbonOffsetBatches.sol:CarbonOffsetBatches",
        "label": "_tokenApprovals",
        "offset": 0,
        "slot": "105",
        "type": "t_mapping(t_uint256,t_address)"
      },
      {
        "astId": 2917,
        "contract": "contracts/CarbonOffsetBatches.sol:CarbonOffsetBatches",
        "label": "_operatorApprovals",
        "offset": 0,
        "slot": "106",
        "type": "t_mapping(t_address,t_mapping(t_address,t_bool))"
      },
      {
        "astId": 3758,
        "contract": "contracts/CarbonOffsetBatches.sol:CarbonOffsetBatches",
        "label": "__gap",
        "offset": 0,
        "slot": "107",
        "type": "t_array(t_uint256)44_storage"
      },
      {
        "astId": 3923,
        "contract": "contracts/CarbonOffsetBatches.sol:CarbonOffsetBatches",
        "label": "_ownedTokens",
        "offset": 0,
        "slot": "151",
        "type": "t_mapping(t_address,t_mapping(t_uint256,t_uint256))"
      },
      {
        "astId": 3927,
        "contract": "contracts/CarbonOffsetBatches.sol:CarbonOffsetBatches",
        "label": "_ownedTokensIndex",
        "offset": 0,
        "slot": "152",
        "type": "t_mapping(t_uint256,t_uint256)"
      },
      {
        "astId": 3930,
        "contract": "contracts/CarbonOffsetBatches.sol:CarbonOffsetBatches",
        "label": "_allTokens",
        "offset": 0,
        "slot": "153",
        "type": "t_array(t_uint256)dyn_storage"
      },
      {
        "astId": 3934,
        "contract": "contracts/CarbonOffsetBatches.sol:CarbonOffsetBatches",
        "label": "_allTokensIndex",
        "offset": 0,
        "slot": "154",
        "type": "t_mapping(t_uint256,t_uint256)"
      },
      {
        "astId": 4250,
        "contract": "contracts/CarbonOffsetBatches.sol:CarbonOffsetBatches",
        "label": "__gap",
        "offset": 0,
        "slot": "155",
        "type": "t_array(t_uint256)46_storage"
      },
      {
        "astId": 980,
        "contract": "contracts/CarbonOffsetBatches.sol:CarbonOffsetBatches",
        "label": "_owner",
        "offset": 0,
        "slot": "201",
        "type": "t_address"
      },
      {
        "astId": 1092,
        "contract": "contracts/CarbonOffsetBatches.sol:CarbonOffsetBatches",
        "label": "__gap",
        "offset": 0,
        "slot": "202",
        "type": "t_array(t_uint256)49_storage"
      },
      {
        "astId": 1781,
        "contract": "contracts/CarbonOffsetBatches.sol:CarbonOffsetBatches",
        "label": "_paused",
        "offset": 0,
        "slot": "251",
        "type": "t_bool"
      },
      {
        "astId": 1870,
        "contract": "contracts/CarbonOffsetBatches.sol:CarbonOffsetBatches",
        "label": "__gap",
        "offset": 0,
        "slot": "252",
        "type": "t_array(t_uint256)49_storage"
      },
      {
        "astId": 596,
        "contract": "contracts/CarbonOffsetBatches.sol:CarbonOffsetBatches",
        "label": "_roles",
        "offset": 0,
        "slot": "301",
        "type": "t_mapping(t_bytes32,t_struct(RoleData)591_storage)"
      },
      {
        "astId": 895,
        "contract": "contracts/CarbonOffsetBatches.sol:CarbonOffsetBatches",
        "label": "__gap",
        "offset": 0,
        "slot": "302",
        "type": "t_array(t_uint256)49_storage"
      },
      {
        "astId": 1471,
        "contract": "contracts/CarbonOffsetBatches.sol:CarbonOffsetBatches",
        "label": "__gap",
        "offset": 0,
        "slot": "351",
        "type": "t_array(t_uint256)50_storage"
      },
      {
        "astId": 1759,
        "contract": "contracts/CarbonOffsetBatches.sol:CarbonOffsetBatches",
        "label": "__gap",
        "offset": 0,
        "slot": "401",
        "type": "t_array(t_uint256)50_storage"
      },
      {
        "astId": 8104,
        "contract": "contracts/CarbonOffsetBatches.sol:CarbonOffsetBatches",
        "label": "batchTokenCounter",
        "offset": 0,
        "slot": "451",
        "type": "t_uint256"
      },
      {
        "astId": 8109,
        "contract": "contracts/CarbonOffsetBatches.sol:CarbonOffsetBatches",
        "label": "serialNumberApproved",
        "offset": 0,
        "slot": "452",
        "type": "t_mapping(t_string_memory_ptr,t_bool)"
      },
      {
        "astId": 8113,
        "contract": "contracts/CarbonOffsetBatches.sol:CarbonOffsetBatches",
        "label": "DEPRECATED_URIs",
        "offset": 0,
        "slot": "453",
        "type": "t_mapping(t_string_memory_ptr,t_bool)"
      },
      {
        "astId": 8117,
        "contract": "contracts/CarbonOffsetBatches.sol:CarbonOffsetBatches",
        "label": "verifiers",
        "offset": 0,
        "slot": "454",
        "type": "t_mapping(t_address,t_bool)"
      },
      {
        "astId": 8119,
        "contract": "contracts/CarbonOffsetBatches.sol:CarbonOffsetBatches",
        "label": "baseURI",
        "offset": 0,
        "slot": "455",
        "type": "t_string_storage"
      },
      {
        "astId": 8121,
        "contract": "contracts/CarbonOffsetBatches.sol:CarbonOffsetBatches",
        "label": "contractRegistry",
        "offset": 0,
        "slot": "456",
        "type": "t_address"
      },
      {
        "astId": 8144,
        "contract": "contracts/CarbonOffsetBatches.sol:CarbonOffsetBatches",
        "label": "nftList",
        "offset": 0,
        "slot": "457",
        "type": "t_mapping(t_uint256,t_struct(NFTData)8139_storage)"
      }
    ],
    "types": {
      "t_address": {
        "encoding": "inplace",
        "label": "address",
        "numberOfBytes": "20"
      },
      "t_array(t_address)dyn_storage": {
        "base": "t_address",
        "encoding": "dynamic_array",
        "label": "address[]",
        "numberOfBytes": "32"
      },
      "t_array(t_string_storage)dyn_storage": {
        "base": "t_string_storage",
        "encoding": "dynamic_array",
        "label": "string[]",
        "numberOfBytes": "32"
      },
      "t_array(t_uint256)44_storage": {
        "base": "t_uint256",
        "encoding": "inplace",
        "label": "uint256[44]",
        "numberOfBytes": "1408"
      },
      "t_array(t_uint256)46_storage": {
        "base": "t_uint256",
        "encoding": "inplace",
        "label": "uint256[46]",
        "numberOfBytes": "1472"
      },
      "t_array(t_uint256)49_storage": {
        "base": "t_uint256",
        "encoding": "inplace",
        "label": "uint256[49]",
        "numberOfBytes": "1568"
      },
      "t_array(t_uint256)50_storage": {
        "base": "t_uint256",
        "encoding": "inplace",
        "label": "uint256[50]",
        "numberOfBytes": "1600"
      },
      "t_array(t_uint256)dyn_storage": {
        "base": "t_uint256",
        "encoding": "dynamic_array",
        "label": "uint256[]",
        "numberOfBytes": "32"
      },
      "t_bool": {
        "encoding": "inplace",
        "label": "bool",
        "numberOfBytes": "1"
      },
      "t_bytes32": {
        "encoding": "inplace",
        "label": "bytes32",
        "numberOfBytes": "32"
      },
      "t_enum(RetirementStatus)8154": {
        "encoding": "inplace",
        "label": "enum RetirementStatus",
        "numberOfBytes": "1"
      },
      "t_mapping(t_address,t_bool)": {
        "encoding": "mapping",
        "key": "t_address",
        "label": "mapping(address => bool)",
        "numberOfBytes": "32",
        "value": "t_bool"
      },
      "t_mapping(t_address,t_mapping(t_address,t_bool))": {
        "encoding": "mapping",
        "key": "t_address",
        "label": "mapping(address => mapping(address => bool))",
        "numberOfBytes": "32",
        "value": "t_mapping(t_address,t_bool)"
      },
      "t_mapping(t_address,t_mapping(t_uint256,t_uint256))": {
        "encoding": "mapping",
        "key": "t_address",
        "label": "mapping(address => mapping(uint256 => uint256))",
        "numberOfBytes": "32",
        "value": "t_mapping(t_uint256,t_uint256)"
      },
      "t_mapping(t_address,t_uint256)": {
        "encoding": "mapping",
        "key": "t_address",
        "label": "mapping(address => uint256)",
        "numberOfBytes": "32",
        "value": "t_uint256"
      },
      "t_mapping(t_bytes32,t_struct(RoleData)591_storage)": {
        "encoding": "mapping",
        "key": "t_bytes32",
        "label": "mapping(bytes32 => struct AccessControlUpgradeable.RoleData)",
        "numberOfBytes": "32",
        "value": "t_struct(RoleData)591_storage"
      },
      "t_mapping(t_string_memory_ptr,t_bool)": {
        "encoding": "mapping",
        "key": "t_string_memory_ptr",
        "label": "mapping(string => bool)",
        "numberOfBytes": "32",
        "value": "t_bool"
      },
      "t_mapping(t_uint256,t_address)": {
        "encoding": "mapping",
        "key": "t_uint256",
        "label": "mapping(uint256 => address)",
        "numberOfBytes": "32",
        "value": "t_address"
      },
      "t_mapping(t_uint256,t_struct(NFTData)8139_storage)": {
        "encoding": "mapping",
        "key": "t_uint256",
        "label": "mapping(uint256 => struct CarbonOffsetBatchesStorageV1.NFTData)",
        "numberOfBytes": "32",
        "value": "t_struct(NFTData)8139_storage"
      },
      "t_mapping(t_uint256,t_uint256)": {
        "encoding": "mapping",
        "key": "t_uint256",
        "label": "mapping(uint256 => uint256)",
        "numberOfBytes": "32",
        "value": "t_uint256"
      },
      "t_string_memory_ptr": {
        "encoding": "bytes",
        "label": "string",
        "numberOfBytes": "32"
      },
      "t_string_storage": {
        "encoding": "bytes",
        "label": "string",
        "numberOfBytes": "32"
      },
      "t_struct(NFTData)8139_storage": {
        "encoding": "inplace",
        "label": "struct CarbonOffsetBatchesStorageV1.NFTData",
        "members": [
          {
            "astId": 8123,
            "contract": "contracts/CarbonOffsetBatches.sol:CarbonOffsetBatches",
            "label": "projectVintageTokenId",
            "offset": 0,
            "slot": "0",
            "type": "t_uint256"
          },
          {
            "astId": 8125,
            "contract": "contracts/CarbonOffsetBatches.sol:CarbonOffsetBatches",
            "label": "serialNumber",
            "offset": 0,
            "slot": "1",
            "type": "t_string_storage"
          },
          {
            "astId": 8127,
            "contract": "contracts/CarbonOffsetBatches.sol:CarbonOffsetBatches",
            "label": "quantity",
            "offset": 0,
            "slot": "2",
            "type": "t_uint256"
          },
          {
            "astId": 8130,
            "contract": "contracts/CarbonOffsetBatches.sol:CarbonOffsetBatches",
            "label": "status",
            "offset": 0,
            "slot": "3",
            "type": "t_enum(RetirementStatus)8154"
          },
          {
            "astId": 8132,
            "contract": "contracts/CarbonOffsetBatches.sol:CarbonOffsetBatches",
            "label": "uri",
            "offset": 0,
            "slot": "4",
            "type": "t_string_storage"
          },
          {
            "astId": 8135,
            "contract": "contracts/CarbonOffsetBatches.sol:CarbonOffsetBatches",
            "label": "comments",
            "offset": 0,
            "slot": "5",
            "type": "t_array(t_string_storage)dyn_storage"
          },
          {
            "astId": 8138,
            "contract": "contracts/CarbonOffsetBatches.sol:CarbonOffsetBatches",
            "label": "commentAuthors",
            "offset": 0,
            "slot": "6",
            "type": "t_array(t_address)dyn_storage"
          }
        ],
        "numberOfBytes": "224"
      },
      "t_struct(RoleData)591_storage": {
        "encoding": "inplace",
        "label": "struct AccessControlUpgradeable.RoleData",
        "members": [
          {
            "astId": 588,
            "contract": "contracts/CarbonOffsetBatches.sol:CarbonOffsetBatches",
            "label": "members",
            "offset": 0,
            "slot": "0",
            "type": "t_mapping(t_address,t_bool)"
          },
          {
            "astId": 590,
            "contract": "contracts/CarbonOffsetBatches.sol:CarbonOffsetBatches",
            "label": "adminRole",
            "offset": 0,
            "slot": "1",
            "type": "t_bytes32"
          }
        ],
        "numberOfBytes": "64"
      },
      "t_uint256": {
        "encoding": "inplace",
        "label": "uint256",
        "numberOfBytes": "32"
      },
      "t_uint8": {
        "encoding": "inplace",
        "label": "uint8",
        "numberOfBytes": "1"
      }
    }
  }
}