{
  "address": "0x6CDf753812C468D95452Ff39b6C5c8E4cd365645",
  "abi": [
    {
      "anonymous": false,
      "inputs": [
        {
          "indexed": false,
          "internalType": "address",
          "name": "previousAdmin",
          "type": "address"
        },
        {
          "indexed": false,
          "internalType": "address",
          "name": "newAdmin",
          "type": "address"
        }
      ],
      "name": "AdminChanged",
      "type": "event"
    },
    {
      "anonymous": false,
      "inputs": [
        {
          "indexed": true,
          "internalType": "address",
          "name": "owner",
          "type": "address"
        },
        {
          "indexed": true,
          "internalType": "address",
          "name": "approved",
          "type": "address"
        },
        {
          "indexed": true,
          "internalType": "uint256",
          "name": "tokenId",
          "type": "uint256"
        }
      ],
      "name": "Approval",
      "type": "event"
    },
    {
      "anonymous": false,
      "inputs": [
        {
          "indexed": true,
          "internalType": "address",
          "name": "owner",
          "type": "address"
        },
        {
          "indexed": true,
          "internalType": "address",
          "name": "operator",
          "type": "address"
        },
        {
          "indexed": false,
          "internalType": "bool",
          "name": "approved",
          "type": "bool"
        }
      ],
      "name": "ApprovalForAll",
      "type": "event"
    },
    {
      "anonymous": false,
      "inputs": [
        {
          "indexed": true,
          "internalType": "address",
          "name": "beacon",
          "type": "address"
        }
      ],
      "name": "BeaconUpgraded",
      "type": "event"
    },
    {
      "anonymous": false,
      "inputs": [
        {
          "indexed": true,
          "internalType": "address",
          "name": "previousOwner",
          "type": "address"
        },
        {
          "indexed": true,
          "internalType": "address",
          "name": "newOwner",
          "type": "address"
        }
      ],
      "name": "OwnershipTransferred",
      "type": "event"
    },
    {
      "anonymous": false,
      "inputs": [
        {
          "indexed": false,
          "internalType": "address",
          "name": "account",
          "type": "address"
        }
      ],
      "name": "Paused",
      "type": "event"
    },
    {
      "anonymous": false,
      "inputs": [
        {
          "indexed": false,
          "internalType": "uint256",
          "name": "tokenId",
          "type": "uint256"
        }
      ],
      "name": "ProjectVintageIdUpdated",
      "type": "event"
    },
    {
      "anonymous": false,
      "inputs": [
        {
          "indexed": false,
          "internalType": "address",
          "name": "receiver",
          "type": "address"
        },
        {
          "indexed": false,
          "internalType": "uint256",
          "name": "tokenId",
          "type": "uint256"
        },
        {
          "indexed": false,
          "internalType": "uint256",
          "name": "projectTokenId",
          "type": "uint256"
        },
        {
          "indexed": false,
          "internalType": "uint64",
          "name": "startTime",
          "type": "uint64"
        }
      ],
      "name": "ProjectVintageMinted",
      "type": "event"
    },
    {
      "anonymous": false,
      "inputs": [
        {
          "indexed": false,
          "internalType": "uint256",
          "name": "tokenId",
          "type": "uint256"
        }
      ],
      "name": "ProjectVintageUpdated",
      "type": "event"
    },
    {
      "anonymous": false,
      "inputs": [
        {
          "indexed": true,
          "internalType": "bytes32",
          "name": "role",
          "type": "bytes32"
        },
        {
          "indexed": true,
          "internalType": "bytes32",
          "name": "previousAdminRole",
          "type": "bytes32"
        },
        {
          "indexed": true,
          "internalType": "bytes32",
          "name": "newAdminRole",
          "type": "bytes32"
        }
      ],
      "name": "RoleAdminChanged",
      "type": "event"
    },
    {
      "anonymous": false,
      "inputs": [
        {
          "indexed": true,
          "internalType": "bytes32",
          "name": "role",
          "type": "bytes32"
        },
        {
          "indexed": true,
          "internalType": "address",
          "name": "account",
          "type": "address"
        },
        {
          "indexed": true,
          "internalType": "address",
          "name": "sender",
          "type": "address"
        }
      ],
      "name": "RoleGranted",
      "type": "event"
    },
    {
      "anonymous": false,
      "inputs": [
        {
          "indexed": true,
          "internalType": "bytes32",
          "name": "role",
          "type": "bytes32"
        },
        {
          "indexed": true,
          "internalType": "address",
          "name": "account",
          "type": "address"
        },
        {
          "indexed": true,
          "internalType": "address",
          "name": "sender",
          "type": "address"
        }
      ],
      "name": "RoleRevoked",
      "type": "event"
    },
    {
      "anonymous": false,
      "inputs": [
        {
          "indexed": true,
          "internalType": "address",
          "name": "from",
          "type": "address"
        },
        {
          "indexed": true,
          "internalType": "address",
          "name": "to",
          "type": "address"
        },
        {
          "indexed": true,
          "internalType": "uint256",
          "name": "tokenId",
          "type": "uint256"
        }
      ],
      "name": "Transfer",
      "type": "event"
    },
    {
      "anonymous": false,
      "inputs": [
        {
          "indexed": false,
          "internalType": "address",
          "name": "account",
          "type": "address"
        }
      ],
      "name": "Unpaused",
      "type": "event"
    },
    {
      "anonymous": false,
      "inputs": [
        {
          "indexed": true,
          "internalType": "address",
          "name": "implementation",
          "type": "address"
        }
      ],
      "name": "Upgraded",
      "type": "event"
    },
    {
      "inputs": [],
      "name": "DEFAULT_ADMIN_ROLE",
      "outputs": [
        {
          "internalType": "bytes32",
          "name": "",
          "type": "bytes32"
        }
      ],
      "stateMutability": "view",
      "type": "function"
    },
    {
      "inputs": [],
      "name": "MANAGER_ROLE",
      "outputs": [
        {
          "internalType": "bytes32",
          "name": "",
          "type": "bytes32"
        }
      ],
      "stateMutability": "view",
      "type": "function"
    },
    {
      "inputs": [],
      "name": "VERSION",
      "outputs": [
        {
          "internalType": "string",
          "name": "",
          "type": "string"
        }
      ],
      "stateMutability": "view",
      "type": "function"
    },
    {
      "inputs": [
        {
          "internalType": "address",
          "name": "to",
          "type": "address"
        },
        {
          "components": [
            {
              "internalType": "string",
              "name": "name",
              "type": "string"
            },
            {
              "internalType": "uint64",
              "name": "startTime",
              "type": "uint64"
            },
            {
              "internalType": "uint64",
              "name": "endTime",
              "type": "uint64"
            },
            {
              "internalType": "uint256",
              "name": "projectTokenId",
              "type": "uint256"
            },
            {
              "internalType": "uint64",
              "name": "totalVintageQuantity",
              "type": "uint64"
            },
            {
              "internalType": "bool",
              "name": "isCorsiaCompliant",
              "type": "bool"
            },
            {
              "internalType": "bool",
              "name": "isCCPcompliant",
              "type": "bool"
            },
            {
              "internalType": "string",
              "name": "coBenefits",
              "type": "string"
            },
            {
              "internalType": "string",
              "name": "correspAdjustment",
              "type": "string"
            },
            {
              "internalType": "string",
              "name": "additionalCertification",
              "type": "string"
            },
            {
              "internalType": "string",
              "name": "uri",
              "type": "string"
            }
          ],
          "internalType": "struct VintageData",
          "name": "_vintageData",
          "type": "tuple"
        }
      ],
      "name": "addNewVintage",
      "outputs": [
        {
          "internalType": "uint256",
          "name": "",
          "type": "uint256"
        }
      ],
      "stateMutability": "nonpayable",
      "type": "function"
    },
    {
      "inputs": [
        {
          "internalType": "address",
          "name": "to",
          "type": "address"
        },
        {
          "internalType": "uint256",
          "name": "tokenId",
          "type": "uint256"
        }
      ],
      "name": "approve",
      "outputs": [],
      "stateMutability": "nonpayable",
      "type": "function"
    },
    {
      "inputs": [
        {
          "internalType": "address",
          "name": "owner",
          "type": "address"
        }
      ],
      "name": "balanceOf",
      "outputs": [
        {
          "internalType": "uint256",
          "name": "",
          "type": "uint256"
        }
      ],
      "stateMutability": "view",
      "type": "function"
    },
    {
      "inputs": [],
      "name": "baseURI",
      "outputs": [
        {
          "internalType": "string",
          "name": "",
          "type": "string"
        }
      ],
      "stateMutability": "view",
      "type": "function"
    },
    {
      "inputs": [],
      "name": "contractRegistry",
      "outputs": [
        {
          "internalType": "address",
          "name": "",
          "type": "address"
        }
      ],
      "stateMutability": "view",
      "type": "function"
    },
    {
      "inputs": [
        {
          "internalType": "uint256",
          "name": "tokenId",
          "type": "uint256"
        }
      ],
      "name": "exists",
      "outputs": [
        {
          "internalType": "bool",
          "name": "",
          "type": "bool"
        }
      ],
      "stateMutability": "view",
      "type": "function"
    },
    {
      "inputs": [
        {
          "internalType": "uint256",
          "name": "tokenId",
          "type": "uint256"
        }
      ],
      "name": "getApproved",
      "outputs": [
        {
          "internalType": "address",
          "name": "",
          "type": "address"
        }
      ],
      "stateMutability": "view",
      "type": "function"
    },
    {
      "inputs": [
        {
          "internalType": "uint256",
          "name": "tokenId",
          "type": "uint256"
        }
      ],
      "name": "getProjectVintageDataByTokenId",
      "outputs": [
        {
          "components": [
            {
              "internalType": "string",
              "name": "name",
              "type": "string"
            },
            {
              "internalType": "uint64",
              "name": "startTime",
              "type": "uint64"
            },
            {
              "internalType": "uint64",
              "name": "endTime",
              "type": "uint64"
            },
            {
              "internalType": "uint256",
              "name": "projectTokenId",
              "type": "uint256"
            },
            {
              "internalType": "uint64",
              "name": "totalVintageQuantity",
              "type": "uint64"
            },
            {
              "internalType": "bool",
              "name": "isCorsiaCompliant",
              "type": "bool"
            },
            {
              "internalType": "bool",
              "name": "isCCPcompliant",
              "type": "bool"
            },
            {
              "internalType": "string",
              "name": "coBenefits",
              "type": "string"
            },
            {
              "internalType": "string",
              "name": "correspAdjustment",
              "type": "string"
            },
            {
              "internalType": "string",
              "name": "additionalCertification",
              "type": "string"
            },
            {
              "internalType": "string",
              "name": "uri",
              "type": "string"
            }
          ],
          "internalType": "struct VintageData",
          "name": "",
          "type": "tuple"
        }
      ],
      "stateMutability": "view",
      "type": "function"
    },
    {
      "inputs": [
        {
          "internalType": "bytes32",
          "name": "role",
          "type": "bytes32"
        }
      ],
      "name": "getRoleAdmin",
      "outputs": [
        {
          "internalType": "bytes32",
          "name": "",
          "type": "bytes32"
        }
      ],
      "stateMutability": "view",
      "type": "function"
    },
    {
      "inputs": [
        {
          "internalType": "bytes32",
          "name": "role",
          "type": "bytes32"
        },
        {
          "internalType": "address",
          "name": "account",
          "type": "address"
        }
      ],
      "name": "grantRole",
      "outputs": [],
      "stateMutability": "nonpayable",
      "type": "function"
    },
    {
      "inputs": [
        {
          "internalType": "bytes32",
          "name": "role",
          "type": "bytes32"
        },
        {
          "internalType": "address",
          "name": "account",
          "type": "address"
        }
      ],
      "name": "hasRole",
      "outputs": [
        {
          "internalType": "bool",
          "name": "",
          "type": "bool"
        }
      ],
      "stateMutability": "view",
      "type": "function"
    },
    {
      "inputs": [],
      "name": "initialize",
      "outputs": [],
      "stateMutability": "nonpayable",
      "type": "function"
    },
    {
      "inputs": [
        {
          "internalType": "address",
          "name": "owner",
          "type": "address"
        },
        {
          "internalType": "address",
          "name": "operator",
          "type": "address"
        }
      ],
      "name": "isApprovedForAll",
      "outputs": [
        {
          "internalType": "bool",
          "name": "",
          "type": "bool"
        }
      ],
      "stateMutability": "view",
      "type": "function"
    },
    {
      "inputs": [],
      "name": "name",
      "outputs": [
        {
          "internalType": "string",
          "name": "",
          "type": "string"
        }
      ],
      "stateMutability": "view",
      "type": "function"
    },
    {
      "inputs": [],
      "name": "owner",
      "outputs": [
        {
          "internalType": "address",
          "name": "",
          "type": "address"
        }
      ],
      "stateMutability": "view",
      "type": "function"
    },
    {
      "inputs": [
        {
          "internalType": "uint256",
          "name": "tokenId",
          "type": "uint256"
        }
      ],
      "name": "ownerOf",
      "outputs": [
        {
          "internalType": "address",
          "name": "",
          "type": "address"
        }
      ],
      "stateMutability": "view",
      "type": "function"
    },
    {
      "inputs": [],
      "name": "pause",
      "outputs": [],
      "stateMutability": "nonpayable",
      "type": "function"
    },
    {
      "inputs": [],
      "name": "paused",
      "outputs": [
        {
          "internalType": "bool",
          "name": "",
          "type": "bool"
        }
      ],
      "stateMutability": "view",
      "type": "function"
    },
    {
      "inputs": [],
      "name": "projectVintageTokenCounter",
      "outputs": [
        {
          "internalType": "uint128",
          "name": "",
          "type": "uint128"
        }
      ],
      "stateMutability": "view",
      "type": "function"
    },
    {
      "inputs": [
        {
          "internalType": "uint256",
          "name": "",
          "type": "uint256"
        },
        {
          "internalType": "uint64",
          "name": "",
          "type": "uint64"
        }
      ],
      "name": "pvToTokenId",
      "outputs": [
        {
          "internalType": "uint256",
          "name": "",
          "type": "uint256"
        }
      ],
      "stateMutability": "view",
      "type": "function"
    },
    {
      "inputs": [
        {
          "internalType": "uint256",
          "name": "tokenId",
          "type": "uint256"
        }
      ],
      "name": "removeVintage",
      "outputs": [],
      "stateMutability": "nonpayable",
      "type": "function"
    },
    {
      "inputs": [],
      "name": "renounceOwnership",
      "outputs": [],
      "stateMutability": "nonpayable",
      "type": "function"
    },
    {
      "inputs": [
        {
          "internalType": "bytes32",
          "name": "role",
          "type": "bytes32"
        },
        {
          "internalType": "address",
          "name": "account",
          "type": "address"
        }
      ],
      "name": "renounceRole",
      "outputs": [],
      "stateMutability": "nonpayable",
      "type": "function"
    },
    {
      "inputs": [
        {
          "internalType": "bytes32",
          "name": "role",
          "type": "bytes32"
        },
        {
          "internalType": "address",
          "name": "account",
          "type": "address"
        }
      ],
      "name": "revokeRole",
      "outputs": [],
      "stateMutability": "nonpayable",
      "type": "function"
    },
    {
      "inputs": [
        {
          "internalType": "address",
          "name": "from",
          "type": "address"
        },
        {
          "internalType": "address",
          "name": "to",
          "type": "address"
        },
        {
          "internalType": "uint256",
          "name": "tokenId",
          "type": "uint256"
        }
      ],
      "name": "safeTransferFrom",
      "outputs": [],
      "stateMutability": "nonpayable",
      "type": "function"
    },
    {
      "inputs": [
        {
          "internalType": "address",
          "name": "from",
          "type": "address"
        },
        {
          "internalType": "address",
          "name": "to",
          "type": "address"
        },
        {
          "internalType": "uint256",
          "name": "tokenId",
          "type": "uint256"
        },
        {
          "internalType": "bytes",
          "name": "_data",
          "type": "bytes"
        }
      ],
      "name": "safeTransferFrom",
      "outputs": [],
      "stateMutability": "nonpayable",
      "type": "function"
    },
    {
      "inputs": [
        {
          "internalType": "address",
          "name": "operator",
          "type": "address"
        },
        {
          "internalType": "bool",
          "name": "approved",
          "type": "bool"
        }
      ],
      "name": "setApprovalForAll",
      "outputs": [],
      "stateMutability": "nonpayable",
      "type": "function"
    },
    {
      "inputs": [
        {
          "internalType": "string",
          "name": "baseURI_",
          "type": "string"
        }
      ],
      "name": "setBaseURI",
      "outputs": [],
      "stateMutability": "nonpayable",
      "type": "function"
    },
    {
      "inputs": [
        {
          "internalType": "address",
          "name": "_address",
          "type": "address"
        }
      ],
      "name": "setToucanContractRegistry",
      "outputs": [],
      "stateMutability": "nonpayable",
      "type": "function"
    },
    {
      "inputs": [
        {
          "internalType": "bytes4",
          "name": "interfaceId",
          "type": "bytes4"
        }
      ],
      "name": "supportsInterface",
      "outputs": [
        {
          "internalType": "bool",
          "name": "",
          "type": "bool"
        }
      ],
      "stateMutability": "view",
      "type": "function"
    },
    {
      "inputs": [],
      "name": "symbol",
      "outputs": [
        {
          "internalType": "string",
          "name": "",
          "type": "string"
        }
      ],
      "stateMutability": "view",
      "type": "function"
    },
    {
      "inputs": [
        {
          "internalType": "uint256",
          "name": "tokenId",
          "type": "uint256"
        }
      ],
      "name": "tokenURI",
      "outputs": [
        {
          "internalType": "string",
          "name": "",
          "type": "string"
        }
      ],
      "stateMutability": "view",
      "type": "function"
    },
    {
      "inputs": [],
      "name": "totalSupply",
      "outputs": [
        {
          "internalType": "uint128",
          "name": "",
          "type": "uint128"
        }
      ],
      "stateMutability": "view",
      "type": "function"
    },
    {
      "inputs": [
        {
          "internalType": "address",
          "name": "from",
          "type": "address"
        },
        {
          "internalType": "address",
          "name": "to",
          "type": "address"
        },
        {
          "internalType": "uint256",
          "name": "tokenId",
          "type": "uint256"
        }
      ],
      "name": "transferFrom",
      "outputs": [],
      "stateMutability": "nonpayable",
      "type": "function"
    },
    {
      "inputs": [
        {
          "internalType": "address",
          "name": "newOwner",
          "type": "address"
        }
      ],
      "name": "transferOwnership",
      "outputs": [],
      "stateMutability": "nonpayable",
      "type": "function"
    },
    {
      "inputs": [],
      "name": "unpause",
      "outputs": [],
      "stateMutability": "nonpayable",
      "type": "function"
    },
    {
      "inputs": [
        {
          "internalType": "uint256",
          "name": "tokenId",
          "type": "uint256"
        },
        {
          "components": [
            {
              "internalType": "string",
              "name": "name",
              "type": "string"
            },
            {
              "internalType": "uint64",
              "name": "startTime",
              "type": "uint64"
            },
            {
              "internalType": "uint64",
              "name": "endTime",
              "type": "uint64"
            },
            {
              "internalType": "uint256",
              "name": "projectTokenId",
              "type": "uint256"
            },
            {
              "internalType": "uint64",
              "name": "totalVintageQuantity",
              "type": "uint64"
            },
            {
              "internalType": "bool",
              "name": "isCorsiaCompliant",
              "type": "bool"
            },
            {
              "internalType": "bool",
              "name": "isCCPcompliant",
              "type": "bool"
            },
            {
              "internalType": "string",
              "name": "coBenefits",
              "type": "string"
            },
            {
              "internalType": "string",
              "name": "correspAdjustment",
              "type": "string"
            },
            {
              "internalType": "string",
              "name": "additionalCertification",
              "type": "string"
            },
            {
              "internalType": "string",
              "name": "uri",
              "type": "string"
            }
          ],
          "internalType": "struct VintageData",
          "name": "_vintageData",
          "type": "tuple"
        }
      ],
      "name": "updateProjectVintage",
      "outputs": [],
      "stateMutability": "nonpayable",
      "type": "function"
    },
    {
      "inputs": [
        {
          "internalType": "address",
          "name": "newImplementation",
          "type": "address"
        }
      ],
      "name": "upgradeTo",
      "outputs": [],
      "stateMutability": "nonpayable",
      "type": "function"
    },
    {
      "inputs": [
        {
          "internalType": "address",
          "name": "newImplementation",
          "type": "address"
        },
        {
          "internalType": "bytes",
          "name": "data",
          "type": "bytes"
        }
      ],
      "name": "upgradeToAndCall",
      "outputs": [],
      "stateMutability": "payable",
      "type": "function"
    },
    {
      "inputs": [
        {
          "internalType": "uint256",
          "name": "",
          "type": "uint256"
        }
      ],
      "name": "validProjectVintageIds",
      "outputs": [
        {
          "internalType": "bool",
          "name": "",
          "type": "bool"
        }
      ],
      "stateMutability": "view",
      "type": "function"
    },
    {
      "inputs": [
        {
          "internalType": "uint256",
          "name": "",
          "type": "uint256"
        }
      ],
      "name": "vintageData",
      "outputs": [
        {
          "internalType": "string",
          "name": "name",
          "type": "string"
        },
        {
          "internalType": "uint64",
          "name": "startTime",
          "type": "uint64"
        },
        {
          "internalType": "uint64",
          "name": "endTime",
          "type": "uint64"
        },
        {
          "internalType": "uint256",
          "name": "projectTokenId",
          "type": "uint256"
        },
        {
          "internalType": "uint64",
          "name": "totalVintageQuantity",
          "type": "uint64"
        },
        {
          "internalType": "bool",
          "name": "isCorsiaCompliant",
          "type": "bool"
        },
        {
          "internalType": "bool",
          "name": "isCCPcompliant",
          "type": "bool"
        },
        {
          "internalType": "string",
          "name": "coBenefits",
          "type": "string"
        },
        {
          "internalType": "string",
          "name": "correspAdjustment",
          "type": "string"
        },
        {
          "internalType": "string",
          "name": "additionalCertification",
          "type": "string"
        },
        {
          "internalType": "string",
          "name": "uri",
          "type": "string"
        }
      ],
      "stateMutability": "view",
      "type": "function"
    }
  ],
  "numDeployments": 3,
  "solcInputHash": "07ccc04b4a7b47b088fb8634dba9e0be",
  "bytecode": "0x60a06040523060601b60805234801561001757600080fd5b5060805160601c6144d761004b60003960008181611402015281816114420152818161155e015261159e01526144d76000f3fe6080604052600436106102a75760003560e01c80636b1a637e11610164578063abf410e5116100c6578063e304301c1161008a578063ec87621c11610064578063ec87621c1461084c578063f2fde38b14610880578063ffa1ad74146108a057600080fd5b8063e304301c146107b3578063e882e37b146107e3578063e985e9c51461080357600080fd5b8063abf410e514610713578063b88d4fde14610733578063c87b56dd14610753578063d547741f14610773578063db26f9611461079357600080fd5b80638456cb591161012857806395d89b411161010257806395d89b41146106c9578063a217fddf146106de578063a22cb465146106f357600080fd5b80638456cb59146106765780638da5cb5b1461068b57806391d14854146106a957600080fd5b80636b1a637e146105df5780636c0360eb1461061757806370a082311461062c578063715018a61461064c5780638129fc1c1461066157600080fd5b806336568abe1161020d5780634f558e79116101d15780635c975abb116101ab5780635c975abb146105875780636352211e1461059f57806368cb4901146105bf57600080fd5b80634f558e791461051057806355f804b314610530578063591f581b1461055057600080fd5b806336568abe146104885780633659cfe6146104a85780633f4ba83a146104c857806342842e0e146104dd5780634f1ef286146104fd57600080fd5b806315bbf0741161026f57806323b872dd1161024957806323b872dd14610417578063248a9ca3146104375780632f2ff15d1461046857600080fd5b806315bbf0741461039557806318160ddd146103c25780631e8231e4146103e957600080fd5b806301ffc9a7146102ac57806306dcc166146102e157806306fdde0314610319578063081812fc1461033b578063095ea7b314610373575b600080fd5b3480156102b857600080fd5b506102cc6102c7366004613cba565b6108d1565b60405190151581526020015b60405180910390f35b3480156102ed57600080fd5b50600054610301906001600160801b031681565b6040516001600160801b0390911681526020016102d8565b34801561032557600080fd5b5061032e6108fc565b6040516102d89190613ea5565b34801561034757600080fd5b5061035b610356366004613c7e565b61098e565b6040516001600160a01b0390911681526020016102d8565b34801561037f57600080fd5b5061039361038e366004613c37565b610a28565b005b3480156103a157600080fd5b506103b56103b0366004613c7e565b610b3e565b6040516102d89190614132565b3480156103ce57600080fd5b5060005461030190600160801b90046001600160801b031681565b3480156103f557600080fd5b50610409610404366004613bf4565b610f11565b6040519081526020016102d8565b34801561042357600080fd5b50610393610432366004613ad1565b611321565b34801561044357600080fd5b50610409610452366004613c7e565b6000908152610101602052604090206001015490565b34801561047457600080fd5b50610393610483366004613c96565b611352565b34801561049457600080fd5b506103936104a3366004613c96565b611379565b3480156104b457600080fd5b506103936104c3366004613a61565b6113f7565b3480156104d457600080fd5b506103936114d7565b3480156104e957600080fd5b506103936104f8366004613ad1565b611538565b61039361050b366004613ba7565b611553565b34801561051c57600080fd5b506102cc61052b366004613c7e565b611620565b34801561053c57600080fd5b5061039361054b366004613cf2565b61163f565b34801561055c57600080fd5b5061057061056b366004613c7e565b61169a565b6040516102d89b9a99989796959493929190613eb8565b34801561059357600080fd5b5060cf5460ff166102cc565b3480156105ab57600080fd5b5061035b6105ba366004613c7e565b6119b1565b3480156105cb57600080fd5b506103936105da366004613d24565b611a28565b3480156105eb57600080fd5b506104096105fa366004613d52565b600560209081526000928352604080842090915290825290205481565b34801561062357600080fd5b5061032e611cd5565b34801561063857600080fd5b50610409610647366004613a61565b611d63565b34801561065857600080fd5b50610393611dea565b34801561066d57600080fd5b50610393611e3e565b34801561068257600080fd5b50610393611f5d565b34801561069757600080fd5b50609d546001600160a01b031661035b565b3480156106b557600080fd5b506102cc6106c4366004613c96565b611fbe565b3480156106d557600080fd5b5061032e611fea565b3480156106ea57600080fd5b50610409600081565b3480156106ff57600080fd5b5061039361070e366004613b7a565b611ff9565b34801561071f57600080fd5b5060015461035b906001600160a01b031681565b34801561073f57600080fd5b5061039361074e366004613b11565b612004565b34801561075f57600080fd5b5061032e61076e366004613c7e565b61203c565b34801561077f57600080fd5b5061039361078e366004613c96565b6121b9565b34801561079f57600080fd5b506103936107ae366004613c7e565b6121e0565b3480156107bf57600080fd5b506102cc6107ce366004613c7e565b60046020526000908152604090205460ff1681565b3480156107ef57600080fd5b506103936107fe366004613a61565b61237f565b34801561080f57600080fd5b506102cc61081e366004613a99565b6001600160a01b03918216600090815260706020908152604080832093909416825291909152205460ff1690565b34801561085857600080fd5b506104097f241ecf16d79d0f8dbfb92cbc07fe17840425976cf0667f022fe9877caa831b0881565b34801561088c57600080fd5b5061039361089b366004613a61565b6123e9565b3480156108ac57600080fd5b5061032e604051806040016040528060058152602001640312e312e360dc1b81525081565b60006001600160e01b03198216637965db0b60e01b14806108f657506108f68261249f565b92915050565b6060606b805461090b9061432d565b80601f01602080910402602001604051908101604052809291908181526020018280546109379061432d565b80156109845780601f1061095957610100808354040283529160200191610984565b820191906000526020600020905b81548152906001019060200180831161096757829003601f168201915b5050505050905090565b6000818152606d60205260408120546001600160a01b0316610a0c5760405162461bcd60e51b815260206004820152602c60248201527f4552433732313a20617070726f76656420717565727920666f72206e6f6e657860448201526b34b9ba32b73a103a37b5b2b760a11b60648201526084015b60405180910390fd5b506000908152606f60205260409020546001600160a01b031690565b6000610a33826119b1565b9050806001600160a01b0316836001600160a01b03161415610aa15760405162461bcd60e51b815260206004820152602160248201527f4552433732313a20617070726f76616c20746f2063757272656e74206f776e656044820152603960f91b6064820152608401610a03565b336001600160a01b0382161480610abd5750610abd813361081e565b610b2f5760405162461bcd60e51b815260206004820152603860248201527f4552433732313a20617070726f76652063616c6c6572206973206e6f74206f7760448201527f6e6572206e6f7220617070726f76656420666f7220616c6c00000000000000006064820152608401610a03565b610b3983836124ef565b505050565b610bba6040518061016001604052806060815260200160006001600160401b0316815260200160006001600160401b031681526020016000815260200160006001600160401b03168152602001600015158152602001600015158152602001606081526020016060815260200160608152602001606081525090565b6000828152600360205260409081902081516101608101909252805482908290610be39061432d565b80601f0160208091040260200160405190810160405280929190818152602001828054610c0f9061432d565b8015610c5c5780601f10610c3157610100808354040283529160200191610c5c565b820191906000526020600020905b815481529060010190602001808311610c3f57829003601f168201915b505050918352505060018201546001600160401b038082166020840152600160401b9182900481166040840152600284015460608401526003840154908116608084015260ff9181048216151560a0840152600160481b900416151560c082015260048201805460e090920191610cd29061432d565b80601f0160208091040260200160405190810160405280929190818152602001828054610cfe9061432d565b8015610d4b5780601f10610d2057610100808354040283529160200191610d4b565b820191906000526020600020905b815481529060010190602001808311610d2e57829003601f168201915b50505050508152602001600582018054610d649061432d565b80601f0160208091040260200160405190810160405280929190818152602001828054610d909061432d565b8015610ddd5780601f10610db257610100808354040283529160200191610ddd565b820191906000526020600020905b815481529060010190602001808311610dc057829003601f168201915b50505050508152602001600682018054610df69061432d565b80601f0160208091040260200160405190810160405280929190818152602001828054610e229061432d565b8015610e6f5780601f10610e4457610100808354040283529160200191610e6f565b820191906000526020600020905b815481529060010190602001808311610e5257829003601f168201915b50505050508152602001600782018054610e889061432d565b80601f0160208091040260200160405190810160405280929190818152602001828054610eb49061432d565b8015610f015780601f10610ed657610100808354040283529160200191610f01565b820191906000526020600020905b815481529060010190602001808311610ee457829003601f168201915b5050505050815250509050919050565b6000610f3d7f241ecf16d79d0f8dbfb92cbc07fe17840425976cf0667f022fe9877caa831b0833611fbe565b80610f61575033610f56609d546001600160a01b031690565b6001600160a01b0316145b610fa85760405162461bcd60e51b815260206004820152601860248201527710d85b1b195c881a5cc81b9bdd08185d5d1a1bdc9a5e995960421b6044820152606401610a03565b60cf5460ff1615610fee5760405162461bcd60e51b815260206004820152601060248201526f14185d5cd8589b194e881c185d5cd95960821b6044820152606401610a03565b6001546060830151611009916001600160a01b03169061255d565b60608201516000908152600560209081526040808320828601516001600160401b03168452909152902054156110815760405162461bcd60e51b815260206004820152601c60248201527f4572726f723a2076696e7461676520616c7265616479206164646564000000006044820152606401610a03565b81604001516001600160401b031682602001516001600160401b0316106111055760405162461bcd60e51b815260206004820152603260248201527f4572726f723a2076696e7461676520737461727454696d65206d757374206265604482015271206c657373207468616e20656e6454696d6560701b6064820152608401610a03565b600080546001600160801b038082166001908101808316600160801b94859004841683019093169093026001600160801b03191691909117835581835260046020526040909220805460ff191690921790915561116284826126a4565b60008181526003602090815260409091208451805186936111879284929101906137a3565b5060208281015160018301805460408601516001600160401b039384166001600160801b031990921691909117600160401b91841682021790915560608501516002850155608085015160038501805460a088015160c08901519390951668ffffffffffffffffff19909116179315159092029290921760ff60481b1916600160481b9215159290920291909117905560e0830151805161122e92600485019201906137a3565b50610100820151805161124b9160058401916020909101906137a3565b5061012082015180516112689160068401916020909101906137a3565b5061014082015180516112859160078401916020909101906137a3565b505050606083810151602080860151604080516001600160a01b038a168152928301869052828101939093526001600160401b031692810192909252517fc86a7ca8aa1c36c7a1f88fc730a3b16d13dcd0b98d558e27eb1b210fc3bd13bc9181900360800190a160608301516000908152600560209081526040808320828701516001600160401b031684529091529020819055905092915050565b61132b33826127e6565b6113475760405162461bcd60e51b8152600401610a0390614096565b610b398383836128d9565b6000828152610101602052604090206001015461136f8133612a79565b610b398383612add565b6001600160a01b03811633146113e95760405162461bcd60e51b815260206004820152602f60248201527f416363657373436f6e74726f6c3a2063616e206f6e6c792072656e6f756e636560448201526e103937b632b9903337b91039b2b63360891b6064820152608401610a03565b6113f38282612b64565b5050565b306001600160a01b037f00000000000000000000000000000000000000000000000000000000000000001614156114405760405162461bcd60e51b8152600401610a0390613fb9565b7f00000000000000000000000000000000000000000000000000000000000000006001600160a01b0316611489600080516020614413833981519152546001600160a01b031690565b6001600160a01b0316146114af5760405162461bcd60e51b8152600401610a0390614005565b6114b881612bcc565b604080516000808252602082019092526114d491839190612c14565b50565b6001546001600160a01b03166114f5609d546001600160a01b031690565b6001600160a01b03821633148061151457506001600160a01b03811633145b6115305760405162461bcd60e51b8152600401610a0390614051565b6113f3612d78565b610b3983838360405180602001604052806000815250612004565b306001600160a01b037f000000000000000000000000000000000000000000000000000000000000000016141561159c5760405162461bcd60e51b8152600401610a0390613fb9565b7f00000000000000000000000000000000000000000000000000000000000000006001600160a01b03166115e5600080516020614413833981519152546001600160a01b031690565b6001600160a01b03161461160b5760405162461bcd60e51b8152600401610a0390614005565b61161482612bcc565b6113f382826001612c14565b6000818152606d60205260408120546001600160a01b031615156108f6565b609d546001600160a01b031633146116875760405162461bcd60e51b815260206004820181905260248201526000805160206144338339815191526044820152606401610a03565b80516113f39060029060208401906137a3565b6003602052600090815260409020805481906116b59061432d565b80601f01602080910402602001604051908101604052809291908181526020018280546116e19061432d565b801561172e5780601f106117035761010080835404028352916020019161172e565b820191906000526020600020905b81548152906001019060200180831161171157829003601f168201915b5050505060018301546002840154600385015460048601805495966001600160401b0380861697600160401b968790048216975094959084169490840460ff90811694600160481b90041692906117849061432d565b80601f01602080910402602001604051908101604052809291908181526020018280546117b09061432d565b80156117fd5780601f106117d2576101008083540402835291602001916117fd565b820191906000526020600020905b8154815290600101906020018083116117e057829003601f168201915b5050505050908060050180546118129061432d565b80601f016020809104026020016040519081016040528092919081815260200182805461183e9061432d565b801561188b5780601f106118605761010080835404028352916020019161188b565b820191906000526020600020905b81548152906001019060200180831161186e57829003601f168201915b5050505050908060060180546118a09061432d565b80601f01602080910402602001604051908101604052809291908181526020018280546118cc9061432d565b80156119195780601f106118ee57610100808354040283529160200191611919565b820191906000526020600020905b8154815290600101906020018083116118fc57829003601f168201915b50505050509080600701805461192e9061432d565b80601f016020809104026020016040519081016040528092919081815260200182805461195a9061432d565b80156119a75780601f1061197c576101008083540402835291602001916119a7565b820191906000526020600020905b81548152906001019060200180831161198a57829003601f168201915b505050505090508b565b6000818152606d60205260408120546001600160a01b0316806108f65760405162461bcd60e51b815260206004820152602960248201527f4552433732313a206f776e657220717565727920666f72206e6f6e657869737460448201526832b73a103a37b5b2b760b91b6064820152608401610a03565b611a527f241ecf16d79d0f8dbfb92cbc07fe17840425976cf0667f022fe9877caa831b0833611fbe565b80611a76575033611a6b609d546001600160a01b031690565b6001600160a01b0316145b611abd5760405162461bcd60e51b815260206004820152601860248201527710d85b1b195c881a5cc81b9bdd08185d5d1a1bdc9a5e995960421b6044820152606401610a03565b60cf5460ff1615611b035760405162461bcd60e51b815260206004820152601060248201526f14185d5cd8589b194e881c185d5cd95960821b6044820152606401610a03565b6000828152606d60205260409020546001600160a01b0316611b675760405162461bcd60e51b815260206004820152601660248201527f50726f6a656374206e6f7420796574206d696e746564000000000000000000006044820152606401610a03565b60008281526003602081815260408320600281015460608601529285905290815282518051849392611b9d9284929101906137a3565b5060208281015160018301805460408601516001600160401b039384166001600160801b031990921691909117600160401b91841682021790915560608501516002850155608085015160038501805460a088015160c08901519390951668ffffffffffffffffff19909116179315159092029290921760ff60481b1916600160481b9215159290920291909117905560e08301518051611c4492600485019201906137a3565b506101008201518051611c619160058401916020909101906137a3565b506101208201518051611c7e9160068401916020909101906137a3565b506101408201518051611c9b9160078401916020909101906137a3565b50506040518381527f9c270c68adf8a1de8e2cadd390648c2c2ba814ebc705acaef6f17bf40a99706f915060200160405180910390a15050565b60028054611ce29061432d565b80601f0160208091040260200160405190810160405280929190818152602001828054611d0e9061432d565b8015611d5b5780601f10611d3057610100808354040283529160200191611d5b565b820191906000526020600020905b815481529060010190602001808311611d3e57829003601f168201915b505050505081565b60006001600160a01b038216611dce5760405162461bcd60e51b815260206004820152602a60248201527f4552433732313a2062616c616e636520717565727920666f7220746865207a65604482015269726f206164647265737360b01b6064820152608401610a03565b506001600160a01b03166000908152606e602052604090205490565b609d546001600160a01b03163314611e325760405162461bcd60e51b815260206004820181905260248201526000805160206144338339815191526044820152606401610a03565b611e3c6000612e14565b565b600654610100900460ff16611e595760065460ff1615611e5d565b303b155b611ec05760405162461bcd60e51b815260206004820152602e60248201527f496e697469616c697a61626c653a20636f6e747261637420697320616c72656160448201526d191e481a5b9a5d1a585b1a5e995960921b6064820152608401610a03565b600654610100900460ff16158015611ee2576006805461ffff19166101011790555b611eea612e66565b611f2e60405180606001604052806028815260200161447a602891396040518060400160405280600a8152602001692a27aaa1a0a716a1a82b60b11b815250612e8d565b611f36612edb565b611f3e612f0b565b611f49600033612add565b80156114d4576006805461ff001916905550565b6001546001600160a01b0316611f7b609d546001600160a01b031690565b6001600160a01b038216331480611f9a57506001600160a01b03811633145b611fb65760405162461bcd60e51b8152600401610a0390614051565b6113f3612f3e565b6000918252610101602090815260408084206001600160a01b0393909316845291905290205460ff1690565b6060606c805461090b9061432d565b6113f3338383612fb9565b61200e33836127e6565b61202a5760405162461bcd60e51b8152600401610a0390614096565b61203684848484613088565b50505050565b6000818152606d60205260409020546060906001600160a01b03166120bd5760405162461bcd60e51b815260206004820152603160248201527f45524337323155524953746f726167653a2055524920717565727920666f72206044820152703737b732bc34b9ba32b73a103a37b5b2b760791b6064820152608401610a03565b600082815260036020526040812060070180546120d99061432d565b80601f01602080910402602001604051908101604052809291908181526020018280546121059061432d565b80156121525780601f1061212757610100808354040283529160200191612152565b820191906000526020600020905b81548152906001019060200180831161213557829003601f168201915b5050505050905060006121636130bb565b9050805160001415612176575092915050565b8151156121a8578082604051602001612190929190613dc5565b60405160208183030381529060405292505050919050565b6121b1846130ca565b949350505050565b600082815261010160205260409020600101546121d68133612a79565b610b398383612b64565b61220a7f241ecf16d79d0f8dbfb92cbc07fe17840425976cf0667f022fe9877caa831b0833611fbe565b8061222e575033612223609d546001600160a01b031690565b6001600160a01b0316145b6122755760405162461bcd60e51b815260206004820152601860248201527710d85b1b195c881a5cc81b9bdd08185d5d1a1bdc9a5e995960421b6044820152606401610a03565b60cf5460ff16156122bb5760405162461bcd60e51b815260206004820152601060248201526f14185d5cd8589b194e881c185d5cd95960821b6044820152606401610a03565b60008054600160801b90046001600160801b03169060106122db836142f3565b82546001600160801b039182166101009390930a9283029190920219909116179055506000818152600360205260408120906123178282613827565b6001820180546001600160801b031916905560006002830181905560038301805469ffffffffffffffffffff19169055612355906004840190613827565b612363600583016000613827565b612371600683016000613827565b610b39600783016000613827565b609d546001600160a01b031633146123c75760405162461bcd60e51b815260206004820181905260248201526000805160206144338339815191526044820152606401610a03565b600180546001600160a01b0319166001600160a01b0392909216919091179055565b609d546001600160a01b031633146124315760405162461bcd60e51b815260206004820181905260248201526000805160206144338339815191526044820152606401610a03565b6001600160a01b0381166124965760405162461bcd60e51b815260206004820152602660248201527f4f776e61626c653a206e6577206f776e657220697320746865207a65726f206160448201526564647265737360d01b6064820152608401610a03565b6114d481612e14565b60006001600160e01b031982166380ac58cd60e01b14806124d057506001600160e01b03198216635b5e139f60e01b145b806108f657506301ffc9a760e01b6001600160e01b03198316146108f6565b6000818152606f6020526040902080546001600160a01b0319166001600160a01b0384169081179091558190612524826119b1565b6001600160a01b03167f8c5be1e5ebec7d5bd14f71427d1e84f3dd0314c0f7b2291e5b200ac8c7c3b92560405160405180910390a45050565b6000826001600160a01b03166301157a836040518163ffffffff1660e01b815260040160206040518083038186803b15801561259857600080fd5b505afa1580156125ac573d6000803e3d6000fd5b505050506040513d601f19601f820116820180604052508101906125d09190613a7d565b60405163365fe85d60e01b8152600481018490529091506000906001600160a01b0383169063365fe85d90602401602060405180830381600087803b15801561261857600080fd5b505af115801561262c573d6000803e3d6000fd5b505050506040513d601f19601f820116820180604052508101906126509190613c62565b90506001811515146120365760405162461bcd60e51b815260206004820152601d60248201527f4572726f723a2050726f6a65637420646f6573206e6f742065786973740000006044820152606401610a03565b6001600160a01b0382166126fa5760405162461bcd60e51b815260206004820181905260248201527f4552433732313a206d696e7420746f20746865207a65726f20616464726573736044820152606401610a03565b6000818152606d60205260409020546001600160a01b03161561275f5760405162461bcd60e51b815260206004820152601c60248201527f4552433732313a20746f6b656e20616c7265616479206d696e746564000000006044820152606401610a03565b6001600160a01b0382166000908152606e60205260408120805460019290612788908490614265565b90915550506000818152606d602052604080822080546001600160a01b0319166001600160a01b03861690811790915590518392907fddf252ad1be2c89b69c2b068fc378daa952ba7f163c4a11628f55a4df523b3ef908290a45050565b6000818152606d60205260408120546001600160a01b031661285f5760405162461bcd60e51b815260206004820152602c60248201527f4552433732313a206f70657261746f7220717565727920666f72206e6f6e657860448201526b34b9ba32b73a103a37b5b2b760a11b6064820152608401610a03565b600061286a836119b1565b9050806001600160a01b0316846001600160a01b031614806128a55750836001600160a01b031661289a8461098e565b6001600160a01b0316145b806121b157506001600160a01b0380821660009081526070602090815260408083209388168352929052205460ff166121b1565b826001600160a01b03166128ec826119b1565b6001600160a01b0316146129545760405162461bcd60e51b815260206004820152602960248201527f4552433732313a207472616e73666572206f6620746f6b656e2074686174206960448201526839903737ba1037bbb760b91b6064820152608401610a03565b6001600160a01b0382166129b65760405162461bcd60e51b8152602060048201526024808201527f4552433732313a207472616e7366657220746f20746865207a65726f206164646044820152637265737360e01b6064820152608401610a03565b6129c16000826124ef565b6001600160a01b0383166000908152606e602052604081208054600192906129ea9084906142b0565b90915550506001600160a01b0382166000908152606e60205260408120805460019290612a18908490614265565b90915550506000818152606d602052604080822080546001600160a01b0319166001600160a01b0386811691821790925591518493918716917fddf252ad1be2c89b69c2b068fc378daa952ba7f163c4a11628f55a4df523b3ef91a4505050565b612a838282611fbe565b6113f357612a9b816001600160a01b031660146131a5565b612aa68360206131a5565b604051602001612ab7929190613df4565b60408051601f198184030181529082905262461bcd60e51b8252610a0391600401613ea5565b612ae78282611fbe565b6113f3576000828152610101602090815260408083206001600160a01b03851684529091529020805460ff19166001179055612b203390565b6001600160a01b0316816001600160a01b0316837f2f8788117e7eff1d82e926ec794901d17c78024a50270940304540a733656f0d60405160405180910390a45050565b612b6e8282611fbe565b156113f3576000828152610101602090815260408083206001600160a01b0385168085529252808320805460ff1916905551339285917ff6391f5c32d9c69d2a47ea670b442974b53935d1edc7fd64eb21e047a839171b9190a45050565b609d546001600160a01b031633146114d45760405162461bcd60e51b815260206004820181905260248201526000805160206144338339815191526044820152606401610a03565b6000612c35600080516020614413833981519152546001600160a01b031690565b9050612c4084613386565b600083511180612c4d5750815b15612c5e57612c5c8484613419565b505b7f4910fdfa16fed3260ed0e7147f7cc6da11a60208b5b9406d12a635614ffd9143805460ff16612d7157805460ff191660011781556040516001600160a01b0383166024820152612cdd90869060440160408051601f198184030181529190526020810180516001600160e01b0316631b2ce7f360e11b179052613419565b50805460ff19168155600080516020614413833981519152546001600160a01b03838116911614612d685760405162461bcd60e51b815260206004820152602f60248201527f45524331393637557067726164653a207570677261646520627265616b73206660448201526e75727468657220757067726164657360881b6064820152608401610a03565b612d7185613504565b5050505050565b60cf5460ff16612dca5760405162461bcd60e51b815260206004820152601460248201527f5061757361626c653a206e6f74207061757365640000000000000000000000006044820152606401610a03565b60cf805460ff191690557f5db9ee0a495bf2e6ff9c91a7834c1ba4fdd244a5e8aa4e537bd38aeae4b073aa335b6040516001600160a01b03909116815260200160405180910390a1565b609d80546001600160a01b038381166001600160a01b0319831681179093556040519116919082907f8be0079c531659141344cd1fd0a4f28419497f9722a3daafe3b4186f6b6457e090600090a35050565b600654610100900460ff16611e3c5760405162461bcd60e51b8152600401610a03906140e7565b600654610100900460ff16612eb45760405162461bcd60e51b8152600401610a03906140e7565b8151612ec790606b9060208501906137a3565b508051610b3990606c9060208401906137a3565b600654610100900460ff16612f025760405162461bcd60e51b8152600401610a03906140e7565b611e3c33612e14565b600654610100900460ff16612f325760405162461bcd60e51b8152600401610a03906140e7565b60cf805460ff19169055565b60cf5460ff1615612f845760405162461bcd60e51b815260206004820152601060248201526f14185d5cd8589b194e881c185d5cd95960821b6044820152606401610a03565b60cf805460ff191660011790557f62e78cea01bee320cd4e420270b5ea74000d11b0c9f74754ebdbfc544b05a258612df73390565b816001600160a01b0316836001600160a01b0316141561301b5760405162461bcd60e51b815260206004820152601960248201527f4552433732313a20617070726f766520746f2063616c6c6572000000000000006044820152606401610a03565b6001600160a01b03838116600081815260706020908152604080832094871680845294825291829020805460ff191686151590811790915591519182527f17307eab39ab6107e8899845ad3d59bd9653f200f220920489ca2b5937696c31910160405180910390a3505050565b6130938484846128d9565b61309f84848484613544565b6120365760405162461bcd60e51b8152600401610a0390613f67565b60606002805461090b9061432d565b6000818152606d60205260409020546060906001600160a01b03166131495760405162461bcd60e51b815260206004820152602f60248201527f4552433732314d657461646174613a2055524920717565727920666f72206e6f60448201526e3732bc34b9ba32b73a103a37b5b2b760891b6064820152608401610a03565b60006131536130bb565b90506000815111613173576040518060200160405280600081525061319e565b8061317d84613651565b60405160200161318e929190613dc5565b6040516020818303038152906040525b9392505050565b606060006131b4836002614291565b6131bf906002614265565b6001600160401b038111156131e457634e487b7160e01b600052604160045260246000fd5b6040519080825280601f01601f19166020018201604052801561320e576020820181803683370190505b509050600360fc1b8160008151811061323757634e487b7160e01b600052603260045260246000fd5b60200101906001600160f81b031916908160001a905350600f60fb1b8160018151811061327457634e487b7160e01b600052603260045260246000fd5b60200101906001600160f81b031916908160001a9053506000613298846002614291565b6132a3906001614265565b90505b6001811115613337576f181899199a1a9b1b9c1cb0b131b232b360811b85600f16601081106132e557634e487b7160e01b600052603260045260246000fd5b1a60f81b82828151811061330957634e487b7160e01b600052603260045260246000fd5b60200101906001600160f81b031916908160001a90535060049490941c9361333081614316565b90506132a6565b50831561319e5760405162461bcd60e51b815260206004820181905260248201527f537472696e67733a20686578206c656e67746820696e73756666696369656e746044820152606401610a03565b803b6133ea5760405162461bcd60e51b815260206004820152602d60248201527f455243313936373a206e657720696d706c656d656e746174696f6e206973206e60448201526c1bdd08184818dbdb9d1c9858dd609a1b6064820152608401610a03565b60008051602061441383398151915280546001600160a01b0319166001600160a01b0392909216919091179055565b6060823b6134785760405162461bcd60e51b815260206004820152602660248201527f416464726573733a2064656c65676174652063616c6c20746f206e6f6e2d636f6044820152651b9d1c9858dd60d21b6064820152608401610a03565b600080846001600160a01b0316846040516134939190613da9565b600060405180830381855af49150503d80600081146134ce576040519150601f19603f3d011682016040523d82523d6000602084013e6134d3565b606091505b50915091506134fb82826040518060600160405280602781526020016144536027913961376a565b95945050505050565b61350d81613386565b6040516001600160a01b038216907fbc7cd75a20ee27fd9adebab32041f755214dbc6bffa90cc0225b39da2e5c2d3b90600090a250565b60006001600160a01b0384163b1561364657604051630a85bd0160e11b81526001600160a01b0385169063150b7a0290613588903390899088908890600401613e69565b602060405180830381600087803b1580156135a257600080fd5b505af19250505080156135d2575060408051601f3d908101601f191682019092526135cf91810190613cd6565b60015b61362c573d808015613600576040519150601f19603f3d011682016040523d82523d6000602084013e613605565b606091505b5080516136245760405162461bcd60e51b8152600401610a0390613f67565b805181602001fd5b6001600160e01b031916630a85bd0160e11b1490506121b1565b506001949350505050565b6060816136755750506040805180820190915260018152600360fc1b602082015290565b8160005b811561369f578061368981614368565b91506136989050600a8361427d565b9150613679565b6000816001600160401b038111156136c757634e487b7160e01b600052604160045260246000fd5b6040519080825280601f01601f1916602001820160405280156136f1576020820181803683370190505b5090505b84156121b1576137066001836142b0565b9150613713600a86614383565b61371e906030614265565b60f81b81838151811061374157634e487b7160e01b600052603260045260246000fd5b60200101906001600160f81b031916908160001a905350613763600a8661427d565b94506136f5565b6060831561377957508161319e565b8251156137895782518084602001fd5b8160405162461bcd60e51b8152600401610a039190613ea5565b8280546137af9061432d565b90600052602060002090601f0160209004810192826137d15760008555613817565b82601f106137ea57805160ff1916838001178555613817565b82800160010185558215613817579182015b828111156138175782518255916020019190600101906137fc565b5061382392915061385d565b5090565b5080546138339061432d565b6000825580601f10613843575050565b601f0160209004906000526020600020908101906114d491905b5b80821115613823576000815560010161385e565b803561387d816143ee565b919050565b600082601f830112613892578081fd5b81356001600160401b03808211156138ac576138ac6143c3565b604051601f8301601f19908116603f011681019082821181831017156138d4576138d46143c3565b816040528381528660208588010111156138ec578485fd5b8360208701602083013792830160200193909352509392505050565b6000610160828403121561391a578081fd5b61392261423c565b905081356001600160401b038082111561393b57600080fd5b61394785838601613882565b835261395560208501613a4a565b602084015261396660408501613a4a565b60408401526060840135606084015261398160808501613a4a565b608084015261399260a08501613872565b60a08401526139a360c08501613872565b60c084015260e08401359150808211156139bc57600080fd5b6139c885838601613882565b60e0840152610100915081840135818111156139e357600080fd5b6139ef86828701613882565b838501525061012091508184013581811115613a0a57600080fd5b613a1686828701613882565b838501525061014091508184013581811115613a3157600080fd5b613a3d86828701613882565b8385015250505092915050565b80356001600160401b038116811461387d57600080fd5b600060208284031215613a72578081fd5b813561319e816143d9565b600060208284031215613a8e578081fd5b815161319e816143d9565b60008060408385031215613aab578081fd5b8235613ab6816143d9565b91506020830135613ac6816143d9565b809150509250929050565b600080600060608486031215613ae5578081fd5b8335613af0816143d9565b92506020840135613b00816143d9565b929592945050506040919091013590565b60008060008060808587031215613b26578081fd5b8435613b31816143d9565b93506020850135613b41816143d9565b92506040850135915060608501356001600160401b03811115613b62578182fd5b613b6e87828801613882565b91505092959194509250565b60008060408385031215613b8c578182fd5b8235613b97816143d9565b91506020830135613ac6816143ee565b60008060408385031215613bb9578182fd5b8235613bc4816143d9565b915060208301356001600160401b03811115613bde578182fd5b613bea85828601613882565b9150509250929050565b60008060408385031215613c06578182fd5b8235613c11816143d9565b915060208301356001600160401b03811115613c2b578182fd5b613bea85828601613908565b60008060408385031215613c49578081fd5b8235613c54816143d9565b946020939093013593505050565b600060208284031215613c73578081fd5b815161319e816143ee565b600060208284031215613c8f578081fd5b5035919050565b60008060408385031215613ca8578182fd5b823591506020830135613ac6816143d9565b600060208284031215613ccb578081fd5b813561319e816143fc565b600060208284031215613ce7578081fd5b815161319e816143fc565b600060208284031215613d03578081fd5b81356001600160401b03811115613d18578182fd5b6121b184828501613882565b60008060408385031215613d36578182fd5b8235915060208301356001600160401b03811115613c2b578182fd5b60008060408385031215613d64578182fd5b82359150613d7460208401613a4a565b90509250929050565b60008151808452613d958160208601602086016142c7565b601f01601f19169290920160200192915050565b60008251613dbb8184602087016142c7565b9190910192915050565b60008351613dd78184602088016142c7565b835190830190613deb8183602088016142c7565b01949350505050565b7f416363657373436f6e74726f6c3a206163636f756e7420000000000000000000815260008351613e2c8160178501602088016142c7565b7001034b99036b4b9b9b4b733903937b6329607d1b6017918401918201528351613e5d8160288401602088016142c7565b01602801949350505050565b60006001600160a01b03808716835280861660208401525083604083015260806060830152613e9b6080830184613d7d565b9695505050505050565b60208152600061319e6020830184613d7d565b6000610160808352613ecc8184018f613d7d565b6001600160401b038e811660208601528d81166040860152606085018d90528b16608085015289151560a0850152905087151560c084015282810360e0840152613f168188613d7d565b9050828103610100840152613f2b8187613d7d565b9050828103610120840152613f408186613d7d565b9050828103610140840152613f558185613d7d565b9e9d5050505050505050505050505050565b60208082526032908201527f4552433732313a207472616e7366657220746f206e6f6e20455243373231526560408201527131b2b4bb32b91034b6b83632b6b2b73a32b960711b606082015260800190565b6020808252602c908201527f46756e6374696f6e206d7573742062652063616c6c6564207468726f7567682060408201526b19195b1959d85d1958d85b1b60a21b606082015260800190565b6020808252602c908201527f46756e6374696f6e206d7573742062652063616c6c6564207468726f7567682060408201526b6163746976652070726f787960a01b606082015260800190565b60208082526025908201527f43616c6c6572206973206e6f74207468652072656769737472792c206e6f722060408201526437bbb732b960d91b606082015260800190565b60208082526031908201527f4552433732313a207472616e736665722063616c6c6572206973206e6f74206f6040820152701ddb995c881b9bdc88185c1c1c9bdd9959607a1b606082015260800190565b6020808252602b908201527f496e697469616c697a61626c653a20636f6e7472616374206973206e6f74206960408201526a6e697469616c697a696e6760a81b606082015260800190565b6020815260008251610160806020850152614151610180850183613d7d565b9150602085015161416d60408601826001600160401b03169052565b5060408501516001600160401b0381166060860152506060850151608085015260808501516141a760a08601826001600160401b03169052565b5060a085015180151560c08601525060c085015180151560e08601525060e0850151601f196101008187860301818801526141e28584613d7d565b9450808801519250506101208187860301818801526142018584613d7d565b9450808801519250506101408187860301818801526142208584613d7d565b908801518782039092018488015293509050613e9b8382613d7d565b60405161016081016001600160401b038111828210171561425f5761425f6143c3565b60405290565b6000821982111561427857614278614397565b500190565b60008261428c5761428c6143ad565b500490565b60008160001904831182151516156142ab576142ab614397565b500290565b6000828210156142c2576142c2614397565b500390565b60005b838110156142e25781810151838201526020016142ca565b838111156120365750506000910152565b60006001600160801b0382168061430c5761430c614397565b6000190192915050565b60008161432557614325614397565b506000190190565b600181811c9082168061434157607f821691505b6020821081141561436257634e487b7160e01b600052602260045260246000fd5b50919050565b600060001982141561437c5761437c614397565b5060010190565b600082614392576143926143ad565b500690565b634e487b7160e01b600052601160045260246000fd5b634e487b7160e01b600052601260045260246000fd5b634e487b7160e01b600052604160045260246000fd5b6001600160a01b03811681146114d457600080fd5b80151581146114d457600080fd5b6001600160e01b0319811681146114d457600080fdfe360894a13ba1a3210667c828492db98dca3e2076cc3735a920a3ca505d382bbc4f776e61626c653a2063616c6c6572206973206e6f7420746865206f776e6572416464726573733a206c6f772d6c6576656c2064656c65676174652063616c6c206661696c6564546f7563616e2050726f746f636f6c3a20436172626f6e2050726f6a6563742056696e7461676573a2646970667358221220882c75121c91fccb596a239989fdec8ad39c8abd0e53489d0d20e8fa63b13e2964736f6c63430008040033",
  "devdoc": {
    "kind": "dev",
    "methods": {
      "addNewVintage(address,(string,uint64,uint64,uint256,uint64,bool,bool,string,string,string,string))": {
        "details": "vintages can be added by data-managers"
      },
      "approve(address,uint256)": {
        "details": "See {IERC721-approve}."
      },
      "balanceOf(address)": {
        "details": "See {IERC721-balanceOf}."
      },
      "exists(uint256)": {
        "details": "Function to check whether a projectVintageToken exists, to be called by other (external) contracts"
      },
      "getApproved(uint256)": {
        "details": "See {IERC721-getApproved}."
      },
      "getProjectVintageDataByTokenId(uint256)": {
        "details": "retrieve all data from VintageData struct"
      },
      "getRoleAdmin(bytes32)": {
        "details": "Returns the admin role that controls `role`. See {grantRole} and {revokeRole}. To change a role's admin, use {_setRoleAdmin}."
      },
      "grantRole(bytes32,address)": {
        "details": "Grants `role` to `account`. If `account` had not been already granted `role`, emits a {RoleGranted} event. Requirements: - the caller must have ``role``'s admin role."
      },
      "hasRole(bytes32,address)": {
        "details": "Returns `true` if `account` has been granted `role`."
      },
      "isApprovedForAll(address,address)": {
        "details": "See {IERC721-isApprovedForAll}."
      },
      "name()": {
        "details": "See {IERC721Metadata-name}."
      },
      "owner()": {
        "details": "Returns the address of the current owner."
      },
      "ownerOf(uint256)": {
        "details": "See {IERC721-ownerOf}."
      },
      "pause()": {
        "details": "wraps _pause(), only Admin"
      },
      "paused()": {
        "details": "Returns true if the contract is paused, and false otherwise."
      },
      "removeVintage(uint256)": {
        "details": "Removes a project-vintage and corresponding data"
      },
      "renounceOwnership()": {
        "details": "Leaves the contract without owner. It will not be possible to call `onlyOwner` functions anymore. Can only be called by the current owner. NOTE: Renouncing ownership will leave the contract without an owner, thereby removing any functionality that is only available to the owner."
      },
      "renounceRole(bytes32,address)": {
        "details": "Revokes `role` from the calling account. Roles are often managed via {grantRole} and {revokeRole}: this function's purpose is to provide a mechanism for accounts to lose their privileges if they are compromised (such as when a trusted device is misplaced). If the calling account had been revoked `role`, emits a {RoleRevoked} event. Requirements: - the caller must be `account`."
      },
      "revokeRole(bytes32,address)": {
        "details": "Revokes `role` from `account`. If `account` had been granted `role`, emits a {RoleRevoked} event. Requirements: - the caller must have ``role``'s admin role."
      },
      "safeTransferFrom(address,address,uint256)": {
        "details": "See {IERC721-safeTransferFrom}."
      },
      "safeTransferFrom(address,address,uint256,bytes)": {
        "details": "See {IERC721-safeTransferFrom}."
      },
      "setApprovalForAll(address,bool)": {
        "details": "See {IERC721-setApprovalForAll}."
      },
      "symbol()": {
        "details": "See {IERC721Metadata-symbol}."
      },
      "tokenURI(uint256)": {
        "details": "Returns the Uniform Resource Identifier (URI) for `tokenId` token. based on the ERC721URIStorage implementation"
      },
      "transferFrom(address,address,uint256)": {
        "details": "See {IERC721-transferFrom}."
      },
      "transferOwnership(address)": {
        "details": "Transfers ownership of the contract to a new account (`newOwner`). Can only be called by the current owner."
      },
      "unpause()": {
        "details": "unpause the system, wraps _unpause(), only Admin"
      },
      "updateProjectVintage(uint256,(string,uint64,uint64,uint256,uint64,bool,bool,string,string,string,string))": {
        "details": "Only data-managers can update the data for correction except the sensitive `projectId`"
      },
      "upgradeTo(address)": {
        "details": "Upgrade the implementation of the proxy to `newImplementation`. Calls {_authorizeUpgrade}. Emits an {Upgraded} event."
      },
      "upgradeToAndCall(address,bytes)": {
        "details": "Upgrade the implementation of the proxy to `newImplementation`, and subsequently execute the function call encoded in `data`. Calls {_authorizeUpgrade}. Emits an {Upgraded} event."
      }
    },
    "stateVariables": {
      "MANAGER_ROLE": {
        "details": "All roles related to Access Control"
      }
    },
    "version": 1
  },
  "userdoc": {
    "kind": "user",
    "methods": {
      "addNewVintage(address,(string,uint64,uint64,uint256,uint64,bool,bool,string,string,string,string))": {
        "notice": "Adds a new carbon project-vintage along with attributes/data"
      },
      "pause()": {
        "notice": "Emergency function to disable contract's core functionality"
      },
      "updateProjectVintage(uint256,(string,uint64,uint64,uint256,uint64,bool,bool,string,string,string,string))": {
        "notice": "Updates and existing carbon project"
      }
    },
    "notice": "The CarbonProjectVintages contract stores vintage-specific data The data is stored in structs via ERC721 tokens Most contracts in the protocol query the data stored here Every `vintageData` struct points to a parent `CarbonProject`",
    "version": 1
  },
  "storageLayout": {
    "storage": [
      {
        "astId": 7961,
        "contract": "contracts/CarbonProjectVintages.sol:CarbonProjectVintages",
        "label": "projectVintageTokenCounter",
        "offset": 0,
        "slot": "0",
        "type": "t_uint128"
      },
      {
        "astId": 7963,
        "contract": "contracts/CarbonProjectVintages.sol:CarbonProjectVintages",
        "label": "totalSupply",
        "offset": 16,
        "slot": "0",
        "type": "t_uint128"
      },
      {
        "astId": 7965,
        "contract": "contracts/CarbonProjectVintages.sol:CarbonProjectVintages",
        "label": "contractRegistry",
        "offset": 0,
        "slot": "1",
        "type": "t_address"
      },
      {
        "astId": 7967,
        "contract": "contracts/CarbonProjectVintages.sol:CarbonProjectVintages",
        "label": "baseURI",
        "offset": 0,
        "slot": "2",
        "type": "t_string_storage"
      },
      {
        "astId": 7972,
        "contract": "contracts/CarbonProjectVintages.sol:CarbonProjectVintages",
        "label": "vintageData",
        "offset": 0,
        "slot": "3",
        "type": "t_mapping(t_uint256,t_struct(VintageData)7503_storage)"
      },
      {
        "astId": 7977,
        "contract": "contracts/CarbonProjectVintages.sol:CarbonProjectVintages",
        "label": "validProjectVintageIds",
        "offset": 0,
        "slot": "4",
        "type": "t_mapping(t_uint256,t_bool)"
      },
      {
        "astId": 7984,
        "contract": "contracts/CarbonProjectVintages.sol:CarbonProjectVintages",
        "label": "pvToTokenId",
        "offset": 0,
        "slot": "5",
        "type": "t_mapping(t_uint256,t_mapping(t_uint64,t_uint256))"
      },
      {
        "astId": 950,
        "contract": "contracts/CarbonProjectVintages.sol:CarbonProjectVintages",
        "label": "_initialized",
        "offset": 0,
        "slot": "6",
        "type": "t_bool"
      },
      {
        "astId": 953,
        "contract": "contracts/CarbonProjectVintages.sol:CarbonProjectVintages",
        "label": "_initializing",
        "offset": 1,
        "slot": "6",
        "type": "t_bool"
      },
      {
        "astId": 3848,
        "contract": "contracts/CarbonProjectVintages.sol:CarbonProjectVintages",
        "label": "__gap",
        "offset": 0,
        "slot": "7",
        "type": "t_array(t_uint256)50_storage"
      },
      {
        "astId": 4157,
        "contract": "contracts/CarbonProjectVintages.sol:CarbonProjectVintages",
        "label": "__gap",
        "offset": 0,
        "slot": "57",
        "type": "t_array(t_uint256)50_storage"
      },
      {
        "astId": 2170,
        "contract": "contracts/CarbonProjectVintages.sol:CarbonProjectVintages",
        "label": "_name",
        "offset": 0,
        "slot": "107",
        "type": "t_string_storage"
      },
      {
        "astId": 2172,
        "contract": "contracts/CarbonProjectVintages.sol:CarbonProjectVintages",
        "label": "_symbol",
        "offset": 0,
        "slot": "108",
        "type": "t_string_storage"
      },
      {
        "astId": 2176,
        "contract": "contracts/CarbonProjectVintages.sol:CarbonProjectVintages",
        "label": "_owners",
        "offset": 0,
        "slot": "109",
        "type": "t_mapping(t_uint256,t_address)"
      },
      {
        "astId": 2180,
        "contract": "contracts/CarbonProjectVintages.sol:CarbonProjectVintages",
        "label": "_balances",
        "offset": 0,
        "slot": "110",
        "type": "t_mapping(t_address,t_uint256)"
      },
      {
        "astId": 2184,
        "contract": "contracts/CarbonProjectVintages.sol:CarbonProjectVintages",
        "label": "_tokenApprovals",
        "offset": 0,
        "slot": "111",
        "type": "t_mapping(t_uint256,t_address)"
      },
      {
        "astId": 2190,
        "contract": "contracts/CarbonProjectVintages.sol:CarbonProjectVintages",
        "label": "_operatorApprovals",
        "offset": 0,
        "slot": "112",
        "type": "t_mapping(t_address,t_mapping(t_address,t_bool))"
      },
      {
        "astId": 3001,
        "contract": "contracts/CarbonProjectVintages.sol:CarbonProjectVintages",
        "label": "__gap",
        "offset": 0,
        "slot": "113",
        "type": "t_array(t_uint256)44_storage"
      },
      {
        "astId": 420,
        "contract": "contracts/CarbonProjectVintages.sol:CarbonProjectVintages",
        "label": "_owner",
        "offset": 0,
        "slot": "157",
        "type": "t_address"
      },
      {
        "astId": 534,
        "contract": "contracts/CarbonProjectVintages.sol:CarbonProjectVintages",
        "label": "__gap",
        "offset": 0,
        "slot": "158",
        "type": "t_array(t_uint256)49_storage"
      },
      {
        "astId": 1149,
        "contract": "contracts/CarbonProjectVintages.sol:CarbonProjectVintages",
        "label": "_paused",
        "offset": 0,
        "slot": "207",
        "type": "t_bool"
      },
      {
        "astId": 1240,
        "contract": "contracts/CarbonProjectVintages.sol:CarbonProjectVintages",
        "label": "__gap",
        "offset": 0,
        "slot": "208",
        "type": "t_array(t_uint256)49_storage"
      },
      {
        "astId": 48,
        "contract": "contracts/CarbonProjectVintages.sol:CarbonProjectVintages",
        "label": "_roles",
        "offset": 0,
        "slot": "257",
        "type": "t_mapping(t_bytes32,t_struct(RoleData)43_storage)"
      },
      {
        "astId": 335,
        "contract": "contracts/CarbonProjectVintages.sol:CarbonProjectVintages",
        "label": "__gap",
        "offset": 0,
        "slot": "258",
        "type": "t_array(t_uint256)49_storage"
      },
      {
        "astId": 932,
        "contract": "contracts/CarbonProjectVintages.sol:CarbonProjectVintages",
        "label": "__gap",
        "offset": 0,
        "slot": "307",
        "type": "t_array(t_uint256)50_storage"
      },
      {
        "astId": 1127,
        "contract": "contracts/CarbonProjectVintages.sol:CarbonProjectVintages",
        "label": "__gap",
        "offset": 0,
        "slot": "357",
        "type": "t_array(t_uint256)50_storage"
      }
    ],
    "types": {
      "t_address": {
        "encoding": "inplace",
        "label": "address",
        "numberOfBytes": "20"
      },
      "t_array(t_uint256)44_storage": {
        "base": "t_uint256",
        "encoding": "inplace",
        "label": "uint256[44]",
        "numberOfBytes": "1408"
      },
      "t_array(t_uint256)49_storage": {
        "base": "t_uint256",
        "encoding": "inplace",
        "label": "uint256[49]",
        "numberOfBytes": "1568"
      },
      "t_array(t_uint256)50_storage": {
        "base": "t_uint256",
        "encoding": "inplace",
        "label": "uint256[50]",
        "numberOfBytes": "1600"
      },
      "t_bool": {
        "encoding": "inplace",
        "label": "bool",
        "numberOfBytes": "1"
      },
      "t_bytes32": {
        "encoding": "inplace",
        "label": "bytes32",
        "numberOfBytes": "32"
      },
      "t_mapping(t_address,t_bool)": {
        "encoding": "mapping",
        "key": "t_address",
        "label": "mapping(address => bool)",
        "numberOfBytes": "32",
        "value": "t_bool"
      },
      "t_mapping(t_address,t_mapping(t_address,t_bool))": {
        "encoding": "mapping",
        "key": "t_address",
        "label": "mapping(address => mapping(address => bool))",
        "numberOfBytes": "32",
        "value": "t_mapping(t_address,t_bool)"
      },
      "t_mapping(t_address,t_uint256)": {
        "encoding": "mapping",
        "key": "t_address",
        "label": "mapping(address => uint256)",
        "numberOfBytes": "32",
        "value": "t_uint256"
      },
      "t_mapping(t_bytes32,t_struct(RoleData)43_storage)": {
        "encoding": "mapping",
        "key": "t_bytes32",
        "label": "mapping(bytes32 => struct AccessControlUpgradeable.RoleData)",
        "numberOfBytes": "32",
        "value": "t_struct(RoleData)43_storage"
      },
      "t_mapping(t_uint256,t_address)": {
        "encoding": "mapping",
        "key": "t_uint256",
        "label": "mapping(uint256 => address)",
        "numberOfBytes": "32",
        "value": "t_address"
      },
      "t_mapping(t_uint256,t_bool)": {
        "encoding": "mapping",
        "key": "t_uint256",
        "label": "mapping(uint256 => bool)",
        "numberOfBytes": "32",
        "value": "t_bool"
      },
      "t_mapping(t_uint256,t_mapping(t_uint64,t_uint256))": {
        "encoding": "mapping",
        "key": "t_uint256",
        "label": "mapping(uint256 => mapping(uint64 => uint256))",
        "numberOfBytes": "32",
        "value": "t_mapping(t_uint64,t_uint256)"
      },
      "t_mapping(t_uint256,t_struct(VintageData)7503_storage)": {
        "encoding": "mapping",
        "key": "t_uint256",
        "label": "mapping(uint256 => struct VintageData)",
        "numberOfBytes": "32",
        "value": "t_struct(VintageData)7503_storage"
      },
      "t_mapping(t_uint64,t_uint256)": {
        "encoding": "mapping",
        "key": "t_uint64",
        "label": "mapping(uint64 => uint256)",
        "numberOfBytes": "32",
        "value": "t_uint256"
      },
      "t_string_storage": {
        "encoding": "bytes",
        "label": "string",
        "numberOfBytes": "32"
      },
      "t_struct(RoleData)43_storage": {
        "encoding": "inplace",
        "label": "struct AccessControlUpgradeable.RoleData",
        "members": [
          {
            "astId": 40,
            "contract": "contracts/CarbonProjectVintages.sol:CarbonProjectVintages",
            "label": "members",
            "offset": 0,
            "slot": "0",
            "type": "t_mapping(t_address,t_bool)"
          },
          {
            "astId": 42,
            "contract": "contracts/CarbonProjectVintages.sol:CarbonProjectVintages",
            "label": "adminRole",
            "offset": 0,
            "slot": "1",
            "type": "t_bytes32"
          }
        ],
        "numberOfBytes": "64"
      },
      "t_struct(VintageData)7503_storage": {
        "encoding": "inplace",
        "label": "struct VintageData",
        "members": [
          {
            "astId": 7482,
            "contract": "contracts/CarbonProjectVintages.sol:CarbonProjectVintages",
            "label": "name",
            "offset": 0,
            "slot": "0",
            "type": "t_string_storage"
          },
          {
            "astId": 7484,
            "contract": "contracts/CarbonProjectVintages.sol:CarbonProjectVintages",
            "label": "startTime",
            "offset": 0,
            "slot": "1",
            "type": "t_uint64"
          },
          {
            "astId": 7486,
            "contract": "contracts/CarbonProjectVintages.sol:CarbonProjectVintages",
            "label": "endTime",
            "offset": 8,
            "slot": "1",
            "type": "t_uint64"
          },
          {
            "astId": 7488,
            "contract": "contracts/CarbonProjectVintages.sol:CarbonProjectVintages",
            "label": "projectTokenId",
            "offset": 0,
            "slot": "2",
            "type": "t_uint256"
          },
          {
            "astId": 7490,
            "contract": "contracts/CarbonProjectVintages.sol:CarbonProjectVintages",
            "label": "totalVintageQuantity",
            "offset": 0,
            "slot": "3",
            "type": "t_uint64"
          },
          {
            "astId": 7492,
            "contract": "contracts/CarbonProjectVintages.sol:CarbonProjectVintages",
            "label": "isCorsiaCompliant",
            "offset": 8,
            "slot": "3",
            "type": "t_bool"
          },
          {
            "astId": 7494,
            "contract": "contracts/CarbonProjectVintages.sol:CarbonProjectVintages",
            "label": "isCCPcompliant",
            "offset": 9,
            "slot": "3",
            "type": "t_bool"
          },
          {
            "astId": 7496,
            "contract": "contracts/CarbonProjectVintages.sol:CarbonProjectVintages",
            "label": "coBenefits",
            "offset": 0,
            "slot": "4",
            "type": "t_string_storage"
          },
          {
            "astId": 7498,
            "contract": "contracts/CarbonProjectVintages.sol:CarbonProjectVintages",
            "label": "correspAdjustment",
            "offset": 0,
            "slot": "5",
            "type": "t_string_storage"
          },
          {
            "astId": 7500,
            "contract": "contracts/CarbonProjectVintages.sol:CarbonProjectVintages",
            "label": "additionalCertification",
            "offset": 0,
            "slot": "6",
            "type": "t_string_storage"
          },
          {
            "astId": 7502,
            "contract": "contracts/CarbonProjectVintages.sol:CarbonProjectVintages",
            "label": "uri",
            "offset": 0,
            "slot": "7",
            "type": "t_string_storage"
          }
        ],
        "numberOfBytes": "256"
      },
      "t_uint128": {
        "encoding": "inplace",
        "label": "uint128",
        "numberOfBytes": "16"
      },
      "t_uint256": {
        "encoding": "inplace",
        "label": "uint256",
        "numberOfBytes": "32"
      },
      "t_uint64": {
        "encoding": "inplace",
        "label": "uint64",
        "numberOfBytes": "8"
      }
    }
  }
}