{
  "address": "0x82400Cb8A608E746D179c8Df12266544B0C8A48A",
  "abi": [
    {
      "inputs": [],
      "stateMutability": "nonpayable",
      "type": "constructor"
    },
    {
      "anonymous": false,
      "inputs": [
        {
          "indexed": false,
          "internalType": "address",
          "name": "previousAdmin",
          "type": "address"
        },
        {
          "indexed": false,
          "internalType": "address",
          "name": "newAdmin",
          "type": "address"
        }
      ],
      "name": "AdminChanged",
      "type": "event"
    },
    {
      "anonymous": false,
      "inputs": [
        {
          "indexed": true,
          "internalType": "address",
          "name": "owner",
          "type": "address"
        },
        {
          "indexed": true,
          "internalType": "address",
          "name": "approved",
          "type": "address"
        },
        {
          "indexed": true,
          "internalType": "uint256",
          "name": "tokenId",
          "type": "uint256"
        }
      ],
      "name": "Approval",
      "type": "event"
    },
    {
      "anonymous": false,
      "inputs": [
        {
          "indexed": true,
          "internalType": "address",
          "name": "owner",
          "type": "address"
        },
        {
          "indexed": true,
          "internalType": "address",
          "name": "operator",
          "type": "address"
        },
        {
          "indexed": false,
          "internalType": "bool",
          "name": "approved",
          "type": "bool"
        }
      ],
      "name": "ApprovalForAll",
      "type": "event"
    },
    {
      "anonymous": false,
      "inputs": [
        {
          "indexed": false,
          "internalType": "uint256",
          "name": "tokenId",
          "type": "uint256"
        },
        {
          "indexed": false,
          "internalType": "uint256",
          "name": "commentId",
          "type": "uint256"
        },
        {
          "indexed": false,
          "internalType": "address",
          "name": "sender",
          "type": "address"
        },
        {
          "indexed": false,
          "internalType": "string",
          "name": "comment",
          "type": "string"
        }
      ],
      "name": "BatchComment",
      "type": "event"
    },
    {
      "anonymous": false,
      "inputs": [
        {
          "indexed": false,
          "internalType": "uint256",
          "name": "tokenId",
          "type": "uint256"
        },
        {
          "indexed": false,
          "internalType": "uint256",
          "name": "projectVintageTokenId",
          "type": "uint256"
        }
      ],
      "name": "BatchLinkedWithVintage",
      "type": "event"
    },
    {
      "anonymous": false,
      "inputs": [
        {
          "indexed": false,
          "internalType": "address",
          "name": "sender",
          "type": "address"
        },
        {
          "indexed": false,
          "internalType": "uint256",
          "name": "tokenId",
          "type": "uint256"
        }
      ],
      "name": "BatchMinted",
      "type": "event"
    },
    {
      "anonymous": false,
      "inputs": [
        {
          "indexed": false,
          "internalType": "uint256",
          "name": "tokenId",
          "type": "uint256"
        },
        {
          "indexed": false,
          "internalType": "enum RetirementStatus",
          "name": "status",
          "type": "uint8"
        }
      ],
      "name": "BatchStatusUpdate",
      "type": "event"
    },
    {
      "anonymous": false,
      "inputs": [
        {
          "indexed": false,
          "internalType": "uint256",
          "name": "tokenId",
          "type": "uint256"
        },
        {
          "indexed": false,
          "internalType": "string",
          "name": "serialNumber",
          "type": "string"
        },
        {
          "indexed": false,
          "internalType": "uint256",
          "name": "quantity",
          "type": "uint256"
        }
      ],
      "name": "BatchUpdated",
      "type": "event"
    },
    {
      "anonymous": false,
      "inputs": [
        {
          "indexed": true,
          "internalType": "address",
          "name": "beacon",
          "type": "address"
        }
      ],
      "name": "BeaconUpgraded",
      "type": "event"
    },
    {
      "anonymous": false,
      "inputs": [
        {
          "indexed": false,
          "internalType": "uint8",
          "name": "version",
          "type": "uint8"
        }
      ],
      "name": "Initialized",
      "type": "event"
    },
    {
      "anonymous": false,
      "inputs": [
        {
          "indexed": true,
          "internalType": "address",
          "name": "previousOwner",
          "type": "address"
        },
        {
          "indexed": true,
          "internalType": "address",
          "name": "newOwner",
          "type": "address"
        }
      ],
      "name": "OwnershipTransferred",
      "type": "event"
    },
    {
      "anonymous": false,
      "inputs": [
        {
          "indexed": false,
          "internalType": "address",
          "name": "account",
          "type": "address"
        }
      ],
      "name": "Paused",
      "type": "event"
    },
    {
      "anonymous": false,
      "inputs": [
        {
          "indexed": true,
          "internalType": "bytes32",
          "name": "role",
          "type": "bytes32"
        },
        {
          "indexed": true,
          "internalType": "bytes32",
          "name": "previousAdminRole",
          "type": "bytes32"
        },
        {
          "indexed": true,
          "internalType": "bytes32",
          "name": "newAdminRole",
          "type": "bytes32"
        }
      ],
      "name": "RoleAdminChanged",
      "type": "event"
    },
    {
      "anonymous": false,
      "inputs": [
        {
          "indexed": true,
          "internalType": "bytes32",
          "name": "role",
          "type": "bytes32"
        },
        {
          "indexed": true,
          "internalType": "address",
          "name": "account",
          "type": "address"
        },
        {
          "indexed": true,
          "internalType": "address",
          "name": "sender",
          "type": "address"
        }
      ],
      "name": "RoleGranted",
      "type": "event"
    },
    {
      "anonymous": false,
      "inputs": [
        {
          "indexed": true,
          "internalType": "bytes32",
          "name": "role",
          "type": "bytes32"
        },
        {
          "indexed": true,
          "internalType": "address",
          "name": "account",
          "type": "address"
        },
        {
          "indexed": true,
          "internalType": "address",
          "name": "sender",
          "type": "address"
        }
      ],
      "name": "RoleRevoked",
      "type": "event"
    },
    {
      "anonymous": false,
      "inputs": [
        {
          "indexed": true,
          "internalType": "address",
          "name": "from",
          "type": "address"
        },
        {
          "indexed": true,
          "internalType": "address",
          "name": "to",
          "type": "address"
        },
        {
          "indexed": true,
          "internalType": "uint256",
          "name": "tokenId",
          "type": "uint256"
        }
      ],
      "name": "Transfer",
      "type": "event"
    },
    {
      "anonymous": false,
      "inputs": [
        {
          "indexed": false,
          "internalType": "address",
          "name": "account",
          "type": "address"
        }
      ],
      "name": "Unpaused",
      "type": "event"
    },
    {
      "anonymous": false,
      "inputs": [
        {
          "indexed": true,
          "internalType": "address",
          "name": "implementation",
          "type": "address"
        }
      ],
      "name": "Upgraded",
      "type": "event"
    },
    {
      "inputs": [],
      "name": "DEFAULT_ADMIN_ROLE",
      "outputs": [
        {
          "internalType": "bytes32",
          "name": "",
          "type": "bytes32"
        }
      ],
      "stateMutability": "view",
      "type": "function"
    },
    {
      "inputs": [
        {
          "internalType": "string",
          "name": "",
          "type": "string"
        }
      ],
      "name": "URIs",
      "outputs": [
        {
          "internalType": "bool",
          "name": "",
          "type": "bool"
        }
      ],
      "stateMutability": "view",
      "type": "function"
    },
    {
      "inputs": [],
      "name": "VERIFIER_ROLE",
      "outputs": [
        {
          "internalType": "bytes32",
          "name": "",
          "type": "bytes32"
        }
      ],
      "stateMutability": "view",
      "type": "function"
    },
    {
      "inputs": [],
      "name": "VERSION",
      "outputs": [
        {
          "internalType": "string",
          "name": "",
          "type": "string"
        }
      ],
      "stateMutability": "view",
      "type": "function"
    },
    {
      "inputs": [
        {
          "internalType": "uint256",
          "name": "tokenId",
          "type": "uint256"
        },
        {
          "internalType": "string",
          "name": "comment",
          "type": "string"
        }
      ],
      "name": "addComment",
      "outputs": [],
      "stateMutability": "nonpayable",
      "type": "function"
    },
    {
      "inputs": [
        {
          "internalType": "address",
          "name": "to",
          "type": "address"
        },
        {
          "internalType": "uint256",
          "name": "tokenId",
          "type": "uint256"
        }
      ],
      "name": "approve",
      "outputs": [],
      "stateMutability": "nonpayable",
      "type": "function"
    },
    {
      "inputs": [
        {
          "internalType": "address",
          "name": "owner",
          "type": "address"
        }
      ],
      "name": "balanceOf",
      "outputs": [
        {
          "internalType": "uint256",
          "name": "",
          "type": "uint256"
        }
      ],
      "stateMutability": "view",
      "type": "function"
    },
    {
      "inputs": [],
      "name": "baseURI",
      "outputs": [
        {
          "internalType": "string",
          "name": "",
          "type": "string"
        }
      ],
      "stateMutability": "view",
      "type": "function"
    },
    {
      "inputs": [],
      "name": "batchTokenCounter",
      "outputs": [
        {
          "internalType": "uint256",
          "name": "",
          "type": "uint256"
        }
      ],
      "stateMutability": "view",
      "type": "function"
    },
    {
      "inputs": [
        {
          "internalType": "uint256",
          "name": "tokenId",
          "type": "uint256"
        }
      ],
      "name": "confirmRetirement",
      "outputs": [],
      "stateMutability": "nonpayable",
      "type": "function"
    },
    {
      "inputs": [
        {
          "internalType": "uint256",
          "name": "tokenId",
          "type": "uint256"
        },
        {
          "internalType": "uint256",
          "name": "projectVintageTokenId",
          "type": "uint256"
        }
      ],
      "name": "confirmRetirementWithVintage",
      "outputs": [],
      "stateMutability": "nonpayable",
      "type": "function"
    },
    {
      "inputs": [],
      "name": "contractRegistry",
      "outputs": [
        {
          "internalType": "address",
          "name": "",
          "type": "address"
        }
      ],
      "stateMutability": "view",
      "type": "function"
    },
    {
      "inputs": [
        {
          "internalType": "uint256",
          "name": "tokenId",
          "type": "uint256"
        }
      ],
      "name": "fractionalize",
      "outputs": [],
      "stateMutability": "nonpayable",
      "type": "function"
    },
    {
      "inputs": [
        {
          "internalType": "uint256",
          "name": "tokenId",
          "type": "uint256"
        }
      ],
      "name": "getApproved",
      "outputs": [
        {
          "internalType": "address",
          "name": "",
          "type": "address"
        }
      ],
      "stateMutability": "view",
      "type": "function"
    },
    {
      "inputs": [
        {
          "internalType": "uint256",
          "name": "tokenId",
          "type": "uint256"
        }
      ],
      "name": "getBatchNFTData",
      "outputs": [
        {
          "internalType": "uint256",
          "name": "",
          "type": "uint256"
        },
        {
          "internalType": "uint256",
          "name": "",
          "type": "uint256"
        },
        {
          "internalType": "enum RetirementStatus",
          "name": "",
          "type": "uint8"
        }
      ],
      "stateMutability": "view",
      "type": "function"
    },
    {
      "inputs": [
        {
          "internalType": "uint256",
          "name": "tokenId",
          "type": "uint256"
        }
      ],
      "name": "getComments",
      "outputs": [
        {
          "internalType": "string[]",
          "name": "",
          "type": "string[]"
        },
        {
          "internalType": "address[]",
          "name": "",
          "type": "address[]"
        }
      ],
      "stateMutability": "view",
      "type": "function"
    },
    {
      "inputs": [
        {
          "internalType": "uint256",
          "name": "tokenId",
          "type": "uint256"
        }
      ],
      "name": "getConfirmationStatus",
      "outputs": [
        {
          "internalType": "enum RetirementStatus",
          "name": "",
          "type": "uint8"
        }
      ],
      "stateMutability": "view",
      "type": "function"
    },
    {
      "inputs": [
        {
          "internalType": "bytes32",
          "name": "role",
          "type": "bytes32"
        }
      ],
      "name": "getRoleAdmin",
      "outputs": [
        {
          "internalType": "bytes32",
          "name": "",
          "type": "bytes32"
        }
      ],
      "stateMutability": "view",
      "type": "function"
    },
    {
      "inputs": [
        {
          "internalType": "bytes32",
          "name": "role",
          "type": "bytes32"
        },
        {
          "internalType": "address",
          "name": "account",
          "type": "address"
        }
      ],
      "name": "grantRole",
      "outputs": [],
      "stateMutability": "nonpayable",
      "type": "function"
    },
    {
      "inputs": [
        {
          "internalType": "bytes32",
          "name": "role",
          "type": "bytes32"
        },
        {
          "internalType": "address",
          "name": "account",
          "type": "address"
        }
      ],
      "name": "hasRole",
      "outputs": [
        {
          "internalType": "bool",
          "name": "",
          "type": "bool"
        }
      ],
      "stateMutability": "view",
      "type": "function"
    },
    {
      "inputs": [
        {
          "internalType": "address",
          "name": "_contractRegistry",
          "type": "address"
        }
      ],
      "name": "initialize",
      "outputs": [],
      "stateMutability": "nonpayable",
      "type": "function"
    },
    {
      "inputs": [
        {
          "internalType": "address",
          "name": "owner",
          "type": "address"
        },
        {
          "internalType": "address",
          "name": "operator",
          "type": "address"
        }
      ],
      "name": "isApprovedForAll",
      "outputs": [
        {
          "internalType": "bool",
          "name": "",
          "type": "bool"
        }
      ],
      "stateMutability": "view",
      "type": "function"
    },
    {
      "inputs": [
        {
          "internalType": "uint256",
          "name": "tokenId",
          "type": "uint256"
        },
        {
          "internalType": "uint256",
          "name": "projectVintageTokenId",
          "type": "uint256"
        }
      ],
      "name": "linkWithVintage",
      "outputs": [],
      "stateMutability": "nonpayable",
      "type": "function"
    },
    {
      "inputs": [
        {
          "internalType": "address",
          "name": "to",
          "type": "address"
        }
      ],
      "name": "mintEmptyBatch",
      "outputs": [],
      "stateMutability": "nonpayable",
      "type": "function"
    },
    {
      "inputs": [],
      "name": "name",
      "outputs": [
        {
          "internalType": "string",
          "name": "",
          "type": "string"
        }
      ],
      "stateMutability": "view",
      "type": "function"
    },
    {
      "inputs": [
        {
          "internalType": "uint256",
          "name": "",
          "type": "uint256"
        }
      ],
      "name": "nftList",
      "outputs": [
        {
          "internalType": "uint256",
          "name": "projectVintageTokenId",
          "type": "uint256"
        },
        {
          "internalType": "string",
          "name": "serialNumber",
          "type": "string"
        },
        {
          "internalType": "uint256",
          "name": "quantity",
          "type": "uint256"
        },
        {
          "internalType": "enum RetirementStatus",
          "name": "status",
          "type": "uint8"
        },
        {
          "internalType": "string",
          "name": "uri",
          "type": "string"
        }
      ],
      "stateMutability": "view",
      "type": "function"
    },
    {
      "inputs": [],
      "name": "owner",
      "outputs": [
        {
          "internalType": "address",
          "name": "",
          "type": "address"
        }
      ],
      "stateMutability": "view",
      "type": "function"
    },
    {
      "inputs": [
        {
          "internalType": "uint256",
          "name": "tokenId",
          "type": "uint256"
        }
      ],
      "name": "ownerOf",
      "outputs": [
        {
          "internalType": "address",
          "name": "",
          "type": "address"
        }
      ],
      "stateMutability": "view",
      "type": "function"
    },
    {
      "inputs": [],
      "name": "pause",
      "outputs": [],
      "stateMutability": "nonpayable",
      "type": "function"
    },
    {
      "inputs": [],
      "name": "paused",
      "outputs": [
        {
          "internalType": "bool",
          "name": "",
          "type": "bool"
        }
      ],
      "stateMutability": "view",
      "type": "function"
    },
    {
      "inputs": [],
      "name": "proxiableUUID",
      "outputs": [
        {
          "internalType": "bytes32",
          "name": "",
          "type": "bytes32"
        }
      ],
      "stateMutability": "view",
      "type": "function"
    },
    {
      "inputs": [
        {
          "internalType": "uint256",
          "name": "tokenId",
          "type": "uint256"
        },
        {
          "internalType": "string",
          "name": "comment",
          "type": "string"
        }
      ],
      "name": "rejectApprovedWithComment",
      "outputs": [],
      "stateMutability": "nonpayable",
      "type": "function"
    },
    {
      "inputs": [
        {
          "internalType": "uint256",
          "name": "tokenId",
          "type": "uint256"
        }
      ],
      "name": "rejectRetirement",
      "outputs": [],
      "stateMutability": "nonpayable",
      "type": "function"
    },
    {
      "inputs": [
        {
          "internalType": "uint256",
          "name": "tokenId",
          "type": "uint256"
        },
        {
          "internalType": "string",
          "name": "comment",
          "type": "string"
        }
      ],
      "name": "rejectWithComment",
      "outputs": [],
      "stateMutability": "nonpayable",
      "type": "function"
    },
    {
      "inputs": [],
      "name": "renounceOwnership",
      "outputs": [],
      "stateMutability": "nonpayable",
      "type": "function"
    },
    {
      "inputs": [
        {
          "internalType": "bytes32",
          "name": "role",
          "type": "bytes32"
        },
        {
          "internalType": "address",
          "name": "account",
          "type": "address"
        }
      ],
      "name": "renounceRole",
      "outputs": [],
      "stateMutability": "nonpayable",
      "type": "function"
    },
    {
      "inputs": [
        {
          "internalType": "bytes32",
          "name": "role",
          "type": "bytes32"
        },
        {
          "internalType": "address",
          "name": "account",
          "type": "address"
        }
      ],
      "name": "revokeRole",
      "outputs": [],
      "stateMutability": "nonpayable",
      "type": "function"
    },
    {
      "inputs": [
        {
          "internalType": "address",
          "name": "from",
          "type": "address"
        },
        {
          "internalType": "address",
          "name": "to",
          "type": "address"
        },
        {
          "internalType": "uint256",
          "name": "tokenId",
          "type": "uint256"
        }
      ],
      "name": "safeTransferFrom",
      "outputs": [],
      "stateMutability": "nonpayable",
      "type": "function"
    },
    {
      "inputs": [
        {
          "internalType": "address",
          "name": "from",
          "type": "address"
        },
        {
          "internalType": "address",
          "name": "to",
          "type": "address"
        },
        {
          "internalType": "uint256",
          "name": "tokenId",
          "type": "uint256"
        },
        {
          "internalType": "bytes",
          "name": "_data",
          "type": "bytes"
        }
      ],
      "name": "safeTransferFrom",
      "outputs": [],
      "stateMutability": "nonpayable",
      "type": "function"
    },
    {
      "inputs": [
        {
          "internalType": "string",
          "name": "",
          "type": "string"
        }
      ],
      "name": "serialNumberApproved",
      "outputs": [
        {
          "internalType": "bool",
          "name": "",
          "type": "bool"
        }
      ],
      "stateMutability": "view",
      "type": "function"
    },
    {
      "inputs": [
        {
          "internalType": "address",
          "name": "operator",
          "type": "address"
        },
        {
          "internalType": "bool",
          "name": "approved",
          "type": "bool"
        }
      ],
      "name": "setApprovalForAll",
      "outputs": [],
      "stateMutability": "nonpayable",
      "type": "function"
    },
    {
      "inputs": [
        {
          "internalType": "string",
          "name": "gateway",
          "type": "string"
        }
      ],
      "name": "setBaseURI",
      "outputs": [],
      "stateMutability": "nonpayable",
      "type": "function"
    },
    {
      "inputs": [
        {
          "internalType": "uint256",
          "name": "tokenId",
          "type": "uint256"
        },
        {
          "internalType": "string",
          "name": "newSerialNumber",
          "type": "string"
        },
        {
          "internalType": "uint256",
          "name": "newQuantity",
          "type": "uint256"
        }
      ],
      "name": "setSerialandQuantity",
      "outputs": [],
      "stateMutability": "nonpayable",
      "type": "function"
    },
    {
      "inputs": [
        {
          "internalType": "uint256",
          "name": "tokenId",
          "type": "uint256"
        }
      ],
      "name": "setToPending",
      "outputs": [],
      "stateMutability": "nonpayable",
      "type": "function"
    },
    {
      "inputs": [
        {
          "internalType": "address",
          "name": "_address",
          "type": "address"
        }
      ],
      "name": "setToucanContractRegistry",
      "outputs": [],
      "stateMutability": "nonpayable",
      "type": "function"
    },
    {
      "inputs": [
        {
          "internalType": "bytes4",
          "name": "interfaceId",
          "type": "bytes4"
        }
      ],
      "name": "supportsInterface",
      "outputs": [
        {
          "internalType": "bool",
          "name": "",
          "type": "bool"
        }
      ],
      "stateMutability": "view",
      "type": "function"
    },
    {
      "inputs": [],
      "name": "symbol",
      "outputs": [
        {
          "internalType": "string",
          "name": "",
          "type": "string"
        }
      ],
      "stateMutability": "view",
      "type": "function"
    },
    {
      "inputs": [
        {
          "internalType": "uint256",
          "name": "index",
          "type": "uint256"
        }
      ],
      "name": "tokenByIndex",
      "outputs": [
        {
          "internalType": "uint256",
          "name": "",
          "type": "uint256"
        }
      ],
      "stateMutability": "view",
      "type": "function"
    },
    {
      "inputs": [
        {
          "internalType": "address",
          "name": "owner",
          "type": "address"
        },
        {
          "internalType": "uint256",
          "name": "index",
          "type": "uint256"
        }
      ],
      "name": "tokenOfOwnerByIndex",
      "outputs": [
        {
          "internalType": "uint256",
          "name": "",
          "type": "uint256"
        }
      ],
      "stateMutability": "view",
      "type": "function"
    },
    {
      "inputs": [
        {
          "internalType": "uint256",
          "name": "tokenId",
          "type": "uint256"
        }
      ],
      "name": "tokenURI",
      "outputs": [
        {
          "internalType": "string",
          "name": "",
          "type": "string"
        }
      ],
      "stateMutability": "view",
      "type": "function"
    },
    {
      "inputs": [
        {
          "internalType": "address",
          "name": "to",
          "type": "address"
        },
        {
          "internalType": "string",
          "name": "serialNumber",
          "type": "string"
        },
        {
          "internalType": "uint256",
          "name": "quantity",
          "type": "uint256"
        },
        {
          "internalType": "string",
          "name": "uri",
          "type": "string"
        },
        {
          "internalType": "uint256",
          "name": "projectVintageTokenId",
          "type": "uint256"
        }
      ],
      "name": "tokenize",
      "outputs": [],
      "stateMutability": "nonpayable",
      "type": "function"
    },
    {
      "inputs": [],
      "name": "totalSupply",
      "outputs": [
        {
          "internalType": "uint256",
          "name": "",
          "type": "uint256"
        }
      ],
      "stateMutability": "view",
      "type": "function"
    },
    {
      "inputs": [
        {
          "internalType": "address",
          "name": "from",
          "type": "address"
        },
        {
          "internalType": "address",
          "name": "to",
          "type": "address"
        },
        {
          "internalType": "uint256",
          "name": "tokenId",
          "type": "uint256"
        }
      ],
      "name": "transferFrom",
      "outputs": [],
      "stateMutability": "nonpayable",
      "type": "function"
    },
    {
      "inputs": [
        {
          "internalType": "address",
          "name": "newOwner",
          "type": "address"
        }
      ],
      "name": "transferOwnership",
      "outputs": [],
      "stateMutability": "nonpayable",
      "type": "function"
    },
    {
      "inputs": [],
      "name": "unpause",
      "outputs": [],
      "stateMutability": "nonpayable",
      "type": "function"
    },
    {
      "inputs": [
        {
          "internalType": "string",
          "name": "serialNumber",
          "type": "string"
        }
      ],
      "name": "unsetSerialNumber",
      "outputs": [],
      "stateMutability": "nonpayable",
      "type": "function"
    },
    {
      "inputs": [
        {
          "internalType": "uint256",
          "name": "tokenId",
          "type": "uint256"
        },
        {
          "internalType": "string",
          "name": "serialNumber",
          "type": "string"
        },
        {
          "internalType": "uint256",
          "name": "quantity",
          "type": "uint256"
        },
        {
          "internalType": "string",
          "name": "uri",
          "type": "string"
        }
      ],
      "name": "updateBatchWithData",
      "outputs": [],
      "stateMutability": "nonpayable",
      "type": "function"
    },
    {
      "inputs": [
        {
          "internalType": "address",
          "name": "newImplementation",
          "type": "address"
        }
      ],
      "name": "upgradeTo",
      "outputs": [],
      "stateMutability": "nonpayable",
      "type": "function"
    },
    {
      "inputs": [
        {
          "internalType": "address",
          "name": "newImplementation",
          "type": "address"
        },
        {
          "internalType": "bytes",
          "name": "data",
          "type": "bytes"
        }
      ],
      "name": "upgradeToAndCall",
      "outputs": [],
      "stateMutability": "payable",
      "type": "function"
    },
    {
      "inputs": [
        {
          "internalType": "address",
          "name": "",
          "type": "address"
        }
      ],
      "name": "verifiers",
      "outputs": [
        {
          "internalType": "bool",
          "name": "",
          "type": "bool"
        }
      ],
      "stateMutability": "view",
      "type": "function"
    }
  ],
  "numDeployments": 2,
  "solcInputHash": "781ce743fdf63de5d6a9ae64f1239918",
  "bytecode": "0x60a0604052306080523480156200001557600080fd5b506200002062000026565b62000156565b6200003260ff62000035565b50565b60008054610100900460ff1615620000ce578160ff1660011480156200006e57506200006c306200014760201b620028f11760201c565b155b620000c65760405162461bcd60e51b815260206004820152602e60248201526000805160206200559b83398151915260448201526d191e481a5b9a5d1a585b1a5e995960921b60648201526084015b60405180910390fd5b506000919050565b60005460ff8084169116106200012d5760405162461bcd60e51b815260206004820152602e60248201526000805160206200559b83398151915260448201526d191e481a5b9a5d1a585b1a5e995960921b6064820152608401620000bd565b506000805460ff191660ff92909216919091179055600190565b6001600160a01b03163b151590565b60805161540d6200018e600039600081816112ef0152818161132f015281816115a5015281816115e501526117f2015261540d6000f3fe6080604052600436106103975760003560e01c806370a08231116101dc578063b722e53311610102578063d547741f116100a0578063e985e9c51161006f578063e985e9c514610b2c578063f2fde38b14610b75578063ffa1ad7414610b95578063ffd8e71a14610bc657600080fd5b8063d547741f14610a7a578063dff35e8314610a9a578063e7705db614610aea578063e882e37b14610b0c57600080fd5b8063c8694d12116100dc578063c8694d12146109de578063c87b56dd146109fe578063d22c8ddc14610a1e578063d397e87014610a3e57600080fd5b8063b722e5331461097e578063b88d4fde1461099e578063c4d66de8146109be57600080fd5b806391d148541161017a578063a5c6596311610149578063a5c6596314610906578063aa7e568314610926578063abf410e514610946578063b30570251461096757600080fd5b806391d148541461089c57806395d89b41146108bc578063a217fddf146108d1578063a22cb465146108e657600080fd5b806375bea166116101b657806375bea166146108185780638456cb59146108495780638a6166f01461085e5780638da5cb5b1461087e57600080fd5b806370a08231146107c3578063715018a6146107e3578063722e4baf146107f857600080fd5b806336568abe116102c15780634f8a317c1161025f5780635e9fae131161022e5780635e9fae131461073d5780636352211e1461075d5780636c0360eb1461077d5780636c8244871461079257600080fd5b80634f8a317c146106d057806352d1902d146106f057806355f804b3146107055780635c975abb1461072557600080fd5b80633f4ba83a1161029b5780633f4ba83a1461066857806342842e0e1461067d5780634f1ef2861461069d5780634f6ccce7146106b057600080fd5b806336568abe146106085780633659cfe6146106285780633b2b203e1461064857600080fd5b80631cf52f9c116103395780632f2ff15d116103085780632f2ff15d1461056c5780632f745c591461058c57806334844b42146105ac578063362ab1b9146105e857600080fd5b80631cf52f9c146104cd57806323b872dd146104ed57806323edf6971461050d578063248a9ca31461053b57600080fd5b8063095ea7b311610375578063095ea7b31461042b5780630c634e671461044d5780630f979c281461046d57806318160ddd146104ae57600080fd5b806301ffc9a71461039c57806306fdde03146103d1578063081812fc146103f3575b600080fd5b3480156103a857600080fd5b506103bc6103b73660046144d4565b610be6565b60405190151581526020015b60405180910390f35b3480156103dd57600080fd5b506103e6610c11565b6040516103c89190614549565b3480156103ff57600080fd5b5061041361040e36600461455c565b610ca3565b6040516001600160a01b0390911681526020016103c8565b34801561043757600080fd5b5061044b61044636600461458a565b610cef565b005b34801561045957600080fd5b5061044b6104683660046145b6565b610e04565b34801561047957600080fd5b506104a161048836600461455c565b60009081526101c9602052604090206003015460ff1690565b6040516103c89190614610565b3480156104ba57600080fd5b506099545b6040519081526020016103c8565b3480156104d957600080fd5b5061044b6104e83660046145b6565b610e69565b3480156104f957600080fd5b5061044b61050836600461461e565b610fb0565b34801561051957600080fd5b5061052d61052836600461455c565b610ff2565b6040516103c892919061465f565b34801561054757600080fd5b506104bf61055636600461455c565b600090815261012d602052604090206001015490565b34801561057857600080fd5b5061044b610587366004614703565b611145565b34801561059857600080fd5b506104bf6105a736600461458a565b61116b565b3480156105b857600080fd5b506103bc6105c73660046147d6565b80516020818301810180516101c48252928201919093012091525460ff1681565b3480156105f457600080fd5b5061044b6106033660046147d6565b611201565b34801561061457600080fd5b5061044b610623366004614703565b61126b565b34801561063457600080fd5b5061044b61064336600461480b565b6112e5565b34801561065457600080fd5b5061044b610663366004614828565b6113c4565b34801561067457600080fd5b5061044b611539565b34801561068957600080fd5b5061044b61069836600461461e565b610fd7565b61044b6106ab366004614878565b61159b565b3480156106bc57600080fd5b506104bf6106cb36600461455c565b611667565b3480156106dc57600080fd5b5061044b6106eb36600461455c565b6116fa565b3480156106fc57600080fd5b506104bf6117e5565b34801561071157600080fd5b5061044b6107203660046147d6565b611898565b34801561073157600080fd5b5060fb5460ff166103bc565b34801561074957600080fd5b5061044b6107583660046148c8565b6118d6565b34801561076957600080fd5b5061041361077836600461455c565b611959565b34801561078957600080fd5b506103e66119d0565b34801561079e57600080fd5b506103bc6107ad36600461480b565b6101c66020526000908152604090205460ff1681565b3480156107cf57600080fd5b506104bf6107de36600461480b565b611a5f565b3480156107ef57600080fd5b5061044b611ae6565b34801561080457600080fd5b5061044b61081336600461455c565b611b1c565b34801561082457600080fd5b5061083861083336600461455c565b611c4d565b6040516103c895949392919061493f565b34801561085557600080fd5b5061044b611d95565b34801561086a57600080fd5b5061044b610879366004614989565b611df7565b34801561088a57600080fd5b5060c9546001600160a01b0316610413565b3480156108a857600080fd5b506103bc6108b7366004614703565b611fc5565b3480156108c857600080fd5b506103e6611ff1565b3480156108dd57600080fd5b506104bf600081565b3480156108f257600080fd5b5061044b6109013660046149c8565b612000565b34801561091257600080fd5b5061044b61092136600461480b565b61200b565b34801561093257600080fd5b5061044b610941366004614989565b6120a6565b34801561095257600080fd5b506101c854610413906001600160a01b031681565b34801561097357600080fd5b506104bf6101c35481565b34801561098a57600080fd5b5061044b61099936600461455c565b612279565b3480156109aa57600080fd5b5061044b6109b93660046149f6565b6123a3565b3480156109ca57600080fd5b5061044b6109d936600461480b565b6123d5565b3480156109ea57600080fd5b5061044b6109f9366004614989565b6124be565b348015610a0a57600080fd5b506103e6610a1936600461455c565b61251e565b348015610a2a57600080fd5b5061044b610a3936600461455c565b61268b565b348015610a4a57600080fd5b506103bc610a593660046147d6565b80516020818301810180516101c58252928201919093012091525460ff1681565b348015610a8657600080fd5b5061044b610a95366004614703565b6126eb565b348015610aa657600080fd5b50610adb610ab536600461455c565b60009081526101c96020526040902080546002820154600390920154909260ff90911690565b6040516103c893929190614a56565b348015610af657600080fd5b506104bf6000805160206153b883398151915281565b348015610b1857600080fd5b5061044b610b2736600461480b565b612711565b348015610b3857600080fd5b506103bc610b47366004614a71565b6001600160a01b039182166000908152606a6020908152604080832093909416825291909152205460ff1690565b348015610b8157600080fd5b5061044b610b9036600461480b565b61275e565b348015610ba157600080fd5b506103e6604051806040016040528060058152602001640312e332e360dc1b81525081565b348015610bd257600080fd5b5061044b610be1366004614ae8565b6127f6565b60006001600160e01b03198216637965db0b60e01b1480610c0b5750610c0b82612900565b92915050565b606060658054610c2090614b7d565b80601f0160208091040260200160405190810160405280929190818152602001828054610c4c90614b7d565b8015610c995780601f10610c6e57610100808354040283529160200191610c99565b820191906000526020600020905b815481529060010190602001808311610c7c57829003601f168201915b5050505050905090565b6000610cae82612950565b610cd35760405162461bcd60e51b8152600401610cca90614bb7565b60405180910390fd5b506000908152606960205260409020546001600160a01b031690565b6000610cfa82611959565b9050806001600160a01b0316836001600160a01b031603610d675760405162461bcd60e51b815260206004820152602160248201527f4552433732313a20617070726f76616c20746f2063757272656e74206f776e656044820152603960f91b6064820152608401610cca565b336001600160a01b0382161480610d835750610d838133610b47565b610df55760405162461bcd60e51b815260206004820152603860248201527f4552433732313a20617070726f76652063616c6c6572206973206e6f74206f7760448201527f6e6572206e6f7220617070726f76656420666f7220616c6c00000000000000006064820152608401610cca565b610dff838361296d565b505050565b610e1c6000805160206153b883398151915233611fc5565b610e385760405162461bcd60e51b8152600401610cca90614c03565b60fb5460ff1615610e5b5760405162461bcd60e51b8152600401610cca90614c44565b610e6582826129db565b5050565b610e816000805160206153b883398151915233611fc5565b610e9d5760405162461bcd60e51b8152600401610cca90614c03565b60fb5460ff1615610ec05760405162461bcd60e51b8152600401610cca90614c44565b600260008381526101c9602052604090206003015460ff166002811115610ee957610ee96145d8565b03610f065760405162461bcd60e51b8152600401610cca90614c6e565b60008281526101c9602052604090205415610f9d5760405162461bcd60e51b815260206004820152604b60248201527f56696e7461676520697320616c72656164792073657420616e642063616e6e6f60448201527f74206265206368616e6765643b2075736520636f6e6669726d5265746972656d60648201526a195b9d081a5b9cdd19585960aa1b608482015260a401610cca565b610fa78282610e04565b610e658261268b565b610fbb335b82612a3b565b610fd75760405162461bcd60e51b8152600401610cca90614cb3565b610dff838383604051806020016040528060008152506123a3565b60008181526101c96020908152604080832060058101805483518186028101860190945280845260609586959294600690940193928592919084015b828210156110da57838290600052602060002001805461104d90614b7d565b80601f016020809104026020016040519081016040528092919081815260200182805461107990614b7d565b80156110c65780601f1061109b576101008083540402835291602001916110c6565b820191906000526020600020905b8154815290600101906020018083116110a957829003601f168201915b50505050508152602001906001019061102e565b5050505091508080548060200260200160405190810160405280929190818152602001828054801561113557602002820191906000526020600020905b81546001600160a01b03168152600190910190602001808311611117575b5050505050905091509150915091565b600082815261012d602052604090206001015461116181612b24565b610dff8383612b2e565b600061117683611a5f565b82106111d85760405162461bcd60e51b815260206004820152602b60248201527f455243373231456e756d657261626c653a206f776e657220696e646578206f7560448201526a74206f6620626f756e647360a81b6064820152608401610cca565b506001600160a01b03919091166000908152609760209081526040808320938352929052205490565b6112196000805160206153b883398151915233611fc5565b6112355760405162461bcd60e51b8152600401610cca90614c03565b60006101c4826040516112489190614d04565b908152604051908190036020019020805491151560ff1990921691909117905550565b6001600160a01b03811633146112db5760405162461bcd60e51b815260206004820152602f60248201527f416363657373436f6e74726f6c3a2063616e206f6e6c792072656e6f756e636560448201526e103937b632b9903337b91039b2b63360891b6064820152608401610cca565b610e658282612bb5565b6001600160a01b037f000000000000000000000000000000000000000000000000000000000000000016300361132d5760405162461bcd60e51b8152600401610cca90614d20565b7f00000000000000000000000000000000000000000000000000000000000000006001600160a01b031661137660008051602061534b833981519152546001600160a01b031690565b6001600160a01b03161461139c5760405162461bcd60e51b8152600401610cca90614d6c565b6113a581612c1d565b604080516000808252602082019092526113c191839190612c47565b50565b60fb5460ff16156113e75760405162461bcd60e51b8152600401610cca90614c44565b336113f184611959565b6001600160a01b0316148061141957506114196000805160206153b883398151915233611fc5565b6114355760405162461bcd60e51b8152600401610cca90614db8565b600260008481526101c9602052604090206003015460ff16600281111561145e5761145e6145d8565b0361147b5760405162461bcd60e51b8152600401610cca90614dff565b6101c48260405161148c9190614d04565b9081526040519081900360200190205460ff16156114bc5760405162461bcd60e51b8152600401610cca90614e4b565b60008381526101c96020908152604090912083516114e292600190920191850190614425565b5060008381526101c9602052604090819020600201829055517fd680d89587cd5af07a9a0280107488c8b2db5f86aec57b869f0933fb4a99c05b9061152c90859085908590614e91565b60405180910390a1505050565b6101c8546001600160a01b031661155860c9546001600160a01b031690565b6001600160a01b03821633148061157757506001600160a01b03811633145b6115935760405162461bcd60e51b8152600401610cca90614eba565b610e65612db2565b6001600160a01b037f00000000000000000000000000000000000000000000000000000000000000001630036115e35760405162461bcd60e51b8152600401610cca90614d20565b7f00000000000000000000000000000000000000000000000000000000000000006001600160a01b031661162c60008051602061534b833981519152546001600160a01b031690565b6001600160a01b0316146116525760405162461bcd60e51b8152600401610cca90614d6c565b61165b82612c1d565b610e6582826001612c47565b600061167260995490565b82106116d55760405162461bcd60e51b815260206004820152602c60248201527f455243373231456e756d657261626c653a20676c6f62616c20696e646578206f60448201526b7574206f6620626f756e647360a01b6064820152608401610cca565b609982815481106116e8576116e8614eff565b90600052602060002001549050919050565b6117126000805160206153b883398151915233611fc5565b61172e5760405162461bcd60e51b8152600401610cca90614c03565b60fb5460ff16156117515760405162461bcd60e51b8152600401610cca90614c44565b600160008281526101c9602052604090206003015460ff16600281111561177a5761177a6145d8565b146117da5760405162461bcd60e51b815260206004820152602a60248201527f43616e206f6e6c792072657365742072656a6563746564206261746368657320604482015269746f2070656e64696e6760b01b6064820152608401610cca565b6113c1816000612e45565b6000306001600160a01b037f000000000000000000000000000000000000000000000000000000000000000016146118855760405162461bcd60e51b815260206004820152603860248201527f555550535570677261646561626c653a206d757374206e6f742062652063616c60448201527f6c6564207468726f7567682064656c656761746563616c6c00000000000000006064820152608401610cca565b5060008051602061534b83398151915290565b60c9546001600160a01b031633146118c25760405162461bcd60e51b8152600401610cca90614f15565b8051610e65906101c7906020840190614425565b60fb5460ff16156118f95760405162461bcd60e51b8152600401610cca90614c44565b3361190385611959565b6001600160a01b0316148061192b575061192b6000805160206153b883398151915233611fc5565b6119475760405162461bcd60e51b8152600401610cca90614db8565b61195384848484612eaa565b50505050565b6000818152606760205260408120546001600160a01b031680610c0b5760405162461bcd60e51b815260206004820152602960248201527f4552433732313a206f776e657220717565727920666f72206e6f6e657869737460448201526832b73a103a37b5b2b760b91b6064820152608401610cca565b6101c780546119de90614b7d565b80601f0160208091040260200160405190810160405280929190818152602001828054611a0a90614b7d565b8015611a575780601f10611a2c57610100808354040283529160200191611a57565b820191906000526020600020905b815481529060010190602001808311611a3a57829003601f168201915b505050505081565b60006001600160a01b038216611aca5760405162461bcd60e51b815260206004820152602a60248201527f4552433732313a2062616c616e636520717565727920666f7220746865207a65604482015269726f206164647265737360b01b6064820152608401610cca565b506001600160a01b031660009081526068602052604090205490565b60c9546001600160a01b03163314611b105760405162461bcd60e51b8152600401610cca90614f15565b611b1a600061313c565b565b611b346000805160206153b883398151915233611fc5565b611b505760405162461bcd60e51b8152600401610cca90614c03565b60fb5460ff1615611b735760405162461bcd60e51b8152600401610cca90614c44565b60008181526101c9602052604081206003015460ff166002811115611b9a57611b9a6145d8565b14611bfd5760405162461bcd60e51b815260206004820152602d60248201527f4261746368206d75737420626520696e2070656e64696e67207374617465207460448201526c1bc81899481c995a9958dd1959609a1b6064820152608401610cca565b60008181526101c9602052604080822090516101c491611c2291600190910190614f4a565b908152604051908190036020019020805491151560ff199092169190911790556113c1816001612e45565b6101c96020526000908152604090208054600182018054919291611c7090614b7d565b80601f0160208091040260200160405190810160405280929190818152602001828054611c9c90614b7d565b8015611ce95780601f10611cbe57610100808354040283529160200191611ce9565b820191906000526020600020905b815481529060010190602001808311611ccc57829003601f168201915b50505050600283015460038401546004850180549495929460ff909216935090611d1290614b7d565b80601f0160208091040260200160405190810160405280929190818152602001828054611d3e90614b7d565b8015611d8b5780601f10611d6057610100808354040283529160200191611d8b565b820191906000526020600020905b815481529060010190602001808311611d6e57829003601f168201915b5050505050905085565b6101c8546001600160a01b0316611db460c9546001600160a01b031690565b6001600160a01b038216331480611dd357506001600160a01b03811633145b611def5760405162461bcd60e51b8152600401610cca90614eba565b610e6561318e565b60c9546001600160a01b03163314611e215760405162461bcd60e51b8152600401610cca90614f15565b60fb5460ff1615611e445760405162461bcd60e51b8152600401610cca90614c44565b600260008381526101c9602052604090206003015460ff166002811115611e6d57611e6d6145d8565b14611ed25760405162461bcd60e51b815260206004820152602f60248201527f4261746368206d75737420626520696e20636f6e6669726d656420737461746560448201526e081d1bc81899481c995a9958dd1959608a1b6064820152608401610cca565b6101c8546001600160a01b031663787d8713611eed84611959565b6040516001600160e01b031960e084901b1681526001600160a01b039091166004820152602401602060405180830381865afa158015611f31573d6000803e3d6000fd5b505050506040513d601f19601f82011682018060405250810190611f559190614fe5565b15611fb05760405162461bcd60e51b815260206004820152602560248201527f42617463682068617320616c7265616479206265656e206672616374696f6e616044820152641b1a5e995960da1b6064820152608401610cca565b611fbb826001612e45565b610e6582826120a6565b600091825261012d602090815260408084206001600160a01b0393909316845291905290205460ff1690565b606060668054610c2090614b7d565b610e653383836131e6565b60fb5460ff161561202e5760405162461bcd60e51b8152600401610cca90614c44565b6101c380546001019081905561204482826132b4565b60008181526101c96020908152604091829020600301805460ff1916905581516001600160a01b03851681529081018390527f6174e73d7eb2fee6c482f87f81961b83cfa577f50c963bd1516f282497260fcd91015b60405180910390a15050565b6120be6000805160206153b883398151915233611fc5565b806120e257506120cd82611959565b6001600160a01b0316336001600160a01b0316145b806120f7575060c9546001600160a01b031633145b6121695760405162461bcd60e51b815260206004820152603e60248201527f4f6e6c7920746865206261746368206f776e65722c20636f6e7472616374206f60448201527f776e657220616e64207665726966696572732063616e20636f6d6d656e7400006064820152608401610cca565b61217282612950565b6121ca5760405162461bcd60e51b8152602060048201526024808201527f43616e6e6f7420636f6d6d656e74206f6e206e6f6e2d6578697374656e7420626044820152630c2e8c6d60e31b6064820152608401610cca565b60008281526101c96020908152604082206005018054600181018255908352918190208351612200939190910191840190614425565b5060008281526101c96020908152604080832060068101805460018101825590855292842090920180546001600160a01b031916339081179091559285905260059091015490517f08740f41d4d7e855ea188e78846ad3e8665dd6d0b088f899025991c1ee8c2c479261209a9286929091908690615002565b61228233610fb5565b61229e5760405162461bcd60e51b8152600401610cca90614cb3565b6101c854604080516308cca7e360e01b815290516000926001600160a01b0316916308cca7e39160048083019260209291908290030181865afa1580156122e9573d6000803e3d6000fd5b505050506040513d601f19601f8201168201806040525081019061230d9190615039565b60008381526101c960205260408082205490516317a04f4f60e21b815260048101829052929350916001600160a01b03841690635e813d3c90602401602060405180830381865afa158015612366573d6000803e3d6000fd5b505050506040513d601f19601f8201168201806040525081019061238a9190615039565b9050611953338286604051806020016040528060008152505b6123ad3383612a3b565b6123c95760405162461bcd60e51b8152600401610cca90614cb3565b611953848484846132ce565b60006123e16001613301565b905080156123f9576000805461ff0019166101001790555b612401613389565b612445604051806060016040528060268152602001615392602691396040518060400160405280600a8152602001692a27aaa1a0a716a1a7a160b11b8152506133b0565b61244d6133fe565b61245561342e565b6101c880546001600160a01b0319166001600160a01b03841617905561247c600033612b2e565b8015610e65576000805461ff0019169055604051600181527f7f26b83ff96e1f2b6a682f133852f6798a09c465da95921460cefb38474024989060200161209a565b6124d66000805160206153b883398151915233611fc5565b6124f25760405162461bcd60e51b8152600401610cca90614c03565b60fb5460ff16156125155760405162461bcd60e51b8152600401610cca90614c44565b611fbb82611b1c565b606061252982612950565b61258f5760405162461bcd60e51b815260206004820152603160248201527f45524337323155524953746f726167653a2055524920717565727920666f72206044820152703737b732bc34b9ba32b73a103a37b5b2b760791b6064820152608401610cca565b60008281526101c96020526040812060040180546125ac90614b7d565b80601f01602080910402602001604051908101604052809291908181526020018280546125d890614b7d565b80156126255780601f106125fa57610100808354040283529160200191612625565b820191906000526020600020905b81548152906001019060200180831161260857829003601f168201915b505050505090506000612636613461565b90508051600003612648575092915050565b81511561267a578082604051602001612662929190615056565b60405160208183030381529060405292505050919050565b61268384613471565b949350505050565b6126a36000805160206153b883398151915233611fc5565b6126bf5760405162461bcd60e51b8152600401610cca90614c03565b60fb5460ff16156126e25760405162461bcd60e51b8152600401610cca90614c44565b6113c18161353c565b600082815261012d602052604090206001015461270781612b24565b610dff8383612bb5565b60c9546001600160a01b0316331461273b5760405162461bcd60e51b8152600401610cca90614f15565b6101c880546001600160a01b0319166001600160a01b0392909216919091179055565b60c9546001600160a01b031633146127885760405162461bcd60e51b8152600401610cca90614f15565b6001600160a01b0381166127ed5760405162461bcd60e51b815260206004820152602660248201527f4f776e61626c653a206e6577206f776e657220697320746865207a65726f206160448201526564647265737360d01b6064820152608401610cca565b6113c18161313c565b61280e6000805160206153b883398151915233611fc5565b61282a5760405162461bcd60e51b8152600401610cca90614c03565b60fb5460ff161561284d5760405162461bcd60e51b8152600401610cca90614c44565b6128568761200b565b6128cf6101c35487878080601f01602080910402602001604051908101604052809392919081815260200183838082843760009201919091525050604080516020601f8a018190048102820181019092528881528a935091508890889081908401838280828437600092019190915250612eaa92505050565b6128dc6101c354826129db565b6128e86101c35461353c565b50505050505050565b6001600160a01b03163b151590565b60006001600160e01b031982166380ac58cd60e01b148061293157506001600160e01b03198216635b5e139f60e01b145b80610c0b57506301ffc9a760e01b6001600160e01b0319831614610c0b565b6000908152606760205260409020546001600160a01b0316151590565b600081815260696020526040902080546001600160a01b0319166001600160a01b03841690811790915581906129a282611959565b6001600160a01b03167f8c5be1e5ebec7d5bd14f71427d1e84f3dd0314c0f7b2291e5b200ac8c7c3b92560405160405180910390a45050565b6101c8546129f2906001600160a01b0316826136c4565b60008281526101c9602090815260409182902083905581518481529081018390527fe16bc7d72176e78ab56068f816d35b70dfcb41bb492ca0da0bcfc064b2439f6c910161209a565b6000612a4682612950565b612aa75760405162461bcd60e51b815260206004820152602c60248201527f4552433732313a206f70657261746f7220717565727920666f72206e6f6e657860448201526b34b9ba32b73a103a37b5b2b760a11b6064820152608401610cca565b6000612ab283611959565b9050806001600160a01b0316846001600160a01b03161480612af957506001600160a01b038082166000908152606a602090815260408083209388168352929052205460ff165b806126835750836001600160a01b0316612b1284610ca3565b6001600160a01b031614949350505050565b6113c181336137f2565b612b388282611fc5565b610e6557600082815261012d602090815260408083206001600160a01b03851684529091529020805460ff19166001179055612b713390565b6001600160a01b0316816001600160a01b0316837f2f8788117e7eff1d82e926ec794901d17c78024a50270940304540a733656f0d60405160405180910390a45050565b612bbf8282611fc5565b15610e6557600082815261012d602090815260408083206001600160a01b0385168085529252808320805460ff1916905551339285917ff6391f5c32d9c69d2a47ea670b442974b53935d1edc7fd64eb21e047a839171b9190a45050565b60c9546001600160a01b031633146113c15760405162461bcd60e51b8152600401610cca90614f15565b7f4910fdfa16fed3260ed0e7147f7cc6da11a60208b5b9406d12a635614ffd91435460ff1615612c7a57610dff83613856565b826001600160a01b03166352d1902d6040518163ffffffff1660e01b8152600401602060405180830381865afa925050508015612cd4575060408051601f3d908101601f19168201909252612cd191810190615085565b60015b612d375760405162461bcd60e51b815260206004820152602e60248201527f45524331393637557067726164653a206e657720696d706c656d656e7461746960448201526d6f6e206973206e6f74205555505360901b6064820152608401610cca565b60008051602061534b8339815191528114612da65760405162461bcd60e51b815260206004820152602960248201527f45524331393637557067726164653a20756e737570706f727465642070726f786044820152681a58589b195555525160ba1b6064820152608401610cca565b50610dff8383836138f2565b60fb5460ff16612dfb5760405162461bcd60e51b815260206004820152601460248201527314185d5cd8589b194e881b9bdd081c185d5cd95960621b6044820152606401610cca565b60fb805460ff191690557f5db9ee0a495bf2e6ff9c91a7834c1ba4fdd244a5e8aa4e537bd38aeae4b073aa335b6040516001600160a01b03909116815260200160405180910390a1565b60008281526101c960205260409020600301805482919060ff19166001836002811115612e7457612e746145d8565b02179055507f132d48207d6b10897066f0b98b98325907e8a0d491390e141c7377772b47a9d6828260405161209a92919061509e565b60008481526101c9602052604090206003015460ff166002816002811115612ed457612ed46145d8565b03612ef15760405162461bcd60e51b8152600401610cca90614dff565b6101c484604051612f029190614d04565b9081526040519081900360200190205460ff1615612f325760405162461bcd60e51b8152600401610cca90614e4b565b60008581526101c9602090815260409091208551612f5892600190920191870190614425565b5060008581526101c960205260409020600281018490556004018054613006918491612f8390614b7d565b80601f0160208091040260200160405190810160405280929190818152602001828054612faf90614b7d565b8015612ffc5780601f10612fd157610100808354040283529160200191612ffc565b820191906000526020600020905b815481529060010190602001808311612fdf57829003601f168201915b5050505050613917565b6130d6576101c58260405161301b9190614d04565b9081526040519081900360200190205460ff161561307b5760405162461bcd60e51b815260206004820152601960248201527f4572726f723a2075726920616c726561647920657869737473000000000000006044820152606401610cca565b60008581526101c96020908152604090912083516130a192600490920191850190614425565b5060016101c5836040516130b59190614d04565b908152604051908190036020019020805491151560ff199092169190911790555b60018160028111156130ea576130ea6145d8565b036130fa576130fa856000612e45565b7fd680d89587cd5af07a9a0280107488c8b2db5f86aec57b869f0933fb4a99c05b85858560405161312d93929190614e91565b60405180910390a15050505050565b60c980546001600160a01b038381166001600160a01b0319831681179093556040519116919082907f8be0079c531659141344cd1fd0a4f28419497f9722a3daafe3b4186f6b6457e090600090a35050565b60fb5460ff16156131b15760405162461bcd60e51b8152600401610cca90614c44565b60fb805460ff191660011790557f62e78cea01bee320cd4e420270b5ea74000d11b0c9f74754ebdbfc544b05a258612e283390565b816001600160a01b0316836001600160a01b0316036132475760405162461bcd60e51b815260206004820152601960248201527f4552433732313a20617070726f766520746f2063616c6c6572000000000000006044820152606401610cca565b6001600160a01b038381166000818152606a6020908152604080832094871680845294825291829020805460ff191686151590811790915591519182527f17307eab39ab6107e8899845ad3d59bd9653f200f220920489ca2b5937696c31910160405180910390a3505050565b610e65828260405180602001604052806000815250613923565b6132d9848484613956565b6132e584848484613afd565b6119535760405162461bcd60e51b8152600401610cca906150b2565b60008054610100900460ff1615613348578160ff1660011480156133245750303b155b6133405760405162461bcd60e51b8152600401610cca90615104565b506000919050565b60005460ff80841691161061336f5760405162461bcd60e51b8152600401610cca90615104565b506000805460ff191660ff92909216919091179055600190565b600054610100900460ff16611b1a5760405162461bcd60e51b8152600401610cca90615152565b600054610100900460ff166133d75760405162461bcd60e51b8152600401610cca90615152565b81516133ea906065906020850190614425565b508051610dff906066906020840190614425565b600054610100900460ff166134255760405162461bcd60e51b8152600401610cca90615152565b611b1a3361313c565b600054610100900460ff166134555760405162461bcd60e51b8152600401610cca90615152565b60fb805460ff19169055565b60606101c78054610c2090614b7d565b606061347c82612950565b6134e05760405162461bcd60e51b815260206004820152602f60248201527f4552433732314d657461646174613a2055524920717565727920666f72206e6f60448201526e3732bc34b9ba32b73a103a37b5b2b760891b6064820152608401610cca565b60006134ea613461565b9050600081511161350a5760405180602001604052806000815250613535565b8061351484613bfe565b604051602001613525929190615056565b6040516020818303038152906040525b9392505050565b61354581612950565b6135615760405162461bcd60e51b8152600401610cca90614bb7565b600260008281526101c9602052604090206003015460ff16600281111561358a5761358a6145d8565b036135a75760405162461bcd60e51b8152600401610cca90614c6e565b60008181526101c9602052604081205490036136195760405162461bcd60e51b815260206004820152602b60248201527f43616e6e6f742072657469726520626174636820776974686f75742070726f6a60448201526a6563742076696e7461676560a81b6064820152608401610cca565b6101c46101c960008381526020019081526020016000206001016040516136409190614f4a565b9081526040519081900360200190205460ff16156136705760405162461bcd60e51b8152600401610cca90614e4b565b60016101c46101c960008481526020019081526020016000206001016040516136999190614f4a565b908152604051908190036020019020805491151560ff199092169190911790556113c1816002612e45565b6000826001600160a01b031663a0af25606040518163ffffffff1660e01b8152600401602060405180830381865afa158015613704573d6000803e3d6000fd5b505050506040513d601f19601f820116820180604052508101906137289190615039565b604051634f558e7960e01b8152600481018490529091506001600160a01b03821690634f558e7990602401602060405180830381865afa158015613770573d6000803e3d6000fd5b505050506040513d601f19601f820116820180604052508101906137949190614fe5565b610dff5760405162461bcd60e51b815260206004820152602960248201527f436172626f6e2070726f6a6563742076696e7461676520646f6573206e6f74206044820152681e595d08195e1a5cdd60ba1b6064820152608401610cca565b6137fc8282611fc5565b610e6557613814816001600160a01b03166014613cff565b61381f836020613cff565b60405160200161383092919061519d565b60408051601f198184030181529082905262461bcd60e51b8252610cca91600401614549565b6001600160a01b0381163b6138c35760405162461bcd60e51b815260206004820152602d60248201527f455243313936373a206e657720696d706c656d656e746174696f6e206973206e60448201526c1bdd08184818dbdb9d1c9858dd609a1b6064820152608401610cca565b60008051602061534b83398151915280546001600160a01b0319166001600160a01b0392909216919091179055565b6138fb83613e9b565b6000825111806139085750805b15610dff576119538383613edb565b60006135358383613fcf565b61392d8383613ff4565b61393a6000848484613afd565b610dff5760405162461bcd60e51b8152600401610cca906150b2565b826001600160a01b031661396982611959565b6001600160a01b0316146139cd5760405162461bcd60e51b815260206004820152602560248201527f4552433732313a207472616e736665722066726f6d20696e636f72726563742060448201526437bbb732b960d91b6064820152608401610cca565b6001600160a01b038216613a2f5760405162461bcd60e51b8152602060048201526024808201527f4552433732313a207472616e7366657220746f20746865207a65726f206164646044820152637265737360e01b6064820152608401610cca565b613a3a838383614133565b613a4560008261296d565b6001600160a01b0383166000908152606860205260408120805460019290613a6e908490615228565b90915550506001600160a01b0382166000908152606860205260408120805460019290613a9c90849061523f565b909155505060008181526067602052604080822080546001600160a01b0319166001600160a01b0386811691821790925591518493918716917fddf252ad1be2c89b69c2b068fc378daa952ba7f163c4a11628f55a4df523b3ef91a4505050565b60006001600160a01b0384163b15613bf357604051630a85bd0160e11b81526001600160a01b0385169063150b7a0290613b41903390899088908890600401615257565b6020604051808303816000875af1925050508015613b7c575060408051601f3d908101601f19168201909252613b799181019061528a565b60015b613bd9573d808015613baa576040519150601f19603f3d011682016040523d82523d6000602084013e613baf565b606091505b508051600003613bd15760405162461bcd60e51b8152600401610cca906150b2565b805181602001fd5b6001600160e01b031916630a85bd0160e11b149050612683565b506001949350505050565b606081600003613c255750506040805180820190915260018152600360fc1b602082015290565b8160005b8115613c4f5780613c39816152a7565b9150613c489050600a836152d6565b9150613c29565b60008167ffffffffffffffff811115613c6a57613c6a614733565b6040519080825280601f01601f191660200182016040528015613c94576020820181803683370190505b5090505b841561268357613ca9600183615228565b9150613cb6600a866152ea565b613cc190603061523f565b60f81b818381518110613cd657613cd6614eff565b60200101906001600160f81b031916908160001a905350613cf8600a866152d6565b9450613c98565b60606000613d0e8360026152fe565b613d1990600261523f565b67ffffffffffffffff811115613d3157613d31614733565b6040519080825280601f01601f191660200182016040528015613d5b576020820181803683370190505b509050600360fc1b81600081518110613d7657613d76614eff565b60200101906001600160f81b031916908160001a905350600f60fb1b81600181518110613da557613da5614eff565b60200101906001600160f81b031916908160001a9053506000613dc98460026152fe565b613dd490600161523f565b90505b6001811115613e4c576f181899199a1a9b1b9c1cb0b131b232b360811b85600f1660108110613e0857613e08614eff565b1a60f81b828281518110613e1e57613e1e614eff565b60200101906001600160f81b031916908160001a90535060049490941c93613e458161531d565b9050613dd7565b5083156135355760405162461bcd60e51b815260206004820181905260248201527f537472696e67733a20686578206c656e67746820696e73756666696369656e746044820152606401610cca565b613ea481613856565b6040516001600160a01b038216907fbc7cd75a20ee27fd9adebab32041f755214dbc6bffa90cc0225b39da2e5c2d3b90600090a250565b60606001600160a01b0383163b613f435760405162461bcd60e51b815260206004820152602660248201527f416464726573733a2064656c65676174652063616c6c20746f206e6f6e2d636f6044820152651b9d1c9858dd60d21b6064820152608401610cca565b600080846001600160a01b031684604051613f5e9190614d04565b600060405180830381855af49150503d8060008114613f99576040519150601f19603f3d011682016040523d82523d6000602084013e613f9e565b606091505b5091509150613fc6828260405180606001604052806027815260200161536b602791396141a4565b95945050505050565b6000815183511480156135355750508051602091820120825192909101919091201490565b6001600160a01b03821661404a5760405162461bcd60e51b815260206004820181905260248201527f4552433732313a206d696e7420746f20746865207a65726f20616464726573736044820152606401610cca565b61405381612950565b156140a05760405162461bcd60e51b815260206004820152601c60248201527f4552433732313a20746f6b656e20616c7265616479206d696e746564000000006044820152606401610cca565b6140ac60008383614133565b6001600160a01b03821660009081526068602052604081208054600192906140d590849061523f565b909155505060008181526067602052604080822080546001600160a01b0319166001600160a01b03861690811790915590518392907fddf252ad1be2c89b69c2b068fc378daa952ba7f163c4a11628f55a4df523b3ef908290a45050565b61413e8383836141dd565b60fb5460ff1615610dff5760405162461bcd60e51b815260206004820152602a60248201527f45524332305061757361626c653a20746f6b656e207472616e736665722077686044820152691a5b19481c185d5cd95960b21b6064820152608401610cca565b606083156141b3575081613535565b8251156141c35782518084602001fd5b8160405162461bcd60e51b8152600401610cca9190614549565b6001600160a01b0383166142385761423381609980546000838152609a60205260408120829055600182018355919091527f72a152ddfb8e864297c917af52ea6c1c68aead0fee1a62673fcc7e0c94979d000155565b61425b565b816001600160a01b0316836001600160a01b03161461425b5761425b8382614295565b6001600160a01b03821661427257610dff81614332565b826001600160a01b0316826001600160a01b031614610dff57610dff82826143e1565b600060016142a284611a5f565b6142ac9190615228565b6000838152609860205260409020549091508082146142ff576001600160a01b03841660009081526097602090815260408083208584528252808320548484528184208190558352609890915290208190555b5060009182526098602090815260408084208490556001600160a01b039094168352609781528383209183525290812055565b60995460009061434490600190615228565b6000838152609a60205260408120546099805493945090928490811061436c5761436c614eff565b90600052602060002001549050806099838154811061438d5761438d614eff565b6000918252602080832090910192909255828152609a909152604080822084905585825281205560998054806143c5576143c5615334565b6001900381819060005260206000200160009055905550505050565b60006143ec83611a5f565b6001600160a01b039093166000908152609760209081526040808320868452825280832085905593825260989052919091209190915550565b82805461443190614b7d565b90600052602060002090601f0160209004810192826144535760008555614499565b82601f1061446c57805160ff1916838001178555614499565b82800160010185558215614499579182015b8281111561449957825182559160200191906001019061447e565b506144a59291506144a9565b5090565b5b808211156144a557600081556001016144aa565b6001600160e01b0319811681146113c157600080fd5b6000602082840312156144e657600080fd5b8135613535816144be565b60005b8381101561450c5781810151838201526020016144f4565b838111156119535750506000910152565b600081518084526145358160208601602086016144f1565b601f01601f19169290920160200192915050565b602081526000613535602083018461451d565b60006020828403121561456e57600080fd5b5035919050565b6001600160a01b03811681146113c157600080fd5b6000806040838503121561459d57600080fd5b82356145a881614575565b946020939093013593505050565b600080604083850312156145c957600080fd5b50508035926020909101359150565b634e487b7160e01b600052602160045260246000fd5b6003811061460c57634e487b7160e01b600052602160045260246000fd5b9052565b60208101610c0b82846145ee565b60008060006060848603121561463357600080fd5b833561463e81614575565b9250602084013561464e81614575565b929592945050506040919091013590565b6000604082016040835280855180835260608501915060608160051b8601019250602080880160005b838110156146b657605f198887030185526146a486835161451d565b95509382019390820190600101614688565b50508584038187015286518085528782019482019350915060005b828110156146f65784516001600160a01b0316845293810193928101926001016146d1565b5091979650505050505050565b6000806040838503121561471657600080fd5b82359150602083013561472881614575565b809150509250929050565b634e487b7160e01b600052604160045260246000fd5b600082601f83011261475a57600080fd5b813567ffffffffffffffff8082111561477557614775614733565b604051601f8301601f19908116603f0116810190828211818310171561479d5761479d614733565b816040528381528660208588010111156147b657600080fd5b836020870160208301376000602085830101528094505050505092915050565b6000602082840312156147e857600080fd5b813567ffffffffffffffff8111156147ff57600080fd5b61268384828501614749565b60006020828403121561481d57600080fd5b813561353581614575565b60008060006060848603121561483d57600080fd5b83359250602084013567ffffffffffffffff81111561485b57600080fd5b61486786828701614749565b925050604084013590509250925092565b6000806040838503121561488b57600080fd5b823561489681614575565b9150602083013567ffffffffffffffff8111156148b257600080fd5b6148be85828601614749565b9150509250929050565b600080600080608085870312156148de57600080fd5b84359350602085013567ffffffffffffffff808211156148fd57600080fd5b61490988838901614749565b945060408701359350606087013591508082111561492657600080fd5b5061493387828801614749565b91505092959194509250565b85815260a06020820152600061495860a083018761451d565b85604084015261496b60608401866145ee565b828103608084015261497d818561451d565b98975050505050505050565b6000806040838503121561499c57600080fd5b82359150602083013567ffffffffffffffff8111156148b257600080fd5b80151581146113c157600080fd5b600080604083850312156149db57600080fd5b82356149e681614575565b91506020830135614728816149ba565b60008060008060808587031215614a0c57600080fd5b8435614a1781614575565b93506020850135614a2781614575565b925060408501359150606085013567ffffffffffffffff811115614a4a57600080fd5b61493387828801614749565b838152602081018390526060810161268360408301846145ee565b60008060408385031215614a8457600080fd5b8235614a8f81614575565b9150602083013561472881614575565b60008083601f840112614ab157600080fd5b50813567ffffffffffffffff811115614ac957600080fd5b602083019150836020828501011115614ae157600080fd5b9250929050565b600080600080600080600060a0888a031215614b0357600080fd5b8735614b0e81614575565b9650602088013567ffffffffffffffff80821115614b2b57600080fd5b614b378b838c01614a9f565b909850965060408a0135955060608a0135915080821115614b5757600080fd5b50614b648a828b01614a9f565b989b979a50959894979596608090950135949350505050565b600181811c90821680614b9157607f821691505b602082108103614bb157634e487b7160e01b600052602260045260246000fd5b50919050565b6020808252602c908201527f4552433732313a20617070726f76656420717565727920666f72206e6f6e657860408201526b34b9ba32b73a103a37b5b2b760a11b606082015260800190565b60208082526021908201527f4572726f723a2063616c6c6572206973206e6f742074686520766572696669656040820152603960f91b606082015260800190565b60208082526010908201526f14185d5cd8589b194e881c185d5cd95960821b604082015260600190565b60208082526025908201527f4261746368207265746972656d656e7420697320616c726561647920636f6e666040820152641a5c9b595960da1b606082015260800190565b60208082526031908201527f4552433732313a207472616e736665722063616c6c6572206973206e6f74206f6040820152701ddb995c881b9bdc88185c1c1c9bdd9959607a1b606082015260800190565b60008251614d168184602087016144f1565b9190910192915050565b6020808252602c908201527f46756e6374696f6e206d7573742062652063616c6c6564207468726f7567682060408201526b19195b1959d85d1958d85b1b60a21b606082015260800190565b6020808252602c908201527f46756e6374696f6e206d7573742062652063616c6c6564207468726f7567682060408201526b6163746976652070726f787960a01b606082015260800190565b60208082526027908201527f4572726f723a20757064617465206f6e6c79206279206f776e6572206f72207660408201526632b934b334b2b960c91b606082015260800190565b6020808252602c908201527f4572726f723a2063616e6e6f74206368616e676520646174612061667465722060408201526b31b7b73334b936b0ba34b7b760a11b606082015260800190565b60208082526026908201527f53657269616c6e756d6265722068617320616c7265616479206265656e2061706040820152651c1c9bdd995960d21b606082015260800190565b838152606060208201526000614eaa606083018561451d565b9050826040830152949350505050565b60208082526025908201527f43616c6c6572206973206e6f74207468652072656769737472792c206e6f722060408201526437bbb732b960d91b606082015260800190565b634e487b7160e01b600052603260045260246000fd5b6020808252818101527f4f776e61626c653a2063616c6c6572206973206e6f7420746865206f776e6572604082015260600190565b600080835481600182811c915080831680614f6657607f831692505b60208084108203614f8557634e487b7160e01b86526022600452602486fd5b818015614f995760018114614faa57614fd7565b60ff19861689528489019650614fd7565b60008a81526020902060005b86811015614fcf5781548b820152908501908301614fb6565b505084890196505b509498975050505050505050565b600060208284031215614ff757600080fd5b8151613535816149ba565b84815283602082015260018060a01b038316604082015260806060820152600061502f608083018461451d565b9695505050505050565b60006020828403121561504b57600080fd5b815161353581614575565b600083516150688184602088016144f1565b83519083019061507c8183602088016144f1565b01949350505050565b60006020828403121561509757600080fd5b5051919050565b8281526040810161353560208301846145ee565b60208082526032908201527f4552433732313a207472616e7366657220746f206e6f6e20455243373231526560408201527131b2b4bb32b91034b6b83632b6b2b73a32b960711b606082015260800190565b6020808252602e908201527f496e697469616c697a61626c653a20636f6e747261637420697320616c72656160408201526d191e481a5b9a5d1a585b1a5e995960921b606082015260800190565b6020808252602b908201527f496e697469616c697a61626c653a20636f6e7472616374206973206e6f74206960408201526a6e697469616c697a696e6760a81b606082015260800190565b7f416363657373436f6e74726f6c3a206163636f756e74200000000000000000008152600083516151d58160178501602088016144f1565b7001034b99036b4b9b9b4b733903937b6329607d1b60179184019182015283516152068160288401602088016144f1565b01602801949350505050565b634e487b7160e01b600052601160045260246000fd5b60008282101561523a5761523a615212565b500390565b6000821982111561525257615252615212565b500190565b6001600160a01b038581168252841660208201526040810183905260806060820181905260009061502f9083018461451d565b60006020828403121561529c57600080fd5b8151613535816144be565b6000600182016152b9576152b9615212565b5060010190565b634e487b7160e01b600052601260045260246000fd5b6000826152e5576152e56152c0565b500490565b6000826152f9576152f96152c0565b500690565b600081600019048311821515161561531857615318615212565b500290565b60008161532c5761532c615212565b506000190190565b634e487b7160e01b600052603160045260246000fdfe360894a13ba1a3210667c828492db98dca3e2076cc3735a920a3ca505d382bbc416464726573733a206c6f772d6c6576656c2064656c65676174652063616c6c206661696c6564546f7563616e2050726f746f636f6c3a20436172626f6e204f666673657420426174636865730ce23c3e399818cfee81a7ab0880f714e53d7672b08df0fa62f2843416e1ea09a2646970667358221220fd6c8c575eef2daab8fb9606e9fa4906472d01b3a2e621c31c213478d5cf922a64736f6c634300080e0033496e697469616c697a61626c653a20636f6e747261637420697320616c726561",
  "devdoc": {
    "kind": "dev",
    "methods": {
      "addComment(uint256,string)": {
        "details": "Don't allow the contract owner to comment.  When the contract owner can also be a verifier they should add them as a verifier first; this should prevent accidental comments from the wrong account."
      },
      "approve(address,uint256)": {
        "details": "See {IERC721-approve}."
      },
      "balanceOf(address)": {
        "details": "See {IERC721-balanceOf}."
      },
      "confirmRetirement(uint256)": {
        "details": "This flow requires a previous linking with a `projectVintageTokenId`."
      },
      "confirmRetirementWithVintage(uint256,uint256)": {
        "details": "Function for main approval flow, which requires passing a `projectVintageTokenId`."
      },
      "constructor": {
        "custom:oz-upgrades-unsafe-allow": "constructor"
      },
      "fractionalize(uint256)": {
        "details": "Queries the factory to find the corresponding TCO2 contract Fractionalization happens via receive hook on `safeTransferFrom`"
      },
      "getApproved(uint256)": {
        "details": "See {IERC721-getApproved}."
      },
      "getBatchNFTData(uint256)": {
        "details": "Used in TCO2 contract's receive hook `onERC721Received`"
      },
      "getComments(uint256)": {
        "details": "This is necessary because the automatically generated nftList getter will not include an array of comments in the returned tuple for gas reasons: https://docs.soliditylang.org/en/latest/contracts.html#visibility-and-getters"
      },
      "getRoleAdmin(bytes32)": {
        "details": "Returns the admin role that controls `role`. See {grantRole} and {revokeRole}. To change a role's admin, use {_setRoleAdmin}."
      },
      "grantRole(bytes32,address)": {
        "details": "Grants `role` to `account`. If `account` had not been already granted `role`, emits a {RoleGranted} event. Requirements: - the caller must have ``role``'s admin role."
      },
      "hasRole(bytes32,address)": {
        "details": "Returns `true` if `account` has been granted `role`."
      },
      "isApprovedForAll(address,address)": {
        "details": "See {IERC721-isApprovedForAll}."
      },
      "linkWithVintage(uint256,uint256)": {
        "details": "Function for alternative flow where Batch-NFT approval is done separately."
      },
      "mintEmptyBatch(address)": {
        "details": "To be updated by NFT owner after serial number has been provided",
        "params": {
          "to": "The address the NFT should be minted to. This should be the user."
        }
      },
      "name()": {
        "details": "See {IERC721Metadata-name}."
      },
      "owner()": {
        "details": "Returns the address of the current owner."
      },
      "ownerOf(uint256)": {
        "details": "See {IERC721-ownerOf}."
      },
      "pause()": {
        "details": "wraps _pause(), only Admin"
      },
      "paused()": {
        "details": "Returns true if the contract is paused, and false otherwise."
      },
      "proxiableUUID()": {
        "details": "Implementation of the ERC1822 {proxiableUUID} function. This returns the storage slot used by the implementation. It is used to validate that the this implementation remains valid after an upgrade. IMPORTANT: A proxy pointing at a proxiable contract should not be considered proxiable itself, because this risks bricking a proxy that upgrades to it, by delegating to itself until out of gas. Thus it is critical that this function revert if invoked through a proxy. This is guaranteed by the `notDelegated` modifier."
      },
      "rejectApprovedWithComment(uint256,string)": {
        "details": "admin function to reject a previously approved batch Requires that the Batch-NFT has not been fractionalized yet"
      },
      "renounceOwnership()": {
        "details": "Leaves the contract without owner. It will not be possible to call `onlyOwner` functions anymore. Can only be called by the current owner. NOTE: Renouncing ownership will leave the contract without an owner, thereby removing any functionality that is only available to the owner."
      },
      "renounceRole(bytes32,address)": {
        "details": "Revokes `role` from the calling account. Roles are often managed via {grantRole} and {revokeRole}: this function's purpose is to provide a mechanism for accounts to lose their privileges if they are compromised (such as when a trusted device is misplaced). If the calling account had been revoked `role`, emits a {RoleRevoked} event. Requirements: - the caller must be `account`."
      },
      "revokeRole(bytes32,address)": {
        "details": "Revokes `role` from `account`. If `account` had been granted `role`, emits a {RoleRevoked} event. Requirements: - the caller must have ``role``'s admin role."
      },
      "safeTransferFrom(address,address,uint256)": {
        "details": "See {IERC721-safeTransferFrom}."
      },
      "safeTransferFrom(address,address,uint256,bytes)": {
        "details": "See {IERC721-safeTransferFrom}."
      },
      "setApprovalForAll(address,bool)": {
        "details": "See {IERC721-setApprovalForAll}."
      },
      "setSerialandQuantity(uint256,string,uint256)": {
        "details": "Convenience function to only update serial number and quantity and not the serial/URI",
        "params": {
          "newQuantity": "quantity in tCO2e",
          "newSerialNumber": "the serial number received from the registry/credit cancellation"
        }
      },
      "symbol()": {
        "details": "See {IERC721Metadata-symbol}."
      },
      "tokenByIndex(uint256)": {
        "details": "See {IERC721Enumerable-tokenByIndex}."
      },
      "tokenOfOwnerByIndex(address,uint256)": {
        "details": "See {IERC721Enumerable-tokenOfOwnerByIndex}."
      },
      "tokenURI(uint256)": {
        "details": "Returns the Uniform Resource Identifier (URI) for `tokenId` token. based on the ERC721URIStorage implementation"
      },
      "tokenize(address,string,uint256,string,uint256)": {
        "params": {
          "projectVintageTokenId": "Project Vintage Token ID",
          "quantity": "quantity in tC02e",
          "serialNumber": "serialNumber recieved from the registry/credit cancellation",
          "to": "Address to empty NFT is minted to",
          "uri": "optional tokenURI information with additional data"
        }
      },
      "totalSupply()": {
        "details": "See {IERC721Enumerable-totalSupply}."
      },
      "transferFrom(address,address,uint256)": {
        "details": "Overridden here because of function overloading issues with ethers.js"
      },
      "transferOwnership(address)": {
        "details": "Transfers ownership of the contract to a new account (`newOwner`). Can only be called by the current owner."
      },
      "unpause()": {
        "details": "unpause the system, wraps _unpause(), only Admin"
      },
      "unsetSerialNumber(string)": {
        "details": "Function to remove uniqueness for previously set serialnumbers. N.B. even though (technically speaking) calling this to complete the upgrade to a fixed contract is the responsibility of the contract's owner (deployer), in practice that is a multi-sig even before upgrade, and unsetting a bunch of serials via multi-sig is not practical. So instead we allow the verifiers to do it."
      },
      "updateBatchWithData(uint256,string,uint256,string)": {
        "details": "Data is usually inserted by the user (NFT owner) via the UI",
        "params": {
          "quantity": "quantity in tCO2e",
          "serialNumber": "the serial number received from the registry/credit cancellation",
          "tokenId": "the Batch-NFT",
          "uri": "optional tokenURI with additional information"
        }
      },
      "upgradeTo(address)": {
        "details": "Upgrade the implementation of the proxy to `newImplementation`. Calls {_authorizeUpgrade}. Emits an {Upgraded} event."
      },
      "upgradeToAndCall(address,bytes)": {
        "details": "Upgrade the implementation of the proxy to `newImplementation`, and subsequently execute the function call encoded in `data`. Calls {_authorizeUpgrade}. Emits an {Upgraded} event."
      }
    },
    "stateVariables": {
      "VERSION": {
        "details": "auto-created getter VERSION() returns the current version of the smart contract"
      }
    },
    "version": 1
  },
  "userdoc": {
    "kind": "user",
    "methods": {
      "addComment(uint256,string)": {
        "notice": "Append a comment to a Batch-NFT"
      },
      "confirmRetirement(uint256)": {
        "notice": "Function to approve a Batch-NFT after validation. Fractionalization requires status Confirmed."
      },
      "fractionalize(uint256)": {
        "notice": "Function that automatically converts Batch-NFT to TCO2 (ERC20)"
      },
      "getBatchNFTData(uint256)": {
        "notice": "Returns all data from Batch-NFT"
      },
      "getConfirmationStatus(uint256)": {
        "notice": "Returns just the confirmation (approval) status of Batch-NFT"
      },
      "mintEmptyBatch(address)": {
        "notice": "Permissionlessly mint empty BatchNFTs Entry point to the carbon bridging process."
      },
      "pause()": {
        "notice": "Emergency function to disable contract's core functionality"
      },
      "rejectRetirement(uint256)": {
        "notice": "Function to reject Batch-NFTs, e.g. if the serial number entered is incorrect."
      },
      "rejectWithComment(uint256,string)": {
        "notice": "Function to reject Batch-NFTs, including a reason to be displayed to the user."
      },
      "setToPending(uint256)": {
        "notice": "Set batches back to pending after a rejection. This can be useful if there was an issue unrelated to the on-chain data of the batch, e.g. the batch was incorrectly rejected."
      },
      "tokenize(address,string,uint256,string,uint256)": {
        "notice": "This function allows external APIs to tokenize their carbon credits to validated NFTs"
      },
      "updateBatchWithData(uint256,string,uint256,string)": {
        "notice": "Updates BatchNFT after Serialnumber has been verified"
      }
    },
    "notice": "Also referred to as Batch-Contract (formerly BatchCollection) Contract that tokenizes retired/cancelled CO2 credits into NFTs via a claims process",
    "version": 1
  },
  "storageLayout": {
    "storage": [
      {
        "astId": 1489,
        "contract": "contracts/CarbonOffsetBatches.sol:CarbonOffsetBatches",
        "label": "_initialized",
        "offset": 0,
        "slot": "0",
        "type": "t_uint8"
      },
      {
        "astId": 1492,
        "contract": "contracts/CarbonOffsetBatches.sol:CarbonOffsetBatches",
        "label": "_initializing",
        "offset": 1,
        "slot": "0",
        "type": "t_bool"
      },
      {
        "astId": 4534,
        "contract": "contracts/CarbonOffsetBatches.sol:CarbonOffsetBatches",
        "label": "__gap",
        "offset": 0,
        "slot": "1",
        "type": "t_array(t_uint256)50_storage"
      },
      {
        "astId": 4841,
        "contract": "contracts/CarbonOffsetBatches.sol:CarbonOffsetBatches",
        "label": "__gap",
        "offset": 0,
        "slot": "51",
        "type": "t_array(t_uint256)50_storage"
      },
      {
        "astId": 2838,
        "contract": "contracts/CarbonOffsetBatches.sol:CarbonOffsetBatches",
        "label": "_name",
        "offset": 0,
        "slot": "101",
        "type": "t_string_storage"
      },
      {
        "astId": 2840,
        "contract": "contracts/CarbonOffsetBatches.sol:CarbonOffsetBatches",
        "label": "_symbol",
        "offset": 0,
        "slot": "102",
        "type": "t_string_storage"
      },
      {
        "astId": 2844,
        "contract": "contracts/CarbonOffsetBatches.sol:CarbonOffsetBatches",
        "label": "_owners",
        "offset": 0,
        "slot": "103",
        "type": "t_mapping(t_uint256,t_address)"
      },
      {
        "astId": 2848,
        "contract": "contracts/CarbonOffsetBatches.sol:CarbonOffsetBatches",
        "label": "_balances",
        "offset": 0,
        "slot": "104",
        "type": "t_mapping(t_address,t_uint256)"
      },
      {
        "astId": 2852,
        "contract": "contracts/CarbonOffsetBatches.sol:CarbonOffsetBatches",
        "label": "_tokenApprovals",
        "offset": 0,
        "slot": "105",
        "type": "t_mapping(t_uint256,t_address)"
      },
      {
        "astId": 2858,
        "contract": "contracts/CarbonOffsetBatches.sol:CarbonOffsetBatches",
        "label": "_operatorApprovals",
        "offset": 0,
        "slot": "106",
        "type": "t_mapping(t_address,t_mapping(t_address,t_bool))"
      },
      {
        "astId": 3699,
        "contract": "contracts/CarbonOffsetBatches.sol:CarbonOffsetBatches",
        "label": "__gap",
        "offset": 0,
        "slot": "107",
        "type": "t_array(t_uint256)44_storage"
      },
      {
        "astId": 3864,
        "contract": "contracts/CarbonOffsetBatches.sol:CarbonOffsetBatches",
        "label": "_ownedTokens",
        "offset": 0,
        "slot": "151",
        "type": "t_mapping(t_address,t_mapping(t_uint256,t_uint256))"
      },
      {
        "astId": 3868,
        "contract": "contracts/CarbonOffsetBatches.sol:CarbonOffsetBatches",
        "label": "_ownedTokensIndex",
        "offset": 0,
        "slot": "152",
        "type": "t_mapping(t_uint256,t_uint256)"
      },
      {
        "astId": 3871,
        "contract": "contracts/CarbonOffsetBatches.sol:CarbonOffsetBatches",
        "label": "_allTokens",
        "offset": 0,
        "slot": "153",
        "type": "t_array(t_uint256)dyn_storage"
      },
      {
        "astId": 3875,
        "contract": "contracts/CarbonOffsetBatches.sol:CarbonOffsetBatches",
        "label": "_allTokensIndex",
        "offset": 0,
        "slot": "154",
        "type": "t_mapping(t_uint256,t_uint256)"
      },
      {
        "astId": 4191,
        "contract": "contracts/CarbonOffsetBatches.sol:CarbonOffsetBatches",
        "label": "__gap",
        "offset": 0,
        "slot": "155",
        "type": "t_array(t_uint256)46_storage"
      },
      {
        "astId": 980,
        "contract": "contracts/CarbonOffsetBatches.sol:CarbonOffsetBatches",
        "label": "_owner",
        "offset": 0,
        "slot": "201",
        "type": "t_address"
      },
      {
        "astId": 1092,
        "contract": "contracts/CarbonOffsetBatches.sol:CarbonOffsetBatches",
        "label": "__gap",
        "offset": 0,
        "slot": "202",
        "type": "t_array(t_uint256)49_storage"
      },
      {
        "astId": 1781,
        "contract": "contracts/CarbonOffsetBatches.sol:CarbonOffsetBatches",
        "label": "_paused",
        "offset": 0,
        "slot": "251",
        "type": "t_bool"
      },
      {
        "astId": 1870,
        "contract": "contracts/CarbonOffsetBatches.sol:CarbonOffsetBatches",
        "label": "__gap",
        "offset": 0,
        "slot": "252",
        "type": "t_array(t_uint256)49_storage"
      },
      {
        "astId": 596,
        "contract": "contracts/CarbonOffsetBatches.sol:CarbonOffsetBatches",
        "label": "_roles",
        "offset": 0,
        "slot": "301",
        "type": "t_mapping(t_bytes32,t_struct(RoleData)591_storage)"
      },
      {
        "astId": 895,
        "contract": "contracts/CarbonOffsetBatches.sol:CarbonOffsetBatches",
        "label": "__gap",
        "offset": 0,
        "slot": "302",
        "type": "t_array(t_uint256)49_storage"
      },
      {
        "astId": 1471,
        "contract": "contracts/CarbonOffsetBatches.sol:CarbonOffsetBatches",
        "label": "__gap",
        "offset": 0,
        "slot": "351",
        "type": "t_array(t_uint256)50_storage"
      },
      {
        "astId": 1759,
        "contract": "contracts/CarbonOffsetBatches.sol:CarbonOffsetBatches",
        "label": "__gap",
        "offset": 0,
        "slot": "401",
        "type": "t_array(t_uint256)50_storage"
      },
      {
        "astId": 8057,
        "contract": "contracts/CarbonOffsetBatches.sol:CarbonOffsetBatches",
        "label": "batchTokenCounter",
        "offset": 0,
        "slot": "451",
        "type": "t_uint256"
      },
      {
        "astId": 8062,
        "contract": "contracts/CarbonOffsetBatches.sol:CarbonOffsetBatches",
        "label": "serialNumberApproved",
        "offset": 0,
        "slot": "452",
        "type": "t_mapping(t_string_memory_ptr,t_bool)"
      },
      {
        "astId": 8066,
        "contract": "contracts/CarbonOffsetBatches.sol:CarbonOffsetBatches",
        "label": "URIs",
        "offset": 0,
        "slot": "453",
        "type": "t_mapping(t_string_memory_ptr,t_bool)"
      },
      {
        "astId": 8070,
        "contract": "contracts/CarbonOffsetBatches.sol:CarbonOffsetBatches",
        "label": "verifiers",
        "offset": 0,
        "slot": "454",
        "type": "t_mapping(t_address,t_bool)"
      },
      {
        "astId": 8072,
        "contract": "contracts/CarbonOffsetBatches.sol:CarbonOffsetBatches",
        "label": "baseURI",
        "offset": 0,
        "slot": "455",
        "type": "t_string_storage"
      },
      {
        "astId": 8074,
        "contract": "contracts/CarbonOffsetBatches.sol:CarbonOffsetBatches",
        "label": "contractRegistry",
        "offset": 0,
        "slot": "456",
        "type": "t_address"
      },
      {
        "astId": 8097,
        "contract": "contracts/CarbonOffsetBatches.sol:CarbonOffsetBatches",
        "label": "nftList",
        "offset": 0,
        "slot": "457",
        "type": "t_mapping(t_uint256,t_struct(NFTData)8092_storage)"
      }
    ],
    "types": {
      "t_address": {
        "encoding": "inplace",
        "label": "address",
        "numberOfBytes": "20"
      },
      "t_array(t_address)dyn_storage": {
        "base": "t_address",
        "encoding": "dynamic_array",
        "label": "address[]",
        "numberOfBytes": "32"
      },
      "t_array(t_string_storage)dyn_storage": {
        "base": "t_string_storage",
        "encoding": "dynamic_array",
        "label": "string[]",
        "numberOfBytes": "32"
      },
      "t_array(t_uint256)44_storage": {
        "base": "t_uint256",
        "encoding": "inplace",
        "label": "uint256[44]",
        "numberOfBytes": "1408"
      },
      "t_array(t_uint256)46_storage": {
        "base": "t_uint256",
        "encoding": "inplace",
        "label": "uint256[46]",
        "numberOfBytes": "1472"
      },
      "t_array(t_uint256)49_storage": {
        "base": "t_uint256",
        "encoding": "inplace",
        "label": "uint256[49]",
        "numberOfBytes": "1568"
      },
      "t_array(t_uint256)50_storage": {
        "base": "t_uint256",
        "encoding": "inplace",
        "label": "uint256[50]",
        "numberOfBytes": "1600"
      },
      "t_array(t_uint256)dyn_storage": {
        "base": "t_uint256",
        "encoding": "dynamic_array",
        "label": "uint256[]",
        "numberOfBytes": "32"
      },
      "t_bool": {
        "encoding": "inplace",
        "label": "bool",
        "numberOfBytes": "1"
      },
      "t_bytes32": {
        "encoding": "inplace",
        "label": "bytes32",
        "numberOfBytes": "32"
      },
      "t_enum(RetirementStatus)8104": {
        "encoding": "inplace",
        "label": "enum RetirementStatus",
        "numberOfBytes": "1"
      },
      "t_mapping(t_address,t_bool)": {
        "encoding": "mapping",
        "key": "t_address",
        "label": "mapping(address => bool)",
        "numberOfBytes": "32",
        "value": "t_bool"
      },
      "t_mapping(t_address,t_mapping(t_address,t_bool))": {
        "encoding": "mapping",
        "key": "t_address",
        "label": "mapping(address => mapping(address => bool))",
        "numberOfBytes": "32",
        "value": "t_mapping(t_address,t_bool)"
      },
      "t_mapping(t_address,t_mapping(t_uint256,t_uint256))": {
        "encoding": "mapping",
        "key": "t_address",
        "label": "mapping(address => mapping(uint256 => uint256))",
        "numberOfBytes": "32",
        "value": "t_mapping(t_uint256,t_uint256)"
      },
      "t_mapping(t_address,t_uint256)": {
        "encoding": "mapping",
        "key": "t_address",
        "label": "mapping(address => uint256)",
        "numberOfBytes": "32",
        "value": "t_uint256"
      },
      "t_mapping(t_bytes32,t_struct(RoleData)591_storage)": {
        "encoding": "mapping",
        "key": "t_bytes32",
        "label": "mapping(bytes32 => struct AccessControlUpgradeable.RoleData)",
        "numberOfBytes": "32",
        "value": "t_struct(RoleData)591_storage"
      },
      "t_mapping(t_string_memory_ptr,t_bool)": {
        "encoding": "mapping",
        "key": "t_string_memory_ptr",
        "label": "mapping(string => bool)",
        "numberOfBytes": "32",
        "value": "t_bool"
      },
      "t_mapping(t_uint256,t_address)": {
        "encoding": "mapping",
        "key": "t_uint256",
        "label": "mapping(uint256 => address)",
        "numberOfBytes": "32",
        "value": "t_address"
      },
      "t_mapping(t_uint256,t_struct(NFTData)8092_storage)": {
        "encoding": "mapping",
        "key": "t_uint256",
        "label": "mapping(uint256 => struct CarbonOffsetBatchesStorage.NFTData)",
        "numberOfBytes": "32",
        "value": "t_struct(NFTData)8092_storage"
      },
      "t_mapping(t_uint256,t_uint256)": {
        "encoding": "mapping",
        "key": "t_uint256",
        "label": "mapping(uint256 => uint256)",
        "numberOfBytes": "32",
        "value": "t_uint256"
      },
      "t_string_memory_ptr": {
        "encoding": "bytes",
        "label": "string",
        "numberOfBytes": "32"
      },
      "t_string_storage": {
        "encoding": "bytes",
        "label": "string",
        "numberOfBytes": "32"
      },
      "t_struct(NFTData)8092_storage": {
        "encoding": "inplace",
        "label": "struct CarbonOffsetBatchesStorage.NFTData",
        "members": [
          {
            "astId": 8076,
            "contract": "contracts/CarbonOffsetBatches.sol:CarbonOffsetBatches",
            "label": "projectVintageTokenId",
            "offset": 0,
            "slot": "0",
            "type": "t_uint256"
          },
          {
            "astId": 8078,
            "contract": "contracts/CarbonOffsetBatches.sol:CarbonOffsetBatches",
            "label": "serialNumber",
            "offset": 0,
            "slot": "1",
            "type": "t_string_storage"
          },
          {
            "astId": 8080,
            "contract": "contracts/CarbonOffsetBatches.sol:CarbonOffsetBatches",
            "label": "quantity",
            "offset": 0,
            "slot": "2",
            "type": "t_uint256"
          },
          {
            "astId": 8083,
            "contract": "contracts/CarbonOffsetBatches.sol:CarbonOffsetBatches",
            "label": "status",
            "offset": 0,
            "slot": "3",
            "type": "t_enum(RetirementStatus)8104"
          },
          {
            "astId": 8085,
            "contract": "contracts/CarbonOffsetBatches.sol:CarbonOffsetBatches",
            "label": "uri",
            "offset": 0,
            "slot": "4",
            "type": "t_string_storage"
          },
          {
            "astId": 8088,
            "contract": "contracts/CarbonOffsetBatches.sol:CarbonOffsetBatches",
            "label": "comments",
            "offset": 0,
            "slot": "5",
            "type": "t_array(t_string_storage)dyn_storage"
          },
          {
            "astId": 8091,
            "contract": "contracts/CarbonOffsetBatches.sol:CarbonOffsetBatches",
            "label": "commentAuthors",
            "offset": 0,
            "slot": "6",
            "type": "t_array(t_address)dyn_storage"
          }
        ],
        "numberOfBytes": "224"
      },
      "t_struct(RoleData)591_storage": {
        "encoding": "inplace",
        "label": "struct AccessControlUpgradeable.RoleData",
        "members": [
          {
            "astId": 588,
            "contract": "contracts/CarbonOffsetBatches.sol:CarbonOffsetBatches",
            "label": "members",
            "offset": 0,
            "slot": "0",
            "type": "t_mapping(t_address,t_bool)"
          },
          {
            "astId": 590,
            "contract": "contracts/CarbonOffsetBatches.sol:CarbonOffsetBatches",
            "label": "adminRole",
            "offset": 0,
            "slot": "1",
            "type": "t_bytes32"
          }
        ],
        "numberOfBytes": "64"
      },
      "t_uint256": {
        "encoding": "inplace",
        "label": "uint256",
        "numberOfBytes": "32"
      },
      "t_uint8": {
        "encoding": "inplace",
        "label": "uint8",
        "numberOfBytes": "1"
      }
    }
  }
}