{
  "address": "0x101A0089735654bB23f4f33AFbFceA9c463fC67F",
  "abi": [
    {
      "inputs": [],
      "stateMutability": "nonpayable",
      "type": "constructor"
    },
    {
      "anonymous": false,
      "inputs": [
        {
          "indexed": false,
          "internalType": "address",
          "name": "previousAdmin",
          "type": "address"
        },
        {
          "indexed": false,
          "internalType": "address",
          "name": "newAdmin",
          "type": "address"
        }
      ],
      "name": "AdminChanged",
      "type": "event"
    },
    {
      "anonymous": false,
      "inputs": [
        {
          "indexed": true,
          "internalType": "address",
          "name": "owner",
          "type": "address"
        },
        {
          "indexed": true,
          "internalType": "address",
          "name": "approved",
          "type": "address"
        },
        {
          "indexed": true,
          "internalType": "uint256",
          "name": "tokenId",
          "type": "uint256"
        }
      ],
      "name": "Approval",
      "type": "event"
    },
    {
      "anonymous": false,
      "inputs": [
        {
          "indexed": true,
          "internalType": "address",
          "name": "owner",
          "type": "address"
        },
        {
          "indexed": true,
          "internalType": "address",
          "name": "operator",
          "type": "address"
        },
        {
          "indexed": false,
          "internalType": "bool",
          "name": "approved",
          "type": "bool"
        }
      ],
      "name": "ApprovalForAll",
      "type": "event"
    },
    {
      "anonymous": false,
      "inputs": [
        {
          "indexed": true,
          "internalType": "address",
          "name": "beacon",
          "type": "address"
        }
      ],
      "name": "BeaconUpgraded",
      "type": "event"
    },
    {
      "anonymous": false,
      "inputs": [
        {
          "indexed": true,
          "internalType": "uint256",
          "name": "tokenId",
          "type": "uint256"
        },
        {
          "indexed": false,
          "internalType": "address",
          "name": "oldBeneficiary",
          "type": "address"
        },
        {
          "indexed": false,
          "internalType": "address",
          "name": "newBeneficiary",
          "type": "address"
        }
      ],
      "name": "BeneficiaryUpdated",
      "type": "event"
    },
    {
      "anonymous": false,
      "inputs": [
        {
          "indexed": false,
          "internalType": "uint8",
          "name": "version",
          "type": "uint8"
        }
      ],
      "name": "Initialized",
      "type": "event"
    },
    {
      "anonymous": false,
      "inputs": [
        {
          "indexed": true,
          "internalType": "address",
          "name": "previousOwner",
          "type": "address"
        },
        {
          "indexed": true,
          "internalType": "address",
          "name": "newOwner",
          "type": "address"
        }
      ],
      "name": "OwnershipTransferred",
      "type": "event"
    },
    {
      "anonymous": false,
      "inputs": [
        {
          "indexed": false,
          "internalType": "address",
          "name": "account",
          "type": "address"
        }
      ],
      "name": "Paused",
      "type": "event"
    },
    {
      "anonymous": false,
      "inputs": [
        {
          "indexed": false,
          "internalType": "uint256",
          "name": "tokenId",
          "type": "uint256"
        }
      ],
      "name": "ProjectIdUpdated",
      "type": "event"
    },
    {
      "anonymous": false,
      "inputs": [
        {
          "indexed": false,
          "internalType": "address",
          "name": "receiver",
          "type": "address"
        },
        {
          "indexed": false,
          "internalType": "uint256",
          "name": "tokenId",
          "type": "uint256"
        }
      ],
      "name": "ProjectMinted",
      "type": "event"
    },
    {
      "anonymous": false,
      "inputs": [
        {
          "indexed": false,
          "internalType": "uint256",
          "name": "tokenId",
          "type": "uint256"
        }
      ],
      "name": "ProjectUpdated",
      "type": "event"
    },
    {
      "anonymous": false,
      "inputs": [
        {
          "indexed": true,
          "internalType": "bytes32",
          "name": "role",
          "type": "bytes32"
        },
        {
          "indexed": true,
          "internalType": "bytes32",
          "name": "previousAdminRole",
          "type": "bytes32"
        },
        {
          "indexed": true,
          "internalType": "bytes32",
          "name": "newAdminRole",
          "type": "bytes32"
        }
      ],
      "name": "RoleAdminChanged",
      "type": "event"
    },
    {
      "anonymous": false,
      "inputs": [
        {
          "indexed": true,
          "internalType": "bytes32",
          "name": "role",
          "type": "bytes32"
        },
        {
          "indexed": true,
          "internalType": "address",
          "name": "account",
          "type": "address"
        },
        {
          "indexed": true,
          "internalType": "address",
          "name": "sender",
          "type": "address"
        }
      ],
      "name": "RoleGranted",
      "type": "event"
    },
    {
      "anonymous": false,
      "inputs": [
        {
          "indexed": true,
          "internalType": "bytes32",
          "name": "role",
          "type": "bytes32"
        },
        {
          "indexed": true,
          "internalType": "address",
          "name": "account",
          "type": "address"
        },
        {
          "indexed": true,
          "internalType": "address",
          "name": "sender",
          "type": "address"
        }
      ],
      "name": "RoleRevoked",
      "type": "event"
    },
    {
      "anonymous": false,
      "inputs": [
        {
          "indexed": true,
          "internalType": "address",
          "name": "from",
          "type": "address"
        },
        {
          "indexed": true,
          "internalType": "address",
          "name": "to",
          "type": "address"
        },
        {
          "indexed": true,
          "internalType": "uint256",
          "name": "tokenId",
          "type": "uint256"
        }
      ],
      "name": "Transfer",
      "type": "event"
    },
    {
      "anonymous": false,
      "inputs": [
        {
          "indexed": false,
          "internalType": "address",
          "name": "account",
          "type": "address"
        }
      ],
      "name": "Unpaused",
      "type": "event"
    },
    {
      "anonymous": false,
      "inputs": [
        {
          "indexed": true,
          "internalType": "address",
          "name": "implementation",
          "type": "address"
        }
      ],
      "name": "Upgraded",
      "type": "event"
    },
    {
      "inputs": [],
      "name": "DEFAULT_ADMIN_ROLE",
      "outputs": [
        {
          "internalType": "bytes32",
          "name": "",
          "type": "bytes32"
        }
      ],
      "stateMutability": "view",
      "type": "function"
    },
    {
      "inputs": [],
      "name": "MANAGER_ROLE",
      "outputs": [
        {
          "internalType": "bytes32",
          "name": "",
          "type": "bytes32"
        }
      ],
      "stateMutability": "view",
      "type": "function"
    },
    {
      "inputs": [],
      "name": "VERSION",
      "outputs": [
        {
          "internalType": "string",
          "name": "",
          "type": "string"
        }
      ],
      "stateMutability": "view",
      "type": "function"
    },
    {
      "inputs": [
        {
          "internalType": "address",
          "name": "to",
          "type": "address"
        },
        {
          "internalType": "string",
          "name": "projectId",
          "type": "string"
        },
        {
          "internalType": "string",
          "name": "standard",
          "type": "string"
        },
        {
          "internalType": "string",
          "name": "methodology",
          "type": "string"
        },
        {
          "internalType": "string",
          "name": "region",
          "type": "string"
        },
        {
          "internalType": "string",
          "name": "storageMethod",
          "type": "string"
        },
        {
          "internalType": "string",
          "name": "method",
          "type": "string"
        },
        {
          "internalType": "string",
          "name": "emissionType",
          "type": "string"
        },
        {
          "internalType": "string",
          "name": "category",
          "type": "string"
        },
        {
          "internalType": "string",
          "name": "uri",
          "type": "string"
        },
        {
          "internalType": "address",
          "name": "beneficiary",
          "type": "address"
        }
      ],
      "name": "addNewProject",
      "outputs": [
        {
          "internalType": "uint256",
          "name": "",
          "type": "uint256"
        }
      ],
      "stateMutability": "nonpayable",
      "type": "function"
    },
    {
      "inputs": [
        {
          "internalType": "address",
          "name": "to",
          "type": "address"
        },
        {
          "internalType": "uint256",
          "name": "tokenId",
          "type": "uint256"
        }
      ],
      "name": "approve",
      "outputs": [],
      "stateMutability": "nonpayable",
      "type": "function"
    },
    {
      "inputs": [
        {
          "internalType": "address",
          "name": "owner",
          "type": "address"
        }
      ],
      "name": "balanceOf",
      "outputs": [
        {
          "internalType": "uint256",
          "name": "",
          "type": "uint256"
        }
      ],
      "stateMutability": "view",
      "type": "function"
    },
    {
      "inputs": [],
      "name": "baseURI",
      "outputs": [
        {
          "internalType": "string",
          "name": "",
          "type": "string"
        }
      ],
      "stateMutability": "view",
      "type": "function"
    },
    {
      "inputs": [],
      "name": "contractRegistry",
      "outputs": [
        {
          "internalType": "address",
          "name": "",
          "type": "address"
        }
      ],
      "stateMutability": "view",
      "type": "function"
    },
    {
      "inputs": [
        {
          "internalType": "uint256",
          "name": "tokenId",
          "type": "uint256"
        }
      ],
      "name": "getApproved",
      "outputs": [
        {
          "internalType": "address",
          "name": "",
          "type": "address"
        }
      ],
      "stateMutability": "view",
      "type": "function"
    },
    {
      "inputs": [
        {
          "internalType": "uint256",
          "name": "tokenId",
          "type": "uint256"
        }
      ],
      "name": "getProjectDataByTokenId",
      "outputs": [
        {
          "components": [
            {
              "internalType": "string",
              "name": "projectId",
              "type": "string"
            },
            {
              "internalType": "string",
              "name": "standard",
              "type": "string"
            },
            {
              "internalType": "string",
              "name": "methodology",
              "type": "string"
            },
            {
              "internalType": "string",
              "name": "region",
              "type": "string"
            },
            {
              "internalType": "string",
              "name": "storageMethod",
              "type": "string"
            },
            {
              "internalType": "string",
              "name": "method",
              "type": "string"
            },
            {
              "internalType": "string",
              "name": "emissionType",
              "type": "string"
            },
            {
              "internalType": "string",
              "name": "category",
              "type": "string"
            },
            {
              "internalType": "string",
              "name": "uri",
              "type": "string"
            },
            {
              "internalType": "address",
              "name": "beneficiary",
              "type": "address"
            }
          ],
          "internalType": "struct ProjectData",
          "name": "",
          "type": "tuple"
        }
      ],
      "stateMutability": "view",
      "type": "function"
    },
    {
      "inputs": [
        {
          "internalType": "uint256",
          "name": "tokenId",
          "type": "uint256"
        }
      ],
      "name": "getProjectId",
      "outputs": [
        {
          "internalType": "string",
          "name": "",
          "type": "string"
        }
      ],
      "stateMutability": "view",
      "type": "function"
    },
    {
      "inputs": [
        {
          "internalType": "bytes32",
          "name": "role",
          "type": "bytes32"
        }
      ],
      "name": "getRoleAdmin",
      "outputs": [
        {
          "internalType": "bytes32",
          "name": "",
          "type": "bytes32"
        }
      ],
      "stateMutability": "view",
      "type": "function"
    },
    {
      "inputs": [
        {
          "internalType": "bytes32",
          "name": "role",
          "type": "bytes32"
        },
        {
          "internalType": "address",
          "name": "account",
          "type": "address"
        }
      ],
      "name": "grantRole",
      "outputs": [],
      "stateMutability": "nonpayable",
      "type": "function"
    },
    {
      "inputs": [
        {
          "internalType": "bytes32",
          "name": "role",
          "type": "bytes32"
        },
        {
          "internalType": "address",
          "name": "account",
          "type": "address"
        }
      ],
      "name": "hasRole",
      "outputs": [
        {
          "internalType": "bool",
          "name": "",
          "type": "bool"
        }
      ],
      "stateMutability": "view",
      "type": "function"
    },
    {
      "inputs": [],
      "name": "initialize",
      "outputs": [],
      "stateMutability": "nonpayable",
      "type": "function"
    },
    {
      "inputs": [
        {
          "internalType": "address",
          "name": "owner",
          "type": "address"
        },
        {
          "internalType": "address",
          "name": "operator",
          "type": "address"
        }
      ],
      "name": "isApprovedForAll",
      "outputs": [
        {
          "internalType": "bool",
          "name": "",
          "type": "bool"
        }
      ],
      "stateMutability": "view",
      "type": "function"
    },
    {
      "inputs": [
        {
          "internalType": "uint256",
          "name": "projectTokenId",
          "type": "uint256"
        }
      ],
      "name": "isValidProjectTokenId",
      "outputs": [
        {
          "internalType": "bool",
          "name": "",
          "type": "bool"
        }
      ],
      "stateMutability": "view",
      "type": "function"
    },
    {
      "inputs": [],
      "name": "name",
      "outputs": [
        {
          "internalType": "string",
          "name": "",
          "type": "string"
        }
      ],
      "stateMutability": "view",
      "type": "function"
    },
    {
      "inputs": [],
      "name": "owner",
      "outputs": [
        {
          "internalType": "address",
          "name": "",
          "type": "address"
        }
      ],
      "stateMutability": "view",
      "type": "function"
    },
    {
      "inputs": [
        {
          "internalType": "uint256",
          "name": "tokenId",
          "type": "uint256"
        }
      ],
      "name": "ownerOf",
      "outputs": [
        {
          "internalType": "address",
          "name": "",
          "type": "address"
        }
      ],
      "stateMutability": "view",
      "type": "function"
    },
    {
      "inputs": [],
      "name": "pause",
      "outputs": [],
      "stateMutability": "nonpayable",
      "type": "function"
    },
    {
      "inputs": [],
      "name": "paused",
      "outputs": [
        {
          "internalType": "bool",
          "name": "",
          "type": "bool"
        }
      ],
      "stateMutability": "view",
      "type": "function"
    },
    {
      "inputs": [
        {
          "internalType": "string",
          "name": "",
          "type": "string"
        }
      ],
      "name": "pidToTokenId",
      "outputs": [
        {
          "internalType": "uint256",
          "name": "",
          "type": "uint256"
        }
      ],
      "stateMutability": "view",
      "type": "function"
    },
    {
      "inputs": [
        {
          "internalType": "uint256",
          "name": "",
          "type": "uint256"
        }
      ],
      "name": "projectData",
      "outputs": [
        {
          "internalType": "string",
          "name": "projectId",
          "type": "string"
        },
        {
          "internalType": "string",
          "name": "standard",
          "type": "string"
        },
        {
          "internalType": "string",
          "name": "methodology",
          "type": "string"
        },
        {
          "internalType": "string",
          "name": "region",
          "type": "string"
        },
        {
          "internalType": "string",
          "name": "storageMethod",
          "type": "string"
        },
        {
          "internalType": "string",
          "name": "method",
          "type": "string"
        },
        {
          "internalType": "string",
          "name": "emissionType",
          "type": "string"
        },
        {
          "internalType": "string",
          "name": "category",
          "type": "string"
        },
        {
          "internalType": "string",
          "name": "uri",
          "type": "string"
        },
        {
          "internalType": "address",
          "name": "beneficiary",
          "type": "address"
        }
      ],
      "stateMutability": "view",
      "type": "function"
    },
    {
      "inputs": [
        {
          "internalType": "string",
          "name": "",
          "type": "string"
        }
      ],
      "name": "projectIds",
      "outputs": [
        {
          "internalType": "bool",
          "name": "",
          "type": "bool"
        }
      ],
      "stateMutability": "view",
      "type": "function"
    },
    {
      "inputs": [],
      "name": "projectTokenCounter",
      "outputs": [
        {
          "internalType": "uint128",
          "name": "",
          "type": "uint128"
        }
      ],
      "stateMutability": "view",
      "type": "function"
    },
    {
      "inputs": [],
      "name": "proxiableUUID",
      "outputs": [
        {
          "internalType": "bytes32",
          "name": "",
          "type": "bytes32"
        }
      ],
      "stateMutability": "view",
      "type": "function"
    },
    {
      "inputs": [
        {
          "internalType": "uint256",
          "name": "projectTokenId",
          "type": "uint256"
        }
      ],
      "name": "removeProject",
      "outputs": [],
      "stateMutability": "nonpayable",
      "type": "function"
    },
    {
      "inputs": [],
      "name": "renounceOwnership",
      "outputs": [],
      "stateMutability": "nonpayable",
      "type": "function"
    },
    {
      "inputs": [
        {
          "internalType": "bytes32",
          "name": "role",
          "type": "bytes32"
        },
        {
          "internalType": "address",
          "name": "account",
          "type": "address"
        }
      ],
      "name": "renounceRole",
      "outputs": [],
      "stateMutability": "nonpayable",
      "type": "function"
    },
    {
      "inputs": [
        {
          "internalType": "bytes32",
          "name": "role",
          "type": "bytes32"
        },
        {
          "internalType": "address",
          "name": "account",
          "type": "address"
        }
      ],
      "name": "revokeRole",
      "outputs": [],
      "stateMutability": "nonpayable",
      "type": "function"
    },
    {
      "inputs": [
        {
          "internalType": "address",
          "name": "from",
          "type": "address"
        },
        {
          "internalType": "address",
          "name": "to",
          "type": "address"
        },
        {
          "internalType": "uint256",
          "name": "tokenId",
          "type": "uint256"
        }
      ],
      "name": "safeTransferFrom",
      "outputs": [],
      "stateMutability": "nonpayable",
      "type": "function"
    },
    {
      "inputs": [
        {
          "internalType": "address",
          "name": "from",
          "type": "address"
        },
        {
          "internalType": "address",
          "name": "to",
          "type": "address"
        },
        {
          "internalType": "uint256",
          "name": "tokenId",
          "type": "uint256"
        },
        {
          "internalType": "bytes",
          "name": "_data",
          "type": "bytes"
        }
      ],
      "name": "safeTransferFrom",
      "outputs": [],
      "stateMutability": "nonpayable",
      "type": "function"
    },
    {
      "inputs": [
        {
          "internalType": "address",
          "name": "operator",
          "type": "address"
        },
        {
          "internalType": "bool",
          "name": "approved",
          "type": "bool"
        }
      ],
      "name": "setApprovalForAll",
      "outputs": [],
      "stateMutability": "nonpayable",
      "type": "function"
    },
    {
      "inputs": [
        {
          "internalType": "string",
          "name": "gateway",
          "type": "string"
        }
      ],
      "name": "setBaseURI",
      "outputs": [],
      "stateMutability": "nonpayable",
      "type": "function"
    },
    {
      "inputs": [
        {
          "internalType": "address",
          "name": "_address",
          "type": "address"
        }
      ],
      "name": "setToucanContractRegistry",
      "outputs": [],
      "stateMutability": "nonpayable",
      "type": "function"
    },
    {
      "inputs": [
        {
          "internalType": "bytes4",
          "name": "interfaceId",
          "type": "bytes4"
        }
      ],
      "name": "supportsInterface",
      "outputs": [
        {
          "internalType": "bool",
          "name": "",
          "type": "bool"
        }
      ],
      "stateMutability": "view",
      "type": "function"
    },
    {
      "inputs": [],
      "name": "symbol",
      "outputs": [
        {
          "internalType": "string",
          "name": "",
          "type": "string"
        }
      ],
      "stateMutability": "view",
      "type": "function"
    },
    {
      "inputs": [
        {
          "internalType": "uint256",
          "name": "tokenId",
          "type": "uint256"
        }
      ],
      "name": "tokenURI",
      "outputs": [
        {
          "internalType": "string",
          "name": "",
          "type": "string"
        }
      ],
      "stateMutability": "view",
      "type": "function"
    },
    {
      "inputs": [],
      "name": "totalSupply",
      "outputs": [
        {
          "internalType": "uint128",
          "name": "",
          "type": "uint128"
        }
      ],
      "stateMutability": "view",
      "type": "function"
    },
    {
      "inputs": [
        {
          "internalType": "address",
          "name": "from",
          "type": "address"
        },
        {
          "internalType": "address",
          "name": "to",
          "type": "address"
        },
        {
          "internalType": "uint256",
          "name": "tokenId",
          "type": "uint256"
        }
      ],
      "name": "transferFrom",
      "outputs": [],
      "stateMutability": "nonpayable",
      "type": "function"
    },
    {
      "inputs": [
        {
          "internalType": "address",
          "name": "newOwner",
          "type": "address"
        }
      ],
      "name": "transferOwnership",
      "outputs": [],
      "stateMutability": "nonpayable",
      "type": "function"
    },
    {
      "inputs": [],
      "name": "unpause",
      "outputs": [],
      "stateMutability": "nonpayable",
      "type": "function"
    },
    {
      "inputs": [
        {
          "internalType": "uint256",
          "name": "tokenId",
          "type": "uint256"
        },
        {
          "internalType": "address",
          "name": "beneficiary",
          "type": "address"
        }
      ],
      "name": "updateBeneficiary",
      "outputs": [],
      "stateMutability": "nonpayable",
      "type": "function"
    },
    {
      "inputs": [
        {
          "internalType": "uint256",
          "name": "tokenId",
          "type": "uint256"
        },
        {
          "internalType": "string",
          "name": "newStandard",
          "type": "string"
        },
        {
          "internalType": "string",
          "name": "newMethodology",
          "type": "string"
        },
        {
          "internalType": "string",
          "name": "newRegion",
          "type": "string"
        },
        {
          "internalType": "string",
          "name": "newStorageMethod",
          "type": "string"
        },
        {
          "internalType": "string",
          "name": "newMethod",
          "type": "string"
        },
        {
          "internalType": "string",
          "name": "newEmissionType",
          "type": "string"
        },
        {
          "internalType": "string",
          "name": "newCategory",
          "type": "string"
        },
        {
          "internalType": "string",
          "name": "newUri",
          "type": "string"
        },
        {
          "internalType": "address",
          "name": "beneficiary",
          "type": "address"
        }
      ],
      "name": "updateProject",
      "outputs": [],
      "stateMutability": "nonpayable",
      "type": "function"
    },
    {
      "inputs": [
        {
          "internalType": "uint256",
          "name": "tokenId",
          "type": "uint256"
        },
        {
          "internalType": "string",
          "name": "newProjectId",
          "type": "string"
        }
      ],
      "name": "updateProjectId",
      "outputs": [],
      "stateMutability": "nonpayable",
      "type": "function"
    },
    {
      "inputs": [
        {
          "internalType": "address",
          "name": "newImplementation",
          "type": "address"
        }
      ],
      "name": "upgradeTo",
      "outputs": [],
      "stateMutability": "nonpayable",
      "type": "function"
    },
    {
      "inputs": [
        {
          "internalType": "address",
          "name": "newImplementation",
          "type": "address"
        },
        {
          "internalType": "bytes",
          "name": "data",
          "type": "bytes"
        }
      ],
      "name": "upgradeToAndCall",
      "outputs": [],
      "stateMutability": "payable",
      "type": "function"
    },
    {
      "inputs": [
        {
          "internalType": "uint256",
          "name": "",
          "type": "uint256"
        }
      ],
      "name": "validProjectTokenIds",
      "outputs": [
        {
          "internalType": "bool",
          "name": "",
          "type": "bool"
        }
      ],
      "stateMutability": "view",
      "type": "function"
    }
  ],
  "numDeployments": 5,
  "solcInputHash": "64f4f22c110c653116286889f169096e",
  "bytecode": "0x60a0604052306080523480156200001557600080fd5b506200002062000026565b62000156565b6200003260ff62000035565b50565b60008054610100900460ff1615620000ce578160ff1660011480156200006e57506200006c306200014760201b62002c621760201c565b155b620000c65760405162461bcd60e51b815260206004820152602e602482015260008051602062004f5a83398151915260448201526d191e481a5b9a5d1a585b1a5e995960921b60648201526084015b60405180910390fd5b506000919050565b60005460ff8084169116106200012d5760405162461bcd60e51b815260206004820152602e602482015260008051602062004f5a83398151915260448201526d191e481a5b9a5d1a585b1a5e995960921b6064820152608401620000bd565b506000805460ff191660ff92909216919091179055600190565b6001600160a01b03163b151590565b608051614dcc6200018e600039600081816110a6015281816110e60152818161196c015281816119ac0152611cb10152614dcc6000f3fe6080604052600436106102ae5760003560e01c80635c975abb11610175578063a22cb465116100dc578063dfe7ce5f11610095578063eb85f4d31161006f578063eb85f4d3146108d7578063ec87621c14610912578063f2fde38b14610934578063ffa1ad741461095457600080fd5b8063dfe7ce5f1461084e578063e882e37b1461086e578063e985e9c51461088e57600080fd5b8063a22cb4651461078e578063abf410e5146107ae578063b88d4fde146107ce578063bac0dd35146107ee578063c87b56dd1461080e578063d547741f1461082e57600080fd5b80638456cb591161012e5780638456cb59146106db5780638903f70c146106f05780638da5cb5b1461072657806391d148541461074457806395d89b4114610764578063a217fddf1461077957600080fd5b80635c975abb146106445780636352211e1461065c5780636c0360eb1461067c57806370a0823114610691578063715018a6146106b15780638129fc1c146106c657600080fd5b8063365fe85d116102195780634957f0e1116101d25780634957f0e11461058c5780634f1ef286146105bc57806351d8cff6146105cf57806352d1902d146105ef57806355f804b3146106045780635873f9981461062457600080fd5b8063365fe85d146104ba5780633d932dfb146104ea5780633e8eb5a41461050a5780633f4ba83a1461052a57806342842e0e1461053f57806347e316861461055f57600080fd5b806323b872dd1161026b57806323b872dd146103d1578063248a9ca3146103f15780632a31e837146104225780632f2ff15d1461045a57806336568abe1461047a5780633659cfe61461049a57600080fd5b806301ffc9a7146102b357806306fdde03146102e8578063081812fc1461030a578063095ea7b31461034257806310dda6711461036457806318160ddd14610392575b600080fd5b3480156102bf57600080fd5b506102d36102ce366004613f5b565b610985565b60405190151581526020015b60405180910390f35b3480156102f457600080fd5b506102fd6109b0565b6040516102df9190613fd0565b34801561031657600080fd5b5061032a610325366004613fe3565b610a42565b6040516001600160a01b0390911681526020016102df565b34801561034e57600080fd5b5061036261035d366004614013565b610acf565b005b34801561037057600080fd5b5061038461037f3660046140e0565b610be4565b6040519081526020016102df565b34801561039e57600080fd5b506065546103b990600160801b90046001600160801b031681565b6040516001600160801b0390911681526020016102df565b3480156103dd57600080fd5b506103626103ec366004614275565b610fc7565b3480156103fd57600080fd5b5061038461040c366004613fe3565b6000908152610102602052604090206001015490565b34801561042e57600080fd5b5061038461043d3660046142b1565b8051602081830181018051606b8252928201919093012091525481565b34801561046657600080fd5b506103626104753660046142e6565b610ff8565b34801561048657600080fd5b506103626104953660046142e6565b61101e565b3480156104a657600080fd5b506103626104b5366004614312565b61109c565b3480156104c657600080fd5b506102d36104d5366004613fe3565b6000908152606a602052604090205460ff1690565b3480156104f657600080fd5b506102fd610505366004613fe3565b61117b565b34801561051657600080fd5b506103626105253660046142e6565b61121d565b34801561053657600080fd5b50610362611331565b34801561054b57600080fd5b5061036261055a366004614275565b611392565b34801561056b57600080fd5b5061057f61057a366004613fe3565b6113ad565b6040516102df919061432d565b34801561059857600080fd5b506102d36105a7366004613fe3565b606a6020526000908152604090205460ff1681565b6103626105ca366004614461565b611962565b3480156105db57600080fd5b506103626105ea3660046144af565b611a2e565b3480156105fb57600080fd5b50610384611ca4565b34801561061057600080fd5b5061036261061f3660046142b1565b611d57565b34801561063057600080fd5b5061036261063f366004613fe3565b611d94565b34801561065057600080fd5b5060d05460ff166102d3565b34801561066857600080fd5b5061032a610677366004613fe3565b611f05565b34801561068857600080fd5b506102fd611f7c565b34801561069d57600080fd5b506103846106ac366004614312565b61200a565b3480156106bd57600080fd5b50610362612091565b3480156106d257600080fd5b506103626120c7565b3480156106e757600080fd5b506103626121b6565b3480156106fc57600080fd5b5061071061070b366004613fe3565b612217565b6040516102df9a999897969594939291906144e0565b34801561073257600080fd5b50609e546001600160a01b031661032a565b34801561075057600080fd5b506102d361075f3660046142e6565b612734565b34801561077057600080fd5b506102fd612760565b34801561078557600080fd5b50610384600081565b34801561079a57600080fd5b506103626107a93660046145ae565b61276f565b3480156107ba57600080fd5b5060665461032a906001600160a01b031681565b3480156107da57600080fd5b506103626107e93660046145ea565b61277a565b3480156107fa57600080fd5b506065546103b9906001600160801b031681565b34801561081a57600080fd5b506102fd610829366004613fe3565b6127b2565b34801561083a57600080fd5b506103626108493660046142e6565b61291e565b34801561085a57600080fd5b50610362610869366004614652565b612944565b34801561087a57600080fd5b50610362610889366004614312565b612b7e565b34801561089a57600080fd5b506102d36108a93660046147ae565b6001600160a01b03918216600090815260716020908152604080832093909416825291909152205460ff1690565b3480156108e357600080fd5b506102d36108f23660046142b1565b805160208183018101805160698252928201919093012091525460ff1681565b34801561091e57600080fd5b50610384600080516020614d5083398151915281565b34801561094057600080fd5b5061036261094f366004614312565b612bca565b34801561096057600080fd5b506102fd604051806040016040528060058152602001640312e312e360dc1b81525081565b60006001600160e01b03198216637965db0b60e01b14806109aa57506109aa82612c71565b92915050565b6060606c80546109bf906147d8565b80601f01602080910402602001604051908101604052809291908181526020018280546109eb906147d8565b8015610a385780601f10610a0d57610100808354040283529160200191610a38565b820191906000526020600020905b815481529060010190602001808311610a1b57829003601f168201915b5050505050905090565b6000610a4d82612cc1565b610ab35760405162461bcd60e51b815260206004820152602c60248201527f4552433732313a20617070726f76656420717565727920666f72206e6f6e657860448201526b34b9ba32b73a103a37b5b2b760a11b60648201526084015b60405180910390fd5b506000908152607060205260409020546001600160a01b031690565b6000610ada82611f05565b9050806001600160a01b0316836001600160a01b031603610b475760405162461bcd60e51b815260206004820152602160248201527f4552433732313a20617070726f76616c20746f2063757272656e74206f776e656044820152603960f91b6064820152608401610aaa565b336001600160a01b0382161480610b635750610b6381336108a9565b610bd55760405162461bcd60e51b815260206004820152603860248201527f4552433732313a20617070726f76652063616c6c6572206973206e6f74206f7760448201527f6e6572206e6f7220617070726f76656420666f7220616c6c00000000000000006064820152608401610aaa565b610bdf8383612cde565b505050565b6000610bfe600080516020614d5083398151915233612734565b80610c22575033610c17609e546001600160a01b031690565b6001600160a01b0316145b610c3e5760405162461bcd60e51b8152600401610aaa90614812565b60d05460ff1615610c615760405162461bcd60e51b8152600401610aaa90614849565b610c7a8b60405180602001604052806000815250612d4c565b15610cc75760405162461bcd60e51b815260206004820152601960248201527f50726f6a65637449642063616e6e6f7420626520656d707479000000000000006044820152606401610aaa565b60698b604051610cd79190614873565b9081526040519081900360200190205460ff1615610d305760405162461bcd60e51b815260206004820152601660248201527550726f6a65637420616c72656164792065786973747360501b6044820152606401610aaa565b600160698c604051610d429190614873565b90815260408051918290036020908101909220805493151560ff19948516179055606580546001600160801b038082166001908101808316600160801b94859004841683019093169093026fffffffffffffffffffffffffffffffff1916919091179092556000818152606a909452919092208054909316909117909155610dca8d82612d5f565b60008181526068602090815260409091208d51610de9928f0190613e76565b5060008181526068602090815260409091208c51610e0f926001909201918e0190613e76565b5060008181526068602090815260409091208b51610e35926002909201918d0190613e76565b5060008181526068602090815260409091208a51610e5b926003909201918c0190613e76565b5060008181526068602090815260409091208951610e81926004909201918b0190613e76565b5060008181526068602090815260409091208851610ea7926005909201918a0190613e76565b5060008181526068602090815260409091208751610ecd92600690920191890190613e76565b5060008181526068602090815260409091208651610ef392600790920191880190613e76565b5060008181526068602090815260409091208551610f1992600890920191870190613e76565b506000818152606860205260409081902060090180546001600160a01b0386166001600160a01b0319909116179055517fb6c14e0fdc5fdfaea1cc5671e7ec0cee1c83aafdee14c1811fc2837ad4687a8690610f8c908f9084906001600160a01b03929092168252602082015260400190565b60405180910390a180606b8d604051610fa59190614873565b9081526040519081900360200190205590505b9b9a5050505050505050505050565b610fd13382612e92565b610fed5760405162461bcd60e51b8152600401610aaa9061488f565b610bdf838383612f7b565b6000828152610102602052604090206001015461101481613117565b610bdf8383613121565b6001600160a01b038116331461108e5760405162461bcd60e51b815260206004820152602f60248201527f416363657373436f6e74726f6c3a2063616e206f6e6c792072656e6f756e636560448201526e103937b632b9903337b91039b2b63360891b6064820152608401610aaa565b61109882826131a8565b5050565b6001600160a01b037f00000000000000000000000000000000000000000000000000000000000000001630036110e45760405162461bcd60e51b8152600401610aaa906148e0565b7f00000000000000000000000000000000000000000000000000000000000000006001600160a01b031661112d600080516020614d30833981519152546001600160a01b031690565b6001600160a01b0316146111535760405162461bcd60e51b8152600401610aaa9061492c565b61115c81613210565b604080516000808252602082019092526111789183919061323a565b50565b6000818152606860205260409020805460609190611198906147d8565b80601f01602080910402602001604051908101604052809291908181526020018280546111c4906147d8565b80156112115780601f106111e657610100808354040283529160200191611211565b820191906000526020600020905b8154815290600101906020018083116111f457829003601f168201915b50505050509050919050565b611235600080516020614d5083398151915233612734565b8061125957503361124e609e546001600160a01b031690565b6001600160a01b0316145b6112755760405162461bcd60e51b8152600401610aaa90614812565b60d05460ff16156112985760405162461bcd60e51b8152600401610aaa90614849565b6112a182612cc1565b6112bd5760405162461bcd60e51b8152600401610aaa90614978565b60008281526068602090815260409182902060090180546001600160a01b031981166001600160a01b0386811691821790935584519290911680835292820152909184917ff585da3452445cd066854ce9c4f3306e8deddd1d571e840b1dddaa1f3d4de53c910160405180910390a2505050565b6066546001600160a01b031661134f609e546001600160a01b031690565b6001600160a01b03821633148061136e57506001600160a01b03811633145b61138a5760405162461bcd60e51b8152600401610aaa906149a8565b6110986133a5565b610bdf8383836040518060200160405280600081525061277a565b61140c60405180610140016040528060608152602001606081526020016060815260200160608152602001606081526020016060815260200160608152602001606081526020016060815260200160006001600160a01b031681525090565b6000828152606860205260409081902081516101408101909252805482908290611435906147d8565b80601f0160208091040260200160405190810160405280929190818152602001828054611461906147d8565b80156114ae5780601f10611483576101008083540402835291602001916114ae565b820191906000526020600020905b81548152906001019060200180831161149157829003601f168201915b505050505081526020016001820180546114c7906147d8565b80601f01602080910402602001604051908101604052809291908181526020018280546114f3906147d8565b80156115405780601f1061151557610100808354040283529160200191611540565b820191906000526020600020905b81548152906001019060200180831161152357829003601f168201915b50505050508152602001600282018054611559906147d8565b80601f0160208091040260200160405190810160405280929190818152602001828054611585906147d8565b80156115d25780601f106115a7576101008083540402835291602001916115d2565b820191906000526020600020905b8154815290600101906020018083116115b557829003601f168201915b505050505081526020016003820180546115eb906147d8565b80601f0160208091040260200160405190810160405280929190818152602001828054611617906147d8565b80156116645780601f1061163957610100808354040283529160200191611664565b820191906000526020600020905b81548152906001019060200180831161164757829003601f168201915b5050505050815260200160048201805461167d906147d8565b80601f01602080910402602001604051908101604052809291908181526020018280546116a9906147d8565b80156116f65780601f106116cb576101008083540402835291602001916116f6565b820191906000526020600020905b8154815290600101906020018083116116d957829003601f168201915b5050505050815260200160058201805461170f906147d8565b80601f016020809104026020016040519081016040528092919081815260200182805461173b906147d8565b80156117885780601f1061175d57610100808354040283529160200191611788565b820191906000526020600020905b81548152906001019060200180831161176b57829003601f168201915b505050505081526020016006820180546117a1906147d8565b80601f01602080910402602001604051908101604052809291908181526020018280546117cd906147d8565b801561181a5780601f106117ef5761010080835404028352916020019161181a565b820191906000526020600020905b8154815290600101906020018083116117fd57829003601f168201915b50505050508152602001600782018054611833906147d8565b80601f016020809104026020016040519081016040528092919081815260200182805461185f906147d8565b80156118ac5780601f10611881576101008083540402835291602001916118ac565b820191906000526020600020905b81548152906001019060200180831161188f57829003601f168201915b505050505081526020016008820180546118c5906147d8565b80601f01602080910402602001604051908101604052809291908181526020018280546118f1906147d8565b801561193e5780601f106119135761010080835404028352916020019161193e565b820191906000526020600020905b81548152906001019060200180831161192157829003601f168201915b5050509183525050600991909101546001600160a01b031660209091015292915050565b6001600160a01b037f00000000000000000000000000000000000000000000000000000000000000001630036119aa5760405162461bcd60e51b8152600401610aaa906148e0565b7f00000000000000000000000000000000000000000000000000000000000000006001600160a01b03166119f3600080516020614d30833981519152546001600160a01b031690565b6001600160a01b031614611a195760405162461bcd60e51b8152600401610aaa9061492c565b611a2282613210565b6110988282600161323a565b611a46600080516020614d5083398151915233612734565b80611a6a575033611a5f609e546001600160a01b031690565b6001600160a01b0316145b611a865760405162461bcd60e51b8152600401610aaa90614812565b60d05460ff1615611aa95760405162461bcd60e51b8152600401610aaa90614849565b611ab282612cc1565b611ace5760405162461bcd60e51b8152600401610aaa90614978565b606981604051611ade9190614873565b9081526040519081900360200190205460ff1615611b575760405162461bcd60e51b815260206004820152603060248201527f43616e74206368616e67652063757272656e742070726f6a656374496420746f60448201526f20616e206578697374696e67206f6e6560801b6064820152608401610aaa565b60008281526068602052604081208054611b70906147d8565b80601f0160208091040260200160405190810160405280929190818152602001828054611b9c906147d8565b8015611be95780601f10611bbe57610100808354040283529160200191611be9565b820191906000526020600020905b815481529060010190602001808311611bcc57829003601f168201915b505050505090506000606982604051611c029190614873565b9081526040805160209281900383019020805460ff191693151593909317909255600085815260688252919091208351611c3e92850190613e76565b506001606983604051611c519190614873565b90815260405160209181900382018120805460ff1916931515939093179092558482527f7ece4c83f6835308c521f2fa1104412ee3c8e72879d4a3ea74f2c9a5223ac99a910160405180910390a1505050565b6000306001600160a01b037f00000000000000000000000000000000000000000000000000000000000000001614611d445760405162461bcd60e51b815260206004820152603860248201527f555550535570677261646561626c653a206d757374206e6f742062652063616c60448201527f6c6564207468726f7567682064656c656761746563616c6c00000000000000006064820152608401610aaa565b50600080516020614d3083398151915290565b609e546001600160a01b03163314611d815760405162461bcd60e51b8152600401610aaa906149ed565b8051611098906067906020840190613e76565b611dac600080516020614d5083398151915233612734565b80611dd0575033611dc5609e546001600160a01b031690565b6001600160a01b0316145b611dec5760405162461bcd60e51b8152600401610aaa90614812565b60d05460ff1615611e0f5760405162461bcd60e51b8152600401610aaa90614849565b600081815260686020526040812090611e288282613efa565b611e36600183016000613efa565b611e44600283016000613efa565b611e52600383016000613efa565b611e60600483016000613efa565b611e6e600583016000613efa565b611e7c600683016000613efa565b611e8a600783016000613efa565b611e98600883016000613efa565b5060090180546001600160a01b031916905560658054600160801b90046001600160801b0316906010611eca83614a38565b82546001600160801b039182166101009390930a9283029190920219909116179055506000908152606a60205260409020805460ff19169055565b6000818152606e60205260408120546001600160a01b0316806109aa5760405162461bcd60e51b815260206004820152602960248201527f4552433732313a206f776e657220717565727920666f72206e6f6e657869737460448201526832b73a103a37b5b2b760b91b6064820152608401610aaa565b60678054611f89906147d8565b80601f0160208091040260200160405190810160405280929190818152602001828054611fb5906147d8565b80156120025780601f10611fd757610100808354040283529160200191612002565b820191906000526020600020905b815481529060010190602001808311611fe557829003601f168201915b505050505081565b60006001600160a01b0382166120755760405162461bcd60e51b815260206004820152602a60248201527f4552433732313a2062616c616e636520717565727920666f7220746865207a65604482015269726f206164647265737360b01b6064820152608401610aaa565b506001600160a01b03166000908152606f602052604090205490565b609e546001600160a01b031633146120bb5760405162461bcd60e51b8152600401610aaa906149ed565b6120c56000613438565b565b60006120d3600161348a565b905080156120eb576000805461ff0019166101001790555b6120f3613517565b6121536040518060400160405280602081526020017f546f7563616e2050726f746f636f6c3a20436172626f6e2050726f6a65637473815250604051806040016040528060098152602001680544f5543414e2d43560bc1b81525061353e565b61215b61358c565b6121636135bc565b61216e600033613121565b8015611178576000805461ff0019169055604051600181527f7f26b83ff96e1f2b6a682f133852f6798a09c465da95921460cefb38474024989060200160405180910390a150565b6066546001600160a01b03166121d4609e546001600160a01b031690565b6001600160a01b0382163314806121f357506001600160a01b03811633145b61220f5760405162461bcd60e51b8152600401610aaa906149a8565b6110986135ef565b606860205260009081526040902080548190612232906147d8565b80601f016020809104026020016040519081016040528092919081815260200182805461225e906147d8565b80156122ab5780601f10612280576101008083540402835291602001916122ab565b820191906000526020600020905b81548152906001019060200180831161228e57829003601f168201915b5050505050908060010180546122c0906147d8565b80601f01602080910402602001604051908101604052809291908181526020018280546122ec906147d8565b80156123395780601f1061230e57610100808354040283529160200191612339565b820191906000526020600020905b81548152906001019060200180831161231c57829003601f168201915b50505050509080600201805461234e906147d8565b80601f016020809104026020016040519081016040528092919081815260200182805461237a906147d8565b80156123c75780601f1061239c576101008083540402835291602001916123c7565b820191906000526020600020905b8154815290600101906020018083116123aa57829003601f168201915b5050505050908060030180546123dc906147d8565b80601f0160208091040260200160405190810160405280929190818152602001828054612408906147d8565b80156124555780601f1061242a57610100808354040283529160200191612455565b820191906000526020600020905b81548152906001019060200180831161243857829003601f168201915b50505050509080600401805461246a906147d8565b80601f0160208091040260200160405190810160405280929190818152602001828054612496906147d8565b80156124e35780601f106124b8576101008083540402835291602001916124e3565b820191906000526020600020905b8154815290600101906020018083116124c657829003601f168201915b5050505050908060050180546124f8906147d8565b80601f0160208091040260200160405190810160405280929190818152602001828054612524906147d8565b80156125715780601f1061254657610100808354040283529160200191612571565b820191906000526020600020905b81548152906001019060200180831161255457829003601f168201915b505050505090806006018054612586906147d8565b80601f01602080910402602001604051908101604052809291908181526020018280546125b2906147d8565b80156125ff5780601f106125d4576101008083540402835291602001916125ff565b820191906000526020600020905b8154815290600101906020018083116125e257829003601f168201915b505050505090806007018054612614906147d8565b80601f0160208091040260200160405190810160405280929190818152602001828054612640906147d8565b801561268d5780601f106126625761010080835404028352916020019161268d565b820191906000526020600020905b81548152906001019060200180831161267057829003601f168201915b5050505050908060080180546126a2906147d8565b80601f01602080910402602001604051908101604052809291908181526020018280546126ce906147d8565b801561271b5780601f106126f05761010080835404028352916020019161271b565b820191906000526020600020905b8154815290600101906020018083116126fe57829003601f168201915b505050600990930154919250506001600160a01b03168a565b6000918252610102602090815260408084206001600160a01b0393909316845291905290205460ff1690565b6060606d80546109bf906147d8565b611098338383613647565b6127843383612e92565b6127a05760405162461bcd60e51b8152600401610aaa9061488f565b6127ac84848484613715565b50505050565b60606127bd82612cc1565b6128235760405162461bcd60e51b815260206004820152603160248201527f45524337323155524953746f726167653a2055524920717565727920666f72206044820152703737b732bc34b9ba32b73a103a37b5b2b760791b6064820152608401610aaa565b6000828152606860205260408120600801805461283f906147d8565b80601f016020809104026020016040519081016040528092919081815260200182805461286b906147d8565b80156128b85780601f1061288d576101008083540402835291602001916128b8565b820191906000526020600020905b81548152906001019060200180831161289b57829003601f168201915b5050505050905060006128c9613748565b905080516000036128db575092915050565b81511561290d5780826040516020016128f5929190614a5b565b60405160208183030381529060405292505050919050565b61291684613757565b949350505050565b6000828152610102602052604090206001015461293a81613117565b610bdf83836131a8565b61295c600080516020614d5083398151915233612734565b80612980575033612975609e546001600160a01b031690565b6001600160a01b0316145b61299c5760405162461bcd60e51b8152600401610aaa90614812565b60d05460ff16156129bf5760405162461bcd60e51b8152600401610aaa90614849565b6129c88a612cc1565b6129e45760405162461bcd60e51b8152600401610aaa90614978565b60008a81526068602090815260409091208a51612a09926001909201918c0190613e76565b5060008a81526068602090815260409091208951612a2f926002909201918b0190613e76565b5060008a81526068602090815260409091208851612a55926003909201918a0190613e76565b5060008a81526068602090815260409091208751612a7b92600490920191890190613e76565b5060008a81526068602090815260409091208651612aa192600590920191880190613e76565b5060008a81526068602090815260409091208551612ac792600690920191870190613e76565b5060008a81526068602090815260409091208451612aed92600790920191860190613e76565b5060008a81526068602090815260409091208351612b1392600890920191850190613e76565b5060008a81526068602090815260409182902060090180546001600160a01b0319166001600160a01b03851617905590518b81527fda124279e8f8c56d142d1f8d79ba312ac54eb788b54f07b8040ff61eaf211009910160405180910390a150505050505050505050565b609e546001600160a01b03163314612ba85760405162461bcd60e51b8152600401610aaa906149ed565b606680546001600160a01b0319166001600160a01b0392909216919091179055565b609e546001600160a01b03163314612bf45760405162461bcd60e51b8152600401610aaa906149ed565b6001600160a01b038116612c595760405162461bcd60e51b815260206004820152602660248201527f4f776e61626c653a206e6577206f776e657220697320746865207a65726f206160448201526564647265737360d01b6064820152608401610aaa565b61117881613438565b6001600160a01b03163b151590565b60006001600160e01b031982166380ac58cd60e01b1480612ca257506001600160e01b03198216635b5e139f60e01b145b806109aa57506301ffc9a760e01b6001600160e01b03198316146109aa565b6000908152606e60205260409020546001600160a01b0316151590565b600081815260706020526040902080546001600160a01b0319166001600160a01b0384169081179091558190612d1382611f05565b6001600160a01b03167f8c5be1e5ebec7d5bd14f71427d1e84f3dd0314c0f7b2291e5b200ac8c7c3b92560405160405180910390a45050565b6000612d588383613821565b9392505050565b6001600160a01b038216612db55760405162461bcd60e51b815260206004820181905260248201527f4552433732313a206d696e7420746f20746865207a65726f20616464726573736044820152606401610aaa565b612dbe81612cc1565b15612e0b5760405162461bcd60e51b815260206004820152601c60248201527f4552433732313a20746f6b656e20616c7265616479206d696e746564000000006044820152606401610aaa565b6001600160a01b0382166000908152606f60205260408120805460019290612e34908490614a8a565b90915550506000818152606e602052604080822080546001600160a01b0319166001600160a01b03861690811790915590518392907fddf252ad1be2c89b69c2b068fc378daa952ba7f163c4a11628f55a4df523b3ef908290a45050565b6000612e9d82612cc1565b612efe5760405162461bcd60e51b815260206004820152602c60248201527f4552433732313a206f70657261746f7220717565727920666f72206e6f6e657860448201526b34b9ba32b73a103a37b5b2b760a11b6064820152608401610aaa565b6000612f0983611f05565b9050806001600160a01b0316846001600160a01b03161480612f5057506001600160a01b0380821660009081526071602090815260408083209388168352929052205460ff165b806129165750836001600160a01b0316612f6984610a42565b6001600160a01b031614949350505050565b826001600160a01b0316612f8e82611f05565b6001600160a01b031614612ff25760405162461bcd60e51b815260206004820152602560248201527f4552433732313a207472616e736665722066726f6d20696e636f72726563742060448201526437bbb732b960d91b6064820152608401610aaa565b6001600160a01b0382166130545760405162461bcd60e51b8152602060048201526024808201527f4552433732313a207472616e7366657220746f20746865207a65726f206164646044820152637265737360e01b6064820152608401610aaa565b61305f600082612cde565b6001600160a01b0383166000908152606f60205260408120805460019290613088908490614aa2565b90915550506001600160a01b0382166000908152606f602052604081208054600192906130b6908490614a8a565b90915550506000818152606e602052604080822080546001600160a01b0319166001600160a01b0386811691821790925591518493918716917fddf252ad1be2c89b69c2b068fc378daa952ba7f163c4a11628f55a4df523b3ef91a4505050565b6111788133613846565b61312b8282612734565b611098576000828152610102602090815260408083206001600160a01b03851684529091529020805460ff191660011790556131643390565b6001600160a01b0316816001600160a01b0316837f2f8788117e7eff1d82e926ec794901d17c78024a50270940304540a733656f0d60405160405180910390a45050565b6131b28282612734565b15611098576000828152610102602090815260408083206001600160a01b0385168085529252808320805460ff1916905551339285917ff6391f5c32d9c69d2a47ea670b442974b53935d1edc7fd64eb21e047a839171b9190a45050565b609e546001600160a01b031633146111785760405162461bcd60e51b8152600401610aaa906149ed565b7f4910fdfa16fed3260ed0e7147f7cc6da11a60208b5b9406d12a635614ffd91435460ff161561326d57610bdf836138aa565b826001600160a01b03166352d1902d6040518163ffffffff1660e01b8152600401602060405180830381865afa9250505080156132c7575060408051601f3d908101601f191682019092526132c491810190614ab9565b60015b61332a5760405162461bcd60e51b815260206004820152602e60248201527f45524331393637557067726164653a206e657720696d706c656d656e7461746960448201526d6f6e206973206e6f74205555505360901b6064820152608401610aaa565b600080516020614d3083398151915281146133995760405162461bcd60e51b815260206004820152602960248201527f45524331393637557067726164653a20756e737570706f727465642070726f786044820152681a58589b195555525160ba1b6064820152608401610aaa565b50610bdf838383613946565b60d05460ff166133ee5760405162461bcd60e51b815260206004820152601460248201527314185d5cd8589b194e881b9bdd081c185d5cd95960621b6044820152606401610aaa565b60d0805460ff191690557f5db9ee0a495bf2e6ff9c91a7834c1ba4fdd244a5e8aa4e537bd38aeae4b073aa335b6040516001600160a01b03909116815260200160405180910390a1565b609e80546001600160a01b038381166001600160a01b0319831681179093556040519116919082907f8be0079c531659141344cd1fd0a4f28419497f9722a3daafe3b4186f6b6457e090600090a35050565b60008054610100900460ff16156134d1578160ff1660011480156134ad5750303b155b6134c95760405162461bcd60e51b8152600401610aaa90614ad2565b506000919050565b60005460ff8084169116106134f85760405162461bcd60e51b8152600401610aaa90614ad2565b506000805460ff191660ff92909216919091179055600190565b919050565b600054610100900460ff166120c55760405162461bcd60e51b8152600401610aaa90614b20565b600054610100900460ff166135655760405162461bcd60e51b8152600401610aaa90614b20565b815161357890606c906020850190613e76565b508051610bdf90606d906020840190613e76565b600054610100900460ff166135b35760405162461bcd60e51b8152600401610aaa90614b20565b6120c533613438565b600054610100900460ff166135e35760405162461bcd60e51b8152600401610aaa90614b20565b60d0805460ff19169055565b60d05460ff16156136125760405162461bcd60e51b8152600401610aaa90614849565b60d0805460ff191660011790557f62e78cea01bee320cd4e420270b5ea74000d11b0c9f74754ebdbfc544b05a25861341b3390565b816001600160a01b0316836001600160a01b0316036136a85760405162461bcd60e51b815260206004820152601960248201527f4552433732313a20617070726f766520746f2063616c6c6572000000000000006044820152606401610aaa565b6001600160a01b03838116600081815260716020908152604080832094871680845294825291829020805460ff191686151590811790915591519182527f17307eab39ab6107e8899845ad3d59bd9653f200f220920489ca2b5937696c31910160405180910390a3505050565b613720848484612f7b565b61372c8484848461396b565b6127ac5760405162461bcd60e51b8152600401610aaa90614b6b565b6060606780546109bf906147d8565b606061376282612cc1565b6137c65760405162461bcd60e51b815260206004820152602f60248201527f4552433732314d657461646174613a2055524920717565727920666f72206e6f60448201526e3732bc34b9ba32b73a103a37b5b2b760891b6064820152608401610aaa565b60006137d0613748565b905060008151116137f05760405180602001604052806000815250612d58565b806137fa84613a6c565b60405160200161380b929190614a5b565b6040516020818303038152906040529392505050565b600081518351148015612d585750508051602091820120825192909101919091201490565b6138508282612734565b61109857613868816001600160a01b03166014613b6d565b613873836020613b6d565b604051602001613884929190614bbd565b60408051601f198184030181529082905262461bcd60e51b8252610aaa91600401613fd0565b6001600160a01b0381163b6139175760405162461bcd60e51b815260206004820152602d60248201527f455243313936373a206e657720696d706c656d656e746174696f6e206973206e60448201526c1bdd08184818dbdb9d1c9858dd609a1b6064820152608401610aaa565b600080516020614d3083398151915280546001600160a01b0319166001600160a01b0392909216919091179055565b61394f83613d09565b60008251118061395c5750805b15610bdf576127ac8383613d49565b60006001600160a01b0384163b15613a6157604051630a85bd0160e11b81526001600160a01b0385169063150b7a02906139af903390899088908890600401614c32565b6020604051808303816000875af19250505080156139ea575060408051601f3d908101601f191682019092526139e791810190614c6f565b60015b613a47573d808015613a18576040519150601f19603f3d011682016040523d82523d6000602084013e613a1d565b606091505b508051600003613a3f5760405162461bcd60e51b8152600401610aaa90614b6b565b805181602001fd5b6001600160e01b031916630a85bd0160e11b149050612916565b506001949350505050565b606081600003613a935750506040805180820190915260018152600360fc1b602082015290565b8160005b8115613abd5780613aa781614c8c565b9150613ab69050600a83614cbb565b9150613a97565b60008167ffffffffffffffff811115613ad857613ad861403d565b6040519080825280601f01601f191660200182016040528015613b02576020820181803683370190505b5090505b841561291657613b17600183614aa2565b9150613b24600a86614ccf565b613b2f906030614a8a565b60f81b818381518110613b4457613b44614ce3565b60200101906001600160f81b031916908160001a905350613b66600a86614cbb565b9450613b06565b60606000613b7c836002614cf9565b613b87906002614a8a565b67ffffffffffffffff811115613b9f57613b9f61403d565b6040519080825280601f01601f191660200182016040528015613bc9576020820181803683370190505b509050600360fc1b81600081518110613be457613be4614ce3565b60200101906001600160f81b031916908160001a905350600f60fb1b81600181518110613c1357613c13614ce3565b60200101906001600160f81b031916908160001a9053506000613c37846002614cf9565b613c42906001614a8a565b90505b6001811115613cba576f181899199a1a9b1b9c1cb0b131b232b360811b85600f1660108110613c7657613c76614ce3565b1a60f81b828281518110613c8c57613c8c614ce3565b60200101906001600160f81b031916908160001a90535060049490941c93613cb381614d18565b9050613c45565b508315612d585760405162461bcd60e51b815260206004820181905260248201527f537472696e67733a20686578206c656e67746820696e73756666696369656e746044820152606401610aaa565b613d12816138aa565b6040516001600160a01b038216907fbc7cd75a20ee27fd9adebab32041f755214dbc6bffa90cc0225b39da2e5c2d3b90600090a250565b60606001600160a01b0383163b613db15760405162461bcd60e51b815260206004820152602660248201527f416464726573733a2064656c65676174652063616c6c20746f206e6f6e2d636f6044820152651b9d1c9858dd60d21b6064820152608401610aaa565b600080846001600160a01b031684604051613dcc9190614873565b600060405180830381855af49150503d8060008114613e07576040519150601f19603f3d011682016040523d82523d6000602084013e613e0c565b606091505b5091509150613e348282604051806060016040528060278152602001614d7060279139613e3d565b95945050505050565b60608315613e4c575081612d58565b825115613e5c5782518084602001fd5b8160405162461bcd60e51b8152600401610aaa9190613fd0565b828054613e82906147d8565b90600052602060002090601f016020900481019282613ea45760008555613eea565b82601f10613ebd57805160ff1916838001178555613eea565b82800160010185558215613eea579182015b82811115613eea578251825591602001919060010190613ecf565b50613ef6929150613f30565b5090565b508054613f06906147d8565b6000825580601f10613f16575050565b601f01602090049060005260206000209081019061117891905b5b80821115613ef65760008155600101613f31565b6001600160e01b03198116811461117857600080fd5b600060208284031215613f6d57600080fd5b8135612d5881613f45565b60005b83811015613f93578181015183820152602001613f7b565b838111156127ac5750506000910152565b60008151808452613fbc816020860160208601613f78565b601f01601f19169290920160200192915050565b602081526000612d586020830184613fa4565b600060208284031215613ff557600080fd5b5035919050565b80356001600160a01b038116811461351257600080fd5b6000806040838503121561402657600080fd5b61402f83613ffc565b946020939093013593505050565b634e487b7160e01b600052604160045260246000fd5b600082601f83011261406457600080fd5b813567ffffffffffffffff8082111561407f5761407f61403d565b604051601f8301601f19908116603f011681019082821181831017156140a7576140a761403d565b816040528381528660208588010111156140c057600080fd5b836020870160208301376000602085830101528094505050505092915050565b60008060008060008060008060008060006101608c8e03121561410257600080fd5b61410b8c613ffc565b9a5067ffffffffffffffff8060208e0135111561412757600080fd5b6141378e60208f01358f01614053565b9a508060408e0135111561414a57600080fd5b61415a8e60408f01358f01614053565b99508060608e0135111561416d57600080fd5b61417d8e60608f01358f01614053565b98508060808e0135111561419057600080fd5b6141a08e60808f01358f01614053565b97508060a08e013511156141b357600080fd5b6141c38e60a08f01358f01614053565b96508060c08e013511156141d657600080fd5b6141e68e60c08f01358f01614053565b95508060e08e013511156141f957600080fd5b6142098e60e08f01358f01614053565b9450806101008e0135111561421d57600080fd5b61422e8e6101008f01358f01614053565b9350806101208e0135111561424257600080fd5b506142548d6101208e01358e01614053565b91506142636101408d01613ffc565b90509295989b509295989b9093969950565b60008060006060848603121561428a57600080fd5b61429384613ffc565b92506142a160208501613ffc565b9150604084013590509250925092565b6000602082840312156142c357600080fd5b813567ffffffffffffffff8111156142da57600080fd5b61291684828501614053565b600080604083850312156142f957600080fd5b8235915061430960208401613ffc565b90509250929050565b60006020828403121561432457600080fd5b612d5882613ffc565b602081526000825161014080602085015261434c610160850183613fa4565b91506020850151601f198086850301604087015261436a8483613fa4565b935060408701519150808685030160608701526143878483613fa4565b935060608701519150808685030160808701526143a48483613fa4565b935060808701519150808685030160a08701526143c18483613fa4565b935060a08701519150808685030160c08701526143de8483613fa4565b935060c08701519150808685030160e08701526143fb8483613fa4565b935060e0870151915061010081878603018188015261441a8584613fa4565b9450808801519250506101208187860301818801526144398584613fa4565b94508088015192505050614457828601826001600160a01b03169052565b5090949350505050565b6000806040838503121561447457600080fd5b61447d83613ffc565b9150602083013567ffffffffffffffff81111561449957600080fd5b6144a585828601614053565b9150509250929050565b600080604083850312156144c257600080fd5b82359150602083013567ffffffffffffffff81111561449957600080fd5b60006101408083526144f48184018e613fa4565b90508281036020840152614508818d613fa4565b9050828103604084015261451c818c613fa4565b90508281036060840152614530818b613fa4565b90508281036080840152614544818a613fa4565b905082810360a08401526145588189613fa4565b905082810360c084015261456c8188613fa4565b905082810360e08401526145808187613fa4565b90508281036101008401526145958186613fa4565b915050610fb86101208301846001600160a01b03169052565b600080604083850312156145c157600080fd5b6145ca83613ffc565b9150602083013580151581146145df57600080fd5b809150509250929050565b6000806000806080858703121561460057600080fd5b61460985613ffc565b935061461760208601613ffc565b925060408501359150606085013567ffffffffffffffff81111561463a57600080fd5b61464687828801614053565b91505092959194509250565b6000806000806000806000806000806101408b8d03121561467257600080fd5b8a35995060208b013567ffffffffffffffff8082111561469157600080fd5b61469d8e838f01614053565b9a5060408d01359150808211156146b357600080fd5b6146bf8e838f01614053565b995060608d01359150808211156146d557600080fd5b6146e18e838f01614053565b985060808d01359150808211156146f757600080fd5b6147038e838f01614053565b975060a08d013591508082111561471957600080fd5b6147258e838f01614053565b965060c08d013591508082111561473b57600080fd5b6147478e838f01614053565b955060e08d013591508082111561475d57600080fd5b6147698e838f01614053565b94506101008d013591508082111561478057600080fd5b5061478d8d828e01614053565b92505061479d6101208c01613ffc565b90509295989b9194979a5092959850565b600080604083850312156147c157600080fd5b6147ca83613ffc565b915061430960208401613ffc565b600181811c908216806147ec57607f821691505b60208210810361480c57634e487b7160e01b600052602260045260246000fd5b50919050565b60208082526018908201527f43616c6c6572206973206e6f7420617574686f72697a65640000000000000000604082015260600190565b60208082526010908201526f14185d5cd8589b194e881c185d5cd95960821b604082015260600190565b60008251614885818460208701613f78565b9190910192915050565b60208082526031908201527f4552433732313a207472616e736665722063616c6c6572206973206e6f74206f6040820152701ddb995c881b9bdc88185c1c1c9bdd9959607a1b606082015260800190565b6020808252602c908201527f46756e6374696f6e206d7573742062652063616c6c6564207468726f7567682060408201526b19195b1959d85d1958d85b1b60a21b606082015260800190565b6020808252602c908201527f46756e6374696f6e206d7573742062652063616c6c6564207468726f7567682060408201526b6163746976652070726f787960a01b606082015260800190565b602080825260169082015275141c9bda9958dd081b9bdd081e595d081b5a5b9d195960521b604082015260600190565b60208082526025908201527f43616c6c6572206973206e6f74207468652072656769737472792c206e6f722060408201526437bbb732b960d91b606082015260800190565b6020808252818101527f4f776e61626c653a2063616c6c6572206973206e6f7420746865206f776e6572604082015260600190565b634e487b7160e01b600052601160045260246000fd5b60006001600160801b03821680614a5157614a51614a22565b6000190192915050565b60008351614a6d818460208801613f78565b835190830190614a81818360208801613f78565b01949350505050565b60008219821115614a9d57614a9d614a22565b500190565b600082821015614ab457614ab4614a22565b500390565b600060208284031215614acb57600080fd5b5051919050565b6020808252602e908201527f496e697469616c697a61626c653a20636f6e747261637420697320616c72656160408201526d191e481a5b9a5d1a585b1a5e995960921b606082015260800190565b6020808252602b908201527f496e697469616c697a61626c653a20636f6e7472616374206973206e6f74206960408201526a6e697469616c697a696e6760a81b606082015260800190565b60208082526032908201527f4552433732313a207472616e7366657220746f206e6f6e20455243373231526560408201527131b2b4bb32b91034b6b83632b6b2b73a32b960711b606082015260800190565b7f416363657373436f6e74726f6c3a206163636f756e7420000000000000000000815260008351614bf5816017850160208801613f78565b7001034b99036b4b9b9b4b733903937b6329607d1b6017918401918201528351614c26816028840160208801613f78565b01602801949350505050565b6001600160a01b0385811682528416602082015260408101839052608060608201819052600090614c6590830184613fa4565b9695505050505050565b600060208284031215614c8157600080fd5b8151612d5881613f45565b600060018201614c9e57614c9e614a22565b5060010190565b634e487b7160e01b600052601260045260246000fd5b600082614cca57614cca614ca5565b500490565b600082614cde57614cde614ca5565b500690565b634e487b7160e01b600052603260045260246000fd5b6000816000190483118215151615614d1357614d13614a22565b500290565b600081614d2757614d27614a22565b50600019019056fe360894a13ba1a3210667c828492db98dca3e2076cc3735a920a3ca505d382bbc241ecf16d79d0f8dbfb92cbc07fe17840425976cf0667f022fe9877caa831b08416464726573733a206c6f772d6c6576656c2064656c65676174652063616c6c206661696c6564a26469706673582212202b9afe5b02ee11acfee84b1d2d431085498ed58620dcf155539fb59f32a0d4ed64736f6c634300080e0033496e697469616c697a61626c653a20636f6e747261637420697320616c726561",
  "devdoc": {
    "details": "Each project can have up to n vintages, with data stored in the `CarbonProjectVintages` contract. `vintageTokenId`s are mapped to `projectTokenId`s via `pvToTokenId` in the vintage contract.",
    "kind": "dev",
    "methods": {
      "addNewProject(address,string,string,string,string,string,string,string,string,string,address)": {
        "details": "Projects can be added by data-managers"
      },
      "approve(address,uint256)": {
        "details": "See {IERC721-approve}."
      },
      "balanceOf(address)": {
        "details": "See {IERC721-balanceOf}."
      },
      "constructor": {
        "custom:oz-upgrades-unsafe-allow": "constructor"
      },
      "getApproved(uint256)": {
        "details": "See {IERC721-getApproved}."
      },
      "getProjectDataByTokenId(uint256)": {
        "details": "retrieve all data from ProjectData struct"
      },
      "getProjectId(uint256)": {
        "details": "Returns the global project-id, for example'VCS-1418'"
      },
      "getRoleAdmin(bytes32)": {
        "details": "Returns the admin role that controls `role`. See {grantRole} and {revokeRole}. To change a role's admin, use {_setRoleAdmin}."
      },
      "grantRole(bytes32,address)": {
        "details": "Grants `role` to `account`. If `account` had not been already granted `role`, emits a {RoleGranted} event. Requirements: - the caller must have ``role``'s admin role."
      },
      "hasRole(bytes32,address)": {
        "details": "Returns `true` if `account` has been granted `role`."
      },
      "isApprovedForAll(address,address)": {
        "details": "See {IERC721-isApprovedForAll}."
      },
      "isValidProjectTokenId(uint256)": {
        "details": "Function used by the utility function `checkProjectTokenExists`"
      },
      "name()": {
        "details": "See {IERC721Metadata-name}."
      },
      "owner()": {
        "details": "Returns the address of the current owner."
      },
      "ownerOf(uint256)": {
        "details": "See {IERC721-ownerOf}."
      },
      "pause()": {
        "details": "wraps _pause(), only Admin"
      },
      "paused()": {
        "details": "Returns true if the contract is paused, and false otherwise."
      },
      "proxiableUUID()": {
        "details": "Implementation of the ERC1822 {proxiableUUID} function. This returns the storage slot used by the implementation. It is used to validate that the this implementation remains valid after an upgrade. IMPORTANT: A proxy pointing at a proxiable contract should not be considered proxiable itself, because this risks bricking a proxy that upgrades to it, by delegating to itself until out of gas. Thus it is critical that this function revert if invoked through a proxy. This is guaranteed by the `notDelegated` modifier."
      },
      "removeProject(uint256)": {
        "details": "Removes a project and corresponding data, sets projectTokenId invalid"
      },
      "renounceOwnership()": {
        "details": "Leaves the contract without owner. It will not be possible to call `onlyOwner` functions anymore. Can only be called by the current owner. NOTE: Renouncing ownership will leave the contract without an owner, thereby removing any functionality that is only available to the owner."
      },
      "renounceRole(bytes32,address)": {
        "details": "Revokes `role` from the calling account. Roles are often managed via {grantRole} and {revokeRole}: this function's purpose is to provide a mechanism for accounts to lose their privileges if they are compromised (such as when a trusted device is misplaced). If the calling account had been revoked `role`, emits a {RoleRevoked} event. Requirements: - the caller must be `account`."
      },
      "revokeRole(bytes32,address)": {
        "details": "Revokes `role` from `account`. If `account` had been granted `role`, emits a {RoleRevoked} event. Requirements: - the caller must have ``role``'s admin role."
      },
      "safeTransferFrom(address,address,uint256)": {
        "details": "See {IERC721-safeTransferFrom}."
      },
      "safeTransferFrom(address,address,uint256,bytes)": {
        "details": "See {IERC721-safeTransferFrom}."
      },
      "setApprovalForAll(address,bool)": {
        "details": "See {IERC721-setApprovalForAll}."
      },
      "symbol()": {
        "details": "See {IERC721Metadata-symbol}."
      },
      "tokenURI(uint256)": {
        "details": "Returns the Uniform Resource Identifier (URI) for `tokenId` token. based on the ERC721URIStorage implementation"
      },
      "transferFrom(address,address,uint256)": {
        "details": "See {IERC721-transferFrom}."
      },
      "transferOwnership(address)": {
        "details": "Transfers ownership of the contract to a new account (`newOwner`). Can only be called by the current owner."
      },
      "unpause()": {
        "details": "unpause the system, wraps _unpause(), only Admin"
      },
      "updateProject(uint256,string,string,string,string,string,string,string,string,address)": {
        "details": "Projects can be updated by data-managers"
      },
      "updateProjectId(uint256,string)": {
        "details": "Projects and their projectId's must be unique, changing them must be handled carefully"
      },
      "upgradeTo(address)": {
        "details": "Upgrade the implementation of the proxy to `newImplementation`. Calls {_authorizeUpgrade}. Emits an {Upgraded} event."
      },
      "upgradeToAndCall(address,bytes)": {
        "details": "Upgrade the implementation of the proxy to `newImplementation`, and subsequently execute the function call encoded in `data`. Calls {_authorizeUpgrade}. Emits an {Upgraded} event."
      }
    },
    "stateVariables": {
      "MANAGER_ROLE": {
        "details": "All roles related to Access Control"
      }
    },
    "version": 1
  },
  "userdoc": {
    "kind": "user",
    "methods": {
      "addNewProject(address,string,string,string,string,string,string,string,string,string,address)": {
        "notice": "Adds a new carbon project along with attributes/data"
      },
      "pause()": {
        "notice": "Emergency function to disable contract's core functionality"
      },
      "updateBeneficiary(uint256,address)": {
        "notice": "Updates the project beneficiary"
      },
      "updateProject(uint256,string,string,string,string,string,string,string,string,address)": {
        "notice": "Updates and existing carbon project"
      }
    },
    "notice": "The CarbonProjects contract stores carbon project-specific data The data is stored in structs via ERC721 tokens Most contracts in the protocol query the data stored here The attributes in the Project-NFTs are constant over all vintages of the project",
    "version": 1
  },
  "storageLayout": {
    "storage": [
      {
        "astId": 1489,
        "contract": "contracts/CarbonProjects.sol:CarbonProjects",
        "label": "_initialized",
        "offset": 0,
        "slot": "0",
        "type": "t_uint8"
      },
      {
        "astId": 1492,
        "contract": "contracts/CarbonProjects.sol:CarbonProjects",
        "label": "_initializing",
        "offset": 1,
        "slot": "0",
        "type": "t_bool"
      },
      {
        "astId": 4534,
        "contract": "contracts/CarbonProjects.sol:CarbonProjects",
        "label": "__gap",
        "offset": 0,
        "slot": "1",
        "type": "t_array(t_uint256)50_storage"
      },
      {
        "astId": 4841,
        "contract": "contracts/CarbonProjects.sol:CarbonProjects",
        "label": "__gap",
        "offset": 0,
        "slot": "51",
        "type": "t_array(t_uint256)50_storage"
      },
      {
        "astId": 8192,
        "contract": "contracts/CarbonProjects.sol:CarbonProjects",
        "label": "projectTokenCounter",
        "offset": 0,
        "slot": "101",
        "type": "t_uint128"
      },
      {
        "astId": 8194,
        "contract": "contracts/CarbonProjects.sol:CarbonProjects",
        "label": "totalSupply",
        "offset": 16,
        "slot": "101",
        "type": "t_uint128"
      },
      {
        "astId": 8196,
        "contract": "contracts/CarbonProjects.sol:CarbonProjects",
        "label": "contractRegistry",
        "offset": 0,
        "slot": "102",
        "type": "t_address"
      },
      {
        "astId": 8198,
        "contract": "contracts/CarbonProjects.sol:CarbonProjects",
        "label": "baseURI",
        "offset": 0,
        "slot": "103",
        "type": "t_string_storage"
      },
      {
        "astId": 8204,
        "contract": "contracts/CarbonProjects.sol:CarbonProjects",
        "label": "projectData",
        "offset": 0,
        "slot": "104",
        "type": "t_mapping(t_uint256,t_struct(ProjectData)6922_storage)"
      },
      {
        "astId": 8209,
        "contract": "contracts/CarbonProjects.sol:CarbonProjects",
        "label": "projectIds",
        "offset": 0,
        "slot": "105",
        "type": "t_mapping(t_string_memory_ptr,t_bool)"
      },
      {
        "astId": 8214,
        "contract": "contracts/CarbonProjects.sol:CarbonProjects",
        "label": "validProjectTokenIds",
        "offset": 0,
        "slot": "106",
        "type": "t_mapping(t_uint256,t_bool)"
      },
      {
        "astId": 8219,
        "contract": "contracts/CarbonProjects.sol:CarbonProjects",
        "label": "pidToTokenId",
        "offset": 0,
        "slot": "107",
        "type": "t_mapping(t_string_memory_ptr,t_uint256)"
      },
      {
        "astId": 2838,
        "contract": "contracts/CarbonProjects.sol:CarbonProjects",
        "label": "_name",
        "offset": 0,
        "slot": "108",
        "type": "t_string_storage"
      },
      {
        "astId": 2840,
        "contract": "contracts/CarbonProjects.sol:CarbonProjects",
        "label": "_symbol",
        "offset": 0,
        "slot": "109",
        "type": "t_string_storage"
      },
      {
        "astId": 2844,
        "contract": "contracts/CarbonProjects.sol:CarbonProjects",
        "label": "_owners",
        "offset": 0,
        "slot": "110",
        "type": "t_mapping(t_uint256,t_address)"
      },
      {
        "astId": 2848,
        "contract": "contracts/CarbonProjects.sol:CarbonProjects",
        "label": "_balances",
        "offset": 0,
        "slot": "111",
        "type": "t_mapping(t_address,t_uint256)"
      },
      {
        "astId": 2852,
        "contract": "contracts/CarbonProjects.sol:CarbonProjects",
        "label": "_tokenApprovals",
        "offset": 0,
        "slot": "112",
        "type": "t_mapping(t_uint256,t_address)"
      },
      {
        "astId": 2858,
        "contract": "contracts/CarbonProjects.sol:CarbonProjects",
        "label": "_operatorApprovals",
        "offset": 0,
        "slot": "113",
        "type": "t_mapping(t_address,t_mapping(t_address,t_bool))"
      },
      {
        "astId": 3699,
        "contract": "contracts/CarbonProjects.sol:CarbonProjects",
        "label": "__gap",
        "offset": 0,
        "slot": "114",
        "type": "t_array(t_uint256)44_storage"
      },
      {
        "astId": 980,
        "contract": "contracts/CarbonProjects.sol:CarbonProjects",
        "label": "_owner",
        "offset": 0,
        "slot": "158",
        "type": "t_address"
      },
      {
        "astId": 1092,
        "contract": "contracts/CarbonProjects.sol:CarbonProjects",
        "label": "__gap",
        "offset": 0,
        "slot": "159",
        "type": "t_array(t_uint256)49_storage"
      },
      {
        "astId": 1781,
        "contract": "contracts/CarbonProjects.sol:CarbonProjects",
        "label": "_paused",
        "offset": 0,
        "slot": "208",
        "type": "t_bool"
      },
      {
        "astId": 1870,
        "contract": "contracts/CarbonProjects.sol:CarbonProjects",
        "label": "__gap",
        "offset": 0,
        "slot": "209",
        "type": "t_array(t_uint256)49_storage"
      },
      {
        "astId": 596,
        "contract": "contracts/CarbonProjects.sol:CarbonProjects",
        "label": "_roles",
        "offset": 0,
        "slot": "258",
        "type": "t_mapping(t_bytes32,t_struct(RoleData)591_storage)"
      },
      {
        "astId": 895,
        "contract": "contracts/CarbonProjects.sol:CarbonProjects",
        "label": "__gap",
        "offset": 0,
        "slot": "259",
        "type": "t_array(t_uint256)49_storage"
      },
      {
        "astId": 1471,
        "contract": "contracts/CarbonProjects.sol:CarbonProjects",
        "label": "__gap",
        "offset": 0,
        "slot": "308",
        "type": "t_array(t_uint256)50_storage"
      },
      {
        "astId": 1759,
        "contract": "contracts/CarbonProjects.sol:CarbonProjects",
        "label": "__gap",
        "offset": 0,
        "slot": "358",
        "type": "t_array(t_uint256)50_storage"
      }
    ],
    "types": {
      "t_address": {
        "encoding": "inplace",
        "label": "address",
        "numberOfBytes": "20"
      },
      "t_array(t_uint256)44_storage": {
        "base": "t_uint256",
        "encoding": "inplace",
        "label": "uint256[44]",
        "numberOfBytes": "1408"
      },
      "t_array(t_uint256)49_storage": {
        "base": "t_uint256",
        "encoding": "inplace",
        "label": "uint256[49]",
        "numberOfBytes": "1568"
      },
      "t_array(t_uint256)50_storage": {
        "base": "t_uint256",
        "encoding": "inplace",
        "label": "uint256[50]",
        "numberOfBytes": "1600"
      },
      "t_bool": {
        "encoding": "inplace",
        "label": "bool",
        "numberOfBytes": "1"
      },
      "t_bytes32": {
        "encoding": "inplace",
        "label": "bytes32",
        "numberOfBytes": "32"
      },
      "t_mapping(t_address,t_bool)": {
        "encoding": "mapping",
        "key": "t_address",
        "label": "mapping(address => bool)",
        "numberOfBytes": "32",
        "value": "t_bool"
      },
      "t_mapping(t_address,t_mapping(t_address,t_bool))": {
        "encoding": "mapping",
        "key": "t_address",
        "label": "mapping(address => mapping(address => bool))",
        "numberOfBytes": "32",
        "value": "t_mapping(t_address,t_bool)"
      },
      "t_mapping(t_address,t_uint256)": {
        "encoding": "mapping",
        "key": "t_address",
        "label": "mapping(address => uint256)",
        "numberOfBytes": "32",
        "value": "t_uint256"
      },
      "t_mapping(t_bytes32,t_struct(RoleData)591_storage)": {
        "encoding": "mapping",
        "key": "t_bytes32",
        "label": "mapping(bytes32 => struct AccessControlUpgradeable.RoleData)",
        "numberOfBytes": "32",
        "value": "t_struct(RoleData)591_storage"
      },
      "t_mapping(t_string_memory_ptr,t_bool)": {
        "encoding": "mapping",
        "key": "t_string_memory_ptr",
        "label": "mapping(string => bool)",
        "numberOfBytes": "32",
        "value": "t_bool"
      },
      "t_mapping(t_string_memory_ptr,t_uint256)": {
        "encoding": "mapping",
        "key": "t_string_memory_ptr",
        "label": "mapping(string => uint256)",
        "numberOfBytes": "32",
        "value": "t_uint256"
      },
      "t_mapping(t_uint256,t_address)": {
        "encoding": "mapping",
        "key": "t_uint256",
        "label": "mapping(uint256 => address)",
        "numberOfBytes": "32",
        "value": "t_address"
      },
      "t_mapping(t_uint256,t_bool)": {
        "encoding": "mapping",
        "key": "t_uint256",
        "label": "mapping(uint256 => bool)",
        "numberOfBytes": "32",
        "value": "t_bool"
      },
      "t_mapping(t_uint256,t_struct(ProjectData)6922_storage)": {
        "encoding": "mapping",
        "key": "t_uint256",
        "label": "mapping(uint256 => struct ProjectData)",
        "numberOfBytes": "32",
        "value": "t_struct(ProjectData)6922_storage"
      },
      "t_string_memory_ptr": {
        "encoding": "bytes",
        "label": "string",
        "numberOfBytes": "32"
      },
      "t_string_storage": {
        "encoding": "bytes",
        "label": "string",
        "numberOfBytes": "32"
      },
      "t_struct(ProjectData)6922_storage": {
        "encoding": "inplace",
        "label": "struct ProjectData",
        "members": [
          {
            "astId": 6903,
            "contract": "contracts/CarbonProjects.sol:CarbonProjects",
            "label": "projectId",
            "offset": 0,
            "slot": "0",
            "type": "t_string_storage"
          },
          {
            "astId": 6905,
            "contract": "contracts/CarbonProjects.sol:CarbonProjects",
            "label": "standard",
            "offset": 0,
            "slot": "1",
            "type": "t_string_storage"
          },
          {
            "astId": 6907,
            "contract": "contracts/CarbonProjects.sol:CarbonProjects",
            "label": "methodology",
            "offset": 0,
            "slot": "2",
            "type": "t_string_storage"
          },
          {
            "astId": 6909,
            "contract": "contracts/CarbonProjects.sol:CarbonProjects",
            "label": "region",
            "offset": 0,
            "slot": "3",
            "type": "t_string_storage"
          },
          {
            "astId": 6911,
            "contract": "contracts/CarbonProjects.sol:CarbonProjects",
            "label": "storageMethod",
            "offset": 0,
            "slot": "4",
            "type": "t_string_storage"
          },
          {
            "astId": 6913,
            "contract": "contracts/CarbonProjects.sol:CarbonProjects",
            "label": "method",
            "offset": 0,
            "slot": "5",
            "type": "t_string_storage"
          },
          {
            "astId": 6915,
            "contract": "contracts/CarbonProjects.sol:CarbonProjects",
            "label": "emissionType",
            "offset": 0,
            "slot": "6",
            "type": "t_string_storage"
          },
          {
            "astId": 6917,
            "contract": "contracts/CarbonProjects.sol:CarbonProjects",
            "label": "category",
            "offset": 0,
            "slot": "7",
            "type": "t_string_storage"
          },
          {
            "astId": 6919,
            "contract": "contracts/CarbonProjects.sol:CarbonProjects",
            "label": "uri",
            "offset": 0,
            "slot": "8",
            "type": "t_string_storage"
          },
          {
            "astId": 6921,
            "contract": "contracts/CarbonProjects.sol:CarbonProjects",
            "label": "beneficiary",
            "offset": 0,
            "slot": "9",
            "type": "t_address"
          }
        ],
        "numberOfBytes": "320"
      },
      "t_struct(RoleData)591_storage": {
        "encoding": "inplace",
        "label": "struct AccessControlUpgradeable.RoleData",
        "members": [
          {
            "astId": 588,
            "contract": "contracts/CarbonProjects.sol:CarbonProjects",
            "label": "members",
            "offset": 0,
            "slot": "0",
            "type": "t_mapping(t_address,t_bool)"
          },
          {
            "astId": 590,
            "contract": "contracts/CarbonProjects.sol:CarbonProjects",
            "label": "adminRole",
            "offset": 0,
            "slot": "1",
            "type": "t_bytes32"
          }
        ],
        "numberOfBytes": "64"
      },
      "t_uint128": {
        "encoding": "inplace",
        "label": "uint128",
        "numberOfBytes": "16"
      },
      "t_uint256": {
        "encoding": "inplace",
        "label": "uint256",
        "numberOfBytes": "32"
      },
      "t_uint8": {
        "encoding": "inplace",
        "label": "uint8",
        "numberOfBytes": "1"
      }
    }
  }
}