{
  "address": "0x7beCBA11618Ca63Ead5605DE235f6dD3b25c530E",
  "abi": [
    {
      "anonymous": false,
      "inputs": [
        {
          "indexed": false,
          "internalType": "address",
          "name": "tco2",
          "type": "address"
        }
      ],
      "name": "AddFeeExemptedTCO2",
      "type": "event"
    },
    {
      "anonymous": false,
      "inputs": [
        {
          "indexed": false,
          "internalType": "address",
          "name": "previousAdmin",
          "type": "address"
        },
        {
          "indexed": false,
          "internalType": "address",
          "name": "newAdmin",
          "type": "address"
        }
      ],
      "name": "AdminChanged",
      "type": "event"
    },
    {
      "anonymous": false,
      "inputs": [
        {
          "indexed": true,
          "internalType": "address",
          "name": "owner",
          "type": "address"
        },
        {
          "indexed": true,
          "internalType": "address",
          "name": "spender",
          "type": "address"
        },
        {
          "indexed": false,
          "internalType": "uint256",
          "name": "value",
          "type": "uint256"
        }
      ],
      "name": "Approval",
      "type": "event"
    },
    {
      "anonymous": false,
      "inputs": [
        {
          "indexed": false,
          "internalType": "string",
          "name": "methodology",
          "type": "string"
        }
      ],
      "name": "AttributeMethodologyAdded",
      "type": "event"
    },
    {
      "anonymous": false,
      "inputs": [
        {
          "indexed": false,
          "internalType": "string",
          "name": "methodology",
          "type": "string"
        }
      ],
      "name": "AttributeMethodologyRemoved",
      "type": "event"
    },
    {
      "anonymous": false,
      "inputs": [
        {
          "indexed": false,
          "internalType": "string",
          "name": "region",
          "type": "string"
        }
      ],
      "name": "AttributeRegionAdded",
      "type": "event"
    },
    {
      "anonymous": false,
      "inputs": [
        {
          "indexed": false,
          "internalType": "string",
          "name": "region",
          "type": "string"
        }
      ],
      "name": "AttributeRegionRemoved",
      "type": "event"
    },
    {
      "anonymous": false,
      "inputs": [
        {
          "indexed": false,
          "internalType": "string",
          "name": "standard",
          "type": "string"
        }
      ],
      "name": "AttributeStandardAdded",
      "type": "event"
    },
    {
      "anonymous": false,
      "inputs": [
        {
          "indexed": false,
          "internalType": "string",
          "name": "standard",
          "type": "string"
        }
      ],
      "name": "AttributeStandardRemoved",
      "type": "event"
    },
    {
      "anonymous": false,
      "inputs": [
        {
          "indexed": true,
          "internalType": "address",
          "name": "beacon",
          "type": "address"
        }
      ],
      "name": "BeaconUpgraded",
      "type": "event"
    },
    {
      "anonymous": false,
      "inputs": [
        {
          "indexed": false,
          "internalType": "address",
          "name": "erc20Addr",
          "type": "address"
        },
        {
          "indexed": false,
          "internalType": "uint256",
          "name": "amount",
          "type": "uint256"
        }
      ],
      "name": "Deposited",
      "type": "event"
    },
    {
      "anonymous": false,
      "inputs": [
        {
          "indexed": false,
          "internalType": "address",
          "name": "erc20addr",
          "type": "address"
        }
      ],
      "name": "ExternalAddressRemovedFromWhitelist",
      "type": "event"
    },
    {
      "anonymous": false,
      "inputs": [
        {
          "indexed": false,
          "internalType": "address",
          "name": "erc20addr",
          "type": "address"
        }
      ],
      "name": "ExternalAddressWhitelisted",
      "type": "event"
    },
    {
      "anonymous": false,
      "inputs": [
        {
          "indexed": false,
          "internalType": "uint8",
          "name": "version",
          "type": "uint8"
        }
      ],
      "name": "Initialized",
      "type": "event"
    },
    {
      "anonymous": false,
      "inputs": [
        {
          "indexed": false,
          "internalType": "address",
          "name": "erc20addr",
          "type": "address"
        }
      ],
      "name": "InternalAddressBlacklisted",
      "type": "event"
    },
    {
      "anonymous": false,
      "inputs": [
        {
          "indexed": false,
          "internalType": "address",
          "name": "erc20addr",
          "type": "address"
        }
      ],
      "name": "InternalAddressRemovedFromBlackList",
      "type": "event"
    },
    {
      "anonymous": false,
      "inputs": [
        {
          "indexed": false,
          "internalType": "address",
          "name": "erc20addr",
          "type": "address"
        }
      ],
      "name": "InternalAddressRemovedFromWhitelist",
      "type": "event"
    },
    {
      "anonymous": false,
      "inputs": [
        {
          "indexed": false,
          "internalType": "address",
          "name": "erc20addr",
          "type": "address"
        }
      ],
      "name": "InternalAddressWhitelisted",
      "type": "event"
    },
    {
      "anonymous": false,
      "inputs": [
        {
          "indexed": false,
          "internalType": "string",
          "name": "mappingName",
          "type": "string"
        },
        {
          "indexed": false,
          "internalType": "bool",
          "name": "accepted",
          "type": "bool"
        }
      ],
      "name": "MappingSwitched",
      "type": "event"
    },
    {
      "anonymous": false,
      "inputs": [
        {
          "indexed": false,
          "internalType": "uint256",
          "name": "minimumVintageStartTime",
          "type": "uint256"
        }
      ],
      "name": "MinimumVintageStartTimeUpdated",
      "type": "event"
    },
    {
      "anonymous": false,
      "inputs": [
        {
          "indexed": true,
          "internalType": "address",
          "name": "previousOwner",
          "type": "address"
        },
        {
          "indexed": true,
          "internalType": "address",
          "name": "newOwner",
          "type": "address"
        }
      ],
      "name": "OwnershipTransferred",
      "type": "event"
    },
    {
      "anonymous": false,
      "inputs": [
        {
          "indexed": false,
          "internalType": "address",
          "name": "account",
          "type": "address"
        }
      ],
      "name": "Paused",
      "type": "event"
    },
    {
      "anonymous": false,
      "inputs": [
        {
          "indexed": false,
          "internalType": "address",
          "name": "redeemer",
          "type": "address"
        },
        {
          "indexed": false,
          "internalType": "uint256",
          "name": "fees",
          "type": "uint256"
        }
      ],
      "name": "RedeemFeeBurnt",
      "type": "event"
    },
    {
      "anonymous": false,
      "inputs": [
        {
          "indexed": false,
          "internalType": "address",
          "name": "redeemer",
          "type": "address"
        },
        {
          "indexed": false,
          "internalType": "uint256",
          "name": "fees",
          "type": "uint256"
        }
      ],
      "name": "RedeemFeePaid",
      "type": "event"
    },
    {
      "anonymous": false,
      "inputs": [
        {
          "indexed": false,
          "internalType": "address",
          "name": "account",
          "type": "address"
        },
        {
          "indexed": false,
          "internalType": "address",
          "name": "erc20",
          "type": "address"
        },
        {
          "indexed": false,
          "internalType": "uint256",
          "name": "amount",
          "type": "uint256"
        }
      ],
      "name": "Redeemed",
      "type": "event"
    },
    {
      "anonymous": false,
      "inputs": [
        {
          "indexed": false,
          "internalType": "address",
          "name": "tco2",
          "type": "address"
        }
      ],
      "name": "RemoveFeeExemptedTCO2",
      "type": "event"
    },
    {
      "anonymous": false,
      "inputs": [
        {
          "indexed": true,
          "internalType": "bytes32",
          "name": "role",
          "type": "bytes32"
        },
        {
          "indexed": true,
          "internalType": "bytes32",
          "name": "previousAdminRole",
          "type": "bytes32"
        },
        {
          "indexed": true,
          "internalType": "bytes32",
          "name": "newAdminRole",
          "type": "bytes32"
        }
      ],
      "name": "RoleAdminChanged",
      "type": "event"
    },
    {
      "anonymous": false,
      "inputs": [
        {
          "indexed": true,
          "internalType": "bytes32",
          "name": "role",
          "type": "bytes32"
        },
        {
          "indexed": true,
          "internalType": "address",
          "name": "account",
          "type": "address"
        },
        {
          "indexed": true,
          "internalType": "address",
          "name": "sender",
          "type": "address"
        }
      ],
      "name": "RoleGranted",
      "type": "event"
    },
    {
      "anonymous": false,
      "inputs": [
        {
          "indexed": true,
          "internalType": "bytes32",
          "name": "role",
          "type": "bytes32"
        },
        {
          "indexed": true,
          "internalType": "address",
          "name": "account",
          "type": "address"
        },
        {
          "indexed": true,
          "internalType": "address",
          "name": "sender",
          "type": "address"
        }
      ],
      "name": "RoleRevoked",
      "type": "event"
    },
    {
      "anonymous": false,
      "inputs": [
        {
          "indexed": false,
          "internalType": "address",
          "name": "router",
          "type": "address"
        }
      ],
      "name": "RouterUpdated",
      "type": "event"
    },
    {
      "anonymous": false,
      "inputs": [
        {
          "indexed": false,
          "internalType": "uint256",
          "name": "newCap",
          "type": "uint256"
        }
      ],
      "name": "SupplyCapUpdated",
      "type": "event"
    },
    {
      "anonymous": false,
      "inputs": [
        {
          "indexed": true,
          "internalType": "uint32",
          "name": "destinationDomain",
          "type": "uint32"
        },
        {
          "indexed": true,
          "internalType": "address",
          "name": "tco2",
          "type": "address"
        },
        {
          "indexed": false,
          "internalType": "uint256",
          "name": "amount",
          "type": "uint256"
        }
      ],
      "name": "TCO2Bridged",
      "type": "event"
    },
    {
      "anonymous": false,
      "inputs": [
        {
          "indexed": false,
          "internalType": "address[]",
          "name": "tco2s",
          "type": "address[]"
        }
      ],
      "name": "TCO2ScoringUpdated",
      "type": "event"
    },
    {
      "anonymous": false,
      "inputs": [
        {
          "indexed": false,
          "internalType": "address",
          "name": "ContractRegistry",
          "type": "address"
        }
      ],
      "name": "ToucanRegistrySet",
      "type": "event"
    },
    {
      "anonymous": false,
      "inputs": [
        {
          "indexed": true,
          "internalType": "address",
          "name": "from",
          "type": "address"
        },
        {
          "indexed": true,
          "internalType": "address",
          "name": "to",
          "type": "address"
        },
        {
          "indexed": false,
          "internalType": "uint256",
          "name": "value",
          "type": "uint256"
        }
      ],
      "name": "Transfer",
      "type": "event"
    },
    {
      "anonymous": false,
      "inputs": [
        {
          "indexed": false,
          "internalType": "address",
          "name": "account",
          "type": "address"
        }
      ],
      "name": "Unpaused",
      "type": "event"
    },
    {
      "anonymous": false,
      "inputs": [
        {
          "indexed": true,
          "internalType": "address",
          "name": "implementation",
          "type": "address"
        }
      ],
      "name": "Upgraded",
      "type": "event"
    },
    {
      "inputs": [],
      "name": "DEFAULT_ADMIN_ROLE",
      "outputs": [
        {
          "internalType": "bytes32",
          "name": "",
          "type": "bytes32"
        }
      ],
      "stateMutability": "view",
      "type": "function"
    },
    {
      "inputs": [],
      "name": "MANAGER_ROLE",
      "outputs": [
        {
          "internalType": "bytes32",
          "name": "",
          "type": "bytes32"
        }
      ],
      "stateMutability": "view",
      "type": "function"
    },
    {
      "inputs": [],
      "name": "PAUSER_ROLE",
      "outputs": [
        {
          "internalType": "bytes32",
          "name": "",
          "type": "bytes32"
        }
      ],
      "stateMutability": "view",
      "type": "function"
    },
    {
      "inputs": [],
      "name": "VERSION",
      "outputs": [
        {
          "internalType": "string",
          "name": "",
          "type": "string"
        }
      ],
      "stateMutability": "view",
      "type": "function"
    },
    {
      "inputs": [],
      "name": "VERSION_RELEASE_CANDIDATE",
      "outputs": [
        {
          "internalType": "uint256",
          "name": "",
          "type": "uint256"
        }
      ],
      "stateMutability": "view",
      "type": "function"
    },
    {
      "inputs": [
        {
          "internalType": "bool",
          "name": "addToList",
          "type": "bool"
        },
        {
          "internalType": "string[]",
          "name": "_regions",
          "type": "string[]"
        },
        {
          "internalType": "string[]",
          "name": "_standards",
          "type": "string[]"
        },
        {
          "internalType": "string[]",
          "name": "_methodologies",
          "type": "string[]"
        }
      ],
      "name": "addAttributes",
      "outputs": [],
      "stateMutability": "nonpayable",
      "type": "function"
    },
    {
      "inputs": [
        {
          "internalType": "address",
          "name": "_address",
          "type": "address"
        }
      ],
      "name": "addRedeemFeeExemptedAddress",
      "outputs": [],
      "stateMutability": "nonpayable",
      "type": "function"
    },
    {
      "inputs": [
        {
          "internalType": "address",
          "name": "_tco2",
          "type": "address"
        }
      ],
      "name": "addRedeemFeeExemptedTCO2",
      "outputs": [],
      "stateMutability": "nonpayable",
      "type": "function"
    },
    {
      "inputs": [
        {
          "internalType": "address[]",
          "name": "erc20Addr",
          "type": "address[]"
        }
      ],
      "name": "addToExternalWhiteList",
      "outputs": [],
      "stateMutability": "nonpayable",
      "type": "function"
    },
    {
      "inputs": [
        {
          "internalType": "address[]",
          "name": "erc20Addr",
          "type": "address[]"
        }
      ],
      "name": "addToInternalBlackList",
      "outputs": [],
      "stateMutability": "nonpayable",
      "type": "function"
    },
    {
      "inputs": [
        {
          "internalType": "address[]",
          "name": "erc20Addr",
          "type": "address[]"
        }
      ],
      "name": "addToInternalWhiteList",
      "outputs": [],
      "stateMutability": "nonpayable",
      "type": "function"
    },
    {
      "inputs": [
        {
          "internalType": "address",
          "name": "owner",
          "type": "address"
        },
        {
          "internalType": "address",
          "name": "spender",
          "type": "address"
        }
      ],
      "name": "allowance",
      "outputs": [
        {
          "internalType": "uint256",
          "name": "",
          "type": "uint256"
        }
      ],
      "stateMutability": "view",
      "type": "function"
    },
    {
      "inputs": [
        {
          "internalType": "address",
          "name": "spender",
          "type": "address"
        },
        {
          "internalType": "uint256",
          "name": "amount",
          "type": "uint256"
        }
      ],
      "name": "approve",
      "outputs": [
        {
          "internalType": "bool",
          "name": "",
          "type": "bool"
        }
      ],
      "stateMutability": "nonpayable",
      "type": "function"
    },
    {
      "inputs": [
        {
          "internalType": "address",
          "name": "account",
          "type": "address"
        }
      ],
      "name": "balanceOf",
      "outputs": [
        {
          "internalType": "uint256",
          "name": "",
          "type": "uint256"
        }
      ],
      "stateMutability": "view",
      "type": "function"
    },
    {
      "inputs": [
        {
          "internalType": "address",
          "name": "_account",
          "type": "address"
        },
        {
          "internalType": "uint256",
          "name": "_amount",
          "type": "uint256"
        }
      ],
      "name": "bridgeBurn",
      "outputs": [],
      "stateMutability": "nonpayable",
      "type": "function"
    },
    {
      "inputs": [
        {
          "internalType": "address",
          "name": "_account",
          "type": "address"
        },
        {
          "internalType": "uint256",
          "name": "_amount",
          "type": "uint256"
        }
      ],
      "name": "bridgeMint",
      "outputs": [],
      "stateMutability": "nonpayable",
      "type": "function"
    },
    {
      "inputs": [
        {
          "internalType": "uint32",
          "name": "destinationDomain",
          "type": "uint32"
        },
        {
          "internalType": "address[]",
          "name": "tco2s",
          "type": "address[]"
        },
        {
          "internalType": "uint256[]",
          "name": "amounts",
          "type": "uint256[]"
        }
      ],
      "name": "bridgeTCO2s",
      "outputs": [],
      "stateMutability": "nonpayable",
      "type": "function"
    },
    {
      "inputs": [
        {
          "internalType": "address[]",
          "name": "tco2s",
          "type": "address[]"
        },
        {
          "internalType": "uint256[]",
          "name": "amounts",
          "type": "uint256[]"
        }
      ],
      "name": "calculateRedeemFees",
      "outputs": [
        {
          "internalType": "uint256",
          "name": "",
          "type": "uint256"
        }
      ],
      "stateMutability": "view",
      "type": "function"
    },
    {
      "inputs": [
        {
          "internalType": "address",
          "name": "erc20Addr",
          "type": "address"
        }
      ],
      "name": "checkAttributeMatching",
      "outputs": [
        {
          "internalType": "bool",
          "name": "",
          "type": "bool"
        }
      ],
      "stateMutability": "view",
      "type": "function"
    },
    {
      "inputs": [
        {
          "internalType": "address",
          "name": "erc20Addr",
          "type": "address"
        }
      ],
      "name": "checkEligible",
      "outputs": [
        {
          "internalType": "bool",
          "name": "",
          "type": "bool"
        }
      ],
      "stateMutability": "view",
      "type": "function"
    },
    {
      "inputs": [],
      "name": "contractRegistry",
      "outputs": [
        {
          "internalType": "address",
          "name": "",
          "type": "address"
        }
      ],
      "stateMutability": "view",
      "type": "function"
    },
    {
      "inputs": [],
      "name": "decimals",
      "outputs": [
        {
          "internalType": "uint8",
          "name": "",
          "type": "uint8"
        }
      ],
      "stateMutability": "view",
      "type": "function"
    },
    {
      "inputs": [
        {
          "internalType": "address",
          "name": "spender",
          "type": "address"
        },
        {
          "internalType": "uint256",
          "name": "subtractedValue",
          "type": "uint256"
        }
      ],
      "name": "decreaseAllowance",
      "outputs": [
        {
          "internalType": "bool",
          "name": "",
          "type": "bool"
        }
      ],
      "stateMutability": "nonpayable",
      "type": "function"
    },
    {
      "inputs": [
        {
          "internalType": "address",
          "name": "erc20Addr",
          "type": "address"
        },
        {
          "internalType": "uint256",
          "name": "amount",
          "type": "uint256"
        }
      ],
      "name": "deposit",
      "outputs": [],
      "stateMutability": "nonpayable",
      "type": "function"
    },
    {
      "inputs": [
        {
          "internalType": "address",
          "name": "",
          "type": "address"
        }
      ],
      "name": "externalWhiteList",
      "outputs": [
        {
          "internalType": "bool",
          "name": "",
          "type": "bool"
        }
      ],
      "stateMutability": "view",
      "type": "function"
    },
    {
      "inputs": [],
      "name": "feeRedeemBurnAddress",
      "outputs": [
        {
          "internalType": "address",
          "name": "",
          "type": "address"
        }
      ],
      "stateMutability": "view",
      "type": "function"
    },
    {
      "inputs": [],
      "name": "feeRedeemBurnPercentageInBase",
      "outputs": [
        {
          "internalType": "uint256",
          "name": "",
          "type": "uint256"
        }
      ],
      "stateMutability": "view",
      "type": "function"
    },
    {
      "inputs": [],
      "name": "feeRedeemDivider",
      "outputs": [
        {
          "internalType": "uint256",
          "name": "",
          "type": "uint256"
        }
      ],
      "stateMutability": "view",
      "type": "function"
    },
    {
      "inputs": [],
      "name": "feeRedeemPercentageInBase",
      "outputs": [
        {
          "internalType": "uint256",
          "name": "",
          "type": "uint256"
        }
      ],
      "stateMutability": "view",
      "type": "function"
    },
    {
      "inputs": [],
      "name": "feeRedeemReceiver",
      "outputs": [
        {
          "internalType": "address",
          "name": "",
          "type": "address"
        }
      ],
      "stateMutability": "view",
      "type": "function"
    },
    {
      "inputs": [],
      "name": "getRemaining",
      "outputs": [
        {
          "internalType": "uint256",
          "name": "",
          "type": "uint256"
        }
      ],
      "stateMutability": "view",
      "type": "function"
    },
    {
      "inputs": [
        {
          "internalType": "bytes32",
          "name": "role",
          "type": "bytes32"
        }
      ],
      "name": "getRoleAdmin",
      "outputs": [
        {
          "internalType": "bytes32",
          "name": "",
          "type": "bytes32"
        }
      ],
      "stateMutability": "view",
      "type": "function"
    },
    {
      "inputs": [],
      "name": "getScoredTCO2s",
      "outputs": [
        {
          "internalType": "address[]",
          "name": "",
          "type": "address[]"
        }
      ],
      "stateMutability": "view",
      "type": "function"
    },
    {
      "inputs": [
        {
          "internalType": "bytes32",
          "name": "role",
          "type": "bytes32"
        },
        {
          "internalType": "address",
          "name": "account",
          "type": "address"
        }
      ],
      "name": "grantRole",
      "outputs": [],
      "stateMutability": "nonpayable",
      "type": "function"
    },
    {
      "inputs": [
        {
          "internalType": "bytes32",
          "name": "role",
          "type": "bytes32"
        },
        {
          "internalType": "address",
          "name": "account",
          "type": "address"
        }
      ],
      "name": "hasRole",
      "outputs": [
        {
          "internalType": "bool",
          "name": "",
          "type": "bool"
        }
      ],
      "stateMutability": "view",
      "type": "function"
    },
    {
      "inputs": [
        {
          "internalType": "address",
          "name": "spender",
          "type": "address"
        },
        {
          "internalType": "uint256",
          "name": "addedValue",
          "type": "uint256"
        }
      ],
      "name": "increaseAllowance",
      "outputs": [
        {
          "internalType": "bool",
          "name": "",
          "type": "bool"
        }
      ],
      "stateMutability": "nonpayable",
      "type": "function"
    },
    {
      "inputs": [],
      "name": "initialize",
      "outputs": [],
      "stateMutability": "nonpayable",
      "type": "function"
    },
    {
      "inputs": [
        {
          "internalType": "address",
          "name": "",
          "type": "address"
        }
      ],
      "name": "internalBlackList",
      "outputs": [
        {
          "internalType": "bool",
          "name": "",
          "type": "bool"
        }
      ],
      "stateMutability": "view",
      "type": "function"
    },
    {
      "inputs": [
        {
          "internalType": "address",
          "name": "",
          "type": "address"
        }
      ],
      "name": "internalWhiteList",
      "outputs": [
        {
          "internalType": "bool",
          "name": "",
          "type": "bool"
        }
      ],
      "stateMutability": "view",
      "type": "function"
    },
    {
      "inputs": [
        {
          "internalType": "string",
          "name": "",
          "type": "string"
        }
      ],
      "name": "methodologies",
      "outputs": [
        {
          "internalType": "bool",
          "name": "",
          "type": "bool"
        }
      ],
      "stateMutability": "view",
      "type": "function"
    },
    {
      "inputs": [],
      "name": "methodologiesIsAcceptedMapping",
      "outputs": [
        {
          "internalType": "bool",
          "name": "",
          "type": "bool"
        }
      ],
      "stateMutability": "view",
      "type": "function"
    },
    {
      "inputs": [],
      "name": "minimumVintageStartTime",
      "outputs": [
        {
          "internalType": "uint64",
          "name": "",
          "type": "uint64"
        }
      ],
      "stateMutability": "view",
      "type": "function"
    },
    {
      "inputs": [],
      "name": "name",
      "outputs": [
        {
          "internalType": "string",
          "name": "",
          "type": "string"
        }
      ],
      "stateMutability": "view",
      "type": "function"
    },
    {
      "inputs": [],
      "name": "owner",
      "outputs": [
        {
          "internalType": "address",
          "name": "",
          "type": "address"
        }
      ],
      "stateMutability": "view",
      "type": "function"
    },
    {
      "inputs": [],
      "name": "pause",
      "outputs": [],
      "stateMutability": "nonpayable",
      "type": "function"
    },
    {
      "inputs": [],
      "name": "paused",
      "outputs": [
        {
          "internalType": "bool",
          "name": "",
          "type": "bool"
        }
      ],
      "stateMutability": "view",
      "type": "function"
    },
    {
      "inputs": [],
      "name": "proxiableUUID",
      "outputs": [
        {
          "internalType": "bytes32",
          "name": "",
          "type": "bytes32"
        }
      ],
      "stateMutability": "view",
      "type": "function"
    },
    {
      "inputs": [
        {
          "internalType": "address",
          "name": "tco2",
          "type": "address"
        },
        {
          "internalType": "uint256",
          "name": "amount",
          "type": "uint256"
        }
      ],
      "name": "redeemAndBurn",
      "outputs": [],
      "stateMutability": "nonpayable",
      "type": "function"
    },
    {
      "inputs": [
        {
          "internalType": "uint256",
          "name": "amount",
          "type": "uint256"
        }
      ],
      "name": "redeemAuto",
      "outputs": [],
      "stateMutability": "nonpayable",
      "type": "function"
    },
    {
      "inputs": [
        {
          "internalType": "uint256",
          "name": "amount",
          "type": "uint256"
        }
      ],
      "name": "redeemAuto2",
      "outputs": [
        {
          "internalType": "address[]",
          "name": "tco2s",
          "type": "address[]"
        },
        {
          "internalType": "uint256[]",
          "name": "amounts",
          "type": "uint256[]"
        }
      ],
      "stateMutability": "nonpayable",
      "type": "function"
    },
    {
      "inputs": [
        {
          "internalType": "address",
          "name": "",
          "type": "address"
        }
      ],
      "name": "redeemFeeExemptedAddresses",
      "outputs": [
        {
          "internalType": "bool",
          "name": "",
          "type": "bool"
        }
      ],
      "stateMutability": "view",
      "type": "function"
    },
    {
      "inputs": [
        {
          "internalType": "address",
          "name": "",
          "type": "address"
        }
      ],
      "name": "redeemFeeExemptedTCO2s",
      "outputs": [
        {
          "internalType": "bool",
          "name": "",
          "type": "bool"
        }
      ],
      "stateMutability": "view",
      "type": "function"
    },
    {
      "inputs": [
        {
          "internalType": "address[]",
          "name": "tco2s",
          "type": "address[]"
        },
        {
          "internalType": "uint256[]",
          "name": "amounts",
          "type": "uint256[]"
        }
      ],
      "name": "redeemMany",
      "outputs": [],
      "stateMutability": "nonpayable",
      "type": "function"
    },
    {
      "inputs": [
        {
          "internalType": "string",
          "name": "",
          "type": "string"
        }
      ],
      "name": "regions",
      "outputs": [
        {
          "internalType": "bool",
          "name": "",
          "type": "bool"
        }
      ],
      "stateMutability": "view",
      "type": "function"
    },
    {
      "inputs": [],
      "name": "regionsIsAcceptedMapping",
      "outputs": [
        {
          "internalType": "bool",
          "name": "",
          "type": "bool"
        }
      ],
      "stateMutability": "view",
      "type": "function"
    },
    {
      "inputs": [
        {
          "internalType": "address[]",
          "name": "erc20Addr",
          "type": "address[]"
        }
      ],
      "name": "removeFromExternalWhiteList",
      "outputs": [],
      "stateMutability": "nonpayable",
      "type": "function"
    },
    {
      "inputs": [
        {
          "internalType": "address[]",
          "name": "erc20Addr",
          "type": "address[]"
        }
      ],
      "name": "removeFromInternalBlackList",
      "outputs": [],
      "stateMutability": "nonpayable",
      "type": "function"
    },
    {
      "inputs": [
        {
          "internalType": "address[]",
          "name": "erc20Addr",
          "type": "address[]"
        }
      ],
      "name": "removeFromInternalWhiteList",
      "outputs": [],
      "stateMutability": "nonpayable",
      "type": "function"
    },
    {
      "inputs": [
        {
          "internalType": "address",
          "name": "_address",
          "type": "address"
        }
      ],
      "name": "removeRedeemFeeExemptedAddress",
      "outputs": [],
      "stateMutability": "nonpayable",
      "type": "function"
    },
    {
      "inputs": [
        {
          "internalType": "address",
          "name": "_tco2",
          "type": "address"
        }
      ],
      "name": "removeRedeemFeeExemptedTCO2",
      "outputs": [],
      "stateMutability": "nonpayable",
      "type": "function"
    },
    {
      "inputs": [],
      "name": "renounceOwnership",
      "outputs": [],
      "stateMutability": "nonpayable",
      "type": "function"
    },
    {
      "inputs": [
        {
          "internalType": "bytes32",
          "name": "role",
          "type": "bytes32"
        },
        {
          "internalType": "address",
          "name": "account",
          "type": "address"
        }
      ],
      "name": "renounceRole",
      "outputs": [],
      "stateMutability": "nonpayable",
      "type": "function"
    },
    {
      "inputs": [
        {
          "internalType": "bytes32",
          "name": "role",
          "type": "bytes32"
        },
        {
          "internalType": "address",
          "name": "account",
          "type": "address"
        }
      ],
      "name": "revokeRole",
      "outputs": [],
      "stateMutability": "nonpayable",
      "type": "function"
    },
    {
      "inputs": [],
      "name": "router",
      "outputs": [
        {
          "internalType": "address",
          "name": "",
          "type": "address"
        }
      ],
      "stateMutability": "view",
      "type": "function"
    },
    {
      "inputs": [
        {
          "internalType": "uint256",
          "name": "",
          "type": "uint256"
        }
      ],
      "name": "scoredTCO2s",
      "outputs": [
        {
          "internalType": "address",
          "name": "",
          "type": "address"
        }
      ],
      "stateMutability": "view",
      "type": "function"
    },
    {
      "inputs": [],
      "name": "seedMode",
      "outputs": [
        {
          "internalType": "bool",
          "name": "",
          "type": "bool"
        }
      ],
      "stateMutability": "view",
      "type": "function"
    },
    {
      "inputs": [
        {
          "internalType": "address",
          "name": "_feeRedeemBurnAddress",
          "type": "address"
        }
      ],
      "name": "setFeeRedeemBurnAddress",
      "outputs": [],
      "stateMutability": "nonpayable",
      "type": "function"
    },
    {
      "inputs": [
        {
          "internalType": "uint256",
          "name": "_feeRedeemBurnPercentageInBase",
          "type": "uint256"
        }
      ],
      "name": "setFeeRedeemBurnPercentage",
      "outputs": [],
      "stateMutability": "nonpayable",
      "type": "function"
    },
    {
      "inputs": [
        {
          "internalType": "uint256",
          "name": "_feeRedeemPercentageInBase",
          "type": "uint256"
        }
      ],
      "name": "setFeeRedeemPercentage",
      "outputs": [],
      "stateMutability": "nonpayable",
      "type": "function"
    },
    {
      "inputs": [
        {
          "internalType": "address",
          "name": "_feeRedeemReceiver",
          "type": "address"
        }
      ],
      "name": "setFeeRedeemReceiver",
      "outputs": [],
      "stateMutability": "nonpayable",
      "type": "function"
    },
    {
      "inputs": [
        {
          "internalType": "uint64",
          "name": "_minimumVintageStartTime",
          "type": "uint64"
        }
      ],
      "name": "setMinimumVintageStartTime",
      "outputs": [],
      "stateMutability": "nonpayable",
      "type": "function"
    },
    {
      "inputs": [
        {
          "internalType": "address",
          "name": "_router",
          "type": "address"
        }
      ],
      "name": "setRouter",
      "outputs": [],
      "stateMutability": "nonpayable",
      "type": "function"
    },
    {
      "inputs": [
        {
          "internalType": "uint256",
          "name": "newCap",
          "type": "uint256"
        }
      ],
      "name": "setSupplyCap",
      "outputs": [],
      "stateMutability": "nonpayable",
      "type": "function"
    },
    {
      "inputs": [
        {
          "internalType": "address[]",
          "name": "tco2s",
          "type": "address[]"
        }
      ],
      "name": "setTCO2Scoring",
      "outputs": [],
      "stateMutability": "nonpayable",
      "type": "function"
    },
    {
      "inputs": [
        {
          "internalType": "address",
          "name": "_address",
          "type": "address"
        }
      ],
      "name": "setToucanContractRegistry",
      "outputs": [],
      "stateMutability": "nonpayable",
      "type": "function"
    },
    {
      "inputs": [
        {
          "internalType": "string",
          "name": "",
          "type": "string"
        }
      ],
      "name": "standards",
      "outputs": [
        {
          "internalType": "bool",
          "name": "",
          "type": "bool"
        }
      ],
      "stateMutability": "view",
      "type": "function"
    },
    {
      "inputs": [],
      "name": "standardsIsAcceptedMapping",
      "outputs": [
        {
          "internalType": "bool",
          "name": "",
          "type": "bool"
        }
      ],
      "stateMutability": "view",
      "type": "function"
    },
    {
      "inputs": [],
      "name": "supplyCap",
      "outputs": [
        {
          "internalType": "uint256",
          "name": "",
          "type": "uint256"
        }
      ],
      "stateMutability": "view",
      "type": "function"
    },
    {
      "inputs": [
        {
          "internalType": "bytes4",
          "name": "interfaceId",
          "type": "bytes4"
        }
      ],
      "name": "supportsInterface",
      "outputs": [
        {
          "internalType": "bool",
          "name": "",
          "type": "bool"
        }
      ],
      "stateMutability": "view",
      "type": "function"
    },
    {
      "inputs": [
        {
          "internalType": "string",
          "name": "_mappingName",
          "type": "string"
        },
        {
          "internalType": "bool",
          "name": "accepted",
          "type": "bool"
        }
      ],
      "name": "switchMapping",
      "outputs": [],
      "stateMutability": "nonpayable",
      "type": "function"
    },
    {
      "inputs": [],
      "name": "symbol",
      "outputs": [
        {
          "internalType": "string",
          "name": "",
          "type": "string"
        }
      ],
      "stateMutability": "view",
      "type": "function"
    },
    {
      "inputs": [
        {
          "internalType": "address",
          "name": "tco2",
          "type": "address"
        }
      ],
      "name": "tokenBalances",
      "outputs": [
        {
          "internalType": "uint256",
          "name": "",
          "type": "uint256"
        }
      ],
      "stateMutability": "view",
      "type": "function"
    },
    {
      "inputs": [],
      "name": "totalSupply",
      "outputs": [
        {
          "internalType": "uint256",
          "name": "",
          "type": "uint256"
        }
      ],
      "stateMutability": "view",
      "type": "function"
    },
    {
      "inputs": [
        {
          "internalType": "address",
          "name": "recipient",
          "type": "address"
        },
        {
          "internalType": "uint256",
          "name": "amount",
          "type": "uint256"
        }
      ],
      "name": "transfer",
      "outputs": [
        {
          "internalType": "bool",
          "name": "",
          "type": "bool"
        }
      ],
      "stateMutability": "nonpayable",
      "type": "function"
    },
    {
      "inputs": [
        {
          "internalType": "address",
          "name": "sender",
          "type": "address"
        },
        {
          "internalType": "address",
          "name": "recipient",
          "type": "address"
        },
        {
          "internalType": "uint256",
          "name": "amount",
          "type": "uint256"
        }
      ],
      "name": "transferFrom",
      "outputs": [
        {
          "internalType": "bool",
          "name": "",
          "type": "bool"
        }
      ],
      "stateMutability": "nonpayable",
      "type": "function"
    },
    {
      "inputs": [
        {
          "internalType": "address",
          "name": "newOwner",
          "type": "address"
        }
      ],
      "name": "transferOwnership",
      "outputs": [],
      "stateMutability": "nonpayable",
      "type": "function"
    },
    {
      "inputs": [],
      "name": "unpause",
      "outputs": [],
      "stateMutability": "nonpayable",
      "type": "function"
    },
    {
      "inputs": [
        {
          "internalType": "address",
          "name": "newImplementation",
          "type": "address"
        }
      ],
      "name": "upgradeTo",
      "outputs": [],
      "stateMutability": "nonpayable",
      "type": "function"
    },
    {
      "inputs": [
        {
          "internalType": "address",
          "name": "newImplementation",
          "type": "address"
        },
        {
          "internalType": "bytes",
          "name": "data",
          "type": "bytes"
        }
      ],
      "name": "upgradeToAndCall",
      "outputs": [],
      "stateMutability": "payable",
      "type": "function"
    }
  ],
  "numDeployments": 8,
  "solcInputHash": "e5220bf03b245daa66ff98a496c53e19",
  "bytecode": "0x60a0604052306080523480156200001557600080fd5b506200002062000026565b62000156565b6200003260ff62000035565b50565b60008054610100900460ff1615620000ce578160ff1660011480156200006e57506200006c306200014760201b620037b81760201c565b155b620000c65760405162461bcd60e51b815260206004820152602e602482015260008051602062005e9783398151915260448201526d191e481a5b9a5d1a585b1a5e995960921b60648201526084015b60405180910390fd5b506000919050565b60005460ff8084169116106200012d5760405162461bcd60e51b815260206004820152602e602482015260008051602062005e9783398151915260448201526d191e481a5b9a5d1a585b1a5e995960921b6064820152608401620000bd565b506000805460ff191660ff92909216919091179055600190565b6001600160a01b03163b151590565b608051615d096200018e6000396000818161153b0152818161157b015281816120380152818161207801526121720152615d096000f3fe6080604052600436106104d65760003560e01c80638456cb5911610281578063c0d786551161015a578063e63ab1e9116100cc578063f141b84f11610085578063f141b84f14610fbe578063f2fde38b14610fe0578063f3edb9ec14611000578063f75991cd1461103c578063f887ea4014611078578063ffa1ad741461109957600080fd5b8063e63ab1e914610eb4578063e882e37b14610ee8578063e9d131ad14610f08578063ec87621c14610f28578063f06f510314610f5c578063f138ac1614610f8d57600080fd5b8063d80e05aa1161011e578063d80e05aa14610e07578063dc5f560e14610e27578063dd62ed3e14610e47578063dff0f52314610e67578063e07f744c14610e7e578063e0d7cad914610e9e57600080fd5b8063c0d7865514610d6e578063c36a257314610d8e578063d4e457ec14610db0578063d547741f14610dd2578063d6a022b814610df257600080fd5b8063a1631e4b116101f3578063a9a484c5116101b7578063a9a484c514610cab578063abf410e514610ccb578063b516f8cf14610cec578063b6a3f59a14610d0c578063bbe669eb14610d2c578063bf2f870f14610d4c57600080fd5b8063a1631e4b14610c06578063a217fddf14610c3f578063a457c2d714610c54578063a7381a6414610c74578063a9059cbb14610c8b57600080fd5b80638da5cb5b116102455780638da5cb5b14610b5c5780638dcb01ec14610b7a5780638f770ad014610b9a57806391d1485414610bb157806395d89b4114610bd1578063963ff55e14610be657600080fd5b80638456cb5914610aab5780638662522f14610ac057806388c9cf6e14610afc57806389022e2e14610b1c5780638c2a993e14610b3c57600080fd5b80633f4ba83a116103b35780635db44cef11610325578063715018a6116102e9578063715018a614610a0157806374f4f54714610a1657806379255ddd14610a365780637966529d14610a565780638129fc1c14610a7657806381e48e9014610a8b57600080fd5b80635db44cef146109455780636ca0b0d7146109655780636dbb31021461097a5780636fd2f1811461099a57806370a08231146109cb57600080fd5b80634c02cad1116103775780634c02cad1146108975780634f1ef286146108c5578063523fba7f146108d857806352d1902d146108f857806354c9c9701461090d5780635c975abb1461092d57600080fd5b80633f4ba83a1461080257806341dbbb2a146108175780634642547b1461083757806346518b0a1461085757806347e7ef241461087757600080fd5b806329f4c7a31161044c57806336568abe1161041057806336568abe146107415780633659cfe614610761578063395093511461078157806339cd7a8a146107a15780633a9a77ee146107c15780633d2afced146107e257600080fd5b806329f4c7a31461068d5780632b540f19146106b45780632b554142146106e55780632f2ff15d14610705578063313ce5671461072557600080fd5b80630e2d15ab1161049e5780630e2d15ab1461059457806318160ddd146105c557806320b167f9146105e457806323b872dd14610604578063248a9ca31461062457806324adbf4d1461065457600080fd5b806301ffc9a7146104db57806306fdde0314610510578063095ea7b3146105325780630b7d28c7146105525780630c0efecc14610574575b600080fd5b3480156104e757600080fd5b506104fb6104f6366004614d09565b6110ca565b60405190151581526020015b60405180910390f35b34801561051c57600080fd5b50610525611101565b6040516105079190614d8b565b34801561053e57600080fd5b506104fb61054d366004614db3565b611193565b34801561055e57600080fd5b5061057261056d366004614ddf565b6111ab565b005b34801561058057600080fd5b5061057261058f366004614e11565b6111d8565b3480156105a057600080fd5b506104fb6105af366004614ddf565b6101a06020526000908152604090205460ff1681565b3480156105d157600080fd5b506035545b604051908152602001610507565b3480156105f057600080fd5b506105726105ff366004614e2e565b611237565b34801561061057600080fd5b506104fb61061f366004614e47565b611245565b34801561063057600080fd5b506105d661063f366004614e2e565b600090815260fb602052604090206001015490565b34801561066057600080fd5b5061019b54610675906001600160a01b031681565b6040516001600160a01b039091168152602001610507565b34801561069957600080fd5b5061019f546104fb9068010000000000000000900460ff1681565b3480156106c057600080fd5b506104fb6106cf366004614ddf565b6101a16020526000908152604090205460ff1681565b3480156106f157600080fd5b50610572610700366004614fb1565b611268565b34801561071157600080fd5b5061057261072036600461506b565b61148e565b34801561073157600080fd5b5060405160128152602001610507565b34801561074d57600080fd5b5061057261075c36600461506b565b6114b3565b34801561076d57600080fd5b5061057261077c366004614ddf565b611531565b34801561078d57600080fd5b506104fb61079c366004614db3565b611610565b3480156107ad57600080fd5b506105726107bc366004615129565b611632565b3480156107cd57600080fd5b5061019d54610675906001600160a01b031681565b3480156107ee57600080fd5b506105726107fd3660046151ba565b6117a6565b34801561080e57600080fd5b50610572611a7a565b34801561082357600080fd5b506105d6610832366004614fb1565b611aad565b34801561084357600080fd5b50610572610852366004614ddf565b611b86565b34801561086357600080fd5b50610572610872366004615245565b611bb0565b34801561088357600080fd5b50610572610892366004614db3565b611c8b565b3480156108a357600080fd5b506108b76108b2366004614e2e565b611d4e565b6040516105079291906152bd565b6105726108d3366004615314565b61202e565b3480156108e457600080fd5b506105d66108f3366004614ddf565b6120fa565b34801561090457600080fd5b506105d6612165565b34801561091957600080fd5b50610572610928366004615245565b612218565b34801561093957600080fd5b5060975460ff166104fb565b34801561095157600080fd5b50610572610960366004615245565b6122f3565b34801561097157600080fd5b506105d6600281565b34801561098657600080fd5b50610572610995366004614ddf565b6123ce565b3480156109a657600080fd5b506104fb6109b5366004614ddf565b6101986020526000908152604090205460ff1681565b3480156109d757600080fd5b506105d66109e6366004614ddf565b6001600160a01b031660009081526033602052604090205490565b348015610a0d57600080fd5b5061057261242b565b348015610a2257600080fd5b50610572610a31366004614db3565b61248f565b348015610a4257600080fd5b50610572610a51366004614e2e565b6124a1565b348015610a6257600080fd5b50610572610a71366004615245565b6124eb565b348015610a8257600080fd5b506105726125c6565b348015610a9757600080fd5b50610572610aa63660046153f6565b61268c565b348015610ab757600080fd5b50610572612ae7565b348015610acc57600080fd5b506104fb610adb366004615490565b80516020818301810180516101958252928201919093012091525460ff1681565b348015610b0857600080fd5b50610572610b17366004615245565b612b18565b348015610b2857600080fd5b50610572610b37366004614db3565b612bf3565b348015610b4857600080fd5b50610572610b57366004614db3565b612cc1565b348015610b6857600080fd5b506065546001600160a01b0316610675565b348015610b8657600080fd5b50610572610b95366004615245565b612cd3565b348015610ba657600080fd5b506105d66101915481565b348015610bbd57600080fd5b506104fb610bcc36600461506b565b612dae565b348015610bdd57600080fd5b50610525612dd9565b348015610bf257600080fd5b50610675610c01366004614e2e565b612de8565b348015610c1257600080fd5b5061019f54610c27906001600160401b031681565b6040516001600160401b039091168152602001610507565b348015610c4b57600080fd5b506105d6600081565b348015610c6057600080fd5b506104fb610c6f366004614db3565b612e13565b348015610c8057600080fd5b506105d661019e5481565b348015610c9757600080fd5b506104fb610ca6366004614db3565b612e99565b348015610cb757600080fd5b506104fb610cc6366004614ddf565b612eae565b348015610cd757600080fd5b5061019354610675906001600160a01b031681565b348015610cf857600080fd5b50610572610d07366004614ddf565b6131ab565b348015610d1857600080fd5b50610572610d27366004614e2e565b613217565b348015610d3857600080fd5b50610572610d473660046154c4565b613255565b348015610d5857600080fd5b50610d616132f4565b6040516105079190615505565b348015610d7a57600080fd5b50610572610d89366004614ddf565b613356565b348015610d9a57600080fd5b5061019f546104fb90600160501b900460ff1681565b348015610dbc57600080fd5b5061019f546104fb90600160581b900460ff1681565b348015610dde57600080fd5b50610572610ded36600461506b565b6133ad565b348015610dfe57600080fd5b506105d66133d2565b348015610e1357600080fd5b50610572610e22366004614ddf565b6133f0565b348015610e3357600080fd5b506104fb610e42366004614ddf565b61344a565b348015610e5357600080fd5b506105d6610e62366004615518565b6135b8565b348015610e7357600080fd5b506105d661019c5481565b348015610e8a57600080fd5b50610572610e99366004614ddf565b6135e3565b348015610eaa57600080fd5b506105d661271081565b348015610ec057600080fd5b506105d67f65d7a28e3265b37a6474929f336521b332c1681b933f6cb9f3376673440d862a81565b348015610ef457600080fd5b50610572610f03366004614ddf565b61364f565b348015610f1457600080fd5b50610572610f23366004614e2e565b6136a6565b348015610f3457600080fd5b506105d67f241ecf16d79d0f8dbfb92cbc07fe17840425976cf0667f022fe9877caa831b0881565b348015610f6857600080fd5b506104fb610f77366004614ddf565b61019a6020526000908152604090205460ff1681565b348015610f9957600080fd5b506104fb610fa8366004614ddf565b6101996020526000908152604090205460ff1681565b348015610fca57600080fd5b5061019f546104fb90600160481b900460ff1681565b348015610fec57600080fd5b50610572610ffb366004614ddf565b6136f0565b34801561100c57600080fd5b506104fb61101b366004615490565b80516020818301810180516101968252928201919093012091525460ff1681565b34801561104857600080fd5b506104fb611057366004615490565b80516020818301810180516101978252928201919093012091525460ff1681565b34801561108457600080fd5b506101a254610675906001600160a01b031681565b3480156110a557600080fd5b50610525604051806040016040528060058152602001640312e342e360dc1b81525081565b60006001600160e01b03198216637965db0b60e01b14806110fb57506301ffc9a760e01b6001600160e01b03198316145b92915050565b60606036805461111090615546565b80601f016020809104026020016040519081016040528092919081815260200182805461113c90615546565b80156111895780601f1061115e57610100808354040283529160200191611189565b820191906000526020600020905b81548152906001019060200180831161116c57829003601f168201915b5050505050905090565b6000336111a18185856137c7565b5060019392505050565b6111b36138eb565b6001600160a01b031660009081526101a060205260409020805460ff19166001179055565b6111e06138eb565b61019f805467ffffffffffffffff19166001600160401b0383169081179091556040519081527f87f670402a6c72fff3b60ba5223165f062b58d671871fc2c49ea96101fdd19a0906020015b60405180910390a150565b61124081611d4e565b505050565b600061125083613941565b61125b8484846139c4565b50600190505b9392505050565b6112706139dd565b81518151604080518082019091526002815261189960f11b60208201529082146112b65760405162461bcd60e51b81526004016112ad9190614d8b565b60405180910390fd5b5061019c543360009081526101a0602052604081205490919060ff1682805b858110156113a6576112ff8882815181106112f2576112f2615580565b602002602001015161344a565b508261134a576127108488838151811061131b5761131b615580565b602002602001015161132d91906155ac565b61133791906155cb565b915061134382866155ed565b945061134f565b600091505b61139688828151811061136457611364615580565b60200260200101518389848151811061137f5761137f615580565b60200260200101516113919190615605565b613a1d565b61139f8161561c565b90506112d5565b50831561148557600061271061019e54866113c191906155ac565b6113cb91906155cb565b90506113d78186615605565b61019b549095506113f1906001600160a01b031686612e99565b5060408051338152602081018790527f3f89e1d936a29a8de9ae9040436992721a00bc63bbe3ca55692b95f0311640b2910160405180910390a180156114835761019d54611448906001600160a01b031682612e99565b5060408051338152602081018390527f932bd968974f0b6fa1cb59bf961f81d2e57b39332d311b413dceae17966387db910160405180910390a15b505b50505050505050565b600082815260fb60205260409020600101546114a981613a81565b6112408383613a8b565b6001600160a01b03811633146115235760405162461bcd60e51b815260206004820152602f60248201527f416363657373436f6e74726f6c3a2063616e206f6e6c792072656e6f756e636560448201526e103937b632b9903337b91039b2b63360891b60648201526084016112ad565b61152d8282613b11565b5050565b6001600160a01b037f00000000000000000000000000000000000000000000000000000000000000001630036115795760405162461bcd60e51b81526004016112ad90615635565b7f00000000000000000000000000000000000000000000000000000000000000006001600160a01b03166115c2600080516020615c69833981519152546001600160a01b031690565b6001600160a01b0316146115e85760405162461bcd60e51b81526004016112ad90615681565b6115f181613b78565b6040805160008082526020820190925261160d91839190613b80565b50565b6000336111a181858561162383836135b8565b61162d91906155ed565b6137c7565b61163a6138eb565b6116638260405180604001604052806007815260200166726567696f6e7360c81b815250613ceb565b1561169f57806116825761019f805460ff60481b191690556000611699565b61019f805460ff60481b1916600160481b17905560015b50611769565b6116ca82604051806040016040528060098152602001687374616e646172647360b81b815250613ceb565b1561170257806116e95761019f805460ff60501b191690556000611699565b61019f805460ff60501b1916600160501b179055611769565b611731826040518060400160405280600d81526020016c6d6574686f646f6c6f6769657360981b815250613ceb565b1561176957806117505761019f805460ff60581b191690556000611767565b61019f805460ff60581b1916600160581b17905560015b505b7fcdc35455a1217219a4240bb18a7d2978eb98208f22f7ec36d6a1381c28f9d0f5828260405161179a9291906156cd565b60405180910390a15050565b6117cf7f241ecf16d79d0f8dbfb92cbc07fe17840425976cf0667f022fe9877caa831b08613cf7565b6040805180820190915260018152601960f91b60208201528390816118075760405162461bcd60e51b81526004016112ad9190614d8b565b50604080518082019091526002815261189960f11b60208201528183146118415760405162461bcd60e51b81526004016112ad9190614d8b565b506101a254604051635ed6513d60e11b815230600482015263ffffffff881660248201526001600160a01b0390911690600090829063bdaca27a906044016040805180830381865afa15801561189b573d6000803e3d6000fd5b505050506040513d601f19601f820116820180604052508101906118bf91906156fc565b8051604080518082019091526002815261313160f01b6020820152919250906001600160a01b0382166119055760405162461bcd60e51b81526004016112ad9190614d8b565b5060005b84811015611a6e57836001600160a01b031663255e0ae48b8b8b8581811061193357611933615580565b90506020020160208101906119489190614ddf565b8a8a8681811061195a5761195a615580565b6040516001600160e01b031960e088901b16815263ffffffff9590951660048601526001600160a01b039384166024860152602002919091013560448401525085166064820152608401600060405180830381600087803b1580156119be57600080fd5b505af11580156119d2573d6000803e3d6000fd5b505050508888828181106119e8576119e8615580565b90506020020160208101906119fd9190614ddf565b6001600160a01b03168a63ffffffff167f36d0f926f9bce41fb6e90938955b971cee6bbdfbce772aadd3d6c824f0372797898985818110611a4057611a40615580565b90506020020135604051611a5691815260200190565b60405180910390a3611a678161561c565b9050611909565b50505050505050505050565b611aa37f65d7a28e3265b37a6474929f336521b332c1681b933f6cb9f3376673440d862a613cf7565b611aab613d5d565b565b6000611ab76139dd565b3360009081526101a0602052604090205460ff1615611ad8575060006110fb565b82518251604080518082019091526002815261189960f11b6020820152908214611b155760405162461bcd60e51b81526004016112ad9190614d8b565b5061019c54600090815b83811015611b7b57600061271083888481518110611b3f57611b3f615580565b6020026020010151611b5191906155ac565b611b5b91906155cb565b9050611b6781856155ed565b93505080611b749061561c565b9050611b1f565b509095945050505050565b611b8e6138eb565b6001600160a01b031660009081526101a060205260409020805460ff19169055565b611bb86138eb565b60005b815181101561152d5760016101986000848481518110611bdd57611bdd615580565b60200260200101516001600160a01b03166001600160a01b0316815260200190815260200160002060006101000a81548160ff0219169083151502179055507f29b8b184f4394a88477750516a3701dd0c9409451be78c24428bf5f827f527a5828281518110611c4f57611c4f615580565b6020026020010151604051611c7391906001600160a01b0391909116815260200190565b60405180910390a1611c848161561c565b9050611bbb565b611c936139dd565b611c9c8261344a565b506000611ca76133d2565b6040805180820190915260018152603360f81b602082015290915081611ce05760405162461bcd60e51b81526004016112ad9190614d8b565b5080821115611ced578091505b611cf73383613df0565b604080516001600160a01b0385168152602081018490527f2da466a7b24304f47e87fa2e1e5a81b9831ce54fec19055ce277ca2f39ba42c4910160405180910390a16112406001600160a01b038416333085613edb565b606080611d596139dd565b604080518082019091526002815261323160f01b602082015283611d905760405162461bcd60e51b81526004016112ad9190614d8b565b506101945460009081905b600086118015611daa57508083105b15611f185760006101948481548110611dc557611dc5615580565b60009182526020822001546001600160a01b03169150611de4826120fa565b905060008115611e1257818911611dfb5788611dfd565b815b9050611e09818a615605565b98508460010194505b85600101955088600003611f1057846001600160401b03811115611e3857611e38614e88565b604051908082528060200260200182016040528015611e61578160200160208202803683370190505b509750846001600160401b03811115611e7c57611e7c614e88565b604051908082528060200260200182016040528015611ea5578160200160208202803683370190505b5096508288611eb5600188615605565b81518110611ec557611ec5615580565b6001600160a01b03909216602092830291909101909101528087611eea600188615605565b81518110611efa57611efa615580565b602002602001018181525050611f108382613a1d565b505050611d9b565b604080518082019091526002815261313560f01b60208201528615611f505760405162461bcd60e51b81526004016112ad9190614d8b565b506000915060005b611f63600185615605565b8110156120255760006101948281548110611f8057611f80615580565b60009182526020822001546001600160a01b03169150611f9f826120fa565b905080600003611fb0575050612015565b81888681518110611fc357611fc3615580565b60200260200101906001600160a01b031690816001600160a01b03168152505080878681518110611ff657611ff6615580565b60200260200101818152505061200c8282613a1d565b84600101945050505b61201e8161561c565b9050611f58565b50505050915091565b6001600160a01b037f00000000000000000000000000000000000000000000000000000000000000001630036120765760405162461bcd60e51b81526004016112ad90615635565b7f00000000000000000000000000000000000000000000000000000000000000006001600160a01b03166120bf600080516020615c69833981519152546001600160a01b031690565b6001600160a01b0316146120e55760405162461bcd60e51b81526004016112ad90615681565b6120ee82613b78565b61152d82826001613b80565b6040516370a0823160e01b81523060048201526000906001600160a01b038316906370a0823190602401602060405180830381865afa158015612141573d6000803e3d6000fd5b505050506040513d601f19601f820116820180604052508101906110fb9190615753565b6000306001600160a01b037f000000000000000000000000000000000000000000000000000000000000000016146122055760405162461bcd60e51b815260206004820152603860248201527f555550535570677261646561626c653a206d757374206e6f742062652063616c60448201527f6c6564207468726f7567682064656c656761746563616c6c000000000000000060648201526084016112ad565b50600080516020615c6983398151915290565b6122206138eb565b60005b815181101561152d57600161019a600084848151811061224557612245615580565b60200260200101516001600160a01b03166001600160a01b0316815260200190815260200160002060006101000a81548160ff0219169083151502179055507f43388d274033333ceb567d699874be067ce7411c2bfc989f8e623694c9b3284f8282815181106122b7576122b7615580565b60200260200101516040516122db91906001600160a01b0391909116815260200190565b60405180910390a16122ec8161561c565b9050612223565b6122fb6138eb565b60005b815181101561152d57600061019a600084848151811061232057612320615580565b60200260200101516001600160a01b03166001600160a01b0316815260200190815260200160002060006101000a81548160ff0219169083151502179055507fa7f25a7a7bea0a3fabbe5dc8b6176bd9a603925da390010a10998148c192b67082828151811061239257612392615580565b60200260200101516040516123b691906001600160a01b0391909116815260200190565b60405180910390a16123c78161561c565b90506122fe565b6123d66138eb565b6001600160a01b03811660008181526101a16020908152604091829020805460ff1916600117905590519182527fbfe78aa03afab7296923112293cb902a2fe6df5a6d3d81e1933c652c4cf860f4910161122c565b6065546001600160a01b031633146124855760405162461bcd60e51b815260206004820181905260248201527f4f776e61626c653a2063616c6c6572206973206e6f7420746865206f776e657260448201526064016112ad565b611aab6000613f4c565b612497613f9e565b61152d8282613fe4565b6124a96138eb565b604080518082019091526002815261031360f41b602082015261271082106124e45760405162461bcd60e51b81526004016112ad9190614d8b565b5061019e55565b6124f36138eb565b60005b815181101561152d576000610198600084848151811061251857612518615580565b60200260200101516001600160a01b03166001600160a01b0316815260200190815260200160002060006101000a81548160ff0219169083151502179055507f3c36656d3e8c3db21a1c7d0a7208d73387e15535964c44c30b20c45ab51b3c3882828151811061258a5761258a615580565b60200260200101516040516125ae91906001600160a01b0391909116815260200190565b60405180910390a16125bf8161561c565b90506124f6565b60006125d2600161413e565b905080156125ea576000805461ff0019166101001790555b6125f26141cb565b6125fa6141f2565b612602614222565b61263f604051806060016040528060248152602001615cb060249139604051806040016040528060038152602001621390d560ea1b815250614255565b61264a600033613a8b565b801561160d576000805461ff0019169055604051600181527f7f26b83ff96e1f2b6a682f133852f6798a09c465da95921460cefb38474024989060200161122c565b6126946138eb565b60005b8251811015612802578415156001036127505760016101968483815181106126c1576126c1615580565b60200260200101516040516126d6919061576c565b908152602001604051809103902060006101000a81548160ff0219169083151502179055507fa27e97999993c298fae0b7088ff732fe078cc1585665ee1554220b3cbe6317a983828151811061272e5761272e615580565b60200260200101516040516127439190614d8b565b60405180910390a16127f2565b600061019684838151811061276757612767615580565b602002602001015160405161277c919061576c565b908152602001604051809103902060006101000a81548160ff0219169083151502179055507f0127ddc00426c693b5becb26ba43a260c781ebc323b61d3b24b61e4dc5c93c718382815181106127d4576127d4615580565b60200260200101516040516127e99190614d8b565b60405180910390a15b6127fb8161561c565b9050612697565b5060005b8151811015612971578415156001036128bf57600161019783838151811061283057612830615580565b6020026020010151604051612845919061576c565b908152602001604051809103902060006101000a81548160ff0219169083151502179055507f156643e9a7f860e95993739893595e6ee1d04d9ff1b98567dbe9d5681cd152b282828151811061289d5761289d615580565b60200260200101516040516128b29190614d8b565b60405180910390a1612961565b60006101978383815181106128d6576128d6615580565b60200260200101516040516128eb919061576c565b908152602001604051809103902060006101000a81548160ff0219169083151502179055507f21a77ac4edf49633047cc4e32b10dfe633811216214400e0e1f507c3f7287b6182828151811061294357612943615580565b60200260200101516040516129589190614d8b565b60405180910390a15b61296a8161561c565b9050612806565b5060005b8351811015612ae057841515600103612a2e57600161019585838151811061299f5761299f615580565b60200260200101516040516129b4919061576c565b908152602001604051809103902060006101000a81548160ff0219169083151502179055507f3df7a1330febee3646ae4a0f0e46c94c046f0ee810b2b7f1fa10fa8f34d7b7ef848281518110612a0c57612a0c615580565b6020026020010151604051612a219190614d8b565b60405180910390a1612ad0565b6000610195858381518110612a4557612a45615580565b6020026020010151604051612a5a919061576c565b908152602001604051809103902060006101000a81548160ff0219169083151502179055507fc84badb33408cce6e89b30a735d8f06e094fa4a19c01c2da66718f490c672f65848281518110612ab257612ab2615580565b6020026020010151604051612ac79190614d8b565b60405180910390a15b612ad98161561c565b9050612975565b5050505050565b612b107f65d7a28e3265b37a6474929f336521b332c1681b933f6cb9f3376673440d862a613cf7565b611aab6142a3565b612b206138eb565b60005b815181101561152d5760016101996000848481518110612b4557612b45615580565b60200260200101516001600160a01b03166001600160a01b0316815260200190815260200160002060006101000a81548160ff0219169083151502179055507f2e333bce7bf5a0097fbb4fef2a950809960b5a4aa1a63cbcffc24ac62dc4fd07828281518110612bb757612bb7615580565b6020026020010151604051612bdb91906001600160a01b0391909116815260200190565b60405180910390a1612bec8161561c565b9050612b23565b612bfb6139dd565b6001600160a01b03821660009081526101a160209081526040918290205482518084019093526002835261313360f01b9183019190915260ff16612c525760405162461bcd60e51b81526004016112ad9190614d8b565b50612c5d8282613a1d565b60405163079cc67960e41b8152336004820152602481018290526001600160a01b038316906379cc679090604401600060405180830381600087803b158015612ca557600080fd5b505af1158015612cb9573d6000803e3d6000fd5b505050505050565b612cc9613f9e565b61152d8282613df0565b612cdb6138eb565b60005b815181101561152d5760006101996000848481518110612d0057612d00615580565b60200260200101516001600160a01b03166001600160a01b0316815260200190815260200160002060006101000a81548160ff0219169083151502179055507f9cee5064afac40e291311ecb6a670ef3ef652131fb1ed15c1266fb22cffd6bdd828281518110612d7257612d72615580565b6020026020010151604051612d9691906001600160a01b0391909116815260200190565b60405180910390a1612da78161561c565b9050612cde565b600091825260fb602090815260408084206001600160a01b0393909316845291905290205460ff1690565b60606037805461111090615546565b6101948181548110612df957600080fd5b6000918252602090912001546001600160a01b0316905081565b60003381612e2182866135b8565b905083811015612e815760405162461bcd60e51b815260206004820152602560248201527f45524332303a2064656372656173656420616c6c6f77616e63652062656c6f77604482015264207a65726f60d81b60648201526084016112ad565b612e8e82868684036137c7565b506001949350505050565b6000612ea483613941565b6111a1838361431e565b6000612f0f60405180610140016040528060608152602001606081526020016060815260200160608152602001606081526020016060815260200160608152602001606081526020016060815260200160006001600160a01b031681525090565b612f8b6040518061016001604052806060815260200160006001600160401b0316815260200160006001600160401b031681526020016000815260200160006001600160401b03168152602001600015158152602001600015158152602001606081526020016060815260200160608152602001606081525090565b836001600160a01b031663152583de6040518163ffffffff1660e01b8152600401600060405180830381865afa158015612fc9573d6000803e3d6000fd5b505050506040513d6000823e601f3d908101601f19168201604052612ff19190810190615926565b61019f546020808301516040805180820190915260018152601b60f91b9281019290925293955091935090916001600160401b03918216911610156130495760405162461bcd60e51b81526004016112ad9190614d8b565b5061019f60099054906101000a900460ff1615156101958360600151604051613072919061576c565b9081526040805191829003602090810183205483830190925260018352603760f81b90830152909160ff9091161515146130bf5760405162461bcd60e51b81526004016112ad9190614d8b565b5061019f600a9054906101000a900460ff16151561019683602001516040516130e8919061576c565b9081526040805191829003602090810183205483830190925260018352600760fb1b90830152909160ff9091161515146131355760405162461bcd60e51b81526004016112ad9190614d8b565b5061019f600b9054906101000a900460ff161515610197836040015160405161315e919061576c565b9081526040805191829003602090810183205483830190925260018352603960f81b90830152909160ff909116151514612e8e5760405162461bcd60e51b81526004016112ad9190614d8b565b6131b36138eb565b604080518082019091526002815261313160f01b60208201526001600160a01b0382166131f35760405162461bcd60e51b81526004016112ad9190614d8b565b5061019b80546001600160a01b0319166001600160a01b0392909216919091179055565b61321f6138eb565b6101918190556040518181527f4e44c8be34d12f1b7f56b13b4bbe97e64ca37a91916f86c73412da80c21748e29060200161122c565b61327e7f241ecf16d79d0f8dbfb92cbc07fe17840425976cf0667f022fe9877caa831b08613cf7565b6040805180820190915260018152601960f91b6020820152816132b45760405162461bcd60e51b81526004016112ad9190614d8b565b506132c26101948383614c1d565b507f9204d457ace303c5dbbeaa6966e5ec65661a390007a367c6645e52b4ef4b528e828260405161179a929190615ae3565b606061019480548060200260200160405190810160405280929190818152602001828054801561118957602002820191906000526020600020905b81546001600160a01b0316815260019091019060200180831161332f575050505050905090565b61335e6138eb565b6101a280546001600160a01b0319166001600160a01b0383169081179091556040519081527f7aed1d3e8155a07ccf395e44ea3109a0e2d6c9b29bbbe9f142d9790596f4dc809060200161122c565b600082815260fb60205260409020600101546133c881613a81565b6112408383613b11565b60006133dd60355490565b610191546133eb9190615605565b905090565b6133f86138eb565b6001600160a01b03811660008181526101a16020908152604091829020805460ff1916905590519182527fd1fc9d8986829d0ba9df2bc201a2c76327e0f71567b5a2fb82ba464bf4a03f44910161122c565b6101935460405163787d871360e01b81526001600160a01b038381166004830152600092839291169063787d871390602401602060405180830381865afa158015613499573d6000803e3d6000fd5b505050506040513d601f19601f820116820180604052508101906134bd9190615b26565b90508015613557576001600160a01b0383166000908152610199602052604090205460ff16156134f05750600192915050565b6001600160a01b038316600090815261019a602090815260409182902054825180840190935260018352600d60fa1b9183019190915260ff16156135475760405162461bcd60e51b81526004016112ad9190614d8b565b5061355183612eae565b506135af565b6001600160a01b0383166000908152610198602090815260409182902054825180840190935260018352603560f81b9183019190915260ff166135ad5760405162461bcd60e51b81526004016112ad9190614d8b565b505b50600192915050565b6001600160a01b03918216600090815260346020908152604080832093909416825291909152205490565b6135eb6138eb565b604080518082019091526002815261313160f01b60208201526001600160a01b03821661362b5760405162461bcd60e51b81526004016112ad9190614d8b565b5061019d80546001600160a01b0319166001600160a01b0392909216919091179055565b6136576138eb565b61019380546001600160a01b0319166001600160a01b0383169081179091556040519081527f86907b53cf2024579968511876daf0b4620d65803b550e33101baf70aeb6f5eb9060200161122c565b6136ae6138eb565b604080518082019091526002815261031360f41b602082015261271082106136e95760405162461bcd60e51b81526004016112ad9190614d8b565b5061019c55565b6065546001600160a01b0316331461374a5760405162461bcd60e51b815260206004820181905260248201527f4f776e61626c653a2063616c6c6572206973206e6f7420746865206f776e657260448201526064016112ad565b6001600160a01b0381166137af5760405162461bcd60e51b815260206004820152602660248201527f4f776e61626c653a206e6577206f776e657220697320746865207a65726f206160448201526564647265737360d01b60648201526084016112ad565b61160d81613f4c565b6001600160a01b03163b151590565b6001600160a01b0383166138295760405162461bcd60e51b8152602060048201526024808201527f45524332303a20617070726f76652066726f6d20746865207a65726f206164646044820152637265737360e01b60648201526084016112ad565b6001600160a01b03821661388a5760405162461bcd60e51b815260206004820152602260248201527f45524332303a20617070726f766520746f20746865207a65726f206164647265604482015261737360f01b60648201526084016112ad565b6001600160a01b0383811660008181526034602090815260408083209487168084529482529182902085905590518481527f8c5be1e5ebec7d5bd14f71427d1e84f3dd0314c0f7b2291e5b200ac8c7c3b925910160405180910390a3505050565b336138fe6065546001600160a01b031690565b6001600160a01b03161460405180604001604052806002815260200161062760f31b8152509061160d5760405162461bcd60e51b81526004016112ad9190614d8b565b604080518082019091526002815261313960f01b60208201526001600160a01b0382166139815760405162461bcd60e51b81526004016112ad9190614d8b565b50604080518082019091526002815261032360f41b60208201526001600160a01b038216300361152d5760405162461bcd60e51b81526004016112ad9190614d8b565b6000336139d285828561432c565b612e8e8585856143a0565b60975460ff1615604051806040016040528060028152602001610c4d60f21b8152509061160d5760405162461bcd60e51b81526004016112ad9190614d8b565b613a273382613fe4565b613a3b6001600160a01b0383163383614579565b604080513381526001600160a01b03841660208201529081018290527f27d4634c833b7622a0acddbf7f746183625f105945e95c723ad1d5a9f2a0b6fc9060600161179a565b61160d81336145a9565b613a958282612dae565b61152d57600082815260fb602090815260408083206001600160a01b03851684529091529020805460ff19166001179055613acd3390565b6001600160a01b0316816001600160a01b0316837f2f8788117e7eff1d82e926ec794901d17c78024a50270940304540a733656f0d60405160405180910390a45050565b613b1b8282612dae565b1561152d57600082815260fb602090815260408083206001600160a01b0385168085529252808320805460ff1916905551339285917ff6391f5c32d9c69d2a47ea670b442974b53935d1edc7fd64eb21e047a839171b9190a45050565b61160d6138eb565b7f4910fdfa16fed3260ed0e7147f7cc6da11a60208b5b9406d12a635614ffd91435460ff1615613bb3576112408361460d565b826001600160a01b03166352d1902d6040518163ffffffff1660e01b8152600401602060405180830381865afa925050508015613c0d575060408051601f3d908101601f19168201909252613c0a91810190615753565b60015b613c705760405162461bcd60e51b815260206004820152602e60248201527f45524331393637557067726164653a206e657720696d706c656d656e7461746960448201526d6f6e206973206e6f74205555505360901b60648201526084016112ad565b600080516020615c698339815191528114613cdf5760405162461bcd60e51b815260206004820152602960248201527f45524331393637557067726164653a20756e737570706f727465642070726f786044820152681a58589b195555525160ba1b60648201526084016112ad565b506112408383836146a9565b600061126183836146ce565b613d018133612dae565b80613d25575033613d1a6065546001600160a01b031690565b6001600160a01b0316145b604051806040016040528060018152602001603160f81b8152509061152d5760405162461bcd60e51b81526004016112ad9190614d8b565b60975460ff16613da65760405162461bcd60e51b815260206004820152601460248201527314185d5cd8589b194e881b9bdd081c185d5cd95960621b60448201526064016112ad565b6097805460ff191690557f5db9ee0a495bf2e6ff9c91a7834c1ba4fdd244a5e8aa4e537bd38aeae4b073aa335b6040516001600160a01b03909116815260200160405180910390a1565b6001600160a01b038216613e465760405162461bcd60e51b815260206004820152601f60248201527f45524332303a206d696e7420746f20746865207a65726f20616464726573730060448201526064016112ad565b613e52600083836146f3565b8060356000828254613e6491906155ed565b90915550506001600160a01b03821660009081526033602052604081208054839290613e919084906155ed565b90915550506040518181526001600160a01b038316906000907fddf252ad1be2c89b69c2b068fc378daa952ba7f163c4a11628f55a4df523b3ef9060200160405180910390a35050565b6040516001600160a01b0380851660248301528316604482015260648101829052613f469085906323b872dd60e01b906084015b60408051601f198184030181529190526020810180516001600160e01b03166001600160e01b0319909316929092179091526146fb565b50505050565b606580546001600160a01b038381166001600160a01b0319831681179093556040519116919082907f8be0079c531659141344cd1fd0a4f28419497f9722a3daafe3b4186f6b6457e090600090a35050565b6101a254604080518082019091526002815261313760f01b6020820152906001600160a01b0316331461160d5760405162461bcd60e51b81526004016112ad9190614d8b565b6001600160a01b0382166140445760405162461bcd60e51b815260206004820152602160248201527f45524332303a206275726e2066726f6d20746865207a65726f206164647265736044820152607360f81b60648201526084016112ad565b614050826000836146f3565b6001600160a01b038216600090815260336020526040902054818110156140c45760405162461bcd60e51b815260206004820152602260248201527f45524332303a206275726e20616d6f756e7420657863656564732062616c616e604482015261636560f01b60648201526084016112ad565b6001600160a01b03831660009081526033602052604081208383039055603580548492906140f3908490615605565b90915550506040518281526000906001600160a01b038516907fddf252ad1be2c89b69c2b068fc378daa952ba7f163c4a11628f55a4df523b3ef9060200160405180910390a3505050565b60008054610100900460ff1615614185578160ff1660011480156141615750303b155b61417d5760405162461bcd60e51b81526004016112ad90615b43565b506000919050565b60005460ff8084169116106141ac5760405162461bcd60e51b81526004016112ad90615b43565b506000805460ff191660ff92909216919091179055600190565b919050565b600054610100900460ff16611aab5760405162461bcd60e51b81526004016112ad90615b91565b600054610100900460ff166142195760405162461bcd60e51b81526004016112ad90615b91565b611aab33613f4c565b600054610100900460ff166142495760405162461bcd60e51b81526004016112ad90615b91565b6097805460ff19169055565b600054610100900460ff1661427c5760405162461bcd60e51b81526004016112ad90615b91565b815161428f906036906020850190614c80565b508051611240906037906020840190614c80565b60975460ff16156142e95760405162461bcd60e51b815260206004820152601060248201526f14185d5cd8589b194e881c185d5cd95960821b60448201526064016112ad565b6097805460ff191660011790557f62e78cea01bee320cd4e420270b5ea74000d11b0c9f74754ebdbfc544b05a258613dd33390565b6000336111a18185856143a0565b600061433884846135b8565b90506000198114613f4657818110156143935760405162461bcd60e51b815260206004820152601d60248201527f45524332303a20696e73756666696369656e7420616c6c6f77616e636500000060448201526064016112ad565b613f4684848484036137c7565b6001600160a01b0383166144045760405162461bcd60e51b815260206004820152602560248201527f45524332303a207472616e736665722066726f6d20746865207a65726f206164604482015264647265737360d81b60648201526084016112ad565b6001600160a01b0382166144665760405162461bcd60e51b815260206004820152602360248201527f45524332303a207472616e7366657220746f20746865207a65726f206164647260448201526265737360e81b60648201526084016112ad565b6144718383836146f3565b6001600160a01b038316600090815260336020526040902054818110156144e95760405162461bcd60e51b815260206004820152602660248201527f45524332303a207472616e7366657220616d6f756e7420657863656564732062604482015265616c616e636560d01b60648201526084016112ad565b6001600160a01b038085166000908152603360205260408082208585039055918516815290812080548492906145209084906155ed565b92505081905550826001600160a01b0316846001600160a01b03167fddf252ad1be2c89b69c2b068fc378daa952ba7f163c4a11628f55a4df523b3ef8460405161456c91815260200190565b60405180910390a3613f46565b6040516001600160a01b03831660248201526044810182905261124090849063a9059cbb60e01b90606401613f0f565b6145b38282612dae565b61152d576145cb816001600160a01b031660146147cd565b6145d68360206147cd565b6040516020016145e7929190615bdc565b60408051601f198184030181529082905262461bcd60e51b82526112ad91600401614d8b565b6001600160a01b0381163b61467a5760405162461bcd60e51b815260206004820152602d60248201527f455243313936373a206e657720696d706c656d656e746174696f6e206973206e60448201526c1bdd08184818dbdb9d1c9858dd609a1b60648201526084016112ad565b600080516020615c6983398151915280546001600160a01b0319166001600160a01b0392909216919091179055565b6146b283614968565b6000825111806146bf5750805b1561124057613f4683836149a8565b6000815183511480156112615750508051602091820120825192909101919091201490565b6112406139dd565b6000614750826040518060400160405280602081526020017f5361666545524332303a206c6f772d6c6576656c2063616c6c206661696c6564815250856001600160a01b0316614a9c9092919063ffffffff16565b805190915015611240578080602001905181019061476e9190615b26565b6112405760405162461bcd60e51b815260206004820152602a60248201527f5361666545524332303a204552433230206f7065726174696f6e20646964206e6044820152691bdd081cdd58d8d9595960b21b60648201526084016112ad565b606060006147dc8360026155ac565b6147e79060026155ed565b6001600160401b038111156147fe576147fe614e88565b6040519080825280601f01601f191660200182016040528015614828576020820181803683370190505b509050600360fc1b8160008151811061484357614843615580565b60200101906001600160f81b031916908160001a905350600f60fb1b8160018151811061487257614872615580565b60200101906001600160f81b031916908160001a90535060006148968460026155ac565b6148a19060016155ed565b90505b6001811115614919576f181899199a1a9b1b9c1cb0b131b232b360811b85600f16601081106148d5576148d5615580565b1a60f81b8282815181106148eb576148eb615580565b60200101906001600160f81b031916908160001a90535060049490941c9361491281615c51565b90506148a4565b5083156112615760405162461bcd60e51b815260206004820181905260248201527f537472696e67733a20686578206c656e67746820696e73756666696369656e7460448201526064016112ad565b6149718161460d565b6040516001600160a01b038216907fbc7cd75a20ee27fd9adebab32041f755214dbc6bffa90cc0225b39da2e5c2d3b90600090a250565b60606001600160a01b0383163b614a105760405162461bcd60e51b815260206004820152602660248201527f416464726573733a2064656c65676174652063616c6c20746f206e6f6e2d636f6044820152651b9d1c9858dd60d21b60648201526084016112ad565b600080846001600160a01b031684604051614a2b919061576c565b600060405180830381855af49150503d8060008114614a66576040519150601f19603f3d011682016040523d82523d6000602084013e614a6b565b606091505b5091509150614a938282604051806060016040528060278152602001615c8960279139614ab3565b95945050505050565b6060614aab8484600085614aec565b949350505050565b60608315614ac2575081611261565b825115614ad25782518084602001fd5b8160405162461bcd60e51b81526004016112ad9190614d8b565b606082471015614b4d5760405162461bcd60e51b815260206004820152602660248201527f416464726573733a20696e73756666696369656e742062616c616e636520666f6044820152651c8818d85b1b60d21b60648201526084016112ad565b6001600160a01b0385163b614ba45760405162461bcd60e51b815260206004820152601d60248201527f416464726573733a2063616c6c20746f206e6f6e2d636f6e747261637400000060448201526064016112ad565b600080866001600160a01b03168587604051614bc0919061576c565b60006040518083038185875af1925050503d8060008114614bfd576040519150601f19603f3d011682016040523d82523d6000602084013e614c02565b606091505b5091509150614c12828286614ab3565b979650505050505050565b828054828255906000526020600020908101928215614c70579160200282015b82811115614c705781546001600160a01b0319166001600160a01b03843516178255602090920191600190910190614c3d565b50614c7c929150614cf4565b5090565b828054614c8c90615546565b90600052602060002090601f016020900481019282614cae5760008555614c70565b82601f10614cc757805160ff1916838001178555614c70565b82800160010185558215614c70579182015b82811115614c70578251825591602001919060010190614cd9565b5b80821115614c7c5760008155600101614cf5565b600060208284031215614d1b57600080fd5b81356001600160e01b03198116811461126157600080fd5b60005b83811015614d4e578181015183820152602001614d36565b83811115613f465750506000910152565b60008151808452614d77816020860160208601614d33565b601f01601f19169290920160200192915050565b6020815260006112616020830184614d5f565b6001600160a01b038116811461160d57600080fd5b60008060408385031215614dc657600080fd5b8235614dd181614d9e565b946020939093013593505050565b600060208284031215614df157600080fd5b813561126181614d9e565b6001600160401b038116811461160d57600080fd5b600060208284031215614e2357600080fd5b813561126181614dfc565b600060208284031215614e4057600080fd5b5035919050565b600080600060608486031215614e5c57600080fd5b8335614e6781614d9e565b92506020840135614e7781614d9e565b929592945050506040919091013590565b634e487b7160e01b600052604160045260246000fd5b60405161016081016001600160401b0381118282101715614ec157614ec1614e88565b60405290565b60405161014081016001600160401b0381118282101715614ec157614ec1614e88565b604051601f8201601f191681016001600160401b0381118282101715614f1257614f12614e88565b604052919050565b60006001600160401b03821115614f3357614f33614e88565b5060051b60200190565b600082601f830112614f4e57600080fd5b81356020614f63614f5e83614f1a565b614eea565b82815260059290921b84018101918181019086841115614f8257600080fd5b8286015b84811015614fa6578035614f9981614d9e565b8352918301918301614f86565b509695505050505050565b60008060408385031215614fc457600080fd5b82356001600160401b0380821115614fdb57600080fd5b614fe786838701614f3d565b9350602091508185013581811115614ffe57600080fd5b85019050601f8101861361501157600080fd5b803561501f614f5e82614f1a565b81815260059190911b8201830190838101908883111561503e57600080fd5b928401925b8284101561505c57833582529284019290840190615043565b80955050505050509250929050565b6000806040838503121561507e57600080fd5b82359150602083013561509081614d9e565b809150509250929050565b60006001600160401b038211156150b4576150b4614e88565b50601f01601f191660200190565b60006150d0614f5e8461509b565b90508281528383830111156150e457600080fd5b828260208301376000602084830101529392505050565b600082601f83011261510c57600080fd5b611261838335602085016150c2565b801515811461160d57600080fd5b6000806040838503121561513c57600080fd5b82356001600160401b0381111561515257600080fd5b61515e858286016150fb565b92505060208301356150908161511b565b60008083601f84011261518157600080fd5b5081356001600160401b0381111561519857600080fd5b6020830191508360208260051b85010111156151b357600080fd5b9250929050565b6000806000806000606086880312156151d257600080fd5b853563ffffffff811681146151e657600080fd5b945060208601356001600160401b038082111561520257600080fd5b61520e89838a0161516f565b9096509450604088013591508082111561522757600080fd5b506152348882890161516f565b969995985093965092949392505050565b60006020828403121561525757600080fd5b81356001600160401b0381111561526d57600080fd5b614aab84828501614f3d565b600081518084526020808501945080840160005b838110156152b25781516001600160a01b03168752958201959082019060010161528d565b509495945050505050565b6040815260006152d06040830185615279565b82810360208481019190915284518083528582019282019060005b81811015615307578451835293830193918301916001016152eb565b5090979650505050505050565b6000806040838503121561532757600080fd5b823561533281614d9e565b915060208301356001600160401b0381111561534d57600080fd5b8301601f8101851361535e57600080fd5b61536d858235602084016150c2565b9150509250929050565b600082601f83011261538857600080fd5b81356020615398614f5e83614f1a565b82815260059290921b840181019181810190868411156153b757600080fd5b8286015b84811015614fa65780356001600160401b038111156153da5760008081fd5b6153e88986838b01016150fb565b8452509183019183016153bb565b6000806000806080858703121561540c57600080fd5b84356154178161511b565b935060208501356001600160401b038082111561543357600080fd5b61543f88838901615377565b9450604087013591508082111561545557600080fd5b61546188838901615377565b9350606087013591508082111561547757600080fd5b5061548487828801615377565b91505092959194509250565b6000602082840312156154a257600080fd5b81356001600160401b038111156154b857600080fd5b614aab848285016150fb565b600080602083850312156154d757600080fd5b82356001600160401b038111156154ed57600080fd5b6154f98582860161516f565b90969095509350505050565b6020815260006112616020830184615279565b6000806040838503121561552b57600080fd5b823561553681614d9e565b9150602083013561509081614d9e565b600181811c9082168061555a57607f821691505b60208210810361557a57634e487b7160e01b600052602260045260246000fd5b50919050565b634e487b7160e01b600052603260045260246000fd5b634e487b7160e01b600052601160045260246000fd5b60008160001904831182151516156155c6576155c6615596565b500290565b6000826155e857634e487b7160e01b600052601260045260246000fd5b500490565b6000821982111561560057615600615596565b500190565b60008282101561561757615617615596565b500390565b60006001820161562e5761562e615596565b5060010190565b6020808252602c908201527f46756e6374696f6e206d7573742062652063616c6c6564207468726f7567682060408201526b19195b1959d85d1958d85b1b60a21b606082015260800190565b6020808252602c908201527f46756e6374696f6e206d7573742062652063616c6c6564207468726f7567682060408201526b6163746976652070726f787960a01b606082015260800190565b6040815260006156e06040830185614d5f565b905082151560208301529392505050565b80516141c681614d9e565b60006040828403121561570e57600080fd5b604051604081018181106001600160401b038211171561573057615730614e88565b604052825161573e81614d9e565b81526020928301519281019290925250919050565b60006020828403121561576557600080fd5b5051919050565b6000825161577e818460208701614d33565b9190910192915050565b600082601f83011261579957600080fd5b81516157a7614f5e8261509b565b8181528460208386010111156157bc57600080fd5b614aab826020830160208701614d33565b80516141c681614dfc565b80516141c68161511b565b600061016082840312156157f657600080fd5b6157fe614e9e565b905081516001600160401b038082111561581757600080fd5b61582385838601615788565b8352615831602085016157cd565b6020840152615842604085016157cd565b60408401526060840151606084015261585d608085016157cd565b608084015261586e60a085016157d8565b60a084015261587f60c085016157d8565b60c084015260e084015191508082111561589857600080fd5b6158a485838601615788565b60e0840152610100915081840151818111156158bf57600080fd5b6158cb86828701615788565b8385015250610120915081840151818111156158e657600080fd5b6158f286828701615788565b83850152506101409150818401518181111561590d57600080fd5b61591986828701615788565b8385015250505092915050565b6000806040838503121561593957600080fd5b82516001600160401b038082111561595057600080fd5b90840190610140828703121561596557600080fd5b61596d614ec7565b82518281111561597c57600080fd5b61598888828601615788565b82525060208301518281111561599d57600080fd5b6159a988828601615788565b6020830152506040830151828111156159c157600080fd5b6159cd88828601615788565b6040830152506060830151828111156159e557600080fd5b6159f188828601615788565b606083015250608083015182811115615a0957600080fd5b615a1588828601615788565b60808301525060a083015182811115615a2d57600080fd5b615a3988828601615788565b60a08301525060c083015182811115615a5157600080fd5b615a5d88828601615788565b60c08301525060e083015182811115615a7557600080fd5b615a8188828601615788565b60e0830152506101008084015183811115615a9b57600080fd5b615aa789828701615788565b828401525050610120615abb8185016156f1565b908201526020860151909450915080821115615ad657600080fd5b5061536d858286016157e3565b60208082528181018390526000908460408401835b86811015614fa6578235615b0b81614d9e565b6001600160a01b031682529183019190830190600101615af8565b600060208284031215615b3857600080fd5b81516112618161511b565b6020808252602e908201527f496e697469616c697a61626c653a20636f6e747261637420697320616c72656160408201526d191e481a5b9a5d1a585b1a5e995960921b606082015260800190565b6020808252602b908201527f496e697469616c697a61626c653a20636f6e7472616374206973206e6f74206960408201526a6e697469616c697a696e6760a81b606082015260800190565b7f416363657373436f6e74726f6c3a206163636f756e7420000000000000000000815260008351615c14816017850160208801614d33565b7001034b99036b4b9b9b4b733903937b6329607d1b6017918401918201528351615c45816028840160208801614d33565b01602801949350505050565b600081615c6057615c60615596565b50600019019056fe360894a13ba1a3210667c828492db98dca3e2076cc3735a920a3ca505d382bbc416464726573733a206c6f772d6c6576656c2064656c65676174652063616c6c206661696c6564546f7563616e2050726f746f636f6c3a204e617475726520436172626f6e20546f6e6e65a264697066735822122024e14dbd461e57722dbf17d926c102c6849379c6f7c16ba442392094fecfde3264736f6c634300080e0033496e697469616c697a61626c653a20636f6e747261637420697320616c726561",
  "devdoc": {
    "kind": "dev",
    "methods": {
      "addAttributes(bool,string[],string[],string[])": {
        "params": {
          "addToList": "determines whether attribute should be added or removed Other params are arrays of attributes to be added"
        }
      },
      "addRedeemFeeExemptedAddress(address)": {
        "params": {
          "_address": "address to be exempted on redeem fees"
        }
      },
      "addRedeemFeeExemptedTCO2(address)": {
        "params": {
          "_tco2": "TCO2 to be exempted on redeem fees"
        }
      },
      "addToExternalWhiteList(address[])": {
        "params": {
          "erc20Addr": "accepts an array of contract addresses"
        }
      },
      "addToInternalBlackList(address[])": {
        "params": {
          "erc20Addr": "accepts an array of contract addresses"
        }
      },
      "addToInternalWhiteList(address[])": {
        "params": {
          "erc20Addr": "accepts an array of contract addresses"
        }
      },
      "allowance(address,address)": {
        "details": "See {IERC20-allowance}."
      },
      "approve(address,uint256)": {
        "details": "See {IERC20-approve}. NOTE: If `amount` is the maximum `uint256`, the allowance is not updated on `transferFrom`. This is semantically equivalent to an infinite approval. Requirements: - `spender` cannot be the zero address."
      },
      "balanceOf(address)": {
        "details": "See {IERC20-balanceOf}."
      },
      "bridgeBurn(address,uint256)": {
        "details": "invoked only by the ToucanCrosschainMessenger (Router)",
        "params": {
          "_account": "account that will be burned with corss-chain bridged tokens",
          "_amount": "amount of tokens that will be burned"
        }
      },
      "bridgeMint(address,uint256)": {
        "details": "invoked only by the ToucanCrosschainMessenger (Router)",
        "params": {
          "_account": "account that will be minted with corss-chain bridged tokens",
          "_amount": "amount of tokens that will be minted"
        }
      },
      "bridgeTCO2s(uint32,address[],uint256[])": {
        "params": {
          "amounts": "The amounts of TCO2s to bridge",
          "destinationDomain": "The domain to bridge TCO2s to",
          "tco2s": "The TCO2s to bridge"
        }
      },
      "calculateRedeemFees(address[],uint256[])": {
        "details": "User specifies in front-end the addresses and amounts they want",
        "params": {
          "amounts": "Array of amounts to redeem for each tco2s",
          "tco2s": "Array of TCO2 contract addresses"
        },
        "returns": {
          "_0": "Total fees amount"
        }
      },
      "decimals()": {
        "details": "Returns the number of decimals used to get its user representation. For example, if `decimals` equals `2`, a balance of `505` tokens should be displayed to a user as `5.05` (`505 / 10 ** 2`). Tokens usually opt for a value of 18, imitating the relationship between Ether and Wei. This is the value {ERC20} uses, unless this function is overridden; NOTE: This information is only used for _display_ purposes: it in no way affects any of the arithmetic of the contract, including {IERC20-balanceOf} and {IERC20-transfer}."
      },
      "decreaseAllowance(address,uint256)": {
        "details": "Atomically decreases the allowance granted to `spender` by the caller. This is an alternative to {approve} that can be used as a mitigation for problems described in {IERC20-approve}. Emits an {Approval} event indicating the updated allowance. Requirements: - `spender` cannot be the zero address. - `spender` must have allowance for the caller of at least `subtractedValue`."
      },
      "deposit(address,uint256)": {
        "details": "Eligibility is checked via `checkEligible`, balances are tracked for each TCO2 separately",
        "params": {
          "erc20Addr": "ERC20 contract address to be deposited, requires approve"
        }
      },
      "getRemaining()": {
        "details": "Returns the remaining space in pool before hitting the cap"
      },
      "getRoleAdmin(bytes32)": {
        "details": "Returns the admin role that controls `role`. See {grantRole} and {revokeRole}. To change a role's admin, use {_setRoleAdmin}."
      },
      "grantRole(bytes32,address)": {
        "details": "Grants `role` to `account`. If `account` had not been already granted `role`, emits a {RoleGranted} event. Requirements: - the caller must have ``role``'s admin role."
      },
      "hasRole(bytes32,address)": {
        "details": "Returns `true` if `account` has been granted `role`."
      },
      "increaseAllowance(address,uint256)": {
        "details": "Atomically increases the allowance granted to `spender` by the caller. This is an alternative to {approve} that can be used as a mitigation for problems described in {IERC20-approve}. Emits an {Approval} event indicating the updated allowance. Requirements: - `spender` cannot be the zero address."
      },
      "name()": {
        "details": "Returns the name of the token."
      },
      "owner()": {
        "details": "Returns the address of the current owner."
      },
      "pause()": {
        "details": "wraps _pause(), only Admin"
      },
      "paused()": {
        "details": "Returns true if the contract is paused, and false otherwise."
      },
      "proxiableUUID()": {
        "details": "Implementation of the ERC1822 {proxiableUUID} function. This returns the storage slot used by the implementation. It is used to validate that the this implementation remains valid after an upgrade. IMPORTANT: A proxy pointing at a proxiable contract should not be considered proxiable itself, because this risks bricking a proxy that upgrades to it, by delegating to itself until out of gas. Thus it is critical that this function revert if invoked through a proxy. This is guaranteed by the `notDelegated` modifier."
      },
      "redeemAndBurn(address,uint256)": {
        "details": "User needs to approve the pool contract in the TCO2 contract for the amount to be burnt before executing this function.",
        "params": {
          "amount": "Amount to redeem and burn",
          "tco2": "TCO2 to redeem and burn"
        }
      },
      "redeemAuto(uint256)": {
        "details": "Pool tokens in user's wallet get burned",
        "params": {
          "amount": "Total amount to be redeemed"
        }
      },
      "redeemAuto2(uint256)": {
        "params": {
          "amount": "Total amount to be redeemed"
        },
        "returns": {
          "tco2s": "amounts The addresses and amounts of the TCO2s that were automatically redeemed"
        }
      },
      "redeemMany(address[],uint256[])": {
        "details": "User specifies in front-end the addresses and amounts they want",
        "params": {
          "amounts": "Array of amounts to redeem for each tco2s Pool token in user's wallet get burned",
          "tco2s": "Array of TCO2 contract addresses"
        }
      },
      "removeFromExternalWhiteList(address[])": {
        "params": {
          "erc20Addr": "accepts an array of contract addresses"
        }
      },
      "removeFromInternalBlackList(address[])": {
        "params": {
          "erc20Addr": "accepts an array of contract addresses"
        }
      },
      "removeFromInternalWhiteList(address[])": {
        "params": {
          "erc20Addr": "accepts an array of contract addressesc"
        }
      },
      "removeRedeemFeeExemptedAddress(address)": {
        "params": {
          "_address": "address to be removed from exemption"
        }
      },
      "removeRedeemFeeExemptedTCO2(address)": {
        "params": {
          "_tco2": "TCO2 to be removed from exemption"
        }
      },
      "renounceOwnership()": {
        "details": "Leaves the contract without owner. It will not be possible to call `onlyOwner` functions anymore. Can only be called by the current owner. NOTE: Renouncing ownership will leave the contract without an owner, thereby removing any functionality that is only available to the owner."
      },
      "renounceRole(bytes32,address)": {
        "details": "Revokes `role` from the calling account. Roles are often managed via {grantRole} and {revokeRole}: this function's purpose is to provide a mechanism for accounts to lose their privileges if they are compromised (such as when a trusted device is misplaced). If the calling account had been revoked `role`, emits a {RoleRevoked} event. Requirements: - the caller must be `account`."
      },
      "revokeRole(bytes32,address)": {
        "details": "Revokes `role` from `account`. If `account` had been granted `role`, emits a {RoleRevoked} event. Requirements: - the caller must have ``role``'s admin role."
      },
      "setFeeRedeemBurnAddress(address)": {
        "params": {
          "_feeRedeemBurnAddress": "address to transfer the fees to burn"
        }
      },
      "setFeeRedeemBurnPercentage(uint256)": {
        "params": {
          "_feeRedeemBurnPercentageInBase": "percentage of fee in base"
        }
      },
      "setFeeRedeemPercentage(uint256)": {
        "params": {
          "_feeRedeemPercentageInBase": "percentage of fee in base"
        }
      },
      "setFeeRedeemReceiver(address)": {
        "params": {
          "_feeRedeemReceiver": "address to transfer the fees"
        }
      },
      "setMinimumVintageStartTime(uint64)": {
        "params": {
          "_minimumVintageStartTime": "unix time format"
        }
      },
      "setRouter(address)": {
        "details": "use this method to set router address",
        "params": {
          "_router": "address of ToucanCrosschainMessenger"
        }
      },
      "setSupplyCap(uint256)": {
        "details": "supplyCap is initially set to 0 and must be increased before deposits"
      },
      "setTCO2Scoring(address[])": {
        "params": {
          "tco2s": "array of ordered TCO2 addresses"
        }
      },
      "supportsInterface(bytes4)": {
        "details": "See {IERC165-supportsInterface}."
      },
      "switchMapping(string,bool)": {
        "params": {
          "_mappingName": "attribute mapping of project-vintage data",
          "accepted": "determines if mapping works as black or whitelist"
        }
      },
      "symbol()": {
        "details": "Returns the symbol of the token, usually a shorter version of the name."
      },
      "totalSupply()": {
        "details": "See {IERC20-totalSupply}."
      },
      "transferOwnership(address)": {
        "details": "Transfers ownership of the contract to a new account (`newOwner`). Can only be called by the current owner."
      },
      "unpause()": {
        "details": "Unpause the system, wraps _unpause(), only Admin"
      },
      "upgradeTo(address)": {
        "details": "Upgrade the implementation of the proxy to `newImplementation`. Calls {_authorizeUpgrade}. Emits an {Upgraded} event."
      },
      "upgradeToAndCall(address,bytes)": {
        "details": "Upgrade the implementation of the proxy to `newImplementation`, and subsequently execute the function call encoded in `data`. Calls {_authorizeUpgrade}. Emits an {Upgraded} event."
      }
    },
    "version": 1
  },
  "userdoc": {
    "kind": "user",
    "methods": {
      "addAttributes(bool,string[],string[],string[])": {
        "notice": "Function to add attributes for filtering (does not support complex AttributeSets)"
      },
      "addRedeemFeeExemptedAddress(address)": {
        "notice": "Adds a new address for redeem fees exemption"
      },
      "addRedeemFeeExemptedTCO2(address)": {
        "notice": "Adds a new TCO2 for redeem fees exemption"
      },
      "addToExternalWhiteList(address[])": {
        "notice": "Function to whitelist selected external non-TCO2 contracts by their address"
      },
      "addToInternalBlackList(address[])": {
        "notice": "Function to blacklist certain TCO2 contracts by their address"
      },
      "addToInternalWhiteList(address[])": {
        "notice": "Function to whitelist certain TCO2 contracts by their address"
      },
      "bridgeBurn(address,uint256)": {
        "notice": "burn tokens from account to be cross-chain bridged"
      },
      "bridgeMint(address,uint256)": {
        "notice": "mint tokens to receiver account that were cross-chain bridged"
      },
      "bridgeTCO2s(uint32,address[],uint256[])": {
        "notice": "Allows MANAGER or the owner to bridge TCO2s into another domain."
      },
      "calculateRedeemFees(address[],uint256[])": {
        "notice": "View function to calculate fees pre-execution"
      },
      "checkAttributeMatching(address)": {
        "notice": "Checks whether incoming TCO2s match the accepted criteria/attributes"
      },
      "checkEligible(address)": {
        "notice": "Checks if token to be deposited is eligible for this pool"
      },
      "deposit(address,uint256)": {
        "notice": "Deposit function for pool that accepts TCO2s and mints pool token 1:1"
      },
      "pause()": {
        "notice": "Emergency function to disable contract's core functionality"
      },
      "redeemAndBurn(address,uint256)": {
        "notice": "Redeem a whitelisted TCO2 without paying any fees and burn the TCO2. Initially added to burn HFC-23 credits, can be used in the future to dispose of any other whitelisted credits."
      },
      "redeemAuto(uint256)": {
        "notice": "Automatically redeems an amount of Pool tokens for underlying TCO2s from an array of ranked TCO2 contracts starting from contract at index 0 until amount is satisfied"
      },
      "redeemAuto2(uint256)": {
        "notice": "Automatically redeems an amount of Pool tokens for underlying TCO2s from an array of ranked TCO2 contracts starting from contract at index 0 until amount is satisfied."
      },
      "redeemFeeExemptedAddresses(address)": {
        "notice": "End users exempted from redeem fees"
      },
      "redeemFeeExemptedTCO2s(address)": {
        "notice": "TCO2s exempted from redeem fees"
      },
      "redeemMany(address[],uint256[])": {
        "notice": "Redeems Pool tokens for multiple underlying TCO2s 1:1 minus fees"
      },
      "removeFromExternalWhiteList(address[])": {
        "notice": "Function to remove ERC20 addresses from external whitelist"
      },
      "removeFromInternalBlackList(address[])": {
        "notice": "Function to remove TCO2 addresses from internal blacklist"
      },
      "removeFromInternalWhiteList(address[])": {
        "notice": "Function to remove TCO2 addresses from internal whitelist"
      },
      "removeRedeemFeeExemptedAddress(address)": {
        "notice": "Removes an address from redeem fees exemption"
      },
      "removeRedeemFeeExemptedTCO2(address)": {
        "notice": "Removes a TCO2 from redeem fees exemption"
      },
      "router()": {
        "notice": "bridge router who has access to the bridgeMint & bridgeBurn functions which mint/burn pool tokens for cross chain messenges"
      },
      "scoredTCO2s(uint256)": {
        "notice": "array used to read from when redeeming TCO2s automatically"
      },
      "setFeeRedeemBurnAddress(address)": {
        "notice": "Update the fee redeem burn address"
      },
      "setFeeRedeemBurnPercentage(uint256)": {
        "notice": "Update the fee redeem burn percentage"
      },
      "setFeeRedeemPercentage(uint256)": {
        "notice": "Update the fee redeem percentage"
      },
      "setFeeRedeemReceiver(address)": {
        "notice": "Update the fee redeem receiver"
      },
      "setMinimumVintageStartTime(uint64)": {
        "notice": "Determines the minimum vintage start time acceptance criteria of TCO2s"
      },
      "setRouter(address)": {
        "notice": "method to set router address"
      },
      "setSupplyCap(uint256)": {
        "notice": "Function to limit the maximum pool supply"
      },
      "setTCO2Scoring(address[])": {
        "notice": "Allows MANAGERs or the owner to pass an array to hold TCO2 contract addesses that are ordered by some form of scoring mechanism"
      },
      "supplyCap()": {
        "notice": "The supply cap is used as a measure to guard deposits in the pool. It is meant to minimize the impact a potential compromise in the source registry (eg. Verra) can have to the pool."
      },
      "switchMapping(string,bool)": {
        "notice": "Generic function to switch attributes mappings into either acceptance or rejection criteria"
      },
      "tokenBalances(address)": {
        "notice": "Returns the balance of the TCO2 found in the pool"
      }
    },
    "notice": "Nature Carbon Tonne (or NatureCarbonTonne) Contract is an ERC20 compliant token that acts as a pool for TCO2 tokens",
    "version": 1
  },
  "storageLayout": {
    "storage": [
      {
        "astId": 1489,
        "contract": "contracts/pools/NatureCarbonTonne.sol:NatureCarbonTonne",
        "label": "_initialized",
        "offset": 0,
        "slot": "0",
        "type": "t_uint8"
      },
      {
        "astId": 1492,
        "contract": "contracts/pools/NatureCarbonTonne.sol:NatureCarbonTonne",
        "label": "_initializing",
        "offset": 1,
        "slot": "0",
        "type": "t_bool"
      },
      {
        "astId": 4593,
        "contract": "contracts/pools/NatureCarbonTonne.sol:NatureCarbonTonne",
        "label": "__gap",
        "offset": 0,
        "slot": "1",
        "type": "t_array(t_uint256)50_storage"
      },
      {
        "astId": 1949,
        "contract": "contracts/pools/NatureCarbonTonne.sol:NatureCarbonTonne",
        "label": "_balances",
        "offset": 0,
        "slot": "51",
        "type": "t_mapping(t_address,t_uint256)"
      },
      {
        "astId": 1955,
        "contract": "contracts/pools/NatureCarbonTonne.sol:NatureCarbonTonne",
        "label": "_allowances",
        "offset": 0,
        "slot": "52",
        "type": "t_mapping(t_address,t_mapping(t_address,t_uint256))"
      },
      {
        "astId": 1957,
        "contract": "contracts/pools/NatureCarbonTonne.sol:NatureCarbonTonne",
        "label": "_totalSupply",
        "offset": 0,
        "slot": "53",
        "type": "t_uint256"
      },
      {
        "astId": 1959,
        "contract": "contracts/pools/NatureCarbonTonne.sol:NatureCarbonTonne",
        "label": "_name",
        "offset": 0,
        "slot": "54",
        "type": "t_string_storage"
      },
      {
        "astId": 1961,
        "contract": "contracts/pools/NatureCarbonTonne.sol:NatureCarbonTonne",
        "label": "_symbol",
        "offset": 0,
        "slot": "55",
        "type": "t_string_storage"
      },
      {
        "astId": 2540,
        "contract": "contracts/pools/NatureCarbonTonne.sol:NatureCarbonTonne",
        "label": "__gap",
        "offset": 0,
        "slot": "56",
        "type": "t_array(t_uint256)45_storage"
      },
      {
        "astId": 980,
        "contract": "contracts/pools/NatureCarbonTonne.sol:NatureCarbonTonne",
        "label": "_owner",
        "offset": 0,
        "slot": "101",
        "type": "t_address"
      },
      {
        "astId": 1092,
        "contract": "contracts/pools/NatureCarbonTonne.sol:NatureCarbonTonne",
        "label": "__gap",
        "offset": 0,
        "slot": "102",
        "type": "t_array(t_uint256)49_storage"
      },
      {
        "astId": 1781,
        "contract": "contracts/pools/NatureCarbonTonne.sol:NatureCarbonTonne",
        "label": "_paused",
        "offset": 0,
        "slot": "151",
        "type": "t_bool"
      },
      {
        "astId": 1870,
        "contract": "contracts/pools/NatureCarbonTonne.sol:NatureCarbonTonne",
        "label": "__gap",
        "offset": 0,
        "slot": "152",
        "type": "t_array(t_uint256)49_storage"
      },
      {
        "astId": 4900,
        "contract": "contracts/pools/NatureCarbonTonne.sol:NatureCarbonTonne",
        "label": "__gap",
        "offset": 0,
        "slot": "201",
        "type": "t_array(t_uint256)50_storage"
      },
      {
        "astId": 596,
        "contract": "contracts/pools/NatureCarbonTonne.sol:NatureCarbonTonne",
        "label": "_roles",
        "offset": 0,
        "slot": "251",
        "type": "t_mapping(t_bytes32,t_struct(RoleData)591_storage)"
      },
      {
        "astId": 895,
        "contract": "contracts/pools/NatureCarbonTonne.sol:NatureCarbonTonne",
        "label": "__gap",
        "offset": 0,
        "slot": "252",
        "type": "t_array(t_uint256)49_storage"
      },
      {
        "astId": 1471,
        "contract": "contracts/pools/NatureCarbonTonne.sol:NatureCarbonTonne",
        "label": "__gap",
        "offset": 0,
        "slot": "301",
        "type": "t_array(t_uint256)50_storage"
      },
      {
        "astId": 1759,
        "contract": "contracts/pools/NatureCarbonTonne.sol:NatureCarbonTonne",
        "label": "__gap",
        "offset": 0,
        "slot": "351",
        "type": "t_array(t_uint256)50_storage"
      },
      {
        "astId": 17568,
        "contract": "contracts/pools/NatureCarbonTonne.sol:NatureCarbonTonne",
        "label": "supplyCap",
        "offset": 0,
        "slot": "401",
        "type": "t_uint256"
      },
      {
        "astId": 17572,
        "contract": "contracts/pools/NatureCarbonTonne.sol:NatureCarbonTonne",
        "label": "DEPRECATED_tokenBalances",
        "offset": 0,
        "slot": "402",
        "type": "t_mapping(t_address,t_uint256)"
      },
      {
        "astId": 17574,
        "contract": "contracts/pools/NatureCarbonTonne.sol:NatureCarbonTonne",
        "label": "contractRegistry",
        "offset": 0,
        "slot": "403",
        "type": "t_address"
      },
      {
        "astId": 17578,
        "contract": "contracts/pools/NatureCarbonTonne.sol:NatureCarbonTonne",
        "label": "scoredTCO2s",
        "offset": 0,
        "slot": "404",
        "type": "t_array(t_address)dyn_storage"
      },
      {
        "astId": 17583,
        "contract": "contracts/pools/NatureCarbonTonne.sol:NatureCarbonTonne",
        "label": "regions",
        "offset": 0,
        "slot": "405",
        "type": "t_mapping(t_string_memory_ptr,t_bool)"
      },
      {
        "astId": 17587,
        "contract": "contracts/pools/NatureCarbonTonne.sol:NatureCarbonTonne",
        "label": "standards",
        "offset": 0,
        "slot": "406",
        "type": "t_mapping(t_string_memory_ptr,t_bool)"
      },
      {
        "astId": 17591,
        "contract": "contracts/pools/NatureCarbonTonne.sol:NatureCarbonTonne",
        "label": "methodologies",
        "offset": 0,
        "slot": "407",
        "type": "t_mapping(t_string_memory_ptr,t_bool)"
      },
      {
        "astId": 17596,
        "contract": "contracts/pools/NatureCarbonTonne.sol:NatureCarbonTonne",
        "label": "externalWhiteList",
        "offset": 0,
        "slot": "408",
        "type": "t_mapping(t_address,t_bool)"
      },
      {
        "astId": 17601,
        "contract": "contracts/pools/NatureCarbonTonne.sol:NatureCarbonTonne",
        "label": "internalWhiteList",
        "offset": 0,
        "slot": "409",
        "type": "t_mapping(t_address,t_bool)"
      },
      {
        "astId": 17606,
        "contract": "contracts/pools/NatureCarbonTonne.sol:NatureCarbonTonne",
        "label": "internalBlackList",
        "offset": 0,
        "slot": "410",
        "type": "t_mapping(t_address,t_bool)"
      },
      {
        "astId": 17609,
        "contract": "contracts/pools/NatureCarbonTonne.sol:NatureCarbonTonne",
        "label": "feeRedeemReceiver",
        "offset": 0,
        "slot": "411",
        "type": "t_address"
      },
      {
        "astId": 17611,
        "contract": "contracts/pools/NatureCarbonTonne.sol:NatureCarbonTonne",
        "label": "feeRedeemPercentageInBase",
        "offset": 0,
        "slot": "412",
        "type": "t_uint256"
      },
      {
        "astId": 17614,
        "contract": "contracts/pools/NatureCarbonTonne.sol:NatureCarbonTonne",
        "label": "feeRedeemBurnAddress",
        "offset": 0,
        "slot": "413",
        "type": "t_address"
      },
      {
        "astId": 17617,
        "contract": "contracts/pools/NatureCarbonTonne.sol:NatureCarbonTonne",
        "label": "feeRedeemBurnPercentageInBase",
        "offset": 0,
        "slot": "414",
        "type": "t_uint256"
      },
      {
        "astId": 17620,
        "contract": "contracts/pools/NatureCarbonTonne.sol:NatureCarbonTonne",
        "label": "minimumVintageStartTime",
        "offset": 0,
        "slot": "415",
        "type": "t_uint64"
      },
      {
        "astId": 17622,
        "contract": "contracts/pools/NatureCarbonTonne.sol:NatureCarbonTonne",
        "label": "seedMode",
        "offset": 8,
        "slot": "415",
        "type": "t_bool"
      },
      {
        "astId": 17624,
        "contract": "contracts/pools/NatureCarbonTonne.sol:NatureCarbonTonne",
        "label": "regionsIsAcceptedMapping",
        "offset": 9,
        "slot": "415",
        "type": "t_bool"
      },
      {
        "astId": 17626,
        "contract": "contracts/pools/NatureCarbonTonne.sol:NatureCarbonTonne",
        "label": "standardsIsAcceptedMapping",
        "offset": 10,
        "slot": "415",
        "type": "t_bool"
      },
      {
        "astId": 17628,
        "contract": "contracts/pools/NatureCarbonTonne.sol:NatureCarbonTonne",
        "label": "methodologiesIsAcceptedMapping",
        "offset": 11,
        "slot": "415",
        "type": "t_bool"
      },
      {
        "astId": 17634,
        "contract": "contracts/pools/NatureCarbonTonne.sol:NatureCarbonTonne",
        "label": "redeemFeeExemptedAddresses",
        "offset": 0,
        "slot": "416",
        "type": "t_mapping(t_address,t_bool)"
      },
      {
        "astId": 17640,
        "contract": "contracts/pools/NatureCarbonTonne.sol:NatureCarbonTonne",
        "label": "redeemFeeExemptedTCO2s",
        "offset": 0,
        "slot": "417",
        "type": "t_mapping(t_address,t_bool)"
      },
      {
        "astId": 17644,
        "contract": "contracts/pools/NatureCarbonTonne.sol:NatureCarbonTonne",
        "label": "router",
        "offset": 0,
        "slot": "418",
        "type": "t_address"
      }
    ],
    "types": {
      "t_address": {
        "encoding": "inplace",
        "label": "address",
        "numberOfBytes": "20"
      },
      "t_array(t_address)dyn_storage": {
        "base": "t_address",
        "encoding": "dynamic_array",
        "label": "address[]",
        "numberOfBytes": "32"
      },
      "t_array(t_uint256)45_storage": {
        "base": "t_uint256",
        "encoding": "inplace",
        "label": "uint256[45]",
        "numberOfBytes": "1440"
      },
      "t_array(t_uint256)49_storage": {
        "base": "t_uint256",
        "encoding": "inplace",
        "label": "uint256[49]",
        "numberOfBytes": "1568"
      },
      "t_array(t_uint256)50_storage": {
        "base": "t_uint256",
        "encoding": "inplace",
        "label": "uint256[50]",
        "numberOfBytes": "1600"
      },
      "t_bool": {
        "encoding": "inplace",
        "label": "bool",
        "numberOfBytes": "1"
      },
      "t_bytes32": {
        "encoding": "inplace",
        "label": "bytes32",
        "numberOfBytes": "32"
      },
      "t_mapping(t_address,t_bool)": {
        "encoding": "mapping",
        "key": "t_address",
        "label": "mapping(address => bool)",
        "numberOfBytes": "32",
        "value": "t_bool"
      },
      "t_mapping(t_address,t_mapping(t_address,t_uint256))": {
        "encoding": "mapping",
        "key": "t_address",
        "label": "mapping(address => mapping(address => uint256))",
        "numberOfBytes": "32",
        "value": "t_mapping(t_address,t_uint256)"
      },
      "t_mapping(t_address,t_uint256)": {
        "encoding": "mapping",
        "key": "t_address",
        "label": "mapping(address => uint256)",
        "numberOfBytes": "32",
        "value": "t_uint256"
      },
      "t_mapping(t_bytes32,t_struct(RoleData)591_storage)": {
        "encoding": "mapping",
        "key": "t_bytes32",
        "label": "mapping(bytes32 => struct AccessControlUpgradeable.RoleData)",
        "numberOfBytes": "32",
        "value": "t_struct(RoleData)591_storage"
      },
      "t_mapping(t_string_memory_ptr,t_bool)": {
        "encoding": "mapping",
        "key": "t_string_memory_ptr",
        "label": "mapping(string => bool)",
        "numberOfBytes": "32",
        "value": "t_bool"
      },
      "t_string_memory_ptr": {
        "encoding": "bytes",
        "label": "string",
        "numberOfBytes": "32"
      },
      "t_string_storage": {
        "encoding": "bytes",
        "label": "string",
        "numberOfBytes": "32"
      },
      "t_struct(RoleData)591_storage": {
        "encoding": "inplace",
        "label": "struct AccessControlUpgradeable.RoleData",
        "members": [
          {
            "astId": 588,
            "contract": "contracts/pools/NatureCarbonTonne.sol:NatureCarbonTonne",
            "label": "members",
            "offset": 0,
            "slot": "0",
            "type": "t_mapping(t_address,t_bool)"
          },
          {
            "astId": 590,
            "contract": "contracts/pools/NatureCarbonTonne.sol:NatureCarbonTonne",
            "label": "adminRole",
            "offset": 0,
            "slot": "1",
            "type": "t_bytes32"
          }
        ],
        "numberOfBytes": "64"
      },
      "t_uint256": {
        "encoding": "inplace",
        "label": "uint256",
        "numberOfBytes": "32"
      },
      "t_uint64": {
        "encoding": "inplace",
        "label": "uint64",
        "numberOfBytes": "8"
      },
      "t_uint8": {
        "encoding": "inplace",
        "label": "uint8",
        "numberOfBytes": "1"
      }
    }
  }
}