{
  "address": "0x8F051d2c47B03738B35a9803bB4B8A8217cc209A",
  "abi": [
    {
      "inputs": [],
      "stateMutability": "nonpayable",
      "type": "constructor"
    },
    {
      "anonymous": false,
      "inputs": [
        {
          "indexed": true,
          "internalType": "address",
          "name": "owner",
          "type": "address"
        },
        {
          "indexed": true,
          "internalType": "address",
          "name": "spender",
          "type": "address"
        },
        {
          "indexed": false,
          "internalType": "uint256",
          "name": "value",
          "type": "uint256"
        }
      ],
      "name": "Approval",
      "type": "event"
    },
    {
      "anonymous": false,
      "inputs": [
        {
          "indexed": false,
          "internalType": "address",
          "name": "bridger",
          "type": "address"
        },
        {
          "indexed": false,
          "internalType": "uint256",
          "name": "fees",
          "type": "uint256"
        }
      ],
      "name": "FeeBurnt",
      "type": "event"
    },
    {
      "anonymous": false,
      "inputs": [
        {
          "indexed": false,
          "internalType": "address",
          "name": "bridger",
          "type": "address"
        },
        {
          "indexed": false,
          "internalType": "uint256",
          "name": "fees",
          "type": "uint256"
        }
      ],
      "name": "FeePaid",
      "type": "event"
    },
    {
      "anonymous": false,
      "inputs": [
        {
          "indexed": false,
          "internalType": "uint8",
          "name": "version",
          "type": "uint8"
        }
      ],
      "name": "Initialized",
      "type": "event"
    },
    {
      "anonymous": false,
      "inputs": [
        {
          "indexed": false,
          "internalType": "address",
          "name": "sender",
          "type": "address"
        },
        {
          "indexed": false,
          "internalType": "uint256",
          "name": "amount",
          "type": "uint256"
        },
        {
          "indexed": false,
          "internalType": "uint256",
          "name": "eventId",
          "type": "uint256"
        }
      ],
      "name": "Retired",
      "type": "event"
    },
    {
      "anonymous": false,
      "inputs": [
        {
          "indexed": true,
          "internalType": "address",
          "name": "from",
          "type": "address"
        },
        {
          "indexed": true,
          "internalType": "address",
          "name": "to",
          "type": "address"
        },
        {
          "indexed": false,
          "internalType": "uint256",
          "name": "value",
          "type": "uint256"
        }
      ],
      "name": "Transfer",
      "type": "event"
    },
    {
      "inputs": [
        {
          "internalType": "address",
          "name": "owner",
          "type": "address"
        },
        {
          "internalType": "address",
          "name": "spender",
          "type": "address"
        }
      ],
      "name": "allowance",
      "outputs": [
        {
          "internalType": "uint256",
          "name": "",
          "type": "uint256"
        }
      ],
      "stateMutability": "view",
      "type": "function"
    },
    {
      "inputs": [
        {
          "internalType": "address",
          "name": "spender",
          "type": "address"
        },
        {
          "internalType": "uint256",
          "name": "amount",
          "type": "uint256"
        }
      ],
      "name": "approve",
      "outputs": [
        {
          "internalType": "bool",
          "name": "",
          "type": "bool"
        }
      ],
      "stateMutability": "nonpayable",
      "type": "function"
    },
    {
      "inputs": [
        {
          "internalType": "address",
          "name": "account",
          "type": "address"
        }
      ],
      "name": "balanceOf",
      "outputs": [
        {
          "internalType": "uint256",
          "name": "",
          "type": "uint256"
        }
      ],
      "stateMutability": "view",
      "type": "function"
    },
    {
      "inputs": [
        {
          "internalType": "address",
          "name": "account",
          "type": "address"
        },
        {
          "internalType": "uint256",
          "name": "amount",
          "type": "uint256"
        }
      ],
      "name": "burnFrom",
      "outputs": [],
      "stateMutability": "nonpayable",
      "type": "function"
    },
    {
      "inputs": [],
      "name": "contractRegistry",
      "outputs": [
        {
          "internalType": "address",
          "name": "",
          "type": "address"
        }
      ],
      "stateMutability": "view",
      "type": "function"
    },
    {
      "inputs": [],
      "name": "decimals",
      "outputs": [
        {
          "internalType": "uint8",
          "name": "",
          "type": "uint8"
        }
      ],
      "stateMutability": "view",
      "type": "function"
    },
    {
      "inputs": [
        {
          "internalType": "address",
          "name": "spender",
          "type": "address"
        },
        {
          "internalType": "uint256",
          "name": "subtractedValue",
          "type": "uint256"
        }
      ],
      "name": "decreaseAllowance",
      "outputs": [
        {
          "internalType": "bool",
          "name": "",
          "type": "bool"
        }
      ],
      "stateMutability": "nonpayable",
      "type": "function"
    },
    {
      "inputs": [],
      "name": "getAttributes",
      "outputs": [
        {
          "components": [
            {
              "internalType": "string",
              "name": "projectId",
              "type": "string"
            },
            {
              "internalType": "string",
              "name": "standard",
              "type": "string"
            },
            {
              "internalType": "string",
              "name": "methodology",
              "type": "string"
            },
            {
              "internalType": "string",
              "name": "region",
              "type": "string"
            },
            {
              "internalType": "string",
              "name": "storageMethod",
              "type": "string"
            },
            {
              "internalType": "string",
              "name": "method",
              "type": "string"
            },
            {
              "internalType": "string",
              "name": "emissionType",
              "type": "string"
            },
            {
              "internalType": "string",
              "name": "category",
              "type": "string"
            },
            {
              "internalType": "string",
              "name": "uri",
              "type": "string"
            },
            {
              "internalType": "address",
              "name": "controller",
              "type": "address"
            }
          ],
          "internalType": "struct ProjectData",
          "name": "",
          "type": "tuple"
        },
        {
          "components": [
            {
              "internalType": "string",
              "name": "name",
              "type": "string"
            },
            {
              "internalType": "uint64",
              "name": "startTime",
              "type": "uint64"
            },
            {
              "internalType": "uint64",
              "name": "endTime",
              "type": "uint64"
            },
            {
              "internalType": "uint256",
              "name": "projectTokenId",
              "type": "uint256"
            },
            {
              "internalType": "uint64",
              "name": "totalVintageQuantity",
              "type": "uint64"
            },
            {
              "internalType": "bool",
              "name": "isCorsiaCompliant",
              "type": "bool"
            },
            {
              "internalType": "bool",
              "name": "isCCPcompliant",
              "type": "bool"
            },
            {
              "internalType": "string",
              "name": "coBenefits",
              "type": "string"
            },
            {
              "internalType": "string",
              "name": "correspAdjustment",
              "type": "string"
            },
            {
              "internalType": "string",
              "name": "additionalCertification",
              "type": "string"
            },
            {
              "internalType": "string",
              "name": "uri",
              "type": "string"
            }
          ],
          "internalType": "struct VintageData",
          "name": "",
          "type": "tuple"
        }
      ],
      "stateMutability": "view",
      "type": "function"
    },
    {
      "inputs": [],
      "name": "getDepositCap",
      "outputs": [
        {
          "internalType": "uint256",
          "name": "",
          "type": "uint256"
        }
      ],
      "stateMutability": "view",
      "type": "function"
    },
    {
      "inputs": [],
      "name": "getGlobalProjectVintageIdentifiers",
      "outputs": [
        {
          "internalType": "string",
          "name": "",
          "type": "string"
        },
        {
          "internalType": "string",
          "name": "",
          "type": "string"
        }
      ],
      "stateMutability": "view",
      "type": "function"
    },
    {
      "inputs": [],
      "name": "getRemaining",
      "outputs": [
        {
          "internalType": "uint256",
          "name": "remaining",
          "type": "uint256"
        }
      ],
      "stateMutability": "view",
      "type": "function"
    },
    {
      "inputs": [
        {
          "internalType": "address",
          "name": "spender",
          "type": "address"
        },
        {
          "internalType": "uint256",
          "name": "addedValue",
          "type": "uint256"
        }
      ],
      "name": "increaseAllowance",
      "outputs": [
        {
          "internalType": "bool",
          "name": "",
          "type": "bool"
        }
      ],
      "stateMutability": "nonpayable",
      "type": "function"
    },
    {
      "inputs": [
        {
          "internalType": "string",
          "name": "name_",
          "type": "string"
        },
        {
          "internalType": "string",
          "name": "symbol_",
          "type": "string"
        },
        {
          "internalType": "uint256",
          "name": "_projectVintageTokenId",
          "type": "uint256"
        },
        {
          "internalType": "address",
          "name": "_contractRegistry",
          "type": "address"
        }
      ],
      "name": "initialize",
      "outputs": [],
      "stateMutability": "nonpayable",
      "type": "function"
    },
    {
      "inputs": [
        {
          "internalType": "string",
          "name": "retiringEntityString",
          "type": "string"
        },
        {
          "internalType": "address",
          "name": "beneficiary",
          "type": "address"
        },
        {
          "internalType": "string",
          "name": "beneficiaryString",
          "type": "string"
        },
        {
          "internalType": "string",
          "name": "retirementMessage",
          "type": "string"
        },
        {
          "internalType": "uint256",
          "name": "amount",
          "type": "uint256"
        }
      ],
      "name": "mintCertificateLegacy",
      "outputs": [],
      "stateMutability": "nonpayable",
      "type": "function"
    },
    {
      "inputs": [
        {
          "internalType": "address",
          "name": "",
          "type": "address"
        }
      ],
      "name": "minterToId",
      "outputs": [
        {
          "internalType": "uint256",
          "name": "",
          "type": "uint256"
        }
      ],
      "stateMutability": "view",
      "type": "function"
    },
    {
      "inputs": [],
      "name": "name",
      "outputs": [
        {
          "internalType": "string",
          "name": "",
          "type": "string"
        }
      ],
      "stateMutability": "view",
      "type": "function"
    },
    {
      "inputs": [
        {
          "internalType": "address",
          "name": "",
          "type": "address"
        },
        {
          "internalType": "address",
          "name": "from",
          "type": "address"
        },
        {
          "internalType": "uint256",
          "name": "tokenId",
          "type": "uint256"
        },
        {
          "internalType": "bytes",
          "name": "",
          "type": "bytes"
        }
      ],
      "name": "onERC721Received",
      "outputs": [
        {
          "internalType": "bytes4",
          "name": "",
          "type": "bytes4"
        }
      ],
      "stateMutability": "nonpayable",
      "type": "function"
    },
    {
      "inputs": [],
      "name": "projectVintageTokenId",
      "outputs": [
        {
          "internalType": "uint256",
          "name": "",
          "type": "uint256"
        }
      ],
      "stateMutability": "view",
      "type": "function"
    },
    {
      "inputs": [
        {
          "internalType": "uint256",
          "name": "amount",
          "type": "uint256"
        }
      ],
      "name": "retire",
      "outputs": [
        {
          "internalType": "uint256",
          "name": "retirementEventId",
          "type": "uint256"
        }
      ],
      "stateMutability": "nonpayable",
      "type": "function"
    },
    {
      "inputs": [
        {
          "internalType": "string",
          "name": "retiringEntityString",
          "type": "string"
        },
        {
          "internalType": "address",
          "name": "beneficiary",
          "type": "address"
        },
        {
          "internalType": "string",
          "name": "beneficiaryString",
          "type": "string"
        },
        {
          "internalType": "string",
          "name": "retirementMessage",
          "type": "string"
        },
        {
          "internalType": "uint256",
          "name": "amount",
          "type": "uint256"
        }
      ],
      "name": "retireAndMintCertificate",
      "outputs": [],
      "stateMutability": "nonpayable",
      "type": "function"
    },
    {
      "inputs": [
        {
          "internalType": "address",
          "name": "account",
          "type": "address"
        },
        {
          "internalType": "uint256",
          "name": "amount",
          "type": "uint256"
        }
      ],
      "name": "retireFrom",
      "outputs": [
        {
          "internalType": "uint256",
          "name": "retirementEventId",
          "type": "uint256"
        }
      ],
      "stateMutability": "nonpayable",
      "type": "function"
    },
    {
      "inputs": [
        {
          "internalType": "address",
          "name": "",
          "type": "address"
        }
      ],
      "name": "retiredAmount",
      "outputs": [
        {
          "internalType": "uint256",
          "name": "",
          "type": "uint256"
        }
      ],
      "stateMutability": "view",
      "type": "function"
    },
    {
      "inputs": [],
      "name": "symbol",
      "outputs": [
        {
          "internalType": "string",
          "name": "",
          "type": "string"
        }
      ],
      "stateMutability": "view",
      "type": "function"
    },
    {
      "inputs": [],
      "name": "totalSupply",
      "outputs": [
        {
          "internalType": "uint256",
          "name": "",
          "type": "uint256"
        }
      ],
      "stateMutability": "view",
      "type": "function"
    },
    {
      "inputs": [
        {
          "internalType": "address",
          "name": "recipient",
          "type": "address"
        },
        {
          "internalType": "uint256",
          "name": "amount",
          "type": "uint256"
        }
      ],
      "name": "transfer",
      "outputs": [
        {
          "internalType": "bool",
          "name": "",
          "type": "bool"
        }
      ],
      "stateMutability": "nonpayable",
      "type": "function"
    },
    {
      "inputs": [
        {
          "internalType": "address",
          "name": "sender",
          "type": "address"
        },
        {
          "internalType": "address",
          "name": "recipient",
          "type": "address"
        },
        {
          "internalType": "uint256",
          "name": "amount",
          "type": "uint256"
        }
      ],
      "name": "transferFrom",
      "outputs": [
        {
          "internalType": "bool",
          "name": "",
          "type": "bool"
        }
      ],
      "stateMutability": "nonpayable",
      "type": "function"
    },
    {
      "inputs": [],
      "name": "version",
      "outputs": [
        {
          "internalType": "string",
          "name": "",
          "type": "string"
        }
      ],
      "stateMutability": "pure",
      "type": "function"
    }
  ],
  "numDeployments": 2,
  "solcInputHash": "fbd4c37c0109d172ecc45ba9e0085af0",
  "bytecode": "0x60806040523480156200001157600080fd5b506200001c62000022565b62000152565b6200002e60ff62000031565b50565b60008054610100900460ff1615620000ca578160ff1660011480156200006a575062000068306200014360201b620017db1760201c565b155b620000c25760405162461bcd60e51b815260206004820152602e60248201526000805160206200365083398151915260448201526d191e481a5b9a5d1a585b1a5e995960921b60648201526084015b60405180910390fd5b506000919050565b60005460ff808416911610620001295760405162461bcd60e51b815260206004820152602e60248201526000805160206200365083398151915260448201526d191e481a5b9a5d1a585b1a5e995960921b6064820152608401620000b9565b506000805460ff191660ff92909216919091179055600190565b6001600160a01b03163b151590565b6134ee80620001626000396000f3fe608060405234801561001057600080fd5b50600436106101b95760003560e01c806364c5a403116100f9578063a9059cbb11610097578063d6a022b811610071578063d6a022b8146103dd578063dd62ed3e146103e5578063e819426c1461041e578063e9d5c8d51461042757600080fd5b8063a9059cbb1461038c578063abf410e51461039f578063bd3a13f6146103ca57600080fd5b806379cc6790116100d357806379cc67901461033e57806395d89b4114610351578063a19c4bd814610359578063a457c2d71461037957600080fd5b806364c5a403146102ec5780636b24ffd61461030257806370a082311461031557600080fd5b80632087107e11610166578063313ce56711610140578063313ce567146102965780633790cf57146102a557806339509351146102b857806354fd4d50146102cb57600080fd5b80632087107e1461025b57806323b872dd146102705780632ef292901461028357600080fd5b8063150b7a0211610197578063150b7a0214610211578063152583de1461023d57806318160ddd1461025357600080fd5b806301a598da146101be57806306fdde03146101d9578063095ea7b3146101ee575b600080fd5b6101c6610447565b6040519081526020015b60405180910390f35b6101e16104a1565b6040516101d09190612657565b6102016101fc366004612682565b6104dc565b60405190151581526020016101d0565b61022461021f3660046126f7565b6104f6565b6040516001600160e01b031990911681526020016101d0565b610245610b6f565b6040516101d0929190612873565b6035546101c6565b61026e6102693660046129bb565b610d68565b005b61020161027e366004612a71565b610ecb565b61026e6102913660046129bb565b611003565b604051601281526020016101d0565b6101c66102b3366004612ab2565b6110fe565b6102016102c6366004612682565b611210565b6040805180820190915260058152640312e332e360dc1b60208201526101e1565b6102f461124f565b6040516101d0929190612acb565b6101c6610310366004612682565b611279565b6101c6610323366004612af0565b6001600160a01b031660009081526033602052604090205490565b61026e61034c366004612682565b611406565b6101e1611515565b6101c6610367366004612af0565b60686020526000908152604090205481565b610201610387366004612682565b61153a565b61020161039a366004612682565b6115d7565b6066546103b2906001600160a01b031681565b6040516001600160a01b0390911681526020016101d0565b61026e6103d8366004612c20565b61170d565b6101c66117b5565b6101c66103f3366004612ca0565b6001600160a01b03918216600090815260346020908152604080832093909416825291909152205490565b6101c660655481565b6101c6610435366004612af0565b60676020526000908152604090205481565b600061045161248e565b610459610b6f565b6080810151909250905060006104716012600a612dd3565b6104859067ffffffffffffffff8416612de2565b90508060000361049a57600019935050505090565b9392505050565b60608060606104ae61124f565b60405191935091506104c69083908390602001612e01565b6040516020818303038152906040529250505090565b6000336104ea8185856117ea565b60019150505b92915050565b600080606660009054906101000a90046001600160a01b03166001600160a01b03166308cca7e36040518163ffffffff1660e01b8152600401602060405180830381865afa15801561054c573d6000803e3d6000fd5b505050506040513d601f19601f820116820180604052508101906105709190612e71565b90506000816001600160a01b0316635c975abb6040518163ffffffff1660e01b8152600401602060405180830381865afa1580156105b2573d6000803e3d6000fd5b505050506040513d601f19601f820116820180604052508101906105d69190612e9e565b905080156105ff5760405162461bcd60e51b81526004016105f690612eb9565b60405180910390fd5b6106083361190f565b61066b5760405162461bcd60e51b815260206004820152602e60248201527f4572726f723a2042617463682d4e4654206e6f742066726f6d2077686974656c60448201526d1a5cdd19590818dbdb9d1c9858dd60921b60648201526084016105f6565b60405163dff35e8360e01b81526004810187905260009081908190339063dff35e8390602401606060405180830381865afa1580156106ae573d6000803e3d6000fd5b505050506040513d601f19601f820116820180604052508101906106d29190612ede565b92509250925060655483146107295760405162461bcd60e51b815260206004820152601760248201527f4572726f723a206e6f6e2d6d61746368696e67204e465400000000000000000060448201526064016105f6565b600281600281111561073d5761073d612f1b565b1461078a5760405162461bcd60e51b815260206004820152601a60248201527f42617463684e4654206e6f742079657420636f6e6669726d656400000000000060448201526064016105f6565b6001600160a01b038a1660009081526067602052604090208990556107b16012600a612dd3565b6107bb9083612de2565b9150816107c66117b5565b101561083a5760405162461bcd60e51b815260206004820152603660248201527f4572726f723a205175616e7469747920696e206261746368206973206869676860448201527f6572207468616e20746f74616c2076696e74616765730000000000000000000060648201526084016105f6565b606654604080516308cca7e360e01b815290516000926001600160a01b0316916308cca7e39160048083019260209291908290030181865afa158015610884573d6000803e3d6000fd5b505050506040513d601f19601f820116820180604052508101906108a89190612e71565b90506000816001600160a01b03166380e2d3f06040518163ffffffff1660e01b8152600401602060405180830381865afa1580156108ea573d6000803e3d6000fd5b505050506040513d601f19601f8201168201806040525081019061090e9190612e71565b90506001600160a01b03811661092d576109288c856119aa565b610b56565b6040516379bcd2d160e11b81526004810185905260009081906001600160a01b0385169063f379a5a2906024016040805180830381865afa158015610976573d6000803e3d6000fd5b505050506040513d601f19601f8201168201806040525081019061099a9190612f31565b90925090506109b28e6109ad8489612f55565b6119aa565b6000846001600160a01b031663581cd1106040518163ffffffff1660e01b8152600401602060405180830381865afa1580156109f2573d6000803e3d6000fd5b505050506040513d601f19601f82011682018060405250810190610a169190612e71565b90506001600160a01b03811615801590610a305750600082115b15610af457610a3f8284612f55565b9250610a4b84846119aa565b610a5581836119aa565b7f075a2720282fdf622141dae0b048ef90a21a7e57c134c76912d19d006b3b3f6f8f84604051610a9a9291906001600160a01b03929092168252602082015260400190565b60405180910390a17fa2f0f5180dc62f2d34c8207f1d18178d31bd0de616f83636434ddf48de0ae6fa8f83604051610ae79291906001600160a01b03929092168252602082015260400190565b60405180910390a1610b52565b8215610b5257610b0484846119aa565b7f075a2720282fdf622141dae0b048ef90a21a7e57c134c76912d19d006b3b3f6f8f84604051610b499291906001600160a01b03929092168252602082015260400190565b60405180910390a15b5050505b50630a85bd0160e11b9c9b505050505050505050505050565b610b7761250a565b610b7f61248e565b606654604080516301157a8360e01b815290516000926001600160a01b0316916301157a839160048083019260209291908290030181865afa158015610bc9573d6000803e3d6000fd5b505050506040513d601f19601f82011682018060405250810190610bed9190612e71565b90506000606660009054906101000a90046001600160a01b03166001600160a01b031663a0af25606040518163ffffffff1660e01b8152600401602060405180830381865afa158015610c44573d6000803e3d6000fd5b505050506040513d601f19601f82011682018060405250810190610c689190612e71565b90506000816001600160a01b03166315bbf0746065546040518263ffffffff1660e01b8152600401610c9c91815260200190565b600060405180830381865afa158015610cb9573d6000803e3d6000fd5b505050506040513d6000823e601f3d908101601f19168201604052610ce19190810190612fc9565b90506000836001600160a01b03166347e3168683606001516040518263ffffffff1660e01b8152600401610d1791815260200190565b600060405180830381865afa158015610d34573d6000803e3d6000fd5b505050506040513d6000823e601f3d908101601f19168201604052610d5c919081019061312e565b96919550909350505050565b606654604080516308cca7e360e01b815290516000926001600160a01b0316916308cca7e39160048083019260209291908290030181865afa158015610db2573d6000803e3d6000fd5b505050506040513d601f19601f82011682018060405250810190610dd69190612e71565b90506000816001600160a01b0316635c975abb6040518163ffffffff1660e01b8152600401602060405180830381865afa158015610e18573d6000803e3d6000fd5b505050506040513d601f19601f82011682018060405250810190610e3c9190612e9e565b90508015610e5c5760405162461bcd60e51b81526004016105f690612eb9565b6000610e6784611a89565b60408051600180825281830190925291925060009190602080830190803683370190505090508181600081518110610ea157610ea16132d4565b602002602001018181525050610ebd8c8c8c8c8c8c8c88611ba3565b505050505050505050505050565b6000826001600160a01b038116610ee157600080fd5b306001600160a01b03821603610ef657600080fd5b606654604080516308cca7e360e01b815290516000926001600160a01b0316916308cca7e39160048083019260209291908290030181865afa158015610f40573d6000803e3d6000fd5b505050506040513d601f19601f82011682018060405250810190610f649190612e71565b90506000816001600160a01b0316635c975abb6040518163ffffffff1660e01b8152600401602060405180830381865afa158015610fa6573d6000803e3d6000fd5b505050506040513d601f19601f82011682018060405250810190610fca9190612e9e565b90508015610fea5760405162461bcd60e51b81526004016105f690612eb9565b610ff5878787611d83565b506001979650505050505050565b606654604080516308cca7e360e01b815290516000926001600160a01b0316916308cca7e39160048083019260209291908290030181865afa15801561104d573d6000803e3d6000fd5b505050506040513d601f19601f820116820180604052508101906110719190612e71565b90506000816001600160a01b0316635c975abb6040518163ffffffff1660e01b8152600401602060405180830381865afa1580156110b3573d6000803e3d6000fd5b505050506040513d601f19601f820116820180604052508101906110d79190612e9e565b905080156110f75760405162461bcd60e51b81526004016105f690612eb9565b6000610e67845b600080606660009054906101000a90046001600160a01b03166001600160a01b03166308cca7e36040518163ffffffff1660e01b8152600401602060405180830381865afa158015611154573d6000803e3d6000fd5b505050506040513d601f19601f820116820180604052508101906111789190612e71565b90506000816001600160a01b0316635c975abb6040518163ffffffff1660e01b8152600401602060405180830381865afa1580156111ba573d6000803e3d6000fd5b505050506040513d601f19601f820116820180604052508101906111de9190612e9e565b905080156111fe5760405162461bcd60e51b81526004016105f690612eb9565b6112083385611d9c565b949350505050565b3360008181526034602090815260408083206001600160a01b03871684529091528120549091906104ea908290869061124a9087906132ea565b6117ea565b60608061125a61250a565b61126261248e565b61126a610b6f565b90519051909590945092505050565b600080606660009054906101000a90046001600160a01b03166001600160a01b03166308cca7e36040518163ffffffff1660e01b8152600401602060405180830381865afa1580156112cf573d6000803e3d6000fd5b505050506040513d601f19601f820116820180604052508101906112f39190612e71565b90506000816001600160a01b0316635c975abb6040518163ffffffff1660e01b8152600401602060405180830381865afa158015611335573d6000803e3d6000fd5b505050506040513d601f19601f820116820180604052508101906113599190612e9e565b905080156113795760405162461bcd60e51b81526004016105f690612eb9565b600061138586336103f3565b9050848110156113e55760405162461bcd60e51b815260206004820152602560248201527f54434f323a2072657469726520616d6f756e74206578636565647320616c6c6f60448201526477616e636560d81b60648201526084016105f6565b6113f286338784036117ea565b6113fc8686611d9c565b9695505050505050565b606654604080516308cca7e360e01b815290516000926001600160a01b0316916308cca7e39160048083019260209291908290030181865afa158015611450573d6000803e3d6000fd5b505050506040513d601f19601f820116820180604052508101906114749190612e71565b90506000816001600160a01b0316635c975abb6040518163ffffffff1660e01b8152600401602060405180830381865afa1580156114b6573d6000803e3d6000fd5b505050506040513d601f19601f820116820180604052508101906114da9190612e9e565b905080156114fa5760405162461bcd60e51b81526004016105f690612eb9565b611505843385611fc9565b61150f8484612055565b50505050565b606080606061152261124f565b60405191935091506104c69083908390602001613302565b3360008181526034602090815260408083206001600160a01b0387168452909152812054909190838110156115bf5760405162461bcd60e51b815260206004820152602560248201527f45524332303a2064656372656173656420616c6c6f77616e63652062656c6f77604482015264207a65726f60d81b60648201526084016105f6565b6115cc82868684036117ea565b506001949350505050565b6000826001600160a01b0381166115ed57600080fd5b306001600160a01b0382160361160257600080fd5b606654604080516308cca7e360e01b815290516000926001600160a01b0316916308cca7e39160048083019260209291908290030181865afa15801561164c573d6000803e3d6000fd5b505050506040513d601f19601f820116820180604052508101906116709190612e71565b90506000816001600160a01b0316635c975abb6040518163ffffffff1660e01b8152600401602060405180830381865afa1580156116b2573d6000803e3d6000fd5b505050506040513d601f19601f820116820180604052508101906116d69190612e9e565b905080156116f65760405162461bcd60e51b81526004016105f690612eb9565b61170086866121a0565b5060019695505050505050565b600061171960016121ae565b90508015611731576000805461ff0019166101001790555b61173b858561222e565b60658390556066805473ffffffffffffffffffffffffffffffffffffffff19166001600160a01b03841617905580156117ae576000805461ff0019169055604051600181527f7f26b83ff96e1f2b6a682f133852f6798a09c465da95921460cefb38474024989060200160405180910390a15b5050505050565b6000806117c0610447565b90506117cb60355490565b6117d59082612f55565b91505090565b6001600160a01b03163b151590565b6001600160a01b03831661184c5760405162461bcd60e51b8152602060048201526024808201527f45524332303a20617070726f76652066726f6d20746865207a65726f206164646044820152637265737360e01b60648201526084016105f6565b6001600160a01b0382166118ad5760405162461bcd60e51b815260206004820152602260248201527f45524332303a20617070726f766520746f20746865207a65726f206164647265604482015261737360f01b60648201526084016105f6565b6001600160a01b0383811660008181526034602090815260408083209487168084529482529182902085905590518481527f8c5be1e5ebec7d5bd14f71427d1e84f3dd0314c0f7b2291e5b200ac8c7c3b92591015b60405180910390a3505050565b60665460408051634be4e3dd60e01b815290516000926001600160a01b031691634be4e3dd9160048083019260209291908290030181865afa158015611959573d6000803e3d6000fd5b505050506040513d601f19601f8201168201806040525081019061197d9190612e71565b6001600160a01b0316826001600160a01b03160361199d57506001919050565b506000919050565b919050565b6001600160a01b038216611a005760405162461bcd60e51b815260206004820152601f60248201527f45524332303a206d696e7420746f20746865207a65726f20616464726573730060448201526064016105f6565b8060356000828254611a1291906132ea565b90915550506001600160a01b03821660009081526033602052604081208054839290611a3f9084906132ea565b90915550506040518181526001600160a01b038316906000907fddf252ad1be2c89b69c2b068fc378daa952ba7f163c4a11628f55a4df523b3ef9060200160405180910390a35050565b33600090815260686020526040812080548391908390611aaa908490612f55565b909155505060665460408051635e20d0e160e01b815290516000926001600160a01b031691635e20d0e19160048083019260209291908290030181865afa158015611af9573d6000803e3d6000fd5b505050506040513d601f19601f82011682018060405250810190611b1d9190612e71565b6065546040516313ef24f760e11b8152336004820152602481019190915260448101859052600160648201529091506001600160a01b038216906327de49ee906084016020604051808303816000875af1158015611b7f573d6000803e3d6000fd5b505050506040513d601f19601f8201168201806040525081019061049a919061334f565b606654604080516308cca7e360e01b815290516000926001600160a01b0316916308cca7e39160048083019260209291908290030181865afa158015611bed573d6000803e3d6000fd5b505050506040513d601f19601f82011682018060405250810190611c119190612e71565b90506000816001600160a01b0316635c975abb6040518163ffffffff1660e01b8152600401602060405180830381865afa158015611c53573d6000803e3d6000fd5b505050506040513d601f19601f82011682018060405250810190611c779190612e9e565b90508015611c975760405162461bcd60e51b81526004016105f690612eb9565b60665460408051635e20d0e160e01b815290516000926001600160a01b031691635e20d0e19160048083019260209291908290030181865afa158015611ce1573d6000803e3d6000fd5b505050506040513d601f19601f82011682018060405250810190611d059190612e71565b60405163163c131960e01b81529091506001600160a01b0382169063163c131990611d449033908f908f908f908f908f908f908f908f90600401613391565b600060405180830381600087803b158015611d5e57600080fd5b505af1158015611d72573d6000803e3d6000fd5b505050505050505050505050505050565b600033611d91858285611fc9565b6115cc8585856122c0565b6000611da88383612055565b606654604080516308cca7e360e01b815290516000926001600160a01b0316916308cca7e39160048083019260209291908290030181865afa158015611df2573d6000803e3d6000fd5b505050506040513d601f19601f82011682018060405250810190611e169190612e71565b604051631e46922b60e31b8152600481018590529091506001600160a01b0382169063f234915890602401600060405180830381600087803b158015611e5b57600080fd5b505af1158015611e6f573d6000803e3d6000fd5b505050506000606660009054906101000a90046001600160a01b03166001600160a01b0316635e20d0e16040518163ffffffff1660e01b8152600401602060405180830381865afa158015611ec8573d6000803e3d6000fd5b505050506040513d601f19601f82011682018060405250810190611eec9190612e71565b6065546040516313ef24f760e11b81526001600160a01b038881166004830152602482019290925260448101879052600060648201529192508216906327de49ee906084016020604051808303816000875af1158015611f50573d6000803e3d6000fd5b505050506040513d601f19601f82011682018060405250810190611f74919061334f565b604080516001600160a01b0388168152602081018790529081018290529093507fb3775f672e1adf43bf7834b692675bfee4db72f83e42da8cff694ca295a89eca9060600160405180910390a1505092915050565b6001600160a01b03838116600090815260346020908152604080832093861683529290522054600019811461150f57818110156120485760405162461bcd60e51b815260206004820152601d60248201527f45524332303a20696e73756666696369656e7420616c6c6f77616e636500000060448201526064016105f6565b61150f84848484036117ea565b6001600160a01b0382166120b55760405162461bcd60e51b815260206004820152602160248201527f45524332303a206275726e2066726f6d20746865207a65726f206164647265736044820152607360f81b60648201526084016105f6565b6001600160a01b038216600090815260336020526040902054818110156121295760405162461bcd60e51b815260206004820152602260248201527f45524332303a206275726e20616d6f756e7420657863656564732062616c616e604482015261636560f01b60648201526084016105f6565b6001600160a01b0383166000908152603360205260408120838303905560358054849290612158908490612f55565b90915550506040518281526000906001600160a01b038516907fddf252ad1be2c89b69c2b068fc378daa952ba7f163c4a11628f55a4df523b3ef90602001611902565b505050565b6000336104ea8185856122c0565b60008054610100900460ff16156121ed578160ff1660011480156121d15750303b155b61199d5760405162461bcd60e51b81526004016105f690613430565b60005460ff8084169116106122145760405162461bcd60e51b81526004016105f690613430565b506000805460ff191660ff92909216919091179055600190565b600054610100900460ff166122995760405162461bcd60e51b815260206004820152602b60248201527f496e697469616c697a61626c653a20636f6e7472616374206973206e6f74206960448201526a6e697469616c697a696e6760a81b60648201526084016105f6565b81516122ac906036906020850190612566565b50805161219b906037906020840190612566565b6001600160a01b0383166123245760405162461bcd60e51b815260206004820152602560248201527f45524332303a207472616e736665722066726f6d20746865207a65726f206164604482015264647265737360d81b60648201526084016105f6565b6001600160a01b0382166123865760405162461bcd60e51b815260206004820152602360248201527f45524332303a207472616e7366657220746f20746865207a65726f206164647260448201526265737360e81b60648201526084016105f6565b6001600160a01b038316600090815260336020526040902054818110156123fe5760405162461bcd60e51b815260206004820152602660248201527f45524332303a207472616e7366657220616d6f756e7420657863656564732062604482015265616c616e636560d01b60648201526084016105f6565b6001600160a01b038085166000908152603360205260408082208585039055918516815290812080548492906124359084906132ea565b92505081905550826001600160a01b0316846001600160a01b03167fddf252ad1be2c89b69c2b068fc378daa952ba7f163c4a11628f55a4df523b3ef8460405161248191815260200190565b60405180910390a361150f565b60405180610160016040528060608152602001600067ffffffffffffffff168152602001600067ffffffffffffffff16815260200160008152602001600067ffffffffffffffff168152602001600015158152602001600015158152602001606081526020016060815260200160608152602001606081525090565b60405180610140016040528060608152602001606081526020016060815260200160608152602001606081526020016060815260200160608152602001606081526020016060815260200160006001600160a01b031681525090565b8280546125729061347e565b90600052602060002090601f01602090048101928261259457600085556125da565b82601f106125ad57805160ff19168380011785556125da565b828001600101855582156125da579182015b828111156125da5782518255916020019190600101906125bf565b506125e69291506125ea565b5090565b5b808211156125e657600081556001016125eb565b60005b8381101561261a578181015183820152602001612602565b8381111561150f5750506000910152565b600081518084526126438160208601602086016125ff565b601f01601f19169290920160200192915050565b60208152600061049a602083018461262b565b6001600160a01b038116811461267f57600080fd5b50565b6000806040838503121561269557600080fd5b82356126a08161266a565b946020939093013593505050565b60008083601f8401126126c057600080fd5b50813567ffffffffffffffff8111156126d857600080fd5b6020830191508360208285010111156126f057600080fd5b9250929050565b60008060008060006080868803121561270f57600080fd5b853561271a8161266a565b9450602086013561272a8161266a565b935060408601359250606086013567ffffffffffffffff81111561274d57600080fd5b612759888289016126ae565b969995985093965092949392505050565b600061016082518185526127808286018261262b565b915050602083015161279e602086018267ffffffffffffffff169052565b5060408301516127ba604086018267ffffffffffffffff169052565b506060830151606085015260808301516127e0608086018267ffffffffffffffff169052565b5060a08301516127f460a086018215159052565b5060c083015161280860c086018215159052565b5060e083015184820360e0860152612820828261262b565b915050610100808401518583038287015261283b838261262b565b925050506101208084015185830382870152612857838261262b565b9250505061014080840151858303828701526113fc838261262b565b604081526000835161014080604085015261289261018085018361262b565b91506020860151603f19808685030160608701526128b0848361262b565b935060408801519150808685030160808701526128cd848361262b565b935060608801519150808685030160a08701526128ea848361262b565b935060808801519150808685030160c0870152612907848361262b565b935060a08801519150808685030160e0870152612924848361262b565b935060c08801519150610100818786030181880152612943858461262b565b945060e08901519250610120828887030181890152612962868561262b565b9550818a0151935082888703018589015261297d868561262b565b9550808a015194505050505061299f6101608501826001600160a01b03169052565b5082810360208401526129b2818561276a565b95945050505050565b60008060008060008060008060a0898b0312156129d757600080fd5b883567ffffffffffffffff808211156129ef57600080fd5b6129fb8c838d016126ae565b909a50985060208b01359150612a108261266a565b90965060408a01359080821115612a2657600080fd5b612a328c838d016126ae565b909750955060608b0135915080821115612a4b57600080fd5b50612a588b828c016126ae565b999c989b50969995989497949560800135949350505050565b600080600060608486031215612a8657600080fd5b8335612a918161266a565b92506020840135612aa18161266a565b929592945050506040919091013590565b600060208284031215612ac457600080fd5b5035919050565b604081526000612ade604083018561262b565b82810360208401526129b2818561262b565b600060208284031215612b0257600080fd5b813561049a8161266a565b634e487b7160e01b600052604160045260246000fd5b604051610160810167ffffffffffffffff81118282101715612b4757612b47612b0d565b60405290565b604051610140810167ffffffffffffffff81118282101715612b4757612b47612b0d565b604051601f8201601f1916810167ffffffffffffffff81118282101715612b9a57612b9a612b0d565b604052919050565b600067ffffffffffffffff821115612bbc57612bbc612b0d565b50601f01601f191660200190565b600082601f830112612bdb57600080fd5b8135612bee612be982612ba2565b612b71565b818152846020838601011115612c0357600080fd5b816020850160208301376000918101602001919091529392505050565b60008060008060808587031215612c3657600080fd5b843567ffffffffffffffff80821115612c4e57600080fd5b612c5a88838901612bca565b95506020870135915080821115612c7057600080fd5b50612c7d87828801612bca565b935050604085013591506060850135612c958161266a565b939692955090935050565b60008060408385031215612cb357600080fd5b8235612cbe8161266a565b91506020830135612cce8161266a565b809150509250929050565b634e487b7160e01b600052601160045260246000fd5b600181815b80851115612d2a578160001904821115612d1057612d10612cd9565b80851615612d1d57918102915b93841c9390800290612cf4565b509250929050565b600082612d41575060016104f0565b81612d4e575060006104f0565b8160018114612d645760028114612d6e57612d8a565b60019150506104f0565b60ff841115612d7f57612d7f612cd9565b50506001821b6104f0565b5060208310610133831016604e8410600b8410161715612dad575081810a6104f0565b612db78383612cef565b8060001904821115612dcb57612dcb612cd9565b029392505050565b600061049a60ff841683612d32565b6000816000190483118215151615612dfc57612dfc612cd9565b500290565b7f546f7563616e2050726f746f636f6c3a2054434f322d00000000000000000000815260008351612e398160168501602088016125ff565b602d60f81b6016918401918201528351612e5a8160178401602088016125ff565b01601701949350505050565b80516119a58161266a565b600060208284031215612e8357600080fd5b815161049a8161266a565b805180151581146119a557600080fd5b600060208284031215612eb057600080fd5b61049a82612e8e565b6020808252600b908201526a2830bab9b2b2102a21a79960a91b604082015260600190565b600080600060608486031215612ef357600080fd5b8351925060208401519150604084015160038110612f1057600080fd5b809150509250925092565b634e487b7160e01b600052602160045260246000fd5b60008060408385031215612f4457600080fd5b505080516020909101519092909150565b600082821015612f6757612f67612cd9565b500390565b600082601f830112612f7d57600080fd5b8151612f8b612be982612ba2565b818152846020838601011115612fa057600080fd5b6112088260208301602087016125ff565b805167ffffffffffffffff811681146119a557600080fd5b600060208284031215612fdb57600080fd5b815167ffffffffffffffff80821115612ff357600080fd5b90830190610160828603121561300857600080fd5b613010612b23565b82518281111561301f57600080fd5b61302b87828601612f6c565b82525061303a60208401612fb1565b602082015261304b60408401612fb1565b60408201526060830151606082015261306660808401612fb1565b608082015261307760a08401612e8e565b60a082015261308860c08401612e8e565b60c082015260e08301518281111561309f57600080fd5b6130ab87828601612f6c565b60e08301525061010080840151838111156130c557600080fd5b6130d188828701612f6c565b82840152505061012080840151838111156130eb57600080fd5b6130f788828701612f6c565b828401525050610140808401518381111561311157600080fd5b61311d88828701612f6c565b918301919091525095945050505050565b60006020828403121561314057600080fd5b815167ffffffffffffffff8082111561315857600080fd5b90830190610140828603121561316d57600080fd5b613175612b4d565b82518281111561318457600080fd5b61319087828601612f6c565b8252506020830151828111156131a557600080fd5b6131b187828601612f6c565b6020830152506040830151828111156131c957600080fd5b6131d587828601612f6c565b6040830152506060830151828111156131ed57600080fd5b6131f987828601612f6c565b60608301525060808301518281111561321157600080fd5b61321d87828601612f6c565b60808301525060a08301518281111561323557600080fd5b61324187828601612f6c565b60a08301525060c08301518281111561325957600080fd5b61326587828601612f6c565b60c08301525060e08301518281111561327d57600080fd5b61328987828601612f6c565b60e08301525061010080840151838111156132a357600080fd5b6132af88828701612f6c565b82840152505061012091506132c5828401612e66565b91810191909152949350505050565b634e487b7160e01b600052603260045260246000fd5b600082198211156132fd576132fd612cd9565b500190565b6454434f322d60d81b8152600083516133228160058501602088016125ff565b602d60f81b60059184019182015283516133438160068401602088016125ff565b01600601949350505050565b60006020828403121561336157600080fd5b5051919050565b81835281816020850137506000828201602090810191909152601f909101601f19169091010190565b60006001600160a01b03808c168352602060c0818501526133b660c085018c8e613368565b828b16604086015284810360608601526133d1818a8c613368565b92505083820360808501526133e7828789613368565b84810360a0860152855180825282870193509082019060005b8181101561341c57845183529383019391830191600101613400565b50909e9d5050505050505050505050505050565b6020808252602e908201527f496e697469616c697a61626c653a20636f6e747261637420697320616c72656160408201526d191e481a5b9a5d1a585b1a5e995960921b606082015260800190565b600181811c9082168061349257607f821691505b6020821081036134b257634e487b7160e01b600052602260045260246000fd5b5091905056fea2646970667358221220e9c691f0547e3196e56df073b252f4af456bb6661c5cc12df3ea1515521b282164736f6c634300080e0033496e697469616c697a61626c653a20636f6e747261637420697320616c726561",
  "devdoc": {
    "details": "Each TCO2 contract is deployed via a Beacon Proxy in `ToucanCarbonOffsetsFactory`",
    "kind": "dev",
    "methods": {
      "allowance(address,address)": {
        "details": "See {IERC20-allowance}."
      },
      "approve(address,uint256)": {
        "details": "See {IERC20-approve}. NOTE: If `amount` is the maximum `uint256`, the allowance is not updated on `transferFrom`. This is semantically equivalent to an infinite approval. Requirements: - `spender` cannot be the zero address."
      },
      "balanceOf(address)": {
        "details": "See {IERC20-balanceOf}."
      },
      "burnFrom(address,uint256)": {
        "params": {
          "account": "The user for whom to burn TCO2",
          "amount": "The amount to burn"
        }
      },
      "constructor": {
        "custom:oz-upgrades-unsafe-allow": "constructor"
      },
      "decimals()": {
        "details": "Returns the number of decimals used to get its user representation. For example, if `decimals` equals `2`, a balance of `505` tokens should be displayed to a user as `5.05` (`505 / 10 ** 2`). Tokens usually opt for a value of 18, imitating the relationship between Ether and Wei. This is the value {ERC20} uses, unless this function is overridden; NOTE: This information is only used for _display_ purposes: it in no way affects any of the arithmetic of the contract, including {IERC20-balanceOf} and {IERC20-transfer}."
      },
      "decreaseAllowance(address,uint256)": {
        "details": "Atomically decreases the allowance granted to `spender` by the caller. This is an alternative to {approve} that can be used as a mitigation for problems described in {IERC20-approve}. Emits an {Approval} event indicating the updated allowance. Requirements: - `spender` cannot be the zero address. - `spender` must have allowance for the caller of at least `subtractedValue`."
      },
      "getAttributes()": {
        "details": "Function to get corresponding attributes from the CarbonProjects"
      },
      "getDepositCap()": {
        "details": "Returns the cap for TCO2s based on `totalVintageQuantity` Returns `~unlimited` if the value for the vintage is not set"
      },
      "getGlobalProjectVintageIdentifiers()": {
        "details": "Helper function to retrieve data fragments for `name()` and `symbol()`"
      },
      "getRemaining()": {
        "details": "Returns the remaining space in TCO2 contract before hitting the cap"
      },
      "increaseAllowance(address,uint256)": {
        "details": "Atomically increases the allowance granted to `spender` by the caller. This is an alternative to {approve} that can be used as a mitigation for problems described in {IERC20-approve}. Emits an {Approval} event indicating the updated allowance. Requirements: - `spender` cannot be the zero address."
      },
      "mintCertificateLegacy(string,address,string,string,uint256)": {
        "params": {
          "amount": "The amount to issue an NFT certificate for.",
          "beneficiary": "The beneficiary to set in the NFT.",
          "beneficiaryString": "The beneficiaryString to set in the NFT.",
          "retirementMessage": "The retirementMessage to set in the NFT.",
          "retiringEntityString": "An identifiable string for the retiring entity, eg. their name."
        }
      },
      "onERC721Received(address,address,uint256,bytes)": {
        "details": "Function is called with `operator` as `_msgSender()` in a reference implementation by OZ `from` is the previous owner, not necessarily the same as operator. The hook checks if NFT collection is whitelisted and next if attributes are matching this ERC20 contract"
      },
      "retireAndMintCertificate(string,address,string,string,uint256)": {
        "params": {
          "amount": "The amount to retire and issue an NFT certificate for.",
          "beneficiary": "The beneficiary to set in the NFT.",
          "beneficiaryString": "The beneficiaryString to set in the NFT.",
          "retirementMessage": "The retirementMessage to set in the NFT.",
          "retiringEntityString": "An identifiable string for the retiring entity, eg. their name."
        }
      },
      "retireFrom(address,uint256)": {
        "details": "Allow for pools or third party contracts to retire for the user Requires approval"
      },
      "totalSupply()": {
        "details": "See {IERC20-totalSupply}."
      },
      "version()": {
        "details": "Returns the current version of the smart contract"
      }
    },
    "version": 1
  },
  "userdoc": {
    "kind": "user",
    "methods": {
      "burnFrom(address,uint256)": {
        "notice": "Burn TCO2 on behalf of a user. msg.sender needs to be approved by the account for the burn to be successfull. This function is exposed so it can be utilized to burn credits without retiring them (eg. dispose HFC-23)."
      },
      "mintCertificateLegacy(string,address,string,string,uint256)": {
        "notice": "Mint an NFT showing how many tonnes of CO2 have been retired/cancelled amount is deprecated and used only for backwards-compatibility reasons Going forward users should mint NFT directly in the RetirementCertificates contract."
      },
      "name()": {
        "notice": "Token name getter overriden to return the a name based on the carbon project data"
      },
      "onERC721Received(address,address,uint256,bytes)": {
        "notice": "Receive hook to fractionalize Batch-NFTs into ERC20's"
      },
      "retire(uint256)": {
        "notice": "Retirement/Cancellation of TCO2 tokens (the actual offsetting), which results in the tokens being burnt"
      },
      "retireAndMintCertificate(string,address,string,string,uint256)": {
        "notice": "Retire an amount of TCO2s, register an retirement event then mint a certificate passing a single retirementEventId."
      },
      "symbol()": {
        "notice": "Token symbol getter overriden to return the a symbol based on the carbon project data"
      }
    },
    "notice": "Implementation contract of the TCO2 tokens (ERC20) These tokenized carbon offsets are specific to a vintage and its associated attributes In order to mint TCO2s a user must deposit a matching CarbonOffsetBatch",
    "version": 1
  },
  "storageLayout": {
    "storage": [
      {
        "astId": 932,
        "contract": "contracts/ToucanCarbonOffsets.sol:ToucanCarbonOffsets",
        "label": "_initialized",
        "offset": 0,
        "slot": "0",
        "type": "t_uint8"
      },
      {
        "astId": 935,
        "contract": "contracts/ToucanCarbonOffsets.sol:ToucanCarbonOffsets",
        "label": "_initializing",
        "offset": 1,
        "slot": "0",
        "type": "t_bool"
      },
      {
        "astId": 3977,
        "contract": "contracts/ToucanCarbonOffsets.sol:ToucanCarbonOffsets",
        "label": "__gap",
        "offset": 0,
        "slot": "1",
        "type": "t_array(t_uint256)50_storage"
      },
      {
        "astId": 1333,
        "contract": "contracts/ToucanCarbonOffsets.sol:ToucanCarbonOffsets",
        "label": "_balances",
        "offset": 0,
        "slot": "51",
        "type": "t_mapping(t_address,t_uint256)"
      },
      {
        "astId": 1339,
        "contract": "contracts/ToucanCarbonOffsets.sol:ToucanCarbonOffsets",
        "label": "_allowances",
        "offset": 0,
        "slot": "52",
        "type": "t_mapping(t_address,t_mapping(t_address,t_uint256))"
      },
      {
        "astId": 1341,
        "contract": "contracts/ToucanCarbonOffsets.sol:ToucanCarbonOffsets",
        "label": "_totalSupply",
        "offset": 0,
        "slot": "53",
        "type": "t_uint256"
      },
      {
        "astId": 1343,
        "contract": "contracts/ToucanCarbonOffsets.sol:ToucanCarbonOffsets",
        "label": "_name",
        "offset": 0,
        "slot": "54",
        "type": "t_string_storage"
      },
      {
        "astId": 1345,
        "contract": "contracts/ToucanCarbonOffsets.sol:ToucanCarbonOffsets",
        "label": "_symbol",
        "offset": 0,
        "slot": "55",
        "type": "t_string_storage"
      },
      {
        "astId": 1924,
        "contract": "contracts/ToucanCarbonOffsets.sol:ToucanCarbonOffsets",
        "label": "__gap",
        "offset": 0,
        "slot": "56",
        "type": "t_array(t_uint256)45_storage"
      },
      {
        "astId": 9266,
        "contract": "contracts/ToucanCarbonOffsets.sol:ToucanCarbonOffsets",
        "label": "projectVintageTokenId",
        "offset": 0,
        "slot": "101",
        "type": "t_uint256"
      },
      {
        "astId": 9268,
        "contract": "contracts/ToucanCarbonOffsets.sol:ToucanCarbonOffsets",
        "label": "contractRegistry",
        "offset": 0,
        "slot": "102",
        "type": "t_address"
      },
      {
        "astId": 9272,
        "contract": "contracts/ToucanCarbonOffsets.sol:ToucanCarbonOffsets",
        "label": "minterToId",
        "offset": 0,
        "slot": "103",
        "type": "t_mapping(t_address,t_uint256)"
      },
      {
        "astId": 9277,
        "contract": "contracts/ToucanCarbonOffsets.sol:ToucanCarbonOffsets",
        "label": "retiredAmount",
        "offset": 0,
        "slot": "104",
        "type": "t_mapping(t_address,t_uint256)"
      }
    ],
    "types": {
      "t_address": {
        "encoding": "inplace",
        "label": "address",
        "numberOfBytes": "20"
      },
      "t_array(t_uint256)45_storage": {
        "base": "t_uint256",
        "encoding": "inplace",
        "label": "uint256[45]",
        "numberOfBytes": "1440"
      },
      "t_array(t_uint256)50_storage": {
        "base": "t_uint256",
        "encoding": "inplace",
        "label": "uint256[50]",
        "numberOfBytes": "1600"
      },
      "t_bool": {
        "encoding": "inplace",
        "label": "bool",
        "numberOfBytes": "1"
      },
      "t_mapping(t_address,t_mapping(t_address,t_uint256))": {
        "encoding": "mapping",
        "key": "t_address",
        "label": "mapping(address => mapping(address => uint256))",
        "numberOfBytes": "32",
        "value": "t_mapping(t_address,t_uint256)"
      },
      "t_mapping(t_address,t_uint256)": {
        "encoding": "mapping",
        "key": "t_address",
        "label": "mapping(address => uint256)",
        "numberOfBytes": "32",
        "value": "t_uint256"
      },
      "t_string_storage": {
        "encoding": "bytes",
        "label": "string",
        "numberOfBytes": "32"
      },
      "t_uint256": {
        "encoding": "inplace",
        "label": "uint256",
        "numberOfBytes": "32"
      },
      "t_uint8": {
        "encoding": "inplace",
        "label": "uint8",
        "numberOfBytes": "1"
      }
    }
  }
}