{
  "address": "0xf2438A14f668b1bbA53408346288f3d7C71c10a1",
  "abi": [
    {
      "inputs": [],
      "stateMutability": "nonpayable",
      "type": "constructor"
    },
    {
      "anonymous": false,
      "inputs": [
        {
          "indexed": false,
          "internalType": "address",
          "name": "tco2",
          "type": "address"
        }
      ],
      "name": "AddFeeExemptedTCO2",
      "type": "event"
    },
    {
      "anonymous": false,
      "inputs": [
        {
          "indexed": false,
          "internalType": "address",
          "name": "previousAdmin",
          "type": "address"
        },
        {
          "indexed": false,
          "internalType": "address",
          "name": "newAdmin",
          "type": "address"
        }
      ],
      "name": "AdminChanged",
      "type": "event"
    },
    {
      "anonymous": false,
      "inputs": [
        {
          "indexed": true,
          "internalType": "address",
          "name": "owner",
          "type": "address"
        },
        {
          "indexed": true,
          "internalType": "address",
          "name": "spender",
          "type": "address"
        },
        {
          "indexed": false,
          "internalType": "uint256",
          "name": "value",
          "type": "uint256"
        }
      ],
      "name": "Approval",
      "type": "event"
    },
    {
      "anonymous": false,
      "inputs": [
        {
          "indexed": false,
          "internalType": "string",
          "name": "methodology",
          "type": "string"
        }
      ],
      "name": "AttributeMethodologyAdded",
      "type": "event"
    },
    {
      "anonymous": false,
      "inputs": [
        {
          "indexed": false,
          "internalType": "string",
          "name": "methodology",
          "type": "string"
        }
      ],
      "name": "AttributeMethodologyRemoved",
      "type": "event"
    },
    {
      "anonymous": false,
      "inputs": [
        {
          "indexed": false,
          "internalType": "string",
          "name": "region",
          "type": "string"
        }
      ],
      "name": "AttributeRegionAdded",
      "type": "event"
    },
    {
      "anonymous": false,
      "inputs": [
        {
          "indexed": false,
          "internalType": "string",
          "name": "region",
          "type": "string"
        }
      ],
      "name": "AttributeRegionRemoved",
      "type": "event"
    },
    {
      "anonymous": false,
      "inputs": [
        {
          "indexed": false,
          "internalType": "string",
          "name": "standard",
          "type": "string"
        }
      ],
      "name": "AttributeStandardAdded",
      "type": "event"
    },
    {
      "anonymous": false,
      "inputs": [
        {
          "indexed": false,
          "internalType": "string",
          "name": "standard",
          "type": "string"
        }
      ],
      "name": "AttributeStandardRemoved",
      "type": "event"
    },
    {
      "anonymous": false,
      "inputs": [
        {
          "indexed": true,
          "internalType": "address",
          "name": "beacon",
          "type": "address"
        }
      ],
      "name": "BeaconUpgraded",
      "type": "event"
    },
    {
      "anonymous": false,
      "inputs": [
        {
          "indexed": false,
          "internalType": "address",
          "name": "erc20Addr",
          "type": "address"
        },
        {
          "indexed": false,
          "internalType": "uint256",
          "name": "amount",
          "type": "uint256"
        }
      ],
      "name": "Deposited",
      "type": "event"
    },
    {
      "anonymous": false,
      "inputs": [
        {
          "indexed": false,
          "internalType": "address",
          "name": "erc20addr",
          "type": "address"
        }
      ],
      "name": "ExternalAddressRemovedFromWhitelist",
      "type": "event"
    },
    {
      "anonymous": false,
      "inputs": [
        {
          "indexed": false,
          "internalType": "address",
          "name": "erc20addr",
          "type": "address"
        }
      ],
      "name": "ExternalAddressWhitelisted",
      "type": "event"
    },
    {
      "anonymous": false,
      "inputs": [
        {
          "indexed": false,
          "internalType": "uint8",
          "name": "version",
          "type": "uint8"
        }
      ],
      "name": "Initialized",
      "type": "event"
    },
    {
      "anonymous": false,
      "inputs": [
        {
          "indexed": false,
          "internalType": "address",
          "name": "erc20addr",
          "type": "address"
        }
      ],
      "name": "InternalAddressBlacklisted",
      "type": "event"
    },
    {
      "anonymous": false,
      "inputs": [
        {
          "indexed": false,
          "internalType": "address",
          "name": "erc20addr",
          "type": "address"
        }
      ],
      "name": "InternalAddressRemovedFromBlackList",
      "type": "event"
    },
    {
      "anonymous": false,
      "inputs": [
        {
          "indexed": false,
          "internalType": "address",
          "name": "erc20addr",
          "type": "address"
        }
      ],
      "name": "InternalAddressRemovedFromWhitelist",
      "type": "event"
    },
    {
      "anonymous": false,
      "inputs": [
        {
          "indexed": false,
          "internalType": "address",
          "name": "erc20addr",
          "type": "address"
        }
      ],
      "name": "InternalAddressWhitelisted",
      "type": "event"
    },
    {
      "anonymous": false,
      "inputs": [
        {
          "indexed": false,
          "internalType": "string",
          "name": "mappingName",
          "type": "string"
        },
        {
          "indexed": false,
          "internalType": "bool",
          "name": "accepted",
          "type": "bool"
        }
      ],
      "name": "MappingSwitched",
      "type": "event"
    },
    {
      "anonymous": false,
      "inputs": [
        {
          "indexed": false,
          "internalType": "uint256",
          "name": "minimumVintageStartTime",
          "type": "uint256"
        }
      ],
      "name": "MinimumVintageStartTimeUpdated",
      "type": "event"
    },
    {
      "anonymous": false,
      "inputs": [
        {
          "indexed": true,
          "internalType": "address",
          "name": "previousOwner",
          "type": "address"
        },
        {
          "indexed": true,
          "internalType": "address",
          "name": "newOwner",
          "type": "address"
        }
      ],
      "name": "OwnershipTransferred",
      "type": "event"
    },
    {
      "anonymous": false,
      "inputs": [
        {
          "indexed": false,
          "internalType": "address",
          "name": "account",
          "type": "address"
        }
      ],
      "name": "Paused",
      "type": "event"
    },
    {
      "anonymous": false,
      "inputs": [
        {
          "indexed": false,
          "internalType": "address",
          "name": "redeemer",
          "type": "address"
        },
        {
          "indexed": false,
          "internalType": "uint256",
          "name": "fees",
          "type": "uint256"
        }
      ],
      "name": "RedeemFeeBurnt",
      "type": "event"
    },
    {
      "anonymous": false,
      "inputs": [
        {
          "indexed": false,
          "internalType": "address",
          "name": "redeemer",
          "type": "address"
        },
        {
          "indexed": false,
          "internalType": "uint256",
          "name": "fees",
          "type": "uint256"
        }
      ],
      "name": "RedeemFeePaid",
      "type": "event"
    },
    {
      "anonymous": false,
      "inputs": [
        {
          "indexed": false,
          "internalType": "address",
          "name": "account",
          "type": "address"
        },
        {
          "indexed": false,
          "internalType": "address",
          "name": "erc20",
          "type": "address"
        },
        {
          "indexed": false,
          "internalType": "uint256",
          "name": "amount",
          "type": "uint256"
        }
      ],
      "name": "Redeemed",
      "type": "event"
    },
    {
      "anonymous": false,
      "inputs": [
        {
          "indexed": false,
          "internalType": "address",
          "name": "tco2",
          "type": "address"
        }
      ],
      "name": "RemoveFeeExemptedTCO2",
      "type": "event"
    },
    {
      "anonymous": false,
      "inputs": [
        {
          "indexed": true,
          "internalType": "bytes32",
          "name": "role",
          "type": "bytes32"
        },
        {
          "indexed": true,
          "internalType": "bytes32",
          "name": "previousAdminRole",
          "type": "bytes32"
        },
        {
          "indexed": true,
          "internalType": "bytes32",
          "name": "newAdminRole",
          "type": "bytes32"
        }
      ],
      "name": "RoleAdminChanged",
      "type": "event"
    },
    {
      "anonymous": false,
      "inputs": [
        {
          "indexed": true,
          "internalType": "bytes32",
          "name": "role",
          "type": "bytes32"
        },
        {
          "indexed": true,
          "internalType": "address",
          "name": "account",
          "type": "address"
        },
        {
          "indexed": true,
          "internalType": "address",
          "name": "sender",
          "type": "address"
        }
      ],
      "name": "RoleGranted",
      "type": "event"
    },
    {
      "anonymous": false,
      "inputs": [
        {
          "indexed": true,
          "internalType": "bytes32",
          "name": "role",
          "type": "bytes32"
        },
        {
          "indexed": true,
          "internalType": "address",
          "name": "account",
          "type": "address"
        },
        {
          "indexed": true,
          "internalType": "address",
          "name": "sender",
          "type": "address"
        }
      ],
      "name": "RoleRevoked",
      "type": "event"
    },
    {
      "anonymous": false,
      "inputs": [
        {
          "indexed": false,
          "internalType": "address",
          "name": "router",
          "type": "address"
        }
      ],
      "name": "RouterUpdated",
      "type": "event"
    },
    {
      "anonymous": false,
      "inputs": [
        {
          "indexed": false,
          "internalType": "uint256",
          "name": "newCap",
          "type": "uint256"
        }
      ],
      "name": "SupplyCapUpdated",
      "type": "event"
    },
    {
      "anonymous": false,
      "inputs": [
        {
          "indexed": true,
          "internalType": "uint32",
          "name": "destinationDomain",
          "type": "uint32"
        },
        {
          "indexed": true,
          "internalType": "address",
          "name": "tco2",
          "type": "address"
        },
        {
          "indexed": false,
          "internalType": "uint256",
          "name": "amount",
          "type": "uint256"
        }
      ],
      "name": "TCO2Bridged",
      "type": "event"
    },
    {
      "anonymous": false,
      "inputs": [
        {
          "indexed": false,
          "internalType": "address[]",
          "name": "tco2s",
          "type": "address[]"
        }
      ],
      "name": "TCO2ScoringUpdated",
      "type": "event"
    },
    {
      "anonymous": false,
      "inputs": [
        {
          "indexed": false,
          "internalType": "address",
          "name": "ContractRegistry",
          "type": "address"
        }
      ],
      "name": "ToucanRegistrySet",
      "type": "event"
    },
    {
      "anonymous": false,
      "inputs": [
        {
          "indexed": true,
          "internalType": "address",
          "name": "from",
          "type": "address"
        },
        {
          "indexed": true,
          "internalType": "address",
          "name": "to",
          "type": "address"
        },
        {
          "indexed": false,
          "internalType": "uint256",
          "name": "value",
          "type": "uint256"
        }
      ],
      "name": "Transfer",
      "type": "event"
    },
    {
      "anonymous": false,
      "inputs": [
        {
          "indexed": false,
          "internalType": "address",
          "name": "account",
          "type": "address"
        }
      ],
      "name": "Unpaused",
      "type": "event"
    },
    {
      "anonymous": false,
      "inputs": [
        {
          "indexed": true,
          "internalType": "address",
          "name": "implementation",
          "type": "address"
        }
      ],
      "name": "Upgraded",
      "type": "event"
    },
    {
      "inputs": [],
      "name": "DEFAULT_ADMIN_ROLE",
      "outputs": [
        {
          "internalType": "bytes32",
          "name": "",
          "type": "bytes32"
        }
      ],
      "stateMutability": "view",
      "type": "function"
    },
    {
      "inputs": [],
      "name": "MANAGER_ROLE",
      "outputs": [
        {
          "internalType": "bytes32",
          "name": "",
          "type": "bytes32"
        }
      ],
      "stateMutability": "view",
      "type": "function"
    },
    {
      "inputs": [],
      "name": "PAUSER_ROLE",
      "outputs": [
        {
          "internalType": "bytes32",
          "name": "",
          "type": "bytes32"
        }
      ],
      "stateMutability": "view",
      "type": "function"
    },
    {
      "inputs": [],
      "name": "VERSION",
      "outputs": [
        {
          "internalType": "string",
          "name": "",
          "type": "string"
        }
      ],
      "stateMutability": "view",
      "type": "function"
    },
    {
      "inputs": [],
      "name": "VERSION_RELEASE_CANDIDATE",
      "outputs": [
        {
          "internalType": "uint256",
          "name": "",
          "type": "uint256"
        }
      ],
      "stateMutability": "view",
      "type": "function"
    },
    {
      "inputs": [
        {
          "internalType": "bool",
          "name": "addToList",
          "type": "bool"
        },
        {
          "internalType": "string[]",
          "name": "_regions",
          "type": "string[]"
        },
        {
          "internalType": "string[]",
          "name": "_standards",
          "type": "string[]"
        },
        {
          "internalType": "string[]",
          "name": "_methodologies",
          "type": "string[]"
        }
      ],
      "name": "addAttributes",
      "outputs": [],
      "stateMutability": "nonpayable",
      "type": "function"
    },
    {
      "inputs": [
        {
          "internalType": "address",
          "name": "_address",
          "type": "address"
        }
      ],
      "name": "addRedeemFeeExemptedAddress",
      "outputs": [],
      "stateMutability": "nonpayable",
      "type": "function"
    },
    {
      "inputs": [
        {
          "internalType": "address",
          "name": "_tco2",
          "type": "address"
        }
      ],
      "name": "addRedeemFeeExemptedTCO2",
      "outputs": [],
      "stateMutability": "nonpayable",
      "type": "function"
    },
    {
      "inputs": [
        {
          "internalType": "address[]",
          "name": "erc20Addr",
          "type": "address[]"
        }
      ],
      "name": "addToExternalWhiteList",
      "outputs": [],
      "stateMutability": "nonpayable",
      "type": "function"
    },
    {
      "inputs": [
        {
          "internalType": "address[]",
          "name": "erc20Addr",
          "type": "address[]"
        }
      ],
      "name": "addToInternalBlackList",
      "outputs": [],
      "stateMutability": "nonpayable",
      "type": "function"
    },
    {
      "inputs": [
        {
          "internalType": "address[]",
          "name": "erc20Addr",
          "type": "address[]"
        }
      ],
      "name": "addToInternalWhiteList",
      "outputs": [],
      "stateMutability": "nonpayable",
      "type": "function"
    },
    {
      "inputs": [
        {
          "internalType": "address",
          "name": "owner",
          "type": "address"
        },
        {
          "internalType": "address",
          "name": "spender",
          "type": "address"
        }
      ],
      "name": "allowance",
      "outputs": [
        {
          "internalType": "uint256",
          "name": "",
          "type": "uint256"
        }
      ],
      "stateMutability": "view",
      "type": "function"
    },
    {
      "inputs": [
        {
          "internalType": "address",
          "name": "spender",
          "type": "address"
        },
        {
          "internalType": "uint256",
          "name": "amount",
          "type": "uint256"
        }
      ],
      "name": "approve",
      "outputs": [
        {
          "internalType": "bool",
          "name": "",
          "type": "bool"
        }
      ],
      "stateMutability": "nonpayable",
      "type": "function"
    },
    {
      "inputs": [
        {
          "internalType": "address",
          "name": "account",
          "type": "address"
        }
      ],
      "name": "balanceOf",
      "outputs": [
        {
          "internalType": "uint256",
          "name": "",
          "type": "uint256"
        }
      ],
      "stateMutability": "view",
      "type": "function"
    },
    {
      "inputs": [
        {
          "internalType": "address",
          "name": "_account",
          "type": "address"
        },
        {
          "internalType": "uint256",
          "name": "_amount",
          "type": "uint256"
        }
      ],
      "name": "bridgeBurn",
      "outputs": [],
      "stateMutability": "nonpayable",
      "type": "function"
    },
    {
      "inputs": [
        {
          "internalType": "address",
          "name": "_account",
          "type": "address"
        },
        {
          "internalType": "uint256",
          "name": "_amount",
          "type": "uint256"
        }
      ],
      "name": "bridgeMint",
      "outputs": [],
      "stateMutability": "nonpayable",
      "type": "function"
    },
    {
      "inputs": [
        {
          "internalType": "uint32",
          "name": "destinationDomain",
          "type": "uint32"
        },
        {
          "internalType": "address[]",
          "name": "tco2s",
          "type": "address[]"
        },
        {
          "internalType": "uint256[]",
          "name": "amounts",
          "type": "uint256[]"
        }
      ],
      "name": "bridgeTCO2s",
      "outputs": [],
      "stateMutability": "payable",
      "type": "function"
    },
    {
      "inputs": [
        {
          "internalType": "address[]",
          "name": "tco2s",
          "type": "address[]"
        },
        {
          "internalType": "uint256[]",
          "name": "amounts",
          "type": "uint256[]"
        }
      ],
      "name": "calculateRedeemFees",
      "outputs": [
        {
          "internalType": "uint256",
          "name": "",
          "type": "uint256"
        }
      ],
      "stateMutability": "view",
      "type": "function"
    },
    {
      "inputs": [
        {
          "internalType": "address",
          "name": "erc20Addr",
          "type": "address"
        }
      ],
      "name": "checkAttributeMatching",
      "outputs": [
        {
          "internalType": "bool",
          "name": "",
          "type": "bool"
        }
      ],
      "stateMutability": "view",
      "type": "function"
    },
    {
      "inputs": [
        {
          "internalType": "address",
          "name": "erc20Addr",
          "type": "address"
        }
      ],
      "name": "checkEligible",
      "outputs": [
        {
          "internalType": "bool",
          "name": "",
          "type": "bool"
        }
      ],
      "stateMutability": "view",
      "type": "function"
    },
    {
      "inputs": [],
      "name": "contractRegistry",
      "outputs": [
        {
          "internalType": "address",
          "name": "",
          "type": "address"
        }
      ],
      "stateMutability": "view",
      "type": "function"
    },
    {
      "inputs": [],
      "name": "decimals",
      "outputs": [
        {
          "internalType": "uint8",
          "name": "",
          "type": "uint8"
        }
      ],
      "stateMutability": "view",
      "type": "function"
    },
    {
      "inputs": [
        {
          "internalType": "address",
          "name": "spender",
          "type": "address"
        },
        {
          "internalType": "uint256",
          "name": "subtractedValue",
          "type": "uint256"
        }
      ],
      "name": "decreaseAllowance",
      "outputs": [
        {
          "internalType": "bool",
          "name": "",
          "type": "bool"
        }
      ],
      "stateMutability": "nonpayable",
      "type": "function"
    },
    {
      "inputs": [
        {
          "internalType": "address",
          "name": "erc20Addr",
          "type": "address"
        },
        {
          "internalType": "uint256",
          "name": "amount",
          "type": "uint256"
        }
      ],
      "name": "deposit",
      "outputs": [],
      "stateMutability": "nonpayable",
      "type": "function"
    },
    {
      "inputs": [
        {
          "internalType": "address",
          "name": "",
          "type": "address"
        }
      ],
      "name": "externalWhiteList",
      "outputs": [
        {
          "internalType": "bool",
          "name": "",
          "type": "bool"
        }
      ],
      "stateMutability": "view",
      "type": "function"
    },
    {
      "inputs": [],
      "name": "feeRedeemBurnAddress",
      "outputs": [
        {
          "internalType": "address",
          "name": "",
          "type": "address"
        }
      ],
      "stateMutability": "view",
      "type": "function"
    },
    {
      "inputs": [],
      "name": "feeRedeemBurnPercentageInBase",
      "outputs": [
        {
          "internalType": "uint256",
          "name": "",
          "type": "uint256"
        }
      ],
      "stateMutability": "view",
      "type": "function"
    },
    {
      "inputs": [],
      "name": "feeRedeemDivider",
      "outputs": [
        {
          "internalType": "uint256",
          "name": "",
          "type": "uint256"
        }
      ],
      "stateMutability": "view",
      "type": "function"
    },
    {
      "inputs": [],
      "name": "feeRedeemPercentageInBase",
      "outputs": [
        {
          "internalType": "uint256",
          "name": "",
          "type": "uint256"
        }
      ],
      "stateMutability": "view",
      "type": "function"
    },
    {
      "inputs": [],
      "name": "feeRedeemReceiver",
      "outputs": [
        {
          "internalType": "address",
          "name": "",
          "type": "address"
        }
      ],
      "stateMutability": "view",
      "type": "function"
    },
    {
      "inputs": [],
      "name": "getRemaining",
      "outputs": [
        {
          "internalType": "uint256",
          "name": "",
          "type": "uint256"
        }
      ],
      "stateMutability": "view",
      "type": "function"
    },
    {
      "inputs": [
        {
          "internalType": "bytes32",
          "name": "role",
          "type": "bytes32"
        }
      ],
      "name": "getRoleAdmin",
      "outputs": [
        {
          "internalType": "bytes32",
          "name": "",
          "type": "bytes32"
        }
      ],
      "stateMutability": "view",
      "type": "function"
    },
    {
      "inputs": [],
      "name": "getScoredTCO2s",
      "outputs": [
        {
          "internalType": "address[]",
          "name": "",
          "type": "address[]"
        }
      ],
      "stateMutability": "view",
      "type": "function"
    },
    {
      "inputs": [
        {
          "internalType": "bytes32",
          "name": "role",
          "type": "bytes32"
        },
        {
          "internalType": "address",
          "name": "account",
          "type": "address"
        }
      ],
      "name": "grantRole",
      "outputs": [],
      "stateMutability": "nonpayable",
      "type": "function"
    },
    {
      "inputs": [
        {
          "internalType": "bytes32",
          "name": "role",
          "type": "bytes32"
        },
        {
          "internalType": "address",
          "name": "account",
          "type": "address"
        }
      ],
      "name": "hasRole",
      "outputs": [
        {
          "internalType": "bool",
          "name": "",
          "type": "bool"
        }
      ],
      "stateMutability": "view",
      "type": "function"
    },
    {
      "inputs": [
        {
          "internalType": "address",
          "name": "spender",
          "type": "address"
        },
        {
          "internalType": "uint256",
          "name": "addedValue",
          "type": "uint256"
        }
      ],
      "name": "increaseAllowance",
      "outputs": [
        {
          "internalType": "bool",
          "name": "",
          "type": "bool"
        }
      ],
      "stateMutability": "nonpayable",
      "type": "function"
    },
    {
      "inputs": [],
      "name": "initialize",
      "outputs": [],
      "stateMutability": "nonpayable",
      "type": "function"
    },
    {
      "inputs": [
        {
          "internalType": "address",
          "name": "",
          "type": "address"
        }
      ],
      "name": "internalBlackList",
      "outputs": [
        {
          "internalType": "bool",
          "name": "",
          "type": "bool"
        }
      ],
      "stateMutability": "view",
      "type": "function"
    },
    {
      "inputs": [
        {
          "internalType": "address",
          "name": "",
          "type": "address"
        }
      ],
      "name": "internalWhiteList",
      "outputs": [
        {
          "internalType": "bool",
          "name": "",
          "type": "bool"
        }
      ],
      "stateMutability": "view",
      "type": "function"
    },
    {
      "inputs": [
        {
          "internalType": "string",
          "name": "",
          "type": "string"
        }
      ],
      "name": "methodologies",
      "outputs": [
        {
          "internalType": "bool",
          "name": "",
          "type": "bool"
        }
      ],
      "stateMutability": "view",
      "type": "function"
    },
    {
      "inputs": [],
      "name": "methodologiesIsAcceptedMapping",
      "outputs": [
        {
          "internalType": "bool",
          "name": "",
          "type": "bool"
        }
      ],
      "stateMutability": "view",
      "type": "function"
    },
    {
      "inputs": [],
      "name": "minimumVintageStartTime",
      "outputs": [
        {
          "internalType": "uint64",
          "name": "",
          "type": "uint64"
        }
      ],
      "stateMutability": "view",
      "type": "function"
    },
    {
      "inputs": [],
      "name": "name",
      "outputs": [
        {
          "internalType": "string",
          "name": "",
          "type": "string"
        }
      ],
      "stateMutability": "view",
      "type": "function"
    },
    {
      "inputs": [],
      "name": "owner",
      "outputs": [
        {
          "internalType": "address",
          "name": "",
          "type": "address"
        }
      ],
      "stateMutability": "view",
      "type": "function"
    },
    {
      "inputs": [],
      "name": "pause",
      "outputs": [],
      "stateMutability": "nonpayable",
      "type": "function"
    },
    {
      "inputs": [],
      "name": "paused",
      "outputs": [
        {
          "internalType": "bool",
          "name": "",
          "type": "bool"
        }
      ],
      "stateMutability": "view",
      "type": "function"
    },
    {
      "inputs": [],
      "name": "proxiableUUID",
      "outputs": [
        {
          "internalType": "bytes32",
          "name": "",
          "type": "bytes32"
        }
      ],
      "stateMutability": "view",
      "type": "function"
    },
    {
      "inputs": [
        {
          "internalType": "address",
          "name": "tco2",
          "type": "address"
        },
        {
          "internalType": "uint256",
          "name": "amount",
          "type": "uint256"
        }
      ],
      "name": "redeemAndBurn",
      "outputs": [],
      "stateMutability": "nonpayable",
      "type": "function"
    },
    {
      "inputs": [
        {
          "internalType": "uint256",
          "name": "amount",
          "type": "uint256"
        }
      ],
      "name": "redeemAuto",
      "outputs": [],
      "stateMutability": "nonpayable",
      "type": "function"
    },
    {
      "inputs": [
        {
          "internalType": "uint256",
          "name": "amount",
          "type": "uint256"
        }
      ],
      "name": "redeemAuto2",
      "outputs": [
        {
          "internalType": "address[]",
          "name": "tco2s",
          "type": "address[]"
        },
        {
          "internalType": "uint256[]",
          "name": "amounts",
          "type": "uint256[]"
        }
      ],
      "stateMutability": "nonpayable",
      "type": "function"
    },
    {
      "inputs": [
        {
          "internalType": "address",
          "name": "",
          "type": "address"
        }
      ],
      "name": "redeemFeeExemptedAddresses",
      "outputs": [
        {
          "internalType": "bool",
          "name": "",
          "type": "bool"
        }
      ],
      "stateMutability": "view",
      "type": "function"
    },
    {
      "inputs": [
        {
          "internalType": "address",
          "name": "",
          "type": "address"
        }
      ],
      "name": "redeemFeeExemptedTCO2s",
      "outputs": [
        {
          "internalType": "bool",
          "name": "",
          "type": "bool"
        }
      ],
      "stateMutability": "view",
      "type": "function"
    },
    {
      "inputs": [
        {
          "internalType": "address[]",
          "name": "tco2s",
          "type": "address[]"
        },
        {
          "internalType": "uint256[]",
          "name": "amounts",
          "type": "uint256[]"
        }
      ],
      "name": "redeemMany",
      "outputs": [],
      "stateMutability": "nonpayable",
      "type": "function"
    },
    {
      "inputs": [
        {
          "internalType": "string",
          "name": "",
          "type": "string"
        }
      ],
      "name": "regions",
      "outputs": [
        {
          "internalType": "bool",
          "name": "",
          "type": "bool"
        }
      ],
      "stateMutability": "view",
      "type": "function"
    },
    {
      "inputs": [],
      "name": "regionsIsAcceptedMapping",
      "outputs": [
        {
          "internalType": "bool",
          "name": "",
          "type": "bool"
        }
      ],
      "stateMutability": "view",
      "type": "function"
    },
    {
      "inputs": [],
      "name": "reinitializeName",
      "outputs": [],
      "stateMutability": "nonpayable",
      "type": "function"
    },
    {
      "inputs": [
        {
          "internalType": "address[]",
          "name": "erc20Addr",
          "type": "address[]"
        }
      ],
      "name": "removeFromExternalWhiteList",
      "outputs": [],
      "stateMutability": "nonpayable",
      "type": "function"
    },
    {
      "inputs": [
        {
          "internalType": "address[]",
          "name": "erc20Addr",
          "type": "address[]"
        }
      ],
      "name": "removeFromInternalBlackList",
      "outputs": [],
      "stateMutability": "nonpayable",
      "type": "function"
    },
    {
      "inputs": [
        {
          "internalType": "address[]",
          "name": "erc20Addr",
          "type": "address[]"
        }
      ],
      "name": "removeFromInternalWhiteList",
      "outputs": [],
      "stateMutability": "nonpayable",
      "type": "function"
    },
    {
      "inputs": [
        {
          "internalType": "address",
          "name": "_address",
          "type": "address"
        }
      ],
      "name": "removeRedeemFeeExemptedAddress",
      "outputs": [],
      "stateMutability": "nonpayable",
      "type": "function"
    },
    {
      "inputs": [
        {
          "internalType": "address",
          "name": "_tco2",
          "type": "address"
        }
      ],
      "name": "removeRedeemFeeExemptedTCO2",
      "outputs": [],
      "stateMutability": "nonpayable",
      "type": "function"
    },
    {
      "inputs": [],
      "name": "renounceOwnership",
      "outputs": [],
      "stateMutability": "nonpayable",
      "type": "function"
    },
    {
      "inputs": [
        {
          "internalType": "bytes32",
          "name": "role",
          "type": "bytes32"
        },
        {
          "internalType": "address",
          "name": "account",
          "type": "address"
        }
      ],
      "name": "renounceRole",
      "outputs": [],
      "stateMutability": "nonpayable",
      "type": "function"
    },
    {
      "inputs": [
        {
          "internalType": "bytes32",
          "name": "role",
          "type": "bytes32"
        },
        {
          "internalType": "address",
          "name": "account",
          "type": "address"
        }
      ],
      "name": "revokeRole",
      "outputs": [],
      "stateMutability": "nonpayable",
      "type": "function"
    },
    {
      "inputs": [],
      "name": "router",
      "outputs": [
        {
          "internalType": "address",
          "name": "",
          "type": "address"
        }
      ],
      "stateMutability": "view",
      "type": "function"
    },
    {
      "inputs": [
        {
          "internalType": "uint256",
          "name": "",
          "type": "uint256"
        }
      ],
      "name": "scoredTCO2s",
      "outputs": [
        {
          "internalType": "address",
          "name": "",
          "type": "address"
        }
      ],
      "stateMutability": "view",
      "type": "function"
    },
    {
      "inputs": [
        {
          "internalType": "address",
          "name": "_feeRedeemBurnAddress",
          "type": "address"
        }
      ],
      "name": "setFeeRedeemBurnAddress",
      "outputs": [],
      "stateMutability": "nonpayable",
      "type": "function"
    },
    {
      "inputs": [
        {
          "internalType": "uint256",
          "name": "_feeRedeemBurnPercentageInBase",
          "type": "uint256"
        }
      ],
      "name": "setFeeRedeemBurnPercentage",
      "outputs": [],
      "stateMutability": "nonpayable",
      "type": "function"
    },
    {
      "inputs": [
        {
          "internalType": "uint256",
          "name": "_feeRedeemPercentageInBase",
          "type": "uint256"
        }
      ],
      "name": "setFeeRedeemPercentage",
      "outputs": [],
      "stateMutability": "nonpayable",
      "type": "function"
    },
    {
      "inputs": [
        {
          "internalType": "address",
          "name": "_feeRedeemReceiver",
          "type": "address"
        }
      ],
      "name": "setFeeRedeemReceiver",
      "outputs": [],
      "stateMutability": "nonpayable",
      "type": "function"
    },
    {
      "inputs": [
        {
          "internalType": "uint64",
          "name": "_minimumVintageStartTime",
          "type": "uint64"
        }
      ],
      "name": "setMinimumVintageStartTime",
      "outputs": [],
      "stateMutability": "nonpayable",
      "type": "function"
    },
    {
      "inputs": [
        {
          "internalType": "address",
          "name": "_router",
          "type": "address"
        }
      ],
      "name": "setRouter",
      "outputs": [],
      "stateMutability": "nonpayable",
      "type": "function"
    },
    {
      "inputs": [
        {
          "internalType": "uint256",
          "name": "newCap",
          "type": "uint256"
        }
      ],
      "name": "setSupplyCap",
      "outputs": [],
      "stateMutability": "nonpayable",
      "type": "function"
    },
    {
      "inputs": [
        {
          "internalType": "address[]",
          "name": "tco2s",
          "type": "address[]"
        }
      ],
      "name": "setTCO2Scoring",
      "outputs": [],
      "stateMutability": "nonpayable",
      "type": "function"
    },
    {
      "inputs": [
        {
          "internalType": "address",
          "name": "_address",
          "type": "address"
        }
      ],
      "name": "setToucanContractRegistry",
      "outputs": [],
      "stateMutability": "nonpayable",
      "type": "function"
    },
    {
      "inputs": [
        {
          "internalType": "string",
          "name": "",
          "type": "string"
        }
      ],
      "name": "standards",
      "outputs": [
        {
          "internalType": "bool",
          "name": "",
          "type": "bool"
        }
      ],
      "stateMutability": "view",
      "type": "function"
    },
    {
      "inputs": [],
      "name": "standardsIsAcceptedMapping",
      "outputs": [
        {
          "internalType": "bool",
          "name": "",
          "type": "bool"
        }
      ],
      "stateMutability": "view",
      "type": "function"
    },
    {
      "inputs": [],
      "name": "supplyCap",
      "outputs": [
        {
          "internalType": "uint256",
          "name": "",
          "type": "uint256"
        }
      ],
      "stateMutability": "view",
      "type": "function"
    },
    {
      "inputs": [
        {
          "internalType": "bytes4",
          "name": "interfaceId",
          "type": "bytes4"
        }
      ],
      "name": "supportsInterface",
      "outputs": [
        {
          "internalType": "bool",
          "name": "",
          "type": "bool"
        }
      ],
      "stateMutability": "view",
      "type": "function"
    },
    {
      "inputs": [
        {
          "internalType": "string",
          "name": "_mappingName",
          "type": "string"
        },
        {
          "internalType": "bool",
          "name": "accepted",
          "type": "bool"
        }
      ],
      "name": "switchMapping",
      "outputs": [],
      "stateMutability": "nonpayable",
      "type": "function"
    },
    {
      "inputs": [],
      "name": "symbol",
      "outputs": [
        {
          "internalType": "string",
          "name": "",
          "type": "string"
        }
      ],
      "stateMutability": "view",
      "type": "function"
    },
    {
      "inputs": [
        {
          "internalType": "address",
          "name": "tco2",
          "type": "address"
        }
      ],
      "name": "tokenBalances",
      "outputs": [
        {
          "internalType": "uint256",
          "name": "",
          "type": "uint256"
        }
      ],
      "stateMutability": "view",
      "type": "function"
    },
    {
      "inputs": [],
      "name": "totalSupply",
      "outputs": [
        {
          "internalType": "uint256",
          "name": "",
          "type": "uint256"
        }
      ],
      "stateMutability": "view",
      "type": "function"
    },
    {
      "inputs": [
        {
          "internalType": "address",
          "name": "recipient",
          "type": "address"
        },
        {
          "internalType": "uint256",
          "name": "amount",
          "type": "uint256"
        }
      ],
      "name": "transfer",
      "outputs": [
        {
          "internalType": "bool",
          "name": "",
          "type": "bool"
        }
      ],
      "stateMutability": "nonpayable",
      "type": "function"
    },
    {
      "inputs": [
        {
          "internalType": "address",
          "name": "sender",
          "type": "address"
        },
        {
          "internalType": "address",
          "name": "recipient",
          "type": "address"
        },
        {
          "internalType": "uint256",
          "name": "amount",
          "type": "uint256"
        }
      ],
      "name": "transferFrom",
      "outputs": [
        {
          "internalType": "bool",
          "name": "",
          "type": "bool"
        }
      ],
      "stateMutability": "nonpayable",
      "type": "function"
    },
    {
      "inputs": [
        {
          "internalType": "address",
          "name": "newOwner",
          "type": "address"
        }
      ],
      "name": "transferOwnership",
      "outputs": [],
      "stateMutability": "nonpayable",
      "type": "function"
    },
    {
      "inputs": [],
      "name": "unpause",
      "outputs": [],
      "stateMutability": "nonpayable",
      "type": "function"
    },
    {
      "inputs": [
        {
          "internalType": "address",
          "name": "newImplementation",
          "type": "address"
        }
      ],
      "name": "upgradeTo",
      "outputs": [],
      "stateMutability": "nonpayable",
      "type": "function"
    },
    {
      "inputs": [
        {
          "internalType": "address",
          "name": "newImplementation",
          "type": "address"
        },
        {
          "internalType": "bytes",
          "name": "data",
          "type": "bytes"
        }
      ],
      "name": "upgradeToAndCall",
      "outputs": [],
      "stateMutability": "payable",
      "type": "function"
    }
  ],
  "numDeployments": 12,
  "solcInputHash": "379c4ece84ab323e665e6c5d2881b8bf",
  "bytecode": "0x60a0604052306080523480156200001557600080fd5b506200002062000026565b62000156565b6200003260ff62000035565b50565b60008054610100900460ff1615620000ce578160ff1660011480156200006e57506200006c306200014760201b620038651760201c565b155b620000c65760405162461bcd60e51b815260206004820152602e602482015260008051602062005f4783398151915260448201526d191e481a5b9a5d1a585b1a5e995960921b60648201526084015b60405180910390fd5b506000919050565b60005460ff8084169116106200012d5760405162461bcd60e51b815260206004820152602e602482015260008051602062005f4783398151915260448201526d191e481a5b9a5d1a585b1a5e995960921b6064820152608401620000bd565b506000805460ff191660ff92909216919091179055600190565b6001600160a01b03163b151590565b608051615db96200018e60003960008181611521015281816115610152818161201d0152818161205d01526121570152615db96000f3fe6080604052600436106104d65760003560e01c80638662522f11610281578063c0d786551161015a578063e63ab1e9116100cc578063f141b84f11610085578063f141b84f14610f98578063f2fde38b14610fba578063f3edb9ec14610fda578063f75991cd14611016578063f887ea4014611052578063ffa1ad741461107357600080fd5b8063e63ab1e914610e8e578063e882e37b14610ec2578063e9d131ad14610ee2578063ec87621c14610f02578063f06f510314610f36578063f138ac1614610f6757600080fd5b8063d80e05aa1161011e578063d80e05aa14610de1578063dc5f560e14610e01578063dd62ed3e14610e21578063dff0f52314610e41578063e07f744c14610e58578063e0d7cad914610e7857600080fd5b8063c0d7865514610d56578063c36a257314610d76578063d4e457ec14610d91578063d547741f14610dac578063d6a022b814610dcc57600080fd5b8063a217fddf116101f3578063abf410e5116101b7578063abf410e514610c9e578063b516f8cf14610cbf578063b6a3f59a14610cdf578063b704438814610cff578063bbe669eb14610d14578063bf2f870f14610d3457600080fd5b8063a217fddf14610c12578063a457c2d714610c27578063a7381a6414610c47578063a9059cbb14610c5e578063a9a484c514610c7e57600080fd5b80638dcb01ec116102455780638dcb01ec14610b465780638f770ad014610b6657806391d1485414610b7d57806395d89b4114610b9d578063963ff55e14610bb2578063a1631e4b14610bd257600080fd5b80638662522f14610a8c57806388c9cf6e14610ac857806389022e2e14610ae85780638c2a993e14610b085780638da5cb5b14610b2857600080fd5b806341dbbb2a116103b35780636ca0b0d71161032557806374f4f547116102e957806374f4f547146109e257806379255ddd14610a025780637966529d14610a225780638129fc1c14610a4257806381e48e9014610a575780638456cb5914610a7757600080fd5b80636ca0b0d7146109315780636dbb3102146109465780636fd2f1811461096657806370a0823114610997578063715018a6146109cd57600080fd5b80634f1ef286116103775780634f1ef28614610891578063523fba7f146108a457806352d1902d146108c457806354c9c970146108d95780635c975abb146108f95780635db44cef1461091157600080fd5b806341dbbb2a146107e35780634642547b1461080357806346518b0a1461082357806347e7ef24146108435780634c02cad11461086357600080fd5b80632b540f191161044c5780633659cfe6116104105780633659cfe61461073a578063395093511461075a57806339cd7a8a1461077a5780633a9a77ee1461079a5780633d2afced146107bb5780633f4ba83a146107ce57600080fd5b80632b540f191461068d5780632b554142146106be5780632f2ff15d146106de578063313ce567146106fe57806336568abe1461071a57600080fd5b80630e2d15ab1161049e5780630e2d15ab1461059457806318160ddd146105c557806320b167f9146105e457806323b872dd14610604578063248a9ca31461062457806324adbf4d1461065457600080fd5b806301ffc9a7146104db57806306fdde0314610510578063095ea7b3146105325780630b7d28c7146105525780630c0efecc14610574575b600080fd5b3480156104e757600080fd5b506104fb6104f6366004614db6565b6110a4565b60405190151581526020015b60405180910390f35b34801561051c57600080fd5b506105256110db565b6040516105079190614e38565b34801561053e57600080fd5b506104fb61054d366004614e60565b61116d565b34801561055e57600080fd5b5061057261056d366004614e8c565b611185565b005b34801561058057600080fd5b5061057261058f366004614ebe565b6111b2565b3480156105a057600080fd5b506104fb6105af366004614e8c565b6101a06020526000908152604090205460ff1681565b3480156105d157600080fd5b506035545b604051908152602001610507565b3480156105f057600080fd5b506105726105ff366004614edb565b61121d565b34801561061057600080fd5b506104fb61061f366004614ef4565b61122b565b34801561063057600080fd5b506105d661063f366004614edb565b600090815260fb602052604090206001015490565b34801561066057600080fd5b5061019c54610675906001600160a01b031681565b6040516001600160a01b039091168152602001610507565b34801561069957600080fd5b506104fb6106a8366004614e8c565b6101a26020526000908152604090205460ff1681565b3480156106ca57600080fd5b506105726106d936600461505e565b61124e565b3480156106ea57600080fd5b506105726106f9366004615118565b611474565b34801561070a57600080fd5b5060405160128152602001610507565b34801561072657600080fd5b50610572610735366004615118565b611499565b34801561074657600080fd5b50610572610755366004614e8c565b611517565b34801561076657600080fd5b506104fb610775366004614e60565b6115f6565b34801561078657600080fd5b506105726107953660046151d6565b611618565b3480156107a657600080fd5b5061019e54610675906001600160a01b031681565b6105726107c9366004615267565b61177b565b3480156107da57600080fd5b50610572611a5f565b3480156107ef57600080fd5b506105d66107fe36600461505e565b611a92565b34801561080f57600080fd5b5061057261081e366004614e8c565b611b6b565b34801561082f57600080fd5b5061057261083e3660046152f2565b611b95565b34801561084f57600080fd5b5061057261085e366004614e60565b611c70565b34801561086f57600080fd5b5061088361087e366004614edb565b611d33565b60405161050792919061536a565b61057261089f3660046153c1565b612013565b3480156108b057600080fd5b506105d66108bf366004614e8c565b6120df565b3480156108d057600080fd5b506105d661214a565b3480156108e557600080fd5b506105726108f43660046152f2565b6121fd565b34801561090557600080fd5b5060975460ff166104fb565b34801561091d57600080fd5b5061057261092c3660046152f2565b6122d8565b34801561093d57600080fd5b506105d6600181565b34801561095257600080fd5b50610572610961366004614e8c565b6123b3565b34801561097257600080fd5b506104fb610981366004614e8c565b6101996020526000908152604090205460ff1681565b3480156109a357600080fd5b506105d66109b2366004614e8c565b6001600160a01b031660009081526033602052604090205490565b3480156109d957600080fd5b50610572612410565b3480156109ee57600080fd5b506105726109fd366004614e60565b612474565b348015610a0e57600080fd5b50610572610a1d366004614edb565b612486565b348015610a2e57600080fd5b50610572610a3d3660046152f2565b6124d0565b348015610a4e57600080fd5b506105726125ab565b348015610a6357600080fd5b50610572610a723660046154a3565b612682565b348015610a8357600080fd5b50610572612add565b348015610a9857600080fd5b506104fb610aa736600461553d565b80516020818301810180516101948252928201919093012091525460ff1681565b348015610ad457600080fd5b50610572610ae33660046152f2565b612b0e565b348015610af457600080fd5b50610572610b03366004614e60565b612be9565b348015610b1457600080fd5b50610572610b23366004614e60565b612cb7565b348015610b3457600080fd5b506065546001600160a01b0316610675565b348015610b5257600080fd5b50610572610b613660046152f2565b612cc9565b348015610b7257600080fd5b506105d66101915481565b348015610b8957600080fd5b506104fb610b98366004615118565b612da4565b348015610ba957600080fd5b50610525612dcf565b348015610bbe57600080fd5b50610675610bcd366004614edb565b612dde565b348015610bde57600080fd5b5061019354610bfa90600160a01b90046001600160401b031681565b6040516001600160401b039091168152602001610507565b348015610c1e57600080fd5b506105d6600081565b348015610c3357600080fd5b506104fb610c42366004614e60565b612e09565b348015610c5357600080fd5b506105d661019f5481565b348015610c6a57600080fd5b506104fb610c79366004614e60565b612e8f565b348015610c8a57600080fd5b506104fb610c99366004614e8c565b612ea4565b348015610caa57600080fd5b5061019354610675906001600160a01b031681565b348015610ccb57600080fd5b50610572610cda366004614e8c565b6131a1565b348015610ceb57600080fd5b50610572610cfa366004614edb565b61320d565b348015610d0b57600080fd5b5061057261324b565b348015610d2057600080fd5b50610572610d2f366004615571565b613302565b348015610d4057600080fd5b50610d496133a1565b60405161050791906155b2565b348015610d6257600080fd5b50610572610d71366004614e8c565b613403565b348015610d8257600080fd5b50610195546104fb9060ff1681565b348015610d9d57600080fd5b50610197546104fb9060ff1681565b348015610db857600080fd5b50610572610dc7366004615118565b61345a565b348015610dd857600080fd5b506105d661347f565b348015610ded57600080fd5b50610572610dfc366004614e8c565b61349d565b348015610e0d57600080fd5b506104fb610e1c366004614e8c565b6134f7565b348015610e2d57600080fd5b506105d6610e3c3660046155c5565b613665565b348015610e4d57600080fd5b506105d661019d5481565b348015610e6457600080fd5b50610572610e73366004614e8c565b613690565b348015610e8457600080fd5b506105d661271081565b348015610e9a57600080fd5b506105d67f65d7a28e3265b37a6474929f336521b332c1681b933f6cb9f3376673440d862a81565b348015610ece57600080fd5b50610572610edd366004614e8c565b6136fc565b348015610eee57600080fd5b50610572610efd366004614edb565b613753565b348015610f0e57600080fd5b506105d67f241ecf16d79d0f8dbfb92cbc07fe17840425976cf0667f022fe9877caa831b0881565b348015610f4257600080fd5b506104fb610f51366004614e8c565b61019b6020526000908152604090205460ff1681565b348015610f7357600080fd5b506104fb610f82366004614e8c565b61019a6020526000908152604090205460ff1681565b348015610fa457600080fd5b50610193546104fb90600160e01b900460ff1681565b348015610fc657600080fd5b50610572610fd5366004614e8c565b61379d565b348015610fe657600080fd5b506104fb610ff536600461553d565b80516020818301810180516101968252928201919093012091525460ff1681565b34801561102257600080fd5b506104fb61103136600461553d565b80516020818301810180516101988252928201919093012091525460ff1681565b34801561105e57600080fd5b506101a354610675906001600160a01b031681565b34801561107f57600080fd5b50610525604051806040016040528060058152602001640312e362e360dc1b81525081565b60006001600160e01b03198216637965db0b60e01b14806110d557506301ffc9a760e01b6001600160e01b03198316145b92915050565b6060603680546110ea906155f3565b80601f0160208091040260200160405190810160405280929190818152602001828054611116906155f3565b80156111635780601f1061113857610100808354040283529160200191611163565b820191906000526020600020905b81548152906001019060200180831161114657829003601f168201915b5050505050905090565b60003361117b818585613874565b5060019392505050565b61118d613998565b6001600160a01b031660009081526101a060205260409020805460ff19166001179055565b6111ba613998565b610193805467ffffffffffffffff60a01b1916600160a01b6001600160401b038416908102919091179091556040519081527f87f670402a6c72fff3b60ba5223165f062b58d671871fc2c49ea96101fdd19a0906020015b60405180910390a150565b61122681611d33565b505050565b6000611236836139ee565b611241848484613a71565b50600190505b9392505050565b611256613a8a565b81518151604080518082019091526002815261189960f11b602082015290821461129c5760405162461bcd60e51b81526004016112939190614e38565b60405180910390fd5b5061019d543360009081526101a0602052604081205490919060ff1682805b8581101561138c576112e58882815181106112d8576112d861562d565b60200260200101516134f7565b508261133057612710848883815181106113015761130161562d565b60200260200101516113139190615659565b61131d9190615678565b9150611329828661569a565b9450611335565b600091505b61137c88828151811061134a5761134a61562d565b6020026020010151838984815181106113655761136561562d565b602002602001015161137791906156b2565b613aca565b611385816156c9565b90506112bb565b50831561146b57600061271061019f54866113a79190615659565b6113b19190615678565b90506113bd81866156b2565b61019c549095506113d7906001600160a01b031686612e8f565b5060408051338152602081018790527f3f89e1d936a29a8de9ae9040436992721a00bc63bbe3ca55692b95f0311640b2910160405180910390a180156114695761019e5461142e906001600160a01b031682612e8f565b5060408051338152602081018390527f932bd968974f0b6fa1cb59bf961f81d2e57b39332d311b413dceae17966387db910160405180910390a15b505b50505050505050565b600082815260fb602052604090206001015461148f81613b2e565b6112268383613b38565b6001600160a01b03811633146115095760405162461bcd60e51b815260206004820152602f60248201527f416363657373436f6e74726f6c3a2063616e206f6e6c792072656e6f756e636560448201526e103937b632b9903337b91039b2b63360891b6064820152608401611293565b6115138282613bbe565b5050565b6001600160a01b037f000000000000000000000000000000000000000000000000000000000000000016300361155f5760405162461bcd60e51b8152600401611293906156e2565b7f00000000000000000000000000000000000000000000000000000000000000006001600160a01b03166115a8600080516020615d3d833981519152546001600160a01b031690565b6001600160a01b0316146115ce5760405162461bcd60e51b81526004016112939061572e565b6115d781613c25565b604080516000808252602082019092526115f391839190613c2d565b50565b60003361117b8185856116098383613665565b611613919061569a565b613874565b611620613998565b6116498260405180604001604052806007815260200166726567696f6e7360c81b815250613d98565b15611685578061166857610193805460ff60e01b19169055600061167f565b610193805460ff60e01b1916600160e01b17905560015b5061173e565b6116b082604051806040016040528060098152602001687374616e646172647360b81b815250613d98565b156116df57806116cc57610195805460ff19169055600061167f565b610195805460ff1916600117905561173e565b61170e826040518060400160405280600d81526020016c6d6574686f646f6c6f6769657360981b815250613d98565b1561173e578061172a57610197805460ff19169055600061173c565b610197805460ff191660019081179091555b505b7fcdc35455a1217219a4240bb18a7d2978eb98208f22f7ec36d6a1381c28f9d0f5828260405161176f92919061577a565b60405180910390a15050565b6117a47f241ecf16d79d0f8dbfb92cbc07fe17840425976cf0667f022fe9877caa831b08613da4565b6040805180820190915260018152601960f91b60208201528390816117dc5760405162461bcd60e51b81526004016112939190614e38565b50604080518082019091526002815261189960f11b60208201528183146118165760405162461bcd60e51b81526004016112939190614e38565b506101a354604051635ed6513d60e11b815230600482015263ffffffff881660248201526001600160a01b0390911690600090829063bdaca27a906044016040805180830381865afa158015611870573d6000803e3d6000fd5b505050506040513d601f19601f8201168201806040525081019061189491906157a9565b8051604080518082019091526002815261313160f01b6020820152919250906001600160a01b0382166118da5760405162461bcd60e51b81526004016112939190614e38565b5060006118e78534615678565b905060005b85811015611a5257846001600160a01b031663d3f6c4f1838d8d8d868181106119175761191761562d565b905060200201602081019061192c9190614e8c565b8c8c8781811061193e5761193e61562d565b6040516001600160e01b031960e089901b16815263ffffffff9590951660048601526001600160a01b0393841660248601526020029190910135604484015250871660648201526084016000604051808303818588803b1580156119a157600080fd5b505af11580156119b5573d6000803e3d6000fd5b50505050508989828181106119cc576119cc61562d565b90506020020160208101906119e19190614e8c565b6001600160a01b03168b63ffffffff167f36d0f926f9bce41fb6e90938955b971cee6bbdfbce772aadd3d6c824f03727978a8a85818110611a2457611a2461562d565b90506020020135604051611a3a91815260200190565b60405180910390a3611a4b816156c9565b90506118ec565b5050505050505050505050565b611a887f65d7a28e3265b37a6474929f336521b332c1681b933f6cb9f3376673440d862a613da4565b611a90613e0a565b565b6000611a9c613a8a565b3360009081526101a0602052604090205460ff1615611abd575060006110d5565b82518251604080518082019091526002815261189960f11b6020820152908214611afa5760405162461bcd60e51b81526004016112939190614e38565b5061019d54600090815b83811015611b6057600061271083888481518110611b2457611b2461562d565b6020026020010151611b369190615659565b611b409190615678565b9050611b4c818561569a565b93505080611b59906156c9565b9050611b04565b509095945050505050565b611b73613998565b6001600160a01b031660009081526101a060205260409020805460ff19169055565b611b9d613998565b60005b81518110156115135760016101996000848481518110611bc257611bc261562d565b60200260200101516001600160a01b03166001600160a01b0316815260200190815260200160002060006101000a81548160ff0219169083151502179055507f29b8b184f4394a88477750516a3701dd0c9409451be78c24428bf5f827f527a5828281518110611c3457611c3461562d565b6020026020010151604051611c5891906001600160a01b0391909116815260200190565b60405180910390a1611c69816156c9565b9050611ba0565b611c78613a8a565b611c81826134f7565b506000611c8c61347f565b6040805180820190915260018152603360f81b602082015290915081611cc55760405162461bcd60e51b81526004016112939190614e38565b5080821115611cd2578091505b611cdc3383613e9d565b604080516001600160a01b0385168152602081018490527f2da466a7b24304f47e87fa2e1e5a81b9831ce54fec19055ce277ca2f39ba42c4910160405180910390a16112266001600160a01b038416333085613f88565b606080611d3e613a8a565b604080518082019091526002815261323160f01b602082015283611d755760405162461bcd60e51b81526004016112939190614e38565b506101a15460009081905b600086118015611d8f57508083105b15611efd5760006101a18481548110611daa57611daa61562d565b60009182526020822001546001600160a01b03169150611dc9826120df565b905060008115611df757818911611de05788611de2565b815b9050611dee818a6156b2565b98508460010194505b85600101955088600003611ef557846001600160401b03811115611e1d57611e1d614f35565b604051908082528060200260200182016040528015611e46578160200160208202803683370190505b509750846001600160401b03811115611e6157611e61614f35565b604051908082528060200260200182016040528015611e8a578160200160208202803683370190505b5096508288611e9a6001886156b2565b81518110611eaa57611eaa61562d565b6001600160a01b03909216602092830291909101909101528087611ecf6001886156b2565b81518110611edf57611edf61562d565b602002602001018181525050611ef58382613aca565b505050611d80565b604080518082019091526002815261313560f01b60208201528615611f355760405162461bcd60e51b81526004016112939190614e38565b506000915060005b611f486001856156b2565b81101561200a5760006101a18281548110611f6557611f6561562d565b60009182526020822001546001600160a01b03169150611f84826120df565b905080600003611f95575050611ffa565b81888681518110611fa857611fa861562d565b60200260200101906001600160a01b031690816001600160a01b03168152505080878681518110611fdb57611fdb61562d565b602002602001018181525050611ff18282613aca565b84600101945050505b612003816156c9565b9050611f3d565b50505050915091565b6001600160a01b037f000000000000000000000000000000000000000000000000000000000000000016300361205b5760405162461bcd60e51b8152600401611293906156e2565b7f00000000000000000000000000000000000000000000000000000000000000006001600160a01b03166120a4600080516020615d3d833981519152546001600160a01b031690565b6001600160a01b0316146120ca5760405162461bcd60e51b81526004016112939061572e565b6120d382613c25565b61151382826001613c2d565b6040516370a0823160e01b81523060048201526000906001600160a01b038316906370a0823190602401602060405180830381865afa158015612126573d6000803e3d6000fd5b505050506040513d601f19601f820116820180604052508101906110d59190615800565b6000306001600160a01b037f000000000000000000000000000000000000000000000000000000000000000016146121ea5760405162461bcd60e51b815260206004820152603860248201527f555550535570677261646561626c653a206d757374206e6f742062652063616c60448201527f6c6564207468726f7567682064656c656761746563616c6c00000000000000006064820152608401611293565b50600080516020615d3d83398151915290565b612205613998565b60005b815181101561151357600161019b600084848151811061222a5761222a61562d565b60200260200101516001600160a01b03166001600160a01b0316815260200190815260200160002060006101000a81548160ff0219169083151502179055507f43388d274033333ceb567d699874be067ce7411c2bfc989f8e623694c9b3284f82828151811061229c5761229c61562d565b60200260200101516040516122c091906001600160a01b0391909116815260200190565b60405180910390a16122d1816156c9565b9050612208565b6122e0613998565b60005b815181101561151357600061019b60008484815181106123055761230561562d565b60200260200101516001600160a01b03166001600160a01b0316815260200190815260200160002060006101000a81548160ff0219169083151502179055507fa7f25a7a7bea0a3fabbe5dc8b6176bd9a603925da390010a10998148c192b6708282815181106123775761237761562d565b602002602001015160405161239b91906001600160a01b0391909116815260200190565b60405180910390a16123ac816156c9565b90506122e3565b6123bb613998565b6001600160a01b03811660008181526101a26020908152604091829020805460ff1916600117905590519182527fbfe78aa03afab7296923112293cb902a2fe6df5a6d3d81e1933c652c4cf860f49101611212565b6065546001600160a01b0316331461246a5760405162461bcd60e51b815260206004820181905260248201527f4f776e61626c653a2063616c6c6572206973206e6f7420746865206f776e65726044820152606401611293565b611a906000613ff9565b61247c61404b565b6115138282614091565b61248e613998565b604080518082019091526002815261031360f41b602082015261271082106124c95760405162461bcd60e51b81526004016112939190614e38565b5061019f55565b6124d8613998565b60005b815181101561151357600061019960008484815181106124fd576124fd61562d565b60200260200101516001600160a01b03166001600160a01b0316815260200190815260200160002060006101000a81548160ff0219169083151502179055507f3c36656d3e8c3db21a1c7d0a7208d73387e15535964c44c30b20c45ab51b3c3882828151811061256f5761256f61562d565b602002602001015160405161259391906001600160a01b0391909116815260200190565b60405180910390a16125a4816156c9565b90506124db565b60006125b760016141eb565b905080156125cf576000805461ff0019166101001790555b6125d7614278565b6125df61429f565b6125e76142cf565b612635604051806040016040528060118152602001704261736520436172626f6e20546f6e6e6560781b815250604051806040016040528060038152602001621090d560ea1b815250614302565b612640600033613b38565b80156115f3576000805461ff0019169055604051600181527f7f26b83ff96e1f2b6a682f133852f6798a09c465da95921460cefb384740249890602001611212565b61268a613998565b60005b82518110156127f8578415156001036127465760016101968483815181106126b7576126b761562d565b60200260200101516040516126cc9190615819565b908152602001604051809103902060006101000a81548160ff0219169083151502179055507fa27e97999993c298fae0b7088ff732fe078cc1585665ee1554220b3cbe6317a98382815181106127245761272461562d565b60200260200101516040516127399190614e38565b60405180910390a16127e8565b600061019684838151811061275d5761275d61562d565b60200260200101516040516127729190615819565b908152602001604051809103902060006101000a81548160ff0219169083151502179055507f0127ddc00426c693b5becb26ba43a260c781ebc323b61d3b24b61e4dc5c93c718382815181106127ca576127ca61562d565b60200260200101516040516127df9190614e38565b60405180910390a15b6127f1816156c9565b905061268d565b5060005b8151811015612967578415156001036128b55760016101988383815181106128265761282661562d565b602002602001015160405161283b9190615819565b908152602001604051809103902060006101000a81548160ff0219169083151502179055507f156643e9a7f860e95993739893595e6ee1d04d9ff1b98567dbe9d5681cd152b28282815181106128935761289361562d565b60200260200101516040516128a89190614e38565b60405180910390a1612957565b60006101988383815181106128cc576128cc61562d565b60200260200101516040516128e19190615819565b908152602001604051809103902060006101000a81548160ff0219169083151502179055507f21a77ac4edf49633047cc4e32b10dfe633811216214400e0e1f507c3f7287b618282815181106129395761293961562d565b602002602001015160405161294e9190614e38565b60405180910390a15b612960816156c9565b90506127fc565b5060005b8351811015612ad657841515600103612a245760016101948583815181106129955761299561562d565b60200260200101516040516129aa9190615819565b908152602001604051809103902060006101000a81548160ff0219169083151502179055507f3df7a1330febee3646ae4a0f0e46c94c046f0ee810b2b7f1fa10fa8f34d7b7ef848281518110612a0257612a0261562d565b6020026020010151604051612a179190614e38565b60405180910390a1612ac6565b6000610194858381518110612a3b57612a3b61562d565b6020026020010151604051612a509190615819565b908152602001604051809103902060006101000a81548160ff0219169083151502179055507fc84badb33408cce6e89b30a735d8f06e094fa4a19c01c2da66718f490c672f65848281518110612aa857612aa861562d565b6020026020010151604051612abd9190614e38565b60405180910390a15b612acf816156c9565b905061296b565b5050505050565b612b067f65d7a28e3265b37a6474929f336521b332c1681b933f6cb9f3376673440d862a613da4565b611a90614350565b612b16613998565b60005b815181101561151357600161019a6000848481518110612b3b57612b3b61562d565b60200260200101516001600160a01b03166001600160a01b0316815260200190815260200160002060006101000a81548160ff0219169083151502179055507f2e333bce7bf5a0097fbb4fef2a950809960b5a4aa1a63cbcffc24ac62dc4fd07828281518110612bad57612bad61562d565b6020026020010151604051612bd191906001600160a01b0391909116815260200190565b60405180910390a1612be2816156c9565b9050612b19565b612bf1613a8a565b6001600160a01b03821660009081526101a260209081526040918290205482518084019093526002835261313360f01b9183019190915260ff16612c485760405162461bcd60e51b81526004016112939190614e38565b50612c538282613aca565b60405163079cc67960e41b8152336004820152602481018290526001600160a01b038316906379cc679090604401600060405180830381600087803b158015612c9b57600080fd5b505af1158015612caf573d6000803e3d6000fd5b505050505050565b612cbf61404b565b6115138282613e9d565b612cd1613998565b60005b815181101561151357600061019a6000848481518110612cf657612cf661562d565b60200260200101516001600160a01b03166001600160a01b0316815260200190815260200160002060006101000a81548160ff0219169083151502179055507f9cee5064afac40e291311ecb6a670ef3ef652131fb1ed15c1266fb22cffd6bdd828281518110612d6857612d6861562d565b6020026020010151604051612d8c91906001600160a01b0391909116815260200190565b60405180910390a1612d9d816156c9565b9050612cd4565b600091825260fb602090815260408084206001600160a01b0393909316845291905290205460ff1690565b6060603780546110ea906155f3565b6101a18181548110612def57600080fd5b6000918252602090912001546001600160a01b0316905081565b60003381612e178286613665565b905083811015612e775760405162461bcd60e51b815260206004820152602560248201527f45524332303a2064656372656173656420616c6c6f77616e63652062656c6f77604482015264207a65726f60d81b6064820152608401611293565b612e848286868403613874565b506001949350505050565b6000612e9a836139ee565b61117b83836143cb565b6000612f0560405180610140016040528060608152602001606081526020016060815260200160608152602001606081526020016060815260200160608152602001606081526020016060815260200160006001600160a01b031681525090565b612f886040518061018001604052806060815260200160006001600160401b0316815260200160006001600160401b031681526020016000815260200160006001600160401b0316815260200160001515815260200160001515815260200160608152602001606081526020016060815260200160608152602001606081525090565b836001600160a01b031663152583de6040518163ffffffff1660e01b8152600401600060405180830381865afa158015612fc6573d6000803e3d6000fd5b505050506040513d6000823e601f3d908101601f19168201604052612fee91908101906159fa565b610193546020808301516040805180820190915260018152601b60f91b9281019290925293955091935090916001600160401b03600160a01b90920482169116101561304d5760405162461bcd60e51b81526004016112939190614e38565b50610193601c9054906101000a900460ff16151561019483606001516040516130769190615819565b9081526040805191829003602090810183205483830190925260018352603760f81b90830152909160ff9091161515146130c35760405162461bcd60e51b81526004016112939190614e38565b5061019554602083015160405160ff909216151591610196916130e591615819565b9081526040805191829003602090810183205483830190925260018352600760fb1b90830152909160ff9091161515146131325760405162461bcd60e51b81526004016112939190614e38565b5061019754604080840151905160ff9092161515916101989161315491615819565b9081526040805191829003602090810183205483830190925260018352603960f81b90830152909160ff909116151514612e845760405162461bcd60e51b81526004016112939190614e38565b6131a9613998565b604080518082019091526002815261313160f01b60208201526001600160a01b0382166131e95760405162461bcd60e51b81526004016112939190614e38565b5061019c80546001600160a01b0319166001600160a01b0392909216919091179055565b613215613998565b6101918190556040518181527f4e44c8be34d12f1b7f56b13b4bbe97e64ca37a91916f86c73412da80c21748e290602001611212565b60026000613258826141eb565b90508015613270576000805461ff0019166101001790555b6132be604051806040016040528060118152602001704261736520436172626f6e20546f6e6e6560781b815250604051806040016040528060038152602001621090d560ea1b815250614302565b8015611513576000805461ff001916905560405160ff831681527f7f26b83ff96e1f2b6a682f133852f6798a09c465da95921460cefb38474024989060200161176f565b61332b7f241ecf16d79d0f8dbfb92cbc07fe17840425976cf0667f022fe9877caa831b08613da4565b6040805180820190915260018152601960f91b6020820152816133615760405162461bcd60e51b81526004016112939190614e38565b5061336f6101a18383614cca565b507f9204d457ace303c5dbbeaa6966e5ec65661a390007a367c6645e52b4ef4b528e828260405161176f929190615bb7565b60606101a180548060200260200160405190810160405280929190818152602001828054801561116357602002820191906000526020600020905b81546001600160a01b031681526001909101906020018083116133dc575050505050905090565b61340b613998565b6101a380546001600160a01b0319166001600160a01b0383169081179091556040519081527f7aed1d3e8155a07ccf395e44ea3109a0e2d6c9b29bbbe9f142d9790596f4dc8090602001611212565b600082815260fb602052604090206001015461347581613b2e565b6112268383613bbe565b600061348a60355490565b6101915461349891906156b2565b905090565b6134a5613998565b6001600160a01b03811660008181526101a26020908152604091829020805460ff1916905590519182527fd1fc9d8986829d0ba9df2bc201a2c76327e0f71567b5a2fb82ba464bf4a03f449101611212565b61019354604051633a37b16d60e11b81526001600160a01b038381166004830152600092839291169063746f62da90602401602060405180830381865afa158015613546573d6000803e3d6000fd5b505050506040513d601f19601f8201168201806040525081019061356a9190615bfa565b90508015613604576001600160a01b038316600090815261019a602052604090205460ff161561359d5750600192915050565b6001600160a01b038316600090815261019b602090815260409182902054825180840190935260018352600d60fa1b9183019190915260ff16156135f45760405162461bcd60e51b81526004016112939190614e38565b506135fe83612ea4565b5061365c565b6001600160a01b0383166000908152610199602090815260409182902054825180840190935260018352603560f81b9183019190915260ff1661365a5760405162461bcd60e51b81526004016112939190614e38565b505b50600192915050565b6001600160a01b03918216600090815260346020908152604080832093909416825291909152205490565b613698613998565b604080518082019091526002815261313160f01b60208201526001600160a01b0382166136d85760405162461bcd60e51b81526004016112939190614e38565b5061019e80546001600160a01b0319166001600160a01b0392909216919091179055565b613704613998565b61019380546001600160a01b0319166001600160a01b0383169081179091556040519081527f86907b53cf2024579968511876daf0b4620d65803b550e33101baf70aeb6f5eb90602001611212565b61375b613998565b604080518082019091526002815261031360f41b602082015261271082106137965760405162461bcd60e51b81526004016112939190614e38565b5061019d55565b6065546001600160a01b031633146137f75760405162461bcd60e51b815260206004820181905260248201527f4f776e61626c653a2063616c6c6572206973206e6f7420746865206f776e65726044820152606401611293565b6001600160a01b03811661385c5760405162461bcd60e51b815260206004820152602660248201527f4f776e61626c653a206e6577206f776e657220697320746865207a65726f206160448201526564647265737360d01b6064820152608401611293565b6115f381613ff9565b6001600160a01b03163b151590565b6001600160a01b0383166138d65760405162461bcd60e51b8152602060048201526024808201527f45524332303a20617070726f76652066726f6d20746865207a65726f206164646044820152637265737360e01b6064820152608401611293565b6001600160a01b0382166139375760405162461bcd60e51b815260206004820152602260248201527f45524332303a20617070726f766520746f20746865207a65726f206164647265604482015261737360f01b6064820152608401611293565b6001600160a01b0383811660008181526034602090815260408083209487168084529482529182902085905590518481527f8c5be1e5ebec7d5bd14f71427d1e84f3dd0314c0f7b2291e5b200ac8c7c3b925910160405180910390a3505050565b336139ab6065546001600160a01b031690565b6001600160a01b03161460405180604001604052806002815260200161062760f31b815250906115f35760405162461bcd60e51b81526004016112939190614e38565b604080518082019091526002815261313960f01b60208201526001600160a01b038216613a2e5760405162461bcd60e51b81526004016112939190614e38565b50604080518082019091526002815261032360f41b60208201526001600160a01b03821630036115135760405162461bcd60e51b81526004016112939190614e38565b600033613a7f8582856143d9565b612e8485858561444d565b60975460ff1615604051806040016040528060028152602001610c4d60f21b815250906115f35760405162461bcd60e51b81526004016112939190614e38565b613ad43382614091565b613ae86001600160a01b0383163383614626565b604080513381526001600160a01b03841660208201529081018290527f27d4634c833b7622a0acddbf7f746183625f105945e95c723ad1d5a9f2a0b6fc9060600161176f565b6115f38133614656565b613b428282612da4565b61151357600082815260fb602090815260408083206001600160a01b03851684529091529020805460ff19166001179055613b7a3390565b6001600160a01b0316816001600160a01b0316837f2f8788117e7eff1d82e926ec794901d17c78024a50270940304540a733656f0d60405160405180910390a45050565b613bc88282612da4565b1561151357600082815260fb602090815260408083206001600160a01b0385168085529252808320805460ff1916905551339285917ff6391f5c32d9c69d2a47ea670b442974b53935d1edc7fd64eb21e047a839171b9190a45050565b6115f3613998565b7f4910fdfa16fed3260ed0e7147f7cc6da11a60208b5b9406d12a635614ffd91435460ff1615613c6057611226836146ba565b826001600160a01b03166352d1902d6040518163ffffffff1660e01b8152600401602060405180830381865afa925050508015613cba575060408051601f3d908101601f19168201909252613cb791810190615800565b60015b613d1d5760405162461bcd60e51b815260206004820152602e60248201527f45524331393637557067726164653a206e657720696d706c656d656e7461746960448201526d6f6e206973206e6f74205555505360901b6064820152608401611293565b600080516020615d3d8339815191528114613d8c5760405162461bcd60e51b815260206004820152602960248201527f45524331393637557067726164653a20756e737570706f727465642070726f786044820152681a58589b195555525160ba1b6064820152608401611293565b50611226838383614756565b6000611247838361477b565b613dae8133612da4565b80613dd2575033613dc76065546001600160a01b031690565b6001600160a01b0316145b604051806040016040528060018152602001603160f81b815250906115135760405162461bcd60e51b81526004016112939190614e38565b60975460ff16613e535760405162461bcd60e51b815260206004820152601460248201527314185d5cd8589b194e881b9bdd081c185d5cd95960621b6044820152606401611293565b6097805460ff191690557f5db9ee0a495bf2e6ff9c91a7834c1ba4fdd244a5e8aa4e537bd38aeae4b073aa335b6040516001600160a01b03909116815260200160405180910390a1565b6001600160a01b038216613ef35760405162461bcd60e51b815260206004820152601f60248201527f45524332303a206d696e7420746f20746865207a65726f2061646472657373006044820152606401611293565b613eff600083836147a0565b8060356000828254613f11919061569a565b90915550506001600160a01b03821660009081526033602052604081208054839290613f3e90849061569a565b90915550506040518181526001600160a01b038316906000907fddf252ad1be2c89b69c2b068fc378daa952ba7f163c4a11628f55a4df523b3ef9060200160405180910390a35050565b6040516001600160a01b0380851660248301528316604482015260648101829052613ff39085906323b872dd60e01b906084015b60408051601f198184030181529190526020810180516001600160e01b03166001600160e01b0319909316929092179091526147a8565b50505050565b606580546001600160a01b038381166001600160a01b0319831681179093556040519116919082907f8be0079c531659141344cd1fd0a4f28419497f9722a3daafe3b4186f6b6457e090600090a35050565b6101a354604080518082019091526002815261313760f01b6020820152906001600160a01b031633146115f35760405162461bcd60e51b81526004016112939190614e38565b6001600160a01b0382166140f15760405162461bcd60e51b815260206004820152602160248201527f45524332303a206275726e2066726f6d20746865207a65726f206164647265736044820152607360f81b6064820152608401611293565b6140fd826000836147a0565b6001600160a01b038216600090815260336020526040902054818110156141715760405162461bcd60e51b815260206004820152602260248201527f45524332303a206275726e20616d6f756e7420657863656564732062616c616e604482015261636560f01b6064820152608401611293565b6001600160a01b03831660009081526033602052604081208383039055603580548492906141a09084906156b2565b90915550506040518281526000906001600160a01b038516907fddf252ad1be2c89b69c2b068fc378daa952ba7f163c4a11628f55a4df523b3ef9060200160405180910390a3505050565b60008054610100900460ff1615614232578160ff16600114801561420e5750303b155b61422a5760405162461bcd60e51b815260040161129390615c17565b506000919050565b60005460ff8084169116106142595760405162461bcd60e51b815260040161129390615c17565b506000805460ff191660ff92909216919091179055600190565b919050565b600054610100900460ff16611a905760405162461bcd60e51b815260040161129390615c65565b600054610100900460ff166142c65760405162461bcd60e51b815260040161129390615c65565b611a9033613ff9565b600054610100900460ff166142f65760405162461bcd60e51b815260040161129390615c65565b6097805460ff19169055565b600054610100900460ff166143295760405162461bcd60e51b815260040161129390615c65565b815161433c906036906020850190614d2d565b508051611226906037906020840190614d2d565b60975460ff16156143965760405162461bcd60e51b815260206004820152601060248201526f14185d5cd8589b194e881c185d5cd95960821b6044820152606401611293565b6097805460ff191660011790557f62e78cea01bee320cd4e420270b5ea74000d11b0c9f74754ebdbfc544b05a258613e803390565b60003361117b81858561444d565b60006143e58484613665565b90506000198114613ff357818110156144405760405162461bcd60e51b815260206004820152601d60248201527f45524332303a20696e73756666696369656e7420616c6c6f77616e63650000006044820152606401611293565b613ff38484848403613874565b6001600160a01b0383166144b15760405162461bcd60e51b815260206004820152602560248201527f45524332303a207472616e736665722066726f6d20746865207a65726f206164604482015264647265737360d81b6064820152608401611293565b6001600160a01b0382166145135760405162461bcd60e51b815260206004820152602360248201527f45524332303a207472616e7366657220746f20746865207a65726f206164647260448201526265737360e81b6064820152608401611293565b61451e8383836147a0565b6001600160a01b038316600090815260336020526040902054818110156145965760405162461bcd60e51b815260206004820152602660248201527f45524332303a207472616e7366657220616d6f756e7420657863656564732062604482015265616c616e636560d01b6064820152608401611293565b6001600160a01b038085166000908152603360205260408082208585039055918516815290812080548492906145cd90849061569a565b92505081905550826001600160a01b0316846001600160a01b03167fddf252ad1be2c89b69c2b068fc378daa952ba7f163c4a11628f55a4df523b3ef8460405161461991815260200190565b60405180910390a3613ff3565b6040516001600160a01b03831660248201526044810182905261122690849063a9059cbb60e01b90606401613fbc565b6146608282612da4565b61151357614678816001600160a01b0316601461487a565b61468383602061487a565b604051602001614694929190615cb0565b60408051601f198184030181529082905262461bcd60e51b825261129391600401614e38565b6001600160a01b0381163b6147275760405162461bcd60e51b815260206004820152602d60248201527f455243313936373a206e657720696d706c656d656e746174696f6e206973206e60448201526c1bdd08184818dbdb9d1c9858dd609a1b6064820152608401611293565b600080516020615d3d83398151915280546001600160a01b0319166001600160a01b0392909216919091179055565b61475f83614a15565b60008251118061476c5750805b1561122657613ff38383614a55565b6000815183511480156112475750508051602091820120825192909101919091201490565b611226613a8a565b60006147fd826040518060400160405280602081526020017f5361666545524332303a206c6f772d6c6576656c2063616c6c206661696c6564815250856001600160a01b0316614b499092919063ffffffff16565b805190915015611226578080602001905181019061481b9190615bfa565b6112265760405162461bcd60e51b815260206004820152602a60248201527f5361666545524332303a204552433230206f7065726174696f6e20646964206e6044820152691bdd081cdd58d8d9595960b21b6064820152608401611293565b60606000614889836002615659565b61489490600261569a565b6001600160401b038111156148ab576148ab614f35565b6040519080825280601f01601f1916602001820160405280156148d5576020820181803683370190505b509050600360fc1b816000815181106148f0576148f061562d565b60200101906001600160f81b031916908160001a905350600f60fb1b8160018151811061491f5761491f61562d565b60200101906001600160f81b031916908160001a9053506000614943846002615659565b61494e90600161569a565b90505b60018111156149c6576f181899199a1a9b1b9c1cb0b131b232b360811b85600f16601081106149825761498261562d565b1a60f81b8282815181106149985761499861562d565b60200101906001600160f81b031916908160001a90535060049490941c936149bf81615d25565b9050614951565b5083156112475760405162461bcd60e51b815260206004820181905260248201527f537472696e67733a20686578206c656e67746820696e73756666696369656e746044820152606401611293565b614a1e816146ba565b6040516001600160a01b038216907fbc7cd75a20ee27fd9adebab32041f755214dbc6bffa90cc0225b39da2e5c2d3b90600090a250565b60606001600160a01b0383163b614abd5760405162461bcd60e51b815260206004820152602660248201527f416464726573733a2064656c65676174652063616c6c20746f206e6f6e2d636f6044820152651b9d1c9858dd60d21b6064820152608401611293565b600080846001600160a01b031684604051614ad89190615819565b600060405180830381855af49150503d8060008114614b13576040519150601f19603f3d011682016040523d82523d6000602084013e614b18565b606091505b5091509150614b408282604051806060016040528060278152602001615d5d60279139614b60565b95945050505050565b6060614b588484600085614b99565b949350505050565b60608315614b6f575081611247565b825115614b7f5782518084602001fd5b8160405162461bcd60e51b81526004016112939190614e38565b606082471015614bfa5760405162461bcd60e51b815260206004820152602660248201527f416464726573733a20696e73756666696369656e742062616c616e636520666f6044820152651c8818d85b1b60d21b6064820152608401611293565b6001600160a01b0385163b614c515760405162461bcd60e51b815260206004820152601d60248201527f416464726573733a2063616c6c20746f206e6f6e2d636f6e74726163740000006044820152606401611293565b600080866001600160a01b03168587604051614c6d9190615819565b60006040518083038185875af1925050503d8060008114614caa576040519150601f19603f3d011682016040523d82523d6000602084013e614caf565b606091505b5091509150614cbf828286614b60565b979650505050505050565b828054828255906000526020600020908101928215614d1d579160200282015b82811115614d1d5781546001600160a01b0319166001600160a01b03843516178255602090920191600190910190614cea565b50614d29929150614da1565b5090565b828054614d39906155f3565b90600052602060002090601f016020900481019282614d5b5760008555614d1d565b82601f10614d7457805160ff1916838001178555614d1d565b82800160010185558215614d1d579182015b82811115614d1d578251825591602001919060010190614d86565b5b80821115614d295760008155600101614da2565b600060208284031215614dc857600080fd5b81356001600160e01b03198116811461124757600080fd5b60005b83811015614dfb578181015183820152602001614de3565b83811115613ff35750506000910152565b60008151808452614e24816020860160208601614de0565b601f01601f19169290920160200192915050565b6020815260006112476020830184614e0c565b6001600160a01b03811681146115f357600080fd5b60008060408385031215614e7357600080fd5b8235614e7e81614e4b565b946020939093013593505050565b600060208284031215614e9e57600080fd5b813561124781614e4b565b6001600160401b03811681146115f357600080fd5b600060208284031215614ed057600080fd5b813561124781614ea9565b600060208284031215614eed57600080fd5b5035919050565b600080600060608486031215614f0957600080fd5b8335614f1481614e4b565b92506020840135614f2481614e4b565b929592945050506040919091013590565b634e487b7160e01b600052604160045260246000fd5b60405161018081016001600160401b0381118282101715614f6e57614f6e614f35565b60405290565b60405161014081016001600160401b0381118282101715614f6e57614f6e614f35565b604051601f8201601f191681016001600160401b0381118282101715614fbf57614fbf614f35565b604052919050565b60006001600160401b03821115614fe057614fe0614f35565b5060051b60200190565b600082601f830112614ffb57600080fd5b8135602061501061500b83614fc7565b614f97565b82815260059290921b8401810191818101908684111561502f57600080fd5b8286015b8481101561505357803561504681614e4b565b8352918301918301615033565b509695505050505050565b6000806040838503121561507157600080fd5b82356001600160401b038082111561508857600080fd5b61509486838701614fea565b93506020915081850135818111156150ab57600080fd5b85019050601f810186136150be57600080fd5b80356150cc61500b82614fc7565b81815260059190911b820183019083810190888311156150eb57600080fd5b928401925b82841015615109578335825292840192908401906150f0565b80955050505050509250929050565b6000806040838503121561512b57600080fd5b82359150602083013561513d81614e4b565b809150509250929050565b60006001600160401b0382111561516157615161614f35565b50601f01601f191660200190565b600061517d61500b84615148565b905082815283838301111561519157600080fd5b828260208301376000602084830101529392505050565b600082601f8301126151b957600080fd5b6112478383356020850161516f565b80151581146115f357600080fd5b600080604083850312156151e957600080fd5b82356001600160401b038111156151ff57600080fd5b61520b858286016151a8565b925050602083013561513d816151c8565b60008083601f84011261522e57600080fd5b5081356001600160401b0381111561524557600080fd5b6020830191508360208260051b850101111561526057600080fd5b9250929050565b60008060008060006060868803121561527f57600080fd5b853563ffffffff8116811461529357600080fd5b945060208601356001600160401b03808211156152af57600080fd5b6152bb89838a0161521c565b909650945060408801359150808211156152d457600080fd5b506152e18882890161521c565b969995985093965092949392505050565b60006020828403121561530457600080fd5b81356001600160401b0381111561531a57600080fd5b614b5884828501614fea565b600081518084526020808501945080840160005b8381101561535f5781516001600160a01b03168752958201959082019060010161533a565b509495945050505050565b60408152600061537d6040830185615326565b82810360208481019190915284518083528582019282019060005b818110156153b457845183529383019391830191600101615398565b5090979650505050505050565b600080604083850312156153d457600080fd5b82356153df81614e4b565b915060208301356001600160401b038111156153fa57600080fd5b8301601f8101851361540b57600080fd5b61541a8582356020840161516f565b9150509250929050565b600082601f83011261543557600080fd5b8135602061544561500b83614fc7565b82815260059290921b8401810191818101908684111561546457600080fd5b8286015b848110156150535780356001600160401b038111156154875760008081fd5b6154958986838b01016151a8565b845250918301918301615468565b600080600080608085870312156154b957600080fd5b84356154c4816151c8565b935060208501356001600160401b03808211156154e057600080fd5b6154ec88838901615424565b9450604087013591508082111561550257600080fd5b61550e88838901615424565b9350606087013591508082111561552457600080fd5b5061553187828801615424565b91505092959194509250565b60006020828403121561554f57600080fd5b81356001600160401b0381111561556557600080fd5b614b58848285016151a8565b6000806020838503121561558457600080fd5b82356001600160401b0381111561559a57600080fd5b6155a68582860161521c565b90969095509350505050565b6020815260006112476020830184615326565b600080604083850312156155d857600080fd5b82356155e381614e4b565b9150602083013561513d81614e4b565b600181811c9082168061560757607f821691505b60208210810361562757634e487b7160e01b600052602260045260246000fd5b50919050565b634e487b7160e01b600052603260045260246000fd5b634e487b7160e01b600052601160045260246000fd5b600081600019048311821515161561567357615673615643565b500290565b60008261569557634e487b7160e01b600052601260045260246000fd5b500490565b600082198211156156ad576156ad615643565b500190565b6000828210156156c4576156c4615643565b500390565b6000600182016156db576156db615643565b5060010190565b6020808252602c908201527f46756e6374696f6e206d7573742062652063616c6c6564207468726f7567682060408201526b19195b1959d85d1958d85b1b60a21b606082015260800190565b6020808252602c908201527f46756e6374696f6e206d7573742062652063616c6c6564207468726f7567682060408201526b6163746976652070726f787960a01b606082015260800190565b60408152600061578d6040830185614e0c565b905082151560208301529392505050565b805161427381614e4b565b6000604082840312156157bb57600080fd5b604051604081018181106001600160401b03821117156157dd576157dd614f35565b60405282516157eb81614e4b565b81526020928301519281019290925250919050565b60006020828403121561581257600080fd5b5051919050565b6000825161582b818460208701614de0565b9190910192915050565b600082601f83011261584657600080fd5b815161585461500b82615148565b81815284602083860101111561586957600080fd5b614b58826020830160208701614de0565b805161427381614ea9565b8051614273816151c8565b600061018082840312156158a357600080fd5b6158ab614f4b565b905081516001600160401b03808211156158c457600080fd5b6158d085838601615835565b83526158de6020850161587a565b60208401526158ef6040850161587a565b60408401526060840151606084015261590a6080850161587a565b608084015261591b60a08501615885565b60a084015261592c60c08501615885565b60c084015260e084015191508082111561594557600080fd5b61595185838601615835565b60e08401526101009150818401518181111561596c57600080fd5b61597886828701615835565b83850152506101209150818401518181111561599357600080fd5b61599f86828701615835565b8385015250610140915081840151818111156159ba57600080fd5b6159c686828701615835565b8385015250610160915081840151818111156159e157600080fd5b6159ed86828701615835565b8385015250505092915050565b60008060408385031215615a0d57600080fd5b82516001600160401b0380821115615a2457600080fd5b908401906101408287031215615a3957600080fd5b615a41614f74565b825182811115615a5057600080fd5b615a5c88828601615835565b825250602083015182811115615a7157600080fd5b615a7d88828601615835565b602083015250604083015182811115615a9557600080fd5b615aa188828601615835565b604083015250606083015182811115615ab957600080fd5b615ac588828601615835565b606083015250608083015182811115615add57600080fd5b615ae988828601615835565b60808301525060a083015182811115615b0157600080fd5b615b0d88828601615835565b60a08301525060c083015182811115615b2557600080fd5b615b3188828601615835565b60c08301525060e083015182811115615b4957600080fd5b615b5588828601615835565b60e0830152506101008084015183811115615b6f57600080fd5b615b7b89828701615835565b828401525050610120615b8f81850161579e565b908201526020860151909450915080821115615baa57600080fd5b5061541a85828601615890565b60208082528181018390526000908460408401835b86811015615053578235615bdf81614e4b565b6001600160a01b031682529183019190830190600101615bcc565b600060208284031215615c0c57600080fd5b8151611247816151c8565b6020808252602e908201527f496e697469616c697a61626c653a20636f6e747261637420697320616c72656160408201526d191e481a5b9a5d1a585b1a5e995960921b606082015260800190565b6020808252602b908201527f496e697469616c697a61626c653a20636f6e7472616374206973206e6f74206960408201526a6e697469616c697a696e6760a81b606082015260800190565b7f416363657373436f6e74726f6c3a206163636f756e7420000000000000000000815260008351615ce8816017850160208801614de0565b7001034b99036b4b9b9b4b733903937b6329607d1b6017918401918201528351615d19816028840160208801614de0565b01602801949350505050565b600081615d3457615d34615643565b50600019019056fe360894a13ba1a3210667c828492db98dca3e2076cc3735a920a3ca505d382bbc416464726573733a206c6f772d6c6576656c2064656c65676174652063616c6c206661696c6564a26469706673582212204aa263e8358a43238055427ee0bb312fb88e88304d9ddc93e3930793d09e27a964736f6c634300080e0033496e697469616c697a61626c653a20636f6e747261637420697320616c726561",
  "devdoc": {
    "kind": "dev",
    "methods": {
      "addAttributes(bool,string[],string[],string[])": {
        "params": {
          "addToList": "determines whether attribute should be added or removed Other params are arrays of attributes to be added"
        }
      },
      "addRedeemFeeExemptedAddress(address)": {
        "params": {
          "_address": "address to be exempted on redeem fees"
        }
      },
      "addRedeemFeeExemptedTCO2(address)": {
        "params": {
          "_tco2": "TCO2 to be exempted on redeem fees"
        }
      },
      "addToExternalWhiteList(address[])": {
        "params": {
          "erc20Addr": "accepts an array of contract addresses"
        }
      },
      "addToInternalBlackList(address[])": {
        "params": {
          "erc20Addr": "accepts an array of contract addresses"
        }
      },
      "addToInternalWhiteList(address[])": {
        "params": {
          "erc20Addr": "accepts an array of contract addresses"
        }
      },
      "allowance(address,address)": {
        "details": "See {IERC20-allowance}."
      },
      "approve(address,uint256)": {
        "details": "See {IERC20-approve}. NOTE: If `amount` is the maximum `uint256`, the allowance is not updated on `transferFrom`. This is semantically equivalent to an infinite approval. Requirements: - `spender` cannot be the zero address."
      },
      "balanceOf(address)": {
        "details": "See {IERC20-balanceOf}."
      },
      "bridgeBurn(address,uint256)": {
        "details": "invoked only by the ToucanCrosschainMessenger (Router)",
        "params": {
          "_account": "account that will be burned with corss-chain bridged tokens",
          "_amount": "amount of tokens that will be burned"
        }
      },
      "bridgeMint(address,uint256)": {
        "details": "invoked only by the ToucanCrosschainMessenger (Router)",
        "params": {
          "_account": "account that will be minted with corss-chain bridged tokens",
          "_amount": "amount of tokens that will be minted"
        }
      },
      "bridgeTCO2s(uint32,address[],uint256[])": {
        "params": {
          "amounts": "The amounts of TCO2s to bridge",
          "destinationDomain": "The domain to bridge TCO2s to",
          "tco2s": "The TCO2s to bridge"
        }
      },
      "calculateRedeemFees(address[],uint256[])": {
        "details": "User specifies in front-end the addresses and amounts they want",
        "params": {
          "amounts": "Array of amounts to redeem for each tco2s",
          "tco2s": "Array of TCO2 contract addresses"
        },
        "returns": {
          "_0": "Total fees amount"
        }
      },
      "constructor": {
        "custom:oz-upgrades-unsafe-allow": "constructor"
      },
      "decimals()": {
        "details": "Returns the number of decimals used to get its user representation. For example, if `decimals` equals `2`, a balance of `505` tokens should be displayed to a user as `5.05` (`505 / 10 ** 2`). Tokens usually opt for a value of 18, imitating the relationship between Ether and Wei. This is the value {ERC20} uses, unless this function is overridden; NOTE: This information is only used for _display_ purposes: it in no way affects any of the arithmetic of the contract, including {IERC20-balanceOf} and {IERC20-transfer}."
      },
      "decreaseAllowance(address,uint256)": {
        "details": "Atomically decreases the allowance granted to `spender` by the caller. This is an alternative to {approve} that can be used as a mitigation for problems described in {IERC20-approve}. Emits an {Approval} event indicating the updated allowance. Requirements: - `spender` cannot be the zero address. - `spender` must have allowance for the caller of at least `subtractedValue`."
      },
      "deposit(address,uint256)": {
        "details": "Eligibility is checked via `checkEligible`, balances are tracked for each TCO2 separately",
        "params": {
          "erc20Addr": "ERC20 contract address to be deposited, requires approve"
        }
      },
      "getRemaining()": {
        "details": "Returns the remaining space in pool before hitting the cap"
      },
      "getRoleAdmin(bytes32)": {
        "details": "Returns the admin role that controls `role`. See {grantRole} and {revokeRole}. To change a role's admin, use {_setRoleAdmin}."
      },
      "grantRole(bytes32,address)": {
        "details": "Grants `role` to `account`. If `account` had not been already granted `role`, emits a {RoleGranted} event. Requirements: - the caller must have ``role``'s admin role."
      },
      "hasRole(bytes32,address)": {
        "details": "Returns `true` if `account` has been granted `role`."
      },
      "increaseAllowance(address,uint256)": {
        "details": "Atomically increases the allowance granted to `spender` by the caller. This is an alternative to {approve} that can be used as a mitigation for problems described in {IERC20-approve}. Emits an {Approval} event indicating the updated allowance. Requirements: - `spender` cannot be the zero address."
      },
      "name()": {
        "details": "Returns the name of the token."
      },
      "owner()": {
        "details": "Returns the address of the current owner."
      },
      "pause()": {
        "details": "wraps _pause(), only Admin"
      },
      "paused()": {
        "details": "Returns true if the contract is paused, and false otherwise."
      },
      "proxiableUUID()": {
        "details": "Implementation of the ERC1822 {proxiableUUID} function. This returns the storage slot used by the implementation. It is used to validate that the this implementation remains valid after an upgrade. IMPORTANT: A proxy pointing at a proxiable contract should not be considered proxiable itself, because this risks bricking a proxy that upgrades to it, by delegating to itself until out of gas. Thus it is critical that this function revert if invoked through a proxy. This is guaranteed by the `notDelegated` modifier."
      },
      "redeemAndBurn(address,uint256)": {
        "details": "User needs to approve the pool contract in the TCO2 contract for the amount to be burnt before executing this function.",
        "params": {
          "amount": "Amount to redeem and burn",
          "tco2": "TCO2 to redeem and burn"
        }
      },
      "redeemAuto(uint256)": {
        "details": "BCT Pool tokens in user's wallet get burned",
        "params": {
          "amount": "Total amount to be redeemed"
        }
      },
      "redeemAuto2(uint256)": {
        "params": {
          "amount": "Total amount to be redeemed"
        },
        "returns": {
          "tco2s": "amounts The addresses and amounts of the TCO2s that were automatically redeemed"
        }
      },
      "redeemMany(address[],uint256[])": {
        "details": "User specifies in front-end the addresses and amounts they want",
        "params": {
          "amounts": "Array of amounts to redeem for each tco2s BCT Pool token in user's wallet get burned",
          "tco2s": "Array of TCO2 contract addresses"
        }
      },
      "removeFromExternalWhiteList(address[])": {
        "params": {
          "erc20Addr": "accepts an array of contract addresses"
        }
      },
      "removeFromInternalBlackList(address[])": {
        "params": {
          "erc20Addr": "accepts an array of contract addresses"
        }
      },
      "removeFromInternalWhiteList(address[])": {
        "params": {
          "erc20Addr": "accepts an array of contract addressesc"
        }
      },
      "removeRedeemFeeExemptedAddress(address)": {
        "params": {
          "_address": "address to be removed from exemption"
        }
      },
      "removeRedeemFeeExemptedTCO2(address)": {
        "params": {
          "_tco2": "TCO2 to be removed from exemption"
        }
      },
      "renounceOwnership()": {
        "details": "Leaves the contract without owner. It will not be possible to call `onlyOwner` functions anymore. Can only be called by the current owner. NOTE: Renouncing ownership will leave the contract without an owner, thereby removing any functionality that is only available to the owner."
      },
      "renounceRole(bytes32,address)": {
        "details": "Revokes `role` from the calling account. Roles are often managed via {grantRole} and {revokeRole}: this function's purpose is to provide a mechanism for accounts to lose their privileges if they are compromised (such as when a trusted device is misplaced). If the calling account had been revoked `role`, emits a {RoleRevoked} event. Requirements: - the caller must be `account`."
      },
      "revokeRole(bytes32,address)": {
        "details": "Revokes `role` from `account`. If `account` had been granted `role`, emits a {RoleRevoked} event. Requirements: - the caller must have ``role``'s admin role."
      },
      "setFeeRedeemBurnAddress(address)": {
        "params": {
          "_feeRedeemBurnAddress": "address to transfer the fees to burn"
        }
      },
      "setFeeRedeemBurnPercentage(uint256)": {
        "params": {
          "_feeRedeemBurnPercentageInBase": "percentage of fee in base"
        }
      },
      "setFeeRedeemPercentage(uint256)": {
        "params": {
          "_feeRedeemPercentageInBase": "percentage of fee in base"
        }
      },
      "setFeeRedeemReceiver(address)": {
        "params": {
          "_feeRedeemReceiver": "address to transfer the fees"
        }
      },
      "setMinimumVintageStartTime(uint64)": {
        "params": {
          "_minimumVintageStartTime": "unix time format"
        }
      },
      "setRouter(address)": {
        "details": "use this method to set router address",
        "params": {
          "_router": "address of ToucanCrosschainMessenger"
        }
      },
      "setSupplyCap(uint256)": {
        "details": "supplyCap is initially set to 0 and must be increased before deposits"
      },
      "setTCO2Scoring(address[])": {
        "params": {
          "tco2s": "array of ordered TCO2 addresses"
        }
      },
      "supportsInterface(bytes4)": {
        "details": "See {IERC165-supportsInterface}."
      },
      "switchMapping(string,bool)": {
        "params": {
          "_mappingName": "attribute mapping of project-vintage data",
          "accepted": "determines if mapping works as black or whitelist"
        }
      },
      "symbol()": {
        "details": "Returns the symbol of the token, usually a shorter version of the name."
      },
      "totalSupply()": {
        "details": "See {IERC20-totalSupply}."
      },
      "transferOwnership(address)": {
        "details": "Transfers ownership of the contract to a new account (`newOwner`). Can only be called by the current owner."
      },
      "unpause()": {
        "details": "unpause the system, wraps _unpause(), only Admin"
      },
      "upgradeTo(address)": {
        "details": "Upgrade the implementation of the proxy to `newImplementation`. Calls {_authorizeUpgrade}. Emits an {Upgraded} event."
      },
      "upgradeToAndCall(address,bytes)": {
        "details": "Upgrade the implementation of the proxy to `newImplementation`, and subsequently execute the function call encoded in `data`. Calls {_authorizeUpgrade}. Emits an {Upgraded} event."
      }
    },
    "stateVariables": {
      "feeRedeemDivider": {
        "details": "fees redeem percentage with 2 fixed decimals precision"
      }
    },
    "version": 1
  },
  "userdoc": {
    "kind": "user",
    "methods": {
      "addAttributes(bool,string[],string[],string[])": {
        "notice": "Function to add attributes for filtering (does not support complex AttributeSets)"
      },
      "addRedeemFeeExemptedAddress(address)": {
        "notice": "Adds a new address for redeem fees exemption"
      },
      "addRedeemFeeExemptedTCO2(address)": {
        "notice": "Adds a new TCO2 for redeem fees exemption"
      },
      "addToExternalWhiteList(address[])": {
        "notice": "Function to whitelist selected external non-TCO2 contracts by their address"
      },
      "addToInternalBlackList(address[])": {
        "notice": "Function to blacklist certain TCO2 contracts by their address"
      },
      "addToInternalWhiteList(address[])": {
        "notice": "Function to whitelist certain TCO2 contracts by their address"
      },
      "bridgeBurn(address,uint256)": {
        "notice": "burn tokens from account to be cross-chain bridged"
      },
      "bridgeMint(address,uint256)": {
        "notice": "mint tokens to receiver account that were cross-chain bridged"
      },
      "bridgeTCO2s(uint32,address[],uint256[])": {
        "notice": "Allows MANAGER or the owner to bridge TCO2s into another domain."
      },
      "calculateRedeemFees(address[],uint256[])": {
        "notice": "View function to calculate fees pre-execution"
      },
      "checkAttributeMatching(address)": {
        "notice": "checks whether incoming project-vintage-ERC20 token matches the accepted criteria/attributes"
      },
      "checkEligible(address)": {
        "notice": "Checks if token to be deposited is eligible for this pool"
      },
      "deposit(address,uint256)": {
        "notice": "Deposit function for BCT pool that accepts TCO2s and mints BCT 1:1"
      },
      "pause()": {
        "notice": "Emergency function to disable contract's core functionality"
      },
      "redeemAndBurn(address,uint256)": {
        "notice": "Redeem a whitelisted TCO2 without paying any fees and burn the TCO2. Initially added to burn HFC-23 credits, can be used in the future to dispose of any other whitelisted credits."
      },
      "redeemAuto(uint256)": {
        "notice": "Automatically redeems an amount of Pool tokens for underlying TCO2s from an array of ranked TCO2 contracts starting from contract at index 0 until amount is satisfied"
      },
      "redeemAuto2(uint256)": {
        "notice": "Automatically redeems an amount of Pool tokens for underlying TCO2s from an array of ranked TCO2 contracts starting from contract at index 0 until amount is satisfied."
      },
      "redeemFeeExemptedAddresses(address)": {
        "notice": "End users exempted from redeem fees"
      },
      "redeemFeeExemptedTCO2s(address)": {
        "notice": "TCO2s exempted from redeem fees"
      },
      "redeemMany(address[],uint256[])": {
        "notice": "Redeems Pool tokens for multiple underlying TCO2s 1:1 minus fees"
      },
      "removeFromExternalWhiteList(address[])": {
        "notice": "Function to remove ERC20 addresses from external whitelist"
      },
      "removeFromInternalBlackList(address[])": {
        "notice": "Function to remove TCO2 addresses from internal blacklist"
      },
      "removeFromInternalWhiteList(address[])": {
        "notice": "Function to remove TCO2 addresses from internal whitelist"
      },
      "removeRedeemFeeExemptedAddress(address)": {
        "notice": "Removes an address from redeem fees exemption"
      },
      "removeRedeemFeeExemptedTCO2(address)": {
        "notice": "Removes a TCO2 from redeem fees exemption"
      },
      "router()": {
        "notice": "bridge router who has access to the bridgeMint & bridgeBurn functions which mint/burn pool tokens for cross chain messenges"
      },
      "scoredTCO2s(uint256)": {
        "notice": "array used to read from when redeeming TCO2s automatically"
      },
      "setFeeRedeemBurnAddress(address)": {
        "notice": "Update the fee redeem burn address"
      },
      "setFeeRedeemBurnPercentage(uint256)": {
        "notice": "Update the fee redeem burn percentage"
      },
      "setFeeRedeemPercentage(uint256)": {
        "notice": "Update the fee redeem percentage"
      },
      "setFeeRedeemReceiver(address)": {
        "notice": "Update the fee redeem receiver"
      },
      "setMinimumVintageStartTime(uint64)": {
        "notice": "Determines the minimum vintage start time acceptance criteria of TCO2s"
      },
      "setRouter(address)": {
        "notice": "method to set router address"
      },
      "setSupplyCap(uint256)": {
        "notice": "Function to limit the maximum BCT supply"
      },
      "setTCO2Scoring(address[])": {
        "notice": "Allows MANAGERs or the owner to pass an array to hold TCO2 contract addesses that are ordered by some form of scoring mechanism"
      },
      "supplyCap()": {
        "notice": "The supply cap is used as a measure to guard deposits in the pool. It is meant to minimize the impact a potential compromise in the source registry (eg. Verra) can have to the pool."
      },
      "switchMapping(string,bool)": {
        "notice": "Generic function to switch attributes mappings into either acceptance or rejection criteria"
      },
      "tokenBalances(address)": {
        "notice": "Returns the balance of the TCO2 found in the pool"
      }
    },
    "notice": "Base Carbon Tonne for KlimaDAO Contract is an ERC20 compliant token that acts as a pool for TCO2 tokens It is possible to whitelist Toucan Protocol external tokenized carbon",
    "version": 1
  },
  "storageLayout": {
    "storage": [
      {
        "astId": 2390,
        "contract": "contracts/pools/BaseCarbonTonne.sol:BaseCarbonTonne",
        "label": "_initialized",
        "offset": 0,
        "slot": "0",
        "type": "t_uint8"
      },
      {
        "astId": 2393,
        "contract": "contracts/pools/BaseCarbonTonne.sol:BaseCarbonTonne",
        "label": "_initializing",
        "offset": 1,
        "slot": "0",
        "type": "t_bool"
      },
      {
        "astId": 5494,
        "contract": "contracts/pools/BaseCarbonTonne.sol:BaseCarbonTonne",
        "label": "__gap",
        "offset": 0,
        "slot": "1",
        "type": "t_array(t_uint256)50_storage"
      },
      {
        "astId": 2850,
        "contract": "contracts/pools/BaseCarbonTonne.sol:BaseCarbonTonne",
        "label": "_balances",
        "offset": 0,
        "slot": "51",
        "type": "t_mapping(t_address,t_uint256)"
      },
      {
        "astId": 2856,
        "contract": "contracts/pools/BaseCarbonTonne.sol:BaseCarbonTonne",
        "label": "_allowances",
        "offset": 0,
        "slot": "52",
        "type": "t_mapping(t_address,t_mapping(t_address,t_uint256))"
      },
      {
        "astId": 2858,
        "contract": "contracts/pools/BaseCarbonTonne.sol:BaseCarbonTonne",
        "label": "_totalSupply",
        "offset": 0,
        "slot": "53",
        "type": "t_uint256"
      },
      {
        "astId": 2860,
        "contract": "contracts/pools/BaseCarbonTonne.sol:BaseCarbonTonne",
        "label": "_name",
        "offset": 0,
        "slot": "54",
        "type": "t_string_storage"
      },
      {
        "astId": 2862,
        "contract": "contracts/pools/BaseCarbonTonne.sol:BaseCarbonTonne",
        "label": "_symbol",
        "offset": 0,
        "slot": "55",
        "type": "t_string_storage"
      },
      {
        "astId": 3441,
        "contract": "contracts/pools/BaseCarbonTonne.sol:BaseCarbonTonne",
        "label": "__gap",
        "offset": 0,
        "slot": "56",
        "type": "t_array(t_uint256)45_storage"
      },
      {
        "astId": 1881,
        "contract": "contracts/pools/BaseCarbonTonne.sol:BaseCarbonTonne",
        "label": "_owner",
        "offset": 0,
        "slot": "101",
        "type": "t_address"
      },
      {
        "astId": 1993,
        "contract": "contracts/pools/BaseCarbonTonne.sol:BaseCarbonTonne",
        "label": "__gap",
        "offset": 0,
        "slot": "102",
        "type": "t_array(t_uint256)49_storage"
      },
      {
        "astId": 2682,
        "contract": "contracts/pools/BaseCarbonTonne.sol:BaseCarbonTonne",
        "label": "_paused",
        "offset": 0,
        "slot": "151",
        "type": "t_bool"
      },
      {
        "astId": 2771,
        "contract": "contracts/pools/BaseCarbonTonne.sol:BaseCarbonTonne",
        "label": "__gap",
        "offset": 0,
        "slot": "152",
        "type": "t_array(t_uint256)49_storage"
      },
      {
        "astId": 5801,
        "contract": "contracts/pools/BaseCarbonTonne.sol:BaseCarbonTonne",
        "label": "__gap",
        "offset": 0,
        "slot": "201",
        "type": "t_array(t_uint256)50_storage"
      },
      {
        "astId": 1497,
        "contract": "contracts/pools/BaseCarbonTonne.sol:BaseCarbonTonne",
        "label": "_roles",
        "offset": 0,
        "slot": "251",
        "type": "t_mapping(t_bytes32,t_struct(RoleData)1492_storage)"
      },
      {
        "astId": 1796,
        "contract": "contracts/pools/BaseCarbonTonne.sol:BaseCarbonTonne",
        "label": "__gap",
        "offset": 0,
        "slot": "252",
        "type": "t_array(t_uint256)49_storage"
      },
      {
        "astId": 2372,
        "contract": "contracts/pools/BaseCarbonTonne.sol:BaseCarbonTonne",
        "label": "__gap",
        "offset": 0,
        "slot": "301",
        "type": "t_array(t_uint256)50_storage"
      },
      {
        "astId": 2660,
        "contract": "contracts/pools/BaseCarbonTonne.sol:BaseCarbonTonne",
        "label": "__gap",
        "offset": 0,
        "slot": "351",
        "type": "t_array(t_uint256)50_storage"
      },
      {
        "astId": 20714,
        "contract": "contracts/pools/BaseCarbonTonne.sol:BaseCarbonTonne",
        "label": "supplyCap",
        "offset": 0,
        "slot": "401",
        "type": "t_uint256"
      },
      {
        "astId": 20718,
        "contract": "contracts/pools/BaseCarbonTonne.sol:BaseCarbonTonne",
        "label": "DEPRECATED_tokenBalances",
        "offset": 0,
        "slot": "402",
        "type": "t_mapping(t_address,t_uint256)"
      },
      {
        "astId": 20720,
        "contract": "contracts/pools/BaseCarbonTonne.sol:BaseCarbonTonne",
        "label": "contractRegistry",
        "offset": 0,
        "slot": "403",
        "type": "t_address"
      },
      {
        "astId": 20722,
        "contract": "contracts/pools/BaseCarbonTonne.sol:BaseCarbonTonne",
        "label": "minimumVintageStartTime",
        "offset": 20,
        "slot": "403",
        "type": "t_uint64"
      },
      {
        "astId": 20725,
        "contract": "contracts/pools/BaseCarbonTonne.sol:BaseCarbonTonne",
        "label": "regionsIsAcceptedMapping",
        "offset": 28,
        "slot": "403",
        "type": "t_bool"
      },
      {
        "astId": 20729,
        "contract": "contracts/pools/BaseCarbonTonne.sol:BaseCarbonTonne",
        "label": "regions",
        "offset": 0,
        "slot": "404",
        "type": "t_mapping(t_string_memory_ptr,t_bool)"
      },
      {
        "astId": 20731,
        "contract": "contracts/pools/BaseCarbonTonne.sol:BaseCarbonTonne",
        "label": "standardsIsAcceptedMapping",
        "offset": 0,
        "slot": "405",
        "type": "t_bool"
      },
      {
        "astId": 20735,
        "contract": "contracts/pools/BaseCarbonTonne.sol:BaseCarbonTonne",
        "label": "standards",
        "offset": 0,
        "slot": "406",
        "type": "t_mapping(t_string_memory_ptr,t_bool)"
      },
      {
        "astId": 20737,
        "contract": "contracts/pools/BaseCarbonTonne.sol:BaseCarbonTonne",
        "label": "methodologiesIsAcceptedMapping",
        "offset": 0,
        "slot": "407",
        "type": "t_bool"
      },
      {
        "astId": 20741,
        "contract": "contracts/pools/BaseCarbonTonne.sol:BaseCarbonTonne",
        "label": "methodologies",
        "offset": 0,
        "slot": "408",
        "type": "t_mapping(t_string_memory_ptr,t_bool)"
      },
      {
        "astId": 20746,
        "contract": "contracts/pools/BaseCarbonTonne.sol:BaseCarbonTonne",
        "label": "externalWhiteList",
        "offset": 0,
        "slot": "409",
        "type": "t_mapping(t_address,t_bool)"
      },
      {
        "astId": 20751,
        "contract": "contracts/pools/BaseCarbonTonne.sol:BaseCarbonTonne",
        "label": "internalWhiteList",
        "offset": 0,
        "slot": "410",
        "type": "t_mapping(t_address,t_bool)"
      },
      {
        "astId": 20756,
        "contract": "contracts/pools/BaseCarbonTonne.sol:BaseCarbonTonne",
        "label": "internalBlackList",
        "offset": 0,
        "slot": "411",
        "type": "t_mapping(t_address,t_bool)"
      },
      {
        "astId": 20760,
        "contract": "contracts/pools/BaseCarbonTonne.sol:BaseCarbonTonne",
        "label": "feeRedeemReceiver",
        "offset": 0,
        "slot": "412",
        "type": "t_address"
      },
      {
        "astId": 20762,
        "contract": "contracts/pools/BaseCarbonTonne.sol:BaseCarbonTonne",
        "label": "feeRedeemPercentageInBase",
        "offset": 0,
        "slot": "413",
        "type": "t_uint256"
      },
      {
        "astId": 20765,
        "contract": "contracts/pools/BaseCarbonTonne.sol:BaseCarbonTonne",
        "label": "feeRedeemBurnAddress",
        "offset": 0,
        "slot": "414",
        "type": "t_address"
      },
      {
        "astId": 20768,
        "contract": "contracts/pools/BaseCarbonTonne.sol:BaseCarbonTonne",
        "label": "feeRedeemBurnPercentageInBase",
        "offset": 0,
        "slot": "415",
        "type": "t_uint256"
      },
      {
        "astId": 20774,
        "contract": "contracts/pools/BaseCarbonTonne.sol:BaseCarbonTonne",
        "label": "redeemFeeExemptedAddresses",
        "offset": 0,
        "slot": "416",
        "type": "t_mapping(t_address,t_bool)"
      },
      {
        "astId": 20778,
        "contract": "contracts/pools/BaseCarbonTonne.sol:BaseCarbonTonne",
        "label": "scoredTCO2s",
        "offset": 0,
        "slot": "417",
        "type": "t_array(t_address)dyn_storage"
      },
      {
        "astId": 20784,
        "contract": "contracts/pools/BaseCarbonTonne.sol:BaseCarbonTonne",
        "label": "redeemFeeExemptedTCO2s",
        "offset": 0,
        "slot": "418",
        "type": "t_mapping(t_address,t_bool)"
      },
      {
        "astId": 20788,
        "contract": "contracts/pools/BaseCarbonTonne.sol:BaseCarbonTonne",
        "label": "router",
        "offset": 0,
        "slot": "419",
        "type": "t_address"
      }
    ],
    "types": {
      "t_address": {
        "encoding": "inplace",
        "label": "address",
        "numberOfBytes": "20"
      },
      "t_array(t_address)dyn_storage": {
        "base": "t_address",
        "encoding": "dynamic_array",
        "label": "address[]",
        "numberOfBytes": "32"
      },
      "t_array(t_uint256)45_storage": {
        "base": "t_uint256",
        "encoding": "inplace",
        "label": "uint256[45]",
        "numberOfBytes": "1440"
      },
      "t_array(t_uint256)49_storage": {
        "base": "t_uint256",
        "encoding": "inplace",
        "label": "uint256[49]",
        "numberOfBytes": "1568"
      },
      "t_array(t_uint256)50_storage": {
        "base": "t_uint256",
        "encoding": "inplace",
        "label": "uint256[50]",
        "numberOfBytes": "1600"
      },
      "t_bool": {
        "encoding": "inplace",
        "label": "bool",
        "numberOfBytes": "1"
      },
      "t_bytes32": {
        "encoding": "inplace",
        "label": "bytes32",
        "numberOfBytes": "32"
      },
      "t_mapping(t_address,t_bool)": {
        "encoding": "mapping",
        "key": "t_address",
        "label": "mapping(address => bool)",
        "numberOfBytes": "32",
        "value": "t_bool"
      },
      "t_mapping(t_address,t_mapping(t_address,t_uint256))": {
        "encoding": "mapping",
        "key": "t_address",
        "label": "mapping(address => mapping(address => uint256))",
        "numberOfBytes": "32",
        "value": "t_mapping(t_address,t_uint256)"
      },
      "t_mapping(t_address,t_uint256)": {
        "encoding": "mapping",
        "key": "t_address",
        "label": "mapping(address => uint256)",
        "numberOfBytes": "32",
        "value": "t_uint256"
      },
      "t_mapping(t_bytes32,t_struct(RoleData)1492_storage)": {
        "encoding": "mapping",
        "key": "t_bytes32",
        "label": "mapping(bytes32 => struct AccessControlUpgradeable.RoleData)",
        "numberOfBytes": "32",
        "value": "t_struct(RoleData)1492_storage"
      },
      "t_mapping(t_string_memory_ptr,t_bool)": {
        "encoding": "mapping",
        "key": "t_string_memory_ptr",
        "label": "mapping(string => bool)",
        "numberOfBytes": "32",
        "value": "t_bool"
      },
      "t_string_memory_ptr": {
        "encoding": "bytes",
        "label": "string",
        "numberOfBytes": "32"
      },
      "t_string_storage": {
        "encoding": "bytes",
        "label": "string",
        "numberOfBytes": "32"
      },
      "t_struct(RoleData)1492_storage": {
        "encoding": "inplace",
        "label": "struct AccessControlUpgradeable.RoleData",
        "members": [
          {
            "astId": 1489,
            "contract": "contracts/pools/BaseCarbonTonne.sol:BaseCarbonTonne",
            "label": "members",
            "offset": 0,
            "slot": "0",
            "type": "t_mapping(t_address,t_bool)"
          },
          {
            "astId": 1491,
            "contract": "contracts/pools/BaseCarbonTonne.sol:BaseCarbonTonne",
            "label": "adminRole",
            "offset": 0,
            "slot": "1",
            "type": "t_bytes32"
          }
        ],
        "numberOfBytes": "64"
      },
      "t_uint256": {
        "encoding": "inplace",
        "label": "uint256",
        "numberOfBytes": "32"
      },
      "t_uint64": {
        "encoding": "inplace",
        "label": "uint64",
        "numberOfBytes": "8"
      },
      "t_uint8": {
        "encoding": "inplace",
        "label": "uint8",
        "numberOfBytes": "1"
      }
    }
  }
}