{
  "address": "0x098a65acA0e03A319F4Ce3d5CE12F5B770180031",
  "abi": [
    {
      "anonymous": false,
      "inputs": [
        {
          "indexed": false,
          "internalType": "address",
          "name": "previousAdmin",
          "type": "address"
        },
        {
          "indexed": false,
          "internalType": "address",
          "name": "newAdmin",
          "type": "address"
        }
      ],
      "name": "AdminChanged",
      "type": "event"
    },
    {
      "anonymous": false,
      "inputs": [
        {
          "indexed": false,
          "internalType": "string",
          "name": "methodology",
          "type": "string"
        }
      ],
      "name": "AttributeMethodologyAdded",
      "type": "event"
    },
    {
      "anonymous": false,
      "inputs": [
        {
          "indexed": false,
          "internalType": "string",
          "name": "methodology",
          "type": "string"
        }
      ],
      "name": "AttributeMethodologyRemoved",
      "type": "event"
    },
    {
      "anonymous": false,
      "inputs": [
        {
          "indexed": false,
          "internalType": "string",
          "name": "region",
          "type": "string"
        }
      ],
      "name": "AttributeRegionAdded",
      "type": "event"
    },
    {
      "anonymous": false,
      "inputs": [
        {
          "indexed": false,
          "internalType": "string",
          "name": "region",
          "type": "string"
        }
      ],
      "name": "AttributeRegionRemoved",
      "type": "event"
    },
    {
      "anonymous": false,
      "inputs": [
        {
          "indexed": false,
          "internalType": "string",
          "name": "standard",
          "type": "string"
        }
      ],
      "name": "AttributeStandardAdded",
      "type": "event"
    },
    {
      "anonymous": false,
      "inputs": [
        {
          "indexed": false,
          "internalType": "string",
          "name": "standard",
          "type": "string"
        }
      ],
      "name": "AttributeStandardRemoved",
      "type": "event"
    },
    {
      "anonymous": false,
      "inputs": [
        {
          "indexed": true,
          "internalType": "address",
          "name": "beacon",
          "type": "address"
        }
      ],
      "name": "BeaconUpgraded",
      "type": "event"
    },
    {
      "anonymous": false,
      "inputs": [
        {
          "indexed": false,
          "internalType": "address",
          "name": "erc20addr",
          "type": "address"
        }
      ],
      "name": "ExternalAddressAllowlisted",
      "type": "event"
    },
    {
      "anonymous": false,
      "inputs": [
        {
          "indexed": false,
          "internalType": "address",
          "name": "erc20addr",
          "type": "address"
        }
      ],
      "name": "ExternalAddressRemovedFromAllowlist",
      "type": "event"
    },
    {
      "anonymous": false,
      "inputs": [
        {
          "indexed": false,
          "internalType": "uint8",
          "name": "version",
          "type": "uint8"
        }
      ],
      "name": "Initialized",
      "type": "event"
    },
    {
      "anonymous": false,
      "inputs": [
        {
          "indexed": false,
          "internalType": "address",
          "name": "erc20addr",
          "type": "address"
        }
      ],
      "name": "InternalAddressAllowlisted",
      "type": "event"
    },
    {
      "anonymous": false,
      "inputs": [
        {
          "indexed": false,
          "internalType": "address",
          "name": "erc20addr",
          "type": "address"
        }
      ],
      "name": "InternalAddressBlocklisted",
      "type": "event"
    },
    {
      "anonymous": false,
      "inputs": [
        {
          "indexed": false,
          "internalType": "address",
          "name": "erc20addr",
          "type": "address"
        }
      ],
      "name": "InternalAddressRemovedFromAllowlist",
      "type": "event"
    },
    {
      "anonymous": false,
      "inputs": [
        {
          "indexed": false,
          "internalType": "address",
          "name": "erc20addr",
          "type": "address"
        }
      ],
      "name": "InternalAddressRemovedFromBlocklist",
      "type": "event"
    },
    {
      "anonymous": false,
      "inputs": [
        {
          "indexed": false,
          "internalType": "string",
          "name": "mappingName",
          "type": "string"
        },
        {
          "indexed": false,
          "internalType": "bool",
          "name": "accepted",
          "type": "bool"
        }
      ],
      "name": "MappingSwitched",
      "type": "event"
    },
    {
      "anonymous": false,
      "inputs": [
        {
          "indexed": false,
          "internalType": "uint256",
          "name": "minimumVintageStartTime",
          "type": "uint256"
        }
      ],
      "name": "MinimumVintageStartTimeUpdated",
      "type": "event"
    },
    {
      "anonymous": false,
      "inputs": [
        {
          "indexed": true,
          "internalType": "address",
          "name": "previousOwner",
          "type": "address"
        },
        {
          "indexed": true,
          "internalType": "address",
          "name": "newOwner",
          "type": "address"
        }
      ],
      "name": "OwnershipTransferred",
      "type": "event"
    },
    {
      "anonymous": false,
      "inputs": [
        {
          "indexed": false,
          "internalType": "address",
          "name": "account",
          "type": "address"
        }
      ],
      "name": "Paused",
      "type": "event"
    },
    {
      "anonymous": false,
      "inputs": [
        {
          "indexed": true,
          "internalType": "bytes32",
          "name": "role",
          "type": "bytes32"
        },
        {
          "indexed": true,
          "internalType": "bytes32",
          "name": "previousAdminRole",
          "type": "bytes32"
        },
        {
          "indexed": true,
          "internalType": "bytes32",
          "name": "newAdminRole",
          "type": "bytes32"
        }
      ],
      "name": "RoleAdminChanged",
      "type": "event"
    },
    {
      "anonymous": false,
      "inputs": [
        {
          "indexed": true,
          "internalType": "bytes32",
          "name": "role",
          "type": "bytes32"
        },
        {
          "indexed": true,
          "internalType": "address",
          "name": "account",
          "type": "address"
        },
        {
          "indexed": true,
          "internalType": "address",
          "name": "sender",
          "type": "address"
        }
      ],
      "name": "RoleGranted",
      "type": "event"
    },
    {
      "anonymous": false,
      "inputs": [
        {
          "indexed": true,
          "internalType": "bytes32",
          "name": "role",
          "type": "bytes32"
        },
        {
          "indexed": true,
          "internalType": "address",
          "name": "account",
          "type": "address"
        },
        {
          "indexed": true,
          "internalType": "address",
          "name": "sender",
          "type": "address"
        }
      ],
      "name": "RoleRevoked",
      "type": "event"
    },
    {
      "anonymous": false,
      "inputs": [
        {
          "indexed": false,
          "internalType": "address",
          "name": "registry",
          "type": "address"
        }
      ],
      "name": "ToucanRegistrySet",
      "type": "event"
    },
    {
      "anonymous": false,
      "inputs": [
        {
          "indexed": false,
          "internalType": "address",
          "name": "account",
          "type": "address"
        }
      ],
      "name": "Unpaused",
      "type": "event"
    },
    {
      "anonymous": false,
      "inputs": [
        {
          "indexed": true,
          "internalType": "address",
          "name": "implementation",
          "type": "address"
        }
      ],
      "name": "Upgraded",
      "type": "event"
    },
    {
      "inputs": [],
      "name": "DEFAULT_ADMIN_ROLE",
      "outputs": [
        {
          "internalType": "bytes32",
          "name": "",
          "type": "bytes32"
        }
      ],
      "stateMutability": "view",
      "type": "function"
    },
    {
      "inputs": [],
      "name": "VERSION",
      "outputs": [
        {
          "internalType": "string",
          "name": "",
          "type": "string"
        }
      ],
      "stateMutability": "view",
      "type": "function"
    },
    {
      "inputs": [],
      "name": "VERSION_RELEASE_CANDIDATE",
      "outputs": [
        {
          "internalType": "uint256",
          "name": "",
          "type": "uint256"
        }
      ],
      "stateMutability": "view",
      "type": "function"
    },
    {
      "inputs": [
        {
          "internalType": "bool",
          "name": "addToList",
          "type": "bool"
        },
        {
          "internalType": "string[]",
          "name": "_regions",
          "type": "string[]"
        },
        {
          "internalType": "string[]",
          "name": "_standards",
          "type": "string[]"
        },
        {
          "internalType": "string[]",
          "name": "_methodologies",
          "type": "string[]"
        }
      ],
      "name": "addAttributes",
      "outputs": [],
      "stateMutability": "nonpayable",
      "type": "function"
    },
    {
      "inputs": [
        {
          "internalType": "address[]",
          "name": "erc20Addr",
          "type": "address[]"
        }
      ],
      "name": "addToExternalAllowlist",
      "outputs": [],
      "stateMutability": "nonpayable",
      "type": "function"
    },
    {
      "inputs": [
        {
          "internalType": "address[]",
          "name": "erc20Addr",
          "type": "address[]"
        }
      ],
      "name": "addToInternalAllowlist",
      "outputs": [],
      "stateMutability": "nonpayable",
      "type": "function"
    },
    {
      "inputs": [
        {
          "internalType": "address[]",
          "name": "erc20Addr",
          "type": "address[]"
        }
      ],
      "name": "addToInternalBlocklist",
      "outputs": [],
      "stateMutability": "nonpayable",
      "type": "function"
    },
    {
      "inputs": [
        {
          "internalType": "address",
          "name": "erc20Addr",
          "type": "address"
        }
      ],
      "name": "checkAttributeMatching",
      "outputs": [
        {
          "internalType": "bool",
          "name": "",
          "type": "bool"
        }
      ],
      "stateMutability": "view",
      "type": "function"
    },
    {
      "inputs": [
        {
          "internalType": "address",
          "name": "erc20Addr",
          "type": "address"
        }
      ],
      "name": "checkEligible",
      "outputs": [
        {
          "internalType": "bool",
          "name": "",
          "type": "bool"
        }
      ],
      "stateMutability": "view",
      "type": "function"
    },
    {
      "inputs": [],
      "name": "contractRegistry",
      "outputs": [
        {
          "internalType": "address",
          "name": "",
          "type": "address"
        }
      ],
      "stateMutability": "view",
      "type": "function"
    },
    {
      "inputs": [
        {
          "internalType": "address",
          "name": "",
          "type": "address"
        }
      ],
      "name": "externalAllowlist",
      "outputs": [
        {
          "internalType": "bool",
          "name": "",
          "type": "bool"
        }
      ],
      "stateMutability": "view",
      "type": "function"
    },
    {
      "inputs": [
        {
          "internalType": "bytes32",
          "name": "role",
          "type": "bytes32"
        }
      ],
      "name": "getRoleAdmin",
      "outputs": [
        {
          "internalType": "bytes32",
          "name": "",
          "type": "bytes32"
        }
      ],
      "stateMutability": "view",
      "type": "function"
    },
    {
      "inputs": [
        {
          "internalType": "bytes32",
          "name": "role",
          "type": "bytes32"
        },
        {
          "internalType": "address",
          "name": "account",
          "type": "address"
        }
      ],
      "name": "grantRole",
      "outputs": [],
      "stateMutability": "nonpayable",
      "type": "function"
    },
    {
      "inputs": [
        {
          "internalType": "bytes32",
          "name": "role",
          "type": "bytes32"
        },
        {
          "internalType": "address",
          "name": "account",
          "type": "address"
        }
      ],
      "name": "hasRole",
      "outputs": [
        {
          "internalType": "bool",
          "name": "",
          "type": "bool"
        }
      ],
      "stateMutability": "view",
      "type": "function"
    },
    {
      "inputs": [],
      "name": "initialize",
      "outputs": [],
      "stateMutability": "nonpayable",
      "type": "function"
    },
    {
      "inputs": [
        {
          "internalType": "address",
          "name": "",
          "type": "address"
        }
      ],
      "name": "internalAllowlist",
      "outputs": [
        {
          "internalType": "bool",
          "name": "",
          "type": "bool"
        }
      ],
      "stateMutability": "view",
      "type": "function"
    },
    {
      "inputs": [
        {
          "internalType": "address",
          "name": "",
          "type": "address"
        }
      ],
      "name": "internalBlocklist",
      "outputs": [
        {
          "internalType": "bool",
          "name": "",
          "type": "bool"
        }
      ],
      "stateMutability": "view",
      "type": "function"
    },
    {
      "inputs": [
        {
          "internalType": "string",
          "name": "",
          "type": "string"
        }
      ],
      "name": "methodologies",
      "outputs": [
        {
          "internalType": "bool",
          "name": "",
          "type": "bool"
        }
      ],
      "stateMutability": "view",
      "type": "function"
    },
    {
      "inputs": [],
      "name": "methodologiesIsAcceptedMapping",
      "outputs": [
        {
          "internalType": "bool",
          "name": "",
          "type": "bool"
        }
      ],
      "stateMutability": "view",
      "type": "function"
    },
    {
      "inputs": [],
      "name": "minimumVintageStartTime",
      "outputs": [
        {
          "internalType": "uint64",
          "name": "",
          "type": "uint64"
        }
      ],
      "stateMutability": "view",
      "type": "function"
    },
    {
      "inputs": [],
      "name": "owner",
      "outputs": [
        {
          "internalType": "address",
          "name": "",
          "type": "address"
        }
      ],
      "stateMutability": "view",
      "type": "function"
    },
    {
      "inputs": [],
      "name": "paused",
      "outputs": [
        {
          "internalType": "bool",
          "name": "",
          "type": "bool"
        }
      ],
      "stateMutability": "view",
      "type": "function"
    },
    {
      "inputs": [],
      "name": "proxiableUUID",
      "outputs": [
        {
          "internalType": "bytes32",
          "name": "",
          "type": "bytes32"
        }
      ],
      "stateMutability": "view",
      "type": "function"
    },
    {
      "inputs": [
        {
          "internalType": "string",
          "name": "",
          "type": "string"
        }
      ],
      "name": "regions",
      "outputs": [
        {
          "internalType": "bool",
          "name": "",
          "type": "bool"
        }
      ],
      "stateMutability": "view",
      "type": "function"
    },
    {
      "inputs": [],
      "name": "regionsIsAcceptedMapping",
      "outputs": [
        {
          "internalType": "bool",
          "name": "",
          "type": "bool"
        }
      ],
      "stateMutability": "view",
      "type": "function"
    },
    {
      "inputs": [
        {
          "internalType": "address[]",
          "name": "erc20Addr",
          "type": "address[]"
        }
      ],
      "name": "removeFromExternalAllowlist",
      "outputs": [],
      "stateMutability": "nonpayable",
      "type": "function"
    },
    {
      "inputs": [
        {
          "internalType": "address[]",
          "name": "erc20Addr",
          "type": "address[]"
        }
      ],
      "name": "removeFromInternalAllowlist",
      "outputs": [],
      "stateMutability": "nonpayable",
      "type": "function"
    },
    {
      "inputs": [
        {
          "internalType": "address[]",
          "name": "erc20Addr",
          "type": "address[]"
        }
      ],
      "name": "removeFromInternalBlocklist",
      "outputs": [],
      "stateMutability": "nonpayable",
      "type": "function"
    },
    {
      "inputs": [],
      "name": "renounceOwnership",
      "outputs": [],
      "stateMutability": "nonpayable",
      "type": "function"
    },
    {
      "inputs": [
        {
          "internalType": "bytes32",
          "name": "role",
          "type": "bytes32"
        },
        {
          "internalType": "address",
          "name": "account",
          "type": "address"
        }
      ],
      "name": "renounceRole",
      "outputs": [],
      "stateMutability": "nonpayable",
      "type": "function"
    },
    {
      "inputs": [
        {
          "internalType": "bytes32",
          "name": "role",
          "type": "bytes32"
        },
        {
          "internalType": "address",
          "name": "account",
          "type": "address"
        }
      ],
      "name": "revokeRole",
      "outputs": [],
      "stateMutability": "nonpayable",
      "type": "function"
    },
    {
      "inputs": [
        {
          "internalType": "uint64",
          "name": "_minimumVintageStartTime",
          "type": "uint64"
        }
      ],
      "name": "setMinimumVintageStartTime",
      "outputs": [],
      "stateMutability": "nonpayable",
      "type": "function"
    },
    {
      "inputs": [
        {
          "internalType": "address",
          "name": "_address",
          "type": "address"
        }
      ],
      "name": "setToucanContractRegistry",
      "outputs": [],
      "stateMutability": "nonpayable",
      "type": "function"
    },
    {
      "inputs": [
        {
          "internalType": "string",
          "name": "",
          "type": "string"
        }
      ],
      "name": "standards",
      "outputs": [
        {
          "internalType": "bool",
          "name": "",
          "type": "bool"
        }
      ],
      "stateMutability": "view",
      "type": "function"
    },
    {
      "inputs": [],
      "name": "standardsIsAcceptedMapping",
      "outputs": [
        {
          "internalType": "bool",
          "name": "",
          "type": "bool"
        }
      ],
      "stateMutability": "view",
      "type": "function"
    },
    {
      "inputs": [
        {
          "internalType": "bytes4",
          "name": "interfaceId",
          "type": "bytes4"
        }
      ],
      "name": "supportsInterface",
      "outputs": [
        {
          "internalType": "bool",
          "name": "",
          "type": "bool"
        }
      ],
      "stateMutability": "view",
      "type": "function"
    },
    {
      "inputs": [
        {
          "internalType": "string",
          "name": "_mappingName",
          "type": "string"
        },
        {
          "internalType": "bool",
          "name": "accepted",
          "type": "bool"
        }
      ],
      "name": "switchMapping",
      "outputs": [],
      "stateMutability": "nonpayable",
      "type": "function"
    },
    {
      "inputs": [
        {
          "internalType": "address",
          "name": "newOwner",
          "type": "address"
        }
      ],
      "name": "transferOwnership",
      "outputs": [],
      "stateMutability": "nonpayable",
      "type": "function"
    },
    {
      "inputs": [
        {
          "internalType": "address",
          "name": "newImplementation",
          "type": "address"
        }
      ],
      "name": "upgradeTo",
      "outputs": [],
      "stateMutability": "nonpayable",
      "type": "function"
    },
    {
      "inputs": [
        {
          "internalType": "address",
          "name": "newImplementation",
          "type": "address"
        },
        {
          "internalType": "bytes",
          "name": "data",
          "type": "bytes"
        }
      ],
      "name": "upgradeToAndCall",
      "outputs": [],
      "stateMutability": "payable",
      "type": "function"
    }
  ],
  "numDeployments": 2,
  "solcInputHash": "69700a111159500a94910f170aba7bb7",
  "bytecode": "0x60a0604052306080523480156200001557600080fd5b506200002062000026565b62000156565b6200003260ff62000035565b50565b60008054610100900460ff1615620000ce578160ff1660011480156200006e57506200006c306200014760201b62001d6c1760201c565b155b620000c65760405162461bcd60e51b815260206004820152602e6024820152600080516020620033c883398151915260448201526d191e481a5b9a5d1a585b1a5e995960921b60648201526084015b60405180910390fd5b506000919050565b60005460ff8084169116106200012d5760405162461bcd60e51b815260206004820152602e6024820152600080516020620033c883398151915260448201526d191e481a5b9a5d1a585b1a5e995960921b6064820152608401620000bd565b506000805460ff191660ff92909216919091179055600190565b6001600160a01b03163b151590565b60805161323a6200018e60003960008181610960015281816109a001528181610bb301528181610bf30152610c82015261323a6000f3fe60806040526004361061023b5760003560e01c806395f187a51161012e578063d4e457ec116100ab578063f141b84f1161006f578063f141b84f1461070f578063f2fde38b14610731578063f3edb9ec14610751578063f75991cd1461078d578063ffa1ad74146107c957600080fd5b8063d4e457ec1461066d578063d547741f1461068f578063d6d10f3a146106af578063dc5f560e146106cf578063e882e37b146106ef57600080fd5b8063a9a484c5116100f2578063a9a484c5146105b9578063abf410e5146105d9578063c36a2573146105fa578063c42f358a1461061c578063ccbaa8181461063c57600080fd5b806395f187a5146105045780639891fd12146105245780639deb50bf14610544578063a1631e4b14610564578063a217fddf146105a457600080fd5b80635c975abb116101bc57806381e48e901161018057806381e48e9014610436578063850c3864146104565780638662522f146104765780638da5cb5b146104b257806391d14854146104e457600080fd5b80635c975abb146103ae57806365918979146103c65780636ca0b0d7146103f7578063715018a61461040c5780638129fc1c1461042157600080fd5b80633659cfe6116102035780633659cfe61461031557806336c63c701461033557806339cd7a8a146103665780634f1ef2861461038657806352d1902d1461039957600080fd5b806301ffc9a7146102405780630c0efecc14610275578063248a9ca3146102975780632f2ff15d146102d557806336568abe146102f5575b600080fd5b34801561024c57600080fd5b5061026061025b366004612655565b610807565b60405190151581526020015b60405180910390f35b34801561028157600080fd5b50610295610290366004612694565b61083e565b005b3480156102a357600080fd5b506102c76102b23660046126b1565b600090815260c9602052604090206001015490565b60405190815260200161026c565b3480156102e157600080fd5b506102956102f03660046126df565b6108a9565b34801561030157600080fd5b506102956103103660046126df565b6108d3565b34801561032157600080fd5b5061029561033036600461270f565b610956565b34801561034157600080fd5b5061026061035036600461270f565b6101646020526000908152604090205460ff1681565b34801561037257600080fd5b50610295610381366004612851565b610a35565b610295610394366004612897565b610ba9565b3480156103a557600080fd5b506102c7610c75565b3480156103ba57600080fd5b5060655460ff16610260565b3480156103d257600080fd5b506102606103e136600461270f565b6101636020526000908152604090205460ff1681565b34801561040357600080fd5b506102c7600281565b34801561041857600080fd5b50610295610d28565b34801561042d57600080fd5b50610295610d8e565b34801561044257600080fd5b506102956104513660046129a7565b610dfc565b34801561046257600080fd5b50610295610471366004612a41565b611257565b34801561048257600080fd5b50610260610491366004612ada565b805160208183018101805161015f8252928201919093012091525460ff1681565b3480156104be57600080fd5b506033546001600160a01b03165b6040516001600160a01b03909116815260200161026c565b3480156104f057600080fd5b506102606104ff3660046126df565b611332565b34801561051057600080fd5b5061029561051f366004612a41565b61135d565b34801561053057600080fd5b5061029561053f366004612a41565b611438565b34801561055057600080fd5b5061029561055f366004612a41565b611513565b34801561057057600080fd5b506101655461058c90600160a01b90046001600160401b031681565b6040516001600160401b03909116815260200161026c565b3480156105b057600080fd5b506102c7600081565b3480156105c557600080fd5b506102606105d436600461270f565b6115ee565b3480156105e557600080fd5b50610165546104cc906001600160a01b031681565b34801561060657600080fd5b506101655461026090600160e81b900460ff1681565b34801561062857600080fd5b50610295610637366004612a41565b611904565b34801561064857600080fd5b5061026061065736600461270f565b6101626020526000908152604090205460ff1681565b34801561067957600080fd5b506101655461026090600160f01b900460ff1681565b34801561069b57600080fd5b506102956106aa3660046126df565b6119df565b3480156106bb57600080fd5b506102956106ca366004612a41565b611a04565b3480156106db57600080fd5b506102606106ea36600461270f565b611adf565b3480156106fb57600080fd5b5061029561070a36600461270f565b611c4d565b34801561071b57600080fd5b506101655461026090600160e01b900460ff1681565b34801561073d57600080fd5b5061029561074c36600461270f565b611ca4565b34801561075d57600080fd5b5061026061076c366004612ada565b80516020818301810180516101608252928201919093012091525460ff1681565b34801561079957600080fd5b506102606107a8366004612ada565b80516020818301810180516101618252928201919093012091525460ff1681565b3480156107d557600080fd5b506107fa604051806040016040528060058152602001640312e302e360dc1b81525081565b60405161026c9190612b6e565b60006001600160e01b03198216637965db0b60e01b148061083857506301ffc9a760e01b6001600160e01b03198316145b92915050565b610846611d7b565b610165805467ffffffffffffffff60a01b1916600160a01b6001600160401b038416908102919091179091556040519081527f87f670402a6c72fff3b60ba5223165f062b58d671871fc2c49ea96101fdd19a0906020015b60405180910390a150565b600082815260c960205260409020600101546108c481611dd1565b6108ce8383611ddb565b505050565b6001600160a01b03811633146109485760405162461bcd60e51b815260206004820152602f60248201527f416363657373436f6e74726f6c3a2063616e206f6e6c792072656e6f756e636560448201526e103937b632b9903337b91039b2b63360891b60648201526084015b60405180910390fd5b6109528282611e61565b5050565b6001600160a01b037f000000000000000000000000000000000000000000000000000000000000000016300361099e5760405162461bcd60e51b815260040161093f90612b81565b7f00000000000000000000000000000000000000000000000000000000000000006001600160a01b03166109e76000805160206131be833981519152546001600160a01b031690565b6001600160a01b031614610a0d5760405162461bcd60e51b815260040161093f90612bcd565b610a1681611ec8565b60408051600080825260208201909252610a3291839190611ed0565b50565b610a3d611d7b565b604080518082019091526007815266726567696f6e7360c81b6020820152610a6690839061203b565b15610aa25780610a8557610165805460ff60e01b191690556000610a9c565b610165805460ff60e01b1916600160e01b17905560015b50610b6c565b6040805180820190915260098152687374616e646172647360b81b6020820152610acd90839061203b565b15610b055780610aec57610165805460ff60e81b191690556000610a9c565b610165805460ff60e81b1916600160e81b179055610b6c565b60408051808201909152600d81526c6d6574686f646f6c6f6769657360981b6020820152610b3490839061203b565b15610b6c5780610b5357610165805460ff60f01b191690556000610b6a565b610165805460ff60f01b1916600160f01b17905560015b505b7fcdc35455a1217219a4240bb18a7d2978eb98208f22f7ec36d6a1381c28f9d0f58282604051610b9d929190612c19565b60405180910390a15050565b6001600160a01b037f0000000000000000000000000000000000000000000000000000000000000000163003610bf15760405162461bcd60e51b815260040161093f90612b81565b7f00000000000000000000000000000000000000000000000000000000000000006001600160a01b0316610c3a6000805160206131be833981519152546001600160a01b031690565b6001600160a01b031614610c605760405162461bcd60e51b815260040161093f90612bcd565b610c6982611ec8565b61095282826001611ed0565b6000306001600160a01b037f00000000000000000000000000000000000000000000000000000000000000001614610d155760405162461bcd60e51b815260206004820152603860248201527f555550535570677261646561626c653a206d757374206e6f742062652063616c60448201527f6c6564207468726f7567682064656c656761746563616c6c0000000000000000606482015260840161093f565b506000805160206131be83398151915290565b6033546001600160a01b03163314610d825760405162461bcd60e51b815260206004820181905260248201527f4f776e61626c653a2063616c6c6572206973206e6f7420746865206f776e6572604482015260640161093f565b610d8c6000612062565b565b6000610d9a60016120b4565b90508015610db2576000805461ff0019166101001790555b610dba612141565b8015610a32576000805461ff0019169055604051600181527f7f26b83ff96e1f2b6a682f133852f6798a09c465da95921460cefb38474024989060200161089e565b610e04611d7b565b60005b8251811015610f7257841515600103610ec0576001610160848381518110610e3157610e31612c3d565b6020026020010151604051610e469190612c53565b908152602001604051809103902060006101000a81548160ff0219169083151502179055507fa27e97999993c298fae0b7088ff732fe078cc1585665ee1554220b3cbe6317a9838281518110610e9e57610e9e612c3d565b6020026020010151604051610eb39190612b6e565b60405180910390a1610f62565b6000610160848381518110610ed757610ed7612c3d565b6020026020010151604051610eec9190612c53565b908152602001604051809103902060006101000a81548160ff0219169083151502179055507f0127ddc00426c693b5becb26ba43a260c781ebc323b61d3b24b61e4dc5c93c71838281518110610f4457610f44612c3d565b6020026020010151604051610f599190612b6e565b60405180910390a15b610f6b81612c85565b9050610e07565b5060005b81518110156110e15784151560010361102f576001610161838381518110610fa057610fa0612c3d565b6020026020010151604051610fb59190612c53565b908152602001604051809103902060006101000a81548160ff0219169083151502179055507f156643e9a7f860e95993739893595e6ee1d04d9ff1b98567dbe9d5681cd152b282828151811061100d5761100d612c3d565b60200260200101516040516110229190612b6e565b60405180910390a16110d1565b600061016183838151811061104657611046612c3d565b602002602001015160405161105b9190612c53565b908152602001604051809103902060006101000a81548160ff0219169083151502179055507f21a77ac4edf49633047cc4e32b10dfe633811216214400e0e1f507c3f7287b618282815181106110b3576110b3612c3d565b60200260200101516040516110c89190612b6e565b60405180910390a15b6110da81612c85565b9050610f76565b5060005b83518110156112505784151560010361119e57600161015f85838151811061110f5761110f612c3d565b60200260200101516040516111249190612c53565b908152602001604051809103902060006101000a81548160ff0219169083151502179055507f3df7a1330febee3646ae4a0f0e46c94c046f0ee810b2b7f1fa10fa8f34d7b7ef84828151811061117c5761117c612c3d565b60200260200101516040516111919190612b6e565b60405180910390a1611240565b600061015f8583815181106111b5576111b5612c3d565b60200260200101516040516111ca9190612c53565b908152602001604051809103902060006101000a81548160ff0219169083151502179055507fc84badb33408cce6e89b30a735d8f06e094fa4a19c01c2da66718f490c672f6584828151811061122257611222612c3d565b60200260200101516040516112379190612b6e565b60405180910390a15b61124981612c85565b90506110e5565b5050505050565b61125f611d7b565b60005b8151811015610952576001610164600084848151811061128457611284612c3d565b60200260200101516001600160a01b03166001600160a01b0316815260200190815260200160002060006101000a81548160ff0219169083151502179055507f85fc56aecce1ef094be244fd6b70c13cbc3786dacfb5ddb457eaa6e81924b6728282815181106112f6576112f6612c3d565b602002602001015160405161131a91906001600160a01b0391909116815260200190565b60405180910390a161132b81612c85565b9050611262565b600091825260c9602090815260408084206001600160a01b0393909316845291905290205460ff1690565b611365611d7b565b60005b8151811015610952576001610162600084848151811061138a5761138a612c3d565b60200260200101516001600160a01b03166001600160a01b0316815260200190815260200160002060006101000a81548160ff0219169083151502179055507f96c62648e20245db42813046d53ed1697aab1c1a06b53092fd5f74f76d9f0e138282815181106113fc576113fc612c3d565b602002602001015160405161142091906001600160a01b0391909116815260200190565b60405180910390a161143181612c85565b9050611368565b611440611d7b565b60005b8151811015610952576000610162600084848151811061146557611465612c3d565b60200260200101516001600160a01b03166001600160a01b0316815260200190815260200160002060006101000a81548160ff0219169083151502179055507f25add64d709821cd4d2f0456865755a330b78c8fb0f438088364f480710acc408282815181106114d7576114d7612c3d565b60200260200101516040516114fb91906001600160a01b0391909116815260200190565b60405180910390a161150c81612c85565b9050611443565b61151b611d7b565b60005b8151811015610952576000610163600084848151811061154057611540612c3d565b60200260200101516001600160a01b03166001600160a01b0316815260200190815260200160002060006101000a81548160ff0219169083151502179055507f8c23715cef0c44b9a0c13ba0edb2d13490a2ff75434e8dc238e3dfce2896b2338282815181106115b2576115b2612c3d565b60200260200101516040516115d691906001600160a01b0391909116815260200190565b60405180910390a16115e781612c85565b905061151e565b600061164f60405180610140016040528060608152602001606081526020016060815260200160608152602001606081526020016060815260200160608152602001606081526020016060815260200160006001600160a01b031681525090565b6116d26040518061018001604052806060815260200160006001600160401b0316815260200160006001600160401b031681526020016000815260200160006001600160401b0316815260200160001515815260200160001515815260200160608152602001606081526020016060815260200160608152602001606081525090565b836001600160a01b031663152583de6040518163ffffffff1660e01b8152600401600060405180830381865afa158015611710573d6000803e3d6000fd5b505050506040513d6000823e601f3d908101601f191682016040526117389190810190612e6e565b610165546020808301516040805180820190915260018152601b60f91b9281019290925293955091935090916001600160401b03600160a01b9092048216911610156117975760405162461bcd60e51b815260040161093f9190612b6e565b50610165601c9054906101000a900460ff16151561015f83606001516040516117c09190612c53565b9081526040805191829003602090810183205483830190925260018352603760f81b90830152909160ff90911615151461180d5760405162461bcd60e51b815260040161093f9190612b6e565b50610165601d9054906101000a900460ff16151561016083602001516040516118369190612c53565b9081526040805191829003602090810183205483830190925260018352600760fb1b90830152909160ff9091161515146118835760405162461bcd60e51b815260040161093f9190612b6e565b50610165601e9054906101000a900460ff16151561016183604001516040516118ac9190612c53565b9081526040805191829003602090810183205483830190925260018352603960f81b90830152909160ff9091161515146118f95760405162461bcd60e51b815260040161093f9190612b6e565b506001949350505050565b61190c611d7b565b60005b8151811015610952576001610163600084848151811061193157611931612c3d565b60200260200101516001600160a01b03166001600160a01b0316815260200190815260200160002060006101000a81548160ff0219169083151502179055507f6e22096f78ca0e0ca190f9724d8a2ded2155ade3a469817cb9e95989a51248238282815181106119a3576119a3612c3d565b60200260200101516040516119c791906001600160a01b0391909116815260200190565b60405180910390a16119d881612c85565b905061190f565b600082815260c960205260409020600101546119fa81611dd1565b6108ce8383611e61565b611a0c611d7b565b60005b81518110156109525760006101646000848481518110611a3157611a31612c3d565b60200260200101516001600160a01b03166001600160a01b0316815260200190815260200160002060006101000a81548160ff0219169083151502179055507f4a522111770e286506eab11ca1d3cb5ca4a24a84458affbb5372bec78340102e828281518110611aa357611aa3612c3d565b6020026020010151604051611ac791906001600160a01b0391909116815260200190565b60405180910390a1611ad881612c85565b9050611a0f565b61016554604051633a37b16d60e11b81526001600160a01b038381166004830152600092839291169063746f62da90602401602060405180830381865afa158015611b2e573d6000803e3d6000fd5b505050506040513d601f19601f82011682018060405250810190611b52919061302b565b90508015611bec576001600160a01b0383166000908152610163602052604090205460ff1615611b855750600192915050565b6001600160a01b0383166000908152610164602090815260409182902054825180840190935260018352600d60fa1b9183019190915260ff1615611bdc5760405162461bcd60e51b815260040161093f9190612b6e565b50611be6836115ee565b50611c44565b6001600160a01b0383166000908152610162602090815260409182902054825180840190935260018352603560f81b9183019190915260ff16611c425760405162461bcd60e51b815260040161093f9190612b6e565b505b50600192915050565b611c55611d7b565b61016580546001600160a01b0319166001600160a01b0383169081179091556040519081527f86907b53cf2024579968511876daf0b4620d65803b550e33101baf70aeb6f5eb9060200161089e565b6033546001600160a01b03163314611cfe5760405162461bcd60e51b815260206004820181905260248201527f4f776e61626c653a2063616c6c6572206973206e6f7420746865206f776e6572604482015260640161093f565b6001600160a01b038116611d635760405162461bcd60e51b815260206004820152602660248201527f4f776e61626c653a206e6577206f776e657220697320746865207a65726f206160448201526564647265737360d01b606482015260840161093f565b610a3281612062565b6001600160a01b03163b151590565b33611d8e6033546001600160a01b031690565b6001600160a01b03161460405180604001604052806002815260200161062760f31b81525090610a325760405162461bcd60e51b815260040161093f9190612b6e565b610a328133612198565b611de58282611332565b61095257600082815260c9602090815260408083206001600160a01b03851684529091529020805460ff19166001179055611e1d3390565b6001600160a01b0316816001600160a01b0316837f2f8788117e7eff1d82e926ec794901d17c78024a50270940304540a733656f0d60405160405180910390a45050565b611e6b8282611332565b1561095257600082815260c9602090815260408083206001600160a01b0385168085529252808320805460ff1916905551339285917ff6391f5c32d9c69d2a47ea670b442974b53935d1edc7fd64eb21e047a839171b9190a45050565b610a32611d7b565b7f4910fdfa16fed3260ed0e7147f7cc6da11a60208b5b9406d12a635614ffd91435460ff1615611f03576108ce836121fc565b826001600160a01b03166352d1902d6040518163ffffffff1660e01b8152600401602060405180830381865afa925050508015611f5d575060408051601f3d908101601f19168201909252611f5a91810190613048565b60015b611fc05760405162461bcd60e51b815260206004820152602e60248201527f45524331393637557067726164653a206e657720696d706c656d656e7461746960448201526d6f6e206973206e6f74205555505360901b606482015260840161093f565b6000805160206131be833981519152811461202f5760405162461bcd60e51b815260206004820152602960248201527f45524331393637557067726164653a20756e737570706f727465642070726f786044820152681a58589b195555525160ba1b606482015260840161093f565b506108ce838383612298565b60008151835114801561205b575081805190602001208380519060200120145b9392505050565b603380546001600160a01b038381166001600160a01b0319831681179093556040519116919082907f8be0079c531659141344cd1fd0a4f28419497f9722a3daafe3b4186f6b6457e090600090a35050565b60008054610100900460ff16156120fb578160ff1660011480156120d75750303b155b6120f35760405162461bcd60e51b815260040161093f90613061565b506000919050565b60005460ff8084169116106121225760405162461bcd60e51b815260040161093f90613061565b506000805460ff191660ff92909216919091179055600190565b919050565b600061214d60016120b4565b90508015612165576000805461ff0019166101001790555b61216d6122c3565b6121756122ea565b61217d61231a565b6121856122c3565b61218d6122c3565b610dba600033611ddb565b6121a28282611332565b610952576121ba816001600160a01b0316601461234d565b6121c583602061234d565b6040516020016121d69291906130af565b60408051601f198184030181529082905262461bcd60e51b825261093f91600401612b6e565b6001600160a01b0381163b6122695760405162461bcd60e51b815260206004820152602d60248201527f455243313936373a206e657720696d706c656d656e746174696f6e206973206e60448201526c1bdd08184818dbdb9d1c9858dd609a1b606482015260840161093f565b6000805160206131be83398151915280546001600160a01b0319166001600160a01b0392909216919091179055565b6122a1836124e8565b6000825111806122ae5750805b156108ce576122bd8383612528565b50505050565b600054610100900460ff16610d8c5760405162461bcd60e51b815260040161093f90613124565b600054610100900460ff166123115760405162461bcd60e51b815260040161093f90613124565b610d8c33612062565b600054610100900460ff166123415760405162461bcd60e51b815260040161093f90613124565b6065805460ff19169055565b6060600061235c83600261316f565b61236790600261318e565b6001600160401b0381111561237e5761237e61272c565b6040519080825280601f01601f1916602001820160405280156123a8576020820181803683370190505b509050600360fc1b816000815181106123c3576123c3612c3d565b60200101906001600160f81b031916908160001a905350600f60fb1b816001815181106123f2576123f2612c3d565b60200101906001600160f81b031916908160001a905350600061241684600261316f565b61242190600161318e565b90505b6001811115612499576f181899199a1a9b1b9c1cb0b131b232b360811b85600f166010811061245557612455612c3d565b1a60f81b82828151811061246b5761246b612c3d565b60200101906001600160f81b031916908160001a90535060049490941c93612492816131a6565b9050612424565b50831561205b5760405162461bcd60e51b815260206004820181905260248201527f537472696e67733a20686578206c656e67746820696e73756666696369656e74604482015260640161093f565b6124f1816121fc565b6040516001600160a01b038216907fbc7cd75a20ee27fd9adebab32041f755214dbc6bffa90cc0225b39da2e5c2d3b90600090a250565b60606001600160a01b0383163b6125905760405162461bcd60e51b815260206004820152602660248201527f416464726573733a2064656c65676174652063616c6c20746f206e6f6e2d636f6044820152651b9d1c9858dd60d21b606482015260840161093f565b600080846001600160a01b0316846040516125ab9190612c53565b600060405180830381855af49150503d80600081146125e6576040519150601f19603f3d011682016040523d82523d6000602084013e6125eb565b606091505b509150915061261382826040518060600160405280602781526020016131de6027913961261c565b95945050505050565b6060831561262b57508161205b565b82511561263b5782518084602001fd5b8160405162461bcd60e51b815260040161093f9190612b6e565b60006020828403121561266757600080fd5b81356001600160e01b03198116811461205b57600080fd5b6001600160401b0381168114610a3257600080fd5b6000602082840312156126a657600080fd5b813561205b8161267f565b6000602082840312156126c357600080fd5b5035919050565b6001600160a01b0381168114610a3257600080fd5b600080604083850312156126f257600080fd5b823591506020830135612704816126ca565b809150509250929050565b60006020828403121561272157600080fd5b813561205b816126ca565b634e487b7160e01b600052604160045260246000fd5b60405161018081016001600160401b03811182821017156127655761276561272c565b60405290565b60405161014081016001600160401b03811182821017156127655761276561272c565b604051601f8201601f191681016001600160401b03811182821017156127b6576127b661272c565b604052919050565b60006001600160401b038211156127d7576127d761272c565b50601f01601f191660200190565b60006127f86127f3846127be565b61278e565b905082815283838301111561280c57600080fd5b828260208301376000602084830101529392505050565b600082601f83011261283457600080fd5b61205b838335602085016127e5565b8015158114610a3257600080fd5b6000806040838503121561286457600080fd5b82356001600160401b0381111561287a57600080fd5b61288685828601612823565b925050602083013561270481612843565b600080604083850312156128aa57600080fd5b82356128b5816126ca565b915060208301356001600160401b038111156128d057600080fd5b8301601f810185136128e157600080fd5b6128f0858235602084016127e5565b9150509250929050565b60006001600160401b038211156129135761291361272c565b5060051b60200190565b600082601f83011261292e57600080fd5b8135602061293e6127f3836128fa565b82815260059290921b8401810191818101908684111561295d57600080fd5b8286015b8481101561299c5780356001600160401b038111156129805760008081fd5b61298e8986838b0101612823565b845250918301918301612961565b509695505050505050565b600080600080608085870312156129bd57600080fd5b84356129c881612843565b935060208501356001600160401b03808211156129e457600080fd5b6129f08883890161291d565b94506040870135915080821115612a0657600080fd5b612a128883890161291d565b93506060870135915080821115612a2857600080fd5b50612a358782880161291d565b91505092959194509250565b60006020808385031215612a5457600080fd5b82356001600160401b03811115612a6a57600080fd5b8301601f81018513612a7b57600080fd5b8035612a896127f3826128fa565b81815260059190911b82018301908381019087831115612aa857600080fd5b928401925b82841015612acf578335612ac0816126ca565b82529284019290840190612aad565b979650505050505050565b600060208284031215612aec57600080fd5b81356001600160401b03811115612b0257600080fd5b612b0e84828501612823565b949350505050565b60005b83811015612b31578181015183820152602001612b19565b838111156122bd5750506000910152565b60008151808452612b5a816020860160208601612b16565b601f01601f19169290920160200192915050565b60208152600061205b6020830184612b42565b6020808252602c908201527f46756e6374696f6e206d7573742062652063616c6c6564207468726f7567682060408201526b19195b1959d85d1958d85b1b60a21b606082015260800190565b6020808252602c908201527f46756e6374696f6e206d7573742062652063616c6c6564207468726f7567682060408201526b6163746976652070726f787960a01b606082015260800190565b604081526000612c2c6040830185612b42565b905082151560208301529392505050565b634e487b7160e01b600052603260045260246000fd5b60008251612c65818460208701612b16565b9190910192915050565b634e487b7160e01b600052601160045260246000fd5b600060018201612c9757612c97612c6f565b5060010190565b600082601f830112612caf57600080fd5b8151612cbd6127f3826127be565b818152846020838601011115612cd257600080fd5b612b0e826020830160208701612b16565b805161213c816126ca565b805161213c8161267f565b805161213c81612843565b60006101808284031215612d1757600080fd5b612d1f612742565b905081516001600160401b0380821115612d3857600080fd5b612d4485838601612c9e565b8352612d5260208501612cee565b6020840152612d6360408501612cee565b604084015260608401516060840152612d7e60808501612cee565b6080840152612d8f60a08501612cf9565b60a0840152612da060c08501612cf9565b60c084015260e0840151915080821115612db957600080fd5b612dc585838601612c9e565b60e084015261010091508184015181811115612de057600080fd5b612dec86828701612c9e565b838501525061012091508184015181811115612e0757600080fd5b612e1386828701612c9e565b838501525061014091508184015181811115612e2e57600080fd5b612e3a86828701612c9e565b838501525061016091508184015181811115612e5557600080fd5b612e6186828701612c9e565b8385015250505092915050565b60008060408385031215612e8157600080fd5b82516001600160401b0380821115612e9857600080fd5b908401906101408287031215612ead57600080fd5b612eb561276b565b825182811115612ec457600080fd5b612ed088828601612c9e565b825250602083015182811115612ee557600080fd5b612ef188828601612c9e565b602083015250604083015182811115612f0957600080fd5b612f1588828601612c9e565b604083015250606083015182811115612f2d57600080fd5b612f3988828601612c9e565b606083015250608083015182811115612f5157600080fd5b612f5d88828601612c9e565b60808301525060a083015182811115612f7557600080fd5b612f8188828601612c9e565b60a08301525060c083015182811115612f9957600080fd5b612fa588828601612c9e565b60c08301525060e083015182811115612fbd57600080fd5b612fc988828601612c9e565b60e0830152506101008084015183811115612fe357600080fd5b612fef89828701612c9e565b828401525050610120613003818501612ce3565b90820152602086015190945091508082111561301e57600080fd5b506128f085828601612d04565b60006020828403121561303d57600080fd5b815161205b81612843565b60006020828403121561305a57600080fd5b5051919050565b6020808252602e908201527f496e697469616c697a61626c653a20636f6e747261637420697320616c72656160408201526d191e481a5b9a5d1a585b1a5e995960921b606082015260800190565b7f416363657373436f6e74726f6c3a206163636f756e74200000000000000000008152600083516130e7816017850160208801612b16565b7001034b99036b4b9b9b4b733903937b6329607d1b6017918401918201528351613118816028840160208801612b16565b01602801949350505050565b6020808252602b908201527f496e697469616c697a61626c653a20636f6e7472616374206973206e6f74206960408201526a6e697469616c697a696e6760a81b606082015260800190565b600081600019048311821515161561318957613189612c6f565b500290565b600082198211156131a1576131a1612c6f565b500190565b6000816131b5576131b5612c6f565b50600019019056fe360894a13ba1a3210667c828492db98dca3e2076cc3735a920a3ca505d382bbc416464726573733a206c6f772d6c6576656c2064656c65676174652063616c6c206661696c6564a26469706673582212204de3974449237b99547078832f80d3ba09cb3ed8de432cf2cd2f544df2cd22ea64736f6c634300080e0033496e697469616c697a61626c653a20636f6e747261637420697320616c726561",
  "devdoc": {
    "kind": "dev",
    "methods": {
      "addAttributes(bool,string[],string[],string[])": {
        "params": {
          "addToList": "determines whether attribute should be added or removed Other params are arrays of attributes to be added"
        }
      },
      "addToExternalAllowlist(address[])": {
        "params": {
          "erc20Addr": "accepts an array of contract addresses"
        }
      },
      "addToInternalAllowlist(address[])": {
        "params": {
          "erc20Addr": "accepts an array of contract addresses"
        }
      },
      "addToInternalBlocklist(address[])": {
        "params": {
          "erc20Addr": "accepts an array of contract addresses"
        }
      },
      "getRoleAdmin(bytes32)": {
        "details": "Returns the admin role that controls `role`. See {grantRole} and {revokeRole}. To change a role's admin, use {_setRoleAdmin}."
      },
      "grantRole(bytes32,address)": {
        "details": "Grants `role` to `account`. If `account` had not been already granted `role`, emits a {RoleGranted} event. Requirements: - the caller must have ``role``'s admin role."
      },
      "hasRole(bytes32,address)": {
        "details": "Returns `true` if `account` has been granted `role`."
      },
      "owner()": {
        "details": "Returns the address of the current owner."
      },
      "paused()": {
        "details": "Returns true if the contract is paused, and false otherwise."
      },
      "proxiableUUID()": {
        "details": "Implementation of the ERC1822 {proxiableUUID} function. This returns the storage slot used by the implementation. It is used to validate that the this implementation remains valid after an upgrade. IMPORTANT: A proxy pointing at a proxiable contract should not be considered proxiable itself, because this risks bricking a proxy that upgrades to it, by delegating to itself until out of gas. Thus it is critical that this function revert if invoked through a proxy. This is guaranteed by the `notDelegated` modifier."
      },
      "removeFromExternalAllowlist(address[])": {
        "params": {
          "erc20Addr": "accepts an array of contract addresses"
        }
      },
      "removeFromInternalAllowlist(address[])": {
        "params": {
          "erc20Addr": "accepts an array of contract addressesc"
        }
      },
      "removeFromInternalBlocklist(address[])": {
        "params": {
          "erc20Addr": "accepts an array of contract addresses"
        }
      },
      "renounceOwnership()": {
        "details": "Leaves the contract without owner. It will not be possible to call `onlyOwner` functions anymore. Can only be called by the current owner. NOTE: Renouncing ownership will leave the contract without an owner, thereby removing any functionality that is only available to the owner."
      },
      "renounceRole(bytes32,address)": {
        "details": "Revokes `role` from the calling account. Roles are often managed via {grantRole} and {revokeRole}: this function's purpose is to provide a mechanism for accounts to lose their privileges if they are compromised (such as when a trusted device is misplaced). If the calling account had been revoked `role`, emits a {RoleRevoked} event. Requirements: - the caller must be `account`."
      },
      "revokeRole(bytes32,address)": {
        "details": "Revokes `role` from `account`. If `account` had been granted `role`, emits a {RoleRevoked} event. Requirements: - the caller must have ``role``'s admin role."
      },
      "setMinimumVintageStartTime(uint64)": {
        "params": {
          "_minimumVintageStartTime": "unix time format"
        }
      },
      "supportsInterface(bytes4)": {
        "details": "See {IERC165-supportsInterface}."
      },
      "switchMapping(string,bool)": {
        "params": {
          "_mappingName": "attribute mapping of project-vintage data",
          "accepted": "determines if mapping works as a blocklist or allowlist"
        }
      },
      "transferOwnership(address)": {
        "details": "Transfers ownership of the contract to a new account (`newOwner`). Can only be called by the current owner."
      },
      "upgradeTo(address)": {
        "details": "Upgrade the implementation of the proxy to `newImplementation`. Calls {_authorizeUpgrade}. Emits an {Upgraded} event."
      },
      "upgradeToAndCall(address,bytes)": {
        "details": "Upgrade the implementation of the proxy to `newImplementation`, and subsequently execute the function call encoded in `data`. Calls {_authorizeUpgrade}. Emits an {Upgraded} event."
      }
    },
    "version": 1
  },
  "userdoc": {
    "kind": "user",
    "methods": {
      "addAttributes(bool,string[],string[],string[])": {
        "notice": "Function to add attributes for filtering (does not support complex AttributeSets)"
      },
      "addToExternalAllowlist(address[])": {
        "notice": "Function to allowlist selected external non-TCO2 contracts by their address"
      },
      "addToInternalAllowlist(address[])": {
        "notice": "Function to allowlist certain TCO2 contracts by their address"
      },
      "addToInternalBlocklist(address[])": {
        "notice": "Function to blocklist certain TCO2 contracts by their address"
      },
      "checkAttributeMatching(address)": {
        "notice": "Checks whether incoming ERC20s match the accepted criteria/attributes"
      },
      "checkEligible(address)": {
        "notice": "Checks if token to be deposited is eligible for this pool"
      },
      "removeFromExternalAllowlist(address[])": {
        "notice": "Function to remove ERC20 addresses from external allowlist"
      },
      "removeFromInternalAllowlist(address[])": {
        "notice": "Function to remove TCO2 addresses from internal allowlist"
      },
      "removeFromInternalBlocklist(address[])": {
        "notice": "Function to remove TCO2 addresses from internal blocklist"
      },
      "setMinimumVintageStartTime(uint64)": {
        "notice": "Determines the minimum vintage start time acceptance criteria of ERC20s"
      },
      "switchMapping(string,bool)": {
        "notice": "Generic function to switch attributes mappings into either acceptance or rejection criteria"
      }
    },
    "version": 1
  },
  "storageLayout": {
    "storage": [
      {
        "astId": 2390,
        "contract": "contracts/pools/BiocharFilter.sol:BiocharFilter",
        "label": "_initialized",
        "offset": 0,
        "slot": "0",
        "type": "t_uint8"
      },
      {
        "astId": 2393,
        "contract": "contracts/pools/BiocharFilter.sol:BiocharFilter",
        "label": "_initializing",
        "offset": 1,
        "slot": "0",
        "type": "t_bool"
      },
      {
        "astId": 5494,
        "contract": "contracts/pools/BiocharFilter.sol:BiocharFilter",
        "label": "__gap",
        "offset": 0,
        "slot": "1",
        "type": "t_array(t_uint256)50_storage"
      },
      {
        "astId": 1881,
        "contract": "contracts/pools/BiocharFilter.sol:BiocharFilter",
        "label": "_owner",
        "offset": 0,
        "slot": "51",
        "type": "t_address"
      },
      {
        "astId": 1993,
        "contract": "contracts/pools/BiocharFilter.sol:BiocharFilter",
        "label": "__gap",
        "offset": 0,
        "slot": "52",
        "type": "t_array(t_uint256)49_storage"
      },
      {
        "astId": 2682,
        "contract": "contracts/pools/BiocharFilter.sol:BiocharFilter",
        "label": "_paused",
        "offset": 0,
        "slot": "101",
        "type": "t_bool"
      },
      {
        "astId": 2771,
        "contract": "contracts/pools/BiocharFilter.sol:BiocharFilter",
        "label": "__gap",
        "offset": 0,
        "slot": "102",
        "type": "t_array(t_uint256)49_storage"
      },
      {
        "astId": 5801,
        "contract": "contracts/pools/BiocharFilter.sol:BiocharFilter",
        "label": "__gap",
        "offset": 0,
        "slot": "151",
        "type": "t_array(t_uint256)50_storage"
      },
      {
        "astId": 1497,
        "contract": "contracts/pools/BiocharFilter.sol:BiocharFilter",
        "label": "_roles",
        "offset": 0,
        "slot": "201",
        "type": "t_mapping(t_bytes32,t_struct(RoleData)1492_storage)"
      },
      {
        "astId": 1796,
        "contract": "contracts/pools/BiocharFilter.sol:BiocharFilter",
        "label": "__gap",
        "offset": 0,
        "slot": "202",
        "type": "t_array(t_uint256)49_storage"
      },
      {
        "astId": 2372,
        "contract": "contracts/pools/BiocharFilter.sol:BiocharFilter",
        "label": "__gap",
        "offset": 0,
        "slot": "251",
        "type": "t_array(t_uint256)50_storage"
      },
      {
        "astId": 2660,
        "contract": "contracts/pools/BiocharFilter.sol:BiocharFilter",
        "label": "__gap",
        "offset": 0,
        "slot": "301",
        "type": "t_array(t_uint256)50_storage"
      },
      {
        "astId": 23331,
        "contract": "contracts/pools/BiocharFilter.sol:BiocharFilter",
        "label": "regions",
        "offset": 0,
        "slot": "351",
        "type": "t_mapping(t_string_memory_ptr,t_bool)"
      },
      {
        "astId": 23335,
        "contract": "contracts/pools/BiocharFilter.sol:BiocharFilter",
        "label": "standards",
        "offset": 0,
        "slot": "352",
        "type": "t_mapping(t_string_memory_ptr,t_bool)"
      },
      {
        "astId": 23339,
        "contract": "contracts/pools/BiocharFilter.sol:BiocharFilter",
        "label": "methodologies",
        "offset": 0,
        "slot": "353",
        "type": "t_mapping(t_string_memory_ptr,t_bool)"
      },
      {
        "astId": 23344,
        "contract": "contracts/pools/BiocharFilter.sol:BiocharFilter",
        "label": "externalAllowlist",
        "offset": 0,
        "slot": "354",
        "type": "t_mapping(t_address,t_bool)"
      },
      {
        "astId": 23349,
        "contract": "contracts/pools/BiocharFilter.sol:BiocharFilter",
        "label": "internalAllowlist",
        "offset": 0,
        "slot": "355",
        "type": "t_mapping(t_address,t_bool)"
      },
      {
        "astId": 23354,
        "contract": "contracts/pools/BiocharFilter.sol:BiocharFilter",
        "label": "internalBlocklist",
        "offset": 0,
        "slot": "356",
        "type": "t_mapping(t_address,t_bool)"
      },
      {
        "astId": 23357,
        "contract": "contracts/pools/BiocharFilter.sol:BiocharFilter",
        "label": "contractRegistry",
        "offset": 0,
        "slot": "357",
        "type": "t_address"
      },
      {
        "astId": 23359,
        "contract": "contracts/pools/BiocharFilter.sol:BiocharFilter",
        "label": "minimumVintageStartTime",
        "offset": 20,
        "slot": "357",
        "type": "t_uint64"
      },
      {
        "astId": 23362,
        "contract": "contracts/pools/BiocharFilter.sol:BiocharFilter",
        "label": "regionsIsAcceptedMapping",
        "offset": 28,
        "slot": "357",
        "type": "t_bool"
      },
      {
        "astId": 23364,
        "contract": "contracts/pools/BiocharFilter.sol:BiocharFilter",
        "label": "standardsIsAcceptedMapping",
        "offset": 29,
        "slot": "357",
        "type": "t_bool"
      },
      {
        "astId": 23366,
        "contract": "contracts/pools/BiocharFilter.sol:BiocharFilter",
        "label": "methodologiesIsAcceptedMapping",
        "offset": 30,
        "slot": "357",
        "type": "t_bool"
      }
    ],
    "types": {
      "t_address": {
        "encoding": "inplace",
        "label": "address",
        "numberOfBytes": "20"
      },
      "t_array(t_uint256)49_storage": {
        "base": "t_uint256",
        "encoding": "inplace",
        "label": "uint256[49]",
        "numberOfBytes": "1568"
      },
      "t_array(t_uint256)50_storage": {
        "base": "t_uint256",
        "encoding": "inplace",
        "label": "uint256[50]",
        "numberOfBytes": "1600"
      },
      "t_bool": {
        "encoding": "inplace",
        "label": "bool",
        "numberOfBytes": "1"
      },
      "t_bytes32": {
        "encoding": "inplace",
        "label": "bytes32",
        "numberOfBytes": "32"
      },
      "t_mapping(t_address,t_bool)": {
        "encoding": "mapping",
        "key": "t_address",
        "label": "mapping(address => bool)",
        "numberOfBytes": "32",
        "value": "t_bool"
      },
      "t_mapping(t_bytes32,t_struct(RoleData)1492_storage)": {
        "encoding": "mapping",
        "key": "t_bytes32",
        "label": "mapping(bytes32 => struct AccessControlUpgradeable.RoleData)",
        "numberOfBytes": "32",
        "value": "t_struct(RoleData)1492_storage"
      },
      "t_mapping(t_string_memory_ptr,t_bool)": {
        "encoding": "mapping",
        "key": "t_string_memory_ptr",
        "label": "mapping(string => bool)",
        "numberOfBytes": "32",
        "value": "t_bool"
      },
      "t_string_memory_ptr": {
        "encoding": "bytes",
        "label": "string",
        "numberOfBytes": "32"
      },
      "t_struct(RoleData)1492_storage": {
        "encoding": "inplace",
        "label": "struct AccessControlUpgradeable.RoleData",
        "members": [
          {
            "astId": 1489,
            "contract": "contracts/pools/BiocharFilter.sol:BiocharFilter",
            "label": "members",
            "offset": 0,
            "slot": "0",
            "type": "t_mapping(t_address,t_bool)"
          },
          {
            "astId": 1491,
            "contract": "contracts/pools/BiocharFilter.sol:BiocharFilter",
            "label": "adminRole",
            "offset": 0,
            "slot": "1",
            "type": "t_bytes32"
          }
        ],
        "numberOfBytes": "64"
      },
      "t_uint256": {
        "encoding": "inplace",
        "label": "uint256",
        "numberOfBytes": "32"
      },
      "t_uint64": {
        "encoding": "inplace",
        "label": "uint64",
        "numberOfBytes": "8"
      },
      "t_uint8": {
        "encoding": "inplace",
        "label": "uint8",
        "numberOfBytes": "1"
      }
    }
  }
}