{
  "address": "0xD4998eD8d82b58089d141F4095bA50483b320a7b",
  "abi": [
    {
      "anonymous": false,
      "inputs": [
        {
          "indexed": false,
          "internalType": "address",
          "name": "tco2",
          "type": "address"
        }
      ],
      "name": "AddFeeExemptedTCO2",
      "type": "event"
    },
    {
      "anonymous": false,
      "inputs": [
        {
          "indexed": false,
          "internalType": "address",
          "name": "previousAdmin",
          "type": "address"
        },
        {
          "indexed": false,
          "internalType": "address",
          "name": "newAdmin",
          "type": "address"
        }
      ],
      "name": "AdminChanged",
      "type": "event"
    },
    {
      "anonymous": false,
      "inputs": [
        {
          "indexed": true,
          "internalType": "address",
          "name": "owner",
          "type": "address"
        },
        {
          "indexed": true,
          "internalType": "address",
          "name": "spender",
          "type": "address"
        },
        {
          "indexed": false,
          "internalType": "uint256",
          "name": "value",
          "type": "uint256"
        }
      ],
      "name": "Approval",
      "type": "event"
    },
    {
      "anonymous": false,
      "inputs": [
        {
          "indexed": true,
          "internalType": "address",
          "name": "beacon",
          "type": "address"
        }
      ],
      "name": "BeaconUpgraded",
      "type": "event"
    },
    {
      "anonymous": false,
      "inputs": [
        {
          "indexed": false,
          "internalType": "address",
          "name": "depositor",
          "type": "address"
        },
        {
          "indexed": false,
          "internalType": "uint256",
          "name": "fees",
          "type": "uint256"
        }
      ],
      "name": "DepositFeePaid",
      "type": "event"
    },
    {
      "anonymous": false,
      "inputs": [
        {
          "indexed": false,
          "internalType": "address",
          "name": "erc20Addr",
          "type": "address"
        },
        {
          "indexed": false,
          "internalType": "uint256",
          "name": "amount",
          "type": "uint256"
        }
      ],
      "name": "Deposited",
      "type": "event"
    },
    {
      "anonymous": false,
      "inputs": [
        {
          "indexed": false,
          "internalType": "address",
          "name": "feeCalculator",
          "type": "address"
        }
      ],
      "name": "FeeCalculatorUpdated",
      "type": "event"
    },
    {
      "anonymous": false,
      "inputs": [
        {
          "indexed": false,
          "internalType": "address",
          "name": "filter",
          "type": "address"
        }
      ],
      "name": "FilterUpdated",
      "type": "event"
    },
    {
      "anonymous": false,
      "inputs": [
        {
          "indexed": false,
          "internalType": "uint8",
          "name": "version",
          "type": "uint8"
        }
      ],
      "name": "Initialized",
      "type": "event"
    },
    {
      "anonymous": false,
      "inputs": [
        {
          "indexed": true,
          "internalType": "address",
          "name": "previousOwner",
          "type": "address"
        },
        {
          "indexed": true,
          "internalType": "address",
          "name": "newOwner",
          "type": "address"
        }
      ],
      "name": "OwnershipTransferred",
      "type": "event"
    },
    {
      "anonymous": false,
      "inputs": [
        {
          "indexed": false,
          "internalType": "address",
          "name": "account",
          "type": "address"
        }
      ],
      "name": "Paused",
      "type": "event"
    },
    {
      "anonymous": false,
      "inputs": [
        {
          "indexed": false,
          "internalType": "uint256",
          "name": "feeBp",
          "type": "uint256"
        }
      ],
      "name": "RedeemBurnFeeUpdated",
      "type": "event"
    },
    {
      "anonymous": false,
      "inputs": [
        {
          "indexed": false,
          "internalType": "address",
          "name": "receiver",
          "type": "address"
        }
      ],
      "name": "RedeemFeeBurnAddressUpdated",
      "type": "event"
    },
    {
      "anonymous": false,
      "inputs": [
        {
          "indexed": false,
          "internalType": "address",
          "name": "redeemer",
          "type": "address"
        },
        {
          "indexed": false,
          "internalType": "uint256",
          "name": "fees",
          "type": "uint256"
        }
      ],
      "name": "RedeemFeeBurnt",
      "type": "event"
    },
    {
      "anonymous": false,
      "inputs": [
        {
          "indexed": false,
          "internalType": "address",
          "name": "exemptedUser",
          "type": "address"
        },
        {
          "indexed": false,
          "internalType": "bool",
          "name": "isExempted",
          "type": "bool"
        }
      ],
      "name": "RedeemFeeExempted",
      "type": "event"
    },
    {
      "anonymous": false,
      "inputs": [
        {
          "indexed": false,
          "internalType": "address",
          "name": "redeemer",
          "type": "address"
        },
        {
          "indexed": false,
          "internalType": "uint256",
          "name": "fees",
          "type": "uint256"
        }
      ],
      "name": "RedeemFeePaid",
      "type": "event"
    },
    {
      "anonymous": false,
      "inputs": [
        {
          "indexed": false,
          "internalType": "address",
          "name": "receiver",
          "type": "address"
        }
      ],
      "name": "RedeemFeeReceiverUpdated",
      "type": "event"
    },
    {
      "anonymous": false,
      "inputs": [
        {
          "indexed": false,
          "internalType": "uint256",
          "name": "feeBp",
          "type": "uint256"
        }
      ],
      "name": "RedeemFeeUpdated",
      "type": "event"
    },
    {
      "anonymous": false,
      "inputs": [
        {
          "indexed": false,
          "internalType": "uint256",
          "name": "feeBp",
          "type": "uint256"
        }
      ],
      "name": "RedeemRetireFeeUpdated",
      "type": "event"
    },
    {
      "anonymous": false,
      "inputs": [
        {
          "indexed": false,
          "internalType": "address",
          "name": "account",
          "type": "address"
        },
        {
          "indexed": false,
          "internalType": "address",
          "name": "erc20",
          "type": "address"
        },
        {
          "indexed": false,
          "internalType": "uint256",
          "name": "amount",
          "type": "uint256"
        }
      ],
      "name": "Redeemed",
      "type": "event"
    },
    {
      "anonymous": false,
      "inputs": [
        {
          "indexed": false,
          "internalType": "address",
          "name": "tco2",
          "type": "address"
        }
      ],
      "name": "RemoveFeeExemptedTCO2",
      "type": "event"
    },
    {
      "anonymous": false,
      "inputs": [
        {
          "indexed": true,
          "internalType": "bytes32",
          "name": "role",
          "type": "bytes32"
        },
        {
          "indexed": true,
          "internalType": "bytes32",
          "name": "previousAdminRole",
          "type": "bytes32"
        },
        {
          "indexed": true,
          "internalType": "bytes32",
          "name": "newAdminRole",
          "type": "bytes32"
        }
      ],
      "name": "RoleAdminChanged",
      "type": "event"
    },
    {
      "anonymous": false,
      "inputs": [
        {
          "indexed": true,
          "internalType": "bytes32",
          "name": "role",
          "type": "bytes32"
        },
        {
          "indexed": true,
          "internalType": "address",
          "name": "account",
          "type": "address"
        },
        {
          "indexed": true,
          "internalType": "address",
          "name": "sender",
          "type": "address"
        }
      ],
      "name": "RoleGranted",
      "type": "event"
    },
    {
      "anonymous": false,
      "inputs": [
        {
          "indexed": true,
          "internalType": "bytes32",
          "name": "role",
          "type": "bytes32"
        },
        {
          "indexed": true,
          "internalType": "address",
          "name": "account",
          "type": "address"
        },
        {
          "indexed": true,
          "internalType": "address",
          "name": "sender",
          "type": "address"
        }
      ],
      "name": "RoleRevoked",
      "type": "event"
    },
    {
      "anonymous": false,
      "inputs": [
        {
          "indexed": false,
          "internalType": "address",
          "name": "router",
          "type": "address"
        }
      ],
      "name": "RouterUpdated",
      "type": "event"
    },
    {
      "anonymous": false,
      "inputs": [
        {
          "indexed": false,
          "internalType": "uint256",
          "name": "newCap",
          "type": "uint256"
        }
      ],
      "name": "SupplyCapUpdated",
      "type": "event"
    },
    {
      "anonymous": false,
      "inputs": [
        {
          "indexed": true,
          "internalType": "uint32",
          "name": "destinationDomain",
          "type": "uint32"
        },
        {
          "indexed": true,
          "internalType": "address",
          "name": "tco2",
          "type": "address"
        },
        {
          "indexed": false,
          "internalType": "uint256",
          "name": "amount",
          "type": "uint256"
        }
      ],
      "name": "TCO2Bridged",
      "type": "event"
    },
    {
      "anonymous": false,
      "inputs": [
        {
          "indexed": false,
          "internalType": "address[]",
          "name": "tco2s",
          "type": "address[]"
        }
      ],
      "name": "TCO2ScoringUpdated",
      "type": "event"
    },
    {
      "anonymous": false,
      "inputs": [
        {
          "indexed": true,
          "internalType": "address",
          "name": "from",
          "type": "address"
        },
        {
          "indexed": true,
          "internalType": "address",
          "name": "to",
          "type": "address"
        },
        {
          "indexed": false,
          "internalType": "uint256",
          "name": "value",
          "type": "uint256"
        }
      ],
      "name": "Transfer",
      "type": "event"
    },
    {
      "anonymous": false,
      "inputs": [
        {
          "indexed": false,
          "internalType": "address",
          "name": "account",
          "type": "address"
        }
      ],
      "name": "Unpaused",
      "type": "event"
    },
    {
      "anonymous": false,
      "inputs": [
        {
          "indexed": true,
          "internalType": "address",
          "name": "implementation",
          "type": "address"
        }
      ],
      "name": "Upgraded",
      "type": "event"
    },
    {
      "inputs": [],
      "name": "DEFAULT_ADMIN_ROLE",
      "outputs": [
        {
          "internalType": "bytes32",
          "name": "",
          "type": "bytes32"
        }
      ],
      "stateMutability": "view",
      "type": "function"
    },
    {
      "inputs": [],
      "name": "MANAGER_ROLE",
      "outputs": [
        {
          "internalType": "bytes32",
          "name": "",
          "type": "bytes32"
        }
      ],
      "stateMutability": "view",
      "type": "function"
    },
    {
      "inputs": [],
      "name": "PAUSER_ROLE",
      "outputs": [
        {
          "internalType": "bytes32",
          "name": "",
          "type": "bytes32"
        }
      ],
      "stateMutability": "view",
      "type": "function"
    },
    {
      "inputs": [],
      "name": "VERSION",
      "outputs": [
        {
          "internalType": "string",
          "name": "",
          "type": "string"
        }
      ],
      "stateMutability": "view",
      "type": "function"
    },
    {
      "inputs": [],
      "name": "VERSION_RELEASE_CANDIDATE",
      "outputs": [
        {
          "internalType": "uint256",
          "name": "",
          "type": "uint256"
        }
      ],
      "stateMutability": "view",
      "type": "function"
    },
    {
      "inputs": [
        {
          "internalType": "address",
          "name": "_address",
          "type": "address"
        }
      ],
      "name": "addRedeemFeeExemptedAddress",
      "outputs": [],
      "stateMutability": "nonpayable",
      "type": "function"
    },
    {
      "inputs": [
        {
          "internalType": "address",
          "name": "_tco2",
          "type": "address"
        }
      ],
      "name": "addRedeemFeeExemptedTCO2",
      "outputs": [],
      "stateMutability": "nonpayable",
      "type": "function"
    },
    {
      "inputs": [
        {
          "internalType": "address",
          "name": "owner",
          "type": "address"
        },
        {
          "internalType": "address",
          "name": "spender",
          "type": "address"
        }
      ],
      "name": "allowance",
      "outputs": [
        {
          "internalType": "uint256",
          "name": "",
          "type": "uint256"
        }
      ],
      "stateMutability": "view",
      "type": "function"
    },
    {
      "inputs": [
        {
          "internalType": "address",
          "name": "spender",
          "type": "address"
        },
        {
          "internalType": "uint256",
          "name": "amount",
          "type": "uint256"
        }
      ],
      "name": "approve",
      "outputs": [
        {
          "internalType": "bool",
          "name": "",
          "type": "bool"
        }
      ],
      "stateMutability": "nonpayable",
      "type": "function"
    },
    {
      "inputs": [
        {
          "internalType": "address",
          "name": "account",
          "type": "address"
        }
      ],
      "name": "balanceOf",
      "outputs": [
        {
          "internalType": "uint256",
          "name": "",
          "type": "uint256"
        }
      ],
      "stateMutability": "view",
      "type": "function"
    },
    {
      "inputs": [
        {
          "internalType": "address",
          "name": "_account",
          "type": "address"
        },
        {
          "internalType": "uint256",
          "name": "_amount",
          "type": "uint256"
        }
      ],
      "name": "bridgeBurn",
      "outputs": [],
      "stateMutability": "nonpayable",
      "type": "function"
    },
    {
      "inputs": [
        {
          "internalType": "address",
          "name": "_account",
          "type": "address"
        },
        {
          "internalType": "uint256",
          "name": "_amount",
          "type": "uint256"
        }
      ],
      "name": "bridgeMint",
      "outputs": [],
      "stateMutability": "nonpayable",
      "type": "function"
    },
    {
      "inputs": [
        {
          "internalType": "uint32",
          "name": "destinationDomain",
          "type": "uint32"
        },
        {
          "internalType": "address[]",
          "name": "tco2s",
          "type": "address[]"
        },
        {
          "internalType": "uint256[]",
          "name": "amounts",
          "type": "uint256[]"
        }
      ],
      "name": "bridgeTCO2s",
      "outputs": [],
      "stateMutability": "payable",
      "type": "function"
    },
    {
      "inputs": [
        {
          "internalType": "address[]",
          "name": "tco2s",
          "type": "address[]"
        },
        {
          "internalType": "uint256[]",
          "name": "amounts",
          "type": "uint256[]"
        },
        {
          "internalType": "bool",
          "name": "toRetire",
          "type": "bool"
        }
      ],
      "name": "calculateRedemptionFees",
      "outputs": [
        {
          "internalType": "uint256",
          "name": "totalFee",
          "type": "uint256"
        }
      ],
      "stateMutability": "view",
      "type": "function"
    },
    {
      "inputs": [
        {
          "internalType": "address",
          "name": "erc20Addr",
          "type": "address"
        }
      ],
      "name": "checkEligible",
      "outputs": [
        {
          "internalType": "bool",
          "name": "",
          "type": "bool"
        }
      ],
      "stateMutability": "view",
      "type": "function"
    },
    {
      "inputs": [],
      "name": "decimals",
      "outputs": [
        {
          "internalType": "uint8",
          "name": "",
          "type": "uint8"
        }
      ],
      "stateMutability": "view",
      "type": "function"
    },
    {
      "inputs": [
        {
          "internalType": "address",
          "name": "spender",
          "type": "address"
        },
        {
          "internalType": "uint256",
          "name": "subtractedValue",
          "type": "uint256"
        }
      ],
      "name": "decreaseAllowance",
      "outputs": [
        {
          "internalType": "bool",
          "name": "",
          "type": "bool"
        }
      ],
      "stateMutability": "nonpayable",
      "type": "function"
    },
    {
      "inputs": [
        {
          "internalType": "address",
          "name": "erc20Addr",
          "type": "address"
        },
        {
          "internalType": "uint256",
          "name": "amount",
          "type": "uint256"
        }
      ],
      "name": "deposit",
      "outputs": [
        {
          "internalType": "uint256",
          "name": "",
          "type": "uint256"
        }
      ],
      "stateMutability": "nonpayable",
      "type": "function"
    },
    {
      "inputs": [
        {
          "internalType": "uint256",
          "name": "totalFee",
          "type": "uint256"
        }
      ],
      "name": "distributeRedemptionFee",
      "outputs": [],
      "stateMutability": "nonpayable",
      "type": "function"
    },
    {
      "inputs": [],
      "name": "feeCalculator",
      "outputs": [
        {
          "internalType": "contract IFeeCalculator",
          "name": "",
          "type": "address"
        }
      ],
      "stateMutability": "view",
      "type": "function"
    },
    {
      "inputs": [],
      "name": "feeRedeemBurnAddress",
      "outputs": [
        {
          "internalType": "address",
          "name": "",
          "type": "address"
        }
      ],
      "stateMutability": "view",
      "type": "function"
    },
    {
      "inputs": [],
      "name": "feeRedeemBurnPercentageInBase",
      "outputs": [
        {
          "internalType": "uint256",
          "name": "",
          "type": "uint256"
        }
      ],
      "stateMutability": "view",
      "type": "function"
    },
    {
      "inputs": [],
      "name": "feeRedeemDivider",
      "outputs": [
        {
          "internalType": "uint256",
          "name": "",
          "type": "uint256"
        }
      ],
      "stateMutability": "view",
      "type": "function"
    },
    {
      "inputs": [],
      "name": "feeRedeemPercentageInBase",
      "outputs": [
        {
          "internalType": "uint256",
          "name": "",
          "type": "uint256"
        }
      ],
      "stateMutability": "view",
      "type": "function"
    },
    {
      "inputs": [],
      "name": "feeRedeemReceiver",
      "outputs": [
        {
          "internalType": "address",
          "name": "",
          "type": "address"
        }
      ],
      "stateMutability": "view",
      "type": "function"
    },
    {
      "inputs": [],
      "name": "feeRedeemRetirePercentageInBase",
      "outputs": [
        {
          "internalType": "uint256",
          "name": "",
          "type": "uint256"
        }
      ],
      "stateMutability": "view",
      "type": "function"
    },
    {
      "inputs": [],
      "name": "filter",
      "outputs": [
        {
          "internalType": "address",
          "name": "",
          "type": "address"
        }
      ],
      "stateMutability": "view",
      "type": "function"
    },
    {
      "inputs": [],
      "name": "getRemaining",
      "outputs": [
        {
          "internalType": "uint256",
          "name": "",
          "type": "uint256"
        }
      ],
      "stateMutability": "view",
      "type": "function"
    },
    {
      "inputs": [
        {
          "internalType": "bytes32",
          "name": "role",
          "type": "bytes32"
        }
      ],
      "name": "getRoleAdmin",
      "outputs": [
        {
          "internalType": "bytes32",
          "name": "",
          "type": "bytes32"
        }
      ],
      "stateMutability": "view",
      "type": "function"
    },
    {
      "inputs": [],
      "name": "getScoredTCO2s",
      "outputs": [
        {
          "internalType": "address[]",
          "name": "",
          "type": "address[]"
        }
      ],
      "stateMutability": "view",
      "type": "function"
    },
    {
      "inputs": [
        {
          "internalType": "bytes32",
          "name": "role",
          "type": "bytes32"
        },
        {
          "internalType": "address",
          "name": "account",
          "type": "address"
        }
      ],
      "name": "grantRole",
      "outputs": [],
      "stateMutability": "nonpayable",
      "type": "function"
    },
    {
      "inputs": [
        {
          "internalType": "bytes32",
          "name": "role",
          "type": "bytes32"
        },
        {
          "internalType": "address",
          "name": "account",
          "type": "address"
        }
      ],
      "name": "hasRole",
      "outputs": [
        {
          "internalType": "bool",
          "name": "",
          "type": "bool"
        }
      ],
      "stateMutability": "view",
      "type": "function"
    },
    {
      "inputs": [
        {
          "internalType": "address",
          "name": "spender",
          "type": "address"
        },
        {
          "internalType": "uint256",
          "name": "addedValue",
          "type": "uint256"
        }
      ],
      "name": "increaseAllowance",
      "outputs": [
        {
          "internalType": "bool",
          "name": "",
          "type": "bool"
        }
      ],
      "stateMutability": "nonpayable",
      "type": "function"
    },
    {
      "inputs": [],
      "name": "initialize",
      "outputs": [],
      "stateMutability": "nonpayable",
      "type": "function"
    },
    {
      "inputs": [
        {
          "internalType": "string",
          "name": "methodology",
          "type": "string"
        }
      ],
      "name": "methodologies",
      "outputs": [
        {
          "internalType": "bool",
          "name": "",
          "type": "bool"
        }
      ],
      "stateMutability": "view",
      "type": "function"
    },
    {
      "inputs": [],
      "name": "minimumVintageStartTime",
      "outputs": [
        {
          "internalType": "uint64",
          "name": "",
          "type": "uint64"
        }
      ],
      "stateMutability": "view",
      "type": "function"
    },
    {
      "inputs": [],
      "name": "name",
      "outputs": [
        {
          "internalType": "string",
          "name": "",
          "type": "string"
        }
      ],
      "stateMutability": "view",
      "type": "function"
    },
    {
      "inputs": [],
      "name": "owner",
      "outputs": [
        {
          "internalType": "address",
          "name": "",
          "type": "address"
        }
      ],
      "stateMutability": "view",
      "type": "function"
    },
    {
      "inputs": [],
      "name": "pause",
      "outputs": [],
      "stateMutability": "nonpayable",
      "type": "function"
    },
    {
      "inputs": [],
      "name": "paused",
      "outputs": [
        {
          "internalType": "bool",
          "name": "",
          "type": "bool"
        }
      ],
      "stateMutability": "view",
      "type": "function"
    },
    {
      "inputs": [],
      "name": "proxiableUUID",
      "outputs": [
        {
          "internalType": "bytes32",
          "name": "",
          "type": "bytes32"
        }
      ],
      "stateMutability": "view",
      "type": "function"
    },
    {
      "inputs": [
        {
          "internalType": "uint32",
          "name": "destinationDomain",
          "type": "uint32"
        },
        {
          "internalType": "address[]",
          "name": "tco2s",
          "type": "address[]"
        },
        {
          "internalType": "uint256[]",
          "name": "amounts",
          "type": "uint256[]"
        }
      ],
      "name": "quoteBridgeTCO2sFee",
      "outputs": [
        {
          "internalType": "uint256",
          "name": "fee",
          "type": "uint256"
        }
      ],
      "stateMutability": "view",
      "type": "function"
    },
    {
      "inputs": [
        {
          "internalType": "address",
          "name": "tco2",
          "type": "address"
        },
        {
          "internalType": "uint256",
          "name": "amount",
          "type": "uint256"
        }
      ],
      "name": "redeemAndBurn",
      "outputs": [],
      "stateMutability": "nonpayable",
      "type": "function"
    },
    {
      "inputs": [
        {
          "internalType": "address[]",
          "name": "tco2s",
          "type": "address[]"
        },
        {
          "internalType": "uint256[]",
          "name": "amounts",
          "type": "uint256[]"
        }
      ],
      "name": "redeemAndRetireMany",
      "outputs": [
        {
          "internalType": "uint256[]",
          "name": "retirementIds",
          "type": "uint256[]"
        },
        {
          "internalType": "uint256[]",
          "name": "redeemedAmounts",
          "type": "uint256[]"
        }
      ],
      "stateMutability": "nonpayable",
      "type": "function"
    },
    {
      "inputs": [
        {
          "internalType": "uint256",
          "name": "amount",
          "type": "uint256"
        }
      ],
      "name": "redeemAuto",
      "outputs": [
        {
          "internalType": "address[]",
          "name": "tco2s",
          "type": "address[]"
        },
        {
          "internalType": "uint256[]",
          "name": "amounts",
          "type": "uint256[]"
        }
      ],
      "stateMutability": "nonpayable",
      "type": "function"
    },
    {
      "inputs": [
        {
          "internalType": "uint256",
          "name": "amount",
          "type": "uint256"
        }
      ],
      "name": "redeemAuto2",
      "outputs": [
        {
          "internalType": "address[]",
          "name": "tco2s",
          "type": "address[]"
        },
        {
          "internalType": "uint256[]",
          "name": "amounts",
          "type": "uint256[]"
        }
      ],
      "stateMutability": "nonpayable",
      "type": "function"
    },
    {
      "inputs": [
        {
          "internalType": "address",
          "name": "",
          "type": "address"
        }
      ],
      "name": "redeemFeeExemptedAddresses",
      "outputs": [
        {
          "internalType": "bool",
          "name": "",
          "type": "bool"
        }
      ],
      "stateMutability": "view",
      "type": "function"
    },
    {
      "inputs": [
        {
          "internalType": "address",
          "name": "",
          "type": "address"
        }
      ],
      "name": "redeemFeeExemptedTCO2s",
      "outputs": [
        {
          "internalType": "bool",
          "name": "",
          "type": "bool"
        }
      ],
      "stateMutability": "view",
      "type": "function"
    },
    {
      "inputs": [
        {
          "internalType": "address[]",
          "name": "tco2s",
          "type": "address[]"
        },
        {
          "internalType": "uint256[]",
          "name": "amounts",
          "type": "uint256[]"
        }
      ],
      "name": "redeemMany",
      "outputs": [
        {
          "internalType": "uint256[]",
          "name": "redeemedAmounts",
          "type": "uint256[]"
        }
      ],
      "stateMutability": "nonpayable",
      "type": "function"
    },
    {
      "inputs": [
        {
          "internalType": "string",
          "name": "region",
          "type": "string"
        }
      ],
      "name": "regions",
      "outputs": [
        {
          "internalType": "bool",
          "name": "",
          "type": "bool"
        }
      ],
      "stateMutability": "view",
      "type": "function"
    },
    {
      "inputs": [
        {
          "internalType": "address",
          "name": "_address",
          "type": "address"
        }
      ],
      "name": "removeRedeemFeeExemptedAddress",
      "outputs": [],
      "stateMutability": "nonpayable",
      "type": "function"
    },
    {
      "inputs": [
        {
          "internalType": "address",
          "name": "_tco2",
          "type": "address"
        }
      ],
      "name": "removeRedeemFeeExemptedTCO2",
      "outputs": [],
      "stateMutability": "nonpayable",
      "type": "function"
    },
    {
      "inputs": [],
      "name": "renounceOwnership",
      "outputs": [],
      "stateMutability": "nonpayable",
      "type": "function"
    },
    {
      "inputs": [
        {
          "internalType": "bytes32",
          "name": "role",
          "type": "bytes32"
        },
        {
          "internalType": "address",
          "name": "account",
          "type": "address"
        }
      ],
      "name": "renounceRole",
      "outputs": [],
      "stateMutability": "nonpayable",
      "type": "function"
    },
    {
      "inputs": [
        {
          "internalType": "bytes32",
          "name": "role",
          "type": "bytes32"
        },
        {
          "internalType": "address",
          "name": "account",
          "type": "address"
        }
      ],
      "name": "revokeRole",
      "outputs": [],
      "stateMutability": "nonpayable",
      "type": "function"
    },
    {
      "inputs": [],
      "name": "router",
      "outputs": [
        {
          "internalType": "address",
          "name": "",
          "type": "address"
        }
      ],
      "stateMutability": "view",
      "type": "function"
    },
    {
      "inputs": [
        {
          "internalType": "uint256",
          "name": "",
          "type": "uint256"
        }
      ],
      "name": "scoredTCO2s",
      "outputs": [
        {
          "internalType": "address",
          "name": "",
          "type": "address"
        }
      ],
      "stateMutability": "view",
      "type": "function"
    },
    {
      "inputs": [
        {
          "internalType": "address",
          "name": "_feeCalculator",
          "type": "address"
        }
      ],
      "name": "setFeeCalculator",
      "outputs": [],
      "stateMutability": "nonpayable",
      "type": "function"
    },
    {
      "inputs": [
        {
          "internalType": "address",
          "name": "_feeRedeemBurnAddress",
          "type": "address"
        }
      ],
      "name": "setFeeRedeemBurnAddress",
      "outputs": [],
      "stateMutability": "nonpayable",
      "type": "function"
    },
    {
      "inputs": [
        {
          "internalType": "uint256",
          "name": "_feeRedeemBurnPercentageInBase",
          "type": "uint256"
        }
      ],
      "name": "setFeeRedeemBurnPercentage",
      "outputs": [],
      "stateMutability": "nonpayable",
      "type": "function"
    },
    {
      "inputs": [
        {
          "internalType": "uint256",
          "name": "_feeBp",
          "type": "uint256"
        }
      ],
      "name": "setFeeRedeemPercentage",
      "outputs": [],
      "stateMutability": "nonpayable",
      "type": "function"
    },
    {
      "inputs": [
        {
          "internalType": "address",
          "name": "_feeRedeemReceiver",
          "type": "address"
        }
      ],
      "name": "setFeeRedeemReceiver",
      "outputs": [],
      "stateMutability": "nonpayable",
      "type": "function"
    },
    {
      "inputs": [
        {
          "internalType": "uint256",
          "name": "_feeBp",
          "type": "uint256"
        }
      ],
      "name": "setFeeRedeemRetirePercentage",
      "outputs": [],
      "stateMutability": "nonpayable",
      "type": "function"
    },
    {
      "inputs": [
        {
          "internalType": "address",
          "name": "_filter",
          "type": "address"
        }
      ],
      "name": "setFilter",
      "outputs": [],
      "stateMutability": "nonpayable",
      "type": "function"
    },
    {
      "inputs": [
        {
          "internalType": "address",
          "name": "_router",
          "type": "address"
        }
      ],
      "name": "setRouter",
      "outputs": [],
      "stateMutability": "nonpayable",
      "type": "function"
    },
    {
      "inputs": [
        {
          "internalType": "uint256",
          "name": "newCap",
          "type": "uint256"
        }
      ],
      "name": "setSupplyCap",
      "outputs": [],
      "stateMutability": "nonpayable",
      "type": "function"
    },
    {
      "inputs": [
        {
          "internalType": "address[]",
          "name": "tco2s",
          "type": "address[]"
        }
      ],
      "name": "setTCO2Scoring",
      "outputs": [],
      "stateMutability": "nonpayable",
      "type": "function"
    },
    {
      "inputs": [
        {
          "internalType": "string",
          "name": "standard",
          "type": "string"
        }
      ],
      "name": "standards",
      "outputs": [
        {
          "internalType": "bool",
          "name": "",
          "type": "bool"
        }
      ],
      "stateMutability": "view",
      "type": "function"
    },
    {
      "inputs": [],
      "name": "supplyCap",
      "outputs": [
        {
          "internalType": "uint256",
          "name": "",
          "type": "uint256"
        }
      ],
      "stateMutability": "view",
      "type": "function"
    },
    {
      "inputs": [
        {
          "internalType": "bytes4",
          "name": "interfaceId",
          "type": "bytes4"
        }
      ],
      "name": "supportsInterface",
      "outputs": [
        {
          "internalType": "bool",
          "name": "",
          "type": "bool"
        }
      ],
      "stateMutability": "view",
      "type": "function"
    },
    {
      "inputs": [],
      "name": "symbol",
      "outputs": [
        {
          "internalType": "string",
          "name": "",
          "type": "string"
        }
      ],
      "stateMutability": "view",
      "type": "function"
    },
    {
      "inputs": [
        {
          "internalType": "address",
          "name": "tco2",
          "type": "address"
        }
      ],
      "name": "tokenBalances",
      "outputs": [
        {
          "internalType": "uint256",
          "name": "",
          "type": "uint256"
        }
      ],
      "stateMutability": "view",
      "type": "function"
    },
    {
      "inputs": [],
      "name": "totalSupply",
      "outputs": [
        {
          "internalType": "uint256",
          "name": "",
          "type": "uint256"
        }
      ],
      "stateMutability": "view",
      "type": "function"
    },
    {
      "inputs": [
        {
          "internalType": "address",
          "name": "recipient",
          "type": "address"
        },
        {
          "internalType": "uint256",
          "name": "amount",
          "type": "uint256"
        }
      ],
      "name": "transfer",
      "outputs": [
        {
          "internalType": "bool",
          "name": "",
          "type": "bool"
        }
      ],
      "stateMutability": "nonpayable",
      "type": "function"
    },
    {
      "inputs": [
        {
          "internalType": "address",
          "name": "sender",
          "type": "address"
        },
        {
          "internalType": "address",
          "name": "recipient",
          "type": "address"
        },
        {
          "internalType": "uint256",
          "name": "amount",
          "type": "uint256"
        }
      ],
      "name": "transferFrom",
      "outputs": [
        {
          "internalType": "bool",
          "name": "",
          "type": "bool"
        }
      ],
      "stateMutability": "nonpayable",
      "type": "function"
    },
    {
      "inputs": [
        {
          "internalType": "address",
          "name": "newOwner",
          "type": "address"
        }
      ],
      "name": "transferOwnership",
      "outputs": [],
      "stateMutability": "nonpayable",
      "type": "function"
    },
    {
      "inputs": [],
      "name": "unpause",
      "outputs": [],
      "stateMutability": "nonpayable",
      "type": "function"
    },
    {
      "inputs": [
        {
          "internalType": "address",
          "name": "newImplementation",
          "type": "address"
        }
      ],
      "name": "upgradeTo",
      "outputs": [],
      "stateMutability": "nonpayable",
      "type": "function"
    },
    {
      "inputs": [
        {
          "internalType": "address",
          "name": "newImplementation",
          "type": "address"
        },
        {
          "internalType": "bytes",
          "name": "data",
          "type": "bytes"
        }
      ],
      "name": "upgradeToAndCall",
      "outputs": [],
      "stateMutability": "payable",
      "type": "function"
    }
  ],
  "numDeployments": 1,
  "solcInputHash": "1b10ec530debbefe63d37e0d8798c654",
  "bytecode": "0x60a0604052306080523480156200001557600080fd5b506200002062000026565b62000156565b6200003260ff62000035565b50565b60008054610100900460ff1615620000ce578160ff1660011480156200006e57506200006c306200014760201b62002b881760201c565b155b620000c65760405162461bcd60e51b815260206004820152602e60248201526000805160206200542e83398151915260448201526d191e481a5b9a5d1a585b1a5e995960921b60648201526084015b60405180910390fd5b506000919050565b60005460ff8084169116106200012d5760405162461bcd60e51b815260206004820152602e60248201526000805160206200542e83398151915260448201526d191e481a5b9a5d1a585b1a5e995960921b6064820152608401620000bd565b506000805460ff191660ff92909216919091179055600190565b6001600160a01b03163b151590565b6080516152a06200018e600039600081816112b0015281816112f001528181611c5c01528181611c9c0152611d9601526152a06000f3fe6080604052600436106104685760003560e01c80638129fc1c1161024a578063bbe669eb11610139578063e07f744c116100b6578063f2fde38b1161007a578063f2fde38b14610dbe578063f3edb9ec14610dde578063f75991cd14610dfe578063f887ea4014610e1e578063ffa1ad7414610e3f57600080fd5b8063e07f744c14610d12578063e0d7cad914610d32578063e63ab1e914610d48578063e9d131ad14610d7c578063ec87621c14610d9c57600080fd5b8063d6a022b8116100fd578063d6a022b814610c86578063d80e05aa14610c9b578063dc5f560e14610cbb578063dd62ed3e14610cdb578063dff0f52314610cfb57600080fd5b8063bbe669eb14610bd6578063bf2f870f14610bf6578063c0d7865514610c18578063cd7325f614610c38578063d547741f14610c6657600080fd5b8063963ff55e116101c7578063a9059cbb1161018b578063a9059cbb14610b3e578063aa61cb2714610b5e578063b00eb9fe14610b75578063b516f8cf14610b96578063b6a3f59a14610bb657600080fd5b8063963ff55e14610aa5578063a1631e4b14610ac5578063a217fddf14610af2578063a457c2d714610b07578063a7381a6414610b2757600080fd5b80638c66d04f1161020e5780638c66d04f14610a1b5780638da5cb5b14610a3b5780638f770ad014610a5957806391d1485414610a7057806395d89b4114610a9057600080fd5b80638129fc1c146109915780638456cb59146109a65780638662522f146109bb57806389022e2e146109db5780638c2a993e146109fb57600080fd5b80633a9a77ee11610366578063539eee37116102e357806370a08231116102a757806370a08231146108e6578063715018a61461091c57806374f4f5471461093157806379255ddd146109515780637c0ab3671461097157600080fd5b8063539eee37146108585780635c975abb146108785780635fadcc1e146108905780636ca0b0d7146108b15780636dbb3102146108c657600080fd5b806347e7ef241161032a57806347e7ef24146107d05780634c02cad1146107f05780634f1ef28614610810578063523fba7f1461082357806352d1902d1461084357600080fd5b80633a9a77ee146107475780633d2afced146107685780633ebc2df11461077b5780633f4ba83a1461079b5780634642547b146107b057600080fd5b806323b872dd116103f45780632f2ff15d116103b85780632f2ff15d146106ab578063313ce567146106cb57806336568abe146106e75780633659cfe614610707578063395093511461072757600080fd5b806323b872dd146105c4578063248a9ca3146105e457806324adbf4d146106145780632b540f191461064d5780632b5541421461067e57600080fd5b80630b7d28c71161043b5780630b7d28c7146105065780630e2d15ab1461052657806318160ddd146105575780631e1fa3bd1461057657806320b167f91461059657600080fd5b806301ffc9a71461046d57806306fdde03146104a2578063095ea7b3146104c45780630ae6ed8f146104e4575b600080fd5b34801561047957600080fd5b5061048d61048836600461461a565b610e70565b60405190151581526020015b60405180910390f35b3480156104ae57600080fd5b506104b7610ea7565b6040516104999190614670565b3480156104d057600080fd5b5061048d6104df3660046146b8565b610f39565b3480156104f057600080fd5b506105046104ff3660046146e4565b610f51565b005b34801561051257600080fd5b506105046105213660046146fd565b610fea565b34801561053257600080fd5b5061048d6105413660046146fd565b6101a06020526000908152604090205460ff1681565b34801561056357600080fd5b506035545b604051908152602001610499565b34801561058257600080fd5b50610568610591366004614765565b61104e565b3480156105a257600080fd5b506105b66105b13660046146e4565b6111b0565b604051610499929190614864565b3480156105d057600080fd5b5061048d6105df366004614889565b6111c5565b3480156105f057600080fd5b506105686105ff3660046146e4565b600090815260fb602052604090206001015490565b34801561062057600080fd5b5061019b54610635906001600160a01b031681565b6040516001600160a01b039091168152602001610499565b34801561065957600080fd5b5061048d6106683660046146fd565b6101a16020526000908152604090205460ff1681565b34801561068a57600080fd5b5061069e610699366004614a02565b6111e8565b6040516104999190614a65565b3480156106b757600080fd5b506105046106c6366004614a78565b6111fe565b3480156106d757600080fd5b5060405160128152602001610499565b3480156106f357600080fd5b50610504610702366004614a78565b611228565b34801561071357600080fd5b506105046107223660046146fd565b6112a6565b34801561073357600080fd5b5061048d6107423660046146b8565b611385565b34801561075357600080fd5b5061019d54610635906001600160a01b031681565b610504610776366004614765565b6113a7565b34801561078757600080fd5b506105046107963660046146fd565b6115cf565b3480156107a757600080fd5b50610504611626565b3480156107bc57600080fd5b506105046107cb3660046146fd565b611659565b3480156107dc57600080fd5b506105686107eb3660046146b8565b6116b9565b3480156107fc57600080fd5b506105b661080b3660046146e4565b611972565b61050461081e366004614aa8565b611c52565b34801561082f57600080fd5b5061056861083e3660046146fd565b611d1e565b34801561084f57600080fd5b50610568611d89565b34801561086457600080fd5b50610568610873366004614b5d565b611e3c565b34801561088457600080fd5b5060975460ff1661048d565b34801561089c57600080fd5b506101a454610635906001600160a01b031681565b3480156108bd57600080fd5b50610568600181565b3480156108d257600080fd5b506105046108e13660046146fd565b611f12565b3480156108f257600080fd5b506105686109013660046146fd565b6001600160a01b031660009081526033602052604090205490565b34801561092857600080fd5b50610504611f6f565b34801561093d57600080fd5b5061050461094c3660046146b8565b611fd3565b34801561095d57600080fd5b5061050461096c3660046146e4565b611fe5565b34801561097d57600080fd5b5061050461098c3660046146e4565b61205f565b34801561099d57600080fd5b50610504612193565b3480156109b257600080fd5b50610504612271565b3480156109c757600080fd5b5061048d6109d6366004614bd4565b6122a2565b3480156109e757600080fd5b506105046109f63660046146b8565b612317565b348015610a0757600080fd5b50610504610a163660046146b8565b6123e5565b348015610a2757600080fd5b50610504610a363660046146fd565b6123f7565b348015610a4757600080fd5b506065546001600160a01b0316610635565b348015610a6557600080fd5b506105686101915481565b348015610a7c57600080fd5b5061048d610a8b366004614a78565b61244e565b348015610a9c57600080fd5b506104b7612479565b348015610ab157600080fd5b50610635610ac03660046146e4565b612488565b348015610ad157600080fd5b50610ada6124b3565b6040516001600160401b039091168152602001610499565b348015610afe57600080fd5b50610568600081565b348015610b1357600080fd5b5061048d610b223660046146b8565b612527565b348015610b3357600080fd5b5061056861019e5481565b348015610b4a57600080fd5b5061048d610b593660046146b8565b6125ad565b348015610b6a57600080fd5b506105686101a35481565b348015610b8157600080fd5b506101a554610635906001600160a01b031681565b348015610ba257600080fd5b50610504610bb13660046146fd565b6125c2565b348015610bc257600080fd5b50610504610bd13660046146e4565b61265a565b348015610be257600080fd5b50610504610bf1366004614c45565b612698565b348015610c0257600080fd5b50610c0b612731565b6040516104999190614c86565b348015610c2457600080fd5b50610504610c333660046146fd565b612793565b348015610c4457600080fd5b50610c58610c53366004614a02565b6127ea565b604051610499929190614c99565b348015610c7257600080fd5b50610504610c81366004614a78565b612804565b348015610c9257600080fd5b50610568612829565b348015610ca757600080fd5b50610504610cb63660046146fd565b612842565b348015610cc757600080fd5b5061048d610cd63660046146fd565b61289c565b348015610ce757600080fd5b50610568610cf6366004614cac565b61290c565b348015610d0757600080fd5b5061056861019c5481565b348015610d1e57600080fd5b50610504610d2d3660046146fd565b612937565b348015610d3e57600080fd5b5061056861271081565b348015610d5457600080fd5b506105687f65d7a28e3265b37a6474929f336521b332c1681b933f6cb9f3376673440d862a81565b348015610d8857600080fd5b50610504610d973660046146e4565b6129cf565b348015610da857600080fd5b5061056860008051602061522483398151915281565b348015610dca57600080fd5b50610504610dd93660046146fd565b612a58565b348015610dea57600080fd5b5061048d610df9366004614bd4565b612b20565b348015610e0a57600080fd5b5061048d610e19366004614bd4565b612b54565b348015610e2a57600080fd5b506101a254610635906001600160a01b031681565b348015610e4b57600080fd5b506104b7604051806040016040528060058152602001640312e302e360dc1b81525081565b60006001600160e01b03198216637965db0b60e01b1480610ea157506301ffc9a760e01b6001600160e01b03198316145b92915050565b606060368054610eb690614cda565b80601f0160208091040260200160405190810160405280929190818152602001828054610ee290614cda565b8015610f2f5780601f10610f0457610100808354040283529160200191610f2f565b820191906000526020600020905b815481529060010190602001808311610f1257829003601f168201915b5050505050905090565b600033610f47818585612b97565b5060019392505050565b610f68600080516020615224833981519152612cbb565b604080518082019091526002815261031360f41b60208201526127108210610fac5760405162461bcd60e51b8152600401610fa39190614670565b60405180910390fd5b506101a38190556040518181527ff43ba0ebbfc97d9bed5cedfa0a1d81593cf263c533088e44268900db87ae4ef8906020015b60405180910390a150565b610ff2612d21565b6001600160a01b03811660008181526101a06020908152604091829020805460ff191660019081179091558251938452908301527f9243c023afac8831ce7d7574176d51e9cbdff271c07285080839f677ff57a6b49101610fdf565b604080518082019091526002815261189960f11b6020820152600090849083821461108c5760405162461bcd60e51b8152600401610fa39190614670565b506101a2546001600160a01b031660006110a6828a612d77565b905060005b838110156111a357826001600160a01b031663d9e7e0b78b8b8b858181106110d5576110d5614d14565b90506020020160208101906110ea91906146fd565b8a8a868181106110fc576110fc614d14565b6040516001600160e01b031960e088901b16815263ffffffff9590951660048601526001600160a01b039384166024860152602002919091013560448401525085166064820152608401602060405180830381865afa158015611163573d6000803e3d6000fd5b505050506040513d601f19601f820116820180604052508101906111879190614d2a565b6111919086614d59565b945061119c81614d71565b90506110ab565b5050505095945050505050565b6060806111bc83611972565b91509150915091565b60006111d083612e3f565b6111db848484612ec2565b50600190505b9392505050565b60606111f683836000612edb565b949350505050565b600082815260fb6020526040902060010154611219816131cd565b61122383836131d7565b505050565b6001600160a01b03811633146112985760405162461bcd60e51b815260206004820152602f60248201527f416363657373436f6e74726f6c3a2063616e206f6e6c792072656e6f756e636560448201526e103937b632b9903337b91039b2b63360891b6064820152608401610fa3565b6112a2828261325d565b5050565b6001600160a01b037f00000000000000000000000000000000000000000000000000000000000000001630036112ee5760405162461bcd60e51b8152600401610fa390614d8a565b7f00000000000000000000000000000000000000000000000000000000000000006001600160a01b0316611337600080516020615204833981519152546001600160a01b031690565b6001600160a01b03161461135d5760405162461bcd60e51b8152600401610fa390614dd6565b611366816132c4565b60408051600080825260208201909252611382918391906132cc565b50565b600033610f47818585611398838361290c565b6113a29190614d59565b612b97565b6113be600080516020615224833981519152612cbb565b6040805180820190915260018152601960f91b60208201528390816113f65760405162461bcd60e51b8152600401610fa39190614670565b50604080518082019091526002815261189960f11b60208201528183146114305760405162461bcd60e51b8152600401610fa39190614670565b506101a2546001600160a01b0316600061144a8289612d77565b905060006114588434614e22565b905060005b848110156115c357836001600160a01b031663d3f6c4f1838c8c8c8681811061148857611488614d14565b905060200201602081019061149d91906146fd565b8b8b878181106114af576114af614d14565b6040516001600160e01b031960e089901b16815263ffffffff9590951660048601526001600160a01b0393841660248601526020029190910135604484015250871660648201526084016000604051808303818588803b15801561151257600080fd5b505af1158015611526573d6000803e3d6000fd5b505050505088888281811061153d5761153d614d14565b905060200201602081019061155291906146fd565b6001600160a01b03168a63ffffffff167f36d0f926f9bce41fb6e90938955b971cee6bbdfbce772aadd3d6c824f037279789898581811061159557611595614d14565b905060200201356040516115ab91815260200190565b60405180910390a36115bc81614d71565b905061145d565b50505050505050505050565b6115d7612d21565b6101a480546001600160a01b0319166001600160a01b0383169081179091556040519081527fcc693712a2055d921e821f24fea7e18faff35a4e741d180badc0b05a0c275e6a90602001610fdf565b61164f7f65d7a28e3265b37a6474929f336521b332c1681b933f6cb9f3376673440d862a612cbb565b611657613437565b565b611661612d21565b6001600160a01b03811660008181526101a060209081526040808320805460ff191690558051938452908301919091527f9243c023afac8831ce7d7574176d51e9cbdff271c07285080839f677ff57a6b49101610fdf565b60006116c36134ca565b6116cc8361289c565b60405180604001604052806002815260200161191960f11b815250906117055760405162461bcd60e51b8152600401610fa39190614670565b506000611710612829565b6040805180820190915260018152603360f81b6020820152909150816117495760405162461bcd60e51b8152600401610fa39190614670565b5080831115611756578092505b6101a55460009084906001600160a01b0316156117f2576101a554604051638925ba9f60e01b81526001600160a01b0390911690638925ba9f906117a290899030908690600401614e44565b602060405180830381865afa1580156117bf573d6000803e3d6000fd5b505050506040513d601f19601f820116820180604052508101906117e39190614d2a565b91506117ef8282614e68565b90505b6117fc338261350a565b604080516001600160a01b0388168152602081018790527f2da466a7b24304f47e87fa2e1e5a81b9831ce54fec19055ce277ca2f39ba42c4910160405180910390a18115611954576101a55460405163345127f160e11b81526004810184905260009182916001600160a01b03909116906368a24fe290602401600060405180830381865afa158015611893573d6000803e3d6000fd5b505050506040513d6000823e601f3d908101601f191682016040526118bb9190810190614eda565b9150915060005b8251811015611917576119078382815181106118e0576118e0614d14565b60200260200101518383815181106118fa576118fa614d14565b602002602001015161350a565b61191081614d71565b90506118c2565b5060408051338152602081018690527f4658b473764413b8a15e16e464adf1ee318894b37e86cf2fd44a70bca04f6502910160405180910390a150505b6119696001600160a01b0387163330886135f5565b95945050505050565b60608061197d6134ca565b604080518082019091526002815261323160f01b6020820152836119b45760405162461bcd60e51b8152600401610fa39190614670565b506101945460009081905b6000861180156119ce57508083105b15611b3c57600061019484815481106119e9576119e9614d14565b60009182526020822001546001600160a01b03169150611a0882611d1e565b905060008115611a3657818911611a1f5788611a21565b815b9050611a2d818a614e68565b98508460010194505b85600101955088600003611b3457846001600160401b03811115611a5c57611a5c6148ca565b604051908082528060200260200182016040528015611a85578160200160208202803683370190505b509750846001600160401b03811115611aa057611aa06148ca565b604051908082528060200260200182016040528015611ac9578160200160208202803683370190505b5096508288611ad9600188614e68565b81518110611ae957611ae9614d14565b6001600160a01b03909216602092830291909101909101528087611b0e600188614e68565b81518110611b1e57611b1e614d14565b602002602001018181525050611b34838261364d565b5050506119bf565b604080518082019091526002815261313560f01b60208201528615611b745760405162461bcd60e51b8152600401610fa39190614670565b506000915060005b611b87600185614e68565b811015611c495760006101948281548110611ba457611ba4614d14565b60009182526020822001546001600160a01b03169150611bc382611d1e565b905080600003611bd4575050611c39565b81888681518110611be757611be7614d14565b60200260200101906001600160a01b031690816001600160a01b03168152505080878681518110611c1a57611c1a614d14565b602002602001018181525050611c30828261364d565b84600101945050505b611c4281614d71565b9050611b7c565b50505050915091565b6001600160a01b037f0000000000000000000000000000000000000000000000000000000000000000163003611c9a5760405162461bcd60e51b8152600401610fa390614d8a565b7f00000000000000000000000000000000000000000000000000000000000000006001600160a01b0316611ce3600080516020615204833981519152546001600160a01b031690565b6001600160a01b031614611d095760405162461bcd60e51b8152600401610fa390614dd6565b611d12826132c4565b6112a2828260016132cc565b6040516370a0823160e01b81523060048201526000906001600160a01b038316906370a0823190602401602060405180830381865afa158015611d65573d6000803e3d6000fd5b505050506040513d601f19601f82011682018060405250810190610ea19190614d2a565b6000306001600160a01b037f00000000000000000000000000000000000000000000000000000000000000001614611e295760405162461bcd60e51b815260206004820152603860248201527f555550535570677261646561626c653a206d757374206e6f742062652063616c60448201527f6c6564207468726f7567682064656c656761746563616c6c00000000000000006064820152608401610fa3565b5060008051602061520483398151915290565b6000611e466134ca565b3360009081526101a0602052604090205460ff1615611e67575060006111e1565b83518351604080518082019091526002815261189960f11b6020820152908214611ea45760405162461bcd60e51b8152600401610fa39190614670565b5060005b81811015611f0957611eed868281518110611ec557611ec5614d14565b6020026020010151868381518110611edf57611edf614d14565b60200260200101518661369e565b611ef79084614d59565b9250611f0281614d71565b9050611ea8565b50509392505050565b611f1a612d21565b6001600160a01b03811660008181526101a16020908152604091829020805460ff1916600117905590519182527fbfe78aa03afab7296923112293cb902a2fe6df5a6d3d81e1933c652c4cf860f49101610fdf565b6065546001600160a01b03163314611fc95760405162461bcd60e51b815260206004820181905260248201527f4f776e61626c653a2063616c6c6572206973206e6f7420746865206f776e65726044820152606401610fa3565b6116576000613739565b611fdb61378b565b6112a282826137d1565b611fed612d21565b604080518082019091526002815261031360f41b602082015261271082106120285760405162461bcd60e51b8152600401610fa39190614670565b5061019e8190556040518181527fb53960c69c6a03b9c2457d50976610ab54438aea64f693512228035729dde0e990602001610fdf565b60008061206b8361392b565b9150915060005b825181101561218d57600082828151811061208f5761208f614d14565b60200260200101519050600061271061019e54836120ad9190614f94565b6120b79190614e22565b90506120c38183614e68565b91506120e88584815181106120da576120da614d14565b6020026020010151836125ad565b5060408051338152602081018890527f3f89e1d936a29a8de9ae9040436992721a00bc63bbe3ca55692b95f0311640b2910160405180910390a1801561217a5761019d5461213f906001600160a01b0316826125ad565b5060408051338152602081018390527f932bd968974f0b6fa1cb59bf961f81d2e57b39332d311b413dceae17966387db910160405180910390a15b50508061218690614d71565b9050612072565b50505050565b600061219f6001613a5a565b905080156121b7576000805461ff0019166101001790555b6121bf613ae2565b6121c7613b09565b6121cf613b39565b612214604051806040016040528060078152602001662134b7b1b430b960c91b8152506040518060400160405280600481526020016321a420a960e11b815250613b6c565b61221c613ae2565b612224613ae2565b61222f6000336131d7565b8015611382576000805461ff0019169055604051600181527f7f26b83ff96e1f2b6a682f133852f6798a09c465da95921460cefb384740249890602001610fdf565b61229a7f65d7a28e3265b37a6474929f336521b332c1681b933f6cb9f3376673440d862a612cbb565b611657613bba565b6101a454604051638662522f60e01b81526000916001600160a01b031690638662522f906122d69086908690600401614fb3565b602060405180830381865afa1580156122f3573d6000803e3d6000fd5b505050506040513d601f19601f820116820180604052508101906111e19190614fe2565b61231f6134ca565b6001600160a01b03821660009081526101a160209081526040918290205482518084019093526002835261313360f01b9183019190915260ff166123765760405162461bcd60e51b8152600401610fa39190614670565b50612381828261364d565b60405163079cc67960e41b8152336004820152602481018290526001600160a01b038316906379cc679090604401600060405180830381600087803b1580156123c957600080fd5b505af11580156123dd573d6000803e3d6000fd5b505050505050565b6123ed61378b565b6112a2828261350a565b6123ff612d21565b6101a580546001600160a01b0319166001600160a01b0383169081179091556040519081527f3e762c7e655633ce63121393b9694f9ca1883d14d18f48f1be55e5dc7a9fb6c190602001610fdf565b600091825260fb602090815260408084206001600160a01b0393909316845291905290205460ff1690565b606060378054610eb690614cda565b610194818154811061249957600080fd5b6000918252602090912001546001600160a01b0316905081565b6101a4546040805163a1631e4b60e01b815290516000926001600160a01b03169163a1631e4b9160048083019260209291908290030181865afa1580156124fe573d6000803e3d6000fd5b505050506040513d601f19601f820116820180604052508101906125229190614fff565b905090565b60003381612535828661290c565b9050838110156125955760405162461bcd60e51b815260206004820152602560248201527f45524332303a2064656372656173656420616c6c6f77616e63652062656c6f77604482015264207a65726f60d81b6064820152608401610fa3565b6125a28286868403612b97565b506001949350505050565b60006125b883612e3f565b610f478383613c35565b6125ca612d21565b604080518082019091526002815261313160f01b60208201526001600160a01b03821661260a5760405162461bcd60e51b8152600401610fa39190614670565b5061019b80546001600160a01b0319166001600160a01b0383169081179091556040519081527fae73ff4cda09edd20b6cbc88f93ee196b1baa53fb59fffc5686744f4435d828090602001610fdf565b612662612d21565b6101918190556040518181527f4e44c8be34d12f1b7f56b13b4bbe97e64ca37a91916f86c73412da80c21748e290602001610fdf565b6126af600080516020615224833981519152612cbb565b6040805180820190915260018152601960f91b6020820152816126e55760405162461bcd60e51b8152600401610fa39190614670565b506126f3610194838361452e565b507f9204d457ace303c5dbbeaa6966e5ec65661a390007a367c6645e52b4ef4b528e8282604051612725929190615028565b60405180910390a15050565b6060610194805480602002602001604051908101604052809291908181526020018280548015610f2f57602002820191906000526020600020905b81546001600160a01b0316815260019091019060200180831161276c575050505050905090565b61279b612d21565b6101a280546001600160a01b0319166001600160a01b0383169081179091556040519081527f7aed1d3e8155a07ccf395e44ea3109a0e2d6c9b29bbbe9f142d9790596f4dc8090602001610fdf565b6060806127f984846001612edb565b909590945092505050565b600082815260fb602052604090206001015461281f816131cd565b611223838361325d565b600061283460355490565b610191546125229190614e68565b61284a612d21565b6001600160a01b03811660008181526101a16020908152604091829020805460ff1916905590519182527fd1fc9d8986829d0ba9df2bc201a2c76327e0f71567b5a2fb82ba464bf4a03f449101610fdf565b6101a454604051636e2fab0760e11b81526001600160a01b038381166004830152600092169063dc5f560e90602401602060405180830381865afa1580156128e8573d6000803e3d6000fd5b505050506040513d601f19601f82011682018060405250810190610ea19190614fe2565b6001600160a01b03918216600090815260346020908152604080832093909416825291909152205490565b61293f612d21565b604080518082019091526002815261313160f01b60208201526001600160a01b03821661297f5760405162461bcd60e51b8152600401610fa39190614670565b5061019d80546001600160a01b0319166001600160a01b0383169081179091556040519081527fe45e1256d720bfcb8dfcc82308efc5ad34e89a7ca19cc500b5c657fcc3359e5590602001610fdf565b6129e6600080516020615224833981519152612cbb565b604080518082019091526002815261031360f41b60208201526127108210612a215760405162461bcd60e51b8152600401610fa39190614670565b5061019c8190556040518181527fd6c7508d6658ccee36b7b7d7fd72e5cbaeefb40c64eff24e9ae7470e846304ee90602001610fdf565b6065546001600160a01b03163314612ab25760405162461bcd60e51b815260206004820181905260248201527f4f776e61626c653a2063616c6c6572206973206e6f7420746865206f776e65726044820152606401610fa3565b6001600160a01b038116612b175760405162461bcd60e51b815260206004820152602660248201527f4f776e61626c653a206e6577206f776e657220697320746865207a65726f206160448201526564647265737360d01b6064820152608401610fa3565b61138281613739565b6101a454604051633cfb6e7b60e21b81526000916001600160a01b03169063f3edb9ec906122d69086908690600401614fb3565b6101a45460405163f75991cd60e01b81526000916001600160a01b03169063f75991cd906122d69086908690600401614fb3565b6001600160a01b03163b151590565b6001600160a01b038316612bf95760405162461bcd60e51b8152602060048201526024808201527f45524332303a20617070726f76652066726f6d20746865207a65726f206164646044820152637265737360e01b6064820152608401610fa3565b6001600160a01b038216612c5a5760405162461bcd60e51b815260206004820152602260248201527f45524332303a20617070726f766520746f20746865207a65726f206164647265604482015261737360f01b6064820152608401610fa3565b6001600160a01b0383811660008181526034602090815260408083209487168084529482529182902085905590518481527f8c5be1e5ebec7d5bd14f71427d1e84f3dd0314c0f7b2291e5b200ac8c7c3b925910160405180910390a3505050565b612cc5813361244e565b80612ce9575033612cde6065546001600160a01b031690565b6001600160a01b0316145b604051806040016040528060018152602001603160f81b815250906112a25760405162461bcd60e51b8152600401610fa39190614670565b33612d346065546001600160a01b031690565b6001600160a01b03161460405180604001604052806002815260200161062760f31b815250906113825760405162461bcd60e51b8152600401610fa39190614670565b604051635ed6513d60e11b815230600482015263ffffffff8216602482015260009081906001600160a01b0385169063bdaca27a906044016040805180830381865afa158015612dcb573d6000803e3d6000fd5b505050506040513d601f19601f82011682018060405250810190612def919061506b565b8051604080518082019091526002815261313160f01b60208201529093509091506001600160a01b038316612e375760405162461bcd60e51b8152600401610fa39190614670565b505092915050565b604080518082019091526002815261313960f01b60208201526001600160a01b038216612e7f5760405162461bcd60e51b8152600401610fa39190614670565b50604080518082019091526002815261032360f41b60208201526001600160a01b03821630036112a25760405162461bcd60e51b8152600401610fa39190614670565b600033612ed0858285613c43565b6125a2858585613cb7565b606080612ee66134ca565b84518451604080518082019091526002815261189960f11b6020820152908214612f235760405162461bcd60e51b8152600401610fa39190614670565b50806001600160401b03811115612f3c57612f3c6148ca565b604051908082528060200260200182016040528015612f65578160200160208202803683370190505b5091508315612fb357806001600160401b03811115612f8657612f866148ca565b604051908082528060200260200182016040528015612faf578160200160208202803683370190505b5092505b3360009081526101a0602052604081205460ff16815b838110156131b257612ff3898281518110612fe657612fe6614d14565b602002602001015161289c565b60405180604001604052806002815260200161191960f11b8152509061302c5760405162461bcd60e51b8152600401610fa39190614670565b50600082613080576130718a838151811061304957613049614d14565b60200260200101518a848151811061306357613063614d14565b60200260200101518a61369e565b905061307d8185614d59565b93505b6000818a848151811061309557613095614d14565b60200260200101516130a79190614e68565b90506130cc8b84815181106130be576130be614d14565b60200260200101518261364d565b8815613180578a83815181106130e4576130e4614d14565b60209081029190910101516040516335927feb60e11b8152336004820152602481018390526001600160a01b0390911690636b24ffd6906044016020604051808303816000875af115801561313d573d6000803e3d6000fd5b505050506040513d601f19601f820116820180604052508101906131619190614d2a565b88848151811061317357613173614d14565b6020026020010181815250505b8087848151811061319357613193614d14565b6020026020010181815250505050806131ab90614d71565b9050612fc9565b5081156131c2576131c28261205f565b505050935093915050565b6113828133613e90565b6131e1828261244e565b6112a257600082815260fb602090815260408083206001600160a01b03851684529091529020805460ff191660011790556132193390565b6001600160a01b0316816001600160a01b0316837f2f8788117e7eff1d82e926ec794901d17c78024a50270940304540a733656f0d60405160405180910390a45050565b613267828261244e565b156112a257600082815260fb602090815260408083206001600160a01b0385168085529252808320805460ff1916905551339285917ff6391f5c32d9c69d2a47ea670b442974b53935d1edc7fd64eb21e047a839171b9190a45050565b611382612d21565b7f4910fdfa16fed3260ed0e7147f7cc6da11a60208b5b9406d12a635614ffd91435460ff16156132ff5761122383613ef4565b826001600160a01b03166352d1902d6040518163ffffffff1660e01b8152600401602060405180830381865afa925050508015613359575060408051601f3d908101601f1916820190925261335691810190614d2a565b60015b6133bc5760405162461bcd60e51b815260206004820152602e60248201527f45524331393637557067726164653a206e657720696d706c656d656e7461746960448201526d6f6e206973206e6f74205555505360901b6064820152608401610fa3565b600080516020615204833981519152811461342b5760405162461bcd60e51b815260206004820152602960248201527f45524331393637557067726164653a20756e737570706f727465642070726f786044820152681a58589b195555525160ba1b6064820152608401610fa3565b50611223838383613f90565b60975460ff166134805760405162461bcd60e51b815260206004820152601460248201527314185d5cd8589b194e881b9bdd081c185d5cd95960621b6044820152606401610fa3565b6097805460ff191690557f5db9ee0a495bf2e6ff9c91a7834c1ba4fdd244a5e8aa4e537bd38aeae4b073aa335b6040516001600160a01b03909116815260200160405180910390a1565b60975460ff1615604051806040016040528060028152602001610c4d60f21b815250906113825760405162461bcd60e51b8152600401610fa39190614670565b6001600160a01b0382166135605760405162461bcd60e51b815260206004820152601f60248201527f45524332303a206d696e7420746f20746865207a65726f2061646472657373006044820152606401610fa3565b61356c60008383613fb5565b806035600082825461357e9190614d59565b90915550506001600160a01b038216600090815260336020526040812080548392906135ab908490614d59565b90915550506040518181526001600160a01b038316906000907fddf252ad1be2c89b69c2b068fc378daa952ba7f163c4a11628f55a4df523b3ef9060200160405180910390a35050565b61218d846323b872dd60e01b85858560405160240161361693929190614e44565b60408051601f198184030181529190526020810180516001600160e01b03166001600160e01b031990931692909217909152613fbd565b61365733826137d1565b61366b6001600160a01b038316338361408f565b7f27d4634c833b7622a0acddbf7f746183625f105945e95c723ad1d5a9f2a0b6fc33838360405161272593929190614e44565b6101a5546000906001600160a01b03166136c3576136bc83836140bf565b90506111e1565b6101a55460405163743c8ef760e01b81526001600160a01b039091169063743c8ef7906136f890879030908890600401614e44565b602060405180830381865afa158015613715573d6000803e3d6000fd5b505050506040513d601f19601f820116820180604052508101906111f69190614d2a565b606580546001600160a01b038381166001600160a01b0319831681179093556040519116919082907f8be0079c531659141344cd1fd0a4f28419497f9722a3daafe3b4186f6b6457e090600090a35050565b6101a254604080518082019091526002815261313760f01b6020820152906001600160a01b031633146113825760405162461bcd60e51b8152600401610fa39190614670565b6001600160a01b0382166138315760405162461bcd60e51b815260206004820152602160248201527f45524332303a206275726e2066726f6d20746865207a65726f206164647265736044820152607360f81b6064820152608401610fa3565b61383d82600083613fb5565b6001600160a01b038216600090815260336020526040902054818110156138b15760405162461bcd60e51b815260206004820152602260248201527f45524332303a206275726e20616d6f756e7420657863656564732062616c616e604482015261636560f01b6064820152608401610fa3565b6001600160a01b03831660009081526033602052604081208383039055603580548492906138e0908490614e68565b90915550506040518281526000906001600160a01b038516907fddf252ad1be2c89b69c2b068fc378daa952ba7f163c4a11628f55a4df523b3ef9060200160405180910390a3505050565b6101a55460609081906001600160a01b0316156139b4576101a55460405163345127f160e11b8152600481018590526001600160a01b03909116906368a24fe290602401600060405180830381865afa15801561398c573d6000803e3d6000fd5b505050506040513d6000823e601f3d908101601f191682016040526111bc9190810190614eda565b60408051600180825281830190925290602080830190803683375050604080516001808252818301909252929450905060208083019080368337505061019b5484519293506001600160a01b031691849150600090613a1557613a15614d14565b60200260200101906001600160a01b031690816001600160a01b0316815250508281600081518110613a4957613a49614d14565b602002602001018181525050915091565b60008054610100900460ff1615613aa1578160ff166001148015613a7d5750303b155b613a995760405162461bcd60e51b8152600401610fa3906150c2565b506000919050565b60005460ff808416911610613ac85760405162461bcd60e51b8152600401610fa3906150c2565b506000805460ff191660ff92909216919091179055600190565b600054610100900460ff166116575760405162461bcd60e51b8152600401610fa390615110565b600054610100900460ff16613b305760405162461bcd60e51b8152600401610fa390615110565b61165733613739565b600054610100900460ff16613b605760405162461bcd60e51b8152600401610fa390615110565b6097805460ff19169055565b600054610100900460ff16613b935760405162461bcd60e51b8152600401610fa390615110565b8151613ba6906036906020850190614591565b508051611223906037906020840190614591565b60975460ff1615613c005760405162461bcd60e51b815260206004820152601060248201526f14185d5cd8589b194e881c185d5cd95960821b6044820152606401610fa3565b6097805460ff191660011790557f62e78cea01bee320cd4e420270b5ea74000d11b0c9f74754ebdbfc544b05a2586134ad3390565b600033610f47818585613cb7565b6000613c4f848461290c565b9050600019811461218d5781811015613caa5760405162461bcd60e51b815260206004820152601d60248201527f45524332303a20696e73756666696369656e7420616c6c6f77616e63650000006044820152606401610fa3565b61218d8484848403612b97565b6001600160a01b038316613d1b5760405162461bcd60e51b815260206004820152602560248201527f45524332303a207472616e736665722066726f6d20746865207a65726f206164604482015264647265737360d81b6064820152608401610fa3565b6001600160a01b038216613d7d5760405162461bcd60e51b815260206004820152602360248201527f45524332303a207472616e7366657220746f20746865207a65726f206164647260448201526265737360e81b6064820152608401610fa3565b613d88838383613fb5565b6001600160a01b03831660009081526033602052604090205481811015613e005760405162461bcd60e51b815260206004820152602660248201527f45524332303a207472616e7366657220616d6f756e7420657863656564732062604482015265616c616e636560d01b6064820152608401610fa3565b6001600160a01b03808516600090815260336020526040808220858503905591851681529081208054849290613e37908490614d59565b92505081905550826001600160a01b0316846001600160a01b03167fddf252ad1be2c89b69c2b068fc378daa952ba7f163c4a11628f55a4df523b3ef84604051613e8391815260200190565b60405180910390a361218d565b613e9a828261244e565b6112a257613eb2816001600160a01b031660146140ef565b613ebd8360206140ef565b604051602001613ece92919061515b565b60408051601f198184030181529082905262461bcd60e51b8252610fa391600401614670565b6001600160a01b0381163b613f615760405162461bcd60e51b815260206004820152602d60248201527f455243313936373a206e657720696d706c656d656e746174696f6e206973206e60448201526c1bdd08184818dbdb9d1c9858dd609a1b6064820152608401610fa3565b60008051602061520483398151915280546001600160a01b0319166001600160a01b0392909216919091179055565b613f998361428a565b600082511180613fa65750805b156112235761218d83836142ca565b6112236134ca565b6000614012826040518060400160405280602081526020017f5361666545524332303a206c6f772d6c6576656c2063616c6c206661696c6564815250856001600160a01b03166143b59092919063ffffffff16565b80519091501561122357808060200190518101906140309190614fe2565b6112235760405162461bcd60e51b815260206004820152602a60248201527f5361666545524332303a204552433230206f7065726174696f6e20646964206e6044820152691bdd081cdd58d8d9595960b21b6064820152608401610fa3565b6040516001600160a01b03831660248201526044810182905261122390849063a9059cbb60e01b90606401613616565b60008082156140d257506101a3546140d8565b5061019c545b6127106140e58286614f94565b6111f69190614e22565b606060006140fe836002614f94565b614109906002614d59565b6001600160401b03811115614120576141206148ca565b6040519080825280601f01601f19166020018201604052801561414a576020820181803683370190505b509050600360fc1b8160008151811061416557614165614d14565b60200101906001600160f81b031916908160001a905350600f60fb1b8160018151811061419457614194614d14565b60200101906001600160f81b031916908160001a90535060006141b8846002614f94565b6141c3906001614d59565b90505b600181111561423b576f181899199a1a9b1b9c1cb0b131b232b360811b85600f16601081106141f7576141f7614d14565b1a60f81b82828151811061420d5761420d614d14565b60200101906001600160f81b031916908160001a90535060049490941c93614234816151d0565b90506141c6565b5083156111e15760405162461bcd60e51b815260206004820181905260248201527f537472696e67733a20686578206c656e67746820696e73756666696369656e746044820152606401610fa3565b61429381613ef4565b6040516001600160a01b038216907fbc7cd75a20ee27fd9adebab32041f755214dbc6bffa90cc0225b39da2e5c2d3b90600090a250565b60606001600160a01b0383163b6143325760405162461bcd60e51b815260206004820152602660248201527f416464726573733a2064656c65676174652063616c6c20746f206e6f6e2d636f6044820152651b9d1c9858dd60d21b6064820152608401610fa3565b600080846001600160a01b03168460405161434d91906151e7565b600060405180830381855af49150503d8060008114614388576040519150601f19603f3d011682016040523d82523d6000602084013e61438d565b606091505b50915091506119698282604051806060016040528060278152602001615244602791396143c4565b60606111f684846000856143fd565b606083156143d35750816111e1565b8251156143e35782518084602001fd5b8160405162461bcd60e51b8152600401610fa39190614670565b60608247101561445e5760405162461bcd60e51b815260206004820152602660248201527f416464726573733a20696e73756666696369656e742062616c616e636520666f6044820152651c8818d85b1b60d21b6064820152608401610fa3565b6001600160a01b0385163b6144b55760405162461bcd60e51b815260206004820152601d60248201527f416464726573733a2063616c6c20746f206e6f6e2d636f6e74726163740000006044820152606401610fa3565b600080866001600160a01b031685876040516144d191906151e7565b60006040518083038185875af1925050503d806000811461450e576040519150601f19603f3d011682016040523d82523d6000602084013e614513565b606091505b50915091506145238282866143c4565b979650505050505050565b828054828255906000526020600020908101928215614581579160200282015b828111156145815781546001600160a01b0319166001600160a01b0384351617825560209092019160019091019061454e565b5061458d929150614605565b5090565b82805461459d90614cda565b90600052602060002090601f0160209004810192826145bf5760008555614581565b82601f106145d857805160ff1916838001178555614581565b82800160010185558215614581579182015b828111156145815782518255916020019190600101906145ea565b5b8082111561458d5760008155600101614606565b60006020828403121561462c57600080fd5b81356001600160e01b0319811681146111e157600080fd5b60005b8381101561465f578181015183820152602001614647565b8381111561218d5750506000910152565b602081526000825180602084015261468f816040850160208701614644565b601f01601f19169190910160400192915050565b6001600160a01b038116811461138257600080fd5b600080604083850312156146cb57600080fd5b82356146d6816146a3565b946020939093013593505050565b6000602082840312156146f657600080fd5b5035919050565b60006020828403121561470f57600080fd5b81356111e1816146a3565b60008083601f84011261472c57600080fd5b5081356001600160401b0381111561474357600080fd5b6020830191508360208260051b850101111561475e57600080fd5b9250929050565b60008060008060006060868803121561477d57600080fd5b853563ffffffff8116811461479157600080fd5b945060208601356001600160401b03808211156147ad57600080fd5b6147b989838a0161471a565b909650945060408801359150808211156147d257600080fd5b506147df8882890161471a565b969995985093965092949392505050565b600081518084526020808501945080840160005b838110156148295781516001600160a01b031687529582019590820190600101614804565b509495945050505050565b600081518084526020808501945080840160005b8381101561482957815187529582019590820190600101614848565b60408152600061487760408301856147f0565b82810360208401526119698185614834565b60008060006060848603121561489e57600080fd5b83356148a9816146a3565b925060208401356148b9816146a3565b929592945050506040919091013590565b634e487b7160e01b600052604160045260246000fd5b604051601f8201601f191681016001600160401b0381118282101715614908576149086148ca565b604052919050565b60006001600160401b03821115614929576149296148ca565b5060051b60200190565b600082601f83011261494457600080fd5b8135602061495961495483614910565b6148e0565b82815260059290921b8401810191818101908684111561497857600080fd5b8286015b8481101561499c57803561498f816146a3565b835291830191830161497c565b509695505050505050565b600082601f8301126149b857600080fd5b813560206149c861495483614910565b82815260059290921b840181019181810190868411156149e757600080fd5b8286015b8481101561499c57803583529183019183016149eb565b60008060408385031215614a1557600080fd5b82356001600160401b0380821115614a2c57600080fd5b614a3886838701614933565b93506020850135915080821115614a4e57600080fd5b50614a5b858286016149a7565b9150509250929050565b6020815260006111e16020830184614834565b60008060408385031215614a8b57600080fd5b823591506020830135614a9d816146a3565b809150509250929050565b60008060408385031215614abb57600080fd5b8235614ac6816146a3565b91506020838101356001600160401b0380821115614ae357600080fd5b818601915086601f830112614af757600080fd5b813581811115614b0957614b096148ca565b614b1b601f8201601f191685016148e0565b91508082528784828501011115614b3157600080fd5b80848401858401376000848284010152508093505050509250929050565b801515811461138257600080fd5b600080600060608486031215614b7257600080fd5b83356001600160401b0380821115614b8957600080fd5b614b9587838801614933565b94506020860135915080821115614bab57600080fd5b50614bb8868287016149a7565b9250506040840135614bc981614b4f565b809150509250925092565b60008060208385031215614be757600080fd5b82356001600160401b0380821115614bfe57600080fd5b818501915085601f830112614c1257600080fd5b813581811115614c2157600080fd5b866020828501011115614c3357600080fd5b60209290920196919550909350505050565b60008060208385031215614c5857600080fd5b82356001600160401b03811115614c6e57600080fd5b614c7a8582860161471a565b90969095509350505050565b6020815260006111e160208301846147f0565b6040815260006148776040830185614834565b60008060408385031215614cbf57600080fd5b8235614cca816146a3565b91506020830135614a9d816146a3565b600181811c90821680614cee57607f821691505b602082108103614d0e57634e487b7160e01b600052602260045260246000fd5b50919050565b634e487b7160e01b600052603260045260246000fd5b600060208284031215614d3c57600080fd5b5051919050565b634e487b7160e01b600052601160045260246000fd5b60008219821115614d6c57614d6c614d43565b500190565b600060018201614d8357614d83614d43565b5060010190565b6020808252602c908201527f46756e6374696f6e206d7573742062652063616c6c6564207468726f7567682060408201526b19195b1959d85d1958d85b1b60a21b606082015260800190565b6020808252602c908201527f46756e6374696f6e206d7573742062652063616c6c6564207468726f7567682060408201526b6163746976652070726f787960a01b606082015260800190565b600082614e3f57634e487b7160e01b600052601260045260246000fd5b500490565b6001600160a01b039384168152919092166020820152604081019190915260600190565b600082821015614e7a57614e7a614d43565b500390565b600082601f830112614e9057600080fd5b81516020614ea061495483614910565b82815260059290921b84018101918181019086841115614ebf57600080fd5b8286015b8481101561499c5780518352918301918301614ec3565b60008060408385031215614eed57600080fd5b82516001600160401b0380821115614f0457600080fd5b818501915085601f830112614f1857600080fd5b81516020614f2861495483614910565b82815260059290921b84018101918181019089841115614f4757600080fd5b948201945b83861015614f6e578551614f5f816146a3565b82529482019490820190614f4c565b91880151919650909350505080821115614f8757600080fd5b50614a5b85828601614e7f565b6000816000190483118215151615614fae57614fae614d43565b500290565b60208152816020820152818360408301376000818301604090810191909152601f909201601f19160101919050565b600060208284031215614ff457600080fd5b81516111e181614b4f565b60006020828403121561501157600080fd5b81516001600160401b03811681146111e157600080fd5b60208082528181018390526000908460408401835b8681101561499c578235615050816146a3565b6001600160a01b03168252918301919083019060010161503d565b60006040828403121561507d57600080fd5b604051604081018181106001600160401b038211171561509f5761509f6148ca565b60405282516150ad816146a3565b81526020928301519281019290925250919050565b6020808252602e908201527f496e697469616c697a61626c653a20636f6e747261637420697320616c72656160408201526d191e481a5b9a5d1a585b1a5e995960921b606082015260800190565b6020808252602b908201527f496e697469616c697a61626c653a20636f6e7472616374206973206e6f74206960408201526a6e697469616c697a696e6760a81b606082015260800190565b7f416363657373436f6e74726f6c3a206163636f756e7420000000000000000000815260008351615193816017850160208801614644565b7001034b99036b4b9b9b4b733903937b6329607d1b60179184019182015283516151c4816028840160208801614644565b01602801949350505050565b6000816151df576151df614d43565b506000190190565b600082516151f9818460208701614644565b919091019291505056fe360894a13ba1a3210667c828492db98dca3e2076cc3735a920a3ca505d382bbc241ecf16d79d0f8dbfb92cbc07fe17840425976cf0667f022fe9877caa831b08416464726573733a206c6f772d6c6576656c2064656c65676174652063616c6c206661696c6564a2646970667358221220d7414360a068be2452be7717f5285e8ebc69817836a9508ff72607b615e5b08c64736f6c634300080e0033496e697469616c697a61626c653a20636f6e747261637420697320616c726561",
  "devdoc": {
    "kind": "dev",
    "methods": {
      "addRedeemFeeExemptedAddress(address)": {
        "params": {
          "_address": "address to be exempted on redeem fees"
        }
      },
      "addRedeemFeeExemptedTCO2(address)": {
        "params": {
          "_tco2": "TCO2 to be exempted on redeem fees"
        }
      },
      "allowance(address,address)": {
        "details": "See {IERC20-allowance}."
      },
      "approve(address,uint256)": {
        "details": "See {IERC20-approve}. NOTE: If `amount` is the maximum `uint256`, the allowance is not updated on `transferFrom`. This is semantically equivalent to an infinite approval. Requirements: - `spender` cannot be the zero address."
      },
      "balanceOf(address)": {
        "details": "See {IERC20-balanceOf}."
      },
      "bridgeBurn(address,uint256)": {
        "details": "invoked only by the ToucanCrosschainMessenger (Router)",
        "params": {
          "_account": "account that will be burned with corss-chain bridged tokens",
          "_amount": "amount of tokens that will be burned"
        }
      },
      "bridgeMint(address,uint256)": {
        "details": "invoked only by the ToucanCrosschainMessenger (Router)",
        "params": {
          "_account": "account that will be minted with corss-chain bridged tokens",
          "_amount": "amount of tokens that will be minted"
        }
      },
      "bridgeTCO2s(uint32,address[],uint256[])": {
        "params": {
          "amounts": "The amounts of TCO2s to bridge",
          "destinationDomain": "The domain to bridge TCO2s to",
          "tco2s": "The TCO2s to bridge"
        }
      },
      "calculateRedemptionFees(address[],uint256[],bool)": {
        "details": "User specifies in front-end the addresses and amounts they want",
        "params": {
          "amounts": "Array of amounts to redeem for each tco2s",
          "tco2s": "Array of TCO2 contract addresses",
          "toRetire": "Whether the TCO2s will be retired atomically with the redemption. It may be that lower fees will be charged in this case."
        },
        "returns": {
          "totalFee": "Total fees amount"
        }
      },
      "decimals()": {
        "details": "Returns the number of decimals used to get its user representation. For example, if `decimals` equals `2`, a balance of `505` tokens should be displayed to a user as `5.05` (`505 / 10 ** 2`). Tokens usually opt for a value of 18, imitating the relationship between Ether and Wei. This is the value {ERC20} uses, unless this function is overridden; NOTE: This information is only used for _display_ purposes: it in no way affects any of the arithmetic of the contract, including {IERC20-balanceOf} and {IERC20-transfer}."
      },
      "decreaseAllowance(address,uint256)": {
        "details": "Atomically decreases the allowance granted to `spender` by the caller. This is an alternative to {approve} that can be used as a mitigation for problems described in {IERC20-approve}. Emits an {Approval} event indicating the updated allowance. Requirements: - `spender` cannot be the zero address. - `spender` must have allowance for the caller of at least `subtractedValue`."
      },
      "deposit(address,uint256)": {
        "details": "Eligibility is checked via `checkEligible`, balances are tracked for each TCO2 separately",
        "params": {
          "erc20Addr": "ERC20 contract address to be deposited, requires approve"
        },
        "returns": {
          "_0": "Amount of pool tokens minted to the caller"
        }
      },
      "getRemaining()": {
        "details": "Returns the remaining space in pool before hitting the cap"
      },
      "getRoleAdmin(bytes32)": {
        "details": "Returns the admin role that controls `role`. See {grantRole} and {revokeRole}. To change a role's admin, use {_setRoleAdmin}."
      },
      "grantRole(bytes32,address)": {
        "details": "Grants `role` to `account`. If `account` had not been already granted `role`, emits a {RoleGranted} event. Requirements: - the caller must have ``role``'s admin role."
      },
      "hasRole(bytes32,address)": {
        "details": "Returns `true` if `account` has been granted `role`."
      },
      "increaseAllowance(address,uint256)": {
        "details": "Atomically increases the allowance granted to `spender` by the caller. This is an alternative to {approve} that can be used as a mitigation for problems described in {IERC20-approve}. Emits an {Approval} event indicating the updated allowance. Requirements: - `spender` cannot be the zero address."
      },
      "name()": {
        "details": "Returns the name of the token."
      },
      "owner()": {
        "details": "Returns the address of the current owner."
      },
      "pause()": {
        "details": "wraps _pause(), only Admin"
      },
      "paused()": {
        "details": "Returns true if the contract is paused, and false otherwise."
      },
      "proxiableUUID()": {
        "details": "Implementation of the ERC1822 {proxiableUUID} function. This returns the storage slot used by the implementation. It is used to validate that the this implementation remains valid after an upgrade. IMPORTANT: A proxy pointing at a proxiable contract should not be considered proxiable itself, because this risks bricking a proxy that upgrades to it, by delegating to itself until out of gas. Thus it is critical that this function revert if invoked through a proxy. This is guaranteed by the `notDelegated` modifier."
      },
      "quoteBridgeTCO2sFee(uint32,address[],uint256[])": {
        "params": {
          "amounts": "The amounts of TCO2s to bridge",
          "destinationDomain": "The domain to bridge TCO2s to",
          "tco2s": "The TCO2s to bridge"
        },
        "returns": {
          "fee": "The fee amount to be paid"
        }
      },
      "redeemAndBurn(address,uint256)": {
        "details": "User needs to approve the pool contract in the TCO2 contract for the amount to be burnt before executing this function.",
        "params": {
          "amount": "Amount to redeem and burn",
          "tco2": "TCO2 to redeem and burn"
        }
      },
      "redeemAndRetireMany(address[],uint256[])": {
        "params": {
          "amounts": "Array of amounts to redeem and retire for each tco2s",
          "tco2s": "Array of TCO2 contract addresses"
        },
        "returns": {
          "redeemedAmounts": "The amounts of the TCO2s that were redeemed",
          "retirementIds": "The retirements ids that were produced"
        }
      },
      "redeemAuto(uint256)": {
        "details": "Pool tokens in user's wallet get burned",
        "params": {
          "amount": "Total amount to be redeemed"
        },
        "returns": {
          "tco2s": "amounts The addresses and amounts of the TCO2s that were automatically redeemed"
        }
      },
      "redeemAuto2(uint256)": {
        "params": {
          "amount": "Total amount to be redeemed"
        },
        "returns": {
          "tco2s": "amounts The addresses and amounts of the TCO2s that were automatically redeemed"
        }
      },
      "redeemMany(address[],uint256[])": {
        "params": {
          "amounts": "Array of amounts to redeem for each tco2s Pool token in user's wallet get burned",
          "tco2s": "Array of TCO2 contract addresses"
        },
        "returns": {
          "redeemedAmounts": "The amounts of the TCO2s that were redeemed"
        }
      },
      "removeRedeemFeeExemptedAddress(address)": {
        "params": {
          "_address": "address to be removed from exemption"
        }
      },
      "removeRedeemFeeExemptedTCO2(address)": {
        "params": {
          "_tco2": "TCO2 to be removed from exemption"
        }
      },
      "renounceOwnership()": {
        "details": "Leaves the contract without owner. It will not be possible to call `onlyOwner` functions anymore. Can only be called by the current owner. NOTE: Renouncing ownership will leave the contract without an owner, thereby removing any functionality that is only available to the owner."
      },
      "renounceRole(bytes32,address)": {
        "details": "Revokes `role` from the calling account. Roles are often managed via {grantRole} and {revokeRole}: this function's purpose is to provide a mechanism for accounts to lose their privileges if they are compromised (such as when a trusted device is misplaced). If the calling account had been revoked `role`, emits a {RoleRevoked} event. Requirements: - the caller must be `account`."
      },
      "revokeRole(bytes32,address)": {
        "details": "Revokes `role` from `account`. If `account` had been granted `role`, emits a {RoleRevoked} event. Requirements: - the caller must have ``role``'s admin role."
      },
      "setFeeCalculator(address)": {
        "params": {
          "_feeCalculator": "Fee module contract address"
        }
      },
      "setFeeRedeemBurnAddress(address)": {
        "params": {
          "_feeRedeemBurnAddress": "address to transfer the fees to burn"
        }
      },
      "setFeeRedeemBurnPercentage(uint256)": {
        "params": {
          "_feeRedeemBurnPercentageInBase": "percentage of fee in base"
        }
      },
      "setFeeRedeemPercentage(uint256)": {
        "params": {
          "_feeBp": "percentage of fee in basis points"
        }
      },
      "setFeeRedeemReceiver(address)": {
        "params": {
          "_feeRedeemReceiver": "address to transfer the fees"
        }
      },
      "setFeeRedeemRetirePercentage(uint256)": {
        "params": {
          "_feeBp": "percentage of fee in basis points"
        }
      },
      "setFilter(address)": {
        "params": {
          "_filter": "Filter contract address"
        }
      },
      "setRouter(address)": {
        "details": "use this method to set router address",
        "params": {
          "_router": "address of ToucanCrosschainMessenger"
        }
      },
      "setSupplyCap(uint256)": {
        "details": "supplyCap is initially set to 0 and must be increased before deposits"
      },
      "setTCO2Scoring(address[])": {
        "params": {
          "tco2s": "array of ordered TCO2 addresses"
        }
      },
      "supportsInterface(bytes4)": {
        "details": "See {IERC165-supportsInterface}."
      },
      "symbol()": {
        "details": "Returns the symbol of the token, usually a shorter version of the name."
      },
      "totalSupply()": {
        "details": "See {IERC20-totalSupply}."
      },
      "transferOwnership(address)": {
        "details": "Transfers ownership of the contract to a new account (`newOwner`). Can only be called by the current owner."
      },
      "unpause()": {
        "details": "Unpause the system, wraps _unpause(), only Admin"
      },
      "upgradeTo(address)": {
        "details": "Upgrade the implementation of the proxy to `newImplementation`. Calls {_authorizeUpgrade}. Emits an {Upgraded} event."
      },
      "upgradeToAndCall(address,bytes)": {
        "details": "Upgrade the implementation of the proxy to `newImplementation`, and subsequently execute the function call encoded in `data`. Calls {_authorizeUpgrade}. Emits an {Upgraded} event."
      }
    },
    "stateVariables": {
      "VERSION": {
        "details": "Version-related parameters. VERSION keeps track of production releases. VERSION_RELEASE_CANDIDATE keeps track of iterations of a VERSION in our staging environment."
      }
    },
    "version": 1
  },
  "userdoc": {
    "kind": "user",
    "methods": {
      "addRedeemFeeExemptedAddress(address)": {
        "notice": "Adds a new address for redeem fees exemption"
      },
      "addRedeemFeeExemptedTCO2(address)": {
        "notice": "Adds a new TCO2 for redeem fees exemption"
      },
      "bridgeBurn(address,uint256)": {
        "notice": "burn tokens from account to be cross-chain bridged"
      },
      "bridgeMint(address,uint256)": {
        "notice": "mint tokens to receiver account that were cross-chain bridged"
      },
      "bridgeTCO2s(uint32,address[],uint256[])": {
        "notice": "Allows MANAGER or the owner to bridge TCO2s into another domain."
      },
      "calculateRedemptionFees(address[],uint256[],bool)": {
        "notice": "View function to calculate fees pre-execution"
      },
      "checkEligible(address)": {
        "notice": "Checks if token to be deposited is eligible for this pool"
      },
      "deposit(address,uint256)": {
        "notice": "Deposit function for pool that accepts TCO2s and mints pool token 1:1"
      },
      "feeCalculator()": {
        "notice": "module to calculate fees for the pool"
      },
      "feeRedeemRetirePercentageInBase()": {
        "notice": "fee percentage in basis points charged for selective redemptions that also retire the credits in the same transaction"
      },
      "methodologies(string)": {
        "notice": "Checks if methodology is eligible for this pool"
      },
      "minimumVintageStartTime()": {
        "notice": "Returns minimum vintage start time for this pool"
      },
      "pause()": {
        "notice": "Emergency function to disable contract's core functionality"
      },
      "quoteBridgeTCO2sFee(uint32,address[],uint256[])": {
        "notice": "Get the fee needed to bridge TCO2s into the destination domain."
      },
      "redeemAndBurn(address,uint256)": {
        "notice": "Redeem a whitelisted TCO2 without paying any fees and burn the TCO2. Initially added to burn HFC-23 credits, can be used in the future to dispose of any other whitelisted credits."
      },
      "redeemAndRetireMany(address[],uint256[])": {
        "notice": "Redeems pool tokens for multiple underlying TCO2s 1:1 minus fees The redeemed TCO2s are retired in the same go in order to allow charging a lower fee vs selective redemptions that do not retire the TCO2s."
      },
      "redeemAuto(uint256)": {
        "notice": "Automatically redeems an amount of Pool tokens for underlying TCO2s from an array of ranked TCO2 contracts starting from contract at index 0 until amount is satisfied"
      },
      "redeemAuto2(uint256)": {
        "notice": "Automatically redeems an amount of Pool tokens for underlying TCO2s from an array of ranked TCO2 contracts starting from contract at index 0 until amount is satisfied."
      },
      "redeemFeeExemptedAddresses(address)": {
        "notice": "End users exempted from redeem fees"
      },
      "redeemFeeExemptedTCO2s(address)": {
        "notice": "TCO2s exempted from redeem fees"
      },
      "redeemMany(address[],uint256[])": {
        "notice": "Redeems pool tokens for multiple underlying TCO2s 1:1 minus fees"
      },
      "regions(string)": {
        "notice": "Checks if region is eligible for this pool"
      },
      "removeRedeemFeeExemptedAddress(address)": {
        "notice": "Removes an address from redeem fees exemption"
      },
      "removeRedeemFeeExemptedTCO2(address)": {
        "notice": "Removes a TCO2 from redeem fees exemption"
      },
      "router()": {
        "notice": "bridge router who has access to the bridgeMint & bridgeBurn functions which mint/burn pool tokens for cross chain messenges"
      },
      "scoredTCO2s(uint256)": {
        "notice": "array used to read from when redeeming TCO2s automatically"
      },
      "setFeeCalculator(address)": {
        "notice": "Update the address of the fee module contract"
      },
      "setFeeRedeemBurnAddress(address)": {
        "notice": "Update the fee redeem burn address"
      },
      "setFeeRedeemBurnPercentage(uint256)": {
        "notice": "Update the fee redeem burn percentage"
      },
      "setFeeRedeemPercentage(uint256)": {
        "notice": "Update the fee redeem percentage"
      },
      "setFeeRedeemReceiver(address)": {
        "notice": "Update the fee redeem receiver"
      },
      "setFeeRedeemRetirePercentage(uint256)": {
        "notice": "Update the fee percentage charged in redeemManyAndRetire"
      },
      "setFilter(address)": {
        "notice": "Update the address of the filter contract"
      },
      "setRouter(address)": {
        "notice": "method to set router address"
      },
      "setSupplyCap(uint256)": {
        "notice": "Function to limit the maximum pool supply"
      },
      "setTCO2Scoring(address[])": {
        "notice": "Allows MANAGERs or the owner to pass an array to hold TCO2 contract addesses that are ordered by some form of scoring mechanism"
      },
      "standards(string)": {
        "notice": "Checks if standard is eligible for this pool"
      },
      "supplyCap()": {
        "notice": "The supply cap is used as a measure to guard deposits in the pool. It is meant to minimize the impact a potential compromise in the source registry (eg. Verra) can have to the pool."
      },
      "tokenBalances(address)": {
        "notice": "Returns the balance of the TCO2 found in the pool"
      }
    },
    "notice": "Biochar pool contract",
    "version": 1
  },
  "storageLayout": {
    "storage": [
      {
        "astId": 2390,
        "contract": "contracts/pools/Biochar.sol:Biochar",
        "label": "_initialized",
        "offset": 0,
        "slot": "0",
        "type": "t_uint8"
      },
      {
        "astId": 2393,
        "contract": "contracts/pools/Biochar.sol:Biochar",
        "label": "_initializing",
        "offset": 1,
        "slot": "0",
        "type": "t_bool"
      },
      {
        "astId": 5494,
        "contract": "contracts/pools/Biochar.sol:Biochar",
        "label": "__gap",
        "offset": 0,
        "slot": "1",
        "type": "t_array(t_uint256)50_storage"
      },
      {
        "astId": 2850,
        "contract": "contracts/pools/Biochar.sol:Biochar",
        "label": "_balances",
        "offset": 0,
        "slot": "51",
        "type": "t_mapping(t_address,t_uint256)"
      },
      {
        "astId": 2856,
        "contract": "contracts/pools/Biochar.sol:Biochar",
        "label": "_allowances",
        "offset": 0,
        "slot": "52",
        "type": "t_mapping(t_address,t_mapping(t_address,t_uint256))"
      },
      {
        "astId": 2858,
        "contract": "contracts/pools/Biochar.sol:Biochar",
        "label": "_totalSupply",
        "offset": 0,
        "slot": "53",
        "type": "t_uint256"
      },
      {
        "astId": 2860,
        "contract": "contracts/pools/Biochar.sol:Biochar",
        "label": "_name",
        "offset": 0,
        "slot": "54",
        "type": "t_string_storage"
      },
      {
        "astId": 2862,
        "contract": "contracts/pools/Biochar.sol:Biochar",
        "label": "_symbol",
        "offset": 0,
        "slot": "55",
        "type": "t_string_storage"
      },
      {
        "astId": 3441,
        "contract": "contracts/pools/Biochar.sol:Biochar",
        "label": "__gap",
        "offset": 0,
        "slot": "56",
        "type": "t_array(t_uint256)45_storage"
      },
      {
        "astId": 1881,
        "contract": "contracts/pools/Biochar.sol:Biochar",
        "label": "_owner",
        "offset": 0,
        "slot": "101",
        "type": "t_address"
      },
      {
        "astId": 1993,
        "contract": "contracts/pools/Biochar.sol:Biochar",
        "label": "__gap",
        "offset": 0,
        "slot": "102",
        "type": "t_array(t_uint256)49_storage"
      },
      {
        "astId": 2682,
        "contract": "contracts/pools/Biochar.sol:Biochar",
        "label": "_paused",
        "offset": 0,
        "slot": "151",
        "type": "t_bool"
      },
      {
        "astId": 2771,
        "contract": "contracts/pools/Biochar.sol:Biochar",
        "label": "__gap",
        "offset": 0,
        "slot": "152",
        "type": "t_array(t_uint256)49_storage"
      },
      {
        "astId": 5801,
        "contract": "contracts/pools/Biochar.sol:Biochar",
        "label": "__gap",
        "offset": 0,
        "slot": "201",
        "type": "t_array(t_uint256)50_storage"
      },
      {
        "astId": 1497,
        "contract": "contracts/pools/Biochar.sol:Biochar",
        "label": "_roles",
        "offset": 0,
        "slot": "251",
        "type": "t_mapping(t_bytes32,t_struct(RoleData)1492_storage)"
      },
      {
        "astId": 1796,
        "contract": "contracts/pools/Biochar.sol:Biochar",
        "label": "__gap",
        "offset": 0,
        "slot": "252",
        "type": "t_array(t_uint256)49_storage"
      },
      {
        "astId": 2372,
        "contract": "contracts/pools/Biochar.sol:Biochar",
        "label": "__gap",
        "offset": 0,
        "slot": "301",
        "type": "t_array(t_uint256)50_storage"
      },
      {
        "astId": 2660,
        "contract": "contracts/pools/Biochar.sol:Biochar",
        "label": "__gap",
        "offset": 0,
        "slot": "351",
        "type": "t_array(t_uint256)50_storage"
      },
      {
        "astId": 22857,
        "contract": "contracts/pools/Biochar.sol:Biochar",
        "label": "supplyCap",
        "offset": 0,
        "slot": "401",
        "type": "t_uint256"
      },
      {
        "astId": 22861,
        "contract": "contracts/pools/Biochar.sol:Biochar",
        "label": "DEPRECATED_tokenBalances",
        "offset": 0,
        "slot": "402",
        "type": "t_mapping(t_address,t_uint256)"
      },
      {
        "astId": 22863,
        "contract": "contracts/pools/Biochar.sol:Biochar",
        "label": "DEPRECATED_contractRegistry",
        "offset": 0,
        "slot": "403",
        "type": "t_address"
      },
      {
        "astId": 22867,
        "contract": "contracts/pools/Biochar.sol:Biochar",
        "label": "scoredTCO2s",
        "offset": 0,
        "slot": "404",
        "type": "t_array(t_address)dyn_storage"
      },
      {
        "astId": 22872,
        "contract": "contracts/pools/Biochar.sol:Biochar",
        "label": "DEPRECATED_regions",
        "offset": 0,
        "slot": "405",
        "type": "t_mapping(t_string_memory_ptr,t_bool)"
      },
      {
        "astId": 22876,
        "contract": "contracts/pools/Biochar.sol:Biochar",
        "label": "DEPRECATED_standards",
        "offset": 0,
        "slot": "406",
        "type": "t_mapping(t_string_memory_ptr,t_bool)"
      },
      {
        "astId": 22880,
        "contract": "contracts/pools/Biochar.sol:Biochar",
        "label": "DEPRECATED_methodologies",
        "offset": 0,
        "slot": "407",
        "type": "t_mapping(t_string_memory_ptr,t_bool)"
      },
      {
        "astId": 22885,
        "contract": "contracts/pools/Biochar.sol:Biochar",
        "label": "DEPRECATED_externalWhiteList",
        "offset": 0,
        "slot": "408",
        "type": "t_mapping(t_address,t_bool)"
      },
      {
        "astId": 22890,
        "contract": "contracts/pools/Biochar.sol:Biochar",
        "label": "DEPRECATED_internalWhiteList",
        "offset": 0,
        "slot": "409",
        "type": "t_mapping(t_address,t_bool)"
      },
      {
        "astId": 22895,
        "contract": "contracts/pools/Biochar.sol:Biochar",
        "label": "DEPRECATED_internalBlackList",
        "offset": 0,
        "slot": "410",
        "type": "t_mapping(t_address,t_bool)"
      },
      {
        "astId": 22898,
        "contract": "contracts/pools/Biochar.sol:Biochar",
        "label": "feeRedeemReceiver",
        "offset": 0,
        "slot": "411",
        "type": "t_address"
      },
      {
        "astId": 22900,
        "contract": "contracts/pools/Biochar.sol:Biochar",
        "label": "feeRedeemPercentageInBase",
        "offset": 0,
        "slot": "412",
        "type": "t_uint256"
      },
      {
        "astId": 22903,
        "contract": "contracts/pools/Biochar.sol:Biochar",
        "label": "feeRedeemBurnAddress",
        "offset": 0,
        "slot": "413",
        "type": "t_address"
      },
      {
        "astId": 22906,
        "contract": "contracts/pools/Biochar.sol:Biochar",
        "label": "feeRedeemBurnPercentageInBase",
        "offset": 0,
        "slot": "414",
        "type": "t_uint256"
      },
      {
        "astId": 22909,
        "contract": "contracts/pools/Biochar.sol:Biochar",
        "label": "DEPRECATED_minimumVintageStartTime",
        "offset": 0,
        "slot": "415",
        "type": "t_uint64"
      },
      {
        "astId": 22911,
        "contract": "contracts/pools/Biochar.sol:Biochar",
        "label": "DEPRECATED_seedMode",
        "offset": 8,
        "slot": "415",
        "type": "t_bool"
      },
      {
        "astId": 22913,
        "contract": "contracts/pools/Biochar.sol:Biochar",
        "label": "DEPRECATED_regionsIsAcceptedMapping",
        "offset": 9,
        "slot": "415",
        "type": "t_bool"
      },
      {
        "astId": 22915,
        "contract": "contracts/pools/Biochar.sol:Biochar",
        "label": "DEPRECATED_standardsIsAcceptedMapping",
        "offset": 10,
        "slot": "415",
        "type": "t_bool"
      },
      {
        "astId": 22917,
        "contract": "contracts/pools/Biochar.sol:Biochar",
        "label": "DEPRECATED_methodologiesIsAcceptedMapping",
        "offset": 11,
        "slot": "415",
        "type": "t_bool"
      },
      {
        "astId": 22923,
        "contract": "contracts/pools/Biochar.sol:Biochar",
        "label": "redeemFeeExemptedAddresses",
        "offset": 0,
        "slot": "416",
        "type": "t_mapping(t_address,t_bool)"
      },
      {
        "astId": 22929,
        "contract": "contracts/pools/Biochar.sol:Biochar",
        "label": "redeemFeeExemptedTCO2s",
        "offset": 0,
        "slot": "417",
        "type": "t_mapping(t_address,t_bool)"
      },
      {
        "astId": 22933,
        "contract": "contracts/pools/Biochar.sol:Biochar",
        "label": "router",
        "offset": 0,
        "slot": "418",
        "type": "t_address"
      },
      {
        "astId": 22937,
        "contract": "contracts/pools/Biochar.sol:Biochar",
        "label": "feeRedeemRetirePercentageInBase",
        "offset": 0,
        "slot": "419",
        "type": "t_uint256"
      },
      {
        "astId": 22939,
        "contract": "contracts/pools/Biochar.sol:Biochar",
        "label": "filter",
        "offset": 0,
        "slot": "420",
        "type": "t_address"
      },
      {
        "astId": 22944,
        "contract": "contracts/pools/Biochar.sol:Biochar",
        "label": "feeCalculator",
        "offset": 0,
        "slot": "421",
        "type": "t_contract(IFeeCalculator)22998"
      }
    ],
    "types": {
      "t_address": {
        "encoding": "inplace",
        "label": "address",
        "numberOfBytes": "20"
      },
      "t_array(t_address)dyn_storage": {
        "base": "t_address",
        "encoding": "dynamic_array",
        "label": "address[]",
        "numberOfBytes": "32"
      },
      "t_array(t_uint256)45_storage": {
        "base": "t_uint256",
        "encoding": "inplace",
        "label": "uint256[45]",
        "numberOfBytes": "1440"
      },
      "t_array(t_uint256)49_storage": {
        "base": "t_uint256",
        "encoding": "inplace",
        "label": "uint256[49]",
        "numberOfBytes": "1568"
      },
      "t_array(t_uint256)50_storage": {
        "base": "t_uint256",
        "encoding": "inplace",
        "label": "uint256[50]",
        "numberOfBytes": "1600"
      },
      "t_bool": {
        "encoding": "inplace",
        "label": "bool",
        "numberOfBytes": "1"
      },
      "t_bytes32": {
        "encoding": "inplace",
        "label": "bytes32",
        "numberOfBytes": "32"
      },
      "t_contract(IFeeCalculator)22998": {
        "encoding": "inplace",
        "label": "contract IFeeCalculator",
        "numberOfBytes": "20"
      },
      "t_mapping(t_address,t_bool)": {
        "encoding": "mapping",
        "key": "t_address",
        "label": "mapping(address => bool)",
        "numberOfBytes": "32",
        "value": "t_bool"
      },
      "t_mapping(t_address,t_mapping(t_address,t_uint256))": {
        "encoding": "mapping",
        "key": "t_address",
        "label": "mapping(address => mapping(address => uint256))",
        "numberOfBytes": "32",
        "value": "t_mapping(t_address,t_uint256)"
      },
      "t_mapping(t_address,t_uint256)": {
        "encoding": "mapping",
        "key": "t_address",
        "label": "mapping(address => uint256)",
        "numberOfBytes": "32",
        "value": "t_uint256"
      },
      "t_mapping(t_bytes32,t_struct(RoleData)1492_storage)": {
        "encoding": "mapping",
        "key": "t_bytes32",
        "label": "mapping(bytes32 => struct AccessControlUpgradeable.RoleData)",
        "numberOfBytes": "32",
        "value": "t_struct(RoleData)1492_storage"
      },
      "t_mapping(t_string_memory_ptr,t_bool)": {
        "encoding": "mapping",
        "key": "t_string_memory_ptr",
        "label": "mapping(string => bool)",
        "numberOfBytes": "32",
        "value": "t_bool"
      },
      "t_string_memory_ptr": {
        "encoding": "bytes",
        "label": "string",
        "numberOfBytes": "32"
      },
      "t_string_storage": {
        "encoding": "bytes",
        "label": "string",
        "numberOfBytes": "32"
      },
      "t_struct(RoleData)1492_storage": {
        "encoding": "inplace",
        "label": "struct AccessControlUpgradeable.RoleData",
        "members": [
          {
            "astId": 1489,
            "contract": "contracts/pools/Biochar.sol:Biochar",
            "label": "members",
            "offset": 0,
            "slot": "0",
            "type": "t_mapping(t_address,t_bool)"
          },
          {
            "astId": 1491,
            "contract": "contracts/pools/Biochar.sol:Biochar",
            "label": "adminRole",
            "offset": 0,
            "slot": "1",
            "type": "t_bytes32"
          }
        ],
        "numberOfBytes": "64"
      },
      "t_uint256": {
        "encoding": "inplace",
        "label": "uint256",
        "numberOfBytes": "32"
      },
      "t_uint64": {
        "encoding": "inplace",
        "label": "uint64",
        "numberOfBytes": "8"
      },
      "t_uint8": {
        "encoding": "inplace",
        "label": "uint8",
        "numberOfBytes": "1"
      }
    }
  }
}