{
  "address": "0x098a65acA0e03A319F4Ce3d5CE12F5B770180031",
  "abi": [
    {
      "anonymous": false,
      "inputs": [
        {
          "indexed": false,
          "internalType": "address",
          "name": "previousAdmin",
          "type": "address"
        },
        {
          "indexed": false,
          "internalType": "address",
          "name": "newAdmin",
          "type": "address"
        }
      ],
      "name": "AdminChanged",
      "type": "event"
    },
    {
      "anonymous": false,
      "inputs": [
        {
          "indexed": false,
          "internalType": "string",
          "name": "methodology",
          "type": "string"
        }
      ],
      "name": "AttributeMethodologyAdded",
      "type": "event"
    },
    {
      "anonymous": false,
      "inputs": [
        {
          "indexed": false,
          "internalType": "string",
          "name": "methodology",
          "type": "string"
        }
      ],
      "name": "AttributeMethodologyRemoved",
      "type": "event"
    },
    {
      "anonymous": false,
      "inputs": [
        {
          "indexed": false,
          "internalType": "string",
          "name": "region",
          "type": "string"
        }
      ],
      "name": "AttributeRegionAdded",
      "type": "event"
    },
    {
      "anonymous": false,
      "inputs": [
        {
          "indexed": false,
          "internalType": "string",
          "name": "region",
          "type": "string"
        }
      ],
      "name": "AttributeRegionRemoved",
      "type": "event"
    },
    {
      "anonymous": false,
      "inputs": [
        {
          "indexed": false,
          "internalType": "string",
          "name": "standard",
          "type": "string"
        }
      ],
      "name": "AttributeStandardAdded",
      "type": "event"
    },
    {
      "anonymous": false,
      "inputs": [
        {
          "indexed": false,
          "internalType": "string",
          "name": "standard",
          "type": "string"
        }
      ],
      "name": "AttributeStandardRemoved",
      "type": "event"
    },
    {
      "anonymous": false,
      "inputs": [
        {
          "indexed": true,
          "internalType": "address",
          "name": "beacon",
          "type": "address"
        }
      ],
      "name": "BeaconUpgraded",
      "type": "event"
    },
    {
      "anonymous": false,
      "inputs": [
        {
          "indexed": false,
          "internalType": "address",
          "name": "erc20addr",
          "type": "address"
        }
      ],
      "name": "ExternalAddressRemovedFromWhitelist",
      "type": "event"
    },
    {
      "anonymous": false,
      "inputs": [
        {
          "indexed": false,
          "internalType": "address",
          "name": "erc20addr",
          "type": "address"
        }
      ],
      "name": "ExternalAddressWhitelisted",
      "type": "event"
    },
    {
      "anonymous": false,
      "inputs": [
        {
          "indexed": false,
          "internalType": "uint8",
          "name": "version",
          "type": "uint8"
        }
      ],
      "name": "Initialized",
      "type": "event"
    },
    {
      "anonymous": false,
      "inputs": [
        {
          "indexed": false,
          "internalType": "address",
          "name": "erc20addr",
          "type": "address"
        }
      ],
      "name": "InternalAddressBlacklisted",
      "type": "event"
    },
    {
      "anonymous": false,
      "inputs": [
        {
          "indexed": false,
          "internalType": "address",
          "name": "erc20addr",
          "type": "address"
        }
      ],
      "name": "InternalAddressRemovedFromBlackList",
      "type": "event"
    },
    {
      "anonymous": false,
      "inputs": [
        {
          "indexed": false,
          "internalType": "address",
          "name": "erc20addr",
          "type": "address"
        }
      ],
      "name": "InternalAddressRemovedFromWhitelist",
      "type": "event"
    },
    {
      "anonymous": false,
      "inputs": [
        {
          "indexed": false,
          "internalType": "address",
          "name": "erc20addr",
          "type": "address"
        }
      ],
      "name": "InternalAddressWhitelisted",
      "type": "event"
    },
    {
      "anonymous": false,
      "inputs": [
        {
          "indexed": false,
          "internalType": "string",
          "name": "mappingName",
          "type": "string"
        },
        {
          "indexed": false,
          "internalType": "bool",
          "name": "accepted",
          "type": "bool"
        }
      ],
      "name": "MappingSwitched",
      "type": "event"
    },
    {
      "anonymous": false,
      "inputs": [
        {
          "indexed": false,
          "internalType": "uint256",
          "name": "minimumVintageStartTime",
          "type": "uint256"
        }
      ],
      "name": "MinimumVintageStartTimeUpdated",
      "type": "event"
    },
    {
      "anonymous": false,
      "inputs": [
        {
          "indexed": true,
          "internalType": "address",
          "name": "previousOwner",
          "type": "address"
        },
        {
          "indexed": true,
          "internalType": "address",
          "name": "newOwner",
          "type": "address"
        }
      ],
      "name": "OwnershipTransferred",
      "type": "event"
    },
    {
      "anonymous": false,
      "inputs": [
        {
          "indexed": false,
          "internalType": "address",
          "name": "account",
          "type": "address"
        }
      ],
      "name": "Paused",
      "type": "event"
    },
    {
      "anonymous": false,
      "inputs": [
        {
          "indexed": true,
          "internalType": "bytes32",
          "name": "role",
          "type": "bytes32"
        },
        {
          "indexed": true,
          "internalType": "bytes32",
          "name": "previousAdminRole",
          "type": "bytes32"
        },
        {
          "indexed": true,
          "internalType": "bytes32",
          "name": "newAdminRole",
          "type": "bytes32"
        }
      ],
      "name": "RoleAdminChanged",
      "type": "event"
    },
    {
      "anonymous": false,
      "inputs": [
        {
          "indexed": true,
          "internalType": "bytes32",
          "name": "role",
          "type": "bytes32"
        },
        {
          "indexed": true,
          "internalType": "address",
          "name": "account",
          "type": "address"
        },
        {
          "indexed": true,
          "internalType": "address",
          "name": "sender",
          "type": "address"
        }
      ],
      "name": "RoleGranted",
      "type": "event"
    },
    {
      "anonymous": false,
      "inputs": [
        {
          "indexed": true,
          "internalType": "bytes32",
          "name": "role",
          "type": "bytes32"
        },
        {
          "indexed": true,
          "internalType": "address",
          "name": "account",
          "type": "address"
        },
        {
          "indexed": true,
          "internalType": "address",
          "name": "sender",
          "type": "address"
        }
      ],
      "name": "RoleRevoked",
      "type": "event"
    },
    {
      "anonymous": false,
      "inputs": [
        {
          "indexed": false,
          "internalType": "address",
          "name": "registry",
          "type": "address"
        }
      ],
      "name": "ToucanRegistrySet",
      "type": "event"
    },
    {
      "anonymous": false,
      "inputs": [
        {
          "indexed": false,
          "internalType": "address",
          "name": "account",
          "type": "address"
        }
      ],
      "name": "Unpaused",
      "type": "event"
    },
    {
      "anonymous": false,
      "inputs": [
        {
          "indexed": true,
          "internalType": "address",
          "name": "implementation",
          "type": "address"
        }
      ],
      "name": "Upgraded",
      "type": "event"
    },
    {
      "inputs": [],
      "name": "DEFAULT_ADMIN_ROLE",
      "outputs": [
        {
          "internalType": "bytes32",
          "name": "",
          "type": "bytes32"
        }
      ],
      "stateMutability": "view",
      "type": "function"
    },
    {
      "inputs": [],
      "name": "VERSION",
      "outputs": [
        {
          "internalType": "string",
          "name": "",
          "type": "string"
        }
      ],
      "stateMutability": "view",
      "type": "function"
    },
    {
      "inputs": [
        {
          "internalType": "bool",
          "name": "addToList",
          "type": "bool"
        },
        {
          "internalType": "string[]",
          "name": "_regions",
          "type": "string[]"
        },
        {
          "internalType": "string[]",
          "name": "_standards",
          "type": "string[]"
        },
        {
          "internalType": "string[]",
          "name": "_methodologies",
          "type": "string[]"
        }
      ],
      "name": "addAttributes",
      "outputs": [],
      "stateMutability": "nonpayable",
      "type": "function"
    },
    {
      "inputs": [
        {
          "internalType": "address[]",
          "name": "erc20Addr",
          "type": "address[]"
        }
      ],
      "name": "addToExternalWhiteList",
      "outputs": [],
      "stateMutability": "nonpayable",
      "type": "function"
    },
    {
      "inputs": [
        {
          "internalType": "address[]",
          "name": "erc20Addr",
          "type": "address[]"
        }
      ],
      "name": "addToInternalBlackList",
      "outputs": [],
      "stateMutability": "nonpayable",
      "type": "function"
    },
    {
      "inputs": [
        {
          "internalType": "address[]",
          "name": "erc20Addr",
          "type": "address[]"
        }
      ],
      "name": "addToInternalWhiteList",
      "outputs": [],
      "stateMutability": "nonpayable",
      "type": "function"
    },
    {
      "inputs": [
        {
          "internalType": "address",
          "name": "erc20Addr",
          "type": "address"
        }
      ],
      "name": "checkAttributeMatching",
      "outputs": [
        {
          "internalType": "bool",
          "name": "",
          "type": "bool"
        }
      ],
      "stateMutability": "view",
      "type": "function"
    },
    {
      "inputs": [
        {
          "internalType": "address",
          "name": "erc20Addr",
          "type": "address"
        }
      ],
      "name": "checkEligible",
      "outputs": [
        {
          "internalType": "bool",
          "name": "",
          "type": "bool"
        }
      ],
      "stateMutability": "view",
      "type": "function"
    },
    {
      "inputs": [],
      "name": "contractRegistry",
      "outputs": [
        {
          "internalType": "address",
          "name": "",
          "type": "address"
        }
      ],
      "stateMutability": "view",
      "type": "function"
    },
    {
      "inputs": [
        {
          "internalType": "address",
          "name": "",
          "type": "address"
        }
      ],
      "name": "externalWhiteList",
      "outputs": [
        {
          "internalType": "bool",
          "name": "",
          "type": "bool"
        }
      ],
      "stateMutability": "view",
      "type": "function"
    },
    {
      "inputs": [
        {
          "internalType": "bytes32",
          "name": "role",
          "type": "bytes32"
        }
      ],
      "name": "getRoleAdmin",
      "outputs": [
        {
          "internalType": "bytes32",
          "name": "",
          "type": "bytes32"
        }
      ],
      "stateMutability": "view",
      "type": "function"
    },
    {
      "inputs": [
        {
          "internalType": "bytes32",
          "name": "role",
          "type": "bytes32"
        },
        {
          "internalType": "address",
          "name": "account",
          "type": "address"
        }
      ],
      "name": "grantRole",
      "outputs": [],
      "stateMutability": "nonpayable",
      "type": "function"
    },
    {
      "inputs": [
        {
          "internalType": "bytes32",
          "name": "role",
          "type": "bytes32"
        },
        {
          "internalType": "address",
          "name": "account",
          "type": "address"
        }
      ],
      "name": "hasRole",
      "outputs": [
        {
          "internalType": "bool",
          "name": "",
          "type": "bool"
        }
      ],
      "stateMutability": "view",
      "type": "function"
    },
    {
      "inputs": [],
      "name": "initialize",
      "outputs": [],
      "stateMutability": "nonpayable",
      "type": "function"
    },
    {
      "inputs": [
        {
          "internalType": "address",
          "name": "",
          "type": "address"
        }
      ],
      "name": "internalBlackList",
      "outputs": [
        {
          "internalType": "bool",
          "name": "",
          "type": "bool"
        }
      ],
      "stateMutability": "view",
      "type": "function"
    },
    {
      "inputs": [
        {
          "internalType": "address",
          "name": "",
          "type": "address"
        }
      ],
      "name": "internalWhiteList",
      "outputs": [
        {
          "internalType": "bool",
          "name": "",
          "type": "bool"
        }
      ],
      "stateMutability": "view",
      "type": "function"
    },
    {
      "inputs": [
        {
          "internalType": "string",
          "name": "",
          "type": "string"
        }
      ],
      "name": "methodologies",
      "outputs": [
        {
          "internalType": "bool",
          "name": "",
          "type": "bool"
        }
      ],
      "stateMutability": "view",
      "type": "function"
    },
    {
      "inputs": [],
      "name": "methodologiesIsAcceptedMapping",
      "outputs": [
        {
          "internalType": "bool",
          "name": "",
          "type": "bool"
        }
      ],
      "stateMutability": "view",
      "type": "function"
    },
    {
      "inputs": [],
      "name": "minimumVintageStartTime",
      "outputs": [
        {
          "internalType": "uint64",
          "name": "",
          "type": "uint64"
        }
      ],
      "stateMutability": "view",
      "type": "function"
    },
    {
      "inputs": [],
      "name": "owner",
      "outputs": [
        {
          "internalType": "address",
          "name": "",
          "type": "address"
        }
      ],
      "stateMutability": "view",
      "type": "function"
    },
    {
      "inputs": [],
      "name": "paused",
      "outputs": [
        {
          "internalType": "bool",
          "name": "",
          "type": "bool"
        }
      ],
      "stateMutability": "view",
      "type": "function"
    },
    {
      "inputs": [],
      "name": "proxiableUUID",
      "outputs": [
        {
          "internalType": "bytes32",
          "name": "",
          "type": "bytes32"
        }
      ],
      "stateMutability": "view",
      "type": "function"
    },
    {
      "inputs": [
        {
          "internalType": "string",
          "name": "",
          "type": "string"
        }
      ],
      "name": "regions",
      "outputs": [
        {
          "internalType": "bool",
          "name": "",
          "type": "bool"
        }
      ],
      "stateMutability": "view",
      "type": "function"
    },
    {
      "inputs": [],
      "name": "regionsIsAcceptedMapping",
      "outputs": [
        {
          "internalType": "bool",
          "name": "",
          "type": "bool"
        }
      ],
      "stateMutability": "view",
      "type": "function"
    },
    {
      "inputs": [
        {
          "internalType": "address[]",
          "name": "erc20Addr",
          "type": "address[]"
        }
      ],
      "name": "removeFromExternalWhiteList",
      "outputs": [],
      "stateMutability": "nonpayable",
      "type": "function"
    },
    {
      "inputs": [
        {
          "internalType": "address[]",
          "name": "erc20Addr",
          "type": "address[]"
        }
      ],
      "name": "removeFromInternalBlackList",
      "outputs": [],
      "stateMutability": "nonpayable",
      "type": "function"
    },
    {
      "inputs": [
        {
          "internalType": "address[]",
          "name": "erc20Addr",
          "type": "address[]"
        }
      ],
      "name": "removeFromInternalWhiteList",
      "outputs": [],
      "stateMutability": "nonpayable",
      "type": "function"
    },
    {
      "inputs": [],
      "name": "renounceOwnership",
      "outputs": [],
      "stateMutability": "nonpayable",
      "type": "function"
    },
    {
      "inputs": [
        {
          "internalType": "bytes32",
          "name": "role",
          "type": "bytes32"
        },
        {
          "internalType": "address",
          "name": "account",
          "type": "address"
        }
      ],
      "name": "renounceRole",
      "outputs": [],
      "stateMutability": "nonpayable",
      "type": "function"
    },
    {
      "inputs": [
        {
          "internalType": "bytes32",
          "name": "role",
          "type": "bytes32"
        },
        {
          "internalType": "address",
          "name": "account",
          "type": "address"
        }
      ],
      "name": "revokeRole",
      "outputs": [],
      "stateMutability": "nonpayable",
      "type": "function"
    },
    {
      "inputs": [
        {
          "internalType": "uint64",
          "name": "_minimumVintageStartTime",
          "type": "uint64"
        }
      ],
      "name": "setMinimumVintageStartTime",
      "outputs": [],
      "stateMutability": "nonpayable",
      "type": "function"
    },
    {
      "inputs": [
        {
          "internalType": "address",
          "name": "_address",
          "type": "address"
        }
      ],
      "name": "setToucanContractRegistry",
      "outputs": [],
      "stateMutability": "nonpayable",
      "type": "function"
    },
    {
      "inputs": [
        {
          "internalType": "string",
          "name": "",
          "type": "string"
        }
      ],
      "name": "standards",
      "outputs": [
        {
          "internalType": "bool",
          "name": "",
          "type": "bool"
        }
      ],
      "stateMutability": "view",
      "type": "function"
    },
    {
      "inputs": [],
      "name": "standardsIsAcceptedMapping",
      "outputs": [
        {
          "internalType": "bool",
          "name": "",
          "type": "bool"
        }
      ],
      "stateMutability": "view",
      "type": "function"
    },
    {
      "inputs": [
        {
          "internalType": "bytes4",
          "name": "interfaceId",
          "type": "bytes4"
        }
      ],
      "name": "supportsInterface",
      "outputs": [
        {
          "internalType": "bool",
          "name": "",
          "type": "bool"
        }
      ],
      "stateMutability": "view",
      "type": "function"
    },
    {
      "inputs": [
        {
          "internalType": "string",
          "name": "_mappingName",
          "type": "string"
        },
        {
          "internalType": "bool",
          "name": "accepted",
          "type": "bool"
        }
      ],
      "name": "switchMapping",
      "outputs": [],
      "stateMutability": "nonpayable",
      "type": "function"
    },
    {
      "inputs": [
        {
          "internalType": "address",
          "name": "newOwner",
          "type": "address"
        }
      ],
      "name": "transferOwnership",
      "outputs": [],
      "stateMutability": "nonpayable",
      "type": "function"
    },
    {
      "inputs": [
        {
          "internalType": "address",
          "name": "newImplementation",
          "type": "address"
        }
      ],
      "name": "upgradeTo",
      "outputs": [],
      "stateMutability": "nonpayable",
      "type": "function"
    },
    {
      "inputs": [
        {
          "internalType": "address",
          "name": "newImplementation",
          "type": "address"
        },
        {
          "internalType": "bytes",
          "name": "data",
          "type": "bytes"
        }
      ],
      "name": "upgradeToAndCall",
      "outputs": [],
      "stateMutability": "payable",
      "type": "function"
    }
  ],
  "numDeployments": 1,
  "solcInputHash": "ab83bb196cfc7aae4707dbeb68039d2f",
  "bytecode": "0x60a0604052306080523480156200001557600080fd5b506200002062000026565b62000156565b6200003260ff62000035565b50565b60008054610100900460ff1615620000ce578160ff1660011480156200006e57506200006c306200014760201b62001d4c1760201c565b155b620000c65760405162461bcd60e51b815260206004820152602e6024820152600080516020620033a883398151915260448201526d191e481a5b9a5d1a585b1a5e995960921b60648201526084015b60405180910390fd5b506000919050565b60005460ff8084169116106200012d5760405162461bcd60e51b815260206004820152602e6024820152600080516020620033a883398151915260448201526d191e481a5b9a5d1a585b1a5e995960921b6064820152608401620000bd565b506000805460ff191660ff92909216919091179055600190565b6001600160a01b03163b151590565b60805161321a6200018e600039600081816109400152818161098001528181610c6e01528181610cae0152610d3d015261321a6000f3fe6080604052600436106102305760003560e01c806388c9cf6e1161012e578063d547741f116100ab578063f141b84f1161006f578063f141b84f146106ef578063f2fde38b14610711578063f3edb9ec14610731578063f75991cd1461076d578063ffa1ad74146107a957600080fd5b8063d547741f1461062d578063dc5f560e1461064d578063e882e37b1461066d578063f06f51031461068d578063f138ac16146106be57600080fd5b8063a217fddf116100f2578063a217fddf14610593578063a9a484c5146105a8578063abf410e5146105c8578063c36a2573146105e9578063d4e457ec1461060b57600080fd5b806388c9cf6e146104c15780638da5cb5b146104e15780638dcb01ec1461051357806391d1485414610533578063a1631e4b1461055357600080fd5b806352d1902d116101bc578063715018a611610180578063715018a61461041b5780637966529d146104305780638129fc1c1461045057806381e48e90146104655780638662522f1461048557600080fd5b806352d1902d1461037d57806354c9c970146103925780635c975abb146103b25780635db44cef146103ca5780636fd2f181146103ea57600080fd5b806336568abe1161020357806336568abe146102ea5780633659cfe61461030a57806339cd7a8a1461032a57806346518b0a1461034a5780634f1ef2861461036a57600080fd5b806301ffc9a7146102355780630c0efecc1461026a578063248a9ca31461028c5780632f2ff15d146102ca575b600080fd5b34801561024157600080fd5b50610255610250366004612635565b6107e7565b60405190151581526020015b60405180910390f35b34801561027657600080fd5b5061028a610285366004612674565b61081e565b005b34801561029857600080fd5b506102bc6102a7366004612691565b600090815260c9602052604090206001015490565b604051908152602001610261565b3480156102d657600080fd5b5061028a6102e53660046126bf565b610889565b3480156102f657600080fd5b5061028a6103053660046126bf565b6108b3565b34801561031657600080fd5b5061028a6103253660046126ef565b610936565b34801561033657600080fd5b5061028a610345366004612831565b610a15565b34801561035657600080fd5b5061028a61036536600461289a565b610b89565b61028a610378366004612933565b610c64565b34801561038957600080fd5b506102bc610d30565b34801561039e57600080fd5b5061028a6103ad36600461289a565b610de3565b3480156103be57600080fd5b5060655460ff16610255565b3480156103d657600080fd5b5061028a6103e536600461289a565b610ebe565b3480156103f657600080fd5b506102556104053660046126ef565b6101626020526000908152604090205460ff1681565b34801561042757600080fd5b5061028a610f99565b34801561043c57600080fd5b5061028a61044b36600461289a565b610fff565b34801561045c57600080fd5b5061028a6110da565b34801561047157600080fd5b5061028a610480366004612a20565b611148565b34801561049157600080fd5b506102556104a0366004612aba565b805160208183018101805161015f8252928201919093012091525460ff1681565b3480156104cd57600080fd5b5061028a6104dc36600461289a565b6115a3565b3480156104ed57600080fd5b506033546001600160a01b03165b6040516001600160a01b039091168152602001610261565b34801561051f57600080fd5b5061028a61052e36600461289a565b61167e565b34801561053f57600080fd5b5061025561054e3660046126bf565b611759565b34801561055f57600080fd5b506101655461057b90600160a01b90046001600160401b031681565b6040516001600160401b039091168152602001610261565b34801561059f57600080fd5b506102bc600081565b3480156105b457600080fd5b506102556105c33660046126ef565b611784565b3480156105d457600080fd5b50610165546104fb906001600160a01b031681565b3480156105f557600080fd5b506101655461025590600160e81b900460ff1681565b34801561061757600080fd5b506101655461025590600160f01b900460ff1681565b34801561063957600080fd5b5061028a6106483660046126bf565b611a9a565b34801561065957600080fd5b506102556106683660046126ef565b611abf565b34801561067957600080fd5b5061028a6106883660046126ef565b611c2d565b34801561069957600080fd5b506102556106a83660046126ef565b6101646020526000908152604090205460ff1681565b3480156106ca57600080fd5b506102556106d93660046126ef565b6101636020526000908152604090205460ff1681565b3480156106fb57600080fd5b506101655461025590600160e01b900460ff1681565b34801561071d57600080fd5b5061028a61072c3660046126ef565b611c84565b34801561073d57600080fd5b5061025561074c366004612aba565b80516020818301810180516101608252928201919093012091525460ff1681565b34801561077957600080fd5b50610255610788366004612aba565b80516020818301810180516101618252928201919093012091525460ff1681565b3480156107b557600080fd5b506107da604051806040016040528060058152602001640312e302e360dc1b81525081565b6040516102619190612b4e565b60006001600160e01b03198216637965db0b60e01b148061081857506301ffc9a760e01b6001600160e01b03198316145b92915050565b610826611d5b565b610165805467ffffffffffffffff60a01b1916600160a01b6001600160401b038416908102919091179091556040519081527f87f670402a6c72fff3b60ba5223165f062b58d671871fc2c49ea96101fdd19a0906020015b60405180910390a150565b600082815260c960205260409020600101546108a481611db1565b6108ae8383611dbb565b505050565b6001600160a01b03811633146109285760405162461bcd60e51b815260206004820152602f60248201527f416363657373436f6e74726f6c3a2063616e206f6e6c792072656e6f756e636560448201526e103937b632b9903337b91039b2b63360891b60648201526084015b60405180910390fd5b6109328282611e41565b5050565b6001600160a01b037f000000000000000000000000000000000000000000000000000000000000000016300361097e5760405162461bcd60e51b815260040161091f90612b61565b7f00000000000000000000000000000000000000000000000000000000000000006001600160a01b03166109c760008051602061319e833981519152546001600160a01b031690565b6001600160a01b0316146109ed5760405162461bcd60e51b815260040161091f90612bad565b6109f681611ea8565b60408051600080825260208201909252610a1291839190611eb0565b50565b610a1d611d5b565b604080518082019091526007815266726567696f6e7360c81b6020820152610a4690839061201b565b15610a825780610a6557610165805460ff60e01b191690556000610a7c565b610165805460ff60e01b1916600160e01b17905560015b50610b4c565b6040805180820190915260098152687374616e646172647360b81b6020820152610aad90839061201b565b15610ae55780610acc57610165805460ff60e81b191690556000610a7c565b610165805460ff60e81b1916600160e81b179055610b4c565b60408051808201909152600d81526c6d6574686f646f6c6f6769657360981b6020820152610b1490839061201b565b15610b4c5780610b3357610165805460ff60f01b191690556000610b4a565b610165805460ff60f01b1916600160f01b17905560015b505b7fcdc35455a1217219a4240bb18a7d2978eb98208f22f7ec36d6a1381c28f9d0f58282604051610b7d929190612bf9565b60405180910390a15050565b610b91611d5b565b60005b81518110156109325760016101626000848481518110610bb657610bb6612c1d565b60200260200101516001600160a01b03166001600160a01b0316815260200190815260200160002060006101000a81548160ff0219169083151502179055507f29b8b184f4394a88477750516a3701dd0c9409451be78c24428bf5f827f527a5828281518110610c2857610c28612c1d565b6020026020010151604051610c4c91906001600160a01b0391909116815260200190565b60405180910390a1610c5d81612c49565b9050610b94565b6001600160a01b037f0000000000000000000000000000000000000000000000000000000000000000163003610cac5760405162461bcd60e51b815260040161091f90612b61565b7f00000000000000000000000000000000000000000000000000000000000000006001600160a01b0316610cf560008051602061319e833981519152546001600160a01b031690565b6001600160a01b031614610d1b5760405162461bcd60e51b815260040161091f90612bad565b610d2482611ea8565b61093282826001611eb0565b6000306001600160a01b037f00000000000000000000000000000000000000000000000000000000000000001614610dd05760405162461bcd60e51b815260206004820152603860248201527f555550535570677261646561626c653a206d757374206e6f742062652063616c60448201527f6c6564207468726f7567682064656c656761746563616c6c0000000000000000606482015260840161091f565b5060008051602061319e83398151915290565b610deb611d5b565b60005b81518110156109325760016101646000848481518110610e1057610e10612c1d565b60200260200101516001600160a01b03166001600160a01b0316815260200190815260200160002060006101000a81548160ff0219169083151502179055507f43388d274033333ceb567d699874be067ce7411c2bfc989f8e623694c9b3284f828281518110610e8257610e82612c1d565b6020026020010151604051610ea691906001600160a01b0391909116815260200190565b60405180910390a1610eb781612c49565b9050610dee565b610ec6611d5b565b60005b81518110156109325760006101646000848481518110610eeb57610eeb612c1d565b60200260200101516001600160a01b03166001600160a01b0316815260200190815260200160002060006101000a81548160ff0219169083151502179055507fa7f25a7a7bea0a3fabbe5dc8b6176bd9a603925da390010a10998148c192b670828281518110610f5d57610f5d612c1d565b6020026020010151604051610f8191906001600160a01b0391909116815260200190565b60405180910390a1610f9281612c49565b9050610ec9565b6033546001600160a01b03163314610ff35760405162461bcd60e51b815260206004820181905260248201527f4f776e61626c653a2063616c6c6572206973206e6f7420746865206f776e6572604482015260640161091f565b610ffd6000612042565b565b611007611d5b565b60005b8151811015610932576000610162600084848151811061102c5761102c612c1d565b60200260200101516001600160a01b03166001600160a01b0316815260200190815260200160002060006101000a81548160ff0219169083151502179055507f3c36656d3e8c3db21a1c7d0a7208d73387e15535964c44c30b20c45ab51b3c3882828151811061109e5761109e612c1d565b60200260200101516040516110c291906001600160a01b0391909116815260200190565b60405180910390a16110d381612c49565b905061100a565b60006110e66001612094565b905080156110fe576000805461ff0019166101001790555b611106612121565b8015610a12576000805461ff0019169055604051600181527f7f26b83ff96e1f2b6a682f133852f6798a09c465da95921460cefb38474024989060200161087e565b611150611d5b565b60005b82518110156112be5784151560010361120c57600161016084838151811061117d5761117d612c1d565b60200260200101516040516111929190612c62565b908152602001604051809103902060006101000a81548160ff0219169083151502179055507fa27e97999993c298fae0b7088ff732fe078cc1585665ee1554220b3cbe6317a98382815181106111ea576111ea612c1d565b60200260200101516040516111ff9190612b4e565b60405180910390a16112ae565b600061016084838151811061122357611223612c1d565b60200260200101516040516112389190612c62565b908152602001604051809103902060006101000a81548160ff0219169083151502179055507f0127ddc00426c693b5becb26ba43a260c781ebc323b61d3b24b61e4dc5c93c7183828151811061129057611290612c1d565b60200260200101516040516112a59190612b4e565b60405180910390a15b6112b781612c49565b9050611153565b5060005b815181101561142d5784151560010361137b5760016101618383815181106112ec576112ec612c1d565b60200260200101516040516113019190612c62565b908152602001604051809103902060006101000a81548160ff0219169083151502179055507f156643e9a7f860e95993739893595e6ee1d04d9ff1b98567dbe9d5681cd152b282828151811061135957611359612c1d565b602002602001015160405161136e9190612b4e565b60405180910390a161141d565b600061016183838151811061139257611392612c1d565b60200260200101516040516113a79190612c62565b908152602001604051809103902060006101000a81548160ff0219169083151502179055507f21a77ac4edf49633047cc4e32b10dfe633811216214400e0e1f507c3f7287b618282815181106113ff576113ff612c1d565b60200260200101516040516114149190612b4e565b60405180910390a15b61142681612c49565b90506112c2565b5060005b835181101561159c578415156001036114ea57600161015f85838151811061145b5761145b612c1d565b60200260200101516040516114709190612c62565b908152602001604051809103902060006101000a81548160ff0219169083151502179055507f3df7a1330febee3646ae4a0f0e46c94c046f0ee810b2b7f1fa10fa8f34d7b7ef8482815181106114c8576114c8612c1d565b60200260200101516040516114dd9190612b4e565b60405180910390a161158c565b600061015f85838151811061150157611501612c1d565b60200260200101516040516115169190612c62565b908152602001604051809103902060006101000a81548160ff0219169083151502179055507fc84badb33408cce6e89b30a735d8f06e094fa4a19c01c2da66718f490c672f6584828151811061156e5761156e612c1d565b60200260200101516040516115839190612b4e565b60405180910390a15b61159581612c49565b9050611431565b5050505050565b6115ab611d5b565b60005b815181101561093257600161016360008484815181106115d0576115d0612c1d565b60200260200101516001600160a01b03166001600160a01b0316815260200190815260200160002060006101000a81548160ff0219169083151502179055507f2e333bce7bf5a0097fbb4fef2a950809960b5a4aa1a63cbcffc24ac62dc4fd0782828151811061164257611642612c1d565b602002602001015160405161166691906001600160a01b0391909116815260200190565b60405180910390a161167781612c49565b90506115ae565b611686611d5b565b60005b815181101561093257600061016360008484815181106116ab576116ab612c1d565b60200260200101516001600160a01b03166001600160a01b0316815260200190815260200160002060006101000a81548160ff0219169083151502179055507f9cee5064afac40e291311ecb6a670ef3ef652131fb1ed15c1266fb22cffd6bdd82828151811061171d5761171d612c1d565b602002602001015160405161174191906001600160a01b0391909116815260200190565b60405180910390a161175281612c49565b9050611689565b600091825260c9602090815260408084206001600160a01b0393909316845291905290205460ff1690565b60006117e560405180610140016040528060608152602001606081526020016060815260200160608152602001606081526020016060815260200160608152602001606081526020016060815260200160006001600160a01b031681525090565b6118686040518061018001604052806060815260200160006001600160401b0316815260200160006001600160401b031681526020016000815260200160006001600160401b0316815260200160001515815260200160001515815260200160608152602001606081526020016060815260200160608152602001606081525090565b836001600160a01b031663152583de6040518163ffffffff1660e01b8152600401600060405180830381865afa1580156118a6573d6000803e3d6000fd5b505050506040513d6000823e601f3d908101601f191682016040526118ce9190810190612e4e565b610165546020808301516040805180820190915260018152601b60f91b9281019290925293955091935090916001600160401b03600160a01b90920482169116101561192d5760405162461bcd60e51b815260040161091f9190612b4e565b50610165601c9054906101000a900460ff16151561015f83606001516040516119569190612c62565b9081526040805191829003602090810183205483830190925260018352603760f81b90830152909160ff9091161515146119a35760405162461bcd60e51b815260040161091f9190612b4e565b50610165601d9054906101000a900460ff16151561016083602001516040516119cc9190612c62565b9081526040805191829003602090810183205483830190925260018352600760fb1b90830152909160ff909116151514611a195760405162461bcd60e51b815260040161091f9190612b4e565b50610165601e9054906101000a900460ff1615156101618360400151604051611a429190612c62565b9081526040805191829003602090810183205483830190925260018352603960f81b90830152909160ff909116151514611a8f5760405162461bcd60e51b815260040161091f9190612b4e565b506001949350505050565b600082815260c96020526040902060010154611ab581611db1565b6108ae8383611e41565b61016554604051633a37b16d60e11b81526001600160a01b038381166004830152600092839291169063746f62da90602401602060405180830381865afa158015611b0e573d6000803e3d6000fd5b505050506040513d601f19601f82011682018060405250810190611b32919061300b565b90508015611bcc576001600160a01b0383166000908152610163602052604090205460ff1615611b655750600192915050565b6001600160a01b0383166000908152610164602090815260409182902054825180840190935260018352600d60fa1b9183019190915260ff1615611bbc5760405162461bcd60e51b815260040161091f9190612b4e565b50611bc683611784565b50611c24565b6001600160a01b0383166000908152610162602090815260409182902054825180840190935260018352603560f81b9183019190915260ff16611c225760405162461bcd60e51b815260040161091f9190612b4e565b505b50600192915050565b611c35611d5b565b61016580546001600160a01b0319166001600160a01b0383169081179091556040519081527f86907b53cf2024579968511876daf0b4620d65803b550e33101baf70aeb6f5eb9060200161087e565b6033546001600160a01b03163314611cde5760405162461bcd60e51b815260206004820181905260248201527f4f776e61626c653a2063616c6c6572206973206e6f7420746865206f776e6572604482015260640161091f565b6001600160a01b038116611d435760405162461bcd60e51b815260206004820152602660248201527f4f776e61626c653a206e6577206f776e657220697320746865207a65726f206160448201526564647265737360d01b606482015260840161091f565b610a1281612042565b6001600160a01b03163b151590565b33611d6e6033546001600160a01b031690565b6001600160a01b03161460405180604001604052806002815260200161062760f31b81525090610a125760405162461bcd60e51b815260040161091f9190612b4e565b610a128133612178565b611dc58282611759565b61093257600082815260c9602090815260408083206001600160a01b03851684529091529020805460ff19166001179055611dfd3390565b6001600160a01b0316816001600160a01b0316837f2f8788117e7eff1d82e926ec794901d17c78024a50270940304540a733656f0d60405160405180910390a45050565b611e4b8282611759565b1561093257600082815260c9602090815260408083206001600160a01b0385168085529252808320805460ff1916905551339285917ff6391f5c32d9c69d2a47ea670b442974b53935d1edc7fd64eb21e047a839171b9190a45050565b610a12611d5b565b7f4910fdfa16fed3260ed0e7147f7cc6da11a60208b5b9406d12a635614ffd91435460ff1615611ee3576108ae836121dc565b826001600160a01b03166352d1902d6040518163ffffffff1660e01b8152600401602060405180830381865afa925050508015611f3d575060408051601f3d908101601f19168201909252611f3a91810190613028565b60015b611fa05760405162461bcd60e51b815260206004820152602e60248201527f45524331393637557067726164653a206e657720696d706c656d656e7461746960448201526d6f6e206973206e6f74205555505360901b606482015260840161091f565b60008051602061319e833981519152811461200f5760405162461bcd60e51b815260206004820152602960248201527f45524331393637557067726164653a20756e737570706f727465642070726f786044820152681a58589b195555525160ba1b606482015260840161091f565b506108ae838383612278565b60008151835114801561203b575081805190602001208380519060200120145b9392505050565b603380546001600160a01b038381166001600160a01b0319831681179093556040519116919082907f8be0079c531659141344cd1fd0a4f28419497f9722a3daafe3b4186f6b6457e090600090a35050565b60008054610100900460ff16156120db578160ff1660011480156120b75750303b155b6120d35760405162461bcd60e51b815260040161091f90613041565b506000919050565b60005460ff8084169116106121025760405162461bcd60e51b815260040161091f90613041565b506000805460ff191660ff92909216919091179055600190565b919050565b600061212d6001612094565b90508015612145576000805461ff0019166101001790555b61214d6122a3565b6121556122ca565b61215d6122fa565b6121656122a3565b61216d6122a3565b611106600033611dbb565b6121828282611759565b6109325761219a816001600160a01b0316601461232d565b6121a583602061232d565b6040516020016121b692919061308f565b60408051601f198184030181529082905262461bcd60e51b825261091f91600401612b4e565b6001600160a01b0381163b6122495760405162461bcd60e51b815260206004820152602d60248201527f455243313936373a206e657720696d706c656d656e746174696f6e206973206e60448201526c1bdd08184818dbdb9d1c9858dd609a1b606482015260840161091f565b60008051602061319e83398151915280546001600160a01b0319166001600160a01b0392909216919091179055565b612281836124c8565b60008251118061228e5750805b156108ae5761229d8383612508565b50505050565b600054610100900460ff16610ffd5760405162461bcd60e51b815260040161091f90613104565b600054610100900460ff166122f15760405162461bcd60e51b815260040161091f90613104565b610ffd33612042565b600054610100900460ff166123215760405162461bcd60e51b815260040161091f90613104565b6065805460ff19169055565b6060600061233c83600261314f565b61234790600261316e565b6001600160401b0381111561235e5761235e61270c565b6040519080825280601f01601f191660200182016040528015612388576020820181803683370190505b509050600360fc1b816000815181106123a3576123a3612c1d565b60200101906001600160f81b031916908160001a905350600f60fb1b816001815181106123d2576123d2612c1d565b60200101906001600160f81b031916908160001a90535060006123f684600261314f565b61240190600161316e565b90505b6001811115612479576f181899199a1a9b1b9c1cb0b131b232b360811b85600f166010811061243557612435612c1d565b1a60f81b82828151811061244b5761244b612c1d565b60200101906001600160f81b031916908160001a90535060049490941c9361247281613186565b9050612404565b50831561203b5760405162461bcd60e51b815260206004820181905260248201527f537472696e67733a20686578206c656e67746820696e73756666696369656e74604482015260640161091f565b6124d1816121dc565b6040516001600160a01b038216907fbc7cd75a20ee27fd9adebab32041f755214dbc6bffa90cc0225b39da2e5c2d3b90600090a250565b60606001600160a01b0383163b6125705760405162461bcd60e51b815260206004820152602660248201527f416464726573733a2064656c65676174652063616c6c20746f206e6f6e2d636f6044820152651b9d1c9858dd60d21b606482015260840161091f565b600080846001600160a01b03168460405161258b9190612c62565b600060405180830381855af49150503d80600081146125c6576040519150601f19603f3d011682016040523d82523d6000602084013e6125cb565b606091505b50915091506125f382826040518060600160405280602781526020016131be602791396125fc565b95945050505050565b6060831561260b57508161203b565b82511561261b5782518084602001fd5b8160405162461bcd60e51b815260040161091f9190612b4e565b60006020828403121561264757600080fd5b81356001600160e01b03198116811461203b57600080fd5b6001600160401b0381168114610a1257600080fd5b60006020828403121561268657600080fd5b813561203b8161265f565b6000602082840312156126a357600080fd5b5035919050565b6001600160a01b0381168114610a1257600080fd5b600080604083850312156126d257600080fd5b8235915060208301356126e4816126aa565b809150509250929050565b60006020828403121561270157600080fd5b813561203b816126aa565b634e487b7160e01b600052604160045260246000fd5b60405161018081016001600160401b03811182821017156127455761274561270c565b60405290565b60405161014081016001600160401b03811182821017156127455761274561270c565b604051601f8201601f191681016001600160401b03811182821017156127965761279661270c565b604052919050565b60006001600160401b038211156127b7576127b761270c565b50601f01601f191660200190565b60006127d86127d38461279e565b61276e565b90508281528383830111156127ec57600080fd5b828260208301376000602084830101529392505050565b600082601f83011261281457600080fd5b61203b838335602085016127c5565b8015158114610a1257600080fd5b6000806040838503121561284457600080fd5b82356001600160401b0381111561285a57600080fd5b61286685828601612803565b92505060208301356126e481612823565b60006001600160401b038211156128905761289061270c565b5060051b60200190565b600060208083850312156128ad57600080fd5b82356001600160401b038111156128c357600080fd5b8301601f810185136128d457600080fd5b80356128e26127d382612877565b81815260059190911b8201830190838101908783111561290157600080fd5b928401925b82841015612928578335612919816126aa565b82529284019290840190612906565b979650505050505050565b6000806040838503121561294657600080fd5b8235612951816126aa565b915060208301356001600160401b0381111561296c57600080fd5b8301601f8101851361297d57600080fd5b61298c858235602084016127c5565b9150509250929050565b600082601f8301126129a757600080fd5b813560206129b76127d383612877565b82815260059290921b840181019181810190868411156129d657600080fd5b8286015b84811015612a155780356001600160401b038111156129f95760008081fd5b612a078986838b0101612803565b8452509183019183016129da565b509695505050505050565b60008060008060808587031215612a3657600080fd5b8435612a4181612823565b935060208501356001600160401b0380821115612a5d57600080fd5b612a6988838901612996565b94506040870135915080821115612a7f57600080fd5b612a8b88838901612996565b93506060870135915080821115612aa157600080fd5b50612aae87828801612996565b91505092959194509250565b600060208284031215612acc57600080fd5b81356001600160401b03811115612ae257600080fd5b612aee84828501612803565b949350505050565b60005b83811015612b11578181015183820152602001612af9565b8381111561229d5750506000910152565b60008151808452612b3a816020860160208601612af6565b601f01601f19169290920160200192915050565b60208152600061203b6020830184612b22565b6020808252602c908201527f46756e6374696f6e206d7573742062652063616c6c6564207468726f7567682060408201526b19195b1959d85d1958d85b1b60a21b606082015260800190565b6020808252602c908201527f46756e6374696f6e206d7573742062652063616c6c6564207468726f7567682060408201526b6163746976652070726f787960a01b606082015260800190565b604081526000612c0c6040830185612b22565b905082151560208301529392505050565b634e487b7160e01b600052603260045260246000fd5b634e487b7160e01b600052601160045260246000fd5b600060018201612c5b57612c5b612c33565b5060010190565b60008251612c74818460208701612af6565b9190910192915050565b600082601f830112612c8f57600080fd5b8151612c9d6127d38261279e565b818152846020838601011115612cb257600080fd5b612aee826020830160208701612af6565b805161211c816126aa565b805161211c8161265f565b805161211c81612823565b60006101808284031215612cf757600080fd5b612cff612722565b905081516001600160401b0380821115612d1857600080fd5b612d2485838601612c7e565b8352612d3260208501612cce565b6020840152612d4360408501612cce565b604084015260608401516060840152612d5e60808501612cce565b6080840152612d6f60a08501612cd9565b60a0840152612d8060c08501612cd9565b60c084015260e0840151915080821115612d9957600080fd5b612da585838601612c7e565b60e084015261010091508184015181811115612dc057600080fd5b612dcc86828701612c7e565b838501525061012091508184015181811115612de757600080fd5b612df386828701612c7e565b838501525061014091508184015181811115612e0e57600080fd5b612e1a86828701612c7e565b838501525061016091508184015181811115612e3557600080fd5b612e4186828701612c7e565b8385015250505092915050565b60008060408385031215612e6157600080fd5b82516001600160401b0380821115612e7857600080fd5b908401906101408287031215612e8d57600080fd5b612e9561274b565b825182811115612ea457600080fd5b612eb088828601612c7e565b825250602083015182811115612ec557600080fd5b612ed188828601612c7e565b602083015250604083015182811115612ee957600080fd5b612ef588828601612c7e565b604083015250606083015182811115612f0d57600080fd5b612f1988828601612c7e565b606083015250608083015182811115612f3157600080fd5b612f3d88828601612c7e565b60808301525060a083015182811115612f5557600080fd5b612f6188828601612c7e565b60a08301525060c083015182811115612f7957600080fd5b612f8588828601612c7e565b60c08301525060e083015182811115612f9d57600080fd5b612fa988828601612c7e565b60e0830152506101008084015183811115612fc357600080fd5b612fcf89828701612c7e565b828401525050610120612fe3818501612cc3565b908201526020860151909450915080821115612ffe57600080fd5b5061298c85828601612ce4565b60006020828403121561301d57600080fd5b815161203b81612823565b60006020828403121561303a57600080fd5b5051919050565b6020808252602e908201527f496e697469616c697a61626c653a20636f6e747261637420697320616c72656160408201526d191e481a5b9a5d1a585b1a5e995960921b606082015260800190565b7f416363657373436f6e74726f6c3a206163636f756e74200000000000000000008152600083516130c7816017850160208801612af6565b7001034b99036b4b9b9b4b733903937b6329607d1b60179184019182015283516130f8816028840160208801612af6565b01602801949350505050565b6020808252602b908201527f496e697469616c697a61626c653a20636f6e7472616374206973206e6f74206960408201526a6e697469616c697a696e6760a81b606082015260800190565b600081600019048311821515161561316957613169612c33565b500290565b6000821982111561318157613181612c33565b500190565b60008161319557613195612c33565b50600019019056fe360894a13ba1a3210667c828492db98dca3e2076cc3735a920a3ca505d382bbc416464726573733a206c6f772d6c6576656c2064656c65676174652063616c6c206661696c6564a26469706673582212208a6dfecd8250a28cd1ea95044d094918c3ea46dbe01ecbf9080b11fd532a12ab64736f6c634300080e0033496e697469616c697a61626c653a20636f6e747261637420697320616c726561",
  "devdoc": {
    "kind": "dev",
    "methods": {
      "addAttributes(bool,string[],string[],string[])": {
        "params": {
          "addToList": "determines whether attribute should be added or removed Other params are arrays of attributes to be added"
        }
      },
      "addToExternalWhiteList(address[])": {
        "params": {
          "erc20Addr": "accepts an array of contract addresses"
        }
      },
      "addToInternalBlackList(address[])": {
        "params": {
          "erc20Addr": "accepts an array of contract addresses"
        }
      },
      "addToInternalWhiteList(address[])": {
        "params": {
          "erc20Addr": "accepts an array of contract addresses"
        }
      },
      "getRoleAdmin(bytes32)": {
        "details": "Returns the admin role that controls `role`. See {grantRole} and {revokeRole}. To change a role's admin, use {_setRoleAdmin}."
      },
      "grantRole(bytes32,address)": {
        "details": "Grants `role` to `account`. If `account` had not been already granted `role`, emits a {RoleGranted} event. Requirements: - the caller must have ``role``'s admin role."
      },
      "hasRole(bytes32,address)": {
        "details": "Returns `true` if `account` has been granted `role`."
      },
      "owner()": {
        "details": "Returns the address of the current owner."
      },
      "paused()": {
        "details": "Returns true if the contract is paused, and false otherwise."
      },
      "proxiableUUID()": {
        "details": "Implementation of the ERC1822 {proxiableUUID} function. This returns the storage slot used by the implementation. It is used to validate that the this implementation remains valid after an upgrade. IMPORTANT: A proxy pointing at a proxiable contract should not be considered proxiable itself, because this risks bricking a proxy that upgrades to it, by delegating to itself until out of gas. Thus it is critical that this function revert if invoked through a proxy. This is guaranteed by the `notDelegated` modifier."
      },
      "removeFromExternalWhiteList(address[])": {
        "params": {
          "erc20Addr": "accepts an array of contract addresses"
        }
      },
      "removeFromInternalBlackList(address[])": {
        "params": {
          "erc20Addr": "accepts an array of contract addresses"
        }
      },
      "removeFromInternalWhiteList(address[])": {
        "params": {
          "erc20Addr": "accepts an array of contract addressesc"
        }
      },
      "renounceOwnership()": {
        "details": "Leaves the contract without owner. It will not be possible to call `onlyOwner` functions anymore. Can only be called by the current owner. NOTE: Renouncing ownership will leave the contract without an owner, thereby removing any functionality that is only available to the owner."
      },
      "renounceRole(bytes32,address)": {
        "details": "Revokes `role` from the calling account. Roles are often managed via {grantRole} and {revokeRole}: this function's purpose is to provide a mechanism for accounts to lose their privileges if they are compromised (such as when a trusted device is misplaced). If the calling account had been revoked `role`, emits a {RoleRevoked} event. Requirements: - the caller must be `account`."
      },
      "revokeRole(bytes32,address)": {
        "details": "Revokes `role` from `account`. If `account` had been granted `role`, emits a {RoleRevoked} event. Requirements: - the caller must have ``role``'s admin role."
      },
      "setMinimumVintageStartTime(uint64)": {
        "params": {
          "_minimumVintageStartTime": "unix time format"
        }
      },
      "supportsInterface(bytes4)": {
        "details": "See {IERC165-supportsInterface}."
      },
      "switchMapping(string,bool)": {
        "params": {
          "_mappingName": "attribute mapping of project-vintage data",
          "accepted": "determines if mapping works as black or whitelist"
        }
      },
      "transferOwnership(address)": {
        "details": "Transfers ownership of the contract to a new account (`newOwner`). Can only be called by the current owner."
      },
      "upgradeTo(address)": {
        "details": "Upgrade the implementation of the proxy to `newImplementation`. Calls {_authorizeUpgrade}. Emits an {Upgraded} event."
      },
      "upgradeToAndCall(address,bytes)": {
        "details": "Upgrade the implementation of the proxy to `newImplementation`, and subsequently execute the function call encoded in `data`. Calls {_authorizeUpgrade}. Emits an {Upgraded} event."
      }
    },
    "version": 1
  },
  "userdoc": {
    "kind": "user",
    "methods": {
      "addAttributes(bool,string[],string[],string[])": {
        "notice": "Function to add attributes for filtering (does not support complex AttributeSets)"
      },
      "addToExternalWhiteList(address[])": {
        "notice": "Function to whitelist selected external non-TCO2 contracts by their address"
      },
      "addToInternalBlackList(address[])": {
        "notice": "Function to blacklist certain TCO2 contracts by their address"
      },
      "addToInternalWhiteList(address[])": {
        "notice": "Function to whitelist certain TCO2 contracts by their address"
      },
      "checkAttributeMatching(address)": {
        "notice": "Checks whether incoming ERC20s match the accepted criteria/attributes"
      },
      "checkEligible(address)": {
        "notice": "Checks if token to be deposited is eligible for this pool"
      },
      "removeFromExternalWhiteList(address[])": {
        "notice": "Function to remove ERC20 addresses from external whitelist"
      },
      "removeFromInternalBlackList(address[])": {
        "notice": "Function to remove TCO2 addresses from internal blacklist"
      },
      "removeFromInternalWhiteList(address[])": {
        "notice": "Function to remove TCO2 addresses from internal whitelist"
      },
      "setMinimumVintageStartTime(uint64)": {
        "notice": "Determines the minimum vintage start time acceptance criteria of ERC20s"
      },
      "switchMapping(string,bool)": {
        "notice": "Generic function to switch attributes mappings into either acceptance or rejection criteria"
      }
    },
    "version": 1
  },
  "storageLayout": {
    "storage": [
      {
        "astId": 2390,
        "contract": "contracts/pools/BiocharFilter.sol:BiocharFilter",
        "label": "_initialized",
        "offset": 0,
        "slot": "0",
        "type": "t_uint8"
      },
      {
        "astId": 2393,
        "contract": "contracts/pools/BiocharFilter.sol:BiocharFilter",
        "label": "_initializing",
        "offset": 1,
        "slot": "0",
        "type": "t_bool"
      },
      {
        "astId": 5494,
        "contract": "contracts/pools/BiocharFilter.sol:BiocharFilter",
        "label": "__gap",
        "offset": 0,
        "slot": "1",
        "type": "t_array(t_uint256)50_storage"
      },
      {
        "astId": 1881,
        "contract": "contracts/pools/BiocharFilter.sol:BiocharFilter",
        "label": "_owner",
        "offset": 0,
        "slot": "51",
        "type": "t_address"
      },
      {
        "astId": 1993,
        "contract": "contracts/pools/BiocharFilter.sol:BiocharFilter",
        "label": "__gap",
        "offset": 0,
        "slot": "52",
        "type": "t_array(t_uint256)49_storage"
      },
      {
        "astId": 2682,
        "contract": "contracts/pools/BiocharFilter.sol:BiocharFilter",
        "label": "_paused",
        "offset": 0,
        "slot": "101",
        "type": "t_bool"
      },
      {
        "astId": 2771,
        "contract": "contracts/pools/BiocharFilter.sol:BiocharFilter",
        "label": "__gap",
        "offset": 0,
        "slot": "102",
        "type": "t_array(t_uint256)49_storage"
      },
      {
        "astId": 5801,
        "contract": "contracts/pools/BiocharFilter.sol:BiocharFilter",
        "label": "__gap",
        "offset": 0,
        "slot": "151",
        "type": "t_array(t_uint256)50_storage"
      },
      {
        "astId": 1497,
        "contract": "contracts/pools/BiocharFilter.sol:BiocharFilter",
        "label": "_roles",
        "offset": 0,
        "slot": "201",
        "type": "t_mapping(t_bytes32,t_struct(RoleData)1492_storage)"
      },
      {
        "astId": 1796,
        "contract": "contracts/pools/BiocharFilter.sol:BiocharFilter",
        "label": "__gap",
        "offset": 0,
        "slot": "202",
        "type": "t_array(t_uint256)49_storage"
      },
      {
        "astId": 2372,
        "contract": "contracts/pools/BiocharFilter.sol:BiocharFilter",
        "label": "__gap",
        "offset": 0,
        "slot": "251",
        "type": "t_array(t_uint256)50_storage"
      },
      {
        "astId": 2660,
        "contract": "contracts/pools/BiocharFilter.sol:BiocharFilter",
        "label": "__gap",
        "offset": 0,
        "slot": "301",
        "type": "t_array(t_uint256)50_storage"
      },
      {
        "astId": 22851,
        "contract": "contracts/pools/BiocharFilter.sol:BiocharFilter",
        "label": "regions",
        "offset": 0,
        "slot": "351",
        "type": "t_mapping(t_string_memory_ptr,t_bool)"
      },
      {
        "astId": 22855,
        "contract": "contracts/pools/BiocharFilter.sol:BiocharFilter",
        "label": "standards",
        "offset": 0,
        "slot": "352",
        "type": "t_mapping(t_string_memory_ptr,t_bool)"
      },
      {
        "astId": 22859,
        "contract": "contracts/pools/BiocharFilter.sol:BiocharFilter",
        "label": "methodologies",
        "offset": 0,
        "slot": "353",
        "type": "t_mapping(t_string_memory_ptr,t_bool)"
      },
      {
        "astId": 22864,
        "contract": "contracts/pools/BiocharFilter.sol:BiocharFilter",
        "label": "externalWhiteList",
        "offset": 0,
        "slot": "354",
        "type": "t_mapping(t_address,t_bool)"
      },
      {
        "astId": 22869,
        "contract": "contracts/pools/BiocharFilter.sol:BiocharFilter",
        "label": "internalWhiteList",
        "offset": 0,
        "slot": "355",
        "type": "t_mapping(t_address,t_bool)"
      },
      {
        "astId": 22874,
        "contract": "contracts/pools/BiocharFilter.sol:BiocharFilter",
        "label": "internalBlackList",
        "offset": 0,
        "slot": "356",
        "type": "t_mapping(t_address,t_bool)"
      },
      {
        "astId": 22877,
        "contract": "contracts/pools/BiocharFilter.sol:BiocharFilter",
        "label": "contractRegistry",
        "offset": 0,
        "slot": "357",
        "type": "t_address"
      },
      {
        "astId": 22879,
        "contract": "contracts/pools/BiocharFilter.sol:BiocharFilter",
        "label": "minimumVintageStartTime",
        "offset": 20,
        "slot": "357",
        "type": "t_uint64"
      },
      {
        "astId": 22882,
        "contract": "contracts/pools/BiocharFilter.sol:BiocharFilter",
        "label": "regionsIsAcceptedMapping",
        "offset": 28,
        "slot": "357",
        "type": "t_bool"
      },
      {
        "astId": 22884,
        "contract": "contracts/pools/BiocharFilter.sol:BiocharFilter",
        "label": "standardsIsAcceptedMapping",
        "offset": 29,
        "slot": "357",
        "type": "t_bool"
      },
      {
        "astId": 22886,
        "contract": "contracts/pools/BiocharFilter.sol:BiocharFilter",
        "label": "methodologiesIsAcceptedMapping",
        "offset": 30,
        "slot": "357",
        "type": "t_bool"
      }
    ],
    "types": {
      "t_address": {
        "encoding": "inplace",
        "label": "address",
        "numberOfBytes": "20"
      },
      "t_array(t_uint256)49_storage": {
        "base": "t_uint256",
        "encoding": "inplace",
        "label": "uint256[49]",
        "numberOfBytes": "1568"
      },
      "t_array(t_uint256)50_storage": {
        "base": "t_uint256",
        "encoding": "inplace",
        "label": "uint256[50]",
        "numberOfBytes": "1600"
      },
      "t_bool": {
        "encoding": "inplace",
        "label": "bool",
        "numberOfBytes": "1"
      },
      "t_bytes32": {
        "encoding": "inplace",
        "label": "bytes32",
        "numberOfBytes": "32"
      },
      "t_mapping(t_address,t_bool)": {
        "encoding": "mapping",
        "key": "t_address",
        "label": "mapping(address => bool)",
        "numberOfBytes": "32",
        "value": "t_bool"
      },
      "t_mapping(t_bytes32,t_struct(RoleData)1492_storage)": {
        "encoding": "mapping",
        "key": "t_bytes32",
        "label": "mapping(bytes32 => struct AccessControlUpgradeable.RoleData)",
        "numberOfBytes": "32",
        "value": "t_struct(RoleData)1492_storage"
      },
      "t_mapping(t_string_memory_ptr,t_bool)": {
        "encoding": "mapping",
        "key": "t_string_memory_ptr",
        "label": "mapping(string => bool)",
        "numberOfBytes": "32",
        "value": "t_bool"
      },
      "t_string_memory_ptr": {
        "encoding": "bytes",
        "label": "string",
        "numberOfBytes": "32"
      },
      "t_struct(RoleData)1492_storage": {
        "encoding": "inplace",
        "label": "struct AccessControlUpgradeable.RoleData",
        "members": [
          {
            "astId": 1489,
            "contract": "contracts/pools/BiocharFilter.sol:BiocharFilter",
            "label": "members",
            "offset": 0,
            "slot": "0",
            "type": "t_mapping(t_address,t_bool)"
          },
          {
            "astId": 1491,
            "contract": "contracts/pools/BiocharFilter.sol:BiocharFilter",
            "label": "adminRole",
            "offset": 0,
            "slot": "1",
            "type": "t_bytes32"
          }
        ],
        "numberOfBytes": "64"
      },
      "t_uint256": {
        "encoding": "inplace",
        "label": "uint256",
        "numberOfBytes": "32"
      },
      "t_uint64": {
        "encoding": "inplace",
        "label": "uint64",
        "numberOfBytes": "8"
      },
      "t_uint8": {
        "encoding": "inplace",
        "label": "uint8",
        "numberOfBytes": "1"
      }
    }
  }
}