{
  "address": "0x82400Cb8A608E746D179c8Df12266544B0C8A48A",
  "abi": [
    {
      "inputs": [],
      "stateMutability": "nonpayable",
      "type": "constructor"
    },
    {
      "anonymous": false,
      "inputs": [
        {
          "indexed": false,
          "internalType": "address",
          "name": "previousAdmin",
          "type": "address"
        },
        {
          "indexed": false,
          "internalType": "address",
          "name": "newAdmin",
          "type": "address"
        }
      ],
      "name": "AdminChanged",
      "type": "event"
    },
    {
      "anonymous": false,
      "inputs": [
        {
          "indexed": true,
          "internalType": "address",
          "name": "owner",
          "type": "address"
        },
        {
          "indexed": true,
          "internalType": "address",
          "name": "approved",
          "type": "address"
        },
        {
          "indexed": true,
          "internalType": "uint256",
          "name": "tokenId",
          "type": "uint256"
        }
      ],
      "name": "Approval",
      "type": "event"
    },
    {
      "anonymous": false,
      "inputs": [
        {
          "indexed": true,
          "internalType": "address",
          "name": "owner",
          "type": "address"
        },
        {
          "indexed": true,
          "internalType": "address",
          "name": "operator",
          "type": "address"
        },
        {
          "indexed": false,
          "internalType": "bool",
          "name": "approved",
          "type": "bool"
        }
      ],
      "name": "ApprovalForAll",
      "type": "event"
    },
    {
      "anonymous": false,
      "inputs": [
        {
          "indexed": false,
          "internalType": "uint256",
          "name": "tokenId",
          "type": "uint256"
        },
        {
          "indexed": false,
          "internalType": "uint256",
          "name": "commentId",
          "type": "uint256"
        },
        {
          "indexed": false,
          "internalType": "address",
          "name": "sender",
          "type": "address"
        },
        {
          "indexed": false,
          "internalType": "string",
          "name": "comment",
          "type": "string"
        }
      ],
      "name": "BatchComment",
      "type": "event"
    },
    {
      "anonymous": false,
      "inputs": [
        {
          "indexed": false,
          "internalType": "uint256",
          "name": "tokenId",
          "type": "uint256"
        },
        {
          "indexed": false,
          "internalType": "uint256",
          "name": "projectVintageTokenId",
          "type": "uint256"
        }
      ],
      "name": "BatchLinkedWithVintage",
      "type": "event"
    },
    {
      "anonymous": false,
      "inputs": [
        {
          "indexed": false,
          "internalType": "address",
          "name": "sender",
          "type": "address"
        },
        {
          "indexed": false,
          "internalType": "uint256",
          "name": "tokenId",
          "type": "uint256"
        }
      ],
      "name": "BatchMinted",
      "type": "event"
    },
    {
      "anonymous": false,
      "inputs": [
        {
          "indexed": false,
          "internalType": "uint256",
          "name": "tokenId",
          "type": "uint256"
        },
        {
          "indexed": false,
          "internalType": "enum BatchStatus",
          "name": "status",
          "type": "uint8"
        }
      ],
      "name": "BatchStatusUpdate",
      "type": "event"
    },
    {
      "anonymous": false,
      "inputs": [
        {
          "indexed": false,
          "internalType": "uint256",
          "name": "tokenId",
          "type": "uint256"
        },
        {
          "indexed": false,
          "internalType": "string",
          "name": "serialNumber",
          "type": "string"
        },
        {
          "indexed": false,
          "internalType": "uint256",
          "name": "quantity",
          "type": "uint256"
        }
      ],
      "name": "BatchUpdated",
      "type": "event"
    },
    {
      "anonymous": false,
      "inputs": [
        {
          "indexed": true,
          "internalType": "address",
          "name": "beacon",
          "type": "address"
        }
      ],
      "name": "BeaconUpgraded",
      "type": "event"
    },
    {
      "anonymous": false,
      "inputs": [
        {
          "indexed": false,
          "internalType": "uint8",
          "name": "version",
          "type": "uint8"
        }
      ],
      "name": "Initialized",
      "type": "event"
    },
    {
      "anonymous": false,
      "inputs": [
        {
          "indexed": true,
          "internalType": "address",
          "name": "previousOwner",
          "type": "address"
        },
        {
          "indexed": true,
          "internalType": "address",
          "name": "newOwner",
          "type": "address"
        }
      ],
      "name": "OwnershipTransferred",
      "type": "event"
    },
    {
      "anonymous": false,
      "inputs": [
        {
          "indexed": false,
          "internalType": "address",
          "name": "account",
          "type": "address"
        }
      ],
      "name": "Paused",
      "type": "event"
    },
    {
      "anonymous": false,
      "inputs": [
        {
          "indexed": false,
          "internalType": "string",
          "name": "registry",
          "type": "string"
        },
        {
          "indexed": false,
          "internalType": "bool",
          "name": "isSupported",
          "type": "bool"
        }
      ],
      "name": "RegistrySupported",
      "type": "event"
    },
    {
      "anonymous": false,
      "inputs": [
        {
          "indexed": true,
          "internalType": "bytes32",
          "name": "role",
          "type": "bytes32"
        },
        {
          "indexed": true,
          "internalType": "bytes32",
          "name": "previousAdminRole",
          "type": "bytes32"
        },
        {
          "indexed": true,
          "internalType": "bytes32",
          "name": "newAdminRole",
          "type": "bytes32"
        }
      ],
      "name": "RoleAdminChanged",
      "type": "event"
    },
    {
      "anonymous": false,
      "inputs": [
        {
          "indexed": true,
          "internalType": "bytes32",
          "name": "role",
          "type": "bytes32"
        },
        {
          "indexed": true,
          "internalType": "address",
          "name": "account",
          "type": "address"
        },
        {
          "indexed": true,
          "internalType": "address",
          "name": "sender",
          "type": "address"
        }
      ],
      "name": "RoleGranted",
      "type": "event"
    },
    {
      "anonymous": false,
      "inputs": [
        {
          "indexed": true,
          "internalType": "bytes32",
          "name": "role",
          "type": "bytes32"
        },
        {
          "indexed": true,
          "internalType": "address",
          "name": "account",
          "type": "address"
        },
        {
          "indexed": true,
          "internalType": "address",
          "name": "sender",
          "type": "address"
        }
      ],
      "name": "RoleRevoked",
      "type": "event"
    },
    {
      "anonymous": false,
      "inputs": [
        {
          "indexed": false,
          "internalType": "uint256",
          "name": "tokenId",
          "type": "uint256"
        },
        {
          "indexed": false,
          "internalType": "uint256",
          "name": "newTokenId",
          "type": "uint256"
        }
      ],
      "name": "Split",
      "type": "event"
    },
    {
      "anonymous": false,
      "inputs": [
        {
          "indexed": false,
          "internalType": "uint256",
          "name": "tokenId",
          "type": "uint256"
        },
        {
          "indexed": false,
          "internalType": "address",
          "name": "tco2",
          "type": "address"
        },
        {
          "indexed": true,
          "internalType": "address",
          "name": "recipient",
          "type": "address"
        },
        {
          "indexed": false,
          "internalType": "uint256",
          "name": "amount",
          "type": "uint256"
        }
      ],
      "name": "Tokenized",
      "type": "event"
    },
    {
      "anonymous": false,
      "inputs": [
        {
          "indexed": true,
          "internalType": "address",
          "name": "from",
          "type": "address"
        },
        {
          "indexed": true,
          "internalType": "address",
          "name": "to",
          "type": "address"
        },
        {
          "indexed": true,
          "internalType": "uint256",
          "name": "tokenId",
          "type": "uint256"
        }
      ],
      "name": "Transfer",
      "type": "event"
    },
    {
      "anonymous": false,
      "inputs": [
        {
          "indexed": false,
          "internalType": "address",
          "name": "account",
          "type": "address"
        }
      ],
      "name": "Unpaused",
      "type": "event"
    },
    {
      "anonymous": false,
      "inputs": [
        {
          "indexed": true,
          "internalType": "address",
          "name": "implementation",
          "type": "address"
        }
      ],
      "name": "Upgraded",
      "type": "event"
    },
    {
      "inputs": [],
      "name": "DEFAULT_ADMIN_ROLE",
      "outputs": [
        {
          "internalType": "bytes32",
          "name": "",
          "type": "bytes32"
        }
      ],
      "stateMutability": "view",
      "type": "function"
    },
    {
      "inputs": [],
      "name": "TOKENIZER_ROLE",
      "outputs": [
        {
          "internalType": "bytes32",
          "name": "",
          "type": "bytes32"
        }
      ],
      "stateMutability": "view",
      "type": "function"
    },
    {
      "inputs": [],
      "name": "VERIFIER_ROLE",
      "outputs": [
        {
          "internalType": "bytes32",
          "name": "",
          "type": "bytes32"
        }
      ],
      "stateMutability": "view",
      "type": "function"
    },
    {
      "inputs": [],
      "name": "VERSION",
      "outputs": [
        {
          "internalType": "string",
          "name": "",
          "type": "string"
        }
      ],
      "stateMutability": "view",
      "type": "function"
    },
    {
      "inputs": [],
      "name": "VERSION_RELEASE_CANDIDATE",
      "outputs": [
        {
          "internalType": "uint256",
          "name": "",
          "type": "uint256"
        }
      ],
      "stateMutability": "view",
      "type": "function"
    },
    {
      "inputs": [
        {
          "internalType": "uint256",
          "name": "tokenId",
          "type": "uint256"
        },
        {
          "internalType": "string",
          "name": "comment",
          "type": "string"
        }
      ],
      "name": "addComment",
      "outputs": [],
      "stateMutability": "nonpayable",
      "type": "function"
    },
    {
      "inputs": [
        {
          "internalType": "address",
          "name": "to",
          "type": "address"
        },
        {
          "internalType": "uint256",
          "name": "tokenId",
          "type": "uint256"
        }
      ],
      "name": "approve",
      "outputs": [],
      "stateMutability": "nonpayable",
      "type": "function"
    },
    {
      "inputs": [
        {
          "internalType": "address",
          "name": "owner",
          "type": "address"
        }
      ],
      "name": "balanceOf",
      "outputs": [
        {
          "internalType": "uint256",
          "name": "",
          "type": "uint256"
        }
      ],
      "stateMutability": "view",
      "type": "function"
    },
    {
      "inputs": [],
      "name": "batchTokenCounter",
      "outputs": [
        {
          "internalType": "uint256",
          "name": "",
          "type": "uint256"
        }
      ],
      "stateMutability": "view",
      "type": "function"
    },
    {
      "inputs": [
        {
          "internalType": "uint256",
          "name": "tokenId",
          "type": "uint256"
        }
      ],
      "name": "confirmBatch",
      "outputs": [],
      "stateMutability": "nonpayable",
      "type": "function"
    },
    {
      "inputs": [
        {
          "internalType": "uint256",
          "name": "tokenId",
          "type": "uint256"
        },
        {
          "internalType": "uint256",
          "name": "projectVintageTokenId",
          "type": "uint256"
        }
      ],
      "name": "confirmBatchWithVintage",
      "outputs": [],
      "stateMutability": "nonpayable",
      "type": "function"
    },
    {
      "inputs": [],
      "name": "contractRegistry",
      "outputs": [
        {
          "internalType": "address",
          "name": "",
          "type": "address"
        }
      ],
      "stateMutability": "view",
      "type": "function"
    },
    {
      "inputs": [
        {
          "internalType": "uint256",
          "name": "tokenId",
          "type": "uint256"
        }
      ],
      "name": "fractionalize",
      "outputs": [],
      "stateMutability": "nonpayable",
      "type": "function"
    },
    {
      "inputs": [
        {
          "internalType": "uint256",
          "name": "tokenId",
          "type": "uint256"
        }
      ],
      "name": "getApproved",
      "outputs": [
        {
          "internalType": "address",
          "name": "",
          "type": "address"
        }
      ],
      "stateMutability": "view",
      "type": "function"
    },
    {
      "inputs": [
        {
          "internalType": "uint256",
          "name": "tokenId",
          "type": "uint256"
        }
      ],
      "name": "getBatchNFTData",
      "outputs": [
        {
          "internalType": "uint256",
          "name": "",
          "type": "uint256"
        },
        {
          "internalType": "uint256",
          "name": "",
          "type": "uint256"
        },
        {
          "internalType": "enum BatchStatus",
          "name": "",
          "type": "uint8"
        }
      ],
      "stateMutability": "view",
      "type": "function"
    },
    {
      "inputs": [
        {
          "internalType": "uint256",
          "name": "tokenId",
          "type": "uint256"
        }
      ],
      "name": "getComments",
      "outputs": [
        {
          "internalType": "string[]",
          "name": "",
          "type": "string[]"
        },
        {
          "internalType": "address[]",
          "name": "",
          "type": "address[]"
        }
      ],
      "stateMutability": "view",
      "type": "function"
    },
    {
      "inputs": [
        {
          "internalType": "uint256",
          "name": "tokenId",
          "type": "uint256"
        }
      ],
      "name": "getConfirmationStatus",
      "outputs": [
        {
          "internalType": "enum BatchStatus",
          "name": "",
          "type": "uint8"
        }
      ],
      "stateMutability": "view",
      "type": "function"
    },
    {
      "inputs": [
        {
          "internalType": "bytes32",
          "name": "role",
          "type": "bytes32"
        }
      ],
      "name": "getRoleAdmin",
      "outputs": [
        {
          "internalType": "bytes32",
          "name": "",
          "type": "bytes32"
        }
      ],
      "stateMutability": "view",
      "type": "function"
    },
    {
      "inputs": [
        {
          "internalType": "uint256",
          "name": "tokenId",
          "type": "uint256"
        }
      ],
      "name": "getSerialNumber",
      "outputs": [
        {
          "internalType": "string",
          "name": "",
          "type": "string"
        }
      ],
      "stateMutability": "view",
      "type": "function"
    },
    {
      "inputs": [
        {
          "internalType": "bytes32",
          "name": "role",
          "type": "bytes32"
        },
        {
          "internalType": "address",
          "name": "account",
          "type": "address"
        }
      ],
      "name": "grantRole",
      "outputs": [],
      "stateMutability": "nonpayable",
      "type": "function"
    },
    {
      "inputs": [
        {
          "internalType": "bytes32",
          "name": "role",
          "type": "bytes32"
        },
        {
          "internalType": "address",
          "name": "account",
          "type": "address"
        }
      ],
      "name": "hasRole",
      "outputs": [
        {
          "internalType": "bool",
          "name": "",
          "type": "bool"
        }
      ],
      "stateMutability": "view",
      "type": "function"
    },
    {
      "inputs": [
        {
          "internalType": "address",
          "name": "_contractRegistry",
          "type": "address"
        }
      ],
      "name": "initialize",
      "outputs": [],
      "stateMutability": "nonpayable",
      "type": "function"
    },
    {
      "inputs": [
        {
          "internalType": "address",
          "name": "owner",
          "type": "address"
        },
        {
          "internalType": "address",
          "name": "operator",
          "type": "address"
        }
      ],
      "name": "isApprovedForAll",
      "outputs": [
        {
          "internalType": "bool",
          "name": "",
          "type": "bool"
        }
      ],
      "stateMutability": "view",
      "type": "function"
    },
    {
      "inputs": [
        {
          "internalType": "uint256",
          "name": "tokenId",
          "type": "uint256"
        },
        {
          "internalType": "uint256",
          "name": "projectVintageTokenId",
          "type": "uint256"
        }
      ],
      "name": "linkWithVintage",
      "outputs": [],
      "stateMutability": "nonpayable",
      "type": "function"
    },
    {
      "inputs": [
        {
          "internalType": "address",
          "name": "to",
          "type": "address"
        }
      ],
      "name": "mintEmptyBatch",
      "outputs": [
        {
          "internalType": "uint256",
          "name": "",
          "type": "uint256"
        }
      ],
      "stateMutability": "nonpayable",
      "type": "function"
    },
    {
      "inputs": [],
      "name": "name",
      "outputs": [
        {
          "internalType": "string",
          "name": "",
          "type": "string"
        }
      ],
      "stateMutability": "view",
      "type": "function"
    },
    {
      "inputs": [
        {
          "internalType": "uint256",
          "name": "",
          "type": "uint256"
        }
      ],
      "name": "nftList",
      "outputs": [
        {
          "internalType": "uint256",
          "name": "projectVintageTokenId",
          "type": "uint256"
        },
        {
          "internalType": "string",
          "name": "serialNumber",
          "type": "string"
        },
        {
          "internalType": "uint256",
          "name": "quantity",
          "type": "uint256"
        },
        {
          "internalType": "enum BatchStatus",
          "name": "status",
          "type": "uint8"
        },
        {
          "internalType": "string",
          "name": "uri",
          "type": "string"
        }
      ],
      "stateMutability": "view",
      "type": "function"
    },
    {
      "inputs": [
        {
          "internalType": "address",
          "name": "",
          "type": "address"
        },
        {
          "internalType": "address",
          "name": "from",
          "type": "address"
        },
        {
          "internalType": "uint256",
          "name": "",
          "type": "uint256"
        },
        {
          "internalType": "bytes",
          "name": "",
          "type": "bytes"
        }
      ],
      "name": "onERC721Received",
      "outputs": [
        {
          "internalType": "bytes4",
          "name": "",
          "type": "bytes4"
        }
      ],
      "stateMutability": "pure",
      "type": "function"
    },
    {
      "inputs": [],
      "name": "owner",
      "outputs": [
        {
          "internalType": "address",
          "name": "",
          "type": "address"
        }
      ],
      "stateMutability": "view",
      "type": "function"
    },
    {
      "inputs": [
        {
          "internalType": "uint256",
          "name": "tokenId",
          "type": "uint256"
        }
      ],
      "name": "ownerOf",
      "outputs": [
        {
          "internalType": "address",
          "name": "",
          "type": "address"
        }
      ],
      "stateMutability": "view",
      "type": "function"
    },
    {
      "inputs": [],
      "name": "pause",
      "outputs": [],
      "stateMutability": "nonpayable",
      "type": "function"
    },
    {
      "inputs": [],
      "name": "paused",
      "outputs": [
        {
          "internalType": "bool",
          "name": "",
          "type": "bool"
        }
      ],
      "stateMutability": "view",
      "type": "function"
    },
    {
      "inputs": [],
      "name": "proxiableUUID",
      "outputs": [
        {
          "internalType": "bytes32",
          "name": "",
          "type": "bytes32"
        }
      ],
      "stateMutability": "view",
      "type": "function"
    },
    {
      "inputs": [
        {
          "internalType": "uint256",
          "name": "tokenId",
          "type": "uint256"
        },
        {
          "internalType": "string",
          "name": "comment",
          "type": "string"
        }
      ],
      "name": "rejectApprovedWithComment",
      "outputs": [],
      "stateMutability": "nonpayable",
      "type": "function"
    },
    {
      "inputs": [
        {
          "internalType": "uint256",
          "name": "tokenId",
          "type": "uint256"
        }
      ],
      "name": "rejectBatch",
      "outputs": [],
      "stateMutability": "nonpayable",
      "type": "function"
    },
    {
      "inputs": [
        {
          "internalType": "uint256",
          "name": "tokenId",
          "type": "uint256"
        },
        {
          "internalType": "string",
          "name": "comment",
          "type": "string"
        }
      ],
      "name": "rejectWithComment",
      "outputs": [],
      "stateMutability": "nonpayable",
      "type": "function"
    },
    {
      "inputs": [],
      "name": "renounceOwnership",
      "outputs": [],
      "stateMutability": "nonpayable",
      "type": "function"
    },
    {
      "inputs": [
        {
          "internalType": "bytes32",
          "name": "role",
          "type": "bytes32"
        },
        {
          "internalType": "address",
          "name": "account",
          "type": "address"
        }
      ],
      "name": "renounceRole",
      "outputs": [],
      "stateMutability": "nonpayable",
      "type": "function"
    },
    {
      "inputs": [
        {
          "internalType": "bytes32",
          "name": "role",
          "type": "bytes32"
        },
        {
          "internalType": "address",
          "name": "account",
          "type": "address"
        }
      ],
      "name": "revokeRole",
      "outputs": [],
      "stateMutability": "nonpayable",
      "type": "function"
    },
    {
      "inputs": [
        {
          "internalType": "address",
          "name": "from",
          "type": "address"
        },
        {
          "internalType": "address",
          "name": "to",
          "type": "address"
        },
        {
          "internalType": "uint256",
          "name": "tokenId",
          "type": "uint256"
        }
      ],
      "name": "safeTransferFrom",
      "outputs": [],
      "stateMutability": "nonpayable",
      "type": "function"
    },
    {
      "inputs": [
        {
          "internalType": "address",
          "name": "from",
          "type": "address"
        },
        {
          "internalType": "address",
          "name": "to",
          "type": "address"
        },
        {
          "internalType": "uint256",
          "name": "tokenId",
          "type": "uint256"
        },
        {
          "internalType": "bytes",
          "name": "_data",
          "type": "bytes"
        }
      ],
      "name": "safeTransferFrom",
      "outputs": [],
      "stateMutability": "nonpayable",
      "type": "function"
    },
    {
      "inputs": [
        {
          "internalType": "string",
          "name": "",
          "type": "string"
        }
      ],
      "name": "serialNumberApproved",
      "outputs": [
        {
          "internalType": "bool",
          "name": "",
          "type": "bool"
        }
      ],
      "stateMutability": "view",
      "type": "function"
    },
    {
      "inputs": [
        {
          "internalType": "address",
          "name": "operator",
          "type": "address"
        },
        {
          "internalType": "bool",
          "name": "approved",
          "type": "bool"
        }
      ],
      "name": "setApprovalForAll",
      "outputs": [],
      "stateMutability": "nonpayable",
      "type": "function"
    },
    {
      "inputs": [
        {
          "internalType": "string",
          "name": "gateway",
          "type": "string"
        }
      ],
      "name": "setBaseURI",
      "outputs": [],
      "stateMutability": "nonpayable",
      "type": "function"
    },
    {
      "inputs": [
        {
          "internalType": "uint256",
          "name": "tokenId",
          "type": "uint256"
        },
        {
          "internalType": "string",
          "name": "newSerialNumber",
          "type": "string"
        },
        {
          "internalType": "uint256",
          "name": "newQuantity",
          "type": "uint256"
        }
      ],
      "name": "setSerialandQuantity",
      "outputs": [],
      "stateMutability": "nonpayable",
      "type": "function"
    },
    {
      "inputs": [
        {
          "internalType": "uint256",
          "name": "tokenId",
          "type": "uint256"
        },
        {
          "internalType": "enum BatchStatus",
          "name": "newStatus",
          "type": "uint8"
        }
      ],
      "name": "setStatusForDetokenizationOrRetirement",
      "outputs": [],
      "stateMutability": "nonpayable",
      "type": "function"
    },
    {
      "inputs": [
        {
          "internalType": "string",
          "name": "registry",
          "type": "string"
        },
        {
          "internalType": "bool",
          "name": "isSupported",
          "type": "bool"
        }
      ],
      "name": "setSupportedRegistry",
      "outputs": [],
      "stateMutability": "nonpayable",
      "type": "function"
    },
    {
      "inputs": [
        {
          "internalType": "uint256",
          "name": "tokenId",
          "type": "uint256"
        }
      ],
      "name": "setToPending",
      "outputs": [],
      "stateMutability": "nonpayable",
      "type": "function"
    },
    {
      "inputs": [
        {
          "internalType": "address",
          "name": "_address",
          "type": "address"
        }
      ],
      "name": "setToucanContractRegistry",
      "outputs": [],
      "stateMutability": "nonpayable",
      "type": "function"
    },
    {
      "inputs": [
        {
          "internalType": "uint256",
          "name": "tokenId",
          "type": "uint256"
        },
        {
          "internalType": "string",
          "name": "tokenIdNewSerialNumber",
          "type": "string"
        },
        {
          "internalType": "string",
          "name": "newTokenIdSerialNumber",
          "type": "string"
        },
        {
          "internalType": "uint256",
          "name": "newTokenIdQuantity",
          "type": "uint256"
        }
      ],
      "name": "split",
      "outputs": [
        {
          "internalType": "uint256",
          "name": "newTokenId",
          "type": "uint256"
        }
      ],
      "stateMutability": "nonpayable",
      "type": "function"
    },
    {
      "inputs": [
        {
          "internalType": "bytes4",
          "name": "interfaceId",
          "type": "bytes4"
        }
      ],
      "name": "supportsInterface",
      "outputs": [
        {
          "internalType": "bool",
          "name": "",
          "type": "bool"
        }
      ],
      "stateMutability": "view",
      "type": "function"
    },
    {
      "inputs": [],
      "name": "symbol",
      "outputs": [
        {
          "internalType": "string",
          "name": "",
          "type": "string"
        }
      ],
      "stateMutability": "view",
      "type": "function"
    },
    {
      "inputs": [
        {
          "internalType": "uint256",
          "name": "index",
          "type": "uint256"
        }
      ],
      "name": "tokenByIndex",
      "outputs": [
        {
          "internalType": "uint256",
          "name": "",
          "type": "uint256"
        }
      ],
      "stateMutability": "view",
      "type": "function"
    },
    {
      "inputs": [
        {
          "internalType": "address",
          "name": "owner",
          "type": "address"
        },
        {
          "internalType": "uint256",
          "name": "index",
          "type": "uint256"
        }
      ],
      "name": "tokenOfOwnerByIndex",
      "outputs": [
        {
          "internalType": "uint256",
          "name": "",
          "type": "uint256"
        }
      ],
      "stateMutability": "view",
      "type": "function"
    },
    {
      "inputs": [
        {
          "internalType": "uint256",
          "name": "tokenId",
          "type": "uint256"
        }
      ],
      "name": "tokenURI",
      "outputs": [
        {
          "internalType": "string",
          "name": "",
          "type": "string"
        }
      ],
      "stateMutability": "view",
      "type": "function"
    },
    {
      "inputs": [
        {
          "internalType": "address",
          "name": "recipient",
          "type": "address"
        },
        {
          "internalType": "string",
          "name": "serialNumber",
          "type": "string"
        },
        {
          "internalType": "uint256",
          "name": "quantity",
          "type": "uint256"
        },
        {
          "internalType": "uint256",
          "name": "projectVintageTokenId",
          "type": "uint256"
        }
      ],
      "name": "tokenize",
      "outputs": [],
      "stateMutability": "nonpayable",
      "type": "function"
    },
    {
      "inputs": [],
      "name": "totalSupply",
      "outputs": [
        {
          "internalType": "uint256",
          "name": "",
          "type": "uint256"
        }
      ],
      "stateMutability": "view",
      "type": "function"
    },
    {
      "inputs": [
        {
          "internalType": "address",
          "name": "from",
          "type": "address"
        },
        {
          "internalType": "address",
          "name": "to",
          "type": "address"
        },
        {
          "internalType": "uint256",
          "name": "tokenId",
          "type": "uint256"
        }
      ],
      "name": "transferFrom",
      "outputs": [],
      "stateMutability": "nonpayable",
      "type": "function"
    },
    {
      "inputs": [
        {
          "internalType": "address",
          "name": "newOwner",
          "type": "address"
        }
      ],
      "name": "transferOwnership",
      "outputs": [],
      "stateMutability": "nonpayable",
      "type": "function"
    },
    {
      "inputs": [],
      "name": "unpause",
      "outputs": [],
      "stateMutability": "nonpayable",
      "type": "function"
    },
    {
      "inputs": [
        {
          "internalType": "string",
          "name": "serialNumber",
          "type": "string"
        }
      ],
      "name": "unsetSerialNumber",
      "outputs": [],
      "stateMutability": "nonpayable",
      "type": "function"
    },
    {
      "inputs": [
        {
          "internalType": "uint256",
          "name": "tokenId",
          "type": "uint256"
        },
        {
          "internalType": "string",
          "name": "serialNumber",
          "type": "string"
        },
        {
          "internalType": "uint256",
          "name": "quantity",
          "type": "uint256"
        },
        {
          "internalType": "string",
          "name": "uri",
          "type": "string"
        }
      ],
      "name": "updateBatchWithData",
      "outputs": [],
      "stateMutability": "nonpayable",
      "type": "function"
    },
    {
      "inputs": [
        {
          "internalType": "address",
          "name": "newImplementation",
          "type": "address"
        }
      ],
      "name": "upgradeTo",
      "outputs": [],
      "stateMutability": "nonpayable",
      "type": "function"
    },
    {
      "inputs": [
        {
          "internalType": "address",
          "name": "newImplementation",
          "type": "address"
        },
        {
          "internalType": "bytes",
          "name": "data",
          "type": "bytes"
        }
      ],
      "name": "upgradeToAndCall",
      "outputs": [],
      "stateMutability": "payable",
      "type": "function"
    }
  ],
  "numDeployments": 10,
  "solcInputHash": "8065e16879bc470f3bfbde0d08168f86",
  "bytecode": "0x60a0604052306080523480156200001557600080fd5b506200002062000026565b62000156565b6200003260ff62000035565b50565b60008054610100900460ff1615620000ce578160ff1660011480156200006e57506200006c306200014760201b62002ce51760201c565b155b620000c65760405162461bcd60e51b815260206004820152602e60248201526000805160206200613683398151915260448201526d191e481a5b9a5d1a585b1a5e995960921b60648201526084015b60405180910390fd5b506000919050565b60005460ff8084169116106200012d5760405162461bcd60e51b815260206004820152602e60248201526000805160206200613683398151915260448201526d191e481a5b9a5d1a585b1a5e995960921b6064820152608401620000bd565b506000805460ff191660ff92909216919091179055600190565b6001600160a01b03163b151590565b608051615fa86200018e600039600081816119d901528181611a1901528181611d6301528181611da30152611f4d0152615fa86000f3fe6080604052600436106103c35760003560e01c80636352211e116101f2578063aa7e56831161010d578063c87b56dd116100a0578063e882e37b1161006f578063e882e37b14610bbb578063e985e9c514610bdb578063f2fde38b14610c24578063ffa1ad7414610c4457600080fd5b8063c87b56dd14610b2a578063d547741f14610b4a578063dff35e8314610b6a578063e7705db614610b9957600080fd5b8063b88d4fde116100dc578063b88d4fde14610aaa578063c2170e5c14610aca578063c4d66de814610aea578063c8694d1214610b0a57600080fd5b8063aa7e568314610a32578063abf410e514610a52578063b305702514610a73578063b722e53314610a8a57600080fd5b80638a6166f0116101855780639bd905f8116101545780639bd905f8146109bd578063a217fddf146109dd578063a22cb465146109f2578063a5c6596314610a1257600080fd5b80638a6166f01461094a5780638da5cb5b1461096a57806391d148541461098857806395d89b41146109a857600080fd5b8063715018a6116101c1578063715018a6146108cf57806375bea166146108e4578063838b1da3146109155780638456cb591461093557600080fd5b80636352211e1461085a5780636ca0b0d71461087a5780636d1f73d61461088f57806370a08231146108af57600080fd5b80632f745c59116102e257806342842e0e1161027557806352d1902d1161024457806352d1902d146107ed57806355f804b3146108025780635c975abb146108225780635e9fae131461083a57600080fd5b806342842e0e1461077a5780634f1ef2861461079a5780634f6ccce7146107ad5780634f8a317c146107cd57600080fd5b80633659cfe6116102b15780633659cfe6146107055780633a484efd146107255780633b2b203e146107455780633f4ba83a1461076557600080fd5b80632f745c591461066957806334844b4214610689578063362ab1b9146106c557806336568abe146106e557600080fd5b80630f979c281161035a57806323b872dd1161032957806323b872dd146105ca57806323edf697146105ea578063248a9ca3146106185780632f2ff15d1461064957600080fd5b80630f979c281461051b57806312b6bbda1461055c578063150b7a021461057c57806318160ddd146105b557600080fd5b8063081812fc11610396578063081812fc14610483578063095ea7b3146104bb5780630c1902fe146104db5780630c634e67146104fb57600080fd5b806301ffc9a7146103c857806302451414146103fd5780630605a3341461041f57806306fdde0314610461575b600080fd5b3480156103d457600080fd5b506103e86103e3366004614ed3565b610c75565b60405190151581526020015b60405180910390f35b34801561040957600080fd5b5061041d610418366004614f4d565b610ca0565b005b34801561042b57600080fd5b506104537fe70d28ebd9d7d9a3dd77d46ae2481f301c80806f395b08de31d8e095b1c46cee81565b6040519081526020016103f4565b34801561046d57600080fd5b50610476610ff4565b6040516103f4919061500b565b34801561048f57600080fd5b506104a361049e36600461501e565b611086565b6040516001600160a01b0390911681526020016103f4565b3480156104c757600080fd5b5061041d6104d6366004615037565b61110e565b3480156104e757600080fd5b5061041d6104f636600461501e565b611223565b34801561050757600080fd5b5061041d610516366004615063565b61124e565b34801561052757600080fd5b5061054f61053636600461501e565b60009081526101c9602052604090206003015460ff1690565b6040516103f491906150bd565b34801561056857600080fd5b506104536105773660046150cb565b61127b565b34801561058857600080fd5b5061059c61059736600461514c565b611682565b6040516001600160e01b031990911681526020016103f4565b3480156105c157600080fd5b50609954610453565b3480156105d657600080fd5b5061041d6105e53660046151be565b6116d5565b3480156105f657600080fd5b5061060a61060536600461501e565b6116f9565b6040516103f49291906151ff565b34801561062457600080fd5b5061045361063336600461501e565b600090815261012d602052604090206001015490565b34801561065557600080fd5b5061041d6106643660046152a3565b61184c565b34801561067557600080fd5b50610453610684366004615037565b611872565b34801561069557600080fd5b506103e86106a43660046153bf565b80516020818301810180516101c48252928201919093012091525460ff1681565b3480156106d157600080fd5b5061041d6106e03660046153bf565b611908565b3480156106f157600080fd5b5061041d6107003660046152a3565b611955565b34801561071157600080fd5b5061041d6107203660046153f3565b6119cf565b34801561073157600080fd5b5061041d610740366004615410565b611aab565b34801561075157600080fd5b5061041d610760366004615439565b611cd2565b34801561077157600080fd5b5061041d611cf7565b34801561078657600080fd5b5061041d6107953660046151be565b6116de565b61041d6107a8366004615488565b611d59565b3480156107b957600080fd5b506104536107c836600461501e565b611e25565b3480156107d957600080fd5b5061041d6107e836600461501e565b611eb8565b3480156107f957600080fd5b50610453611f40565b34801561080e57600080fd5b5061041d61081d3660046153bf565b611ff3565b34801561082e57600080fd5b5060fb5460ff166103e8565b34801561084657600080fd5b5061041d6108553660046154d7565b612031565b34801561086657600080fd5b506104a361087536600461501e565b612136565b34801561088657600080fd5b50610453600181565b34801561089b57600080fd5b5061041d6108aa366004615063565b6121ad565b3480156108bb57600080fd5b506104536108ca3660046153f3565b612224565b3480156108db57600080fd5b5061041d6122ab565b3480156108f057600080fd5b506109046108ff36600461501e565b6122e1565b6040516103f495949392919061554d565b34801561092157600080fd5b5061041d61093036600461501e565b612429565b34801561094157600080fd5b5061041d6124a1565b34801561095657600080fd5b5061041d61096536600461558b565b612503565b34801561097657600080fd5b5060c9546001600160a01b03166104a3565b34801561099457600080fd5b506103e86109a33660046152a3565b61264d565b3480156109b457600080fd5b50610476612679565b3480156109c957600080fd5b506104766109d836600461501e565b612688565b3480156109e957600080fd5b50610453600081565b3480156109fe57600080fd5b5061041d610a0d3660046155c9565b612769565b348015610a1e57600080fd5b50610453610a2d3660046153f3565b612774565b348015610a3e57600080fd5b5061041d610a4d36600461558b565b612788565b348015610a5e57600080fd5b506101c8546104a3906001600160a01b031681565b348015610a7f57600080fd5b506104536101c35481565b348015610a9657600080fd5b5061041d610aa536600461501e565b612791565b348015610ab657600080fd5b5061041d610ac53660046155f7565b6127b9565b348015610ad657600080fd5b5061041d610ae5366004615656565b612835565b348015610af657600080fd5b5061041d610b053660046153f3565b61292b565b348015610b1657600080fd5b5061041d610b2536600461558b565b612a24565b348015610b3657600080fd5b50610476610b4536600461501e565b612a35565b348015610b5657600080fd5b5061041d610b653660046152a3565b612b6f565b348015610b7657600080fd5b50610b8a610b8536600461501e565b612b95565b6040516103f49392919061569c565b348015610ba557600080fd5b50610453600080516020615f5383398151915281565b348015610bc757600080fd5b5061041d610bd63660046153f3565b612c00565b348015610be757600080fd5b506103e8610bf63660046156b7565b6001600160a01b039182166000908152606a6020908152604080832093909416825291909152205460ff1690565b348015610c3057600080fd5b5061041d610c3f3660046153f3565b612c4d565b348015610c5057600080fd5b50610476604051806040016040528060058152602001640312e352e360dc1b81525081565b60006001600160e01b03198216637965db0b60e01b1480610c9a5750610c9a82612cf4565b92915050565b610ca8612d44565b610cd17fe70d28ebd9d7d9a3dd77d46ae2481f301c80806f395b08de31d8e095b1c46cee612d7f565b6000610cdd3087612dbd565b9050610d218186868080601f016020809104026020016040519081016040528093929190818152602001838380828437600092019190915250889250612e36915050565b610d2b8183612f44565b610d3481612fa4565b6000610d3f826130f3565b90506001600160a01b038116610d88576040805180820182526002815261034360f41b6020820152905162461bcd60e51b8152610d7f919060040161500b565b60405180910390fd5b6000816001600160a01b0316633c31175e6040518163ffffffff1660e01b8152600401600060405180830381865afa158015610dc8573d6000803e3d6000fd5b505050506040513d6000823e601f3d908101601f19168201604052610df0919081019061572a565b90506101ca81604051610e03919061575e565b9081526040519081900360200190205460ff16610e4a576040805180820182526002815261343160f01b6020820152905162461bcd60e51b8152610d7f919060040161500b565b6040516370a0823160e01b81523060048201526000906001600160a01b038416906370a0823190602401602060405180830381865afa158015610e91573d6000803e3d6000fd5b505050506040513d601f19601f82011682018060405250810190610eb5919061577a565b9050610ed230848660405180602001604052806000815250613300565b6040516370a0823160e01b81523060048201526000906001600160a01b038516906370a0823190602401602060405180830381865afa158015610f19573d6000803e3d6000fd5b505050506040513d601f19601f82011682018060405250810190610f3d919061577a565b90506000610f4b83836157a9565b905080600003610f855760408051808201825260028152611a1960f11b6020820152905162461bcd60e51b8152610d7f919060040161500b565b610f996001600160a01b0386168c83613333565b604080518781526001600160a01b038781166020830152918101839052908c16907ffc57e3cd27cd7fbd6b9bfca9a3ab5dc6414002431c17d40274c60bbfbc672a2d9060600160405180910390a25050505050505050505050565b606060658054611003906157c0565b80601f016020809104026020016040519081016040528092919081815260200182805461102f906157c0565b801561107c5780601f106110515761010080835404028352916020019161107c565b820191906000526020600020905b81548152906001019060200180831161105f57829003601f168201915b5050505050905090565b600061109182613385565b6110f25760405162461bcd60e51b815260206004820152602c60248201527f4552433732313a20617070726f76656420717565727920666f72206e6f6e657860448201526b34b9ba32b73a103a37b5b2b760a11b6064820152608401610d7f565b506000908152606960205260409020546001600160a01b031690565b600061111982612136565b9050806001600160a01b0316836001600160a01b0316036111865760405162461bcd60e51b815260206004820152602160248201527f4552433732313a20617070726f76616c20746f2063757272656e74206f776e656044820152603960f91b6064820152608401610d7f565b336001600160a01b03821614806111a257506111a28133610bf6565b6112145760405162461bcd60e51b815260206004820152603860248201527f4552433732313a20617070726f76652063616c6c6572206973206e6f74206f7760448201527f6e6572206e6f7220617070726f76656420666f7220616c6c00000000000000006064820152608401610d7f565b61121e83836133a2565b505050565b61122b612d44565b611242600080516020615f53833981519152612d7f565b61124b81612fa4565b50565b611256612d44565b61126d600080516020615f53833981519152612d7f565b6112778282612f44565b5050565b6000611285612d44565b61128d613410565b600061129888612136565b6101c854604051633a37b16d60e11b81526001600160a01b03808416600483015292935091169063746f62da90602401602060405180830381865afa1580156112e5573d6000803e3d6000fd5b505050506040513d601f19601f820116820180604052508101906113099190615805565b61133d576040805180820182526002815261191b60f11b6020820152905162461bcd60e51b8152610d7f919060040161500b565b60008881526101c9602052604090206003015460ff16600581600681111561136757611367615085565b141580156113875750600381600681111561138457611384615085565b14155b156113bc576040805180820182526002815261033360f41b6020820152905162461bcd60e51b8152610d7f919060040161500b565b60008981526101c960205260409020600201548410611405576040805180820182526002815261353560f01b6020820152905162461bcd60e51b8152610d7f919060040161500b565b60008981526101c9602052604081206001018054611422906157c0565b80601f016020809104026020016040519081016040528092919081815260200182805461144e906157c0565b801561149b5780601f106114705761010080835404028352916020019161149b565b820191906000526020600020905b81548152906001019060200180831161147e57829003601f168201915b505050505090506115138a8a8a8080601f016020809104026020016040519081016040528093929190818152602001838380828437600081840152601f19601f82011690508083019250505050505050876101c960008f81526020019081526020016000206002015461150e91906157a9565b612e36565b60016101c48a8a604051611528929190615822565b908152604051908190036020019020805491151560ff199092169190911790556115523084612dbd565b93506115968488888080601f0160208091040260200160405190810160405280939291908181526020018383808284376000920191909152508a9250612e36915050565b60016101c488886040516115ab929190615822565b908152604051908190036020018120805492151560ff19909316929092179091556000906101c4906115de90849061575e565b9081526040805160209281900383019020805460ff19169315159390931790925560008c81526101c99091522054611617908590612f44565b61162184836134c1565b61163c30848660405180602001604052806000815250613300565b604080518b8152602081018690527fb20b10d17e0e2505af41fd37a6a1b46824a76d7d940afce430c7ee4aba19a959910160405180910390a15050509695505050505050565b60006001600160a01b038516156116c3576040805180820182526002815261343360f01b6020820152905162461bcd60e51b8152610d7f919060040161500b565b50630a85bd0160e11b95945050505050565b6116de81613526565b61121e838383604051806020016040528060008152506127b9565b60008181526101c96020908152604080832060058101805483518186028101860190945280845260609586959294600690940193928592919084015b828210156117e1578382906000526020600020018054611754906157c0565b80601f0160208091040260200160405190810160405280929190818152602001828054611780906157c0565b80156117cd5780601f106117a2576101008083540402835291602001916117cd565b820191906000526020600020905b8154815290600101906020018083116117b057829003601f168201915b505050505081526020019060010190611735565b5050505091508080548060200260200160405190810160405280929190818152602001828054801561183c57602002820191906000526020600020905b81546001600160a01b0316815260019091019060200180831161181e575b5050505050905091509150915091565b600082815261012d602052604090206001015461186881613564565b61121e838361356e565b600061187d83612224565b82106118df5760405162461bcd60e51b815260206004820152602b60248201527f455243373231456e756d657261626c653a206f776e657220696e646578206f7560448201526a74206f6620626f756e647360a81b6064820152608401610d7f565b506001600160a01b03919091166000908152609760209081526040808320938352929052205490565b61191f600080516020615f53833981519152612d7f565b60006101c482604051611932919061575e565b908152604051908190036020019020805491151560ff1990921691909117905550565b6001600160a01b03811633146119c55760405162461bcd60e51b815260206004820152602f60248201527f416363657373436f6e74726f6c3a2063616e206f6e6c792072656e6f756e636560448201526e103937b632b9903337b91039b2b63360891b6064820152608401610d7f565b61127782826135f5565b6001600160a01b037f0000000000000000000000000000000000000000000000000000000000000000163003611a175760405162461bcd60e51b8152600401610d7f90615832565b7f00000000000000000000000000000000000000000000000000000000000000006001600160a01b0316611a60600080516020615ee6833981519152546001600160a01b031690565b6001600160a01b031614611a865760405162461bcd60e51b8152600401610d7f9061587e565b611a8f8161365d565b6040805160008082526020820190925261124b91839190613687565b611ab3612d44565b611abb613410565b6000611ac683612136565b6101c854604051633a37b16d60e11b81526001600160a01b03808416600483015292935091169063746f62da90602401602060405180830381865afa158015611b13573d6000803e3d6000fd5b505050506040513d601f19601f82011682018060405250810190611b379190615805565b611b6b576040805180820182526002815261191b60f11b6020820152905162461bcd60e51b8152610d7f919060040161500b565b60008381526101c96020526040902060039081015460ff1690836006811115611b9657611b96615085565b1480611bb357506005836006811115611bb157611bb1615085565b145b15611bc857611bc38160026137f2565b611cc2565b6004836006811115611bdc57611bdc615085565b03611bec57611bc38160036137f2565b6006836006811115611c0057611c00615085565b03611c1057611bc38160056137f2565b6002836006811115611c2457611c24615085565b03611c92576003816006811115611c3d57611c3d615085565b14158015611c5d57506005816006811115611c5a57611c5a615085565b14155b15611bc35760408051808201825260028152610d0d60f21b6020820152905162461bcd60e51b8152610d7f919060040161500b565b60408051808201825260028152610d0d60f21b6020820152905162461bcd60e51b8152610d7f919060040161500b565b611ccc84846134c1565b50505050565b611cda612d44565b611ce38361384b565b611cec836138b6565b61121e838383612e36565b6101c8546001600160a01b0316611d1660c9546001600160a01b031690565b6001600160a01b038216331480611d3557506001600160a01b03811633145b611d515760405162461bcd60e51b8152600401610d7f906158ca565b611277613912565b6001600160a01b037f0000000000000000000000000000000000000000000000000000000000000000163003611da15760405162461bcd60e51b8152600401610d7f90615832565b7f00000000000000000000000000000000000000000000000000000000000000006001600160a01b0316611dea600080516020615ee6833981519152546001600160a01b031690565b6001600160a01b031614611e105760405162461bcd60e51b8152600401610d7f9061587e565b611e198261365d565b61127782826001613687565b6000611e3060995490565b8210611e935760405162461bcd60e51b815260206004820152602c60248201527f455243373231456e756d657261626c653a20676c6f62616c20696e646578206f60448201526b7574206f6620626f756e647360a01b6064820152608401610d7f565b60998281548110611ea657611ea661590f565b90600052602060002001549050919050565b611ec0612d44565b611ed7600080516020615f53833981519152612d7f565b600160008281526101c9602052604090206003015460ff166006811115611f0057611f00615085565b14611f35576040805180820182526002815261333560f01b6020820152905162461bcd60e51b8152610d7f919060040161500b565b61124b8160006134c1565b6000306001600160a01b037f00000000000000000000000000000000000000000000000000000000000000001614611fe05760405162461bcd60e51b815260206004820152603860248201527f555550535570677261646561626c653a206d757374206e6f742062652063616c60448201527f6c6564207468726f7567682064656c656761746563616c6c00000000000000006064820152608401610d7f565b50600080516020615ee683398151915290565b60c9546001600160a01b0316331461201d5760405162461bcd60e51b8152600401610d7f90615925565b8051611277906101c7906020840190614e24565b612039612d44565b6120428461384b565b61204b846138b6565b612056848484612e36565b60008481526101c96020526040902060040180546121059190612078906157c0565b80601f01602080910402602001604051908101604052809291908181526020018280546120a4906157c0565b80156120f15780601f106120c6576101008083540402835291602001916120f1565b820191906000526020600020905b8154815290600101906020018083116120d457829003601f168201915b5050505050826139a590919063ffffffff16565b611ccc5760008481526101c960209081526040909120825161212f92600490920191840190614e24565b5050505050565b6000818152606760205260408120546001600160a01b031680610c9a5760405162461bcd60e51b815260206004820152602960248201527f4552433732313a206f776e657220717565727920666f72206e6f6e657869737460448201526832b73a103a37b5b2b760b91b6064820152608401610d7f565b6121b5612d44565b6121cc600080516020615f53833981519152612d7f565b60008281526101c9602052604090205415612211576040805180820182526002815261199b60f11b6020820152905162461bcd60e51b8152610d7f919060040161500b565b61221b8282612f44565b61127782612fa4565b60006001600160a01b03821661228f5760405162461bcd60e51b815260206004820152602a60248201527f4552433732313a2062616c616e636520717565727920666f7220746865207a65604482015269726f206164647265737360b01b6064820152608401610d7f565b506001600160a01b031660009081526068602052604090205490565b60c9546001600160a01b031633146122d55760405162461bcd60e51b8152600401610d7f90615925565b6122df60006139cb565b565b6101c96020526000908152604090208054600182018054919291612304906157c0565b80601f0160208091040260200160405190810160405280929190818152602001828054612330906157c0565b801561237d5780601f106123525761010080835404028352916020019161237d565b820191906000526020600020905b81548152906001019060200180831161236057829003601f168201915b50505050600283015460038401546004850180549495929460ff9092169350906123a6906157c0565b80601f01602080910402602001604051908101604052809291908181526020018280546123d2906157c0565b801561241f5780601f106123f45761010080835404028352916020019161241f565b820191906000526020600020905b81548152906001019060200180831161240257829003601f168201915b5050505050905085565b612431612d44565b612448600080516020615f53833981519152612d7f565b612451816138b6565b60008181526101c9602052604080822090516101c4916124769160019091019061595a565b908152604051908190036020019020805491151560ff1990921691909117905561124b8160016134c1565b6101c8546001600160a01b03166124c060c9546001600160a01b031690565b6001600160a01b0382163314806124df57506001600160a01b03811633145b6124fb5760405162461bcd60e51b8152600401610d7f906158ca565b611277613a1d565b61250b612d44565b612522600080516020615f53833981519152612d7f565b600260008381526101c9602052604090206003015460ff16600681111561254b5761254b615085565b14612580576040805180820182526002815261323760f01b6020820152905162461bcd60e51b8152610d7f919060040161500b565b6101c8546001600160a01b031663746f62da61259b84612136565b6040516001600160e01b031960e084901b1681526001600160a01b039091166004820152602401602060405180830381865afa1580156125df573d6000803e3d6000fd5b505050506040513d601f19601f820116820180604052508101906126039190615805565b156126385760408051808201825260028152610ccd60f21b6020820152905162461bcd60e51b8152610d7f919060040161500b565b6126438260016134c1565b6112778282613a98565b600091825261012d602090815260408084206001600160a01b0393909316845291905290205460ff1690565b606060668054611003906157c0565b606061269382613385565b6126c7576040805180820182526002815261323960f01b6020820152905162461bcd60e51b8152610d7f919060040161500b565b60008281526101c96020526040902060010180546126e4906157c0565b80601f0160208091040260200160405190810160405280929190818152602001828054612710906157c0565b801561275d5780601f106127325761010080835404028352916020019161275d565b820191906000526020600020905b81548152906001019060200180831161274057829003601f168201915b50505050509050919050565b611277338383613b47565b600061277e612d44565b610c9a8283612dbd565b6126438261384b565b61279a81613526565b61124b336127a7836130f3565b83604051806020016040528060008152505b6127c33383613c15565b6128295760405162461bcd60e51b815260206004820152603160248201527f4552433732313a207472616e736665722063616c6c6572206973206e6f74206f6044820152701ddb995c881b9bdc88185c1c1c9bdd9959607a1b6064820152608401610d7f565b611ccc84848484613300565b60c9546001600160a01b0316331461285f5760405162461bcd60e51b8152600401610d7f90615925565b8015156101ca83604051612873919061575e565b9081526040519081900360200190205460ff161515036128bd576040805180820182526002815261323360f01b6020820152905162461bcd60e51b8152610d7f919060040161500b565b806101ca836040516128cf919061575e565b908152604051908190036020018120805492151560ff19909316929092179091557fd1ccc86b3ecebee24bd889691724999af4141f85d8bf0c59a60112e18173f6a09061291f90849084906159f5565b60405180910390a15050565b60006129376001613cff565b9050801561294f576000805461ff0019166101001790555b612957613d8c565b61299b604051806060016040528060268152602001615f2d602691396040518060400160405280600a8152602001692a27aaa1a0a716a1a7a160b11b815250613db3565b6129a3613e01565b6129ab613e31565b6129b3613d8c565b6129bb613d8c565b6101c880546001600160a01b0319166001600160a01b0384161790556129e260003361356e565b8015611277576000805461ff0019169055604051600181527f7f26b83ff96e1f2b6a682f133852f6798a09c465da95921460cefb38474024989060200161291f565b612a2c612d44565b61264382612429565b6060612a4082613385565b612a74576040805180820182526002815261323960f01b6020820152905162461bcd60e51b8152610d7f919060040161500b565b60008281526101c9602052604081206004018054612a91906157c0565b80601f0160208091040260200160405190810160405280929190818152602001828054612abd906157c0565b8015612b0a5780601f10612adf57610100808354040283529160200191612b0a565b820191906000526020600020905b815481529060010190602001808311612aed57829003601f168201915b50505050509050612b19613e64565b51600003612b275792915050565b805115612b5f57612b36613e64565b81604051602001612b48929190615a19565b604051602081830303815290604052915050919050565b612b6883613e74565b9392505050565b600082815261012d6020526040902060010154612b8b81613564565b61121e83836135f5565b6000806000612ba384613385565b612bd7576040805180820182526002815261323960f01b6020820152905162461bcd60e51b8152610d7f919060040161500b565b50505060009081526101c96020526040902080546002820154600390920154909260ff90911690565b60c9546001600160a01b03163314612c2a5760405162461bcd60e51b8152600401610d7f90615925565b6101c880546001600160a01b0319166001600160a01b0392909216919091179055565b60c9546001600160a01b03163314612c775760405162461bcd60e51b8152600401610d7f90615925565b6001600160a01b038116612cdc5760405162461bcd60e51b815260206004820152602660248201527f4f776e61626c653a206e6577206f776e657220697320746865207a65726f206160448201526564647265737360d01b6064820152608401610d7f565b61124b816139cb565b6001600160a01b03163b151590565b60006001600160e01b031982166380ac58cd60e01b1480612d2557506001600160e01b03198216635b5e139f60e01b145b80610c9a57506301ffc9a760e01b6001600160e01b0319831614610c9a565b60fb5460ff16156122df576040805180820182526002815261066760f31b6020820152905162461bcd60e51b8152610d7f919060040161500b565b612d89813361264d565b61124b576040805180820182526002815261333960f01b6020820152905162461bcd60e51b8152610d7f919060040161500b565b6101c3805460010190819055612dd38382613f28565b60008181526101c96020908152604091829020600301805460ff1916905581516001600160a01b03851681529081018390527f6174e73d7eb2fee6c482f87f81961b83cfa577f50c963bd1516f282497260fcd910160405180910390a192915050565b6101c482604051612e47919061575e565b9081526040519081900360200190205460ff1615612e8f576040805180820182526002815261199960f11b6020820152905162461bcd60e51b8152610d7f919060040161500b565b80600003612ec7576040805180820182526002815261353560f01b6020820152905162461bcd60e51b8152610d7f919060040161500b565b60008381526101c9602090815260409091208351612eed92600190920191850190614e24565b5060008381526101c9602052604090819020600201829055517fd680d89587cd5af07a9a0280107488c8b2db5f86aec57b869f0933fb4a99c05b90612f3790859085908590615a48565b60405180910390a1505050565b6101c854612f5b906001600160a01b031682613f42565b60008281526101c9602090815260409182902083905581518481529081018390527fe16bc7d72176e78ab56068f816d35b70dfcb41bb492ca0da0bcfc064b2439f6c910161291f565b612fad81613385565b612fe1576040805180820182526002815261323960f01b6020820152905162461bcd60e51b8152610d7f919060040161500b565b612fea816138b6565b60008181526101c960205260408120549003613030576040805180820182526002815261333160f01b6020820152905162461bcd60e51b8152610d7f919060040161500b565b6101c46101c96000838152602001908152602001600020600101604051613057919061595a565b9081526040519081900360200190205460ff161561309f576040805180820182526002815261199960f11b6020820152905162461bcd60e51b8152610d7f919060040161500b565b60016101c46101c960008481526020019081526020016000206001016040516130c8919061595a565b908152604051908190036020019020805491151560ff1990921691909117905561124b8160026134c1565b60008181526101c960209081526040808320546101c8548251630505792b60e51b8152925191936001600160a01b03909116928592849263a0af256092600480820193918290030181865afa158015613150573d6000803e3d6000fd5b505050506040513d601f19601f820116820180604052508101906131749190615a71565b60405163056efc1d60e21b8152600481018590529091506000906001600160a01b038316906315bbf07490602401600060405180830381865afa1580156131bf573d6000803e3d6000fd5b505050506040513d6000823e601f3d908101601f191682016040526131e79190810190615aa5565b6101608101518051919250906000036132185750604080518082019091526005815264766572726160d81b60208201525b6040516391148b2760e01b81526000906001600160a01b038616906391148b279061324790859060040161500b565b602060405180830381865afa158015613264573d6000803e3d6000fd5b505050506040513d601f19601f820116820180604052508101906132889190615a71565b6040516317a04f4f60e21b8152600481018890529091506001600160a01b03821690635e813d3c90602401602060405180830381865afa1580156132d0573d6000803e3d6000fd5b505050506040513d601f19601f820116820180604052508101906132f49190615a71565b98975050505050505050565b61330b848484614070565b61331784848484614217565b611ccc5760405162461bcd60e51b8152600401610d7f90615c2f565b604080516001600160a01b038416602482015260448082018490528251808303909101815260649091019091526020810180516001600160e01b031663a9059cbb60e01b17905261121e908490614318565b6000908152606760205260409020546001600160a01b0316151590565b600081815260696020526040902080546001600160a01b0319166001600160a01b03841690811790915581906133d782612136565b6001600160a01b03167f8c5be1e5ebec7d5bd14f71427d1e84f3dd0314c0f7b2291e5b200ac8c7c3b92560405160405180910390a45050565b6101c85460408051637394ca7160e11b815290516000926001600160a01b03169163e72994e29160048083019260209291908290030181865afa15801561345b573d6000803e3d6000fd5b505050506040513d601f19601f8201168201806040525081019061347f9190615a71565b90506001600160a01b038116331461124b576040805180820182526002815261333960f01b6020820152905162461bcd60e51b8152610d7f919060040161500b565b60008281526101c960205260409020600301805482919060ff191660018360068111156134f0576134f0615085565b02179055507f132d48207d6b10897066f0b98b98325907e8a0d491390e141c7377772b47a9d6828260405161291f929190615c81565b6135303382613c15565b61124b576040805180820182526002815261333760f01b6020820152905162461bcd60e51b8152610d7f919060040161500b565b61124b81336143ea565b613578828261264d565b61127757600082815261012d602090815260408083206001600160a01b03851684529091529020805460ff191660011790556135b13390565b6001600160a01b0316816001600160a01b0316837f2f8788117e7eff1d82e926ec794901d17c78024a50270940304540a733656f0d60405160405180910390a45050565b6135ff828261264d565b1561127757600082815261012d602090815260408083206001600160a01b0385168085529252808320805460ff1916905551339285917ff6391f5c32d9c69d2a47ea670b442974b53935d1edc7fd64eb21e047a839171b9190a45050565b60c9546001600160a01b0316331461124b5760405162461bcd60e51b8152600401610d7f90615925565b7f4910fdfa16fed3260ed0e7147f7cc6da11a60208b5b9406d12a635614ffd91435460ff16156136ba5761121e8361444e565b826001600160a01b03166352d1902d6040518163ffffffff1660e01b8152600401602060405180830381865afa925050508015613714575060408051601f3d908101601f191682019092526137119181019061577a565b60015b6137775760405162461bcd60e51b815260206004820152602e60248201527f45524331393637557067726164653a206e657720696d706c656d656e7461746960448201526d6f6e206973206e6f74205555505360901b6064820152608401610d7f565b600080516020615ee683398151915281146137e65760405162461bcd60e51b815260206004820152602960248201527f45524331393637557067726164653a20756e737570706f727465642070726f786044820152681a58589b195555525160ba1b6064820152608401610d7f565b5061121e8383836144ea565b80600681111561380457613804615085565b82600681111561381657613816615085565b146112775760408051808201825260028152610d0d60f21b6020820152905162461bcd60e51b8152610d7f919060040161500b565b3361385582612136565b6001600160a01b031614158015613881575061387f600080516020615f538339815191523361264d565b155b1561124b5760408051808201825260028152610c8d60f21b6020820152905162461bcd60e51b8152610d7f919060040161500b565b60008181526101c9602052604081206003015460ff1660068111156138dd576138dd615085565b1461124b576040805180820182526002815261033360f41b6020820152905162461bcd60e51b8152610d7f919060040161500b565b60fb5460ff1661395b5760405162461bcd60e51b815260206004820152601460248201527314185d5cd8589b194e881b9bdd081c185d5cd95960621b6044820152606401610d7f565b60fb805460ff191690557f5db9ee0a495bf2e6ff9c91a7834c1ba4fdd244a5e8aa4e537bd38aeae4b073aa335b6040516001600160a01b03909116815260200160405180910390a1565b600081518351148015612b68575081805190602001208380519060200120149392505050565b60c980546001600160a01b038381166001600160a01b0319831681179093556040519116919082907f8be0079c531659141344cd1fd0a4f28419497f9722a3daafe3b4186f6b6457e090600090a35050565b60fb5460ff1615613a635760405162461bcd60e51b815260206004820152601060248201526f14185d5cd8589b194e881c185d5cd95960821b6044820152606401610d7f565b60fb805460ff191660011790557f62e78cea01bee320cd4e420270b5ea74000d11b0c9f74754ebdbfc544b05a2586139883390565b60008281526101c96020908152604082206005018054600181018255908352918190208351613ace939190910191840190614e24565b5060008281526101c96020908152604080832060068101805460018101825590855292842090920180546001600160a01b031916339081179091559285905260059091015490517f08740f41d4d7e855ea188e78846ad3e8665dd6d0b088f899025991c1ee8c2c479261291f9286929091908690615c95565b816001600160a01b0316836001600160a01b031603613ba85760405162461bcd60e51b815260206004820152601960248201527f4552433732313a20617070726f766520746f2063616c6c6572000000000000006044820152606401610d7f565b6001600160a01b038381166000818152606a6020908152604080832094871680845294825291829020805460ff191686151590811790915591519182527f17307eab39ab6107e8899845ad3d59bd9653f200f220920489ca2b5937696c31910160405180910390a3505050565b6000613c2082613385565b613c815760405162461bcd60e51b815260206004820152602c60248201527f4552433732313a206f70657261746f7220717565727920666f72206e6f6e657860448201526b34b9ba32b73a103a37b5b2b760a11b6064820152608401610d7f565b6000613c8c83612136565b9050806001600160a01b0316846001600160a01b03161480613cd357506001600160a01b038082166000908152606a602090815260408083209388168352929052205460ff165b80613cf75750836001600160a01b0316613cec84611086565b6001600160a01b0316145b949350505050565b60008054610100900460ff1615613d46578160ff166001148015613d225750303b155b613d3e5760405162461bcd60e51b8152600401610d7f90615ccc565b506000919050565b60005460ff808416911610613d6d5760405162461bcd60e51b8152600401610d7f90615ccc565b506000805460ff191660ff92909216919091179055600190565b919050565b600054610100900460ff166122df5760405162461bcd60e51b8152600401610d7f90615d1a565b600054610100900460ff16613dda5760405162461bcd60e51b8152600401610d7f90615d1a565b8151613ded906065906020850190614e24565b50805161121e906066906020840190614e24565b600054610100900460ff16613e285760405162461bcd60e51b8152600401610d7f90615d1a565b6122df336139cb565b600054610100900460ff16613e585760405162461bcd60e51b8152600401610d7f90615d1a565b60fb805460ff19169055565b60606101c78054611003906157c0565b6060613e7f82613385565b613ee35760405162461bcd60e51b815260206004820152602f60248201527f4552433732314d657461646174613a2055524920717565727920666f72206e6f60448201526e3732bc34b9ba32b73a103a37b5b2b760891b6064820152608401610d7f565b6000613eed613e64565b90506000815111613f0d5760405180602001604052806000815250612b68565b80613f178461450f565b604051602001612b48929190615a19565b61127782826040518060200160405280600081525061460f565b6000826001600160a01b031663a0af25606040518163ffffffff1660e01b8152600401602060405180830381865afa158015613f82573d6000803e3d6000fd5b505050506040513d601f19601f82011682018060405250810190613fa69190615a71565b604051634f558e7960e01b8152600481018490529091506001600160a01b03821690634f558e7990602401602060405180830381865afa158015613fee573d6000803e3d6000fd5b505050506040513d601f19601f820116820180604052508101906140129190615805565b61121e5760405162461bcd60e51b815260206004820152602960248201527f436172626f6e2070726f6a6563742076696e7461676520646f6573206e6f74206044820152681e595d08195e1a5cdd60ba1b6064820152608401610d7f565b826001600160a01b031661408382612136565b6001600160a01b0316146140e75760405162461bcd60e51b815260206004820152602560248201527f4552433732313a207472616e736665722066726f6d20696e636f72726563742060448201526437bbb732b960d91b6064820152608401610d7f565b6001600160a01b0382166141495760405162461bcd60e51b8152602060048201526024808201527f4552433732313a207472616e7366657220746f20746865207a65726f206164646044820152637265737360e01b6064820152608401610d7f565b614154838383614642565b61415f6000826133a2565b6001600160a01b03831660009081526068602052604081208054600192906141889084906157a9565b90915550506001600160a01b03821660009081526068602052604081208054600192906141b6908490615d65565b909155505060008181526067602052604080822080546001600160a01b0319166001600160a01b0386811691821790925591518493918716917fddf252ad1be2c89b69c2b068fc378daa952ba7f163c4a11628f55a4df523b3ef91a4505050565b60006001600160a01b0384163b1561430d57604051630a85bd0160e11b81526001600160a01b0385169063150b7a029061425b903390899088908890600401615d7d565b6020604051808303816000875af1925050508015614296575060408051601f3d908101601f1916820190925261429391810190615db0565b60015b6142f3573d8080156142c4576040519150601f19603f3d011682016040523d82523d6000602084013e6142c9565b606091505b5080516000036142eb5760405162461bcd60e51b8152600401610d7f90615c2f565b805181602001fd5b6001600160e01b031916630a85bd0160e11b149050613cf7565b506001949350505050565b600061436d826040518060400160405280602081526020017f5361666545524332303a206c6f772d6c6576656c2063616c6c206661696c6564815250856001600160a01b03166146559092919063ffffffff16565b80519091501561121e578080602001905181019061438b9190615805565b61121e5760405162461bcd60e51b815260206004820152602a60248201527f5361666545524332303a204552433230206f7065726174696f6e20646964206e6044820152691bdd081cdd58d8d9595960b21b6064820152608401610d7f565b6143f4828261264d565b6112775761440c816001600160a01b03166014614664565b614417836020614664565b604051602001614428929190615dcd565b60408051601f198184030181529082905262461bcd60e51b8252610d7f9160040161500b565b6001600160a01b0381163b6144bb5760405162461bcd60e51b815260206004820152602d60248201527f455243313936373a206e657720696d706c656d656e746174696f6e206973206e60448201526c1bdd08184818dbdb9d1c9858dd609a1b6064820152608401610d7f565b600080516020615ee683398151915280546001600160a01b0319166001600160a01b0392909216919091179055565b6144f3836147ff565b6000825111806145005750805b1561121e57611ccc838361483f565b6060816000036145365750506040805180820190915260018152600360fc1b602082015290565b8160005b8115614560578061454a81615e42565b91506145599050600a83615e71565b915061453a565b6000816001600160401b0381111561457a5761457a6152d3565b6040519080825280601f01601f1916602001820160405280156145a4576020820181803683370190505b5090505b8415613cf7576145b96001836157a9565b91506145c6600a86615e85565b6145d1906030615d65565b60f81b8183815181106145e6576145e661590f565b60200101906001600160f81b031916908160001a905350614608600a86615e71565b94506145a8565b6146198383614933565b6146266000848484614217565b61121e5760405162461bcd60e51b8152600401610d7f90615c2f565b61464a612d44565b61121e838383614a72565b6060613cf78484600085614b2a565b60606000614673836002615e99565b61467e906002615d65565b6001600160401b03811115614695576146956152d3565b6040519080825280601f01601f1916602001820160405280156146bf576020820181803683370190505b509050600360fc1b816000815181106146da576146da61590f565b60200101906001600160f81b031916908160001a905350600f60fb1b816001815181106147095761470961590f565b60200101906001600160f81b031916908160001a905350600061472d846002615e99565b614738906001615d65565b90505b60018111156147b0576f181899199a1a9b1b9c1cb0b131b232b360811b85600f166010811061476c5761476c61590f565b1a60f81b8282815181106147825761478261590f565b60200101906001600160f81b031916908160001a90535060049490941c936147a981615eb8565b905061473b565b508315612b685760405162461bcd60e51b815260206004820181905260248201527f537472696e67733a20686578206c656e67746820696e73756666696369656e746044820152606401610d7f565b6148088161444e565b6040516001600160a01b038216907fbc7cd75a20ee27fd9adebab32041f755214dbc6bffa90cc0225b39da2e5c2d3b90600090a250565b60606001600160a01b0383163b6148a75760405162461bcd60e51b815260206004820152602660248201527f416464726573733a2064656c65676174652063616c6c20746f206e6f6e2d636f6044820152651b9d1c9858dd60d21b6064820152608401610d7f565b600080846001600160a01b0316846040516148c2919061575e565b600060405180830381855af49150503d80600081146148fd576040519150601f19603f3d011682016040523d82523d6000602084013e614902565b606091505b509150915061492a8282604051806060016040528060278152602001615f0660279139614c5b565b95945050505050565b6001600160a01b0382166149895760405162461bcd60e51b815260206004820181905260248201527f4552433732313a206d696e7420746f20746865207a65726f20616464726573736044820152606401610d7f565b61499281613385565b156149df5760405162461bcd60e51b815260206004820152601c60248201527f4552433732313a20746f6b656e20616c7265616479206d696e746564000000006044820152606401610d7f565b6149eb60008383614642565b6001600160a01b0382166000908152606860205260408120805460019290614a14908490615d65565b909155505060008181526067602052604080822080546001600160a01b0319166001600160a01b03861690811790915590518392907fddf252ad1be2c89b69c2b068fc378daa952ba7f163c4a11628f55a4df523b3ef908290a45050565b6001600160a01b038316614acd57614ac881609980546000838152609a60205260408120829055600182018355919091527f72a152ddfb8e864297c917af52ea6c1c68aead0fee1a62673fcc7e0c94979d000155565b614af0565b816001600160a01b0316836001600160a01b031614614af057614af08382614c94565b6001600160a01b038216614b075761121e81614d31565b826001600160a01b0316826001600160a01b03161461121e5761121e8282614de0565b606082471015614b8b5760405162461bcd60e51b815260206004820152602660248201527f416464726573733a20696e73756666696369656e742062616c616e636520666f6044820152651c8818d85b1b60d21b6064820152608401610d7f565b6001600160a01b0385163b614be25760405162461bcd60e51b815260206004820152601d60248201527f416464726573733a2063616c6c20746f206e6f6e2d636f6e74726163740000006044820152606401610d7f565b600080866001600160a01b03168587604051614bfe919061575e565b60006040518083038185875af1925050503d8060008114614c3b576040519150601f19603f3d011682016040523d82523d6000602084013e614c40565b606091505b5091509150614c50828286614c5b565b979650505050505050565b60608315614c6a575081612b68565b825115614c7a5782518084602001fd5b8160405162461bcd60e51b8152600401610d7f919061500b565b60006001614ca184612224565b614cab91906157a9565b600083815260986020526040902054909150808214614cfe576001600160a01b03841660009081526097602090815260408083208584528252808320548484528184208190558352609890915290208190555b5060009182526098602090815260408084208490556001600160a01b039094168352609781528383209183525290812055565b609954600090614d43906001906157a9565b6000838152609a602052604081205460998054939450909284908110614d6b57614d6b61590f565b906000526020600020015490508060998381548110614d8c57614d8c61590f565b6000918252602080832090910192909255828152609a90915260408082208490558582528120556099805480614dc457614dc4615ecf565b6001900381819060005260206000200160009055905550505050565b6000614deb83612224565b6001600160a01b039093166000908152609760209081526040808320868452825280832085905593825260989052919091209190915550565b828054614e30906157c0565b90600052602060002090601f016020900481019282614e525760008555614e98565b82601f10614e6b57805160ff1916838001178555614e98565b82800160010185558215614e98579182015b82811115614e98578251825591602001919060010190614e7d565b50614ea4929150614ea8565b5090565b5b80821115614ea45760008155600101614ea9565b6001600160e01b03198116811461124b57600080fd5b600060208284031215614ee557600080fd5b8135612b6881614ebd565b6001600160a01b038116811461124b57600080fd5b60008083601f840112614f1757600080fd5b5081356001600160401b03811115614f2e57600080fd5b602083019150836020828501011115614f4657600080fd5b9250929050565b600080600080600060808688031215614f6557600080fd5b8535614f7081614ef0565b945060208601356001600160401b03811115614f8b57600080fd5b614f9788828901614f05565b9699909850959660408101359660609091013595509350505050565b60005b83811015614fce578181015183820152602001614fb6565b83811115611ccc5750506000910152565b60008151808452614ff7816020860160208601614fb3565b601f01601f19169290920160200192915050565b602081526000612b686020830184614fdf565b60006020828403121561503057600080fd5b5035919050565b6000806040838503121561504a57600080fd5b823561505581614ef0565b946020939093013593505050565b6000806040838503121561507657600080fd5b50508035926020909101359150565b634e487b7160e01b600052602160045260246000fd5b600781106150b957634e487b7160e01b600052602160045260246000fd5b9052565b60208101610c9a828461509b565b600080600080600080608087890312156150e457600080fd5b8635955060208701356001600160401b038082111561510257600080fd5b61510e8a838b01614f05565b9097509550604089013591508082111561512757600080fd5b5061513489828a01614f05565b979a9699509497949695606090950135949350505050565b60008060008060006080868803121561516457600080fd5b853561516f81614ef0565b9450602086013561517f81614ef0565b93506040860135925060608601356001600160401b038111156151a157600080fd5b6151ad88828901614f05565b969995985093965092949392505050565b6000806000606084860312156151d357600080fd5b83356151de81614ef0565b925060208401356151ee81614ef0565b929592945050506040919091013590565b6000604082016040835280855180835260608501915060608160051b8601019250602080880160005b8381101561525657605f19888703018552615244868351614fdf565b95509382019390820190600101615228565b50508584038187015286518085528782019482019350915060005b828110156152965784516001600160a01b031684529381019392810192600101615271565b5091979650505050505050565b600080604083850312156152b657600080fd5b8235915060208301356152c881614ef0565b809150509250929050565b634e487b7160e01b600052604160045260246000fd5b60405161018081016001600160401b038111828210171561530c5761530c6152d3565b60405290565b604051601f8201601f191681016001600160401b038111828210171561533a5761533a6152d3565b604052919050565b60006001600160401b0382111561535b5761535b6152d3565b50601f01601f191660200190565b600082601f83011261537a57600080fd5b813561538d61538882615342565b615312565b8181528460208386010111156153a257600080fd5b816020850160208301376000918101602001919091529392505050565b6000602082840312156153d157600080fd5b81356001600160401b038111156153e757600080fd5b613cf784828501615369565b60006020828403121561540557600080fd5b8135612b6881614ef0565b6000806040838503121561542357600080fd5b823591506020830135600781106152c857600080fd5b60008060006060848603121561544e57600080fd5b8335925060208401356001600160401b0381111561546b57600080fd5b61547786828701615369565b925050604084013590509250925092565b6000806040838503121561549b57600080fd5b82356154a681614ef0565b915060208301356001600160401b038111156154c157600080fd5b6154cd85828601615369565b9150509250929050565b600080600080608085870312156154ed57600080fd5b8435935060208501356001600160401b038082111561550b57600080fd5b61551788838901615369565b945060408701359350606087013591508082111561553457600080fd5b5061554187828801615369565b91505092959194509250565b85815260a06020820152600061556660a0830187614fdf565b856040840152615579606084018661509b565b82810360808401526132f48185614fdf565b6000806040838503121561559e57600080fd5b8235915060208301356001600160401b038111156154c157600080fd5b801515811461124b57600080fd5b600080604083850312156155dc57600080fd5b82356155e781614ef0565b915060208301356152c8816155bb565b6000806000806080858703121561560d57600080fd5b843561561881614ef0565b9350602085013561562881614ef0565b92506040850135915060608501356001600160401b0381111561564a57600080fd5b61554187828801615369565b6000806040838503121561566957600080fd5b82356001600160401b0381111561567f57600080fd5b61568b85828601615369565b92505060208301356152c8816155bb565b8381526020810183905260608101613cf7604083018461509b565b600080604083850312156156ca57600080fd5b82356156d581614ef0565b915060208301356152c881614ef0565b600082601f8301126156f657600080fd5b815161570461538882615342565b81815284602083860101111561571957600080fd5b613cf7826020830160208701614fb3565b60006020828403121561573c57600080fd5b81516001600160401b0381111561575257600080fd5b613cf7848285016156e5565b60008251615770818460208701614fb3565b9190910192915050565b60006020828403121561578c57600080fd5b5051919050565b634e487b7160e01b600052601160045260246000fd5b6000828210156157bb576157bb615793565b500390565b600181811c908216806157d457607f821691505b6020821081036157f457634e487b7160e01b600052602260045260246000fd5b50919050565b8051613d87816155bb565b60006020828403121561581757600080fd5b8151612b68816155bb565b8183823760009101908152919050565b6020808252602c908201527f46756e6374696f6e206d7573742062652063616c6c6564207468726f7567682060408201526b19195b1959d85d1958d85b1b60a21b606082015260800190565b6020808252602c908201527f46756e6374696f6e206d7573742062652063616c6c6564207468726f7567682060408201526b6163746976652070726f787960a01b606082015260800190565b60208082526025908201527f43616c6c6572206973206e6f74207468652072656769737472792c206e6f722060408201526437bbb732b960d91b606082015260800190565b634e487b7160e01b600052603260045260246000fd5b6020808252818101527f4f776e61626c653a2063616c6c6572206973206e6f7420746865206f776e6572604082015260600190565b600080835481600182811c91508083168061597657607f831692505b6020808410820361599557634e487b7160e01b86526022600452602486fd5b8180156159a957600181146159ba576159e7565b60ff198616895284890196506159e7565b60008a81526020902060005b868110156159df5781548b8201529085019083016159c6565b505084890196505b509498975050505050505050565b604081526000615a086040830185614fdf565b905082151560208301529392505050565b60008351615a2b818460208801614fb3565b835190830190615a3f818360208801614fb3565b01949350505050565b838152606060208201526000615a616060830185614fdf565b9050826040830152949350505050565b600060208284031215615a8357600080fd5b8151612b6881614ef0565b80516001600160401b0381168114613d8757600080fd5b600060208284031215615ab757600080fd5b81516001600160401b0380821115615ace57600080fd5b908301906101808286031215615ae357600080fd5b615aeb6152e9565b825182811115615afa57600080fd5b615b06878286016156e5565b825250615b1560208401615a8e565b6020820152615b2660408401615a8e565b604082015260608301516060820152615b4160808401615a8e565b6080820152615b5260a084016157fa565b60a0820152615b6360c084016157fa565b60c082015260e083015182811115615b7a57600080fd5b615b86878286016156e5565b60e0830152506101008084015183811115615ba057600080fd5b615bac888287016156e5565b8284015250506101208084015183811115615bc657600080fd5b615bd2888287016156e5565b8284015250506101408084015183811115615bec57600080fd5b615bf8888287016156e5565b8284015250506101608084015183811115615c1257600080fd5b615c1e888287016156e5565b918301919091525095945050505050565b60208082526032908201527f4552433732313a207472616e7366657220746f206e6f6e20455243373231526560408201527131b2b4bb32b91034b6b83632b6b2b73a32b960711b606082015260800190565b82815260408101612b68602083018461509b565b84815283602082015260018060a01b0383166040820152608060608201526000615cc26080830184614fdf565b9695505050505050565b6020808252602e908201527f496e697469616c697a61626c653a20636f6e747261637420697320616c72656160408201526d191e481a5b9a5d1a585b1a5e995960921b606082015260800190565b6020808252602b908201527f496e697469616c697a61626c653a20636f6e7472616374206973206e6f74206960408201526a6e697469616c697a696e6760a81b606082015260800190565b60008219821115615d7857615d78615793565b500190565b6001600160a01b0385811682528416602082015260408101839052608060608201819052600090615cc290830184614fdf565b600060208284031215615dc257600080fd5b8151612b6881614ebd565b7f416363657373436f6e74726f6c3a206163636f756e7420000000000000000000815260008351615e05816017850160208801614fb3565b7001034b99036b4b9b9b4b733903937b6329607d1b6017918401918201528351615e36816028840160208801614fb3565b01602801949350505050565b600060018201615e5457615e54615793565b5060010190565b634e487b7160e01b600052601260045260246000fd5b600082615e8057615e80615e5b565b500490565b600082615e9457615e94615e5b565b500690565b6000816000190483118215151615615eb357615eb3615793565b500290565b600081615ec757615ec7615793565b506000190190565b634e487b7160e01b600052603160045260246000fdfe360894a13ba1a3210667c828492db98dca3e2076cc3735a920a3ca505d382bbc416464726573733a206c6f772d6c6576656c2064656c65676174652063616c6c206661696c6564546f7563616e2050726f746f636f6c3a20436172626f6e204f666673657420426174636865730ce23c3e399818cfee81a7ab0880f714e53d7672b08df0fa62f2843416e1ea09a26469706673582212208e12612c94bb32b21601c3d150bdcabcfe4fd745117586cc6e34d1682471967964736f6c634300080e0033496e697469616c697a61626c653a20636f6e747261637420697320616c726561",
  "devdoc": {
    "kind": "dev",
    "methods": {
      "addComment(uint256,string)": {
        "details": "Don't allow the contract owner to comment.  When the contract owner can also be a verifier they should add them as a verifier first; this should prevent accidental comments from the wrong account."
      },
      "approve(address,uint256)": {
        "details": "See {IERC721-approve}."
      },
      "balanceOf(address)": {
        "details": "See {IERC721-balanceOf}."
      },
      "confirmBatch(uint256)": {
        "details": "Callable only by verifiers, only for pending batches. This flow requires a previous linking with a vintage",
        "params": {
          "tokenId": "The token ID of the batch"
        }
      },
      "confirmBatchWithVintage(uint256,uint256)": {
        "details": "Function for main approval flow. Callable only by verifiers.",
        "params": {
          "projectVintageTokenId": "The token ID of the vintage",
          "tokenId": "The token ID of the batch"
        }
      },
      "constructor": {
        "custom:oz-upgrades-unsafe-allow": "constructor"
      },
      "fractionalize(uint256)": {
        "details": "Only by the batch-NFT owner or approved operator, only if batch is confirmed. Batch-NFT is sent from the sender and TCO2s are transferred to the sender. Queries the factory to find the corresponding TCO2 contract Fractionalization happens via receive hook on `safeTransferFrom`",
        "params": {
          "tokenId": "The token ID of the batch"
        }
      },
      "getApproved(uint256)": {
        "details": "See {IERC721-getApproved}."
      },
      "getBatchNFTData(uint256)": {
        "details": "Used in TCO2 contract's receive hook `onERC721Received`",
        "params": {
          "tokenId": "The token ID of the batch"
        },
        "returns": {
          "_0": "projectVintageTokenId The token ID of the vintage",
          "_1": "quantity Quantity in tCO2e",
          "_2": "status The status of the batch"
        }
      },
      "getComments(uint256)": {
        "details": "This is necessary because the automatically generated nftList getter will not include an array of comments in the returned tuple for gas reasons: https://docs.soliditylang.org/en/latest/contracts.html#visibility-and-getters"
      },
      "getConfirmationStatus(uint256)": {
        "params": {
          "tokenId": "The token ID of the batch"
        }
      },
      "getRoleAdmin(bytes32)": {
        "details": "Returns the admin role that controls `role`. See {grantRole} and {revokeRole}. To change a role's admin, use {_setRoleAdmin}."
      },
      "getSerialNumber(uint256)": {
        "params": {
          "tokenId": "The token ID of the batch"
        },
        "returns": {
          "_0": "The serial number of the batch"
        }
      },
      "grantRole(bytes32,address)": {
        "details": "Grants `role` to `account`. If `account` had not been already granted `role`, emits a {RoleGranted} event. Requirements: - the caller must have ``role``'s admin role."
      },
      "hasRole(bytes32,address)": {
        "details": "Returns `true` if `account` has been granted `role`."
      },
      "isApprovedForAll(address,address)": {
        "details": "See {IERC721-isApprovedForAll}."
      },
      "linkWithVintage(uint256,uint256)": {
        "details": "Function for alternative flow where Batch-NFT approval is done separately. Callable only by verifiers.",
        "params": {
          "projectVintageTokenId": "The token ID of the vintage",
          "tokenId": "The token ID of the batch"
        }
      },
      "mintEmptyBatch(address)": {
        "details": "To be updated by NFT owner after serial number has been provided",
        "params": {
          "to": "The address the NFT should be minted to. This should be the user."
        },
        "returns": {
          "_0": "The token ID of the newly minted NFT"
        }
      },
      "name()": {
        "details": "See {IERC721Metadata-name}."
      },
      "owner()": {
        "details": "Returns the address of the current owner."
      },
      "ownerOf(uint256)": {
        "details": "See {IERC721-ownerOf}."
      },
      "pause()": {
        "details": "wraps _pause(), callable only by the Toucan contract registry or the contract owner"
      },
      "paused()": {
        "details": "Returns true if the contract is paused, and false otherwise."
      },
      "proxiableUUID()": {
        "details": "Implementation of the ERC1822 {proxiableUUID} function. This returns the storage slot used by the implementation. It is used to validate that the this implementation remains valid after an upgrade. IMPORTANT: A proxy pointing at a proxiable contract should not be considered proxiable itself, because this risks bricking a proxy that upgrades to it, by delegating to itself until out of gas. Thus it is critical that this function revert if invoked through a proxy. This is guaranteed by the `notDelegated` modifier."
      },
      "rejectApprovedWithComment(uint256,string)": {
        "details": "admin function to reject a previously approved batch Requires that the Batch-NFT has not been fractionalized yet"
      },
      "rejectBatch(uint256)": {
        "details": "Callable only by verifiers, only for pending batches.",
        "params": {
          "tokenId": "The token ID of the batch"
        }
      },
      "renounceOwnership()": {
        "details": "Leaves the contract without owner. It will not be possible to call `onlyOwner` functions anymore. Can only be called by the current owner. NOTE: Renouncing ownership will leave the contract without an owner, thereby removing any functionality that is only available to the owner."
      },
      "renounceRole(bytes32,address)": {
        "details": "Revokes `role` from the calling account. Roles are often managed via {grantRole} and {revokeRole}: this function's purpose is to provide a mechanism for accounts to lose their privileges if they are compromised (such as when a trusted device is misplaced). If the calling account had been revoked `role`, emits a {RoleRevoked} event. Requirements: - the caller must be `account`."
      },
      "revokeRole(bytes32,address)": {
        "details": "Revokes `role` from `account`. If `account` had been granted `role`, emits a {RoleRevoked} event. Requirements: - the caller must have ``role``'s admin role."
      },
      "safeTransferFrom(address,address,uint256)": {
        "details": "See {IERC721-safeTransferFrom}."
      },
      "safeTransferFrom(address,address,uint256,bytes)": {
        "details": "See {IERC721-safeTransferFrom}."
      },
      "setApprovalForAll(address,bool)": {
        "details": "See {IERC721-setApprovalForAll}."
      },
      "setSerialandQuantity(uint256,string,uint256)": {
        "details": "Convenience function to only update serial number and quantity and not the serial/URI. Callable only by a verifier or the batch-NFT owner.",
        "params": {
          "newQuantity": "Quantity in tCO2e, greater than 0",
          "newSerialNumber": "The serial number received from the registry/credit cancellation",
          "tokenId": "The token ID of the batch"
        }
      },
      "setStatusForDetokenizationOrRetirement(uint256,uint8)": {
        "details": "Callable only by the escrow contract, only for batches owned by a TCO2 contract",
        "params": {
          "newStatus": "The new status to set",
          "tokenId": "The token ID of the batch"
        }
      },
      "setSupportedRegistry(string,bool)": {
        "details": "Callable only by the contract owner; executable only if the status can be changed",
        "params": {
          "isSupported": "Whether the registry should be supported",
          "registry": "The registry to set supported status for"
        }
      },
      "setToPending(uint256)": {
        "details": "Callable only by verifiers, only for rejected batches.",
        "params": {
          "tokenId": "The token ID of the batch"
        }
      },
      "setToucanContractRegistry(address)": {
        "details": "Callable only by the contract owner",
        "params": {
          "_address": "The address of the new contract registry"
        }
      },
      "split(uint256,string,string,uint256)": {
        "details": "Callable only by the escrow contract, only for batches with status RetirementRequested or DetokenizationRequested. The TCO2 contract will also be the owner of the new batch and its status will be the same as the old batch.",
        "params": {
          "newTokenIdQuantity": "The quantity for the new batch, must be smaller than the old quantity and greater than 0",
          "newTokenIdSerialNumber": "The serial number for the new batch",
          "tokenId": "The token ID of the batch to split",
          "tokenIdNewSerialNumber": "The new serial number for the old batch"
        },
        "returns": {
          "newTokenId": "The token ID of the new batch"
        }
      },
      "symbol()": {
        "details": "See {IERC721Metadata-symbol}."
      },
      "tokenByIndex(uint256)": {
        "details": "See {IERC721Enumerable-tokenByIndex}."
      },
      "tokenOfOwnerByIndex(address,uint256)": {
        "details": "See {IERC721Enumerable-tokenOfOwnerByIndex}."
      },
      "tokenURI(uint256)": {
        "details": "Returns the Uniform Resource Identifier (URI) for `tokenId` token. based on the ERC721URIStorage implementation"
      },
      "tokenize(address,string,uint256,uint256)": {
        "details": "Callable only by tokenizers. Performs the full tokenization process: minting a batch-NFT, linking it with a project vintage, setting the quantity and serial number, confirming the batch, and fractionalizing it. The TCO2s are then transferred to the recipient.",
        "params": {
          "projectVintageTokenId": "The token ID of the vintage",
          "quantity": "Quantity to be tokenized in 1e18 format, greater than 0",
          "recipient": "Recipient of the tokens",
          "serialNumber": "Serial number of the carbon credits to be tokenized"
        }
      },
      "totalSupply()": {
        "details": "See {IERC721Enumerable-totalSupply}."
      },
      "transferFrom(address,address,uint256)": {
        "details": "Overridden here because of function overloading issues with ethers.js"
      },
      "transferOwnership(address)": {
        "details": "Transfers ownership of the contract to a new account (`newOwner`). Can only be called by the current owner."
      },
      "unpause()": {
        "details": "wraps _unpause(), callable only by the Toucan contract registry or the contract owner"
      },
      "unsetSerialNumber(string)": {
        "details": "Function to remove uniqueness for previously set serialnumbers. Callable only by verifiers. N.B. even though (technically speaking) calling this to complete the upgrade to a fixed contract is the responsibility of the contract's owner (deployer), in practice that is a multi-sig even before upgrade, and unsetting a bunch of serials via multi-sig is not practical. So instead we allow the verifiers to do it.",
        "params": {
          "serialNumber": "The serial number to unset"
        }
      },
      "updateBatchWithData(uint256,string,uint256,string)": {
        "details": "Data is usually inserted by the user (NFT owner) via the UI. Callable only by verifiers or the batch-NFT owner.",
        "params": {
          "quantity": "Quantity in tCO2e, greater than 0",
          "serialNumber": "The serial number received from the registry/credit cancellation",
          "tokenId": "The token ID of the batch",
          "uri": "Optional tokenURI with additional information"
        }
      },
      "upgradeTo(address)": {
        "details": "Upgrade the implementation of the proxy to `newImplementation`. Calls {_authorizeUpgrade}. Emits an {Upgraded} event."
      },
      "upgradeToAndCall(address,bytes)": {
        "details": "Upgrade the implementation of the proxy to `newImplementation`, and subsequently execute the function call encoded in `data`. Calls {_authorizeUpgrade}. Emits an {Upgraded} event."
      }
    },
    "stateVariables": {
      "VERIFIER_ROLE": {
        "details": "All roles related to accessing this contract"
      },
      "VERSION": {
        "details": "Version-related parameters. VERSION keeps track of production releases. VERSION_RELEASE_CANDIDATE keeps track of iterations of a VERSION in our staging environment."
      }
    },
    "title": "A contract for managing batches of carbon credits",
    "version": 1
  },
  "userdoc": {
    "kind": "user",
    "methods": {
      "addComment(uint256,string)": {
        "notice": "Append a comment to a Batch-NFT"
      },
      "confirmBatch(uint256)": {
        "notice": "Function to approve a Batch-NFT after validation. Fractionalization requires status Confirmed."
      },
      "confirmBatchWithVintage(uint256,uint256)": {
        "notice": "Link with vintage and confirm Batch-NFT"
      },
      "fractionalize(uint256)": {
        "notice": "Automatically converts Batch-NFT to TCO2s (ERC20)"
      },
      "getBatchNFTData(uint256)": {
        "notice": "Returns all data for Batch-NFT"
      },
      "getConfirmationStatus(uint256)": {
        "notice": "Returns just the confirmation (approval) status of Batch-NFT"
      },
      "getSerialNumber(uint256)": {
        "notice": "Returns the serial number of a batch token id"
      },
      "linkWithVintage(uint256,uint256)": {
        "notice": "Link Batch-NFT with Vintage"
      },
      "mintEmptyBatch(address)": {
        "notice": "Permissionlessly mint empty Batch-NFTs Entry point to the carbon bridging process."
      },
      "pause()": {
        "notice": "Emergency function to disable contract's core functionality"
      },
      "rejectBatch(uint256)": {
        "notice": "Reject Batch-NFTs, e.g. if the serial number entered is incorrect."
      },
      "rejectWithComment(uint256,string)": {
        "notice": "Function to reject Batch-NFTs, including a reason to be displayed to the user."
      },
      "setSerialandQuantity(uint256,string,uint256)": {
        "notice": "Update batch-NFT with serial number and quantity only"
      },
      "setStatusForDetokenizationOrRetirement(uint256,uint8)": {
        "notice": "Set the status of a batch to a new status for detokenization or retirement requests. Valid transitions: - In case a user makes a request:   - Confirmed -> DetokenizationRequested   - Confirmed -> RetirementRequested - In case a DETOKENIZER_ROLE in TCO2 finalizes a request:   - DetokenizationRequested -> DetokenizationFinalized   - RetirementRequested -> RetirementFinalized - In case a DETOKENIZER_ROLE in TCO2 reverts a request:   - DetokenizationRequested -> Confirmed   - RetirementRequested -> Confirmed"
      },
      "setSupportedRegistry(string,bool)": {
        "notice": "Admin function to set whether a registry is supported"
      },
      "setToPending(uint256)": {
        "notice": "Set batches back to pending after a rejection. This can be useful if there was an issue unrelated to the on-chain data of the batch, e.g. the batch was incorrectly rejected."
      },
      "setToucanContractRegistry(address)": {
        "notice": "Admin function to set the contract registry"
      },
      "split(uint256,string,string,uint256)": {
        "notice": "Split a batch-NFT into two batch-NFTs, by creating a new batch-NFT and updating the old one. The old batch will have a new serial number and quantity will be reduced by the quantity of the new batch."
      },
      "tokenize(address,string,uint256,uint256)": {
        "notice": "This function allows external APIs to tokenize their carbon credits"
      },
      "unpause()": {
        "notice": "Emergency function to re-enable contract's core functionality after being paused"
      },
      "unsetSerialNumber(string)": {
        "notice": "Remove a previously approved serial number"
      },
      "updateBatchWithData(uint256,string,uint256,string)": {
        "notice": "Update Batch-NFT after Serialnumber has been verified"
      }
    },
    "notice": "Also referred to as Batch-Contract (formerly BatchCollection) Contract that tokenizes retired/cancelled CO2 credits into NFTs via a claims process",
    "version": 1
  },
  "storageLayout": {
    "storage": [
      {
        "astId": 2390,
        "contract": "contracts/CarbonOffsetBatches.sol:CarbonOffsetBatches",
        "label": "_initialized",
        "offset": 0,
        "slot": "0",
        "type": "t_uint8"
      },
      {
        "astId": 2393,
        "contract": "contracts/CarbonOffsetBatches.sol:CarbonOffsetBatches",
        "label": "_initializing",
        "offset": 1,
        "slot": "0",
        "type": "t_bool"
      },
      {
        "astId": 5494,
        "contract": "contracts/CarbonOffsetBatches.sol:CarbonOffsetBatches",
        "label": "__gap",
        "offset": 0,
        "slot": "1",
        "type": "t_array(t_uint256)50_storage"
      },
      {
        "astId": 5801,
        "contract": "contracts/CarbonOffsetBatches.sol:CarbonOffsetBatches",
        "label": "__gap",
        "offset": 0,
        "slot": "51",
        "type": "t_array(t_uint256)50_storage"
      },
      {
        "astId": 3798,
        "contract": "contracts/CarbonOffsetBatches.sol:CarbonOffsetBatches",
        "label": "_name",
        "offset": 0,
        "slot": "101",
        "type": "t_string_storage"
      },
      {
        "astId": 3800,
        "contract": "contracts/CarbonOffsetBatches.sol:CarbonOffsetBatches",
        "label": "_symbol",
        "offset": 0,
        "slot": "102",
        "type": "t_string_storage"
      },
      {
        "astId": 3804,
        "contract": "contracts/CarbonOffsetBatches.sol:CarbonOffsetBatches",
        "label": "_owners",
        "offset": 0,
        "slot": "103",
        "type": "t_mapping(t_uint256,t_address)"
      },
      {
        "astId": 3808,
        "contract": "contracts/CarbonOffsetBatches.sol:CarbonOffsetBatches",
        "label": "_balances",
        "offset": 0,
        "slot": "104",
        "type": "t_mapping(t_address,t_uint256)"
      },
      {
        "astId": 3812,
        "contract": "contracts/CarbonOffsetBatches.sol:CarbonOffsetBatches",
        "label": "_tokenApprovals",
        "offset": 0,
        "slot": "105",
        "type": "t_mapping(t_uint256,t_address)"
      },
      {
        "astId": 3818,
        "contract": "contracts/CarbonOffsetBatches.sol:CarbonOffsetBatches",
        "label": "_operatorApprovals",
        "offset": 0,
        "slot": "106",
        "type": "t_mapping(t_address,t_mapping(t_address,t_bool))"
      },
      {
        "astId": 4659,
        "contract": "contracts/CarbonOffsetBatches.sol:CarbonOffsetBatches",
        "label": "__gap",
        "offset": 0,
        "slot": "107",
        "type": "t_array(t_uint256)44_storage"
      },
      {
        "astId": 4824,
        "contract": "contracts/CarbonOffsetBatches.sol:CarbonOffsetBatches",
        "label": "_ownedTokens",
        "offset": 0,
        "slot": "151",
        "type": "t_mapping(t_address,t_mapping(t_uint256,t_uint256))"
      },
      {
        "astId": 4828,
        "contract": "contracts/CarbonOffsetBatches.sol:CarbonOffsetBatches",
        "label": "_ownedTokensIndex",
        "offset": 0,
        "slot": "152",
        "type": "t_mapping(t_uint256,t_uint256)"
      },
      {
        "astId": 4831,
        "contract": "contracts/CarbonOffsetBatches.sol:CarbonOffsetBatches",
        "label": "_allTokens",
        "offset": 0,
        "slot": "153",
        "type": "t_array(t_uint256)dyn_storage"
      },
      {
        "astId": 4835,
        "contract": "contracts/CarbonOffsetBatches.sol:CarbonOffsetBatches",
        "label": "_allTokensIndex",
        "offset": 0,
        "slot": "154",
        "type": "t_mapping(t_uint256,t_uint256)"
      },
      {
        "astId": 5151,
        "contract": "contracts/CarbonOffsetBatches.sol:CarbonOffsetBatches",
        "label": "__gap",
        "offset": 0,
        "slot": "155",
        "type": "t_array(t_uint256)46_storage"
      },
      {
        "astId": 1881,
        "contract": "contracts/CarbonOffsetBatches.sol:CarbonOffsetBatches",
        "label": "_owner",
        "offset": 0,
        "slot": "201",
        "type": "t_address"
      },
      {
        "astId": 1993,
        "contract": "contracts/CarbonOffsetBatches.sol:CarbonOffsetBatches",
        "label": "__gap",
        "offset": 0,
        "slot": "202",
        "type": "t_array(t_uint256)49_storage"
      },
      {
        "astId": 2682,
        "contract": "contracts/CarbonOffsetBatches.sol:CarbonOffsetBatches",
        "label": "_paused",
        "offset": 0,
        "slot": "251",
        "type": "t_bool"
      },
      {
        "astId": 2771,
        "contract": "contracts/CarbonOffsetBatches.sol:CarbonOffsetBatches",
        "label": "__gap",
        "offset": 0,
        "slot": "252",
        "type": "t_array(t_uint256)49_storage"
      },
      {
        "astId": 1497,
        "contract": "contracts/CarbonOffsetBatches.sol:CarbonOffsetBatches",
        "label": "_roles",
        "offset": 0,
        "slot": "301",
        "type": "t_mapping(t_bytes32,t_struct(RoleData)1492_storage)"
      },
      {
        "astId": 1796,
        "contract": "contracts/CarbonOffsetBatches.sol:CarbonOffsetBatches",
        "label": "__gap",
        "offset": 0,
        "slot": "302",
        "type": "t_array(t_uint256)49_storage"
      },
      {
        "astId": 2372,
        "contract": "contracts/CarbonOffsetBatches.sol:CarbonOffsetBatches",
        "label": "__gap",
        "offset": 0,
        "slot": "351",
        "type": "t_array(t_uint256)50_storage"
      },
      {
        "astId": 2660,
        "contract": "contracts/CarbonOffsetBatches.sol:CarbonOffsetBatches",
        "label": "__gap",
        "offset": 0,
        "slot": "401",
        "type": "t_array(t_uint256)50_storage"
      },
      {
        "astId": 10119,
        "contract": "contracts/CarbonOffsetBatches.sol:CarbonOffsetBatches",
        "label": "batchTokenCounter",
        "offset": 0,
        "slot": "451",
        "type": "t_uint256"
      },
      {
        "astId": 10124,
        "contract": "contracts/CarbonOffsetBatches.sol:CarbonOffsetBatches",
        "label": "serialNumberApproved",
        "offset": 0,
        "slot": "452",
        "type": "t_mapping(t_string_memory_ptr,t_bool)"
      },
      {
        "astId": 10128,
        "contract": "contracts/CarbonOffsetBatches.sol:CarbonOffsetBatches",
        "label": "DEPRECATED_URIs",
        "offset": 0,
        "slot": "453",
        "type": "t_mapping(t_string_memory_ptr,t_bool)"
      },
      {
        "astId": 10132,
        "contract": "contracts/CarbonOffsetBatches.sol:CarbonOffsetBatches",
        "label": "DEPRECATED_VERIFIERS",
        "offset": 0,
        "slot": "454",
        "type": "t_mapping(t_address,t_bool)"
      },
      {
        "astId": 10134,
        "contract": "contracts/CarbonOffsetBatches.sol:CarbonOffsetBatches",
        "label": "baseURI",
        "offset": 0,
        "slot": "455",
        "type": "t_string_storage"
      },
      {
        "astId": 10136,
        "contract": "contracts/CarbonOffsetBatches.sol:CarbonOffsetBatches",
        "label": "contractRegistry",
        "offset": 0,
        "slot": "456",
        "type": "t_address"
      },
      {
        "astId": 10159,
        "contract": "contracts/CarbonOffsetBatches.sol:CarbonOffsetBatches",
        "label": "nftList",
        "offset": 0,
        "slot": "457",
        "type": "t_mapping(t_uint256,t_struct(NFTData)10154_storage)"
      },
      {
        "astId": 10164,
        "contract": "contracts/CarbonOffsetBatches.sol:CarbonOffsetBatches",
        "label": "supportedRegistries",
        "offset": 0,
        "slot": "458",
        "type": "t_mapping(t_string_memory_ptr,t_bool)"
      }
    ],
    "types": {
      "t_address": {
        "encoding": "inplace",
        "label": "address",
        "numberOfBytes": "20"
      },
      "t_array(t_address)dyn_storage": {
        "base": "t_address",
        "encoding": "dynamic_array",
        "label": "address[]",
        "numberOfBytes": "32"
      },
      "t_array(t_string_storage)dyn_storage": {
        "base": "t_string_storage",
        "encoding": "dynamic_array",
        "label": "string[]",
        "numberOfBytes": "32"
      },
      "t_array(t_uint256)44_storage": {
        "base": "t_uint256",
        "encoding": "inplace",
        "label": "uint256[44]",
        "numberOfBytes": "1408"
      },
      "t_array(t_uint256)46_storage": {
        "base": "t_uint256",
        "encoding": "inplace",
        "label": "uint256[46]",
        "numberOfBytes": "1472"
      },
      "t_array(t_uint256)49_storage": {
        "base": "t_uint256",
        "encoding": "inplace",
        "label": "uint256[49]",
        "numberOfBytes": "1568"
      },
      "t_array(t_uint256)50_storage": {
        "base": "t_uint256",
        "encoding": "inplace",
        "label": "uint256[50]",
        "numberOfBytes": "1600"
      },
      "t_array(t_uint256)dyn_storage": {
        "base": "t_uint256",
        "encoding": "dynamic_array",
        "label": "uint256[]",
        "numberOfBytes": "32"
      },
      "t_bool": {
        "encoding": "inplace",
        "label": "bool",
        "numberOfBytes": "1"
      },
      "t_bytes32": {
        "encoding": "inplace",
        "label": "bytes32",
        "numberOfBytes": "32"
      },
      "t_enum(BatchStatus)10180": {
        "encoding": "inplace",
        "label": "enum BatchStatus",
        "numberOfBytes": "1"
      },
      "t_mapping(t_address,t_bool)": {
        "encoding": "mapping",
        "key": "t_address",
        "label": "mapping(address => bool)",
        "numberOfBytes": "32",
        "value": "t_bool"
      },
      "t_mapping(t_address,t_mapping(t_address,t_bool))": {
        "encoding": "mapping",
        "key": "t_address",
        "label": "mapping(address => mapping(address => bool))",
        "numberOfBytes": "32",
        "value": "t_mapping(t_address,t_bool)"
      },
      "t_mapping(t_address,t_mapping(t_uint256,t_uint256))": {
        "encoding": "mapping",
        "key": "t_address",
        "label": "mapping(address => mapping(uint256 => uint256))",
        "numberOfBytes": "32",
        "value": "t_mapping(t_uint256,t_uint256)"
      },
      "t_mapping(t_address,t_uint256)": {
        "encoding": "mapping",
        "key": "t_address",
        "label": "mapping(address => uint256)",
        "numberOfBytes": "32",
        "value": "t_uint256"
      },
      "t_mapping(t_bytes32,t_struct(RoleData)1492_storage)": {
        "encoding": "mapping",
        "key": "t_bytes32",
        "label": "mapping(bytes32 => struct AccessControlUpgradeable.RoleData)",
        "numberOfBytes": "32",
        "value": "t_struct(RoleData)1492_storage"
      },
      "t_mapping(t_string_memory_ptr,t_bool)": {
        "encoding": "mapping",
        "key": "t_string_memory_ptr",
        "label": "mapping(string => bool)",
        "numberOfBytes": "32",
        "value": "t_bool"
      },
      "t_mapping(t_uint256,t_address)": {
        "encoding": "mapping",
        "key": "t_uint256",
        "label": "mapping(uint256 => address)",
        "numberOfBytes": "32",
        "value": "t_address"
      },
      "t_mapping(t_uint256,t_struct(NFTData)10154_storage)": {
        "encoding": "mapping",
        "key": "t_uint256",
        "label": "mapping(uint256 => struct CarbonOffsetBatchesStorageV1.NFTData)",
        "numberOfBytes": "32",
        "value": "t_struct(NFTData)10154_storage"
      },
      "t_mapping(t_uint256,t_uint256)": {
        "encoding": "mapping",
        "key": "t_uint256",
        "label": "mapping(uint256 => uint256)",
        "numberOfBytes": "32",
        "value": "t_uint256"
      },
      "t_string_memory_ptr": {
        "encoding": "bytes",
        "label": "string",
        "numberOfBytes": "32"
      },
      "t_string_storage": {
        "encoding": "bytes",
        "label": "string",
        "numberOfBytes": "32"
      },
      "t_struct(NFTData)10154_storage": {
        "encoding": "inplace",
        "label": "struct CarbonOffsetBatchesStorageV1.NFTData",
        "members": [
          {
            "astId": 10138,
            "contract": "contracts/CarbonOffsetBatches.sol:CarbonOffsetBatches",
            "label": "projectVintageTokenId",
            "offset": 0,
            "slot": "0",
            "type": "t_uint256"
          },
          {
            "astId": 10140,
            "contract": "contracts/CarbonOffsetBatches.sol:CarbonOffsetBatches",
            "label": "serialNumber",
            "offset": 0,
            "slot": "1",
            "type": "t_string_storage"
          },
          {
            "astId": 10142,
            "contract": "contracts/CarbonOffsetBatches.sol:CarbonOffsetBatches",
            "label": "quantity",
            "offset": 0,
            "slot": "2",
            "type": "t_uint256"
          },
          {
            "astId": 10145,
            "contract": "contracts/CarbonOffsetBatches.sol:CarbonOffsetBatches",
            "label": "status",
            "offset": 0,
            "slot": "3",
            "type": "t_enum(BatchStatus)10180"
          },
          {
            "astId": 10147,
            "contract": "contracts/CarbonOffsetBatches.sol:CarbonOffsetBatches",
            "label": "uri",
            "offset": 0,
            "slot": "4",
            "type": "t_string_storage"
          },
          {
            "astId": 10150,
            "contract": "contracts/CarbonOffsetBatches.sol:CarbonOffsetBatches",
            "label": "comments",
            "offset": 0,
            "slot": "5",
            "type": "t_array(t_string_storage)dyn_storage"
          },
          {
            "astId": 10153,
            "contract": "contracts/CarbonOffsetBatches.sol:CarbonOffsetBatches",
            "label": "commentAuthors",
            "offset": 0,
            "slot": "6",
            "type": "t_array(t_address)dyn_storage"
          }
        ],
        "numberOfBytes": "224"
      },
      "t_struct(RoleData)1492_storage": {
        "encoding": "inplace",
        "label": "struct AccessControlUpgradeable.RoleData",
        "members": [
          {
            "astId": 1489,
            "contract": "contracts/CarbonOffsetBatches.sol:CarbonOffsetBatches",
            "label": "members",
            "offset": 0,
            "slot": "0",
            "type": "t_mapping(t_address,t_bool)"
          },
          {
            "astId": 1491,
            "contract": "contracts/CarbonOffsetBatches.sol:CarbonOffsetBatches",
            "label": "adminRole",
            "offset": 0,
            "slot": "1",
            "type": "t_bytes32"
          }
        ],
        "numberOfBytes": "64"
      },
      "t_uint256": {
        "encoding": "inplace",
        "label": "uint256",
        "numberOfBytes": "32"
      },
      "t_uint8": {
        "encoding": "inplace",
        "label": "uint8",
        "numberOfBytes": "1"
      }
    }
  }
}