{
  "address": "0x82400Cb8A608E746D179c8Df12266544B0C8A48A",
  "abi": [
    {
      "inputs": [],
      "stateMutability": "nonpayable",
      "type": "constructor"
    },
    {
      "anonymous": false,
      "inputs": [
        {
          "indexed": false,
          "internalType": "address",
          "name": "previousAdmin",
          "type": "address"
        },
        {
          "indexed": false,
          "internalType": "address",
          "name": "newAdmin",
          "type": "address"
        }
      ],
      "name": "AdminChanged",
      "type": "event"
    },
    {
      "anonymous": false,
      "inputs": [
        {
          "indexed": true,
          "internalType": "address",
          "name": "owner",
          "type": "address"
        },
        {
          "indexed": true,
          "internalType": "address",
          "name": "approved",
          "type": "address"
        },
        {
          "indexed": true,
          "internalType": "uint256",
          "name": "tokenId",
          "type": "uint256"
        }
      ],
      "name": "Approval",
      "type": "event"
    },
    {
      "anonymous": false,
      "inputs": [
        {
          "indexed": true,
          "internalType": "address",
          "name": "owner",
          "type": "address"
        },
        {
          "indexed": true,
          "internalType": "address",
          "name": "operator",
          "type": "address"
        },
        {
          "indexed": false,
          "internalType": "bool",
          "name": "approved",
          "type": "bool"
        }
      ],
      "name": "ApprovalForAll",
      "type": "event"
    },
    {
      "anonymous": false,
      "inputs": [
        {
          "indexed": false,
          "internalType": "uint256",
          "name": "tokenId",
          "type": "uint256"
        },
        {
          "indexed": false,
          "internalType": "uint256",
          "name": "commentId",
          "type": "uint256"
        },
        {
          "indexed": false,
          "internalType": "address",
          "name": "sender",
          "type": "address"
        },
        {
          "indexed": false,
          "internalType": "string",
          "name": "comment",
          "type": "string"
        }
      ],
      "name": "BatchComment",
      "type": "event"
    },
    {
      "anonymous": false,
      "inputs": [
        {
          "indexed": false,
          "internalType": "uint256",
          "name": "tokenId",
          "type": "uint256"
        },
        {
          "indexed": false,
          "internalType": "uint256",
          "name": "projectVintageTokenId",
          "type": "uint256"
        }
      ],
      "name": "BatchLinkedWithVintage",
      "type": "event"
    },
    {
      "anonymous": false,
      "inputs": [
        {
          "indexed": false,
          "internalType": "address",
          "name": "sender",
          "type": "address"
        },
        {
          "indexed": false,
          "internalType": "uint256",
          "name": "tokenId",
          "type": "uint256"
        }
      ],
      "name": "BatchMinted",
      "type": "event"
    },
    {
      "anonymous": false,
      "inputs": [
        {
          "indexed": false,
          "internalType": "uint256",
          "name": "tokenId",
          "type": "uint256"
        },
        {
          "indexed": false,
          "internalType": "enum BatchStatus",
          "name": "status",
          "type": "uint8"
        }
      ],
      "name": "BatchStatusUpdate",
      "type": "event"
    },
    {
      "anonymous": false,
      "inputs": [
        {
          "indexed": false,
          "internalType": "uint256",
          "name": "tokenId",
          "type": "uint256"
        },
        {
          "indexed": false,
          "internalType": "string",
          "name": "serialNumber",
          "type": "string"
        },
        {
          "indexed": false,
          "internalType": "uint256",
          "name": "quantity",
          "type": "uint256"
        }
      ],
      "name": "BatchUpdated",
      "type": "event"
    },
    {
      "anonymous": false,
      "inputs": [
        {
          "indexed": true,
          "internalType": "address",
          "name": "beacon",
          "type": "address"
        }
      ],
      "name": "BeaconUpgraded",
      "type": "event"
    },
    {
      "anonymous": false,
      "inputs": [
        {
          "indexed": false,
          "internalType": "uint8",
          "name": "version",
          "type": "uint8"
        }
      ],
      "name": "Initialized",
      "type": "event"
    },
    {
      "anonymous": false,
      "inputs": [
        {
          "indexed": true,
          "internalType": "address",
          "name": "previousOwner",
          "type": "address"
        },
        {
          "indexed": true,
          "internalType": "address",
          "name": "newOwner",
          "type": "address"
        }
      ],
      "name": "OwnershipTransferred",
      "type": "event"
    },
    {
      "anonymous": false,
      "inputs": [
        {
          "indexed": false,
          "internalType": "address",
          "name": "account",
          "type": "address"
        }
      ],
      "name": "Paused",
      "type": "event"
    },
    {
      "anonymous": false,
      "inputs": [
        {
          "indexed": false,
          "internalType": "string",
          "name": "registry",
          "type": "string"
        },
        {
          "indexed": false,
          "internalType": "bool",
          "name": "isSupported",
          "type": "bool"
        }
      ],
      "name": "RegistrySupported",
      "type": "event"
    },
    {
      "anonymous": false,
      "inputs": [
        {
          "indexed": true,
          "internalType": "bytes32",
          "name": "role",
          "type": "bytes32"
        },
        {
          "indexed": true,
          "internalType": "bytes32",
          "name": "previousAdminRole",
          "type": "bytes32"
        },
        {
          "indexed": true,
          "internalType": "bytes32",
          "name": "newAdminRole",
          "type": "bytes32"
        }
      ],
      "name": "RoleAdminChanged",
      "type": "event"
    },
    {
      "anonymous": false,
      "inputs": [
        {
          "indexed": true,
          "internalType": "bytes32",
          "name": "role",
          "type": "bytes32"
        },
        {
          "indexed": true,
          "internalType": "address",
          "name": "account",
          "type": "address"
        },
        {
          "indexed": true,
          "internalType": "address",
          "name": "sender",
          "type": "address"
        }
      ],
      "name": "RoleGranted",
      "type": "event"
    },
    {
      "anonymous": false,
      "inputs": [
        {
          "indexed": true,
          "internalType": "bytes32",
          "name": "role",
          "type": "bytes32"
        },
        {
          "indexed": true,
          "internalType": "address",
          "name": "account",
          "type": "address"
        },
        {
          "indexed": true,
          "internalType": "address",
          "name": "sender",
          "type": "address"
        }
      ],
      "name": "RoleRevoked",
      "type": "event"
    },
    {
      "anonymous": false,
      "inputs": [
        {
          "indexed": false,
          "internalType": "uint256",
          "name": "tokenId",
          "type": "uint256"
        },
        {
          "indexed": false,
          "internalType": "address",
          "name": "tco2",
          "type": "address"
        },
        {
          "indexed": true,
          "internalType": "address",
          "name": "recipient",
          "type": "address"
        },
        {
          "indexed": false,
          "internalType": "uint256",
          "name": "amount",
          "type": "uint256"
        }
      ],
      "name": "Tokenized",
      "type": "event"
    },
    {
      "anonymous": false,
      "inputs": [
        {
          "indexed": true,
          "internalType": "address",
          "name": "from",
          "type": "address"
        },
        {
          "indexed": true,
          "internalType": "address",
          "name": "to",
          "type": "address"
        },
        {
          "indexed": true,
          "internalType": "uint256",
          "name": "tokenId",
          "type": "uint256"
        }
      ],
      "name": "Transfer",
      "type": "event"
    },
    {
      "anonymous": false,
      "inputs": [
        {
          "indexed": false,
          "internalType": "address",
          "name": "account",
          "type": "address"
        }
      ],
      "name": "Unpaused",
      "type": "event"
    },
    {
      "anonymous": false,
      "inputs": [
        {
          "indexed": true,
          "internalType": "address",
          "name": "implementation",
          "type": "address"
        }
      ],
      "name": "Upgraded",
      "type": "event"
    },
    {
      "inputs": [],
      "name": "DEFAULT_ADMIN_ROLE",
      "outputs": [
        {
          "internalType": "bytes32",
          "name": "",
          "type": "bytes32"
        }
      ],
      "stateMutability": "view",
      "type": "function"
    },
    {
      "inputs": [],
      "name": "TOKENIZER_ROLE",
      "outputs": [
        {
          "internalType": "bytes32",
          "name": "",
          "type": "bytes32"
        }
      ],
      "stateMutability": "view",
      "type": "function"
    },
    {
      "inputs": [],
      "name": "VERIFIER_ROLE",
      "outputs": [
        {
          "internalType": "bytes32",
          "name": "",
          "type": "bytes32"
        }
      ],
      "stateMutability": "view",
      "type": "function"
    },
    {
      "inputs": [],
      "name": "VERSION",
      "outputs": [
        {
          "internalType": "string",
          "name": "",
          "type": "string"
        }
      ],
      "stateMutability": "view",
      "type": "function"
    },
    {
      "inputs": [],
      "name": "VERSION_RELEASE_CANDIDATE",
      "outputs": [
        {
          "internalType": "uint256",
          "name": "",
          "type": "uint256"
        }
      ],
      "stateMutability": "view",
      "type": "function"
    },
    {
      "inputs": [
        {
          "internalType": "uint256",
          "name": "tokenId",
          "type": "uint256"
        },
        {
          "internalType": "string",
          "name": "comment",
          "type": "string"
        }
      ],
      "name": "addComment",
      "outputs": [],
      "stateMutability": "nonpayable",
      "type": "function"
    },
    {
      "inputs": [
        {
          "internalType": "address",
          "name": "to",
          "type": "address"
        },
        {
          "internalType": "uint256",
          "name": "tokenId",
          "type": "uint256"
        }
      ],
      "name": "approve",
      "outputs": [],
      "stateMutability": "nonpayable",
      "type": "function"
    },
    {
      "inputs": [
        {
          "internalType": "address",
          "name": "owner",
          "type": "address"
        }
      ],
      "name": "balanceOf",
      "outputs": [
        {
          "internalType": "uint256",
          "name": "",
          "type": "uint256"
        }
      ],
      "stateMutability": "view",
      "type": "function"
    },
    {
      "inputs": [],
      "name": "baseURI",
      "outputs": [
        {
          "internalType": "string",
          "name": "",
          "type": "string"
        }
      ],
      "stateMutability": "view",
      "type": "function"
    },
    {
      "inputs": [],
      "name": "batchTokenCounter",
      "outputs": [
        {
          "internalType": "uint256",
          "name": "",
          "type": "uint256"
        }
      ],
      "stateMutability": "view",
      "type": "function"
    },
    {
      "inputs": [
        {
          "internalType": "uint256",
          "name": "tokenId",
          "type": "uint256"
        }
      ],
      "name": "confirmBatch",
      "outputs": [],
      "stateMutability": "nonpayable",
      "type": "function"
    },
    {
      "inputs": [
        {
          "internalType": "uint256",
          "name": "tokenId",
          "type": "uint256"
        },
        {
          "internalType": "uint256",
          "name": "projectVintageTokenId",
          "type": "uint256"
        }
      ],
      "name": "confirmBatchWithVintage",
      "outputs": [],
      "stateMutability": "nonpayable",
      "type": "function"
    },
    {
      "inputs": [],
      "name": "contractRegistry",
      "outputs": [
        {
          "internalType": "address",
          "name": "",
          "type": "address"
        }
      ],
      "stateMutability": "view",
      "type": "function"
    },
    {
      "inputs": [
        {
          "internalType": "uint256",
          "name": "tokenId",
          "type": "uint256"
        }
      ],
      "name": "fractionalize",
      "outputs": [],
      "stateMutability": "nonpayable",
      "type": "function"
    },
    {
      "inputs": [
        {
          "internalType": "uint256",
          "name": "tokenId",
          "type": "uint256"
        }
      ],
      "name": "getApproved",
      "outputs": [
        {
          "internalType": "address",
          "name": "",
          "type": "address"
        }
      ],
      "stateMutability": "view",
      "type": "function"
    },
    {
      "inputs": [
        {
          "internalType": "uint256",
          "name": "tokenId",
          "type": "uint256"
        }
      ],
      "name": "getBatchNFTData",
      "outputs": [
        {
          "internalType": "uint256",
          "name": "",
          "type": "uint256"
        },
        {
          "internalType": "uint256",
          "name": "",
          "type": "uint256"
        },
        {
          "internalType": "enum BatchStatus",
          "name": "",
          "type": "uint8"
        }
      ],
      "stateMutability": "view",
      "type": "function"
    },
    {
      "inputs": [
        {
          "internalType": "uint256",
          "name": "tokenId",
          "type": "uint256"
        }
      ],
      "name": "getComments",
      "outputs": [
        {
          "internalType": "string[]",
          "name": "",
          "type": "string[]"
        },
        {
          "internalType": "address[]",
          "name": "",
          "type": "address[]"
        }
      ],
      "stateMutability": "view",
      "type": "function"
    },
    {
      "inputs": [
        {
          "internalType": "uint256",
          "name": "tokenId",
          "type": "uint256"
        }
      ],
      "name": "getConfirmationStatus",
      "outputs": [
        {
          "internalType": "enum BatchStatus",
          "name": "",
          "type": "uint8"
        }
      ],
      "stateMutability": "view",
      "type": "function"
    },
    {
      "inputs": [
        {
          "internalType": "bytes32",
          "name": "role",
          "type": "bytes32"
        }
      ],
      "name": "getRoleAdmin",
      "outputs": [
        {
          "internalType": "bytes32",
          "name": "",
          "type": "bytes32"
        }
      ],
      "stateMutability": "view",
      "type": "function"
    },
    {
      "inputs": [
        {
          "internalType": "bytes32",
          "name": "role",
          "type": "bytes32"
        },
        {
          "internalType": "address",
          "name": "account",
          "type": "address"
        }
      ],
      "name": "grantRole",
      "outputs": [],
      "stateMutability": "nonpayable",
      "type": "function"
    },
    {
      "inputs": [
        {
          "internalType": "bytes32",
          "name": "role",
          "type": "bytes32"
        },
        {
          "internalType": "address",
          "name": "account",
          "type": "address"
        }
      ],
      "name": "hasRole",
      "outputs": [
        {
          "internalType": "bool",
          "name": "",
          "type": "bool"
        }
      ],
      "stateMutability": "view",
      "type": "function"
    },
    {
      "inputs": [
        {
          "internalType": "address",
          "name": "_contractRegistry",
          "type": "address"
        }
      ],
      "name": "initialize",
      "outputs": [],
      "stateMutability": "nonpayable",
      "type": "function"
    },
    {
      "inputs": [
        {
          "internalType": "address",
          "name": "owner",
          "type": "address"
        },
        {
          "internalType": "address",
          "name": "operator",
          "type": "address"
        }
      ],
      "name": "isApprovedForAll",
      "outputs": [
        {
          "internalType": "bool",
          "name": "",
          "type": "bool"
        }
      ],
      "stateMutability": "view",
      "type": "function"
    },
    {
      "inputs": [
        {
          "internalType": "uint256",
          "name": "tokenId",
          "type": "uint256"
        },
        {
          "internalType": "uint256",
          "name": "projectVintageTokenId",
          "type": "uint256"
        }
      ],
      "name": "linkWithVintage",
      "outputs": [],
      "stateMutability": "nonpayable",
      "type": "function"
    },
    {
      "inputs": [
        {
          "internalType": "address",
          "name": "to",
          "type": "address"
        }
      ],
      "name": "mintEmptyBatch",
      "outputs": [
        {
          "internalType": "uint256",
          "name": "",
          "type": "uint256"
        }
      ],
      "stateMutability": "nonpayable",
      "type": "function"
    },
    {
      "inputs": [],
      "name": "name",
      "outputs": [
        {
          "internalType": "string",
          "name": "",
          "type": "string"
        }
      ],
      "stateMutability": "view",
      "type": "function"
    },
    {
      "inputs": [
        {
          "internalType": "uint256",
          "name": "",
          "type": "uint256"
        }
      ],
      "name": "nftList",
      "outputs": [
        {
          "internalType": "uint256",
          "name": "projectVintageTokenId",
          "type": "uint256"
        },
        {
          "internalType": "string",
          "name": "serialNumber",
          "type": "string"
        },
        {
          "internalType": "uint256",
          "name": "quantity",
          "type": "uint256"
        },
        {
          "internalType": "enum BatchStatus",
          "name": "status",
          "type": "uint8"
        },
        {
          "internalType": "string",
          "name": "uri",
          "type": "string"
        }
      ],
      "stateMutability": "view",
      "type": "function"
    },
    {
      "inputs": [
        {
          "internalType": "address",
          "name": "",
          "type": "address"
        },
        {
          "internalType": "address",
          "name": "from",
          "type": "address"
        },
        {
          "internalType": "uint256",
          "name": "",
          "type": "uint256"
        },
        {
          "internalType": "bytes",
          "name": "",
          "type": "bytes"
        }
      ],
      "name": "onERC721Received",
      "outputs": [
        {
          "internalType": "bytes4",
          "name": "",
          "type": "bytes4"
        }
      ],
      "stateMutability": "view",
      "type": "function"
    },
    {
      "inputs": [],
      "name": "owner",
      "outputs": [
        {
          "internalType": "address",
          "name": "",
          "type": "address"
        }
      ],
      "stateMutability": "view",
      "type": "function"
    },
    {
      "inputs": [
        {
          "internalType": "uint256",
          "name": "tokenId",
          "type": "uint256"
        }
      ],
      "name": "ownerOf",
      "outputs": [
        {
          "internalType": "address",
          "name": "",
          "type": "address"
        }
      ],
      "stateMutability": "view",
      "type": "function"
    },
    {
      "inputs": [],
      "name": "pause",
      "outputs": [],
      "stateMutability": "nonpayable",
      "type": "function"
    },
    {
      "inputs": [],
      "name": "paused",
      "outputs": [
        {
          "internalType": "bool",
          "name": "",
          "type": "bool"
        }
      ],
      "stateMutability": "view",
      "type": "function"
    },
    {
      "inputs": [],
      "name": "proxiableUUID",
      "outputs": [
        {
          "internalType": "bytes32",
          "name": "",
          "type": "bytes32"
        }
      ],
      "stateMutability": "view",
      "type": "function"
    },
    {
      "inputs": [
        {
          "internalType": "uint256",
          "name": "tokenId",
          "type": "uint256"
        },
        {
          "internalType": "string",
          "name": "comment",
          "type": "string"
        }
      ],
      "name": "rejectApprovedWithComment",
      "outputs": [],
      "stateMutability": "nonpayable",
      "type": "function"
    },
    {
      "inputs": [
        {
          "internalType": "uint256",
          "name": "tokenId",
          "type": "uint256"
        }
      ],
      "name": "rejectRetirement",
      "outputs": [],
      "stateMutability": "nonpayable",
      "type": "function"
    },
    {
      "inputs": [
        {
          "internalType": "uint256",
          "name": "tokenId",
          "type": "uint256"
        },
        {
          "internalType": "string",
          "name": "comment",
          "type": "string"
        }
      ],
      "name": "rejectWithComment",
      "outputs": [],
      "stateMutability": "nonpayable",
      "type": "function"
    },
    {
      "inputs": [],
      "name": "renounceOwnership",
      "outputs": [],
      "stateMutability": "nonpayable",
      "type": "function"
    },
    {
      "inputs": [
        {
          "internalType": "bytes32",
          "name": "role",
          "type": "bytes32"
        },
        {
          "internalType": "address",
          "name": "account",
          "type": "address"
        }
      ],
      "name": "renounceRole",
      "outputs": [],
      "stateMutability": "nonpayable",
      "type": "function"
    },
    {
      "inputs": [
        {
          "internalType": "bytes32",
          "name": "role",
          "type": "bytes32"
        },
        {
          "internalType": "address",
          "name": "account",
          "type": "address"
        }
      ],
      "name": "revokeRole",
      "outputs": [],
      "stateMutability": "nonpayable",
      "type": "function"
    },
    {
      "inputs": [
        {
          "internalType": "address",
          "name": "from",
          "type": "address"
        },
        {
          "internalType": "address",
          "name": "to",
          "type": "address"
        },
        {
          "internalType": "uint256",
          "name": "tokenId",
          "type": "uint256"
        }
      ],
      "name": "safeTransferFrom",
      "outputs": [],
      "stateMutability": "nonpayable",
      "type": "function"
    },
    {
      "inputs": [
        {
          "internalType": "address",
          "name": "from",
          "type": "address"
        },
        {
          "internalType": "address",
          "name": "to",
          "type": "address"
        },
        {
          "internalType": "uint256",
          "name": "tokenId",
          "type": "uint256"
        },
        {
          "internalType": "bytes",
          "name": "_data",
          "type": "bytes"
        }
      ],
      "name": "safeTransferFrom",
      "outputs": [],
      "stateMutability": "nonpayable",
      "type": "function"
    },
    {
      "inputs": [
        {
          "internalType": "string",
          "name": "",
          "type": "string"
        }
      ],
      "name": "serialNumberApproved",
      "outputs": [
        {
          "internalType": "bool",
          "name": "",
          "type": "bool"
        }
      ],
      "stateMutability": "view",
      "type": "function"
    },
    {
      "inputs": [
        {
          "internalType": "address",
          "name": "operator",
          "type": "address"
        },
        {
          "internalType": "bool",
          "name": "approved",
          "type": "bool"
        }
      ],
      "name": "setApprovalForAll",
      "outputs": [],
      "stateMutability": "nonpayable",
      "type": "function"
    },
    {
      "inputs": [
        {
          "internalType": "string",
          "name": "gateway",
          "type": "string"
        }
      ],
      "name": "setBaseURI",
      "outputs": [],
      "stateMutability": "nonpayable",
      "type": "function"
    },
    {
      "inputs": [
        {
          "internalType": "uint256",
          "name": "tokenId",
          "type": "uint256"
        },
        {
          "internalType": "string",
          "name": "newSerialNumber",
          "type": "string"
        },
        {
          "internalType": "uint256",
          "name": "newQuantity",
          "type": "uint256"
        }
      ],
      "name": "setSerialandQuantity",
      "outputs": [],
      "stateMutability": "nonpayable",
      "type": "function"
    },
    {
      "inputs": [
        {
          "internalType": "uint256",
          "name": "tokenId",
          "type": "uint256"
        },
        {
          "internalType": "enum BatchStatus",
          "name": "newStatus",
          "type": "uint8"
        }
      ],
      "name": "setStatusForDetokenizationOrRetirement",
      "outputs": [],
      "stateMutability": "nonpayable",
      "type": "function"
    },
    {
      "inputs": [
        {
          "internalType": "string",
          "name": "registry",
          "type": "string"
        },
        {
          "internalType": "bool",
          "name": "isSupported",
          "type": "bool"
        }
      ],
      "name": "setSupportedRegistry",
      "outputs": [],
      "stateMutability": "nonpayable",
      "type": "function"
    },
    {
      "inputs": [
        {
          "internalType": "uint256",
          "name": "tokenId",
          "type": "uint256"
        }
      ],
      "name": "setToPending",
      "outputs": [],
      "stateMutability": "nonpayable",
      "type": "function"
    },
    {
      "inputs": [
        {
          "internalType": "address",
          "name": "_address",
          "type": "address"
        }
      ],
      "name": "setToucanContractRegistry",
      "outputs": [],
      "stateMutability": "nonpayable",
      "type": "function"
    },
    {
      "inputs": [
        {
          "internalType": "string",
          "name": "",
          "type": "string"
        }
      ],
      "name": "supportedRegistries",
      "outputs": [
        {
          "internalType": "bool",
          "name": "",
          "type": "bool"
        }
      ],
      "stateMutability": "view",
      "type": "function"
    },
    {
      "inputs": [
        {
          "internalType": "bytes4",
          "name": "interfaceId",
          "type": "bytes4"
        }
      ],
      "name": "supportsInterface",
      "outputs": [
        {
          "internalType": "bool",
          "name": "",
          "type": "bool"
        }
      ],
      "stateMutability": "view",
      "type": "function"
    },
    {
      "inputs": [],
      "name": "symbol",
      "outputs": [
        {
          "internalType": "string",
          "name": "",
          "type": "string"
        }
      ],
      "stateMutability": "view",
      "type": "function"
    },
    {
      "inputs": [
        {
          "internalType": "uint256",
          "name": "index",
          "type": "uint256"
        }
      ],
      "name": "tokenByIndex",
      "outputs": [
        {
          "internalType": "uint256",
          "name": "",
          "type": "uint256"
        }
      ],
      "stateMutability": "view",
      "type": "function"
    },
    {
      "inputs": [
        {
          "internalType": "address",
          "name": "owner",
          "type": "address"
        },
        {
          "internalType": "uint256",
          "name": "index",
          "type": "uint256"
        }
      ],
      "name": "tokenOfOwnerByIndex",
      "outputs": [
        {
          "internalType": "uint256",
          "name": "",
          "type": "uint256"
        }
      ],
      "stateMutability": "view",
      "type": "function"
    },
    {
      "inputs": [
        {
          "internalType": "uint256",
          "name": "tokenId",
          "type": "uint256"
        }
      ],
      "name": "tokenURI",
      "outputs": [
        {
          "internalType": "string",
          "name": "",
          "type": "string"
        }
      ],
      "stateMutability": "view",
      "type": "function"
    },
    {
      "inputs": [
        {
          "internalType": "address",
          "name": "recipient",
          "type": "address"
        },
        {
          "internalType": "string",
          "name": "serialNumber",
          "type": "string"
        },
        {
          "internalType": "uint256",
          "name": "quantity",
          "type": "uint256"
        },
        {
          "internalType": "uint256",
          "name": "projectVintageTokenId",
          "type": "uint256"
        }
      ],
      "name": "tokenize",
      "outputs": [],
      "stateMutability": "nonpayable",
      "type": "function"
    },
    {
      "inputs": [],
      "name": "totalSupply",
      "outputs": [
        {
          "internalType": "uint256",
          "name": "",
          "type": "uint256"
        }
      ],
      "stateMutability": "view",
      "type": "function"
    },
    {
      "inputs": [
        {
          "internalType": "address",
          "name": "from",
          "type": "address"
        },
        {
          "internalType": "address",
          "name": "to",
          "type": "address"
        },
        {
          "internalType": "uint256",
          "name": "tokenId",
          "type": "uint256"
        }
      ],
      "name": "transferFrom",
      "outputs": [],
      "stateMutability": "nonpayable",
      "type": "function"
    },
    {
      "inputs": [
        {
          "internalType": "address",
          "name": "newOwner",
          "type": "address"
        }
      ],
      "name": "transferOwnership",
      "outputs": [],
      "stateMutability": "nonpayable",
      "type": "function"
    },
    {
      "inputs": [],
      "name": "unpause",
      "outputs": [],
      "stateMutability": "nonpayable",
      "type": "function"
    },
    {
      "inputs": [
        {
          "internalType": "string",
          "name": "serialNumber",
          "type": "string"
        }
      ],
      "name": "unsetSerialNumber",
      "outputs": [],
      "stateMutability": "nonpayable",
      "type": "function"
    },
    {
      "inputs": [
        {
          "internalType": "uint256",
          "name": "tokenId",
          "type": "uint256"
        },
        {
          "internalType": "string",
          "name": "serialNumber",
          "type": "string"
        },
        {
          "internalType": "uint256",
          "name": "quantity",
          "type": "uint256"
        },
        {
          "internalType": "string",
          "name": "uri",
          "type": "string"
        }
      ],
      "name": "updateBatchWithData",
      "outputs": [],
      "stateMutability": "nonpayable",
      "type": "function"
    },
    {
      "inputs": [
        {
          "internalType": "address",
          "name": "newImplementation",
          "type": "address"
        }
      ],
      "name": "upgradeTo",
      "outputs": [],
      "stateMutability": "nonpayable",
      "type": "function"
    },
    {
      "inputs": [
        {
          "internalType": "address",
          "name": "newImplementation",
          "type": "address"
        },
        {
          "internalType": "bytes",
          "name": "data",
          "type": "bytes"
        }
      ],
      "name": "upgradeToAndCall",
      "outputs": [],
      "stateMutability": "payable",
      "type": "function"
    },
    {
      "inputs": [
        {
          "internalType": "address",
          "name": "",
          "type": "address"
        }
      ],
      "name": "verifiers",
      "outputs": [
        {
          "internalType": "bool",
          "name": "",
          "type": "bool"
        }
      ],
      "stateMutability": "view",
      "type": "function"
    }
  ],
  "numDeployments": 7,
  "solcInputHash": "f8b7778099c3ee2f5d7838e2efc91e0e",
  "bytecode": "0x60a0604052306080523480156200001557600080fd5b506200002062000026565b62000156565b6200003260ff62000035565b50565b60008054610100900460ff1615620000ce578160ff1660011480156200006e57506200006c306200014760201b62002d2e1760201c565b155b620000c65760405162461bcd60e51b815260206004820152602e6024820152600080516020620060a783398151915260448201526d191e481a5b9a5d1a585b1a5e995960921b60648201526084015b60405180910390fd5b506000919050565b60005460ff8084169116106200012d5760405162461bcd60e51b815260206004820152602e6024820152600080516020620060a783398151915260448201526d191e481a5b9a5d1a585b1a5e995960921b6064820152608401620000bd565b506000805460ff191660ff92909216919091179055600190565b6001600160a01b03163b151590565b608051615f196200018e6000396000818161170d0152818161174d01528181611bc701528181611c070152611dd20152615f196000f3fe6080604052600436106103ce5760003560e01c80636352211e116101fd578063a5c6596311610118578063c8694d12116100ab578063e7705db61161007a578063e7705db614610c07578063e882e37b14610c29578063e985e9c514610c49578063f2fde38b14610c92578063ffa1ad7414610cb257600080fd5b8063c8694d1214610b57578063c87b56dd14610b77578063d547741f14610b97578063dff35e8314610bb757600080fd5b8063b722e533116100e7578063b722e53314610ad7578063b88d4fde14610af7578063c2170e5c14610b17578063c4d66de814610b3757600080fd5b8063a5c6596314610a5f578063aa7e568314610a7f578063abf410e514610a9f578063b305702514610ac057600080fd5b806375bea1661161019057806391d148541161015f57806391d14854146109f557806395d89b4114610a15578063a217fddf14610a2a578063a22cb46514610a3f57600080fd5b806375bea166146109715780638456cb59146109a25780638a6166f0146109b75780638da5cb5b146109d757600080fd5b80636d1f73d6116101cc5780636d1f73d6146108fc57806370a082311461091c578063715018a61461093c578063722e4baf1461095157600080fd5b80636352211e146108815780636c0360eb146108a15780636c824487146108b65780636ca0b0d7146108e757600080fd5b80632f745c59116102ed57806342842e0e1161028057806352d1902d1161024f57806352d1902d1461081457806355f804b3146108295780635c975abb146108495780635e9fae131461086157600080fd5b806342842e0e146107a15780634f1ef286146107c15780634f6ccce7146107d45780634f8a317c146107f457600080fd5b80633659cfe6116102bc5780633659cfe61461072c5780633a484efd1461074c5780633b2b203e1461076c5780633f4ba83a1461078c57600080fd5b80632f745c591461069057806334844b42146106b0578063362ab1b9146106ec57806336568abe1461070c57600080fd5b80630c634e671161036557806323b872dd1161033457806323b872dd146105f157806323edf69714610611578063248a9ca31461063f5780632f2ff15d1461067057600080fd5b80630c634e67146105425780630f979c2814610562578063150b7a02146105a357806318160ddd146105dc57600080fd5b8063081812fc116103a1578063081812fc1461048e578063095ea7b3146104c6578063097d1a90146104e65780630c1902fe1461052257600080fd5b806301ffc9a7146103d357806302451414146104085780630605a3341461042a57806306fdde031461046c575b600080fd5b3480156103df57600080fd5b506103f36103ee366004614eab565b610ce3565b60405190151581526020015b60405180910390f35b34801561041457600080fd5b50610428610423366004614f25565b610d0e565b005b34801561043657600080fd5b5061045e7fe70d28ebd9d7d9a3dd77d46ae2481f301c80806f395b08de31d8e095b1c46cee81565b6040519081526020016103ff565b34801561047857600080fd5b50610481611091565b6040516103ff9190614fe3565b34801561049a57600080fd5b506104ae6104a9366004614ff6565b611123565b6040516001600160a01b0390911681526020016103ff565b3480156104d257600080fd5b506104286104e136600461500f565b6111ab565b3480156104f257600080fd5b506103f3610501366004615127565b80516020818301810180516101ca8252928201919093012091525460ff1681565b34801561052e57600080fd5b5061042861053d366004614ff6565b6112c0565b34801561054e57600080fd5b5061042861055d36600461515b565b611306565b34801561056e57600080fd5b5061059661057d366004614ff6565b60009081526101c9602052604090206003015460ff1690565b6040516103ff91906151b5565b3480156105af57600080fd5b506105c36105be3660046151c3565b61134e565b6040516001600160e01b031990911681526020016103ff565b3480156105e857600080fd5b5060995461045e565b3480156105fd57600080fd5b5061042861060c366004615235565b6113cd565b34801561061d57600080fd5b5061063161062c366004614ff6565b61142d565b6040516103ff929190615276565b34801561064b57600080fd5b5061045e61065a366004614ff6565b600090815261012d602052604090206001015490565b34801561067c57600080fd5b5061042861068b36600461531a565b611580565b34801561069c57600080fd5b5061045e6106ab36600461500f565b6115a6565b3480156106bc57600080fd5b506103f36106cb366004615127565b80516020818301810180516101c48252928201919093012091525460ff1681565b3480156106f857600080fd5b50610428610707366004615127565b61163c565b34801561071857600080fd5b5061042861072736600461531a565b611689565b34801561073857600080fd5b5061042861074736600461534a565b611703565b34801561075857600080fd5b50610428610767366004615367565b6117df565b34801561077857600080fd5b50610428610787366004615390565b611978565b34801561079857600080fd5b50610428611b40565b3480156107ad57600080fd5b506104286107bc366004615235565b611ba2565b6104286107cf3660046153df565b611bbd565b3480156107e057600080fd5b5061045e6107ef366004614ff6565b611c89565b34801561080057600080fd5b5061042861080f366004614ff6565b611d1c565b34801561082057600080fd5b5061045e611dc5565b34801561083557600080fd5b50610428610844366004615127565b611e78565b34801561085557600080fd5b5060fb5460ff166103f3565b34801561086d57600080fd5b5061042861087c36600461542e565b611eb6565b34801561088d57600080fd5b506104ae61089c366004614ff6565b611f57565b3480156108ad57600080fd5b50610481611fce565b3480156108c257600080fd5b506103f36108d136600461534a565b6101c66020526000908152604090205460ff1681565b3480156108f357600080fd5b5061045e600581565b34801561090857600080fd5b5061042861091736600461515b565b61205d565b34801561092857600080fd5b5061045e61093736600461534a565b6120f6565b34801561094857600080fd5b5061042861217d565b34801561095d57600080fd5b5061042861096c366004614ff6565b6121b3565b34801561097d57600080fd5b5061099161098c366004614ff6565b61229f565b6040516103ff9594939291906154a4565b3480156109ae57600080fd5b506104286123e7565b3480156109c357600080fd5b506104286109d23660046154e2565b612449565b3480156109e357600080fd5b5060c9546001600160a01b03166104ae565b348015610a0157600080fd5b506103f3610a1036600461531a565b6125cb565b348015610a2157600080fd5b506104816125f7565b348015610a3657600080fd5b5061045e600081565b348015610a4b57600080fd5b50610428610a5a366004615520565b612606565b348015610a6b57600080fd5b5061045e610a7a36600461534a565b612611565b348015610a8b57600080fd5b50610428610a9a3660046154e2565b61264b565b348015610aab57600080fd5b506101c8546104ae906001600160a01b031681565b348015610acc57600080fd5b5061045e6101c35481565b348015610ae357600080fd5b50610428610af2366004614ff6565b6127d4565b348015610b0357600080fd5b50610428610b1236600461554e565b61283b565b348015610b2357600080fd5b50610428610b323660046155ad565b6128b7565b348015610b4357600080fd5b50610428610b5236600461534a565b6129a6565b348015610b6357600080fd5b50610428610b723660046154e2565b612a9f565b348015610b8357600080fd5b50610481610b92366004614ff6565b612ae2565b348015610ba357600080fd5b50610428610bb236600461531a565b612c23565b348015610bc357600080fd5b50610bf8610bd2366004614ff6565b60009081526101c96020526040902080546002820154600390920154909260ff90911690565b6040516103ff939291906155f3565b348015610c1357600080fd5b5061045e600080516020615ec483398151915281565b348015610c3557600080fd5b50610428610c4436600461534a565b612c49565b348015610c5557600080fd5b506103f3610c6436600461560e565b6001600160a01b039182166000908152606a6020908152604080832093909416825291909152205460ff1690565b348015610c9e57600080fd5b50610428610cad36600461534a565b612c96565b348015610cbe57600080fd5b50610481604051806040016040528060058152602001640312e332e360dc1b81525081565b60006001600160e01b03198216637965db0b60e01b1480610d085750610d0882612d3d565b92915050565b60fb5460ff1615610d3a5760405162461bcd60e51b8152600401610d319061563c565b60405180910390fd5b610d637fe70d28ebd9d7d9a3dd77d46ae2481f301c80806f395b08de31d8e095b1c46cee612d8d565b6000610d6f3087612dd0565b9050610dc18186868080601f016020809104026020016040519081016040528093929190818152602001838380828437600092018290525060408051602081019091529081528993509150612e4d9050565b610dcb8183613056565b610dd4816130b6565b6000610ddf8261326a565b604080518082019091526002815261034360f41b60208201529091506001600160a01b038216610e225760405162461bcd60e51b8152600401610d319190614fe3565b506000816001600160a01b0316633c31175e6040518163ffffffff1660e01b8152600401600060405180830381865afa158015610e63573d6000803e3d6000fd5b505050506040513d6000823e601f3d908101601f19168201604052610e8b91908101906156ab565b90506101ca81604051610e9e91906156df565b908152604080519182900360209081018320548383019092526002835261343160f01b9083015260ff16610ee55760405162461bcd60e51b8152600401610d319190614fe3565b506040516370a0823160e01b81523060048201526000906001600160a01b038416906370a0823190602401602060405180830381865afa158015610f2d573d6000803e3d6000fd5b505050506040513d601f19601f82011682018060405250810190610f5191906156fb565b9050610f6e30848660405180602001604052806000815250613477565b6040516370a0823160e01b81523060048201526000906001600160a01b038516906370a0823190602401602060405180830381865afa158015610fb5573d6000803e3d6000fd5b505050506040513d601f19601f82011682018060405250810190610fd991906156fb565b90506000610fe7838361572a565b6040805180820190915260028152611a1960f11b6020820152909150816110215760405162461bcd60e51b8152600401610d319190614fe3565b506110366001600160a01b0386168c836134aa565b604080518781526001600160a01b038781166020830152918101839052908c16907ffc57e3cd27cd7fbd6b9bfca9a3ab5dc6414002431c17d40274c60bbfbc672a2d9060600160405180910390a25050505050505050505050565b6060606580546110a090615741565b80601f01602080910402602001604051908101604052809291908181526020018280546110cc90615741565b80156111195780601f106110ee57610100808354040283529160200191611119565b820191906000526020600020905b8154815290600101906020018083116110fc57829003601f168201915b5050505050905090565b600061112e826134fc565b61118f5760405162461bcd60e51b815260206004820152602c60248201527f4552433732313a20617070726f76656420717565727920666f72206e6f6e657860448201526b34b9ba32b73a103a37b5b2b760a11b6064820152608401610d31565b506000908152606960205260409020546001600160a01b031690565b60006111b682611f57565b9050806001600160a01b0316836001600160a01b0316036112235760405162461bcd60e51b815260206004820152602160248201527f4552433732313a20617070726f76616c20746f2063757272656e74206f776e656044820152603960f91b6064820152608401610d31565b336001600160a01b038216148061123f575061123f8133610c64565b6112b15760405162461bcd60e51b815260206004820152603860248201527f4552433732313a20617070726f76652063616c6c6572206973206e6f74206f7760448201527f6e6572206e6f7220617070726f76656420666f7220616c6c00000000000000006064820152608401610d31565b6112bb8383613519565b505050565b60fb5460ff16156112e35760405162461bcd60e51b8152600401610d319061563c565b6112fa600080516020615ec4833981519152612d8d565b611303816130b6565b50565b60fb5460ff16156113295760405162461bcd60e51b8152600401610d319061563c565b611340600080516020615ec4833981519152612d8d565b61134a8282613056565b5050565b600061135c60fb5460ff1690565b156113795760405162461bcd60e51b8152600401610d319061563c565b604080518082019091526002815261343360f01b60208201526001600160a01b038616156113ba5760405162461bcd60e51b8152600401610d319190614fe3565b50630a85bd0160e11b9695505050505050565b6113d8335b82613587565b60405180604001604052806002815260200161333760f01b815250906114115760405162461bcd60e51b8152600401610d319190614fe3565b506112bb8383836040518060200160405280600081525061283b565b60008181526101c96020908152604080832060058101805483518186028101860190945280845260609586959294600690940193928592919084015b8282101561151557838290600052602060002001805461148890615741565b80601f01602080910402602001604051908101604052809291908181526020018280546114b490615741565b80156115015780601f106114d657610100808354040283529160200191611501565b820191906000526020600020905b8154815290600101906020018083116114e457829003601f168201915b505050505081526020019060010190611469565b5050505091508080548060200260200160405190810160405280929190818152602001828054801561157057602002820191906000526020600020905b81546001600160a01b03168152600190910190602001808311611552575b5050505050905091509150915091565b600082815261012d602052604090206001015461159c81613670565b6112bb838361367a565b60006115b1836120f6565b82106116135760405162461bcd60e51b815260206004820152602b60248201527f455243373231456e756d657261626c653a206f776e657220696e646578206f7560448201526a74206f6620626f756e647360a81b6064820152608401610d31565b506001600160a01b03919091166000908152609760209081526040808320938352929052205490565b611653600080516020615ec4833981519152612d8d565b60006101c48260405161166691906156df565b908152604051908190036020019020805491151560ff1990921691909117905550565b6001600160a01b03811633146116f95760405162461bcd60e51b815260206004820152602f60248201527f416363657373436f6e74726f6c3a2063616e206f6e6c792072656e6f756e636560448201526e103937b632b9903337b91039b2b63360891b6064820152608401610d31565b61134a8282613701565b6001600160a01b037f000000000000000000000000000000000000000000000000000000000000000016300361174b5760405162461bcd60e51b8152600401610d319061577b565b7f00000000000000000000000000000000000000000000000000000000000000006001600160a01b0316611794600080516020615e57833981519152546001600160a01b031690565b6001600160a01b0316146117ba5760405162461bcd60e51b8152600401610d31906157c7565b6117c381613769565b6040805160008082526020820190925261130391839190613793565b6117e8826138fe565b60008281526101c96020526040902060039081015460ff16908260068111156118135761181361517d565b14806118305750600582600681111561182e5761182e61517d565b145b1561188a5760025b81600681111561184a5761184a61517d565b14604051806040016040528060028152602001610d0d60f21b815250906118845760405162461bcd60e51b8152600401610d319190614fe3565b5061196e565b600482600681111561189e5761189e61517d565b036118aa576003611838565b60068260068111156118be576118be61517d565b036118ca576005611838565b60028260068111156118de576118de61517d565b0361193e5760038160068111156118f7576118f761517d565b148061190557506005611838565b604051806040016040528060028152602001610d0d60f21b815250906118845760405162461bcd60e51b8152600401610d319190614fe3565b60408051808201825260028152610d0d60f21b6020820152905162461bcd60e51b8152610d319190600401614fe3565b6112bb83836139f7565b60fb5460ff161561199b5760405162461bcd60e51b8152600401610d319061563c565b336119a584611f57565b6001600160a01b031614806119cd57506119cd600080516020615ec4833981519152336125cb565b604051806040016040528060028152602001610c8d60f21b81525090611a065760405162461bcd60e51b8152600401610d319190614fe3565b5060008381526101c9602052604081206003015460ff166006811115611a2e57611a2e61517d565b1460405180604001604052806002815260200161033360f41b81525090611a685760405162461bcd60e51b8152600401610d319190614fe3565b506101c482604051611a7a91906156df565b908152604080519182900360209081018320548383019092526002835261199960f11b9083015260ff1615611ac25760405162461bcd60e51b8152600401610d319190614fe3565b5060008381526101c9602090815260409091208351611ae992600190920191850190614dfc565b5060008381526101c9602052604090819020600201829055517fd680d89587cd5af07a9a0280107488c8b2db5f86aec57b869f0933fb4a99c05b90611b3390859085908590615813565b60405180910390a1505050565b6101c8546001600160a01b0316611b5f60c9546001600160a01b031690565b6001600160a01b038216331480611b7e57506001600160a01b03811633145b611b9a5760405162461bcd60e51b8152600401610d319061583c565b61134a613a5c565b6112bb8383836040518060200160405280600081525061283b565b6001600160a01b037f0000000000000000000000000000000000000000000000000000000000000000163003611c055760405162461bcd60e51b8152600401610d319061577b565b7f00000000000000000000000000000000000000000000000000000000000000006001600160a01b0316611c4e600080516020615e57833981519152546001600160a01b031690565b6001600160a01b031614611c745760405162461bcd60e51b8152600401610d31906157c7565b611c7d82613769565b61134a82826001613793565b6000611c9460995490565b8210611cf75760405162461bcd60e51b815260206004820152602c60248201527f455243373231456e756d657261626c653a20676c6f62616c20696e646578206f60448201526b7574206f6620626f756e647360a01b6064820152608401610d31565b60998281548110611d0a57611d0a615881565b90600052602060002001549050919050565b60fb5460ff1615611d3f5760405162461bcd60e51b8152600401610d319061563c565b611d56600080516020615ec4833981519152612d8d565b600160008281526101c9602052604090206003015460ff166006811115611d7f57611d7f61517d565b1460405180604001604052806002815260200161333560f01b81525090611db95760405162461bcd60e51b8152600401610d319190614fe3565b506113038160006139f7565b6000306001600160a01b037f00000000000000000000000000000000000000000000000000000000000000001614611e655760405162461bcd60e51b815260206004820152603860248201527f555550535570677261646561626c653a206d757374206e6f742062652063616c60448201527f6c6564207468726f7567682064656c656761746563616c6c00000000000000006064820152608401610d31565b50600080516020615e5783398151915290565b60c9546001600160a01b03163314611ea25760405162461bcd60e51b8152600401610d3190615897565b805161134a906101c7906020840190614dfc565b60fb5460ff1615611ed95760405162461bcd60e51b8152600401610d319061563c565b33611ee385611f57565b6001600160a01b03161480611f0b5750611f0b600080516020615ec4833981519152336125cb565b604051806040016040528060028152602001610c8d60f21b81525090611f445760405162461bcd60e51b8152600401610d319190614fe3565b50611f5184848484612e4d565b50505050565b6000818152606760205260408120546001600160a01b031680610d085760405162461bcd60e51b815260206004820152602960248201527f4552433732313a206f776e657220717565727920666f72206e6f6e657869737460448201526832b73a103a37b5b2b760b91b6064820152608401610d31565b6101c78054611fdc90615741565b80601f016020809104026020016040519081016040528092919081815260200182805461200890615741565b80156120555780601f1061202a57610100808354040283529160200191612055565b820191906000526020600020905b81548152906001019060200180831161203857829003601f168201915b505050505081565b60fb5460ff16156120805760405162461bcd60e51b8152600401610d319061563c565b612097600080516020615ec4833981519152612d8d565b60008281526101c960209081526040918290205482518084019093526002835261199b60f11b91830191909152156120e25760405162461bcd60e51b8152600401610d319190614fe3565b506120ed8282613056565b61134a826130b6565b60006001600160a01b0382166121615760405162461bcd60e51b815260206004820152602a60248201527f4552433732313a2062616c616e636520717565727920666f7220746865207a65604482015269726f206164647265737360b01b6064820152608401610d31565b506001600160a01b031660009081526068602052604090205490565b60c9546001600160a01b031633146121a75760405162461bcd60e51b8152600401610d3190615897565b6121b16000613aef565b565b60fb5460ff16156121d65760405162461bcd60e51b8152600401610d319061563c565b6121ed600080516020615ec4833981519152612d8d565b60008181526101c9602052604081206003015460ff1660068111156122145761221461517d565b1460405180604001604052806002815260200161333360f01b8152509061224e5760405162461bcd60e51b8152600401610d319190614fe3565b5060008181526101c9602052604080822090516101c491612274916001909101906158cc565b908152604051908190036020019020805491151560ff199092169190911790556113038160016139f7565b6101c960205260009081526040902080546001820180549192916122c290615741565b80601f01602080910402602001604051908101604052809291908181526020018280546122ee90615741565b801561233b5780601f106123105761010080835404028352916020019161233b565b820191906000526020600020905b81548152906001019060200180831161231e57829003601f168201915b50505050600283015460038401546004850180549495929460ff90921693509061236490615741565b80601f016020809104026020016040519081016040528092919081815260200182805461239090615741565b80156123dd5780601f106123b2576101008083540402835291602001916123dd565b820191906000526020600020905b8154815290600101906020018083116123c057829003601f168201915b5050505050905085565b6101c8546001600160a01b031661240660c9546001600160a01b031690565b6001600160a01b03821633148061242557506001600160a01b03811633145b6124415760405162461bcd60e51b8152600401610d319061583c565b61134a613b41565b60c9546001600160a01b031633146124735760405162461bcd60e51b8152600401610d3190615897565b60fb5460ff16156124965760405162461bcd60e51b8152600401610d319061563c565b600260008381526101c9602052604090206003015460ff1660068111156124bf576124bf61517d565b1460405180604001604052806002815260200161323760f01b815250906124f95760405162461bcd60e51b8152600401610d319190614fe3565b506101c8546001600160a01b031663746f62da61251584611f57565b6040516001600160e01b031960e084901b1681526001600160a01b039091166004820152602401602060405180830381865afa158015612559573d6000803e3d6000fd5b505050506040513d601f19601f8201168201806040525081019061257d9190615972565b6040805180820190915260028152610ccd60f21b602082015290156125b55760405162461bcd60e51b8152600401610d319190614fe3565b506125c18260016139f7565b61134a828261264b565b600091825261012d602090815260408084206001600160a01b0393909316845291905290205460ff1690565b6060606680546110a090615741565b61134a338383613b99565b600061261f60fb5460ff1690565b1561263c5760405162461bcd60e51b8152600401610d319061563c565b610d088283612dd0565b919050565b612663600080516020615ec4833981519152336125cb565b80612687575061267282611f57565b6001600160a01b0316336001600160a01b0316145b8061269c575060c9546001600160a01b031633145b60405180604001604052806002815260200161333960f01b815250906126d55760405162461bcd60e51b8152600401610d319190614fe3565b506126df826134fc565b60405180604001604052806002815260200161323960f01b815250906127185760405162461bcd60e51b8152600401610d319190614fe3565b5060008281526101c9602090815260408220600501805460018101825590835291819020835161274f939190910191840190614dfc565b5060008281526101c96020908152604080832060068101805460018101825590855292842090920180546001600160a01b031916339081179091559285905260059091015490517f08740f41d4d7e855ea188e78846ad3e8665dd6d0b088f899025991c1ee8c2c47926127c8928692909190869061598f565b60405180910390a15050565b6127dd336113d2565b60405180604001604052806002815260200161333760f01b815250906128165760405162461bcd60e51b8152600401610d319190614fe3565b5060006128228261326a565b905061134a338284604051806020016040528060008152505b6128453383613587565b6128ab5760405162461bcd60e51b815260206004820152603160248201527f4552433732313a207472616e736665722063616c6c6572206973206e6f74206f6044820152701ddb995c881b9bdc88185c1c1c9bdd9959607a1b6064820152608401610d31565b611f5184848484613477565b60c9546001600160a01b031633146128e15760405162461bcd60e51b8152600401610d3190615897565b8015156101ca836040516128f591906156df565b908152604080519182900360209081018320548383019092526002835261323360f01b90830152909160ff9091161515036129435760405162461bcd60e51b8152600401610d319190614fe3565b50806101ca8360405161295691906156df565b908152604051908190036020018120805492151560ff19909316929092179091557fd1ccc86b3ecebee24bd889691724999af4141f85d8bf0c59a60112e18173f6a0906127c890849084906159c6565b60006129b26001613c67565b905080156129ca576000805461ff0019166101001790555b6129d2613cef565b612a16604051806060016040528060268152602001615e9e602691396040518060400160405280600a8152602001692a27aaa1a0a716a1a7a160b11b815250613d16565b612a1e613d64565b612a26613d94565b612a2e613cef565b612a36613cef565b6101c880546001600160a01b0319166001600160a01b038416179055612a5d60003361367a565b801561134a576000805461ff0019169055604051600181527f7f26b83ff96e1f2b6a682f133852f6798a09c465da95921460cefb3847402498906020016127c8565b60fb5460ff1615612ac25760405162461bcd60e51b8152600401610d319061563c565b612ad9600080516020615ec4833981519152612d8d565b6125c1826121b3565b6060612aed826134fc565b60405180604001604052806002815260200161323960f01b81525090612b265760405162461bcd60e51b8152600401610d319190614fe3565b5060008281526101c9602052604081206004018054612b4490615741565b80601f0160208091040260200160405190810160405280929190818152602001828054612b7090615741565b8015612bbd5780601f10612b9257610100808354040283529160200191612bbd565b820191906000526020600020905b815481529060010190602001808311612ba057829003601f168201915b505050505090506000612bce613dc7565b90508051600003612be0575092915050565b815115612c12578082604051602001612bfa9291906159ea565b60405160208183030381529060405292505050919050565b612c1b84613dd7565b949350505050565b600082815261012d6020526040902060010154612c3f81613670565b6112bb8383613701565b60c9546001600160a01b03163314612c735760405162461bcd60e51b8152600401610d3190615897565b6101c880546001600160a01b0319166001600160a01b0392909216919091179055565b60c9546001600160a01b03163314612cc05760405162461bcd60e51b8152600401610d3190615897565b6001600160a01b038116612d255760405162461bcd60e51b815260206004820152602660248201527f4f776e61626c653a206e6577206f776e657220697320746865207a65726f206160448201526564647265737360d01b6064820152608401610d31565b61130381613aef565b6001600160a01b03163b151590565b60006001600160e01b031982166380ac58cd60e01b1480612d6e57506001600160e01b03198216635b5e139f60e01b145b80610d0857506301ffc9a760e01b6001600160e01b0319831614610d08565b612d9781336125cb565b60405180604001604052806002815260200161333960f01b8152509061134a5760405162461bcd60e51b8152600401610d319190614fe3565b6101c3805460010190819055600090612de98482613ea2565b60008181526101c96020908152604091829020600301805460ff1916905581516001600160a01b03861681529081018390527f6174e73d7eb2fee6c482f87f81961b83cfa577f50c963bd1516f282497260fcd910160405180910390a19392505050565b60008481526101c9602052604081206003015460ff1690816006811115612e7657612e7661517d565b1460405180604001604052806002815260200161033360f41b81525090612eb05760405162461bcd60e51b8152600401610d319190614fe3565b506101c484604051612ec291906156df565b908152604080519182900360209081018320548383019092526002835261199960f11b9083015260ff1615612f0a5760405162461bcd60e51b8152600401610d319190614fe3565b5060008581526101c9602090815260409091208551612f3192600190920191870190614dfc565b5060008581526101c960205260409020600281018490556004018054612fe89190612f5b90615741565b80601f0160208091040260200160405190810160405280929190818152602001828054612f8790615741565b8015612fd45780601f10612fa957610100808354040283529160200191612fd4565b820191906000526020600020905b815481529060010190602001808311612fb757829003601f168201915b505050505083613ebc90919063ffffffff16565b6130145760008581526101c960209081526040909120835161301292600490920191850190614dfc565b505b7fd680d89587cd5af07a9a0280107488c8b2db5f86aec57b869f0933fb4a99c05b85858560405161304793929190615813565b60405180910390a15050505050565b6101c85461306d906001600160a01b031682613ee2565b60008281526101c9602090815260409182902083905581518481529081018390527fe16bc7d72176e78ab56068f816d35b70dfcb41bb492ca0da0bcfc064b2439f6c91016127c8565b6130bf816134fc565b60405180604001604052806002815260200161323960f01b815250906130f85760405162461bcd60e51b8152600401610d319190614fe3565b5060008181526101c9602052604081206003015460ff1660068111156131205761312061517d565b1460405180604001604052806002815260200161033360f41b8152509061315a5760405162461bcd60e51b8152600401610d319190614fe3565b5060008181526101c960209081526040918290205482518084019093526002835261333160f01b918301919091526131a55760405162461bcd60e51b8152600401610d319190614fe3565b506101c46101c960008381526020019081526020016000206001016040516131cd91906158cc565b908152604080519182900360209081018320548383019092526002835261199960f11b9083015260ff16156132155760405162461bcd60e51b8152600401610d319190614fe3565b5060016101c46101c9600084815260200190815260200160002060010160405161323f91906158cc565b908152604051908190036020019020805491151560ff199092169190911790556113038160026139f7565b60008181526101c960209081526040808320546101c8548251630505792b60e51b8152925191936001600160a01b03909116928592849263a0af256092600480820193918290030181865afa1580156132c7573d6000803e3d6000fd5b505050506040513d601f19601f820116820180604052508101906132eb9190615a19565b60405163056efc1d60e21b8152600481018590529091506000906001600160a01b038316906315bbf07490602401600060405180830381865afa158015613336573d6000803e3d6000fd5b505050506040513d6000823e601f3d908101601f1916820160405261335e9190810190615a4d565b61016081015180519192509060000361338f5750604080518082019091526005815264766572726160d81b60208201525b6040516391148b2760e01b81526000906001600160a01b038616906391148b27906133be908590600401614fe3565b602060405180830381865afa1580156133db573d6000803e3d6000fd5b505050506040513d601f19601f820116820180604052508101906133ff9190615a19565b6040516317a04f4f60e21b8152600481018890529091506001600160a01b03821690635e813d3c90602401602060405180830381865afa158015613447573d6000803e3d6000fd5b505050506040513d601f19601f8201168201806040525081019061346b9190615a19565b98975050505050505050565b613482848484614010565b61348e848484846141b7565b611f515760405162461bcd60e51b8152600401610d3190615bd7565b604080516001600160a01b038416602482015260448082018490528251808303909101815260649091019091526020810180516001600160e01b031663a9059cbb60e01b1790526112bb9084906142b8565b6000908152606760205260409020546001600160a01b0316151590565b600081815260696020526040902080546001600160a01b0319166001600160a01b038416908117909155819061354e82611f57565b6001600160a01b03167f8c5be1e5ebec7d5bd14f71427d1e84f3dd0314c0f7b2291e5b200ac8c7c3b92560405160405180910390a45050565b6000613592826134fc565b6135f35760405162461bcd60e51b815260206004820152602c60248201527f4552433732313a206f70657261746f7220717565727920666f72206e6f6e657860448201526b34b9ba32b73a103a37b5b2b760a11b6064820152608401610d31565b60006135fe83611f57565b9050806001600160a01b0316846001600160a01b0316148061364557506001600160a01b038082166000908152606a602090815260408083209388168352929052205460ff165b80612c1b5750836001600160a01b031661365e84611123565b6001600160a01b031614949350505050565b611303813361438a565b61368482826125cb565b61134a57600082815261012d602090815260408083206001600160a01b03851684529091529020805460ff191660011790556136bd3390565b6001600160a01b0316816001600160a01b0316837f2f8788117e7eff1d82e926ec794901d17c78024a50270940304540a733656f0d60405160405180910390a45050565b61370b82826125cb565b1561134a57600082815261012d602090815260408083206001600160a01b0385168085529252808320805460ff1916905551339285917ff6391f5c32d9c69d2a47ea670b442974b53935d1edc7fd64eb21e047a839171b9190a45050565b60c9546001600160a01b031633146113035760405162461bcd60e51b8152600401610d3190615897565b7f4910fdfa16fed3260ed0e7147f7cc6da11a60208b5b9406d12a635614ffd91435460ff16156137c6576112bb836143ee565b826001600160a01b03166352d1902d6040518163ffffffff1660e01b8152600401602060405180830381865afa925050508015613820575060408051601f3d908101601f1916820190925261381d918101906156fb565b60015b6138835760405162461bcd60e51b815260206004820152602e60248201527f45524331393637557067726164653a206e657720696d706c656d656e7461746960448201526d6f6e206973206e6f74205555505360901b6064820152608401610d31565b600080516020615e5783398151915281146138f25760405162461bcd60e51b815260206004820152602960248201527f45524331393637557067726164653a20756e737570706f727465642070726f786044820152681a58589b195555525160ba1b6064820152608401610d31565b506112bb83838361448a565b600061390982611f57565b604080518082019091526002815261323560f01b60208201529091506001600160a01b038216331461394e5760405162461bcd60e51b8152600401610d319190614fe3565b506101c854604051633a37b16d60e11b81526001600160a01b0383811660048301529091169063746f62da90602401602060405180830381865afa15801561399a573d6000803e3d6000fd5b505050506040513d601f19601f820116820180604052508101906139be9190615972565b60405180604001604052806002815260200161191b60f11b815250906112bb5760405162461bcd60e51b8152600401610d319190614fe3565b60008281526101c960205260409020600301805482919060ff19166001836006811115613a2657613a2661517d565b02179055507f132d48207d6b10897066f0b98b98325907e8a0d491390e141c7377772b47a9d682826040516127c8929190615c29565b60fb5460ff16613aa55760405162461bcd60e51b815260206004820152601460248201527314185d5cd8589b194e881b9bdd081c185d5cd95960621b6044820152606401610d31565b60fb805460ff191690557f5db9ee0a495bf2e6ff9c91a7834c1ba4fdd244a5e8aa4e537bd38aeae4b073aa335b6040516001600160a01b03909116815260200160405180910390a1565b60c980546001600160a01b038381166001600160a01b0319831681179093556040519116919082907f8be0079c531659141344cd1fd0a4f28419497f9722a3daafe3b4186f6b6457e090600090a35050565b60fb5460ff1615613b645760405162461bcd60e51b8152600401610d319061563c565b60fb805460ff191660011790557f62e78cea01bee320cd4e420270b5ea74000d11b0c9f74754ebdbfc544b05a258613ad23390565b816001600160a01b0316836001600160a01b031603613bfa5760405162461bcd60e51b815260206004820152601960248201527f4552433732313a20617070726f766520746f2063616c6c6572000000000000006044820152606401610d31565b6001600160a01b038381166000818152606a6020908152604080832094871680845294825291829020805460ff191686151590811790915591519182527f17307eab39ab6107e8899845ad3d59bd9653f200f220920489ca2b5937696c31910160405180910390a3505050565b60008054610100900460ff1615613cae578160ff166001148015613c8a5750303b155b613ca65760405162461bcd60e51b8152600401610d3190615c3d565b506000919050565b60005460ff808416911610613cd55760405162461bcd60e51b8152600401610d3190615c3d565b506000805460ff191660ff92909216919091179055600190565b600054610100900460ff166121b15760405162461bcd60e51b8152600401610d3190615c8b565b600054610100900460ff16613d3d5760405162461bcd60e51b8152600401610d3190615c8b565b8151613d50906065906020850190614dfc565b5080516112bb906066906020840190614dfc565b600054610100900460ff16613d8b5760405162461bcd60e51b8152600401610d3190615c8b565b6121b133613aef565b600054610100900460ff16613dbb5760405162461bcd60e51b8152600401610d3190615c8b565b60fb805460ff19169055565b60606101c780546110a090615741565b6060613de2826134fc565b613e465760405162461bcd60e51b815260206004820152602f60248201527f4552433732314d657461646174613a2055524920717565727920666f72206e6f60448201526e3732bc34b9ba32b73a103a37b5b2b760891b6064820152608401610d31565b6000613e50613dc7565b90506000815111613e705760405180602001604052806000815250613e9b565b80613e7a846144af565b604051602001613e8b9291906159ea565b6040516020818303038152906040525b9392505050565b61134a8282604051806020016040528060008152506145af565b600081518351148015613e9b575081805190602001208380519060200120149392505050565b6000826001600160a01b031663a0af25606040518163ffffffff1660e01b8152600401602060405180830381865afa158015613f22573d6000803e3d6000fd5b505050506040513d601f19601f82011682018060405250810190613f469190615a19565b604051634f558e7960e01b8152600481018490529091506001600160a01b03821690634f558e7990602401602060405180830381865afa158015613f8e573d6000803e3d6000fd5b505050506040513d601f19601f82011682018060405250810190613fb29190615972565b6112bb5760405162461bcd60e51b815260206004820152602960248201527f436172626f6e2070726f6a6563742076696e7461676520646f6573206e6f74206044820152681e595d08195e1a5cdd60ba1b6064820152608401610d31565b826001600160a01b031661402382611f57565b6001600160a01b0316146140875760405162461bcd60e51b815260206004820152602560248201527f4552433732313a207472616e736665722066726f6d20696e636f72726563742060448201526437bbb732b960d91b6064820152608401610d31565b6001600160a01b0382166140e95760405162461bcd60e51b8152602060048201526024808201527f4552433732313a207472616e7366657220746f20746865207a65726f206164646044820152637265737360e01b6064820152608401610d31565b6140f48383836145e2565b6140ff600082613519565b6001600160a01b038316600090815260686020526040812080546001929061412890849061572a565b90915550506001600160a01b0382166000908152606860205260408120805460019290614156908490615cd6565b909155505060008181526067602052604080822080546001600160a01b0319166001600160a01b0386811691821790925591518493918716917fddf252ad1be2c89b69c2b068fc378daa952ba7f163c4a11628f55a4df523b3ef91a4505050565b60006001600160a01b0384163b156142ad57604051630a85bd0160e11b81526001600160a01b0385169063150b7a02906141fb903390899088908890600401615cee565b6020604051808303816000875af1925050508015614236575060408051601f3d908101601f1916820190925261423391810190615d21565b60015b614293573d808015614264576040519150601f19603f3d011682016040523d82523d6000602084013e614269565b606091505b50805160000361428b5760405162461bcd60e51b8152600401610d3190615bd7565b805181602001fd5b6001600160e01b031916630a85bd0160e11b149050612c1b565b506001949350505050565b600061430d826040518060400160405280602081526020017f5361666545524332303a206c6f772d6c6576656c2063616c6c206661696c6564815250856001600160a01b031661462d9092919063ffffffff16565b8051909150156112bb578080602001905181019061432b9190615972565b6112bb5760405162461bcd60e51b815260206004820152602a60248201527f5361666545524332303a204552433230206f7065726174696f6e20646964206e6044820152691bdd081cdd58d8d9595960b21b6064820152608401610d31565b61439482826125cb565b61134a576143ac816001600160a01b0316601461463c565b6143b783602061463c565b6040516020016143c8929190615d3e565b60408051601f198184030181529082905262461bcd60e51b8252610d3191600401614fe3565b6001600160a01b0381163b61445b5760405162461bcd60e51b815260206004820152602d60248201527f455243313936373a206e657720696d706c656d656e746174696f6e206973206e60448201526c1bdd08184818dbdb9d1c9858dd609a1b6064820152608401610d31565b600080516020615e5783398151915280546001600160a01b0319166001600160a01b0392909216919091179055565b614493836147d7565b6000825111806144a05750805b156112bb57611f518383614817565b6060816000036144d65750506040805180820190915260018152600360fc1b602082015290565b8160005b811561450057806144ea81615db3565b91506144f99050600a83615de2565b91506144da565b6000816001600160401b0381111561451a5761451a61503b565b6040519080825280601f01601f191660200182016040528015614544576020820181803683370190505b5090505b8415612c1b5761455960018361572a565b9150614566600a86615df6565b614571906030615cd6565b60f81b81838151811061458657614586615881565b60200101906001600160f81b031916908160001a9053506145a8600a86615de2565b9450614548565b6145b9838361490b565b6145c660008484846141b7565b6112bb5760405162461bcd60e51b8152600401610d3190615bd7565b6145ed838383614a4a565b60fb5460ff161560405180604001604052806002815260200161066760f31b81525090611f515760405162461bcd60e51b8152600401610d319190614fe3565b6060612c1b8484600085614b02565b6060600061464b836002615e0a565b614656906002615cd6565b6001600160401b0381111561466d5761466d61503b565b6040519080825280601f01601f191660200182016040528015614697576020820181803683370190505b509050600360fc1b816000815181106146b2576146b2615881565b60200101906001600160f81b031916908160001a905350600f60fb1b816001815181106146e1576146e1615881565b60200101906001600160f81b031916908160001a9053506000614705846002615e0a565b614710906001615cd6565b90505b6001811115614788576f181899199a1a9b1b9c1cb0b131b232b360811b85600f166010811061474457614744615881565b1a60f81b82828151811061475a5761475a615881565b60200101906001600160f81b031916908160001a90535060049490941c9361478181615e29565b9050614713565b508315613e9b5760405162461bcd60e51b815260206004820181905260248201527f537472696e67733a20686578206c656e67746820696e73756666696369656e746044820152606401610d31565b6147e0816143ee565b6040516001600160a01b038216907fbc7cd75a20ee27fd9adebab32041f755214dbc6bffa90cc0225b39da2e5c2d3b90600090a250565b60606001600160a01b0383163b61487f5760405162461bcd60e51b815260206004820152602660248201527f416464726573733a2064656c65676174652063616c6c20746f206e6f6e2d636f6044820152651b9d1c9858dd60d21b6064820152608401610d31565b600080846001600160a01b03168460405161489a91906156df565b600060405180830381855af49150503d80600081146148d5576040519150601f19603f3d011682016040523d82523d6000602084013e6148da565b606091505b50915091506149028282604051806060016040528060278152602001615e7760279139614c33565b95945050505050565b6001600160a01b0382166149615760405162461bcd60e51b815260206004820181905260248201527f4552433732313a206d696e7420746f20746865207a65726f20616464726573736044820152606401610d31565b61496a816134fc565b156149b75760405162461bcd60e51b815260206004820152601c60248201527f4552433732313a20746f6b656e20616c7265616479206d696e746564000000006044820152606401610d31565b6149c3600083836145e2565b6001600160a01b03821660009081526068602052604081208054600192906149ec908490615cd6565b909155505060008181526067602052604080822080546001600160a01b0319166001600160a01b03861690811790915590518392907fddf252ad1be2c89b69c2b068fc378daa952ba7f163c4a11628f55a4df523b3ef908290a45050565b6001600160a01b038316614aa557614aa081609980546000838152609a60205260408120829055600182018355919091527f72a152ddfb8e864297c917af52ea6c1c68aead0fee1a62673fcc7e0c94979d000155565b614ac8565b816001600160a01b0316836001600160a01b031614614ac857614ac88382614c6c565b6001600160a01b038216614adf576112bb81614d09565b826001600160a01b0316826001600160a01b0316146112bb576112bb8282614db8565b606082471015614b635760405162461bcd60e51b815260206004820152602660248201527f416464726573733a20696e73756666696369656e742062616c616e636520666f6044820152651c8818d85b1b60d21b6064820152608401610d31565b6001600160a01b0385163b614bba5760405162461bcd60e51b815260206004820152601d60248201527f416464726573733a2063616c6c20746f206e6f6e2d636f6e74726163740000006044820152606401610d31565b600080866001600160a01b03168587604051614bd691906156df565b60006040518083038185875af1925050503d8060008114614c13576040519150601f19603f3d011682016040523d82523d6000602084013e614c18565b606091505b5091509150614c28828286614c33565b979650505050505050565b60608315614c42575081613e9b565b825115614c525782518084602001fd5b8160405162461bcd60e51b8152600401610d319190614fe3565b60006001614c79846120f6565b614c83919061572a565b600083815260986020526040902054909150808214614cd6576001600160a01b03841660009081526097602090815260408083208584528252808320548484528184208190558352609890915290208190555b5060009182526098602090815260408084208490556001600160a01b039094168352609781528383209183525290812055565b609954600090614d1b9060019061572a565b6000838152609a602052604081205460998054939450909284908110614d4357614d43615881565b906000526020600020015490508060998381548110614d6457614d64615881565b6000918252602080832090910192909255828152609a90915260408082208490558582528120556099805480614d9c57614d9c615e40565b6001900381819060005260206000200160009055905550505050565b6000614dc3836120f6565b6001600160a01b039093166000908152609760209081526040808320868452825280832085905593825260989052919091209190915550565b828054614e0890615741565b90600052602060002090601f016020900481019282614e2a5760008555614e70565b82601f10614e4357805160ff1916838001178555614e70565b82800160010185558215614e70579182015b82811115614e70578251825591602001919060010190614e55565b50614e7c929150614e80565b5090565b5b80821115614e7c5760008155600101614e81565b6001600160e01b03198116811461130357600080fd5b600060208284031215614ebd57600080fd5b8135613e9b81614e95565b6001600160a01b038116811461130357600080fd5b60008083601f840112614eef57600080fd5b5081356001600160401b03811115614f0657600080fd5b602083019150836020828501011115614f1e57600080fd5b9250929050565b600080600080600060808688031215614f3d57600080fd5b8535614f4881614ec8565b945060208601356001600160401b03811115614f6357600080fd5b614f6f88828901614edd565b9699909850959660408101359660609091013595509350505050565b60005b83811015614fa6578181015183820152602001614f8e565b83811115611f515750506000910152565b60008151808452614fcf816020860160208601614f8b565b601f01601f19169290920160200192915050565b602081526000613e9b6020830184614fb7565b60006020828403121561500857600080fd5b5035919050565b6000806040838503121561502257600080fd5b823561502d81614ec8565b946020939093013593505050565b634e487b7160e01b600052604160045260246000fd5b60405161018081016001600160401b03811182821017156150745761507461503b565b60405290565b604051601f8201601f191681016001600160401b03811182821017156150a2576150a261503b565b604052919050565b60006001600160401b038211156150c3576150c361503b565b50601f01601f191660200190565b600082601f8301126150e257600080fd5b81356150f56150f0826150aa565b61507a565b81815284602083860101111561510a57600080fd5b816020850160208301376000918101602001919091529392505050565b60006020828403121561513957600080fd5b81356001600160401b0381111561514f57600080fd5b612c1b848285016150d1565b6000806040838503121561516e57600080fd5b50508035926020909101359150565b634e487b7160e01b600052602160045260246000fd5b600781106151b157634e487b7160e01b600052602160045260246000fd5b9052565b60208101610d088284615193565b6000806000806000608086880312156151db57600080fd5b85356151e681614ec8565b945060208601356151f681614ec8565b93506040860135925060608601356001600160401b0381111561521857600080fd5b61522488828901614edd565b969995985093965092949392505050565b60008060006060848603121561524a57600080fd5b833561525581614ec8565b9250602084013561526581614ec8565b929592945050506040919091013590565b6000604082016040835280855180835260608501915060608160051b8601019250602080880160005b838110156152cd57605f198887030185526152bb868351614fb7565b9550938201939082019060010161529f565b50508584038187015286518085528782019482019350915060005b8281101561530d5784516001600160a01b0316845293810193928101926001016152e8565b5091979650505050505050565b6000806040838503121561532d57600080fd5b82359150602083013561533f81614ec8565b809150509250929050565b60006020828403121561535c57600080fd5b8135613e9b81614ec8565b6000806040838503121561537a57600080fd5b8235915060208301356007811061533f57600080fd5b6000806000606084860312156153a557600080fd5b8335925060208401356001600160401b038111156153c257600080fd5b6153ce868287016150d1565b925050604084013590509250925092565b600080604083850312156153f257600080fd5b82356153fd81614ec8565b915060208301356001600160401b0381111561541857600080fd5b615424858286016150d1565b9150509250929050565b6000806000806080858703121561544457600080fd5b8435935060208501356001600160401b038082111561546257600080fd5b61546e888389016150d1565b945060408701359350606087013591508082111561548b57600080fd5b50615498878288016150d1565b91505092959194509250565b85815260a0602082015260006154bd60a0830187614fb7565b8560408401526154d06060840186615193565b828103608084015261346b8185614fb7565b600080604083850312156154f557600080fd5b8235915060208301356001600160401b0381111561541857600080fd5b801515811461130357600080fd5b6000806040838503121561553357600080fd5b823561553e81614ec8565b9150602083013561533f81615512565b6000806000806080858703121561556457600080fd5b843561556f81614ec8565b9350602085013561557f81614ec8565b92506040850135915060608501356001600160401b038111156155a157600080fd5b615498878288016150d1565b600080604083850312156155c057600080fd5b82356001600160401b038111156155d657600080fd5b6155e2858286016150d1565b925050602083013561533f81615512565b8381526020810183905260608101612c1b6040830184615193565b6000806040838503121561562157600080fd5b823561562c81614ec8565b9150602083013561533f81614ec8565b60208082526010908201526f14185d5cd8589b194e881c185d5cd95960821b604082015260600190565b600082601f83011261567757600080fd5b81516156856150f0826150aa565b81815284602083860101111561569a57600080fd5b612c1b826020830160208701614f8b565b6000602082840312156156bd57600080fd5b81516001600160401b038111156156d357600080fd5b612c1b84828501615666565b600082516156f1818460208701614f8b565b9190910192915050565b60006020828403121561570d57600080fd5b5051919050565b634e487b7160e01b600052601160045260246000fd5b60008282101561573c5761573c615714565b500390565b600181811c9082168061575557607f821691505b60208210810361577557634e487b7160e01b600052602260045260246000fd5b50919050565b6020808252602c908201527f46756e6374696f6e206d7573742062652063616c6c6564207468726f7567682060408201526b19195b1959d85d1958d85b1b60a21b606082015260800190565b6020808252602c908201527f46756e6374696f6e206d7573742062652063616c6c6564207468726f7567682060408201526b6163746976652070726f787960a01b606082015260800190565b83815260606020820152600061582c6060830185614fb7565b9050826040830152949350505050565b60208082526025908201527f43616c6c6572206973206e6f74207468652072656769737472792c206e6f722060408201526437bbb732b960d91b606082015260800190565b634e487b7160e01b600052603260045260246000fd5b6020808252818101527f4f776e61626c653a2063616c6c6572206973206e6f7420746865206f776e6572604082015260600190565b600080835481600182811c9150808316806158e857607f831692505b6020808410820361590757634e487b7160e01b86526022600452602486fd5b81801561591b576001811461592c57615959565b60ff19861689528489019650615959565b60008a81526020902060005b868110156159515781548b820152908501908301615938565b505084890196505b509498975050505050505050565b805161264681615512565b60006020828403121561598457600080fd5b8151613e9b81615512565b84815283602082015260018060a01b03831660408201526080606082015260006159bc6080830184614fb7565b9695505050505050565b6040815260006159d96040830185614fb7565b905082151560208301529392505050565b600083516159fc818460208801614f8b565b835190830190615a10818360208801614f8b565b01949350505050565b600060208284031215615a2b57600080fd5b8151613e9b81614ec8565b80516001600160401b038116811461264657600080fd5b600060208284031215615a5f57600080fd5b81516001600160401b0380821115615a7657600080fd5b908301906101808286031215615a8b57600080fd5b615a93615051565b825182811115615aa257600080fd5b615aae87828601615666565b825250615abd60208401615a36565b6020820152615ace60408401615a36565b604082015260608301516060820152615ae960808401615a36565b6080820152615afa60a08401615967565b60a0820152615b0b60c08401615967565b60c082015260e083015182811115615b2257600080fd5b615b2e87828601615666565b60e0830152506101008084015183811115615b4857600080fd5b615b5488828701615666565b8284015250506101208084015183811115615b6e57600080fd5b615b7a88828701615666565b8284015250506101408084015183811115615b9457600080fd5b615ba088828701615666565b8284015250506101608084015183811115615bba57600080fd5b615bc688828701615666565b918301919091525095945050505050565b60208082526032908201527f4552433732313a207472616e7366657220746f206e6f6e20455243373231526560408201527131b2b4bb32b91034b6b83632b6b2b73a32b960711b606082015260800190565b82815260408101613e9b6020830184615193565b6020808252602e908201527f496e697469616c697a61626c653a20636f6e747261637420697320616c72656160408201526d191e481a5b9a5d1a585b1a5e995960921b606082015260800190565b6020808252602b908201527f496e697469616c697a61626c653a20636f6e7472616374206973206e6f74206960408201526a6e697469616c697a696e6760a81b606082015260800190565b60008219821115615ce957615ce9615714565b500190565b6001600160a01b03858116825284166020820152604081018390526080606082018190526000906159bc90830184614fb7565b600060208284031215615d3357600080fd5b8151613e9b81614e95565b7f416363657373436f6e74726f6c3a206163636f756e7420000000000000000000815260008351615d76816017850160208801614f8b565b7001034b99036b4b9b9b4b733903937b6329607d1b6017918401918201528351615da7816028840160208801614f8b565b01602801949350505050565b600060018201615dc557615dc5615714565b5060010190565b634e487b7160e01b600052601260045260246000fd5b600082615df157615df1615dcc565b500490565b600082615e0557615e05615dcc565b500690565b6000816000190483118215151615615e2457615e24615714565b500290565b600081615e3857615e38615714565b506000190190565b634e487b7160e01b600052603160045260246000fdfe360894a13ba1a3210667c828492db98dca3e2076cc3735a920a3ca505d382bbc416464726573733a206c6f772d6c6576656c2064656c65676174652063616c6c206661696c6564546f7563616e2050726f746f636f6c3a20436172626f6e204f666673657420426174636865730ce23c3e399818cfee81a7ab0880f714e53d7672b08df0fa62f2843416e1ea09a2646970667358221220fae2b3b513c803e05660643b32bfea797ee49e90283dcf2f417c252e36feab5f64736f6c634300080e0033496e697469616c697a61626c653a20636f6e747261637420697320616c726561",
  "devdoc": {
    "kind": "dev",
    "methods": {
      "addComment(uint256,string)": {
        "details": "Don't allow the contract owner to comment.  When the contract owner can also be a verifier they should add them as a verifier first; this should prevent accidental comments from the wrong account."
      },
      "approve(address,uint256)": {
        "details": "See {IERC721-approve}."
      },
      "balanceOf(address)": {
        "details": "See {IERC721-balanceOf}."
      },
      "confirmBatch(uint256)": {
        "details": "This flow requires a previous linking with a `projectVintageTokenId`."
      },
      "confirmBatchWithVintage(uint256,uint256)": {
        "details": "Function for main approval flow, which requires passing a `projectVintageTokenId`."
      },
      "constructor": {
        "custom:oz-upgrades-unsafe-allow": "constructor"
      },
      "fractionalize(uint256)": {
        "details": "Queries the factory to find the corresponding TCO2 contract Fractionalization happens via receive hook on `safeTransferFrom`"
      },
      "getApproved(uint256)": {
        "details": "See {IERC721-getApproved}."
      },
      "getBatchNFTData(uint256)": {
        "details": "Used in TCO2 contract's receive hook `onERC721Received`"
      },
      "getComments(uint256)": {
        "details": "This is necessary because the automatically generated nftList getter will not include an array of comments in the returned tuple for gas reasons: https://docs.soliditylang.org/en/latest/contracts.html#visibility-and-getters"
      },
      "getRoleAdmin(bytes32)": {
        "details": "Returns the admin role that controls `role`. See {grantRole} and {revokeRole}. To change a role's admin, use {_setRoleAdmin}."
      },
      "grantRole(bytes32,address)": {
        "details": "Grants `role` to `account`. If `account` had not been already granted `role`, emits a {RoleGranted} event. Requirements: - the caller must have ``role``'s admin role."
      },
      "hasRole(bytes32,address)": {
        "details": "Returns `true` if `account` has been granted `role`."
      },
      "isApprovedForAll(address,address)": {
        "details": "See {IERC721-isApprovedForAll}."
      },
      "linkWithVintage(uint256,uint256)": {
        "details": "Function for alternative flow where Batch-NFT approval is done separately."
      },
      "mintEmptyBatch(address)": {
        "details": "To be updated by NFT owner after serial number has been provided",
        "params": {
          "to": "The address the NFT should be minted to. This should be the user."
        },
        "returns": {
          "_0": "The token ID of the newly minted NFT"
        }
      },
      "name()": {
        "details": "See {IERC721Metadata-name}."
      },
      "owner()": {
        "details": "Returns the address of the current owner."
      },
      "ownerOf(uint256)": {
        "details": "See {IERC721-ownerOf}."
      },
      "pause()": {
        "details": "wraps _pause(), only Admin"
      },
      "paused()": {
        "details": "Returns true if the contract is paused, and false otherwise."
      },
      "proxiableUUID()": {
        "details": "Implementation of the ERC1822 {proxiableUUID} function. This returns the storage slot used by the implementation. It is used to validate that the this implementation remains valid after an upgrade. IMPORTANT: A proxy pointing at a proxiable contract should not be considered proxiable itself, because this risks bricking a proxy that upgrades to it, by delegating to itself until out of gas. Thus it is critical that this function revert if invoked through a proxy. This is guaranteed by the `notDelegated` modifier."
      },
      "rejectApprovedWithComment(uint256,string)": {
        "details": "admin function to reject a previously approved batch Requires that the Batch-NFT has not been fractionalized yet"
      },
      "renounceOwnership()": {
        "details": "Leaves the contract without owner. It will not be possible to call `onlyOwner` functions anymore. Can only be called by the current owner. NOTE: Renouncing ownership will leave the contract without an owner, thereby removing any functionality that is only available to the owner."
      },
      "renounceRole(bytes32,address)": {
        "details": "Revokes `role` from the calling account. Roles are often managed via {grantRole} and {revokeRole}: this function's purpose is to provide a mechanism for accounts to lose their privileges if they are compromised (such as when a trusted device is misplaced). If the calling account had been revoked `role`, emits a {RoleRevoked} event. Requirements: - the caller must be `account`."
      },
      "revokeRole(bytes32,address)": {
        "details": "Revokes `role` from `account`. If `account` had been granted `role`, emits a {RoleRevoked} event. Requirements: - the caller must have ``role``'s admin role."
      },
      "safeTransferFrom(address,address,uint256)": {
        "details": "See {IERC721-safeTransferFrom}."
      },
      "safeTransferFrom(address,address,uint256,bytes)": {
        "details": "See {IERC721-safeTransferFrom}."
      },
      "setApprovalForAll(address,bool)": {
        "details": "See {IERC721-setApprovalForAll}."
      },
      "setSerialandQuantity(uint256,string,uint256)": {
        "details": "Convenience function to only update serial number and quantity and not the serial/URI",
        "params": {
          "newQuantity": "quantity in tCO2e",
          "newSerialNumber": "the serial number received from the registry/credit cancellation"
        }
      },
      "setStatusForDetokenizationOrRetirement(uint256,uint8)": {
        "params": {
          "newStatus": "The new status to set",
          "tokenId": "The tokenId of the batch"
        }
      },
      "symbol()": {
        "details": "See {IERC721Metadata-symbol}."
      },
      "tokenByIndex(uint256)": {
        "details": "See {IERC721Enumerable-tokenByIndex}."
      },
      "tokenOfOwnerByIndex(address,uint256)": {
        "details": "See {IERC721Enumerable-tokenOfOwnerByIndex}."
      },
      "tokenURI(uint256)": {
        "details": "Returns the Uniform Resource Identifier (URI) for `tokenId` token. based on the ERC721URIStorage implementation"
      },
      "tokenize(address,string,uint256,uint256)": {
        "params": {
          "projectVintageTokenId": "Project vintage token ID",
          "quantity": "Quantity to be tokenized in 1e18 format",
          "recipient": "Recipient of the tokens",
          "serialNumber": "Serial number of the carbon credits to be tokenized"
        }
      },
      "totalSupply()": {
        "details": "See {IERC721Enumerable-totalSupply}."
      },
      "transferFrom(address,address,uint256)": {
        "details": "Overridden here because of function overloading issues with ethers.js"
      },
      "transferOwnership(address)": {
        "details": "Transfers ownership of the contract to a new account (`newOwner`). Can only be called by the current owner."
      },
      "unpause()": {
        "details": "unpause the system, wraps _unpause(), only Admin"
      },
      "unsetSerialNumber(string)": {
        "details": "Function to remove uniqueness for previously set serialnumbers. N.B. even though (technically speaking) calling this to complete the upgrade to a fixed contract is the responsibility of the contract's owner (deployer), in practice that is a multi-sig even before upgrade, and unsetting a bunch of serials via multi-sig is not practical. So instead we allow the verifiers to do it."
      },
      "updateBatchWithData(uint256,string,uint256,string)": {
        "details": "Data is usually inserted by the user (NFT owner) via the UI",
        "params": {
          "quantity": "quantity in tCO2e",
          "serialNumber": "the serial number received from the registry/credit cancellation",
          "tokenId": "the Batch-NFT",
          "uri": "optional tokenURI with additional information"
        }
      },
      "upgradeTo(address)": {
        "details": "Upgrade the implementation of the proxy to `newImplementation`. Calls {_authorizeUpgrade}. Emits an {Upgraded} event."
      },
      "upgradeToAndCall(address,bytes)": {
        "details": "Upgrade the implementation of the proxy to `newImplementation`, and subsequently execute the function call encoded in `data`. Calls {_authorizeUpgrade}. Emits an {Upgraded} event."
      }
    },
    "stateVariables": {
      "VERIFIER_ROLE": {
        "details": "All roles related to accessing this contract"
      },
      "VERSION": {
        "details": "Version-related parameters. VERSION keeps track of production releases. VERSION_RELEASE_CANDIDATE keeps track of iterations of a VERSION in our staging environment."
      }
    },
    "version": 1
  },
  "userdoc": {
    "kind": "user",
    "methods": {
      "addComment(uint256,string)": {
        "notice": "Append a comment to a Batch-NFT"
      },
      "confirmBatch(uint256)": {
        "notice": "Function to approve a Batch-NFT after validation. Fractionalization requires status Confirmed."
      },
      "fractionalize(uint256)": {
        "notice": "Function that automatically converts Batch-NFT to TCO2 (ERC20)"
      },
      "getBatchNFTData(uint256)": {
        "notice": "Returns all data from Batch-NFT"
      },
      "getConfirmationStatus(uint256)": {
        "notice": "Returns just the confirmation (approval) status of Batch-NFT"
      },
      "mintEmptyBatch(address)": {
        "notice": "Permissionlessly mint empty BatchNFTs Entry point to the carbon bridging process."
      },
      "pause()": {
        "notice": "Emergency function to disable contract's core functionality"
      },
      "rejectRetirement(uint256)": {
        "notice": "Function to reject Batch-NFTs, e.g. if the serial number entered is incorrect."
      },
      "rejectWithComment(uint256,string)": {
        "notice": "Function to reject Batch-NFTs, including a reason to be displayed to the user."
      },
      "setStatusForDetokenizationOrRetirement(uint256,uint8)": {
        "notice": "Set the status of a batch to a new status for detokenization or retirement requests. Valid transitions: - In case a user makes a request:   - Confirmed -> DetokenizationRequested   - Confirmed -> RetirementRequested - In case a DETOKENIZER_ROLE in TCO2 finalizes a request:   - DetokenizationRequested -> DetokenizationFinalized   - RetirementRequested -> RetirementFinalized - In case a DETOKENIZER_ROLE in TCO2 reverts a request:   - DetokenizationRequested -> Confirmed   - RetirementRequested -> Confirmed"
      },
      "setToPending(uint256)": {
        "notice": "Set batches back to pending after a rejection. This can be useful if there was an issue unrelated to the on-chain data of the batch, e.g. the batch was incorrectly rejected."
      },
      "tokenize(address,string,uint256,uint256)": {
        "notice": "This function allows external APIs to tokenize their carbon credits"
      },
      "updateBatchWithData(uint256,string,uint256,string)": {
        "notice": "Updates BatchNFT after Serialnumber has been verified"
      }
    },
    "notice": "Also referred to as Batch-Contract (formerly BatchCollection) Contract that tokenizes retired/cancelled CO2 credits into NFTs via a claims process",
    "version": 1
  },
  "storageLayout": {
    "storage": [
      {
        "astId": 1489,
        "contract": "contracts/CarbonOffsetBatches.sol:CarbonOffsetBatches",
        "label": "_initialized",
        "offset": 0,
        "slot": "0",
        "type": "t_uint8"
      },
      {
        "astId": 1492,
        "contract": "contracts/CarbonOffsetBatches.sol:CarbonOffsetBatches",
        "label": "_initializing",
        "offset": 1,
        "slot": "0",
        "type": "t_bool"
      },
      {
        "astId": 4593,
        "contract": "contracts/CarbonOffsetBatches.sol:CarbonOffsetBatches",
        "label": "__gap",
        "offset": 0,
        "slot": "1",
        "type": "t_array(t_uint256)50_storage"
      },
      {
        "astId": 4900,
        "contract": "contracts/CarbonOffsetBatches.sol:CarbonOffsetBatches",
        "label": "__gap",
        "offset": 0,
        "slot": "51",
        "type": "t_array(t_uint256)50_storage"
      },
      {
        "astId": 2897,
        "contract": "contracts/CarbonOffsetBatches.sol:CarbonOffsetBatches",
        "label": "_name",
        "offset": 0,
        "slot": "101",
        "type": "t_string_storage"
      },
      {
        "astId": 2899,
        "contract": "contracts/CarbonOffsetBatches.sol:CarbonOffsetBatches",
        "label": "_symbol",
        "offset": 0,
        "slot": "102",
        "type": "t_string_storage"
      },
      {
        "astId": 2903,
        "contract": "contracts/CarbonOffsetBatches.sol:CarbonOffsetBatches",
        "label": "_owners",
        "offset": 0,
        "slot": "103",
        "type": "t_mapping(t_uint256,t_address)"
      },
      {
        "astId": 2907,
        "contract": "contracts/CarbonOffsetBatches.sol:CarbonOffsetBatches",
        "label": "_balances",
        "offset": 0,
        "slot": "104",
        "type": "t_mapping(t_address,t_uint256)"
      },
      {
        "astId": 2911,
        "contract": "contracts/CarbonOffsetBatches.sol:CarbonOffsetBatches",
        "label": "_tokenApprovals",
        "offset": 0,
        "slot": "105",
        "type": "t_mapping(t_uint256,t_address)"
      },
      {
        "astId": 2917,
        "contract": "contracts/CarbonOffsetBatches.sol:CarbonOffsetBatches",
        "label": "_operatorApprovals",
        "offset": 0,
        "slot": "106",
        "type": "t_mapping(t_address,t_mapping(t_address,t_bool))"
      },
      {
        "astId": 3758,
        "contract": "contracts/CarbonOffsetBatches.sol:CarbonOffsetBatches",
        "label": "__gap",
        "offset": 0,
        "slot": "107",
        "type": "t_array(t_uint256)44_storage"
      },
      {
        "astId": 3923,
        "contract": "contracts/CarbonOffsetBatches.sol:CarbonOffsetBatches",
        "label": "_ownedTokens",
        "offset": 0,
        "slot": "151",
        "type": "t_mapping(t_address,t_mapping(t_uint256,t_uint256))"
      },
      {
        "astId": 3927,
        "contract": "contracts/CarbonOffsetBatches.sol:CarbonOffsetBatches",
        "label": "_ownedTokensIndex",
        "offset": 0,
        "slot": "152",
        "type": "t_mapping(t_uint256,t_uint256)"
      },
      {
        "astId": 3930,
        "contract": "contracts/CarbonOffsetBatches.sol:CarbonOffsetBatches",
        "label": "_allTokens",
        "offset": 0,
        "slot": "153",
        "type": "t_array(t_uint256)dyn_storage"
      },
      {
        "astId": 3934,
        "contract": "contracts/CarbonOffsetBatches.sol:CarbonOffsetBatches",
        "label": "_allTokensIndex",
        "offset": 0,
        "slot": "154",
        "type": "t_mapping(t_uint256,t_uint256)"
      },
      {
        "astId": 4250,
        "contract": "contracts/CarbonOffsetBatches.sol:CarbonOffsetBatches",
        "label": "__gap",
        "offset": 0,
        "slot": "155",
        "type": "t_array(t_uint256)46_storage"
      },
      {
        "astId": 980,
        "contract": "contracts/CarbonOffsetBatches.sol:CarbonOffsetBatches",
        "label": "_owner",
        "offset": 0,
        "slot": "201",
        "type": "t_address"
      },
      {
        "astId": 1092,
        "contract": "contracts/CarbonOffsetBatches.sol:CarbonOffsetBatches",
        "label": "__gap",
        "offset": 0,
        "slot": "202",
        "type": "t_array(t_uint256)49_storage"
      },
      {
        "astId": 1781,
        "contract": "contracts/CarbonOffsetBatches.sol:CarbonOffsetBatches",
        "label": "_paused",
        "offset": 0,
        "slot": "251",
        "type": "t_bool"
      },
      {
        "astId": 1870,
        "contract": "contracts/CarbonOffsetBatches.sol:CarbonOffsetBatches",
        "label": "__gap",
        "offset": 0,
        "slot": "252",
        "type": "t_array(t_uint256)49_storage"
      },
      {
        "astId": 596,
        "contract": "contracts/CarbonOffsetBatches.sol:CarbonOffsetBatches",
        "label": "_roles",
        "offset": 0,
        "slot": "301",
        "type": "t_mapping(t_bytes32,t_struct(RoleData)591_storage)"
      },
      {
        "astId": 895,
        "contract": "contracts/CarbonOffsetBatches.sol:CarbonOffsetBatches",
        "label": "__gap",
        "offset": 0,
        "slot": "302",
        "type": "t_array(t_uint256)49_storage"
      },
      {
        "astId": 1471,
        "contract": "contracts/CarbonOffsetBatches.sol:CarbonOffsetBatches",
        "label": "__gap",
        "offset": 0,
        "slot": "351",
        "type": "t_array(t_uint256)50_storage"
      },
      {
        "astId": 1759,
        "contract": "contracts/CarbonOffsetBatches.sol:CarbonOffsetBatches",
        "label": "__gap",
        "offset": 0,
        "slot": "401",
        "type": "t_array(t_uint256)50_storage"
      },
      {
        "astId": 8483,
        "contract": "contracts/CarbonOffsetBatches.sol:CarbonOffsetBatches",
        "label": "batchTokenCounter",
        "offset": 0,
        "slot": "451",
        "type": "t_uint256"
      },
      {
        "astId": 8488,
        "contract": "contracts/CarbonOffsetBatches.sol:CarbonOffsetBatches",
        "label": "serialNumberApproved",
        "offset": 0,
        "slot": "452",
        "type": "t_mapping(t_string_memory_ptr,t_bool)"
      },
      {
        "astId": 8492,
        "contract": "contracts/CarbonOffsetBatches.sol:CarbonOffsetBatches",
        "label": "DEPRECATED_URIs",
        "offset": 0,
        "slot": "453",
        "type": "t_mapping(t_string_memory_ptr,t_bool)"
      },
      {
        "astId": 8496,
        "contract": "contracts/CarbonOffsetBatches.sol:CarbonOffsetBatches",
        "label": "verifiers",
        "offset": 0,
        "slot": "454",
        "type": "t_mapping(t_address,t_bool)"
      },
      {
        "astId": 8498,
        "contract": "contracts/CarbonOffsetBatches.sol:CarbonOffsetBatches",
        "label": "baseURI",
        "offset": 0,
        "slot": "455",
        "type": "t_string_storage"
      },
      {
        "astId": 8500,
        "contract": "contracts/CarbonOffsetBatches.sol:CarbonOffsetBatches",
        "label": "contractRegistry",
        "offset": 0,
        "slot": "456",
        "type": "t_address"
      },
      {
        "astId": 8523,
        "contract": "contracts/CarbonOffsetBatches.sol:CarbonOffsetBatches",
        "label": "nftList",
        "offset": 0,
        "slot": "457",
        "type": "t_mapping(t_uint256,t_struct(NFTData)8518_storage)"
      },
      {
        "astId": 8528,
        "contract": "contracts/CarbonOffsetBatches.sol:CarbonOffsetBatches",
        "label": "supportedRegistries",
        "offset": 0,
        "slot": "458",
        "type": "t_mapping(t_string_memory_ptr,t_bool)"
      }
    ],
    "types": {
      "t_address": {
        "encoding": "inplace",
        "label": "address",
        "numberOfBytes": "20"
      },
      "t_array(t_address)dyn_storage": {
        "base": "t_address",
        "encoding": "dynamic_array",
        "label": "address[]",
        "numberOfBytes": "32"
      },
      "t_array(t_string_storage)dyn_storage": {
        "base": "t_string_storage",
        "encoding": "dynamic_array",
        "label": "string[]",
        "numberOfBytes": "32"
      },
      "t_array(t_uint256)44_storage": {
        "base": "t_uint256",
        "encoding": "inplace",
        "label": "uint256[44]",
        "numberOfBytes": "1408"
      },
      "t_array(t_uint256)46_storage": {
        "base": "t_uint256",
        "encoding": "inplace",
        "label": "uint256[46]",
        "numberOfBytes": "1472"
      },
      "t_array(t_uint256)49_storage": {
        "base": "t_uint256",
        "encoding": "inplace",
        "label": "uint256[49]",
        "numberOfBytes": "1568"
      },
      "t_array(t_uint256)50_storage": {
        "base": "t_uint256",
        "encoding": "inplace",
        "label": "uint256[50]",
        "numberOfBytes": "1600"
      },
      "t_array(t_uint256)dyn_storage": {
        "base": "t_uint256",
        "encoding": "dynamic_array",
        "label": "uint256[]",
        "numberOfBytes": "32"
      },
      "t_bool": {
        "encoding": "inplace",
        "label": "bool",
        "numberOfBytes": "1"
      },
      "t_bytes32": {
        "encoding": "inplace",
        "label": "bytes32",
        "numberOfBytes": "32"
      },
      "t_enum(BatchStatus)8544": {
        "encoding": "inplace",
        "label": "enum BatchStatus",
        "numberOfBytes": "1"
      },
      "t_mapping(t_address,t_bool)": {
        "encoding": "mapping",
        "key": "t_address",
        "label": "mapping(address => bool)",
        "numberOfBytes": "32",
        "value": "t_bool"
      },
      "t_mapping(t_address,t_mapping(t_address,t_bool))": {
        "encoding": "mapping",
        "key": "t_address",
        "label": "mapping(address => mapping(address => bool))",
        "numberOfBytes": "32",
        "value": "t_mapping(t_address,t_bool)"
      },
      "t_mapping(t_address,t_mapping(t_uint256,t_uint256))": {
        "encoding": "mapping",
        "key": "t_address",
        "label": "mapping(address => mapping(uint256 => uint256))",
        "numberOfBytes": "32",
        "value": "t_mapping(t_uint256,t_uint256)"
      },
      "t_mapping(t_address,t_uint256)": {
        "encoding": "mapping",
        "key": "t_address",
        "label": "mapping(address => uint256)",
        "numberOfBytes": "32",
        "value": "t_uint256"
      },
      "t_mapping(t_bytes32,t_struct(RoleData)591_storage)": {
        "encoding": "mapping",
        "key": "t_bytes32",
        "label": "mapping(bytes32 => struct AccessControlUpgradeable.RoleData)",
        "numberOfBytes": "32",
        "value": "t_struct(RoleData)591_storage"
      },
      "t_mapping(t_string_memory_ptr,t_bool)": {
        "encoding": "mapping",
        "key": "t_string_memory_ptr",
        "label": "mapping(string => bool)",
        "numberOfBytes": "32",
        "value": "t_bool"
      },
      "t_mapping(t_uint256,t_address)": {
        "encoding": "mapping",
        "key": "t_uint256",
        "label": "mapping(uint256 => address)",
        "numberOfBytes": "32",
        "value": "t_address"
      },
      "t_mapping(t_uint256,t_struct(NFTData)8518_storage)": {
        "encoding": "mapping",
        "key": "t_uint256",
        "label": "mapping(uint256 => struct CarbonOffsetBatchesStorageV1.NFTData)",
        "numberOfBytes": "32",
        "value": "t_struct(NFTData)8518_storage"
      },
      "t_mapping(t_uint256,t_uint256)": {
        "encoding": "mapping",
        "key": "t_uint256",
        "label": "mapping(uint256 => uint256)",
        "numberOfBytes": "32",
        "value": "t_uint256"
      },
      "t_string_memory_ptr": {
        "encoding": "bytes",
        "label": "string",
        "numberOfBytes": "32"
      },
      "t_string_storage": {
        "encoding": "bytes",
        "label": "string",
        "numberOfBytes": "32"
      },
      "t_struct(NFTData)8518_storage": {
        "encoding": "inplace",
        "label": "struct CarbonOffsetBatchesStorageV1.NFTData",
        "members": [
          {
            "astId": 8502,
            "contract": "contracts/CarbonOffsetBatches.sol:CarbonOffsetBatches",
            "label": "projectVintageTokenId",
            "offset": 0,
            "slot": "0",
            "type": "t_uint256"
          },
          {
            "astId": 8504,
            "contract": "contracts/CarbonOffsetBatches.sol:CarbonOffsetBatches",
            "label": "serialNumber",
            "offset": 0,
            "slot": "1",
            "type": "t_string_storage"
          },
          {
            "astId": 8506,
            "contract": "contracts/CarbonOffsetBatches.sol:CarbonOffsetBatches",
            "label": "quantity",
            "offset": 0,
            "slot": "2",
            "type": "t_uint256"
          },
          {
            "astId": 8509,
            "contract": "contracts/CarbonOffsetBatches.sol:CarbonOffsetBatches",
            "label": "status",
            "offset": 0,
            "slot": "3",
            "type": "t_enum(BatchStatus)8544"
          },
          {
            "astId": 8511,
            "contract": "contracts/CarbonOffsetBatches.sol:CarbonOffsetBatches",
            "label": "uri",
            "offset": 0,
            "slot": "4",
            "type": "t_string_storage"
          },
          {
            "astId": 8514,
            "contract": "contracts/CarbonOffsetBatches.sol:CarbonOffsetBatches",
            "label": "comments",
            "offset": 0,
            "slot": "5",
            "type": "t_array(t_string_storage)dyn_storage"
          },
          {
            "astId": 8517,
            "contract": "contracts/CarbonOffsetBatches.sol:CarbonOffsetBatches",
            "label": "commentAuthors",
            "offset": 0,
            "slot": "6",
            "type": "t_array(t_address)dyn_storage"
          }
        ],
        "numberOfBytes": "224"
      },
      "t_struct(RoleData)591_storage": {
        "encoding": "inplace",
        "label": "struct AccessControlUpgradeable.RoleData",
        "members": [
          {
            "astId": 588,
            "contract": "contracts/CarbonOffsetBatches.sol:CarbonOffsetBatches",
            "label": "members",
            "offset": 0,
            "slot": "0",
            "type": "t_mapping(t_address,t_bool)"
          },
          {
            "astId": 590,
            "contract": "contracts/CarbonOffsetBatches.sol:CarbonOffsetBatches",
            "label": "adminRole",
            "offset": 0,
            "slot": "1",
            "type": "t_bytes32"
          }
        ],
        "numberOfBytes": "64"
      },
      "t_uint256": {
        "encoding": "inplace",
        "label": "uint256",
        "numberOfBytes": "32"
      },
      "t_uint8": {
        "encoding": "inplace",
        "label": "uint8",
        "numberOfBytes": "1"
      }
    }
  }
}