{
  "address": "0x60F8CCDce379307AD3cC2c9a940D10C8d2B0152d",
  "abi": [
    {
      "inputs": [],
      "stateMutability": "nonpayable",
      "type": "constructor"
    },
    {
      "inputs": [
        {
          "internalType": "uint256",
          "name": "x",
          "type": "uint256"
        },
        {
          "internalType": "uint256",
          "name": "y",
          "type": "uint256"
        }
      ],
      "name": "PRBMath_MulDiv18_Overflow",
      "type": "error"
    },
    {
      "inputs": [
        {
          "internalType": "uint256",
          "name": "x",
          "type": "uint256"
        },
        {
          "internalType": "uint256",
          "name": "y",
          "type": "uint256"
        },
        {
          "internalType": "uint256",
          "name": "denominator",
          "type": "uint256"
        }
      ],
      "name": "PRBMath_MulDiv_Overflow",
      "type": "error"
    },
    {
      "inputs": [],
      "name": "PRBMath_SD59x18_Div_InputTooSmall",
      "type": "error"
    },
    {
      "inputs": [
        {
          "internalType": "SD59x18",
          "name": "x",
          "type": "int256"
        },
        {
          "internalType": "SD59x18",
          "name": "y",
          "type": "int256"
        }
      ],
      "name": "PRBMath_SD59x18_Div_Overflow",
      "type": "error"
    },
    {
      "inputs": [
        {
          "internalType": "SD59x18",
          "name": "x",
          "type": "int256"
        }
      ],
      "name": "PRBMath_SD59x18_IntoUint256_Underflow",
      "type": "error"
    },
    {
      "inputs": [
        {
          "internalType": "SD59x18",
          "name": "x",
          "type": "int256"
        }
      ],
      "name": "PRBMath_SD59x18_Log_InputTooSmall",
      "type": "error"
    },
    {
      "inputs": [],
      "name": "PRBMath_SD59x18_Mul_InputTooSmall",
      "type": "error"
    },
    {
      "inputs": [
        {
          "internalType": "SD59x18",
          "name": "x",
          "type": "int256"
        },
        {
          "internalType": "SD59x18",
          "name": "y",
          "type": "int256"
        }
      ],
      "name": "PRBMath_SD59x18_Mul_Overflow",
      "type": "error"
    },
    {
      "anonymous": false,
      "inputs": [
        {
          "indexed": false,
          "internalType": "int256",
          "name": "depositFeeRatioScale",
          "type": "int256"
        }
      ],
      "name": "DepositFeeRatioUpdated",
      "type": "event"
    },
    {
      "anonymous": false,
      "inputs": [
        {
          "indexed": false,
          "internalType": "int256",
          "name": "depositFeeScale",
          "type": "int256"
        }
      ],
      "name": "DepositFeeScaleUpdated",
      "type": "event"
    },
    {
      "anonymous": false,
      "inputs": [
        {
          "indexed": false,
          "internalType": "int256",
          "name": "dustAssetRedemptionRelativeFee",
          "type": "int256"
        }
      ],
      "name": "DustAssetRedemptionRelativeFeeUpdated",
      "type": "event"
    },
    {
      "anonymous": false,
      "inputs": [
        {
          "indexed": false,
          "internalType": "address[]",
          "name": "recipients",
          "type": "address[]"
        },
        {
          "indexed": false,
          "internalType": "uint256[]",
          "name": "shares",
          "type": "uint256[]"
        }
      ],
      "name": "FeeSetup",
      "type": "event"
    },
    {
      "anonymous": false,
      "inputs": [
        {
          "indexed": true,
          "internalType": "address",
          "name": "previousOwner",
          "type": "address"
        },
        {
          "indexed": true,
          "internalType": "address",
          "name": "newOwner",
          "type": "address"
        }
      ],
      "name": "OwnershipTransferred",
      "type": "event"
    },
    {
      "anonymous": false,
      "inputs": [
        {
          "indexed": false,
          "internalType": "int256",
          "name": "redemptionFeeScale",
          "type": "int256"
        }
      ],
      "name": "RedemptionFeeScaleUpdated",
      "type": "event"
    },
    {
      "anonymous": false,
      "inputs": [
        {
          "indexed": false,
          "internalType": "int256",
          "name": "redemptionFeeShift",
          "type": "int256"
        }
      ],
      "name": "RedemptionFeeShift",
      "type": "event"
    },
    {
      "anonymous": false,
      "inputs": [
        {
          "indexed": false,
          "internalType": "int256",
          "name": "singleAssetDepositRelativeFee",
          "type": "int256"
        }
      ],
      "name": "SingleAssetDepositRelativeFeeUpdated",
      "type": "event"
    },
    {
      "anonymous": false,
      "inputs": [
        {
          "indexed": false,
          "internalType": "int256",
          "name": "singleAssetRedemptionRelativeFee",
          "type": "int256"
        }
      ],
      "name": "SingleAssetRedemptionRelativeFeeUpdated",
      "type": "event"
    },
    {
      "inputs": [
        {
          "internalType": "address",
          "name": "pool",
          "type": "address"
        },
        {
          "internalType": "address",
          "name": "tco2",
          "type": "address"
        },
        {
          "internalType": "uint256",
          "name": "depositAmount",
          "type": "uint256"
        }
      ],
      "name": "calculateDepositFees",
      "outputs": [
        {
          "components": [
            {
              "internalType": "address[]",
              "name": "recipients",
              "type": "address[]"
            },
            {
              "internalType": "uint256[]",
              "name": "shares",
              "type": "uint256[]"
            }
          ],
          "internalType": "struct FeeDistribution",
          "name": "feeDistribution",
          "type": "tuple"
        }
      ],
      "stateMutability": "view",
      "type": "function"
    },
    {
      "inputs": [
        {
          "internalType": "address",
          "name": "pool",
          "type": "address"
        },
        {
          "internalType": "address[]",
          "name": "tco2s",
          "type": "address[]"
        },
        {
          "internalType": "uint256[]",
          "name": "redemptionAmounts",
          "type": "uint256[]"
        }
      ],
      "name": "calculateRedemptionFees",
      "outputs": [
        {
          "components": [
            {
              "internalType": "address[]",
              "name": "recipients",
              "type": "address[]"
            },
            {
              "internalType": "uint256[]",
              "name": "shares",
              "type": "uint256[]"
            }
          ],
          "internalType": "struct FeeDistribution",
          "name": "feeDistribution",
          "type": "tuple"
        }
      ],
      "stateMutability": "view",
      "type": "function"
    },
    {
      "inputs": [],
      "name": "depositFeeRatioScale",
      "outputs": [
        {
          "internalType": "SD59x18",
          "name": "",
          "type": "int256"
        }
      ],
      "stateMutability": "view",
      "type": "function"
    },
    {
      "inputs": [],
      "name": "depositFeeScale",
      "outputs": [
        {
          "internalType": "SD59x18",
          "name": "",
          "type": "int256"
        }
      ],
      "stateMutability": "view",
      "type": "function"
    },
    {
      "inputs": [],
      "name": "dustAssetRedemptionRelativeFee",
      "outputs": [
        {
          "internalType": "SD59x18",
          "name": "",
          "type": "int256"
        }
      ],
      "stateMutability": "view",
      "type": "function"
    },
    {
      "inputs": [
        {
          "internalType": "address[]",
          "name": "recipients",
          "type": "address[]"
        },
        {
          "internalType": "uint256[]",
          "name": "shares",
          "type": "uint256[]"
        }
      ],
      "name": "feeSetup",
      "outputs": [],
      "stateMutability": "nonpayable",
      "type": "function"
    },
    {
      "inputs": [],
      "name": "getFeeSetup",
      "outputs": [
        {
          "internalType": "address[]",
          "name": "recipients",
          "type": "address[]"
        },
        {
          "internalType": "uint256[]",
          "name": "shares",
          "type": "uint256[]"
        }
      ],
      "stateMutability": "view",
      "type": "function"
    },
    {
      "inputs": [],
      "name": "owner",
      "outputs": [
        {
          "internalType": "address",
          "name": "",
          "type": "address"
        }
      ],
      "stateMutability": "view",
      "type": "function"
    },
    {
      "inputs": [],
      "name": "redemptionFeeConstant",
      "outputs": [
        {
          "internalType": "SD59x18",
          "name": "",
          "type": "int256"
        }
      ],
      "stateMutability": "view",
      "type": "function"
    },
    {
      "inputs": [],
      "name": "redemptionFeeScale",
      "outputs": [
        {
          "internalType": "SD59x18",
          "name": "",
          "type": "int256"
        }
      ],
      "stateMutability": "view",
      "type": "function"
    },
    {
      "inputs": [],
      "name": "redemptionFeeShift",
      "outputs": [
        {
          "internalType": "SD59x18",
          "name": "",
          "type": "int256"
        }
      ],
      "stateMutability": "view",
      "type": "function"
    },
    {
      "inputs": [],
      "name": "renounceOwnership",
      "outputs": [],
      "stateMutability": "nonpayable",
      "type": "function"
    },
    {
      "inputs": [
        {
          "internalType": "int256",
          "name": "_depositFeeRatioScale",
          "type": "int256"
        }
      ],
      "name": "setDepositFeeRatioScale",
      "outputs": [],
      "stateMutability": "nonpayable",
      "type": "function"
    },
    {
      "inputs": [
        {
          "internalType": "int256",
          "name": "_depositFeeScale",
          "type": "int256"
        }
      ],
      "name": "setDepositFeeScale",
      "outputs": [],
      "stateMutability": "nonpayable",
      "type": "function"
    },
    {
      "inputs": [
        {
          "internalType": "int256",
          "name": "_dustAssetRedemptionRelativeFee",
          "type": "int256"
        }
      ],
      "name": "setDustAssetRedemptionRelativeFee",
      "outputs": [],
      "stateMutability": "nonpayable",
      "type": "function"
    },
    {
      "inputs": [
        {
          "internalType": "int256",
          "name": "_redemptionFeeScale",
          "type": "int256"
        }
      ],
      "name": "setRedemptionFeeScale",
      "outputs": [],
      "stateMutability": "nonpayable",
      "type": "function"
    },
    {
      "inputs": [
        {
          "internalType": "int256",
          "name": "_redemptionFeeShift",
          "type": "int256"
        }
      ],
      "name": "setRedemptionFeeShift",
      "outputs": [],
      "stateMutability": "nonpayable",
      "type": "function"
    },
    {
      "inputs": [
        {
          "internalType": "int256",
          "name": "_singleAssetDepositRelativeFee",
          "type": "int256"
        }
      ],
      "name": "setSingleAssetDepositRelativeFee",
      "outputs": [],
      "stateMutability": "nonpayable",
      "type": "function"
    },
    {
      "inputs": [
        {
          "internalType": "int256",
          "name": "_singleAssetRedemptionRelativeFee",
          "type": "int256"
        }
      ],
      "name": "setSingleAssetRedemptionRelativeFee",
      "outputs": [],
      "stateMutability": "nonpayable",
      "type": "function"
    },
    {
      "inputs": [],
      "name": "singleAssetDepositRelativeFee",
      "outputs": [
        {
          "internalType": "SD59x18",
          "name": "",
          "type": "int256"
        }
      ],
      "stateMutability": "view",
      "type": "function"
    },
    {
      "inputs": [],
      "name": "singleAssetRedemptionRelativeFee",
      "outputs": [
        {
          "internalType": "SD59x18",
          "name": "",
          "type": "int256"
        }
      ],
      "stateMutability": "view",
      "type": "function"
    },
    {
      "inputs": [
        {
          "internalType": "address",
          "name": "newOwner",
          "type": "address"
        }
      ],
      "name": "transferOwnership",
      "outputs": [],
      "stateMutability": "nonpayable",
      "type": "function"
    }
  ],
  "transactionHash": "0x750ebc4975ad99d6a5a8ff2d911db65b8152d7bc6e7a9a11005290121b07f202",
  "args": [],
  "numDeployments": 1,
  "solcInputHash": "da3a730f01a9bec306f2cb8c04f42197",
  "bytecode": "0x60806040526000600155670de0b6b3a7640000600255670214e8348c4f0000600355671158e460913d000060045567016345785d8a0000600555670429d069189e000060065567016345785d8a000060075567016345785d8a0000600855670429d069189e000060095534801561007557600080fd5b5061007f33610084565b6100d4565b600080546001600160a01b038381166001600160a01b0319831681178455604051919092169283917f8be0079c531659141344cd1fd0a4f28419497f9722a3daafe3b4186f6b6457e09190a35050565b6130a180620000e46000396000f3fe608060405234801561001057600080fd5b50600436106101425760003560e01c80638da5cb5b116100b8578063abb064ca1161007c578063abb064ca14610264578063bf1204341461026c578063dd05ce6b14610282578063e28164731461028b578063eba466d314610294578063f2fde38b146102a757600080fd5b80638da5cb5b14610211578063974eda351461022c5780639db35c25146102355780639ef3009d1461023e578063a5bd84c21461025157600080fd5b8063661253d91161010a578063661253d9146101b1578063697f9899146101c45780636a1e618d146101d75780636fa1dc0b146101e0578063715018a6146101e95780638925ba9f146101f157600080fd5b80630f996f481461014757806332a278451461015c5780633716d4061461016f578063508cde861461018257806357d46b3214610195575b600080fd5b61015a61015536600461281d565b6102ba565b005b61015a61016a36600461281d565b6103b7565b61015a61017d36600461281d565b61047a565b61015a61019036600461281d565b610566565b61019e60095481565b6040519081526020015b60405180910390f35b61015a6101bf36600461281d565b610652565b61015a6101d236600461281d565b61072d565b61019e60045481565b61019e60085481565b61015a610808565b6102046101ff366004612852565b61083e565b6040516101a8919061288e565b6000546040516001600160a01b0390911681526020016101a8565b61019e60065481565b61019e60055481565b61015a61024c366004612a2c565b610989565b61020461025f366004612b38565b610b20565b61019e610d38565b610274610d60565b6040516101a8929190612bb9565b61019e60035481565b61019e60075481565b61015a6102a236600461281d565b610e17565b61015a6102b5366004612c3d565b610eef565b6000546001600160a01b031633146102ed5760405162461bcd60e51b81526004016102e490612c58565b60405180910390fd5b60015481908112158015610308575061030881600254121590565b61037a5760405162461bcd60e51b815260206004820152603c60248201527f53696e676c6520617373657420726564656d7074696f6e2072656c617469766560448201527f20666565206d757374206265206265747765656e203020616e6420310000000060648201526084016102e4565b60088190556040518281527f5af12456349aaae1c9dc69375e338430841f6a6f05105e501d56fc2514418a31906020015b60405180910390a15050565b6000546001600160a01b031633146103e15760405162461bcd60e51b81526004016102e490612c58565b60015481908112156104455760405162461bcd60e51b815260206004820152602760248201527f4465706f7369742066656520726174696f207363616c65206d75737420626520604482015266061626f766520360cc1b60648201526084016102e4565b60048190556040518281527f4f9680849c43eb85eb1b0142482e79a26890e877524f261a0ed86ea7be8f20ca906020016103ab565b6000546001600160a01b031633146104a45760405162461bcd60e51b81526004016102e490612c58565b600154819081121580156104bf57506104bf81600254121590565b6105315760405162461bcd60e51b815260206004820152603a60248201527f4475737420617373657420726564656d7074696f6e2072656c6174697665206660448201527f6565206d757374206265206265747765656e203020616e64203100000000000060648201526084016102e4565b60098190556040518281527f180d823d0bc54fe541a2bb335828cf366ab7293da838f29df39361808cd9c758906020016103ab565b6000546001600160a01b031633146105905760405162461bcd60e51b81526004016102e490612c58565b600154819081121580156105ab57506105ab81600254121590565b61061d5760405162461bcd60e51b815260206004820152603960248201527f53696e676c65206173736574206465706f7369742072656c617469766520666560448201527f65206d757374206265206265747765656e203020616e6420310000000000000060648201526084016102e4565b60058190556040518281527f04c04e3eb445b86958478734ef25a95fac6ef0d376acd23d287df8c9d7efb8e5906020016103ab565b6000546001600160a01b0316331461067c5760405162461bcd60e51b81526004016102e490612c58565b60015481908112158015610697575061069781600254121590565b6106f85760405162461bcd60e51b815260206004820152602c60248201527f526564656d7074696f6e20666565207368696674206d7573742062652062657460448201526b7765656e203020616e64203160a01b60648201526084016102e4565b60078190556040518281527fe312553748dac9766e2f27b24aba2f69b130f19142b9389c429eecb4f8cfb463906020016103ab565b6000546001600160a01b031633146107575760405162461bcd60e51b81526004016102e490612c58565b60015481908112158015610772575061077281600254121590565b6107d35760405162461bcd60e51b815260206004820152602c60248201527f526564656d7074696f6e20666565207363616c65206d7573742062652062657460448201526b7765656e203020616e64203160a01b60648201526084016102e4565b60068190556040518281527fa2661aa8404d9caaaf68a5791d6c5bd8763f88835b5ec034e5a663467b5ecc5a906020016103ab565b6000546001600160a01b031633146108325760405162461bcd60e51b81526004016102e490612c58565b61083c6000610f8d565b565b6040805180820190915260608082526020820152600082116108a25760405162461bcd60e51b815260206004820152601960248201527f6465706f736974416d6f756e74206d757374206265203e20300000000000000060448201526064016102e4565b60006108c0836108b28787610fdd565b6108bb886110c8565b611134565b9050828111156109275760405162461bcd60e51b815260206004820152602c60248201527f466565206d757374206265206c6f776572206f7220657175616c20746f20646560448201526b1c1bdcda5d08185b5bdd5b9d60a21b60648201526084016102e4565b600081116109775760405162461bcd60e51b815260206004820152601a60248201527f466565206d7573742062652067726561746572207468616e203000000000000060448201526064016102e4565b61098081611264565b95945050505050565b6000546001600160a01b031633146109b35760405162461bcd60e51b81526004016102e490612c58565b8051825114610a235760405162461bcd60e51b815260206004820152603660248201527f526563697069656e747320616e642073686172657320617272617973206d75736044820152750e840d0c2ecca40e8d0ca40e6c2daca40d8cadccee8d60531b60648201526084016102e4565b6000805b8251811015610a6957828181518110610a4257610a42612c8d565b602002602001015182610a559190612cb9565b915080610a6181612ccc565b915050610a27565b5080606414610aba5760405162461bcd60e51b815260206004820152601b60248201527f546f74616c20736861726573206d75737420657175616c20313030000000000060448201526064016102e4565b8251610acd90600a906020860190612768565b508151610ae190600b9060208501906127cd565b507f919670197286461f736c76f6283ed050bb2801865950326d8f151b1fcd64a4a28383604051610b13929190612bb9565b60405180910390a1505050565b6040805180820190915260608082526020820152838214610b755760405162461bcd60e51b815260206004820152600f60248201526e0d8cadccee8d040dad2e6dac2e8c6d608b1b60448201526064016102e4565b60018414610bb05760405162461bcd60e51b81526020600482015260086024820152676f6e6c79206f6e6560c01b60448201526064016102e4565b600085856000818110610bc557610bc5612c8d565b9050602002016020810190610bda9190612c3d565b9050600084846000818110610bf157610bf1612c8d565b90506020020135905060008111610c4a5760405162461bcd60e51b815260206004820152601c60248201527f726564656d7074696f6e416d6f756e74206d757374206265203e20300000000060448201526064016102e4565b6000610c6882610c5a8b86610fdd565b610c638c6110c8565b6113ee565b905081811115610cd25760405162461bcd60e51b815260206004820152602f60248201527f466565206d757374206265206c6f776572206f7220657175616c20746f20726560448201526e19195b5c1d1a5bdb88185b5bdd5b9d608a1b60648201526084016102e4565b60008111610d225760405162461bcd60e51b815260206004820152601a60248201527f466565206d7573742062652067726561746572207468616e203000000000000060448201526064016102e4565b610d2b81611264565b9998505050505050505050565b6000610d5b600654610d56610d5160025460075461157c565b61158b565b612206565b905090565b606080600a805480602002602001604051908101604052809291908181526020018280548015610db957602002820191906000526020600020905b81546001600160a01b03168152600190910190602001808311610d9b575b50505050509150600b805480602002602001604051908101604052809291908181526020018280548015610e0c57602002820191906000526020600020905b815481526020019060010190808311610df8575b505050505090509091565b6000546001600160a01b03163314610e415760405162461bcd60e51b81526004016102e490612c58565b60015481908112158015610e5c5750610e5c81600254121590565b610eba5760405162461bcd60e51b815260206004820152602960248201527f4465706f73697420666565207363616c65206d757374206265206265747765656044820152686e203020616e64203160b81b60648201526084016102e4565b60038190556040518281527fbbb80ad78751d961ce06ab36f0d4e24d4935c3fc5f68322593c089c704537e0b906020016103ab565b6000546001600160a01b03163314610f195760405162461bcd60e51b81526004016102e490612c58565b6001600160a01b038116610f7e5760405162461bcd60e51b815260206004820152602660248201527f4f776e61626c653a206e6577206f776e657220697320746865207a65726f206160448201526564647265737360d01b60648201526084016102e4565b610f8781610f8d565b50565b90565b600080546001600160a01b038381166001600160a01b0319831681178455604051919092169283917f8be0079c531659141344cd1fd0a4f28419497f9722a3daafe3b4186f6b6457e09190a35050565b600080826001600160a01b0316633633f35f6040518163ffffffff1660e01b8152600401600060405180830381865afa15801561101e573d6000803e3d6000fd5b505050506040513d6000823e601f3d908101601f191682016040526110469190810190612d92565b90506000846001600160a01b031663875bf3b583606001516040518263ffffffff1660e01b815260040161107c91815260200190565b602060405180830381865afa158015611099573d6000803e3d6000fd5b505050506040513d601f19601f820116820180604052508101906110bd9190612f1d565b925050505b92915050565b600080826001600160a01b031663562182a86040518163ffffffff1660e01b8152600401602060405180830381865afa158015611109573d6000803e3d6000fd5b505050506040513d601f19601f8201168201806040525081019061112d9190612f1d565b9392505050565b6000828210156111565760405162461bcd60e51b81526004016102e490612f36565b8382840361117a5761117261116d82600554612206565b6122c4565b91505061112d565b836000611187828461157c565b90506000806111978585896122eb565b915091506111b16111aa82600454612206565b6002541390565b6111f55760405162461bcd60e51b81526020600482015260156024820152744465706f736974206f7574736964652072616e676560581b60448201526064016102e4565b600061121585610d56610d5160025461121088600454612206565b612340565b9050600061123285610d56610d5160025461121088600454612206565b90506000611246600354610d568585612340565b90506000611253826122c4565b9d9c50505050505050505050505050565b6040805180820190915260608082526020820152600a5460009067ffffffffffffffff8111156112965761129661292c565b6040519080825280602002602001820160405280156112bf578160200160208202803683370190505b5090508260005b600a5481101561135c576064600b82815481106112e5576112e5612c8d565b9060005260206000200154866112fb9190612fba565b6113059190612fe7565b83828151811061131757611317612c8d565b60200260200101818152505082818151811061133557611335612c8d565b6020026020010151826113489190613009565b91508061135481612ccc565b9150506112c6565b50808260008151811061137157611371612c8d565b602002602001018181516113859190612cb9565b905250600a8054604080516020808402820181019092528281529291908301828280156113db57602002820191906000526020600020905b81546001600160a01b031681526001909101906020018083116113bd575b5050509185525050506020820152919050565b6000828210156114105760405162461bcd60e51b81526004016102e490612f36565b828411156114965760405162461bcd60e51b815260206004820152604760248201527f54686520616d6f756e7420746f2062652072656465656d65642063616e6e6f7460448201527f20657863656564207468652063757272656e742062616c616e6365206f6620746064820152661a19481c1bdbdb60ca1b608482015260a4016102e4565b838284036114b95760006114af61116d83600854612206565b925061112d915050565b8360006114c68284612340565b90506000806114d685858961234f565b9150915060006114ef85610d56610d518660075461157c565b9050600061150685610d56610d518660075461157c565b9050600061153361151d600654610d568587612340565b61152e611528610d38565b8b612206565b61157c565b9050611540816001541390565b156115635761155461116d89600954612206565b9850505050505050505061112d565b61156c816122c4565b9c9b505050505050505050505050565b600061112d610f8a838561301c565b600081818112156115b25760405163059b101b60e01b8152600481018490526024016102e4565b8260018114611cbc57600a8114611ccd5760648114611cde576103e88114611cef576127108114611d0057620186a08114611d1157620f42408114611d2257629896808114611d33576305f5e1008114611d4457633b9aca008114611d55576402540be4008114611d665764174876e8008114611d775764e8d4a510008114611d88576509184e72a0008114611d9957655af3107a40008114611daa5766038d7ea4c680008114611dbb57662386f26fc100008114611dcc5767016345785d8a00008114611ddd57670de0b6b3a76400008114611dee57678ac7230489e800008114611df75768056bc75e2d631000008114611e0757683635c9adc5dea000008114611e175769021e19e0c9bab24000008114611e275769152d02c7e14af68000008114611e375769d3c21bcecceda10000008114611e47576a084595161401484a0000008114611e57576a52b7d2dcc80cd2e40000008114611e67576b033b2e3c9fd0803ce80000008114611e77576b204fce5e3e250261100000008114611e87576c01431e0fae6d7217caa00000008114611e97576c0c9f2c9cd04674edea400000008114611ea7576c7e37be2022c0914b26800000008114611eb7576d04ee2d6d415b85acef81000000008114611ec7576d314dc6448d9338c15b0a000000008114611ed7576e01ed09bead87c0378d8e64000000008114611ee7576e13426172c74d822b878fe8000000008114611ef7576ec097ce7bc90715b34b9f10000000008114611f07576f0785ee10d5da46d900f436a0000000008114611f17576f4b3b4ca85a86c47a098a2240000000008114611f28577002f050fe938943acc45f655680000000008114611f3957701d6329f1c35ca4bfabb9f56100000000008114611f4a57710125dfa371a19e6f7cb54395ca00000000008114611f5b57710b7abc627050305adf14a3d9e400000000008114611f6c577172cb5bd86321e38cb6ce6682e800000000008114611f7d5772047bf19673df52e37f2410011d1000000000008114611f8e57722cd76fe086b93ce2f768a00b22a000000000008114611f9f577301c06a5ec5433c60ddaa16406f5a4000000000008114611fb05773118427b3b4a05bc8a8a4de8459868000000000008114611fc15773af298d050e4395d69670b12b7f410000000000008114611fd2577406d79f82328ea3da61e066ebb2f88a0000000000008114611fe35774446c3b15f9926687d2c40534fdb5640000000000008114611ff4577502ac3a4edbbfb8014e3ba83411e915e8000000000000811461200557751aba4714957d300d0e549208b31adb1000000000000081146120165776010b46c6cdd6e3e0828f4db456ff0c8ea0000000000000811461202757760a70c3c40a64e6c51999090b65f67d9240000000000000811461203857766867a5a867f103b2fffa5a71fba0e7b6800000000000008114612049577704140c78940f6a24fdffc78873d4490d2100000000000000811461205a577728c87cb5c89a2571ebfdcb54864ada834a00000000000000811461206b57780197d4df19d605767337e9f14d3eec8920e400000000000000811461207c57780fee50b7025c36a0802f236d04753d5b48e800000000000000811461208d57789f4f2726179a224501d762422c946590d91000000000000000811461209e5779063917877cec0556b21269d695bdcbf7a87aa00000000000000081146120af57793e3aeb4ae1383562f4b82261d969f7ac94ca400000000000000081146120c0577a026e4d30eccc3215dd8f3157d27e23acbdcfe6800000000000000081146120d1577a184f03e93ff9f4daa797ed6e38ed64bf6a1f01000000000000000081146120e2577af316271c7fc3908a8bef464e3945ef7a25360a000000000000000081146120f3577b097edd871cfda3a5697758bf0e3cbb5ac5741c6400000000000000008114612104577b5ef4a74721e864761ea977768e5f518bb6891be800000000000000008114612115577c03b58e88c75313ec9d329eaaa18fb92f75215b171000000000000000008114612126577c25179157c93ec73e23fa32aa4f9d3bda934d8ee6a000000000000000008114612137577d0172ebad6ddc73c86d67c5faa71c245689c10795024000000000000000008114612148577d0e7d34c64a9c85d4460dbbca87196b61618a4bd2168000000000000000008114612159577d90e40fbeea1d3a4abc8955e946fe31cdcf66f634e1000000000000000000811461216a577e05a8e89d75252446eb5d5d5b1cc5edf20a1a059e10ca000000000000000000811461217b577e3899162693736ac531a5a58f1fbb4b746504382ca7e4000000000000000000811461218c577546bf5bb0385045767e0f0ef2e7aa1e517e454637d1dd604b1b811461219d577f161bcca7119915b50764b4abe86529797775a5f171951000000000000000000081146121ae576001600160ff1b0392506121bb565b67f9ccd8a1c507ffff1992506121bb565b67ebec21ee1da3ffff1992506121bb565b67de0b6b3a763fffff1992506121bb565b67d02ab486cedbffff1992506121bb565b67c249fdd32777ffff1992506121bb565b67b469471f8013ffff1992506121bb565b67a688906bd8afffff1992506121bb565b6798a7d9b8314bffff1992506121bb565b678ac7230489e7ffff1992506121bb565b677ce66c50e283ffff1992506121bb565b676f05b59d3b1fffff1992506121bb565b676124fee993bbffff1992506121bb565b6753444835ec57ffff1992506121bb565b674563918244f3ffff1992506121bb565b673782dace9d8fffff1992506121bb565b6729a2241af62bffff1992506121bb565b671bc16d674ec7ffff1992506121bb565b670de0b6b3a763ffff1992506121bb565b600092506121bb565b670de0b6b3a764000092506121bb565b671bc16d674ec8000092506121bb565b6729a2241af62c000092506121bb565b673782dace9d90000092506121bb565b674563918244f4000092506121bb565b6753444835ec58000092506121bb565b676124fee993bc000092506121bb565b676f05b59d3b20000092506121bb565b677ce66c50e284000092506121bb565b678ac7230489e8000092506121bb565b6798a7d9b8314c000092506121bb565b67a688906bd8b0000092506121bb565b67b469471f8014000092506121bb565b67c249fdd32778000092506121bb565b67d02ab486cedc000092506121bb565b67de0b6b3a7640000092506121bb565b67ebec21ee1da4000092506121bb565b67f9ccd8a1c508000092506121bb565b680107ad8f556c6c000092506121bb565b6801158e460913d0000092506121bb565b6801236efcbcbb34000092506121bb565b6801314fb3706298000092506121bb565b68013f306a2409fc000092506121bb565b68014d1120d7b160000092506121bb565b68015af1d78b58c4000092506121bb565b680168d28e3f0028000092506121bb565b680176b344f2a78c000092506121bb565b68018493fba64ef0000092506121bb565b68019274b259f654000092506121bb565b6801a055690d9db8000092506121bb565b6801ae361fc1451c000092506121bb565b6801bc16d674ec80000092506121bb565b6801c9f78d2893e4000092506121bb565b6801d7d843dc3b48000092506121bb565b6801e5b8fa8fe2ac000092506121bb565b6801f399b1438a10000092506121bb565b6802017a67f73174000092506121bb565b68020f5b1eaad8d8000092506121bb565b68021d3bd55e803c000092506121bb565b68022b1c8c1227a0000092506121bb565b680238fd42c5cf04000092506121bb565b680246ddf9797668000092506121bb565b680254beb02d1dcc000092506121bb565b6802629f66e0c530000092506121bb565b680270801d946c94000092506121bb565b68027e60d44813f8000092506121bb565b68028c418afbbb5c000092506121bb565b68029a2241af62c0000092506121bb565b6802a802f8630a24000092506121bb565b6802b5e3af16b188000092506121bb565b6802c3c465ca58ec000092506121bb565b6802d1a51c7e0050000092506121bb565b6802df85d331a7b4000092506121bb565b6802ed6689e54f18000092506121bb565b6802fb474098f67c000092506121bb565b68030927f74c9de0000092506121bb565b68031708ae004544000092506121bb565b680324e964b3eca8000092505b506001600160ff1b038203612200576121fd672e19dc008126bf2b670de0b6b3a76400006121eb610f8a876123be565b02816121f9576121f9612fd1565b0590565b91505b50919050565b60008282600160ff1b82148061221f5750600160ff1b81145b1561223d5760405163a6070c2560e01b815260040160405180910390fd5b6000806000841261224e5783612253565b836000035b9150600083126122635782612268565b826000035b905060006122768383612531565b90506001600160ff1b038111156122aa5760405163120b5b4360e01b815260048101899052602481018890526044016102e4565b60001985851813610d2b816122c0578260000390565b8290565b600081818112156110c257604051632463f3d560e01b8152600481018490526024016102e4565b60008060006122fb846001541490565b61230e5761230985856125e7565b612312565b6001545b90506000612332612323878961157c565b61232d878a61157c565b6125e7565b919791965090945050505050565b600061112d610f8a8385613044565b600080600061235f846001541490565b6123725761236d85856125e7565b612376565b6001545b9050600061238e6123878689612340565b6001541490565b6123ae576123a961239f8789612340565b61232d878a612340565b612332565b5060015490969095509350505050565b6000818181136123e45760405163059b101b60e01b8152600481018490526024016102e4565b6000670de0b6b3a764000082126123fd57506001612423565b50600019816ec097ce7bc90715b34b9f10000000008161241f5761241f612fd1565b0591505b60006124af670de0b6b3a7640000840560016fffffffffffffffffffffffffffffffff821160071b91821c67ffffffffffffffff811160061b90811c63ffffffff811160051b90811c61ffff811160041b90811c60ff8111600390811b91821c600f811160021b90811c918211871b91821c969096119490961792909217171791909117919091171790565b9050670de0b6b3a7640000810283821d670de0b6b3a763ffff1981016124dc575091909102949350505050565b671bc16d674ec800006706f05b59d3b200005b600081131561252257670de0b6b3a764000083800205925081831261251a579283019260019290921d915b60011d6124ef565b50505091909102949350505050565b60008080600019848609848602925082811083820303915050806000036125655750670de0b6b3a7640000900490506110c2565b670de0b6b3a7640000811061259757604051635173648d60e01b815260048101869052602481018590526044016102e4565b6000670de0b6b3a764000085870962040000818503049310909103600160ee1b02919091177faccb18165bd6fe31ae1cf318dc5b51eee0e1ba569b88cd74c1773b91fac106690291505092915050565b60008282600160ff1b8214806126005750600160ff1b81145b1561261e576040516309fe2b4560e41b815260040160405180910390fd5b6000806000841261262f5783612634565b836000035b9150600083126126445782612649565b826000035b9050600061266083670de0b6b3a764000084612694565b90506001600160ff1b038111156122aa5760405163d49c26b360e01b815260048101899052602481018890526044016102e4565b60008080600019858709858702925082811083820303915050806000036126ce578382816126c4576126c4612fd1565b049250505061112d565b8381106126ff57604051630c740aef60e31b81526004810187905260248101869052604481018590526064016102e4565b60008486880960026001871981018816978890046003810283188082028403028082028403028082028403028082028403028082028403029081029092039091026000889003889004909101858311909403939093029303949094049190911702949350505050565b8280548282559060005260206000209081019282156127bd579160200282015b828111156127bd57825182546001600160a01b0319166001600160a01b03909116178255602090920191600190910190612788565b506127c9929150612808565b5090565b8280548282559060005260206000209081019282156127bd579160200282015b828111156127bd5782518255916020019190600101906127ed565b5b808211156127c95760008155600101612809565b60006020828403121561282f57600080fd5b5035919050565b80356001600160a01b038116811461284d57600080fd5b919050565b60008060006060848603121561286757600080fd5b61287084612836565b925061287e60208501612836565b9150604084013590509250925092565b6020808252825160408383015280516060840181905260009291820190839060808601905b808310156128dc5783516001600160a01b031682529284019260019290920191908401906128b3565b5086840151868203601f190160408801528051808352908501935090840191506000905b808210156129205783518352928401929184019160019190910190612900565b50909695505050505050565b634e487b7160e01b600052604160045260246000fd5b604051610180810167ffffffffffffffff811182821017156129665761296661292c565b60405290565b604051601f8201601f1916810167ffffffffffffffff811182821017156129955761299561292c565b604052919050565b600067ffffffffffffffff8211156129b7576129b761292c565b5060051b60200190565b600082601f8301126129d257600080fd5b813560206129e76129e28361299d565b61296c565b82815260059290921b84018101918181019086841115612a0657600080fd5b8286015b84811015612a215780358352918301918301612a0a565b509695505050505050565b60008060408385031215612a3f57600080fd5b823567ffffffffffffffff80821115612a5757600080fd5b818501915085601f830112612a6b57600080fd5b81356020612a7b6129e28361299d565b82815260059290921b84018101918181019089841115612a9a57600080fd5b948201945b83861015612abf57612ab086612836565b82529482019490820190612a9f565b96505086013592505080821115612ad557600080fd5b50612ae2858286016129c1565b9150509250929050565b60008083601f840112612afe57600080fd5b50813567ffffffffffffffff811115612b1657600080fd5b6020830191508360208260051b8501011115612b3157600080fd5b9250929050565b600080600080600060608688031215612b5057600080fd5b612b5986612836565b9450602086013567ffffffffffffffff80821115612b7657600080fd5b612b8289838a01612aec565b90965094506040880135915080821115612b9b57600080fd5b50612ba888828901612aec565b969995985093965092949392505050565b604080825283519082018190526000906020906060840190828701845b82811015612bfb5781516001600160a01b031684529284019290840190600101612bd6565b5050508381038285015284518082528583019183019060005b81811015612c3057835183529284019291840191600101612c14565b5090979650505050505050565b600060208284031215612c4f57600080fd5b61112d82612836565b6020808252818101527f4f776e61626c653a2063616c6c6572206973206e6f7420746865206f776e6572604082015260600190565b634e487b7160e01b600052603260045260246000fd5b634e487b7160e01b600052601160045260246000fd5b808201808211156110c2576110c2612ca3565b600060018201612cde57612cde612ca3565b5060010190565b600082601f830112612cf657600080fd5b815167ffffffffffffffff811115612d1057612d1061292c565b6020612d24601f8301601f1916820161296c565b8281528582848701011115612d3857600080fd5b60005b83811015612d56578581018301518282018401528201612d3b565b506000928101909101919091529392505050565b805167ffffffffffffffff8116811461284d57600080fd5b8051801515811461284d57600080fd5b600060208284031215612da457600080fd5b815167ffffffffffffffff80821115612dbc57600080fd5b908301906101808286031215612dd157600080fd5b612dd9612942565b825182811115612de857600080fd5b612df487828601612ce5565b825250612e0360208401612d6a565b6020820152612e1460408401612d6a565b604082015260608301516060820152612e2f60808401612d6a565b6080820152612e4060a08401612d82565b60a0820152612e5160c08401612d82565b60c082015260e083015182811115612e6857600080fd5b612e7487828601612ce5565b60e0830152506101008084015183811115612e8e57600080fd5b612e9a88828701612ce5565b8284015250506101208084015183811115612eb457600080fd5b612ec088828701612ce5565b8284015250506101408084015183811115612eda57600080fd5b612ee688828701612ce5565b8284015250506101608084015183811115612f0057600080fd5b612f0c88828701612ce5565b918301919091525095945050505050565b600060208284031215612f2f57600080fd5b5051919050565b602080825260609082018190527f54686520746f74616c20766f6c756d6520696e2074686520706f6f6c206d757360408301527f742062652067726561746572207468616e206f7220657175616c20746f207468908201527f6520766f6c756d6520666f7220616e20696e646976696475616c206173736574608082015260a00190565b80820281158282048414176110c2576110c2612ca3565b634e487b7160e01b600052601260045260246000fd5b60008261300457634e487b7160e01b600052601260045260246000fd5b500490565b818103818111156110c2576110c2612ca3565b808201828112600083128015821682158216171561303c5761303c612ca3565b505092915050565b818103600083128015838313168383128216171561306457613064612ca3565b509291505056fea2646970667358221220bbba3d1351e607b0a6788c5bd3e40c680678c60355e5987c6f71d6a562e7715164736f6c63430008130033",
  "devdoc": {
    "author": "Neutral Labs Inc.",
    "details": "It implements the IFeeCalculator interface.",
    "kind": "dev",
    "methods": {
      "calculateDepositFees(address,address,uint256)": {
        "params": {
          "depositAmount": "The amount to be deposited.",
          "pool": "The address of the pool.",
          "tco2": "The address of the TCO2 token."
        },
        "returns": {
          "feeDistribution": "How the fee is meant to be distributed among the fee recipients."
        }
      },
      "calculateRedemptionFees(address,address[],uint256[])": {
        "params": {
          "pool": "The address of the pool.",
          "redemptionAmounts": "The amounts to be redeemed.",
          "tco2s": "The addresses of the TCO2 token."
        },
        "returns": {
          "feeDistribution": "How the fee is meant to be distributed among the fee recipients."
        }
      },
      "feeSetup(address[],uint256[])": {
        "details": "Can only be called by the current owner.",
        "params": {
          "recipients": "The addresses of the fee recipients.",
          "shares": "The share of the fee each recipient should receive."
        }
      },
      "getFeeSetup()": {
        "returns": {
          "recipients": "shares The fee recipients and their share of the total fee."
        }
      },
      "owner()": {
        "details": "Returns the address of the current owner."
      },
      "renounceOwnership()": {
        "details": "Leaves the contract without owner. It will not be possible to call `onlyOwner` functions anymore. Can only be called by the current owner. NOTE: Renouncing ownership will leave the contract without an owner, thereby removing any functionality that is only available to the owner."
      },
      "setDepositFeeRatioScale(int256)": {
        "details": "Can only be called by the current owner.",
        "params": {
          "_depositFeeRatioScale": "The new deposit fee ratio scale."
        }
      },
      "setDepositFeeScale(int256)": {
        "details": "Can only be called by the current owner.",
        "params": {
          "_depositFeeScale": "The new deposit fee scale."
        }
      },
      "setDustAssetRedemptionRelativeFee(int256)": {
        "details": "Can only be called by the current owner.",
        "params": {
          "_dustAssetRedemptionRelativeFee": "The new dust asset redemption relative fee."
        }
      },
      "setRedemptionFeeScale(int256)": {
        "details": "Can only be called by the current owner.",
        "params": {
          "_redemptionFeeScale": "The new redemption fee scale."
        }
      },
      "setRedemptionFeeShift(int256)": {
        "details": "Can only be called by the current owner.",
        "params": {
          "_redemptionFeeShift": "The new redemption fee shift."
        }
      },
      "setSingleAssetDepositRelativeFee(int256)": {
        "details": "Can only be called by the current owner.",
        "params": {
          "_singleAssetDepositRelativeFee": "The new single asset deposit relative fee."
        }
      },
      "setSingleAssetRedemptionRelativeFee(int256)": {
        "details": "Can only be called by the current owner.",
        "params": {
          "_singleAssetRedemptionRelativeFee": "The new single asset redemption relative fee."
        }
      },
      "transferOwnership(address)": {
        "details": "Transfers ownership of the contract to a new account (`newOwner`). Can only be called by the current owner."
      }
    },
    "title": "FeeCalculator",
    "version": 1
  },
  "userdoc": {
    "errors": {
      "PRBMath_MulDiv18_Overflow(uint256,uint256)": [
        {
          "notice": "Thrown when the resultant value in {mulDiv18} overflows uint256."
        }
      ],
      "PRBMath_MulDiv_Overflow(uint256,uint256,uint256)": [
        {
          "notice": "Thrown when the resultant value in {mulDiv} overflows uint256."
        }
      ],
      "PRBMath_SD59x18_Div_InputTooSmall()": [
        {
          "notice": "Thrown when dividing two numbers and one of them is `MIN_SD59x18`."
        }
      ],
      "PRBMath_SD59x18_Div_Overflow(int256,int256)": [
        {
          "notice": "Thrown when dividing two numbers and one of the intermediary unsigned results overflows SD59x18."
        }
      ],
      "PRBMath_SD59x18_IntoUint256_Underflow(int256)": [
        {
          "notice": "Thrown when trying to cast a UD60x18 number that doesn't fit in uint256."
        }
      ],
      "PRBMath_SD59x18_Log_InputTooSmall(int256)": [
        {
          "notice": "Thrown when taking the logarithm of a number less than or equal to zero."
        }
      ],
      "PRBMath_SD59x18_Mul_InputTooSmall()": [
        {
          "notice": "Thrown when multiplying two numbers and one of the inputs is `MIN_SD59x18`."
        }
      ],
      "PRBMath_SD59x18_Mul_Overflow(int256,int256)": [
        {
          "notice": "Thrown when multiplying two numbers and the intermediary absolute result overflows SD59x18."
        }
      ]
    },
    "kind": "user",
    "methods": {
      "calculateDepositFees(address,address,uint256)": {
        "notice": "Calculates the deposit fee for a given amount."
      },
      "calculateRedemptionFees(address,address[],uint256[])": {
        "notice": "Calculates the redemption fees for a given amount."
      },
      "feeSetup(address[],uint256[])": {
        "notice": "Sets up the fee distribution among recipients."
      },
      "getFeeSetup()": {
        "notice": "Returns the current fee setup."
      },
      "setDepositFeeRatioScale(int256)": {
        "notice": "Sets the deposit fee ratio scale."
      },
      "setDepositFeeScale(int256)": {
        "notice": "Sets the deposit fee scale."
      },
      "setDustAssetRedemptionRelativeFee(int256)": {
        "notice": "Sets the dust asset redemption relative fee."
      },
      "setRedemptionFeeScale(int256)": {
        "notice": "Sets the redemption fee scale."
      },
      "setRedemptionFeeShift(int256)": {
        "notice": "Sets the redemption fee shift."
      },
      "setSingleAssetDepositRelativeFee(int256)": {
        "notice": "Sets the single asset deposit relative fee."
      },
      "setSingleAssetRedemptionRelativeFee(int256)": {
        "notice": "Sets the single asset redemption relative fee."
      }
    },
    "notice": "This contract calculates deposit and redemption fees for a given pool.",
    "version": 1
  },
  "storageLayout": {
    "storage": [
      {
        "astId": 5822,
        "contract": "@toucanprotocol/dynamic-fee-pools/src/FeeCalculator.sol:FeeCalculator",
        "label": "_owner",
        "offset": 0,
        "slot": "0",
        "type": "t_address"
      },
      {
        "astId": 16034,
        "contract": "@toucanprotocol/dynamic-fee-pools/src/FeeCalculator.sol:FeeCalculator",
        "label": "zero",
        "offset": 0,
        "slot": "1",
        "type": "t_userDefinedValueType(SD59x18)13824"
      },
      {
        "astId": 16040,
        "contract": "@toucanprotocol/dynamic-fee-pools/src/FeeCalculator.sol:FeeCalculator",
        "label": "one",
        "offset": 0,
        "slot": "2",
        "type": "t_userDefinedValueType(SD59x18)13824"
      },
      {
        "astId": 16048,
        "contract": "@toucanprotocol/dynamic-fee-pools/src/FeeCalculator.sol:FeeCalculator",
        "label": "depositFeeScale",
        "offset": 0,
        "slot": "3",
        "type": "t_userDefinedValueType(SD59x18)13824"
      },
      {
        "astId": 16056,
        "contract": "@toucanprotocol/dynamic-fee-pools/src/FeeCalculator.sol:FeeCalculator",
        "label": "depositFeeRatioScale",
        "offset": 0,
        "slot": "4",
        "type": "t_userDefinedValueType(SD59x18)13824"
      },
      {
        "astId": 16064,
        "contract": "@toucanprotocol/dynamic-fee-pools/src/FeeCalculator.sol:FeeCalculator",
        "label": "singleAssetDepositRelativeFee",
        "offset": 0,
        "slot": "5",
        "type": "t_userDefinedValueType(SD59x18)13824"
      },
      {
        "astId": 16072,
        "contract": "@toucanprotocol/dynamic-fee-pools/src/FeeCalculator.sol:FeeCalculator",
        "label": "redemptionFeeScale",
        "offset": 0,
        "slot": "6",
        "type": "t_userDefinedValueType(SD59x18)13824"
      },
      {
        "astId": 16080,
        "contract": "@toucanprotocol/dynamic-fee-pools/src/FeeCalculator.sol:FeeCalculator",
        "label": "redemptionFeeShift",
        "offset": 0,
        "slot": "7",
        "type": "t_userDefinedValueType(SD59x18)13824"
      },
      {
        "astId": 16104,
        "contract": "@toucanprotocol/dynamic-fee-pools/src/FeeCalculator.sol:FeeCalculator",
        "label": "singleAssetRedemptionRelativeFee",
        "offset": 0,
        "slot": "8",
        "type": "t_userDefinedValueType(SD59x18)13824"
      },
      {
        "astId": 16112,
        "contract": "@toucanprotocol/dynamic-fee-pools/src/FeeCalculator.sol:FeeCalculator",
        "label": "dustAssetRedemptionRelativeFee",
        "offset": 0,
        "slot": "9",
        "type": "t_userDefinedValueType(SD59x18)13824"
      },
      {
        "astId": 16115,
        "contract": "@toucanprotocol/dynamic-fee-pools/src/FeeCalculator.sol:FeeCalculator",
        "label": "_recipients",
        "offset": 0,
        "slot": "10",
        "type": "t_array(t_address)dyn_storage"
      },
      {
        "astId": 16118,
        "contract": "@toucanprotocol/dynamic-fee-pools/src/FeeCalculator.sol:FeeCalculator",
        "label": "_shares",
        "offset": 0,
        "slot": "11",
        "type": "t_array(t_uint256)dyn_storage"
      }
    ],
    "types": {
      "t_address": {
        "encoding": "inplace",
        "label": "address",
        "numberOfBytes": "20"
      },
      "t_array(t_address)dyn_storage": {
        "base": "t_address",
        "encoding": "dynamic_array",
        "label": "address[]",
        "numberOfBytes": "32"
      },
      "t_array(t_uint256)dyn_storage": {
        "base": "t_uint256",
        "encoding": "dynamic_array",
        "label": "uint256[]",
        "numberOfBytes": "32"
      },
      "t_uint256": {
        "encoding": "inplace",
        "label": "uint256",
        "numberOfBytes": "32"
      },
      "t_userDefinedValueType(SD59x18)13824": {
        "encoding": "inplace",
        "label": "SD59x18",
        "numberOfBytes": "32"
      }
    }
  }
}