{
  "address": "0xE24250c9423238Bcb0e8d8943E2f6e910AE3651E",
  "abi": [
    {
      "anonymous": false,
      "inputs": [
        {
          "indexed": true,
          "internalType": "address",
          "name": "owner",
          "type": "address"
        },
        {
          "indexed": true,
          "internalType": "address",
          "name": "spender",
          "type": "address"
        },
        {
          "indexed": false,
          "internalType": "uint256",
          "name": "value",
          "type": "uint256"
        }
      ],
      "name": "Approval",
      "type": "event"
    },
    {
      "anonymous": false,
      "inputs": [
        {
          "indexed": true,
          "internalType": "uint256",
          "name": "requestId",
          "type": "uint256"
        }
      ],
      "name": "DetokenizationFinalized",
      "type": "event"
    },
    {
      "anonymous": false,
      "inputs": [
        {
          "indexed": true,
          "internalType": "address",
          "name": "user",
          "type": "address"
        },
        {
          "indexed": false,
          "internalType": "uint256",
          "name": "amount",
          "type": "uint256"
        },
        {
          "indexed": true,
          "internalType": "uint256",
          "name": "requestId",
          "type": "uint256"
        },
        {
          "indexed": false,
          "internalType": "uint256[]",
          "name": "batchIds",
          "type": "uint256[]"
        }
      ],
      "name": "DetokenizationRequested",
      "type": "event"
    },
    {
      "anonymous": false,
      "inputs": [
        {
          "indexed": true,
          "internalType": "uint256",
          "name": "requestId",
          "type": "uint256"
        }
      ],
      "name": "DetokenizationReverted",
      "type": "event"
    },
    {
      "anonymous": false,
      "inputs": [
        {
          "indexed": false,
          "internalType": "address",
          "name": "bridger",
          "type": "address"
        },
        {
          "indexed": false,
          "internalType": "uint256",
          "name": "fees",
          "type": "uint256"
        }
      ],
      "name": "FeeBurnt",
      "type": "event"
    },
    {
      "anonymous": false,
      "inputs": [
        {
          "indexed": false,
          "internalType": "address",
          "name": "bridger",
          "type": "address"
        },
        {
          "indexed": false,
          "internalType": "uint256",
          "name": "fees",
          "type": "uint256"
        }
      ],
      "name": "FeePaid",
      "type": "event"
    },
    {
      "anonymous": false,
      "inputs": [
        {
          "indexed": false,
          "internalType": "uint8",
          "name": "version",
          "type": "uint8"
        }
      ],
      "name": "Initialized",
      "type": "event"
    },
    {
      "anonymous": false,
      "inputs": [
        {
          "indexed": true,
          "internalType": "address",
          "name": "from",
          "type": "address"
        },
        {
          "indexed": true,
          "internalType": "address",
          "name": "to",
          "type": "address"
        },
        {
          "indexed": false,
          "internalType": "uint256",
          "name": "value",
          "type": "uint256"
        }
      ],
      "name": "Transfer",
      "type": "event"
    },
    {
      "inputs": [],
      "name": "DETOKENIZER_ROLE",
      "outputs": [
        {
          "internalType": "bytes32",
          "name": "",
          "type": "bytes32"
        }
      ],
      "stateMutability": "view",
      "type": "function"
    },
    {
      "inputs": [],
      "name": "TOKENIZER_ROLE",
      "outputs": [
        {
          "internalType": "bytes32",
          "name": "",
          "type": "bytes32"
        }
      ],
      "stateMutability": "view",
      "type": "function"
    },
    {
      "inputs": [],
      "name": "VERSION",
      "outputs": [
        {
          "internalType": "string",
          "name": "",
          "type": "string"
        }
      ],
      "stateMutability": "view",
      "type": "function"
    },
    {
      "inputs": [],
      "name": "VERSION_RELEASE_CANDIDATE",
      "outputs": [
        {
          "internalType": "uint256",
          "name": "",
          "type": "uint256"
        }
      ],
      "stateMutability": "view",
      "type": "function"
    },
    {
      "inputs": [
        {
          "internalType": "address",
          "name": "owner",
          "type": "address"
        },
        {
          "internalType": "address",
          "name": "spender",
          "type": "address"
        }
      ],
      "name": "allowance",
      "outputs": [
        {
          "internalType": "uint256",
          "name": "",
          "type": "uint256"
        }
      ],
      "stateMutability": "view",
      "type": "function"
    },
    {
      "inputs": [
        {
          "internalType": "address",
          "name": "spender",
          "type": "address"
        },
        {
          "internalType": "uint256",
          "name": "amount",
          "type": "uint256"
        }
      ],
      "name": "approve",
      "outputs": [
        {
          "internalType": "bool",
          "name": "",
          "type": "bool"
        }
      ],
      "stateMutability": "nonpayable",
      "type": "function"
    },
    {
      "inputs": [
        {
          "internalType": "address",
          "name": "account",
          "type": "address"
        }
      ],
      "name": "balanceOf",
      "outputs": [
        {
          "internalType": "uint256",
          "name": "",
          "type": "uint256"
        }
      ],
      "stateMutability": "view",
      "type": "function"
    },
    {
      "inputs": [
        {
          "internalType": "address",
          "name": "account",
          "type": "address"
        },
        {
          "internalType": "uint256",
          "name": "amount",
          "type": "uint256"
        }
      ],
      "name": "bridgeBurn",
      "outputs": [],
      "stateMutability": "nonpayable",
      "type": "function"
    },
    {
      "inputs": [
        {
          "internalType": "address",
          "name": "account",
          "type": "address"
        },
        {
          "internalType": "uint256",
          "name": "amount",
          "type": "uint256"
        }
      ],
      "name": "bridgeMint",
      "outputs": [],
      "stateMutability": "nonpayable",
      "type": "function"
    },
    {
      "inputs": [
        {
          "internalType": "address",
          "name": "account",
          "type": "address"
        },
        {
          "internalType": "uint256",
          "name": "amount",
          "type": "uint256"
        }
      ],
      "name": "burnFrom",
      "outputs": [],
      "stateMutability": "nonpayable",
      "type": "function"
    },
    {
      "inputs": [],
      "name": "contractRegistry",
      "outputs": [
        {
          "internalType": "address",
          "name": "",
          "type": "address"
        }
      ],
      "stateMutability": "view",
      "type": "function"
    },
    {
      "inputs": [],
      "name": "decimals",
      "outputs": [
        {
          "internalType": "uint8",
          "name": "",
          "type": "uint8"
        }
      ],
      "stateMutability": "view",
      "type": "function"
    },
    {
      "inputs": [
        {
          "internalType": "address",
          "name": "spender",
          "type": "address"
        },
        {
          "internalType": "uint256",
          "name": "subtractedValue",
          "type": "uint256"
        }
      ],
      "name": "decreaseAllowance",
      "outputs": [
        {
          "internalType": "bool",
          "name": "",
          "type": "bool"
        }
      ],
      "stateMutability": "nonpayable",
      "type": "function"
    },
    {
      "inputs": [
        {
          "internalType": "uint256",
          "name": "tokenId",
          "type": "uint256"
        }
      ],
      "name": "defractionalize",
      "outputs": [],
      "stateMutability": "nonpayable",
      "type": "function"
    },
    {
      "inputs": [
        {
          "internalType": "uint256",
          "name": "requestId",
          "type": "uint256"
        }
      ],
      "name": "finalizeDetokenization",
      "outputs": [],
      "stateMutability": "nonpayable",
      "type": "function"
    },
    {
      "inputs": [],
      "name": "getAttributes",
      "outputs": [
        {
          "components": [
            {
              "internalType": "string",
              "name": "projectId",
              "type": "string"
            },
            {
              "internalType": "string",
              "name": "standard",
              "type": "string"
            },
            {
              "internalType": "string",
              "name": "methodology",
              "type": "string"
            },
            {
              "internalType": "string",
              "name": "region",
              "type": "string"
            },
            {
              "internalType": "string",
              "name": "storageMethod",
              "type": "string"
            },
            {
              "internalType": "string",
              "name": "method",
              "type": "string"
            },
            {
              "internalType": "string",
              "name": "emissionType",
              "type": "string"
            },
            {
              "internalType": "string",
              "name": "category",
              "type": "string"
            },
            {
              "internalType": "string",
              "name": "uri",
              "type": "string"
            },
            {
              "internalType": "address",
              "name": "beneficiary",
              "type": "address"
            }
          ],
          "internalType": "struct ProjectData",
          "name": "",
          "type": "tuple"
        },
        {
          "components": [
            {
              "internalType": "string",
              "name": "name",
              "type": "string"
            },
            {
              "internalType": "uint64",
              "name": "startTime",
              "type": "uint64"
            },
            {
              "internalType": "uint64",
              "name": "endTime",
              "type": "uint64"
            },
            {
              "internalType": "uint256",
              "name": "projectTokenId",
              "type": "uint256"
            },
            {
              "internalType": "uint64",
              "name": "totalVintageQuantity",
              "type": "uint64"
            },
            {
              "internalType": "bool",
              "name": "isCorsiaCompliant",
              "type": "bool"
            },
            {
              "internalType": "bool",
              "name": "isCCPcompliant",
              "type": "bool"
            },
            {
              "internalType": "string",
              "name": "coBenefits",
              "type": "string"
            },
            {
              "internalType": "string",
              "name": "correspAdjustment",
              "type": "string"
            },
            {
              "internalType": "string",
              "name": "additionalCertification",
              "type": "string"
            },
            {
              "internalType": "string",
              "name": "uri",
              "type": "string"
            },
            {
              "internalType": "string",
              "name": "registry",
              "type": "string"
            }
          ],
          "internalType": "struct VintageData",
          "name": "",
          "type": "tuple"
        }
      ],
      "stateMutability": "view",
      "type": "function"
    },
    {
      "inputs": [],
      "name": "getDepositCap",
      "outputs": [
        {
          "internalType": "uint256",
          "name": "",
          "type": "uint256"
        }
      ],
      "stateMutability": "view",
      "type": "function"
    },
    {
      "inputs": [],
      "name": "getGlobalProjectVintageIdentifiers",
      "outputs": [
        {
          "internalType": "string",
          "name": "",
          "type": "string"
        },
        {
          "internalType": "string",
          "name": "",
          "type": "string"
        }
      ],
      "stateMutability": "view",
      "type": "function"
    },
    {
      "inputs": [],
      "name": "getRemaining",
      "outputs": [
        {
          "internalType": "uint256",
          "name": "remaining",
          "type": "uint256"
        }
      ],
      "stateMutability": "view",
      "type": "function"
    },
    {
      "inputs": [
        {
          "internalType": "address",
          "name": "spender",
          "type": "address"
        },
        {
          "internalType": "uint256",
          "name": "addedValue",
          "type": "uint256"
        }
      ],
      "name": "increaseAllowance",
      "outputs": [
        {
          "internalType": "bool",
          "name": "",
          "type": "bool"
        }
      ],
      "stateMutability": "nonpayable",
      "type": "function"
    },
    {
      "inputs": [
        {
          "internalType": "string",
          "name": "name_",
          "type": "string"
        },
        {
          "internalType": "string",
          "name": "symbol_",
          "type": "string"
        },
        {
          "internalType": "uint256",
          "name": "_projectVintageTokenId",
          "type": "uint256"
        },
        {
          "internalType": "address",
          "name": "_contractRegistry",
          "type": "address"
        }
      ],
      "name": "initialize",
      "outputs": [],
      "stateMutability": "nonpayable",
      "type": "function"
    },
    {
      "inputs": [
        {
          "internalType": "address",
          "name": "",
          "type": "address"
        }
      ],
      "name": "minterToId",
      "outputs": [
        {
          "internalType": "uint256",
          "name": "",
          "type": "uint256"
        }
      ],
      "stateMutability": "view",
      "type": "function"
    },
    {
      "inputs": [],
      "name": "name",
      "outputs": [
        {
          "internalType": "string",
          "name": "",
          "type": "string"
        }
      ],
      "stateMutability": "view",
      "type": "function"
    },
    {
      "inputs": [
        {
          "internalType": "address",
          "name": "",
          "type": "address"
        },
        {
          "internalType": "address",
          "name": "from",
          "type": "address"
        },
        {
          "internalType": "uint256",
          "name": "tokenId",
          "type": "uint256"
        },
        {
          "internalType": "bytes",
          "name": "",
          "type": "bytes"
        }
      ],
      "name": "onERC721Received",
      "outputs": [
        {
          "internalType": "bytes4",
          "name": "",
          "type": "bytes4"
        }
      ],
      "stateMutability": "nonpayable",
      "type": "function"
    },
    {
      "inputs": [],
      "name": "projectVintageTokenId",
      "outputs": [
        {
          "internalType": "uint256",
          "name": "",
          "type": "uint256"
        }
      ],
      "stateMutability": "view",
      "type": "function"
    },
    {
      "inputs": [
        {
          "internalType": "uint256[]",
          "name": "tokenIds",
          "type": "uint256[]"
        },
        {
          "internalType": "uint256",
          "name": "amount",
          "type": "uint256"
        }
      ],
      "name": "requestDetokenization",
      "outputs": [
        {
          "internalType": "uint256",
          "name": "",
          "type": "uint256"
        }
      ],
      "stateMutability": "nonpayable",
      "type": "function"
    },
    {
      "inputs": [
        {
          "internalType": "address",
          "name": "",
          "type": "address"
        }
      ],
      "name": "retiredAmount",
      "outputs": [
        {
          "internalType": "uint256",
          "name": "",
          "type": "uint256"
        }
      ],
      "stateMutability": "view",
      "type": "function"
    },
    {
      "inputs": [
        {
          "internalType": "uint256",
          "name": "requestId",
          "type": "uint256"
        }
      ],
      "name": "revertDetokenization",
      "outputs": [],
      "stateMutability": "nonpayable",
      "type": "function"
    },
    {
      "inputs": [],
      "name": "standardRegistry",
      "outputs": [
        {
          "internalType": "string",
          "name": "",
          "type": "string"
        }
      ],
      "stateMutability": "pure",
      "type": "function"
    },
    {
      "inputs": [],
      "name": "symbol",
      "outputs": [
        {
          "internalType": "string",
          "name": "",
          "type": "string"
        }
      ],
      "stateMutability": "view",
      "type": "function"
    },
    {
      "inputs": [],
      "name": "totalSupply",
      "outputs": [
        {
          "internalType": "uint256",
          "name": "",
          "type": "uint256"
        }
      ],
      "stateMutability": "view",
      "type": "function"
    },
    {
      "inputs": [
        {
          "internalType": "address",
          "name": "recipient",
          "type": "address"
        },
        {
          "internalType": "uint256",
          "name": "amount",
          "type": "uint256"
        }
      ],
      "name": "transfer",
      "outputs": [
        {
          "internalType": "bool",
          "name": "",
          "type": "bool"
        }
      ],
      "stateMutability": "nonpayable",
      "type": "function"
    },
    {
      "inputs": [
        {
          "internalType": "address",
          "name": "sender",
          "type": "address"
        },
        {
          "internalType": "address",
          "name": "recipient",
          "type": "address"
        },
        {
          "internalType": "uint256",
          "name": "amount",
          "type": "uint256"
        }
      ],
      "name": "transferFrom",
      "outputs": [
        {
          "internalType": "bool",
          "name": "",
          "type": "bool"
        }
      ],
      "stateMutability": "nonpayable",
      "type": "function"
    }
  ],
  "numDeployments": 3,
  "solcInputHash": "f8b7778099c3ee2f5d7838e2efc91e0e",
  "bytecode": "0x60806040523480156200001157600080fd5b506200001c62000022565b62000152565b6200002e60ff62000031565b50565b60008054610100900460ff1615620000ca578160ff1660011480156200006a575062000068306200014360201b620028871760201c565b155b620000c25760405162461bcd60e51b815260206004820152602e60248201526000805160206200438f83398151915260448201526d191e481a5b9a5d1a585b1a5e995960921b60648201526084015b60405180910390fd5b506000919050565b60005460ff808416911610620001295760405162461bcd60e51b815260206004820152602e60248201526000805160206200438f83398151915260448201526d191e481a5b9a5d1a585b1a5e995960921b6064820152608401620000b9565b506000805460ff191660ff92909216919091179055600190565b6001600160a01b03163b151590565b61422d80620001626000396000f3fe608060405234801561001057600080fd5b50600436106101fb5760003560e01c806374f4f5471161011a578063a9059cbb116100ad578063dd62ed3e1161007c578063dd62ed3e14610477578063e819426c1461048a578063e9d5c8d514610493578063eca45d82146104b3578063ffa1ad74146104c657600080fd5b8063a9059cbb1461041e578063abf410e514610431578063bd3a13f61461045c578063d6a022b81461046f57600080fd5b806395d89b41116100e957806395d89b41146103d057806396746d43146103d8578063a19c4bd8146103eb578063a457c2d71461040b57600080fd5b806374f4f547146103845780637903c7d01461039757806379cc6790146103aa5780638c2a993e146103bd57600080fd5b8063313ce5671161019257806364c5a4031161016157806364c5a403146103285780636ca0b0d71461033e5780636d059f5a1461034657806370a082311461035b57600080fd5b8063313ce567146102d757806339509351146102e65780633c31175e146102f95780635c6f3a901461030157600080fd5b8063150b7a02116101ce578063150b7a021461027a578063152583de146102a657806318160ddd146102bc57806323b872dd146102c457600080fd5b806301a598da146102005780630605a3341461021b57806306fdde0314610242578063095ea7b314610257575b600080fd5b6102086104ea565b6040519081526020015b60405180910390f35b6102087fe70d28ebd9d7d9a3dd77d46ae2481f301c80806f395b08de31d8e095b1c46cee81565b61024a610543565b6040516102129190613274565b61026a61026536600461329f565b61057e565b6040519015158152602001610212565b61028d6102883660046132cb565b610598565b6040516001600160e01b03199091168152602001610212565b6102ae610b9e565b604051610212929190613495565b603554610208565b61026a6102d23660046135dd565b610d97565b60405160128152602001610212565b61026a6102f436600461329f565b610eda565b61024a610efc565b6102087ffb7778e60e898528875e31f94e3a623d6302be2aa540c7a7f5ae26fe5ee2498d81565b610330610f1a565b60405161021292919061361e565b610208600381565b610359610354366004613643565b610f44565b005b61020861036936600461365c565b6001600160a01b031660009081526033602052604090205490565b61035961039236600461329f565b611403565b6103596103a5366004613643565b611638565b6103596103b836600461329f565b6119b9565b6103596103cb36600461329f565b611ad3565b61024a611d00565b6103596103e6366004613643565b611d25565b6102086103f936600461365c565b60686020526000908152604090205481565b61026a61041936600461329f565b6121e4565b61026a61042c36600461329f565b61226a565b606654610444906001600160a01b031681565b6040516001600160a01b039091168152602001610212565b61035961046a3660046137aa565b6123ab565b610208612446565b610208610485366004613829565b61246c565b61020860655481565b6102086104a136600461365c565b60676020526000908152604090205481565b6102086104c1366004613862565b612497565b61024a604051806040016040528060058152602001640312e302e360dc1b81525081565b60006104f46130a7565b6104fc610b9e565b6080810151909250905060006105146012600a6139d6565b610527906001600160401b0384166139e5565b90508060000361053c57600019935050505090565b9392505050565b6060806060610550610f1a565b60405191935091506105689083908390602001613a04565b6040516020818303038152906040529250505090565b60003361058c818585612896565b60019150505b92915050565b60665460009081906001600160a01b03166391148b276105b6610efc565b6040518263ffffffff1660e01b81526004016105d29190613274565b602060405180830381865afa1580156105ef573d6000803e3d6000fd5b505050506040513d601f19601f820116820180604052508101906106139190613a6d565b90506000816001600160a01b0316635c975abb6040518163ffffffff1660e01b8152600401602060405180830381865afa158015610655573d6000803e3d6000fd5b505050506040513d601f19601f820116820180604052508101906106799190613a9a565b905080156106a25760405162461bcd60e51b815260040161069990613ab5565b60405180910390fd5b6106ab336129bb565b61070e5760405162461bcd60e51b815260206004820152602e60248201527f4572726f723a2042617463682d4e4654206e6f742066726f6d2077686974656c60448201526d1a5cdd19590818dbdb9d1c9858dd60921b6064820152608401610699565b600080600061071d338a612a56565b92509250925060655483146107745760405162461bcd60e51b815260206004820152601760248201527f4572726f723a206e6f6e2d6d61746368696e67204e46540000000000000000006044820152606401610699565b600281600681111561078857610788613ada565b146107d55760405162461bcd60e51b815260206004820152601a60248201527f42617463684e4654206e6f742079657420636f6e6669726d65640000000000006044820152606401610699565b816107de612446565b101561084b5760405162461bcd60e51b815260206004820152603660248201527f4572726f723a205175616e7469747920696e20626174636820697320686967686044820152756572207468616e20746f74616c2076696e746167657360501b6064820152608401610699565b6001600160a01b03808b1660009081526067602052604081208b90556066549091166391148b2761087a610efc565b6040518263ffffffff1660e01b81526004016108969190613274565b602060405180830381865afa1580156108b3573d6000803e3d6000fd5b505050506040513d601f19601f820116820180604052508101906108d79190613a6d565b90506000816001600160a01b03166380e2d3f06040518163ffffffff1660e01b8152600401602060405180830381865afa158015610919573d6000803e3d6000fd5b505050506040513d601f19601f8201168201806040525081019061093d9190613a6d565b90506001600160a01b03811661095c576109578c85612b02565b610b85565b6040516379bcd2d160e11b81526004810185905260009081906001600160a01b0385169063f379a5a2906024016040805180830381865afa1580156109a5573d6000803e3d6000fd5b505050506040513d601f19601f820116820180604052508101906109c99190613af0565b90925090506109e18e6109dc8489613b14565b612b02565b6000846001600160a01b031663581cd1106040518163ffffffff1660e01b8152600401602060405180830381865afa158015610a21573d6000803e3d6000fd5b505050506040513d601f19601f82011682018060405250810190610a459190613a6d565b90506001600160a01b03811615801590610a5f5750600082115b15610b2357610a6e8284613b14565b9250610a7a8484612b02565b610a848183612b02565b7f075a2720282fdf622141dae0b048ef90a21a7e57c134c76912d19d006b3b3f6f8f84604051610ac99291906001600160a01b03929092168252602082015260400190565b60405180910390a17fa2f0f5180dc62f2d34c8207f1d18178d31bd0de616f83636434ddf48de0ae6fa8f83604051610b169291906001600160a01b03929092168252602082015260400190565b60405180910390a1610b81565b8215610b8157610b338484612b02565b7f075a2720282fdf622141dae0b048ef90a21a7e57c134c76912d19d006b3b3f6f8f84604051610b789291906001600160a01b03929092168252602082015260400190565b60405180910390a15b5050505b50630a85bd0160e11b9c9b505050505050505050505050565b610ba6613127565b610bae6130a7565b606654604080516301157a8360e01b815290516000926001600160a01b0316916301157a839160048083019260209291908290030181865afa158015610bf8573d6000803e3d6000fd5b505050506040513d601f19601f82011682018060405250810190610c1c9190613a6d565b90506000606660009054906101000a90046001600160a01b03166001600160a01b031663a0af25606040518163ffffffff1660e01b8152600401602060405180830381865afa158015610c73573d6000803e3d6000fd5b505050506040513d601f19601f82011682018060405250810190610c979190613a6d565b90506000816001600160a01b03166315bbf0746065546040518263ffffffff1660e01b8152600401610ccb91815260200190565b600060405180830381865afa158015610ce8573d6000803e3d6000fd5b505050506040513d6000823e601f3d908101601f19168201604052610d109190810190613b8f565b90506000836001600160a01b03166347e3168683606001516040518263ffffffff1660e01b8152600401610d4691815260200190565b600060405180830381865afa158015610d63573d6000803e3d6000fd5b505050506040513d6000823e601f3d908101601f19168201604052610d8b9190810190613d19565b96919550909350505050565b6000826001600160a01b038116610dad57600080fd5b306001600160a01b03821603610dc257600080fd5b6066546000906001600160a01b03166391148b27610dde610efc565b6040518263ffffffff1660e01b8152600401610dfa9190613274565b602060405180830381865afa158015610e17573d6000803e3d6000fd5b505050506040513d601f19601f82011682018060405250810190610e3b9190613a6d565b90506000816001600160a01b0316635c975abb6040518163ffffffff1660e01b8152600401602060405180830381865afa158015610e7d573d6000803e3d6000fd5b505050506040513d601f19601f82011682018060405250810190610ea19190613a9a565b90508015610ec15760405162461bcd60e51b815260040161069990613ab5565b610ecc878787612be1565b506001979650505050505050565b60003361058c818585610eed838361246c565b610ef79190613ebe565b612896565b6040805180820190915260048152637075726f60e01b602082015290565b606080610f25613127565b610f2d6130a7565b610f35610b9e565b90519051909590945092505050565b6066546000906001600160a01b03166391148b27610f60610efc565b6040518263ffffffff1660e01b8152600401610f7c9190613274565b602060405180830381865afa158015610f99573d6000803e3d6000fd5b505050506040513d601f19601f82011682018060405250810190610fbd9190613a6d565b90506000816001600160a01b0316635c975abb6040518163ffffffff1660e01b8152600401602060405180830381865afa158015610fff573d6000803e3d6000fd5b505050506040513d601f19601f820116820180604052508101906110239190613a9a565b905080156110435760405162461bcd60e51b815260040161069990613ab5565b6066547ffb7778e60e898528875e31f94e3a623d6302be2aa540c7a7f5ae26fe5ee2498d906001600160a01b03166391148b2761107e610efc565b6040518263ffffffff1660e01b815260040161109a9190613274565b602060405180830381865afa1580156110b7573d6000803e3d6000fd5b505050506040513d601f19601f820116820180604052508101906110db9190613a6d565b604051632474521560e21b8152600481018390523360248201526001600160a01b0391909116906391d1485490604401602060405180830381865afa158015611128573d6000803e3d6000fd5b505050506040513d601f19601f8201168201806040525081019061114c9190613a9a565b6111895760405162461bcd60e51b815260206004820152600e60248201526d496e76616c69642061636365737360901b6044820152606401610699565b60665460408051634be4e3dd60e01b815290516001600160a01b03909216916000918391634be4e3dd916004808201926020929091908290030181865afa1580156111d8573d6000803e3d6000fd5b505050506040513d601f19601f820116820180604052508101906111fc9190613a6d565b90506000826001600160a01b031663e72994e26040518163ffffffff1660e01b8152600401602060405180830381865afa15801561123e573d6000803e3d6000fd5b505050506040513d601f19601f820116820180604052508101906112629190613a6d565b60405163103a258b60e31b8152600481018990529091506000906001600160a01b038316906381d12c5890602401600060405180830381865afa1580156112ad573d6000803e3d6000fd5b505050506040513d6000823e601f3d908101601f191682016040526112d59190810190613f55565b60808101515190915060005b8181101561137257846001600160a01b0316633a484efd8460800151838151811061130e5761130e61400c565b602002602001015160026040518363ffffffff1660e01b8152600401611335929190614022565b600060405180830381600087803b15801561134f57600080fd5b505af1158015611363573d6000803e3d6000fd5b505050508060010190506112e1565b506040516306b061d960e11b8152600481018a90526001600160a01b03841690630d60c3b290602401600060405180830381600087803b1580156113b557600080fd5b505af11580156113c9573d6000803e3d6000fd5b50506040518b92507f11824358702d89f2293e23da6c058c3c600cd7312e29fe855817f50b4ac2e95b9150600090a2505050505050505050565b6066546000906001600160a01b03166391148b2761141f610efc565b6040518263ffffffff1660e01b815260040161143b9190613274565b602060405180830381865afa158015611458573d6000803e3d6000fd5b505050506040513d601f19601f8201168201806040525081019061147c9190613a6d565b90506000816001600160a01b0316635c975abb6040518163ffffffff1660e01b8152600401602060405180830381865afa1580156114be573d6000803e3d6000fd5b505050506040513d601f19601f820116820180604052508101906114e29190613a9a565b905080156115025760405162461bcd60e51b815260040161069990613ab5565b6066546000906001600160a01b03166391148b2761151e610efc565b6040518263ffffffff1660e01b815260040161153a9190613274565b602060405180830381865afa158015611557573d6000803e3d6000fd5b505050506040513d601f19601f8201168201806040525081019061157b9190613a6d565b6040516311afe75f60e11b81523360048201529091506000906001600160a01b0383169063235fcebe90602401602060405180830381865afa1580156115c5573d6000803e3d6000fd5b505050506040513d601f19601f820116820180604052508101906115e99190613a9a565b9050806116265760405162461bcd60e51b815260206004820152600b60248201526a139bdd08185b1b1bddd95960aa1b6044820152606401610699565b6116308686612bfa565b505050505050565b6066546000906001600160a01b03166391148b27611654610efc565b6040518263ffffffff1660e01b81526004016116709190613274565b602060405180830381865afa15801561168d573d6000803e3d6000fd5b505050506040513d601f19601f820116820180604052508101906116b19190613a6d565b90506000816001600160a01b0316635c975abb6040518163ffffffff1660e01b8152600401602060405180830381865afa1580156116f3573d6000803e3d6000fd5b505050506040513d601f19601f820116820180604052508101906117179190613a9a565b905080156117375760405162461bcd60e51b815260040161069990613ab5565b6066546000906001600160a01b03166391148b27611753610efc565b6040518263ffffffff1660e01b815260040161176f9190613274565b602060405180830381865afa15801561178c573d6000803e3d6000fd5b505050506040513d601f19601f820116820180604052508101906117b09190613a6d565b90506000816001600160a01b0316638da5cb5b6040518163ffffffff1660e01b8152600401602060405180830381865afa1580156117f2573d6000803e3d6000fd5b505050506040513d601f19601f820116820180604052508101906118169190613a6d565b90506001600160a01b03811633146118645760405162461bcd60e51b81526020600482015260116024820152702737ba103330b1ba37b93c9037bbb732b960791b6044820152606401610699565b60665460408051634be4e3dd60e01b815290516000926001600160a01b031691634be4e3dd9160048083019260209291908290030181865afa1580156118ae573d6000803e3d6000fd5b505050506040513d601f19601f820116820180604052508101906118d29190613a6d565b90506000806118e18389612a56565b9093509150600290508160068111156118fc576118fc613ada565b1461193f5760405162461bcd60e51b815260206004820152601360248201527210985d18da081b9bdd0818dbdb999a5c9b5959606a1b6044820152606401610699565b6119493383612bfa565b6040516323b872dd60e01b8152306004820152336024820152604481018990526001600160a01b038416906323b872dd90606401600060405180830381600087803b15801561199757600080fd5b505af11580156119ab573d6000803e3d6000fd5b505050505050505050505050565b6066546000906001600160a01b03166391148b276119d5610efc565b6040518263ffffffff1660e01b81526004016119f19190613274565b602060405180830381865afa158015611a0e573d6000803e3d6000fd5b505050506040513d601f19601f82011682018060405250810190611a329190613a6d565b90506000816001600160a01b0316635c975abb6040518163ffffffff1660e01b8152600401602060405180830381865afa158015611a74573d6000803e3d6000fd5b505050506040513d601f19601f82011682018060405250810190611a989190613a9a565b90508015611ab85760405162461bcd60e51b815260040161069990613ab5565b611ac3843385612d45565b611acd8484612bfa565b50505050565b6066546000906001600160a01b03166391148b27611aef610efc565b6040518263ffffffff1660e01b8152600401611b0b9190613274565b602060405180830381865afa158015611b28573d6000803e3d6000fd5b505050506040513d601f19601f82011682018060405250810190611b4c9190613a6d565b90506000816001600160a01b0316635c975abb6040518163ffffffff1660e01b8152600401602060405180830381865afa158015611b8e573d6000803e3d6000fd5b505050506040513d601f19601f82011682018060405250810190611bb29190613a9a565b90508015611bd25760405162461bcd60e51b815260040161069990613ab5565b6066546000906001600160a01b03166391148b27611bee610efc565b6040518263ffffffff1660e01b8152600401611c0a9190613274565b602060405180830381865afa158015611c27573d6000803e3d6000fd5b505050506040513d601f19601f82011682018060405250810190611c4b9190613a6d565b6040516311afe75f60e11b81523360048201529091506000906001600160a01b0383169063235fcebe90602401602060405180830381865afa158015611c95573d6000803e3d6000fd5b505050506040513d601f19601f82011682018060405250810190611cb99190613a9a565b905080611cf65760405162461bcd60e51b815260206004820152600b60248201526a139bdd08185b1b1bddd95960aa1b6044820152606401610699565b6116308686612b02565b6060806060611d0d610f1a565b60405191935091506105689083908390602001614054565b6066546000906001600160a01b03166391148b27611d41610efc565b6040518263ffffffff1660e01b8152600401611d5d9190613274565b602060405180830381865afa158015611d7a573d6000803e3d6000fd5b505050506040513d601f19601f82011682018060405250810190611d9e9190613a6d565b90506000816001600160a01b0316635c975abb6040518163ffffffff1660e01b8152600401602060405180830381865afa158015611de0573d6000803e3d6000fd5b505050506040513d601f19601f82011682018060405250810190611e049190613a9a565b90508015611e245760405162461bcd60e51b815260040161069990613ab5565b6066547ffb7778e60e898528875e31f94e3a623d6302be2aa540c7a7f5ae26fe5ee2498d906001600160a01b03166391148b27611e5f610efc565b6040518263ffffffff1660e01b8152600401611e7b9190613274565b602060405180830381865afa158015611e98573d6000803e3d6000fd5b505050506040513d601f19601f82011682018060405250810190611ebc9190613a6d565b604051632474521560e21b8152600481018390523360248201526001600160a01b0391909116906391d1485490604401602060405180830381865afa158015611f09573d6000803e3d6000fd5b505050506040513d601f19601f82011682018060405250810190611f2d9190613a9a565b611f6a5760405162461bcd60e51b815260206004820152600e60248201526d496e76616c69642061636365737360901b6044820152606401610699565b60665460408051634be4e3dd60e01b815290516001600160a01b03909216916000918391634be4e3dd916004808201926020929091908290030181865afa158015611fb9573d6000803e3d6000fd5b505050506040513d601f19601f82011682018060405250810190611fdd9190613a6d565b90506000826001600160a01b031663e72994e26040518163ffffffff1660e01b8152600401602060405180830381865afa15801561201f573d6000803e3d6000fd5b505050506040513d601f19601f820116820180604052508101906120439190613a6d565b60405163103a258b60e31b8152600481018990529091506000906001600160a01b038316906381d12c5890602401600060405180830381865afa15801561208e573d6000803e3d6000fd5b505050506040513d6000823e601f3d908101601f191682016040526120b69190810190613f55565b60808101515190915060005b8181101561215357846001600160a01b0316633a484efd846080015183815181106120ef576120ef61400c565b602002602001015160046040518363ffffffff1660e01b8152600401612116929190614022565b600060405180830381600087803b15801561213057600080fd5b505af1158015612144573d6000803e3d6000fd5b505050508060010190506120c2565b5060405163075f2da360e51b8152600481018a90526001600160a01b0384169063ebe5b46090602401600060405180830381600087803b15801561219657600080fd5b505af11580156121aa573d6000803e3d6000fd5b50506040518b92507f57e4027df666ec477f55d7dd87fb5a098836de7eaf475ba43d684b5d438d238b9150600090a2505050505050505050565b600033816121f2828661246c565b9050838110156122525760405162461bcd60e51b815260206004820152602560248201527f45524332303a2064656372656173656420616c6c6f77616e63652062656c6f77604482015264207a65726f60d81b6064820152608401610699565b61225f8286868403612896565b506001949350505050565b6000826001600160a01b03811661228057600080fd5b306001600160a01b0382160361229557600080fd5b6066546000906001600160a01b03166391148b276122b1610efc565b6040518263ffffffff1660e01b81526004016122cd9190613274565b602060405180830381865afa1580156122ea573d6000803e3d6000fd5b505050506040513d601f19601f8201168201806040525081019061230e9190613a6d565b90506000816001600160a01b0316635c975abb6040518163ffffffff1660e01b8152600401602060405180830381865afa158015612350573d6000803e3d6000fd5b505050506040513d601f19601f820116820180604052508101906123749190613a9a565b905080156123945760405162461bcd60e51b815260040161069990613ab5565b61239e8686612db9565b5060019695505050505050565b60006123b76001612dc7565b905080156123cf576000805461ff0019166101001790555b6123d98585612e47565b6065839055606680546001600160a01b0319166001600160a01b038416179055801561243f576000805461ff0019169055604051600181527f7f26b83ff96e1f2b6a682f133852f6798a09c465da95921460cefb38474024989060200160405180910390a15b5050505050565b6000806124516104ea565b905061245c60355490565b6124669082613b14565b91505090565b6001600160a01b03918216600090815260346020908152604080832093909416825291909152205490565b60665460009081906001600160a01b03166391148b276124b5610efc565b6040518263ffffffff1660e01b81526004016124d19190613274565b602060405180830381865afa1580156124ee573d6000803e3d6000fd5b505050506040513d601f19601f820116820180604052508101906125129190613a6d565b90506000816001600160a01b0316635c975abb6040518163ffffffff1660e01b8152600401602060405180830381865afa158015612554573d6000803e3d6000fd5b505050506040513d601f19601f820116820180604052508101906125789190613a9a565b905080156125985760405162461bcd60e51b815260040161069990613ab5565b60665460408051634be4e3dd60e01b815290516001600160a01b03909216916000918391634be4e3dd916004808201926020929091908290030181865afa1580156125e7573d6000803e3d6000fd5b505050506040513d601f19601f8201168201806040525081019061260b9190613a6d565b90506000826001600160a01b031663e72994e26040518163ffffffff1660e01b8152600401602060405180830381865afa15801561264d573d6000803e3d6000fd5b505050506040513d601f19601f820116820180604052508101906126719190613a6d565b9050600088815b818110156127295760008c8c838181106126945761269461400c565b90506020020135905060006126a98783612a56565b5091506126b890508186613ebe565b604051633a484efd60e01b81529095506001600160a01b03881690633a484efd906126ea908590600390600401614022565b600060405180830381600087803b15801561270457600080fd5b505af1158015612718573d6000803e3d6000fd5b505050508260010192505050612678565b50508088146127725760405162461bcd60e51b8152602060048201526015602482015274084c2e8c6d040c2dadeeadce840dad2e6dac2e8c6d605b1b6044820152606401610699565b61277c828961057e565b6127ba5760405162461bcd60e51b815260206004820152600f60248201526e105c1c1c9bdd985b0819985a5b1959608a1b6044820152606401610699565b60006001600160a01b03831663c346a8bf338b8e8e6040518563ffffffff1660e01b81526004016127ee94939291906140d7565b6020604051808303816000875af115801561280d573d6000803e3d6000fd5b505050506040513d601f19601f8201168201806040525081019061283191906140ff565b905080336001600160a01b03167f64abd27c2f173f29d68e3c4d0922caa80fe66344f802fd6a064cd9ae298db3078b8e8e60405161287193929190614118565b60405180910390a39a9950505050505050505050565b6001600160a01b03163b151590565b6001600160a01b0383166128f85760405162461bcd60e51b8152602060048201526024808201527f45524332303a20617070726f76652066726f6d20746865207a65726f206164646044820152637265737360e01b6064820152608401610699565b6001600160a01b0382166129595760405162461bcd60e51b815260206004820152602260248201527f45524332303a20617070726f766520746f20746865207a65726f206164647265604482015261737360f01b6064820152608401610699565b6001600160a01b0383811660008181526034602090815260408083209487168084529482529182902085905590518481527f8c5be1e5ebec7d5bd14f71427d1e84f3dd0314c0f7b2291e5b200ac8c7c3b92591015b60405180910390a3505050565b60665460408051634be4e3dd60e01b815290516000926001600160a01b031691634be4e3dd9160048083019260209291908290030181865afa158015612a05573d6000803e3d6000fd5b505050506040513d601f19601f82011682018060405250810190612a299190613a6d565b6001600160a01b0316826001600160a01b031603612a4957506001919050565b506000919050565b919050565b600080600080600080876001600160a01b031663dff35e83886040518263ffffffff1660e01b8152600401612a8d91815260200190565b606060405180830381865afa158015612aaa573d6000803e3d6000fd5b505050506040513d601f19601f82011682018060405250810190612ace9190614132565b92509250925082612add601290565b612ae890600a6139d6565b612af290846139e5565b9096509450925050509250925092565b6001600160a01b038216612b585760405162461bcd60e51b815260206004820152601f60248201527f45524332303a206d696e7420746f20746865207a65726f2061646472657373006044820152606401610699565b8060356000828254612b6a9190613ebe565b90915550506001600160a01b03821660009081526033602052604081208054839290612b97908490613ebe565b90915550506040518181526001600160a01b038316906000907fddf252ad1be2c89b69c2b068fc378daa952ba7f163c4a11628f55a4df523b3ef9060200160405180910390a35050565b600033612bef858285612d45565b61225f858585612ed9565b6001600160a01b038216612c5a5760405162461bcd60e51b815260206004820152602160248201527f45524332303a206275726e2066726f6d20746865207a65726f206164647265736044820152607360f81b6064820152608401610699565b6001600160a01b03821660009081526033602052604090205481811015612cce5760405162461bcd60e51b815260206004820152602260248201527f45524332303a206275726e20616d6f756e7420657863656564732062616c616e604482015261636560f01b6064820152608401610699565b6001600160a01b0383166000908152603360205260408120838303905560358054849290612cfd908490613b14565b90915550506040518281526000906001600160a01b038516907fddf252ad1be2c89b69c2b068fc378daa952ba7f163c4a11628f55a4df523b3ef906020016129ae565b505050565b6000612d51848461246c565b90506000198114611acd5781811015612dac5760405162461bcd60e51b815260206004820152601d60248201527f45524332303a20696e73756666696369656e7420616c6c6f77616e63650000006044820152606401610699565b611acd8484848403612896565b60003361058c818585612ed9565b60008054610100900460ff1615612e06578160ff166001148015612dea5750303b155b612a495760405162461bcd60e51b81526004016106999061416f565b60005460ff808416911610612e2d5760405162461bcd60e51b81526004016106999061416f565b506000805460ff191660ff92909216919091179055600190565b600054610100900460ff16612eb25760405162461bcd60e51b815260206004820152602b60248201527f496e697469616c697a61626c653a20636f6e7472616374206973206e6f74206960448201526a6e697469616c697a696e6760a81b6064820152608401610699565b8151612ec5906036906020850190613183565b508051612d40906037906020840190613183565b6001600160a01b038316612f3d5760405162461bcd60e51b815260206004820152602560248201527f45524332303a207472616e736665722066726f6d20746865207a65726f206164604482015264647265737360d81b6064820152608401610699565b6001600160a01b038216612f9f5760405162461bcd60e51b815260206004820152602360248201527f45524332303a207472616e7366657220746f20746865207a65726f206164647260448201526265737360e81b6064820152608401610699565b6001600160a01b038316600090815260336020526040902054818110156130175760405162461bcd60e51b815260206004820152602660248201527f45524332303a207472616e7366657220616d6f756e7420657863656564732062604482015265616c616e636560d01b6064820152608401610699565b6001600160a01b0380851660009081526033602052604080822085850390559185168152908120805484929061304e908490613ebe565b92505081905550826001600160a01b0316846001600160a01b03167fddf252ad1be2c89b69c2b068fc378daa952ba7f163c4a11628f55a4df523b3ef8460405161309a91815260200190565b60405180910390a3611acd565b6040518061018001604052806060815260200160006001600160401b0316815260200160006001600160401b031681526020016000815260200160006001600160401b0316815260200160001515815260200160001515815260200160608152602001606081526020016060815260200160608152602001606081525090565b60405180610140016040528060608152602001606081526020016060815260200160608152602001606081526020016060815260200160608152602001606081526020016060815260200160006001600160a01b031681525090565b82805461318f906141bd565b90600052602060002090601f0160209004810192826131b157600085556131f7565b82601f106131ca57805160ff19168380011785556131f7565b828001600101855582156131f7579182015b828111156131f75782518255916020019190600101906131dc565b50613203929150613207565b5090565b5b808211156132035760008155600101613208565b60005b8381101561323757818101518382015260200161321f565b83811115611acd5750506000910152565b6000815180845261326081602086016020860161321c565b601f01601f19169290920160200192915050565b60208152600061053c6020830184613248565b6001600160a01b038116811461329c57600080fd5b50565b600080604083850312156132b257600080fd5b82356132bd81613287565b946020939093013593505050565b6000806000806000608086880312156132e357600080fd5b85356132ee81613287565b945060208601356132fe81613287565b93506040860135925060608601356001600160401b038082111561332157600080fd5b818801915088601f83011261333557600080fd5b81358181111561334457600080fd5b89602082850101111561335657600080fd5b9699959850939650602001949392505050565b6000610180825181855261337f82860182613248565b915050602083015161339c60208601826001600160401b03169052565b5060408301516133b760408601826001600160401b03169052565b506060830151606085015260808301516133dc60808601826001600160401b03169052565b5060a08301516133f060a086018215159052565b5060c083015161340460c086018215159052565b5060e083015184820360e086015261341c8282613248565b91505061010080840151858303828701526134378382613248565b9250505061012080840151858303828701526134538382613248565b92505050610140808401518583038287015261346f8382613248565b92505050610160808401518583038287015261348b8382613248565b9695505050505050565b60408152600083516101408060408501526134b4610180850183613248565b91506020860151603f19808685030160608701526134d28483613248565b935060408801519150808685030160808701526134ef8483613248565b935060608801519150808685030160a087015261350c8483613248565b935060808801519150808685030160c08701526135298483613248565b935060a08801519150808685030160e08701526135468483613248565b935060c088015191506101008187860301818801526135658584613248565b945060e089015192506101208288870301818901526135848685613248565b9550818a0151935082888703018589015261359f8685613248565b9550808a01519450505050506135c16101608501826001600160a01b03169052565b5082810360208401526135d48185613369565b95945050505050565b6000806000606084860312156135f257600080fd5b83356135fd81613287565b9250602084013561360d81613287565b929592945050506040919091013590565b6040815260006136316040830185613248565b82810360208401526135d48185613248565b60006020828403121561365557600080fd5b5035919050565b60006020828403121561366e57600080fd5b813561053c81613287565b634e487b7160e01b600052604160045260246000fd5b60405161018081016001600160401b03811182821017156136b2576136b2613679565b60405290565b60405161014081016001600160401b03811182821017156136b2576136b2613679565b60405160a081016001600160401b03811182821017156136b2576136b2613679565b604051601f8201601f191681016001600160401b038111828210171561372557613725613679565b604052919050565b60006001600160401b0382111561374657613746613679565b50601f01601f191660200190565b600082601f83011261376557600080fd5b81356137786137738261372d565b6136fd565b81815284602083860101111561378d57600080fd5b816020850160208301376000918101602001919091529392505050565b600080600080608085870312156137c057600080fd5b84356001600160401b03808211156137d757600080fd5b6137e388838901613754565b955060208701359150808211156137f957600080fd5b5061380687828801613754565b93505060408501359150606085013561381e81613287565b939692955090935050565b6000806040838503121561383c57600080fd5b823561384781613287565b9150602083013561385781613287565b809150509250929050565b60008060006040848603121561387757600080fd5b83356001600160401b038082111561388e57600080fd5b818601915086601f8301126138a257600080fd5b8135818111156138b157600080fd5b8760208260051b85010111156138c657600080fd5b6020928301989097509590910135949350505050565b634e487b7160e01b600052601160045260246000fd5b600181815b8085111561392d578160001904821115613913576139136138dc565b8085161561392057918102915b93841c93908002906138f7565b509250929050565b60008261394457506001610592565b8161395157506000610592565b816001811461396757600281146139715761398d565b6001915050610592565b60ff841115613982576139826138dc565b50506001821b610592565b5060208310610133831016604e8410600b84101617156139b0575081810a610592565b6139ba83836138f2565b80600019048211156139ce576139ce6138dc565b029392505050565b600061053c60ff841683613935565b60008160001904831182151516156139ff576139ff6138dc565b500290565b75546f7563616e2050726f746f636f6c3a2054434f322d60501b815260008351613a3581601685016020880161321c565b602d60f81b6016918401918201528351613a5681601784016020880161321c565b01601701949350505050565b8051612a5181613287565b600060208284031215613a7f57600080fd5b815161053c81613287565b80518015158114612a5157600080fd5b600060208284031215613aac57600080fd5b61053c82613a8a565b6020808252600b908201526a2830bab9b2b2102a21a79960a91b604082015260600190565b634e487b7160e01b600052602160045260246000fd5b60008060408385031215613b0357600080fd5b505080516020909101519092909150565b600082821015613b2657613b266138dc565b500390565b600082601f830112613b3c57600080fd5b8151613b4a6137738261372d565b818152846020838601011115613b5f57600080fd5b613b7082602083016020870161321c565b949350505050565b80516001600160401b0381168114612a5157600080fd5b600060208284031215613ba157600080fd5b81516001600160401b0380821115613bb857600080fd5b908301906101808286031215613bcd57600080fd5b613bd561368f565b825182811115613be457600080fd5b613bf087828601613b2b565b825250613bff60208401613b78565b6020820152613c1060408401613b78565b604082015260608301516060820152613c2b60808401613b78565b6080820152613c3c60a08401613a8a565b60a0820152613c4d60c08401613a8a565b60c082015260e083015182811115613c6457600080fd5b613c7087828601613b2b565b60e0830152506101008084015183811115613c8a57600080fd5b613c9688828701613b2b565b8284015250506101208084015183811115613cb057600080fd5b613cbc88828701613b2b565b8284015250506101408084015183811115613cd657600080fd5b613ce288828701613b2b565b8284015250506101608084015183811115613cfc57600080fd5b613d0888828701613b2b565b918301919091525095945050505050565b600060208284031215613d2b57600080fd5b81516001600160401b0380821115613d4257600080fd5b908301906101408286031215613d5757600080fd5b613d5f6136b8565b825182811115613d6e57600080fd5b613d7a87828601613b2b565b825250602083015182811115613d8f57600080fd5b613d9b87828601613b2b565b602083015250604083015182811115613db357600080fd5b613dbf87828601613b2b565b604083015250606083015182811115613dd757600080fd5b613de387828601613b2b565b606083015250608083015182811115613dfb57600080fd5b613e0787828601613b2b565b60808301525060a083015182811115613e1f57600080fd5b613e2b87828601613b2b565b60a08301525060c083015182811115613e4357600080fd5b613e4f87828601613b2b565b60c08301525060e083015182811115613e6757600080fd5b613e7387828601613b2b565b60e0830152506101008084015183811115613e8d57600080fd5b613e9988828701613b2b565b8284015250506101209150613eaf828401613a62565b91810191909152949350505050565b60008219821115613ed157613ed16138dc565b500190565b600082601f830112613ee757600080fd5b815160206001600160401b03821115613f0257613f02613679565b8160051b613f118282016136fd565b9283528481018201928281019087851115613f2b57600080fd5b83870192505b84831015613f4a57825182529183019190830190613f31565b979650505050505050565b600060208284031215613f6757600080fd5b81516001600160401b0380821115613f7e57600080fd5b9083019060a08286031215613f9257600080fd5b613f9a6136db565b8251613fa581613287565b815260208381015190820152604083015160028110613fc357600080fd5b6040820152606083015160038110613fda57600080fd5b6060820152608083015182811115613ff157600080fd5b613ffd87828601613ed6565b60808301525095945050505050565b634e487b7160e01b600052603260045260246000fd5b828152604081016007831061404757634e487b7160e01b600052602160045260246000fd5b8260208301529392505050565b6454434f322d60d81b81526000835161407481600585016020880161321c565b602d60f81b600591840191820152835161409581600684016020880161321c565b01600601949350505050565b81835260006001600160fb1b038311156140ba57600080fd5b8260051b8083602087013760009401602001938452509192915050565b60018060a01b038516815283602082015260606040820152600061348b6060830184866140a1565b60006020828403121561411157600080fd5b5051919050565b8381526040602082015260006135d46040830184866140a1565b60008060006060848603121561414757600080fd5b835192506020840151915060408401516007811061416457600080fd5b809150509250925092565b6020808252602e908201527f496e697469616c697a61626c653a20636f6e747261637420697320616c72656160408201526d191e481a5b9a5d1a585b1a5e995960921b606082015260800190565b600181811c908216806141d157607f821691505b6020821081036141f157634e487b7160e01b600052602260045260246000fd5b5091905056fea26469706673582212206f50076f5f2c5d3506a3a704a4f95bc5b150a3320a915004ea2c6248a9e1159964736f6c634300080e0033496e697469616c697a61626c653a20636f6e747261637420697320616c726561",
  "devdoc": {
    "kind": "dev",
    "methods": {
      "allowance(address,address)": {
        "details": "See {IERC20-allowance}."
      },
      "approve(address,uint256)": {
        "details": "See {IERC20-approve}. NOTE: If `amount` is the maximum `uint256`, the allowance is not updated on `transferFrom`. This is semantically equivalent to an infinite approval. Requirements: - `spender` cannot be the zero address."
      },
      "balanceOf(address)": {
        "details": "See {IERC20-balanceOf}."
      },
      "bridgeBurn(address,uint256)": {
        "params": {
          "account": "The user for whom to burn TCO2",
          "amount": "The amount to burn."
        }
      },
      "bridgeMint(address,uint256)": {
        "params": {
          "account": "The user for whom to mint TCO2",
          "amount": "The amount to mint."
        }
      },
      "burnFrom(address,uint256)": {
        "params": {
          "account": "The user for whom to burn TCO2",
          "amount": "The amount to burn"
        }
      },
      "decimals()": {
        "details": "Returns the number of decimals used to get its user representation. For example, if `decimals` equals `2`, a balance of `505` tokens should be displayed to a user as `5.05` (`505 / 10 ** 2`). Tokens usually opt for a value of 18, imitating the relationship between Ether and Wei. This is the value {ERC20} uses, unless this function is overridden; NOTE: This information is only used for _display_ purposes: it in no way affects any of the arithmetic of the contract, including {IERC20-balanceOf} and {IERC20-transfer}."
      },
      "decreaseAllowance(address,uint256)": {
        "details": "Atomically decreases the allowance granted to `spender` by the caller. This is an alternative to {approve} that can be used as a mitigation for problems described in {IERC20-approve}. Emits an {Approval} event indicating the updated allowance. Requirements: - `spender` cannot be the zero address. - `spender` must have allowance for the caller of at least `subtractedValue`."
      },
      "defractionalize(uint256)": {
        "params": {
          "tokenId": "The batch NFT to defractionalize from the TCO2"
        }
      },
      "finalizeDetokenization(uint256)": {
        "params": {
          "requestId": "The request id in the escrow contract that tracks the detokenization request"
        }
      },
      "getAttributes()": {
        "details": "Function to get corresponding attributes from the CarbonProjects"
      },
      "getDepositCap()": {
        "details": "Returns the cap for TCO2s based on `totalVintageQuantity` Returns `~unlimited` if the value for the vintage is not set"
      },
      "getGlobalProjectVintageIdentifiers()": {
        "details": "Helper function to retrieve data fragments for `name()` and `symbol()`"
      },
      "getRemaining()": {
        "details": "Returns the remaining space in TCO2 contract before hitting the cap"
      },
      "increaseAllowance(address,uint256)": {
        "details": "Atomically increases the allowance granted to `spender` by the caller. This is an alternative to {approve} that can be used as a mitigation for problems described in {IERC20-approve}. Emits an {Approval} event indicating the updated allowance. Requirements: - `spender` cannot be the zero address."
      },
      "onERC721Received(address,address,uint256,bytes)": {
        "details": "Function is called with `operator` as `msg.sender` in a reference implementation by OZ `from` is the previous owner, not necessarily the same as operator. The hook checks if NFT collection is whitelisted and next if attributes are matching this ERC20 contract"
      },
      "requestDetokenization(uint256[],uint256)": {
        "details": "This function is permissionless and can be called by anyone",
        "params": {
          "amount": "The amount of TCO2 to detokenize Currently the amount must match the batch quantity",
          "tokenIds": "One or more batches to detokenize"
        },
        "returns": {
          "_0": "The ID of the request in the escrow contract"
        }
      },
      "revertDetokenization(uint256)": {
        "params": {
          "requestId": "The request id in the escrow contract that tracks the detokenization request"
        }
      },
      "standardRegistry()": {
        "details": "this must be overridden in the child contract"
      },
      "totalSupply()": {
        "details": "See {IERC20-totalSupply}."
      }
    },
    "stateVariables": {
      "VERSION": {
        "details": "Version-related parameters. VERSION keeps track of production releases. VERSION_RELEASE_CANDIDATE keeps track of iterations of a VERSION in our staging environment."
      }
    },
    "version": 1
  },
  "userdoc": {
    "kind": "user",
    "methods": {
      "bridgeBurn(address,uint256)": {
        "notice": "Burn TCO2 on behalf of a user. msg.sender does not require approval by the account for the burn to be successfull. This function is exposed so it can be utilized in cross-chain transfers of TCO2 where we want to burn the TCO2 in the source chain but not retire it."
      },
      "bridgeMint(address,uint256)": {
        "notice": "Mint TCO2 on behalf of a user. This function is exposed to be called by authorized message bridge systems and utilized for cross-chain transfers of TCO2 where we want to mint the TCO2 in the source chain."
      },
      "burnFrom(address,uint256)": {
        "notice": "Burn TCO2 on behalf of a user. msg.sender needs to be approved by the account for the burn to be successfull. This function is exposed so it can be utilized to burn credits without retiring them (eg. dispose HFC-23)."
      },
      "defractionalize(uint256)": {
        "notice": "Defractionalize batch NFT by burning the amount of TCO2 from the sender and transfer the batch NFT that was selected to the sender. The only valid sender currently is the TCO2 factory owner."
      },
      "finalizeDetokenization(uint256)": {
        "notice": "Finalize a detokenization request"
      },
      "name()": {
        "notice": "Token name getter overriden to return the a name based on the carbon project data"
      },
      "onERC721Received(address,address,uint256,bytes)": {
        "notice": "Receive hook to fractionalize Batch-NFTs into ERC20's"
      },
      "requestDetokenization(uint256[],uint256)": {
        "notice": "Request a detokenization of a batch NFT"
      },
      "revertDetokenization(uint256)": {
        "notice": "Revert a detokenization request"
      },
      "standardRegistry()": {
        "notice": "Return the name of the registry that this factory is enabling to tokenize, eg., verra"
      },
      "symbol()": {
        "notice": "Token symbol getter overriden to return the a symbol based on the carbon project data"
      }
    },
    "notice": "The PuroToucanCarbonOffsets contract is a specific implementation for Puro's logic.",
    "version": 1
  },
  "storageLayout": {
    "storage": [
      {
        "astId": 1489,
        "contract": "contracts/PuroToucanCarbonOffsets.sol:PuroToucanCarbonOffsets",
        "label": "_initialized",
        "offset": 0,
        "slot": "0",
        "type": "t_uint8"
      },
      {
        "astId": 1492,
        "contract": "contracts/PuroToucanCarbonOffsets.sol:PuroToucanCarbonOffsets",
        "label": "_initializing",
        "offset": 1,
        "slot": "0",
        "type": "t_bool"
      },
      {
        "astId": 4593,
        "contract": "contracts/PuroToucanCarbonOffsets.sol:PuroToucanCarbonOffsets",
        "label": "__gap",
        "offset": 0,
        "slot": "1",
        "type": "t_array(t_uint256)50_storage"
      },
      {
        "astId": 1949,
        "contract": "contracts/PuroToucanCarbonOffsets.sol:PuroToucanCarbonOffsets",
        "label": "_balances",
        "offset": 0,
        "slot": "51",
        "type": "t_mapping(t_address,t_uint256)"
      },
      {
        "astId": 1955,
        "contract": "contracts/PuroToucanCarbonOffsets.sol:PuroToucanCarbonOffsets",
        "label": "_allowances",
        "offset": 0,
        "slot": "52",
        "type": "t_mapping(t_address,t_mapping(t_address,t_uint256))"
      },
      {
        "astId": 1957,
        "contract": "contracts/PuroToucanCarbonOffsets.sol:PuroToucanCarbonOffsets",
        "label": "_totalSupply",
        "offset": 0,
        "slot": "53",
        "type": "t_uint256"
      },
      {
        "astId": 1959,
        "contract": "contracts/PuroToucanCarbonOffsets.sol:PuroToucanCarbonOffsets",
        "label": "_name",
        "offset": 0,
        "slot": "54",
        "type": "t_string_storage"
      },
      {
        "astId": 1961,
        "contract": "contracts/PuroToucanCarbonOffsets.sol:PuroToucanCarbonOffsets",
        "label": "_symbol",
        "offset": 0,
        "slot": "55",
        "type": "t_string_storage"
      },
      {
        "astId": 2540,
        "contract": "contracts/PuroToucanCarbonOffsets.sol:PuroToucanCarbonOffsets",
        "label": "__gap",
        "offset": 0,
        "slot": "56",
        "type": "t_array(t_uint256)45_storage"
      },
      {
        "astId": 11634,
        "contract": "contracts/PuroToucanCarbonOffsets.sol:PuroToucanCarbonOffsets",
        "label": "projectVintageTokenId",
        "offset": 0,
        "slot": "101",
        "type": "t_uint256"
      },
      {
        "astId": 11636,
        "contract": "contracts/PuroToucanCarbonOffsets.sol:PuroToucanCarbonOffsets",
        "label": "contractRegistry",
        "offset": 0,
        "slot": "102",
        "type": "t_address"
      },
      {
        "astId": 11640,
        "contract": "contracts/PuroToucanCarbonOffsets.sol:PuroToucanCarbonOffsets",
        "label": "minterToId",
        "offset": 0,
        "slot": "103",
        "type": "t_mapping(t_address,t_uint256)"
      },
      {
        "astId": 11645,
        "contract": "contracts/PuroToucanCarbonOffsets.sol:PuroToucanCarbonOffsets",
        "label": "retiredAmount",
        "offset": 0,
        "slot": "104",
        "type": "t_mapping(t_address,t_uint256)"
      }
    ],
    "types": {
      "t_address": {
        "encoding": "inplace",
        "label": "address",
        "numberOfBytes": "20"
      },
      "t_array(t_uint256)45_storage": {
        "base": "t_uint256",
        "encoding": "inplace",
        "label": "uint256[45]",
        "numberOfBytes": "1440"
      },
      "t_array(t_uint256)50_storage": {
        "base": "t_uint256",
        "encoding": "inplace",
        "label": "uint256[50]",
        "numberOfBytes": "1600"
      },
      "t_bool": {
        "encoding": "inplace",
        "label": "bool",
        "numberOfBytes": "1"
      },
      "t_mapping(t_address,t_mapping(t_address,t_uint256))": {
        "encoding": "mapping",
        "key": "t_address",
        "label": "mapping(address => mapping(address => uint256))",
        "numberOfBytes": "32",
        "value": "t_mapping(t_address,t_uint256)"
      },
      "t_mapping(t_address,t_uint256)": {
        "encoding": "mapping",
        "key": "t_address",
        "label": "mapping(address => uint256)",
        "numberOfBytes": "32",
        "value": "t_uint256"
      },
      "t_string_storage": {
        "encoding": "bytes",
        "label": "string",
        "numberOfBytes": "32"
      },
      "t_uint256": {
        "encoding": "inplace",
        "label": "uint256",
        "numberOfBytes": "32"
      },
      "t_uint8": {
        "encoding": "inplace",
        "label": "uint8",
        "numberOfBytes": "1"
      }
    }
  }
}