{
  "address": "0x563aF37a8264ec29e959Ca51489AF3282d05a8FB",
  "abi": [
    {
      "inputs": [
        {
          "internalType": "address",
          "name": "tokenIssuer_",
          "type": "address"
        },
        {
          "internalType": "contract INCTPool",
          "name": "nctPool_",
          "type": "address"
        }
      ],
      "stateMutability": "nonpayable",
      "type": "constructor"
    },
    {
      "anonymous": false,
      "inputs": [
        {
          "indexed": false,
          "internalType": "address",
          "name": "sender",
          "type": "address"
        },
        {
          "indexed": false,
          "internalType": "string",
          "name": "recipient",
          "type": "string"
        },
        {
          "indexed": false,
          "internalType": "address",
          "name": "tco2",
          "type": "address"
        },
        {
          "indexed": false,
          "internalType": "uint256",
          "name": "amount",
          "type": "uint256"
        }
      ],
      "name": "Bridge",
      "type": "event"
    },
    {
      "anonymous": false,
      "inputs": [
        {
          "indexed": false,
          "internalType": "string",
          "name": "sender",
          "type": "string"
        },
        {
          "indexed": false,
          "internalType": "address",
          "name": "recipient",
          "type": "address"
        },
        {
          "indexed": false,
          "internalType": "address",
          "name": "tco2",
          "type": "address"
        },
        {
          "indexed": false,
          "internalType": "uint256",
          "name": "amount",
          "type": "uint256"
        }
      ],
      "name": "Issue",
      "type": "event"
    },
    {
      "anonymous": false,
      "inputs": [
        {
          "indexed": true,
          "internalType": "address",
          "name": "previousOwner",
          "type": "address"
        },
        {
          "indexed": true,
          "internalType": "address",
          "name": "newOwner",
          "type": "address"
        }
      ],
      "name": "OwnershipTransferred",
      "type": "event"
    },
    {
      "anonymous": false,
      "inputs": [
        {
          "indexed": false,
          "internalType": "address",
          "name": "account",
          "type": "address"
        }
      ],
      "name": "Paused",
      "type": "event"
    },
    {
      "anonymous": false,
      "inputs": [
        {
          "indexed": false,
          "internalType": "address",
          "name": "oldIssuer",
          "type": "address"
        },
        {
          "indexed": false,
          "internalType": "address",
          "name": "newIssuer",
          "type": "address"
        }
      ],
      "name": "TokenIssuerUpdated",
      "type": "event"
    },
    {
      "anonymous": false,
      "inputs": [
        {
          "indexed": false,
          "internalType": "address",
          "name": "account",
          "type": "address"
        }
      ],
      "name": "Unpaused",
      "type": "event"
    },
    {
      "inputs": [
        {
          "internalType": "string",
          "name": "recipient",
          "type": "string"
        },
        {
          "internalType": "address",
          "name": "tco2",
          "type": "address"
        },
        {
          "internalType": "uint256",
          "name": "amount",
          "type": "uint256"
        }
      ],
      "name": "bridge",
      "outputs": [],
      "stateMutability": "nonpayable",
      "type": "function"
    },
    {
      "inputs": [
        {
          "internalType": "string",
          "name": "sender",
          "type": "string"
        },
        {
          "internalType": "address",
          "name": "recipient",
          "type": "address"
        },
        {
          "internalType": "address",
          "name": "tco2",
          "type": "address"
        },
        {
          "internalType": "uint256",
          "name": "amount",
          "type": "uint256"
        },
        {
          "internalType": "string",
          "name": "origin",
          "type": "string"
        }
      ],
      "name": "issueTCO2Tokens",
      "outputs": [],
      "stateMutability": "nonpayable",
      "type": "function"
    },
    {
      "inputs": [],
      "name": "nctPool",
      "outputs": [
        {
          "internalType": "contract INCTPool",
          "name": "",
          "type": "address"
        }
      ],
      "stateMutability": "view",
      "type": "function"
    },
    {
      "inputs": [
        {
          "internalType": "string",
          "name": "",
          "type": "string"
        }
      ],
      "name": "origins",
      "outputs": [
        {
          "internalType": "bool",
          "name": "",
          "type": "bool"
        }
      ],
      "stateMutability": "view",
      "type": "function"
    },
    {
      "inputs": [],
      "name": "owner",
      "outputs": [
        {
          "internalType": "address",
          "name": "",
          "type": "address"
        }
      ],
      "stateMutability": "view",
      "type": "function"
    },
    {
      "inputs": [],
      "name": "pause",
      "outputs": [],
      "stateMutability": "nonpayable",
      "type": "function"
    },
    {
      "inputs": [],
      "name": "paused",
      "outputs": [
        {
          "internalType": "bool",
          "name": "",
          "type": "bool"
        }
      ],
      "stateMutability": "view",
      "type": "function"
    },
    {
      "inputs": [],
      "name": "renounceOwnership",
      "outputs": [],
      "stateMutability": "nonpayable",
      "type": "function"
    },
    {
      "inputs": [
        {
          "internalType": "address",
          "name": "newIssuer",
          "type": "address"
        }
      ],
      "name": "setTokenIssuer",
      "outputs": [],
      "stateMutability": "nonpayable",
      "type": "function"
    },
    {
      "inputs": [
        {
          "internalType": "address",
          "name": "",
          "type": "address"
        }
      ],
      "name": "tco2Limits",
      "outputs": [
        {
          "internalType": "uint256",
          "name": "",
          "type": "uint256"
        }
      ],
      "stateMutability": "view",
      "type": "function"
    },
    {
      "inputs": [],
      "name": "tokenIssuer",
      "outputs": [
        {
          "internalType": "address",
          "name": "",
          "type": "address"
        }
      ],
      "stateMutability": "view",
      "type": "function"
    },
    {
      "inputs": [],
      "name": "totalTransferred",
      "outputs": [
        {
          "internalType": "uint256",
          "name": "",
          "type": "uint256"
        }
      ],
      "stateMutability": "view",
      "type": "function"
    },
    {
      "inputs": [
        {
          "internalType": "address",
          "name": "newOwner",
          "type": "address"
        }
      ],
      "name": "transferOwnership",
      "outputs": [],
      "stateMutability": "nonpayable",
      "type": "function"
    },
    {
      "inputs": [],
      "name": "unpause",
      "outputs": [],
      "stateMutability": "nonpayable",
      "type": "function"
    }
  ],
  "bytecode": "0x60a060405234801561001057600080fd5b506040516112bf3803806112bf83398101604081905261002f91610114565b610038336100c4565b6000805460ff60a01b19169055600380546001600160a01b0319166001600160a01b038416908117909155606082901b6001600160601b031916608052156100bd5760408051600081526001600160a01b03841660208201527f6942293fdb9df29631b252f0421dfada04a83e40660dd9ebffcf73bfd0d74f82910160405180910390a15b5050610165565b600080546001600160a01b038381166001600160a01b0319831681178455604051919092169283917f8be0079c531659141344cd1fd0a4f28419497f9722a3daafe3b4186f6b6457e09190a35050565b60008060408385031215610126578182fd5b82516101318161014d565b60208401519092506101428161014d565b809150509250929050565b6001600160a01b038116811461016257600080fd5b50565b60805160601c61113561018a600039600081816101aa01526104c901526111356000f3fe608060405234801561001057600080fd5b50600436106100ea5760003560e01c80638da5cb5b1161008c5780639b087b2d116100665780639b087b2d146101fa578063ebaa198d14610203578063f243c2a714610216578063f2fde38b1461022957600080fd5b80638da5cb5b14610180578063906bb53f146101a557806398c61c5d146101cc57600080fd5b80635c975abb116100c85780635c975abb1461013f5780636adb2a1a1461015d578063715018a6146101705780638456cb591461017857600080fd5b806309daa7eb146100ef5780633f4ba83a146101045780634635c0c01461010c575b600080fd5b6101026100fd366004610ccd565b61023c565b005b61010261031c565b61012c61011a366004610ccd565b60026020526000908152604090205481565b6040519081526020015b60405180910390f35b600054600160a01b900460ff165b6040519015158152602001610136565b61010261016b366004610da9565b610350565b6101026106fe565b610102610732565b6000546001600160a01b03165b6040516001600160a01b039091168152602001610136565b61018d7f000000000000000000000000000000000000000000000000000000000000000081565b61014d6101da366004610e03565b805160208183018101805160048252928201919093012091525460ff1681565b61012c60015481565b610102610211366004610d0e565b610764565b60035461018d906001600160a01b031681565b610102610237366004610ccd565b610a7d565b6000546001600160a01b0316331461026f5760405162461bcd60e51b815260040161026690610fc4565b60405180910390fd5b6003546001600160a01b039081169082168114156102bd5760405162461bcd60e51b815260206004820152600b60248201526a185b1c9958591e481cd95d60aa1b6044820152606401610266565b600380546001600160a01b0319166001600160a01b0384811691821790925560408051928416835260208301919091527f6942293fdb9df29631b252f0421dfada04a83e40660dd9ebffcf73bfd0d74f82910160405180910390a15050565b6000546001600160a01b031633146103465760405162461bcd60e51b815260040161026690610fc4565b61034e610b18565b565b600054600160a01b900460ff161561037a5760405162461bcd60e51b815260040161026690610f54565b8383602c81101561039d5760405162461bcd60e51b815260040161026690610ff9565b604080518082019091526006815265726567656e3160d01b602082015260005b60068160ff16101561045f5783838260ff168181106103ec57634e487b7160e01b600052603260045260246000fd5b9050013560f81c60f81b6001600160f81b031916828260ff168151811061042357634e487b7160e01b600052603260045260246000fd5b01602001516001600160f81b0319161461044f5760405162461bcd60e51b815260040161026690610f7e565b610458816110b3565b90506103bd565b50600084116104aa5760405162461bcd60e51b8152602060048201526017602482015276616d6f756e74206d75737420626520706f73697469766560481b6044820152606401610266565b604051636e2fab0760e11b81526001600160a01b0386811660048301527f0000000000000000000000000000000000000000000000000000000000000000169063dc5f560e9060240160206040518083038186803b15801561050b57600080fd5b505afa15801561051f573d6000803e3d6000fd5b505050506040513d601f19601f820116820180604052508101906105439190610cee565b61058f5760405162461bcd60e51b815260206004820152601e60248201527f54434f32206e6f7420656c696769626c6520666f72204e435420706f6f6c00006044820152606401610266565b60006105a064e8d4a510008661105d565b6105af9064e8d4a5100061107d565b90508085146106105760405162461bcd60e51b815260206004820152602760248201527f4f6e6c7920707265636973696f6e20757020746f203620646563696d616c7320604482015266185b1b1bddd95960ca1b6064820152608401610266565b84600160008282546106229190611045565b90915550506001600160a01b0386166000908152600260205260408120805487929061064f908490611045565b90915550506040517f0eb3eb789fc2804b74f29e01b28f308ef8dadfa839c6e3de2d80ec21fd4df98d9061068c9033908b908b908b908b90610ee6565b60405180910390a16040516374f4f54760e01b8152336004820152602481018690526001600160a01b038716906374f4f54790604401600060405180830381600087803b1580156106dc57600080fd5b505af11580156106f0573d6000803e3d6000fd5b505050505050505050505050565b6000546001600160a01b031633146107285760405162461bcd60e51b815260040161026690610fc4565b61034e6000610bb5565b6000546001600160a01b0316331461075c5760405162461bcd60e51b815260040161026690610fc4565b61034e610c05565b600054600160a01b900460ff161561078e5760405162461bcd60e51b815260040161026690610f54565b8686602c8110156107b15760405162461bcd60e51b815260040161026690610ff9565b604080518082019091526006815265726567656e3160d01b602082015260005b60068160ff1610156108735783838260ff1681811061080057634e487b7160e01b600052603260045260246000fd5b9050013560f81c60f81b6001600160f81b031916828260ff168151811061083757634e487b7160e01b600052603260045260246000fd5b01602001516001600160f81b031916146108635760405162461bcd60e51b815260040161026690610f7e565b61086c816110b3565b90506107d1565b50600086116108be5760405162461bcd60e51b8152602060048201526017602482015276616d6f756e74206d75737420626520706f73697469766560481b6044820152606401610266565b6003546001600160a01b031633146109095760405162461bcd60e51b815260206004820152600e60248201526d34b73b30b634b21031b0b63632b960911b6044820152606401610266565b6004858560405161091b929190610ed6565b9081526040519081900360200190205460ff161561096e5760405162461bcd60e51b815260206004820152601060248201526f323ab83634b1b0ba329037b934b3b4b760811b6044820152606401610266565b600160048686604051610982929190610ed6565b9081526040805160209281900383019020805460ff1916931515939093179092556001600160a01b0389166000908152600290915290812080548892906109ca90849061109c565b90915550506040517f65982784fd0cbc7978c1243e4cbd39a6ff6c696b14c14277dd15938da4fd2d5890610a07908c908c908c908c908c90610f1c565b60405180910390a16040516346154c9f60e11b81526001600160a01b03898116600483015260248201889052881690638c2a993e90604401600060405180830381600087803b158015610a5957600080fd5b505af1158015610a6d573d6000803e3d6000fd5b5050505050505050505050505050565b6000546001600160a01b03163314610aa75760405162461bcd60e51b815260040161026690610fc4565b6001600160a01b038116610b0c5760405162461bcd60e51b815260206004820152602660248201527f4f776e61626c653a206e6577206f776e657220697320746865207a65726f206160448201526564647265737360d01b6064820152608401610266565b610b1581610bb5565b50565b600054600160a01b900460ff16610b685760405162461bcd60e51b815260206004820152601460248201527314185d5cd8589b194e881b9bdd081c185d5cd95960621b6044820152606401610266565b6000805460ff60a01b191690557f5db9ee0a495bf2e6ff9c91a7834c1ba4fdd244a5e8aa4e537bd38aeae4b073aa335b6040516001600160a01b03909116815260200160405180910390a1565b600080546001600160a01b038381166001600160a01b0319831681178455604051919092169283917f8be0079c531659141344cd1fd0a4f28419497f9722a3daafe3b4186f6b6457e09190a35050565b600054600160a01b900460ff1615610c2f5760405162461bcd60e51b815260040161026690610f54565b6000805460ff60a01b1916600160a01b1790557f62e78cea01bee320cd4e420270b5ea74000d11b0c9f74754ebdbfc544b05a258610b983390565b80356001600160a01b0381168114610c8157600080fd5b919050565b60008083601f840112610c97578081fd5b50813567ffffffffffffffff811115610cae578182fd5b602083019150836020828501011115610cc657600080fd5b9250929050565b600060208284031215610cde578081fd5b610ce782610c6a565b9392505050565b600060208284031215610cff578081fd5b81518015158114610ce7578182fd5b600080600080600080600060a0888a031215610d28578283fd5b873567ffffffffffffffff80821115610d3f578485fd5b610d4b8b838c01610c86565b9099509750879150610d5f60208b01610c6a565b9650610d6d60408b01610c6a565b955060608a0135945060808a0135915080821115610d89578384fd5b50610d968a828b01610c86565b989b979a50959850939692959293505050565b60008060008060608587031215610dbe578384fd5b843567ffffffffffffffff811115610dd4578485fd5b610de087828801610c86565b9095509350610df3905060208601610c6a565b9396929550929360400135925050565b600060208284031215610e14578081fd5b813567ffffffffffffffff80821115610e2b578283fd5b818401915084601f830112610e3e578283fd5b813581811115610e5057610e506110e9565b604051601f8201601f19908116603f01168101908382118183101715610e7857610e786110e9565b81604052828152876020848701011115610e90578586fd5b826020860160208301379182016020019490945295945050505050565b81835281816020850137506000828201602090810191909152601f909101601f19169091010190565b8183823760009101908152919050565b600060018060a01b03808816835260806020840152610f09608084018789610ead565b9416604083015250606001529392505050565b608081526000610f30608083018789610ead565b6001600160a01b039586166020840152939094166040820152606001529392505050565b60208082526010908201526f14185d5cd8589b194e881c185d5cd95960821b604082015260600190565b60208082526026908201527f726567656e2061646472657373206d75737420737461727420776974682027726040820152656567656e312760d01b606082015260800190565b6020808252818101527f4f776e61626c653a2063616c6c6572206973206e6f7420746865206f776e6572604082015260600190565b6020808252602c908201527f726567656e2061646472657373206973206174206c656173742034342063686160408201526b72616374657273206c6f6e6760a01b606082015260800190565b60008219821115611058576110586110d3565b500190565b60008261107857634e487b7160e01b81526012600452602481fd5b500490565b6000816000190483118215151615611097576110976110d3565b500290565b6000828210156110ae576110ae6110d3565b500390565b600060ff821660ff8114156110ca576110ca6110d3565b60010192915050565b634e487b7160e01b600052601160045260246000fd5b634e487b7160e01b600052604160045260246000fdfea2646970667358221220768ee0bb485018ab448b5216eb75a4068e4352c23acbf9777f52c6f373e5209864736f6c63430008040033",
  "linkReferences": {},
  "deployedLinkReferences": {}
}