{
  "address": "0x8F051d2c47B03738B35a9803bB4B8A8217cc209A",
  "abi": [
    {
      "anonymous": false,
      "inputs": [
        {
          "indexed": true,
          "internalType": "address",
          "name": "owner",
          "type": "address"
        },
        {
          "indexed": true,
          "internalType": "address",
          "name": "spender",
          "type": "address"
        },
        {
          "indexed": false,
          "internalType": "uint256",
          "name": "value",
          "type": "uint256"
        }
      ],
      "name": "Approval",
      "type": "event"
    },
    {
      "anonymous": false,
      "inputs": [
        {
          "indexed": false,
          "internalType": "address",
          "name": "bridger",
          "type": "address"
        },
        {
          "indexed": false,
          "internalType": "uint256",
          "name": "fees",
          "type": "uint256"
        }
      ],
      "name": "FeeBurnt",
      "type": "event"
    },
    {
      "anonymous": false,
      "inputs": [
        {
          "indexed": false,
          "internalType": "address",
          "name": "bridger",
          "type": "address"
        },
        {
          "indexed": false,
          "internalType": "uint256",
          "name": "fees",
          "type": "uint256"
        }
      ],
      "name": "FeePaid",
      "type": "event"
    },
    {
      "anonymous": false,
      "inputs": [
        {
          "indexed": false,
          "internalType": "uint8",
          "name": "version",
          "type": "uint8"
        }
      ],
      "name": "Initialized",
      "type": "event"
    },
    {
      "anonymous": false,
      "inputs": [
        {
          "indexed": false,
          "internalType": "address",
          "name": "sender",
          "type": "address"
        },
        {
          "indexed": false,
          "internalType": "uint256",
          "name": "amount",
          "type": "uint256"
        },
        {
          "indexed": false,
          "internalType": "uint256",
          "name": "eventId",
          "type": "uint256"
        }
      ],
      "name": "Retired",
      "type": "event"
    },
    {
      "anonymous": false,
      "inputs": [
        {
          "indexed": true,
          "internalType": "address",
          "name": "from",
          "type": "address"
        },
        {
          "indexed": true,
          "internalType": "address",
          "name": "to",
          "type": "address"
        },
        {
          "indexed": false,
          "internalType": "uint256",
          "name": "value",
          "type": "uint256"
        }
      ],
      "name": "Transfer",
      "type": "event"
    },
    {
      "inputs": [],
      "name": "VERSION",
      "outputs": [
        {
          "internalType": "string",
          "name": "",
          "type": "string"
        }
      ],
      "stateMutability": "view",
      "type": "function"
    },
    {
      "inputs": [],
      "name": "VERSION_RELEASE_CANDIDATE",
      "outputs": [
        {
          "internalType": "uint256",
          "name": "",
          "type": "uint256"
        }
      ],
      "stateMutability": "view",
      "type": "function"
    },
    {
      "inputs": [
        {
          "internalType": "address",
          "name": "owner",
          "type": "address"
        },
        {
          "internalType": "address",
          "name": "spender",
          "type": "address"
        }
      ],
      "name": "allowance",
      "outputs": [
        {
          "internalType": "uint256",
          "name": "",
          "type": "uint256"
        }
      ],
      "stateMutability": "view",
      "type": "function"
    },
    {
      "inputs": [
        {
          "internalType": "address",
          "name": "spender",
          "type": "address"
        },
        {
          "internalType": "uint256",
          "name": "amount",
          "type": "uint256"
        }
      ],
      "name": "approve",
      "outputs": [
        {
          "internalType": "bool",
          "name": "",
          "type": "bool"
        }
      ],
      "stateMutability": "nonpayable",
      "type": "function"
    },
    {
      "inputs": [
        {
          "internalType": "address",
          "name": "account",
          "type": "address"
        }
      ],
      "name": "balanceOf",
      "outputs": [
        {
          "internalType": "uint256",
          "name": "",
          "type": "uint256"
        }
      ],
      "stateMutability": "view",
      "type": "function"
    },
    {
      "inputs": [
        {
          "internalType": "address",
          "name": "account",
          "type": "address"
        },
        {
          "internalType": "uint256",
          "name": "amount",
          "type": "uint256"
        }
      ],
      "name": "bridgeBurn",
      "outputs": [],
      "stateMutability": "nonpayable",
      "type": "function"
    },
    {
      "inputs": [
        {
          "internalType": "address",
          "name": "account",
          "type": "address"
        },
        {
          "internalType": "uint256",
          "name": "amount",
          "type": "uint256"
        }
      ],
      "name": "bridgeMint",
      "outputs": [],
      "stateMutability": "nonpayable",
      "type": "function"
    },
    {
      "inputs": [
        {
          "internalType": "address",
          "name": "account",
          "type": "address"
        },
        {
          "internalType": "uint256",
          "name": "amount",
          "type": "uint256"
        }
      ],
      "name": "burnFrom",
      "outputs": [],
      "stateMutability": "nonpayable",
      "type": "function"
    },
    {
      "inputs": [],
      "name": "contractRegistry",
      "outputs": [
        {
          "internalType": "address",
          "name": "",
          "type": "address"
        }
      ],
      "stateMutability": "view",
      "type": "function"
    },
    {
      "inputs": [],
      "name": "decimals",
      "outputs": [
        {
          "internalType": "uint8",
          "name": "",
          "type": "uint8"
        }
      ],
      "stateMutability": "view",
      "type": "function"
    },
    {
      "inputs": [
        {
          "internalType": "address",
          "name": "spender",
          "type": "address"
        },
        {
          "internalType": "uint256",
          "name": "subtractedValue",
          "type": "uint256"
        }
      ],
      "name": "decreaseAllowance",
      "outputs": [
        {
          "internalType": "bool",
          "name": "",
          "type": "bool"
        }
      ],
      "stateMutability": "nonpayable",
      "type": "function"
    },
    {
      "inputs": [
        {
          "internalType": "uint256",
          "name": "tokenId",
          "type": "uint256"
        }
      ],
      "name": "defractionalize",
      "outputs": [],
      "stateMutability": "nonpayable",
      "type": "function"
    },
    {
      "inputs": [],
      "name": "getAttributes",
      "outputs": [
        {
          "components": [
            {
              "internalType": "string",
              "name": "projectId",
              "type": "string"
            },
            {
              "internalType": "string",
              "name": "standard",
              "type": "string"
            },
            {
              "internalType": "string",
              "name": "methodology",
              "type": "string"
            },
            {
              "internalType": "string",
              "name": "region",
              "type": "string"
            },
            {
              "internalType": "string",
              "name": "storageMethod",
              "type": "string"
            },
            {
              "internalType": "string",
              "name": "method",
              "type": "string"
            },
            {
              "internalType": "string",
              "name": "emissionType",
              "type": "string"
            },
            {
              "internalType": "string",
              "name": "category",
              "type": "string"
            },
            {
              "internalType": "string",
              "name": "uri",
              "type": "string"
            },
            {
              "internalType": "address",
              "name": "beneficiary",
              "type": "address"
            }
          ],
          "internalType": "struct ProjectData",
          "name": "",
          "type": "tuple"
        },
        {
          "components": [
            {
              "internalType": "string",
              "name": "name",
              "type": "string"
            },
            {
              "internalType": "uint64",
              "name": "startTime",
              "type": "uint64"
            },
            {
              "internalType": "uint64",
              "name": "endTime",
              "type": "uint64"
            },
            {
              "internalType": "uint256",
              "name": "projectTokenId",
              "type": "uint256"
            },
            {
              "internalType": "uint64",
              "name": "totalVintageQuantity",
              "type": "uint64"
            },
            {
              "internalType": "bool",
              "name": "isCorsiaCompliant",
              "type": "bool"
            },
            {
              "internalType": "bool",
              "name": "isCCPcompliant",
              "type": "bool"
            },
            {
              "internalType": "string",
              "name": "coBenefits",
              "type": "string"
            },
            {
              "internalType": "string",
              "name": "correspAdjustment",
              "type": "string"
            },
            {
              "internalType": "string",
              "name": "additionalCertification",
              "type": "string"
            },
            {
              "internalType": "string",
              "name": "uri",
              "type": "string"
            }
          ],
          "internalType": "struct VintageData",
          "name": "",
          "type": "tuple"
        }
      ],
      "stateMutability": "view",
      "type": "function"
    },
    {
      "inputs": [],
      "name": "getDepositCap",
      "outputs": [
        {
          "internalType": "uint256",
          "name": "",
          "type": "uint256"
        }
      ],
      "stateMutability": "view",
      "type": "function"
    },
    {
      "inputs": [],
      "name": "getGlobalProjectVintageIdentifiers",
      "outputs": [
        {
          "internalType": "string",
          "name": "",
          "type": "string"
        },
        {
          "internalType": "string",
          "name": "",
          "type": "string"
        }
      ],
      "stateMutability": "view",
      "type": "function"
    },
    {
      "inputs": [],
      "name": "getRemaining",
      "outputs": [
        {
          "internalType": "uint256",
          "name": "remaining",
          "type": "uint256"
        }
      ],
      "stateMutability": "view",
      "type": "function"
    },
    {
      "inputs": [
        {
          "internalType": "address",
          "name": "spender",
          "type": "address"
        },
        {
          "internalType": "uint256",
          "name": "addedValue",
          "type": "uint256"
        }
      ],
      "name": "increaseAllowance",
      "outputs": [
        {
          "internalType": "bool",
          "name": "",
          "type": "bool"
        }
      ],
      "stateMutability": "nonpayable",
      "type": "function"
    },
    {
      "inputs": [
        {
          "internalType": "string",
          "name": "name_",
          "type": "string"
        },
        {
          "internalType": "string",
          "name": "symbol_",
          "type": "string"
        },
        {
          "internalType": "uint256",
          "name": "_projectVintageTokenId",
          "type": "uint256"
        },
        {
          "internalType": "address",
          "name": "_contractRegistry",
          "type": "address"
        }
      ],
      "name": "initialize",
      "outputs": [],
      "stateMutability": "nonpayable",
      "type": "function"
    },
    {
      "inputs": [
        {
          "internalType": "string",
          "name": "retiringEntityString",
          "type": "string"
        },
        {
          "internalType": "address",
          "name": "beneficiary",
          "type": "address"
        },
        {
          "internalType": "string",
          "name": "beneficiaryString",
          "type": "string"
        },
        {
          "internalType": "string",
          "name": "retirementMessage",
          "type": "string"
        }
      ],
      "name": "mintCertificateLegacy",
      "outputs": [],
      "stateMutability": "nonpayable",
      "type": "function"
    },
    {
      "inputs": [
        {
          "internalType": "address",
          "name": "",
          "type": "address"
        }
      ],
      "name": "minterToId",
      "outputs": [
        {
          "internalType": "uint256",
          "name": "",
          "type": "uint256"
        }
      ],
      "stateMutability": "view",
      "type": "function"
    },
    {
      "inputs": [],
      "name": "name",
      "outputs": [
        {
          "internalType": "string",
          "name": "",
          "type": "string"
        }
      ],
      "stateMutability": "view",
      "type": "function"
    },
    {
      "inputs": [
        {
          "internalType": "address",
          "name": "",
          "type": "address"
        },
        {
          "internalType": "address",
          "name": "from",
          "type": "address"
        },
        {
          "internalType": "uint256",
          "name": "tokenId",
          "type": "uint256"
        },
        {
          "internalType": "bytes",
          "name": "",
          "type": "bytes"
        }
      ],
      "name": "onERC721Received",
      "outputs": [
        {
          "internalType": "bytes4",
          "name": "",
          "type": "bytes4"
        }
      ],
      "stateMutability": "nonpayable",
      "type": "function"
    },
    {
      "inputs": [],
      "name": "projectVintageTokenId",
      "outputs": [
        {
          "internalType": "uint256",
          "name": "",
          "type": "uint256"
        }
      ],
      "stateMutability": "view",
      "type": "function"
    },
    {
      "inputs": [
        {
          "internalType": "uint256",
          "name": "amount",
          "type": "uint256"
        }
      ],
      "name": "retire",
      "outputs": [
        {
          "internalType": "uint256",
          "name": "retirementEventId",
          "type": "uint256"
        }
      ],
      "stateMutability": "nonpayable",
      "type": "function"
    },
    {
      "inputs": [
        {
          "internalType": "string",
          "name": "retiringEntityString",
          "type": "string"
        },
        {
          "internalType": "address",
          "name": "beneficiary",
          "type": "address"
        },
        {
          "internalType": "string",
          "name": "beneficiaryString",
          "type": "string"
        },
        {
          "internalType": "string",
          "name": "retirementMessage",
          "type": "string"
        },
        {
          "internalType": "uint256",
          "name": "amount",
          "type": "uint256"
        }
      ],
      "name": "retireAndMintCertificate",
      "outputs": [],
      "stateMutability": "nonpayable",
      "type": "function"
    },
    {
      "inputs": [
        {
          "internalType": "address",
          "name": "account",
          "type": "address"
        },
        {
          "internalType": "uint256",
          "name": "amount",
          "type": "uint256"
        }
      ],
      "name": "retireFrom",
      "outputs": [
        {
          "internalType": "uint256",
          "name": "retirementEventId",
          "type": "uint256"
        }
      ],
      "stateMutability": "nonpayable",
      "type": "function"
    },
    {
      "inputs": [
        {
          "internalType": "address",
          "name": "",
          "type": "address"
        }
      ],
      "name": "retiredAmount",
      "outputs": [
        {
          "internalType": "uint256",
          "name": "",
          "type": "uint256"
        }
      ],
      "stateMutability": "view",
      "type": "function"
    },
    {
      "inputs": [],
      "name": "standardRegistry",
      "outputs": [
        {
          "internalType": "string",
          "name": "",
          "type": "string"
        }
      ],
      "stateMutability": "pure",
      "type": "function"
    },
    {
      "inputs": [],
      "name": "symbol",
      "outputs": [
        {
          "internalType": "string",
          "name": "",
          "type": "string"
        }
      ],
      "stateMutability": "view",
      "type": "function"
    },
    {
      "inputs": [],
      "name": "totalSupply",
      "outputs": [
        {
          "internalType": "uint256",
          "name": "",
          "type": "uint256"
        }
      ],
      "stateMutability": "view",
      "type": "function"
    },
    {
      "inputs": [
        {
          "internalType": "address",
          "name": "recipient",
          "type": "address"
        },
        {
          "internalType": "uint256",
          "name": "amount",
          "type": "uint256"
        }
      ],
      "name": "transfer",
      "outputs": [
        {
          "internalType": "bool",
          "name": "",
          "type": "bool"
        }
      ],
      "stateMutability": "nonpayable",
      "type": "function"
    },
    {
      "inputs": [
        {
          "internalType": "address",
          "name": "sender",
          "type": "address"
        },
        {
          "internalType": "address",
          "name": "recipient",
          "type": "address"
        },
        {
          "internalType": "uint256",
          "name": "amount",
          "type": "uint256"
        }
      ],
      "name": "transferFrom",
      "outputs": [
        {
          "internalType": "bool",
          "name": "",
          "type": "bool"
        }
      ],
      "stateMutability": "nonpayable",
      "type": "function"
    }
  ],
  "numDeployments": 7,
  "solcInputHash": "85ebed7134bfcf936e84453e043ec913",
  "bytecode": "0x60806040523480156200001157600080fd5b506200001c62000022565b62000152565b6200002e60ff62000031565b50565b60008054610100900460ff1615620000ca578160ff1660011480156200006a575062000068306200014360201b620022351760201c565b155b620000c25760405162461bcd60e51b815260206004820152602e602482015260008051602062003e6883398151915260448201526d191e481a5b9a5d1a585b1a5e995960921b60648201526084015b60405180910390fd5b506000919050565b60005460ff808416911610620001295760405162461bcd60e51b815260206004820152602e602482015260008051602062003e6883398151915260448201526d191e481a5b9a5d1a585b1a5e995960921b6064820152608401620000b9565b506000805460ff191660ff92909216919091179055600190565b6001600160a01b03163b151590565b613d0680620001626000396000f3fe608060405234801561001057600080fd5b50600436106101f05760003560e01c806370a082311161010f578063a9059cbb116100a2578063dd62ed3e11610071578063dd62ed3e14610444578063e819426c14610457578063e9d5c8d514610460578063ffa1ad741461048057600080fd5b8063a9059cbb146103eb578063abf410e5146103fe578063bd3a13f614610429578063d6a022b81461043c57600080fd5b80638c2a993e116100de5780638c2a993e1461039d57806395d89b41146103b0578063a19c4bd8146103b8578063a457c2d7146103d857600080fd5b806370a082311461033b57806374f4f547146103645780637903c7d01461037757806379cc67901461038a57600080fd5b80632ef29290116101875780633c31175e116101565780633c31175e1461030257806364c5a4031461030a5780636b24ffd6146103205780636ca0b0d71461033357600080fd5b80632ef29290146102ba578063313ce567146102cd5780633790cf57146102dc57806339509351146102ef57600080fd5b8063150b7a02116101c3578063150b7a021461025d578063152583de1461028957806318160ddd1461029f57806323b872dd146102a757600080fd5b806301a598da146101f557806306fdde0314610210578063077c6f2b14610225578063095ea7b31461023a575b600080fd5b6101fd6104a4565b6040519081526020015b60405180910390f35b6102186104fd565b6040516102079190612dd6565b610238610233366004612e49565b610538565b005b61024d610248366004612ef7565b610799565b6040519015158152602001610207565b61027061026b366004612f23565b6107b3565b6040516001600160e01b03199091168152602001610207565b610291610e28565b6040516102079291906130a5565b6035546101fd565b61024d6102b53660046131e4565b611021565b6102386102c8366004613225565b611164565b60405160128152602001610207565b6101fd6102ea3660046132da565b6113be565b61024d6102fd366004612ef7565b6114d1565b6102186114f3565b610312611512565b6040516102079291906132f3565b6101fd61032e366004612ef7565b61153c565b6101fd600281565b6101fd610349366004613318565b6001600160a01b031660009081526033602052604090205490565b610238610372366004612ef7565b61165b565b6102386103853660046132da565b611890565b610238610398366004612ef7565b611c16565b6102386103ab366004612ef7565b611d30565b610218611f5d565b6101fd6103c6366004613318565b60686020526000908152604090205481565b61024d6103e6366004612ef7565b611f82565b61024d6103f9366004612ef7565b612008565b606654610411906001600160a01b031681565b6040516001600160a01b039091168152602001610207565b610238610437366004613444565b612149565b6101fd6121e4565b6101fd6104523660046134c3565b61220a565b6101fd60655481565b6101fd61046e366004613318565b60676020526000908152604090205481565b610218604051806040016040528060058152602001640312e352e360dc1b81525081565b60006104ae612c10565b6104b6610e28565b6080810151909250905060006104ce6012600a6135f6565b6104e1906001600160401b038416613605565b9050806000036104f657600019935050505090565b9392505050565b606080606061050a611512565b60405191935091506105229083908390602001613624565b6040516020818303038152906040529250505090565b6066546000906001600160a01b03166391148b276105546114f3565b6040518263ffffffff1660e01b81526004016105709190612dd6565b602060405180830381865afa15801561058d573d6000803e3d6000fd5b505050506040513d601f19601f820116820180604052508101906105b1919061368d565b90506000816001600160a01b0316635c975abb6040518163ffffffff1660e01b8152600401602060405180830381865afa1580156105f3573d6000803e3d6000fd5b505050506040513d601f19601f8201168201806040525081019061061791906136ba565b905080156106405760405162461bcd60e51b8152600401610637906136d5565b60405180910390fd5b600061064a612244565b60408051600180825281830190925291925060009190602080830190803683370190505090508181600081518110610684576106846136fa565b6020026020010181815250506000606660009054906101000a90046001600160a01b03166001600160a01b031663376b5dce6040518163ffffffff1660e01b8152600401602060405180830381865afa1580156106e5573d6000803e3d6000fd5b505050506040513d601f19601f82011682018060405250810190610709919061368d565b9050806001600160a01b031663163c1319338e8e8e8e8e8e8e8b6040518a63ffffffff1660e01b815260040161074799989796959493929190613739565b6020604051808303816000875af1158015610766573d6000803e3d6000fd5b505050506040513d601f19601f8201168201806040525081019061078a91906137d7565b50505050505050505050505050565b6000336107a7818585612355565b60019150505b92915050565b60665460009081906001600160a01b03166391148b276107d16114f3565b6040518263ffffffff1660e01b81526004016107ed9190612dd6565b602060405180830381865afa15801561080a573d6000803e3d6000fd5b505050506040513d601f19601f8201168201806040525081019061082e919061368d565b90506000816001600160a01b0316635c975abb6040518163ffffffff1660e01b8152600401602060405180830381865afa158015610870573d6000803e3d6000fd5b505050506040513d601f19601f8201168201806040525081019061089491906136ba565b905080156108b45760405162461bcd60e51b8152600401610637906136d5565b6108bd3361247a565b6109205760405162461bcd60e51b815260206004820152602e60248201527f4572726f723a2042617463682d4e4654206e6f742066726f6d2077686974656c60448201526d1a5cdd19590818dbdb9d1c9858dd60921b6064820152608401610637565b60405163dff35e8360e01b81526004810187905260009081908190339063dff35e8390602401606060405180830381865afa158015610963573d6000803e3d6000fd5b505050506040513d601f19601f8201168201806040525081019061098791906137f0565b92509250925060655483146109de5760405162461bcd60e51b815260206004820152601760248201527f4572726f723a206e6f6e2d6d61746368696e67204e46540000000000000000006044820152606401610637565b60028160028111156109f2576109f261382d565b14610a3f5760405162461bcd60e51b815260206004820152601a60248201527f42617463684e4654206e6f742079657420636f6e6669726d65640000000000006044820152606401610637565b6001600160a01b038a166000908152606760205260409020899055610a666012600a6135f6565b610a709083613605565b915081610a7b6121e4565b1015610ae85760405162461bcd60e51b815260206004820152603660248201527f4572726f723a205175616e7469747920696e20626174636820697320686967686044820152756572207468616e20746f74616c2076696e746167657360501b6064820152608401610637565b6066546000906001600160a01b03166391148b27610b046114f3565b6040518263ffffffff1660e01b8152600401610b209190612dd6565b602060405180830381865afa158015610b3d573d6000803e3d6000fd5b505050506040513d601f19601f82011682018060405250810190610b61919061368d565b90506000816001600160a01b03166380e2d3f06040518163ffffffff1660e01b8152600401602060405180830381865afa158015610ba3573d6000803e3d6000fd5b505050506040513d601f19601f82011682018060405250810190610bc7919061368d565b90506001600160a01b038116610be657610be18c85612515565b610e0f565b6040516379bcd2d160e11b81526004810185905260009081906001600160a01b0385169063f379a5a2906024016040805180830381865afa158015610c2f573d6000803e3d6000fd5b505050506040513d601f19601f82011682018060405250810190610c539190613843565b9092509050610c6b8e610c668489613867565b612515565b6000846001600160a01b031663581cd1106040518163ffffffff1660e01b8152600401602060405180830381865afa158015610cab573d6000803e3d6000fd5b505050506040513d601f19601f82011682018060405250810190610ccf919061368d565b90506001600160a01b03811615801590610ce95750600082115b15610dad57610cf88284613867565b9250610d048484612515565b610d0e8183612515565b7f075a2720282fdf622141dae0b048ef90a21a7e57c134c76912d19d006b3b3f6f8f84604051610d539291906001600160a01b03929092168252602082015260400190565b60405180910390a17fa2f0f5180dc62f2d34c8207f1d18178d31bd0de616f83636434ddf48de0ae6fa8f83604051610da09291906001600160a01b03929092168252602082015260400190565b60405180910390a1610e0b565b8215610e0b57610dbd8484612515565b7f075a2720282fdf622141dae0b048ef90a21a7e57c134c76912d19d006b3b3f6f8f84604051610e029291906001600160a01b03929092168252602082015260400190565b60405180910390a15b5050505b50630a85bd0160e11b9c9b505050505050505050505050565b610e30612c89565b610e38612c10565b606654604080516301157a8360e01b815290516000926001600160a01b0316916301157a839160048083019260209291908290030181865afa158015610e82573d6000803e3d6000fd5b505050506040513d601f19601f82011682018060405250810190610ea6919061368d565b90506000606660009054906101000a90046001600160a01b03166001600160a01b031663a0af25606040518163ffffffff1660e01b8152600401602060405180830381865afa158015610efd573d6000803e3d6000fd5b505050506040513d601f19601f82011682018060405250810190610f21919061368d565b90506000816001600160a01b03166315bbf0746065546040518263ffffffff1660e01b8152600401610f5591815260200190565b600060405180830381865afa158015610f72573d6000803e3d6000fd5b505050506040513d6000823e601f3d908101601f19168201604052610f9a91908101906138da565b90506000836001600160a01b03166347e3168683606001516040518263ffffffff1660e01b8152600401610fd091815260200190565b600060405180830381865afa158015610fed573d6000803e3d6000fd5b505050506040513d6000823e601f3d908101601f191682016040526110159190810190613a3e565b96919550909350505050565b6000826001600160a01b03811661103757600080fd5b306001600160a01b0382160361104c57600080fd5b6066546000906001600160a01b03166391148b276110686114f3565b6040518263ffffffff1660e01b81526004016110849190612dd6565b602060405180830381865afa1580156110a1573d6000803e3d6000fd5b505050506040513d601f19601f820116820180604052508101906110c5919061368d565b90506000816001600160a01b0316635c975abb6040518163ffffffff1660e01b8152600401602060405180830381865afa158015611107573d6000803e3d6000fd5b505050506040513d601f19601f8201168201806040525081019061112b91906136ba565b9050801561114b5760405162461bcd60e51b8152600401610637906136d5565b6111568787876125f4565b506001979650505050505050565b6066546000906001600160a01b03166391148b276111806114f3565b6040518263ffffffff1660e01b815260040161119c9190612dd6565b602060405180830381865afa1580156111b9573d6000803e3d6000fd5b505050506040513d601f19601f820116820180604052508101906111dd919061368d565b90506000816001600160a01b0316635c975abb6040518163ffffffff1660e01b8152600401602060405180830381865afa15801561121f573d6000803e3d6000fd5b505050506040513d601f19601f8201168201806040525081019061124391906136ba565b905080156112635760405162461bcd60e51b8152600401610637906136d5565b600061126e846113be565b604080516001808252818301909252919250600091906020808301908036833701905050905081816000815181106112a8576112a86136fa565b6020026020010181815250506000606660009054906101000a90046001600160a01b03166001600160a01b031663376b5dce6040518163ffffffff1660e01b8152600401602060405180830381865afa158015611309573d6000803e3d6000fd5b505050506040513d601f19601f8201168201806040525081019061132d919061368d565b9050806001600160a01b031663163c1319338f8f8f8f8f8f8f8b6040518a63ffffffff1660e01b815260040161136b99989796959493929190613739565b6020604051808303816000875af115801561138a573d6000803e3d6000fd5b505050506040513d601f19601f820116820180604052508101906113ae91906137d7565b5050505050505050505050505050565b60665460009081906001600160a01b03166391148b276113dc6114f3565b6040518263ffffffff1660e01b81526004016113f89190612dd6565b602060405180830381865afa158015611415573d6000803e3d6000fd5b505050506040513d601f19601f82011682018060405250810190611439919061368d565b90506000816001600160a01b0316635c975abb6040518163ffffffff1660e01b8152600401602060405180830381865afa15801561147b573d6000803e3d6000fd5b505050506040513d601f19601f8201168201806040525081019061149f91906136ba565b905080156114bf5760405162461bcd60e51b8152600401610637906136d5565b6114c9338561260d565b949350505050565b6000336107a78185856114e4838361220a565b6114ee9190613be3565b612355565b604080518082019091526005815264766572726160d81b602082015290565b60608061151d612c89565b611525612c10565b61152d610e28565b90519051909590945092505050565b60665460009081906001600160a01b03166391148b2761155a6114f3565b6040518263ffffffff1660e01b81526004016115769190612dd6565b602060405180830381865afa158015611593573d6000803e3d6000fd5b505050506040513d601f19601f820116820180604052508101906115b7919061368d565b90506000816001600160a01b0316635c975abb6040518163ffffffff1660e01b8152600401602060405180830381865afa1580156115f9573d6000803e3d6000fd5b505050506040513d601f19601f8201168201806040525081019061161d91906136ba565b9050801561163d5760405162461bcd60e51b8152600401610637906136d5565b611648853386612763565b611652858561260d565b95945050505050565b6066546000906001600160a01b03166391148b276116776114f3565b6040518263ffffffff1660e01b81526004016116939190612dd6565b602060405180830381865afa1580156116b0573d6000803e3d6000fd5b505050506040513d601f19601f820116820180604052508101906116d4919061368d565b90506000816001600160a01b0316635c975abb6040518163ffffffff1660e01b8152600401602060405180830381865afa158015611716573d6000803e3d6000fd5b505050506040513d601f19601f8201168201806040525081019061173a91906136ba565b9050801561175a5760405162461bcd60e51b8152600401610637906136d5565b6066546000906001600160a01b03166391148b276117766114f3565b6040518263ffffffff1660e01b81526004016117929190612dd6565b602060405180830381865afa1580156117af573d6000803e3d6000fd5b505050506040513d601f19601f820116820180604052508101906117d3919061368d565b6040516311afe75f60e11b81523360048201529091506000906001600160a01b0383169063235fcebe90602401602060405180830381865afa15801561181d573d6000803e3d6000fd5b505050506040513d601f19601f8201168201806040525081019061184191906136ba565b90508061187e5760405162461bcd60e51b815260206004820152600b60248201526a139bdd08185b1b1bddd95960aa1b6044820152606401610637565b61188886866127d7565b505050505050565b6066546000906001600160a01b03166391148b276118ac6114f3565b6040518263ffffffff1660e01b81526004016118c89190612dd6565b602060405180830381865afa1580156118e5573d6000803e3d6000fd5b505050506040513d601f19601f82011682018060405250810190611909919061368d565b90506000816001600160a01b0316635c975abb6040518163ffffffff1660e01b8152600401602060405180830381865afa15801561194b573d6000803e3d6000fd5b505050506040513d601f19601f8201168201806040525081019061196f91906136ba565b9050801561198f5760405162461bcd60e51b8152600401610637906136d5565b6066546000906001600160a01b03166391148b276119ab6114f3565b6040518263ffffffff1660e01b81526004016119c79190612dd6565b602060405180830381865afa1580156119e4573d6000803e3d6000fd5b505050506040513d601f19601f82011682018060405250810190611a08919061368d565b90506000816001600160a01b0316638da5cb5b6040518163ffffffff1660e01b8152600401602060405180830381865afa158015611a4a573d6000803e3d6000fd5b505050506040513d601f19601f82011682018060405250810190611a6e919061368d565b90506001600160a01b0381163314611abc5760405162461bcd60e51b81526020600482015260116024820152702737ba103330b1ba37b93c9037bbb732b960791b6044820152606401610637565b60665460408051634be4e3dd60e01b815290516000926001600160a01b031691634be4e3dd9160048083019260209291908290030181865afa158015611b06573d6000803e3d6000fd5b505050506040513d601f19601f82011682018060405250810190611b2a919061368d565b60405163dff35e8360e01b8152600481018890529091506000906001600160a01b0383169063dff35e8390602401606060405180830381865afa158015611b75573d6000803e3d6000fd5b505050506040513d601f19601f82011682018060405250810190611b9991906137f0565b50915050611ba733826127d7565b6040516323b872dd60e01b8152306004820152336024820152604481018890526001600160a01b038316906323b872dd90606401600060405180830381600087803b158015611bf557600080fd5b505af1158015611c09573d6000803e3d6000fd5b5050505050505050505050565b6066546000906001600160a01b03166391148b27611c326114f3565b6040518263ffffffff1660e01b8152600401611c4e9190612dd6565b602060405180830381865afa158015611c6b573d6000803e3d6000fd5b505050506040513d601f19601f82011682018060405250810190611c8f919061368d565b90506000816001600160a01b0316635c975abb6040518163ffffffff1660e01b8152600401602060405180830381865afa158015611cd1573d6000803e3d6000fd5b505050506040513d601f19601f82011682018060405250810190611cf591906136ba565b90508015611d155760405162461bcd60e51b8152600401610637906136d5565b611d20843385612763565b611d2a84846127d7565b50505050565b6066546000906001600160a01b03166391148b27611d4c6114f3565b6040518263ffffffff1660e01b8152600401611d689190612dd6565b602060405180830381865afa158015611d85573d6000803e3d6000fd5b505050506040513d601f19601f82011682018060405250810190611da9919061368d565b90506000816001600160a01b0316635c975abb6040518163ffffffff1660e01b8152600401602060405180830381865afa158015611deb573d6000803e3d6000fd5b505050506040513d601f19601f82011682018060405250810190611e0f91906136ba565b90508015611e2f5760405162461bcd60e51b8152600401610637906136d5565b6066546000906001600160a01b03166391148b27611e4b6114f3565b6040518263ffffffff1660e01b8152600401611e679190612dd6565b602060405180830381865afa158015611e84573d6000803e3d6000fd5b505050506040513d601f19601f82011682018060405250810190611ea8919061368d565b6040516311afe75f60e11b81523360048201529091506000906001600160a01b0383169063235fcebe90602401602060405180830381865afa158015611ef2573d6000803e3d6000fd5b505050506040513d601f19601f82011682018060405250810190611f1691906136ba565b905080611f535760405162461bcd60e51b815260206004820152600b60248201526a139bdd08185b1b1bddd95960aa1b6044820152606401610637565b6118888686612515565b6060806060611f6a611512565b60405191935091506105229083908390602001613bfb565b60003381611f90828661220a565b905083811015611ff05760405162461bcd60e51b815260206004820152602560248201527f45524332303a2064656372656173656420616c6c6f77616e63652062656c6f77604482015264207a65726f60d81b6064820152608401610637565b611ffd8286868403612355565b506001949350505050565b6000826001600160a01b03811661201e57600080fd5b306001600160a01b0382160361203357600080fd5b6066546000906001600160a01b03166391148b2761204f6114f3565b6040518263ffffffff1660e01b815260040161206b9190612dd6565b602060405180830381865afa158015612088573d6000803e3d6000fd5b505050506040513d601f19601f820116820180604052508101906120ac919061368d565b90506000816001600160a01b0316635c975abb6040518163ffffffff1660e01b8152600401602060405180830381865afa1580156120ee573d6000803e3d6000fd5b505050506040513d601f19601f8201168201806040525081019061211291906136ba565b905080156121325760405162461bcd60e51b8152600401610637906136d5565b61213c8686612922565b5060019695505050505050565b60006121556001612930565b9050801561216d576000805461ff0019166101001790555b61217785856129b0565b6065839055606680546001600160a01b0319166001600160a01b03841617905580156121dd576000805461ff0019169055604051600181527f7f26b83ff96e1f2b6a682f133852f6798a09c465da95921460cefb38474024989060200160405180910390a15b5050505050565b6000806121ef6104a4565b90506121fa60355490565b6122049082613867565b91505090565b6001600160a01b03918216600090815260346020908152604080832093909416825291909152205490565b6001600160a01b03163b151590565b3360009081526068602090815260408083208054908490556066548251631bb5aee760e11b81529251919385936001600160a01b039092169263376b5dce9260048082019392918290030181865afa1580156122a4573d6000803e3d6000fd5b505050506040513d601f19601f820116820180604052508101906122c8919061368d565b6065546040516313ef24f760e11b8152336004820152602481019190915260448101849052600160648201529091506001600160a01b038216906327de49ee906084016020604051808303816000875af115801561232a573d6000803e3d6000fd5b505050506040513d601f19601f8201168201806040525081019061234e91906137d7565b9250505090565b6001600160a01b0383166123b75760405162461bcd60e51b8152602060048201526024808201527f45524332303a20617070726f76652066726f6d20746865207a65726f206164646044820152637265737360e01b6064820152608401610637565b6001600160a01b0382166124185760405162461bcd60e51b815260206004820152602260248201527f45524332303a20617070726f766520746f20746865207a65726f206164647265604482015261737360f01b6064820152608401610637565b6001600160a01b0383811660008181526034602090815260408083209487168084529482529182902085905590518481527f8c5be1e5ebec7d5bd14f71427d1e84f3dd0314c0f7b2291e5b200ac8c7c3b92591015b60405180910390a3505050565b60665460408051634be4e3dd60e01b815290516000926001600160a01b031691634be4e3dd9160048083019260209291908290030181865afa1580156124c4573d6000803e3d6000fd5b505050506040513d601f19601f820116820180604052508101906124e8919061368d565b6001600160a01b0316826001600160a01b03160361250857506001919050565b506000919050565b919050565b6001600160a01b03821661256b5760405162461bcd60e51b815260206004820152601f60248201527f45524332303a206d696e7420746f20746865207a65726f2061646472657373006044820152606401610637565b806035600082825461257d9190613be3565b90915550506001600160a01b038216600090815260336020526040812080548392906125aa908490613be3565b90915550506040518181526001600160a01b038316906000907fddf252ad1be2c89b69c2b068fc378daa952ba7f163c4a11628f55a4df523b3ef9060200160405180910390a35050565b600033612602858285612763565b611ffd858585612a42565b600061261983836127d7565b60665460408051631bb5aee760e11b815290516000926001600160a01b03169163376b5dce9160048083019260209291908290030181865afa158015612663573d6000803e3d6000fd5b505050506040513d601f19601f82011682018060405250810190612687919061368d565b6065546040516313ef24f760e11b81526001600160a01b038781166004830152602482019290925260448101869052600060648201529192508216906327de49ee906084016020604051808303816000875af11580156126eb573d6000803e3d6000fd5b505050506040513d601f19601f8201168201806040525081019061270f91906137d7565b604080516001600160a01b0387168152602081018690529081018290529092507fb3775f672e1adf43bf7834b692675bfee4db72f83e42da8cff694ca295a89eca9060600160405180910390a15092915050565b600061276f848461220a565b90506000198114611d2a57818110156127ca5760405162461bcd60e51b815260206004820152601d60248201527f45524332303a20696e73756666696369656e7420616c6c6f77616e63650000006044820152606401610637565b611d2a8484848403612355565b6001600160a01b0382166128375760405162461bcd60e51b815260206004820152602160248201527f45524332303a206275726e2066726f6d20746865207a65726f206164647265736044820152607360f81b6064820152608401610637565b6001600160a01b038216600090815260336020526040902054818110156128ab5760405162461bcd60e51b815260206004820152602260248201527f45524332303a206275726e20616d6f756e7420657863656564732062616c616e604482015261636560f01b6064820152608401610637565b6001600160a01b03831660009081526033602052604081208383039055603580548492906128da908490613867565b90915550506040518281526000906001600160a01b038516907fddf252ad1be2c89b69c2b068fc378daa952ba7f163c4a11628f55a4df523b3ef9060200161246d565b505050565b6000336107a7818585612a42565b60008054610100900460ff161561296f578160ff1660011480156129535750303b155b6125085760405162461bcd60e51b815260040161063790613c48565b60005460ff8084169116106129965760405162461bcd60e51b815260040161063790613c48565b506000805460ff191660ff92909216919091179055600190565b600054610100900460ff16612a1b5760405162461bcd60e51b815260206004820152602b60248201527f496e697469616c697a61626c653a20636f6e7472616374206973206e6f74206960448201526a6e697469616c697a696e6760a81b6064820152608401610637565b8151612a2e906036906020850190612ce5565b50805161291d906037906020840190612ce5565b6001600160a01b038316612aa65760405162461bcd60e51b815260206004820152602560248201527f45524332303a207472616e736665722066726f6d20746865207a65726f206164604482015264647265737360d81b6064820152608401610637565b6001600160a01b038216612b085760405162461bcd60e51b815260206004820152602360248201527f45524332303a207472616e7366657220746f20746865207a65726f206164647260448201526265737360e81b6064820152608401610637565b6001600160a01b03831660009081526033602052604090205481811015612b805760405162461bcd60e51b815260206004820152602660248201527f45524332303a207472616e7366657220616d6f756e7420657863656564732062604482015265616c616e636560d01b6064820152608401610637565b6001600160a01b03808516600090815260336020526040808220858503905591851681529081208054849290612bb7908490613be3565b92505081905550826001600160a01b0316846001600160a01b03167fddf252ad1be2c89b69c2b068fc378daa952ba7f163c4a11628f55a4df523b3ef84604051612c0391815260200190565b60405180910390a3611d2a565b6040518061016001604052806060815260200160006001600160401b0316815260200160006001600160401b031681526020016000815260200160006001600160401b03168152602001600015158152602001600015158152602001606081526020016060815260200160608152602001606081525090565b60405180610140016040528060608152602001606081526020016060815260200160608152602001606081526020016060815260200160608152602001606081526020016060815260200160006001600160a01b031681525090565b828054612cf190613c96565b90600052602060002090601f016020900481019282612d135760008555612d59565b82601f10612d2c57805160ff1916838001178555612d59565b82800160010185558215612d59579182015b82811115612d59578251825591602001919060010190612d3e565b50612d65929150612d69565b5090565b5b80821115612d655760008155600101612d6a565b60005b83811015612d99578181015183820152602001612d81565b83811115611d2a5750506000910152565b60008151808452612dc2816020860160208601612d7e565b601f01601f19169290920160200192915050565b6020815260006104f66020830184612daa565b60008083601f840112612dfb57600080fd5b5081356001600160401b03811115612e1257600080fd5b602083019150836020828501011115612e2a57600080fd5b9250929050565b6001600160a01b0381168114612e4657600080fd5b50565b60008060008060008060006080888a031215612e6457600080fd5b87356001600160401b0380821115612e7b57600080fd5b612e878b838c01612de9565b909950975060208a01359150612e9c82612e31565b90955060408901359080821115612eb257600080fd5b612ebe8b838c01612de9565b909650945060608a0135915080821115612ed757600080fd5b50612ee48a828b01612de9565b989b979a50959850939692959293505050565b60008060408385031215612f0a57600080fd5b8235612f1581612e31565b946020939093013593505050565b600080600080600060808688031215612f3b57600080fd5b8535612f4681612e31565b94506020860135612f5681612e31565b93506040860135925060608601356001600160401b03811115612f7857600080fd5b612f8488828901612de9565b969995985093965092949392505050565b60006101608251818552612fab82860182612daa565b9150506020830151612fc860208601826001600160401b03169052565b506040830151612fe360408601826001600160401b03169052565b5060608301516060850152608083015161300860808601826001600160401b03169052565b5060a083015161301c60a086018215159052565b5060c083015161303060c086018215159052565b5060e083015184820360e08601526130488282612daa565b91505061010080840151858303828701526130638382612daa565b92505050610120808401518583038287015261307f8382612daa565b92505050610140808401518583038287015261309b8382612daa565b9695505050505050565b60408152600083516101408060408501526130c4610180850183612daa565b91506020860151603f19808685030160608701526130e28483612daa565b935060408801519150808685030160808701526130ff8483612daa565b935060608801519150808685030160a087015261311c8483612daa565b935060808801519150808685030160c08701526131398483612daa565b935060a08801519150808685030160e08701526131568483612daa565b935060c088015191506101008187860301818801526131758584612daa565b945060e089015192506101208288870301818901526131948685612daa565b9550818a015193508288870301858901526131af8685612daa565b9550808a01519450505050506131d16101608501826001600160a01b03169052565b5082810360208401526116528185612f95565b6000806000606084860312156131f957600080fd5b833561320481612e31565b9250602084013561321481612e31565b929592945050506040919091013590565b60008060008060008060008060a0898b03121561324157600080fd5b88356001600160401b038082111561325857600080fd5b6132648c838d01612de9565b909a50985060208b0135915061327982612e31565b90965060408a0135908082111561328f57600080fd5b61329b8c838d01612de9565b909750955060608b01359150808211156132b457600080fd5b506132c18b828c01612de9565b999c989b50969995989497949560800135949350505050565b6000602082840312156132ec57600080fd5b5035919050565b6040815260006133066040830185612daa565b82810360208401526116528185612daa565b60006020828403121561332a57600080fd5b81356104f681612e31565b634e487b7160e01b600052604160045260246000fd5b60405161016081016001600160401b038111828210171561336e5761336e613335565b60405290565b60405161014081016001600160401b038111828210171561336e5761336e613335565b604051601f8201601f191681016001600160401b03811182821017156133bf576133bf613335565b604052919050565b60006001600160401b038211156133e0576133e0613335565b50601f01601f191660200190565b600082601f8301126133ff57600080fd5b813561341261340d826133c7565b613397565b81815284602083860101111561342757600080fd5b816020850160208301376000918101602001919091529392505050565b6000806000806080858703121561345a57600080fd5b84356001600160401b038082111561347157600080fd5b61347d888389016133ee565b9550602087013591508082111561349357600080fd5b506134a0878288016133ee565b9350506040850135915060608501356134b881612e31565b939692955090935050565b600080604083850312156134d657600080fd5b82356134e181612e31565b915060208301356134f181612e31565b809150509250929050565b634e487b7160e01b600052601160045260246000fd5b600181815b8085111561354d578160001904821115613533576135336134fc565b8085161561354057918102915b93841c9390800290613517565b509250929050565b600082613564575060016107ad565b81613571575060006107ad565b81600181146135875760028114613591576135ad565b60019150506107ad565b60ff8411156135a2576135a26134fc565b50506001821b6107ad565b5060208310610133831016604e8410600b84101617156135d0575081810a6107ad565b6135da8383613512565b80600019048211156135ee576135ee6134fc565b029392505050565b60006104f660ff841683613555565b600081600019048311821515161561361f5761361f6134fc565b500290565b75546f7563616e2050726f746f636f6c3a2054434f322d60501b815260008351613655816016850160208801612d7e565b602d60f81b6016918401918201528351613676816017840160208801612d7e565b01601701949350505050565b805161251081612e31565b60006020828403121561369f57600080fd5b81516104f681612e31565b8051801515811461251057600080fd5b6000602082840312156136cc57600080fd5b6104f6826136aa565b6020808252600b908201526a2830bab9b2b2102a21a79960a91b604082015260600190565b634e487b7160e01b600052603260045260246000fd5b81835281816020850137506000828201602090810191909152601f909101601f19169091010190565b600060018060a01b03808c168352602060c08185015261375d60c085018c8e613710565b828b1660408601528481036060860152613778818a8c613710565b925050838203608085015261378e828789613710565b84810360a0860152855180825282870193509082019060005b818110156137c3578451835293830193918301916001016137a7565b50909e9d5050505050505050505050505050565b6000602082840312156137e957600080fd5b5051919050565b60008060006060848603121561380557600080fd5b835192506020840151915060408401516003811061382257600080fd5b809150509250925092565b634e487b7160e01b600052602160045260246000fd5b6000806040838503121561385657600080fd5b505080516020909101519092909150565b600082821015613879576138796134fc565b500390565b600082601f83011261388f57600080fd5b815161389d61340d826133c7565b8181528460208386010111156138b257600080fd5b6114c9826020830160208701612d7e565b80516001600160401b038116811461251057600080fd5b6000602082840312156138ec57600080fd5b81516001600160401b038082111561390357600080fd5b90830190610160828603121561391857600080fd5b61392061334b565b82518281111561392f57600080fd5b61393b8782860161387e565b82525061394a602084016138c3565b602082015261395b604084016138c3565b604082015260608301516060820152613976608084016138c3565b608082015261398760a084016136aa565b60a082015261399860c084016136aa565b60c082015260e0830151828111156139af57600080fd5b6139bb8782860161387e565b60e08301525061010080840151838111156139d557600080fd5b6139e18882870161387e565b82840152505061012080840151838111156139fb57600080fd5b613a078882870161387e565b8284015250506101408084015183811115613a2157600080fd5b613a2d8882870161387e565b918301919091525095945050505050565b600060208284031215613a5057600080fd5b81516001600160401b0380821115613a6757600080fd5b908301906101408286031215613a7c57600080fd5b613a84613374565b825182811115613a9357600080fd5b613a9f8782860161387e565b825250602083015182811115613ab457600080fd5b613ac08782860161387e565b602083015250604083015182811115613ad857600080fd5b613ae48782860161387e565b604083015250606083015182811115613afc57600080fd5b613b088782860161387e565b606083015250608083015182811115613b2057600080fd5b613b2c8782860161387e565b60808301525060a083015182811115613b4457600080fd5b613b508782860161387e565b60a08301525060c083015182811115613b6857600080fd5b613b748782860161387e565b60c08301525060e083015182811115613b8c57600080fd5b613b988782860161387e565b60e0830152506101008084015183811115613bb257600080fd5b613bbe8882870161387e565b8284015250506101209150613bd4828401613682565b91810191909152949350505050565b60008219821115613bf657613bf66134fc565b500190565b6454434f322d60d81b815260008351613c1b816005850160208801612d7e565b602d60f81b6005918401918201528351613c3c816006840160208801612d7e565b01600601949350505050565b6020808252602e908201527f496e697469616c697a61626c653a20636f6e747261637420697320616c72656160408201526d191e481a5b9a5d1a585b1a5e995960921b606082015260800190565b600181811c90821680613caa57607f821691505b602082108103613cca57634e487b7160e01b600052602260045260246000fd5b5091905056fea264697066735822122022eddc578b0bb80f60a23e2279a8f2c7f9fc48817ffe75ad122088c1c259c0a264736f6c634300080e0033496e697469616c697a61626c653a20636f6e747261637420697320616c726561",
  "devdoc": {
    "details": "Each TCO2 contract is deployed via a Beacon Proxy in `ToucanCarbonOffsetsFactory`",
    "kind": "dev",
    "methods": {
      "allowance(address,address)": {
        "details": "See {IERC20-allowance}."
      },
      "approve(address,uint256)": {
        "details": "See {IERC20-approve}. NOTE: If `amount` is the maximum `uint256`, the allowance is not updated on `transferFrom`. This is semantically equivalent to an infinite approval. Requirements: - `spender` cannot be the zero address."
      },
      "balanceOf(address)": {
        "details": "See {IERC20-balanceOf}."
      },
      "bridgeBurn(address,uint256)": {
        "params": {
          "account": "The user for whom to burn TCO2",
          "amount": "The amount to burn."
        }
      },
      "bridgeMint(address,uint256)": {
        "params": {
          "account": "The user for whom to mint TCO2",
          "amount": "The amount to mint."
        }
      },
      "burnFrom(address,uint256)": {
        "params": {
          "account": "The user for whom to burn TCO2",
          "amount": "The amount to burn"
        }
      },
      "decimals()": {
        "details": "Returns the number of decimals used to get its user representation. For example, if `decimals` equals `2`, a balance of `505` tokens should be displayed to a user as `5.05` (`505 / 10 ** 2`). Tokens usually opt for a value of 18, imitating the relationship between Ether and Wei. This is the value {ERC20} uses, unless this function is overridden; NOTE: This information is only used for _display_ purposes: it in no way affects any of the arithmetic of the contract, including {IERC20-balanceOf} and {IERC20-transfer}."
      },
      "decreaseAllowance(address,uint256)": {
        "details": "Atomically decreases the allowance granted to `spender` by the caller. This is an alternative to {approve} that can be used as a mitigation for problems described in {IERC20-approve}. Emits an {Approval} event indicating the updated allowance. Requirements: - `spender` cannot be the zero address. - `spender` must have allowance for the caller of at least `subtractedValue`."
      },
      "defractionalize(uint256)": {
        "params": {
          "tokenId": "The batch NFT to defractionalize from the TCO2"
        }
      },
      "getAttributes()": {
        "details": "Function to get corresponding attributes from the CarbonProjects"
      },
      "getDepositCap()": {
        "details": "Returns the cap for TCO2s based on `totalVintageQuantity` Returns `~unlimited` if the value for the vintage is not set"
      },
      "getGlobalProjectVintageIdentifiers()": {
        "details": "Helper function to retrieve data fragments for `name()` and `symbol()`"
      },
      "getRemaining()": {
        "details": "Returns the remaining space in TCO2 contract before hitting the cap"
      },
      "increaseAllowance(address,uint256)": {
        "details": "Atomically increases the allowance granted to `spender` by the caller. This is an alternative to {approve} that can be used as a mitigation for problems described in {IERC20-approve}. Emits an {Approval} event indicating the updated allowance. Requirements: - `spender` cannot be the zero address."
      },
      "mintCertificateLegacy(string,address,string,string)": {
        "params": {
          "beneficiary": "The beneficiary to set in the NFT.",
          "beneficiaryString": "The beneficiaryString to set in the NFT.",
          "retirementMessage": "The retirementMessage to set in the NFT.",
          "retiringEntityString": "An identifiable string for the retiring entity, eg. their name."
        }
      },
      "onERC721Received(address,address,uint256,bytes)": {
        "details": "Function is called with `operator` as `msg.sender` in a reference implementation by OZ `from` is the previous owner, not necessarily the same as operator. The hook checks if NFT collection is whitelisted and next if attributes are matching this ERC20 contract"
      },
      "retireAndMintCertificate(string,address,string,string,uint256)": {
        "params": {
          "amount": "The amount to retire and issue an NFT certificate for.",
          "beneficiary": "The beneficiary to set in the NFT.",
          "beneficiaryString": "The beneficiaryString to set in the NFT.",
          "retirementMessage": "The retirementMessage to set in the NFT.",
          "retiringEntityString": "An identifiable string for the retiring entity, eg. their name."
        }
      },
      "retireFrom(address,uint256)": {
        "details": "Allow for pools or third party contracts to retire for the user Requires approval"
      },
      "standardRegistry()": {
        "details": "this must be overridden in the child contract"
      },
      "totalSupply()": {
        "details": "See {IERC20-totalSupply}."
      }
    },
    "stateVariables": {
      "VERSION": {
        "details": "Version-related parameters. VERSION keeps track of production releases. VERSION_RELEASE_CANDIDATE keeps track of iterations of a VERSION in our staging environment."
      }
    },
    "version": 1
  },
  "userdoc": {
    "kind": "user",
    "methods": {
      "bridgeBurn(address,uint256)": {
        "notice": "Burn TCO2 on behalf of a user. msg.sender does not require approval by the account for the burn to be successfull. This function is exposed so it can be utilized in cross-chain transfers of TCO2 where we want to burn the TCO2 in the source chain but not retire it."
      },
      "bridgeMint(address,uint256)": {
        "notice": "Mint TCO2 on behalf of a user. This function is exposed to be called by authorized message bridge systems and utilized for cross-chain transfers of TCO2 where we want to mint the TCO2 in the source chain."
      },
      "burnFrom(address,uint256)": {
        "notice": "Burn TCO2 on behalf of a user. msg.sender needs to be approved by the account for the burn to be successfull. This function is exposed so it can be utilized to burn credits without retiring them (eg. dispose HFC-23)."
      },
      "defractionalize(uint256)": {
        "notice": "Defractionalize batch NFT by burning the amount of TCO2 from the sender and transfer the batch NFT that was selected to the sender. The only valid sender currently is the TCO2 factory owner."
      },
      "mintCertificateLegacy(string,address,string,string)": {
        "notice": "Mint an NFT showing how many tonnes of CO2 have been retired/cancelled Going forward users should mint NFT directly in the RetirementCertificates contract."
      },
      "name()": {
        "notice": "Token name getter overriden to return the a name based on the carbon project data"
      },
      "onERC721Received(address,address,uint256,bytes)": {
        "notice": "Receive hook to fractionalize Batch-NFTs into ERC20's"
      },
      "retire(uint256)": {
        "notice": "Retirement/Cancellation of TCO2 tokens (the actual offsetting), which results in the tokens being burnt"
      },
      "retireAndMintCertificate(string,address,string,string,uint256)": {
        "notice": "Retire an amount of TCO2s, register an retirement event then mint a certificate passing a single retirementEventId."
      },
      "standardRegistry()": {
        "notice": "Return the name of the registry that this factory is enabling to tokenize, eg., verra"
      },
      "symbol()": {
        "notice": "Token symbol getter overriden to return the a symbol based on the carbon project data"
      }
    },
    "notice": "Implementation contract of the TCO2 tokens (ERC20) These tokenized carbon offsets are specific to a vintage and its associated attributes In order to mint TCO2s a user must deposit a matching CarbonOffsetBatch",
    "version": 1
  },
  "storageLayout": {
    "storage": [
      {
        "astId": 1489,
        "contract": "contracts/ToucanCarbonOffsets.sol:ToucanCarbonOffsets",
        "label": "_initialized",
        "offset": 0,
        "slot": "0",
        "type": "t_uint8"
      },
      {
        "astId": 1492,
        "contract": "contracts/ToucanCarbonOffsets.sol:ToucanCarbonOffsets",
        "label": "_initializing",
        "offset": 1,
        "slot": "0",
        "type": "t_bool"
      },
      {
        "astId": 4593,
        "contract": "contracts/ToucanCarbonOffsets.sol:ToucanCarbonOffsets",
        "label": "__gap",
        "offset": 0,
        "slot": "1",
        "type": "t_array(t_uint256)50_storage"
      },
      {
        "astId": 1949,
        "contract": "contracts/ToucanCarbonOffsets.sol:ToucanCarbonOffsets",
        "label": "_balances",
        "offset": 0,
        "slot": "51",
        "type": "t_mapping(t_address,t_uint256)"
      },
      {
        "astId": 1955,
        "contract": "contracts/ToucanCarbonOffsets.sol:ToucanCarbonOffsets",
        "label": "_allowances",
        "offset": 0,
        "slot": "52",
        "type": "t_mapping(t_address,t_mapping(t_address,t_uint256))"
      },
      {
        "astId": 1957,
        "contract": "contracts/ToucanCarbonOffsets.sol:ToucanCarbonOffsets",
        "label": "_totalSupply",
        "offset": 0,
        "slot": "53",
        "type": "t_uint256"
      },
      {
        "astId": 1959,
        "contract": "contracts/ToucanCarbonOffsets.sol:ToucanCarbonOffsets",
        "label": "_name",
        "offset": 0,
        "slot": "54",
        "type": "t_string_storage"
      },
      {
        "astId": 1961,
        "contract": "contracts/ToucanCarbonOffsets.sol:ToucanCarbonOffsets",
        "label": "_symbol",
        "offset": 0,
        "slot": "55",
        "type": "t_string_storage"
      },
      {
        "astId": 2540,
        "contract": "contracts/ToucanCarbonOffsets.sol:ToucanCarbonOffsets",
        "label": "__gap",
        "offset": 0,
        "slot": "56",
        "type": "t_array(t_uint256)45_storage"
      },
      {
        "astId": 12167,
        "contract": "contracts/ToucanCarbonOffsets.sol:ToucanCarbonOffsets",
        "label": "projectVintageTokenId",
        "offset": 0,
        "slot": "101",
        "type": "t_uint256"
      },
      {
        "astId": 12169,
        "contract": "contracts/ToucanCarbonOffsets.sol:ToucanCarbonOffsets",
        "label": "contractRegistry",
        "offset": 0,
        "slot": "102",
        "type": "t_address"
      },
      {
        "astId": 12173,
        "contract": "contracts/ToucanCarbonOffsets.sol:ToucanCarbonOffsets",
        "label": "minterToId",
        "offset": 0,
        "slot": "103",
        "type": "t_mapping(t_address,t_uint256)"
      },
      {
        "astId": 12178,
        "contract": "contracts/ToucanCarbonOffsets.sol:ToucanCarbonOffsets",
        "label": "retiredAmount",
        "offset": 0,
        "slot": "104",
        "type": "t_mapping(t_address,t_uint256)"
      }
    ],
    "types": {
      "t_address": {
        "encoding": "inplace",
        "label": "address",
        "numberOfBytes": "20"
      },
      "t_array(t_uint256)45_storage": {
        "base": "t_uint256",
        "encoding": "inplace",
        "label": "uint256[45]",
        "numberOfBytes": "1440"
      },
      "t_array(t_uint256)50_storage": {
        "base": "t_uint256",
        "encoding": "inplace",
        "label": "uint256[50]",
        "numberOfBytes": "1600"
      },
      "t_bool": {
        "encoding": "inplace",
        "label": "bool",
        "numberOfBytes": "1"
      },
      "t_mapping(t_address,t_mapping(t_address,t_uint256))": {
        "encoding": "mapping",
        "key": "t_address",
        "label": "mapping(address => mapping(address => uint256))",
        "numberOfBytes": "32",
        "value": "t_mapping(t_address,t_uint256)"
      },
      "t_mapping(t_address,t_uint256)": {
        "encoding": "mapping",
        "key": "t_address",
        "label": "mapping(address => uint256)",
        "numberOfBytes": "32",
        "value": "t_uint256"
      },
      "t_string_storage": {
        "encoding": "bytes",
        "label": "string",
        "numberOfBytes": "32"
      },
      "t_uint256": {
        "encoding": "inplace",
        "label": "uint256",
        "numberOfBytes": "32"
      },
      "t_uint8": {
        "encoding": "inplace",
        "label": "uint8",
        "numberOfBytes": "1"
      }
    }
  }
}