{
  "address": "0x2D1218B3A8da72B9DeC1a05E7085a3A44755C656",
  "abi": [
    {
      "anonymous": false,
      "inputs": [
        {
          "indexed": false,
          "internalType": "address",
          "name": "previousAdmin",
          "type": "address"
        },
        {
          "indexed": false,
          "internalType": "address",
          "name": "newAdmin",
          "type": "address"
        }
      ],
      "name": "AdminChanged",
      "type": "event"
    },
    {
      "anonymous": false,
      "inputs": [
        {
          "indexed": true,
          "internalType": "address",
          "name": "beacon",
          "type": "address"
        }
      ],
      "name": "BeaconUpgraded",
      "type": "event"
    },
    {
      "anonymous": false,
      "inputs": [
        {
          "indexed": false,
          "internalType": "address",
          "name": "contractRegistry",
          "type": "address"
        }
      ],
      "name": "ContractRegistryUpdated",
      "type": "event"
    },
    {
      "anonymous": false,
      "inputs": [
        {
          "indexed": false,
          "internalType": "uint8",
          "name": "version",
          "type": "uint8"
        }
      ],
      "name": "Initialized",
      "type": "event"
    },
    {
      "anonymous": false,
      "inputs": [
        {
          "indexed": true,
          "internalType": "address",
          "name": "previousOwner",
          "type": "address"
        },
        {
          "indexed": true,
          "internalType": "address",
          "name": "newOwner",
          "type": "address"
        }
      ],
      "name": "OwnershipTransferred",
      "type": "event"
    },
    {
      "anonymous": false,
      "inputs": [
        {
          "indexed": false,
          "internalType": "address",
          "name": "account",
          "type": "address"
        }
      ],
      "name": "Paused",
      "type": "event"
    },
    {
      "anonymous": false,
      "inputs": [
        {
          "indexed": true,
          "internalType": "bytes32",
          "name": "role",
          "type": "bytes32"
        },
        {
          "indexed": true,
          "internalType": "bytes32",
          "name": "previousAdminRole",
          "type": "bytes32"
        },
        {
          "indexed": true,
          "internalType": "bytes32",
          "name": "newAdminRole",
          "type": "bytes32"
        }
      ],
      "name": "RoleAdminChanged",
      "type": "event"
    },
    {
      "anonymous": false,
      "inputs": [
        {
          "indexed": true,
          "internalType": "bytes32",
          "name": "role",
          "type": "bytes32"
        },
        {
          "indexed": true,
          "internalType": "address",
          "name": "account",
          "type": "address"
        },
        {
          "indexed": true,
          "internalType": "address",
          "name": "sender",
          "type": "address"
        }
      ],
      "name": "RoleGranted",
      "type": "event"
    },
    {
      "anonymous": false,
      "inputs": [
        {
          "indexed": true,
          "internalType": "bytes32",
          "name": "role",
          "type": "bytes32"
        },
        {
          "indexed": true,
          "internalType": "address",
          "name": "account",
          "type": "address"
        },
        {
          "indexed": true,
          "internalType": "address",
          "name": "sender",
          "type": "address"
        }
      ],
      "name": "RoleRevoked",
      "type": "event"
    },
    {
      "anonymous": false,
      "inputs": [
        {
          "indexed": false,
          "internalType": "address",
          "name": "account",
          "type": "address"
        }
      ],
      "name": "Unpaused",
      "type": "event"
    },
    {
      "anonymous": false,
      "inputs": [
        {
          "indexed": true,
          "internalType": "address",
          "name": "implementation",
          "type": "address"
        }
      ],
      "name": "Upgraded",
      "type": "event"
    },
    {
      "inputs": [],
      "name": "DEFAULT_ADMIN_ROLE",
      "outputs": [
        {
          "internalType": "bytes32",
          "name": "",
          "type": "bytes32"
        }
      ],
      "stateMutability": "view",
      "type": "function"
    },
    {
      "inputs": [],
      "name": "PAUSER_ROLE",
      "outputs": [
        {
          "internalType": "bytes32",
          "name": "",
          "type": "bytes32"
        }
      ],
      "stateMutability": "view",
      "type": "function"
    },
    {
      "inputs": [],
      "name": "VERSION",
      "outputs": [
        {
          "internalType": "string",
          "name": "",
          "type": "string"
        }
      ],
      "stateMutability": "view",
      "type": "function"
    },
    {
      "inputs": [],
      "name": "VERSION_RELEASE_CANDIDATE",
      "outputs": [
        {
          "internalType": "uint256",
          "name": "",
          "type": "uint256"
        }
      ],
      "stateMutability": "view",
      "type": "function"
    },
    {
      "inputs": [],
      "name": "contractRegistry",
      "outputs": [
        {
          "internalType": "address",
          "name": "",
          "type": "address"
        }
      ],
      "stateMutability": "view",
      "type": "function"
    },
    {
      "inputs": [
        {
          "internalType": "address",
          "name": "user",
          "type": "address"
        },
        {
          "internalType": "uint256",
          "name": "amount",
          "type": "uint256"
        },
        {
          "internalType": "uint256[]",
          "name": "batchTokenIds",
          "type": "uint256[]"
        }
      ],
      "name": "createDetokenizationRequest",
      "outputs": [
        {
          "internalType": "uint256",
          "name": "",
          "type": "uint256"
        }
      ],
      "stateMutability": "nonpayable",
      "type": "function"
    },
    {
      "inputs": [
        {
          "internalType": "uint256",
          "name": "requestId",
          "type": "uint256"
        }
      ],
      "name": "finalizeDetokenizationRequest",
      "outputs": [],
      "stateMutability": "nonpayable",
      "type": "function"
    },
    {
      "inputs": [
        {
          "internalType": "bytes32",
          "name": "role",
          "type": "bytes32"
        }
      ],
      "name": "getRoleAdmin",
      "outputs": [
        {
          "internalType": "bytes32",
          "name": "",
          "type": "bytes32"
        }
      ],
      "stateMutability": "view",
      "type": "function"
    },
    {
      "inputs": [
        {
          "internalType": "bytes32",
          "name": "role",
          "type": "bytes32"
        },
        {
          "internalType": "address",
          "name": "account",
          "type": "address"
        }
      ],
      "name": "grantRole",
      "outputs": [],
      "stateMutability": "nonpayable",
      "type": "function"
    },
    {
      "inputs": [
        {
          "internalType": "bytes32",
          "name": "role",
          "type": "bytes32"
        },
        {
          "internalType": "address",
          "name": "account",
          "type": "address"
        }
      ],
      "name": "hasRole",
      "outputs": [
        {
          "internalType": "bool",
          "name": "",
          "type": "bool"
        }
      ],
      "stateMutability": "view",
      "type": "function"
    },
    {
      "inputs": [
        {
          "internalType": "address",
          "name": "_contractRegistry",
          "type": "address"
        },
        {
          "internalType": "address[]",
          "name": "_accounts",
          "type": "address[]"
        },
        {
          "internalType": "bytes32[]",
          "name": "_roles",
          "type": "bytes32[]"
        }
      ],
      "name": "initialize",
      "outputs": [],
      "stateMutability": "nonpayable",
      "type": "function"
    },
    {
      "inputs": [],
      "name": "owner",
      "outputs": [
        {
          "internalType": "address",
          "name": "",
          "type": "address"
        }
      ],
      "stateMutability": "view",
      "type": "function"
    },
    {
      "inputs": [],
      "name": "pause",
      "outputs": [],
      "stateMutability": "nonpayable",
      "type": "function"
    },
    {
      "inputs": [],
      "name": "paused",
      "outputs": [
        {
          "internalType": "bool",
          "name": "",
          "type": "bool"
        }
      ],
      "stateMutability": "view",
      "type": "function"
    },
    {
      "inputs": [],
      "name": "proxiableUUID",
      "outputs": [
        {
          "internalType": "bytes32",
          "name": "",
          "type": "bytes32"
        }
      ],
      "stateMutability": "view",
      "type": "function"
    },
    {
      "inputs": [],
      "name": "renounceOwnership",
      "outputs": [],
      "stateMutability": "nonpayable",
      "type": "function"
    },
    {
      "inputs": [
        {
          "internalType": "bytes32",
          "name": "role",
          "type": "bytes32"
        },
        {
          "internalType": "address",
          "name": "account",
          "type": "address"
        }
      ],
      "name": "renounceRole",
      "outputs": [],
      "stateMutability": "nonpayable",
      "type": "function"
    },
    {
      "inputs": [],
      "name": "requestIdCounter",
      "outputs": [
        {
          "internalType": "uint256",
          "name": "",
          "type": "uint256"
        }
      ],
      "stateMutability": "view",
      "type": "function"
    },
    {
      "inputs": [
        {
          "internalType": "uint256",
          "name": "requestId",
          "type": "uint256"
        }
      ],
      "name": "requests",
      "outputs": [
        {
          "components": [
            {
              "internalType": "address",
              "name": "user",
              "type": "address"
            },
            {
              "internalType": "uint256",
              "name": "amount",
              "type": "uint256"
            },
            {
              "internalType": "enum RequestType",
              "name": "rType",
              "type": "uint8"
            },
            {
              "internalType": "enum RequestStatus",
              "name": "status",
              "type": "uint8"
            },
            {
              "internalType": "uint256[]",
              "name": "batchTokenIds",
              "type": "uint256[]"
            }
          ],
          "internalType": "struct Request",
          "name": "",
          "type": "tuple"
        }
      ],
      "stateMutability": "view",
      "type": "function"
    },
    {
      "inputs": [
        {
          "internalType": "uint256",
          "name": "requestId",
          "type": "uint256"
        }
      ],
      "name": "revertRequest",
      "outputs": [],
      "stateMutability": "nonpayable",
      "type": "function"
    },
    {
      "inputs": [
        {
          "internalType": "bytes32",
          "name": "role",
          "type": "bytes32"
        },
        {
          "internalType": "address",
          "name": "account",
          "type": "address"
        }
      ],
      "name": "revokeRole",
      "outputs": [],
      "stateMutability": "nonpayable",
      "type": "function"
    },
    {
      "inputs": [
        {
          "internalType": "address",
          "name": "_address",
          "type": "address"
        }
      ],
      "name": "setToucanContractRegistry",
      "outputs": [],
      "stateMutability": "nonpayable",
      "type": "function"
    },
    {
      "inputs": [
        {
          "internalType": "bytes4",
          "name": "interfaceId",
          "type": "bytes4"
        }
      ],
      "name": "supportsInterface",
      "outputs": [
        {
          "internalType": "bool",
          "name": "",
          "type": "bool"
        }
      ],
      "stateMutability": "view",
      "type": "function"
    },
    {
      "inputs": [
        {
          "internalType": "address",
          "name": "newOwner",
          "type": "address"
        }
      ],
      "name": "transferOwnership",
      "outputs": [],
      "stateMutability": "nonpayable",
      "type": "function"
    },
    {
      "inputs": [],
      "name": "unpause",
      "outputs": [],
      "stateMutability": "nonpayable",
      "type": "function"
    },
    {
      "inputs": [
        {
          "internalType": "address",
          "name": "newImplementation",
          "type": "address"
        }
      ],
      "name": "upgradeTo",
      "outputs": [],
      "stateMutability": "nonpayable",
      "type": "function"
    },
    {
      "inputs": [
        {
          "internalType": "address",
          "name": "newImplementation",
          "type": "address"
        },
        {
          "internalType": "bytes",
          "name": "data",
          "type": "bytes"
        }
      ],
      "name": "upgradeToAndCall",
      "outputs": [],
      "stateMutability": "payable",
      "type": "function"
    }
  ],
  "numDeployments": 1,
  "solcInputHash": "544098be753db9b8c51b6f3bdacc0ca1",
  "bytecode": "0x60a06040523060805234801561001457600080fd5b506080516126d261004c60003960008181610745015281816107850152818161085601528181610896015261092501526126d26000f3fe60806040526004361061019c5760003560e01c80638456cb59116100ec578063d547741f1161008a578063ebe5b46011610064578063ebe5b4601461048b578063f2fde38b146104ab578063f8d8353f146104cb578063ffa1ad74146104eb57600080fd5b8063d547741f14610417578063e63ab1e914610437578063e882e37b1461046b57600080fd5b806391d14854116100c657806391d14854146103a1578063a217fddf146103c1578063abf410e5146103d6578063c346a8bf146103f757600080fd5b80638456cb59146103435780638da5cb5b146103585780638db5888a1461038a57600080fd5b80633f4ba83a116101595780635c975abb116101335780635c975abb146102d45780636ca0b0d7146102ec578063715018a61461030157806381d12c581461031657600080fd5b80633f4ba83a146102975780634f1ef286146102ac57806352d1902d146102bf57600080fd5b806301ffc9a7146101a15780630d60c3b2146101d6578063248a9ca3146101f85780632f2ff15d1461023757806336568abe146102575780633659cfe614610277575b600080fd5b3480156101ad57600080fd5b506101c16101bc366004611fb7565b610529565b60405190151581526020015b60405180910390f35b3480156101e257600080fd5b506101f66101f1366004611fe1565b610560565b005b34801561020457600080fd5b50610229610213366004611fe1565b600090815261012d602052604090206001015490565b6040519081526020016101cd565b34801561024357600080fd5b506101f6610252366004612011565b610696565b34801561026357600080fd5b506101f6610272366004612011565b6106c1565b34801561028357600080fd5b506101f661029236600461203d565b61073b565b3480156102a357600080fd5b506101f661081a565b6101f66102ba36600461206e565b61084c565b3480156102cb57600080fd5b50610229610918565b3480156102e057600080fd5b5060655460ff166101c1565b3480156102f857600080fd5b50610229600281565b34801561030d57600080fd5b506101f66109cb565b34801561032257600080fd5b50610336610331366004611fe1565b610a01565b6040516101cd9190612146565b34801561034f57600080fd5b506101f6610b37565b34801561036457600080fd5b506033546001600160a01b03165b6040516001600160a01b0390911681526020016101cd565b34801561039657600080fd5b506102296101605481565b3480156103ad57600080fd5b506101c16103bc366004612011565b610b69565b3480156103cd57600080fd5b50610229600081565b3480156103e257600080fd5b5061015f54610372906001600160a01b031681565b34801561040357600080fd5b50610229610412366004612234565b610b95565b34801561042357600080fd5b506101f6610432366004612011565b610d58565b34801561044357600080fd5b506102297f65d7a28e3265b37a6474929f336521b332c1681b933f6cb9f3376673440d862a81565b34801561047757600080fd5b506101f661048636600461203d565b610d7e565b34801561049757600080fd5b506101f66104a6366004611fe1565b610dfd565b3480156104b757600080fd5b506101f66104c636600461203d565b610fcb565b3480156104d757600080fd5b506101f66104e636600461228e565b611063565b3480156104f757600080fd5b5061051c604051806040016040528060058152602001640312e302e360dc1b81525081565b6040516101cd919061233b565b60006001600160e01b03198216637965db0b60e01b148061055a57506301ffc9a760e01b6001600160e01b03198316145b92915050565b61015f54604051633a37b16d60e11b81523360048201526001600160a01b039091169063746f62da90602401602060405180830381865afa1580156105a9573d6000803e3d6000fd5b505050506040513d601f19601f820116820180604052508101906105cd919061236e565b6105f25760405162461bcd60e51b81526004016105e990612390565b60405180910390fd5b60008181526101616020526040812090600282810154610100900460ff169081111561062057610620612130565b146106635760405162461bcd60e51b8152602060048201526013602482015272139bdd081c195b991a5b99c81c995c5d595cdd606a1b60448201526064016105e9565b60028101805461ff001916610200179055805460018201546106929133916001600160a01b039091169061125b565b5050565b600082815261012d60205260409020600101546106b2816112be565b6106bc83836112c8565b505050565b6001600160a01b03811633146107315760405162461bcd60e51b815260206004820152602f60248201527f416363657373436f6e74726f6c3a2063616e206f6e6c792072656e6f756e636560448201526e103937b632b9903337b91039b2b63360891b60648201526084016105e9565b610692828261134f565b6001600160a01b037f00000000000000000000000000000000000000000000000000000000000000001630036107835760405162461bcd60e51b81526004016105e9906123b2565b7f00000000000000000000000000000000000000000000000000000000000000006001600160a01b03166107cc600080516020612656833981519152546001600160a01b031690565b6001600160a01b0316146107f25760405162461bcd60e51b81526004016105e9906123fe565b6107fb816113b7565b60408051600080825260208201909252610817918391906113e1565b50565b7f65d7a28e3265b37a6474929f336521b332c1681b933f6cb9f3376673440d862a610844816112be565b61081761154c565b6001600160a01b037f00000000000000000000000000000000000000000000000000000000000000001630036108945760405162461bcd60e51b81526004016105e9906123b2565b7f00000000000000000000000000000000000000000000000000000000000000006001600160a01b03166108dd600080516020612656833981519152546001600160a01b031690565b6001600160a01b0316146109035760405162461bcd60e51b81526004016105e9906123fe565b61090c826113b7565b610692828260016113e1565b6000306001600160a01b037f000000000000000000000000000000000000000000000000000000000000000016146109b85760405162461bcd60e51b815260206004820152603860248201527f555550535570677261646561626c653a206d757374206e6f742062652063616c60448201527f6c6564207468726f7567682064656c656761746563616c6c000000000000000060648201526084016105e9565b5060008051602061265683398151915290565b6033546001600160a01b031633146109f55760405162461bcd60e51b81526004016105e99061244a565b6109ff60006115df565b565b610a336040805160a0810182526000808252602082018190529091820190815260200160008152602001606081525090565b60008281526101616020908152604091829020825160a08101845281546001600160a01b03168152600180830154938201939093526002820154909391929184019160ff90911690811115610a8a57610a8a612130565b6001811115610a9b57610a9b612130565b81526020016002820160019054906101000a900460ff166002811115610ac357610ac3612130565b6002811115610ad457610ad4612130565b815260200160038201805480602002602001604051908101604052809291908181526020018280548015610b2757602002820191906000526020600020905b815481526020019060010190808311610b13575b5050505050815250509050919050565b7f65d7a28e3265b37a6474929f336521b332c1681b933f6cb9f3376673440d862a610b61816112be565b610817611631565b600091825261012d602090815260408084206001600160a01b0393909316845291905290205460ff1690565b61015f54604051633a37b16d60e11b81523360048201526000916001600160a01b03169063746f62da90602401602060405180830381865afa158015610bdf573d6000803e3d6000fd5b505050506040513d601f19601f82011682018060405250810190610c03919061236e565b610c1f5760405162461bcd60e51b81526004016105e990612390565b6101608054600101908190556040805160a0810182526001600160a01b038816815260208101879052908101600081526020016000815260200185858080602002602001604051908101604052809392919081815260200183836020028082843760009201829052509390945250508381526101616020908152604091829020845181546001600160a01b0319166001600160a01b0390911617815590840151600180830191909155918401516002820180549294509092909160ff1916908381811115610cef57610cef612130565b021790555060608201518160020160016101000a81548160ff02191690836002811115610d1e57610d1e612130565b021790555060808201518051610d3e916003840191602090910190611f57565b50610d4f91503390508730886116ac565b95945050505050565b600082815261012d6020526040902060010154610d74816112be565b6106bc838361134f565b6033546001600160a01b03163314610da85760405162461bcd60e51b81526004016105e99061244a565b61015f80546001600160a01b0319166001600160a01b0383169081179091556040519081527fb3a6e7c81ebdb0cf9bf28d5ddf6678ded8d73b44f2eee06ca3974dbb9f41ce7e9060200160405180910390a150565b61015f54604051633a37b16d60e11b81523360048201526001600160a01b039091169063746f62da90602401602060405180830381865afa158015610e46573d6000803e3d6000fd5b505050506040513d601f19601f82011682018060405250810190610e6a919061236e565b610e865760405162461bcd60e51b81526004016105e990612390565b60008181526101616020526040812090600282015460ff166001811115610eaf57610eaf612130565b14610eeb5760405162461bcd60e51b815260206004820152600c60248201526b496e76616c6964207479706560a01b60448201526064016105e9565b6000600282810154610100900460ff1690811115610f0b57610f0b612130565b14610f4e5760405162461bcd60e51b8152602060048201526013602482015272139bdd081c195b991a5b99c81c995c5d595cdd606a1b60448201526064016105e9565b60028101805461ff0019166101001790556001810154610f6f3330836116ea565b60405163079cc67960e41b81523060048201526024810182905233906379cc679090604401600060405180830381600087803b158015610fae57600080fd5b505af1158015610fc2573d6000803e3d6000fd5b50505050505050565b6033546001600160a01b03163314610ff55760405162461bcd60e51b81526004016105e99061244a565b6001600160a01b03811661105a5760405162461bcd60e51b815260206004820152602660248201527f4f776e61626c653a206e6577206f776e657220697320746865207a65726f206160448201526564647265737360d01b60648201526084016105e9565b610817816115df565b600061106f60016117ff565b90508015611087576000805461ff0019166101001790555b8382146110ce5760405162461bcd60e51b8152602060048201526015602482015274082e4e4c2f240d8cadccee8d040dad2e6dac2e8c6d605b1b60448201526064016105e9565b6110d661188c565b6110de6118bc565b6110e66118ef565b6110ee6118ef565b6000805b858110156111775761114285858381811061110f5761110f61247f565b905060200201358888848181106111285761112861247f565b905060200201602081019061113d919061203d565b6112c8565b60008585838181106111565761115661247f565b905060200201350361116757600191505b611170816124ab565b90506110f2565b50806111ba5760405162461bcd60e51b8152602060048201526012602482015271139bc818591b5a5b881cdc1958da599a595960721b60448201526064016105e9565b61015f80546001600160a01b0319166001600160a01b0389169081179091556040519081527fb3a6e7c81ebdb0cf9bf28d5ddf6678ded8d73b44f2eee06ca3974dbb9f41ce7e9060200160405180910390a1508015611253576000805461ff0019169055604051600181527f7f26b83ff96e1f2b6a682f133852f6798a09c465da95921460cefb38474024989060200160405180910390a15b505050505050565b6040516001600160a01b0383166024820152604481018290526106bc90849063a9059cbb60e01b906064015b60408051601f198184030181529190526020810180516001600160e01b03166001600160e01b031990931692909217909152611916565b61081781336119e8565b6112d28282610b69565b61069257600082815261012d602090815260408083206001600160a01b03851684529091529020805460ff1916600117905561130b3390565b6001600160a01b0316816001600160a01b0316837f2f8788117e7eff1d82e926ec794901d17c78024a50270940304540a733656f0d60405160405180910390a45050565b6113598282610b69565b1561069257600082815261012d602090815260408083206001600160a01b0385168085529252808320805460ff1916905551339285917ff6391f5c32d9c69d2a47ea670b442974b53935d1edc7fd64eb21e047a839171b9190a45050565b6033546001600160a01b031633146108175760405162461bcd60e51b81526004016105e99061244a565b7f4910fdfa16fed3260ed0e7147f7cc6da11a60208b5b9406d12a635614ffd91435460ff1615611414576106bc83611a4c565b826001600160a01b03166352d1902d6040518163ffffffff1660e01b8152600401602060405180830381865afa92505050801561146e575060408051601f3d908101601f1916820190925261146b918101906124c4565b60015b6114d15760405162461bcd60e51b815260206004820152602e60248201527f45524331393637557067726164653a206e657720696d706c656d656e7461746960448201526d6f6e206973206e6f74205555505360901b60648201526084016105e9565b60008051602061265683398151915281146115405760405162461bcd60e51b815260206004820152602960248201527f45524331393637557067726164653a20756e737570706f727465642070726f786044820152681a58589b195555525160ba1b60648201526084016105e9565b506106bc838383611ae8565b60655460ff166115955760405162461bcd60e51b815260206004820152601460248201527314185d5cd8589b194e881b9bdd081c185d5cd95960621b60448201526064016105e9565b6065805460ff191690557f5db9ee0a495bf2e6ff9c91a7834c1ba4fdd244a5e8aa4e537bd38aeae4b073aa335b6040516001600160a01b03909116815260200160405180910390a1565b603380546001600160a01b038381166001600160a01b0319831681179093556040519116919082907f8be0079c531659141344cd1fd0a4f28419497f9722a3daafe3b4186f6b6457e090600090a35050565b60655460ff16156116775760405162461bcd60e51b815260206004820152601060248201526f14185d5cd8589b194e881c185d5cd95960821b60448201526064016105e9565b6065805460ff191660011790557f62e78cea01bee320cd4e420270b5ea74000d11b0c9f74754ebdbfc544b05a2586115c23390565b6040516001600160a01b03808516602483015283166044820152606481018290526116e49085906323b872dd60e01b90608401611287565b50505050565b8015806117645750604051636eb1769f60e11b81523060048201526001600160a01b03838116602483015284169063dd62ed3e90604401602060405180830381865afa15801561173e573d6000803e3d6000fd5b505050506040513d601f19601f8201168201806040525081019061176291906124c4565b155b6117cf5760405162461bcd60e51b815260206004820152603660248201527f5361666545524332303a20617070726f76652066726f6d206e6f6e2d7a65726f60448201527520746f206e6f6e2d7a65726f20616c6c6f77616e636560501b60648201526084016105e9565b6040516001600160a01b0383166024820152604481018290526106bc90849063095ea7b360e01b90606401611287565b60008054610100900460ff1615611846578160ff1660011480156118225750303b155b61183e5760405162461bcd60e51b81526004016105e9906124dd565b506000919050565b60005460ff80841691161061186d5760405162461bcd60e51b81526004016105e9906124dd565b506000805460ff191660ff92909216919091179055600190565b919050565b600054610100900460ff166118b35760405162461bcd60e51b81526004016105e99061252b565b6109ff336115df565b600054610100900460ff166118e35760405162461bcd60e51b81526004016105e99061252b565b6065805460ff19169055565b600054610100900460ff166109ff5760405162461bcd60e51b81526004016105e99061252b565b600061196b826040518060400160405280602081526020017f5361666545524332303a206c6f772d6c6576656c2063616c6c206661696c6564815250856001600160a01b0316611b0d9092919063ffffffff16565b8051909150156106bc5780806020019051810190611989919061236e565b6106bc5760405162461bcd60e51b815260206004820152602a60248201527f5361666545524332303a204552433230206f7065726174696f6e20646964206e6044820152691bdd081cdd58d8d9595960b21b60648201526084016105e9565b6119f28282610b69565b61069257611a0a816001600160a01b03166014611b26565b611a15836020611b26565b604051602001611a26929190612576565b60408051601f198184030181529082905262461bcd60e51b82526105e99160040161233b565b6001600160a01b0381163b611ab95760405162461bcd60e51b815260206004820152602d60248201527f455243313936373a206e657720696d706c656d656e746174696f6e206973206e60448201526c1bdd08184818dbdb9d1c9858dd609a1b60648201526084016105e9565b60008051602061265683398151915280546001600160a01b0319166001600160a01b0392909216919091179055565b611af183611cc2565b600082511180611afe5750805b156106bc576116e48383611d02565b6060611b1c8484600085611ded565b90505b9392505050565b60606000611b358360026125eb565b611b4090600261260a565b67ffffffffffffffff811115611b5857611b58612058565b6040519080825280601f01601f191660200182016040528015611b82576020820181803683370190505b509050600360fc1b81600081518110611b9d57611b9d61247f565b60200101906001600160f81b031916908160001a905350600f60fb1b81600181518110611bcc57611bcc61247f565b60200101906001600160f81b031916908160001a9053506000611bf08460026125eb565b611bfb90600161260a565b90505b6001811115611c73576f181899199a1a9b1b9c1cb0b131b232b360811b85600f1660108110611c2f57611c2f61247f565b1a60f81b828281518110611c4557611c4561247f565b60200101906001600160f81b031916908160001a90535060049490941c93611c6c81612622565b9050611bfe565b508315611b1f5760405162461bcd60e51b815260206004820181905260248201527f537472696e67733a20686578206c656e67746820696e73756666696369656e7460448201526064016105e9565b611ccb81611a4c565b6040516001600160a01b038216907fbc7cd75a20ee27fd9adebab32041f755214dbc6bffa90cc0225b39da2e5c2d3b90600090a250565b60606001600160a01b0383163b611d6a5760405162461bcd60e51b815260206004820152602660248201527f416464726573733a2064656c65676174652063616c6c20746f206e6f6e2d636f6044820152651b9d1c9858dd60d21b60648201526084016105e9565b600080846001600160a01b031684604051611d859190612639565b600060405180830381855af49150503d8060008114611dc0576040519150601f19603f3d011682016040523d82523d6000602084013e611dc5565b606091505b5091509150610d4f828260405180606001604052806027815260200161267660279139611f1e565b606082471015611e4e5760405162461bcd60e51b815260206004820152602660248201527f416464726573733a20696e73756666696369656e742062616c616e636520666f6044820152651c8818d85b1b60d21b60648201526084016105e9565b6001600160a01b0385163b611ea55760405162461bcd60e51b815260206004820152601d60248201527f416464726573733a2063616c6c20746f206e6f6e2d636f6e747261637400000060448201526064016105e9565b600080866001600160a01b03168587604051611ec19190612639565b60006040518083038185875af1925050503d8060008114611efe576040519150601f19603f3d011682016040523d82523d6000602084013e611f03565b606091505b5091509150611f13828286611f1e565b979650505050505050565b60608315611f2d575081611b1f565b825115611f3d5782518084602001fd5b8160405162461bcd60e51b81526004016105e9919061233b565b828054828255906000526020600020908101928215611f92579160200282015b82811115611f92578251825591602001919060010190611f77565b50611f9e929150611fa2565b5090565b5b80821115611f9e5760008155600101611fa3565b600060208284031215611fc957600080fd5b81356001600160e01b031981168114611b1f57600080fd5b600060208284031215611ff357600080fd5b5035919050565b80356001600160a01b038116811461188757600080fd5b6000806040838503121561202457600080fd5b8235915061203460208401611ffa565b90509250929050565b60006020828403121561204f57600080fd5b611b1f82611ffa565b634e487b7160e01b600052604160045260246000fd5b6000806040838503121561208157600080fd5b61208a83611ffa565b9150602083013567ffffffffffffffff808211156120a757600080fd5b818501915085601f8301126120bb57600080fd5b8135818111156120cd576120cd612058565b604051601f8201601f19908116603f011681019083821181831017156120f5576120f5612058565b8160405282815288602084870101111561210e57600080fd5b8260208601602083013760006020848301015280955050505050509250929050565b634e487b7160e01b600052602160045260246000fd5b6000602080835260c0830160018060a01b038551168285015281850151604085015260408501516002811061217d5761217d612130565b8060608601525060608501516003811061219957612199612130565b60808581019190915285015160a08086015280519182905282019060009060e08601905b808310156121dd57835182529284019260019290920191908401906121bd565b509695505050505050565b60008083601f8401126121fa57600080fd5b50813567ffffffffffffffff81111561221257600080fd5b6020830191508360208260051b850101111561222d57600080fd5b9250929050565b6000806000806060858703121561224a57600080fd5b61225385611ffa565b935060208501359250604085013567ffffffffffffffff81111561227657600080fd5b612282878288016121e8565b95989497509550505050565b6000806000806000606086880312156122a657600080fd5b6122af86611ffa565b9450602086013567ffffffffffffffff808211156122cc57600080fd5b6122d889838a016121e8565b909650945060408801359150808211156122f157600080fd5b506122fe888289016121e8565b969995985093965092949392505050565b60005b8381101561232a578181015183820152602001612312565b838111156116e45750506000910152565b602081526000825180602084015261235a81604085016020870161230f565b601f01601f19169190910160400192915050565b60006020828403121561238057600080fd5b81518015158114611b1f57600080fd5b6020808252600890820152672737ba102a21a79960c11b604082015260600190565b6020808252602c908201527f46756e6374696f6e206d7573742062652063616c6c6564207468726f7567682060408201526b19195b1959d85d1958d85b1b60a21b606082015260800190565b6020808252602c908201527f46756e6374696f6e206d7573742062652063616c6c6564207468726f7567682060408201526b6163746976652070726f787960a01b606082015260800190565b6020808252818101527f4f776e61626c653a2063616c6c6572206973206e6f7420746865206f776e6572604082015260600190565b634e487b7160e01b600052603260045260246000fd5b634e487b7160e01b600052601160045260246000fd5b6000600182016124bd576124bd612495565b5060010190565b6000602082840312156124d657600080fd5b5051919050565b6020808252602e908201527f496e697469616c697a61626c653a20636f6e747261637420697320616c72656160408201526d191e481a5b9a5d1a585b1a5e995960921b606082015260800190565b6020808252602b908201527f496e697469616c697a61626c653a20636f6e7472616374206973206e6f74206960408201526a6e697469616c697a696e6760a81b606082015260800190565b7f416363657373436f6e74726f6c3a206163636f756e74200000000000000000008152600083516125ae81601785016020880161230f565b7001034b99036b4b9b9b4b733903937b6329607d1b60179184019182015283516125df81602884016020880161230f565b01602801949350505050565b600081600019048311821515161561260557612605612495565b500290565b6000821982111561261d5761261d612495565b500190565b60008161263157612631612495565b506000190190565b6000825161264b81846020870161230f565b919091019291505056fe360894a13ba1a3210667c828492db98dca3e2076cc3735a920a3ca505d382bbc416464726573733a206c6f772d6c6576656c2064656c65676174652063616c6c206661696c6564a2646970667358221220185116d4862f1a630c54f0137197db185d4dc7c28dc21c58561e42ee7e47476264736f6c634300080e0033",
  "devdoc": {
    "kind": "dev",
    "methods": {
      "createDetokenizationRequest(address,uint256,uint256[])": {
        "details": "Only a TCO2 contract can call this function. Additionally, the escrow contract must have been approved to transfer the amount of TCO2 to detokenize.",
        "params": {
          "amount": "The amount of TCO2 to detokenize.",
          "batchTokenIds": "The ids of the batches to detokenize.",
          "user": "The user that is requesting the detokenization."
        }
      },
      "finalizeDetokenizationRequest(uint256)": {
        "details": "Only the TCO2 contract can call this function.",
        "params": {
          "requestId": "The id of the request to finalize."
        }
      },
      "getRoleAdmin(bytes32)": {
        "details": "Returns the admin role that controls `role`. See {grantRole} and {revokeRole}. To change a role's admin, use {_setRoleAdmin}."
      },
      "grantRole(bytes32,address)": {
        "details": "Grants `role` to `account`. If `account` had not been already granted `role`, emits a {RoleGranted} event. Requirements: - the caller must have ``role``'s admin role."
      },
      "hasRole(bytes32,address)": {
        "details": "Returns `true` if `account` has been granted `role`."
      },
      "owner()": {
        "details": "Returns the address of the current owner."
      },
      "paused()": {
        "details": "Returns true if the contract is paused, and false otherwise."
      },
      "proxiableUUID()": {
        "details": "Implementation of the ERC1822 {proxiableUUID} function. This returns the storage slot used by the implementation. It is used to validate that the this implementation remains valid after an upgrade. IMPORTANT: A proxy pointing at a proxiable contract should not be considered proxiable itself, because this risks bricking a proxy that upgrades to it, by delegating to itself until out of gas. Thus it is critical that this function revert if invoked through a proxy. This is guaranteed by the `notDelegated` modifier."
      },
      "renounceOwnership()": {
        "details": "Leaves the contract without owner. It will not be possible to call `onlyOwner` functions anymore. Can only be called by the current owner. NOTE: Renouncing ownership will leave the contract without an owner, thereby removing any functionality that is only available to the owner."
      },
      "renounceRole(bytes32,address)": {
        "details": "Revokes `role` from the calling account. Roles are often managed via {grantRole} and {revokeRole}: this function's purpose is to provide a mechanism for accounts to lose their privileges if they are compromised (such as when a trusted device is misplaced). If the calling account had been revoked `role`, emits a {RoleRevoked} event. Requirements: - the caller must be `account`."
      },
      "revertRequest(uint256)": {
        "details": "Only the TCO2 contract can call this function.",
        "params": {
          "requestId": "The id of the request to revert."
        }
      },
      "revokeRole(bytes32,address)": {
        "details": "Revokes `role` from `account`. If `account` had been granted `role`, emits a {RoleRevoked} event. Requirements: - the caller must have ``role``'s admin role."
      },
      "supportsInterface(bytes4)": {
        "details": "See {IERC165-supportsInterface}."
      },
      "transferOwnership(address)": {
        "details": "Transfers ownership of the contract to a new account (`newOwner`). Can only be called by the current owner."
      },
      "upgradeTo(address)": {
        "details": "Upgrade the implementation of the proxy to `newImplementation`. Calls {_authorizeUpgrade}. Emits an {Upgraded} event."
      },
      "upgradeToAndCall(address,bytes)": {
        "details": "Upgrade the implementation of the proxy to `newImplementation`, and subsequently execute the function call encoded in `data`. Calls {_authorizeUpgrade}. Emits an {Upgraded} event."
      }
    },
    "stateVariables": {
      "PAUSER_ROLE": {
        "details": "All roles related to accessing this contract"
      },
      "VERSION": {
        "details": "Version-related parameters. VERSION keeps track of production releases. VERSION_RELEASE_CANDIDATE keeps track of iterations of a VERSION in our staging environment."
      }
    },
    "version": 1
  },
  "userdoc": {
    "kind": "user",
    "methods": {
      "createDetokenizationRequest(address,uint256,uint256[])": {
        "notice": "Create a new detokenization request."
      },
      "finalizeDetokenizationRequest(uint256)": {
        "notice": "Finalize a detokenization request by burning its amount of TCO2."
      },
      "revertRequest(uint256)": {
        "notice": "Revert a request by transfering amount of TCO2 back to the user."
      }
    },
    "notice": "Contract for escrowing TCO2s during detokenization or retirement until the off-chain registry confirms the detokenization or retirement request.",
    "version": 1
  },
  "storageLayout": {
    "storage": [
      {
        "astId": 1489,
        "contract": "contracts/ToucanCarbonOffsetsEscrow.sol:ToucanCarbonOffsetsEscrow",
        "label": "_initialized",
        "offset": 0,
        "slot": "0",
        "type": "t_uint8"
      },
      {
        "astId": 1492,
        "contract": "contracts/ToucanCarbonOffsetsEscrow.sol:ToucanCarbonOffsetsEscrow",
        "label": "_initializing",
        "offset": 1,
        "slot": "0",
        "type": "t_bool"
      },
      {
        "astId": 4593,
        "contract": "contracts/ToucanCarbonOffsetsEscrow.sol:ToucanCarbonOffsetsEscrow",
        "label": "__gap",
        "offset": 0,
        "slot": "1",
        "type": "t_array(t_uint256)50_storage"
      },
      {
        "astId": 980,
        "contract": "contracts/ToucanCarbonOffsetsEscrow.sol:ToucanCarbonOffsetsEscrow",
        "label": "_owner",
        "offset": 0,
        "slot": "51",
        "type": "t_address"
      },
      {
        "astId": 1092,
        "contract": "contracts/ToucanCarbonOffsetsEscrow.sol:ToucanCarbonOffsetsEscrow",
        "label": "__gap",
        "offset": 0,
        "slot": "52",
        "type": "t_array(t_uint256)49_storage"
      },
      {
        "astId": 1781,
        "contract": "contracts/ToucanCarbonOffsetsEscrow.sol:ToucanCarbonOffsetsEscrow",
        "label": "_paused",
        "offset": 0,
        "slot": "101",
        "type": "t_bool"
      },
      {
        "astId": 1870,
        "contract": "contracts/ToucanCarbonOffsetsEscrow.sol:ToucanCarbonOffsetsEscrow",
        "label": "__gap",
        "offset": 0,
        "slot": "102",
        "type": "t_array(t_uint256)49_storage"
      },
      {
        "astId": 1471,
        "contract": "contracts/ToucanCarbonOffsetsEscrow.sol:ToucanCarbonOffsetsEscrow",
        "label": "__gap",
        "offset": 0,
        "slot": "151",
        "type": "t_array(t_uint256)50_storage"
      },
      {
        "astId": 1759,
        "contract": "contracts/ToucanCarbonOffsetsEscrow.sol:ToucanCarbonOffsetsEscrow",
        "label": "__gap",
        "offset": 0,
        "slot": "201",
        "type": "t_array(t_uint256)50_storage"
      },
      {
        "astId": 4900,
        "contract": "contracts/ToucanCarbonOffsetsEscrow.sol:ToucanCarbonOffsetsEscrow",
        "label": "__gap",
        "offset": 0,
        "slot": "251",
        "type": "t_array(t_uint256)50_storage"
      },
      {
        "astId": 596,
        "contract": "contracts/ToucanCarbonOffsetsEscrow.sol:ToucanCarbonOffsetsEscrow",
        "label": "_roles",
        "offset": 0,
        "slot": "301",
        "type": "t_mapping(t_bytes32,t_struct(RoleData)591_storage)"
      },
      {
        "astId": 895,
        "contract": "contracts/ToucanCarbonOffsetsEscrow.sol:ToucanCarbonOffsetsEscrow",
        "label": "__gap",
        "offset": 0,
        "slot": "302",
        "type": "t_array(t_uint256)49_storage"
      },
      {
        "astId": 11476,
        "contract": "contracts/ToucanCarbonOffsetsEscrow.sol:ToucanCarbonOffsetsEscrow",
        "label": "contractRegistry",
        "offset": 0,
        "slot": "351",
        "type": "t_address"
      },
      {
        "astId": 11478,
        "contract": "contracts/ToucanCarbonOffsetsEscrow.sol:ToucanCarbonOffsetsEscrow",
        "label": "requestIdCounter",
        "offset": 0,
        "slot": "352",
        "type": "t_uint256"
      },
      {
        "astId": 11483,
        "contract": "contracts/ToucanCarbonOffsetsEscrow.sol:ToucanCarbonOffsetsEscrow",
        "label": "_requests",
        "offset": 0,
        "slot": "353",
        "type": "t_mapping(t_uint256,t_struct(Request)11503_storage)"
      }
    ],
    "types": {
      "t_address": {
        "encoding": "inplace",
        "label": "address",
        "numberOfBytes": "20"
      },
      "t_array(t_uint256)49_storage": {
        "base": "t_uint256",
        "encoding": "inplace",
        "label": "uint256[49]",
        "numberOfBytes": "1568"
      },
      "t_array(t_uint256)50_storage": {
        "base": "t_uint256",
        "encoding": "inplace",
        "label": "uint256[50]",
        "numberOfBytes": "1600"
      },
      "t_array(t_uint256)dyn_storage": {
        "base": "t_uint256",
        "encoding": "dynamic_array",
        "label": "uint256[]",
        "numberOfBytes": "32"
      },
      "t_bool": {
        "encoding": "inplace",
        "label": "bool",
        "numberOfBytes": "1"
      },
      "t_bytes32": {
        "encoding": "inplace",
        "label": "bytes32",
        "numberOfBytes": "32"
      },
      "t_enum(RequestStatus)11510": {
        "encoding": "inplace",
        "label": "enum RequestStatus",
        "numberOfBytes": "1"
      },
      "t_enum(RequestType)11506": {
        "encoding": "inplace",
        "label": "enum RequestType",
        "numberOfBytes": "1"
      },
      "t_mapping(t_address,t_bool)": {
        "encoding": "mapping",
        "key": "t_address",
        "label": "mapping(address => bool)",
        "numberOfBytes": "32",
        "value": "t_bool"
      },
      "t_mapping(t_bytes32,t_struct(RoleData)591_storage)": {
        "encoding": "mapping",
        "key": "t_bytes32",
        "label": "mapping(bytes32 => struct AccessControlUpgradeable.RoleData)",
        "numberOfBytes": "32",
        "value": "t_struct(RoleData)591_storage"
      },
      "t_mapping(t_uint256,t_struct(Request)11503_storage)": {
        "encoding": "mapping",
        "key": "t_uint256",
        "label": "mapping(uint256 => struct Request)",
        "numberOfBytes": "32",
        "value": "t_struct(Request)11503_storage"
      },
      "t_struct(Request)11503_storage": {
        "encoding": "inplace",
        "label": "struct Request",
        "members": [
          {
            "astId": 11491,
            "contract": "contracts/ToucanCarbonOffsetsEscrow.sol:ToucanCarbonOffsetsEscrow",
            "label": "user",
            "offset": 0,
            "slot": "0",
            "type": "t_address"
          },
          {
            "astId": 11493,
            "contract": "contracts/ToucanCarbonOffsetsEscrow.sol:ToucanCarbonOffsetsEscrow",
            "label": "amount",
            "offset": 0,
            "slot": "1",
            "type": "t_uint256"
          },
          {
            "astId": 11496,
            "contract": "contracts/ToucanCarbonOffsetsEscrow.sol:ToucanCarbonOffsetsEscrow",
            "label": "rType",
            "offset": 0,
            "slot": "2",
            "type": "t_enum(RequestType)11506"
          },
          {
            "astId": 11499,
            "contract": "contracts/ToucanCarbonOffsetsEscrow.sol:ToucanCarbonOffsetsEscrow",
            "label": "status",
            "offset": 1,
            "slot": "2",
            "type": "t_enum(RequestStatus)11510"
          },
          {
            "astId": 11502,
            "contract": "contracts/ToucanCarbonOffsetsEscrow.sol:ToucanCarbonOffsetsEscrow",
            "label": "batchTokenIds",
            "offset": 0,
            "slot": "3",
            "type": "t_array(t_uint256)dyn_storage"
          }
        ],
        "numberOfBytes": "128"
      },
      "t_struct(RoleData)591_storage": {
        "encoding": "inplace",
        "label": "struct AccessControlUpgradeable.RoleData",
        "members": [
          {
            "astId": 588,
            "contract": "contracts/ToucanCarbonOffsetsEscrow.sol:ToucanCarbonOffsetsEscrow",
            "label": "members",
            "offset": 0,
            "slot": "0",
            "type": "t_mapping(t_address,t_bool)"
          },
          {
            "astId": 590,
            "contract": "contracts/ToucanCarbonOffsetsEscrow.sol:ToucanCarbonOffsetsEscrow",
            "label": "adminRole",
            "offset": 0,
            "slot": "1",
            "type": "t_bytes32"
          }
        ],
        "numberOfBytes": "64"
      },
      "t_uint256": {
        "encoding": "inplace",
        "label": "uint256",
        "numberOfBytes": "32"
      },
      "t_uint8": {
        "encoding": "inplace",
        "label": "uint8",
        "numberOfBytes": "1"
      }
    }
  }
}